{
  "_format": "hh-sol-artifact-1",
  "contractName": "Authentic",
  "sourceName": "contracts/services/Authentic.sol",
  "abi": [
    {
      "anonymous": false,
      "inputs": [
        {
          "indexed": false,
          "internalType": "uint8",
          "name": "version",
          "type": "uint8"
        }
      ],
      "name": "Initialized",
      "type": "event"
    },
    {
      "anonymous": false,
      "inputs": [
        {
          "indexed": true,
          "internalType": "address",
          "name": "previousOwner",
          "type": "address"
        },
        {
          "indexed": true,
          "internalType": "address",
          "name": "newOwner",
          "type": "address"
        }
      ],
      "name": "OwnershipTransferred",
      "type": "event"
    },
    {
      "inputs": [],
      "name": "_admin",
      "outputs": [
        {
          "internalType": "address",
          "name": "",
          "type": "address"
        }
      ],
      "stateMutability": "view",
      "type": "function"
    },
    {
      "inputs": [
        {
          "internalType": "address",
          "name": "",
          "type": "address"
        },
        {
          "internalType": "uint256",
          "name": "",
          "type": "uint256"
        }
      ],
      "name": "_authentic",
      "outputs": [
        {
          "internalType": "string",
          "name": "",
          "type": "string"
        }
      ],
      "stateMutability": "view",
      "type": "function"
    },
    {
      "inputs": [
        {
          "internalType": "address",
          "name": "",
          "type": "address"
        }
      ],
      "name": "_caller",
      "outputs": [
        {
          "internalType": "bool",
          "name": "",
          "type": "bool"
        }
      ],
      "stateMutability": "view",
      "type": "function"
    },
    {
      "inputs": [],
      "name": "_parameterAddr",
      "outputs": [
        {
          "internalType": "address",
          "name": "",
          "type": "address"
        }
      ],
      "stateMutability": "view",
      "type": "function"
    },
    {
      "inputs": [
        {
          "internalType": "address",
          "name": "newAdm",
          "type": "address"
        }
      ],
      "name": "changeAdmin",
      "outputs": [],
      "stateMutability": "nonpayable",
      "type": "function"
    },
    {
      "inputs": [
        {
          "internalType": "address",
          "name": "admin",
          "type": "address"
        },
        {
          "internalType": "address",
          "name": "parameterControl",
          "type": "address"
        }
      ],
      "name": "initialize",
      "outputs": [],
      "stateMutability": "nonpayable",
      "type": "function"
    },
    {
      "inputs": [],
      "name": "owner",
      "outputs": [
        {
          "internalType": "address",
          "name": "",
          "type": "address"
        }
      ],
      "stateMutability": "view",
      "type": "function"
    },
    {
      "inputs": [],
      "name": "renounceOwnership",
      "outputs": [],
      "stateMutability": "nonpayable",
      "type": "function"
    },
    {
      "inputs": [
        {
          "internalType": "address",
          "name": "coll",
          "type": "address"
        },
        {
          "internalType": "uint256",
          "name": "tokenId",
          "type": "uint256"
        },
        {
          "internalType": "string",
          "name": "inscriptionId",
          "type": "string"
        }
      ],
      "name": "setAuthentic",
      "outputs": [],
      "stateMutability": "nonpayable",
      "type": "function"
    },
    {
      "inputs": [
        {
          "internalType": "address",
          "name": "caller",
          "type": "address"
        },
        {
          "internalType": "bool",
          "name": "approved",
          "type": "bool"
        }
      ],
      "name": "setCaller",
      "outputs": [],
      "stateMutability": "nonpayable",
      "type": "function"
    },
    {
      "inputs": [
        {
          "internalType": "address",
          "name": "newOwner",
          "type": "address"
        }
      ],
      "name": "transferOwnership",
      "outputs": [],
      "stateMutability": "nonpayable",
      "type": "function"
    }
  ],
  "bytecode": "0x608060405234801561001057600080fd5b50610b59806100206000396000f3fe608060405234801561001057600080fd5b50600436106100a95760003560e01c806372c20ba41161007157806372c20ba4146101215780638da5cb5b146101545780638f283970146101655780639cae6eae14610178578063a165518b1461018b578063f2fde38b146101ab57600080fd5b806301bc45c9146100ae57806340a9eff1146100de578063485cc955146100f3578063715018a61461010657806372c035cf1461010e575b600080fd5b6065546100c1906001600160a01b031681565b6040516001600160a01b0390911681526020015b60405180910390f35b6100f16100ec3660046108a2565b6101be565b005b6100f161010136600461096f565b6102da565b6100f16104a1565b6066546100c1906001600160a01b031681565b61014461012f3660046109a8565b60676020526000908152604090205460ff1681565b60405190151581526020016100d5565b6033546001600160a01b03166100c1565b6100f16101733660046109a8565b6104b5565b6100f16101863660046109cc565b610546565b61019e6101993660046109ff565b6105b8565b6040516100d59190610a2b565b6100f16101b93660046109a8565b61065d565b6040516331a9108f60e11b815260048101839052839033906001600160a01b03831690636352211e90602401602060405180830381865afa158015610207573d6000803e3d6000fd5b505050506040513d601f19601f8201168201806040525081019061022b9190610a80565b6001600160a01b0316148061024f57503360009081526067602052604090205460ff165b8061026457506065546001600160a01b031633145b6102a25760405162461bcd60e51b815260206004820152600a60248201526924a72b2fa1a0a62622a960b11b60448201526064015b60405180910390fd5b6001600160a01b0384166000908152606860209081526040808320868452825290912083516102d3928501906107de565b5050505050565b600054610100900460ff16158080156102fa5750600054600160ff909116105b806103145750303b158015610314575060005460ff166001145b6103775760405162461bcd60e51b815260206004820152602e60248201527f496e697469616c697a61626c653a20636f6e747261637420697320616c72656160448201526d191e481a5b9a5d1a585b1a5e995960921b6064820152608401610299565b6000805460ff19166001179055801561039a576000805461ff0019166101001790555b60408051808201909152600381526203130360ec1b60208201526001600160a01b0384166103db5760405162461bcd60e51b81526004016102999190610a2b565b5060408051808201909152600381526203130360ec1b60208201526001600160a01b03831661041d5760405162461bcd60e51b81526004016102999190610a2b565b50606580546001600160a01b038086166001600160a01b03199283161790925560668054928516929091169190911790556104566106d3565b801561049c576000805461ff0019169055604051600181527f7f26b83ff96e1f2b6a682f133852f6798a09c465da95921460cefb38474024989060200160405180910390a15b505050565b6104a9610702565b6104b3600061075c565b565b6065546001600160a01b0316331480156104d757506001600160a01b03811615155b6040518060400160405280600381526020016231303160e81b815250906105115760405162461bcd60e51b81526004016102999190610a2b565b506065546001600160a01b0382811691161461054357606580546001600160a01b0319166001600160a01b0383161790555b50565b6065546001600160a01b0316331461058d5760405162461bcd60e51b815260206004820152600a60248201526924a72b2fa1a0a62622a960b11b6044820152606401610299565b6001600160a01b03919091166000908152606760205260409020805460ff1916911515919091179055565b6068602090815260009283526040808420909152908252902080546105dc90610a9d565b80601f016020809104026020016040519081016040528092919081815260200182805461060890610a9d565b80156106555780601f1061062a57610100808354040283529160200191610655565b820191906000526020600020905b81548152906001019060200180831161063857829003601f168201915b505050505081565b610665610702565b6001600160a01b0381166106ca5760405162461bcd60e51b815260206004820152602660248201527f4f776e61626c653a206e6577206f776e657220697320746865207a65726f206160448201526564647265737360d01b6064820152608401610299565b6105438161075c565b600054610100900460ff166106fa5760405162461bcd60e51b815260040161029990610ad8565b6104b36107ae565b6033546001600160a01b031633146104b35760405162461bcd60e51b815260206004820181905260248201527f4f776e61626c653a2063616c6c6572206973206e6f7420746865206f776e65726044820152606401610299565b603380546001600160a01b038381166001600160a01b0319831681179093556040519116919082907f8be0079c531659141344cd1fd0a4f28419497f9722a3daafe3b4186f6b6457e090600090a35050565b600054610100900460ff166107d55760405162461bcd60e51b815260040161029990610ad8565b6104b33361075c565b8280546107ea90610a9d565b90600052602060002090601f01602090048101928261080c5760008555610852565b82601f1061082557805160ff1916838001178555610852565b82800160010185558215610852579182015b82811115610852578251825591602001919060010190610837565b5061085e929150610862565b5090565b5b8082111561085e5760008155600101610863565b6001600160a01b038116811461054357600080fd5b634e487b7160e01b600052604160045260246000fd5b6000806000606084860312156108b757600080fd5b83356108c281610877565b925060208401359150604084013567ffffffffffffffff808211156108e657600080fd5b818601915086601f8301126108fa57600080fd5b81358181111561090c5761090c61088c565b604051601f8201601f19908116603f011681019083821181831017156109345761093461088c565b8160405282815289602084870101111561094d57600080fd5b8260208601602083013760006020848301015280955050505050509250925092565b6000806040838503121561098257600080fd5b823561098d81610877565b9150602083013561099d81610877565b809150509250929050565b6000602082840312156109ba57600080fd5b81356109c581610877565b9392505050565b600080604083850312156109df57600080fd5b82356109ea81610877565b91506020830135801515811461099d57600080fd5b60008060408385031215610a1257600080fd5b8235610a1d81610877565b946020939093013593505050565b600060208083528351808285015260005b81811015610a5857858101830151858201604001528201610a3c565b81811115610a6a576000604083870101525b50601f01601f1916929092016040019392505050565b600060208284031215610a9257600080fd5b81516109c581610877565b600181811c90821680610ab157607f821691505b60208210811415610ad257634e487b7160e01b600052602260045260246000fd5b50919050565b6020808252602b908201527f496e697469616c697a61626c653a20636f6e7472616374206973206e6f74206960408201526a6e697469616c697a696e6760a81b60608201526080019056fea2646970667358221220490ed2383530dada1ca8b9b56dd071d398412395a4e5e682c8f1e49c0b46ff5664736f6c634300080c0033",
  "linkReferences": {},
  "deployedLinkReferences": {}
}