{
  "_format": "hh-sol-artifact-1",
  "contractName": "GENTokenVesting",
  "sourceName": "contracts/erc20/GENTokenVesting.sol",
  "abi": [
    {
      "anonymous": false,
      "inputs": [
        {
          "indexed": true,
          "internalType": "contract IERC20Upgradeable",
          "name": "token",
          "type": "address"
        },
        {
          "indexed": false,
          "internalType": "address",
          "name": "to",
          "type": "address"
        },
        {
          "indexed": false,
          "internalType": "uint256",
          "name": "amount",
          "type": "uint256"
        }
      ],
      "name": "ERC20PaymentReleased",
      "type": "event"
    },
    {
      "anonymous": false,
      "inputs": [
        {
          "indexed": false,
          "internalType": "uint8",
          "name": "version",
          "type": "uint8"
        }
      ],
      "name": "Initialized",
      "type": "event"
    },
    {
      "anonymous": false,
      "inputs": [
        {
          "indexed": true,
          "internalType": "address",
          "name": "previousOwner",
          "type": "address"
        },
        {
          "indexed": true,
          "internalType": "address",
          "name": "newOwner",
          "type": "address"
        }
      ],
      "name": "OwnershipTransferred",
      "type": "event"
    },
    {
      "anonymous": false,
      "inputs": [
        {
          "indexed": false,
          "internalType": "address",
          "name": "account",
          "type": "address"
        },
        {
          "indexed": false,
          "internalType": "uint256",
          "name": "shares",
          "type": "uint256"
        }
      ],
      "name": "PayeeAdded",
      "type": "event"
    },
    {
      "anonymous": false,
      "inputs": [
        {
          "indexed": false,
          "internalType": "address",
          "name": "from",
          "type": "address"
        },
        {
          "indexed": false,
          "internalType": "uint256",
          "name": "amount",
          "type": "uint256"
        }
      ],
      "name": "PaymentReceived",
      "type": "event"
    },
    {
      "anonymous": false,
      "inputs": [
        {
          "indexed": false,
          "internalType": "address",
          "name": "to",
          "type": "address"
        },
        {
          "indexed": false,
          "internalType": "uint256",
          "name": "amount",
          "type": "uint256"
        }
      ],
      "name": "PaymentReleased",
      "type": "event"
    },
    {
      "inputs": [],
      "name": "_admin",
      "outputs": [
        {
          "internalType": "address",
          "name": "",
          "type": "address"
        }
      ],
      "stateMutability": "view",
      "type": "function"
    },
    {
      "inputs": [],
      "name": "_genToken",
      "outputs": [
        {
          "internalType": "address",
          "name": "",
          "type": "address"
        }
      ],
      "stateMutability": "view",
      "type": "function"
    },
    {
      "inputs": [
        {
          "internalType": "address",
          "name": "newAdm",
          "type": "address"
        }
      ],
      "name": "changeAdmin",
      "outputs": [],
      "stateMutability": "nonpayable",
      "type": "function"
    },
    {
      "inputs": [
        {
          "internalType": "address",
          "name": "newAddr",
          "type": "address"
        }
      ],
      "name": "changeGENToken",
      "outputs": [],
      "stateMutability": "nonpayable",
      "type": "function"
    },
    {
      "inputs": [
        {
          "internalType": "address",
          "name": "admin",
          "type": "address"
        },
        {
          "internalType": "address[]",
          "name": "payees",
          "type": "address[]"
        },
        {
          "internalType": "uint256[]",
          "name": "shares",
          "type": "uint256[]"
        },
        {
          "internalType": "address",
          "name": "genToken",
          "type": "address"
        }
      ],
      "name": "initialize",
      "outputs": [],
      "stateMutability": "nonpayable",
      "type": "function"
    },
    {
      "inputs": [],
      "name": "owner",
      "outputs": [
        {
          "internalType": "address",
          "name": "",
          "type": "address"
        }
      ],
      "stateMutability": "view",
      "type": "function"
    },
    {
      "inputs": [
        {
          "internalType": "uint256",
          "name": "index",
          "type": "uint256"
        }
      ],
      "name": "payee",
      "outputs": [
        {
          "internalType": "address",
          "name": "",
          "type": "address"
        }
      ],
      "stateMutability": "view",
      "type": "function"
    },
    {
      "inputs": [
        {
          "internalType": "address",
          "name": "account",
          "type": "address"
        }
      ],
      "name": "releasable",
      "outputs": [
        {
          "internalType": "uint256",
          "name": "",
          "type": "uint256"
        }
      ],
      "stateMutability": "view",
      "type": "function"
    },
    {
      "inputs": [
        {
          "internalType": "contract IERC20Upgradeable",
          "name": "token",
          "type": "address"
        },
        {
          "internalType": "address",
          "name": "account",
          "type": "address"
        }
      ],
      "name": "releasable",
      "outputs": [
        {
          "internalType": "uint256",
          "name": "",
          "type": "uint256"
        }
      ],
      "stateMutability": "view",
      "type": "function"
    },
    {
      "inputs": [
        {
          "internalType": "address payable",
          "name": "account",
          "type": "address"
        }
      ],
      "name": "release",
      "outputs": [],
      "stateMutability": "nonpayable",
      "type": "function"
    },
    {
      "inputs": [
        {
          "internalType": "contract IERC20Upgradeable",
          "name": "token",
          "type": "address"
        },
        {
          "internalType": "address",
          "name": "account",
          "type": "address"
        }
      ],
      "name": "release",
      "outputs": [],
      "stateMutability": "nonpayable",
      "type": "function"
    },
    {
      "inputs": [
        {
          "internalType": "contract IERC20Upgradeable",
          "name": "token",
          "type": "address"
        },
        {
          "internalType": "address",
          "name": "account",
          "type": "address"
        }
      ],
      "name": "released",
      "outputs": [
        {
          "internalType": "uint256",
          "name": "",
          "type": "uint256"
        }
      ],
      "stateMutability": "view",
      "type": "function"
    },
    {
      "inputs": [
        {
          "internalType": "address",
          "name": "account",
          "type": "address"
        }
      ],
      "name": "released",
      "outputs": [
        {
          "internalType": "uint256",
          "name": "",
          "type": "uint256"
        }
      ],
      "stateMutability": "view",
      "type": "function"
    },
    {
      "inputs": [],
      "name": "renounceOwnership",
      "outputs": [],
      "stateMutability": "nonpayable",
      "type": "function"
    },
    {
      "inputs": [
        {
          "internalType": "address",
          "name": "account",
          "type": "address"
        }
      ],
      "name": "shares",
      "outputs": [
        {
          "internalType": "uint256",
          "name": "",
          "type": "uint256"
        }
      ],
      "stateMutability": "view",
      "type": "function"
    },
    {
      "inputs": [
        {
          "internalType": "contract IERC20Upgradeable",
          "name": "token",
          "type": "address"
        }
      ],
      "name": "totalReleased",
      "outputs": [
        {
          "internalType": "uint256",
          "name": "",
          "type": "uint256"
        }
      ],
      "stateMutability": "view",
      "type": "function"
    },
    {
      "inputs": [],
      "name": "totalReleased",
      "outputs": [
        {
          "internalType": "uint256",
          "name": "",
          "type": "uint256"
        }
      ],
      "stateMutability": "view",
      "type": "function"
    },
    {
      "inputs": [],
      "name": "totalShares",
      "outputs": [
        {
          "internalType": "uint256",
          "name": "",
          "type": "uint256"
        }
      ],
      "stateMutability": "view",
      "type": "function"
    },
    {
      "inputs": [
        {
          "internalType": "address",
          "name": "newOwner",
          "type": "address"
        }
      ],
      "name": "transferOwnership",
      "outputs": [],
      "stateMutability": "nonpayable",
      "type": "function"
    },
    {
      "inputs": [
        {
          "internalType": "address",
          "name": "erc20Addr",
          "type": "address"
        },
        {
          "internalType": "uint256",
          "name": "amount",
          "type": "uint256"
        }
      ],
      "name": "withdraw",
      "outputs": [],
      "stateMutability": "nonpayable",
      "type": "function"
    },
    {
      "stateMutability": "payable",
      "type": "receive"
    }
  ],
  "bytecode": "0x608060405234801561001057600080fd5b50611705806100206000396000f3fe6080604052600436106101235760003560e01c80639852595c116100a0578063e33b7de311610064578063e33b7de3146103c8578063f2fde38b146103dd578063f3fef3a3146103fd578063f70fb2981461041d578063fd366c7d1461043d57600080fd5b80639852595c146102e6578063a3f8eace1461031c578063c45ac0501461033c578063ce7c2ac21461035c578063d79779b21461039257600080fd5b806348b75044116100e757806348b7504414610253578063715018a6146102735780638b83209b146102885780638da5cb5b146102a85780638f283970146102c657600080fd5b806301bc45c91461017157806319165587146101ae5780633a98ef39146101ce578063406072a9146101ed5780634779dcd51461023357600080fd5b3661016c577f6ef95f06320e7a25a04a175ca677b7052bdd97131872c2192525a629f51be77033604080516001600160a01b0390921682523460208301520160405180910390a1005b600080fd5b34801561017d57600080fd5b50609854610191906001600160a01b031681565b6040516001600160a01b0390911681526020015b60405180910390f35b3480156101ba57600080fd5b506101cc6101c93660046112af565b50565b005b3480156101da57600080fd5b506065545b6040519081526020016101a5565b3480156101f957600080fd5b506101df6102083660046112dc565b6001600160a01b039182166000908152606b6020908152604080832093909416825291909152205490565b34801561023f57600080fd5b506101cc61024e3660046112af565b61045d565b34801561025f57600080fd5b506101cc61026e3660046112dc565b6104f8565b34801561027f57600080fd5b506101cc61054e565b34801561029457600080fd5b506101916102a3366004611315565b610562565b3480156102b457600080fd5b506033546001600160a01b0316610191565b3480156102d257600080fd5b506101cc6102e13660046112af565b610592565b3480156102f257600080fd5b506101df6103013660046112af565b6001600160a01b031660009081526068602052604090205490565b34801561032857600080fd5b506101df6103373660046112af565b610624565b34801561034857600080fd5b506101df6103573660046112dc565b61066c565b34801561036857600080fd5b506101df6103773660046112af565b6001600160a01b031660009081526067602052604090205490565b34801561039e57600080fd5b506101df6103ad3660046112af565b6001600160a01b03166000908152606a602052604090205490565b3480156103d457600080fd5b506066546101df565b3480156103e957600080fd5b506101cc6103f83660046112af565b610737565b34801561040957600080fd5b506101cc61041836600461132e565b6107ad565b34801561042957600080fd5b506101cc610438366004611430565b6108ed565b34801561044957600080fd5b50609754610191906001600160a01b031681565b6098546001600160a01b03163314801561047f57506001600160a01b03811615155b6040518060400160405280600381526020016203130360ec1b815250906104c25760405162461bcd60e51b81526004016104b99190611543565b60405180910390fd5b506097546001600160a01b038281169116146101c957609780546001600160a01b0383166001600160a01b031990911617905550565b6097546001600160a01b038381169116146105405760405162461bcd60e51b815260206004820152600860248201526724a72b2fa0a2222960c11b60448201526064016104b9565b61054a8282610a27565b5050565b610556610bb8565b6105606000610c12565b565b60006069828154811061057757610577611576565b6000918252602090912001546001600160a01b031692915050565b6098546001600160a01b0316331480156105b457506001600160a01b03811615155b6040518060400160405280600381526020016231303160e81b815250906105ee5760405162461bcd60e51b81526004016104b99190611543565b506098546001600160a01b038281169116146101c957609880546001600160a01b0383166001600160a01b031990911617905550565b60008061063060665490565b61063a90476115a2565b90506106658382610660866001600160a01b031660009081526068602052604090205490565b610c64565b9392505050565b6001600160a01b0382166000908152606a602052604081205481906040516370a0823160e01b81523060048201526001600160a01b038616906370a0823190602401602060405180830381865afa1580156106cb573d6000803e3d6000fd5b505050506040513d601f19601f820116820180604052508101906106ef91906115ba565b6106f991906115a2565b6001600160a01b038086166000908152606b602090815260408083209388168352929052205490915061072f9084908390610c64565b949350505050565b61073f610bb8565b6001600160a01b0381166107a45760405162461bcd60e51b815260206004820152602660248201527f4f776e61626c653a206e6577206f776e657220697320746865207a65726f206160448201526564647265737360d01b60648201526084016104b9565b6101c981610c12565b60985460408051808201909152600381526231303160e81b6020820152906001600160a01b031633146107f35760405162461bcd60e51b81526004016104b99190611543565b5060006001600160a01b03831661086b578147101561081157600080fd5b60405133908390600081818185875af1925050503d8060008114610851576040519150601f19603f3d011682016040523d82523d6000602084013e610856565b606091505b5050809150508061086657600080fd5b505050565b60405163a9059cbb60e01b81523360048201526024810183905283906001600160a01b0382169063a9059cbb906044016020604051808303816000875af11580156108ba573d6000803e3d6000fd5b505050506040513d601f19601f820116820180604052508101906108de91906115d3565b6108e757600080fd5b50505050565b600054610100900460ff161580801561090d5750600054600160ff909116105b806109275750303b158015610927575060005460ff166001145b61098a5760405162461bcd60e51b815260206004820152602e60248201527f496e697469616c697a61626c653a20636f6e747261637420697320616c72656160448201526d191e481a5b9a5d1a585b1a5e995960921b60648201526084016104b9565b6000805460ff1916600117905580156109ad576000805461ff0019166101001790555b609780546001600160a01b0319166001600160a01b0384161790556109d28484610ca2565b6109da610cd3565b8015610a20576000805461ff0019169055604051600181527f7f26b83ff96e1f2b6a682f133852f6798a09c465da95921460cefb38474024989060200160405180910390a15b5050505050565b6001600160a01b038116600090815260676020526040902054610a9b5760405162461bcd60e51b815260206004820152602660248201527f5061796d656e7453706c69747465723a206163636f756e7420686173206e6f2060448201526573686172657360d01b60648201526084016104b9565b6000610aa7838361066c565b905080610b0a5760405162461bcd60e51b815260206004820152602b60248201527f5061796d656e7453706c69747465723a206163636f756e74206973206e6f742060448201526a191d59481c185e5b595b9d60aa1b60648201526084016104b9565b6001600160a01b0383166000908152606a602052604081208054839290610b329084906115a2565b90915550506001600160a01b038084166000908152606b60209081526040808320938616835292905220805482019055610b6d838383610d02565b604080516001600160a01b038481168252602082018490528516917f3be5b7a71e84ed12875d241991c70855ac5817d847039e17a9d895c1ceb0f18a910160405180910390a2505050565b6033546001600160a01b031633146105605760405162461bcd60e51b815260206004820181905260248201527f4f776e61626c653a2063616c6c6572206973206e6f7420746865206f776e657260448201526064016104b9565b603380546001600160a01b038381166001600160a01b0319831681179093556040519116919082907f8be0079c531659141344cd1fd0a4f28419497f9722a3daafe3b4186f6b6457e090600090a35050565b6065546001600160a01b03841660009081526067602052604081205490918391610c8e90866115f5565b610c989190611614565b61072f9190611636565b600054610100900460ff16610cc95760405162461bcd60e51b81526004016104b99061164d565b61054a8282610d54565b600054610100900460ff16610cfa5760405162461bcd60e51b81526004016104b99061164d565b610560610e92565b604080516001600160a01b038416602482015260448082018490528251808303909101815260649091019091526020810180516001600160e01b031663a9059cbb60e01b179052610866908490610ec2565b600054610100900460ff16610d7b5760405162461bcd60e51b81526004016104b99061164d565b8051825114610de75760405162461bcd60e51b815260206004820152603260248201527f5061796d656e7453706c69747465723a2070617965657320616e6420736861726044820152710cae640d8cadccee8d040dad2e6dac2e8c6d60731b60648201526084016104b9565b6000825111610e385760405162461bcd60e51b815260206004820152601a60248201527f5061796d656e7453706c69747465723a206e6f2070617965657300000000000060448201526064016104b9565b60005b825181101561086657610e80838281518110610e5957610e59611576565b6020026020010151838381518110610e7357610e73611576565b6020026020010151610f94565b80610e8a81611698565b915050610e3b565b600054610100900460ff16610eb95760405162461bcd60e51b81526004016104b99061164d565b61056033610c12565b6000610f17826040518060400160405280602081526020017f5361666545524332303a206c6f772d6c6576656c2063616c6c206661696c6564815250856001600160a01b031661117a9092919063ffffffff16565b8051909150156108665780806020019051810190610f3591906115d3565b6108665760405162461bcd60e51b815260206004820152602a60248201527f5361666545524332303a204552433230206f7065726174696f6e20646964206e6044820152691bdd081cdd58d8d9595960b21b60648201526084016104b9565b6001600160a01b038216610fff5760405162461bcd60e51b815260206004820152602c60248201527f5061796d656e7453706c69747465723a206163636f756e74206973207468652060448201526b7a65726f206164647265737360a01b60648201526084016104b9565b6000811161104f5760405162461bcd60e51b815260206004820152601d60248201527f5061796d656e7453706c69747465723a2073686172657320617265203000000060448201526064016104b9565b6001600160a01b038216600090815260676020526040902054156110c95760405162461bcd60e51b815260206004820152602b60248201527f5061796d656e7453706c69747465723a206163636f756e7420616c726561647960448201526a206861732073686172657360a81b60648201526084016104b9565b60698054600181019091557f7fb4302e8e91f9110a6554c2c0a24601252c2a42c2220ca988efcfe3999143080180546001600160a01b0319166001600160a01b03841690811790915560009081526067602052604090208190556065546111319082906115a2565b606555604080516001600160a01b0384168152602081018390527f40c340f65e17194d14ddddb073d3c9f888e3cb52b5aae0c6c7706b4fbc905fac910160405180910390a15050565b606061072f848460008585600080866001600160a01b031685876040516111a191906116b3565b60006040518083038185875af1925050503d80600081146111de576040519150601f19603f3d011682016040523d82523d6000602084013e6111e3565b606091505b50915091506111f4878383876111ff565b979650505050505050565b6060831561126b578251611264576001600160a01b0385163b6112645760405162461bcd60e51b815260206004820152601d60248201527f416464726573733a2063616c6c20746f206e6f6e2d636f6e747261637400000060448201526064016104b9565b508161072f565b61072f83838151156112805781518083602001fd5b8060405162461bcd60e51b81526004016104b99190611543565b6001600160a01b03811681146101c957600080fd5b6000602082840312156112c157600080fd5b81356106658161129a565b80356112d78161129a565b919050565b600080604083850312156112ef57600080fd5b82356112fa8161129a565b9150602083013561130a8161129a565b809150509250929050565b60006020828403121561132757600080fd5b5035919050565b6000806040838503121561134157600080fd5b823561134c8161129a565b946020939093013593505050565b634e487b7160e01b600052604160045260246000fd5b604051601f8201601f1916810167ffffffffffffffff811182821017156113995761139961135a565b604052919050565b600067ffffffffffffffff8211156113bb576113bb61135a565b5060051b60200190565b600082601f8301126113d657600080fd5b813560206113eb6113e6836113a1565b611370565b82815260059290921b8401810191818101908684111561140a57600080fd5b8286015b84811015611425578035835291830191830161140e565b509695505050505050565b6000806000806080858703121561144657600080fd5b84356114518161129a565b935060208581013567ffffffffffffffff8082111561146f57600080fd5b818801915088601f83011261148357600080fd5b81356114916113e6826113a1565b81815260059190911b8301840190848101908b8311156114b057600080fd5b938501935b828510156114d75784356114c88161129a565b825293850193908501906114b5565b9750505060408801359250808311156114ef57600080fd5b50506114fd878288016113c5565b92505061150c606086016112cc565b905092959194509250565b60005b8381101561153257818101518382015260200161151a565b838111156108e75750506000910152565b6020815260008251806020840152611562816040850160208701611517565b601f01601f19169190910160400192915050565b634e487b7160e01b600052603260045260246000fd5b634e487b7160e01b600052601160045260246000fd5b600082198211156115b5576115b561158c565b500190565b6000602082840312156115cc57600080fd5b5051919050565b6000602082840312156115e557600080fd5b8151801515811461066557600080fd5b600081600019048311821515161561160f5761160f61158c565b500290565b60008261163157634e487b7160e01b600052601260045260246000fd5b500490565b6000828210156116485761164861158c565b500390565b6020808252602b908201527f496e697469616c697a61626c653a20636f6e7472616374206973206e6f74206960408201526a6e697469616c697a696e6760a81b606082015260800190565b60006000198214156116ac576116ac61158c565b5060010190565b600082516116c5818460208701611517565b919091019291505056fea2646970667358221220fde5303a29eb5c1a2130316318f7ff83be8f8bb44608e88770d7fa632dfec7ef64736f6c634300080c0033",
  "linkReferences": {},
  "deployedLinkReferences": {}
}