{
  "_format": "hh-sol-artifact-1",
  "contractName": "RoyaltyFinanceSecondSale",
  "sourceName": "contracts/services/RoyaltyFinanceSecondSale.sol",
  "abi": [
    {
      "anonymous": false,
      "inputs": [
        {
          "indexed": false,
          "internalType": "uint8",
          "name": "version",
          "type": "uint8"
        }
      ],
      "name": "Initialized",
      "type": "event"
    },
    {
      "anonymous": false,
      "inputs": [
        {
          "indexed": true,
          "internalType": "address",
          "name": "previousOwner",
          "type": "address"
        },
        {
          "indexed": true,
          "internalType": "address",
          "name": "newOwner",
          "type": "address"
        }
      ],
      "name": "OwnershipTransferred",
      "type": "event"
    },
    {
      "inputs": [],
      "name": "_admin",
      "outputs": [
        {
          "internalType": "address",
          "name": "",
          "type": "address"
        }
      ],
      "stateMutability": "view",
      "type": "function"
    },
    {
      "inputs": [],
      "name": "_generativeProjectAddr",
      "outputs": [
        {
          "internalType": "address",
          "name": "",
          "type": "address"
        }
      ],
      "stateMutability": "view",
      "type": "function"
    },
    {
      "inputs": [],
      "name": "_paramsAddress",
      "outputs": [
        {
          "internalType": "address",
          "name": "",
          "type": "address"
        }
      ],
      "stateMutability": "view",
      "type": "function"
    },
    {
      "inputs": [
        {
          "internalType": "address",
          "name": "",
          "type": "address"
        }
      ],
      "name": "_proxyRoyaltySecondSales",
      "outputs": [
        {
          "internalType": "bool",
          "name": "",
          "type": "bool"
        }
      ],
      "stateMutability": "view",
      "type": "function"
    },
    {
      "inputs": [
        {
          "internalType": "uint256",
          "name": "",
          "type": "uint256"
        },
        {
          "internalType": "address",
          "name": "",
          "type": "address"
        },
        {
          "internalType": "address",
          "name": "",
          "type": "address"
        }
      ],
      "name": "_royaltySecondSale",
      "outputs": [
        {
          "internalType": "uint256",
          "name": "",
          "type": "uint256"
        }
      ],
      "stateMutability": "view",
      "type": "function"
    },
    {
      "inputs": [
        {
          "internalType": "address",
          "name": "",
          "type": "address"
        }
      ],
      "name": "_royaltySecondSaleAdmin",
      "outputs": [
        {
          "internalType": "uint256",
          "name": "",
          "type": "uint256"
        }
      ],
      "stateMutability": "view",
      "type": "function"
    },
    {
      "inputs": [
        {
          "internalType": "address",
          "name": "",
          "type": "address"
        }
      ],
      "name": "_royaltySecondSaleAdminWithdrawn",
      "outputs": [
        {
          "internalType": "uint256",
          "name": "",
          "type": "uint256"
        }
      ],
      "stateMutability": "view",
      "type": "function"
    },
    {
      "inputs": [
        {
          "internalType": "uint256",
          "name": "",
          "type": "uint256"
        },
        {
          "internalType": "address",
          "name": "",
          "type": "address"
        },
        {
          "internalType": "address",
          "name": "",
          "type": "address"
        }
      ],
      "name": "_royaltySecondSaleWithdrawn",
      "outputs": [
        {
          "internalType": "uint256",
          "name": "",
          "type": "uint256"
        }
      ],
      "stateMutability": "view",
      "type": "function"
    },
    {
      "inputs": [
        {
          "internalType": "address",
          "name": "newAdm",
          "type": "address"
        }
      ],
      "name": "changeAdmin",
      "outputs": [],
      "stateMutability": "nonpayable",
      "type": "function"
    },
    {
      "inputs": [
        {
          "internalType": "address",
          "name": "newAddr",
          "type": "address"
        }
      ],
      "name": "changeParamAddr",
      "outputs": [],
      "stateMutability": "nonpayable",
      "type": "function"
    },
    {
      "inputs": [
        {
          "internalType": "address",
          "name": "newAddr",
          "type": "address"
        }
      ],
      "name": "changeProjectAddress",
      "outputs": [],
      "stateMutability": "nonpayable",
      "type": "function"
    },
    {
      "inputs": [
        {
          "internalType": "address",
          "name": "admin",
          "type": "address"
        },
        {
          "internalType": "address",
          "name": "paramAddr",
          "type": "address"
        },
        {
          "internalType": "address",
          "name": "projectAddr",
          "type": "address"
        },
        {
          "internalType": "address",
          "name": "proxy",
          "type": "address"
        }
      ],
      "name": "initialize",
      "outputs": [],
      "stateMutability": "nonpayable",
      "type": "function"
    },
    {
      "inputs": [],
      "name": "owner",
      "outputs": [
        {
          "internalType": "address",
          "name": "",
          "type": "address"
        }
      ],
      "stateMutability": "view",
      "type": "function"
    },
    {
      "inputs": [],
      "name": "renounceOwnership",
      "outputs": [],
      "stateMutability": "nonpayable",
      "type": "function"
    },
    {
      "inputs": [
        {
          "internalType": "address",
          "name": "addr",
          "type": "address"
        },
        {
          "internalType": "bool",
          "name": "approve",
          "type": "bool"
        }
      ],
      "name": "setProxyRoyaltySecondSale",
      "outputs": [],
      "stateMutability": "nonpayable",
      "type": "function"
    },
    {
      "inputs": [
        {
          "internalType": "uint256",
          "name": "tokenId",
          "type": "uint256"
        },
        {
          "internalType": "address",
          "name": "erc20Addr",
          "type": "address"
        },
        {
          "internalType": "uint256",
          "name": "amount",
          "type": "uint256"
        }
      ],
      "name": "setRoyaltySecondSale",
      "outputs": [],
      "stateMutability": "nonpayable",
      "type": "function"
    },
    {
      "inputs": [
        {
          "internalType": "bytes4",
          "name": "interfaceId",
          "type": "bytes4"
        }
      ],
      "name": "supportsInterface",
      "outputs": [
        {
          "internalType": "bool",
          "name": "",
          "type": "bool"
        }
      ],
      "stateMutability": "view",
      "type": "function"
    },
    {
      "inputs": [
        {
          "internalType": "address",
          "name": "newOwner",
          "type": "address"
        }
      ],
      "name": "transferOwnership",
      "outputs": [],
      "stateMutability": "nonpayable",
      "type": "function"
    },
    {
      "inputs": [
        {
          "internalType": "address",
          "name": "erc20Addr",
          "type": "address"
        }
      ],
      "name": "withdraw",
      "outputs": [],
      "stateMutability": "nonpayable",
      "type": "function"
    },
    {
      "inputs": [
        {
          "internalType": "address",
          "name": "account",
          "type": "address"
        },
        {
          "internalType": "uint256",
          "name": "projectId",
          "type": "uint256"
        },
        {
          "internalType": "address",
          "name": "erc20Addr",
          "type": "address"
        }
      ],
      "name": "withdrawRoyalty",
      "outputs": [],
      "stateMutability": "nonpayable",
      "type": "function"
    },
    {
      "stateMutability": "payable",
      "type": "receive"
    }
  ],
  "bytecode": "0x608060405234801561001057600080fd5b50611741806100206000396000f3fe6080604052600436106101235760003560e01c8063715018a6116100a0578063adfc7dae11610064578063adfc7dae14610403578063e808285814610423578063f2fde38b14610443578063f8c8765e14610463578063febfd6c31461048357600080fd5b8063715018a6146103605780638da5cb5b146103755780638f28397014610393578063a0e0e68e146103b3578063ac638ef9146103d357600080fd5b80631737a8f9116100e75780631737a8f9146102955780634e55e4fc146102d357806351cff8d914610300578063567fdcf314610320578063676eda171461034057600080fd5b806301bc45c91461018d57806301ffc9a7146101ca57806304b40f18146101fa5780630b9c79181461021c5780630bd06f511461026857600080fd5b366101885760c9546001600160a01b0316331480610150575033600090815260cc602052604090205460ff165b61015957600080fd5b604051349033907f6ef95f06320e7a25a04a175ca677b7052bdd97131872c2192525a629f51be77090600090a3005b600080fd5b34801561019957600080fd5b5060c9546101ad906001600160a01b031681565b6040516001600160a01b0390911681526020015b60405180910390f35b3480156101d657600080fd5b506101ea6101e53660046113b1565b6104a3565b60405190151581526020016101c1565b34801561020657600080fd5b5061021a610215366004611405565b6104da565b005b34801561022857600080fd5b5061025a61023736600461143e565b60d060209081526000938452604080852082529284528284209052825290205481565b6040519081526020016101c1565b34801561027457600080fd5b5061025a610283366004611480565b60cd6020526000908152604090205481565b3480156102a157600080fd5b5061025a6102b036600461143e565b60ce60209081526000938452604080852082529284528284209052825290205481565b3480156102df57600080fd5b5061025a6102ee366004611480565b60cf6020526000908152604090205481565b34801561030c57600080fd5b5061021a61031b366004611480565b610594565b34801561032c57600080fd5b5060cb546101ad906001600160a01b031681565b34801561034c57600080fd5b5061021a61035b36600461149d565b610823565b34801561036c57600080fd5b5061021a610b24565b34801561038157600080fd5b506033546001600160a01b03166101ad565b34801561039f57600080fd5b5061021a6103ae366004611480565b610b38565b3480156103bf57600080fd5b5061021a6103ce3660046114d5565b610bc9565b3480156103df57600080fd5b506101ea6103ee366004611480565b60cc6020526000908152604090205460ff1681565b34801561040f57600080fd5b5060ca546101ad906001600160a01b031681565b34801561042f57600080fd5b5061021a61043e366004611480565b610ddd565b34801561044f57600080fd5b5061021a61045e366004611480565b610e6f565b34801561046f57600080fd5b5061021a61047e36600461150c565b610ee5565b34801561048f57600080fd5b5061021a61049e366004611480565b611136565b60006001600160e01b0319821663676eda1760e01b14806104d457506301ffc9a760e01b6001600160e01b03198316145b92915050565b60c9546001600160a01b0316331480156104fc57506001600160a01b03821615155b6040518060400160405280600381526020016231303160e81b8152509061053f5760405162461bcd60e51b81526004016105369190611568565b60405180910390fd5b506001600160a01b038216600081815260cc6020526040808220805460ff191685151590811790915590519092917ffba76eeea51774acad432e81c91089e1d42ef2b7055025300a68bc95319bf19291a35050565b60c95460408051808201909152600381526231303160e81b6020820152906001600160a01b031633146105da5760405162461bcd60e51b81526004016105369190611568565b5060ca54604080518082018252601f81527f4d494e545f4e46545f4f50455241544f525f54524541535552455f41444452006020820152905163bf40fac160e01b815233926001600160a01b031691600091839163bf40fac1916106419190600401611568565b602060405180830381865afa15801561065e573d6000803e3d6000fd5b505050506040513d601f19601f8201168201806040525081019061068291906115bd565b90506001600160a01b03811615610697578092505b60006001600160a01b03851661071b576001600160a01b03858116600090815260cd602052604080822054905192871692909181818185875af1925050503d8060008114610701576040519150601f19603f3d011682016040523d82523d6000602084013e610706565b606091505b5050809150508061071657600080fd5b6107a9565b6001600160a01b03858116600081815260cd60205260409081902054905163a9059cbb60e01b815292871660048401526024830152869163a9059cbb906044016020604051808303816000875af115801561077a573d6000803e3d6000fd5b505050506040513d601f19601f8201168201806040525081019061079e91906115da565b6107a757600080fd5b505b6001600160a01b038516600090815260cd602090815260408083205460cf90925282208054919290916107dd90849061160d565b909155505060c9546040516001600160a01b038088169216907f34d58c18c6c1df2c698ccac556acea92941ca7b99d2fccf9e3ac1852d0dec36f90600090a35050505050565b61082b6111c8565b60c9546001600160a01b0316331480610853575033600090815260cc602052604090205460ff165b15610ad7576000610867620f424085611625565b60cb546040516331a9108f60e11b8152600481018390529192506001600160a01b0316906000908290636352211e90602401602060405180830381865afa1580156108b6573d6000803e3d6000fd5b505050506040513d601f19601f820116820180604052508101906108da91906115bd565b90506001600160a01b03811615610a915760ca54612328906001600160a01b0316156109b55760ca54604080518082018252601981527f4f574e45525f524f59414c54595f5345434f4e445f53414c450000000000000060208201529051636d12dce160e01b81526001600160a01b03909216916000918391636d12dce19161096591600401611568565b602060405180830381865afa158015610982573d6000803e3d6000fd5b505050506040513d601f19601f820116820180604052508101906109a69190611647565b905080156109b2578092505b50505b6127106109c28683611660565b6109cc9190611625565b600085815260ce602090815260408083206001600160a01b038088168552908352818420908b16845290915281208054909190610a0a90849061160d565b909155506127109050610a1d8683611660565b610a279190611625565b610a31908661167f565b6001600160a01b038716600090815260cd60205260409081902091909155517fa4129fd95580e545ed07f622529ac22edd9a11eaeb90abf9308a731b50c9825d90610a839033908a908a908a90611696565b60405180910390a150610acf565b7f8c268442b8e55103630f5aa7be2b83e52ed78db66b967cb25042f5feb1fede2b33878787604051610ac69493929190611696565b60405180910390a15b505050610b15565b7f8c268442b8e55103630f5aa7be2b83e52ed78db66b967cb25042f5feb1fede2b33848484604051610b0c9493929190611696565b60405180910390a15b610b1f6001606555565b505050565b610b2c611229565b610b366000611283565b565b60c9546001600160a01b031633148015610b5a57506001600160a01b03811615155b6040518060400160405280600381526020016231303160e81b81525090610b945760405162461bcd60e51b81526004016105369190611568565b5060c9546001600160a01b03828116911614610bc65760c980546001600160a01b0319166001600160a01b0383161790555b50565b600082815260ce602090815260408083206001600160a01b0380881685529083528184209085168452909152902054610c0157600080fd5b60006001600160a01b038216610c9657600083815260ce602090815260408083206001600160a01b0388811685529083528184209086168452909152808220549051339281818185875af1925050503d8060008114610c7c576040519150601f19603f3d011682016040523d82523d6000602084013e610c81565b606091505b50508091505080610c9157600080fd5b610d3a565b600083815260ce602090815260408083206001600160a01b03888116855290835281842090861680855292529182902054915163a9059cbb60e01b81523360048201526024810192909252839163a9059cbb906044016020604051808303816000875af1158015610d0b573d6000803e3d6000fd5b505050506040513d601f19601f82011682018060405250810190610d2f91906115da565b610d3857600080fd5b505b600083815260ce602090815260408083206001600160a01b038089168086529184528285209087168086529084528285205488865260d085528386209286529184528285209085529092528220805491929091610d9890849061160d565b90915550506040516001600160a01b038084169185918716907f15f9550fcf6fed6c5c473ac599dc5bcab1c1235b755d91aa4faa02165766cc8090600090a450505050565b60c9546001600160a01b031633148015610dff57506001600160a01b03811615155b6040518060400160405280600381526020016231303160e81b81525090610e395760405162461bcd60e51b81526004016105369190611568565b5060cb546001600160a01b03828116911614610bc65760cb80546001600160a01b0383166001600160a01b031990911617905550565b610e77611229565b6001600160a01b038116610edc5760405162461bcd60e51b815260206004820152602660248201527f4f776e61626c653a206e6577206f776e657220697320746865207a65726f206160448201526564647265737360d01b6064820152608401610536565b610bc681611283565b600054610100900460ff1615808015610f055750600054600160ff909116105b80610f1f5750303b158015610f1f575060005460ff166001145b610f825760405162461bcd60e51b815260206004820152602e60248201527f496e697469616c697a61626c653a20636f6e747261637420697320616c72656160448201526d191e481a5b9a5d1a585b1a5e995960921b6064820152608401610536565b6000805460ff191660011790558015610fa5576000805461ff0019166101001790555b60408051808201909152600381526203130360ec1b60208201526001600160a01b038616610fe65760405162461bcd60e51b81526004016105369190611568565b5060408051808201909152600381526203130360ec1b60208201526001600160a01b0385166110285760405162461bcd60e51b81526004016105369190611568565b5060408051808201909152600381526203130360ec1b60208201526001600160a01b03841661106a5760405162461bcd60e51b81526004016105369190611568565b5060c980546001600160a01b038088166001600160a01b03199283161790925560ca805487841690831617905560cb805486841692169190911790558216156110d1576001600160a01b038216600090815260cc60205260409020805460ff191660011790555b6110d96112d5565b6110e1611304565b6110e9611333565b801561112f576000805461ff0019169055604051600181527f7f26b83ff96e1f2b6a682f133852f6798a09c465da95921460cefb38474024989060200160405180910390a15b5050505050565b60c9546001600160a01b03163314801561115857506001600160a01b03811615155b6040518060400160405280600381526020016231303160e81b815250906111925760405162461bcd60e51b81526004016105369190611568565b5060ca546001600160a01b03828116911614610bc65760ca80546001600160a01b0383166001600160a01b031990911617905550565b6002606554141561121b5760405162461bcd60e51b815260206004820152601f60248201527f5265656e7472616e637947756172643a207265656e7472616e742063616c6c006044820152606401610536565b6002606555565b6001606555565b6033546001600160a01b03163314610b365760405162461bcd60e51b815260206004820181905260248201527f4f776e61626c653a2063616c6c6572206973206e6f7420746865206f776e65726044820152606401610536565b603380546001600160a01b038381166001600160a01b0319831681179093556040519116919082907f8be0079c531659141344cd1fd0a4f28419497f9722a3daafe3b4186f6b6457e090600090a35050565b600054610100900460ff166112fc5760405162461bcd60e51b8152600401610536906116c0565b610b3661135a565b600054610100900460ff1661132b5760405162461bcd60e51b8152600401610536906116c0565b610b3661138a565b600054610100900460ff16610b365760405162461bcd60e51b8152600401610536906116c0565b600054610100900460ff166113815760405162461bcd60e51b8152600401610536906116c0565b610b3633611283565b600054610100900460ff166112225760405162461bcd60e51b8152600401610536906116c0565b6000602082840312156113c357600080fd5b81356001600160e01b0319811681146113db57600080fd5b9392505050565b6001600160a01b0381168114610bc657600080fd5b8015158114610bc657600080fd5b6000806040838503121561141857600080fd5b8235611423816113e2565b91506020830135611433816113f7565b809150509250929050565b60008060006060848603121561145357600080fd5b833592506020840135611465816113e2565b91506040840135611475816113e2565b809150509250925092565b60006020828403121561149257600080fd5b81356113db816113e2565b6000806000606084860312156114b257600080fd5b8335925060208401356114c4816113e2565b929592945050506040919091013590565b6000806000606084860312156114ea57600080fd5b83356114f5816113e2565b9250602084013591506040840135611475816113e2565b6000806000806080858703121561152257600080fd5b843561152d816113e2565b9350602085013561153d816113e2565b9250604085013561154d816113e2565b9150606085013561155d816113e2565b939692955090935050565b600060208083528351808285015260005b8181101561159557858101830151858201604001528201611579565b818111156115a7576000604083870101525b50601f01601f1916929092016040019392505050565b6000602082840312156115cf57600080fd5b81516113db816113e2565b6000602082840312156115ec57600080fd5b81516113db816113f7565b634e487b7160e01b600052601160045260246000fd5b60008219821115611620576116206115f7565b500190565b60008261164257634e487b7160e01b600052601260045260246000fd5b500490565b60006020828403121561165957600080fd5b5051919050565b600081600019048311821515161561167a5761167a6115f7565b500290565b600082821015611691576116916115f7565b500390565b6001600160a01b039485168152602081019390935292166040820152606081019190915260800190565b6020808252602b908201527f496e697469616c697a61626c653a20636f6e7472616374206973206e6f74206960408201526a6e697469616c697a696e6760a81b60608201526080019056fea2646970667358221220fb8be0de32a65ceb9011e2119ecf4c0824464190f2030e164f7d2d7e85a6209864736f6c634300080c0033",
  "linkReferences": {},
  "deployedLinkReferences": {}
}