{
  "_format": "hh-sol-artifact-1",
  "contractName": "RoyaltyFinanceSecondSale",
  "sourceName": "contracts/services/RoyaltyFinanceSecondSale.sol",
  "abi": [
    {
      "anonymous": false,
      "inputs": [
        {
          "indexed": false,
          "internalType": "uint8",
          "name": "version",
          "type": "uint8"
        }
      ],
      "name": "Initialized",
      "type": "event"
    },
    {
      "anonymous": false,
      "inputs": [
        {
          "indexed": true,
          "internalType": "address",
          "name": "previousOwner",
          "type": "address"
        },
        {
          "indexed": true,
          "internalType": "address",
          "name": "newOwner",
          "type": "address"
        }
      ],
      "name": "OwnershipTransferred",
      "type": "event"
    },
    {
      "inputs": [],
      "name": "_admin",
      "outputs": [
        {
          "internalType": "address",
          "name": "",
          "type": "address"
        }
      ],
      "stateMutability": "view",
      "type": "function"
    },
    {
      "inputs": [],
      "name": "_generativeProjectAddr",
      "outputs": [
        {
          "internalType": "address",
          "name": "",
          "type": "address"
        }
      ],
      "stateMutability": "view",
      "type": "function"
    },
    {
      "inputs": [],
      "name": "_paramsAddress",
      "outputs": [
        {
          "internalType": "address",
          "name": "",
          "type": "address"
        }
      ],
      "stateMutability": "view",
      "type": "function"
    },
    {
      "inputs": [],
      "name": "_proxyRoyaltySecondSale",
      "outputs": [
        {
          "internalType": "address",
          "name": "",
          "type": "address"
        }
      ],
      "stateMutability": "view",
      "type": "function"
    },
    {
      "inputs": [
        {
          "internalType": "uint256",
          "name": "",
          "type": "uint256"
        },
        {
          "internalType": "address",
          "name": "",
          "type": "address"
        },
        {
          "internalType": "address",
          "name": "",
          "type": "address"
        }
      ],
      "name": "_royaltySecondSale",
      "outputs": [
        {
          "internalType": "uint256",
          "name": "",
          "type": "uint256"
        }
      ],
      "stateMutability": "view",
      "type": "function"
    },
    {
      "inputs": [
        {
          "internalType": "address",
          "name": "",
          "type": "address"
        }
      ],
      "name": "_royaltySecondSaleAdmin",
      "outputs": [
        {
          "internalType": "uint256",
          "name": "",
          "type": "uint256"
        }
      ],
      "stateMutability": "view",
      "type": "function"
    },
    {
      "inputs": [
        {
          "internalType": "address",
          "name": "newAdm",
          "type": "address"
        }
      ],
      "name": "changeAdmin",
      "outputs": [],
      "stateMutability": "nonpayable",
      "type": "function"
    },
    {
      "inputs": [
        {
          "internalType": "address",
          "name": "newAddr",
          "type": "address"
        }
      ],
      "name": "changeParamAddr",
      "outputs": [],
      "stateMutability": "nonpayable",
      "type": "function"
    },
    {
      "inputs": [
        {
          "internalType": "address",
          "name": "newAddr",
          "type": "address"
        }
      ],
      "name": "changeProjectAddress",
      "outputs": [],
      "stateMutability": "nonpayable",
      "type": "function"
    },
    {
      "inputs": [
        {
          "internalType": "address",
          "name": "newAddr",
          "type": "address"
        }
      ],
      "name": "changeProxyRoyaltySecondSale",
      "outputs": [],
      "stateMutability": "nonpayable",
      "type": "function"
    },
    {
      "inputs": [
        {
          "internalType": "address",
          "name": "admin",
          "type": "address"
        },
        {
          "internalType": "address",
          "name": "paramAddr",
          "type": "address"
        },
        {
          "internalType": "address",
          "name": "projectAddr",
          "type": "address"
        },
        {
          "internalType": "address",
          "name": "proxy",
          "type": "address"
        }
      ],
      "name": "initialize",
      "outputs": [],
      "stateMutability": "nonpayable",
      "type": "function"
    },
    {
      "inputs": [],
      "name": "owner",
      "outputs": [
        {
          "internalType": "address",
          "name": "",
          "type": "address"
        }
      ],
      "stateMutability": "view",
      "type": "function"
    },
    {
      "inputs": [],
      "name": "renounceOwnership",
      "outputs": [],
      "stateMutability": "nonpayable",
      "type": "function"
    },
    {
      "inputs": [
        {
          "internalType": "uint256",
          "name": "tokenId",
          "type": "uint256"
        },
        {
          "internalType": "address",
          "name": "erc20Addr",
          "type": "address"
        },
        {
          "internalType": "uint256",
          "name": "amount",
          "type": "uint256"
        }
      ],
      "name": "setRoyaltySecondSale",
      "outputs": [],
      "stateMutability": "payable",
      "type": "function"
    },
    {
      "inputs": [
        {
          "internalType": "address",
          "name": "newOwner",
          "type": "address"
        }
      ],
      "name": "transferOwnership",
      "outputs": [],
      "stateMutability": "nonpayable",
      "type": "function"
    },
    {
      "inputs": [
        {
          "internalType": "address",
          "name": "erc20Addr",
          "type": "address"
        }
      ],
      "name": "withdraw",
      "outputs": [],
      "stateMutability": "nonpayable",
      "type": "function"
    },
    {
      "inputs": [
        {
          "internalType": "uint256",
          "name": "projectId",
          "type": "uint256"
        },
        {
          "internalType": "address",
          "name": "erc20Addr",
          "type": "address"
        }
      ],
      "name": "withdrawRoyalty",
      "outputs": [],
      "stateMutability": "nonpayable",
      "type": "function"
    }
  ],
  "bytecode": "0x608060405234801561001057600080fd5b5061113a806100206000396000f3fe6080604052600436106100fe5760003560e01c8063715018a611610095578063adfc7dae11610064578063adfc7dae146102c1578063e8082858146102e1578063f2fde38b14610301578063f8c8765e14610321578063febfd6c31461034157600080fd5b8063715018a61461024e5780638da5cb5b146102635780638edd8310146102815780638f283970146102a157600080fd5b806329590aa4116100d157806329590aa4146101d957806351cff8d9146101fb578063567fdcf31461021b578063676eda171461023b57600080fd5b806301bc45c9146101035780630238156b146101405780630bd06f51146101605780631737a8f91461019b575b600080fd5b34801561010f57600080fd5b50609754610123906001600160a01b031681565b6040516001600160a01b0390911681526020015b60405180910390f35b34801561014c57600080fd5b50609a54610123906001600160a01b031681565b34801561016c57600080fd5b5061018d61017b366004610e5c565b609b6020526000908152604090205481565b604051908152602001610137565b3480156101a757600080fd5b5061018d6101b6366004610e80565b609c60209081526000938452604080852082529284528284209052825290205481565b3480156101e557600080fd5b506101f96101f4366004610ec2565b610361565b005b34801561020757600080fd5b506101f9610216366004610e5c565b6104d0565b34801561022757600080fd5b50609954610123906001600160a01b031681565b6101f9610249366004610ef2565b61062b565b34801561025a57600080fd5b506101f96108b0565b34801561026f57600080fd5b506033546001600160a01b0316610123565b34801561028d57600080fd5b506101f961029c366004610e5c565b6108c4565b3480156102ad57600080fd5b506101f96102bc366004610e5c565b610955565b3480156102cd57600080fd5b50609854610123906001600160a01b031681565b3480156102ed57600080fd5b506101f96102fc366004610e5c565b6109e7565b34801561030d57600080fd5b506101f961031c366004610e5c565b610a79565b34801561032d57600080fd5b506101f961033c366004610f2a565b610aef565b34801561034d57600080fd5b506101f961035c366004610e5c565b610c4e565b6000828152609c6020908152604080832033845282528083206001600160a01b038516845290915290205461039557600080fd5b60006001600160a01b03821661042b576000838152609c60209081526040808320338085529083528184206001600160a01b0387168552909252808320549051919290919081818185875af1925050503d8060008114610411576040519150601f19603f3d011682016040523d82523d6000602084013e610416565b606091505b5050809150508061042657600080fd5b505050565b6000838152609c60209081526040808320338085529083528184206001600160a01b03871680865293529281902054905163a9059cbb60e01b815260048101939093526024830152839163a9059cbb906044016020604051808303816000875af115801561049d573d6000803e3d6000fd5b505050506040513d601f19601f820116820180604052508101906104c19190610f86565b6104ca57600080fd5b50505050565b60975460408051808201909152600381526231303160e81b6020820152906001600160a01b0316331461051f5760405162461bcd60e51b81526004016105169190610fa8565b60405180910390fd5b5060006001600160a01b03821661059e576001600160a01b0382166000908152609b6020526040808220549051339281818185875af1925050503d8060008114610585576040519150601f19603f3d011682016040523d82523d6000602084013e61058a565b606091505b5050809150508061059a57600080fd5b5050565b6001600160a01b0382166000818152609b60205260409081902054905163a9059cbb60e01b8152336004820152602481019190915283919063a9059cbb906044016020604051808303816000875af11580156105fe573d6000803e3d6000fd5b505050506040513d601f19601f820116820180604052508101906106229190610f86565b61042657600080fd5b610633610ce0565b6001600160a01b03821661064d5780341461064d57600080fd5b6097546001600160a01b03163314806106705750609a546001600160a01b031633145b6040518060400160405280600381526020016231303160e81b815250906106aa5760405162461bcd60e51b81526004016105169190610fa8565b5060006106ba620f424085611013565b6099546040516331a9108f60e11b8152600481018390529192506001600160a01b0316906000908290636352211e90602401602060405180830381865afa158015610709573d6000803e3d6000fd5b505050506040513d601f19601f8201168201806040525081019061072d9190611035565b90506001600160a01b03811661074257600080fd5b60985462015f90906001600160a01b03161561080d57609854604080518082018252601981527f4f574e45525f524f59414c54595f5345434f4e445f53414c450000000000000060208201529051636d12dce160e01b81526001600160a01b03909216916000918391636d12dce1916107bd91600401610fa8565b602060405180830381865afa1580156107da573d6000803e3d6000fd5b505050506040513d601f19601f820116820180604052508101906107fe9190611052565b9050801561080a578092505b50505b61271061081a868361106b565b6108249190611013565b6000858152609c602090815260408083206001600160a01b038088168552908352818420908b1684529091528120805490919061086290849061108a565b909155506127109050610875868361106b565b61087f9190611013565b61088990866110a2565b6001600160a01b0387166000908152609b6020526040902055506104269250610d3a915050565b6108b8610d41565b6108c26000610d9b565b565b6097546001600160a01b0316331480156108e657506001600160a01b03811615155b6040518060400160405280600381526020016231303160e81b815250906109205760405162461bcd60e51b81526004016105169190610fa8565b50609a546001600160a01b0382811691161461095257609a80546001600160a01b0319166001600160a01b0383161790555b50565b6097546001600160a01b03163314801561097757506001600160a01b03811615155b6040518060400160405280600381526020016231303160e81b815250906109b15760405162461bcd60e51b81526004016105169190610fa8565b506097546001600160a01b0382811691161461095257609780546001600160a01b0383166001600160a01b031990911617905550565b6097546001600160a01b031633148015610a0957506001600160a01b03811615155b6040518060400160405280600381526020016231303160e81b81525090610a435760405162461bcd60e51b81526004016105169190610fa8565b506099546001600160a01b0382811691161461095257609980546001600160a01b0383166001600160a01b031990911617905550565b610a81610d41565b6001600160a01b038116610ae65760405162461bcd60e51b815260206004820152602660248201527f4f776e61626c653a206e6577206f776e657220697320746865207a65726f206160448201526564647265737360d01b6064820152608401610516565b61095281610d9b565b600054610100900460ff1615808015610b0f5750600054600160ff909116105b80610b295750303b158015610b29575060005460ff166001145b610b8c5760405162461bcd60e51b815260206004820152602e60248201527f496e697469616c697a61626c653a20636f6e747261637420697320616c72656160448201526d191e481a5b9a5d1a585b1a5e995960921b6064820152608401610516565b6000805460ff191660011790558015610baf576000805461ff0019166101001790555b609780546001600160a01b038088166001600160a01b0319928316179092556098805487841690831617905560998054868416908316179055609a805492851692909116919091179055610c01610ded565b8015610c47576000805461ff0019169055604051600181527f7f26b83ff96e1f2b6a682f133852f6798a09c465da95921460cefb38474024989060200160405180910390a15b5050505050565b6097546001600160a01b031633148015610c7057506001600160a01b03811615155b6040518060400160405280600381526020016231303160e81b81525090610caa5760405162461bcd60e51b81526004016105169190610fa8565b506098546001600160a01b0382811691161461095257609880546001600160a01b0383166001600160a01b031990911617905550565b60026065541415610d335760405162461bcd60e51b815260206004820152601f60248201527f5265656e7472616e637947756172643a207265656e7472616e742063616c6c006044820152606401610516565b6002606555565b6001606555565b6033546001600160a01b031633146108c25760405162461bcd60e51b815260206004820181905260248201527f4f776e61626c653a2063616c6c6572206973206e6f7420746865206f776e65726044820152606401610516565b603380546001600160a01b038381166001600160a01b0319831681179093556040519116919082907f8be0079c531659141344cd1fd0a4f28419497f9722a3daafe3b4186f6b6457e090600090a35050565b600054610100900460ff16610e145760405162461bcd60e51b8152600401610516906110b9565b6108c2600054610100900460ff16610e3e5760405162461bcd60e51b8152600401610516906110b9565b6108c233610d9b565b6001600160a01b038116811461095257600080fd5b600060208284031215610e6e57600080fd5b8135610e7981610e47565b9392505050565b600080600060608486031215610e9557600080fd5b833592506020840135610ea781610e47565b91506040840135610eb781610e47565b809150509250925092565b60008060408385031215610ed557600080fd5b823591506020830135610ee781610e47565b809150509250929050565b600080600060608486031215610f0757600080fd5b833592506020840135610f1981610e47565b929592945050506040919091013590565b60008060008060808587031215610f4057600080fd5b8435610f4b81610e47565b93506020850135610f5b81610e47565b92506040850135610f6b81610e47565b91506060850135610f7b81610e47565b939692955090935050565b600060208284031215610f9857600080fd5b81518015158114610e7957600080fd5b600060208083528351808285015260005b81811015610fd557858101830151858201604001528201610fb9565b81811115610fe7576000604083870101525b50601f01601f1916929092016040019392505050565b634e487b7160e01b600052601160045260246000fd5b60008261103057634e487b7160e01b600052601260045260246000fd5b500490565b60006020828403121561104757600080fd5b8151610e7981610e47565b60006020828403121561106457600080fd5b5051919050565b600081600019048311821515161561108557611085610ffd565b500290565b6000821982111561109d5761109d610ffd565b500190565b6000828210156110b4576110b4610ffd565b500390565b6020808252602b908201527f496e697469616c697a61626c653a20636f6e7472616374206973206e6f74206960408201526a6e697469616c697a696e6760a81b60608201526080019056fea26469706673582212205dbfb65ae4b1bf58aef5e9043f12109e80c08ac6d3afd1de4a67e28b283661e364736f6c634300080c0033",
  "linkReferences": {},
  "deployedLinkReferences": {}
}