{
  "_format": "hh-sol-artifact-1",
  "contractName": "RoyaltyFinanceSecondSale",
  "sourceName": "contracts/services/RoyaltyFinanceSecondSale.sol",
  "abi": [
    {
      "anonymous": false,
      "inputs": [
        {
          "indexed": false,
          "internalType": "uint8",
          "name": "version",
          "type": "uint8"
        }
      ],
      "name": "Initialized",
      "type": "event"
    },
    {
      "anonymous": false,
      "inputs": [
        {
          "indexed": true,
          "internalType": "address",
          "name": "previousOwner",
          "type": "address"
        },
        {
          "indexed": true,
          "internalType": "address",
          "name": "newOwner",
          "type": "address"
        }
      ],
      "name": "OwnershipTransferred",
      "type": "event"
    },
    {
      "inputs": [],
      "name": "_admin",
      "outputs": [
        {
          "internalType": "address",
          "name": "",
          "type": "address"
        }
      ],
      "stateMutability": "view",
      "type": "function"
    },
    {
      "inputs": [],
      "name": "_generativeProjectAddr",
      "outputs": [
        {
          "internalType": "address",
          "name": "",
          "type": "address"
        }
      ],
      "stateMutability": "view",
      "type": "function"
    },
    {
      "inputs": [],
      "name": "_paramsAddress",
      "outputs": [
        {
          "internalType": "address",
          "name": "",
          "type": "address"
        }
      ],
      "stateMutability": "view",
      "type": "function"
    },
    {
      "inputs": [
        {
          "internalType": "address",
          "name": "",
          "type": "address"
        }
      ],
      "name": "_proxyRoyaltySecondSales",
      "outputs": [
        {
          "internalType": "bool",
          "name": "",
          "type": "bool"
        }
      ],
      "stateMutability": "view",
      "type": "function"
    },
    {
      "inputs": [
        {
          "internalType": "uint256",
          "name": "",
          "type": "uint256"
        },
        {
          "internalType": "address",
          "name": "",
          "type": "address"
        },
        {
          "internalType": "address",
          "name": "",
          "type": "address"
        }
      ],
      "name": "_royaltySecondSale",
      "outputs": [
        {
          "internalType": "uint256",
          "name": "",
          "type": "uint256"
        }
      ],
      "stateMutability": "view",
      "type": "function"
    },
    {
      "inputs": [
        {
          "internalType": "address",
          "name": "",
          "type": "address"
        }
      ],
      "name": "_royaltySecondSaleAdmin",
      "outputs": [
        {
          "internalType": "uint256",
          "name": "",
          "type": "uint256"
        }
      ],
      "stateMutability": "view",
      "type": "function"
    },
    {
      "inputs": [
        {
          "internalType": "address",
          "name": "",
          "type": "address"
        }
      ],
      "name": "_royaltySecondSaleAdminWithdrawn",
      "outputs": [
        {
          "internalType": "uint256",
          "name": "",
          "type": "uint256"
        }
      ],
      "stateMutability": "view",
      "type": "function"
    },
    {
      "inputs": [
        {
          "internalType": "uint256",
          "name": "",
          "type": "uint256"
        },
        {
          "internalType": "address",
          "name": "",
          "type": "address"
        },
        {
          "internalType": "address",
          "name": "",
          "type": "address"
        }
      ],
      "name": "_royaltySecondSaleWithdrawn",
      "outputs": [
        {
          "internalType": "uint256",
          "name": "",
          "type": "uint256"
        }
      ],
      "stateMutability": "view",
      "type": "function"
    },
    {
      "inputs": [
        {
          "internalType": "address",
          "name": "newAdm",
          "type": "address"
        }
      ],
      "name": "changeAdmin",
      "outputs": [],
      "stateMutability": "nonpayable",
      "type": "function"
    },
    {
      "inputs": [
        {
          "internalType": "address",
          "name": "newAddr",
          "type": "address"
        }
      ],
      "name": "changeParamAddr",
      "outputs": [],
      "stateMutability": "nonpayable",
      "type": "function"
    },
    {
      "inputs": [
        {
          "internalType": "address",
          "name": "newAddr",
          "type": "address"
        }
      ],
      "name": "changeProjectAddress",
      "outputs": [],
      "stateMutability": "nonpayable",
      "type": "function"
    },
    {
      "inputs": [
        {
          "internalType": "address",
          "name": "admin",
          "type": "address"
        },
        {
          "internalType": "address",
          "name": "paramAddr",
          "type": "address"
        },
        {
          "internalType": "address",
          "name": "projectAddr",
          "type": "address"
        },
        {
          "internalType": "address",
          "name": "proxy",
          "type": "address"
        }
      ],
      "name": "initialize",
      "outputs": [],
      "stateMutability": "nonpayable",
      "type": "function"
    },
    {
      "inputs": [],
      "name": "owner",
      "outputs": [
        {
          "internalType": "address",
          "name": "",
          "type": "address"
        }
      ],
      "stateMutability": "view",
      "type": "function"
    },
    {
      "inputs": [],
      "name": "renounceOwnership",
      "outputs": [],
      "stateMutability": "nonpayable",
      "type": "function"
    },
    {
      "inputs": [
        {
          "internalType": "address",
          "name": "addr",
          "type": "address"
        },
        {
          "internalType": "bool",
          "name": "approve",
          "type": "bool"
        }
      ],
      "name": "setProxyRoyaltySecondSale",
      "outputs": [],
      "stateMutability": "nonpayable",
      "type": "function"
    },
    {
      "inputs": [
        {
          "internalType": "uint256",
          "name": "tokenId",
          "type": "uint256"
        },
        {
          "internalType": "address",
          "name": "erc20Addr",
          "type": "address"
        },
        {
          "internalType": "uint256",
          "name": "amount",
          "type": "uint256"
        }
      ],
      "name": "setRoyaltySecondSale",
      "outputs": [],
      "stateMutability": "nonpayable",
      "type": "function"
    },
    {
      "inputs": [
        {
          "internalType": "bytes4",
          "name": "interfaceId",
          "type": "bytes4"
        }
      ],
      "name": "supportsInterface",
      "outputs": [
        {
          "internalType": "bool",
          "name": "",
          "type": "bool"
        }
      ],
      "stateMutability": "view",
      "type": "function"
    },
    {
      "inputs": [
        {
          "internalType": "address",
          "name": "newOwner",
          "type": "address"
        }
      ],
      "name": "transferOwnership",
      "outputs": [],
      "stateMutability": "nonpayable",
      "type": "function"
    },
    {
      "inputs": [
        {
          "internalType": "address",
          "name": "erc20Addr",
          "type": "address"
        }
      ],
      "name": "withdraw",
      "outputs": [],
      "stateMutability": "nonpayable",
      "type": "function"
    },
    {
      "inputs": [
        {
          "internalType": "address",
          "name": "account",
          "type": "address"
        },
        {
          "internalType": "uint256",
          "name": "projectId",
          "type": "uint256"
        },
        {
          "internalType": "address",
          "name": "erc20Addr",
          "type": "address"
        }
      ],
      "name": "withdrawRoyalty",
      "outputs": [],
      "stateMutability": "nonpayable",
      "type": "function"
    },
    {
      "stateMutability": "payable",
      "type": "receive"
    }
  ],
  "bytecode": "0x608060405234801561001057600080fd5b5061167e806100206000396000f3fe6080604052600436106101235760003560e01c8063715018a6116100a0578063adfc7dae11610064578063adfc7dae14610403578063e808285814610423578063f2fde38b14610443578063f8c8765e14610463578063febfd6c31461048357600080fd5b8063715018a6146103605780638da5cb5b146103755780638f28397014610393578063a0e0e68e146103b3578063ac638ef9146103d357600080fd5b80631737a8f9116100e75780631737a8f9146102955780634e55e4fc146102d357806351cff8d914610300578063567fdcf314610320578063676eda171461034057600080fd5b806301bc45c91461018d57806301ffc9a7146101ca57806304b40f18146101fa5780630b9c79181461021c5780630bd06f511461026857600080fd5b366101885760c9546001600160a01b0316331480610150575033600090815260cc602052604090205460ff165b61015957600080fd5b604051349033907f6ef95f06320e7a25a04a175ca677b7052bdd97131872c2192525a629f51be77090600090a3005b600080fd5b34801561019957600080fd5b5060c9546101ad906001600160a01b031681565b6040516001600160a01b0390911681526020015b60405180910390f35b3480156101d657600080fd5b506101ea6101e53660046112ee565b6104a3565b60405190151581526020016101c1565b34801561020657600080fd5b5061021a610215366004611342565b6104da565b005b34801561022857600080fd5b5061025a61023736600461137b565b60d060209081526000938452604080852082529284528284209052825290205481565b6040519081526020016101c1565b34801561027457600080fd5b5061025a6102833660046113bd565b60cd6020526000908152604090205481565b3480156102a157600080fd5b5061025a6102b036600461137b565b60ce60209081526000938452604080852082529284528284209052825290205481565b3480156102df57600080fd5b5061025a6102ee3660046113bd565b60cf6020526000908152604090205481565b34801561030c57600080fd5b5061021a61031b3660046113bd565b610594565b34801561032c57600080fd5b5060cb546101ad906001600160a01b031681565b34801561034c57600080fd5b5061021a61035b3660046113da565b610760565b34801561036c57600080fd5b5061021a610a61565b34801561038157600080fd5b506033546001600160a01b03166101ad565b34801561039f57600080fd5b5061021a6103ae3660046113bd565b610a75565b3480156103bf57600080fd5b5061021a6103ce366004611412565b610b06565b3480156103df57600080fd5b506101ea6103ee3660046113bd565b60cc6020526000908152604090205460ff1681565b34801561040f57600080fd5b5060ca546101ad906001600160a01b031681565b34801561042f57600080fd5b5061021a61043e3660046113bd565b610d1a565b34801561044f57600080fd5b5061021a61045e3660046113bd565b610dac565b34801561046f57600080fd5b5061021a61047e366004611449565b610e22565b34801561048f57600080fd5b5061021a61049e3660046113bd565b611073565b60006001600160e01b0319821663676eda1760e01b14806104d457506301ffc9a760e01b6001600160e01b03198316145b92915050565b60c9546001600160a01b0316331480156104fc57506001600160a01b03821615155b6040518060400160405280600381526020016231303160e81b8152509061053f5760405162461bcd60e51b815260040161053691906114a5565b60405180910390fd5b506001600160a01b038216600081815260cc6020526040808220805460ff191685151590811790915590519092917ffba76eeea51774acad432e81c91089e1d42ef2b7055025300a68bc95319bf19291a35050565b60c95460408051808201909152600381526231303160e81b6020820152906001600160a01b031633146105da5760405162461bcd60e51b815260040161053691906114a5565b5060006001600160a01b03821661065a576001600160a01b038216600090815260cd6020526040808220549051339281818185875af1925050503d8060008114610640576040519150601f19603f3d011682016040523d82523d6000602084013e610645565b606091505b5050809150508061065557600080fd5b6106e9565b6001600160a01b038216600081815260cd60205260409081902054905163a9059cbb60e01b8152336004820152602481019190915283919063a9059cbb906044016020604051808303816000875af11580156106ba573d6000803e3d6000fd5b505050506040513d601f19601f820116820180604052508101906106de91906114fa565b6106e757600080fd5b505b6001600160a01b038216600090815260cd602090815260408083205460cf909252822080549192909161071d90849061152d565b909155505060c9546040516001600160a01b038085169216907f34d58c18c6c1df2c698ccac556acea92941ca7b99d2fccf9e3ac1852d0dec36f90600090a35050565b610768611105565b60c9546001600160a01b0316331480610790575033600090815260cc602052604090205460ff165b15610a145760006107a4620f424085611545565b60cb546040516331a9108f60e11b8152600481018390529192506001600160a01b0316906000908290636352211e90602401602060405180830381865afa1580156107f3573d6000803e3d6000fd5b505050506040513d601f19601f820116820180604052508101906108179190611567565b90506001600160a01b038116156109ce5760ca54612328906001600160a01b0316156108f25760ca54604080518082018252601981527f4f574e45525f524f59414c54595f5345434f4e445f53414c450000000000000060208201529051636d12dce160e01b81526001600160a01b03909216916000918391636d12dce1916108a2916004016114a5565b602060405180830381865afa1580156108bf573d6000803e3d6000fd5b505050506040513d601f19601f820116820180604052508101906108e39190611584565b905080156108ef578092505b50505b6127106108ff868361159d565b6109099190611545565b600085815260ce602090815260408083206001600160a01b038088168552908352818420908b1684529091528120805490919061094790849061152d565b90915550612710905061095a868361159d565b6109649190611545565b61096e90866115bc565b6001600160a01b038716600090815260cd60205260409081902091909155517fa4129fd95580e545ed07f622529ac22edd9a11eaeb90abf9308a731b50c9825d906109c09033908a908a908a906115d3565b60405180910390a150610a0c565b7f8c268442b8e55103630f5aa7be2b83e52ed78db66b967cb25042f5feb1fede2b33878787604051610a0394939291906115d3565b60405180910390a15b505050610a52565b7f8c268442b8e55103630f5aa7be2b83e52ed78db66b967cb25042f5feb1fede2b33848484604051610a4994939291906115d3565b60405180910390a15b610a5c6001606555565b505050565b610a69611166565b610a7360006111c0565b565b60c9546001600160a01b031633148015610a9757506001600160a01b03811615155b6040518060400160405280600381526020016231303160e81b81525090610ad15760405162461bcd60e51b815260040161053691906114a5565b5060c9546001600160a01b03828116911614610b035760c980546001600160a01b0319166001600160a01b0383161790555b50565b600082815260ce602090815260408083206001600160a01b0380881685529083528184209085168452909152902054610b3e57600080fd5b60006001600160a01b038216610bd357600083815260ce602090815260408083206001600160a01b0388811685529083528184209086168452909152808220549051339281818185875af1925050503d8060008114610bb9576040519150601f19603f3d011682016040523d82523d6000602084013e610bbe565b606091505b50508091505080610bce57600080fd5b610c77565b600083815260ce602090815260408083206001600160a01b03888116855290835281842090861680855292529182902054915163a9059cbb60e01b81523360048201526024810192909252839163a9059cbb906044016020604051808303816000875af1158015610c48573d6000803e3d6000fd5b505050506040513d601f19601f82011682018060405250810190610c6c91906114fa565b610c7557600080fd5b505b600083815260ce602090815260408083206001600160a01b038089168086529184528285209087168086529084528285205488865260d085528386209286529184528285209085529092528220805491929091610cd590849061152d565b90915550506040516001600160a01b038084169185918716907f15f9550fcf6fed6c5c473ac599dc5bcab1c1235b755d91aa4faa02165766cc8090600090a450505050565b60c9546001600160a01b031633148015610d3c57506001600160a01b03811615155b6040518060400160405280600381526020016231303160e81b81525090610d765760405162461bcd60e51b815260040161053691906114a5565b5060cb546001600160a01b03828116911614610b035760cb80546001600160a01b0383166001600160a01b031990911617905550565b610db4611166565b6001600160a01b038116610e195760405162461bcd60e51b815260206004820152602660248201527f4f776e61626c653a206e6577206f776e657220697320746865207a65726f206160448201526564647265737360d01b6064820152608401610536565b610b03816111c0565b600054610100900460ff1615808015610e425750600054600160ff909116105b80610e5c5750303b158015610e5c575060005460ff166001145b610ebf5760405162461bcd60e51b815260206004820152602e60248201527f496e697469616c697a61626c653a20636f6e747261637420697320616c72656160448201526d191e481a5b9a5d1a585b1a5e995960921b6064820152608401610536565b6000805460ff191660011790558015610ee2576000805461ff0019166101001790555b60408051808201909152600381526203130360ec1b60208201526001600160a01b038616610f235760405162461bcd60e51b815260040161053691906114a5565b5060408051808201909152600381526203130360ec1b60208201526001600160a01b038516610f655760405162461bcd60e51b815260040161053691906114a5565b5060408051808201909152600381526203130360ec1b60208201526001600160a01b038416610fa75760405162461bcd60e51b815260040161053691906114a5565b5060c980546001600160a01b038088166001600160a01b03199283161790925560ca805487841690831617905560cb8054868416921691909117905582161561100e576001600160a01b038216600090815260cc60205260409020805460ff191660011790555b611016611212565b61101e611241565b611026611270565b801561106c576000805461ff0019169055604051600181527f7f26b83ff96e1f2b6a682f133852f6798a09c465da95921460cefb38474024989060200160405180910390a15b5050505050565b60c9546001600160a01b03163314801561109557506001600160a01b03811615155b6040518060400160405280600381526020016231303160e81b815250906110cf5760405162461bcd60e51b815260040161053691906114a5565b5060ca546001600160a01b03828116911614610b035760ca80546001600160a01b0383166001600160a01b031990911617905550565b600260655414156111585760405162461bcd60e51b815260206004820152601f60248201527f5265656e7472616e637947756172643a207265656e7472616e742063616c6c006044820152606401610536565b6002606555565b6001606555565b6033546001600160a01b03163314610a735760405162461bcd60e51b815260206004820181905260248201527f4f776e61626c653a2063616c6c6572206973206e6f7420746865206f776e65726044820152606401610536565b603380546001600160a01b038381166001600160a01b0319831681179093556040519116919082907f8be0079c531659141344cd1fd0a4f28419497f9722a3daafe3b4186f6b6457e090600090a35050565b600054610100900460ff166112395760405162461bcd60e51b8152600401610536906115fd565b610a73611297565b600054610100900460ff166112685760405162461bcd60e51b8152600401610536906115fd565b610a736112c7565b600054610100900460ff16610a735760405162461bcd60e51b8152600401610536906115fd565b600054610100900460ff166112be5760405162461bcd60e51b8152600401610536906115fd565b610a73336111c0565b600054610100900460ff1661115f5760405162461bcd60e51b8152600401610536906115fd565b60006020828403121561130057600080fd5b81356001600160e01b03198116811461131857600080fd5b9392505050565b6001600160a01b0381168114610b0357600080fd5b8015158114610b0357600080fd5b6000806040838503121561135557600080fd5b82356113608161131f565b9150602083013561137081611334565b809150509250929050565b60008060006060848603121561139057600080fd5b8335925060208401356113a28161131f565b915060408401356113b28161131f565b809150509250925092565b6000602082840312156113cf57600080fd5b81356113188161131f565b6000806000606084860312156113ef57600080fd5b8335925060208401356114018161131f565b929592945050506040919091013590565b60008060006060848603121561142757600080fd5b83356114328161131f565b92506020840135915060408401356113b28161131f565b6000806000806080858703121561145f57600080fd5b843561146a8161131f565b9350602085013561147a8161131f565b9250604085013561148a8161131f565b9150606085013561149a8161131f565b939692955090935050565b600060208083528351808285015260005b818110156114d2578581018301518582016040015282016114b6565b818111156114e4576000604083870101525b50601f01601f1916929092016040019392505050565b60006020828403121561150c57600080fd5b815161131881611334565b634e487b7160e01b600052601160045260246000fd5b6000821982111561154057611540611517565b500190565b60008261156257634e487b7160e01b600052601260045260246000fd5b500490565b60006020828403121561157957600080fd5b81516113188161131f565b60006020828403121561159657600080fd5b5051919050565b60008160001904831182151516156115b7576115b7611517565b500290565b6000828210156115ce576115ce611517565b500390565b6001600160a01b039485168152602081019390935292166040820152606081019190915260800190565b6020808252602b908201527f496e697469616c697a61626c653a20636f6e7472616374206973206e6f74206960408201526a6e697469616c697a696e6760a81b60608201526080019056fea2646970667358221220d9957e33b227998ca5aee6b17eab6358aba56f333d7a8440b6aba8eca35f27c864736f6c634300080c0033",
  "linkReferences": {},
  "deployedLinkReferences": {}
}