{
  "_format": "hh-sol-artifact-1",
  "contractName": "RoyaltyFinanceSecondSale",
  "sourceName": "contracts/services/RoyaltyFinanceSecondSale.sol",
  "abi": [
    {
      "anonymous": false,
      "inputs": [
        {
          "indexed": false,
          "internalType": "uint8",
          "name": "version",
          "type": "uint8"
        }
      ],
      "name": "Initialized",
      "type": "event"
    },
    {
      "anonymous": false,
      "inputs": [
        {
          "indexed": true,
          "internalType": "address",
          "name": "previousOwner",
          "type": "address"
        },
        {
          "indexed": true,
          "internalType": "address",
          "name": "newOwner",
          "type": "address"
        }
      ],
      "name": "OwnershipTransferred",
      "type": "event"
    },
    {
      "inputs": [],
      "name": "_admin",
      "outputs": [
        {
          "internalType": "address",
          "name": "",
          "type": "address"
        }
      ],
      "stateMutability": "view",
      "type": "function"
    },
    {
      "inputs": [],
      "name": "_generativeProjectAddr",
      "outputs": [
        {
          "internalType": "address",
          "name": "",
          "type": "address"
        }
      ],
      "stateMutability": "view",
      "type": "function"
    },
    {
      "inputs": [],
      "name": "_paramsAddress",
      "outputs": [
        {
          "internalType": "address",
          "name": "",
          "type": "address"
        }
      ],
      "stateMutability": "view",
      "type": "function"
    },
    {
      "inputs": [
        {
          "internalType": "address",
          "name": "",
          "type": "address"
        }
      ],
      "name": "_proxyRoyaltySecondSales",
      "outputs": [
        {
          "internalType": "bool",
          "name": "",
          "type": "bool"
        }
      ],
      "stateMutability": "view",
      "type": "function"
    },
    {
      "inputs": [
        {
          "internalType": "uint256",
          "name": "",
          "type": "uint256"
        },
        {
          "internalType": "address",
          "name": "",
          "type": "address"
        },
        {
          "internalType": "address",
          "name": "",
          "type": "address"
        }
      ],
      "name": "_royaltySecondSale",
      "outputs": [
        {
          "internalType": "uint256",
          "name": "",
          "type": "uint256"
        }
      ],
      "stateMutability": "view",
      "type": "function"
    },
    {
      "inputs": [
        {
          "internalType": "address",
          "name": "",
          "type": "address"
        }
      ],
      "name": "_royaltySecondSaleAdmin",
      "outputs": [
        {
          "internalType": "uint256",
          "name": "",
          "type": "uint256"
        }
      ],
      "stateMutability": "view",
      "type": "function"
    },
    {
      "inputs": [
        {
          "internalType": "address",
          "name": "newAdm",
          "type": "address"
        }
      ],
      "name": "changeAdmin",
      "outputs": [],
      "stateMutability": "nonpayable",
      "type": "function"
    },
    {
      "inputs": [
        {
          "internalType": "address",
          "name": "newAddr",
          "type": "address"
        }
      ],
      "name": "changeParamAddr",
      "outputs": [],
      "stateMutability": "nonpayable",
      "type": "function"
    },
    {
      "inputs": [
        {
          "internalType": "address",
          "name": "newAddr",
          "type": "address"
        }
      ],
      "name": "changeProjectAddress",
      "outputs": [],
      "stateMutability": "nonpayable",
      "type": "function"
    },
    {
      "inputs": [
        {
          "internalType": "address",
          "name": "admin",
          "type": "address"
        },
        {
          "internalType": "address",
          "name": "paramAddr",
          "type": "address"
        },
        {
          "internalType": "address",
          "name": "projectAddr",
          "type": "address"
        },
        {
          "internalType": "address",
          "name": "proxy",
          "type": "address"
        }
      ],
      "name": "initialize",
      "outputs": [],
      "stateMutability": "nonpayable",
      "type": "function"
    },
    {
      "inputs": [],
      "name": "owner",
      "outputs": [
        {
          "internalType": "address",
          "name": "",
          "type": "address"
        }
      ],
      "stateMutability": "view",
      "type": "function"
    },
    {
      "inputs": [],
      "name": "renounceOwnership",
      "outputs": [],
      "stateMutability": "nonpayable",
      "type": "function"
    },
    {
      "inputs": [
        {
          "internalType": "address",
          "name": "addr",
          "type": "address"
        },
        {
          "internalType": "bool",
          "name": "approve",
          "type": "bool"
        }
      ],
      "name": "setProxyRoyaltySecondSale",
      "outputs": [],
      "stateMutability": "nonpayable",
      "type": "function"
    },
    {
      "inputs": [
        {
          "internalType": "uint256",
          "name": "tokenId",
          "type": "uint256"
        },
        {
          "internalType": "address",
          "name": "erc20Addr",
          "type": "address"
        },
        {
          "internalType": "uint256",
          "name": "amount",
          "type": "uint256"
        }
      ],
      "name": "setRoyaltySecondSale",
      "outputs": [],
      "stateMutability": "nonpayable",
      "type": "function"
    },
    {
      "inputs": [
        {
          "internalType": "bytes4",
          "name": "interfaceId",
          "type": "bytes4"
        }
      ],
      "name": "supportsInterface",
      "outputs": [
        {
          "internalType": "bool",
          "name": "",
          "type": "bool"
        }
      ],
      "stateMutability": "view",
      "type": "function"
    },
    {
      "inputs": [
        {
          "internalType": "address",
          "name": "newOwner",
          "type": "address"
        }
      ],
      "name": "transferOwnership",
      "outputs": [],
      "stateMutability": "nonpayable",
      "type": "function"
    },
    {
      "inputs": [
        {
          "internalType": "address",
          "name": "erc20Addr",
          "type": "address"
        }
      ],
      "name": "withdraw",
      "outputs": [],
      "stateMutability": "nonpayable",
      "type": "function"
    },
    {
      "inputs": [
        {
          "internalType": "address",
          "name": "account",
          "type": "address"
        },
        {
          "internalType": "uint256",
          "name": "projectId",
          "type": "uint256"
        },
        {
          "internalType": "address",
          "name": "erc20Addr",
          "type": "address"
        }
      ],
      "name": "withdrawRoyalty",
      "outputs": [],
      "stateMutability": "nonpayable",
      "type": "function"
    },
    {
      "stateMutability": "payable",
      "type": "receive"
    }
  ],
  "bytecode": "0x608060405234801561001057600080fd5b50611568806100206000396000f3fe60806040526004361061010d5760003560e01c80638da5cb5b11610095578063adfc7dae11610064578063adfc7dae14610382578063e8082858146103a2578063f2fde38b146103c2578063f8c8765e146103e2578063febfd6c31461040257600080fd5b80638da5cb5b146102f45780638f28397014610312578063a0e0e68e14610332578063ac638ef91461035257600080fd5b80631737a8f9116100dc5780631737a8f91461024157806351cff8d91461027f578063567fdcf31461029f578063676eda17146102bf578063715018a6146102df57600080fd5b806301bc45c91461017757806301ffc9a7146101b457806304b40f18146101e45780630bd06f511461020657600080fd5b366101725760c9546001600160a01b031633148061013a575033600090815260cc602052604090205460ff165b61014357600080fd5b604051349033907f6ef95f06320e7a25a04a175ca677b7052bdd97131872c2192525a629f51be77090600090a3005b600080fd5b34801561018357600080fd5b5060c954610197906001600160a01b031681565b6040516001600160a01b0390911681526020015b60405180910390f35b3480156101c057600080fd5b506101d46101cf3660046111d8565b610422565b60405190151581526020016101ab565b3480156101f057600080fd5b506102046101ff36600461122c565b610459565b005b34801561021257600080fd5b50610233610221366004611265565b60cd6020526000908152604090205481565b6040519081526020016101ab565b34801561024d57600080fd5b5061023361025c366004611282565b60ce60209081526000938452604080852082529284528284209052825290205481565b34801561028b57600080fd5b5061020461029a366004611265565b610513565b3480156102ab57600080fd5b5060cb54610197906001600160a01b031681565b3480156102cb57600080fd5b506102046102da3660046112c4565b6106a6565b3480156102eb57600080fd5b506102046109a7565b34801561030057600080fd5b506033546001600160a01b0316610197565b34801561031e57600080fd5b5061020461032d366004611265565b6109bb565b34801561033e57600080fd5b5061020461034d3660046112fc565b610a4c565b34801561035e57600080fd5b506101d461036d366004611265565b60cc6020526000908152604090205460ff1681565b34801561038e57600080fd5b5060ca54610197906001600160a01b031681565b3480156103ae57600080fd5b506102046103bd366004611265565b610c04565b3480156103ce57600080fd5b506102046103dd366004611265565b610c96565b3480156103ee57600080fd5b506102046103fd366004611333565b610d0c565b34801561040e57600080fd5b5061020461041d366004611265565b610f5d565b60006001600160e01b0319821663676eda1760e01b148061045357506301ffc9a760e01b6001600160e01b03198316145b92915050565b60c9546001600160a01b03163314801561047b57506001600160a01b03821615155b6040518060400160405280600381526020016231303160e81b815250906104be5760405162461bcd60e51b81526004016104b5919061138f565b60405180910390fd5b506001600160a01b038216600081815260cc6020526040808220805460ff191685151590811790915590519092917ffba76eeea51774acad432e81c91089e1d42ef2b7055025300a68bc95319bf19291a35050565b60c95460408051808201909152600381526231303160e81b6020820152906001600160a01b031633146105595760405162461bcd60e51b81526004016104b5919061138f565b5060006001600160a01b0382166105d9576001600160a01b038216600090815260cd6020526040808220549051339281818185875af1925050503d80600081146105bf576040519150601f19603f3d011682016040523d82523d6000602084013e6105c4565b606091505b505080915050806105d457600080fd5b610668565b6001600160a01b038216600081815260cd60205260409081902054905163a9059cbb60e01b8152336004820152602481019190915283919063a9059cbb906044016020604051808303816000875af1158015610639573d6000803e3d6000fd5b505050506040513d601f19601f8201168201806040525081019061065d91906113e4565b61066657600080fd5b505b60c9546040516001600160a01b038085169216907f34d58c18c6c1df2c698ccac556acea92941ca7b99d2fccf9e3ac1852d0dec36f90600090a35050565b6106ae610fef565b60c9546001600160a01b03163314806106d6575033600090815260cc602052604090205460ff165b1561095a5760006106ea620f424085611417565b60cb546040516331a9108f60e11b8152600481018390529192506001600160a01b0316906000908290636352211e90602401602060405180830381865afa158015610739573d6000803e3d6000fd5b505050506040513d601f19601f8201168201806040525081019061075d9190611439565b90506001600160a01b038116156109145760ca54612328906001600160a01b0316156108385760ca54604080518082018252601981527f4f574e45525f524f59414c54595f5345434f4e445f53414c450000000000000060208201529051636d12dce160e01b81526001600160a01b03909216916000918391636d12dce1916107e89160040161138f565b602060405180830381865afa158015610805573d6000803e3d6000fd5b505050506040513d601f19601f820116820180604052508101906108299190611456565b90508015610835578092505b50505b612710610845868361146f565b61084f9190611417565b600085815260ce602090815260408083206001600160a01b038088168552908352818420908b1684529091528120805490919061088d90849061148e565b9091555061271090506108a0868361146f565b6108aa9190611417565b6108b490866114a6565b6001600160a01b038716600090815260cd60205260409081902091909155517fa4129fd95580e545ed07f622529ac22edd9a11eaeb90abf9308a731b50c9825d906109069033908a908a908a906114bd565b60405180910390a150610952565b7f8c268442b8e55103630f5aa7be2b83e52ed78db66b967cb25042f5feb1fede2b3387878760405161094994939291906114bd565b60405180910390a15b505050610998565b7f8c268442b8e55103630f5aa7be2b83e52ed78db66b967cb25042f5feb1fede2b3384848460405161098f94939291906114bd565b60405180910390a15b6109a26001606555565b505050565b6109af611050565b6109b960006110aa565b565b60c9546001600160a01b0316331480156109dd57506001600160a01b03811615155b6040518060400160405280600381526020016231303160e81b81525090610a175760405162461bcd60e51b81526004016104b5919061138f565b5060c9546001600160a01b03828116911614610a495760c980546001600160a01b0319166001600160a01b0383161790555b50565b600082815260ce602090815260408083206001600160a01b0380881685529083528184209085168452909152902054610a8457600080fd5b60006001600160a01b038216610b1957600083815260ce602090815260408083206001600160a01b0388811685529083528184209086168452909152808220549051339281818185875af1925050503d8060008114610aff576040519150601f19603f3d011682016040523d82523d6000602084013e610b04565b606091505b50508091505080610b1457600080fd5b610bbd565b600083815260ce602090815260408083206001600160a01b03888116855290835281842090861680855292529182902054915163a9059cbb60e01b81523360048201526024810192909252839163a9059cbb906044016020604051808303816000875af1158015610b8e573d6000803e3d6000fd5b505050506040513d601f19601f82011682018060405250810190610bb291906113e4565b610bbb57600080fd5b505b816001600160a01b031683856001600160a01b03167f15f9550fcf6fed6c5c473ac599dc5bcab1c1235b755d91aa4faa02165766cc8060405160405180910390a450505050565b60c9546001600160a01b031633148015610c2657506001600160a01b03811615155b6040518060400160405280600381526020016231303160e81b81525090610c605760405162461bcd60e51b81526004016104b5919061138f565b5060cb546001600160a01b03828116911614610a495760cb80546001600160a01b0383166001600160a01b031990911617905550565b610c9e611050565b6001600160a01b038116610d035760405162461bcd60e51b815260206004820152602660248201527f4f776e61626c653a206e6577206f776e657220697320746865207a65726f206160448201526564647265737360d01b60648201526084016104b5565b610a49816110aa565b600054610100900460ff1615808015610d2c5750600054600160ff909116105b80610d465750303b158015610d46575060005460ff166001145b610da95760405162461bcd60e51b815260206004820152602e60248201527f496e697469616c697a61626c653a20636f6e747261637420697320616c72656160448201526d191e481a5b9a5d1a585b1a5e995960921b60648201526084016104b5565b6000805460ff191660011790558015610dcc576000805461ff0019166101001790555b60408051808201909152600381526203130360ec1b60208201526001600160a01b038616610e0d5760405162461bcd60e51b81526004016104b5919061138f565b5060408051808201909152600381526203130360ec1b60208201526001600160a01b038516610e4f5760405162461bcd60e51b81526004016104b5919061138f565b5060408051808201909152600381526203130360ec1b60208201526001600160a01b038416610e915760405162461bcd60e51b81526004016104b5919061138f565b5060c980546001600160a01b038088166001600160a01b03199283161790925560ca805487841690831617905560cb80548684169216919091179055821615610ef8576001600160a01b038216600090815260cc60205260409020805460ff191660011790555b610f006110fc565b610f0861112b565b610f1061115a565b8015610f56576000805461ff0019169055604051600181527f7f26b83ff96e1f2b6a682f133852f6798a09c465da95921460cefb38474024989060200160405180910390a15b5050505050565b60c9546001600160a01b031633148015610f7f57506001600160a01b03811615155b6040518060400160405280600381526020016231303160e81b81525090610fb95760405162461bcd60e51b81526004016104b5919061138f565b5060ca546001600160a01b03828116911614610a495760ca80546001600160a01b0383166001600160a01b031990911617905550565b600260655414156110425760405162461bcd60e51b815260206004820152601f60248201527f5265656e7472616e637947756172643a207265656e7472616e742063616c6c0060448201526064016104b5565b6002606555565b6001606555565b6033546001600160a01b031633146109b95760405162461bcd60e51b815260206004820181905260248201527f4f776e61626c653a2063616c6c6572206973206e6f7420746865206f776e657260448201526064016104b5565b603380546001600160a01b038381166001600160a01b0319831681179093556040519116919082907f8be0079c531659141344cd1fd0a4f28419497f9722a3daafe3b4186f6b6457e090600090a35050565b600054610100900460ff166111235760405162461bcd60e51b81526004016104b5906114e7565b6109b9611181565b600054610100900460ff166111525760405162461bcd60e51b81526004016104b5906114e7565b6109b96111b1565b600054610100900460ff166109b95760405162461bcd60e51b81526004016104b5906114e7565b600054610100900460ff166111a85760405162461bcd60e51b81526004016104b5906114e7565b6109b9336110aa565b600054610100900460ff166110495760405162461bcd60e51b81526004016104b5906114e7565b6000602082840312156111ea57600080fd5b81356001600160e01b03198116811461120257600080fd5b9392505050565b6001600160a01b0381168114610a4957600080fd5b8015158114610a4957600080fd5b6000806040838503121561123f57600080fd5b823561124a81611209565b9150602083013561125a8161121e565b809150509250929050565b60006020828403121561127757600080fd5b813561120281611209565b60008060006060848603121561129757600080fd5b8335925060208401356112a981611209565b915060408401356112b981611209565b809150509250925092565b6000806000606084860312156112d957600080fd5b8335925060208401356112eb81611209565b929592945050506040919091013590565b60008060006060848603121561131157600080fd5b833561131c81611209565b92506020840135915060408401356112b981611209565b6000806000806080858703121561134957600080fd5b843561135481611209565b9350602085013561136481611209565b9250604085013561137481611209565b9150606085013561138481611209565b939692955090935050565b600060208083528351808285015260005b818110156113bc578581018301518582016040015282016113a0565b818111156113ce576000604083870101525b50601f01601f1916929092016040019392505050565b6000602082840312156113f657600080fd5b81516112028161121e565b634e487b7160e01b600052601160045260246000fd5b60008261143457634e487b7160e01b600052601260045260246000fd5b500490565b60006020828403121561144b57600080fd5b815161120281611209565b60006020828403121561146857600080fd5b5051919050565b600081600019048311821515161561148957611489611401565b500290565b600082198211156114a1576114a1611401565b500190565b6000828210156114b8576114b8611401565b500390565b6001600160a01b039485168152602081019390935292166040820152606081019190915260800190565b6020808252602b908201527f496e697469616c697a61626c653a20636f6e7472616374206973206e6f74206960408201526a6e697469616c697a696e6760a81b60608201526080019056fea26469706673582212203340759b509baaa7fb2ca09b6c4bc67c5bab20e33b16ab8377b6bd92cd5acb3e64736f6c634300080c0033",
  "linkReferences": {},
  "deployedLinkReferences": {}
}