{
  "_format": "hh-sol-artifact-1",
  "contractName": "GENDaoConfigs",
  "sourceName": "contracts/libs/configs/GENDaoConfigs.sol",
  "abi": [
    {
      "inputs": [],
      "name": "GEN_TOKEN",
      "outputs": [
        {
          "internalType": "string",
          "name": "",
          "type": "string"
        }
      ],
      "stateMutability": "view",
      "type": "function"
    },
    {
      "inputs": [],
      "name": "OPERATOR_TREASURE_ADDR",
      "outputs": [
        {
          "internalType": "string",
          "name": "",
          "type": "string"
        }
      ],
      "stateMutability": "view",
      "type": "function"
    }
  ],
  "bytecode": "0x61014a61003a600b82828239805160001a60731461002d57634e487b7160e01b600052600060045260246000fd5b30600052607381538281f3fe73000000000000000000000000000000000000000030146080604052600436106100405760003560e01c8063580f55e914610045578063655eb99514610097575b600080fd5b6100816040518060400160405280601f81526020017f4d494e545f4e46545f4f50455241544f525f54524541535552455f414444520081525081565b60405161008e91906100bf565b60405180910390f35b6100816040518060400160405280600981526020016823a2a72faa27a5a2a760b91b81525081565b600060208083528351808285015260005b818110156100ec578581018301518582016040015282016100d0565b818111156100fe576000604083870101525b50601f01601f191692909201604001939250505056fea2646970667358221220d12820e7dac5e40349eaca07f5d794ead0a539a9da0090d45b6a10f62c92812964736f6c634300080c0033",
  "linkReferences": {},
  "deployedLinkReferences": {}
}