{
  "_format": "hh-sol-artifact-1",
  "contractName": "BNS",
  "sourceName": "contracts/services/BNS.sol",
  "abi": [
    {
      "inputs": [],
      "name": "InsufficientRegistrationFee",
      "type": "error"
    },
    {
      "inputs": [],
      "name": "NameAlreadyRegistered",
      "type": "error"
    },
    {
      "anonymous": false,
      "inputs": [
        {
          "indexed": true,
          "internalType": "address",
          "name": "owner",
          "type": "address"
        },
        {
          "indexed": true,
          "internalType": "address",
          "name": "approved",
          "type": "address"
        },
        {
          "indexed": true,
          "internalType": "uint256",
          "name": "tokenId",
          "type": "uint256"
        }
      ],
      "name": "Approval",
      "type": "event"
    },
    {
      "anonymous": false,
      "inputs": [
        {
          "indexed": true,
          "internalType": "address",
          "name": "owner",
          "type": "address"
        },
        {
          "indexed": true,
          "internalType": "address",
          "name": "operator",
          "type": "address"
        },
        {
          "indexed": false,
          "internalType": "bool",
          "name": "approved",
          "type": "bool"
        }
      ],
      "name": "ApprovalForAll",
      "type": "event"
    },
    {
      "anonymous": false,
      "inputs": [
        {
          "indexed": false,
          "internalType": "uint8",
          "name": "version",
          "type": "uint8"
        }
      ],
      "name": "Initialized",
      "type": "event"
    },
    {
      "anonymous": false,
      "inputs": [
        {
          "indexed": false,
          "internalType": "bytes",
          "name": "name",
          "type": "bytes"
        },
        {
          "indexed": true,
          "internalType": "uint256",
          "name": "id",
          "type": "uint256"
        }
      ],
      "name": "NameRegistered",
      "type": "event"
    },
    {
      "anonymous": false,
      "inputs": [
        {
          "indexed": true,
          "internalType": "address",
          "name": "previousOwner",
          "type": "address"
        },
        {
          "indexed": true,
          "internalType": "address",
          "name": "newOwner",
          "type": "address"
        }
      ],
      "name": "OwnershipTransferred",
      "type": "event"
    },
    {
      "anonymous": false,
      "inputs": [
        {
          "indexed": true,
          "internalType": "address",
          "name": "from",
          "type": "address"
        },
        {
          "indexed": true,
          "internalType": "address",
          "name": "to",
          "type": "address"
        },
        {
          "indexed": true,
          "internalType": "uint256",
          "name": "tokenId",
          "type": "uint256"
        }
      ],
      "name": "Transfer",
      "type": "event"
    },
    {
      "inputs": [
        {
          "internalType": "bytes[]",
          "name": "_names",
          "type": "bytes[]"
        }
      ],
      "name": "afterUpgrade",
      "outputs": [],
      "stateMutability": "nonpayable",
      "type": "function"
    },
    {
      "inputs": [
        {
          "internalType": "address",
          "name": "to",
          "type": "address"
        },
        {
          "internalType": "uint256",
          "name": "tokenId",
          "type": "uint256"
        }
      ],
      "name": "approve",
      "outputs": [],
      "stateMutability": "nonpayable",
      "type": "function"
    },
    {
      "inputs": [
        {
          "internalType": "address",
          "name": "owner",
          "type": "address"
        }
      ],
      "name": "balanceOf",
      "outputs": [
        {
          "internalType": "uint256",
          "name": "",
          "type": "uint256"
        }
      ],
      "stateMutability": "view",
      "type": "function"
    },
    {
      "inputs": [],
      "name": "currentId",
      "outputs": [
        {
          "internalType": "uint256",
          "name": "",
          "type": "uint256"
        }
      ],
      "stateMutability": "view",
      "type": "function"
    },
    {
      "inputs": [],
      "name": "getAllNames",
      "outputs": [
        {
          "internalType": "bytes[]",
          "name": "",
          "type": "bytes[]"
        }
      ],
      "stateMutability": "view",
      "type": "function"
    },
    {
      "inputs": [
        {
          "internalType": "uint256",
          "name": "tokenId",
          "type": "uint256"
        }
      ],
      "name": "getApproved",
      "outputs": [
        {
          "internalType": "address",
          "name": "",
          "type": "address"
        }
      ],
      "stateMutability": "view",
      "type": "function"
    },
    {
      "inputs": [],
      "name": "initialize",
      "outputs": [],
      "stateMutability": "nonpayable",
      "type": "function"
    },
    {
      "inputs": [
        {
          "internalType": "address",
          "name": "owner",
          "type": "address"
        },
        {
          "internalType": "address",
          "name": "operator",
          "type": "address"
        }
      ],
      "name": "isApprovedForAll",
      "outputs": [
        {
          "internalType": "bool",
          "name": "",
          "type": "bool"
        }
      ],
      "stateMutability": "view",
      "type": "function"
    },
    {
      "inputs": [
        {
          "internalType": "uint256",
          "name": "tokenId",
          "type": "uint256"
        },
        {
          "internalType": "address",
          "name": "to",
          "type": "address"
        }
      ],
      "name": "map",
      "outputs": [],
      "stateMutability": "nonpayable",
      "type": "function"
    },
    {
      "inputs": [],
      "name": "minRegistrationFee",
      "outputs": [
        {
          "internalType": "uint256",
          "name": "",
          "type": "uint256"
        }
      ],
      "stateMutability": "view",
      "type": "function"
    },
    {
      "inputs": [],
      "name": "name",
      "outputs": [
        {
          "internalType": "string",
          "name": "",
          "type": "string"
        }
      ],
      "stateMutability": "view",
      "type": "function"
    },
    {
      "inputs": [
        {
          "internalType": "uint256",
          "name": "",
          "type": "uint256"
        }
      ],
      "name": "names",
      "outputs": [
        {
          "internalType": "bytes",
          "name": "",
          "type": "bytes"
        }
      ],
      "stateMutability": "view",
      "type": "function"
    },
    {
      "inputs": [],
      "name": "namesLen",
      "outputs": [
        {
          "internalType": "uint256",
          "name": "",
          "type": "uint256"
        }
      ],
      "stateMutability": "view",
      "type": "function"
    },
    {
      "inputs": [],
      "name": "owner",
      "outputs": [
        {
          "internalType": "address",
          "name": "",
          "type": "address"
        }
      ],
      "stateMutability": "view",
      "type": "function"
    },
    {
      "inputs": [
        {
          "internalType": "uint256",
          "name": "tokenId",
          "type": "uint256"
        }
      ],
      "name": "ownerOf",
      "outputs": [
        {
          "internalType": "address",
          "name": "",
          "type": "address"
        }
      ],
      "stateMutability": "view",
      "type": "function"
    },
    {
      "inputs": [
        {
          "internalType": "address",
          "name": "owner",
          "type": "address"
        },
        {
          "internalType": "bytes",
          "name": "name",
          "type": "bytes"
        }
      ],
      "name": "register",
      "outputs": [
        {
          "internalType": "uint256",
          "name": "",
          "type": "uint256"
        }
      ],
      "stateMutability": "payable",
      "type": "function"
    },
    {
      "inputs": [
        {
          "internalType": "address",
          "name": "owner",
          "type": "address"
        },
        {
          "internalType": "bytes[]",
          "name": "_names",
          "type": "bytes[]"
        }
      ],
      "name": "registerBatch",
      "outputs": [],
      "stateMutability": "nonpayable",
      "type": "function"
    },
    {
      "inputs": [
        {
          "internalType": "bytes",
          "name": "",
          "type": "bytes"
        }
      ],
      "name": "registered",
      "outputs": [
        {
          "internalType": "bool",
          "name": "",
          "type": "bool"
        }
      ],
      "stateMutability": "view",
      "type": "function"
    },
    {
      "inputs": [
        {
          "internalType": "bytes",
          "name": "",
          "type": "bytes"
        }
      ],
      "name": "registry",
      "outputs": [
        {
          "internalType": "uint256",
          "name": "",
          "type": "uint256"
        }
      ],
      "stateMutability": "view",
      "type": "function"
    },
    {
      "inputs": [],
      "name": "renounceOwnership",
      "outputs": [],
      "stateMutability": "nonpayable",
      "type": "function"
    },
    {
      "inputs": [
        {
          "internalType": "uint256",
          "name": "",
          "type": "uint256"
        }
      ],
      "name": "resolver",
      "outputs": [
        {
          "internalType": "address",
          "name": "",
          "type": "address"
        }
      ],
      "stateMutability": "view",
      "type": "function"
    },
    {
      "inputs": [
        {
          "internalType": "address",
          "name": "from",
          "type": "address"
        },
        {
          "internalType": "address",
          "name": "to",
          "type": "address"
        },
        {
          "internalType": "uint256",
          "name": "tokenId",
          "type": "uint256"
        }
      ],
      "name": "safeTransferFrom",
      "outputs": [],
      "stateMutability": "nonpayable",
      "type": "function"
    },
    {
      "inputs": [
        {
          "internalType": "address",
          "name": "from",
          "type": "address"
        },
        {
          "internalType": "address",
          "name": "to",
          "type": "address"
        },
        {
          "internalType": "uint256",
          "name": "tokenId",
          "type": "uint256"
        },
        {
          "internalType": "bytes",
          "name": "data",
          "type": "bytes"
        }
      ],
      "name": "safeTransferFrom",
      "outputs": [],
      "stateMutability": "nonpayable",
      "type": "function"
    },
    {
      "inputs": [
        {
          "internalType": "address",
          "name": "operator",
          "type": "address"
        },
        {
          "internalType": "bool",
          "name": "approved",
          "type": "bool"
        }
      ],
      "name": "setApprovalForAll",
      "outputs": [],
      "stateMutability": "nonpayable",
      "type": "function"
    },
    {
      "inputs": [
        {
          "internalType": "uint256",
          "name": "fee",
          "type": "uint256"
        }
      ],
      "name": "setMinRegistrationFee",
      "outputs": [],
      "stateMutability": "nonpayable",
      "type": "function"
    },
    {
      "inputs": [
        {
          "internalType": "bytes4",
          "name": "interfaceId",
          "type": "bytes4"
        }
      ],
      "name": "supportsInterface",
      "outputs": [
        {
          "internalType": "bool",
          "name": "",
          "type": "bool"
        }
      ],
      "stateMutability": "view",
      "type": "function"
    },
    {
      "inputs": [],
      "name": "symbol",
      "outputs": [
        {
          "internalType": "string",
          "name": "",
          "type": "string"
        }
      ],
      "stateMutability": "view",
      "type": "function"
    },
    {
      "inputs": [
        {
          "internalType": "uint256",
          "name": "tokenId",
          "type": "uint256"
        }
      ],
      "name": "tokenURI",
      "outputs": [
        {
          "internalType": "string",
          "name": "",
          "type": "string"
        }
      ],
      "stateMutability": "view",
      "type": "function"
    },
    {
      "inputs": [
        {
          "internalType": "address",
          "name": "from",
          "type": "address"
        },
        {
          "internalType": "address",
          "name": "to",
          "type": "address"
        },
        {
          "internalType": "uint256",
          "name": "tokenId",
          "type": "uint256"
        }
      ],
      "name": "transferFrom",
      "outputs": [],
      "stateMutability": "nonpayable",
      "type": "function"
    },
    {
      "inputs": [
        {
          "internalType": "address",
          "name": "newOwner",
          "type": "address"
        }
      ],
      "name": "transferOwnership",
      "outputs": [],
      "stateMutability": "nonpayable",
      "type": "function"
    }
  ],
  "bytecode": "0x6080604052600060cd5534801561001557600080fd5b50612296806100256000396000f3fe6080604052600436106101cd5760003560e01c80636352211e116100f7578063a15d581c11610095578063e00dd16111610064578063e00dd16114610555578063e985e9c51461056a578063f2fde38b146105b3578063fb825e5f146105d357600080fd5b8063a15d581c146104bd578063a22cb465146104f5578063b88d4fde14610515578063c87b56dd1461053557600080fd5b80638129fc1c116100d15780638129fc1c1461045f5780638da5cb5b1461047457806395d89b41146104925780639706828a146104a757600080fd5b80636352211e1461040a57806370a082311461042a578063715018a61461044a57600080fd5b806324b8fbf61161016f57806342842e0e1161013e57806342842e0e1461037a5780634622ab031461039a5780635aca952e146103ba5780635cc3cd11146103f557600080fd5b806324b8fbf6146102f957806327201c971461031a5780632acab79f1461033a578063376a2b691461035a57600080fd5b8063081812fc116101ab578063081812fc1461024b578063095ea7b314610283578063108eaa4e146102a357806323b872dd146102d957600080fd5b806301ffc9a7146101d257806306301a9d1461020757806306fdde0314610229575b600080fd5b3480156101de57600080fd5b506101f26101ed366004611aef565b6105f5565b60405190151581526020015b60405180910390f35b34801561021357600080fd5b50610227610222366004611b0c565b610647565b005b34801561023557600080fd5b5061023e610654565b6040516101fe9190611b7d565b34801561025757600080fd5b5061026b610266366004611b0c565b6106e6565b6040516001600160a01b0390911681526020016101fe565b34801561028f57600080fd5b5061022761029e366004611bac565b61070d565b3480156102af57600080fd5b5061026b6102be366004611b0c565b60cc602052600090815260409020546001600160a01b031681565b3480156102e557600080fd5b506102276102f4366004611bd6565b610828565b61030c610307366004611cc9565b610859565b6040519081526020016101fe565b34801561032657600080fd5b50610227610335366004611db6565b6109dc565b34801561034657600080fd5b50610227610355366004611dfa565b610a1e565b34801561036657600080fd5b50610227610375366004611e2f565b610ac9565b34801561038657600080fd5b50610227610395366004611bd6565b610b1d565b3480156103a657600080fd5b5061023e6103b5366004611b0c565b610b38565b3480156103c657600080fd5b506101f26103d5366004611e5b565b805160208183018101805160cb8252928201919093012091525460ff1681565b34801561040157600080fd5b5060ce5461030c565b34801561041657600080fd5b5061026b610425366004611b0c565b610be4565b34801561043657600080fd5b5061030c610445366004611e90565b610c44565b34801561045657600080fd5b50610227610cca565b34801561046b57600080fd5b50610227610cde565b34801561048057600080fd5b506097546001600160a01b031661026b565b34801561049e57600080fd5b5061023e610e3f565b3480156104b357600080fd5b5061030c60cd5481565b3480156104c957600080fd5b5061030c6104d8366004611e5b565b805160208183018101805160ca8252928201919093012091525481565b34801561050157600080fd5b50610227610510366004611eab565b610e4e565b34801561052157600080fd5b50610227610530366004611ee7565b610e59565b34801561054157600080fd5b5061023e610550366004611b0c565b610e91565b34801561056157600080fd5b5061030c610f04565b34801561057657600080fd5b506101f2610585366004611f4f565b6001600160a01b039182166000908152606a6020908152604080832093909416825291909152205460ff1690565b3480156105bf57600080fd5b506102276105ce366004611e90565b610f14565b3480156105df57600080fd5b506105e8610f8a565b6040516101fe9190611f79565b60006001600160e01b031982166380ac58cd60e01b148061062657506001600160e01b03198216635b5e139f60e01b145b8061064157506301ffc9a760e01b6001600160e01b03198316145b92915050565b61064f611063565b60cd55565b60606065805461066390611fdb565b80601f016020809104026020016040519081016040528092919081815260200182805461068f90611fdb565b80156106dc5780601f106106b1576101008083540402835291602001916106dc565b820191906000526020600020905b8154815290600101906020018083116106bf57829003601f168201915b5050505050905090565b60006106f1826110bd565b506000908152606960205260409020546001600160a01b031690565b600061071882610be4565b9050806001600160a01b0316836001600160a01b0316141561078b5760405162461bcd60e51b815260206004820152602160248201527f4552433732313a20617070726f76616c20746f2063757272656e74206f776e656044820152603960f91b60648201526084015b60405180910390fd5b336001600160a01b03821614806107a757506107a78133610585565b6108195760405162461bcd60e51b815260206004820152603d60248201527f4552433732313a20617070726f76652063616c6c6572206973206e6f7420746f60448201527f6b656e206f776e6572206f7220617070726f76656420666f7220616c6c0000006064820152608401610782565b610823838361111c565b505050565b610832338261118a565b61084e5760405162461bcd60e51b815260040161078290612016565b610823838383611209565b600060cd5434101561087e5760405163ef1452c160e01b815260040160405180910390fd5b60cb8260405161088e9190612063565b9081526040519081900360200190205460ff16156108bf576040516301224a6f60e11b815260040160405180910390fd5b60006108ca60c95490565b90506108d6848261137a565b8060ca846040516108e79190612063565b908152602001604051809103902081905550600160cb8460405161090b9190612063565b9081526040805160209281900383019020805460ff191693151593909317909255600083815260cc825291822080546001600160a01b0319166001600160a01b03881617905560ce80546001810182559252845161098e927fd36cd1c74ef8d7326d8021b776c18fb5a5724b7f7bc93c2f42e43e10ef27d12a0191860190611a40565b50807f804e89f7acfccaf194f6757b177acb1ab1828a7c01ef308f9f8e4bbd2fb63873846040516109bf9190611b7d565b60405180910390a26109d560c980546001019055565b9392505050565b60005b815181101561082357610a0b838383815181106109fe576109fe61207f565b6020026020010151610859565b5080610a16816120ab565b9150506109df565b60005b8151811015610ac55760cb828281518110610a3e57610a3e61207f565b6020026020010151604051610a539190612063565b9081526040519081900360200190205460ff1615610ab35760ce828281518110610a7f57610a7f61207f565b60209081029190910181015182546001810184556000938452928290208151610ab19491909101929190910190611a40565b505b80610abd816120ab565b915050610a21565b5050565b610ad282610be4565b6001600160a01b0316336001600160a01b031614610aef57600080fd5b600091825260cc602052604090912080546001600160a01b0319166001600160a01b03909216919091179055565b61082383838360405180602001604052806000815250610e59565b60ce8181548110610b4857600080fd5b906000526020600020016000915090508054610b6390611fdb565b80601f0160208091040260200160405190810160405280929190818152602001828054610b8f90611fdb565b8015610bdc5780601f10610bb157610100808354040283529160200191610bdc565b820191906000526020600020905b815481529060010190602001808311610bbf57829003601f168201915b505050505081565b6000818152606760205260408120546001600160a01b0316806106415760405162461bcd60e51b8152602060048201526018602482015277115490cdcc8c4e881a5b9d985b1a59081d1bdad95b88125160421b6044820152606401610782565b60006001600160a01b038216610cae5760405162461bcd60e51b815260206004820152602960248201527f4552433732313a2061646472657373207a65726f206973206e6f7420612076616044820152683634b21037bbb732b960b91b6064820152608401610782565b506001600160a01b031660009081526068602052604090205490565b610cd2611063565b610cdc6000611513565b565b600054610100900460ff1615808015610cfe5750600054600160ff909116105b80610d185750303b158015610d18575060005460ff166001145b610d7b5760405162461bcd60e51b815260206004820152602e60248201527f496e697469616c697a61626c653a20636f6e747261637420697320616c72656160448201526d191e481a5b9a5d1a585b1a5e995960921b6064820152608401610782565b6000805460ff191660011790558015610d9e576000805461ff0019166101001790555b610dee60405180604001604052806013815260200172426974636f696e204e616d652053797374656d60681b81525060405180604001604052806003815260200162424e5360e81b815250611565565b610df6611596565b8015610e3c576000805461ff0019169055604051600181527f7f26b83ff96e1f2b6a682f133852f6798a09c465da95921460cefb38474024989060200160405180910390a15b50565b60606066805461066390611fdb565b610ac53383836115c5565b610e63338361118a565b610e7f5760405162461bcd60e51b815260040161078290612016565b610e8b84848484611694565b50505050565b6060610e9c826110bd565b6000610eb360408051602081019091526000815290565b90506000815111610ed357604051806020016040528060008152506109d5565b80610edd846116c7565b604051602001610eee9291906120c6565b6040516020818303038152906040529392505050565b6000610f0f60c95490565b905090565b610f1c611063565b6001600160a01b038116610f815760405162461bcd60e51b815260206004820152602660248201527f4f776e61626c653a206e6577206f776e657220697320746865207a65726f206160448201526564647265737360d01b6064820152608401610782565b610e3c81611513565b606060ce805480602002602001604051908101604052809291908181526020016000905b8282101561105a578382906000526020600020018054610fcd90611fdb565b80601f0160208091040260200160405190810160405280929190818152602001828054610ff990611fdb565b80156110465780601f1061101b57610100808354040283529160200191611046565b820191906000526020600020905b81548152906001019060200180831161102957829003601f168201915b505050505081526020019060010190610fae565b50505050905090565b6097546001600160a01b03163314610cdc5760405162461bcd60e51b815260206004820181905260248201527f4f776e61626c653a2063616c6c6572206973206e6f7420746865206f776e65726044820152606401610782565b6000818152606760205260409020546001600160a01b0316610e3c5760405162461bcd60e51b8152602060048201526018602482015277115490cdcc8c4e881a5b9d985b1a59081d1bdad95b88125160421b6044820152606401610782565b600081815260696020526040902080546001600160a01b0319166001600160a01b038416908117909155819061115182610be4565b6001600160a01b03167f8c5be1e5ebec7d5bd14f71427d1e84f3dd0314c0f7b2291e5b200ac8c7c3b92560405160405180910390a45050565b60008061119683610be4565b9050806001600160a01b0316846001600160a01b031614806111dd57506001600160a01b038082166000908152606a602090815260408083209388168352929052205460ff165b806112015750836001600160a01b03166111f6846106e6565b6001600160a01b0316145b949350505050565b826001600160a01b031661121c82610be4565b6001600160a01b0316146112425760405162461bcd60e51b8152600401610782906120f5565b6001600160a01b0382166112a45760405162461bcd60e51b8152602060048201526024808201527f4552433732313a207472616e7366657220746f20746865207a65726f206164646044820152637265737360e01b6064820152608401610782565b6112b18383836001611764565b826001600160a01b03166112c482610be4565b6001600160a01b0316146112ea5760405162461bcd60e51b8152600401610782906120f5565b600081815260696020908152604080832080546001600160a01b03199081169091556001600160a01b0387811680865260688552838620805460001901905590871680865283862080546001019055868652606790945282852080549092168417909155905184937fddf252ad1be2c89b69c2b068fc378daa952ba7f163c4a11628f55a4df523b3ef91a4505050565b6001600160a01b0382166113d05760405162461bcd60e51b815260206004820181905260248201527f4552433732313a206d696e7420746f20746865207a65726f20616464726573736044820152606401610782565b6000818152606760205260409020546001600160a01b0316156114355760405162461bcd60e51b815260206004820152601c60248201527f4552433732313a20746f6b656e20616c7265616479206d696e746564000000006044820152606401610782565b611443600083836001611764565b6000818152606760205260409020546001600160a01b0316156114a85760405162461bcd60e51b815260206004820152601c60248201527f4552433732313a20746f6b656e20616c7265616479206d696e746564000000006044820152606401610782565b6001600160a01b038216600081815260686020908152604080832080546001019055848352606790915280822080546001600160a01b0319168417905551839291907fddf252ad1be2c89b69c2b068fc378daa952ba7f163c4a11628f55a4df523b3ef908290a45050565b609780546001600160a01b038381166001600160a01b0319831681179093556040519116919082907f8be0079c531659141344cd1fd0a4f28419497f9722a3daafe3b4186f6b6457e090600090a35050565b600054610100900460ff1661158c5760405162461bcd60e51b81526004016107829061213a565b610ac582826117ec565b600054610100900460ff166115bd5760405162461bcd60e51b81526004016107829061213a565b610cdc61183a565b816001600160a01b0316836001600160a01b031614156116275760405162461bcd60e51b815260206004820152601960248201527f4552433732313a20617070726f766520746f2063616c6c6572000000000000006044820152606401610782565b6001600160a01b038381166000818152606a6020908152604080832094871680845294825291829020805460ff191686151590811790915591519182527f17307eab39ab6107e8899845ad3d59bd9653f200f220920489ca2b5937696c31910160405180910390a3505050565b61169f848484611209565b6116ab8484848461186a565b610e8b5760405162461bcd60e51b815260040161078290612185565b606060006116d483611968565b600101905060008167ffffffffffffffff8111156116f4576116f4611c12565b6040519080825280601f01601f19166020018201604052801561171e576020820181803683370190505b5090508181016020015b600019016f181899199a1a9b1b9c1cb0b131b232b360811b600a86061a8153600a85049450846117575761175c565b611728565b509392505050565b6001811115610e8b576001600160a01b038416156117aa576001600160a01b038416600090815260686020526040812080548392906117a49084906121d7565b90915550505b6001600160a01b03831615610e8b576001600160a01b038316600090815260686020526040812080548392906117e19084906121ee565b909155505050505050565b600054610100900460ff166118135760405162461bcd60e51b81526004016107829061213a565b8151611826906065906020850190611a40565b508051610823906066906020840190611a40565b600054610100900460ff166118615760405162461bcd60e51b81526004016107829061213a565b610cdc33611513565b60006001600160a01b0384163b1561195d57604051630a85bd0160e11b81526001600160a01b0385169063150b7a02906118ae903390899088908890600401612206565b6020604051808303816000875af19250505080156118e9575060408051601f3d908101601f191682019092526118e691810190612243565b60015b611943573d808015611917576040519150601f19603f3d011682016040523d82523d6000602084013e61191c565b606091505b50805161193b5760405162461bcd60e51b815260040161078290612185565b805181602001fd5b6001600160e01b031916630a85bd0160e11b149050611201565b506001949350505050565b60008072184f03e93ff9f4daa797ed6e38ed64bf6a1f0160401b83106119a75772184f03e93ff9f4daa797ed6e38ed64bf6a1f0160401b830492506040015b6d04ee2d6d415b85acef810000000083106119d3576d04ee2d6d415b85acef8100000000830492506020015b662386f26fc1000083106119f157662386f26fc10000830492506010015b6305f5e1008310611a09576305f5e100830492506008015b6127108310611a1d57612710830492506004015b60648310611a2f576064830492506002015b600a83106106415760010192915050565b828054611a4c90611fdb565b90600052602060002090601f016020900481019282611a6e5760008555611ab4565b82601f10611a8757805160ff1916838001178555611ab4565b82800160010185558215611ab4579182015b82811115611ab4578251825591602001919060010190611a99565b50611ac0929150611ac4565b5090565b5b80821115611ac05760008155600101611ac5565b6001600160e01b031981168114610e3c57600080fd5b600060208284031215611b0157600080fd5b81356109d581611ad9565b600060208284031215611b1e57600080fd5b5035919050565b60005b83811015611b40578181015183820152602001611b28565b83811115610e8b5750506000910152565b60008151808452611b69816020860160208601611b25565b601f01601f19169290920160200192915050565b6020815260006109d56020830184611b51565b80356001600160a01b0381168114611ba757600080fd5b919050565b60008060408385031215611bbf57600080fd5b611bc883611b90565b946020939093013593505050565b600080600060608486031215611beb57600080fd5b611bf484611b90565b9250611c0260208501611b90565b9150604084013590509250925092565b634e487b7160e01b600052604160045260246000fd5b604051601f8201601f1916810167ffffffffffffffff81118282101715611c5157611c51611c12565b604052919050565b600082601f830112611c6a57600080fd5b813567ffffffffffffffff811115611c8457611c84611c12565b611c97601f8201601f1916602001611c28565b818152846020838601011115611cac57600080fd5b816020850160208301376000918101602001919091529392505050565b60008060408385031215611cdc57600080fd5b611ce583611b90565b9150602083013567ffffffffffffffff811115611d0157600080fd5b611d0d85828601611c59565b9150509250929050565b600082601f830112611d2857600080fd5b8135602067ffffffffffffffff80831115611d4557611d45611c12565b8260051b611d54838201611c28565b9384528581018301938381019088861115611d6e57600080fd5b84880192505b85831015611daa57823584811115611d8c5760008081fd5b611d9a8a87838c0101611c59565b8352509184019190840190611d74565b98975050505050505050565b60008060408385031215611dc957600080fd5b611dd283611b90565b9150602083013567ffffffffffffffff811115611dee57600080fd5b611d0d85828601611d17565b600060208284031215611e0c57600080fd5b813567ffffffffffffffff811115611e2357600080fd5b61120184828501611d17565b60008060408385031215611e4257600080fd5b82359150611e5260208401611b90565b90509250929050565b600060208284031215611e6d57600080fd5b813567ffffffffffffffff811115611e8457600080fd5b61120184828501611c59565b600060208284031215611ea257600080fd5b6109d582611b90565b60008060408385031215611ebe57600080fd5b611ec783611b90565b915060208301358015158114611edc57600080fd5b809150509250929050565b60008060008060808587031215611efd57600080fd5b611f0685611b90565b9350611f1460208601611b90565b925060408501359150606085013567ffffffffffffffff811115611f3757600080fd5b611f4387828801611c59565b91505092959194509250565b60008060408385031215611f6257600080fd5b611f6b83611b90565b9150611e5260208401611b90565b6000602080830181845280855180835260408601915060408160051b870101925083870160005b82811015611fce57603f19888603018452611fbc858351611b51565b94509285019290850190600101611fa0565b5092979650505050505050565b600181811c90821680611fef57607f821691505b6020821081141561201057634e487b7160e01b600052602260045260246000fd5b50919050565b6020808252602d908201527f4552433732313a2063616c6c6572206973206e6f7420746f6b656e206f776e6560408201526c1c881bdc88185c1c1c9bdd9959609a1b606082015260800190565b60008251612075818460208701611b25565b9190910192915050565b634e487b7160e01b600052603260045260246000fd5b634e487b7160e01b600052601160045260246000fd5b60006000198214156120bf576120bf612095565b5060010190565b600083516120d8818460208801611b25565b8351908301906120ec818360208801611b25565b01949350505050565b60208082526025908201527f4552433732313a207472616e736665722066726f6d20696e636f72726563742060408201526437bbb732b960d91b606082015260800190565b6020808252602b908201527f496e697469616c697a61626c653a20636f6e7472616374206973206e6f74206960408201526a6e697469616c697a696e6760a81b606082015260800190565b60208082526032908201527f4552433732313a207472616e7366657220746f206e6f6e20455243373231526560408201527131b2b4bb32b91034b6b83632b6b2b73a32b960711b606082015260800190565b6000828210156121e9576121e9612095565b500390565b6000821982111561220157612201612095565b500190565b6001600160a01b038581168252841660208201526040810183905260806060820181905260009061223990830184611b51565b9695505050505050565b60006020828403121561225557600080fd5b81516109d581611ad956fea2646970667358221220595e0f2a598c50a927e37a192c912b6cfd340b234fb9d41b02c6459333edf5b364736f6c634300080c0033",
  "linkReferences": {},
  "deployedLinkReferences": {}
}