{
  "_format": "hh-sol-artifact-1",
  "contractName": "Ordinals",
  "sourceName": "contracts/services/Ordinals.sol",
  "abi": [
    {
      "anonymous": false,
      "inputs": [
        {
          "indexed": false,
          "internalType": "uint8",
          "name": "version",
          "type": "uint8"
        }
      ],
      "name": "Initialized",
      "type": "event"
    },
    {
      "anonymous": false,
      "inputs": [
        {
          "indexed": true,
          "internalType": "address",
          "name": "previousOwner",
          "type": "address"
        },
        {
          "indexed": true,
          "internalType": "address",
          "name": "newOwner",
          "type": "address"
        }
      ],
      "name": "OwnershipTransferred",
      "type": "event"
    },
    {
      "inputs": [],
      "name": "_admin",
      "outputs": [
        {
          "internalType": "address",
          "name": "",
          "type": "address"
        }
      ],
      "stateMutability": "view",
      "type": "function"
    },
    {
      "inputs": [
        {
          "internalType": "address",
          "name": "",
          "type": "address"
        }
      ],
      "name": "_caller",
      "outputs": [
        {
          "internalType": "bool",
          "name": "",
          "type": "bool"
        }
      ],
      "stateMutability": "view",
      "type": "function"
    },
    {
      "inputs": [
        {
          "internalType": "address",
          "name": "",
          "type": "address"
        },
        {
          "internalType": "uint256",
          "name": "",
          "type": "uint256"
        }
      ],
      "name": "_inscription",
      "outputs": [
        {
          "internalType": "string",
          "name": "",
          "type": "string"
        }
      ],
      "stateMutability": "view",
      "type": "function"
    },
    {
      "inputs": [],
      "name": "_parameterAddr",
      "outputs": [
        {
          "internalType": "address",
          "name": "",
          "type": "address"
        }
      ],
      "stateMutability": "view",
      "type": "function"
    },
    {
      "inputs": [
        {
          "internalType": "address",
          "name": "newAdm",
          "type": "address"
        }
      ],
      "name": "changeAdmin",
      "outputs": [],
      "stateMutability": "nonpayable",
      "type": "function"
    },
    {
      "inputs": [
        {
          "internalType": "address",
          "name": "newAdm",
          "type": "address"
        }
      ],
      "name": "changeParam",
      "outputs": [],
      "stateMutability": "nonpayable",
      "type": "function"
    },
    {
      "inputs": [
        {
          "internalType": "address",
          "name": "admin",
          "type": "address"
        },
        {
          "internalType": "address",
          "name": "parameterControl",
          "type": "address"
        }
      ],
      "name": "initialize",
      "outputs": [],
      "stateMutability": "nonpayable",
      "type": "function"
    },
    {
      "inputs": [],
      "name": "owner",
      "outputs": [
        {
          "internalType": "address",
          "name": "",
          "type": "address"
        }
      ],
      "stateMutability": "view",
      "type": "function"
    },
    {
      "inputs": [],
      "name": "renounceOwnership",
      "outputs": [],
      "stateMutability": "nonpayable",
      "type": "function"
    },
    {
      "inputs": [
        {
          "internalType": "address",
          "name": "caller",
          "type": "address"
        },
        {
          "internalType": "bool",
          "name": "approved",
          "type": "bool"
        }
      ],
      "name": "setCaller",
      "outputs": [],
      "stateMutability": "nonpayable",
      "type": "function"
    },
    {
      "inputs": [
        {
          "internalType": "address",
          "name": "coll",
          "type": "address"
        },
        {
          "internalType": "uint256",
          "name": "tokenId",
          "type": "uint256"
        },
        {
          "internalType": "string",
          "name": "inscriptionId",
          "type": "string"
        }
      ],
      "name": "setInscription",
      "outputs": [],
      "stateMutability": "nonpayable",
      "type": "function"
    },
    {
      "inputs": [
        {
          "internalType": "address",
          "name": "newOwner",
          "type": "address"
        }
      ],
      "name": "transferOwnership",
      "outputs": [],
      "stateMutability": "nonpayable",
      "type": "function"
    }
  ],
  "bytecode": "0x608060405234801561001057600080fd5b50610c84806100206000396000f3fe608060405234801561001057600080fd5b50600436106100b45760003560e01c806372c20ba41161007157806372c20ba41461014c578063741149b11461017f5780638da5cb5b146101925780638f283970146101a35780639cae6eae146101b6578063f2fde38b146101c957600080fd5b806301bc45c9146100b95780631389d3b4146100e957806332524dce146100fe578063485cc9551461011e578063715018a61461013157806372c035cf14610139575b600080fd5b6065546100cc906001600160a01b031681565b6040516001600160a01b0390911681526020015b60405180910390f35b6100fc6100f73660046109a9565b6101dc565b005b61011161010c366004610a76565b6103ae565b6040516100e09190610aa2565b6100fc61012c366004610af7565b610453565b6100fc6105d8565b6066546100cc906001600160a01b031681565b61016f61015a366004610b30565b60676020526000908152604090205460ff1681565b60405190151581526020016100e0565b6100fc61018d366004610b30565b6105ec565b6033546001600160a01b03166100cc565b6100fc6101b1366004610b30565b61067d565b6100fc6101c4366004610b54565b61070f565b6100fc6101d7366004610b30565b610764565b6001600160a01b03831660009081526068602090815260408083208584529091529020805461020a90610b87565b1590506102475760405162461bcd60e51b8152602060048201526006602482015265444f55424c4560d01b60448201526064015b60405180910390fd5b6001600160a01b03831673b47e3cd837ddf8e4c57f05d70ab865de6e193bbb14610333576040516331a9108f60e11b815260048101839052839033906001600160a01b03831690636352211e90602401602060405180830381865afa1580156102b4573d6000803e3d6000fd5b505050506040513d601f19601f820116820180604052508101906102d89190610bc2565b6001600160a01b031614806102fc57503360009081526067602052604090205460ff165b8061031157506065546001600160a01b031633145b61032d5760405162461bcd60e51b815260040161023e90610bdf565b50610377565b3360009081526067602052604090205460ff168061035b57506065546001600160a01b031633145b6103775760405162461bcd60e51b815260040161023e90610bdf565b6001600160a01b0383166000908152606860209081526040808320858452825290912082516103a8928401906108e5565b50505050565b6068602090815260009283526040808420909152908252902080546103d290610b87565b80601f01602080910402602001604051908101604052809291908181526020018280546103fe90610b87565b801561044b5780601f106104205761010080835404028352916020019161044b565b820191906000526020600020905b81548152906001019060200180831161042e57829003601f168201915b505050505081565b600054610100900460ff16158080156104735750600054600160ff909116105b8061048d5750303b15801561048d575060005460ff166001145b6104f05760405162461bcd60e51b815260206004820152602e60248201527f496e697469616c697a61626c653a20636f6e747261637420697320616c72656160448201526d191e481a5b9a5d1a585b1a5e995960921b606482015260840161023e565b6000805460ff191660011790558015610513576000805461ff0019166101001790555b60408051808201909152600381526203130360ec1b60208201526001600160a01b0384166105545760405162461bcd60e51b815260040161023e9190610aa2565b50606580546001600160a01b038086166001600160a01b031992831617909255606680549285169290911691909117905561058d6107da565b80156105d3576000805461ff0019169055604051600181527f7f26b83ff96e1f2b6a682f133852f6798a09c465da95921460cefb38474024989060200160405180910390a15b505050565b6105e0610809565b6105ea6000610863565b565b6065546001600160a01b03163314801561060e57506001600160a01b03811615155b6040518060400160405280600381526020016231303160e81b815250906106485760405162461bcd60e51b815260040161023e9190610aa2565b506066546001600160a01b0382811691161461067a57606680546001600160a01b0319166001600160a01b0383161790555b50565b6065546001600160a01b03163314801561069f57506001600160a01b03811615155b6040518060400160405280600381526020016231303160e81b815250906106d95760405162461bcd60e51b815260040161023e9190610aa2565b506065546001600160a01b0382811691161461067a57606580546001600160a01b0383166001600160a01b031990911617905550565b6065546001600160a01b031633146107395760405162461bcd60e51b815260040161023e90610bdf565b6001600160a01b03919091166000908152606760205260409020805460ff1916911515919091179055565b61076c610809565b6001600160a01b0381166107d15760405162461bcd60e51b815260206004820152602660248201527f4f776e61626c653a206e6577206f776e657220697320746865207a65726f206160448201526564647265737360d01b606482015260840161023e565b61067a81610863565b600054610100900460ff166108015760405162461bcd60e51b815260040161023e90610c03565b6105ea6108b5565b6033546001600160a01b031633146105ea5760405162461bcd60e51b815260206004820181905260248201527f4f776e61626c653a2063616c6c6572206973206e6f7420746865206f776e6572604482015260640161023e565b603380546001600160a01b038381166001600160a01b0319831681179093556040519116919082907f8be0079c531659141344cd1fd0a4f28419497f9722a3daafe3b4186f6b6457e090600090a35050565b600054610100900460ff166108dc5760405162461bcd60e51b815260040161023e90610c03565b6105ea33610863565b8280546108f190610b87565b90600052602060002090601f0160209004810192826109135760008555610959565b82601f1061092c57805160ff1916838001178555610959565b82800160010185558215610959579182015b8281111561095957825182559160200191906001019061093e565b50610965929150610969565b5090565b5b80821115610965576000815560010161096a565b6001600160a01b038116811461067a57600080fd5b634e487b7160e01b600052604160045260246000fd5b6000806000606084860312156109be57600080fd5b83356109c98161097e565b925060208401359150604084013567ffffffffffffffff808211156109ed57600080fd5b818601915086601f830112610a0157600080fd5b813581811115610a1357610a13610993565b604051601f8201601f19908116603f01168101908382118183101715610a3b57610a3b610993565b81604052828152896020848701011115610a5457600080fd5b8260208601602083013760006020848301015280955050505050509250925092565b60008060408385031215610a8957600080fd5b8235610a948161097e565b946020939093013593505050565b600060208083528351808285015260005b81811015610acf57858101830151858201604001528201610ab3565b81811115610ae1576000604083870101525b50601f01601f1916929092016040019392505050565b60008060408385031215610b0a57600080fd5b8235610b158161097e565b91506020830135610b258161097e565b809150509250929050565b600060208284031215610b4257600080fd5b8135610b4d8161097e565b9392505050565b60008060408385031215610b6757600080fd5b8235610b728161097e565b915060208301358015158114610b2557600080fd5b600181811c90821680610b9b57607f821691505b60208210811415610bbc57634e487b7160e01b600052602260045260246000fd5b50919050565b600060208284031215610bd457600080fd5b8151610b4d8161097e565b6020808252600a908201526924a72b2fa1a0a62622a960b11b604082015260600190565b6020808252602b908201527f496e697469616c697a61626c653a20636f6e7472616374206973206e6f74206960408201526a6e697469616c697a696e6760a81b60608201526080019056fea2646970667358221220aca3f28c776edd20f4c8b723f550bb92b4eeb3b4b1a49fe1ef04d2a5f281a32664736f6c634300080c0033",
  "linkReferences": {},
  "deployedLinkReferences": {}
}