{
  "_format": "hh-sol-artifact-1",
  "contractName": "Ordinals",
  "sourceName": "contracts/services/Ordinals.sol",
  "abi": [
    {
      "anonymous": false,
      "inputs": [
        {
          "indexed": false,
          "internalType": "uint8",
          "name": "version",
          "type": "uint8"
        }
      ],
      "name": "Initialized",
      "type": "event"
    },
    {
      "anonymous": false,
      "inputs": [
        {
          "indexed": true,
          "internalType": "address",
          "name": "previousOwner",
          "type": "address"
        },
        {
          "indexed": true,
          "internalType": "address",
          "name": "newOwner",
          "type": "address"
        }
      ],
      "name": "OwnershipTransferred",
      "type": "event"
    },
    {
      "inputs": [],
      "name": "_admin",
      "outputs": [
        {
          "internalType": "address",
          "name": "",
          "type": "address"
        }
      ],
      "stateMutability": "view",
      "type": "function"
    },
    {
      "inputs": [
        {
          "internalType": "address",
          "name": "",
          "type": "address"
        }
      ],
      "name": "_caller",
      "outputs": [
        {
          "internalType": "bool",
          "name": "",
          "type": "bool"
        }
      ],
      "stateMutability": "view",
      "type": "function"
    },
    {
      "inputs": [
        {
          "internalType": "address",
          "name": "",
          "type": "address"
        },
        {
          "internalType": "uint256",
          "name": "",
          "type": "uint256"
        }
      ],
      "name": "_inscription",
      "outputs": [
        {
          "internalType": "string",
          "name": "",
          "type": "string"
        }
      ],
      "stateMutability": "view",
      "type": "function"
    },
    {
      "inputs": [],
      "name": "_parameterAddr",
      "outputs": [
        {
          "internalType": "address",
          "name": "",
          "type": "address"
        }
      ],
      "stateMutability": "view",
      "type": "function"
    },
    {
      "inputs": [
        {
          "internalType": "address",
          "name": "newAdm",
          "type": "address"
        }
      ],
      "name": "changeAdmin",
      "outputs": [],
      "stateMutability": "nonpayable",
      "type": "function"
    },
    {
      "inputs": [
        {
          "internalType": "address",
          "name": "newAdm",
          "type": "address"
        }
      ],
      "name": "changeParam",
      "outputs": [],
      "stateMutability": "nonpayable",
      "type": "function"
    },
    {
      "inputs": [
        {
          "internalType": "address",
          "name": "admin",
          "type": "address"
        },
        {
          "internalType": "address",
          "name": "parameterControl",
          "type": "address"
        }
      ],
      "name": "initialize",
      "outputs": [],
      "stateMutability": "nonpayable",
      "type": "function"
    },
    {
      "inputs": [],
      "name": "owner",
      "outputs": [
        {
          "internalType": "address",
          "name": "",
          "type": "address"
        }
      ],
      "stateMutability": "view",
      "type": "function"
    },
    {
      "inputs": [],
      "name": "renounceOwnership",
      "outputs": [],
      "stateMutability": "nonpayable",
      "type": "function"
    },
    {
      "inputs": [
        {
          "internalType": "address",
          "name": "caller",
          "type": "address"
        },
        {
          "internalType": "bool",
          "name": "approved",
          "type": "bool"
        }
      ],
      "name": "setCaller",
      "outputs": [],
      "stateMutability": "nonpayable",
      "type": "function"
    },
    {
      "inputs": [
        {
          "internalType": "address",
          "name": "coll",
          "type": "address"
        },
        {
          "internalType": "uint256",
          "name": "tokenId",
          "type": "uint256"
        },
        {
          "internalType": "string",
          "name": "inscriptionId",
          "type": "string"
        }
      ],
      "name": "setInscription",
      "outputs": [],
      "stateMutability": "nonpayable",
      "type": "function"
    },
    {
      "inputs": [
        {
          "internalType": "address",
          "name": "newOwner",
          "type": "address"
        }
      ],
      "name": "transferOwnership",
      "outputs": [],
      "stateMutability": "nonpayable",
      "type": "function"
    }
  ],
  "bytecode": "0x608060405234801561001057600080fd5b50610c2d806100206000396000f3fe608060405234801561001057600080fd5b50600436106100b45760003560e01c806372c20ba41161007157806372c20ba41461014c578063741149b11461017f5780638da5cb5b146101925780638f283970146101a35780639cae6eae146101b6578063f2fde38b146101c957600080fd5b806301bc45c9146100b95780631389d3b4146100e957806332524dce146100fe578063485cc9551461011e578063715018a61461013157806372c035cf14610139575b600080fd5b6065546100cc906001600160a01b031681565b6040516001600160a01b0390911681526020015b60405180910390f35b6100fc6100f7366004610976565b6101dc565b005b61011161010c366004610a43565b61035e565b6040516100e09190610a6f565b6100fc61012c366004610ac4565b610403565b6100fc610588565b6066546100cc906001600160a01b031681565b61016f61015a366004610afd565b60676020526000908152604090205460ff1681565b60405190151581526020016100e0565b6100fc61018d366004610afd565b61059c565b6033546001600160a01b03166100cc565b6100fc6101b1366004610afd565b61062d565b6100fc6101c4366004610b21565b6106bf565b6100fc6101d7366004610afd565b610731565b6001600160a01b03831660009081526068602090815260408083208584529091529020805461020a90610b54565b1590506102475760405162461bcd60e51b8152602060048201526006602482015265444f55424c4560d01b60448201526064015b60405180910390fd5b6040516331a9108f60e11b815260048101839052839033906001600160a01b03831690636352211e90602401602060405180830381865afa158015610290573d6000803e3d6000fd5b505050506040513d601f19601f820116820180604052508101906102b49190610b8f565b6001600160a01b031614806102d857503360009081526067602052604090205460ff165b806102ed57506065546001600160a01b031633145b6103265760405162461bcd60e51b815260206004820152600a60248201526924a72b2fa1a0a62622a960b11b604482015260640161023e565b6001600160a01b038416600090815260686020908152604080832086845282529091208351610357928501906108b2565b5050505050565b60686020908152600092835260408084209091529082529020805461038290610b54565b80601f01602080910402602001604051908101604052809291908181526020018280546103ae90610b54565b80156103fb5780601f106103d0576101008083540402835291602001916103fb565b820191906000526020600020905b8154815290600101906020018083116103de57829003601f168201915b505050505081565b600054610100900460ff16158080156104235750600054600160ff909116105b8061043d5750303b15801561043d575060005460ff166001145b6104a05760405162461bcd60e51b815260206004820152602e60248201527f496e697469616c697a61626c653a20636f6e747261637420697320616c72656160448201526d191e481a5b9a5d1a585b1a5e995960921b606482015260840161023e565b6000805460ff1916600117905580156104c3576000805461ff0019166101001790555b60408051808201909152600381526203130360ec1b60208201526001600160a01b0384166105045760405162461bcd60e51b815260040161023e9190610a6f565b50606580546001600160a01b038086166001600160a01b031992831617909255606680549285169290911691909117905561053d6107a7565b8015610583576000805461ff0019169055604051600181527f7f26b83ff96e1f2b6a682f133852f6798a09c465da95921460cefb38474024989060200160405180910390a15b505050565b6105906107d6565b61059a6000610830565b565b6065546001600160a01b0316331480156105be57506001600160a01b03811615155b6040518060400160405280600381526020016231303160e81b815250906105f85760405162461bcd60e51b815260040161023e9190610a6f565b506066546001600160a01b0382811691161461062a57606680546001600160a01b0319166001600160a01b0383161790555b50565b6065546001600160a01b03163314801561064f57506001600160a01b03811615155b6040518060400160405280600381526020016231303160e81b815250906106895760405162461bcd60e51b815260040161023e9190610a6f565b506065546001600160a01b0382811691161461062a57606580546001600160a01b0383166001600160a01b031990911617905550565b6065546001600160a01b031633146107065760405162461bcd60e51b815260206004820152600a60248201526924a72b2fa1a0a62622a960b11b604482015260640161023e565b6001600160a01b03919091166000908152606760205260409020805460ff1916911515919091179055565b6107396107d6565b6001600160a01b03811661079e5760405162461bcd60e51b815260206004820152602660248201527f4f776e61626c653a206e6577206f776e657220697320746865207a65726f206160448201526564647265737360d01b606482015260840161023e565b61062a81610830565b600054610100900460ff166107ce5760405162461bcd60e51b815260040161023e90610bac565b61059a610882565b6033546001600160a01b0316331461059a5760405162461bcd60e51b815260206004820181905260248201527f4f776e61626c653a2063616c6c6572206973206e6f7420746865206f776e6572604482015260640161023e565b603380546001600160a01b038381166001600160a01b0319831681179093556040519116919082907f8be0079c531659141344cd1fd0a4f28419497f9722a3daafe3b4186f6b6457e090600090a35050565b600054610100900460ff166108a95760405162461bcd60e51b815260040161023e90610bac565b61059a33610830565b8280546108be90610b54565b90600052602060002090601f0160209004810192826108e05760008555610926565b82601f106108f957805160ff1916838001178555610926565b82800160010185558215610926579182015b8281111561092657825182559160200191906001019061090b565b50610932929150610936565b5090565b5b808211156109325760008155600101610937565b6001600160a01b038116811461062a57600080fd5b634e487b7160e01b600052604160045260246000fd5b60008060006060848603121561098b57600080fd5b83356109968161094b565b925060208401359150604084013567ffffffffffffffff808211156109ba57600080fd5b818601915086601f8301126109ce57600080fd5b8135818111156109e0576109e0610960565b604051601f8201601f19908116603f01168101908382118183101715610a0857610a08610960565b81604052828152896020848701011115610a2157600080fd5b8260208601602083013760006020848301015280955050505050509250925092565b60008060408385031215610a5657600080fd5b8235610a618161094b565b946020939093013593505050565b600060208083528351808285015260005b81811015610a9c57858101830151858201604001528201610a80565b81811115610aae576000604083870101525b50601f01601f1916929092016040019392505050565b60008060408385031215610ad757600080fd5b8235610ae28161094b565b91506020830135610af28161094b565b809150509250929050565b600060208284031215610b0f57600080fd5b8135610b1a8161094b565b9392505050565b60008060408385031215610b3457600080fd5b8235610b3f8161094b565b915060208301358015158114610af257600080fd5b600181811c90821680610b6857607f821691505b60208210811415610b8957634e487b7160e01b600052602260045260246000fd5b50919050565b600060208284031215610ba157600080fd5b8151610b1a8161094b565b6020808252602b908201527f496e697469616c697a61626c653a20636f6e7472616374206973206e6f74206960408201526a6e697469616c697a696e6760a81b60608201526080019056fea2646970667358221220fe1c15ab75397ec5a71183ccd2f5b6a4af12ef3cf35c7128b7ff5f9f7ef3384c64736f6c634300080c0033",
  "linkReferences": {},
  "deployedLinkReferences": {}
}