{"contracts/nfts/GenerativeNFT.sol":{"GenerativeNFT":{"abi":[{"inputs":[{"internalType":"string","name":"name","type":"string"},{"internalType":"string","name":"symbol","type":"string"}],"stateMutability":"nonpayable","type":"constructor"},{"inputs":[{"internalType":"address","name":"operator","type":"address"}],"name":"OperatorNotAllowed","type":"error"},{"anonymous":false,"inputs":[{"indexed":true,"internalType":"address","name":"owner","type":"address"},{"indexed":true,"internalType":"address","name":"approved","type":"address"},{"indexed":true,"internalType":"uint256","name":"tokenId","type":"uint256"}],"name":"Approval","type":"event"},{"anonymous":false,"inputs":[{"indexed":true,"internalType":"address","name":"owner","type":"address"},{"indexed":true,"internalType":"address","name":"operator","type":"address"},{"indexed":false,"internalType":"bool","name":"approved","type":"bool"}],"name":"ApprovalForAll","type":"event"},{"anonymous":false,"inputs":[{"indexed":true,"internalType":"address","name":"previousOwner","type":"address"},{"indexed":true,"internalType":"address","name":"newOwner","type":"address"}],"name":"OwnershipTransferred","type":"event"},{"anonymous":false,"inputs":[{"indexed":false,"internalType":"address","name":"account","type":"address"}],"name":"Paused","type":"event"},{"anonymous":false,"inputs":[{"indexed":true,"internalType":"address","name":"from","type":"address"},{"indexed":true,"internalType":"address","name":"to","type":"address"},{"indexed":true,"internalType":"uint256","name":"tokenId","type":"uint256"}],"name":"Transfer","type":"event"},{"anonymous":false,"inputs":[{"indexed":false,"internalType":"address","name":"account","type":"address"}],"name":"Unpaused","type":"event"},{"inputs":[],"name":"OPERATOR_FILTER_REGISTRY","outputs":[{"internalType":"contract IOperatorFilterRegistry","name":"","type":"address"}],"stateMutability":"view","type":"function"},{"inputs":[],"name":"_admin","outputs":[{"internalType":"address","name":"","type":"address"}],"stateMutability":"view","type":"function"},{"inputs":[],"name":"_nameCol","outputs":[{"internalType":"string","name":"","type":"string"}],"stateMutability":"view","type":"function"},{"inputs":[],"name":"_paramsAddress","outputs":[{"internalType":"address","name":"","type":"address"}],"stateMutability":"view","type":"function"},{"inputs":[],"name":"_project","outputs":[{"internalType":"address","name":"_projectAddr","type":"address"},{"internalType":"uint256","name":"_projectId","type":"uint256"},{"internalType":"uint24","name":"_maxSupply","type":"uint24"},{"internalType":"uint24","name":"_limit","type":"uint24"},{"internalType":"uint24","name":"_index","type":"uint24"},{"internalType":"uint24","name":"_indexReserve","type":"uint24"},{"internalType":"string","name":"_creator","type":"string"},{"internalType":"address","name":"_creatorAddr","type":"address"},{"internalType":"uint256","name":"_mintPrice","type":"uint256"},{"internalType":"address","name":"_mintPriceAddr","type":"address"},{"internalType":"string","name":"_name","type":"string"},{"components":[{"internalType":"uint256","name":"_initBlockTime","type":"uint256"},{"internalType":"uint256","name":"_openingTime","type":"uint256"}],"internalType":"struct NFTProject.ProjectMintingSchedule","name":"_mintingSchedule","type":"tuple"}],"stateMutability":"view","type":"function"},{"inputs":[],"name":"_projectDataContextAddr","outputs":[{"internalType":"address","name":"","type":"address"}],"stateMutability":"view","type":"function"},{"inputs":[],"name":"_randomizer","outputs":[{"internalType":"address","name":"","type":"address"}],"stateMutability":"view","type":"function"},{"inputs":[{"internalType":"address","name":"","type":"address"}],"name":"_reserves","outputs":[{"internalType":"bool","name":"","type":"bool"}],"stateMutability":"view","type":"function"},{"inputs":[],"name":"_symbolCol","outputs":[{"internalType":"string","name":"","type":"string"}],"stateMutability":"view","type":"function"},{"inputs":[{"internalType":"address","name":"to","type":"address"},{"internalType":"uint256","name":"tokenId","type":"uint256"}],"name":"approve","outputs":[],"stateMutability":"nonpayable","type":"function"},{"inputs":[{"internalType":"address","name":"owner","type":"address"}],"name":"balanceOf","outputs":[{"internalType":"uint256","name":"","type":"uint256"}],"stateMutability":"view","type":"function"},{"inputs":[{"internalType":"address","name":"newAdm","type":"address"}],"name":"changeAdmin","outputs":[],"stateMutability":"nonpayable","type":"function"},{"inputs":[{"internalType":"address","name":"newAddr","type":"address"}],"name":"changeDataContextAddr","outputs":[],"stateMutability":"nonpayable","type":"function"},{"inputs":[{"internalType":"address","name":"newAddr","type":"address"}],"name":"changeParamAddr","outputs":[],"stateMutability":"nonpayable","type":"function"},{"inputs":[{"internalType":"address","name":"newAddr","type":"address"}],"name":"changeRandomizerAddr","outputs":[],"stateMutability":"nonpayable","type":"function"},{"inputs":[{"internalType":"uint256","name":"tokenId","type":"uint256"}],"name":"getApproved","outputs":[{"internalType":"address","name":"","type":"address"}],"stateMutability":"view","type":"function"},{"inputs":[],"name":"getStatus","outputs":[{"internalType":"bool","name":"","type":"bool"}],"stateMutability":"view","type":"function"},{"inputs":[{"components":[{"internalType":"address","name":"_projectAddr","type":"address"},{"internalType":"uint256","name":"_projectId","type":"uint256"},{"internalType":"uint24","name":"_maxSupply","type":"uint24"},{"internalType":"uint24","name":"_limit","type":"uint24"},{"internalType":"uint24","name":"_index","type":"uint24"},{"internalType":"uint24","name":"_indexReserve","type":"uint24"},{"internalType":"string","name":"_creator","type":"string"},{"internalType":"address","name":"_creatorAddr","type":"address"},{"internalType":"uint256","name":"_mintPrice","type":"uint256"},{"internalType":"address","name":"_mintPriceAddr","type":"address"},{"internalType":"string","name":"_name","type":"string"},{"components":[{"internalType":"uint256","name":"_initBlockTime","type":"uint256"},{"internalType":"uint256","name":"_openingTime","type":"uint256"}],"internalType":"struct NFTProject.ProjectMintingSchedule","name":"_mintingSchedule","type":"tuple"}],"internalType":"struct NFTProject.ProjectMinting","name":"project","type":"tuple"},{"internalType":"address","name":"admin","type":"address"},{"internalType":"address","name":"paramsAddr","type":"address"},{"internalType":"address","name":"randomizer","type":"address"},{"internalType":"address","name":"projectDataContextAddr","type":"address"},{"internalType":"address[]","name":"reserves","type":"address[]"},{"internalType":"bool","name":"disable","type":"bool"}],"name":"init","outputs":[],"stateMutability":"nonpayable","type":"function"},{"inputs":[{"internalType":"address","name":"owner","type":"address"},{"internalType":"address","name":"operator","type":"address"}],"name":"isApprovedForAll","outputs":[{"internalType":"bool","name":"","type":"bool"}],"stateMutability":"view","type":"function"},{"inputs":[],"name":"mint","outputs":[{"internalType":"uint256","name":"tokenId","type":"uint256"}],"stateMutability":"payable","type":"function"},{"inputs":[],"name":"name","outputs":[{"internalType":"string","name":"","type":"string"}],"stateMutability":"view","type":"function"},{"inputs":[],"name":"owner","outputs":[{"internalType":"address","name":"","type":"address"}],"stateMutability":"view","type":"function"},{"inputs":[{"internalType":"uint256","name":"tokenId","type":"uint256"}],"name":"ownerOf","outputs":[{"internalType":"address","name":"","type":"address"}],"stateMutability":"view","type":"function"},{"inputs":[],"name":"paused","outputs":[{"internalType":"bool","name":"","type":"bool"}],"stateMutability":"view","type":"function"},{"inputs":[],"name":"renounceOwnership","outputs":[],"stateMutability":"nonpayable","type":"function"},{"inputs":[],"name":"reserveMint","outputs":[{"internalType":"uint256","name":"tokenId","type":"uint256"}],"stateMutability":"payable","type":"function"},{"inputs":[{"internalType":"uint256","name":"","type":"uint256"}],"name":"royalties","outputs":[{"internalType":"address","name":"recipient","type":"address"},{"internalType":"uint24","name":"amount","type":"uint24"},{"internalType":"bool","name":"isValue","type":"bool"}],"stateMutability":"view","type":"function"},{"inputs":[{"internalType":"uint256","name":"_tokenId","type":"uint256"},{"internalType":"uint256","name":"_salePrice","type":"uint256"}],"name":"royaltyInfo","outputs":[{"internalType":"address","name":"receiver","type":"address"},{"internalType":"uint256","name":"royaltyAmount","type":"uint256"}],"stateMutability":"view","type":"function"},{"inputs":[{"internalType":"address","name":"from","type":"address"},{"internalType":"address","name":"to","type":"address"},{"internalType":"uint256","name":"tokenId","type":"uint256"}],"name":"safeTransferFrom","outputs":[],"stateMutability":"nonpayable","type":"function"},{"inputs":[{"internalType":"address","name":"from","type":"address"},{"internalType":"address","name":"to","type":"address"},{"internalType":"uint256","name":"tokenId","type":"uint256"},{"internalType":"bytes","name":"data","type":"bytes"}],"name":"safeTransferFrom","outputs":[],"stateMutability":"nonpayable","type":"function"},{"inputs":[{"internalType":"address","name":"operator","type":"address"},{"internalType":"bool","name":"approved","type":"bool"}],"name":"setApprovalForAll","outputs":[],"stateMutability":"nonpayable","type":"function"},{"inputs":[{"internalType":"bool","name":"enable","type":"bool"}],"name":"setStatus","outputs":[],"stateMutability":"nonpayable","type":"function"},{"inputs":[{"internalType":"uint256","name":"_tokenId","type":"uint256"},{"internalType":"address","name":"_recipient","type":"address"},{"internalType":"uint256","name":"_value","type":"uint256"}],"name":"setTokenRoyalty","outputs":[],"stateMutability":"nonpayable","type":"function"},{"inputs":[{"internalType":"bytes4","name":"interfaceId","type":"bytes4"}],"name":"supportsInterface","outputs":[{"internalType":"bool","name":"","type":"bool"}],"stateMutability":"view","type":"function"},{"inputs":[],"name":"symbol","outputs":[{"internalType":"string","name":"","type":"string"}],"stateMutability":"view","type":"function"},{"inputs":[{"internalType":"uint256","name":"tokenId","type":"uint256"}],"name":"tokenGenerativeURI","outputs":[{"internalType":"string","name":"","type":"string"}],"stateMutability":"view","type":"function"},{"inputs":[{"internalType":"uint256","name":"tokenId","type":"uint256"}],"name":"tokenIdToHash","outputs":[{"internalType":"bytes32","name":"","type":"bytes32"}],"stateMutability":"view","type":"function"},{"inputs":[{"internalType":"uint256","name":"tokenId","type":"uint256"}],"name":"tokenURI","outputs":[{"internalType":"string","name":"","type":"string"}],"stateMutability":"view","type":"function"},{"inputs":[{"internalType":"address","name":"from","type":"address"},{"internalType":"address","name":"to","type":"address"},{"internalType":"uint256","name":"tokenId","type":"uint256"}],"name":"transferFrom","outputs":[],"stateMutability":"nonpayable","type":"function"},{"inputs":[{"internalType":"address","name":"newOwner","type":"address"}],"name":"transferOwnership","outputs":[],"stateMutability":"nonpayable","type":"function"}],"evm":{"bytecode":{"linkReferences":{},"object":"60806040523480156200001157600080fd5b5060405162004023380380620040238339810160408190526200003491620003b0565b733cc6cdda760b79bafa08df41ecfa224f810dceb66001838381818160009080519060200190620000679291906200023d565b5080516200007d9060019060208401906200023d565b50506006805460ff191690555060016007556200009a33620001eb565b50506daaeb6d7670e522a718067333cd4e3b15620001e15780156200012f57604051633e9f1edf60e11b81523060048201526001600160a01b03831660248201526daaeb6d7670e522a718067333cd4e90637d3e3dbe906044015b600060405180830381600087803b1580156200011057600080fd5b505af115801562000125573d6000803e3d6000fd5b50505050620001e1565b6001600160a01b03821615620001805760405163a0af290360e01b81523060048201526001600160a01b03831660248201526daaeb6d7670e522a718067333cd4e9063a0af290390604401620000f5565b604051632210724360e11b81523060048201526daaeb6d7670e522a718067333cd4e90634420e48690602401600060405180830381600087803b158015620001c757600080fd5b505af1158015620001dc573d6000803e3d6000fd5b505050505b5050505062000457565b600880546001600160a01b038381166001600160a01b0319831681179093556040519116919082907f8be0079c531659141344cd1fd0a4f28419497f9722a3daafe3b4186f6b6457e090600090a35050565b8280546200024b906200041a565b90600052602060002090601f0160209004810192826200026f5760008555620002ba565b82601f106200028a57805160ff1916838001178555620002ba565b82800160010185558215620002ba579182015b82811115620002ba5782518255916020019190600101906200029d565b50620002c8929150620002cc565b5090565b5b80821115620002c85760008155600101620002cd565b634e487b7160e01b600052604160045260246000fd5b600082601f8301126200030b57600080fd5b81516001600160401b0380821115620003285762000328620002e3565b604051601f8301601f19908116603f01168101908282118183101715620003535762000353620002e3565b816040528381526020925086838588010111156200037057600080fd5b600091505b8382101562000394578582018301518183018401529082019062000375565b83821115620003a65760008385830101525b9695505050505050565b60008060408385031215620003c457600080fd5b82516001600160401b0380821115620003dc57600080fd5b620003ea86838701620002f9565b935060208501519150808211156200040157600080fd5b506200041085828601620002f9565b9150509250929050565b600181811c908216806200042f57607f821691505b602082108114156200045157634e487b7160e01b600052602260045260246000fd5b50919050565b613bbc80620004676000396000f3fe60806040526004361061023b5760003560e01c8063621a1f741161012e578063a22cb465116100ab578063e42b6ccd1161006f578063e42b6ccd1461071c578063e985e9c51461073c578063f2fde38b14610785578063febfd6c3146107a5578063ffc27c0e146107c557600080fd5b8063a22cb4651461066c578063ac4fb5f41461068c578063adfc7dae146106bc578063b88d4fde146106dc578063c87b56dd146106fc57600080fd5b80637f77f574116100f25780637f77f5741461057f5780638da5cb5b146105f95780638f2839701461061757806395d89b41146106375780639713c8071461064c57600080fd5b8063621a1f74146104c75780636352211e146104e757806370a082311461051d578063715018a61461053d578063775bff9f1461055257600080fd5b80632a55205a116101bc578063472f1e0211610180578063472f1e021461043a5780634e69d5601461045a578063575b57ea1461046f5780635c40f6f41461048f5780635c975abb146104af57600080fd5b80632a55205a1461038f57806336a0a6cb146103ce57806341f43434146103e357806342842e0e14610405578063452fa3d31461042557600080fd5b806310da88c51161020357806310da88c5146103115780631249c58b146103315780631ca9741b1461034757806321c8d6761461036757806323b872dd1461036f57600080fd5b806301bc45c91461024057806301ffc9a71461027d57806306fdde03146102ad578063081812fc146102cf578063095ea7b3146102ef575b600080fd5b34801561024c57600080fd5b50600a54610260906001600160a01b031681565b6040516001600160a01b0390911681526020015b60405180910390f35b34801561028957600080fd5b5061029d61029836600461313a565b6107e5565b6040519015158152602001610274565b3480156102b957600080fd5b506102c2610837565b60405161027491906131b6565b3480156102db57600080fd5b506102606102ea3660046131c9565b6108c9565b3480156102fb57600080fd5b5061030f61030a366004613207565b6108f0565b005b34801561031d57600080fd5b506102c261032c3660046131c9565b610a0b565b610339610b4e565b604051908152602001610274565b34801561035357600080fd5b5061030f610362366004613233565b610d9a565b610339610e2b565b34801561037b57600080fd5b5061030f61038a366004613250565b611165565b34801561039b57600080fd5b506103af6103aa366004613291565b611190565b604080516001600160a01b039093168352602083019190915201610274565b3480156103da57600080fd5b506102c26111a8565b3480156103ef57600080fd5b506102606daaeb6d7670e522a718067333cd4e81565b34801561041157600080fd5b5061030f610420366004613250565b611236565b34801561043157600080fd5b506102c261125b565b34801561044657600080fd5b5061030f610455366004613233565b611268565b34801561046657600080fd5b5061029d6112fa565b34801561047b57600080fd5b50600d54610260906001600160a01b031681565b34801561049b57600080fd5b5061030f6104aa3660046132cc565b61130e565b3480156104bb57600080fd5b5060065460ff1661029d565b3480156104d357600080fd5b506103396104e23660046131c9565b611375565b3480156104f357600080fd5b506102606105023660046131c9565b6000908152600960205260409020546001600160a01b031690565b34801561052957600080fd5b50610339610538366004613233565b611441565b34801561054957600080fd5b5061030f6114c7565b34801561055e57600080fd5b506105676114db565b6040516102749c9b9a999897969594939291906132e9565b34801561058b57600080fd5b506105ce61059a3660046131c9565b6010602052600090815260409020546001600160a01b03811690600160a01b810462ffffff1690600160b81b900460ff1683565b604080516001600160a01b03909416845262ffffff9092166020840152151590820152606001610274565b34801561060557600080fd5b50600a546001600160a01b0316610260565b34801561062357600080fd5b5061030f610632366004613233565b61167e565b34801561064357600080fd5b506102c2611710565b34801561065857600080fd5b5061030f6106673660046133a6565b61171f565b34801561067857600080fd5b5061030f6106873660046133cd565b6117ed565b34801561069857600080fd5b5061029d6106a7366004613233565b601b6020526000908152604090205460ff1681565b3480156106c857600080fd5b50600b54610260906001600160a01b031681565b3480156106e857600080fd5b5061030f6106f73660046134dd565b6117fc565b34801561070857600080fd5b506102c26107173660046131c9565b611829565b34801561072857600080fd5b5061030f610737366004613668565b611923565b34801561074857600080fd5b5061029d610757366004613814565b6001600160a01b03918216600090815260056020908152604080832093909416825291909152205460ff1690565b34801561079157600080fd5b5061030f6107a0366004613233565b611c8e565b3480156107b157600080fd5b5061030f6107c0366004613233565b611d04565b3480156107d157600080fd5b50600c54610260906001600160a01b031681565b60006001600160e01b031982166380ac58cd60e01b148061081657506001600160e01b03198216635b5e139f60e01b145b8061083157506301ffc9a760e01b6001600160e01b03198316145b92915050565b6060600e805461084690613842565b80601f016020809104026020016040519081016040528092919081815260200182805461087290613842565b80156108bf5780601f10610894576101008083540402835291602001916108bf565b820191906000526020600020905b8154815290600101906020018083116108a257829003601f168201915b5050505050905090565b60006108d482611d96565b506000908152600460205260409020546001600160a01b031690565b60006108fb82611de6565b9050806001600160a01b0316836001600160a01b0316141561096e5760405162461bcd60e51b815260206004820152602160248201527f4552433732313a20617070726f76616c20746f2063757272656e74206f776e656044820152603960f91b60648201526084015b60405180910390fd5b336001600160a01b038216148061098a575061098a8133610757565b6109fc5760405162461bcd60e51b815260206004820152603d60248201527f4552433732313a20617070726f76652063616c6c6572206973206e6f7420746f60448201527f6b656e206f776e6572206f7220617070726f76656420666f7220616c6c0000006064820152608401610965565b610a068383611e46565b505050565b6060610a1682611eb4565b6040518060400160405280600381526020016232303960e81b81525090610a505760405162461bcd60e51b815260040161096591906131b6565b50600d5460405163188687dd60e21b8152600481018490526001600160a01b0390911690600090309063621a1f7490602401602060405180830381865afa158015610a9f573d6000803e3d6000fd5b505050506040513d601f19601f82011682018060405250810190610ac3919061387d565b601254604051639413930160e01b8152600481019190915260248101869052604481018290529091506001600160a01b038316906394139301906064015b600060405180830381865afa158015610b1e573d6000803e3d6000fd5b505050506040513d6000823e601f3d908101601f19168201604052610b469190810190613896565b949350505050565b6000610b58611ed1565b601a5415610b9f57601a5460408051808201909152600381526206460760eb1b6020820152904211610b9d5760405162461bcd60e51b815260040161096591906131b6565b505b60138054600160301b900462ffffff16906006610bbb83613923565b82546101009290920a62ffffff818102199093169183160217909155601354630100000081048216600160301b90910490911611159050610bfb57600080fd5b60135462ffffff80821691610c2191600160481b8204811691600160301b900416613946565b62ffffff161415610c9257601154601254604051631122f8a960e11b815260048101919091526001600160a01b03909116908190632245f15290602401600060405180830381600087803b158015610c7857600080fd5b505af1158015610c8c573d6000803e3d6000fd5b50505050505b601354601254600160301b90910462ffffff1690610cb490620f42409061396d565b610cbe919061398c565b9050610cca3382611f2b565b600c54604051631da00d8560e01b8152600481018390526001600160a01b03909116906000908290631da00d85906024016020604051808303816000875af1158015610d1a573d6000803e3d6000fd5b505050506040513d601f19601f82011682018060405250810190610d3e919061387d565b9050610d4a8382611f45565b610d5261200e565b60408051338152602081018590527f0f6798a560793a54c3bcfe86a93cde1e73087d944c0ea20544137d4121396885910160405180910390a15050610d976001600755565b90565b600a546001600160a01b031633148015610dbc57506001600160a01b03811615155b6040518060400160405280600381526020016231303160e81b81525090610df65760405162461bcd60e51b815260040161096591906131b6565b50600c546001600160a01b03828116911614610e2857600c80546001600160a01b0319166001600160a01b0383161790555b50565b6000610e35611ed1565b60138054600160481b900462ffffff16906009610e5183613923565b82546101009290920a62ffffff8181021990931691831602179091556013548082169250610e909163010000008204811691600160481b900416613946565b62ffffff161115610ea057600080fd5b60135462ffffff80821691610ec691600160481b8204811691600160301b900416613946565b62ffffff161415610f3757601154601254604051631122f8a960e11b815260048101919091526001600160a01b03909116908190632245f15290602401600060405180830381600087803b158015610f1d57600080fd5b505af1158015610f31573d6000803e3d6000fd5b50505050505b601154336000908152601b60205260409020546001600160a01b039091169060ff1680610fe157506012546040516331a9108f60e11b815260048101919091526001600160a01b03821690636352211e90602401602060405180830381865afa158015610fa8573d6000803e3d6000fd5b505050506040513d601f19601f82011682018060405250810190610fcc91906139a4565b6001600160a01b0316336001600160a01b0316145b610fea57600080fd5b336000908152601b602052604090205460ff16801561100a5750601a5415155b1561104e57601a5460408051808201909152600381526206460760eb1b602082015290421161104c5760405162461bcd60e51b815260040161096591906131b6565b505b6013546110709062ffffff63010000008204811691600160481b900416613946565b62ffffff16620f4240601160010154611089919061396d565b611093919061398c565b915061109f3383611f2b565b600c54604051631da00d8560e01b8152600481018490526001600160a01b03909116906000908290631da00d85906024016020604051808303816000875af11580156110ef573d6000803e3d6000fd5b505050506040513d601f19601f82011682018060405250810190611113919061387d565b905061111f8482611f45565b60408051338152602081018690527f0f6798a560793a54c3bcfe86a93cde1e73087d944c0ea20544137d4121396885910160405180910390a1505050610d976001600755565b826001600160a01b038116331461117f5761117f33612487565b61118a848484612540565b50505050565b60008061119d8484612571565b915091509250929050565b600f80546111b590613842565b80601f01602080910402602001604051908101604052809291908181526020018280546111e190613842565b801561122e5780601f106112035761010080835404028352916020019161122e565b820191906000526020600020905b81548152906001019060200180831161121157829003601f168201915b505050505081565b826001600160a01b03811633146112505761125033612487565b61118a84848461260d565b600e80546111b590613842565b600a546001600160a01b03163314801561128a57506001600160a01b03811615155b6040518060400160405280600381526020016231303160e81b815250906112c45760405162461bcd60e51b815260040161096591906131b6565b50600d546001600160a01b03828116911614610e2857600d80546001600160a01b0383166001600160a01b031990911617905550565b600061130860065460ff1690565b15905090565b600a546001600160a01b031633148061133157506011546001600160a01b031633145b6040518060400160405280600381526020016231303160e81b8152509061136b5760405162461bcd60e51b815260040161096591906131b6565b50610e2881612628565b600061138082611eb4565b6040518060400160405280600381526020016232303960e81b815250906113ba5760405162461bcd60e51b815260040161096591906131b6565b50600082815260096020526040902054600160a01b900460a01b6001600160a01b0319166113ea57506000919050565b60008281526009602090815260409182902054915161142492600160a01b900460a01b91016001600160a01b031991909116815260200190565b604051602081830303815290604052805190602001209050919050565b60006001600160a01b0382166114ab5760405162461bcd60e51b815260206004820152602960248201527f4552433732313a2061646472657373207a65726f206973206e6f7420612076616044820152683634b21037bbb732b960b91b6064820152608401610965565b506001600160a01b031660009081526003602052604090205490565b6114cf61263e565b6114d960006126bc565b565b60118054601254601354601480546001600160a01b0390941694929362ffffff8084169463010000008504821694600160301b8104831694600160481b9091049092169290919061152b90613842565b80601f016020809104026020016040519081016040528092919081815260200182805461155790613842565b80156115a45780601f10611579576101008083540402835291602001916115a4565b820191906000526020600020905b81548152906001019060200180831161158757829003601f168201915b5050505060048301546005840154600685015460078601805495966001600160a01b03948516969395509390911692916115dd90613842565b80601f016020809104026020016040519081016040528092919081815260200182805461160990613842565b80156116565780601f1061162b57610100808354040283529160200191611656565b820191906000526020600020905b81548152906001019060200180831161163957829003601f168201915b50506040805180820190915260088601548152600990950154602086015250919291508d9050565b600a546001600160a01b0316331480156116a057506001600160a01b03811615155b6040518060400160405280600381526020016231303160e81b815250906116da5760405162461bcd60e51b815260040161096591906131b6565b50600a546001600160a01b03828116911614610e2857600a80546001600160a01b0383166001600160a01b031990911617905550565b6060600f805461084690613842565b600a546001600160a01b0316331461173657600080fd5b60408051808201909152600381526232303560e81b60208201526127108211156117735760405162461bcd60e51b815260040161096591906131b6565b50604080516060810182526001600160a01b03938416815262ffffff928316602080830191825260018385019081526000978852601090915292909520905181549551925194166001600160b81b031990951694909417600160a01b91909216021760ff60b81b1916600160b81b91151591909102179055565b6117f833838361270e565b5050565b836001600160a01b03811633146118165761181633612487565b611822858585856127dd565b5050505050565b606061183482611eb4565b6040518060400160405280600381526020016232303960e81b8152509061186e5760405162461bcd60e51b815260040161096591906131b6565b50600d5460405163188687dd60e21b8152600481018490526001600160a01b0390911690600090309063621a1f7490602401602060405180830381865afa1580156118bd573d6000803e3d6000fd5b505050506040513d601f19601f820116820180604052508101906118e1919061387d565b6012546040516308dd54e960e31b8152600481019190915260248101869052604481018290529091506001600160a01b038316906346eaa74890606401610b01565b600a5460408051808201909152600381526219181960e91b6020820152906001600160a01b0316156119685760405162461bcd60e51b815260040161096591906131b6565b5060408051808201909152600381526203130360ec1b60208201526001600160a01b0387166119aa5760405162461bcd60e51b815260040161096591906131b6565b508651601180546001600160a01b039092166001600160a01b031990921691909117815560208089015160125560408901516013805460608c015160808d015160a08e015162ffffff908116600160481b026bffffff00000000000000000019928216600160301b02929092166bffffffffffff0000000000001993821663010000000265ffffffffffff19909516919096161792909217169290921791909117905560c089015180518a9392611a669260149291019061308b565b5060e08201516004820180546001600160a01b039283166001600160a01b03199182161790915561010084015160058401556101208401516006840180549190931691161790556101408201518051611ac991600784019160209091019061308b565b50610160919091015180516008830155602090810151600990920191909155600b80546001600160a01b038089166001600160a01b031992831617909255600a80548a8416908316179055600c8054888416908316179055600d8054928716929091169190911790556101408801518051611b4892600e92019061308b565b50611be060016003600e8054611b5d90613842565b80601f0160208091040260200160405190810160405280929190818152602001828054611b8990613842565b8015611bd65780601f10611bab57610100808354040283529160200191611bd6565b820191906000526020600020905b815481529060010190602001808311611bb957829003601f168201915b505050505061280f565b8051611bf491600f9160209091019061308b565b5060005b8251811015611c5d576001601b6000858481518110611c1957611c196139c1565b6020908102919091018101516001600160a01b03168252810191909152604001600020805460ff191691151591909117905580611c55816139d7565b915050611bf8565b50600a54611c73906001600160a01b0316611c8e565b8015611c8157611c816128f6565b5050426019555050505050565b611c9661263e565b6001600160a01b038116611cfb5760405162461bcd60e51b815260206004820152602660248201527f4f776e61626c653a206e6577206f776e657220697320746865207a65726f206160448201526564647265737360d01b6064820152608401610965565b610e28816126bc565b600a546001600160a01b031633148015611d2657506001600160a01b03811615155b6040518060400160405280600381526020016231303160e81b81525090611d605760405162461bcd60e51b815260040161096591906131b6565b50600b546001600160a01b03828116911614610e2857600b80546001600160a01b0383166001600160a01b031990911617905550565b611d9f81611eb4565b610e285760405162461bcd60e51b8152602060048201526018602482015277115490cdcc8c4e881a5b9d985b1a59081d1bdad95b88125160421b6044820152606401610965565b6000818152600260205260408120546001600160a01b0316806108315760405162461bcd60e51b8152602060048201526018602482015277115490cdcc8c4e881a5b9d985b1a59081d1bdad95b88125160421b6044820152606401610965565b600081815260046020526040902080546001600160a01b0319166001600160a01b0384169081179091558190611e7b82611de6565b6001600160a01b03167f8c5be1e5ebec7d5bd14f71427d1e84f3dd0314c0f7b2291e5b200ac8c7c3b92560405160405180910390a45050565b6000908152600960205260409020546001600160a01b0316151590565b60026007541415611f245760405162461bcd60e51b815260206004820152601f60248201527f5265656e7472616e637947756172643a207265656e7472616e742063616c6c006044820152606401610965565b6002600755565b6117f8828260405180602001604052806000815250612950565b600082815260096020908152604091829020548251808401909352600383526219181b60e91b91830191909152600160a01b900460a01b6001600160a01b03191615611fa45760405162461bcd60e51b815260040161096591906131b6565b5060408051808201909152600381526232303760e81b602082015281611fdd5760405162461bcd60e51b815260040161096591906131b6565b50600091825260096020526040909120805460a09290921c600160a01b026001600160a01b03909216919091179055565b601654806120195750565b601154600b546000916001600160a01b0390811691166101f481156120d15760408051808201825260158152744d494e545f4e46545f4f50455241544f525f46454560581b60208201529051636d12dce160e01b81526001600160a01b03841691636d12dce19161208d91906004016131b6565b602060405180830381865afa1580156120aa573d6000803e3d6000fd5b505050506040513d601f19601f820116820180604052508101906120ce919061387d565b90505b6001600160a01b03841661224857843410156120ec57600080fd5b6012546040516331a9108f60e11b81526000916001600160a01b03861691636352211e916121209160040190815260200190565b602060405180830381865afa15801561213d573d6000803e3d6000fd5b505050506040513d601f19601f8201168201806040525081019061216191906139a4565b6001600160a01b0316612710612177848961396d565b61218191906139f2565b61218b9088613a14565b604051600081818185875af1925050503d80600081146121c7576040519150601f19603f3d011682016040523d82523d6000602084013e6121cc565b606091505b50509050806121da57600080fd5b600a546001600160a01b03166127106121f3848961396d565b6121fd91906139f2565b604051600081818185875af1925050503d8060008114612239576040519150601f19603f3d011682016040523d82523d6000602084013e61223e565b606091505b5061182292505050565b6040516323b872dd60e01b81523360048201523060248201526044810186905284906001600160a01b038216906323b872dd906064016020604051808303816000875af115801561229d573d6000803e3d6000fd5b505050506040513d601f19601f820116820180604052508101906122c19190613a2b565b6122ca57600080fd5b6012546040516331a9108f60e11b815260048101919091526001600160a01b038281169163a9059cbb91871690636352211e90602401602060405180830381865afa15801561231d573d6000803e3d6000fd5b505050506040513d601f19601f8201168201806040525081019061234191906139a4565b61271061234e868b61396d565b61235891906139f2565b612362908a613a14565b6040516001600160e01b031960e085901b1681526001600160a01b03909216600483015260248201526044016020604051808303816000875af11580156123ad573d6000803e3d6000fd5b505050506040513d601f19601f820116820180604052508101906123d19190613a2b565b6123da57600080fd5b600a546001600160a01b038083169163a9059cbb91166127106123fd868b61396d565b61240791906139f2565b6040516001600160e01b031960e085901b1681526001600160a01b03909216600483015260248201526044016020604051808303816000875af1158015612452573d6000803e3d6000fd5b505050506040513d601f19601f820116820180604052508101906124769190613a2b565b61247f57600080fd5b505050505050565b6daaeb6d7670e522a718067333cd4e3b15610e2857604051633185c44d60e21b81523060048201526001600160a01b03821660248201526daaeb6d7670e522a718067333cd4e9063c617113490604401602060405180830381865afa1580156124f4573d6000803e3d6000fd5b505050506040513d601f19601f820116820180604052508101906125189190613a2b565b610e2857604051633b79c77360e21b81526001600160a01b0382166004820152602401610965565b61254a3382612983565b6125665760405162461bcd60e51b815260040161096590613a48565b610a06838383612a01565b6000828152601060209081526040808320815160608101835290546001600160a01b0381168252600160a01b810462ffffff1693820193909352600160b81b90920460ff16158015918301919091528291906125f55780516020820151909350612710906125e49062ffffff168661396d565b6125ee91906139f2565b9150612605565b6125ff8585612a3b565b90935091505b509250929050565b610a06838383604051806020016040528060008152506117fc565b801561263657610e28612a73565b610e286128f6565b33612651600a546001600160a01b031690565b6001600160a01b0316148061267057506011546001600160a01b031633145b6114d95760405162461bcd60e51b815260206004820181905260248201527f4f776e61626c653a2063616c6c6572206973206e6f7420746865206f776e65726044820152606401610965565b600880546001600160a01b038381166001600160a01b0319831681179093556040519116919082907f8be0079c531659141344cd1fd0a4f28419497f9722a3daafe3b4186f6b6457e090600090a35050565b816001600160a01b0316836001600160a01b031614156127705760405162461bcd60e51b815260206004820152601960248201527f4552433732313a20617070726f766520746f2063616c6c6572000000000000006044820152606401610965565b6001600160a01b03838116600081815260056020908152604080832094871680845294825291829020805460ff191686151590811790915591519182527f17307eab39ab6107e8899845ad3d59bd9653f200f220920489ca2b5937696c31910160405180910390a3505050565b6127e73383612983565b6128035760405162461bcd60e51b815260040161096590613a48565b61118a84848484612aac565b6060600061281d8585613a14565b61282890600161398c565b67ffffffffffffffff81111561284057612840613406565b6040519080825280601f01601f19166020018201604052801561286a576020820181803683370190505b50905060005b61287a8686613a14565b81116128ed5783600161288d888461398c565b6128979190613a14565b815181106128a7576128a76139c1565b602001015160f81c60f81b8282815181106128c4576128c46139c1565b60200101906001600160f81b031916908160001a905350806128e5816139d7565b915050612870565b50949350505050565b6128fe612adf565b6006805460ff191660011790557f62e78cea01bee320cd4e420270b5ea74000d11b0c9f74754ebdbfc544b05a2586129333390565b6040516001600160a01b03909116815260200160405180910390a1565b61295a8383612b25565b6129676000848484612b5d565b610a065760405162461bcd60e51b815260040161096590613a95565b60008061298f83611de6565b9050806001600160a01b0316846001600160a01b031614806129d657506001600160a01b0380821660009081526005602090815260408083209388168352929052205460ff165b80610b465750836001600160a01b03166129ef846108c9565b6001600160a01b031614949350505050565b612a0c838383612c5b565b600090815260096020526040902080546001600160a01b0319166001600160a01b039290921691909117905550565b600a5460009081906001600160a01b031681612710612a5c866101f461396d565b612a6691906139f2565b9196919550909350505050565b612a7b612dcc565b6006805460ff191690557f5db9ee0a495bf2e6ff9c91a7834c1ba4fdd244a5e8aa4e537bd38aeae4b073aa33612933565b612ab7848484612a01565b612ac384848484612b5d565b61118a5760405162461bcd60e51b815260040161096590613a95565b60065460ff16156114d95760405162461bcd60e51b815260206004820152601060248201526f14185d5cd8589b194e881c185d5cd95960821b6044820152606401610965565b612b2f8282612e15565b600090815260096020526040902080546001600160a01b0319166001600160a01b0392909216919091179055565b60006001600160a01b0384163b15612c5057604051630a85bd0160e11b81526001600160a01b0385169063150b7a0290612ba1903390899088908890600401613ae7565b6020604051808303816000875af1925050508015612bdc575060408051601f3d908101601f19168201909252612bd991810190613b24565b60015b612c36573d808015612c0a576040519150601f19603f3d011682016040523d82523d6000602084013e612c0f565b606091505b508051612c2e5760405162461bcd60e51b815260040161096590613a95565b805181602001fd5b6001600160e01b031916630a85bd0160e11b149050610b46565b506001949350505050565b826001600160a01b0316612c6e82611de6565b6001600160a01b031614612c945760405162461bcd60e51b815260040161096590613b41565b6001600160a01b038216612cf65760405162461bcd60e51b8152602060048201526024808201527f4552433732313a207472616e7366657220746f20746865207a65726f206164646044820152637265737360e01b6064820152608401610965565b612d038383836001612f90565b826001600160a01b0316612d1682611de6565b6001600160a01b031614612d3c5760405162461bcd60e51b815260040161096590613b41565b600081815260046020908152604080832080546001600160a01b03199081169091556001600160a01b0387811680865260038552838620805460001901905590871680865283862080546001019055868652600290945282852080549092168417909155905184937fddf252ad1be2c89b69c2b068fc378daa952ba7f163c4a11628f55a4df523b3ef91a4505050565b60065460ff166114d95760405162461bcd60e51b815260206004820152601460248201527314185d5cd8589b194e881b9bdd081c185d5cd95960621b6044820152606401610965565b6001600160a01b038216612e6b5760405162461bcd60e51b815260206004820181905260248201527f4552433732313a206d696e7420746f20746865207a65726f20616464726573736044820152606401610965565b612e7481611eb4565b15612ec15760405162461bcd60e51b815260206004820152601c60248201527f4552433732313a20746f6b656e20616c7265616479206d696e746564000000006044820152606401610965565b612ecf600083836001612f90565b612ed881611eb4565b15612f255760405162461bcd60e51b815260206004820152601c60248201527f4552433732313a20746f6b656e20616c7265616479206d696e746564000000006044820152606401610965565b6001600160a01b038216600081815260036020908152604080832080546001019055848352600290915280822080546001600160a01b0319168417905551839291907fddf252ad1be2c89b69c2b068fc378daa952ba7f163c4a11628f55a4df523b3ef908290a45050565b612f9c84848484613003565b60065460ff161561118a5760405162461bcd60e51b815260206004820152602b60248201527f4552433732315061757361626c653a20746f6b656e207472616e73666572207760448201526a1a1a5b19481c185d5cd95960aa1b6064820152608401610965565b600181111561118a576001600160a01b03841615613049576001600160a01b03841660009081526003602052604081208054839290613043908490613a14565b90915550505b6001600160a01b0383161561118a576001600160a01b0383166000908152600360205260408120805483929061308090849061398c565b909155505050505050565b82805461309790613842565b90600052602060002090601f0160209004810192826130b957600085556130ff565b82601f106130d257805160ff19168380011785556130ff565b828001600101855582156130ff579182015b828111156130ff5782518255916020019190600101906130e4565b5061310b92915061310f565b5090565b5b8082111561310b5760008155600101613110565b6001600160e01b031981168114610e2857600080fd5b60006020828403121561314c57600080fd5b813561315781613124565b9392505050565b60005b83811015613179578181015183820152602001613161565b8381111561118a5750506000910152565b600081518084526131a281602086016020860161315e565b601f01601f19169290920160200192915050565b602081526000613157602083018461318a565b6000602082840312156131db57600080fd5b5035919050565b6001600160a01b0381168114610e2857600080fd5b8035613202816131e2565b919050565b6000806040838503121561321a57600080fd5b8235613225816131e2565b946020939093013593505050565b60006020828403121561324557600080fd5b8135613157816131e2565b60008060006060848603121561326557600080fd5b8335613270816131e2565b92506020840135613280816131e2565b929592945050506040919091013590565b600080604083850312156132a457600080fd5b50508035926020909101359150565b8015158114610e2857600080fd5b8035613202816132b3565b6000602082840312156132de57600080fd5b8135613157816132b3565b6001600160a01b038d168152602081018c905262ffffff8b811660408301528a811660608301528981166080830152881660a08201526101a060c082018190526000906133388382018a61318a565b6001600160a01b03891660e08501529050866101008401526133666101208401876001600160a01b03169052565b828103610140840152613379818661318a565b8451610160850152602085015161018085015291506133959050565b9d9c50505050505050505050505050565b6000806000606084860312156133bb57600080fd5b833592506020840135613280816131e2565b600080604083850312156133e057600080fd5b82356133eb816131e2565b915060208301356133fb816132b3565b809150509250929050565b634e487b7160e01b600052604160045260246000fd5b604051610180810167ffffffffffffffff8111828210171561344057613440613406565b60405290565b604051601f8201601f1916810167ffffffffffffffff8111828210171561346f5761346f613406565b604052919050565b600067ffffffffffffffff82111561349157613491613406565b50601f01601f191660200190565b60006134b26134ad84613477565b613446565b90508281528383830111156134c657600080fd5b828260208301376000602084830101529392505050565b600080600080608085870312156134f357600080fd5b84356134fe816131e2565b9350602085013561350e816131e2565b925060408501359150606085013567ffffffffffffffff81111561353157600080fd5b8501601f8101871361354257600080fd5b6135518782356020840161349f565b91505092959194509250565b803562ffffff8116811461320257600080fd5b600082601f83011261358157600080fd5b6131578383356020850161349f565b6000604082840312156135a257600080fd5b6040516040810181811067ffffffffffffffff821117156135c5576135c5613406565b604052823581526020928301359281019290925250919050565b600082601f8301126135f057600080fd5b8135602067ffffffffffffffff82111561360c5761360c613406565b8160051b61361b828201613446565b928352848101820192828101908785111561363557600080fd5b83870192505b8483101561365d57823561364e816131e2565b8252918301919083019061363b565b979650505050505050565b600080600080600080600060e0888a03121561368357600080fd5b873567ffffffffffffffff8082111561369b57600080fd5b908901906101a0828c0312156136b057600080fd5b6136b861341c565b6136c1836131f7565b8152602083013560208201526136d96040840161355d565b60408201526136ea6060840161355d565b60608201526136fb6080840161355d565b608082015261370c60a0840161355d565b60a082015260c08301358281111561372357600080fd5b61372f8d828601613570565b60c08301525061374160e084016131f7565b60e0820152610100838101359082015261012061375f8185016131f7565b90820152610140838101358381111561377757600080fd5b6137838e828701613570565b8284015250506101606137988d828601613590565b9082015298506137aa60208b016131f7565b97506137b860408b016131f7565b96506137c660608b016131f7565b95506137d460808b016131f7565b945060a08a01359150808211156137ea57600080fd5b506137f78a828b016135df565b92505061380660c089016132c1565b905092959891949750929550565b6000806040838503121561382757600080fd5b8235613832816131e2565b915060208301356133fb816131e2565b600181811c9082168061385657607f821691505b6020821081141561387757634e487b7160e01b600052602260045260246000fd5b50919050565b60006020828403121561388f57600080fd5b5051919050565b6000602082840312156138a857600080fd5b815167ffffffffffffffff8111156138bf57600080fd5b8201601f810184136138d057600080fd5b80516138de6134ad82613477565b8181528560208385010111156138f357600080fd5b61390482602083016020860161315e565b95945050505050565b634e487b7160e01b600052601160045260246000fd5b600062ffffff8083168181141561393c5761393c61390d565b6001019392505050565b600062ffffff8083168185168083038211156139645761396461390d565b01949350505050565b60008160001904831182151516156139875761398761390d565b500290565b6000821982111561399f5761399f61390d565b500190565b6000602082840312156139b657600080fd5b8151613157816131e2565b634e487b7160e01b600052603260045260246000fd5b60006000198214156139eb576139eb61390d565b5060010190565b600082613a0f57634e487b7160e01b600052601260045260246000fd5b500490565b600082821015613a2657613a2661390d565b500390565b600060208284031215613a3d57600080fd5b8151613157816132b3565b6020808252602d908201527f4552433732313a2063616c6c6572206973206e6f7420746f6b656e206f776e6560408201526c1c881bdc88185c1c1c9bdd9959609a1b606082015260800190565b60208082526032908201527f4552433732313a207472616e7366657220746f206e6f6e20455243373231526560408201527131b2b4bb32b91034b6b83632b6b2b73a32b960711b606082015260800190565b6001600160a01b0385811682528416602082015260408101839052608060608201819052600090613b1a9083018461318a565b9695505050505050565b600060208284031215613b3657600080fd5b815161315781613124565b60208082526025908201527f4552433732313a207472616e736665722066726f6d20696e636f72726563742060408201526437bbb732b960d91b60608201526080019056fea2646970667358221220a2d3fa566c314cd0238d32a588aa1195933d68d1f55d0ecbb7d7d05e584eaa3064736f6c634300080c0033","opcodes":"PUSH1 0x80 PUSH1 0x40 MSTORE CALLVALUE DUP1 ISZERO PUSH3 0x11 JUMPI PUSH1 0x0 DUP1 REVERT JUMPDEST POP PUSH1 0x40 MLOAD PUSH3 0x4023 CODESIZE SUB DUP1 PUSH3 0x4023 DUP4 CODECOPY DUP2 ADD PUSH1 0x40 DUP2 SWAP1 MSTORE PUSH3 0x34 SWAP2 PUSH3 0x3B0 JUMP JUMPDEST PUSH20 0x3CC6CDDA760B79BAFA08DF41ECFA224F810DCEB6 PUSH1 0x1 DUP4 DUP4 DUP2 DUP2 DUP2 PUSH1 0x0 SWAP1 DUP1 MLOAD SWAP1 PUSH1 0x20 ADD SWAP1 PUSH3 0x67 SWAP3 SWAP2 SWAP1 PUSH3 0x23D JUMP JUMPDEST POP DUP1 MLOAD PUSH3 0x7D SWAP1 PUSH1 0x1 SWAP1 PUSH1 0x20 DUP5 ADD SWAP1 PUSH3 0x23D JUMP JUMPDEST POP POP PUSH1 0x6 DUP1 SLOAD PUSH1 0xFF NOT AND SWAP1 SSTORE POP PUSH1 0x1 PUSH1 0x7 SSTORE PUSH3 0x9A CALLER PUSH3 0x1EB JUMP JUMPDEST POP POP PUSH14 0xAAEB6D7670E522A718067333CD4E EXTCODESIZE ISZERO PUSH3 0x1E1 JUMPI DUP1 ISZERO PUSH3 0x12F JUMPI PUSH1 0x40 MLOAD PUSH4 0x3E9F1EDF PUSH1 0xE1 SHL DUP2 MSTORE ADDRESS PUSH1 0x4 DUP3 ADD MSTORE PUSH1 0x1 PUSH1 0x1 PUSH1 0xA0 SHL SUB DUP4 AND PUSH1 0x24 DUP3 ADD MSTORE PUSH14 0xAAEB6D7670E522A718067333CD4E SWAP1 PUSH4 0x7D3E3DBE SWAP1 PUSH1 0x44 ADD JUMPDEST PUSH1 0x0 PUSH1 0x40 MLOAD DUP1 DUP4 SUB DUP2 PUSH1 0x0 DUP8 DUP1 EXTCODESIZE ISZERO DUP1 ISZERO PUSH3 0x110 JUMPI PUSH1 0x0 DUP1 REVERT JUMPDEST POP GAS CALL ISZERO DUP1 ISZERO PUSH3 0x125 JUMPI RETURNDATASIZE PUSH1 0x0 DUP1 RETURNDATACOPY RETURNDATASIZE PUSH1 0x0 REVERT JUMPDEST POP POP POP POP PUSH3 0x1E1 JUMP JUMPDEST PUSH1 0x1 PUSH1 0x1 PUSH1 0xA0 SHL SUB DUP3 AND ISZERO PUSH3 0x180 JUMPI PUSH1 0x40 MLOAD PUSH4 0xA0AF2903 PUSH1 0xE0 SHL DUP2 MSTORE ADDRESS PUSH1 0x4 DUP3 ADD MSTORE PUSH1 0x1 PUSH1 0x1 PUSH1 0xA0 SHL SUB DUP4 AND PUSH1 0x24 DUP3 ADD MSTORE PUSH14 0xAAEB6D7670E522A718067333CD4E SWAP1 PUSH4 0xA0AF2903 SWAP1 PUSH1 0x44 ADD PUSH3 0xF5 JUMP JUMPDEST PUSH1 0x40 MLOAD PUSH4 0x22107243 PUSH1 0xE1 SHL DUP2 MSTORE ADDRESS PUSH1 0x4 DUP3 ADD MSTORE PUSH14 0xAAEB6D7670E522A718067333CD4E SWAP1 PUSH4 0x4420E486 SWAP1 PUSH1 0x24 ADD PUSH1 0x0 PUSH1 0x40 MLOAD DUP1 DUP4 SUB DUP2 PUSH1 0x0 DUP8 DUP1 EXTCODESIZE ISZERO DUP1 ISZERO PUSH3 0x1C7 JUMPI PUSH1 0x0 DUP1 REVERT JUMPDEST POP GAS CALL ISZERO DUP1 ISZERO PUSH3 0x1DC JUMPI RETURNDATASIZE PUSH1 0x0 DUP1 RETURNDATACOPY RETURNDATASIZE PUSH1 0x0 REVERT JUMPDEST POP POP POP POP JUMPDEST POP POP POP POP PUSH3 0x457 JUMP JUMPDEST PUSH1 0x8 DUP1 SLOAD PUSH1 0x1 PUSH1 0x1 PUSH1 0xA0 SHL SUB DUP4 DUP2 AND PUSH1 0x1 PUSH1 0x1 PUSH1 0xA0 SHL SUB NOT DUP4 AND DUP2 OR SWAP1 SWAP4 SSTORE PUSH1 0x40 MLOAD SWAP2 AND SWAP2 SWAP1 DUP3 SWAP1 PUSH32 0x8BE0079C531659141344CD1FD0A4F28419497F9722A3DAAFE3B4186F6B6457E0 SWAP1 PUSH1 0x0 SWAP1 LOG3 POP POP JUMP JUMPDEST DUP3 DUP1 SLOAD PUSH3 0x24B SWAP1 PUSH3 0x41A JUMP JUMPDEST SWAP1 PUSH1 0x0 MSTORE PUSH1 0x20 PUSH1 0x0 KECCAK256 SWAP1 PUSH1 0x1F ADD PUSH1 0x20 SWAP1 DIV DUP2 ADD SWAP3 DUP3 PUSH3 0x26F JUMPI PUSH1 0x0 DUP6 SSTORE PUSH3 0x2BA JUMP JUMPDEST DUP3 PUSH1 0x1F LT PUSH3 0x28A JUMPI DUP1 MLOAD PUSH1 0xFF NOT AND DUP4 DUP1 ADD OR DUP6 SSTORE PUSH3 0x2BA JUMP JUMPDEST DUP3 DUP1 ADD PUSH1 0x1 ADD DUP6 SSTORE DUP3 ISZERO PUSH3 0x2BA JUMPI SWAP2 DUP3 ADD JUMPDEST DUP3 DUP2 GT ISZERO PUSH3 0x2BA JUMPI DUP3 MLOAD DUP3 SSTORE SWAP2 PUSH1 0x20 ADD SWAP2 SWAP1 PUSH1 0x1 ADD SWAP1 PUSH3 0x29D JUMP JUMPDEST POP PUSH3 0x2C8 SWAP3 SWAP2 POP PUSH3 0x2CC JUMP JUMPDEST POP SWAP1 JUMP JUMPDEST JUMPDEST DUP1 DUP3 GT ISZERO PUSH3 0x2C8 JUMPI PUSH1 0x0 DUP2 SSTORE PUSH1 0x1 ADD PUSH3 0x2CD JUMP JUMPDEST PUSH4 0x4E487B71 PUSH1 0xE0 SHL PUSH1 0x0 MSTORE PUSH1 0x41 PUSH1 0x4 MSTORE PUSH1 0x24 PUSH1 0x0 REVERT JUMPDEST PUSH1 0x0 DUP3 PUSH1 0x1F DUP4 ADD SLT PUSH3 0x30B JUMPI PUSH1 0x0 DUP1 REVERT JUMPDEST DUP2 MLOAD PUSH1 0x1 PUSH1 0x1 PUSH1 0x40 SHL SUB DUP1 DUP3 GT ISZERO PUSH3 0x328 JUMPI PUSH3 0x328 PUSH3 0x2E3 JUMP JUMPDEST PUSH1 0x40 MLOAD PUSH1 0x1F DUP4 ADD PUSH1 0x1F NOT SWAP1 DUP2 AND PUSH1 0x3F ADD AND DUP2 ADD SWAP1 DUP3 DUP3 GT DUP2 DUP4 LT OR ISZERO PUSH3 0x353 JUMPI PUSH3 0x353 PUSH3 0x2E3 JUMP JUMPDEST DUP2 PUSH1 0x40 MSTORE DUP4 DUP2 MSTORE PUSH1 0x20 SWAP3 POP DUP7 DUP4 DUP6 DUP9 ADD ADD GT ISZERO PUSH3 0x370 JUMPI PUSH1 0x0 DUP1 REVERT JUMPDEST PUSH1 0x0 SWAP2 POP JUMPDEST DUP4 DUP3 LT ISZERO PUSH3 0x394 JUMPI DUP6 DUP3 ADD DUP4 ADD MLOAD DUP2 DUP4 ADD DUP5 ADD MSTORE SWAP1 DUP3 ADD SWAP1 PUSH3 0x375 JUMP JUMPDEST DUP4 DUP3 GT ISZERO PUSH3 0x3A6 JUMPI PUSH1 0x0 DUP4 DUP6 DUP4 ADD ADD MSTORE JUMPDEST SWAP7 SWAP6 POP POP POP POP POP POP JUMP JUMPDEST PUSH1 0x0 DUP1 PUSH1 0x40 DUP4 DUP6 SUB SLT ISZERO PUSH3 0x3C4 JUMPI PUSH1 0x0 DUP1 REVERT JUMPDEST DUP3 MLOAD PUSH1 0x1 PUSH1 0x1 PUSH1 0x40 SHL SUB DUP1 DUP3 GT ISZERO PUSH3 0x3DC JUMPI PUSH1 0x0 DUP1 REVERT JUMPDEST PUSH3 0x3EA DUP7 DUP4 DUP8 ADD PUSH3 0x2F9 JUMP JUMPDEST SWAP4 POP PUSH1 0x20 DUP6 ADD MLOAD SWAP2 POP DUP1 DUP3 GT ISZERO PUSH3 0x401 JUMPI PUSH1 0x0 DUP1 REVERT JUMPDEST POP PUSH3 0x410 DUP6 DUP3 DUP7 ADD PUSH3 0x2F9 JUMP JUMPDEST SWAP2 POP POP SWAP3 POP SWAP3 SWAP1 POP JUMP JUMPDEST PUSH1 0x1 DUP2 DUP2 SHR SWAP1 DUP3 AND DUP1 PUSH3 0x42F JUMPI PUSH1 0x7F DUP3 AND SWAP2 POP JUMPDEST PUSH1 0x20 DUP3 LT DUP2 EQ ISZERO PUSH3 0x451 JUMPI PUSH4 0x4E487B71 PUSH1 0xE0 SHL PUSH1 0x0 MSTORE PUSH1 0x22 PUSH1 0x4 MSTORE PUSH1 0x24 PUSH1 0x0 REVERT JUMPDEST POP SWAP2 SWAP1 POP JUMP JUMPDEST PUSH2 0x3BBC DUP1 PUSH3 0x467 PUSH1 0x0 CODECOPY PUSH1 0x0 RETURN INVALID PUSH1 0x80 PUSH1 0x40 MSTORE PUSH1 0x4 CALLDATASIZE LT PUSH2 0x23B JUMPI PUSH1 0x0 CALLDATALOAD PUSH1 0xE0 SHR DUP1 PUSH4 0x621A1F74 GT PUSH2 0x12E JUMPI DUP1 PUSH4 0xA22CB465 GT PUSH2 0xAB JUMPI DUP1 PUSH4 0xE42B6CCD GT PUSH2 0x6F JUMPI DUP1 PUSH4 0xE42B6CCD EQ PUSH2 0x71C JUMPI DUP1 PUSH4 0xE985E9C5 EQ PUSH2 0x73C JUMPI DUP1 PUSH4 0xF2FDE38B EQ PUSH2 0x785 JUMPI DUP1 PUSH4 0xFEBFD6C3 EQ PUSH2 0x7A5 JUMPI DUP1 PUSH4 0xFFC27C0E EQ PUSH2 0x7C5 JUMPI PUSH1 0x0 DUP1 REVERT JUMPDEST DUP1 PUSH4 0xA22CB465 EQ PUSH2 0x66C JUMPI DUP1 PUSH4 0xAC4FB5F4 EQ PUSH2 0x68C JUMPI DUP1 PUSH4 0xADFC7DAE EQ PUSH2 0x6BC JUMPI DUP1 PUSH4 0xB88D4FDE EQ PUSH2 0x6DC JUMPI DUP1 PUSH4 0xC87B56DD EQ PUSH2 0x6FC JUMPI PUSH1 0x0 DUP1 REVERT JUMPDEST DUP1 PUSH4 0x7F77F574 GT PUSH2 0xF2 JUMPI DUP1 PUSH4 0x7F77F574 EQ PUSH2 0x57F JUMPI DUP1 PUSH4 0x8DA5CB5B EQ PUSH2 0x5F9 JUMPI DUP1 PUSH4 0x8F283970 EQ PUSH2 0x617 JUMPI DUP1 PUSH4 0x95D89B41 EQ PUSH2 0x637 JUMPI DUP1 PUSH4 0x9713C807 EQ PUSH2 0x64C JUMPI PUSH1 0x0 DUP1 REVERT JUMPDEST DUP1 PUSH4 0x621A1F74 EQ PUSH2 0x4C7 JUMPI DUP1 PUSH4 0x6352211E EQ PUSH2 0x4E7 JUMPI DUP1 PUSH4 0x70A08231 EQ PUSH2 0x51D JUMPI DUP1 PUSH4 0x715018A6 EQ PUSH2 0x53D JUMPI DUP1 PUSH4 0x775BFF9F EQ PUSH2 0x552 JUMPI PUSH1 0x0 DUP1 REVERT JUMPDEST DUP1 PUSH4 0x2A55205A GT PUSH2 0x1BC JUMPI DUP1 PUSH4 0x472F1E02 GT PUSH2 0x180 JUMPI DUP1 PUSH4 0x472F1E02 EQ PUSH2 0x43A JUMPI DUP1 PUSH4 0x4E69D560 EQ PUSH2 0x45A JUMPI DUP1 PUSH4 0x575B57EA EQ PUSH2 0x46F JUMPI DUP1 PUSH4 0x5C40F6F4 EQ PUSH2 0x48F JUMPI DUP1 PUSH4 0x5C975ABB EQ PUSH2 0x4AF JUMPI PUSH1 0x0 DUP1 REVERT JUMPDEST DUP1 PUSH4 0x2A55205A EQ PUSH2 0x38F JUMPI DUP1 PUSH4 0x36A0A6CB EQ PUSH2 0x3CE JUMPI DUP1 PUSH4 0x41F43434 EQ PUSH2 0x3E3 JUMPI DUP1 PUSH4 0x42842E0E EQ PUSH2 0x405 JUMPI DUP1 PUSH4 0x452FA3D3 EQ PUSH2 0x425 JUMPI PUSH1 0x0 DUP1 REVERT JUMPDEST DUP1 PUSH4 0x10DA88C5 GT PUSH2 0x203 JUMPI DUP1 PUSH4 0x10DA88C5 EQ PUSH2 0x311 JUMPI DUP1 PUSH4 0x1249C58B EQ PUSH2 0x331 JUMPI DUP1 PUSH4 0x1CA9741B EQ PUSH2 0x347 JUMPI DUP1 PUSH4 0x21C8D676 EQ PUSH2 0x367 JUMPI DUP1 PUSH4 0x23B872DD EQ PUSH2 0x36F JUMPI PUSH1 0x0 DUP1 REVERT JUMPDEST DUP1 PUSH4 0x1BC45C9 EQ PUSH2 0x240 JUMPI DUP1 PUSH4 0x1FFC9A7 EQ PUSH2 0x27D JUMPI DUP1 PUSH4 0x6FDDE03 EQ PUSH2 0x2AD JUMPI DUP1 PUSH4 0x81812FC EQ PUSH2 0x2CF JUMPI DUP1 PUSH4 0x95EA7B3 EQ PUSH2 0x2EF JUMPI JUMPDEST PUSH1 0x0 DUP1 REVERT JUMPDEST CALLVALUE DUP1 ISZERO PUSH2 0x24C JUMPI PUSH1 0x0 DUP1 REVERT JUMPDEST POP PUSH1 0xA SLOAD PUSH2 0x260 SWAP1 PUSH1 0x1 PUSH1 0x1 PUSH1 0xA0 SHL SUB AND DUP2 JUMP JUMPDEST PUSH1 0x40 MLOAD PUSH1 0x1 PUSH1 0x1 PUSH1 0xA0 SHL SUB SWAP1 SWAP2 AND DUP2 MSTORE PUSH1 0x20 ADD JUMPDEST PUSH1 0x40 MLOAD DUP1 SWAP2 SUB SWAP1 RETURN JUMPDEST CALLVALUE DUP1 ISZERO PUSH2 0x289 JUMPI PUSH1 0x0 DUP1 REVERT JUMPDEST POP PUSH2 0x29D PUSH2 0x298 CALLDATASIZE PUSH1 0x4 PUSH2 0x313A JUMP JUMPDEST PUSH2 0x7E5 JUMP JUMPDEST PUSH1 0x40 MLOAD SWAP1 ISZERO ISZERO DUP2 MSTORE PUSH1 0x20 ADD PUSH2 0x274 JUMP JUMPDEST CALLVALUE DUP1 ISZERO PUSH2 0x2B9 JUMPI PUSH1 0x0 DUP1 REVERT JUMPDEST POP PUSH2 0x2C2 PUSH2 0x837 JUMP JUMPDEST PUSH1 0x40 MLOAD PUSH2 0x274 SWAP2 SWAP1 PUSH2 0x31B6 JUMP JUMPDEST CALLVALUE DUP1 ISZERO PUSH2 0x2DB JUMPI PUSH1 0x0 DUP1 REVERT JUMPDEST POP PUSH2 0x260 PUSH2 0x2EA CALLDATASIZE PUSH1 0x4 PUSH2 0x31C9 JUMP JUMPDEST PUSH2 0x8C9 JUMP JUMPDEST CALLVALUE DUP1 ISZERO PUSH2 0x2FB JUMPI PUSH1 0x0 DUP1 REVERT JUMPDEST POP PUSH2 0x30F PUSH2 0x30A CALLDATASIZE PUSH1 0x4 PUSH2 0x3207 JUMP JUMPDEST PUSH2 0x8F0 JUMP JUMPDEST STOP JUMPDEST CALLVALUE DUP1 ISZERO PUSH2 0x31D JUMPI PUSH1 0x0 DUP1 REVERT JUMPDEST POP PUSH2 0x2C2 PUSH2 0x32C CALLDATASIZE PUSH1 0x4 PUSH2 0x31C9 JUMP JUMPDEST PUSH2 0xA0B JUMP JUMPDEST PUSH2 0x339 PUSH2 0xB4E JUMP JUMPDEST PUSH1 0x40 MLOAD SWAP1 DUP2 MSTORE PUSH1 0x20 ADD PUSH2 0x274 JUMP JUMPDEST CALLVALUE DUP1 ISZERO PUSH2 0x353 JUMPI PUSH1 0x0 DUP1 REVERT JUMPDEST POP PUSH2 0x30F PUSH2 0x362 CALLDATASIZE PUSH1 0x4 PUSH2 0x3233 JUMP JUMPDEST PUSH2 0xD9A JUMP JUMPDEST PUSH2 0x339 PUSH2 0xE2B JUMP JUMPDEST CALLVALUE DUP1 ISZERO PUSH2 0x37B JUMPI PUSH1 0x0 DUP1 REVERT JUMPDEST POP PUSH2 0x30F PUSH2 0x38A CALLDATASIZE PUSH1 0x4 PUSH2 0x3250 JUMP JUMPDEST PUSH2 0x1165 JUMP JUMPDEST CALLVALUE DUP1 ISZERO PUSH2 0x39B JUMPI PUSH1 0x0 DUP1 REVERT JUMPDEST POP PUSH2 0x3AF PUSH2 0x3AA CALLDATASIZE PUSH1 0x4 PUSH2 0x3291 JUMP JUMPDEST PUSH2 0x1190 JUMP JUMPDEST PUSH1 0x40 DUP1 MLOAD PUSH1 0x1 PUSH1 0x1 PUSH1 0xA0 SHL SUB SWAP1 SWAP4 AND DUP4 MSTORE PUSH1 0x20 DUP4 ADD SWAP2 SWAP1 SWAP2 MSTORE ADD PUSH2 0x274 JUMP JUMPDEST CALLVALUE DUP1 ISZERO PUSH2 0x3DA JUMPI PUSH1 0x0 DUP1 REVERT JUMPDEST POP PUSH2 0x2C2 PUSH2 0x11A8 JUMP JUMPDEST CALLVALUE DUP1 ISZERO PUSH2 0x3EF JUMPI PUSH1 0x0 DUP1 REVERT JUMPDEST POP PUSH2 0x260 PUSH14 0xAAEB6D7670E522A718067333CD4E DUP2 JUMP JUMPDEST CALLVALUE DUP1 ISZERO PUSH2 0x411 JUMPI PUSH1 0x0 DUP1 REVERT JUMPDEST POP PUSH2 0x30F PUSH2 0x420 CALLDATASIZE PUSH1 0x4 PUSH2 0x3250 JUMP JUMPDEST PUSH2 0x1236 JUMP JUMPDEST CALLVALUE DUP1 ISZERO PUSH2 0x431 JUMPI PUSH1 0x0 DUP1 REVERT JUMPDEST POP PUSH2 0x2C2 PUSH2 0x125B JUMP JUMPDEST CALLVALUE DUP1 ISZERO PUSH2 0x446 JUMPI PUSH1 0x0 DUP1 REVERT JUMPDEST POP PUSH2 0x30F PUSH2 0x455 CALLDATASIZE PUSH1 0x4 PUSH2 0x3233 JUMP JUMPDEST PUSH2 0x1268 JUMP JUMPDEST CALLVALUE DUP1 ISZERO PUSH2 0x466 JUMPI PUSH1 0x0 DUP1 REVERT JUMPDEST POP PUSH2 0x29D PUSH2 0x12FA JUMP JUMPDEST CALLVALUE DUP1 ISZERO PUSH2 0x47B JUMPI PUSH1 0x0 DUP1 REVERT JUMPDEST POP PUSH1 0xD SLOAD PUSH2 0x260 SWAP1 PUSH1 0x1 PUSH1 0x1 PUSH1 0xA0 SHL SUB AND DUP2 JUMP JUMPDEST CALLVALUE DUP1 ISZERO PUSH2 0x49B JUMPI PUSH1 0x0 DUP1 REVERT JUMPDEST POP PUSH2 0x30F PUSH2 0x4AA CALLDATASIZE PUSH1 0x4 PUSH2 0x32CC JUMP JUMPDEST PUSH2 0x130E JUMP JUMPDEST CALLVALUE DUP1 ISZERO PUSH2 0x4BB JUMPI PUSH1 0x0 DUP1 REVERT JUMPDEST POP PUSH1 0x6 SLOAD PUSH1 0xFF AND PUSH2 0x29D JUMP JUMPDEST CALLVALUE DUP1 ISZERO PUSH2 0x4D3 JUMPI PUSH1 0x0 DUP1 REVERT JUMPDEST POP PUSH2 0x339 PUSH2 0x4E2 CALLDATASIZE PUSH1 0x4 PUSH2 0x31C9 JUMP JUMPDEST PUSH2 0x1375 JUMP JUMPDEST CALLVALUE DUP1 ISZERO PUSH2 0x4F3 JUMPI PUSH1 0x0 DUP1 REVERT JUMPDEST POP PUSH2 0x260 PUSH2 0x502 CALLDATASIZE PUSH1 0x4 PUSH2 0x31C9 JUMP JUMPDEST PUSH1 0x0 SWAP1 DUP2 MSTORE PUSH1 0x9 PUSH1 0x20 MSTORE PUSH1 0x40 SWAP1 KECCAK256 SLOAD PUSH1 0x1 PUSH1 0x1 PUSH1 0xA0 SHL SUB AND SWAP1 JUMP JUMPDEST CALLVALUE DUP1 ISZERO PUSH2 0x529 JUMPI PUSH1 0x0 DUP1 REVERT JUMPDEST POP PUSH2 0x339 PUSH2 0x538 CALLDATASIZE PUSH1 0x4 PUSH2 0x3233 JUMP JUMPDEST PUSH2 0x1441 JUMP JUMPDEST CALLVALUE DUP1 ISZERO PUSH2 0x549 JUMPI PUSH1 0x0 DUP1 REVERT JUMPDEST POP PUSH2 0x30F PUSH2 0x14C7 JUMP JUMPDEST CALLVALUE DUP1 ISZERO PUSH2 0x55E JUMPI PUSH1 0x0 DUP1 REVERT JUMPDEST POP PUSH2 0x567 PUSH2 0x14DB JUMP JUMPDEST PUSH1 0x40 MLOAD PUSH2 0x274 SWAP13 SWAP12 SWAP11 SWAP10 SWAP9 SWAP8 SWAP7 SWAP6 SWAP5 SWAP4 SWAP3 SWAP2 SWAP1 PUSH2 0x32E9 JUMP JUMPDEST CALLVALUE DUP1 ISZERO PUSH2 0x58B JUMPI PUSH1 0x0 DUP1 REVERT JUMPDEST POP PUSH2 0x5CE PUSH2 0x59A CALLDATASIZE PUSH1 0x4 PUSH2 0x31C9 JUMP JUMPDEST PUSH1 0x10 PUSH1 0x20 MSTORE PUSH1 0x0 SWAP1 DUP2 MSTORE PUSH1 0x40 SWAP1 KECCAK256 SLOAD PUSH1 0x1 PUSH1 0x1 PUSH1 0xA0 SHL SUB DUP2 AND SWAP1 PUSH1 0x1 PUSH1 0xA0 SHL DUP2 DIV PUSH3 0xFFFFFF AND SWAP1 PUSH1 0x1 PUSH1 0xB8 SHL SWAP1 DIV PUSH1 0xFF AND DUP4 JUMP JUMPDEST PUSH1 0x40 DUP1 MLOAD PUSH1 0x1 PUSH1 0x1 PUSH1 0xA0 SHL SUB SWAP1 SWAP5 AND DUP5 MSTORE PUSH3 0xFFFFFF SWAP1 SWAP3 AND PUSH1 0x20 DUP5 ADD MSTORE ISZERO ISZERO SWAP1 DUP3 ADD MSTORE PUSH1 0x60 ADD PUSH2 0x274 JUMP JUMPDEST CALLVALUE DUP1 ISZERO PUSH2 0x605 JUMPI PUSH1 0x0 DUP1 REVERT JUMPDEST POP PUSH1 0xA SLOAD PUSH1 0x1 PUSH1 0x1 PUSH1 0xA0 SHL SUB AND PUSH2 0x260 JUMP JUMPDEST CALLVALUE DUP1 ISZERO PUSH2 0x623 JUMPI PUSH1 0x0 DUP1 REVERT JUMPDEST POP PUSH2 0x30F PUSH2 0x632 CALLDATASIZE PUSH1 0x4 PUSH2 0x3233 JUMP JUMPDEST PUSH2 0x167E JUMP JUMPDEST CALLVALUE DUP1 ISZERO PUSH2 0x643 JUMPI PUSH1 0x0 DUP1 REVERT JUMPDEST POP PUSH2 0x2C2 PUSH2 0x1710 JUMP JUMPDEST CALLVALUE DUP1 ISZERO PUSH2 0x658 JUMPI PUSH1 0x0 DUP1 REVERT JUMPDEST POP PUSH2 0x30F PUSH2 0x667 CALLDATASIZE PUSH1 0x4 PUSH2 0x33A6 JUMP JUMPDEST PUSH2 0x171F JUMP JUMPDEST CALLVALUE DUP1 ISZERO PUSH2 0x678 JUMPI PUSH1 0x0 DUP1 REVERT JUMPDEST POP PUSH2 0x30F PUSH2 0x687 CALLDATASIZE PUSH1 0x4 PUSH2 0x33CD JUMP JUMPDEST PUSH2 0x17ED JUMP JUMPDEST CALLVALUE DUP1 ISZERO PUSH2 0x698 JUMPI PUSH1 0x0 DUP1 REVERT JUMPDEST POP PUSH2 0x29D PUSH2 0x6A7 CALLDATASIZE PUSH1 0x4 PUSH2 0x3233 JUMP JUMPDEST PUSH1 0x1B PUSH1 0x20 MSTORE PUSH1 0x0 SWAP1 DUP2 MSTORE PUSH1 0x40 SWAP1 KECCAK256 SLOAD PUSH1 0xFF AND DUP2 JUMP JUMPDEST CALLVALUE DUP1 ISZERO PUSH2 0x6C8 JUMPI PUSH1 0x0 DUP1 REVERT JUMPDEST POP PUSH1 0xB SLOAD PUSH2 0x260 SWAP1 PUSH1 0x1 PUSH1 0x1 PUSH1 0xA0 SHL SUB AND DUP2 JUMP JUMPDEST CALLVALUE DUP1 ISZERO PUSH2 0x6E8 JUMPI PUSH1 0x0 DUP1 REVERT JUMPDEST POP PUSH2 0x30F PUSH2 0x6F7 CALLDATASIZE PUSH1 0x4 PUSH2 0x34DD JUMP JUMPDEST PUSH2 0x17FC JUMP JUMPDEST CALLVALUE DUP1 ISZERO PUSH2 0x708 JUMPI PUSH1 0x0 DUP1 REVERT JUMPDEST POP PUSH2 0x2C2 PUSH2 0x717 CALLDATASIZE PUSH1 0x4 PUSH2 0x31C9 JUMP JUMPDEST PUSH2 0x1829 JUMP JUMPDEST CALLVALUE DUP1 ISZERO PUSH2 0x728 JUMPI PUSH1 0x0 DUP1 REVERT JUMPDEST POP PUSH2 0x30F PUSH2 0x737 CALLDATASIZE PUSH1 0x4 PUSH2 0x3668 JUMP JUMPDEST PUSH2 0x1923 JUMP JUMPDEST CALLVALUE DUP1 ISZERO PUSH2 0x748 JUMPI PUSH1 0x0 DUP1 REVERT JUMPDEST POP PUSH2 0x29D PUSH2 0x757 CALLDATASIZE PUSH1 0x4 PUSH2 0x3814 JUMP JUMPDEST PUSH1 0x1 PUSH1 0x1 PUSH1 0xA0 SHL SUB SWAP2 DUP3 AND PUSH1 0x0 SWAP1 DUP2 MSTORE PUSH1 0x5 PUSH1 0x20 SWAP1 DUP2 MSTORE PUSH1 0x40 DUP1 DUP4 KECCAK256 SWAP4 SWAP1 SWAP5 AND DUP3 MSTORE SWAP2 SWAP1 SWAP2 MSTORE KECCAK256 SLOAD PUSH1 0xFF AND SWAP1 JUMP JUMPDEST CALLVALUE DUP1 ISZERO PUSH2 0x791 JUMPI PUSH1 0x0 DUP1 REVERT JUMPDEST POP PUSH2 0x30F PUSH2 0x7A0 CALLDATASIZE PUSH1 0x4 PUSH2 0x3233 JUMP JUMPDEST PUSH2 0x1C8E JUMP JUMPDEST CALLVALUE DUP1 ISZERO PUSH2 0x7B1 JUMPI PUSH1 0x0 DUP1 REVERT JUMPDEST POP PUSH2 0x30F PUSH2 0x7C0 CALLDATASIZE PUSH1 0x4 PUSH2 0x3233 JUMP JUMPDEST PUSH2 0x1D04 JUMP JUMPDEST CALLVALUE DUP1 ISZERO PUSH2 0x7D1 JUMPI PUSH1 0x0 DUP1 REVERT JUMPDEST POP PUSH1 0xC SLOAD PUSH2 0x260 SWAP1 PUSH1 0x1 PUSH1 0x1 PUSH1 0xA0 SHL SUB AND DUP2 JUMP JUMPDEST PUSH1 0x0 PUSH1 0x1 PUSH1 0x1 PUSH1 0xE0 SHL SUB NOT DUP3 AND PUSH4 0x80AC58CD PUSH1 0xE0 SHL EQ DUP1 PUSH2 0x816 JUMPI POP PUSH1 0x1 PUSH1 0x1 PUSH1 0xE0 SHL SUB NOT DUP3 AND PUSH4 0x5B5E139F PUSH1 0xE0 SHL EQ JUMPDEST DUP1 PUSH2 0x831 JUMPI POP PUSH4 0x1FFC9A7 PUSH1 0xE0 SHL PUSH1 0x1 PUSH1 0x1 PUSH1 0xE0 SHL SUB NOT DUP4 AND EQ JUMPDEST SWAP3 SWAP2 POP POP JUMP JUMPDEST PUSH1 0x60 PUSH1 0xE DUP1 SLOAD PUSH2 0x846 SWAP1 PUSH2 0x3842 JUMP JUMPDEST DUP1 PUSH1 0x1F ADD PUSH1 0x20 DUP1 SWAP2 DIV MUL PUSH1 0x20 ADD PUSH1 0x40 MLOAD SWAP1 DUP2 ADD PUSH1 0x40 MSTORE DUP1 SWAP3 SWAP2 SWAP1 DUP2 DUP2 MSTORE PUSH1 0x20 ADD DUP3 DUP1 SLOAD PUSH2 0x872 SWAP1 PUSH2 0x3842 JUMP JUMPDEST DUP1 ISZERO PUSH2 0x8BF JUMPI DUP1 PUSH1 0x1F LT PUSH2 0x894 JUMPI PUSH2 0x100 DUP1 DUP4 SLOAD DIV MUL DUP4 MSTORE SWAP2 PUSH1 0x20 ADD SWAP2 PUSH2 0x8BF JUMP JUMPDEST DUP3 ADD SWAP2 SWAP1 PUSH1 0x0 MSTORE PUSH1 0x20 PUSH1 0x0 KECCAK256 SWAP1 JUMPDEST DUP2 SLOAD DUP2 MSTORE SWAP1 PUSH1 0x1 ADD SWAP1 PUSH1 0x20 ADD DUP1 DUP4 GT PUSH2 0x8A2 JUMPI DUP3 SWAP1 SUB PUSH1 0x1F AND DUP3 ADD SWAP2 JUMPDEST POP POP POP POP POP SWAP1 POP SWAP1 JUMP JUMPDEST PUSH1 0x0 PUSH2 0x8D4 DUP3 PUSH2 0x1D96 JUMP JUMPDEST POP PUSH1 0x0 SWAP1 DUP2 MSTORE PUSH1 0x4 PUSH1 0x20 MSTORE PUSH1 0x40 SWAP1 KECCAK256 SLOAD PUSH1 0x1 PUSH1 0x1 PUSH1 0xA0 SHL SUB AND SWAP1 JUMP JUMPDEST PUSH1 0x0 PUSH2 0x8FB DUP3 PUSH2 0x1DE6 JUMP JUMPDEST SWAP1 POP DUP1 PUSH1 0x1 PUSH1 0x1 PUSH1 0xA0 SHL SUB AND DUP4 PUSH1 0x1 PUSH1 0x1 PUSH1 0xA0 SHL SUB AND EQ ISZERO PUSH2 0x96E JUMPI PUSH1 0x40 MLOAD PUSH3 0x461BCD PUSH1 0xE5 SHL DUP2 MSTORE PUSH1 0x20 PUSH1 0x4 DUP3 ADD MSTORE PUSH1 0x21 PUSH1 0x24 DUP3 ADD MSTORE PUSH32 0x4552433732313A20617070726F76616C20746F2063757272656E74206F776E65 PUSH1 0x44 DUP3 ADD MSTORE PUSH1 0x39 PUSH1 0xF9 SHL PUSH1 0x64 DUP3 ADD MSTORE PUSH1 0x84 ADD JUMPDEST PUSH1 0x40 MLOAD DUP1 SWAP2 SUB SWAP1 REVERT JUMPDEST CALLER PUSH1 0x1 PUSH1 0x1 PUSH1 0xA0 SHL SUB DUP3 AND EQ DUP1 PUSH2 0x98A JUMPI POP PUSH2 0x98A DUP2 CALLER PUSH2 0x757 JUMP JUMPDEST PUSH2 0x9FC JUMPI PUSH1 0x40 MLOAD PUSH3 0x461BCD PUSH1 0xE5 SHL DUP2 MSTORE PUSH1 0x20 PUSH1 0x4 DUP3 ADD MSTORE PUSH1 0x3D PUSH1 0x24 DUP3 ADD MSTORE PUSH32 0x4552433732313A20617070726F76652063616C6C6572206973206E6F7420746F PUSH1 0x44 DUP3 ADD MSTORE PUSH32 0x6B656E206F776E6572206F7220617070726F76656420666F7220616C6C000000 PUSH1 0x64 DUP3 ADD MSTORE PUSH1 0x84 ADD PUSH2 0x965 JUMP JUMPDEST PUSH2 0xA06 DUP4 DUP4 PUSH2 0x1E46 JUMP JUMPDEST POP POP POP JUMP JUMPDEST PUSH1 0x60 PUSH2 0xA16 DUP3 PUSH2 0x1EB4 JUMP JUMPDEST PUSH1 0x40 MLOAD DUP1 PUSH1 0x40 ADD PUSH1 0x40 MSTORE DUP1 PUSH1 0x3 DUP2 MSTORE PUSH1 0x20 ADD PUSH3 0x323039 PUSH1 0xE8 SHL DUP2 MSTORE POP SWAP1 PUSH2 0xA50 JUMPI PUSH1 0x40 MLOAD PUSH3 0x461BCD PUSH1 0xE5 SHL DUP2 MSTORE PUSH1 0x4 ADD PUSH2 0x965 SWAP2 SWAP1 PUSH2 0x31B6 JUMP JUMPDEST POP PUSH1 0xD SLOAD PUSH1 0x40 MLOAD PUSH4 0x188687DD PUSH1 0xE2 SHL DUP2 MSTORE PUSH1 0x4 DUP2 ADD DUP5 SWAP1 MSTORE PUSH1 0x1 PUSH1 0x1 PUSH1 0xA0 SHL SUB SWAP1 SWAP2 AND SWAP1 PUSH1 0x0 SWAP1 ADDRESS SWAP1 PUSH4 0x621A1F74 SWAP1 PUSH1 0x24 ADD PUSH1 0x20 PUSH1 0x40 MLOAD DUP1 DUP4 SUB DUP2 DUP7 GAS STATICCALL ISZERO DUP1 ISZERO PUSH2 0xA9F JUMPI RETURNDATASIZE PUSH1 0x0 DUP1 RETURNDATACOPY RETURNDATASIZE PUSH1 0x0 REVERT JUMPDEST POP POP POP POP PUSH1 0x40 MLOAD RETURNDATASIZE PUSH1 0x1F NOT PUSH1 0x1F DUP3 ADD AND DUP3 ADD DUP1 PUSH1 0x40 MSTORE POP DUP2 ADD SWAP1 PUSH2 0xAC3 SWAP2 SWAP1 PUSH2 0x387D JUMP JUMPDEST PUSH1 0x12 SLOAD PUSH1 0x40 MLOAD PUSH4 0x94139301 PUSH1 0xE0 SHL DUP2 MSTORE PUSH1 0x4 DUP2 ADD SWAP2 SWAP1 SWAP2 MSTORE PUSH1 0x24 DUP2 ADD DUP7 SWAP1 MSTORE PUSH1 0x44 DUP2 ADD DUP3 SWAP1 MSTORE SWAP1 SWAP2 POP PUSH1 0x1 PUSH1 0x1 PUSH1 0xA0 SHL SUB DUP4 AND SWAP1 PUSH4 0x94139301 SWAP1 PUSH1 0x64 ADD JUMPDEST PUSH1 0x0 PUSH1 0x40 MLOAD DUP1 DUP4 SUB DUP2 DUP7 GAS STATICCALL ISZERO DUP1 ISZERO PUSH2 0xB1E JUMPI RETURNDATASIZE PUSH1 0x0 DUP1 RETURNDATACOPY RETURNDATASIZE PUSH1 0x0 REVERT JUMPDEST POP POP POP POP PUSH1 0x40 MLOAD RETURNDATASIZE PUSH1 0x0 DUP3 RETURNDATACOPY PUSH1 0x1F RETURNDATASIZE SWAP1 DUP2 ADD PUSH1 0x1F NOT AND DUP3 ADD PUSH1 0x40 MSTORE PUSH2 0xB46 SWAP2 SWAP1 DUP2 ADD SWAP1 PUSH2 0x3896 JUMP JUMPDEST SWAP5 SWAP4 POP POP POP POP JUMP JUMPDEST PUSH1 0x0 PUSH2 0xB58 PUSH2 0x1ED1 JUMP JUMPDEST PUSH1 0x1A SLOAD ISZERO PUSH2 0xB9F JUMPI PUSH1 0x1A SLOAD PUSH1 0x40 DUP1 MLOAD DUP1 DUP3 ADD SWAP1 SWAP2 MSTORE PUSH1 0x3 DUP2 MSTORE PUSH3 0x64607 PUSH1 0xEB SHL PUSH1 0x20 DUP3 ADD MSTORE SWAP1 TIMESTAMP GT PUSH2 0xB9D JUMPI PUSH1 0x40 MLOAD PUSH3 0x461BCD PUSH1 0xE5 SHL DUP2 MSTORE PUSH1 0x4 ADD PUSH2 0x965 SWAP2 SWAP1 PUSH2 0x31B6 JUMP JUMPDEST POP JUMPDEST PUSH1 0x13 DUP1 SLOAD PUSH1 0x1 PUSH1 0x30 SHL SWAP1 DIV PUSH3 0xFFFFFF AND SWAP1 PUSH1 0x6 PUSH2 0xBBB DUP4 PUSH2 0x3923 JUMP JUMPDEST DUP3 SLOAD PUSH2 0x100 SWAP3 SWAP1 SWAP3 EXP PUSH3 0xFFFFFF DUP2 DUP2 MUL NOT SWAP1 SWAP4 AND SWAP2 DUP4 AND MUL OR SWAP1 SWAP2 SSTORE PUSH1 0x13 SLOAD PUSH4 0x1000000 DUP2 DIV DUP3 AND PUSH1 0x1 PUSH1 0x30 SHL SWAP1 SWAP2 DIV SWAP1 SWAP2 AND GT ISZERO SWAP1 POP PUSH2 0xBFB JUMPI PUSH1 0x0 DUP1 REVERT JUMPDEST PUSH1 0x13 SLOAD PUSH3 0xFFFFFF DUP1 DUP3 AND SWAP2 PUSH2 0xC21 SWAP2 PUSH1 0x1 PUSH1 0x48 SHL DUP3 DIV DUP2 AND SWAP2 PUSH1 0x1 PUSH1 0x30 SHL SWAP1 DIV AND PUSH2 0x3946 JUMP JUMPDEST PUSH3 0xFFFFFF AND EQ ISZERO PUSH2 0xC92 JUMPI PUSH1 0x11 SLOAD PUSH1 0x12 SLOAD PUSH1 0x40 MLOAD PUSH4 0x1122F8A9 PUSH1 0xE1 SHL DUP2 MSTORE PUSH1 0x4 DUP2 ADD SWAP2 SWAP1 SWAP2 MSTORE PUSH1 0x1 PUSH1 0x1 PUSH1 0xA0 SHL SUB SWAP1 SWAP2 AND SWAP1 DUP2 SWAP1 PUSH4 0x2245F152 SWAP1 PUSH1 0x24 ADD PUSH1 0x0 PUSH1 0x40 MLOAD DUP1 DUP4 SUB DUP2 PUSH1 0x0 DUP8 DUP1 EXTCODESIZE ISZERO DUP1 ISZERO PUSH2 0xC78 JUMPI PUSH1 0x0 DUP1 REVERT JUMPDEST POP GAS CALL ISZERO DUP1 ISZERO PUSH2 0xC8C JUMPI RETURNDATASIZE PUSH1 0x0 DUP1 RETURNDATACOPY RETURNDATASIZE PUSH1 0x0 REVERT JUMPDEST POP POP POP POP POP JUMPDEST PUSH1 0x13 SLOAD PUSH1 0x12 SLOAD PUSH1 0x1 PUSH1 0x30 SHL SWAP1 SWAP2 DIV PUSH3 0xFFFFFF AND SWAP1 PUSH2 0xCB4 SWAP1 PUSH3 0xF4240 SWAP1 PUSH2 0x396D JUMP JUMPDEST PUSH2 0xCBE SWAP2 SWAP1 PUSH2 0x398C JUMP JUMPDEST SWAP1 POP PUSH2 0xCCA CALLER DUP3 PUSH2 0x1F2B JUMP JUMPDEST PUSH1 0xC SLOAD PUSH1 0x40 MLOAD PUSH4 0x1DA00D85 PUSH1 0xE0 SHL DUP2 MSTORE PUSH1 0x4 DUP2 ADD DUP4 SWAP1 MSTORE PUSH1 0x1 PUSH1 0x1 PUSH1 0xA0 SHL SUB SWAP1 SWAP2 AND SWAP1 PUSH1 0x0 SWAP1 DUP3 SWAP1 PUSH4 0x1DA00D85 SWAP1 PUSH1 0x24 ADD PUSH1 0x20 PUSH1 0x40 MLOAD DUP1 DUP4 SUB DUP2 PUSH1 0x0 DUP8 GAS CALL ISZERO DUP1 ISZERO PUSH2 0xD1A JUMPI RETURNDATASIZE PUSH1 0x0 DUP1 RETURNDATACOPY RETURNDATASIZE PUSH1 0x0 REVERT JUMPDEST POP POP POP POP PUSH1 0x40 MLOAD RETURNDATASIZE PUSH1 0x1F NOT PUSH1 0x1F DUP3 ADD AND DUP3 ADD DUP1 PUSH1 0x40 MSTORE POP DUP2 ADD SWAP1 PUSH2 0xD3E SWAP2 SWAP1 PUSH2 0x387D JUMP JUMPDEST SWAP1 POP PUSH2 0xD4A DUP4 DUP3 PUSH2 0x1F45 JUMP JUMPDEST PUSH2 0xD52 PUSH2 0x200E JUMP JUMPDEST PUSH1 0x40 DUP1 MLOAD CALLER DUP2 MSTORE PUSH1 0x20 DUP2 ADD DUP6 SWAP1 MSTORE PUSH32 0xF6798A560793A54C3BCFE86A93CDE1E73087D944C0EA20544137D4121396885 SWAP2 ADD PUSH1 0x40 MLOAD DUP1 SWAP2 SUB SWAP1 LOG1 POP POP PUSH2 0xD97 PUSH1 0x1 PUSH1 0x7 SSTORE JUMP JUMPDEST SWAP1 JUMP JUMPDEST PUSH1 0xA SLOAD PUSH1 0x1 PUSH1 0x1 PUSH1 0xA0 SHL SUB AND CALLER EQ DUP1 ISZERO PUSH2 0xDBC JUMPI POP PUSH1 0x1 PUSH1 0x1 PUSH1 0xA0 SHL SUB DUP2 AND ISZERO ISZERO JUMPDEST PUSH1 0x40 MLOAD DUP1 PUSH1 0x40 ADD PUSH1 0x40 MSTORE DUP1 PUSH1 0x3 DUP2 MSTORE PUSH1 0x20 ADD PUSH3 0x313031 PUSH1 0xE8 SHL DUP2 MSTORE POP SWAP1 PUSH2 0xDF6 JUMPI PUSH1 0x40 MLOAD PUSH3 0x461BCD PUSH1 0xE5 SHL DUP2 MSTORE PUSH1 0x4 ADD PUSH2 0x965 SWAP2 SWAP1 PUSH2 0x31B6 JUMP JUMPDEST POP PUSH1 0xC SLOAD PUSH1 0x1 PUSH1 0x1 PUSH1 0xA0 SHL SUB DUP3 DUP2 AND SWAP2 AND EQ PUSH2 0xE28 JUMPI PUSH1 0xC DUP1 SLOAD PUSH1 0x1 PUSH1 0x1 PUSH1 0xA0 SHL SUB NOT AND PUSH1 0x1 PUSH1 0x1 PUSH1 0xA0 SHL SUB DUP4 AND OR SWAP1 SSTORE JUMPDEST POP JUMP JUMPDEST PUSH1 0x0 PUSH2 0xE35 PUSH2 0x1ED1 JUMP JUMPDEST PUSH1 0x13 DUP1 SLOAD PUSH1 0x1 PUSH1 0x48 SHL SWAP1 DIV PUSH3 0xFFFFFF AND SWAP1 PUSH1 0x9 PUSH2 0xE51 DUP4 PUSH2 0x3923 JUMP JUMPDEST DUP3 SLOAD PUSH2 0x100 SWAP3 SWAP1 SWAP3 EXP PUSH3 0xFFFFFF DUP2 DUP2 MUL NOT SWAP1 SWAP4 AND SWAP2 DUP4 AND MUL OR SWAP1 SWAP2 SSTORE PUSH1 0x13 SLOAD DUP1 DUP3 AND SWAP3 POP PUSH2 0xE90 SWAP2 PUSH4 0x1000000 DUP3 DIV DUP2 AND SWAP2 PUSH1 0x1 PUSH1 0x48 SHL SWAP1 DIV AND PUSH2 0x3946 JUMP JUMPDEST PUSH3 0xFFFFFF AND GT ISZERO PUSH2 0xEA0 JUMPI PUSH1 0x0 DUP1 REVERT JUMPDEST PUSH1 0x13 SLOAD PUSH3 0xFFFFFF DUP1 DUP3 AND SWAP2 PUSH2 0xEC6 SWAP2 PUSH1 0x1 PUSH1 0x48 SHL DUP3 DIV DUP2 AND SWAP2 PUSH1 0x1 PUSH1 0x30 SHL SWAP1 DIV AND PUSH2 0x3946 JUMP JUMPDEST PUSH3 0xFFFFFF AND EQ ISZERO PUSH2 0xF37 JUMPI PUSH1 0x11 SLOAD PUSH1 0x12 SLOAD PUSH1 0x40 MLOAD PUSH4 0x1122F8A9 PUSH1 0xE1 SHL DUP2 MSTORE PUSH1 0x4 DUP2 ADD SWAP2 SWAP1 SWAP2 MSTORE PUSH1 0x1 PUSH1 0x1 PUSH1 0xA0 SHL SUB SWAP1 SWAP2 AND SWAP1 DUP2 SWAP1 PUSH4 0x2245F152 SWAP1 PUSH1 0x24 ADD PUSH1 0x0 PUSH1 0x40 MLOAD DUP1 DUP4 SUB DUP2 PUSH1 0x0 DUP8 DUP1 EXTCODESIZE ISZERO DUP1 ISZERO PUSH2 0xF1D JUMPI PUSH1 0x0 DUP1 REVERT JUMPDEST POP GAS CALL ISZERO DUP1 ISZERO PUSH2 0xF31 JUMPI RETURNDATASIZE PUSH1 0x0 DUP1 RETURNDATACOPY RETURNDATASIZE PUSH1 0x0 REVERT JUMPDEST POP POP POP POP POP JUMPDEST PUSH1 0x11 SLOAD CALLER PUSH1 0x0 SWAP1 DUP2 MSTORE PUSH1 0x1B PUSH1 0x20 MSTORE PUSH1 0x40 SWAP1 KECCAK256 SLOAD PUSH1 0x1 PUSH1 0x1 PUSH1 0xA0 SHL SUB SWAP1 SWAP2 AND SWAP1 PUSH1 0xFF AND DUP1 PUSH2 0xFE1 JUMPI POP PUSH1 0x12 SLOAD PUSH1 0x40 MLOAD PUSH4 0x31A9108F PUSH1 0xE1 SHL DUP2 MSTORE PUSH1 0x4 DUP2 ADD SWAP2 SWAP1 SWAP2 MSTORE PUSH1 0x1 PUSH1 0x1 PUSH1 0xA0 SHL SUB DUP3 AND SWAP1 PUSH4 0x6352211E SWAP1 PUSH1 0x24 ADD PUSH1 0x20 PUSH1 0x40 MLOAD DUP1 DUP4 SUB DUP2 DUP7 GAS STATICCALL ISZERO DUP1 ISZERO PUSH2 0xFA8 JUMPI RETURNDATASIZE PUSH1 0x0 DUP1 RETURNDATACOPY RETURNDATASIZE PUSH1 0x0 REVERT JUMPDEST POP POP POP POP PUSH1 0x40 MLOAD RETURNDATASIZE PUSH1 0x1F NOT PUSH1 0x1F DUP3 ADD AND DUP3 ADD DUP1 PUSH1 0x40 MSTORE POP DUP2 ADD SWAP1 PUSH2 0xFCC SWAP2 SWAP1 PUSH2 0x39A4 JUMP JUMPDEST PUSH1 0x1 PUSH1 0x1 PUSH1 0xA0 SHL SUB AND CALLER PUSH1 0x1 PUSH1 0x1 PUSH1 0xA0 SHL SUB AND EQ JUMPDEST PUSH2 0xFEA JUMPI PUSH1 0x0 DUP1 REVERT JUMPDEST CALLER PUSH1 0x0 SWAP1 DUP2 MSTORE PUSH1 0x1B PUSH1 0x20 MSTORE PUSH1 0x40 SWAP1 KECCAK256 SLOAD PUSH1 0xFF AND DUP1 ISZERO PUSH2 0x100A JUMPI POP PUSH1 0x1A SLOAD ISZERO ISZERO JUMPDEST ISZERO PUSH2 0x104E JUMPI PUSH1 0x1A SLOAD PUSH1 0x40 DUP1 MLOAD DUP1 DUP3 ADD SWAP1 SWAP2 MSTORE PUSH1 0x3 DUP2 MSTORE PUSH3 0x64607 PUSH1 0xEB SHL PUSH1 0x20 DUP3 ADD MSTORE SWAP1 TIMESTAMP GT PUSH2 0x104C JUMPI PUSH1 0x40 MLOAD PUSH3 0x461BCD PUSH1 0xE5 SHL DUP2 MSTORE PUSH1 0x4 ADD PUSH2 0x965 SWAP2 SWAP1 PUSH2 0x31B6 JUMP JUMPDEST POP JUMPDEST PUSH1 0x13 SLOAD PUSH2 0x1070 SWAP1 PUSH3 0xFFFFFF PUSH4 0x1000000 DUP3 DIV DUP2 AND SWAP2 PUSH1 0x1 PUSH1 0x48 SHL SWAP1 DIV AND PUSH2 0x3946 JUMP JUMPDEST PUSH3 0xFFFFFF AND PUSH3 0xF4240 PUSH1 0x11 PUSH1 0x1 ADD SLOAD PUSH2 0x1089 SWAP2 SWAP1 PUSH2 0x396D JUMP JUMPDEST PUSH2 0x1093 SWAP2 SWAP1 PUSH2 0x398C JUMP JUMPDEST SWAP2 POP PUSH2 0x109F CALLER DUP4 PUSH2 0x1F2B JUMP JUMPDEST PUSH1 0xC SLOAD PUSH1 0x40 MLOAD PUSH4 0x1DA00D85 PUSH1 0xE0 SHL DUP2 MSTORE PUSH1 0x4 DUP2 ADD DUP5 SWAP1 MSTORE PUSH1 0x1 PUSH1 0x1 PUSH1 0xA0 SHL SUB SWAP1 SWAP2 AND SWAP1 PUSH1 0x0 SWAP1 DUP3 SWAP1 PUSH4 0x1DA00D85 SWAP1 PUSH1 0x24 ADD PUSH1 0x20 PUSH1 0x40 MLOAD DUP1 DUP4 SUB DUP2 PUSH1 0x0 DUP8 GAS CALL ISZERO DUP1 ISZERO PUSH2 0x10EF JUMPI RETURNDATASIZE PUSH1 0x0 DUP1 RETURNDATACOPY RETURNDATASIZE PUSH1 0x0 REVERT JUMPDEST POP POP POP POP PUSH1 0x40 MLOAD RETURNDATASIZE PUSH1 0x1F NOT PUSH1 0x1F DUP3 ADD AND DUP3 ADD DUP1 PUSH1 0x40 MSTORE POP DUP2 ADD SWAP1 PUSH2 0x1113 SWAP2 SWAP1 PUSH2 0x387D JUMP JUMPDEST SWAP1 POP PUSH2 0x111F DUP5 DUP3 PUSH2 0x1F45 JUMP JUMPDEST PUSH1 0x40 DUP1 MLOAD CALLER DUP2 MSTORE PUSH1 0x20 DUP2 ADD DUP7 SWAP1 MSTORE PUSH32 0xF6798A560793A54C3BCFE86A93CDE1E73087D944C0EA20544137D4121396885 SWAP2 ADD PUSH1 0x40 MLOAD DUP1 SWAP2 SUB SWAP1 LOG1 POP POP POP PUSH2 0xD97 PUSH1 0x1 PUSH1 0x7 SSTORE JUMP JUMPDEST DUP3 PUSH1 0x1 PUSH1 0x1 PUSH1 0xA0 SHL SUB DUP2 AND CALLER EQ PUSH2 0x117F JUMPI PUSH2 0x117F CALLER PUSH2 0x2487 JUMP JUMPDEST PUSH2 0x118A DUP5 DUP5 DUP5 PUSH2 0x2540 JUMP JUMPDEST POP POP POP POP JUMP JUMPDEST PUSH1 0x0 DUP1 PUSH2 0x119D DUP5 DUP5 PUSH2 0x2571 JUMP JUMPDEST SWAP2 POP SWAP2 POP SWAP3 POP SWAP3 SWAP1 POP JUMP JUMPDEST PUSH1 0xF DUP1 SLOAD PUSH2 0x11B5 SWAP1 PUSH2 0x3842 JUMP JUMPDEST DUP1 PUSH1 0x1F ADD PUSH1 0x20 DUP1 SWAP2 DIV MUL PUSH1 0x20 ADD PUSH1 0x40 MLOAD SWAP1 DUP2 ADD PUSH1 0x40 MSTORE DUP1 SWAP3 SWAP2 SWAP1 DUP2 DUP2 MSTORE PUSH1 0x20 ADD DUP3 DUP1 SLOAD PUSH2 0x11E1 SWAP1 PUSH2 0x3842 JUMP JUMPDEST DUP1 ISZERO PUSH2 0x122E JUMPI DUP1 PUSH1 0x1F LT PUSH2 0x1203 JUMPI PUSH2 0x100 DUP1 DUP4 SLOAD DIV MUL DUP4 MSTORE SWAP2 PUSH1 0x20 ADD SWAP2 PUSH2 0x122E JUMP JUMPDEST DUP3 ADD SWAP2 SWAP1 PUSH1 0x0 MSTORE PUSH1 0x20 PUSH1 0x0 KECCAK256 SWAP1 JUMPDEST DUP2 SLOAD DUP2 MSTORE SWAP1 PUSH1 0x1 ADD SWAP1 PUSH1 0x20 ADD DUP1 DUP4 GT PUSH2 0x1211 JUMPI DUP3 SWAP1 SUB PUSH1 0x1F AND DUP3 ADD SWAP2 JUMPDEST POP POP POP POP POP DUP2 JUMP JUMPDEST DUP3 PUSH1 0x1 PUSH1 0x1 PUSH1 0xA0 SHL SUB DUP2 AND CALLER EQ PUSH2 0x1250 JUMPI PUSH2 0x1250 CALLER PUSH2 0x2487 JUMP JUMPDEST PUSH2 0x118A DUP5 DUP5 DUP5 PUSH2 0x260D JUMP JUMPDEST PUSH1 0xE DUP1 SLOAD PUSH2 0x11B5 SWAP1 PUSH2 0x3842 JUMP JUMPDEST PUSH1 0xA SLOAD PUSH1 0x1 PUSH1 0x1 PUSH1 0xA0 SHL SUB AND CALLER EQ DUP1 ISZERO PUSH2 0x128A JUMPI POP PUSH1 0x1 PUSH1 0x1 PUSH1 0xA0 SHL SUB DUP2 AND ISZERO ISZERO JUMPDEST PUSH1 0x40 MLOAD DUP1 PUSH1 0x40 ADD PUSH1 0x40 MSTORE DUP1 PUSH1 0x3 DUP2 MSTORE PUSH1 0x20 ADD PUSH3 0x313031 PUSH1 0xE8 SHL DUP2 MSTORE POP SWAP1 PUSH2 0x12C4 JUMPI PUSH1 0x40 MLOAD PUSH3 0x461BCD PUSH1 0xE5 SHL DUP2 MSTORE PUSH1 0x4 ADD PUSH2 0x965 SWAP2 SWAP1 PUSH2 0x31B6 JUMP JUMPDEST POP PUSH1 0xD SLOAD PUSH1 0x1 PUSH1 0x1 PUSH1 0xA0 SHL SUB DUP3 DUP2 AND SWAP2 AND EQ PUSH2 0xE28 JUMPI PUSH1 0xD DUP1 SLOAD PUSH1 0x1 PUSH1 0x1 PUSH1 0xA0 SHL SUB DUP4 AND PUSH1 0x1 PUSH1 0x1 PUSH1 0xA0 SHL SUB NOT SWAP1 SWAP2 AND OR SWAP1 SSTORE POP JUMP JUMPDEST PUSH1 0x0 PUSH2 0x1308 PUSH1 0x6 SLOAD PUSH1 0xFF AND SWAP1 JUMP JUMPDEST ISZERO SWAP1 POP SWAP1 JUMP JUMPDEST PUSH1 0xA SLOAD PUSH1 0x1 PUSH1 0x1 PUSH1 0xA0 SHL SUB AND CALLER EQ DUP1 PUSH2 0x1331 JUMPI POP PUSH1 0x11 SLOAD PUSH1 0x1 PUSH1 0x1 PUSH1 0xA0 SHL SUB AND CALLER EQ JUMPDEST PUSH1 0x40 MLOAD DUP1 PUSH1 0x40 ADD PUSH1 0x40 MSTORE DUP1 PUSH1 0x3 DUP2 MSTORE PUSH1 0x20 ADD PUSH3 0x313031 PUSH1 0xE8 SHL DUP2 MSTORE POP SWAP1 PUSH2 0x136B JUMPI PUSH1 0x40 MLOAD PUSH3 0x461BCD PUSH1 0xE5 SHL DUP2 MSTORE PUSH1 0x4 ADD PUSH2 0x965 SWAP2 SWAP1 PUSH2 0x31B6 JUMP JUMPDEST POP PUSH2 0xE28 DUP2 PUSH2 0x2628 JUMP JUMPDEST PUSH1 0x0 PUSH2 0x1380 DUP3 PUSH2 0x1EB4 JUMP JUMPDEST PUSH1 0x40 MLOAD DUP1 PUSH1 0x40 ADD PUSH1 0x40 MSTORE DUP1 PUSH1 0x3 DUP2 MSTORE PUSH1 0x20 ADD PUSH3 0x323039 PUSH1 0xE8 SHL DUP2 MSTORE POP SWAP1 PUSH2 0x13BA JUMPI PUSH1 0x40 MLOAD PUSH3 0x461BCD PUSH1 0xE5 SHL DUP2 MSTORE PUSH1 0x4 ADD PUSH2 0x965 SWAP2 SWAP1 PUSH2 0x31B6 JUMP JUMPDEST POP PUSH1 0x0 DUP3 DUP2 MSTORE PUSH1 0x9 PUSH1 0x20 MSTORE PUSH1 0x40 SWAP1 KECCAK256 SLOAD PUSH1 0x1 PUSH1 0xA0 SHL SWAP1 DIV PUSH1 0xA0 SHL PUSH1 0x1 PUSH1 0x1 PUSH1 0xA0 SHL SUB NOT AND PUSH2 0x13EA JUMPI POP PUSH1 0x0 SWAP2 SWAP1 POP JUMP JUMPDEST PUSH1 0x0 DUP3 DUP2 MSTORE PUSH1 0x9 PUSH1 0x20 SWAP1 DUP2 MSTORE PUSH1 0x40 SWAP2 DUP3 SWAP1 KECCAK256 SLOAD SWAP2 MLOAD PUSH2 0x1424 SWAP3 PUSH1 0x1 PUSH1 0xA0 SHL SWAP1 DIV PUSH1 0xA0 SHL SWAP2 ADD PUSH1 0x1 PUSH1 0x1 PUSH1 0xA0 SHL SUB NOT SWAP2 SWAP1 SWAP2 AND DUP2 MSTORE PUSH1 0x20 ADD SWAP1 JUMP JUMPDEST PUSH1 0x40 MLOAD PUSH1 0x20 DUP2 DUP4 SUB SUB DUP2 MSTORE SWAP1 PUSH1 0x40 MSTORE DUP1 MLOAD SWAP1 PUSH1 0x20 ADD KECCAK256 SWAP1 POP SWAP2 SWAP1 POP JUMP JUMPDEST PUSH1 0x0 PUSH1 0x1 PUSH1 0x1 PUSH1 0xA0 SHL SUB DUP3 AND PUSH2 0x14AB JUMPI PUSH1 0x40 MLOAD PUSH3 0x461BCD PUSH1 0xE5 SHL DUP2 MSTORE PUSH1 0x20 PUSH1 0x4 DUP3 ADD MSTORE PUSH1 0x29 PUSH1 0x24 DUP3 ADD MSTORE PUSH32 0x4552433732313A2061646472657373207A65726F206973206E6F742061207661 PUSH1 0x44 DUP3 ADD MSTORE PUSH9 0x3634B21037BBB732B9 PUSH1 0xB9 SHL PUSH1 0x64 DUP3 ADD MSTORE PUSH1 0x84 ADD PUSH2 0x965 JUMP JUMPDEST POP PUSH1 0x1 PUSH1 0x1 PUSH1 0xA0 SHL SUB AND PUSH1 0x0 SWAP1 DUP2 MSTORE PUSH1 0x3 PUSH1 0x20 MSTORE PUSH1 0x40 SWAP1 KECCAK256 SLOAD SWAP1 JUMP JUMPDEST PUSH2 0x14CF PUSH2 0x263E JUMP JUMPDEST PUSH2 0x14D9 PUSH1 0x0 PUSH2 0x26BC JUMP JUMPDEST JUMP JUMPDEST PUSH1 0x11 DUP1 SLOAD PUSH1 0x12 SLOAD PUSH1 0x13 SLOAD PUSH1 0x14 DUP1 SLOAD PUSH1 0x1 PUSH1 0x1 PUSH1 0xA0 SHL SUB SWAP1 SWAP5 AND SWAP5 SWAP3 SWAP4 PUSH3 0xFFFFFF DUP1 DUP5 AND SWAP5 PUSH4 0x1000000 DUP6 DIV DUP3 AND SWAP5 PUSH1 0x1 PUSH1 0x30 SHL DUP2 DIV DUP4 AND SWAP5 PUSH1 0x1 PUSH1 0x48 SHL SWAP1 SWAP2 DIV SWAP1 SWAP3 AND SWAP3 SWAP1 SWAP2 SWAP1 PUSH2 0x152B SWAP1 PUSH2 0x3842 JUMP JUMPDEST DUP1 PUSH1 0x1F ADD PUSH1 0x20 DUP1 SWAP2 DIV MUL PUSH1 0x20 ADD PUSH1 0x40 MLOAD SWAP1 DUP2 ADD PUSH1 0x40 MSTORE DUP1 SWAP3 SWAP2 SWAP1 DUP2 DUP2 MSTORE PUSH1 0x20 ADD DUP3 DUP1 SLOAD PUSH2 0x1557 SWAP1 PUSH2 0x3842 JUMP JUMPDEST DUP1 ISZERO PUSH2 0x15A4 JUMPI DUP1 PUSH1 0x1F LT PUSH2 0x1579 JUMPI PUSH2 0x100 DUP1 DUP4 SLOAD DIV MUL DUP4 MSTORE SWAP2 PUSH1 0x20 ADD SWAP2 PUSH2 0x15A4 JUMP JUMPDEST DUP3 ADD SWAP2 SWAP1 PUSH1 0x0 MSTORE PUSH1 0x20 PUSH1 0x0 KECCAK256 SWAP1 JUMPDEST DUP2 SLOAD DUP2 MSTORE SWAP1 PUSH1 0x1 ADD SWAP1 PUSH1 0x20 ADD DUP1 DUP4 GT PUSH2 0x1587 JUMPI DUP3 SWAP1 SUB PUSH1 0x1F AND DUP3 ADD SWAP2 JUMPDEST POP POP POP POP PUSH1 0x4 DUP4 ADD SLOAD PUSH1 0x5 DUP5 ADD SLOAD PUSH1 0x6 DUP6 ADD SLOAD PUSH1 0x7 DUP7 ADD DUP1 SLOAD SWAP6 SWAP7 PUSH1 0x1 PUSH1 0x1 PUSH1 0xA0 SHL SUB SWAP5 DUP6 AND SWAP7 SWAP4 SWAP6 POP SWAP4 SWAP1 SWAP2 AND SWAP3 SWAP2 PUSH2 0x15DD SWAP1 PUSH2 0x3842 JUMP JUMPDEST DUP1 PUSH1 0x1F ADD PUSH1 0x20 DUP1 SWAP2 DIV MUL PUSH1 0x20 ADD PUSH1 0x40 MLOAD SWAP1 DUP2 ADD PUSH1 0x40 MSTORE DUP1 SWAP3 SWAP2 SWAP1 DUP2 DUP2 MSTORE PUSH1 0x20 ADD DUP3 DUP1 SLOAD PUSH2 0x1609 SWAP1 PUSH2 0x3842 JUMP JUMPDEST DUP1 ISZERO PUSH2 0x1656 JUMPI DUP1 PUSH1 0x1F LT PUSH2 0x162B JUMPI PUSH2 0x100 DUP1 DUP4 SLOAD DIV MUL DUP4 MSTORE SWAP2 PUSH1 0x20 ADD SWAP2 PUSH2 0x1656 JUMP JUMPDEST DUP3 ADD SWAP2 SWAP1 PUSH1 0x0 MSTORE PUSH1 0x20 PUSH1 0x0 KECCAK256 SWAP1 JUMPDEST DUP2 SLOAD DUP2 MSTORE SWAP1 PUSH1 0x1 ADD SWAP1 PUSH1 0x20 ADD DUP1 DUP4 GT PUSH2 0x1639 JUMPI DUP3 SWAP1 SUB PUSH1 0x1F AND DUP3 ADD SWAP2 JUMPDEST POP POP PUSH1 0x40 DUP1 MLOAD DUP1 DUP3 ADD SWAP1 SWAP2 MSTORE PUSH1 0x8 DUP7 ADD SLOAD DUP2 MSTORE PUSH1 0x9 SWAP1 SWAP6 ADD SLOAD PUSH1 0x20 DUP7 ADD MSTORE POP SWAP2 SWAP3 SWAP2 POP DUP14 SWAP1 POP JUMP JUMPDEST PUSH1 0xA SLOAD PUSH1 0x1 PUSH1 0x1 PUSH1 0xA0 SHL SUB AND CALLER EQ DUP1 ISZERO PUSH2 0x16A0 JUMPI POP PUSH1 0x1 PUSH1 0x1 PUSH1 0xA0 SHL SUB DUP2 AND ISZERO ISZERO JUMPDEST PUSH1 0x40 MLOAD DUP1 PUSH1 0x40 ADD PUSH1 0x40 MSTORE DUP1 PUSH1 0x3 DUP2 MSTORE PUSH1 0x20 ADD PUSH3 0x313031 PUSH1 0xE8 SHL DUP2 MSTORE POP SWAP1 PUSH2 0x16DA JUMPI PUSH1 0x40 MLOAD PUSH3 0x461BCD PUSH1 0xE5 SHL DUP2 MSTORE PUSH1 0x4 ADD PUSH2 0x965 SWAP2 SWAP1 PUSH2 0x31B6 JUMP JUMPDEST POP PUSH1 0xA SLOAD PUSH1 0x1 PUSH1 0x1 PUSH1 0xA0 SHL SUB DUP3 DUP2 AND SWAP2 AND EQ PUSH2 0xE28 JUMPI PUSH1 0xA DUP1 SLOAD PUSH1 0x1 PUSH1 0x1 PUSH1 0xA0 SHL SUB DUP4 AND PUSH1 0x1 PUSH1 0x1 PUSH1 0xA0 SHL SUB NOT SWAP1 SWAP2 AND OR SWAP1 SSTORE POP JUMP JUMPDEST PUSH1 0x60 PUSH1 0xF DUP1 SLOAD PUSH2 0x846 SWAP1 PUSH2 0x3842 JUMP JUMPDEST PUSH1 0xA SLOAD PUSH1 0x1 PUSH1 0x1 PUSH1 0xA0 SHL SUB AND CALLER EQ PUSH2 0x1736 JUMPI PUSH1 0x0 DUP1 REVERT JUMPDEST PUSH1 0x40 DUP1 MLOAD DUP1 DUP3 ADD SWAP1 SWAP2 MSTORE PUSH1 0x3 DUP2 MSTORE PUSH3 0x323035 PUSH1 0xE8 SHL PUSH1 0x20 DUP3 ADD MSTORE PUSH2 0x2710 DUP3 GT ISZERO PUSH2 0x1773 JUMPI PUSH1 0x40 MLOAD PUSH3 0x461BCD PUSH1 0xE5 SHL DUP2 MSTORE PUSH1 0x4 ADD PUSH2 0x965 SWAP2 SWAP1 PUSH2 0x31B6 JUMP JUMPDEST POP PUSH1 0x40 DUP1 MLOAD PUSH1 0x60 DUP2 ADD DUP3 MSTORE PUSH1 0x1 PUSH1 0x1 PUSH1 0xA0 SHL SUB SWAP4 DUP5 AND DUP2 MSTORE PUSH3 0xFFFFFF SWAP3 DUP4 AND PUSH1 0x20 DUP1 DUP4 ADD SWAP2 DUP3 MSTORE PUSH1 0x1 DUP4 DUP6 ADD SWAP1 DUP2 MSTORE PUSH1 0x0 SWAP8 DUP9 MSTORE PUSH1 0x10 SWAP1 SWAP2 MSTORE SWAP3 SWAP1 SWAP6 KECCAK256 SWAP1 MLOAD DUP2 SLOAD SWAP6 MLOAD SWAP3 MLOAD SWAP5 AND PUSH1 0x1 PUSH1 0x1 PUSH1 0xB8 SHL SUB NOT SWAP1 SWAP6 AND SWAP5 SWAP1 SWAP5 OR PUSH1 0x1 PUSH1 0xA0 SHL SWAP2 SWAP1 SWAP3 AND MUL OR PUSH1 0xFF PUSH1 0xB8 SHL NOT AND PUSH1 0x1 PUSH1 0xB8 SHL SWAP2 ISZERO ISZERO SWAP2 SWAP1 SWAP2 MUL OR SWAP1 SSTORE JUMP JUMPDEST PUSH2 0x17F8 CALLER DUP4 DUP4 PUSH2 0x270E JUMP JUMPDEST POP POP JUMP JUMPDEST DUP4 PUSH1 0x1 PUSH1 0x1 PUSH1 0xA0 SHL SUB DUP2 AND CALLER EQ PUSH2 0x1816 JUMPI PUSH2 0x1816 CALLER PUSH2 0x2487 JUMP JUMPDEST PUSH2 0x1822 DUP6 DUP6 DUP6 DUP6 PUSH2 0x27DD JUMP JUMPDEST POP POP POP POP POP JUMP JUMPDEST PUSH1 0x60 PUSH2 0x1834 DUP3 PUSH2 0x1EB4 JUMP JUMPDEST PUSH1 0x40 MLOAD DUP1 PUSH1 0x40 ADD PUSH1 0x40 MSTORE DUP1 PUSH1 0x3 DUP2 MSTORE PUSH1 0x20 ADD PUSH3 0x323039 PUSH1 0xE8 SHL DUP2 MSTORE POP SWAP1 PUSH2 0x186E JUMPI PUSH1 0x40 MLOAD PUSH3 0x461BCD PUSH1 0xE5 SHL DUP2 MSTORE PUSH1 0x4 ADD PUSH2 0x965 SWAP2 SWAP1 PUSH2 0x31B6 JUMP JUMPDEST POP PUSH1 0xD SLOAD PUSH1 0x40 MLOAD PUSH4 0x188687DD PUSH1 0xE2 SHL DUP2 MSTORE PUSH1 0x4 DUP2 ADD DUP5 SWAP1 MSTORE PUSH1 0x1 PUSH1 0x1 PUSH1 0xA0 SHL SUB SWAP1 SWAP2 AND SWAP1 PUSH1 0x0 SWAP1 ADDRESS SWAP1 PUSH4 0x621A1F74 SWAP1 PUSH1 0x24 ADD PUSH1 0x20 PUSH1 0x40 MLOAD DUP1 DUP4 SUB DUP2 DUP7 GAS STATICCALL ISZERO DUP1 ISZERO PUSH2 0x18BD JUMPI RETURNDATASIZE PUSH1 0x0 DUP1 RETURNDATACOPY RETURNDATASIZE PUSH1 0x0 REVERT JUMPDEST POP POP POP POP PUSH1 0x40 MLOAD RETURNDATASIZE PUSH1 0x1F NOT PUSH1 0x1F DUP3 ADD AND DUP3 ADD DUP1 PUSH1 0x40 MSTORE POP DUP2 ADD SWAP1 PUSH2 0x18E1 SWAP2 SWAP1 PUSH2 0x387D JUMP JUMPDEST PUSH1 0x12 SLOAD PUSH1 0x40 MLOAD PUSH4 0x8DD54E9 PUSH1 0xE3 SHL DUP2 MSTORE PUSH1 0x4 DUP2 ADD SWAP2 SWAP1 SWAP2 MSTORE PUSH1 0x24 DUP2 ADD DUP7 SWAP1 MSTORE PUSH1 0x44 DUP2 ADD DUP3 SWAP1 MSTORE SWAP1 SWAP2 POP PUSH1 0x1 PUSH1 0x1 PUSH1 0xA0 SHL SUB DUP4 AND SWAP1 PUSH4 0x46EAA748 SWAP1 PUSH1 0x64 ADD PUSH2 0xB01 JUMP JUMPDEST PUSH1 0xA SLOAD PUSH1 0x40 DUP1 MLOAD DUP1 DUP3 ADD SWAP1 SWAP2 MSTORE PUSH1 0x3 DUP2 MSTORE PUSH3 0x191819 PUSH1 0xE9 SHL PUSH1 0x20 DUP3 ADD MSTORE SWAP1 PUSH1 0x1 PUSH1 0x1 PUSH1 0xA0 SHL SUB AND ISZERO PUSH2 0x1968 JUMPI PUSH1 0x40 MLOAD PUSH3 0x461BCD PUSH1 0xE5 SHL DUP2 MSTORE PUSH1 0x4 ADD PUSH2 0x965 SWAP2 SWAP1 PUSH2 0x31B6 JUMP JUMPDEST POP PUSH1 0x40 DUP1 MLOAD DUP1 DUP3 ADD SWAP1 SWAP2 MSTORE PUSH1 0x3 DUP2 MSTORE PUSH3 0x31303 PUSH1 0xEC SHL PUSH1 0x20 DUP3 ADD MSTORE PUSH1 0x1 PUSH1 0x1 PUSH1 0xA0 SHL SUB DUP8 AND PUSH2 0x19AA JUMPI PUSH1 0x40 MLOAD PUSH3 0x461BCD PUSH1 0xE5 SHL DUP2 MSTORE PUSH1 0x4 ADD PUSH2 0x965 SWAP2 SWAP1 PUSH2 0x31B6 JUMP JUMPDEST POP DUP7 MLOAD PUSH1 0x11 DUP1 SLOAD PUSH1 0x1 PUSH1 0x1 PUSH1 0xA0 SHL SUB SWAP1 SWAP3 AND PUSH1 0x1 PUSH1 0x1 PUSH1 0xA0 SHL SUB NOT SWAP1 SWAP3 AND SWAP2 SWAP1 SWAP2 OR DUP2 SSTORE PUSH1 0x20 DUP1 DUP10 ADD MLOAD PUSH1 0x12 SSTORE PUSH1 0x40 DUP10 ADD MLOAD PUSH1 0x13 DUP1 SLOAD PUSH1 0x60 DUP13 ADD MLOAD PUSH1 0x80 DUP14 ADD MLOAD PUSH1 0xA0 DUP15 ADD MLOAD PUSH3 0xFFFFFF SWAP1 DUP2 AND PUSH1 0x1 PUSH1 0x48 SHL MUL PUSH12 0xFFFFFF000000000000000000 NOT SWAP3 DUP3 AND PUSH1 0x1 PUSH1 0x30 SHL MUL SWAP3 SWAP1 SWAP3 AND PUSH12 0xFFFFFFFFFFFF000000000000 NOT SWAP4 DUP3 AND PUSH4 0x1000000 MUL PUSH6 0xFFFFFFFFFFFF NOT SWAP1 SWAP6 AND SWAP2 SWAP1 SWAP7 AND OR SWAP3 SWAP1 SWAP3 OR AND SWAP3 SWAP1 SWAP3 OR SWAP2 SWAP1 SWAP2 OR SWAP1 SSTORE PUSH1 0xC0 DUP10 ADD MLOAD DUP1 MLOAD DUP11 SWAP4 SWAP3 PUSH2 0x1A66 SWAP3 PUSH1 0x14 SWAP3 SWAP2 ADD SWAP1 PUSH2 0x308B JUMP JUMPDEST POP PUSH1 0xE0 DUP3 ADD MLOAD PUSH1 0x4 DUP3 ADD DUP1 SLOAD PUSH1 0x1 PUSH1 0x1 PUSH1 0xA0 SHL SUB SWAP3 DUP4 AND PUSH1 0x1 PUSH1 0x1 PUSH1 0xA0 SHL SUB NOT SWAP2 DUP3 AND OR SWAP1 SWAP2 SSTORE PUSH2 0x100 DUP5 ADD MLOAD PUSH1 0x5 DUP5 ADD SSTORE PUSH2 0x120 DUP5 ADD MLOAD PUSH1 0x6 DUP5 ADD DUP1 SLOAD SWAP2 SWAP1 SWAP4 AND SWAP2 AND OR SWAP1 SSTORE PUSH2 0x140 DUP3 ADD MLOAD DUP1 MLOAD PUSH2 0x1AC9 SWAP2 PUSH1 0x7 DUP5 ADD SWAP2 PUSH1 0x20 SWAP1 SWAP2 ADD SWAP1 PUSH2 0x308B JUMP JUMPDEST POP PUSH2 0x160 SWAP2 SWAP1 SWAP2 ADD MLOAD DUP1 MLOAD PUSH1 0x8 DUP4 ADD SSTORE PUSH1 0x20 SWAP1 DUP2 ADD MLOAD PUSH1 0x9 SWAP1 SWAP3 ADD SWAP2 SWAP1 SWAP2 SSTORE PUSH1 0xB DUP1 SLOAD PUSH1 0x1 PUSH1 0x1 PUSH1 0xA0 SHL SUB DUP1 DUP10 AND PUSH1 0x1 PUSH1 0x1 PUSH1 0xA0 SHL SUB NOT SWAP3 DUP4 AND OR SWAP1 SWAP3 SSTORE PUSH1 0xA DUP1 SLOAD DUP11 DUP5 AND SWAP1 DUP4 AND OR SWAP1 SSTORE PUSH1 0xC DUP1 SLOAD DUP9 DUP5 AND SWAP1 DUP4 AND OR SWAP1 SSTORE PUSH1 0xD DUP1 SLOAD SWAP3 DUP8 AND SWAP3 SWAP1 SWAP2 AND SWAP2 SWAP1 SWAP2 OR SWAP1 SSTORE PUSH2 0x140 DUP9 ADD MLOAD DUP1 MLOAD PUSH2 0x1B48 SWAP3 PUSH1 0xE SWAP3 ADD SWAP1 PUSH2 0x308B JUMP JUMPDEST POP PUSH2 0x1BE0 PUSH1 0x1 PUSH1 0x3 PUSH1 0xE DUP1 SLOAD PUSH2 0x1B5D SWAP1 PUSH2 0x3842 JUMP JUMPDEST DUP1 PUSH1 0x1F ADD PUSH1 0x20 DUP1 SWAP2 DIV MUL PUSH1 0x20 ADD PUSH1 0x40 MLOAD SWAP1 DUP2 ADD PUSH1 0x40 MSTORE DUP1 SWAP3 SWAP2 SWAP1 DUP2 DUP2 MSTORE PUSH1 0x20 ADD DUP3 DUP1 SLOAD PUSH2 0x1B89 SWAP1 PUSH2 0x3842 JUMP JUMPDEST DUP1 ISZERO PUSH2 0x1BD6 JUMPI DUP1 PUSH1 0x1F LT PUSH2 0x1BAB JUMPI PUSH2 0x100 DUP1 DUP4 SLOAD DIV MUL DUP4 MSTORE SWAP2 PUSH1 0x20 ADD SWAP2 PUSH2 0x1BD6 JUMP JUMPDEST DUP3 ADD SWAP2 SWAP1 PUSH1 0x0 MSTORE PUSH1 0x20 PUSH1 0x0 KECCAK256 SWAP1 JUMPDEST DUP2 SLOAD DUP2 MSTORE SWAP1 PUSH1 0x1 ADD SWAP1 PUSH1 0x20 ADD DUP1 DUP4 GT PUSH2 0x1BB9 JUMPI DUP3 SWAP1 SUB PUSH1 0x1F AND DUP3 ADD SWAP2 JUMPDEST POP POP POP POP POP PUSH2 0x280F JUMP JUMPDEST DUP1 MLOAD PUSH2 0x1BF4 SWAP2 PUSH1 0xF SWAP2 PUSH1 0x20 SWAP1 SWAP2 ADD SWAP1 PUSH2 0x308B JUMP JUMPDEST POP PUSH1 0x0 JUMPDEST DUP3 MLOAD DUP2 LT ISZERO PUSH2 0x1C5D JUMPI PUSH1 0x1 PUSH1 0x1B PUSH1 0x0 DUP6 DUP5 DUP2 MLOAD DUP2 LT PUSH2 0x1C19 JUMPI PUSH2 0x1C19 PUSH2 0x39C1 JUMP JUMPDEST PUSH1 0x20 SWAP1 DUP2 MUL SWAP2 SWAP1 SWAP2 ADD DUP2 ADD MLOAD PUSH1 0x1 PUSH1 0x1 PUSH1 0xA0 SHL SUB AND DUP3 MSTORE DUP2 ADD SWAP2 SWAP1 SWAP2 MSTORE PUSH1 0x40 ADD PUSH1 0x0 KECCAK256 DUP1 SLOAD PUSH1 0xFF NOT AND SWAP2 ISZERO ISZERO SWAP2 SWAP1 SWAP2 OR SWAP1 SSTORE DUP1 PUSH2 0x1C55 DUP2 PUSH2 0x39D7 JUMP JUMPDEST SWAP2 POP POP PUSH2 0x1BF8 JUMP JUMPDEST POP PUSH1 0xA SLOAD PUSH2 0x1C73 SWAP1 PUSH1 0x1 PUSH1 0x1 PUSH1 0xA0 SHL SUB AND PUSH2 0x1C8E JUMP JUMPDEST DUP1 ISZERO PUSH2 0x1C81 JUMPI PUSH2 0x1C81 PUSH2 0x28F6 JUMP JUMPDEST POP POP TIMESTAMP PUSH1 0x19 SSTORE POP POP POP POP POP JUMP JUMPDEST PUSH2 0x1C96 PUSH2 0x263E JUMP JUMPDEST PUSH1 0x1 PUSH1 0x1 PUSH1 0xA0 SHL SUB DUP2 AND PUSH2 0x1CFB JUMPI PUSH1 0x40 MLOAD PUSH3 0x461BCD PUSH1 0xE5 SHL DUP2 MSTORE PUSH1 0x20 PUSH1 0x4 DUP3 ADD MSTORE PUSH1 0x26 PUSH1 0x24 DUP3 ADD MSTORE PUSH32 0x4F776E61626C653A206E6577206F776E657220697320746865207A65726F2061 PUSH1 0x44 DUP3 ADD MSTORE PUSH6 0x646472657373 PUSH1 0xD0 SHL PUSH1 0x64 DUP3 ADD MSTORE PUSH1 0x84 ADD PUSH2 0x965 JUMP JUMPDEST PUSH2 0xE28 DUP2 PUSH2 0x26BC JUMP JUMPDEST PUSH1 0xA SLOAD PUSH1 0x1 PUSH1 0x1 PUSH1 0xA0 SHL SUB AND CALLER EQ DUP1 ISZERO PUSH2 0x1D26 JUMPI POP PUSH1 0x1 PUSH1 0x1 PUSH1 0xA0 SHL SUB DUP2 AND ISZERO ISZERO JUMPDEST PUSH1 0x40 MLOAD DUP1 PUSH1 0x40 ADD PUSH1 0x40 MSTORE DUP1 PUSH1 0x3 DUP2 MSTORE PUSH1 0x20 ADD PUSH3 0x313031 PUSH1 0xE8 SHL DUP2 MSTORE POP SWAP1 PUSH2 0x1D60 JUMPI PUSH1 0x40 MLOAD PUSH3 0x461BCD PUSH1 0xE5 SHL DUP2 MSTORE PUSH1 0x4 ADD PUSH2 0x965 SWAP2 SWAP1 PUSH2 0x31B6 JUMP JUMPDEST POP PUSH1 0xB SLOAD PUSH1 0x1 PUSH1 0x1 PUSH1 0xA0 SHL SUB DUP3 DUP2 AND SWAP2 AND EQ PUSH2 0xE28 JUMPI PUSH1 0xB DUP1 SLOAD PUSH1 0x1 PUSH1 0x1 PUSH1 0xA0 SHL SUB DUP4 AND PUSH1 0x1 PUSH1 0x1 PUSH1 0xA0 SHL SUB NOT SWAP1 SWAP2 AND OR SWAP1 SSTORE POP JUMP JUMPDEST PUSH2 0x1D9F DUP2 PUSH2 0x1EB4 JUMP JUMPDEST PUSH2 0xE28 JUMPI PUSH1 0x40 MLOAD PUSH3 0x461BCD PUSH1 0xE5 SHL DUP2 MSTORE PUSH1 0x20 PUSH1 0x4 DUP3 ADD MSTORE PUSH1 0x18 PUSH1 0x24 DUP3 ADD MSTORE PUSH24 0x115490CDCC8C4E881A5B9D985B1A59081D1BDAD95B881251 PUSH1 0x42 SHL PUSH1 0x44 DUP3 ADD MSTORE PUSH1 0x64 ADD PUSH2 0x965 JUMP JUMPDEST PUSH1 0x0 DUP2 DUP2 MSTORE PUSH1 0x2 PUSH1 0x20 MSTORE PUSH1 0x40 DUP2 KECCAK256 SLOAD PUSH1 0x1 PUSH1 0x1 PUSH1 0xA0 SHL SUB AND DUP1 PUSH2 0x831 JUMPI PUSH1 0x40 MLOAD PUSH3 0x461BCD PUSH1 0xE5 SHL DUP2 MSTORE PUSH1 0x20 PUSH1 0x4 DUP3 ADD MSTORE PUSH1 0x18 PUSH1 0x24 DUP3 ADD MSTORE PUSH24 0x115490CDCC8C4E881A5B9D985B1A59081D1BDAD95B881251 PUSH1 0x42 SHL PUSH1 0x44 DUP3 ADD MSTORE PUSH1 0x64 ADD PUSH2 0x965 JUMP JUMPDEST PUSH1 0x0 DUP2 DUP2 MSTORE PUSH1 0x4 PUSH1 0x20 MSTORE PUSH1 0x40 SWAP1 KECCAK256 DUP1 SLOAD PUSH1 0x1 PUSH1 0x1 PUSH1 0xA0 SHL SUB NOT AND PUSH1 0x1 PUSH1 0x1 PUSH1 0xA0 SHL SUB DUP5 AND SWAP1 DUP2 OR SWAP1 SWAP2 SSTORE DUP2 SWAP1 PUSH2 0x1E7B DUP3 PUSH2 0x1DE6 JUMP JUMPDEST PUSH1 0x1 PUSH1 0x1 PUSH1 0xA0 SHL SUB AND PUSH32 0x8C5BE1E5EBEC7D5BD14F71427D1E84F3DD0314C0F7B2291E5B200AC8C7C3B925 PUSH1 0x40 MLOAD PUSH1 0x40 MLOAD DUP1 SWAP2 SUB SWAP1 LOG4 POP POP JUMP JUMPDEST PUSH1 0x0 SWAP1 DUP2 MSTORE PUSH1 0x9 PUSH1 0x20 MSTORE PUSH1 0x40 SWAP1 KECCAK256 SLOAD PUSH1 0x1 PUSH1 0x1 PUSH1 0xA0 SHL SUB AND ISZERO ISZERO SWAP1 JUMP JUMPDEST PUSH1 0x2 PUSH1 0x7 SLOAD EQ ISZERO PUSH2 0x1F24 JUMPI PUSH1 0x40 MLOAD PUSH3 0x461BCD PUSH1 0xE5 SHL DUP2 MSTORE PUSH1 0x20 PUSH1 0x4 DUP3 ADD MSTORE PUSH1 0x1F PUSH1 0x24 DUP3 ADD MSTORE PUSH32 0x5265656E7472616E637947756172643A207265656E7472616E742063616C6C00 PUSH1 0x44 DUP3 ADD MSTORE PUSH1 0x64 ADD PUSH2 0x965 JUMP JUMPDEST PUSH1 0x2 PUSH1 0x7 SSTORE JUMP JUMPDEST PUSH2 0x17F8 DUP3 DUP3 PUSH1 0x40 MLOAD DUP1 PUSH1 0x20 ADD PUSH1 0x40 MSTORE DUP1 PUSH1 0x0 DUP2 MSTORE POP PUSH2 0x2950 JUMP JUMPDEST PUSH1 0x0 DUP3 DUP2 MSTORE PUSH1 0x9 PUSH1 0x20 SWAP1 DUP2 MSTORE PUSH1 0x40 SWAP2 DUP3 SWAP1 KECCAK256 SLOAD DUP3 MLOAD DUP1 DUP5 ADD SWAP1 SWAP4 MSTORE PUSH1 0x3 DUP4 MSTORE PUSH3 0x19181B PUSH1 0xE9 SHL SWAP2 DUP4 ADD SWAP2 SWAP1 SWAP2 MSTORE PUSH1 0x1 PUSH1 0xA0 SHL SWAP1 DIV PUSH1 0xA0 SHL PUSH1 0x1 PUSH1 0x1 PUSH1 0xA0 SHL SUB NOT AND ISZERO PUSH2 0x1FA4 JUMPI PUSH1 0x40 MLOAD PUSH3 0x461BCD PUSH1 0xE5 SHL DUP2 MSTORE PUSH1 0x4 ADD PUSH2 0x965 SWAP2 SWAP1 PUSH2 0x31B6 JUMP JUMPDEST POP PUSH1 0x40 DUP1 MLOAD DUP1 DUP3 ADD SWAP1 SWAP2 MSTORE PUSH1 0x3 DUP2 MSTORE PUSH3 0x323037 PUSH1 0xE8 SHL PUSH1 0x20 DUP3 ADD MSTORE DUP2 PUSH2 0x1FDD JUMPI PUSH1 0x40 MLOAD PUSH3 0x461BCD PUSH1 0xE5 SHL DUP2 MSTORE PUSH1 0x4 ADD PUSH2 0x965 SWAP2 SWAP1 PUSH2 0x31B6 JUMP JUMPDEST POP PUSH1 0x0 SWAP2 DUP3 MSTORE PUSH1 0x9 PUSH1 0x20 MSTORE PUSH1 0x40 SWAP1 SWAP2 KECCAK256 DUP1 SLOAD PUSH1 0xA0 SWAP3 SWAP1 SWAP3 SHR PUSH1 0x1 PUSH1 0xA0 SHL MUL PUSH1 0x1 PUSH1 0x1 PUSH1 0xA0 SHL SUB SWAP1 SWAP3 AND SWAP2 SWAP1 SWAP2 OR SWAP1 SSTORE JUMP JUMPDEST PUSH1 0x16 SLOAD DUP1 PUSH2 0x2019 JUMPI POP JUMP JUMPDEST PUSH1 0x11 SLOAD PUSH1 0xB SLOAD PUSH1 0x0 SWAP2 PUSH1 0x1 PUSH1 0x1 PUSH1 0xA0 SHL SUB SWAP1 DUP2 AND SWAP2 AND PUSH2 0x1F4 DUP2 ISZERO PUSH2 0x20D1 JUMPI PUSH1 0x40 DUP1 MLOAD DUP1 DUP3 ADD DUP3 MSTORE PUSH1 0x15 DUP2 MSTORE PUSH21 0x4D494E545F4E46545F4F50455241544F525F464545 PUSH1 0x58 SHL PUSH1 0x20 DUP3 ADD MSTORE SWAP1 MLOAD PUSH4 0x6D12DCE1 PUSH1 0xE0 SHL DUP2 MSTORE PUSH1 0x1 PUSH1 0x1 PUSH1 0xA0 SHL SUB DUP5 AND SWAP2 PUSH4 0x6D12DCE1 SWAP2 PUSH2 0x208D SWAP2 SWAP1 PUSH1 0x4 ADD PUSH2 0x31B6 JUMP JUMPDEST PUSH1 0x20 PUSH1 0x40 MLOAD DUP1 DUP4 SUB DUP2 DUP7 GAS STATICCALL ISZERO DUP1 ISZERO PUSH2 0x20AA JUMPI RETURNDATASIZE PUSH1 0x0 DUP1 RETURNDATACOPY RETURNDATASIZE PUSH1 0x0 REVERT JUMPDEST POP POP POP POP PUSH1 0x40 MLOAD RETURNDATASIZE PUSH1 0x1F NOT PUSH1 0x1F DUP3 ADD AND DUP3 ADD DUP1 PUSH1 0x40 MSTORE POP DUP2 ADD SWAP1 PUSH2 0x20CE SWAP2 SWAP1 PUSH2 0x387D JUMP JUMPDEST SWAP1 POP JUMPDEST PUSH1 0x1 PUSH1 0x1 PUSH1 0xA0 SHL SUB DUP5 AND PUSH2 0x2248 JUMPI DUP5 CALLVALUE LT ISZERO PUSH2 0x20EC JUMPI PUSH1 0x0 DUP1 REVERT JUMPDEST PUSH1 0x12 SLOAD PUSH1 0x40 MLOAD PUSH4 0x31A9108F PUSH1 0xE1 SHL DUP2 MSTORE PUSH1 0x0 SWAP2 PUSH1 0x1 PUSH1 0x1 PUSH1 0xA0 SHL SUB DUP7 AND SWAP2 PUSH4 0x6352211E SWAP2 PUSH2 0x2120 SWAP2 PUSH1 0x4 ADD SWAP1 DUP2 MSTORE PUSH1 0x20 ADD SWAP1 JUMP JUMPDEST PUSH1 0x20 PUSH1 0x40 MLOAD DUP1 DUP4 SUB DUP2 DUP7 GAS STATICCALL ISZERO DUP1 ISZERO PUSH2 0x213D JUMPI RETURNDATASIZE PUSH1 0x0 DUP1 RETURNDATACOPY RETURNDATASIZE PUSH1 0x0 REVERT JUMPDEST POP POP POP POP PUSH1 0x40 MLOAD RETURNDATASIZE PUSH1 0x1F NOT PUSH1 0x1F DUP3 ADD AND DUP3 ADD DUP1 PUSH1 0x40 MSTORE POP DUP2 ADD SWAP1 PUSH2 0x2161 SWAP2 SWAP1 PUSH2 0x39A4 JUMP JUMPDEST PUSH1 0x1 PUSH1 0x1 PUSH1 0xA0 SHL SUB AND PUSH2 0x2710 PUSH2 0x2177 DUP5 DUP10 PUSH2 0x396D JUMP JUMPDEST PUSH2 0x2181 SWAP2 SWAP1 PUSH2 0x39F2 JUMP JUMPDEST PUSH2 0x218B SWAP1 DUP9 PUSH2 0x3A14 JUMP JUMPDEST PUSH1 0x40 MLOAD PUSH1 0x0 DUP2 DUP2 DUP2 DUP6 DUP8 GAS CALL SWAP3 POP POP POP RETURNDATASIZE DUP1 PUSH1 0x0 DUP2 EQ PUSH2 0x21C7 JUMPI PUSH1 0x40 MLOAD SWAP2 POP PUSH1 0x1F NOT PUSH1 0x3F RETURNDATASIZE ADD AND DUP3 ADD PUSH1 0x40 MSTORE RETURNDATASIZE DUP3 MSTORE RETURNDATASIZE PUSH1 0x0 PUSH1 0x20 DUP5 ADD RETURNDATACOPY PUSH2 0x21CC JUMP JUMPDEST PUSH1 0x60 SWAP2 POP JUMPDEST POP POP SWAP1 POP DUP1 PUSH2 0x21DA JUMPI PUSH1 0x0 DUP1 REVERT JUMPDEST PUSH1 0xA SLOAD PUSH1 0x1 PUSH1 0x1 PUSH1 0xA0 SHL SUB AND PUSH2 0x2710 PUSH2 0x21F3 DUP5 DUP10 PUSH2 0x396D JUMP JUMPDEST PUSH2 0x21FD SWAP2 SWAP1 PUSH2 0x39F2 JUMP JUMPDEST PUSH1 0x40 MLOAD PUSH1 0x0 DUP2 DUP2 DUP2 DUP6 DUP8 GAS CALL SWAP3 POP POP POP RETURNDATASIZE DUP1 PUSH1 0x0 DUP2 EQ PUSH2 0x2239 JUMPI PUSH1 0x40 MLOAD SWAP2 POP PUSH1 0x1F NOT PUSH1 0x3F RETURNDATASIZE ADD AND DUP3 ADD PUSH1 0x40 MSTORE RETURNDATASIZE DUP3 MSTORE RETURNDATASIZE PUSH1 0x0 PUSH1 0x20 DUP5 ADD RETURNDATACOPY PUSH2 0x223E JUMP JUMPDEST PUSH1 0x60 SWAP2 POP JUMPDEST POP PUSH2 0x1822 SWAP3 POP POP POP JUMP JUMPDEST PUSH1 0x40 MLOAD PUSH4 0x23B872DD PUSH1 0xE0 SHL DUP2 MSTORE CALLER PUSH1 0x4 DUP3 ADD MSTORE ADDRESS PUSH1 0x24 DUP3 ADD MSTORE PUSH1 0x44 DUP2 ADD DUP7 SWAP1 MSTORE DUP5 SWAP1 PUSH1 0x1 PUSH1 0x1 PUSH1 0xA0 SHL SUB DUP3 AND SWAP1 PUSH4 0x23B872DD SWAP1 PUSH1 0x64 ADD PUSH1 0x20 PUSH1 0x40 MLOAD DUP1 DUP4 SUB DUP2 PUSH1 0x0 DUP8 GAS CALL ISZERO DUP1 ISZERO PUSH2 0x229D JUMPI RETURNDATASIZE PUSH1 0x0 DUP1 RETURNDATACOPY RETURNDATASIZE PUSH1 0x0 REVERT JUMPDEST POP POP POP POP PUSH1 0x40 MLOAD RETURNDATASIZE PUSH1 0x1F NOT PUSH1 0x1F DUP3 ADD AND DUP3 ADD DUP1 PUSH1 0x40 MSTORE POP DUP2 ADD SWAP1 PUSH2 0x22C1 SWAP2 SWAP1 PUSH2 0x3A2B JUMP JUMPDEST PUSH2 0x22CA JUMPI PUSH1 0x0 DUP1 REVERT JUMPDEST PUSH1 0x12 SLOAD PUSH1 0x40 MLOAD PUSH4 0x31A9108F PUSH1 0xE1 SHL DUP2 MSTORE PUSH1 0x4 DUP2 ADD SWAP2 SWAP1 SWAP2 MSTORE PUSH1 0x1 PUSH1 0x1 PUSH1 0xA0 SHL SUB DUP3 DUP2 AND SWAP2 PUSH4 0xA9059CBB SWAP2 DUP8 AND SWAP1 PUSH4 0x6352211E SWAP1 PUSH1 0x24 ADD PUSH1 0x20 PUSH1 0x40 MLOAD DUP1 DUP4 SUB DUP2 DUP7 GAS STATICCALL ISZERO DUP1 ISZERO PUSH2 0x231D JUMPI RETURNDATASIZE PUSH1 0x0 DUP1 RETURNDATACOPY RETURNDATASIZE PUSH1 0x0 REVERT JUMPDEST POP POP POP POP PUSH1 0x40 MLOAD RETURNDATASIZE PUSH1 0x1F NOT PUSH1 0x1F DUP3 ADD AND DUP3 ADD DUP1 PUSH1 0x40 MSTORE POP DUP2 ADD SWAP1 PUSH2 0x2341 SWAP2 SWAP1 PUSH2 0x39A4 JUMP JUMPDEST PUSH2 0x2710 PUSH2 0x234E DUP7 DUP12 PUSH2 0x396D JUMP JUMPDEST PUSH2 0x2358 SWAP2 SWAP1 PUSH2 0x39F2 JUMP JUMPDEST PUSH2 0x2362 SWAP1 DUP11 PUSH2 0x3A14 JUMP JUMPDEST PUSH1 0x40 MLOAD PUSH1 0x1 PUSH1 0x1 PUSH1 0xE0 SHL SUB NOT PUSH1 0xE0 DUP6 SWAP1 SHL AND DUP2 MSTORE PUSH1 0x1 PUSH1 0x1 PUSH1 0xA0 SHL SUB SWAP1 SWAP3 AND PUSH1 0x4 DUP4 ADD MSTORE PUSH1 0x24 DUP3 ADD MSTORE PUSH1 0x44 ADD PUSH1 0x20 PUSH1 0x40 MLOAD DUP1 DUP4 SUB DUP2 PUSH1 0x0 DUP8 GAS CALL ISZERO DUP1 ISZERO PUSH2 0x23AD JUMPI RETURNDATASIZE PUSH1 0x0 DUP1 RETURNDATACOPY RETURNDATASIZE PUSH1 0x0 REVERT JUMPDEST POP POP POP POP PUSH1 0x40 MLOAD RETURNDATASIZE PUSH1 0x1F NOT PUSH1 0x1F DUP3 ADD AND DUP3 ADD DUP1 PUSH1 0x40 MSTORE POP DUP2 ADD SWAP1 PUSH2 0x23D1 SWAP2 SWAP1 PUSH2 0x3A2B JUMP JUMPDEST PUSH2 0x23DA JUMPI PUSH1 0x0 DUP1 REVERT JUMPDEST PUSH1 0xA SLOAD PUSH1 0x1 PUSH1 0x1 PUSH1 0xA0 SHL SUB DUP1 DUP4 AND SWAP2 PUSH4 0xA9059CBB SWAP2 AND PUSH2 0x2710 PUSH2 0x23FD DUP7 DUP12 PUSH2 0x396D JUMP JUMPDEST PUSH2 0x2407 SWAP2 SWAP1 PUSH2 0x39F2 JUMP JUMPDEST PUSH1 0x40 MLOAD PUSH1 0x1 PUSH1 0x1 PUSH1 0xE0 SHL SUB NOT PUSH1 0xE0 DUP6 SWAP1 SHL AND DUP2 MSTORE PUSH1 0x1 PUSH1 0x1 PUSH1 0xA0 SHL SUB SWAP1 SWAP3 AND PUSH1 0x4 DUP4 ADD MSTORE PUSH1 0x24 DUP3 ADD MSTORE PUSH1 0x44 ADD PUSH1 0x20 PUSH1 0x40 MLOAD DUP1 DUP4 SUB DUP2 PUSH1 0x0 DUP8 GAS CALL ISZERO DUP1 ISZERO PUSH2 0x2452 JUMPI RETURNDATASIZE PUSH1 0x0 DUP1 RETURNDATACOPY RETURNDATASIZE PUSH1 0x0 REVERT JUMPDEST POP POP POP POP PUSH1 0x40 MLOAD RETURNDATASIZE PUSH1 0x1F NOT PUSH1 0x1F DUP3 ADD AND DUP3 ADD DUP1 PUSH1 0x40 MSTORE POP DUP2 ADD SWAP1 PUSH2 0x2476 SWAP2 SWAP1 PUSH2 0x3A2B JUMP JUMPDEST PUSH2 0x247F JUMPI PUSH1 0x0 DUP1 REVERT JUMPDEST POP POP POP POP POP POP JUMP JUMPDEST PUSH14 0xAAEB6D7670E522A718067333CD4E EXTCODESIZE ISZERO PUSH2 0xE28 JUMPI PUSH1 0x40 MLOAD PUSH4 0x3185C44D PUSH1 0xE2 SHL DUP2 MSTORE ADDRESS PUSH1 0x4 DUP3 ADD MSTORE PUSH1 0x1 PUSH1 0x1 PUSH1 0xA0 SHL SUB DUP3 AND PUSH1 0x24 DUP3 ADD MSTORE PUSH14 0xAAEB6D7670E522A718067333CD4E SWAP1 PUSH4 0xC6171134 SWAP1 PUSH1 0x44 ADD PUSH1 0x20 PUSH1 0x40 MLOAD DUP1 DUP4 SUB DUP2 DUP7 GAS STATICCALL ISZERO DUP1 ISZERO PUSH2 0x24F4 JUMPI RETURNDATASIZE PUSH1 0x0 DUP1 RETURNDATACOPY RETURNDATASIZE PUSH1 0x0 REVERT JUMPDEST POP POP POP POP PUSH1 0x40 MLOAD RETURNDATASIZE PUSH1 0x1F NOT PUSH1 0x1F DUP3 ADD AND DUP3 ADD DUP1 PUSH1 0x40 MSTORE POP DUP2 ADD SWAP1 PUSH2 0x2518 SWAP2 SWAP1 PUSH2 0x3A2B JUMP JUMPDEST PUSH2 0xE28 JUMPI PUSH1 0x40 MLOAD PUSH4 0x3B79C773 PUSH1 0xE2 SHL DUP2 MSTORE PUSH1 0x1 PUSH1 0x1 PUSH1 0xA0 SHL SUB DUP3 AND PUSH1 0x4 DUP3 ADD MSTORE PUSH1 0x24 ADD PUSH2 0x965 JUMP JUMPDEST PUSH2 0x254A CALLER DUP3 PUSH2 0x2983 JUMP JUMPDEST PUSH2 0x2566 JUMPI PUSH1 0x40 MLOAD PUSH3 0x461BCD PUSH1 0xE5 SHL DUP2 MSTORE PUSH1 0x4 ADD PUSH2 0x965 SWAP1 PUSH2 0x3A48 JUMP JUMPDEST PUSH2 0xA06 DUP4 DUP4 DUP4 PUSH2 0x2A01 JUMP JUMPDEST PUSH1 0x0 DUP3 DUP2 MSTORE PUSH1 0x10 PUSH1 0x20 SWAP1 DUP2 MSTORE PUSH1 0x40 DUP1 DUP4 KECCAK256 DUP2 MLOAD PUSH1 0x60 DUP2 ADD DUP4 MSTORE SWAP1 SLOAD PUSH1 0x1 PUSH1 0x1 PUSH1 0xA0 SHL SUB DUP2 AND DUP3 MSTORE PUSH1 0x1 PUSH1 0xA0 SHL DUP2 DIV PUSH3 0xFFFFFF AND SWAP4 DUP3 ADD SWAP4 SWAP1 SWAP4 MSTORE PUSH1 0x1 PUSH1 0xB8 SHL SWAP1 SWAP3 DIV PUSH1 0xFF AND ISZERO DUP1 ISZERO SWAP2 DUP4 ADD SWAP2 SWAP1 SWAP2 MSTORE DUP3 SWAP2 SWAP1 PUSH2 0x25F5 JUMPI DUP1 MLOAD PUSH1 0x20 DUP3 ADD MLOAD SWAP1 SWAP4 POP PUSH2 0x2710 SWAP1 PUSH2 0x25E4 SWAP1 PUSH3 0xFFFFFF AND DUP7 PUSH2 0x396D JUMP JUMPDEST PUSH2 0x25EE SWAP2 SWAP1 PUSH2 0x39F2 JUMP JUMPDEST SWAP2 POP PUSH2 0x2605 JUMP JUMPDEST PUSH2 0x25FF DUP6 DUP6 PUSH2 0x2A3B JUMP JUMPDEST SWAP1 SWAP4 POP SWAP2 POP JUMPDEST POP SWAP3 POP SWAP3 SWAP1 POP JUMP JUMPDEST PUSH2 0xA06 DUP4 DUP4 DUP4 PUSH1 0x40 MLOAD DUP1 PUSH1 0x20 ADD PUSH1 0x40 MSTORE DUP1 PUSH1 0x0 DUP2 MSTORE POP PUSH2 0x17FC JUMP JUMPDEST DUP1 ISZERO PUSH2 0x2636 JUMPI PUSH2 0xE28 PUSH2 0x2A73 JUMP JUMPDEST PUSH2 0xE28 PUSH2 0x28F6 JUMP JUMPDEST CALLER PUSH2 0x2651 PUSH1 0xA SLOAD PUSH1 0x1 PUSH1 0x1 PUSH1 0xA0 SHL SUB AND SWAP1 JUMP JUMPDEST PUSH1 0x1 PUSH1 0x1 PUSH1 0xA0 SHL SUB AND EQ DUP1 PUSH2 0x2670 JUMPI POP PUSH1 0x11 SLOAD PUSH1 0x1 PUSH1 0x1 PUSH1 0xA0 SHL SUB AND CALLER EQ JUMPDEST PUSH2 0x14D9 JUMPI PUSH1 0x40 MLOAD PUSH3 0x461BCD PUSH1 0xE5 SHL DUP2 MSTORE PUSH1 0x20 PUSH1 0x4 DUP3 ADD DUP2 SWAP1 MSTORE PUSH1 0x24 DUP3 ADD MSTORE PUSH32 0x4F776E61626C653A2063616C6C6572206973206E6F7420746865206F776E6572 PUSH1 0x44 DUP3 ADD MSTORE PUSH1 0x64 ADD PUSH2 0x965 JUMP JUMPDEST PUSH1 0x8 DUP1 SLOAD PUSH1 0x1 PUSH1 0x1 PUSH1 0xA0 SHL SUB DUP4 DUP2 AND PUSH1 0x1 PUSH1 0x1 PUSH1 0xA0 SHL SUB NOT DUP4 AND DUP2 OR SWAP1 SWAP4 SSTORE PUSH1 0x40 MLOAD SWAP2 AND SWAP2 SWAP1 DUP3 SWAP1 PUSH32 0x8BE0079C531659141344CD1FD0A4F28419497F9722A3DAAFE3B4186F6B6457E0 SWAP1 PUSH1 0x0 SWAP1 LOG3 POP POP JUMP JUMPDEST DUP2 PUSH1 0x1 PUSH1 0x1 PUSH1 0xA0 SHL SUB AND DUP4 PUSH1 0x1 PUSH1 0x1 PUSH1 0xA0 SHL SUB AND EQ ISZERO PUSH2 0x2770 JUMPI PUSH1 0x40 MLOAD PUSH3 0x461BCD PUSH1 0xE5 SHL DUP2 MSTORE PUSH1 0x20 PUSH1 0x4 DUP3 ADD MSTORE PUSH1 0x19 PUSH1 0x24 DUP3 ADD MSTORE PUSH32 0x4552433732313A20617070726F766520746F2063616C6C657200000000000000 PUSH1 0x44 DUP3 ADD MSTORE PUSH1 0x64 ADD PUSH2 0x965 JUMP JUMPDEST PUSH1 0x1 PUSH1 0x1 PUSH1 0xA0 SHL SUB DUP4 DUP2 AND PUSH1 0x0 DUP2 DUP2 MSTORE PUSH1 0x5 PUSH1 0x20 SWAP1 DUP2 MSTORE PUSH1 0x40 DUP1 DUP4 KECCAK256 SWAP5 DUP8 AND DUP1 DUP5 MSTORE SWAP5 DUP3 MSTORE SWAP2 DUP3 SWAP1 KECCAK256 DUP1 SLOAD PUSH1 0xFF NOT AND DUP7 ISZERO ISZERO SWAP1 DUP2 OR SWAP1 SWAP2 SSTORE SWAP2 MLOAD SWAP2 DUP3 MSTORE PUSH32 0x17307EAB39AB6107E8899845AD3D59BD9653F200F220920489CA2B5937696C31 SWAP2 ADD PUSH1 0x40 MLOAD DUP1 SWAP2 SUB SWAP1 LOG3 POP POP POP JUMP JUMPDEST PUSH2 0x27E7 CALLER DUP4 PUSH2 0x2983 JUMP JUMPDEST PUSH2 0x2803 JUMPI PUSH1 0x40 MLOAD PUSH3 0x461BCD PUSH1 0xE5 SHL DUP2 MSTORE PUSH1 0x4 ADD PUSH2 0x965 SWAP1 PUSH2 0x3A48 JUMP JUMPDEST PUSH2 0x118A DUP5 DUP5 DUP5 DUP5 PUSH2 0x2AAC JUMP JUMPDEST PUSH1 0x60 PUSH1 0x0 PUSH2 0x281D DUP6 DUP6 PUSH2 0x3A14 JUMP JUMPDEST PUSH2 0x2828 SWAP1 PUSH1 0x1 PUSH2 0x398C JUMP JUMPDEST PUSH8 0xFFFFFFFFFFFFFFFF DUP2 GT ISZERO PUSH2 0x2840 JUMPI PUSH2 0x2840 PUSH2 0x3406 JUMP JUMPDEST PUSH1 0x40 MLOAD SWAP1 DUP1 DUP3 MSTORE DUP1 PUSH1 0x1F ADD PUSH1 0x1F NOT AND PUSH1 0x20 ADD DUP3 ADD PUSH1 0x40 MSTORE DUP1 ISZERO PUSH2 0x286A JUMPI PUSH1 0x20 DUP3 ADD DUP2 DUP1 CALLDATASIZE DUP4 CALLDATACOPY ADD SWAP1 POP JUMPDEST POP SWAP1 POP PUSH1 0x0 JUMPDEST PUSH2 0x287A DUP7 DUP7 PUSH2 0x3A14 JUMP JUMPDEST DUP2 GT PUSH2 0x28ED JUMPI DUP4 PUSH1 0x1 PUSH2 0x288D DUP9 DUP5 PUSH2 0x398C JUMP JUMPDEST PUSH2 0x2897 SWAP2 SWAP1 PUSH2 0x3A14 JUMP JUMPDEST DUP2 MLOAD DUP2 LT PUSH2 0x28A7 JUMPI PUSH2 0x28A7 PUSH2 0x39C1 JUMP JUMPDEST PUSH1 0x20 ADD ADD MLOAD PUSH1 0xF8 SHR PUSH1 0xF8 SHL DUP3 DUP3 DUP2 MLOAD DUP2 LT PUSH2 0x28C4 JUMPI PUSH2 0x28C4 PUSH2 0x39C1 JUMP JUMPDEST PUSH1 0x20 ADD ADD SWAP1 PUSH1 0x1 PUSH1 0x1 PUSH1 0xF8 SHL SUB NOT AND SWAP1 DUP2 PUSH1 0x0 BYTE SWAP1 MSTORE8 POP DUP1 PUSH2 0x28E5 DUP2 PUSH2 0x39D7 JUMP JUMPDEST SWAP2 POP POP PUSH2 0x2870 JUMP JUMPDEST POP SWAP5 SWAP4 POP POP POP POP JUMP JUMPDEST PUSH2 0x28FE PUSH2 0x2ADF JUMP JUMPDEST PUSH1 0x6 DUP1 SLOAD PUSH1 0xFF NOT AND PUSH1 0x1 OR SWAP1 SSTORE PUSH32 0x62E78CEA01BEE320CD4E420270B5EA74000D11B0C9F74754EBDBFC544B05A258 PUSH2 0x2933 CALLER SWAP1 JUMP JUMPDEST PUSH1 0x40 MLOAD PUSH1 0x1 PUSH1 0x1 PUSH1 0xA0 SHL SUB SWAP1 SWAP2 AND DUP2 MSTORE PUSH1 0x20 ADD PUSH1 0x40 MLOAD DUP1 SWAP2 SUB SWAP1 LOG1 JUMP JUMPDEST PUSH2 0x295A DUP4 DUP4 PUSH2 0x2B25 JUMP JUMPDEST PUSH2 0x2967 PUSH1 0x0 DUP5 DUP5 DUP5 PUSH2 0x2B5D JUMP JUMPDEST PUSH2 0xA06 JUMPI PUSH1 0x40 MLOAD PUSH3 0x461BCD PUSH1 0xE5 SHL DUP2 MSTORE PUSH1 0x4 ADD PUSH2 0x965 SWAP1 PUSH2 0x3A95 JUMP JUMPDEST PUSH1 0x0 DUP1 PUSH2 0x298F DUP4 PUSH2 0x1DE6 JUMP JUMPDEST SWAP1 POP DUP1 PUSH1 0x1 PUSH1 0x1 PUSH1 0xA0 SHL SUB AND DUP5 PUSH1 0x1 PUSH1 0x1 PUSH1 0xA0 SHL SUB AND EQ DUP1 PUSH2 0x29D6 JUMPI POP PUSH1 0x1 PUSH1 0x1 PUSH1 0xA0 SHL SUB DUP1 DUP3 AND PUSH1 0x0 SWAP1 DUP2 MSTORE PUSH1 0x5 PUSH1 0x20 SWAP1 DUP2 MSTORE PUSH1 0x40 DUP1 DUP4 KECCAK256 SWAP4 DUP9 AND DUP4 MSTORE SWAP3 SWAP1 MSTORE KECCAK256 SLOAD PUSH1 0xFF AND JUMPDEST DUP1 PUSH2 0xB46 JUMPI POP DUP4 PUSH1 0x1 PUSH1 0x1 PUSH1 0xA0 SHL SUB AND PUSH2 0x29EF DUP5 PUSH2 0x8C9 JUMP JUMPDEST PUSH1 0x1 PUSH1 0x1 PUSH1 0xA0 SHL SUB AND EQ SWAP5 SWAP4 POP POP POP POP JUMP JUMPDEST PUSH2 0x2A0C DUP4 DUP4 DUP4 PUSH2 0x2C5B JUMP JUMPDEST PUSH1 0x0 SWAP1 DUP2 MSTORE PUSH1 0x9 PUSH1 0x20 MSTORE PUSH1 0x40 SWAP1 KECCAK256 DUP1 SLOAD PUSH1 0x1 PUSH1 0x1 PUSH1 0xA0 SHL SUB NOT AND PUSH1 0x1 PUSH1 0x1 PUSH1 0xA0 SHL SUB SWAP3 SWAP1 SWAP3 AND SWAP2 SWAP1 SWAP2 OR SWAP1 SSTORE POP JUMP JUMPDEST PUSH1 0xA SLOAD PUSH1 0x0 SWAP1 DUP2 SWAP1 PUSH1 0x1 PUSH1 0x1 PUSH1 0xA0 SHL SUB AND DUP2 PUSH2 0x2710 PUSH2 0x2A5C DUP7 PUSH2 0x1F4 PUSH2 0x396D JUMP JUMPDEST PUSH2 0x2A66 SWAP2 SWAP1 PUSH2 0x39F2 JUMP JUMPDEST SWAP2 SWAP7 SWAP2 SWAP6 POP SWAP1 SWAP4 POP POP POP POP JUMP JUMPDEST PUSH2 0x2A7B PUSH2 0x2DCC JUMP JUMPDEST PUSH1 0x6 DUP1 SLOAD PUSH1 0xFF NOT AND SWAP1 SSTORE PUSH32 0x5DB9EE0A495BF2E6FF9C91A7834C1BA4FDD244A5E8AA4E537BD38AEAE4B073AA CALLER PUSH2 0x2933 JUMP JUMPDEST PUSH2 0x2AB7 DUP5 DUP5 DUP5 PUSH2 0x2A01 JUMP JUMPDEST PUSH2 0x2AC3 DUP5 DUP5 DUP5 DUP5 PUSH2 0x2B5D JUMP JUMPDEST PUSH2 0x118A JUMPI PUSH1 0x40 MLOAD PUSH3 0x461BCD PUSH1 0xE5 SHL DUP2 MSTORE PUSH1 0x4 ADD PUSH2 0x965 SWAP1 PUSH2 0x3A95 JUMP JUMPDEST PUSH1 0x6 SLOAD PUSH1 0xFF AND ISZERO PUSH2 0x14D9 JUMPI PUSH1 0x40 MLOAD PUSH3 0x461BCD PUSH1 0xE5 SHL DUP2 MSTORE PUSH1 0x20 PUSH1 0x4 DUP3 ADD MSTORE PUSH1 0x10 PUSH1 0x24 DUP3 ADD MSTORE PUSH16 0x14185D5CD8589B194E881C185D5CD959 PUSH1 0x82 SHL PUSH1 0x44 DUP3 ADD MSTORE PUSH1 0x64 ADD PUSH2 0x965 JUMP JUMPDEST PUSH2 0x2B2F DUP3 DUP3 PUSH2 0x2E15 JUMP JUMPDEST PUSH1 0x0 SWAP1 DUP2 MSTORE PUSH1 0x9 PUSH1 0x20 MSTORE PUSH1 0x40 SWAP1 KECCAK256 DUP1 SLOAD PUSH1 0x1 PUSH1 0x1 PUSH1 0xA0 SHL SUB NOT AND PUSH1 0x1 PUSH1 0x1 PUSH1 0xA0 SHL SUB SWAP3 SWAP1 SWAP3 AND SWAP2 SWAP1 SWAP2 OR SWAP1 SSTORE JUMP JUMPDEST PUSH1 0x0 PUSH1 0x1 PUSH1 0x1 PUSH1 0xA0 SHL SUB DUP5 AND EXTCODESIZE ISZERO PUSH2 0x2C50 JUMPI PUSH1 0x40 MLOAD PUSH4 0xA85BD01 PUSH1 0xE1 SHL DUP2 MSTORE PUSH1 0x1 PUSH1 0x1 PUSH1 0xA0 SHL SUB DUP6 AND SWAP1 PUSH4 0x150B7A02 SWAP1 PUSH2 0x2BA1 SWAP1 CALLER SWAP1 DUP10 SWAP1 DUP9 SWAP1 DUP9 SWAP1 PUSH1 0x4 ADD PUSH2 0x3AE7 JUMP JUMPDEST PUSH1 0x20 PUSH1 0x40 MLOAD DUP1 DUP4 SUB DUP2 PUSH1 0x0 DUP8 GAS CALL SWAP3 POP POP POP DUP1 ISZERO PUSH2 0x2BDC JUMPI POP PUSH1 0x40 DUP1 MLOAD PUSH1 0x1F RETURNDATASIZE SWAP1 DUP2 ADD PUSH1 0x1F NOT AND DUP3 ADD SWAP1 SWAP3 MSTORE PUSH2 0x2BD9 SWAP2 DUP2 ADD SWAP1 PUSH2 0x3B24 JUMP JUMPDEST PUSH1 0x1 JUMPDEST PUSH2 0x2C36 JUMPI RETURNDATASIZE DUP1 DUP1 ISZERO PUSH2 0x2C0A JUMPI PUSH1 0x40 MLOAD SWAP2 POP PUSH1 0x1F NOT PUSH1 0x3F RETURNDATASIZE ADD AND DUP3 ADD PUSH1 0x40 MSTORE RETURNDATASIZE DUP3 MSTORE RETURNDATASIZE PUSH1 0x0 PUSH1 0x20 DUP5 ADD RETURNDATACOPY PUSH2 0x2C0F JUMP JUMPDEST PUSH1 0x60 SWAP2 POP JUMPDEST POP DUP1 MLOAD PUSH2 0x2C2E JUMPI PUSH1 0x40 MLOAD PUSH3 0x461BCD PUSH1 0xE5 SHL DUP2 MSTORE PUSH1 0x4 ADD PUSH2 0x965 SWAP1 PUSH2 0x3A95 JUMP JUMPDEST DUP1 MLOAD DUP2 PUSH1 0x20 ADD REVERT JUMPDEST PUSH1 0x1 PUSH1 0x1 PUSH1 0xE0 SHL SUB NOT AND PUSH4 0xA85BD01 PUSH1 0xE1 SHL EQ SWAP1 POP PUSH2 0xB46 JUMP JUMPDEST POP PUSH1 0x1 SWAP5 SWAP4 POP POP POP POP JUMP JUMPDEST DUP3 PUSH1 0x1 PUSH1 0x1 PUSH1 0xA0 SHL SUB AND PUSH2 0x2C6E DUP3 PUSH2 0x1DE6 JUMP JUMPDEST PUSH1 0x1 PUSH1 0x1 PUSH1 0xA0 SHL SUB AND EQ PUSH2 0x2C94 JUMPI PUSH1 0x40 MLOAD PUSH3 0x461BCD PUSH1 0xE5 SHL DUP2 MSTORE PUSH1 0x4 ADD PUSH2 0x965 SWAP1 PUSH2 0x3B41 JUMP JUMPDEST PUSH1 0x1 PUSH1 0x1 PUSH1 0xA0 SHL SUB DUP3 AND PUSH2 0x2CF6 JUMPI PUSH1 0x40 MLOAD PUSH3 0x461BCD PUSH1 0xE5 SHL DUP2 MSTORE PUSH1 0x20 PUSH1 0x4 DUP3 ADD MSTORE PUSH1 0x24 DUP1 DUP3 ADD MSTORE PUSH32 0x4552433732313A207472616E7366657220746F20746865207A65726F20616464 PUSH1 0x44 DUP3 ADD MSTORE PUSH4 0x72657373 PUSH1 0xE0 SHL PUSH1 0x64 DUP3 ADD MSTORE PUSH1 0x84 ADD PUSH2 0x965 JUMP JUMPDEST PUSH2 0x2D03 DUP4 DUP4 DUP4 PUSH1 0x1 PUSH2 0x2F90 JUMP JUMPDEST DUP3 PUSH1 0x1 PUSH1 0x1 PUSH1 0xA0 SHL SUB AND PUSH2 0x2D16 DUP3 PUSH2 0x1DE6 JUMP JUMPDEST PUSH1 0x1 PUSH1 0x1 PUSH1 0xA0 SHL SUB AND EQ PUSH2 0x2D3C JUMPI PUSH1 0x40 MLOAD PUSH3 0x461BCD PUSH1 0xE5 SHL DUP2 MSTORE PUSH1 0x4 ADD PUSH2 0x965 SWAP1 PUSH2 0x3B41 JUMP JUMPDEST PUSH1 0x0 DUP2 DUP2 MSTORE PUSH1 0x4 PUSH1 0x20 SWAP1 DUP2 MSTORE PUSH1 0x40 DUP1 DUP4 KECCAK256 DUP1 SLOAD PUSH1 0x1 PUSH1 0x1 PUSH1 0xA0 SHL SUB NOT SWAP1 DUP2 AND SWAP1 SWAP2 SSTORE PUSH1 0x1 PUSH1 0x1 PUSH1 0xA0 SHL SUB DUP8 DUP2 AND DUP1 DUP7 MSTORE PUSH1 0x3 DUP6 MSTORE DUP4 DUP7 KECCAK256 DUP1 SLOAD PUSH1 0x0 NOT ADD SWAP1 SSTORE SWAP1 DUP8 AND DUP1 DUP7 MSTORE DUP4 DUP7 KECCAK256 DUP1 SLOAD PUSH1 0x1 ADD SWAP1 SSTORE DUP7 DUP7 MSTORE PUSH1 0x2 SWAP1 SWAP5 MSTORE DUP3 DUP6 KECCAK256 DUP1 SLOAD SWAP1 SWAP3 AND DUP5 OR SWAP1 SWAP2 SSTORE SWAP1 MLOAD DUP5 SWAP4 PUSH32 0xDDF252AD1BE2C89B69C2B068FC378DAA952BA7F163C4A11628F55A4DF523B3EF SWAP2 LOG4 POP POP POP JUMP JUMPDEST PUSH1 0x6 SLOAD PUSH1 0xFF AND PUSH2 0x14D9 JUMPI PUSH1 0x40 MLOAD PUSH3 0x461BCD PUSH1 0xE5 SHL DUP2 MSTORE PUSH1 0x20 PUSH1 0x4 DUP3 ADD MSTORE PUSH1 0x14 PUSH1 0x24 DUP3 ADD MSTORE PUSH20 0x14185D5CD8589B194E881B9BDD081C185D5CD959 PUSH1 0x62 SHL PUSH1 0x44 DUP3 ADD MSTORE PUSH1 0x64 ADD PUSH2 0x965 JUMP JUMPDEST PUSH1 0x1 PUSH1 0x1 PUSH1 0xA0 SHL SUB DUP3 AND PUSH2 0x2E6B JUMPI PUSH1 0x40 MLOAD PUSH3 0x461BCD PUSH1 0xE5 SHL DUP2 MSTORE PUSH1 0x20 PUSH1 0x4 DUP3 ADD DUP2 SWAP1 MSTORE PUSH1 0x24 DUP3 ADD MSTORE PUSH32 0x4552433732313A206D696E7420746F20746865207A65726F2061646472657373 PUSH1 0x44 DUP3 ADD MSTORE PUSH1 0x64 ADD PUSH2 0x965 JUMP JUMPDEST PUSH2 0x2E74 DUP2 PUSH2 0x1EB4 JUMP JUMPDEST ISZERO PUSH2 0x2EC1 JUMPI PUSH1 0x40 MLOAD PUSH3 0x461BCD PUSH1 0xE5 SHL DUP2 MSTORE PUSH1 0x20 PUSH1 0x4 DUP3 ADD MSTORE PUSH1 0x1C PUSH1 0x24 DUP3 ADD MSTORE PUSH32 0x4552433732313A20746F6B656E20616C7265616479206D696E74656400000000 PUSH1 0x44 DUP3 ADD MSTORE PUSH1 0x64 ADD PUSH2 0x965 JUMP JUMPDEST PUSH2 0x2ECF PUSH1 0x0 DUP4 DUP4 PUSH1 0x1 PUSH2 0x2F90 JUMP JUMPDEST PUSH2 0x2ED8 DUP2 PUSH2 0x1EB4 JUMP JUMPDEST ISZERO PUSH2 0x2F25 JUMPI PUSH1 0x40 MLOAD PUSH3 0x461BCD PUSH1 0xE5 SHL DUP2 MSTORE PUSH1 0x20 PUSH1 0x4 DUP3 ADD MSTORE PUSH1 0x1C PUSH1 0x24 DUP3 ADD MSTORE PUSH32 0x4552433732313A20746F6B656E20616C7265616479206D696E74656400000000 PUSH1 0x44 DUP3 ADD MSTORE PUSH1 0x64 ADD PUSH2 0x965 JUMP JUMPDEST PUSH1 0x1 PUSH1 0x1 PUSH1 0xA0 SHL SUB DUP3 AND PUSH1 0x0 DUP2 DUP2 MSTORE PUSH1 0x3 PUSH1 0x20 SWAP1 DUP2 MSTORE PUSH1 0x40 DUP1 DUP4 KECCAK256 DUP1 SLOAD PUSH1 0x1 ADD SWAP1 SSTORE DUP5 DUP4 MSTORE PUSH1 0x2 SWAP1 SWAP2 MSTORE DUP1 DUP3 KECCAK256 DUP1 SLOAD PUSH1 0x1 PUSH1 0x1 PUSH1 0xA0 SHL SUB NOT AND DUP5 OR SWAP1 SSTORE MLOAD DUP4 SWAP3 SWAP2 SWAP1 PUSH32 0xDDF252AD1BE2C89B69C2B068FC378DAA952BA7F163C4A11628F55A4DF523B3EF SWAP1 DUP3 SWAP1 LOG4 POP POP JUMP JUMPDEST PUSH2 0x2F9C DUP5 DUP5 DUP5 DUP5 PUSH2 0x3003 JUMP JUMPDEST PUSH1 0x6 SLOAD PUSH1 0xFF AND ISZERO PUSH2 0x118A JUMPI PUSH1 0x40 MLOAD PUSH3 0x461BCD PUSH1 0xE5 SHL DUP2 MSTORE PUSH1 0x20 PUSH1 0x4 DUP3 ADD MSTORE PUSH1 0x2B PUSH1 0x24 DUP3 ADD MSTORE PUSH32 0x4552433732315061757361626C653A20746F6B656E207472616E736665722077 PUSH1 0x44 DUP3 ADD MSTORE PUSH11 0x1A1A5B19481C185D5CD959 PUSH1 0xAA SHL PUSH1 0x64 DUP3 ADD MSTORE PUSH1 0x84 ADD PUSH2 0x965 JUMP JUMPDEST PUSH1 0x1 DUP2 GT ISZERO PUSH2 0x118A JUMPI PUSH1 0x1 PUSH1 0x1 PUSH1 0xA0 SHL SUB DUP5 AND ISZERO PUSH2 0x3049 JUMPI PUSH1 0x1 PUSH1 0x1 PUSH1 0xA0 SHL SUB DUP5 AND PUSH1 0x0 SWAP1 DUP2 MSTORE PUSH1 0x3 PUSH1 0x20 MSTORE PUSH1 0x40 DUP2 KECCAK256 DUP1 SLOAD DUP4 SWAP3 SWAP1 PUSH2 0x3043 SWAP1 DUP5 SWAP1 PUSH2 0x3A14 JUMP JUMPDEST SWAP1 SWAP2 SSTORE POP POP JUMPDEST PUSH1 0x1 PUSH1 0x1 PUSH1 0xA0 SHL SUB DUP4 AND ISZERO PUSH2 0x118A JUMPI PUSH1 0x1 PUSH1 0x1 PUSH1 0xA0 SHL SUB DUP4 AND PUSH1 0x0 SWAP1 DUP2 MSTORE PUSH1 0x3 PUSH1 0x20 MSTORE PUSH1 0x40 DUP2 KECCAK256 DUP1 SLOAD DUP4 SWAP3 SWAP1 PUSH2 0x3080 SWAP1 DUP5 SWAP1 PUSH2 0x398C JUMP JUMPDEST SWAP1 SWAP2 SSTORE POP POP POP POP POP POP JUMP JUMPDEST DUP3 DUP1 SLOAD PUSH2 0x3097 SWAP1 PUSH2 0x3842 JUMP JUMPDEST SWAP1 PUSH1 0x0 MSTORE PUSH1 0x20 PUSH1 0x0 KECCAK256 SWAP1 PUSH1 0x1F ADD PUSH1 0x20 SWAP1 DIV DUP2 ADD SWAP3 DUP3 PUSH2 0x30B9 JUMPI PUSH1 0x0 DUP6 SSTORE PUSH2 0x30FF JUMP JUMPDEST DUP3 PUSH1 0x1F LT PUSH2 0x30D2 JUMPI DUP1 MLOAD PUSH1 0xFF NOT AND DUP4 DUP1 ADD OR DUP6 SSTORE PUSH2 0x30FF JUMP JUMPDEST DUP3 DUP1 ADD PUSH1 0x1 ADD DUP6 SSTORE DUP3 ISZERO PUSH2 0x30FF JUMPI SWAP2 DUP3 ADD JUMPDEST DUP3 DUP2 GT ISZERO PUSH2 0x30FF JUMPI DUP3 MLOAD DUP3 SSTORE SWAP2 PUSH1 0x20 ADD SWAP2 SWAP1 PUSH1 0x1 ADD SWAP1 PUSH2 0x30E4 JUMP JUMPDEST POP PUSH2 0x310B SWAP3 SWAP2 POP PUSH2 0x310F JUMP JUMPDEST POP SWAP1 JUMP JUMPDEST JUMPDEST DUP1 DUP3 GT ISZERO PUSH2 0x310B JUMPI PUSH1 0x0 DUP2 SSTORE PUSH1 0x1 ADD PUSH2 0x3110 JUMP JUMPDEST PUSH1 0x1 PUSH1 0x1 PUSH1 0xE0 SHL SUB NOT DUP2 AND DUP2 EQ PUSH2 0xE28 JUMPI PUSH1 0x0 DUP1 REVERT JUMPDEST PUSH1 0x0 PUSH1 0x20 DUP3 DUP5 SUB SLT ISZERO PUSH2 0x314C JUMPI PUSH1 0x0 DUP1 REVERT JUMPDEST DUP2 CALLDATALOAD PUSH2 0x3157 DUP2 PUSH2 0x3124 JUMP JUMPDEST SWAP4 SWAP3 POP POP POP JUMP JUMPDEST PUSH1 0x0 JUMPDEST DUP4 DUP2 LT ISZERO PUSH2 0x3179 JUMPI DUP2 DUP2 ADD MLOAD DUP4 DUP3 ADD MSTORE PUSH1 0x20 ADD PUSH2 0x3161 JUMP JUMPDEST DUP4 DUP2 GT ISZERO PUSH2 0x118A JUMPI POP POP PUSH1 0x0 SWAP2 ADD MSTORE JUMP JUMPDEST PUSH1 0x0 DUP2 MLOAD DUP1 DUP5 MSTORE PUSH2 0x31A2 DUP2 PUSH1 0x20 DUP7 ADD PUSH1 0x20 DUP7 ADD PUSH2 0x315E JUMP JUMPDEST PUSH1 0x1F ADD PUSH1 0x1F NOT AND SWAP3 SWAP1 SWAP3 ADD PUSH1 0x20 ADD SWAP3 SWAP2 POP POP JUMP JUMPDEST PUSH1 0x20 DUP2 MSTORE PUSH1 0x0 PUSH2 0x3157 PUSH1 0x20 DUP4 ADD DUP5 PUSH2 0x318A JUMP JUMPDEST PUSH1 0x0 PUSH1 0x20 DUP3 DUP5 SUB SLT ISZERO PUSH2 0x31DB JUMPI PUSH1 0x0 DUP1 REVERT JUMPDEST POP CALLDATALOAD SWAP2 SWAP1 POP JUMP JUMPDEST PUSH1 0x1 PUSH1 0x1 PUSH1 0xA0 SHL SUB DUP2 AND DUP2 EQ PUSH2 0xE28 JUMPI PUSH1 0x0 DUP1 REVERT JUMPDEST DUP1 CALLDATALOAD PUSH2 0x3202 DUP2 PUSH2 0x31E2 JUMP JUMPDEST SWAP2 SWAP1 POP JUMP JUMPDEST PUSH1 0x0 DUP1 PUSH1 0x40 DUP4 DUP6 SUB SLT ISZERO PUSH2 0x321A JUMPI PUSH1 0x0 DUP1 REVERT JUMPDEST DUP3 CALLDATALOAD PUSH2 0x3225 DUP2 PUSH2 0x31E2 JUMP JUMPDEST SWAP5 PUSH1 0x20 SWAP4 SWAP1 SWAP4 ADD CALLDATALOAD SWAP4 POP POP POP JUMP JUMPDEST PUSH1 0x0 PUSH1 0x20 DUP3 DUP5 SUB SLT ISZERO PUSH2 0x3245 JUMPI PUSH1 0x0 DUP1 REVERT JUMPDEST DUP2 CALLDATALOAD PUSH2 0x3157 DUP2 PUSH2 0x31E2 JUMP JUMPDEST PUSH1 0x0 DUP1 PUSH1 0x0 PUSH1 0x60 DUP5 DUP7 SUB SLT ISZERO PUSH2 0x3265 JUMPI PUSH1 0x0 DUP1 REVERT JUMPDEST DUP4 CALLDATALOAD PUSH2 0x3270 DUP2 PUSH2 0x31E2 JUMP JUMPDEST SWAP3 POP PUSH1 0x20 DUP5 ADD CALLDATALOAD PUSH2 0x3280 DUP2 PUSH2 0x31E2 JUMP JUMPDEST SWAP3 SWAP6 SWAP3 SWAP5 POP POP POP PUSH1 0x40 SWAP2 SWAP1 SWAP2 ADD CALLDATALOAD SWAP1 JUMP JUMPDEST PUSH1 0x0 DUP1 PUSH1 0x40 DUP4 DUP6 SUB SLT ISZERO PUSH2 0x32A4 JUMPI PUSH1 0x0 DUP1 REVERT JUMPDEST POP POP DUP1 CALLDATALOAD SWAP3 PUSH1 0x20 SWAP1 SWAP2 ADD CALLDATALOAD SWAP2 POP JUMP JUMPDEST DUP1 ISZERO ISZERO DUP2 EQ PUSH2 0xE28 JUMPI PUSH1 0x0 DUP1 REVERT JUMPDEST DUP1 CALLDATALOAD PUSH2 0x3202 DUP2 PUSH2 0x32B3 JUMP JUMPDEST PUSH1 0x0 PUSH1 0x20 DUP3 DUP5 SUB SLT ISZERO PUSH2 0x32DE JUMPI PUSH1 0x0 DUP1 REVERT JUMPDEST DUP2 CALLDATALOAD PUSH2 0x3157 DUP2 PUSH2 0x32B3 JUMP JUMPDEST PUSH1 0x1 PUSH1 0x1 PUSH1 0xA0 SHL SUB DUP14 AND DUP2 MSTORE PUSH1 0x20 DUP2 ADD DUP13 SWAP1 MSTORE PUSH3 0xFFFFFF DUP12 DUP2 AND PUSH1 0x40 DUP4 ADD MSTORE DUP11 DUP2 AND PUSH1 0x60 DUP4 ADD MSTORE DUP10 DUP2 AND PUSH1 0x80 DUP4 ADD MSTORE DUP9 AND PUSH1 0xA0 DUP3 ADD MSTORE PUSH2 0x1A0 PUSH1 0xC0 DUP3 ADD DUP2 SWAP1 MSTORE PUSH1 0x0 SWAP1 PUSH2 0x3338 DUP4 DUP3 ADD DUP11 PUSH2 0x318A JUMP JUMPDEST PUSH1 0x1 PUSH1 0x1 PUSH1 0xA0 SHL SUB DUP10 AND PUSH1 0xE0 DUP6 ADD MSTORE SWAP1 POP DUP7 PUSH2 0x100 DUP5 ADD MSTORE PUSH2 0x3366 PUSH2 0x120 DUP5 ADD DUP8 PUSH1 0x1 PUSH1 0x1 PUSH1 0xA0 SHL SUB AND SWAP1 MSTORE JUMP JUMPDEST DUP3 DUP2 SUB PUSH2 0x140 DUP5 ADD MSTORE PUSH2 0x3379 DUP2 DUP7 PUSH2 0x318A JUMP JUMPDEST DUP5 MLOAD PUSH2 0x160 DUP6 ADD MSTORE PUSH1 0x20 DUP6 ADD MLOAD PUSH2 0x180 DUP6 ADD MSTORE SWAP2 POP PUSH2 0x3395 SWAP1 POP JUMP JUMPDEST SWAP14 SWAP13 POP POP POP POP POP POP POP POP POP POP POP POP POP JUMP JUMPDEST PUSH1 0x0 DUP1 PUSH1 0x0 PUSH1 0x60 DUP5 DUP7 SUB SLT ISZERO PUSH2 0x33BB JUMPI PUSH1 0x0 DUP1 REVERT JUMPDEST DUP4 CALLDATALOAD SWAP3 POP PUSH1 0x20 DUP5 ADD CALLDATALOAD PUSH2 0x3280 DUP2 PUSH2 0x31E2 JUMP JUMPDEST PUSH1 0x0 DUP1 PUSH1 0x40 DUP4 DUP6 SUB SLT ISZERO PUSH2 0x33E0 JUMPI PUSH1 0x0 DUP1 REVERT JUMPDEST DUP3 CALLDATALOAD PUSH2 0x33EB DUP2 PUSH2 0x31E2 JUMP JUMPDEST SWAP2 POP PUSH1 0x20 DUP4 ADD CALLDATALOAD PUSH2 0x33FB DUP2 PUSH2 0x32B3 JUMP JUMPDEST DUP1 SWAP2 POP POP SWAP3 POP SWAP3 SWAP1 POP JUMP JUMPDEST PUSH4 0x4E487B71 PUSH1 0xE0 SHL PUSH1 0x0 MSTORE PUSH1 0x41 PUSH1 0x4 MSTORE PUSH1 0x24 PUSH1 0x0 REVERT JUMPDEST PUSH1 0x40 MLOAD PUSH2 0x180 DUP2 ADD PUSH8 0xFFFFFFFFFFFFFFFF DUP2 GT DUP3 DUP3 LT OR ISZERO PUSH2 0x3440 JUMPI PUSH2 0x3440 PUSH2 0x3406 JUMP JUMPDEST PUSH1 0x40 MSTORE SWAP1 JUMP JUMPDEST PUSH1 0x40 MLOAD PUSH1 0x1F DUP3 ADD PUSH1 0x1F NOT AND DUP2 ADD PUSH8 0xFFFFFFFFFFFFFFFF DUP2 GT DUP3 DUP3 LT OR ISZERO PUSH2 0x346F JUMPI PUSH2 0x346F PUSH2 0x3406 JUMP JUMPDEST PUSH1 0x40 MSTORE SWAP2 SWAP1 POP JUMP JUMPDEST PUSH1 0x0 PUSH8 0xFFFFFFFFFFFFFFFF DUP3 GT ISZERO PUSH2 0x3491 JUMPI PUSH2 0x3491 PUSH2 0x3406 JUMP JUMPDEST POP PUSH1 0x1F ADD PUSH1 0x1F NOT AND PUSH1 0x20 ADD SWAP1 JUMP JUMPDEST PUSH1 0x0 PUSH2 0x34B2 PUSH2 0x34AD DUP5 PUSH2 0x3477 JUMP JUMPDEST PUSH2 0x3446 JUMP JUMPDEST SWAP1 POP DUP3 DUP2 MSTORE DUP4 DUP4 DUP4 ADD GT ISZERO PUSH2 0x34C6 JUMPI PUSH1 0x0 DUP1 REVERT JUMPDEST DUP3 DUP3 PUSH1 0x20 DUP4 ADD CALLDATACOPY PUSH1 0x0 PUSH1 0x20 DUP5 DUP4 ADD ADD MSTORE SWAP4 SWAP3 POP POP POP JUMP JUMPDEST PUSH1 0x0 DUP1 PUSH1 0x0 DUP1 PUSH1 0x80 DUP6 DUP8 SUB SLT ISZERO PUSH2 0x34F3 JUMPI PUSH1 0x0 DUP1 REVERT JUMPDEST DUP5 CALLDATALOAD PUSH2 0x34FE DUP2 PUSH2 0x31E2 JUMP JUMPDEST SWAP4 POP PUSH1 0x20 DUP6 ADD CALLDATALOAD PUSH2 0x350E DUP2 PUSH2 0x31E2 JUMP JUMPDEST SWAP3 POP PUSH1 0x40 DUP6 ADD CALLDATALOAD SWAP2 POP PUSH1 0x60 DUP6 ADD CALLDATALOAD PUSH8 0xFFFFFFFFFFFFFFFF DUP2 GT ISZERO PUSH2 0x3531 JUMPI PUSH1 0x0 DUP1 REVERT JUMPDEST DUP6 ADD PUSH1 0x1F DUP2 ADD DUP8 SGT PUSH2 0x3542 JUMPI PUSH1 0x0 DUP1 REVERT JUMPDEST PUSH2 0x3551 DUP8 DUP3 CALLDATALOAD PUSH1 0x20 DUP5 ADD PUSH2 0x349F JUMP JUMPDEST SWAP2 POP POP SWAP3 SWAP6 SWAP2 SWAP5 POP SWAP3 POP JUMP JUMPDEST DUP1 CALLDATALOAD PUSH3 0xFFFFFF DUP2 AND DUP2 EQ PUSH2 0x3202 JUMPI PUSH1 0x0 DUP1 REVERT JUMPDEST PUSH1 0x0 DUP3 PUSH1 0x1F DUP4 ADD SLT PUSH2 0x3581 JUMPI PUSH1 0x0 DUP1 REVERT JUMPDEST PUSH2 0x3157 DUP4 DUP4 CALLDATALOAD PUSH1 0x20 DUP6 ADD PUSH2 0x349F JUMP JUMPDEST PUSH1 0x0 PUSH1 0x40 DUP3 DUP5 SUB SLT ISZERO PUSH2 0x35A2 JUMPI PUSH1 0x0 DUP1 REVERT JUMPDEST PUSH1 0x40 MLOAD PUSH1 0x40 DUP2 ADD DUP2 DUP2 LT PUSH8 0xFFFFFFFFFFFFFFFF DUP3 GT OR ISZERO PUSH2 0x35C5 JUMPI PUSH2 0x35C5 PUSH2 0x3406 JUMP JUMPDEST PUSH1 0x40 MSTORE DUP3 CALLDATALOAD DUP2 MSTORE PUSH1 0x20 SWAP3 DUP4 ADD CALLDATALOAD SWAP3 DUP2 ADD SWAP3 SWAP1 SWAP3 MSTORE POP SWAP2 SWAP1 POP JUMP JUMPDEST PUSH1 0x0 DUP3 PUSH1 0x1F DUP4 ADD SLT PUSH2 0x35F0 JUMPI PUSH1 0x0 DUP1 REVERT JUMPDEST DUP2 CALLDATALOAD PUSH1 0x20 PUSH8 0xFFFFFFFFFFFFFFFF DUP3 GT ISZERO PUSH2 0x360C JUMPI PUSH2 0x360C PUSH2 0x3406 JUMP JUMPDEST DUP2 PUSH1 0x5 SHL PUSH2 0x361B DUP3 DUP3 ADD PUSH2 0x3446 JUMP JUMPDEST SWAP3 DUP4 MSTORE DUP5 DUP2 ADD DUP3 ADD SWAP3 DUP3 DUP2 ADD SWAP1 DUP8 DUP6 GT ISZERO PUSH2 0x3635 JUMPI PUSH1 0x0 DUP1 REVERT JUMPDEST DUP4 DUP8 ADD SWAP3 POP JUMPDEST DUP5 DUP4 LT ISZERO PUSH2 0x365D JUMPI DUP3 CALLDATALOAD PUSH2 0x364E DUP2 PUSH2 0x31E2 JUMP JUMPDEST DUP3 MSTORE SWAP2 DUP4 ADD SWAP2 SWAP1 DUP4 ADD SWAP1 PUSH2 0x363B JUMP JUMPDEST SWAP8 SWAP7 POP POP POP POP POP POP POP JUMP JUMPDEST PUSH1 0x0 DUP1 PUSH1 0x0 DUP1 PUSH1 0x0 DUP1 PUSH1 0x0 PUSH1 0xE0 DUP9 DUP11 SUB SLT ISZERO PUSH2 0x3683 JUMPI PUSH1 0x0 DUP1 REVERT JUMPDEST DUP8 CALLDATALOAD PUSH8 0xFFFFFFFFFFFFFFFF DUP1 DUP3 GT ISZERO PUSH2 0x369B JUMPI PUSH1 0x0 DUP1 REVERT JUMPDEST SWAP1 DUP10 ADD SWAP1 PUSH2 0x1A0 DUP3 DUP13 SUB SLT ISZERO PUSH2 0x36B0 JUMPI PUSH1 0x0 DUP1 REVERT JUMPDEST PUSH2 0x36B8 PUSH2 0x341C JUMP JUMPDEST PUSH2 0x36C1 DUP4 PUSH2 0x31F7 JUMP JUMPDEST DUP2 MSTORE PUSH1 0x20 DUP4 ADD CALLDATALOAD PUSH1 0x20 DUP3 ADD MSTORE PUSH2 0x36D9 PUSH1 0x40 DUP5 ADD PUSH2 0x355D JUMP JUMPDEST PUSH1 0x40 DUP3 ADD MSTORE PUSH2 0x36EA PUSH1 0x60 DUP5 ADD PUSH2 0x355D JUMP JUMPDEST PUSH1 0x60 DUP3 ADD MSTORE PUSH2 0x36FB PUSH1 0x80 DUP5 ADD PUSH2 0x355D JUMP JUMPDEST PUSH1 0x80 DUP3 ADD MSTORE PUSH2 0x370C PUSH1 0xA0 DUP5 ADD PUSH2 0x355D JUMP JUMPDEST PUSH1 0xA0 DUP3 ADD MSTORE PUSH1 0xC0 DUP4 ADD CALLDATALOAD DUP3 DUP2 GT ISZERO PUSH2 0x3723 JUMPI PUSH1 0x0 DUP1 REVERT JUMPDEST PUSH2 0x372F DUP14 DUP3 DUP7 ADD PUSH2 0x3570 JUMP JUMPDEST PUSH1 0xC0 DUP4 ADD MSTORE POP PUSH2 0x3741 PUSH1 0xE0 DUP5 ADD PUSH2 0x31F7 JUMP JUMPDEST PUSH1 0xE0 DUP3 ADD MSTORE PUSH2 0x100 DUP4 DUP2 ADD CALLDATALOAD SWAP1 DUP3 ADD MSTORE PUSH2 0x120 PUSH2 0x375F DUP2 DUP6 ADD PUSH2 0x31F7 JUMP JUMPDEST SWAP1 DUP3 ADD MSTORE PUSH2 0x140 DUP4 DUP2 ADD CALLDATALOAD DUP4 DUP2 GT ISZERO PUSH2 0x3777 JUMPI PUSH1 0x0 DUP1 REVERT JUMPDEST PUSH2 0x3783 DUP15 DUP3 DUP8 ADD PUSH2 0x3570 JUMP JUMPDEST DUP3 DUP5 ADD MSTORE POP POP PUSH2 0x160 PUSH2 0x3798 DUP14 DUP3 DUP7 ADD PUSH2 0x3590 JUMP JUMPDEST SWAP1 DUP3 ADD MSTORE SWAP9 POP PUSH2 0x37AA PUSH1 0x20 DUP12 ADD PUSH2 0x31F7 JUMP JUMPDEST SWAP8 POP PUSH2 0x37B8 PUSH1 0x40 DUP12 ADD PUSH2 0x31F7 JUMP JUMPDEST SWAP7 POP PUSH2 0x37C6 PUSH1 0x60 DUP12 ADD PUSH2 0x31F7 JUMP JUMPDEST SWAP6 POP PUSH2 0x37D4 PUSH1 0x80 DUP12 ADD PUSH2 0x31F7 JUMP JUMPDEST SWAP5 POP PUSH1 0xA0 DUP11 ADD CALLDATALOAD SWAP2 POP DUP1 DUP3 GT ISZERO PUSH2 0x37EA JUMPI PUSH1 0x0 DUP1 REVERT JUMPDEST POP PUSH2 0x37F7 DUP11 DUP3 DUP12 ADD PUSH2 0x35DF JUMP JUMPDEST SWAP3 POP POP PUSH2 0x3806 PUSH1 0xC0 DUP10 ADD PUSH2 0x32C1 JUMP JUMPDEST SWAP1 POP SWAP3 SWAP6 SWAP9 SWAP2 SWAP5 SWAP8 POP SWAP3 SWAP6 POP JUMP JUMPDEST PUSH1 0x0 DUP1 PUSH1 0x40 DUP4 DUP6 SUB SLT ISZERO PUSH2 0x3827 JUMPI PUSH1 0x0 DUP1 REVERT JUMPDEST DUP3 CALLDATALOAD PUSH2 0x3832 DUP2 PUSH2 0x31E2 JUMP JUMPDEST SWAP2 POP PUSH1 0x20 DUP4 ADD CALLDATALOAD PUSH2 0x33FB DUP2 PUSH2 0x31E2 JUMP JUMPDEST PUSH1 0x1 DUP2 DUP2 SHR SWAP1 DUP3 AND DUP1 PUSH2 0x3856 JUMPI PUSH1 0x7F DUP3 AND SWAP2 POP JUMPDEST PUSH1 0x20 DUP3 LT DUP2 EQ ISZERO PUSH2 0x3877 JUMPI PUSH4 0x4E487B71 PUSH1 0xE0 SHL PUSH1 0x0 MSTORE PUSH1 0x22 PUSH1 0x4 MSTORE PUSH1 0x24 PUSH1 0x0 REVERT JUMPDEST POP SWAP2 SWAP1 POP JUMP JUMPDEST PUSH1 0x0 PUSH1 0x20 DUP3 DUP5 SUB SLT ISZERO PUSH2 0x388F JUMPI PUSH1 0x0 DUP1 REVERT JUMPDEST POP MLOAD SWAP2 SWAP1 POP JUMP JUMPDEST PUSH1 0x0 PUSH1 0x20 DUP3 DUP5 SUB SLT ISZERO PUSH2 0x38A8 JUMPI PUSH1 0x0 DUP1 REVERT JUMPDEST DUP2 MLOAD PUSH8 0xFFFFFFFFFFFFFFFF DUP2 GT ISZERO PUSH2 0x38BF JUMPI PUSH1 0x0 DUP1 REVERT JUMPDEST DUP3 ADD PUSH1 0x1F DUP2 ADD DUP5 SGT PUSH2 0x38D0 JUMPI PUSH1 0x0 DUP1 REVERT JUMPDEST DUP1 MLOAD PUSH2 0x38DE PUSH2 0x34AD DUP3 PUSH2 0x3477 JUMP JUMPDEST DUP2 DUP2 MSTORE DUP6 PUSH1 0x20 DUP4 DUP6 ADD ADD GT ISZERO PUSH2 0x38F3 JUMPI PUSH1 0x0 DUP1 REVERT JUMPDEST PUSH2 0x3904 DUP3 PUSH1 0x20 DUP4 ADD PUSH1 0x20 DUP7 ADD PUSH2 0x315E JUMP JUMPDEST SWAP6 SWAP5 POP POP POP POP POP JUMP JUMPDEST PUSH4 0x4E487B71 PUSH1 0xE0 SHL PUSH1 0x0 MSTORE PUSH1 0x11 PUSH1 0x4 MSTORE PUSH1 0x24 PUSH1 0x0 REVERT JUMPDEST PUSH1 0x0 PUSH3 0xFFFFFF DUP1 DUP4 AND DUP2 DUP2 EQ ISZERO PUSH2 0x393C JUMPI PUSH2 0x393C PUSH2 0x390D JUMP JUMPDEST PUSH1 0x1 ADD SWAP4 SWAP3 POP POP POP JUMP JUMPDEST PUSH1 0x0 PUSH3 0xFFFFFF DUP1 DUP4 AND DUP2 DUP6 AND DUP1 DUP4 SUB DUP3 GT ISZERO PUSH2 0x3964 JUMPI PUSH2 0x3964 PUSH2 0x390D JUMP JUMPDEST ADD SWAP5 SWAP4 POP POP POP POP JUMP JUMPDEST PUSH1 0x0 DUP2 PUSH1 0x0 NOT DIV DUP4 GT DUP3 ISZERO ISZERO AND ISZERO PUSH2 0x3987 JUMPI PUSH2 0x3987 PUSH2 0x390D JUMP JUMPDEST POP MUL SWAP1 JUMP JUMPDEST PUSH1 0x0 DUP3 NOT DUP3 GT ISZERO PUSH2 0x399F JUMPI PUSH2 0x399F PUSH2 0x390D JUMP JUMPDEST POP ADD SWAP1 JUMP JUMPDEST PUSH1 0x0 PUSH1 0x20 DUP3 DUP5 SUB SLT ISZERO PUSH2 0x39B6 JUMPI PUSH1 0x0 DUP1 REVERT JUMPDEST DUP2 MLOAD PUSH2 0x3157 DUP2 PUSH2 0x31E2 JUMP JUMPDEST PUSH4 0x4E487B71 PUSH1 0xE0 SHL PUSH1 0x0 MSTORE PUSH1 0x32 PUSH1 0x4 MSTORE PUSH1 0x24 PUSH1 0x0 REVERT JUMPDEST PUSH1 0x0 PUSH1 0x0 NOT DUP3 EQ ISZERO PUSH2 0x39EB JUMPI PUSH2 0x39EB PUSH2 0x390D JUMP JUMPDEST POP PUSH1 0x1 ADD SWAP1 JUMP JUMPDEST PUSH1 0x0 DUP3 PUSH2 0x3A0F JUMPI PUSH4 0x4E487B71 PUSH1 0xE0 SHL PUSH1 0x0 MSTORE PUSH1 0x12 PUSH1 0x4 MSTORE PUSH1 0x24 PUSH1 0x0 REVERT JUMPDEST POP DIV SWAP1 JUMP JUMPDEST PUSH1 0x0 DUP3 DUP3 LT ISZERO PUSH2 0x3A26 JUMPI PUSH2 0x3A26 PUSH2 0x390D JUMP JUMPDEST POP SUB SWAP1 JUMP JUMPDEST PUSH1 0x0 PUSH1 0x20 DUP3 DUP5 SUB SLT ISZERO PUSH2 0x3A3D JUMPI PUSH1 0x0 DUP1 REVERT JUMPDEST DUP2 MLOAD PUSH2 0x3157 DUP2 PUSH2 0x32B3 JUMP JUMPDEST PUSH1 0x20 DUP1 DUP3 MSTORE PUSH1 0x2D SWAP1 DUP3 ADD MSTORE PUSH32 0x4552433732313A2063616C6C6572206973206E6F7420746F6B656E206F776E65 PUSH1 0x40 DUP3 ADD MSTORE PUSH13 0x1C881BDC88185C1C1C9BDD9959 PUSH1 0x9A SHL PUSH1 0x60 DUP3 ADD MSTORE PUSH1 0x80 ADD SWAP1 JUMP JUMPDEST PUSH1 0x20 DUP1 DUP3 MSTORE PUSH1 0x32 SWAP1 DUP3 ADD MSTORE PUSH32 0x4552433732313A207472616E7366657220746F206E6F6E204552433732315265 PUSH1 0x40 DUP3 ADD MSTORE PUSH18 0x31B2B4BB32B91034B6B83632B6B2B73A32B9 PUSH1 0x71 SHL PUSH1 0x60 DUP3 ADD MSTORE PUSH1 0x80 ADD SWAP1 JUMP JUMPDEST PUSH1 0x1 PUSH1 0x1 PUSH1 0xA0 SHL SUB DUP6 DUP2 AND DUP3 MSTORE DUP5 AND PUSH1 0x20 DUP3 ADD MSTORE PUSH1 0x40 DUP2 ADD DUP4 SWAP1 MSTORE PUSH1 0x80 PUSH1 0x60 DUP3 ADD DUP2 SWAP1 MSTORE PUSH1 0x0 SWAP1 PUSH2 0x3B1A SWAP1 DUP4 ADD DUP5 PUSH2 0x318A JUMP JUMPDEST SWAP7 SWAP6 POP POP POP POP POP POP JUMP JUMPDEST PUSH1 0x0 PUSH1 0x20 DUP3 DUP5 SUB SLT ISZERO PUSH2 0x3B36 JUMPI PUSH1 0x0 DUP1 REVERT JUMPDEST DUP2 MLOAD PUSH2 0x3157 DUP2 PUSH2 0x3124 JUMP JUMPDEST PUSH1 0x20 DUP1 DUP3 MSTORE PUSH1 0x25 SWAP1 DUP3 ADD MSTORE PUSH32 0x4552433732313A207472616E736665722066726F6D20696E636F727265637420 PUSH1 0x40 DUP3 ADD MSTORE PUSH5 0x37BBB732B9 PUSH1 0xD9 SHL PUSH1 0x60 DUP3 ADD MSTORE PUSH1 0x80 ADD SWAP1 JUMP INVALID LOG2 PUSH5 0x6970667358 0x22 SLT KECCAK256 LOG2 0xD3 STATICCALL JUMP PUSH13 0x314CD0238D32A588AA1195933D PUSH9 0xD1F55D0ECBB7D7D05E PC 0x4E 0xAA ADDRESS PUSH5 0x736F6C6343 STOP ADDMOD 0xC STOP CALLER "},"methodIdentifiers":{"OPERATOR_FILTER_REGISTRY()":"41f43434","_admin()":"01bc45c9","_nameCol()":"452fa3d3","_paramsAddress()":"adfc7dae","_project()":"775bff9f","_projectDataContextAddr()":"575b57ea","_randomizer()":"ffc27c0e","_reserves(address)":"ac4fb5f4","_symbolCol()":"36a0a6cb","approve(address,uint256)":"095ea7b3","balanceOf(address)":"70a08231","changeAdmin(address)":"8f283970","changeDataContextAddr(address)":"472f1e02","changeParamAddr(address)":"febfd6c3","changeRandomizerAddr(address)":"1ca9741b","getApproved(uint256)":"081812fc","getStatus()":"4e69d560","init((address,uint256,uint24,uint24,uint24,uint24,string,address,uint256,address,string,(uint256,uint256)),address,address,address,address,address[],bool)":"e42b6ccd","isApprovedForAll(address,address)":"e985e9c5","mint()":"1249c58b","name()":"06fdde03","owner()":"8da5cb5b","ownerOf(uint256)":"6352211e","paused()":"5c975abb","renounceOwnership()":"715018a6","reserveMint()":"21c8d676","royalties(uint256)":"7f77f574","royaltyInfo(uint256,uint256)":"2a55205a","safeTransferFrom(address,address,uint256)":"42842e0e","safeTransferFrom(address,address,uint256,bytes)":"b88d4fde","setApprovalForAll(address,bool)":"a22cb465","setStatus(bool)":"5c40f6f4","setTokenRoyalty(uint256,address,uint256)":"9713c807","supportsInterface(bytes4)":"01ffc9a7","symbol()":"95d89b41","tokenGenerativeURI(uint256)":"10da88c5","tokenIdToHash(uint256)":"621a1f74","tokenURI(uint256)":"c87b56dd","transferFrom(address,address,uint256)":"23b872dd","transferOwnership(address)":"f2fde38b"}},"storageLayout":{"storage":[{"astId":1691,"contract":"contracts/nfts/GenerativeNFT.sol:GenerativeNFT","label":"_name","offset":0,"slot":"0","type":"t_string_storage"},{"astId":1693,"contract":"contracts/nfts/GenerativeNFT.sol:GenerativeNFT","label":"_symbol","offset":0,"slot":"1","type":"t_string_storage"},{"astId":1697,"contract":"contracts/nfts/GenerativeNFT.sol:GenerativeNFT","label":"_owners","offset":0,"slot":"2","type":"t_mapping(t_uint256,t_address)"},{"astId":1701,"contract":"contracts/nfts/GenerativeNFT.sol:GenerativeNFT","label":"_balances","offset":0,"slot":"3","type":"t_mapping(t_address,t_uint256)"},{"astId":1705,"contract":"contracts/nfts/GenerativeNFT.sol:GenerativeNFT","label":"_tokenApprovals","offset":0,"slot":"4","type":"t_mapping(t_uint256,t_address)"},{"astId":1711,"contract":"contracts/nfts/GenerativeNFT.sol:GenerativeNFT","label":"_operatorApprovals","offset":0,"slot":"5","type":"t_mapping(t_address,t_mapping(t_address,t_bool))"},{"astId":1443,"contract":"contracts/nfts/GenerativeNFT.sol:GenerativeNFT","label":"_paused","offset":0,"slot":"6","type":"t_bool"},{"astId":1544,"contract":"contracts/nfts/GenerativeNFT.sol:GenerativeNFT","label":"_status","offset":0,"slot":"7","type":"t_uint256"},{"astId":1301,"contract":"contracts/nfts/GenerativeNFT.sol:GenerativeNFT","label":"_owner","offset":0,"slot":"8","type":"t_address"},{"astId":6457,"contract":"contracts/nfts/GenerativeNFT.sol:GenerativeNFT","label":"_ownersAndHashSeeds","offset":0,"slot":"9","type":"t_mapping(t_uint256,t_struct(OwnerSeed)6332_storage)"},{"astId":6459,"contract":"contracts/nfts/GenerativeNFT.sol:GenerativeNFT","label":"_admin","offset":0,"slot":"10","type":"t_address"},{"astId":6461,"contract":"contracts/nfts/GenerativeNFT.sol:GenerativeNFT","label":"_paramsAddress","offset":0,"slot":"11","type":"t_address"},{"astId":6463,"contract":"contracts/nfts/GenerativeNFT.sol:GenerativeNFT","label":"_randomizer","offset":0,"slot":"12","type":"t_address"},{"astId":6465,"contract":"contracts/nfts/GenerativeNFT.sol:GenerativeNFT","label":"_projectDataContextAddr","offset":0,"slot":"13","type":"t_address"},{"astId":6467,"contract":"contracts/nfts/GenerativeNFT.sol:GenerativeNFT","label":"_nameCol","offset":0,"slot":"14","type":"t_string_storage"},{"astId":6469,"contract":"contracts/nfts/GenerativeNFT.sol:GenerativeNFT","label":"_symbolCol","offset":0,"slot":"15","type":"t_string_storage"},{"astId":6828,"contract":"contracts/nfts/GenerativeNFT.sol:GenerativeNFT","label":"royalties","offset":0,"slot":"16","type":"t_mapping(t_uint256,t_struct(RoyaltyInfo)6425_storage)"},{"astId":6831,"contract":"contracts/nfts/GenerativeNFT.sol:GenerativeNFT","label":"_project","offset":0,"slot":"17","type":"t_struct(ProjectMinting)6410_storage"},{"astId":6835,"contract":"contracts/nfts/GenerativeNFT.sol:GenerativeNFT","label":"_reserves","offset":0,"slot":"27","type":"t_mapping(t_address,t_bool)"}],"types":{"t_address":{"encoding":"inplace","label":"address","numberOfBytes":"20"},"t_bool":{"encoding":"inplace","label":"bool","numberOfBytes":"1"},"t_bytes12":{"encoding":"inplace","label":"bytes12","numberOfBytes":"12"},"t_mapping(t_address,t_bool)":{"encoding":"mapping","key":"t_address","label":"mapping(address => bool)","numberOfBytes":"32","value":"t_bool"},"t_mapping(t_address,t_mapping(t_address,t_bool))":{"encoding":"mapping","key":"t_address","label":"mapping(address => mapping(address => bool))","numberOfBytes":"32","value":"t_mapping(t_address,t_bool)"},"t_mapping(t_address,t_uint256)":{"encoding":"mapping","key":"t_address","label":"mapping(address => uint256)","numberOfBytes":"32","value":"t_uint256"},"t_mapping(t_uint256,t_address)":{"encoding":"mapping","key":"t_uint256","label":"mapping(uint256 => address)","numberOfBytes":"32","value":"t_address"},"t_mapping(t_uint256,t_struct(OwnerSeed)6332_storage)":{"encoding":"mapping","key":"t_uint256","label":"mapping(uint256 => struct NFTCollection.OwnerSeed)","numberOfBytes":"32","value":"t_struct(OwnerSeed)6332_storage"},"t_mapping(t_uint256,t_struct(RoyaltyInfo)6425_storage)":{"encoding":"mapping","key":"t_uint256","label":"mapping(uint256 => struct Royalty.RoyaltyInfo)","numberOfBytes":"32","value":"t_struct(RoyaltyInfo)6425_storage"},"t_string_storage":{"encoding":"bytes","label":"string","numberOfBytes":"32"},"t_struct(OwnerSeed)6332_storage":{"encoding":"inplace","label":"struct NFTCollection.OwnerSeed","members":[{"astId":6329,"contract":"contracts/nfts/GenerativeNFT.sol:GenerativeNFT","label":"_owner","offset":0,"slot":"0","type":"t_address"},{"astId":6331,"contract":"contracts/nfts/GenerativeNFT.sol:GenerativeNFT","label":"_seed","offset":20,"slot":"0","type":"t_bytes12"}],"numberOfBytes":"32"},"t_struct(ProjectMinting)6410_storage":{"encoding":"inplace","label":"struct NFTProject.ProjectMinting","members":[{"astId":6386,"contract":"contracts/nfts/GenerativeNFT.sol:GenerativeNFT","label":"_projectAddr","offset":0,"slot":"0","type":"t_address"},{"astId":6388,"contract":"contracts/nfts/GenerativeNFT.sol:GenerativeNFT","label":"_projectId","offset":0,"slot":"1","type":"t_uint256"},{"astId":6390,"contract":"contracts/nfts/GenerativeNFT.sol:GenerativeNFT","label":"_maxSupply","offset":0,"slot":"2","type":"t_uint24"},{"astId":6392,"contract":"contracts/nfts/GenerativeNFT.sol:GenerativeNFT","label":"_limit","offset":3,"slot":"2","type":"t_uint24"},{"astId":6394,"contract":"contracts/nfts/GenerativeNFT.sol:GenerativeNFT","label":"_index","offset":6,"slot":"2","type":"t_uint24"},{"astId":6396,"contract":"contracts/nfts/GenerativeNFT.sol:GenerativeNFT","label":"_indexReserve","offset":9,"slot":"2","type":"t_uint24"},{"astId":6398,"contract":"contracts/nfts/GenerativeNFT.sol:GenerativeNFT","label":"_creator","offset":0,"slot":"3","type":"t_string_storage"},{"astId":6400,"contract":"contracts/nfts/GenerativeNFT.sol:GenerativeNFT","label":"_creatorAddr","offset":0,"slot":"4","type":"t_address"},{"astId":6402,"contract":"contracts/nfts/GenerativeNFT.sol:GenerativeNFT","label":"_mintPrice","offset":0,"slot":"5","type":"t_uint256"},{"astId":6404,"contract":"contracts/nfts/GenerativeNFT.sol:GenerativeNFT","label":"_mintPriceAddr","offset":0,"slot":"6","type":"t_address"},{"astId":6406,"contract":"contracts/nfts/GenerativeNFT.sol:GenerativeNFT","label":"_name","offset":0,"slot":"7","type":"t_string_storage"},{"astId":6409,"contract":"contracts/nfts/GenerativeNFT.sol:GenerativeNFT","label":"_mintingSchedule","offset":0,"slot":"8","type":"t_struct(ProjectMintingSchedule)6415_storage"}],"numberOfBytes":"320"},"t_struct(ProjectMintingSchedule)6415_storage":{"encoding":"inplace","label":"struct NFTProject.ProjectMintingSchedule","members":[{"astId":6412,"contract":"contracts/nfts/GenerativeNFT.sol:GenerativeNFT","label":"_initBlockTime","offset":0,"slot":"0","type":"t_uint256"},{"astId":6414,"contract":"contracts/nfts/GenerativeNFT.sol:GenerativeNFT","label":"_openingTime","offset":0,"slot":"1","type":"t_uint256"}],"numberOfBytes":"64"},"t_struct(RoyaltyInfo)6425_storage":{"encoding":"inplace","label":"struct Royalty.RoyaltyInfo","members":[{"astId":6420,"contract":"contracts/nfts/GenerativeNFT.sol:GenerativeNFT","label":"recipient","offset":0,"slot":"0","type":"t_address"},{"astId":6422,"contract":"contracts/nfts/GenerativeNFT.sol:GenerativeNFT","label":"amount","offset":20,"slot":"0","type":"t_uint24"},{"astId":6424,"contract":"contracts/nfts/GenerativeNFT.sol:GenerativeNFT","label":"isValue","offset":23,"slot":"0","type":"t_bool"}],"numberOfBytes":"32"},"t_uint24":{"encoding":"inplace","label":"uint24","numberOfBytes":"3"},"t_uint256":{"encoding":"inplace","label":"uint256","numberOfBytes":"32"}}}}}}