{"contracts/libs/configs/GenerativeNFTConfigs.sol":{"GenerativeNFTConfigs":{"abi":[{"inputs":[],"name":"DEFAULT_ROYALTY_FIN_PERCENT","outputs":[{"internalType":"string","name":"","type":"string"}],"stateMutability":"view","type":"function"},{"inputs":[],"name":"MINT_NFT_OPERATOR_FEE","outputs":[{"internalType":"string","name":"","type":"string"}],"stateMutability":"view","type":"function"},{"inputs":[],"name":"MINT_NFT_OPERATOR_TREASURE_ADDR","outputs":[{"internalType":"string","name":"","type":"string"}],"stateMutability":"view","type":"function"},{"inputs":[],"name":"PROJECT_PADDING","outputs":[{"internalType":"uint256","name":"","type":"uint256"}],"stateMutability":"view","type":"function"},{"inputs":[],"name":"ROYALTY_FIN_ADDRESS","outputs":[{"internalType":"string","name":"","type":"string"}],"stateMutability":"view","type":"function"}],"evm":{"bytecode":{"linkReferences":{},"object":"6101fd61003a600b82828239805160001a60731461002d57634e487b7160e01b600052600060045260246000fd5b30600052607381538281f3fe73000000000000000000000000000000000000000030146080604052600436106100615760003560e01c8063662e8ce71461006657806381f6b8d3146100b857806393accc40146100ec578063c8fce78314610128578063cb0d7f2714610140575b600080fd5b6100a26040518060400160405280601f81526020017f4d494e545f4e46545f4f50455241544f525f54524541535552455f414444520081525081565b6040516100af9190610172565b60405180910390f35b6100a2604051806040016040528060158152602001744d494e545f4e46545f4f50455241544f525f46454560581b81525081565b6100a26040518060400160405280601b81526020017f44454641554c545f524f59414c54595f46494e5f50455243454e54000000000081525081565b610132620f424081565b6040519081526020016100af565b6100a260405180604001604052806013815260200172524f59414c54595f46494e5f4144445245535360681b81525081565b600060208083528351808285015260005b8181101561019f57858101830151858201604001528201610183565b818111156101b1576000604083870101525b50601f01601f191692909201604001939250505056fea26469706673582212203e85deb60fefe21f65a82313c3a588aab869fffecabcbeff82173566146b508764736f6c634300080c0033","opcodes":"PUSH2 0x1FD PUSH2 0x3A PUSH1 0xB DUP3 DUP3 DUP3 CODECOPY DUP1 MLOAD PUSH1 0x0 BYTE PUSH1 0x73 EQ PUSH2 0x2D JUMPI PUSH4 0x4E487B71 PUSH1 0xE0 SHL PUSH1 0x0 MSTORE PUSH1 0x0 PUSH1 0x4 MSTORE PUSH1 0x24 PUSH1 0x0 REVERT JUMPDEST ADDRESS PUSH1 0x0 MSTORE PUSH1 0x73 DUP2 MSTORE8 DUP3 DUP2 RETURN INVALID PUSH20 0x0 ADDRESS EQ PUSH1 0x80 PUSH1 0x40 MSTORE PUSH1 0x4 CALLDATASIZE LT PUSH2 0x61 JUMPI PUSH1 0x0 CALLDATALOAD PUSH1 0xE0 SHR DUP1 PUSH4 0x662E8CE7 EQ PUSH2 0x66 JUMPI DUP1 PUSH4 0x81F6B8D3 EQ PUSH2 0xB8 JUMPI DUP1 PUSH4 0x93ACCC40 EQ PUSH2 0xEC JUMPI DUP1 PUSH4 0xC8FCE783 EQ PUSH2 0x128 JUMPI DUP1 PUSH4 0xCB0D7F27 EQ PUSH2 0x140 JUMPI JUMPDEST PUSH1 0x0 DUP1 REVERT JUMPDEST PUSH2 0xA2 PUSH1 0x40 MLOAD DUP1 PUSH1 0x40 ADD PUSH1 0x40 MSTORE DUP1 PUSH1 0x1F DUP2 MSTORE PUSH1 0x20 ADD PUSH32 0x4D494E545F4E46545F4F50455241544F525F54524541535552455F4144445200 DUP2 MSTORE POP DUP2 JUMP JUMPDEST PUSH1 0x40 MLOAD PUSH2 0xAF SWAP2 SWAP1 PUSH2 0x172 JUMP JUMPDEST PUSH1 0x40 MLOAD DUP1 SWAP2 SUB SWAP1 RETURN JUMPDEST PUSH2 0xA2 PUSH1 0x40 MLOAD DUP1 PUSH1 0x40 ADD PUSH1 0x40 MSTORE DUP1 PUSH1 0x15 DUP2 MSTORE PUSH1 0x20 ADD PUSH21 0x4D494E545F4E46545F4F50455241544F525F464545 PUSH1 0x58 SHL DUP2 MSTORE POP DUP2 JUMP JUMPDEST PUSH2 0xA2 PUSH1 0x40 MLOAD DUP1 PUSH1 0x40 ADD PUSH1 0x40 MSTORE DUP1 PUSH1 0x1B DUP2 MSTORE PUSH1 0x20 ADD PUSH32 0x44454641554C545F524F59414C54595F46494E5F50455243454E540000000000 DUP2 MSTORE POP DUP2 JUMP JUMPDEST PUSH2 0x132 PUSH3 0xF4240 DUP2 JUMP JUMPDEST PUSH1 0x40 MLOAD SWAP1 DUP2 MSTORE PUSH1 0x20 ADD PUSH2 0xAF JUMP JUMPDEST PUSH2 0xA2 PUSH1 0x40 MLOAD DUP1 PUSH1 0x40 ADD PUSH1 0x40 MSTORE DUP1 PUSH1 0x13 DUP2 MSTORE PUSH1 0x20 ADD PUSH19 0x524F59414C54595F46494E5F41444452455353 PUSH1 0x68 SHL DUP2 MSTORE POP DUP2 JUMP JUMPDEST PUSH1 0x0 PUSH1 0x20 DUP1 DUP4 MSTORE DUP4 MLOAD DUP1 DUP3 DUP6 ADD MSTORE PUSH1 0x0 JUMPDEST DUP2 DUP2 LT ISZERO PUSH2 0x19F JUMPI DUP6 DUP2 ADD DUP4 ADD MLOAD DUP6 DUP3 ADD PUSH1 0x40 ADD MSTORE DUP3 ADD PUSH2 0x183 JUMP JUMPDEST DUP2 DUP2 GT ISZERO PUSH2 0x1B1 JUMPI PUSH1 0x0 PUSH1 0x40 DUP4 DUP8 ADD ADD MSTORE JUMPDEST POP PUSH1 0x1F ADD PUSH1 0x1F NOT AND SWAP3 SWAP1 SWAP3 ADD PUSH1 0x40 ADD SWAP4 SWAP3 POP POP POP JUMP INVALID LOG2 PUSH5 0x6970667358 0x22 SLT KECCAK256 RETURNDATACOPY DUP6 0xDE 0xB6 0xF 0xEF 0xE2 0x1F PUSH6 0xA82313C3A588 0xAA 0xB8 PUSH10 0xFFFECABCBEFF82173566 EQ PUSH12 0x508764736F6C634300080C00 CALLER "},"methodIdentifiers":{"DEFAULT_ROYALTY_FIN_PERCENT()":"93accc40","MINT_NFT_OPERATOR_FEE()":"81f6b8d3","MINT_NFT_OPERATOR_TREASURE_ADDR()":"662e8ce7","PROJECT_PADDING()":"c8fce783","ROYALTY_FIN_ADDRESS()":"cb0d7f27"}},"storageLayout":{"storage":[],"types":null}}}}