{"contracts/services/SimpleMarketplaceService.sol":{"SimpleMarketplaceService":{"abi":[{"anonymous":false,"inputs":[{"indexed":false,"internalType":"uint8","name":"version","type":"uint8"}],"name":"Initialized","type":"event"},{"inputs":[],"name":"_admin","outputs":[{"internalType":"address","name":"","type":"address"}],"stateMutability":"view","type":"function"},{"inputs":[{"internalType":"uint256","name":"","type":"uint256"}],"name":"_arrayListingId","outputs":[{"internalType":"bytes32","name":"","type":"bytes32"}],"stateMutability":"view","type":"function"},{"inputs":[{"internalType":"uint256","name":"","type":"uint256"}],"name":"_arrayMakeOfferId","outputs":[{"internalType":"bytes32","name":"","type":"bytes32"}],"stateMutability":"view","type":"function"},{"inputs":[{"internalType":"bytes32","name":"","type":"bytes32"}],"name":"_listingTokens","outputs":[{"internalType":"address","name":"_collectionContract","type":"address"},{"internalType":"uint256","name":"_tokenId","type":"uint256"},{"internalType":"address","name":"_seller","type":"address"},{"internalType":"uint256","name":"_price","type":"uint256"},{"internalType":"address","name":"_erc20Token","type":"address"},{"internalType":"bool","name":"_closed","type":"bool"},{"internalType":"uint256","name":"_durationTime","type":"uint256"}],"stateMutability":"view","type":"function"},{"inputs":[{"internalType":"bytes32","name":"","type":"bytes32"}],"name":"_makeOfferTokens","outputs":[{"internalType":"address","name":"_collectionContract","type":"address"},{"internalType":"uint256","name":"_tokenId","type":"uint256"},{"internalType":"address","name":"_buyer","type":"address"},{"internalType":"address","name":"_erc20Token","type":"address"},{"internalType":"uint256","name":"_price","type":"uint256"},{"internalType":"bool","name":"_closed","type":"bool"},{"internalType":"uint256","name":"_durationTime","type":"uint256"}],"stateMutability":"view","type":"function"},{"inputs":[],"name":"_parameterAddr","outputs":[{"internalType":"address","name":"","type":"address"}],"stateMutability":"view","type":"function"},{"inputs":[],"name":"arrayListingId","outputs":[{"internalType":"bytes32[]","name":"","type":"bytes32[]"}],"stateMutability":"view","type":"function"},{"inputs":[{"internalType":"bytes32","name":"_offeringId","type":"bytes32"}],"name":"cancelListing","outputs":[],"stateMutability":"nonpayable","type":"function"},{"inputs":[{"internalType":"address","name":"newAdm","type":"address"}],"name":"changeAdmin","outputs":[],"stateMutability":"nonpayable","type":"function"},{"inputs":[{"internalType":"address","name":"newAddr","type":"address"}],"name":"changeParamAddr","outputs":[],"stateMutability":"nonpayable","type":"function"},{"inputs":[{"internalType":"address","name":"admin","type":"address"},{"internalType":"address","name":"parameterControl","type":"address"}],"name":"initialize","outputs":[],"stateMutability":"nonpayable","type":"function"},{"inputs":[{"components":[{"internalType":"address","name":"_collectionContract","type":"address"},{"internalType":"uint256","name":"_tokenId","type":"uint256"},{"internalType":"address","name":"_seller","type":"address"},{"internalType":"uint256","name":"_price","type":"uint256"},{"internalType":"address","name":"_erc20Token","type":"address"},{"internalType":"bool","name":"_closed","type":"bool"},{"internalType":"uint256","name":"_durationTime","type":"uint256"}],"internalType":"struct Marketplace.ListingTokenData","name":"listingData","type":"tuple"}],"name":"listToken","outputs":[{"internalType":"bytes32","name":"","type":"bytes32"}],"stateMutability":"nonpayable","type":"function"},{"inputs":[{"internalType":"bytes32","name":"offeringId","type":"bytes32"}],"name":"purchaseToken","outputs":[],"stateMutability":"payable","type":"function"},{"inputs":[{"internalType":"address","name":"receiver","type":"address"},{"internalType":"address","name":"erc20Addr","type":"address"},{"internalType":"uint256","name":"amount","type":"uint256"}],"name":"withdraw","outputs":[],"stateMutability":"nonpayable","type":"function"}],"evm":{"bytecode":{"linkReferences":{},"object":"608060405234801561001057600080fd5b50611b4a806100206000396000f3fe6080604052600436106100dd5760003560e01c806372c035cf1161007f578063a3a1937c11610059578063a3a1937c146102d7578063d9caed121461038c578063ed4ec201146103ac578063febfd6c3146103cc57600080fd5b806372c035cf146102775780638f283970146102975780639299e552146102b757600080fd5b80633dd72c40116100bb5780633dd72c4014610162578063485cc9551461021557806351351e3e146102355780635861933e1461025557600080fd5b806301bc45c9146100e25780631fd4d2ed1461011f5780633ac1089a1461014d575b600080fd5b3480156100ee57600080fd5b50603454610102906001600160a01b031681565b6040516001600160a01b0390911681526020015b60405180910390f35b34801561012b57600080fd5b5061013f61013a366004611793565b6103ec565b604051908152602001610116565b61016061015b366004611793565b61040d565b005b34801561016e57600080fd5b506101cc61017d366004611793565b60386020526000908152604090208054600182015460028301546003840154600485015460058601546006909601546001600160a01b03958616969495938416949290931692909160ff169087565b604080516001600160a01b039889168152602081019790975294871694860194909452949091166060840152608083015291151560a082015260c081019190915260e001610116565b34801561022157600080fd5b506101606102303660046117cc565b61042b565b34801561024157600080fd5b5061013f610250366004611834565b6105ef565b34801561026157600080fd5b5061026a610612565b60405161011691906118e0565b34801561028357600080fd5b50603554610102906001600160a01b031681565b3480156102a357600080fd5b506101606102b2366004611924565b61066a565b3480156102c357600080fd5b506101606102d2366004611793565b6106fc565b3480156102e357600080fd5b506103416102f2366004611793565b6036602052600090815260409020805460018201546002830154600384015460048501546005909501546001600160a01b03948516959394928316939192821691600160a01b900460ff169087565b604080516001600160a01b0398891681526020810197909752948716948601949094526060850192909252909316608083015291151560a082015260c081019190915260e001610116565b34801561039857600080fd5b506101606103a7366004611948565b610705565b3480156103b857600080fd5b5061013f6103c7366004611793565b61085f565b3480156103d857600080fd5b506101606103e7366004611924565b61086f565b603981815481106103fc57600080fd5b600091825260209091200154905081565b610415610901565b61041f813361095b565b61042860018055565b50565b600054610100900460ff161580801561044b5750600054600160ff909116105b806104655750303b158015610465575060005460ff166001145b6104cd5760405162461bcd60e51b815260206004820152602e60248201527f496e697469616c697a61626c653a20636f6e747261637420697320616c72656160448201526d191e481a5b9a5d1a585b1a5e995960921b60648201526084015b60405180910390fd5b6000805460ff1916600117905580156104f0576000805461ff0019166101001790555b60408051808201909152600381526203130360ec1b60208201526001600160a01b0384166105315760405162461bcd60e51b81526004016104c491906119b9565b5060408051808201909152600381526203130360ec1b60208201526001600160a01b0383166105735760405162461bcd60e51b81526004016104c491906119b9565b50603480546001600160a01b038086166001600160a01b031992831617909255603580549285169290911691909117905580156105ea576000805461ff0019169055604051600181527f7f26b83ff96e1f2b6a682f133852f6798a09c465da95921460cefb38474024989060200160405180910390a15b505050565b60006105f9610901565b610602826111ca565b905061060d60018055565b919050565b6060603780548060200260200160405190810160405280929190818152602001828054801561066057602002820191906000526020600020905b81548152602001906001019080831161064c575b5050505050905090565b6034546001600160a01b03163314801561068c57506001600160a01b03811615155b6040518060400160405280600381526020016231303160e81b815250906106c65760405162461bcd60e51b81526004016104c491906119b9565b506034546001600160a01b0382811691161461042857603480546001600160a01b0383166001600160a01b031990911617905550565b6104288161153f565b61070d610901565b60345460408051808201909152600381526231303160e81b6020820152906001600160a01b031633146107535760405162461bcd60e51b81526004016104c491906119b9565b5060006001600160a01b0383166107d4578147101561077157600080fd5b6040516001600160a01b038516908390600081818185875af1925050503d80600081146107ba576040519150601f19603f3d011682016040523d82523d6000602084013e6107bf565b606091505b505080915050806107cf57600080fd5b610855565b60405163a9059cbb60e01b81526001600160a01b0385811660048301526024820184905284919082169063a9059cbb906044016020604051808303816000875af1158015610826573d6000803e3d6000fd5b505050506040513d601f19601f8201168201806040525081019061084a91906119ec565b61085357600080fd5b505b506105ea60018055565b603781815481106103fc57600080fd5b6034546001600160a01b03163314801561089157506001600160a01b03811615155b6040518060400160405280600381526020016231303160e81b815250906108cb5760405162461bcd60e51b81526004016104c491906119b9565b506035546001600160a01b0382811691161461042857603580546001600160a01b0383166001600160a01b031990911617905550565b600260015414156109545760405162461bcd60e51b815260206004820152601f60248201527f5265656e7472616e637947756172643a207265656e7472616e742063616c6c0060448201526064016104c4565b6002600155565b6000828152603660209081526040808320815160e08101835281546001600160a01b03908116808352600184015483870181905260028501548316848701819052600386015460608087019190915260048701549485166080808801829052600160a01b90960460ff16151560a08089019190915260059098015460c08089019190915289519081018a528b8152998a018b90529789018a9052880189905292870188905293860196909652909493849315159060008215610b42575060808701516040805160c0810182526001600160a01b03808c168083526060808d0180516020860152518486015293516370a0823160e01b815260048101919091529192830191908416906370a0823190602401602060405180830381865afa158015610a89573d6000803e3d6000fd5b505050506040513d601f19601f82011682018060405250810190610aad9190611a09565b8152604051636eb1769f60e11b81526001600160a01b038c8116600483015230602483015260209092019184169063dd62ed3e90604401602060405180830381865afa158015610b01573d6000803e3d6000fd5b505050506040513d601f19601f82011682018060405250810190610b259190611a09565b815260200189608001516001600160a01b03168152509150610b8f565b6040518060c001604052808a6001600160a01b031681526020018960600151815260200189606001518152602001600081526020016000815260200160006001600160a01b031681525091505b6040516331a9108f60e11b8152600481018690526001600160a01b038086169190881690636352211e90602401602060405180830381865afa158015610bd9573d6000803e3d6000fd5b505050506040513d601f19601f82011682018060405250810190610bfd9190611a22565b6001600160a01b0316146040518060400160405280600381526020016203330360ec1b81525090610c415760405162461bcd60e51b81526004016104c491906119b9565b508215610cdb578160200151826080015110156040518060400160405280600381526020016233303560e81b81525090610c8e5760405162461bcd60e51b81526004016104c491906119b9565b50816020015182606001511015604051806040016040528060038152602001620ccc0d60ea1b81525090610cd55760405162461bcd60e51b81526004016104c491906119b9565b50610d1f565b81602001513410156040518060400160405280600381526020016233303360e81b81525090610d1d5760405162461bcd60e51b81526004016104c491906119b9565b505b60008a815260366020908152604091829020600401548251808401909352600383526219981960e91b91830191909152600160a01b900460ff1615610d775760405162461bcd60e51b81526004016104c491906119b9565b508151604051632142170760e11b81523060048201526001600160a01b03918216602482015260448101879052908716906342842e0e90606401600060405180830381600087803b158015610dcb57600080fd5b505af1158015610ddf573d6000803e3d6000fd5b50506035546040805160808101825260008082526020808301829052828401829052606083019190915282518084018452601b81527f4d41524b4554504c4143455f42454e454649545f50455243454e540000000000918101919091529151636d12dce160e01b81526001600160a01b03909316945092508391636d12dce191610e6b916004016119b9565b602060405180830381865afa158015610e88573d6000803e3d6000fd5b505050506040513d601f19601f82011682018060405250810190610eac9190611a09565b60408201819052610ec0576109c460408201525b604081015115610f075761271081604001518560400151610ee19190611a55565b610eeb9190611a74565b60608201819052602085018051610f03908390611a96565b9052505b841561108e57835160408086015190516323b872dd60e01b81526001600160a01b0392831660048201523060248201526044810191909152908416906323b872dd906064016020604051808303816000875af1158015610f6b573d6000803e3d6000fd5b505050506040513d601f19601f82011682018060405250810190610f8f91906119ec565b6040518060400160405280600381526020016219981b60e91b81525090610fc95760405162461bcd60e51b81526004016104c491906119b9565b5060408a810151602086015191516323b872dd60e01b81523060048201526001600160a01b03918216602482015260448101929092528416906323b872dd906064016020604051808303816000875af115801561102a573d6000803e3d6000fd5b505050506040513d601f19601f8201168201806040525081019061104e91906119ec565b6040518060400160405280600381526020016219981b60e91b815250906110885760405162461bcd60e51b81526004016104c491906119b9565b50611163565b60408051808201909152600381526233303360e81b6020820152476110c65760405162461bcd60e51b81526004016104c491906119b9565b5060008a604001516001600160a01b0316856020015160405160006040518083038185875af1925050503d806000811461111c576040519150601f19603f3d011682016040523d82523d6000602084013e611121565b606091505b50509050806040518060400160405280600381526020016219981b60e91b815250906111605760405162461bcd60e51b81526004016104c491906119b9565b50505b60008c815260366020526040808220600401805460ff60a01b1916600160a01b179055855190516001600160a01b03909116918e917f3004f67c11f5aa47210c03ff25c0f48c410d0a417b33292fca39f25ba8d2dddf9190a3505050505050505050505050565b805160208201516040516331a9108f60e11b815260048101919091526000919033906001600160a01b03831690636352211e90602401602060405180830381865afa15801561121d573d6000803e3d6000fd5b505050506040513d601f19601f820116820180604052508101906112419190611a22565b6001600160a01b0316146040518060400160405280600381526020016203330360ec1b815250906112855760405162461bcd60e51b81526004016104c491906119b9565b5060405163e985e9c560e01b81523360048201523060248201526000906001600160a01b0383169063e985e9c590604401602060405180830381865afa1580156112d3573d6000803e3d6000fd5b505050506040513d601f19601f820116820180604052508101906112f791906119ec565b60408051808201909152600381526233303160e81b60208201529091506001821515146113375760405162461bcd60e51b81526004016104c491906119b9565b506033805490600061134883611aad565b9190505550600061135a60335461161d565b8551602087015161136a9061161d565b60405160200161137c93929190611ac8565b604051602081830303815290604052805190602001209050846036600083815260200190815260200160002060008201518160000160006101000a8154816001600160a01b0302191690836001600160a01b031602179055506020820151816001015560408201518160020160006101000a8154816001600160a01b0302191690836001600160a01b031602179055506060820151816003015560808201518160040160006101000a8154816001600160a01b0302191690836001600160a01b0316021790555060a08201518160040160146101000a81548160ff02191690831515021790555060c08201518160050155905050336036600083815260200190815260200160002060020160006101000a8154816001600160a01b0302191690836001600160a01b031602179055506037819080600181540180825580915050600190039060005260206000200160009091909190915055336001600160a01b031685600001516001600160a01b0316827fa2c73c734a10dc845099c99c4c34e3db3329eb72b7061d3eafb5ecfb877c593c8860200151896060015160405161152f929190918252602082015260400190565b60405180910390a4949350505050565b600081815260366020908152604091829020600201548251808401909352600383526203330360ec1b918301919091526001600160a01b031633146115975760405162461bcd60e51b81526004016104c491906119b9565b50600081815260366020526040902060040154600160a01b900460ff16156115be57600080fd5b60008181526036602052604080822060048101805460ff60a01b1916600160a01b1790556002015490516001600160a01b039091169183917fee847753f7429cae2eda1655de552711ce889fc0679c05a3026b65f98bc648779190a350565b6060600061162a836116ba565b600101905060008167ffffffffffffffff81111561164a5761164a611805565b6040519080825280601f01601f191660200182016040528015611674576020820181803683370190505b5090508181016020015b600019016f181899199a1a9b1b9c1cb0b131b232b360811b600a86061a8153600a85049450846116ad576116b2565b61167e565b509392505050565b60008072184f03e93ff9f4daa797ed6e38ed64bf6a1f0160401b83106116f95772184f03e93ff9f4daa797ed6e38ed64bf6a1f0160401b830492506040015b6d04ee2d6d415b85acef81000000008310611725576d04ee2d6d415b85acef8100000000830492506020015b662386f26fc10000831061174357662386f26fc10000830492506010015b6305f5e100831061175b576305f5e100830492506008015b612710831061176f57612710830492506004015b60648310611781576064830492506002015b600a831061178d576001015b92915050565b6000602082840312156117a557600080fd5b5035919050565b6001600160a01b038116811461042857600080fd5b803561060d816117ac565b600080604083850312156117df57600080fd5b82356117ea816117ac565b915060208301356117fa816117ac565b809150509250929050565b634e487b7160e01b600052604160045260246000fd5b801515811461042857600080fd5b803561060d8161181b565b600060e0828403121561184657600080fd5b60405160e0810181811067ffffffffffffffff8211171561187757634e487b7160e01b600052604160045260246000fd5b604052611883836117c1565b81526020830135602082015261189b604084016117c1565b6040820152606083013560608201526118b6608084016117c1565b60808201526118c760a08401611829565b60a082015260c083013560c08201528091505092915050565b6020808252825182820181905260009190848201906040850190845b81811015611918578351835292840192918401916001016118fc565b50909695505050505050565b60006020828403121561193657600080fd5b8135611941816117ac565b9392505050565b60008060006060848603121561195d57600080fd5b8335611968816117ac565b92506020840135611978816117ac565b929592945050506040919091013590565b60005b838110156119a457818101518382015260200161198c565b838111156119b3576000848401525b50505050565b60208152600082518060208401526119d8816040850160208701611989565b601f01601f19169190910160400192915050565b6000602082840312156119fe57600080fd5b81516119418161181b565b600060208284031215611a1b57600080fd5b5051919050565b600060208284031215611a3457600080fd5b8151611941816117ac565b634e487b7160e01b600052601160045260246000fd5b6000816000190483118215151615611a6f57611a6f611a3f565b500290565b600082611a9157634e487b7160e01b600052601260045260246000fd5b500490565b600082821015611aa857611aa8611a3f565b500390565b6000600019821415611ac157611ac1611a3f565b5060010190565b60008451611ada818460208901611989565b606085901b6bffffffffffffffffffffffff19169083019081528351611b07816014840160208801611989565b016014019594505050505056fea2646970667358221220b571f4930b46cd501eb321d0593dfde334adf76a1ac1b7a3c13bb33dad2ddfa464736f6c634300080c0033","opcodes":"PUSH1 0x80 PUSH1 0x40 MSTORE CALLVALUE DUP1 ISZERO PUSH2 0x10 JUMPI PUSH1 0x0 DUP1 REVERT JUMPDEST POP PUSH2 0x1B4A DUP1 PUSH2 0x20 PUSH1 0x0 CODECOPY PUSH1 0x0 RETURN INVALID PUSH1 0x80 PUSH1 0x40 MSTORE PUSH1 0x4 CALLDATASIZE LT PUSH2 0xDD JUMPI PUSH1 0x0 CALLDATALOAD PUSH1 0xE0 SHR DUP1 PUSH4 0x72C035CF GT PUSH2 0x7F JUMPI DUP1 PUSH4 0xA3A1937C GT PUSH2 0x59 JUMPI DUP1 PUSH4 0xA3A1937C EQ PUSH2 0x2D7 JUMPI DUP1 PUSH4 0xD9CAED12 EQ PUSH2 0x38C JUMPI DUP1 PUSH4 0xED4EC201 EQ PUSH2 0x3AC JUMPI DUP1 PUSH4 0xFEBFD6C3 EQ PUSH2 0x3CC JUMPI PUSH1 0x0 DUP1 REVERT JUMPDEST DUP1 PUSH4 0x72C035CF EQ PUSH2 0x277 JUMPI DUP1 PUSH4 0x8F283970 EQ PUSH2 0x297 JUMPI DUP1 PUSH4 0x9299E552 EQ PUSH2 0x2B7 JUMPI PUSH1 0x0 DUP1 REVERT JUMPDEST DUP1 PUSH4 0x3DD72C40 GT PUSH2 0xBB JUMPI DUP1 PUSH4 0x3DD72C40 EQ PUSH2 0x162 JUMPI DUP1 PUSH4 0x485CC955 EQ PUSH2 0x215 JUMPI DUP1 PUSH4 0x51351E3E EQ PUSH2 0x235 JUMPI DUP1 PUSH4 0x5861933E EQ PUSH2 0x255 JUMPI PUSH1 0x0 DUP1 REVERT JUMPDEST DUP1 PUSH4 0x1BC45C9 EQ PUSH2 0xE2 JUMPI DUP1 PUSH4 0x1FD4D2ED EQ PUSH2 0x11F JUMPI DUP1 PUSH4 0x3AC1089A EQ PUSH2 0x14D JUMPI JUMPDEST PUSH1 0x0 DUP1 REVERT JUMPDEST CALLVALUE DUP1 ISZERO PUSH2 0xEE JUMPI PUSH1 0x0 DUP1 REVERT JUMPDEST POP PUSH1 0x34 SLOAD PUSH2 0x102 SWAP1 PUSH1 0x1 PUSH1 0x1 PUSH1 0xA0 SHL SUB AND DUP2 JUMP JUMPDEST PUSH1 0x40 MLOAD PUSH1 0x1 PUSH1 0x1 PUSH1 0xA0 SHL SUB SWAP1 SWAP2 AND DUP2 MSTORE PUSH1 0x20 ADD JUMPDEST PUSH1 0x40 MLOAD DUP1 SWAP2 SUB SWAP1 RETURN JUMPDEST CALLVALUE DUP1 ISZERO PUSH2 0x12B JUMPI PUSH1 0x0 DUP1 REVERT JUMPDEST POP PUSH2 0x13F PUSH2 0x13A CALLDATASIZE PUSH1 0x4 PUSH2 0x1793 JUMP JUMPDEST PUSH2 0x3EC JUMP JUMPDEST PUSH1 0x40 MLOAD SWAP1 DUP2 MSTORE PUSH1 0x20 ADD PUSH2 0x116 JUMP JUMPDEST PUSH2 0x160 PUSH2 0x15B CALLDATASIZE PUSH1 0x4 PUSH2 0x1793 JUMP JUMPDEST PUSH2 0x40D JUMP JUMPDEST STOP JUMPDEST CALLVALUE DUP1 ISZERO PUSH2 0x16E JUMPI PUSH1 0x0 DUP1 REVERT JUMPDEST POP PUSH2 0x1CC PUSH2 0x17D CALLDATASIZE PUSH1 0x4 PUSH2 0x1793 JUMP JUMPDEST PUSH1 0x38 PUSH1 0x20 MSTORE PUSH1 0x0 SWAP1 DUP2 MSTORE PUSH1 0x40 SWAP1 KECCAK256 DUP1 SLOAD PUSH1 0x1 DUP3 ADD SLOAD PUSH1 0x2 DUP4 ADD SLOAD PUSH1 0x3 DUP5 ADD SLOAD PUSH1 0x4 DUP6 ADD SLOAD PUSH1 0x5 DUP7 ADD SLOAD PUSH1 0x6 SWAP1 SWAP7 ADD SLOAD PUSH1 0x1 PUSH1 0x1 PUSH1 0xA0 SHL SUB SWAP6 DUP7 AND SWAP7 SWAP5 SWAP6 SWAP4 DUP5 AND SWAP5 SWAP3 SWAP1 SWAP4 AND SWAP3 SWAP1 SWAP2 PUSH1 0xFF AND SWAP1 DUP8 JUMP JUMPDEST PUSH1 0x40 DUP1 MLOAD PUSH1 0x1 PUSH1 0x1 PUSH1 0xA0 SHL SUB SWAP9 DUP10 AND DUP2 MSTORE PUSH1 0x20 DUP2 ADD SWAP8 SWAP1 SWAP8 MSTORE SWAP5 DUP8 AND SWAP5 DUP7 ADD SWAP5 SWAP1 SWAP5 MSTORE SWAP5 SWAP1 SWAP2 AND PUSH1 0x60 DUP5 ADD MSTORE PUSH1 0x80 DUP4 ADD MSTORE SWAP2 ISZERO ISZERO PUSH1 0xA0 DUP3 ADD MSTORE PUSH1 0xC0 DUP2 ADD SWAP2 SWAP1 SWAP2 MSTORE PUSH1 0xE0 ADD PUSH2 0x116 JUMP JUMPDEST CALLVALUE DUP1 ISZERO PUSH2 0x221 JUMPI PUSH1 0x0 DUP1 REVERT JUMPDEST POP PUSH2 0x160 PUSH2 0x230 CALLDATASIZE PUSH1 0x4 PUSH2 0x17CC JUMP JUMPDEST PUSH2 0x42B JUMP JUMPDEST CALLVALUE DUP1 ISZERO PUSH2 0x241 JUMPI PUSH1 0x0 DUP1 REVERT JUMPDEST POP PUSH2 0x13F PUSH2 0x250 CALLDATASIZE PUSH1 0x4 PUSH2 0x1834 JUMP JUMPDEST PUSH2 0x5EF JUMP JUMPDEST CALLVALUE DUP1 ISZERO PUSH2 0x261 JUMPI PUSH1 0x0 DUP1 REVERT JUMPDEST POP PUSH2 0x26A PUSH2 0x612 JUMP JUMPDEST PUSH1 0x40 MLOAD PUSH2 0x116 SWAP2 SWAP1 PUSH2 0x18E0 JUMP JUMPDEST CALLVALUE DUP1 ISZERO PUSH2 0x283 JUMPI PUSH1 0x0 DUP1 REVERT JUMPDEST POP PUSH1 0x35 SLOAD PUSH2 0x102 SWAP1 PUSH1 0x1 PUSH1 0x1 PUSH1 0xA0 SHL SUB AND DUP2 JUMP JUMPDEST CALLVALUE DUP1 ISZERO PUSH2 0x2A3 JUMPI PUSH1 0x0 DUP1 REVERT JUMPDEST POP PUSH2 0x160 PUSH2 0x2B2 CALLDATASIZE PUSH1 0x4 PUSH2 0x1924 JUMP JUMPDEST PUSH2 0x66A JUMP JUMPDEST CALLVALUE DUP1 ISZERO PUSH2 0x2C3 JUMPI PUSH1 0x0 DUP1 REVERT JUMPDEST POP PUSH2 0x160 PUSH2 0x2D2 CALLDATASIZE PUSH1 0x4 PUSH2 0x1793 JUMP JUMPDEST PUSH2 0x6FC JUMP JUMPDEST CALLVALUE DUP1 ISZERO PUSH2 0x2E3 JUMPI PUSH1 0x0 DUP1 REVERT JUMPDEST POP PUSH2 0x341 PUSH2 0x2F2 CALLDATASIZE PUSH1 0x4 PUSH2 0x1793 JUMP JUMPDEST PUSH1 0x36 PUSH1 0x20 MSTORE PUSH1 0x0 SWAP1 DUP2 MSTORE PUSH1 0x40 SWAP1 KECCAK256 DUP1 SLOAD PUSH1 0x1 DUP3 ADD SLOAD PUSH1 0x2 DUP4 ADD SLOAD PUSH1 0x3 DUP5 ADD SLOAD PUSH1 0x4 DUP6 ADD SLOAD PUSH1 0x5 SWAP1 SWAP6 ADD SLOAD PUSH1 0x1 PUSH1 0x1 PUSH1 0xA0 SHL SUB SWAP5 DUP6 AND SWAP6 SWAP4 SWAP5 SWAP3 DUP4 AND SWAP4 SWAP2 SWAP3 DUP3 AND SWAP2 PUSH1 0x1 PUSH1 0xA0 SHL SWAP1 DIV PUSH1 0xFF AND SWAP1 DUP8 JUMP JUMPDEST PUSH1 0x40 DUP1 MLOAD PUSH1 0x1 PUSH1 0x1 PUSH1 0xA0 SHL SUB SWAP9 DUP10 AND DUP2 MSTORE PUSH1 0x20 DUP2 ADD SWAP8 SWAP1 SWAP8 MSTORE SWAP5 DUP8 AND SWAP5 DUP7 ADD SWAP5 SWAP1 SWAP5 MSTORE PUSH1 0x60 DUP6 ADD SWAP3 SWAP1 SWAP3 MSTORE SWAP1 SWAP4 AND PUSH1 0x80 DUP4 ADD MSTORE SWAP2 ISZERO ISZERO PUSH1 0xA0 DUP3 ADD MSTORE PUSH1 0xC0 DUP2 ADD SWAP2 SWAP1 SWAP2 MSTORE PUSH1 0xE0 ADD PUSH2 0x116 JUMP JUMPDEST CALLVALUE DUP1 ISZERO PUSH2 0x398 JUMPI PUSH1 0x0 DUP1 REVERT JUMPDEST POP PUSH2 0x160 PUSH2 0x3A7 CALLDATASIZE PUSH1 0x4 PUSH2 0x1948 JUMP JUMPDEST PUSH2 0x705 JUMP JUMPDEST CALLVALUE DUP1 ISZERO PUSH2 0x3B8 JUMPI PUSH1 0x0 DUP1 REVERT JUMPDEST POP PUSH2 0x13F PUSH2 0x3C7 CALLDATASIZE PUSH1 0x4 PUSH2 0x1793 JUMP JUMPDEST PUSH2 0x85F JUMP JUMPDEST CALLVALUE DUP1 ISZERO PUSH2 0x3D8 JUMPI PUSH1 0x0 DUP1 REVERT JUMPDEST POP PUSH2 0x160 PUSH2 0x3E7 CALLDATASIZE PUSH1 0x4 PUSH2 0x1924 JUMP JUMPDEST PUSH2 0x86F JUMP JUMPDEST PUSH1 0x39 DUP2 DUP2 SLOAD DUP2 LT PUSH2 0x3FC JUMPI PUSH1 0x0 DUP1 REVERT JUMPDEST PUSH1 0x0 SWAP2 DUP3 MSTORE PUSH1 0x20 SWAP1 SWAP2 KECCAK256 ADD SLOAD SWAP1 POP DUP2 JUMP JUMPDEST PUSH2 0x415 PUSH2 0x901 JUMP JUMPDEST PUSH2 0x41F DUP2 CALLER PUSH2 0x95B JUMP JUMPDEST PUSH2 0x428 PUSH1 0x1 DUP1 SSTORE JUMP JUMPDEST POP JUMP JUMPDEST PUSH1 0x0 SLOAD PUSH2 0x100 SWAP1 DIV PUSH1 0xFF AND ISZERO DUP1 DUP1 ISZERO PUSH2 0x44B JUMPI POP PUSH1 0x0 SLOAD PUSH1 0x1 PUSH1 0xFF SWAP1 SWAP2 AND LT JUMPDEST DUP1 PUSH2 0x465 JUMPI POP ADDRESS EXTCODESIZE ISZERO DUP1 ISZERO PUSH2 0x465 JUMPI POP PUSH1 0x0 SLOAD PUSH1 0xFF AND PUSH1 0x1 EQ JUMPDEST PUSH2 0x4CD JUMPI PUSH1 0x40 MLOAD PUSH3 0x461BCD PUSH1 0xE5 SHL DUP2 MSTORE PUSH1 0x20 PUSH1 0x4 DUP3 ADD MSTORE PUSH1 0x2E PUSH1 0x24 DUP3 ADD MSTORE PUSH32 0x496E697469616C697A61626C653A20636F6E747261637420697320616C726561 PUSH1 0x44 DUP3 ADD MSTORE PUSH14 0x191E481A5B9A5D1A585B1A5E9959 PUSH1 0x92 SHL PUSH1 0x64 DUP3 ADD MSTORE PUSH1 0x84 ADD JUMPDEST PUSH1 0x40 MLOAD DUP1 SWAP2 SUB SWAP1 REVERT JUMPDEST PUSH1 0x0 DUP1 SLOAD PUSH1 0xFF NOT AND PUSH1 0x1 OR SWAP1 SSTORE DUP1 ISZERO PUSH2 0x4F0 JUMPI PUSH1 0x0 DUP1 SLOAD PUSH2 0xFF00 NOT AND PUSH2 0x100 OR SWAP1 SSTORE JUMPDEST PUSH1 0x40 DUP1 MLOAD DUP1 DUP3 ADD SWAP1 SWAP2 MSTORE PUSH1 0x3 DUP2 MSTORE PUSH3 0x31303 PUSH1 0xEC SHL PUSH1 0x20 DUP3 ADD MSTORE PUSH1 0x1 PUSH1 0x1 PUSH1 0xA0 SHL SUB DUP5 AND PUSH2 0x531 JUMPI PUSH1 0x40 MLOAD PUSH3 0x461BCD PUSH1 0xE5 SHL DUP2 MSTORE PUSH1 0x4 ADD PUSH2 0x4C4 SWAP2 SWAP1 PUSH2 0x19B9 JUMP JUMPDEST POP PUSH1 0x40 DUP1 MLOAD DUP1 DUP3 ADD SWAP1 SWAP2 MSTORE PUSH1 0x3 DUP2 MSTORE PUSH3 0x31303 PUSH1 0xEC SHL PUSH1 0x20 DUP3 ADD MSTORE PUSH1 0x1 PUSH1 0x1 PUSH1 0xA0 SHL SUB DUP4 AND PUSH2 0x573 JUMPI PUSH1 0x40 MLOAD PUSH3 0x461BCD PUSH1 0xE5 SHL DUP2 MSTORE PUSH1 0x4 ADD PUSH2 0x4C4 SWAP2 SWAP1 PUSH2 0x19B9 JUMP JUMPDEST POP PUSH1 0x34 DUP1 SLOAD PUSH1 0x1 PUSH1 0x1 PUSH1 0xA0 SHL SUB DUP1 DUP7 AND PUSH1 0x1 PUSH1 0x1 PUSH1 0xA0 SHL SUB NOT SWAP3 DUP4 AND OR SWAP1 SWAP3 SSTORE PUSH1 0x35 DUP1 SLOAD SWAP3 DUP6 AND SWAP3 SWAP1 SWAP2 AND SWAP2 SWAP1 SWAP2 OR SWAP1 SSTORE DUP1 ISZERO PUSH2 0x5EA JUMPI PUSH1 0x0 DUP1 SLOAD PUSH2 0xFF00 NOT AND SWAP1 SSTORE PUSH1 0x40 MLOAD PUSH1 0x1 DUP2 MSTORE PUSH32 0x7F26B83FF96E1F2B6A682F133852F6798A09C465DA95921460CEFB3847402498 SWAP1 PUSH1 0x20 ADD PUSH1 0x40 MLOAD DUP1 SWAP2 SUB SWAP1 LOG1 JUMPDEST POP POP POP JUMP JUMPDEST PUSH1 0x0 PUSH2 0x5F9 PUSH2 0x901 JUMP JUMPDEST PUSH2 0x602 DUP3 PUSH2 0x11CA JUMP JUMPDEST SWAP1 POP PUSH2 0x60D PUSH1 0x1 DUP1 SSTORE JUMP JUMPDEST SWAP2 SWAP1 POP JUMP JUMPDEST PUSH1 0x60 PUSH1 0x37 DUP1 SLOAD DUP1 PUSH1 0x20 MUL PUSH1 0x20 ADD PUSH1 0x40 MLOAD SWAP1 DUP2 ADD PUSH1 0x40 MSTORE DUP1 SWAP3 SWAP2 SWAP1 DUP2 DUP2 MSTORE PUSH1 0x20 ADD DUP3 DUP1 SLOAD DUP1 ISZERO PUSH2 0x660 JUMPI PUSH1 0x20 MUL DUP3 ADD SWAP2 SWAP1 PUSH1 0x0 MSTORE PUSH1 0x20 PUSH1 0x0 KECCAK256 SWAP1 JUMPDEST DUP2 SLOAD DUP2 MSTORE PUSH1 0x20 ADD SWAP1 PUSH1 0x1 ADD SWAP1 DUP1 DUP4 GT PUSH2 0x64C JUMPI JUMPDEST POP POP POP POP POP SWAP1 POP SWAP1 JUMP JUMPDEST PUSH1 0x34 SLOAD PUSH1 0x1 PUSH1 0x1 PUSH1 0xA0 SHL SUB AND CALLER EQ DUP1 ISZERO PUSH2 0x68C JUMPI POP PUSH1 0x1 PUSH1 0x1 PUSH1 0xA0 SHL SUB DUP2 AND ISZERO ISZERO JUMPDEST PUSH1 0x40 MLOAD DUP1 PUSH1 0x40 ADD PUSH1 0x40 MSTORE DUP1 PUSH1 0x3 DUP2 MSTORE PUSH1 0x20 ADD PUSH3 0x313031 PUSH1 0xE8 SHL DUP2 MSTORE POP SWAP1 PUSH2 0x6C6 JUMPI PUSH1 0x40 MLOAD PUSH3 0x461BCD PUSH1 0xE5 SHL DUP2 MSTORE PUSH1 0x4 ADD PUSH2 0x4C4 SWAP2 SWAP1 PUSH2 0x19B9 JUMP JUMPDEST POP PUSH1 0x34 SLOAD PUSH1 0x1 PUSH1 0x1 PUSH1 0xA0 SHL SUB DUP3 DUP2 AND SWAP2 AND EQ PUSH2 0x428 JUMPI PUSH1 0x34 DUP1 SLOAD PUSH1 0x1 PUSH1 0x1 PUSH1 0xA0 SHL SUB DUP4 AND PUSH1 0x1 PUSH1 0x1 PUSH1 0xA0 SHL SUB NOT SWAP1 SWAP2 AND OR SWAP1 SSTORE POP JUMP JUMPDEST PUSH2 0x428 DUP2 PUSH2 0x153F JUMP JUMPDEST PUSH2 0x70D PUSH2 0x901 JUMP JUMPDEST PUSH1 0x34 SLOAD PUSH1 0x40 DUP1 MLOAD DUP1 DUP3 ADD SWAP1 SWAP2 MSTORE PUSH1 0x3 DUP2 MSTORE PUSH3 0x313031 PUSH1 0xE8 SHL PUSH1 0x20 DUP3 ADD MSTORE SWAP1 PUSH1 0x1 PUSH1 0x1 PUSH1 0xA0 SHL SUB AND CALLER EQ PUSH2 0x753 JUMPI PUSH1 0x40 MLOAD PUSH3 0x461BCD PUSH1 0xE5 SHL DUP2 MSTORE PUSH1 0x4 ADD PUSH2 0x4C4 SWAP2 SWAP1 PUSH2 0x19B9 JUMP JUMPDEST POP PUSH1 0x0 PUSH1 0x1 PUSH1 0x1 PUSH1 0xA0 SHL SUB DUP4 AND PUSH2 0x7D4 JUMPI DUP2 SELFBALANCE LT ISZERO PUSH2 0x771 JUMPI PUSH1 0x0 DUP1 REVERT JUMPDEST PUSH1 0x40 MLOAD PUSH1 0x1 PUSH1 0x1 PUSH1 0xA0 SHL SUB DUP6 AND SWAP1 DUP4 SWAP1 PUSH1 0x0 DUP2 DUP2 DUP2 DUP6 DUP8 GAS CALL SWAP3 POP POP POP RETURNDATASIZE DUP1 PUSH1 0x0 DUP2 EQ PUSH2 0x7BA JUMPI PUSH1 0x40 MLOAD SWAP2 POP PUSH1 0x1F NOT PUSH1 0x3F RETURNDATASIZE ADD AND DUP3 ADD PUSH1 0x40 MSTORE RETURNDATASIZE DUP3 MSTORE RETURNDATASIZE PUSH1 0x0 PUSH1 0x20 DUP5 ADD RETURNDATACOPY PUSH2 0x7BF JUMP JUMPDEST PUSH1 0x60 SWAP2 POP JUMPDEST POP POP DUP1 SWAP2 POP POP DUP1 PUSH2 0x7CF JUMPI PUSH1 0x0 DUP1 REVERT JUMPDEST PUSH2 0x855 JUMP JUMPDEST PUSH1 0x40 MLOAD PUSH4 0xA9059CBB PUSH1 0xE0 SHL DUP2 MSTORE PUSH1 0x1 PUSH1 0x1 PUSH1 0xA0 SHL SUB DUP6 DUP2 AND PUSH1 0x4 DUP4 ADD MSTORE PUSH1 0x24 DUP3 ADD DUP5 SWAP1 MSTORE DUP5 SWAP2 SWAP1 DUP3 AND SWAP1 PUSH4 0xA9059CBB SWAP1 PUSH1 0x44 ADD PUSH1 0x20 PUSH1 0x40 MLOAD DUP1 DUP4 SUB DUP2 PUSH1 0x0 DUP8 GAS CALL ISZERO DUP1 ISZERO PUSH2 0x826 JUMPI RETURNDATASIZE PUSH1 0x0 DUP1 RETURNDATACOPY RETURNDATASIZE PUSH1 0x0 REVERT JUMPDEST POP POP POP POP PUSH1 0x40 MLOAD RETURNDATASIZE PUSH1 0x1F NOT PUSH1 0x1F DUP3 ADD AND DUP3 ADD DUP1 PUSH1 0x40 MSTORE POP DUP2 ADD SWAP1 PUSH2 0x84A SWAP2 SWAP1 PUSH2 0x19EC JUMP JUMPDEST PUSH2 0x853 JUMPI PUSH1 0x0 DUP1 REVERT JUMPDEST POP JUMPDEST POP PUSH2 0x5EA PUSH1 0x1 DUP1 SSTORE JUMP JUMPDEST PUSH1 0x37 DUP2 DUP2 SLOAD DUP2 LT PUSH2 0x3FC JUMPI PUSH1 0x0 DUP1 REVERT JUMPDEST PUSH1 0x34 SLOAD PUSH1 0x1 PUSH1 0x1 PUSH1 0xA0 SHL SUB AND CALLER EQ DUP1 ISZERO PUSH2 0x891 JUMPI POP PUSH1 0x1 PUSH1 0x1 PUSH1 0xA0 SHL SUB DUP2 AND ISZERO ISZERO JUMPDEST PUSH1 0x40 MLOAD DUP1 PUSH1 0x40 ADD PUSH1 0x40 MSTORE DUP1 PUSH1 0x3 DUP2 MSTORE PUSH1 0x20 ADD PUSH3 0x313031 PUSH1 0xE8 SHL DUP2 MSTORE POP SWAP1 PUSH2 0x8CB JUMPI PUSH1 0x40 MLOAD PUSH3 0x461BCD PUSH1 0xE5 SHL DUP2 MSTORE PUSH1 0x4 ADD PUSH2 0x4C4 SWAP2 SWAP1 PUSH2 0x19B9 JUMP JUMPDEST POP PUSH1 0x35 SLOAD PUSH1 0x1 PUSH1 0x1 PUSH1 0xA0 SHL SUB DUP3 DUP2 AND SWAP2 AND EQ PUSH2 0x428 JUMPI PUSH1 0x35 DUP1 SLOAD PUSH1 0x1 PUSH1 0x1 PUSH1 0xA0 SHL SUB DUP4 AND PUSH1 0x1 PUSH1 0x1 PUSH1 0xA0 SHL SUB NOT SWAP1 SWAP2 AND OR SWAP1 SSTORE POP JUMP JUMPDEST PUSH1 0x2 PUSH1 0x1 SLOAD EQ ISZERO PUSH2 0x954 JUMPI PUSH1 0x40 MLOAD PUSH3 0x461BCD PUSH1 0xE5 SHL DUP2 MSTORE PUSH1 0x20 PUSH1 0x4 DUP3 ADD MSTORE PUSH1 0x1F PUSH1 0x24 DUP3 ADD MSTORE PUSH32 0x5265656E7472616E637947756172643A207265656E7472616E742063616C6C00 PUSH1 0x44 DUP3 ADD MSTORE PUSH1 0x64 ADD PUSH2 0x4C4 JUMP JUMPDEST PUSH1 0x2 PUSH1 0x1 SSTORE JUMP JUMPDEST PUSH1 0x0 DUP3 DUP2 MSTORE PUSH1 0x36 PUSH1 0x20 SWAP1 DUP2 MSTORE PUSH1 0x40 DUP1 DUP4 KECCAK256 DUP2 MLOAD PUSH1 0xE0 DUP2 ADD DUP4 MSTORE DUP2 SLOAD PUSH1 0x1 PUSH1 0x1 PUSH1 0xA0 SHL SUB SWAP1 DUP2 AND DUP1 DUP4 MSTORE PUSH1 0x1 DUP5 ADD SLOAD DUP4 DUP8 ADD DUP2 SWAP1 MSTORE PUSH1 0x2 DUP6 ADD SLOAD DUP4 AND DUP5 DUP8 ADD DUP2 SWAP1 MSTORE PUSH1 0x3 DUP7 ADD SLOAD PUSH1 0x60 DUP1 DUP8 ADD SWAP2 SWAP1 SWAP2 MSTORE PUSH1 0x4 DUP8 ADD SLOAD SWAP5 DUP6 AND PUSH1 0x80 DUP1 DUP9 ADD DUP3 SWAP1 MSTORE PUSH1 0x1 PUSH1 0xA0 SHL SWAP1 SWAP7 DIV PUSH1 0xFF AND ISZERO ISZERO PUSH1 0xA0 DUP1 DUP10 ADD SWAP2 SWAP1 SWAP2 MSTORE PUSH1 0x5 SWAP1 SWAP9 ADD SLOAD PUSH1 0xC0 DUP1 DUP10 ADD SWAP2 SWAP1 SWAP2 MSTORE DUP10 MLOAD SWAP1 DUP2 ADD DUP11 MSTORE DUP12 DUP2 MSTORE SWAP10 DUP11 ADD DUP12 SWAP1 MSTORE SWAP8 DUP10 ADD DUP11 SWAP1 MSTORE DUP9 ADD DUP10 SWAP1 MSTORE SWAP3 DUP8 ADD DUP9 SWAP1 MSTORE SWAP4 DUP7 ADD SWAP7 SWAP1 SWAP7 MSTORE SWAP1 SWAP5 SWAP4 DUP5 SWAP4 ISZERO ISZERO SWAP1 PUSH1 0x0 DUP3 ISZERO PUSH2 0xB42 JUMPI POP PUSH1 0x80 DUP8 ADD MLOAD PUSH1 0x40 DUP1 MLOAD PUSH1 0xC0 DUP2 ADD DUP3 MSTORE PUSH1 0x1 PUSH1 0x1 PUSH1 0xA0 SHL SUB DUP1 DUP13 AND DUP1 DUP4 MSTORE PUSH1 0x60 DUP1 DUP14 ADD DUP1 MLOAD PUSH1 0x20 DUP7 ADD MSTORE MLOAD DUP5 DUP7 ADD MSTORE SWAP4 MLOAD PUSH4 0x70A08231 PUSH1 0xE0 SHL DUP2 MSTORE PUSH1 0x4 DUP2 ADD SWAP2 SWAP1 SWAP2 MSTORE SWAP2 SWAP3 DUP4 ADD SWAP2 SWAP1 DUP5 AND SWAP1 PUSH4 0x70A08231 SWAP1 PUSH1 0x24 ADD PUSH1 0x20 PUSH1 0x40 MLOAD DUP1 DUP4 SUB DUP2 DUP7 GAS STATICCALL ISZERO DUP1 ISZERO PUSH2 0xA89 JUMPI RETURNDATASIZE PUSH1 0x0 DUP1 RETURNDATACOPY RETURNDATASIZE PUSH1 0x0 REVERT JUMPDEST POP POP POP POP PUSH1 0x40 MLOAD RETURNDATASIZE PUSH1 0x1F NOT PUSH1 0x1F DUP3 ADD AND DUP3 ADD DUP1 PUSH1 0x40 MSTORE POP DUP2 ADD SWAP1 PUSH2 0xAAD SWAP2 SWAP1 PUSH2 0x1A09 JUMP JUMPDEST DUP2 MSTORE PUSH1 0x40 MLOAD PUSH4 0x6EB1769F PUSH1 0xE1 SHL DUP2 MSTORE PUSH1 0x1 PUSH1 0x1 PUSH1 0xA0 SHL SUB DUP13 DUP2 AND PUSH1 0x4 DUP4 ADD MSTORE ADDRESS PUSH1 0x24 DUP4 ADD MSTORE PUSH1 0x20 SWAP1 SWAP3 ADD SWAP2 DUP5 AND SWAP1 PUSH4 0xDD62ED3E SWAP1 PUSH1 0x44 ADD PUSH1 0x20 PUSH1 0x40 MLOAD DUP1 DUP4 SUB DUP2 DUP7 GAS STATICCALL ISZERO DUP1 ISZERO PUSH2 0xB01 JUMPI RETURNDATASIZE PUSH1 0x0 DUP1 RETURNDATACOPY RETURNDATASIZE PUSH1 0x0 REVERT JUMPDEST POP POP POP POP PUSH1 0x40 MLOAD RETURNDATASIZE PUSH1 0x1F NOT PUSH1 0x1F DUP3 ADD AND DUP3 ADD DUP1 PUSH1 0x40 MSTORE POP DUP2 ADD SWAP1 PUSH2 0xB25 SWAP2 SWAP1 PUSH2 0x1A09 JUMP JUMPDEST DUP2 MSTORE PUSH1 0x20 ADD DUP10 PUSH1 0x80 ADD MLOAD PUSH1 0x1 PUSH1 0x1 PUSH1 0xA0 SHL SUB AND DUP2 MSTORE POP SWAP2 POP PUSH2 0xB8F JUMP JUMPDEST PUSH1 0x40 MLOAD DUP1 PUSH1 0xC0 ADD PUSH1 0x40 MSTORE DUP1 DUP11 PUSH1 0x1 PUSH1 0x1 PUSH1 0xA0 SHL SUB AND DUP2 MSTORE PUSH1 0x20 ADD DUP10 PUSH1 0x60 ADD MLOAD DUP2 MSTORE PUSH1 0x20 ADD DUP10 PUSH1 0x60 ADD MLOAD DUP2 MSTORE PUSH1 0x20 ADD PUSH1 0x0 DUP2 MSTORE PUSH1 0x20 ADD PUSH1 0x0 DUP2 MSTORE PUSH1 0x20 ADD PUSH1 0x0 PUSH1 0x1 PUSH1 0x1 PUSH1 0xA0 SHL SUB AND DUP2 MSTORE POP SWAP2 POP JUMPDEST PUSH1 0x40 MLOAD PUSH4 0x31A9108F PUSH1 0xE1 SHL DUP2 MSTORE PUSH1 0x4 DUP2 ADD DUP7 SWAP1 MSTORE PUSH1 0x1 PUSH1 0x1 PUSH1 0xA0 SHL SUB DUP1 DUP7 AND SWAP2 SWAP1 DUP9 AND SWAP1 PUSH4 0x6352211E SWAP1 PUSH1 0x24 ADD PUSH1 0x20 PUSH1 0x40 MLOAD DUP1 DUP4 SUB DUP2 DUP7 GAS STATICCALL ISZERO DUP1 ISZERO PUSH2 0xBD9 JUMPI RETURNDATASIZE PUSH1 0x0 DUP1 RETURNDATACOPY RETURNDATASIZE PUSH1 0x0 REVERT JUMPDEST POP POP POP POP PUSH1 0x40 MLOAD RETURNDATASIZE PUSH1 0x1F NOT PUSH1 0x1F DUP3 ADD AND DUP3 ADD DUP1 PUSH1 0x40 MSTORE POP DUP2 ADD SWAP1 PUSH2 0xBFD SWAP2 SWAP1 PUSH2 0x1A22 JUMP JUMPDEST PUSH1 0x1 PUSH1 0x1 PUSH1 0xA0 SHL SUB AND EQ PUSH1 0x40 MLOAD DUP1 PUSH1 0x40 ADD PUSH1 0x40 MSTORE DUP1 PUSH1 0x3 DUP2 MSTORE PUSH1 0x20 ADD PUSH3 0x33303 PUSH1 0xEC SHL DUP2 MSTORE POP SWAP1 PUSH2 0xC41 JUMPI PUSH1 0x40 MLOAD PUSH3 0x461BCD PUSH1 0xE5 SHL DUP2 MSTORE PUSH1 0x4 ADD PUSH2 0x4C4 SWAP2 SWAP1 PUSH2 0x19B9 JUMP JUMPDEST POP DUP3 ISZERO PUSH2 0xCDB JUMPI DUP2 PUSH1 0x20 ADD MLOAD DUP3 PUSH1 0x80 ADD MLOAD LT ISZERO PUSH1 0x40 MLOAD DUP1 PUSH1 0x40 ADD PUSH1 0x40 MSTORE DUP1 PUSH1 0x3 DUP2 MSTORE PUSH1 0x20 ADD PUSH3 0x333035 PUSH1 0xE8 SHL DUP2 MSTORE POP SWAP1 PUSH2 0xC8E JUMPI PUSH1 0x40 MLOAD PUSH3 0x461BCD PUSH1 0xE5 SHL DUP2 MSTORE PUSH1 0x4 ADD PUSH2 0x4C4 SWAP2 SWAP1 PUSH2 0x19B9 JUMP JUMPDEST POP DUP2 PUSH1 0x20 ADD MLOAD DUP3 PUSH1 0x60 ADD MLOAD LT ISZERO PUSH1 0x40 MLOAD DUP1 PUSH1 0x40 ADD PUSH1 0x40 MSTORE DUP1 PUSH1 0x3 DUP2 MSTORE PUSH1 0x20 ADD PUSH3 0xCCC0D PUSH1 0xEA SHL DUP2 MSTORE POP SWAP1 PUSH2 0xCD5 JUMPI PUSH1 0x40 MLOAD PUSH3 0x461BCD PUSH1 0xE5 SHL DUP2 MSTORE PUSH1 0x4 ADD PUSH2 0x4C4 SWAP2 SWAP1 PUSH2 0x19B9 JUMP JUMPDEST POP PUSH2 0xD1F JUMP JUMPDEST DUP2 PUSH1 0x20 ADD MLOAD CALLVALUE LT ISZERO PUSH1 0x40 MLOAD DUP1 PUSH1 0x40 ADD PUSH1 0x40 MSTORE DUP1 PUSH1 0x3 DUP2 MSTORE PUSH1 0x20 ADD PUSH3 0x333033 PUSH1 0xE8 SHL DUP2 MSTORE POP SWAP1 PUSH2 0xD1D JUMPI PUSH1 0x40 MLOAD PUSH3 0x461BCD PUSH1 0xE5 SHL DUP2 MSTORE PUSH1 0x4 ADD PUSH2 0x4C4 SWAP2 SWAP1 PUSH2 0x19B9 JUMP JUMPDEST POP JUMPDEST PUSH1 0x0 DUP11 DUP2 MSTORE PUSH1 0x36 PUSH1 0x20 SWAP1 DUP2 MSTORE PUSH1 0x40 SWAP2 DUP3 SWAP1 KECCAK256 PUSH1 0x4 ADD SLOAD DUP3 MLOAD DUP1 DUP5 ADD SWAP1 SWAP4 MSTORE PUSH1 0x3 DUP4 MSTORE PUSH3 0x199819 PUSH1 0xE9 SHL SWAP2 DUP4 ADD SWAP2 SWAP1 SWAP2 MSTORE PUSH1 0x1 PUSH1 0xA0 SHL SWAP1 DIV PUSH1 0xFF AND ISZERO PUSH2 0xD77 JUMPI PUSH1 0x40 MLOAD PUSH3 0x461BCD PUSH1 0xE5 SHL DUP2 MSTORE PUSH1 0x4 ADD PUSH2 0x4C4 SWAP2 SWAP1 PUSH2 0x19B9 JUMP JUMPDEST POP DUP2 MLOAD PUSH1 0x40 MLOAD PUSH4 0x21421707 PUSH1 0xE1 SHL DUP2 MSTORE ADDRESS PUSH1 0x4 DUP3 ADD MSTORE PUSH1 0x1 PUSH1 0x1 PUSH1 0xA0 SHL SUB SWAP2 DUP3 AND PUSH1 0x24 DUP3 ADD MSTORE PUSH1 0x44 DUP2 ADD DUP8 SWAP1 MSTORE SWAP1 DUP8 AND SWAP1 PUSH4 0x42842E0E SWAP1 PUSH1 0x64 ADD PUSH1 0x0 PUSH1 0x40 MLOAD DUP1 DUP4 SUB DUP2 PUSH1 0x0 DUP8 DUP1 EXTCODESIZE ISZERO DUP1 ISZERO PUSH2 0xDCB JUMPI PUSH1 0x0 DUP1 REVERT JUMPDEST POP GAS CALL ISZERO DUP1 ISZERO PUSH2 0xDDF JUMPI RETURNDATASIZE PUSH1 0x0 DUP1 RETURNDATACOPY RETURNDATASIZE PUSH1 0x0 REVERT JUMPDEST POP POP PUSH1 0x35 SLOAD PUSH1 0x40 DUP1 MLOAD PUSH1 0x80 DUP2 ADD DUP3 MSTORE PUSH1 0x0 DUP1 DUP3 MSTORE PUSH1 0x20 DUP1 DUP4 ADD DUP3 SWAP1 MSTORE DUP3 DUP5 ADD DUP3 SWAP1 MSTORE PUSH1 0x60 DUP4 ADD SWAP2 SWAP1 SWAP2 MSTORE DUP3 MLOAD DUP1 DUP5 ADD DUP5 MSTORE PUSH1 0x1B DUP2 MSTORE PUSH32 0x4D41524B4554504C4143455F42454E454649545F50455243454E540000000000 SWAP2 DUP2 ADD SWAP2 SWAP1 SWAP2 MSTORE SWAP2 MLOAD PUSH4 0x6D12DCE1 PUSH1 0xE0 SHL DUP2 MSTORE PUSH1 0x1 PUSH1 0x1 PUSH1 0xA0 SHL SUB SWAP1 SWAP4 AND SWAP5 POP SWAP3 POP DUP4 SWAP2 PUSH4 0x6D12DCE1 SWAP2 PUSH2 0xE6B SWAP2 PUSH1 0x4 ADD PUSH2 0x19B9 JUMP JUMPDEST PUSH1 0x20 PUSH1 0x40 MLOAD DUP1 DUP4 SUB DUP2 DUP7 GAS STATICCALL ISZERO DUP1 ISZERO PUSH2 0xE88 JUMPI RETURNDATASIZE PUSH1 0x0 DUP1 RETURNDATACOPY RETURNDATASIZE PUSH1 0x0 REVERT JUMPDEST POP POP POP POP PUSH1 0x40 MLOAD RETURNDATASIZE PUSH1 0x1F NOT PUSH1 0x1F DUP3 ADD AND DUP3 ADD DUP1 PUSH1 0x40 MSTORE POP DUP2 ADD SWAP1 PUSH2 0xEAC SWAP2 SWAP1 PUSH2 0x1A09 JUMP JUMPDEST PUSH1 0x40 DUP3 ADD DUP2 SWAP1 MSTORE PUSH2 0xEC0 JUMPI PUSH2 0x9C4 PUSH1 0x40 DUP3 ADD MSTORE JUMPDEST PUSH1 0x40 DUP2 ADD MLOAD ISZERO PUSH2 0xF07 JUMPI PUSH2 0x2710 DUP2 PUSH1 0x40 ADD MLOAD DUP6 PUSH1 0x40 ADD MLOAD PUSH2 0xEE1 SWAP2 SWAP1 PUSH2 0x1A55 JUMP JUMPDEST PUSH2 0xEEB SWAP2 SWAP1 PUSH2 0x1A74 JUMP JUMPDEST PUSH1 0x60 DUP3 ADD DUP2 SWAP1 MSTORE PUSH1 0x20 DUP6 ADD DUP1 MLOAD PUSH2 0xF03 SWAP1 DUP4 SWAP1 PUSH2 0x1A96 JUMP JUMPDEST SWAP1 MSTORE POP JUMPDEST DUP5 ISZERO PUSH2 0x108E JUMPI DUP4 MLOAD PUSH1 0x40 DUP1 DUP7 ADD MLOAD SWAP1 MLOAD PUSH4 0x23B872DD PUSH1 0xE0 SHL DUP2 MSTORE PUSH1 0x1 PUSH1 0x1 PUSH1 0xA0 SHL SUB SWAP3 DUP4 AND PUSH1 0x4 DUP3 ADD MSTORE ADDRESS PUSH1 0x24 DUP3 ADD MSTORE PUSH1 0x44 DUP2 ADD SWAP2 SWAP1 SWAP2 MSTORE SWAP1 DUP5 AND SWAP1 PUSH4 0x23B872DD SWAP1 PUSH1 0x64 ADD PUSH1 0x20 PUSH1 0x40 MLOAD DUP1 DUP4 SUB DUP2 PUSH1 0x0 DUP8 GAS CALL ISZERO DUP1 ISZERO PUSH2 0xF6B JUMPI RETURNDATASIZE PUSH1 0x0 DUP1 RETURNDATACOPY RETURNDATASIZE PUSH1 0x0 REVERT JUMPDEST POP POP POP POP PUSH1 0x40 MLOAD RETURNDATASIZE PUSH1 0x1F NOT PUSH1 0x1F DUP3 ADD AND DUP3 ADD DUP1 PUSH1 0x40 MSTORE POP DUP2 ADD SWAP1 PUSH2 0xF8F SWAP2 SWAP1 PUSH2 0x19EC JUMP JUMPDEST PUSH1 0x40 MLOAD DUP1 PUSH1 0x40 ADD PUSH1 0x40 MSTORE DUP1 PUSH1 0x3 DUP2 MSTORE PUSH1 0x20 ADD PUSH3 0x19981B PUSH1 0xE9 SHL DUP2 MSTORE POP SWAP1 PUSH2 0xFC9 JUMPI PUSH1 0x40 MLOAD PUSH3 0x461BCD PUSH1 0xE5 SHL DUP2 MSTORE PUSH1 0x4 ADD PUSH2 0x4C4 SWAP2 SWAP1 PUSH2 0x19B9 JUMP JUMPDEST POP PUSH1 0x40 DUP11 DUP2 ADD MLOAD PUSH1 0x20 DUP7 ADD MLOAD SWAP2 MLOAD PUSH4 0x23B872DD PUSH1 0xE0 SHL DUP2 MSTORE ADDRESS PUSH1 0x4 DUP3 ADD MSTORE PUSH1 0x1 PUSH1 0x1 PUSH1 0xA0 SHL SUB SWAP2 DUP3 AND PUSH1 0x24 DUP3 ADD MSTORE PUSH1 0x44 DUP2 ADD SWAP3 SWAP1 SWAP3 MSTORE DUP5 AND SWAP1 PUSH4 0x23B872DD SWAP1 PUSH1 0x64 ADD PUSH1 0x20 PUSH1 0x40 MLOAD DUP1 DUP4 SUB DUP2 PUSH1 0x0 DUP8 GAS CALL ISZERO DUP1 ISZERO PUSH2 0x102A JUMPI RETURNDATASIZE PUSH1 0x0 DUP1 RETURNDATACOPY RETURNDATASIZE PUSH1 0x0 REVERT JUMPDEST POP POP POP POP PUSH1 0x40 MLOAD RETURNDATASIZE PUSH1 0x1F NOT PUSH1 0x1F DUP3 ADD AND DUP3 ADD DUP1 PUSH1 0x40 MSTORE POP DUP2 ADD SWAP1 PUSH2 0x104E SWAP2 SWAP1 PUSH2 0x19EC JUMP JUMPDEST PUSH1 0x40 MLOAD DUP1 PUSH1 0x40 ADD PUSH1 0x40 MSTORE DUP1 PUSH1 0x3 DUP2 MSTORE PUSH1 0x20 ADD PUSH3 0x19981B PUSH1 0xE9 SHL DUP2 MSTORE POP SWAP1 PUSH2 0x1088 JUMPI PUSH1 0x40 MLOAD PUSH3 0x461BCD PUSH1 0xE5 SHL DUP2 MSTORE PUSH1 0x4 ADD PUSH2 0x4C4 SWAP2 SWAP1 PUSH2 0x19B9 JUMP JUMPDEST POP PUSH2 0x1163 JUMP JUMPDEST PUSH1 0x40 DUP1 MLOAD DUP1 DUP3 ADD SWAP1 SWAP2 MSTORE PUSH1 0x3 DUP2 MSTORE PUSH3 0x333033 PUSH1 0xE8 SHL PUSH1 0x20 DUP3 ADD MSTORE SELFBALANCE PUSH2 0x10C6 JUMPI PUSH1 0x40 MLOAD PUSH3 0x461BCD PUSH1 0xE5 SHL DUP2 MSTORE PUSH1 0x4 ADD PUSH2 0x4C4 SWAP2 SWAP1 PUSH2 0x19B9 JUMP JUMPDEST POP PUSH1 0x0 DUP11 PUSH1 0x40 ADD MLOAD PUSH1 0x1 PUSH1 0x1 PUSH1 0xA0 SHL SUB AND DUP6 PUSH1 0x20 ADD MLOAD PUSH1 0x40 MLOAD PUSH1 0x0 PUSH1 0x40 MLOAD DUP1 DUP4 SUB DUP2 DUP6 DUP8 GAS CALL SWAP3 POP POP POP RETURNDATASIZE DUP1 PUSH1 0x0 DUP2 EQ PUSH2 0x111C JUMPI PUSH1 0x40 MLOAD SWAP2 POP PUSH1 0x1F NOT PUSH1 0x3F RETURNDATASIZE ADD AND DUP3 ADD PUSH1 0x40 MSTORE RETURNDATASIZE DUP3 MSTORE RETURNDATASIZE PUSH1 0x0 PUSH1 0x20 DUP5 ADD RETURNDATACOPY PUSH2 0x1121 JUMP JUMPDEST PUSH1 0x60 SWAP2 POP JUMPDEST POP POP SWAP1 POP DUP1 PUSH1 0x40 MLOAD DUP1 PUSH1 0x40 ADD PUSH1 0x40 MSTORE DUP1 PUSH1 0x3 DUP2 MSTORE PUSH1 0x20 ADD PUSH3 0x19981B PUSH1 0xE9 SHL DUP2 MSTORE POP SWAP1 PUSH2 0x1160 JUMPI PUSH1 0x40 MLOAD PUSH3 0x461BCD PUSH1 0xE5 SHL DUP2 MSTORE PUSH1 0x4 ADD PUSH2 0x4C4 SWAP2 SWAP1 PUSH2 0x19B9 JUMP JUMPDEST POP POP JUMPDEST PUSH1 0x0 DUP13 DUP2 MSTORE PUSH1 0x36 PUSH1 0x20 MSTORE PUSH1 0x40 DUP1 DUP3 KECCAK256 PUSH1 0x4 ADD DUP1 SLOAD PUSH1 0xFF PUSH1 0xA0 SHL NOT AND PUSH1 0x1 PUSH1 0xA0 SHL OR SWAP1 SSTORE DUP6 MLOAD SWAP1 MLOAD PUSH1 0x1 PUSH1 0x1 PUSH1 0xA0 SHL SUB SWAP1 SWAP2 AND SWAP2 DUP15 SWAP2 PUSH32 0x3004F67C11F5AA47210C03FF25C0F48C410D0A417B33292FCA39F25BA8D2DDDF SWAP2 SWAP1 LOG3 POP POP POP POP POP POP POP POP POP POP POP POP JUMP JUMPDEST DUP1 MLOAD PUSH1 0x20 DUP3 ADD MLOAD PUSH1 0x40 MLOAD PUSH4 0x31A9108F PUSH1 0xE1 SHL DUP2 MSTORE PUSH1 0x4 DUP2 ADD SWAP2 SWAP1 SWAP2 MSTORE PUSH1 0x0 SWAP2 SWAP1 CALLER SWAP1 PUSH1 0x1 PUSH1 0x1 PUSH1 0xA0 SHL SUB DUP4 AND SWAP1 PUSH4 0x6352211E SWAP1 PUSH1 0x24 ADD PUSH1 0x20 PUSH1 0x40 MLOAD DUP1 DUP4 SUB DUP2 DUP7 GAS STATICCALL ISZERO DUP1 ISZERO PUSH2 0x121D JUMPI RETURNDATASIZE PUSH1 0x0 DUP1 RETURNDATACOPY RETURNDATASIZE PUSH1 0x0 REVERT JUMPDEST POP POP POP POP PUSH1 0x40 MLOAD RETURNDATASIZE PUSH1 0x1F NOT PUSH1 0x1F DUP3 ADD AND DUP3 ADD DUP1 PUSH1 0x40 MSTORE POP DUP2 ADD SWAP1 PUSH2 0x1241 SWAP2 SWAP1 PUSH2 0x1A22 JUMP JUMPDEST PUSH1 0x1 PUSH1 0x1 PUSH1 0xA0 SHL SUB AND EQ PUSH1 0x40 MLOAD DUP1 PUSH1 0x40 ADD PUSH1 0x40 MSTORE DUP1 PUSH1 0x3 DUP2 MSTORE PUSH1 0x20 ADD PUSH3 0x33303 PUSH1 0xEC SHL DUP2 MSTORE POP SWAP1 PUSH2 0x1285 JUMPI PUSH1 0x40 MLOAD PUSH3 0x461BCD PUSH1 0xE5 SHL DUP2 MSTORE PUSH1 0x4 ADD PUSH2 0x4C4 SWAP2 SWAP1 PUSH2 0x19B9 JUMP JUMPDEST POP PUSH1 0x40 MLOAD PUSH4 0xE985E9C5 PUSH1 0xE0 SHL DUP2 MSTORE CALLER PUSH1 0x4 DUP3 ADD MSTORE ADDRESS PUSH1 0x24 DUP3 ADD MSTORE PUSH1 0x0 SWAP1 PUSH1 0x1 PUSH1 0x1 PUSH1 0xA0 SHL SUB DUP4 AND SWAP1 PUSH4 0xE985E9C5 SWAP1 PUSH1 0x44 ADD PUSH1 0x20 PUSH1 0x40 MLOAD DUP1 DUP4 SUB DUP2 DUP7 GAS STATICCALL ISZERO DUP1 ISZERO PUSH2 0x12D3 JUMPI RETURNDATASIZE PUSH1 0x0 DUP1 RETURNDATACOPY RETURNDATASIZE PUSH1 0x0 REVERT JUMPDEST POP POP POP POP PUSH1 0x40 MLOAD RETURNDATASIZE PUSH1 0x1F NOT PUSH1 0x1F DUP3 ADD AND DUP3 ADD DUP1 PUSH1 0x40 MSTORE POP DUP2 ADD SWAP1 PUSH2 0x12F7 SWAP2 SWAP1 PUSH2 0x19EC JUMP JUMPDEST PUSH1 0x40 DUP1 MLOAD DUP1 DUP3 ADD SWAP1 SWAP2 MSTORE PUSH1 0x3 DUP2 MSTORE PUSH3 0x333031 PUSH1 0xE8 SHL PUSH1 0x20 DUP3 ADD MSTORE SWAP1 SWAP2 POP PUSH1 0x1 DUP3 ISZERO ISZERO EQ PUSH2 0x1337 JUMPI PUSH1 0x40 MLOAD PUSH3 0x461BCD PUSH1 0xE5 SHL DUP2 MSTORE PUSH1 0x4 ADD PUSH2 0x4C4 SWAP2 SWAP1 PUSH2 0x19B9 JUMP JUMPDEST POP PUSH1 0x33 DUP1 SLOAD SWAP1 PUSH1 0x0 PUSH2 0x1348 DUP4 PUSH2 0x1AAD JUMP JUMPDEST SWAP2 SWAP1 POP SSTORE POP PUSH1 0x0 PUSH2 0x135A PUSH1 0x33 SLOAD PUSH2 0x161D JUMP JUMPDEST DUP6 MLOAD PUSH1 0x20 DUP8 ADD MLOAD PUSH2 0x136A SWAP1 PUSH2 0x161D JUMP JUMPDEST PUSH1 0x40 MLOAD PUSH1 0x20 ADD PUSH2 0x137C SWAP4 SWAP3 SWAP2 SWAP1 PUSH2 0x1AC8 JUMP JUMPDEST PUSH1 0x40 MLOAD PUSH1 0x20 DUP2 DUP4 SUB SUB DUP2 MSTORE SWAP1 PUSH1 0x40 MSTORE DUP1 MLOAD SWAP1 PUSH1 0x20 ADD KECCAK256 SWAP1 POP DUP5 PUSH1 0x36 PUSH1 0x0 DUP4 DUP2 MSTORE PUSH1 0x20 ADD SWAP1 DUP2 MSTORE PUSH1 0x20 ADD PUSH1 0x0 KECCAK256 PUSH1 0x0 DUP3 ADD MLOAD DUP2 PUSH1 0x0 ADD PUSH1 0x0 PUSH2 0x100 EXP DUP2 SLOAD DUP2 PUSH1 0x1 PUSH1 0x1 PUSH1 0xA0 SHL SUB MUL NOT AND SWAP1 DUP4 PUSH1 0x1 PUSH1 0x1 PUSH1 0xA0 SHL SUB AND MUL OR SWAP1 SSTORE POP PUSH1 0x20 DUP3 ADD MLOAD DUP2 PUSH1 0x1 ADD SSTORE PUSH1 0x40 DUP3 ADD MLOAD DUP2 PUSH1 0x2 ADD PUSH1 0x0 PUSH2 0x100 EXP DUP2 SLOAD DUP2 PUSH1 0x1 PUSH1 0x1 PUSH1 0xA0 SHL SUB MUL NOT AND SWAP1 DUP4 PUSH1 0x1 PUSH1 0x1 PUSH1 0xA0 SHL SUB AND MUL OR SWAP1 SSTORE POP PUSH1 0x60 DUP3 ADD MLOAD DUP2 PUSH1 0x3 ADD SSTORE PUSH1 0x80 DUP3 ADD MLOAD DUP2 PUSH1 0x4 ADD PUSH1 0x0 PUSH2 0x100 EXP DUP2 SLOAD DUP2 PUSH1 0x1 PUSH1 0x1 PUSH1 0xA0 SHL SUB MUL NOT AND SWAP1 DUP4 PUSH1 0x1 PUSH1 0x1 PUSH1 0xA0 SHL SUB AND MUL OR SWAP1 SSTORE POP PUSH1 0xA0 DUP3 ADD MLOAD DUP2 PUSH1 0x4 ADD PUSH1 0x14 PUSH2 0x100 EXP DUP2 SLOAD DUP2 PUSH1 0xFF MUL NOT AND SWAP1 DUP4 ISZERO ISZERO MUL OR SWAP1 SSTORE POP PUSH1 0xC0 DUP3 ADD MLOAD DUP2 PUSH1 0x5 ADD SSTORE SWAP1 POP POP CALLER PUSH1 0x36 PUSH1 0x0 DUP4 DUP2 MSTORE PUSH1 0x20 ADD SWAP1 DUP2 MSTORE PUSH1 0x20 ADD PUSH1 0x0 KECCAK256 PUSH1 0x2 ADD PUSH1 0x0 PUSH2 0x100 EXP DUP2 SLOAD DUP2 PUSH1 0x1 PUSH1 0x1 PUSH1 0xA0 SHL SUB MUL NOT AND SWAP1 DUP4 PUSH1 0x1 PUSH1 0x1 PUSH1 0xA0 SHL SUB AND MUL OR SWAP1 SSTORE POP PUSH1 0x37 DUP2 SWAP1 DUP1 PUSH1 0x1 DUP2 SLOAD ADD DUP1 DUP3 SSTORE DUP1 SWAP2 POP POP PUSH1 0x1 SWAP1 SUB SWAP1 PUSH1 0x0 MSTORE PUSH1 0x20 PUSH1 0x0 KECCAK256 ADD PUSH1 0x0 SWAP1 SWAP2 SWAP1 SWAP2 SWAP1 SWAP2 POP SSTORE CALLER PUSH1 0x1 PUSH1 0x1 PUSH1 0xA0 SHL SUB AND DUP6 PUSH1 0x0 ADD MLOAD PUSH1 0x1 PUSH1 0x1 PUSH1 0xA0 SHL SUB AND DUP3 PUSH32 0xA2C73C734A10DC845099C99C4C34E3DB3329EB72B7061D3EAFB5ECFB877C593C DUP9 PUSH1 0x20 ADD MLOAD DUP10 PUSH1 0x60 ADD MLOAD PUSH1 0x40 MLOAD PUSH2 0x152F SWAP3 SWAP2 SWAP1 SWAP2 DUP3 MSTORE PUSH1 0x20 DUP3 ADD MSTORE PUSH1 0x40 ADD SWAP1 JUMP JUMPDEST PUSH1 0x40 MLOAD DUP1 SWAP2 SUB SWAP1 LOG4 SWAP5 SWAP4 POP POP POP POP JUMP JUMPDEST PUSH1 0x0 DUP2 DUP2 MSTORE PUSH1 0x36 PUSH1 0x20 SWAP1 DUP2 MSTORE PUSH1 0x40 SWAP2 DUP3 SWAP1 KECCAK256 PUSH1 0x2 ADD SLOAD DUP3 MLOAD DUP1 DUP5 ADD SWAP1 SWAP4 MSTORE PUSH1 0x3 DUP4 MSTORE PUSH3 0x33303 PUSH1 0xEC SHL SWAP2 DUP4 ADD SWAP2 SWAP1 SWAP2 MSTORE PUSH1 0x1 PUSH1 0x1 PUSH1 0xA0 SHL SUB AND CALLER EQ PUSH2 0x1597 JUMPI PUSH1 0x40 MLOAD PUSH3 0x461BCD PUSH1 0xE5 SHL DUP2 MSTORE PUSH1 0x4 ADD PUSH2 0x4C4 SWAP2 SWAP1 PUSH2 0x19B9 JUMP JUMPDEST POP PUSH1 0x0 DUP2 DUP2 MSTORE PUSH1 0x36 PUSH1 0x20 MSTORE PUSH1 0x40 SWAP1 KECCAK256 PUSH1 0x4 ADD SLOAD PUSH1 0x1 PUSH1 0xA0 SHL SWAP1 DIV PUSH1 0xFF AND ISZERO PUSH2 0x15BE JUMPI PUSH1 0x0 DUP1 REVERT JUMPDEST PUSH1 0x0 DUP2 DUP2 MSTORE PUSH1 0x36 PUSH1 0x20 MSTORE PUSH1 0x40 DUP1 DUP3 KECCAK256 PUSH1 0x4 DUP2 ADD DUP1 SLOAD PUSH1 0xFF PUSH1 0xA0 SHL NOT AND PUSH1 0x1 PUSH1 0xA0 SHL OR SWAP1 SSTORE PUSH1 0x2 ADD SLOAD SWAP1 MLOAD PUSH1 0x1 PUSH1 0x1 PUSH1 0xA0 SHL SUB SWAP1 SWAP2 AND SWAP2 DUP4 SWAP2 PUSH32 0xEE847753F7429CAE2EDA1655DE552711CE889FC0679C05A3026B65F98BC64877 SWAP2 SWAP1 LOG3 POP JUMP JUMPDEST PUSH1 0x60 PUSH1 0x0 PUSH2 0x162A DUP4 PUSH2 0x16BA JUMP JUMPDEST PUSH1 0x1 ADD SWAP1 POP PUSH1 0x0 DUP2 PUSH8 0xFFFFFFFFFFFFFFFF DUP2 GT ISZERO PUSH2 0x164A JUMPI PUSH2 0x164A PUSH2 0x1805 JUMP JUMPDEST PUSH1 0x40 MLOAD SWAP1 DUP1 DUP3 MSTORE DUP1 PUSH1 0x1F ADD PUSH1 0x1F NOT AND PUSH1 0x20 ADD DUP3 ADD PUSH1 0x40 MSTORE DUP1 ISZERO PUSH2 0x1674 JUMPI PUSH1 0x20 DUP3 ADD DUP2 DUP1 CALLDATASIZE DUP4 CALLDATACOPY ADD SWAP1 POP JUMPDEST POP SWAP1 POP DUP2 DUP2 ADD PUSH1 0x20 ADD JUMPDEST PUSH1 0x0 NOT ADD PUSH16 0x181899199A1A9B1B9C1CB0B131B232B3 PUSH1 0x81 SHL PUSH1 0xA DUP7 MOD BYTE DUP2 MSTORE8 PUSH1 0xA DUP6 DIV SWAP5 POP DUP5 PUSH2 0x16AD JUMPI PUSH2 0x16B2 JUMP JUMPDEST PUSH2 0x167E JUMP JUMPDEST POP SWAP4 SWAP3 POP POP POP JUMP JUMPDEST PUSH1 0x0 DUP1 PUSH19 0x184F03E93FF9F4DAA797ED6E38ED64BF6A1F01 PUSH1 0x40 SHL DUP4 LT PUSH2 0x16F9 JUMPI PUSH19 0x184F03E93FF9F4DAA797ED6E38ED64BF6A1F01 PUSH1 0x40 SHL DUP4 DIV SWAP3 POP PUSH1 0x40 ADD JUMPDEST PUSH14 0x4EE2D6D415B85ACEF8100000000 DUP4 LT PUSH2 0x1725 JUMPI PUSH14 0x4EE2D6D415B85ACEF8100000000 DUP4 DIV SWAP3 POP PUSH1 0x20 ADD JUMPDEST PUSH7 0x2386F26FC10000 DUP4 LT PUSH2 0x1743 JUMPI PUSH7 0x2386F26FC10000 DUP4 DIV SWAP3 POP PUSH1 0x10 ADD JUMPDEST PUSH4 0x5F5E100 DUP4 LT PUSH2 0x175B JUMPI PUSH4 0x5F5E100 DUP4 DIV SWAP3 POP PUSH1 0x8 ADD JUMPDEST PUSH2 0x2710 DUP4 LT PUSH2 0x176F JUMPI PUSH2 0x2710 DUP4 DIV SWAP3 POP PUSH1 0x4 ADD JUMPDEST PUSH1 0x64 DUP4 LT PUSH2 0x1781 JUMPI PUSH1 0x64 DUP4 DIV SWAP3 POP PUSH1 0x2 ADD JUMPDEST PUSH1 0xA DUP4 LT PUSH2 0x178D JUMPI PUSH1 0x1 ADD JUMPDEST SWAP3 SWAP2 POP POP JUMP JUMPDEST PUSH1 0x0 PUSH1 0x20 DUP3 DUP5 SUB SLT ISZERO PUSH2 0x17A5 JUMPI PUSH1 0x0 DUP1 REVERT JUMPDEST POP CALLDATALOAD SWAP2 SWAP1 POP JUMP JUMPDEST PUSH1 0x1 PUSH1 0x1 PUSH1 0xA0 SHL SUB DUP2 AND DUP2 EQ PUSH2 0x428 JUMPI PUSH1 0x0 DUP1 REVERT JUMPDEST DUP1 CALLDATALOAD PUSH2 0x60D DUP2 PUSH2 0x17AC JUMP JUMPDEST PUSH1 0x0 DUP1 PUSH1 0x40 DUP4 DUP6 SUB SLT ISZERO PUSH2 0x17DF JUMPI PUSH1 0x0 DUP1 REVERT JUMPDEST DUP3 CALLDATALOAD PUSH2 0x17EA DUP2 PUSH2 0x17AC JUMP JUMPDEST SWAP2 POP PUSH1 0x20 DUP4 ADD CALLDATALOAD PUSH2 0x17FA DUP2 PUSH2 0x17AC JUMP JUMPDEST DUP1 SWAP2 POP POP SWAP3 POP SWAP3 SWAP1 POP JUMP JUMPDEST PUSH4 0x4E487B71 PUSH1 0xE0 SHL PUSH1 0x0 MSTORE PUSH1 0x41 PUSH1 0x4 MSTORE PUSH1 0x24 PUSH1 0x0 REVERT JUMPDEST DUP1 ISZERO ISZERO DUP2 EQ PUSH2 0x428 JUMPI PUSH1 0x0 DUP1 REVERT JUMPDEST DUP1 CALLDATALOAD PUSH2 0x60D DUP2 PUSH2 0x181B JUMP JUMPDEST PUSH1 0x0 PUSH1 0xE0 DUP3 DUP5 SUB SLT ISZERO PUSH2 0x1846 JUMPI PUSH1 0x0 DUP1 REVERT JUMPDEST PUSH1 0x40 MLOAD PUSH1 0xE0 DUP2 ADD DUP2 DUP2 LT PUSH8 0xFFFFFFFFFFFFFFFF DUP3 GT OR ISZERO PUSH2 0x1877 JUMPI PUSH4 0x4E487B71 PUSH1 0xE0 SHL PUSH1 0x0 MSTORE PUSH1 0x41 PUSH1 0x4 MSTORE PUSH1 0x24 PUSH1 0x0 REVERT JUMPDEST PUSH1 0x40 MSTORE PUSH2 0x1883 DUP4 PUSH2 0x17C1 JUMP JUMPDEST DUP2 MSTORE PUSH1 0x20 DUP4 ADD CALLDATALOAD PUSH1 0x20 DUP3 ADD MSTORE PUSH2 0x189B PUSH1 0x40 DUP5 ADD PUSH2 0x17C1 JUMP JUMPDEST PUSH1 0x40 DUP3 ADD MSTORE PUSH1 0x60 DUP4 ADD CALLDATALOAD PUSH1 0x60 DUP3 ADD MSTORE PUSH2 0x18B6 PUSH1 0x80 DUP5 ADD PUSH2 0x17C1 JUMP JUMPDEST PUSH1 0x80 DUP3 ADD MSTORE PUSH2 0x18C7 PUSH1 0xA0 DUP5 ADD PUSH2 0x1829 JUMP JUMPDEST PUSH1 0xA0 DUP3 ADD MSTORE PUSH1 0xC0 DUP4 ADD CALLDATALOAD PUSH1 0xC0 DUP3 ADD MSTORE DUP1 SWAP2 POP POP SWAP3 SWAP2 POP POP JUMP JUMPDEST PUSH1 0x20 DUP1 DUP3 MSTORE DUP3 MLOAD DUP3 DUP3 ADD DUP2 SWAP1 MSTORE PUSH1 0x0 SWAP2 SWAP1 DUP5 DUP3 ADD SWAP1 PUSH1 0x40 DUP6 ADD SWAP1 DUP5 JUMPDEST DUP2 DUP2 LT ISZERO PUSH2 0x1918 JUMPI DUP4 MLOAD DUP4 MSTORE SWAP3 DUP5 ADD SWAP3 SWAP2 DUP5 ADD SWAP2 PUSH1 0x1 ADD PUSH2 0x18FC JUMP JUMPDEST POP SWAP1 SWAP7 SWAP6 POP POP POP POP POP POP JUMP JUMPDEST PUSH1 0x0 PUSH1 0x20 DUP3 DUP5 SUB SLT ISZERO PUSH2 0x1936 JUMPI PUSH1 0x0 DUP1 REVERT JUMPDEST DUP2 CALLDATALOAD PUSH2 0x1941 DUP2 PUSH2 0x17AC JUMP JUMPDEST SWAP4 SWAP3 POP POP POP JUMP JUMPDEST PUSH1 0x0 DUP1 PUSH1 0x0 PUSH1 0x60 DUP5 DUP7 SUB SLT ISZERO PUSH2 0x195D JUMPI PUSH1 0x0 DUP1 REVERT JUMPDEST DUP4 CALLDATALOAD PUSH2 0x1968 DUP2 PUSH2 0x17AC JUMP JUMPDEST SWAP3 POP PUSH1 0x20 DUP5 ADD CALLDATALOAD PUSH2 0x1978 DUP2 PUSH2 0x17AC JUMP JUMPDEST SWAP3 SWAP6 SWAP3 SWAP5 POP POP POP PUSH1 0x40 SWAP2 SWAP1 SWAP2 ADD CALLDATALOAD SWAP1 JUMP JUMPDEST PUSH1 0x0 JUMPDEST DUP4 DUP2 LT ISZERO PUSH2 0x19A4 JUMPI DUP2 DUP2 ADD MLOAD DUP4 DUP3 ADD MSTORE PUSH1 0x20 ADD PUSH2 0x198C JUMP JUMPDEST DUP4 DUP2 GT ISZERO PUSH2 0x19B3 JUMPI PUSH1 0x0 DUP5 DUP5 ADD MSTORE JUMPDEST POP POP POP POP JUMP JUMPDEST PUSH1 0x20 DUP2 MSTORE PUSH1 0x0 DUP3 MLOAD DUP1 PUSH1 0x20 DUP5 ADD MSTORE PUSH2 0x19D8 DUP2 PUSH1 0x40 DUP6 ADD PUSH1 0x20 DUP8 ADD PUSH2 0x1989 JUMP JUMPDEST PUSH1 0x1F ADD PUSH1 0x1F NOT AND SWAP2 SWAP1 SWAP2 ADD PUSH1 0x40 ADD SWAP3 SWAP2 POP POP JUMP JUMPDEST PUSH1 0x0 PUSH1 0x20 DUP3 DUP5 SUB SLT ISZERO PUSH2 0x19FE JUMPI PUSH1 0x0 DUP1 REVERT JUMPDEST DUP2 MLOAD PUSH2 0x1941 DUP2 PUSH2 0x181B JUMP JUMPDEST PUSH1 0x0 PUSH1 0x20 DUP3 DUP5 SUB SLT ISZERO PUSH2 0x1A1B JUMPI PUSH1 0x0 DUP1 REVERT JUMPDEST POP MLOAD SWAP2 SWAP1 POP JUMP JUMPDEST PUSH1 0x0 PUSH1 0x20 DUP3 DUP5 SUB SLT ISZERO PUSH2 0x1A34 JUMPI PUSH1 0x0 DUP1 REVERT JUMPDEST DUP2 MLOAD PUSH2 0x1941 DUP2 PUSH2 0x17AC JUMP JUMPDEST PUSH4 0x4E487B71 PUSH1 0xE0 SHL PUSH1 0x0 MSTORE PUSH1 0x11 PUSH1 0x4 MSTORE PUSH1 0x24 PUSH1 0x0 REVERT JUMPDEST PUSH1 0x0 DUP2 PUSH1 0x0 NOT DIV DUP4 GT DUP3 ISZERO ISZERO AND ISZERO PUSH2 0x1A6F JUMPI PUSH2 0x1A6F PUSH2 0x1A3F JUMP JUMPDEST POP MUL SWAP1 JUMP JUMPDEST PUSH1 0x0 DUP3 PUSH2 0x1A91 JUMPI PUSH4 0x4E487B71 PUSH1 0xE0 SHL PUSH1 0x0 MSTORE PUSH1 0x12 PUSH1 0x4 MSTORE PUSH1 0x24 PUSH1 0x0 REVERT JUMPDEST POP DIV SWAP1 JUMP JUMPDEST PUSH1 0x0 DUP3 DUP3 LT ISZERO PUSH2 0x1AA8 JUMPI PUSH2 0x1AA8 PUSH2 0x1A3F JUMP JUMPDEST POP SUB SWAP1 JUMP JUMPDEST PUSH1 0x0 PUSH1 0x0 NOT DUP3 EQ ISZERO PUSH2 0x1AC1 JUMPI PUSH2 0x1AC1 PUSH2 0x1A3F JUMP JUMPDEST POP PUSH1 0x1 ADD SWAP1 JUMP JUMPDEST PUSH1 0x0 DUP5 MLOAD PUSH2 0x1ADA DUP2 DUP5 PUSH1 0x20 DUP10 ADD PUSH2 0x1989 JUMP JUMPDEST PUSH1 0x60 DUP6 SWAP1 SHL PUSH12 0xFFFFFFFFFFFFFFFFFFFFFFFF NOT AND SWAP1 DUP4 ADD SWAP1 DUP2 MSTORE DUP4 MLOAD PUSH2 0x1B07 DUP2 PUSH1 0x14 DUP5 ADD PUSH1 0x20 DUP9 ADD PUSH2 0x1989 JUMP JUMPDEST ADD PUSH1 0x14 ADD SWAP6 SWAP5 POP POP POP POP POP JUMP INVALID LOG2 PUSH5 0x6970667358 0x22 SLT KECCAK256 0xB5 PUSH18 0xF4930B46CD501EB321D0593DFDE334ADF76A BYTE 0xC1 0xB7 LOG3 0xC1 EXTCODESIZE 0xB3 RETURNDATASIZE 0xAD 0x2D 0xDF LOG4 PUSH5 0x736F6C6343 STOP ADDMOD 0xC STOP CALLER "},"methodIdentifiers":{"_admin()":"01bc45c9","_arrayListingId(uint256)":"ed4ec201","_arrayMakeOfferId(uint256)":"1fd4d2ed","_listingTokens(bytes32)":"a3a1937c","_makeOfferTokens(bytes32)":"3dd72c40","_parameterAddr()":"72c035cf","arrayListingId()":"5861933e","cancelListing(bytes32)":"9299e552","changeAdmin(address)":"8f283970","changeParamAddr(address)":"febfd6c3","initialize(address,address)":"485cc955","listToken((address,uint256,address,uint256,address,bool,uint256))":"51351e3e","purchaseToken(bytes32)":"3ac1089a","withdraw(address,address,uint256)":"d9caed12"}},"storageLayout":{"storage":[{"astId":6,"contract":"contracts/services/SimpleMarketplaceService.sol:SimpleMarketplaceService","label":"_initialized","offset":0,"slot":"0","type":"t_uint8"},{"astId":9,"contract":"contracts/services/SimpleMarketplaceService.sol:SimpleMarketplaceService","label":"_initializing","offset":1,"slot":"0","type":"t_bool"},{"astId":182,"contract":"contracts/services/SimpleMarketplaceService.sol:SimpleMarketplaceService","label":"_status","offset":0,"slot":"1","type":"t_uint256"},{"astId":240,"contract":"contracts/services/SimpleMarketplaceService.sol:SimpleMarketplaceService","label":"__gap","offset":0,"slot":"2","type":"t_array(t_uint256)49_storage"},{"astId":4224,"contract":"contracts/services/SimpleMarketplaceService.sol:SimpleMarketplaceService","label":"_counting","offset":0,"slot":"51","type":"t_uint256"},{"astId":4226,"contract":"contracts/services/SimpleMarketplaceService.sol:SimpleMarketplaceService","label":"_admin","offset":0,"slot":"52","type":"t_address"},{"astId":4228,"contract":"contracts/services/SimpleMarketplaceService.sol:SimpleMarketplaceService","label":"_parameterAddr","offset":0,"slot":"53","type":"t_address"},{"astId":4233,"contract":"contracts/services/SimpleMarketplaceService.sol:SimpleMarketplaceService","label":"_listingTokens","offset":0,"slot":"54","type":"t_mapping(t_bytes32,t_struct(ListingTokenData)4144_storage)"},{"astId":4236,"contract":"contracts/services/SimpleMarketplaceService.sol:SimpleMarketplaceService","label":"_arrayListingId","offset":0,"slot":"55","type":"t_array(t_bytes32)dyn_storage"},{"astId":4241,"contract":"contracts/services/SimpleMarketplaceService.sol:SimpleMarketplaceService","label":"_makeOfferTokens","offset":0,"slot":"56","type":"t_mapping(t_bytes32,t_struct(MakeOfferData)4172_storage)"},{"astId":4244,"contract":"contracts/services/SimpleMarketplaceService.sol:SimpleMarketplaceService","label":"_arrayMakeOfferId","offset":0,"slot":"57","type":"t_array(t_bytes32)dyn_storage"}],"types":{"t_address":{"encoding":"inplace","label":"address","numberOfBytes":"20"},"t_array(t_bytes32)dyn_storage":{"base":"t_bytes32","encoding":"dynamic_array","label":"bytes32[]","numberOfBytes":"32"},"t_array(t_uint256)49_storage":{"base":"t_uint256","encoding":"inplace","label":"uint256[49]","numberOfBytes":"1568"},"t_bool":{"encoding":"inplace","label":"bool","numberOfBytes":"1"},"t_bytes32":{"encoding":"inplace","label":"bytes32","numberOfBytes":"32"},"t_mapping(t_bytes32,t_struct(ListingTokenData)4144_storage)":{"encoding":"mapping","key":"t_bytes32","label":"mapping(bytes32 => struct Marketplace.ListingTokenData)","numberOfBytes":"32","value":"t_struct(ListingTokenData)4144_storage"},"t_mapping(t_bytes32,t_struct(MakeOfferData)4172_storage)":{"encoding":"mapping","key":"t_bytes32","label":"mapping(bytes32 => struct Marketplace.MakeOfferData)","numberOfBytes":"32","value":"t_struct(MakeOfferData)4172_storage"},"t_struct(ListingTokenData)4144_storage":{"encoding":"inplace","label":"struct Marketplace.ListingTokenData","members":[{"astId":4131,"contract":"contracts/services/SimpleMarketplaceService.sol:SimpleMarketplaceService","label":"_collectionContract","offset":0,"slot":"0","type":"t_address"},{"astId":4133,"contract":"contracts/services/SimpleMarketplaceService.sol:SimpleMarketplaceService","label":"_tokenId","offset":0,"slot":"1","type":"t_uint256"},{"astId":4135,"contract":"contracts/services/SimpleMarketplaceService.sol:SimpleMarketplaceService","label":"_seller","offset":0,"slot":"2","type":"t_address"},{"astId":4137,"contract":"contracts/services/SimpleMarketplaceService.sol:SimpleMarketplaceService","label":"_price","offset":0,"slot":"3","type":"t_uint256"},{"astId":4139,"contract":"contracts/services/SimpleMarketplaceService.sol:SimpleMarketplaceService","label":"_erc20Token","offset":0,"slot":"4","type":"t_address"},{"astId":4141,"contract":"contracts/services/SimpleMarketplaceService.sol:SimpleMarketplaceService","label":"_closed","offset":20,"slot":"4","type":"t_bool"},{"astId":4143,"contract":"contracts/services/SimpleMarketplaceService.sol:SimpleMarketplaceService","label":"_durationTime","offset":0,"slot":"5","type":"t_uint256"}],"numberOfBytes":"192"},"t_struct(MakeOfferData)4172_storage":{"encoding":"inplace","label":"struct Marketplace.MakeOfferData","members":[{"astId":4159,"contract":"contracts/services/SimpleMarketplaceService.sol:SimpleMarketplaceService","label":"_collectionContract","offset":0,"slot":"0","type":"t_address"},{"astId":4161,"contract":"contracts/services/SimpleMarketplaceService.sol:SimpleMarketplaceService","label":"_tokenId","offset":0,"slot":"1","type":"t_uint256"},{"astId":4163,"contract":"contracts/services/SimpleMarketplaceService.sol:SimpleMarketplaceService","label":"_buyer","offset":0,"slot":"2","type":"t_address"},{"astId":4165,"contract":"contracts/services/SimpleMarketplaceService.sol:SimpleMarketplaceService","label":"_erc20Token","offset":0,"slot":"3","type":"t_address"},{"astId":4167,"contract":"contracts/services/SimpleMarketplaceService.sol:SimpleMarketplaceService","label":"_price","offset":0,"slot":"4","type":"t_uint256"},{"astId":4169,"contract":"contracts/services/SimpleMarketplaceService.sol:SimpleMarketplaceService","label":"_closed","offset":0,"slot":"5","type":"t_bool"},{"astId":4171,"contract":"contracts/services/SimpleMarketplaceService.sol:SimpleMarketplaceService","label":"_durationTime","offset":0,"slot":"6","type":"t_uint256"}],"numberOfBytes":"224"},"t_uint256":{"encoding":"inplace","label":"uint256","numberOfBytes":"32"},"t_uint8":{"encoding":"inplace","label":"uint8","numberOfBytes":"1"}}}}}}