{"contracts/data/GenerativeProjectData.sol":{"GenerativeProjectData":{"abi":[{"anonymous":false,"inputs":[{"indexed":false,"internalType":"uint8","name":"version","type":"uint8"}],"name":"Initialized","type":"event"},{"anonymous":false,"inputs":[{"indexed":true,"internalType":"address","name":"previousOwner","type":"address"},{"indexed":true,"internalType":"address","name":"newOwner","type":"address"}],"name":"OwnershipTransferred","type":"event"},{"inputs":[],"name":"_admin","outputs":[{"internalType":"address","name":"","type":"address"}],"stateMutability":"view","type":"function"},{"inputs":[],"name":"_generativeProjectAddr","outputs":[{"internalType":"address","name":"","type":"address"}],"stateMutability":"view","type":"function"},{"inputs":[],"name":"_paramAddr","outputs":[{"internalType":"address","name":"","type":"address"}],"stateMutability":"view","type":"function"},{"inputs":[{"internalType":"address","name":"newAdm","type":"address"}],"name":"changeAdmin","outputs":[],"stateMutability":"nonpayable","type":"function"},{"inputs":[{"internalType":"address","name":"newAddr","type":"address"}],"name":"changeParamAddress","outputs":[],"stateMutability":"nonpayable","type":"function"},{"inputs":[{"internalType":"address","name":"newAddr","type":"address"}],"name":"changeProjectAddress","outputs":[],"stateMutability":"nonpayable","type":"function"},{"inputs":[],"name":"getChainID","outputs":[{"internalType":"uint256","name":"","type":"uint256"}],"stateMutability":"view","type":"function"},{"inputs":[{"internalType":"string","name":"script","type":"string"}],"name":"inflateScript","outputs":[{"internalType":"string","name":"result","type":"string"},{"internalType":"enum Inflate.ErrorCode","name":"err","type":"uint8"}],"stateMutability":"view","type":"function"},{"inputs":[{"internalType":"string","name":"data","type":"string"}],"name":"inflateString","outputs":[{"internalType":"string","name":"result","type":"string"},{"internalType":"enum Inflate.ErrorCode","name":"err","type":"uint8"}],"stateMutability":"view","type":"function"},{"inputs":[{"internalType":"address","name":"admin","type":"address"},{"internalType":"address","name":"paramAddr","type":"address"},{"internalType":"address","name":"generativeProjectAddr","type":"address"}],"name":"initialize","outputs":[],"stateMutability":"nonpayable","type":"function"},{"inputs":[],"name":"owner","outputs":[{"internalType":"address","name":"","type":"address"}],"stateMutability":"view","type":"function"},{"inputs":[{"internalType":"uint256","name":"projectId","type":"uint256"}],"name":"projectURI","outputs":[{"internalType":"string","name":"result","type":"string"}],"stateMutability":"view","type":"function"},{"inputs":[],"name":"renounceOwnership","outputs":[],"stateMutability":"nonpayable","type":"function"},{"inputs":[{"internalType":"uint256","name":"projectId","type":"uint256"},{"internalType":"uint256","name":"tokenId","type":"uint256"},{"internalType":"bytes32","name":"seed","type":"bytes32"}],"name":"tokenHTML","outputs":[{"internalType":"string","name":"result","type":"string"}],"stateMutability":"view","type":"function"},{"inputs":[{"internalType":"uint256","name":"projectId","type":"uint256"},{"internalType":"uint256","name":"tokenId","type":"uint256"},{"internalType":"bytes32","name":"seed","type":"bytes32"}],"name":"tokenURI","outputs":[{"internalType":"string","name":"result","type":"string"}],"stateMutability":"view","type":"function"},{"inputs":[{"internalType":"address","name":"newOwner","type":"address"}],"name":"transferOwnership","outputs":[],"stateMutability":"nonpayable","type":"function"}],"evm":{"bytecode":{"linkReferences":{},"object":"608060405234801561001057600080fd5b506149b1806100206000396000f3fe608060405234801561001057600080fd5b50600436106101005760003560e01c80637af34af211610097578063c0c53b8b11610066578063c0c53b8b14610211578063e808285814610224578063f2fde38b14610237578063f4a290f71461024a57600080fd5b80637af34af2146101c75780638da5cb5b146101da5780638f283970146101eb57806394139301146101fe57600080fd5b8063567fdcf3116100d3578063567fdcf3146101785780636e973cf21461018b578063715018a6146101ac57806379ebc6f0146101b457600080fd5b806301bc45c91461010557806316a5041f1461013557806331c7280c1461014a578063564b81ef1461016a575b600080fd5b606554610118906001600160a01b031681565b6040516001600160a01b0390911681526020015b60405180910390f35b6101486101433660046138b2565b61025d565b005b61015d6101583660046138cf565b6102f7565b60405161012c9190613953565b60405146815260200161012c565b606754610118906001600160a01b031681565b61019e610199366004613a1e565b6104f9565b60405161012c929190613ab3565b610148610517565b61015d6101c2366004613af3565b61052b565b61019e6101d5366004613a1e565b610920565b6033546001600160a01b0316610118565b6101486101f93660046138b2565b61093f565b61015d61020c3660046138cf565b6109d1565b61014861021f366004613b0c565b610e5e565b6101486102323660046138b2565b610faf565b6101486102453660046138b2565b611041565b606654610118906001600160a01b031681565b6065546001600160a01b03163314801561027f57506001600160a01b03811615155b6040518060400160405280600381526020016231303160e81b815250906102c25760405162461bcd60e51b81526004016102b99190613953565b60405180910390fd5b506066546001600160a01b038281169116146102f457606680546001600160a01b0319166001600160a01b0383161790555b50565b6067546040516346ec8d2b60e11b8152600481018590526060916001600160a01b0316906000908290638dd91a5690602401600060405180830381865afa158015610346573d6000803e3d6000fd5b505050506040513d6000823e601f3d908101601f1916820160405261036e9190810190613dad565b9050600060405180602001604052806000815250905060606000805b846101800151518110156104eb57600085610180015182815181106103b1576103b161400d565b60200260200101515111156104d957306001600160a01b0316636e973cf286610180015183815181106103e6576103e661400d565b60200260200101516040518263ffffffff1660e01b815260040161040a9190613953565b600060405180830381865afa158015610427573d6000803e3d6000fd5b505050506040513d6000823e601f3d908101601f1916820160405261044f9190810190614023565b9093509150600082600e81111561046857610468613a9d565b146104b4578385610180015182815181106104855761048561400d565b602002602001015160405160200161049e929190614094565b60405160208183030381529060405293506104d9565b83836040516020016104c7929190614094565b60405160208183030381529060405293505b806104e3816140d9565b91505061038a565b509198975050505050505050565b6060600061050e610509846110b7565b611229565b91509150915091565b61051f61137f565b61052960006113d9565b565b60606105876040518061010001604052806060815260200160006001600160a01b031681526020016060815260200160608152602001606081526020016060815260200160006001600160a01b03168152602001606081525090565b6067546040516346ec8d2b60e11b8152600481018590526001600160a01b03909116906000908290638dd91a5690602401600060405180830381865afa1580156105d5573d6000803e3d6000fd5b505050506040513d6000823e601f3d908101601f191682016040526105fd9190810190613dad565b9050600061060e620f4240876140f4565b90506000306001600160a01b03166331c7280c88848560405160200161063691815260200190565b604051602081830303815290604052805190602001206040518463ffffffff1660e01b815260040161067b939291909283526020830191909152604082015260600190565b600060405180830381865afa158015610698573d6000803e3d6000fd5b505050506040513d6000823e601f3d908101601f191682016040526106c09190810190614113565b805190915015610714576106f2816040516020016106de9190614147565b60405160208183030381529060405261142b565b6040516020016107029190614163565b60405160208183030381529060405290505b60008160405160200161072791906141a1565b6040516020818303038152906040529050836080015161074689611590565b6040516020016107579291906141e8565b60408051601f1981840301815291815287015261010084015160808701819052606090600090610786906104f9565b9092509050600081600e81111561079f5761079f613a9d565b14156107ad57608088018290525b610120860151606089015260a08089018490526101e08701516001600160a01b0390811660c0808c0191909152880151166020808b019190915290870151895260408051918201905260008082525b876101600151518160ff16101561087c578161082461081c836001614225565b60ff16611590565b8961016001518360ff168151811061083e5761083e61400d565b60200260200101516040516020016108589392919061424a565b60405160208183030381529060405291508080610874906142d8565b9150506107fc565b5061088a8960c00151611624565b895160208b015161089a90611624565b8960e00151846040516020016108b49594939291906142f8565b60408051601f1981840301815291815260e08b018290528a81015160808c015160608d015160a08e015193516108f1956106de9591602001614479565b604051602001610901919061455e565b6040516020818303038152906040529950505050505050505050919050565b6060600061050e610199600980865161093991906145a3565b86611640565b6065546001600160a01b03163314801561096157506001600160a01b03811615155b6040518060400160405280600381526020016231303160e81b8152509061099b5760405162461bcd60e51b81526004016102b99190613953565b506065546001600160a01b038281169116146102f457606580546001600160a01b0383166001600160a01b031990911617905550565b6066546067546040516346ec8d2b60e11b8152600481018690526060926001600160a01b039081169216906000908290638dd91a5690602401600060405180830381865afa158015610a27573d6000803e3d6000fd5b505050506040513d6000823e601f3d908101601f19168201604052610a4f9190810190613dad565b604051630c71ca0360e21b815260048101899052602481018890526044810187905290915060009030906331c7280c90606401600060405180830381865afa158015610a9f573d6000803e3d6000fd5b505050506040513d6000823e601f3d908101601f19168201604052610ac79190810190614113565b805190915015610b0b57610ae5816040516020016106de9190614147565b604051602001610af59190614163565b6040516020818303038152906040529050610c38565b306001600160a01b031663564b81ef6040518163ffffffff1660e01b8152600401602060405180830381865afa158015610b49573d6000803e3d6000fd5b505050506040513d601f19601f82011682018060405250810190610b6d91906145ba565b604080518082018252600b81526a4246535f4144445245535360a81b6020820152905163bf40fac160e01b81526001600160a01b0387169163bf40fac191610bb89190600401613953565b602060405180830381865afa158015610bd5573d6000803e3d6000fd5b505050506040513d601f19601f82011682018060405250810190610bf991906145d3565b610c0233611624565b610c0b89611726565b604051602001610c1e94939291906145f0565b604051602081830303815290604052945050505050610e57565b610c6a6040518060a0016040528060608152602001606081526020016060815260200160608152602001606081525090565b81604051602001610c7b91906141a1565b60408051601f19818403018152918152606083019190915280518082018252600e81526d109054d157d5549257d51490525560921b6020820152905163349f642f60e11b81526001600160a01b0387169163693ec85e91610cdf9190600401613953565b600060405180830381865afa158015610cfc573d6000803e3d6000fd5b505050506040513d6000823e601f3d908101601f19168201604052610d249190810190614113565b60408201526080830151610d3789611590565b604051602001610d489291906141e8565b60408051601f19818403018152919052815261010083015160208201526102008301515115610d7d5761020083015160208201525b60606000610d8e83602001516104f9565b9092509050600081600e811115610da757610da7613a9d565b1415610db557602083018290525b6040830151606754610dcf906001600160a01b0316611624565b610dd88c611590565b610de18c611726565b604051602001610df4949392919061466e565b60408051601f19818403018152918152848101829052845160208681015160608801519351610e2e956106de9592939092918391016146f0565b604051602001610e3e919061455e565b6040516020818303038152906040529750505050505050505b9392505050565b600054610100900460ff1615808015610e7e5750600054600160ff909116105b80610e985750303b158015610e98575060005460ff166001145b610efb5760405162461bcd60e51b815260206004820152602e60248201527f496e697469616c697a61626c653a20636f6e747261637420697320616c72656160448201526d191e481a5b9a5d1a585b1a5e995960921b60648201526084016102b9565b6000805460ff191660011790558015610f1e576000805461ff0019166101001790555b606580546001600160a01b038087166001600160a01b031992831617909255606680548684169083161790556067805492851692909116919091179055610f63611772565b8015610fa9576000805461ff0019169055604051600181527f7f26b83ff96e1f2b6a682f133852f6798a09c465da95921460cefb38474024989060200160405180910390a15b50505050565b6065546001600160a01b031633148015610fd157506001600160a01b03811615155b6040518060400160405280600381526020016231303160e81b8152509061100b5760405162461bcd60e51b81526004016102b99190613953565b506067546001600160a01b038281169116146102f457606780546001600160a01b0383166001600160a01b031990911617905550565b61104961137f565b6001600160a01b0381166110ae5760405162461bcd60e51b815260206004820152602660248201527f4f776e61626c653a206e6577206f776e657220697320746865207a65726f206160448201526564647265737360d01b60648201526084016102b9565b6102f4816113d9565b8051606090829015806110d65750600481516110d39190614819565b15155b156110f55760408051600080825260208201909252905b509392505050565b60006040518060a00160405280608081526020016148fc608091399050600060048351611122919061482d565b61112d9060036140f4565b9050600061113c826020614841565b6001600160401b0381111561115357611153613966565b6040519080825280601f01601f19166020018201604052801561117d576020820181803683370190505b5090508351840151603d60ff821614156111ac57600183039250613d3d61ffff821614156111ac576001830392505b50818152600183018485518101602084015b8183101561121b57600483019250825160ff8082168601511660ff808360081c168701511660061b0160ff808360101c1687015116600c1b60ff808460181c168801511660121b010190508060e81b8252506003810190506111be565b509298975050505050505050565b606060006060611246848551600561124191906140f4565b6117a1565b9092509050600082600e81111561125f5761125f613a9d565b14156113665760005b81818151811061127a5761127a61400d565b01602001516001600160f81b031916611292576112b2565b8061129c816140d9565b91505081518114156112ad576112b2565b611268565b6000816001600160401b038111156112cc576112cc613966565b6040519080825280601f01601f1916602001820160405280156112f6576020820181803683370190505b50905060005b8281101561135c578381815181106113165761131661400d565b602001015160f81c60f81b8282815181106113335761133361400d565b60200101906001600160f81b031916908160001a90535080611354816140d9565b9150506112fc565b5093506113799050565b6040518060200160405280600081525092505b50915091565b6033546001600160a01b031633146105295760405162461bcd60e51b815260206004820181905260248201527f4f776e61626c653a2063616c6c6572206973206e6f7420746865206f776e657260448201526064016102b9565b603380546001600160a01b038381166001600160a01b0319831681179093556040519116919082907f8be0079c531659141344cd1fd0a4f28419497f9722a3daafe3b4186f6b6457e090600090a35050565b606081516000141561144b57505060408051602081019091526000815290565b60006040518060600160405280604081526020016148bc604091399050600060038451600261147a9190614841565b611484919061482d565b61148f9060046140f4565b9050600061149e826020614841565b6001600160401b038111156114b5576114b5613966565b6040519080825280601f01601f1916602001820160405280156114df576020820181803683370190505b509050818152600183018586518101602084015b8183101561154b576003830192508251603f8160121c168501518253600182019150603f81600c1c168501518253600182019150603f8160061c168501518253600182019150603f81168501518253506001016114f3565b600389510660018114611565576002811461157657611582565b613d3d60f01b600119830152611582565b603d60f81b6000198301525b509398975050505050505050565b6060600061159d83611a52565b60010190506000816001600160401b038111156115bc576115bc613966565b6040519080825280601f01601f1916602001820160405280156115e6576020820181803683370190505b5090508181016020015b600019016f181899199a1a9b1b9c1cb0b131b232b360811b600a86061a8153600a850494508461161f576110ed565b6115f0565b606061163a6001600160a01b0383166014611b2a565b92915050565b6060600061164e85856145a3565b611659906001614841565b6001600160401b0381111561167057611670613966565b6040519080825280601f01601f19166020018201604052801561169a576020820181803683370190505b50905060005b6116aa86866145a3565b811161171d578360016116bd8884614841565b6116c791906145a3565b815181106116d7576116d761400d565b602001015160f81c60f81b8282815181106116f4576116f461400d565b60200101906001600160f81b031916908160001a90535080611715816140d9565b9150506116a0565b50949350505050565b606061173182611cc5565b61173e608084901b611cc5565b60405161060f60f31b6020820152602281019290925260428201526062016040516020818303038152906040529050919050565b600054610100900460ff166117995760405162461bcd60e51b81526004016102b990614859565b610529611e77565b600060606000604051806101000160405280856001600160401b038111156117cb576117cb613966565b6040519080825280601f01601f1916602001820160405280156117f5576020820181803683370190505b508152602001600081526020018681526020016000815260200160008152602001600081526020016040518060400160405280600f60016118369190614841565b6001600160401b0381111561184d5761184d613966565b604051908082528060200260200182016040528015611876578160200160208202803683370190505b5081526040805161012080825261242082019092526020928301929091908201612400803683370190505081525081526020016040518060400160405280600f60016118c29190614841565b6001600160401b038111156118d9576118d9613966565b604051908082528060200260200182016040528015611902578160200160208202803683370190505b50815260408051601e8082526103e0820190925260209283019290919082016103c0803683375050509052905290506000808061193e84611ea7565b9050600081600e81111561195457611954613a9d565b14611969579251929450919250611a4b915050565b82611a4057611979846001612031565b93509050600081600e81111561199157611991613a9d565b146119a6579251929450919250611a4b915050565b6119b1846002612031565b92509050600081600e8111156119c9576119c9613a9d565b146119de579251929450919250611a4b915050565b8115611a125781600114611a0957816002146119fb576003611a1b565b611a0484612102565b611a1b565b611a048461217c565b611a1b84612191565b9050600081600e811115611a3157611a31613a9d565b14611a3b57611a40565b611969565b925192945091925050505b9250929050565b60008072184f03e93ff9f4daa797ed6e38ed64bf6a1f0160401b8310611a915772184f03e93ff9f4daa797ed6e38ed64bf6a1f0160401b830492506040015b6d04ee2d6d415b85acef81000000008310611abd576d04ee2d6d415b85acef8100000000830492506020015b662386f26fc100008310611adb57662386f26fc10000830492506010015b6305f5e1008310611af3576305f5e100830492506008015b6127108310611b0757612710830492506004015b60648310611b19576064830492506002015b600a831061163a5760010192915050565b60606000611b398360026140f4565b611b44906002614841565b6001600160401b03811115611b5b57611b5b613966565b6040519080825280601f01601f191660200182016040528015611b85576020820181803683370190505b509050600360fc1b81600081518110611ba057611ba061400d565b60200101906001600160f81b031916908160001a905350600f60fb1b81600181518110611bcf57611bcf61400d565b60200101906001600160f81b031916908160001a9053506000611bf38460026140f4565b611bfe906001614841565b90505b6001811115611c76576f181899199a1a9b1b9c1cb0b131b232b360811b85600f1660108110611c3257611c3261400d565b1a60f81b828281518110611c4857611c4861400d565b60200101906001600160f81b031916908160001a90535060049490941c93611c6f816148a4565b9050611c01565b508315610e575760405162461bcd60e51b815260206004820181905260248201527f537472696e67733a20686578206c656e67746820696e73756666696369656e7460448201526064016102b9565b7aff00000000000000ff00000000000000ff00000000000000ff00006bffffffff0000000000000000604083901c90811663ffffffff60c01b84161760201c63ffffffff60601b919091166001600160e01b031984161717601081901c9182167eff00000000000000ff00000000000000ff00000000000000ff000000000000821617600890811c7bff00000000000000ff00000000000000ff00000000000000ff000000939093167fff00000000000000ff00000000000000ff00000000000000ff000000000000009290921691909117919091179081901c7e0f000f000f000f000f000f000f000f000f000f000f000f000f000f000f000f167f0f000f000f000f000f000f000f000f000f000f000f000f000f000f000f000f00600492831c161790611e13827f0606060606060606060606060606060606060606060606060606060606060606614841565b901c7f0f0f0f0f0f0f0f0f0f0f0f0f0f0f0f0f0f0f0f0f0f0f0f0f0f0f0f0f0f0f0f0f166007611e4391906140f4565b611e6d827f3030303030303030303030303030303030303030303030303030303030303030614841565b61163a9190614841565b600054610100900460ff16611e9e5760405162461bcd60e51b81526004016102b990614859565b610529336113d9565b604080516101208082526124208201909252600091829182916020820161240080368337019050509050600091505b6090821015611f10576008818381518110611ef357611ef361400d565b602090810291909101015281611f08816140d9565b925050611ed6565b610100821015611f4b576009818381518110611f2e57611f2e61400d565b602090810291909101015281611f43816140d9565b925050611f10565b610118821015611f86576007818381518110611f6957611f6961400d565b602090810291909101015281611f7e816140d9565b925050611f4b565b610120821015611fc1576008818381518110611fa457611fa461400d565b602090810291909101015281611fb9816140d9565b925050611f86565b611fd48460c001518261012060006123a1565b50600091505b601e821015612014576005818381518110611ff757611ff761400d565b60209081029190910101528161200c816140d9565b925050611fda565b6120268460e0015182601e60006123a1565b506000949350505050565b608082015160009081905b838560a0015110156120c5578460400151518560600151141561206757600160009250925050611a4b565b60a0850151604086015160608701805190612081826140d9565b9052815181106120935761209361400d565b602001015160f81c60f81b60f81c60ff16901b8117905060088560a0018181516120bd9190614841565b90525061203c565b80841c608086015260a0850180518591906120e19083906145a3565b90525060006120f3600180871b6145a3565b60009792169550909350505050565b6000612121604051806040016040528060608152602001606081525090565b604080518082019091526060808252602082015260006121408561266c565b90945092509050600081600e81111561215b5761215b613a9d565b1461216857949350505050565b612173858484612d22565b95945050505050565b600061163a828360c001518460e00151612d22565b60006080820181905260a0820181905260408201515160608301518291906121ba906004614841565b11156121c95750600192915050565b6040830151606084018051906121de826140d9565b9052815181106121f0576121f061400d565b0160200151604084015160608501805160f89390931c935060089290612215826140d9565b9052815181106122275761222761400d565b602001015160f81c60f81b60f81c60ff16901b81179050801960ff16836040015184606001805180919061225a906140d9565b90528151811061226c5761226c61400d565b016020015160f81c1415806122b75750604083015160608401805160ff841960081c16929161229a826140d9565b9052815181106122ac576122ac61400d565b016020015160f81c14155b156122c55750600492915050565b8260400151518184606001516122db9190614841565b11156122ea5750600192915050565b82515160208401516122fd908390614841565b111561230c5750600292915050565b80156123985761231d6001826145a3565b90508260400151836060018051809190612336906140d9565b9052815181106123485761234861400d565b602001015160f81c60f81b836000015184602001805180919061236a906140d9565b90528151811061237c5761237c61400d565b60200101906001600160f81b031916908160001a90535061230c565b50600092915050565b6000806000806123af61387e565b600092505b600f83116123f1576000896000015184815181106123d4576123d461400d565b6020908102919091010152826123e9816140d9565b9350506123b4565b600093505b8684101561245d5788518861240b8689614841565b8151811061241b5761241b61400d565b6020026020010151815181106124335761243361400d565b602002602001018051809190612448906140d9565b90525083612455816140d9565b9450506123f6565b8689600001516000815181106124755761247561400d565b60200260200101511415612490576000945050505050612664565b60019150600192505b600f8311612513578851805160019390931b92849081106124bc576124bc61400d565b60200260200101518210156124d857600e945050505050612664565b88518051849081106124ec576124ec61400d565b6020026020010151826124ff91906145a3565b91508261250b816140d9565b935050612499565b60006020820152600192505b600f83101561259857885180518490811061253c5761253c61400d565b60200260200101518184601081106125565761255661400d565b60200201516125659190614841565b81612571856001614841565b601081106125815761258161400d565b602002015282612590816140d9565b93505061251f565b600093505b8684101561264b57876125b08588614841565b815181106125c0576125c061400d565b60200260200101516000146126395760208901518490828a6125e2848b614841565b815181106125f2576125f261400d565b60200260200101516010811061260a5761260a61400d565b6020020180519061261a826140d9565b90528151811061262c5761262c61400d565b6020026020010181815250505b83612643816140d9565b94505061259d565b6000821161265a57600061265d565b600e5b9450505050505b949350505050565b600061268b604051806040016040528060608152602001606081525090565b60408051808201909152606080825260208201526000808080806126b2601e61011e614841565b6001600160401b038111156126c9576126c9613966565b6040519080825280602002602001820160405280156126f2578160200160208202803683370190505b50905060006040518060400160405280600f60016127109190614841565b6001600160401b0381111561272757612727613966565b604051908082528060200260200182016040528015612750578160200160208202803683370190505b5081526040805161011e8082526123e0820190925260209283019290919082016123c08036833701905050815250905060006040518060400160405280600f600161279b9190614841565b6001600160401b038111156127b2576127b2613966565b6040519080825280602002602001820160405280156127db578160200160208202803683370190505b50815260408051601e8082526103e0820190925260209283019290919082016103c0803683375050509052905060006128158c6005612031565b98509450600085600e81111561282d5761282d613a9d565b1461284557509298509650909450612d1b9350505050565b61285161010189614841565b975061285e8c6005612031565b97509450600085600e81111561287657612876613a9d565b1461288e57509298509650909450612d1b9350505050565b612899600188614841565b965061011e8811806128ab5750601e87115b156128c55750600599509097509550612d1b945050505050565b6128ce8c61354d565b9095509350600085600e8111156128e7576128e7613a9d565b146128ff57509298509650909450612d1b9350505050565b61290d8385601360006123a1565b9450600085600e81111561292357612923613a9d565b1461293d5750600699509097509550612d1b945050505050565b600095505b61294c8789614841565b861015612b45576000806129608e8661376f565b9097509150600087600e81111561297957612979613a9d565b146129935750949a509198509650612d1b95505050505050565b60108210156129cb578186896129a8816140d9565b9a50815181106129ba576129ba61400d565b602002602001018181525050612b3e565b5060006010821415612a6a57876129f4575060079b50929950909750612d1b9650505050505050565b85612a0060018a6145a3565b81518110612a1057612a1061400d565b60200260200101519050612a258e6002612031565b9097509250600087600e811115612a3e57612a3e613a9d565b14612a585750949a509198509650612d1b95505050505050565b612a63836003614841565b9150612aca565b8160111415612a7e57612a258e6003612031565b612a898e6007612031565b9097509250600087600e811115612aa257612aa2613a9d565b14612abc5750949a509198509650612d1b95505050505050565b612ac783600b614841565b91505b612ad4898b614841565b612ade838a614841565b1115612afc575060089b50929950909750612d1b9650505050505050565b8115612b3e57612b0d6001836145a3565b9150808689612b1b816140d9565b9a5081518110612b2d57612b2d61400d565b602002602001018181525050612afc565b5050612942565b8361010081518110612b5957612b5961400d565b602002602001015160001415612b7e5750600b99509097509550612d1b945050505050565b612b8b83858a60006123a1565b9450600085600e811115612ba157612ba1613a9d565b14158015612c2b5750600185600e811115612bbe57612bbe613a9d565b1480612bdb5750600285600e811115612bd957612bd9613a9d565b145b80612c2b5750825180516001908110612bf657612bf661400d565b60200260200101518360000151600081518110612c1557612c1561400d565b6020026020010151612c279190614841565b8814155b15612c455750600999509097509550612d1b945050505050565b612c518285898b6123a1565b9450600085600e811115612c6757612c67613a9d565b14158015612cf15750600185600e811115612c8457612c84613a9d565b1480612ca15750600285600e811115612c9f57612c9f613a9d565b145b80612cf15750815180516001908110612cbc57612cbc61400d565b60200260200101518260000151600081518110612cdb57612cdb61400d565b6020026020010151612ced9190614841565b8714155b15612d0b5750600a99509097509550612d1b945050505050565b5060009950909750955050505050505b9193909250565b6000806000806000604051806103a00160405280600361ffff168152602001600461ffff168152602001600561ffff168152602001600661ffff168152602001600761ffff168152602001600861ffff168152602001600961ffff168152602001600a61ffff168152602001600b61ffff168152602001600d61ffff168152602001600f61ffff168152602001601161ffff168152602001601361ffff168152602001601761ffff168152602001601b61ffff168152602001601f61ffff168152602001602361ffff168152602001602b61ffff168152602001603361ffff168152602001603b61ffff168152602001604361ffff168152602001605361ffff168152602001606361ffff168152602001607361ffff168152602001608361ffff16815260200160a361ffff16815260200160c361ffff16815260200160e361ffff16815260200161010261ffff1681525090506000604051806103a00160405280600060ff168152602001600060ff168152602001600060ff168152602001600060ff168152602001600060ff168152602001600060ff168152602001600060ff168152602001600060ff168152602001600160ff168152602001600160ff168152602001600160ff168152602001600160ff168152602001600260ff168152602001600260ff168152602001600260ff168152602001600260ff168152602001600360ff168152602001600360ff168152602001600360ff168152602001600360ff168152602001600460ff168152602001600460ff168152602001600460ff168152602001600460ff168152602001600560ff168152602001600560ff168152602001600560ff168152602001600560ff168152602001600060ff1681525090506000604051806103c00160405280600161ffff168152602001600261ffff168152602001600361ffff168152602001600461ffff168152602001600561ffff168152602001600761ffff168152602001600961ffff168152602001600d61ffff168152602001601161ffff168152602001601961ffff168152602001602161ffff168152602001603161ffff168152602001604161ffff168152602001606161ffff168152602001608161ffff16815260200160c161ffff16815260200161010161ffff16815260200161018161ffff16815260200161020161ffff16815260200161030161ffff16815260200161040161ffff16815260200161060161ffff16815260200161080161ffff168152602001610c0161ffff16815260200161100161ffff16815260200161180161ffff16815260200161200161ffff16815260200161300161ffff16815260200161400161ffff16815260200161600161ffff1681525090506000604051806103c00160405280600060ff168152602001600060ff168152602001600060ff168152602001600060ff168152602001600160ff168152602001600160ff168152602001600260ff168152602001600260ff168152602001600360ff168152602001600360ff168152602001600460ff168152602001600460ff168152602001600560ff168152602001600560ff168152602001600660ff168152602001600660ff168152602001600760ff168152602001600760ff168152602001600860ff168152602001600860ff168152602001600960ff168152602001600960ff168152602001600a60ff168152602001600a60ff168152602001600b60ff168152602001600b60ff168152602001600c60ff168152602001600c60ff168152602001600d60ff168152602001600d60ff16815250905060005b876101001461353b5761325c8c8c61376f565b98509050600081600e81111561327457613274613a9d565b14613288579750610e579650505050505050565b6101008810156132fe578b515160208d015114156132b157600298505050505050505050610e57565b8760f81b8c600001518d60200151815181106132cf576132cf61400d565b60200101906001600160f81b031916908160001a90535060208c018051906132f6826140d9565b905250613249565b6101008811156135295760006133166101018a6145a3565b9850601d891061333257600c9950505050505050505050610e57565b6133558d868b601d81106133485761334861400d565b602002015160ff16612031565b9092509050600082600e81111561336e5761336e613a9d565b1461338357509750610e579650505050505050565b80868a601d81106133965761339661400d565b602002015161ffff166133a99190614841565b97506133b58d8c61376f565b99509150600082600e8111156133cd576133cd613a9d565b146133e257509750610e579650505050505050565b6133f88d848b601e81106133485761334861400d565b9092509050600082600e81111561341157613411613a9d565b1461342657509750610e579650505050505050565b80848a601e81106134395761343961400d565b602002015161ffff1661344c9190614841565b96508c6020015187111561346c57600d9950505050505050505050610e57565b8c515160208e015161347f908a90614841565b11156134975760029950505050505050505050610e57565b8715613523576134a86001896145a3565b97508c60000151878e602001516134bf91906145a3565b815181106134cf576134cf61400d565b602001015160f81c60f81b8d600001518e60200151815181106134f4576134f461400d565b60200101906001600160f81b031916908160001a90535060208d0180519061351b826140d9565b905250613497565b50613249565b868c6020018181516132f69190614841565b5060009b9a5050505050505050505050565b60006060818080613561601e61011e614841565b6001600160401b0381111561357857613578613966565b6040519080825280602002602001820160405280156135a1578160200160208202803683370190505b506040805161026081018252601081526011602082015260129181019190915260006060820181905260086080830152600760a0830152600960c0830152600660e0830152600a6101008301526005610120830152600b61014083015260046101608301819052600c61018084015260036101a0840152600d6101c084015260026101e0840152600e6102008401526001610220840152600f6102408401529293509161364f908990612031565b95509150600082600e81111561366757613667613a9d565b146136785750969095509350505050565b613683600486614841565b9450600093505b8484101561370c5761369d886003612031565b848387601381106136b0576136b061400d565b602002015160ff16815181106136c8576136c861400d565b60209081029190910101529150600082600e8111156136e9576136e9613a9d565b146136fa5750969095509350505050565b83613704816140d9565b94505061368a565b601384101561375f5760008382866013811061372a5761372a61400d565b602002015160ff16815181106137425761374261400d565b602090810291909101015283613757816140d9565b94505061370c565b5060009791965090945050505050565b600080600181808080805b600f861161386b57600061378f8b6001612031565b9092509050600082600e8111156137a8576137a8613a9d565b146137bf5750965060009550611a4b945050505050565b8951805196821796889081106137d7576137d761400d565b6020026020010151935083856137ed9190614841565b8610156138385760208a015160009061380687896145a3565b6138109086614841565b815181106138205761382061400d565b60200260200101519850985050505050505050611a4b565b6138428484614841565b925061384e8486614841565b600196871b961b9450869050613863816140d9565b96505061377a565b50600c9960009950975050505050505050565b6040518061020001604052806010906020820280368337509192915050565b6001600160a01b03811681146102f457600080fd5b6000602082840312156138c457600080fd5b8135610e578161389d565b6000806000606084860312156138e457600080fd5b505081359360208301359350604090920135919050565b60005b838110156139165781810151838201526020016138fe565b83811115610fa95750506000910152565b6000815180845261393f8160208601602086016138fb565b601f01601f19169290920160200192915050565b602081526000610e576020830184613927565b634e487b7160e01b600052604160045260246000fd5b60405160a081016001600160401b038111828210171561399e5761399e613966565b60405290565b60405161026081016001600160401b038111828210171561399e5761399e613966565b604051601f8201601f191681016001600160401b03811182821017156139ef576139ef613966565b604052919050565b60006001600160401b03821115613a1057613a10613966565b50601f01601f191660200190565b600060208284031215613a3057600080fd5b81356001600160401b03811115613a4657600080fd5b8201601f81018413613a5757600080fd5b8035613a6a613a65826139f7565b6139c7565b818152856020838501011115613a7f57600080fd5b81602084016020830137600091810160200191909152949350505050565b634e487b7160e01b600052602160045260246000fd5b604081526000613ac66040830185613927565b9050600f8310613ae657634e487b7160e01b600052602160045260246000fd5b8260208301529392505050565b600060208284031215613b0557600080fd5b5035919050565b600080600060608486031215613b2157600080fd5b8335613b2c8161389d565b92506020840135613b3c8161389d565b91506040840135613b4c8161389d565b809150509250925092565b805162ffffff81168114613b6a57600080fd5b919050565b8051613b6a8161389d565b600082601f830112613b8b57600080fd5b8151613b99613a65826139f7565b818152846020838601011115613bae57600080fd5b6126648260208301602087016138fb565b600060a08284031215613bd157600080fd5b613bd961397c565b905081516001600160401b0380821115613bf257600080fd5b613bfe85838601613b7a565b83526020840151915080821115613c1457600080fd5b613c2085838601613b7a565b60208401526040840151915080821115613c3957600080fd5b613c4585838601613b7a565b60408401526060840151915080821115613c5e57600080fd5b613c6a85838601613b7a565b60608401526080840151915080821115613c8357600080fd5b50613c9084828501613b7a565b60808301525092915050565b60006001600160401b03821115613cb557613cb5613966565b5060051b60200190565b600082601f830112613cd057600080fd5b81516020613ce0613a6583613c9c565b82815260059290921b84018101918181019086841115613cff57600080fd5b8286015b84811015613d3e5780516001600160401b03811115613d225760008081fd5b613d308986838b0101613b7a565b845250918301918301613d03565b509695505050505050565b600082601f830112613d5a57600080fd5b81516020613d6a613a6583613c9c565b82815260059290921b84018101918181019086841115613d8957600080fd5b8286015b84811015613d3e578051613da08161389d565b8352918301918301613d8d565b600060208284031215613dbf57600080fd5b81516001600160401b0380821115613dd657600080fd5b908301906102608286031215613deb57600080fd5b613df36139a4565b613dfc83613b57565b8152613e0a60208401613b57565b602082015260408301516040820152613e2560608401613b6f565b6060820152608083015182811115613e3c57600080fd5b613e4887828601613b7a565b60808301525060a083015182811115613e6057600080fd5b613e6c87828601613b7a565b60a083015250613e7e60c08401613b6f565b60c082015260e083015182811115613e9557600080fd5b613ea187828601613b7a565b60e0830152506101008084015183811115613ebb57600080fd5b613ec788828701613b7a565b8284015250506101208084015183811115613ee157600080fd5b613eed88828701613b7a565b8284015250506101408084015183811115613f0757600080fd5b613f1388828701613bbf565b8284015250506101608084015183811115613f2d57600080fd5b613f3988828701613cbf565b8284015250506101808084015183811115613f5357600080fd5b613f5f88828701613cbf565b8284015250506101a08084015183811115613f7957600080fd5b613f8588828701613b7a565b8284015250506101c08084015181830152506101e0613fa5818501613b6f565b908201526102008381015183811115613fbd57600080fd5b613fc988828701613b7a565b8284015250506102208084015183811115613fe357600080fd5b613fef88828701613d49565b91830191909152506102409283015192810192909252509392505050565b634e487b7160e01b600052603260045260246000fd5b6000806040838503121561403657600080fd5b82516001600160401b0381111561404c57600080fd5b61405885828601613b7a565b9250506020830151600f811061406d57600080fd5b809150509250929050565b6000815161408a8185602086016138fb565b9290920192915050565b600083516140a68184602088016138fb565b8351908301906140ba8183602088016138fb565b01949350505050565b634e487b7160e01b600052601160045260246000fd5b60006000198214156140ed576140ed6140c3565b5060010190565b600081600019048311821515161561410e5761410e6140c3565b500290565b60006020828403121561412557600080fd5b81516001600160401b0381111561413b57600080fd5b61266484828501613b7a565b600082516141598184602087016138fb565b9190910192915050565b7519185d184e9d195e1d0bda1d1b5b0ed8985cd94d8d0b60521b8152600082516141948160168501602087016138fb565b9190910160160192915050565b7216101130b734b6b0ba34b7b72fbab936111d1160691b815281516000906141d08160138501602087016138fb565b601160f91b6013939091019283015250601401919050565b600083516141fa8184602088016138fb565b61202360f01b90830190815283516142198160028401602088016138fb565b01600201949350505050565b600060ff821660ff84168060ff03821115614242576142426140c3565b019392505050565b6000845161425c8184602089016138fb565b740163d913a3930b4ba2fba3cb832911d10112634b11605d1b908301908152845161428e8160158401602089016138fb565b6c111610113b30b63ab2911d101160991b6015929091019182015283516142bc8160228401602088016138fb565b61227d60f01b6022929091019182015260240195945050505050565b600060ff821660ff8114156142ef576142ef6140c3565b60010192915050565b7f2c2261747472696275746573223a205b7b2274726169745f74797065223a202281527f436f6c6c656374696f6e2041646472657373222c202276616c7565223a20220060208201526000865161435681603f850160208b016138fb565b61227d60f01b603f9184019182018190527f2c7b2274726169745f74797065223a202243726561746f72222c202276616c7560418301526432911d101160d91b606183015287516143ae816066850160208c016138fb565b60669201918201527f2c7b2274726169745f74797065223a202243726561746f72204164647265737360688201526c111610113b30b63ab2911d101160991b608882015261446d61446061445a61440f61445461441d82609588018d614078565b61227d60f01b815260020190565b7f2c7b2274726169745f74797065223a20224c6963656e7365222c202276616c7581526432911d101160d91b602082015260250190565b89614078565b86614078565b605d60f81b815260010190565b98975050505050505050565b683d913730b6b2911d1160b91b8152855160009061449e816009850160208b016138fb565b601160f91b60099184019182018190526f16113232b9b1b934b83a34b7b7111d1160811b600a83015287516144da81601a850160208c016138fb565b601a920191820181905269161134b6b0b3b2911d1160b11b601b830152865161450a816025850160208b016138fb565b602592019182015284516145258160268401602089016138fb565b845191019061453b8160268401602088016138fb565b614551602682840101607d60f81b815260010190565b9998505050505050505050565b7f646174613a6170706c69636174696f6e2f6a736f6e3b6261736536342c00000081526000825161459681601d8501602087016138fb565b91909101601d0192915050565b6000828210156145b5576145b56140c3565b500390565b6000602082840312156145cc57600080fd5b5051919050565b6000602082840312156145e557600080fd5b8151610e578161389d565b656266733a2f2f60d01b81528460068201526000602f60f81b8060268401526bffffffffffffffffffffffff198660601b16602784015280603b840152845161464081603c8601602089016138fb565b808401905081603c8201528451915061466082603d8301602088016138fb565b01603d019695505050505050565b60008551614680818460208a016138fb565b8083019050602f60f81b80825286516146a0816001850160208b016138fb565b600192019182015284516146bb8160028401602089016138fb565b653f736565643d60d01b6002929091019182015283516146e28160088401602088016138fb565b016008019695505050505050565b683d913730b6b2911d1160b91b81528551600090614715816009850160208b016138fb565b711116113232b9b1b934b83a34b7b7111d101160711b600991840191820152865161474781601b840160208b016138fb565b601160f91b601b92909101918201526b16101134b6b0b3b2911d101160a11b601c820152855161477e816028840160208a016138fb565b6d1331b0b83a3ab9329e9a9818181160911b6028929091019182015284516147ad8160368401602089016138fb565b7016101130ba3a3934b13aba32b9911d101160791b6036929091019182015261446d6147f66147df6047840187614078565b6a1331b0b83a3ab9329e981160a91b8152600b0190565b607d60f81b815260010190565b634e487b7160e01b600052601260045260246000fd5b60008261482857614828614803565b500690565b60008261483c5761483c614803565b500490565b60008219821115614854576148546140c3565b500190565b6020808252602b908201527f496e697469616c697a61626c653a20636f6e7472616374206973206e6f74206960408201526a6e697469616c697a696e6760a81b606082015260800190565b6000816148b3576148b36140c3565b50600019019056fe4142434445464748494a4b4c4d4e4f505152535455565758595a6162636465666768696a6b6c6d6e6f707172737475767778797a303132333435363738392b2f000000000000000000000000000000000000000000000000000000000000000000000000000000000000003e0000003f3435363738393a3b3c3d00000000000000000102030405060708090a0b0c0d0e0f101112131415161718190000000000001a1b1c1d1e1f202122232425262728292a2b2c2d2e2f303132330000000000a26469706673582212200eb5dfdec39493f550277ad8bf285d55c2b485a9e095bfba375e2de8a5ecd5b464736f6c634300080c0033","opcodes":"PUSH1 0x80 PUSH1 0x40 MSTORE CALLVALUE DUP1 ISZERO PUSH2 0x10 JUMPI PUSH1 0x0 DUP1 REVERT JUMPDEST POP PUSH2 0x49B1 DUP1 PUSH2 0x20 PUSH1 0x0 CODECOPY PUSH1 0x0 RETURN INVALID PUSH1 0x80 PUSH1 0x40 MSTORE CALLVALUE DUP1 ISZERO PUSH2 0x10 JUMPI PUSH1 0x0 DUP1 REVERT JUMPDEST POP PUSH1 0x4 CALLDATASIZE LT PUSH2 0x100 JUMPI PUSH1 0x0 CALLDATALOAD PUSH1 0xE0 SHR DUP1 PUSH4 0x7AF34AF2 GT PUSH2 0x97 JUMPI DUP1 PUSH4 0xC0C53B8B GT PUSH2 0x66 JUMPI DUP1 PUSH4 0xC0C53B8B EQ PUSH2 0x211 JUMPI DUP1 PUSH4 0xE8082858 EQ PUSH2 0x224 JUMPI DUP1 PUSH4 0xF2FDE38B EQ PUSH2 0x237 JUMPI DUP1 PUSH4 0xF4A290F7 EQ PUSH2 0x24A JUMPI PUSH1 0x0 DUP1 REVERT JUMPDEST DUP1 PUSH4 0x7AF34AF2 EQ PUSH2 0x1C7 JUMPI DUP1 PUSH4 0x8DA5CB5B EQ PUSH2 0x1DA JUMPI DUP1 PUSH4 0x8F283970 EQ PUSH2 0x1EB JUMPI DUP1 PUSH4 0x94139301 EQ PUSH2 0x1FE JUMPI PUSH1 0x0 DUP1 REVERT JUMPDEST DUP1 PUSH4 0x567FDCF3 GT PUSH2 0xD3 JUMPI DUP1 PUSH4 0x567FDCF3 EQ PUSH2 0x178 JUMPI DUP1 PUSH4 0x6E973CF2 EQ PUSH2 0x18B JUMPI DUP1 PUSH4 0x715018A6 EQ PUSH2 0x1AC JUMPI DUP1 PUSH4 0x79EBC6F0 EQ PUSH2 0x1B4 JUMPI PUSH1 0x0 DUP1 REVERT JUMPDEST DUP1 PUSH4 0x1BC45C9 EQ PUSH2 0x105 JUMPI DUP1 PUSH4 0x16A5041F EQ PUSH2 0x135 JUMPI DUP1 PUSH4 0x31C7280C EQ PUSH2 0x14A JUMPI DUP1 PUSH4 0x564B81EF EQ PUSH2 0x16A JUMPI JUMPDEST PUSH1 0x0 DUP1 REVERT JUMPDEST PUSH1 0x65 SLOAD PUSH2 0x118 SWAP1 PUSH1 0x1 PUSH1 0x1 PUSH1 0xA0 SHL SUB AND DUP2 JUMP JUMPDEST PUSH1 0x40 MLOAD PUSH1 0x1 PUSH1 0x1 PUSH1 0xA0 SHL SUB SWAP1 SWAP2 AND DUP2 MSTORE PUSH1 0x20 ADD JUMPDEST PUSH1 0x40 MLOAD DUP1 SWAP2 SUB SWAP1 RETURN JUMPDEST PUSH2 0x148 PUSH2 0x143 CALLDATASIZE PUSH1 0x4 PUSH2 0x38B2 JUMP JUMPDEST PUSH2 0x25D JUMP JUMPDEST STOP JUMPDEST PUSH2 0x15D PUSH2 0x158 CALLDATASIZE PUSH1 0x4 PUSH2 0x38CF JUMP JUMPDEST PUSH2 0x2F7 JUMP JUMPDEST PUSH1 0x40 MLOAD PUSH2 0x12C SWAP2 SWAP1 PUSH2 0x3953 JUMP JUMPDEST PUSH1 0x40 MLOAD CHAINID DUP2 MSTORE PUSH1 0x20 ADD PUSH2 0x12C JUMP JUMPDEST PUSH1 0x67 SLOAD PUSH2 0x118 SWAP1 PUSH1 0x1 PUSH1 0x1 PUSH1 0xA0 SHL SUB AND DUP2 JUMP JUMPDEST PUSH2 0x19E PUSH2 0x199 CALLDATASIZE PUSH1 0x4 PUSH2 0x3A1E JUMP JUMPDEST PUSH2 0x4F9 JUMP JUMPDEST PUSH1 0x40 MLOAD PUSH2 0x12C SWAP3 SWAP2 SWAP1 PUSH2 0x3AB3 JUMP JUMPDEST PUSH2 0x148 PUSH2 0x517 JUMP JUMPDEST PUSH2 0x15D PUSH2 0x1C2 CALLDATASIZE PUSH1 0x4 PUSH2 0x3AF3 JUMP JUMPDEST PUSH2 0x52B JUMP JUMPDEST PUSH2 0x19E PUSH2 0x1D5 CALLDATASIZE PUSH1 0x4 PUSH2 0x3A1E JUMP JUMPDEST PUSH2 0x920 JUMP JUMPDEST PUSH1 0x33 SLOAD PUSH1 0x1 PUSH1 0x1 PUSH1 0xA0 SHL SUB AND PUSH2 0x118 JUMP JUMPDEST PUSH2 0x148 PUSH2 0x1F9 CALLDATASIZE PUSH1 0x4 PUSH2 0x38B2 JUMP JUMPDEST PUSH2 0x93F JUMP JUMPDEST PUSH2 0x15D PUSH2 0x20C CALLDATASIZE PUSH1 0x4 PUSH2 0x38CF JUMP JUMPDEST PUSH2 0x9D1 JUMP JUMPDEST PUSH2 0x148 PUSH2 0x21F CALLDATASIZE PUSH1 0x4 PUSH2 0x3B0C JUMP JUMPDEST PUSH2 0xE5E JUMP JUMPDEST PUSH2 0x148 PUSH2 0x232 CALLDATASIZE PUSH1 0x4 PUSH2 0x38B2 JUMP JUMPDEST PUSH2 0xFAF JUMP JUMPDEST PUSH2 0x148 PUSH2 0x245 CALLDATASIZE PUSH1 0x4 PUSH2 0x38B2 JUMP JUMPDEST PUSH2 0x1041 JUMP JUMPDEST PUSH1 0x66 SLOAD PUSH2 0x118 SWAP1 PUSH1 0x1 PUSH1 0x1 PUSH1 0xA0 SHL SUB AND DUP2 JUMP JUMPDEST PUSH1 0x65 SLOAD PUSH1 0x1 PUSH1 0x1 PUSH1 0xA0 SHL SUB AND CALLER EQ DUP1 ISZERO PUSH2 0x27F JUMPI POP PUSH1 0x1 PUSH1 0x1 PUSH1 0xA0 SHL SUB DUP2 AND ISZERO ISZERO JUMPDEST PUSH1 0x40 MLOAD DUP1 PUSH1 0x40 ADD PUSH1 0x40 MSTORE DUP1 PUSH1 0x3 DUP2 MSTORE PUSH1 0x20 ADD PUSH3 0x313031 PUSH1 0xE8 SHL DUP2 MSTORE POP SWAP1 PUSH2 0x2C2 JUMPI PUSH1 0x40 MLOAD PUSH3 0x461BCD PUSH1 0xE5 SHL DUP2 MSTORE PUSH1 0x4 ADD PUSH2 0x2B9 SWAP2 SWAP1 PUSH2 0x3953 JUMP JUMPDEST PUSH1 0x40 MLOAD DUP1 SWAP2 SUB SWAP1 REVERT JUMPDEST POP PUSH1 0x66 SLOAD PUSH1 0x1 PUSH1 0x1 PUSH1 0xA0 SHL SUB DUP3 DUP2 AND SWAP2 AND EQ PUSH2 0x2F4 JUMPI PUSH1 0x66 DUP1 SLOAD PUSH1 0x1 PUSH1 0x1 PUSH1 0xA0 SHL SUB NOT AND PUSH1 0x1 PUSH1 0x1 PUSH1 0xA0 SHL SUB DUP4 AND OR SWAP1 SSTORE JUMPDEST POP JUMP JUMPDEST PUSH1 0x67 SLOAD PUSH1 0x40 MLOAD PUSH4 0x46EC8D2B PUSH1 0xE1 SHL DUP2 MSTORE PUSH1 0x4 DUP2 ADD DUP6 SWAP1 MSTORE PUSH1 0x60 SWAP2 PUSH1 0x1 PUSH1 0x1 PUSH1 0xA0 SHL SUB AND SWAP1 PUSH1 0x0 SWAP1 DUP3 SWAP1 PUSH4 0x8DD91A56 SWAP1 PUSH1 0x24 ADD PUSH1 0x0 PUSH1 0x40 MLOAD DUP1 DUP4 SUB DUP2 DUP7 GAS STATICCALL ISZERO DUP1 ISZERO PUSH2 0x346 JUMPI RETURNDATASIZE PUSH1 0x0 DUP1 RETURNDATACOPY RETURNDATASIZE PUSH1 0x0 REVERT JUMPDEST POP POP POP POP PUSH1 0x40 MLOAD RETURNDATASIZE PUSH1 0x0 DUP3 RETURNDATACOPY PUSH1 0x1F RETURNDATASIZE SWAP1 DUP2 ADD PUSH1 0x1F NOT AND DUP3 ADD PUSH1 0x40 MSTORE PUSH2 0x36E SWAP2 SWAP1 DUP2 ADD SWAP1 PUSH2 0x3DAD JUMP JUMPDEST SWAP1 POP PUSH1 0x0 PUSH1 0x40 MLOAD DUP1 PUSH1 0x20 ADD PUSH1 0x40 MSTORE DUP1 PUSH1 0x0 DUP2 MSTORE POP SWAP1 POP PUSH1 0x60 PUSH1 0x0 DUP1 JUMPDEST DUP5 PUSH2 0x180 ADD MLOAD MLOAD DUP2 LT ISZERO PUSH2 0x4EB JUMPI PUSH1 0x0 DUP6 PUSH2 0x180 ADD MLOAD DUP3 DUP2 MLOAD DUP2 LT PUSH2 0x3B1 JUMPI PUSH2 0x3B1 PUSH2 0x400D JUMP JUMPDEST PUSH1 0x20 MUL PUSH1 0x20 ADD ADD MLOAD MLOAD GT ISZERO PUSH2 0x4D9 JUMPI ADDRESS PUSH1 0x1 PUSH1 0x1 PUSH1 0xA0 SHL SUB AND PUSH4 0x6E973CF2 DUP7 PUSH2 0x180 ADD MLOAD DUP4 DUP2 MLOAD DUP2 LT PUSH2 0x3E6 JUMPI PUSH2 0x3E6 PUSH2 0x400D JUMP JUMPDEST PUSH1 0x20 MUL PUSH1 0x20 ADD ADD MLOAD PUSH1 0x40 MLOAD DUP3 PUSH4 0xFFFFFFFF AND PUSH1 0xE0 SHL DUP2 MSTORE PUSH1 0x4 ADD PUSH2 0x40A SWAP2 SWAP1 PUSH2 0x3953 JUMP JUMPDEST PUSH1 0x0 PUSH1 0x40 MLOAD DUP1 DUP4 SUB DUP2 DUP7 GAS STATICCALL ISZERO DUP1 ISZERO PUSH2 0x427 JUMPI RETURNDATASIZE PUSH1 0x0 DUP1 RETURNDATACOPY RETURNDATASIZE PUSH1 0x0 REVERT JUMPDEST POP POP POP POP PUSH1 0x40 MLOAD RETURNDATASIZE PUSH1 0x0 DUP3 RETURNDATACOPY PUSH1 0x1F RETURNDATASIZE SWAP1 DUP2 ADD PUSH1 0x1F NOT AND DUP3 ADD PUSH1 0x40 MSTORE PUSH2 0x44F SWAP2 SWAP1 DUP2 ADD SWAP1 PUSH2 0x4023 JUMP JUMPDEST SWAP1 SWAP4 POP SWAP2 POP PUSH1 0x0 DUP3 PUSH1 0xE DUP2 GT ISZERO PUSH2 0x468 JUMPI PUSH2 0x468 PUSH2 0x3A9D JUMP JUMPDEST EQ PUSH2 0x4B4 JUMPI DUP4 DUP6 PUSH2 0x180 ADD MLOAD DUP3 DUP2 MLOAD DUP2 LT PUSH2 0x485 JUMPI PUSH2 0x485 PUSH2 0x400D JUMP JUMPDEST PUSH1 0x20 MUL PUSH1 0x20 ADD ADD MLOAD PUSH1 0x40 MLOAD PUSH1 0x20 ADD PUSH2 0x49E SWAP3 SWAP2 SWAP1 PUSH2 0x4094 JUMP JUMPDEST PUSH1 0x40 MLOAD PUSH1 0x20 DUP2 DUP4 SUB SUB DUP2 MSTORE SWAP1 PUSH1 0x40 MSTORE SWAP4 POP PUSH2 0x4D9 JUMP JUMPDEST DUP4 DUP4 PUSH1 0x40 MLOAD PUSH1 0x20 ADD PUSH2 0x4C7 SWAP3 SWAP2 SWAP1 PUSH2 0x4094 JUMP JUMPDEST PUSH1 0x40 MLOAD PUSH1 0x20 DUP2 DUP4 SUB SUB DUP2 MSTORE SWAP1 PUSH1 0x40 MSTORE SWAP4 POP JUMPDEST DUP1 PUSH2 0x4E3 DUP2 PUSH2 0x40D9 JUMP JUMPDEST SWAP2 POP POP PUSH2 0x38A JUMP JUMPDEST POP SWAP2 SWAP9 SWAP8 POP POP POP POP POP POP POP POP JUMP JUMPDEST PUSH1 0x60 PUSH1 0x0 PUSH2 0x50E PUSH2 0x509 DUP5 PUSH2 0x10B7 JUMP JUMPDEST PUSH2 0x1229 JUMP JUMPDEST SWAP2 POP SWAP2 POP SWAP2 POP SWAP2 JUMP JUMPDEST PUSH2 0x51F PUSH2 0x137F JUMP JUMPDEST PUSH2 0x529 PUSH1 0x0 PUSH2 0x13D9 JUMP JUMPDEST JUMP JUMPDEST PUSH1 0x60 PUSH2 0x587 PUSH1 0x40 MLOAD DUP1 PUSH2 0x100 ADD PUSH1 0x40 MSTORE DUP1 PUSH1 0x60 DUP2 MSTORE PUSH1 0x20 ADD PUSH1 0x0 PUSH1 0x1 PUSH1 0x1 PUSH1 0xA0 SHL SUB AND DUP2 MSTORE PUSH1 0x20 ADD PUSH1 0x60 DUP2 MSTORE PUSH1 0x20 ADD PUSH1 0x60 DUP2 MSTORE PUSH1 0x20 ADD PUSH1 0x60 DUP2 MSTORE PUSH1 0x20 ADD PUSH1 0x60 DUP2 MSTORE PUSH1 0x20 ADD PUSH1 0x0 PUSH1 0x1 PUSH1 0x1 PUSH1 0xA0 SHL SUB AND DUP2 MSTORE PUSH1 0x20 ADD PUSH1 0x60 DUP2 MSTORE POP SWAP1 JUMP JUMPDEST PUSH1 0x67 SLOAD PUSH1 0x40 MLOAD PUSH4 0x46EC8D2B PUSH1 0xE1 SHL DUP2 MSTORE PUSH1 0x4 DUP2 ADD DUP6 SWAP1 MSTORE PUSH1 0x1 PUSH1 0x1 PUSH1 0xA0 SHL SUB SWAP1 SWAP2 AND SWAP1 PUSH1 0x0 SWAP1 DUP3 SWAP1 PUSH4 0x8DD91A56 SWAP1 PUSH1 0x24 ADD PUSH1 0x0 PUSH1 0x40 MLOAD DUP1 DUP4 SUB DUP2 DUP7 GAS STATICCALL ISZERO DUP1 ISZERO PUSH2 0x5D5 JUMPI RETURNDATASIZE PUSH1 0x0 DUP1 RETURNDATACOPY RETURNDATASIZE PUSH1 0x0 REVERT JUMPDEST POP POP POP POP PUSH1 0x40 MLOAD RETURNDATASIZE PUSH1 0x0 DUP3 RETURNDATACOPY PUSH1 0x1F RETURNDATASIZE SWAP1 DUP2 ADD PUSH1 0x1F NOT AND DUP3 ADD PUSH1 0x40 MSTORE PUSH2 0x5FD SWAP2 SWAP1 DUP2 ADD SWAP1 PUSH2 0x3DAD JUMP JUMPDEST SWAP1 POP PUSH1 0x0 PUSH2 0x60E PUSH3 0xF4240 DUP8 PUSH2 0x40F4 JUMP JUMPDEST SWAP1 POP PUSH1 0x0 ADDRESS PUSH1 0x1 PUSH1 0x1 PUSH1 0xA0 SHL SUB AND PUSH4 0x31C7280C DUP9 DUP5 DUP6 PUSH1 0x40 MLOAD PUSH1 0x20 ADD PUSH2 0x636 SWAP2 DUP2 MSTORE PUSH1 0x20 ADD SWAP1 JUMP JUMPDEST PUSH1 0x40 MLOAD PUSH1 0x20 DUP2 DUP4 SUB SUB DUP2 MSTORE SWAP1 PUSH1 0x40 MSTORE DUP1 MLOAD SWAP1 PUSH1 0x20 ADD KECCAK256 PUSH1 0x40 MLOAD DUP5 PUSH4 0xFFFFFFFF AND PUSH1 0xE0 SHL DUP2 MSTORE PUSH1 0x4 ADD PUSH2 0x67B SWAP4 SWAP3 SWAP2 SWAP1 SWAP3 DUP4 MSTORE PUSH1 0x20 DUP4 ADD SWAP2 SWAP1 SWAP2 MSTORE PUSH1 0x40 DUP3 ADD MSTORE PUSH1 0x60 ADD SWAP1 JUMP JUMPDEST PUSH1 0x0 PUSH1 0x40 MLOAD DUP1 DUP4 SUB DUP2 DUP7 GAS STATICCALL ISZERO DUP1 ISZERO PUSH2 0x698 JUMPI RETURNDATASIZE PUSH1 0x0 DUP1 RETURNDATACOPY RETURNDATASIZE PUSH1 0x0 REVERT JUMPDEST POP POP POP POP PUSH1 0x40 MLOAD RETURNDATASIZE PUSH1 0x0 DUP3 RETURNDATACOPY PUSH1 0x1F RETURNDATASIZE SWAP1 DUP2 ADD PUSH1 0x1F NOT AND DUP3 ADD PUSH1 0x40 MSTORE PUSH2 0x6C0 SWAP2 SWAP1 DUP2 ADD SWAP1 PUSH2 0x4113 JUMP JUMPDEST DUP1 MLOAD SWAP1 SWAP2 POP ISZERO PUSH2 0x714 JUMPI PUSH2 0x6F2 DUP2 PUSH1 0x40 MLOAD PUSH1 0x20 ADD PUSH2 0x6DE SWAP2 SWAP1 PUSH2 0x4147 JUMP JUMPDEST PUSH1 0x40 MLOAD PUSH1 0x20 DUP2 DUP4 SUB SUB DUP2 MSTORE SWAP1 PUSH1 0x40 MSTORE PUSH2 0x142B JUMP JUMPDEST PUSH1 0x40 MLOAD PUSH1 0x20 ADD PUSH2 0x702 SWAP2 SWAP1 PUSH2 0x4163 JUMP JUMPDEST PUSH1 0x40 MLOAD PUSH1 0x20 DUP2 DUP4 SUB SUB DUP2 MSTORE SWAP1 PUSH1 0x40 MSTORE SWAP1 POP JUMPDEST PUSH1 0x0 DUP2 PUSH1 0x40 MLOAD PUSH1 0x20 ADD PUSH2 0x727 SWAP2 SWAP1 PUSH2 0x41A1 JUMP JUMPDEST PUSH1 0x40 MLOAD PUSH1 0x20 DUP2 DUP4 SUB SUB DUP2 MSTORE SWAP1 PUSH1 0x40 MSTORE SWAP1 POP DUP4 PUSH1 0x80 ADD MLOAD PUSH2 0x746 DUP10 PUSH2 0x1590 JUMP JUMPDEST PUSH1 0x40 MLOAD PUSH1 0x20 ADD PUSH2 0x757 SWAP3 SWAP2 SWAP1 PUSH2 0x41E8 JUMP JUMPDEST PUSH1 0x40 DUP1 MLOAD PUSH1 0x1F NOT DUP2 DUP5 SUB ADD DUP2 MSTORE SWAP2 DUP2 MSTORE DUP8 ADD MSTORE PUSH2 0x100 DUP5 ADD MLOAD PUSH1 0x80 DUP8 ADD DUP2 SWAP1 MSTORE PUSH1 0x60 SWAP1 PUSH1 0x0 SWAP1 PUSH2 0x786 SWAP1 PUSH2 0x4F9 JUMP JUMPDEST SWAP1 SWAP3 POP SWAP1 POP PUSH1 0x0 DUP2 PUSH1 0xE DUP2 GT ISZERO PUSH2 0x79F JUMPI PUSH2 0x79F PUSH2 0x3A9D JUMP JUMPDEST EQ ISZERO PUSH2 0x7AD JUMPI PUSH1 0x80 DUP9 ADD DUP3 SWAP1 MSTORE JUMPDEST PUSH2 0x120 DUP7 ADD MLOAD PUSH1 0x60 DUP10 ADD MSTORE PUSH1 0xA0 DUP1 DUP10 ADD DUP5 SWAP1 MSTORE PUSH2 0x1E0 DUP8 ADD MLOAD PUSH1 0x1 PUSH1 0x1 PUSH1 0xA0 SHL SUB SWAP1 DUP2 AND PUSH1 0xC0 DUP1 DUP13 ADD SWAP2 SWAP1 SWAP2 MSTORE DUP9 ADD MLOAD AND PUSH1 0x20 DUP1 DUP12 ADD SWAP2 SWAP1 SWAP2 MSTORE SWAP1 DUP8 ADD MLOAD DUP10 MSTORE PUSH1 0x40 DUP1 MLOAD SWAP2 DUP3 ADD SWAP1 MSTORE PUSH1 0x0 DUP1 DUP3 MSTORE JUMPDEST DUP8 PUSH2 0x160 ADD MLOAD MLOAD DUP2 PUSH1 0xFF AND LT ISZERO PUSH2 0x87C JUMPI DUP2 PUSH2 0x824 PUSH2 0x81C DUP4 PUSH1 0x1 PUSH2 0x4225 JUMP JUMPDEST PUSH1 0xFF AND PUSH2 0x1590 JUMP JUMPDEST DUP10 PUSH2 0x160 ADD MLOAD DUP4 PUSH1 0xFF AND DUP2 MLOAD DUP2 LT PUSH2 0x83E JUMPI PUSH2 0x83E PUSH2 0x400D JUMP JUMPDEST PUSH1 0x20 MUL PUSH1 0x20 ADD ADD MLOAD PUSH1 0x40 MLOAD PUSH1 0x20 ADD PUSH2 0x858 SWAP4 SWAP3 SWAP2 SWAP1 PUSH2 0x424A JUMP JUMPDEST PUSH1 0x40 MLOAD PUSH1 0x20 DUP2 DUP4 SUB SUB DUP2 MSTORE SWAP1 PUSH1 0x40 MSTORE SWAP2 POP DUP1 DUP1 PUSH2 0x874 SWAP1 PUSH2 0x42D8 JUMP JUMPDEST SWAP2 POP POP PUSH2 0x7FC JUMP JUMPDEST POP PUSH2 0x88A DUP10 PUSH1 0xC0 ADD MLOAD PUSH2 0x1624 JUMP JUMPDEST DUP10 MLOAD PUSH1 0x20 DUP12 ADD MLOAD PUSH2 0x89A SWAP1 PUSH2 0x1624 JUMP JUMPDEST DUP10 PUSH1 0xE0 ADD MLOAD DUP5 PUSH1 0x40 MLOAD PUSH1 0x20 ADD PUSH2 0x8B4 SWAP6 SWAP5 SWAP4 SWAP3 SWAP2 SWAP1 PUSH2 0x42F8 JUMP JUMPDEST PUSH1 0x40 DUP1 MLOAD PUSH1 0x1F NOT DUP2 DUP5 SUB ADD DUP2 MSTORE SWAP2 DUP2 MSTORE PUSH1 0xE0 DUP12 ADD DUP3 SWAP1 MSTORE DUP11 DUP2 ADD MLOAD PUSH1 0x80 DUP13 ADD MLOAD PUSH1 0x60 DUP14 ADD MLOAD PUSH1 0xA0 DUP15 ADD MLOAD SWAP4 MLOAD PUSH2 0x8F1 SWAP6 PUSH2 0x6DE SWAP6 SWAP2 PUSH1 0x20 ADD PUSH2 0x4479 JUMP JUMPDEST PUSH1 0x40 MLOAD PUSH1 0x20 ADD PUSH2 0x901 SWAP2 SWAP1 PUSH2 0x455E JUMP JUMPDEST PUSH1 0x40 MLOAD PUSH1 0x20 DUP2 DUP4 SUB SUB DUP2 MSTORE SWAP1 PUSH1 0x40 MSTORE SWAP10 POP POP POP POP POP POP POP POP POP POP SWAP2 SWAP1 POP JUMP JUMPDEST PUSH1 0x60 PUSH1 0x0 PUSH2 0x50E PUSH2 0x199 PUSH1 0x9 DUP1 DUP7 MLOAD PUSH2 0x939 SWAP2 SWAP1 PUSH2 0x45A3 JUMP JUMPDEST DUP7 PUSH2 0x1640 JUMP JUMPDEST PUSH1 0x65 SLOAD PUSH1 0x1 PUSH1 0x1 PUSH1 0xA0 SHL SUB AND CALLER EQ DUP1 ISZERO PUSH2 0x961 JUMPI POP PUSH1 0x1 PUSH1 0x1 PUSH1 0xA0 SHL SUB DUP2 AND ISZERO ISZERO JUMPDEST PUSH1 0x40 MLOAD DUP1 PUSH1 0x40 ADD PUSH1 0x40 MSTORE DUP1 PUSH1 0x3 DUP2 MSTORE PUSH1 0x20 ADD PUSH3 0x313031 PUSH1 0xE8 SHL DUP2 MSTORE POP SWAP1 PUSH2 0x99B JUMPI PUSH1 0x40 MLOAD PUSH3 0x461BCD PUSH1 0xE5 SHL DUP2 MSTORE PUSH1 0x4 ADD PUSH2 0x2B9 SWAP2 SWAP1 PUSH2 0x3953 JUMP JUMPDEST POP PUSH1 0x65 SLOAD PUSH1 0x1 PUSH1 0x1 PUSH1 0xA0 SHL SUB DUP3 DUP2 AND SWAP2 AND EQ PUSH2 0x2F4 JUMPI PUSH1 0x65 DUP1 SLOAD PUSH1 0x1 PUSH1 0x1 PUSH1 0xA0 SHL SUB DUP4 AND PUSH1 0x1 PUSH1 0x1 PUSH1 0xA0 SHL SUB NOT SWAP1 SWAP2 AND OR SWAP1 SSTORE POP JUMP JUMPDEST PUSH1 0x66 SLOAD PUSH1 0x67 SLOAD PUSH1 0x40 MLOAD PUSH4 0x46EC8D2B PUSH1 0xE1 SHL DUP2 MSTORE PUSH1 0x4 DUP2 ADD DUP7 SWAP1 MSTORE PUSH1 0x60 SWAP3 PUSH1 0x1 PUSH1 0x1 PUSH1 0xA0 SHL SUB SWAP1 DUP2 AND SWAP3 AND SWAP1 PUSH1 0x0 SWAP1 DUP3 SWAP1 PUSH4 0x8DD91A56 SWAP1 PUSH1 0x24 ADD PUSH1 0x0 PUSH1 0x40 MLOAD DUP1 DUP4 SUB DUP2 DUP7 GAS STATICCALL ISZERO DUP1 ISZERO PUSH2 0xA27 JUMPI RETURNDATASIZE PUSH1 0x0 DUP1 RETURNDATACOPY RETURNDATASIZE PUSH1 0x0 REVERT JUMPDEST POP POP POP POP PUSH1 0x40 MLOAD RETURNDATASIZE PUSH1 0x0 DUP3 RETURNDATACOPY PUSH1 0x1F RETURNDATASIZE SWAP1 DUP2 ADD PUSH1 0x1F NOT AND DUP3 ADD PUSH1 0x40 MSTORE PUSH2 0xA4F SWAP2 SWAP1 DUP2 ADD SWAP1 PUSH2 0x3DAD JUMP JUMPDEST PUSH1 0x40 MLOAD PUSH4 0xC71CA03 PUSH1 0xE2 SHL DUP2 MSTORE PUSH1 0x4 DUP2 ADD DUP10 SWAP1 MSTORE PUSH1 0x24 DUP2 ADD DUP9 SWAP1 MSTORE PUSH1 0x44 DUP2 ADD DUP8 SWAP1 MSTORE SWAP1 SWAP2 POP PUSH1 0x0 SWAP1 ADDRESS SWAP1 PUSH4 0x31C7280C SWAP1 PUSH1 0x64 ADD PUSH1 0x0 PUSH1 0x40 MLOAD DUP1 DUP4 SUB DUP2 DUP7 GAS STATICCALL ISZERO DUP1 ISZERO PUSH2 0xA9F JUMPI RETURNDATASIZE PUSH1 0x0 DUP1 RETURNDATACOPY RETURNDATASIZE PUSH1 0x0 REVERT JUMPDEST POP POP POP POP PUSH1 0x40 MLOAD RETURNDATASIZE PUSH1 0x0 DUP3 RETURNDATACOPY PUSH1 0x1F RETURNDATASIZE SWAP1 DUP2 ADD PUSH1 0x1F NOT AND DUP3 ADD PUSH1 0x40 MSTORE PUSH2 0xAC7 SWAP2 SWAP1 DUP2 ADD SWAP1 PUSH2 0x4113 JUMP JUMPDEST DUP1 MLOAD SWAP1 SWAP2 POP ISZERO PUSH2 0xB0B JUMPI PUSH2 0xAE5 DUP2 PUSH1 0x40 MLOAD PUSH1 0x20 ADD PUSH2 0x6DE SWAP2 SWAP1 PUSH2 0x4147 JUMP JUMPDEST PUSH1 0x40 MLOAD PUSH1 0x20 ADD PUSH2 0xAF5 SWAP2 SWAP1 PUSH2 0x4163 JUMP JUMPDEST PUSH1 0x40 MLOAD PUSH1 0x20 DUP2 DUP4 SUB SUB DUP2 MSTORE SWAP1 PUSH1 0x40 MSTORE SWAP1 POP PUSH2 0xC38 JUMP JUMPDEST ADDRESS PUSH1 0x1 PUSH1 0x1 PUSH1 0xA0 SHL SUB AND PUSH4 0x564B81EF PUSH1 0x40 MLOAD DUP2 PUSH4 0xFFFFFFFF AND PUSH1 0xE0 SHL DUP2 MSTORE PUSH1 0x4 ADD PUSH1 0x20 PUSH1 0x40 MLOAD DUP1 DUP4 SUB DUP2 DUP7 GAS STATICCALL ISZERO DUP1 ISZERO PUSH2 0xB49 JUMPI RETURNDATASIZE PUSH1 0x0 DUP1 RETURNDATACOPY RETURNDATASIZE PUSH1 0x0 REVERT JUMPDEST POP POP POP POP PUSH1 0x40 MLOAD RETURNDATASIZE PUSH1 0x1F NOT PUSH1 0x1F DUP3 ADD AND DUP3 ADD DUP1 PUSH1 0x40 MSTORE POP DUP2 ADD SWAP1 PUSH2 0xB6D SWAP2 SWAP1 PUSH2 0x45BA JUMP JUMPDEST PUSH1 0x40 DUP1 MLOAD DUP1 DUP3 ADD DUP3 MSTORE PUSH1 0xB DUP2 MSTORE PUSH11 0x4246535F41444452455353 PUSH1 0xA8 SHL PUSH1 0x20 DUP3 ADD MSTORE SWAP1 MLOAD PUSH4 0xBF40FAC1 PUSH1 0xE0 SHL DUP2 MSTORE PUSH1 0x1 PUSH1 0x1 PUSH1 0xA0 SHL SUB DUP8 AND SWAP2 PUSH4 0xBF40FAC1 SWAP2 PUSH2 0xBB8 SWAP2 SWAP1 PUSH1 0x4 ADD PUSH2 0x3953 JUMP JUMPDEST PUSH1 0x20 PUSH1 0x40 MLOAD DUP1 DUP4 SUB DUP2 DUP7 GAS STATICCALL ISZERO DUP1 ISZERO PUSH2 0xBD5 JUMPI RETURNDATASIZE PUSH1 0x0 DUP1 RETURNDATACOPY RETURNDATASIZE PUSH1 0x0 REVERT JUMPDEST POP POP POP POP PUSH1 0x40 MLOAD RETURNDATASIZE PUSH1 0x1F NOT PUSH1 0x1F DUP3 ADD AND DUP3 ADD DUP1 PUSH1 0x40 MSTORE POP DUP2 ADD SWAP1 PUSH2 0xBF9 SWAP2 SWAP1 PUSH2 0x45D3 JUMP JUMPDEST PUSH2 0xC02 CALLER PUSH2 0x1624 JUMP JUMPDEST PUSH2 0xC0B DUP10 PUSH2 0x1726 JUMP JUMPDEST PUSH1 0x40 MLOAD PUSH1 0x20 ADD PUSH2 0xC1E SWAP5 SWAP4 SWAP3 SWAP2 SWAP1 PUSH2 0x45F0 JUMP JUMPDEST PUSH1 0x40 MLOAD PUSH1 0x20 DUP2 DUP4 SUB SUB DUP2 MSTORE SWAP1 PUSH1 0x40 MSTORE SWAP5 POP POP POP POP POP PUSH2 0xE57 JUMP JUMPDEST PUSH2 0xC6A PUSH1 0x40 MLOAD DUP1 PUSH1 0xA0 ADD PUSH1 0x40 MSTORE DUP1 PUSH1 0x60 DUP2 MSTORE PUSH1 0x20 ADD PUSH1 0x60 DUP2 MSTORE PUSH1 0x20 ADD PUSH1 0x60 DUP2 MSTORE PUSH1 0x20 ADD PUSH1 0x60 DUP2 MSTORE PUSH1 0x20 ADD PUSH1 0x60 DUP2 MSTORE POP SWAP1 JUMP JUMPDEST DUP2 PUSH1 0x40 MLOAD PUSH1 0x20 ADD PUSH2 0xC7B SWAP2 SWAP1 PUSH2 0x41A1 JUMP JUMPDEST PUSH1 0x40 DUP1 MLOAD PUSH1 0x1F NOT DUP2 DUP5 SUB ADD DUP2 MSTORE SWAP2 DUP2 MSTORE PUSH1 0x60 DUP4 ADD SWAP2 SWAP1 SWAP2 MSTORE DUP1 MLOAD DUP1 DUP3 ADD DUP3 MSTORE PUSH1 0xE DUP2 MSTORE PUSH14 0x109054D157D5549257D514905255 PUSH1 0x92 SHL PUSH1 0x20 DUP3 ADD MSTORE SWAP1 MLOAD PUSH4 0x349F642F PUSH1 0xE1 SHL DUP2 MSTORE PUSH1 0x1 PUSH1 0x1 PUSH1 0xA0 SHL SUB DUP8 AND SWAP2 PUSH4 0x693EC85E SWAP2 PUSH2 0xCDF SWAP2 SWAP1 PUSH1 0x4 ADD PUSH2 0x3953 JUMP JUMPDEST PUSH1 0x0 PUSH1 0x40 MLOAD DUP1 DUP4 SUB DUP2 DUP7 GAS STATICCALL ISZERO DUP1 ISZERO PUSH2 0xCFC JUMPI RETURNDATASIZE PUSH1 0x0 DUP1 RETURNDATACOPY RETURNDATASIZE PUSH1 0x0 REVERT JUMPDEST POP POP POP POP PUSH1 0x40 MLOAD RETURNDATASIZE PUSH1 0x0 DUP3 RETURNDATACOPY PUSH1 0x1F RETURNDATASIZE SWAP1 DUP2 ADD PUSH1 0x1F NOT AND DUP3 ADD PUSH1 0x40 MSTORE PUSH2 0xD24 SWAP2 SWAP1 DUP2 ADD SWAP1 PUSH2 0x4113 JUMP JUMPDEST PUSH1 0x40 DUP3 ADD MSTORE PUSH1 0x80 DUP4 ADD MLOAD PUSH2 0xD37 DUP10 PUSH2 0x1590 JUMP JUMPDEST PUSH1 0x40 MLOAD PUSH1 0x20 ADD PUSH2 0xD48 SWAP3 SWAP2 SWAP1 PUSH2 0x41E8 JUMP JUMPDEST PUSH1 0x40 DUP1 MLOAD PUSH1 0x1F NOT DUP2 DUP5 SUB ADD DUP2 MSTORE SWAP2 SWAP1 MSTORE DUP2 MSTORE PUSH2 0x100 DUP4 ADD MLOAD PUSH1 0x20 DUP3 ADD MSTORE PUSH2 0x200 DUP4 ADD MLOAD MLOAD ISZERO PUSH2 0xD7D JUMPI PUSH2 0x200 DUP4 ADD MLOAD PUSH1 0x20 DUP3 ADD MSTORE JUMPDEST PUSH1 0x60 PUSH1 0x0 PUSH2 0xD8E DUP4 PUSH1 0x20 ADD MLOAD PUSH2 0x4F9 JUMP JUMPDEST SWAP1 SWAP3 POP SWAP1 POP PUSH1 0x0 DUP2 PUSH1 0xE DUP2 GT ISZERO PUSH2 0xDA7 JUMPI PUSH2 0xDA7 PUSH2 0x3A9D JUMP JUMPDEST EQ ISZERO PUSH2 0xDB5 JUMPI PUSH1 0x20 DUP4 ADD DUP3 SWAP1 MSTORE JUMPDEST PUSH1 0x40 DUP4 ADD MLOAD PUSH1 0x67 SLOAD PUSH2 0xDCF SWAP1 PUSH1 0x1 PUSH1 0x1 PUSH1 0xA0 SHL SUB AND PUSH2 0x1624 JUMP JUMPDEST PUSH2 0xDD8 DUP13 PUSH2 0x1590 JUMP JUMPDEST PUSH2 0xDE1 DUP13 PUSH2 0x1726 JUMP JUMPDEST PUSH1 0x40 MLOAD PUSH1 0x20 ADD PUSH2 0xDF4 SWAP5 SWAP4 SWAP3 SWAP2 SWAP1 PUSH2 0x466E JUMP JUMPDEST PUSH1 0x40 DUP1 MLOAD PUSH1 0x1F NOT DUP2 DUP5 SUB ADD DUP2 MSTORE SWAP2 DUP2 MSTORE DUP5 DUP2 ADD DUP3 SWAP1 MSTORE DUP5 MLOAD PUSH1 0x20 DUP7 DUP2 ADD MLOAD PUSH1 0x60 DUP9 ADD MLOAD SWAP4 MLOAD PUSH2 0xE2E SWAP6 PUSH2 0x6DE SWAP6 SWAP3 SWAP4 SWAP1 SWAP3 SWAP2 DUP4 SWAP2 ADD PUSH2 0x46F0 JUMP JUMPDEST PUSH1 0x40 MLOAD PUSH1 0x20 ADD PUSH2 0xE3E SWAP2 SWAP1 PUSH2 0x455E JUMP JUMPDEST PUSH1 0x40 MLOAD PUSH1 0x20 DUP2 DUP4 SUB SUB DUP2 MSTORE SWAP1 PUSH1 0x40 MSTORE SWAP8 POP POP POP POP POP POP POP POP JUMPDEST SWAP4 SWAP3 POP POP POP JUMP JUMPDEST PUSH1 0x0 SLOAD PUSH2 0x100 SWAP1 DIV PUSH1 0xFF AND ISZERO DUP1 DUP1 ISZERO PUSH2 0xE7E JUMPI POP PUSH1 0x0 SLOAD PUSH1 0x1 PUSH1 0xFF SWAP1 SWAP2 AND LT JUMPDEST DUP1 PUSH2 0xE98 JUMPI POP ADDRESS EXTCODESIZE ISZERO DUP1 ISZERO PUSH2 0xE98 JUMPI POP PUSH1 0x0 SLOAD PUSH1 0xFF AND PUSH1 0x1 EQ JUMPDEST PUSH2 0xEFB JUMPI PUSH1 0x40 MLOAD PUSH3 0x461BCD PUSH1 0xE5 SHL DUP2 MSTORE PUSH1 0x20 PUSH1 0x4 DUP3 ADD MSTORE PUSH1 0x2E PUSH1 0x24 DUP3 ADD MSTORE PUSH32 0x496E697469616C697A61626C653A20636F6E747261637420697320616C726561 PUSH1 0x44 DUP3 ADD MSTORE PUSH14 0x191E481A5B9A5D1A585B1A5E9959 PUSH1 0x92 SHL PUSH1 0x64 DUP3 ADD MSTORE PUSH1 0x84 ADD PUSH2 0x2B9 JUMP JUMPDEST PUSH1 0x0 DUP1 SLOAD PUSH1 0xFF NOT AND PUSH1 0x1 OR SWAP1 SSTORE DUP1 ISZERO PUSH2 0xF1E JUMPI PUSH1 0x0 DUP1 SLOAD PUSH2 0xFF00 NOT AND PUSH2 0x100 OR SWAP1 SSTORE JUMPDEST PUSH1 0x65 DUP1 SLOAD PUSH1 0x1 PUSH1 0x1 PUSH1 0xA0 SHL SUB DUP1 DUP8 AND PUSH1 0x1 PUSH1 0x1 PUSH1 0xA0 SHL SUB NOT SWAP3 DUP4 AND OR SWAP1 SWAP3 SSTORE PUSH1 0x66 DUP1 SLOAD DUP7 DUP5 AND SWAP1 DUP4 AND OR SWAP1 SSTORE PUSH1 0x67 DUP1 SLOAD SWAP3 DUP6 AND SWAP3 SWAP1 SWAP2 AND SWAP2 SWAP1 SWAP2 OR SWAP1 SSTORE PUSH2 0xF63 PUSH2 0x1772 JUMP JUMPDEST DUP1 ISZERO PUSH2 0xFA9 JUMPI PUSH1 0x0 DUP1 SLOAD PUSH2 0xFF00 NOT AND SWAP1 SSTORE PUSH1 0x40 MLOAD PUSH1 0x1 DUP2 MSTORE PUSH32 0x7F26B83FF96E1F2B6A682F133852F6798A09C465DA95921460CEFB3847402498 SWAP1 PUSH1 0x20 ADD PUSH1 0x40 MLOAD DUP1 SWAP2 SUB SWAP1 LOG1 JUMPDEST POP POP POP POP JUMP JUMPDEST PUSH1 0x65 SLOAD PUSH1 0x1 PUSH1 0x1 PUSH1 0xA0 SHL SUB AND CALLER EQ DUP1 ISZERO PUSH2 0xFD1 JUMPI POP PUSH1 0x1 PUSH1 0x1 PUSH1 0xA0 SHL SUB DUP2 AND ISZERO ISZERO JUMPDEST PUSH1 0x40 MLOAD DUP1 PUSH1 0x40 ADD PUSH1 0x40 MSTORE DUP1 PUSH1 0x3 DUP2 MSTORE PUSH1 0x20 ADD PUSH3 0x313031 PUSH1 0xE8 SHL DUP2 MSTORE POP SWAP1 PUSH2 0x100B JUMPI PUSH1 0x40 MLOAD PUSH3 0x461BCD PUSH1 0xE5 SHL DUP2 MSTORE PUSH1 0x4 ADD PUSH2 0x2B9 SWAP2 SWAP1 PUSH2 0x3953 JUMP JUMPDEST POP PUSH1 0x67 SLOAD PUSH1 0x1 PUSH1 0x1 PUSH1 0xA0 SHL SUB DUP3 DUP2 AND SWAP2 AND EQ PUSH2 0x2F4 JUMPI PUSH1 0x67 DUP1 SLOAD PUSH1 0x1 PUSH1 0x1 PUSH1 0xA0 SHL SUB DUP4 AND PUSH1 0x1 PUSH1 0x1 PUSH1 0xA0 SHL SUB NOT SWAP1 SWAP2 AND OR SWAP1 SSTORE POP JUMP JUMPDEST PUSH2 0x1049 PUSH2 0x137F JUMP JUMPDEST PUSH1 0x1 PUSH1 0x1 PUSH1 0xA0 SHL SUB DUP2 AND PUSH2 0x10AE JUMPI PUSH1 0x40 MLOAD PUSH3 0x461BCD PUSH1 0xE5 SHL DUP2 MSTORE PUSH1 0x20 PUSH1 0x4 DUP3 ADD MSTORE PUSH1 0x26 PUSH1 0x24 DUP3 ADD MSTORE PUSH32 0x4F776E61626C653A206E6577206F776E657220697320746865207A65726F2061 PUSH1 0x44 DUP3 ADD MSTORE PUSH6 0x646472657373 PUSH1 0xD0 SHL PUSH1 0x64 DUP3 ADD MSTORE PUSH1 0x84 ADD PUSH2 0x2B9 JUMP JUMPDEST PUSH2 0x2F4 DUP2 PUSH2 0x13D9 JUMP JUMPDEST DUP1 MLOAD PUSH1 0x60 SWAP1 DUP3 SWAP1 ISZERO DUP1 PUSH2 0x10D6 JUMPI POP PUSH1 0x4 DUP2 MLOAD PUSH2 0x10D3 SWAP2 SWAP1 PUSH2 0x4819 JUMP JUMPDEST ISZERO ISZERO JUMPDEST ISZERO PUSH2 0x10F5 JUMPI PUSH1 0x40 DUP1 MLOAD PUSH1 0x0 DUP1 DUP3 MSTORE PUSH1 0x20 DUP3 ADD SWAP1 SWAP3 MSTORE SWAP1 JUMPDEST POP SWAP4 SWAP3 POP POP POP JUMP JUMPDEST PUSH1 0x0 PUSH1 0x40 MLOAD DUP1 PUSH1 0xA0 ADD PUSH1 0x40 MSTORE DUP1 PUSH1 0x80 DUP2 MSTORE PUSH1 0x20 ADD PUSH2 0x48FC PUSH1 0x80 SWAP2 CODECOPY SWAP1 POP PUSH1 0x0 PUSH1 0x4 DUP4 MLOAD PUSH2 0x1122 SWAP2 SWAP1 PUSH2 0x482D JUMP JUMPDEST PUSH2 0x112D SWAP1 PUSH1 0x3 PUSH2 0x40F4 JUMP JUMPDEST SWAP1 POP PUSH1 0x0 PUSH2 0x113C DUP3 PUSH1 0x20 PUSH2 0x4841 JUMP JUMPDEST PUSH1 0x1 PUSH1 0x1 PUSH1 0x40 SHL SUB DUP2 GT ISZERO PUSH2 0x1153 JUMPI PUSH2 0x1153 PUSH2 0x3966 JUMP JUMPDEST PUSH1 0x40 MLOAD SWAP1 DUP1 DUP3 MSTORE DUP1 PUSH1 0x1F ADD PUSH1 0x1F NOT AND PUSH1 0x20 ADD DUP3 ADD PUSH1 0x40 MSTORE DUP1 ISZERO PUSH2 0x117D JUMPI PUSH1 0x20 DUP3 ADD DUP2 DUP1 CALLDATASIZE DUP4 CALLDATACOPY ADD SWAP1 POP JUMPDEST POP SWAP1 POP DUP4 MLOAD DUP5 ADD MLOAD PUSH1 0x3D PUSH1 0xFF DUP3 AND EQ ISZERO PUSH2 0x11AC JUMPI PUSH1 0x1 DUP4 SUB SWAP3 POP PUSH2 0x3D3D PUSH2 0xFFFF DUP3 AND EQ ISZERO PUSH2 0x11AC JUMPI PUSH1 0x1 DUP4 SUB SWAP3 POP JUMPDEST POP DUP2 DUP2 MSTORE PUSH1 0x1 DUP4 ADD DUP5 DUP6 MLOAD DUP2 ADD PUSH1 0x20 DUP5 ADD JUMPDEST DUP2 DUP4 LT ISZERO PUSH2 0x121B JUMPI PUSH1 0x4 DUP4 ADD SWAP3 POP DUP3 MLOAD PUSH1 0xFF DUP1 DUP3 AND DUP7 ADD MLOAD AND PUSH1 0xFF DUP1 DUP4 PUSH1 0x8 SHR AND DUP8 ADD MLOAD AND PUSH1 0x6 SHL ADD PUSH1 0xFF DUP1 DUP4 PUSH1 0x10 SHR AND DUP8 ADD MLOAD AND PUSH1 0xC SHL PUSH1 0xFF DUP1 DUP5 PUSH1 0x18 SHR AND DUP9 ADD MLOAD AND PUSH1 0x12 SHL ADD ADD SWAP1 POP DUP1 PUSH1 0xE8 SHL DUP3 MSTORE POP PUSH1 0x3 DUP2 ADD SWAP1 POP PUSH2 0x11BE JUMP JUMPDEST POP SWAP3 SWAP9 SWAP8 POP POP POP POP POP POP POP POP JUMP JUMPDEST PUSH1 0x60 PUSH1 0x0 PUSH1 0x60 PUSH2 0x1246 DUP5 DUP6 MLOAD PUSH1 0x5 PUSH2 0x1241 SWAP2 SWAP1 PUSH2 0x40F4 JUMP JUMPDEST PUSH2 0x17A1 JUMP JUMPDEST SWAP1 SWAP3 POP SWAP1 POP PUSH1 0x0 DUP3 PUSH1 0xE DUP2 GT ISZERO PUSH2 0x125F JUMPI PUSH2 0x125F PUSH2 0x3A9D JUMP JUMPDEST EQ ISZERO PUSH2 0x1366 JUMPI PUSH1 0x0 JUMPDEST DUP2 DUP2 DUP2 MLOAD DUP2 LT PUSH2 0x127A JUMPI PUSH2 0x127A PUSH2 0x400D JUMP JUMPDEST ADD PUSH1 0x20 ADD MLOAD PUSH1 0x1 PUSH1 0x1 PUSH1 0xF8 SHL SUB NOT AND PUSH2 0x1292 JUMPI PUSH2 0x12B2 JUMP JUMPDEST DUP1 PUSH2 0x129C DUP2 PUSH2 0x40D9 JUMP JUMPDEST SWAP2 POP POP DUP2 MLOAD DUP2 EQ ISZERO PUSH2 0x12AD JUMPI PUSH2 0x12B2 JUMP JUMPDEST PUSH2 0x1268 JUMP JUMPDEST PUSH1 0x0 DUP2 PUSH1 0x1 PUSH1 0x1 PUSH1 0x40 SHL SUB DUP2 GT ISZERO PUSH2 0x12CC JUMPI PUSH2 0x12CC PUSH2 0x3966 JUMP JUMPDEST PUSH1 0x40 MLOAD SWAP1 DUP1 DUP3 MSTORE DUP1 PUSH1 0x1F ADD PUSH1 0x1F NOT AND PUSH1 0x20 ADD DUP3 ADD PUSH1 0x40 MSTORE DUP1 ISZERO PUSH2 0x12F6 JUMPI PUSH1 0x20 DUP3 ADD DUP2 DUP1 CALLDATASIZE DUP4 CALLDATACOPY ADD SWAP1 POP JUMPDEST POP SWAP1 POP PUSH1 0x0 JUMPDEST DUP3 DUP2 LT ISZERO PUSH2 0x135C JUMPI DUP4 DUP2 DUP2 MLOAD DUP2 LT PUSH2 0x1316 JUMPI PUSH2 0x1316 PUSH2 0x400D JUMP JUMPDEST PUSH1 0x20 ADD ADD MLOAD PUSH1 0xF8 SHR PUSH1 0xF8 SHL DUP3 DUP3 DUP2 MLOAD DUP2 LT PUSH2 0x1333 JUMPI PUSH2 0x1333 PUSH2 0x400D JUMP JUMPDEST PUSH1 0x20 ADD ADD SWAP1 PUSH1 0x1 PUSH1 0x1 PUSH1 0xF8 SHL SUB NOT AND SWAP1 DUP2 PUSH1 0x0 BYTE SWAP1 MSTORE8 POP DUP1 PUSH2 0x1354 DUP2 PUSH2 0x40D9 JUMP JUMPDEST SWAP2 POP POP PUSH2 0x12FC JUMP JUMPDEST POP SWAP4 POP PUSH2 0x1379 SWAP1 POP JUMP JUMPDEST PUSH1 0x40 MLOAD DUP1 PUSH1 0x20 ADD PUSH1 0x40 MSTORE DUP1 PUSH1 0x0 DUP2 MSTORE POP SWAP3 POP JUMPDEST POP SWAP2 POP SWAP2 JUMP JUMPDEST PUSH1 0x33 SLOAD PUSH1 0x1 PUSH1 0x1 PUSH1 0xA0 SHL SUB AND CALLER EQ PUSH2 0x529 JUMPI PUSH1 0x40 MLOAD PUSH3 0x461BCD PUSH1 0xE5 SHL DUP2 MSTORE PUSH1 0x20 PUSH1 0x4 DUP3 ADD DUP2 SWAP1 MSTORE PUSH1 0x24 DUP3 ADD MSTORE PUSH32 0x4F776E61626C653A2063616C6C6572206973206E6F7420746865206F776E6572 PUSH1 0x44 DUP3 ADD MSTORE PUSH1 0x64 ADD PUSH2 0x2B9 JUMP JUMPDEST PUSH1 0x33 DUP1 SLOAD PUSH1 0x1 PUSH1 0x1 PUSH1 0xA0 SHL SUB DUP4 DUP2 AND PUSH1 0x1 PUSH1 0x1 PUSH1 0xA0 SHL SUB NOT DUP4 AND DUP2 OR SWAP1 SWAP4 SSTORE PUSH1 0x40 MLOAD SWAP2 AND SWAP2 SWAP1 DUP3 SWAP1 PUSH32 0x8BE0079C531659141344CD1FD0A4F28419497F9722A3DAAFE3B4186F6B6457E0 SWAP1 PUSH1 0x0 SWAP1 LOG3 POP POP JUMP JUMPDEST PUSH1 0x60 DUP2 MLOAD PUSH1 0x0 EQ ISZERO PUSH2 0x144B JUMPI POP POP PUSH1 0x40 DUP1 MLOAD PUSH1 0x20 DUP2 ADD SWAP1 SWAP2 MSTORE PUSH1 0x0 DUP2 MSTORE SWAP1 JUMP JUMPDEST PUSH1 0x0 PUSH1 0x40 MLOAD DUP1 PUSH1 0x60 ADD PUSH1 0x40 MSTORE DUP1 PUSH1 0x40 DUP2 MSTORE PUSH1 0x20 ADD PUSH2 0x48BC PUSH1 0x40 SWAP2 CODECOPY SWAP1 POP PUSH1 0x0 PUSH1 0x3 DUP5 MLOAD PUSH1 0x2 PUSH2 0x147A SWAP2 SWAP1 PUSH2 0x4841 JUMP JUMPDEST PUSH2 0x1484 SWAP2 SWAP1 PUSH2 0x482D JUMP JUMPDEST PUSH2 0x148F SWAP1 PUSH1 0x4 PUSH2 0x40F4 JUMP JUMPDEST SWAP1 POP PUSH1 0x0 PUSH2 0x149E DUP3 PUSH1 0x20 PUSH2 0x4841 JUMP JUMPDEST PUSH1 0x1 PUSH1 0x1 PUSH1 0x40 SHL SUB DUP2 GT ISZERO PUSH2 0x14B5 JUMPI PUSH2 0x14B5 PUSH2 0x3966 JUMP JUMPDEST PUSH1 0x40 MLOAD SWAP1 DUP1 DUP3 MSTORE DUP1 PUSH1 0x1F ADD PUSH1 0x1F NOT AND PUSH1 0x20 ADD DUP3 ADD PUSH1 0x40 MSTORE DUP1 ISZERO PUSH2 0x14DF JUMPI PUSH1 0x20 DUP3 ADD DUP2 DUP1 CALLDATASIZE DUP4 CALLDATACOPY ADD SWAP1 POP JUMPDEST POP SWAP1 POP DUP2 DUP2 MSTORE PUSH1 0x1 DUP4 ADD DUP6 DUP7 MLOAD DUP2 ADD PUSH1 0x20 DUP5 ADD JUMPDEST DUP2 DUP4 LT ISZERO PUSH2 0x154B JUMPI PUSH1 0x3 DUP4 ADD SWAP3 POP DUP3 MLOAD PUSH1 0x3F DUP2 PUSH1 0x12 SHR AND DUP6 ADD MLOAD DUP3 MSTORE8 PUSH1 0x1 DUP3 ADD SWAP2 POP PUSH1 0x3F DUP2 PUSH1 0xC SHR AND DUP6 ADD MLOAD DUP3 MSTORE8 PUSH1 0x1 DUP3 ADD SWAP2 POP PUSH1 0x3F DUP2 PUSH1 0x6 SHR AND DUP6 ADD MLOAD DUP3 MSTORE8 PUSH1 0x1 DUP3 ADD SWAP2 POP PUSH1 0x3F DUP2 AND DUP6 ADD MLOAD DUP3 MSTORE8 POP PUSH1 0x1 ADD PUSH2 0x14F3 JUMP JUMPDEST PUSH1 0x3 DUP10 MLOAD MOD PUSH1 0x1 DUP2 EQ PUSH2 0x1565 JUMPI PUSH1 0x2 DUP2 EQ PUSH2 0x1576 JUMPI PUSH2 0x1582 JUMP JUMPDEST PUSH2 0x3D3D PUSH1 0xF0 SHL PUSH1 0x1 NOT DUP4 ADD MSTORE PUSH2 0x1582 JUMP JUMPDEST PUSH1 0x3D PUSH1 0xF8 SHL PUSH1 0x0 NOT DUP4 ADD MSTORE JUMPDEST POP SWAP4 SWAP9 SWAP8 POP POP POP POP POP POP POP POP JUMP JUMPDEST PUSH1 0x60 PUSH1 0x0 PUSH2 0x159D DUP4 PUSH2 0x1A52 JUMP JUMPDEST PUSH1 0x1 ADD SWAP1 POP PUSH1 0x0 DUP2 PUSH1 0x1 PUSH1 0x1 PUSH1 0x40 SHL SUB DUP2 GT ISZERO PUSH2 0x15BC JUMPI PUSH2 0x15BC PUSH2 0x3966 JUMP JUMPDEST PUSH1 0x40 MLOAD SWAP1 DUP1 DUP3 MSTORE DUP1 PUSH1 0x1F ADD PUSH1 0x1F NOT AND PUSH1 0x20 ADD DUP3 ADD PUSH1 0x40 MSTORE DUP1 ISZERO PUSH2 0x15E6 JUMPI PUSH1 0x20 DUP3 ADD DUP2 DUP1 CALLDATASIZE DUP4 CALLDATACOPY ADD SWAP1 POP JUMPDEST POP SWAP1 POP DUP2 DUP2 ADD PUSH1 0x20 ADD JUMPDEST PUSH1 0x0 NOT ADD PUSH16 0x181899199A1A9B1B9C1CB0B131B232B3 PUSH1 0x81 SHL PUSH1 0xA DUP7 MOD BYTE DUP2 MSTORE8 PUSH1 0xA DUP6 DIV SWAP5 POP DUP5 PUSH2 0x161F JUMPI PUSH2 0x10ED JUMP JUMPDEST PUSH2 0x15F0 JUMP JUMPDEST PUSH1 0x60 PUSH2 0x163A PUSH1 0x1 PUSH1 0x1 PUSH1 0xA0 SHL SUB DUP4 AND PUSH1 0x14 PUSH2 0x1B2A JUMP JUMPDEST SWAP3 SWAP2 POP POP JUMP JUMPDEST PUSH1 0x60 PUSH1 0x0 PUSH2 0x164E DUP6 DUP6 PUSH2 0x45A3 JUMP JUMPDEST PUSH2 0x1659 SWAP1 PUSH1 0x1 PUSH2 0x4841 JUMP JUMPDEST PUSH1 0x1 PUSH1 0x1 PUSH1 0x40 SHL SUB DUP2 GT ISZERO PUSH2 0x1670 JUMPI PUSH2 0x1670 PUSH2 0x3966 JUMP JUMPDEST PUSH1 0x40 MLOAD SWAP1 DUP1 DUP3 MSTORE DUP1 PUSH1 0x1F ADD PUSH1 0x1F NOT AND PUSH1 0x20 ADD DUP3 ADD PUSH1 0x40 MSTORE DUP1 ISZERO PUSH2 0x169A JUMPI PUSH1 0x20 DUP3 ADD DUP2 DUP1 CALLDATASIZE DUP4 CALLDATACOPY ADD SWAP1 POP JUMPDEST POP SWAP1 POP PUSH1 0x0 JUMPDEST PUSH2 0x16AA DUP7 DUP7 PUSH2 0x45A3 JUMP JUMPDEST DUP2 GT PUSH2 0x171D JUMPI DUP4 PUSH1 0x1 PUSH2 0x16BD DUP9 DUP5 PUSH2 0x4841 JUMP JUMPDEST PUSH2 0x16C7 SWAP2 SWAP1 PUSH2 0x45A3 JUMP JUMPDEST DUP2 MLOAD DUP2 LT PUSH2 0x16D7 JUMPI PUSH2 0x16D7 PUSH2 0x400D JUMP JUMPDEST PUSH1 0x20 ADD ADD MLOAD PUSH1 0xF8 SHR PUSH1 0xF8 SHL DUP3 DUP3 DUP2 MLOAD DUP2 LT PUSH2 0x16F4 JUMPI PUSH2 0x16F4 PUSH2 0x400D JUMP JUMPDEST PUSH1 0x20 ADD ADD SWAP1 PUSH1 0x1 PUSH1 0x1 PUSH1 0xF8 SHL SUB NOT AND SWAP1 DUP2 PUSH1 0x0 BYTE SWAP1 MSTORE8 POP DUP1 PUSH2 0x1715 DUP2 PUSH2 0x40D9 JUMP JUMPDEST SWAP2 POP POP PUSH2 0x16A0 JUMP JUMPDEST POP SWAP5 SWAP4 POP POP POP POP JUMP JUMPDEST PUSH1 0x60 PUSH2 0x1731 DUP3 PUSH2 0x1CC5 JUMP JUMPDEST PUSH2 0x173E PUSH1 0x80 DUP5 SWAP1 SHL PUSH2 0x1CC5 JUMP JUMPDEST PUSH1 0x40 MLOAD PUSH2 0x60F PUSH1 0xF3 SHL PUSH1 0x20 DUP3 ADD MSTORE PUSH1 0x22 DUP2 ADD SWAP3 SWAP1 SWAP3 MSTORE PUSH1 0x42 DUP3 ADD MSTORE PUSH1 0x62 ADD PUSH1 0x40 MLOAD PUSH1 0x20 DUP2 DUP4 SUB SUB DUP2 MSTORE SWAP1 PUSH1 0x40 MSTORE SWAP1 POP SWAP2 SWAP1 POP JUMP JUMPDEST PUSH1 0x0 SLOAD PUSH2 0x100 SWAP1 DIV PUSH1 0xFF AND PUSH2 0x1799 JUMPI PUSH1 0x40 MLOAD PUSH3 0x461BCD PUSH1 0xE5 SHL DUP2 MSTORE PUSH1 0x4 ADD PUSH2 0x2B9 SWAP1 PUSH2 0x4859 JUMP JUMPDEST PUSH2 0x529 PUSH2 0x1E77 JUMP JUMPDEST PUSH1 0x0 PUSH1 0x60 PUSH1 0x0 PUSH1 0x40 MLOAD DUP1 PUSH2 0x100 ADD PUSH1 0x40 MSTORE DUP1 DUP6 PUSH1 0x1 PUSH1 0x1 PUSH1 0x40 SHL SUB DUP2 GT ISZERO PUSH2 0x17CB JUMPI PUSH2 0x17CB PUSH2 0x3966 JUMP JUMPDEST PUSH1 0x40 MLOAD SWAP1 DUP1 DUP3 MSTORE DUP1 PUSH1 0x1F ADD PUSH1 0x1F NOT AND PUSH1 0x20 ADD DUP3 ADD PUSH1 0x40 MSTORE DUP1 ISZERO PUSH2 0x17F5 JUMPI PUSH1 0x20 DUP3 ADD DUP2 DUP1 CALLDATASIZE DUP4 CALLDATACOPY ADD SWAP1 POP JUMPDEST POP DUP2 MSTORE PUSH1 0x20 ADD PUSH1 0x0 DUP2 MSTORE PUSH1 0x20 ADD DUP7 DUP2 MSTORE PUSH1 0x20 ADD PUSH1 0x0 DUP2 MSTORE PUSH1 0x20 ADD PUSH1 0x0 DUP2 MSTORE PUSH1 0x20 ADD PUSH1 0x0 DUP2 MSTORE PUSH1 0x20 ADD PUSH1 0x40 MLOAD DUP1 PUSH1 0x40 ADD PUSH1 0x40 MSTORE DUP1 PUSH1 0xF PUSH1 0x1 PUSH2 0x1836 SWAP2 SWAP1 PUSH2 0x4841 JUMP JUMPDEST PUSH1 0x1 PUSH1 0x1 PUSH1 0x40 SHL SUB DUP2 GT ISZERO PUSH2 0x184D JUMPI PUSH2 0x184D PUSH2 0x3966 JUMP JUMPDEST PUSH1 0x40 MLOAD SWAP1 DUP1 DUP3 MSTORE DUP1 PUSH1 0x20 MUL PUSH1 0x20 ADD DUP3 ADD PUSH1 0x40 MSTORE DUP1 ISZERO PUSH2 0x1876 JUMPI DUP2 PUSH1 0x20 ADD PUSH1 0x20 DUP3 MUL DUP1 CALLDATASIZE DUP4 CALLDATACOPY ADD SWAP1 POP JUMPDEST POP DUP2 MSTORE PUSH1 0x40 DUP1 MLOAD PUSH2 0x120 DUP1 DUP3 MSTORE PUSH2 0x2420 DUP3 ADD SWAP1 SWAP3 MSTORE PUSH1 0x20 SWAP3 DUP4 ADD SWAP3 SWAP1 SWAP2 SWAP1 DUP3 ADD PUSH2 0x2400 DUP1 CALLDATASIZE DUP4 CALLDATACOPY ADD SWAP1 POP POP DUP2 MSTORE POP DUP2 MSTORE PUSH1 0x20 ADD PUSH1 0x40 MLOAD DUP1 PUSH1 0x40 ADD PUSH1 0x40 MSTORE DUP1 PUSH1 0xF PUSH1 0x1 PUSH2 0x18C2 SWAP2 SWAP1 PUSH2 0x4841 JUMP JUMPDEST PUSH1 0x1 PUSH1 0x1 PUSH1 0x40 SHL SUB DUP2 GT ISZERO PUSH2 0x18D9 JUMPI PUSH2 0x18D9 PUSH2 0x3966 JUMP JUMPDEST PUSH1 0x40 MLOAD SWAP1 DUP1 DUP3 MSTORE DUP1 PUSH1 0x20 MUL PUSH1 0x20 ADD DUP3 ADD PUSH1 0x40 MSTORE DUP1 ISZERO PUSH2 0x1902 JUMPI DUP2 PUSH1 0x20 ADD PUSH1 0x20 DUP3 MUL DUP1 CALLDATASIZE DUP4 CALLDATACOPY ADD SWAP1 POP JUMPDEST POP DUP2 MSTORE PUSH1 0x40 DUP1 MLOAD PUSH1 0x1E DUP1 DUP3 MSTORE PUSH2 0x3E0 DUP3 ADD SWAP1 SWAP3 MSTORE PUSH1 0x20 SWAP3 DUP4 ADD SWAP3 SWAP1 SWAP2 SWAP1 DUP3 ADD PUSH2 0x3C0 DUP1 CALLDATASIZE DUP4 CALLDATACOPY POP POP POP SWAP1 MSTORE SWAP1 MSTORE SWAP1 POP PUSH1 0x0 DUP1 DUP1 PUSH2 0x193E DUP5 PUSH2 0x1EA7 JUMP JUMPDEST SWAP1 POP PUSH1 0x0 DUP2 PUSH1 0xE DUP2 GT ISZERO PUSH2 0x1954 JUMPI PUSH2 0x1954 PUSH2 0x3A9D JUMP JUMPDEST EQ PUSH2 0x1969 JUMPI SWAP3 MLOAD SWAP3 SWAP5 POP SWAP2 SWAP3 POP PUSH2 0x1A4B SWAP2 POP POP JUMP JUMPDEST DUP3 PUSH2 0x1A40 JUMPI PUSH2 0x1979 DUP5 PUSH1 0x1 PUSH2 0x2031 JUMP JUMPDEST SWAP4 POP SWAP1 POP PUSH1 0x0 DUP2 PUSH1 0xE DUP2 GT ISZERO PUSH2 0x1991 JUMPI PUSH2 0x1991 PUSH2 0x3A9D JUMP JUMPDEST EQ PUSH2 0x19A6 JUMPI SWAP3 MLOAD SWAP3 SWAP5 POP SWAP2 SWAP3 POP PUSH2 0x1A4B SWAP2 POP POP JUMP JUMPDEST PUSH2 0x19B1 DUP5 PUSH1 0x2 PUSH2 0x2031 JUMP JUMPDEST SWAP3 POP SWAP1 POP PUSH1 0x0 DUP2 PUSH1 0xE DUP2 GT ISZERO PUSH2 0x19C9 JUMPI PUSH2 0x19C9 PUSH2 0x3A9D JUMP JUMPDEST EQ PUSH2 0x19DE JUMPI SWAP3 MLOAD SWAP3 SWAP5 POP SWAP2 SWAP3 POP PUSH2 0x1A4B SWAP2 POP POP JUMP JUMPDEST DUP2 ISZERO PUSH2 0x1A12 JUMPI DUP2 PUSH1 0x1 EQ PUSH2 0x1A09 JUMPI DUP2 PUSH1 0x2 EQ PUSH2 0x19FB JUMPI PUSH1 0x3 PUSH2 0x1A1B JUMP JUMPDEST PUSH2 0x1A04 DUP5 PUSH2 0x2102 JUMP JUMPDEST PUSH2 0x1A1B JUMP JUMPDEST PUSH2 0x1A04 DUP5 PUSH2 0x217C JUMP JUMPDEST PUSH2 0x1A1B DUP5 PUSH2 0x2191 JUMP JUMPDEST SWAP1 POP PUSH1 0x0 DUP2 PUSH1 0xE DUP2 GT ISZERO PUSH2 0x1A31 JUMPI PUSH2 0x1A31 PUSH2 0x3A9D JUMP JUMPDEST EQ PUSH2 0x1A3B JUMPI PUSH2 0x1A40 JUMP JUMPDEST PUSH2 0x1969 JUMP JUMPDEST SWAP3 MLOAD SWAP3 SWAP5 POP SWAP2 SWAP3 POP POP POP JUMPDEST SWAP3 POP SWAP3 SWAP1 POP JUMP JUMPDEST PUSH1 0x0 DUP1 PUSH19 0x184F03E93FF9F4DAA797ED6E38ED64BF6A1F01 PUSH1 0x40 SHL DUP4 LT PUSH2 0x1A91 JUMPI PUSH19 0x184F03E93FF9F4DAA797ED6E38ED64BF6A1F01 PUSH1 0x40 SHL DUP4 DIV SWAP3 POP PUSH1 0x40 ADD JUMPDEST PUSH14 0x4EE2D6D415B85ACEF8100000000 DUP4 LT PUSH2 0x1ABD JUMPI PUSH14 0x4EE2D6D415B85ACEF8100000000 DUP4 DIV SWAP3 POP PUSH1 0x20 ADD JUMPDEST PUSH7 0x2386F26FC10000 DUP4 LT PUSH2 0x1ADB JUMPI PUSH7 0x2386F26FC10000 DUP4 DIV SWAP3 POP PUSH1 0x10 ADD JUMPDEST PUSH4 0x5F5E100 DUP4 LT PUSH2 0x1AF3 JUMPI PUSH4 0x5F5E100 DUP4 DIV SWAP3 POP PUSH1 0x8 ADD JUMPDEST PUSH2 0x2710 DUP4 LT PUSH2 0x1B07 JUMPI PUSH2 0x2710 DUP4 DIV SWAP3 POP PUSH1 0x4 ADD JUMPDEST PUSH1 0x64 DUP4 LT PUSH2 0x1B19 JUMPI PUSH1 0x64 DUP4 DIV SWAP3 POP PUSH1 0x2 ADD JUMPDEST PUSH1 0xA DUP4 LT PUSH2 0x163A JUMPI PUSH1 0x1 ADD SWAP3 SWAP2 POP POP JUMP JUMPDEST PUSH1 0x60 PUSH1 0x0 PUSH2 0x1B39 DUP4 PUSH1 0x2 PUSH2 0x40F4 JUMP JUMPDEST PUSH2 0x1B44 SWAP1 PUSH1 0x2 PUSH2 0x4841 JUMP JUMPDEST PUSH1 0x1 PUSH1 0x1 PUSH1 0x40 SHL SUB DUP2 GT ISZERO PUSH2 0x1B5B JUMPI PUSH2 0x1B5B PUSH2 0x3966 JUMP JUMPDEST PUSH1 0x40 MLOAD SWAP1 DUP1 DUP3 MSTORE DUP1 PUSH1 0x1F ADD PUSH1 0x1F NOT AND PUSH1 0x20 ADD DUP3 ADD PUSH1 0x40 MSTORE DUP1 ISZERO PUSH2 0x1B85 JUMPI PUSH1 0x20 DUP3 ADD DUP2 DUP1 CALLDATASIZE DUP4 CALLDATACOPY ADD SWAP1 POP JUMPDEST POP SWAP1 POP PUSH1 0x3 PUSH1 0xFC SHL DUP2 PUSH1 0x0 DUP2 MLOAD DUP2 LT PUSH2 0x1BA0 JUMPI PUSH2 0x1BA0 PUSH2 0x400D JUMP JUMPDEST PUSH1 0x20 ADD ADD SWAP1 PUSH1 0x1 PUSH1 0x1 PUSH1 0xF8 SHL SUB NOT AND SWAP1 DUP2 PUSH1 0x0 BYTE SWAP1 MSTORE8 POP PUSH1 0xF PUSH1 0xFB SHL DUP2 PUSH1 0x1 DUP2 MLOAD DUP2 LT PUSH2 0x1BCF JUMPI PUSH2 0x1BCF PUSH2 0x400D JUMP JUMPDEST PUSH1 0x20 ADD ADD SWAP1 PUSH1 0x1 PUSH1 0x1 PUSH1 0xF8 SHL SUB NOT AND SWAP1 DUP2 PUSH1 0x0 BYTE SWAP1 MSTORE8 POP PUSH1 0x0 PUSH2 0x1BF3 DUP5 PUSH1 0x2 PUSH2 0x40F4 JUMP JUMPDEST PUSH2 0x1BFE SWAP1 PUSH1 0x1 PUSH2 0x4841 JUMP JUMPDEST SWAP1 POP JUMPDEST PUSH1 0x1 DUP2 GT ISZERO PUSH2 0x1C76 JUMPI PUSH16 0x181899199A1A9B1B9C1CB0B131B232B3 PUSH1 0x81 SHL DUP6 PUSH1 0xF AND PUSH1 0x10 DUP2 LT PUSH2 0x1C32 JUMPI PUSH2 0x1C32 PUSH2 0x400D JUMP JUMPDEST BYTE PUSH1 0xF8 SHL DUP3 DUP3 DUP2 MLOAD DUP2 LT PUSH2 0x1C48 JUMPI PUSH2 0x1C48 PUSH2 0x400D JUMP JUMPDEST PUSH1 0x20 ADD ADD SWAP1 PUSH1 0x1 PUSH1 0x1 PUSH1 0xF8 SHL SUB NOT AND SWAP1 DUP2 PUSH1 0x0 BYTE SWAP1 MSTORE8 POP PUSH1 0x4 SWAP5 SWAP1 SWAP5 SHR SWAP4 PUSH2 0x1C6F DUP2 PUSH2 0x48A4 JUMP JUMPDEST SWAP1 POP PUSH2 0x1C01 JUMP JUMPDEST POP DUP4 ISZERO PUSH2 0xE57 JUMPI PUSH1 0x40 MLOAD PUSH3 0x461BCD PUSH1 0xE5 SHL DUP2 MSTORE PUSH1 0x20 PUSH1 0x4 DUP3 ADD DUP2 SWAP1 MSTORE PUSH1 0x24 DUP3 ADD MSTORE PUSH32 0x537472696E67733A20686578206C656E67746820696E73756666696369656E74 PUSH1 0x44 DUP3 ADD MSTORE PUSH1 0x64 ADD PUSH2 0x2B9 JUMP JUMPDEST PUSH27 0xFF00000000000000FF00000000000000FF00000000000000FF0000 PUSH12 0xFFFFFFFF0000000000000000 PUSH1 0x40 DUP4 SWAP1 SHR SWAP1 DUP2 AND PUSH4 0xFFFFFFFF PUSH1 0xC0 SHL DUP5 AND OR PUSH1 0x20 SHR PUSH4 0xFFFFFFFF PUSH1 0x60 SHL SWAP2 SWAP1 SWAP2 AND PUSH1 0x1 PUSH1 0x1 PUSH1 0xE0 SHL SUB NOT DUP5 AND OR OR PUSH1 0x10 DUP2 SWAP1 SHR SWAP2 DUP3 AND PUSH31 0xFF00000000000000FF00000000000000FF00000000000000FF000000000000 DUP3 AND OR PUSH1 0x8 SWAP1 DUP2 SHR PUSH28 0xFF00000000000000FF00000000000000FF00000000000000FF000000 SWAP4 SWAP1 SWAP4 AND PUSH32 0xFF00000000000000FF00000000000000FF00000000000000FF00000000000000 SWAP3 SWAP1 SWAP3 AND SWAP2 SWAP1 SWAP2 OR SWAP2 SWAP1 SWAP2 OR SWAP1 DUP2 SWAP1 SHR PUSH31 0xF000F000F000F000F000F000F000F000F000F000F000F000F000F000F000F AND PUSH32 0xF000F000F000F000F000F000F000F000F000F000F000F000F000F000F000F00 PUSH1 0x4 SWAP3 DUP4 SHR AND OR SWAP1 PUSH2 0x1E13 DUP3 PUSH32 0x606060606060606060606060606060606060606060606060606060606060606 PUSH2 0x4841 JUMP JUMPDEST SWAP1 SHR PUSH32 0xF0F0F0F0F0F0F0F0F0F0F0F0F0F0F0F0F0F0F0F0F0F0F0F0F0F0F0F0F0F0F0F AND PUSH1 0x7 PUSH2 0x1E43 SWAP2 SWAP1 PUSH2 0x40F4 JUMP JUMPDEST PUSH2 0x1E6D DUP3 PUSH32 0x3030303030303030303030303030303030303030303030303030303030303030 PUSH2 0x4841 JUMP JUMPDEST PUSH2 0x163A SWAP2 SWAP1 PUSH2 0x4841 JUMP JUMPDEST PUSH1 0x0 SLOAD PUSH2 0x100 SWAP1 DIV PUSH1 0xFF AND PUSH2 0x1E9E JUMPI PUSH1 0x40 MLOAD PUSH3 0x461BCD PUSH1 0xE5 SHL DUP2 MSTORE PUSH1 0x4 ADD PUSH2 0x2B9 SWAP1 PUSH2 0x4859 JUMP JUMPDEST PUSH2 0x529 CALLER PUSH2 0x13D9 JUMP JUMPDEST PUSH1 0x40 DUP1 MLOAD PUSH2 0x120 DUP1 DUP3 MSTORE PUSH2 0x2420 DUP3 ADD SWAP1 SWAP3 MSTORE PUSH1 0x0 SWAP2 DUP3 SWAP2 DUP3 SWAP2 PUSH1 0x20 DUP3 ADD PUSH2 0x2400 DUP1 CALLDATASIZE DUP4 CALLDATACOPY ADD SWAP1 POP POP SWAP1 POP PUSH1 0x0 SWAP2 POP JUMPDEST PUSH1 0x90 DUP3 LT ISZERO PUSH2 0x1F10 JUMPI PUSH1 0x8 DUP2 DUP4 DUP2 MLOAD DUP2 LT PUSH2 0x1EF3 JUMPI PUSH2 0x1EF3 PUSH2 0x400D JUMP JUMPDEST PUSH1 0x20 SWAP1 DUP2 MUL SWAP2 SWAP1 SWAP2 ADD ADD MSTORE DUP2 PUSH2 0x1F08 DUP2 PUSH2 0x40D9 JUMP JUMPDEST SWAP3 POP POP PUSH2 0x1ED6 JUMP JUMPDEST PUSH2 0x100 DUP3 LT ISZERO PUSH2 0x1F4B JUMPI PUSH1 0x9 DUP2 DUP4 DUP2 MLOAD DUP2 LT PUSH2 0x1F2E JUMPI PUSH2 0x1F2E PUSH2 0x400D JUMP JUMPDEST PUSH1 0x20 SWAP1 DUP2 MUL SWAP2 SWAP1 SWAP2 ADD ADD MSTORE DUP2 PUSH2 0x1F43 DUP2 PUSH2 0x40D9 JUMP JUMPDEST SWAP3 POP POP PUSH2 0x1F10 JUMP JUMPDEST PUSH2 0x118 DUP3 LT ISZERO PUSH2 0x1F86 JUMPI PUSH1 0x7 DUP2 DUP4 DUP2 MLOAD DUP2 LT PUSH2 0x1F69 JUMPI PUSH2 0x1F69 PUSH2 0x400D JUMP JUMPDEST PUSH1 0x20 SWAP1 DUP2 MUL SWAP2 SWAP1 SWAP2 ADD ADD MSTORE DUP2 PUSH2 0x1F7E DUP2 PUSH2 0x40D9 JUMP JUMPDEST SWAP3 POP POP PUSH2 0x1F4B JUMP JUMPDEST PUSH2 0x120 DUP3 LT ISZERO PUSH2 0x1FC1 JUMPI PUSH1 0x8 DUP2 DUP4 DUP2 MLOAD DUP2 LT PUSH2 0x1FA4 JUMPI PUSH2 0x1FA4 PUSH2 0x400D JUMP JUMPDEST PUSH1 0x20 SWAP1 DUP2 MUL SWAP2 SWAP1 SWAP2 ADD ADD MSTORE DUP2 PUSH2 0x1FB9 DUP2 PUSH2 0x40D9 JUMP JUMPDEST SWAP3 POP POP PUSH2 0x1F86 JUMP JUMPDEST PUSH2 0x1FD4 DUP5 PUSH1 0xC0 ADD MLOAD DUP3 PUSH2 0x120 PUSH1 0x0 PUSH2 0x23A1 JUMP JUMPDEST POP PUSH1 0x0 SWAP2 POP JUMPDEST PUSH1 0x1E DUP3 LT ISZERO PUSH2 0x2014 JUMPI PUSH1 0x5 DUP2 DUP4 DUP2 MLOAD DUP2 LT PUSH2 0x1FF7 JUMPI PUSH2 0x1FF7 PUSH2 0x400D JUMP JUMPDEST PUSH1 0x20 SWAP1 DUP2 MUL SWAP2 SWAP1 SWAP2 ADD ADD MSTORE DUP2 PUSH2 0x200C DUP2 PUSH2 0x40D9 JUMP JUMPDEST SWAP3 POP POP PUSH2 0x1FDA JUMP JUMPDEST PUSH2 0x2026 DUP5 PUSH1 0xE0 ADD MLOAD DUP3 PUSH1 0x1E PUSH1 0x0 PUSH2 0x23A1 JUMP JUMPDEST POP PUSH1 0x0 SWAP5 SWAP4 POP POP POP POP JUMP JUMPDEST PUSH1 0x80 DUP3 ADD MLOAD PUSH1 0x0 SWAP1 DUP2 SWAP1 JUMPDEST DUP4 DUP6 PUSH1 0xA0 ADD MLOAD LT ISZERO PUSH2 0x20C5 JUMPI DUP5 PUSH1 0x40 ADD MLOAD MLOAD DUP6 PUSH1 0x60 ADD MLOAD EQ ISZERO PUSH2 0x2067 JUMPI PUSH1 0x1 PUSH1 0x0 SWAP3 POP SWAP3 POP POP PUSH2 0x1A4B JUMP JUMPDEST PUSH1 0xA0 DUP6 ADD MLOAD PUSH1 0x40 DUP7 ADD MLOAD PUSH1 0x60 DUP8 ADD DUP1 MLOAD SWAP1 PUSH2 0x2081 DUP3 PUSH2 0x40D9 JUMP JUMPDEST SWAP1 MSTORE DUP2 MLOAD DUP2 LT PUSH2 0x2093 JUMPI PUSH2 0x2093 PUSH2 0x400D JUMP JUMPDEST PUSH1 0x20 ADD ADD MLOAD PUSH1 0xF8 SHR PUSH1 0xF8 SHL PUSH1 0xF8 SHR PUSH1 0xFF AND SWAP1 SHL DUP2 OR SWAP1 POP PUSH1 0x8 DUP6 PUSH1 0xA0 ADD DUP2 DUP2 MLOAD PUSH2 0x20BD SWAP2 SWAP1 PUSH2 0x4841 JUMP JUMPDEST SWAP1 MSTORE POP PUSH2 0x203C JUMP JUMPDEST DUP1 DUP5 SHR PUSH1 0x80 DUP7 ADD MSTORE PUSH1 0xA0 DUP6 ADD DUP1 MLOAD DUP6 SWAP2 SWAP1 PUSH2 0x20E1 SWAP1 DUP4 SWAP1 PUSH2 0x45A3 JUMP JUMPDEST SWAP1 MSTORE POP PUSH1 0x0 PUSH2 0x20F3 PUSH1 0x1 DUP1 DUP8 SHL PUSH2 0x45A3 JUMP JUMPDEST PUSH1 0x0 SWAP8 SWAP3 AND SWAP6 POP SWAP1 SWAP4 POP POP POP POP JUMP JUMPDEST PUSH1 0x0 PUSH2 0x2121 PUSH1 0x40 MLOAD DUP1 PUSH1 0x40 ADD PUSH1 0x40 MSTORE DUP1 PUSH1 0x60 DUP2 MSTORE PUSH1 0x20 ADD PUSH1 0x60 DUP2 MSTORE POP SWAP1 JUMP JUMPDEST PUSH1 0x40 DUP1 MLOAD DUP1 DUP3 ADD SWAP1 SWAP2 MSTORE PUSH1 0x60 DUP1 DUP3 MSTORE PUSH1 0x20 DUP3 ADD MSTORE PUSH1 0x0 PUSH2 0x2140 DUP6 PUSH2 0x266C JUMP JUMPDEST SWAP1 SWAP5 POP SWAP3 POP SWAP1 POP PUSH1 0x0 DUP2 PUSH1 0xE DUP2 GT ISZERO PUSH2 0x215B JUMPI PUSH2 0x215B PUSH2 0x3A9D JUMP JUMPDEST EQ PUSH2 0x2168 JUMPI SWAP5 SWAP4 POP POP POP POP JUMP JUMPDEST PUSH2 0x2173 DUP6 DUP5 DUP5 PUSH2 0x2D22 JUMP JUMPDEST SWAP6 SWAP5 POP POP POP POP POP JUMP JUMPDEST PUSH1 0x0 PUSH2 0x163A DUP3 DUP4 PUSH1 0xC0 ADD MLOAD DUP5 PUSH1 0xE0 ADD MLOAD PUSH2 0x2D22 JUMP JUMPDEST PUSH1 0x0 PUSH1 0x80 DUP3 ADD DUP2 SWAP1 MSTORE PUSH1 0xA0 DUP3 ADD DUP2 SWAP1 MSTORE PUSH1 0x40 DUP3 ADD MLOAD MLOAD PUSH1 0x60 DUP4 ADD MLOAD DUP3 SWAP2 SWAP1 PUSH2 0x21BA SWAP1 PUSH1 0x4 PUSH2 0x4841 JUMP JUMPDEST GT ISZERO PUSH2 0x21C9 JUMPI POP PUSH1 0x1 SWAP3 SWAP2 POP POP JUMP JUMPDEST PUSH1 0x40 DUP4 ADD MLOAD PUSH1 0x60 DUP5 ADD DUP1 MLOAD SWAP1 PUSH2 0x21DE DUP3 PUSH2 0x40D9 JUMP JUMPDEST SWAP1 MSTORE DUP2 MLOAD DUP2 LT PUSH2 0x21F0 JUMPI PUSH2 0x21F0 PUSH2 0x400D JUMP JUMPDEST ADD PUSH1 0x20 ADD MLOAD PUSH1 0x40 DUP5 ADD MLOAD PUSH1 0x60 DUP6 ADD DUP1 MLOAD PUSH1 0xF8 SWAP4 SWAP1 SWAP4 SHR SWAP4 POP PUSH1 0x8 SWAP3 SWAP1 PUSH2 0x2215 DUP3 PUSH2 0x40D9 JUMP JUMPDEST SWAP1 MSTORE DUP2 MLOAD DUP2 LT PUSH2 0x2227 JUMPI PUSH2 0x2227 PUSH2 0x400D JUMP JUMPDEST PUSH1 0x20 ADD ADD MLOAD PUSH1 0xF8 SHR PUSH1 0xF8 SHL PUSH1 0xF8 SHR PUSH1 0xFF AND SWAP1 SHL DUP2 OR SWAP1 POP DUP1 NOT PUSH1 0xFF AND DUP4 PUSH1 0x40 ADD MLOAD DUP5 PUSH1 0x60 ADD DUP1 MLOAD DUP1 SWAP2 SWAP1 PUSH2 0x225A SWAP1 PUSH2 0x40D9 JUMP JUMPDEST SWAP1 MSTORE DUP2 MLOAD DUP2 LT PUSH2 0x226C JUMPI PUSH2 0x226C PUSH2 0x400D JUMP JUMPDEST ADD PUSH1 0x20 ADD MLOAD PUSH1 0xF8 SHR EQ ISZERO DUP1 PUSH2 0x22B7 JUMPI POP PUSH1 0x40 DUP4 ADD MLOAD PUSH1 0x60 DUP5 ADD DUP1 MLOAD PUSH1 0xFF DUP5 NOT PUSH1 0x8 SHR AND SWAP3 SWAP2 PUSH2 0x229A DUP3 PUSH2 0x40D9 JUMP JUMPDEST SWAP1 MSTORE DUP2 MLOAD DUP2 LT PUSH2 0x22AC JUMPI PUSH2 0x22AC PUSH2 0x400D JUMP JUMPDEST ADD PUSH1 0x20 ADD MLOAD PUSH1 0xF8 SHR EQ ISZERO JUMPDEST ISZERO PUSH2 0x22C5 JUMPI POP PUSH1 0x4 SWAP3 SWAP2 POP POP JUMP JUMPDEST DUP3 PUSH1 0x40 ADD MLOAD MLOAD DUP2 DUP5 PUSH1 0x60 ADD MLOAD PUSH2 0x22DB SWAP2 SWAP1 PUSH2 0x4841 JUMP JUMPDEST GT ISZERO PUSH2 0x22EA JUMPI POP PUSH1 0x1 SWAP3 SWAP2 POP POP JUMP JUMPDEST DUP3 MLOAD MLOAD PUSH1 0x20 DUP5 ADD MLOAD PUSH2 0x22FD SWAP1 DUP4 SWAP1 PUSH2 0x4841 JUMP JUMPDEST GT ISZERO PUSH2 0x230C JUMPI POP PUSH1 0x2 SWAP3 SWAP2 POP POP JUMP JUMPDEST DUP1 ISZERO PUSH2 0x2398 JUMPI PUSH2 0x231D PUSH1 0x1 DUP3 PUSH2 0x45A3 JUMP JUMPDEST SWAP1 POP DUP3 PUSH1 0x40 ADD MLOAD DUP4 PUSH1 0x60 ADD DUP1 MLOAD DUP1 SWAP2 SWAP1 PUSH2 0x2336 SWAP1 PUSH2 0x40D9 JUMP JUMPDEST SWAP1 MSTORE DUP2 MLOAD DUP2 LT PUSH2 0x2348 JUMPI PUSH2 0x2348 PUSH2 0x400D JUMP JUMPDEST PUSH1 0x20 ADD ADD MLOAD PUSH1 0xF8 SHR PUSH1 0xF8 SHL DUP4 PUSH1 0x0 ADD MLOAD DUP5 PUSH1 0x20 ADD DUP1 MLOAD DUP1 SWAP2 SWAP1 PUSH2 0x236A SWAP1 PUSH2 0x40D9 JUMP JUMPDEST SWAP1 MSTORE DUP2 MLOAD DUP2 LT PUSH2 0x237C JUMPI PUSH2 0x237C PUSH2 0x400D JUMP JUMPDEST PUSH1 0x20 ADD ADD SWAP1 PUSH1 0x1 PUSH1 0x1 PUSH1 0xF8 SHL SUB NOT AND SWAP1 DUP2 PUSH1 0x0 BYTE SWAP1 MSTORE8 POP PUSH2 0x230C JUMP JUMPDEST POP PUSH1 0x0 SWAP3 SWAP2 POP POP JUMP JUMPDEST PUSH1 0x0 DUP1 PUSH1 0x0 DUP1 PUSH2 0x23AF PUSH2 0x387E JUMP JUMPDEST PUSH1 0x0 SWAP3 POP JUMPDEST PUSH1 0xF DUP4 GT PUSH2 0x23F1 JUMPI PUSH1 0x0 DUP10 PUSH1 0x0 ADD MLOAD DUP5 DUP2 MLOAD DUP2 LT PUSH2 0x23D4 JUMPI PUSH2 0x23D4 PUSH2 0x400D JUMP JUMPDEST PUSH1 0x20 SWAP1 DUP2 MUL SWAP2 SWAP1 SWAP2 ADD ADD MSTORE DUP3 PUSH2 0x23E9 DUP2 PUSH2 0x40D9 JUMP JUMPDEST SWAP4 POP POP PUSH2 0x23B4 JUMP JUMPDEST PUSH1 0x0 SWAP4 POP JUMPDEST DUP7 DUP5 LT ISZERO PUSH2 0x245D JUMPI DUP9 MLOAD DUP9 PUSH2 0x240B DUP7 DUP10 PUSH2 0x4841 JUMP JUMPDEST DUP2 MLOAD DUP2 LT PUSH2 0x241B JUMPI PUSH2 0x241B PUSH2 0x400D JUMP JUMPDEST PUSH1 0x20 MUL PUSH1 0x20 ADD ADD MLOAD DUP2 MLOAD DUP2 LT PUSH2 0x2433 JUMPI PUSH2 0x2433 PUSH2 0x400D JUMP JUMPDEST PUSH1 0x20 MUL PUSH1 0x20 ADD ADD DUP1 MLOAD DUP1 SWAP2 SWAP1 PUSH2 0x2448 SWAP1 PUSH2 0x40D9 JUMP JUMPDEST SWAP1 MSTORE POP DUP4 PUSH2 0x2455 DUP2 PUSH2 0x40D9 JUMP JUMPDEST SWAP5 POP POP PUSH2 0x23F6 JUMP JUMPDEST DUP7 DUP10 PUSH1 0x0 ADD MLOAD PUSH1 0x0 DUP2 MLOAD DUP2 LT PUSH2 0x2475 JUMPI PUSH2 0x2475 PUSH2 0x400D JUMP JUMPDEST PUSH1 0x20 MUL PUSH1 0x20 ADD ADD MLOAD EQ ISZERO PUSH2 0x2490 JUMPI PUSH1 0x0 SWAP5 POP POP POP POP POP PUSH2 0x2664 JUMP JUMPDEST PUSH1 0x1 SWAP2 POP PUSH1 0x1 SWAP3 POP JUMPDEST PUSH1 0xF DUP4 GT PUSH2 0x2513 JUMPI DUP9 MLOAD DUP1 MLOAD PUSH1 0x1 SWAP4 SWAP1 SWAP4 SHL SWAP3 DUP5 SWAP1 DUP2 LT PUSH2 0x24BC JUMPI PUSH2 0x24BC PUSH2 0x400D JUMP JUMPDEST PUSH1 0x20 MUL PUSH1 0x20 ADD ADD MLOAD DUP3 LT ISZERO PUSH2 0x24D8 JUMPI PUSH1 0xE SWAP5 POP POP POP POP POP PUSH2 0x2664 JUMP JUMPDEST DUP9 MLOAD DUP1 MLOAD DUP5 SWAP1 DUP2 LT PUSH2 0x24EC JUMPI PUSH2 0x24EC PUSH2 0x400D JUMP JUMPDEST PUSH1 0x20 MUL PUSH1 0x20 ADD ADD MLOAD DUP3 PUSH2 0x24FF SWAP2 SWAP1 PUSH2 0x45A3 JUMP JUMPDEST SWAP2 POP DUP3 PUSH2 0x250B DUP2 PUSH2 0x40D9 JUMP JUMPDEST SWAP4 POP POP PUSH2 0x2499 JUMP JUMPDEST PUSH1 0x0 PUSH1 0x20 DUP3 ADD MSTORE PUSH1 0x1 SWAP3 POP JUMPDEST PUSH1 0xF DUP4 LT ISZERO PUSH2 0x2598 JUMPI DUP9 MLOAD DUP1 MLOAD DUP5 SWAP1 DUP2 LT PUSH2 0x253C JUMPI PUSH2 0x253C PUSH2 0x400D JUMP JUMPDEST PUSH1 0x20 MUL PUSH1 0x20 ADD ADD MLOAD DUP2 DUP5 PUSH1 0x10 DUP2 LT PUSH2 0x2556 JUMPI PUSH2 0x2556 PUSH2 0x400D JUMP JUMPDEST PUSH1 0x20 MUL ADD MLOAD PUSH2 0x2565 SWAP2 SWAP1 PUSH2 0x4841 JUMP JUMPDEST DUP2 PUSH2 0x2571 DUP6 PUSH1 0x1 PUSH2 0x4841 JUMP JUMPDEST PUSH1 0x10 DUP2 LT PUSH2 0x2581 JUMPI PUSH2 0x2581 PUSH2 0x400D JUMP JUMPDEST PUSH1 0x20 MUL ADD MSTORE DUP3 PUSH2 0x2590 DUP2 PUSH2 0x40D9 JUMP JUMPDEST SWAP4 POP POP PUSH2 0x251F JUMP JUMPDEST PUSH1 0x0 SWAP4 POP JUMPDEST DUP7 DUP5 LT ISZERO PUSH2 0x264B JUMPI DUP8 PUSH2 0x25B0 DUP6 DUP9 PUSH2 0x4841 JUMP JUMPDEST DUP2 MLOAD DUP2 LT PUSH2 0x25C0 JUMPI PUSH2 0x25C0 PUSH2 0x400D JUMP JUMPDEST PUSH1 0x20 MUL PUSH1 0x20 ADD ADD MLOAD PUSH1 0x0 EQ PUSH2 0x2639 JUMPI PUSH1 0x20 DUP10 ADD MLOAD DUP5 SWAP1 DUP3 DUP11 PUSH2 0x25E2 DUP5 DUP12 PUSH2 0x4841 JUMP JUMPDEST DUP2 MLOAD DUP2 LT PUSH2 0x25F2 JUMPI PUSH2 0x25F2 PUSH2 0x400D JUMP JUMPDEST PUSH1 0x20 MUL PUSH1 0x20 ADD ADD MLOAD PUSH1 0x10 DUP2 LT PUSH2 0x260A JUMPI PUSH2 0x260A PUSH2 0x400D JUMP JUMPDEST PUSH1 0x20 MUL ADD DUP1 MLOAD SWAP1 PUSH2 0x261A DUP3 PUSH2 0x40D9 JUMP JUMPDEST SWAP1 MSTORE DUP2 MLOAD DUP2 LT PUSH2 0x262C JUMPI PUSH2 0x262C PUSH2 0x400D JUMP JUMPDEST PUSH1 0x20 MUL PUSH1 0x20 ADD ADD DUP2 DUP2 MSTORE POP POP JUMPDEST DUP4 PUSH2 0x2643 DUP2 PUSH2 0x40D9 JUMP JUMPDEST SWAP5 POP POP PUSH2 0x259D JUMP JUMPDEST PUSH1 0x0 DUP3 GT PUSH2 0x265A JUMPI PUSH1 0x0 PUSH2 0x265D JUMP JUMPDEST PUSH1 0xE JUMPDEST SWAP5 POP POP POP POP POP JUMPDEST SWAP5 SWAP4 POP POP POP POP JUMP JUMPDEST PUSH1 0x0 PUSH2 0x268B PUSH1 0x40 MLOAD DUP1 PUSH1 0x40 ADD PUSH1 0x40 MSTORE DUP1 PUSH1 0x60 DUP2 MSTORE PUSH1 0x20 ADD PUSH1 0x60 DUP2 MSTORE POP SWAP1 JUMP JUMPDEST PUSH1 0x40 DUP1 MLOAD DUP1 DUP3 ADD SWAP1 SWAP2 MSTORE PUSH1 0x60 DUP1 DUP3 MSTORE PUSH1 0x20 DUP3 ADD MSTORE PUSH1 0x0 DUP1 DUP1 DUP1 DUP1 PUSH2 0x26B2 PUSH1 0x1E PUSH2 0x11E PUSH2 0x4841 JUMP JUMPDEST PUSH1 0x1 PUSH1 0x1 PUSH1 0x40 SHL SUB DUP2 GT ISZERO PUSH2 0x26C9 JUMPI PUSH2 0x26C9 PUSH2 0x3966 JUMP JUMPDEST PUSH1 0x40 MLOAD SWAP1 DUP1 DUP3 MSTORE DUP1 PUSH1 0x20 MUL PUSH1 0x20 ADD DUP3 ADD PUSH1 0x40 MSTORE DUP1 ISZERO PUSH2 0x26F2 JUMPI DUP2 PUSH1 0x20 ADD PUSH1 0x20 DUP3 MUL DUP1 CALLDATASIZE DUP4 CALLDATACOPY ADD SWAP1 POP JUMPDEST POP SWAP1 POP PUSH1 0x0 PUSH1 0x40 MLOAD DUP1 PUSH1 0x40 ADD PUSH1 0x40 MSTORE DUP1 PUSH1 0xF PUSH1 0x1 PUSH2 0x2710 SWAP2 SWAP1 PUSH2 0x4841 JUMP JUMPDEST PUSH1 0x1 PUSH1 0x1 PUSH1 0x40 SHL SUB DUP2 GT ISZERO PUSH2 0x2727 JUMPI PUSH2 0x2727 PUSH2 0x3966 JUMP JUMPDEST PUSH1 0x40 MLOAD SWAP1 DUP1 DUP3 MSTORE DUP1 PUSH1 0x20 MUL PUSH1 0x20 ADD DUP3 ADD PUSH1 0x40 MSTORE DUP1 ISZERO PUSH2 0x2750 JUMPI DUP2 PUSH1 0x20 ADD PUSH1 0x20 DUP3 MUL DUP1 CALLDATASIZE DUP4 CALLDATACOPY ADD SWAP1 POP JUMPDEST POP DUP2 MSTORE PUSH1 0x40 DUP1 MLOAD PUSH2 0x11E DUP1 DUP3 MSTORE PUSH2 0x23E0 DUP3 ADD SWAP1 SWAP3 MSTORE PUSH1 0x20 SWAP3 DUP4 ADD SWAP3 SWAP1 SWAP2 SWAP1 DUP3 ADD PUSH2 0x23C0 DUP1 CALLDATASIZE DUP4 CALLDATACOPY ADD SWAP1 POP POP DUP2 MSTORE POP SWAP1 POP PUSH1 0x0 PUSH1 0x40 MLOAD DUP1 PUSH1 0x40 ADD PUSH1 0x40 MSTORE DUP1 PUSH1 0xF PUSH1 0x1 PUSH2 0x279B SWAP2 SWAP1 PUSH2 0x4841 JUMP JUMPDEST PUSH1 0x1 PUSH1 0x1 PUSH1 0x40 SHL SUB DUP2 GT ISZERO PUSH2 0x27B2 JUMPI PUSH2 0x27B2 PUSH2 0x3966 JUMP JUMPDEST PUSH1 0x40 MLOAD SWAP1 DUP1 DUP3 MSTORE DUP1 PUSH1 0x20 MUL PUSH1 0x20 ADD DUP3 ADD PUSH1 0x40 MSTORE DUP1 ISZERO PUSH2 0x27DB JUMPI DUP2 PUSH1 0x20 ADD PUSH1 0x20 DUP3 MUL DUP1 CALLDATASIZE DUP4 CALLDATACOPY ADD SWAP1 POP JUMPDEST POP DUP2 MSTORE PUSH1 0x40 DUP1 MLOAD PUSH1 0x1E DUP1 DUP3 MSTORE PUSH2 0x3E0 DUP3 ADD SWAP1 SWAP3 MSTORE PUSH1 0x20 SWAP3 DUP4 ADD SWAP3 SWAP1 SWAP2 SWAP1 DUP3 ADD PUSH2 0x3C0 DUP1 CALLDATASIZE DUP4 CALLDATACOPY POP POP POP SWAP1 MSTORE SWAP1 POP PUSH1 0x0 PUSH2 0x2815 DUP13 PUSH1 0x5 PUSH2 0x2031 JUMP JUMPDEST SWAP9 POP SWAP5 POP PUSH1 0x0 DUP6 PUSH1 0xE DUP2 GT ISZERO PUSH2 0x282D JUMPI PUSH2 0x282D PUSH2 0x3A9D JUMP JUMPDEST EQ PUSH2 0x2845 JUMPI POP SWAP3 SWAP9 POP SWAP7 POP SWAP1 SWAP5 POP PUSH2 0x2D1B SWAP4 POP POP POP POP JUMP JUMPDEST PUSH2 0x2851 PUSH2 0x101 DUP10 PUSH2 0x4841 JUMP JUMPDEST SWAP8 POP PUSH2 0x285E DUP13 PUSH1 0x5 PUSH2 0x2031 JUMP JUMPDEST SWAP8 POP SWAP5 POP PUSH1 0x0 DUP6 PUSH1 0xE DUP2 GT ISZERO PUSH2 0x2876 JUMPI PUSH2 0x2876 PUSH2 0x3A9D JUMP JUMPDEST EQ PUSH2 0x288E JUMPI POP SWAP3 SWAP9 POP SWAP7 POP SWAP1 SWAP5 POP PUSH2 0x2D1B SWAP4 POP POP POP POP JUMP JUMPDEST PUSH2 0x2899 PUSH1 0x1 DUP9 PUSH2 0x4841 JUMP JUMPDEST SWAP7 POP PUSH2 0x11E DUP9 GT DUP1 PUSH2 0x28AB JUMPI POP PUSH1 0x1E DUP8 GT JUMPDEST ISZERO PUSH2 0x28C5 JUMPI POP PUSH1 0x5 SWAP10 POP SWAP1 SWAP8 POP SWAP6 POP PUSH2 0x2D1B SWAP5 POP POP POP POP POP JUMP JUMPDEST PUSH2 0x28CE DUP13 PUSH2 0x354D JUMP JUMPDEST SWAP1 SWAP6 POP SWAP4 POP PUSH1 0x0 DUP6 PUSH1 0xE DUP2 GT ISZERO PUSH2 0x28E7 JUMPI PUSH2 0x28E7 PUSH2 0x3A9D JUMP JUMPDEST EQ PUSH2 0x28FF JUMPI POP SWAP3 SWAP9 POP SWAP7 POP SWAP1 SWAP5 POP PUSH2 0x2D1B SWAP4 POP POP POP POP JUMP JUMPDEST PUSH2 0x290D DUP4 DUP6 PUSH1 0x13 PUSH1 0x0 PUSH2 0x23A1 JUMP JUMPDEST SWAP5 POP PUSH1 0x0 DUP6 PUSH1 0xE DUP2 GT ISZERO PUSH2 0x2923 JUMPI PUSH2 0x2923 PUSH2 0x3A9D JUMP JUMPDEST EQ PUSH2 0x293D JUMPI POP PUSH1 0x6 SWAP10 POP SWAP1 SWAP8 POP SWAP6 POP PUSH2 0x2D1B SWAP5 POP POP POP POP POP JUMP JUMPDEST PUSH1 0x0 SWAP6 POP JUMPDEST PUSH2 0x294C DUP8 DUP10 PUSH2 0x4841 JUMP JUMPDEST DUP7 LT ISZERO PUSH2 0x2B45 JUMPI PUSH1 0x0 DUP1 PUSH2 0x2960 DUP15 DUP7 PUSH2 0x376F JUMP JUMPDEST SWAP1 SWAP8 POP SWAP2 POP PUSH1 0x0 DUP8 PUSH1 0xE DUP2 GT ISZERO PUSH2 0x2979 JUMPI PUSH2 0x2979 PUSH2 0x3A9D JUMP JUMPDEST EQ PUSH2 0x2993 JUMPI POP SWAP5 SWAP11 POP SWAP2 SWAP9 POP SWAP7 POP PUSH2 0x2D1B SWAP6 POP POP POP POP POP POP JUMP JUMPDEST PUSH1 0x10 DUP3 LT ISZERO PUSH2 0x29CB JUMPI DUP2 DUP7 DUP10 PUSH2 0x29A8 DUP2 PUSH2 0x40D9 JUMP JUMPDEST SWAP11 POP DUP2 MLOAD DUP2 LT PUSH2 0x29BA JUMPI PUSH2 0x29BA PUSH2 0x400D JUMP JUMPDEST PUSH1 0x20 MUL PUSH1 0x20 ADD ADD DUP2 DUP2 MSTORE POP POP PUSH2 0x2B3E JUMP JUMPDEST POP PUSH1 0x0 PUSH1 0x10 DUP3 EQ ISZERO PUSH2 0x2A6A JUMPI DUP8 PUSH2 0x29F4 JUMPI POP PUSH1 0x7 SWAP12 POP SWAP3 SWAP10 POP SWAP1 SWAP8 POP PUSH2 0x2D1B SWAP7 POP POP POP POP POP POP POP JUMP JUMPDEST DUP6 PUSH2 0x2A00 PUSH1 0x1 DUP11 PUSH2 0x45A3 JUMP JUMPDEST DUP2 MLOAD DUP2 LT PUSH2 0x2A10 JUMPI PUSH2 0x2A10 PUSH2 0x400D JUMP JUMPDEST PUSH1 0x20 MUL PUSH1 0x20 ADD ADD MLOAD SWAP1 POP PUSH2 0x2A25 DUP15 PUSH1 0x2 PUSH2 0x2031 JUMP JUMPDEST SWAP1 SWAP8 POP SWAP3 POP PUSH1 0x0 DUP8 PUSH1 0xE DUP2 GT ISZERO PUSH2 0x2A3E JUMPI PUSH2 0x2A3E PUSH2 0x3A9D JUMP JUMPDEST EQ PUSH2 0x2A58 JUMPI POP SWAP5 SWAP11 POP SWAP2 SWAP9 POP SWAP7 POP PUSH2 0x2D1B SWAP6 POP POP POP POP POP POP JUMP JUMPDEST PUSH2 0x2A63 DUP4 PUSH1 0x3 PUSH2 0x4841 JUMP JUMPDEST SWAP2 POP PUSH2 0x2ACA JUMP JUMPDEST DUP2 PUSH1 0x11 EQ ISZERO PUSH2 0x2A7E JUMPI PUSH2 0x2A25 DUP15 PUSH1 0x3 PUSH2 0x2031 JUMP JUMPDEST PUSH2 0x2A89 DUP15 PUSH1 0x7 PUSH2 0x2031 JUMP JUMPDEST SWAP1 SWAP8 POP SWAP3 POP PUSH1 0x0 DUP8 PUSH1 0xE DUP2 GT ISZERO PUSH2 0x2AA2 JUMPI PUSH2 0x2AA2 PUSH2 0x3A9D JUMP JUMPDEST EQ PUSH2 0x2ABC JUMPI POP SWAP5 SWAP11 POP SWAP2 SWAP9 POP SWAP7 POP PUSH2 0x2D1B SWAP6 POP POP POP POP POP POP JUMP JUMPDEST PUSH2 0x2AC7 DUP4 PUSH1 0xB PUSH2 0x4841 JUMP JUMPDEST SWAP2 POP JUMPDEST PUSH2 0x2AD4 DUP10 DUP12 PUSH2 0x4841 JUMP JUMPDEST PUSH2 0x2ADE DUP4 DUP11 PUSH2 0x4841 JUMP JUMPDEST GT ISZERO PUSH2 0x2AFC JUMPI POP PUSH1 0x8 SWAP12 POP SWAP3 SWAP10 POP SWAP1 SWAP8 POP PUSH2 0x2D1B SWAP7 POP POP POP POP POP POP POP JUMP JUMPDEST DUP2 ISZERO PUSH2 0x2B3E JUMPI PUSH2 0x2B0D PUSH1 0x1 DUP4 PUSH2 0x45A3 JUMP JUMPDEST SWAP2 POP DUP1 DUP7 DUP10 PUSH2 0x2B1B DUP2 PUSH2 0x40D9 JUMP JUMPDEST SWAP11 POP DUP2 MLOAD DUP2 LT PUSH2 0x2B2D JUMPI PUSH2 0x2B2D PUSH2 0x400D JUMP JUMPDEST PUSH1 0x20 MUL PUSH1 0x20 ADD ADD DUP2 DUP2 MSTORE POP POP PUSH2 0x2AFC JUMP JUMPDEST POP POP PUSH2 0x2942 JUMP JUMPDEST DUP4 PUSH2 0x100 DUP2 MLOAD DUP2 LT PUSH2 0x2B59 JUMPI PUSH2 0x2B59 PUSH2 0x400D JUMP JUMPDEST PUSH1 0x20 MUL PUSH1 0x20 ADD ADD MLOAD PUSH1 0x0 EQ ISZERO PUSH2 0x2B7E JUMPI POP PUSH1 0xB SWAP10 POP SWAP1 SWAP8 POP SWAP6 POP PUSH2 0x2D1B SWAP5 POP POP POP POP POP JUMP JUMPDEST PUSH2 0x2B8B DUP4 DUP6 DUP11 PUSH1 0x0 PUSH2 0x23A1 JUMP JUMPDEST SWAP5 POP PUSH1 0x0 DUP6 PUSH1 0xE DUP2 GT ISZERO PUSH2 0x2BA1 JUMPI PUSH2 0x2BA1 PUSH2 0x3A9D JUMP JUMPDEST EQ ISZERO DUP1 ISZERO PUSH2 0x2C2B JUMPI POP PUSH1 0x1 DUP6 PUSH1 0xE DUP2 GT ISZERO PUSH2 0x2BBE JUMPI PUSH2 0x2BBE PUSH2 0x3A9D JUMP JUMPDEST EQ DUP1 PUSH2 0x2BDB JUMPI POP PUSH1 0x2 DUP6 PUSH1 0xE DUP2 GT ISZERO PUSH2 0x2BD9 JUMPI PUSH2 0x2BD9 PUSH2 0x3A9D JUMP JUMPDEST EQ JUMPDEST DUP1 PUSH2 0x2C2B JUMPI POP DUP3 MLOAD DUP1 MLOAD PUSH1 0x1 SWAP1 DUP2 LT PUSH2 0x2BF6 JUMPI PUSH2 0x2BF6 PUSH2 0x400D JUMP JUMPDEST PUSH1 0x20 MUL PUSH1 0x20 ADD ADD MLOAD DUP4 PUSH1 0x0 ADD MLOAD PUSH1 0x0 DUP2 MLOAD DUP2 LT PUSH2 0x2C15 JUMPI PUSH2 0x2C15 PUSH2 0x400D JUMP JUMPDEST PUSH1 0x20 MUL PUSH1 0x20 ADD ADD MLOAD PUSH2 0x2C27 SWAP2 SWAP1 PUSH2 0x4841 JUMP JUMPDEST DUP9 EQ ISZERO JUMPDEST ISZERO PUSH2 0x2C45 JUMPI POP PUSH1 0x9 SWAP10 POP SWAP1 SWAP8 POP SWAP6 POP PUSH2 0x2D1B SWAP5 POP POP POP POP POP JUMP JUMPDEST PUSH2 0x2C51 DUP3 DUP6 DUP10 DUP12 PUSH2 0x23A1 JUMP JUMPDEST SWAP5 POP PUSH1 0x0 DUP6 PUSH1 0xE DUP2 GT ISZERO PUSH2 0x2C67 JUMPI PUSH2 0x2C67 PUSH2 0x3A9D JUMP JUMPDEST EQ ISZERO DUP1 ISZERO PUSH2 0x2CF1 JUMPI POP PUSH1 0x1 DUP6 PUSH1 0xE DUP2 GT ISZERO PUSH2 0x2C84 JUMPI PUSH2 0x2C84 PUSH2 0x3A9D JUMP JUMPDEST EQ DUP1 PUSH2 0x2CA1 JUMPI POP PUSH1 0x2 DUP6 PUSH1 0xE DUP2 GT ISZERO PUSH2 0x2C9F JUMPI PUSH2 0x2C9F PUSH2 0x3A9D JUMP JUMPDEST EQ JUMPDEST DUP1 PUSH2 0x2CF1 JUMPI POP DUP2 MLOAD DUP1 MLOAD PUSH1 0x1 SWAP1 DUP2 LT PUSH2 0x2CBC JUMPI PUSH2 0x2CBC PUSH2 0x400D JUMP JUMPDEST PUSH1 0x20 MUL PUSH1 0x20 ADD ADD MLOAD DUP3 PUSH1 0x0 ADD MLOAD PUSH1 0x0 DUP2 MLOAD DUP2 LT PUSH2 0x2CDB JUMPI PUSH2 0x2CDB PUSH2 0x400D JUMP JUMPDEST PUSH1 0x20 MUL PUSH1 0x20 ADD ADD MLOAD PUSH2 0x2CED SWAP2 SWAP1 PUSH2 0x4841 JUMP JUMPDEST DUP8 EQ ISZERO JUMPDEST ISZERO PUSH2 0x2D0B JUMPI POP PUSH1 0xA SWAP10 POP SWAP1 SWAP8 POP SWAP6 POP PUSH2 0x2D1B SWAP5 POP POP POP POP POP JUMP JUMPDEST POP PUSH1 0x0 SWAP10 POP SWAP1 SWAP8 POP SWAP6 POP POP POP POP POP POP JUMPDEST SWAP2 SWAP4 SWAP1 SWAP3 POP JUMP JUMPDEST PUSH1 0x0 DUP1 PUSH1 0x0 DUP1 PUSH1 0x0 PUSH1 0x40 MLOAD DUP1 PUSH2 0x3A0 ADD PUSH1 0x40 MSTORE DUP1 PUSH1 0x3 PUSH2 0xFFFF AND DUP2 MSTORE PUSH1 0x20 ADD PUSH1 0x4 PUSH2 0xFFFF AND DUP2 MSTORE PUSH1 0x20 ADD PUSH1 0x5 PUSH2 0xFFFF AND DUP2 MSTORE PUSH1 0x20 ADD PUSH1 0x6 PUSH2 0xFFFF AND DUP2 MSTORE PUSH1 0x20 ADD PUSH1 0x7 PUSH2 0xFFFF AND DUP2 MSTORE PUSH1 0x20 ADD PUSH1 0x8 PUSH2 0xFFFF AND DUP2 MSTORE PUSH1 0x20 ADD PUSH1 0x9 PUSH2 0xFFFF AND DUP2 MSTORE PUSH1 0x20 ADD PUSH1 0xA PUSH2 0xFFFF AND DUP2 MSTORE PUSH1 0x20 ADD PUSH1 0xB PUSH2 0xFFFF AND DUP2 MSTORE PUSH1 0x20 ADD PUSH1 0xD PUSH2 0xFFFF AND DUP2 MSTORE PUSH1 0x20 ADD PUSH1 0xF PUSH2 0xFFFF AND DUP2 MSTORE PUSH1 0x20 ADD PUSH1 0x11 PUSH2 0xFFFF AND DUP2 MSTORE PUSH1 0x20 ADD PUSH1 0x13 PUSH2 0xFFFF AND DUP2 MSTORE PUSH1 0x20 ADD PUSH1 0x17 PUSH2 0xFFFF AND DUP2 MSTORE PUSH1 0x20 ADD PUSH1 0x1B PUSH2 0xFFFF AND DUP2 MSTORE PUSH1 0x20 ADD PUSH1 0x1F PUSH2 0xFFFF AND DUP2 MSTORE PUSH1 0x20 ADD PUSH1 0x23 PUSH2 0xFFFF AND DUP2 MSTORE PUSH1 0x20 ADD PUSH1 0x2B PUSH2 0xFFFF AND DUP2 MSTORE PUSH1 0x20 ADD PUSH1 0x33 PUSH2 0xFFFF AND DUP2 MSTORE PUSH1 0x20 ADD PUSH1 0x3B PUSH2 0xFFFF AND DUP2 MSTORE PUSH1 0x20 ADD PUSH1 0x43 PUSH2 0xFFFF AND DUP2 MSTORE PUSH1 0x20 ADD PUSH1 0x53 PUSH2 0xFFFF AND DUP2 MSTORE PUSH1 0x20 ADD PUSH1 0x63 PUSH2 0xFFFF AND DUP2 MSTORE PUSH1 0x20 ADD PUSH1 0x73 PUSH2 0xFFFF AND DUP2 MSTORE PUSH1 0x20 ADD PUSH1 0x83 PUSH2 0xFFFF AND DUP2 MSTORE PUSH1 0x20 ADD PUSH1 0xA3 PUSH2 0xFFFF AND DUP2 MSTORE PUSH1 0x20 ADD PUSH1 0xC3 PUSH2 0xFFFF AND DUP2 MSTORE PUSH1 0x20 ADD PUSH1 0xE3 PUSH2 0xFFFF AND DUP2 MSTORE PUSH1 0x20 ADD PUSH2 0x102 PUSH2 0xFFFF AND DUP2 MSTORE POP SWAP1 POP PUSH1 0x0 PUSH1 0x40 MLOAD DUP1 PUSH2 0x3A0 ADD PUSH1 0x40 MSTORE DUP1 PUSH1 0x0 PUSH1 0xFF AND DUP2 MSTORE PUSH1 0x20 ADD PUSH1 0x0 PUSH1 0xFF AND DUP2 MSTORE PUSH1 0x20 ADD PUSH1 0x0 PUSH1 0xFF AND DUP2 MSTORE PUSH1 0x20 ADD PUSH1 0x0 PUSH1 0xFF AND DUP2 MSTORE PUSH1 0x20 ADD PUSH1 0x0 PUSH1 0xFF AND DUP2 MSTORE PUSH1 0x20 ADD PUSH1 0x0 PUSH1 0xFF AND DUP2 MSTORE PUSH1 0x20 ADD PUSH1 0x0 PUSH1 0xFF AND DUP2 MSTORE PUSH1 0x20 ADD PUSH1 0x0 PUSH1 0xFF AND DUP2 MSTORE PUSH1 0x20 ADD PUSH1 0x1 PUSH1 0xFF AND DUP2 MSTORE PUSH1 0x20 ADD PUSH1 0x1 PUSH1 0xFF AND DUP2 MSTORE PUSH1 0x20 ADD PUSH1 0x1 PUSH1 0xFF AND DUP2 MSTORE PUSH1 0x20 ADD PUSH1 0x1 PUSH1 0xFF AND DUP2 MSTORE PUSH1 0x20 ADD PUSH1 0x2 PUSH1 0xFF AND DUP2 MSTORE PUSH1 0x20 ADD PUSH1 0x2 PUSH1 0xFF AND DUP2 MSTORE PUSH1 0x20 ADD PUSH1 0x2 PUSH1 0xFF AND DUP2 MSTORE PUSH1 0x20 ADD PUSH1 0x2 PUSH1 0xFF AND DUP2 MSTORE PUSH1 0x20 ADD PUSH1 0x3 PUSH1 0xFF AND DUP2 MSTORE PUSH1 0x20 ADD PUSH1 0x3 PUSH1 0xFF AND DUP2 MSTORE PUSH1 0x20 ADD PUSH1 0x3 PUSH1 0xFF AND DUP2 MSTORE PUSH1 0x20 ADD PUSH1 0x3 PUSH1 0xFF AND DUP2 MSTORE PUSH1 0x20 ADD PUSH1 0x4 PUSH1 0xFF AND DUP2 MSTORE PUSH1 0x20 ADD PUSH1 0x4 PUSH1 0xFF AND DUP2 MSTORE PUSH1 0x20 ADD PUSH1 0x4 PUSH1 0xFF AND DUP2 MSTORE PUSH1 0x20 ADD PUSH1 0x4 PUSH1 0xFF AND DUP2 MSTORE PUSH1 0x20 ADD PUSH1 0x5 PUSH1 0xFF AND DUP2 MSTORE PUSH1 0x20 ADD PUSH1 0x5 PUSH1 0xFF AND DUP2 MSTORE PUSH1 0x20 ADD PUSH1 0x5 PUSH1 0xFF AND DUP2 MSTORE PUSH1 0x20 ADD PUSH1 0x5 PUSH1 0xFF AND DUP2 MSTORE PUSH1 0x20 ADD PUSH1 0x0 PUSH1 0xFF AND DUP2 MSTORE POP SWAP1 POP PUSH1 0x0 PUSH1 0x40 MLOAD DUP1 PUSH2 0x3C0 ADD PUSH1 0x40 MSTORE DUP1 PUSH1 0x1 PUSH2 0xFFFF AND DUP2 MSTORE PUSH1 0x20 ADD PUSH1 0x2 PUSH2 0xFFFF AND DUP2 MSTORE PUSH1 0x20 ADD PUSH1 0x3 PUSH2 0xFFFF AND DUP2 MSTORE PUSH1 0x20 ADD PUSH1 0x4 PUSH2 0xFFFF AND DUP2 MSTORE PUSH1 0x20 ADD PUSH1 0x5 PUSH2 0xFFFF AND DUP2 MSTORE PUSH1 0x20 ADD PUSH1 0x7 PUSH2 0xFFFF AND DUP2 MSTORE PUSH1 0x20 ADD PUSH1 0x9 PUSH2 0xFFFF AND DUP2 MSTORE PUSH1 0x20 ADD PUSH1 0xD PUSH2 0xFFFF AND DUP2 MSTORE PUSH1 0x20 ADD PUSH1 0x11 PUSH2 0xFFFF AND DUP2 MSTORE PUSH1 0x20 ADD PUSH1 0x19 PUSH2 0xFFFF AND DUP2 MSTORE PUSH1 0x20 ADD PUSH1 0x21 PUSH2 0xFFFF AND DUP2 MSTORE PUSH1 0x20 ADD PUSH1 0x31 PUSH2 0xFFFF AND DUP2 MSTORE PUSH1 0x20 ADD PUSH1 0x41 PUSH2 0xFFFF AND DUP2 MSTORE PUSH1 0x20 ADD PUSH1 0x61 PUSH2 0xFFFF AND DUP2 MSTORE PUSH1 0x20 ADD PUSH1 0x81 PUSH2 0xFFFF AND DUP2 MSTORE PUSH1 0x20 ADD PUSH1 0xC1 PUSH2 0xFFFF AND DUP2 MSTORE PUSH1 0x20 ADD PUSH2 0x101 PUSH2 0xFFFF AND DUP2 MSTORE PUSH1 0x20 ADD PUSH2 0x181 PUSH2 0xFFFF AND DUP2 MSTORE PUSH1 0x20 ADD PUSH2 0x201 PUSH2 0xFFFF AND DUP2 MSTORE PUSH1 0x20 ADD PUSH2 0x301 PUSH2 0xFFFF AND DUP2 MSTORE PUSH1 0x20 ADD PUSH2 0x401 PUSH2 0xFFFF AND DUP2 MSTORE PUSH1 0x20 ADD PUSH2 0x601 PUSH2 0xFFFF AND DUP2 MSTORE PUSH1 0x20 ADD PUSH2 0x801 PUSH2 0xFFFF AND DUP2 MSTORE PUSH1 0x20 ADD PUSH2 0xC01 PUSH2 0xFFFF AND DUP2 MSTORE PUSH1 0x20 ADD PUSH2 0x1001 PUSH2 0xFFFF AND DUP2 MSTORE PUSH1 0x20 ADD PUSH2 0x1801 PUSH2 0xFFFF AND DUP2 MSTORE PUSH1 0x20 ADD PUSH2 0x2001 PUSH2 0xFFFF AND DUP2 MSTORE PUSH1 0x20 ADD PUSH2 0x3001 PUSH2 0xFFFF AND DUP2 MSTORE PUSH1 0x20 ADD PUSH2 0x4001 PUSH2 0xFFFF AND DUP2 MSTORE PUSH1 0x20 ADD PUSH2 0x6001 PUSH2 0xFFFF AND DUP2 MSTORE POP SWAP1 POP PUSH1 0x0 PUSH1 0x40 MLOAD DUP1 PUSH2 0x3C0 ADD PUSH1 0x40 MSTORE DUP1 PUSH1 0x0 PUSH1 0xFF AND DUP2 MSTORE PUSH1 0x20 ADD PUSH1 0x0 PUSH1 0xFF AND DUP2 MSTORE PUSH1 0x20 ADD PUSH1 0x0 PUSH1 0xFF AND DUP2 MSTORE PUSH1 0x20 ADD PUSH1 0x0 PUSH1 0xFF AND DUP2 MSTORE PUSH1 0x20 ADD PUSH1 0x1 PUSH1 0xFF AND DUP2 MSTORE PUSH1 0x20 ADD PUSH1 0x1 PUSH1 0xFF AND DUP2 MSTORE PUSH1 0x20 ADD PUSH1 0x2 PUSH1 0xFF AND DUP2 MSTORE PUSH1 0x20 ADD PUSH1 0x2 PUSH1 0xFF AND DUP2 MSTORE PUSH1 0x20 ADD PUSH1 0x3 PUSH1 0xFF AND DUP2 MSTORE PUSH1 0x20 ADD PUSH1 0x3 PUSH1 0xFF AND DUP2 MSTORE PUSH1 0x20 ADD PUSH1 0x4 PUSH1 0xFF AND DUP2 MSTORE PUSH1 0x20 ADD PUSH1 0x4 PUSH1 0xFF AND DUP2 MSTORE PUSH1 0x20 ADD PUSH1 0x5 PUSH1 0xFF AND DUP2 MSTORE PUSH1 0x20 ADD PUSH1 0x5 PUSH1 0xFF AND DUP2 MSTORE PUSH1 0x20 ADD PUSH1 0x6 PUSH1 0xFF AND DUP2 MSTORE PUSH1 0x20 ADD PUSH1 0x6 PUSH1 0xFF AND DUP2 MSTORE PUSH1 0x20 ADD PUSH1 0x7 PUSH1 0xFF AND DUP2 MSTORE PUSH1 0x20 ADD PUSH1 0x7 PUSH1 0xFF AND DUP2 MSTORE PUSH1 0x20 ADD PUSH1 0x8 PUSH1 0xFF AND DUP2 MSTORE PUSH1 0x20 ADD PUSH1 0x8 PUSH1 0xFF AND DUP2 MSTORE PUSH1 0x20 ADD PUSH1 0x9 PUSH1 0xFF AND DUP2 MSTORE PUSH1 0x20 ADD PUSH1 0x9 PUSH1 0xFF AND DUP2 MSTORE PUSH1 0x20 ADD PUSH1 0xA PUSH1 0xFF AND DUP2 MSTORE PUSH1 0x20 ADD PUSH1 0xA PUSH1 0xFF AND DUP2 MSTORE PUSH1 0x20 ADD PUSH1 0xB PUSH1 0xFF AND DUP2 MSTORE PUSH1 0x20 ADD PUSH1 0xB PUSH1 0xFF AND DUP2 MSTORE PUSH1 0x20 ADD PUSH1 0xC PUSH1 0xFF AND DUP2 MSTORE PUSH1 0x20 ADD PUSH1 0xC PUSH1 0xFF AND DUP2 MSTORE PUSH1 0x20 ADD PUSH1 0xD PUSH1 0xFF AND DUP2 MSTORE PUSH1 0x20 ADD PUSH1 0xD PUSH1 0xFF AND DUP2 MSTORE POP SWAP1 POP PUSH1 0x0 JUMPDEST DUP8 PUSH2 0x100 EQ PUSH2 0x353B JUMPI PUSH2 0x325C DUP13 DUP13 PUSH2 0x376F JUMP JUMPDEST SWAP9 POP SWAP1 POP PUSH1 0x0 DUP2 PUSH1 0xE DUP2 GT ISZERO PUSH2 0x3274 JUMPI PUSH2 0x3274 PUSH2 0x3A9D JUMP JUMPDEST EQ PUSH2 0x3288 JUMPI SWAP8 POP PUSH2 0xE57 SWAP7 POP POP POP POP POP POP POP JUMP JUMPDEST PUSH2 0x100 DUP9 LT ISZERO PUSH2 0x32FE JUMPI DUP12 MLOAD MLOAD PUSH1 0x20 DUP14 ADD MLOAD EQ ISZERO PUSH2 0x32B1 JUMPI PUSH1 0x2 SWAP9 POP POP POP POP POP POP POP POP POP PUSH2 0xE57 JUMP JUMPDEST DUP8 PUSH1 0xF8 SHL DUP13 PUSH1 0x0 ADD MLOAD DUP14 PUSH1 0x20 ADD MLOAD DUP2 MLOAD DUP2 LT PUSH2 0x32CF JUMPI PUSH2 0x32CF PUSH2 0x400D JUMP JUMPDEST PUSH1 0x20 ADD ADD SWAP1 PUSH1 0x1 PUSH1 0x1 PUSH1 0xF8 SHL SUB NOT AND SWAP1 DUP2 PUSH1 0x0 BYTE SWAP1 MSTORE8 POP PUSH1 0x20 DUP13 ADD DUP1 MLOAD SWAP1 PUSH2 0x32F6 DUP3 PUSH2 0x40D9 JUMP JUMPDEST SWAP1 MSTORE POP PUSH2 0x3249 JUMP JUMPDEST PUSH2 0x100 DUP9 GT ISZERO PUSH2 0x3529 JUMPI PUSH1 0x0 PUSH2 0x3316 PUSH2 0x101 DUP11 PUSH2 0x45A3 JUMP JUMPDEST SWAP9 POP PUSH1 0x1D DUP10 LT PUSH2 0x3332 JUMPI PUSH1 0xC SWAP10 POP POP POP POP POP POP POP POP POP POP PUSH2 0xE57 JUMP JUMPDEST PUSH2 0x3355 DUP14 DUP7 DUP12 PUSH1 0x1D DUP2 LT PUSH2 0x3348 JUMPI PUSH2 0x3348 PUSH2 0x400D JUMP JUMPDEST PUSH1 0x20 MUL ADD MLOAD PUSH1 0xFF AND PUSH2 0x2031 JUMP JUMPDEST SWAP1 SWAP3 POP SWAP1 POP PUSH1 0x0 DUP3 PUSH1 0xE DUP2 GT ISZERO PUSH2 0x336E JUMPI PUSH2 0x336E PUSH2 0x3A9D JUMP JUMPDEST EQ PUSH2 0x3383 JUMPI POP SWAP8 POP PUSH2 0xE57 SWAP7 POP POP POP POP POP POP POP JUMP JUMPDEST DUP1 DUP7 DUP11 PUSH1 0x1D DUP2 LT PUSH2 0x3396 JUMPI PUSH2 0x3396 PUSH2 0x400D JUMP JUMPDEST PUSH1 0x20 MUL ADD MLOAD PUSH2 0xFFFF AND PUSH2 0x33A9 SWAP2 SWAP1 PUSH2 0x4841 JUMP JUMPDEST SWAP8 POP PUSH2 0x33B5 DUP14 DUP13 PUSH2 0x376F JUMP JUMPDEST SWAP10 POP SWAP2 POP PUSH1 0x0 DUP3 PUSH1 0xE DUP2 GT ISZERO PUSH2 0x33CD JUMPI PUSH2 0x33CD PUSH2 0x3A9D JUMP JUMPDEST EQ PUSH2 0x33E2 JUMPI POP SWAP8 POP PUSH2 0xE57 SWAP7 POP POP POP POP POP POP POP JUMP JUMPDEST PUSH2 0x33F8 DUP14 DUP5 DUP12 PUSH1 0x1E DUP2 LT PUSH2 0x3348 JUMPI PUSH2 0x3348 PUSH2 0x400D JUMP JUMPDEST SWAP1 SWAP3 POP SWAP1 POP PUSH1 0x0 DUP3 PUSH1 0xE DUP2 GT ISZERO PUSH2 0x3411 JUMPI PUSH2 0x3411 PUSH2 0x3A9D JUMP JUMPDEST EQ PUSH2 0x3426 JUMPI POP SWAP8 POP PUSH2 0xE57 SWAP7 POP POP POP POP POP POP POP JUMP JUMPDEST DUP1 DUP5 DUP11 PUSH1 0x1E DUP2 LT PUSH2 0x3439 JUMPI PUSH2 0x3439 PUSH2 0x400D JUMP JUMPDEST PUSH1 0x20 MUL ADD MLOAD PUSH2 0xFFFF AND PUSH2 0x344C SWAP2 SWAP1 PUSH2 0x4841 JUMP JUMPDEST SWAP7 POP DUP13 PUSH1 0x20 ADD MLOAD DUP8 GT ISZERO PUSH2 0x346C JUMPI PUSH1 0xD SWAP10 POP POP POP POP POP POP POP POP POP POP PUSH2 0xE57 JUMP JUMPDEST DUP13 MLOAD MLOAD PUSH1 0x20 DUP15 ADD MLOAD PUSH2 0x347F SWAP1 DUP11 SWAP1 PUSH2 0x4841 JUMP JUMPDEST GT ISZERO PUSH2 0x3497 JUMPI PUSH1 0x2 SWAP10 POP POP POP POP POP POP POP POP POP POP PUSH2 0xE57 JUMP JUMPDEST DUP8 ISZERO PUSH2 0x3523 JUMPI PUSH2 0x34A8 PUSH1 0x1 DUP10 PUSH2 0x45A3 JUMP JUMPDEST SWAP8 POP DUP13 PUSH1 0x0 ADD MLOAD DUP8 DUP15 PUSH1 0x20 ADD MLOAD PUSH2 0x34BF SWAP2 SWAP1 PUSH2 0x45A3 JUMP JUMPDEST DUP2 MLOAD DUP2 LT PUSH2 0x34CF JUMPI PUSH2 0x34CF PUSH2 0x400D JUMP JUMPDEST PUSH1 0x20 ADD ADD MLOAD PUSH1 0xF8 SHR PUSH1 0xF8 SHL DUP14 PUSH1 0x0 ADD MLOAD DUP15 PUSH1 0x20 ADD MLOAD DUP2 MLOAD DUP2 LT PUSH2 0x34F4 JUMPI PUSH2 0x34F4 PUSH2 0x400D JUMP JUMPDEST PUSH1 0x20 ADD ADD SWAP1 PUSH1 0x1 PUSH1 0x1 PUSH1 0xF8 SHL SUB NOT AND SWAP1 DUP2 PUSH1 0x0 BYTE SWAP1 MSTORE8 POP PUSH1 0x20 DUP14 ADD DUP1 MLOAD SWAP1 PUSH2 0x351B DUP3 PUSH2 0x40D9 JUMP JUMPDEST SWAP1 MSTORE POP PUSH2 0x3497 JUMP JUMPDEST POP PUSH2 0x3249 JUMP JUMPDEST DUP7 DUP13 PUSH1 0x20 ADD DUP2 DUP2 MLOAD PUSH2 0x32F6 SWAP2 SWAP1 PUSH2 0x4841 JUMP JUMPDEST POP PUSH1 0x0 SWAP12 SWAP11 POP POP POP POP POP POP POP POP POP POP POP JUMP JUMPDEST PUSH1 0x0 PUSH1 0x60 DUP2 DUP1 DUP1 PUSH2 0x3561 PUSH1 0x1E PUSH2 0x11E PUSH2 0x4841 JUMP JUMPDEST PUSH1 0x1 PUSH1 0x1 PUSH1 0x40 SHL SUB DUP2 GT ISZERO PUSH2 0x3578 JUMPI PUSH2 0x3578 PUSH2 0x3966 JUMP JUMPDEST PUSH1 0x40 MLOAD SWAP1 DUP1 DUP3 MSTORE DUP1 PUSH1 0x20 MUL PUSH1 0x20 ADD DUP3 ADD PUSH1 0x40 MSTORE DUP1 ISZERO PUSH2 0x35A1 JUMPI DUP2 PUSH1 0x20 ADD PUSH1 0x20 DUP3 MUL DUP1 CALLDATASIZE DUP4 CALLDATACOPY ADD SWAP1 POP JUMPDEST POP PUSH1 0x40 DUP1 MLOAD PUSH2 0x260 DUP2 ADD DUP3 MSTORE PUSH1 0x10 DUP2 MSTORE PUSH1 0x11 PUSH1 0x20 DUP3 ADD MSTORE PUSH1 0x12 SWAP2 DUP2 ADD SWAP2 SWAP1 SWAP2 MSTORE PUSH1 0x0 PUSH1 0x60 DUP3 ADD DUP2 SWAP1 MSTORE PUSH1 0x8 PUSH1 0x80 DUP4 ADD MSTORE PUSH1 0x7 PUSH1 0xA0 DUP4 ADD MSTORE PUSH1 0x9 PUSH1 0xC0 DUP4 ADD MSTORE PUSH1 0x6 PUSH1 0xE0 DUP4 ADD MSTORE PUSH1 0xA PUSH2 0x100 DUP4 ADD MSTORE PUSH1 0x5 PUSH2 0x120 DUP4 ADD MSTORE PUSH1 0xB PUSH2 0x140 DUP4 ADD MSTORE PUSH1 0x4 PUSH2 0x160 DUP4 ADD DUP2 SWAP1 MSTORE PUSH1 0xC PUSH2 0x180 DUP5 ADD MSTORE PUSH1 0x3 PUSH2 0x1A0 DUP5 ADD MSTORE PUSH1 0xD PUSH2 0x1C0 DUP5 ADD MSTORE PUSH1 0x2 PUSH2 0x1E0 DUP5 ADD MSTORE PUSH1 0xE PUSH2 0x200 DUP5 ADD MSTORE PUSH1 0x1 PUSH2 0x220 DUP5 ADD MSTORE PUSH1 0xF PUSH2 0x240 DUP5 ADD MSTORE SWAP3 SWAP4 POP SWAP2 PUSH2 0x364F SWAP1 DUP10 SWAP1 PUSH2 0x2031 JUMP JUMPDEST SWAP6 POP SWAP2 POP PUSH1 0x0 DUP3 PUSH1 0xE DUP2 GT ISZERO PUSH2 0x3667 JUMPI PUSH2 0x3667 PUSH2 0x3A9D JUMP JUMPDEST EQ PUSH2 0x3678 JUMPI POP SWAP7 SWAP1 SWAP6 POP SWAP4 POP POP POP POP JUMP JUMPDEST PUSH2 0x3683 PUSH1 0x4 DUP7 PUSH2 0x4841 JUMP JUMPDEST SWAP5 POP PUSH1 0x0 SWAP4 POP JUMPDEST DUP5 DUP5 LT ISZERO PUSH2 0x370C JUMPI PUSH2 0x369D DUP9 PUSH1 0x3 PUSH2 0x2031 JUMP JUMPDEST DUP5 DUP4 DUP8 PUSH1 0x13 DUP2 LT PUSH2 0x36B0 JUMPI PUSH2 0x36B0 PUSH2 0x400D JUMP JUMPDEST PUSH1 0x20 MUL ADD MLOAD PUSH1 0xFF AND DUP2 MLOAD DUP2 LT PUSH2 0x36C8 JUMPI PUSH2 0x36C8 PUSH2 0x400D JUMP JUMPDEST PUSH1 0x20 SWAP1 DUP2 MUL SWAP2 SWAP1 SWAP2 ADD ADD MSTORE SWAP2 POP PUSH1 0x0 DUP3 PUSH1 0xE DUP2 GT ISZERO PUSH2 0x36E9 JUMPI PUSH2 0x36E9 PUSH2 0x3A9D JUMP JUMPDEST EQ PUSH2 0x36FA JUMPI POP SWAP7 SWAP1 SWAP6 POP SWAP4 POP POP POP POP JUMP JUMPDEST DUP4 PUSH2 0x3704 DUP2 PUSH2 0x40D9 JUMP JUMPDEST SWAP5 POP POP PUSH2 0x368A JUMP JUMPDEST PUSH1 0x13 DUP5 LT ISZERO PUSH2 0x375F JUMPI PUSH1 0x0 DUP4 DUP3 DUP7 PUSH1 0x13 DUP2 LT PUSH2 0x372A JUMPI PUSH2 0x372A PUSH2 0x400D JUMP JUMPDEST PUSH1 0x20 MUL ADD MLOAD PUSH1 0xFF AND DUP2 MLOAD DUP2 LT PUSH2 0x3742 JUMPI PUSH2 0x3742 PUSH2 0x400D JUMP JUMPDEST PUSH1 0x20 SWAP1 DUP2 MUL SWAP2 SWAP1 SWAP2 ADD ADD MSTORE DUP4 PUSH2 0x3757 DUP2 PUSH2 0x40D9 JUMP JUMPDEST SWAP5 POP POP PUSH2 0x370C JUMP JUMPDEST POP PUSH1 0x0 SWAP8 SWAP2 SWAP7 POP SWAP1 SWAP5 POP POP POP POP POP JUMP JUMPDEST PUSH1 0x0 DUP1 PUSH1 0x1 DUP2 DUP1 DUP1 DUP1 DUP1 JUMPDEST PUSH1 0xF DUP7 GT PUSH2 0x386B JUMPI PUSH1 0x0 PUSH2 0x378F DUP12 PUSH1 0x1 PUSH2 0x2031 JUMP JUMPDEST SWAP1 SWAP3 POP SWAP1 POP PUSH1 0x0 DUP3 PUSH1 0xE DUP2 GT ISZERO PUSH2 0x37A8 JUMPI PUSH2 0x37A8 PUSH2 0x3A9D JUMP JUMPDEST EQ PUSH2 0x37BF JUMPI POP SWAP7 POP PUSH1 0x0 SWAP6 POP PUSH2 0x1A4B SWAP5 POP POP POP POP POP JUMP JUMPDEST DUP10 MLOAD DUP1 MLOAD SWAP7 DUP3 OR SWAP7 DUP9 SWAP1 DUP2 LT PUSH2 0x37D7 JUMPI PUSH2 0x37D7 PUSH2 0x400D JUMP JUMPDEST PUSH1 0x20 MUL PUSH1 0x20 ADD ADD MLOAD SWAP4 POP DUP4 DUP6 PUSH2 0x37ED SWAP2 SWAP1 PUSH2 0x4841 JUMP JUMPDEST DUP7 LT ISZERO PUSH2 0x3838 JUMPI PUSH1 0x20 DUP11 ADD MLOAD PUSH1 0x0 SWAP1 PUSH2 0x3806 DUP8 DUP10 PUSH2 0x45A3 JUMP JUMPDEST PUSH2 0x3810 SWAP1 DUP7 PUSH2 0x4841 JUMP JUMPDEST DUP2 MLOAD DUP2 LT PUSH2 0x3820 JUMPI PUSH2 0x3820 PUSH2 0x400D JUMP JUMPDEST PUSH1 0x20 MUL PUSH1 0x20 ADD ADD MLOAD SWAP9 POP SWAP9 POP POP POP POP POP POP POP POP PUSH2 0x1A4B JUMP JUMPDEST PUSH2 0x3842 DUP5 DUP5 PUSH2 0x4841 JUMP JUMPDEST SWAP3 POP PUSH2 0x384E DUP5 DUP7 PUSH2 0x4841 JUMP JUMPDEST PUSH1 0x1 SWAP7 DUP8 SHL SWAP7 SHL SWAP5 POP DUP7 SWAP1 POP PUSH2 0x3863 DUP2 PUSH2 0x40D9 JUMP JUMPDEST SWAP7 POP POP PUSH2 0x377A JUMP JUMPDEST POP PUSH1 0xC SWAP10 PUSH1 0x0 SWAP10 POP SWAP8 POP POP POP POP POP POP POP POP JUMP JUMPDEST PUSH1 0x40 MLOAD DUP1 PUSH2 0x200 ADD PUSH1 0x40 MSTORE DUP1 PUSH1 0x10 SWAP1 PUSH1 0x20 DUP3 MUL DUP1 CALLDATASIZE DUP4 CALLDATACOPY POP SWAP2 SWAP3 SWAP2 POP POP JUMP JUMPDEST PUSH1 0x1 PUSH1 0x1 PUSH1 0xA0 SHL SUB DUP2 AND DUP2 EQ PUSH2 0x2F4 JUMPI PUSH1 0x0 DUP1 REVERT JUMPDEST PUSH1 0x0 PUSH1 0x20 DUP3 DUP5 SUB SLT ISZERO PUSH2 0x38C4 JUMPI PUSH1 0x0 DUP1 REVERT JUMPDEST DUP2 CALLDATALOAD PUSH2 0xE57 DUP2 PUSH2 0x389D JUMP JUMPDEST PUSH1 0x0 DUP1 PUSH1 0x0 PUSH1 0x60 DUP5 DUP7 SUB SLT ISZERO PUSH2 0x38E4 JUMPI PUSH1 0x0 DUP1 REVERT JUMPDEST POP POP DUP2 CALLDATALOAD SWAP4 PUSH1 0x20 DUP4 ADD CALLDATALOAD SWAP4 POP PUSH1 0x40 SWAP1 SWAP3 ADD CALLDATALOAD SWAP2 SWAP1 POP JUMP JUMPDEST PUSH1 0x0 JUMPDEST DUP4 DUP2 LT ISZERO PUSH2 0x3916 JUMPI DUP2 DUP2 ADD MLOAD DUP4 DUP3 ADD MSTORE PUSH1 0x20 ADD PUSH2 0x38FE JUMP JUMPDEST DUP4 DUP2 GT ISZERO PUSH2 0xFA9 JUMPI POP POP PUSH1 0x0 SWAP2 ADD MSTORE JUMP JUMPDEST PUSH1 0x0 DUP2 MLOAD DUP1 DUP5 MSTORE PUSH2 0x393F DUP2 PUSH1 0x20 DUP7 ADD PUSH1 0x20 DUP7 ADD PUSH2 0x38FB JUMP JUMPDEST PUSH1 0x1F ADD PUSH1 0x1F NOT AND SWAP3 SWAP1 SWAP3 ADD PUSH1 0x20 ADD SWAP3 SWAP2 POP POP JUMP JUMPDEST PUSH1 0x20 DUP2 MSTORE PUSH1 0x0 PUSH2 0xE57 PUSH1 0x20 DUP4 ADD DUP5 PUSH2 0x3927 JUMP JUMPDEST PUSH4 0x4E487B71 PUSH1 0xE0 SHL PUSH1 0x0 MSTORE PUSH1 0x41 PUSH1 0x4 MSTORE PUSH1 0x24 PUSH1 0x0 REVERT JUMPDEST PUSH1 0x40 MLOAD PUSH1 0xA0 DUP2 ADD PUSH1 0x1 PUSH1 0x1 PUSH1 0x40 SHL SUB DUP2 GT DUP3 DUP3 LT OR ISZERO PUSH2 0x399E JUMPI PUSH2 0x399E PUSH2 0x3966 JUMP JUMPDEST PUSH1 0x40 MSTORE SWAP1 JUMP JUMPDEST PUSH1 0x40 MLOAD PUSH2 0x260 DUP2 ADD PUSH1 0x1 PUSH1 0x1 PUSH1 0x40 SHL SUB DUP2 GT DUP3 DUP3 LT OR ISZERO PUSH2 0x399E JUMPI PUSH2 0x399E PUSH2 0x3966 JUMP JUMPDEST PUSH1 0x40 MLOAD PUSH1 0x1F DUP3 ADD PUSH1 0x1F NOT AND DUP2 ADD PUSH1 0x1 PUSH1 0x1 PUSH1 0x40 SHL SUB DUP2 GT DUP3 DUP3 LT OR ISZERO PUSH2 0x39EF JUMPI PUSH2 0x39EF PUSH2 0x3966 JUMP JUMPDEST PUSH1 0x40 MSTORE SWAP2 SWAP1 POP JUMP JUMPDEST PUSH1 0x0 PUSH1 0x1 PUSH1 0x1 PUSH1 0x40 SHL SUB DUP3 GT ISZERO PUSH2 0x3A10 JUMPI PUSH2 0x3A10 PUSH2 0x3966 JUMP JUMPDEST POP PUSH1 0x1F ADD PUSH1 0x1F NOT AND PUSH1 0x20 ADD SWAP1 JUMP JUMPDEST PUSH1 0x0 PUSH1 0x20 DUP3 DUP5 SUB SLT ISZERO PUSH2 0x3A30 JUMPI PUSH1 0x0 DUP1 REVERT JUMPDEST DUP2 CALLDATALOAD PUSH1 0x1 PUSH1 0x1 PUSH1 0x40 SHL SUB DUP2 GT ISZERO PUSH2 0x3A46 JUMPI PUSH1 0x0 DUP1 REVERT JUMPDEST DUP3 ADD PUSH1 0x1F DUP2 ADD DUP5 SGT PUSH2 0x3A57 JUMPI PUSH1 0x0 DUP1 REVERT JUMPDEST DUP1 CALLDATALOAD PUSH2 0x3A6A PUSH2 0x3A65 DUP3 PUSH2 0x39F7 JUMP JUMPDEST PUSH2 0x39C7 JUMP JUMPDEST DUP2 DUP2 MSTORE DUP6 PUSH1 0x20 DUP4 DUP6 ADD ADD GT ISZERO PUSH2 0x3A7F JUMPI PUSH1 0x0 DUP1 REVERT JUMPDEST DUP2 PUSH1 0x20 DUP5 ADD PUSH1 0x20 DUP4 ADD CALLDATACOPY PUSH1 0x0 SWAP2 DUP2 ADD PUSH1 0x20 ADD SWAP2 SWAP1 SWAP2 MSTORE SWAP5 SWAP4 POP POP POP POP JUMP JUMPDEST PUSH4 0x4E487B71 PUSH1 0xE0 SHL PUSH1 0x0 MSTORE PUSH1 0x21 PUSH1 0x4 MSTORE PUSH1 0x24 PUSH1 0x0 REVERT JUMPDEST PUSH1 0x40 DUP2 MSTORE PUSH1 0x0 PUSH2 0x3AC6 PUSH1 0x40 DUP4 ADD DUP6 PUSH2 0x3927 JUMP JUMPDEST SWAP1 POP PUSH1 0xF DUP4 LT PUSH2 0x3AE6 JUMPI PUSH4 0x4E487B71 PUSH1 0xE0 SHL PUSH1 0x0 MSTORE PUSH1 0x21 PUSH1 0x4 MSTORE PUSH1 0x24 PUSH1 0x0 REVERT JUMPDEST DUP3 PUSH1 0x20 DUP4 ADD MSTORE SWAP4 SWAP3 POP POP POP JUMP JUMPDEST PUSH1 0x0 PUSH1 0x20 DUP3 DUP5 SUB SLT ISZERO PUSH2 0x3B05 JUMPI PUSH1 0x0 DUP1 REVERT JUMPDEST POP CALLDATALOAD SWAP2 SWAP1 POP JUMP JUMPDEST PUSH1 0x0 DUP1 PUSH1 0x0 PUSH1 0x60 DUP5 DUP7 SUB SLT ISZERO PUSH2 0x3B21 JUMPI PUSH1 0x0 DUP1 REVERT JUMPDEST DUP4 CALLDATALOAD PUSH2 0x3B2C DUP2 PUSH2 0x389D JUMP JUMPDEST SWAP3 POP PUSH1 0x20 DUP5 ADD CALLDATALOAD PUSH2 0x3B3C DUP2 PUSH2 0x389D JUMP JUMPDEST SWAP2 POP PUSH1 0x40 DUP5 ADD CALLDATALOAD PUSH2 0x3B4C DUP2 PUSH2 0x389D JUMP JUMPDEST DUP1 SWAP2 POP POP SWAP3 POP SWAP3 POP SWAP3 JUMP JUMPDEST DUP1 MLOAD PUSH3 0xFFFFFF DUP2 AND DUP2 EQ PUSH2 0x3B6A JUMPI PUSH1 0x0 DUP1 REVERT JUMPDEST SWAP2 SWAP1 POP JUMP JUMPDEST DUP1 MLOAD PUSH2 0x3B6A DUP2 PUSH2 0x389D JUMP JUMPDEST PUSH1 0x0 DUP3 PUSH1 0x1F DUP4 ADD SLT PUSH2 0x3B8B JUMPI PUSH1 0x0 DUP1 REVERT JUMPDEST DUP2 MLOAD PUSH2 0x3B99 PUSH2 0x3A65 DUP3 PUSH2 0x39F7 JUMP JUMPDEST DUP2 DUP2 MSTORE DUP5 PUSH1 0x20 DUP4 DUP7 ADD ADD GT ISZERO PUSH2 0x3BAE JUMPI PUSH1 0x0 DUP1 REVERT JUMPDEST PUSH2 0x2664 DUP3 PUSH1 0x20 DUP4 ADD PUSH1 0x20 DUP8 ADD PUSH2 0x38FB JUMP JUMPDEST PUSH1 0x0 PUSH1 0xA0 DUP3 DUP5 SUB SLT ISZERO PUSH2 0x3BD1 JUMPI PUSH1 0x0 DUP1 REVERT JUMPDEST PUSH2 0x3BD9 PUSH2 0x397C JUMP JUMPDEST SWAP1 POP DUP2 MLOAD PUSH1 0x1 PUSH1 0x1 PUSH1 0x40 SHL SUB DUP1 DUP3 GT ISZERO PUSH2 0x3BF2 JUMPI PUSH1 0x0 DUP1 REVERT JUMPDEST PUSH2 0x3BFE DUP6 DUP4 DUP7 ADD PUSH2 0x3B7A JUMP JUMPDEST DUP4 MSTORE PUSH1 0x20 DUP5 ADD MLOAD SWAP2 POP DUP1 DUP3 GT ISZERO PUSH2 0x3C14 JUMPI PUSH1 0x0 DUP1 REVERT JUMPDEST PUSH2 0x3C20 DUP6 DUP4 DUP7 ADD PUSH2 0x3B7A JUMP JUMPDEST PUSH1 0x20 DUP5 ADD MSTORE PUSH1 0x40 DUP5 ADD MLOAD SWAP2 POP DUP1 DUP3 GT ISZERO PUSH2 0x3C39 JUMPI PUSH1 0x0 DUP1 REVERT JUMPDEST PUSH2 0x3C45 DUP6 DUP4 DUP7 ADD PUSH2 0x3B7A JUMP JUMPDEST PUSH1 0x40 DUP5 ADD MSTORE PUSH1 0x60 DUP5 ADD MLOAD SWAP2 POP DUP1 DUP3 GT ISZERO PUSH2 0x3C5E JUMPI PUSH1 0x0 DUP1 REVERT JUMPDEST PUSH2 0x3C6A DUP6 DUP4 DUP7 ADD PUSH2 0x3B7A JUMP JUMPDEST PUSH1 0x60 DUP5 ADD MSTORE PUSH1 0x80 DUP5 ADD MLOAD SWAP2 POP DUP1 DUP3 GT ISZERO PUSH2 0x3C83 JUMPI PUSH1 0x0 DUP1 REVERT JUMPDEST POP PUSH2 0x3C90 DUP5 DUP3 DUP6 ADD PUSH2 0x3B7A JUMP JUMPDEST PUSH1 0x80 DUP4 ADD MSTORE POP SWAP3 SWAP2 POP POP JUMP JUMPDEST PUSH1 0x0 PUSH1 0x1 PUSH1 0x1 PUSH1 0x40 SHL SUB DUP3 GT ISZERO PUSH2 0x3CB5 JUMPI PUSH2 0x3CB5 PUSH2 0x3966 JUMP JUMPDEST POP PUSH1 0x5 SHL PUSH1 0x20 ADD SWAP1 JUMP JUMPDEST PUSH1 0x0 DUP3 PUSH1 0x1F DUP4 ADD SLT PUSH2 0x3CD0 JUMPI PUSH1 0x0 DUP1 REVERT JUMPDEST DUP2 MLOAD PUSH1 0x20 PUSH2 0x3CE0 PUSH2 0x3A65 DUP4 PUSH2 0x3C9C JUMP JUMPDEST DUP3 DUP2 MSTORE PUSH1 0x5 SWAP3 SWAP1 SWAP3 SHL DUP5 ADD DUP2 ADD SWAP2 DUP2 DUP2 ADD SWAP1 DUP7 DUP5 GT ISZERO PUSH2 0x3CFF JUMPI PUSH1 0x0 DUP1 REVERT JUMPDEST DUP3 DUP7 ADD JUMPDEST DUP5 DUP2 LT ISZERO PUSH2 0x3D3E JUMPI DUP1 MLOAD PUSH1 0x1 PUSH1 0x1 PUSH1 0x40 SHL SUB DUP2 GT ISZERO PUSH2 0x3D22 JUMPI PUSH1 0x0 DUP1 DUP2 REVERT JUMPDEST PUSH2 0x3D30 DUP10 DUP7 DUP4 DUP12 ADD ADD PUSH2 0x3B7A JUMP JUMPDEST DUP5 MSTORE POP SWAP2 DUP4 ADD SWAP2 DUP4 ADD PUSH2 0x3D03 JUMP JUMPDEST POP SWAP7 SWAP6 POP POP POP POP POP POP JUMP JUMPDEST PUSH1 0x0 DUP3 PUSH1 0x1F DUP4 ADD SLT PUSH2 0x3D5A JUMPI PUSH1 0x0 DUP1 REVERT JUMPDEST DUP2 MLOAD PUSH1 0x20 PUSH2 0x3D6A PUSH2 0x3A65 DUP4 PUSH2 0x3C9C JUMP JUMPDEST DUP3 DUP2 MSTORE PUSH1 0x5 SWAP3 SWAP1 SWAP3 SHL DUP5 ADD DUP2 ADD SWAP2 DUP2 DUP2 ADD SWAP1 DUP7 DUP5 GT ISZERO PUSH2 0x3D89 JUMPI PUSH1 0x0 DUP1 REVERT JUMPDEST DUP3 DUP7 ADD JUMPDEST DUP5 DUP2 LT ISZERO PUSH2 0x3D3E JUMPI DUP1 MLOAD PUSH2 0x3DA0 DUP2 PUSH2 0x389D JUMP JUMPDEST DUP4 MSTORE SWAP2 DUP4 ADD SWAP2 DUP4 ADD PUSH2 0x3D8D JUMP JUMPDEST PUSH1 0x0 PUSH1 0x20 DUP3 DUP5 SUB SLT ISZERO PUSH2 0x3DBF JUMPI PUSH1 0x0 DUP1 REVERT JUMPDEST DUP2 MLOAD PUSH1 0x1 PUSH1 0x1 PUSH1 0x40 SHL SUB DUP1 DUP3 GT ISZERO PUSH2 0x3DD6 JUMPI PUSH1 0x0 DUP1 REVERT JUMPDEST SWAP1 DUP4 ADD SWAP1 PUSH2 0x260 DUP3 DUP7 SUB SLT ISZERO PUSH2 0x3DEB JUMPI PUSH1 0x0 DUP1 REVERT JUMPDEST PUSH2 0x3DF3 PUSH2 0x39A4 JUMP JUMPDEST PUSH2 0x3DFC DUP4 PUSH2 0x3B57 JUMP JUMPDEST DUP2 MSTORE PUSH2 0x3E0A PUSH1 0x20 DUP5 ADD PUSH2 0x3B57 JUMP JUMPDEST PUSH1 0x20 DUP3 ADD MSTORE PUSH1 0x40 DUP4 ADD MLOAD PUSH1 0x40 DUP3 ADD MSTORE PUSH2 0x3E25 PUSH1 0x60 DUP5 ADD PUSH2 0x3B6F JUMP JUMPDEST PUSH1 0x60 DUP3 ADD MSTORE PUSH1 0x80 DUP4 ADD MLOAD DUP3 DUP2 GT ISZERO PUSH2 0x3E3C JUMPI PUSH1 0x0 DUP1 REVERT JUMPDEST PUSH2 0x3E48 DUP8 DUP3 DUP7 ADD PUSH2 0x3B7A JUMP JUMPDEST PUSH1 0x80 DUP4 ADD MSTORE POP PUSH1 0xA0 DUP4 ADD MLOAD DUP3 DUP2 GT ISZERO PUSH2 0x3E60 JUMPI PUSH1 0x0 DUP1 REVERT JUMPDEST PUSH2 0x3E6C DUP8 DUP3 DUP7 ADD PUSH2 0x3B7A JUMP JUMPDEST PUSH1 0xA0 DUP4 ADD MSTORE POP PUSH2 0x3E7E PUSH1 0xC0 DUP5 ADD PUSH2 0x3B6F JUMP JUMPDEST PUSH1 0xC0 DUP3 ADD MSTORE PUSH1 0xE0 DUP4 ADD MLOAD DUP3 DUP2 GT ISZERO PUSH2 0x3E95 JUMPI PUSH1 0x0 DUP1 REVERT JUMPDEST PUSH2 0x3EA1 DUP8 DUP3 DUP7 ADD PUSH2 0x3B7A JUMP JUMPDEST PUSH1 0xE0 DUP4 ADD MSTORE POP PUSH2 0x100 DUP1 DUP5 ADD MLOAD DUP4 DUP2 GT ISZERO PUSH2 0x3EBB JUMPI PUSH1 0x0 DUP1 REVERT JUMPDEST PUSH2 0x3EC7 DUP9 DUP3 DUP8 ADD PUSH2 0x3B7A JUMP JUMPDEST DUP3 DUP5 ADD MSTORE POP POP PUSH2 0x120 DUP1 DUP5 ADD MLOAD DUP4 DUP2 GT ISZERO PUSH2 0x3EE1 JUMPI PUSH1 0x0 DUP1 REVERT JUMPDEST PUSH2 0x3EED DUP9 DUP3 DUP8 ADD PUSH2 0x3B7A JUMP JUMPDEST DUP3 DUP5 ADD MSTORE POP POP PUSH2 0x140 DUP1 DUP5 ADD MLOAD DUP4 DUP2 GT ISZERO PUSH2 0x3F07 JUMPI PUSH1 0x0 DUP1 REVERT JUMPDEST PUSH2 0x3F13 DUP9 DUP3 DUP8 ADD PUSH2 0x3BBF JUMP JUMPDEST DUP3 DUP5 ADD MSTORE POP POP PUSH2 0x160 DUP1 DUP5 ADD MLOAD DUP4 DUP2 GT ISZERO PUSH2 0x3F2D JUMPI PUSH1 0x0 DUP1 REVERT JUMPDEST PUSH2 0x3F39 DUP9 DUP3 DUP8 ADD PUSH2 0x3CBF JUMP JUMPDEST DUP3 DUP5 ADD MSTORE POP POP PUSH2 0x180 DUP1 DUP5 ADD MLOAD DUP4 DUP2 GT ISZERO PUSH2 0x3F53 JUMPI PUSH1 0x0 DUP1 REVERT JUMPDEST PUSH2 0x3F5F DUP9 DUP3 DUP8 ADD PUSH2 0x3CBF JUMP JUMPDEST DUP3 DUP5 ADD MSTORE POP POP PUSH2 0x1A0 DUP1 DUP5 ADD MLOAD DUP4 DUP2 GT ISZERO PUSH2 0x3F79 JUMPI PUSH1 0x0 DUP1 REVERT JUMPDEST PUSH2 0x3F85 DUP9 DUP3 DUP8 ADD PUSH2 0x3B7A JUMP JUMPDEST DUP3 DUP5 ADD MSTORE POP POP PUSH2 0x1C0 DUP1 DUP5 ADD MLOAD DUP2 DUP4 ADD MSTORE POP PUSH2 0x1E0 PUSH2 0x3FA5 DUP2 DUP6 ADD PUSH2 0x3B6F JUMP JUMPDEST SWAP1 DUP3 ADD MSTORE PUSH2 0x200 DUP4 DUP2 ADD MLOAD DUP4 DUP2 GT ISZERO PUSH2 0x3FBD JUMPI PUSH1 0x0 DUP1 REVERT JUMPDEST PUSH2 0x3FC9 DUP9 DUP3 DUP8 ADD PUSH2 0x3B7A JUMP JUMPDEST DUP3 DUP5 ADD MSTORE POP POP PUSH2 0x220 DUP1 DUP5 ADD MLOAD DUP4 DUP2 GT ISZERO PUSH2 0x3FE3 JUMPI PUSH1 0x0 DUP1 REVERT JUMPDEST PUSH2 0x3FEF DUP9 DUP3 DUP8 ADD PUSH2 0x3D49 JUMP JUMPDEST SWAP2 DUP4 ADD SWAP2 SWAP1 SWAP2 MSTORE POP PUSH2 0x240 SWAP3 DUP4 ADD MLOAD SWAP3 DUP2 ADD SWAP3 SWAP1 SWAP3 MSTORE POP SWAP4 SWAP3 POP POP POP JUMP JUMPDEST PUSH4 0x4E487B71 PUSH1 0xE0 SHL PUSH1 0x0 MSTORE PUSH1 0x32 PUSH1 0x4 MSTORE PUSH1 0x24 PUSH1 0x0 REVERT JUMPDEST PUSH1 0x0 DUP1 PUSH1 0x40 DUP4 DUP6 SUB SLT ISZERO PUSH2 0x4036 JUMPI PUSH1 0x0 DUP1 REVERT JUMPDEST DUP3 MLOAD PUSH1 0x1 PUSH1 0x1 PUSH1 0x40 SHL SUB DUP2 GT ISZERO PUSH2 0x404C JUMPI PUSH1 0x0 DUP1 REVERT JUMPDEST PUSH2 0x4058 DUP6 DUP3 DUP7 ADD PUSH2 0x3B7A JUMP JUMPDEST SWAP3 POP POP PUSH1 0x20 DUP4 ADD MLOAD PUSH1 0xF DUP2 LT PUSH2 0x406D JUMPI PUSH1 0x0 DUP1 REVERT JUMPDEST DUP1 SWAP2 POP POP SWAP3 POP SWAP3 SWAP1 POP JUMP JUMPDEST PUSH1 0x0 DUP2 MLOAD PUSH2 0x408A DUP2 DUP6 PUSH1 0x20 DUP7 ADD PUSH2 0x38FB JUMP JUMPDEST SWAP3 SWAP1 SWAP3 ADD SWAP3 SWAP2 POP POP JUMP JUMPDEST PUSH1 0x0 DUP4 MLOAD PUSH2 0x40A6 DUP2 DUP5 PUSH1 0x20 DUP9 ADD PUSH2 0x38FB JUMP JUMPDEST DUP4 MLOAD SWAP1 DUP4 ADD SWAP1 PUSH2 0x40BA DUP2 DUP4 PUSH1 0x20 DUP9 ADD PUSH2 0x38FB JUMP JUMPDEST ADD SWAP5 SWAP4 POP POP POP POP JUMP JUMPDEST PUSH4 0x4E487B71 PUSH1 0xE0 SHL PUSH1 0x0 MSTORE PUSH1 0x11 PUSH1 0x4 MSTORE PUSH1 0x24 PUSH1 0x0 REVERT JUMPDEST PUSH1 0x0 PUSH1 0x0 NOT DUP3 EQ ISZERO PUSH2 0x40ED JUMPI PUSH2 0x40ED PUSH2 0x40C3 JUMP JUMPDEST POP PUSH1 0x1 ADD SWAP1 JUMP JUMPDEST PUSH1 0x0 DUP2 PUSH1 0x0 NOT DIV DUP4 GT DUP3 ISZERO ISZERO AND ISZERO PUSH2 0x410E JUMPI PUSH2 0x410E PUSH2 0x40C3 JUMP JUMPDEST POP MUL SWAP1 JUMP JUMPDEST PUSH1 0x0 PUSH1 0x20 DUP3 DUP5 SUB SLT ISZERO PUSH2 0x4125 JUMPI PUSH1 0x0 DUP1 REVERT JUMPDEST DUP2 MLOAD PUSH1 0x1 PUSH1 0x1 PUSH1 0x40 SHL SUB DUP2 GT ISZERO PUSH2 0x413B JUMPI PUSH1 0x0 DUP1 REVERT JUMPDEST PUSH2 0x2664 DUP5 DUP3 DUP6 ADD PUSH2 0x3B7A JUMP JUMPDEST PUSH1 0x0 DUP3 MLOAD PUSH2 0x4159 DUP2 DUP5 PUSH1 0x20 DUP8 ADD PUSH2 0x38FB JUMP JUMPDEST SWAP2 SWAP1 SWAP2 ADD SWAP3 SWAP2 POP POP JUMP JUMPDEST PUSH22 0x19185D184E9D195E1D0BDA1D1B5B0ED8985CD94D8D0B PUSH1 0x52 SHL DUP2 MSTORE PUSH1 0x0 DUP3 MLOAD PUSH2 0x4194 DUP2 PUSH1 0x16 DUP6 ADD PUSH1 0x20 DUP8 ADD PUSH2 0x38FB JUMP JUMPDEST SWAP2 SWAP1 SWAP2 ADD PUSH1 0x16 ADD SWAP3 SWAP2 POP POP JUMP JUMPDEST PUSH19 0x16101130B734B6B0BA34B7B72FBAB936111D11 PUSH1 0x69 SHL DUP2 MSTORE DUP2 MLOAD PUSH1 0x0 SWAP1 PUSH2 0x41D0 DUP2 PUSH1 0x13 DUP6 ADD PUSH1 0x20 DUP8 ADD PUSH2 0x38FB JUMP JUMPDEST PUSH1 0x11 PUSH1 0xF9 SHL PUSH1 0x13 SWAP4 SWAP1 SWAP2 ADD SWAP3 DUP4 ADD MSTORE POP PUSH1 0x14 ADD SWAP2 SWAP1 POP JUMP JUMPDEST PUSH1 0x0 DUP4 MLOAD PUSH2 0x41FA DUP2 DUP5 PUSH1 0x20 DUP9 ADD PUSH2 0x38FB JUMP JUMPDEST PUSH2 0x2023 PUSH1 0xF0 SHL SWAP1 DUP4 ADD SWAP1 DUP2 MSTORE DUP4 MLOAD PUSH2 0x4219 DUP2 PUSH1 0x2 DUP5 ADD PUSH1 0x20 DUP9 ADD PUSH2 0x38FB JUMP JUMPDEST ADD PUSH1 0x2 ADD SWAP5 SWAP4 POP POP POP POP JUMP JUMPDEST PUSH1 0x0 PUSH1 0xFF DUP3 AND PUSH1 0xFF DUP5 AND DUP1 PUSH1 0xFF SUB DUP3 GT ISZERO PUSH2 0x4242 JUMPI PUSH2 0x4242 PUSH2 0x40C3 JUMP JUMPDEST ADD SWAP4 SWAP3 POP POP POP JUMP JUMPDEST PUSH1 0x0 DUP5 MLOAD PUSH2 0x425C DUP2 DUP5 PUSH1 0x20 DUP10 ADD PUSH2 0x38FB JUMP JUMPDEST PUSH21 0x163D913A3930B4BA2FBA3CB832911D10112634B11 PUSH1 0x5D SHL SWAP1 DUP4 ADD SWAP1 DUP2 MSTORE DUP5 MLOAD PUSH2 0x428E DUP2 PUSH1 0x15 DUP5 ADD PUSH1 0x20 DUP10 ADD PUSH2 0x38FB JUMP JUMPDEST PUSH13 0x111610113B30B63AB2911D1011 PUSH1 0x99 SHL PUSH1 0x15 SWAP3 SWAP1 SWAP2 ADD SWAP2 DUP3 ADD MSTORE DUP4 MLOAD PUSH2 0x42BC DUP2 PUSH1 0x22 DUP5 ADD PUSH1 0x20 DUP9 ADD PUSH2 0x38FB JUMP JUMPDEST PUSH2 0x227D PUSH1 0xF0 SHL PUSH1 0x22 SWAP3 SWAP1 SWAP2 ADD SWAP2 DUP3 ADD MSTORE PUSH1 0x24 ADD SWAP6 SWAP5 POP POP POP POP POP JUMP JUMPDEST PUSH1 0x0 PUSH1 0xFF DUP3 AND PUSH1 0xFF DUP2 EQ ISZERO PUSH2 0x42EF JUMPI PUSH2 0x42EF PUSH2 0x40C3 JUMP JUMPDEST PUSH1 0x1 ADD SWAP3 SWAP2 POP POP JUMP JUMPDEST PUSH32 0x2C2261747472696275746573223A205B7B2274726169745F74797065223A2022 DUP2 MSTORE PUSH32 0x436F6C6C656374696F6E2041646472657373222C202276616C7565223A202200 PUSH1 0x20 DUP3 ADD MSTORE PUSH1 0x0 DUP7 MLOAD PUSH2 0x4356 DUP2 PUSH1 0x3F DUP6 ADD PUSH1 0x20 DUP12 ADD PUSH2 0x38FB JUMP JUMPDEST PUSH2 0x227D PUSH1 0xF0 SHL PUSH1 0x3F SWAP2 DUP5 ADD SWAP2 DUP3 ADD DUP2 SWAP1 MSTORE PUSH32 0x2C7B2274726169745F74797065223A202243726561746F72222C202276616C75 PUSH1 0x41 DUP4 ADD MSTORE PUSH5 0x32911D1011 PUSH1 0xD9 SHL PUSH1 0x61 DUP4 ADD MSTORE DUP8 MLOAD PUSH2 0x43AE DUP2 PUSH1 0x66 DUP6 ADD PUSH1 0x20 DUP13 ADD PUSH2 0x38FB JUMP JUMPDEST PUSH1 0x66 SWAP3 ADD SWAP2 DUP3 ADD MSTORE PUSH32 0x2C7B2274726169745F74797065223A202243726561746F722041646472657373 PUSH1 0x68 DUP3 ADD MSTORE PUSH13 0x111610113B30B63AB2911D1011 PUSH1 0x99 SHL PUSH1 0x88 DUP3 ADD MSTORE PUSH2 0x446D PUSH2 0x4460 PUSH2 0x445A PUSH2 0x440F PUSH2 0x4454 PUSH2 0x441D DUP3 PUSH1 0x95 DUP9 ADD DUP14 PUSH2 0x4078 JUMP JUMPDEST PUSH2 0x227D PUSH1 0xF0 SHL DUP2 MSTORE PUSH1 0x2 ADD SWAP1 JUMP JUMPDEST PUSH32 0x2C7B2274726169745F74797065223A20224C6963656E7365222C202276616C75 DUP2 MSTORE PUSH5 0x32911D1011 PUSH1 0xD9 SHL PUSH1 0x20 DUP3 ADD MSTORE PUSH1 0x25 ADD SWAP1 JUMP JUMPDEST DUP10 PUSH2 0x4078 JUMP JUMPDEST DUP7 PUSH2 0x4078 JUMP JUMPDEST PUSH1 0x5D PUSH1 0xF8 SHL DUP2 MSTORE PUSH1 0x1 ADD SWAP1 JUMP JUMPDEST SWAP9 SWAP8 POP POP POP POP POP POP POP POP JUMP JUMPDEST PUSH9 0x3D913730B6B2911D11 PUSH1 0xB9 SHL DUP2 MSTORE DUP6 MLOAD PUSH1 0x0 SWAP1 PUSH2 0x449E DUP2 PUSH1 0x9 DUP6 ADD PUSH1 0x20 DUP12 ADD PUSH2 0x38FB JUMP JUMPDEST PUSH1 0x11 PUSH1 0xF9 SHL PUSH1 0x9 SWAP2 DUP5 ADD SWAP2 DUP3 ADD DUP2 SWAP1 MSTORE PUSH16 0x16113232B9B1B934B83A34B7B7111D11 PUSH1 0x81 SHL PUSH1 0xA DUP4 ADD MSTORE DUP8 MLOAD PUSH2 0x44DA DUP2 PUSH1 0x1A DUP6 ADD PUSH1 0x20 DUP13 ADD PUSH2 0x38FB JUMP JUMPDEST PUSH1 0x1A SWAP3 ADD SWAP2 DUP3 ADD DUP2 SWAP1 MSTORE PUSH10 0x161134B6B0B3B2911D11 PUSH1 0xB1 SHL PUSH1 0x1B DUP4 ADD MSTORE DUP7 MLOAD PUSH2 0x450A DUP2 PUSH1 0x25 DUP6 ADD PUSH1 0x20 DUP12 ADD PUSH2 0x38FB JUMP JUMPDEST PUSH1 0x25 SWAP3 ADD SWAP2 DUP3 ADD MSTORE DUP5 MLOAD PUSH2 0x4525 DUP2 PUSH1 0x26 DUP5 ADD PUSH1 0x20 DUP10 ADD PUSH2 0x38FB JUMP JUMPDEST DUP5 MLOAD SWAP2 ADD SWAP1 PUSH2 0x453B DUP2 PUSH1 0x26 DUP5 ADD PUSH1 0x20 DUP9 ADD PUSH2 0x38FB JUMP JUMPDEST PUSH2 0x4551 PUSH1 0x26 DUP3 DUP5 ADD ADD PUSH1 0x7D PUSH1 0xF8 SHL DUP2 MSTORE PUSH1 0x1 ADD SWAP1 JUMP JUMPDEST SWAP10 SWAP9 POP POP POP POP POP POP POP POP POP JUMP JUMPDEST PUSH32 0x646174613A6170706C69636174696F6E2F6A736F6E3B6261736536342C000000 DUP2 MSTORE PUSH1 0x0 DUP3 MLOAD PUSH2 0x4596 DUP2 PUSH1 0x1D DUP6 ADD PUSH1 0x20 DUP8 ADD PUSH2 0x38FB JUMP JUMPDEST SWAP2 SWAP1 SWAP2 ADD PUSH1 0x1D ADD SWAP3 SWAP2 POP POP JUMP JUMPDEST PUSH1 0x0 DUP3 DUP3 LT ISZERO PUSH2 0x45B5 JUMPI PUSH2 0x45B5 PUSH2 0x40C3 JUMP JUMPDEST POP SUB SWAP1 JUMP JUMPDEST PUSH1 0x0 PUSH1 0x20 DUP3 DUP5 SUB SLT ISZERO PUSH2 0x45CC JUMPI PUSH1 0x0 DUP1 REVERT JUMPDEST POP MLOAD SWAP2 SWAP1 POP JUMP JUMPDEST PUSH1 0x0 PUSH1 0x20 DUP3 DUP5 SUB SLT ISZERO PUSH2 0x45E5 JUMPI PUSH1 0x0 DUP1 REVERT JUMPDEST DUP2 MLOAD PUSH2 0xE57 DUP2 PUSH2 0x389D JUMP JUMPDEST PUSH6 0x6266733A2F2F PUSH1 0xD0 SHL DUP2 MSTORE DUP5 PUSH1 0x6 DUP3 ADD MSTORE PUSH1 0x0 PUSH1 0x2F PUSH1 0xF8 SHL DUP1 PUSH1 0x26 DUP5 ADD MSTORE PUSH12 0xFFFFFFFFFFFFFFFFFFFFFFFF NOT DUP7 PUSH1 0x60 SHL AND PUSH1 0x27 DUP5 ADD MSTORE DUP1 PUSH1 0x3B DUP5 ADD MSTORE DUP5 MLOAD PUSH2 0x4640 DUP2 PUSH1 0x3C DUP7 ADD PUSH1 0x20 DUP10 ADD PUSH2 0x38FB JUMP JUMPDEST DUP1 DUP5 ADD SWAP1 POP DUP2 PUSH1 0x3C DUP3 ADD MSTORE DUP5 MLOAD SWAP2 POP PUSH2 0x4660 DUP3 PUSH1 0x3D DUP4 ADD PUSH1 0x20 DUP9 ADD PUSH2 0x38FB JUMP JUMPDEST ADD PUSH1 0x3D ADD SWAP7 SWAP6 POP POP POP POP POP POP JUMP JUMPDEST PUSH1 0x0 DUP6 MLOAD PUSH2 0x4680 DUP2 DUP5 PUSH1 0x20 DUP11 ADD PUSH2 0x38FB JUMP JUMPDEST DUP1 DUP4 ADD SWAP1 POP PUSH1 0x2F PUSH1 0xF8 SHL DUP1 DUP3 MSTORE DUP7 MLOAD PUSH2 0x46A0 DUP2 PUSH1 0x1 DUP6 ADD PUSH1 0x20 DUP12 ADD PUSH2 0x38FB JUMP JUMPDEST PUSH1 0x1 SWAP3 ADD SWAP2 DUP3 ADD MSTORE DUP5 MLOAD PUSH2 0x46BB DUP2 PUSH1 0x2 DUP5 ADD PUSH1 0x20 DUP10 ADD PUSH2 0x38FB JUMP JUMPDEST PUSH6 0x3F736565643D PUSH1 0xD0 SHL PUSH1 0x2 SWAP3 SWAP1 SWAP2 ADD SWAP2 DUP3 ADD MSTORE DUP4 MLOAD PUSH2 0x46E2 DUP2 PUSH1 0x8 DUP5 ADD PUSH1 0x20 DUP9 ADD PUSH2 0x38FB JUMP JUMPDEST ADD PUSH1 0x8 ADD SWAP7 SWAP6 POP POP POP POP POP POP JUMP JUMPDEST PUSH9 0x3D913730B6B2911D11 PUSH1 0xB9 SHL DUP2 MSTORE DUP6 MLOAD PUSH1 0x0 SWAP1 PUSH2 0x4715 DUP2 PUSH1 0x9 DUP6 ADD PUSH1 0x20 DUP12 ADD PUSH2 0x38FB JUMP JUMPDEST PUSH18 0x1116113232B9B1B934B83A34B7B7111D1011 PUSH1 0x71 SHL PUSH1 0x9 SWAP2 DUP5 ADD SWAP2 DUP3 ADD MSTORE DUP7 MLOAD PUSH2 0x4747 DUP2 PUSH1 0x1B DUP5 ADD PUSH1 0x20 DUP12 ADD PUSH2 0x38FB JUMP JUMPDEST PUSH1 0x11 PUSH1 0xF9 SHL PUSH1 0x1B SWAP3 SWAP1 SWAP2 ADD SWAP2 DUP3 ADD MSTORE PUSH12 0x16101134B6B0B3B2911D1011 PUSH1 0xA1 SHL PUSH1 0x1C DUP3 ADD MSTORE DUP6 MLOAD PUSH2 0x477E DUP2 PUSH1 0x28 DUP5 ADD PUSH1 0x20 DUP11 ADD PUSH2 0x38FB JUMP JUMPDEST PUSH14 0x1331B0B83A3AB9329E9A98181811 PUSH1 0x91 SHL PUSH1 0x28 SWAP3 SWAP1 SWAP2 ADD SWAP2 DUP3 ADD MSTORE DUP5 MLOAD PUSH2 0x47AD DUP2 PUSH1 0x36 DUP5 ADD PUSH1 0x20 DUP10 ADD PUSH2 0x38FB JUMP JUMPDEST PUSH17 0x16101130BA3A3934B13ABA32B9911D1011 PUSH1 0x79 SHL PUSH1 0x36 SWAP3 SWAP1 SWAP2 ADD SWAP2 DUP3 ADD MSTORE PUSH2 0x446D PUSH2 0x47F6 PUSH2 0x47DF PUSH1 0x47 DUP5 ADD DUP8 PUSH2 0x4078 JUMP JUMPDEST PUSH11 0x1331B0B83A3AB9329E9811 PUSH1 0xA9 SHL DUP2 MSTORE PUSH1 0xB ADD SWAP1 JUMP JUMPDEST PUSH1 0x7D PUSH1 0xF8 SHL DUP2 MSTORE PUSH1 0x1 ADD SWAP1 JUMP JUMPDEST PUSH4 0x4E487B71 PUSH1 0xE0 SHL PUSH1 0x0 MSTORE PUSH1 0x12 PUSH1 0x4 MSTORE PUSH1 0x24 PUSH1 0x0 REVERT JUMPDEST PUSH1 0x0 DUP3 PUSH2 0x4828 JUMPI PUSH2 0x4828 PUSH2 0x4803 JUMP JUMPDEST POP MOD SWAP1 JUMP JUMPDEST PUSH1 0x0 DUP3 PUSH2 0x483C JUMPI PUSH2 0x483C PUSH2 0x4803 JUMP JUMPDEST POP DIV SWAP1 JUMP JUMPDEST PUSH1 0x0 DUP3 NOT DUP3 GT ISZERO PUSH2 0x4854 JUMPI PUSH2 0x4854 PUSH2 0x40C3 JUMP JUMPDEST POP ADD SWAP1 JUMP JUMPDEST PUSH1 0x20 DUP1 DUP3 MSTORE PUSH1 0x2B SWAP1 DUP3 ADD MSTORE PUSH32 0x496E697469616C697A61626C653A20636F6E7472616374206973206E6F742069 PUSH1 0x40 DUP3 ADD MSTORE PUSH11 0x6E697469616C697A696E67 PUSH1 0xA8 SHL PUSH1 0x60 DUP3 ADD MSTORE PUSH1 0x80 ADD SWAP1 JUMP JUMPDEST PUSH1 0x0 DUP2 PUSH2 0x48B3 JUMPI PUSH2 0x48B3 PUSH2 0x40C3 JUMP JUMPDEST POP PUSH1 0x0 NOT ADD SWAP1 JUMP INVALID COINBASE TIMESTAMP NUMBER DIFFICULTY GASLIMIT CHAINID SELFBALANCE BASEFEE 0x49 0x4A 0x4B 0x4C 0x4D 0x4E 0x4F POP MLOAD MSTORE MSTORE8 SLOAD SSTORE JUMP JUMPI PC MSIZE GAS PUSH2 0x6263 PUSH5 0x6566676869 PUSH11 0x6B6C6D6E6F707172737475 PUSH23 0x7778797A303132333435363738392B2F00000000000000 STOP STOP STOP STOP STOP STOP STOP STOP STOP STOP STOP STOP STOP STOP STOP STOP STOP STOP STOP STOP STOP STOP STOP STOP STOP STOP STOP STOP STOP STOP STOP STOP STOP STOP STOP STOP RETURNDATACOPY STOP STOP STOP EXTCODEHASH CALLVALUE CALLDATALOAD CALLDATASIZE CALLDATACOPY CODESIZE CODECOPY GASPRICE EXTCODESIZE EXTCODECOPY RETURNDATASIZE STOP STOP STOP STOP STOP STOP STOP STOP ADD MUL SUB DIV SDIV MOD SMOD ADDMOD MULMOD EXP SIGNEXTEND 0xC 0xD 0xE 0xF LT GT SLT SGT EQ ISZERO AND OR XOR NOT STOP STOP STOP STOP STOP STOP BYTE SHL SHR SAR 0x1E 0x1F KECCAK256 0x21 0x22 0x23 0x24 0x25 0x26 0x27 0x28 0x29 0x2A 0x2B 0x2C 0x2D 0x2E 0x2F ADDRESS BALANCE ORIGIN CALLER STOP STOP STOP STOP STOP LOG2 PUSH5 0x6970667358 0x22 SLT KECCAK256 0xE 0xB5 0xDF 0xDE 0xC3 SWAP5 SWAP4 CREATE2 POP 0x27 PUSH27 0xD8BF285D55C2B485A9E095BFBA375E2DE8A5ECD5B464736F6C6343 STOP ADDMOD 0xC STOP CALLER "},"methodIdentifiers":{"_admin()":"01bc45c9","_generativeProjectAddr()":"567fdcf3","_paramAddr()":"f4a290f7","changeAdmin(address)":"8f283970","changeParamAddress(address)":"16a5041f","changeProjectAddress(address)":"e8082858","getChainID()":"564b81ef","inflateScript(string)":"7af34af2","inflateString(string)":"6e973cf2","initialize(address,address,address)":"c0c53b8b","owner()":"8da5cb5b","projectURI(uint256)":"79ebc6f0","renounceOwnership()":"715018a6","tokenHTML(uint256,uint256,bytes32)":"31c7280c","tokenURI(uint256,uint256,bytes32)":"94139301","transferOwnership(address)":"f2fde38b"}},"storageLayout":{"storage":[{"astId":138,"contract":"contracts/data/GenerativeProjectData.sol:GenerativeProjectData","label":"_initialized","offset":0,"slot":"0","type":"t_uint8"},{"astId":141,"contract":"contracts/data/GenerativeProjectData.sol:GenerativeProjectData","label":"_initializing","offset":1,"slot":"0","type":"t_bool"},{"astId":741,"contract":"contracts/data/GenerativeProjectData.sol:GenerativeProjectData","label":"__gap","offset":0,"slot":"1","type":"t_array(t_uint256)50_storage"},{"astId":10,"contract":"contracts/data/GenerativeProjectData.sol:GenerativeProjectData","label":"_owner","offset":0,"slot":"51","type":"t_address"},{"astId":130,"contract":"contracts/data/GenerativeProjectData.sol:GenerativeProjectData","label":"__gap","offset":0,"slot":"52","type":"t_array(t_uint256)49_storage"},{"astId":1891,"contract":"contracts/data/GenerativeProjectData.sol:GenerativeProjectData","label":"_admin","offset":0,"slot":"101","type":"t_address"},{"astId":1893,"contract":"contracts/data/GenerativeProjectData.sol:GenerativeProjectData","label":"_paramAddr","offset":0,"slot":"102","type":"t_address"},{"astId":1895,"contract":"contracts/data/GenerativeProjectData.sol:GenerativeProjectData","label":"_generativeProjectAddr","offset":0,"slot":"103","type":"t_address"}],"types":{"t_address":{"encoding":"inplace","label":"address","numberOfBytes":"20"},"t_array(t_uint256)49_storage":{"base":"t_uint256","encoding":"inplace","label":"uint256[49]","numberOfBytes":"1568"},"t_array(t_uint256)50_storage":{"base":"t_uint256","encoding":"inplace","label":"uint256[50]","numberOfBytes":"1600"},"t_bool":{"encoding":"inplace","label":"bool","numberOfBytes":"1"},"t_uint256":{"encoding":"inplace","label":"uint256","numberOfBytes":"32"},"t_uint8":{"encoding":"inplace","label":"uint8","numberOfBytes":"1"}}}}}}