{"contracts/libs/helpers/Errors.sol":{"Errors":{"abi":[{"inputs":[],"name":"ERC20_BALANCE_INVALID","outputs":[{"internalType":"string","name":"","type":"string"}],"stateMutability":"view","type":"function"},{"inputs":[],"name":"ERC20_NOT_APPROVED","outputs":[{"internalType":"string","name":"","type":"string"}],"stateMutability":"view","type":"function"},{"inputs":[],"name":"ERC_721_NOT_APPROVED","outputs":[{"internalType":"string","name":"","type":"string"}],"stateMutability":"view","type":"function"},{"inputs":[],"name":"FORBIDDEN_TRANSFER_PROJECT","outputs":[{"internalType":"string","name":"","type":"string"}],"stateMutability":"view","type":"function"},{"inputs":[],"name":"INVALID_ERC721_OWNER","outputs":[{"internalType":"string","name":"","type":"string"}],"stateMutability":"view","type":"function"},{"inputs":[],"name":"INV_ADD","outputs":[{"internalType":"string","name":"","type":"string"}],"stateMutability":"view","type":"function"},{"inputs":[],"name":"INV_FEE_PROJECT","outputs":[{"internalType":"string","name":"","type":"string"}],"stateMutability":"view","type":"function"},{"inputs":[],"name":"INV_PARAMS","outputs":[{"internalType":"string","name":"","type":"string"}],"stateMutability":"view","type":"function"},{"inputs":[],"name":"INV_PROJECT","outputs":[{"internalType":"string","name":"","type":"string"}],"stateMutability":"view","type":"function"},{"inputs":[],"name":"INV_TOKEN","outputs":[{"internalType":"string","name":"","type":"string"}],"stateMutability":"view","type":"function"},{"inputs":[],"name":"MISSING_NAME","outputs":[{"internalType":"string","name":"","type":"string"}],"stateMutability":"view","type":"function"},{"inputs":[],"name":"OFFERING_CLOSED","outputs":[{"internalType":"string","name":"","type":"string"}],"stateMutability":"view","type":"function"},{"inputs":[],"name":"ONLY_ADMIN_ALLOWED","outputs":[{"internalType":"string","name":"","type":"string"}],"stateMutability":"view","type":"function"},{"inputs":[],"name":"ONLY_CREATOR","outputs":[{"internalType":"string","name":"","type":"string"}],"stateMutability":"view","type":"function"},{"inputs":[],"name":"OPENING_SCHEDULE","outputs":[{"internalType":"string","name":"","type":"string"}],"stateMutability":"view","type":"function"},{"inputs":[],"name":"REACH_MAX","outputs":[{"internalType":"string","name":"","type":"string"}],"stateMutability":"view","type":"function"},{"inputs":[],"name":"SUCCESS","outputs":[{"internalType":"string","name":"","type":"string"}],"stateMutability":"view","type":"function"},{"inputs":[],"name":"TOKEN_HAS_SEED","outputs":[{"internalType":"string","name":"","type":"string"}],"stateMutability":"view","type":"function"},{"inputs":[],"name":"TOO_HIGH","outputs":[{"internalType":"string","name":"","type":"string"}],"stateMutability":"view","type":"function"},{"inputs":[],"name":"TRANSFER_FAIL","outputs":[{"internalType":"string","name":"","type":"string"}],"stateMutability":"view","type":"function"},{"inputs":[],"name":"VALUE_INVALID","outputs":[{"internalType":"string","name":"","type":"string"}],"stateMutability":"view","type":"function"},{"inputs":[],"name":"ZERO_ADDR","outputs":[{"internalType":"address","name":"","type":"address"}],"stateMutability":"view","type":"function"},{"inputs":[],"name":"ZERO_SEED","outputs":[{"internalType":"string","name":"","type":"string"}],"stateMutability":"view","type":"function"}],"evm":{"bytecode":{"linkReferences":{},"object":"61050761003a600b82828239805160001a60731461002d57634e487b7160e01b600052600060045260246000fd5b30600052607381538281f3fe73000000000000000000000000000000000000000030146080604052600436106101575760003560e01c8063652b7f31116100cd578063b746287b11610086578063b746287b146103b2578063c059011b146103d4578063d0a6d1a6146103f6578063e81216b514610416578063ef494c2514610438578063feff83c31461045a57600080fd5b8063652b7f31146102e6578063726705081461030857806386f8148f1461032a5780638cb739c61461034c57806390131fab1461036e5780639bf3cfe31461039057600080fd5b806338abf0c91161011f57806338abf0c91461021c5780633a13248f1461023e578063552e387c146102605780635560f1f814610282578063585c081c146102a457806363731080146102c657600080fd5b8063074750841461015c578063143c1c361461019457806323312297146101b65780632b72ddbd146101d857806335a02d73146101fa575b600080fd5b61017e6040518060400160405280600381526020016219981b60e91b81525081565b60405161018b919061047c565b60405180910390f35b61017e6040518060400160405280600381526020016219181b60e91b81525081565b61017e6040518060400160405280600381526020016232303360e81b81525081565b61017e6040518060400160405280600381526020016219981960e91b81525081565b61017e6040518060400160405280600381526020016233303560e81b81525081565b61017e6040518060400160405280600381526020016219181960e91b81525081565b61017e6040518060400160405280600381526020016206460760eb1b81525081565b61017e6040518060400160405280600381526020016231303160e81b81525081565b61017e6040518060400160405280600381526020016233303360e81b81525081565b61017e6040518060400160405280600381526020016232303560e81b81525081565b6102ce600081565b6040516001600160a01b03909116815260200161018b565b61017e6040518060400160405280600381526020016232303160e81b81525081565b61017e6040518060400160405280600381526020016203130360ec1b81525081565b61017e6040518060400160405280600381526020016203230360ec1b81525081565b61017e6040518060400160405280600381526020016232303960e81b81525081565b61017e6040518060400160405280600381526020016203330360ec1b81525081565b61017e6040518060400160405280600381526020016232303760e81b81525081565b61017e6040518060400160405280600381526020016218981960e91b81525081565b61017e6040518060400160405280600381526020016233303160e81b81525081565b61017e604051806040016040528060018152602001600360fc1b81525081565b61017e604051806040016040528060038152602001620ccc0d60ea1b81525081565b61017e6040518060400160405280600381526020016203231360ec1b81525081565b61017e604051806040016040528060038152602001620c8c0d60ea1b81525081565b600060208083528351808285015260005b818110156104a95785810183015185820160400152820161048d565b818111156104bb576000604083870101525b50601f01601f191692909201604001939250505056fea2646970667358221220b0b3ec8ff3e2de8ab3ad9b7f528ef8fb3b81b1b6fd025949f69a0f7be9eda43b64736f6c634300080c0033","opcodes":"PUSH2 0x507 PUSH2 0x3A PUSH1 0xB DUP3 DUP3 DUP3 CODECOPY DUP1 MLOAD PUSH1 0x0 BYTE PUSH1 0x73 EQ PUSH2 0x2D JUMPI PUSH4 0x4E487B71 PUSH1 0xE0 SHL PUSH1 0x0 MSTORE PUSH1 0x0 PUSH1 0x4 MSTORE PUSH1 0x24 PUSH1 0x0 REVERT JUMPDEST ADDRESS PUSH1 0x0 MSTORE PUSH1 0x73 DUP2 MSTORE8 DUP3 DUP2 RETURN INVALID PUSH20 0x0 ADDRESS EQ PUSH1 0x80 PUSH1 0x40 MSTORE PUSH1 0x4 CALLDATASIZE LT PUSH2 0x157 JUMPI PUSH1 0x0 CALLDATALOAD PUSH1 0xE0 SHR DUP1 PUSH4 0x652B7F31 GT PUSH2 0xCD JUMPI DUP1 PUSH4 0xB746287B GT PUSH2 0x86 JUMPI DUP1 PUSH4 0xB746287B EQ PUSH2 0x3B2 JUMPI DUP1 PUSH4 0xC059011B EQ PUSH2 0x3D4 JUMPI DUP1 PUSH4 0xD0A6D1A6 EQ PUSH2 0x3F6 JUMPI DUP1 PUSH4 0xE81216B5 EQ PUSH2 0x416 JUMPI DUP1 PUSH4 0xEF494C25 EQ PUSH2 0x438 JUMPI DUP1 PUSH4 0xFEFF83C3 EQ PUSH2 0x45A JUMPI PUSH1 0x0 DUP1 REVERT JUMPDEST DUP1 PUSH4 0x652B7F31 EQ PUSH2 0x2E6 JUMPI DUP1 PUSH4 0x72670508 EQ PUSH2 0x308 JUMPI DUP1 PUSH4 0x86F8148F EQ PUSH2 0x32A JUMPI DUP1 PUSH4 0x8CB739C6 EQ PUSH2 0x34C JUMPI DUP1 PUSH4 0x90131FAB EQ PUSH2 0x36E JUMPI DUP1 PUSH4 0x9BF3CFE3 EQ PUSH2 0x390 JUMPI PUSH1 0x0 DUP1 REVERT JUMPDEST DUP1 PUSH4 0x38ABF0C9 GT PUSH2 0x11F JUMPI DUP1 PUSH4 0x38ABF0C9 EQ PUSH2 0x21C JUMPI DUP1 PUSH4 0x3A13248F EQ PUSH2 0x23E JUMPI DUP1 PUSH4 0x552E387C EQ PUSH2 0x260 JUMPI DUP1 PUSH4 0x5560F1F8 EQ PUSH2 0x282 JUMPI DUP1 PUSH4 0x585C081C EQ PUSH2 0x2A4 JUMPI DUP1 PUSH4 0x63731080 EQ PUSH2 0x2C6 JUMPI PUSH1 0x0 DUP1 REVERT JUMPDEST DUP1 PUSH4 0x7475084 EQ PUSH2 0x15C JUMPI DUP1 PUSH4 0x143C1C36 EQ PUSH2 0x194 JUMPI DUP1 PUSH4 0x23312297 EQ PUSH2 0x1B6 JUMPI DUP1 PUSH4 0x2B72DDBD EQ PUSH2 0x1D8 JUMPI DUP1 PUSH4 0x35A02D73 EQ PUSH2 0x1FA JUMPI JUMPDEST PUSH1 0x0 DUP1 REVERT JUMPDEST PUSH2 0x17E PUSH1 0x40 MLOAD DUP1 PUSH1 0x40 ADD PUSH1 0x40 MSTORE DUP1 PUSH1 0x3 DUP2 MSTORE PUSH1 0x20 ADD PUSH3 0x19981B PUSH1 0xE9 SHL DUP2 MSTORE POP DUP2 JUMP JUMPDEST PUSH1 0x40 MLOAD PUSH2 0x18B SWAP2 SWAP1 PUSH2 0x47C JUMP JUMPDEST PUSH1 0x40 MLOAD DUP1 SWAP2 SUB SWAP1 RETURN JUMPDEST PUSH2 0x17E PUSH1 0x40 MLOAD DUP1 PUSH1 0x40 ADD PUSH1 0x40 MSTORE DUP1 PUSH1 0x3 DUP2 MSTORE PUSH1 0x20 ADD PUSH3 0x19181B PUSH1 0xE9 SHL DUP2 MSTORE POP DUP2 JUMP JUMPDEST PUSH2 0x17E PUSH1 0x40 MLOAD DUP1 PUSH1 0x40 ADD PUSH1 0x40 MSTORE DUP1 PUSH1 0x3 DUP2 MSTORE PUSH1 0x20 ADD PUSH3 0x323033 PUSH1 0xE8 SHL DUP2 MSTORE POP DUP2 JUMP JUMPDEST PUSH2 0x17E PUSH1 0x40 MLOAD DUP1 PUSH1 0x40 ADD PUSH1 0x40 MSTORE DUP1 PUSH1 0x3 DUP2 MSTORE PUSH1 0x20 ADD PUSH3 0x199819 PUSH1 0xE9 SHL DUP2 MSTORE POP DUP2 JUMP JUMPDEST PUSH2 0x17E PUSH1 0x40 MLOAD DUP1 PUSH1 0x40 ADD PUSH1 0x40 MSTORE DUP1 PUSH1 0x3 DUP2 MSTORE PUSH1 0x20 ADD PUSH3 0x333035 PUSH1 0xE8 SHL DUP2 MSTORE POP DUP2 JUMP JUMPDEST PUSH2 0x17E PUSH1 0x40 MLOAD DUP1 PUSH1 0x40 ADD PUSH1 0x40 MSTORE DUP1 PUSH1 0x3 DUP2 MSTORE PUSH1 0x20 ADD PUSH3 0x191819 PUSH1 0xE9 SHL DUP2 MSTORE POP DUP2 JUMP JUMPDEST PUSH2 0x17E PUSH1 0x40 MLOAD DUP1 PUSH1 0x40 ADD PUSH1 0x40 MSTORE DUP1 PUSH1 0x3 DUP2 MSTORE PUSH1 0x20 ADD PUSH3 0x64607 PUSH1 0xEB SHL DUP2 MSTORE POP DUP2 JUMP JUMPDEST PUSH2 0x17E PUSH1 0x40 MLOAD DUP1 PUSH1 0x40 ADD PUSH1 0x40 MSTORE DUP1 PUSH1 0x3 DUP2 MSTORE PUSH1 0x20 ADD PUSH3 0x313031 PUSH1 0xE8 SHL DUP2 MSTORE POP DUP2 JUMP JUMPDEST PUSH2 0x17E PUSH1 0x40 MLOAD DUP1 PUSH1 0x40 ADD PUSH1 0x40 MSTORE DUP1 PUSH1 0x3 DUP2 MSTORE PUSH1 0x20 ADD PUSH3 0x333033 PUSH1 0xE8 SHL DUP2 MSTORE POP DUP2 JUMP JUMPDEST PUSH2 0x17E PUSH1 0x40 MLOAD DUP1 PUSH1 0x40 ADD PUSH1 0x40 MSTORE DUP1 PUSH1 0x3 DUP2 MSTORE PUSH1 0x20 ADD PUSH3 0x323035 PUSH1 0xE8 SHL DUP2 MSTORE POP DUP2 JUMP JUMPDEST PUSH2 0x2CE PUSH1 0x0 DUP2 JUMP JUMPDEST PUSH1 0x40 MLOAD PUSH1 0x1 PUSH1 0x1 PUSH1 0xA0 SHL SUB SWAP1 SWAP2 AND DUP2 MSTORE PUSH1 0x20 ADD PUSH2 0x18B JUMP JUMPDEST PUSH2 0x17E PUSH1 0x40 MLOAD DUP1 PUSH1 0x40 ADD PUSH1 0x40 MSTORE DUP1 PUSH1 0x3 DUP2 MSTORE PUSH1 0x20 ADD PUSH3 0x323031 PUSH1 0xE8 SHL DUP2 MSTORE POP DUP2 JUMP JUMPDEST PUSH2 0x17E PUSH1 0x40 MLOAD DUP1 PUSH1 0x40 ADD PUSH1 0x40 MSTORE DUP1 PUSH1 0x3 DUP2 MSTORE PUSH1 0x20 ADD PUSH3 0x31303 PUSH1 0xEC SHL DUP2 MSTORE POP DUP2 JUMP JUMPDEST PUSH2 0x17E PUSH1 0x40 MLOAD DUP1 PUSH1 0x40 ADD PUSH1 0x40 MSTORE DUP1 PUSH1 0x3 DUP2 MSTORE PUSH1 0x20 ADD PUSH3 0x32303 PUSH1 0xEC SHL DUP2 MSTORE POP DUP2 JUMP JUMPDEST PUSH2 0x17E PUSH1 0x40 MLOAD DUP1 PUSH1 0x40 ADD PUSH1 0x40 MSTORE DUP1 PUSH1 0x3 DUP2 MSTORE PUSH1 0x20 ADD PUSH3 0x323039 PUSH1 0xE8 SHL DUP2 MSTORE POP DUP2 JUMP JUMPDEST PUSH2 0x17E PUSH1 0x40 MLOAD DUP1 PUSH1 0x40 ADD PUSH1 0x40 MSTORE DUP1 PUSH1 0x3 DUP2 MSTORE PUSH1 0x20 ADD PUSH3 0x33303 PUSH1 0xEC SHL DUP2 MSTORE POP DUP2 JUMP JUMPDEST PUSH2 0x17E PUSH1 0x40 MLOAD DUP1 PUSH1 0x40 ADD PUSH1 0x40 MSTORE DUP1 PUSH1 0x3 DUP2 MSTORE PUSH1 0x20 ADD PUSH3 0x323037 PUSH1 0xE8 SHL DUP2 MSTORE POP DUP2 JUMP JUMPDEST PUSH2 0x17E PUSH1 0x40 MLOAD DUP1 PUSH1 0x40 ADD PUSH1 0x40 MSTORE DUP1 PUSH1 0x3 DUP2 MSTORE PUSH1 0x20 ADD PUSH3 0x189819 PUSH1 0xE9 SHL DUP2 MSTORE POP DUP2 JUMP JUMPDEST PUSH2 0x17E PUSH1 0x40 MLOAD DUP1 PUSH1 0x40 ADD PUSH1 0x40 MSTORE DUP1 PUSH1 0x3 DUP2 MSTORE PUSH1 0x20 ADD PUSH3 0x333031 PUSH1 0xE8 SHL DUP2 MSTORE POP DUP2 JUMP JUMPDEST PUSH2 0x17E PUSH1 0x40 MLOAD DUP1 PUSH1 0x40 ADD PUSH1 0x40 MSTORE DUP1 PUSH1 0x1 DUP2 MSTORE PUSH1 0x20 ADD PUSH1 0x3 PUSH1 0xFC SHL DUP2 MSTORE POP DUP2 JUMP JUMPDEST PUSH2 0x17E PUSH1 0x40 MLOAD DUP1 PUSH1 0x40 ADD PUSH1 0x40 MSTORE DUP1 PUSH1 0x3 DUP2 MSTORE PUSH1 0x20 ADD PUSH3 0xCCC0D PUSH1 0xEA SHL DUP2 MSTORE POP DUP2 JUMP JUMPDEST PUSH2 0x17E PUSH1 0x40 MLOAD DUP1 PUSH1 0x40 ADD PUSH1 0x40 MSTORE DUP1 PUSH1 0x3 DUP2 MSTORE PUSH1 0x20 ADD PUSH3 0x32313 PUSH1 0xEC SHL DUP2 MSTORE POP DUP2 JUMP JUMPDEST PUSH2 0x17E PUSH1 0x40 MLOAD DUP1 PUSH1 0x40 ADD PUSH1 0x40 MSTORE DUP1 PUSH1 0x3 DUP2 MSTORE PUSH1 0x20 ADD PUSH3 0xC8C0D PUSH1 0xEA SHL DUP2 MSTORE POP DUP2 JUMP JUMPDEST PUSH1 0x0 PUSH1 0x20 DUP1 DUP4 MSTORE DUP4 MLOAD DUP1 DUP3 DUP6 ADD MSTORE PUSH1 0x0 JUMPDEST DUP2 DUP2 LT ISZERO PUSH2 0x4A9 JUMPI DUP6 DUP2 ADD DUP4 ADD MLOAD DUP6 DUP3 ADD PUSH1 0x40 ADD MSTORE DUP3 ADD PUSH2 0x48D JUMP JUMPDEST DUP2 DUP2 GT ISZERO PUSH2 0x4BB JUMPI PUSH1 0x0 PUSH1 0x40 DUP4 DUP8 ADD ADD MSTORE JUMPDEST POP PUSH1 0x1F ADD PUSH1 0x1F NOT AND SWAP3 SWAP1 SWAP3 ADD PUSH1 0x40 ADD SWAP4 SWAP3 POP POP POP JUMP INVALID LOG2 PUSH5 0x6970667358 0x22 SLT KECCAK256 0xB0 0xB3 0xEC DUP16 RETURN 0xE2 0xDE DUP11 0xB3 0xAD SWAP12 PUSH32 0x528EF8FB3B81B1B6FD025949F69A0F7BE9EDA43B64736F6C634300080C003300 "},"methodIdentifiers":{"ERC20_BALANCE_INVALID()":"e81216b5","ERC20_NOT_APPROVED()":"35a02d73","ERC_721_NOT_APPROVED()":"c059011b","FORBIDDEN_TRANSFER_PROJECT()":"ef494c25","INVALID_ERC721_OWNER()":"90131fab","INV_ADD()":"72670508","INV_FEE_PROJECT()":"652b7f31","INV_PARAMS()":"feff83c3","INV_PROJECT()":"38abf0c9","INV_TOKEN()":"8cb739c6","MISSING_NAME()":"86f8148f","OFFERING_CLOSED()":"2b72ddbd","ONLY_ADMIN_ALLOWED()":"552e387c","ONLY_CREATOR()":"b746287b","OPENING_SCHEDULE()":"3a13248f","REACH_MAX()":"23312297","SUCCESS()":"d0a6d1a6","TOKEN_HAS_SEED()":"143c1c36","TOO_HIGH()":"585c081c","TRANSFER_FAIL()":"07475084","VALUE_INVALID()":"5560f1f8","ZERO_ADDR()":"63731080","ZERO_SEED()":"9bf3cfe3"}},"storageLayout":{"storage":[],"types":null}}}}