{"contracts/libs/helpers/EncryptDecrypt.sol":{"EncryptDecrypt":{"abi":[{"inputs":[{"internalType":"bytes","name":"data","type":"bytes"},{"internalType":"bytes","name":"key","type":"bytes"}],"name":"encryptDecrypt","outputs":[{"internalType":"bytes","name":"result","type":"bytes"}],"stateMutability":"pure","type":"function"}],"evm":{"bytecode":{"linkReferences":{},"object":"6102bd61003a600b82828239805160001a60731461002d57634e487b7160e01b600052600060045260246000fd5b30600052607381538281f3fe73000000000000000000000000000000000000000030146080604052600436106100355760003560e01c8063e71503221461003a575b600080fd5b61004d610048366004610178565b610063565b60405161005a919061020c565b60405180910390f35b8151604080518083016020019091528181529060005b818110156100cd576000848260405160200161009692919061023f565b60408051601f198184030181529190528051602091820120878401820151188584018201526100c6915082610261565b9050610079565b505092915050565b634e487b7160e01b600052604160045260246000fd5b600082601f8301126100fc57600080fd5b813567ffffffffffffffff80821115610117576101176100d5565b604051601f8301601f19908116603f0116810190828211818310171561013f5761013f6100d5565b8160405283815286602085880101111561015857600080fd5b836020870160208301376000602085830101528094505050505092915050565b6000806040838503121561018b57600080fd5b823567ffffffffffffffff808211156101a357600080fd5b6101af868387016100eb565b935060208501359150808211156101c557600080fd5b506101d2858286016100eb565b9150509250929050565b60005b838110156101f75781810151838201526020016101df565b83811115610206576000848401525b50505050565b602081526000825180602084015261022b8160408501602087016101dc565b601f01601f19169190910160400192915050565b600083516102518184602088016101dc565b9190910191825250602001919050565b6000821982111561028257634e487b7160e01b600052601160045260246000fd5b50019056fea264697066735822122051d3986102aeb60c6075cec33103f02b903b56733cf62072c34063d5ed1b0c8764736f6c634300080c0033","opcodes":"PUSH2 0x2BD PUSH2 0x3A PUSH1 0xB DUP3 DUP3 DUP3 CODECOPY DUP1 MLOAD PUSH1 0x0 BYTE PUSH1 0x73 EQ PUSH2 0x2D JUMPI PUSH4 0x4E487B71 PUSH1 0xE0 SHL PUSH1 0x0 MSTORE PUSH1 0x0 PUSH1 0x4 MSTORE PUSH1 0x24 PUSH1 0x0 REVERT JUMPDEST ADDRESS PUSH1 0x0 MSTORE PUSH1 0x73 DUP2 MSTORE8 DUP3 DUP2 RETURN INVALID PUSH20 0x0 ADDRESS EQ PUSH1 0x80 PUSH1 0x40 MSTORE PUSH1 0x4 CALLDATASIZE LT PUSH2 0x35 JUMPI PUSH1 0x0 CALLDATALOAD PUSH1 0xE0 SHR DUP1 PUSH4 0xE7150322 EQ PUSH2 0x3A JUMPI JUMPDEST PUSH1 0x0 DUP1 REVERT JUMPDEST PUSH2 0x4D PUSH2 0x48 CALLDATASIZE PUSH1 0x4 PUSH2 0x178 JUMP JUMPDEST PUSH2 0x63 JUMP JUMPDEST PUSH1 0x40 MLOAD PUSH2 0x5A SWAP2 SWAP1 PUSH2 0x20C JUMP JUMPDEST PUSH1 0x40 MLOAD DUP1 SWAP2 SUB SWAP1 RETURN JUMPDEST DUP2 MLOAD PUSH1 0x40 DUP1 MLOAD DUP1 DUP4 ADD PUSH1 0x20 ADD SWAP1 SWAP2 MSTORE DUP2 DUP2 MSTORE SWAP1 PUSH1 0x0 JUMPDEST DUP2 DUP2 LT ISZERO PUSH2 0xCD JUMPI PUSH1 0x0 DUP5 DUP3 PUSH1 0x40 MLOAD PUSH1 0x20 ADD PUSH2 0x96 SWAP3 SWAP2 SWAP1 PUSH2 0x23F JUMP JUMPDEST PUSH1 0x40 DUP1 MLOAD PUSH1 0x1F NOT DUP2 DUP5 SUB ADD DUP2 MSTORE SWAP2 SWAP1 MSTORE DUP1 MLOAD PUSH1 0x20 SWAP2 DUP3 ADD KECCAK256 DUP8 DUP5 ADD DUP3 ADD MLOAD XOR DUP6 DUP5 ADD DUP3 ADD MSTORE PUSH2 0xC6 SWAP2 POP DUP3 PUSH2 0x261 JUMP JUMPDEST SWAP1 POP PUSH2 0x79 JUMP JUMPDEST POP POP SWAP3 SWAP2 POP POP JUMP JUMPDEST PUSH4 0x4E487B71 PUSH1 0xE0 SHL PUSH1 0x0 MSTORE PUSH1 0x41 PUSH1 0x4 MSTORE PUSH1 0x24 PUSH1 0x0 REVERT JUMPDEST PUSH1 0x0 DUP3 PUSH1 0x1F DUP4 ADD SLT PUSH2 0xFC JUMPI PUSH1 0x0 DUP1 REVERT JUMPDEST DUP2 CALLDATALOAD PUSH8 0xFFFFFFFFFFFFFFFF DUP1 DUP3 GT ISZERO PUSH2 0x117 JUMPI PUSH2 0x117 PUSH2 0xD5 JUMP JUMPDEST PUSH1 0x40 MLOAD PUSH1 0x1F DUP4 ADD PUSH1 0x1F NOT SWAP1 DUP2 AND PUSH1 0x3F ADD AND DUP2 ADD SWAP1 DUP3 DUP3 GT DUP2 DUP4 LT OR ISZERO PUSH2 0x13F JUMPI PUSH2 0x13F PUSH2 0xD5 JUMP JUMPDEST DUP2 PUSH1 0x40 MSTORE DUP4 DUP2 MSTORE DUP7 PUSH1 0x20 DUP6 DUP9 ADD ADD GT ISZERO PUSH2 0x158 JUMPI PUSH1 0x0 DUP1 REVERT JUMPDEST DUP4 PUSH1 0x20 DUP8 ADD PUSH1 0x20 DUP4 ADD CALLDATACOPY PUSH1 0x0 PUSH1 0x20 DUP6 DUP4 ADD ADD MSTORE DUP1 SWAP5 POP POP POP POP POP SWAP3 SWAP2 POP POP JUMP JUMPDEST PUSH1 0x0 DUP1 PUSH1 0x40 DUP4 DUP6 SUB SLT ISZERO PUSH2 0x18B JUMPI PUSH1 0x0 DUP1 REVERT JUMPDEST DUP3 CALLDATALOAD PUSH8 0xFFFFFFFFFFFFFFFF DUP1 DUP3 GT ISZERO PUSH2 0x1A3 JUMPI PUSH1 0x0 DUP1 REVERT JUMPDEST PUSH2 0x1AF DUP7 DUP4 DUP8 ADD PUSH2 0xEB JUMP JUMPDEST SWAP4 POP PUSH1 0x20 DUP6 ADD CALLDATALOAD SWAP2 POP DUP1 DUP3 GT ISZERO PUSH2 0x1C5 JUMPI PUSH1 0x0 DUP1 REVERT JUMPDEST POP PUSH2 0x1D2 DUP6 DUP3 DUP7 ADD PUSH2 0xEB JUMP JUMPDEST SWAP2 POP POP SWAP3 POP SWAP3 SWAP1 POP JUMP JUMPDEST PUSH1 0x0 JUMPDEST DUP4 DUP2 LT ISZERO PUSH2 0x1F7 JUMPI DUP2 DUP2 ADD MLOAD DUP4 DUP3 ADD MSTORE PUSH1 0x20 ADD PUSH2 0x1DF JUMP JUMPDEST DUP4 DUP2 GT ISZERO PUSH2 0x206 JUMPI PUSH1 0x0 DUP5 DUP5 ADD MSTORE JUMPDEST POP POP POP POP JUMP JUMPDEST PUSH1 0x20 DUP2 MSTORE PUSH1 0x0 DUP3 MLOAD DUP1 PUSH1 0x20 DUP5 ADD MSTORE PUSH2 0x22B DUP2 PUSH1 0x40 DUP6 ADD PUSH1 0x20 DUP8 ADD PUSH2 0x1DC JUMP JUMPDEST PUSH1 0x1F ADD PUSH1 0x1F NOT AND SWAP2 SWAP1 SWAP2 ADD PUSH1 0x40 ADD SWAP3 SWAP2 POP POP JUMP JUMPDEST PUSH1 0x0 DUP4 MLOAD PUSH2 0x251 DUP2 DUP5 PUSH1 0x20 DUP9 ADD PUSH2 0x1DC JUMP JUMPDEST SWAP2 SWAP1 SWAP2 ADD SWAP2 DUP3 MSTORE POP PUSH1 0x20 ADD SWAP2 SWAP1 POP JUMP JUMPDEST PUSH1 0x0 DUP3 NOT DUP3 GT ISZERO PUSH2 0x282 JUMPI PUSH4 0x4E487B71 PUSH1 0xE0 SHL PUSH1 0x0 MSTORE PUSH1 0x11 PUSH1 0x4 MSTORE PUSH1 0x24 PUSH1 0x0 REVERT JUMPDEST POP ADD SWAP1 JUMP INVALID LOG2 PUSH5 0x6970667358 0x22 SLT KECCAK256 MLOAD 0xD3 SWAP9 PUSH2 0x2AE 0xB6 0xC PUSH1 0x75 0xCE 0xC3 BALANCE SUB CREATE 0x2B SWAP1 EXTCODESIZE JUMP PUSH20 0x3CF62072C34063D5ED1B0C8764736F6C63430008 0xC STOP CALLER "},"methodIdentifiers":{"encryptDecrypt(bytes,bytes)":"e7150322"}},"storageLayout":{"storage":[],"types":null}}}}