{"contracts/nfts/GenerativeNFT.sol":{"GenerativeNFT":{"abi":[{"inputs":[{"internalType":"string","name":"name","type":"string"},{"internalType":"string","name":"symbol","type":"string"}],"stateMutability":"nonpayable","type":"constructor"},{"inputs":[{"internalType":"address","name":"operator","type":"address"}],"name":"OperatorNotAllowed","type":"error"},{"anonymous":false,"inputs":[{"indexed":true,"internalType":"address","name":"owner","type":"address"},{"indexed":true,"internalType":"address","name":"approved","type":"address"},{"indexed":true,"internalType":"uint256","name":"tokenId","type":"uint256"}],"name":"Approval","type":"event"},{"anonymous":false,"inputs":[{"indexed":true,"internalType":"address","name":"owner","type":"address"},{"indexed":true,"internalType":"address","name":"operator","type":"address"},{"indexed":false,"internalType":"bool","name":"approved","type":"bool"}],"name":"ApprovalForAll","type":"event"},{"anonymous":false,"inputs":[{"indexed":true,"internalType":"address","name":"previousOwner","type":"address"},{"indexed":true,"internalType":"address","name":"newOwner","type":"address"}],"name":"OwnershipTransferred","type":"event"},{"anonymous":false,"inputs":[{"indexed":false,"internalType":"address","name":"account","type":"address"}],"name":"Paused","type":"event"},{"anonymous":false,"inputs":[{"indexed":true,"internalType":"address","name":"from","type":"address"},{"indexed":true,"internalType":"address","name":"to","type":"address"},{"indexed":true,"internalType":"uint256","name":"tokenId","type":"uint256"}],"name":"Transfer","type":"event"},{"anonymous":false,"inputs":[{"indexed":false,"internalType":"address","name":"account","type":"address"}],"name":"Unpaused","type":"event"},{"inputs":[],"name":"OPERATOR_FILTER_REGISTRY","outputs":[{"internalType":"contract IOperatorFilterRegistry","name":"","type":"address"}],"stateMutability":"view","type":"function"},{"inputs":[],"name":"_admin","outputs":[{"internalType":"address","name":"","type":"address"}],"stateMutability":"view","type":"function"},{"inputs":[],"name":"_nameCol","outputs":[{"internalType":"string","name":"","type":"string"}],"stateMutability":"view","type":"function"},{"inputs":[],"name":"_paramsAddress","outputs":[{"internalType":"address","name":"","type":"address"}],"stateMutability":"view","type":"function"},{"inputs":[],"name":"_project","outputs":[{"internalType":"address","name":"_projectAddr","type":"address"},{"internalType":"uint256","name":"_projectId","type":"uint256"},{"internalType":"uint24","name":"_maxSupply","type":"uint24"},{"internalType":"uint24","name":"_limit","type":"uint24"},{"internalType":"uint24","name":"_index","type":"uint24"},{"internalType":"uint24","name":"_indexReserve","type":"uint24"},{"internalType":"string","name":"_creator","type":"string"},{"internalType":"address","name":"_creatorAddr","type":"address"},{"internalType":"uint256","name":"_mintPrice","type":"uint256"},{"internalType":"address","name":"_mintPriceAddr","type":"address"},{"internalType":"string","name":"_name","type":"string"},{"components":[{"internalType":"uint256","name":"_initBlockTime","type":"uint256"},{"internalType":"uint256","name":"_openingTime","type":"uint256"}],"internalType":"struct NFTProject.ProjectMintingSchedule","name":"_mintingSchedule","type":"tuple"}],"stateMutability":"view","type":"function"},{"inputs":[],"name":"_projectDataContextAddr","outputs":[{"internalType":"address","name":"","type":"address"}],"stateMutability":"view","type":"function"},{"inputs":[],"name":"_randomizer","outputs":[{"internalType":"address","name":"","type":"address"}],"stateMutability":"view","type":"function"},{"inputs":[],"name":"_royalty","outputs":[{"internalType":"uint256","name":"","type":"uint256"}],"stateMutability":"view","type":"function"},{"inputs":[{"internalType":"address","name":"to","type":"address"},{"internalType":"uint256","name":"tokenId","type":"uint256"}],"name":"approve","outputs":[],"stateMutability":"nonpayable","type":"function"},{"inputs":[{"internalType":"address","name":"owner","type":"address"}],"name":"balanceOf","outputs":[{"internalType":"uint256","name":"","type":"uint256"}],"stateMutability":"view","type":"function"},{"inputs":[{"internalType":"address","name":"newAdm","type":"address"}],"name":"changeAdmin","outputs":[],"stateMutability":"nonpayable","type":"function"},{"inputs":[{"internalType":"address","name":"newAddr","type":"address"}],"name":"changeDataContextAddr","outputs":[],"stateMutability":"nonpayable","type":"function"},{"inputs":[{"internalType":"address","name":"newAddr","type":"address"}],"name":"changeParamAddr","outputs":[],"stateMutability":"nonpayable","type":"function"},{"inputs":[{"internalType":"address","name":"newAddr","type":"address"}],"name":"changeRandomizerAddr","outputs":[],"stateMutability":"nonpayable","type":"function"},{"inputs":[{"internalType":"uint256","name":"tokenId","type":"uint256"}],"name":"getApproved","outputs":[{"internalType":"address","name":"","type":"address"}],"stateMutability":"view","type":"function"},{"inputs":[],"name":"getStatus","outputs":[{"internalType":"bool","name":"","type":"bool"}],"stateMutability":"view","type":"function"},{"inputs":[{"components":[{"internalType":"address","name":"_projectAddr","type":"address"},{"internalType":"uint256","name":"_projectId","type":"uint256"},{"internalType":"uint24","name":"_maxSupply","type":"uint24"},{"internalType":"uint24","name":"_limit","type":"uint24"},{"internalType":"uint24","name":"_index","type":"uint24"},{"internalType":"uint24","name":"_indexReserve","type":"uint24"},{"internalType":"string","name":"_creator","type":"string"},{"internalType":"address","name":"_creatorAddr","type":"address"},{"internalType":"uint256","name":"_mintPrice","type":"uint256"},{"internalType":"address","name":"_mintPriceAddr","type":"address"},{"internalType":"string","name":"_name","type":"string"},{"components":[{"internalType":"uint256","name":"_initBlockTime","type":"uint256"},{"internalType":"uint256","name":"_openingTime","type":"uint256"}],"internalType":"struct NFTProject.ProjectMintingSchedule","name":"_mintingSchedule","type":"tuple"}],"internalType":"struct NFTProject.ProjectMinting","name":"project","type":"tuple"},{"internalType":"address","name":"admin","type":"address"},{"internalType":"address","name":"paramsAddr","type":"address"},{"internalType":"address","name":"randomizer","type":"address"},{"internalType":"address","name":"projectDataContextAddr","type":"address"},{"internalType":"address[]","name":"reserves","type":"address[]"},{"internalType":"bool","name":"disable","type":"bool"},{"internalType":"uint256","name":"royalty","type":"uint256"}],"name":"init","outputs":[],"stateMutability":"nonpayable","type":"function"},{"inputs":[{"internalType":"address","name":"owner","type":"address"},{"internalType":"address","name":"operator","type":"address"}],"name":"isApprovedForAll","outputs":[{"internalType":"bool","name":"","type":"bool"}],"stateMutability":"view","type":"function"},{"inputs":[],"name":"mint","outputs":[{"internalType":"uint256","name":"tokenId","type":"uint256"}],"stateMutability":"payable","type":"function"},{"inputs":[],"name":"name","outputs":[{"internalType":"string","name":"","type":"string"}],"stateMutability":"view","type":"function"},{"inputs":[],"name":"owner","outputs":[{"internalType":"address","name":"","type":"address"}],"stateMutability":"view","type":"function"},{"inputs":[{"internalType":"uint256","name":"tokenId","type":"uint256"}],"name":"ownerOf","outputs":[{"internalType":"address","name":"","type":"address"}],"stateMutability":"view","type":"function"},{"inputs":[],"name":"paused","outputs":[{"internalType":"bool","name":"","type":"bool"}],"stateMutability":"view","type":"function"},{"inputs":[],"name":"renounceOwnership","outputs":[],"stateMutability":"nonpayable","type":"function"},{"inputs":[],"name":"reserveMint","outputs":[{"internalType":"uint256","name":"tokenId","type":"uint256"}],"stateMutability":"payable","type":"function"},{"inputs":[{"internalType":"uint256","name":"_tokenId","type":"uint256"},{"internalType":"uint256","name":"_salePrice","type":"uint256"}],"name":"royaltyInfo","outputs":[{"internalType":"address","name":"receiver","type":"address"},{"internalType":"uint256","name":"royaltyAmount","type":"uint256"}],"stateMutability":"view","type":"function"},{"inputs":[{"internalType":"address","name":"from","type":"address"},{"internalType":"address","name":"to","type":"address"},{"internalType":"uint256","name":"tokenId","type":"uint256"}],"name":"safeTransferFrom","outputs":[],"stateMutability":"nonpayable","type":"function"},{"inputs":[{"internalType":"address","name":"from","type":"address"},{"internalType":"address","name":"to","type":"address"},{"internalType":"uint256","name":"tokenId","type":"uint256"},{"internalType":"bytes","name":"data","type":"bytes"}],"name":"safeTransferFrom","outputs":[],"stateMutability":"nonpayable","type":"function"},{"inputs":[{"internalType":"address","name":"operator","type":"address"},{"internalType":"bool","name":"approved","type":"bool"}],"name":"setApprovalForAll","outputs":[],"stateMutability":"nonpayable","type":"function"},{"inputs":[{"internalType":"bool","name":"enable","type":"bool"}],"name":"setStatus","outputs":[],"stateMutability":"nonpayable","type":"function"},{"inputs":[{"internalType":"bytes4","name":"interfaceId","type":"bytes4"}],"name":"supportsInterface","outputs":[{"internalType":"bool","name":"","type":"bool"}],"stateMutability":"view","type":"function"},{"inputs":[],"name":"symbol","outputs":[{"internalType":"string","name":"","type":"string"}],"stateMutability":"view","type":"function"},{"inputs":[{"internalType":"uint256","name":"tokenId","type":"uint256"}],"name":"tokenGenerativeURI","outputs":[{"internalType":"string","name":"","type":"string"}],"stateMutability":"view","type":"function"},{"inputs":[{"internalType":"uint256","name":"tokenId","type":"uint256"}],"name":"tokenIdToHash","outputs":[{"internalType":"bytes32","name":"","type":"bytes32"}],"stateMutability":"view","type":"function"},{"inputs":[{"internalType":"uint256","name":"tokenId","type":"uint256"}],"name":"tokenURI","outputs":[{"internalType":"string","name":"","type":"string"}],"stateMutability":"view","type":"function"},{"inputs":[{"internalType":"address","name":"from","type":"address"},{"internalType":"address","name":"to","type":"address"},{"internalType":"uint256","name":"tokenId","type":"uint256"}],"name":"transferFrom","outputs":[],"stateMutability":"nonpayable","type":"function"},{"inputs":[{"internalType":"address","name":"newOwner","type":"address"}],"name":"transferOwnership","outputs":[],"stateMutability":"nonpayable","type":"function"}],"evm":{"bytecode":{"linkReferences":{},"object":"60806040523480156200001157600080fd5b50604051620040c2380380620040c28339810160408190526200003491620003b0565b733cc6cdda760b79bafa08df41ecfa224f810dceb66001838381818160009080519060200190620000679291906200023d565b5080516200007d9060019060208401906200023d565b50506006805460ff191690555060016007556200009a33620001eb565b50506daaeb6d7670e522a718067333cd4e3b15620001e15780156200012f57604051633e9f1edf60e11b81523060048201526001600160a01b03831660248201526daaeb6d7670e522a718067333cd4e90637d3e3dbe906044015b600060405180830381600087803b1580156200011057600080fd5b505af115801562000125573d6000803e3d6000fd5b50505050620001e1565b6001600160a01b03821615620001805760405163a0af290360e01b81523060048201526001600160a01b03831660248201526daaeb6d7670e522a718067333cd4e9063a0af290390604401620000f5565b604051632210724360e11b81523060048201526daaeb6d7670e522a718067333cd4e90634420e48690602401600060405180830381600087803b158015620001c757600080fd5b505af1158015620001dc573d6000803e3d6000fd5b505050505b5050505062000457565b600880546001600160a01b038381166001600160a01b0319831681179093556040519116919082907f8be0079c531659141344cd1fd0a4f28419497f9722a3daafe3b4186f6b6457e090600090a35050565b8280546200024b906200041a565b90600052602060002090601f0160209004810192826200026f5760008555620002ba565b82601f106200028a57805160ff1916838001178555620002ba565b82800160010185558215620002ba579182015b82811115620002ba5782518255916020019190600101906200029d565b50620002c8929150620002cc565b5090565b5b80821115620002c85760008155600101620002cd565b634e487b7160e01b600052604160045260246000fd5b600082601f8301126200030b57600080fd5b81516001600160401b0380821115620003285762000328620002e3565b604051601f8301601f19908116603f01168101908282118183101715620003535762000353620002e3565b816040528381526020925086838588010111156200037057600080fd5b600091505b8382101562000394578582018301518183018401529082019062000375565b83821115620003a65760008385830101525b9695505050505050565b60008060408385031215620003c457600080fd5b82516001600160401b0380821115620003dc57600080fd5b620003ea86838701620002f9565b935060208501519150808211156200040157600080fd5b506200041085828601620002f9565b9150509250929050565b600181811c908216806200042f57607f821691505b602082108114156200045157634e487b7160e01b600052602260045260246000fd5b50919050565b613c5b80620004676000396000f3fe60806040526004361061021a5760003560e01c80635c40f6f41161012357806395d89b41116100ab578063e985e9c51161006f578063e985e9c514610632578063ef169be21461067b578063f2fde38b1461069b578063febfd6c3146106bb578063ffc27c0e146106db57600080fd5b806395d89b411461059d578063a22cb465146105b2578063adfc7dae146105d2578063b88d4fde146105f2578063c87b56dd1461061257600080fd5b806370a08231116100f257806370a08231146104fd578063715018a61461051d578063775bff9f146105325780638da5cb5b1461055f5780638f2839701461057d57600080fd5b80635c40f6f41461046f5780635c975abb1461048f578063621a1f74146104a75780636352211e146104c757600080fd5b806323b872dd116101a657806342842e0e1161017557806342842e0e146103e5578063452fa3d314610405578063472f1e021461041a5780634e69d5601461043a578063575b57ea1461044f57600080fd5b806323b872dd1461034e5780632a55205a1461036e5780633b66b00a146103ad57806341f43434146103c357600080fd5b8063095ea7b3116101ed578063095ea7b3146102ce57806310da88c5146102f05780631249c58b146103105780631ca9741b1461032657806321c8d6761461034657600080fd5b806301bc45c91461021f57806301ffc9a71461025c57806306fdde031461028c578063081812fc146102ae575b600080fd5b34801561022b57600080fd5b50600a5461023f906001600160a01b031681565b6040516001600160a01b0390911681526020015b60405180910390f35b34801561026857600080fd5b5061027c6102773660046131b3565b6106fb565b6040519015158152602001610253565b34801561029857600080fd5b506102a161074d565b604051610253919061322f565b3480156102ba57600080fd5b5061023f6102c9366004613242565b6107df565b3480156102da57600080fd5b506102ee6102e9366004613280565b610806565b005b3480156102fc57600080fd5b506102a161030b366004613242565b610921565b610318610a64565b604051908152602001610253565b34801561033257600080fd5b506102ee6103413660046132ac565b610cb0565b610318610d41565b34801561035a57600080fd5b506102ee6103693660046132c9565b61107b565b34801561037a57600080fd5b5061038e61038936600461330a565b6110a6565b604080516001600160a01b039093168352602083019190915201610253565b3480156103b957600080fd5b50610318600f5481565b3480156103cf57600080fd5b5061023f6daaeb6d7670e522a718067333cd4e81565b3480156103f157600080fd5b506102ee6104003660046132c9565b6110be565b34801561041157600080fd5b506102a16110e3565b34801561042657600080fd5b506102ee6104353660046132ac565b611171565b34801561044657600080fd5b5061027c611203565b34801561045b57600080fd5b50600d5461023f906001600160a01b031681565b34801561047b57600080fd5b506102ee61048a366004613345565b611217565b34801561049b57600080fd5b5060065460ff1661027c565b3480156104b357600080fd5b506103186104c2366004613242565b61127e565b3480156104d357600080fd5b5061023f6104e2366004613242565b6000908152600960205260409020546001600160a01b031690565b34801561050957600080fd5b506103186105183660046132ac565b61134a565b34801561052957600080fd5b506102ee6113d0565b34801561053e57600080fd5b506105476113e4565b6040516102539c9b9a99989796959493929190613362565b34801561056b57600080fd5b50600a546001600160a01b031661023f565b34801561058957600080fd5b506102ee6105983660046132ac565b611587565b3480156105a957600080fd5b506102a1611619565b3480156105be57600080fd5b506102ee6105cd36600461341f565b6116b7565b3480156105de57600080fd5b50600b5461023f906001600160a01b031681565b3480156105fe57600080fd5b506102ee61060d36600461352f565b6116c6565b34801561061e57600080fd5b506102a161062d366004613242565b6116f3565b34801561063e57600080fd5b5061027c61064d3660046135af565b6001600160a01b03918216600090815260056020908152604080832093909416825291909152205460ff1690565b34801561068757600080fd5b506102ee6106963660046136e8565b6117ed565b3480156106a757600080fd5b506102ee6106b63660046132ac565b611ad5565b3480156106c757600080fd5b506102ee6106d63660046132ac565b611b4b565b3480156106e757600080fd5b50600c5461023f906001600160a01b031681565b60006001600160e01b031982166380ac58cd60e01b148061072c57506001600160e01b03198216635b5e139f60e01b145b8061074757506301ffc9a760e01b6001600160e01b03198316145b92915050565b6060600e805461075c906138a2565b80601f0160208091040260200160405190810160405280929190818152602001828054610788906138a2565b80156107d55780601f106107aa576101008083540402835291602001916107d5565b820191906000526020600020905b8154815290600101906020018083116107b857829003601f168201915b5050505050905090565b60006107ea82611bdd565b506000908152600460205260409020546001600160a01b031690565b600061081182611c2d565b9050806001600160a01b0316836001600160a01b031614156108845760405162461bcd60e51b815260206004820152602160248201527f4552433732313a20617070726f76616c20746f2063757272656e74206f776e656044820152603960f91b60648201526084015b60405180910390fd5b336001600160a01b03821614806108a057506108a0813361064d565b6109125760405162461bcd60e51b815260206004820152603d60248201527f4552433732313a20617070726f76652063616c6c6572206973206e6f7420746f60448201527f6b656e206f776e6572206f7220617070726f76656420666f7220616c6c000000606482015260840161087b565b61091c8383611c8d565b505050565b606061092c82611cfb565b6040518060400160405280600381526020016232303960e81b815250906109665760405162461bcd60e51b815260040161087b919061322f565b50600d5460405163188687dd60e21b8152600481018490526001600160a01b0390911690600090309063621a1f7490602401602060405180830381865afa1580156109b5573d6000803e3d6000fd5b505050506040513d601f19601f820116820180604052508101906109d991906138dd565b601154604051639413930160e01b8152600481019190915260248101869052604481018290529091506001600160a01b038316906394139301906064015b600060405180830381865afa158015610a34573d6000803e3d6000fd5b505050506040513d6000823e601f3d908101601f19168201604052610a5c91908101906138f6565b949350505050565b6000610a6e611d18565b60195415610ab55760195460408051808201909152600381526206460760eb1b6020820152904211610ab35760405162461bcd60e51b815260040161087b919061322f565b505b60128054600160301b900462ffffff16906006610ad183613983565b82546101009290920a62ffffff818102199093169183160217909155601254630100000081048216600160301b90910490911611159050610b1157600080fd5b60125462ffffff80821691610b3791600160481b8204811691600160301b9004166139a6565b62ffffff161415610ba857601054601154604051631122f8a960e11b815260048101919091526001600160a01b03909116908190632245f15290602401600060405180830381600087803b158015610b8e57600080fd5b505af1158015610ba2573d6000803e3d6000fd5b50505050505b601254601154600160301b90910462ffffff1690610bca90620f4240906139cd565b610bd491906139ec565b9050610be03382611d72565b600c54604051631da00d8560e01b8152600481018390526001600160a01b03909116906000908290631da00d85906024016020604051808303816000875af1158015610c30573d6000803e3d6000fd5b505050506040513d601f19601f82011682018060405250810190610c5491906138dd565b9050610c608382611d8c565b610c68611e55565b60408051338152602081018590527f0f6798a560793a54c3bcfe86a93cde1e73087d944c0ea20544137d4121396885910160405180910390a15050610cad6001600755565b90565b600a546001600160a01b031633148015610cd257506001600160a01b03811615155b6040518060400160405280600381526020016231303160e81b81525090610d0c5760405162461bcd60e51b815260040161087b919061322f565b50600c546001600160a01b03828116911614610d3e57600c80546001600160a01b0319166001600160a01b0383161790555b50565b6000610d4b611d18565b60128054600160481b900462ffffff16906009610d6783613983565b82546101009290920a62ffffff8181021990931691831602179091556012548082169250610da69163010000008204811691600160481b9004166139a6565b62ffffff161115610db657600080fd5b60125462ffffff80821691610ddc91600160481b8204811691600160301b9004166139a6565b62ffffff161415610e4d57601054601154604051631122f8a960e11b815260048101919091526001600160a01b03909116908190632245f15290602401600060405180830381600087803b158015610e3357600080fd5b505af1158015610e47573d6000803e3d6000fd5b50505050505b601054336000908152601a60205260409020546001600160a01b039091169060ff1680610ef757506011546040516331a9108f60e11b815260048101919091526001600160a01b03821690636352211e90602401602060405180830381865afa158015610ebe573d6000803e3d6000fd5b505050506040513d601f19601f82011682018060405250810190610ee29190613a04565b6001600160a01b0316336001600160a01b0316145b610f0057600080fd5b336000908152601a602052604090205460ff168015610f20575060195415155b15610f645760195460408051808201909152600381526206460760eb1b6020820152904211610f625760405162461bcd60e51b815260040161087b919061322f565b505b601254610f869062ffffff63010000008204811691600160481b9004166139a6565b62ffffff16620f4240601060010154610f9f91906139cd565b610fa991906139ec565b9150610fb53383611d72565b600c54604051631da00d8560e01b8152600481018490526001600160a01b03909116906000908290631da00d85906024016020604051808303816000875af1158015611005573d6000803e3d6000fd5b505050506040513d601f19601f8201168201806040525081019061102991906138dd565b90506110358482611d8c565b60408051338152602081018690527f0f6798a560793a54c3bcfe86a93cde1e73087d944c0ea20544137d4121396885910160405180910390a1505050610cad6001600755565b826001600160a01b0381163314611095576110953361243a565b6110a08484846124f3565b50505050565b6000806110b38484612524565b915091509250929050565b826001600160a01b03811633146110d8576110d83361243a565b6110a08484846126be565b600e80546110f0906138a2565b80601f016020809104026020016040519081016040528092919081815260200182805461111c906138a2565b80156111695780601f1061113e57610100808354040283529160200191611169565b820191906000526020600020905b81548152906001019060200180831161114c57829003601f168201915b505050505081565b600a546001600160a01b03163314801561119357506001600160a01b03811615155b6040518060400160405280600381526020016231303160e81b815250906111cd5760405162461bcd60e51b815260040161087b919061322f565b50600d546001600160a01b03828116911614610d3e57600d80546001600160a01b0383166001600160a01b031990911617905550565b600061121160065460ff1690565b15905090565b600a546001600160a01b031633148061123a57506010546001600160a01b031633145b6040518060400160405280600381526020016231303160e81b815250906112745760405162461bcd60e51b815260040161087b919061322f565b50610d3e816126d9565b600061128982611cfb565b6040518060400160405280600381526020016232303960e81b815250906112c35760405162461bcd60e51b815260040161087b919061322f565b50600082815260096020526040902054600160a01b900460a01b6001600160a01b0319166112f357506000919050565b60008281526009602090815260409182902054915161132d92600160a01b900460a01b91016001600160a01b031991909116815260200190565b604051602081830303815290604052805190602001209050919050565b60006001600160a01b0382166113b45760405162461bcd60e51b815260206004820152602960248201527f4552433732313a2061646472657373207a65726f206973206e6f7420612076616044820152683634b21037bbb732b960b91b606482015260840161087b565b506001600160a01b031660009081526003602052604090205490565b6113d86126ef565b6113e2600061276d565b565b60108054601154601254601380546001600160a01b0390941694929362ffffff8084169463010000008504821694600160301b8104831694600160481b90910490921692909190611434906138a2565b80601f0160208091040260200160405190810160405280929190818152602001828054611460906138a2565b80156114ad5780601f10611482576101008083540402835291602001916114ad565b820191906000526020600020905b81548152906001019060200180831161149057829003601f168201915b5050505060048301546005840154600685015460078601805495966001600160a01b03948516969395509390911692916114e6906138a2565b80601f0160208091040260200160405190810160405280929190818152602001828054611512906138a2565b801561155f5780601f106115345761010080835404028352916020019161155f565b820191906000526020600020905b81548152906001019060200180831161154257829003601f168201915b50506040805180820190915260088601548152600990950154602086015250919291508d9050565b600a546001600160a01b0316331480156115a957506001600160a01b03811615155b6040518060400160405280600381526020016231303160e81b815250906115e35760405162461bcd60e51b815260040161087b919061322f565b50600a546001600160a01b03828116911614610d3e57600a80546001600160a01b0383166001600160a01b031990911617905550565b60606116b260016003600e805461162f906138a2565b80601f016020809104026020016040519081016040528092919081815260200182805461165b906138a2565b80156116a85780601f1061167d576101008083540402835291602001916116a8565b820191906000526020600020905b81548152906001019060200180831161168b57829003601f168201915b50505050506127bf565b905090565b6116c23383836128a6565b5050565b836001600160a01b03811633146116e0576116e03361243a565b6116ec85858585612975565b5050505050565b60606116fe82611cfb565b6040518060400160405280600381526020016232303960e81b815250906117385760405162461bcd60e51b815260040161087b919061322f565b50600d5460405163188687dd60e21b8152600481018490526001600160a01b0390911690600090309063621a1f7490602401602060405180830381865afa158015611787573d6000803e3d6000fd5b505050506040513d601f19601f820116820180604052508101906117ab91906138dd565b6011546040516308dd54e960e31b8152600481019190915260248101869052604481018290529091506001600160a01b038316906346eaa74890606401610a17565b600a5460408051808201909152600381526219181960e91b6020820152906001600160a01b0316156118325760405162461bcd60e51b815260040161087b919061322f565b5060408051808201909152600381526203130360ec1b60208201526001600160a01b0388166118745760405162461bcd60e51b815260040161087b919061322f565b508751601080546001600160a01b039092166001600160a01b03199092169190911781556020808a015160115560408a01516012805460608d015160808e015160a08f015162ffffff908116600160481b026bffffff00000000000000000019928216600160301b02929092166bffffffffffff0000000000001993821663010000000265ffffffffffff19909516919096161792909217169290921791909117905560c08a015180518b939261193092601392910190613104565b5060e08201516004820180546001600160a01b039283166001600160a01b03199182161790915561010084015160058401556101208401516006840180549190931691161790556101408201518051611993916007840191602090910190613104565b50610160919091015180516008830155602090810151600990920191909155600b80546001600160a01b03808a166001600160a01b031992831617909255600a80548b8416908316179055600c8054898416908316179055600d80549288169290911691909117905561014089015160c08a0151604051611a149301613a21565b604051602081830303815290604052600e9080519060200190611a38929190613104565b5060005b8351811015611aa1576001601a6000868481518110611a5d57611a5d613a60565b6020908102919091018101516001600160a01b03168252810191909152604001600020805460ff191691151591909117905580611a9981613a76565b915050611a3c565b50600a54611ab7906001600160a01b0316611ad5565b8115611ac557611ac56129a7565b42601855600f5550505050505050565b611add6126ef565b6001600160a01b038116611b425760405162461bcd60e51b815260206004820152602660248201527f4f776e61626c653a206e6577206f776e657220697320746865207a65726f206160448201526564647265737360d01b606482015260840161087b565b610d3e8161276d565b600a546001600160a01b031633148015611b6d57506001600160a01b03811615155b6040518060400160405280600381526020016231303160e81b81525090611ba75760405162461bcd60e51b815260040161087b919061322f565b50600b546001600160a01b03828116911614610d3e57600b80546001600160a01b0383166001600160a01b031990911617905550565b611be681611cfb565b610d3e5760405162461bcd60e51b8152602060048201526018602482015277115490cdcc8c4e881a5b9d985b1a59081d1bdad95b88125160421b604482015260640161087b565b6000818152600260205260408120546001600160a01b0316806107475760405162461bcd60e51b8152602060048201526018602482015277115490cdcc8c4e881a5b9d985b1a59081d1bdad95b88125160421b604482015260640161087b565b600081815260046020526040902080546001600160a01b0319166001600160a01b0384169081179091558190611cc282611c2d565b6001600160a01b03167f8c5be1e5ebec7d5bd14f71427d1e84f3dd0314c0f7b2291e5b200ac8c7c3b92560405160405180910390a45050565b6000908152600960205260409020546001600160a01b0316151590565b60026007541415611d6b5760405162461bcd60e51b815260206004820152601f60248201527f5265656e7472616e637947756172643a207265656e7472616e742063616c6c00604482015260640161087b565b6002600755565b6116c2828260405180602001604052806000815250612a01565b600082815260096020908152604091829020548251808401909352600383526219181b60e91b91830191909152600160a01b900460a01b6001600160a01b03191615611deb5760405162461bcd60e51b815260040161087b919061322f565b5060408051808201909152600381526232303760e81b602082015281611e245760405162461bcd60e51b815260040161087b919061322f565b50600091825260096020526040909120805460a09290921c600160a01b026001600160a01b03909216919091179055565b60155480611e605750565b601054600b54604080518082018252601b81527f44454641554c545f524f59414c54595f46494e5f50455243454e54000000000060208201529051636d12dce160e01b81526001600160a01b0393841693909216916000918391636d12dce191611ecc9160040161322f565b602060405180830381865afa158015611ee9573d6000803e3d6000fd5b505050506040513d601f19601f82011682018060405250810190611f0d91906138dd565b600a54600b549192506001600160a01b039081169116156120795760408051808201825260158152744d494e545f4e46545f4f50455241544f525f46454560581b60208201529051636d12dce160e01b81526001600160a01b03851691636d12dce191611f7d919060040161322f565b602060405180830381865afa158015611f9a573d6000803e3d6000fd5b505050506040513d601f19601f82011682018060405250810190611fbe91906138dd565b604080518082018252601f81527f4d494e545f4e46545f4f50455241544f525f54524541535552455f41444452006020820152905163bf40fac160e01b81529193506000916001600160a01b0386169163bf40fac191612021919060040161322f565b602060405180830381865afa15801561203e573d6000803e3d6000fd5b505050506040513d601f19601f820116820180604052508101906120629190613a04565b90506001600160a01b03811615612077578091505b505b6016546001600160a01b0316806121f9578534101561209757600080fd5b6011546040516331a9108f60e11b81526000916001600160a01b03881691636352211e916120cb9160040190815260200190565b602060405180830381865afa1580156120e8573d6000803e3d6000fd5b505050506040513d601f19601f8201168201806040525081019061210c9190613a04565b6001600160a01b0316612710612122868a6139cd565b61212c9190613a91565b6121369089613ab3565b604051600081818185875af1925050503d8060008114612172576040519150601f19603f3d011682016040523d82523d6000602084013e612177565b606091505b505090508061218557600080fd5b83156121f3576001600160a01b0383166127106121a2868a6139cd565b6121ac9190613a91565b604051600081818185875af1925050503d80600081146121e8576040519150601f19603f3d011682016040523d82523d6000602084013e6121ed565b606091505b50909150505b50612432565b6040516323b872dd60e01b81523360048201523060248201526044810187905281906001600160a01b038216906323b872dd906064016020604051808303816000875af115801561224e573d6000803e3d6000fd5b505050506040513d601f19601f820116820180604052508101906122729190613aca565b61227b57600080fd5b6011546040516331a9108f60e11b815260048101919091526001600160a01b038281169163a9059cbb91891690636352211e90602401602060405180830381865afa1580156122ce573d6000803e3d6000fd5b505050506040513d601f19601f820116820180604052508101906122f29190613a04565b6127106122ff888c6139cd565b6123099190613a91565b612313908b613ab3565b6040516001600160e01b031960e085901b1681526001600160a01b03909216600483015260248201526044016020604051808303816000875af115801561235e573d6000803e3d6000fd5b505050506040513d601f19601f820116820180604052508101906123829190613aca565b61238b57600080fd5b8315612430576001600160a01b03811663a9059cbb846127106123ae888c6139cd565b6123b89190613a91565b6040516001600160e01b031960e085901b1681526001600160a01b03909216600483015260248201526044016020604051808303816000875af1158015612403573d6000803e3d6000fd5b505050506040513d601f19601f820116820180604052508101906124279190613aca565b61243057600080fd5b505b505050505050565b6daaeb6d7670e522a718067333cd4e3b15610d3e57604051633185c44d60e21b81523060048201526001600160a01b03821660248201526daaeb6d7670e522a718067333cd4e9063c617113490604401602060405180830381865afa1580156124a7573d6000803e3d6000fd5b505050506040513d601f19601f820116820180604052508101906124cb9190613aca565b610d3e57604051633b79c77360e21b81526001600160a01b038216600482015260240161087b565b6124fd3382612a34565b6125195760405162461bcd60e51b815260040161087b90613ae7565b61091c838383612ab2565b600a54600f54600b546001600160a01b039283169260009291161561269d57600b546040805180820182526013815272524f59414c54595f46494e5f4144445245535360681b6020820152905163bf40fac160e01b81526001600160a01b0390921691600091839163bf40fac19161259e9160040161322f565b602060405180830381865afa1580156125bb573d6000803e3d6000fd5b505050506040513d601f19601f820116820180604052508101906125df9190613a04565b90506001600160a01b038116156125f4578094505b8261269a57604080518082018252601b81527f44454641554c545f524f59414c54595f46494e5f50455243454e54000000000060208201529051636d12dce160e01b81526001600160a01b03841691636d12dce191612656919060040161322f565b602060405180830381865afa158015612673573d6000803e3d6000fd5b505050506040513d601f19601f8201168201806040525081019061269791906138dd565b92505b50505b6127106126aa82866139cd565b6126b49190613a91565b9150509250929050565b61091c838383604051806020016040528060008152506116c6565b80156126e757610d3e612aec565b610d3e6129a7565b33612702600a546001600160a01b031690565b6001600160a01b0316148061272157506010546001600160a01b031633145b6113e25760405162461bcd60e51b815260206004820181905260248201527f4f776e61626c653a2063616c6c6572206973206e6f7420746865206f776e6572604482015260640161087b565b600880546001600160a01b038381166001600160a01b0319831681179093556040519116919082907f8be0079c531659141344cd1fd0a4f28419497f9722a3daafe3b4186f6b6457e090600090a35050565b606060006127cd8585613ab3565b6127d89060016139ec565b67ffffffffffffffff8111156127f0576127f0613458565b6040519080825280601f01601f19166020018201604052801561281a576020820181803683370190505b50905060005b61282a8686613ab3565b811161289d5783600161283d88846139ec565b6128479190613ab3565b8151811061285757612857613a60565b602001015160f81c60f81b82828151811061287457612874613a60565b60200101906001600160f81b031916908160001a9053508061289581613a76565b915050612820565b50949350505050565b816001600160a01b0316836001600160a01b031614156129085760405162461bcd60e51b815260206004820152601960248201527f4552433732313a20617070726f766520746f2063616c6c657200000000000000604482015260640161087b565b6001600160a01b03838116600081815260056020908152604080832094871680845294825291829020805460ff191686151590811790915591519182527f17307eab39ab6107e8899845ad3d59bd9653f200f220920489ca2b5937696c31910160405180910390a3505050565b61297f3383612a34565b61299b5760405162461bcd60e51b815260040161087b90613ae7565b6110a084848484612b25565b6129af612b58565b6006805460ff191660011790557f62e78cea01bee320cd4e420270b5ea74000d11b0c9f74754ebdbfc544b05a2586129e43390565b6040516001600160a01b03909116815260200160405180910390a1565b612a0b8383612b9e565b612a186000848484612bd6565b61091c5760405162461bcd60e51b815260040161087b90613b34565b600080612a4083611c2d565b9050806001600160a01b0316846001600160a01b03161480612a8757506001600160a01b0380821660009081526005602090815260408083209388168352929052205460ff165b80610a5c5750836001600160a01b0316612aa0846107df565b6001600160a01b031614949350505050565b612abd838383612cd4565b600090815260096020526040902080546001600160a01b0319166001600160a01b039290921691909117905550565b612af4612e45565b6006805460ff191690557f5db9ee0a495bf2e6ff9c91a7834c1ba4fdd244a5e8aa4e537bd38aeae4b073aa336129e4565b612b30848484612ab2565b612b3c84848484612bd6565b6110a05760405162461bcd60e51b815260040161087b90613b34565b60065460ff16156113e25760405162461bcd60e51b815260206004820152601060248201526f14185d5cd8589b194e881c185d5cd95960821b604482015260640161087b565b612ba88282612e8e565b600090815260096020526040902080546001600160a01b0319166001600160a01b0392909216919091179055565b60006001600160a01b0384163b15612cc957604051630a85bd0160e11b81526001600160a01b0385169063150b7a0290612c1a903390899088908890600401613b86565b6020604051808303816000875af1925050508015612c55575060408051601f3d908101601f19168201909252612c5291810190613bc3565b60015b612caf573d808015612c83576040519150601f19603f3d011682016040523d82523d6000602084013e612c88565b606091505b508051612ca75760405162461bcd60e51b815260040161087b90613b34565b805181602001fd5b6001600160e01b031916630a85bd0160e11b149050610a5c565b506001949350505050565b826001600160a01b0316612ce782611c2d565b6001600160a01b031614612d0d5760405162461bcd60e51b815260040161087b90613be0565b6001600160a01b038216612d6f5760405162461bcd60e51b8152602060048201526024808201527f4552433732313a207472616e7366657220746f20746865207a65726f206164646044820152637265737360e01b606482015260840161087b565b612d7c8383836001613009565b826001600160a01b0316612d8f82611c2d565b6001600160a01b031614612db55760405162461bcd60e51b815260040161087b90613be0565b600081815260046020908152604080832080546001600160a01b03199081169091556001600160a01b0387811680865260038552838620805460001901905590871680865283862080546001019055868652600290945282852080549092168417909155905184937fddf252ad1be2c89b69c2b068fc378daa952ba7f163c4a11628f55a4df523b3ef91a4505050565b60065460ff166113e25760405162461bcd60e51b815260206004820152601460248201527314185d5cd8589b194e881b9bdd081c185d5cd95960621b604482015260640161087b565b6001600160a01b038216612ee45760405162461bcd60e51b815260206004820181905260248201527f4552433732313a206d696e7420746f20746865207a65726f2061646472657373604482015260640161087b565b612eed81611cfb565b15612f3a5760405162461bcd60e51b815260206004820152601c60248201527f4552433732313a20746f6b656e20616c7265616479206d696e74656400000000604482015260640161087b565b612f48600083836001613009565b612f5181611cfb565b15612f9e5760405162461bcd60e51b815260206004820152601c60248201527f4552433732313a20746f6b656e20616c7265616479206d696e74656400000000604482015260640161087b565b6001600160a01b038216600081815260036020908152604080832080546001019055848352600290915280822080546001600160a01b0319168417905551839291907fddf252ad1be2c89b69c2b068fc378daa952ba7f163c4a11628f55a4df523b3ef908290a45050565b6130158484848461307c565b60065460ff16156110a05760405162461bcd60e51b815260206004820152602b60248201527f4552433732315061757361626c653a20746f6b656e207472616e73666572207760448201526a1a1a5b19481c185d5cd95960aa1b606482015260840161087b565b60018111156110a0576001600160a01b038416156130c2576001600160a01b038416600090815260036020526040812080548392906130bc908490613ab3565b90915550505b6001600160a01b038316156110a0576001600160a01b038316600090815260036020526040812080548392906130f99084906139ec565b909155505050505050565b828054613110906138a2565b90600052602060002090601f0160209004810192826131325760008555613178565b82601f1061314b57805160ff1916838001178555613178565b82800160010185558215613178579182015b8281111561317857825182559160200191906001019061315d565b50613184929150613188565b5090565b5b808211156131845760008155600101613189565b6001600160e01b031981168114610d3e57600080fd5b6000602082840312156131c557600080fd5b81356131d08161319d565b9392505050565b60005b838110156131f25781810151838201526020016131da565b838111156110a05750506000910152565b6000815180845261321b8160208601602086016131d7565b601f01601f19169290920160200192915050565b6020815260006131d06020830184613203565b60006020828403121561325457600080fd5b5035919050565b6001600160a01b0381168114610d3e57600080fd5b803561327b8161325b565b919050565b6000806040838503121561329357600080fd5b823561329e8161325b565b946020939093013593505050565b6000602082840312156132be57600080fd5b81356131d08161325b565b6000806000606084860312156132de57600080fd5b83356132e98161325b565b925060208401356132f98161325b565b929592945050506040919091013590565b6000806040838503121561331d57600080fd5b50508035926020909101359150565b8015158114610d3e57600080fd5b803561327b8161332c565b60006020828403121561335757600080fd5b81356131d08161332c565b6001600160a01b038d168152602081018c905262ffffff8b811660408301528a811660608301528981166080830152881660a08201526101a060c082018190526000906133b18382018a613203565b6001600160a01b03891660e08501529050866101008401526133df6101208401876001600160a01b03169052565b8281036101408401526133f28186613203565b84516101608501526020850151610180850152915061340e9050565b9d9c50505050505050505050505050565b6000806040838503121561343257600080fd5b823561343d8161325b565b9150602083013561344d8161332c565b809150509250929050565b634e487b7160e01b600052604160045260246000fd5b604051610180810167ffffffffffffffff8111828210171561349257613492613458565b60405290565b604051601f8201601f1916810167ffffffffffffffff811182821017156134c1576134c1613458565b604052919050565b600067ffffffffffffffff8211156134e3576134e3613458565b50601f01601f191660200190565b60006135046134ff846134c9565b613498565b905082815283838301111561351857600080fd5b828260208301376000602084830101529392505050565b6000806000806080858703121561354557600080fd5b84356135508161325b565b935060208501356135608161325b565b925060408501359150606085013567ffffffffffffffff81111561358357600080fd5b8501601f8101871361359457600080fd5b6135a3878235602084016134f1565b91505092959194509250565b600080604083850312156135c257600080fd5b82356135cd8161325b565b9150602083013561344d8161325b565b803562ffffff8116811461327b57600080fd5b600082601f83011261360157600080fd5b6131d0838335602085016134f1565b60006040828403121561362257600080fd5b6040516040810181811067ffffffffffffffff8211171561364557613645613458565b604052823581526020928301359281019290925250919050565b600082601f83011261367057600080fd5b8135602067ffffffffffffffff82111561368c5761368c613458565b8160051b61369b828201613498565b92835284810182019282810190878511156136b557600080fd5b83870192505b848310156136dd5782356136ce8161325b565b825291830191908301906136bb565b979650505050505050565b600080600080600080600080610100808a8c03121561370657600080fd5b893567ffffffffffffffff8082111561371e57600080fd5b908b01906101a0828e03121561373357600080fd5b61373b61346e565b61374483613270565b81526020830135602082015261375c604084016135dd565b604082015261376d606084016135dd565b606082015261377e608084016135dd565b608082015261378f60a084016135dd565b60a082015260c0830135828111156137a657600080fd5b6137b28f8286016135f0565b60c0830152506137c460e08401613270565b60e0820152838301358482015261012093506137e1848401613270565b84820152610140935083830135828111156137fb57600080fd5b6138078f8286016135f0565b8583015250610160935061381d8e858501613610565b818501529a5061382f60208d01613270565b995061383d60408d01613270565b985061384b60608d01613270565b975061385960808d01613270565b965060a08c013592508083111561386f57600080fd5b505061387d8b828c0161365f565b93505061388c60c08a0161333a565b915060e089013590509295985092959890939650565b600181811c908216806138b657607f821691505b602082108114156138d757634e487b7160e01b600052602260045260246000fd5b50919050565b6000602082840312156138ef57600080fd5b5051919050565b60006020828403121561390857600080fd5b815167ffffffffffffffff81111561391f57600080fd5b8201601f8101841361393057600080fd5b805161393e6134ff826134c9565b81815285602083850101111561395357600080fd5b6139648260208301602086016131d7565b95945050505050565b634e487b7160e01b600052601160045260246000fd5b600062ffffff8083168181141561399c5761399c61396d565b6001019392505050565b600062ffffff8083168185168083038211156139c4576139c461396d565b01949350505050565b60008160001904831182151516156139e7576139e761396d565b500290565b600082198211156139ff576139ff61396d565b500190565b600060208284031215613a1657600080fd5b81516131d08161325b565b60008351613a338184602088016131d7565b63010313c960e51b9083019081528351613a548160048401602088016131d7565b01600401949350505050565b634e487b7160e01b600052603260045260246000fd5b6000600019821415613a8a57613a8a61396d565b5060010190565b600082613aae57634e487b7160e01b600052601260045260246000fd5b500490565b600082821015613ac557613ac561396d565b500390565b600060208284031215613adc57600080fd5b81516131d08161332c565b6020808252602d908201527f4552433732313a2063616c6c6572206973206e6f7420746f6b656e206f776e6560408201526c1c881bdc88185c1c1c9bdd9959609a1b606082015260800190565b60208082526032908201527f4552433732313a207472616e7366657220746f206e6f6e20455243373231526560408201527131b2b4bb32b91034b6b83632b6b2b73a32b960711b606082015260800190565b6001600160a01b0385811682528416602082015260408101839052608060608201819052600090613bb990830184613203565b9695505050505050565b600060208284031215613bd557600080fd5b81516131d08161319d565b60208082526025908201527f4552433732313a207472616e736665722066726f6d20696e636f72726563742060408201526437bbb732b960d91b60608201526080019056fea26469706673582212205db9a928b6d08093c0aea1e0a78720cbe41df0c2ce3ad042cd598d6926b4d12664736f6c634300080c0033","opcodes":"PUSH1 0x80 PUSH1 0x40 MSTORE CALLVALUE DUP1 ISZERO PUSH3 0x11 JUMPI PUSH1 0x0 DUP1 REVERT JUMPDEST POP PUSH1 0x40 MLOAD PUSH3 0x40C2 CODESIZE SUB DUP1 PUSH3 0x40C2 DUP4 CODECOPY DUP2 ADD PUSH1 0x40 DUP2 SWAP1 MSTORE PUSH3 0x34 SWAP2 PUSH3 0x3B0 JUMP JUMPDEST PUSH20 0x3CC6CDDA760B79BAFA08DF41ECFA224F810DCEB6 PUSH1 0x1 DUP4 DUP4 DUP2 DUP2 DUP2 PUSH1 0x0 SWAP1 DUP1 MLOAD SWAP1 PUSH1 0x20 ADD SWAP1 PUSH3 0x67 SWAP3 SWAP2 SWAP1 PUSH3 0x23D JUMP JUMPDEST POP DUP1 MLOAD PUSH3 0x7D SWAP1 PUSH1 0x1 SWAP1 PUSH1 0x20 DUP5 ADD SWAP1 PUSH3 0x23D JUMP JUMPDEST POP POP PUSH1 0x6 DUP1 SLOAD PUSH1 0xFF NOT AND SWAP1 SSTORE POP PUSH1 0x1 PUSH1 0x7 SSTORE PUSH3 0x9A CALLER PUSH3 0x1EB JUMP JUMPDEST POP POP PUSH14 0xAAEB6D7670E522A718067333CD4E EXTCODESIZE ISZERO PUSH3 0x1E1 JUMPI DUP1 ISZERO PUSH3 0x12F JUMPI PUSH1 0x40 MLOAD PUSH4 0x3E9F1EDF PUSH1 0xE1 SHL DUP2 MSTORE ADDRESS PUSH1 0x4 DUP3 ADD MSTORE PUSH1 0x1 PUSH1 0x1 PUSH1 0xA0 SHL SUB DUP4 AND PUSH1 0x24 DUP3 ADD MSTORE PUSH14 0xAAEB6D7670E522A718067333CD4E SWAP1 PUSH4 0x7D3E3DBE SWAP1 PUSH1 0x44 ADD JUMPDEST PUSH1 0x0 PUSH1 0x40 MLOAD DUP1 DUP4 SUB DUP2 PUSH1 0x0 DUP8 DUP1 EXTCODESIZE ISZERO DUP1 ISZERO PUSH3 0x110 JUMPI PUSH1 0x0 DUP1 REVERT JUMPDEST POP GAS CALL ISZERO DUP1 ISZERO PUSH3 0x125 JUMPI RETURNDATASIZE PUSH1 0x0 DUP1 RETURNDATACOPY RETURNDATASIZE PUSH1 0x0 REVERT JUMPDEST POP POP POP POP PUSH3 0x1E1 JUMP JUMPDEST PUSH1 0x1 PUSH1 0x1 PUSH1 0xA0 SHL SUB DUP3 AND ISZERO PUSH3 0x180 JUMPI PUSH1 0x40 MLOAD PUSH4 0xA0AF2903 PUSH1 0xE0 SHL DUP2 MSTORE ADDRESS PUSH1 0x4 DUP3 ADD MSTORE PUSH1 0x1 PUSH1 0x1 PUSH1 0xA0 SHL SUB DUP4 AND PUSH1 0x24 DUP3 ADD MSTORE PUSH14 0xAAEB6D7670E522A718067333CD4E SWAP1 PUSH4 0xA0AF2903 SWAP1 PUSH1 0x44 ADD PUSH3 0xF5 JUMP JUMPDEST PUSH1 0x40 MLOAD PUSH4 0x22107243 PUSH1 0xE1 SHL DUP2 MSTORE ADDRESS PUSH1 0x4 DUP3 ADD MSTORE PUSH14 0xAAEB6D7670E522A718067333CD4E SWAP1 PUSH4 0x4420E486 SWAP1 PUSH1 0x24 ADD PUSH1 0x0 PUSH1 0x40 MLOAD DUP1 DUP4 SUB DUP2 PUSH1 0x0 DUP8 DUP1 EXTCODESIZE ISZERO DUP1 ISZERO PUSH3 0x1C7 JUMPI PUSH1 0x0 DUP1 REVERT JUMPDEST POP GAS CALL ISZERO DUP1 ISZERO PUSH3 0x1DC JUMPI RETURNDATASIZE PUSH1 0x0 DUP1 RETURNDATACOPY RETURNDATASIZE PUSH1 0x0 REVERT JUMPDEST POP POP POP POP JUMPDEST POP POP POP POP PUSH3 0x457 JUMP JUMPDEST PUSH1 0x8 DUP1 SLOAD PUSH1 0x1 PUSH1 0x1 PUSH1 0xA0 SHL SUB DUP4 DUP2 AND PUSH1 0x1 PUSH1 0x1 PUSH1 0xA0 SHL SUB NOT DUP4 AND DUP2 OR SWAP1 SWAP4 SSTORE PUSH1 0x40 MLOAD SWAP2 AND SWAP2 SWAP1 DUP3 SWAP1 PUSH32 0x8BE0079C531659141344CD1FD0A4F28419497F9722A3DAAFE3B4186F6B6457E0 SWAP1 PUSH1 0x0 SWAP1 LOG3 POP POP JUMP JUMPDEST DUP3 DUP1 SLOAD PUSH3 0x24B SWAP1 PUSH3 0x41A JUMP JUMPDEST SWAP1 PUSH1 0x0 MSTORE PUSH1 0x20 PUSH1 0x0 KECCAK256 SWAP1 PUSH1 0x1F ADD PUSH1 0x20 SWAP1 DIV DUP2 ADD SWAP3 DUP3 PUSH3 0x26F JUMPI PUSH1 0x0 DUP6 SSTORE PUSH3 0x2BA JUMP JUMPDEST DUP3 PUSH1 0x1F LT PUSH3 0x28A JUMPI DUP1 MLOAD PUSH1 0xFF NOT AND DUP4 DUP1 ADD OR DUP6 SSTORE PUSH3 0x2BA JUMP JUMPDEST DUP3 DUP1 ADD PUSH1 0x1 ADD DUP6 SSTORE DUP3 ISZERO PUSH3 0x2BA JUMPI SWAP2 DUP3 ADD JUMPDEST DUP3 DUP2 GT ISZERO PUSH3 0x2BA JUMPI DUP3 MLOAD DUP3 SSTORE SWAP2 PUSH1 0x20 ADD SWAP2 SWAP1 PUSH1 0x1 ADD SWAP1 PUSH3 0x29D JUMP JUMPDEST POP PUSH3 0x2C8 SWAP3 SWAP2 POP PUSH3 0x2CC JUMP JUMPDEST POP SWAP1 JUMP JUMPDEST JUMPDEST DUP1 DUP3 GT ISZERO PUSH3 0x2C8 JUMPI PUSH1 0x0 DUP2 SSTORE PUSH1 0x1 ADD PUSH3 0x2CD JUMP JUMPDEST PUSH4 0x4E487B71 PUSH1 0xE0 SHL PUSH1 0x0 MSTORE PUSH1 0x41 PUSH1 0x4 MSTORE PUSH1 0x24 PUSH1 0x0 REVERT JUMPDEST PUSH1 0x0 DUP3 PUSH1 0x1F DUP4 ADD SLT PUSH3 0x30B JUMPI PUSH1 0x0 DUP1 REVERT JUMPDEST DUP2 MLOAD PUSH1 0x1 PUSH1 0x1 PUSH1 0x40 SHL SUB DUP1 DUP3 GT ISZERO PUSH3 0x328 JUMPI PUSH3 0x328 PUSH3 0x2E3 JUMP JUMPDEST PUSH1 0x40 MLOAD PUSH1 0x1F DUP4 ADD PUSH1 0x1F NOT SWAP1 DUP2 AND PUSH1 0x3F ADD AND DUP2 ADD SWAP1 DUP3 DUP3 GT DUP2 DUP4 LT OR ISZERO PUSH3 0x353 JUMPI PUSH3 0x353 PUSH3 0x2E3 JUMP JUMPDEST DUP2 PUSH1 0x40 MSTORE DUP4 DUP2 MSTORE PUSH1 0x20 SWAP3 POP DUP7 DUP4 DUP6 DUP9 ADD ADD GT ISZERO PUSH3 0x370 JUMPI PUSH1 0x0 DUP1 REVERT JUMPDEST PUSH1 0x0 SWAP2 POP JUMPDEST DUP4 DUP3 LT ISZERO PUSH3 0x394 JUMPI DUP6 DUP3 ADD DUP4 ADD MLOAD DUP2 DUP4 ADD DUP5 ADD MSTORE SWAP1 DUP3 ADD SWAP1 PUSH3 0x375 JUMP JUMPDEST DUP4 DUP3 GT ISZERO PUSH3 0x3A6 JUMPI PUSH1 0x0 DUP4 DUP6 DUP4 ADD ADD MSTORE JUMPDEST SWAP7 SWAP6 POP POP POP POP POP POP JUMP JUMPDEST PUSH1 0x0 DUP1 PUSH1 0x40 DUP4 DUP6 SUB SLT ISZERO PUSH3 0x3C4 JUMPI PUSH1 0x0 DUP1 REVERT JUMPDEST DUP3 MLOAD PUSH1 0x1 PUSH1 0x1 PUSH1 0x40 SHL SUB DUP1 DUP3 GT ISZERO PUSH3 0x3DC JUMPI PUSH1 0x0 DUP1 REVERT JUMPDEST PUSH3 0x3EA DUP7 DUP4 DUP8 ADD PUSH3 0x2F9 JUMP JUMPDEST SWAP4 POP PUSH1 0x20 DUP6 ADD MLOAD SWAP2 POP DUP1 DUP3 GT ISZERO PUSH3 0x401 JUMPI PUSH1 0x0 DUP1 REVERT JUMPDEST POP PUSH3 0x410 DUP6 DUP3 DUP7 ADD PUSH3 0x2F9 JUMP JUMPDEST SWAP2 POP POP SWAP3 POP SWAP3 SWAP1 POP JUMP JUMPDEST PUSH1 0x1 DUP2 DUP2 SHR SWAP1 DUP3 AND DUP1 PUSH3 0x42F JUMPI PUSH1 0x7F DUP3 AND SWAP2 POP JUMPDEST PUSH1 0x20 DUP3 LT DUP2 EQ ISZERO PUSH3 0x451 JUMPI PUSH4 0x4E487B71 PUSH1 0xE0 SHL PUSH1 0x0 MSTORE PUSH1 0x22 PUSH1 0x4 MSTORE PUSH1 0x24 PUSH1 0x0 REVERT JUMPDEST POP SWAP2 SWAP1 POP JUMP JUMPDEST PUSH2 0x3C5B DUP1 PUSH3 0x467 PUSH1 0x0 CODECOPY PUSH1 0x0 RETURN INVALID PUSH1 0x80 PUSH1 0x40 MSTORE PUSH1 0x4 CALLDATASIZE LT PUSH2 0x21A JUMPI PUSH1 0x0 CALLDATALOAD PUSH1 0xE0 SHR DUP1 PUSH4 0x5C40F6F4 GT PUSH2 0x123 JUMPI DUP1 PUSH4 0x95D89B41 GT PUSH2 0xAB JUMPI DUP1 PUSH4 0xE985E9C5 GT PUSH2 0x6F JUMPI DUP1 PUSH4 0xE985E9C5 EQ PUSH2 0x632 JUMPI DUP1 PUSH4 0xEF169BE2 EQ PUSH2 0x67B JUMPI DUP1 PUSH4 0xF2FDE38B EQ PUSH2 0x69B JUMPI DUP1 PUSH4 0xFEBFD6C3 EQ PUSH2 0x6BB JUMPI DUP1 PUSH4 0xFFC27C0E EQ PUSH2 0x6DB JUMPI PUSH1 0x0 DUP1 REVERT JUMPDEST DUP1 PUSH4 0x95D89B41 EQ PUSH2 0x59D JUMPI DUP1 PUSH4 0xA22CB465 EQ PUSH2 0x5B2 JUMPI DUP1 PUSH4 0xADFC7DAE EQ PUSH2 0x5D2 JUMPI DUP1 PUSH4 0xB88D4FDE EQ PUSH2 0x5F2 JUMPI DUP1 PUSH4 0xC87B56DD EQ PUSH2 0x612 JUMPI PUSH1 0x0 DUP1 REVERT JUMPDEST DUP1 PUSH4 0x70A08231 GT PUSH2 0xF2 JUMPI DUP1 PUSH4 0x70A08231 EQ PUSH2 0x4FD JUMPI DUP1 PUSH4 0x715018A6 EQ PUSH2 0x51D JUMPI DUP1 PUSH4 0x775BFF9F EQ PUSH2 0x532 JUMPI DUP1 PUSH4 0x8DA5CB5B EQ PUSH2 0x55F JUMPI DUP1 PUSH4 0x8F283970 EQ PUSH2 0x57D JUMPI PUSH1 0x0 DUP1 REVERT JUMPDEST DUP1 PUSH4 0x5C40F6F4 EQ PUSH2 0x46F JUMPI DUP1 PUSH4 0x5C975ABB EQ PUSH2 0x48F JUMPI DUP1 PUSH4 0x621A1F74 EQ PUSH2 0x4A7 JUMPI DUP1 PUSH4 0x6352211E EQ PUSH2 0x4C7 JUMPI PUSH1 0x0 DUP1 REVERT JUMPDEST DUP1 PUSH4 0x23B872DD GT PUSH2 0x1A6 JUMPI DUP1 PUSH4 0x42842E0E GT PUSH2 0x175 JUMPI DUP1 PUSH4 0x42842E0E EQ PUSH2 0x3E5 JUMPI DUP1 PUSH4 0x452FA3D3 EQ PUSH2 0x405 JUMPI DUP1 PUSH4 0x472F1E02 EQ PUSH2 0x41A JUMPI DUP1 PUSH4 0x4E69D560 EQ PUSH2 0x43A JUMPI DUP1 PUSH4 0x575B57EA EQ PUSH2 0x44F JUMPI PUSH1 0x0 DUP1 REVERT JUMPDEST DUP1 PUSH4 0x23B872DD EQ PUSH2 0x34E JUMPI DUP1 PUSH4 0x2A55205A EQ PUSH2 0x36E JUMPI DUP1 PUSH4 0x3B66B00A EQ PUSH2 0x3AD JUMPI DUP1 PUSH4 0x41F43434 EQ PUSH2 0x3C3 JUMPI PUSH1 0x0 DUP1 REVERT JUMPDEST DUP1 PUSH4 0x95EA7B3 GT PUSH2 0x1ED JUMPI DUP1 PUSH4 0x95EA7B3 EQ PUSH2 0x2CE JUMPI DUP1 PUSH4 0x10DA88C5 EQ PUSH2 0x2F0 JUMPI DUP1 PUSH4 0x1249C58B EQ PUSH2 0x310 JUMPI DUP1 PUSH4 0x1CA9741B EQ PUSH2 0x326 JUMPI DUP1 PUSH4 0x21C8D676 EQ PUSH2 0x346 JUMPI PUSH1 0x0 DUP1 REVERT JUMPDEST DUP1 PUSH4 0x1BC45C9 EQ PUSH2 0x21F JUMPI DUP1 PUSH4 0x1FFC9A7 EQ PUSH2 0x25C JUMPI DUP1 PUSH4 0x6FDDE03 EQ PUSH2 0x28C JUMPI DUP1 PUSH4 0x81812FC EQ PUSH2 0x2AE JUMPI JUMPDEST PUSH1 0x0 DUP1 REVERT JUMPDEST CALLVALUE DUP1 ISZERO PUSH2 0x22B JUMPI PUSH1 0x0 DUP1 REVERT JUMPDEST POP PUSH1 0xA SLOAD PUSH2 0x23F SWAP1 PUSH1 0x1 PUSH1 0x1 PUSH1 0xA0 SHL SUB AND DUP2 JUMP JUMPDEST PUSH1 0x40 MLOAD PUSH1 0x1 PUSH1 0x1 PUSH1 0xA0 SHL SUB SWAP1 SWAP2 AND DUP2 MSTORE PUSH1 0x20 ADD JUMPDEST PUSH1 0x40 MLOAD DUP1 SWAP2 SUB SWAP1 RETURN JUMPDEST CALLVALUE DUP1 ISZERO PUSH2 0x268 JUMPI PUSH1 0x0 DUP1 REVERT JUMPDEST POP PUSH2 0x27C PUSH2 0x277 CALLDATASIZE PUSH1 0x4 PUSH2 0x31B3 JUMP JUMPDEST PUSH2 0x6FB JUMP JUMPDEST PUSH1 0x40 MLOAD SWAP1 ISZERO ISZERO DUP2 MSTORE PUSH1 0x20 ADD PUSH2 0x253 JUMP JUMPDEST CALLVALUE DUP1 ISZERO PUSH2 0x298 JUMPI PUSH1 0x0 DUP1 REVERT JUMPDEST POP PUSH2 0x2A1 PUSH2 0x74D JUMP JUMPDEST PUSH1 0x40 MLOAD PUSH2 0x253 SWAP2 SWAP1 PUSH2 0x322F JUMP JUMPDEST CALLVALUE DUP1 ISZERO PUSH2 0x2BA JUMPI PUSH1 0x0 DUP1 REVERT JUMPDEST POP PUSH2 0x23F PUSH2 0x2C9 CALLDATASIZE PUSH1 0x4 PUSH2 0x3242 JUMP JUMPDEST PUSH2 0x7DF JUMP JUMPDEST CALLVALUE DUP1 ISZERO PUSH2 0x2DA JUMPI PUSH1 0x0 DUP1 REVERT JUMPDEST POP PUSH2 0x2EE PUSH2 0x2E9 CALLDATASIZE PUSH1 0x4 PUSH2 0x3280 JUMP JUMPDEST PUSH2 0x806 JUMP JUMPDEST STOP JUMPDEST CALLVALUE DUP1 ISZERO PUSH2 0x2FC JUMPI PUSH1 0x0 DUP1 REVERT JUMPDEST POP PUSH2 0x2A1 PUSH2 0x30B CALLDATASIZE PUSH1 0x4 PUSH2 0x3242 JUMP JUMPDEST PUSH2 0x921 JUMP JUMPDEST PUSH2 0x318 PUSH2 0xA64 JUMP JUMPDEST PUSH1 0x40 MLOAD SWAP1 DUP2 MSTORE PUSH1 0x20 ADD PUSH2 0x253 JUMP JUMPDEST CALLVALUE DUP1 ISZERO PUSH2 0x332 JUMPI PUSH1 0x0 DUP1 REVERT JUMPDEST POP PUSH2 0x2EE PUSH2 0x341 CALLDATASIZE PUSH1 0x4 PUSH2 0x32AC JUMP JUMPDEST PUSH2 0xCB0 JUMP JUMPDEST PUSH2 0x318 PUSH2 0xD41 JUMP JUMPDEST CALLVALUE DUP1 ISZERO PUSH2 0x35A JUMPI PUSH1 0x0 DUP1 REVERT JUMPDEST POP PUSH2 0x2EE PUSH2 0x369 CALLDATASIZE PUSH1 0x4 PUSH2 0x32C9 JUMP JUMPDEST PUSH2 0x107B JUMP JUMPDEST CALLVALUE DUP1 ISZERO PUSH2 0x37A JUMPI PUSH1 0x0 DUP1 REVERT JUMPDEST POP PUSH2 0x38E PUSH2 0x389 CALLDATASIZE PUSH1 0x4 PUSH2 0x330A JUMP JUMPDEST PUSH2 0x10A6 JUMP JUMPDEST PUSH1 0x40 DUP1 MLOAD PUSH1 0x1 PUSH1 0x1 PUSH1 0xA0 SHL SUB SWAP1 SWAP4 AND DUP4 MSTORE PUSH1 0x20 DUP4 ADD SWAP2 SWAP1 SWAP2 MSTORE ADD PUSH2 0x253 JUMP JUMPDEST CALLVALUE DUP1 ISZERO PUSH2 0x3B9 JUMPI PUSH1 0x0 DUP1 REVERT JUMPDEST POP PUSH2 0x318 PUSH1 0xF SLOAD DUP2 JUMP JUMPDEST CALLVALUE DUP1 ISZERO PUSH2 0x3CF JUMPI PUSH1 0x0 DUP1 REVERT JUMPDEST POP PUSH2 0x23F PUSH14 0xAAEB6D7670E522A718067333CD4E DUP2 JUMP JUMPDEST CALLVALUE DUP1 ISZERO PUSH2 0x3F1 JUMPI PUSH1 0x0 DUP1 REVERT JUMPDEST POP PUSH2 0x2EE PUSH2 0x400 CALLDATASIZE PUSH1 0x4 PUSH2 0x32C9 JUMP JUMPDEST PUSH2 0x10BE JUMP JUMPDEST CALLVALUE DUP1 ISZERO PUSH2 0x411 JUMPI PUSH1 0x0 DUP1 REVERT JUMPDEST POP PUSH2 0x2A1 PUSH2 0x10E3 JUMP JUMPDEST CALLVALUE DUP1 ISZERO PUSH2 0x426 JUMPI PUSH1 0x0 DUP1 REVERT JUMPDEST POP PUSH2 0x2EE PUSH2 0x435 CALLDATASIZE PUSH1 0x4 PUSH2 0x32AC JUMP JUMPDEST PUSH2 0x1171 JUMP JUMPDEST CALLVALUE DUP1 ISZERO PUSH2 0x446 JUMPI PUSH1 0x0 DUP1 REVERT JUMPDEST POP PUSH2 0x27C PUSH2 0x1203 JUMP JUMPDEST CALLVALUE DUP1 ISZERO PUSH2 0x45B JUMPI PUSH1 0x0 DUP1 REVERT JUMPDEST POP PUSH1 0xD SLOAD PUSH2 0x23F SWAP1 PUSH1 0x1 PUSH1 0x1 PUSH1 0xA0 SHL SUB AND DUP2 JUMP JUMPDEST CALLVALUE DUP1 ISZERO PUSH2 0x47B JUMPI PUSH1 0x0 DUP1 REVERT JUMPDEST POP PUSH2 0x2EE PUSH2 0x48A CALLDATASIZE PUSH1 0x4 PUSH2 0x3345 JUMP JUMPDEST PUSH2 0x1217 JUMP JUMPDEST CALLVALUE DUP1 ISZERO PUSH2 0x49B JUMPI PUSH1 0x0 DUP1 REVERT JUMPDEST POP PUSH1 0x6 SLOAD PUSH1 0xFF AND PUSH2 0x27C JUMP JUMPDEST CALLVALUE DUP1 ISZERO PUSH2 0x4B3 JUMPI PUSH1 0x0 DUP1 REVERT JUMPDEST POP PUSH2 0x318 PUSH2 0x4C2 CALLDATASIZE PUSH1 0x4 PUSH2 0x3242 JUMP JUMPDEST PUSH2 0x127E JUMP JUMPDEST CALLVALUE DUP1 ISZERO PUSH2 0x4D3 JUMPI PUSH1 0x0 DUP1 REVERT JUMPDEST POP PUSH2 0x23F PUSH2 0x4E2 CALLDATASIZE PUSH1 0x4 PUSH2 0x3242 JUMP JUMPDEST PUSH1 0x0 SWAP1 DUP2 MSTORE PUSH1 0x9 PUSH1 0x20 MSTORE PUSH1 0x40 SWAP1 KECCAK256 SLOAD PUSH1 0x1 PUSH1 0x1 PUSH1 0xA0 SHL SUB AND SWAP1 JUMP JUMPDEST CALLVALUE DUP1 ISZERO PUSH2 0x509 JUMPI PUSH1 0x0 DUP1 REVERT JUMPDEST POP PUSH2 0x318 PUSH2 0x518 CALLDATASIZE PUSH1 0x4 PUSH2 0x32AC JUMP JUMPDEST PUSH2 0x134A JUMP JUMPDEST CALLVALUE DUP1 ISZERO PUSH2 0x529 JUMPI PUSH1 0x0 DUP1 REVERT JUMPDEST POP PUSH2 0x2EE PUSH2 0x13D0 JUMP JUMPDEST CALLVALUE DUP1 ISZERO PUSH2 0x53E JUMPI PUSH1 0x0 DUP1 REVERT JUMPDEST POP PUSH2 0x547 PUSH2 0x13E4 JUMP JUMPDEST PUSH1 0x40 MLOAD PUSH2 0x253 SWAP13 SWAP12 SWAP11 SWAP10 SWAP9 SWAP8 SWAP7 SWAP6 SWAP5 SWAP4 SWAP3 SWAP2 SWAP1 PUSH2 0x3362 JUMP JUMPDEST CALLVALUE DUP1 ISZERO PUSH2 0x56B JUMPI PUSH1 0x0 DUP1 REVERT JUMPDEST POP PUSH1 0xA SLOAD PUSH1 0x1 PUSH1 0x1 PUSH1 0xA0 SHL SUB AND PUSH2 0x23F JUMP JUMPDEST CALLVALUE DUP1 ISZERO PUSH2 0x589 JUMPI PUSH1 0x0 DUP1 REVERT JUMPDEST POP PUSH2 0x2EE PUSH2 0x598 CALLDATASIZE PUSH1 0x4 PUSH2 0x32AC JUMP JUMPDEST PUSH2 0x1587 JUMP JUMPDEST CALLVALUE DUP1 ISZERO PUSH2 0x5A9 JUMPI PUSH1 0x0 DUP1 REVERT JUMPDEST POP PUSH2 0x2A1 PUSH2 0x1619 JUMP JUMPDEST CALLVALUE DUP1 ISZERO PUSH2 0x5BE JUMPI PUSH1 0x0 DUP1 REVERT JUMPDEST POP PUSH2 0x2EE PUSH2 0x5CD CALLDATASIZE PUSH1 0x4 PUSH2 0x341F JUMP JUMPDEST PUSH2 0x16B7 JUMP JUMPDEST CALLVALUE DUP1 ISZERO PUSH2 0x5DE JUMPI PUSH1 0x0 DUP1 REVERT JUMPDEST POP PUSH1 0xB SLOAD PUSH2 0x23F SWAP1 PUSH1 0x1 PUSH1 0x1 PUSH1 0xA0 SHL SUB AND DUP2 JUMP JUMPDEST CALLVALUE DUP1 ISZERO PUSH2 0x5FE JUMPI PUSH1 0x0 DUP1 REVERT JUMPDEST POP PUSH2 0x2EE PUSH2 0x60D CALLDATASIZE PUSH1 0x4 PUSH2 0x352F JUMP JUMPDEST PUSH2 0x16C6 JUMP JUMPDEST CALLVALUE DUP1 ISZERO PUSH2 0x61E JUMPI PUSH1 0x0 DUP1 REVERT JUMPDEST POP PUSH2 0x2A1 PUSH2 0x62D CALLDATASIZE PUSH1 0x4 PUSH2 0x3242 JUMP JUMPDEST PUSH2 0x16F3 JUMP JUMPDEST CALLVALUE DUP1 ISZERO PUSH2 0x63E JUMPI PUSH1 0x0 DUP1 REVERT JUMPDEST POP PUSH2 0x27C PUSH2 0x64D CALLDATASIZE PUSH1 0x4 PUSH2 0x35AF JUMP JUMPDEST PUSH1 0x1 PUSH1 0x1 PUSH1 0xA0 SHL SUB SWAP2 DUP3 AND PUSH1 0x0 SWAP1 DUP2 MSTORE PUSH1 0x5 PUSH1 0x20 SWAP1 DUP2 MSTORE PUSH1 0x40 DUP1 DUP4 KECCAK256 SWAP4 SWAP1 SWAP5 AND DUP3 MSTORE SWAP2 SWAP1 SWAP2 MSTORE KECCAK256 SLOAD PUSH1 0xFF AND SWAP1 JUMP JUMPDEST CALLVALUE DUP1 ISZERO PUSH2 0x687 JUMPI PUSH1 0x0 DUP1 REVERT JUMPDEST POP PUSH2 0x2EE PUSH2 0x696 CALLDATASIZE PUSH1 0x4 PUSH2 0x36E8 JUMP JUMPDEST PUSH2 0x17ED JUMP JUMPDEST CALLVALUE DUP1 ISZERO PUSH2 0x6A7 JUMPI PUSH1 0x0 DUP1 REVERT JUMPDEST POP PUSH2 0x2EE PUSH2 0x6B6 CALLDATASIZE PUSH1 0x4 PUSH2 0x32AC JUMP JUMPDEST PUSH2 0x1AD5 JUMP JUMPDEST CALLVALUE DUP1 ISZERO PUSH2 0x6C7 JUMPI PUSH1 0x0 DUP1 REVERT JUMPDEST POP PUSH2 0x2EE PUSH2 0x6D6 CALLDATASIZE PUSH1 0x4 PUSH2 0x32AC JUMP JUMPDEST PUSH2 0x1B4B JUMP JUMPDEST CALLVALUE DUP1 ISZERO PUSH2 0x6E7 JUMPI PUSH1 0x0 DUP1 REVERT JUMPDEST POP PUSH1 0xC SLOAD PUSH2 0x23F SWAP1 PUSH1 0x1 PUSH1 0x1 PUSH1 0xA0 SHL SUB AND DUP2 JUMP JUMPDEST PUSH1 0x0 PUSH1 0x1 PUSH1 0x1 PUSH1 0xE0 SHL SUB NOT DUP3 AND PUSH4 0x80AC58CD PUSH1 0xE0 SHL EQ DUP1 PUSH2 0x72C JUMPI POP PUSH1 0x1 PUSH1 0x1 PUSH1 0xE0 SHL SUB NOT DUP3 AND PUSH4 0x5B5E139F PUSH1 0xE0 SHL EQ JUMPDEST DUP1 PUSH2 0x747 JUMPI POP PUSH4 0x1FFC9A7 PUSH1 0xE0 SHL PUSH1 0x1 PUSH1 0x1 PUSH1 0xE0 SHL SUB NOT DUP4 AND EQ JUMPDEST SWAP3 SWAP2 POP POP JUMP JUMPDEST PUSH1 0x60 PUSH1 0xE DUP1 SLOAD PUSH2 0x75C SWAP1 PUSH2 0x38A2 JUMP JUMPDEST DUP1 PUSH1 0x1F ADD PUSH1 0x20 DUP1 SWAP2 DIV MUL PUSH1 0x20 ADD PUSH1 0x40 MLOAD SWAP1 DUP2 ADD PUSH1 0x40 MSTORE DUP1 SWAP3 SWAP2 SWAP1 DUP2 DUP2 MSTORE PUSH1 0x20 ADD DUP3 DUP1 SLOAD PUSH2 0x788 SWAP1 PUSH2 0x38A2 JUMP JUMPDEST DUP1 ISZERO PUSH2 0x7D5 JUMPI DUP1 PUSH1 0x1F LT PUSH2 0x7AA JUMPI PUSH2 0x100 DUP1 DUP4 SLOAD DIV MUL DUP4 MSTORE SWAP2 PUSH1 0x20 ADD SWAP2 PUSH2 0x7D5 JUMP JUMPDEST DUP3 ADD SWAP2 SWAP1 PUSH1 0x0 MSTORE PUSH1 0x20 PUSH1 0x0 KECCAK256 SWAP1 JUMPDEST DUP2 SLOAD DUP2 MSTORE SWAP1 PUSH1 0x1 ADD SWAP1 PUSH1 0x20 ADD DUP1 DUP4 GT PUSH2 0x7B8 JUMPI DUP3 SWAP1 SUB PUSH1 0x1F AND DUP3 ADD SWAP2 JUMPDEST POP POP POP POP POP SWAP1 POP SWAP1 JUMP JUMPDEST PUSH1 0x0 PUSH2 0x7EA DUP3 PUSH2 0x1BDD JUMP JUMPDEST POP PUSH1 0x0 SWAP1 DUP2 MSTORE PUSH1 0x4 PUSH1 0x20 MSTORE PUSH1 0x40 SWAP1 KECCAK256 SLOAD PUSH1 0x1 PUSH1 0x1 PUSH1 0xA0 SHL SUB AND SWAP1 JUMP JUMPDEST PUSH1 0x0 PUSH2 0x811 DUP3 PUSH2 0x1C2D JUMP JUMPDEST SWAP1 POP DUP1 PUSH1 0x1 PUSH1 0x1 PUSH1 0xA0 SHL SUB AND DUP4 PUSH1 0x1 PUSH1 0x1 PUSH1 0xA0 SHL SUB AND EQ ISZERO PUSH2 0x884 JUMPI PUSH1 0x40 MLOAD PUSH3 0x461BCD PUSH1 0xE5 SHL DUP2 MSTORE PUSH1 0x20 PUSH1 0x4 DUP3 ADD MSTORE PUSH1 0x21 PUSH1 0x24 DUP3 ADD MSTORE PUSH32 0x4552433732313A20617070726F76616C20746F2063757272656E74206F776E65 PUSH1 0x44 DUP3 ADD MSTORE PUSH1 0x39 PUSH1 0xF9 SHL PUSH1 0x64 DUP3 ADD MSTORE PUSH1 0x84 ADD JUMPDEST PUSH1 0x40 MLOAD DUP1 SWAP2 SUB SWAP1 REVERT JUMPDEST CALLER PUSH1 0x1 PUSH1 0x1 PUSH1 0xA0 SHL SUB DUP3 AND EQ DUP1 PUSH2 0x8A0 JUMPI POP PUSH2 0x8A0 DUP2 CALLER PUSH2 0x64D JUMP JUMPDEST PUSH2 0x912 JUMPI PUSH1 0x40 MLOAD PUSH3 0x461BCD PUSH1 0xE5 SHL DUP2 MSTORE PUSH1 0x20 PUSH1 0x4 DUP3 ADD MSTORE PUSH1 0x3D PUSH1 0x24 DUP3 ADD MSTORE PUSH32 0x4552433732313A20617070726F76652063616C6C6572206973206E6F7420746F PUSH1 0x44 DUP3 ADD MSTORE PUSH32 0x6B656E206F776E6572206F7220617070726F76656420666F7220616C6C000000 PUSH1 0x64 DUP3 ADD MSTORE PUSH1 0x84 ADD PUSH2 0x87B JUMP JUMPDEST PUSH2 0x91C DUP4 DUP4 PUSH2 0x1C8D JUMP JUMPDEST POP POP POP JUMP JUMPDEST PUSH1 0x60 PUSH2 0x92C DUP3 PUSH2 0x1CFB JUMP JUMPDEST PUSH1 0x40 MLOAD DUP1 PUSH1 0x40 ADD PUSH1 0x40 MSTORE DUP1 PUSH1 0x3 DUP2 MSTORE PUSH1 0x20 ADD PUSH3 0x323039 PUSH1 0xE8 SHL DUP2 MSTORE POP SWAP1 PUSH2 0x966 JUMPI PUSH1 0x40 MLOAD PUSH3 0x461BCD PUSH1 0xE5 SHL DUP2 MSTORE PUSH1 0x4 ADD PUSH2 0x87B SWAP2 SWAP1 PUSH2 0x322F JUMP JUMPDEST POP PUSH1 0xD SLOAD PUSH1 0x40 MLOAD PUSH4 0x188687DD PUSH1 0xE2 SHL DUP2 MSTORE PUSH1 0x4 DUP2 ADD DUP5 SWAP1 MSTORE PUSH1 0x1 PUSH1 0x1 PUSH1 0xA0 SHL SUB SWAP1 SWAP2 AND SWAP1 PUSH1 0x0 SWAP1 ADDRESS SWAP1 PUSH4 0x621A1F74 SWAP1 PUSH1 0x24 ADD PUSH1 0x20 PUSH1 0x40 MLOAD DUP1 DUP4 SUB DUP2 DUP7 GAS STATICCALL ISZERO DUP1 ISZERO PUSH2 0x9B5 JUMPI RETURNDATASIZE PUSH1 0x0 DUP1 RETURNDATACOPY RETURNDATASIZE PUSH1 0x0 REVERT JUMPDEST POP POP POP POP PUSH1 0x40 MLOAD RETURNDATASIZE PUSH1 0x1F NOT PUSH1 0x1F DUP3 ADD AND DUP3 ADD DUP1 PUSH1 0x40 MSTORE POP DUP2 ADD SWAP1 PUSH2 0x9D9 SWAP2 SWAP1 PUSH2 0x38DD JUMP JUMPDEST PUSH1 0x11 SLOAD PUSH1 0x40 MLOAD PUSH4 0x94139301 PUSH1 0xE0 SHL DUP2 MSTORE PUSH1 0x4 DUP2 ADD SWAP2 SWAP1 SWAP2 MSTORE PUSH1 0x24 DUP2 ADD DUP7 SWAP1 MSTORE PUSH1 0x44 DUP2 ADD DUP3 SWAP1 MSTORE SWAP1 SWAP2 POP PUSH1 0x1 PUSH1 0x1 PUSH1 0xA0 SHL SUB DUP4 AND SWAP1 PUSH4 0x94139301 SWAP1 PUSH1 0x64 ADD JUMPDEST PUSH1 0x0 PUSH1 0x40 MLOAD DUP1 DUP4 SUB DUP2 DUP7 GAS STATICCALL ISZERO DUP1 ISZERO PUSH2 0xA34 JUMPI RETURNDATASIZE PUSH1 0x0 DUP1 RETURNDATACOPY RETURNDATASIZE PUSH1 0x0 REVERT JUMPDEST POP POP POP POP PUSH1 0x40 MLOAD RETURNDATASIZE PUSH1 0x0 DUP3 RETURNDATACOPY PUSH1 0x1F RETURNDATASIZE SWAP1 DUP2 ADD PUSH1 0x1F NOT AND DUP3 ADD PUSH1 0x40 MSTORE PUSH2 0xA5C SWAP2 SWAP1 DUP2 ADD SWAP1 PUSH2 0x38F6 JUMP JUMPDEST SWAP5 SWAP4 POP POP POP POP JUMP JUMPDEST PUSH1 0x0 PUSH2 0xA6E PUSH2 0x1D18 JUMP JUMPDEST PUSH1 0x19 SLOAD ISZERO PUSH2 0xAB5 JUMPI PUSH1 0x19 SLOAD PUSH1 0x40 DUP1 MLOAD DUP1 DUP3 ADD SWAP1 SWAP2 MSTORE PUSH1 0x3 DUP2 MSTORE PUSH3 0x64607 PUSH1 0xEB SHL PUSH1 0x20 DUP3 ADD MSTORE SWAP1 TIMESTAMP GT PUSH2 0xAB3 JUMPI PUSH1 0x40 MLOAD PUSH3 0x461BCD PUSH1 0xE5 SHL DUP2 MSTORE PUSH1 0x4 ADD PUSH2 0x87B SWAP2 SWAP1 PUSH2 0x322F JUMP JUMPDEST POP JUMPDEST PUSH1 0x12 DUP1 SLOAD PUSH1 0x1 PUSH1 0x30 SHL SWAP1 DIV PUSH3 0xFFFFFF AND SWAP1 PUSH1 0x6 PUSH2 0xAD1 DUP4 PUSH2 0x3983 JUMP JUMPDEST DUP3 SLOAD PUSH2 0x100 SWAP3 SWAP1 SWAP3 EXP PUSH3 0xFFFFFF DUP2 DUP2 MUL NOT SWAP1 SWAP4 AND SWAP2 DUP4 AND MUL OR SWAP1 SWAP2 SSTORE PUSH1 0x12 SLOAD PUSH4 0x1000000 DUP2 DIV DUP3 AND PUSH1 0x1 PUSH1 0x30 SHL SWAP1 SWAP2 DIV SWAP1 SWAP2 AND GT ISZERO SWAP1 POP PUSH2 0xB11 JUMPI PUSH1 0x0 DUP1 REVERT JUMPDEST PUSH1 0x12 SLOAD PUSH3 0xFFFFFF DUP1 DUP3 AND SWAP2 PUSH2 0xB37 SWAP2 PUSH1 0x1 PUSH1 0x48 SHL DUP3 DIV DUP2 AND SWAP2 PUSH1 0x1 PUSH1 0x30 SHL SWAP1 DIV AND PUSH2 0x39A6 JUMP JUMPDEST PUSH3 0xFFFFFF AND EQ ISZERO PUSH2 0xBA8 JUMPI PUSH1 0x10 SLOAD PUSH1 0x11 SLOAD PUSH1 0x40 MLOAD PUSH4 0x1122F8A9 PUSH1 0xE1 SHL DUP2 MSTORE PUSH1 0x4 DUP2 ADD SWAP2 SWAP1 SWAP2 MSTORE PUSH1 0x1 PUSH1 0x1 PUSH1 0xA0 SHL SUB SWAP1 SWAP2 AND SWAP1 DUP2 SWAP1 PUSH4 0x2245F152 SWAP1 PUSH1 0x24 ADD PUSH1 0x0 PUSH1 0x40 MLOAD DUP1 DUP4 SUB DUP2 PUSH1 0x0 DUP8 DUP1 EXTCODESIZE ISZERO DUP1 ISZERO PUSH2 0xB8E JUMPI PUSH1 0x0 DUP1 REVERT JUMPDEST POP GAS CALL ISZERO DUP1 ISZERO PUSH2 0xBA2 JUMPI RETURNDATASIZE PUSH1 0x0 DUP1 RETURNDATACOPY RETURNDATASIZE PUSH1 0x0 REVERT JUMPDEST POP POP POP POP POP JUMPDEST PUSH1 0x12 SLOAD PUSH1 0x11 SLOAD PUSH1 0x1 PUSH1 0x30 SHL SWAP1 SWAP2 DIV PUSH3 0xFFFFFF AND SWAP1 PUSH2 0xBCA SWAP1 PUSH3 0xF4240 SWAP1 PUSH2 0x39CD JUMP JUMPDEST PUSH2 0xBD4 SWAP2 SWAP1 PUSH2 0x39EC JUMP JUMPDEST SWAP1 POP PUSH2 0xBE0 CALLER DUP3 PUSH2 0x1D72 JUMP JUMPDEST PUSH1 0xC SLOAD PUSH1 0x40 MLOAD PUSH4 0x1DA00D85 PUSH1 0xE0 SHL DUP2 MSTORE PUSH1 0x4 DUP2 ADD DUP4 SWAP1 MSTORE PUSH1 0x1 PUSH1 0x1 PUSH1 0xA0 SHL SUB SWAP1 SWAP2 AND SWAP1 PUSH1 0x0 SWAP1 DUP3 SWAP1 PUSH4 0x1DA00D85 SWAP1 PUSH1 0x24 ADD PUSH1 0x20 PUSH1 0x40 MLOAD DUP1 DUP4 SUB DUP2 PUSH1 0x0 DUP8 GAS CALL ISZERO DUP1 ISZERO PUSH2 0xC30 JUMPI RETURNDATASIZE PUSH1 0x0 DUP1 RETURNDATACOPY RETURNDATASIZE PUSH1 0x0 REVERT JUMPDEST POP POP POP POP PUSH1 0x40 MLOAD RETURNDATASIZE PUSH1 0x1F NOT PUSH1 0x1F DUP3 ADD AND DUP3 ADD DUP1 PUSH1 0x40 MSTORE POP DUP2 ADD SWAP1 PUSH2 0xC54 SWAP2 SWAP1 PUSH2 0x38DD JUMP JUMPDEST SWAP1 POP PUSH2 0xC60 DUP4 DUP3 PUSH2 0x1D8C JUMP JUMPDEST PUSH2 0xC68 PUSH2 0x1E55 JUMP JUMPDEST PUSH1 0x40 DUP1 MLOAD CALLER DUP2 MSTORE PUSH1 0x20 DUP2 ADD DUP6 SWAP1 MSTORE PUSH32 0xF6798A560793A54C3BCFE86A93CDE1E73087D944C0EA20544137D4121396885 SWAP2 ADD PUSH1 0x40 MLOAD DUP1 SWAP2 SUB SWAP1 LOG1 POP POP PUSH2 0xCAD PUSH1 0x1 PUSH1 0x7 SSTORE JUMP JUMPDEST SWAP1 JUMP JUMPDEST PUSH1 0xA SLOAD PUSH1 0x1 PUSH1 0x1 PUSH1 0xA0 SHL SUB AND CALLER EQ DUP1 ISZERO PUSH2 0xCD2 JUMPI POP PUSH1 0x1 PUSH1 0x1 PUSH1 0xA0 SHL SUB DUP2 AND ISZERO ISZERO JUMPDEST PUSH1 0x40 MLOAD DUP1 PUSH1 0x40 ADD PUSH1 0x40 MSTORE DUP1 PUSH1 0x3 DUP2 MSTORE PUSH1 0x20 ADD PUSH3 0x313031 PUSH1 0xE8 SHL DUP2 MSTORE POP SWAP1 PUSH2 0xD0C JUMPI PUSH1 0x40 MLOAD PUSH3 0x461BCD PUSH1 0xE5 SHL DUP2 MSTORE PUSH1 0x4 ADD PUSH2 0x87B SWAP2 SWAP1 PUSH2 0x322F JUMP JUMPDEST POP PUSH1 0xC SLOAD PUSH1 0x1 PUSH1 0x1 PUSH1 0xA0 SHL SUB DUP3 DUP2 AND SWAP2 AND EQ PUSH2 0xD3E JUMPI PUSH1 0xC DUP1 SLOAD PUSH1 0x1 PUSH1 0x1 PUSH1 0xA0 SHL SUB NOT AND PUSH1 0x1 PUSH1 0x1 PUSH1 0xA0 SHL SUB DUP4 AND OR SWAP1 SSTORE JUMPDEST POP JUMP JUMPDEST PUSH1 0x0 PUSH2 0xD4B PUSH2 0x1D18 JUMP JUMPDEST PUSH1 0x12 DUP1 SLOAD PUSH1 0x1 PUSH1 0x48 SHL SWAP1 DIV PUSH3 0xFFFFFF AND SWAP1 PUSH1 0x9 PUSH2 0xD67 DUP4 PUSH2 0x3983 JUMP JUMPDEST DUP3 SLOAD PUSH2 0x100 SWAP3 SWAP1 SWAP3 EXP PUSH3 0xFFFFFF DUP2 DUP2 MUL NOT SWAP1 SWAP4 AND SWAP2 DUP4 AND MUL OR SWAP1 SWAP2 SSTORE PUSH1 0x12 SLOAD DUP1 DUP3 AND SWAP3 POP PUSH2 0xDA6 SWAP2 PUSH4 0x1000000 DUP3 DIV DUP2 AND SWAP2 PUSH1 0x1 PUSH1 0x48 SHL SWAP1 DIV AND PUSH2 0x39A6 JUMP JUMPDEST PUSH3 0xFFFFFF AND GT ISZERO PUSH2 0xDB6 JUMPI PUSH1 0x0 DUP1 REVERT JUMPDEST PUSH1 0x12 SLOAD PUSH3 0xFFFFFF DUP1 DUP3 AND SWAP2 PUSH2 0xDDC SWAP2 PUSH1 0x1 PUSH1 0x48 SHL DUP3 DIV DUP2 AND SWAP2 PUSH1 0x1 PUSH1 0x30 SHL SWAP1 DIV AND PUSH2 0x39A6 JUMP JUMPDEST PUSH3 0xFFFFFF AND EQ ISZERO PUSH2 0xE4D JUMPI PUSH1 0x10 SLOAD PUSH1 0x11 SLOAD PUSH1 0x40 MLOAD PUSH4 0x1122F8A9 PUSH1 0xE1 SHL DUP2 MSTORE PUSH1 0x4 DUP2 ADD SWAP2 SWAP1 SWAP2 MSTORE PUSH1 0x1 PUSH1 0x1 PUSH1 0xA0 SHL SUB SWAP1 SWAP2 AND SWAP1 DUP2 SWAP1 PUSH4 0x2245F152 SWAP1 PUSH1 0x24 ADD PUSH1 0x0 PUSH1 0x40 MLOAD DUP1 DUP4 SUB DUP2 PUSH1 0x0 DUP8 DUP1 EXTCODESIZE ISZERO DUP1 ISZERO PUSH2 0xE33 JUMPI PUSH1 0x0 DUP1 REVERT JUMPDEST POP GAS CALL ISZERO DUP1 ISZERO PUSH2 0xE47 JUMPI RETURNDATASIZE PUSH1 0x0 DUP1 RETURNDATACOPY RETURNDATASIZE PUSH1 0x0 REVERT JUMPDEST POP POP POP POP POP JUMPDEST PUSH1 0x10 SLOAD CALLER PUSH1 0x0 SWAP1 DUP2 MSTORE PUSH1 0x1A PUSH1 0x20 MSTORE PUSH1 0x40 SWAP1 KECCAK256 SLOAD PUSH1 0x1 PUSH1 0x1 PUSH1 0xA0 SHL SUB SWAP1 SWAP2 AND SWAP1 PUSH1 0xFF AND DUP1 PUSH2 0xEF7 JUMPI POP PUSH1 0x11 SLOAD PUSH1 0x40 MLOAD PUSH4 0x31A9108F PUSH1 0xE1 SHL DUP2 MSTORE PUSH1 0x4 DUP2 ADD SWAP2 SWAP1 SWAP2 MSTORE PUSH1 0x1 PUSH1 0x1 PUSH1 0xA0 SHL SUB DUP3 AND SWAP1 PUSH4 0x6352211E SWAP1 PUSH1 0x24 ADD PUSH1 0x20 PUSH1 0x40 MLOAD DUP1 DUP4 SUB DUP2 DUP7 GAS STATICCALL ISZERO DUP1 ISZERO PUSH2 0xEBE JUMPI RETURNDATASIZE PUSH1 0x0 DUP1 RETURNDATACOPY RETURNDATASIZE PUSH1 0x0 REVERT JUMPDEST POP POP POP POP PUSH1 0x40 MLOAD RETURNDATASIZE PUSH1 0x1F NOT PUSH1 0x1F DUP3 ADD AND DUP3 ADD DUP1 PUSH1 0x40 MSTORE POP DUP2 ADD SWAP1 PUSH2 0xEE2 SWAP2 SWAP1 PUSH2 0x3A04 JUMP JUMPDEST PUSH1 0x1 PUSH1 0x1 PUSH1 0xA0 SHL SUB AND CALLER PUSH1 0x1 PUSH1 0x1 PUSH1 0xA0 SHL SUB AND EQ JUMPDEST PUSH2 0xF00 JUMPI PUSH1 0x0 DUP1 REVERT JUMPDEST CALLER PUSH1 0x0 SWAP1 DUP2 MSTORE PUSH1 0x1A PUSH1 0x20 MSTORE PUSH1 0x40 SWAP1 KECCAK256 SLOAD PUSH1 0xFF AND DUP1 ISZERO PUSH2 0xF20 JUMPI POP PUSH1 0x19 SLOAD ISZERO ISZERO JUMPDEST ISZERO PUSH2 0xF64 JUMPI PUSH1 0x19 SLOAD PUSH1 0x40 DUP1 MLOAD DUP1 DUP3 ADD SWAP1 SWAP2 MSTORE PUSH1 0x3 DUP2 MSTORE PUSH3 0x64607 PUSH1 0xEB SHL PUSH1 0x20 DUP3 ADD MSTORE SWAP1 TIMESTAMP GT PUSH2 0xF62 JUMPI PUSH1 0x40 MLOAD PUSH3 0x461BCD PUSH1 0xE5 SHL DUP2 MSTORE PUSH1 0x4 ADD PUSH2 0x87B SWAP2 SWAP1 PUSH2 0x322F JUMP JUMPDEST POP JUMPDEST PUSH1 0x12 SLOAD PUSH2 0xF86 SWAP1 PUSH3 0xFFFFFF PUSH4 0x1000000 DUP3 DIV DUP2 AND SWAP2 PUSH1 0x1 PUSH1 0x48 SHL SWAP1 DIV AND PUSH2 0x39A6 JUMP JUMPDEST PUSH3 0xFFFFFF AND PUSH3 0xF4240 PUSH1 0x10 PUSH1 0x1 ADD SLOAD PUSH2 0xF9F SWAP2 SWAP1 PUSH2 0x39CD JUMP JUMPDEST PUSH2 0xFA9 SWAP2 SWAP1 PUSH2 0x39EC JUMP JUMPDEST SWAP2 POP PUSH2 0xFB5 CALLER DUP4 PUSH2 0x1D72 JUMP JUMPDEST PUSH1 0xC SLOAD PUSH1 0x40 MLOAD PUSH4 0x1DA00D85 PUSH1 0xE0 SHL DUP2 MSTORE PUSH1 0x4 DUP2 ADD DUP5 SWAP1 MSTORE PUSH1 0x1 PUSH1 0x1 PUSH1 0xA0 SHL SUB SWAP1 SWAP2 AND SWAP1 PUSH1 0x0 SWAP1 DUP3 SWAP1 PUSH4 0x1DA00D85 SWAP1 PUSH1 0x24 ADD PUSH1 0x20 PUSH1 0x40 MLOAD DUP1 DUP4 SUB DUP2 PUSH1 0x0 DUP8 GAS CALL ISZERO DUP1 ISZERO PUSH2 0x1005 JUMPI RETURNDATASIZE PUSH1 0x0 DUP1 RETURNDATACOPY RETURNDATASIZE PUSH1 0x0 REVERT JUMPDEST POP POP POP POP PUSH1 0x40 MLOAD RETURNDATASIZE PUSH1 0x1F NOT PUSH1 0x1F DUP3 ADD AND DUP3 ADD DUP1 PUSH1 0x40 MSTORE POP DUP2 ADD SWAP1 PUSH2 0x1029 SWAP2 SWAP1 PUSH2 0x38DD JUMP JUMPDEST SWAP1 POP PUSH2 0x1035 DUP5 DUP3 PUSH2 0x1D8C JUMP JUMPDEST PUSH1 0x40 DUP1 MLOAD CALLER DUP2 MSTORE PUSH1 0x20 DUP2 ADD DUP7 SWAP1 MSTORE PUSH32 0xF6798A560793A54C3BCFE86A93CDE1E73087D944C0EA20544137D4121396885 SWAP2 ADD PUSH1 0x40 MLOAD DUP1 SWAP2 SUB SWAP1 LOG1 POP POP POP PUSH2 0xCAD PUSH1 0x1 PUSH1 0x7 SSTORE JUMP JUMPDEST DUP3 PUSH1 0x1 PUSH1 0x1 PUSH1 0xA0 SHL SUB DUP2 AND CALLER EQ PUSH2 0x1095 JUMPI PUSH2 0x1095 CALLER PUSH2 0x243A JUMP JUMPDEST PUSH2 0x10A0 DUP5 DUP5 DUP5 PUSH2 0x24F3 JUMP JUMPDEST POP POP POP POP JUMP JUMPDEST PUSH1 0x0 DUP1 PUSH2 0x10B3 DUP5 DUP5 PUSH2 0x2524 JUMP JUMPDEST SWAP2 POP SWAP2 POP SWAP3 POP SWAP3 SWAP1 POP JUMP JUMPDEST DUP3 PUSH1 0x1 PUSH1 0x1 PUSH1 0xA0 SHL SUB DUP2 AND CALLER EQ PUSH2 0x10D8 JUMPI PUSH2 0x10D8 CALLER PUSH2 0x243A JUMP JUMPDEST PUSH2 0x10A0 DUP5 DUP5 DUP5 PUSH2 0x26BE JUMP JUMPDEST PUSH1 0xE DUP1 SLOAD PUSH2 0x10F0 SWAP1 PUSH2 0x38A2 JUMP JUMPDEST DUP1 PUSH1 0x1F ADD PUSH1 0x20 DUP1 SWAP2 DIV MUL PUSH1 0x20 ADD PUSH1 0x40 MLOAD SWAP1 DUP2 ADD PUSH1 0x40 MSTORE DUP1 SWAP3 SWAP2 SWAP1 DUP2 DUP2 MSTORE PUSH1 0x20 ADD DUP3 DUP1 SLOAD PUSH2 0x111C SWAP1 PUSH2 0x38A2 JUMP JUMPDEST DUP1 ISZERO PUSH2 0x1169 JUMPI DUP1 PUSH1 0x1F LT PUSH2 0x113E JUMPI PUSH2 0x100 DUP1 DUP4 SLOAD DIV MUL DUP4 MSTORE SWAP2 PUSH1 0x20 ADD SWAP2 PUSH2 0x1169 JUMP JUMPDEST DUP3 ADD SWAP2 SWAP1 PUSH1 0x0 MSTORE PUSH1 0x20 PUSH1 0x0 KECCAK256 SWAP1 JUMPDEST DUP2 SLOAD DUP2 MSTORE SWAP1 PUSH1 0x1 ADD SWAP1 PUSH1 0x20 ADD DUP1 DUP4 GT PUSH2 0x114C JUMPI DUP3 SWAP1 SUB PUSH1 0x1F AND DUP3 ADD SWAP2 JUMPDEST POP POP POP POP POP DUP2 JUMP JUMPDEST PUSH1 0xA SLOAD PUSH1 0x1 PUSH1 0x1 PUSH1 0xA0 SHL SUB AND CALLER EQ DUP1 ISZERO PUSH2 0x1193 JUMPI POP PUSH1 0x1 PUSH1 0x1 PUSH1 0xA0 SHL SUB DUP2 AND ISZERO ISZERO JUMPDEST PUSH1 0x40 MLOAD DUP1 PUSH1 0x40 ADD PUSH1 0x40 MSTORE DUP1 PUSH1 0x3 DUP2 MSTORE PUSH1 0x20 ADD PUSH3 0x313031 PUSH1 0xE8 SHL DUP2 MSTORE POP SWAP1 PUSH2 0x11CD JUMPI PUSH1 0x40 MLOAD PUSH3 0x461BCD PUSH1 0xE5 SHL DUP2 MSTORE PUSH1 0x4 ADD PUSH2 0x87B SWAP2 SWAP1 PUSH2 0x322F JUMP JUMPDEST POP PUSH1 0xD SLOAD PUSH1 0x1 PUSH1 0x1 PUSH1 0xA0 SHL SUB DUP3 DUP2 AND SWAP2 AND EQ PUSH2 0xD3E JUMPI PUSH1 0xD DUP1 SLOAD PUSH1 0x1 PUSH1 0x1 PUSH1 0xA0 SHL SUB DUP4 AND PUSH1 0x1 PUSH1 0x1 PUSH1 0xA0 SHL SUB NOT SWAP1 SWAP2 AND OR SWAP1 SSTORE POP JUMP JUMPDEST PUSH1 0x0 PUSH2 0x1211 PUSH1 0x6 SLOAD PUSH1 0xFF AND SWAP1 JUMP JUMPDEST ISZERO SWAP1 POP SWAP1 JUMP JUMPDEST PUSH1 0xA SLOAD PUSH1 0x1 PUSH1 0x1 PUSH1 0xA0 SHL SUB AND CALLER EQ DUP1 PUSH2 0x123A JUMPI POP PUSH1 0x10 SLOAD PUSH1 0x1 PUSH1 0x1 PUSH1 0xA0 SHL SUB AND CALLER EQ JUMPDEST PUSH1 0x40 MLOAD DUP1 PUSH1 0x40 ADD PUSH1 0x40 MSTORE DUP1 PUSH1 0x3 DUP2 MSTORE PUSH1 0x20 ADD PUSH3 0x313031 PUSH1 0xE8 SHL DUP2 MSTORE POP SWAP1 PUSH2 0x1274 JUMPI PUSH1 0x40 MLOAD PUSH3 0x461BCD PUSH1 0xE5 SHL DUP2 MSTORE PUSH1 0x4 ADD PUSH2 0x87B SWAP2 SWAP1 PUSH2 0x322F JUMP JUMPDEST POP PUSH2 0xD3E DUP2 PUSH2 0x26D9 JUMP JUMPDEST PUSH1 0x0 PUSH2 0x1289 DUP3 PUSH2 0x1CFB JUMP JUMPDEST PUSH1 0x40 MLOAD DUP1 PUSH1 0x40 ADD PUSH1 0x40 MSTORE DUP1 PUSH1 0x3 DUP2 MSTORE PUSH1 0x20 ADD PUSH3 0x323039 PUSH1 0xE8 SHL DUP2 MSTORE POP SWAP1 PUSH2 0x12C3 JUMPI PUSH1 0x40 MLOAD PUSH3 0x461BCD PUSH1 0xE5 SHL DUP2 MSTORE PUSH1 0x4 ADD PUSH2 0x87B SWAP2 SWAP1 PUSH2 0x322F JUMP JUMPDEST POP PUSH1 0x0 DUP3 DUP2 MSTORE PUSH1 0x9 PUSH1 0x20 MSTORE PUSH1 0x40 SWAP1 KECCAK256 SLOAD PUSH1 0x1 PUSH1 0xA0 SHL SWAP1 DIV PUSH1 0xA0 SHL PUSH1 0x1 PUSH1 0x1 PUSH1 0xA0 SHL SUB NOT AND PUSH2 0x12F3 JUMPI POP PUSH1 0x0 SWAP2 SWAP1 POP JUMP JUMPDEST PUSH1 0x0 DUP3 DUP2 MSTORE PUSH1 0x9 PUSH1 0x20 SWAP1 DUP2 MSTORE PUSH1 0x40 SWAP2 DUP3 SWAP1 KECCAK256 SLOAD SWAP2 MLOAD PUSH2 0x132D SWAP3 PUSH1 0x1 PUSH1 0xA0 SHL SWAP1 DIV PUSH1 0xA0 SHL SWAP2 ADD PUSH1 0x1 PUSH1 0x1 PUSH1 0xA0 SHL SUB NOT SWAP2 SWAP1 SWAP2 AND DUP2 MSTORE PUSH1 0x20 ADD SWAP1 JUMP JUMPDEST PUSH1 0x40 MLOAD PUSH1 0x20 DUP2 DUP4 SUB SUB DUP2 MSTORE SWAP1 PUSH1 0x40 MSTORE DUP1 MLOAD SWAP1 PUSH1 0x20 ADD KECCAK256 SWAP1 POP SWAP2 SWAP1 POP JUMP JUMPDEST PUSH1 0x0 PUSH1 0x1 PUSH1 0x1 PUSH1 0xA0 SHL SUB DUP3 AND PUSH2 0x13B4 JUMPI PUSH1 0x40 MLOAD PUSH3 0x461BCD PUSH1 0xE5 SHL DUP2 MSTORE PUSH1 0x20 PUSH1 0x4 DUP3 ADD MSTORE PUSH1 0x29 PUSH1 0x24 DUP3 ADD MSTORE PUSH32 0x4552433732313A2061646472657373207A65726F206973206E6F742061207661 PUSH1 0x44 DUP3 ADD MSTORE PUSH9 0x3634B21037BBB732B9 PUSH1 0xB9 SHL PUSH1 0x64 DUP3 ADD MSTORE PUSH1 0x84 ADD PUSH2 0x87B JUMP JUMPDEST POP PUSH1 0x1 PUSH1 0x1 PUSH1 0xA0 SHL SUB AND PUSH1 0x0 SWAP1 DUP2 MSTORE PUSH1 0x3 PUSH1 0x20 MSTORE PUSH1 0x40 SWAP1 KECCAK256 SLOAD SWAP1 JUMP JUMPDEST PUSH2 0x13D8 PUSH2 0x26EF JUMP JUMPDEST PUSH2 0x13E2 PUSH1 0x0 PUSH2 0x276D JUMP JUMPDEST JUMP JUMPDEST PUSH1 0x10 DUP1 SLOAD PUSH1 0x11 SLOAD PUSH1 0x12 SLOAD PUSH1 0x13 DUP1 SLOAD PUSH1 0x1 PUSH1 0x1 PUSH1 0xA0 SHL SUB SWAP1 SWAP5 AND SWAP5 SWAP3 SWAP4 PUSH3 0xFFFFFF DUP1 DUP5 AND SWAP5 PUSH4 0x1000000 DUP6 DIV DUP3 AND SWAP5 PUSH1 0x1 PUSH1 0x30 SHL DUP2 DIV DUP4 AND SWAP5 PUSH1 0x1 PUSH1 0x48 SHL SWAP1 SWAP2 DIV SWAP1 SWAP3 AND SWAP3 SWAP1 SWAP2 SWAP1 PUSH2 0x1434 SWAP1 PUSH2 0x38A2 JUMP JUMPDEST DUP1 PUSH1 0x1F ADD PUSH1 0x20 DUP1 SWAP2 DIV MUL PUSH1 0x20 ADD PUSH1 0x40 MLOAD SWAP1 DUP2 ADD PUSH1 0x40 MSTORE DUP1 SWAP3 SWAP2 SWAP1 DUP2 DUP2 MSTORE PUSH1 0x20 ADD DUP3 DUP1 SLOAD PUSH2 0x1460 SWAP1 PUSH2 0x38A2 JUMP JUMPDEST DUP1 ISZERO PUSH2 0x14AD JUMPI DUP1 PUSH1 0x1F LT PUSH2 0x1482 JUMPI PUSH2 0x100 DUP1 DUP4 SLOAD DIV MUL DUP4 MSTORE SWAP2 PUSH1 0x20 ADD SWAP2 PUSH2 0x14AD JUMP JUMPDEST DUP3 ADD SWAP2 SWAP1 PUSH1 0x0 MSTORE PUSH1 0x20 PUSH1 0x0 KECCAK256 SWAP1 JUMPDEST DUP2 SLOAD DUP2 MSTORE SWAP1 PUSH1 0x1 ADD SWAP1 PUSH1 0x20 ADD DUP1 DUP4 GT PUSH2 0x1490 JUMPI DUP3 SWAP1 SUB PUSH1 0x1F AND DUP3 ADD SWAP2 JUMPDEST POP POP POP POP PUSH1 0x4 DUP4 ADD SLOAD PUSH1 0x5 DUP5 ADD SLOAD PUSH1 0x6 DUP6 ADD SLOAD PUSH1 0x7 DUP7 ADD DUP1 SLOAD SWAP6 SWAP7 PUSH1 0x1 PUSH1 0x1 PUSH1 0xA0 SHL SUB SWAP5 DUP6 AND SWAP7 SWAP4 SWAP6 POP SWAP4 SWAP1 SWAP2 AND SWAP3 SWAP2 PUSH2 0x14E6 SWAP1 PUSH2 0x38A2 JUMP JUMPDEST DUP1 PUSH1 0x1F ADD PUSH1 0x20 DUP1 SWAP2 DIV MUL PUSH1 0x20 ADD PUSH1 0x40 MLOAD SWAP1 DUP2 ADD PUSH1 0x40 MSTORE DUP1 SWAP3 SWAP2 SWAP1 DUP2 DUP2 MSTORE PUSH1 0x20 ADD DUP3 DUP1 SLOAD PUSH2 0x1512 SWAP1 PUSH2 0x38A2 JUMP JUMPDEST DUP1 ISZERO PUSH2 0x155F JUMPI DUP1 PUSH1 0x1F LT PUSH2 0x1534 JUMPI PUSH2 0x100 DUP1 DUP4 SLOAD DIV MUL DUP4 MSTORE SWAP2 PUSH1 0x20 ADD SWAP2 PUSH2 0x155F JUMP JUMPDEST DUP3 ADD SWAP2 SWAP1 PUSH1 0x0 MSTORE PUSH1 0x20 PUSH1 0x0 KECCAK256 SWAP1 JUMPDEST DUP2 SLOAD DUP2 MSTORE SWAP1 PUSH1 0x1 ADD SWAP1 PUSH1 0x20 ADD DUP1 DUP4 GT PUSH2 0x1542 JUMPI DUP3 SWAP1 SUB PUSH1 0x1F AND DUP3 ADD SWAP2 JUMPDEST POP POP PUSH1 0x40 DUP1 MLOAD DUP1 DUP3 ADD SWAP1 SWAP2 MSTORE PUSH1 0x8 DUP7 ADD SLOAD DUP2 MSTORE PUSH1 0x9 SWAP1 SWAP6 ADD SLOAD PUSH1 0x20 DUP7 ADD MSTORE POP SWAP2 SWAP3 SWAP2 POP DUP14 SWAP1 POP JUMP JUMPDEST PUSH1 0xA SLOAD PUSH1 0x1 PUSH1 0x1 PUSH1 0xA0 SHL SUB AND CALLER EQ DUP1 ISZERO PUSH2 0x15A9 JUMPI POP PUSH1 0x1 PUSH1 0x1 PUSH1 0xA0 SHL SUB DUP2 AND ISZERO ISZERO JUMPDEST PUSH1 0x40 MLOAD DUP1 PUSH1 0x40 ADD PUSH1 0x40 MSTORE DUP1 PUSH1 0x3 DUP2 MSTORE PUSH1 0x20 ADD PUSH3 0x313031 PUSH1 0xE8 SHL DUP2 MSTORE POP SWAP1 PUSH2 0x15E3 JUMPI PUSH1 0x40 MLOAD PUSH3 0x461BCD PUSH1 0xE5 SHL DUP2 MSTORE PUSH1 0x4 ADD PUSH2 0x87B SWAP2 SWAP1 PUSH2 0x322F JUMP JUMPDEST POP PUSH1 0xA SLOAD PUSH1 0x1 PUSH1 0x1 PUSH1 0xA0 SHL SUB DUP3 DUP2 AND SWAP2 AND EQ PUSH2 0xD3E JUMPI PUSH1 0xA DUP1 SLOAD PUSH1 0x1 PUSH1 0x1 PUSH1 0xA0 SHL SUB DUP4 AND PUSH1 0x1 PUSH1 0x1 PUSH1 0xA0 SHL SUB NOT SWAP1 SWAP2 AND OR SWAP1 SSTORE POP JUMP JUMPDEST PUSH1 0x60 PUSH2 0x16B2 PUSH1 0x1 PUSH1 0x3 PUSH1 0xE DUP1 SLOAD PUSH2 0x162F SWAP1 PUSH2 0x38A2 JUMP JUMPDEST DUP1 PUSH1 0x1F ADD PUSH1 0x20 DUP1 SWAP2 DIV MUL PUSH1 0x20 ADD PUSH1 0x40 MLOAD SWAP1 DUP2 ADD PUSH1 0x40 MSTORE DUP1 SWAP3 SWAP2 SWAP1 DUP2 DUP2 MSTORE PUSH1 0x20 ADD DUP3 DUP1 SLOAD PUSH2 0x165B SWAP1 PUSH2 0x38A2 JUMP JUMPDEST DUP1 ISZERO PUSH2 0x16A8 JUMPI DUP1 PUSH1 0x1F LT PUSH2 0x167D JUMPI PUSH2 0x100 DUP1 DUP4 SLOAD DIV MUL DUP4 MSTORE SWAP2 PUSH1 0x20 ADD SWAP2 PUSH2 0x16A8 JUMP JUMPDEST DUP3 ADD SWAP2 SWAP1 PUSH1 0x0 MSTORE PUSH1 0x20 PUSH1 0x0 KECCAK256 SWAP1 JUMPDEST DUP2 SLOAD DUP2 MSTORE SWAP1 PUSH1 0x1 ADD SWAP1 PUSH1 0x20 ADD DUP1 DUP4 GT PUSH2 0x168B JUMPI DUP3 SWAP1 SUB PUSH1 0x1F AND DUP3 ADD SWAP2 JUMPDEST POP POP POP POP POP PUSH2 0x27BF JUMP JUMPDEST SWAP1 POP SWAP1 JUMP JUMPDEST PUSH2 0x16C2 CALLER DUP4 DUP4 PUSH2 0x28A6 JUMP JUMPDEST POP POP JUMP JUMPDEST DUP4 PUSH1 0x1 PUSH1 0x1 PUSH1 0xA0 SHL SUB DUP2 AND CALLER EQ PUSH2 0x16E0 JUMPI PUSH2 0x16E0 CALLER PUSH2 0x243A JUMP JUMPDEST PUSH2 0x16EC DUP6 DUP6 DUP6 DUP6 PUSH2 0x2975 JUMP JUMPDEST POP POP POP POP POP JUMP JUMPDEST PUSH1 0x60 PUSH2 0x16FE DUP3 PUSH2 0x1CFB JUMP JUMPDEST PUSH1 0x40 MLOAD DUP1 PUSH1 0x40 ADD PUSH1 0x40 MSTORE DUP1 PUSH1 0x3 DUP2 MSTORE PUSH1 0x20 ADD PUSH3 0x323039 PUSH1 0xE8 SHL DUP2 MSTORE POP SWAP1 PUSH2 0x1738 JUMPI PUSH1 0x40 MLOAD PUSH3 0x461BCD PUSH1 0xE5 SHL DUP2 MSTORE PUSH1 0x4 ADD PUSH2 0x87B SWAP2 SWAP1 PUSH2 0x322F JUMP JUMPDEST POP PUSH1 0xD SLOAD PUSH1 0x40 MLOAD PUSH4 0x188687DD PUSH1 0xE2 SHL DUP2 MSTORE PUSH1 0x4 DUP2 ADD DUP5 SWAP1 MSTORE PUSH1 0x1 PUSH1 0x1 PUSH1 0xA0 SHL SUB SWAP1 SWAP2 AND SWAP1 PUSH1 0x0 SWAP1 ADDRESS SWAP1 PUSH4 0x621A1F74 SWAP1 PUSH1 0x24 ADD PUSH1 0x20 PUSH1 0x40 MLOAD DUP1 DUP4 SUB DUP2 DUP7 GAS STATICCALL ISZERO DUP1 ISZERO PUSH2 0x1787 JUMPI RETURNDATASIZE PUSH1 0x0 DUP1 RETURNDATACOPY RETURNDATASIZE PUSH1 0x0 REVERT JUMPDEST POP POP POP POP PUSH1 0x40 MLOAD RETURNDATASIZE PUSH1 0x1F NOT PUSH1 0x1F DUP3 ADD AND DUP3 ADD DUP1 PUSH1 0x40 MSTORE POP DUP2 ADD SWAP1 PUSH2 0x17AB SWAP2 SWAP1 PUSH2 0x38DD JUMP JUMPDEST PUSH1 0x11 SLOAD PUSH1 0x40 MLOAD PUSH4 0x8DD54E9 PUSH1 0xE3 SHL DUP2 MSTORE PUSH1 0x4 DUP2 ADD SWAP2 SWAP1 SWAP2 MSTORE PUSH1 0x24 DUP2 ADD DUP7 SWAP1 MSTORE PUSH1 0x44 DUP2 ADD DUP3 SWAP1 MSTORE SWAP1 SWAP2 POP PUSH1 0x1 PUSH1 0x1 PUSH1 0xA0 SHL SUB DUP4 AND SWAP1 PUSH4 0x46EAA748 SWAP1 PUSH1 0x64 ADD PUSH2 0xA17 JUMP JUMPDEST PUSH1 0xA SLOAD PUSH1 0x40 DUP1 MLOAD DUP1 DUP3 ADD SWAP1 SWAP2 MSTORE PUSH1 0x3 DUP2 MSTORE PUSH3 0x191819 PUSH1 0xE9 SHL PUSH1 0x20 DUP3 ADD MSTORE SWAP1 PUSH1 0x1 PUSH1 0x1 PUSH1 0xA0 SHL SUB AND ISZERO PUSH2 0x1832 JUMPI PUSH1 0x40 MLOAD PUSH3 0x461BCD PUSH1 0xE5 SHL DUP2 MSTORE PUSH1 0x4 ADD PUSH2 0x87B SWAP2 SWAP1 PUSH2 0x322F JUMP JUMPDEST POP PUSH1 0x40 DUP1 MLOAD DUP1 DUP3 ADD SWAP1 SWAP2 MSTORE PUSH1 0x3 DUP2 MSTORE PUSH3 0x31303 PUSH1 0xEC SHL PUSH1 0x20 DUP3 ADD MSTORE PUSH1 0x1 PUSH1 0x1 PUSH1 0xA0 SHL SUB DUP9 AND PUSH2 0x1874 JUMPI PUSH1 0x40 MLOAD PUSH3 0x461BCD PUSH1 0xE5 SHL DUP2 MSTORE PUSH1 0x4 ADD PUSH2 0x87B SWAP2 SWAP1 PUSH2 0x322F JUMP JUMPDEST POP DUP8 MLOAD PUSH1 0x10 DUP1 SLOAD PUSH1 0x1 PUSH1 0x1 PUSH1 0xA0 SHL SUB SWAP1 SWAP3 AND PUSH1 0x1 PUSH1 0x1 PUSH1 0xA0 SHL SUB NOT SWAP1 SWAP3 AND SWAP2 SWAP1 SWAP2 OR DUP2 SSTORE PUSH1 0x20 DUP1 DUP11 ADD MLOAD PUSH1 0x11 SSTORE PUSH1 0x40 DUP11 ADD MLOAD PUSH1 0x12 DUP1 SLOAD PUSH1 0x60 DUP14 ADD MLOAD PUSH1 0x80 DUP15 ADD MLOAD PUSH1 0xA0 DUP16 ADD MLOAD PUSH3 0xFFFFFF SWAP1 DUP2 AND PUSH1 0x1 PUSH1 0x48 SHL MUL PUSH12 0xFFFFFF000000000000000000 NOT SWAP3 DUP3 AND PUSH1 0x1 PUSH1 0x30 SHL MUL SWAP3 SWAP1 SWAP3 AND PUSH12 0xFFFFFFFFFFFF000000000000 NOT SWAP4 DUP3 AND PUSH4 0x1000000 MUL PUSH6 0xFFFFFFFFFFFF NOT SWAP1 SWAP6 AND SWAP2 SWAP1 SWAP7 AND OR SWAP3 SWAP1 SWAP3 OR AND SWAP3 SWAP1 SWAP3 OR SWAP2 SWAP1 SWAP2 OR SWAP1 SSTORE PUSH1 0xC0 DUP11 ADD MLOAD DUP1 MLOAD DUP12 SWAP4 SWAP3 PUSH2 0x1930 SWAP3 PUSH1 0x13 SWAP3 SWAP2 ADD SWAP1 PUSH2 0x3104 JUMP JUMPDEST POP PUSH1 0xE0 DUP3 ADD MLOAD PUSH1 0x4 DUP3 ADD DUP1 SLOAD PUSH1 0x1 PUSH1 0x1 PUSH1 0xA0 SHL SUB SWAP3 DUP4 AND PUSH1 0x1 PUSH1 0x1 PUSH1 0xA0 SHL SUB NOT SWAP2 DUP3 AND OR SWAP1 SWAP2 SSTORE PUSH2 0x100 DUP5 ADD MLOAD PUSH1 0x5 DUP5 ADD SSTORE PUSH2 0x120 DUP5 ADD MLOAD PUSH1 0x6 DUP5 ADD DUP1 SLOAD SWAP2 SWAP1 SWAP4 AND SWAP2 AND OR SWAP1 SSTORE PUSH2 0x140 DUP3 ADD MLOAD DUP1 MLOAD PUSH2 0x1993 SWAP2 PUSH1 0x7 DUP5 ADD SWAP2 PUSH1 0x20 SWAP1 SWAP2 ADD SWAP1 PUSH2 0x3104 JUMP JUMPDEST POP PUSH2 0x160 SWAP2 SWAP1 SWAP2 ADD MLOAD DUP1 MLOAD PUSH1 0x8 DUP4 ADD SSTORE PUSH1 0x20 SWAP1 DUP2 ADD MLOAD PUSH1 0x9 SWAP1 SWAP3 ADD SWAP2 SWAP1 SWAP2 SSTORE PUSH1 0xB DUP1 SLOAD PUSH1 0x1 PUSH1 0x1 PUSH1 0xA0 SHL SUB DUP1 DUP11 AND PUSH1 0x1 PUSH1 0x1 PUSH1 0xA0 SHL SUB NOT SWAP3 DUP4 AND OR SWAP1 SWAP3 SSTORE PUSH1 0xA DUP1 SLOAD DUP12 DUP5 AND SWAP1 DUP4 AND OR SWAP1 SSTORE PUSH1 0xC DUP1 SLOAD DUP10 DUP5 AND SWAP1 DUP4 AND OR SWAP1 SSTORE PUSH1 0xD DUP1 SLOAD SWAP3 DUP9 AND SWAP3 SWAP1 SWAP2 AND SWAP2 SWAP1 SWAP2 OR SWAP1 SSTORE PUSH2 0x140 DUP10 ADD MLOAD PUSH1 0xC0 DUP11 ADD MLOAD PUSH1 0x40 MLOAD PUSH2 0x1A14 SWAP4 ADD PUSH2 0x3A21 JUMP JUMPDEST PUSH1 0x40 MLOAD PUSH1 0x20 DUP2 DUP4 SUB SUB DUP2 MSTORE SWAP1 PUSH1 0x40 MSTORE PUSH1 0xE SWAP1 DUP1 MLOAD SWAP1 PUSH1 0x20 ADD SWAP1 PUSH2 0x1A38 SWAP3 SWAP2 SWAP1 PUSH2 0x3104 JUMP JUMPDEST POP PUSH1 0x0 JUMPDEST DUP4 MLOAD DUP2 LT ISZERO PUSH2 0x1AA1 JUMPI PUSH1 0x1 PUSH1 0x1A PUSH1 0x0 DUP7 DUP5 DUP2 MLOAD DUP2 LT PUSH2 0x1A5D JUMPI PUSH2 0x1A5D PUSH2 0x3A60 JUMP JUMPDEST PUSH1 0x20 SWAP1 DUP2 MUL SWAP2 SWAP1 SWAP2 ADD DUP2 ADD MLOAD PUSH1 0x1 PUSH1 0x1 PUSH1 0xA0 SHL SUB AND DUP3 MSTORE DUP2 ADD SWAP2 SWAP1 SWAP2 MSTORE PUSH1 0x40 ADD PUSH1 0x0 KECCAK256 DUP1 SLOAD PUSH1 0xFF NOT AND SWAP2 ISZERO ISZERO SWAP2 SWAP1 SWAP2 OR SWAP1 SSTORE DUP1 PUSH2 0x1A99 DUP2 PUSH2 0x3A76 JUMP JUMPDEST SWAP2 POP POP PUSH2 0x1A3C JUMP JUMPDEST POP PUSH1 0xA SLOAD PUSH2 0x1AB7 SWAP1 PUSH1 0x1 PUSH1 0x1 PUSH1 0xA0 SHL SUB AND PUSH2 0x1AD5 JUMP JUMPDEST DUP2 ISZERO PUSH2 0x1AC5 JUMPI PUSH2 0x1AC5 PUSH2 0x29A7 JUMP JUMPDEST TIMESTAMP PUSH1 0x18 SSTORE PUSH1 0xF SSTORE POP POP POP POP POP POP POP JUMP JUMPDEST PUSH2 0x1ADD PUSH2 0x26EF JUMP JUMPDEST PUSH1 0x1 PUSH1 0x1 PUSH1 0xA0 SHL SUB DUP2 AND PUSH2 0x1B42 JUMPI PUSH1 0x40 MLOAD PUSH3 0x461BCD PUSH1 0xE5 SHL DUP2 MSTORE PUSH1 0x20 PUSH1 0x4 DUP3 ADD MSTORE PUSH1 0x26 PUSH1 0x24 DUP3 ADD MSTORE PUSH32 0x4F776E61626C653A206E6577206F776E657220697320746865207A65726F2061 PUSH1 0x44 DUP3 ADD MSTORE PUSH6 0x646472657373 PUSH1 0xD0 SHL PUSH1 0x64 DUP3 ADD MSTORE PUSH1 0x84 ADD PUSH2 0x87B JUMP JUMPDEST PUSH2 0xD3E DUP2 PUSH2 0x276D JUMP JUMPDEST PUSH1 0xA SLOAD PUSH1 0x1 PUSH1 0x1 PUSH1 0xA0 SHL SUB AND CALLER EQ DUP1 ISZERO PUSH2 0x1B6D JUMPI POP PUSH1 0x1 PUSH1 0x1 PUSH1 0xA0 SHL SUB DUP2 AND ISZERO ISZERO JUMPDEST PUSH1 0x40 MLOAD DUP1 PUSH1 0x40 ADD PUSH1 0x40 MSTORE DUP1 PUSH1 0x3 DUP2 MSTORE PUSH1 0x20 ADD PUSH3 0x313031 PUSH1 0xE8 SHL DUP2 MSTORE POP SWAP1 PUSH2 0x1BA7 JUMPI PUSH1 0x40 MLOAD PUSH3 0x461BCD PUSH1 0xE5 SHL DUP2 MSTORE PUSH1 0x4 ADD PUSH2 0x87B SWAP2 SWAP1 PUSH2 0x322F JUMP JUMPDEST POP PUSH1 0xB SLOAD PUSH1 0x1 PUSH1 0x1 PUSH1 0xA0 SHL SUB DUP3 DUP2 AND SWAP2 AND EQ PUSH2 0xD3E JUMPI PUSH1 0xB DUP1 SLOAD PUSH1 0x1 PUSH1 0x1 PUSH1 0xA0 SHL SUB DUP4 AND PUSH1 0x1 PUSH1 0x1 PUSH1 0xA0 SHL SUB NOT SWAP1 SWAP2 AND OR SWAP1 SSTORE POP JUMP JUMPDEST PUSH2 0x1BE6 DUP2 PUSH2 0x1CFB JUMP JUMPDEST PUSH2 0xD3E JUMPI PUSH1 0x40 MLOAD PUSH3 0x461BCD PUSH1 0xE5 SHL DUP2 MSTORE PUSH1 0x20 PUSH1 0x4 DUP3 ADD MSTORE PUSH1 0x18 PUSH1 0x24 DUP3 ADD MSTORE PUSH24 0x115490CDCC8C4E881A5B9D985B1A59081D1BDAD95B881251 PUSH1 0x42 SHL PUSH1 0x44 DUP3 ADD MSTORE PUSH1 0x64 ADD PUSH2 0x87B JUMP JUMPDEST PUSH1 0x0 DUP2 DUP2 MSTORE PUSH1 0x2 PUSH1 0x20 MSTORE PUSH1 0x40 DUP2 KECCAK256 SLOAD PUSH1 0x1 PUSH1 0x1 PUSH1 0xA0 SHL SUB AND DUP1 PUSH2 0x747 JUMPI PUSH1 0x40 MLOAD PUSH3 0x461BCD PUSH1 0xE5 SHL DUP2 MSTORE PUSH1 0x20 PUSH1 0x4 DUP3 ADD MSTORE PUSH1 0x18 PUSH1 0x24 DUP3 ADD MSTORE PUSH24 0x115490CDCC8C4E881A5B9D985B1A59081D1BDAD95B881251 PUSH1 0x42 SHL PUSH1 0x44 DUP3 ADD MSTORE PUSH1 0x64 ADD PUSH2 0x87B JUMP JUMPDEST PUSH1 0x0 DUP2 DUP2 MSTORE PUSH1 0x4 PUSH1 0x20 MSTORE PUSH1 0x40 SWAP1 KECCAK256 DUP1 SLOAD PUSH1 0x1 PUSH1 0x1 PUSH1 0xA0 SHL SUB NOT AND PUSH1 0x1 PUSH1 0x1 PUSH1 0xA0 SHL SUB DUP5 AND SWAP1 DUP2 OR SWAP1 SWAP2 SSTORE DUP2 SWAP1 PUSH2 0x1CC2 DUP3 PUSH2 0x1C2D JUMP JUMPDEST PUSH1 0x1 PUSH1 0x1 PUSH1 0xA0 SHL SUB AND PUSH32 0x8C5BE1E5EBEC7D5BD14F71427D1E84F3DD0314C0F7B2291E5B200AC8C7C3B925 PUSH1 0x40 MLOAD PUSH1 0x40 MLOAD DUP1 SWAP2 SUB SWAP1 LOG4 POP POP JUMP JUMPDEST PUSH1 0x0 SWAP1 DUP2 MSTORE PUSH1 0x9 PUSH1 0x20 MSTORE PUSH1 0x40 SWAP1 KECCAK256 SLOAD PUSH1 0x1 PUSH1 0x1 PUSH1 0xA0 SHL SUB AND ISZERO ISZERO SWAP1 JUMP JUMPDEST PUSH1 0x2 PUSH1 0x7 SLOAD EQ ISZERO PUSH2 0x1D6B JUMPI PUSH1 0x40 MLOAD PUSH3 0x461BCD PUSH1 0xE5 SHL DUP2 MSTORE PUSH1 0x20 PUSH1 0x4 DUP3 ADD MSTORE PUSH1 0x1F PUSH1 0x24 DUP3 ADD MSTORE PUSH32 0x5265656E7472616E637947756172643A207265656E7472616E742063616C6C00 PUSH1 0x44 DUP3 ADD MSTORE PUSH1 0x64 ADD PUSH2 0x87B JUMP JUMPDEST PUSH1 0x2 PUSH1 0x7 SSTORE JUMP JUMPDEST PUSH2 0x16C2 DUP3 DUP3 PUSH1 0x40 MLOAD DUP1 PUSH1 0x20 ADD PUSH1 0x40 MSTORE DUP1 PUSH1 0x0 DUP2 MSTORE POP PUSH2 0x2A01 JUMP JUMPDEST PUSH1 0x0 DUP3 DUP2 MSTORE PUSH1 0x9 PUSH1 0x20 SWAP1 DUP2 MSTORE PUSH1 0x40 SWAP2 DUP3 SWAP1 KECCAK256 SLOAD DUP3 MLOAD DUP1 DUP5 ADD SWAP1 SWAP4 MSTORE PUSH1 0x3 DUP4 MSTORE PUSH3 0x19181B PUSH1 0xE9 SHL SWAP2 DUP4 ADD SWAP2 SWAP1 SWAP2 MSTORE PUSH1 0x1 PUSH1 0xA0 SHL SWAP1 DIV PUSH1 0xA0 SHL PUSH1 0x1 PUSH1 0x1 PUSH1 0xA0 SHL SUB NOT AND ISZERO PUSH2 0x1DEB JUMPI PUSH1 0x40 MLOAD PUSH3 0x461BCD PUSH1 0xE5 SHL DUP2 MSTORE PUSH1 0x4 ADD PUSH2 0x87B SWAP2 SWAP1 PUSH2 0x322F JUMP JUMPDEST POP PUSH1 0x40 DUP1 MLOAD DUP1 DUP3 ADD SWAP1 SWAP2 MSTORE PUSH1 0x3 DUP2 MSTORE PUSH3 0x323037 PUSH1 0xE8 SHL PUSH1 0x20 DUP3 ADD MSTORE DUP2 PUSH2 0x1E24 JUMPI PUSH1 0x40 MLOAD PUSH3 0x461BCD PUSH1 0xE5 SHL DUP2 MSTORE PUSH1 0x4 ADD PUSH2 0x87B SWAP2 SWAP1 PUSH2 0x322F JUMP JUMPDEST POP PUSH1 0x0 SWAP2 DUP3 MSTORE PUSH1 0x9 PUSH1 0x20 MSTORE PUSH1 0x40 SWAP1 SWAP2 KECCAK256 DUP1 SLOAD PUSH1 0xA0 SWAP3 SWAP1 SWAP3 SHR PUSH1 0x1 PUSH1 0xA0 SHL MUL PUSH1 0x1 PUSH1 0x1 PUSH1 0xA0 SHL SUB SWAP1 SWAP3 AND SWAP2 SWAP1 SWAP2 OR SWAP1 SSTORE JUMP JUMPDEST PUSH1 0x15 SLOAD DUP1 PUSH2 0x1E60 JUMPI POP JUMP JUMPDEST PUSH1 0x10 SLOAD PUSH1 0xB SLOAD PUSH1 0x40 DUP1 MLOAD DUP1 DUP3 ADD DUP3 MSTORE PUSH1 0x1B DUP2 MSTORE PUSH32 0x44454641554C545F524F59414C54595F46494E5F50455243454E540000000000 PUSH1 0x20 DUP3 ADD MSTORE SWAP1 MLOAD PUSH4 0x6D12DCE1 PUSH1 0xE0 SHL DUP2 MSTORE PUSH1 0x1 PUSH1 0x1 PUSH1 0xA0 SHL SUB SWAP4 DUP5 AND SWAP4 SWAP1 SWAP3 AND SWAP2 PUSH1 0x0 SWAP2 DUP4 SWAP2 PUSH4 0x6D12DCE1 SWAP2 PUSH2 0x1ECC SWAP2 PUSH1 0x4 ADD PUSH2 0x322F JUMP JUMPDEST PUSH1 0x20 PUSH1 0x40 MLOAD DUP1 DUP4 SUB DUP2 DUP7 GAS STATICCALL ISZERO DUP1 ISZERO PUSH2 0x1EE9 JUMPI RETURNDATASIZE PUSH1 0x0 DUP1 RETURNDATACOPY RETURNDATASIZE PUSH1 0x0 REVERT JUMPDEST POP POP POP POP PUSH1 0x40 MLOAD RETURNDATASIZE PUSH1 0x1F NOT PUSH1 0x1F DUP3 ADD AND DUP3 ADD DUP1 PUSH1 0x40 MSTORE POP DUP2 ADD SWAP1 PUSH2 0x1F0D SWAP2 SWAP1 PUSH2 0x38DD JUMP JUMPDEST PUSH1 0xA SLOAD PUSH1 0xB SLOAD SWAP2 SWAP3 POP PUSH1 0x1 PUSH1 0x1 PUSH1 0xA0 SHL SUB SWAP1 DUP2 AND SWAP2 AND ISZERO PUSH2 0x2079 JUMPI PUSH1 0x40 DUP1 MLOAD DUP1 DUP3 ADD DUP3 MSTORE PUSH1 0x15 DUP2 MSTORE PUSH21 0x4D494E545F4E46545F4F50455241544F525F464545 PUSH1 0x58 SHL PUSH1 0x20 DUP3 ADD MSTORE SWAP1 MLOAD PUSH4 0x6D12DCE1 PUSH1 0xE0 SHL DUP2 MSTORE PUSH1 0x1 PUSH1 0x1 PUSH1 0xA0 SHL SUB DUP6 AND SWAP2 PUSH4 0x6D12DCE1 SWAP2 PUSH2 0x1F7D SWAP2 SWAP1 PUSH1 0x4 ADD PUSH2 0x322F JUMP JUMPDEST PUSH1 0x20 PUSH1 0x40 MLOAD DUP1 DUP4 SUB DUP2 DUP7 GAS STATICCALL ISZERO DUP1 ISZERO PUSH2 0x1F9A JUMPI RETURNDATASIZE PUSH1 0x0 DUP1 RETURNDATACOPY RETURNDATASIZE PUSH1 0x0 REVERT JUMPDEST POP POP POP POP PUSH1 0x40 MLOAD RETURNDATASIZE PUSH1 0x1F NOT PUSH1 0x1F DUP3 ADD AND DUP3 ADD DUP1 PUSH1 0x40 MSTORE POP DUP2 ADD SWAP1 PUSH2 0x1FBE SWAP2 SWAP1 PUSH2 0x38DD JUMP JUMPDEST PUSH1 0x40 DUP1 MLOAD DUP1 DUP3 ADD DUP3 MSTORE PUSH1 0x1F DUP2 MSTORE PUSH32 0x4D494E545F4E46545F4F50455241544F525F54524541535552455F4144445200 PUSH1 0x20 DUP3 ADD MSTORE SWAP1 MLOAD PUSH4 0xBF40FAC1 PUSH1 0xE0 SHL DUP2 MSTORE SWAP2 SWAP4 POP PUSH1 0x0 SWAP2 PUSH1 0x1 PUSH1 0x1 PUSH1 0xA0 SHL SUB DUP7 AND SWAP2 PUSH4 0xBF40FAC1 SWAP2 PUSH2 0x2021 SWAP2 SWAP1 PUSH1 0x4 ADD PUSH2 0x322F JUMP JUMPDEST PUSH1 0x20 PUSH1 0x40 MLOAD DUP1 DUP4 SUB DUP2 DUP7 GAS STATICCALL ISZERO DUP1 ISZERO PUSH2 0x203E JUMPI RETURNDATASIZE PUSH1 0x0 DUP1 RETURNDATACOPY RETURNDATASIZE PUSH1 0x0 REVERT JUMPDEST POP POP POP POP PUSH1 0x40 MLOAD RETURNDATASIZE PUSH1 0x1F NOT PUSH1 0x1F DUP3 ADD AND DUP3 ADD DUP1 PUSH1 0x40 MSTORE POP DUP2 ADD SWAP1 PUSH2 0x2062 SWAP2 SWAP1 PUSH2 0x3A04 JUMP JUMPDEST SWAP1 POP PUSH1 0x1 PUSH1 0x1 PUSH1 0xA0 SHL SUB DUP2 AND ISZERO PUSH2 0x2077 JUMPI DUP1 SWAP2 POP JUMPDEST POP JUMPDEST PUSH1 0x16 SLOAD PUSH1 0x1 PUSH1 0x1 PUSH1 0xA0 SHL SUB AND DUP1 PUSH2 0x21F9 JUMPI DUP6 CALLVALUE LT ISZERO PUSH2 0x2097 JUMPI PUSH1 0x0 DUP1 REVERT JUMPDEST PUSH1 0x11 SLOAD PUSH1 0x40 MLOAD PUSH4 0x31A9108F PUSH1 0xE1 SHL DUP2 MSTORE PUSH1 0x0 SWAP2 PUSH1 0x1 PUSH1 0x1 PUSH1 0xA0 SHL SUB DUP9 AND SWAP2 PUSH4 0x6352211E SWAP2 PUSH2 0x20CB SWAP2 PUSH1 0x4 ADD SWAP1 DUP2 MSTORE PUSH1 0x20 ADD SWAP1 JUMP JUMPDEST PUSH1 0x20 PUSH1 0x40 MLOAD DUP1 DUP4 SUB DUP2 DUP7 GAS STATICCALL ISZERO DUP1 ISZERO PUSH2 0x20E8 JUMPI RETURNDATASIZE PUSH1 0x0 DUP1 RETURNDATACOPY RETURNDATASIZE PUSH1 0x0 REVERT JUMPDEST POP POP POP POP PUSH1 0x40 MLOAD RETURNDATASIZE PUSH1 0x1F NOT PUSH1 0x1F DUP3 ADD AND DUP3 ADD DUP1 PUSH1 0x40 MSTORE POP DUP2 ADD SWAP1 PUSH2 0x210C SWAP2 SWAP1 PUSH2 0x3A04 JUMP JUMPDEST PUSH1 0x1 PUSH1 0x1 PUSH1 0xA0 SHL SUB AND PUSH2 0x2710 PUSH2 0x2122 DUP7 DUP11 PUSH2 0x39CD JUMP JUMPDEST PUSH2 0x212C SWAP2 SWAP1 PUSH2 0x3A91 JUMP JUMPDEST PUSH2 0x2136 SWAP1 DUP10 PUSH2 0x3AB3 JUMP JUMPDEST PUSH1 0x40 MLOAD PUSH1 0x0 DUP2 DUP2 DUP2 DUP6 DUP8 GAS CALL SWAP3 POP POP POP RETURNDATASIZE DUP1 PUSH1 0x0 DUP2 EQ PUSH2 0x2172 JUMPI PUSH1 0x40 MLOAD SWAP2 POP PUSH1 0x1F NOT PUSH1 0x3F RETURNDATASIZE ADD AND DUP3 ADD PUSH1 0x40 MSTORE RETURNDATASIZE DUP3 MSTORE RETURNDATASIZE PUSH1 0x0 PUSH1 0x20 DUP5 ADD RETURNDATACOPY PUSH2 0x2177 JUMP JUMPDEST PUSH1 0x60 SWAP2 POP JUMPDEST POP POP SWAP1 POP DUP1 PUSH2 0x2185 JUMPI PUSH1 0x0 DUP1 REVERT JUMPDEST DUP4 ISZERO PUSH2 0x21F3 JUMPI PUSH1 0x1 PUSH1 0x1 PUSH1 0xA0 SHL SUB DUP4 AND PUSH2 0x2710 PUSH2 0x21A2 DUP7 DUP11 PUSH2 0x39CD JUMP JUMPDEST PUSH2 0x21AC SWAP2 SWAP1 PUSH2 0x3A91 JUMP JUMPDEST PUSH1 0x40 MLOAD PUSH1 0x0 DUP2 DUP2 DUP2 DUP6 DUP8 GAS CALL SWAP3 POP POP POP RETURNDATASIZE DUP1 PUSH1 0x0 DUP2 EQ PUSH2 0x21E8 JUMPI PUSH1 0x40 MLOAD SWAP2 POP PUSH1 0x1F NOT PUSH1 0x3F RETURNDATASIZE ADD AND DUP3 ADD PUSH1 0x40 MSTORE RETURNDATASIZE DUP3 MSTORE RETURNDATASIZE PUSH1 0x0 PUSH1 0x20 DUP5 ADD RETURNDATACOPY PUSH2 0x21ED JUMP JUMPDEST PUSH1 0x60 SWAP2 POP JUMPDEST POP SWAP1 SWAP2 POP POP JUMPDEST POP PUSH2 0x2432 JUMP JUMPDEST PUSH1 0x40 MLOAD PUSH4 0x23B872DD PUSH1 0xE0 SHL DUP2 MSTORE CALLER PUSH1 0x4 DUP3 ADD MSTORE ADDRESS PUSH1 0x24 DUP3 ADD MSTORE PUSH1 0x44 DUP2 ADD DUP8 SWAP1 MSTORE DUP2 SWAP1 PUSH1 0x1 PUSH1 0x1 PUSH1 0xA0 SHL SUB DUP3 AND SWAP1 PUSH4 0x23B872DD SWAP1 PUSH1 0x64 ADD PUSH1 0x20 PUSH1 0x40 MLOAD DUP1 DUP4 SUB DUP2 PUSH1 0x0 DUP8 GAS CALL ISZERO DUP1 ISZERO PUSH2 0x224E JUMPI RETURNDATASIZE PUSH1 0x0 DUP1 RETURNDATACOPY RETURNDATASIZE PUSH1 0x0 REVERT JUMPDEST POP POP POP POP PUSH1 0x40 MLOAD RETURNDATASIZE PUSH1 0x1F NOT PUSH1 0x1F DUP3 ADD AND DUP3 ADD DUP1 PUSH1 0x40 MSTORE POP DUP2 ADD SWAP1 PUSH2 0x2272 SWAP2 SWAP1 PUSH2 0x3ACA JUMP JUMPDEST PUSH2 0x227B JUMPI PUSH1 0x0 DUP1 REVERT JUMPDEST PUSH1 0x11 SLOAD PUSH1 0x40 MLOAD PUSH4 0x31A9108F PUSH1 0xE1 SHL DUP2 MSTORE PUSH1 0x4 DUP2 ADD SWAP2 SWAP1 SWAP2 MSTORE PUSH1 0x1 PUSH1 0x1 PUSH1 0xA0 SHL SUB DUP3 DUP2 AND SWAP2 PUSH4 0xA9059CBB SWAP2 DUP10 AND SWAP1 PUSH4 0x6352211E SWAP1 PUSH1 0x24 ADD PUSH1 0x20 PUSH1 0x40 MLOAD DUP1 DUP4 SUB DUP2 DUP7 GAS STATICCALL ISZERO DUP1 ISZERO PUSH2 0x22CE JUMPI RETURNDATASIZE PUSH1 0x0 DUP1 RETURNDATACOPY RETURNDATASIZE PUSH1 0x0 REVERT JUMPDEST POP POP POP POP PUSH1 0x40 MLOAD RETURNDATASIZE PUSH1 0x1F NOT PUSH1 0x1F DUP3 ADD AND DUP3 ADD DUP1 PUSH1 0x40 MSTORE POP DUP2 ADD SWAP1 PUSH2 0x22F2 SWAP2 SWAP1 PUSH2 0x3A04 JUMP JUMPDEST PUSH2 0x2710 PUSH2 0x22FF DUP9 DUP13 PUSH2 0x39CD JUMP JUMPDEST PUSH2 0x2309 SWAP2 SWAP1 PUSH2 0x3A91 JUMP JUMPDEST PUSH2 0x2313 SWAP1 DUP12 PUSH2 0x3AB3 JUMP JUMPDEST PUSH1 0x40 MLOAD PUSH1 0x1 PUSH1 0x1 PUSH1 0xE0 SHL SUB NOT PUSH1 0xE0 DUP6 SWAP1 SHL AND DUP2 MSTORE PUSH1 0x1 PUSH1 0x1 PUSH1 0xA0 SHL SUB SWAP1 SWAP3 AND PUSH1 0x4 DUP4 ADD MSTORE PUSH1 0x24 DUP3 ADD MSTORE PUSH1 0x44 ADD PUSH1 0x20 PUSH1 0x40 MLOAD DUP1 DUP4 SUB DUP2 PUSH1 0x0 DUP8 GAS CALL ISZERO DUP1 ISZERO PUSH2 0x235E JUMPI RETURNDATASIZE PUSH1 0x0 DUP1 RETURNDATACOPY RETURNDATASIZE PUSH1 0x0 REVERT JUMPDEST POP POP POP POP PUSH1 0x40 MLOAD RETURNDATASIZE PUSH1 0x1F NOT PUSH1 0x1F DUP3 ADD AND DUP3 ADD DUP1 PUSH1 0x40 MSTORE POP DUP2 ADD SWAP1 PUSH2 0x2382 SWAP2 SWAP1 PUSH2 0x3ACA JUMP JUMPDEST PUSH2 0x238B JUMPI PUSH1 0x0 DUP1 REVERT JUMPDEST DUP4 ISZERO PUSH2 0x2430 JUMPI PUSH1 0x1 PUSH1 0x1 PUSH1 0xA0 SHL SUB DUP2 AND PUSH4 0xA9059CBB DUP5 PUSH2 0x2710 PUSH2 0x23AE DUP9 DUP13 PUSH2 0x39CD JUMP JUMPDEST PUSH2 0x23B8 SWAP2 SWAP1 PUSH2 0x3A91 JUMP JUMPDEST PUSH1 0x40 MLOAD PUSH1 0x1 PUSH1 0x1 PUSH1 0xE0 SHL SUB NOT PUSH1 0xE0 DUP6 SWAP1 SHL AND DUP2 MSTORE PUSH1 0x1 PUSH1 0x1 PUSH1 0xA0 SHL SUB SWAP1 SWAP3 AND PUSH1 0x4 DUP4 ADD MSTORE PUSH1 0x24 DUP3 ADD MSTORE PUSH1 0x44 ADD PUSH1 0x20 PUSH1 0x40 MLOAD DUP1 DUP4 SUB DUP2 PUSH1 0x0 DUP8 GAS CALL ISZERO DUP1 ISZERO PUSH2 0x2403 JUMPI RETURNDATASIZE PUSH1 0x0 DUP1 RETURNDATACOPY RETURNDATASIZE PUSH1 0x0 REVERT JUMPDEST POP POP POP POP PUSH1 0x40 MLOAD RETURNDATASIZE PUSH1 0x1F NOT PUSH1 0x1F DUP3 ADD AND DUP3 ADD DUP1 PUSH1 0x40 MSTORE POP DUP2 ADD SWAP1 PUSH2 0x2427 SWAP2 SWAP1 PUSH2 0x3ACA JUMP JUMPDEST PUSH2 0x2430 JUMPI PUSH1 0x0 DUP1 REVERT JUMPDEST POP JUMPDEST POP POP POP POP POP POP JUMP JUMPDEST PUSH14 0xAAEB6D7670E522A718067333CD4E EXTCODESIZE ISZERO PUSH2 0xD3E JUMPI PUSH1 0x40 MLOAD PUSH4 0x3185C44D PUSH1 0xE2 SHL DUP2 MSTORE ADDRESS PUSH1 0x4 DUP3 ADD MSTORE PUSH1 0x1 PUSH1 0x1 PUSH1 0xA0 SHL SUB DUP3 AND PUSH1 0x24 DUP3 ADD MSTORE PUSH14 0xAAEB6D7670E522A718067333CD4E SWAP1 PUSH4 0xC6171134 SWAP1 PUSH1 0x44 ADD PUSH1 0x20 PUSH1 0x40 MLOAD DUP1 DUP4 SUB DUP2 DUP7 GAS STATICCALL ISZERO DUP1 ISZERO PUSH2 0x24A7 JUMPI RETURNDATASIZE PUSH1 0x0 DUP1 RETURNDATACOPY RETURNDATASIZE PUSH1 0x0 REVERT JUMPDEST POP POP POP POP PUSH1 0x40 MLOAD RETURNDATASIZE PUSH1 0x1F NOT PUSH1 0x1F DUP3 ADD AND DUP3 ADD DUP1 PUSH1 0x40 MSTORE POP DUP2 ADD SWAP1 PUSH2 0x24CB SWAP2 SWAP1 PUSH2 0x3ACA JUMP JUMPDEST PUSH2 0xD3E JUMPI PUSH1 0x40 MLOAD PUSH4 0x3B79C773 PUSH1 0xE2 SHL DUP2 MSTORE PUSH1 0x1 PUSH1 0x1 PUSH1 0xA0 SHL SUB DUP3 AND PUSH1 0x4 DUP3 ADD MSTORE PUSH1 0x24 ADD PUSH2 0x87B JUMP JUMPDEST PUSH2 0x24FD CALLER DUP3 PUSH2 0x2A34 JUMP JUMPDEST PUSH2 0x2519 JUMPI PUSH1 0x40 MLOAD PUSH3 0x461BCD PUSH1 0xE5 SHL DUP2 MSTORE PUSH1 0x4 ADD PUSH2 0x87B SWAP1 PUSH2 0x3AE7 JUMP JUMPDEST PUSH2 0x91C DUP4 DUP4 DUP4 PUSH2 0x2AB2 JUMP JUMPDEST PUSH1 0xA SLOAD PUSH1 0xF SLOAD PUSH1 0xB SLOAD PUSH1 0x1 PUSH1 0x1 PUSH1 0xA0 SHL SUB SWAP3 DUP4 AND SWAP3 PUSH1 0x0 SWAP3 SWAP2 AND ISZERO PUSH2 0x269D JUMPI PUSH1 0xB SLOAD PUSH1 0x40 DUP1 MLOAD DUP1 DUP3 ADD DUP3 MSTORE PUSH1 0x13 DUP2 MSTORE PUSH19 0x524F59414C54595F46494E5F41444452455353 PUSH1 0x68 SHL PUSH1 0x20 DUP3 ADD MSTORE SWAP1 MLOAD PUSH4 0xBF40FAC1 PUSH1 0xE0 SHL DUP2 MSTORE PUSH1 0x1 PUSH1 0x1 PUSH1 0xA0 SHL SUB SWAP1 SWAP3 AND SWAP2 PUSH1 0x0 SWAP2 DUP4 SWAP2 PUSH4 0xBF40FAC1 SWAP2 PUSH2 0x259E SWAP2 PUSH1 0x4 ADD PUSH2 0x322F JUMP JUMPDEST PUSH1 0x20 PUSH1 0x40 MLOAD DUP1 DUP4 SUB DUP2 DUP7 GAS STATICCALL ISZERO DUP1 ISZERO PUSH2 0x25BB JUMPI RETURNDATASIZE PUSH1 0x0 DUP1 RETURNDATACOPY RETURNDATASIZE PUSH1 0x0 REVERT JUMPDEST POP POP POP POP PUSH1 0x40 MLOAD RETURNDATASIZE PUSH1 0x1F NOT PUSH1 0x1F DUP3 ADD AND DUP3 ADD DUP1 PUSH1 0x40 MSTORE POP DUP2 ADD SWAP1 PUSH2 0x25DF SWAP2 SWAP1 PUSH2 0x3A04 JUMP JUMPDEST SWAP1 POP PUSH1 0x1 PUSH1 0x1 PUSH1 0xA0 SHL SUB DUP2 AND ISZERO PUSH2 0x25F4 JUMPI DUP1 SWAP5 POP JUMPDEST DUP3 PUSH2 0x269A JUMPI PUSH1 0x40 DUP1 MLOAD DUP1 DUP3 ADD DUP3 MSTORE PUSH1 0x1B DUP2 MSTORE PUSH32 0x44454641554C545F524F59414C54595F46494E5F50455243454E540000000000 PUSH1 0x20 DUP3 ADD MSTORE SWAP1 MLOAD PUSH4 0x6D12DCE1 PUSH1 0xE0 SHL DUP2 MSTORE PUSH1 0x1 PUSH1 0x1 PUSH1 0xA0 SHL SUB DUP5 AND SWAP2 PUSH4 0x6D12DCE1 SWAP2 PUSH2 0x2656 SWAP2 SWAP1 PUSH1 0x4 ADD PUSH2 0x322F JUMP JUMPDEST PUSH1 0x20 PUSH1 0x40 MLOAD DUP1 DUP4 SUB DUP2 DUP7 GAS STATICCALL ISZERO DUP1 ISZERO PUSH2 0x2673 JUMPI RETURNDATASIZE PUSH1 0x0 DUP1 RETURNDATACOPY RETURNDATASIZE PUSH1 0x0 REVERT JUMPDEST POP POP POP POP PUSH1 0x40 MLOAD RETURNDATASIZE PUSH1 0x1F NOT PUSH1 0x1F DUP3 ADD AND DUP3 ADD DUP1 PUSH1 0x40 MSTORE POP DUP2 ADD SWAP1 PUSH2 0x2697 SWAP2 SWAP1 PUSH2 0x38DD JUMP JUMPDEST SWAP3 POP JUMPDEST POP POP JUMPDEST PUSH2 0x2710 PUSH2 0x26AA DUP3 DUP7 PUSH2 0x39CD JUMP JUMPDEST PUSH2 0x26B4 SWAP2 SWAP1 PUSH2 0x3A91 JUMP JUMPDEST SWAP2 POP POP SWAP3 POP SWAP3 SWAP1 POP JUMP JUMPDEST PUSH2 0x91C DUP4 DUP4 DUP4 PUSH1 0x40 MLOAD DUP1 PUSH1 0x20 ADD PUSH1 0x40 MSTORE DUP1 PUSH1 0x0 DUP2 MSTORE POP PUSH2 0x16C6 JUMP JUMPDEST DUP1 ISZERO PUSH2 0x26E7 JUMPI PUSH2 0xD3E PUSH2 0x2AEC JUMP JUMPDEST PUSH2 0xD3E PUSH2 0x29A7 JUMP JUMPDEST CALLER PUSH2 0x2702 PUSH1 0xA SLOAD PUSH1 0x1 PUSH1 0x1 PUSH1 0xA0 SHL SUB AND SWAP1 JUMP JUMPDEST PUSH1 0x1 PUSH1 0x1 PUSH1 0xA0 SHL SUB AND EQ DUP1 PUSH2 0x2721 JUMPI POP PUSH1 0x10 SLOAD PUSH1 0x1 PUSH1 0x1 PUSH1 0xA0 SHL SUB AND CALLER EQ JUMPDEST PUSH2 0x13E2 JUMPI PUSH1 0x40 MLOAD PUSH3 0x461BCD PUSH1 0xE5 SHL DUP2 MSTORE PUSH1 0x20 PUSH1 0x4 DUP3 ADD DUP2 SWAP1 MSTORE PUSH1 0x24 DUP3 ADD MSTORE PUSH32 0x4F776E61626C653A2063616C6C6572206973206E6F7420746865206F776E6572 PUSH1 0x44 DUP3 ADD MSTORE PUSH1 0x64 ADD PUSH2 0x87B JUMP JUMPDEST PUSH1 0x8 DUP1 SLOAD PUSH1 0x1 PUSH1 0x1 PUSH1 0xA0 SHL SUB DUP4 DUP2 AND PUSH1 0x1 PUSH1 0x1 PUSH1 0xA0 SHL SUB NOT DUP4 AND DUP2 OR SWAP1 SWAP4 SSTORE PUSH1 0x40 MLOAD SWAP2 AND SWAP2 SWAP1 DUP3 SWAP1 PUSH32 0x8BE0079C531659141344CD1FD0A4F28419497F9722A3DAAFE3B4186F6B6457E0 SWAP1 PUSH1 0x0 SWAP1 LOG3 POP POP JUMP JUMPDEST PUSH1 0x60 PUSH1 0x0 PUSH2 0x27CD DUP6 DUP6 PUSH2 0x3AB3 JUMP JUMPDEST PUSH2 0x27D8 SWAP1 PUSH1 0x1 PUSH2 0x39EC JUMP JUMPDEST PUSH8 0xFFFFFFFFFFFFFFFF DUP2 GT ISZERO PUSH2 0x27F0 JUMPI PUSH2 0x27F0 PUSH2 0x3458 JUMP JUMPDEST PUSH1 0x40 MLOAD SWAP1 DUP1 DUP3 MSTORE DUP1 PUSH1 0x1F ADD PUSH1 0x1F NOT AND PUSH1 0x20 ADD DUP3 ADD PUSH1 0x40 MSTORE DUP1 ISZERO PUSH2 0x281A JUMPI PUSH1 0x20 DUP3 ADD DUP2 DUP1 CALLDATASIZE DUP4 CALLDATACOPY ADD SWAP1 POP JUMPDEST POP SWAP1 POP PUSH1 0x0 JUMPDEST PUSH2 0x282A DUP7 DUP7 PUSH2 0x3AB3 JUMP JUMPDEST DUP2 GT PUSH2 0x289D JUMPI DUP4 PUSH1 0x1 PUSH2 0x283D DUP9 DUP5 PUSH2 0x39EC JUMP JUMPDEST PUSH2 0x2847 SWAP2 SWAP1 PUSH2 0x3AB3 JUMP JUMPDEST DUP2 MLOAD DUP2 LT PUSH2 0x2857 JUMPI PUSH2 0x2857 PUSH2 0x3A60 JUMP JUMPDEST PUSH1 0x20 ADD ADD MLOAD PUSH1 0xF8 SHR PUSH1 0xF8 SHL DUP3 DUP3 DUP2 MLOAD DUP2 LT PUSH2 0x2874 JUMPI PUSH2 0x2874 PUSH2 0x3A60 JUMP JUMPDEST PUSH1 0x20 ADD ADD SWAP1 PUSH1 0x1 PUSH1 0x1 PUSH1 0xF8 SHL SUB NOT AND SWAP1 DUP2 PUSH1 0x0 BYTE SWAP1 MSTORE8 POP DUP1 PUSH2 0x2895 DUP2 PUSH2 0x3A76 JUMP JUMPDEST SWAP2 POP POP PUSH2 0x2820 JUMP JUMPDEST POP SWAP5 SWAP4 POP POP POP POP JUMP JUMPDEST DUP2 PUSH1 0x1 PUSH1 0x1 PUSH1 0xA0 SHL SUB AND DUP4 PUSH1 0x1 PUSH1 0x1 PUSH1 0xA0 SHL SUB AND EQ ISZERO PUSH2 0x2908 JUMPI PUSH1 0x40 MLOAD PUSH3 0x461BCD PUSH1 0xE5 SHL DUP2 MSTORE PUSH1 0x20 PUSH1 0x4 DUP3 ADD MSTORE PUSH1 0x19 PUSH1 0x24 DUP3 ADD MSTORE PUSH32 0x4552433732313A20617070726F766520746F2063616C6C657200000000000000 PUSH1 0x44 DUP3 ADD MSTORE PUSH1 0x64 ADD PUSH2 0x87B JUMP JUMPDEST PUSH1 0x1 PUSH1 0x1 PUSH1 0xA0 SHL SUB DUP4 DUP2 AND PUSH1 0x0 DUP2 DUP2 MSTORE PUSH1 0x5 PUSH1 0x20 SWAP1 DUP2 MSTORE PUSH1 0x40 DUP1 DUP4 KECCAK256 SWAP5 DUP8 AND DUP1 DUP5 MSTORE SWAP5 DUP3 MSTORE SWAP2 DUP3 SWAP1 KECCAK256 DUP1 SLOAD PUSH1 0xFF NOT AND DUP7 ISZERO ISZERO SWAP1 DUP2 OR SWAP1 SWAP2 SSTORE SWAP2 MLOAD SWAP2 DUP3 MSTORE PUSH32 0x17307EAB39AB6107E8899845AD3D59BD9653F200F220920489CA2B5937696C31 SWAP2 ADD PUSH1 0x40 MLOAD DUP1 SWAP2 SUB SWAP1 LOG3 POP POP POP JUMP JUMPDEST PUSH2 0x297F CALLER DUP4 PUSH2 0x2A34 JUMP JUMPDEST PUSH2 0x299B JUMPI PUSH1 0x40 MLOAD PUSH3 0x461BCD PUSH1 0xE5 SHL DUP2 MSTORE PUSH1 0x4 ADD PUSH2 0x87B SWAP1 PUSH2 0x3AE7 JUMP JUMPDEST PUSH2 0x10A0 DUP5 DUP5 DUP5 DUP5 PUSH2 0x2B25 JUMP JUMPDEST PUSH2 0x29AF PUSH2 0x2B58 JUMP JUMPDEST PUSH1 0x6 DUP1 SLOAD PUSH1 0xFF NOT AND PUSH1 0x1 OR SWAP1 SSTORE PUSH32 0x62E78CEA01BEE320CD4E420270B5EA74000D11B0C9F74754EBDBFC544B05A258 PUSH2 0x29E4 CALLER SWAP1 JUMP JUMPDEST PUSH1 0x40 MLOAD PUSH1 0x1 PUSH1 0x1 PUSH1 0xA0 SHL SUB SWAP1 SWAP2 AND DUP2 MSTORE PUSH1 0x20 ADD PUSH1 0x40 MLOAD DUP1 SWAP2 SUB SWAP1 LOG1 JUMP JUMPDEST PUSH2 0x2A0B DUP4 DUP4 PUSH2 0x2B9E JUMP JUMPDEST PUSH2 0x2A18 PUSH1 0x0 DUP5 DUP5 DUP5 PUSH2 0x2BD6 JUMP JUMPDEST PUSH2 0x91C JUMPI PUSH1 0x40 MLOAD PUSH3 0x461BCD PUSH1 0xE5 SHL DUP2 MSTORE PUSH1 0x4 ADD PUSH2 0x87B SWAP1 PUSH2 0x3B34 JUMP JUMPDEST PUSH1 0x0 DUP1 PUSH2 0x2A40 DUP4 PUSH2 0x1C2D JUMP JUMPDEST SWAP1 POP DUP1 PUSH1 0x1 PUSH1 0x1 PUSH1 0xA0 SHL SUB AND DUP5 PUSH1 0x1 PUSH1 0x1 PUSH1 0xA0 SHL SUB AND EQ DUP1 PUSH2 0x2A87 JUMPI POP PUSH1 0x1 PUSH1 0x1 PUSH1 0xA0 SHL SUB DUP1 DUP3 AND PUSH1 0x0 SWAP1 DUP2 MSTORE PUSH1 0x5 PUSH1 0x20 SWAP1 DUP2 MSTORE PUSH1 0x40 DUP1 DUP4 KECCAK256 SWAP4 DUP9 AND DUP4 MSTORE SWAP3 SWAP1 MSTORE KECCAK256 SLOAD PUSH1 0xFF AND JUMPDEST DUP1 PUSH2 0xA5C JUMPI POP DUP4 PUSH1 0x1 PUSH1 0x1 PUSH1 0xA0 SHL SUB AND PUSH2 0x2AA0 DUP5 PUSH2 0x7DF JUMP JUMPDEST PUSH1 0x1 PUSH1 0x1 PUSH1 0xA0 SHL SUB AND EQ SWAP5 SWAP4 POP POP POP POP JUMP JUMPDEST PUSH2 0x2ABD DUP4 DUP4 DUP4 PUSH2 0x2CD4 JUMP JUMPDEST PUSH1 0x0 SWAP1 DUP2 MSTORE PUSH1 0x9 PUSH1 0x20 MSTORE PUSH1 0x40 SWAP1 KECCAK256 DUP1 SLOAD PUSH1 0x1 PUSH1 0x1 PUSH1 0xA0 SHL SUB NOT AND PUSH1 0x1 PUSH1 0x1 PUSH1 0xA0 SHL SUB SWAP3 SWAP1 SWAP3 AND SWAP2 SWAP1 SWAP2 OR SWAP1 SSTORE POP JUMP JUMPDEST PUSH2 0x2AF4 PUSH2 0x2E45 JUMP JUMPDEST PUSH1 0x6 DUP1 SLOAD PUSH1 0xFF NOT AND SWAP1 SSTORE PUSH32 0x5DB9EE0A495BF2E6FF9C91A7834C1BA4FDD244A5E8AA4E537BD38AEAE4B073AA CALLER PUSH2 0x29E4 JUMP JUMPDEST PUSH2 0x2B30 DUP5 DUP5 DUP5 PUSH2 0x2AB2 JUMP JUMPDEST PUSH2 0x2B3C DUP5 DUP5 DUP5 DUP5 PUSH2 0x2BD6 JUMP JUMPDEST PUSH2 0x10A0 JUMPI PUSH1 0x40 MLOAD PUSH3 0x461BCD PUSH1 0xE5 SHL DUP2 MSTORE PUSH1 0x4 ADD PUSH2 0x87B SWAP1 PUSH2 0x3B34 JUMP JUMPDEST PUSH1 0x6 SLOAD PUSH1 0xFF AND ISZERO PUSH2 0x13E2 JUMPI PUSH1 0x40 MLOAD PUSH3 0x461BCD PUSH1 0xE5 SHL DUP2 MSTORE PUSH1 0x20 PUSH1 0x4 DUP3 ADD MSTORE PUSH1 0x10 PUSH1 0x24 DUP3 ADD MSTORE PUSH16 0x14185D5CD8589B194E881C185D5CD959 PUSH1 0x82 SHL PUSH1 0x44 DUP3 ADD MSTORE PUSH1 0x64 ADD PUSH2 0x87B JUMP JUMPDEST PUSH2 0x2BA8 DUP3 DUP3 PUSH2 0x2E8E JUMP JUMPDEST PUSH1 0x0 SWAP1 DUP2 MSTORE PUSH1 0x9 PUSH1 0x20 MSTORE PUSH1 0x40 SWAP1 KECCAK256 DUP1 SLOAD PUSH1 0x1 PUSH1 0x1 PUSH1 0xA0 SHL SUB NOT AND PUSH1 0x1 PUSH1 0x1 PUSH1 0xA0 SHL SUB SWAP3 SWAP1 SWAP3 AND SWAP2 SWAP1 SWAP2 OR SWAP1 SSTORE JUMP JUMPDEST PUSH1 0x0 PUSH1 0x1 PUSH1 0x1 PUSH1 0xA0 SHL SUB DUP5 AND EXTCODESIZE ISZERO PUSH2 0x2CC9 JUMPI PUSH1 0x40 MLOAD PUSH4 0xA85BD01 PUSH1 0xE1 SHL DUP2 MSTORE PUSH1 0x1 PUSH1 0x1 PUSH1 0xA0 SHL SUB DUP6 AND SWAP1 PUSH4 0x150B7A02 SWAP1 PUSH2 0x2C1A SWAP1 CALLER SWAP1 DUP10 SWAP1 DUP9 SWAP1 DUP9 SWAP1 PUSH1 0x4 ADD PUSH2 0x3B86 JUMP JUMPDEST PUSH1 0x20 PUSH1 0x40 MLOAD DUP1 DUP4 SUB DUP2 PUSH1 0x0 DUP8 GAS CALL SWAP3 POP POP POP DUP1 ISZERO PUSH2 0x2C55 JUMPI POP PUSH1 0x40 DUP1 MLOAD PUSH1 0x1F RETURNDATASIZE SWAP1 DUP2 ADD PUSH1 0x1F NOT AND DUP3 ADD SWAP1 SWAP3 MSTORE PUSH2 0x2C52 SWAP2 DUP2 ADD SWAP1 PUSH2 0x3BC3 JUMP JUMPDEST PUSH1 0x1 JUMPDEST PUSH2 0x2CAF JUMPI RETURNDATASIZE DUP1 DUP1 ISZERO PUSH2 0x2C83 JUMPI PUSH1 0x40 MLOAD SWAP2 POP PUSH1 0x1F NOT PUSH1 0x3F RETURNDATASIZE ADD AND DUP3 ADD PUSH1 0x40 MSTORE RETURNDATASIZE DUP3 MSTORE RETURNDATASIZE PUSH1 0x0 PUSH1 0x20 DUP5 ADD RETURNDATACOPY PUSH2 0x2C88 JUMP JUMPDEST PUSH1 0x60 SWAP2 POP JUMPDEST POP DUP1 MLOAD PUSH2 0x2CA7 JUMPI PUSH1 0x40 MLOAD PUSH3 0x461BCD PUSH1 0xE5 SHL DUP2 MSTORE PUSH1 0x4 ADD PUSH2 0x87B SWAP1 PUSH2 0x3B34 JUMP JUMPDEST DUP1 MLOAD DUP2 PUSH1 0x20 ADD REVERT JUMPDEST PUSH1 0x1 PUSH1 0x1 PUSH1 0xE0 SHL SUB NOT AND PUSH4 0xA85BD01 PUSH1 0xE1 SHL EQ SWAP1 POP PUSH2 0xA5C JUMP JUMPDEST POP PUSH1 0x1 SWAP5 SWAP4 POP POP POP POP JUMP JUMPDEST DUP3 PUSH1 0x1 PUSH1 0x1 PUSH1 0xA0 SHL SUB AND PUSH2 0x2CE7 DUP3 PUSH2 0x1C2D JUMP JUMPDEST PUSH1 0x1 PUSH1 0x1 PUSH1 0xA0 SHL SUB AND EQ PUSH2 0x2D0D JUMPI PUSH1 0x40 MLOAD PUSH3 0x461BCD PUSH1 0xE5 SHL DUP2 MSTORE PUSH1 0x4 ADD PUSH2 0x87B SWAP1 PUSH2 0x3BE0 JUMP JUMPDEST PUSH1 0x1 PUSH1 0x1 PUSH1 0xA0 SHL SUB DUP3 AND PUSH2 0x2D6F JUMPI PUSH1 0x40 MLOAD PUSH3 0x461BCD PUSH1 0xE5 SHL DUP2 MSTORE PUSH1 0x20 PUSH1 0x4 DUP3 ADD MSTORE PUSH1 0x24 DUP1 DUP3 ADD MSTORE PUSH32 0x4552433732313A207472616E7366657220746F20746865207A65726F20616464 PUSH1 0x44 DUP3 ADD MSTORE PUSH4 0x72657373 PUSH1 0xE0 SHL PUSH1 0x64 DUP3 ADD MSTORE PUSH1 0x84 ADD PUSH2 0x87B JUMP JUMPDEST PUSH2 0x2D7C DUP4 DUP4 DUP4 PUSH1 0x1 PUSH2 0x3009 JUMP JUMPDEST DUP3 PUSH1 0x1 PUSH1 0x1 PUSH1 0xA0 SHL SUB AND PUSH2 0x2D8F DUP3 PUSH2 0x1C2D JUMP JUMPDEST PUSH1 0x1 PUSH1 0x1 PUSH1 0xA0 SHL SUB AND EQ PUSH2 0x2DB5 JUMPI PUSH1 0x40 MLOAD PUSH3 0x461BCD PUSH1 0xE5 SHL DUP2 MSTORE PUSH1 0x4 ADD PUSH2 0x87B SWAP1 PUSH2 0x3BE0 JUMP JUMPDEST PUSH1 0x0 DUP2 DUP2 MSTORE PUSH1 0x4 PUSH1 0x20 SWAP1 DUP2 MSTORE PUSH1 0x40 DUP1 DUP4 KECCAK256 DUP1 SLOAD PUSH1 0x1 PUSH1 0x1 PUSH1 0xA0 SHL SUB NOT SWAP1 DUP2 AND SWAP1 SWAP2 SSTORE PUSH1 0x1 PUSH1 0x1 PUSH1 0xA0 SHL SUB DUP8 DUP2 AND DUP1 DUP7 MSTORE PUSH1 0x3 DUP6 MSTORE DUP4 DUP7 KECCAK256 DUP1 SLOAD PUSH1 0x0 NOT ADD SWAP1 SSTORE SWAP1 DUP8 AND DUP1 DUP7 MSTORE DUP4 DUP7 KECCAK256 DUP1 SLOAD PUSH1 0x1 ADD SWAP1 SSTORE DUP7 DUP7 MSTORE PUSH1 0x2 SWAP1 SWAP5 MSTORE DUP3 DUP6 KECCAK256 DUP1 SLOAD SWAP1 SWAP3 AND DUP5 OR SWAP1 SWAP2 SSTORE SWAP1 MLOAD DUP5 SWAP4 PUSH32 0xDDF252AD1BE2C89B69C2B068FC378DAA952BA7F163C4A11628F55A4DF523B3EF SWAP2 LOG4 POP POP POP JUMP JUMPDEST PUSH1 0x6 SLOAD PUSH1 0xFF AND PUSH2 0x13E2 JUMPI PUSH1 0x40 MLOAD PUSH3 0x461BCD PUSH1 0xE5 SHL DUP2 MSTORE PUSH1 0x20 PUSH1 0x4 DUP3 ADD MSTORE PUSH1 0x14 PUSH1 0x24 DUP3 ADD MSTORE PUSH20 0x14185D5CD8589B194E881B9BDD081C185D5CD959 PUSH1 0x62 SHL PUSH1 0x44 DUP3 ADD MSTORE PUSH1 0x64 ADD PUSH2 0x87B JUMP JUMPDEST PUSH1 0x1 PUSH1 0x1 PUSH1 0xA0 SHL SUB DUP3 AND PUSH2 0x2EE4 JUMPI PUSH1 0x40 MLOAD PUSH3 0x461BCD PUSH1 0xE5 SHL DUP2 MSTORE PUSH1 0x20 PUSH1 0x4 DUP3 ADD DUP2 SWAP1 MSTORE PUSH1 0x24 DUP3 ADD MSTORE PUSH32 0x4552433732313A206D696E7420746F20746865207A65726F2061646472657373 PUSH1 0x44 DUP3 ADD MSTORE PUSH1 0x64 ADD PUSH2 0x87B JUMP JUMPDEST PUSH2 0x2EED DUP2 PUSH2 0x1CFB JUMP JUMPDEST ISZERO PUSH2 0x2F3A JUMPI PUSH1 0x40 MLOAD PUSH3 0x461BCD PUSH1 0xE5 SHL DUP2 MSTORE PUSH1 0x20 PUSH1 0x4 DUP3 ADD MSTORE PUSH1 0x1C PUSH1 0x24 DUP3 ADD MSTORE PUSH32 0x4552433732313A20746F6B656E20616C7265616479206D696E74656400000000 PUSH1 0x44 DUP3 ADD MSTORE PUSH1 0x64 ADD PUSH2 0x87B JUMP JUMPDEST PUSH2 0x2F48 PUSH1 0x0 DUP4 DUP4 PUSH1 0x1 PUSH2 0x3009 JUMP JUMPDEST PUSH2 0x2F51 DUP2 PUSH2 0x1CFB JUMP JUMPDEST ISZERO PUSH2 0x2F9E JUMPI PUSH1 0x40 MLOAD PUSH3 0x461BCD PUSH1 0xE5 SHL DUP2 MSTORE PUSH1 0x20 PUSH1 0x4 DUP3 ADD MSTORE PUSH1 0x1C PUSH1 0x24 DUP3 ADD MSTORE PUSH32 0x4552433732313A20746F6B656E20616C7265616479206D696E74656400000000 PUSH1 0x44 DUP3 ADD MSTORE PUSH1 0x64 ADD PUSH2 0x87B JUMP JUMPDEST PUSH1 0x1 PUSH1 0x1 PUSH1 0xA0 SHL SUB DUP3 AND PUSH1 0x0 DUP2 DUP2 MSTORE PUSH1 0x3 PUSH1 0x20 SWAP1 DUP2 MSTORE PUSH1 0x40 DUP1 DUP4 KECCAK256 DUP1 SLOAD PUSH1 0x1 ADD SWAP1 SSTORE DUP5 DUP4 MSTORE PUSH1 0x2 SWAP1 SWAP2 MSTORE DUP1 DUP3 KECCAK256 DUP1 SLOAD PUSH1 0x1 PUSH1 0x1 PUSH1 0xA0 SHL SUB NOT AND DUP5 OR SWAP1 SSTORE MLOAD DUP4 SWAP3 SWAP2 SWAP1 PUSH32 0xDDF252AD1BE2C89B69C2B068FC378DAA952BA7F163C4A11628F55A4DF523B3EF SWAP1 DUP3 SWAP1 LOG4 POP POP JUMP JUMPDEST PUSH2 0x3015 DUP5 DUP5 DUP5 DUP5 PUSH2 0x307C JUMP JUMPDEST PUSH1 0x6 SLOAD PUSH1 0xFF AND ISZERO PUSH2 0x10A0 JUMPI PUSH1 0x40 MLOAD PUSH3 0x461BCD PUSH1 0xE5 SHL DUP2 MSTORE PUSH1 0x20 PUSH1 0x4 DUP3 ADD MSTORE PUSH1 0x2B PUSH1 0x24 DUP3 ADD MSTORE PUSH32 0x4552433732315061757361626C653A20746F6B656E207472616E736665722077 PUSH1 0x44 DUP3 ADD MSTORE PUSH11 0x1A1A5B19481C185D5CD959 PUSH1 0xAA SHL PUSH1 0x64 DUP3 ADD MSTORE PUSH1 0x84 ADD PUSH2 0x87B JUMP JUMPDEST PUSH1 0x1 DUP2 GT ISZERO PUSH2 0x10A0 JUMPI PUSH1 0x1 PUSH1 0x1 PUSH1 0xA0 SHL SUB DUP5 AND ISZERO PUSH2 0x30C2 JUMPI PUSH1 0x1 PUSH1 0x1 PUSH1 0xA0 SHL SUB DUP5 AND PUSH1 0x0 SWAP1 DUP2 MSTORE PUSH1 0x3 PUSH1 0x20 MSTORE PUSH1 0x40 DUP2 KECCAK256 DUP1 SLOAD DUP4 SWAP3 SWAP1 PUSH2 0x30BC SWAP1 DUP5 SWAP1 PUSH2 0x3AB3 JUMP JUMPDEST SWAP1 SWAP2 SSTORE POP POP JUMPDEST PUSH1 0x1 PUSH1 0x1 PUSH1 0xA0 SHL SUB DUP4 AND ISZERO PUSH2 0x10A0 JUMPI PUSH1 0x1 PUSH1 0x1 PUSH1 0xA0 SHL SUB DUP4 AND PUSH1 0x0 SWAP1 DUP2 MSTORE PUSH1 0x3 PUSH1 0x20 MSTORE PUSH1 0x40 DUP2 KECCAK256 DUP1 SLOAD DUP4 SWAP3 SWAP1 PUSH2 0x30F9 SWAP1 DUP5 SWAP1 PUSH2 0x39EC JUMP JUMPDEST SWAP1 SWAP2 SSTORE POP POP POP POP POP POP JUMP JUMPDEST DUP3 DUP1 SLOAD PUSH2 0x3110 SWAP1 PUSH2 0x38A2 JUMP JUMPDEST SWAP1 PUSH1 0x0 MSTORE PUSH1 0x20 PUSH1 0x0 KECCAK256 SWAP1 PUSH1 0x1F ADD PUSH1 0x20 SWAP1 DIV DUP2 ADD SWAP3 DUP3 PUSH2 0x3132 JUMPI PUSH1 0x0 DUP6 SSTORE PUSH2 0x3178 JUMP JUMPDEST DUP3 PUSH1 0x1F LT PUSH2 0x314B JUMPI DUP1 MLOAD PUSH1 0xFF NOT AND DUP4 DUP1 ADD OR DUP6 SSTORE PUSH2 0x3178 JUMP JUMPDEST DUP3 DUP1 ADD PUSH1 0x1 ADD DUP6 SSTORE DUP3 ISZERO PUSH2 0x3178 JUMPI SWAP2 DUP3 ADD JUMPDEST DUP3 DUP2 GT ISZERO PUSH2 0x3178 JUMPI DUP3 MLOAD DUP3 SSTORE SWAP2 PUSH1 0x20 ADD SWAP2 SWAP1 PUSH1 0x1 ADD SWAP1 PUSH2 0x315D JUMP JUMPDEST POP PUSH2 0x3184 SWAP3 SWAP2 POP PUSH2 0x3188 JUMP JUMPDEST POP SWAP1 JUMP JUMPDEST JUMPDEST DUP1 DUP3 GT ISZERO PUSH2 0x3184 JUMPI PUSH1 0x0 DUP2 SSTORE PUSH1 0x1 ADD PUSH2 0x3189 JUMP JUMPDEST PUSH1 0x1 PUSH1 0x1 PUSH1 0xE0 SHL SUB NOT DUP2 AND DUP2 EQ PUSH2 0xD3E JUMPI PUSH1 0x0 DUP1 REVERT JUMPDEST PUSH1 0x0 PUSH1 0x20 DUP3 DUP5 SUB SLT ISZERO PUSH2 0x31C5 JUMPI PUSH1 0x0 DUP1 REVERT JUMPDEST DUP2 CALLDATALOAD PUSH2 0x31D0 DUP2 PUSH2 0x319D JUMP JUMPDEST SWAP4 SWAP3 POP POP POP JUMP JUMPDEST PUSH1 0x0 JUMPDEST DUP4 DUP2 LT ISZERO PUSH2 0x31F2 JUMPI DUP2 DUP2 ADD MLOAD DUP4 DUP3 ADD MSTORE PUSH1 0x20 ADD PUSH2 0x31DA JUMP JUMPDEST DUP4 DUP2 GT ISZERO PUSH2 0x10A0 JUMPI POP POP PUSH1 0x0 SWAP2 ADD MSTORE JUMP JUMPDEST PUSH1 0x0 DUP2 MLOAD DUP1 DUP5 MSTORE PUSH2 0x321B DUP2 PUSH1 0x20 DUP7 ADD PUSH1 0x20 DUP7 ADD PUSH2 0x31D7 JUMP JUMPDEST PUSH1 0x1F ADD PUSH1 0x1F NOT AND SWAP3 SWAP1 SWAP3 ADD PUSH1 0x20 ADD SWAP3 SWAP2 POP POP JUMP JUMPDEST PUSH1 0x20 DUP2 MSTORE PUSH1 0x0 PUSH2 0x31D0 PUSH1 0x20 DUP4 ADD DUP5 PUSH2 0x3203 JUMP JUMPDEST PUSH1 0x0 PUSH1 0x20 DUP3 DUP5 SUB SLT ISZERO PUSH2 0x3254 JUMPI PUSH1 0x0 DUP1 REVERT JUMPDEST POP CALLDATALOAD SWAP2 SWAP1 POP JUMP JUMPDEST PUSH1 0x1 PUSH1 0x1 PUSH1 0xA0 SHL SUB DUP2 AND DUP2 EQ PUSH2 0xD3E JUMPI PUSH1 0x0 DUP1 REVERT JUMPDEST DUP1 CALLDATALOAD PUSH2 0x327B DUP2 PUSH2 0x325B JUMP JUMPDEST SWAP2 SWAP1 POP JUMP JUMPDEST PUSH1 0x0 DUP1 PUSH1 0x40 DUP4 DUP6 SUB SLT ISZERO PUSH2 0x3293 JUMPI PUSH1 0x0 DUP1 REVERT JUMPDEST DUP3 CALLDATALOAD PUSH2 0x329E DUP2 PUSH2 0x325B JUMP JUMPDEST SWAP5 PUSH1 0x20 SWAP4 SWAP1 SWAP4 ADD CALLDATALOAD SWAP4 POP POP POP JUMP JUMPDEST PUSH1 0x0 PUSH1 0x20 DUP3 DUP5 SUB SLT ISZERO PUSH2 0x32BE JUMPI PUSH1 0x0 DUP1 REVERT JUMPDEST DUP2 CALLDATALOAD PUSH2 0x31D0 DUP2 PUSH2 0x325B JUMP JUMPDEST PUSH1 0x0 DUP1 PUSH1 0x0 PUSH1 0x60 DUP5 DUP7 SUB SLT ISZERO PUSH2 0x32DE JUMPI PUSH1 0x0 DUP1 REVERT JUMPDEST DUP4 CALLDATALOAD PUSH2 0x32E9 DUP2 PUSH2 0x325B JUMP JUMPDEST SWAP3 POP PUSH1 0x20 DUP5 ADD CALLDATALOAD PUSH2 0x32F9 DUP2 PUSH2 0x325B JUMP JUMPDEST SWAP3 SWAP6 SWAP3 SWAP5 POP POP POP PUSH1 0x40 SWAP2 SWAP1 SWAP2 ADD CALLDATALOAD SWAP1 JUMP JUMPDEST PUSH1 0x0 DUP1 PUSH1 0x40 DUP4 DUP6 SUB SLT ISZERO PUSH2 0x331D JUMPI PUSH1 0x0 DUP1 REVERT JUMPDEST POP POP DUP1 CALLDATALOAD SWAP3 PUSH1 0x20 SWAP1 SWAP2 ADD CALLDATALOAD SWAP2 POP JUMP JUMPDEST DUP1 ISZERO ISZERO DUP2 EQ PUSH2 0xD3E JUMPI PUSH1 0x0 DUP1 REVERT JUMPDEST DUP1 CALLDATALOAD PUSH2 0x327B DUP2 PUSH2 0x332C JUMP JUMPDEST PUSH1 0x0 PUSH1 0x20 DUP3 DUP5 SUB SLT ISZERO PUSH2 0x3357 JUMPI PUSH1 0x0 DUP1 REVERT JUMPDEST DUP2 CALLDATALOAD PUSH2 0x31D0 DUP2 PUSH2 0x332C JUMP JUMPDEST PUSH1 0x1 PUSH1 0x1 PUSH1 0xA0 SHL SUB DUP14 AND DUP2 MSTORE PUSH1 0x20 DUP2 ADD DUP13 SWAP1 MSTORE PUSH3 0xFFFFFF DUP12 DUP2 AND PUSH1 0x40 DUP4 ADD MSTORE DUP11 DUP2 AND PUSH1 0x60 DUP4 ADD MSTORE DUP10 DUP2 AND PUSH1 0x80 DUP4 ADD MSTORE DUP9 AND PUSH1 0xA0 DUP3 ADD MSTORE PUSH2 0x1A0 PUSH1 0xC0 DUP3 ADD DUP2 SWAP1 MSTORE PUSH1 0x0 SWAP1 PUSH2 0x33B1 DUP4 DUP3 ADD DUP11 PUSH2 0x3203 JUMP JUMPDEST PUSH1 0x1 PUSH1 0x1 PUSH1 0xA0 SHL SUB DUP10 AND PUSH1 0xE0 DUP6 ADD MSTORE SWAP1 POP DUP7 PUSH2 0x100 DUP5 ADD MSTORE PUSH2 0x33DF PUSH2 0x120 DUP5 ADD DUP8 PUSH1 0x1 PUSH1 0x1 PUSH1 0xA0 SHL SUB AND SWAP1 MSTORE JUMP JUMPDEST DUP3 DUP2 SUB PUSH2 0x140 DUP5 ADD MSTORE PUSH2 0x33F2 DUP2 DUP7 PUSH2 0x3203 JUMP JUMPDEST DUP5 MLOAD PUSH2 0x160 DUP6 ADD MSTORE PUSH1 0x20 DUP6 ADD MLOAD PUSH2 0x180 DUP6 ADD MSTORE SWAP2 POP PUSH2 0x340E SWAP1 POP JUMP JUMPDEST SWAP14 SWAP13 POP POP POP POP POP POP POP POP POP POP POP POP POP JUMP JUMPDEST PUSH1 0x0 DUP1 PUSH1 0x40 DUP4 DUP6 SUB SLT ISZERO PUSH2 0x3432 JUMPI PUSH1 0x0 DUP1 REVERT JUMPDEST DUP3 CALLDATALOAD PUSH2 0x343D DUP2 PUSH2 0x325B JUMP JUMPDEST SWAP2 POP PUSH1 0x20 DUP4 ADD CALLDATALOAD PUSH2 0x344D DUP2 PUSH2 0x332C JUMP JUMPDEST DUP1 SWAP2 POP POP SWAP3 POP SWAP3 SWAP1 POP JUMP JUMPDEST PUSH4 0x4E487B71 PUSH1 0xE0 SHL PUSH1 0x0 MSTORE PUSH1 0x41 PUSH1 0x4 MSTORE PUSH1 0x24 PUSH1 0x0 REVERT JUMPDEST PUSH1 0x40 MLOAD PUSH2 0x180 DUP2 ADD PUSH8 0xFFFFFFFFFFFFFFFF DUP2 GT DUP3 DUP3 LT OR ISZERO PUSH2 0x3492 JUMPI PUSH2 0x3492 PUSH2 0x3458 JUMP JUMPDEST PUSH1 0x40 MSTORE SWAP1 JUMP JUMPDEST PUSH1 0x40 MLOAD PUSH1 0x1F DUP3 ADD PUSH1 0x1F NOT AND DUP2 ADD PUSH8 0xFFFFFFFFFFFFFFFF DUP2 GT DUP3 DUP3 LT OR ISZERO PUSH2 0x34C1 JUMPI PUSH2 0x34C1 PUSH2 0x3458 JUMP JUMPDEST PUSH1 0x40 MSTORE SWAP2 SWAP1 POP JUMP JUMPDEST PUSH1 0x0 PUSH8 0xFFFFFFFFFFFFFFFF DUP3 GT ISZERO PUSH2 0x34E3 JUMPI PUSH2 0x34E3 PUSH2 0x3458 JUMP JUMPDEST POP PUSH1 0x1F ADD PUSH1 0x1F NOT AND PUSH1 0x20 ADD SWAP1 JUMP JUMPDEST PUSH1 0x0 PUSH2 0x3504 PUSH2 0x34FF DUP5 PUSH2 0x34C9 JUMP JUMPDEST PUSH2 0x3498 JUMP JUMPDEST SWAP1 POP DUP3 DUP2 MSTORE DUP4 DUP4 DUP4 ADD GT ISZERO PUSH2 0x3518 JUMPI PUSH1 0x0 DUP1 REVERT JUMPDEST DUP3 DUP3 PUSH1 0x20 DUP4 ADD CALLDATACOPY PUSH1 0x0 PUSH1 0x20 DUP5 DUP4 ADD ADD MSTORE SWAP4 SWAP3 POP POP POP JUMP JUMPDEST PUSH1 0x0 DUP1 PUSH1 0x0 DUP1 PUSH1 0x80 DUP6 DUP8 SUB SLT ISZERO PUSH2 0x3545 JUMPI PUSH1 0x0 DUP1 REVERT JUMPDEST DUP5 CALLDATALOAD PUSH2 0x3550 DUP2 PUSH2 0x325B JUMP JUMPDEST SWAP4 POP PUSH1 0x20 DUP6 ADD CALLDATALOAD PUSH2 0x3560 DUP2 PUSH2 0x325B JUMP JUMPDEST SWAP3 POP PUSH1 0x40 DUP6 ADD CALLDATALOAD SWAP2 POP PUSH1 0x60 DUP6 ADD CALLDATALOAD PUSH8 0xFFFFFFFFFFFFFFFF DUP2 GT ISZERO PUSH2 0x3583 JUMPI PUSH1 0x0 DUP1 REVERT JUMPDEST DUP6 ADD PUSH1 0x1F DUP2 ADD DUP8 SGT PUSH2 0x3594 JUMPI PUSH1 0x0 DUP1 REVERT JUMPDEST PUSH2 0x35A3 DUP8 DUP3 CALLDATALOAD PUSH1 0x20 DUP5 ADD PUSH2 0x34F1 JUMP JUMPDEST SWAP2 POP POP SWAP3 SWAP6 SWAP2 SWAP5 POP SWAP3 POP JUMP JUMPDEST PUSH1 0x0 DUP1 PUSH1 0x40 DUP4 DUP6 SUB SLT ISZERO PUSH2 0x35C2 JUMPI PUSH1 0x0 DUP1 REVERT JUMPDEST DUP3 CALLDATALOAD PUSH2 0x35CD DUP2 PUSH2 0x325B JUMP JUMPDEST SWAP2 POP PUSH1 0x20 DUP4 ADD CALLDATALOAD PUSH2 0x344D DUP2 PUSH2 0x325B JUMP JUMPDEST DUP1 CALLDATALOAD PUSH3 0xFFFFFF DUP2 AND DUP2 EQ PUSH2 0x327B JUMPI PUSH1 0x0 DUP1 REVERT JUMPDEST PUSH1 0x0 DUP3 PUSH1 0x1F DUP4 ADD SLT PUSH2 0x3601 JUMPI PUSH1 0x0 DUP1 REVERT JUMPDEST PUSH2 0x31D0 DUP4 DUP4 CALLDATALOAD PUSH1 0x20 DUP6 ADD PUSH2 0x34F1 JUMP JUMPDEST PUSH1 0x0 PUSH1 0x40 DUP3 DUP5 SUB SLT ISZERO PUSH2 0x3622 JUMPI PUSH1 0x0 DUP1 REVERT JUMPDEST PUSH1 0x40 MLOAD PUSH1 0x40 DUP2 ADD DUP2 DUP2 LT PUSH8 0xFFFFFFFFFFFFFFFF DUP3 GT OR ISZERO PUSH2 0x3645 JUMPI PUSH2 0x3645 PUSH2 0x3458 JUMP JUMPDEST PUSH1 0x40 MSTORE DUP3 CALLDATALOAD DUP2 MSTORE PUSH1 0x20 SWAP3 DUP4 ADD CALLDATALOAD SWAP3 DUP2 ADD SWAP3 SWAP1 SWAP3 MSTORE POP SWAP2 SWAP1 POP JUMP JUMPDEST PUSH1 0x0 DUP3 PUSH1 0x1F DUP4 ADD SLT PUSH2 0x3670 JUMPI PUSH1 0x0 DUP1 REVERT JUMPDEST DUP2 CALLDATALOAD PUSH1 0x20 PUSH8 0xFFFFFFFFFFFFFFFF DUP3 GT ISZERO PUSH2 0x368C JUMPI PUSH2 0x368C PUSH2 0x3458 JUMP JUMPDEST DUP2 PUSH1 0x5 SHL PUSH2 0x369B DUP3 DUP3 ADD PUSH2 0x3498 JUMP JUMPDEST SWAP3 DUP4 MSTORE DUP5 DUP2 ADD DUP3 ADD SWAP3 DUP3 DUP2 ADD SWAP1 DUP8 DUP6 GT ISZERO PUSH2 0x36B5 JUMPI PUSH1 0x0 DUP1 REVERT JUMPDEST DUP4 DUP8 ADD SWAP3 POP JUMPDEST DUP5 DUP4 LT ISZERO PUSH2 0x36DD JUMPI DUP3 CALLDATALOAD PUSH2 0x36CE DUP2 PUSH2 0x325B JUMP JUMPDEST DUP3 MSTORE SWAP2 DUP4 ADD SWAP2 SWAP1 DUP4 ADD SWAP1 PUSH2 0x36BB JUMP JUMPDEST SWAP8 SWAP7 POP POP POP POP POP POP POP JUMP JUMPDEST PUSH1 0x0 DUP1 PUSH1 0x0 DUP1 PUSH1 0x0 DUP1 PUSH1 0x0 DUP1 PUSH2 0x100 DUP1 DUP11 DUP13 SUB SLT ISZERO PUSH2 0x3706 JUMPI PUSH1 0x0 DUP1 REVERT JUMPDEST DUP10 CALLDATALOAD PUSH8 0xFFFFFFFFFFFFFFFF DUP1 DUP3 GT ISZERO PUSH2 0x371E JUMPI PUSH1 0x0 DUP1 REVERT JUMPDEST SWAP1 DUP12 ADD SWAP1 PUSH2 0x1A0 DUP3 DUP15 SUB SLT ISZERO PUSH2 0x3733 JUMPI PUSH1 0x0 DUP1 REVERT JUMPDEST PUSH2 0x373B PUSH2 0x346E JUMP JUMPDEST PUSH2 0x3744 DUP4 PUSH2 0x3270 JUMP JUMPDEST DUP2 MSTORE PUSH1 0x20 DUP4 ADD CALLDATALOAD PUSH1 0x20 DUP3 ADD MSTORE PUSH2 0x375C PUSH1 0x40 DUP5 ADD PUSH2 0x35DD JUMP JUMPDEST PUSH1 0x40 DUP3 ADD MSTORE PUSH2 0x376D PUSH1 0x60 DUP5 ADD PUSH2 0x35DD JUMP JUMPDEST PUSH1 0x60 DUP3 ADD MSTORE PUSH2 0x377E PUSH1 0x80 DUP5 ADD PUSH2 0x35DD JUMP JUMPDEST PUSH1 0x80 DUP3 ADD MSTORE PUSH2 0x378F PUSH1 0xA0 DUP5 ADD PUSH2 0x35DD JUMP JUMPDEST PUSH1 0xA0 DUP3 ADD MSTORE PUSH1 0xC0 DUP4 ADD CALLDATALOAD DUP3 DUP2 GT ISZERO PUSH2 0x37A6 JUMPI PUSH1 0x0 DUP1 REVERT JUMPDEST PUSH2 0x37B2 DUP16 DUP3 DUP7 ADD PUSH2 0x35F0 JUMP JUMPDEST PUSH1 0xC0 DUP4 ADD MSTORE POP PUSH2 0x37C4 PUSH1 0xE0 DUP5 ADD PUSH2 0x3270 JUMP JUMPDEST PUSH1 0xE0 DUP3 ADD MSTORE DUP4 DUP4 ADD CALLDATALOAD DUP5 DUP3 ADD MSTORE PUSH2 0x120 SWAP4 POP PUSH2 0x37E1 DUP5 DUP5 ADD PUSH2 0x3270 JUMP JUMPDEST DUP5 DUP3 ADD MSTORE PUSH2 0x140 SWAP4 POP DUP4 DUP4 ADD CALLDATALOAD DUP3 DUP2 GT ISZERO PUSH2 0x37FB JUMPI PUSH1 0x0 DUP1 REVERT JUMPDEST PUSH2 0x3807 DUP16 DUP3 DUP7 ADD PUSH2 0x35F0 JUMP JUMPDEST DUP6 DUP4 ADD MSTORE POP PUSH2 0x160 SWAP4 POP PUSH2 0x381D DUP15 DUP6 DUP6 ADD PUSH2 0x3610 JUMP JUMPDEST DUP2 DUP6 ADD MSTORE SWAP11 POP PUSH2 0x382F PUSH1 0x20 DUP14 ADD PUSH2 0x3270 JUMP JUMPDEST SWAP10 POP PUSH2 0x383D PUSH1 0x40 DUP14 ADD PUSH2 0x3270 JUMP JUMPDEST SWAP9 POP PUSH2 0x384B PUSH1 0x60 DUP14 ADD PUSH2 0x3270 JUMP JUMPDEST SWAP8 POP PUSH2 0x3859 PUSH1 0x80 DUP14 ADD PUSH2 0x3270 JUMP JUMPDEST SWAP7 POP PUSH1 0xA0 DUP13 ADD CALLDATALOAD SWAP3 POP DUP1 DUP4 GT ISZERO PUSH2 0x386F JUMPI PUSH1 0x0 DUP1 REVERT JUMPDEST POP POP PUSH2 0x387D DUP12 DUP3 DUP13 ADD PUSH2 0x365F JUMP JUMPDEST SWAP4 POP POP PUSH2 0x388C PUSH1 0xC0 DUP11 ADD PUSH2 0x333A JUMP JUMPDEST SWAP2 POP PUSH1 0xE0 DUP10 ADD CALLDATALOAD SWAP1 POP SWAP3 SWAP6 SWAP9 POP SWAP3 SWAP6 SWAP9 SWAP1 SWAP4 SWAP7 POP JUMP JUMPDEST PUSH1 0x1 DUP2 DUP2 SHR SWAP1 DUP3 AND DUP1 PUSH2 0x38B6 JUMPI PUSH1 0x7F DUP3 AND SWAP2 POP JUMPDEST PUSH1 0x20 DUP3 LT DUP2 EQ ISZERO PUSH2 0x38D7 JUMPI PUSH4 0x4E487B71 PUSH1 0xE0 SHL PUSH1 0x0 MSTORE PUSH1 0x22 PUSH1 0x4 MSTORE PUSH1 0x24 PUSH1 0x0 REVERT JUMPDEST POP SWAP2 SWAP1 POP JUMP JUMPDEST PUSH1 0x0 PUSH1 0x20 DUP3 DUP5 SUB SLT ISZERO PUSH2 0x38EF JUMPI PUSH1 0x0 DUP1 REVERT JUMPDEST POP MLOAD SWAP2 SWAP1 POP JUMP JUMPDEST PUSH1 0x0 PUSH1 0x20 DUP3 DUP5 SUB SLT ISZERO PUSH2 0x3908 JUMPI PUSH1 0x0 DUP1 REVERT JUMPDEST DUP2 MLOAD PUSH8 0xFFFFFFFFFFFFFFFF DUP2 GT ISZERO PUSH2 0x391F JUMPI PUSH1 0x0 DUP1 REVERT JUMPDEST DUP3 ADD PUSH1 0x1F DUP2 ADD DUP5 SGT PUSH2 0x3930 JUMPI PUSH1 0x0 DUP1 REVERT JUMPDEST DUP1 MLOAD PUSH2 0x393E PUSH2 0x34FF DUP3 PUSH2 0x34C9 JUMP JUMPDEST DUP2 DUP2 MSTORE DUP6 PUSH1 0x20 DUP4 DUP6 ADD ADD GT ISZERO PUSH2 0x3953 JUMPI PUSH1 0x0 DUP1 REVERT JUMPDEST PUSH2 0x3964 DUP3 PUSH1 0x20 DUP4 ADD PUSH1 0x20 DUP7 ADD PUSH2 0x31D7 JUMP JUMPDEST SWAP6 SWAP5 POP POP POP POP POP JUMP JUMPDEST PUSH4 0x4E487B71 PUSH1 0xE0 SHL PUSH1 0x0 MSTORE PUSH1 0x11 PUSH1 0x4 MSTORE PUSH1 0x24 PUSH1 0x0 REVERT JUMPDEST PUSH1 0x0 PUSH3 0xFFFFFF DUP1 DUP4 AND DUP2 DUP2 EQ ISZERO PUSH2 0x399C JUMPI PUSH2 0x399C PUSH2 0x396D JUMP JUMPDEST PUSH1 0x1 ADD SWAP4 SWAP3 POP POP POP JUMP JUMPDEST PUSH1 0x0 PUSH3 0xFFFFFF DUP1 DUP4 AND DUP2 DUP6 AND DUP1 DUP4 SUB DUP3 GT ISZERO PUSH2 0x39C4 JUMPI PUSH2 0x39C4 PUSH2 0x396D JUMP JUMPDEST ADD SWAP5 SWAP4 POP POP POP POP JUMP JUMPDEST PUSH1 0x0 DUP2 PUSH1 0x0 NOT DIV DUP4 GT DUP3 ISZERO ISZERO AND ISZERO PUSH2 0x39E7 JUMPI PUSH2 0x39E7 PUSH2 0x396D JUMP JUMPDEST POP MUL SWAP1 JUMP JUMPDEST PUSH1 0x0 DUP3 NOT DUP3 GT ISZERO PUSH2 0x39FF JUMPI PUSH2 0x39FF PUSH2 0x396D JUMP JUMPDEST POP ADD SWAP1 JUMP JUMPDEST PUSH1 0x0 PUSH1 0x20 DUP3 DUP5 SUB SLT ISZERO PUSH2 0x3A16 JUMPI PUSH1 0x0 DUP1 REVERT JUMPDEST DUP2 MLOAD PUSH2 0x31D0 DUP2 PUSH2 0x325B JUMP JUMPDEST PUSH1 0x0 DUP4 MLOAD PUSH2 0x3A33 DUP2 DUP5 PUSH1 0x20 DUP9 ADD PUSH2 0x31D7 JUMP JUMPDEST PUSH4 0x10313C9 PUSH1 0xE5 SHL SWAP1 DUP4 ADD SWAP1 DUP2 MSTORE DUP4 MLOAD PUSH2 0x3A54 DUP2 PUSH1 0x4 DUP5 ADD PUSH1 0x20 DUP9 ADD PUSH2 0x31D7 JUMP JUMPDEST ADD PUSH1 0x4 ADD SWAP5 SWAP4 POP POP POP POP JUMP JUMPDEST PUSH4 0x4E487B71 PUSH1 0xE0 SHL PUSH1 0x0 MSTORE PUSH1 0x32 PUSH1 0x4 MSTORE PUSH1 0x24 PUSH1 0x0 REVERT JUMPDEST PUSH1 0x0 PUSH1 0x0 NOT DUP3 EQ ISZERO PUSH2 0x3A8A JUMPI PUSH2 0x3A8A PUSH2 0x396D JUMP JUMPDEST POP PUSH1 0x1 ADD SWAP1 JUMP JUMPDEST PUSH1 0x0 DUP3 PUSH2 0x3AAE JUMPI PUSH4 0x4E487B71 PUSH1 0xE0 SHL PUSH1 0x0 MSTORE PUSH1 0x12 PUSH1 0x4 MSTORE PUSH1 0x24 PUSH1 0x0 REVERT JUMPDEST POP DIV SWAP1 JUMP JUMPDEST PUSH1 0x0 DUP3 DUP3 LT ISZERO PUSH2 0x3AC5 JUMPI PUSH2 0x3AC5 PUSH2 0x396D JUMP JUMPDEST POP SUB SWAP1 JUMP JUMPDEST PUSH1 0x0 PUSH1 0x20 DUP3 DUP5 SUB SLT ISZERO PUSH2 0x3ADC JUMPI PUSH1 0x0 DUP1 REVERT JUMPDEST DUP2 MLOAD PUSH2 0x31D0 DUP2 PUSH2 0x332C JUMP JUMPDEST PUSH1 0x20 DUP1 DUP3 MSTORE PUSH1 0x2D SWAP1 DUP3 ADD MSTORE PUSH32 0x4552433732313A2063616C6C6572206973206E6F7420746F6B656E206F776E65 PUSH1 0x40 DUP3 ADD MSTORE PUSH13 0x1C881BDC88185C1C1C9BDD9959 PUSH1 0x9A SHL PUSH1 0x60 DUP3 ADD MSTORE PUSH1 0x80 ADD SWAP1 JUMP JUMPDEST PUSH1 0x20 DUP1 DUP3 MSTORE PUSH1 0x32 SWAP1 DUP3 ADD MSTORE PUSH32 0x4552433732313A207472616E7366657220746F206E6F6E204552433732315265 PUSH1 0x40 DUP3 ADD MSTORE PUSH18 0x31B2B4BB32B91034B6B83632B6B2B73A32B9 PUSH1 0x71 SHL PUSH1 0x60 DUP3 ADD MSTORE PUSH1 0x80 ADD SWAP1 JUMP JUMPDEST PUSH1 0x1 PUSH1 0x1 PUSH1 0xA0 SHL SUB DUP6 DUP2 AND DUP3 MSTORE DUP5 AND PUSH1 0x20 DUP3 ADD MSTORE PUSH1 0x40 DUP2 ADD DUP4 SWAP1 MSTORE PUSH1 0x80 PUSH1 0x60 DUP3 ADD DUP2 SWAP1 MSTORE PUSH1 0x0 SWAP1 PUSH2 0x3BB9 SWAP1 DUP4 ADD DUP5 PUSH2 0x3203 JUMP JUMPDEST SWAP7 SWAP6 POP POP POP POP POP POP JUMP JUMPDEST PUSH1 0x0 PUSH1 0x20 DUP3 DUP5 SUB SLT ISZERO PUSH2 0x3BD5 JUMPI PUSH1 0x0 DUP1 REVERT JUMPDEST DUP2 MLOAD PUSH2 0x31D0 DUP2 PUSH2 0x319D JUMP JUMPDEST PUSH1 0x20 DUP1 DUP3 MSTORE PUSH1 0x25 SWAP1 DUP3 ADD MSTORE PUSH32 0x4552433732313A207472616E736665722066726F6D20696E636F727265637420 PUSH1 0x40 DUP3 ADD MSTORE PUSH5 0x37BBB732B9 PUSH1 0xD9 SHL PUSH1 0x60 DUP3 ADD MSTORE PUSH1 0x80 ADD SWAP1 JUMP INVALID LOG2 PUSH5 0x6970667358 0x22 SLT KECCAK256 0x5D 0xB9 0xA9 0x28 0xB6 0xD0 DUP1 SWAP4 0xC0 0xAE LOG1 0xE0 0xA7 DUP8 KECCAK256 0xCB 0xE4 SAR CREATE 0xC2 0xCE GASPRICE 0xD0 TIMESTAMP 0xCD MSIZE DUP14 PUSH10 0x26B4D12664736F6C6343 STOP ADDMOD 0xC STOP CALLER "},"methodIdentifiers":{"OPERATOR_FILTER_REGISTRY()":"41f43434","_admin()":"01bc45c9","_nameCol()":"452fa3d3","_paramsAddress()":"adfc7dae","_project()":"775bff9f","_projectDataContextAddr()":"575b57ea","_randomizer()":"ffc27c0e","_royalty()":"3b66b00a","approve(address,uint256)":"095ea7b3","balanceOf(address)":"70a08231","changeAdmin(address)":"8f283970","changeDataContextAddr(address)":"472f1e02","changeParamAddr(address)":"febfd6c3","changeRandomizerAddr(address)":"1ca9741b","getApproved(uint256)":"081812fc","getStatus()":"4e69d560","init((address,uint256,uint24,uint24,uint24,uint24,string,address,uint256,address,string,(uint256,uint256)),address,address,address,address,address[],bool,uint256)":"ef169be2","isApprovedForAll(address,address)":"e985e9c5","mint()":"1249c58b","name()":"06fdde03","owner()":"8da5cb5b","ownerOf(uint256)":"6352211e","paused()":"5c975abb","renounceOwnership()":"715018a6","reserveMint()":"21c8d676","royaltyInfo(uint256,uint256)":"2a55205a","safeTransferFrom(address,address,uint256)":"42842e0e","safeTransferFrom(address,address,uint256,bytes)":"b88d4fde","setApprovalForAll(address,bool)":"a22cb465","setStatus(bool)":"5c40f6f4","supportsInterface(bytes4)":"01ffc9a7","symbol()":"95d89b41","tokenGenerativeURI(uint256)":"10da88c5","tokenIdToHash(uint256)":"621a1f74","tokenURI(uint256)":"c87b56dd","transferFrom(address,address,uint256)":"23b872dd","transferOwnership(address)":"f2fde38b"}},"storageLayout":{"storage":[{"astId":1691,"contract":"contracts/nfts/GenerativeNFT.sol:GenerativeNFT","label":"_name","offset":0,"slot":"0","type":"t_string_storage"},{"astId":1693,"contract":"contracts/nfts/GenerativeNFT.sol:GenerativeNFT","label":"_symbol","offset":0,"slot":"1","type":"t_string_storage"},{"astId":1697,"contract":"contracts/nfts/GenerativeNFT.sol:GenerativeNFT","label":"_owners","offset":0,"slot":"2","type":"t_mapping(t_uint256,t_address)"},{"astId":1701,"contract":"contracts/nfts/GenerativeNFT.sol:GenerativeNFT","label":"_balances","offset":0,"slot":"3","type":"t_mapping(t_address,t_uint256)"},{"astId":1705,"contract":"contracts/nfts/GenerativeNFT.sol:GenerativeNFT","label":"_tokenApprovals","offset":0,"slot":"4","type":"t_mapping(t_uint256,t_address)"},{"astId":1711,"contract":"contracts/nfts/GenerativeNFT.sol:GenerativeNFT","label":"_operatorApprovals","offset":0,"slot":"5","type":"t_mapping(t_address,t_mapping(t_address,t_bool))"},{"astId":1443,"contract":"contracts/nfts/GenerativeNFT.sol:GenerativeNFT","label":"_paused","offset":0,"slot":"6","type":"t_bool"},{"astId":1544,"contract":"contracts/nfts/GenerativeNFT.sol:GenerativeNFT","label":"_status","offset":0,"slot":"7","type":"t_uint256"},{"astId":1301,"contract":"contracts/nfts/GenerativeNFT.sol:GenerativeNFT","label":"_owner","offset":0,"slot":"8","type":"t_address"},{"astId":6492,"contract":"contracts/nfts/GenerativeNFT.sol:GenerativeNFT","label":"_ownersAndHashSeeds","offset":0,"slot":"9","type":"t_mapping(t_uint256,t_struct(OwnerSeed)6364_storage)"},{"astId":6494,"contract":"contracts/nfts/GenerativeNFT.sol:GenerativeNFT","label":"_admin","offset":0,"slot":"10","type":"t_address"},{"astId":6496,"contract":"contracts/nfts/GenerativeNFT.sol:GenerativeNFT","label":"_paramsAddress","offset":0,"slot":"11","type":"t_address"},{"astId":6498,"contract":"contracts/nfts/GenerativeNFT.sol:GenerativeNFT","label":"_randomizer","offset":0,"slot":"12","type":"t_address"},{"astId":6500,"contract":"contracts/nfts/GenerativeNFT.sol:GenerativeNFT","label":"_projectDataContextAddr","offset":0,"slot":"13","type":"t_address"},{"astId":6502,"contract":"contracts/nfts/GenerativeNFT.sol:GenerativeNFT","label":"_nameCol","offset":0,"slot":"14","type":"t_string_storage"},{"astId":6504,"contract":"contracts/nfts/GenerativeNFT.sol:GenerativeNFT","label":"_royalty","offset":0,"slot":"15","type":"t_uint256"},{"astId":6899,"contract":"contracts/nfts/GenerativeNFT.sol:GenerativeNFT","label":"_project","offset":0,"slot":"16","type":"t_struct(ProjectMinting)6442_storage"},{"astId":6903,"contract":"contracts/nfts/GenerativeNFT.sol:GenerativeNFT","label":"_reserves","offset":0,"slot":"26","type":"t_mapping(t_address,t_bool)"}],"types":{"t_address":{"encoding":"inplace","label":"address","numberOfBytes":"20"},"t_bool":{"encoding":"inplace","label":"bool","numberOfBytes":"1"},"t_bytes12":{"encoding":"inplace","label":"bytes12","numberOfBytes":"12"},"t_mapping(t_address,t_bool)":{"encoding":"mapping","key":"t_address","label":"mapping(address => bool)","numberOfBytes":"32","value":"t_bool"},"t_mapping(t_address,t_mapping(t_address,t_bool))":{"encoding":"mapping","key":"t_address","label":"mapping(address => mapping(address => bool))","numberOfBytes":"32","value":"t_mapping(t_address,t_bool)"},"t_mapping(t_address,t_uint256)":{"encoding":"mapping","key":"t_address","label":"mapping(address => uint256)","numberOfBytes":"32","value":"t_uint256"},"t_mapping(t_uint256,t_address)":{"encoding":"mapping","key":"t_uint256","label":"mapping(uint256 => address)","numberOfBytes":"32","value":"t_address"},"t_mapping(t_uint256,t_struct(OwnerSeed)6364_storage)":{"encoding":"mapping","key":"t_uint256","label":"mapping(uint256 => struct NFTCollection.OwnerSeed)","numberOfBytes":"32","value":"t_struct(OwnerSeed)6364_storage"},"t_string_storage":{"encoding":"bytes","label":"string","numberOfBytes":"32"},"t_struct(OwnerSeed)6364_storage":{"encoding":"inplace","label":"struct NFTCollection.OwnerSeed","members":[{"astId":6361,"contract":"contracts/nfts/GenerativeNFT.sol:GenerativeNFT","label":"_owner","offset":0,"slot":"0","type":"t_address"},{"astId":6363,"contract":"contracts/nfts/GenerativeNFT.sol:GenerativeNFT","label":"_seed","offset":20,"slot":"0","type":"t_bytes12"}],"numberOfBytes":"32"},"t_struct(ProjectMinting)6442_storage":{"encoding":"inplace","label":"struct NFTProject.ProjectMinting","members":[{"astId":6418,"contract":"contracts/nfts/GenerativeNFT.sol:GenerativeNFT","label":"_projectAddr","offset":0,"slot":"0","type":"t_address"},{"astId":6420,"contract":"contracts/nfts/GenerativeNFT.sol:GenerativeNFT","label":"_projectId","offset":0,"slot":"1","type":"t_uint256"},{"astId":6422,"contract":"contracts/nfts/GenerativeNFT.sol:GenerativeNFT","label":"_maxSupply","offset":0,"slot":"2","type":"t_uint24"},{"astId":6424,"contract":"contracts/nfts/GenerativeNFT.sol:GenerativeNFT","label":"_limit","offset":3,"slot":"2","type":"t_uint24"},{"astId":6426,"contract":"contracts/nfts/GenerativeNFT.sol:GenerativeNFT","label":"_index","offset":6,"slot":"2","type":"t_uint24"},{"astId":6428,"contract":"contracts/nfts/GenerativeNFT.sol:GenerativeNFT","label":"_indexReserve","offset":9,"slot":"2","type":"t_uint24"},{"astId":6430,"contract":"contracts/nfts/GenerativeNFT.sol:GenerativeNFT","label":"_creator","offset":0,"slot":"3","type":"t_string_storage"},{"astId":6432,"contract":"contracts/nfts/GenerativeNFT.sol:GenerativeNFT","label":"_creatorAddr","offset":0,"slot":"4","type":"t_address"},{"astId":6434,"contract":"contracts/nfts/GenerativeNFT.sol:GenerativeNFT","label":"_mintPrice","offset":0,"slot":"5","type":"t_uint256"},{"astId":6436,"contract":"contracts/nfts/GenerativeNFT.sol:GenerativeNFT","label":"_mintPriceAddr","offset":0,"slot":"6","type":"t_address"},{"astId":6438,"contract":"contracts/nfts/GenerativeNFT.sol:GenerativeNFT","label":"_name","offset":0,"slot":"7","type":"t_string_storage"},{"astId":6441,"contract":"contracts/nfts/GenerativeNFT.sol:GenerativeNFT","label":"_mintingSchedule","offset":0,"slot":"8","type":"t_struct(ProjectMintingSchedule)6447_storage"}],"numberOfBytes":"320"},"t_struct(ProjectMintingSchedule)6447_storage":{"encoding":"inplace","label":"struct NFTProject.ProjectMintingSchedule","members":[{"astId":6444,"contract":"contracts/nfts/GenerativeNFT.sol:GenerativeNFT","label":"_initBlockTime","offset":0,"slot":"0","type":"t_uint256"},{"astId":6446,"contract":"contracts/nfts/GenerativeNFT.sol:GenerativeNFT","label":"_openingTime","offset":0,"slot":"1","type":"t_uint256"}],"numberOfBytes":"64"},"t_uint24":{"encoding":"inplace","label":"uint24","numberOfBytes":"3"},"t_uint256":{"encoding":"inplace","label":"uint256","numberOfBytes":"32"}}}}}}