{"contracts/libs/helpers/Errors.sol":{"Errors":{"abi":[{"inputs":[],"name":"DAO_VESTING_ERROR_ADDR","outputs":[{"internalType":"string","name":"","type":"string"}],"stateMutability":"view","type":"function"},{"inputs":[],"name":"ERC20_BALANCE_INVALID","outputs":[{"internalType":"string","name":"","type":"string"}],"stateMutability":"view","type":"function"},{"inputs":[],"name":"ERC20_NOT_APPROVED","outputs":[{"internalType":"string","name":"","type":"string"}],"stateMutability":"view","type":"function"},{"inputs":[],"name":"ERC_20_NOT_ALLOW","outputs":[{"internalType":"string","name":"","type":"string"}],"stateMutability":"view","type":"function"},{"inputs":[],"name":"ERC_721_NOT_APPROVED","outputs":[{"internalType":"string","name":"","type":"string"}],"stateMutability":"view","type":"function"},{"inputs":[],"name":"FORBIDDEN_TRANSFER_PROJECT","outputs":[{"internalType":"string","name":"","type":"string"}],"stateMutability":"view","type":"function"},{"inputs":[],"name":"INVALID_ERC721_OWNER","outputs":[{"internalType":"string","name":"","type":"string"}],"stateMutability":"view","type":"function"},{"inputs":[],"name":"INV_ADD","outputs":[{"internalType":"string","name":"","type":"string"}],"stateMutability":"view","type":"function"},{"inputs":[],"name":"INV_FEE_PROJECT","outputs":[{"internalType":"string","name":"","type":"string"}],"stateMutability":"view","type":"function"},{"inputs":[],"name":"INV_PARAMS","outputs":[{"internalType":"string","name":"","type":"string"}],"stateMutability":"view","type":"function"},{"inputs":[],"name":"INV_PROJECT","outputs":[{"internalType":"string","name":"","type":"string"}],"stateMutability":"view","type":"function"},{"inputs":[],"name":"INV_TOKEN","outputs":[{"internalType":"string","name":"","type":"string"}],"stateMutability":"view","type":"function"},{"inputs":[],"name":"MISSING_NAME","outputs":[{"internalType":"string","name":"","type":"string"}],"stateMutability":"view","type":"function"},{"inputs":[],"name":"OFFERING_CLOSED","outputs":[{"internalType":"string","name":"","type":"string"}],"stateMutability":"view","type":"function"},{"inputs":[],"name":"ONLY_ADMIN_ALLOWED","outputs":[{"internalType":"string","name":"","type":"string"}],"stateMutability":"view","type":"function"},{"inputs":[],"name":"ONLY_CREATOR","outputs":[{"internalType":"string","name":"","type":"string"}],"stateMutability":"view","type":"function"},{"inputs":[],"name":"ONLY_GENERATIVE_PROJECT","outputs":[{"internalType":"string","name":"","type":"string"}],"stateMutability":"view","type":"function"},{"inputs":[],"name":"OPENING_SCHEDULE","outputs":[{"internalType":"string","name":"","type":"string"}],"stateMutability":"view","type":"function"},{"inputs":[],"name":"POA_INVALID_TOKEN","outputs":[{"internalType":"string","name":"","type":"string"}],"stateMutability":"view","type":"function"},{"inputs":[],"name":"REACH_MAX","outputs":[{"internalType":"string","name":"","type":"string"}],"stateMutability":"view","type":"function"},{"inputs":[],"name":"SUCCESS","outputs":[{"internalType":"string","name":"","type":"string"}],"stateMutability":"view","type":"function"},{"inputs":[],"name":"TEAM_VESTING_ERROR_ADDR","outputs":[{"internalType":"string","name":"","type":"string"}],"stateMutability":"view","type":"function"},{"inputs":[],"name":"TOKEN_HAS_SEED","outputs":[{"internalType":"string","name":"","type":"string"}],"stateMutability":"view","type":"function"},{"inputs":[],"name":"TOO_HIGH","outputs":[{"internalType":"string","name":"","type":"string"}],"stateMutability":"view","type":"function"},{"inputs":[],"name":"TRANSFER_FAIL","outputs":[{"internalType":"string","name":"","type":"string"}],"stateMutability":"view","type":"function"},{"inputs":[],"name":"VALUE_INVALID","outputs":[{"internalType":"string","name":"","type":"string"}],"stateMutability":"view","type":"function"},{"inputs":[],"name":"VESTING_REMAIN","outputs":[{"internalType":"string","name":"","type":"string"}],"stateMutability":"view","type":"function"},{"inputs":[],"name":"VESTING_TIME_LOCK","outputs":[{"internalType":"string","name":"","type":"string"}],"stateMutability":"view","type":"function"},{"inputs":[],"name":"ZERO_ADDR","outputs":[{"internalType":"address","name":"","type":"address"}],"stateMutability":"view","type":"function"},{"inputs":[],"name":"ZERO_DURATION","outputs":[{"internalType":"string","name":"","type":"string"}],"stateMutability":"view","type":"function"},{"inputs":[],"name":"ZERO_PRICE","outputs":[{"internalType":"string","name":"","type":"string"}],"stateMutability":"view","type":"function"},{"inputs":[],"name":"ZERO_SEED","outputs":[{"internalType":"string","name":"","type":"string"}],"stateMutability":"view","type":"function"}],"evm":{"bytecode":{"linkReferences":{},"object":"6106dc61003a600b82828239805160001a60731461002d57634e487b7160e01b600052600060045260246000fd5b30600052607381538281f3fe73000000000000000000000000000000000000000030146080604052600436106101fa5760003560e01c806386f8148f11610119578063d0a6d1a6116100ac578063ec94a5771161007b578063ec94a577146105c9578063ef494c25146105eb578063f9e937311461060d578063feff83c31461062f57600080fd5b8063d0a6d1a614610543578063d5bec68514610563578063dc18263c14610585578063e81216b5146105a757600080fd5b8063b746287b116100e8578063b746287b146104bb578063b92436e0146104dd578063c059011b146104ff578063c3679ee51461052157600080fd5b806386f8148f146104335780638cb739c61461045557806390131fab146104775780639bf3cfe31461049957600080fd5b80633a13248f11610191578063637310801161016057806363731080146103ad578063652b7f31146103cd5780636a137674146103ef578063726705081461041157600080fd5b80633a13248f14610325578063552e387c146103475780635560f1f814610369578063585c081c1461038b57600080fd5b8063243c1d6d116101cd578063243c1d6d1461029d5780632b72ddbd146102bf57806335a02d73146102e157806338abf0c91461030357600080fd5b806307475084146101ff578063143c1c36146102375780631557ff2414610259578063233122971461027b575b600080fd5b6102216040518060400160405280600381526020016219981b60e91b81525081565b60405161022e9190610651565b60405180910390f35b6102216040518060400160405280600381526020016219181b60e91b81525081565b6102216040518060400160405280600381526020016206660760eb1b81525081565b6102216040518060400160405280600381526020016232303360e81b81525081565b610221604051806040016040528060038152602001620d0c0d60ea1b81525081565b6102216040518060400160405280600381526020016219981960e91b81525081565b6102216040518060400160405280600381526020016233303560e81b81525081565b6102216040518060400160405280600381526020016219181960e91b81525081565b6102216040518060400160405280600381526020016206460760eb1b81525081565b6102216040518060400160405280600381526020016231303160e81b81525081565b6102216040518060400160405280600381526020016233303360e81b81525081565b6102216040518060400160405280600381526020016232303560e81b81525081565b6103b5600081565b6040516001600160a01b03909116815260200161022e565b6102216040518060400160405280600381526020016232303160e81b81525081565b6102216040518060400160405280600381526020016203430360ec1b81525081565b6102216040518060400160405280600381526020016203130360ec1b81525081565b6102216040518060400160405280600381526020016203230360ec1b81525081565b6102216040518060400160405280600381526020016232303960e81b81525081565b6102216040518060400160405280600381526020016203330360ec1b81525081565b6102216040518060400160405280600381526020016232303760e81b81525081565b6102216040518060400160405280600381526020016218981960e91b81525081565b6102216040518060400160405280600381526020016234303160e81b81525081565b6102216040518060400160405280600381526020016233303160e81b81525081565b6102216040518060400160405280600381526020016234303360e81b81525081565b610221604051806040016040528060018152602001600360fc1b81525081565b6102216040518060400160405280600381526020016233303760e81b81525081565b6102216040518060400160405280600381526020016232313160e81b81525081565b610221604051806040016040528060038152602001620ccc0d60ea1b81525081565b6102216040518060400160405280600381526020016233303960e81b81525081565b6102216040518060400160405280600381526020016203231360ec1b81525081565b610221604051806040016040528060038152602001621a181960e91b81525081565b610221604051806040016040528060038152602001620c8c0d60ea1b81525081565b600060208083528351808285015260005b8181101561067e57858101830151858201604001528201610662565b81811115610690576000604083870101525b50601f01601f191692909201604001939250505056fea264697066735822122056d8fa4fe5543e33b6301deb96c5523eba4c25f2985285db8e1bb1cd6431d05864736f6c634300080c0033","opcodes":"PUSH2 0x6DC PUSH2 0x3A PUSH1 0xB DUP3 DUP3 DUP3 CODECOPY DUP1 MLOAD PUSH1 0x0 BYTE PUSH1 0x73 EQ PUSH2 0x2D JUMPI PUSH4 0x4E487B71 PUSH1 0xE0 SHL PUSH1 0x0 MSTORE PUSH1 0x0 PUSH1 0x4 MSTORE PUSH1 0x24 PUSH1 0x0 REVERT JUMPDEST ADDRESS PUSH1 0x0 MSTORE PUSH1 0x73 DUP2 MSTORE8 DUP3 DUP2 RETURN INVALID PUSH20 0x0 ADDRESS EQ PUSH1 0x80 PUSH1 0x40 MSTORE PUSH1 0x4 CALLDATASIZE LT PUSH2 0x1FA JUMPI PUSH1 0x0 CALLDATALOAD PUSH1 0xE0 SHR DUP1 PUSH4 0x86F8148F GT PUSH2 0x119 JUMPI DUP1 PUSH4 0xD0A6D1A6 GT PUSH2 0xAC JUMPI DUP1 PUSH4 0xEC94A577 GT PUSH2 0x7B JUMPI DUP1 PUSH4 0xEC94A577 EQ PUSH2 0x5C9 JUMPI DUP1 PUSH4 0xEF494C25 EQ PUSH2 0x5EB JUMPI DUP1 PUSH4 0xF9E93731 EQ PUSH2 0x60D JUMPI DUP1 PUSH4 0xFEFF83C3 EQ PUSH2 0x62F JUMPI PUSH1 0x0 DUP1 REVERT JUMPDEST DUP1 PUSH4 0xD0A6D1A6 EQ PUSH2 0x543 JUMPI DUP1 PUSH4 0xD5BEC685 EQ PUSH2 0x563 JUMPI DUP1 PUSH4 0xDC18263C EQ PUSH2 0x585 JUMPI DUP1 PUSH4 0xE81216B5 EQ PUSH2 0x5A7 JUMPI PUSH1 0x0 DUP1 REVERT JUMPDEST DUP1 PUSH4 0xB746287B GT PUSH2 0xE8 JUMPI DUP1 PUSH4 0xB746287B EQ PUSH2 0x4BB JUMPI DUP1 PUSH4 0xB92436E0 EQ PUSH2 0x4DD JUMPI DUP1 PUSH4 0xC059011B EQ PUSH2 0x4FF JUMPI DUP1 PUSH4 0xC3679EE5 EQ PUSH2 0x521 JUMPI PUSH1 0x0 DUP1 REVERT JUMPDEST DUP1 PUSH4 0x86F8148F EQ PUSH2 0x433 JUMPI DUP1 PUSH4 0x8CB739C6 EQ PUSH2 0x455 JUMPI DUP1 PUSH4 0x90131FAB EQ PUSH2 0x477 JUMPI DUP1 PUSH4 0x9BF3CFE3 EQ PUSH2 0x499 JUMPI PUSH1 0x0 DUP1 REVERT JUMPDEST DUP1 PUSH4 0x3A13248F GT PUSH2 0x191 JUMPI DUP1 PUSH4 0x63731080 GT PUSH2 0x160 JUMPI DUP1 PUSH4 0x63731080 EQ PUSH2 0x3AD JUMPI DUP1 PUSH4 0x652B7F31 EQ PUSH2 0x3CD JUMPI DUP1 PUSH4 0x6A137674 EQ PUSH2 0x3EF JUMPI DUP1 PUSH4 0x72670508 EQ PUSH2 0x411 JUMPI PUSH1 0x0 DUP1 REVERT JUMPDEST DUP1 PUSH4 0x3A13248F EQ PUSH2 0x325 JUMPI DUP1 PUSH4 0x552E387C EQ PUSH2 0x347 JUMPI DUP1 PUSH4 0x5560F1F8 EQ PUSH2 0x369 JUMPI DUP1 PUSH4 0x585C081C EQ PUSH2 0x38B JUMPI PUSH1 0x0 DUP1 REVERT JUMPDEST DUP1 PUSH4 0x243C1D6D GT PUSH2 0x1CD JUMPI DUP1 PUSH4 0x243C1D6D EQ PUSH2 0x29D JUMPI DUP1 PUSH4 0x2B72DDBD EQ PUSH2 0x2BF JUMPI DUP1 PUSH4 0x35A02D73 EQ PUSH2 0x2E1 JUMPI DUP1 PUSH4 0x38ABF0C9 EQ PUSH2 0x303 JUMPI PUSH1 0x0 DUP1 REVERT JUMPDEST DUP1 PUSH4 0x7475084 EQ PUSH2 0x1FF JUMPI DUP1 PUSH4 0x143C1C36 EQ PUSH2 0x237 JUMPI DUP1 PUSH4 0x1557FF24 EQ PUSH2 0x259 JUMPI DUP1 PUSH4 0x23312297 EQ PUSH2 0x27B JUMPI JUMPDEST PUSH1 0x0 DUP1 REVERT JUMPDEST PUSH2 0x221 PUSH1 0x40 MLOAD DUP1 PUSH1 0x40 ADD PUSH1 0x40 MSTORE DUP1 PUSH1 0x3 DUP2 MSTORE PUSH1 0x20 ADD PUSH3 0x19981B PUSH1 0xE9 SHL DUP2 MSTORE POP DUP2 JUMP JUMPDEST PUSH1 0x40 MLOAD PUSH2 0x22E SWAP2 SWAP1 PUSH2 0x651 JUMP JUMPDEST PUSH1 0x40 MLOAD DUP1 SWAP2 SUB SWAP1 RETURN JUMPDEST PUSH2 0x221 PUSH1 0x40 MLOAD DUP1 PUSH1 0x40 ADD PUSH1 0x40 MSTORE DUP1 PUSH1 0x3 DUP2 MSTORE PUSH1 0x20 ADD PUSH3 0x19181B PUSH1 0xE9 SHL DUP2 MSTORE POP DUP2 JUMP JUMPDEST PUSH2 0x221 PUSH1 0x40 MLOAD DUP1 PUSH1 0x40 ADD PUSH1 0x40 MSTORE DUP1 PUSH1 0x3 DUP2 MSTORE PUSH1 0x20 ADD PUSH3 0x66607 PUSH1 0xEB SHL DUP2 MSTORE POP DUP2 JUMP JUMPDEST PUSH2 0x221 PUSH1 0x40 MLOAD DUP1 PUSH1 0x40 ADD PUSH1 0x40 MSTORE DUP1 PUSH1 0x3 DUP2 MSTORE PUSH1 0x20 ADD PUSH3 0x323033 PUSH1 0xE8 SHL DUP2 MSTORE POP DUP2 JUMP JUMPDEST PUSH2 0x221 PUSH1 0x40 MLOAD DUP1 PUSH1 0x40 ADD PUSH1 0x40 MSTORE DUP1 PUSH1 0x3 DUP2 MSTORE PUSH1 0x20 ADD PUSH3 0xD0C0D PUSH1 0xEA SHL DUP2 MSTORE POP DUP2 JUMP JUMPDEST PUSH2 0x221 PUSH1 0x40 MLOAD DUP1 PUSH1 0x40 ADD PUSH1 0x40 MSTORE DUP1 PUSH1 0x3 DUP2 MSTORE PUSH1 0x20 ADD PUSH3 0x199819 PUSH1 0xE9 SHL DUP2 MSTORE POP DUP2 JUMP JUMPDEST PUSH2 0x221 PUSH1 0x40 MLOAD DUP1 PUSH1 0x40 ADD PUSH1 0x40 MSTORE DUP1 PUSH1 0x3 DUP2 MSTORE PUSH1 0x20 ADD PUSH3 0x333035 PUSH1 0xE8 SHL DUP2 MSTORE POP DUP2 JUMP JUMPDEST PUSH2 0x221 PUSH1 0x40 MLOAD DUP1 PUSH1 0x40 ADD PUSH1 0x40 MSTORE DUP1 PUSH1 0x3 DUP2 MSTORE PUSH1 0x20 ADD PUSH3 0x191819 PUSH1 0xE9 SHL DUP2 MSTORE POP DUP2 JUMP JUMPDEST PUSH2 0x221 PUSH1 0x40 MLOAD DUP1 PUSH1 0x40 ADD PUSH1 0x40 MSTORE DUP1 PUSH1 0x3 DUP2 MSTORE PUSH1 0x20 ADD PUSH3 0x64607 PUSH1 0xEB SHL DUP2 MSTORE POP DUP2 JUMP JUMPDEST PUSH2 0x221 PUSH1 0x40 MLOAD DUP1 PUSH1 0x40 ADD PUSH1 0x40 MSTORE DUP1 PUSH1 0x3 DUP2 MSTORE PUSH1 0x20 ADD PUSH3 0x313031 PUSH1 0xE8 SHL DUP2 MSTORE POP DUP2 JUMP JUMPDEST PUSH2 0x221 PUSH1 0x40 MLOAD DUP1 PUSH1 0x40 ADD PUSH1 0x40 MSTORE DUP1 PUSH1 0x3 DUP2 MSTORE PUSH1 0x20 ADD PUSH3 0x333033 PUSH1 0xE8 SHL DUP2 MSTORE POP DUP2 JUMP JUMPDEST PUSH2 0x221 PUSH1 0x40 MLOAD DUP1 PUSH1 0x40 ADD PUSH1 0x40 MSTORE DUP1 PUSH1 0x3 DUP2 MSTORE PUSH1 0x20 ADD PUSH3 0x323035 PUSH1 0xE8 SHL DUP2 MSTORE POP DUP2 JUMP JUMPDEST PUSH2 0x3B5 PUSH1 0x0 DUP2 JUMP JUMPDEST PUSH1 0x40 MLOAD PUSH1 0x1 PUSH1 0x1 PUSH1 0xA0 SHL SUB SWAP1 SWAP2 AND DUP2 MSTORE PUSH1 0x20 ADD PUSH2 0x22E JUMP JUMPDEST PUSH2 0x221 PUSH1 0x40 MLOAD DUP1 PUSH1 0x40 ADD PUSH1 0x40 MSTORE DUP1 PUSH1 0x3 DUP2 MSTORE PUSH1 0x20 ADD PUSH3 0x323031 PUSH1 0xE8 SHL DUP2 MSTORE POP DUP2 JUMP JUMPDEST PUSH2 0x221 PUSH1 0x40 MLOAD DUP1 PUSH1 0x40 ADD PUSH1 0x40 MSTORE DUP1 PUSH1 0x3 DUP2 MSTORE PUSH1 0x20 ADD PUSH3 0x34303 PUSH1 0xEC SHL DUP2 MSTORE POP DUP2 JUMP JUMPDEST PUSH2 0x221 PUSH1 0x40 MLOAD DUP1 PUSH1 0x40 ADD PUSH1 0x40 MSTORE DUP1 PUSH1 0x3 DUP2 MSTORE PUSH1 0x20 ADD PUSH3 0x31303 PUSH1 0xEC SHL DUP2 MSTORE POP DUP2 JUMP JUMPDEST PUSH2 0x221 PUSH1 0x40 MLOAD DUP1 PUSH1 0x40 ADD PUSH1 0x40 MSTORE DUP1 PUSH1 0x3 DUP2 MSTORE PUSH1 0x20 ADD PUSH3 0x32303 PUSH1 0xEC SHL DUP2 MSTORE POP DUP2 JUMP JUMPDEST PUSH2 0x221 PUSH1 0x40 MLOAD DUP1 PUSH1 0x40 ADD PUSH1 0x40 MSTORE DUP1 PUSH1 0x3 DUP2 MSTORE PUSH1 0x20 ADD PUSH3 0x323039 PUSH1 0xE8 SHL DUP2 MSTORE POP DUP2 JUMP JUMPDEST PUSH2 0x221 PUSH1 0x40 MLOAD DUP1 PUSH1 0x40 ADD PUSH1 0x40 MSTORE DUP1 PUSH1 0x3 DUP2 MSTORE PUSH1 0x20 ADD PUSH3 0x33303 PUSH1 0xEC SHL DUP2 MSTORE POP DUP2 JUMP JUMPDEST PUSH2 0x221 PUSH1 0x40 MLOAD DUP1 PUSH1 0x40 ADD PUSH1 0x40 MSTORE DUP1 PUSH1 0x3 DUP2 MSTORE PUSH1 0x20 ADD PUSH3 0x323037 PUSH1 0xE8 SHL DUP2 MSTORE POP DUP2 JUMP JUMPDEST PUSH2 0x221 PUSH1 0x40 MLOAD DUP1 PUSH1 0x40 ADD PUSH1 0x40 MSTORE DUP1 PUSH1 0x3 DUP2 MSTORE PUSH1 0x20 ADD PUSH3 0x189819 PUSH1 0xE9 SHL DUP2 MSTORE POP DUP2 JUMP JUMPDEST PUSH2 0x221 PUSH1 0x40 MLOAD DUP1 PUSH1 0x40 ADD PUSH1 0x40 MSTORE DUP1 PUSH1 0x3 DUP2 MSTORE PUSH1 0x20 ADD PUSH3 0x343031 PUSH1 0xE8 SHL DUP2 MSTORE POP DUP2 JUMP JUMPDEST PUSH2 0x221 PUSH1 0x40 MLOAD DUP1 PUSH1 0x40 ADD PUSH1 0x40 MSTORE DUP1 PUSH1 0x3 DUP2 MSTORE PUSH1 0x20 ADD PUSH3 0x333031 PUSH1 0xE8 SHL DUP2 MSTORE POP DUP2 JUMP JUMPDEST PUSH2 0x221 PUSH1 0x40 MLOAD DUP1 PUSH1 0x40 ADD PUSH1 0x40 MSTORE DUP1 PUSH1 0x3 DUP2 MSTORE PUSH1 0x20 ADD PUSH3 0x343033 PUSH1 0xE8 SHL DUP2 MSTORE POP DUP2 JUMP JUMPDEST PUSH2 0x221 PUSH1 0x40 MLOAD DUP1 PUSH1 0x40 ADD PUSH1 0x40 MSTORE DUP1 PUSH1 0x1 DUP2 MSTORE PUSH1 0x20 ADD PUSH1 0x3 PUSH1 0xFC SHL DUP2 MSTORE POP DUP2 JUMP JUMPDEST PUSH2 0x221 PUSH1 0x40 MLOAD DUP1 PUSH1 0x40 ADD PUSH1 0x40 MSTORE DUP1 PUSH1 0x3 DUP2 MSTORE PUSH1 0x20 ADD PUSH3 0x333037 PUSH1 0xE8 SHL DUP2 MSTORE POP DUP2 JUMP JUMPDEST PUSH2 0x221 PUSH1 0x40 MLOAD DUP1 PUSH1 0x40 ADD PUSH1 0x40 MSTORE DUP1 PUSH1 0x3 DUP2 MSTORE PUSH1 0x20 ADD PUSH3 0x323131 PUSH1 0xE8 SHL DUP2 MSTORE POP DUP2 JUMP JUMPDEST PUSH2 0x221 PUSH1 0x40 MLOAD DUP1 PUSH1 0x40 ADD PUSH1 0x40 MSTORE DUP1 PUSH1 0x3 DUP2 MSTORE PUSH1 0x20 ADD PUSH3 0xCCC0D PUSH1 0xEA SHL DUP2 MSTORE POP DUP2 JUMP JUMPDEST PUSH2 0x221 PUSH1 0x40 MLOAD DUP1 PUSH1 0x40 ADD PUSH1 0x40 MSTORE DUP1 PUSH1 0x3 DUP2 MSTORE PUSH1 0x20 ADD PUSH3 0x333039 PUSH1 0xE8 SHL DUP2 MSTORE POP DUP2 JUMP JUMPDEST PUSH2 0x221 PUSH1 0x40 MLOAD DUP1 PUSH1 0x40 ADD PUSH1 0x40 MSTORE DUP1 PUSH1 0x3 DUP2 MSTORE PUSH1 0x20 ADD PUSH3 0x32313 PUSH1 0xEC SHL DUP2 MSTORE POP DUP2 JUMP JUMPDEST PUSH2 0x221 PUSH1 0x40 MLOAD DUP1 PUSH1 0x40 ADD PUSH1 0x40 MSTORE DUP1 PUSH1 0x3 DUP2 MSTORE PUSH1 0x20 ADD PUSH3 0x1A1819 PUSH1 0xE9 SHL DUP2 MSTORE POP DUP2 JUMP JUMPDEST PUSH2 0x221 PUSH1 0x40 MLOAD DUP1 PUSH1 0x40 ADD PUSH1 0x40 MSTORE DUP1 PUSH1 0x3 DUP2 MSTORE PUSH1 0x20 ADD PUSH3 0xC8C0D PUSH1 0xEA SHL DUP2 MSTORE POP DUP2 JUMP JUMPDEST PUSH1 0x0 PUSH1 0x20 DUP1 DUP4 MSTORE DUP4 MLOAD DUP1 DUP3 DUP6 ADD MSTORE PUSH1 0x0 JUMPDEST DUP2 DUP2 LT ISZERO PUSH2 0x67E JUMPI DUP6 DUP2 ADD DUP4 ADD MLOAD DUP6 DUP3 ADD PUSH1 0x40 ADD MSTORE DUP3 ADD PUSH2 0x662 JUMP JUMPDEST DUP2 DUP2 GT ISZERO PUSH2 0x690 JUMPI PUSH1 0x0 PUSH1 0x40 DUP4 DUP8 ADD ADD MSTORE JUMPDEST POP PUSH1 0x1F ADD PUSH1 0x1F NOT AND SWAP3 SWAP1 SWAP3 ADD PUSH1 0x40 ADD SWAP4 SWAP3 POP POP POP JUMP INVALID LOG2 PUSH5 0x6970667358 0x22 SLT KECCAK256 JUMP 0xD8 STATICCALL 0x4F 0xE5 SLOAD RETURNDATACOPY CALLER 0xB6 ADDRESS SAR 0xEB SWAP7 0xC5 MSTORE RETURNDATACOPY 0xBA 0x4C 0x25 CALLCODE SWAP9 MSTORE DUP6 0xDB DUP15 SHL 0xB1 0xCD PUSH5 0x31D0586473 PUSH16 0x6C634300080C00330000000000000000 "},"methodIdentifiers":{"DAO_VESTING_ERROR_ADDR()":"f9e93731","ERC20_BALANCE_INVALID()":"e81216b5","ERC20_NOT_APPROVED()":"35a02d73","ERC_20_NOT_ALLOW()":"d5bec685","ERC_721_NOT_APPROVED()":"c059011b","FORBIDDEN_TRANSFER_PROJECT()":"ef494c25","INVALID_ERC721_OWNER()":"90131fab","INV_ADD()":"72670508","INV_FEE_PROJECT()":"652b7f31","INV_PARAMS()":"feff83c3","INV_PROJECT()":"38abf0c9","INV_TOKEN()":"8cb739c6","MISSING_NAME()":"86f8148f","OFFERING_CLOSED()":"2b72ddbd","ONLY_ADMIN_ALLOWED()":"552e387c","ONLY_CREATOR()":"b746287b","ONLY_GENERATIVE_PROJECT()":"dc18263c","OPENING_SCHEDULE()":"3a13248f","POA_INVALID_TOKEN()":"6a137674","REACH_MAX()":"23312297","SUCCESS()":"d0a6d1a6","TEAM_VESTING_ERROR_ADDR()":"b92436e0","TOKEN_HAS_SEED()":"143c1c36","TOO_HIGH()":"585c081c","TRANSFER_FAIL()":"07475084","VALUE_INVALID()":"5560f1f8","VESTING_REMAIN()":"243c1d6d","VESTING_TIME_LOCK()":"c3679ee5","ZERO_ADDR()":"63731080","ZERO_DURATION()":"ec94a577","ZERO_PRICE()":"1557ff24","ZERO_SEED()":"9bf3cfe3"}},"storageLayout":{"storage":[],"types":null}}}}