{"@openzeppelin/contracts-upgradeable/token/ERC721/presets/ERC721PresetMinterPauserAutoIdUpgradeable.sol":{"ERC721PresetMinterPauserAutoIdUpgradeable":{"abi":[{"anonymous":false,"inputs":[{"indexed":true,"internalType":"address","name":"owner","type":"address"},{"indexed":true,"internalType":"address","name":"approved","type":"address"},{"indexed":true,"internalType":"uint256","name":"tokenId","type":"uint256"}],"name":"Approval","type":"event"},{"anonymous":false,"inputs":[{"indexed":true,"internalType":"address","name":"owner","type":"address"},{"indexed":true,"internalType":"address","name":"operator","type":"address"},{"indexed":false,"internalType":"bool","name":"approved","type":"bool"}],"name":"ApprovalForAll","type":"event"},{"anonymous":false,"inputs":[{"indexed":false,"internalType":"uint8","name":"version","type":"uint8"}],"name":"Initialized","type":"event"},{"anonymous":false,"inputs":[{"indexed":false,"internalType":"address","name":"account","type":"address"}],"name":"Paused","type":"event"},{"anonymous":false,"inputs":[{"indexed":true,"internalType":"bytes32","name":"role","type":"bytes32"},{"indexed":true,"internalType":"bytes32","name":"previousAdminRole","type":"bytes32"},{"indexed":true,"internalType":"bytes32","name":"newAdminRole","type":"bytes32"}],"name":"RoleAdminChanged","type":"event"},{"anonymous":false,"inputs":[{"indexed":true,"internalType":"bytes32","name":"role","type":"bytes32"},{"indexed":true,"internalType":"address","name":"account","type":"address"},{"indexed":true,"internalType":"address","name":"sender","type":"address"}],"name":"RoleGranted","type":"event"},{"anonymous":false,"inputs":[{"indexed":true,"internalType":"bytes32","name":"role","type":"bytes32"},{"indexed":true,"internalType":"address","name":"account","type":"address"},{"indexed":true,"internalType":"address","name":"sender","type":"address"}],"name":"RoleRevoked","type":"event"},{"anonymous":false,"inputs":[{"indexed":true,"internalType":"address","name":"from","type":"address"},{"indexed":true,"internalType":"address","name":"to","type":"address"},{"indexed":true,"internalType":"uint256","name":"tokenId","type":"uint256"}],"name":"Transfer","type":"event"},{"anonymous":false,"inputs":[{"indexed":false,"internalType":"address","name":"account","type":"address"}],"name":"Unpaused","type":"event"},{"inputs":[],"name":"DEFAULT_ADMIN_ROLE","outputs":[{"internalType":"bytes32","name":"","type":"bytes32"}],"stateMutability":"view","type":"function"},{"inputs":[],"name":"MINTER_ROLE","outputs":[{"internalType":"bytes32","name":"","type":"bytes32"}],"stateMutability":"view","type":"function"},{"inputs":[],"name":"PAUSER_ROLE","outputs":[{"internalType":"bytes32","name":"","type":"bytes32"}],"stateMutability":"view","type":"function"},{"inputs":[{"internalType":"address","name":"to","type":"address"},{"internalType":"uint256","name":"tokenId","type":"uint256"}],"name":"approve","outputs":[],"stateMutability":"nonpayable","type":"function"},{"inputs":[{"internalType":"address","name":"owner","type":"address"}],"name":"balanceOf","outputs":[{"internalType":"uint256","name":"","type":"uint256"}],"stateMutability":"view","type":"function"},{"inputs":[{"internalType":"uint256","name":"tokenId","type":"uint256"}],"name":"burn","outputs":[],"stateMutability":"nonpayable","type":"function"},{"inputs":[{"internalType":"uint256","name":"tokenId","type":"uint256"}],"name":"getApproved","outputs":[{"internalType":"address","name":"","type":"address"}],"stateMutability":"view","type":"function"},{"inputs":[{"internalType":"bytes32","name":"role","type":"bytes32"}],"name":"getRoleAdmin","outputs":[{"internalType":"bytes32","name":"","type":"bytes32"}],"stateMutability":"view","type":"function"},{"inputs":[{"internalType":"bytes32","name":"role","type":"bytes32"},{"internalType":"uint256","name":"index","type":"uint256"}],"name":"getRoleMember","outputs":[{"internalType":"address","name":"","type":"address"}],"stateMutability":"view","type":"function"},{"inputs":[{"internalType":"bytes32","name":"role","type":"bytes32"}],"name":"getRoleMemberCount","outputs":[{"internalType":"uint256","name":"","type":"uint256"}],"stateMutability":"view","type":"function"},{"inputs":[{"internalType":"bytes32","name":"role","type":"bytes32"},{"internalType":"address","name":"account","type":"address"}],"name":"grantRole","outputs":[],"stateMutability":"nonpayable","type":"function"},{"inputs":[{"internalType":"bytes32","name":"role","type":"bytes32"},{"internalType":"address","name":"account","type":"address"}],"name":"hasRole","outputs":[{"internalType":"bool","name":"","type":"bool"}],"stateMutability":"view","type":"function"},{"inputs":[{"internalType":"string","name":"name","type":"string"},{"internalType":"string","name":"symbol","type":"string"},{"internalType":"string","name":"baseTokenURI","type":"string"}],"name":"initialize","outputs":[],"stateMutability":"nonpayable","type":"function"},{"inputs":[{"internalType":"address","name":"owner","type":"address"},{"internalType":"address","name":"operator","type":"address"}],"name":"isApprovedForAll","outputs":[{"internalType":"bool","name":"","type":"bool"}],"stateMutability":"view","type":"function"},{"inputs":[{"internalType":"address","name":"to","type":"address"}],"name":"mint","outputs":[],"stateMutability":"nonpayable","type":"function"},{"inputs":[],"name":"name","outputs":[{"internalType":"string","name":"","type":"string"}],"stateMutability":"view","type":"function"},{"inputs":[{"internalType":"uint256","name":"tokenId","type":"uint256"}],"name":"ownerOf","outputs":[{"internalType":"address","name":"","type":"address"}],"stateMutability":"view","type":"function"},{"inputs":[],"name":"pause","outputs":[],"stateMutability":"nonpayable","type":"function"},{"inputs":[],"name":"paused","outputs":[{"internalType":"bool","name":"","type":"bool"}],"stateMutability":"view","type":"function"},{"inputs":[{"internalType":"bytes32","name":"role","type":"bytes32"},{"internalType":"address","name":"account","type":"address"}],"name":"renounceRole","outputs":[],"stateMutability":"nonpayable","type":"function"},{"inputs":[{"internalType":"bytes32","name":"role","type":"bytes32"},{"internalType":"address","name":"account","type":"address"}],"name":"revokeRole","outputs":[],"stateMutability":"nonpayable","type":"function"},{"inputs":[{"internalType":"address","name":"from","type":"address"},{"internalType":"address","name":"to","type":"address"},{"internalType":"uint256","name":"tokenId","type":"uint256"}],"name":"safeTransferFrom","outputs":[],"stateMutability":"nonpayable","type":"function"},{"inputs":[{"internalType":"address","name":"from","type":"address"},{"internalType":"address","name":"to","type":"address"},{"internalType":"uint256","name":"tokenId","type":"uint256"},{"internalType":"bytes","name":"data","type":"bytes"}],"name":"safeTransferFrom","outputs":[],"stateMutability":"nonpayable","type":"function"},{"inputs":[{"internalType":"address","name":"operator","type":"address"},{"internalType":"bool","name":"approved","type":"bool"}],"name":"setApprovalForAll","outputs":[],"stateMutability":"nonpayable","type":"function"},{"inputs":[{"internalType":"bytes4","name":"interfaceId","type":"bytes4"}],"name":"supportsInterface","outputs":[{"internalType":"bool","name":"","type":"bool"}],"stateMutability":"view","type":"function"},{"inputs":[],"name":"symbol","outputs":[{"internalType":"string","name":"","type":"string"}],"stateMutability":"view","type":"function"},{"inputs":[{"internalType":"uint256","name":"index","type":"uint256"}],"name":"tokenByIndex","outputs":[{"internalType":"uint256","name":"","type":"uint256"}],"stateMutability":"view","type":"function"},{"inputs":[{"internalType":"address","name":"owner","type":"address"},{"internalType":"uint256","name":"index","type":"uint256"}],"name":"tokenOfOwnerByIndex","outputs":[{"internalType":"uint256","name":"","type":"uint256"}],"stateMutability":"view","type":"function"},{"inputs":[{"internalType":"uint256","name":"tokenId","type":"uint256"}],"name":"tokenURI","outputs":[{"internalType":"string","name":"","type":"string"}],"stateMutability":"view","type":"function"},{"inputs":[],"name":"totalSupply","outputs":[{"internalType":"uint256","name":"","type":"uint256"}],"stateMutability":"view","type":"function"},{"inputs":[{"internalType":"address","name":"from","type":"address"},{"internalType":"address","name":"to","type":"address"},{"internalType":"uint256","name":"tokenId","type":"uint256"}],"name":"transferFrom","outputs":[],"stateMutability":"nonpayable","type":"function"},{"inputs":[],"name":"unpause","outputs":[],"stateMutability":"nonpayable","type":"function"}],"evm":{"bytecode":{"linkReferences":{},"object":"608060405234801561001057600080fd5b50612a1f806100206000396000f3fe608060405234801561001057600080fd5b50600436106101f05760003560e01c80636a6278421161010f578063a6487c53116100a2578063d539139311610071578063d539139314610416578063d547741f1461043d578063e63ab1e914610450578063e985e9c51461046557600080fd5b8063a6487c53146103ca578063b88d4fde146103dd578063c87b56dd146103f0578063ca15c8731461040357600080fd5b806391d14854116100de57806391d148541461039457806395d89b41146103a7578063a217fddf146103af578063a22cb465146103b757600080fd5b80636a6278421461035357806370a08231146103665780638456cb59146103795780639010d07c1461038157600080fd5b80632f745c591161018757806342966c681161015657806342966c681461030e5780634f6ccce7146103215780635c975abb146103345780636352211e1461034057600080fd5b80632f745c59146102cd57806336568abe146102e05780633f4ba83a146102f357806342842e0e146102fb57600080fd5b806318160ddd116101c357806318160ddd1461027257806323b872dd14610284578063248a9ca3146102975780632f2ff15d146102ba57600080fd5b806301ffc9a7146101f557806306fdde031461021d578063081812fc14610232578063095ea7b31461025d575b600080fd5b610208610203366004612318565b6104a1565b60405190151581526020015b60405180910390f35b6102256104b2565b604051610214919061238d565b6102456102403660046123a0565b610544565b6040516001600160a01b039091168152602001610214565b61027061026b3660046123d5565b61056b565b005b60fd545b604051908152602001610214565b6102706102923660046123ff565b610686565b6102766102a53660046123a0565b60009081526065602052604090206001015490565b6102706102c836600461243b565b6106b8565b6102766102db3660046123d5565b6106dd565b6102706102ee36600461243b565b610773565b6102706107f1565b6102706103093660046123ff565b610887565b61027061031c3660046123a0565b6108a2565b61027661032f3660046123a0565b6108d3565b61015f5460ff16610208565b61024561034e3660046123a0565b610966565b610270610361366004612467565b6109c6565b610276610374366004612467565b610a84565b610270610b0a565b61024561038f366004612482565b610b9c565b6102086103a236600461243b565b610bbb565b610225610be6565b610276600081565b6102706103c53660046124a4565b610bf5565b6102706103d836600461258c565b610c00565b6102706103eb366004612614565b610d17565b6102256103fe3660046123a0565b610d49565b6102766104113660046123a0565b610daf565b6102767f9f2df0fed2c77648de5860a4cc508cd0818c85b8b8a1ab4ceeef8d981c8956a681565b61027061044b36600461243b565b610dc6565b6102766000805160206129ca83398151915281565b610208610473366004612690565b6001600160a01b03918216600090815260ce6020908152604080832093909416825291909152205460ff1690565b60006104ac82610deb565b92915050565b606060c980546104c1906126ba565b80601f01602080910402602001604051908101604052809291908181526020018280546104ed906126ba565b801561053a5780601f1061050f5761010080835404028352916020019161053a565b820191906000526020600020905b81548152906001019060200180831161051d57829003601f168201915b5050505050905090565b600061054f82610e10565b50600090815260cd60205260409020546001600160a01b031690565b600061057682610966565b9050806001600160a01b0316836001600160a01b031614156105e95760405162461bcd60e51b815260206004820152602160248201527f4552433732313a20617070726f76616c20746f2063757272656e74206f776e656044820152603960f91b60648201526084015b60405180910390fd5b336001600160a01b038216148061060557506106058133610473565b6106775760405162461bcd60e51b815260206004820152603d60248201527f4552433732313a20617070726f76652063616c6c6572206973206e6f7420746f60448201527f6b656e206f776e6572206f7220617070726f76656420666f7220616c6c00000060648201526084016105e0565b6106818383610e6f565b505050565b610691335b82610edd565b6106ad5760405162461bcd60e51b81526004016105e0906126f5565b610681838383610f5c565b6000828152606560205260409020600101546106d3816110cd565b61068183836110d7565b60006106e883610a84565b821061074a5760405162461bcd60e51b815260206004820152602b60248201527f455243373231456e756d657261626c653a206f776e657220696e646578206f7560448201526a74206f6620626f756e647360a81b60648201526084016105e0565b506001600160a01b0391909116600090815260fb60209081526040808320938352929052205490565b6001600160a01b03811633146107e35760405162461bcd60e51b815260206004820152602f60248201527f416363657373436f6e74726f6c3a2063616e206f6e6c792072656e6f756e636560448201526e103937b632b9903337b91039b2b63360891b60648201526084016105e0565b6107ed82826110f9565b5050565b6108096000805160206129ca83398151915233610bbb565b61087d576040805162461bcd60e51b81526020600482015260248101919091527f4552433732315072657365744d696e7465725061757365724175746f49643a2060448201527f6d75737420686176652070617573657220726f6c6520746f20756e706175736560648201526084016105e0565b61088561111b565b565b61068183838360405180602001604052806000815250610d17565b6108ab3361068b565b6108c75760405162461bcd60e51b81526004016105e0906126f5565b6108d08161116e565b50565b60006108de60fd5490565b82106109415760405162461bcd60e51b815260206004820152602c60248201527f455243373231456e756d657261626c653a20676c6f62616c20696e646578206f60448201526b7574206f6620626f756e647360a01b60648201526084016105e0565b60fd828154811061095457610954612742565b90600052602060002001549050919050565b600081815260cb60205260408120546001600160a01b0316806104ac5760405162461bcd60e51b8152602060048201526018602482015277115490cdcc8c4e881a5b9d985b1a59081d1bdad95b88125160421b60448201526064016105e0565b6109f07f9f2df0fed2c77648de5860a4cc508cd0818c85b8b8a1ab4ceeef8d981c8956a633610bbb565b610a625760405162461bcd60e51b815260206004820152603d60248201527f4552433732315072657365744d696e7465725061757365724175746f49643a2060448201527f6d7573742068617665206d696e74657220726f6c6520746f206d696e7400000060648201526084016105e0565b610a7581610a706101c35490565b611211565b6108d06101c380546001019055565b60006001600160a01b038216610aee5760405162461bcd60e51b815260206004820152602960248201527f4552433732313a2061646472657373207a65726f206973206e6f7420612076616044820152683634b21037bbb732b960b91b60648201526084016105e0565b506001600160a01b0316600090815260cc602052604090205490565b610b226000805160206129ca83398151915233610bbb565b610b945760405162461bcd60e51b815260206004820152603e60248201527f4552433732315072657365744d696e7465725061757365724175746f49643a2060448201527f6d75737420686176652070617573657220726f6c6520746f207061757365000060648201526084016105e0565b6108856113aa565b6000828152609760205260408120610bb490836113e8565b9392505050565b60009182526065602090815260408084206001600160a01b0393909316845291905290205460ff1690565b606060ca80546104c1906126ba565b6107ed3383836113f4565b600054610100900460ff1615808015610c205750600054600160ff909116105b80610c3a5750303b158015610c3a575060005460ff166001145b610c9d5760405162461bcd60e51b815260206004820152602e60248201527f496e697469616c697a61626c653a20636f6e747261637420697320616c72656160448201526d191e481a5b9a5d1a585b1a5e995960921b60648201526084016105e0565b6000805460ff191660011790558015610cc0576000805461ff0019166101001790555b610ccb8484846114c3565b8015610d11576000805461ff0019169055604051600181527f7f26b83ff96e1f2b6a682f133852f6798a09c465da95921460cefb38474024989060200160405180910390a15b50505050565b610d213383610edd565b610d3d5760405162461bcd60e51b81526004016105e0906126f5565b610d1184848484611507565b6060610d5482610e10565b6000610d5e61153a565b90506000815111610d7e5760405180602001604052806000815250610bb4565b80610d888461154a565b604051602001610d99929190612758565b6040516020818303038152906040529392505050565b60008181526097602052604081206104ac906115e7565b600082815260656020526040902060010154610de1816110cd565b61068183836110f9565b60006001600160e01b0319821663780e9d6360e01b14806104ac57506104ac826115f1565b600081815260cb60205260409020546001600160a01b03166108d05760405162461bcd60e51b8152602060048201526018602482015277115490cdcc8c4e881a5b9d985b1a59081d1bdad95b88125160421b60448201526064016105e0565b600081815260cd6020526040902080546001600160a01b0319166001600160a01b0384169081179091558190610ea482610966565b6001600160a01b03167f8c5be1e5ebec7d5bd14f71427d1e84f3dd0314c0f7b2291e5b200ac8c7c3b92560405160405180910390a45050565b600080610ee983610966565b9050806001600160a01b0316846001600160a01b03161480610f3057506001600160a01b03808216600090815260ce602090815260408083209388168352929052205460ff165b80610f545750836001600160a01b0316610f4984610544565b6001600160a01b0316145b949350505050565b826001600160a01b0316610f6f82610966565b6001600160a01b031614610f955760405162461bcd60e51b81526004016105e090612787565b6001600160a01b038216610ff75760405162461bcd60e51b8152602060048201526024808201527f4552433732313a207472616e7366657220746f20746865207a65726f206164646044820152637265737360e01b60648201526084016105e0565b6110048383836001611631565b826001600160a01b031661101782610966565b6001600160a01b03161461103d5760405162461bcd60e51b81526004016105e090612787565b600081815260cd6020908152604080832080546001600160a01b03199081169091556001600160a01b0387811680865260cc855283862080546000190190559087168086528386208054600101905586865260cb90945282852080549092168417909155905184937fddf252ad1be2c89b69c2b068fc378daa952ba7f163c4a11628f55a4df523b3ef91a4505050565b6108d0813361163d565b6110e18282611696565b6000828152609760205260409020610681908261171c565b6111038282611731565b60008281526097602052604090206106819082611798565b6111236117ad565b61015f805460ff191690557f5db9ee0a495bf2e6ff9c91a7834c1ba4fdd244a5e8aa4e537bd38aeae4b073aa335b6040516001600160a01b03909116815260200160405180910390a1565b600061117982610966565b9050611189816000846001611631565b61119282610966565b600083815260cd6020908152604080832080546001600160a01b03199081169091556001600160a01b03851680855260cc8452828520805460001901905587855260cb909352818420805490911690555192935084927fddf252ad1be2c89b69c2b068fc378daa952ba7f163c4a11628f55a4df523b3ef908390a45050565b6001600160a01b0382166112675760405162461bcd60e51b815260206004820181905260248201527f4552433732313a206d696e7420746f20746865207a65726f206164647265737360448201526064016105e0565b600081815260cb60205260409020546001600160a01b0316156112cc5760405162461bcd60e51b815260206004820152601c60248201527f4552433732313a20746f6b656e20616c7265616479206d696e7465640000000060448201526064016105e0565b6112da600083836001611631565b600081815260cb60205260409020546001600160a01b03161561133f5760405162461bcd60e51b815260206004820152601c60248201527f4552433732313a20746f6b656e20616c7265616479206d696e7465640000000060448201526064016105e0565b6001600160a01b038216600081815260cc602090815260408083208054600101905584835260cb90915280822080546001600160a01b0319168417905551839291907fddf252ad1be2c89b69c2b068fc378daa952ba7f163c4a11628f55a4df523b3ef908290a45050565b6113b26117f7565b61015f805460ff191660011790557f62e78cea01bee320cd4e420270b5ea74000d11b0c9f74754ebdbfc544b05a2586111513390565b6000610bb4838361183e565b816001600160a01b0316836001600160a01b031614156114565760405162461bcd60e51b815260206004820152601960248201527f4552433732313a20617070726f766520746f2063616c6c65720000000000000060448201526064016105e0565b6001600160a01b03838116600081815260ce6020908152604080832094871680845294825291829020805460ff191686151590811790915591519182527f17307eab39ab6107e8899845ad3d59bd9653f200f220920489ca2b5937696c31910160405180910390a3505050565b600054610100900460ff166114ea5760405162461bcd60e51b81526004016105e0906127cc565b6114f48383611868565b6114fc6118b6565b6106818383836118ea565b611512848484610f5c565b61151e84848484611973565b610d115760405162461bcd60e51b81526004016105e090612817565b60606101c480546104c1906126ba565b6060600061155783611a71565b600101905060008167ffffffffffffffff811115611577576115776124e0565b6040519080825280601f01601f1916602001820160405280156115a1576020820181803683370190505b5090508181016020015b600019016f181899199a1a9b1b9c1cb0b131b232b360811b600a86061a8153600a85049450846115da576115df565b6115ab565b509392505050565b60006104ac825490565b60006001600160e01b031982166380ac58cd60e01b148061162257506001600160e01b03198216635b5e139f60e01b145b806104ac57506104ac82611b49565b610d1184848484611b6e565b6116478282610bbb565b6107ed5761165481611be2565b61165f836020611bf4565b604051602001611670929190612869565b60408051601f198184030181529082905262461bcd60e51b82526105e09160040161238d565b6116a08282610bbb565b6107ed5760008281526065602090815260408083206001600160a01b03851684529091529020805460ff191660011790556116d83390565b6001600160a01b0316816001600160a01b0316837f2f8788117e7eff1d82e926ec794901d17c78024a50270940304540a733656f0d60405160405180910390a45050565b6000610bb4836001600160a01b038416611d90565b61173b8282610bbb565b156107ed5760008281526065602090815260408083206001600160a01b0385168085529252808320805460ff1916905551339285917ff6391f5c32d9c69d2a47ea670b442974b53935d1edc7fd64eb21e047a839171b9190a45050565b6000610bb4836001600160a01b038416611ddf565b61015f5460ff166108855760405162461bcd60e51b815260206004820152601460248201527314185d5cd8589b194e881b9bdd081c185d5cd95960621b60448201526064016105e0565b61015f5460ff16156108855760405162461bcd60e51b815260206004820152601060248201526f14185d5cd8589b194e881c185d5cd95960821b60448201526064016105e0565b600082600001828154811061185557611855612742565b9060005260206000200154905092915050565b600054610100900460ff1661188f5760405162461bcd60e51b81526004016105e0906127cc565b81516118a29060c9906020850190612269565b5080516106819060ca906020840190612269565b600054610100900460ff166118dd5760405162461bcd60e51b81526004016105e0906127cc565b61015f805460ff19169055565b600054610100900460ff166119115760405162461bcd60e51b81526004016105e0906127cc565b8051611925906101c4906020840190612269565b50611931600033611ed2565b61195b7f9f2df0fed2c77648de5860a4cc508cd0818c85b8b8a1ab4ceeef8d981c8956a633611ed2565b6106816000805160206129ca83398151915233611ed2565b60006001600160a01b0384163b15611a6657604051630a85bd0160e11b81526001600160a01b0385169063150b7a02906119b79033908990889088906004016128de565b6020604051808303816000875af19250505080156119f2575060408051601f3d908101601f191682019092526119ef9181019061291b565b60015b611a4c573d808015611a20576040519150601f19603f3d011682016040523d82523d6000602084013e611a25565b606091505b508051611a445760405162461bcd60e51b81526004016105e090612817565b805181602001fd5b6001600160e01b031916630a85bd0160e11b149050610f54565b506001949350505050565b60008072184f03e93ff9f4daa797ed6e38ed64bf6a1f0160401b8310611ab05772184f03e93ff9f4daa797ed6e38ed64bf6a1f0160401b830492506040015b6d04ee2d6d415b85acef81000000008310611adc576d04ee2d6d415b85acef8100000000830492506020015b662386f26fc100008310611afa57662386f26fc10000830492506010015b6305f5e1008310611b12576305f5e100830492506008015b6127108310611b2657612710830492506004015b60648310611b38576064830492506002015b600a83106104ac5760010192915050565b60006001600160e01b03198216635a05180f60e01b14806104ac57506104ac82611edc565b611b7a84848484611f11565b61015f5460ff1615610d115760405162461bcd60e51b815260206004820152602b60248201527f4552433732315061757361626c653a20746f6b656e207472616e73666572207760448201526a1a1a5b19481c185d5cd95960aa1b60648201526084016105e0565b60606104ac6001600160a01b03831660145b60606000611c0383600261294e565b611c0e90600261296d565b67ffffffffffffffff811115611c2657611c266124e0565b6040519080825280601f01601f191660200182016040528015611c50576020820181803683370190505b509050600360fc1b81600081518110611c6b57611c6b612742565b60200101906001600160f81b031916908160001a905350600f60fb1b81600181518110611c9a57611c9a612742565b60200101906001600160f81b031916908160001a9053506000611cbe84600261294e565b611cc990600161296d565b90505b6001811115611d41576f181899199a1a9b1b9c1cb0b131b232b360811b85600f1660108110611cfd57611cfd612742565b1a60f81b828281518110611d1357611d13612742565b60200101906001600160f81b031916908160001a90535060049490941c93611d3a81612985565b9050611ccc565b508315610bb45760405162461bcd60e51b815260206004820181905260248201527f537472696e67733a20686578206c656e67746820696e73756666696369656e7460448201526064016105e0565b6000818152600183016020526040812054611dd7575081546001818101845560008481526020808220909301849055845484825282860190935260409020919091556104ac565b5060006104ac565b60008181526001830160205260408120548015611ec8576000611e0360018361299c565b8554909150600090611e179060019061299c565b9050818114611e7c576000866000018281548110611e3757611e37612742565b9060005260206000200154905080876000018481548110611e5a57611e5a612742565b6000918252602080832090910192909255918252600188019052604090208390555b8554869080611e8d57611e8d6129b3565b6001900381819060005260206000200160009055905585600101600086815260200190815260200160002060009055600193505050506104ac565b60009150506104ac565b6107ed82826110d7565b60006001600160e01b03198216637965db0b60e01b14806104ac57506301ffc9a760e01b6001600160e01b03198316146104ac565b611f1d84848484612051565b6001811115611f8c5760405162461bcd60e51b815260206004820152603560248201527f455243373231456e756d657261626c653a20636f6e7365637574697665207472604482015274185b9cd9995c9cc81b9bdd081cdd5c1c1bdc9d1959605a1b60648201526084016105e0565b816001600160a01b038516611fe857611fe38160fd8054600083815260fe60205260408120829055600182018355919091527f9346ac6dd7de6b96975fec380d4d994c4c12e6a8897544f22915316cc6cca2800155565b61200b565b836001600160a01b0316856001600160a01b03161461200b5761200b85826120d9565b6001600160a01b0384166120275761202281612176565b61204a565b846001600160a01b0316846001600160a01b03161461204a5761204a8482612225565b5050505050565b6001811115610d11576001600160a01b03841615612097576001600160a01b038416600090815260cc60205260408120805483929061209190849061299c565b90915550505b6001600160a01b03831615610d11576001600160a01b038316600090815260cc6020526040812080548392906120ce90849061296d565b909155505050505050565b600060016120e684610a84565b6120f0919061299c565b600083815260fc6020526040902054909150808214612143576001600160a01b038416600090815260fb60209081526040808320858452825280832054848452818420819055835260fc90915290208190555b50600091825260fc602090815260408084208490556001600160a01b03909416835260fb81528383209183525290812055565b60fd546000906121889060019061299c565b600083815260fe602052604081205460fd80549394509092849081106121b0576121b0612742565b906000526020600020015490508060fd83815481106121d1576121d1612742565b600091825260208083209091019290925582815260fe909152604080822084905585825281205560fd805480612209576122096129b3565b6001900381819060005260206000200160009055905550505050565b600061223083610a84565b6001600160a01b03909316600090815260fb60209081526040808320868452825280832085905593825260fc9052919091209190915550565b828054612275906126ba565b90600052602060002090601f01602090048101928261229757600085556122dd565b82601f106122b057805160ff19168380011785556122dd565b828001600101855582156122dd579182015b828111156122dd5782518255916020019190600101906122c2565b506122e99291506122ed565b5090565b5b808211156122e957600081556001016122ee565b6001600160e01b0319811681146108d057600080fd5b60006020828403121561232a57600080fd5b8135610bb481612302565b60005b83811015612350578181015183820152602001612338565b83811115610d115750506000910152565b60008151808452612379816020860160208601612335565b601f01601f19169290920160200192915050565b602081526000610bb46020830184612361565b6000602082840312156123b257600080fd5b5035919050565b80356001600160a01b03811681146123d057600080fd5b919050565b600080604083850312156123e857600080fd5b6123f1836123b9565b946020939093013593505050565b60008060006060848603121561241457600080fd5b61241d846123b9565b925061242b602085016123b9565b9150604084013590509250925092565b6000806040838503121561244e57600080fd5b8235915061245e602084016123b9565b90509250929050565b60006020828403121561247957600080fd5b610bb4826123b9565b6000806040838503121561249557600080fd5b50508035926020909101359150565b600080604083850312156124b757600080fd5b6124c0836123b9565b9150602083013580151581146124d557600080fd5b809150509250929050565b634e487b7160e01b600052604160045260246000fd5b600067ffffffffffffffff80841115612511576125116124e0565b604051601f8501601f19908116603f01168101908282118183101715612539576125396124e0565b8160405280935085815286868601111561255257600080fd5b858560208301376000602087830101525050509392505050565b600082601f83011261257d57600080fd5b610bb4838335602085016124f6565b6000806000606084860312156125a157600080fd5b833567ffffffffffffffff808211156125b957600080fd5b6125c58783880161256c565b945060208601359150808211156125db57600080fd5b6125e78783880161256c565b935060408601359150808211156125fd57600080fd5b5061260a8682870161256c565b9150509250925092565b6000806000806080858703121561262a57600080fd5b612633856123b9565b9350612641602086016123b9565b925060408501359150606085013567ffffffffffffffff81111561266457600080fd5b8501601f8101871361267557600080fd5b612684878235602084016124f6565b91505092959194509250565b600080604083850312156126a357600080fd5b6126ac836123b9565b915061245e602084016123b9565b600181811c908216806126ce57607f821691505b602082108114156126ef57634e487b7160e01b600052602260045260246000fd5b50919050565b6020808252602d908201527f4552433732313a2063616c6c6572206973206e6f7420746f6b656e206f776e6560408201526c1c881bdc88185c1c1c9bdd9959609a1b606082015260800190565b634e487b7160e01b600052603260045260246000fd5b6000835161276a818460208801612335565b83519083019061277e818360208801612335565b01949350505050565b60208082526025908201527f4552433732313a207472616e736665722066726f6d20696e636f72726563742060408201526437bbb732b960d91b606082015260800190565b6020808252602b908201527f496e697469616c697a61626c653a20636f6e7472616374206973206e6f74206960408201526a6e697469616c697a696e6760a81b606082015260800190565b60208082526032908201527f4552433732313a207472616e7366657220746f206e6f6e20455243373231526560408201527131b2b4bb32b91034b6b83632b6b2b73a32b960711b606082015260800190565b7f416363657373436f6e74726f6c3a206163636f756e74200000000000000000008152600083516128a1816017850160208801612335565b7001034b99036b4b9b9b4b733903937b6329607d1b60179184019182015283516128d2816028840160208801612335565b01602801949350505050565b6001600160a01b038581168252841660208201526040810183905260806060820181905260009061291190830184612361565b9695505050505050565b60006020828403121561292d57600080fd5b8151610bb481612302565b634e487b7160e01b600052601160045260246000fd5b600081600019048311821515161561296857612968612938565b500290565b6000821982111561298057612980612938565b500190565b60008161299457612994612938565b506000190190565b6000828210156129ae576129ae612938565b500390565b634e487b7160e01b600052603160045260246000fdfe65d7a28e3265b37a6474929f336521b332c1681b933f6cb9f3376673440d862aa2646970667358221220bd02e2035b2370602adc2f15ce448e0a2847c43f58082157791e5406391a1a1b64736f6c634300080c0033","opcodes":"PUSH1 0x80 PUSH1 0x40 MSTORE CALLVALUE DUP1 ISZERO PUSH2 0x10 JUMPI PUSH1 0x0 DUP1 REVERT JUMPDEST POP PUSH2 0x2A1F DUP1 PUSH2 0x20 PUSH1 0x0 CODECOPY PUSH1 0x0 RETURN INVALID PUSH1 0x80 PUSH1 0x40 MSTORE CALLVALUE DUP1 ISZERO PUSH2 0x10 JUMPI PUSH1 0x0 DUP1 REVERT JUMPDEST POP PUSH1 0x4 CALLDATASIZE LT PUSH2 0x1F0 JUMPI PUSH1 0x0 CALLDATALOAD PUSH1 0xE0 SHR DUP1 PUSH4 0x6A627842 GT PUSH2 0x10F JUMPI DUP1 PUSH4 0xA6487C53 GT PUSH2 0xA2 JUMPI DUP1 PUSH4 0xD5391393 GT PUSH2 0x71 JUMPI DUP1 PUSH4 0xD5391393 EQ PUSH2 0x416 JUMPI DUP1 PUSH4 0xD547741F EQ PUSH2 0x43D JUMPI DUP1 PUSH4 0xE63AB1E9 EQ PUSH2 0x450 JUMPI DUP1 PUSH4 0xE985E9C5 EQ PUSH2 0x465 JUMPI PUSH1 0x0 DUP1 REVERT JUMPDEST DUP1 PUSH4 0xA6487C53 EQ PUSH2 0x3CA JUMPI DUP1 PUSH4 0xB88D4FDE EQ PUSH2 0x3DD JUMPI DUP1 PUSH4 0xC87B56DD EQ PUSH2 0x3F0 JUMPI DUP1 PUSH4 0xCA15C873 EQ PUSH2 0x403 JUMPI PUSH1 0x0 DUP1 REVERT JUMPDEST DUP1 PUSH4 0x91D14854 GT PUSH2 0xDE JUMPI DUP1 PUSH4 0x91D14854 EQ PUSH2 0x394 JUMPI DUP1 PUSH4 0x95D89B41 EQ PUSH2 0x3A7 JUMPI DUP1 PUSH4 0xA217FDDF EQ PUSH2 0x3AF JUMPI DUP1 PUSH4 0xA22CB465 EQ PUSH2 0x3B7 JUMPI PUSH1 0x0 DUP1 REVERT JUMPDEST DUP1 PUSH4 0x6A627842 EQ PUSH2 0x353 JUMPI DUP1 PUSH4 0x70A08231 EQ PUSH2 0x366 JUMPI DUP1 PUSH4 0x8456CB59 EQ PUSH2 0x379 JUMPI DUP1 PUSH4 0x9010D07C EQ PUSH2 0x381 JUMPI PUSH1 0x0 DUP1 REVERT JUMPDEST DUP1 PUSH4 0x2F745C59 GT PUSH2 0x187 JUMPI DUP1 PUSH4 0x42966C68 GT PUSH2 0x156 JUMPI DUP1 PUSH4 0x42966C68 EQ PUSH2 0x30E JUMPI DUP1 PUSH4 0x4F6CCCE7 EQ PUSH2 0x321 JUMPI DUP1 PUSH4 0x5C975ABB EQ PUSH2 0x334 JUMPI DUP1 PUSH4 0x6352211E EQ PUSH2 0x340 JUMPI PUSH1 0x0 DUP1 REVERT JUMPDEST DUP1 PUSH4 0x2F745C59 EQ PUSH2 0x2CD JUMPI DUP1 PUSH4 0x36568ABE EQ PUSH2 0x2E0 JUMPI DUP1 PUSH4 0x3F4BA83A EQ PUSH2 0x2F3 JUMPI DUP1 PUSH4 0x42842E0E EQ PUSH2 0x2FB JUMPI PUSH1 0x0 DUP1 REVERT JUMPDEST DUP1 PUSH4 0x18160DDD GT PUSH2 0x1C3 JUMPI DUP1 PUSH4 0x18160DDD EQ PUSH2 0x272 JUMPI DUP1 PUSH4 0x23B872DD EQ PUSH2 0x284 JUMPI DUP1 PUSH4 0x248A9CA3 EQ PUSH2 0x297 JUMPI DUP1 PUSH4 0x2F2FF15D EQ PUSH2 0x2BA JUMPI PUSH1 0x0 DUP1 REVERT JUMPDEST DUP1 PUSH4 0x1FFC9A7 EQ PUSH2 0x1F5 JUMPI DUP1 PUSH4 0x6FDDE03 EQ PUSH2 0x21D JUMPI DUP1 PUSH4 0x81812FC EQ PUSH2 0x232 JUMPI DUP1 PUSH4 0x95EA7B3 EQ PUSH2 0x25D JUMPI JUMPDEST PUSH1 0x0 DUP1 REVERT JUMPDEST PUSH2 0x208 PUSH2 0x203 CALLDATASIZE PUSH1 0x4 PUSH2 0x2318 JUMP JUMPDEST PUSH2 0x4A1 JUMP JUMPDEST PUSH1 0x40 MLOAD SWAP1 ISZERO ISZERO DUP2 MSTORE PUSH1 0x20 ADD JUMPDEST PUSH1 0x40 MLOAD DUP1 SWAP2 SUB SWAP1 RETURN JUMPDEST PUSH2 0x225 PUSH2 0x4B2 JUMP JUMPDEST PUSH1 0x40 MLOAD PUSH2 0x214 SWAP2 SWAP1 PUSH2 0x238D JUMP JUMPDEST PUSH2 0x245 PUSH2 0x240 CALLDATASIZE PUSH1 0x4 PUSH2 0x23A0 JUMP JUMPDEST PUSH2 0x544 JUMP JUMPDEST PUSH1 0x40 MLOAD PUSH1 0x1 PUSH1 0x1 PUSH1 0xA0 SHL SUB SWAP1 SWAP2 AND DUP2 MSTORE PUSH1 0x20 ADD PUSH2 0x214 JUMP JUMPDEST PUSH2 0x270 PUSH2 0x26B CALLDATASIZE PUSH1 0x4 PUSH2 0x23D5 JUMP JUMPDEST PUSH2 0x56B JUMP JUMPDEST STOP JUMPDEST PUSH1 0xFD SLOAD JUMPDEST PUSH1 0x40 MLOAD SWAP1 DUP2 MSTORE PUSH1 0x20 ADD PUSH2 0x214 JUMP JUMPDEST PUSH2 0x270 PUSH2 0x292 CALLDATASIZE PUSH1 0x4 PUSH2 0x23FF JUMP JUMPDEST PUSH2 0x686 JUMP JUMPDEST PUSH2 0x276 PUSH2 0x2A5 CALLDATASIZE PUSH1 0x4 PUSH2 0x23A0 JUMP JUMPDEST PUSH1 0x0 SWAP1 DUP2 MSTORE PUSH1 0x65 PUSH1 0x20 MSTORE PUSH1 0x40 SWAP1 KECCAK256 PUSH1 0x1 ADD SLOAD SWAP1 JUMP JUMPDEST PUSH2 0x270 PUSH2 0x2C8 CALLDATASIZE PUSH1 0x4 PUSH2 0x243B JUMP JUMPDEST PUSH2 0x6B8 JUMP JUMPDEST PUSH2 0x276 PUSH2 0x2DB CALLDATASIZE PUSH1 0x4 PUSH2 0x23D5 JUMP JUMPDEST PUSH2 0x6DD JUMP JUMPDEST PUSH2 0x270 PUSH2 0x2EE CALLDATASIZE PUSH1 0x4 PUSH2 0x243B JUMP JUMPDEST PUSH2 0x773 JUMP JUMPDEST PUSH2 0x270 PUSH2 0x7F1 JUMP JUMPDEST PUSH2 0x270 PUSH2 0x309 CALLDATASIZE PUSH1 0x4 PUSH2 0x23FF JUMP JUMPDEST PUSH2 0x887 JUMP JUMPDEST PUSH2 0x270 PUSH2 0x31C CALLDATASIZE PUSH1 0x4 PUSH2 0x23A0 JUMP JUMPDEST PUSH2 0x8A2 JUMP JUMPDEST PUSH2 0x276 PUSH2 0x32F CALLDATASIZE PUSH1 0x4 PUSH2 0x23A0 JUMP JUMPDEST PUSH2 0x8D3 JUMP JUMPDEST PUSH2 0x15F SLOAD PUSH1 0xFF AND PUSH2 0x208 JUMP JUMPDEST PUSH2 0x245 PUSH2 0x34E CALLDATASIZE PUSH1 0x4 PUSH2 0x23A0 JUMP JUMPDEST PUSH2 0x966 JUMP JUMPDEST PUSH2 0x270 PUSH2 0x361 CALLDATASIZE PUSH1 0x4 PUSH2 0x2467 JUMP JUMPDEST PUSH2 0x9C6 JUMP JUMPDEST PUSH2 0x276 PUSH2 0x374 CALLDATASIZE PUSH1 0x4 PUSH2 0x2467 JUMP JUMPDEST PUSH2 0xA84 JUMP JUMPDEST PUSH2 0x270 PUSH2 0xB0A JUMP JUMPDEST PUSH2 0x245 PUSH2 0x38F CALLDATASIZE PUSH1 0x4 PUSH2 0x2482 JUMP JUMPDEST PUSH2 0xB9C JUMP JUMPDEST PUSH2 0x208 PUSH2 0x3A2 CALLDATASIZE PUSH1 0x4 PUSH2 0x243B JUMP JUMPDEST PUSH2 0xBBB JUMP JUMPDEST PUSH2 0x225 PUSH2 0xBE6 JUMP JUMPDEST PUSH2 0x276 PUSH1 0x0 DUP2 JUMP JUMPDEST PUSH2 0x270 PUSH2 0x3C5 CALLDATASIZE PUSH1 0x4 PUSH2 0x24A4 JUMP JUMPDEST PUSH2 0xBF5 JUMP JUMPDEST PUSH2 0x270 PUSH2 0x3D8 CALLDATASIZE PUSH1 0x4 PUSH2 0x258C JUMP JUMPDEST PUSH2 0xC00 JUMP JUMPDEST PUSH2 0x270 PUSH2 0x3EB CALLDATASIZE PUSH1 0x4 PUSH2 0x2614 JUMP JUMPDEST PUSH2 0xD17 JUMP JUMPDEST PUSH2 0x225 PUSH2 0x3FE CALLDATASIZE PUSH1 0x4 PUSH2 0x23A0 JUMP JUMPDEST PUSH2 0xD49 JUMP JUMPDEST PUSH2 0x276 PUSH2 0x411 CALLDATASIZE PUSH1 0x4 PUSH2 0x23A0 JUMP JUMPDEST PUSH2 0xDAF JUMP JUMPDEST PUSH2 0x276 PUSH32 0x9F2DF0FED2C77648DE5860A4CC508CD0818C85B8B8A1AB4CEEEF8D981C8956A6 DUP2 JUMP JUMPDEST PUSH2 0x270 PUSH2 0x44B CALLDATASIZE PUSH1 0x4 PUSH2 0x243B JUMP JUMPDEST PUSH2 0xDC6 JUMP JUMPDEST PUSH2 0x276 PUSH1 0x0 DUP1 MLOAD PUSH1 0x20 PUSH2 0x29CA DUP4 CODECOPY DUP2 MLOAD SWAP2 MSTORE DUP2 JUMP JUMPDEST PUSH2 0x208 PUSH2 0x473 CALLDATASIZE PUSH1 0x4 PUSH2 0x2690 JUMP JUMPDEST PUSH1 0x1 PUSH1 0x1 PUSH1 0xA0 SHL SUB SWAP2 DUP3 AND PUSH1 0x0 SWAP1 DUP2 MSTORE PUSH1 0xCE PUSH1 0x20 SWAP1 DUP2 MSTORE PUSH1 0x40 DUP1 DUP4 KECCAK256 SWAP4 SWAP1 SWAP5 AND DUP3 MSTORE SWAP2 SWAP1 SWAP2 MSTORE KECCAK256 SLOAD PUSH1 0xFF AND SWAP1 JUMP JUMPDEST PUSH1 0x0 PUSH2 0x4AC DUP3 PUSH2 0xDEB JUMP JUMPDEST SWAP3 SWAP2 POP POP JUMP JUMPDEST PUSH1 0x60 PUSH1 0xC9 DUP1 SLOAD PUSH2 0x4C1 SWAP1 PUSH2 0x26BA JUMP JUMPDEST DUP1 PUSH1 0x1F ADD PUSH1 0x20 DUP1 SWAP2 DIV MUL PUSH1 0x20 ADD PUSH1 0x40 MLOAD SWAP1 DUP2 ADD PUSH1 0x40 MSTORE DUP1 SWAP3 SWAP2 SWAP1 DUP2 DUP2 MSTORE PUSH1 0x20 ADD DUP3 DUP1 SLOAD PUSH2 0x4ED SWAP1 PUSH2 0x26BA JUMP JUMPDEST DUP1 ISZERO PUSH2 0x53A JUMPI DUP1 PUSH1 0x1F LT PUSH2 0x50F JUMPI PUSH2 0x100 DUP1 DUP4 SLOAD DIV MUL DUP4 MSTORE SWAP2 PUSH1 0x20 ADD SWAP2 PUSH2 0x53A JUMP JUMPDEST DUP3 ADD SWAP2 SWAP1 PUSH1 0x0 MSTORE PUSH1 0x20 PUSH1 0x0 KECCAK256 SWAP1 JUMPDEST DUP2 SLOAD DUP2 MSTORE SWAP1 PUSH1 0x1 ADD SWAP1 PUSH1 0x20 ADD DUP1 DUP4 GT PUSH2 0x51D JUMPI DUP3 SWAP1 SUB PUSH1 0x1F AND DUP3 ADD SWAP2 JUMPDEST POP POP POP POP POP SWAP1 POP SWAP1 JUMP JUMPDEST PUSH1 0x0 PUSH2 0x54F DUP3 PUSH2 0xE10 JUMP JUMPDEST POP PUSH1 0x0 SWAP1 DUP2 MSTORE PUSH1 0xCD PUSH1 0x20 MSTORE PUSH1 0x40 SWAP1 KECCAK256 SLOAD PUSH1 0x1 PUSH1 0x1 PUSH1 0xA0 SHL SUB AND SWAP1 JUMP JUMPDEST PUSH1 0x0 PUSH2 0x576 DUP3 PUSH2 0x966 JUMP JUMPDEST SWAP1 POP DUP1 PUSH1 0x1 PUSH1 0x1 PUSH1 0xA0 SHL SUB AND DUP4 PUSH1 0x1 PUSH1 0x1 PUSH1 0xA0 SHL SUB AND EQ ISZERO PUSH2 0x5E9 JUMPI PUSH1 0x40 MLOAD PUSH3 0x461BCD PUSH1 0xE5 SHL DUP2 MSTORE PUSH1 0x20 PUSH1 0x4 DUP3 ADD MSTORE PUSH1 0x21 PUSH1 0x24 DUP3 ADD MSTORE PUSH32 0x4552433732313A20617070726F76616C20746F2063757272656E74206F776E65 PUSH1 0x44 DUP3 ADD MSTORE PUSH1 0x39 PUSH1 0xF9 SHL PUSH1 0x64 DUP3 ADD MSTORE PUSH1 0x84 ADD JUMPDEST PUSH1 0x40 MLOAD DUP1 SWAP2 SUB SWAP1 REVERT JUMPDEST CALLER PUSH1 0x1 PUSH1 0x1 PUSH1 0xA0 SHL SUB DUP3 AND EQ DUP1 PUSH2 0x605 JUMPI POP PUSH2 0x605 DUP2 CALLER PUSH2 0x473 JUMP JUMPDEST PUSH2 0x677 JUMPI PUSH1 0x40 MLOAD PUSH3 0x461BCD PUSH1 0xE5 SHL DUP2 MSTORE PUSH1 0x20 PUSH1 0x4 DUP3 ADD MSTORE PUSH1 0x3D PUSH1 0x24 DUP3 ADD MSTORE PUSH32 0x4552433732313A20617070726F76652063616C6C6572206973206E6F7420746F PUSH1 0x44 DUP3 ADD MSTORE PUSH32 0x6B656E206F776E6572206F7220617070726F76656420666F7220616C6C000000 PUSH1 0x64 DUP3 ADD MSTORE PUSH1 0x84 ADD PUSH2 0x5E0 JUMP JUMPDEST PUSH2 0x681 DUP4 DUP4 PUSH2 0xE6F JUMP JUMPDEST POP POP POP JUMP JUMPDEST PUSH2 0x691 CALLER JUMPDEST DUP3 PUSH2 0xEDD JUMP JUMPDEST PUSH2 0x6AD JUMPI PUSH1 0x40 MLOAD PUSH3 0x461BCD PUSH1 0xE5 SHL DUP2 MSTORE PUSH1 0x4 ADD PUSH2 0x5E0 SWAP1 PUSH2 0x26F5 JUMP JUMPDEST PUSH2 0x681 DUP4 DUP4 DUP4 PUSH2 0xF5C JUMP JUMPDEST PUSH1 0x0 DUP3 DUP2 MSTORE PUSH1 0x65 PUSH1 0x20 MSTORE PUSH1 0x40 SWAP1 KECCAK256 PUSH1 0x1 ADD SLOAD PUSH2 0x6D3 DUP2 PUSH2 0x10CD JUMP JUMPDEST PUSH2 0x681 DUP4 DUP4 PUSH2 0x10D7 JUMP JUMPDEST PUSH1 0x0 PUSH2 0x6E8 DUP4 PUSH2 0xA84 JUMP JUMPDEST DUP3 LT PUSH2 0x74A JUMPI PUSH1 0x40 MLOAD PUSH3 0x461BCD PUSH1 0xE5 SHL DUP2 MSTORE PUSH1 0x20 PUSH1 0x4 DUP3 ADD MSTORE PUSH1 0x2B PUSH1 0x24 DUP3 ADD MSTORE PUSH32 0x455243373231456E756D657261626C653A206F776E657220696E646578206F75 PUSH1 0x44 DUP3 ADD MSTORE PUSH11 0x74206F6620626F756E6473 PUSH1 0xA8 SHL PUSH1 0x64 DUP3 ADD MSTORE PUSH1 0x84 ADD PUSH2 0x5E0 JUMP JUMPDEST POP PUSH1 0x1 PUSH1 0x1 PUSH1 0xA0 SHL SUB SWAP2 SWAP1 SWAP2 AND PUSH1 0x0 SWAP1 DUP2 MSTORE PUSH1 0xFB PUSH1 0x20 SWAP1 DUP2 MSTORE PUSH1 0x40 DUP1 DUP4 KECCAK256 SWAP4 DUP4 MSTORE SWAP3 SWAP1 MSTORE KECCAK256 SLOAD SWAP1 JUMP JUMPDEST PUSH1 0x1 PUSH1 0x1 PUSH1 0xA0 SHL SUB DUP2 AND CALLER EQ PUSH2 0x7E3 JUMPI PUSH1 0x40 MLOAD PUSH3 0x461BCD PUSH1 0xE5 SHL DUP2 MSTORE PUSH1 0x20 PUSH1 0x4 DUP3 ADD MSTORE PUSH1 0x2F PUSH1 0x24 DUP3 ADD MSTORE PUSH32 0x416363657373436F6E74726F6C3A2063616E206F6E6C792072656E6F756E6365 PUSH1 0x44 DUP3 ADD MSTORE PUSH15 0x103937B632B9903337B91039B2B633 PUSH1 0x89 SHL PUSH1 0x64 DUP3 ADD MSTORE PUSH1 0x84 ADD PUSH2 0x5E0 JUMP JUMPDEST PUSH2 0x7ED DUP3 DUP3 PUSH2 0x10F9 JUMP JUMPDEST POP POP JUMP JUMPDEST PUSH2 0x809 PUSH1 0x0 DUP1 MLOAD PUSH1 0x20 PUSH2 0x29CA DUP4 CODECOPY DUP2 MLOAD SWAP2 MSTORE CALLER PUSH2 0xBBB JUMP JUMPDEST PUSH2 0x87D JUMPI PUSH1 0x40 DUP1 MLOAD PUSH3 0x461BCD PUSH1 0xE5 SHL DUP2 MSTORE PUSH1 0x20 PUSH1 0x4 DUP3 ADD MSTORE PUSH1 0x24 DUP2 ADD SWAP2 SWAP1 SWAP2 MSTORE PUSH32 0x4552433732315072657365744D696E7465725061757365724175746F49643A20 PUSH1 0x44 DUP3 ADD MSTORE PUSH32 0x6D75737420686176652070617573657220726F6C6520746F20756E7061757365 PUSH1 0x64 DUP3 ADD MSTORE PUSH1 0x84 ADD PUSH2 0x5E0 JUMP JUMPDEST PUSH2 0x885 PUSH2 0x111B JUMP JUMPDEST JUMP JUMPDEST PUSH2 0x681 DUP4 DUP4 DUP4 PUSH1 0x40 MLOAD DUP1 PUSH1 0x20 ADD PUSH1 0x40 MSTORE DUP1 PUSH1 0x0 DUP2 MSTORE POP PUSH2 0xD17 JUMP JUMPDEST PUSH2 0x8AB CALLER PUSH2 0x68B JUMP JUMPDEST PUSH2 0x8C7 JUMPI PUSH1 0x40 MLOAD PUSH3 0x461BCD PUSH1 0xE5 SHL DUP2 MSTORE PUSH1 0x4 ADD PUSH2 0x5E0 SWAP1 PUSH2 0x26F5 JUMP JUMPDEST PUSH2 0x8D0 DUP2 PUSH2 0x116E JUMP JUMPDEST POP JUMP JUMPDEST PUSH1 0x0 PUSH2 0x8DE PUSH1 0xFD SLOAD SWAP1 JUMP JUMPDEST DUP3 LT PUSH2 0x941 JUMPI PUSH1 0x40 MLOAD PUSH3 0x461BCD PUSH1 0xE5 SHL DUP2 MSTORE PUSH1 0x20 PUSH1 0x4 DUP3 ADD MSTORE PUSH1 0x2C PUSH1 0x24 DUP3 ADD MSTORE PUSH32 0x455243373231456E756D657261626C653A20676C6F62616C20696E646578206F PUSH1 0x44 DUP3 ADD MSTORE PUSH12 0x7574206F6620626F756E6473 PUSH1 0xA0 SHL PUSH1 0x64 DUP3 ADD MSTORE PUSH1 0x84 ADD PUSH2 0x5E0 JUMP JUMPDEST PUSH1 0xFD DUP3 DUP2 SLOAD DUP2 LT PUSH2 0x954 JUMPI PUSH2 0x954 PUSH2 0x2742 JUMP JUMPDEST SWAP1 PUSH1 0x0 MSTORE PUSH1 0x20 PUSH1 0x0 KECCAK256 ADD SLOAD SWAP1 POP SWAP2 SWAP1 POP JUMP JUMPDEST PUSH1 0x0 DUP2 DUP2 MSTORE PUSH1 0xCB PUSH1 0x20 MSTORE PUSH1 0x40 DUP2 KECCAK256 SLOAD PUSH1 0x1 PUSH1 0x1 PUSH1 0xA0 SHL SUB AND DUP1 PUSH2 0x4AC JUMPI PUSH1 0x40 MLOAD PUSH3 0x461BCD PUSH1 0xE5 SHL DUP2 MSTORE PUSH1 0x20 PUSH1 0x4 DUP3 ADD MSTORE PUSH1 0x18 PUSH1 0x24 DUP3 ADD MSTORE PUSH24 0x115490CDCC8C4E881A5B9D985B1A59081D1BDAD95B881251 PUSH1 0x42 SHL PUSH1 0x44 DUP3 ADD MSTORE PUSH1 0x64 ADD PUSH2 0x5E0 JUMP JUMPDEST PUSH2 0x9F0 PUSH32 0x9F2DF0FED2C77648DE5860A4CC508CD0818C85B8B8A1AB4CEEEF8D981C8956A6 CALLER PUSH2 0xBBB JUMP JUMPDEST PUSH2 0xA62 JUMPI PUSH1 0x40 MLOAD PUSH3 0x461BCD PUSH1 0xE5 SHL DUP2 MSTORE PUSH1 0x20 PUSH1 0x4 DUP3 ADD MSTORE PUSH1 0x3D PUSH1 0x24 DUP3 ADD MSTORE PUSH32 0x4552433732315072657365744D696E7465725061757365724175746F49643A20 PUSH1 0x44 DUP3 ADD MSTORE PUSH32 0x6D7573742068617665206D696E74657220726F6C6520746F206D696E74000000 PUSH1 0x64 DUP3 ADD MSTORE PUSH1 0x84 ADD PUSH2 0x5E0 JUMP JUMPDEST PUSH2 0xA75 DUP2 PUSH2 0xA70 PUSH2 0x1C3 SLOAD SWAP1 JUMP JUMPDEST PUSH2 0x1211 JUMP JUMPDEST PUSH2 0x8D0 PUSH2 0x1C3 DUP1 SLOAD PUSH1 0x1 ADD SWAP1 SSTORE JUMP JUMPDEST PUSH1 0x0 PUSH1 0x1 PUSH1 0x1 PUSH1 0xA0 SHL SUB DUP3 AND PUSH2 0xAEE JUMPI PUSH1 0x40 MLOAD PUSH3 0x461BCD PUSH1 0xE5 SHL DUP2 MSTORE PUSH1 0x20 PUSH1 0x4 DUP3 ADD MSTORE PUSH1 0x29 PUSH1 0x24 DUP3 ADD MSTORE PUSH32 0x4552433732313A2061646472657373207A65726F206973206E6F742061207661 PUSH1 0x44 DUP3 ADD MSTORE PUSH9 0x3634B21037BBB732B9 PUSH1 0xB9 SHL PUSH1 0x64 DUP3 ADD MSTORE PUSH1 0x84 ADD PUSH2 0x5E0 JUMP JUMPDEST POP PUSH1 0x1 PUSH1 0x1 PUSH1 0xA0 SHL SUB AND PUSH1 0x0 SWAP1 DUP2 MSTORE PUSH1 0xCC PUSH1 0x20 MSTORE PUSH1 0x40 SWAP1 KECCAK256 SLOAD SWAP1 JUMP JUMPDEST PUSH2 0xB22 PUSH1 0x0 DUP1 MLOAD PUSH1 0x20 PUSH2 0x29CA DUP4 CODECOPY DUP2 MLOAD SWAP2 MSTORE CALLER PUSH2 0xBBB JUMP JUMPDEST PUSH2 0xB94 JUMPI PUSH1 0x40 MLOAD PUSH3 0x461BCD PUSH1 0xE5 SHL DUP2 MSTORE PUSH1 0x20 PUSH1 0x4 DUP3 ADD MSTORE PUSH1 0x3E PUSH1 0x24 DUP3 ADD MSTORE PUSH32 0x4552433732315072657365744D696E7465725061757365724175746F49643A20 PUSH1 0x44 DUP3 ADD MSTORE PUSH32 0x6D75737420686176652070617573657220726F6C6520746F2070617573650000 PUSH1 0x64 DUP3 ADD MSTORE PUSH1 0x84 ADD PUSH2 0x5E0 JUMP JUMPDEST PUSH2 0x885 PUSH2 0x13AA JUMP JUMPDEST PUSH1 0x0 DUP3 DUP2 MSTORE PUSH1 0x97 PUSH1 0x20 MSTORE PUSH1 0x40 DUP2 KECCAK256 PUSH2 0xBB4 SWAP1 DUP4 PUSH2 0x13E8 JUMP JUMPDEST SWAP4 SWAP3 POP POP POP JUMP JUMPDEST PUSH1 0x0 SWAP2 DUP3 MSTORE PUSH1 0x65 PUSH1 0x20 SWAP1 DUP2 MSTORE PUSH1 0x40 DUP1 DUP5 KECCAK256 PUSH1 0x1 PUSH1 0x1 PUSH1 0xA0 SHL SUB SWAP4 SWAP1 SWAP4 AND DUP5 MSTORE SWAP2 SWAP1 MSTORE SWAP1 KECCAK256 SLOAD PUSH1 0xFF AND SWAP1 JUMP JUMPDEST PUSH1 0x60 PUSH1 0xCA DUP1 SLOAD PUSH2 0x4C1 SWAP1 PUSH2 0x26BA JUMP JUMPDEST PUSH2 0x7ED CALLER DUP4 DUP4 PUSH2 0x13F4 JUMP JUMPDEST PUSH1 0x0 SLOAD PUSH2 0x100 SWAP1 DIV PUSH1 0xFF AND ISZERO DUP1 DUP1 ISZERO PUSH2 0xC20 JUMPI POP PUSH1 0x0 SLOAD PUSH1 0x1 PUSH1 0xFF SWAP1 SWAP2 AND LT JUMPDEST DUP1 PUSH2 0xC3A JUMPI POP ADDRESS EXTCODESIZE ISZERO DUP1 ISZERO PUSH2 0xC3A JUMPI POP PUSH1 0x0 SLOAD PUSH1 0xFF AND PUSH1 0x1 EQ JUMPDEST PUSH2 0xC9D JUMPI PUSH1 0x40 MLOAD PUSH3 0x461BCD PUSH1 0xE5 SHL DUP2 MSTORE PUSH1 0x20 PUSH1 0x4 DUP3 ADD MSTORE PUSH1 0x2E PUSH1 0x24 DUP3 ADD MSTORE PUSH32 0x496E697469616C697A61626C653A20636F6E747261637420697320616C726561 PUSH1 0x44 DUP3 ADD MSTORE PUSH14 0x191E481A5B9A5D1A585B1A5E9959 PUSH1 0x92 SHL PUSH1 0x64 DUP3 ADD MSTORE PUSH1 0x84 ADD PUSH2 0x5E0 JUMP JUMPDEST PUSH1 0x0 DUP1 SLOAD PUSH1 0xFF NOT AND PUSH1 0x1 OR SWAP1 SSTORE DUP1 ISZERO PUSH2 0xCC0 JUMPI PUSH1 0x0 DUP1 SLOAD PUSH2 0xFF00 NOT AND PUSH2 0x100 OR SWAP1 SSTORE JUMPDEST PUSH2 0xCCB DUP5 DUP5 DUP5 PUSH2 0x14C3 JUMP JUMPDEST DUP1 ISZERO PUSH2 0xD11 JUMPI PUSH1 0x0 DUP1 SLOAD PUSH2 0xFF00 NOT AND SWAP1 SSTORE PUSH1 0x40 MLOAD PUSH1 0x1 DUP2 MSTORE PUSH32 0x7F26B83FF96E1F2B6A682F133852F6798A09C465DA95921460CEFB3847402498 SWAP1 PUSH1 0x20 ADD PUSH1 0x40 MLOAD DUP1 SWAP2 SUB SWAP1 LOG1 JUMPDEST POP POP POP POP JUMP JUMPDEST PUSH2 0xD21 CALLER DUP4 PUSH2 0xEDD JUMP JUMPDEST PUSH2 0xD3D JUMPI PUSH1 0x40 MLOAD PUSH3 0x461BCD PUSH1 0xE5 SHL DUP2 MSTORE PUSH1 0x4 ADD PUSH2 0x5E0 SWAP1 PUSH2 0x26F5 JUMP JUMPDEST PUSH2 0xD11 DUP5 DUP5 DUP5 DUP5 PUSH2 0x1507 JUMP JUMPDEST PUSH1 0x60 PUSH2 0xD54 DUP3 PUSH2 0xE10 JUMP JUMPDEST PUSH1 0x0 PUSH2 0xD5E PUSH2 0x153A JUMP JUMPDEST SWAP1 POP PUSH1 0x0 DUP2 MLOAD GT PUSH2 0xD7E JUMPI PUSH1 0x40 MLOAD DUP1 PUSH1 0x20 ADD PUSH1 0x40 MSTORE DUP1 PUSH1 0x0 DUP2 MSTORE POP PUSH2 0xBB4 JUMP JUMPDEST DUP1 PUSH2 0xD88 DUP5 PUSH2 0x154A JUMP JUMPDEST PUSH1 0x40 MLOAD PUSH1 0x20 ADD PUSH2 0xD99 SWAP3 SWAP2 SWAP1 PUSH2 0x2758 JUMP JUMPDEST PUSH1 0x40 MLOAD PUSH1 0x20 DUP2 DUP4 SUB SUB DUP2 MSTORE SWAP1 PUSH1 0x40 MSTORE SWAP4 SWAP3 POP POP POP JUMP JUMPDEST PUSH1 0x0 DUP2 DUP2 MSTORE PUSH1 0x97 PUSH1 0x20 MSTORE PUSH1 0x40 DUP2 KECCAK256 PUSH2 0x4AC SWAP1 PUSH2 0x15E7 JUMP JUMPDEST PUSH1 0x0 DUP3 DUP2 MSTORE PUSH1 0x65 PUSH1 0x20 MSTORE PUSH1 0x40 SWAP1 KECCAK256 PUSH1 0x1 ADD SLOAD PUSH2 0xDE1 DUP2 PUSH2 0x10CD JUMP JUMPDEST PUSH2 0x681 DUP4 DUP4 PUSH2 0x10F9 JUMP JUMPDEST PUSH1 0x0 PUSH1 0x1 PUSH1 0x1 PUSH1 0xE0 SHL SUB NOT DUP3 AND PUSH4 0x780E9D63 PUSH1 0xE0 SHL EQ DUP1 PUSH2 0x4AC JUMPI POP PUSH2 0x4AC DUP3 PUSH2 0x15F1 JUMP JUMPDEST PUSH1 0x0 DUP2 DUP2 MSTORE PUSH1 0xCB PUSH1 0x20 MSTORE PUSH1 0x40 SWAP1 KECCAK256 SLOAD PUSH1 0x1 PUSH1 0x1 PUSH1 0xA0 SHL SUB AND PUSH2 0x8D0 JUMPI PUSH1 0x40 MLOAD PUSH3 0x461BCD PUSH1 0xE5 SHL DUP2 MSTORE PUSH1 0x20 PUSH1 0x4 DUP3 ADD MSTORE PUSH1 0x18 PUSH1 0x24 DUP3 ADD MSTORE PUSH24 0x115490CDCC8C4E881A5B9D985B1A59081D1BDAD95B881251 PUSH1 0x42 SHL PUSH1 0x44 DUP3 ADD MSTORE PUSH1 0x64 ADD PUSH2 0x5E0 JUMP JUMPDEST PUSH1 0x0 DUP2 DUP2 MSTORE PUSH1 0xCD PUSH1 0x20 MSTORE PUSH1 0x40 SWAP1 KECCAK256 DUP1 SLOAD PUSH1 0x1 PUSH1 0x1 PUSH1 0xA0 SHL SUB NOT AND PUSH1 0x1 PUSH1 0x1 PUSH1 0xA0 SHL SUB DUP5 AND SWAP1 DUP2 OR SWAP1 SWAP2 SSTORE DUP2 SWAP1 PUSH2 0xEA4 DUP3 PUSH2 0x966 JUMP JUMPDEST PUSH1 0x1 PUSH1 0x1 PUSH1 0xA0 SHL SUB AND PUSH32 0x8C5BE1E5EBEC7D5BD14F71427D1E84F3DD0314C0F7B2291E5B200AC8C7C3B925 PUSH1 0x40 MLOAD PUSH1 0x40 MLOAD DUP1 SWAP2 SUB SWAP1 LOG4 POP POP JUMP JUMPDEST PUSH1 0x0 DUP1 PUSH2 0xEE9 DUP4 PUSH2 0x966 JUMP JUMPDEST SWAP1 POP DUP1 PUSH1 0x1 PUSH1 0x1 PUSH1 0xA0 SHL SUB AND DUP5 PUSH1 0x1 PUSH1 0x1 PUSH1 0xA0 SHL SUB AND EQ DUP1 PUSH2 0xF30 JUMPI POP PUSH1 0x1 PUSH1 0x1 PUSH1 0xA0 SHL SUB DUP1 DUP3 AND PUSH1 0x0 SWAP1 DUP2 MSTORE PUSH1 0xCE PUSH1 0x20 SWAP1 DUP2 MSTORE PUSH1 0x40 DUP1 DUP4 KECCAK256 SWAP4 DUP9 AND DUP4 MSTORE SWAP3 SWAP1 MSTORE KECCAK256 SLOAD PUSH1 0xFF AND JUMPDEST DUP1 PUSH2 0xF54 JUMPI POP DUP4 PUSH1 0x1 PUSH1 0x1 PUSH1 0xA0 SHL SUB AND PUSH2 0xF49 DUP5 PUSH2 0x544 JUMP JUMPDEST PUSH1 0x1 PUSH1 0x1 PUSH1 0xA0 SHL SUB AND EQ JUMPDEST SWAP5 SWAP4 POP POP POP POP JUMP JUMPDEST DUP3 PUSH1 0x1 PUSH1 0x1 PUSH1 0xA0 SHL SUB AND PUSH2 0xF6F DUP3 PUSH2 0x966 JUMP JUMPDEST PUSH1 0x1 PUSH1 0x1 PUSH1 0xA0 SHL SUB AND EQ PUSH2 0xF95 JUMPI PUSH1 0x40 MLOAD PUSH3 0x461BCD PUSH1 0xE5 SHL DUP2 MSTORE PUSH1 0x4 ADD PUSH2 0x5E0 SWAP1 PUSH2 0x2787 JUMP JUMPDEST PUSH1 0x1 PUSH1 0x1 PUSH1 0xA0 SHL SUB DUP3 AND PUSH2 0xFF7 JUMPI PUSH1 0x40 MLOAD PUSH3 0x461BCD PUSH1 0xE5 SHL DUP2 MSTORE PUSH1 0x20 PUSH1 0x4 DUP3 ADD MSTORE PUSH1 0x24 DUP1 DUP3 ADD MSTORE PUSH32 0x4552433732313A207472616E7366657220746F20746865207A65726F20616464 PUSH1 0x44 DUP3 ADD MSTORE PUSH4 0x72657373 PUSH1 0xE0 SHL PUSH1 0x64 DUP3 ADD MSTORE PUSH1 0x84 ADD PUSH2 0x5E0 JUMP JUMPDEST PUSH2 0x1004 DUP4 DUP4 DUP4 PUSH1 0x1 PUSH2 0x1631 JUMP JUMPDEST DUP3 PUSH1 0x1 PUSH1 0x1 PUSH1 0xA0 SHL SUB AND PUSH2 0x1017 DUP3 PUSH2 0x966 JUMP JUMPDEST PUSH1 0x1 PUSH1 0x1 PUSH1 0xA0 SHL SUB AND EQ PUSH2 0x103D JUMPI PUSH1 0x40 MLOAD PUSH3 0x461BCD PUSH1 0xE5 SHL DUP2 MSTORE PUSH1 0x4 ADD PUSH2 0x5E0 SWAP1 PUSH2 0x2787 JUMP JUMPDEST PUSH1 0x0 DUP2 DUP2 MSTORE PUSH1 0xCD PUSH1 0x20 SWAP1 DUP2 MSTORE PUSH1 0x40 DUP1 DUP4 KECCAK256 DUP1 SLOAD PUSH1 0x1 PUSH1 0x1 PUSH1 0xA0 SHL SUB NOT SWAP1 DUP2 AND SWAP1 SWAP2 SSTORE PUSH1 0x1 PUSH1 0x1 PUSH1 0xA0 SHL SUB DUP8 DUP2 AND DUP1 DUP7 MSTORE PUSH1 0xCC DUP6 MSTORE DUP4 DUP7 KECCAK256 DUP1 SLOAD PUSH1 0x0 NOT ADD SWAP1 SSTORE SWAP1 DUP8 AND DUP1 DUP7 MSTORE DUP4 DUP7 KECCAK256 DUP1 SLOAD PUSH1 0x1 ADD SWAP1 SSTORE DUP7 DUP7 MSTORE PUSH1 0xCB SWAP1 SWAP5 MSTORE DUP3 DUP6 KECCAK256 DUP1 SLOAD SWAP1 SWAP3 AND DUP5 OR SWAP1 SWAP2 SSTORE SWAP1 MLOAD DUP5 SWAP4 PUSH32 0xDDF252AD1BE2C89B69C2B068FC378DAA952BA7F163C4A11628F55A4DF523B3EF SWAP2 LOG4 POP POP POP JUMP JUMPDEST PUSH2 0x8D0 DUP2 CALLER PUSH2 0x163D JUMP JUMPDEST PUSH2 0x10E1 DUP3 DUP3 PUSH2 0x1696 JUMP JUMPDEST PUSH1 0x0 DUP3 DUP2 MSTORE PUSH1 0x97 PUSH1 0x20 MSTORE PUSH1 0x40 SWAP1 KECCAK256 PUSH2 0x681 SWAP1 DUP3 PUSH2 0x171C JUMP JUMPDEST PUSH2 0x1103 DUP3 DUP3 PUSH2 0x1731 JUMP JUMPDEST PUSH1 0x0 DUP3 DUP2 MSTORE PUSH1 0x97 PUSH1 0x20 MSTORE PUSH1 0x40 SWAP1 KECCAK256 PUSH2 0x681 SWAP1 DUP3 PUSH2 0x1798 JUMP JUMPDEST PUSH2 0x1123 PUSH2 0x17AD JUMP JUMPDEST PUSH2 0x15F DUP1 SLOAD PUSH1 0xFF NOT AND SWAP1 SSTORE PUSH32 0x5DB9EE0A495BF2E6FF9C91A7834C1BA4FDD244A5E8AA4E537BD38AEAE4B073AA CALLER JUMPDEST PUSH1 0x40 MLOAD PUSH1 0x1 PUSH1 0x1 PUSH1 0xA0 SHL SUB SWAP1 SWAP2 AND DUP2 MSTORE PUSH1 0x20 ADD PUSH1 0x40 MLOAD DUP1 SWAP2 SUB SWAP1 LOG1 JUMP JUMPDEST PUSH1 0x0 PUSH2 0x1179 DUP3 PUSH2 0x966 JUMP JUMPDEST SWAP1 POP PUSH2 0x1189 DUP2 PUSH1 0x0 DUP5 PUSH1 0x1 PUSH2 0x1631 JUMP JUMPDEST PUSH2 0x1192 DUP3 PUSH2 0x966 JUMP JUMPDEST PUSH1 0x0 DUP4 DUP2 MSTORE PUSH1 0xCD PUSH1 0x20 SWAP1 DUP2 MSTORE PUSH1 0x40 DUP1 DUP4 KECCAK256 DUP1 SLOAD PUSH1 0x1 PUSH1 0x1 PUSH1 0xA0 SHL SUB NOT SWAP1 DUP2 AND SWAP1 SWAP2 SSTORE PUSH1 0x1 PUSH1 0x1 PUSH1 0xA0 SHL SUB DUP6 AND DUP1 DUP6 MSTORE PUSH1 0xCC DUP5 MSTORE DUP3 DUP6 KECCAK256 DUP1 SLOAD PUSH1 0x0 NOT ADD SWAP1 SSTORE DUP8 DUP6 MSTORE PUSH1 0xCB SWAP1 SWAP4 MSTORE DUP2 DUP5 KECCAK256 DUP1 SLOAD SWAP1 SWAP2 AND SWAP1 SSTORE MLOAD SWAP3 SWAP4 POP DUP5 SWAP3 PUSH32 0xDDF252AD1BE2C89B69C2B068FC378DAA952BA7F163C4A11628F55A4DF523B3EF SWAP1 DUP4 SWAP1 LOG4 POP POP JUMP JUMPDEST PUSH1 0x1 PUSH1 0x1 PUSH1 0xA0 SHL SUB DUP3 AND PUSH2 0x1267 JUMPI PUSH1 0x40 MLOAD PUSH3 0x461BCD PUSH1 0xE5 SHL DUP2 MSTORE PUSH1 0x20 PUSH1 0x4 DUP3 ADD DUP2 SWAP1 MSTORE PUSH1 0x24 DUP3 ADD MSTORE PUSH32 0x4552433732313A206D696E7420746F20746865207A65726F2061646472657373 PUSH1 0x44 DUP3 ADD MSTORE PUSH1 0x64 ADD PUSH2 0x5E0 JUMP JUMPDEST PUSH1 0x0 DUP2 DUP2 MSTORE PUSH1 0xCB PUSH1 0x20 MSTORE PUSH1 0x40 SWAP1 KECCAK256 SLOAD PUSH1 0x1 PUSH1 0x1 PUSH1 0xA0 SHL SUB AND ISZERO PUSH2 0x12CC JUMPI PUSH1 0x40 MLOAD PUSH3 0x461BCD PUSH1 0xE5 SHL DUP2 MSTORE PUSH1 0x20 PUSH1 0x4 DUP3 ADD MSTORE PUSH1 0x1C PUSH1 0x24 DUP3 ADD MSTORE PUSH32 0x4552433732313A20746F6B656E20616C7265616479206D696E74656400000000 PUSH1 0x44 DUP3 ADD MSTORE PUSH1 0x64 ADD PUSH2 0x5E0 JUMP JUMPDEST PUSH2 0x12DA PUSH1 0x0 DUP4 DUP4 PUSH1 0x1 PUSH2 0x1631 JUMP JUMPDEST PUSH1 0x0 DUP2 DUP2 MSTORE PUSH1 0xCB PUSH1 0x20 MSTORE PUSH1 0x40 SWAP1 KECCAK256 SLOAD PUSH1 0x1 PUSH1 0x1 PUSH1 0xA0 SHL SUB AND ISZERO PUSH2 0x133F JUMPI PUSH1 0x40 MLOAD PUSH3 0x461BCD PUSH1 0xE5 SHL DUP2 MSTORE PUSH1 0x20 PUSH1 0x4 DUP3 ADD MSTORE PUSH1 0x1C PUSH1 0x24 DUP3 ADD MSTORE PUSH32 0x4552433732313A20746F6B656E20616C7265616479206D696E74656400000000 PUSH1 0x44 DUP3 ADD MSTORE PUSH1 0x64 ADD PUSH2 0x5E0 JUMP JUMPDEST PUSH1 0x1 PUSH1 0x1 PUSH1 0xA0 SHL SUB DUP3 AND PUSH1 0x0 DUP2 DUP2 MSTORE PUSH1 0xCC PUSH1 0x20 SWAP1 DUP2 MSTORE PUSH1 0x40 DUP1 DUP4 KECCAK256 DUP1 SLOAD PUSH1 0x1 ADD SWAP1 SSTORE DUP5 DUP4 MSTORE PUSH1 0xCB SWAP1 SWAP2 MSTORE DUP1 DUP3 KECCAK256 DUP1 SLOAD PUSH1 0x1 PUSH1 0x1 PUSH1 0xA0 SHL SUB NOT AND DUP5 OR SWAP1 SSTORE MLOAD DUP4 SWAP3 SWAP2 SWAP1 PUSH32 0xDDF252AD1BE2C89B69C2B068FC378DAA952BA7F163C4A11628F55A4DF523B3EF SWAP1 DUP3 SWAP1 LOG4 POP POP JUMP JUMPDEST PUSH2 0x13B2 PUSH2 0x17F7 JUMP JUMPDEST PUSH2 0x15F DUP1 SLOAD PUSH1 0xFF NOT AND PUSH1 0x1 OR SWAP1 SSTORE PUSH32 0x62E78CEA01BEE320CD4E420270B5EA74000D11B0C9F74754EBDBFC544B05A258 PUSH2 0x1151 CALLER SWAP1 JUMP JUMPDEST PUSH1 0x0 PUSH2 0xBB4 DUP4 DUP4 PUSH2 0x183E JUMP JUMPDEST DUP2 PUSH1 0x1 PUSH1 0x1 PUSH1 0xA0 SHL SUB AND DUP4 PUSH1 0x1 PUSH1 0x1 PUSH1 0xA0 SHL SUB AND EQ ISZERO PUSH2 0x1456 JUMPI PUSH1 0x40 MLOAD PUSH3 0x461BCD PUSH1 0xE5 SHL DUP2 MSTORE PUSH1 0x20 PUSH1 0x4 DUP3 ADD MSTORE PUSH1 0x19 PUSH1 0x24 DUP3 ADD MSTORE PUSH32 0x4552433732313A20617070726F766520746F2063616C6C657200000000000000 PUSH1 0x44 DUP3 ADD MSTORE PUSH1 0x64 ADD PUSH2 0x5E0 JUMP JUMPDEST PUSH1 0x1 PUSH1 0x1 PUSH1 0xA0 SHL SUB DUP4 DUP2 AND PUSH1 0x0 DUP2 DUP2 MSTORE PUSH1 0xCE PUSH1 0x20 SWAP1 DUP2 MSTORE PUSH1 0x40 DUP1 DUP4 KECCAK256 SWAP5 DUP8 AND DUP1 DUP5 MSTORE SWAP5 DUP3 MSTORE SWAP2 DUP3 SWAP1 KECCAK256 DUP1 SLOAD PUSH1 0xFF NOT AND DUP7 ISZERO ISZERO SWAP1 DUP2 OR SWAP1 SWAP2 SSTORE SWAP2 MLOAD SWAP2 DUP3 MSTORE PUSH32 0x17307EAB39AB6107E8899845AD3D59BD9653F200F220920489CA2B5937696C31 SWAP2 ADD PUSH1 0x40 MLOAD DUP1 SWAP2 SUB SWAP1 LOG3 POP POP POP JUMP JUMPDEST PUSH1 0x0 SLOAD PUSH2 0x100 SWAP1 DIV PUSH1 0xFF AND PUSH2 0x14EA JUMPI PUSH1 0x40 MLOAD PUSH3 0x461BCD PUSH1 0xE5 SHL DUP2 MSTORE PUSH1 0x4 ADD PUSH2 0x5E0 SWAP1 PUSH2 0x27CC JUMP JUMPDEST PUSH2 0x14F4 DUP4 DUP4 PUSH2 0x1868 JUMP JUMPDEST PUSH2 0x14FC PUSH2 0x18B6 JUMP JUMPDEST PUSH2 0x681 DUP4 DUP4 DUP4 PUSH2 0x18EA JUMP JUMPDEST PUSH2 0x1512 DUP5 DUP5 DUP5 PUSH2 0xF5C JUMP JUMPDEST PUSH2 0x151E DUP5 DUP5 DUP5 DUP5 PUSH2 0x1973 JUMP JUMPDEST PUSH2 0xD11 JUMPI PUSH1 0x40 MLOAD PUSH3 0x461BCD PUSH1 0xE5 SHL DUP2 MSTORE PUSH1 0x4 ADD PUSH2 0x5E0 SWAP1 PUSH2 0x2817 JUMP JUMPDEST PUSH1 0x60 PUSH2 0x1C4 DUP1 SLOAD PUSH2 0x4C1 SWAP1 PUSH2 0x26BA JUMP JUMPDEST PUSH1 0x60 PUSH1 0x0 PUSH2 0x1557 DUP4 PUSH2 0x1A71 JUMP JUMPDEST PUSH1 0x1 ADD SWAP1 POP PUSH1 0x0 DUP2 PUSH8 0xFFFFFFFFFFFFFFFF DUP2 GT ISZERO PUSH2 0x1577 JUMPI PUSH2 0x1577 PUSH2 0x24E0 JUMP JUMPDEST PUSH1 0x40 MLOAD SWAP1 DUP1 DUP3 MSTORE DUP1 PUSH1 0x1F ADD PUSH1 0x1F NOT AND PUSH1 0x20 ADD DUP3 ADD PUSH1 0x40 MSTORE DUP1 ISZERO PUSH2 0x15A1 JUMPI PUSH1 0x20 DUP3 ADD DUP2 DUP1 CALLDATASIZE DUP4 CALLDATACOPY ADD SWAP1 POP JUMPDEST POP SWAP1 POP DUP2 DUP2 ADD PUSH1 0x20 ADD JUMPDEST PUSH1 0x0 NOT ADD PUSH16 0x181899199A1A9B1B9C1CB0B131B232B3 PUSH1 0x81 SHL PUSH1 0xA DUP7 MOD BYTE DUP2 MSTORE8 PUSH1 0xA DUP6 DIV SWAP5 POP DUP5 PUSH2 0x15DA JUMPI PUSH2 0x15DF JUMP JUMPDEST PUSH2 0x15AB JUMP JUMPDEST POP SWAP4 SWAP3 POP POP POP JUMP JUMPDEST PUSH1 0x0 PUSH2 0x4AC DUP3 SLOAD SWAP1 JUMP JUMPDEST PUSH1 0x0 PUSH1 0x1 PUSH1 0x1 PUSH1 0xE0 SHL SUB NOT DUP3 AND PUSH4 0x80AC58CD PUSH1 0xE0 SHL EQ DUP1 PUSH2 0x1622 JUMPI POP PUSH1 0x1 PUSH1 0x1 PUSH1 0xE0 SHL SUB NOT DUP3 AND PUSH4 0x5B5E139F PUSH1 0xE0 SHL EQ JUMPDEST DUP1 PUSH2 0x4AC JUMPI POP PUSH2 0x4AC DUP3 PUSH2 0x1B49 JUMP JUMPDEST PUSH2 0xD11 DUP5 DUP5 DUP5 DUP5 PUSH2 0x1B6E JUMP JUMPDEST PUSH2 0x1647 DUP3 DUP3 PUSH2 0xBBB JUMP JUMPDEST PUSH2 0x7ED JUMPI PUSH2 0x1654 DUP2 PUSH2 0x1BE2 JUMP JUMPDEST PUSH2 0x165F DUP4 PUSH1 0x20 PUSH2 0x1BF4 JUMP JUMPDEST PUSH1 0x40 MLOAD PUSH1 0x20 ADD PUSH2 0x1670 SWAP3 SWAP2 SWAP1 PUSH2 0x2869 JUMP JUMPDEST PUSH1 0x40 DUP1 MLOAD PUSH1 0x1F NOT DUP2 DUP5 SUB ADD DUP2 MSTORE SWAP1 DUP3 SWAP1 MSTORE PUSH3 0x461BCD PUSH1 0xE5 SHL DUP3 MSTORE PUSH2 0x5E0 SWAP2 PUSH1 0x4 ADD PUSH2 0x238D JUMP JUMPDEST PUSH2 0x16A0 DUP3 DUP3 PUSH2 0xBBB JUMP JUMPDEST PUSH2 0x7ED JUMPI PUSH1 0x0 DUP3 DUP2 MSTORE PUSH1 0x65 PUSH1 0x20 SWAP1 DUP2 MSTORE PUSH1 0x40 DUP1 DUP4 KECCAK256 PUSH1 0x1 PUSH1 0x1 PUSH1 0xA0 SHL SUB DUP6 AND DUP5 MSTORE SWAP1 SWAP2 MSTORE SWAP1 KECCAK256 DUP1 SLOAD PUSH1 0xFF NOT AND PUSH1 0x1 OR SWAP1 SSTORE PUSH2 0x16D8 CALLER SWAP1 JUMP JUMPDEST PUSH1 0x1 PUSH1 0x1 PUSH1 0xA0 SHL SUB AND DUP2 PUSH1 0x1 PUSH1 0x1 PUSH1 0xA0 SHL SUB AND DUP4 PUSH32 0x2F8788117E7EFF1D82E926EC794901D17C78024A50270940304540A733656F0D PUSH1 0x40 MLOAD PUSH1 0x40 MLOAD DUP1 SWAP2 SUB SWAP1 LOG4 POP POP JUMP JUMPDEST PUSH1 0x0 PUSH2 0xBB4 DUP4 PUSH1 0x1 PUSH1 0x1 PUSH1 0xA0 SHL SUB DUP5 AND PUSH2 0x1D90 JUMP JUMPDEST PUSH2 0x173B DUP3 DUP3 PUSH2 0xBBB JUMP JUMPDEST ISZERO PUSH2 0x7ED JUMPI PUSH1 0x0 DUP3 DUP2 MSTORE PUSH1 0x65 PUSH1 0x20 SWAP1 DUP2 MSTORE PUSH1 0x40 DUP1 DUP4 KECCAK256 PUSH1 0x1 PUSH1 0x1 PUSH1 0xA0 SHL SUB DUP6 AND DUP1 DUP6 MSTORE SWAP3 MSTORE DUP1 DUP4 KECCAK256 DUP1 SLOAD PUSH1 0xFF NOT AND SWAP1 SSTORE MLOAD CALLER SWAP3 DUP6 SWAP2 PUSH32 0xF6391F5C32D9C69D2A47EA670B442974B53935D1EDC7FD64EB21E047A839171B SWAP2 SWAP1 LOG4 POP POP JUMP JUMPDEST PUSH1 0x0 PUSH2 0xBB4 DUP4 PUSH1 0x1 PUSH1 0x1 PUSH1 0xA0 SHL SUB DUP5 AND PUSH2 0x1DDF JUMP JUMPDEST PUSH2 0x15F SLOAD PUSH1 0xFF AND PUSH2 0x885 JUMPI PUSH1 0x40 MLOAD PUSH3 0x461BCD PUSH1 0xE5 SHL DUP2 MSTORE PUSH1 0x20 PUSH1 0x4 DUP3 ADD MSTORE PUSH1 0x14 PUSH1 0x24 DUP3 ADD MSTORE PUSH20 0x14185D5CD8589B194E881B9BDD081C185D5CD959 PUSH1 0x62 SHL PUSH1 0x44 DUP3 ADD MSTORE PUSH1 0x64 ADD PUSH2 0x5E0 JUMP JUMPDEST PUSH2 0x15F SLOAD PUSH1 0xFF AND ISZERO PUSH2 0x885 JUMPI PUSH1 0x40 MLOAD PUSH3 0x461BCD PUSH1 0xE5 SHL DUP2 MSTORE PUSH1 0x20 PUSH1 0x4 DUP3 ADD MSTORE PUSH1 0x10 PUSH1 0x24 DUP3 ADD MSTORE PUSH16 0x14185D5CD8589B194E881C185D5CD959 PUSH1 0x82 SHL PUSH1 0x44 DUP3 ADD MSTORE PUSH1 0x64 ADD PUSH2 0x5E0 JUMP JUMPDEST PUSH1 0x0 DUP3 PUSH1 0x0 ADD DUP3 DUP2 SLOAD DUP2 LT PUSH2 0x1855 JUMPI PUSH2 0x1855 PUSH2 0x2742 JUMP JUMPDEST SWAP1 PUSH1 0x0 MSTORE PUSH1 0x20 PUSH1 0x0 KECCAK256 ADD SLOAD SWAP1 POP SWAP3 SWAP2 POP POP JUMP JUMPDEST PUSH1 0x0 SLOAD PUSH2 0x100 SWAP1 DIV PUSH1 0xFF AND PUSH2 0x188F JUMPI PUSH1 0x40 MLOAD PUSH3 0x461BCD PUSH1 0xE5 SHL DUP2 MSTORE PUSH1 0x4 ADD PUSH2 0x5E0 SWAP1 PUSH2 0x27CC JUMP JUMPDEST DUP2 MLOAD PUSH2 0x18A2 SWAP1 PUSH1 0xC9 SWAP1 PUSH1 0x20 DUP6 ADD SWAP1 PUSH2 0x2269 JUMP JUMPDEST POP DUP1 MLOAD PUSH2 0x681 SWAP1 PUSH1 0xCA SWAP1 PUSH1 0x20 DUP5 ADD SWAP1 PUSH2 0x2269 JUMP JUMPDEST PUSH1 0x0 SLOAD PUSH2 0x100 SWAP1 DIV PUSH1 0xFF AND PUSH2 0x18DD JUMPI PUSH1 0x40 MLOAD PUSH3 0x461BCD PUSH1 0xE5 SHL DUP2 MSTORE PUSH1 0x4 ADD PUSH2 0x5E0 SWAP1 PUSH2 0x27CC JUMP JUMPDEST PUSH2 0x15F DUP1 SLOAD PUSH1 0xFF NOT AND SWAP1 SSTORE JUMP JUMPDEST PUSH1 0x0 SLOAD PUSH2 0x100 SWAP1 DIV PUSH1 0xFF AND PUSH2 0x1911 JUMPI PUSH1 0x40 MLOAD PUSH3 0x461BCD PUSH1 0xE5 SHL DUP2 MSTORE PUSH1 0x4 ADD PUSH2 0x5E0 SWAP1 PUSH2 0x27CC JUMP JUMPDEST DUP1 MLOAD PUSH2 0x1925 SWAP1 PUSH2 0x1C4 SWAP1 PUSH1 0x20 DUP5 ADD SWAP1 PUSH2 0x2269 JUMP JUMPDEST POP PUSH2 0x1931 PUSH1 0x0 CALLER PUSH2 0x1ED2 JUMP JUMPDEST PUSH2 0x195B PUSH32 0x9F2DF0FED2C77648DE5860A4CC508CD0818C85B8B8A1AB4CEEEF8D981C8956A6 CALLER PUSH2 0x1ED2 JUMP JUMPDEST PUSH2 0x681 PUSH1 0x0 DUP1 MLOAD PUSH1 0x20 PUSH2 0x29CA DUP4 CODECOPY DUP2 MLOAD SWAP2 MSTORE CALLER PUSH2 0x1ED2 JUMP JUMPDEST PUSH1 0x0 PUSH1 0x1 PUSH1 0x1 PUSH1 0xA0 SHL SUB DUP5 AND EXTCODESIZE ISZERO PUSH2 0x1A66 JUMPI PUSH1 0x40 MLOAD PUSH4 0xA85BD01 PUSH1 0xE1 SHL DUP2 MSTORE PUSH1 0x1 PUSH1 0x1 PUSH1 0xA0 SHL SUB DUP6 AND SWAP1 PUSH4 0x150B7A02 SWAP1 PUSH2 0x19B7 SWAP1 CALLER SWAP1 DUP10 SWAP1 DUP9 SWAP1 DUP9 SWAP1 PUSH1 0x4 ADD PUSH2 0x28DE JUMP JUMPDEST PUSH1 0x20 PUSH1 0x40 MLOAD DUP1 DUP4 SUB DUP2 PUSH1 0x0 DUP8 GAS CALL SWAP3 POP POP POP DUP1 ISZERO PUSH2 0x19F2 JUMPI POP PUSH1 0x40 DUP1 MLOAD PUSH1 0x1F RETURNDATASIZE SWAP1 DUP2 ADD PUSH1 0x1F NOT AND DUP3 ADD SWAP1 SWAP3 MSTORE PUSH2 0x19EF SWAP2 DUP2 ADD SWAP1 PUSH2 0x291B JUMP JUMPDEST PUSH1 0x1 JUMPDEST PUSH2 0x1A4C JUMPI RETURNDATASIZE DUP1 DUP1 ISZERO PUSH2 0x1A20 JUMPI PUSH1 0x40 MLOAD SWAP2 POP PUSH1 0x1F NOT PUSH1 0x3F RETURNDATASIZE ADD AND DUP3 ADD PUSH1 0x40 MSTORE RETURNDATASIZE DUP3 MSTORE RETURNDATASIZE PUSH1 0x0 PUSH1 0x20 DUP5 ADD RETURNDATACOPY PUSH2 0x1A25 JUMP JUMPDEST PUSH1 0x60 SWAP2 POP JUMPDEST POP DUP1 MLOAD PUSH2 0x1A44 JUMPI PUSH1 0x40 MLOAD PUSH3 0x461BCD PUSH1 0xE5 SHL DUP2 MSTORE PUSH1 0x4 ADD PUSH2 0x5E0 SWAP1 PUSH2 0x2817 JUMP JUMPDEST DUP1 MLOAD DUP2 PUSH1 0x20 ADD REVERT JUMPDEST PUSH1 0x1 PUSH1 0x1 PUSH1 0xE0 SHL SUB NOT AND PUSH4 0xA85BD01 PUSH1 0xE1 SHL EQ SWAP1 POP PUSH2 0xF54 JUMP JUMPDEST POP PUSH1 0x1 SWAP5 SWAP4 POP POP POP POP JUMP JUMPDEST PUSH1 0x0 DUP1 PUSH19 0x184F03E93FF9F4DAA797ED6E38ED64BF6A1F01 PUSH1 0x40 SHL DUP4 LT PUSH2 0x1AB0 JUMPI PUSH19 0x184F03E93FF9F4DAA797ED6E38ED64BF6A1F01 PUSH1 0x40 SHL DUP4 DIV SWAP3 POP PUSH1 0x40 ADD JUMPDEST PUSH14 0x4EE2D6D415B85ACEF8100000000 DUP4 LT PUSH2 0x1ADC JUMPI PUSH14 0x4EE2D6D415B85ACEF8100000000 DUP4 DIV SWAP3 POP PUSH1 0x20 ADD JUMPDEST PUSH7 0x2386F26FC10000 DUP4 LT PUSH2 0x1AFA JUMPI PUSH7 0x2386F26FC10000 DUP4 DIV SWAP3 POP PUSH1 0x10 ADD JUMPDEST PUSH4 0x5F5E100 DUP4 LT PUSH2 0x1B12 JUMPI PUSH4 0x5F5E100 DUP4 DIV SWAP3 POP PUSH1 0x8 ADD JUMPDEST PUSH2 0x2710 DUP4 LT PUSH2 0x1B26 JUMPI PUSH2 0x2710 DUP4 DIV SWAP3 POP PUSH1 0x4 ADD JUMPDEST PUSH1 0x64 DUP4 LT PUSH2 0x1B38 JUMPI PUSH1 0x64 DUP4 DIV SWAP3 POP PUSH1 0x2 ADD JUMPDEST PUSH1 0xA DUP4 LT PUSH2 0x4AC JUMPI PUSH1 0x1 ADD SWAP3 SWAP2 POP POP JUMP JUMPDEST PUSH1 0x0 PUSH1 0x1 PUSH1 0x1 PUSH1 0xE0 SHL SUB NOT DUP3 AND PUSH4 0x5A05180F PUSH1 0xE0 SHL EQ DUP1 PUSH2 0x4AC JUMPI POP PUSH2 0x4AC DUP3 PUSH2 0x1EDC JUMP JUMPDEST PUSH2 0x1B7A DUP5 DUP5 DUP5 DUP5 PUSH2 0x1F11 JUMP JUMPDEST PUSH2 0x15F SLOAD PUSH1 0xFF AND ISZERO PUSH2 0xD11 JUMPI PUSH1 0x40 MLOAD PUSH3 0x461BCD PUSH1 0xE5 SHL DUP2 MSTORE PUSH1 0x20 PUSH1 0x4 DUP3 ADD MSTORE PUSH1 0x2B PUSH1 0x24 DUP3 ADD MSTORE PUSH32 0x4552433732315061757361626C653A20746F6B656E207472616E736665722077 PUSH1 0x44 DUP3 ADD MSTORE PUSH11 0x1A1A5B19481C185D5CD959 PUSH1 0xAA SHL PUSH1 0x64 DUP3 ADD MSTORE PUSH1 0x84 ADD PUSH2 0x5E0 JUMP JUMPDEST PUSH1 0x60 PUSH2 0x4AC PUSH1 0x1 PUSH1 0x1 PUSH1 0xA0 SHL SUB DUP4 AND PUSH1 0x14 JUMPDEST PUSH1 0x60 PUSH1 0x0 PUSH2 0x1C03 DUP4 PUSH1 0x2 PUSH2 0x294E JUMP JUMPDEST PUSH2 0x1C0E SWAP1 PUSH1 0x2 PUSH2 0x296D JUMP JUMPDEST PUSH8 0xFFFFFFFFFFFFFFFF DUP2 GT ISZERO PUSH2 0x1C26 JUMPI PUSH2 0x1C26 PUSH2 0x24E0 JUMP JUMPDEST PUSH1 0x40 MLOAD SWAP1 DUP1 DUP3 MSTORE DUP1 PUSH1 0x1F ADD PUSH1 0x1F NOT AND PUSH1 0x20 ADD DUP3 ADD PUSH1 0x40 MSTORE DUP1 ISZERO PUSH2 0x1C50 JUMPI PUSH1 0x20 DUP3 ADD DUP2 DUP1 CALLDATASIZE DUP4 CALLDATACOPY ADD SWAP1 POP JUMPDEST POP SWAP1 POP PUSH1 0x3 PUSH1 0xFC SHL DUP2 PUSH1 0x0 DUP2 MLOAD DUP2 LT PUSH2 0x1C6B JUMPI PUSH2 0x1C6B PUSH2 0x2742 JUMP JUMPDEST PUSH1 0x20 ADD ADD SWAP1 PUSH1 0x1 PUSH1 0x1 PUSH1 0xF8 SHL SUB NOT AND SWAP1 DUP2 PUSH1 0x0 BYTE SWAP1 MSTORE8 POP PUSH1 0xF PUSH1 0xFB SHL DUP2 PUSH1 0x1 DUP2 MLOAD DUP2 LT PUSH2 0x1C9A JUMPI PUSH2 0x1C9A PUSH2 0x2742 JUMP JUMPDEST PUSH1 0x20 ADD ADD SWAP1 PUSH1 0x1 PUSH1 0x1 PUSH1 0xF8 SHL SUB NOT AND SWAP1 DUP2 PUSH1 0x0 BYTE SWAP1 MSTORE8 POP PUSH1 0x0 PUSH2 0x1CBE DUP5 PUSH1 0x2 PUSH2 0x294E JUMP JUMPDEST PUSH2 0x1CC9 SWAP1 PUSH1 0x1 PUSH2 0x296D JUMP JUMPDEST SWAP1 POP JUMPDEST PUSH1 0x1 DUP2 GT ISZERO PUSH2 0x1D41 JUMPI PUSH16 0x181899199A1A9B1B9C1CB0B131B232B3 PUSH1 0x81 SHL DUP6 PUSH1 0xF AND PUSH1 0x10 DUP2 LT PUSH2 0x1CFD JUMPI PUSH2 0x1CFD PUSH2 0x2742 JUMP JUMPDEST BYTE PUSH1 0xF8 SHL DUP3 DUP3 DUP2 MLOAD DUP2 LT PUSH2 0x1D13 JUMPI PUSH2 0x1D13 PUSH2 0x2742 JUMP JUMPDEST PUSH1 0x20 ADD ADD SWAP1 PUSH1 0x1 PUSH1 0x1 PUSH1 0xF8 SHL SUB NOT AND SWAP1 DUP2 PUSH1 0x0 BYTE SWAP1 MSTORE8 POP PUSH1 0x4 SWAP5 SWAP1 SWAP5 SHR SWAP4 PUSH2 0x1D3A DUP2 PUSH2 0x2985 JUMP JUMPDEST SWAP1 POP PUSH2 0x1CCC JUMP JUMPDEST POP DUP4 ISZERO PUSH2 0xBB4 JUMPI PUSH1 0x40 MLOAD PUSH3 0x461BCD PUSH1 0xE5 SHL DUP2 MSTORE PUSH1 0x20 PUSH1 0x4 DUP3 ADD DUP2 SWAP1 MSTORE PUSH1 0x24 DUP3 ADD MSTORE PUSH32 0x537472696E67733A20686578206C656E67746820696E73756666696369656E74 PUSH1 0x44 DUP3 ADD MSTORE PUSH1 0x64 ADD PUSH2 0x5E0 JUMP JUMPDEST PUSH1 0x0 DUP2 DUP2 MSTORE PUSH1 0x1 DUP4 ADD PUSH1 0x20 MSTORE PUSH1 0x40 DUP2 KECCAK256 SLOAD PUSH2 0x1DD7 JUMPI POP DUP2 SLOAD PUSH1 0x1 DUP2 DUP2 ADD DUP5 SSTORE PUSH1 0x0 DUP5 DUP2 MSTORE PUSH1 0x20 DUP1 DUP3 KECCAK256 SWAP1 SWAP4 ADD DUP5 SWAP1 SSTORE DUP5 SLOAD DUP5 DUP3 MSTORE DUP3 DUP7 ADD SWAP1 SWAP4 MSTORE PUSH1 0x40 SWAP1 KECCAK256 SWAP2 SWAP1 SWAP2 SSTORE PUSH2 0x4AC JUMP JUMPDEST POP PUSH1 0x0 PUSH2 0x4AC JUMP JUMPDEST PUSH1 0x0 DUP2 DUP2 MSTORE PUSH1 0x1 DUP4 ADD PUSH1 0x20 MSTORE PUSH1 0x40 DUP2 KECCAK256 SLOAD DUP1 ISZERO PUSH2 0x1EC8 JUMPI PUSH1 0x0 PUSH2 0x1E03 PUSH1 0x1 DUP4 PUSH2 0x299C JUMP JUMPDEST DUP6 SLOAD SWAP1 SWAP2 POP PUSH1 0x0 SWAP1 PUSH2 0x1E17 SWAP1 PUSH1 0x1 SWAP1 PUSH2 0x299C JUMP JUMPDEST SWAP1 POP DUP2 DUP2 EQ PUSH2 0x1E7C JUMPI PUSH1 0x0 DUP7 PUSH1 0x0 ADD DUP3 DUP2 SLOAD DUP2 LT PUSH2 0x1E37 JUMPI PUSH2 0x1E37 PUSH2 0x2742 JUMP JUMPDEST SWAP1 PUSH1 0x0 MSTORE PUSH1 0x20 PUSH1 0x0 KECCAK256 ADD SLOAD SWAP1 POP DUP1 DUP8 PUSH1 0x0 ADD DUP5 DUP2 SLOAD DUP2 LT PUSH2 0x1E5A JUMPI PUSH2 0x1E5A PUSH2 0x2742 JUMP JUMPDEST PUSH1 0x0 SWAP2 DUP3 MSTORE PUSH1 0x20 DUP1 DUP4 KECCAK256 SWAP1 SWAP2 ADD SWAP3 SWAP1 SWAP3 SSTORE SWAP2 DUP3 MSTORE PUSH1 0x1 DUP9 ADD SWAP1 MSTORE PUSH1 0x40 SWAP1 KECCAK256 DUP4 SWAP1 SSTORE JUMPDEST DUP6 SLOAD DUP7 SWAP1 DUP1 PUSH2 0x1E8D JUMPI PUSH2 0x1E8D PUSH2 0x29B3 JUMP JUMPDEST PUSH1 0x1 SWAP1 SUB DUP2 DUP2 SWAP1 PUSH1 0x0 MSTORE PUSH1 0x20 PUSH1 0x0 KECCAK256 ADD PUSH1 0x0 SWAP1 SSTORE SWAP1 SSTORE DUP6 PUSH1 0x1 ADD PUSH1 0x0 DUP7 DUP2 MSTORE PUSH1 0x20 ADD SWAP1 DUP2 MSTORE PUSH1 0x20 ADD PUSH1 0x0 KECCAK256 PUSH1 0x0 SWAP1 SSTORE PUSH1 0x1 SWAP4 POP POP POP POP PUSH2 0x4AC JUMP JUMPDEST PUSH1 0x0 SWAP2 POP POP PUSH2 0x4AC JUMP JUMPDEST PUSH2 0x7ED DUP3 DUP3 PUSH2 0x10D7 JUMP JUMPDEST PUSH1 0x0 PUSH1 0x1 PUSH1 0x1 PUSH1 0xE0 SHL SUB NOT DUP3 AND PUSH4 0x7965DB0B PUSH1 0xE0 SHL EQ DUP1 PUSH2 0x4AC JUMPI POP PUSH4 0x1FFC9A7 PUSH1 0xE0 SHL PUSH1 0x1 PUSH1 0x1 PUSH1 0xE0 SHL SUB NOT DUP4 AND EQ PUSH2 0x4AC JUMP JUMPDEST PUSH2 0x1F1D DUP5 DUP5 DUP5 DUP5 PUSH2 0x2051 JUMP JUMPDEST PUSH1 0x1 DUP2 GT ISZERO PUSH2 0x1F8C JUMPI PUSH1 0x40 MLOAD PUSH3 0x461BCD PUSH1 0xE5 SHL DUP2 MSTORE PUSH1 0x20 PUSH1 0x4 DUP3 ADD MSTORE PUSH1 0x35 PUSH1 0x24 DUP3 ADD MSTORE PUSH32 0x455243373231456E756D657261626C653A20636F6E7365637574697665207472 PUSH1 0x44 DUP3 ADD MSTORE PUSH21 0x185B9CD9995C9CC81B9BDD081CDD5C1C1BDC9D1959 PUSH1 0x5A SHL PUSH1 0x64 DUP3 ADD MSTORE PUSH1 0x84 ADD PUSH2 0x5E0 JUMP JUMPDEST DUP2 PUSH1 0x1 PUSH1 0x1 PUSH1 0xA0 SHL SUB DUP6 AND PUSH2 0x1FE8 JUMPI PUSH2 0x1FE3 DUP2 PUSH1 0xFD DUP1 SLOAD PUSH1 0x0 DUP4 DUP2 MSTORE PUSH1 0xFE PUSH1 0x20 MSTORE PUSH1 0x40 DUP2 KECCAK256 DUP3 SWAP1 SSTORE PUSH1 0x1 DUP3 ADD DUP4 SSTORE SWAP2 SWAP1 SWAP2 MSTORE PUSH32 0x9346AC6DD7DE6B96975FEC380D4D994C4C12E6A8897544F22915316CC6CCA280 ADD SSTORE JUMP JUMPDEST PUSH2 0x200B JUMP JUMPDEST DUP4 PUSH1 0x1 PUSH1 0x1 PUSH1 0xA0 SHL SUB AND DUP6 PUSH1 0x1 PUSH1 0x1 PUSH1 0xA0 SHL SUB AND EQ PUSH2 0x200B JUMPI PUSH2 0x200B DUP6 DUP3 PUSH2 0x20D9 JUMP JUMPDEST PUSH1 0x1 PUSH1 0x1 PUSH1 0xA0 SHL SUB DUP5 AND PUSH2 0x2027 JUMPI PUSH2 0x2022 DUP2 PUSH2 0x2176 JUMP JUMPDEST PUSH2 0x204A JUMP JUMPDEST DUP5 PUSH1 0x1 PUSH1 0x1 PUSH1 0xA0 SHL SUB AND DUP5 PUSH1 0x1 PUSH1 0x1 PUSH1 0xA0 SHL SUB AND EQ PUSH2 0x204A JUMPI PUSH2 0x204A DUP5 DUP3 PUSH2 0x2225 JUMP JUMPDEST POP POP POP POP POP JUMP JUMPDEST PUSH1 0x1 DUP2 GT ISZERO PUSH2 0xD11 JUMPI PUSH1 0x1 PUSH1 0x1 PUSH1 0xA0 SHL SUB DUP5 AND ISZERO PUSH2 0x2097 JUMPI PUSH1 0x1 PUSH1 0x1 PUSH1 0xA0 SHL SUB DUP5 AND PUSH1 0x0 SWAP1 DUP2 MSTORE PUSH1 0xCC PUSH1 0x20 MSTORE PUSH1 0x40 DUP2 KECCAK256 DUP1 SLOAD DUP4 SWAP3 SWAP1 PUSH2 0x2091 SWAP1 DUP5 SWAP1 PUSH2 0x299C JUMP JUMPDEST SWAP1 SWAP2 SSTORE POP POP JUMPDEST PUSH1 0x1 PUSH1 0x1 PUSH1 0xA0 SHL SUB DUP4 AND ISZERO PUSH2 0xD11 JUMPI PUSH1 0x1 PUSH1 0x1 PUSH1 0xA0 SHL SUB DUP4 AND PUSH1 0x0 SWAP1 DUP2 MSTORE PUSH1 0xCC PUSH1 0x20 MSTORE PUSH1 0x40 DUP2 KECCAK256 DUP1 SLOAD DUP4 SWAP3 SWAP1 PUSH2 0x20CE SWAP1 DUP5 SWAP1 PUSH2 0x296D JUMP JUMPDEST SWAP1 SWAP2 SSTORE POP POP POP POP POP POP JUMP JUMPDEST PUSH1 0x0 PUSH1 0x1 PUSH2 0x20E6 DUP5 PUSH2 0xA84 JUMP JUMPDEST PUSH2 0x20F0 SWAP2 SWAP1 PUSH2 0x299C JUMP JUMPDEST PUSH1 0x0 DUP4 DUP2 MSTORE PUSH1 0xFC PUSH1 0x20 MSTORE PUSH1 0x40 SWAP1 KECCAK256 SLOAD SWAP1 SWAP2 POP DUP1 DUP3 EQ PUSH2 0x2143 JUMPI PUSH1 0x1 PUSH1 0x1 PUSH1 0xA0 SHL SUB DUP5 AND PUSH1 0x0 SWAP1 DUP2 MSTORE PUSH1 0xFB PUSH1 0x20 SWAP1 DUP2 MSTORE PUSH1 0x40 DUP1 DUP4 KECCAK256 DUP6 DUP5 MSTORE DUP3 MSTORE DUP1 DUP4 KECCAK256 SLOAD DUP5 DUP5 MSTORE DUP2 DUP5 KECCAK256 DUP2 SWAP1 SSTORE DUP4 MSTORE PUSH1 0xFC SWAP1 SWAP2 MSTORE SWAP1 KECCAK256 DUP2 SWAP1 SSTORE JUMPDEST POP PUSH1 0x0 SWAP2 DUP3 MSTORE PUSH1 0xFC PUSH1 0x20 SWAP1 DUP2 MSTORE PUSH1 0x40 DUP1 DUP5 KECCAK256 DUP5 SWAP1 SSTORE PUSH1 0x1 PUSH1 0x1 PUSH1 0xA0 SHL SUB SWAP1 SWAP5 AND DUP4 MSTORE PUSH1 0xFB DUP2 MSTORE DUP4 DUP4 KECCAK256 SWAP2 DUP4 MSTORE MSTORE SWAP1 DUP2 KECCAK256 SSTORE JUMP JUMPDEST PUSH1 0xFD SLOAD PUSH1 0x0 SWAP1 PUSH2 0x2188 SWAP1 PUSH1 0x1 SWAP1 PUSH2 0x299C JUMP JUMPDEST PUSH1 0x0 DUP4 DUP2 MSTORE PUSH1 0xFE PUSH1 0x20 MSTORE PUSH1 0x40 DUP2 KECCAK256 SLOAD PUSH1 0xFD DUP1 SLOAD SWAP4 SWAP5 POP SWAP1 SWAP3 DUP5 SWAP1 DUP2 LT PUSH2 0x21B0 JUMPI PUSH2 0x21B0 PUSH2 0x2742 JUMP JUMPDEST SWAP1 PUSH1 0x0 MSTORE PUSH1 0x20 PUSH1 0x0 KECCAK256 ADD SLOAD SWAP1 POP DUP1 PUSH1 0xFD DUP4 DUP2 SLOAD DUP2 LT PUSH2 0x21D1 JUMPI PUSH2 0x21D1 PUSH2 0x2742 JUMP JUMPDEST PUSH1 0x0 SWAP2 DUP3 MSTORE PUSH1 0x20 DUP1 DUP4 KECCAK256 SWAP1 SWAP2 ADD SWAP3 SWAP1 SWAP3 SSTORE DUP3 DUP2 MSTORE PUSH1 0xFE SWAP1 SWAP2 MSTORE PUSH1 0x40 DUP1 DUP3 KECCAK256 DUP5 SWAP1 SSTORE DUP6 DUP3 MSTORE DUP2 KECCAK256 SSTORE PUSH1 0xFD DUP1 SLOAD DUP1 PUSH2 0x2209 JUMPI PUSH2 0x2209 PUSH2 0x29B3 JUMP JUMPDEST PUSH1 0x1 SWAP1 SUB DUP2 DUP2 SWAP1 PUSH1 0x0 MSTORE PUSH1 0x20 PUSH1 0x0 KECCAK256 ADD PUSH1 0x0 SWAP1 SSTORE SWAP1 SSTORE POP POP POP POP JUMP JUMPDEST PUSH1 0x0 PUSH2 0x2230 DUP4 PUSH2 0xA84 JUMP JUMPDEST PUSH1 0x1 PUSH1 0x1 PUSH1 0xA0 SHL SUB SWAP1 SWAP4 AND PUSH1 0x0 SWAP1 DUP2 MSTORE PUSH1 0xFB PUSH1 0x20 SWAP1 DUP2 MSTORE PUSH1 0x40 DUP1 DUP4 KECCAK256 DUP7 DUP5 MSTORE DUP3 MSTORE DUP1 DUP4 KECCAK256 DUP6 SWAP1 SSTORE SWAP4 DUP3 MSTORE PUSH1 0xFC SWAP1 MSTORE SWAP2 SWAP1 SWAP2 KECCAK256 SWAP2 SWAP1 SWAP2 SSTORE POP JUMP JUMPDEST DUP3 DUP1 SLOAD PUSH2 0x2275 SWAP1 PUSH2 0x26BA JUMP JUMPDEST SWAP1 PUSH1 0x0 MSTORE PUSH1 0x20 PUSH1 0x0 KECCAK256 SWAP1 PUSH1 0x1F ADD PUSH1 0x20 SWAP1 DIV DUP2 ADD SWAP3 DUP3 PUSH2 0x2297 JUMPI PUSH1 0x0 DUP6 SSTORE PUSH2 0x22DD JUMP JUMPDEST DUP3 PUSH1 0x1F LT PUSH2 0x22B0 JUMPI DUP1 MLOAD PUSH1 0xFF NOT AND DUP4 DUP1 ADD OR DUP6 SSTORE PUSH2 0x22DD JUMP JUMPDEST DUP3 DUP1 ADD PUSH1 0x1 ADD DUP6 SSTORE DUP3 ISZERO PUSH2 0x22DD JUMPI SWAP2 DUP3 ADD JUMPDEST DUP3 DUP2 GT ISZERO PUSH2 0x22DD JUMPI DUP3 MLOAD DUP3 SSTORE SWAP2 PUSH1 0x20 ADD SWAP2 SWAP1 PUSH1 0x1 ADD SWAP1 PUSH2 0x22C2 JUMP JUMPDEST POP PUSH2 0x22E9 SWAP3 SWAP2 POP PUSH2 0x22ED JUMP JUMPDEST POP SWAP1 JUMP JUMPDEST JUMPDEST DUP1 DUP3 GT ISZERO PUSH2 0x22E9 JUMPI PUSH1 0x0 DUP2 SSTORE PUSH1 0x1 ADD PUSH2 0x22EE JUMP JUMPDEST PUSH1 0x1 PUSH1 0x1 PUSH1 0xE0 SHL SUB NOT DUP2 AND DUP2 EQ PUSH2 0x8D0 JUMPI PUSH1 0x0 DUP1 REVERT JUMPDEST PUSH1 0x0 PUSH1 0x20 DUP3 DUP5 SUB SLT ISZERO PUSH2 0x232A JUMPI PUSH1 0x0 DUP1 REVERT JUMPDEST DUP2 CALLDATALOAD PUSH2 0xBB4 DUP2 PUSH2 0x2302 JUMP JUMPDEST PUSH1 0x0 JUMPDEST DUP4 DUP2 LT ISZERO PUSH2 0x2350 JUMPI DUP2 DUP2 ADD MLOAD DUP4 DUP3 ADD MSTORE PUSH1 0x20 ADD PUSH2 0x2338 JUMP JUMPDEST DUP4 DUP2 GT ISZERO PUSH2 0xD11 JUMPI POP POP PUSH1 0x0 SWAP2 ADD MSTORE JUMP JUMPDEST PUSH1 0x0 DUP2 MLOAD DUP1 DUP5 MSTORE PUSH2 0x2379 DUP2 PUSH1 0x20 DUP7 ADD PUSH1 0x20 DUP7 ADD PUSH2 0x2335 JUMP JUMPDEST PUSH1 0x1F ADD PUSH1 0x1F NOT AND SWAP3 SWAP1 SWAP3 ADD PUSH1 0x20 ADD SWAP3 SWAP2 POP POP JUMP JUMPDEST PUSH1 0x20 DUP2 MSTORE PUSH1 0x0 PUSH2 0xBB4 PUSH1 0x20 DUP4 ADD DUP5 PUSH2 0x2361 JUMP JUMPDEST PUSH1 0x0 PUSH1 0x20 DUP3 DUP5 SUB SLT ISZERO PUSH2 0x23B2 JUMPI PUSH1 0x0 DUP1 REVERT JUMPDEST POP CALLDATALOAD SWAP2 SWAP1 POP JUMP JUMPDEST DUP1 CALLDATALOAD PUSH1 0x1 PUSH1 0x1 PUSH1 0xA0 SHL SUB DUP2 AND DUP2 EQ PUSH2 0x23D0 JUMPI PUSH1 0x0 DUP1 REVERT JUMPDEST SWAP2 SWAP1 POP JUMP JUMPDEST PUSH1 0x0 DUP1 PUSH1 0x40 DUP4 DUP6 SUB SLT ISZERO PUSH2 0x23E8 JUMPI PUSH1 0x0 DUP1 REVERT JUMPDEST PUSH2 0x23F1 DUP4 PUSH2 0x23B9 JUMP JUMPDEST SWAP5 PUSH1 0x20 SWAP4 SWAP1 SWAP4 ADD CALLDATALOAD SWAP4 POP POP POP JUMP JUMPDEST PUSH1 0x0 DUP1 PUSH1 0x0 PUSH1 0x60 DUP5 DUP7 SUB SLT ISZERO PUSH2 0x2414 JUMPI PUSH1 0x0 DUP1 REVERT JUMPDEST PUSH2 0x241D DUP5 PUSH2 0x23B9 JUMP JUMPDEST SWAP3 POP PUSH2 0x242B PUSH1 0x20 DUP6 ADD PUSH2 0x23B9 JUMP JUMPDEST SWAP2 POP PUSH1 0x40 DUP5 ADD CALLDATALOAD SWAP1 POP SWAP3 POP SWAP3 POP SWAP3 JUMP JUMPDEST PUSH1 0x0 DUP1 PUSH1 0x40 DUP4 DUP6 SUB SLT ISZERO PUSH2 0x244E JUMPI PUSH1 0x0 DUP1 REVERT JUMPDEST DUP3 CALLDATALOAD SWAP2 POP PUSH2 0x245E PUSH1 0x20 DUP5 ADD PUSH2 0x23B9 JUMP JUMPDEST SWAP1 POP SWAP3 POP SWAP3 SWAP1 POP JUMP JUMPDEST PUSH1 0x0 PUSH1 0x20 DUP3 DUP5 SUB SLT ISZERO PUSH2 0x2479 JUMPI PUSH1 0x0 DUP1 REVERT JUMPDEST PUSH2 0xBB4 DUP3 PUSH2 0x23B9 JUMP JUMPDEST PUSH1 0x0 DUP1 PUSH1 0x40 DUP4 DUP6 SUB SLT ISZERO PUSH2 0x2495 JUMPI PUSH1 0x0 DUP1 REVERT JUMPDEST POP POP DUP1 CALLDATALOAD SWAP3 PUSH1 0x20 SWAP1 SWAP2 ADD CALLDATALOAD SWAP2 POP JUMP JUMPDEST PUSH1 0x0 DUP1 PUSH1 0x40 DUP4 DUP6 SUB SLT ISZERO PUSH2 0x24B7 JUMPI PUSH1 0x0 DUP1 REVERT JUMPDEST PUSH2 0x24C0 DUP4 PUSH2 0x23B9 JUMP JUMPDEST SWAP2 POP PUSH1 0x20 DUP4 ADD CALLDATALOAD DUP1 ISZERO ISZERO DUP2 EQ PUSH2 0x24D5 JUMPI PUSH1 0x0 DUP1 REVERT JUMPDEST DUP1 SWAP2 POP POP SWAP3 POP SWAP3 SWAP1 POP JUMP JUMPDEST PUSH4 0x4E487B71 PUSH1 0xE0 SHL PUSH1 0x0 MSTORE PUSH1 0x41 PUSH1 0x4 MSTORE PUSH1 0x24 PUSH1 0x0 REVERT JUMPDEST PUSH1 0x0 PUSH8 0xFFFFFFFFFFFFFFFF DUP1 DUP5 GT ISZERO PUSH2 0x2511 JUMPI PUSH2 0x2511 PUSH2 0x24E0 JUMP JUMPDEST PUSH1 0x40 MLOAD PUSH1 0x1F DUP6 ADD PUSH1 0x1F NOT SWAP1 DUP2 AND PUSH1 0x3F ADD AND DUP2 ADD SWAP1 DUP3 DUP3 GT DUP2 DUP4 LT OR ISZERO PUSH2 0x2539 JUMPI PUSH2 0x2539 PUSH2 0x24E0 JUMP JUMPDEST DUP2 PUSH1 0x40 MSTORE DUP1 SWAP4 POP DUP6 DUP2 MSTORE DUP7 DUP7 DUP7 ADD GT ISZERO PUSH2 0x2552 JUMPI PUSH1 0x0 DUP1 REVERT JUMPDEST DUP6 DUP6 PUSH1 0x20 DUP4 ADD CALLDATACOPY PUSH1 0x0 PUSH1 0x20 DUP8 DUP4 ADD ADD MSTORE POP POP POP SWAP4 SWAP3 POP POP POP JUMP JUMPDEST PUSH1 0x0 DUP3 PUSH1 0x1F DUP4 ADD SLT PUSH2 0x257D JUMPI PUSH1 0x0 DUP1 REVERT JUMPDEST PUSH2 0xBB4 DUP4 DUP4 CALLDATALOAD PUSH1 0x20 DUP6 ADD PUSH2 0x24F6 JUMP JUMPDEST PUSH1 0x0 DUP1 PUSH1 0x0 PUSH1 0x60 DUP5 DUP7 SUB SLT ISZERO PUSH2 0x25A1 JUMPI PUSH1 0x0 DUP1 REVERT JUMPDEST DUP4 CALLDATALOAD PUSH8 0xFFFFFFFFFFFFFFFF DUP1 DUP3 GT ISZERO PUSH2 0x25B9 JUMPI PUSH1 0x0 DUP1 REVERT JUMPDEST PUSH2 0x25C5 DUP8 DUP4 DUP9 ADD PUSH2 0x256C JUMP JUMPDEST SWAP5 POP PUSH1 0x20 DUP7 ADD CALLDATALOAD SWAP2 POP DUP1 DUP3 GT ISZERO PUSH2 0x25DB JUMPI PUSH1 0x0 DUP1 REVERT JUMPDEST PUSH2 0x25E7 DUP8 DUP4 DUP9 ADD PUSH2 0x256C JUMP JUMPDEST SWAP4 POP PUSH1 0x40 DUP7 ADD CALLDATALOAD SWAP2 POP DUP1 DUP3 GT ISZERO PUSH2 0x25FD JUMPI PUSH1 0x0 DUP1 REVERT JUMPDEST POP PUSH2 0x260A DUP7 DUP3 DUP8 ADD PUSH2 0x256C JUMP JUMPDEST SWAP2 POP POP SWAP3 POP SWAP3 POP SWAP3 JUMP JUMPDEST PUSH1 0x0 DUP1 PUSH1 0x0 DUP1 PUSH1 0x80 DUP6 DUP8 SUB SLT ISZERO PUSH2 0x262A JUMPI PUSH1 0x0 DUP1 REVERT JUMPDEST PUSH2 0x2633 DUP6 PUSH2 0x23B9 JUMP JUMPDEST SWAP4 POP PUSH2 0x2641 PUSH1 0x20 DUP7 ADD PUSH2 0x23B9 JUMP JUMPDEST SWAP3 POP PUSH1 0x40 DUP6 ADD CALLDATALOAD SWAP2 POP PUSH1 0x60 DUP6 ADD CALLDATALOAD PUSH8 0xFFFFFFFFFFFFFFFF DUP2 GT ISZERO PUSH2 0x2664 JUMPI PUSH1 0x0 DUP1 REVERT JUMPDEST DUP6 ADD PUSH1 0x1F DUP2 ADD DUP8 SGT PUSH2 0x2675 JUMPI PUSH1 0x0 DUP1 REVERT JUMPDEST PUSH2 0x2684 DUP8 DUP3 CALLDATALOAD PUSH1 0x20 DUP5 ADD PUSH2 0x24F6 JUMP JUMPDEST SWAP2 POP POP SWAP3 SWAP6 SWAP2 SWAP5 POP SWAP3 POP JUMP JUMPDEST PUSH1 0x0 DUP1 PUSH1 0x40 DUP4 DUP6 SUB SLT ISZERO PUSH2 0x26A3 JUMPI PUSH1 0x0 DUP1 REVERT JUMPDEST PUSH2 0x26AC DUP4 PUSH2 0x23B9 JUMP JUMPDEST SWAP2 POP PUSH2 0x245E PUSH1 0x20 DUP5 ADD PUSH2 0x23B9 JUMP JUMPDEST PUSH1 0x1 DUP2 DUP2 SHR SWAP1 DUP3 AND DUP1 PUSH2 0x26CE JUMPI PUSH1 0x7F DUP3 AND SWAP2 POP JUMPDEST PUSH1 0x20 DUP3 LT DUP2 EQ ISZERO PUSH2 0x26EF JUMPI PUSH4 0x4E487B71 PUSH1 0xE0 SHL PUSH1 0x0 MSTORE PUSH1 0x22 PUSH1 0x4 MSTORE PUSH1 0x24 PUSH1 0x0 REVERT JUMPDEST POP SWAP2 SWAP1 POP JUMP JUMPDEST PUSH1 0x20 DUP1 DUP3 MSTORE PUSH1 0x2D SWAP1 DUP3 ADD MSTORE PUSH32 0x4552433732313A2063616C6C6572206973206E6F7420746F6B656E206F776E65 PUSH1 0x40 DUP3 ADD MSTORE PUSH13 0x1C881BDC88185C1C1C9BDD9959 PUSH1 0x9A SHL PUSH1 0x60 DUP3 ADD MSTORE PUSH1 0x80 ADD SWAP1 JUMP JUMPDEST PUSH4 0x4E487B71 PUSH1 0xE0 SHL PUSH1 0x0 MSTORE PUSH1 0x32 PUSH1 0x4 MSTORE PUSH1 0x24 PUSH1 0x0 REVERT JUMPDEST PUSH1 0x0 DUP4 MLOAD PUSH2 0x276A DUP2 DUP5 PUSH1 0x20 DUP9 ADD PUSH2 0x2335 JUMP JUMPDEST DUP4 MLOAD SWAP1 DUP4 ADD SWAP1 PUSH2 0x277E DUP2 DUP4 PUSH1 0x20 DUP9 ADD PUSH2 0x2335 JUMP JUMPDEST ADD SWAP5 SWAP4 POP POP POP POP JUMP JUMPDEST PUSH1 0x20 DUP1 DUP3 MSTORE PUSH1 0x25 SWAP1 DUP3 ADD MSTORE PUSH32 0x4552433732313A207472616E736665722066726F6D20696E636F727265637420 PUSH1 0x40 DUP3 ADD MSTORE PUSH5 0x37BBB732B9 PUSH1 0xD9 SHL PUSH1 0x60 DUP3 ADD MSTORE PUSH1 0x80 ADD SWAP1 JUMP JUMPDEST PUSH1 0x20 DUP1 DUP3 MSTORE PUSH1 0x2B SWAP1 DUP3 ADD MSTORE PUSH32 0x496E697469616C697A61626C653A20636F6E7472616374206973206E6F742069 PUSH1 0x40 DUP3 ADD MSTORE PUSH11 0x6E697469616C697A696E67 PUSH1 0xA8 SHL PUSH1 0x60 DUP3 ADD MSTORE PUSH1 0x80 ADD SWAP1 JUMP JUMPDEST PUSH1 0x20 DUP1 DUP3 MSTORE PUSH1 0x32 SWAP1 DUP3 ADD MSTORE PUSH32 0x4552433732313A207472616E7366657220746F206E6F6E204552433732315265 PUSH1 0x40 DUP3 ADD MSTORE PUSH18 0x31B2B4BB32B91034B6B83632B6B2B73A32B9 PUSH1 0x71 SHL PUSH1 0x60 DUP3 ADD MSTORE PUSH1 0x80 ADD SWAP1 JUMP JUMPDEST PUSH32 0x416363657373436F6E74726F6C3A206163636F756E7420000000000000000000 DUP2 MSTORE PUSH1 0x0 DUP4 MLOAD PUSH2 0x28A1 DUP2 PUSH1 0x17 DUP6 ADD PUSH1 0x20 DUP9 ADD PUSH2 0x2335 JUMP JUMPDEST PUSH17 0x1034B99036B4B9B9B4B733903937B6329 PUSH1 0x7D SHL PUSH1 0x17 SWAP2 DUP5 ADD SWAP2 DUP3 ADD MSTORE DUP4 MLOAD PUSH2 0x28D2 DUP2 PUSH1 0x28 DUP5 ADD PUSH1 0x20 DUP9 ADD PUSH2 0x2335 JUMP JUMPDEST ADD PUSH1 0x28 ADD SWAP5 SWAP4 POP POP POP POP JUMP JUMPDEST PUSH1 0x1 PUSH1 0x1 PUSH1 0xA0 SHL SUB DUP6 DUP2 AND DUP3 MSTORE DUP5 AND PUSH1 0x20 DUP3 ADD MSTORE PUSH1 0x40 DUP2 ADD DUP4 SWAP1 MSTORE PUSH1 0x80 PUSH1 0x60 DUP3 ADD DUP2 SWAP1 MSTORE PUSH1 0x0 SWAP1 PUSH2 0x2911 SWAP1 DUP4 ADD DUP5 PUSH2 0x2361 JUMP JUMPDEST SWAP7 SWAP6 POP POP POP POP POP POP JUMP JUMPDEST PUSH1 0x0 PUSH1 0x20 DUP3 DUP5 SUB SLT ISZERO PUSH2 0x292D JUMPI PUSH1 0x0 DUP1 REVERT JUMPDEST DUP2 MLOAD PUSH2 0xBB4 DUP2 PUSH2 0x2302 JUMP JUMPDEST PUSH4 0x4E487B71 PUSH1 0xE0 SHL PUSH1 0x0 MSTORE PUSH1 0x11 PUSH1 0x4 MSTORE PUSH1 0x24 PUSH1 0x0 REVERT JUMPDEST PUSH1 0x0 DUP2 PUSH1 0x0 NOT DIV DUP4 GT DUP3 ISZERO ISZERO AND ISZERO PUSH2 0x2968 JUMPI PUSH2 0x2968 PUSH2 0x2938 JUMP JUMPDEST POP MUL SWAP1 JUMP JUMPDEST PUSH1 0x0 DUP3 NOT DUP3 GT ISZERO PUSH2 0x2980 JUMPI PUSH2 0x2980 PUSH2 0x2938 JUMP JUMPDEST POP ADD SWAP1 JUMP JUMPDEST PUSH1 0x0 DUP2 PUSH2 0x2994 JUMPI PUSH2 0x2994 PUSH2 0x2938 JUMP JUMPDEST POP PUSH1 0x0 NOT ADD SWAP1 JUMP JUMPDEST PUSH1 0x0 DUP3 DUP3 LT ISZERO PUSH2 0x29AE JUMPI PUSH2 0x29AE PUSH2 0x2938 JUMP JUMPDEST POP SUB SWAP1 JUMP JUMPDEST PUSH4 0x4E487B71 PUSH1 0xE0 SHL PUSH1 0x0 MSTORE PUSH1 0x31 PUSH1 0x4 MSTORE PUSH1 0x24 PUSH1 0x0 REVERT INVALID PUSH6 0xD7A28E3265B3 PUSH27 0x6474929F336521B332C1681B933F6CB9F3376673440D862AA26469 PUSH17 0x667358221220BD02E2035B2370602ADC2F ISZERO 0xCE DIFFICULTY DUP15 EXP 0x28 SELFBALANCE 0xC4 EXTCODEHASH PC ADDMOD 0x21 JUMPI PUSH26 0x1E5406391A1A1B64736F6C634300080C00330000000000000000 "},"methodIdentifiers":{"DEFAULT_ADMIN_ROLE()":"a217fddf","MINTER_ROLE()":"d5391393","PAUSER_ROLE()":"e63ab1e9","approve(address,uint256)":"095ea7b3","balanceOf(address)":"70a08231","burn(uint256)":"42966c68","getApproved(uint256)":"081812fc","getRoleAdmin(bytes32)":"248a9ca3","getRoleMember(bytes32,uint256)":"9010d07c","getRoleMemberCount(bytes32)":"ca15c873","grantRole(bytes32,address)":"2f2ff15d","hasRole(bytes32,address)":"91d14854","initialize(string,string,string)":"a6487c53","isApprovedForAll(address,address)":"e985e9c5","mint(address)":"6a627842","name()":"06fdde03","ownerOf(uint256)":"6352211e","pause()":"8456cb59","paused()":"5c975abb","renounceRole(bytes32,address)":"36568abe","revokeRole(bytes32,address)":"d547741f","safeTransferFrom(address,address,uint256)":"42842e0e","safeTransferFrom(address,address,uint256,bytes)":"b88d4fde","setApprovalForAll(address,bool)":"a22cb465","supportsInterface(bytes4)":"01ffc9a7","symbol()":"95d89b41","tokenByIndex(uint256)":"4f6ccce7","tokenOfOwnerByIndex(address,uint256)":"2f745c59","tokenURI(uint256)":"c87b56dd","totalSupply()":"18160ddd","transferFrom(address,address,uint256)":"23b872dd","unpause()":"3f4ba83a"}},"storageLayout":{"storage":[{"astId":816,"contract":"@openzeppelin/contracts-upgradeable/token/ERC721/presets/ERC721PresetMinterPauserAutoIdUpgradeable.sol:ERC721PresetMinterPauserAutoIdUpgradeable","label":"_initialized","offset":0,"slot":"0","type":"t_uint8"},{"astId":819,"contract":"@openzeppelin/contracts-upgradeable/token/ERC721/presets/ERC721PresetMinterPauserAutoIdUpgradeable.sol:ERC721PresetMinterPauserAutoIdUpgradeable","label":"_initializing","offset":1,"slot":"0","type":"t_bool"},{"astId":3471,"contract":"@openzeppelin/contracts-upgradeable/token/ERC721/presets/ERC721PresetMinterPauserAutoIdUpgradeable.sol:ERC721PresetMinterPauserAutoIdUpgradeable","label":"__gap","offset":0,"slot":"1","type":"t_array(t_uint256)50_storage"},{"astId":3764,"contract":"@openzeppelin/contracts-upgradeable/token/ERC721/presets/ERC721PresetMinterPauserAutoIdUpgradeable.sol:ERC721PresetMinterPauserAutoIdUpgradeable","label":"__gap","offset":0,"slot":"51","type":"t_array(t_uint256)50_storage"},{"astId":184,"contract":"@openzeppelin/contracts-upgradeable/token/ERC721/presets/ERC721PresetMinterPauserAutoIdUpgradeable.sol:ERC721PresetMinterPauserAutoIdUpgradeable","label":"_roles","offset":0,"slot":"101","type":"t_mapping(t_bytes32,t_struct(RoleData)179_storage)"},{"astId":479,"contract":"@openzeppelin/contracts-upgradeable/token/ERC721/presets/ERC721PresetMinterPauserAutoIdUpgradeable.sol:ERC721PresetMinterPauserAutoIdUpgradeable","label":"__gap","offset":0,"slot":"102","type":"t_array(t_uint256)49_storage"},{"astId":33,"contract":"@openzeppelin/contracts-upgradeable/token/ERC721/presets/ERC721PresetMinterPauserAutoIdUpgradeable.sol:ERC721PresetMinterPauserAutoIdUpgradeable","label":"_roleMembers","offset":0,"slot":"151","type":"t_mapping(t_bytes32,t_struct(AddressSet)4968_storage)"},{"astId":143,"contract":"@openzeppelin/contracts-upgradeable/token/ERC721/presets/ERC721PresetMinterPauserAutoIdUpgradeable.sol:ERC721PresetMinterPauserAutoIdUpgradeable","label":"__gap","offset":0,"slot":"152","type":"t_array(t_uint256)49_storage"},{"astId":1285,"contract":"@openzeppelin/contracts-upgradeable/token/ERC721/presets/ERC721PresetMinterPauserAutoIdUpgradeable.sol:ERC721PresetMinterPauserAutoIdUpgradeable","label":"_name","offset":0,"slot":"201","type":"t_string_storage"},{"astId":1287,"contract":"@openzeppelin/contracts-upgradeable/token/ERC721/presets/ERC721PresetMinterPauserAutoIdUpgradeable.sol:ERC721PresetMinterPauserAutoIdUpgradeable","label":"_symbol","offset":0,"slot":"202","type":"t_string_storage"},{"astId":1291,"contract":"@openzeppelin/contracts-upgradeable/token/ERC721/presets/ERC721PresetMinterPauserAutoIdUpgradeable.sol:ERC721PresetMinterPauserAutoIdUpgradeable","label":"_owners","offset":0,"slot":"203","type":"t_mapping(t_uint256,t_address)"},{"astId":1295,"contract":"@openzeppelin/contracts-upgradeable/token/ERC721/presets/ERC721PresetMinterPauserAutoIdUpgradeable.sol:ERC721PresetMinterPauserAutoIdUpgradeable","label":"_balances","offset":0,"slot":"204","type":"t_mapping(t_address,t_uint256)"},{"astId":1299,"contract":"@openzeppelin/contracts-upgradeable/token/ERC721/presets/ERC721PresetMinterPauserAutoIdUpgradeable.sol:ERC721PresetMinterPauserAutoIdUpgradeable","label":"_tokenApprovals","offset":0,"slot":"205","type":"t_mapping(t_uint256,t_address)"},{"astId":1305,"contract":"@openzeppelin/contracts-upgradeable/token/ERC721/presets/ERC721PresetMinterPauserAutoIdUpgradeable.sol:ERC721PresetMinterPauserAutoIdUpgradeable","label":"_operatorApprovals","offset":0,"slot":"206","type":"t_mapping(t_address,t_mapping(t_address,t_bool))"},{"astId":2225,"contract":"@openzeppelin/contracts-upgradeable/token/ERC721/presets/ERC721PresetMinterPauserAutoIdUpgradeable.sol:ERC721PresetMinterPauserAutoIdUpgradeable","label":"__gap","offset":0,"slot":"207","type":"t_array(t_uint256)44_storage"},{"astId":2440,"contract":"@openzeppelin/contracts-upgradeable/token/ERC721/presets/ERC721PresetMinterPauserAutoIdUpgradeable.sol:ERC721PresetMinterPauserAutoIdUpgradeable","label":"_ownedTokens","offset":0,"slot":"251","type":"t_mapping(t_address,t_mapping(t_uint256,t_uint256))"},{"astId":2444,"contract":"@openzeppelin/contracts-upgradeable/token/ERC721/presets/ERC721PresetMinterPauserAutoIdUpgradeable.sol:ERC721PresetMinterPauserAutoIdUpgradeable","label":"_ownedTokensIndex","offset":0,"slot":"252","type":"t_mapping(t_uint256,t_uint256)"},{"astId":2447,"contract":"@openzeppelin/contracts-upgradeable/token/ERC721/presets/ERC721PresetMinterPauserAutoIdUpgradeable.sol:ERC721PresetMinterPauserAutoIdUpgradeable","label":"_allTokens","offset":0,"slot":"253","type":"t_array(t_uint256)dyn_storage"},{"astId":2451,"contract":"@openzeppelin/contracts-upgradeable/token/ERC721/presets/ERC721PresetMinterPauserAutoIdUpgradeable.sol:ERC721PresetMinterPauserAutoIdUpgradeable","label":"_allTokensIndex","offset":0,"slot":"254","type":"t_mapping(t_uint256,t_uint256)"},{"astId":2783,"contract":"@openzeppelin/contracts-upgradeable/token/ERC721/presets/ERC721PresetMinterPauserAutoIdUpgradeable.sol:ERC721PresetMinterPauserAutoIdUpgradeable","label":"__gap","offset":0,"slot":"255","type":"t_array(t_uint256)46_storage"},{"astId":2409,"contract":"@openzeppelin/contracts-upgradeable/token/ERC721/presets/ERC721PresetMinterPauserAutoIdUpgradeable.sol:ERC721PresetMinterPauserAutoIdUpgradeable","label":"__gap","offset":0,"slot":"301","type":"t_array(t_uint256)50_storage"},{"astId":999,"contract":"@openzeppelin/contracts-upgradeable/token/ERC721/presets/ERC721PresetMinterPauserAutoIdUpgradeable.sol:ERC721PresetMinterPauserAutoIdUpgradeable","label":"_paused","offset":0,"slot":"351","type":"t_bool"},{"astId":1104,"contract":"@openzeppelin/contracts-upgradeable/token/ERC721/presets/ERC721PresetMinterPauserAutoIdUpgradeable.sol:ERC721PresetMinterPauserAutoIdUpgradeable","label":"__gap","offset":0,"slot":"352","type":"t_array(t_uint256)49_storage"},{"astId":2846,"contract":"@openzeppelin/contracts-upgradeable/token/ERC721/presets/ERC721PresetMinterPauserAutoIdUpgradeable.sol:ERC721PresetMinterPauserAutoIdUpgradeable","label":"__gap","offset":0,"slot":"401","type":"t_array(t_uint256)50_storage"},{"astId":2963,"contract":"@openzeppelin/contracts-upgradeable/token/ERC721/presets/ERC721PresetMinterPauserAutoIdUpgradeable.sol:ERC721PresetMinterPauserAutoIdUpgradeable","label":"_tokenIdTracker","offset":0,"slot":"451","type":"t_struct(Counter)3478_storage"},{"astId":2965,"contract":"@openzeppelin/contracts-upgradeable/token/ERC721/presets/ERC721PresetMinterPauserAutoIdUpgradeable.sol:ERC721PresetMinterPauserAutoIdUpgradeable","label":"_baseTokenURI","offset":0,"slot":"452","type":"t_string_storage"},{"astId":3145,"contract":"@openzeppelin/contracts-upgradeable/token/ERC721/presets/ERC721PresetMinterPauserAutoIdUpgradeable.sol:ERC721PresetMinterPauserAutoIdUpgradeable","label":"__gap","offset":0,"slot":"453","type":"t_array(t_uint256)48_storage"}],"types":{"t_address":{"encoding":"inplace","label":"address","numberOfBytes":"20"},"t_array(t_bytes32)dyn_storage":{"base":"t_bytes32","encoding":"dynamic_array","label":"bytes32[]","numberOfBytes":"32"},"t_array(t_uint256)44_storage":{"base":"t_uint256","encoding":"inplace","label":"uint256[44]","numberOfBytes":"1408"},"t_array(t_uint256)46_storage":{"base":"t_uint256","encoding":"inplace","label":"uint256[46]","numberOfBytes":"1472"},"t_array(t_uint256)48_storage":{"base":"t_uint256","encoding":"inplace","label":"uint256[48]","numberOfBytes":"1536"},"t_array(t_uint256)49_storage":{"base":"t_uint256","encoding":"inplace","label":"uint256[49]","numberOfBytes":"1568"},"t_array(t_uint256)50_storage":{"base":"t_uint256","encoding":"inplace","label":"uint256[50]","numberOfBytes":"1600"},"t_array(t_uint256)dyn_storage":{"base":"t_uint256","encoding":"dynamic_array","label":"uint256[]","numberOfBytes":"32"},"t_bool":{"encoding":"inplace","label":"bool","numberOfBytes":"1"},"t_bytes32":{"encoding":"inplace","label":"bytes32","numberOfBytes":"32"},"t_mapping(t_address,t_bool)":{"encoding":"mapping","key":"t_address","label":"mapping(address => bool)","numberOfBytes":"32","value":"t_bool"},"t_mapping(t_address,t_mapping(t_address,t_bool))":{"encoding":"mapping","key":"t_address","label":"mapping(address => mapping(address => bool))","numberOfBytes":"32","value":"t_mapping(t_address,t_bool)"},"t_mapping(t_address,t_mapping(t_uint256,t_uint256))":{"encoding":"mapping","key":"t_address","label":"mapping(address => mapping(uint256 => uint256))","numberOfBytes":"32","value":"t_mapping(t_uint256,t_uint256)"},"t_mapping(t_address,t_uint256)":{"encoding":"mapping","key":"t_address","label":"mapping(address => uint256)","numberOfBytes":"32","value":"t_uint256"},"t_mapping(t_bytes32,t_struct(AddressSet)4968_storage)":{"encoding":"mapping","key":"t_bytes32","label":"mapping(bytes32 => struct EnumerableSetUpgradeable.AddressSet)","numberOfBytes":"32","value":"t_struct(AddressSet)4968_storage"},"t_mapping(t_bytes32,t_struct(RoleData)179_storage)":{"encoding":"mapping","key":"t_bytes32","label":"mapping(bytes32 => struct AccessControlUpgradeable.RoleData)","numberOfBytes":"32","value":"t_struct(RoleData)179_storage"},"t_mapping(t_bytes32,t_uint256)":{"encoding":"mapping","key":"t_bytes32","label":"mapping(bytes32 => uint256)","numberOfBytes":"32","value":"t_uint256"},"t_mapping(t_uint256,t_address)":{"encoding":"mapping","key":"t_uint256","label":"mapping(uint256 => address)","numberOfBytes":"32","value":"t_address"},"t_mapping(t_uint256,t_uint256)":{"encoding":"mapping","key":"t_uint256","label":"mapping(uint256 => uint256)","numberOfBytes":"32","value":"t_uint256"},"t_string_storage":{"encoding":"bytes","label":"string","numberOfBytes":"32"},"t_struct(AddressSet)4968_storage":{"encoding":"inplace","label":"struct EnumerableSetUpgradeable.AddressSet","members":[{"astId":4967,"contract":"@openzeppelin/contracts-upgradeable/token/ERC721/presets/ERC721PresetMinterPauserAutoIdUpgradeable.sol:ERC721PresetMinterPauserAutoIdUpgradeable","label":"_inner","offset":0,"slot":"0","type":"t_struct(Set)4653_storage"}],"numberOfBytes":"64"},"t_struct(Counter)3478_storage":{"encoding":"inplace","label":"struct CountersUpgradeable.Counter","members":[{"astId":3477,"contract":"@openzeppelin/contracts-upgradeable/token/ERC721/presets/ERC721PresetMinterPauserAutoIdUpgradeable.sol:ERC721PresetMinterPauserAutoIdUpgradeable","label":"_value","offset":0,"slot":"0","type":"t_uint256"}],"numberOfBytes":"32"},"t_struct(RoleData)179_storage":{"encoding":"inplace","label":"struct AccessControlUpgradeable.RoleData","members":[{"astId":176,"contract":"@openzeppelin/contracts-upgradeable/token/ERC721/presets/ERC721PresetMinterPauserAutoIdUpgradeable.sol:ERC721PresetMinterPauserAutoIdUpgradeable","label":"members","offset":0,"slot":"0","type":"t_mapping(t_address,t_bool)"},{"astId":178,"contract":"@openzeppelin/contracts-upgradeable/token/ERC721/presets/ERC721PresetMinterPauserAutoIdUpgradeable.sol:ERC721PresetMinterPauserAutoIdUpgradeable","label":"adminRole","offset":0,"slot":"1","type":"t_bytes32"}],"numberOfBytes":"64"},"t_struct(Set)4653_storage":{"encoding":"inplace","label":"struct EnumerableSetUpgradeable.Set","members":[{"astId":4648,"contract":"@openzeppelin/contracts-upgradeable/token/ERC721/presets/ERC721PresetMinterPauserAutoIdUpgradeable.sol:ERC721PresetMinterPauserAutoIdUpgradeable","label":"_values","offset":0,"slot":"0","type":"t_array(t_bytes32)dyn_storage"},{"astId":4652,"contract":"@openzeppelin/contracts-upgradeable/token/ERC721/presets/ERC721PresetMinterPauserAutoIdUpgradeable.sol:ERC721PresetMinterPauserAutoIdUpgradeable","label":"_indexes","offset":0,"slot":"1","type":"t_mapping(t_bytes32,t_uint256)"}],"numberOfBytes":"64"},"t_uint256":{"encoding":"inplace","label":"uint256","numberOfBytes":"32"},"t_uint8":{"encoding":"inplace","label":"uint8","numberOfBytes":"1"}}}}}}