{"contracts/libs/configs/GenerativeProjectConfigs.sol":{"GenerativeProjectConfigs":{"abi":[{"inputs":[],"name":"CREATE_PROJECT_FEE","outputs":[{"internalType":"string","name":"","type":"string"}],"stateMutability":"view","type":"function"},{"inputs":[],"name":"FEE_TOKEN","outputs":[{"internalType":"string","name":"","type":"string"}],"stateMutability":"view","type":"function"},{"inputs":[],"name":"GENERATIVE_NFT_TEMPLATE","outputs":[{"internalType":"string","name":"","type":"string"}],"stateMutability":"view","type":"function"}],"evm":{"bytecode":{"linkReferences":{},"object":"61018561003a600b82828239805160001a60731461002d57634e487b7160e01b600052600060045260246000fd5b30600052607381538281f3fe730000000000000000000000000000000000000000301460806040526004361061004a5760003560e01c8062bd38941461004f57806373717b08146100a157806390f4806b146100c9575b600080fd5b61008b6040518060400160405280601781526020017f47454e455241544956455f4e46545f54454d504c41544500000000000000000081525081565b60405161009891906100fa565b60405180910390f35b61008b604051806040016040528060098152602001682322a2afaa27a5a2a760b91b81525081565b61008b604051806040016040528060128152602001714352454154455f50524f4a4543545f46454560701b81525081565b600060208083528351808285015260005b818110156101275785810183015185820160400152820161010b565b81811115610139576000604083870101525b50601f01601f191692909201604001939250505056fea2646970667358221220adb49fc3571c58ffb845d99ccf662b52aa39e5524cc7dd0cf9b56b57c4ed077164736f6c634300080c0033","opcodes":"PUSH2 0x185 PUSH2 0x3A PUSH1 0xB DUP3 DUP3 DUP3 CODECOPY DUP1 MLOAD PUSH1 0x0 BYTE PUSH1 0x73 EQ PUSH2 0x2D JUMPI PUSH4 0x4E487B71 PUSH1 0xE0 SHL PUSH1 0x0 MSTORE PUSH1 0x0 PUSH1 0x4 MSTORE PUSH1 0x24 PUSH1 0x0 REVERT JUMPDEST ADDRESS PUSH1 0x0 MSTORE PUSH1 0x73 DUP2 MSTORE8 DUP3 DUP2 RETURN INVALID PUSH20 0x0 ADDRESS EQ PUSH1 0x80 PUSH1 0x40 MSTORE PUSH1 0x4 CALLDATASIZE LT PUSH2 0x4A JUMPI PUSH1 0x0 CALLDATALOAD PUSH1 0xE0 SHR DUP1 PUSH3 0xBD3894 EQ PUSH2 0x4F JUMPI DUP1 PUSH4 0x73717B08 EQ PUSH2 0xA1 JUMPI DUP1 PUSH4 0x90F4806B EQ PUSH2 0xC9 JUMPI JUMPDEST PUSH1 0x0 DUP1 REVERT JUMPDEST PUSH2 0x8B PUSH1 0x40 MLOAD DUP1 PUSH1 0x40 ADD PUSH1 0x40 MSTORE DUP1 PUSH1 0x17 DUP2 MSTORE PUSH1 0x20 ADD PUSH32 0x47454E455241544956455F4E46545F54454D504C415445000000000000000000 DUP2 MSTORE POP DUP2 JUMP JUMPDEST PUSH1 0x40 MLOAD PUSH2 0x98 SWAP2 SWAP1 PUSH2 0xFA JUMP JUMPDEST PUSH1 0x40 MLOAD DUP1 SWAP2 SUB SWAP1 RETURN JUMPDEST PUSH2 0x8B PUSH1 0x40 MLOAD DUP1 PUSH1 0x40 ADD PUSH1 0x40 MSTORE DUP1 PUSH1 0x9 DUP2 MSTORE PUSH1 0x20 ADD PUSH9 0x2322A2AFAA27A5A2A7 PUSH1 0xB9 SHL DUP2 MSTORE POP DUP2 JUMP JUMPDEST PUSH2 0x8B PUSH1 0x40 MLOAD DUP1 PUSH1 0x40 ADD PUSH1 0x40 MSTORE DUP1 PUSH1 0x12 DUP2 MSTORE PUSH1 0x20 ADD PUSH18 0x4352454154455F50524F4A4543545F464545 PUSH1 0x70 SHL DUP2 MSTORE POP DUP2 JUMP JUMPDEST PUSH1 0x0 PUSH1 0x20 DUP1 DUP4 MSTORE DUP4 MLOAD DUP1 DUP3 DUP6 ADD MSTORE PUSH1 0x0 JUMPDEST DUP2 DUP2 LT ISZERO PUSH2 0x127 JUMPI DUP6 DUP2 ADD DUP4 ADD MLOAD DUP6 DUP3 ADD PUSH1 0x40 ADD MSTORE DUP3 ADD PUSH2 0x10B JUMP JUMPDEST DUP2 DUP2 GT ISZERO PUSH2 0x139 JUMPI PUSH1 0x0 PUSH1 0x40 DUP4 DUP8 ADD ADD MSTORE JUMPDEST POP PUSH1 0x1F ADD PUSH1 0x1F NOT AND SWAP3 SWAP1 SWAP3 ADD PUSH1 0x40 ADD SWAP4 SWAP3 POP POP POP JUMP INVALID LOG2 PUSH5 0x6970667358 0x22 SLT KECCAK256 0xAD 0xB4 SWAP16 0xC3 JUMPI SHR PC SELFDESTRUCT 0xB8 GASLIMIT 0xD9 SWAP13 0xCF PUSH7 0x2B52AA39E5524C 0xC7 0xDD 0xC 0xF9 0xB5 PUSH12 0x57C4ED077164736F6C634300 ADDMOD 0xC STOP CALLER "},"methodIdentifiers":{"CREATE_PROJECT_FEE()":"90f4806b","FEE_TOKEN()":"73717b08","GENERATIVE_NFT_TEMPLATE()":"00bd3894"}},"storageLayout":{"storage":[],"types":null}}}}