{"contracts/libs/configs/MarketplaceServiceConfigs.sol":{"MarketplaceServiceConfigs":{"abi":[{"inputs":[],"name":"DEFAULT_MARKETPLACE_BENEFIT_PERCENT","outputs":[{"internalType":"uint256","name":"","type":"uint256"}],"stateMutability":"view","type":"function"},{"inputs":[],"name":"MARKETPLACE_BENEFIT_PERCENT","outputs":[{"internalType":"string","name":"","type":"string"}],"stateMutability":"view","type":"function"}],"evm":{"bytecode":{"linkReferences":{},"object":"61012661003a600b82828239805160001a60731461002d57634e487b7160e01b600052600060045260246000fd5b30600052607381538281f3fe7300000000000000000000000000000000000000003014608060405260043610603d5760003560e01c80637b0aa36c1460425780638d468eb014605c575b600080fd5b604960fa81565b6040519081526020015b60405180910390f35b60976040518060400160405280601b81526020017f4d41524b4554504c4143455f42454e454649545f50455243454e54000000000081525081565b60405160539190600060208083528351808285015260005b8181101560c95785810183015185820160400152820160af565b8181111560da576000604083870101525b50601f01601f191692909201604001939250505056fea2646970667358221220154077bac91da2ea7eee75739fd7839e232ff2c51be7c2b0abd989869c214f7864736f6c634300080c0033","opcodes":"PUSH2 0x126 PUSH2 0x3A PUSH1 0xB DUP3 DUP3 DUP3 CODECOPY DUP1 MLOAD PUSH1 0x0 BYTE PUSH1 0x73 EQ PUSH2 0x2D JUMPI PUSH4 0x4E487B71 PUSH1 0xE0 SHL PUSH1 0x0 MSTORE PUSH1 0x0 PUSH1 0x4 MSTORE PUSH1 0x24 PUSH1 0x0 REVERT JUMPDEST ADDRESS PUSH1 0x0 MSTORE PUSH1 0x73 DUP2 MSTORE8 DUP3 DUP2 RETURN INVALID PUSH20 0x0 ADDRESS EQ PUSH1 0x80 PUSH1 0x40 MSTORE PUSH1 0x4 CALLDATASIZE LT PUSH1 0x3D JUMPI PUSH1 0x0 CALLDATALOAD PUSH1 0xE0 SHR DUP1 PUSH4 0x7B0AA36C EQ PUSH1 0x42 JUMPI DUP1 PUSH4 0x8D468EB0 EQ PUSH1 0x5C JUMPI JUMPDEST PUSH1 0x0 DUP1 REVERT JUMPDEST PUSH1 0x49 PUSH1 0xFA DUP2 JUMP JUMPDEST PUSH1 0x40 MLOAD SWAP1 DUP2 MSTORE PUSH1 0x20 ADD JUMPDEST PUSH1 0x40 MLOAD DUP1 SWAP2 SUB SWAP1 RETURN JUMPDEST PUSH1 0x97 PUSH1 0x40 MLOAD DUP1 PUSH1 0x40 ADD PUSH1 0x40 MSTORE DUP1 PUSH1 0x1B DUP2 MSTORE PUSH1 0x20 ADD PUSH32 0x4D41524B4554504C4143455F42454E454649545F50455243454E540000000000 DUP2 MSTORE POP DUP2 JUMP JUMPDEST PUSH1 0x40 MLOAD PUSH1 0x53 SWAP2 SWAP1 PUSH1 0x0 PUSH1 0x20 DUP1 DUP4 MSTORE DUP4 MLOAD DUP1 DUP3 DUP6 ADD MSTORE PUSH1 0x0 JUMPDEST DUP2 DUP2 LT ISZERO PUSH1 0xC9 JUMPI DUP6 DUP2 ADD DUP4 ADD MLOAD DUP6 DUP3 ADD PUSH1 0x40 ADD MSTORE DUP3 ADD PUSH1 0xAF JUMP JUMPDEST DUP2 DUP2 GT ISZERO PUSH1 0xDA JUMPI PUSH1 0x0 PUSH1 0x40 DUP4 DUP8 ADD ADD MSTORE JUMPDEST POP PUSH1 0x1F ADD PUSH1 0x1F NOT AND SWAP3 SWAP1 SWAP3 ADD PUSH1 0x40 ADD SWAP4 SWAP3 POP POP POP JUMP INVALID LOG2 PUSH5 0x6970667358 0x22 SLT KECCAK256 ISZERO BLOCKHASH PUSH24 0xBAC91DA2EA7EEE75739FD7839E232FF2C51BE7C2B0ABD989 DUP7 SWAP13 0x21 0x4F PUSH25 0x64736F6C634300080C00330000000000000000000000000000 "},"methodIdentifiers":{"DEFAULT_MARKETPLACE_BENEFIT_PERCENT()":"7b0aa36c","MARKETPLACE_BENEFIT_PERCENT()":"8d468eb0"}},"storageLayout":{"storage":[],"types":null}}}}