{"contracts/libs/helpers/Errors.sol":{"Errors":{"abi":[{"inputs":[],"name":"INV_ADD","outputs":[{"internalType":"string","name":"","type":"string"}],"stateMutability":"view","type":"function"},{"inputs":[],"name":"INV_BOILERPLATE_ADD","outputs":[{"internalType":"string","name":"","type":"string"}],"stateMutability":"view","type":"function"},{"inputs":[],"name":"INV_FEE_PROJECT","outputs":[{"internalType":"string","name":"","type":"string"}],"stateMutability":"view","type":"function"},{"inputs":[],"name":"INV_PARAMS","outputs":[{"internalType":"string","name":"","type":"string"}],"stateMutability":"view","type":"function"},{"inputs":[],"name":"INV_PROJECT","outputs":[{"internalType":"string","name":"","type":"string"}],"stateMutability":"view","type":"function"},{"inputs":[],"name":"MISSING_NAME","outputs":[{"internalType":"string","name":"","type":"string"}],"stateMutability":"view","type":"function"},{"inputs":[],"name":"ONLY_ADMIN_ALLOWED","outputs":[{"internalType":"string","name":"","type":"string"}],"stateMutability":"view","type":"function"},{"inputs":[],"name":"ONLY_CREATOR","outputs":[{"internalType":"string","name":"","type":"string"}],"stateMutability":"view","type":"function"},{"inputs":[],"name":"REACH_MAX","outputs":[{"internalType":"string","name":"","type":"string"}],"stateMutability":"view","type":"function"},{"inputs":[],"name":"SEED_INV","outputs":[{"internalType":"string","name":"","type":"string"}],"stateMutability":"view","type":"function"},{"inputs":[],"name":"SEED_INV_1","outputs":[{"internalType":"string","name":"","type":"string"}],"stateMutability":"view","type":"function"},{"inputs":[],"name":"SEED_INV_2","outputs":[{"internalType":"string","name":"","type":"string"}],"stateMutability":"view","type":"function"},{"inputs":[],"name":"SUCCESS","outputs":[{"internalType":"string","name":"","type":"string"}],"stateMutability":"view","type":"function"},{"inputs":[],"name":"TOKEN_HAS_SEED","outputs":[{"internalType":"string","name":"","type":"string"}],"stateMutability":"view","type":"function"},{"inputs":[],"name":"TOO_HIGH","outputs":[{"internalType":"string","name":"","type":"string"}],"stateMutability":"view","type":"function"},{"inputs":[],"name":"ZERO_ADDR","outputs":[{"internalType":"address","name":"","type":"address"}],"stateMutability":"view","type":"function"},{"inputs":[],"name":"ZERO_SEED","outputs":[{"internalType":"string","name":"","type":"string"}],"stateMutability":"view","type":"function"}],"evm":{"bytecode":{"linkReferences":{},"object":"6103f961003a600b82828239805160001a60731461002d57634e487b7160e01b600052600060045260246000fd5b30600052607381538281f3fe73000000000000000000000000000000000000000030146080604052600436106101155760003560e01c8063652b7f31116100ac5780639bf3cfe31161007b5780639bf3cfe3146102c6578063b746287b146102e8578063d0a6d1a61461030a578063dd48a5831461032a578063feff83c31461034c57600080fd5b8063652b7f311461023e57806372670508146102605780637672b6f21461028257806386f8148f146102a457600080fd5b80635367c586116100e85780635367c586146101b8578063552e387c146101da578063585c081c146101fc578063637310801461021e57600080fd5b806309d9c8401461011a578063143c1c3614610152578063233122971461017457806338abf0c914610196575b600080fd5b61013c6040518060400160405280600381526020016232303760e81b81525081565b604051610149919061036e565b60405180910390f35b61013c6040518060400160405280600381526020016203231360ec1b81525081565b61013c6040518060400160405280600381526020016232303360e81b81525081565b61013c6040518060400160405280600381526020016219181960e91b81525081565b61013c6040518060400160405280600381526020016206460760eb1b81525081565b61013c6040518060400160405280600381526020016231303160e81b81525081565b61013c6040518060400160405280600381526020016232303960e81b81525081565b610226600081565b6040516001600160a01b039091168152602001610149565b61013c6040518060400160405280600381526020016232303160e81b81525081565b61013c6040518060400160405280600381526020016203130360ec1b81525081565b61013c6040518060400160405280600381526020016232303560e81b81525081565b61013c6040518060400160405280600381526020016203230360ec1b81525081565b61013c6040518060400160405280600381526020016232313160e81b81525081565b61013c6040518060400160405280600381526020016218981960e91b81525081565b61013c604051806040016040528060018152602001600360fc1b81525081565b61013c6040518060400160405280600381526020016219181b60e91b81525081565b61013c604051806040016040528060038152602001620c8c0d60ea1b81525081565b600060208083528351808285015260005b8181101561039b5785810183015185820160400152820161037f565b818111156103ad576000604083870101525b50601f01601f191692909201604001939250505056fea2646970667358221220d5ec3404de69f4ac3fd6be352ea3a335a1d86125016b1e087a9a0d2b7d5ee6cb64736f6c634300080c0033","opcodes":"PUSH2 0x3F9 PUSH2 0x3A PUSH1 0xB DUP3 DUP3 DUP3 CODECOPY DUP1 MLOAD PUSH1 0x0 BYTE PUSH1 0x73 EQ PUSH2 0x2D JUMPI PUSH4 0x4E487B71 PUSH1 0xE0 SHL PUSH1 0x0 MSTORE PUSH1 0x0 PUSH1 0x4 MSTORE PUSH1 0x24 PUSH1 0x0 REVERT JUMPDEST ADDRESS PUSH1 0x0 MSTORE PUSH1 0x73 DUP2 MSTORE8 DUP3 DUP2 RETURN INVALID PUSH20 0x0 ADDRESS EQ PUSH1 0x80 PUSH1 0x40 MSTORE PUSH1 0x4 CALLDATASIZE LT PUSH2 0x115 JUMPI PUSH1 0x0 CALLDATALOAD PUSH1 0xE0 SHR DUP1 PUSH4 0x652B7F31 GT PUSH2 0xAC JUMPI DUP1 PUSH4 0x9BF3CFE3 GT PUSH2 0x7B JUMPI DUP1 PUSH4 0x9BF3CFE3 EQ PUSH2 0x2C6 JUMPI DUP1 PUSH4 0xB746287B EQ PUSH2 0x2E8 JUMPI DUP1 PUSH4 0xD0A6D1A6 EQ PUSH2 0x30A JUMPI DUP1 PUSH4 0xDD48A583 EQ PUSH2 0x32A JUMPI DUP1 PUSH4 0xFEFF83C3 EQ PUSH2 0x34C JUMPI PUSH1 0x0 DUP1 REVERT JUMPDEST DUP1 PUSH4 0x652B7F31 EQ PUSH2 0x23E JUMPI DUP1 PUSH4 0x72670508 EQ PUSH2 0x260 JUMPI DUP1 PUSH4 0x7672B6F2 EQ PUSH2 0x282 JUMPI DUP1 PUSH4 0x86F8148F EQ PUSH2 0x2A4 JUMPI PUSH1 0x0 DUP1 REVERT JUMPDEST DUP1 PUSH4 0x5367C586 GT PUSH2 0xE8 JUMPI DUP1 PUSH4 0x5367C586 EQ PUSH2 0x1B8 JUMPI DUP1 PUSH4 0x552E387C EQ PUSH2 0x1DA JUMPI DUP1 PUSH4 0x585C081C EQ PUSH2 0x1FC JUMPI DUP1 PUSH4 0x63731080 EQ PUSH2 0x21E JUMPI PUSH1 0x0 DUP1 REVERT JUMPDEST DUP1 PUSH4 0x9D9C840 EQ PUSH2 0x11A JUMPI DUP1 PUSH4 0x143C1C36 EQ PUSH2 0x152 JUMPI DUP1 PUSH4 0x23312297 EQ PUSH2 0x174 JUMPI DUP1 PUSH4 0x38ABF0C9 EQ PUSH2 0x196 JUMPI JUMPDEST PUSH1 0x0 DUP1 REVERT JUMPDEST PUSH2 0x13C PUSH1 0x40 MLOAD DUP1 PUSH1 0x40 ADD PUSH1 0x40 MSTORE DUP1 PUSH1 0x3 DUP2 MSTORE PUSH1 0x20 ADD PUSH3 0x323037 PUSH1 0xE8 SHL DUP2 MSTORE POP DUP2 JUMP JUMPDEST PUSH1 0x40 MLOAD PUSH2 0x149 SWAP2 SWAP1 PUSH2 0x36E JUMP JUMPDEST PUSH1 0x40 MLOAD DUP1 SWAP2 SUB SWAP1 RETURN JUMPDEST PUSH2 0x13C PUSH1 0x40 MLOAD DUP1 PUSH1 0x40 ADD PUSH1 0x40 MSTORE DUP1 PUSH1 0x3 DUP2 MSTORE PUSH1 0x20 ADD PUSH3 0x32313 PUSH1 0xEC SHL DUP2 MSTORE POP DUP2 JUMP JUMPDEST PUSH2 0x13C PUSH1 0x40 MLOAD DUP1 PUSH1 0x40 ADD PUSH1 0x40 MSTORE DUP1 PUSH1 0x3 DUP2 MSTORE PUSH1 0x20 ADD PUSH3 0x323033 PUSH1 0xE8 SHL DUP2 MSTORE POP DUP2 JUMP JUMPDEST PUSH2 0x13C PUSH1 0x40 MLOAD DUP1 PUSH1 0x40 ADD PUSH1 0x40 MSTORE DUP1 PUSH1 0x3 DUP2 MSTORE PUSH1 0x20 ADD PUSH3 0x191819 PUSH1 0xE9 SHL DUP2 MSTORE POP DUP2 JUMP JUMPDEST PUSH2 0x13C PUSH1 0x40 MLOAD DUP1 PUSH1 0x40 ADD PUSH1 0x40 MSTORE DUP1 PUSH1 0x3 DUP2 MSTORE PUSH1 0x20 ADD PUSH3 0x64607 PUSH1 0xEB SHL DUP2 MSTORE POP DUP2 JUMP JUMPDEST PUSH2 0x13C PUSH1 0x40 MLOAD DUP1 PUSH1 0x40 ADD PUSH1 0x40 MSTORE DUP1 PUSH1 0x3 DUP2 MSTORE PUSH1 0x20 ADD PUSH3 0x313031 PUSH1 0xE8 SHL DUP2 MSTORE POP DUP2 JUMP JUMPDEST PUSH2 0x13C PUSH1 0x40 MLOAD DUP1 PUSH1 0x40 ADD PUSH1 0x40 MSTORE DUP1 PUSH1 0x3 DUP2 MSTORE PUSH1 0x20 ADD PUSH3 0x323039 PUSH1 0xE8 SHL DUP2 MSTORE POP DUP2 JUMP JUMPDEST PUSH2 0x226 PUSH1 0x0 DUP2 JUMP JUMPDEST PUSH1 0x40 MLOAD PUSH1 0x1 PUSH1 0x1 PUSH1 0xA0 SHL SUB SWAP1 SWAP2 AND DUP2 MSTORE PUSH1 0x20 ADD PUSH2 0x149 JUMP JUMPDEST PUSH2 0x13C PUSH1 0x40 MLOAD DUP1 PUSH1 0x40 ADD PUSH1 0x40 MSTORE DUP1 PUSH1 0x3 DUP2 MSTORE PUSH1 0x20 ADD PUSH3 0x323031 PUSH1 0xE8 SHL DUP2 MSTORE POP DUP2 JUMP JUMPDEST PUSH2 0x13C PUSH1 0x40 MLOAD DUP1 PUSH1 0x40 ADD PUSH1 0x40 MSTORE DUP1 PUSH1 0x3 DUP2 MSTORE PUSH1 0x20 ADD PUSH3 0x31303 PUSH1 0xEC SHL DUP2 MSTORE POP DUP2 JUMP JUMPDEST PUSH2 0x13C PUSH1 0x40 MLOAD DUP1 PUSH1 0x40 ADD PUSH1 0x40 MSTORE DUP1 PUSH1 0x3 DUP2 MSTORE PUSH1 0x20 ADD PUSH3 0x323035 PUSH1 0xE8 SHL DUP2 MSTORE POP DUP2 JUMP JUMPDEST PUSH2 0x13C PUSH1 0x40 MLOAD DUP1 PUSH1 0x40 ADD PUSH1 0x40 MSTORE DUP1 PUSH1 0x3 DUP2 MSTORE PUSH1 0x20 ADD PUSH3 0x32303 PUSH1 0xEC SHL DUP2 MSTORE POP DUP2 JUMP JUMPDEST PUSH2 0x13C PUSH1 0x40 MLOAD DUP1 PUSH1 0x40 ADD PUSH1 0x40 MSTORE DUP1 PUSH1 0x3 DUP2 MSTORE PUSH1 0x20 ADD PUSH3 0x323131 PUSH1 0xE8 SHL DUP2 MSTORE POP DUP2 JUMP JUMPDEST PUSH2 0x13C PUSH1 0x40 MLOAD DUP1 PUSH1 0x40 ADD PUSH1 0x40 MSTORE DUP1 PUSH1 0x3 DUP2 MSTORE PUSH1 0x20 ADD PUSH3 0x189819 PUSH1 0xE9 SHL DUP2 MSTORE POP DUP2 JUMP JUMPDEST PUSH2 0x13C PUSH1 0x40 MLOAD DUP1 PUSH1 0x40 ADD PUSH1 0x40 MSTORE DUP1 PUSH1 0x1 DUP2 MSTORE PUSH1 0x20 ADD PUSH1 0x3 PUSH1 0xFC SHL DUP2 MSTORE POP DUP2 JUMP JUMPDEST PUSH2 0x13C PUSH1 0x40 MLOAD DUP1 PUSH1 0x40 ADD PUSH1 0x40 MSTORE DUP1 PUSH1 0x3 DUP2 MSTORE PUSH1 0x20 ADD PUSH3 0x19181B PUSH1 0xE9 SHL DUP2 MSTORE POP DUP2 JUMP JUMPDEST PUSH2 0x13C PUSH1 0x40 MLOAD DUP1 PUSH1 0x40 ADD PUSH1 0x40 MSTORE DUP1 PUSH1 0x3 DUP2 MSTORE PUSH1 0x20 ADD PUSH3 0xC8C0D PUSH1 0xEA SHL DUP2 MSTORE POP DUP2 JUMP JUMPDEST PUSH1 0x0 PUSH1 0x20 DUP1 DUP4 MSTORE DUP4 MLOAD DUP1 DUP3 DUP6 ADD MSTORE PUSH1 0x0 JUMPDEST DUP2 DUP2 LT ISZERO PUSH2 0x39B JUMPI DUP6 DUP2 ADD DUP4 ADD MLOAD DUP6 DUP3 ADD PUSH1 0x40 ADD MSTORE DUP3 ADD PUSH2 0x37F JUMP JUMPDEST DUP2 DUP2 GT ISZERO PUSH2 0x3AD JUMPI PUSH1 0x0 PUSH1 0x40 DUP4 DUP8 ADD ADD MSTORE JUMPDEST POP PUSH1 0x1F ADD PUSH1 0x1F NOT AND SWAP3 SWAP1 SWAP3 ADD PUSH1 0x40 ADD SWAP4 SWAP3 POP POP POP JUMP INVALID LOG2 PUSH5 0x6970667358 0x22 SLT KECCAK256 0xD5 0xEC CALLVALUE DIV 0xDE PUSH10 0xF4AC3FD6BE352EA3A335 LOG1 0xD8 PUSH2 0x2501 PUSH12 0x1E087A9A0D2B7D5EE6CB6473 PUSH16 0x6C634300080C00330000000000000000 "},"methodIdentifiers":{"INV_ADD()":"72670508","INV_BOILERPLATE_ADD()":"5367c586","INV_FEE_PROJECT()":"652b7f31","INV_PARAMS()":"feff83c3","INV_PROJECT()":"38abf0c9","MISSING_NAME()":"86f8148f","ONLY_ADMIN_ALLOWED()":"552e387c","ONLY_CREATOR()":"b746287b","REACH_MAX()":"23312297","SEED_INV()":"7672b6f2","SEED_INV_1()":"dd48a583","SEED_INV_2()":"09d9c840","SUCCESS()":"d0a6d1a6","TOKEN_HAS_SEED()":"143c1c36","TOO_HIGH()":"585c081c","ZERO_ADDR()":"63731080","ZERO_SEED()":"9bf3cfe3"}},"storageLayout":{"storage":[],"types":null}}}}