{"contracts/nfts/GenerativeNFT.sol":{"GenerativeNFT":{"abi":[{"inputs":[{"internalType":"string","name":"name","type":"string"},{"internalType":"string","name":"symbol","type":"string"}],"stateMutability":"nonpayable","type":"constructor"},{"inputs":[{"internalType":"address","name":"operator","type":"address"}],"name":"OperatorNotAllowed","type":"error"},{"anonymous":false,"inputs":[{"indexed":true,"internalType":"address","name":"owner","type":"address"},{"indexed":true,"internalType":"address","name":"approved","type":"address"},{"indexed":true,"internalType":"uint256","name":"tokenId","type":"uint256"}],"name":"Approval","type":"event"},{"anonymous":false,"inputs":[{"indexed":true,"internalType":"address","name":"owner","type":"address"},{"indexed":true,"internalType":"address","name":"operator","type":"address"},{"indexed":false,"internalType":"bool","name":"approved","type":"bool"}],"name":"ApprovalForAll","type":"event"},{"anonymous":false,"inputs":[{"indexed":true,"internalType":"address","name":"previousOwner","type":"address"},{"indexed":true,"internalType":"address","name":"newOwner","type":"address"}],"name":"OwnershipTransferred","type":"event"},{"anonymous":false,"inputs":[{"indexed":false,"internalType":"address","name":"account","type":"address"}],"name":"Paused","type":"event"},{"anonymous":false,"inputs":[{"indexed":true,"internalType":"address","name":"from","type":"address"},{"indexed":true,"internalType":"address","name":"to","type":"address"},{"indexed":true,"internalType":"uint256","name":"tokenId","type":"uint256"}],"name":"Transfer","type":"event"},{"anonymous":false,"inputs":[{"indexed":false,"internalType":"address","name":"account","type":"address"}],"name":"Unpaused","type":"event"},{"inputs":[],"name":"OPERATOR_FILTER_REGISTRY","outputs":[{"internalType":"contract IOperatorFilterRegistry","name":"","type":"address"}],"stateMutability":"view","type":"function"},{"inputs":[],"name":"_admin","outputs":[{"internalType":"address","name":"","type":"address"}],"stateMutability":"view","type":"function"},{"inputs":[],"name":"_nameCol","outputs":[{"internalType":"string","name":"","type":"string"}],"stateMutability":"view","type":"function"},{"inputs":[],"name":"_paramsAddress","outputs":[{"internalType":"address","name":"","type":"address"}],"stateMutability":"view","type":"function"},{"inputs":[],"name":"_project","outputs":[{"internalType":"address","name":"_projectAddr","type":"address"},{"internalType":"uint256","name":"_projectId","type":"uint256"},{"internalType":"uint24","name":"_maxSupply","type":"uint24"},{"internalType":"uint24","name":"_limit","type":"uint24"},{"internalType":"uint24","name":"_index","type":"uint24"},{"internalType":"uint24","name":"_indexReserve","type":"uint24"},{"internalType":"string","name":"_creator","type":"string"},{"internalType":"address","name":"_creatorAddr","type":"address"},{"internalType":"uint256","name":"_mintPrice","type":"uint256"},{"internalType":"address","name":"_mintPriceAddr","type":"address"},{"internalType":"string","name":"_name","type":"string"}],"stateMutability":"view","type":"function"},{"inputs":[],"name":"_projectDataContextAddr","outputs":[{"internalType":"address","name":"","type":"address"}],"stateMutability":"view","type":"function"},{"inputs":[],"name":"_randomizer","outputs":[{"internalType":"address","name":"","type":"address"}],"stateMutability":"view","type":"function"},{"inputs":[],"name":"_symbolCol","outputs":[{"internalType":"string","name":"","type":"string"}],"stateMutability":"view","type":"function"},{"inputs":[{"internalType":"address","name":"to","type":"address"},{"internalType":"uint256","name":"tokenId","type":"uint256"}],"name":"approve","outputs":[],"stateMutability":"nonpayable","type":"function"},{"inputs":[{"internalType":"address","name":"owner","type":"address"}],"name":"balanceOf","outputs":[{"internalType":"uint256","name":"","type":"uint256"}],"stateMutability":"view","type":"function"},{"inputs":[{"internalType":"address","name":"newAdm","type":"address"}],"name":"changeAdmin","outputs":[],"stateMutability":"nonpayable","type":"function"},{"inputs":[{"internalType":"address","name":"newAddr","type":"address"}],"name":"changeDataContextAddr","outputs":[],"stateMutability":"nonpayable","type":"function"},{"inputs":[{"internalType":"address","name":"newAddr","type":"address"}],"name":"changeParamAddr","outputs":[],"stateMutability":"nonpayable","type":"function"},{"inputs":[{"internalType":"address","name":"newAddr","type":"address"}],"name":"changeRandomizerAddr","outputs":[],"stateMutability":"nonpayable","type":"function"},{"inputs":[{"internalType":"uint256","name":"tokenId","type":"uint256"}],"name":"getApproved","outputs":[{"internalType":"address","name":"","type":"address"}],"stateMutability":"view","type":"function"},{"inputs":[{"components":[{"internalType":"address","name":"_projectAddr","type":"address"},{"internalType":"uint256","name":"_projectId","type":"uint256"},{"internalType":"uint24","name":"_maxSupply","type":"uint24"},{"internalType":"uint24","name":"_limit","type":"uint24"},{"internalType":"uint24","name":"_index","type":"uint24"},{"internalType":"uint24","name":"_indexReserve","type":"uint24"},{"internalType":"string","name":"_creator","type":"string"},{"internalType":"address","name":"_creatorAddr","type":"address"},{"internalType":"uint256","name":"_mintPrice","type":"uint256"},{"internalType":"address","name":"_mintPriceAddr","type":"address"},{"internalType":"string","name":"_name","type":"string"}],"internalType":"struct NFTProject.ProjectMinting","name":"project","type":"tuple"},{"internalType":"address","name":"admin","type":"address"},{"internalType":"address","name":"paramsAddr","type":"address"},{"internalType":"address","name":"randomizer","type":"address"},{"internalType":"address","name":"projectDataContextAddr","type":"address"},{"internalType":"address[]","name":"reserves","type":"address[]"}],"name":"init","outputs":[],"stateMutability":"nonpayable","type":"function"},{"inputs":[{"internalType":"address","name":"owner","type":"address"},{"internalType":"address","name":"operator","type":"address"}],"name":"isApprovedForAll","outputs":[{"internalType":"bool","name":"","type":"bool"}],"stateMutability":"view","type":"function"},{"inputs":[],"name":"mint","outputs":[{"internalType":"uint256","name":"tokenId","type":"uint256"}],"stateMutability":"payable","type":"function"},{"inputs":[],"name":"name","outputs":[{"internalType":"string","name":"","type":"string"}],"stateMutability":"view","type":"function"},{"inputs":[],"name":"owner","outputs":[{"internalType":"address","name":"","type":"address"}],"stateMutability":"view","type":"function"},{"inputs":[{"internalType":"uint256","name":"tokenId","type":"uint256"}],"name":"ownerOf","outputs":[{"internalType":"address","name":"","type":"address"}],"stateMutability":"view","type":"function"},{"inputs":[],"name":"pause","outputs":[],"stateMutability":"nonpayable","type":"function"},{"inputs":[],"name":"paused","outputs":[{"internalType":"bool","name":"","type":"bool"}],"stateMutability":"view","type":"function"},{"inputs":[],"name":"renounceOwnership","outputs":[],"stateMutability":"nonpayable","type":"function"},{"inputs":[],"name":"reserveMint","outputs":[{"internalType":"uint256","name":"tokenId","type":"uint256"}],"stateMutability":"payable","type":"function"},{"inputs":[{"internalType":"uint256","name":"","type":"uint256"}],"name":"royalties","outputs":[{"internalType":"address","name":"recipient","type":"address"},{"internalType":"uint24","name":"amount","type":"uint24"},{"internalType":"bool","name":"isValue","type":"bool"}],"stateMutability":"view","type":"function"},{"inputs":[{"internalType":"uint256","name":"_tokenId","type":"uint256"},{"internalType":"uint256","name":"_salePrice","type":"uint256"}],"name":"royaltyInfo","outputs":[{"internalType":"address","name":"receiver","type":"address"},{"internalType":"uint256","name":"royaltyAmount","type":"uint256"}],"stateMutability":"view","type":"function"},{"inputs":[{"internalType":"address","name":"from","type":"address"},{"internalType":"address","name":"to","type":"address"},{"internalType":"uint256","name":"tokenId","type":"uint256"}],"name":"safeTransferFrom","outputs":[],"stateMutability":"nonpayable","type":"function"},{"inputs":[{"internalType":"address","name":"from","type":"address"},{"internalType":"address","name":"to","type":"address"},{"internalType":"uint256","name":"tokenId","type":"uint256"},{"internalType":"bytes","name":"data","type":"bytes"}],"name":"safeTransferFrom","outputs":[],"stateMutability":"nonpayable","type":"function"},{"inputs":[{"internalType":"address","name":"operator","type":"address"},{"internalType":"bool","name":"approved","type":"bool"}],"name":"setApprovalForAll","outputs":[],"stateMutability":"nonpayable","type":"function"},{"inputs":[{"internalType":"uint256","name":"_tokenId","type":"uint256"},{"internalType":"address","name":"_recipient","type":"address"},{"internalType":"uint256","name":"_value","type":"uint256"}],"name":"setTokenRoyalty","outputs":[],"stateMutability":"nonpayable","type":"function"},{"inputs":[{"internalType":"bytes4","name":"interfaceId","type":"bytes4"}],"name":"supportsInterface","outputs":[{"internalType":"bool","name":"","type":"bool"}],"stateMutability":"view","type":"function"},{"inputs":[],"name":"symbol","outputs":[{"internalType":"string","name":"","type":"string"}],"stateMutability":"view","type":"function"},{"inputs":[{"internalType":"uint256","name":"tokenId","type":"uint256"}],"name":"tokenGenerativeURI","outputs":[{"internalType":"string","name":"","type":"string"}],"stateMutability":"view","type":"function"},{"inputs":[{"internalType":"uint256","name":"_tokenId","type":"uint256"}],"name":"tokenIdToHash","outputs":[{"internalType":"bytes32","name":"","type":"bytes32"}],"stateMutability":"view","type":"function"},{"inputs":[{"internalType":"uint256","name":"tokenId","type":"uint256"}],"name":"tokenURI","outputs":[{"internalType":"string","name":"","type":"string"}],"stateMutability":"view","type":"function"},{"inputs":[{"internalType":"address","name":"from","type":"address"},{"internalType":"address","name":"to","type":"address"},{"internalType":"uint256","name":"tokenId","type":"uint256"}],"name":"transferFrom","outputs":[],"stateMutability":"nonpayable","type":"function"},{"inputs":[{"internalType":"address","name":"newOwner","type":"address"}],"name":"transferOwnership","outputs":[],"stateMutability":"nonpayable","type":"function"},{"inputs":[],"name":"unpause","outputs":[],"stateMutability":"nonpayable","type":"function"}],"evm":{"bytecode":{"linkReferences":{},"object":"60806040523480156200001157600080fd5b5060405162003d6338038062003d638339810160408190526200003491620003b0565b733cc6cdda760b79bafa08df41ecfa224f810dceb66001838381818160009080519060200190620000679291906200023d565b5080516200007d9060019060208401906200023d565b50506006805460ff191690555060016007556200009a33620001eb565b50506daaeb6d7670e522a718067333cd4e3b15620001e15780156200012f57604051633e9f1edf60e11b81523060048201526001600160a01b03831660248201526daaeb6d7670e522a718067333cd4e90637d3e3dbe906044015b600060405180830381600087803b1580156200011057600080fd5b505af115801562000125573d6000803e3d6000fd5b50505050620001e1565b6001600160a01b03821615620001805760405163a0af290360e01b81523060048201526001600160a01b03831660248201526daaeb6d7670e522a718067333cd4e9063a0af290390604401620000f5565b604051632210724360e11b81523060048201526daaeb6d7670e522a718067333cd4e90634420e48690602401600060405180830381600087803b158015620001c757600080fd5b505af1158015620001dc573d6000803e3d6000fd5b505050505b5050505062000457565b600880546001600160a01b038381166001600160a01b0319831681179093556040519116919082907f8be0079c531659141344cd1fd0a4f28419497f9722a3daafe3b4186f6b6457e090600090a35050565b8280546200024b906200041a565b90600052602060002090601f0160209004810192826200026f5760008555620002ba565b82601f106200028a57805160ff1916838001178555620002ba565b82800160010185558215620002ba579182015b82811115620002ba5782518255916020019190600101906200029d565b50620002c8929150620002cc565b5090565b5b80821115620002c85760008155600101620002cd565b634e487b7160e01b600052604160045260246000fd5b600082601f8301126200030b57600080fd5b81516001600160401b0380821115620003285762000328620002e3565b604051601f8301601f19908116603f01168101908282118183101715620003535762000353620002e3565b816040528381526020925086838588010111156200037057600080fd5b600091505b8382101562000394578582018301518183018401529082019062000375565b83821115620003a65760008385830101525b9695505050505050565b60008060408385031215620003c457600080fd5b82516001600160401b0380821115620003dc57600080fd5b620003ea86838701620002f9565b935060208501519150808211156200040157600080fd5b506200041085828601620002f9565b9150509250929050565b600181811c908216806200042f57607f821691505b602082108114156200045157634e487b7160e01b600052602260045260246000fd5b50919050565b6138fc80620004676000396000f3fe6080604052600436106102305760003560e01c80635c975abb1161012e57806395d89b41116100ab578063c87b56dd1161006f578063c87b56dd146106d5578063e985e9c5146106f5578063f2fde38b1461073e578063febfd6c31461075e578063ffc27c0e1461077e57600080fd5b806395d89b41146106405780639713c80714610655578063a22cb46514610675578063adfc7dae14610695578063b88d4fde146106b557600080fd5b8063775bff9f116100f2578063775bff9f146105475780637f77f574146105735780638456cb59146105ed5780638da5cb5b146106025780638f2839701461062057600080fd5b80635c975abb146104a4578063621a1f74146104bc5780636352211e146104dc57806370a0823114610512578063715018a61461053257600080fd5b806321c8d676116101bc57806341f434341161018057806341f434341461040d57806342842e0e1461042f578063452fa3d31461044f578063472f1e0214610464578063575b57ea1461048457600080fd5b806321c8d6761461037c57806323b872dd146103845780632a55205a146103a457806336a0a6cb146103e35780633f4ba83a146103f857600080fd5b8063095ea7b311610203578063095ea7b3146102e457806310da88c5146103065780631249c58b146103265780631ca9741b1461033c5780631faaa3b61461035c57600080fd5b806301bc45c91461023557806301ffc9a71461027257806306fdde03146102a2578063081812fc146102c4575b600080fd5b34801561024157600080fd5b50600a54610255906001600160a01b031681565b6040516001600160a01b0390911681526020015b60405180910390f35b34801561027e57600080fd5b5061029261028d366004612f41565b61079e565b6040519015158152602001610269565b3480156102ae57600080fd5b506102b76107f0565b6040516102699190612fbd565b3480156102d057600080fd5b506102556102df366004612fd0565b610882565b3480156102f057600080fd5b506103046102ff36600461300e565b6108a9565b005b34801561031257600080fd5b506102b7610321366004612fd0565b6109c4565b61032e610ac2565b604051908152602001610269565b34801561034857600080fd5b5061030461035736600461303a565b610cc7565b34801561036857600080fd5b506103046103773660046131ea565b610d58565b61032e611098565b34801561039057600080fd5b5061030461039f366004613373565b61136f565b3480156103b057600080fd5b506103c46103bf3660046133b4565b61139a565b604080516001600160a01b039093168352602083019190915201610269565b3480156103ef57600080fd5b506102b76113b2565b34801561040457600080fd5b50610304611440565b34801561041957600080fd5b506102556daaeb6d7670e522a718067333cd4e81565b34801561043b57600080fd5b5061030461044a366004613373565b611491565b34801561045b57600080fd5b506102b76114b6565b34801561047057600080fd5b5061030461047f36600461303a565b6114c3565b34801561049057600080fd5b50600d54610255906001600160a01b031681565b3480156104b057600080fd5b5060065460ff16610292565b3480156104c857600080fd5b5061032e6104d7366004612fd0565b611555565b3480156104e857600080fd5b506102556104f7366004612fd0565b6000908152600960205260409020546001600160a01b031690565b34801561051e57600080fd5b5061032e61052d36600461303a565b6115db565b34801561053e57600080fd5b50610304611661565b34801561055357600080fd5b5061055c611673565b6040516102699b9a999897969594939291906133d6565b34801561057f57600080fd5b506105c261058e366004612fd0565b6010602052600090815260409020546001600160a01b03811690600160a01b810462ffffff1690600160b81b900460ff1683565b604080516001600160a01b03909416845262ffffff9092166020840152151590820152606001610269565b3480156105f957600080fd5b506103046117f8565b34801561060e57600080fd5b50600a546001600160a01b0316610255565b34801561062c57600080fd5b5061030461063b36600461303a565b611847565b34801561064c57600080fd5b506102b76118d9565b34801561066157600080fd5b50610304610670366004613466565b6118e8565b34801561068157600080fd5b5061030461069036600461349b565b6119b6565b3480156106a157600080fd5b50600b54610255906001600160a01b031681565b3480156106c157600080fd5b506103046106d03660046134d4565b6119c5565b3480156106e157600080fd5b506102b76106f0366004612fd0565b6119f2565b34801561070157600080fd5b50610292610710366004613554565b6001600160a01b03918216600090815260056020908152604080832093909416825291909152205460ff1690565b34801561074a57600080fd5b5061030461075936600461303a565b611aa7565b34801561076a57600080fd5b5061030461077936600461303a565b611b1d565b34801561078a57600080fd5b50600c54610255906001600160a01b031681565b60006001600160e01b031982166380ac58cd60e01b14806107cf57506001600160e01b03198216635b5e139f60e01b145b806107ea57506301ffc9a760e01b6001600160e01b03198316145b92915050565b6060600e80546107ff90613582565b80601f016020809104026020016040519081016040528092919081815260200182805461082b90613582565b80156108785780601f1061084d57610100808354040283529160200191610878565b820191906000526020600020905b81548152906001019060200180831161085b57829003601f168201915b5050505050905090565b600061088d82611baf565b506000908152600460205260409020546001600160a01b031690565b60006108b482611c0e565b9050806001600160a01b0316836001600160a01b031614156109275760405162461bcd60e51b815260206004820152602160248201527f4552433732313a20617070726f76616c20746f2063757272656e74206f776e656044820152603960f91b60648201526084015b60405180910390fd5b336001600160a01b038216148061094357506109438133610710565b6109b55760405162461bcd60e51b815260206004820152603d60248201527f4552433732313a20617070726f76652063616c6c6572206973206e6f7420746f60448201527f6b656e206f776e6572206f7220617070726f76656420666f7220616c6c000000606482015260840161091e565b6109bf8383611c6e565b505050565b600d5460405163188687dd60e21b8152600481018390526060916001600160a01b031690600090309063621a1f7490602401602060405180830381865afa158015610a13573d6000803e3d6000fd5b505050506040513d601f19601f82011682018060405250810190610a3791906135bd565b601254604051639413930160e01b8152600481019190915260248101869052604481018290529091506001600160a01b038316906394139301906064015b600060405180830381865afa158015610a92573d6000803e3d6000fd5b505050506040513d6000823e601f3d908101601f19168201604052610aba91908101906135d6565b949350505050565b6000610acc611cdc565b60138054600160301b900462ffffff16906006610ae883613663565b82546101009290920a62ffffff818102199093169183160217909155601354630100000081048216600160301b90910490911611159050610b2857600080fd5b60135462ffffff80821691610b4e91600160481b8204811691600160301b900416613686565b62ffffff161415610bbf57601154601254604051631122f8a960e11b815260048101919091526001600160a01b03909116908190632245f15290602401600060405180830381600087803b158015610ba557600080fd5b505af1158015610bb9573d6000803e3d6000fd5b50505050505b601354601254600160301b90910462ffffff1690610be190620f4240906136ad565b610beb91906136cc565b9050610bf73382611d36565b600c54604051631da00d8560e01b8152600481018390526001600160a01b03909116906000908290631da00d85906024016020604051808303816000875af1158015610c47573d6000803e3d6000fd5b505050506040513d601f19601f82011682018060405250810190610c6b91906135bd565b9050610c778382611d50565b610c7f611e19565b60408051338152602081018590527f0f6798a560793a54c3bcfe86a93cde1e73087d944c0ea20544137d4121396885910160405180910390a15050610cc46001600755565b90565b600a546001600160a01b031633148015610ce957506001600160a01b03811615155b6040518060400160405280600381526020016231303160e81b81525090610d235760405162461bcd60e51b815260040161091e9190612fbd565b50600c546001600160a01b03828116911614610d5557600c80546001600160a01b0319166001600160a01b0383161790555b50565b600a5460408051808201909152600381526219181960e91b6020820152906001600160a01b031615610d9d5760405162461bcd60e51b815260040161091e9190612fbd565b5060408051808201909152600381526203130360ec1b60208201526001600160a01b038616610ddf5760405162461bcd60e51b815260040161091e9190612fbd565b508551601180546001600160a01b039092166001600160a01b031990921691909117815560208088015160125560408801516013805460608b015160808c015160a08d015162ffffff908116600160481b026bffffff00000000000000000019928216600160301b02929092166bffffffffffff0000000000001993821663010000000265ffffffffffff19909516919096161792909217169290921791909117905560c08801518051899392610e9b92601492910190612e92565b5060e08201516004820180546001600160a01b039283166001600160a01b03199182161790915561010084015160058401556101208401516006840180549190931691161790556101408201518051610efe916007840191602090910190612e92565b5050600b80546001600160a01b038088166001600160a01b031992831617909255600a8054898416908316179055600c8054878416908316179055600d805492861692909116919091179055506101408601518051610f6591600e91602090910190612e92565b50610ffd60016003600e8054610f7a90613582565b80601f0160208091040260200160405190810160405280929190818152602001828054610fa690613582565b8015610ff35780601f10610fc857610100808354040283529160200191610ff3565b820191906000526020600020905b815481529060010190602001808311610fd657829003601f168201915b505050505061228a565b805161101191600f91602090910190612e92565b5060005b815181101561107a57600060196000848481518110611036576110366136e4565b6020908102919091018101516001600160a01b03168252810191909152604001600020805460ff191691151591909117905580611072816136fa565b915050611015565b50600a54611090906001600160a01b0316611aa7565b505050505050565b60006110a2611cdc565b60138054600160481b900462ffffff169060096110be83613663565b82546101009290920a62ffffff81810219909316918316021790915560135480821692506110fd9163010000008204811691600160481b900416613686565b62ffffff16111561110d57600080fd5b60135462ffffff8082169161113391600160481b8204811691600160301b900416613686565b62ffffff1614156111a457601154601254604051631122f8a960e11b815260048101919091526001600160a01b03909116908190632245f15290602401600060405180830381600087803b15801561118a57600080fd5b505af115801561119e573d6000803e3d6000fd5b50505050505b601154336000908152601960205260409020546001600160a01b039091169060ff16158061124f57506012546040516331a9108f60e11b815260048101919091526001600160a01b03821690636352211e90602401602060405180830381865afa158015611216573d6000803e3d6000fd5b505050506040513d601f19601f8201168201806040525081019061123a9190613715565b6001600160a01b0316336001600160a01b0316145b61125857600080fd5b60135461127a9062ffffff63010000008204811691600160481b900416613686565b62ffffff16620f424060116001015461129391906136ad565b61129d91906136cc565b91506112a93383611d36565b600c54604051631da00d8560e01b8152600481018490526001600160a01b03909116906000908290631da00d85906024016020604051808303816000875af11580156112f9573d6000803e3d6000fd5b505050506040513d601f19601f8201168201806040525081019061131d91906135bd565b90506113298482611d50565b60408051338152602081018690527f0f6798a560793a54c3bcfe86a93cde1e73087d944c0ea20544137d4121396885910160405180910390a1505050610cc46001600755565b826001600160a01b03811633146113895761138933612371565b61139484848461242a565b50505050565b6000806113a7848461245b565b915091509250929050565b600f80546113bf90613582565b80601f01602080910402602001604051908101604052809291908181526020018280546113eb90613582565b80156114385780601f1061140d57610100808354040283529160200191611438565b820191906000526020600020905b81548152906001019060200180831161141b57829003601f168201915b505050505081565b600a5460408051808201909152600381526231303160e81b6020820152906001600160a01b031633146114865760405162461bcd60e51b815260040161091e9190612fbd565b5061148f6124f7565b565b826001600160a01b03811633146114ab576114ab33612371565b611394848484612549565b600e80546113bf90613582565b600a546001600160a01b0316331480156114e557506001600160a01b03811615155b6040518060400160405280600381526020016231303160e81b8152509061151f5760405162461bcd60e51b815260040161091e9190612fbd565b50600d546001600160a01b03828116911614610d5557600d80546001600160a01b0383166001600160a01b031990911617905550565b600081815260096020526040812054600160a01b900460a01b6001600160a01b03191661158457506000919050565b6000828152600960209081526040918290205491516115be92600160a01b900460a01b91016001600160a01b031991909116815260200190565b604051602081830303815290604052805190602001209050919050565b60006001600160a01b0382166116455760405162461bcd60e51b815260206004820152602960248201527f4552433732313a2061646472657373207a65726f206973206e6f7420612076616044820152683634b21037bbb732b960b91b606482015260840161091e565b506001600160a01b031660009081526003602052604090205490565b611669612564565b61148f60006125e2565b60118054601254601354601480546001600160a01b0390941694929362ffffff8084169463010000008504821694600160301b8104831694600160481b909104909216929091906116c390613582565b80601f01602080910402602001604051908101604052809291908181526020018280546116ef90613582565b801561173c5780601f106117115761010080835404028352916020019161173c565b820191906000526020600020905b81548152906001019060200180831161171f57829003601f168201915b5050505060048301546005840154600685015460078601805495966001600160a01b039485169693955093909116929161177590613582565b80601f01602080910402602001604051908101604052809291908181526020018280546117a190613582565b80156117ee5780601f106117c3576101008083540402835291602001916117ee565b820191906000526020600020905b8154815290600101906020018083116117d157829003601f168201915b505050505090508b565b600a5460408051808201909152600381526231303160e81b6020820152906001600160a01b0316331461183e5760405162461bcd60e51b815260040161091e9190612fbd565b5061148f612634565b600a546001600160a01b03163314801561186957506001600160a01b03811615155b6040518060400160405280600381526020016231303160e81b815250906118a35760405162461bcd60e51b815260040161091e9190612fbd565b50600a546001600160a01b03828116911614610d5557600a80546001600160a01b0383166001600160a01b031990911617905550565b6060600f80546107ff90613582565b600a546001600160a01b031633146118ff57600080fd5b60408051808201909152600381526232303960e81b602082015261271082111561193c5760405162461bcd60e51b815260040161091e9190612fbd565b50604080516060810182526001600160a01b03938416815262ffffff928316602080830191825260018385019081526000978852601090915292909520905181549551925194166001600160b81b031990951694909417600160a01b91909216021760ff60b81b1916600160b81b91151591909102179055565b6119c1338383612671565b5050565b836001600160a01b03811633146119df576119df33612371565b6119eb85858585612740565b5050505050565b600d5460405163188687dd60e21b8152600481018390526060916001600160a01b031690600090309063621a1f7490602401602060405180830381865afa158015611a41573d6000803e3d6000fd5b505050506040513d601f19601f82011682018060405250810190611a6591906135bd565b6012546040516308dd54e960e31b8152600481019190915260248101869052604481018290529091506001600160a01b038316906346eaa74890606401610a75565b611aaf612564565b6001600160a01b038116611b145760405162461bcd60e51b815260206004820152602660248201527f4f776e61626c653a206e6577206f776e657220697320746865207a65726f206160448201526564647265737360d01b606482015260840161091e565b610d55816125e2565b600a546001600160a01b031633148015611b3f57506001600160a01b03811615155b6040518060400160405280600381526020016231303160e81b81525090611b795760405162461bcd60e51b815260040161091e9190612fbd565b50600b546001600160a01b03828116911614610d5557600b80546001600160a01b0383166001600160a01b031990911617905550565b6000818152600960205260409020546001600160a01b0316610d555760405162461bcd60e51b8152602060048201526018602482015277115490cdcc8c4e881a5b9d985b1a59081d1bdad95b88125160421b604482015260640161091e565b6000818152600260205260408120546001600160a01b0316806107ea5760405162461bcd60e51b8152602060048201526018602482015277115490cdcc8c4e881a5b9d985b1a59081d1bdad95b88125160421b604482015260640161091e565b600081815260046020526040902080546001600160a01b0319166001600160a01b0384169081179091558190611ca382611c0e565b6001600160a01b03167f8c5be1e5ebec7d5bd14f71427d1e84f3dd0314c0f7b2291e5b200ac8c7c3b92560405160405180910390a45050565b60026007541415611d2f5760405162461bcd60e51b815260206004820152601f60248201527f5265656e7472616e637947756172643a207265656e7472616e742063616c6c00604482015260640161091e565b6002600755565b6119c1828260405180602001604052806000815250612772565b600082815260096020908152604091829020548251808401909352600383526203231360ec1b91830191909152600160a01b900460a01b6001600160a01b03191615611daf5760405162461bcd60e51b815260040161091e9190612fbd565b5060408051808201909152600381526232313160e81b602082015281611de85760405162461bcd60e51b815260040161091e9190612fbd565b50600091825260096020526040909120805460a09290921c600160a01b026001600160a01b03909216919091179055565b60165480611e245750565b601154600b546000916001600160a01b0390811691166101f48115611edc5760408051808201825260158152744d494e545f4e46545f4f50455241544f525f46454560581b60208201529051636d12dce160e01b81526001600160a01b03841691636d12dce191611e989190600401612fbd565b602060405180830381865afa158015611eb5573d6000803e3d6000fd5b505050506040513d601f19601f82011682018060405250810190611ed991906135bd565b90505b6001600160a01b0384166120535784341015611ef757600080fd5b6012546040516331a9108f60e11b81526000916001600160a01b03861691636352211e91611f2b9160040190815260200190565b602060405180830381865afa158015611f48573d6000803e3d6000fd5b505050506040513d601f19601f82011682018060405250810190611f6c9190613715565b6001600160a01b0316612710611f8284896136ad565b611f8c9190613732565b611f969088613754565b604051600081818185875af1925050503d8060008114611fd2576040519150601f19603f3d011682016040523d82523d6000602084013e611fd7565b606091505b5050905080611fe557600080fd5b600a546001600160a01b0316612710611ffe84896136ad565b6120089190613732565b604051600081818185875af1925050503d8060008114612044576040519150601f19603f3d011682016040523d82523d6000602084013e612049565b606091505b506119eb92505050565b6040516323b872dd60e01b81523360048201523060248201526044810186905284906001600160a01b038216906323b872dd906064016020604051808303816000875af11580156120a8573d6000803e3d6000fd5b505050506040513d601f19601f820116820180604052508101906120cc919061376b565b6120d557600080fd5b6012546040516331a9108f60e11b815260048101919091526001600160a01b038281169163a9059cbb91871690636352211e90602401602060405180830381865afa158015612128573d6000803e3d6000fd5b505050506040513d601f19601f8201168201806040525081019061214c9190613715565b612710612159868b6136ad565b6121639190613732565b61216d908a613754565b6040516001600160e01b031960e085901b1681526001600160a01b03909216600483015260248201526044016020604051808303816000875af11580156121b8573d6000803e3d6000fd5b505050506040513d601f19601f820116820180604052508101906121dc919061376b565b6121e557600080fd5b600a546001600160a01b038083169163a9059cbb9116612710612208868b6136ad565b6122129190613732565b6040516001600160e01b031960e085901b1681526001600160a01b03909216600483015260248201526044016020604051808303816000875af115801561225d573d6000803e3d6000fd5b505050506040513d601f19601f82011682018060405250810190612281919061376b565b61109057600080fd5b606060006122988585613754565b6122a39060016136cc565b67ffffffffffffffff8111156122bb576122bb613057565b6040519080825280601f01601f1916602001820160405280156122e5576020820181803683370190505b50905060005b6122f58686613754565b81116123685783600161230888846136cc565b6123129190613754565b81518110612322576123226136e4565b602001015160f81c60f81b82828151811061233f5761233f6136e4565b60200101906001600160f81b031916908160001a90535080612360816136fa565b9150506122eb565b50949350505050565b6daaeb6d7670e522a718067333cd4e3b15610d5557604051633185c44d60e21b81523060048201526001600160a01b03821660248201526daaeb6d7670e522a718067333cd4e9063c617113490604401602060405180830381865afa1580156123de573d6000803e3d6000fd5b505050506040513d601f19601f82011682018060405250810190612402919061376b565b610d5557604051633b79c77360e21b81526001600160a01b038216600482015260240161091e565b61243433826127a5565b6124505760405162461bcd60e51b815260040161091e90613788565b6109bf838383612823565b6000828152601060209081526040808320815160608101835290546001600160a01b0381168252600160a01b810462ffffff1693820193909352600160b81b90920460ff16158015918301919091528291906124df5780516020820151909350612710906124ce9062ffffff16866136ad565b6124d89190613732565b91506124ef565b6124e9858561285d565b90935091505b509250929050565b6124ff612895565b6006805460ff191690557f5db9ee0a495bf2e6ff9c91a7834c1ba4fdd244a5e8aa4e537bd38aeae4b073aa335b6040516001600160a01b03909116815260200160405180910390a1565b6109bf838383604051806020016040528060008152506119c5565b33612577600a546001600160a01b031690565b6001600160a01b0316148061259657506011546001600160a01b031633145b61148f5760405162461bcd60e51b815260206004820181905260248201527f4f776e61626c653a2063616c6c6572206973206e6f7420746865206f776e6572604482015260640161091e565b600880546001600160a01b038381166001600160a01b0319831681179093556040519116919082907f8be0079c531659141344cd1fd0a4f28419497f9722a3daafe3b4186f6b6457e090600090a35050565b61263c6128de565b6006805460ff191660011790557f62e78cea01bee320cd4e420270b5ea74000d11b0c9f74754ebdbfc544b05a25861252c3390565b816001600160a01b0316836001600160a01b031614156126d35760405162461bcd60e51b815260206004820152601960248201527f4552433732313a20617070726f766520746f2063616c6c657200000000000000604482015260640161091e565b6001600160a01b03838116600081815260056020908152604080832094871680845294825291829020805460ff191686151590811790915591519182527f17307eab39ab6107e8899845ad3d59bd9653f200f220920489ca2b5937696c31910160405180910390a3505050565b61274a33836127a5565b6127665760405162461bcd60e51b815260040161091e90613788565b61139484848484612924565b61277c8383612957565b612789600084848461298f565b6109bf5760405162461bcd60e51b815260040161091e906137d5565b6000806127b183611c0e565b9050806001600160a01b0316846001600160a01b031614806127f857506001600160a01b0380821660009081526005602090815260408083209388168352929052205460ff165b80610aba5750836001600160a01b031661281184610882565b6001600160a01b031614949350505050565b61282e838383612a8d565b600090815260096020526040902080546001600160a01b0319166001600160a01b039290921691909117905550565b600a5460009081906001600160a01b03168161271061287e866101f46136ad565b6128889190613732565b9196919550909350505050565b60065460ff1661148f5760405162461bcd60e51b815260206004820152601460248201527314185d5cd8589b194e881b9bdd081c185d5cd95960621b604482015260640161091e565b60065460ff161561148f5760405162461bcd60e51b815260206004820152601060248201526f14185d5cd8589b194e881c185d5cd95960821b604482015260640161091e565b61292f848484612823565b61293b8484848461298f565b6113945760405162461bcd60e51b815260040161091e906137d5565b6129618282612bfe565b600090815260096020526040902080546001600160a01b0319166001600160a01b0392909216919091179055565b60006001600160a01b0384163b15612a8257604051630a85bd0160e11b81526001600160a01b0385169063150b7a02906129d3903390899088908890600401613827565b6020604051808303816000875af1925050508015612a0e575060408051601f3d908101601f19168201909252612a0b91810190613864565b60015b612a68573d808015612a3c576040519150601f19603f3d011682016040523d82523d6000602084013e612a41565b606091505b508051612a605760405162461bcd60e51b815260040161091e906137d5565b805181602001fd5b6001600160e01b031916630a85bd0160e11b149050610aba565b506001949350505050565b826001600160a01b0316612aa082611c0e565b6001600160a01b031614612ac65760405162461bcd60e51b815260040161091e90613881565b6001600160a01b038216612b285760405162461bcd60e51b8152602060048201526024808201527f4552433732313a207472616e7366657220746f20746865207a65726f206164646044820152637265737360e01b606482015260840161091e565b612b358383836001612d97565b826001600160a01b0316612b4882611c0e565b6001600160a01b031614612b6e5760405162461bcd60e51b815260040161091e90613881565b600081815260046020908152604080832080546001600160a01b03199081169091556001600160a01b0387811680865260038552838620805460001901905590871680865283862080546001019055868652600290945282852080549092168417909155905184937fddf252ad1be2c89b69c2b068fc378daa952ba7f163c4a11628f55a4df523b3ef91a4505050565b6001600160a01b038216612c545760405162461bcd60e51b815260206004820181905260248201527f4552433732313a206d696e7420746f20746865207a65726f2061646472657373604482015260640161091e565b6000818152600960205260409020546001600160a01b031615612cb95760405162461bcd60e51b815260206004820152601c60248201527f4552433732313a20746f6b656e20616c7265616479206d696e74656400000000604482015260640161091e565b612cc7600083836001612d97565b6000818152600960205260409020546001600160a01b031615612d2c5760405162461bcd60e51b815260206004820152601c60248201527f4552433732313a20746f6b656e20616c7265616479206d696e74656400000000604482015260640161091e565b6001600160a01b038216600081815260036020908152604080832080546001019055848352600290915280822080546001600160a01b0319168417905551839291907fddf252ad1be2c89b69c2b068fc378daa952ba7f163c4a11628f55a4df523b3ef908290a45050565b612da384848484612e0a565b60065460ff16156113945760405162461bcd60e51b815260206004820152602b60248201527f4552433732315061757361626c653a20746f6b656e207472616e73666572207760448201526a1a1a5b19481c185d5cd95960aa1b606482015260840161091e565b6001811115611394576001600160a01b03841615612e50576001600160a01b03841660009081526003602052604081208054839290612e4a908490613754565b90915550505b6001600160a01b03831615611394576001600160a01b03831660009081526003602052604081208054839290612e879084906136cc565b909155505050505050565b828054612e9e90613582565b90600052602060002090601f016020900481019282612ec05760008555612f06565b82601f10612ed957805160ff1916838001178555612f06565b82800160010185558215612f06579182015b82811115612f06578251825591602001919060010190612eeb565b50612f12929150612f16565b5090565b5b80821115612f125760008155600101612f17565b6001600160e01b031981168114610d5557600080fd5b600060208284031215612f5357600080fd5b8135612f5e81612f2b565b9392505050565b60005b83811015612f80578181015183820152602001612f68565b838111156113945750506000910152565b60008151808452612fa9816020860160208601612f65565b601f01601f19169290920160200192915050565b602081526000612f5e6020830184612f91565b600060208284031215612fe257600080fd5b5035919050565b6001600160a01b0381168114610d5557600080fd5b803561300981612fe9565b919050565b6000806040838503121561302157600080fd5b823561302c81612fe9565b946020939093013593505050565b60006020828403121561304c57600080fd5b8135612f5e81612fe9565b634e487b7160e01b600052604160045260246000fd5b604051610160810167ffffffffffffffff8111828210171561309157613091613057565b60405290565b604051601f8201601f1916810167ffffffffffffffff811182821017156130c0576130c0613057565b604052919050565b803562ffffff8116811461300957600080fd5b600067ffffffffffffffff8211156130f5576130f5613057565b50601f01601f191660200190565b6000613116613111846130db565b613097565b905082815283838301111561312a57600080fd5b828260208301376000602084830101529392505050565b600082601f83011261315257600080fd5b612f5e83833560208501613103565b600082601f83011261317257600080fd5b8135602067ffffffffffffffff82111561318e5761318e613057565b8160051b61319d828201613097565b92835284810182019282810190878511156131b757600080fd5b83870192505b848310156131df5782356131d081612fe9565b825291830191908301906131bd565b979650505050505050565b60008060008060008060c0878903121561320357600080fd5b863567ffffffffffffffff8082111561321b57600080fd5b90880190610160828b03121561323057600080fd5b61323861306d565b61324183612ffe565b815260208301356020820152613259604084016130c8565b604082015261326a606084016130c8565b606082015261327b608084016130c8565b608082015261328c60a084016130c8565b60a082015260c0830135828111156132a357600080fd5b6132af8c828601613141565b60c0830152506132c160e08401612ffe565b60e082015261010083810135908201526101206132df818501612ffe565b9082015261014083810135838111156132f757600080fd5b6133038d828701613141565b8284015250508098505061331960208a01612ffe565b965061332760408a01612ffe565b955061333560608a01612ffe565b945061334360808a01612ffe565b935060a089013591508082111561335957600080fd5b5061336689828a01613161565b9150509295509295509295565b60008060006060848603121561338857600080fd5b833561339381612fe9565b925060208401356133a381612fe9565b929592945050506040919091013590565b600080604083850312156133c757600080fd5b50508035926020909101359150565b6001600160a01b038c81168252602082018c905262ffffff8b811660408401528a811660608401528981166080840152881660a083015261016060c083018190526000916134268483018a612f91565b915080881660e085015286610100850152808616610120850152508281036101408401526134548185612f91565b9e9d5050505050505050505050505050565b60008060006060848603121561347b57600080fd5b8335925060208401356133a381612fe9565b8015158114610d5557600080fd5b600080604083850312156134ae57600080fd5b82356134b981612fe9565b915060208301356134c98161348d565b809150509250929050565b600080600080608085870312156134ea57600080fd5b84356134f581612fe9565b9350602085013561350581612fe9565b925060408501359150606085013567ffffffffffffffff81111561352857600080fd5b8501601f8101871361353957600080fd5b61354887823560208401613103565b91505092959194509250565b6000806040838503121561356757600080fd5b823561357281612fe9565b915060208301356134c981612fe9565b600181811c9082168061359657607f821691505b602082108114156135b757634e487b7160e01b600052602260045260246000fd5b50919050565b6000602082840312156135cf57600080fd5b5051919050565b6000602082840312156135e857600080fd5b815167ffffffffffffffff8111156135ff57600080fd5b8201601f8101841361361057600080fd5b805161361e613111826130db565b81815285602083850101111561363357600080fd5b613644826020830160208601612f65565b95945050505050565b634e487b7160e01b600052601160045260246000fd5b600062ffffff8083168181141561367c5761367c61364d565b6001019392505050565b600062ffffff8083168185168083038211156136a4576136a461364d565b01949350505050565b60008160001904831182151516156136c7576136c761364d565b500290565b600082198211156136df576136df61364d565b500190565b634e487b7160e01b600052603260045260246000fd5b600060001982141561370e5761370e61364d565b5060010190565b60006020828403121561372757600080fd5b8151612f5e81612fe9565b60008261374f57634e487b7160e01b600052601260045260246000fd5b500490565b6000828210156137665761376661364d565b500390565b60006020828403121561377d57600080fd5b8151612f5e8161348d565b6020808252602d908201527f4552433732313a2063616c6c6572206973206e6f7420746f6b656e206f776e6560408201526c1c881bdc88185c1c1c9bdd9959609a1b606082015260800190565b60208082526032908201527f4552433732313a207472616e7366657220746f206e6f6e20455243373231526560408201527131b2b4bb32b91034b6b83632b6b2b73a32b960711b606082015260800190565b6001600160a01b038581168252841660208201526040810183905260806060820181905260009061385a90830184612f91565b9695505050505050565b60006020828403121561387657600080fd5b8151612f5e81612f2b565b60208082526025908201527f4552433732313a207472616e736665722066726f6d20696e636f72726563742060408201526437bbb732b960d91b60608201526080019056fea2646970667358221220781b665dc3b1ecec7645165120ead22c2a2e8ef365e62f7f59d6ca10a6247f2864736f6c634300080c0033","opcodes":"PUSH1 0x80 PUSH1 0x40 MSTORE CALLVALUE DUP1 ISZERO PUSH3 0x11 JUMPI PUSH1 0x0 DUP1 REVERT JUMPDEST POP PUSH1 0x40 MLOAD PUSH3 0x3D63 CODESIZE SUB DUP1 PUSH3 0x3D63 DUP4 CODECOPY DUP2 ADD PUSH1 0x40 DUP2 SWAP1 MSTORE PUSH3 0x34 SWAP2 PUSH3 0x3B0 JUMP JUMPDEST PUSH20 0x3CC6CDDA760B79BAFA08DF41ECFA224F810DCEB6 PUSH1 0x1 DUP4 DUP4 DUP2 DUP2 DUP2 PUSH1 0x0 SWAP1 DUP1 MLOAD SWAP1 PUSH1 0x20 ADD SWAP1 PUSH3 0x67 SWAP3 SWAP2 SWAP1 PUSH3 0x23D JUMP JUMPDEST POP DUP1 MLOAD PUSH3 0x7D SWAP1 PUSH1 0x1 SWAP1 PUSH1 0x20 DUP5 ADD SWAP1 PUSH3 0x23D JUMP JUMPDEST POP POP PUSH1 0x6 DUP1 SLOAD PUSH1 0xFF NOT AND SWAP1 SSTORE POP PUSH1 0x1 PUSH1 0x7 SSTORE PUSH3 0x9A CALLER PUSH3 0x1EB JUMP JUMPDEST POP POP PUSH14 0xAAEB6D7670E522A718067333CD4E EXTCODESIZE ISZERO PUSH3 0x1E1 JUMPI DUP1 ISZERO PUSH3 0x12F JUMPI PUSH1 0x40 MLOAD PUSH4 0x3E9F1EDF PUSH1 0xE1 SHL DUP2 MSTORE ADDRESS PUSH1 0x4 DUP3 ADD MSTORE PUSH1 0x1 PUSH1 0x1 PUSH1 0xA0 SHL SUB DUP4 AND PUSH1 0x24 DUP3 ADD MSTORE PUSH14 0xAAEB6D7670E522A718067333CD4E SWAP1 PUSH4 0x7D3E3DBE SWAP1 PUSH1 0x44 ADD JUMPDEST PUSH1 0x0 PUSH1 0x40 MLOAD DUP1 DUP4 SUB DUP2 PUSH1 0x0 DUP8 DUP1 EXTCODESIZE ISZERO DUP1 ISZERO PUSH3 0x110 JUMPI PUSH1 0x0 DUP1 REVERT JUMPDEST POP GAS CALL ISZERO DUP1 ISZERO PUSH3 0x125 JUMPI RETURNDATASIZE PUSH1 0x0 DUP1 RETURNDATACOPY RETURNDATASIZE PUSH1 0x0 REVERT JUMPDEST POP POP POP POP PUSH3 0x1E1 JUMP JUMPDEST PUSH1 0x1 PUSH1 0x1 PUSH1 0xA0 SHL SUB DUP3 AND ISZERO PUSH3 0x180 JUMPI PUSH1 0x40 MLOAD PUSH4 0xA0AF2903 PUSH1 0xE0 SHL DUP2 MSTORE ADDRESS PUSH1 0x4 DUP3 ADD MSTORE PUSH1 0x1 PUSH1 0x1 PUSH1 0xA0 SHL SUB DUP4 AND PUSH1 0x24 DUP3 ADD MSTORE PUSH14 0xAAEB6D7670E522A718067333CD4E SWAP1 PUSH4 0xA0AF2903 SWAP1 PUSH1 0x44 ADD PUSH3 0xF5 JUMP JUMPDEST PUSH1 0x40 MLOAD PUSH4 0x22107243 PUSH1 0xE1 SHL DUP2 MSTORE ADDRESS PUSH1 0x4 DUP3 ADD MSTORE PUSH14 0xAAEB6D7670E522A718067333CD4E SWAP1 PUSH4 0x4420E486 SWAP1 PUSH1 0x24 ADD PUSH1 0x0 PUSH1 0x40 MLOAD DUP1 DUP4 SUB DUP2 PUSH1 0x0 DUP8 DUP1 EXTCODESIZE ISZERO DUP1 ISZERO PUSH3 0x1C7 JUMPI PUSH1 0x0 DUP1 REVERT JUMPDEST POP GAS CALL ISZERO DUP1 ISZERO PUSH3 0x1DC JUMPI RETURNDATASIZE PUSH1 0x0 DUP1 RETURNDATACOPY RETURNDATASIZE PUSH1 0x0 REVERT JUMPDEST POP POP POP POP JUMPDEST POP POP POP POP PUSH3 0x457 JUMP JUMPDEST PUSH1 0x8 DUP1 SLOAD PUSH1 0x1 PUSH1 0x1 PUSH1 0xA0 SHL SUB DUP4 DUP2 AND PUSH1 0x1 PUSH1 0x1 PUSH1 0xA0 SHL SUB NOT DUP4 AND DUP2 OR SWAP1 SWAP4 SSTORE PUSH1 0x40 MLOAD SWAP2 AND SWAP2 SWAP1 DUP3 SWAP1 PUSH32 0x8BE0079C531659141344CD1FD0A4F28419497F9722A3DAAFE3B4186F6B6457E0 SWAP1 PUSH1 0x0 SWAP1 LOG3 POP POP JUMP JUMPDEST DUP3 DUP1 SLOAD PUSH3 0x24B SWAP1 PUSH3 0x41A JUMP JUMPDEST SWAP1 PUSH1 0x0 MSTORE PUSH1 0x20 PUSH1 0x0 KECCAK256 SWAP1 PUSH1 0x1F ADD PUSH1 0x20 SWAP1 DIV DUP2 ADD SWAP3 DUP3 PUSH3 0x26F JUMPI PUSH1 0x0 DUP6 SSTORE PUSH3 0x2BA JUMP JUMPDEST DUP3 PUSH1 0x1F LT PUSH3 0x28A JUMPI DUP1 MLOAD PUSH1 0xFF NOT AND DUP4 DUP1 ADD OR DUP6 SSTORE PUSH3 0x2BA JUMP JUMPDEST DUP3 DUP1 ADD PUSH1 0x1 ADD DUP6 SSTORE DUP3 ISZERO PUSH3 0x2BA JUMPI SWAP2 DUP3 ADD JUMPDEST DUP3 DUP2 GT ISZERO PUSH3 0x2BA JUMPI DUP3 MLOAD DUP3 SSTORE SWAP2 PUSH1 0x20 ADD SWAP2 SWAP1 PUSH1 0x1 ADD SWAP1 PUSH3 0x29D JUMP JUMPDEST POP PUSH3 0x2C8 SWAP3 SWAP2 POP PUSH3 0x2CC JUMP JUMPDEST POP SWAP1 JUMP JUMPDEST JUMPDEST DUP1 DUP3 GT ISZERO PUSH3 0x2C8 JUMPI PUSH1 0x0 DUP2 SSTORE PUSH1 0x1 ADD PUSH3 0x2CD JUMP JUMPDEST PUSH4 0x4E487B71 PUSH1 0xE0 SHL PUSH1 0x0 MSTORE PUSH1 0x41 PUSH1 0x4 MSTORE PUSH1 0x24 PUSH1 0x0 REVERT JUMPDEST PUSH1 0x0 DUP3 PUSH1 0x1F DUP4 ADD SLT PUSH3 0x30B JUMPI PUSH1 0x0 DUP1 REVERT JUMPDEST DUP2 MLOAD PUSH1 0x1 PUSH1 0x1 PUSH1 0x40 SHL SUB DUP1 DUP3 GT ISZERO PUSH3 0x328 JUMPI PUSH3 0x328 PUSH3 0x2E3 JUMP JUMPDEST PUSH1 0x40 MLOAD PUSH1 0x1F DUP4 ADD PUSH1 0x1F NOT SWAP1 DUP2 AND PUSH1 0x3F ADD AND DUP2 ADD SWAP1 DUP3 DUP3 GT DUP2 DUP4 LT OR ISZERO PUSH3 0x353 JUMPI PUSH3 0x353 PUSH3 0x2E3 JUMP JUMPDEST DUP2 PUSH1 0x40 MSTORE DUP4 DUP2 MSTORE PUSH1 0x20 SWAP3 POP DUP7 DUP4 DUP6 DUP9 ADD ADD GT ISZERO PUSH3 0x370 JUMPI PUSH1 0x0 DUP1 REVERT JUMPDEST PUSH1 0x0 SWAP2 POP JUMPDEST DUP4 DUP3 LT ISZERO PUSH3 0x394 JUMPI DUP6 DUP3 ADD DUP4 ADD MLOAD DUP2 DUP4 ADD DUP5 ADD MSTORE SWAP1 DUP3 ADD SWAP1 PUSH3 0x375 JUMP JUMPDEST DUP4 DUP3 GT ISZERO PUSH3 0x3A6 JUMPI PUSH1 0x0 DUP4 DUP6 DUP4 ADD ADD MSTORE JUMPDEST SWAP7 SWAP6 POP POP POP POP POP POP JUMP JUMPDEST PUSH1 0x0 DUP1 PUSH1 0x40 DUP4 DUP6 SUB SLT ISZERO PUSH3 0x3C4 JUMPI PUSH1 0x0 DUP1 REVERT JUMPDEST DUP3 MLOAD PUSH1 0x1 PUSH1 0x1 PUSH1 0x40 SHL SUB DUP1 DUP3 GT ISZERO PUSH3 0x3DC JUMPI PUSH1 0x0 DUP1 REVERT JUMPDEST PUSH3 0x3EA DUP7 DUP4 DUP8 ADD PUSH3 0x2F9 JUMP JUMPDEST SWAP4 POP PUSH1 0x20 DUP6 ADD MLOAD SWAP2 POP DUP1 DUP3 GT ISZERO PUSH3 0x401 JUMPI PUSH1 0x0 DUP1 REVERT JUMPDEST POP PUSH3 0x410 DUP6 DUP3 DUP7 ADD PUSH3 0x2F9 JUMP JUMPDEST SWAP2 POP POP SWAP3 POP SWAP3 SWAP1 POP JUMP JUMPDEST PUSH1 0x1 DUP2 DUP2 SHR SWAP1 DUP3 AND DUP1 PUSH3 0x42F JUMPI PUSH1 0x7F DUP3 AND SWAP2 POP JUMPDEST PUSH1 0x20 DUP3 LT DUP2 EQ ISZERO PUSH3 0x451 JUMPI PUSH4 0x4E487B71 PUSH1 0xE0 SHL PUSH1 0x0 MSTORE PUSH1 0x22 PUSH1 0x4 MSTORE PUSH1 0x24 PUSH1 0x0 REVERT JUMPDEST POP SWAP2 SWAP1 POP JUMP JUMPDEST PUSH2 0x38FC DUP1 PUSH3 0x467 PUSH1 0x0 CODECOPY PUSH1 0x0 RETURN INVALID PUSH1 0x80 PUSH1 0x40 MSTORE PUSH1 0x4 CALLDATASIZE LT PUSH2 0x230 JUMPI PUSH1 0x0 CALLDATALOAD PUSH1 0xE0 SHR DUP1 PUSH4 0x5C975ABB GT PUSH2 0x12E JUMPI DUP1 PUSH4 0x95D89B41 GT PUSH2 0xAB JUMPI DUP1 PUSH4 0xC87B56DD GT PUSH2 0x6F JUMPI DUP1 PUSH4 0xC87B56DD EQ PUSH2 0x6D5 JUMPI DUP1 PUSH4 0xE985E9C5 EQ PUSH2 0x6F5 JUMPI DUP1 PUSH4 0xF2FDE38B EQ PUSH2 0x73E JUMPI DUP1 PUSH4 0xFEBFD6C3 EQ PUSH2 0x75E JUMPI DUP1 PUSH4 0xFFC27C0E EQ PUSH2 0x77E JUMPI PUSH1 0x0 DUP1 REVERT JUMPDEST DUP1 PUSH4 0x95D89B41 EQ PUSH2 0x640 JUMPI DUP1 PUSH4 0x9713C807 EQ PUSH2 0x655 JUMPI DUP1 PUSH4 0xA22CB465 EQ PUSH2 0x675 JUMPI DUP1 PUSH4 0xADFC7DAE EQ PUSH2 0x695 JUMPI DUP1 PUSH4 0xB88D4FDE EQ PUSH2 0x6B5 JUMPI PUSH1 0x0 DUP1 REVERT JUMPDEST DUP1 PUSH4 0x775BFF9F GT PUSH2 0xF2 JUMPI DUP1 PUSH4 0x775BFF9F EQ PUSH2 0x547 JUMPI DUP1 PUSH4 0x7F77F574 EQ PUSH2 0x573 JUMPI DUP1 PUSH4 0x8456CB59 EQ PUSH2 0x5ED JUMPI DUP1 PUSH4 0x8DA5CB5B EQ PUSH2 0x602 JUMPI DUP1 PUSH4 0x8F283970 EQ PUSH2 0x620 JUMPI PUSH1 0x0 DUP1 REVERT JUMPDEST DUP1 PUSH4 0x5C975ABB EQ PUSH2 0x4A4 JUMPI DUP1 PUSH4 0x621A1F74 EQ PUSH2 0x4BC JUMPI DUP1 PUSH4 0x6352211E EQ PUSH2 0x4DC JUMPI DUP1 PUSH4 0x70A08231 EQ PUSH2 0x512 JUMPI DUP1 PUSH4 0x715018A6 EQ PUSH2 0x532 JUMPI PUSH1 0x0 DUP1 REVERT JUMPDEST DUP1 PUSH4 0x21C8D676 GT PUSH2 0x1BC JUMPI DUP1 PUSH4 0x41F43434 GT PUSH2 0x180 JUMPI DUP1 PUSH4 0x41F43434 EQ PUSH2 0x40D JUMPI DUP1 PUSH4 0x42842E0E EQ PUSH2 0x42F JUMPI DUP1 PUSH4 0x452FA3D3 EQ PUSH2 0x44F JUMPI DUP1 PUSH4 0x472F1E02 EQ PUSH2 0x464 JUMPI DUP1 PUSH4 0x575B57EA EQ PUSH2 0x484 JUMPI PUSH1 0x0 DUP1 REVERT JUMPDEST DUP1 PUSH4 0x21C8D676 EQ PUSH2 0x37C JUMPI DUP1 PUSH4 0x23B872DD EQ PUSH2 0x384 JUMPI DUP1 PUSH4 0x2A55205A EQ PUSH2 0x3A4 JUMPI DUP1 PUSH4 0x36A0A6CB EQ PUSH2 0x3E3 JUMPI DUP1 PUSH4 0x3F4BA83A EQ PUSH2 0x3F8 JUMPI PUSH1 0x0 DUP1 REVERT JUMPDEST DUP1 PUSH4 0x95EA7B3 GT PUSH2 0x203 JUMPI DUP1 PUSH4 0x95EA7B3 EQ PUSH2 0x2E4 JUMPI DUP1 PUSH4 0x10DA88C5 EQ PUSH2 0x306 JUMPI DUP1 PUSH4 0x1249C58B EQ PUSH2 0x326 JUMPI DUP1 PUSH4 0x1CA9741B EQ PUSH2 0x33C JUMPI DUP1 PUSH4 0x1FAAA3B6 EQ PUSH2 0x35C JUMPI PUSH1 0x0 DUP1 REVERT JUMPDEST DUP1 PUSH4 0x1BC45C9 EQ PUSH2 0x235 JUMPI DUP1 PUSH4 0x1FFC9A7 EQ PUSH2 0x272 JUMPI DUP1 PUSH4 0x6FDDE03 EQ PUSH2 0x2A2 JUMPI DUP1 PUSH4 0x81812FC EQ PUSH2 0x2C4 JUMPI JUMPDEST PUSH1 0x0 DUP1 REVERT JUMPDEST CALLVALUE DUP1 ISZERO PUSH2 0x241 JUMPI PUSH1 0x0 DUP1 REVERT JUMPDEST POP PUSH1 0xA SLOAD PUSH2 0x255 SWAP1 PUSH1 0x1 PUSH1 0x1 PUSH1 0xA0 SHL SUB AND DUP2 JUMP JUMPDEST PUSH1 0x40 MLOAD PUSH1 0x1 PUSH1 0x1 PUSH1 0xA0 SHL SUB SWAP1 SWAP2 AND DUP2 MSTORE PUSH1 0x20 ADD JUMPDEST PUSH1 0x40 MLOAD DUP1 SWAP2 SUB SWAP1 RETURN JUMPDEST CALLVALUE DUP1 ISZERO PUSH2 0x27E JUMPI PUSH1 0x0 DUP1 REVERT JUMPDEST POP PUSH2 0x292 PUSH2 0x28D CALLDATASIZE PUSH1 0x4 PUSH2 0x2F41 JUMP JUMPDEST PUSH2 0x79E JUMP JUMPDEST PUSH1 0x40 MLOAD SWAP1 ISZERO ISZERO DUP2 MSTORE PUSH1 0x20 ADD PUSH2 0x269 JUMP JUMPDEST CALLVALUE DUP1 ISZERO PUSH2 0x2AE JUMPI PUSH1 0x0 DUP1 REVERT JUMPDEST POP PUSH2 0x2B7 PUSH2 0x7F0 JUMP JUMPDEST PUSH1 0x40 MLOAD PUSH2 0x269 SWAP2 SWAP1 PUSH2 0x2FBD JUMP JUMPDEST CALLVALUE DUP1 ISZERO PUSH2 0x2D0 JUMPI PUSH1 0x0 DUP1 REVERT JUMPDEST POP PUSH2 0x255 PUSH2 0x2DF CALLDATASIZE PUSH1 0x4 PUSH2 0x2FD0 JUMP JUMPDEST PUSH2 0x882 JUMP JUMPDEST CALLVALUE DUP1 ISZERO PUSH2 0x2F0 JUMPI PUSH1 0x0 DUP1 REVERT JUMPDEST POP PUSH2 0x304 PUSH2 0x2FF CALLDATASIZE PUSH1 0x4 PUSH2 0x300E JUMP JUMPDEST PUSH2 0x8A9 JUMP JUMPDEST STOP JUMPDEST CALLVALUE DUP1 ISZERO PUSH2 0x312 JUMPI PUSH1 0x0 DUP1 REVERT JUMPDEST POP PUSH2 0x2B7 PUSH2 0x321 CALLDATASIZE PUSH1 0x4 PUSH2 0x2FD0 JUMP JUMPDEST PUSH2 0x9C4 JUMP JUMPDEST PUSH2 0x32E PUSH2 0xAC2 JUMP JUMPDEST PUSH1 0x40 MLOAD SWAP1 DUP2 MSTORE PUSH1 0x20 ADD PUSH2 0x269 JUMP JUMPDEST CALLVALUE DUP1 ISZERO PUSH2 0x348 JUMPI PUSH1 0x0 DUP1 REVERT JUMPDEST POP PUSH2 0x304 PUSH2 0x357 CALLDATASIZE PUSH1 0x4 PUSH2 0x303A JUMP JUMPDEST PUSH2 0xCC7 JUMP JUMPDEST CALLVALUE DUP1 ISZERO PUSH2 0x368 JUMPI PUSH1 0x0 DUP1 REVERT JUMPDEST POP PUSH2 0x304 PUSH2 0x377 CALLDATASIZE PUSH1 0x4 PUSH2 0x31EA JUMP JUMPDEST PUSH2 0xD58 JUMP JUMPDEST PUSH2 0x32E PUSH2 0x1098 JUMP JUMPDEST CALLVALUE DUP1 ISZERO PUSH2 0x390 JUMPI PUSH1 0x0 DUP1 REVERT JUMPDEST POP PUSH2 0x304 PUSH2 0x39F CALLDATASIZE PUSH1 0x4 PUSH2 0x3373 JUMP JUMPDEST PUSH2 0x136F JUMP JUMPDEST CALLVALUE DUP1 ISZERO PUSH2 0x3B0 JUMPI PUSH1 0x0 DUP1 REVERT JUMPDEST POP PUSH2 0x3C4 PUSH2 0x3BF CALLDATASIZE PUSH1 0x4 PUSH2 0x33B4 JUMP JUMPDEST PUSH2 0x139A JUMP JUMPDEST PUSH1 0x40 DUP1 MLOAD PUSH1 0x1 PUSH1 0x1 PUSH1 0xA0 SHL SUB SWAP1 SWAP4 AND DUP4 MSTORE PUSH1 0x20 DUP4 ADD SWAP2 SWAP1 SWAP2 MSTORE ADD PUSH2 0x269 JUMP JUMPDEST CALLVALUE DUP1 ISZERO PUSH2 0x3EF JUMPI PUSH1 0x0 DUP1 REVERT JUMPDEST POP PUSH2 0x2B7 PUSH2 0x13B2 JUMP JUMPDEST CALLVALUE DUP1 ISZERO PUSH2 0x404 JUMPI PUSH1 0x0 DUP1 REVERT JUMPDEST POP PUSH2 0x304 PUSH2 0x1440 JUMP JUMPDEST CALLVALUE DUP1 ISZERO PUSH2 0x419 JUMPI PUSH1 0x0 DUP1 REVERT JUMPDEST POP PUSH2 0x255 PUSH14 0xAAEB6D7670E522A718067333CD4E DUP2 JUMP JUMPDEST CALLVALUE DUP1 ISZERO PUSH2 0x43B JUMPI PUSH1 0x0 DUP1 REVERT JUMPDEST POP PUSH2 0x304 PUSH2 0x44A CALLDATASIZE PUSH1 0x4 PUSH2 0x3373 JUMP JUMPDEST PUSH2 0x1491 JUMP JUMPDEST CALLVALUE DUP1 ISZERO PUSH2 0x45B JUMPI PUSH1 0x0 DUP1 REVERT JUMPDEST POP PUSH2 0x2B7 PUSH2 0x14B6 JUMP JUMPDEST CALLVALUE DUP1 ISZERO PUSH2 0x470 JUMPI PUSH1 0x0 DUP1 REVERT JUMPDEST POP PUSH2 0x304 PUSH2 0x47F CALLDATASIZE PUSH1 0x4 PUSH2 0x303A JUMP JUMPDEST PUSH2 0x14C3 JUMP JUMPDEST CALLVALUE DUP1 ISZERO PUSH2 0x490 JUMPI PUSH1 0x0 DUP1 REVERT JUMPDEST POP PUSH1 0xD SLOAD PUSH2 0x255 SWAP1 PUSH1 0x1 PUSH1 0x1 PUSH1 0xA0 SHL SUB AND DUP2 JUMP JUMPDEST CALLVALUE DUP1 ISZERO PUSH2 0x4B0 JUMPI PUSH1 0x0 DUP1 REVERT JUMPDEST POP PUSH1 0x6 SLOAD PUSH1 0xFF AND PUSH2 0x292 JUMP JUMPDEST CALLVALUE DUP1 ISZERO PUSH2 0x4C8 JUMPI PUSH1 0x0 DUP1 REVERT JUMPDEST POP PUSH2 0x32E PUSH2 0x4D7 CALLDATASIZE PUSH1 0x4 PUSH2 0x2FD0 JUMP JUMPDEST PUSH2 0x1555 JUMP JUMPDEST CALLVALUE DUP1 ISZERO PUSH2 0x4E8 JUMPI PUSH1 0x0 DUP1 REVERT JUMPDEST POP PUSH2 0x255 PUSH2 0x4F7 CALLDATASIZE PUSH1 0x4 PUSH2 0x2FD0 JUMP JUMPDEST PUSH1 0x0 SWAP1 DUP2 MSTORE PUSH1 0x9 PUSH1 0x20 MSTORE PUSH1 0x40 SWAP1 KECCAK256 SLOAD PUSH1 0x1 PUSH1 0x1 PUSH1 0xA0 SHL SUB AND SWAP1 JUMP JUMPDEST CALLVALUE DUP1 ISZERO PUSH2 0x51E JUMPI PUSH1 0x0 DUP1 REVERT JUMPDEST POP PUSH2 0x32E PUSH2 0x52D CALLDATASIZE PUSH1 0x4 PUSH2 0x303A JUMP JUMPDEST PUSH2 0x15DB JUMP JUMPDEST CALLVALUE DUP1 ISZERO PUSH2 0x53E JUMPI PUSH1 0x0 DUP1 REVERT JUMPDEST POP PUSH2 0x304 PUSH2 0x1661 JUMP JUMPDEST CALLVALUE DUP1 ISZERO PUSH2 0x553 JUMPI PUSH1 0x0 DUP1 REVERT JUMPDEST POP PUSH2 0x55C PUSH2 0x1673 JUMP JUMPDEST PUSH1 0x40 MLOAD PUSH2 0x269 SWAP12 SWAP11 SWAP10 SWAP9 SWAP8 SWAP7 SWAP6 SWAP5 SWAP4 SWAP3 SWAP2 SWAP1 PUSH2 0x33D6 JUMP JUMPDEST CALLVALUE DUP1 ISZERO PUSH2 0x57F JUMPI PUSH1 0x0 DUP1 REVERT JUMPDEST POP PUSH2 0x5C2 PUSH2 0x58E CALLDATASIZE PUSH1 0x4 PUSH2 0x2FD0 JUMP JUMPDEST PUSH1 0x10 PUSH1 0x20 MSTORE PUSH1 0x0 SWAP1 DUP2 MSTORE PUSH1 0x40 SWAP1 KECCAK256 SLOAD PUSH1 0x1 PUSH1 0x1 PUSH1 0xA0 SHL SUB DUP2 AND SWAP1 PUSH1 0x1 PUSH1 0xA0 SHL DUP2 DIV PUSH3 0xFFFFFF AND SWAP1 PUSH1 0x1 PUSH1 0xB8 SHL SWAP1 DIV PUSH1 0xFF AND DUP4 JUMP JUMPDEST PUSH1 0x40 DUP1 MLOAD PUSH1 0x1 PUSH1 0x1 PUSH1 0xA0 SHL SUB SWAP1 SWAP5 AND DUP5 MSTORE PUSH3 0xFFFFFF SWAP1 SWAP3 AND PUSH1 0x20 DUP5 ADD MSTORE ISZERO ISZERO SWAP1 DUP3 ADD MSTORE PUSH1 0x60 ADD PUSH2 0x269 JUMP JUMPDEST CALLVALUE DUP1 ISZERO PUSH2 0x5F9 JUMPI PUSH1 0x0 DUP1 REVERT JUMPDEST POP PUSH2 0x304 PUSH2 0x17F8 JUMP JUMPDEST CALLVALUE DUP1 ISZERO PUSH2 0x60E JUMPI PUSH1 0x0 DUP1 REVERT JUMPDEST POP PUSH1 0xA SLOAD PUSH1 0x1 PUSH1 0x1 PUSH1 0xA0 SHL SUB AND PUSH2 0x255 JUMP JUMPDEST CALLVALUE DUP1 ISZERO PUSH2 0x62C JUMPI PUSH1 0x0 DUP1 REVERT JUMPDEST POP PUSH2 0x304 PUSH2 0x63B CALLDATASIZE PUSH1 0x4 PUSH2 0x303A JUMP JUMPDEST PUSH2 0x1847 JUMP JUMPDEST CALLVALUE DUP1 ISZERO PUSH2 0x64C JUMPI PUSH1 0x0 DUP1 REVERT JUMPDEST POP PUSH2 0x2B7 PUSH2 0x18D9 JUMP JUMPDEST CALLVALUE DUP1 ISZERO PUSH2 0x661 JUMPI PUSH1 0x0 DUP1 REVERT JUMPDEST POP PUSH2 0x304 PUSH2 0x670 CALLDATASIZE PUSH1 0x4 PUSH2 0x3466 JUMP JUMPDEST PUSH2 0x18E8 JUMP JUMPDEST CALLVALUE DUP1 ISZERO PUSH2 0x681 JUMPI PUSH1 0x0 DUP1 REVERT JUMPDEST POP PUSH2 0x304 PUSH2 0x690 CALLDATASIZE PUSH1 0x4 PUSH2 0x349B JUMP JUMPDEST PUSH2 0x19B6 JUMP JUMPDEST CALLVALUE DUP1 ISZERO PUSH2 0x6A1 JUMPI PUSH1 0x0 DUP1 REVERT JUMPDEST POP PUSH1 0xB SLOAD PUSH2 0x255 SWAP1 PUSH1 0x1 PUSH1 0x1 PUSH1 0xA0 SHL SUB AND DUP2 JUMP JUMPDEST CALLVALUE DUP1 ISZERO PUSH2 0x6C1 JUMPI PUSH1 0x0 DUP1 REVERT JUMPDEST POP PUSH2 0x304 PUSH2 0x6D0 CALLDATASIZE PUSH1 0x4 PUSH2 0x34D4 JUMP JUMPDEST PUSH2 0x19C5 JUMP JUMPDEST CALLVALUE DUP1 ISZERO PUSH2 0x6E1 JUMPI PUSH1 0x0 DUP1 REVERT JUMPDEST POP PUSH2 0x2B7 PUSH2 0x6F0 CALLDATASIZE PUSH1 0x4 PUSH2 0x2FD0 JUMP JUMPDEST PUSH2 0x19F2 JUMP JUMPDEST CALLVALUE DUP1 ISZERO PUSH2 0x701 JUMPI PUSH1 0x0 DUP1 REVERT JUMPDEST POP PUSH2 0x292 PUSH2 0x710 CALLDATASIZE PUSH1 0x4 PUSH2 0x3554 JUMP JUMPDEST PUSH1 0x1 PUSH1 0x1 PUSH1 0xA0 SHL SUB SWAP2 DUP3 AND PUSH1 0x0 SWAP1 DUP2 MSTORE PUSH1 0x5 PUSH1 0x20 SWAP1 DUP2 MSTORE PUSH1 0x40 DUP1 DUP4 KECCAK256 SWAP4 SWAP1 SWAP5 AND DUP3 MSTORE SWAP2 SWAP1 SWAP2 MSTORE KECCAK256 SLOAD PUSH1 0xFF AND SWAP1 JUMP JUMPDEST CALLVALUE DUP1 ISZERO PUSH2 0x74A JUMPI PUSH1 0x0 DUP1 REVERT JUMPDEST POP PUSH2 0x304 PUSH2 0x759 CALLDATASIZE PUSH1 0x4 PUSH2 0x303A JUMP JUMPDEST PUSH2 0x1AA7 JUMP JUMPDEST CALLVALUE DUP1 ISZERO PUSH2 0x76A JUMPI PUSH1 0x0 DUP1 REVERT JUMPDEST POP PUSH2 0x304 PUSH2 0x779 CALLDATASIZE PUSH1 0x4 PUSH2 0x303A JUMP JUMPDEST PUSH2 0x1B1D JUMP JUMPDEST CALLVALUE DUP1 ISZERO PUSH2 0x78A JUMPI PUSH1 0x0 DUP1 REVERT JUMPDEST POP PUSH1 0xC SLOAD PUSH2 0x255 SWAP1 PUSH1 0x1 PUSH1 0x1 PUSH1 0xA0 SHL SUB AND DUP2 JUMP JUMPDEST PUSH1 0x0 PUSH1 0x1 PUSH1 0x1 PUSH1 0xE0 SHL SUB NOT DUP3 AND PUSH4 0x80AC58CD PUSH1 0xE0 SHL EQ DUP1 PUSH2 0x7CF JUMPI POP PUSH1 0x1 PUSH1 0x1 PUSH1 0xE0 SHL SUB NOT DUP3 AND PUSH4 0x5B5E139F PUSH1 0xE0 SHL EQ JUMPDEST DUP1 PUSH2 0x7EA JUMPI POP PUSH4 0x1FFC9A7 PUSH1 0xE0 SHL PUSH1 0x1 PUSH1 0x1 PUSH1 0xE0 SHL SUB NOT DUP4 AND EQ JUMPDEST SWAP3 SWAP2 POP POP JUMP JUMPDEST PUSH1 0x60 PUSH1 0xE DUP1 SLOAD PUSH2 0x7FF SWAP1 PUSH2 0x3582 JUMP JUMPDEST DUP1 PUSH1 0x1F ADD PUSH1 0x20 DUP1 SWAP2 DIV MUL PUSH1 0x20 ADD PUSH1 0x40 MLOAD SWAP1 DUP2 ADD PUSH1 0x40 MSTORE DUP1 SWAP3 SWAP2 SWAP1 DUP2 DUP2 MSTORE PUSH1 0x20 ADD DUP3 DUP1 SLOAD PUSH2 0x82B SWAP1 PUSH2 0x3582 JUMP JUMPDEST DUP1 ISZERO PUSH2 0x878 JUMPI DUP1 PUSH1 0x1F LT PUSH2 0x84D JUMPI PUSH2 0x100 DUP1 DUP4 SLOAD DIV MUL DUP4 MSTORE SWAP2 PUSH1 0x20 ADD SWAP2 PUSH2 0x878 JUMP JUMPDEST DUP3 ADD SWAP2 SWAP1 PUSH1 0x0 MSTORE PUSH1 0x20 PUSH1 0x0 KECCAK256 SWAP1 JUMPDEST DUP2 SLOAD DUP2 MSTORE SWAP1 PUSH1 0x1 ADD SWAP1 PUSH1 0x20 ADD DUP1 DUP4 GT PUSH2 0x85B JUMPI DUP3 SWAP1 SUB PUSH1 0x1F AND DUP3 ADD SWAP2 JUMPDEST POP POP POP POP POP SWAP1 POP SWAP1 JUMP JUMPDEST PUSH1 0x0 PUSH2 0x88D DUP3 PUSH2 0x1BAF JUMP JUMPDEST POP PUSH1 0x0 SWAP1 DUP2 MSTORE PUSH1 0x4 PUSH1 0x20 MSTORE PUSH1 0x40 SWAP1 KECCAK256 SLOAD PUSH1 0x1 PUSH1 0x1 PUSH1 0xA0 SHL SUB AND SWAP1 JUMP JUMPDEST PUSH1 0x0 PUSH2 0x8B4 DUP3 PUSH2 0x1C0E JUMP JUMPDEST SWAP1 POP DUP1 PUSH1 0x1 PUSH1 0x1 PUSH1 0xA0 SHL SUB AND DUP4 PUSH1 0x1 PUSH1 0x1 PUSH1 0xA0 SHL SUB AND EQ ISZERO PUSH2 0x927 JUMPI PUSH1 0x40 MLOAD PUSH3 0x461BCD PUSH1 0xE5 SHL DUP2 MSTORE PUSH1 0x20 PUSH1 0x4 DUP3 ADD MSTORE PUSH1 0x21 PUSH1 0x24 DUP3 ADD MSTORE PUSH32 0x4552433732313A20617070726F76616C20746F2063757272656E74206F776E65 PUSH1 0x44 DUP3 ADD MSTORE PUSH1 0x39 PUSH1 0xF9 SHL PUSH1 0x64 DUP3 ADD MSTORE PUSH1 0x84 ADD JUMPDEST PUSH1 0x40 MLOAD DUP1 SWAP2 SUB SWAP1 REVERT JUMPDEST CALLER PUSH1 0x1 PUSH1 0x1 PUSH1 0xA0 SHL SUB DUP3 AND EQ DUP1 PUSH2 0x943 JUMPI POP PUSH2 0x943 DUP2 CALLER PUSH2 0x710 JUMP JUMPDEST PUSH2 0x9B5 JUMPI PUSH1 0x40 MLOAD PUSH3 0x461BCD PUSH1 0xE5 SHL DUP2 MSTORE PUSH1 0x20 PUSH1 0x4 DUP3 ADD MSTORE PUSH1 0x3D PUSH1 0x24 DUP3 ADD MSTORE PUSH32 0x4552433732313A20617070726F76652063616C6C6572206973206E6F7420746F PUSH1 0x44 DUP3 ADD MSTORE PUSH32 0x6B656E206F776E6572206F7220617070726F76656420666F7220616C6C000000 PUSH1 0x64 DUP3 ADD MSTORE PUSH1 0x84 ADD PUSH2 0x91E JUMP JUMPDEST PUSH2 0x9BF DUP4 DUP4 PUSH2 0x1C6E JUMP JUMPDEST POP POP POP JUMP JUMPDEST PUSH1 0xD SLOAD PUSH1 0x40 MLOAD PUSH4 0x188687DD PUSH1 0xE2 SHL DUP2 MSTORE PUSH1 0x4 DUP2 ADD DUP4 SWAP1 MSTORE PUSH1 0x60 SWAP2 PUSH1 0x1 PUSH1 0x1 PUSH1 0xA0 SHL SUB AND SWAP1 PUSH1 0x0 SWAP1 ADDRESS SWAP1 PUSH4 0x621A1F74 SWAP1 PUSH1 0x24 ADD PUSH1 0x20 PUSH1 0x40 MLOAD DUP1 DUP4 SUB DUP2 DUP7 GAS STATICCALL ISZERO DUP1 ISZERO PUSH2 0xA13 JUMPI RETURNDATASIZE PUSH1 0x0 DUP1 RETURNDATACOPY RETURNDATASIZE PUSH1 0x0 REVERT JUMPDEST POP POP POP POP PUSH1 0x40 MLOAD RETURNDATASIZE PUSH1 0x1F NOT PUSH1 0x1F DUP3 ADD AND DUP3 ADD DUP1 PUSH1 0x40 MSTORE POP DUP2 ADD SWAP1 PUSH2 0xA37 SWAP2 SWAP1 PUSH2 0x35BD JUMP JUMPDEST PUSH1 0x12 SLOAD PUSH1 0x40 MLOAD PUSH4 0x94139301 PUSH1 0xE0 SHL DUP2 MSTORE PUSH1 0x4 DUP2 ADD SWAP2 SWAP1 SWAP2 MSTORE PUSH1 0x24 DUP2 ADD DUP7 SWAP1 MSTORE PUSH1 0x44 DUP2 ADD DUP3 SWAP1 MSTORE SWAP1 SWAP2 POP PUSH1 0x1 PUSH1 0x1 PUSH1 0xA0 SHL SUB DUP4 AND SWAP1 PUSH4 0x94139301 SWAP1 PUSH1 0x64 ADD JUMPDEST PUSH1 0x0 PUSH1 0x40 MLOAD DUP1 DUP4 SUB DUP2 DUP7 GAS STATICCALL ISZERO DUP1 ISZERO PUSH2 0xA92 JUMPI RETURNDATASIZE PUSH1 0x0 DUP1 RETURNDATACOPY RETURNDATASIZE PUSH1 0x0 REVERT JUMPDEST POP POP POP POP PUSH1 0x40 MLOAD RETURNDATASIZE PUSH1 0x0 DUP3 RETURNDATACOPY PUSH1 0x1F RETURNDATASIZE SWAP1 DUP2 ADD PUSH1 0x1F NOT AND DUP3 ADD PUSH1 0x40 MSTORE PUSH2 0xABA SWAP2 SWAP1 DUP2 ADD SWAP1 PUSH2 0x35D6 JUMP JUMPDEST SWAP5 SWAP4 POP POP POP POP JUMP JUMPDEST PUSH1 0x0 PUSH2 0xACC PUSH2 0x1CDC JUMP JUMPDEST PUSH1 0x13 DUP1 SLOAD PUSH1 0x1 PUSH1 0x30 SHL SWAP1 DIV PUSH3 0xFFFFFF AND SWAP1 PUSH1 0x6 PUSH2 0xAE8 DUP4 PUSH2 0x3663 JUMP JUMPDEST DUP3 SLOAD PUSH2 0x100 SWAP3 SWAP1 SWAP3 EXP PUSH3 0xFFFFFF DUP2 DUP2 MUL NOT SWAP1 SWAP4 AND SWAP2 DUP4 AND MUL OR SWAP1 SWAP2 SSTORE PUSH1 0x13 SLOAD PUSH4 0x1000000 DUP2 DIV DUP3 AND PUSH1 0x1 PUSH1 0x30 SHL SWAP1 SWAP2 DIV SWAP1 SWAP2 AND GT ISZERO SWAP1 POP PUSH2 0xB28 JUMPI PUSH1 0x0 DUP1 REVERT JUMPDEST PUSH1 0x13 SLOAD PUSH3 0xFFFFFF DUP1 DUP3 AND SWAP2 PUSH2 0xB4E SWAP2 PUSH1 0x1 PUSH1 0x48 SHL DUP3 DIV DUP2 AND SWAP2 PUSH1 0x1 PUSH1 0x30 SHL SWAP1 DIV AND PUSH2 0x3686 JUMP JUMPDEST PUSH3 0xFFFFFF AND EQ ISZERO PUSH2 0xBBF JUMPI PUSH1 0x11 SLOAD PUSH1 0x12 SLOAD PUSH1 0x40 MLOAD PUSH4 0x1122F8A9 PUSH1 0xE1 SHL DUP2 MSTORE PUSH1 0x4 DUP2 ADD SWAP2 SWAP1 SWAP2 MSTORE PUSH1 0x1 PUSH1 0x1 PUSH1 0xA0 SHL SUB SWAP1 SWAP2 AND SWAP1 DUP2 SWAP1 PUSH4 0x2245F152 SWAP1 PUSH1 0x24 ADD PUSH1 0x0 PUSH1 0x40 MLOAD DUP1 DUP4 SUB DUP2 PUSH1 0x0 DUP8 DUP1 EXTCODESIZE ISZERO DUP1 ISZERO PUSH2 0xBA5 JUMPI PUSH1 0x0 DUP1 REVERT JUMPDEST POP GAS CALL ISZERO DUP1 ISZERO PUSH2 0xBB9 JUMPI RETURNDATASIZE PUSH1 0x0 DUP1 RETURNDATACOPY RETURNDATASIZE PUSH1 0x0 REVERT JUMPDEST POP POP POP POP POP JUMPDEST PUSH1 0x13 SLOAD PUSH1 0x12 SLOAD PUSH1 0x1 PUSH1 0x30 SHL SWAP1 SWAP2 DIV PUSH3 0xFFFFFF AND SWAP1 PUSH2 0xBE1 SWAP1 PUSH3 0xF4240 SWAP1 PUSH2 0x36AD JUMP JUMPDEST PUSH2 0xBEB SWAP2 SWAP1 PUSH2 0x36CC JUMP JUMPDEST SWAP1 POP PUSH2 0xBF7 CALLER DUP3 PUSH2 0x1D36 JUMP JUMPDEST PUSH1 0xC SLOAD PUSH1 0x40 MLOAD PUSH4 0x1DA00D85 PUSH1 0xE0 SHL DUP2 MSTORE PUSH1 0x4 DUP2 ADD DUP4 SWAP1 MSTORE PUSH1 0x1 PUSH1 0x1 PUSH1 0xA0 SHL SUB SWAP1 SWAP2 AND SWAP1 PUSH1 0x0 SWAP1 DUP3 SWAP1 PUSH4 0x1DA00D85 SWAP1 PUSH1 0x24 ADD PUSH1 0x20 PUSH1 0x40 MLOAD DUP1 DUP4 SUB DUP2 PUSH1 0x0 DUP8 GAS CALL ISZERO DUP1 ISZERO PUSH2 0xC47 JUMPI RETURNDATASIZE PUSH1 0x0 DUP1 RETURNDATACOPY RETURNDATASIZE PUSH1 0x0 REVERT JUMPDEST POP POP POP POP PUSH1 0x40 MLOAD RETURNDATASIZE PUSH1 0x1F NOT PUSH1 0x1F DUP3 ADD AND DUP3 ADD DUP1 PUSH1 0x40 MSTORE POP DUP2 ADD SWAP1 PUSH2 0xC6B SWAP2 SWAP1 PUSH2 0x35BD JUMP JUMPDEST SWAP1 POP PUSH2 0xC77 DUP4 DUP3 PUSH2 0x1D50 JUMP JUMPDEST PUSH2 0xC7F PUSH2 0x1E19 JUMP JUMPDEST PUSH1 0x40 DUP1 MLOAD CALLER DUP2 MSTORE PUSH1 0x20 DUP2 ADD DUP6 SWAP1 MSTORE PUSH32 0xF6798A560793A54C3BCFE86A93CDE1E73087D944C0EA20544137D4121396885 SWAP2 ADD PUSH1 0x40 MLOAD DUP1 SWAP2 SUB SWAP1 LOG1 POP POP PUSH2 0xCC4 PUSH1 0x1 PUSH1 0x7 SSTORE JUMP JUMPDEST SWAP1 JUMP JUMPDEST PUSH1 0xA SLOAD PUSH1 0x1 PUSH1 0x1 PUSH1 0xA0 SHL SUB AND CALLER EQ DUP1 ISZERO PUSH2 0xCE9 JUMPI POP PUSH1 0x1 PUSH1 0x1 PUSH1 0xA0 SHL SUB DUP2 AND ISZERO ISZERO JUMPDEST PUSH1 0x40 MLOAD DUP1 PUSH1 0x40 ADD PUSH1 0x40 MSTORE DUP1 PUSH1 0x3 DUP2 MSTORE PUSH1 0x20 ADD PUSH3 0x313031 PUSH1 0xE8 SHL DUP2 MSTORE POP SWAP1 PUSH2 0xD23 JUMPI PUSH1 0x40 MLOAD PUSH3 0x461BCD PUSH1 0xE5 SHL DUP2 MSTORE PUSH1 0x4 ADD PUSH2 0x91E SWAP2 SWAP1 PUSH2 0x2FBD JUMP JUMPDEST POP PUSH1 0xC SLOAD PUSH1 0x1 PUSH1 0x1 PUSH1 0xA0 SHL SUB DUP3 DUP2 AND SWAP2 AND EQ PUSH2 0xD55 JUMPI PUSH1 0xC DUP1 SLOAD PUSH1 0x1 PUSH1 0x1 PUSH1 0xA0 SHL SUB NOT AND PUSH1 0x1 PUSH1 0x1 PUSH1 0xA0 SHL SUB DUP4 AND OR SWAP1 SSTORE JUMPDEST POP JUMP JUMPDEST PUSH1 0xA SLOAD PUSH1 0x40 DUP1 MLOAD DUP1 DUP3 ADD SWAP1 SWAP2 MSTORE PUSH1 0x3 DUP2 MSTORE PUSH3 0x191819 PUSH1 0xE9 SHL PUSH1 0x20 DUP3 ADD MSTORE SWAP1 PUSH1 0x1 PUSH1 0x1 PUSH1 0xA0 SHL SUB AND ISZERO PUSH2 0xD9D JUMPI PUSH1 0x40 MLOAD PUSH3 0x461BCD PUSH1 0xE5 SHL DUP2 MSTORE PUSH1 0x4 ADD PUSH2 0x91E SWAP2 SWAP1 PUSH2 0x2FBD JUMP JUMPDEST POP PUSH1 0x40 DUP1 MLOAD DUP1 DUP3 ADD SWAP1 SWAP2 MSTORE PUSH1 0x3 DUP2 MSTORE PUSH3 0x31303 PUSH1 0xEC SHL PUSH1 0x20 DUP3 ADD MSTORE PUSH1 0x1 PUSH1 0x1 PUSH1 0xA0 SHL SUB DUP7 AND PUSH2 0xDDF JUMPI PUSH1 0x40 MLOAD PUSH3 0x461BCD PUSH1 0xE5 SHL DUP2 MSTORE PUSH1 0x4 ADD PUSH2 0x91E SWAP2 SWAP1 PUSH2 0x2FBD JUMP JUMPDEST POP DUP6 MLOAD PUSH1 0x11 DUP1 SLOAD PUSH1 0x1 PUSH1 0x1 PUSH1 0xA0 SHL SUB SWAP1 SWAP3 AND PUSH1 0x1 PUSH1 0x1 PUSH1 0xA0 SHL SUB NOT SWAP1 SWAP3 AND SWAP2 SWAP1 SWAP2 OR DUP2 SSTORE PUSH1 0x20 DUP1 DUP9 ADD MLOAD PUSH1 0x12 SSTORE PUSH1 0x40 DUP9 ADD MLOAD PUSH1 0x13 DUP1 SLOAD PUSH1 0x60 DUP12 ADD MLOAD PUSH1 0x80 DUP13 ADD MLOAD PUSH1 0xA0 DUP14 ADD MLOAD PUSH3 0xFFFFFF SWAP1 DUP2 AND PUSH1 0x1 PUSH1 0x48 SHL MUL PUSH12 0xFFFFFF000000000000000000 NOT SWAP3 DUP3 AND PUSH1 0x1 PUSH1 0x30 SHL MUL SWAP3 SWAP1 SWAP3 AND PUSH12 0xFFFFFFFFFFFF000000000000 NOT SWAP4 DUP3 AND PUSH4 0x1000000 MUL PUSH6 0xFFFFFFFFFFFF NOT SWAP1 SWAP6 AND SWAP2 SWAP1 SWAP7 AND OR SWAP3 SWAP1 SWAP3 OR AND SWAP3 SWAP1 SWAP3 OR SWAP2 SWAP1 SWAP2 OR SWAP1 SSTORE PUSH1 0xC0 DUP9 ADD MLOAD DUP1 MLOAD DUP10 SWAP4 SWAP3 PUSH2 0xE9B SWAP3 PUSH1 0x14 SWAP3 SWAP2 ADD SWAP1 PUSH2 0x2E92 JUMP JUMPDEST POP PUSH1 0xE0 DUP3 ADD MLOAD PUSH1 0x4 DUP3 ADD DUP1 SLOAD PUSH1 0x1 PUSH1 0x1 PUSH1 0xA0 SHL SUB SWAP3 DUP4 AND PUSH1 0x1 PUSH1 0x1 PUSH1 0xA0 SHL SUB NOT SWAP2 DUP3 AND OR SWAP1 SWAP2 SSTORE PUSH2 0x100 DUP5 ADD MLOAD PUSH1 0x5 DUP5 ADD SSTORE PUSH2 0x120 DUP5 ADD MLOAD PUSH1 0x6 DUP5 ADD DUP1 SLOAD SWAP2 SWAP1 SWAP4 AND SWAP2 AND OR SWAP1 SSTORE PUSH2 0x140 DUP3 ADD MLOAD DUP1 MLOAD PUSH2 0xEFE SWAP2 PUSH1 0x7 DUP5 ADD SWAP2 PUSH1 0x20 SWAP1 SWAP2 ADD SWAP1 PUSH2 0x2E92 JUMP JUMPDEST POP POP PUSH1 0xB DUP1 SLOAD PUSH1 0x1 PUSH1 0x1 PUSH1 0xA0 SHL SUB DUP1 DUP9 AND PUSH1 0x1 PUSH1 0x1 PUSH1 0xA0 SHL SUB NOT SWAP3 DUP4 AND OR SWAP1 SWAP3 SSTORE PUSH1 0xA DUP1 SLOAD DUP10 DUP5 AND SWAP1 DUP4 AND OR SWAP1 SSTORE PUSH1 0xC DUP1 SLOAD DUP8 DUP5 AND SWAP1 DUP4 AND OR SWAP1 SSTORE PUSH1 0xD DUP1 SLOAD SWAP3 DUP7 AND SWAP3 SWAP1 SWAP2 AND SWAP2 SWAP1 SWAP2 OR SWAP1 SSTORE POP PUSH2 0x140 DUP7 ADD MLOAD DUP1 MLOAD PUSH2 0xF65 SWAP2 PUSH1 0xE SWAP2 PUSH1 0x20 SWAP1 SWAP2 ADD SWAP1 PUSH2 0x2E92 JUMP JUMPDEST POP PUSH2 0xFFD PUSH1 0x1 PUSH1 0x3 PUSH1 0xE DUP1 SLOAD PUSH2 0xF7A SWAP1 PUSH2 0x3582 JUMP JUMPDEST DUP1 PUSH1 0x1F ADD PUSH1 0x20 DUP1 SWAP2 DIV MUL PUSH1 0x20 ADD PUSH1 0x40 MLOAD SWAP1 DUP2 ADD PUSH1 0x40 MSTORE DUP1 SWAP3 SWAP2 SWAP1 DUP2 DUP2 MSTORE PUSH1 0x20 ADD DUP3 DUP1 SLOAD PUSH2 0xFA6 SWAP1 PUSH2 0x3582 JUMP JUMPDEST DUP1 ISZERO PUSH2 0xFF3 JUMPI DUP1 PUSH1 0x1F LT PUSH2 0xFC8 JUMPI PUSH2 0x100 DUP1 DUP4 SLOAD DIV MUL DUP4 MSTORE SWAP2 PUSH1 0x20 ADD SWAP2 PUSH2 0xFF3 JUMP JUMPDEST DUP3 ADD SWAP2 SWAP1 PUSH1 0x0 MSTORE PUSH1 0x20 PUSH1 0x0 KECCAK256 SWAP1 JUMPDEST DUP2 SLOAD DUP2 MSTORE SWAP1 PUSH1 0x1 ADD SWAP1 PUSH1 0x20 ADD DUP1 DUP4 GT PUSH2 0xFD6 JUMPI DUP3 SWAP1 SUB PUSH1 0x1F AND DUP3 ADD SWAP2 JUMPDEST POP POP POP POP POP PUSH2 0x228A JUMP JUMPDEST DUP1 MLOAD PUSH2 0x1011 SWAP2 PUSH1 0xF SWAP2 PUSH1 0x20 SWAP1 SWAP2 ADD SWAP1 PUSH2 0x2E92 JUMP JUMPDEST POP PUSH1 0x0 JUMPDEST DUP2 MLOAD DUP2 LT ISZERO PUSH2 0x107A JUMPI PUSH1 0x0 PUSH1 0x19 PUSH1 0x0 DUP5 DUP5 DUP2 MLOAD DUP2 LT PUSH2 0x1036 JUMPI PUSH2 0x1036 PUSH2 0x36E4 JUMP JUMPDEST PUSH1 0x20 SWAP1 DUP2 MUL SWAP2 SWAP1 SWAP2 ADD DUP2 ADD MLOAD PUSH1 0x1 PUSH1 0x1 PUSH1 0xA0 SHL SUB AND DUP3 MSTORE DUP2 ADD SWAP2 SWAP1 SWAP2 MSTORE PUSH1 0x40 ADD PUSH1 0x0 KECCAK256 DUP1 SLOAD PUSH1 0xFF NOT AND SWAP2 ISZERO ISZERO SWAP2 SWAP1 SWAP2 OR SWAP1 SSTORE DUP1 PUSH2 0x1072 DUP2 PUSH2 0x36FA JUMP JUMPDEST SWAP2 POP POP PUSH2 0x1015 JUMP JUMPDEST POP PUSH1 0xA SLOAD PUSH2 0x1090 SWAP1 PUSH1 0x1 PUSH1 0x1 PUSH1 0xA0 SHL SUB AND PUSH2 0x1AA7 JUMP JUMPDEST POP POP POP POP POP POP JUMP JUMPDEST PUSH1 0x0 PUSH2 0x10A2 PUSH2 0x1CDC JUMP JUMPDEST PUSH1 0x13 DUP1 SLOAD PUSH1 0x1 PUSH1 0x48 SHL SWAP1 DIV PUSH3 0xFFFFFF AND SWAP1 PUSH1 0x9 PUSH2 0x10BE DUP4 PUSH2 0x3663 JUMP JUMPDEST DUP3 SLOAD PUSH2 0x100 SWAP3 SWAP1 SWAP3 EXP PUSH3 0xFFFFFF DUP2 DUP2 MUL NOT SWAP1 SWAP4 AND SWAP2 DUP4 AND MUL OR SWAP1 SWAP2 SSTORE PUSH1 0x13 SLOAD DUP1 DUP3 AND SWAP3 POP PUSH2 0x10FD SWAP2 PUSH4 0x1000000 DUP3 DIV DUP2 AND SWAP2 PUSH1 0x1 PUSH1 0x48 SHL SWAP1 DIV AND PUSH2 0x3686 JUMP JUMPDEST PUSH3 0xFFFFFF AND GT ISZERO PUSH2 0x110D JUMPI PUSH1 0x0 DUP1 REVERT JUMPDEST PUSH1 0x13 SLOAD PUSH3 0xFFFFFF DUP1 DUP3 AND SWAP2 PUSH2 0x1133 SWAP2 PUSH1 0x1 PUSH1 0x48 SHL DUP3 DIV DUP2 AND SWAP2 PUSH1 0x1 PUSH1 0x30 SHL SWAP1 DIV AND PUSH2 0x3686 JUMP JUMPDEST PUSH3 0xFFFFFF AND EQ ISZERO PUSH2 0x11A4 JUMPI PUSH1 0x11 SLOAD PUSH1 0x12 SLOAD PUSH1 0x40 MLOAD PUSH4 0x1122F8A9 PUSH1 0xE1 SHL DUP2 MSTORE PUSH1 0x4 DUP2 ADD SWAP2 SWAP1 SWAP2 MSTORE PUSH1 0x1 PUSH1 0x1 PUSH1 0xA0 SHL SUB SWAP1 SWAP2 AND SWAP1 DUP2 SWAP1 PUSH4 0x2245F152 SWAP1 PUSH1 0x24 ADD PUSH1 0x0 PUSH1 0x40 MLOAD DUP1 DUP4 SUB DUP2 PUSH1 0x0 DUP8 DUP1 EXTCODESIZE ISZERO DUP1 ISZERO PUSH2 0x118A JUMPI PUSH1 0x0 DUP1 REVERT JUMPDEST POP GAS CALL ISZERO DUP1 ISZERO PUSH2 0x119E JUMPI RETURNDATASIZE PUSH1 0x0 DUP1 RETURNDATACOPY RETURNDATASIZE PUSH1 0x0 REVERT JUMPDEST POP POP POP POP POP JUMPDEST PUSH1 0x11 SLOAD CALLER PUSH1 0x0 SWAP1 DUP2 MSTORE PUSH1 0x19 PUSH1 0x20 MSTORE PUSH1 0x40 SWAP1 KECCAK256 SLOAD PUSH1 0x1 PUSH1 0x1 PUSH1 0xA0 SHL SUB SWAP1 SWAP2 AND SWAP1 PUSH1 0xFF AND ISZERO DUP1 PUSH2 0x124F JUMPI POP PUSH1 0x12 SLOAD PUSH1 0x40 MLOAD PUSH4 0x31A9108F PUSH1 0xE1 SHL DUP2 MSTORE PUSH1 0x4 DUP2 ADD SWAP2 SWAP1 SWAP2 MSTORE PUSH1 0x1 PUSH1 0x1 PUSH1 0xA0 SHL SUB DUP3 AND SWAP1 PUSH4 0x6352211E SWAP1 PUSH1 0x24 ADD PUSH1 0x20 PUSH1 0x40 MLOAD DUP1 DUP4 SUB DUP2 DUP7 GAS STATICCALL ISZERO DUP1 ISZERO PUSH2 0x1216 JUMPI RETURNDATASIZE PUSH1 0x0 DUP1 RETURNDATACOPY RETURNDATASIZE PUSH1 0x0 REVERT JUMPDEST POP POP POP POP PUSH1 0x40 MLOAD RETURNDATASIZE PUSH1 0x1F NOT PUSH1 0x1F DUP3 ADD AND DUP3 ADD DUP1 PUSH1 0x40 MSTORE POP DUP2 ADD SWAP1 PUSH2 0x123A SWAP2 SWAP1 PUSH2 0x3715 JUMP JUMPDEST PUSH1 0x1 PUSH1 0x1 PUSH1 0xA0 SHL SUB AND CALLER PUSH1 0x1 PUSH1 0x1 PUSH1 0xA0 SHL SUB AND EQ JUMPDEST PUSH2 0x1258 JUMPI PUSH1 0x0 DUP1 REVERT JUMPDEST PUSH1 0x13 SLOAD PUSH2 0x127A SWAP1 PUSH3 0xFFFFFF PUSH4 0x1000000 DUP3 DIV DUP2 AND SWAP2 PUSH1 0x1 PUSH1 0x48 SHL SWAP1 DIV AND PUSH2 0x3686 JUMP JUMPDEST PUSH3 0xFFFFFF AND PUSH3 0xF4240 PUSH1 0x11 PUSH1 0x1 ADD SLOAD PUSH2 0x1293 SWAP2 SWAP1 PUSH2 0x36AD JUMP JUMPDEST PUSH2 0x129D SWAP2 SWAP1 PUSH2 0x36CC JUMP JUMPDEST SWAP2 POP PUSH2 0x12A9 CALLER DUP4 PUSH2 0x1D36 JUMP JUMPDEST PUSH1 0xC SLOAD PUSH1 0x40 MLOAD PUSH4 0x1DA00D85 PUSH1 0xE0 SHL DUP2 MSTORE PUSH1 0x4 DUP2 ADD DUP5 SWAP1 MSTORE PUSH1 0x1 PUSH1 0x1 PUSH1 0xA0 SHL SUB SWAP1 SWAP2 AND SWAP1 PUSH1 0x0 SWAP1 DUP3 SWAP1 PUSH4 0x1DA00D85 SWAP1 PUSH1 0x24 ADD PUSH1 0x20 PUSH1 0x40 MLOAD DUP1 DUP4 SUB DUP2 PUSH1 0x0 DUP8 GAS CALL ISZERO DUP1 ISZERO PUSH2 0x12F9 JUMPI RETURNDATASIZE PUSH1 0x0 DUP1 RETURNDATACOPY RETURNDATASIZE PUSH1 0x0 REVERT JUMPDEST POP POP POP POP PUSH1 0x40 MLOAD RETURNDATASIZE PUSH1 0x1F NOT PUSH1 0x1F DUP3 ADD AND DUP3 ADD DUP1 PUSH1 0x40 MSTORE POP DUP2 ADD SWAP1 PUSH2 0x131D SWAP2 SWAP1 PUSH2 0x35BD JUMP JUMPDEST SWAP1 POP PUSH2 0x1329 DUP5 DUP3 PUSH2 0x1D50 JUMP JUMPDEST PUSH1 0x40 DUP1 MLOAD CALLER DUP2 MSTORE PUSH1 0x20 DUP2 ADD DUP7 SWAP1 MSTORE PUSH32 0xF6798A560793A54C3BCFE86A93CDE1E73087D944C0EA20544137D4121396885 SWAP2 ADD PUSH1 0x40 MLOAD DUP1 SWAP2 SUB SWAP1 LOG1 POP POP POP PUSH2 0xCC4 PUSH1 0x1 PUSH1 0x7 SSTORE JUMP JUMPDEST DUP3 PUSH1 0x1 PUSH1 0x1 PUSH1 0xA0 SHL SUB DUP2 AND CALLER EQ PUSH2 0x1389 JUMPI PUSH2 0x1389 CALLER PUSH2 0x2371 JUMP JUMPDEST PUSH2 0x1394 DUP5 DUP5 DUP5 PUSH2 0x242A JUMP JUMPDEST POP POP POP POP JUMP JUMPDEST PUSH1 0x0 DUP1 PUSH2 0x13A7 DUP5 DUP5 PUSH2 0x245B JUMP JUMPDEST SWAP2 POP SWAP2 POP SWAP3 POP SWAP3 SWAP1 POP JUMP JUMPDEST PUSH1 0xF DUP1 SLOAD PUSH2 0x13BF SWAP1 PUSH2 0x3582 JUMP JUMPDEST DUP1 PUSH1 0x1F ADD PUSH1 0x20 DUP1 SWAP2 DIV MUL PUSH1 0x20 ADD PUSH1 0x40 MLOAD SWAP1 DUP2 ADD PUSH1 0x40 MSTORE DUP1 SWAP3 SWAP2 SWAP1 DUP2 DUP2 MSTORE PUSH1 0x20 ADD DUP3 DUP1 SLOAD PUSH2 0x13EB SWAP1 PUSH2 0x3582 JUMP JUMPDEST DUP1 ISZERO PUSH2 0x1438 JUMPI DUP1 PUSH1 0x1F LT PUSH2 0x140D JUMPI PUSH2 0x100 DUP1 DUP4 SLOAD DIV MUL DUP4 MSTORE SWAP2 PUSH1 0x20 ADD SWAP2 PUSH2 0x1438 JUMP JUMPDEST DUP3 ADD SWAP2 SWAP1 PUSH1 0x0 MSTORE PUSH1 0x20 PUSH1 0x0 KECCAK256 SWAP1 JUMPDEST DUP2 SLOAD DUP2 MSTORE SWAP1 PUSH1 0x1 ADD SWAP1 PUSH1 0x20 ADD DUP1 DUP4 GT PUSH2 0x141B JUMPI DUP3 SWAP1 SUB PUSH1 0x1F AND DUP3 ADD SWAP2 JUMPDEST POP POP POP POP POP DUP2 JUMP JUMPDEST PUSH1 0xA SLOAD PUSH1 0x40 DUP1 MLOAD DUP1 DUP3 ADD SWAP1 SWAP2 MSTORE PUSH1 0x3 DUP2 MSTORE PUSH3 0x313031 PUSH1 0xE8 SHL PUSH1 0x20 DUP3 ADD MSTORE SWAP1 PUSH1 0x1 PUSH1 0x1 PUSH1 0xA0 SHL SUB AND CALLER EQ PUSH2 0x1486 JUMPI PUSH1 0x40 MLOAD PUSH3 0x461BCD PUSH1 0xE5 SHL DUP2 MSTORE PUSH1 0x4 ADD PUSH2 0x91E SWAP2 SWAP1 PUSH2 0x2FBD JUMP JUMPDEST POP PUSH2 0x148F PUSH2 0x24F7 JUMP JUMPDEST JUMP JUMPDEST DUP3 PUSH1 0x1 PUSH1 0x1 PUSH1 0xA0 SHL SUB DUP2 AND CALLER EQ PUSH2 0x14AB JUMPI PUSH2 0x14AB CALLER PUSH2 0x2371 JUMP JUMPDEST PUSH2 0x1394 DUP5 DUP5 DUP5 PUSH2 0x2549 JUMP JUMPDEST PUSH1 0xE DUP1 SLOAD PUSH2 0x13BF SWAP1 PUSH2 0x3582 JUMP JUMPDEST PUSH1 0xA SLOAD PUSH1 0x1 PUSH1 0x1 PUSH1 0xA0 SHL SUB AND CALLER EQ DUP1 ISZERO PUSH2 0x14E5 JUMPI POP PUSH1 0x1 PUSH1 0x1 PUSH1 0xA0 SHL SUB DUP2 AND ISZERO ISZERO JUMPDEST PUSH1 0x40 MLOAD DUP1 PUSH1 0x40 ADD PUSH1 0x40 MSTORE DUP1 PUSH1 0x3 DUP2 MSTORE PUSH1 0x20 ADD PUSH3 0x313031 PUSH1 0xE8 SHL DUP2 MSTORE POP SWAP1 PUSH2 0x151F JUMPI PUSH1 0x40 MLOAD PUSH3 0x461BCD PUSH1 0xE5 SHL DUP2 MSTORE PUSH1 0x4 ADD PUSH2 0x91E SWAP2 SWAP1 PUSH2 0x2FBD JUMP JUMPDEST POP PUSH1 0xD SLOAD PUSH1 0x1 PUSH1 0x1 PUSH1 0xA0 SHL SUB DUP3 DUP2 AND SWAP2 AND EQ PUSH2 0xD55 JUMPI PUSH1 0xD DUP1 SLOAD PUSH1 0x1 PUSH1 0x1 PUSH1 0xA0 SHL SUB DUP4 AND PUSH1 0x1 PUSH1 0x1 PUSH1 0xA0 SHL SUB NOT SWAP1 SWAP2 AND OR SWAP1 SSTORE POP JUMP JUMPDEST PUSH1 0x0 DUP2 DUP2 MSTORE PUSH1 0x9 PUSH1 0x20 MSTORE PUSH1 0x40 DUP2 KECCAK256 SLOAD PUSH1 0x1 PUSH1 0xA0 SHL SWAP1 DIV PUSH1 0xA0 SHL PUSH1 0x1 PUSH1 0x1 PUSH1 0xA0 SHL SUB NOT AND PUSH2 0x1584 JUMPI POP PUSH1 0x0 SWAP2 SWAP1 POP JUMP JUMPDEST PUSH1 0x0 DUP3 DUP2 MSTORE PUSH1 0x9 PUSH1 0x20 SWAP1 DUP2 MSTORE PUSH1 0x40 SWAP2 DUP3 SWAP1 KECCAK256 SLOAD SWAP2 MLOAD PUSH2 0x15BE SWAP3 PUSH1 0x1 PUSH1 0xA0 SHL SWAP1 DIV PUSH1 0xA0 SHL SWAP2 ADD PUSH1 0x1 PUSH1 0x1 PUSH1 0xA0 SHL SUB NOT SWAP2 SWAP1 SWAP2 AND DUP2 MSTORE PUSH1 0x20 ADD SWAP1 JUMP JUMPDEST PUSH1 0x40 MLOAD PUSH1 0x20 DUP2 DUP4 SUB SUB DUP2 MSTORE SWAP1 PUSH1 0x40 MSTORE DUP1 MLOAD SWAP1 PUSH1 0x20 ADD KECCAK256 SWAP1 POP SWAP2 SWAP1 POP JUMP JUMPDEST PUSH1 0x0 PUSH1 0x1 PUSH1 0x1 PUSH1 0xA0 SHL SUB DUP3 AND PUSH2 0x1645 JUMPI PUSH1 0x40 MLOAD PUSH3 0x461BCD PUSH1 0xE5 SHL DUP2 MSTORE PUSH1 0x20 PUSH1 0x4 DUP3 ADD MSTORE PUSH1 0x29 PUSH1 0x24 DUP3 ADD MSTORE PUSH32 0x4552433732313A2061646472657373207A65726F206973206E6F742061207661 PUSH1 0x44 DUP3 ADD MSTORE PUSH9 0x3634B21037BBB732B9 PUSH1 0xB9 SHL PUSH1 0x64 DUP3 ADD MSTORE PUSH1 0x84 ADD PUSH2 0x91E JUMP JUMPDEST POP PUSH1 0x1 PUSH1 0x1 PUSH1 0xA0 SHL SUB AND PUSH1 0x0 SWAP1 DUP2 MSTORE PUSH1 0x3 PUSH1 0x20 MSTORE PUSH1 0x40 SWAP1 KECCAK256 SLOAD SWAP1 JUMP JUMPDEST PUSH2 0x1669 PUSH2 0x2564 JUMP JUMPDEST PUSH2 0x148F PUSH1 0x0 PUSH2 0x25E2 JUMP JUMPDEST PUSH1 0x11 DUP1 SLOAD PUSH1 0x12 SLOAD PUSH1 0x13 SLOAD PUSH1 0x14 DUP1 SLOAD PUSH1 0x1 PUSH1 0x1 PUSH1 0xA0 SHL SUB SWAP1 SWAP5 AND SWAP5 SWAP3 SWAP4 PUSH3 0xFFFFFF DUP1 DUP5 AND SWAP5 PUSH4 0x1000000 DUP6 DIV DUP3 AND SWAP5 PUSH1 0x1 PUSH1 0x30 SHL DUP2 DIV DUP4 AND SWAP5 PUSH1 0x1 PUSH1 0x48 SHL SWAP1 SWAP2 DIV SWAP1 SWAP3 AND SWAP3 SWAP1 SWAP2 SWAP1 PUSH2 0x16C3 SWAP1 PUSH2 0x3582 JUMP JUMPDEST DUP1 PUSH1 0x1F ADD PUSH1 0x20 DUP1 SWAP2 DIV MUL PUSH1 0x20 ADD PUSH1 0x40 MLOAD SWAP1 DUP2 ADD PUSH1 0x40 MSTORE DUP1 SWAP3 SWAP2 SWAP1 DUP2 DUP2 MSTORE PUSH1 0x20 ADD DUP3 DUP1 SLOAD PUSH2 0x16EF SWAP1 PUSH2 0x3582 JUMP JUMPDEST DUP1 ISZERO PUSH2 0x173C JUMPI DUP1 PUSH1 0x1F LT PUSH2 0x1711 JUMPI PUSH2 0x100 DUP1 DUP4 SLOAD DIV MUL DUP4 MSTORE SWAP2 PUSH1 0x20 ADD SWAP2 PUSH2 0x173C JUMP JUMPDEST DUP3 ADD SWAP2 SWAP1 PUSH1 0x0 MSTORE PUSH1 0x20 PUSH1 0x0 KECCAK256 SWAP1 JUMPDEST DUP2 SLOAD DUP2 MSTORE SWAP1 PUSH1 0x1 ADD SWAP1 PUSH1 0x20 ADD DUP1 DUP4 GT PUSH2 0x171F JUMPI DUP3 SWAP1 SUB PUSH1 0x1F AND DUP3 ADD SWAP2 JUMPDEST POP POP POP POP PUSH1 0x4 DUP4 ADD SLOAD PUSH1 0x5 DUP5 ADD SLOAD PUSH1 0x6 DUP6 ADD SLOAD PUSH1 0x7 DUP7 ADD DUP1 SLOAD SWAP6 SWAP7 PUSH1 0x1 PUSH1 0x1 PUSH1 0xA0 SHL SUB SWAP5 DUP6 AND SWAP7 SWAP4 SWAP6 POP SWAP4 SWAP1 SWAP2 AND SWAP3 SWAP2 PUSH2 0x1775 SWAP1 PUSH2 0x3582 JUMP JUMPDEST DUP1 PUSH1 0x1F ADD PUSH1 0x20 DUP1 SWAP2 DIV MUL PUSH1 0x20 ADD PUSH1 0x40 MLOAD SWAP1 DUP2 ADD PUSH1 0x40 MSTORE DUP1 SWAP3 SWAP2 SWAP1 DUP2 DUP2 MSTORE PUSH1 0x20 ADD DUP3 DUP1 SLOAD PUSH2 0x17A1 SWAP1 PUSH2 0x3582 JUMP JUMPDEST DUP1 ISZERO PUSH2 0x17EE JUMPI DUP1 PUSH1 0x1F LT PUSH2 0x17C3 JUMPI PUSH2 0x100 DUP1 DUP4 SLOAD DIV MUL DUP4 MSTORE SWAP2 PUSH1 0x20 ADD SWAP2 PUSH2 0x17EE JUMP JUMPDEST DUP3 ADD SWAP2 SWAP1 PUSH1 0x0 MSTORE PUSH1 0x20 PUSH1 0x0 KECCAK256 SWAP1 JUMPDEST DUP2 SLOAD DUP2 MSTORE SWAP1 PUSH1 0x1 ADD SWAP1 PUSH1 0x20 ADD DUP1 DUP4 GT PUSH2 0x17D1 JUMPI DUP3 SWAP1 SUB PUSH1 0x1F AND DUP3 ADD SWAP2 JUMPDEST POP POP POP POP POP SWAP1 POP DUP12 JUMP JUMPDEST PUSH1 0xA SLOAD PUSH1 0x40 DUP1 MLOAD DUP1 DUP3 ADD SWAP1 SWAP2 MSTORE PUSH1 0x3 DUP2 MSTORE PUSH3 0x313031 PUSH1 0xE8 SHL PUSH1 0x20 DUP3 ADD MSTORE SWAP1 PUSH1 0x1 PUSH1 0x1 PUSH1 0xA0 SHL SUB AND CALLER EQ PUSH2 0x183E JUMPI PUSH1 0x40 MLOAD PUSH3 0x461BCD PUSH1 0xE5 SHL DUP2 MSTORE PUSH1 0x4 ADD PUSH2 0x91E SWAP2 SWAP1 PUSH2 0x2FBD JUMP JUMPDEST POP PUSH2 0x148F PUSH2 0x2634 JUMP JUMPDEST PUSH1 0xA SLOAD PUSH1 0x1 PUSH1 0x1 PUSH1 0xA0 SHL SUB AND CALLER EQ DUP1 ISZERO PUSH2 0x1869 JUMPI POP PUSH1 0x1 PUSH1 0x1 PUSH1 0xA0 SHL SUB DUP2 AND ISZERO ISZERO JUMPDEST PUSH1 0x40 MLOAD DUP1 PUSH1 0x40 ADD PUSH1 0x40 MSTORE DUP1 PUSH1 0x3 DUP2 MSTORE PUSH1 0x20 ADD PUSH3 0x313031 PUSH1 0xE8 SHL DUP2 MSTORE POP SWAP1 PUSH2 0x18A3 JUMPI PUSH1 0x40 MLOAD PUSH3 0x461BCD PUSH1 0xE5 SHL DUP2 MSTORE PUSH1 0x4 ADD PUSH2 0x91E SWAP2 SWAP1 PUSH2 0x2FBD JUMP JUMPDEST POP PUSH1 0xA SLOAD PUSH1 0x1 PUSH1 0x1 PUSH1 0xA0 SHL SUB DUP3 DUP2 AND SWAP2 AND EQ PUSH2 0xD55 JUMPI PUSH1 0xA DUP1 SLOAD PUSH1 0x1 PUSH1 0x1 PUSH1 0xA0 SHL SUB DUP4 AND PUSH1 0x1 PUSH1 0x1 PUSH1 0xA0 SHL SUB NOT SWAP1 SWAP2 AND OR SWAP1 SSTORE POP JUMP JUMPDEST PUSH1 0x60 PUSH1 0xF DUP1 SLOAD PUSH2 0x7FF SWAP1 PUSH2 0x3582 JUMP JUMPDEST PUSH1 0xA SLOAD PUSH1 0x1 PUSH1 0x1 PUSH1 0xA0 SHL SUB AND CALLER EQ PUSH2 0x18FF JUMPI PUSH1 0x0 DUP1 REVERT JUMPDEST PUSH1 0x40 DUP1 MLOAD DUP1 DUP3 ADD SWAP1 SWAP2 MSTORE PUSH1 0x3 DUP2 MSTORE PUSH3 0x323039 PUSH1 0xE8 SHL PUSH1 0x20 DUP3 ADD MSTORE PUSH2 0x2710 DUP3 GT ISZERO PUSH2 0x193C JUMPI PUSH1 0x40 MLOAD PUSH3 0x461BCD PUSH1 0xE5 SHL DUP2 MSTORE PUSH1 0x4 ADD PUSH2 0x91E SWAP2 SWAP1 PUSH2 0x2FBD JUMP JUMPDEST POP PUSH1 0x40 DUP1 MLOAD PUSH1 0x60 DUP2 ADD DUP3 MSTORE PUSH1 0x1 PUSH1 0x1 PUSH1 0xA0 SHL SUB SWAP4 DUP5 AND DUP2 MSTORE PUSH3 0xFFFFFF SWAP3 DUP4 AND PUSH1 0x20 DUP1 DUP4 ADD SWAP2 DUP3 MSTORE PUSH1 0x1 DUP4 DUP6 ADD SWAP1 DUP2 MSTORE PUSH1 0x0 SWAP8 DUP9 MSTORE PUSH1 0x10 SWAP1 SWAP2 MSTORE SWAP3 SWAP1 SWAP6 KECCAK256 SWAP1 MLOAD DUP2 SLOAD SWAP6 MLOAD SWAP3 MLOAD SWAP5 AND PUSH1 0x1 PUSH1 0x1 PUSH1 0xB8 SHL SUB NOT SWAP1 SWAP6 AND SWAP5 SWAP1 SWAP5 OR PUSH1 0x1 PUSH1 0xA0 SHL SWAP2 SWAP1 SWAP3 AND MUL OR PUSH1 0xFF PUSH1 0xB8 SHL NOT AND PUSH1 0x1 PUSH1 0xB8 SHL SWAP2 ISZERO ISZERO SWAP2 SWAP1 SWAP2 MUL OR SWAP1 SSTORE JUMP JUMPDEST PUSH2 0x19C1 CALLER DUP4 DUP4 PUSH2 0x2671 JUMP JUMPDEST POP POP JUMP JUMPDEST DUP4 PUSH1 0x1 PUSH1 0x1 PUSH1 0xA0 SHL SUB DUP2 AND CALLER EQ PUSH2 0x19DF JUMPI PUSH2 0x19DF CALLER PUSH2 0x2371 JUMP JUMPDEST PUSH2 0x19EB DUP6 DUP6 DUP6 DUP6 PUSH2 0x2740 JUMP JUMPDEST POP POP POP POP POP JUMP JUMPDEST PUSH1 0xD SLOAD PUSH1 0x40 MLOAD PUSH4 0x188687DD PUSH1 0xE2 SHL DUP2 MSTORE PUSH1 0x4 DUP2 ADD DUP4 SWAP1 MSTORE PUSH1 0x60 SWAP2 PUSH1 0x1 PUSH1 0x1 PUSH1 0xA0 SHL SUB AND SWAP1 PUSH1 0x0 SWAP1 ADDRESS SWAP1 PUSH4 0x621A1F74 SWAP1 PUSH1 0x24 ADD PUSH1 0x20 PUSH1 0x40 MLOAD DUP1 DUP4 SUB DUP2 DUP7 GAS STATICCALL ISZERO DUP1 ISZERO PUSH2 0x1A41 JUMPI RETURNDATASIZE PUSH1 0x0 DUP1 RETURNDATACOPY RETURNDATASIZE PUSH1 0x0 REVERT JUMPDEST POP POP POP POP PUSH1 0x40 MLOAD RETURNDATASIZE PUSH1 0x1F NOT PUSH1 0x1F DUP3 ADD AND DUP3 ADD DUP1 PUSH1 0x40 MSTORE POP DUP2 ADD SWAP1 PUSH2 0x1A65 SWAP2 SWAP1 PUSH2 0x35BD JUMP JUMPDEST PUSH1 0x12 SLOAD PUSH1 0x40 MLOAD PUSH4 0x8DD54E9 PUSH1 0xE3 SHL DUP2 MSTORE PUSH1 0x4 DUP2 ADD SWAP2 SWAP1 SWAP2 MSTORE PUSH1 0x24 DUP2 ADD DUP7 SWAP1 MSTORE PUSH1 0x44 DUP2 ADD DUP3 SWAP1 MSTORE SWAP1 SWAP2 POP PUSH1 0x1 PUSH1 0x1 PUSH1 0xA0 SHL SUB DUP4 AND SWAP1 PUSH4 0x46EAA748 SWAP1 PUSH1 0x64 ADD PUSH2 0xA75 JUMP JUMPDEST PUSH2 0x1AAF PUSH2 0x2564 JUMP JUMPDEST PUSH1 0x1 PUSH1 0x1 PUSH1 0xA0 SHL SUB DUP2 AND PUSH2 0x1B14 JUMPI PUSH1 0x40 MLOAD PUSH3 0x461BCD PUSH1 0xE5 SHL DUP2 MSTORE PUSH1 0x20 PUSH1 0x4 DUP3 ADD MSTORE PUSH1 0x26 PUSH1 0x24 DUP3 ADD MSTORE PUSH32 0x4F776E61626C653A206E6577206F776E657220697320746865207A65726F2061 PUSH1 0x44 DUP3 ADD MSTORE PUSH6 0x646472657373 PUSH1 0xD0 SHL PUSH1 0x64 DUP3 ADD MSTORE PUSH1 0x84 ADD PUSH2 0x91E JUMP JUMPDEST PUSH2 0xD55 DUP2 PUSH2 0x25E2 JUMP JUMPDEST PUSH1 0xA SLOAD PUSH1 0x1 PUSH1 0x1 PUSH1 0xA0 SHL SUB AND CALLER EQ DUP1 ISZERO PUSH2 0x1B3F JUMPI POP PUSH1 0x1 PUSH1 0x1 PUSH1 0xA0 SHL SUB DUP2 AND ISZERO ISZERO JUMPDEST PUSH1 0x40 MLOAD DUP1 PUSH1 0x40 ADD PUSH1 0x40 MSTORE DUP1 PUSH1 0x3 DUP2 MSTORE PUSH1 0x20 ADD PUSH3 0x313031 PUSH1 0xE8 SHL DUP2 MSTORE POP SWAP1 PUSH2 0x1B79 JUMPI PUSH1 0x40 MLOAD PUSH3 0x461BCD PUSH1 0xE5 SHL DUP2 MSTORE PUSH1 0x4 ADD PUSH2 0x91E SWAP2 SWAP1 PUSH2 0x2FBD JUMP JUMPDEST POP PUSH1 0xB SLOAD PUSH1 0x1 PUSH1 0x1 PUSH1 0xA0 SHL SUB DUP3 DUP2 AND SWAP2 AND EQ PUSH2 0xD55 JUMPI PUSH1 0xB DUP1 SLOAD PUSH1 0x1 PUSH1 0x1 PUSH1 0xA0 SHL SUB DUP4 AND PUSH1 0x1 PUSH1 0x1 PUSH1 0xA0 SHL SUB NOT SWAP1 SWAP2 AND OR SWAP1 SSTORE POP JUMP JUMPDEST PUSH1 0x0 DUP2 DUP2 MSTORE PUSH1 0x9 PUSH1 0x20 MSTORE PUSH1 0x40 SWAP1 KECCAK256 SLOAD PUSH1 0x1 PUSH1 0x1 PUSH1 0xA0 SHL SUB AND PUSH2 0xD55 JUMPI PUSH1 0x40 MLOAD PUSH3 0x461BCD PUSH1 0xE5 SHL DUP2 MSTORE PUSH1 0x20 PUSH1 0x4 DUP3 ADD MSTORE PUSH1 0x18 PUSH1 0x24 DUP3 ADD MSTORE PUSH24 0x115490CDCC8C4E881A5B9D985B1A59081D1BDAD95B881251 PUSH1 0x42 SHL PUSH1 0x44 DUP3 ADD MSTORE PUSH1 0x64 ADD PUSH2 0x91E JUMP JUMPDEST PUSH1 0x0 DUP2 DUP2 MSTORE PUSH1 0x2 PUSH1 0x20 MSTORE PUSH1 0x40 DUP2 KECCAK256 SLOAD PUSH1 0x1 PUSH1 0x1 PUSH1 0xA0 SHL SUB AND DUP1 PUSH2 0x7EA JUMPI PUSH1 0x40 MLOAD PUSH3 0x461BCD PUSH1 0xE5 SHL DUP2 MSTORE PUSH1 0x20 PUSH1 0x4 DUP3 ADD MSTORE PUSH1 0x18 PUSH1 0x24 DUP3 ADD MSTORE PUSH24 0x115490CDCC8C4E881A5B9D985B1A59081D1BDAD95B881251 PUSH1 0x42 SHL PUSH1 0x44 DUP3 ADD MSTORE PUSH1 0x64 ADD PUSH2 0x91E JUMP JUMPDEST PUSH1 0x0 DUP2 DUP2 MSTORE PUSH1 0x4 PUSH1 0x20 MSTORE PUSH1 0x40 SWAP1 KECCAK256 DUP1 SLOAD PUSH1 0x1 PUSH1 0x1 PUSH1 0xA0 SHL SUB NOT AND PUSH1 0x1 PUSH1 0x1 PUSH1 0xA0 SHL SUB DUP5 AND SWAP1 DUP2 OR SWAP1 SWAP2 SSTORE DUP2 SWAP1 PUSH2 0x1CA3 DUP3 PUSH2 0x1C0E JUMP JUMPDEST PUSH1 0x1 PUSH1 0x1 PUSH1 0xA0 SHL SUB AND PUSH32 0x8C5BE1E5EBEC7D5BD14F71427D1E84F3DD0314C0F7B2291E5B200AC8C7C3B925 PUSH1 0x40 MLOAD PUSH1 0x40 MLOAD DUP1 SWAP2 SUB SWAP1 LOG4 POP POP JUMP JUMPDEST PUSH1 0x2 PUSH1 0x7 SLOAD EQ ISZERO PUSH2 0x1D2F JUMPI PUSH1 0x40 MLOAD PUSH3 0x461BCD PUSH1 0xE5 SHL DUP2 MSTORE PUSH1 0x20 PUSH1 0x4 DUP3 ADD MSTORE PUSH1 0x1F PUSH1 0x24 DUP3 ADD MSTORE PUSH32 0x5265656E7472616E637947756172643A207265656E7472616E742063616C6C00 PUSH1 0x44 DUP3 ADD MSTORE PUSH1 0x64 ADD PUSH2 0x91E JUMP JUMPDEST PUSH1 0x2 PUSH1 0x7 SSTORE JUMP JUMPDEST PUSH2 0x19C1 DUP3 DUP3 PUSH1 0x40 MLOAD DUP1 PUSH1 0x20 ADD PUSH1 0x40 MSTORE DUP1 PUSH1 0x0 DUP2 MSTORE POP PUSH2 0x2772 JUMP JUMPDEST PUSH1 0x0 DUP3 DUP2 MSTORE PUSH1 0x9 PUSH1 0x20 SWAP1 DUP2 MSTORE PUSH1 0x40 SWAP2 DUP3 SWAP1 KECCAK256 SLOAD DUP3 MLOAD DUP1 DUP5 ADD SWAP1 SWAP4 MSTORE PUSH1 0x3 DUP4 MSTORE PUSH3 0x32313 PUSH1 0xEC SHL SWAP2 DUP4 ADD SWAP2 SWAP1 SWAP2 MSTORE PUSH1 0x1 PUSH1 0xA0 SHL SWAP1 DIV PUSH1 0xA0 SHL PUSH1 0x1 PUSH1 0x1 PUSH1 0xA0 SHL SUB NOT AND ISZERO PUSH2 0x1DAF JUMPI PUSH1 0x40 MLOAD PUSH3 0x461BCD PUSH1 0xE5 SHL DUP2 MSTORE PUSH1 0x4 ADD PUSH2 0x91E SWAP2 SWAP1 PUSH2 0x2FBD JUMP JUMPDEST POP PUSH1 0x40 DUP1 MLOAD DUP1 DUP3 ADD SWAP1 SWAP2 MSTORE PUSH1 0x3 DUP2 MSTORE PUSH3 0x323131 PUSH1 0xE8 SHL PUSH1 0x20 DUP3 ADD MSTORE DUP2 PUSH2 0x1DE8 JUMPI PUSH1 0x40 MLOAD PUSH3 0x461BCD PUSH1 0xE5 SHL DUP2 MSTORE PUSH1 0x4 ADD PUSH2 0x91E SWAP2 SWAP1 PUSH2 0x2FBD JUMP JUMPDEST POP PUSH1 0x0 SWAP2 DUP3 MSTORE PUSH1 0x9 PUSH1 0x20 MSTORE PUSH1 0x40 SWAP1 SWAP2 KECCAK256 DUP1 SLOAD PUSH1 0xA0 SWAP3 SWAP1 SWAP3 SHR PUSH1 0x1 PUSH1 0xA0 SHL MUL PUSH1 0x1 PUSH1 0x1 PUSH1 0xA0 SHL SUB SWAP1 SWAP3 AND SWAP2 SWAP1 SWAP2 OR SWAP1 SSTORE JUMP JUMPDEST PUSH1 0x16 SLOAD DUP1 PUSH2 0x1E24 JUMPI POP JUMP JUMPDEST PUSH1 0x11 SLOAD PUSH1 0xB SLOAD PUSH1 0x0 SWAP2 PUSH1 0x1 PUSH1 0x1 PUSH1 0xA0 SHL SUB SWAP1 DUP2 AND SWAP2 AND PUSH2 0x1F4 DUP2 ISZERO PUSH2 0x1EDC JUMPI PUSH1 0x40 DUP1 MLOAD DUP1 DUP3 ADD DUP3 MSTORE PUSH1 0x15 DUP2 MSTORE PUSH21 0x4D494E545F4E46545F4F50455241544F525F464545 PUSH1 0x58 SHL PUSH1 0x20 DUP3 ADD MSTORE SWAP1 MLOAD PUSH4 0x6D12DCE1 PUSH1 0xE0 SHL DUP2 MSTORE PUSH1 0x1 PUSH1 0x1 PUSH1 0xA0 SHL SUB DUP5 AND SWAP2 PUSH4 0x6D12DCE1 SWAP2 PUSH2 0x1E98 SWAP2 SWAP1 PUSH1 0x4 ADD PUSH2 0x2FBD JUMP JUMPDEST PUSH1 0x20 PUSH1 0x40 MLOAD DUP1 DUP4 SUB DUP2 DUP7 GAS STATICCALL ISZERO DUP1 ISZERO PUSH2 0x1EB5 JUMPI RETURNDATASIZE PUSH1 0x0 DUP1 RETURNDATACOPY RETURNDATASIZE PUSH1 0x0 REVERT JUMPDEST POP POP POP POP PUSH1 0x40 MLOAD RETURNDATASIZE PUSH1 0x1F NOT PUSH1 0x1F DUP3 ADD AND DUP3 ADD DUP1 PUSH1 0x40 MSTORE POP DUP2 ADD SWAP1 PUSH2 0x1ED9 SWAP2 SWAP1 PUSH2 0x35BD JUMP JUMPDEST SWAP1 POP JUMPDEST PUSH1 0x1 PUSH1 0x1 PUSH1 0xA0 SHL SUB DUP5 AND PUSH2 0x2053 JUMPI DUP5 CALLVALUE LT ISZERO PUSH2 0x1EF7 JUMPI PUSH1 0x0 DUP1 REVERT JUMPDEST PUSH1 0x12 SLOAD PUSH1 0x40 MLOAD PUSH4 0x31A9108F PUSH1 0xE1 SHL DUP2 MSTORE PUSH1 0x0 SWAP2 PUSH1 0x1 PUSH1 0x1 PUSH1 0xA0 SHL SUB DUP7 AND SWAP2 PUSH4 0x6352211E SWAP2 PUSH2 0x1F2B SWAP2 PUSH1 0x4 ADD SWAP1 DUP2 MSTORE PUSH1 0x20 ADD SWAP1 JUMP JUMPDEST PUSH1 0x20 PUSH1 0x40 MLOAD DUP1 DUP4 SUB DUP2 DUP7 GAS STATICCALL ISZERO DUP1 ISZERO PUSH2 0x1F48 JUMPI RETURNDATASIZE PUSH1 0x0 DUP1 RETURNDATACOPY RETURNDATASIZE PUSH1 0x0 REVERT JUMPDEST POP POP POP POP PUSH1 0x40 MLOAD RETURNDATASIZE PUSH1 0x1F NOT PUSH1 0x1F DUP3 ADD AND DUP3 ADD DUP1 PUSH1 0x40 MSTORE POP DUP2 ADD SWAP1 PUSH2 0x1F6C SWAP2 SWAP1 PUSH2 0x3715 JUMP JUMPDEST PUSH1 0x1 PUSH1 0x1 PUSH1 0xA0 SHL SUB AND PUSH2 0x2710 PUSH2 0x1F82 DUP5 DUP10 PUSH2 0x36AD JUMP JUMPDEST PUSH2 0x1F8C SWAP2 SWAP1 PUSH2 0x3732 JUMP JUMPDEST PUSH2 0x1F96 SWAP1 DUP9 PUSH2 0x3754 JUMP JUMPDEST PUSH1 0x40 MLOAD PUSH1 0x0 DUP2 DUP2 DUP2 DUP6 DUP8 GAS CALL SWAP3 POP POP POP RETURNDATASIZE DUP1 PUSH1 0x0 DUP2 EQ PUSH2 0x1FD2 JUMPI PUSH1 0x40 MLOAD SWAP2 POP PUSH1 0x1F NOT PUSH1 0x3F RETURNDATASIZE ADD AND DUP3 ADD PUSH1 0x40 MSTORE RETURNDATASIZE DUP3 MSTORE RETURNDATASIZE PUSH1 0x0 PUSH1 0x20 DUP5 ADD RETURNDATACOPY PUSH2 0x1FD7 JUMP JUMPDEST PUSH1 0x60 SWAP2 POP JUMPDEST POP POP SWAP1 POP DUP1 PUSH2 0x1FE5 JUMPI PUSH1 0x0 DUP1 REVERT JUMPDEST PUSH1 0xA SLOAD PUSH1 0x1 PUSH1 0x1 PUSH1 0xA0 SHL SUB AND PUSH2 0x2710 PUSH2 0x1FFE DUP5 DUP10 PUSH2 0x36AD JUMP JUMPDEST PUSH2 0x2008 SWAP2 SWAP1 PUSH2 0x3732 JUMP JUMPDEST PUSH1 0x40 MLOAD PUSH1 0x0 DUP2 DUP2 DUP2 DUP6 DUP8 GAS CALL SWAP3 POP POP POP RETURNDATASIZE DUP1 PUSH1 0x0 DUP2 EQ PUSH2 0x2044 JUMPI PUSH1 0x40 MLOAD SWAP2 POP PUSH1 0x1F NOT PUSH1 0x3F RETURNDATASIZE ADD AND DUP3 ADD PUSH1 0x40 MSTORE RETURNDATASIZE DUP3 MSTORE RETURNDATASIZE PUSH1 0x0 PUSH1 0x20 DUP5 ADD RETURNDATACOPY PUSH2 0x2049 JUMP JUMPDEST PUSH1 0x60 SWAP2 POP JUMPDEST POP PUSH2 0x19EB SWAP3 POP POP POP JUMP JUMPDEST PUSH1 0x40 MLOAD PUSH4 0x23B872DD PUSH1 0xE0 SHL DUP2 MSTORE CALLER PUSH1 0x4 DUP3 ADD MSTORE ADDRESS PUSH1 0x24 DUP3 ADD MSTORE PUSH1 0x44 DUP2 ADD DUP7 SWAP1 MSTORE DUP5 SWAP1 PUSH1 0x1 PUSH1 0x1 PUSH1 0xA0 SHL SUB DUP3 AND SWAP1 PUSH4 0x23B872DD SWAP1 PUSH1 0x64 ADD PUSH1 0x20 PUSH1 0x40 MLOAD DUP1 DUP4 SUB DUP2 PUSH1 0x0 DUP8 GAS CALL ISZERO DUP1 ISZERO PUSH2 0x20A8 JUMPI RETURNDATASIZE PUSH1 0x0 DUP1 RETURNDATACOPY RETURNDATASIZE PUSH1 0x0 REVERT JUMPDEST POP POP POP POP PUSH1 0x40 MLOAD RETURNDATASIZE PUSH1 0x1F NOT PUSH1 0x1F DUP3 ADD AND DUP3 ADD DUP1 PUSH1 0x40 MSTORE POP DUP2 ADD SWAP1 PUSH2 0x20CC SWAP2 SWAP1 PUSH2 0x376B JUMP JUMPDEST PUSH2 0x20D5 JUMPI PUSH1 0x0 DUP1 REVERT JUMPDEST PUSH1 0x12 SLOAD PUSH1 0x40 MLOAD PUSH4 0x31A9108F PUSH1 0xE1 SHL DUP2 MSTORE PUSH1 0x4 DUP2 ADD SWAP2 SWAP1 SWAP2 MSTORE PUSH1 0x1 PUSH1 0x1 PUSH1 0xA0 SHL SUB DUP3 DUP2 AND SWAP2 PUSH4 0xA9059CBB SWAP2 DUP8 AND SWAP1 PUSH4 0x6352211E SWAP1 PUSH1 0x24 ADD PUSH1 0x20 PUSH1 0x40 MLOAD DUP1 DUP4 SUB DUP2 DUP7 GAS STATICCALL ISZERO DUP1 ISZERO PUSH2 0x2128 JUMPI RETURNDATASIZE PUSH1 0x0 DUP1 RETURNDATACOPY RETURNDATASIZE PUSH1 0x0 REVERT JUMPDEST POP POP POP POP PUSH1 0x40 MLOAD RETURNDATASIZE PUSH1 0x1F NOT PUSH1 0x1F DUP3 ADD AND DUP3 ADD DUP1 PUSH1 0x40 MSTORE POP DUP2 ADD SWAP1 PUSH2 0x214C SWAP2 SWAP1 PUSH2 0x3715 JUMP JUMPDEST PUSH2 0x2710 PUSH2 0x2159 DUP7 DUP12 PUSH2 0x36AD JUMP JUMPDEST PUSH2 0x2163 SWAP2 SWAP1 PUSH2 0x3732 JUMP JUMPDEST PUSH2 0x216D SWAP1 DUP11 PUSH2 0x3754 JUMP JUMPDEST PUSH1 0x40 MLOAD PUSH1 0x1 PUSH1 0x1 PUSH1 0xE0 SHL SUB NOT PUSH1 0xE0 DUP6 SWAP1 SHL AND DUP2 MSTORE PUSH1 0x1 PUSH1 0x1 PUSH1 0xA0 SHL SUB SWAP1 SWAP3 AND PUSH1 0x4 DUP4 ADD MSTORE PUSH1 0x24 DUP3 ADD MSTORE PUSH1 0x44 ADD PUSH1 0x20 PUSH1 0x40 MLOAD DUP1 DUP4 SUB DUP2 PUSH1 0x0 DUP8 GAS CALL ISZERO DUP1 ISZERO PUSH2 0x21B8 JUMPI RETURNDATASIZE PUSH1 0x0 DUP1 RETURNDATACOPY RETURNDATASIZE PUSH1 0x0 REVERT JUMPDEST POP POP POP POP PUSH1 0x40 MLOAD RETURNDATASIZE PUSH1 0x1F NOT PUSH1 0x1F DUP3 ADD AND DUP3 ADD DUP1 PUSH1 0x40 MSTORE POP DUP2 ADD SWAP1 PUSH2 0x21DC SWAP2 SWAP1 PUSH2 0x376B JUMP JUMPDEST PUSH2 0x21E5 JUMPI PUSH1 0x0 DUP1 REVERT JUMPDEST PUSH1 0xA SLOAD PUSH1 0x1 PUSH1 0x1 PUSH1 0xA0 SHL SUB DUP1 DUP4 AND SWAP2 PUSH4 0xA9059CBB SWAP2 AND PUSH2 0x2710 PUSH2 0x2208 DUP7 DUP12 PUSH2 0x36AD JUMP JUMPDEST PUSH2 0x2212 SWAP2 SWAP1 PUSH2 0x3732 JUMP JUMPDEST PUSH1 0x40 MLOAD PUSH1 0x1 PUSH1 0x1 PUSH1 0xE0 SHL SUB NOT PUSH1 0xE0 DUP6 SWAP1 SHL AND DUP2 MSTORE PUSH1 0x1 PUSH1 0x1 PUSH1 0xA0 SHL SUB SWAP1 SWAP3 AND PUSH1 0x4 DUP4 ADD MSTORE PUSH1 0x24 DUP3 ADD MSTORE PUSH1 0x44 ADD PUSH1 0x20 PUSH1 0x40 MLOAD DUP1 DUP4 SUB DUP2 PUSH1 0x0 DUP8 GAS CALL ISZERO DUP1 ISZERO PUSH2 0x225D JUMPI RETURNDATASIZE PUSH1 0x0 DUP1 RETURNDATACOPY RETURNDATASIZE PUSH1 0x0 REVERT JUMPDEST POP POP POP POP PUSH1 0x40 MLOAD RETURNDATASIZE PUSH1 0x1F NOT PUSH1 0x1F DUP3 ADD AND DUP3 ADD DUP1 PUSH1 0x40 MSTORE POP DUP2 ADD SWAP1 PUSH2 0x2281 SWAP2 SWAP1 PUSH2 0x376B JUMP JUMPDEST PUSH2 0x1090 JUMPI PUSH1 0x0 DUP1 REVERT JUMPDEST PUSH1 0x60 PUSH1 0x0 PUSH2 0x2298 DUP6 DUP6 PUSH2 0x3754 JUMP JUMPDEST PUSH2 0x22A3 SWAP1 PUSH1 0x1 PUSH2 0x36CC JUMP JUMPDEST PUSH8 0xFFFFFFFFFFFFFFFF DUP2 GT ISZERO PUSH2 0x22BB JUMPI PUSH2 0x22BB PUSH2 0x3057 JUMP JUMPDEST PUSH1 0x40 MLOAD SWAP1 DUP1 DUP3 MSTORE DUP1 PUSH1 0x1F ADD PUSH1 0x1F NOT AND PUSH1 0x20 ADD DUP3 ADD PUSH1 0x40 MSTORE DUP1 ISZERO PUSH2 0x22E5 JUMPI PUSH1 0x20 DUP3 ADD DUP2 DUP1 CALLDATASIZE DUP4 CALLDATACOPY ADD SWAP1 POP JUMPDEST POP SWAP1 POP PUSH1 0x0 JUMPDEST PUSH2 0x22F5 DUP7 DUP7 PUSH2 0x3754 JUMP JUMPDEST DUP2 GT PUSH2 0x2368 JUMPI DUP4 PUSH1 0x1 PUSH2 0x2308 DUP9 DUP5 PUSH2 0x36CC JUMP JUMPDEST PUSH2 0x2312 SWAP2 SWAP1 PUSH2 0x3754 JUMP JUMPDEST DUP2 MLOAD DUP2 LT PUSH2 0x2322 JUMPI PUSH2 0x2322 PUSH2 0x36E4 JUMP JUMPDEST PUSH1 0x20 ADD ADD MLOAD PUSH1 0xF8 SHR PUSH1 0xF8 SHL DUP3 DUP3 DUP2 MLOAD DUP2 LT PUSH2 0x233F JUMPI PUSH2 0x233F PUSH2 0x36E4 JUMP JUMPDEST PUSH1 0x20 ADD ADD SWAP1 PUSH1 0x1 PUSH1 0x1 PUSH1 0xF8 SHL SUB NOT AND SWAP1 DUP2 PUSH1 0x0 BYTE SWAP1 MSTORE8 POP DUP1 PUSH2 0x2360 DUP2 PUSH2 0x36FA JUMP JUMPDEST SWAP2 POP POP PUSH2 0x22EB JUMP JUMPDEST POP SWAP5 SWAP4 POP POP POP POP JUMP JUMPDEST PUSH14 0xAAEB6D7670E522A718067333CD4E EXTCODESIZE ISZERO PUSH2 0xD55 JUMPI PUSH1 0x40 MLOAD PUSH4 0x3185C44D PUSH1 0xE2 SHL DUP2 MSTORE ADDRESS PUSH1 0x4 DUP3 ADD MSTORE PUSH1 0x1 PUSH1 0x1 PUSH1 0xA0 SHL SUB DUP3 AND PUSH1 0x24 DUP3 ADD MSTORE PUSH14 0xAAEB6D7670E522A718067333CD4E SWAP1 PUSH4 0xC6171134 SWAP1 PUSH1 0x44 ADD PUSH1 0x20 PUSH1 0x40 MLOAD DUP1 DUP4 SUB DUP2 DUP7 GAS STATICCALL ISZERO DUP1 ISZERO PUSH2 0x23DE JUMPI RETURNDATASIZE PUSH1 0x0 DUP1 RETURNDATACOPY RETURNDATASIZE PUSH1 0x0 REVERT JUMPDEST POP POP POP POP PUSH1 0x40 MLOAD RETURNDATASIZE PUSH1 0x1F NOT PUSH1 0x1F DUP3 ADD AND DUP3 ADD DUP1 PUSH1 0x40 MSTORE POP DUP2 ADD SWAP1 PUSH2 0x2402 SWAP2 SWAP1 PUSH2 0x376B JUMP JUMPDEST PUSH2 0xD55 JUMPI PUSH1 0x40 MLOAD PUSH4 0x3B79C773 PUSH1 0xE2 SHL DUP2 MSTORE PUSH1 0x1 PUSH1 0x1 PUSH1 0xA0 SHL SUB DUP3 AND PUSH1 0x4 DUP3 ADD MSTORE PUSH1 0x24 ADD PUSH2 0x91E JUMP JUMPDEST PUSH2 0x2434 CALLER DUP3 PUSH2 0x27A5 JUMP JUMPDEST PUSH2 0x2450 JUMPI PUSH1 0x40 MLOAD PUSH3 0x461BCD PUSH1 0xE5 SHL DUP2 MSTORE PUSH1 0x4 ADD PUSH2 0x91E SWAP1 PUSH2 0x3788 JUMP JUMPDEST PUSH2 0x9BF DUP4 DUP4 DUP4 PUSH2 0x2823 JUMP JUMPDEST PUSH1 0x0 DUP3 DUP2 MSTORE PUSH1 0x10 PUSH1 0x20 SWAP1 DUP2 MSTORE PUSH1 0x40 DUP1 DUP4 KECCAK256 DUP2 MLOAD PUSH1 0x60 DUP2 ADD DUP4 MSTORE SWAP1 SLOAD PUSH1 0x1 PUSH1 0x1 PUSH1 0xA0 SHL SUB DUP2 AND DUP3 MSTORE PUSH1 0x1 PUSH1 0xA0 SHL DUP2 DIV PUSH3 0xFFFFFF AND SWAP4 DUP3 ADD SWAP4 SWAP1 SWAP4 MSTORE PUSH1 0x1 PUSH1 0xB8 SHL SWAP1 SWAP3 DIV PUSH1 0xFF AND ISZERO DUP1 ISZERO SWAP2 DUP4 ADD SWAP2 SWAP1 SWAP2 MSTORE DUP3 SWAP2 SWAP1 PUSH2 0x24DF JUMPI DUP1 MLOAD PUSH1 0x20 DUP3 ADD MLOAD SWAP1 SWAP4 POP PUSH2 0x2710 SWAP1 PUSH2 0x24CE SWAP1 PUSH3 0xFFFFFF AND DUP7 PUSH2 0x36AD JUMP JUMPDEST PUSH2 0x24D8 SWAP2 SWAP1 PUSH2 0x3732 JUMP JUMPDEST SWAP2 POP PUSH2 0x24EF JUMP JUMPDEST PUSH2 0x24E9 DUP6 DUP6 PUSH2 0x285D JUMP JUMPDEST SWAP1 SWAP4 POP SWAP2 POP JUMPDEST POP SWAP3 POP SWAP3 SWAP1 POP JUMP JUMPDEST PUSH2 0x24FF PUSH2 0x2895 JUMP JUMPDEST PUSH1 0x6 DUP1 SLOAD PUSH1 0xFF NOT AND SWAP1 SSTORE PUSH32 0x5DB9EE0A495BF2E6FF9C91A7834C1BA4FDD244A5E8AA4E537BD38AEAE4B073AA CALLER JUMPDEST PUSH1 0x40 MLOAD PUSH1 0x1 PUSH1 0x1 PUSH1 0xA0 SHL SUB SWAP1 SWAP2 AND DUP2 MSTORE PUSH1 0x20 ADD PUSH1 0x40 MLOAD DUP1 SWAP2 SUB SWAP1 LOG1 JUMP JUMPDEST PUSH2 0x9BF DUP4 DUP4 DUP4 PUSH1 0x40 MLOAD DUP1 PUSH1 0x20 ADD PUSH1 0x40 MSTORE DUP1 PUSH1 0x0 DUP2 MSTORE POP PUSH2 0x19C5 JUMP JUMPDEST CALLER PUSH2 0x2577 PUSH1 0xA SLOAD PUSH1 0x1 PUSH1 0x1 PUSH1 0xA0 SHL SUB AND SWAP1 JUMP JUMPDEST PUSH1 0x1 PUSH1 0x1 PUSH1 0xA0 SHL SUB AND EQ DUP1 PUSH2 0x2596 JUMPI POP PUSH1 0x11 SLOAD PUSH1 0x1 PUSH1 0x1 PUSH1 0xA0 SHL SUB AND CALLER EQ JUMPDEST PUSH2 0x148F JUMPI PUSH1 0x40 MLOAD PUSH3 0x461BCD PUSH1 0xE5 SHL DUP2 MSTORE PUSH1 0x20 PUSH1 0x4 DUP3 ADD DUP2 SWAP1 MSTORE PUSH1 0x24 DUP3 ADD MSTORE PUSH32 0x4F776E61626C653A2063616C6C6572206973206E6F7420746865206F776E6572 PUSH1 0x44 DUP3 ADD MSTORE PUSH1 0x64 ADD PUSH2 0x91E JUMP JUMPDEST PUSH1 0x8 DUP1 SLOAD PUSH1 0x1 PUSH1 0x1 PUSH1 0xA0 SHL SUB DUP4 DUP2 AND PUSH1 0x1 PUSH1 0x1 PUSH1 0xA0 SHL SUB NOT DUP4 AND DUP2 OR SWAP1 SWAP4 SSTORE PUSH1 0x40 MLOAD SWAP2 AND SWAP2 SWAP1 DUP3 SWAP1 PUSH32 0x8BE0079C531659141344CD1FD0A4F28419497F9722A3DAAFE3B4186F6B6457E0 SWAP1 PUSH1 0x0 SWAP1 LOG3 POP POP JUMP JUMPDEST PUSH2 0x263C PUSH2 0x28DE JUMP JUMPDEST PUSH1 0x6 DUP1 SLOAD PUSH1 0xFF NOT AND PUSH1 0x1 OR SWAP1 SSTORE PUSH32 0x62E78CEA01BEE320CD4E420270B5EA74000D11B0C9F74754EBDBFC544B05A258 PUSH2 0x252C CALLER SWAP1 JUMP JUMPDEST DUP2 PUSH1 0x1 PUSH1 0x1 PUSH1 0xA0 SHL SUB AND DUP4 PUSH1 0x1 PUSH1 0x1 PUSH1 0xA0 SHL SUB AND EQ ISZERO PUSH2 0x26D3 JUMPI PUSH1 0x40 MLOAD PUSH3 0x461BCD PUSH1 0xE5 SHL DUP2 MSTORE PUSH1 0x20 PUSH1 0x4 DUP3 ADD MSTORE PUSH1 0x19 PUSH1 0x24 DUP3 ADD MSTORE PUSH32 0x4552433732313A20617070726F766520746F2063616C6C657200000000000000 PUSH1 0x44 DUP3 ADD MSTORE PUSH1 0x64 ADD PUSH2 0x91E JUMP JUMPDEST PUSH1 0x1 PUSH1 0x1 PUSH1 0xA0 SHL SUB DUP4 DUP2 AND PUSH1 0x0 DUP2 DUP2 MSTORE PUSH1 0x5 PUSH1 0x20 SWAP1 DUP2 MSTORE PUSH1 0x40 DUP1 DUP4 KECCAK256 SWAP5 DUP8 AND DUP1 DUP5 MSTORE SWAP5 DUP3 MSTORE SWAP2 DUP3 SWAP1 KECCAK256 DUP1 SLOAD PUSH1 0xFF NOT AND DUP7 ISZERO ISZERO SWAP1 DUP2 OR SWAP1 SWAP2 SSTORE SWAP2 MLOAD SWAP2 DUP3 MSTORE PUSH32 0x17307EAB39AB6107E8899845AD3D59BD9653F200F220920489CA2B5937696C31 SWAP2 ADD PUSH1 0x40 MLOAD DUP1 SWAP2 SUB SWAP1 LOG3 POP POP POP JUMP JUMPDEST PUSH2 0x274A CALLER DUP4 PUSH2 0x27A5 JUMP JUMPDEST PUSH2 0x2766 JUMPI PUSH1 0x40 MLOAD PUSH3 0x461BCD PUSH1 0xE5 SHL DUP2 MSTORE PUSH1 0x4 ADD PUSH2 0x91E SWAP1 PUSH2 0x3788 JUMP JUMPDEST PUSH2 0x1394 DUP5 DUP5 DUP5 DUP5 PUSH2 0x2924 JUMP JUMPDEST PUSH2 0x277C DUP4 DUP4 PUSH2 0x2957 JUMP JUMPDEST PUSH2 0x2789 PUSH1 0x0 DUP5 DUP5 DUP5 PUSH2 0x298F JUMP JUMPDEST PUSH2 0x9BF JUMPI PUSH1 0x40 MLOAD PUSH3 0x461BCD PUSH1 0xE5 SHL DUP2 MSTORE PUSH1 0x4 ADD PUSH2 0x91E SWAP1 PUSH2 0x37D5 JUMP JUMPDEST PUSH1 0x0 DUP1 PUSH2 0x27B1 DUP4 PUSH2 0x1C0E JUMP JUMPDEST SWAP1 POP DUP1 PUSH1 0x1 PUSH1 0x1 PUSH1 0xA0 SHL SUB AND DUP5 PUSH1 0x1 PUSH1 0x1 PUSH1 0xA0 SHL SUB AND EQ DUP1 PUSH2 0x27F8 JUMPI POP PUSH1 0x1 PUSH1 0x1 PUSH1 0xA0 SHL SUB DUP1 DUP3 AND PUSH1 0x0 SWAP1 DUP2 MSTORE PUSH1 0x5 PUSH1 0x20 SWAP1 DUP2 MSTORE PUSH1 0x40 DUP1 DUP4 KECCAK256 SWAP4 DUP9 AND DUP4 MSTORE SWAP3 SWAP1 MSTORE KECCAK256 SLOAD PUSH1 0xFF AND JUMPDEST DUP1 PUSH2 0xABA JUMPI POP DUP4 PUSH1 0x1 PUSH1 0x1 PUSH1 0xA0 SHL SUB AND PUSH2 0x2811 DUP5 PUSH2 0x882 JUMP JUMPDEST PUSH1 0x1 PUSH1 0x1 PUSH1 0xA0 SHL SUB AND EQ SWAP5 SWAP4 POP POP POP POP JUMP JUMPDEST PUSH2 0x282E DUP4 DUP4 DUP4 PUSH2 0x2A8D JUMP JUMPDEST PUSH1 0x0 SWAP1 DUP2 MSTORE PUSH1 0x9 PUSH1 0x20 MSTORE PUSH1 0x40 SWAP1 KECCAK256 DUP1 SLOAD PUSH1 0x1 PUSH1 0x1 PUSH1 0xA0 SHL SUB NOT AND PUSH1 0x1 PUSH1 0x1 PUSH1 0xA0 SHL SUB SWAP3 SWAP1 SWAP3 AND SWAP2 SWAP1 SWAP2 OR SWAP1 SSTORE POP JUMP JUMPDEST PUSH1 0xA SLOAD PUSH1 0x0 SWAP1 DUP2 SWAP1 PUSH1 0x1 PUSH1 0x1 PUSH1 0xA0 SHL SUB AND DUP2 PUSH2 0x2710 PUSH2 0x287E DUP7 PUSH2 0x1F4 PUSH2 0x36AD JUMP JUMPDEST PUSH2 0x2888 SWAP2 SWAP1 PUSH2 0x3732 JUMP JUMPDEST SWAP2 SWAP7 SWAP2 SWAP6 POP SWAP1 SWAP4 POP POP POP POP JUMP JUMPDEST PUSH1 0x6 SLOAD PUSH1 0xFF AND PUSH2 0x148F JUMPI PUSH1 0x40 MLOAD PUSH3 0x461BCD PUSH1 0xE5 SHL DUP2 MSTORE PUSH1 0x20 PUSH1 0x4 DUP3 ADD MSTORE PUSH1 0x14 PUSH1 0x24 DUP3 ADD MSTORE PUSH20 0x14185D5CD8589B194E881B9BDD081C185D5CD959 PUSH1 0x62 SHL PUSH1 0x44 DUP3 ADD MSTORE PUSH1 0x64 ADD PUSH2 0x91E JUMP JUMPDEST PUSH1 0x6 SLOAD PUSH1 0xFF AND ISZERO PUSH2 0x148F JUMPI PUSH1 0x40 MLOAD PUSH3 0x461BCD PUSH1 0xE5 SHL DUP2 MSTORE PUSH1 0x20 PUSH1 0x4 DUP3 ADD MSTORE PUSH1 0x10 PUSH1 0x24 DUP3 ADD MSTORE PUSH16 0x14185D5CD8589B194E881C185D5CD959 PUSH1 0x82 SHL PUSH1 0x44 DUP3 ADD MSTORE PUSH1 0x64 ADD PUSH2 0x91E JUMP JUMPDEST PUSH2 0x292F DUP5 DUP5 DUP5 PUSH2 0x2823 JUMP JUMPDEST PUSH2 0x293B DUP5 DUP5 DUP5 DUP5 PUSH2 0x298F JUMP JUMPDEST PUSH2 0x1394 JUMPI PUSH1 0x40 MLOAD PUSH3 0x461BCD PUSH1 0xE5 SHL DUP2 MSTORE PUSH1 0x4 ADD PUSH2 0x91E SWAP1 PUSH2 0x37D5 JUMP JUMPDEST PUSH2 0x2961 DUP3 DUP3 PUSH2 0x2BFE JUMP JUMPDEST PUSH1 0x0 SWAP1 DUP2 MSTORE PUSH1 0x9 PUSH1 0x20 MSTORE PUSH1 0x40 SWAP1 KECCAK256 DUP1 SLOAD PUSH1 0x1 PUSH1 0x1 PUSH1 0xA0 SHL SUB NOT AND PUSH1 0x1 PUSH1 0x1 PUSH1 0xA0 SHL SUB SWAP3 SWAP1 SWAP3 AND SWAP2 SWAP1 SWAP2 OR SWAP1 SSTORE JUMP JUMPDEST PUSH1 0x0 PUSH1 0x1 PUSH1 0x1 PUSH1 0xA0 SHL SUB DUP5 AND EXTCODESIZE ISZERO PUSH2 0x2A82 JUMPI PUSH1 0x40 MLOAD PUSH4 0xA85BD01 PUSH1 0xE1 SHL DUP2 MSTORE PUSH1 0x1 PUSH1 0x1 PUSH1 0xA0 SHL SUB DUP6 AND SWAP1 PUSH4 0x150B7A02 SWAP1 PUSH2 0x29D3 SWAP1 CALLER SWAP1 DUP10 SWAP1 DUP9 SWAP1 DUP9 SWAP1 PUSH1 0x4 ADD PUSH2 0x3827 JUMP JUMPDEST PUSH1 0x20 PUSH1 0x40 MLOAD DUP1 DUP4 SUB DUP2 PUSH1 0x0 DUP8 GAS CALL SWAP3 POP POP POP DUP1 ISZERO PUSH2 0x2A0E JUMPI POP PUSH1 0x40 DUP1 MLOAD PUSH1 0x1F RETURNDATASIZE SWAP1 DUP2 ADD PUSH1 0x1F NOT AND DUP3 ADD SWAP1 SWAP3 MSTORE PUSH2 0x2A0B SWAP2 DUP2 ADD SWAP1 PUSH2 0x3864 JUMP JUMPDEST PUSH1 0x1 JUMPDEST PUSH2 0x2A68 JUMPI RETURNDATASIZE DUP1 DUP1 ISZERO PUSH2 0x2A3C JUMPI PUSH1 0x40 MLOAD SWAP2 POP PUSH1 0x1F NOT PUSH1 0x3F RETURNDATASIZE ADD AND DUP3 ADD PUSH1 0x40 MSTORE RETURNDATASIZE DUP3 MSTORE RETURNDATASIZE PUSH1 0x0 PUSH1 0x20 DUP5 ADD RETURNDATACOPY PUSH2 0x2A41 JUMP JUMPDEST PUSH1 0x60 SWAP2 POP JUMPDEST POP DUP1 MLOAD PUSH2 0x2A60 JUMPI PUSH1 0x40 MLOAD PUSH3 0x461BCD PUSH1 0xE5 SHL DUP2 MSTORE PUSH1 0x4 ADD PUSH2 0x91E SWAP1 PUSH2 0x37D5 JUMP JUMPDEST DUP1 MLOAD DUP2 PUSH1 0x20 ADD REVERT JUMPDEST PUSH1 0x1 PUSH1 0x1 PUSH1 0xE0 SHL SUB NOT AND PUSH4 0xA85BD01 PUSH1 0xE1 SHL EQ SWAP1 POP PUSH2 0xABA JUMP JUMPDEST POP PUSH1 0x1 SWAP5 SWAP4 POP POP POP POP JUMP JUMPDEST DUP3 PUSH1 0x1 PUSH1 0x1 PUSH1 0xA0 SHL SUB AND PUSH2 0x2AA0 DUP3 PUSH2 0x1C0E JUMP JUMPDEST PUSH1 0x1 PUSH1 0x1 PUSH1 0xA0 SHL SUB AND EQ PUSH2 0x2AC6 JUMPI PUSH1 0x40 MLOAD PUSH3 0x461BCD PUSH1 0xE5 SHL DUP2 MSTORE PUSH1 0x4 ADD PUSH2 0x91E SWAP1 PUSH2 0x3881 JUMP JUMPDEST PUSH1 0x1 PUSH1 0x1 PUSH1 0xA0 SHL SUB DUP3 AND PUSH2 0x2B28 JUMPI PUSH1 0x40 MLOAD PUSH3 0x461BCD PUSH1 0xE5 SHL DUP2 MSTORE PUSH1 0x20 PUSH1 0x4 DUP3 ADD MSTORE PUSH1 0x24 DUP1 DUP3 ADD MSTORE PUSH32 0x4552433732313A207472616E7366657220746F20746865207A65726F20616464 PUSH1 0x44 DUP3 ADD MSTORE PUSH4 0x72657373 PUSH1 0xE0 SHL PUSH1 0x64 DUP3 ADD MSTORE PUSH1 0x84 ADD PUSH2 0x91E JUMP JUMPDEST PUSH2 0x2B35 DUP4 DUP4 DUP4 PUSH1 0x1 PUSH2 0x2D97 JUMP JUMPDEST DUP3 PUSH1 0x1 PUSH1 0x1 PUSH1 0xA0 SHL SUB AND PUSH2 0x2B48 DUP3 PUSH2 0x1C0E JUMP JUMPDEST PUSH1 0x1 PUSH1 0x1 PUSH1 0xA0 SHL SUB AND EQ PUSH2 0x2B6E JUMPI PUSH1 0x40 MLOAD PUSH3 0x461BCD PUSH1 0xE5 SHL DUP2 MSTORE PUSH1 0x4 ADD PUSH2 0x91E SWAP1 PUSH2 0x3881 JUMP JUMPDEST PUSH1 0x0 DUP2 DUP2 MSTORE PUSH1 0x4 PUSH1 0x20 SWAP1 DUP2 MSTORE PUSH1 0x40 DUP1 DUP4 KECCAK256 DUP1 SLOAD PUSH1 0x1 PUSH1 0x1 PUSH1 0xA0 SHL SUB NOT SWAP1 DUP2 AND SWAP1 SWAP2 SSTORE PUSH1 0x1 PUSH1 0x1 PUSH1 0xA0 SHL SUB DUP8 DUP2 AND DUP1 DUP7 MSTORE PUSH1 0x3 DUP6 MSTORE DUP4 DUP7 KECCAK256 DUP1 SLOAD PUSH1 0x0 NOT ADD SWAP1 SSTORE SWAP1 DUP8 AND DUP1 DUP7 MSTORE DUP4 DUP7 KECCAK256 DUP1 SLOAD PUSH1 0x1 ADD SWAP1 SSTORE DUP7 DUP7 MSTORE PUSH1 0x2 SWAP1 SWAP5 MSTORE DUP3 DUP6 KECCAK256 DUP1 SLOAD SWAP1 SWAP3 AND DUP5 OR SWAP1 SWAP2 SSTORE SWAP1 MLOAD DUP5 SWAP4 PUSH32 0xDDF252AD1BE2C89B69C2B068FC378DAA952BA7F163C4A11628F55A4DF523B3EF SWAP2 LOG4 POP POP POP JUMP JUMPDEST PUSH1 0x1 PUSH1 0x1 PUSH1 0xA0 SHL SUB DUP3 AND PUSH2 0x2C54 JUMPI PUSH1 0x40 MLOAD PUSH3 0x461BCD PUSH1 0xE5 SHL DUP2 MSTORE PUSH1 0x20 PUSH1 0x4 DUP3 ADD DUP2 SWAP1 MSTORE PUSH1 0x24 DUP3 ADD MSTORE PUSH32 0x4552433732313A206D696E7420746F20746865207A65726F2061646472657373 PUSH1 0x44 DUP3 ADD MSTORE PUSH1 0x64 ADD PUSH2 0x91E JUMP JUMPDEST PUSH1 0x0 DUP2 DUP2 MSTORE PUSH1 0x9 PUSH1 0x20 MSTORE PUSH1 0x40 SWAP1 KECCAK256 SLOAD PUSH1 0x1 PUSH1 0x1 PUSH1 0xA0 SHL SUB AND ISZERO PUSH2 0x2CB9 JUMPI PUSH1 0x40 MLOAD PUSH3 0x461BCD PUSH1 0xE5 SHL DUP2 MSTORE PUSH1 0x20 PUSH1 0x4 DUP3 ADD MSTORE PUSH1 0x1C PUSH1 0x24 DUP3 ADD MSTORE PUSH32 0x4552433732313A20746F6B656E20616C7265616479206D696E74656400000000 PUSH1 0x44 DUP3 ADD MSTORE PUSH1 0x64 ADD PUSH2 0x91E JUMP JUMPDEST PUSH2 0x2CC7 PUSH1 0x0 DUP4 DUP4 PUSH1 0x1 PUSH2 0x2D97 JUMP JUMPDEST PUSH1 0x0 DUP2 DUP2 MSTORE PUSH1 0x9 PUSH1 0x20 MSTORE PUSH1 0x40 SWAP1 KECCAK256 SLOAD PUSH1 0x1 PUSH1 0x1 PUSH1 0xA0 SHL SUB AND ISZERO PUSH2 0x2D2C JUMPI PUSH1 0x40 MLOAD PUSH3 0x461BCD PUSH1 0xE5 SHL DUP2 MSTORE PUSH1 0x20 PUSH1 0x4 DUP3 ADD MSTORE PUSH1 0x1C PUSH1 0x24 DUP3 ADD MSTORE PUSH32 0x4552433732313A20746F6B656E20616C7265616479206D696E74656400000000 PUSH1 0x44 DUP3 ADD MSTORE PUSH1 0x64 ADD PUSH2 0x91E JUMP JUMPDEST PUSH1 0x1 PUSH1 0x1 PUSH1 0xA0 SHL SUB DUP3 AND PUSH1 0x0 DUP2 DUP2 MSTORE PUSH1 0x3 PUSH1 0x20 SWAP1 DUP2 MSTORE PUSH1 0x40 DUP1 DUP4 KECCAK256 DUP1 SLOAD PUSH1 0x1 ADD SWAP1 SSTORE DUP5 DUP4 MSTORE PUSH1 0x2 SWAP1 SWAP2 MSTORE DUP1 DUP3 KECCAK256 DUP1 SLOAD PUSH1 0x1 PUSH1 0x1 PUSH1 0xA0 SHL SUB NOT AND DUP5 OR SWAP1 SSTORE MLOAD DUP4 SWAP3 SWAP2 SWAP1 PUSH32 0xDDF252AD1BE2C89B69C2B068FC378DAA952BA7F163C4A11628F55A4DF523B3EF SWAP1 DUP3 SWAP1 LOG4 POP POP JUMP JUMPDEST PUSH2 0x2DA3 DUP5 DUP5 DUP5 DUP5 PUSH2 0x2E0A JUMP JUMPDEST PUSH1 0x6 SLOAD PUSH1 0xFF AND ISZERO PUSH2 0x1394 JUMPI PUSH1 0x40 MLOAD PUSH3 0x461BCD PUSH1 0xE5 SHL DUP2 MSTORE PUSH1 0x20 PUSH1 0x4 DUP3 ADD MSTORE PUSH1 0x2B PUSH1 0x24 DUP3 ADD MSTORE PUSH32 0x4552433732315061757361626C653A20746F6B656E207472616E736665722077 PUSH1 0x44 DUP3 ADD MSTORE PUSH11 0x1A1A5B19481C185D5CD959 PUSH1 0xAA SHL PUSH1 0x64 DUP3 ADD MSTORE PUSH1 0x84 ADD PUSH2 0x91E JUMP JUMPDEST PUSH1 0x1 DUP2 GT ISZERO PUSH2 0x1394 JUMPI PUSH1 0x1 PUSH1 0x1 PUSH1 0xA0 SHL SUB DUP5 AND ISZERO PUSH2 0x2E50 JUMPI PUSH1 0x1 PUSH1 0x1 PUSH1 0xA0 SHL SUB DUP5 AND PUSH1 0x0 SWAP1 DUP2 MSTORE PUSH1 0x3 PUSH1 0x20 MSTORE PUSH1 0x40 DUP2 KECCAK256 DUP1 SLOAD DUP4 SWAP3 SWAP1 PUSH2 0x2E4A SWAP1 DUP5 SWAP1 PUSH2 0x3754 JUMP JUMPDEST SWAP1 SWAP2 SSTORE POP POP JUMPDEST PUSH1 0x1 PUSH1 0x1 PUSH1 0xA0 SHL SUB DUP4 AND ISZERO PUSH2 0x1394 JUMPI PUSH1 0x1 PUSH1 0x1 PUSH1 0xA0 SHL SUB DUP4 AND PUSH1 0x0 SWAP1 DUP2 MSTORE PUSH1 0x3 PUSH1 0x20 MSTORE PUSH1 0x40 DUP2 KECCAK256 DUP1 SLOAD DUP4 SWAP3 SWAP1 PUSH2 0x2E87 SWAP1 DUP5 SWAP1 PUSH2 0x36CC JUMP JUMPDEST SWAP1 SWAP2 SSTORE POP POP POP POP POP POP JUMP JUMPDEST DUP3 DUP1 SLOAD PUSH2 0x2E9E SWAP1 PUSH2 0x3582 JUMP JUMPDEST SWAP1 PUSH1 0x0 MSTORE PUSH1 0x20 PUSH1 0x0 KECCAK256 SWAP1 PUSH1 0x1F ADD PUSH1 0x20 SWAP1 DIV DUP2 ADD SWAP3 DUP3 PUSH2 0x2EC0 JUMPI PUSH1 0x0 DUP6 SSTORE PUSH2 0x2F06 JUMP JUMPDEST DUP3 PUSH1 0x1F LT PUSH2 0x2ED9 JUMPI DUP1 MLOAD PUSH1 0xFF NOT AND DUP4 DUP1 ADD OR DUP6 SSTORE PUSH2 0x2F06 JUMP JUMPDEST DUP3 DUP1 ADD PUSH1 0x1 ADD DUP6 SSTORE DUP3 ISZERO PUSH2 0x2F06 JUMPI SWAP2 DUP3 ADD JUMPDEST DUP3 DUP2 GT ISZERO PUSH2 0x2F06 JUMPI DUP3 MLOAD DUP3 SSTORE SWAP2 PUSH1 0x20 ADD SWAP2 SWAP1 PUSH1 0x1 ADD SWAP1 PUSH2 0x2EEB JUMP JUMPDEST POP PUSH2 0x2F12 SWAP3 SWAP2 POP PUSH2 0x2F16 JUMP JUMPDEST POP SWAP1 JUMP JUMPDEST JUMPDEST DUP1 DUP3 GT ISZERO PUSH2 0x2F12 JUMPI PUSH1 0x0 DUP2 SSTORE PUSH1 0x1 ADD PUSH2 0x2F17 JUMP JUMPDEST PUSH1 0x1 PUSH1 0x1 PUSH1 0xE0 SHL SUB NOT DUP2 AND DUP2 EQ PUSH2 0xD55 JUMPI PUSH1 0x0 DUP1 REVERT JUMPDEST PUSH1 0x0 PUSH1 0x20 DUP3 DUP5 SUB SLT ISZERO PUSH2 0x2F53 JUMPI PUSH1 0x0 DUP1 REVERT JUMPDEST DUP2 CALLDATALOAD PUSH2 0x2F5E DUP2 PUSH2 0x2F2B JUMP JUMPDEST SWAP4 SWAP3 POP POP POP JUMP JUMPDEST PUSH1 0x0 JUMPDEST DUP4 DUP2 LT ISZERO PUSH2 0x2F80 JUMPI DUP2 DUP2 ADD MLOAD DUP4 DUP3 ADD MSTORE PUSH1 0x20 ADD PUSH2 0x2F68 JUMP JUMPDEST DUP4 DUP2 GT ISZERO PUSH2 0x1394 JUMPI POP POP PUSH1 0x0 SWAP2 ADD MSTORE JUMP JUMPDEST PUSH1 0x0 DUP2 MLOAD DUP1 DUP5 MSTORE PUSH2 0x2FA9 DUP2 PUSH1 0x20 DUP7 ADD PUSH1 0x20 DUP7 ADD PUSH2 0x2F65 JUMP JUMPDEST PUSH1 0x1F ADD PUSH1 0x1F NOT AND SWAP3 SWAP1 SWAP3 ADD PUSH1 0x20 ADD SWAP3 SWAP2 POP POP JUMP JUMPDEST PUSH1 0x20 DUP2 MSTORE PUSH1 0x0 PUSH2 0x2F5E PUSH1 0x20 DUP4 ADD DUP5 PUSH2 0x2F91 JUMP JUMPDEST PUSH1 0x0 PUSH1 0x20 DUP3 DUP5 SUB SLT ISZERO PUSH2 0x2FE2 JUMPI PUSH1 0x0 DUP1 REVERT JUMPDEST POP CALLDATALOAD SWAP2 SWAP1 POP JUMP JUMPDEST PUSH1 0x1 PUSH1 0x1 PUSH1 0xA0 SHL SUB DUP2 AND DUP2 EQ PUSH2 0xD55 JUMPI PUSH1 0x0 DUP1 REVERT JUMPDEST DUP1 CALLDATALOAD PUSH2 0x3009 DUP2 PUSH2 0x2FE9 JUMP JUMPDEST SWAP2 SWAP1 POP JUMP JUMPDEST PUSH1 0x0 DUP1 PUSH1 0x40 DUP4 DUP6 SUB SLT ISZERO PUSH2 0x3021 JUMPI PUSH1 0x0 DUP1 REVERT JUMPDEST DUP3 CALLDATALOAD PUSH2 0x302C DUP2 PUSH2 0x2FE9 JUMP JUMPDEST SWAP5 PUSH1 0x20 SWAP4 SWAP1 SWAP4 ADD CALLDATALOAD SWAP4 POP POP POP JUMP JUMPDEST PUSH1 0x0 PUSH1 0x20 DUP3 DUP5 SUB SLT ISZERO PUSH2 0x304C JUMPI PUSH1 0x0 DUP1 REVERT JUMPDEST DUP2 CALLDATALOAD PUSH2 0x2F5E DUP2 PUSH2 0x2FE9 JUMP JUMPDEST PUSH4 0x4E487B71 PUSH1 0xE0 SHL PUSH1 0x0 MSTORE PUSH1 0x41 PUSH1 0x4 MSTORE PUSH1 0x24 PUSH1 0x0 REVERT JUMPDEST PUSH1 0x40 MLOAD PUSH2 0x160 DUP2 ADD PUSH8 0xFFFFFFFFFFFFFFFF DUP2 GT DUP3 DUP3 LT OR ISZERO PUSH2 0x3091 JUMPI PUSH2 0x3091 PUSH2 0x3057 JUMP JUMPDEST PUSH1 0x40 MSTORE SWAP1 JUMP JUMPDEST PUSH1 0x40 MLOAD PUSH1 0x1F DUP3 ADD PUSH1 0x1F NOT AND DUP2 ADD PUSH8 0xFFFFFFFFFFFFFFFF DUP2 GT DUP3 DUP3 LT OR ISZERO PUSH2 0x30C0 JUMPI PUSH2 0x30C0 PUSH2 0x3057 JUMP JUMPDEST PUSH1 0x40 MSTORE SWAP2 SWAP1 POP JUMP JUMPDEST DUP1 CALLDATALOAD PUSH3 0xFFFFFF DUP2 AND DUP2 EQ PUSH2 0x3009 JUMPI PUSH1 0x0 DUP1 REVERT JUMPDEST PUSH1 0x0 PUSH8 0xFFFFFFFFFFFFFFFF DUP3 GT ISZERO PUSH2 0x30F5 JUMPI PUSH2 0x30F5 PUSH2 0x3057 JUMP JUMPDEST POP PUSH1 0x1F ADD PUSH1 0x1F NOT AND PUSH1 0x20 ADD SWAP1 JUMP JUMPDEST PUSH1 0x0 PUSH2 0x3116 PUSH2 0x3111 DUP5 PUSH2 0x30DB JUMP JUMPDEST PUSH2 0x3097 JUMP JUMPDEST SWAP1 POP DUP3 DUP2 MSTORE DUP4 DUP4 DUP4 ADD GT ISZERO PUSH2 0x312A JUMPI PUSH1 0x0 DUP1 REVERT JUMPDEST DUP3 DUP3 PUSH1 0x20 DUP4 ADD CALLDATACOPY PUSH1 0x0 PUSH1 0x20 DUP5 DUP4 ADD ADD MSTORE SWAP4 SWAP3 POP POP POP JUMP JUMPDEST PUSH1 0x0 DUP3 PUSH1 0x1F DUP4 ADD SLT PUSH2 0x3152 JUMPI PUSH1 0x0 DUP1 REVERT JUMPDEST PUSH2 0x2F5E DUP4 DUP4 CALLDATALOAD PUSH1 0x20 DUP6 ADD PUSH2 0x3103 JUMP JUMPDEST PUSH1 0x0 DUP3 PUSH1 0x1F DUP4 ADD SLT PUSH2 0x3172 JUMPI PUSH1 0x0 DUP1 REVERT JUMPDEST DUP2 CALLDATALOAD PUSH1 0x20 PUSH8 0xFFFFFFFFFFFFFFFF DUP3 GT ISZERO PUSH2 0x318E JUMPI PUSH2 0x318E PUSH2 0x3057 JUMP JUMPDEST DUP2 PUSH1 0x5 SHL PUSH2 0x319D DUP3 DUP3 ADD PUSH2 0x3097 JUMP JUMPDEST SWAP3 DUP4 MSTORE DUP5 DUP2 ADD DUP3 ADD SWAP3 DUP3 DUP2 ADD SWAP1 DUP8 DUP6 GT ISZERO PUSH2 0x31B7 JUMPI PUSH1 0x0 DUP1 REVERT JUMPDEST DUP4 DUP8 ADD SWAP3 POP JUMPDEST DUP5 DUP4 LT ISZERO PUSH2 0x31DF JUMPI DUP3 CALLDATALOAD PUSH2 0x31D0 DUP2 PUSH2 0x2FE9 JUMP JUMPDEST DUP3 MSTORE SWAP2 DUP4 ADD SWAP2 SWAP1 DUP4 ADD SWAP1 PUSH2 0x31BD JUMP JUMPDEST SWAP8 SWAP7 POP POP POP POP POP POP POP JUMP JUMPDEST PUSH1 0x0 DUP1 PUSH1 0x0 DUP1 PUSH1 0x0 DUP1 PUSH1 0xC0 DUP8 DUP10 SUB SLT ISZERO PUSH2 0x3203 JUMPI PUSH1 0x0 DUP1 REVERT JUMPDEST DUP7 CALLDATALOAD PUSH8 0xFFFFFFFFFFFFFFFF DUP1 DUP3 GT ISZERO PUSH2 0x321B JUMPI PUSH1 0x0 DUP1 REVERT JUMPDEST SWAP1 DUP9 ADD SWAP1 PUSH2 0x160 DUP3 DUP12 SUB SLT ISZERO PUSH2 0x3230 JUMPI PUSH1 0x0 DUP1 REVERT JUMPDEST PUSH2 0x3238 PUSH2 0x306D JUMP JUMPDEST PUSH2 0x3241 DUP4 PUSH2 0x2FFE JUMP JUMPDEST DUP2 MSTORE PUSH1 0x20 DUP4 ADD CALLDATALOAD PUSH1 0x20 DUP3 ADD MSTORE PUSH2 0x3259 PUSH1 0x40 DUP5 ADD PUSH2 0x30C8 JUMP JUMPDEST PUSH1 0x40 DUP3 ADD MSTORE PUSH2 0x326A PUSH1 0x60 DUP5 ADD PUSH2 0x30C8 JUMP JUMPDEST PUSH1 0x60 DUP3 ADD MSTORE PUSH2 0x327B PUSH1 0x80 DUP5 ADD PUSH2 0x30C8 JUMP JUMPDEST PUSH1 0x80 DUP3 ADD MSTORE PUSH2 0x328C PUSH1 0xA0 DUP5 ADD PUSH2 0x30C8 JUMP JUMPDEST PUSH1 0xA0 DUP3 ADD MSTORE PUSH1 0xC0 DUP4 ADD CALLDATALOAD DUP3 DUP2 GT ISZERO PUSH2 0x32A3 JUMPI PUSH1 0x0 DUP1 REVERT JUMPDEST PUSH2 0x32AF DUP13 DUP3 DUP7 ADD PUSH2 0x3141 JUMP JUMPDEST PUSH1 0xC0 DUP4 ADD MSTORE POP PUSH2 0x32C1 PUSH1 0xE0 DUP5 ADD PUSH2 0x2FFE JUMP JUMPDEST PUSH1 0xE0 DUP3 ADD MSTORE PUSH2 0x100 DUP4 DUP2 ADD CALLDATALOAD SWAP1 DUP3 ADD MSTORE PUSH2 0x120 PUSH2 0x32DF DUP2 DUP6 ADD PUSH2 0x2FFE JUMP JUMPDEST SWAP1 DUP3 ADD MSTORE PUSH2 0x140 DUP4 DUP2 ADD CALLDATALOAD DUP4 DUP2 GT ISZERO PUSH2 0x32F7 JUMPI PUSH1 0x0 DUP1 REVERT JUMPDEST PUSH2 0x3303 DUP14 DUP3 DUP8 ADD PUSH2 0x3141 JUMP JUMPDEST DUP3 DUP5 ADD MSTORE POP POP DUP1 SWAP9 POP POP PUSH2 0x3319 PUSH1 0x20 DUP11 ADD PUSH2 0x2FFE JUMP JUMPDEST SWAP7 POP PUSH2 0x3327 PUSH1 0x40 DUP11 ADD PUSH2 0x2FFE JUMP JUMPDEST SWAP6 POP PUSH2 0x3335 PUSH1 0x60 DUP11 ADD PUSH2 0x2FFE JUMP JUMPDEST SWAP5 POP PUSH2 0x3343 PUSH1 0x80 DUP11 ADD PUSH2 0x2FFE JUMP JUMPDEST SWAP4 POP PUSH1 0xA0 DUP10 ADD CALLDATALOAD SWAP2 POP DUP1 DUP3 GT ISZERO PUSH2 0x3359 JUMPI PUSH1 0x0 DUP1 REVERT JUMPDEST POP PUSH2 0x3366 DUP10 DUP3 DUP11 ADD PUSH2 0x3161 JUMP JUMPDEST SWAP2 POP POP SWAP3 SWAP6 POP SWAP3 SWAP6 POP SWAP3 SWAP6 JUMP JUMPDEST PUSH1 0x0 DUP1 PUSH1 0x0 PUSH1 0x60 DUP5 DUP7 SUB SLT ISZERO PUSH2 0x3388 JUMPI PUSH1 0x0 DUP1 REVERT JUMPDEST DUP4 CALLDATALOAD PUSH2 0x3393 DUP2 PUSH2 0x2FE9 JUMP JUMPDEST SWAP3 POP PUSH1 0x20 DUP5 ADD CALLDATALOAD PUSH2 0x33A3 DUP2 PUSH2 0x2FE9 JUMP JUMPDEST SWAP3 SWAP6 SWAP3 SWAP5 POP POP POP PUSH1 0x40 SWAP2 SWAP1 SWAP2 ADD CALLDATALOAD SWAP1 JUMP JUMPDEST PUSH1 0x0 DUP1 PUSH1 0x40 DUP4 DUP6 SUB SLT ISZERO PUSH2 0x33C7 JUMPI PUSH1 0x0 DUP1 REVERT JUMPDEST POP POP DUP1 CALLDATALOAD SWAP3 PUSH1 0x20 SWAP1 SWAP2 ADD CALLDATALOAD SWAP2 POP JUMP JUMPDEST PUSH1 0x1 PUSH1 0x1 PUSH1 0xA0 SHL SUB DUP13 DUP2 AND DUP3 MSTORE PUSH1 0x20 DUP3 ADD DUP13 SWAP1 MSTORE PUSH3 0xFFFFFF DUP12 DUP2 AND PUSH1 0x40 DUP5 ADD MSTORE DUP11 DUP2 AND PUSH1 0x60 DUP5 ADD MSTORE DUP10 DUP2 AND PUSH1 0x80 DUP5 ADD MSTORE DUP9 AND PUSH1 0xA0 DUP4 ADD MSTORE PUSH2 0x160 PUSH1 0xC0 DUP4 ADD DUP2 SWAP1 MSTORE PUSH1 0x0 SWAP2 PUSH2 0x3426 DUP5 DUP4 ADD DUP11 PUSH2 0x2F91 JUMP JUMPDEST SWAP2 POP DUP1 DUP9 AND PUSH1 0xE0 DUP6 ADD MSTORE DUP7 PUSH2 0x100 DUP6 ADD MSTORE DUP1 DUP7 AND PUSH2 0x120 DUP6 ADD MSTORE POP DUP3 DUP2 SUB PUSH2 0x140 DUP5 ADD MSTORE PUSH2 0x3454 DUP2 DUP6 PUSH2 0x2F91 JUMP JUMPDEST SWAP15 SWAP14 POP POP POP POP POP POP POP POP POP POP POP POP POP POP JUMP JUMPDEST PUSH1 0x0 DUP1 PUSH1 0x0 PUSH1 0x60 DUP5 DUP7 SUB SLT ISZERO PUSH2 0x347B JUMPI PUSH1 0x0 DUP1 REVERT JUMPDEST DUP4 CALLDATALOAD SWAP3 POP PUSH1 0x20 DUP5 ADD CALLDATALOAD PUSH2 0x33A3 DUP2 PUSH2 0x2FE9 JUMP JUMPDEST DUP1 ISZERO ISZERO DUP2 EQ PUSH2 0xD55 JUMPI PUSH1 0x0 DUP1 REVERT JUMPDEST PUSH1 0x0 DUP1 PUSH1 0x40 DUP4 DUP6 SUB SLT ISZERO PUSH2 0x34AE JUMPI PUSH1 0x0 DUP1 REVERT JUMPDEST DUP3 CALLDATALOAD PUSH2 0x34B9 DUP2 PUSH2 0x2FE9 JUMP JUMPDEST SWAP2 POP PUSH1 0x20 DUP4 ADD CALLDATALOAD PUSH2 0x34C9 DUP2 PUSH2 0x348D JUMP JUMPDEST DUP1 SWAP2 POP POP SWAP3 POP SWAP3 SWAP1 POP JUMP JUMPDEST PUSH1 0x0 DUP1 PUSH1 0x0 DUP1 PUSH1 0x80 DUP6 DUP8 SUB SLT ISZERO PUSH2 0x34EA JUMPI PUSH1 0x0 DUP1 REVERT JUMPDEST DUP5 CALLDATALOAD PUSH2 0x34F5 DUP2 PUSH2 0x2FE9 JUMP JUMPDEST SWAP4 POP PUSH1 0x20 DUP6 ADD CALLDATALOAD PUSH2 0x3505 DUP2 PUSH2 0x2FE9 JUMP JUMPDEST SWAP3 POP PUSH1 0x40 DUP6 ADD CALLDATALOAD SWAP2 POP PUSH1 0x60 DUP6 ADD CALLDATALOAD PUSH8 0xFFFFFFFFFFFFFFFF DUP2 GT ISZERO PUSH2 0x3528 JUMPI PUSH1 0x0 DUP1 REVERT JUMPDEST DUP6 ADD PUSH1 0x1F DUP2 ADD DUP8 SGT PUSH2 0x3539 JUMPI PUSH1 0x0 DUP1 REVERT JUMPDEST PUSH2 0x3548 DUP8 DUP3 CALLDATALOAD PUSH1 0x20 DUP5 ADD PUSH2 0x3103 JUMP JUMPDEST SWAP2 POP POP SWAP3 SWAP6 SWAP2 SWAP5 POP SWAP3 POP JUMP JUMPDEST PUSH1 0x0 DUP1 PUSH1 0x40 DUP4 DUP6 SUB SLT ISZERO PUSH2 0x3567 JUMPI PUSH1 0x0 DUP1 REVERT JUMPDEST DUP3 CALLDATALOAD PUSH2 0x3572 DUP2 PUSH2 0x2FE9 JUMP JUMPDEST SWAP2 POP PUSH1 0x20 DUP4 ADD CALLDATALOAD PUSH2 0x34C9 DUP2 PUSH2 0x2FE9 JUMP JUMPDEST PUSH1 0x1 DUP2 DUP2 SHR SWAP1 DUP3 AND DUP1 PUSH2 0x3596 JUMPI PUSH1 0x7F DUP3 AND SWAP2 POP JUMPDEST PUSH1 0x20 DUP3 LT DUP2 EQ ISZERO PUSH2 0x35B7 JUMPI PUSH4 0x4E487B71 PUSH1 0xE0 SHL PUSH1 0x0 MSTORE PUSH1 0x22 PUSH1 0x4 MSTORE PUSH1 0x24 PUSH1 0x0 REVERT JUMPDEST POP SWAP2 SWAP1 POP JUMP JUMPDEST PUSH1 0x0 PUSH1 0x20 DUP3 DUP5 SUB SLT ISZERO PUSH2 0x35CF JUMPI PUSH1 0x0 DUP1 REVERT JUMPDEST POP MLOAD SWAP2 SWAP1 POP JUMP JUMPDEST PUSH1 0x0 PUSH1 0x20 DUP3 DUP5 SUB SLT ISZERO PUSH2 0x35E8 JUMPI PUSH1 0x0 DUP1 REVERT JUMPDEST DUP2 MLOAD PUSH8 0xFFFFFFFFFFFFFFFF DUP2 GT ISZERO PUSH2 0x35FF JUMPI PUSH1 0x0 DUP1 REVERT JUMPDEST DUP3 ADD PUSH1 0x1F DUP2 ADD DUP5 SGT PUSH2 0x3610 JUMPI PUSH1 0x0 DUP1 REVERT JUMPDEST DUP1 MLOAD PUSH2 0x361E PUSH2 0x3111 DUP3 PUSH2 0x30DB JUMP JUMPDEST DUP2 DUP2 MSTORE DUP6 PUSH1 0x20 DUP4 DUP6 ADD ADD GT ISZERO PUSH2 0x3633 JUMPI PUSH1 0x0 DUP1 REVERT JUMPDEST PUSH2 0x3644 DUP3 PUSH1 0x20 DUP4 ADD PUSH1 0x20 DUP7 ADD PUSH2 0x2F65 JUMP JUMPDEST SWAP6 SWAP5 POP POP POP POP POP JUMP JUMPDEST PUSH4 0x4E487B71 PUSH1 0xE0 SHL PUSH1 0x0 MSTORE PUSH1 0x11 PUSH1 0x4 MSTORE PUSH1 0x24 PUSH1 0x0 REVERT JUMPDEST PUSH1 0x0 PUSH3 0xFFFFFF DUP1 DUP4 AND DUP2 DUP2 EQ ISZERO PUSH2 0x367C JUMPI PUSH2 0x367C PUSH2 0x364D JUMP JUMPDEST PUSH1 0x1 ADD SWAP4 SWAP3 POP POP POP JUMP JUMPDEST PUSH1 0x0 PUSH3 0xFFFFFF DUP1 DUP4 AND DUP2 DUP6 AND DUP1 DUP4 SUB DUP3 GT ISZERO PUSH2 0x36A4 JUMPI PUSH2 0x36A4 PUSH2 0x364D JUMP JUMPDEST ADD SWAP5 SWAP4 POP POP POP POP JUMP JUMPDEST PUSH1 0x0 DUP2 PUSH1 0x0 NOT DIV DUP4 GT DUP3 ISZERO ISZERO AND ISZERO PUSH2 0x36C7 JUMPI PUSH2 0x36C7 PUSH2 0x364D JUMP JUMPDEST POP MUL SWAP1 JUMP JUMPDEST PUSH1 0x0 DUP3 NOT DUP3 GT ISZERO PUSH2 0x36DF JUMPI PUSH2 0x36DF PUSH2 0x364D JUMP JUMPDEST POP ADD SWAP1 JUMP JUMPDEST PUSH4 0x4E487B71 PUSH1 0xE0 SHL PUSH1 0x0 MSTORE PUSH1 0x32 PUSH1 0x4 MSTORE PUSH1 0x24 PUSH1 0x0 REVERT JUMPDEST PUSH1 0x0 PUSH1 0x0 NOT DUP3 EQ ISZERO PUSH2 0x370E JUMPI PUSH2 0x370E PUSH2 0x364D JUMP JUMPDEST POP PUSH1 0x1 ADD SWAP1 JUMP JUMPDEST PUSH1 0x0 PUSH1 0x20 DUP3 DUP5 SUB SLT ISZERO PUSH2 0x3727 JUMPI PUSH1 0x0 DUP1 REVERT JUMPDEST DUP2 MLOAD PUSH2 0x2F5E DUP2 PUSH2 0x2FE9 JUMP JUMPDEST PUSH1 0x0 DUP3 PUSH2 0x374F JUMPI PUSH4 0x4E487B71 PUSH1 0xE0 SHL PUSH1 0x0 MSTORE PUSH1 0x12 PUSH1 0x4 MSTORE PUSH1 0x24 PUSH1 0x0 REVERT JUMPDEST POP DIV SWAP1 JUMP JUMPDEST PUSH1 0x0 DUP3 DUP3 LT ISZERO PUSH2 0x3766 JUMPI PUSH2 0x3766 PUSH2 0x364D JUMP JUMPDEST POP SUB SWAP1 JUMP JUMPDEST PUSH1 0x0 PUSH1 0x20 DUP3 DUP5 SUB SLT ISZERO PUSH2 0x377D JUMPI PUSH1 0x0 DUP1 REVERT JUMPDEST DUP2 MLOAD PUSH2 0x2F5E DUP2 PUSH2 0x348D JUMP JUMPDEST PUSH1 0x20 DUP1 DUP3 MSTORE PUSH1 0x2D SWAP1 DUP3 ADD MSTORE PUSH32 0x4552433732313A2063616C6C6572206973206E6F7420746F6B656E206F776E65 PUSH1 0x40 DUP3 ADD MSTORE PUSH13 0x1C881BDC88185C1C1C9BDD9959 PUSH1 0x9A SHL PUSH1 0x60 DUP3 ADD MSTORE PUSH1 0x80 ADD SWAP1 JUMP JUMPDEST PUSH1 0x20 DUP1 DUP3 MSTORE PUSH1 0x32 SWAP1 DUP3 ADD MSTORE PUSH32 0x4552433732313A207472616E7366657220746F206E6F6E204552433732315265 PUSH1 0x40 DUP3 ADD MSTORE PUSH18 0x31B2B4BB32B91034B6B83632B6B2B73A32B9 PUSH1 0x71 SHL PUSH1 0x60 DUP3 ADD MSTORE PUSH1 0x80 ADD SWAP1 JUMP JUMPDEST PUSH1 0x1 PUSH1 0x1 PUSH1 0xA0 SHL SUB DUP6 DUP2 AND DUP3 MSTORE DUP5 AND PUSH1 0x20 DUP3 ADD MSTORE PUSH1 0x40 DUP2 ADD DUP4 SWAP1 MSTORE PUSH1 0x80 PUSH1 0x60 DUP3 ADD DUP2 SWAP1 MSTORE PUSH1 0x0 SWAP1 PUSH2 0x385A SWAP1 DUP4 ADD DUP5 PUSH2 0x2F91 JUMP JUMPDEST SWAP7 SWAP6 POP POP POP POP POP POP JUMP JUMPDEST PUSH1 0x0 PUSH1 0x20 DUP3 DUP5 SUB SLT ISZERO PUSH2 0x3876 JUMPI PUSH1 0x0 DUP1 REVERT JUMPDEST DUP2 MLOAD PUSH2 0x2F5E DUP2 PUSH2 0x2F2B JUMP JUMPDEST PUSH1 0x20 DUP1 DUP3 MSTORE PUSH1 0x25 SWAP1 DUP3 ADD MSTORE PUSH32 0x4552433732313A207472616E736665722066726F6D20696E636F727265637420 PUSH1 0x40 DUP3 ADD MSTORE PUSH5 0x37BBB732B9 PUSH1 0xD9 SHL PUSH1 0x60 DUP3 ADD MSTORE PUSH1 0x80 ADD SWAP1 JUMP INVALID LOG2 PUSH5 0x6970667358 0x22 SLT KECCAK256 PUSH25 0x1B665DC3B1ECEC7645165120EAD22C2A2E8EF365E62F7F59D6 0xCA LT 0xA6 0x24 PUSH32 0x2864736F6C634300080C00330000000000000000000000000000000000000000 "},"methodIdentifiers":{"OPERATOR_FILTER_REGISTRY()":"41f43434","_admin()":"01bc45c9","_nameCol()":"452fa3d3","_paramsAddress()":"adfc7dae","_project()":"775bff9f","_projectDataContextAddr()":"575b57ea","_randomizer()":"ffc27c0e","_symbolCol()":"36a0a6cb","approve(address,uint256)":"095ea7b3","balanceOf(address)":"70a08231","changeAdmin(address)":"8f283970","changeDataContextAddr(address)":"472f1e02","changeParamAddr(address)":"febfd6c3","changeRandomizerAddr(address)":"1ca9741b","getApproved(uint256)":"081812fc","init((address,uint256,uint24,uint24,uint24,uint24,string,address,uint256,address,string),address,address,address,address,address[])":"1faaa3b6","isApprovedForAll(address,address)":"e985e9c5","mint()":"1249c58b","name()":"06fdde03","owner()":"8da5cb5b","ownerOf(uint256)":"6352211e","pause()":"8456cb59","paused()":"5c975abb","renounceOwnership()":"715018a6","reserveMint()":"21c8d676","royalties(uint256)":"7f77f574","royaltyInfo(uint256,uint256)":"2a55205a","safeTransferFrom(address,address,uint256)":"42842e0e","safeTransferFrom(address,address,uint256,bytes)":"b88d4fde","setApprovalForAll(address,bool)":"a22cb465","setTokenRoyalty(uint256,address,uint256)":"9713c807","supportsInterface(bytes4)":"01ffc9a7","symbol()":"95d89b41","tokenGenerativeURI(uint256)":"10da88c5","tokenIdToHash(uint256)":"621a1f74","tokenURI(uint256)":"c87b56dd","transferFrom(address,address,uint256)":"23b872dd","transferOwnership(address)":"f2fde38b","unpause()":"3f4ba83a"}},"storageLayout":{"storage":[{"astId":1691,"contract":"contracts/nfts/GenerativeNFT.sol:GenerativeNFT","label":"_name","offset":0,"slot":"0","type":"t_string_storage"},{"astId":1693,"contract":"contracts/nfts/GenerativeNFT.sol:GenerativeNFT","label":"_symbol","offset":0,"slot":"1","type":"t_string_storage"},{"astId":1697,"contract":"contracts/nfts/GenerativeNFT.sol:GenerativeNFT","label":"_owners","offset":0,"slot":"2","type":"t_mapping(t_uint256,t_address)"},{"astId":1701,"contract":"contracts/nfts/GenerativeNFT.sol:GenerativeNFT","label":"_balances","offset":0,"slot":"3","type":"t_mapping(t_address,t_uint256)"},{"astId":1705,"contract":"contracts/nfts/GenerativeNFT.sol:GenerativeNFT","label":"_tokenApprovals","offset":0,"slot":"4","type":"t_mapping(t_uint256,t_address)"},{"astId":1711,"contract":"contracts/nfts/GenerativeNFT.sol:GenerativeNFT","label":"_operatorApprovals","offset":0,"slot":"5","type":"t_mapping(t_address,t_mapping(t_address,t_bool))"},{"astId":1443,"contract":"contracts/nfts/GenerativeNFT.sol:GenerativeNFT","label":"_paused","offset":0,"slot":"6","type":"t_bool"},{"astId":1544,"contract":"contracts/nfts/GenerativeNFT.sol:GenerativeNFT","label":"_status","offset":0,"slot":"7","type":"t_uint256"},{"astId":1301,"contract":"contracts/nfts/GenerativeNFT.sol:GenerativeNFT","label":"_owner","offset":0,"slot":"8","type":"t_address"},{"astId":6421,"contract":"contracts/nfts/GenerativeNFT.sol:GenerativeNFT","label":"_ownersAndHashSeeds","offset":0,"slot":"9","type":"t_mapping(t_uint256,t_struct(OwnerSeed)6317_storage)"},{"astId":6423,"contract":"contracts/nfts/GenerativeNFT.sol:GenerativeNFT","label":"_admin","offset":0,"slot":"10","type":"t_address"},{"astId":6425,"contract":"contracts/nfts/GenerativeNFT.sol:GenerativeNFT","label":"_paramsAddress","offset":0,"slot":"11","type":"t_address"},{"astId":6427,"contract":"contracts/nfts/GenerativeNFT.sol:GenerativeNFT","label":"_randomizer","offset":0,"slot":"12","type":"t_address"},{"astId":6429,"contract":"contracts/nfts/GenerativeNFT.sol:GenerativeNFT","label":"_projectDataContextAddr","offset":0,"slot":"13","type":"t_address"},{"astId":6431,"contract":"contracts/nfts/GenerativeNFT.sol:GenerativeNFT","label":"_nameCol","offset":0,"slot":"14","type":"t_string_storage"},{"astId":6433,"contract":"contracts/nfts/GenerativeNFT.sol:GenerativeNFT","label":"_symbolCol","offset":0,"slot":"15","type":"t_string_storage"},{"astId":6798,"contract":"contracts/nfts/GenerativeNFT.sol:GenerativeNFT","label":"royalties","offset":0,"slot":"16","type":"t_mapping(t_uint256,t_struct(RoyaltyInfo)6399_storage)"},{"astId":6801,"contract":"contracts/nfts/GenerativeNFT.sol:GenerativeNFT","label":"_project","offset":0,"slot":"17","type":"t_struct(ProjectMinting)6389_storage"},{"astId":6805,"contract":"contracts/nfts/GenerativeNFT.sol:GenerativeNFT","label":"_reserves","offset":0,"slot":"25","type":"t_mapping(t_address,t_bool)"}],"types":{"t_address":{"encoding":"inplace","label":"address","numberOfBytes":"20"},"t_bool":{"encoding":"inplace","label":"bool","numberOfBytes":"1"},"t_bytes12":{"encoding":"inplace","label":"bytes12","numberOfBytes":"12"},"t_mapping(t_address,t_bool)":{"encoding":"mapping","key":"t_address","label":"mapping(address => bool)","numberOfBytes":"32","value":"t_bool"},"t_mapping(t_address,t_mapping(t_address,t_bool))":{"encoding":"mapping","key":"t_address","label":"mapping(address => mapping(address => bool))","numberOfBytes":"32","value":"t_mapping(t_address,t_bool)"},"t_mapping(t_address,t_uint256)":{"encoding":"mapping","key":"t_address","label":"mapping(address => uint256)","numberOfBytes":"32","value":"t_uint256"},"t_mapping(t_uint256,t_address)":{"encoding":"mapping","key":"t_uint256","label":"mapping(uint256 => address)","numberOfBytes":"32","value":"t_address"},"t_mapping(t_uint256,t_struct(OwnerSeed)6317_storage)":{"encoding":"mapping","key":"t_uint256","label":"mapping(uint256 => struct NFTCollection.OwnerSeed)","numberOfBytes":"32","value":"t_struct(OwnerSeed)6317_storage"},"t_mapping(t_uint256,t_struct(RoyaltyInfo)6399_storage)":{"encoding":"mapping","key":"t_uint256","label":"mapping(uint256 => struct Royalty.RoyaltyInfo)","numberOfBytes":"32","value":"t_struct(RoyaltyInfo)6399_storage"},"t_string_storage":{"encoding":"bytes","label":"string","numberOfBytes":"32"},"t_struct(OwnerSeed)6317_storage":{"encoding":"inplace","label":"struct NFTCollection.OwnerSeed","members":[{"astId":6314,"contract":"contracts/nfts/GenerativeNFT.sol:GenerativeNFT","label":"_owner","offset":0,"slot":"0","type":"t_address"},{"astId":6316,"contract":"contracts/nfts/GenerativeNFT.sol:GenerativeNFT","label":"_seed","offset":20,"slot":"0","type":"t_bytes12"}],"numberOfBytes":"32"},"t_struct(ProjectMinting)6389_storage":{"encoding":"inplace","label":"struct NFTProject.ProjectMinting","members":[{"astId":6368,"contract":"contracts/nfts/GenerativeNFT.sol:GenerativeNFT","label":"_projectAddr","offset":0,"slot":"0","type":"t_address"},{"astId":6370,"contract":"contracts/nfts/GenerativeNFT.sol:GenerativeNFT","label":"_projectId","offset":0,"slot":"1","type":"t_uint256"},{"astId":6372,"contract":"contracts/nfts/GenerativeNFT.sol:GenerativeNFT","label":"_maxSupply","offset":0,"slot":"2","type":"t_uint24"},{"astId":6374,"contract":"contracts/nfts/GenerativeNFT.sol:GenerativeNFT","label":"_limit","offset":3,"slot":"2","type":"t_uint24"},{"astId":6376,"contract":"contracts/nfts/GenerativeNFT.sol:GenerativeNFT","label":"_index","offset":6,"slot":"2","type":"t_uint24"},{"astId":6378,"contract":"contracts/nfts/GenerativeNFT.sol:GenerativeNFT","label":"_indexReserve","offset":9,"slot":"2","type":"t_uint24"},{"astId":6380,"contract":"contracts/nfts/GenerativeNFT.sol:GenerativeNFT","label":"_creator","offset":0,"slot":"3","type":"t_string_storage"},{"astId":6382,"contract":"contracts/nfts/GenerativeNFT.sol:GenerativeNFT","label":"_creatorAddr","offset":0,"slot":"4","type":"t_address"},{"astId":6384,"contract":"contracts/nfts/GenerativeNFT.sol:GenerativeNFT","label":"_mintPrice","offset":0,"slot":"5","type":"t_uint256"},{"astId":6386,"contract":"contracts/nfts/GenerativeNFT.sol:GenerativeNFT","label":"_mintPriceAddr","offset":0,"slot":"6","type":"t_address"},{"astId":6388,"contract":"contracts/nfts/GenerativeNFT.sol:GenerativeNFT","label":"_name","offset":0,"slot":"7","type":"t_string_storage"}],"numberOfBytes":"256"},"t_struct(RoyaltyInfo)6399_storage":{"encoding":"inplace","label":"struct Royalty.RoyaltyInfo","members":[{"astId":6394,"contract":"contracts/nfts/GenerativeNFT.sol:GenerativeNFT","label":"recipient","offset":0,"slot":"0","type":"t_address"},{"astId":6396,"contract":"contracts/nfts/GenerativeNFT.sol:GenerativeNFT","label":"amount","offset":20,"slot":"0","type":"t_uint24"},{"astId":6398,"contract":"contracts/nfts/GenerativeNFT.sol:GenerativeNFT","label":"isValue","offset":23,"slot":"0","type":"t_bool"}],"numberOfBytes":"32"},"t_uint24":{"encoding":"inplace","label":"uint24","numberOfBytes":"3"},"t_uint256":{"encoding":"inplace","label":"uint256","numberOfBytes":"32"}}}}}}