{"contracts/libs/configs/GenerativeNFTConfigs.sol":{"GenerativeNFTConfigs":{"abi":[{"inputs":[],"name":"DEFAULT_ROYALTY_FIN_PERCENT","outputs":[{"internalType":"string","name":"","type":"string"}],"stateMutability":"view","type":"function"},{"inputs":[],"name":"MINT_NFT_OPERATOR_FEE","outputs":[{"internalType":"string","name":"","type":"string"}],"stateMutability":"view","type":"function"},{"inputs":[],"name":"PROJECT_PADDING","outputs":[{"internalType":"uint256","name":"","type":"uint256"}],"stateMutability":"view","type":"function"},{"inputs":[],"name":"ROYALTY_FIN_ADDRESS","outputs":[{"internalType":"string","name":"","type":"string"}],"stateMutability":"view","type":"function"}],"evm":{"bytecode":{"linkReferences":{},"object":"6101b661003a600b82828239805160001a60731461002d57634e487b7160e01b600052600060045260246000fd5b30600052607381538281f3fe73000000000000000000000000000000000000000030146080604052600436106100565760003560e01c806381f6b8d31461005b57806393accc40146100a5578063c8fce783146100e1578063cb0d7f27146100f9575b600080fd5b61008f604051806040016040528060158152602001744d494e545f4e46545f4f50455241544f525f46454560581b81525081565b60405161009c919061012b565b60405180910390f35b61008f6040518060400160405280601b81526020017f44454641554c545f524f59414c54595f46494e5f50455243454e54000000000081525081565b6100eb620f424081565b60405190815260200161009c565b61008f60405180604001604052806013815260200172524f59414c54595f46494e5f4144445245535360681b81525081565b600060208083528351808285015260005b818110156101585785810183015185820160400152820161013c565b8181111561016a576000604083870101525b50601f01601f191692909201604001939250505056fea264697066735822122060f16109c3028b7023e5c9745a4c6390e77f7c63eb7d955f2d7397d5c28f55c664736f6c634300080c0033","opcodes":"PUSH2 0x1B6 PUSH2 0x3A PUSH1 0xB DUP3 DUP3 DUP3 CODECOPY DUP1 MLOAD PUSH1 0x0 BYTE PUSH1 0x73 EQ PUSH2 0x2D JUMPI PUSH4 0x4E487B71 PUSH1 0xE0 SHL PUSH1 0x0 MSTORE PUSH1 0x0 PUSH1 0x4 MSTORE PUSH1 0x24 PUSH1 0x0 REVERT JUMPDEST ADDRESS PUSH1 0x0 MSTORE PUSH1 0x73 DUP2 MSTORE8 DUP3 DUP2 RETURN INVALID PUSH20 0x0 ADDRESS EQ PUSH1 0x80 PUSH1 0x40 MSTORE PUSH1 0x4 CALLDATASIZE LT PUSH2 0x56 JUMPI PUSH1 0x0 CALLDATALOAD PUSH1 0xE0 SHR DUP1 PUSH4 0x81F6B8D3 EQ PUSH2 0x5B JUMPI DUP1 PUSH4 0x93ACCC40 EQ PUSH2 0xA5 JUMPI DUP1 PUSH4 0xC8FCE783 EQ PUSH2 0xE1 JUMPI DUP1 PUSH4 0xCB0D7F27 EQ PUSH2 0xF9 JUMPI JUMPDEST PUSH1 0x0 DUP1 REVERT JUMPDEST PUSH2 0x8F PUSH1 0x40 MLOAD DUP1 PUSH1 0x40 ADD PUSH1 0x40 MSTORE DUP1 PUSH1 0x15 DUP2 MSTORE PUSH1 0x20 ADD PUSH21 0x4D494E545F4E46545F4F50455241544F525F464545 PUSH1 0x58 SHL DUP2 MSTORE POP DUP2 JUMP JUMPDEST PUSH1 0x40 MLOAD PUSH2 0x9C SWAP2 SWAP1 PUSH2 0x12B JUMP JUMPDEST PUSH1 0x40 MLOAD DUP1 SWAP2 SUB SWAP1 RETURN JUMPDEST PUSH2 0x8F PUSH1 0x40 MLOAD DUP1 PUSH1 0x40 ADD PUSH1 0x40 MSTORE DUP1 PUSH1 0x1B DUP2 MSTORE PUSH1 0x20 ADD PUSH32 0x44454641554C545F524F59414C54595F46494E5F50455243454E540000000000 DUP2 MSTORE POP DUP2 JUMP JUMPDEST PUSH2 0xEB PUSH3 0xF4240 DUP2 JUMP JUMPDEST PUSH1 0x40 MLOAD SWAP1 DUP2 MSTORE PUSH1 0x20 ADD PUSH2 0x9C JUMP JUMPDEST PUSH2 0x8F PUSH1 0x40 MLOAD DUP1 PUSH1 0x40 ADD PUSH1 0x40 MSTORE DUP1 PUSH1 0x13 DUP2 MSTORE PUSH1 0x20 ADD PUSH19 0x524F59414C54595F46494E5F41444452455353 PUSH1 0x68 SHL DUP2 MSTORE POP DUP2 JUMP JUMPDEST PUSH1 0x0 PUSH1 0x20 DUP1 DUP4 MSTORE DUP4 MLOAD DUP1 DUP3 DUP6 ADD MSTORE PUSH1 0x0 JUMPDEST DUP2 DUP2 LT ISZERO PUSH2 0x158 JUMPI DUP6 DUP2 ADD DUP4 ADD MLOAD DUP6 DUP3 ADD PUSH1 0x40 ADD MSTORE DUP3 ADD PUSH2 0x13C JUMP JUMPDEST DUP2 DUP2 GT ISZERO PUSH2 0x16A JUMPI PUSH1 0x0 PUSH1 0x40 DUP4 DUP8 ADD ADD MSTORE JUMPDEST POP PUSH1 0x1F ADD PUSH1 0x1F NOT AND SWAP3 SWAP1 SWAP3 ADD PUSH1 0x40 ADD SWAP4 SWAP3 POP POP POP JUMP INVALID LOG2 PUSH5 0x6970667358 0x22 SLT KECCAK256 PUSH1 0xF1 PUSH2 0x9C3 MUL DUP12 PUSH17 0x23E5C9745A4C6390E77F7C63EB7D955F2D PUSH20 0x97D5C28F55C664736F6C634300080C0033000000 "},"methodIdentifiers":{"DEFAULT_ROYALTY_FIN_PERCENT()":"93accc40","MINT_NFT_OPERATOR_FEE()":"81f6b8d3","PROJECT_PADDING()":"c8fce783","ROYALTY_FIN_ADDRESS()":"cb0d7f27"}},"storageLayout":{"storage":[],"types":null}}}}