{"contracts/libs/configs/GENDaoConfigs.sol":{"GENDaoConfigs":{"abi":[{"inputs":[],"name":"GEN_TOKEN","outputs":[{"internalType":"string","name":"","type":"string"}],"stateMutability":"view","type":"function"},{"inputs":[],"name":"OPERATOR_TREASURE_ADDR","outputs":[{"internalType":"string","name":"","type":"string"}],"stateMutability":"view","type":"function"}],"evm":{"bytecode":{"linkReferences":{},"object":"61014a61003a600b82828239805160001a60731461002d57634e487b7160e01b600052600060045260246000fd5b30600052607381538281f3fe73000000000000000000000000000000000000000030146080604052600436106100405760003560e01c8063580f55e914610045578063655eb99514610097575b600080fd5b6100816040518060400160405280601f81526020017f4d494e545f4e46545f4f50455241544f525f54524541535552455f414444520081525081565b60405161008e91906100bf565b60405180910390f35b6100816040518060400160405280600981526020016823a2a72faa27a5a2a760b91b81525081565b600060208083528351808285015260005b818110156100ec578581018301518582016040015282016100d0565b818111156100fe576000604083870101525b50601f01601f191692909201604001939250505056fea2646970667358221220d12820e7dac5e40349eaca07f5d794ead0a539a9da0090d45b6a10f62c92812964736f6c634300080c0033","opcodes":"PUSH2 0x14A PUSH2 0x3A PUSH1 0xB DUP3 DUP3 DUP3 CODECOPY DUP1 MLOAD PUSH1 0x0 BYTE PUSH1 0x73 EQ PUSH2 0x2D JUMPI PUSH4 0x4E487B71 PUSH1 0xE0 SHL PUSH1 0x0 MSTORE PUSH1 0x0 PUSH1 0x4 MSTORE PUSH1 0x24 PUSH1 0x0 REVERT JUMPDEST ADDRESS PUSH1 0x0 MSTORE PUSH1 0x73 DUP2 MSTORE8 DUP3 DUP2 RETURN INVALID PUSH20 0x0 ADDRESS EQ PUSH1 0x80 PUSH1 0x40 MSTORE PUSH1 0x4 CALLDATASIZE LT PUSH2 0x40 JUMPI PUSH1 0x0 CALLDATALOAD PUSH1 0xE0 SHR DUP1 PUSH4 0x580F55E9 EQ PUSH2 0x45 JUMPI DUP1 PUSH4 0x655EB995 EQ PUSH2 0x97 JUMPI JUMPDEST PUSH1 0x0 DUP1 REVERT JUMPDEST PUSH2 0x81 PUSH1 0x40 MLOAD DUP1 PUSH1 0x40 ADD PUSH1 0x40 MSTORE DUP1 PUSH1 0x1F DUP2 MSTORE PUSH1 0x20 ADD PUSH32 0x4D494E545F4E46545F4F50455241544F525F54524541535552455F4144445200 DUP2 MSTORE POP DUP2 JUMP JUMPDEST PUSH1 0x40 MLOAD PUSH2 0x8E SWAP2 SWAP1 PUSH2 0xBF JUMP JUMPDEST PUSH1 0x40 MLOAD DUP1 SWAP2 SUB SWAP1 RETURN JUMPDEST PUSH2 0x81 PUSH1 0x40 MLOAD DUP1 PUSH1 0x40 ADD PUSH1 0x40 MSTORE DUP1 PUSH1 0x9 DUP2 MSTORE PUSH1 0x20 ADD PUSH9 0x23A2A72FAA27A5A2A7 PUSH1 0xB9 SHL DUP2 MSTORE POP DUP2 JUMP JUMPDEST PUSH1 0x0 PUSH1 0x20 DUP1 DUP4 MSTORE DUP4 MLOAD DUP1 DUP3 DUP6 ADD MSTORE PUSH1 0x0 JUMPDEST DUP2 DUP2 LT ISZERO PUSH2 0xEC JUMPI DUP6 DUP2 ADD DUP4 ADD MLOAD DUP6 DUP3 ADD PUSH1 0x40 ADD MSTORE DUP3 ADD PUSH2 0xD0 JUMP JUMPDEST DUP2 DUP2 GT ISZERO PUSH2 0xFE JUMPI PUSH1 0x0 PUSH1 0x40 DUP4 DUP8 ADD ADD MSTORE JUMPDEST POP PUSH1 0x1F ADD PUSH1 0x1F NOT AND SWAP3 SWAP1 SWAP3 ADD PUSH1 0x40 ADD SWAP4 SWAP3 POP POP POP JUMP INVALID LOG2 PUSH5 0x6970667358 0x22 SLT KECCAK256 0xD1 0x28 KECCAK256 0xE7 0xDA 0xC5 0xE4 SUB 0x49 0xEA 0xCA SMOD CREATE2 0xD7 SWAP5 0xEA 0xD0 0xA5 CODECOPY 0xA9 0xDA STOP SWAP1 0xD4 JUMPDEST PUSH11 0x10F62C92812964736F6C63 NUMBER STOP ADDMOD 0xC STOP CALLER "},"methodIdentifiers":{"GEN_TOKEN()":"655eb995","OPERATOR_TREASURE_ADDR()":"580f55e9"}},"storageLayout":{"storage":[],"types":null}}}}