{"contracts/libs/configs/RoyaltyFinanceSecondSaleConfigs.sol":{"RoyaltyFinanceSecondSaleConfigs":{"abi":[{"inputs":[],"name":"DEFAULT_OWNER_ROYALTY_SECOND_SALE","outputs":[{"internalType":"uint256","name":"","type":"uint256"}],"stateMutability":"view","type":"function"},{"inputs":[],"name":"OWNER_ROYALTY_SECOND_SALE","outputs":[{"internalType":"string","name":"","type":"string"}],"stateMutability":"view","type":"function"}],"evm":{"bytecode":{"linkReferences":{},"object":"61012e61003a600b82828239805160001a60731461002d57634e487b7160e01b600052600060045260246000fd5b30600052607381538281f3fe7300000000000000000000000000000000000000003014608060405260043610603d5760003560e01c80639669983a146042578063b0cc145a146091575b600080fd5b607d6040518060400160405280601981526020017f4f574e45525f524f59414c54595f5345434f4e445f53414c450000000000000081525081565b6040516088919060a6565b60405180910390f35b609961232881565b6040519081526020016088565b600060208083528351808285015260005b8181101560d15785810183015185820160400152820160b7565b8181111560e2576000604083870101525b50601f01601f191692909201604001939250505056fea264697066735822122043b4dc845b17af97c06fdba137e5cd3c18c00440bb1eb1ab1ebabfff5ca7d99864736f6c634300080c0033","opcodes":"PUSH2 0x12E PUSH2 0x3A PUSH1 0xB DUP3 DUP3 DUP3 CODECOPY DUP1 MLOAD PUSH1 0x0 BYTE PUSH1 0x73 EQ PUSH2 0x2D JUMPI PUSH4 0x4E487B71 PUSH1 0xE0 SHL PUSH1 0x0 MSTORE PUSH1 0x0 PUSH1 0x4 MSTORE PUSH1 0x24 PUSH1 0x0 REVERT JUMPDEST ADDRESS PUSH1 0x0 MSTORE PUSH1 0x73 DUP2 MSTORE8 DUP3 DUP2 RETURN INVALID PUSH20 0x0 ADDRESS EQ PUSH1 0x80 PUSH1 0x40 MSTORE PUSH1 0x4 CALLDATASIZE LT PUSH1 0x3D JUMPI PUSH1 0x0 CALLDATALOAD PUSH1 0xE0 SHR DUP1 PUSH4 0x9669983A EQ PUSH1 0x42 JUMPI DUP1 PUSH4 0xB0CC145A EQ PUSH1 0x91 JUMPI JUMPDEST PUSH1 0x0 DUP1 REVERT JUMPDEST PUSH1 0x7D PUSH1 0x40 MLOAD DUP1 PUSH1 0x40 ADD PUSH1 0x40 MSTORE DUP1 PUSH1 0x19 DUP2 MSTORE PUSH1 0x20 ADD PUSH32 0x4F574E45525F524F59414C54595F5345434F4E445F53414C4500000000000000 DUP2 MSTORE POP DUP2 JUMP JUMPDEST PUSH1 0x40 MLOAD PUSH1 0x88 SWAP2 SWAP1 PUSH1 0xA6 JUMP JUMPDEST PUSH1 0x40 MLOAD DUP1 SWAP2 SUB SWAP1 RETURN JUMPDEST PUSH1 0x99 PUSH2 0x2328 DUP2 JUMP JUMPDEST PUSH1 0x40 MLOAD SWAP1 DUP2 MSTORE PUSH1 0x20 ADD PUSH1 0x88 JUMP JUMPDEST PUSH1 0x0 PUSH1 0x20 DUP1 DUP4 MSTORE DUP4 MLOAD DUP1 DUP3 DUP6 ADD MSTORE PUSH1 0x0 JUMPDEST DUP2 DUP2 LT ISZERO PUSH1 0xD1 JUMPI DUP6 DUP2 ADD DUP4 ADD MLOAD DUP6 DUP3 ADD PUSH1 0x40 ADD MSTORE DUP3 ADD PUSH1 0xB7 JUMP JUMPDEST DUP2 DUP2 GT ISZERO PUSH1 0xE2 JUMPI PUSH1 0x0 PUSH1 0x40 DUP4 DUP8 ADD ADD MSTORE JUMPDEST POP PUSH1 0x1F ADD PUSH1 0x1F NOT AND SWAP3 SWAP1 SWAP3 ADD PUSH1 0x40 ADD SWAP4 SWAP3 POP POP POP JUMP INVALID LOG2 PUSH5 0x6970667358 0x22 SLT KECCAK256 NUMBER 0xB4 0xDC DUP5 JUMPDEST OR 0xAF SWAP8 0xC0 PUSH16 0xDBA137E5CD3C18C00440BB1EB1AB1EBA 0xBF SELFDESTRUCT 0x5C 0xA7 0xD9 SWAP9 PUSH5 0x736F6C6343 STOP ADDMOD 0xC STOP CALLER "},"methodIdentifiers":{"DEFAULT_OWNER_ROYALTY_SECOND_SALE()":"b0cc145a","OWNER_ROYALTY_SECOND_SALE()":"9669983a"}},"storageLayout":{"storage":[],"types":null}}}}