{"@openzeppelin/contracts-upgradeable/finance/PaymentSplitterUpgradeable.sol":{"PaymentSplitterUpgradeable":{"abi":[{"anonymous":false,"inputs":[{"indexed":true,"internalType":"contract IERC20Upgradeable","name":"token","type":"address"},{"indexed":false,"internalType":"address","name":"to","type":"address"},{"indexed":false,"internalType":"uint256","name":"amount","type":"uint256"}],"name":"ERC20PaymentReleased","type":"event"},{"anonymous":false,"inputs":[{"indexed":false,"internalType":"uint8","name":"version","type":"uint8"}],"name":"Initialized","type":"event"},{"anonymous":false,"inputs":[{"indexed":false,"internalType":"address","name":"account","type":"address"},{"indexed":false,"internalType":"uint256","name":"shares","type":"uint256"}],"name":"PayeeAdded","type":"event"},{"anonymous":false,"inputs":[{"indexed":false,"internalType":"address","name":"from","type":"address"},{"indexed":false,"internalType":"uint256","name":"amount","type":"uint256"}],"name":"PaymentReceived","type":"event"},{"anonymous":false,"inputs":[{"indexed":false,"internalType":"address","name":"to","type":"address"},{"indexed":false,"internalType":"uint256","name":"amount","type":"uint256"}],"name":"PaymentReleased","type":"event"},{"inputs":[{"internalType":"uint256","name":"index","type":"uint256"}],"name":"payee","outputs":[{"internalType":"address","name":"","type":"address"}],"stateMutability":"view","type":"function"},{"inputs":[{"internalType":"address","name":"account","type":"address"}],"name":"releasable","outputs":[{"internalType":"uint256","name":"","type":"uint256"}],"stateMutability":"view","type":"function"},{"inputs":[{"internalType":"contract IERC20Upgradeable","name":"token","type":"address"},{"internalType":"address","name":"account","type":"address"}],"name":"releasable","outputs":[{"internalType":"uint256","name":"","type":"uint256"}],"stateMutability":"view","type":"function"},{"inputs":[{"internalType":"address payable","name":"account","type":"address"}],"name":"release","outputs":[],"stateMutability":"nonpayable","type":"function"},{"inputs":[{"internalType":"contract IERC20Upgradeable","name":"token","type":"address"},{"internalType":"address","name":"account","type":"address"}],"name":"release","outputs":[],"stateMutability":"nonpayable","type":"function"},{"inputs":[{"internalType":"contract IERC20Upgradeable","name":"token","type":"address"},{"internalType":"address","name":"account","type":"address"}],"name":"released","outputs":[{"internalType":"uint256","name":"","type":"uint256"}],"stateMutability":"view","type":"function"},{"inputs":[{"internalType":"address","name":"account","type":"address"}],"name":"released","outputs":[{"internalType":"uint256","name":"","type":"uint256"}],"stateMutability":"view","type":"function"},{"inputs":[{"internalType":"address","name":"account","type":"address"}],"name":"shares","outputs":[{"internalType":"uint256","name":"","type":"uint256"}],"stateMutability":"view","type":"function"},{"inputs":[{"internalType":"contract IERC20Upgradeable","name":"token","type":"address"}],"name":"totalReleased","outputs":[{"internalType":"uint256","name":"","type":"uint256"}],"stateMutability":"view","type":"function"},{"inputs":[],"name":"totalReleased","outputs":[{"internalType":"uint256","name":"","type":"uint256"}],"stateMutability":"view","type":"function"},{"inputs":[],"name":"totalShares","outputs":[{"internalType":"uint256","name":"","type":"uint256"}],"stateMutability":"view","type":"function"},{"stateMutability":"payable","type":"receive"}],"evm":{"bytecode":{"linkReferences":{},"object":"608060405234801561001057600080fd5b50610c4b806100206000396000f3fe6080604052600436106100a05760003560e01c80639852595c116100645780639852595c146101d2578063a3f8eace14610208578063c45ac05014610228578063ce7c2ac214610248578063d79779b21461027e578063e33b7de3146102b457600080fd5b806319165587146100ee5780633a98ef3914610110578063406072a91461013457806348b750441461017a5780638b83209b1461019a57600080fd5b366100e9577f6ef95f06320e7a25a04a175ca677b7052bdd97131872c2192525a629f51be77033604080516001600160a01b0390921682523460208301520160405180910390a1005b600080fd5b3480156100fa57600080fd5b5061010e6101093660046109bf565b6102c9565b005b34801561011c57600080fd5b506033545b6040519081526020015b60405180910390f35b34801561014057600080fd5b5061012161014f3660046109dc565b6001600160a01b03918216600090815260396020908152604080832093909416825291909152205490565b34801561018657600080fd5b5061010e6101953660046109dc565b6103b6565b3480156101a657600080fd5b506101ba6101b5366004610a15565b6104c4565b6040516001600160a01b03909116815260200161012b565b3480156101de57600080fd5b506101216101ed3660046109bf565b6001600160a01b031660009081526036602052604090205490565b34801561021457600080fd5b506101216102233660046109bf565b6104f4565b34801561023457600080fd5b506101216102433660046109dc565b61053c565b34801561025457600080fd5b506101216102633660046109bf565b6001600160a01b031660009081526035602052604090205490565b34801561028a57600080fd5b506101216102993660046109bf565b6001600160a01b031660009081526038602052604090205490565b3480156102c057600080fd5b50603454610121565b6001600160a01b0381166000908152603560205260409020546103075760405162461bcd60e51b81526004016102fe90610a2e565b60405180910390fd5b6000610312826104f4565b9050806103315760405162461bcd60e51b81526004016102fe90610a74565b80603460008282546103439190610ad5565b90915550506001600160a01b03821660009081526036602052604090208054820190556103708282610607565b604080516001600160a01b0384168152602081018390527fdf20fd1e76bc69d672e4814fafb2c449bba3a5369d8359adf9e05e6fde87b056910160405180910390a15050565b6001600160a01b0381166000908152603560205260409020546103eb5760405162461bcd60e51b81526004016102fe90610a2e565b60006103f7838361053c565b9050806104165760405162461bcd60e51b81526004016102fe90610a74565b6001600160a01b0383166000908152603860205260408120805483929061043e908490610ad5565b90915550506001600160a01b038084166000908152603960209081526040808320938616835292905220805482019055610479838383610725565b604080516001600160a01b038481168252602082018490528516917f3be5b7a71e84ed12875d241991c70855ac5817d847039e17a9d895c1ceb0f18a910160405180910390a2505050565b6000603782815481106104d9576104d9610aed565b6000918252602090912001546001600160a01b031692915050565b60008061050060345490565b61050a9047610ad5565b90506105358382610530866001600160a01b031660009081526036602052604090205490565b610777565b9392505050565b6001600160a01b03821660009081526038602052604081205481906040516370a0823160e01b81523060048201526001600160a01b038616906370a0823190602401602060405180830381865afa15801561059b573d6000803e3d6000fd5b505050506040513d601f19601f820116820180604052508101906105bf9190610b03565b6105c99190610ad5565b6001600160a01b038086166000908152603960209081526040808320938816835292905220549091506105ff9084908390610777565b949350505050565b804710156106575760405162461bcd60e51b815260206004820152601d60248201527f416464726573733a20696e73756666696369656e742062616c616e636500000060448201526064016102fe565b6000826001600160a01b03168260405160006040518083038185875af1925050503d80600081146106a4576040519150601f19603f3d011682016040523d82523d6000602084013e6106a9565b606091505b50509050806107205760405162461bcd60e51b815260206004820152603a60248201527f416464726573733a20756e61626c6520746f2073656e642076616c75652c207260448201527f6563697069656e74206d6179206861766520726576657274656400000000000060648201526084016102fe565b505050565b604080516001600160a01b038416602482015260448082018490528251808303909101815260649091019091526020810180516001600160e01b031663a9059cbb60e01b1790526107209084906107b5565b6033546001600160a01b038416600090815260356020526040812054909183916107a19086610b1c565b6107ab9190610b3b565b6105ff9190610b5d565b600061080a826040518060400160405280602081526020017f5361666545524332303a206c6f772d6c6576656c2063616c6c206661696c6564815250856001600160a01b03166108879092919063ffffffff16565b80519091501561072057808060200190518101906108289190610b74565b6107205760405162461bcd60e51b815260206004820152602a60248201527f5361666545524332303a204552433230206f7065726174696f6e20646964206e6044820152691bdd081cdd58d8d9595960b21b60648201526084016102fe565b60606105ff848460008585600080866001600160a01b031685876040516108ae9190610bc6565b60006040518083038185875af1925050503d80600081146108eb576040519150601f19603f3d011682016040523d82523d6000602084013e6108f0565b606091505b50915091506109018783838761090c565b979650505050505050565b60608315610978578251610971576001600160a01b0385163b6109715760405162461bcd60e51b815260206004820152601d60248201527f416464726573733a2063616c6c20746f206e6f6e2d636f6e747261637400000060448201526064016102fe565b50816105ff565b6105ff838381511561098d5781518083602001fd5b8060405162461bcd60e51b81526004016102fe9190610be2565b6001600160a01b03811681146109bc57600080fd5b50565b6000602082840312156109d157600080fd5b8135610535816109a7565b600080604083850312156109ef57600080fd5b82356109fa816109a7565b91506020830135610a0a816109a7565b809150509250929050565b600060208284031215610a2757600080fd5b5035919050565b60208082526026908201527f5061796d656e7453706c69747465723a206163636f756e7420686173206e6f2060408201526573686172657360d01b606082015260800190565b6020808252602b908201527f5061796d656e7453706c69747465723a206163636f756e74206973206e6f742060408201526a191d59481c185e5b595b9d60aa1b606082015260800190565b634e487b7160e01b600052601160045260246000fd5b60008219821115610ae857610ae8610abf565b500190565b634e487b7160e01b600052603260045260246000fd5b600060208284031215610b1557600080fd5b5051919050565b6000816000190483118215151615610b3657610b36610abf565b500290565b600082610b5857634e487b7160e01b600052601260045260246000fd5b500490565b600082821015610b6f57610b6f610abf565b500390565b600060208284031215610b8657600080fd5b8151801515811461053557600080fd5b60005b83811015610bb1578181015183820152602001610b99565b83811115610bc0576000848401525b50505050565b60008251610bd8818460208701610b96565b9190910192915050565b6020815260008251806020840152610c01816040850160208701610b96565b601f01601f1916919091016040019291505056fea2646970667358221220734159588879530db28912f754c51044d53230142f885a37dddedab81deacdb164736f6c634300080c0033","opcodes":"PUSH1 0x80 PUSH1 0x40 MSTORE CALLVALUE DUP1 ISZERO PUSH2 0x10 JUMPI PUSH1 0x0 DUP1 REVERT JUMPDEST POP PUSH2 0xC4B DUP1 PUSH2 0x20 PUSH1 0x0 CODECOPY PUSH1 0x0 RETURN INVALID PUSH1 0x80 PUSH1 0x40 MSTORE PUSH1 0x4 CALLDATASIZE LT PUSH2 0xA0 JUMPI PUSH1 0x0 CALLDATALOAD PUSH1 0xE0 SHR DUP1 PUSH4 0x9852595C GT PUSH2 0x64 JUMPI DUP1 PUSH4 0x9852595C EQ PUSH2 0x1D2 JUMPI DUP1 PUSH4 0xA3F8EACE EQ PUSH2 0x208 JUMPI DUP1 PUSH4 0xC45AC050 EQ PUSH2 0x228 JUMPI DUP1 PUSH4 0xCE7C2AC2 EQ PUSH2 0x248 JUMPI DUP1 PUSH4 0xD79779B2 EQ PUSH2 0x27E JUMPI DUP1 PUSH4 0xE33B7DE3 EQ PUSH2 0x2B4 JUMPI PUSH1 0x0 DUP1 REVERT JUMPDEST DUP1 PUSH4 0x19165587 EQ PUSH2 0xEE JUMPI DUP1 PUSH4 0x3A98EF39 EQ PUSH2 0x110 JUMPI DUP1 PUSH4 0x406072A9 EQ PUSH2 0x134 JUMPI DUP1 PUSH4 0x48B75044 EQ PUSH2 0x17A JUMPI DUP1 PUSH4 0x8B83209B EQ PUSH2 0x19A JUMPI PUSH1 0x0 DUP1 REVERT JUMPDEST CALLDATASIZE PUSH2 0xE9 JUMPI PUSH32 0x6EF95F06320E7A25A04A175CA677B7052BDD97131872C2192525A629F51BE770 CALLER PUSH1 0x40 DUP1 MLOAD PUSH1 0x1 PUSH1 0x1 PUSH1 0xA0 SHL SUB SWAP1 SWAP3 AND DUP3 MSTORE CALLVALUE PUSH1 0x20 DUP4 ADD MSTORE ADD PUSH1 0x40 MLOAD DUP1 SWAP2 SUB SWAP1 LOG1 STOP JUMPDEST PUSH1 0x0 DUP1 REVERT JUMPDEST CALLVALUE DUP1 ISZERO PUSH2 0xFA JUMPI PUSH1 0x0 DUP1 REVERT JUMPDEST POP PUSH2 0x10E PUSH2 0x109 CALLDATASIZE PUSH1 0x4 PUSH2 0x9BF JUMP JUMPDEST PUSH2 0x2C9 JUMP JUMPDEST STOP JUMPDEST CALLVALUE DUP1 ISZERO PUSH2 0x11C JUMPI PUSH1 0x0 DUP1 REVERT JUMPDEST POP PUSH1 0x33 SLOAD JUMPDEST PUSH1 0x40 MLOAD SWAP1 DUP2 MSTORE PUSH1 0x20 ADD JUMPDEST PUSH1 0x40 MLOAD DUP1 SWAP2 SUB SWAP1 RETURN JUMPDEST CALLVALUE DUP1 ISZERO PUSH2 0x140 JUMPI PUSH1 0x0 DUP1 REVERT JUMPDEST POP PUSH2 0x121 PUSH2 0x14F CALLDATASIZE PUSH1 0x4 PUSH2 0x9DC JUMP JUMPDEST PUSH1 0x1 PUSH1 0x1 PUSH1 0xA0 SHL SUB SWAP2 DUP3 AND PUSH1 0x0 SWAP1 DUP2 MSTORE PUSH1 0x39 PUSH1 0x20 SWAP1 DUP2 MSTORE PUSH1 0x40 DUP1 DUP4 KECCAK256 SWAP4 SWAP1 SWAP5 AND DUP3 MSTORE SWAP2 SWAP1 SWAP2 MSTORE KECCAK256 SLOAD SWAP1 JUMP JUMPDEST CALLVALUE DUP1 ISZERO PUSH2 0x186 JUMPI PUSH1 0x0 DUP1 REVERT JUMPDEST POP PUSH2 0x10E PUSH2 0x195 CALLDATASIZE PUSH1 0x4 PUSH2 0x9DC JUMP JUMPDEST PUSH2 0x3B6 JUMP JUMPDEST CALLVALUE DUP1 ISZERO PUSH2 0x1A6 JUMPI PUSH1 0x0 DUP1 REVERT JUMPDEST POP PUSH2 0x1BA PUSH2 0x1B5 CALLDATASIZE PUSH1 0x4 PUSH2 0xA15 JUMP JUMPDEST PUSH2 0x4C4 JUMP JUMPDEST PUSH1 0x40 MLOAD PUSH1 0x1 PUSH1 0x1 PUSH1 0xA0 SHL SUB SWAP1 SWAP2 AND DUP2 MSTORE PUSH1 0x20 ADD PUSH2 0x12B JUMP JUMPDEST CALLVALUE DUP1 ISZERO PUSH2 0x1DE JUMPI PUSH1 0x0 DUP1 REVERT JUMPDEST POP PUSH2 0x121 PUSH2 0x1ED CALLDATASIZE PUSH1 0x4 PUSH2 0x9BF JUMP JUMPDEST PUSH1 0x1 PUSH1 0x1 PUSH1 0xA0 SHL SUB AND PUSH1 0x0 SWAP1 DUP2 MSTORE PUSH1 0x36 PUSH1 0x20 MSTORE PUSH1 0x40 SWAP1 KECCAK256 SLOAD SWAP1 JUMP JUMPDEST CALLVALUE DUP1 ISZERO PUSH2 0x214 JUMPI PUSH1 0x0 DUP1 REVERT JUMPDEST POP PUSH2 0x121 PUSH2 0x223 CALLDATASIZE PUSH1 0x4 PUSH2 0x9BF JUMP JUMPDEST PUSH2 0x4F4 JUMP JUMPDEST CALLVALUE DUP1 ISZERO PUSH2 0x234 JUMPI PUSH1 0x0 DUP1 REVERT JUMPDEST POP PUSH2 0x121 PUSH2 0x243 CALLDATASIZE PUSH1 0x4 PUSH2 0x9DC JUMP JUMPDEST PUSH2 0x53C JUMP JUMPDEST CALLVALUE DUP1 ISZERO PUSH2 0x254 JUMPI PUSH1 0x0 DUP1 REVERT JUMPDEST POP PUSH2 0x121 PUSH2 0x263 CALLDATASIZE PUSH1 0x4 PUSH2 0x9BF JUMP JUMPDEST PUSH1 0x1 PUSH1 0x1 PUSH1 0xA0 SHL SUB AND PUSH1 0x0 SWAP1 DUP2 MSTORE PUSH1 0x35 PUSH1 0x20 MSTORE PUSH1 0x40 SWAP1 KECCAK256 SLOAD SWAP1 JUMP JUMPDEST CALLVALUE DUP1 ISZERO PUSH2 0x28A JUMPI PUSH1 0x0 DUP1 REVERT JUMPDEST POP PUSH2 0x121 PUSH2 0x299 CALLDATASIZE PUSH1 0x4 PUSH2 0x9BF JUMP JUMPDEST PUSH1 0x1 PUSH1 0x1 PUSH1 0xA0 SHL SUB AND PUSH1 0x0 SWAP1 DUP2 MSTORE PUSH1 0x38 PUSH1 0x20 MSTORE PUSH1 0x40 SWAP1 KECCAK256 SLOAD SWAP1 JUMP JUMPDEST CALLVALUE DUP1 ISZERO PUSH2 0x2C0 JUMPI PUSH1 0x0 DUP1 REVERT JUMPDEST POP PUSH1 0x34 SLOAD PUSH2 0x121 JUMP JUMPDEST PUSH1 0x1 PUSH1 0x1 PUSH1 0xA0 SHL SUB DUP2 AND PUSH1 0x0 SWAP1 DUP2 MSTORE PUSH1 0x35 PUSH1 0x20 MSTORE PUSH1 0x40 SWAP1 KECCAK256 SLOAD PUSH2 0x307 JUMPI PUSH1 0x40 MLOAD PUSH3 0x461BCD PUSH1 0xE5 SHL DUP2 MSTORE PUSH1 0x4 ADD PUSH2 0x2FE SWAP1 PUSH2 0xA2E JUMP JUMPDEST PUSH1 0x40 MLOAD DUP1 SWAP2 SUB SWAP1 REVERT JUMPDEST PUSH1 0x0 PUSH2 0x312 DUP3 PUSH2 0x4F4 JUMP JUMPDEST SWAP1 POP DUP1 PUSH2 0x331 JUMPI PUSH1 0x40 MLOAD PUSH3 0x461BCD PUSH1 0xE5 SHL DUP2 MSTORE PUSH1 0x4 ADD PUSH2 0x2FE SWAP1 PUSH2 0xA74 JUMP JUMPDEST DUP1 PUSH1 0x34 PUSH1 0x0 DUP3 DUP3 SLOAD PUSH2 0x343 SWAP2 SWAP1 PUSH2 0xAD5 JUMP JUMPDEST SWAP1 SWAP2 SSTORE POP POP PUSH1 0x1 PUSH1 0x1 PUSH1 0xA0 SHL SUB DUP3 AND PUSH1 0x0 SWAP1 DUP2 MSTORE PUSH1 0x36 PUSH1 0x20 MSTORE PUSH1 0x40 SWAP1 KECCAK256 DUP1 SLOAD DUP3 ADD SWAP1 SSTORE PUSH2 0x370 DUP3 DUP3 PUSH2 0x607 JUMP JUMPDEST PUSH1 0x40 DUP1 MLOAD PUSH1 0x1 PUSH1 0x1 PUSH1 0xA0 SHL SUB DUP5 AND DUP2 MSTORE PUSH1 0x20 DUP2 ADD DUP4 SWAP1 MSTORE PUSH32 0xDF20FD1E76BC69D672E4814FAFB2C449BBA3A5369D8359ADF9E05E6FDE87B056 SWAP2 ADD PUSH1 0x40 MLOAD DUP1 SWAP2 SUB SWAP1 LOG1 POP POP JUMP JUMPDEST PUSH1 0x1 PUSH1 0x1 PUSH1 0xA0 SHL SUB DUP2 AND PUSH1 0x0 SWAP1 DUP2 MSTORE PUSH1 0x35 PUSH1 0x20 MSTORE PUSH1 0x40 SWAP1 KECCAK256 SLOAD PUSH2 0x3EB JUMPI PUSH1 0x40 MLOAD PUSH3 0x461BCD PUSH1 0xE5 SHL DUP2 MSTORE PUSH1 0x4 ADD PUSH2 0x2FE SWAP1 PUSH2 0xA2E JUMP JUMPDEST PUSH1 0x0 PUSH2 0x3F7 DUP4 DUP4 PUSH2 0x53C JUMP JUMPDEST SWAP1 POP DUP1 PUSH2 0x416 JUMPI PUSH1 0x40 MLOAD PUSH3 0x461BCD PUSH1 0xE5 SHL DUP2 MSTORE PUSH1 0x4 ADD PUSH2 0x2FE SWAP1 PUSH2 0xA74 JUMP JUMPDEST PUSH1 0x1 PUSH1 0x1 PUSH1 0xA0 SHL SUB DUP4 AND PUSH1 0x0 SWAP1 DUP2 MSTORE PUSH1 0x38 PUSH1 0x20 MSTORE PUSH1 0x40 DUP2 KECCAK256 DUP1 SLOAD DUP4 SWAP3 SWAP1 PUSH2 0x43E SWAP1 DUP5 SWAP1 PUSH2 0xAD5 JUMP JUMPDEST SWAP1 SWAP2 SSTORE POP POP PUSH1 0x1 PUSH1 0x1 PUSH1 0xA0 SHL SUB DUP1 DUP5 AND PUSH1 0x0 SWAP1 DUP2 MSTORE PUSH1 0x39 PUSH1 0x20 SWAP1 DUP2 MSTORE PUSH1 0x40 DUP1 DUP4 KECCAK256 SWAP4 DUP7 AND DUP4 MSTORE SWAP3 SWAP1 MSTORE KECCAK256 DUP1 SLOAD DUP3 ADD SWAP1 SSTORE PUSH2 0x479 DUP4 DUP4 DUP4 PUSH2 0x725 JUMP JUMPDEST PUSH1 0x40 DUP1 MLOAD PUSH1 0x1 PUSH1 0x1 PUSH1 0xA0 SHL SUB DUP5 DUP2 AND DUP3 MSTORE PUSH1 0x20 DUP3 ADD DUP5 SWAP1 MSTORE DUP6 AND SWAP2 PUSH32 0x3BE5B7A71E84ED12875D241991C70855AC5817D847039E17A9D895C1CEB0F18A SWAP2 ADD PUSH1 0x40 MLOAD DUP1 SWAP2 SUB SWAP1 LOG2 POP POP POP JUMP JUMPDEST PUSH1 0x0 PUSH1 0x37 DUP3 DUP2 SLOAD DUP2 LT PUSH2 0x4D9 JUMPI PUSH2 0x4D9 PUSH2 0xAED JUMP JUMPDEST PUSH1 0x0 SWAP2 DUP3 MSTORE PUSH1 0x20 SWAP1 SWAP2 KECCAK256 ADD SLOAD PUSH1 0x1 PUSH1 0x1 PUSH1 0xA0 SHL SUB AND SWAP3 SWAP2 POP POP JUMP JUMPDEST PUSH1 0x0 DUP1 PUSH2 0x500 PUSH1 0x34 SLOAD SWAP1 JUMP JUMPDEST PUSH2 0x50A SWAP1 SELFBALANCE PUSH2 0xAD5 JUMP JUMPDEST SWAP1 POP PUSH2 0x535 DUP4 DUP3 PUSH2 0x530 DUP7 PUSH1 0x1 PUSH1 0x1 PUSH1 0xA0 SHL SUB AND PUSH1 0x0 SWAP1 DUP2 MSTORE PUSH1 0x36 PUSH1 0x20 MSTORE PUSH1 0x40 SWAP1 KECCAK256 SLOAD SWAP1 JUMP JUMPDEST PUSH2 0x777 JUMP JUMPDEST SWAP4 SWAP3 POP POP POP JUMP JUMPDEST PUSH1 0x1 PUSH1 0x1 PUSH1 0xA0 SHL SUB DUP3 AND PUSH1 0x0 SWAP1 DUP2 MSTORE PUSH1 0x38 PUSH1 0x20 MSTORE PUSH1 0x40 DUP2 KECCAK256 SLOAD DUP2 SWAP1 PUSH1 0x40 MLOAD PUSH4 0x70A08231 PUSH1 0xE0 SHL DUP2 MSTORE ADDRESS PUSH1 0x4 DUP3 ADD MSTORE PUSH1 0x1 PUSH1 0x1 PUSH1 0xA0 SHL SUB DUP7 AND SWAP1 PUSH4 0x70A08231 SWAP1 PUSH1 0x24 ADD PUSH1 0x20 PUSH1 0x40 MLOAD DUP1 DUP4 SUB DUP2 DUP7 GAS STATICCALL ISZERO DUP1 ISZERO PUSH2 0x59B JUMPI RETURNDATASIZE PUSH1 0x0 DUP1 RETURNDATACOPY RETURNDATASIZE PUSH1 0x0 REVERT JUMPDEST POP POP POP POP PUSH1 0x40 MLOAD RETURNDATASIZE PUSH1 0x1F NOT PUSH1 0x1F DUP3 ADD AND DUP3 ADD DUP1 PUSH1 0x40 MSTORE POP DUP2 ADD SWAP1 PUSH2 0x5BF SWAP2 SWAP1 PUSH2 0xB03 JUMP JUMPDEST PUSH2 0x5C9 SWAP2 SWAP1 PUSH2 0xAD5 JUMP JUMPDEST PUSH1 0x1 PUSH1 0x1 PUSH1 0xA0 SHL SUB DUP1 DUP7 AND PUSH1 0x0 SWAP1 DUP2 MSTORE PUSH1 0x39 PUSH1 0x20 SWAP1 DUP2 MSTORE PUSH1 0x40 DUP1 DUP4 KECCAK256 SWAP4 DUP9 AND DUP4 MSTORE SWAP3 SWAP1 MSTORE KECCAK256 SLOAD SWAP1 SWAP2 POP PUSH2 0x5FF SWAP1 DUP5 SWAP1 DUP4 SWAP1 PUSH2 0x777 JUMP JUMPDEST SWAP5 SWAP4 POP POP POP POP JUMP JUMPDEST DUP1 SELFBALANCE LT ISZERO PUSH2 0x657 JUMPI PUSH1 0x40 MLOAD PUSH3 0x461BCD PUSH1 0xE5 SHL DUP2 MSTORE PUSH1 0x20 PUSH1 0x4 DUP3 ADD MSTORE PUSH1 0x1D PUSH1 0x24 DUP3 ADD MSTORE PUSH32 0x416464726573733A20696E73756666696369656E742062616C616E6365000000 PUSH1 0x44 DUP3 ADD MSTORE PUSH1 0x64 ADD PUSH2 0x2FE JUMP JUMPDEST PUSH1 0x0 DUP3 PUSH1 0x1 PUSH1 0x1 PUSH1 0xA0 SHL SUB AND DUP3 PUSH1 0x40 MLOAD PUSH1 0x0 PUSH1 0x40 MLOAD DUP1 DUP4 SUB DUP2 DUP6 DUP8 GAS CALL SWAP3 POP POP POP RETURNDATASIZE DUP1 PUSH1 0x0 DUP2 EQ PUSH2 0x6A4 JUMPI PUSH1 0x40 MLOAD SWAP2 POP PUSH1 0x1F NOT PUSH1 0x3F RETURNDATASIZE ADD AND DUP3 ADD PUSH1 0x40 MSTORE RETURNDATASIZE DUP3 MSTORE RETURNDATASIZE PUSH1 0x0 PUSH1 0x20 DUP5 ADD RETURNDATACOPY PUSH2 0x6A9 JUMP JUMPDEST PUSH1 0x60 SWAP2 POP JUMPDEST POP POP SWAP1 POP DUP1 PUSH2 0x720 JUMPI PUSH1 0x40 MLOAD PUSH3 0x461BCD PUSH1 0xE5 SHL DUP2 MSTORE PUSH1 0x20 PUSH1 0x4 DUP3 ADD MSTORE PUSH1 0x3A PUSH1 0x24 DUP3 ADD MSTORE PUSH32 0x416464726573733A20756E61626C6520746F2073656E642076616C75652C2072 PUSH1 0x44 DUP3 ADD MSTORE PUSH32 0x6563697069656E74206D61792068617665207265766572746564000000000000 PUSH1 0x64 DUP3 ADD MSTORE PUSH1 0x84 ADD PUSH2 0x2FE JUMP JUMPDEST POP POP POP JUMP JUMPDEST PUSH1 0x40 DUP1 MLOAD PUSH1 0x1 PUSH1 0x1 PUSH1 0xA0 SHL SUB DUP5 AND PUSH1 0x24 DUP3 ADD MSTORE PUSH1 0x44 DUP1 DUP3 ADD DUP5 SWAP1 MSTORE DUP3 MLOAD DUP1 DUP4 SUB SWAP1 SWAP2 ADD DUP2 MSTORE PUSH1 0x64 SWAP1 SWAP2 ADD SWAP1 SWAP2 MSTORE PUSH1 0x20 DUP2 ADD DUP1 MLOAD PUSH1 0x1 PUSH1 0x1 PUSH1 0xE0 SHL SUB AND PUSH4 0xA9059CBB PUSH1 0xE0 SHL OR SWAP1 MSTORE PUSH2 0x720 SWAP1 DUP5 SWAP1 PUSH2 0x7B5 JUMP JUMPDEST PUSH1 0x33 SLOAD PUSH1 0x1 PUSH1 0x1 PUSH1 0xA0 SHL SUB DUP5 AND PUSH1 0x0 SWAP1 DUP2 MSTORE PUSH1 0x35 PUSH1 0x20 MSTORE PUSH1 0x40 DUP2 KECCAK256 SLOAD SWAP1 SWAP2 DUP4 SWAP2 PUSH2 0x7A1 SWAP1 DUP7 PUSH2 0xB1C JUMP JUMPDEST PUSH2 0x7AB SWAP2 SWAP1 PUSH2 0xB3B JUMP JUMPDEST PUSH2 0x5FF SWAP2 SWAP1 PUSH2 0xB5D JUMP JUMPDEST PUSH1 0x0 PUSH2 0x80A DUP3 PUSH1 0x40 MLOAD DUP1 PUSH1 0x40 ADD PUSH1 0x40 MSTORE DUP1 PUSH1 0x20 DUP2 MSTORE PUSH1 0x20 ADD PUSH32 0x5361666545524332303A206C6F772D6C6576656C2063616C6C206661696C6564 DUP2 MSTORE POP DUP6 PUSH1 0x1 PUSH1 0x1 PUSH1 0xA0 SHL SUB AND PUSH2 0x887 SWAP1 SWAP3 SWAP2 SWAP1 PUSH4 0xFFFFFFFF AND JUMP JUMPDEST DUP1 MLOAD SWAP1 SWAP2 POP ISZERO PUSH2 0x720 JUMPI DUP1 DUP1 PUSH1 0x20 ADD SWAP1 MLOAD DUP2 ADD SWAP1 PUSH2 0x828 SWAP2 SWAP1 PUSH2 0xB74 JUMP JUMPDEST PUSH2 0x720 JUMPI PUSH1 0x40 MLOAD PUSH3 0x461BCD PUSH1 0xE5 SHL DUP2 MSTORE PUSH1 0x20 PUSH1 0x4 DUP3 ADD MSTORE PUSH1 0x2A PUSH1 0x24 DUP3 ADD MSTORE PUSH32 0x5361666545524332303A204552433230206F7065726174696F6E20646964206E PUSH1 0x44 DUP3 ADD MSTORE PUSH10 0x1BDD081CDD58D8D95959 PUSH1 0xB2 SHL PUSH1 0x64 DUP3 ADD MSTORE PUSH1 0x84 ADD PUSH2 0x2FE JUMP JUMPDEST PUSH1 0x60 PUSH2 0x5FF DUP5 DUP5 PUSH1 0x0 DUP6 DUP6 PUSH1 0x0 DUP1 DUP7 PUSH1 0x1 PUSH1 0x1 PUSH1 0xA0 SHL SUB AND DUP6 DUP8 PUSH1 0x40 MLOAD PUSH2 0x8AE SWAP2 SWAP1 PUSH2 0xBC6 JUMP JUMPDEST PUSH1 0x0 PUSH1 0x40 MLOAD DUP1 DUP4 SUB DUP2 DUP6 DUP8 GAS CALL SWAP3 POP POP POP RETURNDATASIZE DUP1 PUSH1 0x0 DUP2 EQ PUSH2 0x8EB JUMPI PUSH1 0x40 MLOAD SWAP2 POP PUSH1 0x1F NOT PUSH1 0x3F RETURNDATASIZE ADD AND DUP3 ADD PUSH1 0x40 MSTORE RETURNDATASIZE DUP3 MSTORE RETURNDATASIZE PUSH1 0x0 PUSH1 0x20 DUP5 ADD RETURNDATACOPY PUSH2 0x8F0 JUMP JUMPDEST PUSH1 0x60 SWAP2 POP JUMPDEST POP SWAP2 POP SWAP2 POP PUSH2 0x901 DUP8 DUP4 DUP4 DUP8 PUSH2 0x90C JUMP JUMPDEST SWAP8 SWAP7 POP POP POP POP POP POP POP JUMP JUMPDEST PUSH1 0x60 DUP4 ISZERO PUSH2 0x978 JUMPI DUP3 MLOAD PUSH2 0x971 JUMPI PUSH1 0x1 PUSH1 0x1 PUSH1 0xA0 SHL SUB DUP6 AND EXTCODESIZE PUSH2 0x971 JUMPI PUSH1 0x40 MLOAD PUSH3 0x461BCD PUSH1 0xE5 SHL DUP2 MSTORE PUSH1 0x20 PUSH1 0x4 DUP3 ADD MSTORE PUSH1 0x1D PUSH1 0x24 DUP3 ADD MSTORE PUSH32 0x416464726573733A2063616C6C20746F206E6F6E2D636F6E7472616374000000 PUSH1 0x44 DUP3 ADD MSTORE PUSH1 0x64 ADD PUSH2 0x2FE JUMP JUMPDEST POP DUP2 PUSH2 0x5FF JUMP JUMPDEST PUSH2 0x5FF DUP4 DUP4 DUP2 MLOAD ISZERO PUSH2 0x98D JUMPI DUP2 MLOAD DUP1 DUP4 PUSH1 0x20 ADD REVERT JUMPDEST DUP1 PUSH1 0x40 MLOAD PUSH3 0x461BCD PUSH1 0xE5 SHL DUP2 MSTORE PUSH1 0x4 ADD PUSH2 0x2FE SWAP2 SWAP1 PUSH2 0xBE2 JUMP JUMPDEST PUSH1 0x1 PUSH1 0x1 PUSH1 0xA0 SHL SUB DUP2 AND DUP2 EQ PUSH2 0x9BC JUMPI PUSH1 0x0 DUP1 REVERT JUMPDEST POP JUMP JUMPDEST PUSH1 0x0 PUSH1 0x20 DUP3 DUP5 SUB SLT ISZERO PUSH2 0x9D1 JUMPI PUSH1 0x0 DUP1 REVERT JUMPDEST DUP2 CALLDATALOAD PUSH2 0x535 DUP2 PUSH2 0x9A7 JUMP JUMPDEST PUSH1 0x0 DUP1 PUSH1 0x40 DUP4 DUP6 SUB SLT ISZERO PUSH2 0x9EF JUMPI PUSH1 0x0 DUP1 REVERT JUMPDEST DUP3 CALLDATALOAD PUSH2 0x9FA DUP2 PUSH2 0x9A7 JUMP JUMPDEST SWAP2 POP PUSH1 0x20 DUP4 ADD CALLDATALOAD PUSH2 0xA0A DUP2 PUSH2 0x9A7 JUMP JUMPDEST DUP1 SWAP2 POP POP SWAP3 POP SWAP3 SWAP1 POP JUMP JUMPDEST PUSH1 0x0 PUSH1 0x20 DUP3 DUP5 SUB SLT ISZERO PUSH2 0xA27 JUMPI PUSH1 0x0 DUP1 REVERT JUMPDEST POP CALLDATALOAD SWAP2 SWAP1 POP JUMP JUMPDEST PUSH1 0x20 DUP1 DUP3 MSTORE PUSH1 0x26 SWAP1 DUP3 ADD MSTORE PUSH32 0x5061796D656E7453706C69747465723A206163636F756E7420686173206E6F20 PUSH1 0x40 DUP3 ADD MSTORE PUSH6 0x736861726573 PUSH1 0xD0 SHL PUSH1 0x60 DUP3 ADD MSTORE PUSH1 0x80 ADD SWAP1 JUMP JUMPDEST PUSH1 0x20 DUP1 DUP3 MSTORE PUSH1 0x2B SWAP1 DUP3 ADD MSTORE PUSH32 0x5061796D656E7453706C69747465723A206163636F756E74206973206E6F7420 PUSH1 0x40 DUP3 ADD MSTORE PUSH11 0x191D59481C185E5B595B9D PUSH1 0xAA SHL PUSH1 0x60 DUP3 ADD MSTORE PUSH1 0x80 ADD SWAP1 JUMP JUMPDEST PUSH4 0x4E487B71 PUSH1 0xE0 SHL PUSH1 0x0 MSTORE PUSH1 0x11 PUSH1 0x4 MSTORE PUSH1 0x24 PUSH1 0x0 REVERT JUMPDEST PUSH1 0x0 DUP3 NOT DUP3 GT ISZERO PUSH2 0xAE8 JUMPI PUSH2 0xAE8 PUSH2 0xABF JUMP JUMPDEST POP ADD SWAP1 JUMP JUMPDEST PUSH4 0x4E487B71 PUSH1 0xE0 SHL PUSH1 0x0 MSTORE PUSH1 0x32 PUSH1 0x4 MSTORE PUSH1 0x24 PUSH1 0x0 REVERT JUMPDEST PUSH1 0x0 PUSH1 0x20 DUP3 DUP5 SUB SLT ISZERO PUSH2 0xB15 JUMPI PUSH1 0x0 DUP1 REVERT JUMPDEST POP MLOAD SWAP2 SWAP1 POP JUMP JUMPDEST PUSH1 0x0 DUP2 PUSH1 0x0 NOT DIV DUP4 GT DUP3 ISZERO ISZERO AND ISZERO PUSH2 0xB36 JUMPI PUSH2 0xB36 PUSH2 0xABF JUMP JUMPDEST POP MUL SWAP1 JUMP JUMPDEST PUSH1 0x0 DUP3 PUSH2 0xB58 JUMPI PUSH4 0x4E487B71 PUSH1 0xE0 SHL PUSH1 0x0 MSTORE PUSH1 0x12 PUSH1 0x4 MSTORE PUSH1 0x24 PUSH1 0x0 REVERT JUMPDEST POP DIV SWAP1 JUMP JUMPDEST PUSH1 0x0 DUP3 DUP3 LT ISZERO PUSH2 0xB6F JUMPI PUSH2 0xB6F PUSH2 0xABF JUMP JUMPDEST POP SUB SWAP1 JUMP JUMPDEST PUSH1 0x0 PUSH1 0x20 DUP3 DUP5 SUB SLT ISZERO PUSH2 0xB86 JUMPI PUSH1 0x0 DUP1 REVERT JUMPDEST DUP2 MLOAD DUP1 ISZERO ISZERO DUP2 EQ PUSH2 0x535 JUMPI PUSH1 0x0 DUP1 REVERT JUMPDEST PUSH1 0x0 JUMPDEST DUP4 DUP2 LT ISZERO PUSH2 0xBB1 JUMPI DUP2 DUP2 ADD MLOAD DUP4 DUP3 ADD MSTORE PUSH1 0x20 ADD PUSH2 0xB99 JUMP JUMPDEST DUP4 DUP2 GT ISZERO PUSH2 0xBC0 JUMPI PUSH1 0x0 DUP5 DUP5 ADD MSTORE JUMPDEST POP POP POP POP JUMP JUMPDEST PUSH1 0x0 DUP3 MLOAD PUSH2 0xBD8 DUP2 DUP5 PUSH1 0x20 DUP8 ADD PUSH2 0xB96 JUMP JUMPDEST SWAP2 SWAP1 SWAP2 ADD SWAP3 SWAP2 POP POP JUMP JUMPDEST PUSH1 0x20 DUP2 MSTORE PUSH1 0x0 DUP3 MLOAD DUP1 PUSH1 0x20 DUP5 ADD MSTORE PUSH2 0xC01 DUP2 PUSH1 0x40 DUP6 ADD PUSH1 0x20 DUP8 ADD PUSH2 0xB96 JUMP JUMPDEST PUSH1 0x1F ADD PUSH1 0x1F NOT AND SWAP2 SWAP1 SWAP2 ADD PUSH1 0x40 ADD SWAP3 SWAP2 POP POP JUMP INVALID LOG2 PUSH5 0x6970667358 0x22 SLT KECCAK256 PUSH20 0x4159588879530DB28912F754C51044D53230142F DUP9 GAS CALLDATACOPY 0xDD 0xDE 0xDA 0xB8 SAR 0xEA 0xCD 0xB1 PUSH5 0x736F6C6343 STOP ADDMOD 0xC STOP CALLER "},"methodIdentifiers":{"payee(uint256)":"8b83209b","releasable(address)":"a3f8eace","releasable(address,address)":"c45ac050","release(address)":"19165587","release(address,address)":"48b75044","released(address)":"9852595c","released(address,address)":"406072a9","shares(address)":"ce7c2ac2","totalReleased()":"e33b7de3","totalReleased(address)":"d79779b2","totalShares()":"3a98ef39"}},"storageLayout":{"storage":[{"astId":638,"contract":"@openzeppelin/contracts-upgradeable/finance/PaymentSplitterUpgradeable.sol:PaymentSplitterUpgradeable","label":"_initialized","offset":0,"slot":"0","type":"t_uint8"},{"astId":641,"contract":"@openzeppelin/contracts-upgradeable/finance/PaymentSplitterUpgradeable.sol:PaymentSplitterUpgradeable","label":"_initializing","offset":1,"slot":"0","type":"t_bool"},{"astId":1520,"contract":"@openzeppelin/contracts-upgradeable/finance/PaymentSplitterUpgradeable.sol:PaymentSplitterUpgradeable","label":"__gap","offset":0,"slot":"1","type":"t_array(t_uint256)50_storage"},{"astId":171,"contract":"@openzeppelin/contracts-upgradeable/finance/PaymentSplitterUpgradeable.sol:PaymentSplitterUpgradeable","label":"_totalShares","offset":0,"slot":"51","type":"t_uint256"},{"astId":173,"contract":"@openzeppelin/contracts-upgradeable/finance/PaymentSplitterUpgradeable.sol:PaymentSplitterUpgradeable","label":"_totalReleased","offset":0,"slot":"52","type":"t_uint256"},{"astId":177,"contract":"@openzeppelin/contracts-upgradeable/finance/PaymentSplitterUpgradeable.sol:PaymentSplitterUpgradeable","label":"_shares","offset":0,"slot":"53","type":"t_mapping(t_address,t_uint256)"},{"astId":181,"contract":"@openzeppelin/contracts-upgradeable/finance/PaymentSplitterUpgradeable.sol:PaymentSplitterUpgradeable","label":"_released","offset":0,"slot":"54","type":"t_mapping(t_address,t_uint256)"},{"astId":184,"contract":"@openzeppelin/contracts-upgradeable/finance/PaymentSplitterUpgradeable.sol:PaymentSplitterUpgradeable","label":"_payees","offset":0,"slot":"55","type":"t_array(t_address)dyn_storage"},{"astId":189,"contract":"@openzeppelin/contracts-upgradeable/finance/PaymentSplitterUpgradeable.sol:PaymentSplitterUpgradeable","label":"_erc20TotalReleased","offset":0,"slot":"56","type":"t_mapping(t_contract(IERC20Upgradeable)878,t_uint256)"},{"astId":196,"contract":"@openzeppelin/contracts-upgradeable/finance/PaymentSplitterUpgradeable.sol:PaymentSplitterUpgradeable","label":"_erc20Released","offset":0,"slot":"57","type":"t_mapping(t_contract(IERC20Upgradeable)878,t_mapping(t_address,t_uint256))"},{"astId":630,"contract":"@openzeppelin/contracts-upgradeable/finance/PaymentSplitterUpgradeable.sol:PaymentSplitterUpgradeable","label":"__gap","offset":0,"slot":"58","type":"t_array(t_uint256)43_storage"}],"types":{"t_address":{"encoding":"inplace","label":"address","numberOfBytes":"20"},"t_array(t_address)dyn_storage":{"base":"t_address","encoding":"dynamic_array","label":"address[]","numberOfBytes":"32"},"t_array(t_uint256)43_storage":{"base":"t_uint256","encoding":"inplace","label":"uint256[43]","numberOfBytes":"1376"},"t_array(t_uint256)50_storage":{"base":"t_uint256","encoding":"inplace","label":"uint256[50]","numberOfBytes":"1600"},"t_bool":{"encoding":"inplace","label":"bool","numberOfBytes":"1"},"t_contract(IERC20Upgradeable)878":{"encoding":"inplace","label":"contract IERC20Upgradeable","numberOfBytes":"20"},"t_mapping(t_address,t_uint256)":{"encoding":"mapping","key":"t_address","label":"mapping(address => uint256)","numberOfBytes":"32","value":"t_uint256"},"t_mapping(t_contract(IERC20Upgradeable)878,t_mapping(t_address,t_uint256))":{"encoding":"mapping","key":"t_contract(IERC20Upgradeable)878","label":"mapping(contract IERC20Upgradeable => mapping(address => uint256))","numberOfBytes":"32","value":"t_mapping(t_address,t_uint256)"},"t_mapping(t_contract(IERC20Upgradeable)878,t_uint256)":{"encoding":"mapping","key":"t_contract(IERC20Upgradeable)878","label":"mapping(contract IERC20Upgradeable => uint256)","numberOfBytes":"32","value":"t_uint256"},"t_uint256":{"encoding":"inplace","label":"uint256","numberOfBytes":"32"},"t_uint8":{"encoding":"inplace","label":"uint8","numberOfBytes":"1"}}}}}}