{"contracts/libs/helpers/Errors.sol":{"Errors":{"abi":[{"inputs":[],"name":"ERC20_BALANCE_INVALID","outputs":[{"internalType":"string","name":"","type":"string"}],"stateMutability":"view","type":"function"},{"inputs":[],"name":"ERC20_NOT_APPROVED","outputs":[{"internalType":"string","name":"","type":"string"}],"stateMutability":"view","type":"function"},{"inputs":[],"name":"ERC_20_NOT_ALLOW","outputs":[{"internalType":"string","name":"","type":"string"}],"stateMutability":"view","type":"function"},{"inputs":[],"name":"ERC_721_NOT_APPROVED","outputs":[{"internalType":"string","name":"","type":"string"}],"stateMutability":"view","type":"function"},{"inputs":[],"name":"FORBIDDEN_TRANSFER_PROJECT","outputs":[{"internalType":"string","name":"","type":"string"}],"stateMutability":"view","type":"function"},{"inputs":[],"name":"INVALID_ERC721_OWNER","outputs":[{"internalType":"string","name":"","type":"string"}],"stateMutability":"view","type":"function"},{"inputs":[],"name":"INV_ADD","outputs":[{"internalType":"string","name":"","type":"string"}],"stateMutability":"view","type":"function"},{"inputs":[],"name":"INV_FEE_PROJECT","outputs":[{"internalType":"string","name":"","type":"string"}],"stateMutability":"view","type":"function"},{"inputs":[],"name":"INV_PARAMS","outputs":[{"internalType":"string","name":"","type":"string"}],"stateMutability":"view","type":"function"},{"inputs":[],"name":"INV_PROJECT","outputs":[{"internalType":"string","name":"","type":"string"}],"stateMutability":"view","type":"function"},{"inputs":[],"name":"INV_TOKEN","outputs":[{"internalType":"string","name":"","type":"string"}],"stateMutability":"view","type":"function"},{"inputs":[],"name":"MISSING_NAME","outputs":[{"internalType":"string","name":"","type":"string"}],"stateMutability":"view","type":"function"},{"inputs":[],"name":"OFFERING_CLOSED","outputs":[{"internalType":"string","name":"","type":"string"}],"stateMutability":"view","type":"function"},{"inputs":[],"name":"ONLY_ADMIN_ALLOWED","outputs":[{"internalType":"string","name":"","type":"string"}],"stateMutability":"view","type":"function"},{"inputs":[],"name":"ONLY_CREATOR","outputs":[{"internalType":"string","name":"","type":"string"}],"stateMutability":"view","type":"function"},{"inputs":[],"name":"OPENING_SCHEDULE","outputs":[{"internalType":"string","name":"","type":"string"}],"stateMutability":"view","type":"function"},{"inputs":[],"name":"REACH_MAX","outputs":[{"internalType":"string","name":"","type":"string"}],"stateMutability":"view","type":"function"},{"inputs":[],"name":"SUCCESS","outputs":[{"internalType":"string","name":"","type":"string"}],"stateMutability":"view","type":"function"},{"inputs":[],"name":"TOKEN_HAS_SEED","outputs":[{"internalType":"string","name":"","type":"string"}],"stateMutability":"view","type":"function"},{"inputs":[],"name":"TOO_HIGH","outputs":[{"internalType":"string","name":"","type":"string"}],"stateMutability":"view","type":"function"},{"inputs":[],"name":"TRANSFER_FAIL","outputs":[{"internalType":"string","name":"","type":"string"}],"stateMutability":"view","type":"function"},{"inputs":[],"name":"VALUE_INVALID","outputs":[{"internalType":"string","name":"","type":"string"}],"stateMutability":"view","type":"function"},{"inputs":[],"name":"ZERO_ADDR","outputs":[{"internalType":"address","name":"","type":"address"}],"stateMutability":"view","type":"function"},{"inputs":[],"name":"ZERO_DURATION","outputs":[{"internalType":"string","name":"","type":"string"}],"stateMutability":"view","type":"function"},{"inputs":[],"name":"ZERO_PRICE","outputs":[{"internalType":"string","name":"","type":"string"}],"stateMutability":"view","type":"function"},{"inputs":[],"name":"ZERO_SEED","outputs":[{"internalType":"string","name":"","type":"string"}],"stateMutability":"view","type":"function"}],"evm":{"bytecode":{"linkReferences":{},"object":"6105ae61003a600b82828239805160001a60731461002d57634e487b7160e01b600052600060045260246000fd5b30600052607381538281f3fe73000000000000000000000000000000000000000030146080604052600436106101985760003560e01c806372670508116100e8578063c059011b116100a1578063e81216b51161007b578063e81216b51461049b578063ec94a577146104bd578063ef494c25146104df578063feff83c31461050157600080fd5b8063c059011b14610437578063d0a6d1a614610459578063d5bec6851461047957600080fd5b8063726705081461036b57806386f8148f1461038d5780638cb739c6146103af57806390131fab146103d15780639bf3cfe3146103f3578063b746287b1461041557600080fd5b806338abf0c9116101555780635560f1f81161012f5780635560f1f8146102e5578063585c081c146103075780636373108014610329578063652b7f311461034957600080fd5b806338abf0c91461027f5780633a13248f146102a1578063552e387c146102c357600080fd5b8063074750841461019d578063143c1c36146101d55780631557ff24146101f757806323312297146102195780632b72ddbd1461023b57806335a02d731461025d575b600080fd5b6101bf6040518060400160405280600381526020016219981b60e91b81525081565b6040516101cc9190610523565b60405180910390f35b6101bf6040518060400160405280600381526020016219181b60e91b81525081565b6101bf6040518060400160405280600381526020016206660760eb1b81525081565b6101bf6040518060400160405280600381526020016232303360e81b81525081565b6101bf6040518060400160405280600381526020016219981960e91b81525081565b6101bf6040518060400160405280600381526020016233303560e81b81525081565b6101bf6040518060400160405280600381526020016219181960e91b81525081565b6101bf6040518060400160405280600381526020016206460760eb1b81525081565b6101bf6040518060400160405280600381526020016231303160e81b81525081565b6101bf6040518060400160405280600381526020016233303360e81b81525081565b6101bf6040518060400160405280600381526020016232303560e81b81525081565b610331600081565b6040516001600160a01b0390911681526020016101cc565b6101bf6040518060400160405280600381526020016232303160e81b81525081565b6101bf6040518060400160405280600381526020016203130360ec1b81525081565b6101bf6040518060400160405280600381526020016203230360ec1b81525081565b6101bf6040518060400160405280600381526020016232303960e81b81525081565b6101bf6040518060400160405280600381526020016203330360ec1b81525081565b6101bf6040518060400160405280600381526020016232303760e81b81525081565b6101bf6040518060400160405280600381526020016218981960e91b81525081565b6101bf6040518060400160405280600381526020016233303160e81b81525081565b6101bf604051806040016040528060018152602001600360fc1b81525081565b6101bf6040518060400160405280600381526020016233303760e81b81525081565b6101bf604051806040016040528060038152602001620ccc0d60ea1b81525081565b6101bf6040518060400160405280600381526020016233303960e81b81525081565b6101bf6040518060400160405280600381526020016203231360ec1b81525081565b6101bf604051806040016040528060038152602001620c8c0d60ea1b81525081565b600060208083528351808285015260005b8181101561055057858101830151858201604001528201610534565b81811115610562576000604083870101525b50601f01601f191692909201604001939250505056fea2646970667358221220d328ffa31b077498c615ca147fede3c583f2800dfc3d6911d4a6a0e22d2876e364736f6c634300080c0033","opcodes":"PUSH2 0x5AE PUSH2 0x3A PUSH1 0xB DUP3 DUP3 DUP3 CODECOPY DUP1 MLOAD PUSH1 0x0 BYTE PUSH1 0x73 EQ PUSH2 0x2D JUMPI PUSH4 0x4E487B71 PUSH1 0xE0 SHL PUSH1 0x0 MSTORE PUSH1 0x0 PUSH1 0x4 MSTORE PUSH1 0x24 PUSH1 0x0 REVERT JUMPDEST ADDRESS PUSH1 0x0 MSTORE PUSH1 0x73 DUP2 MSTORE8 DUP3 DUP2 RETURN INVALID PUSH20 0x0 ADDRESS EQ PUSH1 0x80 PUSH1 0x40 MSTORE PUSH1 0x4 CALLDATASIZE LT PUSH2 0x198 JUMPI PUSH1 0x0 CALLDATALOAD PUSH1 0xE0 SHR DUP1 PUSH4 0x72670508 GT PUSH2 0xE8 JUMPI DUP1 PUSH4 0xC059011B GT PUSH2 0xA1 JUMPI DUP1 PUSH4 0xE81216B5 GT PUSH2 0x7B JUMPI DUP1 PUSH4 0xE81216B5 EQ PUSH2 0x49B JUMPI DUP1 PUSH4 0xEC94A577 EQ PUSH2 0x4BD JUMPI DUP1 PUSH4 0xEF494C25 EQ PUSH2 0x4DF JUMPI DUP1 PUSH4 0xFEFF83C3 EQ PUSH2 0x501 JUMPI PUSH1 0x0 DUP1 REVERT JUMPDEST DUP1 PUSH4 0xC059011B EQ PUSH2 0x437 JUMPI DUP1 PUSH4 0xD0A6D1A6 EQ PUSH2 0x459 JUMPI DUP1 PUSH4 0xD5BEC685 EQ PUSH2 0x479 JUMPI PUSH1 0x0 DUP1 REVERT JUMPDEST DUP1 PUSH4 0x72670508 EQ PUSH2 0x36B JUMPI DUP1 PUSH4 0x86F8148F EQ PUSH2 0x38D JUMPI DUP1 PUSH4 0x8CB739C6 EQ PUSH2 0x3AF JUMPI DUP1 PUSH4 0x90131FAB EQ PUSH2 0x3D1 JUMPI DUP1 PUSH4 0x9BF3CFE3 EQ PUSH2 0x3F3 JUMPI DUP1 PUSH4 0xB746287B EQ PUSH2 0x415 JUMPI PUSH1 0x0 DUP1 REVERT JUMPDEST DUP1 PUSH4 0x38ABF0C9 GT PUSH2 0x155 JUMPI DUP1 PUSH4 0x5560F1F8 GT PUSH2 0x12F JUMPI DUP1 PUSH4 0x5560F1F8 EQ PUSH2 0x2E5 JUMPI DUP1 PUSH4 0x585C081C EQ PUSH2 0x307 JUMPI DUP1 PUSH4 0x63731080 EQ PUSH2 0x329 JUMPI DUP1 PUSH4 0x652B7F31 EQ PUSH2 0x349 JUMPI PUSH1 0x0 DUP1 REVERT JUMPDEST DUP1 PUSH4 0x38ABF0C9 EQ PUSH2 0x27F JUMPI DUP1 PUSH4 0x3A13248F EQ PUSH2 0x2A1 JUMPI DUP1 PUSH4 0x552E387C EQ PUSH2 0x2C3 JUMPI PUSH1 0x0 DUP1 REVERT JUMPDEST DUP1 PUSH4 0x7475084 EQ PUSH2 0x19D JUMPI DUP1 PUSH4 0x143C1C36 EQ PUSH2 0x1D5 JUMPI DUP1 PUSH4 0x1557FF24 EQ PUSH2 0x1F7 JUMPI DUP1 PUSH4 0x23312297 EQ PUSH2 0x219 JUMPI DUP1 PUSH4 0x2B72DDBD EQ PUSH2 0x23B JUMPI DUP1 PUSH4 0x35A02D73 EQ PUSH2 0x25D JUMPI JUMPDEST PUSH1 0x0 DUP1 REVERT JUMPDEST PUSH2 0x1BF PUSH1 0x40 MLOAD DUP1 PUSH1 0x40 ADD PUSH1 0x40 MSTORE DUP1 PUSH1 0x3 DUP2 MSTORE PUSH1 0x20 ADD PUSH3 0x19981B PUSH1 0xE9 SHL DUP2 MSTORE POP DUP2 JUMP JUMPDEST PUSH1 0x40 MLOAD PUSH2 0x1CC SWAP2 SWAP1 PUSH2 0x523 JUMP JUMPDEST PUSH1 0x40 MLOAD DUP1 SWAP2 SUB SWAP1 RETURN JUMPDEST PUSH2 0x1BF PUSH1 0x40 MLOAD DUP1 PUSH1 0x40 ADD PUSH1 0x40 MSTORE DUP1 PUSH1 0x3 DUP2 MSTORE PUSH1 0x20 ADD PUSH3 0x19181B PUSH1 0xE9 SHL DUP2 MSTORE POP DUP2 JUMP JUMPDEST PUSH2 0x1BF PUSH1 0x40 MLOAD DUP1 PUSH1 0x40 ADD PUSH1 0x40 MSTORE DUP1 PUSH1 0x3 DUP2 MSTORE PUSH1 0x20 ADD PUSH3 0x66607 PUSH1 0xEB SHL DUP2 MSTORE POP DUP2 JUMP JUMPDEST PUSH2 0x1BF PUSH1 0x40 MLOAD DUP1 PUSH1 0x40 ADD PUSH1 0x40 MSTORE DUP1 PUSH1 0x3 DUP2 MSTORE PUSH1 0x20 ADD PUSH3 0x323033 PUSH1 0xE8 SHL DUP2 MSTORE POP DUP2 JUMP JUMPDEST PUSH2 0x1BF PUSH1 0x40 MLOAD DUP1 PUSH1 0x40 ADD PUSH1 0x40 MSTORE DUP1 PUSH1 0x3 DUP2 MSTORE PUSH1 0x20 ADD PUSH3 0x199819 PUSH1 0xE9 SHL DUP2 MSTORE POP DUP2 JUMP JUMPDEST PUSH2 0x1BF PUSH1 0x40 MLOAD DUP1 PUSH1 0x40 ADD PUSH1 0x40 MSTORE DUP1 PUSH1 0x3 DUP2 MSTORE PUSH1 0x20 ADD PUSH3 0x333035 PUSH1 0xE8 SHL DUP2 MSTORE POP DUP2 JUMP JUMPDEST PUSH2 0x1BF PUSH1 0x40 MLOAD DUP1 PUSH1 0x40 ADD PUSH1 0x40 MSTORE DUP1 PUSH1 0x3 DUP2 MSTORE PUSH1 0x20 ADD PUSH3 0x191819 PUSH1 0xE9 SHL DUP2 MSTORE POP DUP2 JUMP JUMPDEST PUSH2 0x1BF PUSH1 0x40 MLOAD DUP1 PUSH1 0x40 ADD PUSH1 0x40 MSTORE DUP1 PUSH1 0x3 DUP2 MSTORE PUSH1 0x20 ADD PUSH3 0x64607 PUSH1 0xEB SHL DUP2 MSTORE POP DUP2 JUMP JUMPDEST PUSH2 0x1BF PUSH1 0x40 MLOAD DUP1 PUSH1 0x40 ADD PUSH1 0x40 MSTORE DUP1 PUSH1 0x3 DUP2 MSTORE PUSH1 0x20 ADD PUSH3 0x313031 PUSH1 0xE8 SHL DUP2 MSTORE POP DUP2 JUMP JUMPDEST PUSH2 0x1BF PUSH1 0x40 MLOAD DUP1 PUSH1 0x40 ADD PUSH1 0x40 MSTORE DUP1 PUSH1 0x3 DUP2 MSTORE PUSH1 0x20 ADD PUSH3 0x333033 PUSH1 0xE8 SHL DUP2 MSTORE POP DUP2 JUMP JUMPDEST PUSH2 0x1BF PUSH1 0x40 MLOAD DUP1 PUSH1 0x40 ADD PUSH1 0x40 MSTORE DUP1 PUSH1 0x3 DUP2 MSTORE PUSH1 0x20 ADD PUSH3 0x323035 PUSH1 0xE8 SHL DUP2 MSTORE POP DUP2 JUMP JUMPDEST PUSH2 0x331 PUSH1 0x0 DUP2 JUMP JUMPDEST PUSH1 0x40 MLOAD PUSH1 0x1 PUSH1 0x1 PUSH1 0xA0 SHL SUB SWAP1 SWAP2 AND DUP2 MSTORE PUSH1 0x20 ADD PUSH2 0x1CC JUMP JUMPDEST PUSH2 0x1BF PUSH1 0x40 MLOAD DUP1 PUSH1 0x40 ADD PUSH1 0x40 MSTORE DUP1 PUSH1 0x3 DUP2 MSTORE PUSH1 0x20 ADD PUSH3 0x323031 PUSH1 0xE8 SHL DUP2 MSTORE POP DUP2 JUMP JUMPDEST PUSH2 0x1BF PUSH1 0x40 MLOAD DUP1 PUSH1 0x40 ADD PUSH1 0x40 MSTORE DUP1 PUSH1 0x3 DUP2 MSTORE PUSH1 0x20 ADD PUSH3 0x31303 PUSH1 0xEC SHL DUP2 MSTORE POP DUP2 JUMP JUMPDEST PUSH2 0x1BF PUSH1 0x40 MLOAD DUP1 PUSH1 0x40 ADD PUSH1 0x40 MSTORE DUP1 PUSH1 0x3 DUP2 MSTORE PUSH1 0x20 ADD PUSH3 0x32303 PUSH1 0xEC SHL DUP2 MSTORE POP DUP2 JUMP JUMPDEST PUSH2 0x1BF PUSH1 0x40 MLOAD DUP1 PUSH1 0x40 ADD PUSH1 0x40 MSTORE DUP1 PUSH1 0x3 DUP2 MSTORE PUSH1 0x20 ADD PUSH3 0x323039 PUSH1 0xE8 SHL DUP2 MSTORE POP DUP2 JUMP JUMPDEST PUSH2 0x1BF PUSH1 0x40 MLOAD DUP1 PUSH1 0x40 ADD PUSH1 0x40 MSTORE DUP1 PUSH1 0x3 DUP2 MSTORE PUSH1 0x20 ADD PUSH3 0x33303 PUSH1 0xEC SHL DUP2 MSTORE POP DUP2 JUMP JUMPDEST PUSH2 0x1BF PUSH1 0x40 MLOAD DUP1 PUSH1 0x40 ADD PUSH1 0x40 MSTORE DUP1 PUSH1 0x3 DUP2 MSTORE PUSH1 0x20 ADD PUSH3 0x323037 PUSH1 0xE8 SHL DUP2 MSTORE POP DUP2 JUMP JUMPDEST PUSH2 0x1BF PUSH1 0x40 MLOAD DUP1 PUSH1 0x40 ADD PUSH1 0x40 MSTORE DUP1 PUSH1 0x3 DUP2 MSTORE PUSH1 0x20 ADD PUSH3 0x189819 PUSH1 0xE9 SHL DUP2 MSTORE POP DUP2 JUMP JUMPDEST PUSH2 0x1BF PUSH1 0x40 MLOAD DUP1 PUSH1 0x40 ADD PUSH1 0x40 MSTORE DUP1 PUSH1 0x3 DUP2 MSTORE PUSH1 0x20 ADD PUSH3 0x333031 PUSH1 0xE8 SHL DUP2 MSTORE POP DUP2 JUMP JUMPDEST PUSH2 0x1BF PUSH1 0x40 MLOAD DUP1 PUSH1 0x40 ADD PUSH1 0x40 MSTORE DUP1 PUSH1 0x1 DUP2 MSTORE PUSH1 0x20 ADD PUSH1 0x3 PUSH1 0xFC SHL DUP2 MSTORE POP DUP2 JUMP JUMPDEST PUSH2 0x1BF PUSH1 0x40 MLOAD DUP1 PUSH1 0x40 ADD PUSH1 0x40 MSTORE DUP1 PUSH1 0x3 DUP2 MSTORE PUSH1 0x20 ADD PUSH3 0x333037 PUSH1 0xE8 SHL DUP2 MSTORE POP DUP2 JUMP JUMPDEST PUSH2 0x1BF PUSH1 0x40 MLOAD DUP1 PUSH1 0x40 ADD PUSH1 0x40 MSTORE DUP1 PUSH1 0x3 DUP2 MSTORE PUSH1 0x20 ADD PUSH3 0xCCC0D PUSH1 0xEA SHL DUP2 MSTORE POP DUP2 JUMP JUMPDEST PUSH2 0x1BF PUSH1 0x40 MLOAD DUP1 PUSH1 0x40 ADD PUSH1 0x40 MSTORE DUP1 PUSH1 0x3 DUP2 MSTORE PUSH1 0x20 ADD PUSH3 0x333039 PUSH1 0xE8 SHL DUP2 MSTORE POP DUP2 JUMP JUMPDEST PUSH2 0x1BF PUSH1 0x40 MLOAD DUP1 PUSH1 0x40 ADD PUSH1 0x40 MSTORE DUP1 PUSH1 0x3 DUP2 MSTORE PUSH1 0x20 ADD PUSH3 0x32313 PUSH1 0xEC SHL DUP2 MSTORE POP DUP2 JUMP JUMPDEST PUSH2 0x1BF PUSH1 0x40 MLOAD DUP1 PUSH1 0x40 ADD PUSH1 0x40 MSTORE DUP1 PUSH1 0x3 DUP2 MSTORE PUSH1 0x20 ADD PUSH3 0xC8C0D PUSH1 0xEA SHL DUP2 MSTORE POP DUP2 JUMP JUMPDEST PUSH1 0x0 PUSH1 0x20 DUP1 DUP4 MSTORE DUP4 MLOAD DUP1 DUP3 DUP6 ADD MSTORE PUSH1 0x0 JUMPDEST DUP2 DUP2 LT ISZERO PUSH2 0x550 JUMPI DUP6 DUP2 ADD DUP4 ADD MLOAD DUP6 DUP3 ADD PUSH1 0x40 ADD MSTORE DUP3 ADD PUSH2 0x534 JUMP JUMPDEST DUP2 DUP2 GT ISZERO PUSH2 0x562 JUMPI PUSH1 0x0 PUSH1 0x40 DUP4 DUP8 ADD ADD MSTORE JUMPDEST POP PUSH1 0x1F ADD PUSH1 0x1F NOT AND SWAP3 SWAP1 SWAP3 ADD PUSH1 0x40 ADD SWAP4 SWAP3 POP POP POP JUMP INVALID LOG2 PUSH5 0x6970667358 0x22 SLT KECCAK256 0xD3 0x28 SELFDESTRUCT LOG3 SHL SMOD PUSH21 0x98C615CA147FEDE3C583F2800DFC3D6911D4A6A0E2 0x2D 0x28 PUSH23 0xE364736F6C634300080C00330000000000000000000000 "},"methodIdentifiers":{"ERC20_BALANCE_INVALID()":"e81216b5","ERC20_NOT_APPROVED()":"35a02d73","ERC_20_NOT_ALLOW()":"d5bec685","ERC_721_NOT_APPROVED()":"c059011b","FORBIDDEN_TRANSFER_PROJECT()":"ef494c25","INVALID_ERC721_OWNER()":"90131fab","INV_ADD()":"72670508","INV_FEE_PROJECT()":"652b7f31","INV_PARAMS()":"feff83c3","INV_PROJECT()":"38abf0c9","INV_TOKEN()":"8cb739c6","MISSING_NAME()":"86f8148f","OFFERING_CLOSED()":"2b72ddbd","ONLY_ADMIN_ALLOWED()":"552e387c","ONLY_CREATOR()":"b746287b","OPENING_SCHEDULE()":"3a13248f","REACH_MAX()":"23312297","SUCCESS()":"d0a6d1a6","TOKEN_HAS_SEED()":"143c1c36","TOO_HIGH()":"585c081c","TRANSFER_FAIL()":"07475084","VALUE_INVALID()":"5560f1f8","ZERO_ADDR()":"63731080","ZERO_DURATION()":"ec94a577","ZERO_PRICE()":"1557ff24","ZERO_SEED()":"9bf3cfe3"}},"storageLayout":{"storage":[],"types":null}}}}