{"contracts/data/GenerativeProjectData.sol":{"GenerativeProjectData":{"abi":[{"anonymous":false,"inputs":[{"indexed":false,"internalType":"uint8","name":"version","type":"uint8"}],"name":"Initialized","type":"event"},{"anonymous":false,"inputs":[{"indexed":true,"internalType":"address","name":"previousOwner","type":"address"},{"indexed":true,"internalType":"address","name":"newOwner","type":"address"}],"name":"OwnershipTransferred","type":"event"},{"inputs":[],"name":"_admin","outputs":[{"internalType":"address","name":"","type":"address"}],"stateMutability":"view","type":"function"},{"inputs":[],"name":"_generativeProjectAddr","outputs":[{"internalType":"address","name":"","type":"address"}],"stateMutability":"view","type":"function"},{"inputs":[],"name":"_paramAddr","outputs":[{"internalType":"address","name":"","type":"address"}],"stateMutability":"view","type":"function"},{"inputs":[{"internalType":"address","name":"newAdm","type":"address"}],"name":"changeAdmin","outputs":[],"stateMutability":"nonpayable","type":"function"},{"inputs":[{"internalType":"address","name":"newAddr","type":"address"}],"name":"changeParamAddress","outputs":[],"stateMutability":"nonpayable","type":"function"},{"inputs":[{"internalType":"address","name":"newAddr","type":"address"}],"name":"changeProjectAddress","outputs":[],"stateMutability":"nonpayable","type":"function"},{"inputs":[{"internalType":"string","name":"script","type":"string"}],"name":"inflateScript","outputs":[{"internalType":"string","name":"result","type":"string"},{"internalType":"enum Inflate.ErrorCode","name":"err","type":"uint8"}],"stateMutability":"view","type":"function"},{"inputs":[{"internalType":"string","name":"data","type":"string"}],"name":"inflateString","outputs":[{"internalType":"string","name":"result","type":"string"},{"internalType":"enum Inflate.ErrorCode","name":"err","type":"uint8"}],"stateMutability":"view","type":"function"},{"inputs":[{"internalType":"address","name":"admin","type":"address"},{"internalType":"address","name":"paramAddr","type":"address"},{"internalType":"address","name":"generativeProjectAddr","type":"address"}],"name":"initialize","outputs":[],"stateMutability":"nonpayable","type":"function"},{"inputs":[],"name":"owner","outputs":[{"internalType":"address","name":"","type":"address"}],"stateMutability":"view","type":"function"},{"inputs":[{"internalType":"uint256","name":"projectId","type":"uint256"}],"name":"projectURI","outputs":[{"internalType":"string","name":"result","type":"string"}],"stateMutability":"view","type":"function"},{"inputs":[],"name":"renounceOwnership","outputs":[],"stateMutability":"nonpayable","type":"function"},{"inputs":[{"internalType":"uint256","name":"projectId","type":"uint256"},{"internalType":"uint256","name":"tokenId","type":"uint256"},{"internalType":"bytes32","name":"seed","type":"bytes32"}],"name":"tokenBaseURI","outputs":[{"internalType":"string","name":"result","type":"string"}],"stateMutability":"view","type":"function"},{"inputs":[{"internalType":"uint256","name":"projectId","type":"uint256"},{"internalType":"uint256","name":"tokenId","type":"uint256"},{"internalType":"bytes32","name":"seed","type":"bytes32"}],"name":"tokenHTML","outputs":[{"internalType":"string","name":"result","type":"string"}],"stateMutability":"view","type":"function"},{"inputs":[{"internalType":"uint256","name":"projectId","type":"uint256"},{"internalType":"uint256","name":"tokenId","type":"uint256"},{"internalType":"bytes32","name":"seed","type":"bytes32"}],"name":"tokenURI","outputs":[{"internalType":"string","name":"result","type":"string"}],"stateMutability":"view","type":"function"},{"inputs":[{"internalType":"address","name":"newOwner","type":"address"}],"name":"transferOwnership","outputs":[],"stateMutability":"nonpayable","type":"function"}],"evm":{"bytecode":{"linkReferences":{},"object":"608060405234801561001057600080fd5b5061495c806100206000396000f3fe608060405234801561001057600080fd5b50600436106101005760003560e01c80637af34af211610097578063c0c53b8b11610066578063c0c53b8b14610216578063e808285814610229578063f2fde38b1461023c578063f4a290f71461024f57600080fd5b80637af34af2146101cc5780638da5cb5b146101df5780638f283970146101f0578063941393011461020357600080fd5b8063567fdcf3116100d3578063567fdcf31461017d5780636e973cf214610190578063715018a6146101b157806379ebc6f0146101b957600080fd5b806301bc45c91461010557806316a5041f1461013557806331c7280c1461014a57806346eaa7481461016a575b600080fd5b606554610118906001600160a01b031681565b6040516001600160a01b0390911681526020015b60405180910390f35b610148610143366004613911565b610262565b005b61015d61015836600461392e565b6102fc565b60405161012c91906139b2565b61015d61017836600461392e565b6104fe565b606754610118906001600160a01b031681565b6101a361019e366004613a7d565b610667565b60405161012c929190613b12565b610148610685565b61015d6101c7366004613b52565b610699565b6101a36101da366004613a7d565b610a8e565b6033546001600160a01b0316610118565b6101486101fe366004613911565b610aad565b61015d61021136600461392e565b610b3f565b610148610224366004613b6b565b610e9c565b610148610237366004613911565b611008565b61014861024a366004613911565b61109a565b606654610118906001600160a01b031681565b6065546001600160a01b03163314801561028457506001600160a01b03811615155b6040518060400160405280600381526020016231303160e81b815250906102c75760405162461bcd60e51b81526004016102be91906139b2565b60405180910390fd5b506066546001600160a01b038281169116146102f957606680546001600160a01b0319166001600160a01b0383161790555b50565b6067546040516346ec8d2b60e11b8152600481018590526060916001600160a01b0316906000908290638dd91a5690602401600060405180830381865afa15801561034b573d6000803e3d6000fd5b505050506040513d6000823e601f3d908101601f191682016040526103739190810190613e0c565b9050600060405180602001604052806000815250905060606000805b846101800151518110156104f057600085610180015182815181106103b6576103b661406c565b60200260200101515111156104de57306001600160a01b0316637af34af286610180015183815181106103eb576103eb61406c565b60200260200101516040518263ffffffff1660e01b815260040161040f91906139b2565b600060405180830381865afa15801561042c573d6000803e3d6000fd5b505050506040513d6000823e601f3d908101601f191682016040526104549190810190614082565b9093509150600082600e81111561046d5761046d613afc565b146104b95783856101800151828151811061048a5761048a61406c565b60200260200101516040516020016104a39291906140f3565b60405160208183030381529060405293506104de565b83836040516020016104cc9291906140f3565b60405160208183030381529060405293505b806104e881614138565b91505061038f565b509198975050505050505050565b6066546040805180820182526008815267424153455f55524960c01b6020820152905163349f642f60e11b81526060926001600160a01b031691600091839163693ec85e9161055091906004016139b2565b600060405180830381865afa15801561056d573d6000803e3d6000fd5b505050506040513d6000823e601f3d908101601f191682016040526105959190810190614153565b6067546040516346ec8d2b60e11b8152600481018990529192506001600160a01b0316906000908290638dd91a5690602401600060405180830381865afa1580156105e4573d6000803e3d6000fd5b505050506040513d6000823e601f3d908101601f1916820160405261060c9190810190613e0c565b6067549091508390610626906001600160a01b0316611110565b61062f8961112c565b610638896111c8565b60405160200161064b9493929190614187565b6040516020818303038152906040529450505050509392505050565b6060600061067c61067784611214565b611382565b91509150915091565b61068d6114d8565b6106976000611532565b565b60606106f56040518061010001604052806060815260200160006001600160a01b031681526020016060815260200160608152602001606081526020016060815260200160006001600160a01b03168152602001606081525090565b6067546040516346ec8d2b60e11b8152600481018590526001600160a01b03909116906000908290638dd91a5690602401600060405180830381865afa158015610743573d6000803e3d6000fd5b505050506040513d6000823e601f3d908101601f1916820160405261076b9190810190613e0c565b9050600061077c620f424087614209565b90506000306001600160a01b03166331c7280c8884856040516020016107a491815260200190565b604051602081830303815290604052805190602001206040518463ffffffff1660e01b81526004016107e9939291909283526020830191909152604082015260600190565b600060405180830381865afa158015610806573d6000803e3d6000fd5b505050506040513d6000823e601f3d908101601f1916820160405261082e9190810190614153565b805190915015610882576108608160405160200161084c9190614228565b604051602081830303815290604052611584565b6040516020016108709190614244565b60405160208183030381529060405290505b6000816040516020016108959190614282565b604051602081830303815290604052905083608001516108b48961112c565b6040516020016108c59291906142c9565b60408051601f19818403018152918152870152610100840151608087018190526060906000906108f490610667565b9092509050600081600e81111561090d5761090d613afc565b141561091b57608088018290525b610120860151606089015260a08089018490526101e08701516001600160a01b0390811660c0808c0191909152880151166020808b019190915290870151895260408051918201905260008082525b876101600151518160ff1610156109ea578161099261098a836001614306565b60ff1661112c565b8961016001518360ff16815181106109ac576109ac61406c565b60200260200101516040516020016109c69392919061432b565b604051602081830303815290604052915080806109e2906143b9565b91505061096a565b506109f88960c00151611110565b895160208b0151610a0890611110565b8960e0015184604051602001610a229594939291906143d9565b60408051601f1981840301815291815260e08b018290528a81015160808c015160608d015160a08e01519351610a5f9561084c959160200161455a565b604051602001610a6f919061463f565b6040516020818303038152906040529950505050505050505050919050565b6060600061067c61019e6009808651610aa79190614684565b866116e9565b6065546001600160a01b031633148015610acf57506001600160a01b03811615155b6040518060400160405280600381526020016231303160e81b81525090610b095760405162461bcd60e51b81526004016102be91906139b2565b506065546001600160a01b038281169116146102f957606580546001600160a01b0383166001600160a01b031990911617905550565b6060610b736040518060a0016040528060608152602001606081526020016060815260200160608152602001606081525090565b606654604080518082018252600e81526d109054d157d5549257d51490525560921b6020820152905163349f642f60e11b81526001600160a01b0390921691829163693ec85e91610bc791906004016139b2565b600060405180830381865afa158015610be4573d6000803e3d6000fd5b505050506040513d6000823e601f3d908101601f19168201604052610c0c9190810190614153565b60408381019190915260675490516346ec8d2b60e11b8152600481018890526001600160a01b03909116906000908290638dd91a5690602401600060405180830381865afa158015610c62573d6000803e3d6000fd5b505050506040513d6000823e601f3d908101601f19168201604052610c8a9190810190613e0c565b604051630c71ca0360e21b8152600481018a9052602481018990526044810188905290915060009030906331c7280c90606401600060405180830381865afa158015610cda573d6000803e3d6000fd5b505050506040513d6000823e601f3d908101601f19168201604052610d029190810190614153565b805190915015610d4257610d208160405160200161084c9190614228565b604051602001610d309190614244565b60405160208183030381529060405290505b80604051602001610d539190614282565b60408051601f1981840301815291905260608601526080820151610d768961112c565b604051602001610d879291906142c9565b60408051601f19818403018152919052855261010082015160208601526102008201515115610dbc5761020082015160208601525b60606000610dcd8760200151610667565b9092509050600081600e811115610de657610de6613afc565b1415610df457602087018290525b6040870151606754610e0e906001600160a01b0316611110565b610e178c61112c565b610e208c6111c8565b604051602001610e339493929190614187565b60408051601f19818403018152918152888101829052885160208a81015160608c01519351610e6d9561084c95929390929183910161469b565b604051602001610e7d919061463f565b6040516020818303038152906040529750505050505050509392505050565b600054610100900460ff1615808015610ebc5750600054600160ff909116105b80610ed65750303b158015610ed6575060005460ff166001145b610f395760405162461bcd60e51b815260206004820152602e60248201527f496e697469616c697a61626c653a20636f6e747261637420697320616c72656160448201526d191e481a5b9a5d1a585b1a5e995960921b60648201526084016102be565b6000805460ff191660011790558015610f5c576000805461ff0019166101001790555b606580546001600160a01b038087166001600160a01b031992831617909255606680548684169083161790556067805492851692909116919091179055610fa16117d1565b60408051808201909152600381526231323360e81b6020909101528015611002576000805461ff0019169055604051600181527f7f26b83ff96e1f2b6a682f133852f6798a09c465da95921460cefb38474024989060200160405180910390a15b50505050565b6065546001600160a01b03163314801561102a57506001600160a01b03811615155b6040518060400160405280600381526020016231303160e81b815250906110645760405162461bcd60e51b81526004016102be91906139b2565b506067546001600160a01b038281169116146102f957606780546001600160a01b0383166001600160a01b031990911617905550565b6110a26114d8565b6001600160a01b0381166111075760405162461bcd60e51b815260206004820152602660248201527f4f776e61626c653a206e6577206f776e657220697320746865207a65726f206160448201526564647265737360d01b60648201526084016102be565b6102f981611532565b60606111266001600160a01b0383166014611800565b92915050565b606060006111398361199b565b60010190506000816001600160401b03811115611158576111586139c5565b6040519080825280601f01601f191660200182016040528015611182576020820181803683370190505b5090508181016020015b600019016f181899199a1a9b1b9c1cb0b131b232b360811b600a86061a8153600a85049450846111bb576111c0565b61118c565b509392505050565b60606111d382611a73565b6111e0608084901b611a73565b60405161060f60f31b6020820152602281019290925260428201526062016040516020818303038152906040529050919050565b80516060908290158061123357506004815161123091906147c4565b15155b1561124e5760408051600080825260208201909252906111c0565b60006040518060a00160405280608081526020016148a760809139905060006004835161127b91906147d8565b611286906003614209565b905060006112958260206147ec565b6001600160401b038111156112ac576112ac6139c5565b6040519080825280601f01601f1916602001820160405280156112d6576020820181803683370190505b5090508351840151603d60ff8216141561130557600183039250613d3d61ffff82161415611305576001830392505b50818152600183018485518101602084015b8183101561137457600483019250825160ff8082168601511660ff808360081c168701511660061b0160ff808360101c1687015116600c1b60ff808460181c168801511660121b010190508060e81b825250600381019050611317565b509298975050505050505050565b60606000606061139f848551600561139a9190614209565b611c25565b9092509050600082600e8111156113b8576113b8613afc565b14156114bf5760005b8181815181106113d3576113d361406c565b01602001516001600160f81b0319166113eb5761140b565b806113f581614138565b91505081518114156114065761140b565b6113c1565b6000816001600160401b03811115611425576114256139c5565b6040519080825280601f01601f19166020018201604052801561144f576020820181803683370190505b50905060005b828110156114b55783818151811061146f5761146f61406c565b602001015160f81c60f81b82828151811061148c5761148c61406c565b60200101906001600160f81b031916908160001a905350806114ad81614138565b915050611455565b5093506114d29050565b6040518060200160405280600081525092505b50915091565b6033546001600160a01b031633146106975760405162461bcd60e51b815260206004820181905260248201527f4f776e61626c653a2063616c6c6572206973206e6f7420746865206f776e657260448201526064016102be565b603380546001600160a01b038381166001600160a01b0319831681179093556040519116919082907f8be0079c531659141344cd1fd0a4f28419497f9722a3daafe3b4186f6b6457e090600090a35050565b60608151600014156115a457505060408051602081019091526000815290565b600060405180606001604052806040815260200161486760409139905060006003845160026115d391906147ec565b6115dd91906147d8565b6115e8906004614209565b905060006115f78260206147ec565b6001600160401b0381111561160e5761160e6139c5565b6040519080825280601f01601f191660200182016040528015611638576020820181803683370190505b509050818152600183018586518101602084015b818310156116a4576003830192508251603f8160121c168501518253600182019150603f81600c1c168501518253600182019150603f8160061c168501518253600182019150603f811685015182535060010161164c565b6003895106600181146116be57600281146116cf576116db565b613d3d60f01b6001198301526116db565b603d60f81b6000198301525b509398975050505050505050565b606060006116f78585614684565b6117029060016147ec565b6001600160401b03811115611719576117196139c5565b6040519080825280601f01601f191660200182016040528015611743576020820181803683370190505b50905060005b6117538686614684565b81116117c65783600161176688846147ec565b6117709190614684565b815181106117805761178061406c565b602001015160f81c60f81b82828151811061179d5761179d61406c565b60200101906001600160f81b031916908160001a905350806117be81614138565b915050611749565b5090505b9392505050565b600054610100900460ff166117f85760405162461bcd60e51b81526004016102be90614804565b610697611ed6565b6060600061180f836002614209565b61181a9060026147ec565b6001600160401b03811115611831576118316139c5565b6040519080825280601f01601f19166020018201604052801561185b576020820181803683370190505b509050600360fc1b816000815181106118765761187661406c565b60200101906001600160f81b031916908160001a905350600f60fb1b816001815181106118a5576118a561406c565b60200101906001600160f81b031916908160001a90535060006118c9846002614209565b6118d49060016147ec565b90505b600181111561194c576f181899199a1a9b1b9c1cb0b131b232b360811b85600f16601081106119085761190861406c565b1a60f81b82828151811061191e5761191e61406c565b60200101906001600160f81b031916908160001a90535060049490941c936119458161484f565b90506118d7565b5083156117ca5760405162461bcd60e51b815260206004820181905260248201527f537472696e67733a20686578206c656e67746820696e73756666696369656e7460448201526064016102be565b60008072184f03e93ff9f4daa797ed6e38ed64bf6a1f0160401b83106119da5772184f03e93ff9f4daa797ed6e38ed64bf6a1f0160401b830492506040015b6d04ee2d6d415b85acef81000000008310611a06576d04ee2d6d415b85acef8100000000830492506020015b662386f26fc100008310611a2457662386f26fc10000830492506010015b6305f5e1008310611a3c576305f5e100830492506008015b6127108310611a5057612710830492506004015b60648310611a62576064830492506002015b600a83106111265760010192915050565b7aff00000000000000ff00000000000000ff00000000000000ff00006bffffffff0000000000000000604083901c90811663ffffffff60c01b84161760201c63ffffffff60601b919091166001600160e01b031984161717601081901c9182167eff00000000000000ff00000000000000ff00000000000000ff000000000000821617600890811c7bff00000000000000ff00000000000000ff00000000000000ff000000939093167fff00000000000000ff00000000000000ff00000000000000ff000000000000009290921691909117919091179081901c7e0f000f000f000f000f000f000f000f000f000f000f000f000f000f000f000f167f0f000f000f000f000f000f000f000f000f000f000f000f000f000f000f000f00600492831c161790611bc1827f06060606060606060606060606060606060606060606060606060606060606066147ec565b901c7f0f0f0f0f0f0f0f0f0f0f0f0f0f0f0f0f0f0f0f0f0f0f0f0f0f0f0f0f0f0f0f0f166007611bf19190614209565b611c1b827f30303030303030303030303030303030303030303030303030303030303030306147ec565b61112691906147ec565b600060606000604051806101000160405280856001600160401b03811115611c4f57611c4f6139c5565b6040519080825280601f01601f191660200182016040528015611c79576020820181803683370190505b508152602001600081526020018681526020016000815260200160008152602001600081526020016040518060400160405280600f6001611cba91906147ec565b6001600160401b03811115611cd157611cd16139c5565b604051908082528060200260200182016040528015611cfa578160200160208202803683370190505b5081526040805161012080825261242082019092526020928301929091908201612400803683370190505081525081526020016040518060400160405280600f6001611d4691906147ec565b6001600160401b03811115611d5d57611d5d6139c5565b604051908082528060200260200182016040528015611d86578160200160208202803683370190505b50815260408051601e8082526103e0820190925260209283019290919082016103c08036833750505090529052905060008080611dc284611f06565b9050600081600e811115611dd857611dd8613afc565b14611ded579251929450919250611ecf915050565b82611ec457611dfd846001612090565b93509050600081600e811115611e1557611e15613afc565b14611e2a579251929450919250611ecf915050565b611e35846002612090565b92509050600081600e811115611e4d57611e4d613afc565b14611e62579251929450919250611ecf915050565b8115611e965781600114611e8d5781600214611e7f576003611e9f565b611e8884612161565b611e9f565b611e88846121db565b611e9f846121f0565b9050600081600e811115611eb557611eb5613afc565b14611ebf57611ec4565b611ded565b925192945091925050505b9250929050565b600054610100900460ff16611efd5760405162461bcd60e51b81526004016102be90614804565b61069733611532565b604080516101208082526124208201909252600091829182916020820161240080368337019050509050600091505b6090821015611f6f576008818381518110611f5257611f5261406c565b602090810291909101015281611f6781614138565b925050611f35565b610100821015611faa576009818381518110611f8d57611f8d61406c565b602090810291909101015281611fa281614138565b925050611f6f565b610118821015611fe5576007818381518110611fc857611fc861406c565b602090810291909101015281611fdd81614138565b925050611faa565b6101208210156120205760088183815181106120035761200361406c565b60209081029190910101528161201881614138565b925050611fe5565b6120338460c00151826101206000612400565b50600091505b601e8210156120735760058183815181106120565761205661406c565b60209081029190910101528161206b81614138565b925050612039565b6120858460e0015182601e6000612400565b506000949350505050565b608082015160009081905b838560a00151101561212457846040015151856060015114156120c657600160009250925050611ecf565b60a08501516040860151606087018051906120e082614138565b9052815181106120f2576120f261406c565b602001015160f81c60f81b60f81c60ff16901b8117905060088560a00181815161211c91906147ec565b90525061209b565b80841c608086015260a085018051859190612140908390614684565b9052506000612152600180871b614684565b60009792169550909350505050565b6000612180604051806040016040528060608152602001606081525090565b6040805180820190915260608082526020820152600061219f856126cb565b90945092509050600081600e8111156121ba576121ba613afc565b146121c757949350505050565b6121d2858484612d81565b95945050505050565b6000611126828360c001518460e00151612d81565b60006080820181905260a0820181905260408201515160608301518291906122199060046147ec565b11156122285750600192915050565b60408301516060840180519061223d82614138565b90528151811061224f5761224f61406c565b0160200151604084015160608501805160f89390931c93506008929061227482614138565b9052815181106122865761228661406c565b602001015160f81c60f81b60f81c60ff16901b81179050801960ff1683604001518460600180518091906122b990614138565b9052815181106122cb576122cb61406c565b016020015160f81c1415806123165750604083015160608401805160ff841960081c1692916122f982614138565b90528151811061230b5761230b61406c565b016020015160f81c14155b156123245750600492915050565b82604001515181846060015161233a91906147ec565b11156123495750600192915050565b825151602084015161235c9083906147ec565b111561236b5750600292915050565b80156123f75761237c600182614684565b9050826040015183606001805180919061239590614138565b9052815181106123a7576123a761406c565b602001015160f81c60f81b83600001518460200180518091906123c990614138565b9052815181106123db576123db61406c565b60200101906001600160f81b031916908160001a90535061236b565b50600092915050565b60008060008061240e6138dd565b600092505b600f8311612450576000896000015184815181106124335761243361406c565b60209081029190910101528261244881614138565b935050612413565b600093505b868410156124bc5788518861246a86896147ec565b8151811061247a5761247a61406c565b6020026020010151815181106124925761249261406c565b6020026020010180518091906124a790614138565b905250836124b481614138565b945050612455565b8689600001516000815181106124d4576124d461406c565b602002602001015114156124ef5760009450505050506126c3565b60019150600192505b600f8311612572578851805160019390931b928490811061251b5761251b61406c565b602002602001015182101561253757600e9450505050506126c3565b885180518490811061254b5761254b61406c565b60200260200101518261255e9190614684565b91508261256a81614138565b9350506124f8565b60006020820152600192505b600f8310156125f757885180518490811061259b5761259b61406c565b60200260200101518184601081106125b5576125b561406c565b60200201516125c491906147ec565b816125d08560016147ec565b601081106125e0576125e061406c565b6020020152826125ef81614138565b93505061257e565b600093505b868410156126aa578761260f85886147ec565b8151811061261f5761261f61406c565b60200260200101516000146126985760208901518490828a612641848b6147ec565b815181106126515761265161406c565b6020026020010151601081106126695761266961406c565b6020020180519061267982614138565b90528151811061268b5761268b61406c565b6020026020010181815250505b836126a281614138565b9450506125fc565b600082116126b95760006126bc565b600e5b9450505050505b949350505050565b60006126ea604051806040016040528060608152602001606081525090565b6040805180820190915260608082526020820152600080808080612711601e61011e6147ec565b6001600160401b03811115612728576127286139c5565b604051908082528060200260200182016040528015612751578160200160208202803683370190505b50905060006040518060400160405280600f600161276f91906147ec565b6001600160401b03811115612786576127866139c5565b6040519080825280602002602001820160405280156127af578160200160208202803683370190505b5081526040805161011e8082526123e0820190925260209283019290919082016123c08036833701905050815250905060006040518060400160405280600f60016127fa91906147ec565b6001600160401b03811115612811576128116139c5565b60405190808252806020026020018201604052801561283a578160200160208202803683370190505b50815260408051601e8082526103e0820190925260209283019290919082016103c0803683375050509052905060006128748c6005612090565b98509450600085600e81111561288c5761288c613afc565b146128a457509298509650909450612d7a9350505050565b6128b0610101896147ec565b97506128bd8c6005612090565b97509450600085600e8111156128d5576128d5613afc565b146128ed57509298509650909450612d7a9350505050565b6128f86001886147ec565b965061011e88118061290a5750601e87115b156129245750600599509097509550612d7a945050505050565b61292d8c6135ac565b9095509350600085600e81111561294657612946613afc565b1461295e57509298509650909450612d7a9350505050565b61296c838560136000612400565b9450600085600e81111561298257612982613afc565b1461299c5750600699509097509550612d7a945050505050565b600095505b6129ab87896147ec565b861015612ba4576000806129bf8e866137ce565b9097509150600087600e8111156129d8576129d8613afc565b146129f25750949a509198509650612d7a95505050505050565b6010821015612a2a57818689612a0781614138565b9a5081518110612a1957612a1961406c565b602002602001018181525050612b9d565b5060006010821415612ac95787612a53575060079b50929950909750612d7a9650505050505050565b85612a5f60018a614684565b81518110612a6f57612a6f61406c565b60200260200101519050612a848e6002612090565b9097509250600087600e811115612a9d57612a9d613afc565b14612ab75750949a509198509650612d7a95505050505050565b612ac28360036147ec565b9150612b29565b8160111415612add57612a848e6003612090565b612ae88e6007612090565b9097509250600087600e811115612b0157612b01613afc565b14612b1b5750949a509198509650612d7a95505050505050565b612b2683600b6147ec565b91505b612b33898b6147ec565b612b3d838a6147ec565b1115612b5b575060089b50929950909750612d7a9650505050505050565b8115612b9d57612b6c600183614684565b9150808689612b7a81614138565b9a5081518110612b8c57612b8c61406c565b602002602001018181525050612b5b565b50506129a1565b8361010081518110612bb857612bb861406c565b602002602001015160001415612bdd5750600b99509097509550612d7a945050505050565b612bea83858a6000612400565b9450600085600e811115612c0057612c00613afc565b14158015612c8a5750600185600e811115612c1d57612c1d613afc565b1480612c3a5750600285600e811115612c3857612c38613afc565b145b80612c8a5750825180516001908110612c5557612c5561406c565b60200260200101518360000151600081518110612c7457612c7461406c565b6020026020010151612c8691906147ec565b8814155b15612ca45750600999509097509550612d7a945050505050565b612cb08285898b612400565b9450600085600e811115612cc657612cc6613afc565b14158015612d505750600185600e811115612ce357612ce3613afc565b1480612d005750600285600e811115612cfe57612cfe613afc565b145b80612d505750815180516001908110612d1b57612d1b61406c565b60200260200101518260000151600081518110612d3a57612d3a61406c565b6020026020010151612d4c91906147ec565b8714155b15612d6a5750600a99509097509550612d7a945050505050565b5060009950909750955050505050505b9193909250565b6000806000806000604051806103a00160405280600361ffff168152602001600461ffff168152602001600561ffff168152602001600661ffff168152602001600761ffff168152602001600861ffff168152602001600961ffff168152602001600a61ffff168152602001600b61ffff168152602001600d61ffff168152602001600f61ffff168152602001601161ffff168152602001601361ffff168152602001601761ffff168152602001601b61ffff168152602001601f61ffff168152602001602361ffff168152602001602b61ffff168152602001603361ffff168152602001603b61ffff168152602001604361ffff168152602001605361ffff168152602001606361ffff168152602001607361ffff168152602001608361ffff16815260200160a361ffff16815260200160c361ffff16815260200160e361ffff16815260200161010261ffff1681525090506000604051806103a00160405280600060ff168152602001600060ff168152602001600060ff168152602001600060ff168152602001600060ff168152602001600060ff168152602001600060ff168152602001600060ff168152602001600160ff168152602001600160ff168152602001600160ff168152602001600160ff168152602001600260ff168152602001600260ff168152602001600260ff168152602001600260ff168152602001600360ff168152602001600360ff168152602001600360ff168152602001600360ff168152602001600460ff168152602001600460ff168152602001600460ff168152602001600460ff168152602001600560ff168152602001600560ff168152602001600560ff168152602001600560ff168152602001600060ff1681525090506000604051806103c00160405280600161ffff168152602001600261ffff168152602001600361ffff168152602001600461ffff168152602001600561ffff168152602001600761ffff168152602001600961ffff168152602001600d61ffff168152602001601161ffff168152602001601961ffff168152602001602161ffff168152602001603161ffff168152602001604161ffff168152602001606161ffff168152602001608161ffff16815260200160c161ffff16815260200161010161ffff16815260200161018161ffff16815260200161020161ffff16815260200161030161ffff16815260200161040161ffff16815260200161060161ffff16815260200161080161ffff168152602001610c0161ffff16815260200161100161ffff16815260200161180161ffff16815260200161200161ffff16815260200161300161ffff16815260200161400161ffff16815260200161600161ffff1681525090506000604051806103c00160405280600060ff168152602001600060ff168152602001600060ff168152602001600060ff168152602001600160ff168152602001600160ff168152602001600260ff168152602001600260ff168152602001600360ff168152602001600360ff168152602001600460ff168152602001600460ff168152602001600560ff168152602001600560ff168152602001600660ff168152602001600660ff168152602001600760ff168152602001600760ff168152602001600860ff168152602001600860ff168152602001600960ff168152602001600960ff168152602001600a60ff168152602001600a60ff168152602001600b60ff168152602001600b60ff168152602001600c60ff168152602001600c60ff168152602001600d60ff168152602001600d60ff16815250905060005b876101001461359a576132bb8c8c6137ce565b98509050600081600e8111156132d3576132d3613afc565b146132e75797506117ca9650505050505050565b61010088101561335d578b515160208d01511415613310576002985050505050505050506117ca565b8760f81b8c600001518d602001518151811061332e5761332e61406c565b60200101906001600160f81b031916908160001a90535060208c0180519061335582614138565b9052506132a8565b6101008811156135885760006133756101018a614684565b9850601d891061339157600c99505050505050505050506117ca565b6133b48d868b601d81106133a7576133a761406c565b602002015160ff16612090565b9092509050600082600e8111156133cd576133cd613afc565b146133e2575097506117ca9650505050505050565b80868a601d81106133f5576133f561406c565b602002015161ffff1661340891906147ec565b97506134148d8c6137ce565b99509150600082600e81111561342c5761342c613afc565b14613441575097506117ca9650505050505050565b6134578d848b601e81106133a7576133a761406c565b9092509050600082600e81111561347057613470613afc565b14613485575097506117ca9650505050505050565b80848a601e81106134985761349861406c565b602002015161ffff166134ab91906147ec565b96508c602001518711156134cb57600d99505050505050505050506117ca565b8c515160208e01516134de908a906147ec565b11156134f657600299505050505050505050506117ca565b871561358257613507600189614684565b97508c60000151878e6020015161351e9190614684565b8151811061352e5761352e61406c565b602001015160f81c60f81b8d600001518e60200151815181106135535761355361406c565b60200101906001600160f81b031916908160001a90535060208d0180519061357a82614138565b9052506134f6565b506132a8565b868c60200181815161335591906147ec565b5060009b9a5050505050505050505050565b600060608180806135c0601e61011e6147ec565b6001600160401b038111156135d7576135d76139c5565b604051908082528060200260200182016040528015613600578160200160208202803683370190505b506040805161026081018252601081526011602082015260129181019190915260006060820181905260086080830152600760a0830152600960c0830152600660e0830152600a6101008301526005610120830152600b61014083015260046101608301819052600c61018084015260036101a0840152600d6101c084015260026101e0840152600e6102008401526001610220840152600f610240840152929350916136ae908990612090565b95509150600082600e8111156136c6576136c6613afc565b146136d75750969095509350505050565b6136e26004866147ec565b9450600093505b8484101561376b576136fc886003612090565b8483876013811061370f5761370f61406c565b602002015160ff16815181106137275761372761406c565b60209081029190910101529150600082600e81111561374857613748613afc565b146137595750969095509350505050565b8361376381614138565b9450506136e9565b60138410156137be576000838286601381106137895761378961406c565b602002015160ff16815181106137a1576137a161406c565b6020908102919091010152836137b681614138565b94505061376b565b5060009791965090945050505050565b600080600181808080805b600f86116138ca5760006137ee8b6001612090565b9092509050600082600e81111561380757613807613afc565b1461381e5750965060009550611ecf945050505050565b8951805196821796889081106138365761383661406c565b60200260200101519350838561384c91906147ec565b8610156138975760208a01516000906138658789614684565b61386f90866147ec565b8151811061387f5761387f61406c565b60200260200101519850985050505050505050611ecf565b6138a184846147ec565b92506138ad84866147ec565b600196871b961b94508690506138c281614138565b9650506137d9565b50600c9960009950975050505050505050565b6040518061020001604052806010906020820280368337509192915050565b6001600160a01b03811681146102f957600080fd5b60006020828403121561392357600080fd5b81356117ca816138fc565b60008060006060848603121561394357600080fd5b505081359360208301359350604090920135919050565b60005b8381101561397557818101518382015260200161395d565b838111156110025750506000910152565b6000815180845261399e81602086016020860161395a565b601f01601f19169290920160200192915050565b6020815260006117ca6020830184613986565b634e487b7160e01b600052604160045260246000fd5b60405160a081016001600160401b03811182821017156139fd576139fd6139c5565b60405290565b60405161026081016001600160401b03811182821017156139fd576139fd6139c5565b604051601f8201601f191681016001600160401b0381118282101715613a4e57613a4e6139c5565b604052919050565b60006001600160401b03821115613a6f57613a6f6139c5565b50601f01601f191660200190565b600060208284031215613a8f57600080fd5b81356001600160401b03811115613aa557600080fd5b8201601f81018413613ab657600080fd5b8035613ac9613ac482613a56565b613a26565b818152856020838501011115613ade57600080fd5b81602084016020830137600091810160200191909152949350505050565b634e487b7160e01b600052602160045260246000fd5b604081526000613b256040830185613986565b9050600f8310613b4557634e487b7160e01b600052602160045260246000fd5b8260208301529392505050565b600060208284031215613b6457600080fd5b5035919050565b600080600060608486031215613b8057600080fd5b8335613b8b816138fc565b92506020840135613b9b816138fc565b91506040840135613bab816138fc565b809150509250925092565b805162ffffff81168114613bc957600080fd5b919050565b8051613bc9816138fc565b600082601f830112613bea57600080fd5b8151613bf8613ac482613a56565b818152846020838601011115613c0d57600080fd5b6126c382602083016020870161395a565b600060a08284031215613c3057600080fd5b613c386139db565b905081516001600160401b0380821115613c5157600080fd5b613c5d85838601613bd9565b83526020840151915080821115613c7357600080fd5b613c7f85838601613bd9565b60208401526040840151915080821115613c9857600080fd5b613ca485838601613bd9565b60408401526060840151915080821115613cbd57600080fd5b613cc985838601613bd9565b60608401526080840151915080821115613ce257600080fd5b50613cef84828501613bd9565b60808301525092915050565b60006001600160401b03821115613d1457613d146139c5565b5060051b60200190565b600082601f830112613d2f57600080fd5b81516020613d3f613ac483613cfb565b82815260059290921b84018101918181019086841115613d5e57600080fd5b8286015b84811015613d9d5780516001600160401b03811115613d815760008081fd5b613d8f8986838b0101613bd9565b845250918301918301613d62565b509695505050505050565b600082601f830112613db957600080fd5b81516020613dc9613ac483613cfb565b82815260059290921b84018101918181019086841115613de857600080fd5b8286015b84811015613d9d578051613dff816138fc565b8352918301918301613dec565b600060208284031215613e1e57600080fd5b81516001600160401b0380821115613e3557600080fd5b908301906102608286031215613e4a57600080fd5b613e52613a03565b613e5b83613bb6565b8152613e6960208401613bb6565b602082015260408301516040820152613e8460608401613bce565b6060820152608083015182811115613e9b57600080fd5b613ea787828601613bd9565b60808301525060a083015182811115613ebf57600080fd5b613ecb87828601613bd9565b60a083015250613edd60c08401613bce565b60c082015260e083015182811115613ef457600080fd5b613f0087828601613bd9565b60e0830152506101008084015183811115613f1a57600080fd5b613f2688828701613bd9565b8284015250506101208084015183811115613f4057600080fd5b613f4c88828701613bd9565b8284015250506101408084015183811115613f6657600080fd5b613f7288828701613c1e565b8284015250506101608084015183811115613f8c57600080fd5b613f9888828701613d1e565b8284015250506101808084015183811115613fb257600080fd5b613fbe88828701613d1e565b8284015250506101a08084015183811115613fd857600080fd5b613fe488828701613bd9565b8284015250506101c08084015181830152506101e0614004818501613bce565b90820152610200838101518381111561401c57600080fd5b61402888828701613bd9565b828401525050610220808401518381111561404257600080fd5b61404e88828701613da8565b91830191909152506102409283015192810192909252509392505050565b634e487b7160e01b600052603260045260246000fd5b6000806040838503121561409557600080fd5b82516001600160401b038111156140ab57600080fd5b6140b785828601613bd9565b9250506020830151600f81106140cc57600080fd5b809150509250929050565b600081516140e981856020860161395a565b9290920192915050565b6000835161410581846020880161395a565b83519083019061411981836020880161395a565b01949350505050565b634e487b7160e01b600052601160045260246000fd5b600060001982141561414c5761414c614122565b5060010190565b60006020828403121561416557600080fd5b81516001600160401b0381111561417b57600080fd5b6126c384828501613bd9565b60008551614199818460208a0161395a565b8083019050602f60f81b80825286516141b9816001850160208b0161395a565b600192019182015284516141d481600284016020890161395a565b653f736565643d60d01b6002929091019182015283516141fb81600884016020880161395a565b016008019695505050505050565b600081600019048311821515161561422357614223614122565b500290565b6000825161423a81846020870161395a565b9190910192915050565b7519185d184e9d195e1d0bda1d1b5b0ed8985cd94d8d0b60521b81526000825161427581601685016020870161395a565b9190910160160192915050565b7216101130b734b6b0ba34b7b72fbab936111d1160691b815281516000906142b181601385016020870161395a565b601160f91b6013939091019283015250601401919050565b600083516142db81846020880161395a565b61202360f01b90830190815283516142fa81600284016020880161395a565b01600201949350505050565b600060ff821660ff84168060ff0382111561432357614323614122565b019392505050565b6000845161433d81846020890161395a565b740163d913a3930b4ba2fba3cb832911d10112634b11605d1b908301908152845161436f81601584016020890161395a565b6c111610113b30b63ab2911d101160991b60159290910191820152835161439d81602284016020880161395a565b61227d60f01b6022929091019182015260240195945050505050565b600060ff821660ff8114156143d0576143d0614122565b60010192915050565b7f2c2261747472696275746573223a205b7b2274726169745f74797065223a202281527f436f6c6c656374696f6e2041646472657373222c202276616c7565223a20220060208201526000865161443781603f850160208b0161395a565b61227d60f01b603f9184019182018190527f2c7b2274726169745f74797065223a202243726561746f72222c202276616c7560418301526432911d101160d91b6061830152875161448f816066850160208c0161395a565b60669201918201527f2c7b2274726169745f74797065223a202243726561746f72204164647265737360688201526c111610113b30b63ab2911d101160991b608882015261454e61454161453b6144f06145356144fe82609588018d6140d7565b61227d60f01b815260020190565b7f2c7b2274726169745f74797065223a20224c6963656e7365222c202276616c7581526432911d101160d91b602082015260250190565b896140d7565b866140d7565b605d60f81b815260010190565b98975050505050505050565b683d913730b6b2911d1160b91b8152855160009061457f816009850160208b0161395a565b601160f91b60099184019182018190526f16113232b9b1b934b83a34b7b7111d1160811b600a83015287516145bb81601a850160208c0161395a565b601a920191820181905269161134b6b0b3b2911d1160b11b601b83015286516145eb816025850160208b0161395a565b6025920191820152845161460681602684016020890161395a565b845191019061461c81602684016020880161395a565b614632602682840101607d60f81b815260010190565b9998505050505050505050565b7f646174613a6170706c69636174696f6e2f6a736f6e3b6261736536342c00000081526000825161467781601d85016020870161395a565b91909101601d0192915050565b60008282101561469657614696614122565b500390565b683d913730b6b2911d1160b91b815285516000906146c0816009850160208b0161395a565b711116113232b9b1b934b83a34b7b7111d101160711b60099184019182015286516146f281601b840160208b0161395a565b601160f91b601b92909101918201526b16101134b6b0b3b2911d101160a11b601c8201528551614729816028840160208a0161395a565b6d1331b0b83a3ab9329e9a9818181160911b60289290910191820152845161475881603684016020890161395a565b7016101130ba3a3934b13aba32b9911d101160791b6036929091019182015261454e6147a161478a60478401876140d7565b6a1331b0b83a3ab9329e981160a91b8152600b0190565b607d60f81b815260010190565b634e487b7160e01b600052601260045260246000fd5b6000826147d3576147d36147ae565b500690565b6000826147e7576147e76147ae565b500490565b600082198211156147ff576147ff614122565b500190565b6020808252602b908201527f496e697469616c697a61626c653a20636f6e7472616374206973206e6f74206960408201526a6e697469616c697a696e6760a81b606082015260800190565b60008161485e5761485e614122565b50600019019056fe4142434445464748494a4b4c4d4e4f505152535455565758595a6162636465666768696a6b6c6d6e6f707172737475767778797a303132333435363738392b2f000000000000000000000000000000000000000000000000000000000000000000000000000000000000003e0000003f3435363738393a3b3c3d00000000000000000102030405060708090a0b0c0d0e0f101112131415161718190000000000001a1b1c1d1e1f202122232425262728292a2b2c2d2e2f303132330000000000a264697066735822122088d7e9ad42af88d239e2261ab19e8aba9d4f57da5e89760fb7d988395d53cde264736f6c634300080c0033","opcodes":"PUSH1 0x80 PUSH1 0x40 MSTORE CALLVALUE DUP1 ISZERO PUSH2 0x10 JUMPI PUSH1 0x0 DUP1 REVERT JUMPDEST POP PUSH2 0x495C DUP1 PUSH2 0x20 PUSH1 0x0 CODECOPY PUSH1 0x0 RETURN INVALID PUSH1 0x80 PUSH1 0x40 MSTORE CALLVALUE DUP1 ISZERO PUSH2 0x10 JUMPI PUSH1 0x0 DUP1 REVERT JUMPDEST POP PUSH1 0x4 CALLDATASIZE LT PUSH2 0x100 JUMPI PUSH1 0x0 CALLDATALOAD PUSH1 0xE0 SHR DUP1 PUSH4 0x7AF34AF2 GT PUSH2 0x97 JUMPI DUP1 PUSH4 0xC0C53B8B GT PUSH2 0x66 JUMPI DUP1 PUSH4 0xC0C53B8B EQ PUSH2 0x216 JUMPI DUP1 PUSH4 0xE8082858 EQ PUSH2 0x229 JUMPI DUP1 PUSH4 0xF2FDE38B EQ PUSH2 0x23C JUMPI DUP1 PUSH4 0xF4A290F7 EQ PUSH2 0x24F JUMPI PUSH1 0x0 DUP1 REVERT JUMPDEST DUP1 PUSH4 0x7AF34AF2 EQ PUSH2 0x1CC JUMPI DUP1 PUSH4 0x8DA5CB5B EQ PUSH2 0x1DF JUMPI DUP1 PUSH4 0x8F283970 EQ PUSH2 0x1F0 JUMPI DUP1 PUSH4 0x94139301 EQ PUSH2 0x203 JUMPI PUSH1 0x0 DUP1 REVERT JUMPDEST DUP1 PUSH4 0x567FDCF3 GT PUSH2 0xD3 JUMPI DUP1 PUSH4 0x567FDCF3 EQ PUSH2 0x17D JUMPI DUP1 PUSH4 0x6E973CF2 EQ PUSH2 0x190 JUMPI DUP1 PUSH4 0x715018A6 EQ PUSH2 0x1B1 JUMPI DUP1 PUSH4 0x79EBC6F0 EQ PUSH2 0x1B9 JUMPI PUSH1 0x0 DUP1 REVERT JUMPDEST DUP1 PUSH4 0x1BC45C9 EQ PUSH2 0x105 JUMPI DUP1 PUSH4 0x16A5041F EQ PUSH2 0x135 JUMPI DUP1 PUSH4 0x31C7280C EQ PUSH2 0x14A JUMPI DUP1 PUSH4 0x46EAA748 EQ PUSH2 0x16A JUMPI JUMPDEST PUSH1 0x0 DUP1 REVERT JUMPDEST PUSH1 0x65 SLOAD PUSH2 0x118 SWAP1 PUSH1 0x1 PUSH1 0x1 PUSH1 0xA0 SHL SUB AND DUP2 JUMP JUMPDEST PUSH1 0x40 MLOAD PUSH1 0x1 PUSH1 0x1 PUSH1 0xA0 SHL SUB SWAP1 SWAP2 AND DUP2 MSTORE PUSH1 0x20 ADD JUMPDEST PUSH1 0x40 MLOAD DUP1 SWAP2 SUB SWAP1 RETURN JUMPDEST PUSH2 0x148 PUSH2 0x143 CALLDATASIZE PUSH1 0x4 PUSH2 0x3911 JUMP JUMPDEST PUSH2 0x262 JUMP JUMPDEST STOP JUMPDEST PUSH2 0x15D PUSH2 0x158 CALLDATASIZE PUSH1 0x4 PUSH2 0x392E JUMP JUMPDEST PUSH2 0x2FC JUMP JUMPDEST PUSH1 0x40 MLOAD PUSH2 0x12C SWAP2 SWAP1 PUSH2 0x39B2 JUMP JUMPDEST PUSH2 0x15D PUSH2 0x178 CALLDATASIZE PUSH1 0x4 PUSH2 0x392E JUMP JUMPDEST PUSH2 0x4FE JUMP JUMPDEST PUSH1 0x67 SLOAD PUSH2 0x118 SWAP1 PUSH1 0x1 PUSH1 0x1 PUSH1 0xA0 SHL SUB AND DUP2 JUMP JUMPDEST PUSH2 0x1A3 PUSH2 0x19E CALLDATASIZE PUSH1 0x4 PUSH2 0x3A7D JUMP JUMPDEST PUSH2 0x667 JUMP JUMPDEST PUSH1 0x40 MLOAD PUSH2 0x12C SWAP3 SWAP2 SWAP1 PUSH2 0x3B12 JUMP JUMPDEST PUSH2 0x148 PUSH2 0x685 JUMP JUMPDEST PUSH2 0x15D PUSH2 0x1C7 CALLDATASIZE PUSH1 0x4 PUSH2 0x3B52 JUMP JUMPDEST PUSH2 0x699 JUMP JUMPDEST PUSH2 0x1A3 PUSH2 0x1DA CALLDATASIZE PUSH1 0x4 PUSH2 0x3A7D JUMP JUMPDEST PUSH2 0xA8E JUMP JUMPDEST PUSH1 0x33 SLOAD PUSH1 0x1 PUSH1 0x1 PUSH1 0xA0 SHL SUB AND PUSH2 0x118 JUMP JUMPDEST PUSH2 0x148 PUSH2 0x1FE CALLDATASIZE PUSH1 0x4 PUSH2 0x3911 JUMP JUMPDEST PUSH2 0xAAD JUMP JUMPDEST PUSH2 0x15D PUSH2 0x211 CALLDATASIZE PUSH1 0x4 PUSH2 0x392E JUMP JUMPDEST PUSH2 0xB3F JUMP JUMPDEST PUSH2 0x148 PUSH2 0x224 CALLDATASIZE PUSH1 0x4 PUSH2 0x3B6B JUMP JUMPDEST PUSH2 0xE9C JUMP JUMPDEST PUSH2 0x148 PUSH2 0x237 CALLDATASIZE PUSH1 0x4 PUSH2 0x3911 JUMP JUMPDEST PUSH2 0x1008 JUMP JUMPDEST PUSH2 0x148 PUSH2 0x24A CALLDATASIZE PUSH1 0x4 PUSH2 0x3911 JUMP JUMPDEST PUSH2 0x109A JUMP JUMPDEST PUSH1 0x66 SLOAD PUSH2 0x118 SWAP1 PUSH1 0x1 PUSH1 0x1 PUSH1 0xA0 SHL SUB AND DUP2 JUMP JUMPDEST PUSH1 0x65 SLOAD PUSH1 0x1 PUSH1 0x1 PUSH1 0xA0 SHL SUB AND CALLER EQ DUP1 ISZERO PUSH2 0x284 JUMPI POP PUSH1 0x1 PUSH1 0x1 PUSH1 0xA0 SHL SUB DUP2 AND ISZERO ISZERO JUMPDEST PUSH1 0x40 MLOAD DUP1 PUSH1 0x40 ADD PUSH1 0x40 MSTORE DUP1 PUSH1 0x3 DUP2 MSTORE PUSH1 0x20 ADD PUSH3 0x313031 PUSH1 0xE8 SHL DUP2 MSTORE POP SWAP1 PUSH2 0x2C7 JUMPI PUSH1 0x40 MLOAD PUSH3 0x461BCD PUSH1 0xE5 SHL DUP2 MSTORE PUSH1 0x4 ADD PUSH2 0x2BE SWAP2 SWAP1 PUSH2 0x39B2 JUMP JUMPDEST PUSH1 0x40 MLOAD DUP1 SWAP2 SUB SWAP1 REVERT JUMPDEST POP PUSH1 0x66 SLOAD PUSH1 0x1 PUSH1 0x1 PUSH1 0xA0 SHL SUB DUP3 DUP2 AND SWAP2 AND EQ PUSH2 0x2F9 JUMPI PUSH1 0x66 DUP1 SLOAD PUSH1 0x1 PUSH1 0x1 PUSH1 0xA0 SHL SUB NOT AND PUSH1 0x1 PUSH1 0x1 PUSH1 0xA0 SHL SUB DUP4 AND OR SWAP1 SSTORE JUMPDEST POP JUMP JUMPDEST PUSH1 0x67 SLOAD PUSH1 0x40 MLOAD PUSH4 0x46EC8D2B PUSH1 0xE1 SHL DUP2 MSTORE PUSH1 0x4 DUP2 ADD DUP6 SWAP1 MSTORE PUSH1 0x60 SWAP2 PUSH1 0x1 PUSH1 0x1 PUSH1 0xA0 SHL SUB AND SWAP1 PUSH1 0x0 SWAP1 DUP3 SWAP1 PUSH4 0x8DD91A56 SWAP1 PUSH1 0x24 ADD PUSH1 0x0 PUSH1 0x40 MLOAD DUP1 DUP4 SUB DUP2 DUP7 GAS STATICCALL ISZERO DUP1 ISZERO PUSH2 0x34B JUMPI RETURNDATASIZE PUSH1 0x0 DUP1 RETURNDATACOPY RETURNDATASIZE PUSH1 0x0 REVERT JUMPDEST POP POP POP POP PUSH1 0x40 MLOAD RETURNDATASIZE PUSH1 0x0 DUP3 RETURNDATACOPY PUSH1 0x1F RETURNDATASIZE SWAP1 DUP2 ADD PUSH1 0x1F NOT AND DUP3 ADD PUSH1 0x40 MSTORE PUSH2 0x373 SWAP2 SWAP1 DUP2 ADD SWAP1 PUSH2 0x3E0C JUMP JUMPDEST SWAP1 POP PUSH1 0x0 PUSH1 0x40 MLOAD DUP1 PUSH1 0x20 ADD PUSH1 0x40 MSTORE DUP1 PUSH1 0x0 DUP2 MSTORE POP SWAP1 POP PUSH1 0x60 PUSH1 0x0 DUP1 JUMPDEST DUP5 PUSH2 0x180 ADD MLOAD MLOAD DUP2 LT ISZERO PUSH2 0x4F0 JUMPI PUSH1 0x0 DUP6 PUSH2 0x180 ADD MLOAD DUP3 DUP2 MLOAD DUP2 LT PUSH2 0x3B6 JUMPI PUSH2 0x3B6 PUSH2 0x406C JUMP JUMPDEST PUSH1 0x20 MUL PUSH1 0x20 ADD ADD MLOAD MLOAD GT ISZERO PUSH2 0x4DE JUMPI ADDRESS PUSH1 0x1 PUSH1 0x1 PUSH1 0xA0 SHL SUB AND PUSH4 0x7AF34AF2 DUP7 PUSH2 0x180 ADD MLOAD DUP4 DUP2 MLOAD DUP2 LT PUSH2 0x3EB JUMPI PUSH2 0x3EB PUSH2 0x406C JUMP JUMPDEST PUSH1 0x20 MUL PUSH1 0x20 ADD ADD MLOAD PUSH1 0x40 MLOAD DUP3 PUSH4 0xFFFFFFFF AND PUSH1 0xE0 SHL DUP2 MSTORE PUSH1 0x4 ADD PUSH2 0x40F SWAP2 SWAP1 PUSH2 0x39B2 JUMP JUMPDEST PUSH1 0x0 PUSH1 0x40 MLOAD DUP1 DUP4 SUB DUP2 DUP7 GAS STATICCALL ISZERO DUP1 ISZERO PUSH2 0x42C JUMPI RETURNDATASIZE PUSH1 0x0 DUP1 RETURNDATACOPY RETURNDATASIZE PUSH1 0x0 REVERT JUMPDEST POP POP POP POP PUSH1 0x40 MLOAD RETURNDATASIZE PUSH1 0x0 DUP3 RETURNDATACOPY PUSH1 0x1F RETURNDATASIZE SWAP1 DUP2 ADD PUSH1 0x1F NOT AND DUP3 ADD PUSH1 0x40 MSTORE PUSH2 0x454 SWAP2 SWAP1 DUP2 ADD SWAP1 PUSH2 0x4082 JUMP JUMPDEST SWAP1 SWAP4 POP SWAP2 POP PUSH1 0x0 DUP3 PUSH1 0xE DUP2 GT ISZERO PUSH2 0x46D JUMPI PUSH2 0x46D PUSH2 0x3AFC JUMP JUMPDEST EQ PUSH2 0x4B9 JUMPI DUP4 DUP6 PUSH2 0x180 ADD MLOAD DUP3 DUP2 MLOAD DUP2 LT PUSH2 0x48A JUMPI PUSH2 0x48A PUSH2 0x406C JUMP JUMPDEST PUSH1 0x20 MUL PUSH1 0x20 ADD ADD MLOAD PUSH1 0x40 MLOAD PUSH1 0x20 ADD PUSH2 0x4A3 SWAP3 SWAP2 SWAP1 PUSH2 0x40F3 JUMP JUMPDEST PUSH1 0x40 MLOAD PUSH1 0x20 DUP2 DUP4 SUB SUB DUP2 MSTORE SWAP1 PUSH1 0x40 MSTORE SWAP4 POP PUSH2 0x4DE JUMP JUMPDEST DUP4 DUP4 PUSH1 0x40 MLOAD PUSH1 0x20 ADD PUSH2 0x4CC SWAP3 SWAP2 SWAP1 PUSH2 0x40F3 JUMP JUMPDEST PUSH1 0x40 MLOAD PUSH1 0x20 DUP2 DUP4 SUB SUB DUP2 MSTORE SWAP1 PUSH1 0x40 MSTORE SWAP4 POP JUMPDEST DUP1 PUSH2 0x4E8 DUP2 PUSH2 0x4138 JUMP JUMPDEST SWAP2 POP POP PUSH2 0x38F JUMP JUMPDEST POP SWAP2 SWAP9 SWAP8 POP POP POP POP POP POP POP POP JUMP JUMPDEST PUSH1 0x66 SLOAD PUSH1 0x40 DUP1 MLOAD DUP1 DUP3 ADD DUP3 MSTORE PUSH1 0x8 DUP2 MSTORE PUSH8 0x424153455F555249 PUSH1 0xC0 SHL PUSH1 0x20 DUP3 ADD MSTORE SWAP1 MLOAD PUSH4 0x349F642F PUSH1 0xE1 SHL DUP2 MSTORE PUSH1 0x60 SWAP3 PUSH1 0x1 PUSH1 0x1 PUSH1 0xA0 SHL SUB AND SWAP2 PUSH1 0x0 SWAP2 DUP4 SWAP2 PUSH4 0x693EC85E SWAP2 PUSH2 0x550 SWAP2 SWAP1 PUSH1 0x4 ADD PUSH2 0x39B2 JUMP JUMPDEST PUSH1 0x0 PUSH1 0x40 MLOAD DUP1 DUP4 SUB DUP2 DUP7 GAS STATICCALL ISZERO DUP1 ISZERO PUSH2 0x56D JUMPI RETURNDATASIZE PUSH1 0x0 DUP1 RETURNDATACOPY RETURNDATASIZE PUSH1 0x0 REVERT JUMPDEST POP POP POP POP PUSH1 0x40 MLOAD RETURNDATASIZE PUSH1 0x0 DUP3 RETURNDATACOPY PUSH1 0x1F RETURNDATASIZE SWAP1 DUP2 ADD PUSH1 0x1F NOT AND DUP3 ADD PUSH1 0x40 MSTORE PUSH2 0x595 SWAP2 SWAP1 DUP2 ADD SWAP1 PUSH2 0x4153 JUMP JUMPDEST PUSH1 0x67 SLOAD PUSH1 0x40 MLOAD PUSH4 0x46EC8D2B PUSH1 0xE1 SHL DUP2 MSTORE PUSH1 0x4 DUP2 ADD DUP10 SWAP1 MSTORE SWAP2 SWAP3 POP PUSH1 0x1 PUSH1 0x1 PUSH1 0xA0 SHL SUB AND SWAP1 PUSH1 0x0 SWAP1 DUP3 SWAP1 PUSH4 0x8DD91A56 SWAP1 PUSH1 0x24 ADD PUSH1 0x0 PUSH1 0x40 MLOAD DUP1 DUP4 SUB DUP2 DUP7 GAS STATICCALL ISZERO DUP1 ISZERO PUSH2 0x5E4 JUMPI RETURNDATASIZE PUSH1 0x0 DUP1 RETURNDATACOPY RETURNDATASIZE PUSH1 0x0 REVERT JUMPDEST POP POP POP POP PUSH1 0x40 MLOAD RETURNDATASIZE PUSH1 0x0 DUP3 RETURNDATACOPY PUSH1 0x1F RETURNDATASIZE SWAP1 DUP2 ADD PUSH1 0x1F NOT AND DUP3 ADD PUSH1 0x40 MSTORE PUSH2 0x60C SWAP2 SWAP1 DUP2 ADD SWAP1 PUSH2 0x3E0C JUMP JUMPDEST PUSH1 0x67 SLOAD SWAP1 SWAP2 POP DUP4 SWAP1 PUSH2 0x626 SWAP1 PUSH1 0x1 PUSH1 0x1 PUSH1 0xA0 SHL SUB AND PUSH2 0x1110 JUMP JUMPDEST PUSH2 0x62F DUP10 PUSH2 0x112C JUMP JUMPDEST PUSH2 0x638 DUP10 PUSH2 0x11C8 JUMP JUMPDEST PUSH1 0x40 MLOAD PUSH1 0x20 ADD PUSH2 0x64B SWAP5 SWAP4 SWAP3 SWAP2 SWAP1 PUSH2 0x4187 JUMP JUMPDEST PUSH1 0x40 MLOAD PUSH1 0x20 DUP2 DUP4 SUB SUB DUP2 MSTORE SWAP1 PUSH1 0x40 MSTORE SWAP5 POP POP POP POP POP SWAP4 SWAP3 POP POP POP JUMP JUMPDEST PUSH1 0x60 PUSH1 0x0 PUSH2 0x67C PUSH2 0x677 DUP5 PUSH2 0x1214 JUMP JUMPDEST PUSH2 0x1382 JUMP JUMPDEST SWAP2 POP SWAP2 POP SWAP2 POP SWAP2 JUMP JUMPDEST PUSH2 0x68D PUSH2 0x14D8 JUMP JUMPDEST PUSH2 0x697 PUSH1 0x0 PUSH2 0x1532 JUMP JUMPDEST JUMP JUMPDEST PUSH1 0x60 PUSH2 0x6F5 PUSH1 0x40 MLOAD DUP1 PUSH2 0x100 ADD PUSH1 0x40 MSTORE DUP1 PUSH1 0x60 DUP2 MSTORE PUSH1 0x20 ADD PUSH1 0x0 PUSH1 0x1 PUSH1 0x1 PUSH1 0xA0 SHL SUB AND DUP2 MSTORE PUSH1 0x20 ADD PUSH1 0x60 DUP2 MSTORE PUSH1 0x20 ADD PUSH1 0x60 DUP2 MSTORE PUSH1 0x20 ADD PUSH1 0x60 DUP2 MSTORE PUSH1 0x20 ADD PUSH1 0x60 DUP2 MSTORE PUSH1 0x20 ADD PUSH1 0x0 PUSH1 0x1 PUSH1 0x1 PUSH1 0xA0 SHL SUB AND DUP2 MSTORE PUSH1 0x20 ADD PUSH1 0x60 DUP2 MSTORE POP SWAP1 JUMP JUMPDEST PUSH1 0x67 SLOAD PUSH1 0x40 MLOAD PUSH4 0x46EC8D2B PUSH1 0xE1 SHL DUP2 MSTORE PUSH1 0x4 DUP2 ADD DUP6 SWAP1 MSTORE PUSH1 0x1 PUSH1 0x1 PUSH1 0xA0 SHL SUB SWAP1 SWAP2 AND SWAP1 PUSH1 0x0 SWAP1 DUP3 SWAP1 PUSH4 0x8DD91A56 SWAP1 PUSH1 0x24 ADD PUSH1 0x0 PUSH1 0x40 MLOAD DUP1 DUP4 SUB DUP2 DUP7 GAS STATICCALL ISZERO DUP1 ISZERO PUSH2 0x743 JUMPI RETURNDATASIZE PUSH1 0x0 DUP1 RETURNDATACOPY RETURNDATASIZE PUSH1 0x0 REVERT JUMPDEST POP POP POP POP PUSH1 0x40 MLOAD RETURNDATASIZE PUSH1 0x0 DUP3 RETURNDATACOPY PUSH1 0x1F RETURNDATASIZE SWAP1 DUP2 ADD PUSH1 0x1F NOT AND DUP3 ADD PUSH1 0x40 MSTORE PUSH2 0x76B SWAP2 SWAP1 DUP2 ADD SWAP1 PUSH2 0x3E0C JUMP JUMPDEST SWAP1 POP PUSH1 0x0 PUSH2 0x77C PUSH3 0xF4240 DUP8 PUSH2 0x4209 JUMP JUMPDEST SWAP1 POP PUSH1 0x0 ADDRESS PUSH1 0x1 PUSH1 0x1 PUSH1 0xA0 SHL SUB AND PUSH4 0x31C7280C DUP9 DUP5 DUP6 PUSH1 0x40 MLOAD PUSH1 0x20 ADD PUSH2 0x7A4 SWAP2 DUP2 MSTORE PUSH1 0x20 ADD SWAP1 JUMP JUMPDEST PUSH1 0x40 MLOAD PUSH1 0x20 DUP2 DUP4 SUB SUB DUP2 MSTORE SWAP1 PUSH1 0x40 MSTORE DUP1 MLOAD SWAP1 PUSH1 0x20 ADD KECCAK256 PUSH1 0x40 MLOAD DUP5 PUSH4 0xFFFFFFFF AND PUSH1 0xE0 SHL DUP2 MSTORE PUSH1 0x4 ADD PUSH2 0x7E9 SWAP4 SWAP3 SWAP2 SWAP1 SWAP3 DUP4 MSTORE PUSH1 0x20 DUP4 ADD SWAP2 SWAP1 SWAP2 MSTORE PUSH1 0x40 DUP3 ADD MSTORE PUSH1 0x60 ADD SWAP1 JUMP JUMPDEST PUSH1 0x0 PUSH1 0x40 MLOAD DUP1 DUP4 SUB DUP2 DUP7 GAS STATICCALL ISZERO DUP1 ISZERO PUSH2 0x806 JUMPI RETURNDATASIZE PUSH1 0x0 DUP1 RETURNDATACOPY RETURNDATASIZE PUSH1 0x0 REVERT JUMPDEST POP POP POP POP PUSH1 0x40 MLOAD RETURNDATASIZE PUSH1 0x0 DUP3 RETURNDATACOPY PUSH1 0x1F RETURNDATASIZE SWAP1 DUP2 ADD PUSH1 0x1F NOT AND DUP3 ADD PUSH1 0x40 MSTORE PUSH2 0x82E SWAP2 SWAP1 DUP2 ADD SWAP1 PUSH2 0x4153 JUMP JUMPDEST DUP1 MLOAD SWAP1 SWAP2 POP ISZERO PUSH2 0x882 JUMPI PUSH2 0x860 DUP2 PUSH1 0x40 MLOAD PUSH1 0x20 ADD PUSH2 0x84C SWAP2 SWAP1 PUSH2 0x4228 JUMP JUMPDEST PUSH1 0x40 MLOAD PUSH1 0x20 DUP2 DUP4 SUB SUB DUP2 MSTORE SWAP1 PUSH1 0x40 MSTORE PUSH2 0x1584 JUMP JUMPDEST PUSH1 0x40 MLOAD PUSH1 0x20 ADD PUSH2 0x870 SWAP2 SWAP1 PUSH2 0x4244 JUMP JUMPDEST PUSH1 0x40 MLOAD PUSH1 0x20 DUP2 DUP4 SUB SUB DUP2 MSTORE SWAP1 PUSH1 0x40 MSTORE SWAP1 POP JUMPDEST PUSH1 0x0 DUP2 PUSH1 0x40 MLOAD PUSH1 0x20 ADD PUSH2 0x895 SWAP2 SWAP1 PUSH2 0x4282 JUMP JUMPDEST PUSH1 0x40 MLOAD PUSH1 0x20 DUP2 DUP4 SUB SUB DUP2 MSTORE SWAP1 PUSH1 0x40 MSTORE SWAP1 POP DUP4 PUSH1 0x80 ADD MLOAD PUSH2 0x8B4 DUP10 PUSH2 0x112C JUMP JUMPDEST PUSH1 0x40 MLOAD PUSH1 0x20 ADD PUSH2 0x8C5 SWAP3 SWAP2 SWAP1 PUSH2 0x42C9 JUMP JUMPDEST PUSH1 0x40 DUP1 MLOAD PUSH1 0x1F NOT DUP2 DUP5 SUB ADD DUP2 MSTORE SWAP2 DUP2 MSTORE DUP8 ADD MSTORE PUSH2 0x100 DUP5 ADD MLOAD PUSH1 0x80 DUP8 ADD DUP2 SWAP1 MSTORE PUSH1 0x60 SWAP1 PUSH1 0x0 SWAP1 PUSH2 0x8F4 SWAP1 PUSH2 0x667 JUMP JUMPDEST SWAP1 SWAP3 POP SWAP1 POP PUSH1 0x0 DUP2 PUSH1 0xE DUP2 GT ISZERO PUSH2 0x90D JUMPI PUSH2 0x90D PUSH2 0x3AFC JUMP JUMPDEST EQ ISZERO PUSH2 0x91B JUMPI PUSH1 0x80 DUP9 ADD DUP3 SWAP1 MSTORE JUMPDEST PUSH2 0x120 DUP7 ADD MLOAD PUSH1 0x60 DUP10 ADD MSTORE PUSH1 0xA0 DUP1 DUP10 ADD DUP5 SWAP1 MSTORE PUSH2 0x1E0 DUP8 ADD MLOAD PUSH1 0x1 PUSH1 0x1 PUSH1 0xA0 SHL SUB SWAP1 DUP2 AND PUSH1 0xC0 DUP1 DUP13 ADD SWAP2 SWAP1 SWAP2 MSTORE DUP9 ADD MLOAD AND PUSH1 0x20 DUP1 DUP12 ADD SWAP2 SWAP1 SWAP2 MSTORE SWAP1 DUP8 ADD MLOAD DUP10 MSTORE PUSH1 0x40 DUP1 MLOAD SWAP2 DUP3 ADD SWAP1 MSTORE PUSH1 0x0 DUP1 DUP3 MSTORE JUMPDEST DUP8 PUSH2 0x160 ADD MLOAD MLOAD DUP2 PUSH1 0xFF AND LT ISZERO PUSH2 0x9EA JUMPI DUP2 PUSH2 0x992 PUSH2 0x98A DUP4 PUSH1 0x1 PUSH2 0x4306 JUMP JUMPDEST PUSH1 0xFF AND PUSH2 0x112C JUMP JUMPDEST DUP10 PUSH2 0x160 ADD MLOAD DUP4 PUSH1 0xFF AND DUP2 MLOAD DUP2 LT PUSH2 0x9AC JUMPI PUSH2 0x9AC PUSH2 0x406C JUMP JUMPDEST PUSH1 0x20 MUL PUSH1 0x20 ADD ADD MLOAD PUSH1 0x40 MLOAD PUSH1 0x20 ADD PUSH2 0x9C6 SWAP4 SWAP3 SWAP2 SWAP1 PUSH2 0x432B JUMP JUMPDEST PUSH1 0x40 MLOAD PUSH1 0x20 DUP2 DUP4 SUB SUB DUP2 MSTORE SWAP1 PUSH1 0x40 MSTORE SWAP2 POP DUP1 DUP1 PUSH2 0x9E2 SWAP1 PUSH2 0x43B9 JUMP JUMPDEST SWAP2 POP POP PUSH2 0x96A JUMP JUMPDEST POP PUSH2 0x9F8 DUP10 PUSH1 0xC0 ADD MLOAD PUSH2 0x1110 JUMP JUMPDEST DUP10 MLOAD PUSH1 0x20 DUP12 ADD MLOAD PUSH2 0xA08 SWAP1 PUSH2 0x1110 JUMP JUMPDEST DUP10 PUSH1 0xE0 ADD MLOAD DUP5 PUSH1 0x40 MLOAD PUSH1 0x20 ADD PUSH2 0xA22 SWAP6 SWAP5 SWAP4 SWAP3 SWAP2 SWAP1 PUSH2 0x43D9 JUMP JUMPDEST PUSH1 0x40 DUP1 MLOAD PUSH1 0x1F NOT DUP2 DUP5 SUB ADD DUP2 MSTORE SWAP2 DUP2 MSTORE PUSH1 0xE0 DUP12 ADD DUP3 SWAP1 MSTORE DUP11 DUP2 ADD MLOAD PUSH1 0x80 DUP13 ADD MLOAD PUSH1 0x60 DUP14 ADD MLOAD PUSH1 0xA0 DUP15 ADD MLOAD SWAP4 MLOAD PUSH2 0xA5F SWAP6 PUSH2 0x84C SWAP6 SWAP2 PUSH1 0x20 ADD PUSH2 0x455A JUMP JUMPDEST PUSH1 0x40 MLOAD PUSH1 0x20 ADD PUSH2 0xA6F SWAP2 SWAP1 PUSH2 0x463F JUMP JUMPDEST PUSH1 0x40 MLOAD PUSH1 0x20 DUP2 DUP4 SUB SUB DUP2 MSTORE SWAP1 PUSH1 0x40 MSTORE SWAP10 POP POP POP POP POP POP POP POP POP POP SWAP2 SWAP1 POP JUMP JUMPDEST PUSH1 0x60 PUSH1 0x0 PUSH2 0x67C PUSH2 0x19E PUSH1 0x9 DUP1 DUP7 MLOAD PUSH2 0xAA7 SWAP2 SWAP1 PUSH2 0x4684 JUMP JUMPDEST DUP7 PUSH2 0x16E9 JUMP JUMPDEST PUSH1 0x65 SLOAD PUSH1 0x1 PUSH1 0x1 PUSH1 0xA0 SHL SUB AND CALLER EQ DUP1 ISZERO PUSH2 0xACF JUMPI POP PUSH1 0x1 PUSH1 0x1 PUSH1 0xA0 SHL SUB DUP2 AND ISZERO ISZERO JUMPDEST PUSH1 0x40 MLOAD DUP1 PUSH1 0x40 ADD PUSH1 0x40 MSTORE DUP1 PUSH1 0x3 DUP2 MSTORE PUSH1 0x20 ADD PUSH3 0x313031 PUSH1 0xE8 SHL DUP2 MSTORE POP SWAP1 PUSH2 0xB09 JUMPI PUSH1 0x40 MLOAD PUSH3 0x461BCD PUSH1 0xE5 SHL DUP2 MSTORE PUSH1 0x4 ADD PUSH2 0x2BE SWAP2 SWAP1 PUSH2 0x39B2 JUMP JUMPDEST POP PUSH1 0x65 SLOAD PUSH1 0x1 PUSH1 0x1 PUSH1 0xA0 SHL SUB DUP3 DUP2 AND SWAP2 AND EQ PUSH2 0x2F9 JUMPI PUSH1 0x65 DUP1 SLOAD PUSH1 0x1 PUSH1 0x1 PUSH1 0xA0 SHL SUB DUP4 AND PUSH1 0x1 PUSH1 0x1 PUSH1 0xA0 SHL SUB NOT SWAP1 SWAP2 AND OR SWAP1 SSTORE POP JUMP JUMPDEST PUSH1 0x60 PUSH2 0xB73 PUSH1 0x40 MLOAD DUP1 PUSH1 0xA0 ADD PUSH1 0x40 MSTORE DUP1 PUSH1 0x60 DUP2 MSTORE PUSH1 0x20 ADD PUSH1 0x60 DUP2 MSTORE PUSH1 0x20 ADD PUSH1 0x60 DUP2 MSTORE PUSH1 0x20 ADD PUSH1 0x60 DUP2 MSTORE PUSH1 0x20 ADD PUSH1 0x60 DUP2 MSTORE POP SWAP1 JUMP JUMPDEST PUSH1 0x66 SLOAD PUSH1 0x40 DUP1 MLOAD DUP1 DUP3 ADD DUP3 MSTORE PUSH1 0xE DUP2 MSTORE PUSH14 0x109054D157D5549257D514905255 PUSH1 0x92 SHL PUSH1 0x20 DUP3 ADD MSTORE SWAP1 MLOAD PUSH4 0x349F642F PUSH1 0xE1 SHL DUP2 MSTORE PUSH1 0x1 PUSH1 0x1 PUSH1 0xA0 SHL SUB SWAP1 SWAP3 AND SWAP2 DUP3 SWAP2 PUSH4 0x693EC85E SWAP2 PUSH2 0xBC7 SWAP2 SWAP1 PUSH1 0x4 ADD PUSH2 0x39B2 JUMP JUMPDEST PUSH1 0x0 PUSH1 0x40 MLOAD DUP1 DUP4 SUB DUP2 DUP7 GAS STATICCALL ISZERO DUP1 ISZERO PUSH2 0xBE4 JUMPI RETURNDATASIZE PUSH1 0x0 DUP1 RETURNDATACOPY RETURNDATASIZE PUSH1 0x0 REVERT JUMPDEST POP POP POP POP PUSH1 0x40 MLOAD RETURNDATASIZE PUSH1 0x0 DUP3 RETURNDATACOPY PUSH1 0x1F RETURNDATASIZE SWAP1 DUP2 ADD PUSH1 0x1F NOT AND DUP3 ADD PUSH1 0x40 MSTORE PUSH2 0xC0C SWAP2 SWAP1 DUP2 ADD SWAP1 PUSH2 0x4153 JUMP JUMPDEST PUSH1 0x40 DUP4 DUP2 ADD SWAP2 SWAP1 SWAP2 MSTORE PUSH1 0x67 SLOAD SWAP1 MLOAD PUSH4 0x46EC8D2B PUSH1 0xE1 SHL DUP2 MSTORE PUSH1 0x4 DUP2 ADD DUP9 SWAP1 MSTORE PUSH1 0x1 PUSH1 0x1 PUSH1 0xA0 SHL SUB SWAP1 SWAP2 AND SWAP1 PUSH1 0x0 SWAP1 DUP3 SWAP1 PUSH4 0x8DD91A56 SWAP1 PUSH1 0x24 ADD PUSH1 0x0 PUSH1 0x40 MLOAD DUP1 DUP4 SUB DUP2 DUP7 GAS STATICCALL ISZERO DUP1 ISZERO PUSH2 0xC62 JUMPI RETURNDATASIZE PUSH1 0x0 DUP1 RETURNDATACOPY RETURNDATASIZE PUSH1 0x0 REVERT JUMPDEST POP POP POP POP PUSH1 0x40 MLOAD RETURNDATASIZE PUSH1 0x0 DUP3 RETURNDATACOPY PUSH1 0x1F RETURNDATASIZE SWAP1 DUP2 ADD PUSH1 0x1F NOT AND DUP3 ADD PUSH1 0x40 MSTORE PUSH2 0xC8A SWAP2 SWAP1 DUP2 ADD SWAP1 PUSH2 0x3E0C JUMP JUMPDEST PUSH1 0x40 MLOAD PUSH4 0xC71CA03 PUSH1 0xE2 SHL DUP2 MSTORE PUSH1 0x4 DUP2 ADD DUP11 SWAP1 MSTORE PUSH1 0x24 DUP2 ADD DUP10 SWAP1 MSTORE PUSH1 0x44 DUP2 ADD DUP9 SWAP1 MSTORE SWAP1 SWAP2 POP PUSH1 0x0 SWAP1 ADDRESS SWAP1 PUSH4 0x31C7280C SWAP1 PUSH1 0x64 ADD PUSH1 0x0 PUSH1 0x40 MLOAD DUP1 DUP4 SUB DUP2 DUP7 GAS STATICCALL ISZERO DUP1 ISZERO PUSH2 0xCDA JUMPI RETURNDATASIZE PUSH1 0x0 DUP1 RETURNDATACOPY RETURNDATASIZE PUSH1 0x0 REVERT JUMPDEST POP POP POP POP PUSH1 0x40 MLOAD RETURNDATASIZE PUSH1 0x0 DUP3 RETURNDATACOPY PUSH1 0x1F RETURNDATASIZE SWAP1 DUP2 ADD PUSH1 0x1F NOT AND DUP3 ADD PUSH1 0x40 MSTORE PUSH2 0xD02 SWAP2 SWAP1 DUP2 ADD SWAP1 PUSH2 0x4153 JUMP JUMPDEST DUP1 MLOAD SWAP1 SWAP2 POP ISZERO PUSH2 0xD42 JUMPI PUSH2 0xD20 DUP2 PUSH1 0x40 MLOAD PUSH1 0x20 ADD PUSH2 0x84C SWAP2 SWAP1 PUSH2 0x4228 JUMP JUMPDEST PUSH1 0x40 MLOAD PUSH1 0x20 ADD PUSH2 0xD30 SWAP2 SWAP1 PUSH2 0x4244 JUMP JUMPDEST PUSH1 0x40 MLOAD PUSH1 0x20 DUP2 DUP4 SUB SUB DUP2 MSTORE SWAP1 PUSH1 0x40 MSTORE SWAP1 POP JUMPDEST DUP1 PUSH1 0x40 MLOAD PUSH1 0x20 ADD PUSH2 0xD53 SWAP2 SWAP1 PUSH2 0x4282 JUMP JUMPDEST PUSH1 0x40 DUP1 MLOAD PUSH1 0x1F NOT DUP2 DUP5 SUB ADD DUP2 MSTORE SWAP2 SWAP1 MSTORE PUSH1 0x60 DUP7 ADD MSTORE PUSH1 0x80 DUP3 ADD MLOAD PUSH2 0xD76 DUP10 PUSH2 0x112C JUMP JUMPDEST PUSH1 0x40 MLOAD PUSH1 0x20 ADD PUSH2 0xD87 SWAP3 SWAP2 SWAP1 PUSH2 0x42C9 JUMP JUMPDEST PUSH1 0x40 DUP1 MLOAD PUSH1 0x1F NOT DUP2 DUP5 SUB ADD DUP2 MSTORE SWAP2 SWAP1 MSTORE DUP6 MSTORE PUSH2 0x100 DUP3 ADD MLOAD PUSH1 0x20 DUP7 ADD MSTORE PUSH2 0x200 DUP3 ADD MLOAD MLOAD ISZERO PUSH2 0xDBC JUMPI PUSH2 0x200 DUP3 ADD MLOAD PUSH1 0x20 DUP7 ADD MSTORE JUMPDEST PUSH1 0x60 PUSH1 0x0 PUSH2 0xDCD DUP8 PUSH1 0x20 ADD MLOAD PUSH2 0x667 JUMP JUMPDEST SWAP1 SWAP3 POP SWAP1 POP PUSH1 0x0 DUP2 PUSH1 0xE DUP2 GT ISZERO PUSH2 0xDE6 JUMPI PUSH2 0xDE6 PUSH2 0x3AFC JUMP JUMPDEST EQ ISZERO PUSH2 0xDF4 JUMPI PUSH1 0x20 DUP8 ADD DUP3 SWAP1 MSTORE JUMPDEST PUSH1 0x40 DUP8 ADD MLOAD PUSH1 0x67 SLOAD PUSH2 0xE0E SWAP1 PUSH1 0x1 PUSH1 0x1 PUSH1 0xA0 SHL SUB AND PUSH2 0x1110 JUMP JUMPDEST PUSH2 0xE17 DUP13 PUSH2 0x112C JUMP JUMPDEST PUSH2 0xE20 DUP13 PUSH2 0x11C8 JUMP JUMPDEST PUSH1 0x40 MLOAD PUSH1 0x20 ADD PUSH2 0xE33 SWAP5 SWAP4 SWAP3 SWAP2 SWAP1 PUSH2 0x4187 JUMP JUMPDEST PUSH1 0x40 DUP1 MLOAD PUSH1 0x1F NOT DUP2 DUP5 SUB ADD DUP2 MSTORE SWAP2 DUP2 MSTORE DUP9 DUP2 ADD DUP3 SWAP1 MSTORE DUP9 MLOAD PUSH1 0x20 DUP11 DUP2 ADD MLOAD PUSH1 0x60 DUP13 ADD MLOAD SWAP4 MLOAD PUSH2 0xE6D SWAP6 PUSH2 0x84C SWAP6 SWAP3 SWAP4 SWAP1 SWAP3 SWAP2 DUP4 SWAP2 ADD PUSH2 0x469B JUMP JUMPDEST PUSH1 0x40 MLOAD PUSH1 0x20 ADD PUSH2 0xE7D SWAP2 SWAP1 PUSH2 0x463F JUMP JUMPDEST PUSH1 0x40 MLOAD PUSH1 0x20 DUP2 DUP4 SUB SUB DUP2 MSTORE SWAP1 PUSH1 0x40 MSTORE SWAP8 POP POP POP POP POP POP POP POP SWAP4 SWAP3 POP POP POP JUMP JUMPDEST PUSH1 0x0 SLOAD PUSH2 0x100 SWAP1 DIV PUSH1 0xFF AND ISZERO DUP1 DUP1 ISZERO PUSH2 0xEBC JUMPI POP PUSH1 0x0 SLOAD PUSH1 0x1 PUSH1 0xFF SWAP1 SWAP2 AND LT JUMPDEST DUP1 PUSH2 0xED6 JUMPI POP ADDRESS EXTCODESIZE ISZERO DUP1 ISZERO PUSH2 0xED6 JUMPI POP PUSH1 0x0 SLOAD PUSH1 0xFF AND PUSH1 0x1 EQ JUMPDEST PUSH2 0xF39 JUMPI PUSH1 0x40 MLOAD PUSH3 0x461BCD PUSH1 0xE5 SHL DUP2 MSTORE PUSH1 0x20 PUSH1 0x4 DUP3 ADD MSTORE PUSH1 0x2E PUSH1 0x24 DUP3 ADD MSTORE PUSH32 0x496E697469616C697A61626C653A20636F6E747261637420697320616C726561 PUSH1 0x44 DUP3 ADD MSTORE PUSH14 0x191E481A5B9A5D1A585B1A5E9959 PUSH1 0x92 SHL PUSH1 0x64 DUP3 ADD MSTORE PUSH1 0x84 ADD PUSH2 0x2BE JUMP JUMPDEST PUSH1 0x0 DUP1 SLOAD PUSH1 0xFF NOT AND PUSH1 0x1 OR SWAP1 SSTORE DUP1 ISZERO PUSH2 0xF5C JUMPI PUSH1 0x0 DUP1 SLOAD PUSH2 0xFF00 NOT AND PUSH2 0x100 OR SWAP1 SSTORE JUMPDEST PUSH1 0x65 DUP1 SLOAD PUSH1 0x1 PUSH1 0x1 PUSH1 0xA0 SHL SUB DUP1 DUP8 AND PUSH1 0x1 PUSH1 0x1 PUSH1 0xA0 SHL SUB NOT SWAP3 DUP4 AND OR SWAP1 SWAP3 SSTORE PUSH1 0x66 DUP1 SLOAD DUP7 DUP5 AND SWAP1 DUP4 AND OR SWAP1 SSTORE PUSH1 0x67 DUP1 SLOAD SWAP3 DUP6 AND SWAP3 SWAP1 SWAP2 AND SWAP2 SWAP1 SWAP2 OR SWAP1 SSTORE PUSH2 0xFA1 PUSH2 0x17D1 JUMP JUMPDEST PUSH1 0x40 DUP1 MLOAD DUP1 DUP3 ADD SWAP1 SWAP2 MSTORE PUSH1 0x3 DUP2 MSTORE PUSH3 0x313233 PUSH1 0xE8 SHL PUSH1 0x20 SWAP1 SWAP2 ADD MSTORE DUP1 ISZERO PUSH2 0x1002 JUMPI PUSH1 0x0 DUP1 SLOAD PUSH2 0xFF00 NOT AND SWAP1 SSTORE PUSH1 0x40 MLOAD PUSH1 0x1 DUP2 MSTORE PUSH32 0x7F26B83FF96E1F2B6A682F133852F6798A09C465DA95921460CEFB3847402498 SWAP1 PUSH1 0x20 ADD PUSH1 0x40 MLOAD DUP1 SWAP2 SUB SWAP1 LOG1 JUMPDEST POP POP POP POP JUMP JUMPDEST PUSH1 0x65 SLOAD PUSH1 0x1 PUSH1 0x1 PUSH1 0xA0 SHL SUB AND CALLER EQ DUP1 ISZERO PUSH2 0x102A JUMPI POP PUSH1 0x1 PUSH1 0x1 PUSH1 0xA0 SHL SUB DUP2 AND ISZERO ISZERO JUMPDEST PUSH1 0x40 MLOAD DUP1 PUSH1 0x40 ADD PUSH1 0x40 MSTORE DUP1 PUSH1 0x3 DUP2 MSTORE PUSH1 0x20 ADD PUSH3 0x313031 PUSH1 0xE8 SHL DUP2 MSTORE POP SWAP1 PUSH2 0x1064 JUMPI PUSH1 0x40 MLOAD PUSH3 0x461BCD PUSH1 0xE5 SHL DUP2 MSTORE PUSH1 0x4 ADD PUSH2 0x2BE SWAP2 SWAP1 PUSH2 0x39B2 JUMP JUMPDEST POP PUSH1 0x67 SLOAD PUSH1 0x1 PUSH1 0x1 PUSH1 0xA0 SHL SUB DUP3 DUP2 AND SWAP2 AND EQ PUSH2 0x2F9 JUMPI PUSH1 0x67 DUP1 SLOAD PUSH1 0x1 PUSH1 0x1 PUSH1 0xA0 SHL SUB DUP4 AND PUSH1 0x1 PUSH1 0x1 PUSH1 0xA0 SHL SUB NOT SWAP1 SWAP2 AND OR SWAP1 SSTORE POP JUMP JUMPDEST PUSH2 0x10A2 PUSH2 0x14D8 JUMP JUMPDEST PUSH1 0x1 PUSH1 0x1 PUSH1 0xA0 SHL SUB DUP2 AND PUSH2 0x1107 JUMPI PUSH1 0x40 MLOAD PUSH3 0x461BCD PUSH1 0xE5 SHL DUP2 MSTORE PUSH1 0x20 PUSH1 0x4 DUP3 ADD MSTORE PUSH1 0x26 PUSH1 0x24 DUP3 ADD MSTORE PUSH32 0x4F776E61626C653A206E6577206F776E657220697320746865207A65726F2061 PUSH1 0x44 DUP3 ADD MSTORE PUSH6 0x646472657373 PUSH1 0xD0 SHL PUSH1 0x64 DUP3 ADD MSTORE PUSH1 0x84 ADD PUSH2 0x2BE JUMP JUMPDEST PUSH2 0x2F9 DUP2 PUSH2 0x1532 JUMP JUMPDEST PUSH1 0x60 PUSH2 0x1126 PUSH1 0x1 PUSH1 0x1 PUSH1 0xA0 SHL SUB DUP4 AND PUSH1 0x14 PUSH2 0x1800 JUMP JUMPDEST SWAP3 SWAP2 POP POP JUMP JUMPDEST PUSH1 0x60 PUSH1 0x0 PUSH2 0x1139 DUP4 PUSH2 0x199B JUMP JUMPDEST PUSH1 0x1 ADD SWAP1 POP PUSH1 0x0 DUP2 PUSH1 0x1 PUSH1 0x1 PUSH1 0x40 SHL SUB DUP2 GT ISZERO PUSH2 0x1158 JUMPI PUSH2 0x1158 PUSH2 0x39C5 JUMP JUMPDEST PUSH1 0x40 MLOAD SWAP1 DUP1 DUP3 MSTORE DUP1 PUSH1 0x1F ADD PUSH1 0x1F NOT AND PUSH1 0x20 ADD DUP3 ADD PUSH1 0x40 MSTORE DUP1 ISZERO PUSH2 0x1182 JUMPI PUSH1 0x20 DUP3 ADD DUP2 DUP1 CALLDATASIZE DUP4 CALLDATACOPY ADD SWAP1 POP JUMPDEST POP SWAP1 POP DUP2 DUP2 ADD PUSH1 0x20 ADD JUMPDEST PUSH1 0x0 NOT ADD PUSH16 0x181899199A1A9B1B9C1CB0B131B232B3 PUSH1 0x81 SHL PUSH1 0xA DUP7 MOD BYTE DUP2 MSTORE8 PUSH1 0xA DUP6 DIV SWAP5 POP DUP5 PUSH2 0x11BB JUMPI PUSH2 0x11C0 JUMP JUMPDEST PUSH2 0x118C JUMP JUMPDEST POP SWAP4 SWAP3 POP POP POP JUMP JUMPDEST PUSH1 0x60 PUSH2 0x11D3 DUP3 PUSH2 0x1A73 JUMP JUMPDEST PUSH2 0x11E0 PUSH1 0x80 DUP5 SWAP1 SHL PUSH2 0x1A73 JUMP JUMPDEST PUSH1 0x40 MLOAD PUSH2 0x60F PUSH1 0xF3 SHL PUSH1 0x20 DUP3 ADD MSTORE PUSH1 0x22 DUP2 ADD SWAP3 SWAP1 SWAP3 MSTORE PUSH1 0x42 DUP3 ADD MSTORE PUSH1 0x62 ADD PUSH1 0x40 MLOAD PUSH1 0x20 DUP2 DUP4 SUB SUB DUP2 MSTORE SWAP1 PUSH1 0x40 MSTORE SWAP1 POP SWAP2 SWAP1 POP JUMP JUMPDEST DUP1 MLOAD PUSH1 0x60 SWAP1 DUP3 SWAP1 ISZERO DUP1 PUSH2 0x1233 JUMPI POP PUSH1 0x4 DUP2 MLOAD PUSH2 0x1230 SWAP2 SWAP1 PUSH2 0x47C4 JUMP JUMPDEST ISZERO ISZERO JUMPDEST ISZERO PUSH2 0x124E JUMPI PUSH1 0x40 DUP1 MLOAD PUSH1 0x0 DUP1 DUP3 MSTORE PUSH1 0x20 DUP3 ADD SWAP1 SWAP3 MSTORE SWAP1 PUSH2 0x11C0 JUMP JUMPDEST PUSH1 0x0 PUSH1 0x40 MLOAD DUP1 PUSH1 0xA0 ADD PUSH1 0x40 MSTORE DUP1 PUSH1 0x80 DUP2 MSTORE PUSH1 0x20 ADD PUSH2 0x48A7 PUSH1 0x80 SWAP2 CODECOPY SWAP1 POP PUSH1 0x0 PUSH1 0x4 DUP4 MLOAD PUSH2 0x127B SWAP2 SWAP1 PUSH2 0x47D8 JUMP JUMPDEST PUSH2 0x1286 SWAP1 PUSH1 0x3 PUSH2 0x4209 JUMP JUMPDEST SWAP1 POP PUSH1 0x0 PUSH2 0x1295 DUP3 PUSH1 0x20 PUSH2 0x47EC JUMP JUMPDEST PUSH1 0x1 PUSH1 0x1 PUSH1 0x40 SHL SUB DUP2 GT ISZERO PUSH2 0x12AC JUMPI PUSH2 0x12AC PUSH2 0x39C5 JUMP JUMPDEST PUSH1 0x40 MLOAD SWAP1 DUP1 DUP3 MSTORE DUP1 PUSH1 0x1F ADD PUSH1 0x1F NOT AND PUSH1 0x20 ADD DUP3 ADD PUSH1 0x40 MSTORE DUP1 ISZERO PUSH2 0x12D6 JUMPI PUSH1 0x20 DUP3 ADD DUP2 DUP1 CALLDATASIZE DUP4 CALLDATACOPY ADD SWAP1 POP JUMPDEST POP SWAP1 POP DUP4 MLOAD DUP5 ADD MLOAD PUSH1 0x3D PUSH1 0xFF DUP3 AND EQ ISZERO PUSH2 0x1305 JUMPI PUSH1 0x1 DUP4 SUB SWAP3 POP PUSH2 0x3D3D PUSH2 0xFFFF DUP3 AND EQ ISZERO PUSH2 0x1305 JUMPI PUSH1 0x1 DUP4 SUB SWAP3 POP JUMPDEST POP DUP2 DUP2 MSTORE PUSH1 0x1 DUP4 ADD DUP5 DUP6 MLOAD DUP2 ADD PUSH1 0x20 DUP5 ADD JUMPDEST DUP2 DUP4 LT ISZERO PUSH2 0x1374 JUMPI PUSH1 0x4 DUP4 ADD SWAP3 POP DUP3 MLOAD PUSH1 0xFF DUP1 DUP3 AND DUP7 ADD MLOAD AND PUSH1 0xFF DUP1 DUP4 PUSH1 0x8 SHR AND DUP8 ADD MLOAD AND PUSH1 0x6 SHL ADD PUSH1 0xFF DUP1 DUP4 PUSH1 0x10 SHR AND DUP8 ADD MLOAD AND PUSH1 0xC SHL PUSH1 0xFF DUP1 DUP5 PUSH1 0x18 SHR AND DUP9 ADD MLOAD AND PUSH1 0x12 SHL ADD ADD SWAP1 POP DUP1 PUSH1 0xE8 SHL DUP3 MSTORE POP PUSH1 0x3 DUP2 ADD SWAP1 POP PUSH2 0x1317 JUMP JUMPDEST POP SWAP3 SWAP9 SWAP8 POP POP POP POP POP POP POP POP JUMP JUMPDEST PUSH1 0x60 PUSH1 0x0 PUSH1 0x60 PUSH2 0x139F DUP5 DUP6 MLOAD PUSH1 0x5 PUSH2 0x139A SWAP2 SWAP1 PUSH2 0x4209 JUMP JUMPDEST PUSH2 0x1C25 JUMP JUMPDEST SWAP1 SWAP3 POP SWAP1 POP PUSH1 0x0 DUP3 PUSH1 0xE DUP2 GT ISZERO PUSH2 0x13B8 JUMPI PUSH2 0x13B8 PUSH2 0x3AFC JUMP JUMPDEST EQ ISZERO PUSH2 0x14BF JUMPI PUSH1 0x0 JUMPDEST DUP2 DUP2 DUP2 MLOAD DUP2 LT PUSH2 0x13D3 JUMPI PUSH2 0x13D3 PUSH2 0x406C JUMP JUMPDEST ADD PUSH1 0x20 ADD MLOAD PUSH1 0x1 PUSH1 0x1 PUSH1 0xF8 SHL SUB NOT AND PUSH2 0x13EB JUMPI PUSH2 0x140B JUMP JUMPDEST DUP1 PUSH2 0x13F5 DUP2 PUSH2 0x4138 JUMP JUMPDEST SWAP2 POP POP DUP2 MLOAD DUP2 EQ ISZERO PUSH2 0x1406 JUMPI PUSH2 0x140B JUMP JUMPDEST PUSH2 0x13C1 JUMP JUMPDEST PUSH1 0x0 DUP2 PUSH1 0x1 PUSH1 0x1 PUSH1 0x40 SHL SUB DUP2 GT ISZERO PUSH2 0x1425 JUMPI PUSH2 0x1425 PUSH2 0x39C5 JUMP JUMPDEST PUSH1 0x40 MLOAD SWAP1 DUP1 DUP3 MSTORE DUP1 PUSH1 0x1F ADD PUSH1 0x1F NOT AND PUSH1 0x20 ADD DUP3 ADD PUSH1 0x40 MSTORE DUP1 ISZERO PUSH2 0x144F JUMPI PUSH1 0x20 DUP3 ADD DUP2 DUP1 CALLDATASIZE DUP4 CALLDATACOPY ADD SWAP1 POP JUMPDEST POP SWAP1 POP PUSH1 0x0 JUMPDEST DUP3 DUP2 LT ISZERO PUSH2 0x14B5 JUMPI DUP4 DUP2 DUP2 MLOAD DUP2 LT PUSH2 0x146F JUMPI PUSH2 0x146F PUSH2 0x406C JUMP JUMPDEST PUSH1 0x20 ADD ADD MLOAD PUSH1 0xF8 SHR PUSH1 0xF8 SHL DUP3 DUP3 DUP2 MLOAD DUP2 LT PUSH2 0x148C JUMPI PUSH2 0x148C PUSH2 0x406C JUMP JUMPDEST PUSH1 0x20 ADD ADD SWAP1 PUSH1 0x1 PUSH1 0x1 PUSH1 0xF8 SHL SUB NOT AND SWAP1 DUP2 PUSH1 0x0 BYTE SWAP1 MSTORE8 POP DUP1 PUSH2 0x14AD DUP2 PUSH2 0x4138 JUMP JUMPDEST SWAP2 POP POP PUSH2 0x1455 JUMP JUMPDEST POP SWAP4 POP PUSH2 0x14D2 SWAP1 POP JUMP JUMPDEST PUSH1 0x40 MLOAD DUP1 PUSH1 0x20 ADD PUSH1 0x40 MSTORE DUP1 PUSH1 0x0 DUP2 MSTORE POP SWAP3 POP JUMPDEST POP SWAP2 POP SWAP2 JUMP JUMPDEST PUSH1 0x33 SLOAD PUSH1 0x1 PUSH1 0x1 PUSH1 0xA0 SHL SUB AND CALLER EQ PUSH2 0x697 JUMPI PUSH1 0x40 MLOAD PUSH3 0x461BCD PUSH1 0xE5 SHL DUP2 MSTORE PUSH1 0x20 PUSH1 0x4 DUP3 ADD DUP2 SWAP1 MSTORE PUSH1 0x24 DUP3 ADD MSTORE PUSH32 0x4F776E61626C653A2063616C6C6572206973206E6F7420746865206F776E6572 PUSH1 0x44 DUP3 ADD MSTORE PUSH1 0x64 ADD PUSH2 0x2BE JUMP JUMPDEST PUSH1 0x33 DUP1 SLOAD PUSH1 0x1 PUSH1 0x1 PUSH1 0xA0 SHL SUB DUP4 DUP2 AND PUSH1 0x1 PUSH1 0x1 PUSH1 0xA0 SHL SUB NOT DUP4 AND DUP2 OR SWAP1 SWAP4 SSTORE PUSH1 0x40 MLOAD SWAP2 AND SWAP2 SWAP1 DUP3 SWAP1 PUSH32 0x8BE0079C531659141344CD1FD0A4F28419497F9722A3DAAFE3B4186F6B6457E0 SWAP1 PUSH1 0x0 SWAP1 LOG3 POP POP JUMP JUMPDEST PUSH1 0x60 DUP2 MLOAD PUSH1 0x0 EQ ISZERO PUSH2 0x15A4 JUMPI POP POP PUSH1 0x40 DUP1 MLOAD PUSH1 0x20 DUP2 ADD SWAP1 SWAP2 MSTORE PUSH1 0x0 DUP2 MSTORE SWAP1 JUMP JUMPDEST PUSH1 0x0 PUSH1 0x40 MLOAD DUP1 PUSH1 0x60 ADD PUSH1 0x40 MSTORE DUP1 PUSH1 0x40 DUP2 MSTORE PUSH1 0x20 ADD PUSH2 0x4867 PUSH1 0x40 SWAP2 CODECOPY SWAP1 POP PUSH1 0x0 PUSH1 0x3 DUP5 MLOAD PUSH1 0x2 PUSH2 0x15D3 SWAP2 SWAP1 PUSH2 0x47EC JUMP JUMPDEST PUSH2 0x15DD SWAP2 SWAP1 PUSH2 0x47D8 JUMP JUMPDEST PUSH2 0x15E8 SWAP1 PUSH1 0x4 PUSH2 0x4209 JUMP JUMPDEST SWAP1 POP PUSH1 0x0 PUSH2 0x15F7 DUP3 PUSH1 0x20 PUSH2 0x47EC JUMP JUMPDEST PUSH1 0x1 PUSH1 0x1 PUSH1 0x40 SHL SUB DUP2 GT ISZERO PUSH2 0x160E JUMPI PUSH2 0x160E PUSH2 0x39C5 JUMP JUMPDEST PUSH1 0x40 MLOAD SWAP1 DUP1 DUP3 MSTORE DUP1 PUSH1 0x1F ADD PUSH1 0x1F NOT AND PUSH1 0x20 ADD DUP3 ADD PUSH1 0x40 MSTORE DUP1 ISZERO PUSH2 0x1638 JUMPI PUSH1 0x20 DUP3 ADD DUP2 DUP1 CALLDATASIZE DUP4 CALLDATACOPY ADD SWAP1 POP JUMPDEST POP SWAP1 POP DUP2 DUP2 MSTORE PUSH1 0x1 DUP4 ADD DUP6 DUP7 MLOAD DUP2 ADD PUSH1 0x20 DUP5 ADD JUMPDEST DUP2 DUP4 LT ISZERO PUSH2 0x16A4 JUMPI PUSH1 0x3 DUP4 ADD SWAP3 POP DUP3 MLOAD PUSH1 0x3F DUP2 PUSH1 0x12 SHR AND DUP6 ADD MLOAD DUP3 MSTORE8 PUSH1 0x1 DUP3 ADD SWAP2 POP PUSH1 0x3F DUP2 PUSH1 0xC SHR AND DUP6 ADD MLOAD DUP3 MSTORE8 PUSH1 0x1 DUP3 ADD SWAP2 POP PUSH1 0x3F DUP2 PUSH1 0x6 SHR AND DUP6 ADD MLOAD DUP3 MSTORE8 PUSH1 0x1 DUP3 ADD SWAP2 POP PUSH1 0x3F DUP2 AND DUP6 ADD MLOAD DUP3 MSTORE8 POP PUSH1 0x1 ADD PUSH2 0x164C JUMP JUMPDEST PUSH1 0x3 DUP10 MLOAD MOD PUSH1 0x1 DUP2 EQ PUSH2 0x16BE JUMPI PUSH1 0x2 DUP2 EQ PUSH2 0x16CF JUMPI PUSH2 0x16DB JUMP JUMPDEST PUSH2 0x3D3D PUSH1 0xF0 SHL PUSH1 0x1 NOT DUP4 ADD MSTORE PUSH2 0x16DB JUMP JUMPDEST PUSH1 0x3D PUSH1 0xF8 SHL PUSH1 0x0 NOT DUP4 ADD MSTORE JUMPDEST POP SWAP4 SWAP9 SWAP8 POP POP POP POP POP POP POP POP JUMP JUMPDEST PUSH1 0x60 PUSH1 0x0 PUSH2 0x16F7 DUP6 DUP6 PUSH2 0x4684 JUMP JUMPDEST PUSH2 0x1702 SWAP1 PUSH1 0x1 PUSH2 0x47EC JUMP JUMPDEST PUSH1 0x1 PUSH1 0x1 PUSH1 0x40 SHL SUB DUP2 GT ISZERO PUSH2 0x1719 JUMPI PUSH2 0x1719 PUSH2 0x39C5 JUMP JUMPDEST PUSH1 0x40 MLOAD SWAP1 DUP1 DUP3 MSTORE DUP1 PUSH1 0x1F ADD PUSH1 0x1F NOT AND PUSH1 0x20 ADD DUP3 ADD PUSH1 0x40 MSTORE DUP1 ISZERO PUSH2 0x1743 JUMPI PUSH1 0x20 DUP3 ADD DUP2 DUP1 CALLDATASIZE DUP4 CALLDATACOPY ADD SWAP1 POP JUMPDEST POP SWAP1 POP PUSH1 0x0 JUMPDEST PUSH2 0x1753 DUP7 DUP7 PUSH2 0x4684 JUMP JUMPDEST DUP2 GT PUSH2 0x17C6 JUMPI DUP4 PUSH1 0x1 PUSH2 0x1766 DUP9 DUP5 PUSH2 0x47EC JUMP JUMPDEST PUSH2 0x1770 SWAP2 SWAP1 PUSH2 0x4684 JUMP JUMPDEST DUP2 MLOAD DUP2 LT PUSH2 0x1780 JUMPI PUSH2 0x1780 PUSH2 0x406C JUMP JUMPDEST PUSH1 0x20 ADD ADD MLOAD PUSH1 0xF8 SHR PUSH1 0xF8 SHL DUP3 DUP3 DUP2 MLOAD DUP2 LT PUSH2 0x179D JUMPI PUSH2 0x179D PUSH2 0x406C JUMP JUMPDEST PUSH1 0x20 ADD ADD SWAP1 PUSH1 0x1 PUSH1 0x1 PUSH1 0xF8 SHL SUB NOT AND SWAP1 DUP2 PUSH1 0x0 BYTE SWAP1 MSTORE8 POP DUP1 PUSH2 0x17BE DUP2 PUSH2 0x4138 JUMP JUMPDEST SWAP2 POP POP PUSH2 0x1749 JUMP JUMPDEST POP SWAP1 POP JUMPDEST SWAP4 SWAP3 POP POP POP JUMP JUMPDEST PUSH1 0x0 SLOAD PUSH2 0x100 SWAP1 DIV PUSH1 0xFF AND PUSH2 0x17F8 JUMPI PUSH1 0x40 MLOAD PUSH3 0x461BCD PUSH1 0xE5 SHL DUP2 MSTORE PUSH1 0x4 ADD PUSH2 0x2BE SWAP1 PUSH2 0x4804 JUMP JUMPDEST PUSH2 0x697 PUSH2 0x1ED6 JUMP JUMPDEST PUSH1 0x60 PUSH1 0x0 PUSH2 0x180F DUP4 PUSH1 0x2 PUSH2 0x4209 JUMP JUMPDEST PUSH2 0x181A SWAP1 PUSH1 0x2 PUSH2 0x47EC JUMP JUMPDEST PUSH1 0x1 PUSH1 0x1 PUSH1 0x40 SHL SUB DUP2 GT ISZERO PUSH2 0x1831 JUMPI PUSH2 0x1831 PUSH2 0x39C5 JUMP JUMPDEST PUSH1 0x40 MLOAD SWAP1 DUP1 DUP3 MSTORE DUP1 PUSH1 0x1F ADD PUSH1 0x1F NOT AND PUSH1 0x20 ADD DUP3 ADD PUSH1 0x40 MSTORE DUP1 ISZERO PUSH2 0x185B JUMPI PUSH1 0x20 DUP3 ADD DUP2 DUP1 CALLDATASIZE DUP4 CALLDATACOPY ADD SWAP1 POP JUMPDEST POP SWAP1 POP PUSH1 0x3 PUSH1 0xFC SHL DUP2 PUSH1 0x0 DUP2 MLOAD DUP2 LT PUSH2 0x1876 JUMPI PUSH2 0x1876 PUSH2 0x406C JUMP JUMPDEST PUSH1 0x20 ADD ADD SWAP1 PUSH1 0x1 PUSH1 0x1 PUSH1 0xF8 SHL SUB NOT AND SWAP1 DUP2 PUSH1 0x0 BYTE SWAP1 MSTORE8 POP PUSH1 0xF PUSH1 0xFB SHL DUP2 PUSH1 0x1 DUP2 MLOAD DUP2 LT PUSH2 0x18A5 JUMPI PUSH2 0x18A5 PUSH2 0x406C JUMP JUMPDEST PUSH1 0x20 ADD ADD SWAP1 PUSH1 0x1 PUSH1 0x1 PUSH1 0xF8 SHL SUB NOT AND SWAP1 DUP2 PUSH1 0x0 BYTE SWAP1 MSTORE8 POP PUSH1 0x0 PUSH2 0x18C9 DUP5 PUSH1 0x2 PUSH2 0x4209 JUMP JUMPDEST PUSH2 0x18D4 SWAP1 PUSH1 0x1 PUSH2 0x47EC JUMP JUMPDEST SWAP1 POP JUMPDEST PUSH1 0x1 DUP2 GT ISZERO PUSH2 0x194C JUMPI PUSH16 0x181899199A1A9B1B9C1CB0B131B232B3 PUSH1 0x81 SHL DUP6 PUSH1 0xF AND PUSH1 0x10 DUP2 LT PUSH2 0x1908 JUMPI PUSH2 0x1908 PUSH2 0x406C JUMP JUMPDEST BYTE PUSH1 0xF8 SHL DUP3 DUP3 DUP2 MLOAD DUP2 LT PUSH2 0x191E JUMPI PUSH2 0x191E PUSH2 0x406C JUMP JUMPDEST PUSH1 0x20 ADD ADD SWAP1 PUSH1 0x1 PUSH1 0x1 PUSH1 0xF8 SHL SUB NOT AND SWAP1 DUP2 PUSH1 0x0 BYTE SWAP1 MSTORE8 POP PUSH1 0x4 SWAP5 SWAP1 SWAP5 SHR SWAP4 PUSH2 0x1945 DUP2 PUSH2 0x484F JUMP JUMPDEST SWAP1 POP PUSH2 0x18D7 JUMP JUMPDEST POP DUP4 ISZERO PUSH2 0x17CA JUMPI PUSH1 0x40 MLOAD PUSH3 0x461BCD PUSH1 0xE5 SHL DUP2 MSTORE PUSH1 0x20 PUSH1 0x4 DUP3 ADD DUP2 SWAP1 MSTORE PUSH1 0x24 DUP3 ADD MSTORE PUSH32 0x537472696E67733A20686578206C656E67746820696E73756666696369656E74 PUSH1 0x44 DUP3 ADD MSTORE PUSH1 0x64 ADD PUSH2 0x2BE JUMP JUMPDEST PUSH1 0x0 DUP1 PUSH19 0x184F03E93FF9F4DAA797ED6E38ED64BF6A1F01 PUSH1 0x40 SHL DUP4 LT PUSH2 0x19DA JUMPI PUSH19 0x184F03E93FF9F4DAA797ED6E38ED64BF6A1F01 PUSH1 0x40 SHL DUP4 DIV SWAP3 POP PUSH1 0x40 ADD JUMPDEST PUSH14 0x4EE2D6D415B85ACEF8100000000 DUP4 LT PUSH2 0x1A06 JUMPI PUSH14 0x4EE2D6D415B85ACEF8100000000 DUP4 DIV SWAP3 POP PUSH1 0x20 ADD JUMPDEST PUSH7 0x2386F26FC10000 DUP4 LT PUSH2 0x1A24 JUMPI PUSH7 0x2386F26FC10000 DUP4 DIV SWAP3 POP PUSH1 0x10 ADD JUMPDEST PUSH4 0x5F5E100 DUP4 LT PUSH2 0x1A3C JUMPI PUSH4 0x5F5E100 DUP4 DIV SWAP3 POP PUSH1 0x8 ADD JUMPDEST PUSH2 0x2710 DUP4 LT PUSH2 0x1A50 JUMPI PUSH2 0x2710 DUP4 DIV SWAP3 POP PUSH1 0x4 ADD JUMPDEST PUSH1 0x64 DUP4 LT PUSH2 0x1A62 JUMPI PUSH1 0x64 DUP4 DIV SWAP3 POP PUSH1 0x2 ADD JUMPDEST PUSH1 0xA DUP4 LT PUSH2 0x1126 JUMPI PUSH1 0x1 ADD SWAP3 SWAP2 POP POP JUMP JUMPDEST PUSH27 0xFF00000000000000FF00000000000000FF00000000000000FF0000 PUSH12 0xFFFFFFFF0000000000000000 PUSH1 0x40 DUP4 SWAP1 SHR SWAP1 DUP2 AND PUSH4 0xFFFFFFFF PUSH1 0xC0 SHL DUP5 AND OR PUSH1 0x20 SHR PUSH4 0xFFFFFFFF PUSH1 0x60 SHL SWAP2 SWAP1 SWAP2 AND PUSH1 0x1 PUSH1 0x1 PUSH1 0xE0 SHL SUB NOT DUP5 AND OR OR PUSH1 0x10 DUP2 SWAP1 SHR SWAP2 DUP3 AND PUSH31 0xFF00000000000000FF00000000000000FF00000000000000FF000000000000 DUP3 AND OR PUSH1 0x8 SWAP1 DUP2 SHR PUSH28 0xFF00000000000000FF00000000000000FF00000000000000FF000000 SWAP4 SWAP1 SWAP4 AND PUSH32 0xFF00000000000000FF00000000000000FF00000000000000FF00000000000000 SWAP3 SWAP1 SWAP3 AND SWAP2 SWAP1 SWAP2 OR SWAP2 SWAP1 SWAP2 OR SWAP1 DUP2 SWAP1 SHR PUSH31 0xF000F000F000F000F000F000F000F000F000F000F000F000F000F000F000F AND PUSH32 0xF000F000F000F000F000F000F000F000F000F000F000F000F000F000F000F00 PUSH1 0x4 SWAP3 DUP4 SHR AND OR SWAP1 PUSH2 0x1BC1 DUP3 PUSH32 0x606060606060606060606060606060606060606060606060606060606060606 PUSH2 0x47EC JUMP JUMPDEST SWAP1 SHR PUSH32 0xF0F0F0F0F0F0F0F0F0F0F0F0F0F0F0F0F0F0F0F0F0F0F0F0F0F0F0F0F0F0F0F AND PUSH1 0x7 PUSH2 0x1BF1 SWAP2 SWAP1 PUSH2 0x4209 JUMP JUMPDEST PUSH2 0x1C1B DUP3 PUSH32 0x3030303030303030303030303030303030303030303030303030303030303030 PUSH2 0x47EC JUMP JUMPDEST PUSH2 0x1126 SWAP2 SWAP1 PUSH2 0x47EC JUMP JUMPDEST PUSH1 0x0 PUSH1 0x60 PUSH1 0x0 PUSH1 0x40 MLOAD DUP1 PUSH2 0x100 ADD PUSH1 0x40 MSTORE DUP1 DUP6 PUSH1 0x1 PUSH1 0x1 PUSH1 0x40 SHL SUB DUP2 GT ISZERO PUSH2 0x1C4F JUMPI PUSH2 0x1C4F PUSH2 0x39C5 JUMP JUMPDEST PUSH1 0x40 MLOAD SWAP1 DUP1 DUP3 MSTORE DUP1 PUSH1 0x1F ADD PUSH1 0x1F NOT AND PUSH1 0x20 ADD DUP3 ADD PUSH1 0x40 MSTORE DUP1 ISZERO PUSH2 0x1C79 JUMPI PUSH1 0x20 DUP3 ADD DUP2 DUP1 CALLDATASIZE DUP4 CALLDATACOPY ADD SWAP1 POP JUMPDEST POP DUP2 MSTORE PUSH1 0x20 ADD PUSH1 0x0 DUP2 MSTORE PUSH1 0x20 ADD DUP7 DUP2 MSTORE PUSH1 0x20 ADD PUSH1 0x0 DUP2 MSTORE PUSH1 0x20 ADD PUSH1 0x0 DUP2 MSTORE PUSH1 0x20 ADD PUSH1 0x0 DUP2 MSTORE PUSH1 0x20 ADD PUSH1 0x40 MLOAD DUP1 PUSH1 0x40 ADD PUSH1 0x40 MSTORE DUP1 PUSH1 0xF PUSH1 0x1 PUSH2 0x1CBA SWAP2 SWAP1 PUSH2 0x47EC JUMP JUMPDEST PUSH1 0x1 PUSH1 0x1 PUSH1 0x40 SHL SUB DUP2 GT ISZERO PUSH2 0x1CD1 JUMPI PUSH2 0x1CD1 PUSH2 0x39C5 JUMP JUMPDEST PUSH1 0x40 MLOAD SWAP1 DUP1 DUP3 MSTORE DUP1 PUSH1 0x20 MUL PUSH1 0x20 ADD DUP3 ADD PUSH1 0x40 MSTORE DUP1 ISZERO PUSH2 0x1CFA JUMPI DUP2 PUSH1 0x20 ADD PUSH1 0x20 DUP3 MUL DUP1 CALLDATASIZE DUP4 CALLDATACOPY ADD SWAP1 POP JUMPDEST POP DUP2 MSTORE PUSH1 0x40 DUP1 MLOAD PUSH2 0x120 DUP1 DUP3 MSTORE PUSH2 0x2420 DUP3 ADD SWAP1 SWAP3 MSTORE PUSH1 0x20 SWAP3 DUP4 ADD SWAP3 SWAP1 SWAP2 SWAP1 DUP3 ADD PUSH2 0x2400 DUP1 CALLDATASIZE DUP4 CALLDATACOPY ADD SWAP1 POP POP DUP2 MSTORE POP DUP2 MSTORE PUSH1 0x20 ADD PUSH1 0x40 MLOAD DUP1 PUSH1 0x40 ADD PUSH1 0x40 MSTORE DUP1 PUSH1 0xF PUSH1 0x1 PUSH2 0x1D46 SWAP2 SWAP1 PUSH2 0x47EC JUMP JUMPDEST PUSH1 0x1 PUSH1 0x1 PUSH1 0x40 SHL SUB DUP2 GT ISZERO PUSH2 0x1D5D JUMPI PUSH2 0x1D5D PUSH2 0x39C5 JUMP JUMPDEST PUSH1 0x40 MLOAD SWAP1 DUP1 DUP3 MSTORE DUP1 PUSH1 0x20 MUL PUSH1 0x20 ADD DUP3 ADD PUSH1 0x40 MSTORE DUP1 ISZERO PUSH2 0x1D86 JUMPI DUP2 PUSH1 0x20 ADD PUSH1 0x20 DUP3 MUL DUP1 CALLDATASIZE DUP4 CALLDATACOPY ADD SWAP1 POP JUMPDEST POP DUP2 MSTORE PUSH1 0x40 DUP1 MLOAD PUSH1 0x1E DUP1 DUP3 MSTORE PUSH2 0x3E0 DUP3 ADD SWAP1 SWAP3 MSTORE PUSH1 0x20 SWAP3 DUP4 ADD SWAP3 SWAP1 SWAP2 SWAP1 DUP3 ADD PUSH2 0x3C0 DUP1 CALLDATASIZE DUP4 CALLDATACOPY POP POP POP SWAP1 MSTORE SWAP1 MSTORE SWAP1 POP PUSH1 0x0 DUP1 DUP1 PUSH2 0x1DC2 DUP5 PUSH2 0x1F06 JUMP JUMPDEST SWAP1 POP PUSH1 0x0 DUP2 PUSH1 0xE DUP2 GT ISZERO PUSH2 0x1DD8 JUMPI PUSH2 0x1DD8 PUSH2 0x3AFC JUMP JUMPDEST EQ PUSH2 0x1DED JUMPI SWAP3 MLOAD SWAP3 SWAP5 POP SWAP2 SWAP3 POP PUSH2 0x1ECF SWAP2 POP POP JUMP JUMPDEST DUP3 PUSH2 0x1EC4 JUMPI PUSH2 0x1DFD DUP5 PUSH1 0x1 PUSH2 0x2090 JUMP JUMPDEST SWAP4 POP SWAP1 POP PUSH1 0x0 DUP2 PUSH1 0xE DUP2 GT ISZERO PUSH2 0x1E15 JUMPI PUSH2 0x1E15 PUSH2 0x3AFC JUMP JUMPDEST EQ PUSH2 0x1E2A JUMPI SWAP3 MLOAD SWAP3 SWAP5 POP SWAP2 SWAP3 POP PUSH2 0x1ECF SWAP2 POP POP JUMP JUMPDEST PUSH2 0x1E35 DUP5 PUSH1 0x2 PUSH2 0x2090 JUMP JUMPDEST SWAP3 POP SWAP1 POP PUSH1 0x0 DUP2 PUSH1 0xE DUP2 GT ISZERO PUSH2 0x1E4D JUMPI PUSH2 0x1E4D PUSH2 0x3AFC JUMP JUMPDEST EQ PUSH2 0x1E62 JUMPI SWAP3 MLOAD SWAP3 SWAP5 POP SWAP2 SWAP3 POP PUSH2 0x1ECF SWAP2 POP POP JUMP JUMPDEST DUP2 ISZERO PUSH2 0x1E96 JUMPI DUP2 PUSH1 0x1 EQ PUSH2 0x1E8D JUMPI DUP2 PUSH1 0x2 EQ PUSH2 0x1E7F JUMPI PUSH1 0x3 PUSH2 0x1E9F JUMP JUMPDEST PUSH2 0x1E88 DUP5 PUSH2 0x2161 JUMP JUMPDEST PUSH2 0x1E9F JUMP JUMPDEST PUSH2 0x1E88 DUP5 PUSH2 0x21DB JUMP JUMPDEST PUSH2 0x1E9F DUP5 PUSH2 0x21F0 JUMP JUMPDEST SWAP1 POP PUSH1 0x0 DUP2 PUSH1 0xE DUP2 GT ISZERO PUSH2 0x1EB5 JUMPI PUSH2 0x1EB5 PUSH2 0x3AFC JUMP JUMPDEST EQ PUSH2 0x1EBF JUMPI PUSH2 0x1EC4 JUMP JUMPDEST PUSH2 0x1DED JUMP JUMPDEST SWAP3 MLOAD SWAP3 SWAP5 POP SWAP2 SWAP3 POP POP POP JUMPDEST SWAP3 POP SWAP3 SWAP1 POP JUMP JUMPDEST PUSH1 0x0 SLOAD PUSH2 0x100 SWAP1 DIV PUSH1 0xFF AND PUSH2 0x1EFD JUMPI PUSH1 0x40 MLOAD PUSH3 0x461BCD PUSH1 0xE5 SHL DUP2 MSTORE PUSH1 0x4 ADD PUSH2 0x2BE SWAP1 PUSH2 0x4804 JUMP JUMPDEST PUSH2 0x697 CALLER PUSH2 0x1532 JUMP JUMPDEST PUSH1 0x40 DUP1 MLOAD PUSH2 0x120 DUP1 DUP3 MSTORE PUSH2 0x2420 DUP3 ADD SWAP1 SWAP3 MSTORE PUSH1 0x0 SWAP2 DUP3 SWAP2 DUP3 SWAP2 PUSH1 0x20 DUP3 ADD PUSH2 0x2400 DUP1 CALLDATASIZE DUP4 CALLDATACOPY ADD SWAP1 POP POP SWAP1 POP PUSH1 0x0 SWAP2 POP JUMPDEST PUSH1 0x90 DUP3 LT ISZERO PUSH2 0x1F6F JUMPI PUSH1 0x8 DUP2 DUP4 DUP2 MLOAD DUP2 LT PUSH2 0x1F52 JUMPI PUSH2 0x1F52 PUSH2 0x406C JUMP JUMPDEST PUSH1 0x20 SWAP1 DUP2 MUL SWAP2 SWAP1 SWAP2 ADD ADD MSTORE DUP2 PUSH2 0x1F67 DUP2 PUSH2 0x4138 JUMP JUMPDEST SWAP3 POP POP PUSH2 0x1F35 JUMP JUMPDEST PUSH2 0x100 DUP3 LT ISZERO PUSH2 0x1FAA JUMPI PUSH1 0x9 DUP2 DUP4 DUP2 MLOAD DUP2 LT PUSH2 0x1F8D JUMPI PUSH2 0x1F8D PUSH2 0x406C JUMP JUMPDEST PUSH1 0x20 SWAP1 DUP2 MUL SWAP2 SWAP1 SWAP2 ADD ADD MSTORE DUP2 PUSH2 0x1FA2 DUP2 PUSH2 0x4138 JUMP JUMPDEST SWAP3 POP POP PUSH2 0x1F6F JUMP JUMPDEST PUSH2 0x118 DUP3 LT ISZERO PUSH2 0x1FE5 JUMPI PUSH1 0x7 DUP2 DUP4 DUP2 MLOAD DUP2 LT PUSH2 0x1FC8 JUMPI PUSH2 0x1FC8 PUSH2 0x406C JUMP JUMPDEST PUSH1 0x20 SWAP1 DUP2 MUL SWAP2 SWAP1 SWAP2 ADD ADD MSTORE DUP2 PUSH2 0x1FDD DUP2 PUSH2 0x4138 JUMP JUMPDEST SWAP3 POP POP PUSH2 0x1FAA JUMP JUMPDEST PUSH2 0x120 DUP3 LT ISZERO PUSH2 0x2020 JUMPI PUSH1 0x8 DUP2 DUP4 DUP2 MLOAD DUP2 LT PUSH2 0x2003 JUMPI PUSH2 0x2003 PUSH2 0x406C JUMP JUMPDEST PUSH1 0x20 SWAP1 DUP2 MUL SWAP2 SWAP1 SWAP2 ADD ADD MSTORE DUP2 PUSH2 0x2018 DUP2 PUSH2 0x4138 JUMP JUMPDEST SWAP3 POP POP PUSH2 0x1FE5 JUMP JUMPDEST PUSH2 0x2033 DUP5 PUSH1 0xC0 ADD MLOAD DUP3 PUSH2 0x120 PUSH1 0x0 PUSH2 0x2400 JUMP JUMPDEST POP PUSH1 0x0 SWAP2 POP JUMPDEST PUSH1 0x1E DUP3 LT ISZERO PUSH2 0x2073 JUMPI PUSH1 0x5 DUP2 DUP4 DUP2 MLOAD DUP2 LT PUSH2 0x2056 JUMPI PUSH2 0x2056 PUSH2 0x406C JUMP JUMPDEST PUSH1 0x20 SWAP1 DUP2 MUL SWAP2 SWAP1 SWAP2 ADD ADD MSTORE DUP2 PUSH2 0x206B DUP2 PUSH2 0x4138 JUMP JUMPDEST SWAP3 POP POP PUSH2 0x2039 JUMP JUMPDEST PUSH2 0x2085 DUP5 PUSH1 0xE0 ADD MLOAD DUP3 PUSH1 0x1E PUSH1 0x0 PUSH2 0x2400 JUMP JUMPDEST POP PUSH1 0x0 SWAP5 SWAP4 POP POP POP POP JUMP JUMPDEST PUSH1 0x80 DUP3 ADD MLOAD PUSH1 0x0 SWAP1 DUP2 SWAP1 JUMPDEST DUP4 DUP6 PUSH1 0xA0 ADD MLOAD LT ISZERO PUSH2 0x2124 JUMPI DUP5 PUSH1 0x40 ADD MLOAD MLOAD DUP6 PUSH1 0x60 ADD MLOAD EQ ISZERO PUSH2 0x20C6 JUMPI PUSH1 0x1 PUSH1 0x0 SWAP3 POP SWAP3 POP POP PUSH2 0x1ECF JUMP JUMPDEST PUSH1 0xA0 DUP6 ADD MLOAD PUSH1 0x40 DUP7 ADD MLOAD PUSH1 0x60 DUP8 ADD DUP1 MLOAD SWAP1 PUSH2 0x20E0 DUP3 PUSH2 0x4138 JUMP JUMPDEST SWAP1 MSTORE DUP2 MLOAD DUP2 LT PUSH2 0x20F2 JUMPI PUSH2 0x20F2 PUSH2 0x406C JUMP JUMPDEST PUSH1 0x20 ADD ADD MLOAD PUSH1 0xF8 SHR PUSH1 0xF8 SHL PUSH1 0xF8 SHR PUSH1 0xFF AND SWAP1 SHL DUP2 OR SWAP1 POP PUSH1 0x8 DUP6 PUSH1 0xA0 ADD DUP2 DUP2 MLOAD PUSH2 0x211C SWAP2 SWAP1 PUSH2 0x47EC JUMP JUMPDEST SWAP1 MSTORE POP PUSH2 0x209B JUMP JUMPDEST DUP1 DUP5 SHR PUSH1 0x80 DUP7 ADD MSTORE PUSH1 0xA0 DUP6 ADD DUP1 MLOAD DUP6 SWAP2 SWAP1 PUSH2 0x2140 SWAP1 DUP4 SWAP1 PUSH2 0x4684 JUMP JUMPDEST SWAP1 MSTORE POP PUSH1 0x0 PUSH2 0x2152 PUSH1 0x1 DUP1 DUP8 SHL PUSH2 0x4684 JUMP JUMPDEST PUSH1 0x0 SWAP8 SWAP3 AND SWAP6 POP SWAP1 SWAP4 POP POP POP POP JUMP JUMPDEST PUSH1 0x0 PUSH2 0x2180 PUSH1 0x40 MLOAD DUP1 PUSH1 0x40 ADD PUSH1 0x40 MSTORE DUP1 PUSH1 0x60 DUP2 MSTORE PUSH1 0x20 ADD PUSH1 0x60 DUP2 MSTORE POP SWAP1 JUMP JUMPDEST PUSH1 0x40 DUP1 MLOAD DUP1 DUP3 ADD SWAP1 SWAP2 MSTORE PUSH1 0x60 DUP1 DUP3 MSTORE PUSH1 0x20 DUP3 ADD MSTORE PUSH1 0x0 PUSH2 0x219F DUP6 PUSH2 0x26CB JUMP JUMPDEST SWAP1 SWAP5 POP SWAP3 POP SWAP1 POP PUSH1 0x0 DUP2 PUSH1 0xE DUP2 GT ISZERO PUSH2 0x21BA JUMPI PUSH2 0x21BA PUSH2 0x3AFC JUMP JUMPDEST EQ PUSH2 0x21C7 JUMPI SWAP5 SWAP4 POP POP POP POP JUMP JUMPDEST PUSH2 0x21D2 DUP6 DUP5 DUP5 PUSH2 0x2D81 JUMP JUMPDEST SWAP6 SWAP5 POP POP POP POP POP JUMP JUMPDEST PUSH1 0x0 PUSH2 0x1126 DUP3 DUP4 PUSH1 0xC0 ADD MLOAD DUP5 PUSH1 0xE0 ADD MLOAD PUSH2 0x2D81 JUMP JUMPDEST PUSH1 0x0 PUSH1 0x80 DUP3 ADD DUP2 SWAP1 MSTORE PUSH1 0xA0 DUP3 ADD DUP2 SWAP1 MSTORE PUSH1 0x40 DUP3 ADD MLOAD MLOAD PUSH1 0x60 DUP4 ADD MLOAD DUP3 SWAP2 SWAP1 PUSH2 0x2219 SWAP1 PUSH1 0x4 PUSH2 0x47EC JUMP JUMPDEST GT ISZERO PUSH2 0x2228 JUMPI POP PUSH1 0x1 SWAP3 SWAP2 POP POP JUMP JUMPDEST PUSH1 0x40 DUP4 ADD MLOAD PUSH1 0x60 DUP5 ADD DUP1 MLOAD SWAP1 PUSH2 0x223D DUP3 PUSH2 0x4138 JUMP JUMPDEST SWAP1 MSTORE DUP2 MLOAD DUP2 LT PUSH2 0x224F JUMPI PUSH2 0x224F PUSH2 0x406C JUMP JUMPDEST ADD PUSH1 0x20 ADD MLOAD PUSH1 0x40 DUP5 ADD MLOAD PUSH1 0x60 DUP6 ADD DUP1 MLOAD PUSH1 0xF8 SWAP4 SWAP1 SWAP4 SHR SWAP4 POP PUSH1 0x8 SWAP3 SWAP1 PUSH2 0x2274 DUP3 PUSH2 0x4138 JUMP JUMPDEST SWAP1 MSTORE DUP2 MLOAD DUP2 LT PUSH2 0x2286 JUMPI PUSH2 0x2286 PUSH2 0x406C JUMP JUMPDEST PUSH1 0x20 ADD ADD MLOAD PUSH1 0xF8 SHR PUSH1 0xF8 SHL PUSH1 0xF8 SHR PUSH1 0xFF AND SWAP1 SHL DUP2 OR SWAP1 POP DUP1 NOT PUSH1 0xFF AND DUP4 PUSH1 0x40 ADD MLOAD DUP5 PUSH1 0x60 ADD DUP1 MLOAD DUP1 SWAP2 SWAP1 PUSH2 0x22B9 SWAP1 PUSH2 0x4138 JUMP JUMPDEST SWAP1 MSTORE DUP2 MLOAD DUP2 LT PUSH2 0x22CB JUMPI PUSH2 0x22CB PUSH2 0x406C JUMP JUMPDEST ADD PUSH1 0x20 ADD MLOAD PUSH1 0xF8 SHR EQ ISZERO DUP1 PUSH2 0x2316 JUMPI POP PUSH1 0x40 DUP4 ADD MLOAD PUSH1 0x60 DUP5 ADD DUP1 MLOAD PUSH1 0xFF DUP5 NOT PUSH1 0x8 SHR AND SWAP3 SWAP2 PUSH2 0x22F9 DUP3 PUSH2 0x4138 JUMP JUMPDEST SWAP1 MSTORE DUP2 MLOAD DUP2 LT PUSH2 0x230B JUMPI PUSH2 0x230B PUSH2 0x406C JUMP JUMPDEST ADD PUSH1 0x20 ADD MLOAD PUSH1 0xF8 SHR EQ ISZERO JUMPDEST ISZERO PUSH2 0x2324 JUMPI POP PUSH1 0x4 SWAP3 SWAP2 POP POP JUMP JUMPDEST DUP3 PUSH1 0x40 ADD MLOAD MLOAD DUP2 DUP5 PUSH1 0x60 ADD MLOAD PUSH2 0x233A SWAP2 SWAP1 PUSH2 0x47EC JUMP JUMPDEST GT ISZERO PUSH2 0x2349 JUMPI POP PUSH1 0x1 SWAP3 SWAP2 POP POP JUMP JUMPDEST DUP3 MLOAD MLOAD PUSH1 0x20 DUP5 ADD MLOAD PUSH2 0x235C SWAP1 DUP4 SWAP1 PUSH2 0x47EC JUMP JUMPDEST GT ISZERO PUSH2 0x236B JUMPI POP PUSH1 0x2 SWAP3 SWAP2 POP POP JUMP JUMPDEST DUP1 ISZERO PUSH2 0x23F7 JUMPI PUSH2 0x237C PUSH1 0x1 DUP3 PUSH2 0x4684 JUMP JUMPDEST SWAP1 POP DUP3 PUSH1 0x40 ADD MLOAD DUP4 PUSH1 0x60 ADD DUP1 MLOAD DUP1 SWAP2 SWAP1 PUSH2 0x2395 SWAP1 PUSH2 0x4138 JUMP JUMPDEST SWAP1 MSTORE DUP2 MLOAD DUP2 LT PUSH2 0x23A7 JUMPI PUSH2 0x23A7 PUSH2 0x406C JUMP JUMPDEST PUSH1 0x20 ADD ADD MLOAD PUSH1 0xF8 SHR PUSH1 0xF8 SHL DUP4 PUSH1 0x0 ADD MLOAD DUP5 PUSH1 0x20 ADD DUP1 MLOAD DUP1 SWAP2 SWAP1 PUSH2 0x23C9 SWAP1 PUSH2 0x4138 JUMP JUMPDEST SWAP1 MSTORE DUP2 MLOAD DUP2 LT PUSH2 0x23DB JUMPI PUSH2 0x23DB PUSH2 0x406C JUMP JUMPDEST PUSH1 0x20 ADD ADD SWAP1 PUSH1 0x1 PUSH1 0x1 PUSH1 0xF8 SHL SUB NOT AND SWAP1 DUP2 PUSH1 0x0 BYTE SWAP1 MSTORE8 POP PUSH2 0x236B JUMP JUMPDEST POP PUSH1 0x0 SWAP3 SWAP2 POP POP JUMP JUMPDEST PUSH1 0x0 DUP1 PUSH1 0x0 DUP1 PUSH2 0x240E PUSH2 0x38DD JUMP JUMPDEST PUSH1 0x0 SWAP3 POP JUMPDEST PUSH1 0xF DUP4 GT PUSH2 0x2450 JUMPI PUSH1 0x0 DUP10 PUSH1 0x0 ADD MLOAD DUP5 DUP2 MLOAD DUP2 LT PUSH2 0x2433 JUMPI PUSH2 0x2433 PUSH2 0x406C JUMP JUMPDEST PUSH1 0x20 SWAP1 DUP2 MUL SWAP2 SWAP1 SWAP2 ADD ADD MSTORE DUP3 PUSH2 0x2448 DUP2 PUSH2 0x4138 JUMP JUMPDEST SWAP4 POP POP PUSH2 0x2413 JUMP JUMPDEST PUSH1 0x0 SWAP4 POP JUMPDEST DUP7 DUP5 LT ISZERO PUSH2 0x24BC JUMPI DUP9 MLOAD DUP9 PUSH2 0x246A DUP7 DUP10 PUSH2 0x47EC JUMP JUMPDEST DUP2 MLOAD DUP2 LT PUSH2 0x247A JUMPI PUSH2 0x247A PUSH2 0x406C JUMP JUMPDEST PUSH1 0x20 MUL PUSH1 0x20 ADD ADD MLOAD DUP2 MLOAD DUP2 LT PUSH2 0x2492 JUMPI PUSH2 0x2492 PUSH2 0x406C JUMP JUMPDEST PUSH1 0x20 MUL PUSH1 0x20 ADD ADD DUP1 MLOAD DUP1 SWAP2 SWAP1 PUSH2 0x24A7 SWAP1 PUSH2 0x4138 JUMP JUMPDEST SWAP1 MSTORE POP DUP4 PUSH2 0x24B4 DUP2 PUSH2 0x4138 JUMP JUMPDEST SWAP5 POP POP PUSH2 0x2455 JUMP JUMPDEST DUP7 DUP10 PUSH1 0x0 ADD MLOAD PUSH1 0x0 DUP2 MLOAD DUP2 LT PUSH2 0x24D4 JUMPI PUSH2 0x24D4 PUSH2 0x406C JUMP JUMPDEST PUSH1 0x20 MUL PUSH1 0x20 ADD ADD MLOAD EQ ISZERO PUSH2 0x24EF JUMPI PUSH1 0x0 SWAP5 POP POP POP POP POP PUSH2 0x26C3 JUMP JUMPDEST PUSH1 0x1 SWAP2 POP PUSH1 0x1 SWAP3 POP JUMPDEST PUSH1 0xF DUP4 GT PUSH2 0x2572 JUMPI DUP9 MLOAD DUP1 MLOAD PUSH1 0x1 SWAP4 SWAP1 SWAP4 SHL SWAP3 DUP5 SWAP1 DUP2 LT PUSH2 0x251B JUMPI PUSH2 0x251B PUSH2 0x406C JUMP JUMPDEST PUSH1 0x20 MUL PUSH1 0x20 ADD ADD MLOAD DUP3 LT ISZERO PUSH2 0x2537 JUMPI PUSH1 0xE SWAP5 POP POP POP POP POP PUSH2 0x26C3 JUMP JUMPDEST DUP9 MLOAD DUP1 MLOAD DUP5 SWAP1 DUP2 LT PUSH2 0x254B JUMPI PUSH2 0x254B PUSH2 0x406C JUMP JUMPDEST PUSH1 0x20 MUL PUSH1 0x20 ADD ADD MLOAD DUP3 PUSH2 0x255E SWAP2 SWAP1 PUSH2 0x4684 JUMP JUMPDEST SWAP2 POP DUP3 PUSH2 0x256A DUP2 PUSH2 0x4138 JUMP JUMPDEST SWAP4 POP POP PUSH2 0x24F8 JUMP JUMPDEST PUSH1 0x0 PUSH1 0x20 DUP3 ADD MSTORE PUSH1 0x1 SWAP3 POP JUMPDEST PUSH1 0xF DUP4 LT ISZERO PUSH2 0x25F7 JUMPI DUP9 MLOAD DUP1 MLOAD DUP5 SWAP1 DUP2 LT PUSH2 0x259B JUMPI PUSH2 0x259B PUSH2 0x406C JUMP JUMPDEST PUSH1 0x20 MUL PUSH1 0x20 ADD ADD MLOAD DUP2 DUP5 PUSH1 0x10 DUP2 LT PUSH2 0x25B5 JUMPI PUSH2 0x25B5 PUSH2 0x406C JUMP JUMPDEST PUSH1 0x20 MUL ADD MLOAD PUSH2 0x25C4 SWAP2 SWAP1 PUSH2 0x47EC JUMP JUMPDEST DUP2 PUSH2 0x25D0 DUP6 PUSH1 0x1 PUSH2 0x47EC JUMP JUMPDEST PUSH1 0x10 DUP2 LT PUSH2 0x25E0 JUMPI PUSH2 0x25E0 PUSH2 0x406C JUMP JUMPDEST PUSH1 0x20 MUL ADD MSTORE DUP3 PUSH2 0x25EF DUP2 PUSH2 0x4138 JUMP JUMPDEST SWAP4 POP POP PUSH2 0x257E JUMP JUMPDEST PUSH1 0x0 SWAP4 POP JUMPDEST DUP7 DUP5 LT ISZERO PUSH2 0x26AA JUMPI DUP8 PUSH2 0x260F DUP6 DUP9 PUSH2 0x47EC JUMP JUMPDEST DUP2 MLOAD DUP2 LT PUSH2 0x261F JUMPI PUSH2 0x261F PUSH2 0x406C JUMP JUMPDEST PUSH1 0x20 MUL PUSH1 0x20 ADD ADD MLOAD PUSH1 0x0 EQ PUSH2 0x2698 JUMPI PUSH1 0x20 DUP10 ADD MLOAD DUP5 SWAP1 DUP3 DUP11 PUSH2 0x2641 DUP5 DUP12 PUSH2 0x47EC JUMP JUMPDEST DUP2 MLOAD DUP2 LT PUSH2 0x2651 JUMPI PUSH2 0x2651 PUSH2 0x406C JUMP JUMPDEST PUSH1 0x20 MUL PUSH1 0x20 ADD ADD MLOAD PUSH1 0x10 DUP2 LT PUSH2 0x2669 JUMPI PUSH2 0x2669 PUSH2 0x406C JUMP JUMPDEST PUSH1 0x20 MUL ADD DUP1 MLOAD SWAP1 PUSH2 0x2679 DUP3 PUSH2 0x4138 JUMP JUMPDEST SWAP1 MSTORE DUP2 MLOAD DUP2 LT PUSH2 0x268B JUMPI PUSH2 0x268B PUSH2 0x406C JUMP JUMPDEST PUSH1 0x20 MUL PUSH1 0x20 ADD ADD DUP2 DUP2 MSTORE POP POP JUMPDEST DUP4 PUSH2 0x26A2 DUP2 PUSH2 0x4138 JUMP JUMPDEST SWAP5 POP POP PUSH2 0x25FC JUMP JUMPDEST PUSH1 0x0 DUP3 GT PUSH2 0x26B9 JUMPI PUSH1 0x0 PUSH2 0x26BC JUMP JUMPDEST PUSH1 0xE JUMPDEST SWAP5 POP POP POP POP POP JUMPDEST SWAP5 SWAP4 POP POP POP POP JUMP JUMPDEST PUSH1 0x0 PUSH2 0x26EA PUSH1 0x40 MLOAD DUP1 PUSH1 0x40 ADD PUSH1 0x40 MSTORE DUP1 PUSH1 0x60 DUP2 MSTORE PUSH1 0x20 ADD PUSH1 0x60 DUP2 MSTORE POP SWAP1 JUMP JUMPDEST PUSH1 0x40 DUP1 MLOAD DUP1 DUP3 ADD SWAP1 SWAP2 MSTORE PUSH1 0x60 DUP1 DUP3 MSTORE PUSH1 0x20 DUP3 ADD MSTORE PUSH1 0x0 DUP1 DUP1 DUP1 DUP1 PUSH2 0x2711 PUSH1 0x1E PUSH2 0x11E PUSH2 0x47EC JUMP JUMPDEST PUSH1 0x1 PUSH1 0x1 PUSH1 0x40 SHL SUB DUP2 GT ISZERO PUSH2 0x2728 JUMPI PUSH2 0x2728 PUSH2 0x39C5 JUMP JUMPDEST PUSH1 0x40 MLOAD SWAP1 DUP1 DUP3 MSTORE DUP1 PUSH1 0x20 MUL PUSH1 0x20 ADD DUP3 ADD PUSH1 0x40 MSTORE DUP1 ISZERO PUSH2 0x2751 JUMPI DUP2 PUSH1 0x20 ADD PUSH1 0x20 DUP3 MUL DUP1 CALLDATASIZE DUP4 CALLDATACOPY ADD SWAP1 POP JUMPDEST POP SWAP1 POP PUSH1 0x0 PUSH1 0x40 MLOAD DUP1 PUSH1 0x40 ADD PUSH1 0x40 MSTORE DUP1 PUSH1 0xF PUSH1 0x1 PUSH2 0x276F SWAP2 SWAP1 PUSH2 0x47EC JUMP JUMPDEST PUSH1 0x1 PUSH1 0x1 PUSH1 0x40 SHL SUB DUP2 GT ISZERO PUSH2 0x2786 JUMPI PUSH2 0x2786 PUSH2 0x39C5 JUMP JUMPDEST PUSH1 0x40 MLOAD SWAP1 DUP1 DUP3 MSTORE DUP1 PUSH1 0x20 MUL PUSH1 0x20 ADD DUP3 ADD PUSH1 0x40 MSTORE DUP1 ISZERO PUSH2 0x27AF JUMPI DUP2 PUSH1 0x20 ADD PUSH1 0x20 DUP3 MUL DUP1 CALLDATASIZE DUP4 CALLDATACOPY ADD SWAP1 POP JUMPDEST POP DUP2 MSTORE PUSH1 0x40 DUP1 MLOAD PUSH2 0x11E DUP1 DUP3 MSTORE PUSH2 0x23E0 DUP3 ADD SWAP1 SWAP3 MSTORE PUSH1 0x20 SWAP3 DUP4 ADD SWAP3 SWAP1 SWAP2 SWAP1 DUP3 ADD PUSH2 0x23C0 DUP1 CALLDATASIZE DUP4 CALLDATACOPY ADD SWAP1 POP POP DUP2 MSTORE POP SWAP1 POP PUSH1 0x0 PUSH1 0x40 MLOAD DUP1 PUSH1 0x40 ADD PUSH1 0x40 MSTORE DUP1 PUSH1 0xF PUSH1 0x1 PUSH2 0x27FA SWAP2 SWAP1 PUSH2 0x47EC JUMP JUMPDEST PUSH1 0x1 PUSH1 0x1 PUSH1 0x40 SHL SUB DUP2 GT ISZERO PUSH2 0x2811 JUMPI PUSH2 0x2811 PUSH2 0x39C5 JUMP JUMPDEST PUSH1 0x40 MLOAD SWAP1 DUP1 DUP3 MSTORE DUP1 PUSH1 0x20 MUL PUSH1 0x20 ADD DUP3 ADD PUSH1 0x40 MSTORE DUP1 ISZERO PUSH2 0x283A JUMPI DUP2 PUSH1 0x20 ADD PUSH1 0x20 DUP3 MUL DUP1 CALLDATASIZE DUP4 CALLDATACOPY ADD SWAP1 POP JUMPDEST POP DUP2 MSTORE PUSH1 0x40 DUP1 MLOAD PUSH1 0x1E DUP1 DUP3 MSTORE PUSH2 0x3E0 DUP3 ADD SWAP1 SWAP3 MSTORE PUSH1 0x20 SWAP3 DUP4 ADD SWAP3 SWAP1 SWAP2 SWAP1 DUP3 ADD PUSH2 0x3C0 DUP1 CALLDATASIZE DUP4 CALLDATACOPY POP POP POP SWAP1 MSTORE SWAP1 POP PUSH1 0x0 PUSH2 0x2874 DUP13 PUSH1 0x5 PUSH2 0x2090 JUMP JUMPDEST SWAP9 POP SWAP5 POP PUSH1 0x0 DUP6 PUSH1 0xE DUP2 GT ISZERO PUSH2 0x288C JUMPI PUSH2 0x288C PUSH2 0x3AFC JUMP JUMPDEST EQ PUSH2 0x28A4 JUMPI POP SWAP3 SWAP9 POP SWAP7 POP SWAP1 SWAP5 POP PUSH2 0x2D7A SWAP4 POP POP POP POP JUMP JUMPDEST PUSH2 0x28B0 PUSH2 0x101 DUP10 PUSH2 0x47EC JUMP JUMPDEST SWAP8 POP PUSH2 0x28BD DUP13 PUSH1 0x5 PUSH2 0x2090 JUMP JUMPDEST SWAP8 POP SWAP5 POP PUSH1 0x0 DUP6 PUSH1 0xE DUP2 GT ISZERO PUSH2 0x28D5 JUMPI PUSH2 0x28D5 PUSH2 0x3AFC JUMP JUMPDEST EQ PUSH2 0x28ED JUMPI POP SWAP3 SWAP9 POP SWAP7 POP SWAP1 SWAP5 POP PUSH2 0x2D7A SWAP4 POP POP POP POP JUMP JUMPDEST PUSH2 0x28F8 PUSH1 0x1 DUP9 PUSH2 0x47EC JUMP JUMPDEST SWAP7 POP PUSH2 0x11E DUP9 GT DUP1 PUSH2 0x290A JUMPI POP PUSH1 0x1E DUP8 GT JUMPDEST ISZERO PUSH2 0x2924 JUMPI POP PUSH1 0x5 SWAP10 POP SWAP1 SWAP8 POP SWAP6 POP PUSH2 0x2D7A SWAP5 POP POP POP POP POP JUMP JUMPDEST PUSH2 0x292D DUP13 PUSH2 0x35AC JUMP JUMPDEST SWAP1 SWAP6 POP SWAP4 POP PUSH1 0x0 DUP6 PUSH1 0xE DUP2 GT ISZERO PUSH2 0x2946 JUMPI PUSH2 0x2946 PUSH2 0x3AFC JUMP JUMPDEST EQ PUSH2 0x295E JUMPI POP SWAP3 SWAP9 POP SWAP7 POP SWAP1 SWAP5 POP PUSH2 0x2D7A SWAP4 POP POP POP POP JUMP JUMPDEST PUSH2 0x296C DUP4 DUP6 PUSH1 0x13 PUSH1 0x0 PUSH2 0x2400 JUMP JUMPDEST SWAP5 POP PUSH1 0x0 DUP6 PUSH1 0xE DUP2 GT ISZERO PUSH2 0x2982 JUMPI PUSH2 0x2982 PUSH2 0x3AFC JUMP JUMPDEST EQ PUSH2 0x299C JUMPI POP PUSH1 0x6 SWAP10 POP SWAP1 SWAP8 POP SWAP6 POP PUSH2 0x2D7A SWAP5 POP POP POP POP POP JUMP JUMPDEST PUSH1 0x0 SWAP6 POP JUMPDEST PUSH2 0x29AB DUP8 DUP10 PUSH2 0x47EC JUMP JUMPDEST DUP7 LT ISZERO PUSH2 0x2BA4 JUMPI PUSH1 0x0 DUP1 PUSH2 0x29BF DUP15 DUP7 PUSH2 0x37CE JUMP JUMPDEST SWAP1 SWAP8 POP SWAP2 POP PUSH1 0x0 DUP8 PUSH1 0xE DUP2 GT ISZERO PUSH2 0x29D8 JUMPI PUSH2 0x29D8 PUSH2 0x3AFC JUMP JUMPDEST EQ PUSH2 0x29F2 JUMPI POP SWAP5 SWAP11 POP SWAP2 SWAP9 POP SWAP7 POP PUSH2 0x2D7A SWAP6 POP POP POP POP POP POP JUMP JUMPDEST PUSH1 0x10 DUP3 LT ISZERO PUSH2 0x2A2A JUMPI DUP2 DUP7 DUP10 PUSH2 0x2A07 DUP2 PUSH2 0x4138 JUMP JUMPDEST SWAP11 POP DUP2 MLOAD DUP2 LT PUSH2 0x2A19 JUMPI PUSH2 0x2A19 PUSH2 0x406C JUMP JUMPDEST PUSH1 0x20 MUL PUSH1 0x20 ADD ADD DUP2 DUP2 MSTORE POP POP PUSH2 0x2B9D JUMP JUMPDEST POP PUSH1 0x0 PUSH1 0x10 DUP3 EQ ISZERO PUSH2 0x2AC9 JUMPI DUP8 PUSH2 0x2A53 JUMPI POP PUSH1 0x7 SWAP12 POP SWAP3 SWAP10 POP SWAP1 SWAP8 POP PUSH2 0x2D7A SWAP7 POP POP POP POP POP POP POP JUMP JUMPDEST DUP6 PUSH2 0x2A5F PUSH1 0x1 DUP11 PUSH2 0x4684 JUMP JUMPDEST DUP2 MLOAD DUP2 LT PUSH2 0x2A6F JUMPI PUSH2 0x2A6F PUSH2 0x406C JUMP JUMPDEST PUSH1 0x20 MUL PUSH1 0x20 ADD ADD MLOAD SWAP1 POP PUSH2 0x2A84 DUP15 PUSH1 0x2 PUSH2 0x2090 JUMP JUMPDEST SWAP1 SWAP8 POP SWAP3 POP PUSH1 0x0 DUP8 PUSH1 0xE DUP2 GT ISZERO PUSH2 0x2A9D JUMPI PUSH2 0x2A9D PUSH2 0x3AFC JUMP JUMPDEST EQ PUSH2 0x2AB7 JUMPI POP SWAP5 SWAP11 POP SWAP2 SWAP9 POP SWAP7 POP PUSH2 0x2D7A SWAP6 POP POP POP POP POP POP JUMP JUMPDEST PUSH2 0x2AC2 DUP4 PUSH1 0x3 PUSH2 0x47EC JUMP JUMPDEST SWAP2 POP PUSH2 0x2B29 JUMP JUMPDEST DUP2 PUSH1 0x11 EQ ISZERO PUSH2 0x2ADD JUMPI PUSH2 0x2A84 DUP15 PUSH1 0x3 PUSH2 0x2090 JUMP JUMPDEST PUSH2 0x2AE8 DUP15 PUSH1 0x7 PUSH2 0x2090 JUMP JUMPDEST SWAP1 SWAP8 POP SWAP3 POP PUSH1 0x0 DUP8 PUSH1 0xE DUP2 GT ISZERO PUSH2 0x2B01 JUMPI PUSH2 0x2B01 PUSH2 0x3AFC JUMP JUMPDEST EQ PUSH2 0x2B1B JUMPI POP SWAP5 SWAP11 POP SWAP2 SWAP9 POP SWAP7 POP PUSH2 0x2D7A SWAP6 POP POP POP POP POP POP JUMP JUMPDEST PUSH2 0x2B26 DUP4 PUSH1 0xB PUSH2 0x47EC JUMP JUMPDEST SWAP2 POP JUMPDEST PUSH2 0x2B33 DUP10 DUP12 PUSH2 0x47EC JUMP JUMPDEST PUSH2 0x2B3D DUP4 DUP11 PUSH2 0x47EC JUMP JUMPDEST GT ISZERO PUSH2 0x2B5B JUMPI POP PUSH1 0x8 SWAP12 POP SWAP3 SWAP10 POP SWAP1 SWAP8 POP PUSH2 0x2D7A SWAP7 POP POP POP POP POP POP POP JUMP JUMPDEST DUP2 ISZERO PUSH2 0x2B9D JUMPI PUSH2 0x2B6C PUSH1 0x1 DUP4 PUSH2 0x4684 JUMP JUMPDEST SWAP2 POP DUP1 DUP7 DUP10 PUSH2 0x2B7A DUP2 PUSH2 0x4138 JUMP JUMPDEST SWAP11 POP DUP2 MLOAD DUP2 LT PUSH2 0x2B8C JUMPI PUSH2 0x2B8C PUSH2 0x406C JUMP JUMPDEST PUSH1 0x20 MUL PUSH1 0x20 ADD ADD DUP2 DUP2 MSTORE POP POP PUSH2 0x2B5B JUMP JUMPDEST POP POP PUSH2 0x29A1 JUMP JUMPDEST DUP4 PUSH2 0x100 DUP2 MLOAD DUP2 LT PUSH2 0x2BB8 JUMPI PUSH2 0x2BB8 PUSH2 0x406C JUMP JUMPDEST PUSH1 0x20 MUL PUSH1 0x20 ADD ADD MLOAD PUSH1 0x0 EQ ISZERO PUSH2 0x2BDD JUMPI POP PUSH1 0xB SWAP10 POP SWAP1 SWAP8 POP SWAP6 POP PUSH2 0x2D7A SWAP5 POP POP POP POP POP JUMP JUMPDEST PUSH2 0x2BEA DUP4 DUP6 DUP11 PUSH1 0x0 PUSH2 0x2400 JUMP JUMPDEST SWAP5 POP PUSH1 0x0 DUP6 PUSH1 0xE DUP2 GT ISZERO PUSH2 0x2C00 JUMPI PUSH2 0x2C00 PUSH2 0x3AFC JUMP JUMPDEST EQ ISZERO DUP1 ISZERO PUSH2 0x2C8A JUMPI POP PUSH1 0x1 DUP6 PUSH1 0xE DUP2 GT ISZERO PUSH2 0x2C1D JUMPI PUSH2 0x2C1D PUSH2 0x3AFC JUMP JUMPDEST EQ DUP1 PUSH2 0x2C3A JUMPI POP PUSH1 0x2 DUP6 PUSH1 0xE DUP2 GT ISZERO PUSH2 0x2C38 JUMPI PUSH2 0x2C38 PUSH2 0x3AFC JUMP JUMPDEST EQ JUMPDEST DUP1 PUSH2 0x2C8A JUMPI POP DUP3 MLOAD DUP1 MLOAD PUSH1 0x1 SWAP1 DUP2 LT PUSH2 0x2C55 JUMPI PUSH2 0x2C55 PUSH2 0x406C JUMP JUMPDEST PUSH1 0x20 MUL PUSH1 0x20 ADD ADD MLOAD DUP4 PUSH1 0x0 ADD MLOAD PUSH1 0x0 DUP2 MLOAD DUP2 LT PUSH2 0x2C74 JUMPI PUSH2 0x2C74 PUSH2 0x406C JUMP JUMPDEST PUSH1 0x20 MUL PUSH1 0x20 ADD ADD MLOAD PUSH2 0x2C86 SWAP2 SWAP1 PUSH2 0x47EC JUMP JUMPDEST DUP9 EQ ISZERO JUMPDEST ISZERO PUSH2 0x2CA4 JUMPI POP PUSH1 0x9 SWAP10 POP SWAP1 SWAP8 POP SWAP6 POP PUSH2 0x2D7A SWAP5 POP POP POP POP POP JUMP JUMPDEST PUSH2 0x2CB0 DUP3 DUP6 DUP10 DUP12 PUSH2 0x2400 JUMP JUMPDEST SWAP5 POP PUSH1 0x0 DUP6 PUSH1 0xE DUP2 GT ISZERO PUSH2 0x2CC6 JUMPI PUSH2 0x2CC6 PUSH2 0x3AFC JUMP JUMPDEST EQ ISZERO DUP1 ISZERO PUSH2 0x2D50 JUMPI POP PUSH1 0x1 DUP6 PUSH1 0xE DUP2 GT ISZERO PUSH2 0x2CE3 JUMPI PUSH2 0x2CE3 PUSH2 0x3AFC JUMP JUMPDEST EQ DUP1 PUSH2 0x2D00 JUMPI POP PUSH1 0x2 DUP6 PUSH1 0xE DUP2 GT ISZERO PUSH2 0x2CFE JUMPI PUSH2 0x2CFE PUSH2 0x3AFC JUMP JUMPDEST EQ JUMPDEST DUP1 PUSH2 0x2D50 JUMPI POP DUP2 MLOAD DUP1 MLOAD PUSH1 0x1 SWAP1 DUP2 LT PUSH2 0x2D1B JUMPI PUSH2 0x2D1B PUSH2 0x406C JUMP JUMPDEST PUSH1 0x20 MUL PUSH1 0x20 ADD ADD MLOAD DUP3 PUSH1 0x0 ADD MLOAD PUSH1 0x0 DUP2 MLOAD DUP2 LT PUSH2 0x2D3A JUMPI PUSH2 0x2D3A PUSH2 0x406C JUMP JUMPDEST PUSH1 0x20 MUL PUSH1 0x20 ADD ADD MLOAD PUSH2 0x2D4C SWAP2 SWAP1 PUSH2 0x47EC JUMP JUMPDEST DUP8 EQ ISZERO JUMPDEST ISZERO PUSH2 0x2D6A JUMPI POP PUSH1 0xA SWAP10 POP SWAP1 SWAP8 POP SWAP6 POP PUSH2 0x2D7A SWAP5 POP POP POP POP POP JUMP JUMPDEST POP PUSH1 0x0 SWAP10 POP SWAP1 SWAP8 POP SWAP6 POP POP POP POP POP POP JUMPDEST SWAP2 SWAP4 SWAP1 SWAP3 POP JUMP JUMPDEST PUSH1 0x0 DUP1 PUSH1 0x0 DUP1 PUSH1 0x0 PUSH1 0x40 MLOAD DUP1 PUSH2 0x3A0 ADD PUSH1 0x40 MSTORE DUP1 PUSH1 0x3 PUSH2 0xFFFF AND DUP2 MSTORE PUSH1 0x20 ADD PUSH1 0x4 PUSH2 0xFFFF AND DUP2 MSTORE PUSH1 0x20 ADD PUSH1 0x5 PUSH2 0xFFFF AND DUP2 MSTORE PUSH1 0x20 ADD PUSH1 0x6 PUSH2 0xFFFF AND DUP2 MSTORE PUSH1 0x20 ADD PUSH1 0x7 PUSH2 0xFFFF AND DUP2 MSTORE PUSH1 0x20 ADD PUSH1 0x8 PUSH2 0xFFFF AND DUP2 MSTORE PUSH1 0x20 ADD PUSH1 0x9 PUSH2 0xFFFF AND DUP2 MSTORE PUSH1 0x20 ADD PUSH1 0xA PUSH2 0xFFFF AND DUP2 MSTORE PUSH1 0x20 ADD PUSH1 0xB PUSH2 0xFFFF AND DUP2 MSTORE PUSH1 0x20 ADD PUSH1 0xD PUSH2 0xFFFF AND DUP2 MSTORE PUSH1 0x20 ADD PUSH1 0xF PUSH2 0xFFFF AND DUP2 MSTORE PUSH1 0x20 ADD PUSH1 0x11 PUSH2 0xFFFF AND DUP2 MSTORE PUSH1 0x20 ADD PUSH1 0x13 PUSH2 0xFFFF AND DUP2 MSTORE PUSH1 0x20 ADD PUSH1 0x17 PUSH2 0xFFFF AND DUP2 MSTORE PUSH1 0x20 ADD PUSH1 0x1B PUSH2 0xFFFF AND DUP2 MSTORE PUSH1 0x20 ADD PUSH1 0x1F PUSH2 0xFFFF AND DUP2 MSTORE PUSH1 0x20 ADD PUSH1 0x23 PUSH2 0xFFFF AND DUP2 MSTORE PUSH1 0x20 ADD PUSH1 0x2B PUSH2 0xFFFF AND DUP2 MSTORE PUSH1 0x20 ADD PUSH1 0x33 PUSH2 0xFFFF AND DUP2 MSTORE PUSH1 0x20 ADD PUSH1 0x3B PUSH2 0xFFFF AND DUP2 MSTORE PUSH1 0x20 ADD PUSH1 0x43 PUSH2 0xFFFF AND DUP2 MSTORE PUSH1 0x20 ADD PUSH1 0x53 PUSH2 0xFFFF AND DUP2 MSTORE PUSH1 0x20 ADD PUSH1 0x63 PUSH2 0xFFFF AND DUP2 MSTORE PUSH1 0x20 ADD PUSH1 0x73 PUSH2 0xFFFF AND DUP2 MSTORE PUSH1 0x20 ADD PUSH1 0x83 PUSH2 0xFFFF AND DUP2 MSTORE PUSH1 0x20 ADD PUSH1 0xA3 PUSH2 0xFFFF AND DUP2 MSTORE PUSH1 0x20 ADD PUSH1 0xC3 PUSH2 0xFFFF AND DUP2 MSTORE PUSH1 0x20 ADD PUSH1 0xE3 PUSH2 0xFFFF AND DUP2 MSTORE PUSH1 0x20 ADD PUSH2 0x102 PUSH2 0xFFFF AND DUP2 MSTORE POP SWAP1 POP PUSH1 0x0 PUSH1 0x40 MLOAD DUP1 PUSH2 0x3A0 ADD PUSH1 0x40 MSTORE DUP1 PUSH1 0x0 PUSH1 0xFF AND DUP2 MSTORE PUSH1 0x20 ADD PUSH1 0x0 PUSH1 0xFF AND DUP2 MSTORE PUSH1 0x20 ADD PUSH1 0x0 PUSH1 0xFF AND DUP2 MSTORE PUSH1 0x20 ADD PUSH1 0x0 PUSH1 0xFF AND DUP2 MSTORE PUSH1 0x20 ADD PUSH1 0x0 PUSH1 0xFF AND DUP2 MSTORE PUSH1 0x20 ADD PUSH1 0x0 PUSH1 0xFF AND DUP2 MSTORE PUSH1 0x20 ADD PUSH1 0x0 PUSH1 0xFF AND DUP2 MSTORE PUSH1 0x20 ADD PUSH1 0x0 PUSH1 0xFF AND DUP2 MSTORE PUSH1 0x20 ADD PUSH1 0x1 PUSH1 0xFF AND DUP2 MSTORE PUSH1 0x20 ADD PUSH1 0x1 PUSH1 0xFF AND DUP2 MSTORE PUSH1 0x20 ADD PUSH1 0x1 PUSH1 0xFF AND DUP2 MSTORE PUSH1 0x20 ADD PUSH1 0x1 PUSH1 0xFF AND DUP2 MSTORE PUSH1 0x20 ADD PUSH1 0x2 PUSH1 0xFF AND DUP2 MSTORE PUSH1 0x20 ADD PUSH1 0x2 PUSH1 0xFF AND DUP2 MSTORE PUSH1 0x20 ADD PUSH1 0x2 PUSH1 0xFF AND DUP2 MSTORE PUSH1 0x20 ADD PUSH1 0x2 PUSH1 0xFF AND DUP2 MSTORE PUSH1 0x20 ADD PUSH1 0x3 PUSH1 0xFF AND DUP2 MSTORE PUSH1 0x20 ADD PUSH1 0x3 PUSH1 0xFF AND DUP2 MSTORE PUSH1 0x20 ADD PUSH1 0x3 PUSH1 0xFF AND DUP2 MSTORE PUSH1 0x20 ADD PUSH1 0x3 PUSH1 0xFF AND DUP2 MSTORE PUSH1 0x20 ADD PUSH1 0x4 PUSH1 0xFF AND DUP2 MSTORE PUSH1 0x20 ADD PUSH1 0x4 PUSH1 0xFF AND DUP2 MSTORE PUSH1 0x20 ADD PUSH1 0x4 PUSH1 0xFF AND DUP2 MSTORE PUSH1 0x20 ADD PUSH1 0x4 PUSH1 0xFF AND DUP2 MSTORE PUSH1 0x20 ADD PUSH1 0x5 PUSH1 0xFF AND DUP2 MSTORE PUSH1 0x20 ADD PUSH1 0x5 PUSH1 0xFF AND DUP2 MSTORE PUSH1 0x20 ADD PUSH1 0x5 PUSH1 0xFF AND DUP2 MSTORE PUSH1 0x20 ADD PUSH1 0x5 PUSH1 0xFF AND DUP2 MSTORE PUSH1 0x20 ADD PUSH1 0x0 PUSH1 0xFF AND DUP2 MSTORE POP SWAP1 POP PUSH1 0x0 PUSH1 0x40 MLOAD DUP1 PUSH2 0x3C0 ADD PUSH1 0x40 MSTORE DUP1 PUSH1 0x1 PUSH2 0xFFFF AND DUP2 MSTORE PUSH1 0x20 ADD PUSH1 0x2 PUSH2 0xFFFF AND DUP2 MSTORE PUSH1 0x20 ADD PUSH1 0x3 PUSH2 0xFFFF AND DUP2 MSTORE PUSH1 0x20 ADD PUSH1 0x4 PUSH2 0xFFFF AND DUP2 MSTORE PUSH1 0x20 ADD PUSH1 0x5 PUSH2 0xFFFF AND DUP2 MSTORE PUSH1 0x20 ADD PUSH1 0x7 PUSH2 0xFFFF AND DUP2 MSTORE PUSH1 0x20 ADD PUSH1 0x9 PUSH2 0xFFFF AND DUP2 MSTORE PUSH1 0x20 ADD PUSH1 0xD PUSH2 0xFFFF AND DUP2 MSTORE PUSH1 0x20 ADD PUSH1 0x11 PUSH2 0xFFFF AND DUP2 MSTORE PUSH1 0x20 ADD PUSH1 0x19 PUSH2 0xFFFF AND DUP2 MSTORE PUSH1 0x20 ADD PUSH1 0x21 PUSH2 0xFFFF AND DUP2 MSTORE PUSH1 0x20 ADD PUSH1 0x31 PUSH2 0xFFFF AND DUP2 MSTORE PUSH1 0x20 ADD PUSH1 0x41 PUSH2 0xFFFF AND DUP2 MSTORE PUSH1 0x20 ADD PUSH1 0x61 PUSH2 0xFFFF AND DUP2 MSTORE PUSH1 0x20 ADD PUSH1 0x81 PUSH2 0xFFFF AND DUP2 MSTORE PUSH1 0x20 ADD PUSH1 0xC1 PUSH2 0xFFFF AND DUP2 MSTORE PUSH1 0x20 ADD PUSH2 0x101 PUSH2 0xFFFF AND DUP2 MSTORE PUSH1 0x20 ADD PUSH2 0x181 PUSH2 0xFFFF AND DUP2 MSTORE PUSH1 0x20 ADD PUSH2 0x201 PUSH2 0xFFFF AND DUP2 MSTORE PUSH1 0x20 ADD PUSH2 0x301 PUSH2 0xFFFF AND DUP2 MSTORE PUSH1 0x20 ADD PUSH2 0x401 PUSH2 0xFFFF AND DUP2 MSTORE PUSH1 0x20 ADD PUSH2 0x601 PUSH2 0xFFFF AND DUP2 MSTORE PUSH1 0x20 ADD PUSH2 0x801 PUSH2 0xFFFF AND DUP2 MSTORE PUSH1 0x20 ADD PUSH2 0xC01 PUSH2 0xFFFF AND DUP2 MSTORE PUSH1 0x20 ADD PUSH2 0x1001 PUSH2 0xFFFF AND DUP2 MSTORE PUSH1 0x20 ADD PUSH2 0x1801 PUSH2 0xFFFF AND DUP2 MSTORE PUSH1 0x20 ADD PUSH2 0x2001 PUSH2 0xFFFF AND DUP2 MSTORE PUSH1 0x20 ADD PUSH2 0x3001 PUSH2 0xFFFF AND DUP2 MSTORE PUSH1 0x20 ADD PUSH2 0x4001 PUSH2 0xFFFF AND DUP2 MSTORE PUSH1 0x20 ADD PUSH2 0x6001 PUSH2 0xFFFF AND DUP2 MSTORE POP SWAP1 POP PUSH1 0x0 PUSH1 0x40 MLOAD DUP1 PUSH2 0x3C0 ADD PUSH1 0x40 MSTORE DUP1 PUSH1 0x0 PUSH1 0xFF AND DUP2 MSTORE PUSH1 0x20 ADD PUSH1 0x0 PUSH1 0xFF AND DUP2 MSTORE PUSH1 0x20 ADD PUSH1 0x0 PUSH1 0xFF AND DUP2 MSTORE PUSH1 0x20 ADD PUSH1 0x0 PUSH1 0xFF AND DUP2 MSTORE PUSH1 0x20 ADD PUSH1 0x1 PUSH1 0xFF AND DUP2 MSTORE PUSH1 0x20 ADD PUSH1 0x1 PUSH1 0xFF AND DUP2 MSTORE PUSH1 0x20 ADD PUSH1 0x2 PUSH1 0xFF AND DUP2 MSTORE PUSH1 0x20 ADD PUSH1 0x2 PUSH1 0xFF AND DUP2 MSTORE PUSH1 0x20 ADD PUSH1 0x3 PUSH1 0xFF AND DUP2 MSTORE PUSH1 0x20 ADD PUSH1 0x3 PUSH1 0xFF AND DUP2 MSTORE PUSH1 0x20 ADD PUSH1 0x4 PUSH1 0xFF AND DUP2 MSTORE PUSH1 0x20 ADD PUSH1 0x4 PUSH1 0xFF AND DUP2 MSTORE PUSH1 0x20 ADD PUSH1 0x5 PUSH1 0xFF AND DUP2 MSTORE PUSH1 0x20 ADD PUSH1 0x5 PUSH1 0xFF AND DUP2 MSTORE PUSH1 0x20 ADD PUSH1 0x6 PUSH1 0xFF AND DUP2 MSTORE PUSH1 0x20 ADD PUSH1 0x6 PUSH1 0xFF AND DUP2 MSTORE PUSH1 0x20 ADD PUSH1 0x7 PUSH1 0xFF AND DUP2 MSTORE PUSH1 0x20 ADD PUSH1 0x7 PUSH1 0xFF AND DUP2 MSTORE PUSH1 0x20 ADD PUSH1 0x8 PUSH1 0xFF AND DUP2 MSTORE PUSH1 0x20 ADD PUSH1 0x8 PUSH1 0xFF AND DUP2 MSTORE PUSH1 0x20 ADD PUSH1 0x9 PUSH1 0xFF AND DUP2 MSTORE PUSH1 0x20 ADD PUSH1 0x9 PUSH1 0xFF AND DUP2 MSTORE PUSH1 0x20 ADD PUSH1 0xA PUSH1 0xFF AND DUP2 MSTORE PUSH1 0x20 ADD PUSH1 0xA PUSH1 0xFF AND DUP2 MSTORE PUSH1 0x20 ADD PUSH1 0xB PUSH1 0xFF AND DUP2 MSTORE PUSH1 0x20 ADD PUSH1 0xB PUSH1 0xFF AND DUP2 MSTORE PUSH1 0x20 ADD PUSH1 0xC PUSH1 0xFF AND DUP2 MSTORE PUSH1 0x20 ADD PUSH1 0xC PUSH1 0xFF AND DUP2 MSTORE PUSH1 0x20 ADD PUSH1 0xD PUSH1 0xFF AND DUP2 MSTORE PUSH1 0x20 ADD PUSH1 0xD PUSH1 0xFF AND DUP2 MSTORE POP SWAP1 POP PUSH1 0x0 JUMPDEST DUP8 PUSH2 0x100 EQ PUSH2 0x359A JUMPI PUSH2 0x32BB DUP13 DUP13 PUSH2 0x37CE JUMP JUMPDEST SWAP9 POP SWAP1 POP PUSH1 0x0 DUP2 PUSH1 0xE DUP2 GT ISZERO PUSH2 0x32D3 JUMPI PUSH2 0x32D3 PUSH2 0x3AFC JUMP JUMPDEST EQ PUSH2 0x32E7 JUMPI SWAP8 POP PUSH2 0x17CA SWAP7 POP POP POP POP POP POP POP JUMP JUMPDEST PUSH2 0x100 DUP9 LT ISZERO PUSH2 0x335D JUMPI DUP12 MLOAD MLOAD PUSH1 0x20 DUP14 ADD MLOAD EQ ISZERO PUSH2 0x3310 JUMPI PUSH1 0x2 SWAP9 POP POP POP POP POP POP POP POP POP PUSH2 0x17CA JUMP JUMPDEST DUP8 PUSH1 0xF8 SHL DUP13 PUSH1 0x0 ADD MLOAD DUP14 PUSH1 0x20 ADD MLOAD DUP2 MLOAD DUP2 LT PUSH2 0x332E JUMPI PUSH2 0x332E PUSH2 0x406C JUMP JUMPDEST PUSH1 0x20 ADD ADD SWAP1 PUSH1 0x1 PUSH1 0x1 PUSH1 0xF8 SHL SUB NOT AND SWAP1 DUP2 PUSH1 0x0 BYTE SWAP1 MSTORE8 POP PUSH1 0x20 DUP13 ADD DUP1 MLOAD SWAP1 PUSH2 0x3355 DUP3 PUSH2 0x4138 JUMP JUMPDEST SWAP1 MSTORE POP PUSH2 0x32A8 JUMP JUMPDEST PUSH2 0x100 DUP9 GT ISZERO PUSH2 0x3588 JUMPI PUSH1 0x0 PUSH2 0x3375 PUSH2 0x101 DUP11 PUSH2 0x4684 JUMP JUMPDEST SWAP9 POP PUSH1 0x1D DUP10 LT PUSH2 0x3391 JUMPI PUSH1 0xC SWAP10 POP POP POP POP POP POP POP POP POP POP PUSH2 0x17CA JUMP JUMPDEST PUSH2 0x33B4 DUP14 DUP7 DUP12 PUSH1 0x1D DUP2 LT PUSH2 0x33A7 JUMPI PUSH2 0x33A7 PUSH2 0x406C JUMP JUMPDEST PUSH1 0x20 MUL ADD MLOAD PUSH1 0xFF AND PUSH2 0x2090 JUMP JUMPDEST SWAP1 SWAP3 POP SWAP1 POP PUSH1 0x0 DUP3 PUSH1 0xE DUP2 GT ISZERO PUSH2 0x33CD JUMPI PUSH2 0x33CD PUSH2 0x3AFC JUMP JUMPDEST EQ PUSH2 0x33E2 JUMPI POP SWAP8 POP PUSH2 0x17CA SWAP7 POP POP POP POP POP POP POP JUMP JUMPDEST DUP1 DUP7 DUP11 PUSH1 0x1D DUP2 LT PUSH2 0x33F5 JUMPI PUSH2 0x33F5 PUSH2 0x406C JUMP JUMPDEST PUSH1 0x20 MUL ADD MLOAD PUSH2 0xFFFF AND PUSH2 0x3408 SWAP2 SWAP1 PUSH2 0x47EC JUMP JUMPDEST SWAP8 POP PUSH2 0x3414 DUP14 DUP13 PUSH2 0x37CE JUMP JUMPDEST SWAP10 POP SWAP2 POP PUSH1 0x0 DUP3 PUSH1 0xE DUP2 GT ISZERO PUSH2 0x342C JUMPI PUSH2 0x342C PUSH2 0x3AFC JUMP JUMPDEST EQ PUSH2 0x3441 JUMPI POP SWAP8 POP PUSH2 0x17CA SWAP7 POP POP POP POP POP POP POP JUMP JUMPDEST PUSH2 0x3457 DUP14 DUP5 DUP12 PUSH1 0x1E DUP2 LT PUSH2 0x33A7 JUMPI PUSH2 0x33A7 PUSH2 0x406C JUMP JUMPDEST SWAP1 SWAP3 POP SWAP1 POP PUSH1 0x0 DUP3 PUSH1 0xE DUP2 GT ISZERO PUSH2 0x3470 JUMPI PUSH2 0x3470 PUSH2 0x3AFC JUMP JUMPDEST EQ PUSH2 0x3485 JUMPI POP SWAP8 POP PUSH2 0x17CA SWAP7 POP POP POP POP POP POP POP JUMP JUMPDEST DUP1 DUP5 DUP11 PUSH1 0x1E DUP2 LT PUSH2 0x3498 JUMPI PUSH2 0x3498 PUSH2 0x406C JUMP JUMPDEST PUSH1 0x20 MUL ADD MLOAD PUSH2 0xFFFF AND PUSH2 0x34AB SWAP2 SWAP1 PUSH2 0x47EC JUMP JUMPDEST SWAP7 POP DUP13 PUSH1 0x20 ADD MLOAD DUP8 GT ISZERO PUSH2 0x34CB JUMPI PUSH1 0xD SWAP10 POP POP POP POP POP POP POP POP POP POP PUSH2 0x17CA JUMP JUMPDEST DUP13 MLOAD MLOAD PUSH1 0x20 DUP15 ADD MLOAD PUSH2 0x34DE SWAP1 DUP11 SWAP1 PUSH2 0x47EC JUMP JUMPDEST GT ISZERO PUSH2 0x34F6 JUMPI PUSH1 0x2 SWAP10 POP POP POP POP POP POP POP POP POP POP PUSH2 0x17CA JUMP JUMPDEST DUP8 ISZERO PUSH2 0x3582 JUMPI PUSH2 0x3507 PUSH1 0x1 DUP10 PUSH2 0x4684 JUMP JUMPDEST SWAP8 POP DUP13 PUSH1 0x0 ADD MLOAD DUP8 DUP15 PUSH1 0x20 ADD MLOAD PUSH2 0x351E SWAP2 SWAP1 PUSH2 0x4684 JUMP JUMPDEST DUP2 MLOAD DUP2 LT PUSH2 0x352E JUMPI PUSH2 0x352E PUSH2 0x406C JUMP JUMPDEST PUSH1 0x20 ADD ADD MLOAD PUSH1 0xF8 SHR PUSH1 0xF8 SHL DUP14 PUSH1 0x0 ADD MLOAD DUP15 PUSH1 0x20 ADD MLOAD DUP2 MLOAD DUP2 LT PUSH2 0x3553 JUMPI PUSH2 0x3553 PUSH2 0x406C JUMP JUMPDEST PUSH1 0x20 ADD ADD SWAP1 PUSH1 0x1 PUSH1 0x1 PUSH1 0xF8 SHL SUB NOT AND SWAP1 DUP2 PUSH1 0x0 BYTE SWAP1 MSTORE8 POP PUSH1 0x20 DUP14 ADD DUP1 MLOAD SWAP1 PUSH2 0x357A DUP3 PUSH2 0x4138 JUMP JUMPDEST SWAP1 MSTORE POP PUSH2 0x34F6 JUMP JUMPDEST POP PUSH2 0x32A8 JUMP JUMPDEST DUP7 DUP13 PUSH1 0x20 ADD DUP2 DUP2 MLOAD PUSH2 0x3355 SWAP2 SWAP1 PUSH2 0x47EC JUMP JUMPDEST POP PUSH1 0x0 SWAP12 SWAP11 POP POP POP POP POP POP POP POP POP POP POP JUMP JUMPDEST PUSH1 0x0 PUSH1 0x60 DUP2 DUP1 DUP1 PUSH2 0x35C0 PUSH1 0x1E PUSH2 0x11E PUSH2 0x47EC JUMP JUMPDEST PUSH1 0x1 PUSH1 0x1 PUSH1 0x40 SHL SUB DUP2 GT ISZERO PUSH2 0x35D7 JUMPI PUSH2 0x35D7 PUSH2 0x39C5 JUMP JUMPDEST PUSH1 0x40 MLOAD SWAP1 DUP1 DUP3 MSTORE DUP1 PUSH1 0x20 MUL PUSH1 0x20 ADD DUP3 ADD PUSH1 0x40 MSTORE DUP1 ISZERO PUSH2 0x3600 JUMPI DUP2 PUSH1 0x20 ADD PUSH1 0x20 DUP3 MUL DUP1 CALLDATASIZE DUP4 CALLDATACOPY ADD SWAP1 POP JUMPDEST POP PUSH1 0x40 DUP1 MLOAD PUSH2 0x260 DUP2 ADD DUP3 MSTORE PUSH1 0x10 DUP2 MSTORE PUSH1 0x11 PUSH1 0x20 DUP3 ADD MSTORE PUSH1 0x12 SWAP2 DUP2 ADD SWAP2 SWAP1 SWAP2 MSTORE PUSH1 0x0 PUSH1 0x60 DUP3 ADD DUP2 SWAP1 MSTORE PUSH1 0x8 PUSH1 0x80 DUP4 ADD MSTORE PUSH1 0x7 PUSH1 0xA0 DUP4 ADD MSTORE PUSH1 0x9 PUSH1 0xC0 DUP4 ADD MSTORE PUSH1 0x6 PUSH1 0xE0 DUP4 ADD MSTORE PUSH1 0xA PUSH2 0x100 DUP4 ADD MSTORE PUSH1 0x5 PUSH2 0x120 DUP4 ADD MSTORE PUSH1 0xB PUSH2 0x140 DUP4 ADD MSTORE PUSH1 0x4 PUSH2 0x160 DUP4 ADD DUP2 SWAP1 MSTORE PUSH1 0xC PUSH2 0x180 DUP5 ADD MSTORE PUSH1 0x3 PUSH2 0x1A0 DUP5 ADD MSTORE PUSH1 0xD PUSH2 0x1C0 DUP5 ADD MSTORE PUSH1 0x2 PUSH2 0x1E0 DUP5 ADD MSTORE PUSH1 0xE PUSH2 0x200 DUP5 ADD MSTORE PUSH1 0x1 PUSH2 0x220 DUP5 ADD MSTORE PUSH1 0xF PUSH2 0x240 DUP5 ADD MSTORE SWAP3 SWAP4 POP SWAP2 PUSH2 0x36AE SWAP1 DUP10 SWAP1 PUSH2 0x2090 JUMP JUMPDEST SWAP6 POP SWAP2 POP PUSH1 0x0 DUP3 PUSH1 0xE DUP2 GT ISZERO PUSH2 0x36C6 JUMPI PUSH2 0x36C6 PUSH2 0x3AFC JUMP JUMPDEST EQ PUSH2 0x36D7 JUMPI POP SWAP7 SWAP1 SWAP6 POP SWAP4 POP POP POP POP JUMP JUMPDEST PUSH2 0x36E2 PUSH1 0x4 DUP7 PUSH2 0x47EC JUMP JUMPDEST SWAP5 POP PUSH1 0x0 SWAP4 POP JUMPDEST DUP5 DUP5 LT ISZERO PUSH2 0x376B JUMPI PUSH2 0x36FC DUP9 PUSH1 0x3 PUSH2 0x2090 JUMP JUMPDEST DUP5 DUP4 DUP8 PUSH1 0x13 DUP2 LT PUSH2 0x370F JUMPI PUSH2 0x370F PUSH2 0x406C JUMP JUMPDEST PUSH1 0x20 MUL ADD MLOAD PUSH1 0xFF AND DUP2 MLOAD DUP2 LT PUSH2 0x3727 JUMPI PUSH2 0x3727 PUSH2 0x406C JUMP JUMPDEST PUSH1 0x20 SWAP1 DUP2 MUL SWAP2 SWAP1 SWAP2 ADD ADD MSTORE SWAP2 POP PUSH1 0x0 DUP3 PUSH1 0xE DUP2 GT ISZERO PUSH2 0x3748 JUMPI PUSH2 0x3748 PUSH2 0x3AFC JUMP JUMPDEST EQ PUSH2 0x3759 JUMPI POP SWAP7 SWAP1 SWAP6 POP SWAP4 POP POP POP POP JUMP JUMPDEST DUP4 PUSH2 0x3763 DUP2 PUSH2 0x4138 JUMP JUMPDEST SWAP5 POP POP PUSH2 0x36E9 JUMP JUMPDEST PUSH1 0x13 DUP5 LT ISZERO PUSH2 0x37BE JUMPI PUSH1 0x0 DUP4 DUP3 DUP7 PUSH1 0x13 DUP2 LT PUSH2 0x3789 JUMPI PUSH2 0x3789 PUSH2 0x406C JUMP JUMPDEST PUSH1 0x20 MUL ADD MLOAD PUSH1 0xFF AND DUP2 MLOAD DUP2 LT PUSH2 0x37A1 JUMPI PUSH2 0x37A1 PUSH2 0x406C JUMP JUMPDEST PUSH1 0x20 SWAP1 DUP2 MUL SWAP2 SWAP1 SWAP2 ADD ADD MSTORE DUP4 PUSH2 0x37B6 DUP2 PUSH2 0x4138 JUMP JUMPDEST SWAP5 POP POP PUSH2 0x376B JUMP JUMPDEST POP PUSH1 0x0 SWAP8 SWAP2 SWAP7 POP SWAP1 SWAP5 POP POP POP POP POP JUMP JUMPDEST PUSH1 0x0 DUP1 PUSH1 0x1 DUP2 DUP1 DUP1 DUP1 DUP1 JUMPDEST PUSH1 0xF DUP7 GT PUSH2 0x38CA JUMPI PUSH1 0x0 PUSH2 0x37EE DUP12 PUSH1 0x1 PUSH2 0x2090 JUMP JUMPDEST SWAP1 SWAP3 POP SWAP1 POP PUSH1 0x0 DUP3 PUSH1 0xE DUP2 GT ISZERO PUSH2 0x3807 JUMPI PUSH2 0x3807 PUSH2 0x3AFC JUMP JUMPDEST EQ PUSH2 0x381E JUMPI POP SWAP7 POP PUSH1 0x0 SWAP6 POP PUSH2 0x1ECF SWAP5 POP POP POP POP POP JUMP JUMPDEST DUP10 MLOAD DUP1 MLOAD SWAP7 DUP3 OR SWAP7 DUP9 SWAP1 DUP2 LT PUSH2 0x3836 JUMPI PUSH2 0x3836 PUSH2 0x406C JUMP JUMPDEST PUSH1 0x20 MUL PUSH1 0x20 ADD ADD MLOAD SWAP4 POP DUP4 DUP6 PUSH2 0x384C SWAP2 SWAP1 PUSH2 0x47EC JUMP JUMPDEST DUP7 LT ISZERO PUSH2 0x3897 JUMPI PUSH1 0x20 DUP11 ADD MLOAD PUSH1 0x0 SWAP1 PUSH2 0x3865 DUP8 DUP10 PUSH2 0x4684 JUMP JUMPDEST PUSH2 0x386F SWAP1 DUP7 PUSH2 0x47EC JUMP JUMPDEST DUP2 MLOAD DUP2 LT PUSH2 0x387F JUMPI PUSH2 0x387F PUSH2 0x406C JUMP JUMPDEST PUSH1 0x20 MUL PUSH1 0x20 ADD ADD MLOAD SWAP9 POP SWAP9 POP POP POP POP POP POP POP POP PUSH2 0x1ECF JUMP JUMPDEST PUSH2 0x38A1 DUP5 DUP5 PUSH2 0x47EC JUMP JUMPDEST SWAP3 POP PUSH2 0x38AD DUP5 DUP7 PUSH2 0x47EC JUMP JUMPDEST PUSH1 0x1 SWAP7 DUP8 SHL SWAP7 SHL SWAP5 POP DUP7 SWAP1 POP PUSH2 0x38C2 DUP2 PUSH2 0x4138 JUMP JUMPDEST SWAP7 POP POP PUSH2 0x37D9 JUMP JUMPDEST POP PUSH1 0xC SWAP10 PUSH1 0x0 SWAP10 POP SWAP8 POP POP POP POP POP POP POP POP JUMP JUMPDEST PUSH1 0x40 MLOAD DUP1 PUSH2 0x200 ADD PUSH1 0x40 MSTORE DUP1 PUSH1 0x10 SWAP1 PUSH1 0x20 DUP3 MUL DUP1 CALLDATASIZE DUP4 CALLDATACOPY POP SWAP2 SWAP3 SWAP2 POP POP JUMP JUMPDEST PUSH1 0x1 PUSH1 0x1 PUSH1 0xA0 SHL SUB DUP2 AND DUP2 EQ PUSH2 0x2F9 JUMPI PUSH1 0x0 DUP1 REVERT JUMPDEST PUSH1 0x0 PUSH1 0x20 DUP3 DUP5 SUB SLT ISZERO PUSH2 0x3923 JUMPI PUSH1 0x0 DUP1 REVERT JUMPDEST DUP2 CALLDATALOAD PUSH2 0x17CA DUP2 PUSH2 0x38FC JUMP JUMPDEST PUSH1 0x0 DUP1 PUSH1 0x0 PUSH1 0x60 DUP5 DUP7 SUB SLT ISZERO PUSH2 0x3943 JUMPI PUSH1 0x0 DUP1 REVERT JUMPDEST POP POP DUP2 CALLDATALOAD SWAP4 PUSH1 0x20 DUP4 ADD CALLDATALOAD SWAP4 POP PUSH1 0x40 SWAP1 SWAP3 ADD CALLDATALOAD SWAP2 SWAP1 POP JUMP JUMPDEST PUSH1 0x0 JUMPDEST DUP4 DUP2 LT ISZERO PUSH2 0x3975 JUMPI DUP2 DUP2 ADD MLOAD DUP4 DUP3 ADD MSTORE PUSH1 0x20 ADD PUSH2 0x395D JUMP JUMPDEST DUP4 DUP2 GT ISZERO PUSH2 0x1002 JUMPI POP POP PUSH1 0x0 SWAP2 ADD MSTORE JUMP JUMPDEST PUSH1 0x0 DUP2 MLOAD DUP1 DUP5 MSTORE PUSH2 0x399E DUP2 PUSH1 0x20 DUP7 ADD PUSH1 0x20 DUP7 ADD PUSH2 0x395A JUMP JUMPDEST PUSH1 0x1F ADD PUSH1 0x1F NOT AND SWAP3 SWAP1 SWAP3 ADD PUSH1 0x20 ADD SWAP3 SWAP2 POP POP JUMP JUMPDEST PUSH1 0x20 DUP2 MSTORE PUSH1 0x0 PUSH2 0x17CA PUSH1 0x20 DUP4 ADD DUP5 PUSH2 0x3986 JUMP JUMPDEST PUSH4 0x4E487B71 PUSH1 0xE0 SHL PUSH1 0x0 MSTORE PUSH1 0x41 PUSH1 0x4 MSTORE PUSH1 0x24 PUSH1 0x0 REVERT JUMPDEST PUSH1 0x40 MLOAD PUSH1 0xA0 DUP2 ADD PUSH1 0x1 PUSH1 0x1 PUSH1 0x40 SHL SUB DUP2 GT DUP3 DUP3 LT OR ISZERO PUSH2 0x39FD JUMPI PUSH2 0x39FD PUSH2 0x39C5 JUMP JUMPDEST PUSH1 0x40 MSTORE SWAP1 JUMP JUMPDEST PUSH1 0x40 MLOAD PUSH2 0x260 DUP2 ADD PUSH1 0x1 PUSH1 0x1 PUSH1 0x40 SHL SUB DUP2 GT DUP3 DUP3 LT OR ISZERO PUSH2 0x39FD JUMPI PUSH2 0x39FD PUSH2 0x39C5 JUMP JUMPDEST PUSH1 0x40 MLOAD PUSH1 0x1F DUP3 ADD PUSH1 0x1F NOT AND DUP2 ADD PUSH1 0x1 PUSH1 0x1 PUSH1 0x40 SHL SUB DUP2 GT DUP3 DUP3 LT OR ISZERO PUSH2 0x3A4E JUMPI PUSH2 0x3A4E PUSH2 0x39C5 JUMP JUMPDEST PUSH1 0x40 MSTORE SWAP2 SWAP1 POP JUMP JUMPDEST PUSH1 0x0 PUSH1 0x1 PUSH1 0x1 PUSH1 0x40 SHL SUB DUP3 GT ISZERO PUSH2 0x3A6F JUMPI PUSH2 0x3A6F PUSH2 0x39C5 JUMP JUMPDEST POP PUSH1 0x1F ADD PUSH1 0x1F NOT AND PUSH1 0x20 ADD SWAP1 JUMP JUMPDEST PUSH1 0x0 PUSH1 0x20 DUP3 DUP5 SUB SLT ISZERO PUSH2 0x3A8F JUMPI PUSH1 0x0 DUP1 REVERT JUMPDEST DUP2 CALLDATALOAD PUSH1 0x1 PUSH1 0x1 PUSH1 0x40 SHL SUB DUP2 GT ISZERO PUSH2 0x3AA5 JUMPI PUSH1 0x0 DUP1 REVERT JUMPDEST DUP3 ADD PUSH1 0x1F DUP2 ADD DUP5 SGT PUSH2 0x3AB6 JUMPI PUSH1 0x0 DUP1 REVERT JUMPDEST DUP1 CALLDATALOAD PUSH2 0x3AC9 PUSH2 0x3AC4 DUP3 PUSH2 0x3A56 JUMP JUMPDEST PUSH2 0x3A26 JUMP JUMPDEST DUP2 DUP2 MSTORE DUP6 PUSH1 0x20 DUP4 DUP6 ADD ADD GT ISZERO PUSH2 0x3ADE JUMPI PUSH1 0x0 DUP1 REVERT JUMPDEST DUP2 PUSH1 0x20 DUP5 ADD PUSH1 0x20 DUP4 ADD CALLDATACOPY PUSH1 0x0 SWAP2 DUP2 ADD PUSH1 0x20 ADD SWAP2 SWAP1 SWAP2 MSTORE SWAP5 SWAP4 POP POP POP POP JUMP JUMPDEST PUSH4 0x4E487B71 PUSH1 0xE0 SHL PUSH1 0x0 MSTORE PUSH1 0x21 PUSH1 0x4 MSTORE PUSH1 0x24 PUSH1 0x0 REVERT JUMPDEST PUSH1 0x40 DUP2 MSTORE PUSH1 0x0 PUSH2 0x3B25 PUSH1 0x40 DUP4 ADD DUP6 PUSH2 0x3986 JUMP JUMPDEST SWAP1 POP PUSH1 0xF DUP4 LT PUSH2 0x3B45 JUMPI PUSH4 0x4E487B71 PUSH1 0xE0 SHL PUSH1 0x0 MSTORE PUSH1 0x21 PUSH1 0x4 MSTORE PUSH1 0x24 PUSH1 0x0 REVERT JUMPDEST DUP3 PUSH1 0x20 DUP4 ADD MSTORE SWAP4 SWAP3 POP POP POP JUMP JUMPDEST PUSH1 0x0 PUSH1 0x20 DUP3 DUP5 SUB SLT ISZERO PUSH2 0x3B64 JUMPI PUSH1 0x0 DUP1 REVERT JUMPDEST POP CALLDATALOAD SWAP2 SWAP1 POP JUMP JUMPDEST PUSH1 0x0 DUP1 PUSH1 0x0 PUSH1 0x60 DUP5 DUP7 SUB SLT ISZERO PUSH2 0x3B80 JUMPI PUSH1 0x0 DUP1 REVERT JUMPDEST DUP4 CALLDATALOAD PUSH2 0x3B8B DUP2 PUSH2 0x38FC JUMP JUMPDEST SWAP3 POP PUSH1 0x20 DUP5 ADD CALLDATALOAD PUSH2 0x3B9B DUP2 PUSH2 0x38FC JUMP JUMPDEST SWAP2 POP PUSH1 0x40 DUP5 ADD CALLDATALOAD PUSH2 0x3BAB DUP2 PUSH2 0x38FC JUMP JUMPDEST DUP1 SWAP2 POP POP SWAP3 POP SWAP3 POP SWAP3 JUMP JUMPDEST DUP1 MLOAD PUSH3 0xFFFFFF DUP2 AND DUP2 EQ PUSH2 0x3BC9 JUMPI PUSH1 0x0 DUP1 REVERT JUMPDEST SWAP2 SWAP1 POP JUMP JUMPDEST DUP1 MLOAD PUSH2 0x3BC9 DUP2 PUSH2 0x38FC JUMP JUMPDEST PUSH1 0x0 DUP3 PUSH1 0x1F DUP4 ADD SLT PUSH2 0x3BEA JUMPI PUSH1 0x0 DUP1 REVERT JUMPDEST DUP2 MLOAD PUSH2 0x3BF8 PUSH2 0x3AC4 DUP3 PUSH2 0x3A56 JUMP JUMPDEST DUP2 DUP2 MSTORE DUP5 PUSH1 0x20 DUP4 DUP7 ADD ADD GT ISZERO PUSH2 0x3C0D JUMPI PUSH1 0x0 DUP1 REVERT JUMPDEST PUSH2 0x26C3 DUP3 PUSH1 0x20 DUP4 ADD PUSH1 0x20 DUP8 ADD PUSH2 0x395A JUMP JUMPDEST PUSH1 0x0 PUSH1 0xA0 DUP3 DUP5 SUB SLT ISZERO PUSH2 0x3C30 JUMPI PUSH1 0x0 DUP1 REVERT JUMPDEST PUSH2 0x3C38 PUSH2 0x39DB JUMP JUMPDEST SWAP1 POP DUP2 MLOAD PUSH1 0x1 PUSH1 0x1 PUSH1 0x40 SHL SUB DUP1 DUP3 GT ISZERO PUSH2 0x3C51 JUMPI PUSH1 0x0 DUP1 REVERT JUMPDEST PUSH2 0x3C5D DUP6 DUP4 DUP7 ADD PUSH2 0x3BD9 JUMP JUMPDEST DUP4 MSTORE PUSH1 0x20 DUP5 ADD MLOAD SWAP2 POP DUP1 DUP3 GT ISZERO PUSH2 0x3C73 JUMPI PUSH1 0x0 DUP1 REVERT JUMPDEST PUSH2 0x3C7F DUP6 DUP4 DUP7 ADD PUSH2 0x3BD9 JUMP JUMPDEST PUSH1 0x20 DUP5 ADD MSTORE PUSH1 0x40 DUP5 ADD MLOAD SWAP2 POP DUP1 DUP3 GT ISZERO PUSH2 0x3C98 JUMPI PUSH1 0x0 DUP1 REVERT JUMPDEST PUSH2 0x3CA4 DUP6 DUP4 DUP7 ADD PUSH2 0x3BD9 JUMP JUMPDEST PUSH1 0x40 DUP5 ADD MSTORE PUSH1 0x60 DUP5 ADD MLOAD SWAP2 POP DUP1 DUP3 GT ISZERO PUSH2 0x3CBD JUMPI PUSH1 0x0 DUP1 REVERT JUMPDEST PUSH2 0x3CC9 DUP6 DUP4 DUP7 ADD PUSH2 0x3BD9 JUMP JUMPDEST PUSH1 0x60 DUP5 ADD MSTORE PUSH1 0x80 DUP5 ADD MLOAD SWAP2 POP DUP1 DUP3 GT ISZERO PUSH2 0x3CE2 JUMPI PUSH1 0x0 DUP1 REVERT JUMPDEST POP PUSH2 0x3CEF DUP5 DUP3 DUP6 ADD PUSH2 0x3BD9 JUMP JUMPDEST PUSH1 0x80 DUP4 ADD MSTORE POP SWAP3 SWAP2 POP POP JUMP JUMPDEST PUSH1 0x0 PUSH1 0x1 PUSH1 0x1 PUSH1 0x40 SHL SUB DUP3 GT ISZERO PUSH2 0x3D14 JUMPI PUSH2 0x3D14 PUSH2 0x39C5 JUMP JUMPDEST POP PUSH1 0x5 SHL PUSH1 0x20 ADD SWAP1 JUMP JUMPDEST PUSH1 0x0 DUP3 PUSH1 0x1F DUP4 ADD SLT PUSH2 0x3D2F JUMPI PUSH1 0x0 DUP1 REVERT JUMPDEST DUP2 MLOAD PUSH1 0x20 PUSH2 0x3D3F PUSH2 0x3AC4 DUP4 PUSH2 0x3CFB JUMP JUMPDEST DUP3 DUP2 MSTORE PUSH1 0x5 SWAP3 SWAP1 SWAP3 SHL DUP5 ADD DUP2 ADD SWAP2 DUP2 DUP2 ADD SWAP1 DUP7 DUP5 GT ISZERO PUSH2 0x3D5E JUMPI PUSH1 0x0 DUP1 REVERT JUMPDEST DUP3 DUP7 ADD JUMPDEST DUP5 DUP2 LT ISZERO PUSH2 0x3D9D JUMPI DUP1 MLOAD PUSH1 0x1 PUSH1 0x1 PUSH1 0x40 SHL SUB DUP2 GT ISZERO PUSH2 0x3D81 JUMPI PUSH1 0x0 DUP1 DUP2 REVERT JUMPDEST PUSH2 0x3D8F DUP10 DUP7 DUP4 DUP12 ADD ADD PUSH2 0x3BD9 JUMP JUMPDEST DUP5 MSTORE POP SWAP2 DUP4 ADD SWAP2 DUP4 ADD PUSH2 0x3D62 JUMP JUMPDEST POP SWAP7 SWAP6 POP POP POP POP POP POP JUMP JUMPDEST PUSH1 0x0 DUP3 PUSH1 0x1F DUP4 ADD SLT PUSH2 0x3DB9 JUMPI PUSH1 0x0 DUP1 REVERT JUMPDEST DUP2 MLOAD PUSH1 0x20 PUSH2 0x3DC9 PUSH2 0x3AC4 DUP4 PUSH2 0x3CFB JUMP JUMPDEST DUP3 DUP2 MSTORE PUSH1 0x5 SWAP3 SWAP1 SWAP3 SHL DUP5 ADD DUP2 ADD SWAP2 DUP2 DUP2 ADD SWAP1 DUP7 DUP5 GT ISZERO PUSH2 0x3DE8 JUMPI PUSH1 0x0 DUP1 REVERT JUMPDEST DUP3 DUP7 ADD JUMPDEST DUP5 DUP2 LT ISZERO PUSH2 0x3D9D JUMPI DUP1 MLOAD PUSH2 0x3DFF DUP2 PUSH2 0x38FC JUMP JUMPDEST DUP4 MSTORE SWAP2 DUP4 ADD SWAP2 DUP4 ADD PUSH2 0x3DEC JUMP JUMPDEST PUSH1 0x0 PUSH1 0x20 DUP3 DUP5 SUB SLT ISZERO PUSH2 0x3E1E JUMPI PUSH1 0x0 DUP1 REVERT JUMPDEST DUP2 MLOAD PUSH1 0x1 PUSH1 0x1 PUSH1 0x40 SHL SUB DUP1 DUP3 GT ISZERO PUSH2 0x3E35 JUMPI PUSH1 0x0 DUP1 REVERT JUMPDEST SWAP1 DUP4 ADD SWAP1 PUSH2 0x260 DUP3 DUP7 SUB SLT ISZERO PUSH2 0x3E4A JUMPI PUSH1 0x0 DUP1 REVERT JUMPDEST PUSH2 0x3E52 PUSH2 0x3A03 JUMP JUMPDEST PUSH2 0x3E5B DUP4 PUSH2 0x3BB6 JUMP JUMPDEST DUP2 MSTORE PUSH2 0x3E69 PUSH1 0x20 DUP5 ADD PUSH2 0x3BB6 JUMP JUMPDEST PUSH1 0x20 DUP3 ADD MSTORE PUSH1 0x40 DUP4 ADD MLOAD PUSH1 0x40 DUP3 ADD MSTORE PUSH2 0x3E84 PUSH1 0x60 DUP5 ADD PUSH2 0x3BCE JUMP JUMPDEST PUSH1 0x60 DUP3 ADD MSTORE PUSH1 0x80 DUP4 ADD MLOAD DUP3 DUP2 GT ISZERO PUSH2 0x3E9B JUMPI PUSH1 0x0 DUP1 REVERT JUMPDEST PUSH2 0x3EA7 DUP8 DUP3 DUP7 ADD PUSH2 0x3BD9 JUMP JUMPDEST PUSH1 0x80 DUP4 ADD MSTORE POP PUSH1 0xA0 DUP4 ADD MLOAD DUP3 DUP2 GT ISZERO PUSH2 0x3EBF JUMPI PUSH1 0x0 DUP1 REVERT JUMPDEST PUSH2 0x3ECB DUP8 DUP3 DUP7 ADD PUSH2 0x3BD9 JUMP JUMPDEST PUSH1 0xA0 DUP4 ADD MSTORE POP PUSH2 0x3EDD PUSH1 0xC0 DUP5 ADD PUSH2 0x3BCE JUMP JUMPDEST PUSH1 0xC0 DUP3 ADD MSTORE PUSH1 0xE0 DUP4 ADD MLOAD DUP3 DUP2 GT ISZERO PUSH2 0x3EF4 JUMPI PUSH1 0x0 DUP1 REVERT JUMPDEST PUSH2 0x3F00 DUP8 DUP3 DUP7 ADD PUSH2 0x3BD9 JUMP JUMPDEST PUSH1 0xE0 DUP4 ADD MSTORE POP PUSH2 0x100 DUP1 DUP5 ADD MLOAD DUP4 DUP2 GT ISZERO PUSH2 0x3F1A JUMPI PUSH1 0x0 DUP1 REVERT JUMPDEST PUSH2 0x3F26 DUP9 DUP3 DUP8 ADD PUSH2 0x3BD9 JUMP JUMPDEST DUP3 DUP5 ADD MSTORE POP POP PUSH2 0x120 DUP1 DUP5 ADD MLOAD DUP4 DUP2 GT ISZERO PUSH2 0x3F40 JUMPI PUSH1 0x0 DUP1 REVERT JUMPDEST PUSH2 0x3F4C DUP9 DUP3 DUP8 ADD PUSH2 0x3BD9 JUMP JUMPDEST DUP3 DUP5 ADD MSTORE POP POP PUSH2 0x140 DUP1 DUP5 ADD MLOAD DUP4 DUP2 GT ISZERO PUSH2 0x3F66 JUMPI PUSH1 0x0 DUP1 REVERT JUMPDEST PUSH2 0x3F72 DUP9 DUP3 DUP8 ADD PUSH2 0x3C1E JUMP JUMPDEST DUP3 DUP5 ADD MSTORE POP POP PUSH2 0x160 DUP1 DUP5 ADD MLOAD DUP4 DUP2 GT ISZERO PUSH2 0x3F8C JUMPI PUSH1 0x0 DUP1 REVERT JUMPDEST PUSH2 0x3F98 DUP9 DUP3 DUP8 ADD PUSH2 0x3D1E JUMP JUMPDEST DUP3 DUP5 ADD MSTORE POP POP PUSH2 0x180 DUP1 DUP5 ADD MLOAD DUP4 DUP2 GT ISZERO PUSH2 0x3FB2 JUMPI PUSH1 0x0 DUP1 REVERT JUMPDEST PUSH2 0x3FBE DUP9 DUP3 DUP8 ADD PUSH2 0x3D1E JUMP JUMPDEST DUP3 DUP5 ADD MSTORE POP POP PUSH2 0x1A0 DUP1 DUP5 ADD MLOAD DUP4 DUP2 GT ISZERO PUSH2 0x3FD8 JUMPI PUSH1 0x0 DUP1 REVERT JUMPDEST PUSH2 0x3FE4 DUP9 DUP3 DUP8 ADD PUSH2 0x3BD9 JUMP JUMPDEST DUP3 DUP5 ADD MSTORE POP POP PUSH2 0x1C0 DUP1 DUP5 ADD MLOAD DUP2 DUP4 ADD MSTORE POP PUSH2 0x1E0 PUSH2 0x4004 DUP2 DUP6 ADD PUSH2 0x3BCE JUMP JUMPDEST SWAP1 DUP3 ADD MSTORE PUSH2 0x200 DUP4 DUP2 ADD MLOAD DUP4 DUP2 GT ISZERO PUSH2 0x401C JUMPI PUSH1 0x0 DUP1 REVERT JUMPDEST PUSH2 0x4028 DUP9 DUP3 DUP8 ADD PUSH2 0x3BD9 JUMP JUMPDEST DUP3 DUP5 ADD MSTORE POP POP PUSH2 0x220 DUP1 DUP5 ADD MLOAD DUP4 DUP2 GT ISZERO PUSH2 0x4042 JUMPI PUSH1 0x0 DUP1 REVERT JUMPDEST PUSH2 0x404E DUP9 DUP3 DUP8 ADD PUSH2 0x3DA8 JUMP JUMPDEST SWAP2 DUP4 ADD SWAP2 SWAP1 SWAP2 MSTORE POP PUSH2 0x240 SWAP3 DUP4 ADD MLOAD SWAP3 DUP2 ADD SWAP3 SWAP1 SWAP3 MSTORE POP SWAP4 SWAP3 POP POP POP JUMP JUMPDEST PUSH4 0x4E487B71 PUSH1 0xE0 SHL PUSH1 0x0 MSTORE PUSH1 0x32 PUSH1 0x4 MSTORE PUSH1 0x24 PUSH1 0x0 REVERT JUMPDEST PUSH1 0x0 DUP1 PUSH1 0x40 DUP4 DUP6 SUB SLT ISZERO PUSH2 0x4095 JUMPI PUSH1 0x0 DUP1 REVERT JUMPDEST DUP3 MLOAD PUSH1 0x1 PUSH1 0x1 PUSH1 0x40 SHL SUB DUP2 GT ISZERO PUSH2 0x40AB JUMPI PUSH1 0x0 DUP1 REVERT JUMPDEST PUSH2 0x40B7 DUP6 DUP3 DUP7 ADD PUSH2 0x3BD9 JUMP JUMPDEST SWAP3 POP POP PUSH1 0x20 DUP4 ADD MLOAD PUSH1 0xF DUP2 LT PUSH2 0x40CC JUMPI PUSH1 0x0 DUP1 REVERT JUMPDEST DUP1 SWAP2 POP POP SWAP3 POP SWAP3 SWAP1 POP JUMP JUMPDEST PUSH1 0x0 DUP2 MLOAD PUSH2 0x40E9 DUP2 DUP6 PUSH1 0x20 DUP7 ADD PUSH2 0x395A JUMP JUMPDEST SWAP3 SWAP1 SWAP3 ADD SWAP3 SWAP2 POP POP JUMP JUMPDEST PUSH1 0x0 DUP4 MLOAD PUSH2 0x4105 DUP2 DUP5 PUSH1 0x20 DUP9 ADD PUSH2 0x395A JUMP JUMPDEST DUP4 MLOAD SWAP1 DUP4 ADD SWAP1 PUSH2 0x4119 DUP2 DUP4 PUSH1 0x20 DUP9 ADD PUSH2 0x395A JUMP JUMPDEST ADD SWAP5 SWAP4 POP POP POP POP JUMP JUMPDEST PUSH4 0x4E487B71 PUSH1 0xE0 SHL PUSH1 0x0 MSTORE PUSH1 0x11 PUSH1 0x4 MSTORE PUSH1 0x24 PUSH1 0x0 REVERT JUMPDEST PUSH1 0x0 PUSH1 0x0 NOT DUP3 EQ ISZERO PUSH2 0x414C JUMPI PUSH2 0x414C PUSH2 0x4122 JUMP JUMPDEST POP PUSH1 0x1 ADD SWAP1 JUMP JUMPDEST PUSH1 0x0 PUSH1 0x20 DUP3 DUP5 SUB SLT ISZERO PUSH2 0x4165 JUMPI PUSH1 0x0 DUP1 REVERT JUMPDEST DUP2 MLOAD PUSH1 0x1 PUSH1 0x1 PUSH1 0x40 SHL SUB DUP2 GT ISZERO PUSH2 0x417B JUMPI PUSH1 0x0 DUP1 REVERT JUMPDEST PUSH2 0x26C3 DUP5 DUP3 DUP6 ADD PUSH2 0x3BD9 JUMP JUMPDEST PUSH1 0x0 DUP6 MLOAD PUSH2 0x4199 DUP2 DUP5 PUSH1 0x20 DUP11 ADD PUSH2 0x395A JUMP JUMPDEST DUP1 DUP4 ADD SWAP1 POP PUSH1 0x2F PUSH1 0xF8 SHL DUP1 DUP3 MSTORE DUP7 MLOAD PUSH2 0x41B9 DUP2 PUSH1 0x1 DUP6 ADD PUSH1 0x20 DUP12 ADD PUSH2 0x395A JUMP JUMPDEST PUSH1 0x1 SWAP3 ADD SWAP2 DUP3 ADD MSTORE DUP5 MLOAD PUSH2 0x41D4 DUP2 PUSH1 0x2 DUP5 ADD PUSH1 0x20 DUP10 ADD PUSH2 0x395A JUMP JUMPDEST PUSH6 0x3F736565643D PUSH1 0xD0 SHL PUSH1 0x2 SWAP3 SWAP1 SWAP2 ADD SWAP2 DUP3 ADD MSTORE DUP4 MLOAD PUSH2 0x41FB DUP2 PUSH1 0x8 DUP5 ADD PUSH1 0x20 DUP9 ADD PUSH2 0x395A JUMP JUMPDEST ADD PUSH1 0x8 ADD SWAP7 SWAP6 POP POP POP POP POP POP JUMP JUMPDEST PUSH1 0x0 DUP2 PUSH1 0x0 NOT DIV DUP4 GT DUP3 ISZERO ISZERO AND ISZERO PUSH2 0x4223 JUMPI PUSH2 0x4223 PUSH2 0x4122 JUMP JUMPDEST POP MUL SWAP1 JUMP JUMPDEST PUSH1 0x0 DUP3 MLOAD PUSH2 0x423A DUP2 DUP5 PUSH1 0x20 DUP8 ADD PUSH2 0x395A JUMP JUMPDEST SWAP2 SWAP1 SWAP2 ADD SWAP3 SWAP2 POP POP JUMP JUMPDEST PUSH22 0x19185D184E9D195E1D0BDA1D1B5B0ED8985CD94D8D0B PUSH1 0x52 SHL DUP2 MSTORE PUSH1 0x0 DUP3 MLOAD PUSH2 0x4275 DUP2 PUSH1 0x16 DUP6 ADD PUSH1 0x20 DUP8 ADD PUSH2 0x395A JUMP JUMPDEST SWAP2 SWAP1 SWAP2 ADD PUSH1 0x16 ADD SWAP3 SWAP2 POP POP JUMP JUMPDEST PUSH19 0x16101130B734B6B0BA34B7B72FBAB936111D11 PUSH1 0x69 SHL DUP2 MSTORE DUP2 MLOAD PUSH1 0x0 SWAP1 PUSH2 0x42B1 DUP2 PUSH1 0x13 DUP6 ADD PUSH1 0x20 DUP8 ADD PUSH2 0x395A JUMP JUMPDEST PUSH1 0x11 PUSH1 0xF9 SHL PUSH1 0x13 SWAP4 SWAP1 SWAP2 ADD SWAP3 DUP4 ADD MSTORE POP PUSH1 0x14 ADD SWAP2 SWAP1 POP JUMP JUMPDEST PUSH1 0x0 DUP4 MLOAD PUSH2 0x42DB DUP2 DUP5 PUSH1 0x20 DUP9 ADD PUSH2 0x395A JUMP JUMPDEST PUSH2 0x2023 PUSH1 0xF0 SHL SWAP1 DUP4 ADD SWAP1 DUP2 MSTORE DUP4 MLOAD PUSH2 0x42FA DUP2 PUSH1 0x2 DUP5 ADD PUSH1 0x20 DUP9 ADD PUSH2 0x395A JUMP JUMPDEST ADD PUSH1 0x2 ADD SWAP5 SWAP4 POP POP POP POP JUMP JUMPDEST PUSH1 0x0 PUSH1 0xFF DUP3 AND PUSH1 0xFF DUP5 AND DUP1 PUSH1 0xFF SUB DUP3 GT ISZERO PUSH2 0x4323 JUMPI PUSH2 0x4323 PUSH2 0x4122 JUMP JUMPDEST ADD SWAP4 SWAP3 POP POP POP JUMP JUMPDEST PUSH1 0x0 DUP5 MLOAD PUSH2 0x433D DUP2 DUP5 PUSH1 0x20 DUP10 ADD PUSH2 0x395A JUMP JUMPDEST PUSH21 0x163D913A3930B4BA2FBA3CB832911D10112634B11 PUSH1 0x5D SHL SWAP1 DUP4 ADD SWAP1 DUP2 MSTORE DUP5 MLOAD PUSH2 0x436F DUP2 PUSH1 0x15 DUP5 ADD PUSH1 0x20 DUP10 ADD PUSH2 0x395A JUMP JUMPDEST PUSH13 0x111610113B30B63AB2911D1011 PUSH1 0x99 SHL PUSH1 0x15 SWAP3 SWAP1 SWAP2 ADD SWAP2 DUP3 ADD MSTORE DUP4 MLOAD PUSH2 0x439D DUP2 PUSH1 0x22 DUP5 ADD PUSH1 0x20 DUP9 ADD PUSH2 0x395A JUMP JUMPDEST PUSH2 0x227D PUSH1 0xF0 SHL PUSH1 0x22 SWAP3 SWAP1 SWAP2 ADD SWAP2 DUP3 ADD MSTORE PUSH1 0x24 ADD SWAP6 SWAP5 POP POP POP POP POP JUMP JUMPDEST PUSH1 0x0 PUSH1 0xFF DUP3 AND PUSH1 0xFF DUP2 EQ ISZERO PUSH2 0x43D0 JUMPI PUSH2 0x43D0 PUSH2 0x4122 JUMP JUMPDEST PUSH1 0x1 ADD SWAP3 SWAP2 POP POP JUMP JUMPDEST PUSH32 0x2C2261747472696275746573223A205B7B2274726169745F74797065223A2022 DUP2 MSTORE PUSH32 0x436F6C6C656374696F6E2041646472657373222C202276616C7565223A202200 PUSH1 0x20 DUP3 ADD MSTORE PUSH1 0x0 DUP7 MLOAD PUSH2 0x4437 DUP2 PUSH1 0x3F DUP6 ADD PUSH1 0x20 DUP12 ADD PUSH2 0x395A JUMP JUMPDEST PUSH2 0x227D PUSH1 0xF0 SHL PUSH1 0x3F SWAP2 DUP5 ADD SWAP2 DUP3 ADD DUP2 SWAP1 MSTORE PUSH32 0x2C7B2274726169745F74797065223A202243726561746F72222C202276616C75 PUSH1 0x41 DUP4 ADD MSTORE PUSH5 0x32911D1011 PUSH1 0xD9 SHL PUSH1 0x61 DUP4 ADD MSTORE DUP8 MLOAD PUSH2 0x448F DUP2 PUSH1 0x66 DUP6 ADD PUSH1 0x20 DUP13 ADD PUSH2 0x395A JUMP JUMPDEST PUSH1 0x66 SWAP3 ADD SWAP2 DUP3 ADD MSTORE PUSH32 0x2C7B2274726169745F74797065223A202243726561746F722041646472657373 PUSH1 0x68 DUP3 ADD MSTORE PUSH13 0x111610113B30B63AB2911D1011 PUSH1 0x99 SHL PUSH1 0x88 DUP3 ADD MSTORE PUSH2 0x454E PUSH2 0x4541 PUSH2 0x453B PUSH2 0x44F0 PUSH2 0x4535 PUSH2 0x44FE DUP3 PUSH1 0x95 DUP9 ADD DUP14 PUSH2 0x40D7 JUMP JUMPDEST PUSH2 0x227D PUSH1 0xF0 SHL DUP2 MSTORE PUSH1 0x2 ADD SWAP1 JUMP JUMPDEST PUSH32 0x2C7B2274726169745F74797065223A20224C6963656E7365222C202276616C75 DUP2 MSTORE PUSH5 0x32911D1011 PUSH1 0xD9 SHL PUSH1 0x20 DUP3 ADD MSTORE PUSH1 0x25 ADD SWAP1 JUMP JUMPDEST DUP10 PUSH2 0x40D7 JUMP JUMPDEST DUP7 PUSH2 0x40D7 JUMP JUMPDEST PUSH1 0x5D PUSH1 0xF8 SHL DUP2 MSTORE PUSH1 0x1 ADD SWAP1 JUMP JUMPDEST SWAP9 SWAP8 POP POP POP POP POP POP POP POP JUMP JUMPDEST PUSH9 0x3D913730B6B2911D11 PUSH1 0xB9 SHL DUP2 MSTORE DUP6 MLOAD PUSH1 0x0 SWAP1 PUSH2 0x457F DUP2 PUSH1 0x9 DUP6 ADD PUSH1 0x20 DUP12 ADD PUSH2 0x395A JUMP JUMPDEST PUSH1 0x11 PUSH1 0xF9 SHL PUSH1 0x9 SWAP2 DUP5 ADD SWAP2 DUP3 ADD DUP2 SWAP1 MSTORE PUSH16 0x16113232B9B1B934B83A34B7B7111D11 PUSH1 0x81 SHL PUSH1 0xA DUP4 ADD MSTORE DUP8 MLOAD PUSH2 0x45BB DUP2 PUSH1 0x1A DUP6 ADD PUSH1 0x20 DUP13 ADD PUSH2 0x395A JUMP JUMPDEST PUSH1 0x1A SWAP3 ADD SWAP2 DUP3 ADD DUP2 SWAP1 MSTORE PUSH10 0x161134B6B0B3B2911D11 PUSH1 0xB1 SHL PUSH1 0x1B DUP4 ADD MSTORE DUP7 MLOAD PUSH2 0x45EB DUP2 PUSH1 0x25 DUP6 ADD PUSH1 0x20 DUP12 ADD PUSH2 0x395A JUMP JUMPDEST PUSH1 0x25 SWAP3 ADD SWAP2 DUP3 ADD MSTORE DUP5 MLOAD PUSH2 0x4606 DUP2 PUSH1 0x26 DUP5 ADD PUSH1 0x20 DUP10 ADD PUSH2 0x395A JUMP JUMPDEST DUP5 MLOAD SWAP2 ADD SWAP1 PUSH2 0x461C DUP2 PUSH1 0x26 DUP5 ADD PUSH1 0x20 DUP9 ADD PUSH2 0x395A JUMP JUMPDEST PUSH2 0x4632 PUSH1 0x26 DUP3 DUP5 ADD ADD PUSH1 0x7D PUSH1 0xF8 SHL DUP2 MSTORE PUSH1 0x1 ADD SWAP1 JUMP JUMPDEST SWAP10 SWAP9 POP POP POP POP POP POP POP POP POP JUMP JUMPDEST PUSH32 0x646174613A6170706C69636174696F6E2F6A736F6E3B6261736536342C000000 DUP2 MSTORE PUSH1 0x0 DUP3 MLOAD PUSH2 0x4677 DUP2 PUSH1 0x1D DUP6 ADD PUSH1 0x20 DUP8 ADD PUSH2 0x395A JUMP JUMPDEST SWAP2 SWAP1 SWAP2 ADD PUSH1 0x1D ADD SWAP3 SWAP2 POP POP JUMP JUMPDEST PUSH1 0x0 DUP3 DUP3 LT ISZERO PUSH2 0x4696 JUMPI PUSH2 0x4696 PUSH2 0x4122 JUMP JUMPDEST POP SUB SWAP1 JUMP JUMPDEST PUSH9 0x3D913730B6B2911D11 PUSH1 0xB9 SHL DUP2 MSTORE DUP6 MLOAD PUSH1 0x0 SWAP1 PUSH2 0x46C0 DUP2 PUSH1 0x9 DUP6 ADD PUSH1 0x20 DUP12 ADD PUSH2 0x395A JUMP JUMPDEST PUSH18 0x1116113232B9B1B934B83A34B7B7111D1011 PUSH1 0x71 SHL PUSH1 0x9 SWAP2 DUP5 ADD SWAP2 DUP3 ADD MSTORE DUP7 MLOAD PUSH2 0x46F2 DUP2 PUSH1 0x1B DUP5 ADD PUSH1 0x20 DUP12 ADD PUSH2 0x395A JUMP JUMPDEST PUSH1 0x11 PUSH1 0xF9 SHL PUSH1 0x1B SWAP3 SWAP1 SWAP2 ADD SWAP2 DUP3 ADD MSTORE PUSH12 0x16101134B6B0B3B2911D1011 PUSH1 0xA1 SHL PUSH1 0x1C DUP3 ADD MSTORE DUP6 MLOAD PUSH2 0x4729 DUP2 PUSH1 0x28 DUP5 ADD PUSH1 0x20 DUP11 ADD PUSH2 0x395A JUMP JUMPDEST PUSH14 0x1331B0B83A3AB9329E9A98181811 PUSH1 0x91 SHL PUSH1 0x28 SWAP3 SWAP1 SWAP2 ADD SWAP2 DUP3 ADD MSTORE DUP5 MLOAD PUSH2 0x4758 DUP2 PUSH1 0x36 DUP5 ADD PUSH1 0x20 DUP10 ADD PUSH2 0x395A JUMP JUMPDEST PUSH17 0x16101130BA3A3934B13ABA32B9911D1011 PUSH1 0x79 SHL PUSH1 0x36 SWAP3 SWAP1 SWAP2 ADD SWAP2 DUP3 ADD MSTORE PUSH2 0x454E PUSH2 0x47A1 PUSH2 0x478A PUSH1 0x47 DUP5 ADD DUP8 PUSH2 0x40D7 JUMP JUMPDEST PUSH11 0x1331B0B83A3AB9329E9811 PUSH1 0xA9 SHL DUP2 MSTORE PUSH1 0xB ADD SWAP1 JUMP JUMPDEST PUSH1 0x7D PUSH1 0xF8 SHL DUP2 MSTORE PUSH1 0x1 ADD SWAP1 JUMP JUMPDEST PUSH4 0x4E487B71 PUSH1 0xE0 SHL PUSH1 0x0 MSTORE PUSH1 0x12 PUSH1 0x4 MSTORE PUSH1 0x24 PUSH1 0x0 REVERT JUMPDEST PUSH1 0x0 DUP3 PUSH2 0x47D3 JUMPI PUSH2 0x47D3 PUSH2 0x47AE JUMP JUMPDEST POP MOD SWAP1 JUMP JUMPDEST PUSH1 0x0 DUP3 PUSH2 0x47E7 JUMPI PUSH2 0x47E7 PUSH2 0x47AE JUMP JUMPDEST POP DIV SWAP1 JUMP JUMPDEST PUSH1 0x0 DUP3 NOT DUP3 GT ISZERO PUSH2 0x47FF JUMPI PUSH2 0x47FF PUSH2 0x4122 JUMP JUMPDEST POP ADD SWAP1 JUMP JUMPDEST PUSH1 0x20 DUP1 DUP3 MSTORE PUSH1 0x2B SWAP1 DUP3 ADD MSTORE PUSH32 0x496E697469616C697A61626C653A20636F6E7472616374206973206E6F742069 PUSH1 0x40 DUP3 ADD MSTORE PUSH11 0x6E697469616C697A696E67 PUSH1 0xA8 SHL PUSH1 0x60 DUP3 ADD MSTORE PUSH1 0x80 ADD SWAP1 JUMP JUMPDEST PUSH1 0x0 DUP2 PUSH2 0x485E JUMPI PUSH2 0x485E PUSH2 0x4122 JUMP JUMPDEST POP PUSH1 0x0 NOT ADD SWAP1 JUMP INVALID COINBASE TIMESTAMP NUMBER DIFFICULTY GASLIMIT CHAINID SELFBALANCE BASEFEE 0x49 0x4A 0x4B 0x4C 0x4D 0x4E 0x4F POP MLOAD MSTORE MSTORE8 SLOAD SSTORE JUMP JUMPI PC MSIZE GAS PUSH2 0x6263 PUSH5 0x6566676869 PUSH11 0x6B6C6D6E6F707172737475 PUSH23 0x7778797A303132333435363738392B2F00000000000000 STOP STOP STOP STOP STOP STOP STOP STOP STOP STOP STOP STOP STOP STOP STOP STOP STOP STOP STOP STOP STOP STOP STOP STOP STOP STOP STOP STOP STOP STOP STOP STOP STOP STOP STOP STOP RETURNDATACOPY STOP STOP STOP EXTCODEHASH CALLVALUE CALLDATALOAD CALLDATASIZE CALLDATACOPY CODESIZE CODECOPY GASPRICE EXTCODESIZE EXTCODECOPY RETURNDATASIZE STOP STOP STOP STOP STOP STOP STOP STOP ADD MUL SUB DIV SDIV MOD SMOD ADDMOD MULMOD EXP SIGNEXTEND 0xC 0xD 0xE 0xF LT GT SLT SGT EQ ISZERO AND OR XOR NOT STOP STOP STOP STOP STOP STOP BYTE SHL SHR SAR 0x1E 0x1F KECCAK256 0x21 0x22 0x23 0x24 0x25 0x26 0x27 0x28 0x29 0x2A 0x2B 0x2C 0x2D 0x2E 0x2F ADDRESS BALANCE ORIGIN CALLER STOP STOP STOP STOP STOP LOG2 PUSH5 0x6970667358 0x22 SLT KECCAK256 DUP9 0xD7 0xE9 0xAD TIMESTAMP 0xAF DUP9 0xD2 CODECOPY 0xE2 0x26 BYTE 0xB1 SWAP15 DUP11 0xBA SWAP14 0x4F JUMPI 0xDA 0x5E DUP10 PUSH23 0xFB7D988395D53CDE264736F6C634300080C0033000000 "},"methodIdentifiers":{"_admin()":"01bc45c9","_generativeProjectAddr()":"567fdcf3","_paramAddr()":"f4a290f7","changeAdmin(address)":"8f283970","changeParamAddress(address)":"16a5041f","changeProjectAddress(address)":"e8082858","inflateScript(string)":"7af34af2","inflateString(string)":"6e973cf2","initialize(address,address,address)":"c0c53b8b","owner()":"8da5cb5b","projectURI(uint256)":"79ebc6f0","renounceOwnership()":"715018a6","tokenBaseURI(uint256,uint256,bytes32)":"46eaa748","tokenHTML(uint256,uint256,bytes32)":"31c7280c","tokenURI(uint256,uint256,bytes32)":"94139301","transferOwnership(address)":"f2fde38b"}},"storageLayout":{"storage":[{"astId":138,"contract":"contracts/data/GenerativeProjectData.sol:GenerativeProjectData","label":"_initialized","offset":0,"slot":"0","type":"t_uint8"},{"astId":141,"contract":"contracts/data/GenerativeProjectData.sol:GenerativeProjectData","label":"_initializing","offset":1,"slot":"0","type":"t_bool"},{"astId":741,"contract":"contracts/data/GenerativeProjectData.sol:GenerativeProjectData","label":"__gap","offset":0,"slot":"1","type":"t_array(t_uint256)50_storage"},{"astId":10,"contract":"contracts/data/GenerativeProjectData.sol:GenerativeProjectData","label":"_owner","offset":0,"slot":"51","type":"t_address"},{"astId":130,"contract":"contracts/data/GenerativeProjectData.sol:GenerativeProjectData","label":"__gap","offset":0,"slot":"52","type":"t_array(t_uint256)49_storage"},{"astId":1816,"contract":"contracts/data/GenerativeProjectData.sol:GenerativeProjectData","label":"_admin","offset":0,"slot":"101","type":"t_address"},{"astId":1818,"contract":"contracts/data/GenerativeProjectData.sol:GenerativeProjectData","label":"_paramAddr","offset":0,"slot":"102","type":"t_address"},{"astId":1820,"contract":"contracts/data/GenerativeProjectData.sol:GenerativeProjectData","label":"_generativeProjectAddr","offset":0,"slot":"103","type":"t_address"}],"types":{"t_address":{"encoding":"inplace","label":"address","numberOfBytes":"20"},"t_array(t_uint256)49_storage":{"base":"t_uint256","encoding":"inplace","label":"uint256[49]","numberOfBytes":"1568"},"t_array(t_uint256)50_storage":{"base":"t_uint256","encoding":"inplace","label":"uint256[50]","numberOfBytes":"1600"},"t_bool":{"encoding":"inplace","label":"bool","numberOfBytes":"1"},"t_uint256":{"encoding":"inplace","label":"uint256","numberOfBytes":"32"},"t_uint8":{"encoding":"inplace","label":"uint8","numberOfBytes":"1"}}}}}}