{"contracts/libs/helpers/Errors.sol":{"Errors":{"abi":[{"inputs":[],"name":"DAO_VESTING_ERROR_ADDR","outputs":[{"internalType":"string","name":"","type":"string"}],"stateMutability":"view","type":"function"},{"inputs":[],"name":"ERC20_BALANCE_INVALID","outputs":[{"internalType":"string","name":"","type":"string"}],"stateMutability":"view","type":"function"},{"inputs":[],"name":"ERC20_NOT_APPROVED","outputs":[{"internalType":"string","name":"","type":"string"}],"stateMutability":"view","type":"function"},{"inputs":[],"name":"ERC_20_NOT_ALLOW","outputs":[{"internalType":"string","name":"","type":"string"}],"stateMutability":"view","type":"function"},{"inputs":[],"name":"ERC_721_NOT_APPROVED","outputs":[{"internalType":"string","name":"","type":"string"}],"stateMutability":"view","type":"function"},{"inputs":[],"name":"FORBIDDEN_TRANSFER_PROJECT","outputs":[{"internalType":"string","name":"","type":"string"}],"stateMutability":"view","type":"function"},{"inputs":[],"name":"INVALID_ERC721_OWNER","outputs":[{"internalType":"string","name":"","type":"string"}],"stateMutability":"view","type":"function"},{"inputs":[],"name":"INV_ADD","outputs":[{"internalType":"string","name":"","type":"string"}],"stateMutability":"view","type":"function"},{"inputs":[],"name":"INV_FEE_PROJECT","outputs":[{"internalType":"string","name":"","type":"string"}],"stateMutability":"view","type":"function"},{"inputs":[],"name":"INV_PARAMS","outputs":[{"internalType":"string","name":"","type":"string"}],"stateMutability":"view","type":"function"},{"inputs":[],"name":"INV_PROJECT","outputs":[{"internalType":"string","name":"","type":"string"}],"stateMutability":"view","type":"function"},{"inputs":[],"name":"INV_TOKEN","outputs":[{"internalType":"string","name":"","type":"string"}],"stateMutability":"view","type":"function"},{"inputs":[],"name":"MISSING_NAME","outputs":[{"internalType":"string","name":"","type":"string"}],"stateMutability":"view","type":"function"},{"inputs":[],"name":"OFFERING_CLOSED","outputs":[{"internalType":"string","name":"","type":"string"}],"stateMutability":"view","type":"function"},{"inputs":[],"name":"ONLY_ADMIN_ALLOWED","outputs":[{"internalType":"string","name":"","type":"string"}],"stateMutability":"view","type":"function"},{"inputs":[],"name":"ONLY_CREATOR","outputs":[{"internalType":"string","name":"","type":"string"}],"stateMutability":"view","type":"function"},{"inputs":[],"name":"OPENING_SCHEDULE","outputs":[{"internalType":"string","name":"","type":"string"}],"stateMutability":"view","type":"function"},{"inputs":[],"name":"POA_INVALID_TOKEN","outputs":[{"internalType":"string","name":"","type":"string"}],"stateMutability":"view","type":"function"},{"inputs":[],"name":"REACH_MAX","outputs":[{"internalType":"string","name":"","type":"string"}],"stateMutability":"view","type":"function"},{"inputs":[],"name":"SUCCESS","outputs":[{"internalType":"string","name":"","type":"string"}],"stateMutability":"view","type":"function"},{"inputs":[],"name":"TEAM_VESTING_ERROR_ADDR","outputs":[{"internalType":"string","name":"","type":"string"}],"stateMutability":"view","type":"function"},{"inputs":[],"name":"TOKEN_HAS_SEED","outputs":[{"internalType":"string","name":"","type":"string"}],"stateMutability":"view","type":"function"},{"inputs":[],"name":"TOO_HIGH","outputs":[{"internalType":"string","name":"","type":"string"}],"stateMutability":"view","type":"function"},{"inputs":[],"name":"TRANSFER_FAIL","outputs":[{"internalType":"string","name":"","type":"string"}],"stateMutability":"view","type":"function"},{"inputs":[],"name":"VALUE_INVALID","outputs":[{"internalType":"string","name":"","type":"string"}],"stateMutability":"view","type":"function"},{"inputs":[],"name":"VESTING_REMAIN","outputs":[{"internalType":"string","name":"","type":"string"}],"stateMutability":"view","type":"function"},{"inputs":[],"name":"VESTING_TIME_LOCK","outputs":[{"internalType":"string","name":"","type":"string"}],"stateMutability":"view","type":"function"},{"inputs":[],"name":"ZERO_ADDR","outputs":[{"internalType":"address","name":"","type":"address"}],"stateMutability":"view","type":"function"},{"inputs":[],"name":"ZERO_DURATION","outputs":[{"internalType":"string","name":"","type":"string"}],"stateMutability":"view","type":"function"},{"inputs":[],"name":"ZERO_PRICE","outputs":[{"internalType":"string","name":"","type":"string"}],"stateMutability":"view","type":"function"},{"inputs":[],"name":"ZERO_SEED","outputs":[{"internalType":"string","name":"","type":"string"}],"stateMutability":"view","type":"function"}],"evm":{"bytecode":{"linkReferences":{},"object":"6106af61003a600b82828239805160001a60731461002d57634e487b7160e01b600052600060045260246000fd5b30600052607381538281f3fe73000000000000000000000000000000000000000030146080604052600436106101ef5760003560e01c80637267050811610119578063c3679ee5116100ac578063ec94a5771161007b578063ec94a5771461059c578063ef494c25146105be578063f9e93731146105e0578063feff83c31461060257600080fd5b8063c3679ee514610516578063d0a6d1a614610538578063d5bec68514610558578063e81216b51461057a57600080fd5b80639bf3cfe3116100e85780639bf3cfe31461048e578063b746287b146104b0578063b92436e0146104d2578063c059011b146104f457600080fd5b8063726705081461040657806386f8148f146104285780638cb739c61461044a57806390131fab1461046c57600080fd5b806338abf0c911610191578063585c081c11610160578063585c081c1461038057806363731080146103a2578063652b7f31146103c25780636a137674146103e457600080fd5b806338abf0c9146102f85780633a13248f1461031a578063552e387c1461033c5780635560f1f81461035e57600080fd5b806323312297116101cd5780632331229714610270578063243c1d6d146102925780632b72ddbd146102b457806335a02d73146102d657600080fd5b806307475084146101f4578063143c1c361461022c5780631557ff241461024e575b600080fd5b6102166040518060400160405280600381526020016219981b60e91b81525081565b6040516102239190610624565b60405180910390f35b6102166040518060400160405280600381526020016219181b60e91b81525081565b6102166040518060400160405280600381526020016206660760eb1b81525081565b6102166040518060400160405280600381526020016232303360e81b81525081565b610216604051806040016040528060038152602001620d0c0d60ea1b81525081565b6102166040518060400160405280600381526020016219981960e91b81525081565b6102166040518060400160405280600381526020016233303560e81b81525081565b6102166040518060400160405280600381526020016219181960e91b81525081565b6102166040518060400160405280600381526020016206460760eb1b81525081565b6102166040518060400160405280600381526020016231303160e81b81525081565b6102166040518060400160405280600381526020016233303360e81b81525081565b6102166040518060400160405280600381526020016232303560e81b81525081565b6103aa600081565b6040516001600160a01b039091168152602001610223565b6102166040518060400160405280600381526020016232303160e81b81525081565b6102166040518060400160405280600381526020016203430360ec1b81525081565b6102166040518060400160405280600381526020016203130360ec1b81525081565b6102166040518060400160405280600381526020016203230360ec1b81525081565b6102166040518060400160405280600381526020016232303960e81b81525081565b6102166040518060400160405280600381526020016203330360ec1b81525081565b6102166040518060400160405280600381526020016232303760e81b81525081565b6102166040518060400160405280600381526020016218981960e91b81525081565b6102166040518060400160405280600381526020016234303160e81b81525081565b6102166040518060400160405280600381526020016233303160e81b81525081565b6102166040518060400160405280600381526020016234303360e81b81525081565b610216604051806040016040528060018152602001600360fc1b81525081565b6102166040518060400160405280600381526020016233303760e81b81525081565b610216604051806040016040528060038152602001620ccc0d60ea1b81525081565b6102166040518060400160405280600381526020016233303960e81b81525081565b6102166040518060400160405280600381526020016203231360ec1b81525081565b610216604051806040016040528060038152602001621a181960e91b81525081565b610216604051806040016040528060038152602001620c8c0d60ea1b81525081565b600060208083528351808285015260005b8181101561065157858101830151858201604001528201610635565b81811115610663576000604083870101525b50601f01601f191692909201604001939250505056fea26469706673582212207eac8f5241ae5f1edb5811a8e2c2fed85a53c280fa37595506608b8792c9f82264736f6c634300080c0033","opcodes":"PUSH2 0x6AF PUSH2 0x3A PUSH1 0xB DUP3 DUP3 DUP3 CODECOPY DUP1 MLOAD PUSH1 0x0 BYTE PUSH1 0x73 EQ PUSH2 0x2D JUMPI PUSH4 0x4E487B71 PUSH1 0xE0 SHL PUSH1 0x0 MSTORE PUSH1 0x0 PUSH1 0x4 MSTORE PUSH1 0x24 PUSH1 0x0 REVERT JUMPDEST ADDRESS PUSH1 0x0 MSTORE PUSH1 0x73 DUP2 MSTORE8 DUP3 DUP2 RETURN INVALID PUSH20 0x0 ADDRESS EQ PUSH1 0x80 PUSH1 0x40 MSTORE PUSH1 0x4 CALLDATASIZE LT PUSH2 0x1EF JUMPI PUSH1 0x0 CALLDATALOAD PUSH1 0xE0 SHR DUP1 PUSH4 0x72670508 GT PUSH2 0x119 JUMPI DUP1 PUSH4 0xC3679EE5 GT PUSH2 0xAC JUMPI DUP1 PUSH4 0xEC94A577 GT PUSH2 0x7B JUMPI DUP1 PUSH4 0xEC94A577 EQ PUSH2 0x59C JUMPI DUP1 PUSH4 0xEF494C25 EQ PUSH2 0x5BE JUMPI DUP1 PUSH4 0xF9E93731 EQ PUSH2 0x5E0 JUMPI DUP1 PUSH4 0xFEFF83C3 EQ PUSH2 0x602 JUMPI PUSH1 0x0 DUP1 REVERT JUMPDEST DUP1 PUSH4 0xC3679EE5 EQ PUSH2 0x516 JUMPI DUP1 PUSH4 0xD0A6D1A6 EQ PUSH2 0x538 JUMPI DUP1 PUSH4 0xD5BEC685 EQ PUSH2 0x558 JUMPI DUP1 PUSH4 0xE81216B5 EQ PUSH2 0x57A JUMPI PUSH1 0x0 DUP1 REVERT JUMPDEST DUP1 PUSH4 0x9BF3CFE3 GT PUSH2 0xE8 JUMPI DUP1 PUSH4 0x9BF3CFE3 EQ PUSH2 0x48E JUMPI DUP1 PUSH4 0xB746287B EQ PUSH2 0x4B0 JUMPI DUP1 PUSH4 0xB92436E0 EQ PUSH2 0x4D2 JUMPI DUP1 PUSH4 0xC059011B EQ PUSH2 0x4F4 JUMPI PUSH1 0x0 DUP1 REVERT JUMPDEST DUP1 PUSH4 0x72670508 EQ PUSH2 0x406 JUMPI DUP1 PUSH4 0x86F8148F EQ PUSH2 0x428 JUMPI DUP1 PUSH4 0x8CB739C6 EQ PUSH2 0x44A JUMPI DUP1 PUSH4 0x90131FAB EQ PUSH2 0x46C JUMPI PUSH1 0x0 DUP1 REVERT JUMPDEST DUP1 PUSH4 0x38ABF0C9 GT PUSH2 0x191 JUMPI DUP1 PUSH4 0x585C081C GT PUSH2 0x160 JUMPI DUP1 PUSH4 0x585C081C EQ PUSH2 0x380 JUMPI DUP1 PUSH4 0x63731080 EQ PUSH2 0x3A2 JUMPI DUP1 PUSH4 0x652B7F31 EQ PUSH2 0x3C2 JUMPI DUP1 PUSH4 0x6A137674 EQ PUSH2 0x3E4 JUMPI PUSH1 0x0 DUP1 REVERT JUMPDEST DUP1 PUSH4 0x38ABF0C9 EQ PUSH2 0x2F8 JUMPI DUP1 PUSH4 0x3A13248F EQ PUSH2 0x31A JUMPI DUP1 PUSH4 0x552E387C EQ PUSH2 0x33C JUMPI DUP1 PUSH4 0x5560F1F8 EQ PUSH2 0x35E JUMPI PUSH1 0x0 DUP1 REVERT JUMPDEST DUP1 PUSH4 0x23312297 GT PUSH2 0x1CD JUMPI DUP1 PUSH4 0x23312297 EQ PUSH2 0x270 JUMPI DUP1 PUSH4 0x243C1D6D EQ PUSH2 0x292 JUMPI DUP1 PUSH4 0x2B72DDBD EQ PUSH2 0x2B4 JUMPI DUP1 PUSH4 0x35A02D73 EQ PUSH2 0x2D6 JUMPI PUSH1 0x0 DUP1 REVERT JUMPDEST DUP1 PUSH4 0x7475084 EQ PUSH2 0x1F4 JUMPI DUP1 PUSH4 0x143C1C36 EQ PUSH2 0x22C JUMPI DUP1 PUSH4 0x1557FF24 EQ PUSH2 0x24E JUMPI JUMPDEST PUSH1 0x0 DUP1 REVERT JUMPDEST PUSH2 0x216 PUSH1 0x40 MLOAD DUP1 PUSH1 0x40 ADD PUSH1 0x40 MSTORE DUP1 PUSH1 0x3 DUP2 MSTORE PUSH1 0x20 ADD PUSH3 0x19981B PUSH1 0xE9 SHL DUP2 MSTORE POP DUP2 JUMP JUMPDEST PUSH1 0x40 MLOAD PUSH2 0x223 SWAP2 SWAP1 PUSH2 0x624 JUMP JUMPDEST PUSH1 0x40 MLOAD DUP1 SWAP2 SUB SWAP1 RETURN JUMPDEST PUSH2 0x216 PUSH1 0x40 MLOAD DUP1 PUSH1 0x40 ADD PUSH1 0x40 MSTORE DUP1 PUSH1 0x3 DUP2 MSTORE PUSH1 0x20 ADD PUSH3 0x19181B PUSH1 0xE9 SHL DUP2 MSTORE POP DUP2 JUMP JUMPDEST PUSH2 0x216 PUSH1 0x40 MLOAD DUP1 PUSH1 0x40 ADD PUSH1 0x40 MSTORE DUP1 PUSH1 0x3 DUP2 MSTORE PUSH1 0x20 ADD PUSH3 0x66607 PUSH1 0xEB SHL DUP2 MSTORE POP DUP2 JUMP JUMPDEST PUSH2 0x216 PUSH1 0x40 MLOAD DUP1 PUSH1 0x40 ADD PUSH1 0x40 MSTORE DUP1 PUSH1 0x3 DUP2 MSTORE PUSH1 0x20 ADD PUSH3 0x323033 PUSH1 0xE8 SHL DUP2 MSTORE POP DUP2 JUMP JUMPDEST PUSH2 0x216 PUSH1 0x40 MLOAD DUP1 PUSH1 0x40 ADD PUSH1 0x40 MSTORE DUP1 PUSH1 0x3 DUP2 MSTORE PUSH1 0x20 ADD PUSH3 0xD0C0D PUSH1 0xEA SHL DUP2 MSTORE POP DUP2 JUMP JUMPDEST PUSH2 0x216 PUSH1 0x40 MLOAD DUP1 PUSH1 0x40 ADD PUSH1 0x40 MSTORE DUP1 PUSH1 0x3 DUP2 MSTORE PUSH1 0x20 ADD PUSH3 0x199819 PUSH1 0xE9 SHL DUP2 MSTORE POP DUP2 JUMP JUMPDEST PUSH2 0x216 PUSH1 0x40 MLOAD DUP1 PUSH1 0x40 ADD PUSH1 0x40 MSTORE DUP1 PUSH1 0x3 DUP2 MSTORE PUSH1 0x20 ADD PUSH3 0x333035 PUSH1 0xE8 SHL DUP2 MSTORE POP DUP2 JUMP JUMPDEST PUSH2 0x216 PUSH1 0x40 MLOAD DUP1 PUSH1 0x40 ADD PUSH1 0x40 MSTORE DUP1 PUSH1 0x3 DUP2 MSTORE PUSH1 0x20 ADD PUSH3 0x191819 PUSH1 0xE9 SHL DUP2 MSTORE POP DUP2 JUMP JUMPDEST PUSH2 0x216 PUSH1 0x40 MLOAD DUP1 PUSH1 0x40 ADD PUSH1 0x40 MSTORE DUP1 PUSH1 0x3 DUP2 MSTORE PUSH1 0x20 ADD PUSH3 0x64607 PUSH1 0xEB SHL DUP2 MSTORE POP DUP2 JUMP JUMPDEST PUSH2 0x216 PUSH1 0x40 MLOAD DUP1 PUSH1 0x40 ADD PUSH1 0x40 MSTORE DUP1 PUSH1 0x3 DUP2 MSTORE PUSH1 0x20 ADD PUSH3 0x313031 PUSH1 0xE8 SHL DUP2 MSTORE POP DUP2 JUMP JUMPDEST PUSH2 0x216 PUSH1 0x40 MLOAD DUP1 PUSH1 0x40 ADD PUSH1 0x40 MSTORE DUP1 PUSH1 0x3 DUP2 MSTORE PUSH1 0x20 ADD PUSH3 0x333033 PUSH1 0xE8 SHL DUP2 MSTORE POP DUP2 JUMP JUMPDEST PUSH2 0x216 PUSH1 0x40 MLOAD DUP1 PUSH1 0x40 ADD PUSH1 0x40 MSTORE DUP1 PUSH1 0x3 DUP2 MSTORE PUSH1 0x20 ADD PUSH3 0x323035 PUSH1 0xE8 SHL DUP2 MSTORE POP DUP2 JUMP JUMPDEST PUSH2 0x3AA PUSH1 0x0 DUP2 JUMP JUMPDEST PUSH1 0x40 MLOAD PUSH1 0x1 PUSH1 0x1 PUSH1 0xA0 SHL SUB SWAP1 SWAP2 AND DUP2 MSTORE PUSH1 0x20 ADD PUSH2 0x223 JUMP JUMPDEST PUSH2 0x216 PUSH1 0x40 MLOAD DUP1 PUSH1 0x40 ADD PUSH1 0x40 MSTORE DUP1 PUSH1 0x3 DUP2 MSTORE PUSH1 0x20 ADD PUSH3 0x323031 PUSH1 0xE8 SHL DUP2 MSTORE POP DUP2 JUMP JUMPDEST PUSH2 0x216 PUSH1 0x40 MLOAD DUP1 PUSH1 0x40 ADD PUSH1 0x40 MSTORE DUP1 PUSH1 0x3 DUP2 MSTORE PUSH1 0x20 ADD PUSH3 0x34303 PUSH1 0xEC SHL DUP2 MSTORE POP DUP2 JUMP JUMPDEST PUSH2 0x216 PUSH1 0x40 MLOAD DUP1 PUSH1 0x40 ADD PUSH1 0x40 MSTORE DUP1 PUSH1 0x3 DUP2 MSTORE PUSH1 0x20 ADD PUSH3 0x31303 PUSH1 0xEC SHL DUP2 MSTORE POP DUP2 JUMP JUMPDEST PUSH2 0x216 PUSH1 0x40 MLOAD DUP1 PUSH1 0x40 ADD PUSH1 0x40 MSTORE DUP1 PUSH1 0x3 DUP2 MSTORE PUSH1 0x20 ADD PUSH3 0x32303 PUSH1 0xEC SHL DUP2 MSTORE POP DUP2 JUMP JUMPDEST PUSH2 0x216 PUSH1 0x40 MLOAD DUP1 PUSH1 0x40 ADD PUSH1 0x40 MSTORE DUP1 PUSH1 0x3 DUP2 MSTORE PUSH1 0x20 ADD PUSH3 0x323039 PUSH1 0xE8 SHL DUP2 MSTORE POP DUP2 JUMP JUMPDEST PUSH2 0x216 PUSH1 0x40 MLOAD DUP1 PUSH1 0x40 ADD PUSH1 0x40 MSTORE DUP1 PUSH1 0x3 DUP2 MSTORE PUSH1 0x20 ADD PUSH3 0x33303 PUSH1 0xEC SHL DUP2 MSTORE POP DUP2 JUMP JUMPDEST PUSH2 0x216 PUSH1 0x40 MLOAD DUP1 PUSH1 0x40 ADD PUSH1 0x40 MSTORE DUP1 PUSH1 0x3 DUP2 MSTORE PUSH1 0x20 ADD PUSH3 0x323037 PUSH1 0xE8 SHL DUP2 MSTORE POP DUP2 JUMP JUMPDEST PUSH2 0x216 PUSH1 0x40 MLOAD DUP1 PUSH1 0x40 ADD PUSH1 0x40 MSTORE DUP1 PUSH1 0x3 DUP2 MSTORE PUSH1 0x20 ADD PUSH3 0x189819 PUSH1 0xE9 SHL DUP2 MSTORE POP DUP2 JUMP JUMPDEST PUSH2 0x216 PUSH1 0x40 MLOAD DUP1 PUSH1 0x40 ADD PUSH1 0x40 MSTORE DUP1 PUSH1 0x3 DUP2 MSTORE PUSH1 0x20 ADD PUSH3 0x343031 PUSH1 0xE8 SHL DUP2 MSTORE POP DUP2 JUMP JUMPDEST PUSH2 0x216 PUSH1 0x40 MLOAD DUP1 PUSH1 0x40 ADD PUSH1 0x40 MSTORE DUP1 PUSH1 0x3 DUP2 MSTORE PUSH1 0x20 ADD PUSH3 0x333031 PUSH1 0xE8 SHL DUP2 MSTORE POP DUP2 JUMP JUMPDEST PUSH2 0x216 PUSH1 0x40 MLOAD DUP1 PUSH1 0x40 ADD PUSH1 0x40 MSTORE DUP1 PUSH1 0x3 DUP2 MSTORE PUSH1 0x20 ADD PUSH3 0x343033 PUSH1 0xE8 SHL DUP2 MSTORE POP DUP2 JUMP JUMPDEST PUSH2 0x216 PUSH1 0x40 MLOAD DUP1 PUSH1 0x40 ADD PUSH1 0x40 MSTORE DUP1 PUSH1 0x1 DUP2 MSTORE PUSH1 0x20 ADD PUSH1 0x3 PUSH1 0xFC SHL DUP2 MSTORE POP DUP2 JUMP JUMPDEST PUSH2 0x216 PUSH1 0x40 MLOAD DUP1 PUSH1 0x40 ADD PUSH1 0x40 MSTORE DUP1 PUSH1 0x3 DUP2 MSTORE PUSH1 0x20 ADD PUSH3 0x333037 PUSH1 0xE8 SHL DUP2 MSTORE POP DUP2 JUMP JUMPDEST PUSH2 0x216 PUSH1 0x40 MLOAD DUP1 PUSH1 0x40 ADD PUSH1 0x40 MSTORE DUP1 PUSH1 0x3 DUP2 MSTORE PUSH1 0x20 ADD PUSH3 0xCCC0D PUSH1 0xEA SHL DUP2 MSTORE POP DUP2 JUMP JUMPDEST PUSH2 0x216 PUSH1 0x40 MLOAD DUP1 PUSH1 0x40 ADD PUSH1 0x40 MSTORE DUP1 PUSH1 0x3 DUP2 MSTORE PUSH1 0x20 ADD PUSH3 0x333039 PUSH1 0xE8 SHL DUP2 MSTORE POP DUP2 JUMP JUMPDEST PUSH2 0x216 PUSH1 0x40 MLOAD DUP1 PUSH1 0x40 ADD PUSH1 0x40 MSTORE DUP1 PUSH1 0x3 DUP2 MSTORE PUSH1 0x20 ADD PUSH3 0x32313 PUSH1 0xEC SHL DUP2 MSTORE POP DUP2 JUMP JUMPDEST PUSH2 0x216 PUSH1 0x40 MLOAD DUP1 PUSH1 0x40 ADD PUSH1 0x40 MSTORE DUP1 PUSH1 0x3 DUP2 MSTORE PUSH1 0x20 ADD PUSH3 0x1A1819 PUSH1 0xE9 SHL DUP2 MSTORE POP DUP2 JUMP JUMPDEST PUSH2 0x216 PUSH1 0x40 MLOAD DUP1 PUSH1 0x40 ADD PUSH1 0x40 MSTORE DUP1 PUSH1 0x3 DUP2 MSTORE PUSH1 0x20 ADD PUSH3 0xC8C0D PUSH1 0xEA SHL DUP2 MSTORE POP DUP2 JUMP JUMPDEST PUSH1 0x0 PUSH1 0x20 DUP1 DUP4 MSTORE DUP4 MLOAD DUP1 DUP3 DUP6 ADD MSTORE PUSH1 0x0 JUMPDEST DUP2 DUP2 LT ISZERO PUSH2 0x651 JUMPI DUP6 DUP2 ADD DUP4 ADD MLOAD DUP6 DUP3 ADD PUSH1 0x40 ADD MSTORE DUP3 ADD PUSH2 0x635 JUMP JUMPDEST DUP2 DUP2 GT ISZERO PUSH2 0x663 JUMPI PUSH1 0x0 PUSH1 0x40 DUP4 DUP8 ADD ADD MSTORE JUMPDEST POP PUSH1 0x1F ADD PUSH1 0x1F NOT AND SWAP3 SWAP1 SWAP3 ADD PUSH1 0x40 ADD SWAP4 SWAP3 POP POP POP JUMP INVALID LOG2 PUSH5 0x6970667358 0x22 SLT KECCAK256 PUSH31 0xAC8F5241AE5F1EDB5811A8E2C2FED85A53C280FA37595506608B8792C9F822 PUSH5 0x736F6C6343 STOP ADDMOD 0xC STOP CALLER "},"methodIdentifiers":{"DAO_VESTING_ERROR_ADDR()":"f9e93731","ERC20_BALANCE_INVALID()":"e81216b5","ERC20_NOT_APPROVED()":"35a02d73","ERC_20_NOT_ALLOW()":"d5bec685","ERC_721_NOT_APPROVED()":"c059011b","FORBIDDEN_TRANSFER_PROJECT()":"ef494c25","INVALID_ERC721_OWNER()":"90131fab","INV_ADD()":"72670508","INV_FEE_PROJECT()":"652b7f31","INV_PARAMS()":"feff83c3","INV_PROJECT()":"38abf0c9","INV_TOKEN()":"8cb739c6","MISSING_NAME()":"86f8148f","OFFERING_CLOSED()":"2b72ddbd","ONLY_ADMIN_ALLOWED()":"552e387c","ONLY_CREATOR()":"b746287b","OPENING_SCHEDULE()":"3a13248f","POA_INVALID_TOKEN()":"6a137674","REACH_MAX()":"23312297","SUCCESS()":"d0a6d1a6","TEAM_VESTING_ERROR_ADDR()":"b92436e0","TOKEN_HAS_SEED()":"143c1c36","TOO_HIGH()":"585c081c","TRANSFER_FAIL()":"07475084","VALUE_INVALID()":"5560f1f8","VESTING_REMAIN()":"243c1d6d","VESTING_TIME_LOCK()":"c3679ee5","ZERO_ADDR()":"63731080","ZERO_DURATION()":"ec94a577","ZERO_PRICE()":"1557ff24","ZERO_SEED()":"9bf3cfe3"}},"storageLayout":{"storage":[],"types":null}}}}