{"contracts/libs/configs/GenerativeProjectDataConfigs.sol":{"GenerativeProjectDataConfigs":{"abi":[{"inputs":[],"name":"BASE_URI","outputs":[{"internalType":"string","name":"","type":"string"}],"stateMutability":"view","type":"function"},{"inputs":[],"name":"BASE_URI_TRAIT","outputs":[{"internalType":"string","name":"","type":"string"}],"stateMutability":"view","type":"function"},{"inputs":[],"name":"RANDOM_FUNC_SCRIPT","outputs":[{"internalType":"string","name":"","type":"string"}],"stateMutability":"view","type":"function"}],"evm":{"bytecode":{"linkReferences":{},"object":"61017661003a600b82828239805160001a60731461002d57634e487b7160e01b600052600060045260246000fd5b30600052607381538281f3fe730000000000000000000000000000000000000000301460806040526004361061004b5760003560e01c80635a2d9052146100505780638be4333a14610093578063dbddb26a146100c4575b600080fd5b61007d6040518060400160405280600e81526020016d109054d157d5549257d51490525560921b81525081565b60405161008a91906100eb565b60405180910390f35b61007d604051806040016040528060128152602001711490539113d357d1955390d7d4d0d492541560721b81525081565b61007d60405180604001604052806008815260200167424153455f55524960c01b81525081565b600060208083528351808285015260005b81811015610118578581018301518582016040015282016100fc565b8181111561012a576000604083870101525b50601f01601f191692909201604001939250505056fea2646970667358221220aac55554bd5b13578f90478354a55e2600b3cc6e3c32f372abd0a2104589f31c64736f6c634300080c0033","opcodes":"PUSH2 0x176 PUSH2 0x3A PUSH1 0xB DUP3 DUP3 DUP3 CODECOPY DUP1 MLOAD PUSH1 0x0 BYTE PUSH1 0x73 EQ PUSH2 0x2D JUMPI PUSH4 0x4E487B71 PUSH1 0xE0 SHL PUSH1 0x0 MSTORE PUSH1 0x0 PUSH1 0x4 MSTORE PUSH1 0x24 PUSH1 0x0 REVERT JUMPDEST ADDRESS PUSH1 0x0 MSTORE PUSH1 0x73 DUP2 MSTORE8 DUP3 DUP2 RETURN INVALID PUSH20 0x0 ADDRESS EQ PUSH1 0x80 PUSH1 0x40 MSTORE PUSH1 0x4 CALLDATASIZE LT PUSH2 0x4B JUMPI PUSH1 0x0 CALLDATALOAD PUSH1 0xE0 SHR DUP1 PUSH4 0x5A2D9052 EQ PUSH2 0x50 JUMPI DUP1 PUSH4 0x8BE4333A EQ PUSH2 0x93 JUMPI DUP1 PUSH4 0xDBDDB26A EQ PUSH2 0xC4 JUMPI JUMPDEST PUSH1 0x0 DUP1 REVERT JUMPDEST PUSH2 0x7D PUSH1 0x40 MLOAD DUP1 PUSH1 0x40 ADD PUSH1 0x40 MSTORE DUP1 PUSH1 0xE DUP2 MSTORE PUSH1 0x20 ADD PUSH14 0x109054D157D5549257D514905255 PUSH1 0x92 SHL DUP2 MSTORE POP DUP2 JUMP JUMPDEST PUSH1 0x40 MLOAD PUSH2 0x8A SWAP2 SWAP1 PUSH2 0xEB JUMP JUMPDEST PUSH1 0x40 MLOAD DUP1 SWAP2 SUB SWAP1 RETURN JUMPDEST PUSH2 0x7D PUSH1 0x40 MLOAD DUP1 PUSH1 0x40 ADD PUSH1 0x40 MSTORE DUP1 PUSH1 0x12 DUP2 MSTORE PUSH1 0x20 ADD PUSH18 0x1490539113D357D1955390D7D4D0D4925415 PUSH1 0x72 SHL DUP2 MSTORE POP DUP2 JUMP JUMPDEST PUSH2 0x7D PUSH1 0x40 MLOAD DUP1 PUSH1 0x40 ADD PUSH1 0x40 MSTORE DUP1 PUSH1 0x8 DUP2 MSTORE PUSH1 0x20 ADD PUSH8 0x424153455F555249 PUSH1 0xC0 SHL DUP2 MSTORE POP DUP2 JUMP JUMPDEST PUSH1 0x0 PUSH1 0x20 DUP1 DUP4 MSTORE DUP4 MLOAD DUP1 DUP3 DUP6 ADD MSTORE PUSH1 0x0 JUMPDEST DUP2 DUP2 LT ISZERO PUSH2 0x118 JUMPI DUP6 DUP2 ADD DUP4 ADD MLOAD DUP6 DUP3 ADD PUSH1 0x40 ADD MSTORE DUP3 ADD PUSH2 0xFC JUMP JUMPDEST DUP2 DUP2 GT ISZERO PUSH2 0x12A JUMPI PUSH1 0x0 PUSH1 0x40 DUP4 DUP8 ADD ADD MSTORE JUMPDEST POP PUSH1 0x1F ADD PUSH1 0x1F NOT AND SWAP3 SWAP1 SWAP3 ADD PUSH1 0x40 ADD SWAP4 SWAP3 POP POP POP JUMP INVALID LOG2 PUSH5 0x6970667358 0x22 SLT KECCAK256 0xAA 0xC5 SSTORE SLOAD 0xBD JUMPDEST SGT JUMPI DUP16 SWAP1 SELFBALANCE DUP4 SLOAD 0xA5 0x5E 0x26 STOP 0xB3 0xCC PUSH15 0x3C32F372ABD0A2104589F31C64736F PUSH13 0x634300080C0033000000000000 "},"methodIdentifiers":{"BASE_URI()":"dbddb26a","BASE_URI_TRAIT()":"5a2d9052","RANDOM_FUNC_SCRIPT()":"8be4333a"}},"storageLayout":{"storage":[],"types":null}}}}