{"contracts/services/AdvanceMarketplaceService.sol":{"AdvanceMarketplaceService":{"abi":[{"anonymous":false,"inputs":[{"indexed":false,"internalType":"uint8","name":"version","type":"uint8"}],"name":"Initialized","type":"event"},{"inputs":[],"name":"_admin","outputs":[{"internalType":"address","name":"","type":"address"}],"stateMutability":"view","type":"function"},{"inputs":[{"internalType":"address","name":"","type":"address"}],"name":"_allowableERC20MakeListToken","outputs":[{"internalType":"bool","name":"","type":"bool"}],"stateMutability":"view","type":"function"},{"inputs":[{"internalType":"address","name":"","type":"address"}],"name":"_allowableERC20MakeOffer","outputs":[{"internalType":"bool","name":"","type":"bool"}],"stateMutability":"view","type":"function"},{"inputs":[{"internalType":"uint256","name":"","type":"uint256"}],"name":"_arrayListingId","outputs":[{"internalType":"bytes32","name":"","type":"bytes32"}],"stateMutability":"view","type":"function"},{"inputs":[{"internalType":"uint256","name":"","type":"uint256"}],"name":"_arrayMakeOfferId","outputs":[{"internalType":"bytes32","name":"","type":"bytes32"}],"stateMutability":"view","type":"function"},{"inputs":[{"internalType":"address","name":"","type":"address"},{"internalType":"uint256","name":"","type":"uint256"},{"internalType":"uint256","name":"","type":"uint256"}],"name":"_listingTokenDataMapping","outputs":[{"internalType":"address","name":"_collectionContract","type":"address"},{"internalType":"uint256","name":"_tokenId","type":"uint256"},{"internalType":"address","name":"_seller","type":"address"},{"internalType":"address","name":"_erc20Token","type":"address"},{"internalType":"uint256","name":"_price","type":"uint256"},{"internalType":"bool","name":"_closed","type":"bool"},{"internalType":"uint256","name":"_durationTime","type":"uint256"}],"stateMutability":"view","type":"function"},{"inputs":[{"internalType":"address","name":"","type":"address"},{"internalType":"uint256","name":"","type":"uint256"}],"name":"_listingTokenIds","outputs":[{"internalType":"uint256","name":"","type":"uint256"}],"stateMutability":"view","type":"function"},{"inputs":[{"internalType":"bytes32","name":"","type":"bytes32"}],"name":"_listingTokens","outputs":[{"internalType":"address","name":"_collectionContract","type":"address"},{"internalType":"uint256","name":"_tokenId","type":"uint256"},{"internalType":"address","name":"_seller","type":"address"},{"internalType":"address","name":"_erc20Token","type":"address"},{"internalType":"uint256","name":"_price","type":"uint256"},{"internalType":"bool","name":"_closed","type":"bool"},{"internalType":"uint256","name":"_durationTime","type":"uint256"}],"stateMutability":"view","type":"function"},{"inputs":[{"internalType":"address","name":"","type":"address"},{"internalType":"uint256","name":"","type":"uint256"},{"internalType":"uint256","name":"","type":"uint256"}],"name":"_makeOfferDataMapping","outputs":[{"internalType":"address","name":"_collectionContract","type":"address"},{"internalType":"uint256","name":"_tokenId","type":"uint256"},{"internalType":"address","name":"_buyer","type":"address"},{"internalType":"address","name":"_erc20Token","type":"address"},{"internalType":"uint256","name":"_price","type":"uint256"},{"internalType":"bool","name":"_closed","type":"bool"},{"internalType":"uint256","name":"_durationTime","type":"uint256"}],"stateMutability":"view","type":"function"},{"inputs":[{"internalType":"address","name":"","type":"address"},{"internalType":"uint256","name":"","type":"uint256"}],"name":"_makeOfferTokenIds","outputs":[{"internalType":"uint256","name":"","type":"uint256"}],"stateMutability":"view","type":"function"},{"inputs":[{"internalType":"bytes32","name":"","type":"bytes32"}],"name":"_makeOfferTokens","outputs":[{"internalType":"address","name":"_collectionContract","type":"address"},{"internalType":"uint256","name":"_tokenId","type":"uint256"},{"internalType":"address","name":"_buyer","type":"address"},{"internalType":"address","name":"_erc20Token","type":"address"},{"internalType":"uint256","name":"_price","type":"uint256"},{"internalType":"bool","name":"_closed","type":"bool"},{"internalType":"uint256","name":"_durationTime","type":"uint256"}],"stateMutability":"view","type":"function"},{"inputs":[],"name":"_parameterAddr","outputs":[{"internalType":"address","name":"","type":"address"}],"stateMutability":"view","type":"function"},{"inputs":[{"internalType":"bytes32","name":"offerId","type":"bytes32"}],"name":"acceptMakeOffer","outputs":[],"stateMutability":"nonpayable","type":"function"},{"inputs":[{"internalType":"bytes32","name":"_offeringId","type":"bytes32"}],"name":"cancelListing","outputs":[],"stateMutability":"nonpayable","type":"function"},{"inputs":[{"internalType":"bytes32","name":"offerId","type":"bytes32"}],"name":"cancelMakeOffer","outputs":[],"stateMutability":"nonpayable","type":"function"},{"inputs":[{"internalType":"address","name":"newAdm","type":"address"}],"name":"changeAdmin","outputs":[],"stateMutability":"nonpayable","type":"function"},{"inputs":[{"internalType":"address","name":"newAddr","type":"address"}],"name":"changeParamAddr","outputs":[],"stateMutability":"nonpayable","type":"function"},{"inputs":[{"internalType":"address","name":"admin","type":"address"},{"internalType":"address","name":"parameterControl","type":"address"}],"name":"initialize","outputs":[],"stateMutability":"nonpayable","type":"function"},{"inputs":[{"components":[{"internalType":"address","name":"_collectionContract","type":"address"},{"internalType":"uint256","name":"_tokenId","type":"uint256"},{"internalType":"address","name":"_seller","type":"address"},{"internalType":"address","name":"_erc20Token","type":"address"},{"internalType":"uint256","name":"_price","type":"uint256"},{"internalType":"bool","name":"_closed","type":"bool"},{"internalType":"uint256","name":"_durationTime","type":"uint256"}],"internalType":"struct Marketplace.ListingTokenData","name":"listingData","type":"tuple"}],"name":"listToken","outputs":[{"internalType":"bytes32","name":"","type":"bytes32"}],"stateMutability":"nonpayable","type":"function"},{"inputs":[{"components":[{"internalType":"address","name":"_collectionContract","type":"address"},{"internalType":"uint256","name":"_tokenId","type":"uint256"},{"internalType":"address","name":"_buyer","type":"address"},{"internalType":"address","name":"_erc20Token","type":"address"},{"internalType":"uint256","name":"_price","type":"uint256"},{"internalType":"bool","name":"_closed","type":"bool"},{"internalType":"uint256","name":"_durationTime","type":"uint256"}],"internalType":"struct Marketplace.MakeOfferData","name":"makeOfferData","type":"tuple"}],"name":"makeOffer","outputs":[{"internalType":"bytes32","name":"","type":"bytes32"}],"stateMutability":"nonpayable","type":"function"},{"inputs":[{"internalType":"bytes32","name":"offeringId","type":"bytes32"}],"name":"purchaseToken","outputs":[],"stateMutability":"payable","type":"function"},{"inputs":[{"internalType":"address","name":"erc20","type":"address"},{"internalType":"bool","name":"allow","type":"bool"}],"name":"setApproveERC20ListToken","outputs":[],"stateMutability":"nonpayable","type":"function"},{"inputs":[{"internalType":"address","name":"erc20","type":"address"},{"internalType":"bool","name":"allow","type":"bool"}],"name":"setApproveERC20MakeOffer","outputs":[],"stateMutability":"nonpayable","type":"function"},{"inputs":[{"internalType":"bytes32[]","name":"offers","type":"bytes32[]"}],"name":"sweep","outputs":[],"stateMutability":"payable","type":"function"},{"inputs":[{"internalType":"address","name":"receiver","type":"address"},{"internalType":"address","name":"erc20Addr","type":"address"},{"internalType":"uint256","name":"amount","type":"uint256"}],"name":"withdraw","outputs":[],"stateMutability":"nonpayable","type":"function"}],"evm":{"bytecode":{"linkReferences":{},"object":"608060405234801561001057600080fd5b50613731806100206000396000f3fe6080604052600436106101665760003560e01c8063a25d6dce116100d1578063d9e87e611161008a578063ed4ec20111610064578063ed4ec2011461052b578063f1f2df0e1461054b578063f40cb02d1461056b578063febfd6c31461058b57600080fd5b8063d9e87e61146104cb578063e5026b8b146104eb578063eab651d81461050b57600080fd5b8063a25d6dce146103b1578063a3a1937c146103d1578063bd7ec0c21461043b578063d299a0861461046b578063d2abb69c1461048b578063d9caed12146104ab57600080fd5b80635b06e64a116101235780635b06e64a146102de5780636852168a1461031e57806372c035cf146103315780638f283970146103515780639142e6a8146103715780639299e5521461039157600080fd5b806301bc45c91461016b57806314646f6d146101a85780631fd4d2ed146102115780633ac1089a1461023f5780633dd72c4014610254578063485cc955146102be575b600080fd5b34801561017757600080fd5b5060345461018b906001600160a01b031681565b6040516001600160a01b0390911681526020015b60405180910390f35b3480156101b457600080fd5b506101c86101c3366004613071565b6105ab565b604080516001600160a01b039889168152602081019790975294871694860194909452949091166060840152608083015291151560a082015260c081019190915260e00161019f565b34801561021d57600080fd5b5061023161022c3660046130a6565b610624565b60405190815260200161019f565b61025261024d3660046130a6565b610645565b005b34801561026057600080fd5b506101c861026f3660046130a6565b60386020526000908152604090208054600182015460028301546003840154600485015460058601546006909601546001600160a01b03958616969495938416949290931692909160ff169087565b3480156102ca57600080fd5b506102526102d93660046130bf565b610662565b3480156102ea57600080fd5b5061030e6102f93660046130f8565b603f6020526000908152604090205460ff1681565b604051901515815260200161019f565b61025261032c366004613163565b610739565b34801561033d57600080fd5b5060355461018b906001600160a01b031681565b34801561035d57600080fd5b5061025261036c3660046130f8565b61089e565b34801561037d57600080fd5b5061025261038c366004613217565b610930565b34801561039d57600080fd5b506102526103ac3660046130a6565b6109a2565b3480156103bd57600080fd5b506102316103cc366004613245565b6109ab565b3480156103dd57600080fd5b506101c86103ec3660046130a6565b60366020526000908152604090208054600182015460028301546003840154600485015460058601546006909601546001600160a01b03958616969495938416949290931692909160ff169087565b34801561044757600080fd5b5061030e6104563660046130f8565b603e6020526000908152604090205460ff1681565b34801561047757600080fd5b506101c8610486366004613071565b6109dc565b34801561049757600080fd5b506102316104a6366004613317565b610a04565b3480156104b757600080fd5b506102526104c6366004613333565b610b53565b3480156104d757600080fd5b506102526104e63660046130a6565b610cad565b3480156104f757600080fd5b50610252610506366004613217565b610cbe565b34801561051757600080fd5b50610231610526366004613245565b610d30565b34801561053757600080fd5b506102316105463660046130a6565b610d4c565b34801561055757600080fd5b506102526105663660046130a6565b610d5c565b34801561057757600080fd5b50610231610586366004613317565b610d65565b34801561059757600080fd5b506102526105a63660046130f8565b610eb4565b603c60205282600052604060002060205281600052604060002081815481106105d357600080fd5b600091825260209091206007909102018054600182015460028301546003840154600485015460058601546006909601546001600160a01b03958616995093975091841695509092169260ff169087565b6039818154811061063457600080fd5b600091825260209091200154905081565b61064d610f46565b61065681610fa0565b61065f60018055565b50565b600054610100900460ff16158080156106825750600054600160ff909116105b8061069c5750303b15801561069c575060005460ff166001145b6106c15760405162461bcd60e51b81526004016106b890613374565b60405180910390fd5b6000805460ff1916600117905580156106e4576000805461ff0019166101001790555b6106ee8383611b41565b8015610734576000805461ff0019169055604051600181527f7f26b83ff96e1f2b6a682f133852f6798a09c465da95921460cefb38474024989060200160405180910390a15b505050565b610741610f46565b60648151111561075057600080fd5b6000815167ffffffffffffffff81111561076c5761076c61311c565b604051908082528060200260200182016040528015610795578160200160208202803683370190505b50905060005b825181101561085c57620493e05a10156107b45761085c565b603660008483815181106107ca576107ca6133c2565b60209081029190910181015182528101919091526040016000206005015460ff1661084a57610811838281518110610804576108046133c2565b6020026020010151610fa0565b828181518110610823576108236133c2565b602002602001015182828151811061083d5761083d6133c2565b6020026020010181815250505b80610854816133ee565b91505061079b565b507f158dd3c50fd0d637d65e59a4fe2a179d6ec485730ab6a010b2329e8f0484c8b88160405161088c9190613409565b60405180910390a15061065f60018055565b6034546001600160a01b0316331480156108c057506001600160a01b03811615155b6040518060400160405280600381526020016231303160e81b815250906108fa5760405162461bcd60e51b81526004016106b8919061347d565b506034546001600160a01b0382811691161461065f57603480546001600160a01b0383166001600160a01b031990911617905550565b60345460408051808201909152600381526231303160e81b6020820152906001600160a01b031633146109765760405162461bcd60e51b81526004016106b8919061347d565b506001600160a01b03919091166000908152603e60205260409020805460ff1916911515919091179055565b61065f81611c76565b603d60205281600052604060002081815481106109c757600080fd5b90600052602060002001600091509150505481565b603a60205282600052604060002060205281600052604060002081815481106105d357600080fd5b60608101516001600160a01b03166000908152603e60209081526040808320548151808301909252600382526233303760e81b928201929092529060ff16610a5f5760405162461bcd60e51b81526004016106b8919061347d565b506000610a6b83611d48565b600081815260386020908152604080832080546001600160a01b039081168552603c845282852060018084018054885291865284872080548083018255908852868820855460079092020180549185166001600160a01b031992831617815583548184015560028087015490820180549187169184169190911790556003808701549082018054918716919093161790915560048086015490820155600580860154908201805460ff191660ff909216151591909117905560068086015491015592549091168552603d84529184209154825491820183559184529190922001559392505050565b610b5b610f46565b60345460408051808201909152600381526231303160e81b6020820152906001600160a01b03163314610ba15760405162461bcd60e51b81526004016106b8919061347d565b5060006001600160a01b038316610c225781471015610bbf57600080fd5b6040516001600160a01b038516908390600081818185875af1925050503d8060008114610c08576040519150601f19603f3d011682016040523d82523d6000602084013e610c0d565b606091505b50508091505080610c1d57600080fd5b610ca3565b60405163a9059cbb60e01b81526001600160a01b0385811660048301526024820184905284919082169063a9059cbb906044016020604051808303816000875af1158015610c74573d6000803e3d6000fd5b505050506040513d601f19601f82011682018060405250810190610c9891906134b0565b610ca157600080fd5b505b5061073460018055565b610cb5610f46565b61065681612033565b60345460408051808201909152600381526231303160e81b6020820152906001600160a01b03163314610d045760405162461bcd60e51b81526004016106b8919061347d565b506001600160a01b03919091166000908152603f60205260409020805460ff1916911515919091179055565b603b60205281600052604060002081815481106109c757600080fd5b6037818154811061063457600080fd5b61065f816129ac565b60608101516001600160a01b03166000908152603f60209081526040808320548151808301909252600382526233303760e81b928201929092529060ff16610dc05760405162461bcd60e51b81526004016106b8919061347d565b506000610dcc83612a73565b600081815260366020908152604080832080546001600160a01b039081168552603a845282852060018084018054885291865284872080548083018255908852868820855460079092020180549185166001600160a01b031992831617815583548184015560028087015490820180549187169184169190911790556003808701549082018054918716919093161790915560048086015490820155600580860154908201805460ff191660ff909216151591909117905560068086015491015592549091168552603b84529184209154825491820183559184529190922001559392505050565b6034546001600160a01b031633148015610ed657506001600160a01b03811615155b6040518060400160405280600381526020016231303160e81b81525090610f105760405162461bcd60e51b81526004016106b8919061347d565b506035546001600160a01b0382811691161461065f57603580546001600160a01b0383166001600160a01b031990911617905550565b60026001541415610f995760405162461bcd60e51b815260206004820152601f60248201527f5265656e7472616e637947756172643a207265656e7472616e742063616c6c0060448201526064016106b8565b6002600155565b600081815260366020908152604091829020825160e08101845281546001600160a01b03908116825260018301549382019390935260028201548316938101939093526003810154909116606083015260048101546080830152600581015460ff1615801560a0840181905260069092015460c08401529061102557508060c0015142105b6040518060400160405280600381526020016219981960e91b8152509061105f5760405162461bcd60e51b81526004016106b8919061347d565b506000828152603660209081526040808320600501805460ff191660011790558351606080860151835160e08101855286815294850186905292840185905283018490526080830184905260a0830184905260c08301939093526001600160a01b03161515906000821561122457846060015190506040518060e00160405280336001600160a01b0316815260200186604001516001600160a01b031681526020018660800151815260200186608001518152602001826001600160a01b03166370a08231336040518263ffffffff1660e01b815260040161115091906001600160a01b0391909116815260200190565b602060405180830381865afa15801561116d573d6000803e3d6000fd5b505050506040513d601f19601f8201168201806040525081019061119191906134cd565b8152604051636eb1769f60e11b81523360048201523060248201526020909101906001600160a01b0384169063dd62ed3e90604401602060405180830381865afa1580156111e3573d6000803e3d6000fd5b505050506040513d601f19601f8201168201806040525081019061120791906134cd565b815260200186606001516001600160a01b03168152509150611284565b6040518060e00160405280336001600160a01b0316815260200186604001516001600160a01b031681526020018660800151815260200186608001518152602001600081526020016000815260200160006001600160a01b031681525091505b84604001516001600160a01b0316846001600160a01b0316636352211e87602001516040518263ffffffff1660e01b81526004016112c491815260200190565b602060405180830381865afa1580156112e1573d6000803e3d6000fd5b505050506040513d601f19601f8201168201806040525081019061130591906134e6565b6001600160a01b0316146040518060400160405280600381526020016203330360ec1b815250906113495760405162461bcd60e51b81526004016106b8919061347d565b5082156113db5760408083015160a08401518251808401909352600383526233303560e81b602084015210156113925760405162461bcd60e51b81526004016106b8919061347d565b506040808301516080840151825180840190935260038352620ccc0d60ea1b602084015210156113d55760405162461bcd60e51b81526004016106b8919061347d565b5061141b565b6040808301518151808301909252600382526233303360e81b60208301523410156114195760405162461bcd60e51b81526004016106b8919061347d565b505b602080830151835191870151604051632142170760e11b81526001600160a01b038816936342842e0e93611453939092600401613503565b600060405180830381600087803b15801561146d57600080fd5b505af1158015611481573d6000803e3d6000fd5b50506035546040805160808101825260008082526020808301829052828401829052606083019190915282518084018452601b81527f4d41524b4554504c4143455f42454e454649545f50455243454e540000000000918101919091529151636d12dce160e01b81526001600160a01b03909316945092508391636d12dce19161150d9160040161347d565b602060405180830381865afa15801561152a573d6000803e3d6000fd5b505050506040513d601f19601f8201168201806040525081019061154e91906134cd565b604082018190526115615760fa60408201525b6040810151156115a857612710816040015185606001516115829190613527565b61158c9190613546565b606082018190526040850180516115a4908390613568565b9052505b6040516301ffc9a760e01b815263152a902d60e11b60048201526001600160a01b038716906301ffc9a790602401602060405180830381865afa1580156115f3573d6000803e3d6000fd5b505050506040513d601f19601f8201168201806040525081019061161791906134b0565b156116ce5786516020880151606086015160405163152a902d60e11b81526004810192909252602482015260009081906001600160a01b03841690632a55205a906044016040805180830381865afa158015611677573d6000803e3d6000fd5b505050506040513d601f19601f8201168201806040525081019061169b919061357f565b602086018190526001600160a01b038216865260408901805192945090925082916116c7908390613568565b9052505050505b841561194457835160608501516040516323b872dd60e01b81526001600160a01b038616926323b872dd9261170892309190600401613503565b6020604051808303816000875af1158015611727573d6000803e3d6000fd5b505050506040513d601f19601f8201168201806040525081019061174b91906134b0565b6040518060400160405280600381526020016219981b60e91b815250906117855760405162461bcd60e51b81526004016106b8919061347d565b5060408088015185820151915163a9059cbb60e01b81526001600160a01b039182166004820152602481019290925284169063a9059cbb906044016020604051808303816000875af11580156117df573d6000803e3d6000fd5b505050506040513d601f19601f8201168201806040525081019061180391906134b0565b6040518060400160405280600381526020016219981b60e91b8152509061183d5760405162461bcd60e51b81526004016106b8919061347d565b5080516001600160a01b03161580159061185b575060008160200151115b1561193f578051602082015160405163a9059cbb60e01b81526001600160a01b0386169263a9059cbb926118a5926004016001600160a01b03929092168252602082015260400190565b6020604051808303816000875af11580156118c4573d6000803e3d6000fd5b505050506040513d601f19601f820116820180604052508101906118e891906134b0565b6040518060400160405280600381526020016219981b60e91b815250906119225760405162461bcd60e51b81526004016106b8919061347d565b5061193f8160000151886020015189606001518460200151612da7565b611ae7565b60408051808201909152600381526233303360e81b60208201524761197c5760405162461bcd60e51b81526004016106b8919061347d565b50600087604001516001600160a01b0316856040015160405160006040518083038185875af1925050503d80600081146119d2576040519150601f19603f3d011682016040523d82523d6000602084013e6119d7565b606091505b505060408051808201909152600381526219981b60e91b602082015290915081611a145760405162461bcd60e51b81526004016106b8919061347d565b5081516001600160a01b031615801590611a32575060008260200151115b15611ae557815160208301516040516001600160a01b0390921691600081818185875af1925050503d8060008114611a86576040519150601f19603f3d011682016040523d82523d6000602084013e611a8b565b606091505b505060408051808201909152600381526219981b60e91b602082015290915081611ac85760405162461bcd60e51b81526004016106b8919061347d565b50611ae5826000015189602001518a606001518560200151612da7565b505b877fe06095b27616fe3bacd030b307fd111d7774afa5176a7cfd0863f3e8e8904b71603660008b8152602001908152602001600020604051611b2991906135ad565b60405180910390a25050505050505050565b60018055565b600054610100900460ff1615808015611b615750600054600160ff909116105b80611b7b5750303b158015611b7b575060005460ff166001145b611b975760405162461bcd60e51b81526004016106b890613374565b6000805460ff191660011790558015611bba576000805461ff0019166101001790555b60408051808201909152600381526203130360ec1b60208201526001600160a01b038416611bfb5760405162461bcd60e51b81526004016106b8919061347d565b5060408051808201909152600381526203130360ec1b60208201526001600160a01b038316611c3d5760405162461bcd60e51b81526004016106b8919061347d565b50603480546001600160a01b038086166001600160a01b03199283161790925560358054928516929091169190911790556106ee612e8e565b600081815260366020908152604091829020600201548251808401909352600383526203330360ec1b918301919091526001600160a01b03163314611cce5760405162461bcd60e51b81526004016106b8919061347d565b5060008181526036602052604090206005015460ff1615611cee57600080fd5b6000818152603660205260409081902060058101805460ff19166001179055905182917f0f9936e2210c5cb61170d9da568110dc1426511cd2a1ffabe518cb3f12791c3291611d3d91906135ad565b60405180910390a250565b606081015160408051808201909152600381526203130360ec1b60208201526000916001600160a01b0316611d905760405162461bcd60e51b81526004016106b8919061347d565b50815160408051808201909152600381526203130360ec1b6020820152906001600160a01b0316611dd45760405162461bcd60e51b81526004016106b8919061347d565b5060008260800151116040518060400160405280600381526020016206660760eb1b81525090611e175760405162461bcd60e51b81526004016106b8919061347d565b5060008260c00151116040518060400160405280600381526020016233303960e81b81525090611e5a5760405162461bcd60e51b81526004016106b8919061347d565b5060608201516080830151604051636eb1769f60e11b81523360048201523060248201526001600160a01b0383169063dd62ed3e90604401602060405180830381865afa158015611eaf573d6000803e3d6000fd5b505050506040513d601f19601f82011682018060405250810190611ed391906134cd565b1015611ede57600080fd5b60338054906000611eee836133ee565b91905055506000611f00603354612ebf565b84516020860151611f1090612ebf565b604051602001611f2293929190613609565b60408051808303601f190181528282528051602091820120600081815260388352928320885181546001600160a01b03199081166001600160a01b03928316178355938a015160018084019190915560028301805460608d01516003860180548916919095161790935560808c0151600485015560a08c015160058501805460ff191691151591909117905560c08c01516006909401939093559316331790556039805492830181559092527fdc16fef70f8d5ddbc01ee3d903d1e69c18a3c7be080eb86a81e0578814ee58d301819055915081907f1101875263abf1b7c3fc9cf51275180975f69f768a3c09e1b453fa0cad6f29b190612024908790613655565b60405180910390a29392505050565b600081815260386020908152604091829020825160e08101845281546001600160a01b03908116825260018301549382019390935260028201548316938101939093526003810154909116606083015260048101546080830152600581015460ff1615801560a0840181905260069092015460c0840152906120b857508060c0015142105b6040518060400160405280600381526020016219981960e91b815250906120f25760405162461bcd60e51b81526004016106b8919061347d565b50600082815260386020908152604091829020600501805460ff1916600117905582519083015191516331a9108f60e11b8152909133916001600160a01b03841691636352211e9161214b919060040190815260200190565b602060405180830381865afa158015612168573d6000803e3d6000fd5b505050506040513d601f19601f8201168201806040525081019061218c91906134e6565b6001600160a01b0316146040518060400160405280600381526020016203330360ec1b815250906121d05760405162461bcd60e51b81526004016106b8919061347d565b5060405163e985e9c560e01b81523360048201523060248201526001600160a01b0382169063e985e9c590604401602060405180830381865afa15801561221b573d6000803e3d6000fd5b505050506040513d601f19601f8201168201806040525081019061223f91906134b0565b6040518060400160405280600381526020016233303160e81b815250906122795760405162461bcd60e51b81526004016106b8919061347d565b50606082015160808301516040808501519051636eb1769f60e11b81526001600160a01b0391821660048201523060248201529083169063dd62ed3e90604401602060405180830381865afa1580156122d6573d6000803e3d6000fd5b505050506040513d601f19601f820116820180604052508101906122fa91906134cd565b101561230557600080fd5b6040805160e08101825284820180516001600160a01b0390811683523360208401526080808801805185870152516060850152915193516370a0823160e01b8152938116600485015260009391830191908516906370a0823190602401602060405180830381865afa15801561237f573d6000803e3d6000fd5b505050506040513d601f19601f820116820180604052508101906123a391906134cd565b81526040808701519051636eb1769f60e11b81526001600160a01b0391821660048201523060248201526020909201919085169063dd62ed3e90604401602060405180830381865afa1580156123fd573d6000803e3d6000fd5b505050506040513d601f19601f8201168201806040525081019061242191906134cd565b81526060808701516001600160a01b039081166020938401526035546040805160808101825260008082528187018190528183018190529481019490945280518082018252601b81527f4d41524b4554504c4143455f42454e454649545f50455243454e5400000000009581019590955251636d12dce160e01b8152949550169290918391636d12dce1916124b89160040161347d565b602060405180830381865afa1580156124d5573d6000803e3d6000fd5b505050506040513d601f19601f820116820180604052508101906124f991906134cd565b6040820181905261250c5760fa60408201525b604081015115612553576127108160400151846060015161252d9190613527565b6125379190613546565b6060820181905260408401805161254f908390613568565b9052505b6040516301ffc9a760e01b815263152a902d60e11b60048201526001600160a01b038616906301ffc9a790602401602060405180830381865afa15801561259e573d6000803e3d6000fd5b505050506040513d601f19601f820116820180604052508101906125c291906134b0565b156126795785516020870151606085015160405163152a902d60e11b81526004810192909252602482015260009081906001600160a01b03841690632a55205a906044016040805180830381865afa158015612622573d6000803e3d6000fd5b505050506040513d601f19601f82011682018060405250810190612646919061357f565b602086018190526001600160a01b03821686526040880180519294509092508291612672908390613568565b9052505050505b825160608401516040516323b872dd60e01b81526001600160a01b038716926323b872dd926126ad92309190600401613503565b6020604051808303816000875af11580156126cc573d6000803e3d6000fd5b505050506040513d601f19601f820116820180604052508101906126f091906134b0565b6040518060400160405280600381526020016219981b60e91b8152509061272a5760405162461bcd60e51b81526004016106b8919061347d565b506020830151604080850151905163a9059cbb60e01b81526001600160a01b0387169263a9059cbb92612773926004016001600160a01b03929092168252602082015260400190565b6020604051808303816000875af1158015612792573d6000803e3d6000fd5b505050506040513d601f19601f820116820180604052508101906127b691906134b0565b6040518060400160405280600381526020016219981b60e91b815250906127f05760405162461bcd60e51b81526004016106b8919061347d565b5080516001600160a01b03161580159061280e575060008160200151115b156128f2578051602082015160405163a9059cbb60e01b81526001600160a01b0387169263a9059cbb92612858926004016001600160a01b03929092168252602082015260400190565b6020604051808303816000875af1158015612877573d6000803e3d6000fd5b505050506040513d601f19601f8201168201806040525081019061289b91906134b0565b6040518060400160405280600381526020016219981b60e91b815250906128d55760405162461bcd60e51b81526004016106b8919061347d565b506128f28160000151876020015188606001518460200151612da7565b602080840151845191880151604051632142170760e11b81526001600160a01b038916936342842e0e9361292a939092600401613503565b600060405180830381600087803b15801561294457600080fd5b505af1158015612958573d6000803e3d6000fd5b5050506000888152603860205260409081902090518992507f18f1ceedf8920f811ccf39358c2a2164a50e62c93ad4dafc82e6906cf81dc0a49161299b916135ad565b60405180910390a250505050505050565b600081815260386020908152604091829020600201548251808401909352600383526203130360ec1b918301919091526001600160a01b03163314612a045760405162461bcd60e51b81526004016106b8919061347d565b5060008181526038602052604090206005015460ff1615612a2457600080fd5b6000818152603860205260409081902060058101805460ff19166001179055905182917fd1e7e193455ba4241e816f1b6fa787b59dad27c1279c69179f6cb4b4387bf54391611d3d91906135ad565b805160208201516040516331a9108f60e11b815260048101919091526000919033906001600160a01b03831690636352211e90602401602060405180830381865afa158015612ac6573d6000803e3d6000fd5b505050506040513d601f19601f82011682018060405250810190612aea91906134e6565b6001600160a01b0316146040518060400160405280600381526020016203330360ec1b81525090612b2e5760405162461bcd60e51b81526004016106b8919061347d565b5060008360800151116040518060400160405280600381526020016206660760eb1b81525090612b715760405162461bcd60e51b81526004016106b8919061347d565b5060008360c00151116040518060400160405280600381526020016233303960e81b81525090612bb45760405162461bcd60e51b81526004016106b8919061347d565b5060405163e985e9c560e01b81523360048201523060248201526001600160a01b0382169063e985e9c590604401602060405180830381865afa158015612bff573d6000803e3d6000fd5b505050506040513d601f19601f82011682018060405250810190612c2391906134b0565b60408051808201909152600381526233303160e81b6020820152901515600114612c605760405162461bcd60e51b81526004016106b8919061347d565b5060338054906000612c71836133ee565b91905055506000612c83603354612ebf565b84516020860151612c9390612ebf565b604051602001612ca593929190613609565b60408051808303601f190181528282528051602091820120600081815260368352928320885181546001600160a01b03199081166001600160a01b03928316178355938a015160018084019190915560028301805460608d01516003860180548916919095161790935560808c0151600485015560a08c015160058501805460ff191691151591909117905560c08c01516006909401939093559316331790556037805492830181559092527f42a7b7dd785cd69714a189dffb3fd7d7174edc9ece837694ce50f7078f7c31ae01819055915081907f36baa67ff8b95fa14aac46cea75517dc7f57ebebc1b90d48388c8c085f5cbfe390612024908790613655565b6040516301ffc9a760e01b815263676eda1760e01b600482015284906001600160a01b038216906301ffc9a790602401602060405180830381865afa158015612df4573d6000803e3d6000fd5b505050506040513d601f19601f82011682018060405250810190612e1891906134b0565b15612e875760405163676eda1760e01b8152600481018590526001600160a01b0384811660248301526044820184905282169063676eda1790606401600060405180830381600087803b158015612e6e57600080fd5b505af1158015612e82573d6000803e3d6000fd5b505050505b5050505050565b600054610100900460ff16612eb55760405162461bcd60e51b81526004016106b8906136b0565b612ebd612f5c565b565b60606000612ecc83612f83565b600101905060008167ffffffffffffffff811115612eec57612eec61311c565b6040519080825280601f01601f191660200182016040528015612f16576020820181803683370190505b5090508181016020015b600019016f181899199a1a9b1b9c1cb0b131b232b360811b600a86061a8153600a8504945084612f4f57612f54565b612f20565b509392505050565b600054610100900460ff16611b3b5760405162461bcd60e51b81526004016106b8906136b0565b60008072184f03e93ff9f4daa797ed6e38ed64bf6a1f0160401b8310612fc25772184f03e93ff9f4daa797ed6e38ed64bf6a1f0160401b830492506040015b6d04ee2d6d415b85acef81000000008310612fee576d04ee2d6d415b85acef8100000000830492506020015b662386f26fc10000831061300c57662386f26fc10000830492506010015b6305f5e1008310613024576305f5e100830492506008015b612710831061303857612710830492506004015b6064831061304a576064830492506002015b600a8310613056576001015b92915050565b6001600160a01b038116811461065f57600080fd5b60008060006060848603121561308657600080fd5b83356130918161305c565b95602085013595506040909401359392505050565b6000602082840312156130b857600080fd5b5035919050565b600080604083850312156130d257600080fd5b82356130dd8161305c565b915060208301356130ed8161305c565b809150509250929050565b60006020828403121561310a57600080fd5b81356131158161305c565b9392505050565b634e487b7160e01b600052604160045260246000fd5b604051601f8201601f1916810167ffffffffffffffff8111828210171561315b5761315b61311c565b604052919050565b6000602080838503121561317657600080fd5b823567ffffffffffffffff8082111561318e57600080fd5b818501915085601f8301126131a257600080fd5b8135818111156131b4576131b461311c565b8060051b91506131c5848301613132565b81815291830184019184810190888411156131df57600080fd5b938501935b838510156131fd578435825293850193908501906131e4565b98975050505050505050565b801515811461065f57600080fd5b6000806040838503121561322a57600080fd5b82356132358161305c565b915060208301356130ed81613209565b6000806040838503121561325857600080fd5b82356132638161305c565b946020939093013593505050565b600060e0828403121561328357600080fd5b60405160e0810181811067ffffffffffffffff821117156132a6576132a661311c565b60405290508082356132b78161305c565b81526020838101359082015260408301356132d18161305c565b604082015260608301356132e48161305c565b60608201526080838101359082015260a083013561330181613209565b60a082015260c092830135920191909152919050565b600060e0828403121561332957600080fd5b6131158383613271565b60008060006060848603121561334857600080fd5b83356133538161305c565b925060208401356133638161305c565b929592945050506040919091013590565b6020808252602e908201527f496e697469616c697a61626c653a20636f6e747261637420697320616c72656160408201526d191e481a5b9a5d1a585b1a5e995960921b606082015260800190565b634e487b7160e01b600052603260045260246000fd5b634e487b7160e01b600052601160045260246000fd5b6000600019821415613402576134026133d8565b5060010190565b6020808252825182820181905260009190848201906040850190845b8181101561344157835183529284019291840191600101613425565b50909695505050505050565b60005b83811015613468578181015183820152602001613450565b83811115613477576000848401525b50505050565b602081526000825180602084015261349c81604085016020870161344d565b601f01601f19169190910160400192915050565b6000602082840312156134c257600080fd5b815161311581613209565b6000602082840312156134df57600080fd5b5051919050565b6000602082840312156134f857600080fd5b81516131158161305c565b6001600160a01b039384168152919092166020820152604081019190915260600190565b6000816000190483118215151615613541576135416133d8565b500290565b60008261356357634e487b7160e01b600052601260045260246000fd5b500490565b60008282101561357a5761357a6133d8565b500390565b6000806040838503121561359257600080fd5b825161359d8161305c565b6020939093015192949293505050565b81546001600160a01b03908116825260018301546020830152600283015481166040830152600383015416606082015260048201546080820152600582015460ff16151560a0820152600682015460c082015260e08101613056565b6000845161361b81846020890161344d565b606085901b6bffffffffffffffffffffffff1916908301908152835161364881601484016020880161344d565b0160140195945050505050565b81516001600160a01b03908116825260208084015190830152604080840151821690830152606080840151909116908201526080808301519082015260a08083015115159082015260c0808301519082015260e08101613056565b6020808252602b908201527f496e697469616c697a61626c653a20636f6e7472616374206973206e6f74206960408201526a6e697469616c697a696e6760a81b60608201526080019056fea26469706673582212205607db3c2a34a1ab82362079028dca0bd25d4b67d0cae6df0bfd08937dde360264736f6c634300080c0033","opcodes":"PUSH1 0x80 PUSH1 0x40 MSTORE CALLVALUE DUP1 ISZERO PUSH2 0x10 JUMPI PUSH1 0x0 DUP1 REVERT JUMPDEST POP PUSH2 0x3731 DUP1 PUSH2 0x20 PUSH1 0x0 CODECOPY PUSH1 0x0 RETURN INVALID PUSH1 0x80 PUSH1 0x40 MSTORE PUSH1 0x4 CALLDATASIZE LT PUSH2 0x166 JUMPI PUSH1 0x0 CALLDATALOAD PUSH1 0xE0 SHR DUP1 PUSH4 0xA25D6DCE GT PUSH2 0xD1 JUMPI DUP1 PUSH4 0xD9E87E61 GT PUSH2 0x8A JUMPI DUP1 PUSH4 0xED4EC201 GT PUSH2 0x64 JUMPI DUP1 PUSH4 0xED4EC201 EQ PUSH2 0x52B JUMPI DUP1 PUSH4 0xF1F2DF0E EQ PUSH2 0x54B JUMPI DUP1 PUSH4 0xF40CB02D EQ PUSH2 0x56B JUMPI DUP1 PUSH4 0xFEBFD6C3 EQ PUSH2 0x58B JUMPI PUSH1 0x0 DUP1 REVERT JUMPDEST DUP1 PUSH4 0xD9E87E61 EQ PUSH2 0x4CB JUMPI DUP1 PUSH4 0xE5026B8B EQ PUSH2 0x4EB JUMPI DUP1 PUSH4 0xEAB651D8 EQ PUSH2 0x50B JUMPI PUSH1 0x0 DUP1 REVERT JUMPDEST DUP1 PUSH4 0xA25D6DCE EQ PUSH2 0x3B1 JUMPI DUP1 PUSH4 0xA3A1937C EQ PUSH2 0x3D1 JUMPI DUP1 PUSH4 0xBD7EC0C2 EQ PUSH2 0x43B JUMPI DUP1 PUSH4 0xD299A086 EQ PUSH2 0x46B JUMPI DUP1 PUSH4 0xD2ABB69C EQ PUSH2 0x48B JUMPI DUP1 PUSH4 0xD9CAED12 EQ PUSH2 0x4AB JUMPI PUSH1 0x0 DUP1 REVERT JUMPDEST DUP1 PUSH4 0x5B06E64A GT PUSH2 0x123 JUMPI DUP1 PUSH4 0x5B06E64A EQ PUSH2 0x2DE JUMPI DUP1 PUSH4 0x6852168A EQ PUSH2 0x31E JUMPI DUP1 PUSH4 0x72C035CF EQ PUSH2 0x331 JUMPI DUP1 PUSH4 0x8F283970 EQ PUSH2 0x351 JUMPI DUP1 PUSH4 0x9142E6A8 EQ PUSH2 0x371 JUMPI DUP1 PUSH4 0x9299E552 EQ PUSH2 0x391 JUMPI PUSH1 0x0 DUP1 REVERT JUMPDEST DUP1 PUSH4 0x1BC45C9 EQ PUSH2 0x16B JUMPI DUP1 PUSH4 0x14646F6D EQ PUSH2 0x1A8 JUMPI DUP1 PUSH4 0x1FD4D2ED EQ PUSH2 0x211 JUMPI DUP1 PUSH4 0x3AC1089A EQ PUSH2 0x23F JUMPI DUP1 PUSH4 0x3DD72C40 EQ PUSH2 0x254 JUMPI DUP1 PUSH4 0x485CC955 EQ PUSH2 0x2BE JUMPI JUMPDEST PUSH1 0x0 DUP1 REVERT JUMPDEST CALLVALUE DUP1 ISZERO PUSH2 0x177 JUMPI PUSH1 0x0 DUP1 REVERT JUMPDEST POP PUSH1 0x34 SLOAD PUSH2 0x18B SWAP1 PUSH1 0x1 PUSH1 0x1 PUSH1 0xA0 SHL SUB AND DUP2 JUMP JUMPDEST PUSH1 0x40 MLOAD PUSH1 0x1 PUSH1 0x1 PUSH1 0xA0 SHL SUB SWAP1 SWAP2 AND DUP2 MSTORE PUSH1 0x20 ADD JUMPDEST PUSH1 0x40 MLOAD DUP1 SWAP2 SUB SWAP1 RETURN JUMPDEST CALLVALUE DUP1 ISZERO PUSH2 0x1B4 JUMPI PUSH1 0x0 DUP1 REVERT JUMPDEST POP PUSH2 0x1C8 PUSH2 0x1C3 CALLDATASIZE PUSH1 0x4 PUSH2 0x3071 JUMP JUMPDEST PUSH2 0x5AB JUMP JUMPDEST PUSH1 0x40 DUP1 MLOAD PUSH1 0x1 PUSH1 0x1 PUSH1 0xA0 SHL SUB SWAP9 DUP10 AND DUP2 MSTORE PUSH1 0x20 DUP2 ADD SWAP8 SWAP1 SWAP8 MSTORE SWAP5 DUP8 AND SWAP5 DUP7 ADD SWAP5 SWAP1 SWAP5 MSTORE SWAP5 SWAP1 SWAP2 AND PUSH1 0x60 DUP5 ADD MSTORE PUSH1 0x80 DUP4 ADD MSTORE SWAP2 ISZERO ISZERO PUSH1 0xA0 DUP3 ADD MSTORE PUSH1 0xC0 DUP2 ADD SWAP2 SWAP1 SWAP2 MSTORE PUSH1 0xE0 ADD PUSH2 0x19F JUMP JUMPDEST CALLVALUE DUP1 ISZERO PUSH2 0x21D JUMPI PUSH1 0x0 DUP1 REVERT JUMPDEST POP PUSH2 0x231 PUSH2 0x22C CALLDATASIZE PUSH1 0x4 PUSH2 0x30A6 JUMP JUMPDEST PUSH2 0x624 JUMP JUMPDEST PUSH1 0x40 MLOAD SWAP1 DUP2 MSTORE PUSH1 0x20 ADD PUSH2 0x19F JUMP JUMPDEST PUSH2 0x252 PUSH2 0x24D CALLDATASIZE PUSH1 0x4 PUSH2 0x30A6 JUMP JUMPDEST PUSH2 0x645 JUMP JUMPDEST STOP JUMPDEST CALLVALUE DUP1 ISZERO PUSH2 0x260 JUMPI PUSH1 0x0 DUP1 REVERT JUMPDEST POP PUSH2 0x1C8 PUSH2 0x26F CALLDATASIZE PUSH1 0x4 PUSH2 0x30A6 JUMP JUMPDEST PUSH1 0x38 PUSH1 0x20 MSTORE PUSH1 0x0 SWAP1 DUP2 MSTORE PUSH1 0x40 SWAP1 KECCAK256 DUP1 SLOAD PUSH1 0x1 DUP3 ADD SLOAD PUSH1 0x2 DUP4 ADD SLOAD PUSH1 0x3 DUP5 ADD SLOAD PUSH1 0x4 DUP6 ADD SLOAD PUSH1 0x5 DUP7 ADD SLOAD PUSH1 0x6 SWAP1 SWAP7 ADD SLOAD PUSH1 0x1 PUSH1 0x1 PUSH1 0xA0 SHL SUB SWAP6 DUP7 AND SWAP7 SWAP5 SWAP6 SWAP4 DUP5 AND SWAP5 SWAP3 SWAP1 SWAP4 AND SWAP3 SWAP1 SWAP2 PUSH1 0xFF AND SWAP1 DUP8 JUMP JUMPDEST CALLVALUE DUP1 ISZERO PUSH2 0x2CA JUMPI PUSH1 0x0 DUP1 REVERT JUMPDEST POP PUSH2 0x252 PUSH2 0x2D9 CALLDATASIZE PUSH1 0x4 PUSH2 0x30BF JUMP JUMPDEST PUSH2 0x662 JUMP JUMPDEST CALLVALUE DUP1 ISZERO PUSH2 0x2EA JUMPI PUSH1 0x0 DUP1 REVERT JUMPDEST POP PUSH2 0x30E PUSH2 0x2F9 CALLDATASIZE PUSH1 0x4 PUSH2 0x30F8 JUMP JUMPDEST PUSH1 0x3F PUSH1 0x20 MSTORE PUSH1 0x0 SWAP1 DUP2 MSTORE PUSH1 0x40 SWAP1 KECCAK256 SLOAD PUSH1 0xFF AND DUP2 JUMP JUMPDEST PUSH1 0x40 MLOAD SWAP1 ISZERO ISZERO DUP2 MSTORE PUSH1 0x20 ADD PUSH2 0x19F JUMP JUMPDEST PUSH2 0x252 PUSH2 0x32C CALLDATASIZE PUSH1 0x4 PUSH2 0x3163 JUMP JUMPDEST PUSH2 0x739 JUMP JUMPDEST CALLVALUE DUP1 ISZERO PUSH2 0x33D JUMPI PUSH1 0x0 DUP1 REVERT JUMPDEST POP PUSH1 0x35 SLOAD PUSH2 0x18B SWAP1 PUSH1 0x1 PUSH1 0x1 PUSH1 0xA0 SHL SUB AND DUP2 JUMP JUMPDEST CALLVALUE DUP1 ISZERO PUSH2 0x35D JUMPI PUSH1 0x0 DUP1 REVERT JUMPDEST POP PUSH2 0x252 PUSH2 0x36C CALLDATASIZE PUSH1 0x4 PUSH2 0x30F8 JUMP JUMPDEST PUSH2 0x89E JUMP JUMPDEST CALLVALUE DUP1 ISZERO PUSH2 0x37D JUMPI PUSH1 0x0 DUP1 REVERT JUMPDEST POP PUSH2 0x252 PUSH2 0x38C CALLDATASIZE PUSH1 0x4 PUSH2 0x3217 JUMP JUMPDEST PUSH2 0x930 JUMP JUMPDEST CALLVALUE DUP1 ISZERO PUSH2 0x39D JUMPI PUSH1 0x0 DUP1 REVERT JUMPDEST POP PUSH2 0x252 PUSH2 0x3AC CALLDATASIZE PUSH1 0x4 PUSH2 0x30A6 JUMP JUMPDEST PUSH2 0x9A2 JUMP JUMPDEST CALLVALUE DUP1 ISZERO PUSH2 0x3BD JUMPI PUSH1 0x0 DUP1 REVERT JUMPDEST POP PUSH2 0x231 PUSH2 0x3CC CALLDATASIZE PUSH1 0x4 PUSH2 0x3245 JUMP JUMPDEST PUSH2 0x9AB JUMP JUMPDEST CALLVALUE DUP1 ISZERO PUSH2 0x3DD JUMPI PUSH1 0x0 DUP1 REVERT JUMPDEST POP PUSH2 0x1C8 PUSH2 0x3EC CALLDATASIZE PUSH1 0x4 PUSH2 0x30A6 JUMP JUMPDEST PUSH1 0x36 PUSH1 0x20 MSTORE PUSH1 0x0 SWAP1 DUP2 MSTORE PUSH1 0x40 SWAP1 KECCAK256 DUP1 SLOAD PUSH1 0x1 DUP3 ADD SLOAD PUSH1 0x2 DUP4 ADD SLOAD PUSH1 0x3 DUP5 ADD SLOAD PUSH1 0x4 DUP6 ADD SLOAD PUSH1 0x5 DUP7 ADD SLOAD PUSH1 0x6 SWAP1 SWAP7 ADD SLOAD PUSH1 0x1 PUSH1 0x1 PUSH1 0xA0 SHL SUB SWAP6 DUP7 AND SWAP7 SWAP5 SWAP6 SWAP4 DUP5 AND SWAP5 SWAP3 SWAP1 SWAP4 AND SWAP3 SWAP1 SWAP2 PUSH1 0xFF AND SWAP1 DUP8 JUMP JUMPDEST CALLVALUE DUP1 ISZERO PUSH2 0x447 JUMPI PUSH1 0x0 DUP1 REVERT JUMPDEST POP PUSH2 0x30E PUSH2 0x456 CALLDATASIZE PUSH1 0x4 PUSH2 0x30F8 JUMP JUMPDEST PUSH1 0x3E PUSH1 0x20 MSTORE PUSH1 0x0 SWAP1 DUP2 MSTORE PUSH1 0x40 SWAP1 KECCAK256 SLOAD PUSH1 0xFF AND DUP2 JUMP JUMPDEST CALLVALUE DUP1 ISZERO PUSH2 0x477 JUMPI PUSH1 0x0 DUP1 REVERT JUMPDEST POP PUSH2 0x1C8 PUSH2 0x486 CALLDATASIZE PUSH1 0x4 PUSH2 0x3071 JUMP JUMPDEST PUSH2 0x9DC JUMP JUMPDEST CALLVALUE DUP1 ISZERO PUSH2 0x497 JUMPI PUSH1 0x0 DUP1 REVERT JUMPDEST POP PUSH2 0x231 PUSH2 0x4A6 CALLDATASIZE PUSH1 0x4 PUSH2 0x3317 JUMP JUMPDEST PUSH2 0xA04 JUMP JUMPDEST CALLVALUE DUP1 ISZERO PUSH2 0x4B7 JUMPI PUSH1 0x0 DUP1 REVERT JUMPDEST POP PUSH2 0x252 PUSH2 0x4C6 CALLDATASIZE PUSH1 0x4 PUSH2 0x3333 JUMP JUMPDEST PUSH2 0xB53 JUMP JUMPDEST CALLVALUE DUP1 ISZERO PUSH2 0x4D7 JUMPI PUSH1 0x0 DUP1 REVERT JUMPDEST POP PUSH2 0x252 PUSH2 0x4E6 CALLDATASIZE PUSH1 0x4 PUSH2 0x30A6 JUMP JUMPDEST PUSH2 0xCAD JUMP JUMPDEST CALLVALUE DUP1 ISZERO PUSH2 0x4F7 JUMPI PUSH1 0x0 DUP1 REVERT JUMPDEST POP PUSH2 0x252 PUSH2 0x506 CALLDATASIZE PUSH1 0x4 PUSH2 0x3217 JUMP JUMPDEST PUSH2 0xCBE JUMP JUMPDEST CALLVALUE DUP1 ISZERO PUSH2 0x517 JUMPI PUSH1 0x0 DUP1 REVERT JUMPDEST POP PUSH2 0x231 PUSH2 0x526 CALLDATASIZE PUSH1 0x4 PUSH2 0x3245 JUMP JUMPDEST PUSH2 0xD30 JUMP JUMPDEST CALLVALUE DUP1 ISZERO PUSH2 0x537 JUMPI PUSH1 0x0 DUP1 REVERT JUMPDEST POP PUSH2 0x231 PUSH2 0x546 CALLDATASIZE PUSH1 0x4 PUSH2 0x30A6 JUMP JUMPDEST PUSH2 0xD4C JUMP JUMPDEST CALLVALUE DUP1 ISZERO PUSH2 0x557 JUMPI PUSH1 0x0 DUP1 REVERT JUMPDEST POP PUSH2 0x252 PUSH2 0x566 CALLDATASIZE PUSH1 0x4 PUSH2 0x30A6 JUMP JUMPDEST PUSH2 0xD5C JUMP JUMPDEST CALLVALUE DUP1 ISZERO PUSH2 0x577 JUMPI PUSH1 0x0 DUP1 REVERT JUMPDEST POP PUSH2 0x231 PUSH2 0x586 CALLDATASIZE PUSH1 0x4 PUSH2 0x3317 JUMP JUMPDEST PUSH2 0xD65 JUMP JUMPDEST CALLVALUE DUP1 ISZERO PUSH2 0x597 JUMPI PUSH1 0x0 DUP1 REVERT JUMPDEST POP PUSH2 0x252 PUSH2 0x5A6 CALLDATASIZE PUSH1 0x4 PUSH2 0x30F8 JUMP JUMPDEST PUSH2 0xEB4 JUMP JUMPDEST PUSH1 0x3C PUSH1 0x20 MSTORE DUP3 PUSH1 0x0 MSTORE PUSH1 0x40 PUSH1 0x0 KECCAK256 PUSH1 0x20 MSTORE DUP2 PUSH1 0x0 MSTORE PUSH1 0x40 PUSH1 0x0 KECCAK256 DUP2 DUP2 SLOAD DUP2 LT PUSH2 0x5D3 JUMPI PUSH1 0x0 DUP1 REVERT JUMPDEST PUSH1 0x0 SWAP2 DUP3 MSTORE PUSH1 0x20 SWAP1 SWAP2 KECCAK256 PUSH1 0x7 SWAP1 SWAP2 MUL ADD DUP1 SLOAD PUSH1 0x1 DUP3 ADD SLOAD PUSH1 0x2 DUP4 ADD SLOAD PUSH1 0x3 DUP5 ADD SLOAD PUSH1 0x4 DUP6 ADD SLOAD PUSH1 0x5 DUP7 ADD SLOAD PUSH1 0x6 SWAP1 SWAP7 ADD SLOAD PUSH1 0x1 PUSH1 0x1 PUSH1 0xA0 SHL SUB SWAP6 DUP7 AND SWAP10 POP SWAP4 SWAP8 POP SWAP2 DUP5 AND SWAP6 POP SWAP1 SWAP3 AND SWAP3 PUSH1 0xFF AND SWAP1 DUP8 JUMP JUMPDEST PUSH1 0x39 DUP2 DUP2 SLOAD DUP2 LT PUSH2 0x634 JUMPI PUSH1 0x0 DUP1 REVERT JUMPDEST PUSH1 0x0 SWAP2 DUP3 MSTORE PUSH1 0x20 SWAP1 SWAP2 KECCAK256 ADD SLOAD SWAP1 POP DUP2 JUMP JUMPDEST PUSH2 0x64D PUSH2 0xF46 JUMP JUMPDEST PUSH2 0x656 DUP2 PUSH2 0xFA0 JUMP JUMPDEST PUSH2 0x65F PUSH1 0x1 DUP1 SSTORE JUMP JUMPDEST POP JUMP JUMPDEST PUSH1 0x0 SLOAD PUSH2 0x100 SWAP1 DIV PUSH1 0xFF AND ISZERO DUP1 DUP1 ISZERO PUSH2 0x682 JUMPI POP PUSH1 0x0 SLOAD PUSH1 0x1 PUSH1 0xFF SWAP1 SWAP2 AND LT JUMPDEST DUP1 PUSH2 0x69C JUMPI POP ADDRESS EXTCODESIZE ISZERO DUP1 ISZERO PUSH2 0x69C JUMPI POP PUSH1 0x0 SLOAD PUSH1 0xFF AND PUSH1 0x1 EQ JUMPDEST PUSH2 0x6C1 JUMPI PUSH1 0x40 MLOAD PUSH3 0x461BCD PUSH1 0xE5 SHL DUP2 MSTORE PUSH1 0x4 ADD PUSH2 0x6B8 SWAP1 PUSH2 0x3374 JUMP JUMPDEST PUSH1 0x40 MLOAD DUP1 SWAP2 SUB SWAP1 REVERT JUMPDEST PUSH1 0x0 DUP1 SLOAD PUSH1 0xFF NOT AND PUSH1 0x1 OR SWAP1 SSTORE DUP1 ISZERO PUSH2 0x6E4 JUMPI PUSH1 0x0 DUP1 SLOAD PUSH2 0xFF00 NOT AND PUSH2 0x100 OR SWAP1 SSTORE JUMPDEST PUSH2 0x6EE DUP4 DUP4 PUSH2 0x1B41 JUMP JUMPDEST DUP1 ISZERO PUSH2 0x734 JUMPI PUSH1 0x0 DUP1 SLOAD PUSH2 0xFF00 NOT AND SWAP1 SSTORE PUSH1 0x40 MLOAD PUSH1 0x1 DUP2 MSTORE PUSH32 0x7F26B83FF96E1F2B6A682F133852F6798A09C465DA95921460CEFB3847402498 SWAP1 PUSH1 0x20 ADD PUSH1 0x40 MLOAD DUP1 SWAP2 SUB SWAP1 LOG1 JUMPDEST POP POP POP JUMP JUMPDEST PUSH2 0x741 PUSH2 0xF46 JUMP JUMPDEST PUSH1 0x64 DUP2 MLOAD GT ISZERO PUSH2 0x750 JUMPI PUSH1 0x0 DUP1 REVERT JUMPDEST PUSH1 0x0 DUP2 MLOAD PUSH8 0xFFFFFFFFFFFFFFFF DUP2 GT ISZERO PUSH2 0x76C JUMPI PUSH2 0x76C PUSH2 0x311C JUMP JUMPDEST PUSH1 0x40 MLOAD SWAP1 DUP1 DUP3 MSTORE DUP1 PUSH1 0x20 MUL PUSH1 0x20 ADD DUP3 ADD PUSH1 0x40 MSTORE DUP1 ISZERO PUSH2 0x795 JUMPI DUP2 PUSH1 0x20 ADD PUSH1 0x20 DUP3 MUL DUP1 CALLDATASIZE DUP4 CALLDATACOPY ADD SWAP1 POP JUMPDEST POP SWAP1 POP PUSH1 0x0 JUMPDEST DUP3 MLOAD DUP2 LT ISZERO PUSH2 0x85C JUMPI PUSH3 0x493E0 GAS LT ISZERO PUSH2 0x7B4 JUMPI PUSH2 0x85C JUMP JUMPDEST PUSH1 0x36 PUSH1 0x0 DUP5 DUP4 DUP2 MLOAD DUP2 LT PUSH2 0x7CA JUMPI PUSH2 0x7CA PUSH2 0x33C2 JUMP JUMPDEST PUSH1 0x20 SWAP1 DUP2 MUL SWAP2 SWAP1 SWAP2 ADD DUP2 ADD MLOAD DUP3 MSTORE DUP2 ADD SWAP2 SWAP1 SWAP2 MSTORE PUSH1 0x40 ADD PUSH1 0x0 KECCAK256 PUSH1 0x5 ADD SLOAD PUSH1 0xFF AND PUSH2 0x84A JUMPI PUSH2 0x811 DUP4 DUP3 DUP2 MLOAD DUP2 LT PUSH2 0x804 JUMPI PUSH2 0x804 PUSH2 0x33C2 JUMP JUMPDEST PUSH1 0x20 MUL PUSH1 0x20 ADD ADD MLOAD PUSH2 0xFA0 JUMP JUMPDEST DUP3 DUP2 DUP2 MLOAD DUP2 LT PUSH2 0x823 JUMPI PUSH2 0x823 PUSH2 0x33C2 JUMP JUMPDEST PUSH1 0x20 MUL PUSH1 0x20 ADD ADD MLOAD DUP3 DUP3 DUP2 MLOAD DUP2 LT PUSH2 0x83D JUMPI PUSH2 0x83D PUSH2 0x33C2 JUMP JUMPDEST PUSH1 0x20 MUL PUSH1 0x20 ADD ADD DUP2 DUP2 MSTORE POP POP JUMPDEST DUP1 PUSH2 0x854 DUP2 PUSH2 0x33EE JUMP JUMPDEST SWAP2 POP POP PUSH2 0x79B JUMP JUMPDEST POP PUSH32 0x158DD3C50FD0D637D65E59A4FE2A179D6EC485730AB6A010B2329E8F0484C8B8 DUP2 PUSH1 0x40 MLOAD PUSH2 0x88C SWAP2 SWAP1 PUSH2 0x3409 JUMP JUMPDEST PUSH1 0x40 MLOAD DUP1 SWAP2 SUB SWAP1 LOG1 POP PUSH2 0x65F PUSH1 0x1 DUP1 SSTORE JUMP JUMPDEST PUSH1 0x34 SLOAD PUSH1 0x1 PUSH1 0x1 PUSH1 0xA0 SHL SUB AND CALLER EQ DUP1 ISZERO PUSH2 0x8C0 JUMPI POP PUSH1 0x1 PUSH1 0x1 PUSH1 0xA0 SHL SUB DUP2 AND ISZERO ISZERO JUMPDEST PUSH1 0x40 MLOAD DUP1 PUSH1 0x40 ADD PUSH1 0x40 MSTORE DUP1 PUSH1 0x3 DUP2 MSTORE PUSH1 0x20 ADD PUSH3 0x313031 PUSH1 0xE8 SHL DUP2 MSTORE POP SWAP1 PUSH2 0x8FA JUMPI PUSH1 0x40 MLOAD PUSH3 0x461BCD PUSH1 0xE5 SHL DUP2 MSTORE PUSH1 0x4 ADD PUSH2 0x6B8 SWAP2 SWAP1 PUSH2 0x347D JUMP JUMPDEST POP PUSH1 0x34 SLOAD PUSH1 0x1 PUSH1 0x1 PUSH1 0xA0 SHL SUB DUP3 DUP2 AND SWAP2 AND EQ PUSH2 0x65F JUMPI PUSH1 0x34 DUP1 SLOAD PUSH1 0x1 PUSH1 0x1 PUSH1 0xA0 SHL SUB DUP4 AND PUSH1 0x1 PUSH1 0x1 PUSH1 0xA0 SHL SUB NOT SWAP1 SWAP2 AND OR SWAP1 SSTORE POP JUMP JUMPDEST PUSH1 0x34 SLOAD PUSH1 0x40 DUP1 MLOAD DUP1 DUP3 ADD SWAP1 SWAP2 MSTORE PUSH1 0x3 DUP2 MSTORE PUSH3 0x313031 PUSH1 0xE8 SHL PUSH1 0x20 DUP3 ADD MSTORE SWAP1 PUSH1 0x1 PUSH1 0x1 PUSH1 0xA0 SHL SUB AND CALLER EQ PUSH2 0x976 JUMPI PUSH1 0x40 MLOAD PUSH3 0x461BCD PUSH1 0xE5 SHL DUP2 MSTORE PUSH1 0x4 ADD PUSH2 0x6B8 SWAP2 SWAP1 PUSH2 0x347D JUMP JUMPDEST POP PUSH1 0x1 PUSH1 0x1 PUSH1 0xA0 SHL SUB SWAP2 SWAP1 SWAP2 AND PUSH1 0x0 SWAP1 DUP2 MSTORE PUSH1 0x3E PUSH1 0x20 MSTORE PUSH1 0x40 SWAP1 KECCAK256 DUP1 SLOAD PUSH1 0xFF NOT AND SWAP2 ISZERO ISZERO SWAP2 SWAP1 SWAP2 OR SWAP1 SSTORE JUMP JUMPDEST PUSH2 0x65F DUP2 PUSH2 0x1C76 JUMP JUMPDEST PUSH1 0x3D PUSH1 0x20 MSTORE DUP2 PUSH1 0x0 MSTORE PUSH1 0x40 PUSH1 0x0 KECCAK256 DUP2 DUP2 SLOAD DUP2 LT PUSH2 0x9C7 JUMPI PUSH1 0x0 DUP1 REVERT JUMPDEST SWAP1 PUSH1 0x0 MSTORE PUSH1 0x20 PUSH1 0x0 KECCAK256 ADD PUSH1 0x0 SWAP2 POP SWAP2 POP POP SLOAD DUP2 JUMP JUMPDEST PUSH1 0x3A PUSH1 0x20 MSTORE DUP3 PUSH1 0x0 MSTORE PUSH1 0x40 PUSH1 0x0 KECCAK256 PUSH1 0x20 MSTORE DUP2 PUSH1 0x0 MSTORE PUSH1 0x40 PUSH1 0x0 KECCAK256 DUP2 DUP2 SLOAD DUP2 LT PUSH2 0x5D3 JUMPI PUSH1 0x0 DUP1 REVERT JUMPDEST PUSH1 0x60 DUP2 ADD MLOAD PUSH1 0x1 PUSH1 0x1 PUSH1 0xA0 SHL SUB AND PUSH1 0x0 SWAP1 DUP2 MSTORE PUSH1 0x3E PUSH1 0x20 SWAP1 DUP2 MSTORE PUSH1 0x40 DUP1 DUP4 KECCAK256 SLOAD DUP2 MLOAD DUP1 DUP4 ADD SWAP1 SWAP3 MSTORE PUSH1 0x3 DUP3 MSTORE PUSH3 0x333037 PUSH1 0xE8 SHL SWAP3 DUP3 ADD SWAP3 SWAP1 SWAP3 MSTORE SWAP1 PUSH1 0xFF AND PUSH2 0xA5F JUMPI PUSH1 0x40 MLOAD PUSH3 0x461BCD PUSH1 0xE5 SHL DUP2 MSTORE PUSH1 0x4 ADD PUSH2 0x6B8 SWAP2 SWAP1 PUSH2 0x347D JUMP JUMPDEST POP PUSH1 0x0 PUSH2 0xA6B DUP4 PUSH2 0x1D48 JUMP JUMPDEST PUSH1 0x0 DUP2 DUP2 MSTORE PUSH1 0x38 PUSH1 0x20 SWAP1 DUP2 MSTORE PUSH1 0x40 DUP1 DUP4 KECCAK256 DUP1 SLOAD PUSH1 0x1 PUSH1 0x1 PUSH1 0xA0 SHL SUB SWAP1 DUP2 AND DUP6 MSTORE PUSH1 0x3C DUP5 MSTORE DUP3 DUP6 KECCAK256 PUSH1 0x1 DUP1 DUP5 ADD DUP1 SLOAD DUP9 MSTORE SWAP2 DUP7 MSTORE DUP5 DUP8 KECCAK256 DUP1 SLOAD DUP1 DUP4 ADD DUP3 SSTORE SWAP1 DUP9 MSTORE DUP7 DUP9 KECCAK256 DUP6 SLOAD PUSH1 0x7 SWAP1 SWAP3 MUL ADD DUP1 SLOAD SWAP2 DUP6 AND PUSH1 0x1 PUSH1 0x1 PUSH1 0xA0 SHL SUB NOT SWAP3 DUP4 AND OR DUP2 SSTORE DUP4 SLOAD DUP2 DUP5 ADD SSTORE PUSH1 0x2 DUP1 DUP8 ADD SLOAD SWAP1 DUP3 ADD DUP1 SLOAD SWAP2 DUP8 AND SWAP2 DUP5 AND SWAP2 SWAP1 SWAP2 OR SWAP1 SSTORE PUSH1 0x3 DUP1 DUP8 ADD SLOAD SWAP1 DUP3 ADD DUP1 SLOAD SWAP2 DUP8 AND SWAP2 SWAP1 SWAP4 AND OR SWAP1 SWAP2 SSTORE PUSH1 0x4 DUP1 DUP7 ADD SLOAD SWAP1 DUP3 ADD SSTORE PUSH1 0x5 DUP1 DUP7 ADD SLOAD SWAP1 DUP3 ADD DUP1 SLOAD PUSH1 0xFF NOT AND PUSH1 0xFF SWAP1 SWAP3 AND ISZERO ISZERO SWAP2 SWAP1 SWAP2 OR SWAP1 SSTORE PUSH1 0x6 DUP1 DUP7 ADD SLOAD SWAP2 ADD SSTORE SWAP3 SLOAD SWAP1 SWAP2 AND DUP6 MSTORE PUSH1 0x3D DUP5 MSTORE SWAP2 DUP5 KECCAK256 SWAP2 SLOAD DUP3 SLOAD SWAP2 DUP3 ADD DUP4 SSTORE SWAP2 DUP5 MSTORE SWAP2 SWAP1 SWAP3 KECCAK256 ADD SSTORE SWAP4 SWAP3 POP POP POP JUMP JUMPDEST PUSH2 0xB5B PUSH2 0xF46 JUMP JUMPDEST PUSH1 0x34 SLOAD PUSH1 0x40 DUP1 MLOAD DUP1 DUP3 ADD SWAP1 SWAP2 MSTORE PUSH1 0x3 DUP2 MSTORE PUSH3 0x313031 PUSH1 0xE8 SHL PUSH1 0x20 DUP3 ADD MSTORE SWAP1 PUSH1 0x1 PUSH1 0x1 PUSH1 0xA0 SHL SUB AND CALLER EQ PUSH2 0xBA1 JUMPI PUSH1 0x40 MLOAD PUSH3 0x461BCD PUSH1 0xE5 SHL DUP2 MSTORE PUSH1 0x4 ADD PUSH2 0x6B8 SWAP2 SWAP1 PUSH2 0x347D JUMP JUMPDEST POP PUSH1 0x0 PUSH1 0x1 PUSH1 0x1 PUSH1 0xA0 SHL SUB DUP4 AND PUSH2 0xC22 JUMPI DUP2 SELFBALANCE LT ISZERO PUSH2 0xBBF JUMPI PUSH1 0x0 DUP1 REVERT JUMPDEST PUSH1 0x40 MLOAD PUSH1 0x1 PUSH1 0x1 PUSH1 0xA0 SHL SUB DUP6 AND SWAP1 DUP4 SWAP1 PUSH1 0x0 DUP2 DUP2 DUP2 DUP6 DUP8 GAS CALL SWAP3 POP POP POP RETURNDATASIZE DUP1 PUSH1 0x0 DUP2 EQ PUSH2 0xC08 JUMPI PUSH1 0x40 MLOAD SWAP2 POP PUSH1 0x1F NOT PUSH1 0x3F RETURNDATASIZE ADD AND DUP3 ADD PUSH1 0x40 MSTORE RETURNDATASIZE DUP3 MSTORE RETURNDATASIZE PUSH1 0x0 PUSH1 0x20 DUP5 ADD RETURNDATACOPY PUSH2 0xC0D JUMP JUMPDEST PUSH1 0x60 SWAP2 POP JUMPDEST POP POP DUP1 SWAP2 POP POP DUP1 PUSH2 0xC1D JUMPI PUSH1 0x0 DUP1 REVERT JUMPDEST PUSH2 0xCA3 JUMP JUMPDEST PUSH1 0x40 MLOAD PUSH4 0xA9059CBB PUSH1 0xE0 SHL DUP2 MSTORE PUSH1 0x1 PUSH1 0x1 PUSH1 0xA0 SHL SUB DUP6 DUP2 AND PUSH1 0x4 DUP4 ADD MSTORE PUSH1 0x24 DUP3 ADD DUP5 SWAP1 MSTORE DUP5 SWAP2 SWAP1 DUP3 AND SWAP1 PUSH4 0xA9059CBB SWAP1 PUSH1 0x44 ADD PUSH1 0x20 PUSH1 0x40 MLOAD DUP1 DUP4 SUB DUP2 PUSH1 0x0 DUP8 GAS CALL ISZERO DUP1 ISZERO PUSH2 0xC74 JUMPI RETURNDATASIZE PUSH1 0x0 DUP1 RETURNDATACOPY RETURNDATASIZE PUSH1 0x0 REVERT JUMPDEST POP POP POP POP PUSH1 0x40 MLOAD RETURNDATASIZE PUSH1 0x1F NOT PUSH1 0x1F DUP3 ADD AND DUP3 ADD DUP1 PUSH1 0x40 MSTORE POP DUP2 ADD SWAP1 PUSH2 0xC98 SWAP2 SWAP1 PUSH2 0x34B0 JUMP JUMPDEST PUSH2 0xCA1 JUMPI PUSH1 0x0 DUP1 REVERT JUMPDEST POP JUMPDEST POP PUSH2 0x734 PUSH1 0x1 DUP1 SSTORE JUMP JUMPDEST PUSH2 0xCB5 PUSH2 0xF46 JUMP JUMPDEST PUSH2 0x656 DUP2 PUSH2 0x2033 JUMP JUMPDEST PUSH1 0x34 SLOAD PUSH1 0x40 DUP1 MLOAD DUP1 DUP3 ADD SWAP1 SWAP2 MSTORE PUSH1 0x3 DUP2 MSTORE PUSH3 0x313031 PUSH1 0xE8 SHL PUSH1 0x20 DUP3 ADD MSTORE SWAP1 PUSH1 0x1 PUSH1 0x1 PUSH1 0xA0 SHL SUB AND CALLER EQ PUSH2 0xD04 JUMPI PUSH1 0x40 MLOAD PUSH3 0x461BCD PUSH1 0xE5 SHL DUP2 MSTORE PUSH1 0x4 ADD PUSH2 0x6B8 SWAP2 SWAP1 PUSH2 0x347D JUMP JUMPDEST POP PUSH1 0x1 PUSH1 0x1 PUSH1 0xA0 SHL SUB SWAP2 SWAP1 SWAP2 AND PUSH1 0x0 SWAP1 DUP2 MSTORE PUSH1 0x3F PUSH1 0x20 MSTORE PUSH1 0x40 SWAP1 KECCAK256 DUP1 SLOAD PUSH1 0xFF NOT AND SWAP2 ISZERO ISZERO SWAP2 SWAP1 SWAP2 OR SWAP1 SSTORE JUMP JUMPDEST PUSH1 0x3B PUSH1 0x20 MSTORE DUP2 PUSH1 0x0 MSTORE PUSH1 0x40 PUSH1 0x0 KECCAK256 DUP2 DUP2 SLOAD DUP2 LT PUSH2 0x9C7 JUMPI PUSH1 0x0 DUP1 REVERT JUMPDEST PUSH1 0x37 DUP2 DUP2 SLOAD DUP2 LT PUSH2 0x634 JUMPI PUSH1 0x0 DUP1 REVERT JUMPDEST PUSH2 0x65F DUP2 PUSH2 0x29AC JUMP JUMPDEST PUSH1 0x60 DUP2 ADD MLOAD PUSH1 0x1 PUSH1 0x1 PUSH1 0xA0 SHL SUB AND PUSH1 0x0 SWAP1 DUP2 MSTORE PUSH1 0x3F PUSH1 0x20 SWAP1 DUP2 MSTORE PUSH1 0x40 DUP1 DUP4 KECCAK256 SLOAD DUP2 MLOAD DUP1 DUP4 ADD SWAP1 SWAP3 MSTORE PUSH1 0x3 DUP3 MSTORE PUSH3 0x333037 PUSH1 0xE8 SHL SWAP3 DUP3 ADD SWAP3 SWAP1 SWAP3 MSTORE SWAP1 PUSH1 0xFF AND PUSH2 0xDC0 JUMPI PUSH1 0x40 MLOAD PUSH3 0x461BCD PUSH1 0xE5 SHL DUP2 MSTORE PUSH1 0x4 ADD PUSH2 0x6B8 SWAP2 SWAP1 PUSH2 0x347D JUMP JUMPDEST POP PUSH1 0x0 PUSH2 0xDCC DUP4 PUSH2 0x2A73 JUMP JUMPDEST PUSH1 0x0 DUP2 DUP2 MSTORE PUSH1 0x36 PUSH1 0x20 SWAP1 DUP2 MSTORE PUSH1 0x40 DUP1 DUP4 KECCAK256 DUP1 SLOAD PUSH1 0x1 PUSH1 0x1 PUSH1 0xA0 SHL SUB SWAP1 DUP2 AND DUP6 MSTORE PUSH1 0x3A DUP5 MSTORE DUP3 DUP6 KECCAK256 PUSH1 0x1 DUP1 DUP5 ADD DUP1 SLOAD DUP9 MSTORE SWAP2 DUP7 MSTORE DUP5 DUP8 KECCAK256 DUP1 SLOAD DUP1 DUP4 ADD DUP3 SSTORE SWAP1 DUP9 MSTORE DUP7 DUP9 KECCAK256 DUP6 SLOAD PUSH1 0x7 SWAP1 SWAP3 MUL ADD DUP1 SLOAD SWAP2 DUP6 AND PUSH1 0x1 PUSH1 0x1 PUSH1 0xA0 SHL SUB NOT SWAP3 DUP4 AND OR DUP2 SSTORE DUP4 SLOAD DUP2 DUP5 ADD SSTORE PUSH1 0x2 DUP1 DUP8 ADD SLOAD SWAP1 DUP3 ADD DUP1 SLOAD SWAP2 DUP8 AND SWAP2 DUP5 AND SWAP2 SWAP1 SWAP2 OR SWAP1 SSTORE PUSH1 0x3 DUP1 DUP8 ADD SLOAD SWAP1 DUP3 ADD DUP1 SLOAD SWAP2 DUP8 AND SWAP2 SWAP1 SWAP4 AND OR SWAP1 SWAP2 SSTORE PUSH1 0x4 DUP1 DUP7 ADD SLOAD SWAP1 DUP3 ADD SSTORE PUSH1 0x5 DUP1 DUP7 ADD SLOAD SWAP1 DUP3 ADD DUP1 SLOAD PUSH1 0xFF NOT AND PUSH1 0xFF SWAP1 SWAP3 AND ISZERO ISZERO SWAP2 SWAP1 SWAP2 OR SWAP1 SSTORE PUSH1 0x6 DUP1 DUP7 ADD SLOAD SWAP2 ADD SSTORE SWAP3 SLOAD SWAP1 SWAP2 AND DUP6 MSTORE PUSH1 0x3B DUP5 MSTORE SWAP2 DUP5 KECCAK256 SWAP2 SLOAD DUP3 SLOAD SWAP2 DUP3 ADD DUP4 SSTORE SWAP2 DUP5 MSTORE SWAP2 SWAP1 SWAP3 KECCAK256 ADD SSTORE SWAP4 SWAP3 POP POP POP JUMP JUMPDEST PUSH1 0x34 SLOAD PUSH1 0x1 PUSH1 0x1 PUSH1 0xA0 SHL SUB AND CALLER EQ DUP1 ISZERO PUSH2 0xED6 JUMPI POP PUSH1 0x1 PUSH1 0x1 PUSH1 0xA0 SHL SUB DUP2 AND ISZERO ISZERO JUMPDEST PUSH1 0x40 MLOAD DUP1 PUSH1 0x40 ADD PUSH1 0x40 MSTORE DUP1 PUSH1 0x3 DUP2 MSTORE PUSH1 0x20 ADD PUSH3 0x313031 PUSH1 0xE8 SHL DUP2 MSTORE POP SWAP1 PUSH2 0xF10 JUMPI PUSH1 0x40 MLOAD PUSH3 0x461BCD PUSH1 0xE5 SHL DUP2 MSTORE PUSH1 0x4 ADD PUSH2 0x6B8 SWAP2 SWAP1 PUSH2 0x347D JUMP JUMPDEST POP PUSH1 0x35 SLOAD PUSH1 0x1 PUSH1 0x1 PUSH1 0xA0 SHL SUB DUP3 DUP2 AND SWAP2 AND EQ PUSH2 0x65F JUMPI PUSH1 0x35 DUP1 SLOAD PUSH1 0x1 PUSH1 0x1 PUSH1 0xA0 SHL SUB DUP4 AND PUSH1 0x1 PUSH1 0x1 PUSH1 0xA0 SHL SUB NOT SWAP1 SWAP2 AND OR SWAP1 SSTORE POP JUMP JUMPDEST PUSH1 0x2 PUSH1 0x1 SLOAD EQ ISZERO PUSH2 0xF99 JUMPI PUSH1 0x40 MLOAD PUSH3 0x461BCD PUSH1 0xE5 SHL DUP2 MSTORE PUSH1 0x20 PUSH1 0x4 DUP3 ADD MSTORE PUSH1 0x1F PUSH1 0x24 DUP3 ADD MSTORE PUSH32 0x5265656E7472616E637947756172643A207265656E7472616E742063616C6C00 PUSH1 0x44 DUP3 ADD MSTORE PUSH1 0x64 ADD PUSH2 0x6B8 JUMP JUMPDEST PUSH1 0x2 PUSH1 0x1 SSTORE JUMP JUMPDEST PUSH1 0x0 DUP2 DUP2 MSTORE PUSH1 0x36 PUSH1 0x20 SWAP1 DUP2 MSTORE PUSH1 0x40 SWAP2 DUP3 SWAP1 KECCAK256 DUP3 MLOAD PUSH1 0xE0 DUP2 ADD DUP5 MSTORE DUP2 SLOAD PUSH1 0x1 PUSH1 0x1 PUSH1 0xA0 SHL SUB SWAP1 DUP2 AND DUP3 MSTORE PUSH1 0x1 DUP4 ADD SLOAD SWAP4 DUP3 ADD SWAP4 SWAP1 SWAP4 MSTORE PUSH1 0x2 DUP3 ADD SLOAD DUP4 AND SWAP4 DUP2 ADD SWAP4 SWAP1 SWAP4 MSTORE PUSH1 0x3 DUP2 ADD SLOAD SWAP1 SWAP2 AND PUSH1 0x60 DUP4 ADD MSTORE PUSH1 0x4 DUP2 ADD SLOAD PUSH1 0x80 DUP4 ADD MSTORE PUSH1 0x5 DUP2 ADD SLOAD PUSH1 0xFF AND ISZERO DUP1 ISZERO PUSH1 0xA0 DUP5 ADD DUP2 SWAP1 MSTORE PUSH1 0x6 SWAP1 SWAP3 ADD SLOAD PUSH1 0xC0 DUP5 ADD MSTORE SWAP1 PUSH2 0x1025 JUMPI POP DUP1 PUSH1 0xC0 ADD MLOAD TIMESTAMP LT JUMPDEST PUSH1 0x40 MLOAD DUP1 PUSH1 0x40 ADD PUSH1 0x40 MSTORE DUP1 PUSH1 0x3 DUP2 MSTORE PUSH1 0x20 ADD PUSH3 0x199819 PUSH1 0xE9 SHL DUP2 MSTORE POP SWAP1 PUSH2 0x105F JUMPI PUSH1 0x40 MLOAD PUSH3 0x461BCD PUSH1 0xE5 SHL DUP2 MSTORE PUSH1 0x4 ADD PUSH2 0x6B8 SWAP2 SWAP1 PUSH2 0x347D JUMP JUMPDEST POP PUSH1 0x0 DUP3 DUP2 MSTORE PUSH1 0x36 PUSH1 0x20 SWAP1 DUP2 MSTORE PUSH1 0x40 DUP1 DUP4 KECCAK256 PUSH1 0x5 ADD DUP1 SLOAD PUSH1 0xFF NOT AND PUSH1 0x1 OR SWAP1 SSTORE DUP4 MLOAD PUSH1 0x60 DUP1 DUP7 ADD MLOAD DUP4 MLOAD PUSH1 0xE0 DUP2 ADD DUP6 MSTORE DUP7 DUP2 MSTORE SWAP5 DUP6 ADD DUP7 SWAP1 MSTORE SWAP3 DUP5 ADD DUP6 SWAP1 MSTORE DUP4 ADD DUP5 SWAP1 MSTORE PUSH1 0x80 DUP4 ADD DUP5 SWAP1 MSTORE PUSH1 0xA0 DUP4 ADD DUP5 SWAP1 MSTORE PUSH1 0xC0 DUP4 ADD SWAP4 SWAP1 SWAP4 MSTORE PUSH1 0x1 PUSH1 0x1 PUSH1 0xA0 SHL SUB AND ISZERO ISZERO SWAP1 PUSH1 0x0 DUP3 ISZERO PUSH2 0x1224 JUMPI DUP5 PUSH1 0x60 ADD MLOAD SWAP1 POP PUSH1 0x40 MLOAD DUP1 PUSH1 0xE0 ADD PUSH1 0x40 MSTORE DUP1 CALLER PUSH1 0x1 PUSH1 0x1 PUSH1 0xA0 SHL SUB AND DUP2 MSTORE PUSH1 0x20 ADD DUP7 PUSH1 0x40 ADD MLOAD PUSH1 0x1 PUSH1 0x1 PUSH1 0xA0 SHL SUB AND DUP2 MSTORE PUSH1 0x20 ADD DUP7 PUSH1 0x80 ADD MLOAD DUP2 MSTORE PUSH1 0x20 ADD DUP7 PUSH1 0x80 ADD MLOAD DUP2 MSTORE PUSH1 0x20 ADD DUP3 PUSH1 0x1 PUSH1 0x1 PUSH1 0xA0 SHL SUB AND PUSH4 0x70A08231 CALLER PUSH1 0x40 MLOAD DUP3 PUSH4 0xFFFFFFFF AND PUSH1 0xE0 SHL DUP2 MSTORE PUSH1 0x4 ADD PUSH2 0x1150 SWAP2 SWAP1 PUSH1 0x1 PUSH1 0x1 PUSH1 0xA0 SHL SUB SWAP2 SWAP1 SWAP2 AND DUP2 MSTORE PUSH1 0x20 ADD SWAP1 JUMP JUMPDEST PUSH1 0x20 PUSH1 0x40 MLOAD DUP1 DUP4 SUB DUP2 DUP7 GAS STATICCALL ISZERO DUP1 ISZERO PUSH2 0x116D JUMPI RETURNDATASIZE PUSH1 0x0 DUP1 RETURNDATACOPY RETURNDATASIZE PUSH1 0x0 REVERT JUMPDEST POP POP POP POP PUSH1 0x40 MLOAD RETURNDATASIZE PUSH1 0x1F NOT PUSH1 0x1F DUP3 ADD AND DUP3 ADD DUP1 PUSH1 0x40 MSTORE POP DUP2 ADD SWAP1 PUSH2 0x1191 SWAP2 SWAP1 PUSH2 0x34CD JUMP JUMPDEST DUP2 MSTORE PUSH1 0x40 MLOAD PUSH4 0x6EB1769F PUSH1 0xE1 SHL DUP2 MSTORE CALLER PUSH1 0x4 DUP3 ADD MSTORE ADDRESS PUSH1 0x24 DUP3 ADD MSTORE PUSH1 0x20 SWAP1 SWAP2 ADD SWAP1 PUSH1 0x1 PUSH1 0x1 PUSH1 0xA0 SHL SUB DUP5 AND SWAP1 PUSH4 0xDD62ED3E SWAP1 PUSH1 0x44 ADD PUSH1 0x20 PUSH1 0x40 MLOAD DUP1 DUP4 SUB DUP2 DUP7 GAS STATICCALL ISZERO DUP1 ISZERO PUSH2 0x11E3 JUMPI RETURNDATASIZE PUSH1 0x0 DUP1 RETURNDATACOPY RETURNDATASIZE PUSH1 0x0 REVERT JUMPDEST POP POP POP POP PUSH1 0x40 MLOAD RETURNDATASIZE PUSH1 0x1F NOT PUSH1 0x1F DUP3 ADD AND DUP3 ADD DUP1 PUSH1 0x40 MSTORE POP DUP2 ADD SWAP1 PUSH2 0x1207 SWAP2 SWAP1 PUSH2 0x34CD JUMP JUMPDEST DUP2 MSTORE PUSH1 0x20 ADD DUP7 PUSH1 0x60 ADD MLOAD PUSH1 0x1 PUSH1 0x1 PUSH1 0xA0 SHL SUB AND DUP2 MSTORE POP SWAP2 POP PUSH2 0x1284 JUMP JUMPDEST PUSH1 0x40 MLOAD DUP1 PUSH1 0xE0 ADD PUSH1 0x40 MSTORE DUP1 CALLER PUSH1 0x1 PUSH1 0x1 PUSH1 0xA0 SHL SUB AND DUP2 MSTORE PUSH1 0x20 ADD DUP7 PUSH1 0x40 ADD MLOAD PUSH1 0x1 PUSH1 0x1 PUSH1 0xA0 SHL SUB AND DUP2 MSTORE PUSH1 0x20 ADD DUP7 PUSH1 0x80 ADD MLOAD DUP2 MSTORE PUSH1 0x20 ADD DUP7 PUSH1 0x80 ADD MLOAD DUP2 MSTORE PUSH1 0x20 ADD PUSH1 0x0 DUP2 MSTORE PUSH1 0x20 ADD PUSH1 0x0 DUP2 MSTORE PUSH1 0x20 ADD PUSH1 0x0 PUSH1 0x1 PUSH1 0x1 PUSH1 0xA0 SHL SUB AND DUP2 MSTORE POP SWAP2 POP JUMPDEST DUP5 PUSH1 0x40 ADD MLOAD PUSH1 0x1 PUSH1 0x1 PUSH1 0xA0 SHL SUB AND DUP5 PUSH1 0x1 PUSH1 0x1 PUSH1 0xA0 SHL SUB AND PUSH4 0x6352211E DUP8 PUSH1 0x20 ADD MLOAD PUSH1 0x40 MLOAD DUP3 PUSH4 0xFFFFFFFF AND PUSH1 0xE0 SHL DUP2 MSTORE PUSH1 0x4 ADD PUSH2 0x12C4 SWAP2 DUP2 MSTORE PUSH1 0x20 ADD SWAP1 JUMP JUMPDEST PUSH1 0x20 PUSH1 0x40 MLOAD DUP1 DUP4 SUB DUP2 DUP7 GAS STATICCALL ISZERO DUP1 ISZERO PUSH2 0x12E1 JUMPI RETURNDATASIZE PUSH1 0x0 DUP1 RETURNDATACOPY RETURNDATASIZE PUSH1 0x0 REVERT JUMPDEST POP POP POP POP PUSH1 0x40 MLOAD RETURNDATASIZE PUSH1 0x1F NOT PUSH1 0x1F DUP3 ADD AND DUP3 ADD DUP1 PUSH1 0x40 MSTORE POP DUP2 ADD SWAP1 PUSH2 0x1305 SWAP2 SWAP1 PUSH2 0x34E6 JUMP JUMPDEST PUSH1 0x1 PUSH1 0x1 PUSH1 0xA0 SHL SUB AND EQ PUSH1 0x40 MLOAD DUP1 PUSH1 0x40 ADD PUSH1 0x40 MSTORE DUP1 PUSH1 0x3 DUP2 MSTORE PUSH1 0x20 ADD PUSH3 0x33303 PUSH1 0xEC SHL DUP2 MSTORE POP SWAP1 PUSH2 0x1349 JUMPI PUSH1 0x40 MLOAD PUSH3 0x461BCD PUSH1 0xE5 SHL DUP2 MSTORE PUSH1 0x4 ADD PUSH2 0x6B8 SWAP2 SWAP1 PUSH2 0x347D JUMP JUMPDEST POP DUP3 ISZERO PUSH2 0x13DB JUMPI PUSH1 0x40 DUP1 DUP4 ADD MLOAD PUSH1 0xA0 DUP5 ADD MLOAD DUP3 MLOAD DUP1 DUP5 ADD SWAP1 SWAP4 MSTORE PUSH1 0x3 DUP4 MSTORE PUSH3 0x333035 PUSH1 0xE8 SHL PUSH1 0x20 DUP5 ADD MSTORE LT ISZERO PUSH2 0x1392 JUMPI PUSH1 0x40 MLOAD PUSH3 0x461BCD PUSH1 0xE5 SHL DUP2 MSTORE PUSH1 0x4 ADD PUSH2 0x6B8 SWAP2 SWAP1 PUSH2 0x347D JUMP JUMPDEST POP PUSH1 0x40 DUP1 DUP4 ADD MLOAD PUSH1 0x80 DUP5 ADD MLOAD DUP3 MLOAD DUP1 DUP5 ADD SWAP1 SWAP4 MSTORE PUSH1 0x3 DUP4 MSTORE PUSH3 0xCCC0D PUSH1 0xEA SHL PUSH1 0x20 DUP5 ADD MSTORE LT ISZERO PUSH2 0x13D5 JUMPI PUSH1 0x40 MLOAD PUSH3 0x461BCD PUSH1 0xE5 SHL DUP2 MSTORE PUSH1 0x4 ADD PUSH2 0x6B8 SWAP2 SWAP1 PUSH2 0x347D JUMP JUMPDEST POP PUSH2 0x141B JUMP JUMPDEST PUSH1 0x40 DUP1 DUP4 ADD MLOAD DUP2 MLOAD DUP1 DUP4 ADD SWAP1 SWAP3 MSTORE PUSH1 0x3 DUP3 MSTORE PUSH3 0x333033 PUSH1 0xE8 SHL PUSH1 0x20 DUP4 ADD MSTORE CALLVALUE LT ISZERO PUSH2 0x1419 JUMPI PUSH1 0x40 MLOAD PUSH3 0x461BCD PUSH1 0xE5 SHL DUP2 MSTORE PUSH1 0x4 ADD PUSH2 0x6B8 SWAP2 SWAP1 PUSH2 0x347D JUMP JUMPDEST POP JUMPDEST PUSH1 0x20 DUP1 DUP4 ADD MLOAD DUP4 MLOAD SWAP2 DUP8 ADD MLOAD PUSH1 0x40 MLOAD PUSH4 0x21421707 PUSH1 0xE1 SHL DUP2 MSTORE PUSH1 0x1 PUSH1 0x1 PUSH1 0xA0 SHL SUB DUP9 AND SWAP4 PUSH4 0x42842E0E SWAP4 PUSH2 0x1453 SWAP4 SWAP1 SWAP3 PUSH1 0x4 ADD PUSH2 0x3503 JUMP JUMPDEST PUSH1 0x0 PUSH1 0x40 MLOAD DUP1 DUP4 SUB DUP2 PUSH1 0x0 DUP8 DUP1 EXTCODESIZE ISZERO DUP1 ISZERO PUSH2 0x146D JUMPI PUSH1 0x0 DUP1 REVERT JUMPDEST POP GAS CALL ISZERO DUP1 ISZERO PUSH2 0x1481 JUMPI RETURNDATASIZE PUSH1 0x0 DUP1 RETURNDATACOPY RETURNDATASIZE PUSH1 0x0 REVERT JUMPDEST POP POP PUSH1 0x35 SLOAD PUSH1 0x40 DUP1 MLOAD PUSH1 0x80 DUP2 ADD DUP3 MSTORE PUSH1 0x0 DUP1 DUP3 MSTORE PUSH1 0x20 DUP1 DUP4 ADD DUP3 SWAP1 MSTORE DUP3 DUP5 ADD DUP3 SWAP1 MSTORE PUSH1 0x60 DUP4 ADD SWAP2 SWAP1 SWAP2 MSTORE DUP3 MLOAD DUP1 DUP5 ADD DUP5 MSTORE PUSH1 0x1B DUP2 MSTORE PUSH32 0x4D41524B4554504C4143455F42454E454649545F50455243454E540000000000 SWAP2 DUP2 ADD SWAP2 SWAP1 SWAP2 MSTORE SWAP2 MLOAD PUSH4 0x6D12DCE1 PUSH1 0xE0 SHL DUP2 MSTORE PUSH1 0x1 PUSH1 0x1 PUSH1 0xA0 SHL SUB SWAP1 SWAP4 AND SWAP5 POP SWAP3 POP DUP4 SWAP2 PUSH4 0x6D12DCE1 SWAP2 PUSH2 0x150D SWAP2 PUSH1 0x4 ADD PUSH2 0x347D JUMP JUMPDEST PUSH1 0x20 PUSH1 0x40 MLOAD DUP1 DUP4 SUB DUP2 DUP7 GAS STATICCALL ISZERO DUP1 ISZERO PUSH2 0x152A JUMPI RETURNDATASIZE PUSH1 0x0 DUP1 RETURNDATACOPY RETURNDATASIZE PUSH1 0x0 REVERT JUMPDEST POP POP POP POP PUSH1 0x40 MLOAD RETURNDATASIZE PUSH1 0x1F NOT PUSH1 0x1F DUP3 ADD AND DUP3 ADD DUP1 PUSH1 0x40 MSTORE POP DUP2 ADD SWAP1 PUSH2 0x154E SWAP2 SWAP1 PUSH2 0x34CD JUMP JUMPDEST PUSH1 0x40 DUP3 ADD DUP2 SWAP1 MSTORE PUSH2 0x1561 JUMPI PUSH1 0xFA PUSH1 0x40 DUP3 ADD MSTORE JUMPDEST PUSH1 0x40 DUP2 ADD MLOAD ISZERO PUSH2 0x15A8 JUMPI PUSH2 0x2710 DUP2 PUSH1 0x40 ADD MLOAD DUP6 PUSH1 0x60 ADD MLOAD PUSH2 0x1582 SWAP2 SWAP1 PUSH2 0x3527 JUMP JUMPDEST PUSH2 0x158C SWAP2 SWAP1 PUSH2 0x3546 JUMP JUMPDEST PUSH1 0x60 DUP3 ADD DUP2 SWAP1 MSTORE PUSH1 0x40 DUP6 ADD DUP1 MLOAD PUSH2 0x15A4 SWAP1 DUP4 SWAP1 PUSH2 0x3568 JUMP JUMPDEST SWAP1 MSTORE POP JUMPDEST PUSH1 0x40 MLOAD PUSH4 0x1FFC9A7 PUSH1 0xE0 SHL DUP2 MSTORE PUSH4 0x152A902D PUSH1 0xE1 SHL PUSH1 0x4 DUP3 ADD MSTORE PUSH1 0x1 PUSH1 0x1 PUSH1 0xA0 SHL SUB DUP8 AND SWAP1 PUSH4 0x1FFC9A7 SWAP1 PUSH1 0x24 ADD PUSH1 0x20 PUSH1 0x40 MLOAD DUP1 DUP4 SUB DUP2 DUP7 GAS STATICCALL ISZERO DUP1 ISZERO PUSH2 0x15F3 JUMPI RETURNDATASIZE PUSH1 0x0 DUP1 RETURNDATACOPY RETURNDATASIZE PUSH1 0x0 REVERT JUMPDEST POP POP POP POP PUSH1 0x40 MLOAD RETURNDATASIZE PUSH1 0x1F NOT PUSH1 0x1F DUP3 ADD AND DUP3 ADD DUP1 PUSH1 0x40 MSTORE POP DUP2 ADD SWAP1 PUSH2 0x1617 SWAP2 SWAP1 PUSH2 0x34B0 JUMP JUMPDEST ISZERO PUSH2 0x16CE JUMPI DUP7 MLOAD PUSH1 0x20 DUP9 ADD MLOAD PUSH1 0x60 DUP7 ADD MLOAD PUSH1 0x40 MLOAD PUSH4 0x152A902D PUSH1 0xE1 SHL DUP2 MSTORE PUSH1 0x4 DUP2 ADD SWAP3 SWAP1 SWAP3 MSTORE PUSH1 0x24 DUP3 ADD MSTORE PUSH1 0x0 SWAP1 DUP2 SWAP1 PUSH1 0x1 PUSH1 0x1 PUSH1 0xA0 SHL SUB DUP5 AND SWAP1 PUSH4 0x2A55205A SWAP1 PUSH1 0x44 ADD PUSH1 0x40 DUP1 MLOAD DUP1 DUP4 SUB DUP2 DUP7 GAS STATICCALL ISZERO DUP1 ISZERO PUSH2 0x1677 JUMPI RETURNDATASIZE PUSH1 0x0 DUP1 RETURNDATACOPY RETURNDATASIZE PUSH1 0x0 REVERT JUMPDEST POP POP POP POP PUSH1 0x40 MLOAD RETURNDATASIZE PUSH1 0x1F NOT PUSH1 0x1F DUP3 ADD AND DUP3 ADD DUP1 PUSH1 0x40 MSTORE POP DUP2 ADD SWAP1 PUSH2 0x169B SWAP2 SWAP1 PUSH2 0x357F JUMP JUMPDEST PUSH1 0x20 DUP7 ADD DUP2 SWAP1 MSTORE PUSH1 0x1 PUSH1 0x1 PUSH1 0xA0 SHL SUB DUP3 AND DUP7 MSTORE PUSH1 0x40 DUP10 ADD DUP1 MLOAD SWAP3 SWAP5 POP SWAP1 SWAP3 POP DUP3 SWAP2 PUSH2 0x16C7 SWAP1 DUP4 SWAP1 PUSH2 0x3568 JUMP JUMPDEST SWAP1 MSTORE POP POP POP POP JUMPDEST DUP5 ISZERO PUSH2 0x1944 JUMPI DUP4 MLOAD PUSH1 0x60 DUP6 ADD MLOAD PUSH1 0x40 MLOAD PUSH4 0x23B872DD PUSH1 0xE0 SHL DUP2 MSTORE PUSH1 0x1 PUSH1 0x1 PUSH1 0xA0 SHL SUB DUP7 AND SWAP3 PUSH4 0x23B872DD SWAP3 PUSH2 0x1708 SWAP3 ADDRESS SWAP2 SWAP1 PUSH1 0x4 ADD PUSH2 0x3503 JUMP JUMPDEST PUSH1 0x20 PUSH1 0x40 MLOAD DUP1 DUP4 SUB DUP2 PUSH1 0x0 DUP8 GAS CALL ISZERO DUP1 ISZERO PUSH2 0x1727 JUMPI RETURNDATASIZE PUSH1 0x0 DUP1 RETURNDATACOPY RETURNDATASIZE PUSH1 0x0 REVERT JUMPDEST POP POP POP POP PUSH1 0x40 MLOAD RETURNDATASIZE PUSH1 0x1F NOT PUSH1 0x1F DUP3 ADD AND DUP3 ADD DUP1 PUSH1 0x40 MSTORE POP DUP2 ADD SWAP1 PUSH2 0x174B SWAP2 SWAP1 PUSH2 0x34B0 JUMP JUMPDEST PUSH1 0x40 MLOAD DUP1 PUSH1 0x40 ADD PUSH1 0x40 MSTORE DUP1 PUSH1 0x3 DUP2 MSTORE PUSH1 0x20 ADD PUSH3 0x19981B PUSH1 0xE9 SHL DUP2 MSTORE POP SWAP1 PUSH2 0x1785 JUMPI PUSH1 0x40 MLOAD PUSH3 0x461BCD PUSH1 0xE5 SHL DUP2 MSTORE PUSH1 0x4 ADD PUSH2 0x6B8 SWAP2 SWAP1 PUSH2 0x347D JUMP JUMPDEST POP PUSH1 0x40 DUP1 DUP9 ADD MLOAD DUP6 DUP3 ADD MLOAD SWAP2 MLOAD PUSH4 0xA9059CBB PUSH1 0xE0 SHL DUP2 MSTORE PUSH1 0x1 PUSH1 0x1 PUSH1 0xA0 SHL SUB SWAP2 DUP3 AND PUSH1 0x4 DUP3 ADD MSTORE PUSH1 0x24 DUP2 ADD SWAP3 SWAP1 SWAP3 MSTORE DUP5 AND SWAP1 PUSH4 0xA9059CBB SWAP1 PUSH1 0x44 ADD PUSH1 0x20 PUSH1 0x40 MLOAD DUP1 DUP4 SUB DUP2 PUSH1 0x0 DUP8 GAS CALL ISZERO DUP1 ISZERO PUSH2 0x17DF JUMPI RETURNDATASIZE PUSH1 0x0 DUP1 RETURNDATACOPY RETURNDATASIZE PUSH1 0x0 REVERT JUMPDEST POP POP POP POP PUSH1 0x40 MLOAD RETURNDATASIZE PUSH1 0x1F NOT PUSH1 0x1F DUP3 ADD AND DUP3 ADD DUP1 PUSH1 0x40 MSTORE POP DUP2 ADD SWAP1 PUSH2 0x1803 SWAP2 SWAP1 PUSH2 0x34B0 JUMP JUMPDEST PUSH1 0x40 MLOAD DUP1 PUSH1 0x40 ADD PUSH1 0x40 MSTORE DUP1 PUSH1 0x3 DUP2 MSTORE PUSH1 0x20 ADD PUSH3 0x19981B PUSH1 0xE9 SHL DUP2 MSTORE POP SWAP1 PUSH2 0x183D JUMPI PUSH1 0x40 MLOAD PUSH3 0x461BCD PUSH1 0xE5 SHL DUP2 MSTORE PUSH1 0x4 ADD PUSH2 0x6B8 SWAP2 SWAP1 PUSH2 0x347D JUMP JUMPDEST POP DUP1 MLOAD PUSH1 0x1 PUSH1 0x1 PUSH1 0xA0 SHL SUB AND ISZERO DUP1 ISZERO SWAP1 PUSH2 0x185B JUMPI POP PUSH1 0x0 DUP2 PUSH1 0x20 ADD MLOAD GT JUMPDEST ISZERO PUSH2 0x193F JUMPI DUP1 MLOAD PUSH1 0x20 DUP3 ADD MLOAD PUSH1 0x40 MLOAD PUSH4 0xA9059CBB PUSH1 0xE0 SHL DUP2 MSTORE PUSH1 0x1 PUSH1 0x1 PUSH1 0xA0 SHL SUB DUP7 AND SWAP3 PUSH4 0xA9059CBB SWAP3 PUSH2 0x18A5 SWAP3 PUSH1 0x4 ADD PUSH1 0x1 PUSH1 0x1 PUSH1 0xA0 SHL SUB SWAP3 SWAP1 SWAP3 AND DUP3 MSTORE PUSH1 0x20 DUP3 ADD MSTORE PUSH1 0x40 ADD SWAP1 JUMP JUMPDEST PUSH1 0x20 PUSH1 0x40 MLOAD DUP1 DUP4 SUB DUP2 PUSH1 0x0 DUP8 GAS CALL ISZERO DUP1 ISZERO PUSH2 0x18C4 JUMPI RETURNDATASIZE PUSH1 0x0 DUP1 RETURNDATACOPY RETURNDATASIZE PUSH1 0x0 REVERT JUMPDEST POP POP POP POP PUSH1 0x40 MLOAD RETURNDATASIZE PUSH1 0x1F NOT PUSH1 0x1F DUP3 ADD AND DUP3 ADD DUP1 PUSH1 0x40 MSTORE POP DUP2 ADD SWAP1 PUSH2 0x18E8 SWAP2 SWAP1 PUSH2 0x34B0 JUMP JUMPDEST PUSH1 0x40 MLOAD DUP1 PUSH1 0x40 ADD PUSH1 0x40 MSTORE DUP1 PUSH1 0x3 DUP2 MSTORE PUSH1 0x20 ADD PUSH3 0x19981B PUSH1 0xE9 SHL DUP2 MSTORE POP SWAP1 PUSH2 0x1922 JUMPI PUSH1 0x40 MLOAD PUSH3 0x461BCD PUSH1 0xE5 SHL DUP2 MSTORE PUSH1 0x4 ADD PUSH2 0x6B8 SWAP2 SWAP1 PUSH2 0x347D JUMP JUMPDEST POP PUSH2 0x193F DUP2 PUSH1 0x0 ADD MLOAD DUP9 PUSH1 0x20 ADD MLOAD DUP10 PUSH1 0x60 ADD MLOAD DUP5 PUSH1 0x20 ADD MLOAD PUSH2 0x2DA7 JUMP JUMPDEST PUSH2 0x1AE7 JUMP JUMPDEST PUSH1 0x40 DUP1 MLOAD DUP1 DUP3 ADD SWAP1 SWAP2 MSTORE PUSH1 0x3 DUP2 MSTORE PUSH3 0x333033 PUSH1 0xE8 SHL PUSH1 0x20 DUP3 ADD MSTORE SELFBALANCE PUSH2 0x197C JUMPI PUSH1 0x40 MLOAD PUSH3 0x461BCD PUSH1 0xE5 SHL DUP2 MSTORE PUSH1 0x4 ADD PUSH2 0x6B8 SWAP2 SWAP1 PUSH2 0x347D JUMP JUMPDEST POP PUSH1 0x0 DUP8 PUSH1 0x40 ADD MLOAD PUSH1 0x1 PUSH1 0x1 PUSH1 0xA0 SHL SUB AND DUP6 PUSH1 0x40 ADD MLOAD PUSH1 0x40 MLOAD PUSH1 0x0 PUSH1 0x40 MLOAD DUP1 DUP4 SUB DUP2 DUP6 DUP8 GAS CALL SWAP3 POP POP POP RETURNDATASIZE DUP1 PUSH1 0x0 DUP2 EQ PUSH2 0x19D2 JUMPI PUSH1 0x40 MLOAD SWAP2 POP PUSH1 0x1F NOT PUSH1 0x3F RETURNDATASIZE ADD AND DUP3 ADD PUSH1 0x40 MSTORE RETURNDATASIZE DUP3 MSTORE RETURNDATASIZE PUSH1 0x0 PUSH1 0x20 DUP5 ADD RETURNDATACOPY PUSH2 0x19D7 JUMP JUMPDEST PUSH1 0x60 SWAP2 POP JUMPDEST POP POP PUSH1 0x40 DUP1 MLOAD DUP1 DUP3 ADD SWAP1 SWAP2 MSTORE PUSH1 0x3 DUP2 MSTORE PUSH3 0x19981B PUSH1 0xE9 SHL PUSH1 0x20 DUP3 ADD MSTORE SWAP1 SWAP2 POP DUP2 PUSH2 0x1A14 JUMPI PUSH1 0x40 MLOAD PUSH3 0x461BCD PUSH1 0xE5 SHL DUP2 MSTORE PUSH1 0x4 ADD PUSH2 0x6B8 SWAP2 SWAP1 PUSH2 0x347D JUMP JUMPDEST POP DUP2 MLOAD PUSH1 0x1 PUSH1 0x1 PUSH1 0xA0 SHL SUB AND ISZERO DUP1 ISZERO SWAP1 PUSH2 0x1A32 JUMPI POP PUSH1 0x0 DUP3 PUSH1 0x20 ADD MLOAD GT JUMPDEST ISZERO PUSH2 0x1AE5 JUMPI DUP2 MLOAD PUSH1 0x20 DUP4 ADD MLOAD PUSH1 0x40 MLOAD PUSH1 0x1 PUSH1 0x1 PUSH1 0xA0 SHL SUB SWAP1 SWAP3 AND SWAP2 PUSH1 0x0 DUP2 DUP2 DUP2 DUP6 DUP8 GAS CALL SWAP3 POP POP POP RETURNDATASIZE DUP1 PUSH1 0x0 DUP2 EQ PUSH2 0x1A86 JUMPI PUSH1 0x40 MLOAD SWAP2 POP PUSH1 0x1F NOT PUSH1 0x3F RETURNDATASIZE ADD AND DUP3 ADD PUSH1 0x40 MSTORE RETURNDATASIZE DUP3 MSTORE RETURNDATASIZE PUSH1 0x0 PUSH1 0x20 DUP5 ADD RETURNDATACOPY PUSH2 0x1A8B JUMP JUMPDEST PUSH1 0x60 SWAP2 POP JUMPDEST POP POP PUSH1 0x40 DUP1 MLOAD DUP1 DUP3 ADD SWAP1 SWAP2 MSTORE PUSH1 0x3 DUP2 MSTORE PUSH3 0x19981B PUSH1 0xE9 SHL PUSH1 0x20 DUP3 ADD MSTORE SWAP1 SWAP2 POP DUP2 PUSH2 0x1AC8 JUMPI PUSH1 0x40 MLOAD PUSH3 0x461BCD PUSH1 0xE5 SHL DUP2 MSTORE PUSH1 0x4 ADD PUSH2 0x6B8 SWAP2 SWAP1 PUSH2 0x347D JUMP JUMPDEST POP PUSH2 0x1AE5 DUP3 PUSH1 0x0 ADD MLOAD DUP10 PUSH1 0x20 ADD MLOAD DUP11 PUSH1 0x60 ADD MLOAD DUP6 PUSH1 0x20 ADD MLOAD PUSH2 0x2DA7 JUMP JUMPDEST POP JUMPDEST DUP8 PUSH32 0xE06095B27616FE3BACD030B307FD111D7774AFA5176A7CFD0863F3E8E8904B71 PUSH1 0x36 PUSH1 0x0 DUP12 DUP2 MSTORE PUSH1 0x20 ADD SWAP1 DUP2 MSTORE PUSH1 0x20 ADD PUSH1 0x0 KECCAK256 PUSH1 0x40 MLOAD PUSH2 0x1B29 SWAP2 SWAP1 PUSH2 0x35AD JUMP JUMPDEST PUSH1 0x40 MLOAD DUP1 SWAP2 SUB SWAP1 LOG2 POP POP POP POP POP POP POP POP JUMP JUMPDEST PUSH1 0x1 DUP1 SSTORE JUMP JUMPDEST PUSH1 0x0 SLOAD PUSH2 0x100 SWAP1 DIV PUSH1 0xFF AND ISZERO DUP1 DUP1 ISZERO PUSH2 0x1B61 JUMPI POP PUSH1 0x0 SLOAD PUSH1 0x1 PUSH1 0xFF SWAP1 SWAP2 AND LT JUMPDEST DUP1 PUSH2 0x1B7B JUMPI POP ADDRESS EXTCODESIZE ISZERO DUP1 ISZERO PUSH2 0x1B7B JUMPI POP PUSH1 0x0 SLOAD PUSH1 0xFF AND PUSH1 0x1 EQ JUMPDEST PUSH2 0x1B97 JUMPI PUSH1 0x40 MLOAD PUSH3 0x461BCD PUSH1 0xE5 SHL DUP2 MSTORE PUSH1 0x4 ADD PUSH2 0x6B8 SWAP1 PUSH2 0x3374 JUMP JUMPDEST PUSH1 0x0 DUP1 SLOAD PUSH1 0xFF NOT AND PUSH1 0x1 OR SWAP1 SSTORE DUP1 ISZERO PUSH2 0x1BBA JUMPI PUSH1 0x0 DUP1 SLOAD PUSH2 0xFF00 NOT AND PUSH2 0x100 OR SWAP1 SSTORE JUMPDEST PUSH1 0x40 DUP1 MLOAD DUP1 DUP3 ADD SWAP1 SWAP2 MSTORE PUSH1 0x3 DUP2 MSTORE PUSH3 0x31303 PUSH1 0xEC SHL PUSH1 0x20 DUP3 ADD MSTORE PUSH1 0x1 PUSH1 0x1 PUSH1 0xA0 SHL SUB DUP5 AND PUSH2 0x1BFB JUMPI PUSH1 0x40 MLOAD PUSH3 0x461BCD PUSH1 0xE5 SHL DUP2 MSTORE PUSH1 0x4 ADD PUSH2 0x6B8 SWAP2 SWAP1 PUSH2 0x347D JUMP JUMPDEST POP PUSH1 0x40 DUP1 MLOAD DUP1 DUP3 ADD SWAP1 SWAP2 MSTORE PUSH1 0x3 DUP2 MSTORE PUSH3 0x31303 PUSH1 0xEC SHL PUSH1 0x20 DUP3 ADD MSTORE PUSH1 0x1 PUSH1 0x1 PUSH1 0xA0 SHL SUB DUP4 AND PUSH2 0x1C3D JUMPI PUSH1 0x40 MLOAD PUSH3 0x461BCD PUSH1 0xE5 SHL DUP2 MSTORE PUSH1 0x4 ADD PUSH2 0x6B8 SWAP2 SWAP1 PUSH2 0x347D JUMP JUMPDEST POP PUSH1 0x34 DUP1 SLOAD PUSH1 0x1 PUSH1 0x1 PUSH1 0xA0 SHL SUB DUP1 DUP7 AND PUSH1 0x1 PUSH1 0x1 PUSH1 0xA0 SHL SUB NOT SWAP3 DUP4 AND OR SWAP1 SWAP3 SSTORE PUSH1 0x35 DUP1 SLOAD SWAP3 DUP6 AND SWAP3 SWAP1 SWAP2 AND SWAP2 SWAP1 SWAP2 OR SWAP1 SSTORE PUSH2 0x6EE PUSH2 0x2E8E JUMP JUMPDEST PUSH1 0x0 DUP2 DUP2 MSTORE PUSH1 0x36 PUSH1 0x20 SWAP1 DUP2 MSTORE PUSH1 0x40 SWAP2 DUP3 SWAP1 KECCAK256 PUSH1 0x2 ADD SLOAD DUP3 MLOAD DUP1 DUP5 ADD SWAP1 SWAP4 MSTORE PUSH1 0x3 DUP4 MSTORE PUSH3 0x33303 PUSH1 0xEC SHL SWAP2 DUP4 ADD SWAP2 SWAP1 SWAP2 MSTORE PUSH1 0x1 PUSH1 0x1 PUSH1 0xA0 SHL SUB AND CALLER EQ PUSH2 0x1CCE JUMPI PUSH1 0x40 MLOAD PUSH3 0x461BCD PUSH1 0xE5 SHL DUP2 MSTORE PUSH1 0x4 ADD PUSH2 0x6B8 SWAP2 SWAP1 PUSH2 0x347D JUMP JUMPDEST POP PUSH1 0x0 DUP2 DUP2 MSTORE PUSH1 0x36 PUSH1 0x20 MSTORE PUSH1 0x40 SWAP1 KECCAK256 PUSH1 0x5 ADD SLOAD PUSH1 0xFF AND ISZERO PUSH2 0x1CEE JUMPI PUSH1 0x0 DUP1 REVERT JUMPDEST PUSH1 0x0 DUP2 DUP2 MSTORE PUSH1 0x36 PUSH1 0x20 MSTORE PUSH1 0x40 SWAP1 DUP2 SWAP1 KECCAK256 PUSH1 0x5 DUP2 ADD DUP1 SLOAD PUSH1 0xFF NOT AND PUSH1 0x1 OR SWAP1 SSTORE SWAP1 MLOAD DUP3 SWAP2 PUSH32 0xF9936E2210C5CB61170D9DA568110DC1426511CD2A1FFABE518CB3F12791C32 SWAP2 PUSH2 0x1D3D SWAP2 SWAP1 PUSH2 0x35AD JUMP JUMPDEST PUSH1 0x40 MLOAD DUP1 SWAP2 SUB SWAP1 LOG2 POP JUMP JUMPDEST PUSH1 0x60 DUP2 ADD MLOAD PUSH1 0x40 DUP1 MLOAD DUP1 DUP3 ADD SWAP1 SWAP2 MSTORE PUSH1 0x3 DUP2 MSTORE PUSH3 0x31303 PUSH1 0xEC SHL PUSH1 0x20 DUP3 ADD MSTORE PUSH1 0x0 SWAP2 PUSH1 0x1 PUSH1 0x1 PUSH1 0xA0 SHL SUB AND PUSH2 0x1D90 JUMPI PUSH1 0x40 MLOAD PUSH3 0x461BCD PUSH1 0xE5 SHL DUP2 MSTORE PUSH1 0x4 ADD PUSH2 0x6B8 SWAP2 SWAP1 PUSH2 0x347D JUMP JUMPDEST POP DUP2 MLOAD PUSH1 0x40 DUP1 MLOAD DUP1 DUP3 ADD SWAP1 SWAP2 MSTORE PUSH1 0x3 DUP2 MSTORE PUSH3 0x31303 PUSH1 0xEC SHL PUSH1 0x20 DUP3 ADD MSTORE SWAP1 PUSH1 0x1 PUSH1 0x1 PUSH1 0xA0 SHL SUB AND PUSH2 0x1DD4 JUMPI PUSH1 0x40 MLOAD PUSH3 0x461BCD PUSH1 0xE5 SHL DUP2 MSTORE PUSH1 0x4 ADD PUSH2 0x6B8 SWAP2 SWAP1 PUSH2 0x347D JUMP JUMPDEST POP PUSH1 0x0 DUP3 PUSH1 0x80 ADD MLOAD GT PUSH1 0x40 MLOAD DUP1 PUSH1 0x40 ADD PUSH1 0x40 MSTORE DUP1 PUSH1 0x3 DUP2 MSTORE PUSH1 0x20 ADD PUSH3 0x66607 PUSH1 0xEB SHL DUP2 MSTORE POP SWAP1 PUSH2 0x1E17 JUMPI PUSH1 0x40 MLOAD PUSH3 0x461BCD PUSH1 0xE5 SHL DUP2 MSTORE PUSH1 0x4 ADD PUSH2 0x6B8 SWAP2 SWAP1 PUSH2 0x347D JUMP JUMPDEST POP PUSH1 0x0 DUP3 PUSH1 0xC0 ADD MLOAD GT PUSH1 0x40 MLOAD DUP1 PUSH1 0x40 ADD PUSH1 0x40 MSTORE DUP1 PUSH1 0x3 DUP2 MSTORE PUSH1 0x20 ADD PUSH3 0x333039 PUSH1 0xE8 SHL DUP2 MSTORE POP SWAP1 PUSH2 0x1E5A JUMPI PUSH1 0x40 MLOAD PUSH3 0x461BCD PUSH1 0xE5 SHL DUP2 MSTORE PUSH1 0x4 ADD PUSH2 0x6B8 SWAP2 SWAP1 PUSH2 0x347D JUMP JUMPDEST POP PUSH1 0x60 DUP3 ADD MLOAD PUSH1 0x80 DUP4 ADD MLOAD PUSH1 0x40 MLOAD PUSH4 0x6EB1769F PUSH1 0xE1 SHL DUP2 MSTORE CALLER PUSH1 0x4 DUP3 ADD MSTORE ADDRESS PUSH1 0x24 DUP3 ADD MSTORE PUSH1 0x1 PUSH1 0x1 PUSH1 0xA0 SHL SUB DUP4 AND SWAP1 PUSH4 0xDD62ED3E SWAP1 PUSH1 0x44 ADD PUSH1 0x20 PUSH1 0x40 MLOAD DUP1 DUP4 SUB DUP2 DUP7 GAS STATICCALL ISZERO DUP1 ISZERO PUSH2 0x1EAF JUMPI RETURNDATASIZE PUSH1 0x0 DUP1 RETURNDATACOPY RETURNDATASIZE PUSH1 0x0 REVERT JUMPDEST POP POP POP POP PUSH1 0x40 MLOAD RETURNDATASIZE PUSH1 0x1F NOT PUSH1 0x1F DUP3 ADD AND DUP3 ADD DUP1 PUSH1 0x40 MSTORE POP DUP2 ADD SWAP1 PUSH2 0x1ED3 SWAP2 SWAP1 PUSH2 0x34CD JUMP JUMPDEST LT ISZERO PUSH2 0x1EDE JUMPI PUSH1 0x0 DUP1 REVERT JUMPDEST PUSH1 0x33 DUP1 SLOAD SWAP1 PUSH1 0x0 PUSH2 0x1EEE DUP4 PUSH2 0x33EE JUMP JUMPDEST SWAP2 SWAP1 POP SSTORE POP PUSH1 0x0 PUSH2 0x1F00 PUSH1 0x33 SLOAD PUSH2 0x2EBF JUMP JUMPDEST DUP5 MLOAD PUSH1 0x20 DUP7 ADD MLOAD PUSH2 0x1F10 SWAP1 PUSH2 0x2EBF JUMP JUMPDEST PUSH1 0x40 MLOAD PUSH1 0x20 ADD PUSH2 0x1F22 SWAP4 SWAP3 SWAP2 SWAP1 PUSH2 0x3609 JUMP JUMPDEST PUSH1 0x40 DUP1 MLOAD DUP1 DUP4 SUB PUSH1 0x1F NOT ADD DUP2 MSTORE DUP3 DUP3 MSTORE DUP1 MLOAD PUSH1 0x20 SWAP2 DUP3 ADD KECCAK256 PUSH1 0x0 DUP2 DUP2 MSTORE PUSH1 0x38 DUP4 MSTORE SWAP3 DUP4 KECCAK256 DUP9 MLOAD DUP2 SLOAD PUSH1 0x1 PUSH1 0x1 PUSH1 0xA0 SHL SUB NOT SWAP1 DUP2 AND PUSH1 0x1 PUSH1 0x1 PUSH1 0xA0 SHL SUB SWAP3 DUP4 AND OR DUP4 SSTORE SWAP4 DUP11 ADD MLOAD PUSH1 0x1 DUP1 DUP5 ADD SWAP2 SWAP1 SWAP2 SSTORE PUSH1 0x2 DUP4 ADD DUP1 SLOAD PUSH1 0x60 DUP14 ADD MLOAD PUSH1 0x3 DUP7 ADD DUP1 SLOAD DUP10 AND SWAP2 SWAP1 SWAP6 AND OR SWAP1 SWAP4 SSTORE PUSH1 0x80 DUP13 ADD MLOAD PUSH1 0x4 DUP6 ADD SSTORE PUSH1 0xA0 DUP13 ADD MLOAD PUSH1 0x5 DUP6 ADD DUP1 SLOAD PUSH1 0xFF NOT AND SWAP2 ISZERO ISZERO SWAP2 SWAP1 SWAP2 OR SWAP1 SSTORE PUSH1 0xC0 DUP13 ADD MLOAD PUSH1 0x6 SWAP1 SWAP5 ADD SWAP4 SWAP1 SWAP4 SSTORE SWAP4 AND CALLER OR SWAP1 SSTORE PUSH1 0x39 DUP1 SLOAD SWAP3 DUP4 ADD DUP2 SSTORE SWAP1 SWAP3 MSTORE PUSH32 0xDC16FEF70F8D5DDBC01EE3D903D1E69C18A3C7BE080EB86A81E0578814EE58D3 ADD DUP2 SWAP1 SSTORE SWAP2 POP DUP2 SWAP1 PUSH32 0x1101875263ABF1B7C3FC9CF51275180975F69F768A3C09E1B453FA0CAD6F29B1 SWAP1 PUSH2 0x2024 SWAP1 DUP8 SWAP1 PUSH2 0x3655 JUMP JUMPDEST PUSH1 0x40 MLOAD DUP1 SWAP2 SUB SWAP1 LOG2 SWAP4 SWAP3 POP POP POP JUMP JUMPDEST PUSH1 0x0 DUP2 DUP2 MSTORE PUSH1 0x38 PUSH1 0x20 SWAP1 DUP2 MSTORE PUSH1 0x40 SWAP2 DUP3 SWAP1 KECCAK256 DUP3 MLOAD PUSH1 0xE0 DUP2 ADD DUP5 MSTORE DUP2 SLOAD PUSH1 0x1 PUSH1 0x1 PUSH1 0xA0 SHL SUB SWAP1 DUP2 AND DUP3 MSTORE PUSH1 0x1 DUP4 ADD SLOAD SWAP4 DUP3 ADD SWAP4 SWAP1 SWAP4 MSTORE PUSH1 0x2 DUP3 ADD SLOAD DUP4 AND SWAP4 DUP2 ADD SWAP4 SWAP1 SWAP4 MSTORE PUSH1 0x3 DUP2 ADD SLOAD SWAP1 SWAP2 AND PUSH1 0x60 DUP4 ADD MSTORE PUSH1 0x4 DUP2 ADD SLOAD PUSH1 0x80 DUP4 ADD MSTORE PUSH1 0x5 DUP2 ADD SLOAD PUSH1 0xFF AND ISZERO DUP1 ISZERO PUSH1 0xA0 DUP5 ADD DUP2 SWAP1 MSTORE PUSH1 0x6 SWAP1 SWAP3 ADD SLOAD PUSH1 0xC0 DUP5 ADD MSTORE SWAP1 PUSH2 0x20B8 JUMPI POP DUP1 PUSH1 0xC0 ADD MLOAD TIMESTAMP LT JUMPDEST PUSH1 0x40 MLOAD DUP1 PUSH1 0x40 ADD PUSH1 0x40 MSTORE DUP1 PUSH1 0x3 DUP2 MSTORE PUSH1 0x20 ADD PUSH3 0x199819 PUSH1 0xE9 SHL DUP2 MSTORE POP SWAP1 PUSH2 0x20F2 JUMPI PUSH1 0x40 MLOAD PUSH3 0x461BCD PUSH1 0xE5 SHL DUP2 MSTORE PUSH1 0x4 ADD PUSH2 0x6B8 SWAP2 SWAP1 PUSH2 0x347D JUMP JUMPDEST POP PUSH1 0x0 DUP3 DUP2 MSTORE PUSH1 0x38 PUSH1 0x20 SWAP1 DUP2 MSTORE PUSH1 0x40 SWAP2 DUP3 SWAP1 KECCAK256 PUSH1 0x5 ADD DUP1 SLOAD PUSH1 0xFF NOT AND PUSH1 0x1 OR SWAP1 SSTORE DUP3 MLOAD SWAP1 DUP4 ADD MLOAD SWAP2 MLOAD PUSH4 0x31A9108F PUSH1 0xE1 SHL DUP2 MSTORE SWAP1 SWAP2 CALLER SWAP2 PUSH1 0x1 PUSH1 0x1 PUSH1 0xA0 SHL SUB DUP5 AND SWAP2 PUSH4 0x6352211E SWAP2 PUSH2 0x214B SWAP2 SWAP1 PUSH1 0x4 ADD SWAP1 DUP2 MSTORE PUSH1 0x20 ADD SWAP1 JUMP JUMPDEST PUSH1 0x20 PUSH1 0x40 MLOAD DUP1 DUP4 SUB DUP2 DUP7 GAS STATICCALL ISZERO DUP1 ISZERO PUSH2 0x2168 JUMPI RETURNDATASIZE PUSH1 0x0 DUP1 RETURNDATACOPY RETURNDATASIZE PUSH1 0x0 REVERT JUMPDEST POP POP POP POP PUSH1 0x40 MLOAD RETURNDATASIZE PUSH1 0x1F NOT PUSH1 0x1F DUP3 ADD AND DUP3 ADD DUP1 PUSH1 0x40 MSTORE POP DUP2 ADD SWAP1 PUSH2 0x218C SWAP2 SWAP1 PUSH2 0x34E6 JUMP JUMPDEST PUSH1 0x1 PUSH1 0x1 PUSH1 0xA0 SHL SUB AND EQ PUSH1 0x40 MLOAD DUP1 PUSH1 0x40 ADD PUSH1 0x40 MSTORE DUP1 PUSH1 0x3 DUP2 MSTORE PUSH1 0x20 ADD PUSH3 0x33303 PUSH1 0xEC SHL DUP2 MSTORE POP SWAP1 PUSH2 0x21D0 JUMPI PUSH1 0x40 MLOAD PUSH3 0x461BCD PUSH1 0xE5 SHL DUP2 MSTORE PUSH1 0x4 ADD PUSH2 0x6B8 SWAP2 SWAP1 PUSH2 0x347D JUMP JUMPDEST POP PUSH1 0x40 MLOAD PUSH4 0xE985E9C5 PUSH1 0xE0 SHL DUP2 MSTORE CALLER PUSH1 0x4 DUP3 ADD MSTORE ADDRESS PUSH1 0x24 DUP3 ADD MSTORE PUSH1 0x1 PUSH1 0x1 PUSH1 0xA0 SHL SUB DUP3 AND SWAP1 PUSH4 0xE985E9C5 SWAP1 PUSH1 0x44 ADD PUSH1 0x20 PUSH1 0x40 MLOAD DUP1 DUP4 SUB DUP2 DUP7 GAS STATICCALL ISZERO DUP1 ISZERO PUSH2 0x221B JUMPI RETURNDATASIZE PUSH1 0x0 DUP1 RETURNDATACOPY RETURNDATASIZE PUSH1 0x0 REVERT JUMPDEST POP POP POP POP PUSH1 0x40 MLOAD RETURNDATASIZE PUSH1 0x1F NOT PUSH1 0x1F DUP3 ADD AND DUP3 ADD DUP1 PUSH1 0x40 MSTORE POP DUP2 ADD SWAP1 PUSH2 0x223F SWAP2 SWAP1 PUSH2 0x34B0 JUMP JUMPDEST PUSH1 0x40 MLOAD DUP1 PUSH1 0x40 ADD PUSH1 0x40 MSTORE DUP1 PUSH1 0x3 DUP2 MSTORE PUSH1 0x20 ADD PUSH3 0x333031 PUSH1 0xE8 SHL DUP2 MSTORE POP SWAP1 PUSH2 0x2279 JUMPI PUSH1 0x40 MLOAD PUSH3 0x461BCD PUSH1 0xE5 SHL DUP2 MSTORE PUSH1 0x4 ADD PUSH2 0x6B8 SWAP2 SWAP1 PUSH2 0x347D JUMP JUMPDEST POP PUSH1 0x60 DUP3 ADD MLOAD PUSH1 0x80 DUP4 ADD MLOAD PUSH1 0x40 DUP1 DUP6 ADD MLOAD SWAP1 MLOAD PUSH4 0x6EB1769F PUSH1 0xE1 SHL DUP2 MSTORE PUSH1 0x1 PUSH1 0x1 PUSH1 0xA0 SHL SUB SWAP2 DUP3 AND PUSH1 0x4 DUP3 ADD MSTORE ADDRESS PUSH1 0x24 DUP3 ADD MSTORE SWAP1 DUP4 AND SWAP1 PUSH4 0xDD62ED3E SWAP1 PUSH1 0x44 ADD PUSH1 0x20 PUSH1 0x40 MLOAD DUP1 DUP4 SUB DUP2 DUP7 GAS STATICCALL ISZERO DUP1 ISZERO PUSH2 0x22D6 JUMPI RETURNDATASIZE PUSH1 0x0 DUP1 RETURNDATACOPY RETURNDATASIZE PUSH1 0x0 REVERT JUMPDEST POP POP POP POP PUSH1 0x40 MLOAD RETURNDATASIZE PUSH1 0x1F NOT PUSH1 0x1F DUP3 ADD AND DUP3 ADD DUP1 PUSH1 0x40 MSTORE POP DUP2 ADD SWAP1 PUSH2 0x22FA SWAP2 SWAP1 PUSH2 0x34CD JUMP JUMPDEST LT ISZERO PUSH2 0x2305 JUMPI PUSH1 0x0 DUP1 REVERT JUMPDEST PUSH1 0x40 DUP1 MLOAD PUSH1 0xE0 DUP2 ADD DUP3 MSTORE DUP5 DUP3 ADD DUP1 MLOAD PUSH1 0x1 PUSH1 0x1 PUSH1 0xA0 SHL SUB SWAP1 DUP2 AND DUP4 MSTORE CALLER PUSH1 0x20 DUP5 ADD MSTORE PUSH1 0x80 DUP1 DUP9 ADD DUP1 MLOAD DUP6 DUP8 ADD MSTORE MLOAD PUSH1 0x60 DUP6 ADD MSTORE SWAP2 MLOAD SWAP4 MLOAD PUSH4 0x70A08231 PUSH1 0xE0 SHL DUP2 MSTORE SWAP4 DUP2 AND PUSH1 0x4 DUP6 ADD MSTORE PUSH1 0x0 SWAP4 SWAP2 DUP4 ADD SWAP2 SWAP1 DUP6 AND SWAP1 PUSH4 0x70A08231 SWAP1 PUSH1 0x24 ADD PUSH1 0x20 PUSH1 0x40 MLOAD DUP1 DUP4 SUB DUP2 DUP7 GAS STATICCALL ISZERO DUP1 ISZERO PUSH2 0x237F JUMPI RETURNDATASIZE PUSH1 0x0 DUP1 RETURNDATACOPY RETURNDATASIZE PUSH1 0x0 REVERT JUMPDEST POP POP POP POP PUSH1 0x40 MLOAD RETURNDATASIZE PUSH1 0x1F NOT PUSH1 0x1F DUP3 ADD AND DUP3 ADD DUP1 PUSH1 0x40 MSTORE POP DUP2 ADD SWAP1 PUSH2 0x23A3 SWAP2 SWAP1 PUSH2 0x34CD JUMP JUMPDEST DUP2 MSTORE PUSH1 0x40 DUP1 DUP8 ADD MLOAD SWAP1 MLOAD PUSH4 0x6EB1769F PUSH1 0xE1 SHL DUP2 MSTORE PUSH1 0x1 PUSH1 0x1 PUSH1 0xA0 SHL SUB SWAP2 DUP3 AND PUSH1 0x4 DUP3 ADD MSTORE ADDRESS PUSH1 0x24 DUP3 ADD MSTORE PUSH1 0x20 SWAP1 SWAP3 ADD SWAP2 SWAP1 DUP6 AND SWAP1 PUSH4 0xDD62ED3E SWAP1 PUSH1 0x44 ADD PUSH1 0x20 PUSH1 0x40 MLOAD DUP1 DUP4 SUB DUP2 DUP7 GAS STATICCALL ISZERO DUP1 ISZERO PUSH2 0x23FD JUMPI RETURNDATASIZE PUSH1 0x0 DUP1 RETURNDATACOPY RETURNDATASIZE PUSH1 0x0 REVERT JUMPDEST POP POP POP POP PUSH1 0x40 MLOAD RETURNDATASIZE PUSH1 0x1F NOT PUSH1 0x1F DUP3 ADD AND DUP3 ADD DUP1 PUSH1 0x40 MSTORE POP DUP2 ADD SWAP1 PUSH2 0x2421 SWAP2 SWAP1 PUSH2 0x34CD JUMP JUMPDEST DUP2 MSTORE PUSH1 0x60 DUP1 DUP8 ADD MLOAD PUSH1 0x1 PUSH1 0x1 PUSH1 0xA0 SHL SUB SWAP1 DUP2 AND PUSH1 0x20 SWAP4 DUP5 ADD MSTORE PUSH1 0x35 SLOAD PUSH1 0x40 DUP1 MLOAD PUSH1 0x80 DUP2 ADD DUP3 MSTORE PUSH1 0x0 DUP1 DUP3 MSTORE DUP2 DUP8 ADD DUP2 SWAP1 MSTORE DUP2 DUP4 ADD DUP2 SWAP1 MSTORE SWAP5 DUP2 ADD SWAP5 SWAP1 SWAP5 MSTORE DUP1 MLOAD DUP1 DUP3 ADD DUP3 MSTORE PUSH1 0x1B DUP2 MSTORE PUSH32 0x4D41524B4554504C4143455F42454E454649545F50455243454E540000000000 SWAP6 DUP2 ADD SWAP6 SWAP1 SWAP6 MSTORE MLOAD PUSH4 0x6D12DCE1 PUSH1 0xE0 SHL DUP2 MSTORE SWAP5 SWAP6 POP AND SWAP3 SWAP1 SWAP2 DUP4 SWAP2 PUSH4 0x6D12DCE1 SWAP2 PUSH2 0x24B8 SWAP2 PUSH1 0x4 ADD PUSH2 0x347D JUMP JUMPDEST PUSH1 0x20 PUSH1 0x40 MLOAD DUP1 DUP4 SUB DUP2 DUP7 GAS STATICCALL ISZERO DUP1 ISZERO PUSH2 0x24D5 JUMPI RETURNDATASIZE PUSH1 0x0 DUP1 RETURNDATACOPY RETURNDATASIZE PUSH1 0x0 REVERT JUMPDEST POP POP POP POP PUSH1 0x40 MLOAD RETURNDATASIZE PUSH1 0x1F NOT PUSH1 0x1F DUP3 ADD AND DUP3 ADD DUP1 PUSH1 0x40 MSTORE POP DUP2 ADD SWAP1 PUSH2 0x24F9 SWAP2 SWAP1 PUSH2 0x34CD JUMP JUMPDEST PUSH1 0x40 DUP3 ADD DUP2 SWAP1 MSTORE PUSH2 0x250C JUMPI PUSH1 0xFA PUSH1 0x40 DUP3 ADD MSTORE JUMPDEST PUSH1 0x40 DUP2 ADD MLOAD ISZERO PUSH2 0x2553 JUMPI PUSH2 0x2710 DUP2 PUSH1 0x40 ADD MLOAD DUP5 PUSH1 0x60 ADD MLOAD PUSH2 0x252D SWAP2 SWAP1 PUSH2 0x3527 JUMP JUMPDEST PUSH2 0x2537 SWAP2 SWAP1 PUSH2 0x3546 JUMP JUMPDEST PUSH1 0x60 DUP3 ADD DUP2 SWAP1 MSTORE PUSH1 0x40 DUP5 ADD DUP1 MLOAD PUSH2 0x254F SWAP1 DUP4 SWAP1 PUSH2 0x3568 JUMP JUMPDEST SWAP1 MSTORE POP JUMPDEST PUSH1 0x40 MLOAD PUSH4 0x1FFC9A7 PUSH1 0xE0 SHL DUP2 MSTORE PUSH4 0x152A902D PUSH1 0xE1 SHL PUSH1 0x4 DUP3 ADD MSTORE PUSH1 0x1 PUSH1 0x1 PUSH1 0xA0 SHL SUB DUP7 AND SWAP1 PUSH4 0x1FFC9A7 SWAP1 PUSH1 0x24 ADD PUSH1 0x20 PUSH1 0x40 MLOAD DUP1 DUP4 SUB DUP2 DUP7 GAS STATICCALL ISZERO DUP1 ISZERO PUSH2 0x259E JUMPI RETURNDATASIZE PUSH1 0x0 DUP1 RETURNDATACOPY RETURNDATASIZE PUSH1 0x0 REVERT JUMPDEST POP POP POP POP PUSH1 0x40 MLOAD RETURNDATASIZE PUSH1 0x1F NOT PUSH1 0x1F DUP3 ADD AND DUP3 ADD DUP1 PUSH1 0x40 MSTORE POP DUP2 ADD SWAP1 PUSH2 0x25C2 SWAP2 SWAP1 PUSH2 0x34B0 JUMP JUMPDEST ISZERO PUSH2 0x2679 JUMPI DUP6 MLOAD PUSH1 0x20 DUP8 ADD MLOAD PUSH1 0x60 DUP6 ADD MLOAD PUSH1 0x40 MLOAD PUSH4 0x152A902D PUSH1 0xE1 SHL DUP2 MSTORE PUSH1 0x4 DUP2 ADD SWAP3 SWAP1 SWAP3 MSTORE PUSH1 0x24 DUP3 ADD MSTORE PUSH1 0x0 SWAP1 DUP2 SWAP1 PUSH1 0x1 PUSH1 0x1 PUSH1 0xA0 SHL SUB DUP5 AND SWAP1 PUSH4 0x2A55205A SWAP1 PUSH1 0x44 ADD PUSH1 0x40 DUP1 MLOAD DUP1 DUP4 SUB DUP2 DUP7 GAS STATICCALL ISZERO DUP1 ISZERO PUSH2 0x2622 JUMPI RETURNDATASIZE PUSH1 0x0 DUP1 RETURNDATACOPY RETURNDATASIZE PUSH1 0x0 REVERT JUMPDEST POP POP POP POP PUSH1 0x40 MLOAD RETURNDATASIZE PUSH1 0x1F NOT PUSH1 0x1F DUP3 ADD AND DUP3 ADD DUP1 PUSH1 0x40 MSTORE POP DUP2 ADD SWAP1 PUSH2 0x2646 SWAP2 SWAP1 PUSH2 0x357F JUMP JUMPDEST PUSH1 0x20 DUP7 ADD DUP2 SWAP1 MSTORE PUSH1 0x1 PUSH1 0x1 PUSH1 0xA0 SHL SUB DUP3 AND DUP7 MSTORE PUSH1 0x40 DUP9 ADD DUP1 MLOAD SWAP3 SWAP5 POP SWAP1 SWAP3 POP DUP3 SWAP2 PUSH2 0x2672 SWAP1 DUP4 SWAP1 PUSH2 0x3568 JUMP JUMPDEST SWAP1 MSTORE POP POP POP POP JUMPDEST DUP3 MLOAD PUSH1 0x60 DUP5 ADD MLOAD PUSH1 0x40 MLOAD PUSH4 0x23B872DD PUSH1 0xE0 SHL DUP2 MSTORE PUSH1 0x1 PUSH1 0x1 PUSH1 0xA0 SHL SUB DUP8 AND SWAP3 PUSH4 0x23B872DD SWAP3 PUSH2 0x26AD SWAP3 ADDRESS SWAP2 SWAP1 PUSH1 0x4 ADD PUSH2 0x3503 JUMP JUMPDEST PUSH1 0x20 PUSH1 0x40 MLOAD DUP1 DUP4 SUB DUP2 PUSH1 0x0 DUP8 GAS CALL ISZERO DUP1 ISZERO PUSH2 0x26CC JUMPI RETURNDATASIZE PUSH1 0x0 DUP1 RETURNDATACOPY RETURNDATASIZE PUSH1 0x0 REVERT JUMPDEST POP POP POP POP PUSH1 0x40 MLOAD RETURNDATASIZE PUSH1 0x1F NOT PUSH1 0x1F DUP3 ADD AND DUP3 ADD DUP1 PUSH1 0x40 MSTORE POP DUP2 ADD SWAP1 PUSH2 0x26F0 SWAP2 SWAP1 PUSH2 0x34B0 JUMP JUMPDEST PUSH1 0x40 MLOAD DUP1 PUSH1 0x40 ADD PUSH1 0x40 MSTORE DUP1 PUSH1 0x3 DUP2 MSTORE PUSH1 0x20 ADD PUSH3 0x19981B PUSH1 0xE9 SHL DUP2 MSTORE POP SWAP1 PUSH2 0x272A JUMPI PUSH1 0x40 MLOAD PUSH3 0x461BCD PUSH1 0xE5 SHL DUP2 MSTORE PUSH1 0x4 ADD PUSH2 0x6B8 SWAP2 SWAP1 PUSH2 0x347D JUMP JUMPDEST POP PUSH1 0x20 DUP4 ADD MLOAD PUSH1 0x40 DUP1 DUP6 ADD MLOAD SWAP1 MLOAD PUSH4 0xA9059CBB PUSH1 0xE0 SHL DUP2 MSTORE PUSH1 0x1 PUSH1 0x1 PUSH1 0xA0 SHL SUB DUP8 AND SWAP3 PUSH4 0xA9059CBB SWAP3 PUSH2 0x2773 SWAP3 PUSH1 0x4 ADD PUSH1 0x1 PUSH1 0x1 PUSH1 0xA0 SHL SUB SWAP3 SWAP1 SWAP3 AND DUP3 MSTORE PUSH1 0x20 DUP3 ADD MSTORE PUSH1 0x40 ADD SWAP1 JUMP JUMPDEST PUSH1 0x20 PUSH1 0x40 MLOAD DUP1 DUP4 SUB DUP2 PUSH1 0x0 DUP8 GAS CALL ISZERO DUP1 ISZERO PUSH2 0x2792 JUMPI RETURNDATASIZE PUSH1 0x0 DUP1 RETURNDATACOPY RETURNDATASIZE PUSH1 0x0 REVERT JUMPDEST POP POP POP POP PUSH1 0x40 MLOAD RETURNDATASIZE PUSH1 0x1F NOT PUSH1 0x1F DUP3 ADD AND DUP3 ADD DUP1 PUSH1 0x40 MSTORE POP DUP2 ADD SWAP1 PUSH2 0x27B6 SWAP2 SWAP1 PUSH2 0x34B0 JUMP JUMPDEST PUSH1 0x40 MLOAD DUP1 PUSH1 0x40 ADD PUSH1 0x40 MSTORE DUP1 PUSH1 0x3 DUP2 MSTORE PUSH1 0x20 ADD PUSH3 0x19981B PUSH1 0xE9 SHL DUP2 MSTORE POP SWAP1 PUSH2 0x27F0 JUMPI PUSH1 0x40 MLOAD PUSH3 0x461BCD PUSH1 0xE5 SHL DUP2 MSTORE PUSH1 0x4 ADD PUSH2 0x6B8 SWAP2 SWAP1 PUSH2 0x347D JUMP JUMPDEST POP DUP1 MLOAD PUSH1 0x1 PUSH1 0x1 PUSH1 0xA0 SHL SUB AND ISZERO DUP1 ISZERO SWAP1 PUSH2 0x280E JUMPI POP PUSH1 0x0 DUP2 PUSH1 0x20 ADD MLOAD GT JUMPDEST ISZERO PUSH2 0x28F2 JUMPI DUP1 MLOAD PUSH1 0x20 DUP3 ADD MLOAD PUSH1 0x40 MLOAD PUSH4 0xA9059CBB PUSH1 0xE0 SHL DUP2 MSTORE PUSH1 0x1 PUSH1 0x1 PUSH1 0xA0 SHL SUB DUP8 AND SWAP3 PUSH4 0xA9059CBB SWAP3 PUSH2 0x2858 SWAP3 PUSH1 0x4 ADD PUSH1 0x1 PUSH1 0x1 PUSH1 0xA0 SHL SUB SWAP3 SWAP1 SWAP3 AND DUP3 MSTORE PUSH1 0x20 DUP3 ADD MSTORE PUSH1 0x40 ADD SWAP1 JUMP JUMPDEST PUSH1 0x20 PUSH1 0x40 MLOAD DUP1 DUP4 SUB DUP2 PUSH1 0x0 DUP8 GAS CALL ISZERO DUP1 ISZERO PUSH2 0x2877 JUMPI RETURNDATASIZE PUSH1 0x0 DUP1 RETURNDATACOPY RETURNDATASIZE PUSH1 0x0 REVERT JUMPDEST POP POP POP POP PUSH1 0x40 MLOAD RETURNDATASIZE PUSH1 0x1F NOT PUSH1 0x1F DUP3 ADD AND DUP3 ADD DUP1 PUSH1 0x40 MSTORE POP DUP2 ADD SWAP1 PUSH2 0x289B SWAP2 SWAP1 PUSH2 0x34B0 JUMP JUMPDEST PUSH1 0x40 MLOAD DUP1 PUSH1 0x40 ADD PUSH1 0x40 MSTORE DUP1 PUSH1 0x3 DUP2 MSTORE PUSH1 0x20 ADD PUSH3 0x19981B PUSH1 0xE9 SHL DUP2 MSTORE POP SWAP1 PUSH2 0x28D5 JUMPI PUSH1 0x40 MLOAD PUSH3 0x461BCD PUSH1 0xE5 SHL DUP2 MSTORE PUSH1 0x4 ADD PUSH2 0x6B8 SWAP2 SWAP1 PUSH2 0x347D JUMP JUMPDEST POP PUSH2 0x28F2 DUP2 PUSH1 0x0 ADD MLOAD DUP8 PUSH1 0x20 ADD MLOAD DUP9 PUSH1 0x60 ADD MLOAD DUP5 PUSH1 0x20 ADD MLOAD PUSH2 0x2DA7 JUMP JUMPDEST PUSH1 0x20 DUP1 DUP5 ADD MLOAD DUP5 MLOAD SWAP2 DUP9 ADD MLOAD PUSH1 0x40 MLOAD PUSH4 0x21421707 PUSH1 0xE1 SHL DUP2 MSTORE PUSH1 0x1 PUSH1 0x1 PUSH1 0xA0 SHL SUB DUP10 AND SWAP4 PUSH4 0x42842E0E SWAP4 PUSH2 0x292A SWAP4 SWAP1 SWAP3 PUSH1 0x4 ADD PUSH2 0x3503 JUMP JUMPDEST PUSH1 0x0 PUSH1 0x40 MLOAD DUP1 DUP4 SUB DUP2 PUSH1 0x0 DUP8 DUP1 EXTCODESIZE ISZERO DUP1 ISZERO PUSH2 0x2944 JUMPI PUSH1 0x0 DUP1 REVERT JUMPDEST POP GAS CALL ISZERO DUP1 ISZERO PUSH2 0x2958 JUMPI RETURNDATASIZE PUSH1 0x0 DUP1 RETURNDATACOPY RETURNDATASIZE PUSH1 0x0 REVERT JUMPDEST POP POP POP PUSH1 0x0 DUP9 DUP2 MSTORE PUSH1 0x38 PUSH1 0x20 MSTORE PUSH1 0x40 SWAP1 DUP2 SWAP1 KECCAK256 SWAP1 MLOAD DUP10 SWAP3 POP PUSH32 0x18F1CEEDF8920F811CCF39358C2A2164A50E62C93AD4DAFC82E6906CF81DC0A4 SWAP2 PUSH2 0x299B SWAP2 PUSH2 0x35AD JUMP JUMPDEST PUSH1 0x40 MLOAD DUP1 SWAP2 SUB SWAP1 LOG2 POP POP POP POP POP POP POP JUMP JUMPDEST PUSH1 0x0 DUP2 DUP2 MSTORE PUSH1 0x38 PUSH1 0x20 SWAP1 DUP2 MSTORE PUSH1 0x40 SWAP2 DUP3 SWAP1 KECCAK256 PUSH1 0x2 ADD SLOAD DUP3 MLOAD DUP1 DUP5 ADD SWAP1 SWAP4 MSTORE PUSH1 0x3 DUP4 MSTORE PUSH3 0x31303 PUSH1 0xEC SHL SWAP2 DUP4 ADD SWAP2 SWAP1 SWAP2 MSTORE PUSH1 0x1 PUSH1 0x1 PUSH1 0xA0 SHL SUB AND CALLER EQ PUSH2 0x2A04 JUMPI PUSH1 0x40 MLOAD PUSH3 0x461BCD PUSH1 0xE5 SHL DUP2 MSTORE PUSH1 0x4 ADD PUSH2 0x6B8 SWAP2 SWAP1 PUSH2 0x347D JUMP JUMPDEST POP PUSH1 0x0 DUP2 DUP2 MSTORE PUSH1 0x38 PUSH1 0x20 MSTORE PUSH1 0x40 SWAP1 KECCAK256 PUSH1 0x5 ADD SLOAD PUSH1 0xFF AND ISZERO PUSH2 0x2A24 JUMPI PUSH1 0x0 DUP1 REVERT JUMPDEST PUSH1 0x0 DUP2 DUP2 MSTORE PUSH1 0x38 PUSH1 0x20 MSTORE PUSH1 0x40 SWAP1 DUP2 SWAP1 KECCAK256 PUSH1 0x5 DUP2 ADD DUP1 SLOAD PUSH1 0xFF NOT AND PUSH1 0x1 OR SWAP1 SSTORE SWAP1 MLOAD DUP3 SWAP2 PUSH32 0xD1E7E193455BA4241E816F1B6FA787B59DAD27C1279C69179F6CB4B4387BF543 SWAP2 PUSH2 0x1D3D SWAP2 SWAP1 PUSH2 0x35AD JUMP JUMPDEST DUP1 MLOAD PUSH1 0x20 DUP3 ADD MLOAD PUSH1 0x40 MLOAD PUSH4 0x31A9108F PUSH1 0xE1 SHL DUP2 MSTORE PUSH1 0x4 DUP2 ADD SWAP2 SWAP1 SWAP2 MSTORE PUSH1 0x0 SWAP2 SWAP1 CALLER SWAP1 PUSH1 0x1 PUSH1 0x1 PUSH1 0xA0 SHL SUB DUP4 AND SWAP1 PUSH4 0x6352211E SWAP1 PUSH1 0x24 ADD PUSH1 0x20 PUSH1 0x40 MLOAD DUP1 DUP4 SUB DUP2 DUP7 GAS STATICCALL ISZERO DUP1 ISZERO PUSH2 0x2AC6 JUMPI RETURNDATASIZE PUSH1 0x0 DUP1 RETURNDATACOPY RETURNDATASIZE PUSH1 0x0 REVERT JUMPDEST POP POP POP POP PUSH1 0x40 MLOAD RETURNDATASIZE PUSH1 0x1F NOT PUSH1 0x1F DUP3 ADD AND DUP3 ADD DUP1 PUSH1 0x40 MSTORE POP DUP2 ADD SWAP1 PUSH2 0x2AEA SWAP2 SWAP1 PUSH2 0x34E6 JUMP JUMPDEST PUSH1 0x1 PUSH1 0x1 PUSH1 0xA0 SHL SUB AND EQ PUSH1 0x40 MLOAD DUP1 PUSH1 0x40 ADD PUSH1 0x40 MSTORE DUP1 PUSH1 0x3 DUP2 MSTORE PUSH1 0x20 ADD PUSH3 0x33303 PUSH1 0xEC SHL DUP2 MSTORE POP SWAP1 PUSH2 0x2B2E JUMPI PUSH1 0x40 MLOAD PUSH3 0x461BCD PUSH1 0xE5 SHL DUP2 MSTORE PUSH1 0x4 ADD PUSH2 0x6B8 SWAP2 SWAP1 PUSH2 0x347D JUMP JUMPDEST POP PUSH1 0x0 DUP4 PUSH1 0x80 ADD MLOAD GT PUSH1 0x40 MLOAD DUP1 PUSH1 0x40 ADD PUSH1 0x40 MSTORE DUP1 PUSH1 0x3 DUP2 MSTORE PUSH1 0x20 ADD PUSH3 0x66607 PUSH1 0xEB SHL DUP2 MSTORE POP SWAP1 PUSH2 0x2B71 JUMPI PUSH1 0x40 MLOAD PUSH3 0x461BCD PUSH1 0xE5 SHL DUP2 MSTORE PUSH1 0x4 ADD PUSH2 0x6B8 SWAP2 SWAP1 PUSH2 0x347D JUMP JUMPDEST POP PUSH1 0x0 DUP4 PUSH1 0xC0 ADD MLOAD GT PUSH1 0x40 MLOAD DUP1 PUSH1 0x40 ADD PUSH1 0x40 MSTORE DUP1 PUSH1 0x3 DUP2 MSTORE PUSH1 0x20 ADD PUSH3 0x333039 PUSH1 0xE8 SHL DUP2 MSTORE POP SWAP1 PUSH2 0x2BB4 JUMPI PUSH1 0x40 MLOAD PUSH3 0x461BCD PUSH1 0xE5 SHL DUP2 MSTORE PUSH1 0x4 ADD PUSH2 0x6B8 SWAP2 SWAP1 PUSH2 0x347D JUMP JUMPDEST POP PUSH1 0x40 MLOAD PUSH4 0xE985E9C5 PUSH1 0xE0 SHL DUP2 MSTORE CALLER PUSH1 0x4 DUP3 ADD MSTORE ADDRESS PUSH1 0x24 DUP3 ADD MSTORE PUSH1 0x1 PUSH1 0x1 PUSH1 0xA0 SHL SUB DUP3 AND SWAP1 PUSH4 0xE985E9C5 SWAP1 PUSH1 0x44 ADD PUSH1 0x20 PUSH1 0x40 MLOAD DUP1 DUP4 SUB DUP2 DUP7 GAS STATICCALL ISZERO DUP1 ISZERO PUSH2 0x2BFF JUMPI RETURNDATASIZE PUSH1 0x0 DUP1 RETURNDATACOPY RETURNDATASIZE PUSH1 0x0 REVERT JUMPDEST POP POP POP POP PUSH1 0x40 MLOAD RETURNDATASIZE PUSH1 0x1F NOT PUSH1 0x1F DUP3 ADD AND DUP3 ADD DUP1 PUSH1 0x40 MSTORE POP DUP2 ADD SWAP1 PUSH2 0x2C23 SWAP2 SWAP1 PUSH2 0x34B0 JUMP JUMPDEST PUSH1 0x40 DUP1 MLOAD DUP1 DUP3 ADD SWAP1 SWAP2 MSTORE PUSH1 0x3 DUP2 MSTORE PUSH3 0x333031 PUSH1 0xE8 SHL PUSH1 0x20 DUP3 ADD MSTORE SWAP1 ISZERO ISZERO PUSH1 0x1 EQ PUSH2 0x2C60 JUMPI PUSH1 0x40 MLOAD PUSH3 0x461BCD PUSH1 0xE5 SHL DUP2 MSTORE PUSH1 0x4 ADD PUSH2 0x6B8 SWAP2 SWAP1 PUSH2 0x347D JUMP JUMPDEST POP PUSH1 0x33 DUP1 SLOAD SWAP1 PUSH1 0x0 PUSH2 0x2C71 DUP4 PUSH2 0x33EE JUMP JUMPDEST SWAP2 SWAP1 POP SSTORE POP PUSH1 0x0 PUSH2 0x2C83 PUSH1 0x33 SLOAD PUSH2 0x2EBF JUMP JUMPDEST DUP5 MLOAD PUSH1 0x20 DUP7 ADD MLOAD PUSH2 0x2C93 SWAP1 PUSH2 0x2EBF JUMP JUMPDEST PUSH1 0x40 MLOAD PUSH1 0x20 ADD PUSH2 0x2CA5 SWAP4 SWAP3 SWAP2 SWAP1 PUSH2 0x3609 JUMP JUMPDEST PUSH1 0x40 DUP1 MLOAD DUP1 DUP4 SUB PUSH1 0x1F NOT ADD DUP2 MSTORE DUP3 DUP3 MSTORE DUP1 MLOAD PUSH1 0x20 SWAP2 DUP3 ADD KECCAK256 PUSH1 0x0 DUP2 DUP2 MSTORE PUSH1 0x36 DUP4 MSTORE SWAP3 DUP4 KECCAK256 DUP9 MLOAD DUP2 SLOAD PUSH1 0x1 PUSH1 0x1 PUSH1 0xA0 SHL SUB NOT SWAP1 DUP2 AND PUSH1 0x1 PUSH1 0x1 PUSH1 0xA0 SHL SUB SWAP3 DUP4 AND OR DUP4 SSTORE SWAP4 DUP11 ADD MLOAD PUSH1 0x1 DUP1 DUP5 ADD SWAP2 SWAP1 SWAP2 SSTORE PUSH1 0x2 DUP4 ADD DUP1 SLOAD PUSH1 0x60 DUP14 ADD MLOAD PUSH1 0x3 DUP7 ADD DUP1 SLOAD DUP10 AND SWAP2 SWAP1 SWAP6 AND OR SWAP1 SWAP4 SSTORE PUSH1 0x80 DUP13 ADD MLOAD PUSH1 0x4 DUP6 ADD SSTORE PUSH1 0xA0 DUP13 ADD MLOAD PUSH1 0x5 DUP6 ADD DUP1 SLOAD PUSH1 0xFF NOT AND SWAP2 ISZERO ISZERO SWAP2 SWAP1 SWAP2 OR SWAP1 SSTORE PUSH1 0xC0 DUP13 ADD MLOAD PUSH1 0x6 SWAP1 SWAP5 ADD SWAP4 SWAP1 SWAP4 SSTORE SWAP4 AND CALLER OR SWAP1 SSTORE PUSH1 0x37 DUP1 SLOAD SWAP3 DUP4 ADD DUP2 SSTORE SWAP1 SWAP3 MSTORE PUSH32 0x42A7B7DD785CD69714A189DFFB3FD7D7174EDC9ECE837694CE50F7078F7C31AE ADD DUP2 SWAP1 SSTORE SWAP2 POP DUP2 SWAP1 PUSH32 0x36BAA67FF8B95FA14AAC46CEA75517DC7F57EBEBC1B90D48388C8C085F5CBFE3 SWAP1 PUSH2 0x2024 SWAP1 DUP8 SWAP1 PUSH2 0x3655 JUMP JUMPDEST PUSH1 0x40 MLOAD PUSH4 0x1FFC9A7 PUSH1 0xE0 SHL DUP2 MSTORE PUSH4 0x676EDA17 PUSH1 0xE0 SHL PUSH1 0x4 DUP3 ADD MSTORE DUP5 SWAP1 PUSH1 0x1 PUSH1 0x1 PUSH1 0xA0 SHL SUB DUP3 AND SWAP1 PUSH4 0x1FFC9A7 SWAP1 PUSH1 0x24 ADD PUSH1 0x20 PUSH1 0x40 MLOAD DUP1 DUP4 SUB DUP2 DUP7 GAS STATICCALL ISZERO DUP1 ISZERO PUSH2 0x2DF4 JUMPI RETURNDATASIZE PUSH1 0x0 DUP1 RETURNDATACOPY RETURNDATASIZE PUSH1 0x0 REVERT JUMPDEST POP POP POP POP PUSH1 0x40 MLOAD RETURNDATASIZE PUSH1 0x1F NOT PUSH1 0x1F DUP3 ADD AND DUP3 ADD DUP1 PUSH1 0x40 MSTORE POP DUP2 ADD SWAP1 PUSH2 0x2E18 SWAP2 SWAP1 PUSH2 0x34B0 JUMP JUMPDEST ISZERO PUSH2 0x2E87 JUMPI PUSH1 0x40 MLOAD PUSH4 0x676EDA17 PUSH1 0xE0 SHL DUP2 MSTORE PUSH1 0x4 DUP2 ADD DUP6 SWAP1 MSTORE PUSH1 0x1 PUSH1 0x1 PUSH1 0xA0 SHL SUB DUP5 DUP2 AND PUSH1 0x24 DUP4 ADD MSTORE PUSH1 0x44 DUP3 ADD DUP5 SWAP1 MSTORE DUP3 AND SWAP1 PUSH4 0x676EDA17 SWAP1 PUSH1 0x64 ADD PUSH1 0x0 PUSH1 0x40 MLOAD DUP1 DUP4 SUB DUP2 PUSH1 0x0 DUP8 DUP1 EXTCODESIZE ISZERO DUP1 ISZERO PUSH2 0x2E6E JUMPI PUSH1 0x0 DUP1 REVERT JUMPDEST POP GAS CALL ISZERO DUP1 ISZERO PUSH2 0x2E82 JUMPI RETURNDATASIZE PUSH1 0x0 DUP1 RETURNDATACOPY RETURNDATASIZE PUSH1 0x0 REVERT JUMPDEST POP POP POP POP JUMPDEST POP POP POP POP POP JUMP JUMPDEST PUSH1 0x0 SLOAD PUSH2 0x100 SWAP1 DIV PUSH1 0xFF AND PUSH2 0x2EB5 JUMPI PUSH1 0x40 MLOAD PUSH3 0x461BCD PUSH1 0xE5 SHL DUP2 MSTORE PUSH1 0x4 ADD PUSH2 0x6B8 SWAP1 PUSH2 0x36B0 JUMP JUMPDEST PUSH2 0x2EBD PUSH2 0x2F5C JUMP JUMPDEST JUMP JUMPDEST PUSH1 0x60 PUSH1 0x0 PUSH2 0x2ECC DUP4 PUSH2 0x2F83 JUMP JUMPDEST PUSH1 0x1 ADD SWAP1 POP PUSH1 0x0 DUP2 PUSH8 0xFFFFFFFFFFFFFFFF DUP2 GT ISZERO PUSH2 0x2EEC JUMPI PUSH2 0x2EEC PUSH2 0x311C JUMP JUMPDEST PUSH1 0x40 MLOAD SWAP1 DUP1 DUP3 MSTORE DUP1 PUSH1 0x1F ADD PUSH1 0x1F NOT AND PUSH1 0x20 ADD DUP3 ADD PUSH1 0x40 MSTORE DUP1 ISZERO PUSH2 0x2F16 JUMPI PUSH1 0x20 DUP3 ADD DUP2 DUP1 CALLDATASIZE DUP4 CALLDATACOPY ADD SWAP1 POP JUMPDEST POP SWAP1 POP DUP2 DUP2 ADD PUSH1 0x20 ADD JUMPDEST PUSH1 0x0 NOT ADD PUSH16 0x181899199A1A9B1B9C1CB0B131B232B3 PUSH1 0x81 SHL PUSH1 0xA DUP7 MOD BYTE DUP2 MSTORE8 PUSH1 0xA DUP6 DIV SWAP5 POP DUP5 PUSH2 0x2F4F JUMPI PUSH2 0x2F54 JUMP JUMPDEST PUSH2 0x2F20 JUMP JUMPDEST POP SWAP4 SWAP3 POP POP POP JUMP JUMPDEST PUSH1 0x0 SLOAD PUSH2 0x100 SWAP1 DIV PUSH1 0xFF AND PUSH2 0x1B3B JUMPI PUSH1 0x40 MLOAD PUSH3 0x461BCD PUSH1 0xE5 SHL DUP2 MSTORE PUSH1 0x4 ADD PUSH2 0x6B8 SWAP1 PUSH2 0x36B0 JUMP JUMPDEST PUSH1 0x0 DUP1 PUSH19 0x184F03E93FF9F4DAA797ED6E38ED64BF6A1F01 PUSH1 0x40 SHL DUP4 LT PUSH2 0x2FC2 JUMPI PUSH19 0x184F03E93FF9F4DAA797ED6E38ED64BF6A1F01 PUSH1 0x40 SHL DUP4 DIV SWAP3 POP PUSH1 0x40 ADD JUMPDEST PUSH14 0x4EE2D6D415B85ACEF8100000000 DUP4 LT PUSH2 0x2FEE JUMPI PUSH14 0x4EE2D6D415B85ACEF8100000000 DUP4 DIV SWAP3 POP PUSH1 0x20 ADD JUMPDEST PUSH7 0x2386F26FC10000 DUP4 LT PUSH2 0x300C JUMPI PUSH7 0x2386F26FC10000 DUP4 DIV SWAP3 POP PUSH1 0x10 ADD JUMPDEST PUSH4 0x5F5E100 DUP4 LT PUSH2 0x3024 JUMPI PUSH4 0x5F5E100 DUP4 DIV SWAP3 POP PUSH1 0x8 ADD JUMPDEST PUSH2 0x2710 DUP4 LT PUSH2 0x3038 JUMPI PUSH2 0x2710 DUP4 DIV SWAP3 POP PUSH1 0x4 ADD JUMPDEST PUSH1 0x64 DUP4 LT PUSH2 0x304A JUMPI PUSH1 0x64 DUP4 DIV SWAP3 POP PUSH1 0x2 ADD JUMPDEST PUSH1 0xA DUP4 LT PUSH2 0x3056 JUMPI PUSH1 0x1 ADD JUMPDEST SWAP3 SWAP2 POP POP JUMP JUMPDEST PUSH1 0x1 PUSH1 0x1 PUSH1 0xA0 SHL SUB DUP2 AND DUP2 EQ PUSH2 0x65F JUMPI PUSH1 0x0 DUP1 REVERT JUMPDEST PUSH1 0x0 DUP1 PUSH1 0x0 PUSH1 0x60 DUP5 DUP7 SUB SLT ISZERO PUSH2 0x3086 JUMPI PUSH1 0x0 DUP1 REVERT JUMPDEST DUP4 CALLDATALOAD PUSH2 0x3091 DUP2 PUSH2 0x305C JUMP JUMPDEST SWAP6 PUSH1 0x20 DUP6 ADD CALLDATALOAD SWAP6 POP PUSH1 0x40 SWAP1 SWAP5 ADD CALLDATALOAD SWAP4 SWAP3 POP POP POP JUMP JUMPDEST PUSH1 0x0 PUSH1 0x20 DUP3 DUP5 SUB SLT ISZERO PUSH2 0x30B8 JUMPI PUSH1 0x0 DUP1 REVERT JUMPDEST POP CALLDATALOAD SWAP2 SWAP1 POP JUMP JUMPDEST PUSH1 0x0 DUP1 PUSH1 0x40 DUP4 DUP6 SUB SLT ISZERO PUSH2 0x30D2 JUMPI PUSH1 0x0 DUP1 REVERT JUMPDEST DUP3 CALLDATALOAD PUSH2 0x30DD DUP2 PUSH2 0x305C JUMP JUMPDEST SWAP2 POP PUSH1 0x20 DUP4 ADD CALLDATALOAD PUSH2 0x30ED DUP2 PUSH2 0x305C JUMP JUMPDEST DUP1 SWAP2 POP POP SWAP3 POP SWAP3 SWAP1 POP JUMP JUMPDEST PUSH1 0x0 PUSH1 0x20 DUP3 DUP5 SUB SLT ISZERO PUSH2 0x310A JUMPI PUSH1 0x0 DUP1 REVERT JUMPDEST DUP2 CALLDATALOAD PUSH2 0x3115 DUP2 PUSH2 0x305C JUMP JUMPDEST SWAP4 SWAP3 POP POP POP JUMP JUMPDEST PUSH4 0x4E487B71 PUSH1 0xE0 SHL PUSH1 0x0 MSTORE PUSH1 0x41 PUSH1 0x4 MSTORE PUSH1 0x24 PUSH1 0x0 REVERT JUMPDEST PUSH1 0x40 MLOAD PUSH1 0x1F DUP3 ADD PUSH1 0x1F NOT AND DUP2 ADD PUSH8 0xFFFFFFFFFFFFFFFF DUP2 GT DUP3 DUP3 LT OR ISZERO PUSH2 0x315B JUMPI PUSH2 0x315B PUSH2 0x311C JUMP JUMPDEST PUSH1 0x40 MSTORE SWAP2 SWAP1 POP JUMP JUMPDEST PUSH1 0x0 PUSH1 0x20 DUP1 DUP4 DUP6 SUB SLT ISZERO PUSH2 0x3176 JUMPI PUSH1 0x0 DUP1 REVERT JUMPDEST DUP3 CALLDATALOAD PUSH8 0xFFFFFFFFFFFFFFFF DUP1 DUP3 GT ISZERO PUSH2 0x318E JUMPI PUSH1 0x0 DUP1 REVERT JUMPDEST DUP2 DUP6 ADD SWAP2 POP DUP6 PUSH1 0x1F DUP4 ADD SLT PUSH2 0x31A2 JUMPI PUSH1 0x0 DUP1 REVERT JUMPDEST DUP2 CALLDATALOAD DUP2 DUP2 GT ISZERO PUSH2 0x31B4 JUMPI PUSH2 0x31B4 PUSH2 0x311C JUMP JUMPDEST DUP1 PUSH1 0x5 SHL SWAP2 POP PUSH2 0x31C5 DUP5 DUP4 ADD PUSH2 0x3132 JUMP JUMPDEST DUP2 DUP2 MSTORE SWAP2 DUP4 ADD DUP5 ADD SWAP2 DUP5 DUP2 ADD SWAP1 DUP9 DUP5 GT ISZERO PUSH2 0x31DF JUMPI PUSH1 0x0 DUP1 REVERT JUMPDEST SWAP4 DUP6 ADD SWAP4 JUMPDEST DUP4 DUP6 LT ISZERO PUSH2 0x31FD JUMPI DUP5 CALLDATALOAD DUP3 MSTORE SWAP4 DUP6 ADD SWAP4 SWAP1 DUP6 ADD SWAP1 PUSH2 0x31E4 JUMP JUMPDEST SWAP9 SWAP8 POP POP POP POP POP POP POP POP JUMP JUMPDEST DUP1 ISZERO ISZERO DUP2 EQ PUSH2 0x65F JUMPI PUSH1 0x0 DUP1 REVERT JUMPDEST PUSH1 0x0 DUP1 PUSH1 0x40 DUP4 DUP6 SUB SLT ISZERO PUSH2 0x322A JUMPI PUSH1 0x0 DUP1 REVERT JUMPDEST DUP3 CALLDATALOAD PUSH2 0x3235 DUP2 PUSH2 0x305C JUMP JUMPDEST SWAP2 POP PUSH1 0x20 DUP4 ADD CALLDATALOAD PUSH2 0x30ED DUP2 PUSH2 0x3209 JUMP JUMPDEST PUSH1 0x0 DUP1 PUSH1 0x40 DUP4 DUP6 SUB SLT ISZERO PUSH2 0x3258 JUMPI PUSH1 0x0 DUP1 REVERT JUMPDEST DUP3 CALLDATALOAD PUSH2 0x3263 DUP2 PUSH2 0x305C JUMP JUMPDEST SWAP5 PUSH1 0x20 SWAP4 SWAP1 SWAP4 ADD CALLDATALOAD SWAP4 POP POP POP JUMP JUMPDEST PUSH1 0x0 PUSH1 0xE0 DUP3 DUP5 SUB SLT ISZERO PUSH2 0x3283 JUMPI PUSH1 0x0 DUP1 REVERT JUMPDEST PUSH1 0x40 MLOAD PUSH1 0xE0 DUP2 ADD DUP2 DUP2 LT PUSH8 0xFFFFFFFFFFFFFFFF DUP3 GT OR ISZERO PUSH2 0x32A6 JUMPI PUSH2 0x32A6 PUSH2 0x311C JUMP JUMPDEST PUSH1 0x40 MSTORE SWAP1 POP DUP1 DUP3 CALLDATALOAD PUSH2 0x32B7 DUP2 PUSH2 0x305C JUMP JUMPDEST DUP2 MSTORE PUSH1 0x20 DUP4 DUP2 ADD CALLDATALOAD SWAP1 DUP3 ADD MSTORE PUSH1 0x40 DUP4 ADD CALLDATALOAD PUSH2 0x32D1 DUP2 PUSH2 0x305C JUMP JUMPDEST PUSH1 0x40 DUP3 ADD MSTORE PUSH1 0x60 DUP4 ADD CALLDATALOAD PUSH2 0x32E4 DUP2 PUSH2 0x305C JUMP JUMPDEST PUSH1 0x60 DUP3 ADD MSTORE PUSH1 0x80 DUP4 DUP2 ADD CALLDATALOAD SWAP1 DUP3 ADD MSTORE PUSH1 0xA0 DUP4 ADD CALLDATALOAD PUSH2 0x3301 DUP2 PUSH2 0x3209 JUMP JUMPDEST PUSH1 0xA0 DUP3 ADD MSTORE PUSH1 0xC0 SWAP3 DUP4 ADD CALLDATALOAD SWAP3 ADD SWAP2 SWAP1 SWAP2 MSTORE SWAP2 SWAP1 POP JUMP JUMPDEST PUSH1 0x0 PUSH1 0xE0 DUP3 DUP5 SUB SLT ISZERO PUSH2 0x3329 JUMPI PUSH1 0x0 DUP1 REVERT JUMPDEST PUSH2 0x3115 DUP4 DUP4 PUSH2 0x3271 JUMP JUMPDEST PUSH1 0x0 DUP1 PUSH1 0x0 PUSH1 0x60 DUP5 DUP7 SUB SLT ISZERO PUSH2 0x3348 JUMPI PUSH1 0x0 DUP1 REVERT JUMPDEST DUP4 CALLDATALOAD PUSH2 0x3353 DUP2 PUSH2 0x305C JUMP JUMPDEST SWAP3 POP PUSH1 0x20 DUP5 ADD CALLDATALOAD PUSH2 0x3363 DUP2 PUSH2 0x305C JUMP JUMPDEST SWAP3 SWAP6 SWAP3 SWAP5 POP POP POP PUSH1 0x40 SWAP2 SWAP1 SWAP2 ADD CALLDATALOAD SWAP1 JUMP JUMPDEST PUSH1 0x20 DUP1 DUP3 MSTORE PUSH1 0x2E SWAP1 DUP3 ADD MSTORE PUSH32 0x496E697469616C697A61626C653A20636F6E747261637420697320616C726561 PUSH1 0x40 DUP3 ADD MSTORE PUSH14 0x191E481A5B9A5D1A585B1A5E9959 PUSH1 0x92 SHL PUSH1 0x60 DUP3 ADD MSTORE PUSH1 0x80 ADD SWAP1 JUMP JUMPDEST PUSH4 0x4E487B71 PUSH1 0xE0 SHL PUSH1 0x0 MSTORE PUSH1 0x32 PUSH1 0x4 MSTORE PUSH1 0x24 PUSH1 0x0 REVERT JUMPDEST PUSH4 0x4E487B71 PUSH1 0xE0 SHL PUSH1 0x0 MSTORE PUSH1 0x11 PUSH1 0x4 MSTORE PUSH1 0x24 PUSH1 0x0 REVERT JUMPDEST PUSH1 0x0 PUSH1 0x0 NOT DUP3 EQ ISZERO PUSH2 0x3402 JUMPI PUSH2 0x3402 PUSH2 0x33D8 JUMP JUMPDEST POP PUSH1 0x1 ADD SWAP1 JUMP JUMPDEST PUSH1 0x20 DUP1 DUP3 MSTORE DUP3 MLOAD DUP3 DUP3 ADD DUP2 SWAP1 MSTORE PUSH1 0x0 SWAP2 SWAP1 DUP5 DUP3 ADD SWAP1 PUSH1 0x40 DUP6 ADD SWAP1 DUP5 JUMPDEST DUP2 DUP2 LT ISZERO PUSH2 0x3441 JUMPI DUP4 MLOAD DUP4 MSTORE SWAP3 DUP5 ADD SWAP3 SWAP2 DUP5 ADD SWAP2 PUSH1 0x1 ADD PUSH2 0x3425 JUMP JUMPDEST POP SWAP1 SWAP7 SWAP6 POP POP POP POP POP POP JUMP JUMPDEST PUSH1 0x0 JUMPDEST DUP4 DUP2 LT ISZERO PUSH2 0x3468 JUMPI DUP2 DUP2 ADD MLOAD DUP4 DUP3 ADD MSTORE PUSH1 0x20 ADD PUSH2 0x3450 JUMP JUMPDEST DUP4 DUP2 GT ISZERO PUSH2 0x3477 JUMPI PUSH1 0x0 DUP5 DUP5 ADD MSTORE JUMPDEST POP POP POP POP JUMP JUMPDEST PUSH1 0x20 DUP2 MSTORE PUSH1 0x0 DUP3 MLOAD DUP1 PUSH1 0x20 DUP5 ADD MSTORE PUSH2 0x349C DUP2 PUSH1 0x40 DUP6 ADD PUSH1 0x20 DUP8 ADD PUSH2 0x344D JUMP JUMPDEST PUSH1 0x1F ADD PUSH1 0x1F NOT AND SWAP2 SWAP1 SWAP2 ADD PUSH1 0x40 ADD SWAP3 SWAP2 POP POP JUMP JUMPDEST PUSH1 0x0 PUSH1 0x20 DUP3 DUP5 SUB SLT ISZERO PUSH2 0x34C2 JUMPI PUSH1 0x0 DUP1 REVERT JUMPDEST DUP2 MLOAD PUSH2 0x3115 DUP2 PUSH2 0x3209 JUMP JUMPDEST PUSH1 0x0 PUSH1 0x20 DUP3 DUP5 SUB SLT ISZERO PUSH2 0x34DF JUMPI PUSH1 0x0 DUP1 REVERT JUMPDEST POP MLOAD SWAP2 SWAP1 POP JUMP JUMPDEST PUSH1 0x0 PUSH1 0x20 DUP3 DUP5 SUB SLT ISZERO PUSH2 0x34F8 JUMPI PUSH1 0x0 DUP1 REVERT JUMPDEST DUP2 MLOAD PUSH2 0x3115 DUP2 PUSH2 0x305C JUMP JUMPDEST PUSH1 0x1 PUSH1 0x1 PUSH1 0xA0 SHL SUB SWAP4 DUP5 AND DUP2 MSTORE SWAP2 SWAP1 SWAP3 AND PUSH1 0x20 DUP3 ADD MSTORE PUSH1 0x40 DUP2 ADD SWAP2 SWAP1 SWAP2 MSTORE PUSH1 0x60 ADD SWAP1 JUMP JUMPDEST PUSH1 0x0 DUP2 PUSH1 0x0 NOT DIV DUP4 GT DUP3 ISZERO ISZERO AND ISZERO PUSH2 0x3541 JUMPI PUSH2 0x3541 PUSH2 0x33D8 JUMP JUMPDEST POP MUL SWAP1 JUMP JUMPDEST PUSH1 0x0 DUP3 PUSH2 0x3563 JUMPI PUSH4 0x4E487B71 PUSH1 0xE0 SHL PUSH1 0x0 MSTORE PUSH1 0x12 PUSH1 0x4 MSTORE PUSH1 0x24 PUSH1 0x0 REVERT JUMPDEST POP DIV SWAP1 JUMP JUMPDEST PUSH1 0x0 DUP3 DUP3 LT ISZERO PUSH2 0x357A JUMPI PUSH2 0x357A PUSH2 0x33D8 JUMP JUMPDEST POP SUB SWAP1 JUMP JUMPDEST PUSH1 0x0 DUP1 PUSH1 0x40 DUP4 DUP6 SUB SLT ISZERO PUSH2 0x3592 JUMPI PUSH1 0x0 DUP1 REVERT JUMPDEST DUP3 MLOAD PUSH2 0x359D DUP2 PUSH2 0x305C JUMP JUMPDEST PUSH1 0x20 SWAP4 SWAP1 SWAP4 ADD MLOAD SWAP3 SWAP5 SWAP3 SWAP4 POP POP POP JUMP JUMPDEST DUP2 SLOAD PUSH1 0x1 PUSH1 0x1 PUSH1 0xA0 SHL SUB SWAP1 DUP2 AND DUP3 MSTORE PUSH1 0x1 DUP4 ADD SLOAD PUSH1 0x20 DUP4 ADD MSTORE PUSH1 0x2 DUP4 ADD SLOAD DUP2 AND PUSH1 0x40 DUP4 ADD MSTORE PUSH1 0x3 DUP4 ADD SLOAD AND PUSH1 0x60 DUP3 ADD MSTORE PUSH1 0x4 DUP3 ADD SLOAD PUSH1 0x80 DUP3 ADD MSTORE PUSH1 0x5 DUP3 ADD SLOAD PUSH1 0xFF AND ISZERO ISZERO PUSH1 0xA0 DUP3 ADD MSTORE PUSH1 0x6 DUP3 ADD SLOAD PUSH1 0xC0 DUP3 ADD MSTORE PUSH1 0xE0 DUP2 ADD PUSH2 0x3056 JUMP JUMPDEST PUSH1 0x0 DUP5 MLOAD PUSH2 0x361B DUP2 DUP5 PUSH1 0x20 DUP10 ADD PUSH2 0x344D JUMP JUMPDEST PUSH1 0x60 DUP6 SWAP1 SHL PUSH12 0xFFFFFFFFFFFFFFFFFFFFFFFF NOT AND SWAP1 DUP4 ADD SWAP1 DUP2 MSTORE DUP4 MLOAD PUSH2 0x3648 DUP2 PUSH1 0x14 DUP5 ADD PUSH1 0x20 DUP9 ADD PUSH2 0x344D JUMP JUMPDEST ADD PUSH1 0x14 ADD SWAP6 SWAP5 POP POP POP POP POP JUMP JUMPDEST DUP2 MLOAD PUSH1 0x1 PUSH1 0x1 PUSH1 0xA0 SHL SUB SWAP1 DUP2 AND DUP3 MSTORE PUSH1 0x20 DUP1 DUP5 ADD MLOAD SWAP1 DUP4 ADD MSTORE PUSH1 0x40 DUP1 DUP5 ADD MLOAD DUP3 AND SWAP1 DUP4 ADD MSTORE PUSH1 0x60 DUP1 DUP5 ADD MLOAD SWAP1 SWAP2 AND SWAP1 DUP3 ADD MSTORE PUSH1 0x80 DUP1 DUP4 ADD MLOAD SWAP1 DUP3 ADD MSTORE PUSH1 0xA0 DUP1 DUP4 ADD MLOAD ISZERO ISZERO SWAP1 DUP3 ADD MSTORE PUSH1 0xC0 DUP1 DUP4 ADD MLOAD SWAP1 DUP3 ADD MSTORE PUSH1 0xE0 DUP2 ADD PUSH2 0x3056 JUMP JUMPDEST PUSH1 0x20 DUP1 DUP3 MSTORE PUSH1 0x2B SWAP1 DUP3 ADD MSTORE PUSH32 0x496E697469616C697A61626C653A20636F6E7472616374206973206E6F742069 PUSH1 0x40 DUP3 ADD MSTORE PUSH11 0x6E697469616C697A696E67 PUSH1 0xA8 SHL PUSH1 0x60 DUP3 ADD MSTORE PUSH1 0x80 ADD SWAP1 JUMP INVALID LOG2 PUSH5 0x6970667358 0x22 SLT KECCAK256 JUMP SMOD 0xDB EXTCODECOPY 0x2A CALLVALUE LOG1 0xAB DUP3 CALLDATASIZE KECCAK256 PUSH26 0x28DCA0BD25D4B67D0CAE6DF0BFD08937DDE360264736F6C6343 STOP ADDMOD 0xC STOP CALLER "},"methodIdentifiers":{"_admin()":"01bc45c9","_allowableERC20MakeListToken(address)":"5b06e64a","_allowableERC20MakeOffer(address)":"bd7ec0c2","_arrayListingId(uint256)":"ed4ec201","_arrayMakeOfferId(uint256)":"1fd4d2ed","_listingTokenDataMapping(address,uint256,uint256)":"d299a086","_listingTokenIds(address,uint256)":"eab651d8","_listingTokens(bytes32)":"a3a1937c","_makeOfferDataMapping(address,uint256,uint256)":"14646f6d","_makeOfferTokenIds(address,uint256)":"a25d6dce","_makeOfferTokens(bytes32)":"3dd72c40","_parameterAddr()":"72c035cf","acceptMakeOffer(bytes32)":"d9e87e61","cancelListing(bytes32)":"9299e552","cancelMakeOffer(bytes32)":"f1f2df0e","changeAdmin(address)":"8f283970","changeParamAddr(address)":"febfd6c3","initialize(address,address)":"485cc955","listToken((address,uint256,address,address,uint256,bool,uint256))":"f40cb02d","makeOffer((address,uint256,address,address,uint256,bool,uint256))":"d2abb69c","purchaseToken(bytes32)":"3ac1089a","setApproveERC20ListToken(address,bool)":"e5026b8b","setApproveERC20MakeOffer(address,bool)":"9142e6a8","sweep(bytes32[])":"6852168a","withdraw(address,address,uint256)":"d9caed12"}},"storageLayout":{"storage":[{"astId":6,"contract":"contracts/services/AdvanceMarketplaceService.sol:AdvanceMarketplaceService","label":"_initialized","offset":0,"slot":"0","type":"t_uint8"},{"astId":9,"contract":"contracts/services/AdvanceMarketplaceService.sol:AdvanceMarketplaceService","label":"_initializing","offset":1,"slot":"0","type":"t_bool"},{"astId":182,"contract":"contracts/services/AdvanceMarketplaceService.sol:AdvanceMarketplaceService","label":"_status","offset":0,"slot":"1","type":"t_uint256"},{"astId":240,"contract":"contracts/services/AdvanceMarketplaceService.sol:AdvanceMarketplaceService","label":"__gap","offset":0,"slot":"2","type":"t_array(t_uint256)49_storage"},{"astId":4637,"contract":"contracts/services/AdvanceMarketplaceService.sol:AdvanceMarketplaceService","label":"_counting","offset":0,"slot":"51","type":"t_uint256"},{"astId":4639,"contract":"contracts/services/AdvanceMarketplaceService.sol:AdvanceMarketplaceService","label":"_admin","offset":0,"slot":"52","type":"t_address"},{"astId":4641,"contract":"contracts/services/AdvanceMarketplaceService.sol:AdvanceMarketplaceService","label":"_parameterAddr","offset":0,"slot":"53","type":"t_address"},{"astId":4646,"contract":"contracts/services/AdvanceMarketplaceService.sol:AdvanceMarketplaceService","label":"_listingTokens","offset":0,"slot":"54","type":"t_mapping(t_bytes32,t_struct(ListingTokenData)4226_storage)"},{"astId":4649,"contract":"contracts/services/AdvanceMarketplaceService.sol:AdvanceMarketplaceService","label":"_arrayListingId","offset":0,"slot":"55","type":"t_array(t_bytes32)dyn_storage"},{"astId":4654,"contract":"contracts/services/AdvanceMarketplaceService.sol:AdvanceMarketplaceService","label":"_makeOfferTokens","offset":0,"slot":"56","type":"t_mapping(t_bytes32,t_struct(MakeOfferData)4241_storage)"},{"astId":4657,"contract":"contracts/services/AdvanceMarketplaceService.sol:AdvanceMarketplaceService","label":"_arrayMakeOfferId","offset":0,"slot":"57","type":"t_array(t_bytes32)dyn_storage"},{"astId":4336,"contract":"contracts/services/AdvanceMarketplaceService.sol:AdvanceMarketplaceService","label":"_listingTokenDataMapping","offset":0,"slot":"58","type":"t_mapping(t_address,t_mapping(t_uint256,t_array(t_struct(ListingTokenData)4226_storage)dyn_storage))"},{"astId":4341,"contract":"contracts/services/AdvanceMarketplaceService.sol:AdvanceMarketplaceService","label":"_listingTokenIds","offset":0,"slot":"59","type":"t_mapping(t_address,t_array(t_uint256)dyn_storage)"},{"astId":4349,"contract":"contracts/services/AdvanceMarketplaceService.sol:AdvanceMarketplaceService","label":"_makeOfferDataMapping","offset":0,"slot":"60","type":"t_mapping(t_address,t_mapping(t_uint256,t_array(t_struct(MakeOfferData)4241_storage)dyn_storage))"},{"astId":4354,"contract":"contracts/services/AdvanceMarketplaceService.sol:AdvanceMarketplaceService","label":"_makeOfferTokenIds","offset":0,"slot":"61","type":"t_mapping(t_address,t_array(t_uint256)dyn_storage)"},{"astId":4358,"contract":"contracts/services/AdvanceMarketplaceService.sol:AdvanceMarketplaceService","label":"_allowableERC20MakeOffer","offset":0,"slot":"62","type":"t_mapping(t_address,t_bool)"},{"astId":4362,"contract":"contracts/services/AdvanceMarketplaceService.sol:AdvanceMarketplaceService","label":"_allowableERC20MakeListToken","offset":0,"slot":"63","type":"t_mapping(t_address,t_bool)"}],"types":{"t_address":{"encoding":"inplace","label":"address","numberOfBytes":"20"},"t_array(t_bytes32)dyn_storage":{"base":"t_bytes32","encoding":"dynamic_array","label":"bytes32[]","numberOfBytes":"32"},"t_array(t_struct(ListingTokenData)4226_storage)dyn_storage":{"base":"t_struct(ListingTokenData)4226_storage","encoding":"dynamic_array","label":"struct Marketplace.ListingTokenData[]","numberOfBytes":"32"},"t_array(t_struct(MakeOfferData)4241_storage)dyn_storage":{"base":"t_struct(MakeOfferData)4241_storage","encoding":"dynamic_array","label":"struct Marketplace.MakeOfferData[]","numberOfBytes":"32"},"t_array(t_uint256)49_storage":{"base":"t_uint256","encoding":"inplace","label":"uint256[49]","numberOfBytes":"1568"},"t_array(t_uint256)dyn_storage":{"base":"t_uint256","encoding":"dynamic_array","label":"uint256[]","numberOfBytes":"32"},"t_bool":{"encoding":"inplace","label":"bool","numberOfBytes":"1"},"t_bytes32":{"encoding":"inplace","label":"bytes32","numberOfBytes":"32"},"t_mapping(t_address,t_array(t_uint256)dyn_storage)":{"encoding":"mapping","key":"t_address","label":"mapping(address => uint256[])","numberOfBytes":"32","value":"t_array(t_uint256)dyn_storage"},"t_mapping(t_address,t_bool)":{"encoding":"mapping","key":"t_address","label":"mapping(address => bool)","numberOfBytes":"32","value":"t_bool"},"t_mapping(t_address,t_mapping(t_uint256,t_array(t_struct(ListingTokenData)4226_storage)dyn_storage))":{"encoding":"mapping","key":"t_address","label":"mapping(address => mapping(uint256 => struct Marketplace.ListingTokenData[]))","numberOfBytes":"32","value":"t_mapping(t_uint256,t_array(t_struct(ListingTokenData)4226_storage)dyn_storage)"},"t_mapping(t_address,t_mapping(t_uint256,t_array(t_struct(MakeOfferData)4241_storage)dyn_storage))":{"encoding":"mapping","key":"t_address","label":"mapping(address => mapping(uint256 => struct Marketplace.MakeOfferData[]))","numberOfBytes":"32","value":"t_mapping(t_uint256,t_array(t_struct(MakeOfferData)4241_storage)dyn_storage)"},"t_mapping(t_bytes32,t_struct(ListingTokenData)4226_storage)":{"encoding":"mapping","key":"t_bytes32","label":"mapping(bytes32 => struct Marketplace.ListingTokenData)","numberOfBytes":"32","value":"t_struct(ListingTokenData)4226_storage"},"t_mapping(t_bytes32,t_struct(MakeOfferData)4241_storage)":{"encoding":"mapping","key":"t_bytes32","label":"mapping(bytes32 => struct Marketplace.MakeOfferData)","numberOfBytes":"32","value":"t_struct(MakeOfferData)4241_storage"},"t_mapping(t_uint256,t_array(t_struct(ListingTokenData)4226_storage)dyn_storage)":{"encoding":"mapping","key":"t_uint256","label":"mapping(uint256 => struct Marketplace.ListingTokenData[])","numberOfBytes":"32","value":"t_array(t_struct(ListingTokenData)4226_storage)dyn_storage"},"t_mapping(t_uint256,t_array(t_struct(MakeOfferData)4241_storage)dyn_storage)":{"encoding":"mapping","key":"t_uint256","label":"mapping(uint256 => struct Marketplace.MakeOfferData[])","numberOfBytes":"32","value":"t_array(t_struct(MakeOfferData)4241_storage)dyn_storage"},"t_struct(ListingTokenData)4226_storage":{"encoding":"inplace","label":"struct Marketplace.ListingTokenData","members":[{"astId":4213,"contract":"contracts/services/AdvanceMarketplaceService.sol:AdvanceMarketplaceService","label":"_collectionContract","offset":0,"slot":"0","type":"t_address"},{"astId":4215,"contract":"contracts/services/AdvanceMarketplaceService.sol:AdvanceMarketplaceService","label":"_tokenId","offset":0,"slot":"1","type":"t_uint256"},{"astId":4217,"contract":"contracts/services/AdvanceMarketplaceService.sol:AdvanceMarketplaceService","label":"_seller","offset":0,"slot":"2","type":"t_address"},{"astId":4219,"contract":"contracts/services/AdvanceMarketplaceService.sol:AdvanceMarketplaceService","label":"_erc20Token","offset":0,"slot":"3","type":"t_address"},{"astId":4221,"contract":"contracts/services/AdvanceMarketplaceService.sol:AdvanceMarketplaceService","label":"_price","offset":0,"slot":"4","type":"t_uint256"},{"astId":4223,"contract":"contracts/services/AdvanceMarketplaceService.sol:AdvanceMarketplaceService","label":"_closed","offset":0,"slot":"5","type":"t_bool"},{"astId":4225,"contract":"contracts/services/AdvanceMarketplaceService.sol:AdvanceMarketplaceService","label":"_durationTime","offset":0,"slot":"6","type":"t_uint256"}],"numberOfBytes":"224"},"t_struct(MakeOfferData)4241_storage":{"encoding":"inplace","label":"struct Marketplace.MakeOfferData","members":[{"astId":4228,"contract":"contracts/services/AdvanceMarketplaceService.sol:AdvanceMarketplaceService","label":"_collectionContract","offset":0,"slot":"0","type":"t_address"},{"astId":4230,"contract":"contracts/services/AdvanceMarketplaceService.sol:AdvanceMarketplaceService","label":"_tokenId","offset":0,"slot":"1","type":"t_uint256"},{"astId":4232,"contract":"contracts/services/AdvanceMarketplaceService.sol:AdvanceMarketplaceService","label":"_buyer","offset":0,"slot":"2","type":"t_address"},{"astId":4234,"contract":"contracts/services/AdvanceMarketplaceService.sol:AdvanceMarketplaceService","label":"_erc20Token","offset":0,"slot":"3","type":"t_address"},{"astId":4236,"contract":"contracts/services/AdvanceMarketplaceService.sol:AdvanceMarketplaceService","label":"_price","offset":0,"slot":"4","type":"t_uint256"},{"astId":4238,"contract":"contracts/services/AdvanceMarketplaceService.sol:AdvanceMarketplaceService","label":"_closed","offset":0,"slot":"5","type":"t_bool"},{"astId":4240,"contract":"contracts/services/AdvanceMarketplaceService.sol:AdvanceMarketplaceService","label":"_durationTime","offset":0,"slot":"6","type":"t_uint256"}],"numberOfBytes":"224"},"t_uint256":{"encoding":"inplace","label":"uint256","numberOfBytes":"32"},"t_uint8":{"encoding":"inplace","label":"uint8","numberOfBytes":"1"}}}}}}