{"contracts/libs/configs/GenerativeNFTConfigs.sol":{"GenerativeNFTConfigs":{"abi":[{"inputs":[],"name":"BFS_ADDRESS","outputs":[{"internalType":"string","name":"","type":"string"}],"stateMutability":"view","type":"function"},{"inputs":[],"name":"DEFAULT_ROYALTY_FIN_PERCENT","outputs":[{"internalType":"string","name":"","type":"string"}],"stateMutability":"view","type":"function"},{"inputs":[],"name":"MINT_NFT_OPERATOR_FEE","outputs":[{"internalType":"string","name":"","type":"string"}],"stateMutability":"view","type":"function"},{"inputs":[],"name":"PROJECT_PADDING","outputs":[{"internalType":"uint256","name":"","type":"uint256"}],"stateMutability":"view","type":"function"},{"inputs":[],"name":"ROYALTY_FIN_ADDRESS","outputs":[{"internalType":"string","name":"","type":"string"}],"stateMutability":"view","type":"function"}],"evm":{"bytecode":{"linkReferences":{},"object":"6101eb61003a600b82828239805160001a60731461002d57634e487b7160e01b600052600060045260246000fd5b30600052607381538281f3fe73000000000000000000000000000000000000000030146080604052600436106100615760003560e01c80633ebcd75e1461006657806381f6b8d3146100a657806393accc40146100da578063c8fce78314610116578063cb0d7f271461012e575b600080fd5b6100906040518060400160405280600b81526020016a4246535f4144445245535360a81b81525081565b60405161009d9190610160565b60405180910390f35b610090604051806040016040528060158152602001744d494e545f4e46545f4f50455241544f525f46454560581b81525081565b6100906040518060400160405280601b81526020017f44454641554c545f524f59414c54595f46494e5f50455243454e54000000000081525081565b610120620f424081565b60405190815260200161009d565b61009060405180604001604052806013815260200172524f59414c54595f46494e5f4144445245535360681b81525081565b600060208083528351808285015260005b8181101561018d57858101830151858201604001528201610171565b8181111561019f576000604083870101525b50601f01601f191692909201604001939250505056fea2646970667358221220fce261076e4a0829879a78fd70582b5636a29d0cdbca684c9e2ac316279861b364736f6c634300080c0033","opcodes":"PUSH2 0x1EB PUSH2 0x3A PUSH1 0xB DUP3 DUP3 DUP3 CODECOPY DUP1 MLOAD PUSH1 0x0 BYTE PUSH1 0x73 EQ PUSH2 0x2D JUMPI PUSH4 0x4E487B71 PUSH1 0xE0 SHL PUSH1 0x0 MSTORE PUSH1 0x0 PUSH1 0x4 MSTORE PUSH1 0x24 PUSH1 0x0 REVERT JUMPDEST ADDRESS PUSH1 0x0 MSTORE PUSH1 0x73 DUP2 MSTORE8 DUP3 DUP2 RETURN INVALID PUSH20 0x0 ADDRESS EQ PUSH1 0x80 PUSH1 0x40 MSTORE PUSH1 0x4 CALLDATASIZE LT PUSH2 0x61 JUMPI PUSH1 0x0 CALLDATALOAD PUSH1 0xE0 SHR DUP1 PUSH4 0x3EBCD75E EQ PUSH2 0x66 JUMPI DUP1 PUSH4 0x81F6B8D3 EQ PUSH2 0xA6 JUMPI DUP1 PUSH4 0x93ACCC40 EQ PUSH2 0xDA JUMPI DUP1 PUSH4 0xC8FCE783 EQ PUSH2 0x116 JUMPI DUP1 PUSH4 0xCB0D7F27 EQ PUSH2 0x12E JUMPI JUMPDEST PUSH1 0x0 DUP1 REVERT JUMPDEST PUSH2 0x90 PUSH1 0x40 MLOAD DUP1 PUSH1 0x40 ADD PUSH1 0x40 MSTORE DUP1 PUSH1 0xB DUP2 MSTORE PUSH1 0x20 ADD PUSH11 0x4246535F41444452455353 PUSH1 0xA8 SHL DUP2 MSTORE POP DUP2 JUMP JUMPDEST PUSH1 0x40 MLOAD PUSH2 0x9D SWAP2 SWAP1 PUSH2 0x160 JUMP JUMPDEST PUSH1 0x40 MLOAD DUP1 SWAP2 SUB SWAP1 RETURN JUMPDEST PUSH2 0x90 PUSH1 0x40 MLOAD DUP1 PUSH1 0x40 ADD PUSH1 0x40 MSTORE DUP1 PUSH1 0x15 DUP2 MSTORE PUSH1 0x20 ADD PUSH21 0x4D494E545F4E46545F4F50455241544F525F464545 PUSH1 0x58 SHL DUP2 MSTORE POP DUP2 JUMP JUMPDEST PUSH2 0x90 PUSH1 0x40 MLOAD DUP1 PUSH1 0x40 ADD PUSH1 0x40 MSTORE DUP1 PUSH1 0x1B DUP2 MSTORE PUSH1 0x20 ADD PUSH32 0x44454641554C545F524F59414C54595F46494E5F50455243454E540000000000 DUP2 MSTORE POP DUP2 JUMP JUMPDEST PUSH2 0x120 PUSH3 0xF4240 DUP2 JUMP JUMPDEST PUSH1 0x40 MLOAD SWAP1 DUP2 MSTORE PUSH1 0x20 ADD PUSH2 0x9D JUMP JUMPDEST PUSH2 0x90 PUSH1 0x40 MLOAD DUP1 PUSH1 0x40 ADD PUSH1 0x40 MSTORE DUP1 PUSH1 0x13 DUP2 MSTORE PUSH1 0x20 ADD PUSH19 0x524F59414C54595F46494E5F41444452455353 PUSH1 0x68 SHL DUP2 MSTORE POP DUP2 JUMP JUMPDEST PUSH1 0x0 PUSH1 0x20 DUP1 DUP4 MSTORE DUP4 MLOAD DUP1 DUP3 DUP6 ADD MSTORE PUSH1 0x0 JUMPDEST DUP2 DUP2 LT ISZERO PUSH2 0x18D JUMPI DUP6 DUP2 ADD DUP4 ADD MLOAD DUP6 DUP3 ADD PUSH1 0x40 ADD MSTORE DUP3 ADD PUSH2 0x171 JUMP JUMPDEST DUP2 DUP2 GT ISZERO PUSH2 0x19F JUMPI PUSH1 0x0 PUSH1 0x40 DUP4 DUP8 ADD ADD MSTORE JUMPDEST POP PUSH1 0x1F ADD PUSH1 0x1F NOT AND SWAP3 SWAP1 SWAP3 ADD PUSH1 0x40 ADD SWAP4 SWAP3 POP POP POP JUMP INVALID LOG2 PUSH5 0x6970667358 0x22 SLT KECCAK256 0xFC 0xE2 PUSH2 0x76E 0x4A ADDMOD 0x29 DUP8 SWAP11 PUSH25 0xFD70582B5636A29D0CDBCA684C9E2AC316279861B364736F6C PUSH4 0x4300080C STOP CALLER "},"methodIdentifiers":{"BFS_ADDRESS()":"3ebcd75e","DEFAULT_ROYALTY_FIN_PERCENT()":"93accc40","MINT_NFT_OPERATOR_FEE()":"81f6b8d3","PROJECT_PADDING()":"c8fce783","ROYALTY_FIN_ADDRESS()":"cb0d7f27"}},"storageLayout":{"storage":[],"types":null}}}}