{"contracts/services/Collaboration.sol":{"Collaboration":{"abi":[{"inputs":[{"components":[{"internalType":"address[]","name":"_collaborators","type":"address[]"},{"internalType":"uint256[]","name":"_shared","type":"uint256[]"}],"internalType":"struct Royalty.CollaborationShared","name":"params","type":"tuple"}],"stateMutability":"nonpayable","type":"constructor"},{"anonymous":false,"inputs":[{"indexed":true,"internalType":"address","name":"previousOwner","type":"address"},{"indexed":true,"internalType":"address","name":"newOwner","type":"address"}],"name":"OwnershipTransferred","type":"event"},{"inputs":[{"internalType":"address","name":"","type":"address"}],"name":"_collaborations","outputs":[{"internalType":"uint256","name":"","type":"uint256"}],"stateMutability":"view","type":"function"},{"inputs":[{"internalType":"uint256","name":"","type":"uint256"}],"name":"_collaborators","outputs":[{"internalType":"address","name":"","type":"address"}],"stateMutability":"view","type":"function"},{"inputs":[],"name":"_total","outputs":[{"internalType":"uint256","name":"","type":"uint256"}],"stateMutability":"view","type":"function"},{"inputs":[{"internalType":"address","name":"operator","type":"address"},{"internalType":"address","name":"from","type":"address"},{"internalType":"uint256","name":"tokenId","type":"uint256"},{"internalType":"bytes","name":"data","type":"bytes"}],"name":"onERC721Received","outputs":[{"internalType":"bytes4","name":"","type":"bytes4"}],"stateMutability":"nonpayable","type":"function"},{"inputs":[],"name":"owner","outputs":[{"internalType":"address","name":"","type":"address"}],"stateMutability":"view","type":"function"},{"inputs":[],"name":"renounceOwnership","outputs":[],"stateMutability":"nonpayable","type":"function"},{"inputs":[{"internalType":"address","name":"newOwner","type":"address"}],"name":"transferOwnership","outputs":[],"stateMutability":"nonpayable","type":"function"},{"inputs":[{"internalType":"address","name":"erc20Addr","type":"address"}],"name":"withdraw","outputs":[],"stateMutability":"nonpayable","type":"function"}],"evm":{"bytecode":{"linkReferences":{},"object":"60806040523480156200001157600080fd5b5060405162000dd338038062000dd38339810160408190526200003491620002c7565b6200003f336200016a565b6001805560005b8151518110156200016257816020015181815181106200006a576200006a620003d2565b602002602001015160026000846000015184815181106200008f576200008f620003d2565b60200260200101516001600160a01b03166001600160a01b0316815260200190815260200160002081905550600382600001518281518110620000d657620000d6620003d2565b602090810291909101810151825460018101845560009384529282902090920180546001600160a01b0319166001600160a01b03909316929092179091558201518051829081106200012c576200012c620003d2565b602002602001015160046000828254620001479190620003fe565b90915550819050620001598162000419565b91505062000046565b505062000437565b600080546001600160a01b038381166001600160a01b0319831681178455604051919092169283917f8be0079c531659141344cd1fd0a4f28419497f9722a3daafe3b4186f6b6457e09190a35050565b634e487b7160e01b600052604160045260246000fd5b604080519081016001600160401b0381118282101715620001f557620001f5620001ba565b60405290565b604051601f8201601f191681016001600160401b0381118282101715620002265762000226620001ba565b604052919050565b60006001600160401b038211156200024a576200024a620001ba565b5060051b60200190565b600082601f8301126200026657600080fd5b815160206200027f62000279836200022e565b620001fb565b82815260059290921b840181019181810190868411156200029f57600080fd5b8286015b84811015620002bc5780518352918301918301620002a3565b509695505050505050565b60006020808385031215620002db57600080fd5b82516001600160401b0380821115620002f357600080fd5b90840190604082870312156200030857600080fd5b62000312620001d0565b8251828111156200032257600080fd5b8301601f810188136200033457600080fd5b80516200034562000279826200022e565b81815260059190911b8201860190868101908a8311156200036557600080fd5b928701925b828410156200039c5783516001600160a01b03811681146200038c5760008081fd5b825292870192908701906200036a565b84525050508284015182811115620003b357600080fd5b620003c18882860162000254565b948201949094529695505050505050565b634e487b7160e01b600052603260045260246000fd5b634e487b7160e01b600052601160045260246000fd5b60008219821115620004145762000414620003e8565b500190565b6000600019821415620004305762000430620003e8565b5060010190565b61098c80620004476000396000f3fe608060405234801561001057600080fd5b50600436106100885760003560e01c80637a27da791161005b5780637a27da791461012b5780638da5cb5b14610142578063a43a083814610153578063f2fde38b1461017357600080fd5b8063150b7a021461008d57806315c4dcb4146100e357806351cff8d91461010e578063715018a614610123575b600080fd5b6100c561009b366004610739565b7f150b7a023d4804d13e8c85fb27262cb750cf6ba9f9dd3bb30d90f482ceeb4b1f95945050505050565b6040516001600160e01b031990911681526020015b60405180910390f35b6100f66100f13660046107d4565b610186565b6040516001600160a01b0390911681526020016100da565b61012161011c3660046107ed565b6101b0565b005b610121610487565b61013460045481565b6040519081526020016100da565b6000546001600160a01b03166100f6565b6101346101613660046107ed565b60026020526000908152604090205481565b6101216101813660046107ed565b61049b565b6003818154811061019657600080fd5b6000918252602090912001546001600160a01b0316905081565b6101b8610511565b33600090815260026020908152604091829020548251808401909352600383526231303160e81b9183019190915261020c5760405162461bcd60e51b8152600401610203919061080f565b60405180910390fd5b5060008061021861056b565b905060006001600160a01b03841661030157504760005b82518110156102fb576003818154811061024b5761024b610864565b60009182526020909120015483516001600160a01b03909116906127109085908490811061027b5761027b610864565b60200260200101518461028e9190610890565b61029891906108af565b604051600081818185875af1925050503d80600081146102d4576040519150601f19603f3d011682016040523d82523d6000602084013e6102d9565b606091505b505080945050836102e957600080fd5b806102f3816108d1565b91505061022f565b50610478565b6040516370a0823160e01b815230600482015284906001600160a01b038216906370a0823190602401602060405180830381865afa158015610347573d6000803e3d6000fd5b505050506040513d601f19601f8201168201806040525081019061036b91906108ec565b915060005b835181101561047557816001600160a01b031663a9059cbb6003838154811061039b5761039b610864565b9060005260206000200160009054906101000a90046001600160a01b03166127108785815181106103ce576103ce610864565b6020026020010151876103e19190610890565b6103eb91906108af565b6040516001600160e01b031960e085901b1681526001600160a01b03909216600483015260248201526044016020604051808303816000875af1158015610436573d6000803e3d6000fd5b505050506040513d601f19601f8201168201806040525081019061045a9190610905565b61046357600080fd5b8061046d816108d1565b915050610370565b50505b50505061048460018055565b50565b61048f610673565b61049960006106cd565b565b6104a3610673565b6001600160a01b0381166105085760405162461bcd60e51b815260206004820152602660248201527f4f776e61626c653a206e6577206f776e657220697320746865207a65726f206160448201526564647265737360d01b6064820152608401610203565b610484816106cd565b600260015414156105645760405162461bcd60e51b815260206004820152601f60248201527f5265656e7472616e637947756172643a207265656e7472616e742063616c6c006044820152606401610203565b6002600155565b6060806000805b60035461058190600190610927565b8110156106345760045460026000600384815481106105a2576105a2610864565b60009182526020808320909101546001600160a01b031683528201929092526040019020546105d191906108af565b6105dd90612710610890565b8382815181106105ef576105ef610864565b60200260200101818152505082818151811061060d5761060d610864565b602002602001015182610620919061093e565b91508061062c816108d1565b915050610572565b5061064181612710610927565b600354839061065290600190610927565b8151811061066257610662610864565b602090810291909101015250919050565b6000546001600160a01b031633146104995760405162461bcd60e51b815260206004820181905260248201527f4f776e61626c653a2063616c6c6572206973206e6f7420746865206f776e65726044820152606401610203565b600080546001600160a01b038381166001600160a01b0319831681178455604051919092169283917f8be0079c531659141344cd1fd0a4f28419497f9722a3daafe3b4186f6b6457e09190a35050565b80356001600160a01b038116811461073457600080fd5b919050565b60008060008060006080868803121561075157600080fd5b61075a8661071d565b94506107686020870161071d565b935060408601359250606086013567ffffffffffffffff8082111561078c57600080fd5b818801915088601f8301126107a057600080fd5b8135818111156107af57600080fd5b8960208285010111156107c157600080fd5b9699959850939650602001949392505050565b6000602082840312156107e657600080fd5b5035919050565b6000602082840312156107ff57600080fd5b6108088261071d565b9392505050565b600060208083528351808285015260005b8181101561083c57858101830151858201604001528201610820565b8181111561084e576000604083870101525b50601f01601f1916929092016040019392505050565b634e487b7160e01b600052603260045260246000fd5b634e487b7160e01b600052601160045260246000fd5b60008160001904831182151516156108aa576108aa61087a565b500290565b6000826108cc57634e487b7160e01b600052601260045260246000fd5b500490565b60006000198214156108e5576108e561087a565b5060010190565b6000602082840312156108fe57600080fd5b5051919050565b60006020828403121561091757600080fd5b8151801515811461080857600080fd5b6000828210156109395761093961087a565b500390565b600082198211156109515761095161087a565b50019056fea2646970667358221220cdb53a510bf6b87dea73487051fb7560687101677aba4c2c72bb5c6f8431a2d664736f6c634300080c0033","opcodes":"PUSH1 0x80 PUSH1 0x40 MSTORE CALLVALUE DUP1 ISZERO PUSH3 0x11 JUMPI PUSH1 0x0 DUP1 REVERT JUMPDEST POP PUSH1 0x40 MLOAD PUSH3 0xDD3 CODESIZE SUB DUP1 PUSH3 0xDD3 DUP4 CODECOPY DUP2 ADD PUSH1 0x40 DUP2 SWAP1 MSTORE PUSH3 0x34 SWAP2 PUSH3 0x2C7 JUMP JUMPDEST PUSH3 0x3F CALLER PUSH3 0x16A JUMP JUMPDEST PUSH1 0x1 DUP1 SSTORE PUSH1 0x0 JUMPDEST DUP2 MLOAD MLOAD DUP2 LT ISZERO PUSH3 0x162 JUMPI DUP2 PUSH1 0x20 ADD MLOAD DUP2 DUP2 MLOAD DUP2 LT PUSH3 0x6A JUMPI PUSH3 0x6A PUSH3 0x3D2 JUMP JUMPDEST PUSH1 0x20 MUL PUSH1 0x20 ADD ADD MLOAD PUSH1 0x2 PUSH1 0x0 DUP5 PUSH1 0x0 ADD MLOAD DUP5 DUP2 MLOAD DUP2 LT PUSH3 0x8F JUMPI PUSH3 0x8F PUSH3 0x3D2 JUMP JUMPDEST PUSH1 0x20 MUL PUSH1 0x20 ADD ADD MLOAD PUSH1 0x1 PUSH1 0x1 PUSH1 0xA0 SHL SUB AND PUSH1 0x1 PUSH1 0x1 PUSH1 0xA0 SHL SUB AND DUP2 MSTORE PUSH1 0x20 ADD SWAP1 DUP2 MSTORE PUSH1 0x20 ADD PUSH1 0x0 KECCAK256 DUP2 SWAP1 SSTORE POP PUSH1 0x3 DUP3 PUSH1 0x0 ADD MLOAD DUP3 DUP2 MLOAD DUP2 LT PUSH3 0xD6 JUMPI PUSH3 0xD6 PUSH3 0x3D2 JUMP JUMPDEST PUSH1 0x20 SWAP1 DUP2 MUL SWAP2 SWAP1 SWAP2 ADD DUP2 ADD MLOAD DUP3 SLOAD PUSH1 0x1 DUP2 ADD DUP5 SSTORE PUSH1 0x0 SWAP4 DUP5 MSTORE SWAP3 DUP3 SWAP1 KECCAK256 SWAP1 SWAP3 ADD DUP1 SLOAD PUSH1 0x1 PUSH1 0x1 PUSH1 0xA0 SHL SUB NOT AND PUSH1 0x1 PUSH1 0x1 PUSH1 0xA0 SHL SUB SWAP1 SWAP4 AND SWAP3 SWAP1 SWAP3 OR SWAP1 SWAP2 SSTORE DUP3 ADD MLOAD DUP1 MLOAD DUP3 SWAP1 DUP2 LT PUSH3 0x12C JUMPI PUSH3 0x12C PUSH3 0x3D2 JUMP JUMPDEST PUSH1 0x20 MUL PUSH1 0x20 ADD ADD MLOAD PUSH1 0x4 PUSH1 0x0 DUP3 DUP3 SLOAD PUSH3 0x147 SWAP2 SWAP1 PUSH3 0x3FE JUMP JUMPDEST SWAP1 SWAP2 SSTORE POP DUP2 SWAP1 POP PUSH3 0x159 DUP2 PUSH3 0x419 JUMP JUMPDEST SWAP2 POP POP PUSH3 0x46 JUMP JUMPDEST POP POP PUSH3 0x437 JUMP JUMPDEST PUSH1 0x0 DUP1 SLOAD PUSH1 0x1 PUSH1 0x1 PUSH1 0xA0 SHL SUB DUP4 DUP2 AND PUSH1 0x1 PUSH1 0x1 PUSH1 0xA0 SHL SUB NOT DUP4 AND DUP2 OR DUP5 SSTORE PUSH1 0x40 MLOAD SWAP2 SWAP1 SWAP3 AND SWAP3 DUP4 SWAP2 PUSH32 0x8BE0079C531659141344CD1FD0A4F28419497F9722A3DAAFE3B4186F6B6457E0 SWAP2 SWAP1 LOG3 POP POP JUMP JUMPDEST PUSH4 0x4E487B71 PUSH1 0xE0 SHL PUSH1 0x0 MSTORE PUSH1 0x41 PUSH1 0x4 MSTORE PUSH1 0x24 PUSH1 0x0 REVERT JUMPDEST PUSH1 0x40 DUP1 MLOAD SWAP1 DUP2 ADD PUSH1 0x1 PUSH1 0x1 PUSH1 0x40 SHL SUB DUP2 GT DUP3 DUP3 LT OR ISZERO PUSH3 0x1F5 JUMPI PUSH3 0x1F5 PUSH3 0x1BA JUMP JUMPDEST PUSH1 0x40 MSTORE SWAP1 JUMP JUMPDEST PUSH1 0x40 MLOAD PUSH1 0x1F DUP3 ADD PUSH1 0x1F NOT AND DUP2 ADD PUSH1 0x1 PUSH1 0x1 PUSH1 0x40 SHL SUB DUP2 GT DUP3 DUP3 LT OR ISZERO PUSH3 0x226 JUMPI PUSH3 0x226 PUSH3 0x1BA JUMP JUMPDEST PUSH1 0x40 MSTORE SWAP2 SWAP1 POP JUMP JUMPDEST PUSH1 0x0 PUSH1 0x1 PUSH1 0x1 PUSH1 0x40 SHL SUB DUP3 GT ISZERO PUSH3 0x24A JUMPI PUSH3 0x24A PUSH3 0x1BA JUMP JUMPDEST POP PUSH1 0x5 SHL PUSH1 0x20 ADD SWAP1 JUMP JUMPDEST PUSH1 0x0 DUP3 PUSH1 0x1F DUP4 ADD SLT PUSH3 0x266 JUMPI PUSH1 0x0 DUP1 REVERT JUMPDEST DUP2 MLOAD PUSH1 0x20 PUSH3 0x27F PUSH3 0x279 DUP4 PUSH3 0x22E JUMP JUMPDEST PUSH3 0x1FB JUMP JUMPDEST DUP3 DUP2 MSTORE PUSH1 0x5 SWAP3 SWAP1 SWAP3 SHL DUP5 ADD DUP2 ADD SWAP2 DUP2 DUP2 ADD SWAP1 DUP7 DUP5 GT ISZERO PUSH3 0x29F JUMPI PUSH1 0x0 DUP1 REVERT JUMPDEST DUP3 DUP7 ADD JUMPDEST DUP5 DUP2 LT ISZERO PUSH3 0x2BC JUMPI DUP1 MLOAD DUP4 MSTORE SWAP2 DUP4 ADD SWAP2 DUP4 ADD PUSH3 0x2A3 JUMP JUMPDEST POP SWAP7 SWAP6 POP POP POP POP POP POP JUMP JUMPDEST PUSH1 0x0 PUSH1 0x20 DUP1 DUP4 DUP6 SUB SLT ISZERO PUSH3 0x2DB JUMPI PUSH1 0x0 DUP1 REVERT JUMPDEST DUP3 MLOAD PUSH1 0x1 PUSH1 0x1 PUSH1 0x40 SHL SUB DUP1 DUP3 GT ISZERO PUSH3 0x2F3 JUMPI PUSH1 0x0 DUP1 REVERT JUMPDEST SWAP1 DUP5 ADD SWAP1 PUSH1 0x40 DUP3 DUP8 SUB SLT ISZERO PUSH3 0x308 JUMPI PUSH1 0x0 DUP1 REVERT JUMPDEST PUSH3 0x312 PUSH3 0x1D0 JUMP JUMPDEST DUP3 MLOAD DUP3 DUP2 GT ISZERO PUSH3 0x322 JUMPI PUSH1 0x0 DUP1 REVERT JUMPDEST DUP4 ADD PUSH1 0x1F DUP2 ADD DUP9 SGT PUSH3 0x334 JUMPI PUSH1 0x0 DUP1 REVERT JUMPDEST DUP1 MLOAD PUSH3 0x345 PUSH3 0x279 DUP3 PUSH3 0x22E JUMP JUMPDEST DUP2 DUP2 MSTORE PUSH1 0x5 SWAP2 SWAP1 SWAP2 SHL DUP3 ADD DUP7 ADD SWAP1 DUP7 DUP2 ADD SWAP1 DUP11 DUP4 GT ISZERO PUSH3 0x365 JUMPI PUSH1 0x0 DUP1 REVERT JUMPDEST SWAP3 DUP8 ADD SWAP3 JUMPDEST DUP3 DUP5 LT ISZERO PUSH3 0x39C JUMPI DUP4 MLOAD PUSH1 0x1 PUSH1 0x1 PUSH1 0xA0 SHL SUB DUP2 AND DUP2 EQ PUSH3 0x38C JUMPI PUSH1 0x0 DUP1 DUP2 REVERT JUMPDEST DUP3 MSTORE SWAP3 DUP8 ADD SWAP3 SWAP1 DUP8 ADD SWAP1 PUSH3 0x36A JUMP JUMPDEST DUP5 MSTORE POP POP POP DUP3 DUP5 ADD MLOAD DUP3 DUP2 GT ISZERO PUSH3 0x3B3 JUMPI PUSH1 0x0 DUP1 REVERT JUMPDEST PUSH3 0x3C1 DUP9 DUP3 DUP7 ADD PUSH3 0x254 JUMP JUMPDEST SWAP5 DUP3 ADD SWAP5 SWAP1 SWAP5 MSTORE SWAP7 SWAP6 POP POP POP POP POP POP JUMP JUMPDEST PUSH4 0x4E487B71 PUSH1 0xE0 SHL PUSH1 0x0 MSTORE PUSH1 0x32 PUSH1 0x4 MSTORE PUSH1 0x24 PUSH1 0x0 REVERT JUMPDEST PUSH4 0x4E487B71 PUSH1 0xE0 SHL PUSH1 0x0 MSTORE PUSH1 0x11 PUSH1 0x4 MSTORE PUSH1 0x24 PUSH1 0x0 REVERT JUMPDEST PUSH1 0x0 DUP3 NOT DUP3 GT ISZERO PUSH3 0x414 JUMPI PUSH3 0x414 PUSH3 0x3E8 JUMP JUMPDEST POP ADD SWAP1 JUMP JUMPDEST PUSH1 0x0 PUSH1 0x0 NOT DUP3 EQ ISZERO PUSH3 0x430 JUMPI PUSH3 0x430 PUSH3 0x3E8 JUMP JUMPDEST POP PUSH1 0x1 ADD SWAP1 JUMP JUMPDEST PUSH2 0x98C DUP1 PUSH3 0x447 PUSH1 0x0 CODECOPY PUSH1 0x0 RETURN INVALID PUSH1 0x80 PUSH1 0x40 MSTORE CALLVALUE DUP1 ISZERO PUSH2 0x10 JUMPI PUSH1 0x0 DUP1 REVERT JUMPDEST POP PUSH1 0x4 CALLDATASIZE LT PUSH2 0x88 JUMPI PUSH1 0x0 CALLDATALOAD PUSH1 0xE0 SHR DUP1 PUSH4 0x7A27DA79 GT PUSH2 0x5B JUMPI DUP1 PUSH4 0x7A27DA79 EQ PUSH2 0x12B JUMPI DUP1 PUSH4 0x8DA5CB5B EQ PUSH2 0x142 JUMPI DUP1 PUSH4 0xA43A0838 EQ PUSH2 0x153 JUMPI DUP1 PUSH4 0xF2FDE38B EQ PUSH2 0x173 JUMPI PUSH1 0x0 DUP1 REVERT JUMPDEST DUP1 PUSH4 0x150B7A02 EQ PUSH2 0x8D JUMPI DUP1 PUSH4 0x15C4DCB4 EQ PUSH2 0xE3 JUMPI DUP1 PUSH4 0x51CFF8D9 EQ PUSH2 0x10E JUMPI DUP1 PUSH4 0x715018A6 EQ PUSH2 0x123 JUMPI JUMPDEST PUSH1 0x0 DUP1 REVERT JUMPDEST PUSH2 0xC5 PUSH2 0x9B CALLDATASIZE PUSH1 0x4 PUSH2 0x739 JUMP JUMPDEST PUSH32 0x150B7A023D4804D13E8C85FB27262CB750CF6BA9F9DD3BB30D90F482CEEB4B1F SWAP6 SWAP5 POP POP POP POP POP JUMP JUMPDEST PUSH1 0x40 MLOAD PUSH1 0x1 PUSH1 0x1 PUSH1 0xE0 SHL SUB NOT SWAP1 SWAP2 AND DUP2 MSTORE PUSH1 0x20 ADD JUMPDEST PUSH1 0x40 MLOAD DUP1 SWAP2 SUB SWAP1 RETURN JUMPDEST PUSH2 0xF6 PUSH2 0xF1 CALLDATASIZE PUSH1 0x4 PUSH2 0x7D4 JUMP JUMPDEST PUSH2 0x186 JUMP JUMPDEST PUSH1 0x40 MLOAD PUSH1 0x1 PUSH1 0x1 PUSH1 0xA0 SHL SUB SWAP1 SWAP2 AND DUP2 MSTORE PUSH1 0x20 ADD PUSH2 0xDA JUMP JUMPDEST PUSH2 0x121 PUSH2 0x11C CALLDATASIZE PUSH1 0x4 PUSH2 0x7ED JUMP JUMPDEST PUSH2 0x1B0 JUMP JUMPDEST STOP JUMPDEST PUSH2 0x121 PUSH2 0x487 JUMP JUMPDEST PUSH2 0x134 PUSH1 0x4 SLOAD DUP2 JUMP JUMPDEST PUSH1 0x40 MLOAD SWAP1 DUP2 MSTORE PUSH1 0x20 ADD PUSH2 0xDA JUMP JUMPDEST PUSH1 0x0 SLOAD PUSH1 0x1 PUSH1 0x1 PUSH1 0xA0 SHL SUB AND PUSH2 0xF6 JUMP JUMPDEST PUSH2 0x134 PUSH2 0x161 CALLDATASIZE PUSH1 0x4 PUSH2 0x7ED JUMP JUMPDEST PUSH1 0x2 PUSH1 0x20 MSTORE PUSH1 0x0 SWAP1 DUP2 MSTORE PUSH1 0x40 SWAP1 KECCAK256 SLOAD DUP2 JUMP JUMPDEST PUSH2 0x121 PUSH2 0x181 CALLDATASIZE PUSH1 0x4 PUSH2 0x7ED JUMP JUMPDEST PUSH2 0x49B JUMP JUMPDEST PUSH1 0x3 DUP2 DUP2 SLOAD DUP2 LT PUSH2 0x196 JUMPI PUSH1 0x0 DUP1 REVERT JUMPDEST PUSH1 0x0 SWAP2 DUP3 MSTORE PUSH1 0x20 SWAP1 SWAP2 KECCAK256 ADD SLOAD PUSH1 0x1 PUSH1 0x1 PUSH1 0xA0 SHL SUB AND SWAP1 POP DUP2 JUMP JUMPDEST PUSH2 0x1B8 PUSH2 0x511 JUMP JUMPDEST CALLER PUSH1 0x0 SWAP1 DUP2 MSTORE PUSH1 0x2 PUSH1 0x20 SWAP1 DUP2 MSTORE PUSH1 0x40 SWAP2 DUP3 SWAP1 KECCAK256 SLOAD DUP3 MLOAD DUP1 DUP5 ADD SWAP1 SWAP4 MSTORE PUSH1 0x3 DUP4 MSTORE PUSH3 0x313031 PUSH1 0xE8 SHL SWAP2 DUP4 ADD SWAP2 SWAP1 SWAP2 MSTORE PUSH2 0x20C JUMPI PUSH1 0x40 MLOAD PUSH3 0x461BCD PUSH1 0xE5 SHL DUP2 MSTORE PUSH1 0x4 ADD PUSH2 0x203 SWAP2 SWAP1 PUSH2 0x80F JUMP JUMPDEST PUSH1 0x40 MLOAD DUP1 SWAP2 SUB SWAP1 REVERT JUMPDEST POP PUSH1 0x0 DUP1 PUSH2 0x218 PUSH2 0x56B JUMP JUMPDEST SWAP1 POP PUSH1 0x0 PUSH1 0x1 PUSH1 0x1 PUSH1 0xA0 SHL SUB DUP5 AND PUSH2 0x301 JUMPI POP SELFBALANCE PUSH1 0x0 JUMPDEST DUP3 MLOAD DUP2 LT ISZERO PUSH2 0x2FB JUMPI PUSH1 0x3 DUP2 DUP2 SLOAD DUP2 LT PUSH2 0x24B JUMPI PUSH2 0x24B PUSH2 0x864 JUMP JUMPDEST PUSH1 0x0 SWAP2 DUP3 MSTORE PUSH1 0x20 SWAP1 SWAP2 KECCAK256 ADD SLOAD DUP4 MLOAD PUSH1 0x1 PUSH1 0x1 PUSH1 0xA0 SHL SUB SWAP1 SWAP2 AND SWAP1 PUSH2 0x2710 SWAP1 DUP6 SWAP1 DUP5 SWAP1 DUP2 LT PUSH2 0x27B JUMPI PUSH2 0x27B PUSH2 0x864 JUMP JUMPDEST PUSH1 0x20 MUL PUSH1 0x20 ADD ADD MLOAD DUP5 PUSH2 0x28E SWAP2 SWAP1 PUSH2 0x890 JUMP JUMPDEST PUSH2 0x298 SWAP2 SWAP1 PUSH2 0x8AF JUMP JUMPDEST PUSH1 0x40 MLOAD PUSH1 0x0 DUP2 DUP2 DUP2 DUP6 DUP8 GAS CALL SWAP3 POP POP POP RETURNDATASIZE DUP1 PUSH1 0x0 DUP2 EQ PUSH2 0x2D4 JUMPI PUSH1 0x40 MLOAD SWAP2 POP PUSH1 0x1F NOT PUSH1 0x3F RETURNDATASIZE ADD AND DUP3 ADD PUSH1 0x40 MSTORE RETURNDATASIZE DUP3 MSTORE RETURNDATASIZE PUSH1 0x0 PUSH1 0x20 DUP5 ADD RETURNDATACOPY PUSH2 0x2D9 JUMP JUMPDEST PUSH1 0x60 SWAP2 POP JUMPDEST POP POP DUP1 SWAP5 POP POP DUP4 PUSH2 0x2E9 JUMPI PUSH1 0x0 DUP1 REVERT JUMPDEST DUP1 PUSH2 0x2F3 DUP2 PUSH2 0x8D1 JUMP JUMPDEST SWAP2 POP POP PUSH2 0x22F JUMP JUMPDEST POP PUSH2 0x478 JUMP JUMPDEST PUSH1 0x40 MLOAD PUSH4 0x70A08231 PUSH1 0xE0 SHL DUP2 MSTORE ADDRESS PUSH1 0x4 DUP3 ADD MSTORE DUP5 SWAP1 PUSH1 0x1 PUSH1 0x1 PUSH1 0xA0 SHL SUB DUP3 AND SWAP1 PUSH4 0x70A08231 SWAP1 PUSH1 0x24 ADD PUSH1 0x20 PUSH1 0x40 MLOAD DUP1 DUP4 SUB DUP2 DUP7 GAS STATICCALL ISZERO DUP1 ISZERO PUSH2 0x347 JUMPI RETURNDATASIZE PUSH1 0x0 DUP1 RETURNDATACOPY RETURNDATASIZE PUSH1 0x0 REVERT JUMPDEST POP POP POP POP PUSH1 0x40 MLOAD RETURNDATASIZE PUSH1 0x1F NOT PUSH1 0x1F DUP3 ADD AND DUP3 ADD DUP1 PUSH1 0x40 MSTORE POP DUP2 ADD SWAP1 PUSH2 0x36B SWAP2 SWAP1 PUSH2 0x8EC JUMP JUMPDEST SWAP2 POP PUSH1 0x0 JUMPDEST DUP4 MLOAD DUP2 LT ISZERO PUSH2 0x475 JUMPI DUP2 PUSH1 0x1 PUSH1 0x1 PUSH1 0xA0 SHL SUB AND PUSH4 0xA9059CBB PUSH1 0x3 DUP4 DUP2 SLOAD DUP2 LT PUSH2 0x39B JUMPI PUSH2 0x39B PUSH2 0x864 JUMP JUMPDEST SWAP1 PUSH1 0x0 MSTORE PUSH1 0x20 PUSH1 0x0 KECCAK256 ADD PUSH1 0x0 SWAP1 SLOAD SWAP1 PUSH2 0x100 EXP SWAP1 DIV PUSH1 0x1 PUSH1 0x1 PUSH1 0xA0 SHL SUB AND PUSH2 0x2710 DUP8 DUP6 DUP2 MLOAD DUP2 LT PUSH2 0x3CE JUMPI PUSH2 0x3CE PUSH2 0x864 JUMP JUMPDEST PUSH1 0x20 MUL PUSH1 0x20 ADD ADD MLOAD DUP8 PUSH2 0x3E1 SWAP2 SWAP1 PUSH2 0x890 JUMP JUMPDEST PUSH2 0x3EB SWAP2 SWAP1 PUSH2 0x8AF JUMP JUMPDEST PUSH1 0x40 MLOAD PUSH1 0x1 PUSH1 0x1 PUSH1 0xE0 SHL SUB NOT PUSH1 0xE0 DUP6 SWAP1 SHL AND DUP2 MSTORE PUSH1 0x1 PUSH1 0x1 PUSH1 0xA0 SHL SUB SWAP1 SWAP3 AND PUSH1 0x4 DUP4 ADD MSTORE PUSH1 0x24 DUP3 ADD MSTORE PUSH1 0x44 ADD PUSH1 0x20 PUSH1 0x40 MLOAD DUP1 DUP4 SUB DUP2 PUSH1 0x0 DUP8 GAS CALL ISZERO DUP1 ISZERO PUSH2 0x436 JUMPI RETURNDATASIZE PUSH1 0x0 DUP1 RETURNDATACOPY RETURNDATASIZE PUSH1 0x0 REVERT JUMPDEST POP POP POP POP PUSH1 0x40 MLOAD RETURNDATASIZE PUSH1 0x1F NOT PUSH1 0x1F DUP3 ADD AND DUP3 ADD DUP1 PUSH1 0x40 MSTORE POP DUP2 ADD SWAP1 PUSH2 0x45A SWAP2 SWAP1 PUSH2 0x905 JUMP JUMPDEST PUSH2 0x463 JUMPI PUSH1 0x0 DUP1 REVERT JUMPDEST DUP1 PUSH2 0x46D DUP2 PUSH2 0x8D1 JUMP JUMPDEST SWAP2 POP POP PUSH2 0x370 JUMP JUMPDEST POP POP JUMPDEST POP POP POP PUSH2 0x484 PUSH1 0x1 DUP1 SSTORE JUMP JUMPDEST POP JUMP JUMPDEST PUSH2 0x48F PUSH2 0x673 JUMP JUMPDEST PUSH2 0x499 PUSH1 0x0 PUSH2 0x6CD JUMP JUMPDEST JUMP JUMPDEST PUSH2 0x4A3 PUSH2 0x673 JUMP JUMPDEST PUSH1 0x1 PUSH1 0x1 PUSH1 0xA0 SHL SUB DUP2 AND PUSH2 0x508 JUMPI PUSH1 0x40 MLOAD PUSH3 0x461BCD PUSH1 0xE5 SHL DUP2 MSTORE PUSH1 0x20 PUSH1 0x4 DUP3 ADD MSTORE PUSH1 0x26 PUSH1 0x24 DUP3 ADD MSTORE PUSH32 0x4F776E61626C653A206E6577206F776E657220697320746865207A65726F2061 PUSH1 0x44 DUP3 ADD MSTORE PUSH6 0x646472657373 PUSH1 0xD0 SHL PUSH1 0x64 DUP3 ADD MSTORE PUSH1 0x84 ADD PUSH2 0x203 JUMP JUMPDEST PUSH2 0x484 DUP2 PUSH2 0x6CD JUMP JUMPDEST PUSH1 0x2 PUSH1 0x1 SLOAD EQ ISZERO PUSH2 0x564 JUMPI PUSH1 0x40 MLOAD PUSH3 0x461BCD PUSH1 0xE5 SHL DUP2 MSTORE PUSH1 0x20 PUSH1 0x4 DUP3 ADD MSTORE PUSH1 0x1F PUSH1 0x24 DUP3 ADD MSTORE PUSH32 0x5265656E7472616E637947756172643A207265656E7472616E742063616C6C00 PUSH1 0x44 DUP3 ADD MSTORE PUSH1 0x64 ADD PUSH2 0x203 JUMP JUMPDEST PUSH1 0x2 PUSH1 0x1 SSTORE JUMP JUMPDEST PUSH1 0x60 DUP1 PUSH1 0x0 DUP1 JUMPDEST PUSH1 0x3 SLOAD PUSH2 0x581 SWAP1 PUSH1 0x1 SWAP1 PUSH2 0x927 JUMP JUMPDEST DUP2 LT ISZERO PUSH2 0x634 JUMPI PUSH1 0x4 SLOAD PUSH1 0x2 PUSH1 0x0 PUSH1 0x3 DUP5 DUP2 SLOAD DUP2 LT PUSH2 0x5A2 JUMPI PUSH2 0x5A2 PUSH2 0x864 JUMP JUMPDEST PUSH1 0x0 SWAP2 DUP3 MSTORE PUSH1 0x20 DUP1 DUP4 KECCAK256 SWAP1 SWAP2 ADD SLOAD PUSH1 0x1 PUSH1 0x1 PUSH1 0xA0 SHL SUB AND DUP4 MSTORE DUP3 ADD SWAP3 SWAP1 SWAP3 MSTORE PUSH1 0x40 ADD SWAP1 KECCAK256 SLOAD PUSH2 0x5D1 SWAP2 SWAP1 PUSH2 0x8AF JUMP JUMPDEST PUSH2 0x5DD SWAP1 PUSH2 0x2710 PUSH2 0x890 JUMP JUMPDEST DUP4 DUP3 DUP2 MLOAD DUP2 LT PUSH2 0x5EF JUMPI PUSH2 0x5EF PUSH2 0x864 JUMP JUMPDEST PUSH1 0x20 MUL PUSH1 0x20 ADD ADD DUP2 DUP2 MSTORE POP POP DUP3 DUP2 DUP2 MLOAD DUP2 LT PUSH2 0x60D JUMPI PUSH2 0x60D PUSH2 0x864 JUMP JUMPDEST PUSH1 0x20 MUL PUSH1 0x20 ADD ADD MLOAD DUP3 PUSH2 0x620 SWAP2 SWAP1 PUSH2 0x93E JUMP JUMPDEST SWAP2 POP DUP1 PUSH2 0x62C DUP2 PUSH2 0x8D1 JUMP JUMPDEST SWAP2 POP POP PUSH2 0x572 JUMP JUMPDEST POP PUSH2 0x641 DUP2 PUSH2 0x2710 PUSH2 0x927 JUMP JUMPDEST PUSH1 0x3 SLOAD DUP4 SWAP1 PUSH2 0x652 SWAP1 PUSH1 0x1 SWAP1 PUSH2 0x927 JUMP JUMPDEST DUP2 MLOAD DUP2 LT PUSH2 0x662 JUMPI PUSH2 0x662 PUSH2 0x864 JUMP JUMPDEST PUSH1 0x20 SWAP1 DUP2 MUL SWAP2 SWAP1 SWAP2 ADD ADD MSTORE POP SWAP2 SWAP1 POP JUMP JUMPDEST PUSH1 0x0 SLOAD PUSH1 0x1 PUSH1 0x1 PUSH1 0xA0 SHL SUB AND CALLER EQ PUSH2 0x499 JUMPI PUSH1 0x40 MLOAD PUSH3 0x461BCD PUSH1 0xE5 SHL DUP2 MSTORE PUSH1 0x20 PUSH1 0x4 DUP3 ADD DUP2 SWAP1 MSTORE PUSH1 0x24 DUP3 ADD MSTORE PUSH32 0x4F776E61626C653A2063616C6C6572206973206E6F7420746865206F776E6572 PUSH1 0x44 DUP3 ADD MSTORE PUSH1 0x64 ADD PUSH2 0x203 JUMP JUMPDEST PUSH1 0x0 DUP1 SLOAD PUSH1 0x1 PUSH1 0x1 PUSH1 0xA0 SHL SUB DUP4 DUP2 AND PUSH1 0x1 PUSH1 0x1 PUSH1 0xA0 SHL SUB NOT DUP4 AND DUP2 OR DUP5 SSTORE PUSH1 0x40 MLOAD SWAP2 SWAP1 SWAP3 AND SWAP3 DUP4 SWAP2 PUSH32 0x8BE0079C531659141344CD1FD0A4F28419497F9722A3DAAFE3B4186F6B6457E0 SWAP2 SWAP1 LOG3 POP POP JUMP JUMPDEST DUP1 CALLDATALOAD PUSH1 0x1 PUSH1 0x1 PUSH1 0xA0 SHL SUB DUP2 AND DUP2 EQ PUSH2 0x734 JUMPI PUSH1 0x0 DUP1 REVERT JUMPDEST SWAP2 SWAP1 POP JUMP JUMPDEST PUSH1 0x0 DUP1 PUSH1 0x0 DUP1 PUSH1 0x0 PUSH1 0x80 DUP7 DUP9 SUB SLT ISZERO PUSH2 0x751 JUMPI PUSH1 0x0 DUP1 REVERT JUMPDEST PUSH2 0x75A DUP7 PUSH2 0x71D JUMP JUMPDEST SWAP5 POP PUSH2 0x768 PUSH1 0x20 DUP8 ADD PUSH2 0x71D JUMP JUMPDEST SWAP4 POP PUSH1 0x40 DUP7 ADD CALLDATALOAD SWAP3 POP PUSH1 0x60 DUP7 ADD CALLDATALOAD PUSH8 0xFFFFFFFFFFFFFFFF DUP1 DUP3 GT ISZERO PUSH2 0x78C JUMPI PUSH1 0x0 DUP1 REVERT JUMPDEST DUP2 DUP9 ADD SWAP2 POP DUP9 PUSH1 0x1F DUP4 ADD SLT PUSH2 0x7A0 JUMPI PUSH1 0x0 DUP1 REVERT JUMPDEST DUP2 CALLDATALOAD DUP2 DUP2 GT ISZERO PUSH2 0x7AF JUMPI PUSH1 0x0 DUP1 REVERT JUMPDEST DUP10 PUSH1 0x20 DUP3 DUP6 ADD ADD GT ISZERO PUSH2 0x7C1 JUMPI PUSH1 0x0 DUP1 REVERT JUMPDEST SWAP7 SWAP10 SWAP6 SWAP9 POP SWAP4 SWAP7 POP PUSH1 0x20 ADD SWAP5 SWAP4 SWAP3 POP POP POP JUMP JUMPDEST PUSH1 0x0 PUSH1 0x20 DUP3 DUP5 SUB SLT ISZERO PUSH2 0x7E6 JUMPI PUSH1 0x0 DUP1 REVERT JUMPDEST POP CALLDATALOAD SWAP2 SWAP1 POP JUMP JUMPDEST PUSH1 0x0 PUSH1 0x20 DUP3 DUP5 SUB SLT ISZERO PUSH2 0x7FF JUMPI PUSH1 0x0 DUP1 REVERT JUMPDEST PUSH2 0x808 DUP3 PUSH2 0x71D JUMP JUMPDEST SWAP4 SWAP3 POP POP POP JUMP JUMPDEST PUSH1 0x0 PUSH1 0x20 DUP1 DUP4 MSTORE DUP4 MLOAD DUP1 DUP3 DUP6 ADD MSTORE PUSH1 0x0 JUMPDEST DUP2 DUP2 LT ISZERO PUSH2 0x83C JUMPI DUP6 DUP2 ADD DUP4 ADD MLOAD DUP6 DUP3 ADD PUSH1 0x40 ADD MSTORE DUP3 ADD PUSH2 0x820 JUMP JUMPDEST DUP2 DUP2 GT ISZERO PUSH2 0x84E JUMPI PUSH1 0x0 PUSH1 0x40 DUP4 DUP8 ADD ADD MSTORE JUMPDEST POP PUSH1 0x1F ADD PUSH1 0x1F NOT AND SWAP3 SWAP1 SWAP3 ADD PUSH1 0x40 ADD SWAP4 SWAP3 POP POP POP JUMP JUMPDEST PUSH4 0x4E487B71 PUSH1 0xE0 SHL PUSH1 0x0 MSTORE PUSH1 0x32 PUSH1 0x4 MSTORE PUSH1 0x24 PUSH1 0x0 REVERT JUMPDEST PUSH4 0x4E487B71 PUSH1 0xE0 SHL PUSH1 0x0 MSTORE PUSH1 0x11 PUSH1 0x4 MSTORE PUSH1 0x24 PUSH1 0x0 REVERT JUMPDEST PUSH1 0x0 DUP2 PUSH1 0x0 NOT DIV DUP4 GT DUP3 ISZERO ISZERO AND ISZERO PUSH2 0x8AA JUMPI PUSH2 0x8AA PUSH2 0x87A JUMP JUMPDEST POP MUL SWAP1 JUMP JUMPDEST PUSH1 0x0 DUP3 PUSH2 0x8CC JUMPI PUSH4 0x4E487B71 PUSH1 0xE0 SHL PUSH1 0x0 MSTORE PUSH1 0x12 PUSH1 0x4 MSTORE PUSH1 0x24 PUSH1 0x0 REVERT JUMPDEST POP DIV SWAP1 JUMP JUMPDEST PUSH1 0x0 PUSH1 0x0 NOT DUP3 EQ ISZERO PUSH2 0x8E5 JUMPI PUSH2 0x8E5 PUSH2 0x87A JUMP JUMPDEST POP PUSH1 0x1 ADD SWAP1 JUMP JUMPDEST PUSH1 0x0 PUSH1 0x20 DUP3 DUP5 SUB SLT ISZERO PUSH2 0x8FE JUMPI PUSH1 0x0 DUP1 REVERT JUMPDEST POP MLOAD SWAP2 SWAP1 POP JUMP JUMPDEST PUSH1 0x0 PUSH1 0x20 DUP3 DUP5 SUB SLT ISZERO PUSH2 0x917 JUMPI PUSH1 0x0 DUP1 REVERT JUMPDEST DUP2 MLOAD DUP1 ISZERO ISZERO DUP2 EQ PUSH2 0x808 JUMPI PUSH1 0x0 DUP1 REVERT JUMPDEST PUSH1 0x0 DUP3 DUP3 LT ISZERO PUSH2 0x939 JUMPI PUSH2 0x939 PUSH2 0x87A JUMP JUMPDEST POP SUB SWAP1 JUMP JUMPDEST PUSH1 0x0 DUP3 NOT DUP3 GT ISZERO PUSH2 0x951 JUMPI PUSH2 0x951 PUSH2 0x87A JUMP JUMPDEST POP ADD SWAP1 JUMP INVALID LOG2 PUSH5 0x6970667358 0x22 SLT KECCAK256 0xCD 0xB5 GASPRICE MLOAD SIGNEXTEND 0xF6 0xB8 PUSH30 0xEA73487051FB7560687101677ABA4C2C72BB5C6F8431A2D664736F6C6343 STOP ADDMOD 0xC STOP CALLER "},"methodIdentifiers":{"_collaborations(address)":"a43a0838","_collaborators(uint256)":"15c4dcb4","_total()":"7a27da79","onERC721Received(address,address,uint256,bytes)":"150b7a02","owner()":"8da5cb5b","renounceOwnership()":"715018a6","transferOwnership(address)":"f2fde38b","withdraw(address)":"51cff8d9"}},"storageLayout":{"storage":[{"astId":7,"contract":"contracts/services/Collaboration.sol:Collaboration","label":"_owner","offset":0,"slot":"0","type":"t_address"},{"astId":123,"contract":"contracts/services/Collaboration.sol:Collaboration","label":"_status","offset":0,"slot":"1","type":"t_uint256"},{"astId":380,"contract":"contracts/services/Collaboration.sol:Collaboration","label":"_collaborations","offset":0,"slot":"2","type":"t_mapping(t_address,t_uint256)"},{"astId":383,"contract":"contracts/services/Collaboration.sol:Collaboration","label":"_collaborators","offset":0,"slot":"3","type":"t_array(t_address)dyn_storage"},{"astId":385,"contract":"contracts/services/Collaboration.sol:Collaboration","label":"_total","offset":0,"slot":"4","type":"t_uint256"}],"types":{"t_address":{"encoding":"inplace","label":"address","numberOfBytes":"20"},"t_array(t_address)dyn_storage":{"base":"t_address","encoding":"dynamic_array","label":"address[]","numberOfBytes":"32"},"t_mapping(t_address,t_uint256)":{"encoding":"mapping","key":"t_address","label":"mapping(address => uint256)","numberOfBytes":"32","value":"t_uint256"},"t_uint256":{"encoding":"inplace","label":"uint256","numberOfBytes":"32"}}}}}}