{"contracts/erc20/GENToken.sol":{"GENToken":{"abi":[{"anonymous":false,"inputs":[{"indexed":true,"internalType":"address","name":"owner","type":"address"},{"indexed":true,"internalType":"address","name":"spender","type":"address"},{"indexed":false,"internalType":"uint256","name":"value","type":"uint256"}],"name":"Approval","type":"event"},{"anonymous":false,"inputs":[{"indexed":false,"internalType":"address","name":"to","type":"address"},{"indexed":false,"internalType":"uint256","name":"amount","type":"uint256"}],"name":"ClaimToken","type":"event"},{"anonymous":false,"inputs":[{"indexed":true,"internalType":"address","name":"delegator","type":"address"},{"indexed":true,"internalType":"address","name":"fromDelegate","type":"address"},{"indexed":true,"internalType":"address","name":"toDelegate","type":"address"}],"name":"DelegateChanged","type":"event"},{"anonymous":false,"inputs":[{"indexed":true,"internalType":"address","name":"delegate","type":"address"},{"indexed":false,"internalType":"uint256","name":"previousBalance","type":"uint256"},{"indexed":false,"internalType":"uint256","name":"newBalance","type":"uint256"}],"name":"DelegateVotesChanged","type":"event"},{"anonymous":false,"inputs":[{"indexed":false,"internalType":"uint8","name":"version","type":"uint8"}],"name":"Initialized","type":"event"},{"anonymous":false,"inputs":[{"indexed":false,"internalType":"address","name":"genNFT","type":"address"}],"name":"NotSupportProjectIndex","type":"event"},{"anonymous":false,"inputs":[{"indexed":true,"internalType":"address","name":"previousOwner","type":"address"},{"indexed":true,"internalType":"address","name":"newOwner","type":"address"}],"name":"OwnershipTransferred","type":"event"},{"anonymous":false,"inputs":[{"indexed":false,"internalType":"address","name":"account","type":"address"}],"name":"Paused","type":"event"},{"anonymous":false,"inputs":[{"indexed":true,"internalType":"address","name":"from","type":"address"},{"indexed":true,"internalType":"address","name":"to","type":"address"},{"indexed":false,"internalType":"uint256","name":"value","type":"uint256"}],"name":"Transfer","type":"event"},{"anonymous":false,"inputs":[{"indexed":false,"internalType":"address","name":"account","type":"address"}],"name":"Unpaused","type":"event"},{"inputs":[],"name":"DOMAIN_SEPARATOR","outputs":[{"internalType":"bytes32","name":"","type":"bytes32"}],"stateMutability":"view","type":"function"},{"inputs":[],"name":"_admin","outputs":[{"internalType":"address","name":"","type":"address"}],"stateMutability":"view","type":"function"},{"inputs":[{"internalType":"address","name":"","type":"address"},{"internalType":"address","name":"","type":"address"}],"name":"_claimed","outputs":[{"internalType":"uint256","name":"","type":"uint256"}],"stateMutability":"view","type":"function"},{"inputs":[],"name":"_paramAddr","outputs":[{"internalType":"address","name":"","type":"address"}],"stateMutability":"view","type":"function"},{"inputs":[],"name":"_remainClaimSupply","outputs":[{"internalType":"uint256","name":"","type":"uint256"}],"stateMutability":"view","type":"function"},{"inputs":[{"internalType":"address","name":"owner","type":"address"},{"internalType":"address","name":"spender","type":"address"}],"name":"allowance","outputs":[{"internalType":"uint256","name":"","type":"uint256"}],"stateMutability":"view","type":"function"},{"inputs":[{"internalType":"address","name":"spender","type":"address"},{"internalType":"uint256","name":"amount","type":"uint256"}],"name":"approve","outputs":[{"internalType":"bool","name":"","type":"bool"}],"stateMutability":"nonpayable","type":"function"},{"inputs":[{"internalType":"address","name":"account","type":"address"}],"name":"balanceOf","outputs":[{"internalType":"uint256","name":"","type":"uint256"}],"stateMutability":"view","type":"function"},{"inputs":[{"internalType":"uint256","name":"amount","type":"uint256"}],"name":"burn","outputs":[],"stateMutability":"nonpayable","type":"function"},{"inputs":[{"internalType":"address","name":"account","type":"address"},{"internalType":"uint256","name":"amount","type":"uint256"}],"name":"burnFrom","outputs":[],"stateMutability":"nonpayable","type":"function"},{"inputs":[{"internalType":"address","name":"genNFTAddr","type":"address"},{"internalType":"uint256","name":"mintPrice","type":"uint256"}],"name":"calculateAmountClaim","outputs":[{"internalType":"uint256","name":"","type":"uint256"}],"stateMutability":"nonpayable","type":"function"},{"inputs":[{"internalType":"address","name":"newAdm","type":"address"}],"name":"changeAdmin","outputs":[],"stateMutability":"nonpayable","type":"function"},{"inputs":[{"internalType":"address","name":"newAddr","type":"address"}],"name":"changeParamAddress","outputs":[],"stateMutability":"nonpayable","type":"function"},{"inputs":[{"internalType":"address","name":"account","type":"address"},{"internalType":"uint32","name":"pos","type":"uint32"}],"name":"checkpoints","outputs":[{"components":[{"internalType":"uint32","name":"fromBlock","type":"uint32"},{"internalType":"uint224","name":"votes","type":"uint224"}],"internalType":"struct ERC20VotesUpgradeable.Checkpoint","name":"","type":"tuple"}],"stateMutability":"view","type":"function"},{"inputs":[{"internalType":"address","name":"generativeProjectAddr","type":"address"},{"internalType":"uint256","name":"projectId","type":"uint256"}],"name":"claim","outputs":[],"stateMutability":"nonpayable","type":"function"},{"inputs":[],"name":"decimals","outputs":[{"internalType":"uint8","name":"","type":"uint8"}],"stateMutability":"pure","type":"function"},{"inputs":[{"internalType":"address","name":"spender","type":"address"},{"internalType":"uint256","name":"subtractedValue","type":"uint256"}],"name":"decreaseAllowance","outputs":[{"internalType":"bool","name":"","type":"bool"}],"stateMutability":"nonpayable","type":"function"},{"inputs":[{"internalType":"address","name":"delegatee","type":"address"}],"name":"delegate","outputs":[],"stateMutability":"nonpayable","type":"function"},{"inputs":[{"internalType":"address","name":"delegatee","type":"address"},{"internalType":"uint256","name":"nonce","type":"uint256"},{"internalType":"uint256","name":"expiry","type":"uint256"},{"internalType":"uint8","name":"v","type":"uint8"},{"internalType":"bytes32","name":"r","type":"bytes32"},{"internalType":"bytes32","name":"s","type":"bytes32"}],"name":"delegateBySig","outputs":[],"stateMutability":"nonpayable","type":"function"},{"inputs":[{"internalType":"address","name":"account","type":"address"}],"name":"delegates","outputs":[{"internalType":"address","name":"","type":"address"}],"stateMutability":"view","type":"function"},{"inputs":[{"internalType":"address","name":"account","type":"address"}],"name":"getCurrentVotes","outputs":[{"internalType":"uint96","name":"","type":"uint96"}],"stateMutability":"view","type":"function"},{"inputs":[{"internalType":"uint256","name":"blockNumber","type":"uint256"}],"name":"getPastTotalSupply","outputs":[{"internalType":"uint256","name":"","type":"uint256"}],"stateMutability":"view","type":"function"},{"inputs":[{"internalType":"address","name":"account","type":"address"},{"internalType":"uint256","name":"blockNumber","type":"uint256"}],"name":"getPastVotes","outputs":[{"internalType":"uint256","name":"","type":"uint256"}],"stateMutability":"view","type":"function"},{"inputs":[{"internalType":"address","name":"account","type":"address"},{"internalType":"uint256","name":"blockNumber","type":"uint256"}],"name":"getPriorVotes","outputs":[{"internalType":"uint96","name":"","type":"uint96"}],"stateMutability":"view","type":"function"},{"inputs":[{"internalType":"address","name":"account","type":"address"}],"name":"getVotes","outputs":[{"internalType":"uint256","name":"","type":"uint256"}],"stateMutability":"view","type":"function"},{"inputs":[{"internalType":"address","name":"spender","type":"address"},{"internalType":"uint256","name":"addedValue","type":"uint256"}],"name":"increaseAllowance","outputs":[{"internalType":"bool","name":"","type":"bool"}],"stateMutability":"nonpayable","type":"function"},{"inputs":[{"internalType":"string","name":"name","type":"string"},{"internalType":"string","name":"symbol","type":"string"},{"internalType":"address","name":"admin","type":"address"},{"internalType":"address","name":"paramAddr","type":"address"}],"name":"initialize","outputs":[],"stateMutability":"nonpayable","type":"function"},{"inputs":[],"name":"name","outputs":[{"internalType":"string","name":"","type":"string"}],"stateMutability":"view","type":"function"},{"inputs":[{"internalType":"address","name":"owner","type":"address"}],"name":"nonces","outputs":[{"internalType":"uint256","name":"","type":"uint256"}],"stateMutability":"view","type":"function"},{"inputs":[{"internalType":"address","name":"account","type":"address"}],"name":"numCheckpoints","outputs":[{"internalType":"uint32","name":"","type":"uint32"}],"stateMutability":"view","type":"function"},{"inputs":[],"name":"owner","outputs":[{"internalType":"address","name":"","type":"address"}],"stateMutability":"view","type":"function"},{"inputs":[],"name":"paused","outputs":[{"internalType":"bool","name":"","type":"bool"}],"stateMutability":"view","type":"function"},{"inputs":[{"internalType":"address","name":"owner","type":"address"},{"internalType":"address","name":"spender","type":"address"},{"internalType":"uint256","name":"value","type":"uint256"},{"internalType":"uint256","name":"deadline","type":"uint256"},{"internalType":"uint8","name":"v","type":"uint8"},{"internalType":"bytes32","name":"r","type":"bytes32"},{"internalType":"bytes32","name":"s","type":"bytes32"}],"name":"permit","outputs":[],"stateMutability":"nonpayable","type":"function"},{"inputs":[],"name":"renounceOwnership","outputs":[],"stateMutability":"nonpayable","type":"function"},{"inputs":[],"name":"symbol","outputs":[{"internalType":"string","name":"","type":"string"}],"stateMutability":"view","type":"function"},{"inputs":[],"name":"totalSupply","outputs":[{"internalType":"uint256","name":"","type":"uint256"}],"stateMutability":"view","type":"function"},{"inputs":[{"internalType":"address","name":"to","type":"address"},{"internalType":"uint256","name":"amount","type":"uint256"}],"name":"transfer","outputs":[{"internalType":"bool","name":"","type":"bool"}],"stateMutability":"nonpayable","type":"function"},{"inputs":[{"internalType":"address","name":"from","type":"address"},{"internalType":"address","name":"to","type":"address"},{"internalType":"uint256","name":"amount","type":"uint256"}],"name":"transferFrom","outputs":[{"internalType":"bool","name":"","type":"bool"}],"stateMutability":"nonpayable","type":"function"},{"inputs":[{"internalType":"address","name":"newOwner","type":"address"}],"name":"transferOwnership","outputs":[],"stateMutability":"nonpayable","type":"function"}],"evm":{"bytecode":{"linkReferences":{},"object":"608060405234801561001057600080fd5b50613268806100206000396000f3fe608060405234801561001057600080fd5b506004361061023d5760003560e01c806379cc67901161013b578063a9059cbb116100b8578063d505accf1161007c578063d505accf1461053b578063dd62ed3e1461054e578063f1127ed814610561578063f2fde38b1461059e578063f4a290f7146105b157600080fd5b8063a9059cbb146104e5578063aad3ec96146104f8578063b4b5ea571461050b578063c3678f351461051e578063c3cda5201461052857600080fd5b80638f283970116100ff5780638f28397014610478578063945277291461048b57806395d89b41146104b75780639ab24eb0146104bf578063a457c2d7146104d257600080fd5b806379cc67901461041b5780637ecebe001461042e5780638da5cb5b146104415780638e539e8c146104525780638f15b4141461046557600080fd5b806339509351116101c95780635c975abb1161018d5780635c975abb1461038c5780636fcfff451461039757806370a08231146103bf578063715018a6146103e8578063782d6fe1146103f057600080fd5b806339509351146103135780633a46b1a81461032657806342966c6814610339578063587cde1e1461034c5780635c19a95c1461037957600080fd5b806318160ddd1161021057806318160ddd146102c057806323b872dd146102d6578063313ce567146102e957806332974838146102f85780633644e5151461030b57600080fd5b806301bc45c91461024257806306fdde0314610273578063095ea7b31461028857806316a5041f146102ab575b600080fd5b6101f854610256906001600160a01b031681565b6040516001600160a01b0390911681526020015b60405180910390f35b61027b6105c5565b60405161026a919061274b565b61029b610296366004612793565b610657565b604051901515815260200161026a565b6102be6102b93660046127bf565b610671565b005b6102c861070e565b60405190815260200161026a565b61029b6102e43660046127dc565b61071e565b6040516012815260200161026a565b6102c8610306366004612793565b610742565b6102c8610838565b61029b610321366004612793565b610842565b6102c8610334366004612793565b610864565b6102be61034736600461281d565b6108df565b61025661035a3660046127bf565b6001600160a01b03908116600090815261019460205260409020541690565b6102be6103873660046127bf565b6108e9565b60655460ff1661029b565b6103aa6103a53660046127bf565b6108f3565b60405163ffffffff909116815260200161026a565b6102c86103cd3660046127bf565b6001600160a01b031660009081526033602052604090205490565b6102be610916565b6104036103fe366004612793565b61092a565b6040516001600160601b03909116815260200161026a565b6102be610429366004612793565b61093e565b6102c861043c3660046127bf565b610957565b60fb546001600160a01b0316610256565b6102c861046036600461281d565b610976565b6102be610473366004612948565b6109d3565b6102be6104863660046127bf565b610bfd565b6102c86104993660046129d1565b6101fa60209081526000928352604080842090915290825290205481565b61027b610c92565b6102c86104cd3660046127bf565b610ca1565b61029b6104e0366004612793565b610d2a565b61029b6104f3366004612793565b610da5565b6102be610506366004612793565b610db3565b6104036105193660046127bf565b610f79565b6102c86101fb5481565b6102be610536366004612a20565b610f87565b6102be610549366004612a7a565b6110bd565b6102c861055c3660046129d1565b611221565b61057461056f366004612ae8565b61124c565b60408051825163ffffffff1681526020928301516001600160e01b0316928101929092520161026a565b6102be6105ac3660046127bf565b6112d1565b6101f954610256906001600160a01b031681565b6060603680546105d490612b1f565b80601f016020809104026020016040519081016040528092919081815260200182805461060090612b1f565b801561064d5780601f106106225761010080835404028352916020019161064d565b820191906000526020600020905b81548152906001019060200180831161063057829003601f168201915b5050505050905090565b600033610665818585611347565b60019150505b92915050565b6101f8546001600160a01b03163314801561069457506001600160a01b03811615155b6040518060400160405280600381526020016231303160e81b815250906106d75760405162461bcd60e51b81526004016106ce919061274b565b60405180910390fd5b506101f9546001600160a01b0382811691161461070b576101f880546001600160a01b0319166001600160a01b0383161790555b50565b600061071960355490565b905090565b60003361072c85828561146b565b6107378585856114e5565b506001949350505050565b600080839050806001600160a01b031663631847266040518163ffffffff1660e01b8152600401602060405180830381865afa9250505080156107a2575060408051601f3d908101601f1916820190925261079f91810190612b67565b60015b6107e7576040516001600160a01b03851681527fa2d47e5e61369d0bde38a716e62f1ea16d8124813f8ea55b832c218216e91dfc9060200160405180910390a161082e565b3360009081526101fa602090815260408083206001600160a01b038916845290915290205461081b8562ffffff8416612b98565b6108259190612bb7565b9250505061066b565b5060009392505050565b60006107196116a1565b6000336106658185856108558383611221565b61085f9190612bce565b611347565b60004382106108b55760405162461bcd60e51b815260206004820152601f60248201527f4552433230566f7465733a20626c6f636b206e6f7420796574206d696e65640060448201526064016106ce565b6001600160a01b0383166000908152610195602052604090206108d8908361171e565b9392505050565b61070b3382611815565b61070b338261181f565b6001600160a01b0381166000908152610195602052604081205461066b9061189a565b61091e611903565b610928600061195d565b565b60006108d86109398484610864565b6119af565b61094982338361146b565b6109538282611815565b5050565b6001600160a01b0381166000908152610161602052604081205461066b565b60004382106109c75760405162461bcd60e51b815260206004820152601f60248201527f4552433230566f7465733a20626c6f636b206e6f7420796574206d696e65640060448201526064016106ce565b61066b6101968361171e565b600054610100900460ff16158080156109f35750600054600160ff909116105b80610a0d5750303b158015610a0d575060005460ff166001145b610a705760405162461bcd60e51b815260206004820152602e60248201527f496e697469616c697a61626c653a20636f6e747261637420697320616c72656160448201526d191e481a5b9a5d1a585b1a5e995960921b60648201526084016106ce565b6000805460ff191660011790558015610a93576000805461ff0019166101001790555b6001600160a01b03831615801590610ab357506001600160a01b03821615155b6040518060400160405280600381526020016203130360ec1b81525090610aed5760405162461bcd60e51b81526004016106ce919061274b565b506101f880546001600160a01b038086166001600160a01b0319928316179092556101f98054928516929091169190911790556000610b2a601290565b610b3590600a612cca565b610b43906305f5e100612b98565b90506064610b52826046612b98565b610b5c9190612cef565b6101fb5560006064610b6f836014612b98565b610b799190612cef565b6101f854909150610b93906001600160a01b031682611a17565b610b9b611a21565b610ba58787611a50565b610bad611a81565b50508015610bf6576000805461ff0019169055604051600181527f7f26b83ff96e1f2b6a682f133852f6798a09c465da95921460cefb3847402498906020015b60405180910390a15b5050505050565b6101f8546001600160a01b031633148015610c2057506001600160a01b03811615155b6040518060400160405280600381526020016231303160e81b81525090610c5a5760405162461bcd60e51b81526004016106ce919061274b565b506101f8546001600160a01b0382811691161461070b576101f880546001600160a01b0383166001600160a01b031990911617905550565b6060603780546105d490612b1f565b6001600160a01b038116600090815261019560205260408120548015610d17576001600160a01b038316600090815261019560205260409020610ce5600183612bb7565b81548110610cf557610cf5612d11565b60009182526020909120015464010000000090046001600160e01b0316610d1a565b60005b6001600160e01b03169392505050565b60003381610d388286611221565b905083811015610d985760405162461bcd60e51b815260206004820152602560248201527f45524332303a2064656372656173656420616c6c6f77616e63652062656c6f77604482015264207a65726f60d81b60648201526084016106ce565b6107378286868403611347565b6000336106658185856114e5565b610dbb611ab0565b60006101fb54116040518060400160405280600381526020016232303360e81b81525090610dfc5760405162461bcd60e51b81526004016106ce919061274b565b506040516346ec8d2b60e11b81526004810182905282906000906001600160a01b03831690638dd91a5690602401600060405180830381865afa158015610e47573d6000803e3d6000fd5b505050506040513d6000823e601f3d908101601f19168201604052610e6f9190810190612f70565b60c081015160408051808201909152600381526203130360ec1b60208201529192506001600160a01b03163314610eb95760405162461bcd60e51b81526004016106ce919061274b565b506000610ecf826101e001518360400151610742565b90506101fb54811115610ee257506101fb545b3360009081526101fa602090815260408083206101e08601516001600160a01b0316845290915281208054839290610f1b908490612bce565b90915550610f2b90503382611a17565b806101fb6000828254610f3e9190612bb7565b909155505060408051338152602081018390527f5d425a3a6a3d5a60fbf147dc6659ce3dfeb701fc44fe90058c32783b8807c5749101610bed565b600061066b61093983610ca1565b83421115610fd75760405162461bcd60e51b815260206004820152601d60248201527f4552433230566f7465733a207369676e6174757265206578706972656400000060448201526064016106ce565b604080517fe48329057bfd03d55e49b547132e39cffd9c1820ad7b9d4c5307691425d15adf60208201526001600160a01b038816918101919091526060810186905260808101859052600090611051906110499060a00160405160208183030381529060405280519060200120611af6565b858585611b44565b905061105c81611b6c565b86146110aa5760405162461bcd60e51b815260206004820152601960248201527f4552433230566f7465733a20696e76616c6964206e6f6e63650000000000000060448201526064016106ce565b6110b4818861181f565b50505050505050565b8342111561110d5760405162461bcd60e51b815260206004820152601d60248201527f45524332305065726d69743a206578706972656420646561646c696e6500000060448201526064016106ce565b60007f6e71edae12b1b97f4d1f60370fef10105fa2faae0126114a169c64845d6126c988888861113c8c611b6c565b6040805160208101969096526001600160a01b0394851690860152929091166060840152608083015260a082015260c0810186905260e001604051602081830303815290604052805190602001209050600061119782611af6565b905060006111a782878787611b44565b9050896001600160a01b0316816001600160a01b03161461120a5760405162461bcd60e51b815260206004820152601e60248201527f45524332305065726d69743a20696e76616c6964207369676e6174757265000060448201526064016106ce565b6112158a8a8a611347565b50505050505050505050565b6001600160a01b03918216600090815260346020908152604080832093909416825291909152205490565b60408051808201909152600080825260208201526001600160a01b038316600090815261019560205260409020805463ffffffff841690811061129157611291612d11565b60009182526020918290206040805180820190915291015463ffffffff8116825264010000000090046001600160e01b0316918101919091529392505050565b6112d9611903565b6001600160a01b03811661133e5760405162461bcd60e51b815260206004820152602660248201527f4f776e61626c653a206e6577206f776e657220697320746865207a65726f206160448201526564647265737360d01b60648201526084016106ce565b61070b8161195d565b6001600160a01b0383166113a95760405162461bcd60e51b8152602060048201526024808201527f45524332303a20617070726f76652066726f6d20746865207a65726f206164646044820152637265737360e01b60648201526084016106ce565b6001600160a01b03821661140a5760405162461bcd60e51b815260206004820152602260248201527f45524332303a20617070726f766520746f20746865207a65726f206164647265604482015261737360f01b60648201526084016106ce565b6001600160a01b0383811660008181526034602090815260408083209487168084529482529182902085905590518481527f8c5be1e5ebec7d5bd14f71427d1e84f3dd0314c0f7b2291e5b200ac8c7c3b925910160405180910390a3505050565b60006114778484611221565b905060001981146114df57818110156114d25760405162461bcd60e51b815260206004820152601d60248201527f45524332303a20696e73756666696369656e7420616c6c6f77616e636500000060448201526064016106ce565b6114df8484848403611347565b50505050565b6001600160a01b0383166115495760405162461bcd60e51b815260206004820152602560248201527f45524332303a207472616e736665722066726f6d20746865207a65726f206164604482015264647265737360d81b60648201526084016106ce565b6001600160a01b0382166115ab5760405162461bcd60e51b815260206004820152602360248201527f45524332303a207472616e7366657220746f20746865207a65726f206164647260448201526265737360e81b60648201526084016106ce565b6115b6838383611b95565b6001600160a01b0383166000908152603360205260409020548181101561162e5760405162461bcd60e51b815260206004820152602660248201527f45524332303a207472616e7366657220616d6f756e7420657863656564732062604482015265616c616e636560d01b60648201526084016106ce565b6001600160a01b0380851660008181526033602052604080822086860390559286168082529083902080548601905591517fddf252ad1be2c89b69c2b068fc378daa952ba7f163c4a11628f55a4df523b3ef9061168e9086815260200190565b60405180910390a36114df848484611ba5565b60006107197f8b73c3c69bb8fe3d512ecc4cf759cc79239f7b179b0ffacaa9a75d522b39400f6116d161012d5490565b61012e546040805160208101859052908101839052606081018290524660808201523060a082015260009060c0016040516020818303038152906040528051906020012090509392505050565b81546000908181600581111561177857600061173984611bb0565b6117439085612bb7565b600088815260209020909150869082015463ffffffff16111561176857809150611776565b611773816001612bce565b92505b505b808210156117c557600061178c8383611c95565b600088815260209020909150869082015463ffffffff1611156117b1578091506117bf565b6117bc816001612bce565b92505b50611778565b80156117ff576117e8866117da600184612bb7565b600091825260209091200190565b5464010000000090046001600160e01b0316611802565b60005b6001600160e01b03169695505050505050565b6109538282611cb0565b6001600160a01b0382811660008181526101946020818152604080842080546033845282862054949093528787166001600160a01b03198416811790915590519190951694919391928592917f3134e8a2e6d97e929a7e54011ea5485d7d196dd5f0ba4d4ef95803e8e3fc257f9190a46114df828483611cc9565b600063ffffffff8211156118ff5760405162461bcd60e51b815260206004820152602660248201527f53616665436173743a2076616c756520646f65736e27742066697420696e203360448201526532206269747360d01b60648201526084016106ce565b5090565b60fb546001600160a01b031633146109285760405162461bcd60e51b815260206004820181905260248201527f4f776e61626c653a2063616c6c6572206973206e6f7420746865206f776e657260448201526064016106ce565b60fb80546001600160a01b038381166001600160a01b0319831681179093556040519116919082907f8be0079c531659141344cd1fd0a4f28419497f9722a3daafe3b4186f6b6457e090600090a35050565b60006001600160601b038211156118ff5760405162461bcd60e51b815260206004820152602660248201527f53616665436173743a2076616c756520646f65736e27742066697420696e203960448201526536206269747360d01b60648201526084016106ce565b6109538282611e08565b600054610100900460ff16611a485760405162461bcd60e51b81526004016106ce906131d1565b610928611e98565b600054610100900460ff16611a775760405162461bcd60e51b81526004016106ce906131d1565b6109538282611ecb565b600054610100900460ff16611aa85760405162461bcd60e51b81526004016106ce906131d1565b610928611f19565b60655460ff16156109285760405162461bcd60e51b815260206004820152601060248201526f14185d5cd8589b194e881c185d5cd95960821b60448201526064016106ce565b600061066b611b036116a1565b8360405161190160f01b6020820152602281018390526042810182905260009060620160405160208183030381529060405280519060200120905092915050565b6000806000611b5587878787611f49565b91509150611b628161200d565b5095945050505050565b6001600160a01b0381166000908152610161602052604090208054600181018255905b50919050565b611ba083838361215b565b505050565b611ba08383836121c1565b600081611bbf57506000919050565b60006001611bcc846121f4565b901c6001901b90506001818481611be557611be5612cd9565b048201901c90506001818481611bfd57611bfd612cd9565b048201901c90506001818481611c1557611c15612cd9565b048201901c90506001818481611c2d57611c2d612cd9565b048201901c90506001818481611c4557611c45612cd9565b048201901c90506001818481611c5d57611c5d612cd9565b048201901c90506001818481611c7557611c75612cd9565b048201901c90506108d881828581611c8f57611c8f612cd9565b04612288565b6000611ca46002848418612cef565b6108d890848416612bce565b611cba828261229e565b6114df6101966123e5836123f1565b816001600160a01b0316836001600160a01b031614158015611ceb5750600081115b15611ba0576001600160a01b03831615611d7a576001600160a01b0383166000908152610195602052604081208190611d27906123e5856123f1565b91509150846001600160a01b03167fdec2bacdd2f05b59de34da9b523dff8be42e5e38e818c82fdb0bae774387a7248383604051611d6f929190918252602082015260400190565b60405180910390a250505b6001600160a01b03821615611ba0576001600160a01b0382166000908152610195602052604081208190611db190612545856123f1565b91509150836001600160a01b03167fdec2bacdd2f05b59de34da9b523dff8be42e5e38e818c82fdb0bae774387a7248383604051611df9929190918252602082015260400190565b60405180910390a25050505050565b611e128282612551565b6001600160601b03611e2261070e565b1115611e895760405162461bcd60e51b815260206004820152603060248201527f4552433230566f7465733a20746f74616c20737570706c79207269736b73206f60448201526f766572666c6f77696e6720766f74657360801b60648201526084016106ce565b6114df610196612545836123f1565b600054610100900460ff16611ebf5760405162461bcd60e51b81526004016106ce906131d1565b6065805460ff19169055565b600054610100900460ff16611ef25760405162461bcd60e51b81526004016106ce906131d1565b8151611f0590603690602085019061268f565b508051611ba090603790602084019061268f565b600054610100900460ff16611f405760405162461bcd60e51b81526004016106ce906131d1565b6109283361195d565b6000807f7fffffffffffffffffffffffffffffff5d576e7357a4501ddfe92f46681b20a0831115611f805750600090506003612004565b6040805160008082526020820180845289905260ff881692820192909252606081018690526080810185905260019060a0016020604051602081039080840390855afa158015611fd4573d6000803e3d6000fd5b5050604051601f1901519150506001600160a01b038116611ffd57600060019250925050612004565b9150600090505b94509492505050565b60008160048111156120215761202161321c565b141561202a5750565b600181600481111561203e5761203e61321c565b141561208c5760405162461bcd60e51b815260206004820152601860248201527f45434453413a20696e76616c6964207369676e6174757265000000000000000060448201526064016106ce565b60028160048111156120a0576120a061321c565b14156120ee5760405162461bcd60e51b815260206004820152601f60248201527f45434453413a20696e76616c6964207369676e6174757265206c656e6774680060448201526064016106ce565b60038160048111156121025761210261321c565b141561070b5760405162461bcd60e51b815260206004820152602260248201527f45434453413a20696e76616c6964207369676e6174757265202773272076616c604482015261756560f01b60648201526084016106ce565b60655460ff1615611ba05760405162461bcd60e51b815260206004820152602a60248201527f45524332305061757361626c653a20746f6b656e207472616e736665722077686044820152691a5b19481c185d5cd95960b21b60648201526084016106ce565b6001600160a01b0383811660009081526101946020526040808220548584168352912054611ba092918216911683611cc9565b600080608083901c1561220957608092831c92015b604083901c1561221b57604092831c92015b602083901c1561222d57602092831c92015b601083901c1561223f57601092831c92015b600883901c1561225157600892831c92015b600483901c1561226357600492831c92015b600283901c1561227557600292831c92015b600183901c1561066b5760010192915050565b600081831061229757816108d8565b5090919050565b6001600160a01b0382166122fe5760405162461bcd60e51b815260206004820152602160248201527f45524332303a206275726e2066726f6d20746865207a65726f206164647265736044820152607360f81b60648201526084016106ce565b61230a82600083611b95565b6001600160a01b0382166000908152603360205260409020548181101561237e5760405162461bcd60e51b815260206004820152602260248201527f45524332303a206275726e20616d6f756e7420657863656564732062616c616e604482015261636560f01b60648201526084016106ce565b6001600160a01b03831660008181526033602090815260408083208686039055603580548790039055518581529192917fddf252ad1be2c89b69c2b068fc378daa952ba7f163c4a11628f55a4df523b3ef910160405180910390a3611ba083600084611ba5565b60006108d88284612bb7565b8254600090819081811561243e5761240e876117da600185612bb7565b60408051808201909152905463ffffffff8116825264010000000090046001600160e01b03166020820152612453565b60408051808201909152600080825260208201525b905080602001516001600160e01b0316935061247384868863ffffffff16565b925060008211801561248b5750805163ffffffff1643145b156124d05761249983612626565b6124a8886117da600186612bb7565b80546001600160e01b03929092166401000000000263ffffffff90921691909117905561253b565b8660405180604001604052806124e54361189a565b63ffffffff1681526020016124f986612626565b6001600160e01b0390811690915282546001810184556000938452602093849020835194909301519091166401000000000263ffffffff909316929092179101555b5050935093915050565b60006108d88284612bce565b6001600160a01b0382166125a75760405162461bcd60e51b815260206004820152601f60248201527f45524332303a206d696e7420746f20746865207a65726f20616464726573730060448201526064016106ce565b6125b360008383611b95565b80603560008282546125c59190612bce565b90915550506001600160a01b0382166000818152603360209081526040808320805486019055518481527fddf252ad1be2c89b69c2b068fc378daa952ba7f163c4a11628f55a4df523b3ef910160405180910390a361095360008383611ba5565b60006001600160e01b038211156118ff5760405162461bcd60e51b815260206004820152602760248201527f53616665436173743a2076616c756520646f65736e27742066697420696e20326044820152663234206269747360c81b60648201526084016106ce565b82805461269b90612b1f565b90600052602060002090601f0160209004810192826126bd5760008555612703565b82601f106126d657805160ff1916838001178555612703565b82800160010185558215612703579182015b828111156127035782518255916020019190600101906126e8565b506118ff9291505b808211156118ff576000815560010161270b565b60005b8381101561273a578181015183820152602001612722565b838111156114df5750506000910152565b602081526000825180602084015261276a81604085016020870161271f565b601f01601f19169190910160400192915050565b6001600160a01b038116811461070b57600080fd5b600080604083850312156127a657600080fd5b82356127b18161277e565b946020939093013593505050565b6000602082840312156127d157600080fd5b81356108d88161277e565b6000806000606084860312156127f157600080fd5b83356127fc8161277e565b9250602084013561280c8161277e565b929592945050506040919091013590565b60006020828403121561282f57600080fd5b5035919050565b634e487b7160e01b600052604160045260246000fd5b60405160a0810167ffffffffffffffff8111828210171561286f5761286f612836565b60405290565b604051610260810167ffffffffffffffff8111828210171561286f5761286f612836565b604051601f8201601f1916810167ffffffffffffffff811182821017156128c2576128c2612836565b604052919050565b600067ffffffffffffffff8211156128e4576128e4612836565b50601f01601f191660200190565b600082601f83011261290357600080fd5b8135612916612911826128ca565b612899565b81815284602083860101111561292b57600080fd5b816020850160208301376000918101602001919091529392505050565b6000806000806080858703121561295e57600080fd5b843567ffffffffffffffff8082111561297657600080fd5b612982888389016128f2565b9550602087013591508082111561299857600080fd5b506129a5878288016128f2565b93505060408501356129b68161277e565b915060608501356129c68161277e565b939692955090935050565b600080604083850312156129e457600080fd5b82356129ef8161277e565b915060208301356129ff8161277e565b809150509250929050565b803560ff81168114612a1b57600080fd5b919050565b60008060008060008060c08789031215612a3957600080fd5b8635612a448161277e565b95506020870135945060408701359350612a6060608801612a0a565b92506080870135915060a087013590509295509295509295565b600080600080600080600060e0888a031215612a9557600080fd5b8735612aa08161277e565b96506020880135612ab08161277e565b95506040880135945060608801359350612acc60808901612a0a565b925060a0880135915060c0880135905092959891949750929550565b60008060408385031215612afb57600080fd5b8235612b068161277e565b9150602083013563ffffffff811681146129ff57600080fd5b600181811c90821680612b3357607f821691505b60208210811415611b8f57634e487b7160e01b600052602260045260246000fd5b805162ffffff81168114612a1b57600080fd5b600060208284031215612b7957600080fd5b6108d882612b54565b634e487b7160e01b600052601160045260246000fd5b6000816000190483118215151615612bb257612bb2612b82565b500290565b600082821015612bc957612bc9612b82565b500390565b60008219821115612be157612be1612b82565b500190565b600181815b80851115612c21578160001904821115612c0757612c07612b82565b80851615612c1457918102915b93841c9390800290612beb565b509250929050565b600082612c385750600161066b565b81612c455750600061066b565b8160018114612c5b5760028114612c6557612c81565b600191505061066b565b60ff841115612c7657612c76612b82565b50506001821b61066b565b5060208310610133831016604e8410600b8410161715612ca4575081810a61066b565b612cae8383612be6565b8060001904821115612cc257612cc2612b82565b029392505050565b60006108d860ff841683612c29565b634e487b7160e01b600052601260045260246000fd5b600082612d0c57634e487b7160e01b600052601260045260246000fd5b500490565b634e487b7160e01b600052603260045260246000fd5b8051612a1b8161277e565b600082601f830112612d4357600080fd5b8151612d51612911826128ca565b818152846020838601011115612d6657600080fd5b612d7782602083016020870161271f565b949350505050565b600060a08284031215612d9157600080fd5b612d9961284c565b9050815167ffffffffffffffff80821115612db357600080fd5b612dbf85838601612d32565b83526020840151915080821115612dd557600080fd5b612de185838601612d32565b60208401526040840151915080821115612dfa57600080fd5b612e0685838601612d32565b60408401526060840151915080821115612e1f57600080fd5b612e2b85838601612d32565b60608401526080840151915080821115612e4457600080fd5b50612e5184828501612d32565b60808301525092915050565b600067ffffffffffffffff821115612e7757612e77612836565b5060051b60200190565b600082601f830112612e9257600080fd5b81516020612ea261291183612e5d565b82815260059290921b84018101918181019086841115612ec157600080fd5b8286015b84811015612f0157805167ffffffffffffffff811115612ee55760008081fd5b612ef38986838b0101612d32565b845250918301918301612ec5565b509695505050505050565b600082601f830112612f1d57600080fd5b81516020612f2d61291183612e5d565b82815260059290921b84018101918181019086841115612f4c57600080fd5b8286015b84811015612f01578051612f638161277e565b8352918301918301612f50565b600060208284031215612f8257600080fd5b815167ffffffffffffffff80821115612f9a57600080fd5b908301906102608286031215612faf57600080fd5b612fb7612875565b612fc083612b54565b8152612fce60208401612b54565b602082015260408301516040820152612fe960608401612d27565b606082015260808301518281111561300057600080fd5b61300c87828601612d32565b60808301525060a08301518281111561302457600080fd5b61303087828601612d32565b60a08301525061304260c08401612d27565b60c082015260e08301518281111561305957600080fd5b61306587828601612d32565b60e083015250610100808401518381111561307f57600080fd5b61308b88828701612d32565b82840152505061012080840151838111156130a557600080fd5b6130b188828701612d32565b82840152505061014080840151838111156130cb57600080fd5b6130d788828701612d7f565b82840152505061016080840151838111156130f157600080fd5b6130fd88828701612e81565b828401525050610180808401518381111561311757600080fd5b61312388828701612e81565b8284015250506101a0808401518381111561313d57600080fd5b61314988828701612d32565b8284015250506101c08084015181830152506101e0613169818501612d27565b90820152610200838101518381111561318157600080fd5b61318d88828701612d32565b82840152505061022080840151838111156131a757600080fd5b6131b388828701612f0c565b91830191909152506102409283015192810192909252509392505050565b6020808252602b908201527f496e697469616c697a61626c653a20636f6e7472616374206973206e6f74206960408201526a6e697469616c697a696e6760a81b606082015260800190565b634e487b7160e01b600052602160045260246000fdfea2646970667358221220762485e01e1eaa4d010e2a4e94b49f10301c765602e81042b3a49b58da4b8bdc64736f6c634300080c0033","opcodes":"PUSH1 0x80 PUSH1 0x40 MSTORE CALLVALUE DUP1 ISZERO PUSH2 0x10 JUMPI PUSH1 0x0 DUP1 REVERT JUMPDEST POP PUSH2 0x3268 DUP1 PUSH2 0x20 PUSH1 0x0 CODECOPY PUSH1 0x0 RETURN INVALID PUSH1 0x80 PUSH1 0x40 MSTORE CALLVALUE DUP1 ISZERO PUSH2 0x10 JUMPI PUSH1 0x0 DUP1 REVERT JUMPDEST POP PUSH1 0x4 CALLDATASIZE LT PUSH2 0x23D JUMPI PUSH1 0x0 CALLDATALOAD PUSH1 0xE0 SHR DUP1 PUSH4 0x79CC6790 GT PUSH2 0x13B JUMPI DUP1 PUSH4 0xA9059CBB GT PUSH2 0xB8 JUMPI DUP1 PUSH4 0xD505ACCF GT PUSH2 0x7C JUMPI DUP1 PUSH4 0xD505ACCF EQ PUSH2 0x53B JUMPI DUP1 PUSH4 0xDD62ED3E EQ PUSH2 0x54E JUMPI DUP1 PUSH4 0xF1127ED8 EQ PUSH2 0x561 JUMPI DUP1 PUSH4 0xF2FDE38B EQ PUSH2 0x59E JUMPI DUP1 PUSH4 0xF4A290F7 EQ PUSH2 0x5B1 JUMPI PUSH1 0x0 DUP1 REVERT JUMPDEST DUP1 PUSH4 0xA9059CBB EQ PUSH2 0x4E5 JUMPI DUP1 PUSH4 0xAAD3EC96 EQ PUSH2 0x4F8 JUMPI DUP1 PUSH4 0xB4B5EA57 EQ PUSH2 0x50B JUMPI DUP1 PUSH4 0xC3678F35 EQ PUSH2 0x51E JUMPI DUP1 PUSH4 0xC3CDA520 EQ PUSH2 0x528 JUMPI PUSH1 0x0 DUP1 REVERT JUMPDEST DUP1 PUSH4 0x8F283970 GT PUSH2 0xFF JUMPI DUP1 PUSH4 0x8F283970 EQ PUSH2 0x478 JUMPI DUP1 PUSH4 0x94527729 EQ PUSH2 0x48B JUMPI DUP1 PUSH4 0x95D89B41 EQ PUSH2 0x4B7 JUMPI DUP1 PUSH4 0x9AB24EB0 EQ PUSH2 0x4BF JUMPI DUP1 PUSH4 0xA457C2D7 EQ PUSH2 0x4D2 JUMPI PUSH1 0x0 DUP1 REVERT JUMPDEST DUP1 PUSH4 0x79CC6790 EQ PUSH2 0x41B JUMPI DUP1 PUSH4 0x7ECEBE00 EQ PUSH2 0x42E JUMPI DUP1 PUSH4 0x8DA5CB5B EQ PUSH2 0x441 JUMPI DUP1 PUSH4 0x8E539E8C EQ PUSH2 0x452 JUMPI DUP1 PUSH4 0x8F15B414 EQ PUSH2 0x465 JUMPI PUSH1 0x0 DUP1 REVERT JUMPDEST DUP1 PUSH4 0x39509351 GT PUSH2 0x1C9 JUMPI DUP1 PUSH4 0x5C975ABB GT PUSH2 0x18D JUMPI DUP1 PUSH4 0x5C975ABB EQ PUSH2 0x38C JUMPI DUP1 PUSH4 0x6FCFFF45 EQ PUSH2 0x397 JUMPI DUP1 PUSH4 0x70A08231 EQ PUSH2 0x3BF JUMPI DUP1 PUSH4 0x715018A6 EQ PUSH2 0x3E8 JUMPI DUP1 PUSH4 0x782D6FE1 EQ PUSH2 0x3F0 JUMPI PUSH1 0x0 DUP1 REVERT JUMPDEST DUP1 PUSH4 0x39509351 EQ PUSH2 0x313 JUMPI DUP1 PUSH4 0x3A46B1A8 EQ PUSH2 0x326 JUMPI DUP1 PUSH4 0x42966C68 EQ PUSH2 0x339 JUMPI DUP1 PUSH4 0x587CDE1E EQ PUSH2 0x34C JUMPI DUP1 PUSH4 0x5C19A95C EQ PUSH2 0x379 JUMPI PUSH1 0x0 DUP1 REVERT JUMPDEST DUP1 PUSH4 0x18160DDD GT PUSH2 0x210 JUMPI DUP1 PUSH4 0x18160DDD EQ PUSH2 0x2C0 JUMPI DUP1 PUSH4 0x23B872DD EQ PUSH2 0x2D6 JUMPI DUP1 PUSH4 0x313CE567 EQ PUSH2 0x2E9 JUMPI DUP1 PUSH4 0x32974838 EQ PUSH2 0x2F8 JUMPI DUP1 PUSH4 0x3644E515 EQ PUSH2 0x30B JUMPI PUSH1 0x0 DUP1 REVERT JUMPDEST DUP1 PUSH4 0x1BC45C9 EQ PUSH2 0x242 JUMPI DUP1 PUSH4 0x6FDDE03 EQ PUSH2 0x273 JUMPI DUP1 PUSH4 0x95EA7B3 EQ PUSH2 0x288 JUMPI DUP1 PUSH4 0x16A5041F EQ PUSH2 0x2AB JUMPI JUMPDEST PUSH1 0x0 DUP1 REVERT JUMPDEST PUSH2 0x1F8 SLOAD PUSH2 0x256 SWAP1 PUSH1 0x1 PUSH1 0x1 PUSH1 0xA0 SHL SUB AND DUP2 JUMP JUMPDEST PUSH1 0x40 MLOAD PUSH1 0x1 PUSH1 0x1 PUSH1 0xA0 SHL SUB SWAP1 SWAP2 AND DUP2 MSTORE PUSH1 0x20 ADD JUMPDEST PUSH1 0x40 MLOAD DUP1 SWAP2 SUB SWAP1 RETURN JUMPDEST PUSH2 0x27B PUSH2 0x5C5 JUMP JUMPDEST PUSH1 0x40 MLOAD PUSH2 0x26A SWAP2 SWAP1 PUSH2 0x274B JUMP JUMPDEST PUSH2 0x29B PUSH2 0x296 CALLDATASIZE PUSH1 0x4 PUSH2 0x2793 JUMP JUMPDEST PUSH2 0x657 JUMP JUMPDEST PUSH1 0x40 MLOAD SWAP1 ISZERO ISZERO DUP2 MSTORE PUSH1 0x20 ADD PUSH2 0x26A JUMP JUMPDEST PUSH2 0x2BE PUSH2 0x2B9 CALLDATASIZE PUSH1 0x4 PUSH2 0x27BF JUMP JUMPDEST PUSH2 0x671 JUMP JUMPDEST STOP JUMPDEST PUSH2 0x2C8 PUSH2 0x70E JUMP JUMPDEST PUSH1 0x40 MLOAD SWAP1 DUP2 MSTORE PUSH1 0x20 ADD PUSH2 0x26A JUMP JUMPDEST PUSH2 0x29B PUSH2 0x2E4 CALLDATASIZE PUSH1 0x4 PUSH2 0x27DC JUMP JUMPDEST PUSH2 0x71E JUMP JUMPDEST PUSH1 0x40 MLOAD PUSH1 0x12 DUP2 MSTORE PUSH1 0x20 ADD PUSH2 0x26A JUMP JUMPDEST PUSH2 0x2C8 PUSH2 0x306 CALLDATASIZE PUSH1 0x4 PUSH2 0x2793 JUMP JUMPDEST PUSH2 0x742 JUMP JUMPDEST PUSH2 0x2C8 PUSH2 0x838 JUMP JUMPDEST PUSH2 0x29B PUSH2 0x321 CALLDATASIZE PUSH1 0x4 PUSH2 0x2793 JUMP JUMPDEST PUSH2 0x842 JUMP JUMPDEST PUSH2 0x2C8 PUSH2 0x334 CALLDATASIZE PUSH1 0x4 PUSH2 0x2793 JUMP JUMPDEST PUSH2 0x864 JUMP JUMPDEST PUSH2 0x2BE PUSH2 0x347 CALLDATASIZE PUSH1 0x4 PUSH2 0x281D JUMP JUMPDEST PUSH2 0x8DF JUMP JUMPDEST PUSH2 0x256 PUSH2 0x35A CALLDATASIZE PUSH1 0x4 PUSH2 0x27BF JUMP JUMPDEST PUSH1 0x1 PUSH1 0x1 PUSH1 0xA0 SHL SUB SWAP1 DUP2 AND PUSH1 0x0 SWAP1 DUP2 MSTORE PUSH2 0x194 PUSH1 0x20 MSTORE PUSH1 0x40 SWAP1 KECCAK256 SLOAD AND SWAP1 JUMP JUMPDEST PUSH2 0x2BE PUSH2 0x387 CALLDATASIZE PUSH1 0x4 PUSH2 0x27BF JUMP JUMPDEST PUSH2 0x8E9 JUMP JUMPDEST PUSH1 0x65 SLOAD PUSH1 0xFF AND PUSH2 0x29B JUMP JUMPDEST PUSH2 0x3AA PUSH2 0x3A5 CALLDATASIZE PUSH1 0x4 PUSH2 0x27BF JUMP JUMPDEST PUSH2 0x8F3 JUMP JUMPDEST PUSH1 0x40 MLOAD PUSH4 0xFFFFFFFF SWAP1 SWAP2 AND DUP2 MSTORE PUSH1 0x20 ADD PUSH2 0x26A JUMP JUMPDEST PUSH2 0x2C8 PUSH2 0x3CD CALLDATASIZE PUSH1 0x4 PUSH2 0x27BF JUMP JUMPDEST PUSH1 0x1 PUSH1 0x1 PUSH1 0xA0 SHL SUB AND PUSH1 0x0 SWAP1 DUP2 MSTORE PUSH1 0x33 PUSH1 0x20 MSTORE PUSH1 0x40 SWAP1 KECCAK256 SLOAD SWAP1 JUMP JUMPDEST PUSH2 0x2BE PUSH2 0x916 JUMP JUMPDEST PUSH2 0x403 PUSH2 0x3FE CALLDATASIZE PUSH1 0x4 PUSH2 0x2793 JUMP JUMPDEST PUSH2 0x92A JUMP JUMPDEST PUSH1 0x40 MLOAD PUSH1 0x1 PUSH1 0x1 PUSH1 0x60 SHL SUB SWAP1 SWAP2 AND DUP2 MSTORE PUSH1 0x20 ADD PUSH2 0x26A JUMP JUMPDEST PUSH2 0x2BE PUSH2 0x429 CALLDATASIZE PUSH1 0x4 PUSH2 0x2793 JUMP JUMPDEST PUSH2 0x93E JUMP JUMPDEST PUSH2 0x2C8 PUSH2 0x43C CALLDATASIZE PUSH1 0x4 PUSH2 0x27BF JUMP JUMPDEST PUSH2 0x957 JUMP JUMPDEST PUSH1 0xFB SLOAD PUSH1 0x1 PUSH1 0x1 PUSH1 0xA0 SHL SUB AND PUSH2 0x256 JUMP JUMPDEST PUSH2 0x2C8 PUSH2 0x460 CALLDATASIZE PUSH1 0x4 PUSH2 0x281D JUMP JUMPDEST PUSH2 0x976 JUMP JUMPDEST PUSH2 0x2BE PUSH2 0x473 CALLDATASIZE PUSH1 0x4 PUSH2 0x2948 JUMP JUMPDEST PUSH2 0x9D3 JUMP JUMPDEST PUSH2 0x2BE PUSH2 0x486 CALLDATASIZE PUSH1 0x4 PUSH2 0x27BF JUMP JUMPDEST PUSH2 0xBFD JUMP JUMPDEST PUSH2 0x2C8 PUSH2 0x499 CALLDATASIZE PUSH1 0x4 PUSH2 0x29D1 JUMP JUMPDEST PUSH2 0x1FA PUSH1 0x20 SWAP1 DUP2 MSTORE PUSH1 0x0 SWAP3 DUP4 MSTORE PUSH1 0x40 DUP1 DUP5 KECCAK256 SWAP1 SWAP2 MSTORE SWAP1 DUP3 MSTORE SWAP1 KECCAK256 SLOAD DUP2 JUMP JUMPDEST PUSH2 0x27B PUSH2 0xC92 JUMP JUMPDEST PUSH2 0x2C8 PUSH2 0x4CD CALLDATASIZE PUSH1 0x4 PUSH2 0x27BF JUMP JUMPDEST PUSH2 0xCA1 JUMP JUMPDEST PUSH2 0x29B PUSH2 0x4E0 CALLDATASIZE PUSH1 0x4 PUSH2 0x2793 JUMP JUMPDEST PUSH2 0xD2A JUMP JUMPDEST PUSH2 0x29B PUSH2 0x4F3 CALLDATASIZE PUSH1 0x4 PUSH2 0x2793 JUMP JUMPDEST PUSH2 0xDA5 JUMP JUMPDEST PUSH2 0x2BE PUSH2 0x506 CALLDATASIZE PUSH1 0x4 PUSH2 0x2793 JUMP JUMPDEST PUSH2 0xDB3 JUMP JUMPDEST PUSH2 0x403 PUSH2 0x519 CALLDATASIZE PUSH1 0x4 PUSH2 0x27BF JUMP JUMPDEST PUSH2 0xF79 JUMP JUMPDEST PUSH2 0x2C8 PUSH2 0x1FB SLOAD DUP2 JUMP JUMPDEST PUSH2 0x2BE PUSH2 0x536 CALLDATASIZE PUSH1 0x4 PUSH2 0x2A20 JUMP JUMPDEST PUSH2 0xF87 JUMP JUMPDEST PUSH2 0x2BE PUSH2 0x549 CALLDATASIZE PUSH1 0x4 PUSH2 0x2A7A JUMP JUMPDEST PUSH2 0x10BD JUMP JUMPDEST PUSH2 0x2C8 PUSH2 0x55C CALLDATASIZE PUSH1 0x4 PUSH2 0x29D1 JUMP JUMPDEST PUSH2 0x1221 JUMP JUMPDEST PUSH2 0x574 PUSH2 0x56F CALLDATASIZE PUSH1 0x4 PUSH2 0x2AE8 JUMP JUMPDEST PUSH2 0x124C JUMP JUMPDEST PUSH1 0x40 DUP1 MLOAD DUP3 MLOAD PUSH4 0xFFFFFFFF AND DUP2 MSTORE PUSH1 0x20 SWAP3 DUP4 ADD MLOAD PUSH1 0x1 PUSH1 0x1 PUSH1 0xE0 SHL SUB AND SWAP3 DUP2 ADD SWAP3 SWAP1 SWAP3 MSTORE ADD PUSH2 0x26A JUMP JUMPDEST PUSH2 0x2BE PUSH2 0x5AC CALLDATASIZE PUSH1 0x4 PUSH2 0x27BF JUMP JUMPDEST PUSH2 0x12D1 JUMP JUMPDEST PUSH2 0x1F9 SLOAD PUSH2 0x256 SWAP1 PUSH1 0x1 PUSH1 0x1 PUSH1 0xA0 SHL SUB AND DUP2 JUMP JUMPDEST PUSH1 0x60 PUSH1 0x36 DUP1 SLOAD PUSH2 0x5D4 SWAP1 PUSH2 0x2B1F JUMP JUMPDEST DUP1 PUSH1 0x1F ADD PUSH1 0x20 DUP1 SWAP2 DIV MUL PUSH1 0x20 ADD PUSH1 0x40 MLOAD SWAP1 DUP2 ADD PUSH1 0x40 MSTORE DUP1 SWAP3 SWAP2 SWAP1 DUP2 DUP2 MSTORE PUSH1 0x20 ADD DUP3 DUP1 SLOAD PUSH2 0x600 SWAP1 PUSH2 0x2B1F JUMP JUMPDEST DUP1 ISZERO PUSH2 0x64D JUMPI DUP1 PUSH1 0x1F LT PUSH2 0x622 JUMPI PUSH2 0x100 DUP1 DUP4 SLOAD DIV MUL DUP4 MSTORE SWAP2 PUSH1 0x20 ADD SWAP2 PUSH2 0x64D JUMP JUMPDEST DUP3 ADD SWAP2 SWAP1 PUSH1 0x0 MSTORE PUSH1 0x20 PUSH1 0x0 KECCAK256 SWAP1 JUMPDEST DUP2 SLOAD DUP2 MSTORE SWAP1 PUSH1 0x1 ADD SWAP1 PUSH1 0x20 ADD DUP1 DUP4 GT PUSH2 0x630 JUMPI DUP3 SWAP1 SUB PUSH1 0x1F AND DUP3 ADD SWAP2 JUMPDEST POP POP POP POP POP SWAP1 POP SWAP1 JUMP JUMPDEST PUSH1 0x0 CALLER PUSH2 0x665 DUP2 DUP6 DUP6 PUSH2 0x1347 JUMP JUMPDEST PUSH1 0x1 SWAP2 POP POP JUMPDEST SWAP3 SWAP2 POP POP JUMP JUMPDEST PUSH2 0x1F8 SLOAD PUSH1 0x1 PUSH1 0x1 PUSH1 0xA0 SHL SUB AND CALLER EQ DUP1 ISZERO PUSH2 0x694 JUMPI POP PUSH1 0x1 PUSH1 0x1 PUSH1 0xA0 SHL SUB DUP2 AND ISZERO ISZERO JUMPDEST PUSH1 0x40 MLOAD DUP1 PUSH1 0x40 ADD PUSH1 0x40 MSTORE DUP1 PUSH1 0x3 DUP2 MSTORE PUSH1 0x20 ADD PUSH3 0x313031 PUSH1 0xE8 SHL DUP2 MSTORE POP SWAP1 PUSH2 0x6D7 JUMPI PUSH1 0x40 MLOAD PUSH3 0x461BCD PUSH1 0xE5 SHL DUP2 MSTORE PUSH1 0x4 ADD PUSH2 0x6CE SWAP2 SWAP1 PUSH2 0x274B JUMP JUMPDEST PUSH1 0x40 MLOAD DUP1 SWAP2 SUB SWAP1 REVERT JUMPDEST POP PUSH2 0x1F9 SLOAD PUSH1 0x1 PUSH1 0x1 PUSH1 0xA0 SHL SUB DUP3 DUP2 AND SWAP2 AND EQ PUSH2 0x70B JUMPI PUSH2 0x1F8 DUP1 SLOAD PUSH1 0x1 PUSH1 0x1 PUSH1 0xA0 SHL SUB NOT AND PUSH1 0x1 PUSH1 0x1 PUSH1 0xA0 SHL SUB DUP4 AND OR SWAP1 SSTORE JUMPDEST POP JUMP JUMPDEST PUSH1 0x0 PUSH2 0x719 PUSH1 0x35 SLOAD SWAP1 JUMP JUMPDEST SWAP1 POP SWAP1 JUMP JUMPDEST PUSH1 0x0 CALLER PUSH2 0x72C DUP6 DUP3 DUP6 PUSH2 0x146B JUMP JUMPDEST PUSH2 0x737 DUP6 DUP6 DUP6 PUSH2 0x14E5 JUMP JUMPDEST POP PUSH1 0x1 SWAP5 SWAP4 POP POP POP POP JUMP JUMPDEST PUSH1 0x0 DUP1 DUP4 SWAP1 POP DUP1 PUSH1 0x1 PUSH1 0x1 PUSH1 0xA0 SHL SUB AND PUSH4 0x63184726 PUSH1 0x40 MLOAD DUP2 PUSH4 0xFFFFFFFF AND PUSH1 0xE0 SHL DUP2 MSTORE PUSH1 0x4 ADD PUSH1 0x20 PUSH1 0x40 MLOAD DUP1 DUP4 SUB DUP2 DUP7 GAS STATICCALL SWAP3 POP POP POP DUP1 ISZERO PUSH2 0x7A2 JUMPI POP PUSH1 0x40 DUP1 MLOAD PUSH1 0x1F RETURNDATASIZE SWAP1 DUP2 ADD PUSH1 0x1F NOT AND DUP3 ADD SWAP1 SWAP3 MSTORE PUSH2 0x79F SWAP2 DUP2 ADD SWAP1 PUSH2 0x2B67 JUMP JUMPDEST PUSH1 0x1 JUMPDEST PUSH2 0x7E7 JUMPI PUSH1 0x40 MLOAD PUSH1 0x1 PUSH1 0x1 PUSH1 0xA0 SHL SUB DUP6 AND DUP2 MSTORE PUSH32 0xA2D47E5E61369D0BDE38A716E62F1EA16D8124813F8EA55B832C218216E91DFC SWAP1 PUSH1 0x20 ADD PUSH1 0x40 MLOAD DUP1 SWAP2 SUB SWAP1 LOG1 PUSH2 0x82E JUMP JUMPDEST CALLER PUSH1 0x0 SWAP1 DUP2 MSTORE PUSH2 0x1FA PUSH1 0x20 SWAP1 DUP2 MSTORE PUSH1 0x40 DUP1 DUP4 KECCAK256 PUSH1 0x1 PUSH1 0x1 PUSH1 0xA0 SHL SUB DUP10 AND DUP5 MSTORE SWAP1 SWAP2 MSTORE SWAP1 KECCAK256 SLOAD PUSH2 0x81B DUP6 PUSH3 0xFFFFFF DUP5 AND PUSH2 0x2B98 JUMP JUMPDEST PUSH2 0x825 SWAP2 SWAP1 PUSH2 0x2BB7 JUMP JUMPDEST SWAP3 POP POP POP PUSH2 0x66B JUMP JUMPDEST POP PUSH1 0x0 SWAP4 SWAP3 POP POP POP JUMP JUMPDEST PUSH1 0x0 PUSH2 0x719 PUSH2 0x16A1 JUMP JUMPDEST PUSH1 0x0 CALLER PUSH2 0x665 DUP2 DUP6 DUP6 PUSH2 0x855 DUP4 DUP4 PUSH2 0x1221 JUMP JUMPDEST PUSH2 0x85F SWAP2 SWAP1 PUSH2 0x2BCE JUMP JUMPDEST PUSH2 0x1347 JUMP JUMPDEST PUSH1 0x0 NUMBER DUP3 LT PUSH2 0x8B5 JUMPI PUSH1 0x40 MLOAD PUSH3 0x461BCD PUSH1 0xE5 SHL DUP2 MSTORE PUSH1 0x20 PUSH1 0x4 DUP3 ADD MSTORE PUSH1 0x1F PUSH1 0x24 DUP3 ADD MSTORE PUSH32 0x4552433230566F7465733A20626C6F636B206E6F7420796574206D696E656400 PUSH1 0x44 DUP3 ADD MSTORE PUSH1 0x64 ADD PUSH2 0x6CE JUMP JUMPDEST PUSH1 0x1 PUSH1 0x1 PUSH1 0xA0 SHL SUB DUP4 AND PUSH1 0x0 SWAP1 DUP2 MSTORE PUSH2 0x195 PUSH1 0x20 MSTORE PUSH1 0x40 SWAP1 KECCAK256 PUSH2 0x8D8 SWAP1 DUP4 PUSH2 0x171E JUMP JUMPDEST SWAP4 SWAP3 POP POP POP JUMP JUMPDEST PUSH2 0x70B CALLER DUP3 PUSH2 0x1815 JUMP JUMPDEST PUSH2 0x70B CALLER DUP3 PUSH2 0x181F JUMP JUMPDEST PUSH1 0x1 PUSH1 0x1 PUSH1 0xA0 SHL SUB DUP2 AND PUSH1 0x0 SWAP1 DUP2 MSTORE PUSH2 0x195 PUSH1 0x20 MSTORE PUSH1 0x40 DUP2 KECCAK256 SLOAD PUSH2 0x66B SWAP1 PUSH2 0x189A JUMP JUMPDEST PUSH2 0x91E PUSH2 0x1903 JUMP JUMPDEST PUSH2 0x928 PUSH1 0x0 PUSH2 0x195D JUMP JUMPDEST JUMP JUMPDEST PUSH1 0x0 PUSH2 0x8D8 PUSH2 0x939 DUP5 DUP5 PUSH2 0x864 JUMP JUMPDEST PUSH2 0x19AF JUMP JUMPDEST PUSH2 0x949 DUP3 CALLER DUP4 PUSH2 0x146B JUMP JUMPDEST PUSH2 0x953 DUP3 DUP3 PUSH2 0x1815 JUMP JUMPDEST POP POP JUMP JUMPDEST PUSH1 0x1 PUSH1 0x1 PUSH1 0xA0 SHL SUB DUP2 AND PUSH1 0x0 SWAP1 DUP2 MSTORE PUSH2 0x161 PUSH1 0x20 MSTORE PUSH1 0x40 DUP2 KECCAK256 SLOAD PUSH2 0x66B JUMP JUMPDEST PUSH1 0x0 NUMBER DUP3 LT PUSH2 0x9C7 JUMPI PUSH1 0x40 MLOAD PUSH3 0x461BCD PUSH1 0xE5 SHL DUP2 MSTORE PUSH1 0x20 PUSH1 0x4 DUP3 ADD MSTORE PUSH1 0x1F PUSH1 0x24 DUP3 ADD MSTORE PUSH32 0x4552433230566F7465733A20626C6F636B206E6F7420796574206D696E656400 PUSH1 0x44 DUP3 ADD MSTORE PUSH1 0x64 ADD PUSH2 0x6CE JUMP JUMPDEST PUSH2 0x66B PUSH2 0x196 DUP4 PUSH2 0x171E JUMP JUMPDEST PUSH1 0x0 SLOAD PUSH2 0x100 SWAP1 DIV PUSH1 0xFF AND ISZERO DUP1 DUP1 ISZERO PUSH2 0x9F3 JUMPI POP PUSH1 0x0 SLOAD PUSH1 0x1 PUSH1 0xFF SWAP1 SWAP2 AND LT JUMPDEST DUP1 PUSH2 0xA0D JUMPI POP ADDRESS EXTCODESIZE ISZERO DUP1 ISZERO PUSH2 0xA0D JUMPI POP PUSH1 0x0 SLOAD PUSH1 0xFF AND PUSH1 0x1 EQ JUMPDEST PUSH2 0xA70 JUMPI PUSH1 0x40 MLOAD PUSH3 0x461BCD PUSH1 0xE5 SHL DUP2 MSTORE PUSH1 0x20 PUSH1 0x4 DUP3 ADD MSTORE PUSH1 0x2E PUSH1 0x24 DUP3 ADD MSTORE PUSH32 0x496E697469616C697A61626C653A20636F6E747261637420697320616C726561 PUSH1 0x44 DUP3 ADD MSTORE PUSH14 0x191E481A5B9A5D1A585B1A5E9959 PUSH1 0x92 SHL PUSH1 0x64 DUP3 ADD MSTORE PUSH1 0x84 ADD PUSH2 0x6CE JUMP JUMPDEST PUSH1 0x0 DUP1 SLOAD PUSH1 0xFF NOT AND PUSH1 0x1 OR SWAP1 SSTORE DUP1 ISZERO PUSH2 0xA93 JUMPI PUSH1 0x0 DUP1 SLOAD PUSH2 0xFF00 NOT AND PUSH2 0x100 OR SWAP1 SSTORE JUMPDEST PUSH1 0x1 PUSH1 0x1 PUSH1 0xA0 SHL SUB DUP4 AND ISZERO DUP1 ISZERO SWAP1 PUSH2 0xAB3 JUMPI POP PUSH1 0x1 PUSH1 0x1 PUSH1 0xA0 SHL SUB DUP3 AND ISZERO ISZERO JUMPDEST PUSH1 0x40 MLOAD DUP1 PUSH1 0x40 ADD PUSH1 0x40 MSTORE DUP1 PUSH1 0x3 DUP2 MSTORE PUSH1 0x20 ADD PUSH3 0x31303 PUSH1 0xEC SHL DUP2 MSTORE POP SWAP1 PUSH2 0xAED JUMPI PUSH1 0x40 MLOAD PUSH3 0x461BCD PUSH1 0xE5 SHL DUP2 MSTORE PUSH1 0x4 ADD PUSH2 0x6CE SWAP2 SWAP1 PUSH2 0x274B JUMP JUMPDEST POP PUSH2 0x1F8 DUP1 SLOAD PUSH1 0x1 PUSH1 0x1 PUSH1 0xA0 SHL SUB DUP1 DUP7 AND PUSH1 0x1 PUSH1 0x1 PUSH1 0xA0 SHL SUB NOT SWAP3 DUP4 AND OR SWAP1 SWAP3 SSTORE PUSH2 0x1F9 DUP1 SLOAD SWAP3 DUP6 AND SWAP3 SWAP1 SWAP2 AND SWAP2 SWAP1 SWAP2 OR SWAP1 SSTORE PUSH1 0x0 PUSH2 0xB2A PUSH1 0x12 SWAP1 JUMP JUMPDEST PUSH2 0xB35 SWAP1 PUSH1 0xA PUSH2 0x2CCA JUMP JUMPDEST PUSH2 0xB43 SWAP1 PUSH4 0x5F5E100 PUSH2 0x2B98 JUMP JUMPDEST SWAP1 POP PUSH1 0x64 PUSH2 0xB52 DUP3 PUSH1 0x46 PUSH2 0x2B98 JUMP JUMPDEST PUSH2 0xB5C SWAP2 SWAP1 PUSH2 0x2CEF JUMP JUMPDEST PUSH2 0x1FB SSTORE PUSH1 0x0 PUSH1 0x64 PUSH2 0xB6F DUP4 PUSH1 0x14 PUSH2 0x2B98 JUMP JUMPDEST PUSH2 0xB79 SWAP2 SWAP1 PUSH2 0x2CEF JUMP JUMPDEST PUSH2 0x1F8 SLOAD SWAP1 SWAP2 POP PUSH2 0xB93 SWAP1 PUSH1 0x1 PUSH1 0x1 PUSH1 0xA0 SHL SUB AND DUP3 PUSH2 0x1A17 JUMP JUMPDEST PUSH2 0xB9B PUSH2 0x1A21 JUMP JUMPDEST PUSH2 0xBA5 DUP8 DUP8 PUSH2 0x1A50 JUMP JUMPDEST PUSH2 0xBAD PUSH2 0x1A81 JUMP JUMPDEST POP POP DUP1 ISZERO PUSH2 0xBF6 JUMPI PUSH1 0x0 DUP1 SLOAD PUSH2 0xFF00 NOT AND SWAP1 SSTORE PUSH1 0x40 MLOAD PUSH1 0x1 DUP2 MSTORE PUSH32 0x7F26B83FF96E1F2B6A682F133852F6798A09C465DA95921460CEFB3847402498 SWAP1 PUSH1 0x20 ADD JUMPDEST PUSH1 0x40 MLOAD DUP1 SWAP2 SUB SWAP1 LOG1 JUMPDEST POP POP POP POP POP JUMP JUMPDEST PUSH2 0x1F8 SLOAD PUSH1 0x1 PUSH1 0x1 PUSH1 0xA0 SHL SUB AND CALLER EQ DUP1 ISZERO PUSH2 0xC20 JUMPI POP PUSH1 0x1 PUSH1 0x1 PUSH1 0xA0 SHL SUB DUP2 AND ISZERO ISZERO JUMPDEST PUSH1 0x40 MLOAD DUP1 PUSH1 0x40 ADD PUSH1 0x40 MSTORE DUP1 PUSH1 0x3 DUP2 MSTORE PUSH1 0x20 ADD PUSH3 0x313031 PUSH1 0xE8 SHL DUP2 MSTORE POP SWAP1 PUSH2 0xC5A JUMPI PUSH1 0x40 MLOAD PUSH3 0x461BCD PUSH1 0xE5 SHL DUP2 MSTORE PUSH1 0x4 ADD PUSH2 0x6CE SWAP2 SWAP1 PUSH2 0x274B JUMP JUMPDEST POP PUSH2 0x1F8 SLOAD PUSH1 0x1 PUSH1 0x1 PUSH1 0xA0 SHL SUB DUP3 DUP2 AND SWAP2 AND EQ PUSH2 0x70B JUMPI PUSH2 0x1F8 DUP1 SLOAD PUSH1 0x1 PUSH1 0x1 PUSH1 0xA0 SHL SUB DUP4 AND PUSH1 0x1 PUSH1 0x1 PUSH1 0xA0 SHL SUB NOT SWAP1 SWAP2 AND OR SWAP1 SSTORE POP JUMP JUMPDEST PUSH1 0x60 PUSH1 0x37 DUP1 SLOAD PUSH2 0x5D4 SWAP1 PUSH2 0x2B1F JUMP JUMPDEST PUSH1 0x1 PUSH1 0x1 PUSH1 0xA0 SHL SUB DUP2 AND PUSH1 0x0 SWAP1 DUP2 MSTORE PUSH2 0x195 PUSH1 0x20 MSTORE PUSH1 0x40 DUP2 KECCAK256 SLOAD DUP1 ISZERO PUSH2 0xD17 JUMPI PUSH1 0x1 PUSH1 0x1 PUSH1 0xA0 SHL SUB DUP4 AND PUSH1 0x0 SWAP1 DUP2 MSTORE PUSH2 0x195 PUSH1 0x20 MSTORE PUSH1 0x40 SWAP1 KECCAK256 PUSH2 0xCE5 PUSH1 0x1 DUP4 PUSH2 0x2BB7 JUMP JUMPDEST DUP2 SLOAD DUP2 LT PUSH2 0xCF5 JUMPI PUSH2 0xCF5 PUSH2 0x2D11 JUMP JUMPDEST PUSH1 0x0 SWAP2 DUP3 MSTORE PUSH1 0x20 SWAP1 SWAP2 KECCAK256 ADD SLOAD PUSH5 0x100000000 SWAP1 DIV PUSH1 0x1 PUSH1 0x1 PUSH1 0xE0 SHL SUB AND PUSH2 0xD1A JUMP JUMPDEST PUSH1 0x0 JUMPDEST PUSH1 0x1 PUSH1 0x1 PUSH1 0xE0 SHL SUB AND SWAP4 SWAP3 POP POP POP JUMP JUMPDEST PUSH1 0x0 CALLER DUP2 PUSH2 0xD38 DUP3 DUP7 PUSH2 0x1221 JUMP JUMPDEST SWAP1 POP DUP4 DUP2 LT ISZERO PUSH2 0xD98 JUMPI PUSH1 0x40 MLOAD PUSH3 0x461BCD PUSH1 0xE5 SHL DUP2 MSTORE PUSH1 0x20 PUSH1 0x4 DUP3 ADD MSTORE PUSH1 0x25 PUSH1 0x24 DUP3 ADD MSTORE PUSH32 0x45524332303A2064656372656173656420616C6C6F77616E63652062656C6F77 PUSH1 0x44 DUP3 ADD MSTORE PUSH5 0x207A65726F PUSH1 0xD8 SHL PUSH1 0x64 DUP3 ADD MSTORE PUSH1 0x84 ADD PUSH2 0x6CE JUMP JUMPDEST PUSH2 0x737 DUP3 DUP7 DUP7 DUP5 SUB PUSH2 0x1347 JUMP JUMPDEST PUSH1 0x0 CALLER PUSH2 0x665 DUP2 DUP6 DUP6 PUSH2 0x14E5 JUMP JUMPDEST PUSH2 0xDBB PUSH2 0x1AB0 JUMP JUMPDEST PUSH1 0x0 PUSH2 0x1FB SLOAD GT PUSH1 0x40 MLOAD DUP1 PUSH1 0x40 ADD PUSH1 0x40 MSTORE DUP1 PUSH1 0x3 DUP2 MSTORE PUSH1 0x20 ADD PUSH3 0x323033 PUSH1 0xE8 SHL DUP2 MSTORE POP SWAP1 PUSH2 0xDFC JUMPI PUSH1 0x40 MLOAD PUSH3 0x461BCD PUSH1 0xE5 SHL DUP2 MSTORE PUSH1 0x4 ADD PUSH2 0x6CE SWAP2 SWAP1 PUSH2 0x274B JUMP JUMPDEST POP PUSH1 0x40 MLOAD PUSH4 0x46EC8D2B PUSH1 0xE1 SHL DUP2 MSTORE PUSH1 0x4 DUP2 ADD DUP3 SWAP1 MSTORE DUP3 SWAP1 PUSH1 0x0 SWAP1 PUSH1 0x1 PUSH1 0x1 PUSH1 0xA0 SHL SUB DUP4 AND SWAP1 PUSH4 0x8DD91A56 SWAP1 PUSH1 0x24 ADD PUSH1 0x0 PUSH1 0x40 MLOAD DUP1 DUP4 SUB DUP2 DUP7 GAS STATICCALL ISZERO DUP1 ISZERO PUSH2 0xE47 JUMPI RETURNDATASIZE PUSH1 0x0 DUP1 RETURNDATACOPY RETURNDATASIZE PUSH1 0x0 REVERT JUMPDEST POP POP POP POP PUSH1 0x40 MLOAD RETURNDATASIZE PUSH1 0x0 DUP3 RETURNDATACOPY PUSH1 0x1F RETURNDATASIZE SWAP1 DUP2 ADD PUSH1 0x1F NOT AND DUP3 ADD PUSH1 0x40 MSTORE PUSH2 0xE6F SWAP2 SWAP1 DUP2 ADD SWAP1 PUSH2 0x2F70 JUMP JUMPDEST PUSH1 0xC0 DUP2 ADD MLOAD PUSH1 0x40 DUP1 MLOAD DUP1 DUP3 ADD SWAP1 SWAP2 MSTORE PUSH1 0x3 DUP2 MSTORE PUSH3 0x31303 PUSH1 0xEC SHL PUSH1 0x20 DUP3 ADD MSTORE SWAP2 SWAP3 POP PUSH1 0x1 PUSH1 0x1 PUSH1 0xA0 SHL SUB AND CALLER EQ PUSH2 0xEB9 JUMPI PUSH1 0x40 MLOAD PUSH3 0x461BCD PUSH1 0xE5 SHL DUP2 MSTORE PUSH1 0x4 ADD PUSH2 0x6CE SWAP2 SWAP1 PUSH2 0x274B JUMP JUMPDEST POP PUSH1 0x0 PUSH2 0xECF DUP3 PUSH2 0x1E0 ADD MLOAD DUP4 PUSH1 0x40 ADD MLOAD PUSH2 0x742 JUMP JUMPDEST SWAP1 POP PUSH2 0x1FB SLOAD DUP2 GT ISZERO PUSH2 0xEE2 JUMPI POP PUSH2 0x1FB SLOAD JUMPDEST CALLER PUSH1 0x0 SWAP1 DUP2 MSTORE PUSH2 0x1FA PUSH1 0x20 SWAP1 DUP2 MSTORE PUSH1 0x40 DUP1 DUP4 KECCAK256 PUSH2 0x1E0 DUP7 ADD MLOAD PUSH1 0x1 PUSH1 0x1 PUSH1 0xA0 SHL SUB AND DUP5 MSTORE SWAP1 SWAP2 MSTORE DUP2 KECCAK256 DUP1 SLOAD DUP4 SWAP3 SWAP1 PUSH2 0xF1B SWAP1 DUP5 SWAP1 PUSH2 0x2BCE JUMP JUMPDEST SWAP1 SWAP2 SSTORE POP PUSH2 0xF2B SWAP1 POP CALLER DUP3 PUSH2 0x1A17 JUMP JUMPDEST DUP1 PUSH2 0x1FB PUSH1 0x0 DUP3 DUP3 SLOAD PUSH2 0xF3E SWAP2 SWAP1 PUSH2 0x2BB7 JUMP JUMPDEST SWAP1 SWAP2 SSTORE POP POP PUSH1 0x40 DUP1 MLOAD CALLER DUP2 MSTORE PUSH1 0x20 DUP2 ADD DUP4 SWAP1 MSTORE PUSH32 0x5D425A3A6A3D5A60FBF147DC6659CE3DFEB701FC44FE90058C32783B8807C574 SWAP2 ADD PUSH2 0xBED JUMP JUMPDEST PUSH1 0x0 PUSH2 0x66B PUSH2 0x939 DUP4 PUSH2 0xCA1 JUMP JUMPDEST DUP4 TIMESTAMP GT ISZERO PUSH2 0xFD7 JUMPI PUSH1 0x40 MLOAD PUSH3 0x461BCD PUSH1 0xE5 SHL DUP2 MSTORE PUSH1 0x20 PUSH1 0x4 DUP3 ADD MSTORE PUSH1 0x1D PUSH1 0x24 DUP3 ADD MSTORE PUSH32 0x4552433230566F7465733A207369676E61747572652065787069726564000000 PUSH1 0x44 DUP3 ADD MSTORE PUSH1 0x64 ADD PUSH2 0x6CE JUMP JUMPDEST PUSH1 0x40 DUP1 MLOAD PUSH32 0xE48329057BFD03D55E49B547132E39CFFD9C1820AD7B9D4C5307691425D15ADF PUSH1 0x20 DUP3 ADD MSTORE PUSH1 0x1 PUSH1 0x1 PUSH1 0xA0 SHL SUB DUP9 AND SWAP2 DUP2 ADD SWAP2 SWAP1 SWAP2 MSTORE PUSH1 0x60 DUP2 ADD DUP7 SWAP1 MSTORE PUSH1 0x80 DUP2 ADD DUP6 SWAP1 MSTORE PUSH1 0x0 SWAP1 PUSH2 0x1051 SWAP1 PUSH2 0x1049 SWAP1 PUSH1 0xA0 ADD PUSH1 0x40 MLOAD PUSH1 0x20 DUP2 DUP4 SUB SUB DUP2 MSTORE SWAP1 PUSH1 0x40 MSTORE DUP1 MLOAD SWAP1 PUSH1 0x20 ADD KECCAK256 PUSH2 0x1AF6 JUMP JUMPDEST DUP6 DUP6 DUP6 PUSH2 0x1B44 JUMP JUMPDEST SWAP1 POP PUSH2 0x105C DUP2 PUSH2 0x1B6C JUMP JUMPDEST DUP7 EQ PUSH2 0x10AA JUMPI PUSH1 0x40 MLOAD PUSH3 0x461BCD PUSH1 0xE5 SHL DUP2 MSTORE PUSH1 0x20 PUSH1 0x4 DUP3 ADD MSTORE PUSH1 0x19 PUSH1 0x24 DUP3 ADD MSTORE PUSH32 0x4552433230566F7465733A20696E76616C6964206E6F6E636500000000000000 PUSH1 0x44 DUP3 ADD MSTORE PUSH1 0x64 ADD PUSH2 0x6CE JUMP JUMPDEST PUSH2 0x10B4 DUP2 DUP9 PUSH2 0x181F JUMP JUMPDEST POP POP POP POP POP POP POP JUMP JUMPDEST DUP4 TIMESTAMP GT ISZERO PUSH2 0x110D JUMPI PUSH1 0x40 MLOAD PUSH3 0x461BCD PUSH1 0xE5 SHL DUP2 MSTORE PUSH1 0x20 PUSH1 0x4 DUP3 ADD MSTORE PUSH1 0x1D PUSH1 0x24 DUP3 ADD MSTORE PUSH32 0x45524332305065726D69743A206578706972656420646561646C696E65000000 PUSH1 0x44 DUP3 ADD MSTORE PUSH1 0x64 ADD PUSH2 0x6CE JUMP JUMPDEST PUSH1 0x0 PUSH32 0x6E71EDAE12B1B97F4D1F60370FEF10105FA2FAAE0126114A169C64845D6126C9 DUP9 DUP9 DUP9 PUSH2 0x113C DUP13 PUSH2 0x1B6C JUMP JUMPDEST PUSH1 0x40 DUP1 MLOAD PUSH1 0x20 DUP2 ADD SWAP7 SWAP1 SWAP7 MSTORE PUSH1 0x1 PUSH1 0x1 PUSH1 0xA0 SHL SUB SWAP5 DUP6 AND SWAP1 DUP7 ADD MSTORE SWAP3 SWAP1 SWAP2 AND PUSH1 0x60 DUP5 ADD MSTORE PUSH1 0x80 DUP4 ADD MSTORE PUSH1 0xA0 DUP3 ADD MSTORE PUSH1 0xC0 DUP2 ADD DUP7 SWAP1 MSTORE PUSH1 0xE0 ADD PUSH1 0x40 MLOAD PUSH1 0x20 DUP2 DUP4 SUB SUB DUP2 MSTORE SWAP1 PUSH1 0x40 MSTORE DUP1 MLOAD SWAP1 PUSH1 0x20 ADD KECCAK256 SWAP1 POP PUSH1 0x0 PUSH2 0x1197 DUP3 PUSH2 0x1AF6 JUMP JUMPDEST SWAP1 POP PUSH1 0x0 PUSH2 0x11A7 DUP3 DUP8 DUP8 DUP8 PUSH2 0x1B44 JUMP JUMPDEST SWAP1 POP DUP10 PUSH1 0x1 PUSH1 0x1 PUSH1 0xA0 SHL SUB AND DUP2 PUSH1 0x1 PUSH1 0x1 PUSH1 0xA0 SHL SUB AND EQ PUSH2 0x120A JUMPI PUSH1 0x40 MLOAD PUSH3 0x461BCD PUSH1 0xE5 SHL DUP2 MSTORE PUSH1 0x20 PUSH1 0x4 DUP3 ADD MSTORE PUSH1 0x1E PUSH1 0x24 DUP3 ADD MSTORE PUSH32 0x45524332305065726D69743A20696E76616C6964207369676E61747572650000 PUSH1 0x44 DUP3 ADD MSTORE PUSH1 0x64 ADD PUSH2 0x6CE JUMP JUMPDEST PUSH2 0x1215 DUP11 DUP11 DUP11 PUSH2 0x1347 JUMP JUMPDEST POP POP POP POP POP POP POP POP POP POP JUMP JUMPDEST PUSH1 0x1 PUSH1 0x1 PUSH1 0xA0 SHL SUB SWAP2 DUP3 AND PUSH1 0x0 SWAP1 DUP2 MSTORE PUSH1 0x34 PUSH1 0x20 SWAP1 DUP2 MSTORE PUSH1 0x40 DUP1 DUP4 KECCAK256 SWAP4 SWAP1 SWAP5 AND DUP3 MSTORE SWAP2 SWAP1 SWAP2 MSTORE KECCAK256 SLOAD SWAP1 JUMP JUMPDEST PUSH1 0x40 DUP1 MLOAD DUP1 DUP3 ADD SWAP1 SWAP2 MSTORE PUSH1 0x0 DUP1 DUP3 MSTORE PUSH1 0x20 DUP3 ADD MSTORE PUSH1 0x1 PUSH1 0x1 PUSH1 0xA0 SHL SUB DUP4 AND PUSH1 0x0 SWAP1 DUP2 MSTORE PUSH2 0x195 PUSH1 0x20 MSTORE PUSH1 0x40 SWAP1 KECCAK256 DUP1 SLOAD PUSH4 0xFFFFFFFF DUP5 AND SWAP1 DUP2 LT PUSH2 0x1291 JUMPI PUSH2 0x1291 PUSH2 0x2D11 JUMP JUMPDEST PUSH1 0x0 SWAP2 DUP3 MSTORE PUSH1 0x20 SWAP2 DUP3 SWAP1 KECCAK256 PUSH1 0x40 DUP1 MLOAD DUP1 DUP3 ADD SWAP1 SWAP2 MSTORE SWAP2 ADD SLOAD PUSH4 0xFFFFFFFF DUP2 AND DUP3 MSTORE PUSH5 0x100000000 SWAP1 DIV PUSH1 0x1 PUSH1 0x1 PUSH1 0xE0 SHL SUB AND SWAP2 DUP2 ADD SWAP2 SWAP1 SWAP2 MSTORE SWAP4 SWAP3 POP POP POP JUMP JUMPDEST PUSH2 0x12D9 PUSH2 0x1903 JUMP JUMPDEST PUSH1 0x1 PUSH1 0x1 PUSH1 0xA0 SHL SUB DUP2 AND PUSH2 0x133E JUMPI PUSH1 0x40 MLOAD PUSH3 0x461BCD PUSH1 0xE5 SHL DUP2 MSTORE PUSH1 0x20 PUSH1 0x4 DUP3 ADD MSTORE PUSH1 0x26 PUSH1 0x24 DUP3 ADD MSTORE PUSH32 0x4F776E61626C653A206E6577206F776E657220697320746865207A65726F2061 PUSH1 0x44 DUP3 ADD MSTORE PUSH6 0x646472657373 PUSH1 0xD0 SHL PUSH1 0x64 DUP3 ADD MSTORE PUSH1 0x84 ADD PUSH2 0x6CE JUMP JUMPDEST PUSH2 0x70B DUP2 PUSH2 0x195D JUMP JUMPDEST PUSH1 0x1 PUSH1 0x1 PUSH1 0xA0 SHL SUB DUP4 AND PUSH2 0x13A9 JUMPI PUSH1 0x40 MLOAD PUSH3 0x461BCD PUSH1 0xE5 SHL DUP2 MSTORE PUSH1 0x20 PUSH1 0x4 DUP3 ADD MSTORE PUSH1 0x24 DUP1 DUP3 ADD MSTORE PUSH32 0x45524332303A20617070726F76652066726F6D20746865207A65726F20616464 PUSH1 0x44 DUP3 ADD MSTORE PUSH4 0x72657373 PUSH1 0xE0 SHL PUSH1 0x64 DUP3 ADD MSTORE PUSH1 0x84 ADD PUSH2 0x6CE JUMP JUMPDEST PUSH1 0x1 PUSH1 0x1 PUSH1 0xA0 SHL SUB DUP3 AND PUSH2 0x140A JUMPI PUSH1 0x40 MLOAD PUSH3 0x461BCD PUSH1 0xE5 SHL DUP2 MSTORE PUSH1 0x20 PUSH1 0x4 DUP3 ADD MSTORE PUSH1 0x22 PUSH1 0x24 DUP3 ADD MSTORE PUSH32 0x45524332303A20617070726F766520746F20746865207A65726F206164647265 PUSH1 0x44 DUP3 ADD MSTORE PUSH2 0x7373 PUSH1 0xF0 SHL PUSH1 0x64 DUP3 ADD MSTORE PUSH1 0x84 ADD PUSH2 0x6CE JUMP JUMPDEST PUSH1 0x1 PUSH1 0x1 PUSH1 0xA0 SHL SUB DUP4 DUP2 AND PUSH1 0x0 DUP2 DUP2 MSTORE PUSH1 0x34 PUSH1 0x20 SWAP1 DUP2 MSTORE PUSH1 0x40 DUP1 DUP4 KECCAK256 SWAP5 DUP8 AND DUP1 DUP5 MSTORE SWAP5 DUP3 MSTORE SWAP2 DUP3 SWAP1 KECCAK256 DUP6 SWAP1 SSTORE SWAP1 MLOAD DUP5 DUP2 MSTORE PUSH32 0x8C5BE1E5EBEC7D5BD14F71427D1E84F3DD0314C0F7B2291E5B200AC8C7C3B925 SWAP2 ADD PUSH1 0x40 MLOAD DUP1 SWAP2 SUB SWAP1 LOG3 POP POP POP JUMP JUMPDEST PUSH1 0x0 PUSH2 0x1477 DUP5 DUP5 PUSH2 0x1221 JUMP JUMPDEST SWAP1 POP PUSH1 0x0 NOT DUP2 EQ PUSH2 0x14DF JUMPI DUP2 DUP2 LT ISZERO PUSH2 0x14D2 JUMPI PUSH1 0x40 MLOAD PUSH3 0x461BCD PUSH1 0xE5 SHL DUP2 MSTORE PUSH1 0x20 PUSH1 0x4 DUP3 ADD MSTORE PUSH1 0x1D PUSH1 0x24 DUP3 ADD MSTORE PUSH32 0x45524332303A20696E73756666696369656E7420616C6C6F77616E6365000000 PUSH1 0x44 DUP3 ADD MSTORE PUSH1 0x64 ADD PUSH2 0x6CE JUMP JUMPDEST PUSH2 0x14DF DUP5 DUP5 DUP5 DUP5 SUB PUSH2 0x1347 JUMP JUMPDEST POP POP POP POP JUMP JUMPDEST PUSH1 0x1 PUSH1 0x1 PUSH1 0xA0 SHL SUB DUP4 AND PUSH2 0x1549 JUMPI PUSH1 0x40 MLOAD PUSH3 0x461BCD PUSH1 0xE5 SHL DUP2 MSTORE PUSH1 0x20 PUSH1 0x4 DUP3 ADD MSTORE PUSH1 0x25 PUSH1 0x24 DUP3 ADD MSTORE PUSH32 0x45524332303A207472616E736665722066726F6D20746865207A65726F206164 PUSH1 0x44 DUP3 ADD MSTORE PUSH5 0x6472657373 PUSH1 0xD8 SHL PUSH1 0x64 DUP3 ADD MSTORE PUSH1 0x84 ADD PUSH2 0x6CE JUMP JUMPDEST PUSH1 0x1 PUSH1 0x1 PUSH1 0xA0 SHL SUB DUP3 AND PUSH2 0x15AB JUMPI PUSH1 0x40 MLOAD PUSH3 0x461BCD PUSH1 0xE5 SHL DUP2 MSTORE PUSH1 0x20 PUSH1 0x4 DUP3 ADD MSTORE PUSH1 0x23 PUSH1 0x24 DUP3 ADD MSTORE PUSH32 0x45524332303A207472616E7366657220746F20746865207A65726F2061646472 PUSH1 0x44 DUP3 ADD MSTORE PUSH3 0x657373 PUSH1 0xE8 SHL PUSH1 0x64 DUP3 ADD MSTORE PUSH1 0x84 ADD PUSH2 0x6CE JUMP JUMPDEST PUSH2 0x15B6 DUP4 DUP4 DUP4 PUSH2 0x1B95 JUMP JUMPDEST PUSH1 0x1 PUSH1 0x1 PUSH1 0xA0 SHL SUB DUP4 AND PUSH1 0x0 SWAP1 DUP2 MSTORE PUSH1 0x33 PUSH1 0x20 MSTORE PUSH1 0x40 SWAP1 KECCAK256 SLOAD DUP2 DUP2 LT ISZERO PUSH2 0x162E JUMPI PUSH1 0x40 MLOAD PUSH3 0x461BCD PUSH1 0xE5 SHL DUP2 MSTORE PUSH1 0x20 PUSH1 0x4 DUP3 ADD MSTORE PUSH1 0x26 PUSH1 0x24 DUP3 ADD MSTORE PUSH32 0x45524332303A207472616E7366657220616D6F756E7420657863656564732062 PUSH1 0x44 DUP3 ADD MSTORE PUSH6 0x616C616E6365 PUSH1 0xD0 SHL PUSH1 0x64 DUP3 ADD MSTORE PUSH1 0x84 ADD PUSH2 0x6CE JUMP JUMPDEST PUSH1 0x1 PUSH1 0x1 PUSH1 0xA0 SHL SUB DUP1 DUP6 AND PUSH1 0x0 DUP2 DUP2 MSTORE PUSH1 0x33 PUSH1 0x20 MSTORE PUSH1 0x40 DUP1 DUP3 KECCAK256 DUP7 DUP7 SUB SWAP1 SSTORE SWAP3 DUP7 AND DUP1 DUP3 MSTORE SWAP1 DUP4 SWAP1 KECCAK256 DUP1 SLOAD DUP7 ADD SWAP1 SSTORE SWAP2 MLOAD PUSH32 0xDDF252AD1BE2C89B69C2B068FC378DAA952BA7F163C4A11628F55A4DF523B3EF SWAP1 PUSH2 0x168E SWAP1 DUP7 DUP2 MSTORE PUSH1 0x20 ADD SWAP1 JUMP JUMPDEST PUSH1 0x40 MLOAD DUP1 SWAP2 SUB SWAP1 LOG3 PUSH2 0x14DF DUP5 DUP5 DUP5 PUSH2 0x1BA5 JUMP JUMPDEST PUSH1 0x0 PUSH2 0x719 PUSH32 0x8B73C3C69BB8FE3D512ECC4CF759CC79239F7B179B0FFACAA9A75D522B39400F PUSH2 0x16D1 PUSH2 0x12D SLOAD SWAP1 JUMP JUMPDEST PUSH2 0x12E SLOAD PUSH1 0x40 DUP1 MLOAD PUSH1 0x20 DUP2 ADD DUP6 SWAP1 MSTORE SWAP1 DUP2 ADD DUP4 SWAP1 MSTORE PUSH1 0x60 DUP2 ADD DUP3 SWAP1 MSTORE CHAINID PUSH1 0x80 DUP3 ADD MSTORE ADDRESS PUSH1 0xA0 DUP3 ADD MSTORE PUSH1 0x0 SWAP1 PUSH1 0xC0 ADD PUSH1 0x40 MLOAD PUSH1 0x20 DUP2 DUP4 SUB SUB DUP2 MSTORE SWAP1 PUSH1 0x40 MSTORE DUP1 MLOAD SWAP1 PUSH1 0x20 ADD KECCAK256 SWAP1 POP SWAP4 SWAP3 POP POP POP JUMP JUMPDEST DUP2 SLOAD PUSH1 0x0 SWAP1 DUP2 DUP2 PUSH1 0x5 DUP2 GT ISZERO PUSH2 0x1778 JUMPI PUSH1 0x0 PUSH2 0x1739 DUP5 PUSH2 0x1BB0 JUMP JUMPDEST PUSH2 0x1743 SWAP1 DUP6 PUSH2 0x2BB7 JUMP JUMPDEST PUSH1 0x0 DUP9 DUP2 MSTORE PUSH1 0x20 SWAP1 KECCAK256 SWAP1 SWAP2 POP DUP7 SWAP1 DUP3 ADD SLOAD PUSH4 0xFFFFFFFF AND GT ISZERO PUSH2 0x1768 JUMPI DUP1 SWAP2 POP PUSH2 0x1776 JUMP JUMPDEST PUSH2 0x1773 DUP2 PUSH1 0x1 PUSH2 0x2BCE JUMP JUMPDEST SWAP3 POP JUMPDEST POP JUMPDEST DUP1 DUP3 LT ISZERO PUSH2 0x17C5 JUMPI PUSH1 0x0 PUSH2 0x178C DUP4 DUP4 PUSH2 0x1C95 JUMP JUMPDEST PUSH1 0x0 DUP9 DUP2 MSTORE PUSH1 0x20 SWAP1 KECCAK256 SWAP1 SWAP2 POP DUP7 SWAP1 DUP3 ADD SLOAD PUSH4 0xFFFFFFFF AND GT ISZERO PUSH2 0x17B1 JUMPI DUP1 SWAP2 POP PUSH2 0x17BF JUMP JUMPDEST PUSH2 0x17BC DUP2 PUSH1 0x1 PUSH2 0x2BCE JUMP JUMPDEST SWAP3 POP JUMPDEST POP PUSH2 0x1778 JUMP JUMPDEST DUP1 ISZERO PUSH2 0x17FF JUMPI PUSH2 0x17E8 DUP7 PUSH2 0x17DA PUSH1 0x1 DUP5 PUSH2 0x2BB7 JUMP JUMPDEST PUSH1 0x0 SWAP2 DUP3 MSTORE PUSH1 0x20 SWAP1 SWAP2 KECCAK256 ADD SWAP1 JUMP JUMPDEST SLOAD PUSH5 0x100000000 SWAP1 DIV PUSH1 0x1 PUSH1 0x1 PUSH1 0xE0 SHL SUB AND PUSH2 0x1802 JUMP JUMPDEST PUSH1 0x0 JUMPDEST PUSH1 0x1 PUSH1 0x1 PUSH1 0xE0 SHL SUB AND SWAP7 SWAP6 POP POP POP POP POP POP JUMP JUMPDEST PUSH2 0x953 DUP3 DUP3 PUSH2 0x1CB0 JUMP JUMPDEST PUSH1 0x1 PUSH1 0x1 PUSH1 0xA0 SHL SUB DUP3 DUP2 AND PUSH1 0x0 DUP2 DUP2 MSTORE PUSH2 0x194 PUSH1 0x20 DUP2 DUP2 MSTORE PUSH1 0x40 DUP1 DUP5 KECCAK256 DUP1 SLOAD PUSH1 0x33 DUP5 MSTORE DUP3 DUP7 KECCAK256 SLOAD SWAP5 SWAP1 SWAP4 MSTORE DUP8 DUP8 AND PUSH1 0x1 PUSH1 0x1 PUSH1 0xA0 SHL SUB NOT DUP5 AND DUP2 OR SWAP1 SWAP2 SSTORE SWAP1 MLOAD SWAP2 SWAP1 SWAP6 AND SWAP5 SWAP2 SWAP4 SWAP2 SWAP3 DUP6 SWAP3 SWAP2 PUSH32 0x3134E8A2E6D97E929A7E54011EA5485D7D196DD5F0BA4D4EF95803E8E3FC257F SWAP2 SWAP1 LOG4 PUSH2 0x14DF DUP3 DUP5 DUP4 PUSH2 0x1CC9 JUMP JUMPDEST PUSH1 0x0 PUSH4 0xFFFFFFFF DUP3 GT ISZERO PUSH2 0x18FF JUMPI PUSH1 0x40 MLOAD PUSH3 0x461BCD PUSH1 0xE5 SHL DUP2 MSTORE PUSH1 0x20 PUSH1 0x4 DUP3 ADD MSTORE PUSH1 0x26 PUSH1 0x24 DUP3 ADD MSTORE PUSH32 0x53616665436173743A2076616C756520646F65736E27742066697420696E2033 PUSH1 0x44 DUP3 ADD MSTORE PUSH6 0x322062697473 PUSH1 0xD0 SHL PUSH1 0x64 DUP3 ADD MSTORE PUSH1 0x84 ADD PUSH2 0x6CE JUMP JUMPDEST POP SWAP1 JUMP JUMPDEST PUSH1 0xFB SLOAD PUSH1 0x1 PUSH1 0x1 PUSH1 0xA0 SHL SUB AND CALLER EQ PUSH2 0x928 JUMPI PUSH1 0x40 MLOAD PUSH3 0x461BCD PUSH1 0xE5 SHL DUP2 MSTORE PUSH1 0x20 PUSH1 0x4 DUP3 ADD DUP2 SWAP1 MSTORE PUSH1 0x24 DUP3 ADD MSTORE PUSH32 0x4F776E61626C653A2063616C6C6572206973206E6F7420746865206F776E6572 PUSH1 0x44 DUP3 ADD MSTORE PUSH1 0x64 ADD PUSH2 0x6CE JUMP JUMPDEST PUSH1 0xFB DUP1 SLOAD PUSH1 0x1 PUSH1 0x1 PUSH1 0xA0 SHL SUB DUP4 DUP2 AND PUSH1 0x1 PUSH1 0x1 PUSH1 0xA0 SHL SUB NOT DUP4 AND DUP2 OR SWAP1 SWAP4 SSTORE PUSH1 0x40 MLOAD SWAP2 AND SWAP2 SWAP1 DUP3 SWAP1 PUSH32 0x8BE0079C531659141344CD1FD0A4F28419497F9722A3DAAFE3B4186F6B6457E0 SWAP1 PUSH1 0x0 SWAP1 LOG3 POP POP JUMP JUMPDEST PUSH1 0x0 PUSH1 0x1 PUSH1 0x1 PUSH1 0x60 SHL SUB DUP3 GT ISZERO PUSH2 0x18FF JUMPI PUSH1 0x40 MLOAD PUSH3 0x461BCD PUSH1 0xE5 SHL DUP2 MSTORE PUSH1 0x20 PUSH1 0x4 DUP3 ADD MSTORE PUSH1 0x26 PUSH1 0x24 DUP3 ADD MSTORE PUSH32 0x53616665436173743A2076616C756520646F65736E27742066697420696E2039 PUSH1 0x44 DUP3 ADD MSTORE PUSH6 0x362062697473 PUSH1 0xD0 SHL PUSH1 0x64 DUP3 ADD MSTORE PUSH1 0x84 ADD PUSH2 0x6CE JUMP JUMPDEST PUSH2 0x953 DUP3 DUP3 PUSH2 0x1E08 JUMP JUMPDEST PUSH1 0x0 SLOAD PUSH2 0x100 SWAP1 DIV PUSH1 0xFF AND PUSH2 0x1A48 JUMPI PUSH1 0x40 MLOAD PUSH3 0x461BCD PUSH1 0xE5 SHL DUP2 MSTORE PUSH1 0x4 ADD PUSH2 0x6CE SWAP1 PUSH2 0x31D1 JUMP JUMPDEST PUSH2 0x928 PUSH2 0x1E98 JUMP JUMPDEST PUSH1 0x0 SLOAD PUSH2 0x100 SWAP1 DIV PUSH1 0xFF AND PUSH2 0x1A77 JUMPI PUSH1 0x40 MLOAD PUSH3 0x461BCD PUSH1 0xE5 SHL DUP2 MSTORE PUSH1 0x4 ADD PUSH2 0x6CE SWAP1 PUSH2 0x31D1 JUMP JUMPDEST PUSH2 0x953 DUP3 DUP3 PUSH2 0x1ECB JUMP JUMPDEST PUSH1 0x0 SLOAD PUSH2 0x100 SWAP1 DIV PUSH1 0xFF AND PUSH2 0x1AA8 JUMPI PUSH1 0x40 MLOAD PUSH3 0x461BCD PUSH1 0xE5 SHL DUP2 MSTORE PUSH1 0x4 ADD PUSH2 0x6CE SWAP1 PUSH2 0x31D1 JUMP JUMPDEST PUSH2 0x928 PUSH2 0x1F19 JUMP JUMPDEST PUSH1 0x65 SLOAD PUSH1 0xFF AND ISZERO PUSH2 0x928 JUMPI PUSH1 0x40 MLOAD PUSH3 0x461BCD PUSH1 0xE5 SHL DUP2 MSTORE PUSH1 0x20 PUSH1 0x4 DUP3 ADD MSTORE PUSH1 0x10 PUSH1 0x24 DUP3 ADD MSTORE PUSH16 0x14185D5CD8589B194E881C185D5CD959 PUSH1 0x82 SHL PUSH1 0x44 DUP3 ADD MSTORE PUSH1 0x64 ADD PUSH2 0x6CE JUMP JUMPDEST PUSH1 0x0 PUSH2 0x66B PUSH2 0x1B03 PUSH2 0x16A1 JUMP JUMPDEST DUP4 PUSH1 0x40 MLOAD PUSH2 0x1901 PUSH1 0xF0 SHL PUSH1 0x20 DUP3 ADD MSTORE PUSH1 0x22 DUP2 ADD DUP4 SWAP1 MSTORE PUSH1 0x42 DUP2 ADD DUP3 SWAP1 MSTORE PUSH1 0x0 SWAP1 PUSH1 0x62 ADD PUSH1 0x40 MLOAD PUSH1 0x20 DUP2 DUP4 SUB SUB DUP2 MSTORE SWAP1 PUSH1 0x40 MSTORE DUP1 MLOAD SWAP1 PUSH1 0x20 ADD KECCAK256 SWAP1 POP SWAP3 SWAP2 POP POP JUMP JUMPDEST PUSH1 0x0 DUP1 PUSH1 0x0 PUSH2 0x1B55 DUP8 DUP8 DUP8 DUP8 PUSH2 0x1F49 JUMP JUMPDEST SWAP2 POP SWAP2 POP PUSH2 0x1B62 DUP2 PUSH2 0x200D JUMP JUMPDEST POP SWAP6 SWAP5 POP POP POP POP POP JUMP JUMPDEST PUSH1 0x1 PUSH1 0x1 PUSH1 0xA0 SHL SUB DUP2 AND PUSH1 0x0 SWAP1 DUP2 MSTORE PUSH2 0x161 PUSH1 0x20 MSTORE PUSH1 0x40 SWAP1 KECCAK256 DUP1 SLOAD PUSH1 0x1 DUP2 ADD DUP3 SSTORE SWAP1 JUMPDEST POP SWAP2 SWAP1 POP JUMP JUMPDEST PUSH2 0x1BA0 DUP4 DUP4 DUP4 PUSH2 0x215B JUMP JUMPDEST POP POP POP JUMP JUMPDEST PUSH2 0x1BA0 DUP4 DUP4 DUP4 PUSH2 0x21C1 JUMP JUMPDEST PUSH1 0x0 DUP2 PUSH2 0x1BBF JUMPI POP PUSH1 0x0 SWAP2 SWAP1 POP JUMP JUMPDEST PUSH1 0x0 PUSH1 0x1 PUSH2 0x1BCC DUP5 PUSH2 0x21F4 JUMP JUMPDEST SWAP1 SHR PUSH1 0x1 SWAP1 SHL SWAP1 POP PUSH1 0x1 DUP2 DUP5 DUP2 PUSH2 0x1BE5 JUMPI PUSH2 0x1BE5 PUSH2 0x2CD9 JUMP JUMPDEST DIV DUP3 ADD SWAP1 SHR SWAP1 POP PUSH1 0x1 DUP2 DUP5 DUP2 PUSH2 0x1BFD JUMPI PUSH2 0x1BFD PUSH2 0x2CD9 JUMP JUMPDEST DIV DUP3 ADD SWAP1 SHR SWAP1 POP PUSH1 0x1 DUP2 DUP5 DUP2 PUSH2 0x1C15 JUMPI PUSH2 0x1C15 PUSH2 0x2CD9 JUMP JUMPDEST DIV DUP3 ADD SWAP1 SHR SWAP1 POP PUSH1 0x1 DUP2 DUP5 DUP2 PUSH2 0x1C2D JUMPI PUSH2 0x1C2D PUSH2 0x2CD9 JUMP JUMPDEST DIV DUP3 ADD SWAP1 SHR SWAP1 POP PUSH1 0x1 DUP2 DUP5 DUP2 PUSH2 0x1C45 JUMPI PUSH2 0x1C45 PUSH2 0x2CD9 JUMP JUMPDEST DIV DUP3 ADD SWAP1 SHR SWAP1 POP PUSH1 0x1 DUP2 DUP5 DUP2 PUSH2 0x1C5D JUMPI PUSH2 0x1C5D PUSH2 0x2CD9 JUMP JUMPDEST DIV DUP3 ADD SWAP1 SHR SWAP1 POP PUSH1 0x1 DUP2 DUP5 DUP2 PUSH2 0x1C75 JUMPI PUSH2 0x1C75 PUSH2 0x2CD9 JUMP JUMPDEST DIV DUP3 ADD SWAP1 SHR SWAP1 POP PUSH2 0x8D8 DUP2 DUP3 DUP6 DUP2 PUSH2 0x1C8F JUMPI PUSH2 0x1C8F PUSH2 0x2CD9 JUMP JUMPDEST DIV PUSH2 0x2288 JUMP JUMPDEST PUSH1 0x0 PUSH2 0x1CA4 PUSH1 0x2 DUP5 DUP5 XOR PUSH2 0x2CEF JUMP JUMPDEST PUSH2 0x8D8 SWAP1 DUP5 DUP5 AND PUSH2 0x2BCE JUMP JUMPDEST PUSH2 0x1CBA DUP3 DUP3 PUSH2 0x229E JUMP JUMPDEST PUSH2 0x14DF PUSH2 0x196 PUSH2 0x23E5 DUP4 PUSH2 0x23F1 JUMP JUMPDEST DUP2 PUSH1 0x1 PUSH1 0x1 PUSH1 0xA0 SHL SUB AND DUP4 PUSH1 0x1 PUSH1 0x1 PUSH1 0xA0 SHL SUB AND EQ ISZERO DUP1 ISZERO PUSH2 0x1CEB JUMPI POP PUSH1 0x0 DUP2 GT JUMPDEST ISZERO PUSH2 0x1BA0 JUMPI PUSH1 0x1 PUSH1 0x1 PUSH1 0xA0 SHL SUB DUP4 AND ISZERO PUSH2 0x1D7A JUMPI PUSH1 0x1 PUSH1 0x1 PUSH1 0xA0 SHL SUB DUP4 AND PUSH1 0x0 SWAP1 DUP2 MSTORE PUSH2 0x195 PUSH1 0x20 MSTORE PUSH1 0x40 DUP2 KECCAK256 DUP2 SWAP1 PUSH2 0x1D27 SWAP1 PUSH2 0x23E5 DUP6 PUSH2 0x23F1 JUMP JUMPDEST SWAP2 POP SWAP2 POP DUP5 PUSH1 0x1 PUSH1 0x1 PUSH1 0xA0 SHL SUB AND PUSH32 0xDEC2BACDD2F05B59DE34DA9B523DFF8BE42E5E38E818C82FDB0BAE774387A724 DUP4 DUP4 PUSH1 0x40 MLOAD PUSH2 0x1D6F SWAP3 SWAP2 SWAP1 SWAP2 DUP3 MSTORE PUSH1 0x20 DUP3 ADD MSTORE PUSH1 0x40 ADD SWAP1 JUMP JUMPDEST PUSH1 0x40 MLOAD DUP1 SWAP2 SUB SWAP1 LOG2 POP POP JUMPDEST PUSH1 0x1 PUSH1 0x1 PUSH1 0xA0 SHL SUB DUP3 AND ISZERO PUSH2 0x1BA0 JUMPI PUSH1 0x1 PUSH1 0x1 PUSH1 0xA0 SHL SUB DUP3 AND PUSH1 0x0 SWAP1 DUP2 MSTORE PUSH2 0x195 PUSH1 0x20 MSTORE PUSH1 0x40 DUP2 KECCAK256 DUP2 SWAP1 PUSH2 0x1DB1 SWAP1 PUSH2 0x2545 DUP6 PUSH2 0x23F1 JUMP JUMPDEST SWAP2 POP SWAP2 POP DUP4 PUSH1 0x1 PUSH1 0x1 PUSH1 0xA0 SHL SUB AND PUSH32 0xDEC2BACDD2F05B59DE34DA9B523DFF8BE42E5E38E818C82FDB0BAE774387A724 DUP4 DUP4 PUSH1 0x40 MLOAD PUSH2 0x1DF9 SWAP3 SWAP2 SWAP1 SWAP2 DUP3 MSTORE PUSH1 0x20 DUP3 ADD MSTORE PUSH1 0x40 ADD SWAP1 JUMP JUMPDEST PUSH1 0x40 MLOAD DUP1 SWAP2 SUB SWAP1 LOG2 POP POP POP POP POP JUMP JUMPDEST PUSH2 0x1E12 DUP3 DUP3 PUSH2 0x2551 JUMP JUMPDEST PUSH1 0x1 PUSH1 0x1 PUSH1 0x60 SHL SUB PUSH2 0x1E22 PUSH2 0x70E JUMP JUMPDEST GT ISZERO PUSH2 0x1E89 JUMPI PUSH1 0x40 MLOAD PUSH3 0x461BCD PUSH1 0xE5 SHL DUP2 MSTORE PUSH1 0x20 PUSH1 0x4 DUP3 ADD MSTORE PUSH1 0x30 PUSH1 0x24 DUP3 ADD MSTORE PUSH32 0x4552433230566F7465733A20746F74616C20737570706C79207269736B73206F PUSH1 0x44 DUP3 ADD MSTORE PUSH16 0x766572666C6F77696E6720766F746573 PUSH1 0x80 SHL PUSH1 0x64 DUP3 ADD MSTORE PUSH1 0x84 ADD PUSH2 0x6CE JUMP JUMPDEST PUSH2 0x14DF PUSH2 0x196 PUSH2 0x2545 DUP4 PUSH2 0x23F1 JUMP JUMPDEST PUSH1 0x0 SLOAD PUSH2 0x100 SWAP1 DIV PUSH1 0xFF AND PUSH2 0x1EBF JUMPI PUSH1 0x40 MLOAD PUSH3 0x461BCD PUSH1 0xE5 SHL DUP2 MSTORE PUSH1 0x4 ADD PUSH2 0x6CE SWAP1 PUSH2 0x31D1 JUMP JUMPDEST PUSH1 0x65 DUP1 SLOAD PUSH1 0xFF NOT AND SWAP1 SSTORE JUMP JUMPDEST PUSH1 0x0 SLOAD PUSH2 0x100 SWAP1 DIV PUSH1 0xFF AND PUSH2 0x1EF2 JUMPI PUSH1 0x40 MLOAD PUSH3 0x461BCD PUSH1 0xE5 SHL DUP2 MSTORE PUSH1 0x4 ADD PUSH2 0x6CE SWAP1 PUSH2 0x31D1 JUMP JUMPDEST DUP2 MLOAD PUSH2 0x1F05 SWAP1 PUSH1 0x36 SWAP1 PUSH1 0x20 DUP6 ADD SWAP1 PUSH2 0x268F JUMP JUMPDEST POP DUP1 MLOAD PUSH2 0x1BA0 SWAP1 PUSH1 0x37 SWAP1 PUSH1 0x20 DUP5 ADD SWAP1 PUSH2 0x268F JUMP JUMPDEST PUSH1 0x0 SLOAD PUSH2 0x100 SWAP1 DIV PUSH1 0xFF AND PUSH2 0x1F40 JUMPI PUSH1 0x40 MLOAD PUSH3 0x461BCD PUSH1 0xE5 SHL DUP2 MSTORE PUSH1 0x4 ADD PUSH2 0x6CE SWAP1 PUSH2 0x31D1 JUMP JUMPDEST PUSH2 0x928 CALLER PUSH2 0x195D JUMP JUMPDEST PUSH1 0x0 DUP1 PUSH32 0x7FFFFFFFFFFFFFFFFFFFFFFFFFFFFFFF5D576E7357A4501DDFE92F46681B20A0 DUP4 GT ISZERO PUSH2 0x1F80 JUMPI POP PUSH1 0x0 SWAP1 POP PUSH1 0x3 PUSH2 0x2004 JUMP JUMPDEST PUSH1 0x40 DUP1 MLOAD PUSH1 0x0 DUP1 DUP3 MSTORE PUSH1 0x20 DUP3 ADD DUP1 DUP5 MSTORE DUP10 SWAP1 MSTORE PUSH1 0xFF DUP9 AND SWAP3 DUP3 ADD SWAP3 SWAP1 SWAP3 MSTORE PUSH1 0x60 DUP2 ADD DUP7 SWAP1 MSTORE PUSH1 0x80 DUP2 ADD DUP6 SWAP1 MSTORE PUSH1 0x1 SWAP1 PUSH1 0xA0 ADD PUSH1 0x20 PUSH1 0x40 MLOAD PUSH1 0x20 DUP2 SUB SWAP1 DUP1 DUP5 SUB SWAP1 DUP6 GAS STATICCALL ISZERO DUP1 ISZERO PUSH2 0x1FD4 JUMPI RETURNDATASIZE PUSH1 0x0 DUP1 RETURNDATACOPY RETURNDATASIZE PUSH1 0x0 REVERT JUMPDEST POP POP PUSH1 0x40 MLOAD PUSH1 0x1F NOT ADD MLOAD SWAP2 POP POP PUSH1 0x1 PUSH1 0x1 PUSH1 0xA0 SHL SUB DUP2 AND PUSH2 0x1FFD JUMPI PUSH1 0x0 PUSH1 0x1 SWAP3 POP SWAP3 POP POP PUSH2 0x2004 JUMP JUMPDEST SWAP2 POP PUSH1 0x0 SWAP1 POP JUMPDEST SWAP5 POP SWAP5 SWAP3 POP POP POP JUMP JUMPDEST PUSH1 0x0 DUP2 PUSH1 0x4 DUP2 GT ISZERO PUSH2 0x2021 JUMPI PUSH2 0x2021 PUSH2 0x321C JUMP JUMPDEST EQ ISZERO PUSH2 0x202A JUMPI POP JUMP JUMPDEST PUSH1 0x1 DUP2 PUSH1 0x4 DUP2 GT ISZERO PUSH2 0x203E JUMPI PUSH2 0x203E PUSH2 0x321C JUMP JUMPDEST EQ ISZERO PUSH2 0x208C JUMPI PUSH1 0x40 MLOAD PUSH3 0x461BCD PUSH1 0xE5 SHL DUP2 MSTORE PUSH1 0x20 PUSH1 0x4 DUP3 ADD MSTORE PUSH1 0x18 PUSH1 0x24 DUP3 ADD MSTORE PUSH32 0x45434453413A20696E76616C6964207369676E61747572650000000000000000 PUSH1 0x44 DUP3 ADD MSTORE PUSH1 0x64 ADD PUSH2 0x6CE JUMP JUMPDEST PUSH1 0x2 DUP2 PUSH1 0x4 DUP2 GT ISZERO PUSH2 0x20A0 JUMPI PUSH2 0x20A0 PUSH2 0x321C JUMP JUMPDEST EQ ISZERO PUSH2 0x20EE JUMPI PUSH1 0x40 MLOAD PUSH3 0x461BCD PUSH1 0xE5 SHL DUP2 MSTORE PUSH1 0x20 PUSH1 0x4 DUP3 ADD MSTORE PUSH1 0x1F PUSH1 0x24 DUP3 ADD MSTORE PUSH32 0x45434453413A20696E76616C6964207369676E6174757265206C656E67746800 PUSH1 0x44 DUP3 ADD MSTORE PUSH1 0x64 ADD PUSH2 0x6CE JUMP JUMPDEST PUSH1 0x3 DUP2 PUSH1 0x4 DUP2 GT ISZERO PUSH2 0x2102 JUMPI PUSH2 0x2102 PUSH2 0x321C JUMP JUMPDEST EQ ISZERO PUSH2 0x70B JUMPI PUSH1 0x40 MLOAD PUSH3 0x461BCD PUSH1 0xE5 SHL DUP2 MSTORE PUSH1 0x20 PUSH1 0x4 DUP3 ADD MSTORE PUSH1 0x22 PUSH1 0x24 DUP3 ADD MSTORE PUSH32 0x45434453413A20696E76616C6964207369676E6174757265202773272076616C PUSH1 0x44 DUP3 ADD MSTORE PUSH2 0x7565 PUSH1 0xF0 SHL PUSH1 0x64 DUP3 ADD MSTORE PUSH1 0x84 ADD PUSH2 0x6CE JUMP JUMPDEST PUSH1 0x65 SLOAD PUSH1 0xFF AND ISZERO PUSH2 0x1BA0 JUMPI PUSH1 0x40 MLOAD PUSH3 0x461BCD PUSH1 0xE5 SHL DUP2 MSTORE PUSH1 0x20 PUSH1 0x4 DUP3 ADD MSTORE PUSH1 0x2A PUSH1 0x24 DUP3 ADD MSTORE PUSH32 0x45524332305061757361626C653A20746F6B656E207472616E73666572207768 PUSH1 0x44 DUP3 ADD MSTORE PUSH10 0x1A5B19481C185D5CD959 PUSH1 0xB2 SHL PUSH1 0x64 DUP3 ADD MSTORE PUSH1 0x84 ADD PUSH2 0x6CE JUMP JUMPDEST PUSH1 0x1 PUSH1 0x1 PUSH1 0xA0 SHL SUB DUP4 DUP2 AND PUSH1 0x0 SWAP1 DUP2 MSTORE PUSH2 0x194 PUSH1 0x20 MSTORE PUSH1 0x40 DUP1 DUP3 KECCAK256 SLOAD DUP6 DUP5 AND DUP4 MSTORE SWAP2 KECCAK256 SLOAD PUSH2 0x1BA0 SWAP3 SWAP2 DUP3 AND SWAP2 AND DUP4 PUSH2 0x1CC9 JUMP JUMPDEST PUSH1 0x0 DUP1 PUSH1 0x80 DUP4 SWAP1 SHR ISZERO PUSH2 0x2209 JUMPI PUSH1 0x80 SWAP3 DUP4 SHR SWAP3 ADD JUMPDEST PUSH1 0x40 DUP4 SWAP1 SHR ISZERO PUSH2 0x221B JUMPI PUSH1 0x40 SWAP3 DUP4 SHR SWAP3 ADD JUMPDEST PUSH1 0x20 DUP4 SWAP1 SHR ISZERO PUSH2 0x222D JUMPI PUSH1 0x20 SWAP3 DUP4 SHR SWAP3 ADD JUMPDEST PUSH1 0x10 DUP4 SWAP1 SHR ISZERO PUSH2 0x223F JUMPI PUSH1 0x10 SWAP3 DUP4 SHR SWAP3 ADD JUMPDEST PUSH1 0x8 DUP4 SWAP1 SHR ISZERO PUSH2 0x2251 JUMPI PUSH1 0x8 SWAP3 DUP4 SHR SWAP3 ADD JUMPDEST PUSH1 0x4 DUP4 SWAP1 SHR ISZERO PUSH2 0x2263 JUMPI PUSH1 0x4 SWAP3 DUP4 SHR SWAP3 ADD JUMPDEST PUSH1 0x2 DUP4 SWAP1 SHR ISZERO PUSH2 0x2275 JUMPI PUSH1 0x2 SWAP3 DUP4 SHR SWAP3 ADD JUMPDEST PUSH1 0x1 DUP4 SWAP1 SHR ISZERO PUSH2 0x66B JUMPI PUSH1 0x1 ADD SWAP3 SWAP2 POP POP JUMP JUMPDEST PUSH1 0x0 DUP2 DUP4 LT PUSH2 0x2297 JUMPI DUP2 PUSH2 0x8D8 JUMP JUMPDEST POP SWAP1 SWAP2 SWAP1 POP JUMP JUMPDEST PUSH1 0x1 PUSH1 0x1 PUSH1 0xA0 SHL SUB DUP3 AND PUSH2 0x22FE JUMPI PUSH1 0x40 MLOAD PUSH3 0x461BCD PUSH1 0xE5 SHL DUP2 MSTORE PUSH1 0x20 PUSH1 0x4 DUP3 ADD MSTORE PUSH1 0x21 PUSH1 0x24 DUP3 ADD MSTORE PUSH32 0x45524332303A206275726E2066726F6D20746865207A65726F20616464726573 PUSH1 0x44 DUP3 ADD MSTORE PUSH1 0x73 PUSH1 0xF8 SHL PUSH1 0x64 DUP3 ADD MSTORE PUSH1 0x84 ADD PUSH2 0x6CE JUMP JUMPDEST PUSH2 0x230A DUP3 PUSH1 0x0 DUP4 PUSH2 0x1B95 JUMP JUMPDEST PUSH1 0x1 PUSH1 0x1 PUSH1 0xA0 SHL SUB DUP3 AND PUSH1 0x0 SWAP1 DUP2 MSTORE PUSH1 0x33 PUSH1 0x20 MSTORE PUSH1 0x40 SWAP1 KECCAK256 SLOAD DUP2 DUP2 LT ISZERO PUSH2 0x237E JUMPI PUSH1 0x40 MLOAD PUSH3 0x461BCD PUSH1 0xE5 SHL DUP2 MSTORE PUSH1 0x20 PUSH1 0x4 DUP3 ADD MSTORE PUSH1 0x22 PUSH1 0x24 DUP3 ADD MSTORE PUSH32 0x45524332303A206275726E20616D6F756E7420657863656564732062616C616E PUSH1 0x44 DUP3 ADD MSTORE PUSH2 0x6365 PUSH1 0xF0 SHL PUSH1 0x64 DUP3 ADD MSTORE PUSH1 0x84 ADD PUSH2 0x6CE JUMP JUMPDEST PUSH1 0x1 PUSH1 0x1 PUSH1 0xA0 SHL SUB DUP4 AND PUSH1 0x0 DUP2 DUP2 MSTORE PUSH1 0x33 PUSH1 0x20 SWAP1 DUP2 MSTORE PUSH1 0x40 DUP1 DUP4 KECCAK256 DUP7 DUP7 SUB SWAP1 SSTORE PUSH1 0x35 DUP1 SLOAD DUP8 SWAP1 SUB SWAP1 SSTORE MLOAD DUP6 DUP2 MSTORE SWAP2 SWAP3 SWAP2 PUSH32 0xDDF252AD1BE2C89B69C2B068FC378DAA952BA7F163C4A11628F55A4DF523B3EF SWAP2 ADD PUSH1 0x40 MLOAD DUP1 SWAP2 SUB SWAP1 LOG3 PUSH2 0x1BA0 DUP4 PUSH1 0x0 DUP5 PUSH2 0x1BA5 JUMP JUMPDEST PUSH1 0x0 PUSH2 0x8D8 DUP3 DUP5 PUSH2 0x2BB7 JUMP JUMPDEST DUP3 SLOAD PUSH1 0x0 SWAP1 DUP2 SWAP1 DUP2 DUP2 ISZERO PUSH2 0x243E JUMPI PUSH2 0x240E DUP8 PUSH2 0x17DA PUSH1 0x1 DUP6 PUSH2 0x2BB7 JUMP JUMPDEST PUSH1 0x40 DUP1 MLOAD DUP1 DUP3 ADD SWAP1 SWAP2 MSTORE SWAP1 SLOAD PUSH4 0xFFFFFFFF DUP2 AND DUP3 MSTORE PUSH5 0x100000000 SWAP1 DIV PUSH1 0x1 PUSH1 0x1 PUSH1 0xE0 SHL SUB AND PUSH1 0x20 DUP3 ADD MSTORE PUSH2 0x2453 JUMP JUMPDEST PUSH1 0x40 DUP1 MLOAD DUP1 DUP3 ADD SWAP1 SWAP2 MSTORE PUSH1 0x0 DUP1 DUP3 MSTORE PUSH1 0x20 DUP3 ADD MSTORE JUMPDEST SWAP1 POP DUP1 PUSH1 0x20 ADD MLOAD PUSH1 0x1 PUSH1 0x1 PUSH1 0xE0 SHL SUB AND SWAP4 POP PUSH2 0x2473 DUP5 DUP7 DUP9 PUSH4 0xFFFFFFFF AND JUMP JUMPDEST SWAP3 POP PUSH1 0x0 DUP3 GT DUP1 ISZERO PUSH2 0x248B JUMPI POP DUP1 MLOAD PUSH4 0xFFFFFFFF AND NUMBER EQ JUMPDEST ISZERO PUSH2 0x24D0 JUMPI PUSH2 0x2499 DUP4 PUSH2 0x2626 JUMP JUMPDEST PUSH2 0x24A8 DUP9 PUSH2 0x17DA PUSH1 0x1 DUP7 PUSH2 0x2BB7 JUMP JUMPDEST DUP1 SLOAD PUSH1 0x1 PUSH1 0x1 PUSH1 0xE0 SHL SUB SWAP3 SWAP1 SWAP3 AND PUSH5 0x100000000 MUL PUSH4 0xFFFFFFFF SWAP1 SWAP3 AND SWAP2 SWAP1 SWAP2 OR SWAP1 SSTORE PUSH2 0x253B JUMP JUMPDEST DUP7 PUSH1 0x40 MLOAD DUP1 PUSH1 0x40 ADD PUSH1 0x40 MSTORE DUP1 PUSH2 0x24E5 NUMBER PUSH2 0x189A JUMP JUMPDEST PUSH4 0xFFFFFFFF AND DUP2 MSTORE PUSH1 0x20 ADD PUSH2 0x24F9 DUP7 PUSH2 0x2626 JUMP JUMPDEST PUSH1 0x1 PUSH1 0x1 PUSH1 0xE0 SHL SUB SWAP1 DUP2 AND SWAP1 SWAP2 MSTORE DUP3 SLOAD PUSH1 0x1 DUP2 ADD DUP5 SSTORE PUSH1 0x0 SWAP4 DUP5 MSTORE PUSH1 0x20 SWAP4 DUP5 SWAP1 KECCAK256 DUP4 MLOAD SWAP5 SWAP1 SWAP4 ADD MLOAD SWAP1 SWAP2 AND PUSH5 0x100000000 MUL PUSH4 0xFFFFFFFF SWAP1 SWAP4 AND SWAP3 SWAP1 SWAP3 OR SWAP2 ADD SSTORE JUMPDEST POP POP SWAP4 POP SWAP4 SWAP2 POP POP JUMP JUMPDEST PUSH1 0x0 PUSH2 0x8D8 DUP3 DUP5 PUSH2 0x2BCE JUMP JUMPDEST PUSH1 0x1 PUSH1 0x1 PUSH1 0xA0 SHL SUB DUP3 AND PUSH2 0x25A7 JUMPI PUSH1 0x40 MLOAD PUSH3 0x461BCD PUSH1 0xE5 SHL DUP2 MSTORE PUSH1 0x20 PUSH1 0x4 DUP3 ADD MSTORE PUSH1 0x1F PUSH1 0x24 DUP3 ADD MSTORE PUSH32 0x45524332303A206D696E7420746F20746865207A65726F206164647265737300 PUSH1 0x44 DUP3 ADD MSTORE PUSH1 0x64 ADD PUSH2 0x6CE JUMP JUMPDEST PUSH2 0x25B3 PUSH1 0x0 DUP4 DUP4 PUSH2 0x1B95 JUMP JUMPDEST DUP1 PUSH1 0x35 PUSH1 0x0 DUP3 DUP3 SLOAD PUSH2 0x25C5 SWAP2 SWAP1 PUSH2 0x2BCE JUMP JUMPDEST SWAP1 SWAP2 SSTORE POP POP PUSH1 0x1 PUSH1 0x1 PUSH1 0xA0 SHL SUB DUP3 AND PUSH1 0x0 DUP2 DUP2 MSTORE PUSH1 0x33 PUSH1 0x20 SWAP1 DUP2 MSTORE PUSH1 0x40 DUP1 DUP4 KECCAK256 DUP1 SLOAD DUP7 ADD SWAP1 SSTORE MLOAD DUP5 DUP2 MSTORE PUSH32 0xDDF252AD1BE2C89B69C2B068FC378DAA952BA7F163C4A11628F55A4DF523B3EF SWAP2 ADD PUSH1 0x40 MLOAD DUP1 SWAP2 SUB SWAP1 LOG3 PUSH2 0x953 PUSH1 0x0 DUP4 DUP4 PUSH2 0x1BA5 JUMP JUMPDEST PUSH1 0x0 PUSH1 0x1 PUSH1 0x1 PUSH1 0xE0 SHL SUB DUP3 GT ISZERO PUSH2 0x18FF JUMPI PUSH1 0x40 MLOAD PUSH3 0x461BCD PUSH1 0xE5 SHL DUP2 MSTORE PUSH1 0x20 PUSH1 0x4 DUP3 ADD MSTORE PUSH1 0x27 PUSH1 0x24 DUP3 ADD MSTORE PUSH32 0x53616665436173743A2076616C756520646F65736E27742066697420696E2032 PUSH1 0x44 DUP3 ADD MSTORE PUSH7 0x32342062697473 PUSH1 0xC8 SHL PUSH1 0x64 DUP3 ADD MSTORE PUSH1 0x84 ADD PUSH2 0x6CE JUMP JUMPDEST DUP3 DUP1 SLOAD PUSH2 0x269B SWAP1 PUSH2 0x2B1F JUMP JUMPDEST SWAP1 PUSH1 0x0 MSTORE PUSH1 0x20 PUSH1 0x0 KECCAK256 SWAP1 PUSH1 0x1F ADD PUSH1 0x20 SWAP1 DIV DUP2 ADD SWAP3 DUP3 PUSH2 0x26BD JUMPI PUSH1 0x0 DUP6 SSTORE PUSH2 0x2703 JUMP JUMPDEST DUP3 PUSH1 0x1F LT PUSH2 0x26D6 JUMPI DUP1 MLOAD PUSH1 0xFF NOT AND DUP4 DUP1 ADD OR DUP6 SSTORE PUSH2 0x2703 JUMP JUMPDEST DUP3 DUP1 ADD PUSH1 0x1 ADD DUP6 SSTORE DUP3 ISZERO PUSH2 0x2703 JUMPI SWAP2 DUP3 ADD JUMPDEST DUP3 DUP2 GT ISZERO PUSH2 0x2703 JUMPI DUP3 MLOAD DUP3 SSTORE SWAP2 PUSH1 0x20 ADD SWAP2 SWAP1 PUSH1 0x1 ADD SWAP1 PUSH2 0x26E8 JUMP JUMPDEST POP PUSH2 0x18FF SWAP3 SWAP2 POP JUMPDEST DUP1 DUP3 GT ISZERO PUSH2 0x18FF JUMPI PUSH1 0x0 DUP2 SSTORE PUSH1 0x1 ADD PUSH2 0x270B JUMP JUMPDEST PUSH1 0x0 JUMPDEST DUP4 DUP2 LT ISZERO PUSH2 0x273A JUMPI DUP2 DUP2 ADD MLOAD DUP4 DUP3 ADD MSTORE PUSH1 0x20 ADD PUSH2 0x2722 JUMP JUMPDEST DUP4 DUP2 GT ISZERO PUSH2 0x14DF JUMPI POP POP PUSH1 0x0 SWAP2 ADD MSTORE JUMP JUMPDEST PUSH1 0x20 DUP2 MSTORE PUSH1 0x0 DUP3 MLOAD DUP1 PUSH1 0x20 DUP5 ADD MSTORE PUSH2 0x276A DUP2 PUSH1 0x40 DUP6 ADD PUSH1 0x20 DUP8 ADD PUSH2 0x271F JUMP JUMPDEST PUSH1 0x1F ADD PUSH1 0x1F NOT AND SWAP2 SWAP1 SWAP2 ADD PUSH1 0x40 ADD SWAP3 SWAP2 POP POP JUMP JUMPDEST PUSH1 0x1 PUSH1 0x1 PUSH1 0xA0 SHL SUB DUP2 AND DUP2 EQ PUSH2 0x70B JUMPI PUSH1 0x0 DUP1 REVERT JUMPDEST PUSH1 0x0 DUP1 PUSH1 0x40 DUP4 DUP6 SUB SLT ISZERO PUSH2 0x27A6 JUMPI PUSH1 0x0 DUP1 REVERT JUMPDEST DUP3 CALLDATALOAD PUSH2 0x27B1 DUP2 PUSH2 0x277E JUMP JUMPDEST SWAP5 PUSH1 0x20 SWAP4 SWAP1 SWAP4 ADD CALLDATALOAD SWAP4 POP POP POP JUMP JUMPDEST PUSH1 0x0 PUSH1 0x20 DUP3 DUP5 SUB SLT ISZERO PUSH2 0x27D1 JUMPI PUSH1 0x0 DUP1 REVERT JUMPDEST DUP2 CALLDATALOAD PUSH2 0x8D8 DUP2 PUSH2 0x277E JUMP JUMPDEST PUSH1 0x0 DUP1 PUSH1 0x0 PUSH1 0x60 DUP5 DUP7 SUB SLT ISZERO PUSH2 0x27F1 JUMPI PUSH1 0x0 DUP1 REVERT JUMPDEST DUP4 CALLDATALOAD PUSH2 0x27FC DUP2 PUSH2 0x277E JUMP JUMPDEST SWAP3 POP PUSH1 0x20 DUP5 ADD CALLDATALOAD PUSH2 0x280C DUP2 PUSH2 0x277E JUMP JUMPDEST SWAP3 SWAP6 SWAP3 SWAP5 POP POP POP PUSH1 0x40 SWAP2 SWAP1 SWAP2 ADD CALLDATALOAD SWAP1 JUMP JUMPDEST PUSH1 0x0 PUSH1 0x20 DUP3 DUP5 SUB SLT ISZERO PUSH2 0x282F JUMPI PUSH1 0x0 DUP1 REVERT JUMPDEST POP CALLDATALOAD SWAP2 SWAP1 POP JUMP JUMPDEST PUSH4 0x4E487B71 PUSH1 0xE0 SHL PUSH1 0x0 MSTORE PUSH1 0x41 PUSH1 0x4 MSTORE PUSH1 0x24 PUSH1 0x0 REVERT JUMPDEST PUSH1 0x40 MLOAD PUSH1 0xA0 DUP2 ADD PUSH8 0xFFFFFFFFFFFFFFFF DUP2 GT DUP3 DUP3 LT OR ISZERO PUSH2 0x286F JUMPI PUSH2 0x286F PUSH2 0x2836 JUMP JUMPDEST PUSH1 0x40 MSTORE SWAP1 JUMP JUMPDEST PUSH1 0x40 MLOAD PUSH2 0x260 DUP2 ADD PUSH8 0xFFFFFFFFFFFFFFFF DUP2 GT DUP3 DUP3 LT OR ISZERO PUSH2 0x286F JUMPI PUSH2 0x286F PUSH2 0x2836 JUMP JUMPDEST PUSH1 0x40 MLOAD PUSH1 0x1F DUP3 ADD PUSH1 0x1F NOT AND DUP2 ADD PUSH8 0xFFFFFFFFFFFFFFFF DUP2 GT DUP3 DUP3 LT OR ISZERO PUSH2 0x28C2 JUMPI PUSH2 0x28C2 PUSH2 0x2836 JUMP JUMPDEST PUSH1 0x40 MSTORE SWAP2 SWAP1 POP JUMP JUMPDEST PUSH1 0x0 PUSH8 0xFFFFFFFFFFFFFFFF DUP3 GT ISZERO PUSH2 0x28E4 JUMPI PUSH2 0x28E4 PUSH2 0x2836 JUMP JUMPDEST POP PUSH1 0x1F ADD PUSH1 0x1F NOT AND PUSH1 0x20 ADD SWAP1 JUMP JUMPDEST PUSH1 0x0 DUP3 PUSH1 0x1F DUP4 ADD SLT PUSH2 0x2903 JUMPI PUSH1 0x0 DUP1 REVERT JUMPDEST DUP2 CALLDATALOAD PUSH2 0x2916 PUSH2 0x2911 DUP3 PUSH2 0x28CA JUMP JUMPDEST PUSH2 0x2899 JUMP JUMPDEST DUP2 DUP2 MSTORE DUP5 PUSH1 0x20 DUP4 DUP7 ADD ADD GT ISZERO PUSH2 0x292B JUMPI PUSH1 0x0 DUP1 REVERT JUMPDEST DUP2 PUSH1 0x20 DUP6 ADD PUSH1 0x20 DUP4 ADD CALLDATACOPY PUSH1 0x0 SWAP2 DUP2 ADD PUSH1 0x20 ADD SWAP2 SWAP1 SWAP2 MSTORE SWAP4 SWAP3 POP POP POP JUMP JUMPDEST PUSH1 0x0 DUP1 PUSH1 0x0 DUP1 PUSH1 0x80 DUP6 DUP8 SUB SLT ISZERO PUSH2 0x295E JUMPI PUSH1 0x0 DUP1 REVERT JUMPDEST DUP5 CALLDATALOAD PUSH8 0xFFFFFFFFFFFFFFFF DUP1 DUP3 GT ISZERO PUSH2 0x2976 JUMPI PUSH1 0x0 DUP1 REVERT JUMPDEST PUSH2 0x2982 DUP9 DUP4 DUP10 ADD PUSH2 0x28F2 JUMP JUMPDEST SWAP6 POP PUSH1 0x20 DUP8 ADD CALLDATALOAD SWAP2 POP DUP1 DUP3 GT ISZERO PUSH2 0x2998 JUMPI PUSH1 0x0 DUP1 REVERT JUMPDEST POP PUSH2 0x29A5 DUP8 DUP3 DUP9 ADD PUSH2 0x28F2 JUMP JUMPDEST SWAP4 POP POP PUSH1 0x40 DUP6 ADD CALLDATALOAD PUSH2 0x29B6 DUP2 PUSH2 0x277E JUMP JUMPDEST SWAP2 POP PUSH1 0x60 DUP6 ADD CALLDATALOAD PUSH2 0x29C6 DUP2 PUSH2 0x277E JUMP JUMPDEST SWAP4 SWAP7 SWAP3 SWAP6 POP SWAP1 SWAP4 POP POP JUMP JUMPDEST PUSH1 0x0 DUP1 PUSH1 0x40 DUP4 DUP6 SUB SLT ISZERO PUSH2 0x29E4 JUMPI PUSH1 0x0 DUP1 REVERT JUMPDEST DUP3 CALLDATALOAD PUSH2 0x29EF DUP2 PUSH2 0x277E JUMP JUMPDEST SWAP2 POP PUSH1 0x20 DUP4 ADD CALLDATALOAD PUSH2 0x29FF DUP2 PUSH2 0x277E JUMP JUMPDEST DUP1 SWAP2 POP POP SWAP3 POP SWAP3 SWAP1 POP JUMP JUMPDEST DUP1 CALLDATALOAD PUSH1 0xFF DUP2 AND DUP2 EQ PUSH2 0x2A1B JUMPI PUSH1 0x0 DUP1 REVERT JUMPDEST SWAP2 SWAP1 POP JUMP JUMPDEST PUSH1 0x0 DUP1 PUSH1 0x0 DUP1 PUSH1 0x0 DUP1 PUSH1 0xC0 DUP8 DUP10 SUB SLT ISZERO PUSH2 0x2A39 JUMPI PUSH1 0x0 DUP1 REVERT JUMPDEST DUP7 CALLDATALOAD PUSH2 0x2A44 DUP2 PUSH2 0x277E JUMP JUMPDEST SWAP6 POP PUSH1 0x20 DUP8 ADD CALLDATALOAD SWAP5 POP PUSH1 0x40 DUP8 ADD CALLDATALOAD SWAP4 POP PUSH2 0x2A60 PUSH1 0x60 DUP9 ADD PUSH2 0x2A0A JUMP JUMPDEST SWAP3 POP PUSH1 0x80 DUP8 ADD CALLDATALOAD SWAP2 POP PUSH1 0xA0 DUP8 ADD CALLDATALOAD SWAP1 POP SWAP3 SWAP6 POP SWAP3 SWAP6 POP SWAP3 SWAP6 JUMP JUMPDEST PUSH1 0x0 DUP1 PUSH1 0x0 DUP1 PUSH1 0x0 DUP1 PUSH1 0x0 PUSH1 0xE0 DUP9 DUP11 SUB SLT ISZERO PUSH2 0x2A95 JUMPI PUSH1 0x0 DUP1 REVERT JUMPDEST DUP8 CALLDATALOAD PUSH2 0x2AA0 DUP2 PUSH2 0x277E JUMP JUMPDEST SWAP7 POP PUSH1 0x20 DUP9 ADD CALLDATALOAD PUSH2 0x2AB0 DUP2 PUSH2 0x277E JUMP JUMPDEST SWAP6 POP PUSH1 0x40 DUP9 ADD CALLDATALOAD SWAP5 POP PUSH1 0x60 DUP9 ADD CALLDATALOAD SWAP4 POP PUSH2 0x2ACC PUSH1 0x80 DUP10 ADD PUSH2 0x2A0A JUMP JUMPDEST SWAP3 POP PUSH1 0xA0 DUP9 ADD CALLDATALOAD SWAP2 POP PUSH1 0xC0 DUP9 ADD CALLDATALOAD SWAP1 POP SWAP3 SWAP6 SWAP9 SWAP2 SWAP5 SWAP8 POP SWAP3 SWAP6 POP JUMP JUMPDEST PUSH1 0x0 DUP1 PUSH1 0x40 DUP4 DUP6 SUB SLT ISZERO PUSH2 0x2AFB JUMPI PUSH1 0x0 DUP1 REVERT JUMPDEST DUP3 CALLDATALOAD PUSH2 0x2B06 DUP2 PUSH2 0x277E JUMP JUMPDEST SWAP2 POP PUSH1 0x20 DUP4 ADD CALLDATALOAD PUSH4 0xFFFFFFFF DUP2 AND DUP2 EQ PUSH2 0x29FF JUMPI PUSH1 0x0 DUP1 REVERT JUMPDEST PUSH1 0x1 DUP2 DUP2 SHR SWAP1 DUP3 AND DUP1 PUSH2 0x2B33 JUMPI PUSH1 0x7F DUP3 AND SWAP2 POP JUMPDEST PUSH1 0x20 DUP3 LT DUP2 EQ ISZERO PUSH2 0x1B8F JUMPI PUSH4 0x4E487B71 PUSH1 0xE0 SHL PUSH1 0x0 MSTORE PUSH1 0x22 PUSH1 0x4 MSTORE PUSH1 0x24 PUSH1 0x0 REVERT JUMPDEST DUP1 MLOAD PUSH3 0xFFFFFF DUP2 AND DUP2 EQ PUSH2 0x2A1B JUMPI PUSH1 0x0 DUP1 REVERT JUMPDEST PUSH1 0x0 PUSH1 0x20 DUP3 DUP5 SUB SLT ISZERO PUSH2 0x2B79 JUMPI PUSH1 0x0 DUP1 REVERT JUMPDEST PUSH2 0x8D8 DUP3 PUSH2 0x2B54 JUMP JUMPDEST PUSH4 0x4E487B71 PUSH1 0xE0 SHL PUSH1 0x0 MSTORE PUSH1 0x11 PUSH1 0x4 MSTORE PUSH1 0x24 PUSH1 0x0 REVERT JUMPDEST PUSH1 0x0 DUP2 PUSH1 0x0 NOT DIV DUP4 GT DUP3 ISZERO ISZERO AND ISZERO PUSH2 0x2BB2 JUMPI PUSH2 0x2BB2 PUSH2 0x2B82 JUMP JUMPDEST POP MUL SWAP1 JUMP JUMPDEST PUSH1 0x0 DUP3 DUP3 LT ISZERO PUSH2 0x2BC9 JUMPI PUSH2 0x2BC9 PUSH2 0x2B82 JUMP JUMPDEST POP SUB SWAP1 JUMP JUMPDEST PUSH1 0x0 DUP3 NOT DUP3 GT ISZERO PUSH2 0x2BE1 JUMPI PUSH2 0x2BE1 PUSH2 0x2B82 JUMP JUMPDEST POP ADD SWAP1 JUMP JUMPDEST PUSH1 0x1 DUP2 DUP2 JUMPDEST DUP1 DUP6 GT ISZERO PUSH2 0x2C21 JUMPI DUP2 PUSH1 0x0 NOT DIV DUP3 GT ISZERO PUSH2 0x2C07 JUMPI PUSH2 0x2C07 PUSH2 0x2B82 JUMP JUMPDEST DUP1 DUP6 AND ISZERO PUSH2 0x2C14 JUMPI SWAP2 DUP2 MUL SWAP2 JUMPDEST SWAP4 DUP5 SHR SWAP4 SWAP1 DUP1 MUL SWAP1 PUSH2 0x2BEB JUMP JUMPDEST POP SWAP3 POP SWAP3 SWAP1 POP JUMP JUMPDEST PUSH1 0x0 DUP3 PUSH2 0x2C38 JUMPI POP PUSH1 0x1 PUSH2 0x66B JUMP JUMPDEST DUP2 PUSH2 0x2C45 JUMPI POP PUSH1 0x0 PUSH2 0x66B JUMP JUMPDEST DUP2 PUSH1 0x1 DUP2 EQ PUSH2 0x2C5B JUMPI PUSH1 0x2 DUP2 EQ PUSH2 0x2C65 JUMPI PUSH2 0x2C81 JUMP JUMPDEST PUSH1 0x1 SWAP2 POP POP PUSH2 0x66B JUMP JUMPDEST PUSH1 0xFF DUP5 GT ISZERO PUSH2 0x2C76 JUMPI PUSH2 0x2C76 PUSH2 0x2B82 JUMP JUMPDEST POP POP PUSH1 0x1 DUP3 SHL PUSH2 0x66B JUMP JUMPDEST POP PUSH1 0x20 DUP4 LT PUSH2 0x133 DUP4 LT AND PUSH1 0x4E DUP5 LT PUSH1 0xB DUP5 LT AND OR ISZERO PUSH2 0x2CA4 JUMPI POP DUP2 DUP2 EXP PUSH2 0x66B JUMP JUMPDEST PUSH2 0x2CAE DUP4 DUP4 PUSH2 0x2BE6 JUMP JUMPDEST DUP1 PUSH1 0x0 NOT DIV DUP3 GT ISZERO PUSH2 0x2CC2 JUMPI PUSH2 0x2CC2 PUSH2 0x2B82 JUMP JUMPDEST MUL SWAP4 SWAP3 POP POP POP JUMP JUMPDEST PUSH1 0x0 PUSH2 0x8D8 PUSH1 0xFF DUP5 AND DUP4 PUSH2 0x2C29 JUMP JUMPDEST PUSH4 0x4E487B71 PUSH1 0xE0 SHL PUSH1 0x0 MSTORE PUSH1 0x12 PUSH1 0x4 MSTORE PUSH1 0x24 PUSH1 0x0 REVERT JUMPDEST PUSH1 0x0 DUP3 PUSH2 0x2D0C JUMPI PUSH4 0x4E487B71 PUSH1 0xE0 SHL PUSH1 0x0 MSTORE PUSH1 0x12 PUSH1 0x4 MSTORE PUSH1 0x24 PUSH1 0x0 REVERT JUMPDEST POP DIV SWAP1 JUMP JUMPDEST PUSH4 0x4E487B71 PUSH1 0xE0 SHL PUSH1 0x0 MSTORE PUSH1 0x32 PUSH1 0x4 MSTORE PUSH1 0x24 PUSH1 0x0 REVERT JUMPDEST DUP1 MLOAD PUSH2 0x2A1B DUP2 PUSH2 0x277E JUMP JUMPDEST PUSH1 0x0 DUP3 PUSH1 0x1F DUP4 ADD SLT PUSH2 0x2D43 JUMPI PUSH1 0x0 DUP1 REVERT JUMPDEST DUP2 MLOAD PUSH2 0x2D51 PUSH2 0x2911 DUP3 PUSH2 0x28CA JUMP JUMPDEST DUP2 DUP2 MSTORE DUP5 PUSH1 0x20 DUP4 DUP7 ADD ADD GT ISZERO PUSH2 0x2D66 JUMPI PUSH1 0x0 DUP1 REVERT JUMPDEST PUSH2 0x2D77 DUP3 PUSH1 0x20 DUP4 ADD PUSH1 0x20 DUP8 ADD PUSH2 0x271F JUMP JUMPDEST SWAP5 SWAP4 POP POP POP POP JUMP JUMPDEST PUSH1 0x0 PUSH1 0xA0 DUP3 DUP5 SUB SLT ISZERO PUSH2 0x2D91 JUMPI PUSH1 0x0 DUP1 REVERT JUMPDEST PUSH2 0x2D99 PUSH2 0x284C JUMP JUMPDEST SWAP1 POP DUP2 MLOAD PUSH8 0xFFFFFFFFFFFFFFFF DUP1 DUP3 GT ISZERO PUSH2 0x2DB3 JUMPI PUSH1 0x0 DUP1 REVERT JUMPDEST PUSH2 0x2DBF DUP6 DUP4 DUP7 ADD PUSH2 0x2D32 JUMP JUMPDEST DUP4 MSTORE PUSH1 0x20 DUP5 ADD MLOAD SWAP2 POP DUP1 DUP3 GT ISZERO PUSH2 0x2DD5 JUMPI PUSH1 0x0 DUP1 REVERT JUMPDEST PUSH2 0x2DE1 DUP6 DUP4 DUP7 ADD PUSH2 0x2D32 JUMP JUMPDEST PUSH1 0x20 DUP5 ADD MSTORE PUSH1 0x40 DUP5 ADD MLOAD SWAP2 POP DUP1 DUP3 GT ISZERO PUSH2 0x2DFA JUMPI PUSH1 0x0 DUP1 REVERT JUMPDEST PUSH2 0x2E06 DUP6 DUP4 DUP7 ADD PUSH2 0x2D32 JUMP JUMPDEST PUSH1 0x40 DUP5 ADD MSTORE PUSH1 0x60 DUP5 ADD MLOAD SWAP2 POP DUP1 DUP3 GT ISZERO PUSH2 0x2E1F JUMPI PUSH1 0x0 DUP1 REVERT JUMPDEST PUSH2 0x2E2B DUP6 DUP4 DUP7 ADD PUSH2 0x2D32 JUMP JUMPDEST PUSH1 0x60 DUP5 ADD MSTORE PUSH1 0x80 DUP5 ADD MLOAD SWAP2 POP DUP1 DUP3 GT ISZERO PUSH2 0x2E44 JUMPI PUSH1 0x0 DUP1 REVERT JUMPDEST POP PUSH2 0x2E51 DUP5 DUP3 DUP6 ADD PUSH2 0x2D32 JUMP JUMPDEST PUSH1 0x80 DUP4 ADD MSTORE POP SWAP3 SWAP2 POP POP JUMP JUMPDEST PUSH1 0x0 PUSH8 0xFFFFFFFFFFFFFFFF DUP3 GT ISZERO PUSH2 0x2E77 JUMPI PUSH2 0x2E77 PUSH2 0x2836 JUMP JUMPDEST POP PUSH1 0x5 SHL PUSH1 0x20 ADD SWAP1 JUMP JUMPDEST PUSH1 0x0 DUP3 PUSH1 0x1F DUP4 ADD SLT PUSH2 0x2E92 JUMPI PUSH1 0x0 DUP1 REVERT JUMPDEST DUP2 MLOAD PUSH1 0x20 PUSH2 0x2EA2 PUSH2 0x2911 DUP4 PUSH2 0x2E5D JUMP JUMPDEST DUP3 DUP2 MSTORE PUSH1 0x5 SWAP3 SWAP1 SWAP3 SHL DUP5 ADD DUP2 ADD SWAP2 DUP2 DUP2 ADD SWAP1 DUP7 DUP5 GT ISZERO PUSH2 0x2EC1 JUMPI PUSH1 0x0 DUP1 REVERT JUMPDEST DUP3 DUP7 ADD JUMPDEST DUP5 DUP2 LT ISZERO PUSH2 0x2F01 JUMPI DUP1 MLOAD PUSH8 0xFFFFFFFFFFFFFFFF DUP2 GT ISZERO PUSH2 0x2EE5 JUMPI PUSH1 0x0 DUP1 DUP2 REVERT JUMPDEST PUSH2 0x2EF3 DUP10 DUP7 DUP4 DUP12 ADD ADD PUSH2 0x2D32 JUMP JUMPDEST DUP5 MSTORE POP SWAP2 DUP4 ADD SWAP2 DUP4 ADD PUSH2 0x2EC5 JUMP JUMPDEST POP SWAP7 SWAP6 POP POP POP POP POP POP JUMP JUMPDEST PUSH1 0x0 DUP3 PUSH1 0x1F DUP4 ADD SLT PUSH2 0x2F1D JUMPI PUSH1 0x0 DUP1 REVERT JUMPDEST DUP2 MLOAD PUSH1 0x20 PUSH2 0x2F2D PUSH2 0x2911 DUP4 PUSH2 0x2E5D JUMP JUMPDEST DUP3 DUP2 MSTORE PUSH1 0x5 SWAP3 SWAP1 SWAP3 SHL DUP5 ADD DUP2 ADD SWAP2 DUP2 DUP2 ADD SWAP1 DUP7 DUP5 GT ISZERO PUSH2 0x2F4C JUMPI PUSH1 0x0 DUP1 REVERT JUMPDEST DUP3 DUP7 ADD JUMPDEST DUP5 DUP2 LT ISZERO PUSH2 0x2F01 JUMPI DUP1 MLOAD PUSH2 0x2F63 DUP2 PUSH2 0x277E JUMP JUMPDEST DUP4 MSTORE SWAP2 DUP4 ADD SWAP2 DUP4 ADD PUSH2 0x2F50 JUMP JUMPDEST PUSH1 0x0 PUSH1 0x20 DUP3 DUP5 SUB SLT ISZERO PUSH2 0x2F82 JUMPI PUSH1 0x0 DUP1 REVERT JUMPDEST DUP2 MLOAD PUSH8 0xFFFFFFFFFFFFFFFF DUP1 DUP3 GT ISZERO PUSH2 0x2F9A JUMPI PUSH1 0x0 DUP1 REVERT JUMPDEST SWAP1 DUP4 ADD SWAP1 PUSH2 0x260 DUP3 DUP7 SUB SLT ISZERO PUSH2 0x2FAF JUMPI PUSH1 0x0 DUP1 REVERT JUMPDEST PUSH2 0x2FB7 PUSH2 0x2875 JUMP JUMPDEST PUSH2 0x2FC0 DUP4 PUSH2 0x2B54 JUMP JUMPDEST DUP2 MSTORE PUSH2 0x2FCE PUSH1 0x20 DUP5 ADD PUSH2 0x2B54 JUMP JUMPDEST PUSH1 0x20 DUP3 ADD MSTORE PUSH1 0x40 DUP4 ADD MLOAD PUSH1 0x40 DUP3 ADD MSTORE PUSH2 0x2FE9 PUSH1 0x60 DUP5 ADD PUSH2 0x2D27 JUMP JUMPDEST PUSH1 0x60 DUP3 ADD MSTORE PUSH1 0x80 DUP4 ADD MLOAD DUP3 DUP2 GT ISZERO PUSH2 0x3000 JUMPI PUSH1 0x0 DUP1 REVERT JUMPDEST PUSH2 0x300C DUP8 DUP3 DUP7 ADD PUSH2 0x2D32 JUMP JUMPDEST PUSH1 0x80 DUP4 ADD MSTORE POP PUSH1 0xA0 DUP4 ADD MLOAD DUP3 DUP2 GT ISZERO PUSH2 0x3024 JUMPI PUSH1 0x0 DUP1 REVERT JUMPDEST PUSH2 0x3030 DUP8 DUP3 DUP7 ADD PUSH2 0x2D32 JUMP JUMPDEST PUSH1 0xA0 DUP4 ADD MSTORE POP PUSH2 0x3042 PUSH1 0xC0 DUP5 ADD PUSH2 0x2D27 JUMP JUMPDEST PUSH1 0xC0 DUP3 ADD MSTORE PUSH1 0xE0 DUP4 ADD MLOAD DUP3 DUP2 GT ISZERO PUSH2 0x3059 JUMPI PUSH1 0x0 DUP1 REVERT JUMPDEST PUSH2 0x3065 DUP8 DUP3 DUP7 ADD PUSH2 0x2D32 JUMP JUMPDEST PUSH1 0xE0 DUP4 ADD MSTORE POP PUSH2 0x100 DUP1 DUP5 ADD MLOAD DUP4 DUP2 GT ISZERO PUSH2 0x307F JUMPI PUSH1 0x0 DUP1 REVERT JUMPDEST PUSH2 0x308B DUP9 DUP3 DUP8 ADD PUSH2 0x2D32 JUMP JUMPDEST DUP3 DUP5 ADD MSTORE POP POP PUSH2 0x120 DUP1 DUP5 ADD MLOAD DUP4 DUP2 GT ISZERO PUSH2 0x30A5 JUMPI PUSH1 0x0 DUP1 REVERT JUMPDEST PUSH2 0x30B1 DUP9 DUP3 DUP8 ADD PUSH2 0x2D32 JUMP JUMPDEST DUP3 DUP5 ADD MSTORE POP POP PUSH2 0x140 DUP1 DUP5 ADD MLOAD DUP4 DUP2 GT ISZERO PUSH2 0x30CB JUMPI PUSH1 0x0 DUP1 REVERT JUMPDEST PUSH2 0x30D7 DUP9 DUP3 DUP8 ADD PUSH2 0x2D7F JUMP JUMPDEST DUP3 DUP5 ADD MSTORE POP POP PUSH2 0x160 DUP1 DUP5 ADD MLOAD DUP4 DUP2 GT ISZERO PUSH2 0x30F1 JUMPI PUSH1 0x0 DUP1 REVERT JUMPDEST PUSH2 0x30FD DUP9 DUP3 DUP8 ADD PUSH2 0x2E81 JUMP JUMPDEST DUP3 DUP5 ADD MSTORE POP POP PUSH2 0x180 DUP1 DUP5 ADD MLOAD DUP4 DUP2 GT ISZERO PUSH2 0x3117 JUMPI PUSH1 0x0 DUP1 REVERT JUMPDEST PUSH2 0x3123 DUP9 DUP3 DUP8 ADD PUSH2 0x2E81 JUMP JUMPDEST DUP3 DUP5 ADD MSTORE POP POP PUSH2 0x1A0 DUP1 DUP5 ADD MLOAD DUP4 DUP2 GT ISZERO PUSH2 0x313D JUMPI PUSH1 0x0 DUP1 REVERT JUMPDEST PUSH2 0x3149 DUP9 DUP3 DUP8 ADD PUSH2 0x2D32 JUMP JUMPDEST DUP3 DUP5 ADD MSTORE POP POP PUSH2 0x1C0 DUP1 DUP5 ADD MLOAD DUP2 DUP4 ADD MSTORE POP PUSH2 0x1E0 PUSH2 0x3169 DUP2 DUP6 ADD PUSH2 0x2D27 JUMP JUMPDEST SWAP1 DUP3 ADD MSTORE PUSH2 0x200 DUP4 DUP2 ADD MLOAD DUP4 DUP2 GT ISZERO PUSH2 0x3181 JUMPI PUSH1 0x0 DUP1 REVERT JUMPDEST PUSH2 0x318D DUP9 DUP3 DUP8 ADD PUSH2 0x2D32 JUMP JUMPDEST DUP3 DUP5 ADD MSTORE POP POP PUSH2 0x220 DUP1 DUP5 ADD MLOAD DUP4 DUP2 GT ISZERO PUSH2 0x31A7 JUMPI PUSH1 0x0 DUP1 REVERT JUMPDEST PUSH2 0x31B3 DUP9 DUP3 DUP8 ADD PUSH2 0x2F0C JUMP JUMPDEST SWAP2 DUP4 ADD SWAP2 SWAP1 SWAP2 MSTORE POP PUSH2 0x240 SWAP3 DUP4 ADD MLOAD SWAP3 DUP2 ADD SWAP3 SWAP1 SWAP3 MSTORE POP SWAP4 SWAP3 POP POP POP JUMP JUMPDEST PUSH1 0x20 DUP1 DUP3 MSTORE PUSH1 0x2B SWAP1 DUP3 ADD MSTORE PUSH32 0x496E697469616C697A61626C653A20636F6E7472616374206973206E6F742069 PUSH1 0x40 DUP3 ADD MSTORE PUSH11 0x6E697469616C697A696E67 PUSH1 0xA8 SHL PUSH1 0x60 DUP3 ADD MSTORE PUSH1 0x80 ADD SWAP1 JUMP JUMPDEST PUSH4 0x4E487B71 PUSH1 0xE0 SHL PUSH1 0x0 MSTORE PUSH1 0x21 PUSH1 0x4 MSTORE PUSH1 0x24 PUSH1 0x0 REVERT INVALID LOG2 PUSH5 0x6970667358 0x22 SLT KECCAK256 PUSH23 0x2485E01E1EAA4D010E2A4E94B49F10301C765602E81042 0xB3 LOG4 SWAP12 PC 0xDA 0x4B DUP12 0xDC PUSH5 0x736F6C6343 STOP ADDMOD 0xC STOP CALLER "},"methodIdentifiers":{"DOMAIN_SEPARATOR()":"3644e515","_admin()":"01bc45c9","_claimed(address,address)":"94527729","_paramAddr()":"f4a290f7","_remainClaimSupply()":"c3678f35","allowance(address,address)":"dd62ed3e","approve(address,uint256)":"095ea7b3","balanceOf(address)":"70a08231","burn(uint256)":"42966c68","burnFrom(address,uint256)":"79cc6790","calculateAmountClaim(address,uint256)":"32974838","changeAdmin(address)":"8f283970","changeParamAddress(address)":"16a5041f","checkpoints(address,uint32)":"f1127ed8","claim(address,uint256)":"aad3ec96","decimals()":"313ce567","decreaseAllowance(address,uint256)":"a457c2d7","delegate(address)":"5c19a95c","delegateBySig(address,uint256,uint256,uint8,bytes32,bytes32)":"c3cda520","delegates(address)":"587cde1e","getCurrentVotes(address)":"b4b5ea57","getPastTotalSupply(uint256)":"8e539e8c","getPastVotes(address,uint256)":"3a46b1a8","getPriorVotes(address,uint256)":"782d6fe1","getVotes(address)":"9ab24eb0","increaseAllowance(address,uint256)":"39509351","initialize(string,string,address,address)":"8f15b414","name()":"06fdde03","nonces(address)":"7ecebe00","numCheckpoints(address)":"6fcfff45","owner()":"8da5cb5b","paused()":"5c975abb","permit(address,address,uint256,uint256,uint8,bytes32,bytes32)":"d505accf","renounceOwnership()":"715018a6","symbol()":"95d89b41","totalSupply()":"18160ddd","transfer(address,uint256)":"a9059cbb","transferFrom(address,address,uint256)":"23b872dd","transferOwnership(address)":"f2fde38b"}},"storageLayout":{"storage":[{"astId":795,"contract":"contracts/erc20/GENToken.sol:GENToken","label":"_initialized","offset":0,"slot":"0","type":"t_uint8"},{"astId":798,"contract":"contracts/erc20/GENToken.sol:GENToken","label":"_initializing","offset":1,"slot":"0","type":"t_bool"},{"astId":3564,"contract":"contracts/erc20/GENToken.sol:GENToken","label":"__gap","offset":0,"slot":"1","type":"t_array(t_uint256)50_storage"},{"astId":1103,"contract":"contracts/erc20/GENToken.sol:GENToken","label":"_balances","offset":0,"slot":"51","type":"t_mapping(t_address,t_uint256)"},{"astId":1109,"contract":"contracts/erc20/GENToken.sol:GENToken","label":"_allowances","offset":0,"slot":"52","type":"t_mapping(t_address,t_mapping(t_address,t_uint256))"},{"astId":1111,"contract":"contracts/erc20/GENToken.sol:GENToken","label":"_totalSupply","offset":0,"slot":"53","type":"t_uint256"},{"astId":1113,"contract":"contracts/erc20/GENToken.sol:GENToken","label":"_name","offset":0,"slot":"54","type":"t_string_storage"},{"astId":1115,"contract":"contracts/erc20/GENToken.sol:GENToken","label":"_symbol","offset":0,"slot":"55","type":"t_string_storage"},{"astId":1695,"contract":"contracts/erc20/GENToken.sol:GENToken","label":"__gap","offset":0,"slot":"56","type":"t_array(t_uint256)45_storage"},{"astId":978,"contract":"contracts/erc20/GENToken.sol:GENToken","label":"_paused","offset":0,"slot":"101","type":"t_bool"},{"astId":1083,"contract":"contracts/erc20/GENToken.sol:GENToken","label":"__gap","offset":0,"slot":"102","type":"t_array(t_uint256)49_storage"},{"astId":1897,"contract":"contracts/erc20/GENToken.sol:GENToken","label":"__gap","offset":0,"slot":"151","type":"t_array(t_uint256)50_storage"},{"astId":1837,"contract":"contracts/erc20/GENToken.sol:GENToken","label":"__gap","offset":0,"slot":"201","type":"t_array(t_uint256)50_storage"},{"astId":589,"contract":"contracts/erc20/GENToken.sol:GENToken","label":"_owner","offset":0,"slot":"251","type":"t_address"},{"astId":709,"contract":"contracts/erc20/GENToken.sol:GENToken","label":"__gap","offset":0,"slot":"252","type":"t_array(t_uint256)49_storage"},{"astId":4184,"contract":"contracts/erc20/GENToken.sol:GENToken","label":"_HASHED_NAME","offset":0,"slot":"301","type":"t_bytes32"},{"astId":4186,"contract":"contracts/erc20/GENToken.sol:GENToken","label":"_HASHED_VERSION","offset":0,"slot":"302","type":"t_bytes32"},{"astId":4324,"contract":"contracts/erc20/GENToken.sol:GENToken","label":"__gap","offset":0,"slot":"303","type":"t_array(t_uint256)50_storage"},{"astId":2742,"contract":"contracts/erc20/GENToken.sol:GENToken","label":"_nonces","offset":0,"slot":"353","type":"t_mapping(t_address,t_struct(Counter)3571_storage)"},{"astId":2750,"contract":"contracts/erc20/GENToken.sol:GENToken","label":"_PERMIT_TYPEHASH_DEPRECATED_SLOT","offset":0,"slot":"354","type":"t_bytes32"},{"astId":2906,"contract":"contracts/erc20/GENToken.sol:GENToken","label":"__gap","offset":0,"slot":"355","type":"t_array(t_uint256)49_storage"},{"astId":2015,"contract":"contracts/erc20/GENToken.sol:GENToken","label":"_delegates","offset":0,"slot":"404","type":"t_mapping(t_address,t_address)"},{"astId":2021,"contract":"contracts/erc20/GENToken.sol:GENToken","label":"_checkpoints","offset":0,"slot":"405","type":"t_mapping(t_address,t_array(t_struct(Checkpoint)2006_storage)dyn_storage)"},{"astId":2025,"contract":"contracts/erc20/GENToken.sol:GENToken","label":"_totalSupplyCheckpoints","offset":0,"slot":"406","type":"t_array(t_struct(Checkpoint)2006_storage)dyn_storage"},{"astId":2690,"contract":"contracts/erc20/GENToken.sol:GENToken","label":"__gap","offset":0,"slot":"407","type":"t_array(t_uint256)47_storage"},{"astId":1973,"contract":"contracts/erc20/GENToken.sol:GENToken","label":"__gap","offset":0,"slot":"454","type":"t_array(t_uint256)50_storage"},{"astId":7425,"contract":"contracts/erc20/GENToken.sol:GENToken","label":"_admin","offset":0,"slot":"504","type":"t_address"},{"astId":7427,"contract":"contracts/erc20/GENToken.sol:GENToken","label":"_paramAddr","offset":0,"slot":"505","type":"t_address"},{"astId":7433,"contract":"contracts/erc20/GENToken.sol:GENToken","label":"_claimed","offset":0,"slot":"506","type":"t_mapping(t_address,t_mapping(t_address,t_uint256))"},{"astId":7435,"contract":"contracts/erc20/GENToken.sol:GENToken","label":"_remainClaimSupply","offset":0,"slot":"507","type":"t_uint256"}],"types":{"t_address":{"encoding":"inplace","label":"address","numberOfBytes":"20"},"t_array(t_struct(Checkpoint)2006_storage)dyn_storage":{"base":"t_struct(Checkpoint)2006_storage","encoding":"dynamic_array","label":"struct ERC20VotesUpgradeable.Checkpoint[]","numberOfBytes":"32"},"t_array(t_uint256)45_storage":{"base":"t_uint256","encoding":"inplace","label":"uint256[45]","numberOfBytes":"1440"},"t_array(t_uint256)47_storage":{"base":"t_uint256","encoding":"inplace","label":"uint256[47]","numberOfBytes":"1504"},"t_array(t_uint256)49_storage":{"base":"t_uint256","encoding":"inplace","label":"uint256[49]","numberOfBytes":"1568"},"t_array(t_uint256)50_storage":{"base":"t_uint256","encoding":"inplace","label":"uint256[50]","numberOfBytes":"1600"},"t_bool":{"encoding":"inplace","label":"bool","numberOfBytes":"1"},"t_bytes32":{"encoding":"inplace","label":"bytes32","numberOfBytes":"32"},"t_mapping(t_address,t_address)":{"encoding":"mapping","key":"t_address","label":"mapping(address => address)","numberOfBytes":"32","value":"t_address"},"t_mapping(t_address,t_array(t_struct(Checkpoint)2006_storage)dyn_storage)":{"encoding":"mapping","key":"t_address","label":"mapping(address => struct ERC20VotesUpgradeable.Checkpoint[])","numberOfBytes":"32","value":"t_array(t_struct(Checkpoint)2006_storage)dyn_storage"},"t_mapping(t_address,t_mapping(t_address,t_uint256))":{"encoding":"mapping","key":"t_address","label":"mapping(address => mapping(address => uint256))","numberOfBytes":"32","value":"t_mapping(t_address,t_uint256)"},"t_mapping(t_address,t_struct(Counter)3571_storage)":{"encoding":"mapping","key":"t_address","label":"mapping(address => struct CountersUpgradeable.Counter)","numberOfBytes":"32","value":"t_struct(Counter)3571_storage"},"t_mapping(t_address,t_uint256)":{"encoding":"mapping","key":"t_address","label":"mapping(address => uint256)","numberOfBytes":"32","value":"t_uint256"},"t_string_storage":{"encoding":"bytes","label":"string","numberOfBytes":"32"},"t_struct(Checkpoint)2006_storage":{"encoding":"inplace","label":"struct ERC20VotesUpgradeable.Checkpoint","members":[{"astId":2003,"contract":"contracts/erc20/GENToken.sol:GENToken","label":"fromBlock","offset":0,"slot":"0","type":"t_uint32"},{"astId":2005,"contract":"contracts/erc20/GENToken.sol:GENToken","label":"votes","offset":4,"slot":"0","type":"t_uint224"}],"numberOfBytes":"32"},"t_struct(Counter)3571_storage":{"encoding":"inplace","label":"struct CountersUpgradeable.Counter","members":[{"astId":3570,"contract":"contracts/erc20/GENToken.sol:GENToken","label":"_value","offset":0,"slot":"0","type":"t_uint256"}],"numberOfBytes":"32"},"t_uint224":{"encoding":"inplace","label":"uint224","numberOfBytes":"28"},"t_uint256":{"encoding":"inplace","label":"uint256","numberOfBytes":"32"},"t_uint32":{"encoding":"inplace","label":"uint32","numberOfBytes":"4"},"t_uint8":{"encoding":"inplace","label":"uint8","numberOfBytes":"1"}}}}}}