{
  "_format": "hh-sol-artifact-1",
  "contractName": "GenerativeProject",
  "sourceName": "contracts/nfts/GenerativeProject.sol",
  "abi": [
    {
      "anonymous": false,
      "inputs": [
        {
          "indexed": true,
          "internalType": "address",
          "name": "owner",
          "type": "address"
        },
        {
          "indexed": true,
          "internalType": "address",
          "name": "approved",
          "type": "address"
        },
        {
          "indexed": true,
          "internalType": "uint256",
          "name": "tokenId",
          "type": "uint256"
        }
      ],
      "name": "Approval",
      "type": "event"
    },
    {
      "anonymous": false,
      "inputs": [
        {
          "indexed": true,
          "internalType": "address",
          "name": "owner",
          "type": "address"
        },
        {
          "indexed": true,
          "internalType": "address",
          "name": "operator",
          "type": "address"
        },
        {
          "indexed": false,
          "internalType": "bool",
          "name": "approved",
          "type": "bool"
        }
      ],
      "name": "ApprovalForAll",
      "type": "event"
    },
    {
      "anonymous": false,
      "inputs": [
        {
          "indexed": false,
          "internalType": "uint8",
          "name": "version",
          "type": "uint8"
        }
      ],
      "name": "Initialized",
      "type": "event"
    },
    {
      "anonymous": false,
      "inputs": [
        {
          "indexed": true,
          "internalType": "address",
          "name": "previousOwner",
          "type": "address"
        },
        {
          "indexed": true,
          "internalType": "address",
          "name": "newOwner",
          "type": "address"
        }
      ],
      "name": "OwnershipTransferred",
      "type": "event"
    },
    {
      "anonymous": false,
      "inputs": [
        {
          "indexed": false,
          "internalType": "address",
          "name": "account",
          "type": "address"
        }
      ],
      "name": "Paused",
      "type": "event"
    },
    {
      "anonymous": false,
      "inputs": [
        {
          "indexed": true,
          "internalType": "address",
          "name": "from",
          "type": "address"
        },
        {
          "indexed": true,
          "internalType": "address",
          "name": "to",
          "type": "address"
        },
        {
          "indexed": true,
          "internalType": "uint256",
          "name": "tokenId",
          "type": "uint256"
        }
      ],
      "name": "Transfer",
      "type": "event"
    },
    {
      "anonymous": false,
      "inputs": [
        {
          "indexed": false,
          "internalType": "address",
          "name": "account",
          "type": "address"
        }
      ],
      "name": "Unpaused",
      "type": "event"
    },
    {
      "inputs": [],
      "name": "_admin",
      "outputs": [
        {
          "internalType": "address",
          "name": "",
          "type": "address"
        }
      ],
      "stateMutability": "view",
      "type": "function"
    },
    {
      "inputs": [],
      "name": "_paramsAddress",
      "outputs": [
        {
          "internalType": "address",
          "name": "",
          "type": "address"
        }
      ],
      "stateMutability": "view",
      "type": "function"
    },
    {
      "inputs": [],
      "name": "_projectDataContextAddr",
      "outputs": [
        {
          "internalType": "address",
          "name": "",
          "type": "address"
        }
      ],
      "stateMutability": "view",
      "type": "function"
    },
    {
      "inputs": [],
      "name": "_randomizerAddr",
      "outputs": [
        {
          "internalType": "address",
          "name": "",
          "type": "address"
        }
      ],
      "stateMutability": "view",
      "type": "function"
    },
    {
      "inputs": [
        {
          "internalType": "uint256",
          "name": "projectId",
          "type": "uint256"
        },
        {
          "internalType": "string",
          "name": "_script",
          "type": "string"
        }
      ],
      "name": "addProjectScript",
      "outputs": [],
      "stateMutability": "nonpayable",
      "type": "function"
    },
    {
      "inputs": [
        {
          "internalType": "address",
          "name": "to",
          "type": "address"
        },
        {
          "internalType": "uint256",
          "name": "tokenId",
          "type": "uint256"
        }
      ],
      "name": "approve",
      "outputs": [],
      "stateMutability": "nonpayable",
      "type": "function"
    },
    {
      "inputs": [
        {
          "internalType": "address",
          "name": "owner",
          "type": "address"
        }
      ],
      "name": "balanceOf",
      "outputs": [
        {
          "internalType": "uint256",
          "name": "",
          "type": "uint256"
        }
      ],
      "stateMutability": "view",
      "type": "function"
    },
    {
      "inputs": [
        {
          "internalType": "address",
          "name": "newAdm",
          "type": "address"
        }
      ],
      "name": "changeAdmin",
      "outputs": [],
      "stateMutability": "nonpayable",
      "type": "function"
    },
    {
      "inputs": [
        {
          "internalType": "address",
          "name": "newAddr",
          "type": "address"
        }
      ],
      "name": "changeDataContextAddr",
      "outputs": [],
      "stateMutability": "nonpayable",
      "type": "function"
    },
    {
      "inputs": [
        {
          "internalType": "address",
          "name": "newAddr",
          "type": "address"
        }
      ],
      "name": "changeParamAddr",
      "outputs": [],
      "stateMutability": "nonpayable",
      "type": "function"
    },
    {
      "inputs": [
        {
          "internalType": "address",
          "name": "newAddr",
          "type": "address"
        }
      ],
      "name": "changeRandomizerAddr",
      "outputs": [],
      "stateMutability": "nonpayable",
      "type": "function"
    },
    {
      "inputs": [
        {
          "internalType": "uint256",
          "name": "projectId",
          "type": "uint256"
        }
      ],
      "name": "completeProject",
      "outputs": [],
      "stateMutability": "nonpayable",
      "type": "function"
    },
    {
      "inputs": [
        {
          "internalType": "uint256",
          "name": "projectId",
          "type": "uint256"
        },
        {
          "internalType": "uint256",
          "name": "scriptIndex",
          "type": "uint256"
        }
      ],
      "name": "deleteProjectScript",
      "outputs": [],
      "stateMutability": "nonpayable",
      "type": "function"
    },
    {
      "inputs": [
        {
          "internalType": "uint256",
          "name": "tokenId",
          "type": "uint256"
        }
      ],
      "name": "getApproved",
      "outputs": [
        {
          "internalType": "address",
          "name": "",
          "type": "address"
        }
      ],
      "stateMutability": "view",
      "type": "function"
    },
    {
      "inputs": [
        {
          "internalType": "string",
          "name": "name",
          "type": "string"
        },
        {
          "internalType": "string",
          "name": "symbol",
          "type": "string"
        },
        {
          "internalType": "address",
          "name": "admin",
          "type": "address"
        },
        {
          "internalType": "address",
          "name": "paramsAddress",
          "type": "address"
        },
        {
          "internalType": "address",
          "name": "randomizerAddr",
          "type": "address"
        },
        {
          "internalType": "address",
          "name": "projectDataContextAddr",
          "type": "address"
        }
      ],
      "name": "initialize",
      "outputs": [],
      "stateMutability": "nonpayable",
      "type": "function"
    },
    {
      "inputs": [
        {
          "internalType": "address",
          "name": "owner",
          "type": "address"
        },
        {
          "internalType": "address",
          "name": "operator",
          "type": "address"
        }
      ],
      "name": "isApprovedForAll",
      "outputs": [
        {
          "internalType": "bool",
          "name": "",
          "type": "bool"
        }
      ],
      "stateMutability": "view",
      "type": "function"
    },
    {
      "inputs": [
        {
          "components": [
            {
              "internalType": "uint24",
              "name": "_maxSupply",
              "type": "uint24"
            },
            {
              "internalType": "uint24",
              "name": "_limit",
              "type": "uint24"
            },
            {
              "internalType": "uint256",
              "name": "_mintPrice",
              "type": "uint256"
            },
            {
              "internalType": "address",
              "name": "_mintPriceAddr",
              "type": "address"
            },
            {
              "internalType": "string",
              "name": "_name",
              "type": "string"
            },
            {
              "internalType": "string",
              "name": "_creator",
              "type": "string"
            },
            {
              "internalType": "address",
              "name": "_creatorAddr",
              "type": "address"
            },
            {
              "internalType": "string",
              "name": "_license",
              "type": "string"
            },
            {
              "internalType": "string",
              "name": "_desc",
              "type": "string"
            },
            {
              "internalType": "string",
              "name": "_image",
              "type": "string"
            },
            {
              "components": [
                {
                  "internalType": "string",
                  "name": "_web",
                  "type": "string"
                },
                {
                  "internalType": "string",
                  "name": "_twitter",
                  "type": "string"
                },
                {
                  "internalType": "string",
                  "name": "_discord",
                  "type": "string"
                },
                {
                  "internalType": "string",
                  "name": "_medium",
                  "type": "string"
                },
                {
                  "internalType": "string",
                  "name": "_instagram",
                  "type": "string"
                }
              ],
              "internalType": "struct NFTProject.ProjectSocial",
              "name": "_social",
              "type": "tuple"
            },
            {
              "internalType": "string",
              "name": "_scriptType",
              "type": "string"
            },
            {
              "internalType": "string[]",
              "name": "_scripts",
              "type": "string[]"
            },
            {
              "internalType": "string",
              "name": "_styles",
              "type": "string"
            },
            {
              "internalType": "uint256",
              "name": "_completeTime",
              "type": "uint256"
            },
            {
              "internalType": "address",
              "name": "_genNFTAddr",
              "type": "address"
            }
          ],
          "internalType": "struct NFTProject.Project",
          "name": "project",
          "type": "tuple"
        },
        {
          "internalType": "address[]",
          "name": "reserves",
          "type": "address[]"
        }
      ],
      "name": "mint",
      "outputs": [
        {
          "internalType": "uint256",
          "name": "",
          "type": "uint256"
        }
      ],
      "stateMutability": "payable",
      "type": "function"
    },
    {
      "inputs": [],
      "name": "name",
      "outputs": [
        {
          "internalType": "string",
          "name": "",
          "type": "string"
        }
      ],
      "stateMutability": "view",
      "type": "function"
    },
    {
      "inputs": [],
      "name": "owner",
      "outputs": [
        {
          "internalType": "address",
          "name": "",
          "type": "address"
        }
      ],
      "stateMutability": "view",
      "type": "function"
    },
    {
      "inputs": [
        {
          "internalType": "uint256",
          "name": "tokenId",
          "type": "uint256"
        }
      ],
      "name": "ownerOf",
      "outputs": [
        {
          "internalType": "address",
          "name": "",
          "type": "address"
        }
      ],
      "stateMutability": "view",
      "type": "function"
    },
    {
      "inputs": [],
      "name": "paused",
      "outputs": [
        {
          "internalType": "bool",
          "name": "",
          "type": "bool"
        }
      ],
      "stateMutability": "view",
      "type": "function"
    },
    {
      "inputs": [
        {
          "internalType": "uint256",
          "name": "projectId",
          "type": "uint256"
        }
      ],
      "name": "projectDetails",
      "outputs": [
        {
          "components": [
            {
              "internalType": "uint24",
              "name": "_maxSupply",
              "type": "uint24"
            },
            {
              "internalType": "uint24",
              "name": "_limit",
              "type": "uint24"
            },
            {
              "internalType": "uint256",
              "name": "_mintPrice",
              "type": "uint256"
            },
            {
              "internalType": "address",
              "name": "_mintPriceAddr",
              "type": "address"
            },
            {
              "internalType": "string",
              "name": "_name",
              "type": "string"
            },
            {
              "internalType": "string",
              "name": "_creator",
              "type": "string"
            },
            {
              "internalType": "address",
              "name": "_creatorAddr",
              "type": "address"
            },
            {
              "internalType": "string",
              "name": "_license",
              "type": "string"
            },
            {
              "internalType": "string",
              "name": "_desc",
              "type": "string"
            },
            {
              "internalType": "string",
              "name": "_image",
              "type": "string"
            },
            {
              "components": [
                {
                  "internalType": "string",
                  "name": "_web",
                  "type": "string"
                },
                {
                  "internalType": "string",
                  "name": "_twitter",
                  "type": "string"
                },
                {
                  "internalType": "string",
                  "name": "_discord",
                  "type": "string"
                },
                {
                  "internalType": "string",
                  "name": "_medium",
                  "type": "string"
                },
                {
                  "internalType": "string",
                  "name": "_instagram",
                  "type": "string"
                }
              ],
              "internalType": "struct NFTProject.ProjectSocial",
              "name": "_social",
              "type": "tuple"
            },
            {
              "internalType": "string",
              "name": "_scriptType",
              "type": "string"
            },
            {
              "internalType": "string[]",
              "name": "_scripts",
              "type": "string[]"
            },
            {
              "internalType": "string",
              "name": "_styles",
              "type": "string"
            },
            {
              "internalType": "uint256",
              "name": "_completeTime",
              "type": "uint256"
            },
            {
              "internalType": "address",
              "name": "_genNFTAddr",
              "type": "address"
            }
          ],
          "internalType": "struct NFTProject.Project",
          "name": "project",
          "type": "tuple"
        }
      ],
      "stateMutability": "view",
      "type": "function"
    },
    {
      "inputs": [],
      "name": "renounceOwnership",
      "outputs": [],
      "stateMutability": "nonpayable",
      "type": "function"
    },
    {
      "inputs": [
        {
          "internalType": "uint256",
          "name": "projectId",
          "type": "uint256"
        },
        {
          "internalType": "uint256",
          "name": "_salePrice",
          "type": "uint256"
        }
      ],
      "name": "royaltyInfo",
      "outputs": [
        {
          "internalType": "address",
          "name": "receiver",
          "type": "address"
        },
        {
          "internalType": "uint256",
          "name": "royaltyAmount",
          "type": "uint256"
        }
      ],
      "stateMutability": "view",
      "type": "function"
    },
    {
      "inputs": [
        {
          "internalType": "address",
          "name": "from",
          "type": "address"
        },
        {
          "internalType": "address",
          "name": "to",
          "type": "address"
        },
        {
          "internalType": "uint256",
          "name": "tokenId",
          "type": "uint256"
        }
      ],
      "name": "safeTransferFrom",
      "outputs": [],
      "stateMutability": "nonpayable",
      "type": "function"
    },
    {
      "inputs": [
        {
          "internalType": "address",
          "name": "from",
          "type": "address"
        },
        {
          "internalType": "address",
          "name": "to",
          "type": "address"
        },
        {
          "internalType": "uint256",
          "name": "tokenId",
          "type": "uint256"
        },
        {
          "internalType": "bytes",
          "name": "data",
          "type": "bytes"
        }
      ],
      "name": "safeTransferFrom",
      "outputs": [],
      "stateMutability": "nonpayable",
      "type": "function"
    },
    {
      "inputs": [
        {
          "internalType": "address",
          "name": "operator",
          "type": "address"
        },
        {
          "internalType": "bool",
          "name": "approved",
          "type": "bool"
        }
      ],
      "name": "setApprovalForAll",
      "outputs": [],
      "stateMutability": "nonpayable",
      "type": "function"
    },
    {
      "inputs": [
        {
          "internalType": "bytes4",
          "name": "interfaceId",
          "type": "bytes4"
        }
      ],
      "name": "supportsInterface",
      "outputs": [
        {
          "internalType": "bool",
          "name": "",
          "type": "bool"
        }
      ],
      "stateMutability": "view",
      "type": "function"
    },
    {
      "inputs": [],
      "name": "symbol",
      "outputs": [
        {
          "internalType": "string",
          "name": "",
          "type": "string"
        }
      ],
      "stateMutability": "view",
      "type": "function"
    },
    {
      "inputs": [
        {
          "internalType": "uint256",
          "name": "projectId",
          "type": "uint256"
        }
      ],
      "name": "tokenURI",
      "outputs": [
        {
          "internalType": "string",
          "name": "result",
          "type": "string"
        }
      ],
      "stateMutability": "view",
      "type": "function"
    },
    {
      "inputs": [
        {
          "internalType": "address",
          "name": "from",
          "type": "address"
        },
        {
          "internalType": "address",
          "name": "to",
          "type": "address"
        },
        {
          "internalType": "uint256",
          "name": "tokenId",
          "type": "uint256"
        }
      ],
      "name": "transferFrom",
      "outputs": [],
      "stateMutability": "nonpayable",
      "type": "function"
    },
    {
      "inputs": [
        {
          "internalType": "address",
          "name": "newOwner",
          "type": "address"
        }
      ],
      "name": "transferOwnership",
      "outputs": [],
      "stateMutability": "nonpayable",
      "type": "function"
    },
    {
      "inputs": [
        {
          "internalType": "uint256",
          "name": "projectId",
          "type": "uint256"
        },
        {
          "internalType": "string",
          "name": "creatorName",
          "type": "string"
        }
      ],
      "name": "updateProjectCreatorName",
      "outputs": [],
      "stateMutability": "nonpayable",
      "type": "function"
    },
    {
      "inputs": [
        {
          "internalType": "uint256",
          "name": "projectId",
          "type": "uint256"
        },
        {
          "internalType": "string",
          "name": "license",
          "type": "string"
        }
      ],
      "name": "updateProjectLicense",
      "outputs": [],
      "stateMutability": "nonpayable",
      "type": "function"
    },
    {
      "inputs": [
        {
          "internalType": "uint256",
          "name": "projectId",
          "type": "uint256"
        },
        {
          "internalType": "string",
          "name": "projectName",
          "type": "string"
        }
      ],
      "name": "updateProjectName",
      "outputs": [],
      "stateMutability": "nonpayable",
      "type": "function"
    },
    {
      "inputs": [
        {
          "internalType": "uint256",
          "name": "projectId",
          "type": "uint256"
        },
        {
          "internalType": "uint256",
          "name": "scriptIndex",
          "type": "uint256"
        },
        {
          "internalType": "string",
          "name": "script",
          "type": "string"
        }
      ],
      "name": "updateProjectScript",
      "outputs": [],
      "stateMutability": "nonpayable",
      "type": "function"
    },
    {
      "inputs": [
        {
          "internalType": "uint256",
          "name": "projectId",
          "type": "uint256"
        },
        {
          "internalType": "string",
          "name": "scriptType",
          "type": "string"
        }
      ],
      "name": "updateProjectScriptType",
      "outputs": [],
      "stateMutability": "nonpayable",
      "type": "function"
    }
  ],
  "bytecode": "0x608060405234801561001057600080fd5b50613f7d806100206000396000f3fe60806040526004361061021a5760003560e01c806370a0823111610123578063adfc7dae116100ab578063e283d82f1161006f578063e283d82f14610662578063e56f2fe414610682578063e985e9c5146106a2578063f2fde38b146106eb578063febfd6c31461070b57600080fd5b8063adfc7dae146105ce578063b1656ba3146105ef578063b88d4fde1461060f578063c50a600b1461062f578063c87b56dd1461064257600080fd5b80638f283970116100f25780638f2839701461053957806395d89b4114610559578063a22cb4651461056e578063a65a8c191461058e578063acad0124146105ae57600080fd5b806370a08231146104aa578063715018a6146104d85780638da5cb5b146104ed5780638dd91a561461050c57600080fd5b806323b872dd116101a6578063472f1e0211610175578063472f1e0214610410578063575b57ea146104305780635c975abb146104515780636352211e1461046957806366215eb41461048957600080fd5b806323b872dd1461037157806325b75d68146103915780632a55205a146103b157806342842e0e146103f057600080fd5b8063095ea7b3116101ed578063095ea7b3146102cf5780630d170673146102f1578063166b7469146103115780631ca9741b146103315780632245f1521461035157600080fd5b806301bc45c91461021f57806301ffc9a71461025d57806306fdde031461028d578063081812fc146102af575b600080fd5b34801561022b57600080fd5b5061015f54610240906001600160a01b031681565b6040516001600160a01b0390911681526020015b60405180910390f35b34801561026957600080fd5b5061027d610278366004612f36565b61072b565b6040519015158152602001610254565b34801561029957600080fd5b506102a261077d565b6040516102549190612fab565b3480156102bb57600080fd5b506102406102ca366004612fbe565b61080f565b3480156102db57600080fd5b506102ef6102ea366004612ff7565b610836565b005b3480156102fd57600080fd5b506102ef61030c366004613139565b610951565b34801561031d57600080fd5b506102ef61032c36600461317f565b6109b4565b34801561033d57600080fd5b506102ef61034c3660046131a1565b610a2f565b34801561035d57600080fd5b506102ef61036c366004612fbe565b610ac3565b34801561037d57600080fd5b506102ef61038c3660046131be565b610b02565b34801561039d57600080fd5b506102ef6103ac366004613139565b610b33565b3480156103bd57600080fd5b506103d16103cc36600461317f565b610b96565b604080516001600160a01b039093168352602083019190915201610254565b3480156103fc57600080fd5b506102ef61040b3660046131be565b610bc7565b34801561041c57600080fd5b506102ef61042b3660046131a1565b610be2565b34801561043c57600080fd5b5061016254610240906001600160a01b031681565b34801561045d57600080fd5b5060975460ff1661027d565b34801561047557600080fd5b50610240610484366004612fbe565b610c77565b34801561049557600080fd5b5061016154610240906001600160a01b031681565b3480156104b657600080fd5b506104ca6104c53660046131a1565b610cd7565b604051908152602001610254565b3480156104e457600080fd5b506102ef610d5d565b3480156104f957600080fd5b5061012d546001600160a01b0316610240565b34801561051857600080fd5b5061052c610527366004612fbe565b610d71565b60405161025491906132d9565b34801561054557600080fd5b506102ef6105543660046131a1565b6115d7565b34801561056557600080fd5b506102a261166c565b34801561057a57600080fd5b506102ef61058936600461349f565b61167b565b34801561059a57600080fd5b506102ef6105a9366004613139565b611686565b3480156105ba57600080fd5b506102ef6105c9366004613139565b6116e9565b3480156105da57600080fd5b5061016054610240906001600160a01b031681565b3480156105fb57600080fd5b506102ef61060a3660046134d8565b61175c565b34801561061b57600080fd5b506102ef61062a366004613527565b6117e3565b6104ca61063d3660046137a7565b611815565b34801561064e57600080fd5b506102a261065d366004612fbe565b611ccd565b34801561066e57600080fd5b506102ef61067d366004613139565b611d49565b34801561068e57600080fd5b506102ef61069d3660046139c7565b611dac565b3480156106ae57600080fd5b5061027d6106bd366004613a75565b6001600160a01b039182166000908152606a6020908152604080832093909416825291909152205460ff1690565b3480156106f757600080fd5b506102ef6107063660046131a1565b611fa7565b34801561071757600080fd5b506102ef6107263660046131a1565b61201d565b60006001600160e01b031982166380ac58cd60e01b148061075c57506001600160e01b03198216635b5e139f60e01b145b8061077757506301ffc9a760e01b6001600160e01b03198316145b92915050565b60606065805461078c90613aa3565b80601f01602080910402602001604051908101604052809291908181526020018280546107b890613aa3565b80156108055780601f106107da57610100808354040283529160200191610805565b820191906000526020600020905b8154815290600101906020018083116107e857829003601f168201915b5050505050905090565b600061081a826120b2565b506000908152606960205260409020546001600160a01b031690565b600061084182610c77565b9050806001600160a01b0316836001600160a01b031614156108b45760405162461bcd60e51b815260206004820152602160248201527f4552433732313a20617070726f76616c20746f2063757272656e74206f776e656044820152603960f91b60648201526084015b60405180910390fd5b336001600160a01b03821614806108d057506108d081336106bd565b6109425760405162461bcd60e51b815260206004820152603d60248201527f4552433732313a20617070726f76652063616c6c6572206973206e6f7420746f60448201527f6b656e206f776e6572206f7220617070726f76656420666f7220616c6c00000060648201526084016108ab565b61094c8383612111565b505050565b61015f546001600160a01b03163314806109855750600082815261016460205260409020600501546001600160a01b031633145b61098e57600080fd5b600082815261016460209081526040909120825161094c92600390920191840190612d05565b61015f546001600160a01b03163314806109e85750600082815261016460205260409020600501546001600160a01b031633145b6109f157600080fd5b600082815261016460205260409020600f01805482908110610a1557610a15613ade565b906000526020600020016000610a2b9190612d89565b5050565b61015f546001600160a01b031633148015610a5257506001600160a01b03811615155b6040518060400160405280600381526020016231303160e81b81525090610a8c5760405162461bcd60e51b81526004016108ab9190612fab565b50610161546001600160a01b03828116911614610ac05761016180546001600160a01b0319166001600160a01b0383161790555b50565b600081815261016460205260409020601201546001600160a01b03163314610aea57600080fd5b60009081526101646020526040902042601190910155565b610b0c338261217f565b610b285760405162461bcd60e51b81526004016108ab90613af4565b61094c8383836121fe565b61015f546001600160a01b0316331480610b675750600082815261016460205260409020600501546001600160a01b031633145b610b7057600080fd5b600082815261016460209081526040909120825161094c92600690920191840190612d05565b61015f546001600160a01b03166000612710610bb4846101f4613b57565b610bbe9190613b76565b90509250929050565b61094c838383604051806020016040528060008152506117e3565b61015f546001600160a01b031633148015610c0557506001600160a01b03811615155b6040518060400160405280600381526020016231303160e81b81525090610c3f5760405162461bcd60e51b81526004016108ab9190612fab565b50610162546001600160a01b03828116911614610ac05761016280546001600160a01b0383166001600160a01b031990911617905550565b6000818152606760205260408120546001600160a01b0316806107775760405162461bcd60e51b8152602060048201526018602482015277115490cdcc8c4e881a5b9d985b1a59081d1bdad95b88125160421b60448201526064016108ab565b60006001600160a01b038216610d415760405162461bcd60e51b815260206004820152602960248201527f4552433732313a2061646472657373207a65726f206973206e6f7420612076616044820152683634b21037bbb732b960b91b60648201526084016108ab565b506001600160a01b031660009081526068602052604090205490565b610d6561236f565b610d6f60006123ca565b565b610d79612dc3565b60008281526101646020908152604091829020825161020081018452815462ffffff80821683526301000000909104169281019290925260018101549282019290925260028201546001600160a01b03166060820152600382018054919291608084019190610de790613aa3565b80601f0160208091040260200160405190810160405280929190818152602001828054610e1390613aa3565b8015610e605780601f10610e3557610100808354040283529160200191610e60565b820191906000526020600020905b815481529060010190602001808311610e4357829003601f168201915b50505050508152602001600482018054610e7990613aa3565b80601f0160208091040260200160405190810160405280929190818152602001828054610ea590613aa3565b8015610ef25780601f10610ec757610100808354040283529160200191610ef2565b820191906000526020600020905b815481529060010190602001808311610ed557829003601f168201915b505050918352505060058201546001600160a01b03166020820152600682018054604090920191610f2290613aa3565b80601f0160208091040260200160405190810160405280929190818152602001828054610f4e90613aa3565b8015610f9b5780601f10610f7057610100808354040283529160200191610f9b565b820191906000526020600020905b815481529060010190602001808311610f7e57829003601f168201915b50505050508152602001600782018054610fb490613aa3565b80601f0160208091040260200160405190810160405280929190818152602001828054610fe090613aa3565b801561102d5780601f106110025761010080835404028352916020019161102d565b820191906000526020600020905b81548152906001019060200180831161101057829003601f168201915b5050505050815260200160088201805461104690613aa3565b80601f016020809104026020016040519081016040528092919081815260200182805461107290613aa3565b80156110bf5780601f10611094576101008083540402835291602001916110bf565b820191906000526020600020905b8154815290600101906020018083116110a257829003601f168201915b50505050508152602001600982016040518060a00160405290816000820180546110e890613aa3565b80601f016020809104026020016040519081016040528092919081815260200182805461111490613aa3565b80156111615780601f1061113657610100808354040283529160200191611161565b820191906000526020600020905b81548152906001019060200180831161114457829003601f168201915b5050505050815260200160018201805461117a90613aa3565b80601f01602080910402602001604051908101604052809291908181526020018280546111a690613aa3565b80156111f35780601f106111c8576101008083540402835291602001916111f3565b820191906000526020600020905b8154815290600101906020018083116111d657829003601f168201915b5050505050815260200160028201805461120c90613aa3565b80601f016020809104026020016040519081016040528092919081815260200182805461123890613aa3565b80156112855780601f1061125a57610100808354040283529160200191611285565b820191906000526020600020905b81548152906001019060200180831161126857829003601f168201915b5050505050815260200160038201805461129e90613aa3565b80601f01602080910402602001604051908101604052809291908181526020018280546112ca90613aa3565b80156113175780601f106112ec57610100808354040283529160200191611317565b820191906000526020600020905b8154815290600101906020018083116112fa57829003601f168201915b5050505050815260200160048201805461133090613aa3565b80601f016020809104026020016040519081016040528092919081815260200182805461135c90613aa3565b80156113a95780601f1061137e576101008083540402835291602001916113a9565b820191906000526020600020905b81548152906001019060200180831161138c57829003601f168201915b5050505050815250508152602001600e820180546113c690613aa3565b80601f01602080910402602001604051908101604052809291908181526020018280546113f290613aa3565b801561143f5780601f106114145761010080835404028352916020019161143f565b820191906000526020600020905b81548152906001019060200180831161142257829003601f168201915b50505050508152602001600f8201805480602002602001604051908101604052809291908181526020016000905b8282101561151957838290600052602060002001805461148c90613aa3565b80601f01602080910402602001604051908101604052809291908181526020018280546114b890613aa3565b80156115055780601f106114da57610100808354040283529160200191611505565b820191906000526020600020905b8154815290600101906020018083116114e857829003601f168201915b50505050508152602001906001019061146d565b50505050815260200160108201805461153190613aa3565b80601f016020809104026020016040519081016040528092919081815260200182805461155d90613aa3565b80156115aa5780601f1061157f576101008083540402835291602001916115aa565b820191906000526020600020905b81548152906001019060200180831161158d57829003601f168201915b5050509183525050601182015460208201526012909101546001600160a01b031660409091015292915050565b61015f546001600160a01b0316331480156115fa57506001600160a01b03811615155b6040518060400160405280600381526020016231303160e81b815250906116345760405162461bcd60e51b81526004016108ab9190612fab565b5061015f546001600160a01b03828116911614610ac05761015f80546001600160a01b0383166001600160a01b031990911617905550565b60606066805461078c90613aa3565b610a2b33838361241d565b61015f546001600160a01b03163314806116ba5750600082815261016460205260409020600501546001600160a01b031633145b6116c357600080fd5b600082815261016460209081526040909120825161094c92600e90920191840190612d05565b61015f546001600160a01b031633148061171d5750600082815261016460205260409020600501546001600160a01b031633145b61172657600080fd5b6000828152610164602090815260408220600f01805460018101825590835291819020835161094c939190910191840190612d05565b61015f546001600160a01b03163314806117905750600083815261016460205260409020600501546001600160a01b031633145b61179957600080fd5b600083815261016460205260409020600f018054829190849081106117c0576117c0613ade565b9060005260206000200190805190602001906117dd929190612d05565b50505050565b6117ed338361217f565b6118095760405162461bcd60e51b81526004016108ab90613af4565b6117dd848484846124ec565b600061181f61251f565b60008360800151511161183157600080fd5b60008360a00151511161184357600080fd5b825162ffffff1661185357600080fd5b6000836020015162ffffff1611801561187e5750826000015162ffffff16836020015162ffffff1611155b61188757600080fd5b60c08301516001600160a01b031661189e57600080fd5b61016380549060006118af83613b98565b9091555050610160546001600160a01b03166118c9612579565b6101635460009081526101646020908152604091829020865181548389015162ffffff90811663010000000265ffffffffffff1990921692169190911717815591860151600183015560608601516002830180546001600160a01b039092166001600160a01b031990921691909117905560808601518051879392611955926003850192910190612d05565b5060a08201518051611971916004840191602090910190612d05565b5060c08201516005820180546001600160a01b0319166001600160a01b0390921691909117905560e082015180516119b3916006840191602090910190612d05565b5061010082015180516119d0916007840191602090910190612d05565b5061012082015180516119ed916008840191602090910190612d05565b50610140820151805180516009840191611a0c91839160200190612d05565b506020828101518051611a259260018501920190612d05565b5060408201518051611a41916002840191602090910190612d05565b5060608201518051611a5d916003840191602090910190612d05565b5060808201518051611a79916004840191602090910190612d05565b5050506101608201518051611a9891600e840191602090910190612d05565b506101808201518051611ab591600f840191602090910190612e95565b506101a08201518051611ad2916010840191602090910190612d05565b506101c082015160118201556101e090910151601290910180546001600160a01b0319166001600160a01b0390921691909117905561016354611b1690339061274e565b60405163bf40fac160e01b815260206004820152601760248201527f47454e455241544956455f4e46545f54454d504c4154450000000000000000006044820152600090611bb8906001600160a01b0384169063bf40fac190606401602060405180830381865afa158015611b8f573d6000803e3d6000fd5b505050506040513d601f19601f82011682018060405250810190611bb39190613bb3565b612768565b6101635460009081526101646020908152604080832060120180546001600160a01b0319166001600160a01b038616179055805161016081018252838152918201839052810182905260608082018390526080820183905260a0820183905260c0820183905260e082015261010081018290526101208101829052610140810191909152909150819061015f54610160546101615460405163042c519160e31b81526001600160a01b03808716946321628c8894611c8794889492841693918216929116908d90600401613c14565b600060405180830381600087803b158015611ca157600080fd5b505af1158015611cb5573d6000803e3d6000fd5b5050505061016354945050505050610777600160fb55565b6101625460405163079ebc6f60e41b8152600481018390526060916001600160a01b03169081906379ebc6f090602401600060405180830381865afa158015611d1a573d6000803e3d6000fd5b505050506040513d6000823e601f3d908101601f19168201604052611d429190810190613d39565b9392505050565b61015f546001600160a01b0316331480611d7d5750600082815261016460205260409020600501546001600160a01b031633145b611d8657600080fd5b600082815261016460209081526040909120825161094c92600490920191840190612d05565b600054610100900460ff1615808015611dcc5750600054600160ff909116105b80611de65750303b158015611de6575060005460ff166001145b611e495760405162461bcd60e51b815260206004820152602e60248201527f496e697469616c697a61626c653a20636f6e747261637420697320616c72656160448201526d191e481a5b9a5d1a585b1a5e995960921b60648201526084016108ab565b6000805460ff191660011790558015611e6c576000805461ff0019166101001790555b60408051808201909152600381526203130360ec1b60208201526001600160a01b038616611ead5760405162461bcd60e51b81526004016108ab9190612fab565b5060408051808201909152600381526203130360ec1b60208201526001600160a01b038516611eef5760405162461bcd60e51b81526004016108ab9190612fab565b5061016080546001600160a01b038087166001600160a01b03199283161790925561015f80548884169083161790556101618054868416908316179055610162805492851692909116919091179055611f488787612809565b611f5061283a565b611f58612869565b8015611f9e576000805461ff0019169055604051600181527f7f26b83ff96e1f2b6a682f133852f6798a09c465da95921460cefb38474024989060200160405180910390a15b50505050505050565b611faf61236f565b6001600160a01b0381166120145760405162461bcd60e51b815260206004820152602660248201527f4f776e61626c653a206e6577206f776e657220697320746865207a65726f206160448201526564647265737360d01b60648201526084016108ab565b610ac0816123ca565b61015f546001600160a01b03163314801561204057506001600160a01b03811615155b6040518060400160405280600381526020016231303160e81b8152509061207a5760405162461bcd60e51b81526004016108ab9190612fab565b50610160546001600160a01b03828116911614610ac05761016080546001600160a01b0383166001600160a01b031990911617905550565b6000818152606760205260409020546001600160a01b0316610ac05760405162461bcd60e51b8152602060048201526018602482015277115490cdcc8c4e881a5b9d985b1a59081d1bdad95b88125160421b60448201526064016108ab565b600081815260696020526040902080546001600160a01b0319166001600160a01b038416908117909155819061214682610c77565b6001600160a01b03167f8c5be1e5ebec7d5bd14f71427d1e84f3dd0314c0f7b2291e5b200ac8c7c3b92560405160405180910390a45050565b60008061218b83610c77565b9050806001600160a01b0316846001600160a01b031614806121d257506001600160a01b038082166000908152606a602090815260408083209388168352929052205460ff165b806121f65750836001600160a01b03166121eb8461080f565b6001600160a01b0316145b949350505050565b826001600160a01b031661221182610c77565b6001600160a01b0316146122375760405162461bcd60e51b81526004016108ab90613da6565b6001600160a01b0382166122995760405162461bcd60e51b8152602060048201526024808201527f4552433732313a207472616e7366657220746f20746865207a65726f206164646044820152637265737360e01b60648201526084016108ab565b6122a68383836001612898565b826001600160a01b03166122b982610c77565b6001600160a01b0316146122df5760405162461bcd60e51b81526004016108ab90613da6565b600081815260696020908152604080832080546001600160a01b03199081169091556001600160a01b0387811680865260688552838620805460001901905590871680865283862080546001019055868652606790945282852080549092168417909155905184937fddf252ad1be2c89b69c2b068fc378daa952ba7f163c4a11628f55a4df523b3ef91a4505050565b61012d546001600160a01b03163314610d6f5760405162461bcd60e51b815260206004820181905260248201527f4f776e61626c653a2063616c6c6572206973206e6f7420746865206f776e657260448201526064016108ab565b61012d80546001600160a01b038381166001600160a01b0319831681179093556040519116919082907f8be0079c531659141344cd1fd0a4f28419497f9722a3daafe3b4186f6b6457e090600090a35050565b816001600160a01b0316836001600160a01b0316141561247f5760405162461bcd60e51b815260206004820152601960248201527f4552433732313a20617070726f766520746f2063616c6c65720000000000000060448201526064016108ab565b6001600160a01b038381166000818152606a6020908152604080832094871680845294825291829020805460ff191686151590811790915591519182527f17307eab39ab6107e8899845ad3d59bd9653f200f220920489ca2b5937696c31910160405180910390a3505050565b6124f78484846121fe565b6125038484848461290b565b6117dd5760405162461bcd60e51b81526004016108ab90613deb565b600260fb5414156125725760405162461bcd60e51b815260206004820152601f60248201527f5265656e7472616e637947756172643a207265656e7472616e742063616c6c0060448201526064016108ab565b600260fb55565b61015f546001600160a01b03163314610d6f5761016054604051636d12dce160e01b81526020600482015260126024820152714352454154455f50524f4a4543545f46454560701b60448201526001600160a01b03909116906000908290636d12dce190606401602060405180830381865afa1580156125fd573d6000803e3d6000fd5b505050506040513d601f19601f820116820180604052508101906126219190613e3d565b90508015610a2b5760405163bf40fac160e01b81526020600482015260096024820152682322a2afaa27a5a2a760b91b60448201526000906001600160a01b0384169063bf40fac190606401602060405180830381865afa15801561268a573d6000803e3d6000fd5b505050506040513d601f19601f820116820180604052508101906126ae9190613bb3565b90506001600160a01b03811615612741576040516323b872dd60e01b81523360048201523060248201526044810183905281906001600160a01b038216906323b872dd906064016020604051808303816000875af1158015612714573d6000803e3d6000fd5b505050506040513d601f19601f820116820180604052508101906127389190613e56565b6117dd57600080fd5b8134101561094c57600080fd5b610a2b828260405180602001604052806000815250612a09565b6000763d602d80600a3d3981f3363d3d373d3d3d363d730000008260601b60e81c176000526e5af43d82803e903d91602b57fd5bf38260781b17602052603760096000f090506001600160a01b0381166127fd5760405162461bcd60e51b8152602060048201526016602482015275115490cc4c4d8dce8818dc99585d194819985a5b195960521b60448201526064016108ab565b919050565b600160fb55565b600054610100900460ff166128305760405162461bcd60e51b81526004016108ab90613e73565b610a2b8282612a3c565b600054610100900460ff166128615760405162461bcd60e51b81526004016108ab90613e73565b610d6f612a8a565b600054610100900460ff166128905760405162461bcd60e51b81526004016108ab90613e73565b610d6f612ab1565b6128a484848484612ae4565b60975460ff16156117dd5760405162461bcd60e51b815260206004820152602b60248201527f4552433732315061757361626c653a20746f6b656e207472616e73666572207760448201526a1a1a5b19481c185d5cd95960aa1b60648201526084016108ab565b60006001600160a01b0384163b156129fe57604051630a85bd0160e11b81526001600160a01b0385169063150b7a029061294f903390899088908890600401613ebe565b6020604051808303816000875af192505050801561298a575060408051601f3d908101601f1916820190925261298791810190613efb565b60015b6129e4573d8080156129b8576040519150601f19603f3d011682016040523d82523d6000602084013e6129bd565b606091505b5080516129dc5760405162461bcd60e51b81526004016108ab90613deb565b805181602001fd5b6001600160e01b031916630a85bd0160e11b1490506121f6565b506001949350505050565b612a138383612b6c565b612a20600084848461290b565b61094c5760405162461bcd60e51b81526004016108ab90613deb565b600054610100900460ff16612a635760405162461bcd60e51b81526004016108ab90613e73565b8151612a76906065906020850190612d05565b50805161094c906066906020840190612d05565b600054610100900460ff166128025760405162461bcd60e51b81526004016108ab90613e73565b600054610100900460ff16612ad85760405162461bcd60e51b81526004016108ab90613e73565b6097805460ff19169055565b60018111156117dd576001600160a01b03841615612b2a576001600160a01b03841660009081526068602052604081208054839290612b24908490613f18565b90915550505b6001600160a01b038316156117dd576001600160a01b03831660009081526068602052604081208054839290612b61908490613f2f565b909155505050505050565b6001600160a01b038216612bc25760405162461bcd60e51b815260206004820181905260248201527f4552433732313a206d696e7420746f20746865207a65726f206164647265737360448201526064016108ab565b6000818152606760205260409020546001600160a01b031615612c275760405162461bcd60e51b815260206004820152601c60248201527f4552433732313a20746f6b656e20616c7265616479206d696e7465640000000060448201526064016108ab565b612c35600083836001612898565b6000818152606760205260409020546001600160a01b031615612c9a5760405162461bcd60e51b815260206004820152601c60248201527f4552433732313a20746f6b656e20616c7265616479206d696e7465640000000060448201526064016108ab565b6001600160a01b038216600081815260686020908152604080832080546001019055848352606790915280822080546001600160a01b0319168417905551839291907fddf252ad1be2c89b69c2b068fc378daa952ba7f163c4a11628f55a4df523b3ef908290a45050565b828054612d1190613aa3565b90600052602060002090601f016020900481019282612d335760008555612d79565b82601f10612d4c57805160ff1916838001178555612d79565b82800160010185558215612d79579182015b82811115612d79578251825591602001919060010190612d5e565b50612d85929150612eee565b5090565b508054612d9590613aa3565b6000825580601f10612da5575050565b601f016020900490600052602060002090810190610ac09190612eee565b604051806102000160405280600062ffffff168152602001600062ffffff1681526020016000815260200160006001600160a01b03168152602001606081526020016060815260200160006001600160a01b03168152602001606081526020016060815260200160608152602001612e636040518060a0016040528060608152602001606081526020016060815260200160608152602001606081525090565b81526020016060815260200160608152602001606081526020016000815260200160006001600160a01b031681525090565b828054828255906000526020600020908101928215612ee2579160200282015b82811115612ee25782518051612ed2918491602090910190612d05565b5091602001919060010190612eb5565b50612d85929150612f03565b5b80821115612d855760008155600101612eef565b80821115612d85576000612f178282612d89565b50600101612f03565b6001600160e01b031981168114610ac057600080fd5b600060208284031215612f4857600080fd5b8135611d4281612f20565b60005b83811015612f6e578181015183820152602001612f56565b838111156117dd5750506000910152565b60008151808452612f97816020860160208601612f53565b601f01601f19169290920160200192915050565b602081526000611d426020830184612f7f565b600060208284031215612fd057600080fd5b5035919050565b6001600160a01b0381168114610ac057600080fd5b80356127fd81612fd7565b6000806040838503121561300a57600080fd5b823561301581612fd7565b946020939093013593505050565b634e487b7160e01b600052604160045260246000fd5b60405160a081016001600160401b038111828210171561305b5761305b613023565b60405290565b60405161020081016001600160401b038111828210171561305b5761305b613023565b604051601f8201601f191681016001600160401b03811182821017156130ac576130ac613023565b604052919050565b60006001600160401b038211156130cd576130cd613023565b50601f01601f191660200190565b60006130ee6130e9846130b4565b613084565b905082815283838301111561310257600080fd5b828260208301376000602084830101529392505050565b600082601f83011261312a57600080fd5b611d42838335602085016130db565b6000806040838503121561314c57600080fd5b8235915060208301356001600160401b0381111561316957600080fd5b61317585828601613119565b9150509250929050565b6000806040838503121561319257600080fd5b50508035926020909101359150565b6000602082840312156131b357600080fd5b8135611d4281612fd7565b6000806000606084860312156131d357600080fd5b83356131de81612fd7565b925060208401356131ee81612fd7565b929592945050506040919091013590565b6000815160a0845261321460a0850182612f7f565b90506020830151848203602086015261322d8282612f7f565b915050604083015184820360408601526132478282612f7f565b915050606083015184820360608601526132618282612f7f565b9150506080830151848203608086015261327b8282612f7f565b95945050505050565b600081518084526020808501808196508360051b8101915082860160005b858110156132cc5782840389526132ba848351612f7f565b988501989350908401906001016132a2565b5091979650505050505050565b602081526132ef60208201835162ffffff169052565b60006020830151613307604084018262ffffff169052565b5060408301516060830152606083015161332c60808401826001600160a01b03169052565b5060808301516102008060a0850152613349610220850183612f7f565b915060a0850151601f19808685030160c08701526133678483612f7f565b935060c0870151915061338560e08701836001600160a01b03169052565b60e087015191506101008187860301818801526133a28584612f7f565b9450808801519250506101208187860301818801526133c18584612f7f565b9450808801519250506101408187860301818801526133e08584612f7f565b9450808801519250506101608187860301818801526133ff85846131ff565b94508088015192505061018081878603018188015261341e8584612f7f565b9450808801519250506101a081878603018188015261343d8584613284565b9450808801519250506101c081878603018188015261345c8584612f7f565b908801516101e0888101919091528801516001600160a01b0381168589015290945091506134879050565b5090949350505050565b8015158114610ac057600080fd5b600080604083850312156134b257600080fd5b82356134bd81612fd7565b915060208301356134cd81613491565b809150509250929050565b6000806000606084860312156134ed57600080fd5b833592506020840135915060408401356001600160401b0381111561351157600080fd5b61351d86828701613119565b9150509250925092565b6000806000806080858703121561353d57600080fd5b843561354881612fd7565b9350602085013561355881612fd7565b92506040850135915060608501356001600160401b0381111561357a57600080fd5b8501601f8101871361358b57600080fd5b61359a878235602084016130db565b91505092959194509250565b803562ffffff811681146127fd57600080fd5b600060a082840312156135cb57600080fd5b6135d3613039565b905081356001600160401b03808211156135ec57600080fd5b6135f885838601613119565b8352602084013591508082111561360e57600080fd5b61361a85838601613119565b6020840152604084013591508082111561363357600080fd5b61363f85838601613119565b6040840152606084013591508082111561365857600080fd5b61366485838601613119565b6060840152608084013591508082111561367d57600080fd5b5061368a84828501613119565b60808301525092915050565b60006001600160401b038211156136af576136af613023565b5060051b60200190565b600082601f8301126136ca57600080fd5b813560206136da6130e983613696565b82815260059290921b840181019181810190868411156136f957600080fd5b8286015b848110156137385780356001600160401b0381111561371c5760008081fd5b61372a8986838b0101613119565b8452509183019183016136fd565b509695505050505050565b600082601f83011261375457600080fd5b813560206137646130e983613696565b82815260059290921b8401810191818101908684111561378357600080fd5b8286015b8481101561373857803561379a81612fd7565b8352918301918301613787565b600080604083850312156137ba57600080fd5b82356001600160401b03808211156137d157600080fd5b9084019061020082870312156137e657600080fd5b6137ee613061565b6137f7836135a6565b8152613805602084016135a6565b60208201526040830135604082015261382060608401612fec565b606082015260808301358281111561383757600080fd5b61384388828601613119565b60808301525060a08301358281111561385b57600080fd5b61386788828601613119565b60a08301525061387960c08401612fec565b60c082015260e08301358281111561389057600080fd5b61389c88828601613119565b60e08301525061010080840135838111156138b657600080fd5b6138c289828701613119565b82840152505061012080840135838111156138dc57600080fd5b6138e889828701613119565b828401525050610140808401358381111561390257600080fd5b61390e898287016135b9565b828401525050610160808401358381111561392857600080fd5b61393489828701613119565b828401525050610180808401358381111561394e57600080fd5b61395a898287016136b9565b8284015250506101a0808401358381111561397457600080fd5b61398089828701613119565b8284015250506101c08084013581830152506101e06139a0818501612fec565b90820152935060208501359150808211156139ba57600080fd5b5061317585828601613743565b60008060008060008060c087890312156139e057600080fd5b86356001600160401b03808211156139f757600080fd5b613a038a838b01613119565b97506020890135915080821115613a1957600080fd5b50613a2689828a01613119565b9550506040870135613a3781612fd7565b93506060870135613a4781612fd7565b92506080870135613a5781612fd7565b915060a0870135613a6781612fd7565b809150509295509295509295565b60008060408385031215613a8857600080fd5b8235613a9381612fd7565b915060208301356134cd81612fd7565b600181811c90821680613ab757607f821691505b60208210811415613ad857634e487b7160e01b600052602260045260246000fd5b50919050565b634e487b7160e01b600052603260045260246000fd5b6020808252602d908201527f4552433732313a2063616c6c6572206973206e6f7420746f6b656e206f776e6560408201526c1c881bdc88185c1c1c9bdd9959609a1b606082015260800190565b634e487b7160e01b600052601160045260246000fd5b6000816000190483118215151615613b7157613b71613b41565b500290565b600082613b9357634e487b7160e01b600052601260045260246000fd5b500490565b6000600019821415613bac57613bac613b41565b5060010190565b600060208284031215613bc557600080fd5b8151611d4281612fd7565b600081518084526020808501945080840160005b83811015613c095781516001600160a01b031687529582019590820190600101613be4565b509495945050505050565b60a08152613c2e60a0820187516001600160a01b03169052565b60006020870151613c4a60c08401826001600160a01b03169052565b50604087015160e08301526060870151610100613c6d8185018362ffffff169052565b60808901519150610120613c878186018462ffffff169052565b60a08a01519250610140613ca18187018562ffffff169052565b60c08b01519350610160613cbb8188018662ffffff169052565b60e08c015194508061018088015250613cd8610200870185612f7f565b928b01516001600160a01b039081166101a0880152918b01516101c08701528a015181166101e0860152888116602086015287811660408601528616606085015283810360808501529050613d2d8185613bd0565b98975050505050505050565b600060208284031215613d4b57600080fd5b81516001600160401b03811115613d6157600080fd5b8201601f81018413613d7257600080fd5b8051613d806130e9826130b4565b818152856020838501011115613d9557600080fd5b61327b826020830160208601612f53565b60208082526025908201527f4552433732313a207472616e736665722066726f6d20696e636f72726563742060408201526437bbb732b960d91b606082015260800190565b60208082526032908201527f4552433732313a207472616e7366657220746f206e6f6e20455243373231526560408201527131b2b4bb32b91034b6b83632b6b2b73a32b960711b606082015260800190565b600060208284031215613e4f57600080fd5b5051919050565b600060208284031215613e6857600080fd5b8151611d4281613491565b6020808252602b908201527f496e697469616c697a61626c653a20636f6e7472616374206973206e6f74206960408201526a6e697469616c697a696e6760a81b606082015260800190565b6001600160a01b0385811682528416602082015260408101839052608060608201819052600090613ef190830184612f7f565b9695505050505050565b600060208284031215613f0d57600080fd5b8151611d4281612f20565b600082821015613f2a57613f2a613b41565b500390565b60008219821115613f4257613f42613b41565b50019056fea2646970667358221220a6e07cb3d89e78669ae99014f21404ff9db575e1da94d07b1d082e2f3871807564736f6c634300080c0033",
  "linkReferences": {},
  "deployedLinkReferences": {}
}