{
  "_format": "hh-sol-artifact-1",
  "contractName": "GenerativeProject",
  "sourceName": "contracts/nfts/GenerativeProject.sol",
  "abi": [
    {
      "inputs": [
        {
          "internalType": "address",
          "name": "operator",
          "type": "address"
        }
      ],
      "name": "OperatorNotAllowed",
      "type": "error"
    },
    {
      "anonymous": false,
      "inputs": [
        {
          "indexed": true,
          "internalType": "address",
          "name": "owner",
          "type": "address"
        },
        {
          "indexed": true,
          "internalType": "address",
          "name": "approved",
          "type": "address"
        },
        {
          "indexed": true,
          "internalType": "uint256",
          "name": "tokenId",
          "type": "uint256"
        }
      ],
      "name": "Approval",
      "type": "event"
    },
    {
      "anonymous": false,
      "inputs": [
        {
          "indexed": true,
          "internalType": "address",
          "name": "owner",
          "type": "address"
        },
        {
          "indexed": true,
          "internalType": "address",
          "name": "operator",
          "type": "address"
        },
        {
          "indexed": false,
          "internalType": "bool",
          "name": "approved",
          "type": "bool"
        }
      ],
      "name": "ApprovalForAll",
      "type": "event"
    },
    {
      "anonymous": false,
      "inputs": [
        {
          "indexed": false,
          "internalType": "uint8",
          "name": "version",
          "type": "uint8"
        }
      ],
      "name": "Initialized",
      "type": "event"
    },
    {
      "anonymous": false,
      "inputs": [
        {
          "indexed": true,
          "internalType": "address",
          "name": "previousOwner",
          "type": "address"
        },
        {
          "indexed": true,
          "internalType": "address",
          "name": "newOwner",
          "type": "address"
        }
      ],
      "name": "OwnershipTransferred",
      "type": "event"
    },
    {
      "anonymous": false,
      "inputs": [
        {
          "indexed": false,
          "internalType": "address",
          "name": "account",
          "type": "address"
        }
      ],
      "name": "Paused",
      "type": "event"
    },
    {
      "anonymous": false,
      "inputs": [
        {
          "indexed": true,
          "internalType": "address",
          "name": "from",
          "type": "address"
        },
        {
          "indexed": true,
          "internalType": "address",
          "name": "to",
          "type": "address"
        },
        {
          "indexed": true,
          "internalType": "uint256",
          "name": "tokenId",
          "type": "uint256"
        }
      ],
      "name": "Transfer",
      "type": "event"
    },
    {
      "anonymous": false,
      "inputs": [
        {
          "indexed": false,
          "internalType": "address",
          "name": "account",
          "type": "address"
        }
      ],
      "name": "Unpaused",
      "type": "event"
    },
    {
      "inputs": [],
      "name": "_admin",
      "outputs": [
        {
          "internalType": "address",
          "name": "",
          "type": "address"
        }
      ],
      "stateMutability": "view",
      "type": "function"
    },
    {
      "inputs": [],
      "name": "_paramsAddress",
      "outputs": [
        {
          "internalType": "address",
          "name": "",
          "type": "address"
        }
      ],
      "stateMutability": "view",
      "type": "function"
    },
    {
      "inputs": [],
      "name": "_projectDataContextAddr",
      "outputs": [
        {
          "internalType": "address",
          "name": "",
          "type": "address"
        }
      ],
      "stateMutability": "view",
      "type": "function"
    },
    {
      "inputs": [],
      "name": "_randomizerAddr",
      "outputs": [
        {
          "internalType": "address",
          "name": "",
          "type": "address"
        }
      ],
      "stateMutability": "view",
      "type": "function"
    },
    {
      "inputs": [
        {
          "internalType": "uint256",
          "name": "projectId",
          "type": "uint256"
        },
        {
          "internalType": "string",
          "name": "_script",
          "type": "string"
        }
      ],
      "name": "addProjectScript",
      "outputs": [],
      "stateMutability": "nonpayable",
      "type": "function"
    },
    {
      "inputs": [
        {
          "internalType": "address",
          "name": "to",
          "type": "address"
        },
        {
          "internalType": "uint256",
          "name": "tokenId",
          "type": "uint256"
        }
      ],
      "name": "approve",
      "outputs": [],
      "stateMutability": "nonpayable",
      "type": "function"
    },
    {
      "inputs": [
        {
          "internalType": "address",
          "name": "owner",
          "type": "address"
        }
      ],
      "name": "balanceOf",
      "outputs": [
        {
          "internalType": "uint256",
          "name": "",
          "type": "uint256"
        }
      ],
      "stateMutability": "view",
      "type": "function"
    },
    {
      "inputs": [
        {
          "internalType": "address",
          "name": "newAdm",
          "type": "address"
        }
      ],
      "name": "changeAdmin",
      "outputs": [],
      "stateMutability": "nonpayable",
      "type": "function"
    },
    {
      "inputs": [
        {
          "internalType": "address",
          "name": "newAddr",
          "type": "address"
        }
      ],
      "name": "changeDataContextAddr",
      "outputs": [],
      "stateMutability": "nonpayable",
      "type": "function"
    },
    {
      "inputs": [
        {
          "internalType": "address",
          "name": "newAddr",
          "type": "address"
        }
      ],
      "name": "changeParamAddr",
      "outputs": [],
      "stateMutability": "nonpayable",
      "type": "function"
    },
    {
      "inputs": [
        {
          "internalType": "address",
          "name": "newAddr",
          "type": "address"
        }
      ],
      "name": "changeRandomizerAddr",
      "outputs": [],
      "stateMutability": "nonpayable",
      "type": "function"
    },
    {
      "inputs": [
        {
          "internalType": "uint256",
          "name": "projectId",
          "type": "uint256"
        }
      ],
      "name": "completeProject",
      "outputs": [],
      "stateMutability": "nonpayable",
      "type": "function"
    },
    {
      "inputs": [
        {
          "internalType": "uint256",
          "name": "projectId",
          "type": "uint256"
        },
        {
          "internalType": "uint256",
          "name": "scriptIndex",
          "type": "uint256"
        }
      ],
      "name": "deleteProjectScript",
      "outputs": [],
      "stateMutability": "nonpayable",
      "type": "function"
    },
    {
      "inputs": [
        {
          "internalType": "uint256",
          "name": "tokenId",
          "type": "uint256"
        }
      ],
      "name": "getApproved",
      "outputs": [
        {
          "internalType": "address",
          "name": "",
          "type": "address"
        }
      ],
      "stateMutability": "view",
      "type": "function"
    },
    {
      "inputs": [
        {
          "internalType": "string",
          "name": "name",
          "type": "string"
        },
        {
          "internalType": "string",
          "name": "symbol",
          "type": "string"
        },
        {
          "internalType": "address",
          "name": "admin",
          "type": "address"
        },
        {
          "internalType": "address",
          "name": "paramsAddress",
          "type": "address"
        },
        {
          "internalType": "address",
          "name": "randomizerAddr",
          "type": "address"
        },
        {
          "internalType": "address",
          "name": "projectDataContextAddr",
          "type": "address"
        }
      ],
      "name": "initialize",
      "outputs": [],
      "stateMutability": "nonpayable",
      "type": "function"
    },
    {
      "inputs": [
        {
          "internalType": "address",
          "name": "owner",
          "type": "address"
        },
        {
          "internalType": "address",
          "name": "operator",
          "type": "address"
        }
      ],
      "name": "isApprovedForAll",
      "outputs": [
        {
          "internalType": "bool",
          "name": "",
          "type": "bool"
        }
      ],
      "stateMutability": "view",
      "type": "function"
    },
    {
      "inputs": [
        {
          "components": [
            {
              "internalType": "uint24",
              "name": "_maxSupply",
              "type": "uint24"
            },
            {
              "internalType": "uint24",
              "name": "_limit",
              "type": "uint24"
            },
            {
              "internalType": "uint256",
              "name": "_mintPrice",
              "type": "uint256"
            },
            {
              "internalType": "address",
              "name": "_mintPriceAddr",
              "type": "address"
            },
            {
              "internalType": "string",
              "name": "_name",
              "type": "string"
            },
            {
              "internalType": "string",
              "name": "_creator",
              "type": "string"
            },
            {
              "internalType": "address",
              "name": "_creatorAddr",
              "type": "address"
            },
            {
              "internalType": "string",
              "name": "_license",
              "type": "string"
            },
            {
              "internalType": "string",
              "name": "_desc",
              "type": "string"
            },
            {
              "internalType": "string",
              "name": "_image",
              "type": "string"
            },
            {
              "components": [
                {
                  "internalType": "string",
                  "name": "_web",
                  "type": "string"
                },
                {
                  "internalType": "string",
                  "name": "_twitter",
                  "type": "string"
                },
                {
                  "internalType": "string",
                  "name": "_discord",
                  "type": "string"
                },
                {
                  "internalType": "string",
                  "name": "_medium",
                  "type": "string"
                },
                {
                  "internalType": "string",
                  "name": "_instagram",
                  "type": "string"
                }
              ],
              "internalType": "struct NFTProject.ProjectSocial",
              "name": "_social",
              "type": "tuple"
            },
            {
              "internalType": "string[]",
              "name": "_scriptType",
              "type": "string[]"
            },
            {
              "internalType": "string[]",
              "name": "_scripts",
              "type": "string[]"
            },
            {
              "internalType": "string",
              "name": "_styles",
              "type": "string"
            },
            {
              "internalType": "uint256",
              "name": "_completeTime",
              "type": "uint256"
            },
            {
              "internalType": "address",
              "name": "_genNFTAddr",
              "type": "address"
            },
            {
              "internalType": "string",
              "name": "_itemDesc",
              "type": "string"
            },
            {
              "internalType": "address[]",
              "name": "_reserves",
              "type": "address[]"
            },
            {
              "internalType": "uint256",
              "name": "_royalty",
              "type": "uint256"
            }
          ],
          "internalType": "struct NFTProject.Project",
          "name": "project",
          "type": "tuple"
        },
        {
          "internalType": "bool",
          "name": "disable",
          "type": "bool"
        },
        {
          "internalType": "uint256",
          "name": "openingTime",
          "type": "uint256"
        }
      ],
      "name": "mint",
      "outputs": [
        {
          "internalType": "uint256",
          "name": "",
          "type": "uint256"
        }
      ],
      "stateMutability": "payable",
      "type": "function"
    },
    {
      "inputs": [],
      "name": "name",
      "outputs": [
        {
          "internalType": "string",
          "name": "",
          "type": "string"
        }
      ],
      "stateMutability": "view",
      "type": "function"
    },
    {
      "inputs": [],
      "name": "owner",
      "outputs": [
        {
          "internalType": "address",
          "name": "",
          "type": "address"
        }
      ],
      "stateMutability": "view",
      "type": "function"
    },
    {
      "inputs": [
        {
          "internalType": "uint256",
          "name": "tokenId",
          "type": "uint256"
        }
      ],
      "name": "ownerOf",
      "outputs": [
        {
          "internalType": "address",
          "name": "",
          "type": "address"
        }
      ],
      "stateMutability": "view",
      "type": "function"
    },
    {
      "inputs": [],
      "name": "paused",
      "outputs": [
        {
          "internalType": "bool",
          "name": "",
          "type": "bool"
        }
      ],
      "stateMutability": "view",
      "type": "function"
    },
    {
      "inputs": [
        {
          "internalType": "uint256",
          "name": "projectId",
          "type": "uint256"
        }
      ],
      "name": "projectDetails",
      "outputs": [
        {
          "components": [
            {
              "internalType": "uint24",
              "name": "_maxSupply",
              "type": "uint24"
            },
            {
              "internalType": "uint24",
              "name": "_limit",
              "type": "uint24"
            },
            {
              "internalType": "uint256",
              "name": "_mintPrice",
              "type": "uint256"
            },
            {
              "internalType": "address",
              "name": "_mintPriceAddr",
              "type": "address"
            },
            {
              "internalType": "string",
              "name": "_name",
              "type": "string"
            },
            {
              "internalType": "string",
              "name": "_creator",
              "type": "string"
            },
            {
              "internalType": "address",
              "name": "_creatorAddr",
              "type": "address"
            },
            {
              "internalType": "string",
              "name": "_license",
              "type": "string"
            },
            {
              "internalType": "string",
              "name": "_desc",
              "type": "string"
            },
            {
              "internalType": "string",
              "name": "_image",
              "type": "string"
            },
            {
              "components": [
                {
                  "internalType": "string",
                  "name": "_web",
                  "type": "string"
                },
                {
                  "internalType": "string",
                  "name": "_twitter",
                  "type": "string"
                },
                {
                  "internalType": "string",
                  "name": "_discord",
                  "type": "string"
                },
                {
                  "internalType": "string",
                  "name": "_medium",
                  "type": "string"
                },
                {
                  "internalType": "string",
                  "name": "_instagram",
                  "type": "string"
                }
              ],
              "internalType": "struct NFTProject.ProjectSocial",
              "name": "_social",
              "type": "tuple"
            },
            {
              "internalType": "string[]",
              "name": "_scriptType",
              "type": "string[]"
            },
            {
              "internalType": "string[]",
              "name": "_scripts",
              "type": "string[]"
            },
            {
              "internalType": "string",
              "name": "_styles",
              "type": "string"
            },
            {
              "internalType": "uint256",
              "name": "_completeTime",
              "type": "uint256"
            },
            {
              "internalType": "address",
              "name": "_genNFTAddr",
              "type": "address"
            },
            {
              "internalType": "string",
              "name": "_itemDesc",
              "type": "string"
            },
            {
              "internalType": "address[]",
              "name": "_reserves",
              "type": "address[]"
            },
            {
              "internalType": "uint256",
              "name": "_royalty",
              "type": "uint256"
            }
          ],
          "internalType": "struct NFTProject.Project",
          "name": "project",
          "type": "tuple"
        }
      ],
      "stateMutability": "view",
      "type": "function"
    },
    {
      "inputs": [
        {
          "internalType": "uint256",
          "name": "projectId",
          "type": "uint256"
        }
      ],
      "name": "projectStatus",
      "outputs": [
        {
          "internalType": "bool",
          "name": "enable",
          "type": "bool"
        }
      ],
      "stateMutability": "view",
      "type": "function"
    },
    {
      "inputs": [],
      "name": "renounceOwnership",
      "outputs": [],
      "stateMutability": "nonpayable",
      "type": "function"
    },
    {
      "inputs": [
        {
          "internalType": "uint256",
          "name": "projectId",
          "type": "uint256"
        },
        {
          "internalType": "uint256",
          "name": "_salePrice",
          "type": "uint256"
        }
      ],
      "name": "royaltyInfo",
      "outputs": [
        {
          "internalType": "address",
          "name": "receiver",
          "type": "address"
        },
        {
          "internalType": "uint256",
          "name": "royaltyAmount",
          "type": "uint256"
        }
      ],
      "stateMutability": "view",
      "type": "function"
    },
    {
      "inputs": [
        {
          "internalType": "address",
          "name": "from",
          "type": "address"
        },
        {
          "internalType": "address",
          "name": "to",
          "type": "address"
        },
        {
          "internalType": "uint256",
          "name": "tokenId",
          "type": "uint256"
        }
      ],
      "name": "safeTransferFrom",
      "outputs": [],
      "stateMutability": "nonpayable",
      "type": "function"
    },
    {
      "inputs": [
        {
          "internalType": "address",
          "name": "from",
          "type": "address"
        },
        {
          "internalType": "address",
          "name": "to",
          "type": "address"
        },
        {
          "internalType": "uint256",
          "name": "tokenId",
          "type": "uint256"
        },
        {
          "internalType": "bytes",
          "name": "data",
          "type": "bytes"
        }
      ],
      "name": "safeTransferFrom",
      "outputs": [],
      "stateMutability": "nonpayable",
      "type": "function"
    },
    {
      "inputs": [
        {
          "internalType": "address",
          "name": "operator",
          "type": "address"
        },
        {
          "internalType": "bool",
          "name": "approved",
          "type": "bool"
        }
      ],
      "name": "setApprovalForAll",
      "outputs": [],
      "stateMutability": "nonpayable",
      "type": "function"
    },
    {
      "inputs": [
        {
          "internalType": "uint256",
          "name": "projectId",
          "type": "uint256"
        },
        {
          "internalType": "bool",
          "name": "enable",
          "type": "bool"
        }
      ],
      "name": "setProjectStatus",
      "outputs": [],
      "stateMutability": "nonpayable",
      "type": "function"
    },
    {
      "inputs": [
        {
          "internalType": "bytes4",
          "name": "interfaceId",
          "type": "bytes4"
        }
      ],
      "name": "supportsInterface",
      "outputs": [
        {
          "internalType": "bool",
          "name": "",
          "type": "bool"
        }
      ],
      "stateMutability": "view",
      "type": "function"
    },
    {
      "inputs": [],
      "name": "symbol",
      "outputs": [
        {
          "internalType": "string",
          "name": "",
          "type": "string"
        }
      ],
      "stateMutability": "view",
      "type": "function"
    },
    {
      "inputs": [
        {
          "internalType": "uint256",
          "name": "projectId",
          "type": "uint256"
        }
      ],
      "name": "tokenURI",
      "outputs": [
        {
          "internalType": "string",
          "name": "result",
          "type": "string"
        }
      ],
      "stateMutability": "view",
      "type": "function"
    },
    {
      "inputs": [
        {
          "internalType": "address",
          "name": "from",
          "type": "address"
        },
        {
          "internalType": "address",
          "name": "to",
          "type": "address"
        },
        {
          "internalType": "uint256",
          "name": "tokenId",
          "type": "uint256"
        }
      ],
      "name": "transferFrom",
      "outputs": [],
      "stateMutability": "nonpayable",
      "type": "function"
    },
    {
      "inputs": [
        {
          "internalType": "address",
          "name": "newOwner",
          "type": "address"
        }
      ],
      "name": "transferOwnership",
      "outputs": [],
      "stateMutability": "nonpayable",
      "type": "function"
    },
    {
      "inputs": [
        {
          "internalType": "uint256",
          "name": "projectId",
          "type": "uint256"
        },
        {
          "internalType": "string",
          "name": "creatorName",
          "type": "string"
        }
      ],
      "name": "updateProjectCreatorName",
      "outputs": [],
      "stateMutability": "nonpayable",
      "type": "function"
    },
    {
      "inputs": [
        {
          "internalType": "uint256",
          "name": "projectId",
          "type": "uint256"
        },
        {
          "internalType": "string",
          "name": "license",
          "type": "string"
        }
      ],
      "name": "updateProjectLicense",
      "outputs": [],
      "stateMutability": "nonpayable",
      "type": "function"
    },
    {
      "inputs": [
        {
          "internalType": "uint256",
          "name": "projectId",
          "type": "uint256"
        },
        {
          "internalType": "string",
          "name": "projectName",
          "type": "string"
        }
      ],
      "name": "updateProjectName",
      "outputs": [],
      "stateMutability": "nonpayable",
      "type": "function"
    },
    {
      "inputs": [
        {
          "internalType": "uint256",
          "name": "projectId",
          "type": "uint256"
        },
        {
          "internalType": "uint256",
          "name": "scriptIndex",
          "type": "uint256"
        },
        {
          "internalType": "string",
          "name": "script",
          "type": "string"
        }
      ],
      "name": "updateProjectScript",
      "outputs": [],
      "stateMutability": "nonpayable",
      "type": "function"
    },
    {
      "inputs": [
        {
          "internalType": "uint256",
          "name": "projectId",
          "type": "uint256"
        },
        {
          "internalType": "string",
          "name": "scriptType",
          "type": "string"
        },
        {
          "internalType": "uint256",
          "name": "i",
          "type": "uint256"
        }
      ],
      "name": "updateProjectScriptType",
      "outputs": [],
      "stateMutability": "nonpayable",
      "type": "function"
    },
    {
      "inputs": [
        {
          "internalType": "uint256",
          "name": "projectId",
          "type": "uint256"
        },
        {
          "components": [
            {
              "internalType": "string",
              "name": "_web",
              "type": "string"
            },
            {
              "internalType": "string",
              "name": "_twitter",
              "type": "string"
            },
            {
              "internalType": "string",
              "name": "_discord",
              "type": "string"
            },
            {
              "internalType": "string",
              "name": "_medium",
              "type": "string"
            },
            {
              "internalType": "string",
              "name": "_instagram",
              "type": "string"
            }
          ],
          "internalType": "struct NFTProject.ProjectSocial",
          "name": "data",
          "type": "tuple"
        }
      ],
      "name": "updateProjectSocial",
      "outputs": [],
      "stateMutability": "nonpayable",
      "type": "function"
    },
    {
      "inputs": [
        {
          "internalType": "address",
          "name": "receiver",
          "type": "address"
        },
        {
          "internalType": "address",
          "name": "erc20Addr",
          "type": "address"
        },
        {
          "internalType": "uint256",
          "name": "amount",
          "type": "uint256"
        }
      ],
      "name": "withdraw",
      "outputs": [],
      "stateMutability": "nonpayable",
      "type": "function"
    }
  ],
  "bytecode": "0x608060405234801561001057600080fd5b5061565380620000216000396000f3fe6080604052600436106102465760003560e01c806366215eb411610139578063adfc7dae116100b6578063daf618001161007a578063daf61800146106ee578063e283d82f1461070e578063e56f2fe41461072e578063e985e9c51461074e578063f2fde38b14610797578063febfd6c3146107b757600080fd5b8063adfc7dae1461064d578063b1656ba31461066e578063b88d4fde1461068e578063c87b56dd146106ae578063d9caed12146106ce57600080fd5b80638e1ab777116100fd5780638e1ab777146105b85780638f283970146105d857806395d89b41146105f8578063a22cb4651461060d578063acad01241461062d57600080fd5b806366215eb41461051657806370a0823114610537578063715018a6146105575780638da5cb5b1461056c5780638dd91a561461058b57600080fd5b806325b75d68116101c7578063472f1e021161018b578063472f1e021461047d57806350ac58921461049d578063575b57ea146104bd5780635c975abb146104de5780636352211e146104f657600080fd5b806325b75d68146103bd5780632a55205a146103dd5780633af6cd1e1461041c57806342842e0e1461043c57806345bf4d081461045c57600080fd5b80630d1706731161020e5780630d1706731461031d578063166b74691461033d5780631ca9741b1461035d5780632245f1521461037d57806323b872dd1461039d57600080fd5b806301bc45c91461024b57806301ffc9a71461028957806306fdde03146102b9578063081812fc146102db578063095ea7b3146102fb575b600080fd5b34801561025757600080fd5b5061015f5461026c906001600160a01b031681565b6040516001600160a01b0390911681526020015b60405180910390f35b34801561029557600080fd5b506102a96102a43660046143fa565b6107d7565b6040519015158152602001610280565b3480156102c557600080fd5b506102ce610829565b604051610280919061446f565b3480156102e757600080fd5b5061026c6102f6366004614482565b6108bb565b34801561030757600080fd5b5061031b6103163660046144bb565b6108e2565b005b34801561032957600080fd5b5061031b6103383660046145fd565b6109fd565b34801561034957600080fd5b5061031b610358366004614643565b610b1b565b34801561036957600080fd5b5061031b610378366004614665565b610c0c565b34801561038957600080fd5b5061031b610398366004614482565b610ca0565b3480156103a957600080fd5b5061031b6103b8366004614682565b610d51565b3480156103c957600080fd5b5061031b6103d83660046145fd565b610ea7565b3480156103e957600080fd5b506103fd6103f8366004614643565b610fc5565b604080516001600160a01b039093168352602083019190915201610280565b34801561042857600080fd5b5061031b6104373660046146dc565b610ff6565b34801561044857600080fd5b5061031b610457366004614682565b6111c7565b61046f61046a36600461490d565b611312565b604051908152602001610280565b34801561048957600080fd5b5061031b610498366004614665565b611935565b3480156104a957600080fd5b506102a96104b8366004614482565b6119ca565b3480156104c957600080fd5b506101625461026c906001600160a01b031681565b3480156104ea57600080fd5b5060975460ff166102a9565b34801561050257600080fd5b5061026c610511366004614482565b611aaf565b34801561052257600080fd5b506101615461026c906001600160a01b031681565b34801561054357600080fd5b5061046f610552366004614665565b611b0f565b34801561056357600080fd5b5061031b611b95565b34801561057857600080fd5b5061012d546001600160a01b031661026c565b34801561059757600080fd5b506105ab6105a6366004614482565b611ba9565b6040516102809190614ca5565b3480156105c457600080fd5b5061031b6105d3366004614ea5565b61259c565b3480156105e457600080fd5b5061031b6105f3366004614665565b612766565b34801561060457600080fd5b506102ce6127fb565b34801561061957600080fd5b5061031b610628366004614ee1565b61280a565b34801561063957600080fd5b5061031b6106483660046145fd565b612815565b34801561065957600080fd5b506101605461026c906001600160a01b031681565b34801561067a57600080fd5b5061031b610689366004614f0f565b6128fe565b34801561069a57600080fd5b5061031b6106a9366004614f5e565b6129f5565b3480156106ba57600080fd5b506102ce6106c9366004614482565b612b4e565b3480156106da57600080fd5b5061031b6106e9366004614682565b612c08565b3480156106fa57600080fd5b5061031b610709366004614fdd565b612d64565b34801561071a57600080fd5b5061031b6107293660046145fd565b612e3e565b34801561073a57600080fd5b5061031b61074936600461502c565b612f5c565b34801561075a57600080fd5b506102a96107693660046150da565b6001600160a01b039182166000908152606a6020908152604080832093909416825291909152205460ff1690565b3480156107a357600080fd5b5061031b6107b2366004614665565b61315f565b3480156107c357600080fd5b5061031b6107d2366004614665565b6131d5565b60006001600160e01b031982166380ac58cd60e01b148061080857506001600160e01b03198216635b5e139f60e01b145b8061082357506301ffc9a760e01b6001600160e01b03198316145b92915050565b60606065805461083890615108565b80601f016020809104026020016040519081016040528092919081815260200182805461086490615108565b80156108b15780601f10610886576101008083540402835291602001916108b1565b820191906000526020600020905b81548152906001019060200180831161089457829003601f168201915b5050505050905090565b60006108c68261326a565b506000908152606960205260409020546001600160a01b031690565b60006108ed82611aaf565b9050806001600160a01b0316836001600160a01b031614156109605760405162461bcd60e51b815260206004820152602160248201527f4552433732313a20617070726f76616c20746f2063757272656e74206f776e656044820152603960f91b60648201526084015b60405180910390fd5b336001600160a01b038216148061097c575061097c8133610769565b6109ee5760405162461bcd60e51b815260206004820152603d60248201527f4552433732313a20617070726f76652063616c6c6572206973206e6f7420746f60448201527f6b656e206f776e6572206f7220617070726f76656420666f7220616c6c0000006064820152608401610957565b6109f883836132ba565b505050565b61015f546001600160a01b0316331480610a315750600082815261016460205260409020600501546001600160a01b031633145b6040518060400160405280600381526020016231303160e81b81525090610a6b5760405162461bcd60e51b8152600401610957919061446f565b50610a7582613328565b6040518060400160405280600381526020016232303960e81b81525090610aaf5760405162461bcd60e51b8152600401610957919061446f565b506000828152610164602090815260409091208251610ad69260039092019184019061415f565b5080604051610ae59190615143565b6040519081900381209083907fdaa562afcb682535ccff278b5881e249435b61d592905fa2fe0f33a9a363e11b90600090a35050565b61015f546001600160a01b0316331480610b4f5750600082815261016460205260409020600501546001600160a01b031633145b6040518060400160405280600381526020016231303160e81b81525090610b895760405162461bcd60e51b8152600401610957919061446f565b50610b9382613328565b6040518060400160405280600381526020016232303960e81b81525090610bcd5760405162461bcd60e51b8152600401610957919061446f565b50600082815261016460205260409020600f01805482908110610bf257610bf261515f565b906000526020600020016000610c0891906141e3565b5050565b61015f546001600160a01b031633148015610c2f57506001600160a01b03811615155b6040518060400160405280600381526020016231303160e81b81525090610c695760405162461bcd60e51b8152600401610957919061446f565b50610161546001600160a01b03828116911614610c9d5761016180546001600160a01b0319166001600160a01b0383161790555b50565b600081815261016460205260409020601201546001600160a01b03163314610cc757600080fd5b610cd081613328565b6040518060400160405280600381526020016232303960e81b81525090610d0a5760405162461bcd60e51b8152600401610957919061446f565b50600081815261016460205260408082204260119091018190559051909183917f28259f066448a50458eb3d217c396dbd1f78c8626a2a252ddc0d34ab906b54239190a350565b826daaeb6d7670e522a718067333cd4e3b15610e96576001600160a01b038116331415610d8857610d83848484613345565b610ea1565b604051633185c44d60e21b81526daaeb6d7670e522a718067333cd4e9063c617113490610dbb9030903390600401615175565b602060405180830381865afa158015610dd8573d6000803e3d6000fd5b505050506040513d601f19601f82011682018060405250810190610dfc919061518f565b8015610e775750604051633185c44d60e21b81526daaeb6d7670e522a718067333cd4e9063c617113490610e369030908590600401615175565b602060405180830381865afa158015610e53573d6000803e3d6000fd5b505050506040513d601f19601f82011682018060405250810190610e77919061518f565b610e9657604051633b79c77360e21b8152336004820152602401610957565b610ea1848484613345565b50505050565b61015f546001600160a01b0316331480610edb5750600082815261016460205260409020600501546001600160a01b031633145b6040518060400160405280600381526020016231303160e81b81525090610f155760405162461bcd60e51b8152600401610957919061446f565b50610f1f82613328565b6040518060400160405280600381526020016232303960e81b81525090610f595760405162461bcd60e51b8152600401610957919061446f565b506000828152610164602090815260409091208251610f809260069092019184019061415f565b5080604051610f8f9190615143565b6040519081900381209083907f37e7d36d9467fef9204db596ec8ad600a5f42d03309d7936daed5b4aedf9a16690600090a35050565b61015f546001600160a01b03166000612710610fe3846101f46151c2565b610fed91906151e1565b90509250929050565b610fff82613328565b6040518060400160405280600381526020016232303960e81b815250906110395760405162461bcd60e51b8152600401610957919061446f565b5061015f546001600160a01b031633148061106e5750600082815261016460205260409020600501546001600160a01b031633145b6040518060400160405280600381526020016231303160e81b815250906110a85760405162461bcd60e51b8152600401610957919061446f565b50600082815261016460209081526040918290206012015482516302734eab60e51b815292516001600160a01b0390911692841515928492634e69d5609260048082019392918290030181865afa158015611107573d6000803e3d6000fd5b505050506040513d601f19601f8201168201806040525081019061112b919061518f565b1515141561113857600080fd5b6040516317103dbd60e21b815282151560048201526001600160a01b03821690635c40f6f490602401600060405180830381600087803b15801561117b57600080fd5b505af115801561118f573d6000803e3d6000fd5b505060405184151592508591507ff6c6b5ef8b8f3bb25af69bda9a347568bfc16d17d1f6e911de88f63a08994af990600090a3505050565b826daaeb6d7670e522a718067333cd4e3b15611307576001600160a01b0381163314156111f957610d83848484613376565b604051633185c44d60e21b81526daaeb6d7670e522a718067333cd4e9063c61711349061122c9030903390600401615175565b602060405180830381865afa158015611249573d6000803e3d6000fd5b505050506040513d601f19601f8201168201806040525081019061126d919061518f565b80156112e85750604051633185c44d60e21b81526daaeb6d7670e522a718067333cd4e9063c6171134906112a79030908590600401615175565b602060405180830381865afa1580156112c4573d6000803e3d6000fd5b505050506040513d601f19601f820116820180604052508101906112e8919061518f565b61130757604051633b79c77360e21b8152336004820152602401610957565b610ea1848484613376565b600061131c613391565b6003846080015151118015611336575060038460a0015151115b80156113485750600084610120015151115b6040518060400160405280600381526020016203230360ec1b815250906113825760405162461bcd60e51b8152600401610957919061446f565b50835162ffffff16158015906113a35750620f4240846000015162ffffff16105b80156113b857506000846020015162ffffff16115b80156113d65750836000015162ffffff16846020015162ffffff1611155b80156113e9575061271084610240015111155b604051806040016040528060038152602001620c8c0d60ea1b815250906114235760405162461bcd60e51b8152600401610957919061446f565b5060c084015160408051808201909152600381526203130360ec1b6020820152906001600160a01b031661146a5760405162461bcd60e51b8152600401610957919061446f565b50610163805490600061147c83615203565b9091555050610160546001600160a01b03166114966133eb565b610163546000908152610164602090815260409182902087518154838a015162ffffff90811663010000000265ffffffffffff1990921692169190911717815591870151600183015560608701516002830180546001600160a01b039092166001600160a01b03199092169190911790556080870151805188939261152292600385019291019061415f565b5060a0820151805161153e91600484019160209091019061415f565b5060c08201516005820180546001600160a01b0319166001600160a01b0390921691909117905560e0820151805161158091600684019160209091019061415f565b50610100820151805161159d91600784019160209091019061415f565b5061012082015180516115ba91600884019160209091019061415f565b506101408201518051805160098401916115d99183916020019061415f565b5060208281015180516115f2926001850192019061415f565b506040820151805161160e91600284019160209091019061415f565b506060820151805161162a91600384019160209091019061415f565b506080820151805161164691600484019160209091019061415f565b505050610160820151805161166591600e84019160209091019061421d565b50610180820151805161168291600f84019160209091019061421d565b506101a0820151805161169f91601084019160209091019061415f565b506101c082015160118201556101e08201516012820180546001600160a01b0319166001600160a01b0390921691909117905561020082015180516116ee91601384019160209091019061415f565b50610220820151805161170b916014840191602090910190614276565b50610240820151816015015590505061172b8560c00151610163546135ce565b604080518082018252601781527f47454e455241544956455f4e46545f54454d504c4154450000000000000000006020820152905163bf40fac160e01b81526000916117d5916001600160a01b0385169163bf40fac19161178f919060040161446f565b602060405180830381865afa1580156117ac573d6000803e3d6000fd5b505050506040513d601f19601f820116820180604052508101906117d0919061521e565b6135e8565b610163805460009081526101646020908152604080832060120180546001600160a01b0319166001600160a01b0387811691821790925582516101a0810184523081529554868501528c5162ffffff908116878501528d85015116606080880191909152608080880187905260a08089018890528f015160c08901528e85015160e0890152908e015183166101008801528d0151610120870152825180840184529485529284018a90526101408501939093526102208b0151610160808601919091526102408c015161018086015261015f54905461016154610162549351637e11ba2960e11b81529798508897949663fc237452966118e996919594811694938116939281169216908e9060040161523b565b600060405180830381600087803b15801561190357600080fd5b505af1158015611917573d6000803e3d6000fd5b5050505061016354935050505061192e600160fb55565b9392505050565b61015f546001600160a01b03163314801561195857506001600160a01b03811615155b6040518060400160405280600381526020016231303160e81b815250906119925760405162461bcd60e51b8152600401610957919061446f565b50610162546001600160a01b03828116911614610c9d5761016280546001600160a01b0383166001600160a01b031990911617905550565b60006119d582613328565b6040518060400160405280600381526020016232303960e81b81525090611a0f5760405162461bcd60e51b8152600401610957919061446f565b50600082815261016460209081526040918290206012015482516302734eab60e51b815292516001600160a01b03909116928392634e69d560926004808401938290030181865afa158015611a68573d6000803e3d6000fd5b505050506040513d601f19601f82011682018060405250810190611a8c919061518f565b915081801561192e57505050600090815261016460205260409020601101541590565b6000818152606760205260408120546001600160a01b0316806108235760405162461bcd60e51b8152602060048201526018602482015277115490cdcc8c4e881a5b9d985b1a59081d1bdad95b88125160421b6044820152606401610957565b60006001600160a01b038216611b795760405162461bcd60e51b815260206004820152602960248201527f4552433732313a2061646472657373207a65726f206973206e6f7420612076616044820152683634b21037bbb732b960b91b6064820152608401610957565b506001600160a01b031660009081526068602052604090205490565b611b9d613689565b611ba760006136e4565b565b611bb16142cb565b611bba82613328565b6040518060400160405280600381526020016232303960e81b81525090611bf45760405162461bcd60e51b8152600401610957919061446f565b5060008281526101646020908152604091829020825161026081018452815462ffffff80821683526301000000909104169281019290925260018101549282019290925260028201546001600160a01b03166060820152600382018054919291608084019190611c6390615108565b80601f0160208091040260200160405190810160405280929190818152602001828054611c8f90615108565b8015611cdc5780601f10611cb157610100808354040283529160200191611cdc565b820191906000526020600020905b815481529060010190602001808311611cbf57829003601f168201915b50505050508152602001600482018054611cf590615108565b80601f0160208091040260200160405190810160405280929190818152602001828054611d2190615108565b8015611d6e5780601f10611d4357610100808354040283529160200191611d6e565b820191906000526020600020905b815481529060010190602001808311611d5157829003601f168201915b505050918352505060058201546001600160a01b03166020820152600682018054604090920191611d9e90615108565b80601f0160208091040260200160405190810160405280929190818152602001828054611dca90615108565b8015611e175780601f10611dec57610100808354040283529160200191611e17565b820191906000526020600020905b815481529060010190602001808311611dfa57829003601f168201915b50505050508152602001600782018054611e3090615108565b80601f0160208091040260200160405190810160405280929190818152602001828054611e5c90615108565b8015611ea95780601f10611e7e57610100808354040283529160200191611ea9565b820191906000526020600020905b815481529060010190602001808311611e8c57829003601f168201915b50505050508152602001600882018054611ec290615108565b80601f0160208091040260200160405190810160405280929190818152602001828054611eee90615108565b8015611f3b5780601f10611f1057610100808354040283529160200191611f3b565b820191906000526020600020905b815481529060010190602001808311611f1e57829003601f168201915b50505050508152602001600982016040518060a0016040529081600082018054611f6490615108565b80601f0160208091040260200160405190810160405280929190818152602001828054611f9090615108565b8015611fdd5780601f10611fb257610100808354040283529160200191611fdd565b820191906000526020600020905b815481529060010190602001808311611fc057829003601f168201915b50505050508152602001600182018054611ff690615108565b80601f016020809104026020016040519081016040528092919081815260200182805461202290615108565b801561206f5780601f106120445761010080835404028352916020019161206f565b820191906000526020600020905b81548152906001019060200180831161205257829003601f168201915b5050505050815260200160028201805461208890615108565b80601f01602080910402602001604051908101604052809291908181526020018280546120b490615108565b80156121015780601f106120d657610100808354040283529160200191612101565b820191906000526020600020905b8154815290600101906020018083116120e457829003601f168201915b5050505050815260200160038201805461211a90615108565b80601f016020809104026020016040519081016040528092919081815260200182805461214690615108565b80156121935780601f1061216857610100808354040283529160200191612193565b820191906000526020600020905b81548152906001019060200180831161217657829003601f168201915b505050505081526020016004820180546121ac90615108565b80601f01602080910402602001604051908101604052809291908181526020018280546121d890615108565b80156122255780601f106121fa57610100808354040283529160200191612225565b820191906000526020600020905b81548152906001019060200180831161220857829003601f168201915b5050505050815250508152602001600e8201805480602002602001604051908101604052809291908181526020016000905b8282101561230357838290600052602060002001805461227690615108565b80601f01602080910402602001604051908101604052809291908181526020018280546122a290615108565b80156122ef5780601f106122c4576101008083540402835291602001916122ef565b820191906000526020600020905b8154815290600101906020018083116122d257829003601f168201915b505050505081526020019060010190612257565b505050508152602001600f8201805480602002602001604051908101604052809291908181526020016000905b828210156123dc57838290600052602060002001805461234f90615108565b80601f016020809104026020016040519081016040528092919081815260200182805461237b90615108565b80156123c85780601f1061239d576101008083540402835291602001916123c8565b820191906000526020600020905b8154815290600101906020018083116123ab57829003601f168201915b505050505081526020019060010190612330565b5050505081526020016010820180546123f490615108565b80601f016020809104026020016040519081016040528092919081815260200182805461242090615108565b801561246d5780601f106124425761010080835404028352916020019161246d565b820191906000526020600020905b81548152906001019060200180831161245057829003601f168201915b50505091835250506011820154602082015260128201546001600160a01b031660408201526013820180546060909201916124a790615108565b80601f01602080910402602001604051908101604052809291908181526020018280546124d390615108565b80156125205780601f106124f557610100808354040283529160200191612520565b820191906000526020600020905b81548152906001019060200180831161250357829003601f168201915b505050505081526020016014820180548060200260200160405190810160405280929190818152602001828054801561258257602002820191906000526020600020905b81546001600160a01b03168152600190910190602001808311612564575b505050505081526020016015820154815250509050919050565b61015f546001600160a01b03163314806125d05750600082815261016460205260409020600501546001600160a01b031633145b6040518060400160405280600381526020016231303160e81b8152509061260a5760405162461bcd60e51b8152600401610957919061446f565b5061261482613328565b6040518060400160405280600381526020016232303960e81b8152509061264e5760405162461bcd60e51b8152600401610957919061446f565b5060408082015160008481526101646020908152929020815161267b93600b90920192919091019061415f565b50602080820151600084815261016483526040902081516126a593600a909201929091019061415f565b50608081015160008381526101646020908152604090912082516126d293600d909201929091019061415f565b50606081015160008381526101646020908152604090912082516126ff93600c909201929091019061415f565b5080516000838152610164602090815260409091208251612729936009909201929091019061415f565b50817fac9eecd527183c9d33cb010c7110e35faa09868c77e3cf66465a67079dca197c8260405161275a91906153cc565b60405180910390a25050565b61015f546001600160a01b03163314801561278957506001600160a01b03811615155b6040518060400160405280600381526020016231303160e81b815250906127c35760405162461bcd60e51b8152600401610957919061446f565b5061015f546001600160a01b03828116911614610c9d5761015f80546001600160a01b0383166001600160a01b031990911617905550565b60606066805461083890615108565b610c08338383613737565b61015f546001600160a01b03163314806128495750600082815261016460205260409020600501546001600160a01b031633145b6040518060400160405280600381526020016231303160e81b815250906128835760405162461bcd60e51b8152600401610957919061446f565b5061288d82613328565b6040518060400160405280600381526020016232303960e81b815250906128c75760405162461bcd60e51b8152600401610957919061446f565b506000828152610164602090815260408220600f0180546001810182559083529181902083516109f893919091019184019061415f565b61015f546001600160a01b03163314806129325750600083815261016460205260409020600501546001600160a01b031633145b6040518060400160405280600381526020016231303160e81b8152509061296c5760405162461bcd60e51b8152600401610957919061446f565b5061297683613328565b6040518060400160405280600381526020016232303960e81b815250906129b05760405162461bcd60e51b8152600401610957919061446f565b50600083815261016460205260409020600f018054829190849081106129d8576129d861515f565b906000526020600020019080519060200190610ea192919061415f565b836daaeb6d7670e522a718067333cd4e3b15612b3b576001600160a01b038116331415612a2d57612a2885858585613806565b612b47565b604051633185c44d60e21b81526daaeb6d7670e522a718067333cd4e9063c617113490612a609030903390600401615175565b602060405180830381865afa158015612a7d573d6000803e3d6000fd5b505050506040513d601f19601f82011682018060405250810190612aa1919061518f565b8015612b1c5750604051633185c44d60e21b81526daaeb6d7670e522a718067333cd4e9063c617113490612adb9030908590600401615175565b602060405180830381865afa158015612af8573d6000803e3d6000fd5b505050506040513d601f19601f82011682018060405250810190612b1c919061518f565b612b3b57604051633b79c77360e21b8152336004820152602401610957565b612b4785858585613806565b5050505050565b6060612b5982613328565b6040518060400160405280600381526020016232303960e81b81525090612b935760405162461bcd60e51b8152600401610957919061446f565b506101625460405163079ebc6f60e41b8152600481018490526001600160a01b039091169081906379ebc6f090602401600060405180830381865afa158015612be0573d6000803e3d6000fd5b505050506040513d6000823e601f3d908101601f1916820160405261192e91908101906153df565b612c10613391565b61015f5460408051808201909152600381526231303160e81b6020820152906001600160a01b03163314612c575760405162461bcd60e51b8152600401610957919061446f565b5060006001600160a01b038316612cd85781471015612c7557600080fd5b6040516001600160a01b038516908390600081818185875af1925050503d8060008114612cbe576040519150601f19603f3d011682016040523d82523d6000602084013e612cc3565b606091505b50508091505080612cd357600080fd5b612d59565b60405163a9059cbb60e01b81526001600160a01b0385811660048301526024820184905284919082169063a9059cbb906044016020604051808303816000875af1158015612d2a573d6000803e3d6000fd5b505050506040513d601f19601f82011682018060405250810190612d4e919061518f565b612d5757600080fd5b505b506109f8600160fb55565b61015f546001600160a01b0316331480612d985750600083815261016460205260409020600501546001600160a01b031633145b6040518060400160405280600381526020016231303160e81b81525090612dd25760405162461bcd60e51b8152600401610957919061446f565b50612ddc83613328565b6040518060400160405280600381526020016232303960e81b81525090612e165760405162461bcd60e51b8152600401610957919061446f565b50600083815261016460205260409020600e018054839190839081106129d8576129d861515f565b61015f546001600160a01b0316331480612e725750600082815261016460205260409020600501546001600160a01b031633145b6040518060400160405280600381526020016231303160e81b81525090612eac5760405162461bcd60e51b8152600401610957919061446f565b50612eb682613328565b6040518060400160405280600381526020016232303960e81b81525090612ef05760405162461bcd60e51b8152600401610957919061446f565b506000828152610164602090815260409091208251612f179260049092019184019061415f565b5080604051612f269190615143565b6040519081900381209083907f0659e01d131efb672ee6f7f79276247f0e1a8ad1731616056a9e671caa57b41090600090a35050565b600054610100900460ff1615808015612f7c5750600054600160ff909116105b80612f965750303b158015612f96575060005460ff166001145b612ff95760405162461bcd60e51b815260206004820152602e60248201527f496e697469616c697a61626c653a20636f6e747261637420697320616c72656160448201526d191e481a5b9a5d1a585b1a5e995960921b6064820152608401610957565b6000805460ff19166001179055801561301c576000805461ff0019166101001790555b60408051808201909152600381526203130360ec1b60208201526001600160a01b03861661305d5760405162461bcd60e51b8152600401610957919061446f565b5060408051808201909152600381526203130360ec1b60208201526001600160a01b03851661309f5760405162461bcd60e51b8152600401610957919061446f565b5061016080546001600160a01b038087166001600160a01b03199283161790925561015f805488841690831617905561016180548684169083161790556101628054928516929091169190911790556130f88787613838565b613100613869565b613108613898565b6131106138c7565b8015613156576000805461ff0019169055604051600181527f7f26b83ff96e1f2b6a682f133852f6798a09c465da95921460cefb38474024989060200160405180910390a15b50505050505050565b613167613689565b6001600160a01b0381166131cc5760405162461bcd60e51b815260206004820152602660248201527f4f776e61626c653a206e6577206f776e657220697320746865207a65726f206160448201526564647265737360d01b6064820152608401610957565b610c9d816136e4565b61015f546001600160a01b0316331480156131f857506001600160a01b03811615155b6040518060400160405280600381526020016231303160e81b815250906132325760405162461bcd60e51b8152600401610957919061446f565b50610160546001600160a01b03828116911614610c9d5761016080546001600160a01b0383166001600160a01b031990911617905550565b61327381613328565b610c9d5760405162461bcd60e51b8152602060048201526018602482015277115490cdcc8c4e881a5b9d985b1a59081d1bdad95b88125160421b6044820152606401610957565b600081815260696020526040902080546001600160a01b0319166001600160a01b03841690811790915581906132ef82611aaf565b6001600160a01b03167f8c5be1e5ebec7d5bd14f71427d1e84f3dd0314c0f7b2291e5b200ac8c7c3b92560405160405180910390a45050565b6000908152606760205260409020546001600160a01b0316151590565b61334f338261390d565b61336b5760405162461bcd60e51b81526004016109579061544c565b6109f883838361398c565b6109f8838383604051806020016040528060008152506129f5565b600260fb5414156133e45760405162461bcd60e51b815260206004820152601f60248201527f5265656e7472616e637947756172643a207265656e7472616e742063616c6c006044820152606401610957565b600260fb55565b61015f546001600160a01b03163314611ba7576101605460408051808201825260128152714352454154455f50524f4a4543545f46454560701b60208201529051636d12dce160e01b81526001600160a01b03909216916000918391636d12dce1916134599160040161446f565b602060405180830381865afa158015613476573d6000803e3d6000fd5b505050506040513d601f19601f8201168201806040525081019061349a9190615499565b90508015610c085760408051808201825260098152682322a2afaa27a5a2a760b91b6020820152905163bf40fac160e01b81526000916001600160a01b0385169163bf40fac1916134ed9160040161446f565b602060405180830381865afa15801561350a573d6000803e3d6000fd5b505050506040513d601f19601f8201168201806040525081019061352e919061521e565b90506001600160a01b038116156135c1576040516323b872dd60e01b81523360048201523060248201526044810183905281906001600160a01b038216906323b872dd906064016020604051808303816000875af1158015613594573d6000803e3d6000fd5b505050506040513d601f19601f820116820180604052508101906135b8919061518f565b610ea157600080fd5b813410156109f857600080fd5b610c08828260405180602001604052806000815250613afd565b6000763d602d80600a3d3981f3363d3d373d3d3d363d730000008260601b60e81c176000526e5af43d82803e903d91602b57fd5bf38260781b17602052603760096000f090506001600160a01b03811661367d5760405162461bcd60e51b8152602060048201526016602482015275115490cc4c4d8dce8818dc99585d194819985a5b195960521b6044820152606401610957565b919050565b600160fb55565b61012d546001600160a01b03163314611ba75760405162461bcd60e51b815260206004820181905260248201527f4f776e61626c653a2063616c6c6572206973206e6f7420746865206f776e65726044820152606401610957565b61012d80546001600160a01b038381166001600160a01b0319831681179093556040519116919082907f8be0079c531659141344cd1fd0a4f28419497f9722a3daafe3b4186f6b6457e090600090a35050565b816001600160a01b0316836001600160a01b031614156137995760405162461bcd60e51b815260206004820152601960248201527f4552433732313a20617070726f766520746f2063616c6c6572000000000000006044820152606401610957565b6001600160a01b038381166000818152606a6020908152604080832094871680845294825291829020805460ff191686151590811790915591519182527f17307eab39ab6107e8899845ad3d59bd9653f200f220920489ca2b5937696c31910160405180910390a3505050565b613810338361390d565b61382c5760405162461bcd60e51b81526004016109579061544c565b610ea184848484613b30565b600054610100900460ff1661385f5760405162461bcd60e51b8152600401610957906154b2565b610c088282613b63565b600054610100900460ff166138905760405162461bcd60e51b8152600401610957906154b2565b611ba7613bb1565b600054610100900460ff166138bf5760405162461bcd60e51b8152600401610957906154b2565b611ba7613bd8565b600054610100900460ff166138ee5760405162461bcd60e51b8152600401610957906154b2565b611ba7733cc6cdda760b79bafa08df41ecfa224f810dceb66001613c0b565b60008061391983611aaf565b9050806001600160a01b0316846001600160a01b0316148061396057506001600160a01b038082166000908152606a602090815260408083209388168352929052205460ff165b806139845750836001600160a01b0316613979846108bb565b6001600160a01b0316145b949350505050565b826001600160a01b031661399f82611aaf565b6001600160a01b0316146139c55760405162461bcd60e51b8152600401610957906154fd565b6001600160a01b038216613a275760405162461bcd60e51b8152602060048201526024808201527f4552433732313a207472616e7366657220746f20746865207a65726f206164646044820152637265737360e01b6064820152608401610957565b613a348383836001613d9c565b826001600160a01b0316613a4782611aaf565b6001600160a01b031614613a6d5760405162461bcd60e51b8152600401610957906154fd565b600081815260696020908152604080832080546001600160a01b03199081169091556001600160a01b0387811680865260688552838620805460001901905590871680865283862080546001019055868652606790945282852080549092168417909155905184937fddf252ad1be2c89b69c2b068fc378daa952ba7f163c4a11628f55a4df523b3ef91a4505050565b613b078383613deb565b613b146000848484613f66565b6109f85760405162461bcd60e51b815260040161095790615542565b613b3b84848461398c565b613b4784848484613f66565b610ea15760405162461bcd60e51b815260040161095790615542565b600054610100900460ff16613b8a5760405162461bcd60e51b8152600401610957906154b2565b8151613b9d90606590602085019061415f565b5080516109f890606690602084019061415f565b600054610100900460ff166136825760405162461bcd60e51b8152600401610957906154b2565b600054610100900460ff16613bff5760405162461bcd60e51b8152600401610957906154b2565b6097805460ff19169055565b600054610100900460ff16613c325760405162461bcd60e51b8152600401610957906154b2565b6daaeb6d7670e522a718067333cd4e3b15610c085760405163c3c5a54760e01b81523060048201526daaeb6d7670e522a718067333cd4e9063c3c5a547906024016020604051808303816000875af1158015613c92573d6000803e3d6000fd5b505050506040513d601f19601f82011682018060405250810190613cb6919061518f565b610c08578015613d2957604051633e9f1edf60e11b81526daaeb6d7670e522a718067333cd4e90637d3e3dbe90613cf39030908690600401615175565b600060405180830381600087803b158015613d0d57600080fd5b505af1158015613d21573d6000803e3d6000fd5b505050505050565b6001600160a01b03821615613d6b5760405163a0af290360e01b81526daaeb6d7670e522a718067333cd4e9063a0af290390613cf39030908690600401615175565b604051632210724360e11b81523060048201526daaeb6d7670e522a718067333cd4e90634420e48690602401613cf3565b60408051808201909152600381526203231360ec1b60208201526001600160a01b03851615613dde5760405162461bcd60e51b8152600401610957919061446f565b50610ea184848484614064565b6001600160a01b038216613e415760405162461bcd60e51b815260206004820181905260248201527f4552433732313a206d696e7420746f20746865207a65726f20616464726573736044820152606401610957565b613e4a81613328565b15613e975760405162461bcd60e51b815260206004820152601c60248201527f4552433732313a20746f6b656e20616c7265616479206d696e746564000000006044820152606401610957565b613ea5600083836001613d9c565b613eae81613328565b15613efb5760405162461bcd60e51b815260206004820152601c60248201527f4552433732313a20746f6b656e20616c7265616479206d696e746564000000006044820152606401610957565b6001600160a01b038216600081815260686020908152604080832080546001019055848352606790915280822080546001600160a01b0319168417905551839291907fddf252ad1be2c89b69c2b068fc378daa952ba7f163c4a11628f55a4df523b3ef908290a45050565b60006001600160a01b0384163b1561405957604051630a85bd0160e11b81526001600160a01b0385169063150b7a0290613faa903390899088908890600401615594565b6020604051808303816000875af1925050508015613fe5575060408051601f3d908101601f19168201909252613fe2918101906155d1565b60015b61403f573d808015614013576040519150601f19603f3d011682016040523d82523d6000602084013e614018565b606091505b5080516140375760405162461bcd60e51b815260040161095790615542565b805181602001fd5b6001600160e01b031916630a85bd0160e11b149050613984565b506001949350505050565b614070848484846140d7565b60975460ff1615610ea15760405162461bcd60e51b815260206004820152602b60248201527f4552433732315061757361626c653a20746f6b656e207472616e73666572207760448201526a1a1a5b19481c185d5cd95960aa1b6064820152608401610957565b6001811115610ea1576001600160a01b0384161561411d576001600160a01b038416600090815260686020526040812080548392906141179084906155ee565b90915550505b6001600160a01b03831615610ea1576001600160a01b03831660009081526068602052604081208054839290614154908490615605565b909155505050505050565b82805461416b90615108565b90600052602060002090601f01602090048101928261418d57600085556141d3565b82601f106141a657805160ff19168380011785556141d3565b828001600101855582156141d3579182015b828111156141d35782518255916020019190600101906141b8565b506141df9291506143b2565b5090565b5080546141ef90615108565b6000825580601f106141ff575050565b601f016020900490600052602060002090810190610c9d91906143b2565b82805482825590600052602060002090810192821561426a579160200282015b8281111561426a578251805161425a91849160209091019061415f565b509160200191906001019061423d565b506141df9291506143c7565b8280548282559060005260206000209081019282156141d3579160200282015b828111156141d357825182546001600160a01b0319166001600160a01b03909116178255602090920191600190910190614296565b604051806102600160405280600062ffffff168152602001600062ffffff1681526020016000815260200160006001600160a01b03168152602001606081526020016060815260200160006001600160a01b0316815260200160608152602001606081526020016060815260200161436b6040518060a0016040528060608152602001606081526020016060815260200160608152602001606081525090565b81526020016060815260200160608152602001606081526020016000815260200160006001600160a01b031681526020016060815260200160608152602001600081525090565b5b808211156141df57600081556001016143b3565b808211156141df5760006143db82826141e3565b506001016143c7565b6001600160e01b031981168114610c9d57600080fd5b60006020828403121561440c57600080fd5b813561192e816143e4565b60005b8381101561443257818101518382015260200161441a565b83811115610ea15750506000910152565b6000815180845261445b816020860160208601614417565b601f01601f19169290920160200192915050565b60208152600061192e6020830184614443565b60006020828403121561449457600080fd5b5035919050565b6001600160a01b0381168114610c9d57600080fd5b803561367d8161449b565b600080604083850312156144ce57600080fd5b82356144d98161449b565b946020939093013593505050565b634e487b7160e01b600052604160045260246000fd5b60405160a081016001600160401b038111828210171561451f5761451f6144e7565b60405290565b60405161026081016001600160401b038111828210171561451f5761451f6144e7565b604051601f8201601f191681016001600160401b0381118282101715614570576145706144e7565b604052919050565b60006001600160401b03821115614591576145916144e7565b50601f01601f191660200190565b60006145b26145ad84614578565b614548565b90508281528383830111156145c657600080fd5b828260208301376000602084830101529392505050565b600082601f8301126145ee57600080fd5b61192e8383356020850161459f565b6000806040838503121561461057600080fd5b8235915060208301356001600160401b0381111561462d57600080fd5b614639858286016145dd565b9150509250929050565b6000806040838503121561465657600080fd5b50508035926020909101359150565b60006020828403121561467757600080fd5b813561192e8161449b565b60008060006060848603121561469757600080fd5b83356146a28161449b565b925060208401356146b28161449b565b929592945050506040919091013590565b8015158114610c9d57600080fd5b803561367d816146c3565b600080604083850312156146ef57600080fd5b823591506020830135614701816146c3565b809150509250929050565b803562ffffff8116811461367d57600080fd5b600060a0828403121561473157600080fd5b6147396144fd565b905081356001600160401b038082111561475257600080fd5b61475e858386016145dd565b8352602084013591508082111561477457600080fd5b614780858386016145dd565b6020840152604084013591508082111561479957600080fd5b6147a5858386016145dd565b604084015260608401359150808211156147be57600080fd5b6147ca858386016145dd565b606084015260808401359150808211156147e357600080fd5b506147f0848285016145dd565b60808301525092915050565b60006001600160401b03821115614815576148156144e7565b5060051b60200190565b600082601f83011261483057600080fd5b813560206148406145ad836147fc565b82815260059290921b8401810191818101908684111561485f57600080fd5b8286015b8481101561489e5780356001600160401b038111156148825760008081fd5b6148908986838b01016145dd565b845250918301918301614863565b509695505050505050565b600082601f8301126148ba57600080fd5b813560206148ca6145ad836147fc565b82815260059290921b840181019181810190868411156148e957600080fd5b8286015b8481101561489e5780356149008161449b565b83529183019183016148ed565b60008060006060848603121561492257600080fd5b83356001600160401b038082111561493957600080fd5b90850190610260828803121561494e57600080fd5b614956614525565b61495f8361470c565b815261496d6020840161470c565b602082015260408301356040820152614988606084016144b0565b606082015260808301358281111561499f57600080fd5b6149ab898286016145dd565b60808301525060a0830135828111156149c357600080fd5b6149cf898286016145dd565b60a0830152506149e160c084016144b0565b60c082015260e0830135828111156149f857600080fd5b614a04898286016145dd565b60e0830152506101008084013583811115614a1e57600080fd5b614a2a8a8287016145dd565b8284015250506101208084013583811115614a4457600080fd5b614a508a8287016145dd565b8284015250506101408084013583811115614a6a57600080fd5b614a768a82870161471f565b8284015250506101608084013583811115614a9057600080fd5b614a9c8a82870161481f565b8284015250506101808084013583811115614ab657600080fd5b614ac28a82870161481f565b8284015250506101a08084013583811115614adc57600080fd5b614ae88a8287016145dd565b8284015250506101c08084013581830152506101e0614b088185016144b0565b908201526102008381013583811115614b2057600080fd5b614b2c8a8287016145dd565b8284015250506102208084013583811115614b4657600080fd5b614b528a8287016148a9565b82840152505061024091508183013582820152809550505050614b77602085016146d1565b9150604084013590509250925092565b6000815160a08452614b9c60a0850182614443565b905060208301518482036020860152614bb58282614443565b91505060408301518482036040860152614bcf8282614443565b91505060608301518482036060860152614be98282614443565b91505060808301518482036080860152614c038282614443565b95945050505050565b600081518084526020808501808196508360051b8101915082860160005b85811015614c54578284038952614c42848351614443565b98850198935090840190600101614c2a565b5091979650505050505050565b600081518084526020808501945080840160005b83811015614c9a5781516001600160a01b031687529582019590820190600101614c75565b509495945050505050565b60208152614cbb60208201835162ffffff169052565b60006020830151614cd3604084018262ffffff169052565b50604083015160608301526060830151614cf860808401826001600160a01b03169052565b5060808301516102608060a0850152614d15610280850183614443565b915060a0850151601f19808685030160c0870152614d338483614443565b935060c08701519150614d5160e08701836001600160a01b03169052565b60e08701519150610100818786030181880152614d6e8584614443565b945080880151925050610120818786030181880152614d8d8584614443565b945080880151925050610140818786030181880152614dac8584614443565b945080880151925050610160818786030181880152614dcb8584614b87565b945080880151925050610180818786030181880152614dea8584614c0c565b9450808801519250506101a0818786030181880152614e098584614c0c565b9450808801519250506101c0818786030181880152614e288584614443565b908801516101e0888101919091528801519094509150610200614e55818801846001600160a01b03169052565b80880151925050610220818786030181880152614e728584614443565b945080880151925050610240818786030181880152614e918584614c61565b970151959092019490945250929392505050565b60008060408385031215614eb857600080fd5b8235915060208301356001600160401b03811115614ed557600080fd5b6146398582860161471f565b60008060408385031215614ef457600080fd5b8235614eff8161449b565b91506020830135614701816146c3565b600080600060608486031215614f2457600080fd5b833592506020840135915060408401356001600160401b03811115614f4857600080fd5b614f54868287016145dd565b9150509250925092565b60008060008060808587031215614f7457600080fd5b8435614f7f8161449b565b93506020850135614f8f8161449b565b92506040850135915060608501356001600160401b03811115614fb157600080fd5b8501601f81018713614fc257600080fd5b614fd18782356020840161459f565b91505092959194509250565b600080600060608486031215614ff257600080fd5b8335925060208401356001600160401b0381111561500f57600080fd5b61501b868287016145dd565b925050604084013590509250925092565b60008060008060008060c0878903121561504557600080fd5b86356001600160401b038082111561505c57600080fd5b6150688a838b016145dd565b9750602089013591508082111561507e57600080fd5b5061508b89828a016145dd565b955050604087013561509c8161449b565b935060608701356150ac8161449b565b925060808701356150bc8161449b565b915060a08701356150cc8161449b565b809150509295509295509295565b600080604083850312156150ed57600080fd5b82356150f88161449b565b915060208301356147018161449b565b600181811c9082168061511c57607f821691505b6020821081141561513d57634e487b7160e01b600052602260045260246000fd5b50919050565b60008251615155818460208701614417565b9190910192915050565b634e487b7160e01b600052603260045260246000fd5b6001600160a01b0392831681529116602082015260400190565b6000602082840312156151a157600080fd5b815161192e816146c3565b634e487b7160e01b600052601160045260246000fd5b60008160001904831182151516156151dc576151dc6151ac565b500290565b6000826151fe57634e487b7160e01b600052601260045260246000fd5b500490565b6000600019821415615217576152176151ac565b5060010190565b60006020828403121561523057600080fd5b815161192e8161449b565b60c0815261525560c0820188516001600160a01b03169052565b602087015160e0820152600060408801516101006152798185018362ffffff169052565b60608a015191506101206152938186018462ffffff169052565b60808b015192506101406152ad8187018562ffffff169052565b60a08c015193506101606152c78188018662ffffff169052565b60c08d015194506101c061018081818a01526152e76102808a0188614443565b965060e08f01516101a08a0152858f0151955061530e828a01876001600160a01b03169052565b848f0151955060bf19945084898803016101e08a015261532e8787614443565b8f85015180516102008c015260208101516102208c01529097509550828f0151955084898803016102408a01526153658787614c61565b908f01516102608a01526001600160a01b038e1660208a0152965061538c95505050505050565b6001600160a01b03861660408301526001600160a01b03851660608301526001600160a01b038416608083015282151560a0830152979650505050505050565b60208152600061192e6020830184614b87565b6000602082840312156153f157600080fd5b81516001600160401b0381111561540757600080fd5b8201601f8101841361541857600080fd5b80516154266145ad82614578565b81815285602083850101111561543b57600080fd5b614c03826020830160208601614417565b6020808252602d908201527f4552433732313a2063616c6c6572206973206e6f7420746f6b656e206f776e6560408201526c1c881bdc88185c1c1c9bdd9959609a1b606082015260800190565b6000602082840312156154ab57600080fd5b5051919050565b6020808252602b908201527f496e697469616c697a61626c653a20636f6e7472616374206973206e6f74206960408201526a6e697469616c697a696e6760a81b606082015260800190565b60208082526025908201527f4552433732313a207472616e736665722066726f6d20696e636f72726563742060408201526437bbb732b960d91b606082015260800190565b60208082526032908201527f4552433732313a207472616e7366657220746f206e6f6e20455243373231526560408201527131b2b4bb32b91034b6b83632b6b2b73a32b960711b606082015260800190565b6001600160a01b03858116825284166020820152604081018390526080606082018190526000906155c790830184614443565b9695505050505050565b6000602082840312156155e357600080fd5b815161192e816143e4565b600082821015615600576156006151ac565b500390565b60008219821115615618576156186151ac565b50019056fea264697066735822122013b3b816235df1055dfcd6718021270e76cda0d504b3b5013b3a0247514ea6a164736f6c634300080c0033",
  "linkReferences": {},
  "deployedLinkReferences": {}
}