{
  "_format": "hh-sol-artifact-1",
  "contractName": "GenerativeProject",
  "sourceName": "contracts/nfts/GenerativeProject.sol",
  "abi": [
    {
      "anonymous": false,
      "inputs": [
        {
          "indexed": true,
          "internalType": "address",
          "name": "owner",
          "type": "address"
        },
        {
          "indexed": true,
          "internalType": "address",
          "name": "approved",
          "type": "address"
        },
        {
          "indexed": true,
          "internalType": "uint256",
          "name": "tokenId",
          "type": "uint256"
        }
      ],
      "name": "Approval",
      "type": "event"
    },
    {
      "anonymous": false,
      "inputs": [
        {
          "indexed": true,
          "internalType": "address",
          "name": "owner",
          "type": "address"
        },
        {
          "indexed": true,
          "internalType": "address",
          "name": "operator",
          "type": "address"
        },
        {
          "indexed": false,
          "internalType": "bool",
          "name": "approved",
          "type": "bool"
        }
      ],
      "name": "ApprovalForAll",
      "type": "event"
    },
    {
      "anonymous": false,
      "inputs": [
        {
          "indexed": false,
          "internalType": "uint8",
          "name": "version",
          "type": "uint8"
        }
      ],
      "name": "Initialized",
      "type": "event"
    },
    {
      "anonymous": false,
      "inputs": [
        {
          "indexed": true,
          "internalType": "address",
          "name": "previousOwner",
          "type": "address"
        },
        {
          "indexed": true,
          "internalType": "address",
          "name": "newOwner",
          "type": "address"
        }
      ],
      "name": "OwnershipTransferred",
      "type": "event"
    },
    {
      "anonymous": false,
      "inputs": [
        {
          "indexed": false,
          "internalType": "address",
          "name": "account",
          "type": "address"
        }
      ],
      "name": "Paused",
      "type": "event"
    },
    {
      "anonymous": false,
      "inputs": [
        {
          "indexed": true,
          "internalType": "address",
          "name": "from",
          "type": "address"
        },
        {
          "indexed": true,
          "internalType": "address",
          "name": "to",
          "type": "address"
        },
        {
          "indexed": true,
          "internalType": "uint256",
          "name": "tokenId",
          "type": "uint256"
        }
      ],
      "name": "Transfer",
      "type": "event"
    },
    {
      "anonymous": false,
      "inputs": [
        {
          "indexed": false,
          "internalType": "address",
          "name": "account",
          "type": "address"
        }
      ],
      "name": "Unpaused",
      "type": "event"
    },
    {
      "inputs": [],
      "name": "_admin",
      "outputs": [
        {
          "internalType": "address",
          "name": "",
          "type": "address"
        }
      ],
      "stateMutability": "view",
      "type": "function"
    },
    {
      "inputs": [],
      "name": "_paramsAddress",
      "outputs": [
        {
          "internalType": "address",
          "name": "",
          "type": "address"
        }
      ],
      "stateMutability": "view",
      "type": "function"
    },
    {
      "inputs": [],
      "name": "_projectDataContextAddr",
      "outputs": [
        {
          "internalType": "address",
          "name": "",
          "type": "address"
        }
      ],
      "stateMutability": "view",
      "type": "function"
    },
    {
      "inputs": [],
      "name": "_randomizerAddr",
      "outputs": [
        {
          "internalType": "address",
          "name": "",
          "type": "address"
        }
      ],
      "stateMutability": "view",
      "type": "function"
    },
    {
      "inputs": [
        {
          "internalType": "uint256",
          "name": "projectId",
          "type": "uint256"
        },
        {
          "internalType": "string",
          "name": "_script",
          "type": "string"
        }
      ],
      "name": "addProjectScript",
      "outputs": [],
      "stateMutability": "nonpayable",
      "type": "function"
    },
    {
      "inputs": [
        {
          "internalType": "address",
          "name": "to",
          "type": "address"
        },
        {
          "internalType": "uint256",
          "name": "tokenId",
          "type": "uint256"
        }
      ],
      "name": "approve",
      "outputs": [],
      "stateMutability": "nonpayable",
      "type": "function"
    },
    {
      "inputs": [
        {
          "internalType": "address",
          "name": "owner",
          "type": "address"
        }
      ],
      "name": "balanceOf",
      "outputs": [
        {
          "internalType": "uint256",
          "name": "",
          "type": "uint256"
        }
      ],
      "stateMutability": "view",
      "type": "function"
    },
    {
      "inputs": [
        {
          "internalType": "address",
          "name": "newAdm",
          "type": "address"
        }
      ],
      "name": "changeAdmin",
      "outputs": [],
      "stateMutability": "nonpayable",
      "type": "function"
    },
    {
      "inputs": [
        {
          "internalType": "address",
          "name": "newAddr",
          "type": "address"
        }
      ],
      "name": "changeDataContextAddr",
      "outputs": [],
      "stateMutability": "nonpayable",
      "type": "function"
    },
    {
      "inputs": [
        {
          "internalType": "address",
          "name": "newAddr",
          "type": "address"
        }
      ],
      "name": "changeParamAddr",
      "outputs": [],
      "stateMutability": "nonpayable",
      "type": "function"
    },
    {
      "inputs": [
        {
          "internalType": "address",
          "name": "newAddr",
          "type": "address"
        }
      ],
      "name": "changeRandomizerAddr",
      "outputs": [],
      "stateMutability": "nonpayable",
      "type": "function"
    },
    {
      "inputs": [
        {
          "internalType": "uint256",
          "name": "projectId",
          "type": "uint256"
        }
      ],
      "name": "completeProject",
      "outputs": [],
      "stateMutability": "nonpayable",
      "type": "function"
    },
    {
      "inputs": [
        {
          "internalType": "uint256",
          "name": "projectId",
          "type": "uint256"
        },
        {
          "internalType": "uint256",
          "name": "scriptIndex",
          "type": "uint256"
        }
      ],
      "name": "deleteProjectScript",
      "outputs": [],
      "stateMutability": "nonpayable",
      "type": "function"
    },
    {
      "inputs": [
        {
          "internalType": "uint256",
          "name": "tokenId",
          "type": "uint256"
        }
      ],
      "name": "getApproved",
      "outputs": [
        {
          "internalType": "address",
          "name": "",
          "type": "address"
        }
      ],
      "stateMutability": "view",
      "type": "function"
    },
    {
      "inputs": [
        {
          "internalType": "string",
          "name": "name",
          "type": "string"
        },
        {
          "internalType": "string",
          "name": "symbol",
          "type": "string"
        },
        {
          "internalType": "address",
          "name": "admin",
          "type": "address"
        },
        {
          "internalType": "address",
          "name": "paramsAddress",
          "type": "address"
        },
        {
          "internalType": "address",
          "name": "randomizerAddr",
          "type": "address"
        },
        {
          "internalType": "address",
          "name": "projectDataContextAddr",
          "type": "address"
        }
      ],
      "name": "initialize",
      "outputs": [],
      "stateMutability": "nonpayable",
      "type": "function"
    },
    {
      "inputs": [
        {
          "internalType": "address",
          "name": "owner",
          "type": "address"
        },
        {
          "internalType": "address",
          "name": "operator",
          "type": "address"
        }
      ],
      "name": "isApprovedForAll",
      "outputs": [
        {
          "internalType": "bool",
          "name": "",
          "type": "bool"
        }
      ],
      "stateMutability": "view",
      "type": "function"
    },
    {
      "inputs": [
        {
          "components": [
            {
              "internalType": "uint24",
              "name": "_maxSupply",
              "type": "uint24"
            },
            {
              "internalType": "uint24",
              "name": "_limit",
              "type": "uint24"
            },
            {
              "internalType": "uint256",
              "name": "_mintPrice",
              "type": "uint256"
            },
            {
              "internalType": "address",
              "name": "_mintPriceAddr",
              "type": "address"
            },
            {
              "internalType": "string",
              "name": "_name",
              "type": "string"
            },
            {
              "internalType": "string",
              "name": "_creator",
              "type": "string"
            },
            {
              "internalType": "address",
              "name": "_creatorAddr",
              "type": "address"
            },
            {
              "internalType": "string",
              "name": "_license",
              "type": "string"
            },
            {
              "internalType": "string",
              "name": "_desc",
              "type": "string"
            },
            {
              "internalType": "string",
              "name": "_image",
              "type": "string"
            },
            {
              "components": [
                {
                  "internalType": "string",
                  "name": "_web",
                  "type": "string"
                },
                {
                  "internalType": "string",
                  "name": "_twitter",
                  "type": "string"
                },
                {
                  "internalType": "string",
                  "name": "_discord",
                  "type": "string"
                },
                {
                  "internalType": "string",
                  "name": "_medium",
                  "type": "string"
                },
                {
                  "internalType": "string",
                  "name": "_instagram",
                  "type": "string"
                }
              ],
              "internalType": "struct NFTProject.ProjectSocial",
              "name": "_social",
              "type": "tuple"
            },
            {
              "internalType": "string",
              "name": "_scriptType",
              "type": "string"
            },
            {
              "internalType": "string[]",
              "name": "_scripts",
              "type": "string[]"
            },
            {
              "internalType": "string",
              "name": "_styles",
              "type": "string"
            },
            {
              "internalType": "uint256",
              "name": "_completeTime",
              "type": "uint256"
            },
            {
              "internalType": "address",
              "name": "_genNFTAddr",
              "type": "address"
            }
          ],
          "internalType": "struct NFTProject.Project",
          "name": "project",
          "type": "tuple"
        },
        {
          "internalType": "address[]",
          "name": "reserves",
          "type": "address[]"
        }
      ],
      "name": "mint",
      "outputs": [
        {
          "internalType": "uint256",
          "name": "",
          "type": "uint256"
        }
      ],
      "stateMutability": "nonpayable",
      "type": "function"
    },
    {
      "inputs": [],
      "name": "name",
      "outputs": [
        {
          "internalType": "string",
          "name": "",
          "type": "string"
        }
      ],
      "stateMutability": "view",
      "type": "function"
    },
    {
      "inputs": [],
      "name": "owner",
      "outputs": [
        {
          "internalType": "address",
          "name": "",
          "type": "address"
        }
      ],
      "stateMutability": "view",
      "type": "function"
    },
    {
      "inputs": [
        {
          "internalType": "uint256",
          "name": "tokenId",
          "type": "uint256"
        }
      ],
      "name": "ownerOf",
      "outputs": [
        {
          "internalType": "address",
          "name": "",
          "type": "address"
        }
      ],
      "stateMutability": "view",
      "type": "function"
    },
    {
      "inputs": [],
      "name": "paused",
      "outputs": [
        {
          "internalType": "bool",
          "name": "",
          "type": "bool"
        }
      ],
      "stateMutability": "view",
      "type": "function"
    },
    {
      "inputs": [
        {
          "internalType": "uint256",
          "name": "projectId",
          "type": "uint256"
        }
      ],
      "name": "projectDetails",
      "outputs": [
        {
          "components": [
            {
              "internalType": "uint24",
              "name": "_maxSupply",
              "type": "uint24"
            },
            {
              "internalType": "uint24",
              "name": "_limit",
              "type": "uint24"
            },
            {
              "internalType": "uint256",
              "name": "_mintPrice",
              "type": "uint256"
            },
            {
              "internalType": "address",
              "name": "_mintPriceAddr",
              "type": "address"
            },
            {
              "internalType": "string",
              "name": "_name",
              "type": "string"
            },
            {
              "internalType": "string",
              "name": "_creator",
              "type": "string"
            },
            {
              "internalType": "address",
              "name": "_creatorAddr",
              "type": "address"
            },
            {
              "internalType": "string",
              "name": "_license",
              "type": "string"
            },
            {
              "internalType": "string",
              "name": "_desc",
              "type": "string"
            },
            {
              "internalType": "string",
              "name": "_image",
              "type": "string"
            },
            {
              "components": [
                {
                  "internalType": "string",
                  "name": "_web",
                  "type": "string"
                },
                {
                  "internalType": "string",
                  "name": "_twitter",
                  "type": "string"
                },
                {
                  "internalType": "string",
                  "name": "_discord",
                  "type": "string"
                },
                {
                  "internalType": "string",
                  "name": "_medium",
                  "type": "string"
                },
                {
                  "internalType": "string",
                  "name": "_instagram",
                  "type": "string"
                }
              ],
              "internalType": "struct NFTProject.ProjectSocial",
              "name": "_social",
              "type": "tuple"
            },
            {
              "internalType": "string",
              "name": "_scriptType",
              "type": "string"
            },
            {
              "internalType": "string[]",
              "name": "_scripts",
              "type": "string[]"
            },
            {
              "internalType": "string",
              "name": "_styles",
              "type": "string"
            },
            {
              "internalType": "uint256",
              "name": "_completeTime",
              "type": "uint256"
            },
            {
              "internalType": "address",
              "name": "_genNFTAddr",
              "type": "address"
            }
          ],
          "internalType": "struct NFTProject.Project",
          "name": "project",
          "type": "tuple"
        }
      ],
      "stateMutability": "view",
      "type": "function"
    },
    {
      "inputs": [],
      "name": "renounceOwnership",
      "outputs": [],
      "stateMutability": "nonpayable",
      "type": "function"
    },
    {
      "inputs": [
        {
          "internalType": "uint256",
          "name": "projectId",
          "type": "uint256"
        },
        {
          "internalType": "uint256",
          "name": "_salePrice",
          "type": "uint256"
        }
      ],
      "name": "royaltyInfo",
      "outputs": [
        {
          "internalType": "address",
          "name": "receiver",
          "type": "address"
        },
        {
          "internalType": "uint256",
          "name": "royaltyAmount",
          "type": "uint256"
        }
      ],
      "stateMutability": "view",
      "type": "function"
    },
    {
      "inputs": [
        {
          "internalType": "address",
          "name": "from",
          "type": "address"
        },
        {
          "internalType": "address",
          "name": "to",
          "type": "address"
        },
        {
          "internalType": "uint256",
          "name": "tokenId",
          "type": "uint256"
        }
      ],
      "name": "safeTransferFrom",
      "outputs": [],
      "stateMutability": "nonpayable",
      "type": "function"
    },
    {
      "inputs": [
        {
          "internalType": "address",
          "name": "from",
          "type": "address"
        },
        {
          "internalType": "address",
          "name": "to",
          "type": "address"
        },
        {
          "internalType": "uint256",
          "name": "tokenId",
          "type": "uint256"
        },
        {
          "internalType": "bytes",
          "name": "data",
          "type": "bytes"
        }
      ],
      "name": "safeTransferFrom",
      "outputs": [],
      "stateMutability": "nonpayable",
      "type": "function"
    },
    {
      "inputs": [
        {
          "internalType": "address",
          "name": "operator",
          "type": "address"
        },
        {
          "internalType": "bool",
          "name": "approved",
          "type": "bool"
        }
      ],
      "name": "setApprovalForAll",
      "outputs": [],
      "stateMutability": "nonpayable",
      "type": "function"
    },
    {
      "inputs": [
        {
          "internalType": "bytes4",
          "name": "interfaceId",
          "type": "bytes4"
        }
      ],
      "name": "supportsInterface",
      "outputs": [
        {
          "internalType": "bool",
          "name": "",
          "type": "bool"
        }
      ],
      "stateMutability": "view",
      "type": "function"
    },
    {
      "inputs": [],
      "name": "symbol",
      "outputs": [
        {
          "internalType": "string",
          "name": "",
          "type": "string"
        }
      ],
      "stateMutability": "view",
      "type": "function"
    },
    {
      "inputs": [
        {
          "internalType": "uint256",
          "name": "projectId",
          "type": "uint256"
        }
      ],
      "name": "tokenURI",
      "outputs": [
        {
          "internalType": "string",
          "name": "result",
          "type": "string"
        }
      ],
      "stateMutability": "view",
      "type": "function"
    },
    {
      "inputs": [
        {
          "internalType": "address",
          "name": "from",
          "type": "address"
        },
        {
          "internalType": "address",
          "name": "to",
          "type": "address"
        },
        {
          "internalType": "uint256",
          "name": "tokenId",
          "type": "uint256"
        }
      ],
      "name": "transferFrom",
      "outputs": [],
      "stateMutability": "nonpayable",
      "type": "function"
    },
    {
      "inputs": [
        {
          "internalType": "address",
          "name": "newOwner",
          "type": "address"
        }
      ],
      "name": "transferOwnership",
      "outputs": [],
      "stateMutability": "nonpayable",
      "type": "function"
    },
    {
      "inputs": [
        {
          "internalType": "uint256",
          "name": "projectId",
          "type": "uint256"
        },
        {
          "internalType": "string",
          "name": "creatorName",
          "type": "string"
        }
      ],
      "name": "updateProjectCreatorName",
      "outputs": [],
      "stateMutability": "nonpayable",
      "type": "function"
    },
    {
      "inputs": [
        {
          "internalType": "uint256",
          "name": "projectId",
          "type": "uint256"
        },
        {
          "internalType": "string",
          "name": "license",
          "type": "string"
        }
      ],
      "name": "updateProjectLicense",
      "outputs": [],
      "stateMutability": "nonpayable",
      "type": "function"
    },
    {
      "inputs": [
        {
          "internalType": "uint256",
          "name": "projectId",
          "type": "uint256"
        },
        {
          "internalType": "string",
          "name": "projectName",
          "type": "string"
        }
      ],
      "name": "updateProjectName",
      "outputs": [],
      "stateMutability": "nonpayable",
      "type": "function"
    },
    {
      "inputs": [
        {
          "internalType": "uint256",
          "name": "projectId",
          "type": "uint256"
        },
        {
          "internalType": "uint256",
          "name": "scriptIndex",
          "type": "uint256"
        },
        {
          "internalType": "string",
          "name": "script",
          "type": "string"
        }
      ],
      "name": "updateProjectScript",
      "outputs": [],
      "stateMutability": "nonpayable",
      "type": "function"
    },
    {
      "inputs": [
        {
          "internalType": "uint256",
          "name": "projectId",
          "type": "uint256"
        },
        {
          "internalType": "string",
          "name": "scriptType",
          "type": "string"
        }
      ],
      "name": "updateProjectScriptType",
      "outputs": [],
      "stateMutability": "nonpayable",
      "type": "function"
    }
  ],
  "bytecode": "0x608060405234801561001057600080fd5b50613d4e806100206000396000f3fe608060405234801561001057600080fd5b50600436106102275760003560e01c806370a0823111610130578063adfc7dae116100b8578063e283d82f1161007c578063e283d82f146104dc578063e56f2fe4146104ef578063e985e9c514610502578063f2fde38b1461053e578063febfd6c31461055157600080fd5b8063adfc7dae1461047c578063b1656ba314610490578063b88d4fde146104a3578063c50a600b146104b6578063c87b56dd146104c957600080fd5b80638f283970116100ff5780638f2839701461042857806395d89b411461043b578063a22cb46514610443578063a65a8c1914610456578063acad01241461046957600080fd5b806370a08231146103cd578063715018a6146103ee5780638da5cb5b146103f65780638dd91a561461040857600080fd5b806323b872dd116101b3578063472f1e0211610182578063472f1e0214610374578063575b57ea146103875780635c975abb1461039b5780636352211e146103a657806366215eb4146103b957600080fd5b806323b872dd1461030957806325b75d681461031c5780632a55205a1461032f57806342842e0e1461036157600080fd5b8063095ea7b3116101fa578063095ea7b3146102a85780630d170673146102bd578063166b7469146102d05780631ca9741b146102e35780632245f152146102f657600080fd5b806301bc45c91461022c57806301ffc9a71461025d57806306fdde0314610280578063081812fc14610295575b600080fd5b61015f54610240906001600160a01b031681565b6040516001600160a01b0390911681526020015b60405180910390f35b61027061026b366004612d07565b610564565b6040519015158152602001610254565b6102886105b6565b6040516102549190612d7c565b6102406102a3366004612d8f565b610648565b6102bb6102b6366004612dc8565b61066f565b005b6102bb6102cb366004612f0a565b61078a565b6102bb6102de366004612f50565b6107ed565b6102bb6102f1366004612f72565b610868565b6102bb610304366004612d8f565b6108fc565b6102bb610317366004612f8f565b61093b565b6102bb61032a366004612f0a565b61096c565b61034261033d366004612f50565b6109cf565b604080516001600160a01b039093168352602083019190915201610254565b6102bb61036f366004612f8f565b610a00565b6102bb610382366004612f72565b610a1b565b61016254610240906001600160a01b031681565b60975460ff16610270565b6102406103b4366004612d8f565b610ab0565b61016154610240906001600160a01b031681565b6103e06103db366004612f72565b610b10565b604051908152602001610254565b6102bb610b96565b61012d546001600160a01b0316610240565b61041b610416366004612d8f565b610baa565b60405161025491906130aa565b6102bb610436366004612f72565b611410565b6102886114a5565b6102bb610451366004613270565b6114b4565b6102bb610464366004612f0a565b6114bf565b6102bb610477366004612f0a565b611522565b61016054610240906001600160a01b031681565b6102bb61049e3660046132a9565b611595565b6102bb6104b13660046132f8565b61161c565b6103e06104c4366004613578565b61164e565b6102886104d7366004612d8f565b611af8565b6102bb6104ea366004612f0a565b611b74565b6102bb6104fd366004613798565b611bd7565b610270610510366004613846565b6001600160a01b039182166000908152606a6020908152604080832093909416825291909152205460ff1690565b6102bb61054c366004612f72565b611dd2565b6102bb61055f366004612f72565b611e48565b60006001600160e01b031982166380ac58cd60e01b148061059557506001600160e01b03198216635b5e139f60e01b145b806105b057506301ffc9a760e01b6001600160e01b03198316145b92915050565b6060606580546105c590613874565b80601f01602080910402602001604051908101604052809291908181526020018280546105f190613874565b801561063e5780601f106106135761010080835404028352916020019161063e565b820191906000526020600020905b81548152906001019060200180831161062157829003601f168201915b5050505050905090565b600061065382611edd565b506000908152606960205260409020546001600160a01b031690565b600061067a82610ab0565b9050806001600160a01b0316836001600160a01b031614156106ed5760405162461bcd60e51b815260206004820152602160248201527f4552433732313a20617070726f76616c20746f2063757272656e74206f776e656044820152603960f91b60648201526084015b60405180910390fd5b336001600160a01b038216148061070957506107098133610510565b61077b5760405162461bcd60e51b815260206004820152603d60248201527f4552433732313a20617070726f76652063616c6c6572206973206e6f7420746f60448201527f6b656e206f776e6572206f7220617070726f76656420666f7220616c6c00000060648201526084016106e4565b6107858383611f3c565b505050565b61015f546001600160a01b03163314806107be5750600082815261016460205260409020600501546001600160a01b031633145b6107c757600080fd5b600082815261016460209081526040909120825161078592600390920191840190612ad6565b61015f546001600160a01b03163314806108215750600082815261016460205260409020600501546001600160a01b031633145b61082a57600080fd5b600082815261016460205260409020600f0180548290811061084e5761084e6138af565b9060005260206000200160006108649190612b5a565b5050565b61015f546001600160a01b03163314801561088b57506001600160a01b03811615155b6040518060400160405280600381526020016231303160e81b815250906108c55760405162461bcd60e51b81526004016106e49190612d7c565b50610161546001600160a01b038281169116146108f95761016180546001600160a01b0319166001600160a01b0383161790555b50565b600081815261016460205260409020601201546001600160a01b0316331461092357600080fd5b60009081526101646020526040902042601190910155565b6109453382611faa565b6109615760405162461bcd60e51b81526004016106e4906138c5565b610785838383612029565b61015f546001600160a01b03163314806109a05750600082815261016460205260409020600501546001600160a01b031633145b6109a957600080fd5b600082815261016460209081526040909120825161078592600690920191840190612ad6565b61015f546001600160a01b031660006127106109ed846101f4613928565b6109f79190613947565b90509250929050565b6107858383836040518060200160405280600081525061161c565b61015f546001600160a01b031633148015610a3e57506001600160a01b03811615155b6040518060400160405280600381526020016231303160e81b81525090610a785760405162461bcd60e51b81526004016106e49190612d7c565b50610162546001600160a01b038281169116146108f95761016280546001600160a01b0383166001600160a01b031990911617905550565b6000818152606760205260408120546001600160a01b0316806105b05760405162461bcd60e51b8152602060048201526018602482015277115490cdcc8c4e881a5b9d985b1a59081d1bdad95b88125160421b60448201526064016106e4565b60006001600160a01b038216610b7a5760405162461bcd60e51b815260206004820152602960248201527f4552433732313a2061646472657373207a65726f206973206e6f7420612076616044820152683634b21037bbb732b960b91b60648201526084016106e4565b506001600160a01b031660009081526068602052604090205490565b610b9e61219a565b610ba860006121f5565b565b610bb2612b94565b60008281526101646020908152604091829020825161020081018452815462ffffff80821683526301000000909104169281019290925260018101549282019290925260028201546001600160a01b03166060820152600382018054919291608084019190610c2090613874565b80601f0160208091040260200160405190810160405280929190818152602001828054610c4c90613874565b8015610c995780601f10610c6e57610100808354040283529160200191610c99565b820191906000526020600020905b815481529060010190602001808311610c7c57829003601f168201915b50505050508152602001600482018054610cb290613874565b80601f0160208091040260200160405190810160405280929190818152602001828054610cde90613874565b8015610d2b5780601f10610d0057610100808354040283529160200191610d2b565b820191906000526020600020905b815481529060010190602001808311610d0e57829003601f168201915b505050918352505060058201546001600160a01b03166020820152600682018054604090920191610d5b90613874565b80601f0160208091040260200160405190810160405280929190818152602001828054610d8790613874565b8015610dd45780601f10610da957610100808354040283529160200191610dd4565b820191906000526020600020905b815481529060010190602001808311610db757829003601f168201915b50505050508152602001600782018054610ded90613874565b80601f0160208091040260200160405190810160405280929190818152602001828054610e1990613874565b8015610e665780601f10610e3b57610100808354040283529160200191610e66565b820191906000526020600020905b815481529060010190602001808311610e4957829003601f168201915b50505050508152602001600882018054610e7f90613874565b80601f0160208091040260200160405190810160405280929190818152602001828054610eab90613874565b8015610ef85780601f10610ecd57610100808354040283529160200191610ef8565b820191906000526020600020905b815481529060010190602001808311610edb57829003601f168201915b50505050508152602001600982016040518060a0016040529081600082018054610f2190613874565b80601f0160208091040260200160405190810160405280929190818152602001828054610f4d90613874565b8015610f9a5780601f10610f6f57610100808354040283529160200191610f9a565b820191906000526020600020905b815481529060010190602001808311610f7d57829003601f168201915b50505050508152602001600182018054610fb390613874565b80601f0160208091040260200160405190810160405280929190818152602001828054610fdf90613874565b801561102c5780601f106110015761010080835404028352916020019161102c565b820191906000526020600020905b81548152906001019060200180831161100f57829003601f168201915b5050505050815260200160028201805461104590613874565b80601f016020809104026020016040519081016040528092919081815260200182805461107190613874565b80156110be5780601f10611093576101008083540402835291602001916110be565b820191906000526020600020905b8154815290600101906020018083116110a157829003601f168201915b505050505081526020016003820180546110d790613874565b80601f016020809104026020016040519081016040528092919081815260200182805461110390613874565b80156111505780601f1061112557610100808354040283529160200191611150565b820191906000526020600020905b81548152906001019060200180831161113357829003601f168201915b5050505050815260200160048201805461116990613874565b80601f016020809104026020016040519081016040528092919081815260200182805461119590613874565b80156111e25780601f106111b7576101008083540402835291602001916111e2565b820191906000526020600020905b8154815290600101906020018083116111c557829003601f168201915b5050505050815250508152602001600e820180546111ff90613874565b80601f016020809104026020016040519081016040528092919081815260200182805461122b90613874565b80156112785780601f1061124d57610100808354040283529160200191611278565b820191906000526020600020905b81548152906001019060200180831161125b57829003601f168201915b50505050508152602001600f8201805480602002602001604051908101604052809291908181526020016000905b828210156113525783829060005260206000200180546112c590613874565b80601f01602080910402602001604051908101604052809291908181526020018280546112f190613874565b801561133e5780601f106113135761010080835404028352916020019161133e565b820191906000526020600020905b81548152906001019060200180831161132157829003601f168201915b5050505050815260200190600101906112a6565b50505050815260200160108201805461136a90613874565b80601f016020809104026020016040519081016040528092919081815260200182805461139690613874565b80156113e35780601f106113b8576101008083540402835291602001916113e3565b820191906000526020600020905b8154815290600101906020018083116113c657829003601f168201915b5050509183525050601182015460208201526012909101546001600160a01b031660409091015292915050565b61015f546001600160a01b03163314801561143357506001600160a01b03811615155b6040518060400160405280600381526020016231303160e81b8152509061146d5760405162461bcd60e51b81526004016106e49190612d7c565b5061015f546001600160a01b038281169116146108f95761015f80546001600160a01b0383166001600160a01b031990911617905550565b6060606680546105c590613874565b610864338383612248565b61015f546001600160a01b03163314806114f35750600082815261016460205260409020600501546001600160a01b031633145b6114fc57600080fd5b600082815261016460209081526040909120825161078592600e90920191840190612ad6565b61015f546001600160a01b03163314806115565750600082815261016460205260409020600501546001600160a01b031633145b61155f57600080fd5b6000828152610164602090815260408220600f018054600181018255908352918190208351610785939190910191840190612ad6565b61015f546001600160a01b03163314806115c95750600083815261016460205260409020600501546001600160a01b031633145b6115d257600080fd5b600083815261016460205260409020600f018054829190849081106115f9576115f96138af565b906000526020600020019080519060200190611616929190612ad6565b50505050565b6116263383611faa565b6116425760405162461bcd60e51b81526004016106e4906138c5565b61161684848484612317565b6000808360800151511161166157600080fd5b60008360a00151511161167357600080fd5b825162ffffff1661168357600080fd5b6000836020015162ffffff161180156116ae5750826000015162ffffff16836020015162ffffff1611155b6116b757600080fd5b60c08301516001600160a01b03166116ce57600080fd5b61016380549060006116df83613969565b9091555050610160546001600160a01b03166116f961234a565b6101635460009081526101646020908152604091829020865181548389015162ffffff90811663010000000265ffffffffffff1990921692169190911717815591860151600183015560608601516002830180546001600160a01b039092166001600160a01b031990921691909117905560808601518051879392611785926003850192910190612ad6565b5060a082015180516117a1916004840191602090910190612ad6565b5060c08201516005820180546001600160a01b0319166001600160a01b0390921691909117905560e082015180516117e3916006840191602090910190612ad6565b506101008201518051611800916007840191602090910190612ad6565b50610120820151805161181d916008840191602090910190612ad6565b5061014082015180518051600984019161183c91839160200190612ad6565b5060208281015180516118559260018501920190612ad6565b5060408201518051611871916002840191602090910190612ad6565b506060820151805161188d916003840191602090910190612ad6565b50608082015180516118a9916004840191602090910190612ad6565b50505061016082015180516118c891600e840191602090910190612ad6565b5061018082015180516118e591600f840191602090910190612c66565b506101a08201518051611902916010840191602090910190612ad6565b506101c082015160118201556101e090910151601290910180546001600160a01b0319166001600160a01b039092169190911790556101635461194690339061251f565b60405163bf40fac160e01b815260206004820152601760248201527f47454e455241544956455f4e46545f54454d504c41544500000000000000000060448201526000906119e8906001600160a01b0384169063bf40fac190606401602060405180830381865afa1580156119bf573d6000803e3d6000fd5b505050506040513d601f19601f820116820180604052508101906119e39190613984565b612539565b6101635460009081526101646020908152604080832060120180546001600160a01b0319166001600160a01b038616179055805161016081018252838152918201839052810182905260608082018390526080820183905260a0820183905260c0820183905260e082015261010081018290526101208101829052610140810191909152909150819061015f54610160546101615460405163042c519160e31b81526001600160a01b03808716946321628c8894611ab794889492841693918216929116908d906004016139e5565b600060405180830381600087803b158015611ad157600080fd5b505af1158015611ae5573d6000803e3d6000fd5b5050610163549998505050505050505050565b6101625460405163079ebc6f60e41b8152600481018390526060916001600160a01b03169081906379ebc6f090602401600060405180830381865afa158015611b45573d6000803e3d6000fd5b505050506040513d6000823e601f3d908101601f19168201604052611b6d9190810190613b0a565b9392505050565b61015f546001600160a01b0316331480611ba85750600082815261016460205260409020600501546001600160a01b031633145b611bb157600080fd5b600082815261016460209081526040909120825161078592600490920191840190612ad6565b600054610100900460ff1615808015611bf75750600054600160ff909116105b80611c115750303b158015611c11575060005460ff166001145b611c745760405162461bcd60e51b815260206004820152602e60248201527f496e697469616c697a61626c653a20636f6e747261637420697320616c72656160448201526d191e481a5b9a5d1a585b1a5e995960921b60648201526084016106e4565b6000805460ff191660011790558015611c97576000805461ff0019166101001790555b60408051808201909152600381526203130360ec1b60208201526001600160a01b038616611cd85760405162461bcd60e51b81526004016106e49190612d7c565b5060408051808201909152600381526203130360ec1b60208201526001600160a01b038516611d1a5760405162461bcd60e51b81526004016106e49190612d7c565b5061016080546001600160a01b038087166001600160a01b03199283161790925561015f80548884169083161790556101618054868416908316179055610162805492851692909116919091179055611d7387876125d3565b611d7b612604565b611d83612633565b8015611dc9576000805461ff0019169055604051600181527f7f26b83ff96e1f2b6a682f133852f6798a09c465da95921460cefb38474024989060200160405180910390a15b50505050505050565b611dda61219a565b6001600160a01b038116611e3f5760405162461bcd60e51b815260206004820152602660248201527f4f776e61626c653a206e6577206f776e657220697320746865207a65726f206160448201526564647265737360d01b60648201526084016106e4565b6108f9816121f5565b61015f546001600160a01b031633148015611e6b57506001600160a01b03811615155b6040518060400160405280600381526020016231303160e81b81525090611ea55760405162461bcd60e51b81526004016106e49190612d7c565b50610160546001600160a01b038281169116146108f95761016080546001600160a01b0383166001600160a01b031990911617905550565b6000818152606760205260409020546001600160a01b03166108f95760405162461bcd60e51b8152602060048201526018602482015277115490cdcc8c4e881a5b9d985b1a59081d1bdad95b88125160421b60448201526064016106e4565b600081815260696020526040902080546001600160a01b0319166001600160a01b0384169081179091558190611f7182610ab0565b6001600160a01b03167f8c5be1e5ebec7d5bd14f71427d1e84f3dd0314c0f7b2291e5b200ac8c7c3b92560405160405180910390a45050565b600080611fb683610ab0565b9050806001600160a01b0316846001600160a01b03161480611ffd57506001600160a01b038082166000908152606a602090815260408083209388168352929052205460ff165b806120215750836001600160a01b031661201684610648565b6001600160a01b0316145b949350505050565b826001600160a01b031661203c82610ab0565b6001600160a01b0316146120625760405162461bcd60e51b81526004016106e490613b77565b6001600160a01b0382166120c45760405162461bcd60e51b8152602060048201526024808201527f4552433732313a207472616e7366657220746f20746865207a65726f206164646044820152637265737360e01b60648201526084016106e4565b6120d18383836001612662565b826001600160a01b03166120e482610ab0565b6001600160a01b03161461210a5760405162461bcd60e51b81526004016106e490613b77565b600081815260696020908152604080832080546001600160a01b03199081169091556001600160a01b0387811680865260688552838620805460001901905590871680865283862080546001019055868652606790945282852080549092168417909155905184937fddf252ad1be2c89b69c2b068fc378daa952ba7f163c4a11628f55a4df523b3ef91a4505050565b61012d546001600160a01b03163314610ba85760405162461bcd60e51b815260206004820181905260248201527f4f776e61626c653a2063616c6c6572206973206e6f7420746865206f776e657260448201526064016106e4565b61012d80546001600160a01b038381166001600160a01b0319831681179093556040519116919082907f8be0079c531659141344cd1fd0a4f28419497f9722a3daafe3b4186f6b6457e090600090a35050565b816001600160a01b0316836001600160a01b031614156122aa5760405162461bcd60e51b815260206004820152601960248201527f4552433732313a20617070726f766520746f2063616c6c65720000000000000060448201526064016106e4565b6001600160a01b038381166000818152606a6020908152604080832094871680845294825291829020805460ff191686151590811790915591519182527f17307eab39ab6107e8899845ad3d59bd9653f200f220920489ca2b5937696c31910160405180910390a3505050565b612322848484612029565b61232e848484846126d5565b6116165760405162461bcd60e51b81526004016106e490613bbc565b61015f546001600160a01b03163314610ba85761016054604051636d12dce160e01b81526020600482015260126024820152714352454154455f50524f4a4543545f46454560701b60448201526001600160a01b03909116906000908290636d12dce190606401602060405180830381865afa1580156123ce573d6000803e3d6000fd5b505050506040513d601f19601f820116820180604052508101906123f29190613c0e565b905080156108645760405163bf40fac160e01b81526020600482015260096024820152682322a2afaa27a5a2a760b91b60448201526000906001600160a01b0384169063bf40fac190606401602060405180830381865afa15801561245b573d6000803e3d6000fd5b505050506040513d601f19601f8201168201806040525081019061247f9190613984565b90506001600160a01b03811615612512576040516323b872dd60e01b81523360048201523060248201526044810183905281906001600160a01b038216906323b872dd906064016020604051808303816000875af11580156124e5573d6000803e3d6000fd5b505050506040513d601f19601f820116820180604052508101906125099190613c27565b61161657600080fd5b8134101561078557600080fd5b6108648282604051806020016040528060008152506127d3565b6000763d602d80600a3d3981f3363d3d373d3d3d363d730000008260601b60e81c176000526e5af43d82803e903d91602b57fd5bf38260781b17602052603760096000f090506001600160a01b0381166125ce5760405162461bcd60e51b8152602060048201526016602482015275115490cc4c4d8dce8818dc99585d194819985a5b195960521b60448201526064016106e4565b919050565b600054610100900460ff166125fa5760405162461bcd60e51b81526004016106e490613c44565b6108648282612806565b600054610100900460ff1661262b5760405162461bcd60e51b81526004016106e490613c44565b610ba8612854565b600054610100900460ff1661265a5760405162461bcd60e51b81526004016106e490613c44565b610ba8612882565b61266e848484846128b5565b60975460ff16156116165760405162461bcd60e51b815260206004820152602b60248201527f4552433732315061757361626c653a20746f6b656e207472616e73666572207760448201526a1a1a5b19481c185d5cd95960aa1b60648201526084016106e4565b60006001600160a01b0384163b156127c857604051630a85bd0160e11b81526001600160a01b0385169063150b7a0290612719903390899088908890600401613c8f565b6020604051808303816000875af1925050508015612754575060408051601f3d908101601f1916820190925261275191810190613ccc565b60015b6127ae573d808015612782576040519150601f19603f3d011682016040523d82523d6000602084013e612787565b606091505b5080516127a65760405162461bcd60e51b81526004016106e490613bbc565b805181602001fd5b6001600160e01b031916630a85bd0160e11b149050612021565b506001949350505050565b6127dd838361293d565b6127ea60008484846126d5565b6107855760405162461bcd60e51b81526004016106e490613bbc565b600054610100900460ff1661282d5760405162461bcd60e51b81526004016106e490613c44565b8151612840906065906020850190612ad6565b508051610785906066906020840190612ad6565b600054610100900460ff1661287b5760405162461bcd60e51b81526004016106e490613c44565b600160fb55565b600054610100900460ff166128a95760405162461bcd60e51b81526004016106e490613c44565b6097805460ff19169055565b6001811115611616576001600160a01b038416156128fb576001600160a01b038416600090815260686020526040812080548392906128f5908490613ce9565b90915550505b6001600160a01b03831615611616576001600160a01b03831660009081526068602052604081208054839290612932908490613d00565b909155505050505050565b6001600160a01b0382166129935760405162461bcd60e51b815260206004820181905260248201527f4552433732313a206d696e7420746f20746865207a65726f206164647265737360448201526064016106e4565b6000818152606760205260409020546001600160a01b0316156129f85760405162461bcd60e51b815260206004820152601c60248201527f4552433732313a20746f6b656e20616c7265616479206d696e7465640000000060448201526064016106e4565b612a06600083836001612662565b6000818152606760205260409020546001600160a01b031615612a6b5760405162461bcd60e51b815260206004820152601c60248201527f4552433732313a20746f6b656e20616c7265616479206d696e7465640000000060448201526064016106e4565b6001600160a01b038216600081815260686020908152604080832080546001019055848352606790915280822080546001600160a01b0319168417905551839291907fddf252ad1be2c89b69c2b068fc378daa952ba7f163c4a11628f55a4df523b3ef908290a45050565b828054612ae290613874565b90600052602060002090601f016020900481019282612b045760008555612b4a565b82601f10612b1d57805160ff1916838001178555612b4a565b82800160010185558215612b4a579182015b82811115612b4a578251825591602001919060010190612b2f565b50612b56929150612cbf565b5090565b508054612b6690613874565b6000825580601f10612b76575050565b601f0160209004906000526020600020908101906108f99190612cbf565b604051806102000160405280600062ffffff168152602001600062ffffff1681526020016000815260200160006001600160a01b03168152602001606081526020016060815260200160006001600160a01b03168152602001606081526020016060815260200160608152602001612c346040518060a0016040528060608152602001606081526020016060815260200160608152602001606081525090565b81526020016060815260200160608152602001606081526020016000815260200160006001600160a01b031681525090565b828054828255906000526020600020908101928215612cb3579160200282015b82811115612cb35782518051612ca3918491602090910190612ad6565b5091602001919060010190612c86565b50612b56929150612cd4565b5b80821115612b565760008155600101612cc0565b80821115612b56576000612ce88282612b5a565b50600101612cd4565b6001600160e01b0319811681146108f957600080fd5b600060208284031215612d1957600080fd5b8135611b6d81612cf1565b60005b83811015612d3f578181015183820152602001612d27565b838111156116165750506000910152565b60008151808452612d68816020860160208601612d24565b601f01601f19169290920160200192915050565b602081526000611b6d6020830184612d50565b600060208284031215612da157600080fd5b5035919050565b6001600160a01b03811681146108f957600080fd5b80356125ce81612da8565b60008060408385031215612ddb57600080fd5b8235612de681612da8565b946020939093013593505050565b634e487b7160e01b600052604160045260246000fd5b60405160a081016001600160401b0381118282101715612e2c57612e2c612df4565b60405290565b60405161020081016001600160401b0381118282101715612e2c57612e2c612df4565b604051601f8201601f191681016001600160401b0381118282101715612e7d57612e7d612df4565b604052919050565b60006001600160401b03821115612e9e57612e9e612df4565b50601f01601f191660200190565b6000612ebf612eba84612e85565b612e55565b9050828152838383011115612ed357600080fd5b828260208301376000602084830101529392505050565b600082601f830112612efb57600080fd5b611b6d83833560208501612eac565b60008060408385031215612f1d57600080fd5b8235915060208301356001600160401b03811115612f3a57600080fd5b612f4685828601612eea565b9150509250929050565b60008060408385031215612f6357600080fd5b50508035926020909101359150565b600060208284031215612f8457600080fd5b8135611b6d81612da8565b600080600060608486031215612fa457600080fd5b8335612faf81612da8565b92506020840135612fbf81612da8565b929592945050506040919091013590565b6000815160a08452612fe560a0850182612d50565b905060208301518482036020860152612ffe8282612d50565b915050604083015184820360408601526130188282612d50565b915050606083015184820360608601526130328282612d50565b9150506080830151848203608086015261304c8282612d50565b95945050505050565b600081518084526020808501808196508360051b8101915082860160005b8581101561309d57828403895261308b848351612d50565b98850198935090840190600101613073565b5091979650505050505050565b602081526130c060208201835162ffffff169052565b600060208301516130d8604084018262ffffff169052565b506040830151606083015260608301516130fd60808401826001600160a01b03169052565b5060808301516102008060a085015261311a610220850183612d50565b915060a0850151601f19808685030160c08701526131388483612d50565b935060c0870151915061315660e08701836001600160a01b03169052565b60e087015191506101008187860301818801526131738584612d50565b9450808801519250506101208187860301818801526131928584612d50565b9450808801519250506101408187860301818801526131b18584612d50565b9450808801519250506101608187860301818801526131d08584612fd0565b9450808801519250506101808187860301818801526131ef8584612d50565b9450808801519250506101a081878603018188015261320e8584613055565b9450808801519250506101c081878603018188015261322d8584612d50565b908801516101e0888101919091528801516001600160a01b0381168589015290945091506132589050565b5090949350505050565b80151581146108f957600080fd5b6000806040838503121561328357600080fd5b823561328e81612da8565b9150602083013561329e81613262565b809150509250929050565b6000806000606084860312156132be57600080fd5b833592506020840135915060408401356001600160401b038111156132e257600080fd5b6132ee86828701612eea565b9150509250925092565b6000806000806080858703121561330e57600080fd5b843561331981612da8565b9350602085013561332981612da8565b92506040850135915060608501356001600160401b0381111561334b57600080fd5b8501601f8101871361335c57600080fd5b61336b87823560208401612eac565b91505092959194509250565b803562ffffff811681146125ce57600080fd5b600060a0828403121561339c57600080fd5b6133a4612e0a565b905081356001600160401b03808211156133bd57600080fd5b6133c985838601612eea565b835260208401359150808211156133df57600080fd5b6133eb85838601612eea565b6020840152604084013591508082111561340457600080fd5b61341085838601612eea565b6040840152606084013591508082111561342957600080fd5b61343585838601612eea565b6060840152608084013591508082111561344e57600080fd5b5061345b84828501612eea565b60808301525092915050565b60006001600160401b0382111561348057613480612df4565b5060051b60200190565b600082601f83011261349b57600080fd5b813560206134ab612eba83613467565b82815260059290921b840181019181810190868411156134ca57600080fd5b8286015b848110156135095780356001600160401b038111156134ed5760008081fd5b6134fb8986838b0101612eea565b8452509183019183016134ce565b509695505050505050565b600082601f83011261352557600080fd5b81356020613535612eba83613467565b82815260059290921b8401810191818101908684111561355457600080fd5b8286015b8481101561350957803561356b81612da8565b8352918301918301613558565b6000806040838503121561358b57600080fd5b82356001600160401b03808211156135a257600080fd5b9084019061020082870312156135b757600080fd5b6135bf612e32565b6135c883613377565b81526135d660208401613377565b6020820152604083013560408201526135f160608401612dbd565b606082015260808301358281111561360857600080fd5b61361488828601612eea565b60808301525060a08301358281111561362c57600080fd5b61363888828601612eea565b60a08301525061364a60c08401612dbd565b60c082015260e08301358281111561366157600080fd5b61366d88828601612eea565b60e083015250610100808401358381111561368757600080fd5b61369389828701612eea565b82840152505061012080840135838111156136ad57600080fd5b6136b989828701612eea565b82840152505061014080840135838111156136d357600080fd5b6136df8982870161338a565b82840152505061016080840135838111156136f957600080fd5b61370589828701612eea565b828401525050610180808401358381111561371f57600080fd5b61372b8982870161348a565b8284015250506101a0808401358381111561374557600080fd5b61375189828701612eea565b8284015250506101c08084013581830152506101e0613771818501612dbd565b908201529350602085013591508082111561378b57600080fd5b50612f4685828601613514565b60008060008060008060c087890312156137b157600080fd5b86356001600160401b03808211156137c857600080fd5b6137d48a838b01612eea565b975060208901359150808211156137ea57600080fd5b506137f789828a01612eea565b955050604087013561380881612da8565b9350606087013561381881612da8565b9250608087013561382881612da8565b915060a087013561383881612da8565b809150509295509295509295565b6000806040838503121561385957600080fd5b823561386481612da8565b9150602083013561329e81612da8565b600181811c9082168061388857607f821691505b602082108114156138a957634e487b7160e01b600052602260045260246000fd5b50919050565b634e487b7160e01b600052603260045260246000fd5b6020808252602d908201527f4552433732313a2063616c6c6572206973206e6f7420746f6b656e206f776e6560408201526c1c881bdc88185c1c1c9bdd9959609a1b606082015260800190565b634e487b7160e01b600052601160045260246000fd5b600081600019048311821515161561394257613942613912565b500290565b60008261396457634e487b7160e01b600052601260045260246000fd5b500490565b600060001982141561397d5761397d613912565b5060010190565b60006020828403121561399657600080fd5b8151611b6d81612da8565b600081518084526020808501945080840160005b838110156139da5781516001600160a01b0316875295820195908201906001016139b5565b509495945050505050565b60a081526139ff60a0820187516001600160a01b03169052565b60006020870151613a1b60c08401826001600160a01b03169052565b50604087015160e08301526060870151610100613a3e8185018362ffffff169052565b60808901519150610120613a588186018462ffffff169052565b60a08a01519250610140613a728187018562ffffff169052565b60c08b01519350610160613a8c8188018662ffffff169052565b60e08c015194508061018088015250613aa9610200870185612d50565b928b01516001600160a01b039081166101a0880152918b01516101c08701528a015181166101e0860152888116602086015287811660408601528616606085015283810360808501529050613afe81856139a1565b98975050505050505050565b600060208284031215613b1c57600080fd5b81516001600160401b03811115613b3257600080fd5b8201601f81018413613b4357600080fd5b8051613b51612eba82612e85565b818152856020838501011115613b6657600080fd5b61304c826020830160208601612d24565b60208082526025908201527f4552433732313a207472616e736665722066726f6d20696e636f72726563742060408201526437bbb732b960d91b606082015260800190565b60208082526032908201527f4552433732313a207472616e7366657220746f206e6f6e20455243373231526560408201527131b2b4bb32b91034b6b83632b6b2b73a32b960711b606082015260800190565b600060208284031215613c2057600080fd5b5051919050565b600060208284031215613c3957600080fd5b8151611b6d81613262565b6020808252602b908201527f496e697469616c697a61626c653a20636f6e7472616374206973206e6f74206960408201526a6e697469616c697a696e6760a81b606082015260800190565b6001600160a01b0385811682528416602082015260408101839052608060608201819052600090613cc290830184612d50565b9695505050505050565b600060208284031215613cde57600080fd5b8151611b6d81612cf1565b600082821015613cfb57613cfb613912565b500390565b60008219821115613d1357613d13613912565b50019056fea2646970667358221220cc2cba4662e2694e30622690adc8df1eb173dbefb01ba9e5ae3648783f220bdd64736f6c634300080c0033",
  "linkReferences": {},
  "deployedLinkReferences": {}
}