{
  "_format": "hh-sol-artifact-1",
  "contractName": "GenerativeProject",
  "sourceName": "contracts/nfts/GenerativeProject.sol",
  "abi": [
    {
      "inputs": [
        {
          "internalType": "address",
          "name": "operator",
          "type": "address"
        }
      ],
      "name": "OperatorNotAllowed",
      "type": "error"
    },
    {
      "anonymous": false,
      "inputs": [
        {
          "indexed": true,
          "internalType": "address",
          "name": "owner",
          "type": "address"
        },
        {
          "indexed": true,
          "internalType": "address",
          "name": "approved",
          "type": "address"
        },
        {
          "indexed": true,
          "internalType": "uint256",
          "name": "tokenId",
          "type": "uint256"
        }
      ],
      "name": "Approval",
      "type": "event"
    },
    {
      "anonymous": false,
      "inputs": [
        {
          "indexed": true,
          "internalType": "address",
          "name": "owner",
          "type": "address"
        },
        {
          "indexed": true,
          "internalType": "address",
          "name": "operator",
          "type": "address"
        },
        {
          "indexed": false,
          "internalType": "bool",
          "name": "approved",
          "type": "bool"
        }
      ],
      "name": "ApprovalForAll",
      "type": "event"
    },
    {
      "anonymous": false,
      "inputs": [
        {
          "indexed": false,
          "internalType": "uint8",
          "name": "version",
          "type": "uint8"
        }
      ],
      "name": "Initialized",
      "type": "event"
    },
    {
      "anonymous": false,
      "inputs": [
        {
          "indexed": true,
          "internalType": "address",
          "name": "previousOwner",
          "type": "address"
        },
        {
          "indexed": true,
          "internalType": "address",
          "name": "newOwner",
          "type": "address"
        }
      ],
      "name": "OwnershipTransferred",
      "type": "event"
    },
    {
      "anonymous": false,
      "inputs": [
        {
          "indexed": false,
          "internalType": "address",
          "name": "account",
          "type": "address"
        }
      ],
      "name": "Paused",
      "type": "event"
    },
    {
      "anonymous": false,
      "inputs": [
        {
          "indexed": true,
          "internalType": "address",
          "name": "from",
          "type": "address"
        },
        {
          "indexed": true,
          "internalType": "address",
          "name": "to",
          "type": "address"
        },
        {
          "indexed": true,
          "internalType": "uint256",
          "name": "tokenId",
          "type": "uint256"
        }
      ],
      "name": "Transfer",
      "type": "event"
    },
    {
      "anonymous": false,
      "inputs": [
        {
          "indexed": false,
          "internalType": "address",
          "name": "account",
          "type": "address"
        }
      ],
      "name": "Unpaused",
      "type": "event"
    },
    {
      "inputs": [],
      "name": "_admin",
      "outputs": [
        {
          "internalType": "address",
          "name": "",
          "type": "address"
        }
      ],
      "stateMutability": "view",
      "type": "function"
    },
    {
      "inputs": [],
      "name": "_paramsAddress",
      "outputs": [
        {
          "internalType": "address",
          "name": "",
          "type": "address"
        }
      ],
      "stateMutability": "view",
      "type": "function"
    },
    {
      "inputs": [],
      "name": "_projectDataContextAddr",
      "outputs": [
        {
          "internalType": "address",
          "name": "",
          "type": "address"
        }
      ],
      "stateMutability": "view",
      "type": "function"
    },
    {
      "inputs": [],
      "name": "_projectImplementation",
      "outputs": [
        {
          "internalType": "address",
          "name": "",
          "type": "address"
        }
      ],
      "stateMutability": "view",
      "type": "function"
    },
    {
      "inputs": [],
      "name": "_randomizerAddr",
      "outputs": [
        {
          "internalType": "address",
          "name": "",
          "type": "address"
        }
      ],
      "stateMutability": "view",
      "type": "function"
    },
    {
      "inputs": [
        {
          "internalType": "uint256",
          "name": "projectId",
          "type": "uint256"
        },
        {
          "internalType": "string",
          "name": "_script",
          "type": "string"
        }
      ],
      "name": "addProjectScript",
      "outputs": [],
      "stateMutability": "nonpayable",
      "type": "function"
    },
    {
      "inputs": [
        {
          "internalType": "address",
          "name": "to",
          "type": "address"
        },
        {
          "internalType": "uint256",
          "name": "tokenId",
          "type": "uint256"
        }
      ],
      "name": "approve",
      "outputs": [],
      "stateMutability": "nonpayable",
      "type": "function"
    },
    {
      "inputs": [
        {
          "internalType": "address",
          "name": "owner",
          "type": "address"
        }
      ],
      "name": "balanceOf",
      "outputs": [
        {
          "internalType": "uint256",
          "name": "",
          "type": "uint256"
        }
      ],
      "stateMutability": "view",
      "type": "function"
    },
    {
      "inputs": [
        {
          "internalType": "address",
          "name": "newAdm",
          "type": "address"
        }
      ],
      "name": "changeAdmin",
      "outputs": [],
      "stateMutability": "nonpayable",
      "type": "function"
    },
    {
      "inputs": [
        {
          "internalType": "address",
          "name": "newAddr",
          "type": "address"
        }
      ],
      "name": "changeDataContextAddr",
      "outputs": [],
      "stateMutability": "nonpayable",
      "type": "function"
    },
    {
      "inputs": [
        {
          "internalType": "address",
          "name": "newAddr",
          "type": "address"
        }
      ],
      "name": "changeParamAddr",
      "outputs": [],
      "stateMutability": "nonpayable",
      "type": "function"
    },
    {
      "inputs": [
        {
          "internalType": "address",
          "name": "newAddr",
          "type": "address"
        }
      ],
      "name": "changeRandomizerAddr",
      "outputs": [],
      "stateMutability": "nonpayable",
      "type": "function"
    },
    {
      "inputs": [
        {
          "internalType": "uint256",
          "name": "projectId",
          "type": "uint256"
        }
      ],
      "name": "completeProject",
      "outputs": [],
      "stateMutability": "nonpayable",
      "type": "function"
    },
    {
      "inputs": [
        {
          "internalType": "uint256",
          "name": "projectId",
          "type": "uint256"
        },
        {
          "internalType": "uint256",
          "name": "scriptIndex",
          "type": "uint256"
        }
      ],
      "name": "deleteProjectScript",
      "outputs": [],
      "stateMutability": "nonpayable",
      "type": "function"
    },
    {
      "inputs": [
        {
          "internalType": "uint256",
          "name": "tokenId",
          "type": "uint256"
        }
      ],
      "name": "getApproved",
      "outputs": [
        {
          "internalType": "address",
          "name": "",
          "type": "address"
        }
      ],
      "stateMutability": "view",
      "type": "function"
    },
    {
      "inputs": [],
      "name": "getGenerativeNFTImpl",
      "outputs": [
        {
          "internalType": "address",
          "name": "impl",
          "type": "address"
        }
      ],
      "stateMutability": "view",
      "type": "function"
    },
    {
      "inputs": [
        {
          "internalType": "string",
          "name": "name",
          "type": "string"
        },
        {
          "internalType": "string",
          "name": "symbol",
          "type": "string"
        },
        {
          "internalType": "address",
          "name": "admin",
          "type": "address"
        },
        {
          "internalType": "address",
          "name": "paramsAddress",
          "type": "address"
        },
        {
          "internalType": "address",
          "name": "randomizerAddr",
          "type": "address"
        },
        {
          "internalType": "address",
          "name": "projectDataContextAddr",
          "type": "address"
        }
      ],
      "name": "initialize",
      "outputs": [],
      "stateMutability": "nonpayable",
      "type": "function"
    },
    {
      "inputs": [
        {
          "internalType": "address",
          "name": "owner",
          "type": "address"
        },
        {
          "internalType": "address",
          "name": "operator",
          "type": "address"
        }
      ],
      "name": "isApprovedForAll",
      "outputs": [
        {
          "internalType": "bool",
          "name": "",
          "type": "bool"
        }
      ],
      "stateMutability": "view",
      "type": "function"
    },
    {
      "inputs": [
        {
          "components": [
            {
              "internalType": "uint24",
              "name": "_maxSupply",
              "type": "uint24"
            },
            {
              "internalType": "uint24",
              "name": "_limit",
              "type": "uint24"
            },
            {
              "internalType": "uint256",
              "name": "_mintPrice",
              "type": "uint256"
            },
            {
              "internalType": "address",
              "name": "_mintPriceAddr",
              "type": "address"
            },
            {
              "internalType": "string",
              "name": "_name",
              "type": "string"
            },
            {
              "internalType": "string",
              "name": "_creator",
              "type": "string"
            },
            {
              "internalType": "address",
              "name": "_creatorAddr",
              "type": "address"
            },
            {
              "internalType": "string",
              "name": "_license",
              "type": "string"
            },
            {
              "internalType": "string",
              "name": "_desc",
              "type": "string"
            },
            {
              "internalType": "string",
              "name": "_image",
              "type": "string"
            },
            {
              "components": [
                {
                  "internalType": "string",
                  "name": "_web",
                  "type": "string"
                },
                {
                  "internalType": "string",
                  "name": "_twitter",
                  "type": "string"
                },
                {
                  "internalType": "string",
                  "name": "_discord",
                  "type": "string"
                },
                {
                  "internalType": "string",
                  "name": "_medium",
                  "type": "string"
                },
                {
                  "internalType": "string",
                  "name": "_instagram",
                  "type": "string"
                }
              ],
              "internalType": "struct NFTProject.ProjectSocial",
              "name": "_social",
              "type": "tuple"
            },
            {
              "internalType": "string[]",
              "name": "_scriptType",
              "type": "string[]"
            },
            {
              "internalType": "string[]",
              "name": "_scripts",
              "type": "string[]"
            },
            {
              "internalType": "string",
              "name": "_styles",
              "type": "string"
            },
            {
              "internalType": "uint256",
              "name": "_completeTime",
              "type": "uint256"
            },
            {
              "internalType": "address",
              "name": "_genNFTAddr",
              "type": "address"
            },
            {
              "internalType": "string",
              "name": "_itemDesc",
              "type": "string"
            },
            {
              "internalType": "address[]",
              "name": "_reserves",
              "type": "address[]"
            },
            {
              "internalType": "uint256",
              "name": "_royalty",
              "type": "uint256"
            }
          ],
          "internalType": "struct NFTProject.Project",
          "name": "project",
          "type": "tuple"
        },
        {
          "internalType": "bool",
          "name": "disable",
          "type": "bool"
        },
        {
          "internalType": "uint256",
          "name": "openingTime",
          "type": "uint256"
        }
      ],
      "name": "mint",
      "outputs": [
        {
          "internalType": "uint256",
          "name": "",
          "type": "uint256"
        }
      ],
      "stateMutability": "payable",
      "type": "function"
    },
    {
      "inputs": [],
      "name": "name",
      "outputs": [
        {
          "internalType": "string",
          "name": "",
          "type": "string"
        }
      ],
      "stateMutability": "view",
      "type": "function"
    },
    {
      "inputs": [],
      "name": "owner",
      "outputs": [
        {
          "internalType": "address",
          "name": "",
          "type": "address"
        }
      ],
      "stateMutability": "view",
      "type": "function"
    },
    {
      "inputs": [
        {
          "internalType": "uint256",
          "name": "tokenId",
          "type": "uint256"
        }
      ],
      "name": "ownerOf",
      "outputs": [
        {
          "internalType": "address",
          "name": "",
          "type": "address"
        }
      ],
      "stateMutability": "view",
      "type": "function"
    },
    {
      "inputs": [],
      "name": "paused",
      "outputs": [
        {
          "internalType": "bool",
          "name": "",
          "type": "bool"
        }
      ],
      "stateMutability": "view",
      "type": "function"
    },
    {
      "inputs": [
        {
          "internalType": "uint256",
          "name": "projectId",
          "type": "uint256"
        }
      ],
      "name": "projectDetails",
      "outputs": [
        {
          "components": [
            {
              "internalType": "uint24",
              "name": "_maxSupply",
              "type": "uint24"
            },
            {
              "internalType": "uint24",
              "name": "_limit",
              "type": "uint24"
            },
            {
              "internalType": "uint256",
              "name": "_mintPrice",
              "type": "uint256"
            },
            {
              "internalType": "address",
              "name": "_mintPriceAddr",
              "type": "address"
            },
            {
              "internalType": "string",
              "name": "_name",
              "type": "string"
            },
            {
              "internalType": "string",
              "name": "_creator",
              "type": "string"
            },
            {
              "internalType": "address",
              "name": "_creatorAddr",
              "type": "address"
            },
            {
              "internalType": "string",
              "name": "_license",
              "type": "string"
            },
            {
              "internalType": "string",
              "name": "_desc",
              "type": "string"
            },
            {
              "internalType": "string",
              "name": "_image",
              "type": "string"
            },
            {
              "components": [
                {
                  "internalType": "string",
                  "name": "_web",
                  "type": "string"
                },
                {
                  "internalType": "string",
                  "name": "_twitter",
                  "type": "string"
                },
                {
                  "internalType": "string",
                  "name": "_discord",
                  "type": "string"
                },
                {
                  "internalType": "string",
                  "name": "_medium",
                  "type": "string"
                },
                {
                  "internalType": "string",
                  "name": "_instagram",
                  "type": "string"
                }
              ],
              "internalType": "struct NFTProject.ProjectSocial",
              "name": "_social",
              "type": "tuple"
            },
            {
              "internalType": "string[]",
              "name": "_scriptType",
              "type": "string[]"
            },
            {
              "internalType": "string[]",
              "name": "_scripts",
              "type": "string[]"
            },
            {
              "internalType": "string",
              "name": "_styles",
              "type": "string"
            },
            {
              "internalType": "uint256",
              "name": "_completeTime",
              "type": "uint256"
            },
            {
              "internalType": "address",
              "name": "_genNFTAddr",
              "type": "address"
            },
            {
              "internalType": "string",
              "name": "_itemDesc",
              "type": "string"
            },
            {
              "internalType": "address[]",
              "name": "_reserves",
              "type": "address[]"
            },
            {
              "internalType": "uint256",
              "name": "_royalty",
              "type": "uint256"
            }
          ],
          "internalType": "struct NFTProject.Project",
          "name": "project",
          "type": "tuple"
        }
      ],
      "stateMutability": "view",
      "type": "function"
    },
    {
      "inputs": [
        {
          "internalType": "uint256",
          "name": "projectId",
          "type": "uint256"
        }
      ],
      "name": "projectStatus",
      "outputs": [
        {
          "internalType": "bool",
          "name": "enable",
          "type": "bool"
        }
      ],
      "stateMutability": "view",
      "type": "function"
    },
    {
      "inputs": [],
      "name": "renounceOwnership",
      "outputs": [],
      "stateMutability": "nonpayable",
      "type": "function"
    },
    {
      "inputs": [
        {
          "internalType": "uint256",
          "name": "projectId",
          "type": "uint256"
        },
        {
          "internalType": "uint256",
          "name": "_salePrice",
          "type": "uint256"
        }
      ],
      "name": "royaltyInfo",
      "outputs": [
        {
          "internalType": "address",
          "name": "receiver",
          "type": "address"
        },
        {
          "internalType": "uint256",
          "name": "royaltyAmount",
          "type": "uint256"
        }
      ],
      "stateMutability": "view",
      "type": "function"
    },
    {
      "inputs": [
        {
          "internalType": "address",
          "name": "from",
          "type": "address"
        },
        {
          "internalType": "address",
          "name": "to",
          "type": "address"
        },
        {
          "internalType": "uint256",
          "name": "tokenId",
          "type": "uint256"
        }
      ],
      "name": "safeTransferFrom",
      "outputs": [],
      "stateMutability": "nonpayable",
      "type": "function"
    },
    {
      "inputs": [
        {
          "internalType": "address",
          "name": "from",
          "type": "address"
        },
        {
          "internalType": "address",
          "name": "to",
          "type": "address"
        },
        {
          "internalType": "uint256",
          "name": "tokenId",
          "type": "uint256"
        },
        {
          "internalType": "bytes",
          "name": "data",
          "type": "bytes"
        }
      ],
      "name": "safeTransferFrom",
      "outputs": [],
      "stateMutability": "nonpayable",
      "type": "function"
    },
    {
      "inputs": [
        {
          "internalType": "address",
          "name": "operator",
          "type": "address"
        },
        {
          "internalType": "bool",
          "name": "approved",
          "type": "bool"
        }
      ],
      "name": "setApprovalForAll",
      "outputs": [],
      "stateMutability": "nonpayable",
      "type": "function"
    },
    {
      "inputs": [
        {
          "internalType": "uint256",
          "name": "projectId",
          "type": "uint256"
        },
        {
          "internalType": "bool",
          "name": "enable",
          "type": "bool"
        }
      ],
      "name": "setProjectStatus",
      "outputs": [],
      "stateMutability": "nonpayable",
      "type": "function"
    },
    {
      "inputs": [
        {
          "internalType": "bytes4",
          "name": "interfaceId",
          "type": "bytes4"
        }
      ],
      "name": "supportsInterface",
      "outputs": [
        {
          "internalType": "bool",
          "name": "",
          "type": "bool"
        }
      ],
      "stateMutability": "view",
      "type": "function"
    },
    {
      "inputs": [],
      "name": "symbol",
      "outputs": [
        {
          "internalType": "string",
          "name": "",
          "type": "string"
        }
      ],
      "stateMutability": "view",
      "type": "function"
    },
    {
      "inputs": [
        {
          "internalType": "uint256",
          "name": "projectId",
          "type": "uint256"
        }
      ],
      "name": "tokenURI",
      "outputs": [
        {
          "internalType": "string",
          "name": "result",
          "type": "string"
        }
      ],
      "stateMutability": "view",
      "type": "function"
    },
    {
      "inputs": [
        {
          "internalType": "address",
          "name": "from",
          "type": "address"
        },
        {
          "internalType": "address",
          "name": "to",
          "type": "address"
        },
        {
          "internalType": "uint256",
          "name": "tokenId",
          "type": "uint256"
        }
      ],
      "name": "transferFrom",
      "outputs": [],
      "stateMutability": "nonpayable",
      "type": "function"
    },
    {
      "inputs": [
        {
          "internalType": "address",
          "name": "newOwner",
          "type": "address"
        }
      ],
      "name": "transferOwnership",
      "outputs": [],
      "stateMutability": "nonpayable",
      "type": "function"
    },
    {
      "inputs": [
        {
          "internalType": "uint256",
          "name": "projectId",
          "type": "uint256"
        },
        {
          "internalType": "string",
          "name": "creatorName",
          "type": "string"
        }
      ],
      "name": "updateProjectCreatorName",
      "outputs": [],
      "stateMutability": "nonpayable",
      "type": "function"
    },
    {
      "inputs": [
        {
          "internalType": "uint256",
          "name": "projectId",
          "type": "uint256"
        },
        {
          "internalType": "string",
          "name": "license",
          "type": "string"
        }
      ],
      "name": "updateProjectLicense",
      "outputs": [],
      "stateMutability": "nonpayable",
      "type": "function"
    },
    {
      "inputs": [
        {
          "internalType": "uint256",
          "name": "projectId",
          "type": "uint256"
        },
        {
          "internalType": "string",
          "name": "projectName",
          "type": "string"
        }
      ],
      "name": "updateProjectName",
      "outputs": [],
      "stateMutability": "nonpayable",
      "type": "function"
    },
    {
      "inputs": [
        {
          "internalType": "uint256",
          "name": "projectId",
          "type": "uint256"
        },
        {
          "internalType": "uint256",
          "name": "price",
          "type": "uint256"
        }
      ],
      "name": "updateProjectPrice",
      "outputs": [],
      "stateMutability": "nonpayable",
      "type": "function"
    },
    {
      "inputs": [
        {
          "internalType": "uint256",
          "name": "projectId",
          "type": "uint256"
        },
        {
          "internalType": "address",
          "name": "priceAddress",
          "type": "address"
        }
      ],
      "name": "updateProjectPriceAddress",
      "outputs": [],
      "stateMutability": "nonpayable",
      "type": "function"
    },
    {
      "inputs": [
        {
          "internalType": "uint256",
          "name": "projectId",
          "type": "uint256"
        },
        {
          "internalType": "uint256",
          "name": "scriptIndex",
          "type": "uint256"
        },
        {
          "internalType": "string",
          "name": "script",
          "type": "string"
        }
      ],
      "name": "updateProjectScript",
      "outputs": [],
      "stateMutability": "nonpayable",
      "type": "function"
    },
    {
      "inputs": [
        {
          "internalType": "uint256",
          "name": "projectId",
          "type": "uint256"
        },
        {
          "internalType": "string",
          "name": "scriptType",
          "type": "string"
        },
        {
          "internalType": "uint256",
          "name": "i",
          "type": "uint256"
        }
      ],
      "name": "updateProjectScriptType",
      "outputs": [],
      "stateMutability": "nonpayable",
      "type": "function"
    },
    {
      "inputs": [
        {
          "internalType": "uint256",
          "name": "projectId",
          "type": "uint256"
        },
        {
          "components": [
            {
              "internalType": "string",
              "name": "_web",
              "type": "string"
            },
            {
              "internalType": "string",
              "name": "_twitter",
              "type": "string"
            },
            {
              "internalType": "string",
              "name": "_discord",
              "type": "string"
            },
            {
              "internalType": "string",
              "name": "_medium",
              "type": "string"
            },
            {
              "internalType": "string",
              "name": "_instagram",
              "type": "string"
            }
          ],
          "internalType": "struct NFTProject.ProjectSocial",
          "name": "data",
          "type": "tuple"
        }
      ],
      "name": "updateProjectSocial",
      "outputs": [],
      "stateMutability": "nonpayable",
      "type": "function"
    },
    {
      "inputs": [
        {
          "internalType": "address",
          "name": "receiver",
          "type": "address"
        },
        {
          "internalType": "address",
          "name": "erc20Addr",
          "type": "address"
        },
        {
          "internalType": "uint256",
          "name": "amount",
          "type": "uint256"
        }
      ],
      "name": "withdraw",
      "outputs": [],
      "stateMutability": "nonpayable",
      "type": "function"
    }
  ],
  "bytecode": "0x608060405234801561001057600080fd5b50615b8580620000216000396000f3fe6080604052600436106102725760003560e01c806370a082311161014f578063acad0124116100c1578063daf618001161007a578063daf618001461079a578063e283d82f146107ba578063e56f2fe4146107da578063e985e9c5146107fa578063f2fde38b14610843578063febfd6c31461086357600080fd5b8063acad0124146106d9578063adfc7dae146106f9578063b1656ba31461071a578063b88d4fde1461073a578063c87b56dd1461075a578063d9caed121461077a57600080fd5b80638dd91a56116101135780638dd91a56146106175780638e1ab777146106445780638f28397014610664578063926553361461068457806395d89b41146106a4578063a22cb465146106b957600080fd5b806370a0823114610582578063715018a6146105a25780637c582908146105b757806389abfc9f146105d75780638da5cb5b146105f857600080fd5b80632a55205a116101e8578063472f1e02116101ac578063472f1e02146104c857806350ac5892146104e8578063575b57ea146105085780635c975abb146105295780636352211e1461054157806366215eb41461056157600080fd5b80632a55205a14610409578063300b4800146104485780633af6cd1e1461046757806342842e0e1461048757806345bf4d08146104a757600080fd5b80630d1706731161023a5780630d17067314610349578063166b7469146103695780631ca9741b146103895780632245f152146103a957806323b872dd146103c957806325b75d68146103e957600080fd5b806301bc45c91461027757806301ffc9a7146102b557806306fdde03146102e5578063081812fc14610307578063095ea7b314610327575b600080fd5b34801561028357600080fd5b5061015f54610298906001600160a01b031681565b6040516001600160a01b0390911681526020015b60405180910390f35b3480156102c157600080fd5b506102d56102d0366004614907565b610883565b60405190151581526020016102ac565b3480156102f157600080fd5b506102fa6108d5565b6040516102ac919061497c565b34801561031357600080fd5b5061029861032236600461498f565b610967565b34801561033357600080fd5b506103476103423660046149c8565b61098e565b005b34801561035557600080fd5b50610347610364366004614b0a565b610aa9565b34801561037557600080fd5b50610347610384366004614b50565b610bc7565b34801561039557600080fd5b506103476103a4366004614b72565b610cb8565b3480156103b557600080fd5b506103476103c436600461498f565b610d4c565b3480156103d557600080fd5b506103476103e4366004614b8f565b610dfd565b3480156103f557600080fd5b50610347610404366004614b0a565b610f53565b34801561041557600080fd5b50610429610424366004614b50565b611071565b604080516001600160a01b0390931683526020830191909152016102ac565b34801561045457600080fd5b50610165546001600160a01b0316610298565b34801561047357600080fd5b50610347610482366004614be9565b6110a2565b34801561049357600080fd5b506103476104a2366004614b8f565b611273565b6104ba6104b5366004614e1a565b6113be565b6040519081526020016102ac565b3480156104d457600080fd5b506103476104e3366004614b72565b6119e1565b3480156104f457600080fd5b506102d561050336600461498f565b611a76565b34801561051457600080fd5b5061016254610298906001600160a01b031681565b34801561053557600080fd5b5060975460ff166102d5565b34801561054d57600080fd5b5061029861055c36600461498f565b611b5b565b34801561056d57600080fd5b5061016154610298906001600160a01b031681565b34801561058e57600080fd5b506104ba61059d366004614b72565b611bbb565b3480156105ae57600080fd5b50610347611c41565b3480156105c357600080fd5b506103476105d2366004615094565b611c55565b3480156105e357600080fd5b5061016554610298906001600160a01b031681565b34801561060457600080fd5b5061012d546001600160a01b0316610298565b34801561062357600080fd5b5061063761063236600461498f565b611dd1565b6040516102ac91906151d7565b34801561065057600080fd5b5061034761065f3660046153d7565b6127c4565b34801561067057600080fd5b5061034761067f366004614b72565b61298e565b34801561069057600080fd5b5061034761069f366004614b50565b612a23565b3480156106b057600080fd5b506102fa612b80565b3480156106c557600080fd5b506103476106d4366004615413565b612b8f565b3480156106e557600080fd5b506103476106f4366004614b0a565b612b9a565b34801561070557600080fd5b5061016054610298906001600160a01b031681565b34801561072657600080fd5b50610347610735366004615441565b612c83565b34801561074657600080fd5b50610347610755366004615490565b612d7a565b34801561076657600080fd5b506102fa61077536600461498f565b612ed3565b34801561078657600080fd5b50610347610795366004614b8f565b612f8d565b3480156107a657600080fd5b506103476107b536600461550f565b6130e9565b3480156107c657600080fd5b506103476107d5366004614b0a565b6131c3565b3480156107e657600080fd5b506103476107f536600461555e565b6132e1565b34801561080657600080fd5b506102d561081536600461560c565b6001600160a01b039182166000908152606a6020908152604080832093909416825291909152205460ff1690565b34801561084f57600080fd5b5061034761085e366004614b72565b6134ec565b34801561086f57600080fd5b5061034761087e366004614b72565b613562565b60006001600160e01b031982166380ac58cd60e01b14806108b457506001600160e01b03198216635b5e139f60e01b145b806108cf57506301ffc9a760e01b6001600160e01b03198316145b92915050565b6060606580546108e49061563a565b80601f01602080910402602001604051908101604052809291908181526020018280546109109061563a565b801561095d5780601f106109325761010080835404028352916020019161095d565b820191906000526020600020905b81548152906001019060200180831161094057829003601f168201915b5050505050905090565b6000610972826135f7565b506000908152606960205260409020546001600160a01b031690565b600061099982611b5b565b9050806001600160a01b0316836001600160a01b03161415610a0c5760405162461bcd60e51b815260206004820152602160248201527f4552433732313a20617070726f76616c20746f2063757272656e74206f776e656044820152603960f91b60648201526084015b60405180910390fd5b336001600160a01b0382161480610a285750610a288133610815565b610a9a5760405162461bcd60e51b815260206004820152603d60248201527f4552433732313a20617070726f76652063616c6c6572206973206e6f7420746f60448201527f6b656e206f776e6572206f7220617070726f76656420666f7220616c6c0000006064820152608401610a03565b610aa48383613647565b505050565b61015f546001600160a01b0316331480610add5750600082815261016460205260409020600501546001600160a01b031633145b6040518060400160405280600381526020016231303160e81b81525090610b175760405162461bcd60e51b8152600401610a03919061497c565b50610b21826136b5565b6040518060400160405280600381526020016232303960e81b81525090610b5b5760405162461bcd60e51b8152600401610a03919061497c565b506000828152610164602090815260409091208251610b829260039092019184019061466c565b5080604051610b919190615675565b6040519081900381209083907fdaa562afcb682535ccff278b5881e249435b61d592905fa2fe0f33a9a363e11b90600090a35050565b61015f546001600160a01b0316331480610bfb5750600082815261016460205260409020600501546001600160a01b031633145b6040518060400160405280600381526020016231303160e81b81525090610c355760405162461bcd60e51b8152600401610a03919061497c565b50610c3f826136b5565b6040518060400160405280600381526020016232303960e81b81525090610c795760405162461bcd60e51b8152600401610a03919061497c565b50600082815261016460205260409020600f01805482908110610c9e57610c9e615691565b906000526020600020016000610cb491906146f0565b5050565b61015f546001600160a01b031633148015610cdb57506001600160a01b03811615155b6040518060400160405280600381526020016231303160e81b81525090610d155760405162461bcd60e51b8152600401610a03919061497c565b50610161546001600160a01b03828116911614610d495761016180546001600160a01b0319166001600160a01b0383161790555b50565b600081815261016460205260409020601201546001600160a01b03163314610d7357600080fd5b610d7c816136b5565b6040518060400160405280600381526020016232303960e81b81525090610db65760405162461bcd60e51b8152600401610a03919061497c565b50600081815261016460205260408082204260119091018190559051909183917f28259f066448a50458eb3d217c396dbd1f78c8626a2a252ddc0d34ab906b54239190a350565b826daaeb6d7670e522a718067333cd4e3b15610f42576001600160a01b038116331415610e3457610e2f8484846136d2565b610f4d565b604051633185c44d60e21b81526daaeb6d7670e522a718067333cd4e9063c617113490610e6790309033906004016156a7565b602060405180830381865afa158015610e84573d6000803e3d6000fd5b505050506040513d601f19601f82011682018060405250810190610ea891906156c1565b8015610f235750604051633185c44d60e21b81526daaeb6d7670e522a718067333cd4e9063c617113490610ee290309085906004016156a7565b602060405180830381865afa158015610eff573d6000803e3d6000fd5b505050506040513d601f19601f82011682018060405250810190610f2391906156c1565b610f4257604051633b79c77360e21b8152336004820152602401610a03565b610f4d8484846136d2565b50505050565b61015f546001600160a01b0316331480610f875750600082815261016460205260409020600501546001600160a01b031633145b6040518060400160405280600381526020016231303160e81b81525090610fc15760405162461bcd60e51b8152600401610a03919061497c565b50610fcb826136b5565b6040518060400160405280600381526020016232303960e81b815250906110055760405162461bcd60e51b8152600401610a03919061497c565b50600082815261016460209081526040909120825161102c9260069092019184019061466c565b508060405161103b9190615675565b6040519081900381209083907f37e7d36d9467fef9204db596ec8ad600a5f42d03309d7936daed5b4aedf9a16690600090a35050565b61015f546001600160a01b0316600061271061108f846101f46156f4565b6110999190615713565b90509250929050565b6110ab826136b5565b6040518060400160405280600381526020016232303960e81b815250906110e55760405162461bcd60e51b8152600401610a03919061497c565b5061015f546001600160a01b031633148061111a5750600082815261016460205260409020600501546001600160a01b031633145b6040518060400160405280600381526020016231303160e81b815250906111545760405162461bcd60e51b8152600401610a03919061497c565b50600082815261016460209081526040918290206012015482516302734eab60e51b815292516001600160a01b0390911692841515928492634e69d5609260048082019392918290030181865afa1580156111b3573d6000803e3d6000fd5b505050506040513d601f19601f820116820180604052508101906111d791906156c1565b151514156111e457600080fd5b6040516317103dbd60e21b815282151560048201526001600160a01b03821690635c40f6f490602401600060405180830381600087803b15801561122757600080fd5b505af115801561123b573d6000803e3d6000fd5b505060405184151592508591507ff6c6b5ef8b8f3bb25af69bda9a347568bfc16d17d1f6e911de88f63a08994af990600090a3505050565b826daaeb6d7670e522a718067333cd4e3b156113b3576001600160a01b0381163314156112a557610e2f848484613703565b604051633185c44d60e21b81526daaeb6d7670e522a718067333cd4e9063c6171134906112d890309033906004016156a7565b602060405180830381865afa1580156112f5573d6000803e3d6000fd5b505050506040513d601f19601f8201168201806040525081019061131991906156c1565b80156113945750604051633185c44d60e21b81526daaeb6d7670e522a718067333cd4e9063c61711349061135390309085906004016156a7565b602060405180830381865afa158015611370573d6000803e3d6000fd5b505050506040513d601f19601f8201168201806040525081019061139491906156c1565b6113b357604051633b79c77360e21b8152336004820152602401610a03565b610f4d848484613703565b60006113c861371e565b60038460800151511180156113e2575060038460a0015151115b80156113f45750600084610120015151115b6040518060400160405280600381526020016203230360ec1b8152509061142e5760405162461bcd60e51b8152600401610a03919061497c565b50835162ffffff161580159061144f5750620f4240846000015162ffffff16105b801561146457506000846020015162ffffff16115b80156114825750836000015162ffffff16846020015162ffffff1611155b8015611495575061271084610240015111155b604051806040016040528060038152602001620c8c0d60ea1b815250906114cf5760405162461bcd60e51b8152600401610a03919061497c565b5060c084015160408051808201909152600381526203130360ec1b6020820152906001600160a01b03166115165760405162461bcd60e51b8152600401610a03919061497c565b50610163805490600061152883615735565b9091555050610160546001600160a01b0316611542613778565b610163546000908152610164602090815260409182902087518154838a015162ffffff90811663010000000265ffffffffffff1990921692169190911717815591870151600183015560608701516002830180546001600160a01b039092166001600160a01b0319909216919091179055608087015180518893926115ce92600385019291019061466c565b5060a082015180516115ea91600484019160209091019061466c565b5060c08201516005820180546001600160a01b0319166001600160a01b0390921691909117905560e0820151805161162c91600684019160209091019061466c565b50610100820151805161164991600784019160209091019061466c565b50610120820151805161166691600884019160209091019061466c565b506101408201518051805160098401916116859183916020019061466c565b50602082810151805161169e926001850192019061466c565b50604082015180516116ba91600284019160209091019061466c565b50606082015180516116d691600384019160209091019061466c565b50608082015180516116f291600484019160209091019061466c565b505050610160820151805161171191600e84019160209091019061472a565b50610180820151805161172e91600f84019160209091019061472a565b506101a0820151805161174b91601084019160209091019061466c565b506101c082015160118201556101e08201516012820180546001600160a01b0319166001600160a01b03909216919091179055610200820151805161179a91601384019160209091019061466c565b5061022082015180516117b7916014840191602090910190614783565b5061024082015181601501559050506117d78560c0015161016354613a84565b604080518082018252601781527f47454e455241544956455f4e46545f54454d504c4154450000000000000000006020820152905163bf40fac160e01b8152600091611881916001600160a01b0385169163bf40fac19161183b919060040161497c565b602060405180830381865afa158015611858573d6000803e3d6000fd5b505050506040513d601f19601f8201168201806040525081019061187c9190615750565b613a9e565b610163805460009081526101646020908152604080832060120180546001600160a01b0319166001600160a01b0387811691821790925582516101a0810184523081529554868501528c5162ffffff908116878501528d85015116606080880191909152608080880187905260a08089018890528f015160c08901528e85015160e0890152908e015183166101008801528d0151610120870152825180840184529485529284018a90526101408501939093526102208b0151610160808601919091526102408c015161018086015261015f54905461016154610162549351637e11ba2960e11b81529798508897949663fc2374529661199596919594811694938116939281169216908e9060040161576d565b600060405180830381600087803b1580156119af57600080fd5b505af11580156119c3573d6000803e3d6000fd5b505050506101635493505050506119da600160fb55565b9392505050565b61015f546001600160a01b031633148015611a0457506001600160a01b03811615155b6040518060400160405280600381526020016231303160e81b81525090611a3e5760405162461bcd60e51b8152600401610a03919061497c565b50610162546001600160a01b03828116911614610d495761016280546001600160a01b0383166001600160a01b031990911617905550565b6000611a81826136b5565b6040518060400160405280600381526020016232303960e81b81525090611abb5760405162461bcd60e51b8152600401610a03919061497c565b50600082815261016460209081526040918290206012015482516302734eab60e51b815292516001600160a01b03909116928392634e69d560926004808401938290030181865afa158015611b14573d6000803e3d6000fd5b505050506040513d601f19601f82011682018060405250810190611b3891906156c1565b91508180156119da57505050600090815261016460205260409020601101541590565b6000818152606760205260408120546001600160a01b0316806108cf5760405162461bcd60e51b8152602060048201526018602482015277115490cdcc8c4e881a5b9d985b1a59081d1bdad95b88125160421b6044820152606401610a03565b60006001600160a01b038216611c255760405162461bcd60e51b815260206004820152602960248201527f4552433732313a2061646472657373207a65726f206973206e6f7420612076616044820152683634b21037bbb732b960b91b6064820152608401610a03565b506001600160a01b031660009081526068602052604090205490565b611c49613b3f565b611c536000613b9a565b565b61015f546001600160a01b0316331480611c895750600082815261016460205260409020600501546001600160a01b031633145b6040518060400160405280600381526020016231303160e81b81525090611cc35760405162461bcd60e51b8152600401610a03919061497c565b50611ccd826136b5565b6040518060400160405280600381526020016232303960e81b81525090611d075760405162461bcd60e51b8152600401610a03919061497c565b5060008281526101646020526040908190206002810180546001600160a01b0319166001600160a01b038581169182179092556012909201549251633745368960e11b8152600481019290925291909116908190636e8a6d1290602401600060405180830381600087803b158015611d7e57600080fd5b505af1158015611d92573d6000803e3d6000fd5b50506040516001600160a01b03851692508591507f5b1e0d93bdeaa5768c67d3842b9e946453118961a3f54a491511d7fc452b374f90600090a3505050565b611dd96147d8565b611de2826136b5565b6040518060400160405280600381526020016232303960e81b81525090611e1c5760405162461bcd60e51b8152600401610a03919061497c565b5060008281526101646020908152604091829020825161026081018452815462ffffff80821683526301000000909104169281019290925260018101549282019290925260028201546001600160a01b03166060820152600382018054919291608084019190611e8b9061563a565b80601f0160208091040260200160405190810160405280929190818152602001828054611eb79061563a565b8015611f045780601f10611ed957610100808354040283529160200191611f04565b820191906000526020600020905b815481529060010190602001808311611ee757829003601f168201915b50505050508152602001600482018054611f1d9061563a565b80601f0160208091040260200160405190810160405280929190818152602001828054611f499061563a565b8015611f965780601f10611f6b57610100808354040283529160200191611f96565b820191906000526020600020905b815481529060010190602001808311611f7957829003601f168201915b505050918352505060058201546001600160a01b03166020820152600682018054604090920191611fc69061563a565b80601f0160208091040260200160405190810160405280929190818152602001828054611ff29061563a565b801561203f5780601f106120145761010080835404028352916020019161203f565b820191906000526020600020905b81548152906001019060200180831161202257829003601f168201915b505050505081526020016007820180546120589061563a565b80601f01602080910402602001604051908101604052809291908181526020018280546120849061563a565b80156120d15780601f106120a6576101008083540402835291602001916120d1565b820191906000526020600020905b8154815290600101906020018083116120b457829003601f168201915b505050505081526020016008820180546120ea9061563a565b80601f01602080910402602001604051908101604052809291908181526020018280546121169061563a565b80156121635780601f1061213857610100808354040283529160200191612163565b820191906000526020600020905b81548152906001019060200180831161214657829003601f168201915b50505050508152602001600982016040518060a001604052908160008201805461218c9061563a565b80601f01602080910402602001604051908101604052809291908181526020018280546121b89061563a565b80156122055780601f106121da57610100808354040283529160200191612205565b820191906000526020600020905b8154815290600101906020018083116121e857829003601f168201915b5050505050815260200160018201805461221e9061563a565b80601f016020809104026020016040519081016040528092919081815260200182805461224a9061563a565b80156122975780601f1061226c57610100808354040283529160200191612297565b820191906000526020600020905b81548152906001019060200180831161227a57829003601f168201915b505050505081526020016002820180546122b09061563a565b80601f01602080910402602001604051908101604052809291908181526020018280546122dc9061563a565b80156123295780601f106122fe57610100808354040283529160200191612329565b820191906000526020600020905b81548152906001019060200180831161230c57829003601f168201915b505050505081526020016003820180546123429061563a565b80601f016020809104026020016040519081016040528092919081815260200182805461236e9061563a565b80156123bb5780601f10612390576101008083540402835291602001916123bb565b820191906000526020600020905b81548152906001019060200180831161239e57829003601f168201915b505050505081526020016004820180546123d49061563a565b80601f01602080910402602001604051908101604052809291908181526020018280546124009061563a565b801561244d5780601f106124225761010080835404028352916020019161244d565b820191906000526020600020905b81548152906001019060200180831161243057829003601f168201915b5050505050815250508152602001600e8201805480602002602001604051908101604052809291908181526020016000905b8282101561252b57838290600052602060002001805461249e9061563a565b80601f01602080910402602001604051908101604052809291908181526020018280546124ca9061563a565b80156125175780601f106124ec57610100808354040283529160200191612517565b820191906000526020600020905b8154815290600101906020018083116124fa57829003601f168201915b50505050508152602001906001019061247f565b505050508152602001600f8201805480602002602001604051908101604052809291908181526020016000905b828210156126045783829060005260206000200180546125779061563a565b80601f01602080910402602001604051908101604052809291908181526020018280546125a39061563a565b80156125f05780601f106125c5576101008083540402835291602001916125f0565b820191906000526020600020905b8154815290600101906020018083116125d357829003601f168201915b505050505081526020019060010190612558565b50505050815260200160108201805461261c9061563a565b80601f01602080910402602001604051908101604052809291908181526020018280546126489061563a565b80156126955780601f1061266a57610100808354040283529160200191612695565b820191906000526020600020905b81548152906001019060200180831161267857829003601f168201915b50505091835250506011820154602082015260128201546001600160a01b031660408201526013820180546060909201916126cf9061563a565b80601f01602080910402602001604051908101604052809291908181526020018280546126fb9061563a565b80156127485780601f1061271d57610100808354040283529160200191612748565b820191906000526020600020905b81548152906001019060200180831161272b57829003601f168201915b50505050508152602001601482018054806020026020016040519081016040528092919081815260200182805480156127aa57602002820191906000526020600020905b81546001600160a01b0316815260019091019060200180831161278c575b505050505081526020016015820154815250509050919050565b61015f546001600160a01b03163314806127f85750600082815261016460205260409020600501546001600160a01b031633145b6040518060400160405280600381526020016231303160e81b815250906128325760405162461bcd60e51b8152600401610a03919061497c565b5061283c826136b5565b6040518060400160405280600381526020016232303960e81b815250906128765760405162461bcd60e51b8152600401610a03919061497c565b506040808201516000848152610164602090815292902081516128a393600b90920192919091019061466c565b50602080820151600084815261016483526040902081516128cd93600a909201929091019061466c565b50608081015160008381526101646020908152604090912082516128fa93600d909201929091019061466c565b506060810151600083815261016460209081526040909120825161292793600c909201929091019061466c565b5080516000838152610164602090815260409091208251612951936009909201929091019061466c565b50817fac9eecd527183c9d33cb010c7110e35faa09868c77e3cf66465a67079dca197c8260405161298291906158fe565b60405180910390a25050565b61015f546001600160a01b0316331480156129b157506001600160a01b03811615155b6040518060400160405280600381526020016231303160e81b815250906129eb5760405162461bcd60e51b8152600401610a03919061497c565b5061015f546001600160a01b03828116911614610d495761015f80546001600160a01b0383166001600160a01b031990911617905550565b61015f546001600160a01b0316331480612a575750600082815261016460205260409020600501546001600160a01b031633145b6040518060400160405280600381526020016231303160e81b81525090612a915760405162461bcd60e51b8152600401610a03919061497c565b50612a9b826136b5565b6040518060400160405280600381526020016232303960e81b81525090612ad55760405162461bcd60e51b8152600401610a03919061497c565b50600082815261016460205260409081902060018101839055601201549051638d6cc56d60e01b8152600481018390526001600160a01b03909116908190638d6cc56d90602401600060405180830381600087803b158015612b3657600080fd5b505af1158015612b4a573d6000803e3d6000fd5b50506040518492508591507fcc3136787384490182c3da4ad1777aa0e5905afb3cae9b76d71e34cd870883ef90600090a3505050565b6060606680546108e49061563a565b610cb4338383613bed565b61015f546001600160a01b0316331480612bce5750600082815261016460205260409020600501546001600160a01b031633145b6040518060400160405280600381526020016231303160e81b81525090612c085760405162461bcd60e51b8152600401610a03919061497c565b50612c12826136b5565b6040518060400160405280600381526020016232303960e81b81525090612c4c5760405162461bcd60e51b8152600401610a03919061497c565b506000828152610164602090815260408220600f018054600181018255908352918190208351610aa493919091019184019061466c565b61015f546001600160a01b0316331480612cb75750600083815261016460205260409020600501546001600160a01b031633145b6040518060400160405280600381526020016231303160e81b81525090612cf15760405162461bcd60e51b8152600401610a03919061497c565b50612cfb836136b5565b6040518060400160405280600381526020016232303960e81b81525090612d355760405162461bcd60e51b8152600401610a03919061497c565b50600083815261016460205260409020600f01805482919084908110612d5d57612d5d615691565b906000526020600020019080519060200190610f4d92919061466c565b836daaeb6d7670e522a718067333cd4e3b15612ec0576001600160a01b038116331415612db257612dad85858585613cbc565b612ecc565b604051633185c44d60e21b81526daaeb6d7670e522a718067333cd4e9063c617113490612de590309033906004016156a7565b602060405180830381865afa158015612e02573d6000803e3d6000fd5b505050506040513d601f19601f82011682018060405250810190612e2691906156c1565b8015612ea15750604051633185c44d60e21b81526daaeb6d7670e522a718067333cd4e9063c617113490612e6090309085906004016156a7565b602060405180830381865afa158015612e7d573d6000803e3d6000fd5b505050506040513d601f19601f82011682018060405250810190612ea191906156c1565b612ec057604051633b79c77360e21b8152336004820152602401610a03565b612ecc85858585613cbc565b5050505050565b6060612ede826136b5565b6040518060400160405280600381526020016232303960e81b81525090612f185760405162461bcd60e51b8152600401610a03919061497c565b506101625460405163079ebc6f60e41b8152600481018490526001600160a01b039091169081906379ebc6f090602401600060405180830381865afa158015612f65573d6000803e3d6000fd5b505050506040513d6000823e601f3d908101601f191682016040526119da9190810190615911565b612f9561371e565b61015f5460408051808201909152600381526231303160e81b6020820152906001600160a01b03163314612fdc5760405162461bcd60e51b8152600401610a03919061497c565b5060006001600160a01b03831661305d5781471015612ffa57600080fd5b6040516001600160a01b038516908390600081818185875af1925050503d8060008114613043576040519150601f19603f3d011682016040523d82523d6000602084013e613048565b606091505b5050809150508061305857600080fd5b6130de565b60405163a9059cbb60e01b81526001600160a01b0385811660048301526024820184905284919082169063a9059cbb906044016020604051808303816000875af11580156130af573d6000803e3d6000fd5b505050506040513d601f19601f820116820180604052508101906130d391906156c1565b6130dc57600080fd5b505b50610aa4600160fb55565b61015f546001600160a01b031633148061311d5750600083815261016460205260409020600501546001600160a01b031633145b6040518060400160405280600381526020016231303160e81b815250906131575760405162461bcd60e51b8152600401610a03919061497c565b50613161836136b5565b6040518060400160405280600381526020016232303960e81b8152509061319b5760405162461bcd60e51b8152600401610a03919061497c565b50600083815261016460205260409020600e01805483919083908110612d5d57612d5d615691565b61015f546001600160a01b03163314806131f75750600082815261016460205260409020600501546001600160a01b031633145b6040518060400160405280600381526020016231303160e81b815250906132315760405162461bcd60e51b8152600401610a03919061497c565b5061323b826136b5565b6040518060400160405280600381526020016232303960e81b815250906132755760405162461bcd60e51b8152600401610a03919061497c565b50600082815261016460209081526040909120825161329c9260049092019184019061466c565b50806040516132ab9190615675565b6040519081900381209083907f0659e01d131efb672ee6f7f79276247f0e1a8ad1731616056a9e671caa57b41090600090a35050565b600054610100900460ff16158080156133015750600054600160ff909116105b8061331b5750303b15801561331b575060005460ff166001145b61337e5760405162461bcd60e51b815260206004820152602e60248201527f496e697469616c697a61626c653a20636f6e747261637420697320616c72656160448201526d191e481a5b9a5d1a585b1a5e995960921b6064820152608401610a03565b6000805460ff1916600117905580156133a1576000805461ff0019166101001790555b60408051808201909152600381526203130360ec1b60208201526001600160a01b0386166133e25760405162461bcd60e51b8152600401610a03919061497c565b5060408051808201909152600381526203130360ec1b60208201526001600160a01b0385166134245760405162461bcd60e51b8152600401610a03919061497c565b5061016080546001600160a01b038087166001600160a01b03199283161790925561015f8054888416908316179055610161805486841690831617905561016280549285169290911691909117905561347d8787613cee565b613485613d1f565b61348d613d4e565b613495613d7d565b61349d613dc3565b80156134e3576000805461ff0019169055604051600181527f7f26b83ff96e1f2b6a682f133852f6798a09c465da95921460cefb38474024989060200160405180910390a15b50505050505050565b6134f4613b3f565b6001600160a01b0381166135595760405162461bcd60e51b815260206004820152602660248201527f4f776e61626c653a206e6577206f776e657220697320746865207a65726f206160448201526564647265737360d01b6064820152608401610a03565b610d4981613b9a565b61015f546001600160a01b03163314801561358557506001600160a01b03811615155b6040518060400160405280600381526020016231303160e81b815250906135bf5760405162461bcd60e51b8152600401610a03919061497c565b50610160546001600160a01b03828116911614610d495761016080546001600160a01b0383166001600160a01b031990911617905550565b613600816136b5565b610d495760405162461bcd60e51b8152602060048201526018602482015277115490cdcc8c4e881a5b9d985b1a59081d1bdad95b88125160421b6044820152606401610a03565b600081815260696020526040902080546001600160a01b0319166001600160a01b038416908117909155819061367c82611b5b565b6001600160a01b03167f8c5be1e5ebec7d5bd14f71427d1e84f3dd0314c0f7b2291e5b200ac8c7c3b92560405160405180910390a45050565b6000908152606760205260409020546001600160a01b0316151590565b6136dc3382613df2565b6136f85760405162461bcd60e51b8152600401610a039061597e565b610aa4838383613e71565b610aa483838360405180602001604052806000815250612d7a565b600260fb5414156137715760405162461bcd60e51b815260206004820152601f60248201527f5265656e7472616e637947756172643a207265656e7472616e742063616c6c006044820152606401610a03565b600260fb55565b61015f546001600160a01b03163314611c53576101605460408051808201825260128152714352454154455f50524f4a4543545f46454560701b60208201529051636d12dce160e01b81526001600160a01b03909216916000918391636d12dce1916137e69160040161497c565b602060405180830381865afa158015613803573d6000803e3d6000fd5b505050506040513d601f19601f8201168201806040525081019061382791906159cb565b90508015610cb45760408051808201825260098152682322a2afaa27a5a2a760b91b6020820152905163bf40fac160e01b81526000916001600160a01b0385169163bf40fac19161387a9160040161497c565b602060405180830381865afa158015613897573d6000803e3d6000fd5b505050506040513d601f19601f820116820180604052508101906138bb9190615750565b604080518082018252601f81527f4d494e545f4e46545f4f50455241544f525f54524541535552455f41444452006020820152905163bf40fac160e01b815291925030916000916001600160a01b0387169163bf40fac19161391f9160040161497c565b602060405180830381865afa15801561393c573d6000803e3d6000fd5b505050506040513d601f19601f820116820180604052508101906139609190615750565b90506001600160a01b03811615613975578091505b6001600160a01b03831615613a0f576040516323b872dd60e01b81523360048201526001600160a01b038381166024830152604482018690528491908216906323b872dd906064016020604051808303816000875af11580156139dc573d6000803e3d6000fd5b505050506040513d601f19601f82011682018060405250810190613a0091906156c1565b613a0957600080fd5b50612ecc565b83341015613a1c57600080fd5b6000826001600160a01b03163460405160006040518083038185875af1925050503d8060008114613a69576040519150601f19603f3d011682016040523d82523d6000602084013e613a6e565b606091505b5050905080613a7c57600080fd5b505050505050565b610cb4828260405180602001604052806000815250613fe2565b6000763d602d80600a3d3981f3363d3d373d3d3d363d730000008260601b60e81c176000526e5af43d82803e903d91602b57fd5bf38260781b17602052603760096000f090506001600160a01b038116613b335760405162461bcd60e51b8152602060048201526016602482015275115490cc4c4d8dce8818dc99585d194819985a5b195960521b6044820152606401610a03565b919050565b600160fb55565b61012d546001600160a01b03163314611c535760405162461bcd60e51b815260206004820181905260248201527f4f776e61626c653a2063616c6c6572206973206e6f7420746865206f776e65726044820152606401610a03565b61012d80546001600160a01b038381166001600160a01b0319831681179093556040519116919082907f8be0079c531659141344cd1fd0a4f28419497f9722a3daafe3b4186f6b6457e090600090a35050565b816001600160a01b0316836001600160a01b03161415613c4f5760405162461bcd60e51b815260206004820152601960248201527f4552433732313a20617070726f766520746f2063616c6c6572000000000000006044820152606401610a03565b6001600160a01b038381166000818152606a6020908152604080832094871680845294825291829020805460ff191686151590811790915591519182527f17307eab39ab6107e8899845ad3d59bd9653f200f220920489ca2b5937696c31910160405180910390a3505050565b613cc63383613df2565b613ce25760405162461bcd60e51b8152600401610a039061597e565b610f4d84848484614015565b600054610100900460ff16613d155760405162461bcd60e51b8152600401610a03906159e4565b610cb48282614048565b600054610100900460ff16613d465760405162461bcd60e51b8152600401610a03906159e4565b611c53614096565b600054610100900460ff16613d755760405162461bcd60e51b8152600401610a03906159e4565b611c536140bd565b600054610100900460ff16613da45760405162461bcd60e51b8152600401610a03906159e4565b611c53733cc6cdda760b79bafa08df41ecfa224f810dceb660016140f0565b600054610100900460ff16613dea5760405162461bcd60e51b8152600401610a03906159e4565b611c53614279565b600080613dfe83611b5b565b9050806001600160a01b0316846001600160a01b03161480613e4557506001600160a01b038082166000908152606a602090815260408083209388168352929052205460ff165b80613e695750836001600160a01b0316613e5e84610967565b6001600160a01b0316145b949350505050565b826001600160a01b0316613e8482611b5b565b6001600160a01b031614613eaa5760405162461bcd60e51b8152600401610a0390615a2f565b6001600160a01b038216613f0c5760405162461bcd60e51b8152602060048201526024808201527f4552433732313a207472616e7366657220746f20746865207a65726f206164646044820152637265737360e01b6064820152608401610a03565b613f1983838360016142a9565b826001600160a01b0316613f2c82611b5b565b6001600160a01b031614613f525760405162461bcd60e51b8152600401610a0390615a2f565b600081815260696020908152604080832080546001600160a01b03199081169091556001600160a01b0387811680865260688552838620805460001901905590871680865283862080546001019055868652606790945282852080549092168417909155905184937fddf252ad1be2c89b69c2b068fc378daa952ba7f163c4a11628f55a4df523b3ef91a4505050565b613fec83836142f8565b613ff96000848484614473565b610aa45760405162461bcd60e51b8152600401610a0390615a74565b614020848484613e71565b61402c84848484614473565b610f4d5760405162461bcd60e51b8152600401610a0390615a74565b600054610100900460ff1661406f5760405162461bcd60e51b8152600401610a03906159e4565b815161408290606590602085019061466c565b508051610aa490606690602084019061466c565b600054610100900460ff16613b385760405162461bcd60e51b8152600401610a03906159e4565b600054610100900460ff166140e45760405162461bcd60e51b8152600401610a03906159e4565b6097805460ff19169055565b600054610100900460ff166141175760405162461bcd60e51b8152600401610a03906159e4565b6daaeb6d7670e522a718067333cd4e3b15610cb45760405163c3c5a54760e01b81523060048201526daaeb6d7670e522a718067333cd4e9063c3c5a547906024016020604051808303816000875af1158015614177573d6000803e3d6000fd5b505050506040513d601f19601f8201168201806040525081019061419b91906156c1565b610cb457801561420657604051633e9f1edf60e11b81526daaeb6d7670e522a718067333cd4e90637d3e3dbe906141d890309086906004016156a7565b600060405180830381600087803b1580156141f257600080fd5b505af1158015613a7c573d6000803e3d6000fd5b6001600160a01b038216156142485760405163a0af290360e01b81526daaeb6d7670e522a718067333cd4e9063a0af2903906141d890309086906004016156a7565b604051632210724360e11b81523060048201526daaeb6d7670e522a718067333cd4e90634420e486906024016141d8565b600054610100900460ff166142a05760405162461bcd60e51b8152600401610a03906159e4565b611c5333613b9a565b60408051808201909152600381526203231360ec1b60208201526001600160a01b038516156142eb5760405162461bcd60e51b8152600401610a03919061497c565b50610f4d84848484614571565b6001600160a01b03821661434e5760405162461bcd60e51b815260206004820181905260248201527f4552433732313a206d696e7420746f20746865207a65726f20616464726573736044820152606401610a03565b614357816136b5565b156143a45760405162461bcd60e51b815260206004820152601c60248201527f4552433732313a20746f6b656e20616c7265616479206d696e746564000000006044820152606401610a03565b6143b26000838360016142a9565b6143bb816136b5565b156144085760405162461bcd60e51b815260206004820152601c60248201527f4552433732313a20746f6b656e20616c7265616479206d696e746564000000006044820152606401610a03565b6001600160a01b038216600081815260686020908152604080832080546001019055848352606790915280822080546001600160a01b0319168417905551839291907fddf252ad1be2c89b69c2b068fc378daa952ba7f163c4a11628f55a4df523b3ef908290a45050565b60006001600160a01b0384163b1561456657604051630a85bd0160e11b81526001600160a01b0385169063150b7a02906144b7903390899088908890600401615ac6565b6020604051808303816000875af19250505080156144f2575060408051601f3d908101601f191682019092526144ef91810190615b03565b60015b61454c573d808015614520576040519150601f19603f3d011682016040523d82523d6000602084013e614525565b606091505b5080516145445760405162461bcd60e51b8152600401610a0390615a74565b805181602001fd5b6001600160e01b031916630a85bd0160e11b149050613e69565b506001949350505050565b61457d848484846145e4565b60975460ff1615610f4d5760405162461bcd60e51b815260206004820152602b60248201527f4552433732315061757361626c653a20746f6b656e207472616e73666572207760448201526a1a1a5b19481c185d5cd95960aa1b6064820152608401610a03565b6001811115610f4d576001600160a01b0384161561462a576001600160a01b03841660009081526068602052604081208054839290614624908490615b20565b90915550505b6001600160a01b03831615610f4d576001600160a01b03831660009081526068602052604081208054839290614661908490615b37565b909155505050505050565b8280546146789061563a565b90600052602060002090601f01602090048101928261469a57600085556146e0565b82601f106146b357805160ff19168380011785556146e0565b828001600101855582156146e0579182015b828111156146e05782518255916020019190600101906146c5565b506146ec9291506148bf565b5090565b5080546146fc9061563a565b6000825580601f1061470c575050565b601f016020900490600052602060002090810190610d4991906148bf565b828054828255906000526020600020908101928215614777579160200282015b82811115614777578251805161476791849160209091019061466c565b509160200191906001019061474a565b506146ec9291506148d4565b8280548282559060005260206000209081019282156146e0579160200282015b828111156146e057825182546001600160a01b0319166001600160a01b039091161782556020909201916001909101906147a3565b604051806102600160405280600062ffffff168152602001600062ffffff1681526020016000815260200160006001600160a01b03168152602001606081526020016060815260200160006001600160a01b031681526020016060815260200160608152602001606081526020016148786040518060a0016040528060608152602001606081526020016060815260200160608152602001606081525090565b81526020016060815260200160608152602001606081526020016000815260200160006001600160a01b031681526020016060815260200160608152602001600081525090565b5b808211156146ec57600081556001016148c0565b808211156146ec5760006148e882826146f0565b506001016148d4565b6001600160e01b031981168114610d4957600080fd5b60006020828403121561491957600080fd5b81356119da816148f1565b60005b8381101561493f578181015183820152602001614927565b83811115610f4d5750506000910152565b60008151808452614968816020860160208601614924565b601f01601f19169290920160200192915050565b6020815260006119da6020830184614950565b6000602082840312156149a157600080fd5b5035919050565b6001600160a01b0381168114610d4957600080fd5b8035613b33816149a8565b600080604083850312156149db57600080fd5b82356149e6816149a8565b946020939093013593505050565b634e487b7160e01b600052604160045260246000fd5b60405160a081016001600160401b0381118282101715614a2c57614a2c6149f4565b60405290565b60405161026081016001600160401b0381118282101715614a2c57614a2c6149f4565b604051601f8201601f191681016001600160401b0381118282101715614a7d57614a7d6149f4565b604052919050565b60006001600160401b03821115614a9e57614a9e6149f4565b50601f01601f191660200190565b6000614abf614aba84614a85565b614a55565b9050828152838383011115614ad357600080fd5b828260208301376000602084830101529392505050565b600082601f830112614afb57600080fd5b6119da83833560208501614aac565b60008060408385031215614b1d57600080fd5b8235915060208301356001600160401b03811115614b3a57600080fd5b614b4685828601614aea565b9150509250929050565b60008060408385031215614b6357600080fd5b50508035926020909101359150565b600060208284031215614b8457600080fd5b81356119da816149a8565b600080600060608486031215614ba457600080fd5b8335614baf816149a8565b92506020840135614bbf816149a8565b929592945050506040919091013590565b8015158114610d4957600080fd5b8035613b3381614bd0565b60008060408385031215614bfc57600080fd5b823591506020830135614c0e81614bd0565b809150509250929050565b803562ffffff81168114613b3357600080fd5b600060a08284031215614c3e57600080fd5b614c46614a0a565b905081356001600160401b0380821115614c5f57600080fd5b614c6b85838601614aea565b83526020840135915080821115614c8157600080fd5b614c8d85838601614aea565b60208401526040840135915080821115614ca657600080fd5b614cb285838601614aea565b60408401526060840135915080821115614ccb57600080fd5b614cd785838601614aea565b60608401526080840135915080821115614cf057600080fd5b50614cfd84828501614aea565b60808301525092915050565b60006001600160401b03821115614d2257614d226149f4565b5060051b60200190565b600082601f830112614d3d57600080fd5b81356020614d4d614aba83614d09565b82815260059290921b84018101918181019086841115614d6c57600080fd5b8286015b84811015614dab5780356001600160401b03811115614d8f5760008081fd5b614d9d8986838b0101614aea565b845250918301918301614d70565b509695505050505050565b600082601f830112614dc757600080fd5b81356020614dd7614aba83614d09565b82815260059290921b84018101918181019086841115614df657600080fd5b8286015b84811015614dab578035614e0d816149a8565b8352918301918301614dfa565b600080600060608486031215614e2f57600080fd5b83356001600160401b0380821115614e4657600080fd5b908501906102608288031215614e5b57600080fd5b614e63614a32565b614e6c83614c19565b8152614e7a60208401614c19565b602082015260408301356040820152614e95606084016149bd565b6060820152608083013582811115614eac57600080fd5b614eb889828601614aea565b60808301525060a083013582811115614ed057600080fd5b614edc89828601614aea565b60a083015250614eee60c084016149bd565b60c082015260e083013582811115614f0557600080fd5b614f1189828601614aea565b60e0830152506101008084013583811115614f2b57600080fd5b614f378a828701614aea565b8284015250506101208084013583811115614f5157600080fd5b614f5d8a828701614aea565b8284015250506101408084013583811115614f7757600080fd5b614f838a828701614c2c565b8284015250506101608084013583811115614f9d57600080fd5b614fa98a828701614d2c565b8284015250506101808084013583811115614fc357600080fd5b614fcf8a828701614d2c565b8284015250506101a08084013583811115614fe957600080fd5b614ff58a828701614aea565b8284015250506101c08084013581830152506101e06150158185016149bd565b90820152610200838101358381111561502d57600080fd5b6150398a828701614aea565b828401525050610220808401358381111561505357600080fd5b61505f8a828701614db6565b8284015250506102409150818301358282015280955050505061508460208501614bde565b9150604084013590509250925092565b600080604083850312156150a757600080fd5b823591506020830135614c0e816149a8565b6000815160a084526150ce60a0850182614950565b9050602083015184820360208601526150e78282614950565b915050604083015184820360408601526151018282614950565b9150506060830151848203606086015261511b8282614950565b915050608083015184820360808601526151358282614950565b95945050505050565b600081518084526020808501808196508360051b8101915082860160005b85811015615186578284038952615174848351614950565b9885019893509084019060010161515c565b5091979650505050505050565b600081518084526020808501945080840160005b838110156151cc5781516001600160a01b0316875295820195908201906001016151a7565b509495945050505050565b602081526151ed60208201835162ffffff169052565b60006020830151615205604084018262ffffff169052565b5060408301516060830152606083015161522a60808401826001600160a01b03169052565b5060808301516102608060a0850152615247610280850183614950565b915060a0850151601f19808685030160c08701526152658483614950565b935060c0870151915061528360e08701836001600160a01b03169052565b60e087015191506101008187860301818801526152a08584614950565b9450808801519250506101208187860301818801526152bf8584614950565b9450808801519250506101408187860301818801526152de8584614950565b9450808801519250506101608187860301818801526152fd85846150b9565b94508088015192505061018081878603018188015261531c858461513e565b9450808801519250506101a081878603018188015261533b858461513e565b9450808801519250506101c081878603018188015261535a8584614950565b908801516101e0888101919091528801519094509150610200615387818801846001600160a01b03169052565b808801519250506102208187860301818801526153a48584614950565b9450808801519250506102408187860301818801526153c38584615193565b970151959092019490945250929392505050565b600080604083850312156153ea57600080fd5b8235915060208301356001600160401b0381111561540757600080fd5b614b4685828601614c2c565b6000806040838503121561542657600080fd5b8235615431816149a8565b91506020830135614c0e81614bd0565b60008060006060848603121561545657600080fd5b833592506020840135915060408401356001600160401b0381111561547a57600080fd5b61548686828701614aea565b9150509250925092565b600080600080608085870312156154a657600080fd5b84356154b1816149a8565b935060208501356154c1816149a8565b92506040850135915060608501356001600160401b038111156154e357600080fd5b8501601f810187136154f457600080fd5b61550387823560208401614aac565b91505092959194509250565b60008060006060848603121561552457600080fd5b8335925060208401356001600160401b0381111561554157600080fd5b61554d86828701614aea565b925050604084013590509250925092565b60008060008060008060c0878903121561557757600080fd5b86356001600160401b038082111561558e57600080fd5b61559a8a838b01614aea565b975060208901359150808211156155b057600080fd5b506155bd89828a01614aea565b95505060408701356155ce816149a8565b935060608701356155de816149a8565b925060808701356155ee816149a8565b915060a08701356155fe816149a8565b809150509295509295509295565b6000806040838503121561561f57600080fd5b823561562a816149a8565b91506020830135614c0e816149a8565b600181811c9082168061564e57607f821691505b6020821081141561566f57634e487b7160e01b600052602260045260246000fd5b50919050565b60008251615687818460208701614924565b9190910192915050565b634e487b7160e01b600052603260045260246000fd5b6001600160a01b0392831681529116602082015260400190565b6000602082840312156156d357600080fd5b81516119da81614bd0565b634e487b7160e01b600052601160045260246000fd5b600081600019048311821515161561570e5761570e6156de565b500290565b60008261573057634e487b7160e01b600052601260045260246000fd5b500490565b6000600019821415615749576157496156de565b5060010190565b60006020828403121561576257600080fd5b81516119da816149a8565b60c0815261578760c0820188516001600160a01b03169052565b602087015160e0820152600060408801516101006157ab8185018362ffffff169052565b60608a015191506101206157c58186018462ffffff169052565b60808b015192506101406157df8187018562ffffff169052565b60a08c015193506101606157f98188018662ffffff169052565b60c08d015194506101c061018081818a01526158196102808a0188614950565b965060e08f01516101a08a0152858f01519550615840828a01876001600160a01b03169052565b848f0151955060bf19945084898803016101e08a01526158608787614950565b8f85015180516102008c015260208101516102208c01529097509550828f0151955084898803016102408a01526158978787615193565b908f01516102608a01526001600160a01b038e1660208a015296506158be95505050505050565b6001600160a01b03861660408301526001600160a01b03851660608301526001600160a01b038416608083015282151560a0830152979650505050505050565b6020815260006119da60208301846150b9565b60006020828403121561592357600080fd5b81516001600160401b0381111561593957600080fd5b8201601f8101841361594a57600080fd5b8051615958614aba82614a85565b81815285602083850101111561596d57600080fd5b615135826020830160208601614924565b6020808252602d908201527f4552433732313a2063616c6c6572206973206e6f7420746f6b656e206f776e6560408201526c1c881bdc88185c1c1c9bdd9959609a1b606082015260800190565b6000602082840312156159dd57600080fd5b5051919050565b6020808252602b908201527f496e697469616c697a61626c653a20636f6e7472616374206973206e6f74206960408201526a6e697469616c697a696e6760a81b606082015260800190565b60208082526025908201527f4552433732313a207472616e736665722066726f6d20696e636f72726563742060408201526437bbb732b960d91b606082015260800190565b60208082526032908201527f4552433732313a207472616e7366657220746f206e6f6e20455243373231526560408201527131b2b4bb32b91034b6b83632b6b2b73a32b960711b606082015260800190565b6001600160a01b0385811682528416602082015260408101839052608060608201819052600090615af990830184614950565b9695505050505050565b600060208284031215615b1557600080fd5b81516119da816148f1565b600082821015615b3257615b326156de565b500390565b60008219821115615b4a57615b4a6156de565b50019056fea2646970667358221220b8119e0130f574e6235de139a253007265477f7225cc8924de6660e44d9b9dd564736f6c634300080c0033",
  "linkReferences": {},
  "deployedLinkReferences": {}
}