{
  "_format": "hh-sol-artifact-1",
  "contractName": "GenerativeProject",
  "sourceName": "contracts/nfts/GenerativeProject.sol",
  "abi": [
    {
      "inputs": [
        {
          "internalType": "address",
          "name": "operator",
          "type": "address"
        }
      ],
      "name": "OperatorNotAllowed",
      "type": "error"
    },
    {
      "anonymous": false,
      "inputs": [
        {
          "indexed": true,
          "internalType": "address",
          "name": "owner",
          "type": "address"
        },
        {
          "indexed": true,
          "internalType": "address",
          "name": "approved",
          "type": "address"
        },
        {
          "indexed": true,
          "internalType": "uint256",
          "name": "tokenId",
          "type": "uint256"
        }
      ],
      "name": "Approval",
      "type": "event"
    },
    {
      "anonymous": false,
      "inputs": [
        {
          "indexed": true,
          "internalType": "address",
          "name": "owner",
          "type": "address"
        },
        {
          "indexed": true,
          "internalType": "address",
          "name": "operator",
          "type": "address"
        },
        {
          "indexed": false,
          "internalType": "bool",
          "name": "approved",
          "type": "bool"
        }
      ],
      "name": "ApprovalForAll",
      "type": "event"
    },
    {
      "anonymous": false,
      "inputs": [
        {
          "indexed": false,
          "internalType": "uint8",
          "name": "version",
          "type": "uint8"
        }
      ],
      "name": "Initialized",
      "type": "event"
    },
    {
      "anonymous": false,
      "inputs": [
        {
          "indexed": true,
          "internalType": "address",
          "name": "previousOwner",
          "type": "address"
        },
        {
          "indexed": true,
          "internalType": "address",
          "name": "newOwner",
          "type": "address"
        }
      ],
      "name": "OwnershipTransferred",
      "type": "event"
    },
    {
      "anonymous": false,
      "inputs": [
        {
          "indexed": false,
          "internalType": "address",
          "name": "account",
          "type": "address"
        }
      ],
      "name": "Paused",
      "type": "event"
    },
    {
      "anonymous": false,
      "inputs": [
        {
          "indexed": true,
          "internalType": "address",
          "name": "from",
          "type": "address"
        },
        {
          "indexed": true,
          "internalType": "address",
          "name": "to",
          "type": "address"
        },
        {
          "indexed": true,
          "internalType": "uint256",
          "name": "tokenId",
          "type": "uint256"
        }
      ],
      "name": "Transfer",
      "type": "event"
    },
    {
      "anonymous": false,
      "inputs": [
        {
          "indexed": false,
          "internalType": "address",
          "name": "account",
          "type": "address"
        }
      ],
      "name": "Unpaused",
      "type": "event"
    },
    {
      "inputs": [],
      "name": "_admin",
      "outputs": [
        {
          "internalType": "address",
          "name": "",
          "type": "address"
        }
      ],
      "stateMutability": "view",
      "type": "function"
    },
    {
      "inputs": [],
      "name": "_paramsAddress",
      "outputs": [
        {
          "internalType": "address",
          "name": "",
          "type": "address"
        }
      ],
      "stateMutability": "view",
      "type": "function"
    },
    {
      "inputs": [],
      "name": "_projectDataContextAddr",
      "outputs": [
        {
          "internalType": "address",
          "name": "",
          "type": "address"
        }
      ],
      "stateMutability": "view",
      "type": "function"
    },
    {
      "inputs": [],
      "name": "_randomizerAddr",
      "outputs": [
        {
          "internalType": "address",
          "name": "",
          "type": "address"
        }
      ],
      "stateMutability": "view",
      "type": "function"
    },
    {
      "inputs": [
        {
          "internalType": "uint256",
          "name": "projectId",
          "type": "uint256"
        },
        {
          "internalType": "string",
          "name": "_script",
          "type": "string"
        }
      ],
      "name": "addProjectScript",
      "outputs": [],
      "stateMutability": "nonpayable",
      "type": "function"
    },
    {
      "inputs": [
        {
          "internalType": "address",
          "name": "to",
          "type": "address"
        },
        {
          "internalType": "uint256",
          "name": "tokenId",
          "type": "uint256"
        }
      ],
      "name": "approve",
      "outputs": [],
      "stateMutability": "nonpayable",
      "type": "function"
    },
    {
      "inputs": [
        {
          "internalType": "address",
          "name": "owner",
          "type": "address"
        }
      ],
      "name": "balanceOf",
      "outputs": [
        {
          "internalType": "uint256",
          "name": "",
          "type": "uint256"
        }
      ],
      "stateMutability": "view",
      "type": "function"
    },
    {
      "inputs": [
        {
          "internalType": "address",
          "name": "newAdm",
          "type": "address"
        }
      ],
      "name": "changeAdmin",
      "outputs": [],
      "stateMutability": "nonpayable",
      "type": "function"
    },
    {
      "inputs": [
        {
          "internalType": "address",
          "name": "newAddr",
          "type": "address"
        }
      ],
      "name": "changeDataContextAddr",
      "outputs": [],
      "stateMutability": "nonpayable",
      "type": "function"
    },
    {
      "inputs": [
        {
          "internalType": "address",
          "name": "newAddr",
          "type": "address"
        }
      ],
      "name": "changeParamAddr",
      "outputs": [],
      "stateMutability": "nonpayable",
      "type": "function"
    },
    {
      "inputs": [
        {
          "internalType": "address",
          "name": "newAddr",
          "type": "address"
        }
      ],
      "name": "changeRandomizerAddr",
      "outputs": [],
      "stateMutability": "nonpayable",
      "type": "function"
    },
    {
      "inputs": [
        {
          "internalType": "uint256",
          "name": "projectId",
          "type": "uint256"
        }
      ],
      "name": "completeProject",
      "outputs": [],
      "stateMutability": "nonpayable",
      "type": "function"
    },
    {
      "inputs": [
        {
          "internalType": "uint256",
          "name": "projectId",
          "type": "uint256"
        },
        {
          "internalType": "uint256",
          "name": "scriptIndex",
          "type": "uint256"
        }
      ],
      "name": "deleteProjectScript",
      "outputs": [],
      "stateMutability": "nonpayable",
      "type": "function"
    },
    {
      "inputs": [
        {
          "internalType": "uint256",
          "name": "tokenId",
          "type": "uint256"
        }
      ],
      "name": "getApproved",
      "outputs": [
        {
          "internalType": "address",
          "name": "",
          "type": "address"
        }
      ],
      "stateMutability": "view",
      "type": "function"
    },
    {
      "inputs": [
        {
          "internalType": "string",
          "name": "name",
          "type": "string"
        },
        {
          "internalType": "string",
          "name": "symbol",
          "type": "string"
        },
        {
          "internalType": "address",
          "name": "admin",
          "type": "address"
        },
        {
          "internalType": "address",
          "name": "paramsAddress",
          "type": "address"
        },
        {
          "internalType": "address",
          "name": "randomizerAddr",
          "type": "address"
        },
        {
          "internalType": "address",
          "name": "projectDataContextAddr",
          "type": "address"
        }
      ],
      "name": "initialize",
      "outputs": [],
      "stateMutability": "nonpayable",
      "type": "function"
    },
    {
      "inputs": [
        {
          "internalType": "address",
          "name": "owner",
          "type": "address"
        },
        {
          "internalType": "address",
          "name": "operator",
          "type": "address"
        }
      ],
      "name": "isApprovedForAll",
      "outputs": [
        {
          "internalType": "bool",
          "name": "",
          "type": "bool"
        }
      ],
      "stateMutability": "view",
      "type": "function"
    },
    {
      "inputs": [
        {
          "components": [
            {
              "internalType": "uint24",
              "name": "_maxSupply",
              "type": "uint24"
            },
            {
              "internalType": "uint24",
              "name": "_limit",
              "type": "uint24"
            },
            {
              "internalType": "uint256",
              "name": "_mintPrice",
              "type": "uint256"
            },
            {
              "internalType": "address",
              "name": "_mintPriceAddr",
              "type": "address"
            },
            {
              "internalType": "string",
              "name": "_name",
              "type": "string"
            },
            {
              "internalType": "string",
              "name": "_creator",
              "type": "string"
            },
            {
              "internalType": "address",
              "name": "_creatorAddr",
              "type": "address"
            },
            {
              "internalType": "string",
              "name": "_license",
              "type": "string"
            },
            {
              "internalType": "string",
              "name": "_desc",
              "type": "string"
            },
            {
              "internalType": "string",
              "name": "_image",
              "type": "string"
            },
            {
              "components": [
                {
                  "internalType": "string",
                  "name": "_web",
                  "type": "string"
                },
                {
                  "internalType": "string",
                  "name": "_twitter",
                  "type": "string"
                },
                {
                  "internalType": "string",
                  "name": "_discord",
                  "type": "string"
                },
                {
                  "internalType": "string",
                  "name": "_medium",
                  "type": "string"
                },
                {
                  "internalType": "string",
                  "name": "_instagram",
                  "type": "string"
                }
              ],
              "internalType": "struct NFTProject.ProjectSocial",
              "name": "_social",
              "type": "tuple"
            },
            {
              "internalType": "string[]",
              "name": "_scriptType",
              "type": "string[]"
            },
            {
              "internalType": "string[]",
              "name": "_scripts",
              "type": "string[]"
            },
            {
              "internalType": "string",
              "name": "_styles",
              "type": "string"
            },
            {
              "internalType": "uint256",
              "name": "_completeTime",
              "type": "uint256"
            },
            {
              "internalType": "address",
              "name": "_genNFTAddr",
              "type": "address"
            },
            {
              "internalType": "string",
              "name": "_itemDesc",
              "type": "string"
            }
          ],
          "internalType": "struct NFTProject.Project",
          "name": "project",
          "type": "tuple"
        },
        {
          "internalType": "address[]",
          "name": "reserves",
          "type": "address[]"
        },
        {
          "internalType": "bool",
          "name": "disable",
          "type": "bool"
        },
        {
          "internalType": "uint256",
          "name": "openingTime",
          "type": "uint256"
        },
        {
          "internalType": "uint256",
          "name": "royalty",
          "type": "uint256"
        }
      ],
      "name": "mint",
      "outputs": [
        {
          "internalType": "uint256",
          "name": "",
          "type": "uint256"
        }
      ],
      "stateMutability": "payable",
      "type": "function"
    },
    {
      "inputs": [],
      "name": "name",
      "outputs": [
        {
          "internalType": "string",
          "name": "",
          "type": "string"
        }
      ],
      "stateMutability": "view",
      "type": "function"
    },
    {
      "inputs": [],
      "name": "owner",
      "outputs": [
        {
          "internalType": "address",
          "name": "",
          "type": "address"
        }
      ],
      "stateMutability": "view",
      "type": "function"
    },
    {
      "inputs": [
        {
          "internalType": "uint256",
          "name": "tokenId",
          "type": "uint256"
        }
      ],
      "name": "ownerOf",
      "outputs": [
        {
          "internalType": "address",
          "name": "",
          "type": "address"
        }
      ],
      "stateMutability": "view",
      "type": "function"
    },
    {
      "inputs": [],
      "name": "paused",
      "outputs": [
        {
          "internalType": "bool",
          "name": "",
          "type": "bool"
        }
      ],
      "stateMutability": "view",
      "type": "function"
    },
    {
      "inputs": [
        {
          "internalType": "uint256",
          "name": "projectId",
          "type": "uint256"
        }
      ],
      "name": "projectDetails",
      "outputs": [
        {
          "components": [
            {
              "internalType": "uint24",
              "name": "_maxSupply",
              "type": "uint24"
            },
            {
              "internalType": "uint24",
              "name": "_limit",
              "type": "uint24"
            },
            {
              "internalType": "uint256",
              "name": "_mintPrice",
              "type": "uint256"
            },
            {
              "internalType": "address",
              "name": "_mintPriceAddr",
              "type": "address"
            },
            {
              "internalType": "string",
              "name": "_name",
              "type": "string"
            },
            {
              "internalType": "string",
              "name": "_creator",
              "type": "string"
            },
            {
              "internalType": "address",
              "name": "_creatorAddr",
              "type": "address"
            },
            {
              "internalType": "string",
              "name": "_license",
              "type": "string"
            },
            {
              "internalType": "string",
              "name": "_desc",
              "type": "string"
            },
            {
              "internalType": "string",
              "name": "_image",
              "type": "string"
            },
            {
              "components": [
                {
                  "internalType": "string",
                  "name": "_web",
                  "type": "string"
                },
                {
                  "internalType": "string",
                  "name": "_twitter",
                  "type": "string"
                },
                {
                  "internalType": "string",
                  "name": "_discord",
                  "type": "string"
                },
                {
                  "internalType": "string",
                  "name": "_medium",
                  "type": "string"
                },
                {
                  "internalType": "string",
                  "name": "_instagram",
                  "type": "string"
                }
              ],
              "internalType": "struct NFTProject.ProjectSocial",
              "name": "_social",
              "type": "tuple"
            },
            {
              "internalType": "string[]",
              "name": "_scriptType",
              "type": "string[]"
            },
            {
              "internalType": "string[]",
              "name": "_scripts",
              "type": "string[]"
            },
            {
              "internalType": "string",
              "name": "_styles",
              "type": "string"
            },
            {
              "internalType": "uint256",
              "name": "_completeTime",
              "type": "uint256"
            },
            {
              "internalType": "address",
              "name": "_genNFTAddr",
              "type": "address"
            },
            {
              "internalType": "string",
              "name": "_itemDesc",
              "type": "string"
            }
          ],
          "internalType": "struct NFTProject.Project",
          "name": "project",
          "type": "tuple"
        }
      ],
      "stateMutability": "view",
      "type": "function"
    },
    {
      "inputs": [
        {
          "internalType": "uint256",
          "name": "projectId",
          "type": "uint256"
        }
      ],
      "name": "projectStatus",
      "outputs": [
        {
          "internalType": "bool",
          "name": "enable",
          "type": "bool"
        }
      ],
      "stateMutability": "view",
      "type": "function"
    },
    {
      "inputs": [],
      "name": "renounceOwnership",
      "outputs": [],
      "stateMutability": "nonpayable",
      "type": "function"
    },
    {
      "inputs": [
        {
          "internalType": "uint256",
          "name": "projectId",
          "type": "uint256"
        },
        {
          "internalType": "uint256",
          "name": "_salePrice",
          "type": "uint256"
        }
      ],
      "name": "royaltyInfo",
      "outputs": [
        {
          "internalType": "address",
          "name": "receiver",
          "type": "address"
        },
        {
          "internalType": "uint256",
          "name": "royaltyAmount",
          "type": "uint256"
        }
      ],
      "stateMutability": "view",
      "type": "function"
    },
    {
      "inputs": [
        {
          "internalType": "address",
          "name": "from",
          "type": "address"
        },
        {
          "internalType": "address",
          "name": "to",
          "type": "address"
        },
        {
          "internalType": "uint256",
          "name": "tokenId",
          "type": "uint256"
        }
      ],
      "name": "safeTransferFrom",
      "outputs": [],
      "stateMutability": "nonpayable",
      "type": "function"
    },
    {
      "inputs": [
        {
          "internalType": "address",
          "name": "from",
          "type": "address"
        },
        {
          "internalType": "address",
          "name": "to",
          "type": "address"
        },
        {
          "internalType": "uint256",
          "name": "tokenId",
          "type": "uint256"
        },
        {
          "internalType": "bytes",
          "name": "data",
          "type": "bytes"
        }
      ],
      "name": "safeTransferFrom",
      "outputs": [],
      "stateMutability": "nonpayable",
      "type": "function"
    },
    {
      "inputs": [
        {
          "internalType": "address",
          "name": "operator",
          "type": "address"
        },
        {
          "internalType": "bool",
          "name": "approved",
          "type": "bool"
        }
      ],
      "name": "setApprovalForAll",
      "outputs": [],
      "stateMutability": "nonpayable",
      "type": "function"
    },
    {
      "inputs": [
        {
          "internalType": "uint256",
          "name": "projectId",
          "type": "uint256"
        },
        {
          "internalType": "bool",
          "name": "enable",
          "type": "bool"
        }
      ],
      "name": "setProjectStatus",
      "outputs": [],
      "stateMutability": "nonpayable",
      "type": "function"
    },
    {
      "inputs": [
        {
          "internalType": "bytes4",
          "name": "interfaceId",
          "type": "bytes4"
        }
      ],
      "name": "supportsInterface",
      "outputs": [
        {
          "internalType": "bool",
          "name": "",
          "type": "bool"
        }
      ],
      "stateMutability": "view",
      "type": "function"
    },
    {
      "inputs": [],
      "name": "symbol",
      "outputs": [
        {
          "internalType": "string",
          "name": "",
          "type": "string"
        }
      ],
      "stateMutability": "view",
      "type": "function"
    },
    {
      "inputs": [
        {
          "internalType": "uint256",
          "name": "projectId",
          "type": "uint256"
        }
      ],
      "name": "tokenURI",
      "outputs": [
        {
          "internalType": "string",
          "name": "result",
          "type": "string"
        }
      ],
      "stateMutability": "view",
      "type": "function"
    },
    {
      "inputs": [
        {
          "internalType": "address",
          "name": "from",
          "type": "address"
        },
        {
          "internalType": "address",
          "name": "to",
          "type": "address"
        },
        {
          "internalType": "uint256",
          "name": "tokenId",
          "type": "uint256"
        }
      ],
      "name": "transferFrom",
      "outputs": [],
      "stateMutability": "nonpayable",
      "type": "function"
    },
    {
      "inputs": [
        {
          "internalType": "address",
          "name": "newOwner",
          "type": "address"
        }
      ],
      "name": "transferOwnership",
      "outputs": [],
      "stateMutability": "nonpayable",
      "type": "function"
    },
    {
      "inputs": [
        {
          "internalType": "uint256",
          "name": "projectId",
          "type": "uint256"
        },
        {
          "internalType": "string",
          "name": "creatorName",
          "type": "string"
        }
      ],
      "name": "updateProjectCreatorName",
      "outputs": [],
      "stateMutability": "nonpayable",
      "type": "function"
    },
    {
      "inputs": [
        {
          "internalType": "uint256",
          "name": "projectId",
          "type": "uint256"
        },
        {
          "internalType": "string",
          "name": "license",
          "type": "string"
        }
      ],
      "name": "updateProjectLicense",
      "outputs": [],
      "stateMutability": "nonpayable",
      "type": "function"
    },
    {
      "inputs": [
        {
          "internalType": "uint256",
          "name": "projectId",
          "type": "uint256"
        },
        {
          "internalType": "string",
          "name": "projectName",
          "type": "string"
        }
      ],
      "name": "updateProjectName",
      "outputs": [],
      "stateMutability": "nonpayable",
      "type": "function"
    },
    {
      "inputs": [
        {
          "internalType": "uint256",
          "name": "projectId",
          "type": "uint256"
        },
        {
          "internalType": "uint256",
          "name": "scriptIndex",
          "type": "uint256"
        },
        {
          "internalType": "string",
          "name": "script",
          "type": "string"
        }
      ],
      "name": "updateProjectScript",
      "outputs": [],
      "stateMutability": "nonpayable",
      "type": "function"
    },
    {
      "inputs": [
        {
          "internalType": "uint256",
          "name": "projectId",
          "type": "uint256"
        },
        {
          "internalType": "string",
          "name": "scriptType",
          "type": "string"
        },
        {
          "internalType": "uint256",
          "name": "i",
          "type": "uint256"
        }
      ],
      "name": "updateProjectScriptType",
      "outputs": [],
      "stateMutability": "nonpayable",
      "type": "function"
    },
    {
      "inputs": [
        {
          "internalType": "uint256",
          "name": "projectId",
          "type": "uint256"
        },
        {
          "components": [
            {
              "internalType": "string",
              "name": "_web",
              "type": "string"
            },
            {
              "internalType": "string",
              "name": "_twitter",
              "type": "string"
            },
            {
              "internalType": "string",
              "name": "_discord",
              "type": "string"
            },
            {
              "internalType": "string",
              "name": "_medium",
              "type": "string"
            },
            {
              "internalType": "string",
              "name": "_instagram",
              "type": "string"
            }
          ],
          "internalType": "struct NFTProject.ProjectSocial",
          "name": "data",
          "type": "tuple"
        }
      ],
      "name": "updateProjectSocial",
      "outputs": [],
      "stateMutability": "nonpayable",
      "type": "function"
    },
    {
      "inputs": [
        {
          "internalType": "address",
          "name": "receiver",
          "type": "address"
        },
        {
          "internalType": "address",
          "name": "erc20Addr",
          "type": "address"
        },
        {
          "internalType": "uint256",
          "name": "amount",
          "type": "uint256"
        }
      ],
      "name": "withdraw",
      "outputs": [],
      "stateMutability": "nonpayable",
      "type": "function"
    }
  ],
  "bytecode": "0x608060405234801561001057600080fd5b5061554b806100206000396000f3fe6080604052600436106102465760003560e01c806366215eb411610139578063adfc7dae116100b6578063daf618001161007a578063daf61800146106ee578063e283d82f1461070e578063e56f2fe41461072e578063e985e9c51461074e578063f2fde38b14610797578063febfd6c3146107b757600080fd5b8063adfc7dae1461064d578063b1656ba31461066e578063b88d4fde1461068e578063c87b56dd146106ae578063d9caed12146106ce57600080fd5b80638e1ab777116100fd5780638e1ab777146105b85780638f283970146105d857806395d89b41146105f8578063a22cb4651461060d578063acad01241461062d57600080fd5b806366215eb41461051657806370a0823114610537578063715018a6146105575780638da5cb5b1461056c5780638dd91a561461058b57600080fd5b806325b75d68116101c75780634d3fcc1d1161018b5780634d3fcc1d1461047c57806350ac58921461049d578063575b57ea146104bd5780635c975abb146104de5780636352211e146104f657600080fd5b806325b75d68146103bd5780632a55205a146103dd5780633af6cd1e1461041c57806342842e0e1461043c578063472f1e021461045c57600080fd5b80630d1706731161020e5780630d1706731461031d578063166b74691461033d5780631ca9741b1461035d5780632245f1521461037d57806323b872dd1461039d57600080fd5b806301bc45c91461024b57806301ffc9a71461028957806306fdde03146102b9578063081812fc146102db578063095ea7b3146102fb575b600080fd5b34801561025757600080fd5b5061015f5461026c906001600160a01b031681565b6040516001600160a01b0390911681526020015b60405180910390f35b34801561029557600080fd5b506102a96102a4366004614358565b6107d7565b6040519015158152602001610280565b3480156102c557600080fd5b506102ce610829565b60405161028091906143cd565b3480156102e757600080fd5b5061026c6102f63660046143e0565b6108bb565b34801561030757600080fd5b5061031b610316366004614419565b6108e2565b005b34801561032957600080fd5b5061031b61033836600461455b565b6109fd565b34801561034957600080fd5b5061031b6103583660046145a1565b610b1b565b34801561036957600080fd5b5061031b6103783660046145c3565b610c0c565b34801561038957600080fd5b5061031b6103983660046143e0565b610ca0565b3480156103a957600080fd5b5061031b6103b83660046145e0565b610d51565b3480156103c957600080fd5b5061031b6103d836600461455b565b610ea7565b3480156103e957600080fd5b506103fd6103f83660046145a1565b610fc5565b604080516001600160a01b039093168352602083019190915201610280565b34801561042857600080fd5b5061031b61043736600461463a565b610ff6565b34801561044857600080fd5b5061031b6104573660046145e0565b6111c7565b34801561046857600080fd5b5061031b6104773660046145c3565b611312565b61048f61048a36600461486b565b6113a7565b604051908152602001610280565b3480156104a957600080fd5b506102a96104b83660046143e0565b6119f4565b3480156104c957600080fd5b506101625461026c906001600160a01b031681565b3480156104ea57600080fd5b5060975460ff166102a9565b34801561050257600080fd5b5061026c6105113660046143e0565b611adc565b34801561052257600080fd5b506101615461026c906001600160a01b031681565b34801561054357600080fd5b5061048f6105523660046145c3565b611b3c565b34801561056357600080fd5b5061031b611bc2565b34801561057857600080fd5b5061012d546001600160a01b031661026c565b34801561059757600080fd5b506105ab6105a63660046143e0565b611bd6565b6040516102809190614bb0565b3480156105c457600080fd5b5061031b6105d3366004614d83565b61255d565b3480156105e457600080fd5b5061031b6105f33660046145c3565b612727565b34801561060457600080fd5b506102ce6127bc565b34801561061957600080fd5b5061031b610628366004614dbf565b6127cb565b34801561063957600080fd5b5061031b61064836600461455b565b6127d6565b34801561065957600080fd5b506101605461026c906001600160a01b031681565b34801561067a57600080fd5b5061031b610689366004614ded565b6128bf565b34801561069a57600080fd5b5061031b6106a9366004614e3c565b6129b6565b3480156106ba57600080fd5b506102ce6106c93660046143e0565b612b0f565b3480156106da57600080fd5b5061031b6106e93660046145e0565b612bc9565b3480156106fa57600080fd5b5061031b610709366004614ebb565b612d25565b34801561071a57600080fd5b5061031b61072936600461455b565b612dff565b34801561073a57600080fd5b5061031b610749366004614f0a565b612f1d565b34801561075a57600080fd5b506102a9610769366004614fb8565b6001600160a01b039182166000908152606a6020908152604080832093909416825291909152205460ff1690565b3480156107a357600080fd5b5061031b6107b23660046145c3565b613120565b3480156107c357600080fd5b5061031b6107d23660046145c3565b613196565b60006001600160e01b031982166380ac58cd60e01b148061080857506001600160e01b03198216635b5e139f60e01b145b8061082357506301ffc9a760e01b6001600160e01b03198316145b92915050565b60606065805461083890614fe6565b80601f016020809104026020016040519081016040528092919081815260200182805461086490614fe6565b80156108b15780601f10610886576101008083540402835291602001916108b1565b820191906000526020600020905b81548152906001019060200180831161089457829003601f168201915b5050505050905090565b60006108c68261322b565b506000908152606960205260409020546001600160a01b031690565b60006108ed82611adc565b9050806001600160a01b0316836001600160a01b031614156109605760405162461bcd60e51b815260206004820152602160248201527f4552433732313a20617070726f76616c20746f2063757272656e74206f776e656044820152603960f91b60648201526084015b60405180910390fd5b336001600160a01b038216148061097c575061097c8133610769565b6109ee5760405162461bcd60e51b815260206004820152603d60248201527f4552433732313a20617070726f76652063616c6c6572206973206e6f7420746f60448201527f6b656e206f776e6572206f7220617070726f76656420666f7220616c6c0000006064820152608401610957565b6109f8838361327b565b505050565b61015f546001600160a01b0316331480610a315750600082815261016460205260409020600501546001600160a01b031633145b6040518060400160405280600381526020016231303160e81b81525090610a6b5760405162461bcd60e51b815260040161095791906143cd565b50610a75826132e9565b6040518060400160405280600381526020016232303960e81b81525090610aaf5760405162461bcd60e51b815260040161095791906143cd565b506000828152610164602090815260409091208251610ad692600390920191840190614120565b5080604051610ae59190615021565b6040519081900381209083907fdaa562afcb682535ccff278b5881e249435b61d592905fa2fe0f33a9a363e11b90600090a35050565b61015f546001600160a01b0316331480610b4f5750600082815261016460205260409020600501546001600160a01b031633145b6040518060400160405280600381526020016231303160e81b81525090610b895760405162461bcd60e51b815260040161095791906143cd565b50610b93826132e9565b6040518060400160405280600381526020016232303960e81b81525090610bcd5760405162461bcd60e51b815260040161095791906143cd565b50600082815261016460205260409020600f01805482908110610bf257610bf261503d565b906000526020600020016000610c0891906141a4565b5050565b61015f546001600160a01b031633148015610c2f57506001600160a01b03811615155b6040518060400160405280600381526020016231303160e81b81525090610c695760405162461bcd60e51b815260040161095791906143cd565b50610161546001600160a01b03828116911614610c9d5761016180546001600160a01b0319166001600160a01b0383161790555b50565b600081815261016460205260409020601201546001600160a01b03163314610cc757600080fd5b610cd0816132e9565b6040518060400160405280600381526020016232303960e81b81525090610d0a5760405162461bcd60e51b815260040161095791906143cd565b50600081815261016460205260408082204260119091018190559051909183917f28259f066448a50458eb3d217c396dbd1f78c8626a2a252ddc0d34ab906b54239190a350565b826daaeb6d7670e522a718067333cd4e3b15610e96576001600160a01b038116331415610d8857610d83848484613306565b610ea1565b604051633185c44d60e21b81526daaeb6d7670e522a718067333cd4e9063c617113490610dbb9030903390600401615053565b602060405180830381865afa158015610dd8573d6000803e3d6000fd5b505050506040513d601f19601f82011682018060405250810190610dfc919061506d565b8015610e775750604051633185c44d60e21b81526daaeb6d7670e522a718067333cd4e9063c617113490610e369030908590600401615053565b602060405180830381865afa158015610e53573d6000803e3d6000fd5b505050506040513d601f19601f82011682018060405250810190610e77919061506d565b610e9657604051633b79c77360e21b8152336004820152602401610957565b610ea1848484613306565b50505050565b61015f546001600160a01b0316331480610edb5750600082815261016460205260409020600501546001600160a01b031633145b6040518060400160405280600381526020016231303160e81b81525090610f155760405162461bcd60e51b815260040161095791906143cd565b50610f1f826132e9565b6040518060400160405280600381526020016232303960e81b81525090610f595760405162461bcd60e51b815260040161095791906143cd565b506000828152610164602090815260409091208251610f8092600690920191840190614120565b5080604051610f8f9190615021565b6040519081900381209083907f37e7d36d9467fef9204db596ec8ad600a5f42d03309d7936daed5b4aedf9a16690600090a35050565b61015f546001600160a01b03166000612710610fe3846101f46150a0565b610fed91906150bf565b90509250929050565b610fff826132e9565b6040518060400160405280600381526020016232303960e81b815250906110395760405162461bcd60e51b815260040161095791906143cd565b5061015f546001600160a01b031633148061106e5750600082815261016460205260409020600501546001600160a01b031633145b6040518060400160405280600381526020016231303160e81b815250906110a85760405162461bcd60e51b815260040161095791906143cd565b50600082815261016460209081526040918290206012015482516302734eab60e51b815292516001600160a01b0390911692841515928492634e69d5609260048082019392918290030181865afa158015611107573d6000803e3d6000fd5b505050506040513d601f19601f8201168201806040525081019061112b919061506d565b1515141561113857600080fd5b6040516317103dbd60e21b815282151560048201526001600160a01b03821690635c40f6f490602401600060405180830381600087803b15801561117b57600080fd5b505af115801561118f573d6000803e3d6000fd5b505060405184151592508591507ff6c6b5ef8b8f3bb25af69bda9a347568bfc16d17d1f6e911de88f63a08994af990600090a3505050565b826daaeb6d7670e522a718067333cd4e3b15611307576001600160a01b0381163314156111f957610d83848484613337565b604051633185c44d60e21b81526daaeb6d7670e522a718067333cd4e9063c61711349061122c9030903390600401615053565b602060405180830381865afa158015611249573d6000803e3d6000fd5b505050506040513d601f19601f8201168201806040525081019061126d919061506d565b80156112e85750604051633185c44d60e21b81526daaeb6d7670e522a718067333cd4e9063c6171134906112a79030908590600401615053565b602060405180830381865afa1580156112c4573d6000803e3d6000fd5b505050506040513d601f19601f820116820180604052508101906112e8919061506d565b61130757604051633b79c77360e21b8152336004820152602401610957565b610ea1848484613337565b61015f546001600160a01b03163314801561133557506001600160a01b03811615155b6040518060400160405280600381526020016231303160e81b8152509061136f5760405162461bcd60e51b815260040161095791906143cd565b50610162546001600160a01b03828116911614610c9d5761016280546001600160a01b0383166001600160a01b031990911617905550565b60006113b1613352565b60038660800151511180156113cb575060038660a0015151115b6040518060400160405280600381526020016203230360ec1b815250906114055760405162461bcd60e51b815260040161095791906143cd565b50855162ffffff16158015906114265750620f4240866000015162ffffff16105b801561143b57506000866020015162ffffff16115b80156114595750856000015162ffffff16866020015162ffffff1611155b801561146757506127108211155b604051806040016040528060038152602001620c8c0d60ea1b815250906114a15760405162461bcd60e51b815260040161095791906143cd565b5060c086015160408051808201909152600381526203130360ec1b6020820152906001600160a01b03166114e85760405162461bcd60e51b815260040161095791906143cd565b5061016380549060006114fa836150e1565b9091555050610160546001600160a01b03166115146133ac565b610163546000908152610164602090815260409182902089518154838c015162ffffff90811663010000000265ffffffffffff1990921692169190911717815591890151600183015560608901516002830180546001600160a01b039092166001600160a01b0319909216919091179055608089015180518a93926115a0926003850192910190614120565b5060a082015180516115bc916004840191602090910190614120565b5060c08201516005820180546001600160a01b0319166001600160a01b0390921691909117905560e082015180516115fe916006840191602090910190614120565b50610100820151805161161b916007840191602090910190614120565b506101208201518051611638916008840191602090910190614120565b5061014082015180518051600984019161165791839160200190614120565b5060208281015180516116709260018501920190614120565b506040820151805161168c916002840191602090910190614120565b50606082015180516116a8916003840191602090910190614120565b50608082015180516116c4916004840191602090910190614120565b50505061016082015180516116e391600e8401916020909101906141de565b50610180820151805161170091600f8401916020909101906141de565b506101a0820151805161171d916010840191602090910190614120565b506101c082015160118201556101e08201516012820180546001600160a01b0319166001600160a01b03909216919091179055610200820151805161176c916013840191602090910190614120565b509050506117818760c001516101635461358f565b604080518082018252601781527f47454e455241544956455f4e46545f54454d504c4154450000000000000000006020820152905163bf40fac160e01b815260009161182b916001600160a01b0385169163bf40fac1916117e591906004016143cd565b602060405180830381865afa158015611802573d6000803e3d6000fd5b505050506040513d601f19601f8201168201806040525081019061182691906150fc565b6135a9565b905080610164600061016354815260200190815260200160002060120160006101000a8154816001600160a01b0302191690836001600160a01b031602179055506000819050806001600160a01b031663eb03558a604051806101600160405280306001600160a01b031681526020016101635481526020018c6000015162ffffff1681526020018c6020015162ffffff168152602001600062ffffff168152602001600062ffffff1681526020018c60a0015181526020018c6040015181526020018c606001516001600160a01b031681526020018c6080015181526020016040518060400160405280600081526020018b81525081525061015f60009054906101000a90046001600160a01b031661016060009054906101000a90046001600160a01b031661016160009054906101000a90046001600160a01b031661016260009054906101000a90046001600160a01b03168e8e8d6040518963ffffffff1660e01b81526004016119a698979695949392919061515d565b600060405180830381600087803b1580156119c057600080fd5b505af11580156119d4573d6000803e3d6000fd5b505050506101635493505050506119eb600160fb55565b95945050505050565b60006119ff826132e9565b6040518060400160405280600381526020016232303960e81b81525090611a395760405162461bcd60e51b815260040161095791906143cd565b50600082815261016460209081526040918290206012015482516302734eab60e51b815292516001600160a01b03909116928392634e69d560926004808401938290030181865afa158015611a92573d6000803e3d6000fd5b505050506040513d601f19601f82011682018060405250810190611ab6919061506d565b9150818015611ad5575060008381526101646020526040902060110154155b9392505050565b6000818152606760205260408120546001600160a01b0316806108235760405162461bcd60e51b8152602060048201526018602482015277115490cdcc8c4e881a5b9d985b1a59081d1bdad95b88125160421b6044820152606401610957565b60006001600160a01b038216611ba65760405162461bcd60e51b815260206004820152602960248201527f4552433732313a2061646472657373207a65726f206973206e6f7420612076616044820152683634b21037bbb732b960b91b6064820152608401610957565b506001600160a01b031660009081526068602052604090205490565b611bca61364a565b611bd460006136a5565b565b611bde614237565b611be7826132e9565b6040518060400160405280600381526020016232303960e81b81525090611c215760405162461bcd60e51b815260040161095791906143cd565b5060008281526101646020908152604091829020825161022081018452815462ffffff80821683526301000000909104169281019290925260018101549282019290925260028201546001600160a01b03166060820152600382018054919291608084019190611c9090614fe6565b80601f0160208091040260200160405190810160405280929190818152602001828054611cbc90614fe6565b8015611d095780601f10611cde57610100808354040283529160200191611d09565b820191906000526020600020905b815481529060010190602001808311611cec57829003601f168201915b50505050508152602001600482018054611d2290614fe6565b80601f0160208091040260200160405190810160405280929190818152602001828054611d4e90614fe6565b8015611d9b5780601f10611d7057610100808354040283529160200191611d9b565b820191906000526020600020905b815481529060010190602001808311611d7e57829003601f168201915b505050918352505060058201546001600160a01b03166020820152600682018054604090920191611dcb90614fe6565b80601f0160208091040260200160405190810160405280929190818152602001828054611df790614fe6565b8015611e445780601f10611e1957610100808354040283529160200191611e44565b820191906000526020600020905b815481529060010190602001808311611e2757829003601f168201915b50505050508152602001600782018054611e5d90614fe6565b80601f0160208091040260200160405190810160405280929190818152602001828054611e8990614fe6565b8015611ed65780601f10611eab57610100808354040283529160200191611ed6565b820191906000526020600020905b815481529060010190602001808311611eb957829003601f168201915b50505050508152602001600882018054611eef90614fe6565b80601f0160208091040260200160405190810160405280929190818152602001828054611f1b90614fe6565b8015611f685780601f10611f3d57610100808354040283529160200191611f68565b820191906000526020600020905b815481529060010190602001808311611f4b57829003601f168201915b50505050508152602001600982016040518060a0016040529081600082018054611f9190614fe6565b80601f0160208091040260200160405190810160405280929190818152602001828054611fbd90614fe6565b801561200a5780601f10611fdf5761010080835404028352916020019161200a565b820191906000526020600020905b815481529060010190602001808311611fed57829003601f168201915b5050505050815260200160018201805461202390614fe6565b80601f016020809104026020016040519081016040528092919081815260200182805461204f90614fe6565b801561209c5780601f106120715761010080835404028352916020019161209c565b820191906000526020600020905b81548152906001019060200180831161207f57829003601f168201915b505050505081526020016002820180546120b590614fe6565b80601f01602080910402602001604051908101604052809291908181526020018280546120e190614fe6565b801561212e5780601f106121035761010080835404028352916020019161212e565b820191906000526020600020905b81548152906001019060200180831161211157829003601f168201915b5050505050815260200160038201805461214790614fe6565b80601f016020809104026020016040519081016040528092919081815260200182805461217390614fe6565b80156121c05780601f10612195576101008083540402835291602001916121c0565b820191906000526020600020905b8154815290600101906020018083116121a357829003601f168201915b505050505081526020016004820180546121d990614fe6565b80601f016020809104026020016040519081016040528092919081815260200182805461220590614fe6565b80156122525780601f1061222757610100808354040283529160200191612252565b820191906000526020600020905b81548152906001019060200180831161223557829003601f168201915b5050505050815250508152602001600e8201805480602002602001604051908101604052809291908181526020016000905b828210156123305783829060005260206000200180546122a390614fe6565b80601f01602080910402602001604051908101604052809291908181526020018280546122cf90614fe6565b801561231c5780601f106122f15761010080835404028352916020019161231c565b820191906000526020600020905b8154815290600101906020018083116122ff57829003601f168201915b505050505081526020019060010190612284565b505050508152602001600f8201805480602002602001604051908101604052809291908181526020016000905b8282101561240957838290600052602060002001805461237c90614fe6565b80601f01602080910402602001604051908101604052809291908181526020018280546123a890614fe6565b80156123f55780601f106123ca576101008083540402835291602001916123f5565b820191906000526020600020905b8154815290600101906020018083116123d857829003601f168201915b50505050508152602001906001019061235d565b50505050815260200160108201805461242190614fe6565b80601f016020809104026020016040519081016040528092919081815260200182805461244d90614fe6565b801561249a5780601f1061246f5761010080835404028352916020019161249a565b820191906000526020600020905b81548152906001019060200180831161247d57829003601f168201915b50505091835250506011820154602082015260128201546001600160a01b031660408201526013820180546060909201916124d490614fe6565b80601f016020809104026020016040519081016040528092919081815260200182805461250090614fe6565b801561254d5780601f106125225761010080835404028352916020019161254d565b820191906000526020600020905b81548152906001019060200180831161253057829003601f168201915b5050505050815250509050919050565b61015f546001600160a01b03163314806125915750600082815261016460205260409020600501546001600160a01b031633145b6040518060400160405280600381526020016231303160e81b815250906125cb5760405162461bcd60e51b815260040161095791906143cd565b506125d5826132e9565b6040518060400160405280600381526020016232303960e81b8152509061260f5760405162461bcd60e51b815260040161095791906143cd565b5060408082015160008481526101646020908152929020815161263c93600b909201929190910190614120565b506020808201516000848152610164835260409020815161266693600a9092019290910190614120565b506080810151600083815261016460209081526040909120825161269393600d9092019290910190614120565b50606081015160008381526101646020908152604090912082516126c093600c9092019290910190614120565b50805160008381526101646020908152604090912082516126ea9360099092019290910190614120565b50817fac9eecd527183c9d33cb010c7110e35faa09868c77e3cf66465a67079dca197c8260405161271b91906152ce565b60405180910390a25050565b61015f546001600160a01b03163314801561274a57506001600160a01b03811615155b6040518060400160405280600381526020016231303160e81b815250906127845760405162461bcd60e51b815260040161095791906143cd565b5061015f546001600160a01b03828116911614610c9d5761015f80546001600160a01b0383166001600160a01b031990911617905550565b60606066805461083890614fe6565b610c083383836136f8565b61015f546001600160a01b031633148061280a5750600082815261016460205260409020600501546001600160a01b031633145b6040518060400160405280600381526020016231303160e81b815250906128445760405162461bcd60e51b815260040161095791906143cd565b5061284e826132e9565b6040518060400160405280600381526020016232303960e81b815250906128885760405162461bcd60e51b815260040161095791906143cd565b506000828152610164602090815260408220600f0180546001810182559083529181902083516109f8939190910191840190614120565b61015f546001600160a01b03163314806128f35750600083815261016460205260409020600501546001600160a01b031633145b6040518060400160405280600381526020016231303160e81b8152509061292d5760405162461bcd60e51b815260040161095791906143cd565b50612937836132e9565b6040518060400160405280600381526020016232303960e81b815250906129715760405162461bcd60e51b815260040161095791906143cd565b50600083815261016460205260409020600f018054829190849081106129995761299961503d565b906000526020600020019080519060200190610ea1929190614120565b836daaeb6d7670e522a718067333cd4e3b15612afc576001600160a01b0381163314156129ee576129e9858585856137c7565b612b08565b604051633185c44d60e21b81526daaeb6d7670e522a718067333cd4e9063c617113490612a219030903390600401615053565b602060405180830381865afa158015612a3e573d6000803e3d6000fd5b505050506040513d601f19601f82011682018060405250810190612a62919061506d565b8015612add5750604051633185c44d60e21b81526daaeb6d7670e522a718067333cd4e9063c617113490612a9c9030908590600401615053565b602060405180830381865afa158015612ab9573d6000803e3d6000fd5b505050506040513d601f19601f82011682018060405250810190612add919061506d565b612afc57604051633b79c77360e21b8152336004820152602401610957565b612b08858585856137c7565b5050505050565b6060612b1a826132e9565b6040518060400160405280600381526020016232303960e81b81525090612b545760405162461bcd60e51b815260040161095791906143cd565b506101625460405163079ebc6f60e41b8152600481018490526001600160a01b039091169081906379ebc6f090602401600060405180830381865afa158015612ba1573d6000803e3d6000fd5b505050506040513d6000823e601f3d908101601f19168201604052611ad591908101906152e1565b612bd1613352565b61015f5460408051808201909152600381526231303160e81b6020820152906001600160a01b03163314612c185760405162461bcd60e51b815260040161095791906143cd565b5060006001600160a01b038316612c995781471015612c3657600080fd5b6040516001600160a01b038516908390600081818185875af1925050503d8060008114612c7f576040519150601f19603f3d011682016040523d82523d6000602084013e612c84565b606091505b50508091505080612c9457600080fd5b612d1a565b60405163a9059cbb60e01b81526001600160a01b0385811660048301526024820184905284919082169063a9059cbb906044016020604051808303816000875af1158015612ceb573d6000803e3d6000fd5b505050506040513d601f19601f82011682018060405250810190612d0f919061506d565b612d1857600080fd5b505b506109f8600160fb55565b61015f546001600160a01b0316331480612d595750600083815261016460205260409020600501546001600160a01b031633145b6040518060400160405280600381526020016231303160e81b81525090612d935760405162461bcd60e51b815260040161095791906143cd565b50612d9d836132e9565b6040518060400160405280600381526020016232303960e81b81525090612dd75760405162461bcd60e51b815260040161095791906143cd565b50600083815261016460205260409020600e018054839190839081106129995761299961503d565b61015f546001600160a01b0316331480612e335750600082815261016460205260409020600501546001600160a01b031633145b6040518060400160405280600381526020016231303160e81b81525090612e6d5760405162461bcd60e51b815260040161095791906143cd565b50612e77826132e9565b6040518060400160405280600381526020016232303960e81b81525090612eb15760405162461bcd60e51b815260040161095791906143cd565b506000828152610164602090815260409091208251612ed892600490920191840190614120565b5080604051612ee79190615021565b6040519081900381209083907f0659e01d131efb672ee6f7f79276247f0e1a8ad1731616056a9e671caa57b41090600090a35050565b600054610100900460ff1615808015612f3d5750600054600160ff909116105b80612f575750303b158015612f57575060005460ff166001145b612fba5760405162461bcd60e51b815260206004820152602e60248201527f496e697469616c697a61626c653a20636f6e747261637420697320616c72656160448201526d191e481a5b9a5d1a585b1a5e995960921b6064820152608401610957565b6000805460ff191660011790558015612fdd576000805461ff0019166101001790555b60408051808201909152600381526203130360ec1b60208201526001600160a01b03861661301e5760405162461bcd60e51b815260040161095791906143cd565b5060408051808201909152600381526203130360ec1b60208201526001600160a01b0385166130605760405162461bcd60e51b815260040161095791906143cd565b5061016080546001600160a01b038087166001600160a01b03199283161790925561015f805488841690831617905561016180548684169083161790556101628054928516929091169190911790556130b987876137f9565b6130c161382a565b6130c9613859565b6130d1613888565b8015613117576000805461ff0019169055604051600181527f7f26b83ff96e1f2b6a682f133852f6798a09c465da95921460cefb38474024989060200160405180910390a15b50505050505050565b61312861364a565b6001600160a01b03811661318d5760405162461bcd60e51b815260206004820152602660248201527f4f776e61626c653a206e6577206f776e657220697320746865207a65726f206160448201526564647265737360d01b6064820152608401610957565b610c9d816136a5565b61015f546001600160a01b0316331480156131b957506001600160a01b03811615155b6040518060400160405280600381526020016231303160e81b815250906131f35760405162461bcd60e51b815260040161095791906143cd565b50610160546001600160a01b03828116911614610c9d5761016080546001600160a01b0383166001600160a01b031990911617905550565b613234816132e9565b610c9d5760405162461bcd60e51b8152602060048201526018602482015277115490cdcc8c4e881a5b9d985b1a59081d1bdad95b88125160421b6044820152606401610957565b600081815260696020526040902080546001600160a01b0319166001600160a01b03841690811790915581906132b082611adc565b6001600160a01b03167f8c5be1e5ebec7d5bd14f71427d1e84f3dd0314c0f7b2291e5b200ac8c7c3b92560405160405180910390a45050565b6000908152606760205260409020546001600160a01b0316151590565b61331033826138ce565b61332c5760405162461bcd60e51b81526004016109579061534e565b6109f883838361394d565b6109f8838383604051806020016040528060008152506129b6565b600260fb5414156133a55760405162461bcd60e51b815260206004820152601f60248201527f5265656e7472616e637947756172643a207265656e7472616e742063616c6c006044820152606401610957565b600260fb55565b61015f546001600160a01b03163314611bd4576101605460408051808201825260128152714352454154455f50524f4a4543545f46454560701b60208201529051636d12dce160e01b81526001600160a01b03909216916000918391636d12dce19161341a916004016143cd565b602060405180830381865afa158015613437573d6000803e3d6000fd5b505050506040513d601f19601f8201168201806040525081019061345b919061539b565b90508015610c085760408051808201825260098152682322a2afaa27a5a2a760b91b6020820152905163bf40fac160e01b81526000916001600160a01b0385169163bf40fac1916134ae916004016143cd565b602060405180830381865afa1580156134cb573d6000803e3d6000fd5b505050506040513d601f19601f820116820180604052508101906134ef91906150fc565b90506001600160a01b03811615613582576040516323b872dd60e01b81523360048201523060248201526044810183905281906001600160a01b038216906323b872dd906064016020604051808303816000875af1158015613555573d6000803e3d6000fd5b505050506040513d601f19601f82011682018060405250810190613579919061506d565b610ea157600080fd5b813410156109f857600080fd5b610c08828260405180602001604052806000815250613abe565b6000763d602d80600a3d3981f3363d3d373d3d3d363d730000008260601b60e81c176000526e5af43d82803e903d91602b57fd5bf38260781b17602052603760096000f090506001600160a01b03811661363e5760405162461bcd60e51b8152602060048201526016602482015275115490cc4c4d8dce8818dc99585d194819985a5b195960521b6044820152606401610957565b919050565b600160fb55565b61012d546001600160a01b03163314611bd45760405162461bcd60e51b815260206004820181905260248201527f4f776e61626c653a2063616c6c6572206973206e6f7420746865206f776e65726044820152606401610957565b61012d80546001600160a01b038381166001600160a01b0319831681179093556040519116919082907f8be0079c531659141344cd1fd0a4f28419497f9722a3daafe3b4186f6b6457e090600090a35050565b816001600160a01b0316836001600160a01b0316141561375a5760405162461bcd60e51b815260206004820152601960248201527f4552433732313a20617070726f766520746f2063616c6c6572000000000000006044820152606401610957565b6001600160a01b038381166000818152606a6020908152604080832094871680845294825291829020805460ff191686151590811790915591519182527f17307eab39ab6107e8899845ad3d59bd9653f200f220920489ca2b5937696c31910160405180910390a3505050565b6137d133836138ce565b6137ed5760405162461bcd60e51b81526004016109579061534e565b610ea184848484613af1565b600054610100900460ff166138205760405162461bcd60e51b8152600401610957906153b4565b610c088282613b24565b600054610100900460ff166138515760405162461bcd60e51b8152600401610957906153b4565b611bd4613b72565b600054610100900460ff166138805760405162461bcd60e51b8152600401610957906153b4565b611bd4613b99565b600054610100900460ff166138af5760405162461bcd60e51b8152600401610957906153b4565b611bd4733cc6cdda760b79bafa08df41ecfa224f810dceb66001613bcc565b6000806138da83611adc565b9050806001600160a01b0316846001600160a01b0316148061392157506001600160a01b038082166000908152606a602090815260408083209388168352929052205460ff165b806139455750836001600160a01b031661393a846108bb565b6001600160a01b0316145b949350505050565b826001600160a01b031661396082611adc565b6001600160a01b0316146139865760405162461bcd60e51b8152600401610957906153ff565b6001600160a01b0382166139e85760405162461bcd60e51b8152602060048201526024808201527f4552433732313a207472616e7366657220746f20746865207a65726f206164646044820152637265737360e01b6064820152608401610957565b6139f58383836001613d5d565b826001600160a01b0316613a0882611adc565b6001600160a01b031614613a2e5760405162461bcd60e51b8152600401610957906153ff565b600081815260696020908152604080832080546001600160a01b03199081169091556001600160a01b0387811680865260688552838620805460001901905590871680865283862080546001019055868652606790945282852080549092168417909155905184937fddf252ad1be2c89b69c2b068fc378daa952ba7f163c4a11628f55a4df523b3ef91a4505050565b613ac88383613dac565b613ad56000848484613f27565b6109f85760405162461bcd60e51b815260040161095790615444565b613afc84848461394d565b613b0884848484613f27565b610ea15760405162461bcd60e51b815260040161095790615444565b600054610100900460ff16613b4b5760405162461bcd60e51b8152600401610957906153b4565b8151613b5e906065906020850190614120565b5080516109f8906066906020840190614120565b600054610100900460ff166136435760405162461bcd60e51b8152600401610957906153b4565b600054610100900460ff16613bc05760405162461bcd60e51b8152600401610957906153b4565b6097805460ff19169055565b600054610100900460ff16613bf35760405162461bcd60e51b8152600401610957906153b4565b6daaeb6d7670e522a718067333cd4e3b15610c085760405163c3c5a54760e01b81523060048201526daaeb6d7670e522a718067333cd4e9063c3c5a547906024016020604051808303816000875af1158015613c53573d6000803e3d6000fd5b505050506040513d601f19601f82011682018060405250810190613c77919061506d565b610c08578015613cea57604051633e9f1edf60e11b81526daaeb6d7670e522a718067333cd4e90637d3e3dbe90613cb49030908690600401615053565b600060405180830381600087803b158015613cce57600080fd5b505af1158015613ce2573d6000803e3d6000fd5b505050505050565b6001600160a01b03821615613d2c5760405163a0af290360e01b81526daaeb6d7670e522a718067333cd4e9063a0af290390613cb49030908690600401615053565b604051632210724360e11b81523060048201526daaeb6d7670e522a718067333cd4e90634420e48690602401613cb4565b60408051808201909152600381526203231360ec1b60208201526001600160a01b03851615613d9f5760405162461bcd60e51b815260040161095791906143cd565b50610ea184848484614025565b6001600160a01b038216613e025760405162461bcd60e51b815260206004820181905260248201527f4552433732313a206d696e7420746f20746865207a65726f20616464726573736044820152606401610957565b613e0b816132e9565b15613e585760405162461bcd60e51b815260206004820152601c60248201527f4552433732313a20746f6b656e20616c7265616479206d696e746564000000006044820152606401610957565b613e66600083836001613d5d565b613e6f816132e9565b15613ebc5760405162461bcd60e51b815260206004820152601c60248201527f4552433732313a20746f6b656e20616c7265616479206d696e746564000000006044820152606401610957565b6001600160a01b038216600081815260686020908152604080832080546001019055848352606790915280822080546001600160a01b0319168417905551839291907fddf252ad1be2c89b69c2b068fc378daa952ba7f163c4a11628f55a4df523b3ef908290a45050565b60006001600160a01b0384163b1561401a57604051630a85bd0160e11b81526001600160a01b0385169063150b7a0290613f6b903390899088908890600401615496565b6020604051808303816000875af1925050508015613fa6575060408051601f3d908101601f19168201909252613fa3918101906154c9565b60015b614000573d808015613fd4576040519150601f19603f3d011682016040523d82523d6000602084013e613fd9565b606091505b508051613ff85760405162461bcd60e51b815260040161095790615444565b805181602001fd5b6001600160e01b031916630a85bd0160e11b149050613945565b506001949350505050565b61403184848484614098565b60975460ff1615610ea15760405162461bcd60e51b815260206004820152602b60248201527f4552433732315061757361626c653a20746f6b656e207472616e73666572207760448201526a1a1a5b19481c185d5cd95960aa1b6064820152608401610957565b6001811115610ea1576001600160a01b038416156140de576001600160a01b038416600090815260686020526040812080548392906140d89084906154e6565b90915550505b6001600160a01b03831615610ea1576001600160a01b038316600090815260686020526040812080548392906141159084906154fd565b909155505050505050565b82805461412c90614fe6565b90600052602060002090601f01602090048101928261414e5760008555614194565b82601f1061416757805160ff1916838001178555614194565b82800160010185558215614194579182015b82811115614194578251825591602001919060010190614179565b506141a0929150614310565b5090565b5080546141b090614fe6565b6000825580601f106141c0575050565b601f016020900490600052602060002090810190610c9d9190614310565b82805482825590600052602060002090810192821561422b579160200282015b8281111561422b578251805161421b918491602090910190614120565b50916020019190600101906141fe565b506141a0929150614325565b604051806102200160405280600062ffffff168152602001600062ffffff1681526020016000815260200160006001600160a01b03168152602001606081526020016060815260200160006001600160a01b031681526020016060815260200160608152602001606081526020016142d76040518060a0016040528060608152602001606081526020016060815260200160608152602001606081525090565b81526020016060815260200160608152602001606081526020016000815260200160006001600160a01b03168152602001606081525090565b5b808211156141a05760008155600101614311565b808211156141a057600061433982826141a4565b50600101614325565b6001600160e01b031981168114610c9d57600080fd5b60006020828403121561436a57600080fd5b8135611ad581614342565b60005b83811015614390578181015183820152602001614378565b83811115610ea15750506000910152565b600081518084526143b9816020860160208601614375565b601f01601f19169290920160200192915050565b602081526000611ad560208301846143a1565b6000602082840312156143f257600080fd5b5035919050565b6001600160a01b0381168114610c9d57600080fd5b803561363e816143f9565b6000806040838503121561442c57600080fd5b8235614437816143f9565b946020939093013593505050565b634e487b7160e01b600052604160045260246000fd5b60405160a081016001600160401b038111828210171561447d5761447d614445565b60405290565b60405161022081016001600160401b038111828210171561447d5761447d614445565b604051601f8201601f191681016001600160401b03811182821017156144ce576144ce614445565b604052919050565b60006001600160401b038211156144ef576144ef614445565b50601f01601f191660200190565b600061451061450b846144d6565b6144a6565b905082815283838301111561452457600080fd5b828260208301376000602084830101529392505050565b600082601f83011261454c57600080fd5b611ad5838335602085016144fd565b6000806040838503121561456e57600080fd5b8235915060208301356001600160401b0381111561458b57600080fd5b6145978582860161453b565b9150509250929050565b600080604083850312156145b457600080fd5b50508035926020909101359150565b6000602082840312156145d557600080fd5b8135611ad5816143f9565b6000806000606084860312156145f557600080fd5b8335614600816143f9565b92506020840135614610816143f9565b929592945050506040919091013590565b8015158114610c9d57600080fd5b803561363e81614621565b6000806040838503121561464d57600080fd5b82359150602083013561465f81614621565b809150509250929050565b803562ffffff8116811461363e57600080fd5b600060a0828403121561468f57600080fd5b61469761445b565b905081356001600160401b03808211156146b057600080fd5b6146bc8583860161453b565b835260208401359150808211156146d257600080fd5b6146de8583860161453b565b602084015260408401359150808211156146f757600080fd5b6147038583860161453b565b6040840152606084013591508082111561471c57600080fd5b6147288583860161453b565b6060840152608084013591508082111561474157600080fd5b5061474e8482850161453b565b60808301525092915050565b60006001600160401b0382111561477357614773614445565b5060051b60200190565b600082601f83011261478e57600080fd5b8135602061479e61450b8361475a565b82815260059290921b840181019181810190868411156147bd57600080fd5b8286015b848110156147fc5780356001600160401b038111156147e05760008081fd5b6147ee8986838b010161453b565b8452509183019183016147c1565b509695505050505050565b600082601f83011261481857600080fd5b8135602061482861450b8361475a565b82815260059290921b8401810191818101908684111561484757600080fd5b8286015b848110156147fc57803561485e816143f9565b835291830191830161484b565b600080600080600060a0868803121561488357600080fd5b85356001600160401b038082111561489a57600080fd5b90870190610220828a0312156148af57600080fd5b6148b7614483565b6148c08361466a565b81526148ce6020840161466a565b6020820152604083013560408201526148e96060840161440e565b606082015260808301358281111561490057600080fd5b61490c8b82860161453b565b60808301525060a08301358281111561492457600080fd5b6149308b82860161453b565b60a08301525061494260c0840161440e565b60c082015260e08301358281111561495957600080fd5b6149658b82860161453b565b60e083015250610100808401358381111561497f57600080fd5b61498b8c82870161453b565b82840152505061012080840135838111156149a557600080fd5b6149b18c82870161453b565b82840152505061014080840135838111156149cb57600080fd5b6149d78c82870161467d565b82840152505061016080840135838111156149f157600080fd5b6149fd8c82870161477d565b8284015250506101808084013583811115614a1757600080fd5b614a238c82870161477d565b8284015250506101a08084013583811115614a3d57600080fd5b614a498c82870161453b565b8284015250506101c08084013581830152506101e0614a6981850161440e565b908201526102008381013583811115614a8157600080fd5b614a8d8c82870161453b565b828401525050809750506020880135915080821115614aab57600080fd5b50614ab888828901614807565b945050614ac76040870161462f565b94979396509394606081013594506080013592915050565b6000815160a08452614af460a08501826143a1565b905060208301518482036020860152614b0d82826143a1565b91505060408301518482036040860152614b2782826143a1565b91505060608301518482036060860152614b4182826143a1565b915050608083015184820360808601526119eb82826143a1565b600081518084526020808501808196508360051b8101915082860160005b85811015614ba3578284038952614b918483516143a1565b98850198935090840190600101614b79565b5091979650505050505050565b60208152614bc660208201835162ffffff169052565b60006020830151614bde604084018262ffffff169052565b50604083015160608301526060830151614c0360808401826001600160a01b03169052565b5060808301516102208060a0850152614c206102408501836143a1565b915060a0850151601f19808685030160c0870152614c3e84836143a1565b935060c08701519150614c5c60e08701836001600160a01b03169052565b60e08701519150610100818786030181880152614c7985846143a1565b945080880151925050610120818786030181880152614c9885846143a1565b945080880151925050610140818786030181880152614cb785846143a1565b945080880151925050610160818786030181880152614cd68584614adf565b945080880151925050610180818786030181880152614cf58584614b5b565b9450808801519250506101a0818786030181880152614d148584614b5b565b9450808801519250506101c0818786030181880152614d3385846143a1565b908801516101e0888101919091528801519094509150610200614d60818801846001600160a01b03169052565b870151868503909101838701529050614d7983826143a1565b9695505050505050565b60008060408385031215614d9657600080fd5b8235915060208301356001600160401b03811115614db357600080fd5b6145978582860161467d565b60008060408385031215614dd257600080fd5b8235614ddd816143f9565b9150602083013561465f81614621565b600080600060608486031215614e0257600080fd5b833592506020840135915060408401356001600160401b03811115614e2657600080fd5b614e328682870161453b565b9150509250925092565b60008060008060808587031215614e5257600080fd5b8435614e5d816143f9565b93506020850135614e6d816143f9565b92506040850135915060608501356001600160401b03811115614e8f57600080fd5b8501601f81018713614ea057600080fd5b614eaf878235602084016144fd565b91505092959194509250565b600080600060608486031215614ed057600080fd5b8335925060208401356001600160401b03811115614eed57600080fd5b614ef98682870161453b565b925050604084013590509250925092565b60008060008060008060c08789031215614f2357600080fd5b86356001600160401b0380821115614f3a57600080fd5b614f468a838b0161453b565b97506020890135915080821115614f5c57600080fd5b50614f6989828a0161453b565b9550506040870135614f7a816143f9565b93506060870135614f8a816143f9565b92506080870135614f9a816143f9565b915060a0870135614faa816143f9565b809150509295509295509295565b60008060408385031215614fcb57600080fd5b8235614fd6816143f9565b9150602083013561465f816143f9565b600181811c90821680614ffa57607f821691505b6020821081141561501b57634e487b7160e01b600052602260045260246000fd5b50919050565b60008251615033818460208701614375565b9190910192915050565b634e487b7160e01b600052603260045260246000fd5b6001600160a01b0392831681529116602082015260400190565b60006020828403121561507f57600080fd5b8151611ad581614621565b634e487b7160e01b600052601160045260246000fd5b60008160001904831182151516156150ba576150ba61508a565b500290565b6000826150dc57634e487b7160e01b600052601260045260246000fd5b500490565b60006000198214156150f5576150f561508a565b5060010190565b60006020828403121561510e57600080fd5b8151611ad5816143f9565b600081518084526020808501945080840160005b838110156151525781516001600160a01b03168752958201959082019060010161512d565b509495945050505050565b600061010080835261517a8184018c516001600160a01b03169052565b60208b0151610120818186015260408d015191506101406151a18187018462ffffff169052565b60608e015162ffffff8116610160880152925060808e015192506101806151ce8188018562ffffff169052565b60a08f015162ffffff166101a088015260c08f01516101c088019190915292506151fc6102808701846143a1565b60e08f01516101e0880152938e01516001600160a01b0316610200870152818e015186850360ff190161022088015293925061523883856143a1565b908e015180516102408801526020810151610260880152909350915061525b9050565b506001600160a01b038a1660208401526001600160a01b03891660408401526001600160a01b03881660608401526001600160a01b038716608084015282810360a08401526152aa8187615119565b9150506152bb60c083018515159052565b8260e08301529998505050505050505050565b602081526000611ad56020830184614adf565b6000602082840312156152f357600080fd5b81516001600160401b0381111561530957600080fd5b8201601f8101841361531a57600080fd5b805161532861450b826144d6565b81815285602083850101111561533d57600080fd5b6119eb826020830160208601614375565b6020808252602d908201527f4552433732313a2063616c6c6572206973206e6f7420746f6b656e206f776e6560408201526c1c881bdc88185c1c1c9bdd9959609a1b606082015260800190565b6000602082840312156153ad57600080fd5b5051919050565b6020808252602b908201527f496e697469616c697a61626c653a20636f6e7472616374206973206e6f74206960408201526a6e697469616c697a696e6760a81b606082015260800190565b60208082526025908201527f4552433732313a207472616e736665722066726f6d20696e636f72726563742060408201526437bbb732b960d91b606082015260800190565b60208082526032908201527f4552433732313a207472616e7366657220746f206e6f6e20455243373231526560408201527131b2b4bb32b91034b6b83632b6b2b73a32b960711b606082015260800190565b6001600160a01b0385811682528416602082015260408101839052608060608201819052600090614d79908301846143a1565b6000602082840312156154db57600080fd5b8151611ad581614342565b6000828210156154f8576154f861508a565b500390565b600082198211156155105761551061508a565b50019056fea2646970667358221220ae061d3e00076b58273c57ea6edd97e3f51d7dba3b20402adac775d2f1db80d864736f6c634300080c0033",
  "linkReferences": {},
  "deployedLinkReferences": {}
}