{
  "_format": "hh-sol-artifact-1",
  "contractName": "GenerativeProject",
  "sourceName": "contracts/nfts/GenerativeProject.sol",
  "abi": [
    {
      "inputs": [
        {
          "internalType": "address",
          "name": "operator",
          "type": "address"
        }
      ],
      "name": "OperatorNotAllowed",
      "type": "error"
    },
    {
      "anonymous": false,
      "inputs": [
        {
          "indexed": true,
          "internalType": "address",
          "name": "owner",
          "type": "address"
        },
        {
          "indexed": true,
          "internalType": "address",
          "name": "approved",
          "type": "address"
        },
        {
          "indexed": true,
          "internalType": "uint256",
          "name": "tokenId",
          "type": "uint256"
        }
      ],
      "name": "Approval",
      "type": "event"
    },
    {
      "anonymous": false,
      "inputs": [
        {
          "indexed": true,
          "internalType": "address",
          "name": "owner",
          "type": "address"
        },
        {
          "indexed": true,
          "internalType": "address",
          "name": "operator",
          "type": "address"
        },
        {
          "indexed": false,
          "internalType": "bool",
          "name": "approved",
          "type": "bool"
        }
      ],
      "name": "ApprovalForAll",
      "type": "event"
    },
    {
      "anonymous": false,
      "inputs": [
        {
          "indexed": false,
          "internalType": "uint8",
          "name": "version",
          "type": "uint8"
        }
      ],
      "name": "Initialized",
      "type": "event"
    },
    {
      "anonymous": false,
      "inputs": [
        {
          "indexed": true,
          "internalType": "address",
          "name": "previousOwner",
          "type": "address"
        },
        {
          "indexed": true,
          "internalType": "address",
          "name": "newOwner",
          "type": "address"
        }
      ],
      "name": "OwnershipTransferred",
      "type": "event"
    },
    {
      "anonymous": false,
      "inputs": [
        {
          "indexed": false,
          "internalType": "address",
          "name": "account",
          "type": "address"
        }
      ],
      "name": "Paused",
      "type": "event"
    },
    {
      "anonymous": false,
      "inputs": [
        {
          "indexed": true,
          "internalType": "address",
          "name": "from",
          "type": "address"
        },
        {
          "indexed": true,
          "internalType": "address",
          "name": "to",
          "type": "address"
        },
        {
          "indexed": true,
          "internalType": "uint256",
          "name": "tokenId",
          "type": "uint256"
        }
      ],
      "name": "Transfer",
      "type": "event"
    },
    {
      "anonymous": false,
      "inputs": [
        {
          "indexed": false,
          "internalType": "address",
          "name": "account",
          "type": "address"
        }
      ],
      "name": "Unpaused",
      "type": "event"
    },
    {
      "inputs": [],
      "name": "_admin",
      "outputs": [
        {
          "internalType": "address",
          "name": "",
          "type": "address"
        }
      ],
      "stateMutability": "view",
      "type": "function"
    },
    {
      "inputs": [],
      "name": "_paramsAddress",
      "outputs": [
        {
          "internalType": "address",
          "name": "",
          "type": "address"
        }
      ],
      "stateMutability": "view",
      "type": "function"
    },
    {
      "inputs": [],
      "name": "_projectDataContextAddr",
      "outputs": [
        {
          "internalType": "address",
          "name": "",
          "type": "address"
        }
      ],
      "stateMutability": "view",
      "type": "function"
    },
    {
      "inputs": [],
      "name": "_randomizerAddr",
      "outputs": [
        {
          "internalType": "address",
          "name": "",
          "type": "address"
        }
      ],
      "stateMutability": "view",
      "type": "function"
    },
    {
      "inputs": [
        {
          "internalType": "uint256",
          "name": "projectId",
          "type": "uint256"
        },
        {
          "internalType": "string",
          "name": "_script",
          "type": "string"
        }
      ],
      "name": "addProjectScript",
      "outputs": [],
      "stateMutability": "nonpayable",
      "type": "function"
    },
    {
      "inputs": [
        {
          "internalType": "address",
          "name": "to",
          "type": "address"
        },
        {
          "internalType": "uint256",
          "name": "tokenId",
          "type": "uint256"
        }
      ],
      "name": "approve",
      "outputs": [],
      "stateMutability": "nonpayable",
      "type": "function"
    },
    {
      "inputs": [
        {
          "internalType": "address",
          "name": "owner",
          "type": "address"
        }
      ],
      "name": "balanceOf",
      "outputs": [
        {
          "internalType": "uint256",
          "name": "",
          "type": "uint256"
        }
      ],
      "stateMutability": "view",
      "type": "function"
    },
    {
      "inputs": [
        {
          "internalType": "address",
          "name": "newAdm",
          "type": "address"
        }
      ],
      "name": "changeAdmin",
      "outputs": [],
      "stateMutability": "nonpayable",
      "type": "function"
    },
    {
      "inputs": [
        {
          "internalType": "address",
          "name": "newAddr",
          "type": "address"
        }
      ],
      "name": "changeDataContextAddr",
      "outputs": [],
      "stateMutability": "nonpayable",
      "type": "function"
    },
    {
      "inputs": [
        {
          "internalType": "address",
          "name": "newAddr",
          "type": "address"
        }
      ],
      "name": "changeParamAddr",
      "outputs": [],
      "stateMutability": "nonpayable",
      "type": "function"
    },
    {
      "inputs": [
        {
          "internalType": "address",
          "name": "newAddr",
          "type": "address"
        }
      ],
      "name": "changeRandomizerAddr",
      "outputs": [],
      "stateMutability": "nonpayable",
      "type": "function"
    },
    {
      "inputs": [
        {
          "internalType": "uint256",
          "name": "projectId",
          "type": "uint256"
        }
      ],
      "name": "completeProject",
      "outputs": [],
      "stateMutability": "nonpayable",
      "type": "function"
    },
    {
      "inputs": [
        {
          "internalType": "uint256",
          "name": "projectId",
          "type": "uint256"
        },
        {
          "internalType": "uint256",
          "name": "scriptIndex",
          "type": "uint256"
        }
      ],
      "name": "deleteProjectScript",
      "outputs": [],
      "stateMutability": "nonpayable",
      "type": "function"
    },
    {
      "inputs": [
        {
          "internalType": "uint256",
          "name": "tokenId",
          "type": "uint256"
        }
      ],
      "name": "getApproved",
      "outputs": [
        {
          "internalType": "address",
          "name": "",
          "type": "address"
        }
      ],
      "stateMutability": "view",
      "type": "function"
    },
    {
      "inputs": [
        {
          "internalType": "string",
          "name": "name",
          "type": "string"
        },
        {
          "internalType": "string",
          "name": "symbol",
          "type": "string"
        },
        {
          "internalType": "address",
          "name": "admin",
          "type": "address"
        },
        {
          "internalType": "address",
          "name": "paramsAddress",
          "type": "address"
        },
        {
          "internalType": "address",
          "name": "randomizerAddr",
          "type": "address"
        },
        {
          "internalType": "address",
          "name": "projectDataContextAddr",
          "type": "address"
        }
      ],
      "name": "initialize",
      "outputs": [],
      "stateMutability": "nonpayable",
      "type": "function"
    },
    {
      "inputs": [
        {
          "internalType": "address",
          "name": "owner",
          "type": "address"
        },
        {
          "internalType": "address",
          "name": "operator",
          "type": "address"
        }
      ],
      "name": "isApprovedForAll",
      "outputs": [
        {
          "internalType": "bool",
          "name": "",
          "type": "bool"
        }
      ],
      "stateMutability": "view",
      "type": "function"
    },
    {
      "inputs": [
        {
          "components": [
            {
              "internalType": "uint24",
              "name": "_maxSupply",
              "type": "uint24"
            },
            {
              "internalType": "uint24",
              "name": "_limit",
              "type": "uint24"
            },
            {
              "internalType": "uint256",
              "name": "_mintPrice",
              "type": "uint256"
            },
            {
              "internalType": "address",
              "name": "_mintPriceAddr",
              "type": "address"
            },
            {
              "internalType": "string",
              "name": "_name",
              "type": "string"
            },
            {
              "internalType": "string",
              "name": "_creator",
              "type": "string"
            },
            {
              "internalType": "address",
              "name": "_creatorAddr",
              "type": "address"
            },
            {
              "internalType": "string",
              "name": "_license",
              "type": "string"
            },
            {
              "internalType": "string",
              "name": "_desc",
              "type": "string"
            },
            {
              "internalType": "string",
              "name": "_image",
              "type": "string"
            },
            {
              "components": [
                {
                  "internalType": "string",
                  "name": "_web",
                  "type": "string"
                },
                {
                  "internalType": "string",
                  "name": "_twitter",
                  "type": "string"
                },
                {
                  "internalType": "string",
                  "name": "_discord",
                  "type": "string"
                },
                {
                  "internalType": "string",
                  "name": "_medium",
                  "type": "string"
                },
                {
                  "internalType": "string",
                  "name": "_instagram",
                  "type": "string"
                }
              ],
              "internalType": "struct NFTProject.ProjectSocial",
              "name": "_social",
              "type": "tuple"
            },
            {
              "internalType": "string[]",
              "name": "_scriptType",
              "type": "string[]"
            },
            {
              "internalType": "string[]",
              "name": "_scripts",
              "type": "string[]"
            },
            {
              "internalType": "string",
              "name": "_styles",
              "type": "string"
            },
            {
              "internalType": "uint256",
              "name": "_completeTime",
              "type": "uint256"
            },
            {
              "internalType": "address",
              "name": "_genNFTAddr",
              "type": "address"
            },
            {
              "internalType": "string",
              "name": "_itemDesc",
              "type": "string"
            }
          ],
          "internalType": "struct NFTProject.Project",
          "name": "project",
          "type": "tuple"
        },
        {
          "internalType": "address[]",
          "name": "reserves",
          "type": "address[]"
        },
        {
          "internalType": "bool",
          "name": "disable",
          "type": "bool"
        },
        {
          "internalType": "uint256",
          "name": "openingTime",
          "type": "uint256"
        },
        {
          "internalType": "uint256",
          "name": "royalty",
          "type": "uint256"
        }
      ],
      "name": "mint",
      "outputs": [
        {
          "internalType": "uint256",
          "name": "",
          "type": "uint256"
        }
      ],
      "stateMutability": "payable",
      "type": "function"
    },
    {
      "inputs": [],
      "name": "name",
      "outputs": [
        {
          "internalType": "string",
          "name": "",
          "type": "string"
        }
      ],
      "stateMutability": "view",
      "type": "function"
    },
    {
      "inputs": [],
      "name": "owner",
      "outputs": [
        {
          "internalType": "address",
          "name": "",
          "type": "address"
        }
      ],
      "stateMutability": "view",
      "type": "function"
    },
    {
      "inputs": [
        {
          "internalType": "uint256",
          "name": "tokenId",
          "type": "uint256"
        }
      ],
      "name": "ownerOf",
      "outputs": [
        {
          "internalType": "address",
          "name": "",
          "type": "address"
        }
      ],
      "stateMutability": "view",
      "type": "function"
    },
    {
      "inputs": [],
      "name": "paused",
      "outputs": [
        {
          "internalType": "bool",
          "name": "",
          "type": "bool"
        }
      ],
      "stateMutability": "view",
      "type": "function"
    },
    {
      "inputs": [
        {
          "internalType": "uint256",
          "name": "projectId",
          "type": "uint256"
        }
      ],
      "name": "projectDetails",
      "outputs": [
        {
          "components": [
            {
              "internalType": "uint24",
              "name": "_maxSupply",
              "type": "uint24"
            },
            {
              "internalType": "uint24",
              "name": "_limit",
              "type": "uint24"
            },
            {
              "internalType": "uint256",
              "name": "_mintPrice",
              "type": "uint256"
            },
            {
              "internalType": "address",
              "name": "_mintPriceAddr",
              "type": "address"
            },
            {
              "internalType": "string",
              "name": "_name",
              "type": "string"
            },
            {
              "internalType": "string",
              "name": "_creator",
              "type": "string"
            },
            {
              "internalType": "address",
              "name": "_creatorAddr",
              "type": "address"
            },
            {
              "internalType": "string",
              "name": "_license",
              "type": "string"
            },
            {
              "internalType": "string",
              "name": "_desc",
              "type": "string"
            },
            {
              "internalType": "string",
              "name": "_image",
              "type": "string"
            },
            {
              "components": [
                {
                  "internalType": "string",
                  "name": "_web",
                  "type": "string"
                },
                {
                  "internalType": "string",
                  "name": "_twitter",
                  "type": "string"
                },
                {
                  "internalType": "string",
                  "name": "_discord",
                  "type": "string"
                },
                {
                  "internalType": "string",
                  "name": "_medium",
                  "type": "string"
                },
                {
                  "internalType": "string",
                  "name": "_instagram",
                  "type": "string"
                }
              ],
              "internalType": "struct NFTProject.ProjectSocial",
              "name": "_social",
              "type": "tuple"
            },
            {
              "internalType": "string[]",
              "name": "_scriptType",
              "type": "string[]"
            },
            {
              "internalType": "string[]",
              "name": "_scripts",
              "type": "string[]"
            },
            {
              "internalType": "string",
              "name": "_styles",
              "type": "string"
            },
            {
              "internalType": "uint256",
              "name": "_completeTime",
              "type": "uint256"
            },
            {
              "internalType": "address",
              "name": "_genNFTAddr",
              "type": "address"
            },
            {
              "internalType": "string",
              "name": "_itemDesc",
              "type": "string"
            }
          ],
          "internalType": "struct NFTProject.Project",
          "name": "project",
          "type": "tuple"
        }
      ],
      "stateMutability": "view",
      "type": "function"
    },
    {
      "inputs": [
        {
          "internalType": "uint256",
          "name": "projectId",
          "type": "uint256"
        }
      ],
      "name": "projectStatus",
      "outputs": [
        {
          "internalType": "bool",
          "name": "enable",
          "type": "bool"
        }
      ],
      "stateMutability": "view",
      "type": "function"
    },
    {
      "inputs": [],
      "name": "renounceOwnership",
      "outputs": [],
      "stateMutability": "nonpayable",
      "type": "function"
    },
    {
      "inputs": [
        {
          "internalType": "uint256",
          "name": "projectId",
          "type": "uint256"
        },
        {
          "internalType": "uint256",
          "name": "_salePrice",
          "type": "uint256"
        }
      ],
      "name": "royaltyInfo",
      "outputs": [
        {
          "internalType": "address",
          "name": "receiver",
          "type": "address"
        },
        {
          "internalType": "uint256",
          "name": "royaltyAmount",
          "type": "uint256"
        }
      ],
      "stateMutability": "view",
      "type": "function"
    },
    {
      "inputs": [
        {
          "internalType": "address",
          "name": "from",
          "type": "address"
        },
        {
          "internalType": "address",
          "name": "to",
          "type": "address"
        },
        {
          "internalType": "uint256",
          "name": "tokenId",
          "type": "uint256"
        }
      ],
      "name": "safeTransferFrom",
      "outputs": [],
      "stateMutability": "nonpayable",
      "type": "function"
    },
    {
      "inputs": [
        {
          "internalType": "address",
          "name": "from",
          "type": "address"
        },
        {
          "internalType": "address",
          "name": "to",
          "type": "address"
        },
        {
          "internalType": "uint256",
          "name": "tokenId",
          "type": "uint256"
        },
        {
          "internalType": "bytes",
          "name": "data",
          "type": "bytes"
        }
      ],
      "name": "safeTransferFrom",
      "outputs": [],
      "stateMutability": "nonpayable",
      "type": "function"
    },
    {
      "inputs": [
        {
          "internalType": "address",
          "name": "operator",
          "type": "address"
        },
        {
          "internalType": "bool",
          "name": "approved",
          "type": "bool"
        }
      ],
      "name": "setApprovalForAll",
      "outputs": [],
      "stateMutability": "nonpayable",
      "type": "function"
    },
    {
      "inputs": [
        {
          "internalType": "uint256",
          "name": "projectId",
          "type": "uint256"
        },
        {
          "internalType": "bool",
          "name": "enable",
          "type": "bool"
        }
      ],
      "name": "setProjectStatus",
      "outputs": [],
      "stateMutability": "nonpayable",
      "type": "function"
    },
    {
      "inputs": [
        {
          "internalType": "bytes4",
          "name": "interfaceId",
          "type": "bytes4"
        }
      ],
      "name": "supportsInterface",
      "outputs": [
        {
          "internalType": "bool",
          "name": "",
          "type": "bool"
        }
      ],
      "stateMutability": "view",
      "type": "function"
    },
    {
      "inputs": [],
      "name": "symbol",
      "outputs": [
        {
          "internalType": "string",
          "name": "",
          "type": "string"
        }
      ],
      "stateMutability": "view",
      "type": "function"
    },
    {
      "inputs": [
        {
          "internalType": "uint256",
          "name": "projectId",
          "type": "uint256"
        }
      ],
      "name": "tokenURI",
      "outputs": [
        {
          "internalType": "string",
          "name": "result",
          "type": "string"
        }
      ],
      "stateMutability": "view",
      "type": "function"
    },
    {
      "inputs": [
        {
          "internalType": "address",
          "name": "from",
          "type": "address"
        },
        {
          "internalType": "address",
          "name": "to",
          "type": "address"
        },
        {
          "internalType": "uint256",
          "name": "tokenId",
          "type": "uint256"
        }
      ],
      "name": "transferFrom",
      "outputs": [],
      "stateMutability": "nonpayable",
      "type": "function"
    },
    {
      "inputs": [
        {
          "internalType": "address",
          "name": "newOwner",
          "type": "address"
        }
      ],
      "name": "transferOwnership",
      "outputs": [],
      "stateMutability": "nonpayable",
      "type": "function"
    },
    {
      "inputs": [
        {
          "internalType": "uint256",
          "name": "projectId",
          "type": "uint256"
        },
        {
          "internalType": "string",
          "name": "creatorName",
          "type": "string"
        }
      ],
      "name": "updateProjectCreatorName",
      "outputs": [],
      "stateMutability": "nonpayable",
      "type": "function"
    },
    {
      "inputs": [
        {
          "internalType": "uint256",
          "name": "projectId",
          "type": "uint256"
        },
        {
          "internalType": "string",
          "name": "license",
          "type": "string"
        }
      ],
      "name": "updateProjectLicense",
      "outputs": [],
      "stateMutability": "nonpayable",
      "type": "function"
    },
    {
      "inputs": [
        {
          "internalType": "uint256",
          "name": "projectId",
          "type": "uint256"
        },
        {
          "internalType": "string",
          "name": "projectName",
          "type": "string"
        }
      ],
      "name": "updateProjectName",
      "outputs": [],
      "stateMutability": "nonpayable",
      "type": "function"
    },
    {
      "inputs": [
        {
          "internalType": "uint256",
          "name": "projectId",
          "type": "uint256"
        },
        {
          "internalType": "uint256",
          "name": "scriptIndex",
          "type": "uint256"
        },
        {
          "internalType": "string",
          "name": "script",
          "type": "string"
        }
      ],
      "name": "updateProjectScript",
      "outputs": [],
      "stateMutability": "nonpayable",
      "type": "function"
    },
    {
      "inputs": [
        {
          "internalType": "uint256",
          "name": "projectId",
          "type": "uint256"
        },
        {
          "internalType": "string",
          "name": "scriptType",
          "type": "string"
        },
        {
          "internalType": "uint256",
          "name": "i",
          "type": "uint256"
        }
      ],
      "name": "updateProjectScriptType",
      "outputs": [],
      "stateMutability": "nonpayable",
      "type": "function"
    },
    {
      "inputs": [
        {
          "internalType": "address",
          "name": "receiver",
          "type": "address"
        },
        {
          "internalType": "address",
          "name": "erc20Addr",
          "type": "address"
        },
        {
          "internalType": "uint256",
          "name": "amount",
          "type": "uint256"
        }
      ],
      "name": "withdraw",
      "outputs": [],
      "stateMutability": "nonpayable",
      "type": "function"
    }
  ],
  "bytecode": "0x608060405234801561001057600080fd5b50614fdb806100206000396000f3fe60806040526004361061023b5760003560e01c806366215eb41161012e578063b1656ba3116100ab578063e283d82f1161006f578063e283d82f146106e3578063e56f2fe414610703578063e985e9c514610723578063f2fde38b1461076c578063febfd6c31461078c57600080fd5b8063b1656ba314610643578063b88d4fde14610663578063c87b56dd14610683578063d9caed12146106a3578063daf61800146106c357600080fd5b80638f283970116100f25780638f283970146105ad57806395d89b41146105cd578063a22cb465146105e2578063acad012414610602578063adfc7dae1461062257600080fd5b806366215eb41461050b57806370a082311461052c578063715018a61461054c5780638da5cb5b146105615780638dd91a561461058057600080fd5b806325b75d68116101bc5780634d3fcc1d116101805780634d3fcc1d1461047157806350ac589214610492578063575b57ea146104b25780635c975abb146104d35780636352211e146104eb57600080fd5b806325b75d68146103b25780632a55205a146103d25780633af6cd1e1461041157806342842e0e14610431578063472f1e021461045157600080fd5b80630d170673116102035780630d17067314610312578063166b7469146103325780631ca9741b146103525780632245f1521461037257806323b872dd1461039257600080fd5b806301bc45c91461024057806301ffc9a71461027e57806306fdde03146102ae578063081812fc146102d0578063095ea7b3146102f0575b600080fd5b34801561024c57600080fd5b5061015f54610261906001600160a01b031681565b6040516001600160a01b0390911681526020015b60405180910390f35b34801561028a57600080fd5b5061029e610299366004613e53565b6107ac565b6040519015158152602001610275565b3480156102ba57600080fd5b506102c36107fe565b6040516102759190613ec8565b3480156102dc57600080fd5b506102616102eb366004613edb565b610890565b3480156102fc57600080fd5b5061031061030b366004613f14565b6108b7565b005b34801561031e57600080fd5b5061031061032d366004614056565b6109d2565b34801561033e57600080fd5b5061031061034d36600461409c565b610a79565b34801561035e57600080fd5b5061031061036d3660046140be565b610b38565b34801561037e57600080fd5b5061031061038d366004613edb565b610bcc565b34801561039e57600080fd5b506103106103ad3660046140db565b610c4f565b3480156103be57600080fd5b506103106103cd366004614056565b610da5565b3480156103de57600080fd5b506103f26103ed36600461409c565b610e4c565b604080516001600160a01b039093168352602083019190915201610275565b34801561041d57600080fd5b5061031061042c366004614135565b610e7d565b34801561043d57600080fd5b5061031061044c3660046140db565b61101f565b34801561045d57600080fd5b5061031061046c3660046140be565b61116a565b61048461047f366004614366565b6111ff565b604051908152602001610275565b34801561049e57600080fd5b5061029e6104ad366004613edb565b6117c7565b3480156104be57600080fd5b5061016254610261906001600160a01b031681565b3480156104df57600080fd5b5060975460ff1661029e565b3480156104f757600080fd5b50610261610506366004613edb565b6118af565b34801561051757600080fd5b5061016154610261906001600160a01b031681565b34801561053857600080fd5b506104846105473660046140be565b61190f565b34801561055857600080fd5b50610310611995565b34801561056d57600080fd5b5061012d546001600160a01b0316610261565b34801561058c57600080fd5b506105a061059b366004613edb565b6119a9565b60405161027591906146ab565b3480156105b957600080fd5b506103106105c83660046140be565b612330565b3480156105d957600080fd5b506102c36123c5565b3480156105ee57600080fd5b506103106105fd36600461487e565b6123d4565b34801561060e57600080fd5b5061031061061d366004614056565b6123df565b34801561062e57600080fd5b5061016054610261906001600160a01b031681565b34801561064f57600080fd5b5061031061065e3660046148ac565b612496565b34801561066f57600080fd5b5061031061067e3660046148fb565b61255b565b34801561068f57600080fd5b506102c361069e366004613edb565b6126b4565b3480156106af57600080fd5b506103106106be3660046140db565b61276e565b3480156106cf57600080fd5b506103106106de36600461497a565b6128ca565b3480156106ef57600080fd5b506103106106fe366004614056565b612972565b34801561070f57600080fd5b5061031061071e3660046149c9565b612a19565b34801561072f57600080fd5b5061029e61073e366004614a77565b6001600160a01b039182166000908152606a6020908152604080832093909416825291909152205460ff1690565b34801561077857600080fd5b506103106107873660046140be565b612c1b565b34801561079857600080fd5b506103106107a73660046140be565b612c91565b60006001600160e01b031982166380ac58cd60e01b14806107dd57506001600160e01b03198216635b5e139f60e01b145b806107f857506301ffc9a760e01b6001600160e01b03198316145b92915050565b60606065805461080d90614aa5565b80601f016020809104026020016040519081016040528092919081815260200182805461083990614aa5565b80156108865780601f1061085b57610100808354040283529160200191610886565b820191906000526020600020905b81548152906001019060200180831161086957829003601f168201915b5050505050905090565b600061089b82612d26565b506000908152606960205260409020546001600160a01b031690565b60006108c2826118af565b9050806001600160a01b0316836001600160a01b031614156109355760405162461bcd60e51b815260206004820152602160248201527f4552433732313a20617070726f76616c20746f2063757272656e74206f776e656044820152603960f91b60648201526084015b60405180910390fd5b336001600160a01b03821614806109515750610951813361073e565b6109c35760405162461bcd60e51b815260206004820152603d60248201527f4552433732313a20617070726f76652063616c6c6572206973206e6f7420746f60448201527f6b656e206f776e6572206f7220617070726f76656420666f7220616c6c000000606482015260840161092c565b6109cd8383612d76565b505050565b61015f546001600160a01b0316331480610a065750600082815261016460205260409020600501546001600160a01b031633145b610a0f57600080fd5b610a1882612de4565b6040518060400160405280600381526020016232303960e81b81525090610a525760405162461bcd60e51b815260040161092c9190613ec8565b5060008281526101646020908152604090912082516109cd92600390920191840190613c1b565b61015f546001600160a01b0316331480610aad5750600082815261016460205260409020600501546001600160a01b031633145b610ab657600080fd5b610abf82612de4565b6040518060400160405280600381526020016232303960e81b81525090610af95760405162461bcd60e51b815260040161092c9190613ec8565b50600082815261016460205260409020600f01805482908110610b1e57610b1e614ae0565b906000526020600020016000610b349190613c9f565b5050565b61015f546001600160a01b031633148015610b5b57506001600160a01b03811615155b6040518060400160405280600381526020016231303160e81b81525090610b955760405162461bcd60e51b815260040161092c9190613ec8565b50610161546001600160a01b03828116911614610bc95761016180546001600160a01b0319166001600160a01b0383161790555b50565b600081815261016460205260409020601201546001600160a01b03163314610bf357600080fd5b610bfc81612de4565b6040518060400160405280600381526020016232303960e81b81525090610c365760405162461bcd60e51b815260040161092c9190613ec8565b5060009081526101646020526040902042601190910155565b826daaeb6d7670e522a718067333cd4e3b15610d94576001600160a01b038116331415610c8657610c81848484612e01565b610d9f565b604051633185c44d60e21b81526daaeb6d7670e522a718067333cd4e9063c617113490610cb99030903390600401614af6565b602060405180830381865afa158015610cd6573d6000803e3d6000fd5b505050506040513d601f19601f82011682018060405250810190610cfa9190614b10565b8015610d755750604051633185c44d60e21b81526daaeb6d7670e522a718067333cd4e9063c617113490610d349030908590600401614af6565b602060405180830381865afa158015610d51573d6000803e3d6000fd5b505050506040513d601f19601f82011682018060405250810190610d759190614b10565b610d9457604051633b79c77360e21b815233600482015260240161092c565b610d9f848484612e01565b50505050565b61015f546001600160a01b0316331480610dd95750600082815261016460205260409020600501546001600160a01b031633145b610de257600080fd5b610deb82612de4565b6040518060400160405280600381526020016232303960e81b81525090610e255760405162461bcd60e51b815260040161092c9190613ec8565b5060008281526101646020908152604090912082516109cd92600690920191840190613c1b565b61015f546001600160a01b03166000612710610e6a846101f4614b43565b610e749190614b62565b90509250929050565b610e8682612de4565b6040518060400160405280600381526020016232303960e81b81525090610ec05760405162461bcd60e51b815260040161092c9190613ec8565b5061015f546001600160a01b0316331480610ef55750600082815261016460205260409020600501546001600160a01b031633145b6040518060400160405280600381526020016203130360ec1b81525090610f2f5760405162461bcd60e51b815260040161092c9190613ec8565b50600082815261016460209081526040918290206012015482516302734eab60e51b815292516001600160a01b0390911692841515928492634e69d5609260048082019392918290030181865afa158015610f8e573d6000803e3d6000fd5b505050506040513d601f19601f82011682018060405250810190610fb29190614b10565b15151415610fbf57600080fd5b6040516317103dbd60e21b815282151560048201526001600160a01b03821690635c40f6f490602401600060405180830381600087803b15801561100257600080fd5b505af1158015611016573d6000803e3d6000fd5b50505050505050565b826daaeb6d7670e522a718067333cd4e3b1561115f576001600160a01b03811633141561105157610c81848484612e32565b604051633185c44d60e21b81526daaeb6d7670e522a718067333cd4e9063c6171134906110849030903390600401614af6565b602060405180830381865afa1580156110a1573d6000803e3d6000fd5b505050506040513d601f19601f820116820180604052508101906110c59190614b10565b80156111405750604051633185c44d60e21b81526daaeb6d7670e522a718067333cd4e9063c6171134906110ff9030908590600401614af6565b602060405180830381865afa15801561111c573d6000803e3d6000fd5b505050506040513d601f19601f820116820180604052508101906111409190614b10565b61115f57604051633b79c77360e21b815233600482015260240161092c565b610d9f848484612e32565b61015f546001600160a01b03163314801561118d57506001600160a01b03811615155b6040518060400160405280600381526020016231303160e81b815250906111c75760405162461bcd60e51b815260040161092c9190613ec8565b50610162546001600160a01b03828116911614610bc95761016280546001600160a01b0383166001600160a01b031990911617905550565b6000611209612e4d565b60038660800151511161121b57600080fd5b60038660a00151511161122d57600080fd5b855162ffffff161580159061124d5750620f4240866000015162ffffff16105b61125657600080fd5b6000866020015162ffffff161180156112815750856000015162ffffff16866020015162ffffff1611155b61128a57600080fd5b60c08601516001600160a01b03166112a157600080fd5b600582101580156112b3575061271082105b6112bc57600080fd5b61016380549060006112cd83614b84565b9091555050610160546001600160a01b03166112e7612ea7565b610163546000908152610164602090815260409182902089518154838c015162ffffff90811663010000000265ffffffffffff1990921692169190911717815591890151600183015560608901516002830180546001600160a01b039092166001600160a01b0319909216919091179055608089015180518a9392611373926003850192910190613c1b565b5060a0820151805161138f916004840191602090910190613c1b565b5060c08201516005820180546001600160a01b0319166001600160a01b0390921691909117905560e082015180516113d1916006840191602090910190613c1b565b5061010082015180516113ee916007840191602090910190613c1b565b50610120820151805161140b916008840191602090910190613c1b565b5061014082015180518051600984019161142a91839160200190613c1b565b5060208281015180516114439260018501920190613c1b565b506040820151805161145f916002840191602090910190613c1b565b506060820151805161147b916003840191602090910190613c1b565b5060808201518051611497916004840191602090910190613c1b565b50505061016082015180516114b691600e840191602090910190613cd9565b5061018082015180516114d391600f840191602090910190613cd9565b506101a082015180516114f0916010840191602090910190613c1b565b506101c082015160118201556101e08201516012820180546001600160a01b0319166001600160a01b03909216919091179055610200820151805161153f916013840191602090910190613c1b565b509050506115548760c001516101635461308a565b604080518082018252601781527f47454e455241544956455f4e46545f54454d504c4154450000000000000000006020820152905163bf40fac160e01b81526000916115fe916001600160a01b0385169163bf40fac1916115b89190600401613ec8565b602060405180830381865afa1580156115d5573d6000803e3d6000fd5b505050506040513d601f19601f820116820180604052508101906115f99190614b9f565b6130a4565b905080610164600061016354815260200190815260200160002060120160006101000a8154816001600160a01b0302191690836001600160a01b031602179055506000819050806001600160a01b031663eb03558a604051806101600160405280306001600160a01b031681526020016101635481526020018c6000015162ffffff1681526020018c6020015162ffffff168152602001600062ffffff168152602001600062ffffff1681526020018c60a0015181526020018c6040015181526020018c606001516001600160a01b031681526020018c6080015181526020016040518060400160405280600081526020018b81525081525061015f60009054906101000a90046001600160a01b031661016060009054906101000a90046001600160a01b031661016160009054906101000a90046001600160a01b031661016260009054906101000a90046001600160a01b03168e8e8d6040518963ffffffff1660e01b8152600401611779989796959493929190614c00565b600060405180830381600087803b15801561179357600080fd5b505af11580156117a7573d6000803e3d6000fd5b505050506101635493505050506117be600160fb55565b95945050505050565b60006117d282612de4565b6040518060400160405280600381526020016232303960e81b8152509061180c5760405162461bcd60e51b815260040161092c9190613ec8565b50600082815261016460209081526040918290206012015482516302734eab60e51b815292516001600160a01b03909116928392634e69d560926004808401938290030181865afa158015611865573d6000803e3d6000fd5b505050506040513d601f19601f820116820180604052508101906118899190614b10565b91508180156118a8575060008381526101646020526040902060110154155b9392505050565b6000818152606760205260408120546001600160a01b0316806107f85760405162461bcd60e51b8152602060048201526018602482015277115490cdcc8c4e881a5b9d985b1a59081d1bdad95b88125160421b604482015260640161092c565b60006001600160a01b0382166119795760405162461bcd60e51b815260206004820152602960248201527f4552433732313a2061646472657373207a65726f206973206e6f7420612076616044820152683634b21037bbb732b960b91b606482015260840161092c565b506001600160a01b031660009081526068602052604090205490565b61199d613145565b6119a760006131a0565b565b6119b1613d32565b6119ba82612de4565b6040518060400160405280600381526020016232303960e81b815250906119f45760405162461bcd60e51b815260040161092c9190613ec8565b5060008281526101646020908152604091829020825161022081018452815462ffffff80821683526301000000909104169281019290925260018101549282019290925260028201546001600160a01b03166060820152600382018054919291608084019190611a6390614aa5565b80601f0160208091040260200160405190810160405280929190818152602001828054611a8f90614aa5565b8015611adc5780601f10611ab157610100808354040283529160200191611adc565b820191906000526020600020905b815481529060010190602001808311611abf57829003601f168201915b50505050508152602001600482018054611af590614aa5565b80601f0160208091040260200160405190810160405280929190818152602001828054611b2190614aa5565b8015611b6e5780601f10611b4357610100808354040283529160200191611b6e565b820191906000526020600020905b815481529060010190602001808311611b5157829003601f168201915b505050918352505060058201546001600160a01b03166020820152600682018054604090920191611b9e90614aa5565b80601f0160208091040260200160405190810160405280929190818152602001828054611bca90614aa5565b8015611c175780601f10611bec57610100808354040283529160200191611c17565b820191906000526020600020905b815481529060010190602001808311611bfa57829003601f168201915b50505050508152602001600782018054611c3090614aa5565b80601f0160208091040260200160405190810160405280929190818152602001828054611c5c90614aa5565b8015611ca95780601f10611c7e57610100808354040283529160200191611ca9565b820191906000526020600020905b815481529060010190602001808311611c8c57829003601f168201915b50505050508152602001600882018054611cc290614aa5565b80601f0160208091040260200160405190810160405280929190818152602001828054611cee90614aa5565b8015611d3b5780601f10611d1057610100808354040283529160200191611d3b565b820191906000526020600020905b815481529060010190602001808311611d1e57829003601f168201915b50505050508152602001600982016040518060a0016040529081600082018054611d6490614aa5565b80601f0160208091040260200160405190810160405280929190818152602001828054611d9090614aa5565b8015611ddd5780601f10611db257610100808354040283529160200191611ddd565b820191906000526020600020905b815481529060010190602001808311611dc057829003601f168201915b50505050508152602001600182018054611df690614aa5565b80601f0160208091040260200160405190810160405280929190818152602001828054611e2290614aa5565b8015611e6f5780601f10611e4457610100808354040283529160200191611e6f565b820191906000526020600020905b815481529060010190602001808311611e5257829003601f168201915b50505050508152602001600282018054611e8890614aa5565b80601f0160208091040260200160405190810160405280929190818152602001828054611eb490614aa5565b8015611f015780601f10611ed657610100808354040283529160200191611f01565b820191906000526020600020905b815481529060010190602001808311611ee457829003601f168201915b50505050508152602001600382018054611f1a90614aa5565b80601f0160208091040260200160405190810160405280929190818152602001828054611f4690614aa5565b8015611f935780601f10611f6857610100808354040283529160200191611f93565b820191906000526020600020905b815481529060010190602001808311611f7657829003601f168201915b50505050508152602001600482018054611fac90614aa5565b80601f0160208091040260200160405190810160405280929190818152602001828054611fd890614aa5565b80156120255780601f10611ffa57610100808354040283529160200191612025565b820191906000526020600020905b81548152906001019060200180831161200857829003601f168201915b5050505050815250508152602001600e8201805480602002602001604051908101604052809291908181526020016000905b8282101561210357838290600052602060002001805461207690614aa5565b80601f01602080910402602001604051908101604052809291908181526020018280546120a290614aa5565b80156120ef5780601f106120c4576101008083540402835291602001916120ef565b820191906000526020600020905b8154815290600101906020018083116120d257829003601f168201915b505050505081526020019060010190612057565b505050508152602001600f8201805480602002602001604051908101604052809291908181526020016000905b828210156121dc57838290600052602060002001805461214f90614aa5565b80601f016020809104026020016040519081016040528092919081815260200182805461217b90614aa5565b80156121c85780601f1061219d576101008083540402835291602001916121c8565b820191906000526020600020905b8154815290600101906020018083116121ab57829003601f168201915b505050505081526020019060010190612130565b5050505081526020016010820180546121f490614aa5565b80601f016020809104026020016040519081016040528092919081815260200182805461222090614aa5565b801561226d5780601f106122425761010080835404028352916020019161226d565b820191906000526020600020905b81548152906001019060200180831161225057829003601f168201915b50505091835250506011820154602082015260128201546001600160a01b031660408201526013820180546060909201916122a790614aa5565b80601f01602080910402602001604051908101604052809291908181526020018280546122d390614aa5565b80156123205780601f106122f557610100808354040283529160200191612320565b820191906000526020600020905b81548152906001019060200180831161230357829003601f168201915b5050505050815250509050919050565b61015f546001600160a01b03163314801561235357506001600160a01b03811615155b6040518060400160405280600381526020016231303160e81b8152509061238d5760405162461bcd60e51b815260040161092c9190613ec8565b5061015f546001600160a01b03828116911614610bc95761015f80546001600160a01b0383166001600160a01b031990911617905550565b60606066805461080d90614aa5565b610b343383836131f3565b61015f546001600160a01b03163314806124135750600082815261016460205260409020600501546001600160a01b031633145b61241c57600080fd5b61242582612de4565b6040518060400160405280600381526020016232303960e81b8152509061245f5760405162461bcd60e51b815260040161092c9190613ec8565b506000828152610164602090815260408220600f0180546001810182559083529181902083516109cd939190910191840190613c1b565b61015f546001600160a01b03163314806124ca5750600083815261016460205260409020600501546001600160a01b031633145b6124d357600080fd5b6124dc83612de4565b6040518060400160405280600381526020016232303960e81b815250906125165760405162461bcd60e51b815260040161092c9190613ec8565b50600083815261016460205260409020600f0180548291908490811061253e5761253e614ae0565b906000526020600020019080519060200190610d9f929190613c1b565b836daaeb6d7670e522a718067333cd4e3b156126a1576001600160a01b0381163314156125935761258e858585856132c2565b6126ad565b604051633185c44d60e21b81526daaeb6d7670e522a718067333cd4e9063c6171134906125c69030903390600401614af6565b602060405180830381865afa1580156125e3573d6000803e3d6000fd5b505050506040513d601f19601f820116820180604052508101906126079190614b10565b80156126825750604051633185c44d60e21b81526daaeb6d7670e522a718067333cd4e9063c6171134906126419030908590600401614af6565b602060405180830381865afa15801561265e573d6000803e3d6000fd5b505050506040513d601f19601f820116820180604052508101906126829190614b10565b6126a157604051633b79c77360e21b815233600482015260240161092c565b6126ad858585856132c2565b5050505050565b60606126bf82612de4565b6040518060400160405280600381526020016232303960e81b815250906126f95760405162461bcd60e51b815260040161092c9190613ec8565b506101625460405163079ebc6f60e41b8152600481018490526001600160a01b039091169081906379ebc6f090602401600060405180830381865afa158015612746573d6000803e3d6000fd5b505050506040513d6000823e601f3d908101601f191682016040526118a89190810190614d71565b612776612e4d565b61015f5460408051808201909152600381526231303160e81b6020820152906001600160a01b031633146127bd5760405162461bcd60e51b815260040161092c9190613ec8565b5060006001600160a01b03831661283e57814710156127db57600080fd5b6040516001600160a01b038516908390600081818185875af1925050503d8060008114612824576040519150601f19603f3d011682016040523d82523d6000602084013e612829565b606091505b5050809150508061283957600080fd5b6128bf565b60405163a9059cbb60e01b81526001600160a01b0385811660048301526024820184905284919082169063a9059cbb906044016020604051808303816000875af1158015612890573d6000803e3d6000fd5b505050506040513d601f19601f820116820180604052508101906128b49190614b10565b6128bd57600080fd5b505b506109cd600160fb55565b61015f546001600160a01b03163314806128fe5750600083815261016460205260409020600501546001600160a01b031633145b61290757600080fd5b61291083612de4565b6040518060400160405280600381526020016232303960e81b8152509061294a5760405162461bcd60e51b815260040161092c9190613ec8565b50600083815261016460205260409020600e0180548391908390811061253e5761253e614ae0565b61015f546001600160a01b03163314806129a65750600082815261016460205260409020600501546001600160a01b031633145b6129af57600080fd5b6129b882612de4565b6040518060400160405280600381526020016232303960e81b815250906129f25760405162461bcd60e51b815260040161092c9190613ec8565b5060008281526101646020908152604090912082516109cd92600490920191840190613c1b565b600054610100900460ff1615808015612a395750600054600160ff909116105b80612a535750303b158015612a53575060005460ff166001145b612ab65760405162461bcd60e51b815260206004820152602e60248201527f496e697469616c697a61626c653a20636f6e747261637420697320616c72656160448201526d191e481a5b9a5d1a585b1a5e995960921b606482015260840161092c565b6000805460ff191660011790558015612ad9576000805461ff0019166101001790555b60408051808201909152600381526203130360ec1b60208201526001600160a01b038616612b1a5760405162461bcd60e51b815260040161092c9190613ec8565b5060408051808201909152600381526203130360ec1b60208201526001600160a01b038516612b5c5760405162461bcd60e51b815260040161092c9190613ec8565b5061016080546001600160a01b038087166001600160a01b03199283161790925561015f80548884169083161790556101618054868416908316179055610162805492851692909116919091179055612bb587876132f4565b612bbd613325565b612bc5613354565b612bcd613383565b8015611016576000805461ff0019169055604051600181527f7f26b83ff96e1f2b6a682f133852f6798a09c465da95921460cefb38474024989060200160405180910390a150505050505050565b612c23613145565b6001600160a01b038116612c885760405162461bcd60e51b815260206004820152602660248201527f4f776e61626c653a206e6577206f776e657220697320746865207a65726f206160448201526564647265737360d01b606482015260840161092c565b610bc9816131a0565b61015f546001600160a01b031633148015612cb457506001600160a01b03811615155b6040518060400160405280600381526020016231303160e81b81525090612cee5760405162461bcd60e51b815260040161092c9190613ec8565b50610160546001600160a01b03828116911614610bc95761016080546001600160a01b0383166001600160a01b031990911617905550565b612d2f81612de4565b610bc95760405162461bcd60e51b8152602060048201526018602482015277115490cdcc8c4e881a5b9d985b1a59081d1bdad95b88125160421b604482015260640161092c565b600081815260696020526040902080546001600160a01b0319166001600160a01b0384169081179091558190612dab826118af565b6001600160a01b03167f8c5be1e5ebec7d5bd14f71427d1e84f3dd0314c0f7b2291e5b200ac8c7c3b92560405160405180910390a45050565b6000908152606760205260409020546001600160a01b0316151590565b612e0b33826133c9565b612e275760405162461bcd60e51b815260040161092c90614dde565b6109cd838383613448565b6109cd8383836040518060200160405280600081525061255b565b600260fb541415612ea05760405162461bcd60e51b815260206004820152601f60248201527f5265656e7472616e637947756172643a207265656e7472616e742063616c6c00604482015260640161092c565b600260fb55565b61015f546001600160a01b031633146119a7576101605460408051808201825260128152714352454154455f50524f4a4543545f46454560701b60208201529051636d12dce160e01b81526001600160a01b03909216916000918391636d12dce191612f1591600401613ec8565b602060405180830381865afa158015612f32573d6000803e3d6000fd5b505050506040513d601f19601f82011682018060405250810190612f569190614e2b565b90508015610b345760408051808201825260098152682322a2afaa27a5a2a760b91b6020820152905163bf40fac160e01b81526000916001600160a01b0385169163bf40fac191612fa991600401613ec8565b602060405180830381865afa158015612fc6573d6000803e3d6000fd5b505050506040513d601f19601f82011682018060405250810190612fea9190614b9f565b90506001600160a01b0381161561307d576040516323b872dd60e01b81523360048201523060248201526044810183905281906001600160a01b038216906323b872dd906064016020604051808303816000875af1158015613050573d6000803e3d6000fd5b505050506040513d601f19601f820116820180604052508101906130749190614b10565b610d9f57600080fd5b813410156109cd57600080fd5b610b348282604051806020016040528060008152506135b9565b6000763d602d80600a3d3981f3363d3d373d3d3d363d730000008260601b60e81c176000526e5af43d82803e903d91602b57fd5bf38260781b17602052603760096000f090506001600160a01b0381166131395760405162461bcd60e51b8152602060048201526016602482015275115490cc4c4d8dce8818dc99585d194819985a5b195960521b604482015260640161092c565b919050565b600160fb55565b61012d546001600160a01b031633146119a75760405162461bcd60e51b815260206004820181905260248201527f4f776e61626c653a2063616c6c6572206973206e6f7420746865206f776e6572604482015260640161092c565b61012d80546001600160a01b038381166001600160a01b0319831681179093556040519116919082907f8be0079c531659141344cd1fd0a4f28419497f9722a3daafe3b4186f6b6457e090600090a35050565b816001600160a01b0316836001600160a01b031614156132555760405162461bcd60e51b815260206004820152601960248201527f4552433732313a20617070726f766520746f2063616c6c657200000000000000604482015260640161092c565b6001600160a01b038381166000818152606a6020908152604080832094871680845294825291829020805460ff191686151590811790915591519182527f17307eab39ab6107e8899845ad3d59bd9653f200f220920489ca2b5937696c31910160405180910390a3505050565b6132cc33836133c9565b6132e85760405162461bcd60e51b815260040161092c90614dde565b610d9f848484846135ec565b600054610100900460ff1661331b5760405162461bcd60e51b815260040161092c90614e44565b610b34828261361f565b600054610100900460ff1661334c5760405162461bcd60e51b815260040161092c90614e44565b6119a761366d565b600054610100900460ff1661337b5760405162461bcd60e51b815260040161092c90614e44565b6119a7613694565b600054610100900460ff166133aa5760405162461bcd60e51b815260040161092c90614e44565b6119a7733cc6cdda760b79bafa08df41ecfa224f810dceb660016136c7565b6000806133d5836118af565b9050806001600160a01b0316846001600160a01b0316148061341c57506001600160a01b038082166000908152606a602090815260408083209388168352929052205460ff165b806134405750836001600160a01b031661343584610890565b6001600160a01b0316145b949350505050565b826001600160a01b031661345b826118af565b6001600160a01b0316146134815760405162461bcd60e51b815260040161092c90614e8f565b6001600160a01b0382166134e35760405162461bcd60e51b8152602060048201526024808201527f4552433732313a207472616e7366657220746f20746865207a65726f206164646044820152637265737360e01b606482015260840161092c565b6134f08383836001613858565b826001600160a01b0316613503826118af565b6001600160a01b0316146135295760405162461bcd60e51b815260040161092c90614e8f565b600081815260696020908152604080832080546001600160a01b03199081169091556001600160a01b0387811680865260688552838620805460001901905590871680865283862080546001019055868652606790945282852080549092168417909155905184937fddf252ad1be2c89b69c2b068fc378daa952ba7f163c4a11628f55a4df523b3ef91a4505050565b6135c383836138a7565b6135d06000848484613a22565b6109cd5760405162461bcd60e51b815260040161092c90614ed4565b6135f7848484613448565b61360384848484613a22565b610d9f5760405162461bcd60e51b815260040161092c90614ed4565b600054610100900460ff166136465760405162461bcd60e51b815260040161092c90614e44565b8151613659906065906020850190613c1b565b5080516109cd906066906020840190613c1b565b600054610100900460ff1661313e5760405162461bcd60e51b815260040161092c90614e44565b600054610100900460ff166136bb5760405162461bcd60e51b815260040161092c90614e44565b6097805460ff19169055565b600054610100900460ff166136ee5760405162461bcd60e51b815260040161092c90614e44565b6daaeb6d7670e522a718067333cd4e3b15610b345760405163c3c5a54760e01b81523060048201526daaeb6d7670e522a718067333cd4e9063c3c5a547906024016020604051808303816000875af115801561374e573d6000803e3d6000fd5b505050506040513d601f19601f820116820180604052508101906137729190614b10565b610b345780156137e557604051633e9f1edf60e11b81526daaeb6d7670e522a718067333cd4e90637d3e3dbe906137af9030908690600401614af6565b600060405180830381600087803b1580156137c957600080fd5b505af11580156137dd573d6000803e3d6000fd5b505050505050565b6001600160a01b038216156138275760405163a0af290360e01b81526daaeb6d7670e522a718067333cd4e9063a0af2903906137af9030908690600401614af6565b604051632210724360e11b81523060048201526daaeb6d7670e522a718067333cd4e90634420e486906024016137af565b60408051808201909152600381526203231360ec1b60208201526001600160a01b0385161561389a5760405162461bcd60e51b815260040161092c9190613ec8565b50610d9f84848484613b20565b6001600160a01b0382166138fd5760405162461bcd60e51b815260206004820181905260248201527f4552433732313a206d696e7420746f20746865207a65726f2061646472657373604482015260640161092c565b61390681612de4565b156139535760405162461bcd60e51b815260206004820152601c60248201527f4552433732313a20746f6b656e20616c7265616479206d696e74656400000000604482015260640161092c565b613961600083836001613858565b61396a81612de4565b156139b75760405162461bcd60e51b815260206004820152601c60248201527f4552433732313a20746f6b656e20616c7265616479206d696e74656400000000604482015260640161092c565b6001600160a01b038216600081815260686020908152604080832080546001019055848352606790915280822080546001600160a01b0319168417905551839291907fddf252ad1be2c89b69c2b068fc378daa952ba7f163c4a11628f55a4df523b3ef908290a45050565b60006001600160a01b0384163b15613b1557604051630a85bd0160e11b81526001600160a01b0385169063150b7a0290613a66903390899088908890600401614f26565b6020604051808303816000875af1925050508015613aa1575060408051601f3d908101601f19168201909252613a9e91810190614f59565b60015b613afb573d808015613acf576040519150601f19603f3d011682016040523d82523d6000602084013e613ad4565b606091505b508051613af35760405162461bcd60e51b815260040161092c90614ed4565b805181602001fd5b6001600160e01b031916630a85bd0160e11b149050613440565b506001949350505050565b613b2c84848484613b93565b60975460ff1615610d9f5760405162461bcd60e51b815260206004820152602b60248201527f4552433732315061757361626c653a20746f6b656e207472616e73666572207760448201526a1a1a5b19481c185d5cd95960aa1b606482015260840161092c565b6001811115610d9f576001600160a01b03841615613bd9576001600160a01b03841660009081526068602052604081208054839290613bd3908490614f76565b90915550505b6001600160a01b03831615610d9f576001600160a01b03831660009081526068602052604081208054839290613c10908490614f8d565b909155505050505050565b828054613c2790614aa5565b90600052602060002090601f016020900481019282613c495760008555613c8f565b82601f10613c6257805160ff1916838001178555613c8f565b82800160010185558215613c8f579182015b82811115613c8f578251825591602001919060010190613c74565b50613c9b929150613e0b565b5090565b508054613cab90614aa5565b6000825580601f10613cbb575050565b601f016020900490600052602060002090810190610bc99190613e0b565b828054828255906000526020600020908101928215613d26579160200282015b82811115613d265782518051613d16918491602090910190613c1b565b5091602001919060010190613cf9565b50613c9b929150613e20565b604051806102200160405280600062ffffff168152602001600062ffffff1681526020016000815260200160006001600160a01b03168152602001606081526020016060815260200160006001600160a01b03168152602001606081526020016060815260200160608152602001613dd26040518060a0016040528060608152602001606081526020016060815260200160608152602001606081525090565b81526020016060815260200160608152602001606081526020016000815260200160006001600160a01b03168152602001606081525090565b5b80821115613c9b5760008155600101613e0c565b80821115613c9b576000613e348282613c9f565b50600101613e20565b6001600160e01b031981168114610bc957600080fd5b600060208284031215613e6557600080fd5b81356118a881613e3d565b60005b83811015613e8b578181015183820152602001613e73565b83811115610d9f5750506000910152565b60008151808452613eb4816020860160208601613e70565b601f01601f19169290920160200192915050565b6020815260006118a86020830184613e9c565b600060208284031215613eed57600080fd5b5035919050565b6001600160a01b0381168114610bc957600080fd5b803561313981613ef4565b60008060408385031215613f2757600080fd5b8235613f3281613ef4565b946020939093013593505050565b634e487b7160e01b600052604160045260246000fd5b60405160a081016001600160401b0381118282101715613f7857613f78613f40565b60405290565b60405161022081016001600160401b0381118282101715613f7857613f78613f40565b604051601f8201601f191681016001600160401b0381118282101715613fc957613fc9613f40565b604052919050565b60006001600160401b03821115613fea57613fea613f40565b50601f01601f191660200190565b600061400b61400684613fd1565b613fa1565b905082815283838301111561401f57600080fd5b828260208301376000602084830101529392505050565b600082601f83011261404757600080fd5b6118a883833560208501613ff8565b6000806040838503121561406957600080fd5b8235915060208301356001600160401b0381111561408657600080fd5b61409285828601614036565b9150509250929050565b600080604083850312156140af57600080fd5b50508035926020909101359150565b6000602082840312156140d057600080fd5b81356118a881613ef4565b6000806000606084860312156140f057600080fd5b83356140fb81613ef4565b9250602084013561410b81613ef4565b929592945050506040919091013590565b8015158114610bc957600080fd5b80356131398161411c565b6000806040838503121561414857600080fd5b82359150602083013561415a8161411c565b809150509250929050565b803562ffffff8116811461313957600080fd5b600060a0828403121561418a57600080fd5b614192613f56565b905081356001600160401b03808211156141ab57600080fd5b6141b785838601614036565b835260208401359150808211156141cd57600080fd5b6141d985838601614036565b602084015260408401359150808211156141f257600080fd5b6141fe85838601614036565b6040840152606084013591508082111561421757600080fd5b61422385838601614036565b6060840152608084013591508082111561423c57600080fd5b5061424984828501614036565b60808301525092915050565b60006001600160401b0382111561426e5761426e613f40565b5060051b60200190565b600082601f83011261428957600080fd5b8135602061429961400683614255565b82815260059290921b840181019181810190868411156142b857600080fd5b8286015b848110156142f75780356001600160401b038111156142db5760008081fd5b6142e98986838b0101614036565b8452509183019183016142bc565b509695505050505050565b600082601f83011261431357600080fd5b8135602061432361400683614255565b82815260059290921b8401810191818101908684111561434257600080fd5b8286015b848110156142f757803561435981613ef4565b8352918301918301614346565b600080600080600060a0868803121561437e57600080fd5b85356001600160401b038082111561439557600080fd5b90870190610220828a0312156143aa57600080fd5b6143b2613f7e565b6143bb83614165565b81526143c960208401614165565b6020820152604083013560408201526143e460608401613f09565b60608201526080830135828111156143fb57600080fd5b6144078b828601614036565b60808301525060a08301358281111561441f57600080fd5b61442b8b828601614036565b60a08301525061443d60c08401613f09565b60c082015260e08301358281111561445457600080fd5b6144608b828601614036565b60e083015250610100808401358381111561447a57600080fd5b6144868c828701614036565b82840152505061012080840135838111156144a057600080fd5b6144ac8c828701614036565b82840152505061014080840135838111156144c657600080fd5b6144d28c828701614178565b82840152505061016080840135838111156144ec57600080fd5b6144f88c828701614278565b828401525050610180808401358381111561451257600080fd5b61451e8c828701614278565b8284015250506101a0808401358381111561453857600080fd5b6145448c828701614036565b8284015250506101c08084013581830152506101e0614564818501613f09565b90820152610200838101358381111561457c57600080fd5b6145888c828701614036565b8284015250508097505060208801359150808211156145a657600080fd5b506145b388828901614302565b9450506145c26040870161412a565b94979396509394606081013594506080013592915050565b6000815160a084526145ef60a0850182613e9c565b9050602083015184820360208601526146088282613e9c565b915050604083015184820360408601526146228282613e9c565b9150506060830151848203606086015261463c8282613e9c565b915050608083015184820360808601526117be8282613e9c565b600081518084526020808501808196508360051b8101915082860160005b8581101561469e57828403895261468c848351613e9c565b98850198935090840190600101614674565b5091979650505050505050565b602081526146c160208201835162ffffff169052565b600060208301516146d9604084018262ffffff169052565b506040830151606083015260608301516146fe60808401826001600160a01b03169052565b5060808301516102208060a085015261471b610240850183613e9c565b915060a0850151601f19808685030160c08701526147398483613e9c565b935060c0870151915061475760e08701836001600160a01b03169052565b60e087015191506101008187860301818801526147748584613e9c565b9450808801519250506101208187860301818801526147938584613e9c565b9450808801519250506101408187860301818801526147b28584613e9c565b9450808801519250506101608187860301818801526147d185846145da565b9450808801519250506101808187860301818801526147f08584614656565b9450808801519250506101a081878603018188015261480f8584614656565b9450808801519250506101c081878603018188015261482e8584613e9c565b908801516101e088810191909152880151909450915061020061485b818801846001600160a01b03169052565b8701518685039091018387015290506148748382613e9c565b9695505050505050565b6000806040838503121561489157600080fd5b823561489c81613ef4565b9150602083013561415a8161411c565b6000806000606084860312156148c157600080fd5b833592506020840135915060408401356001600160401b038111156148e557600080fd5b6148f186828701614036565b9150509250925092565b6000806000806080858703121561491157600080fd5b843561491c81613ef4565b9350602085013561492c81613ef4565b92506040850135915060608501356001600160401b0381111561494e57600080fd5b8501601f8101871361495f57600080fd5b61496e87823560208401613ff8565b91505092959194509250565b60008060006060848603121561498f57600080fd5b8335925060208401356001600160401b038111156149ac57600080fd5b6149b886828701614036565b925050604084013590509250925092565b60008060008060008060c087890312156149e257600080fd5b86356001600160401b03808211156149f957600080fd5b614a058a838b01614036565b97506020890135915080821115614a1b57600080fd5b50614a2889828a01614036565b9550506040870135614a3981613ef4565b93506060870135614a4981613ef4565b92506080870135614a5981613ef4565b915060a0870135614a6981613ef4565b809150509295509295509295565b60008060408385031215614a8a57600080fd5b8235614a9581613ef4565b9150602083013561415a81613ef4565b600181811c90821680614ab957607f821691505b60208210811415614ada57634e487b7160e01b600052602260045260246000fd5b50919050565b634e487b7160e01b600052603260045260246000fd5b6001600160a01b0392831681529116602082015260400190565b600060208284031215614b2257600080fd5b81516118a88161411c565b634e487b7160e01b600052601160045260246000fd5b6000816000190483118215151615614b5d57614b5d614b2d565b500290565b600082614b7f57634e487b7160e01b600052601260045260246000fd5b500490565b6000600019821415614b9857614b98614b2d565b5060010190565b600060208284031215614bb157600080fd5b81516118a881613ef4565b600081518084526020808501945080840160005b83811015614bf55781516001600160a01b031687529582019590820190600101614bd0565b509495945050505050565b6000610100808352614c1d8184018c516001600160a01b03169052565b60208b0151610120818186015260408d01519150610140614c448187018462ffffff169052565b60608e015162ffffff8116610160880152925060808e01519250610180614c718188018562ffffff169052565b60a08f015162ffffff166101a088015260c08f01516101c08801919091529250614c9f610280870184613e9c565b60e08f01516101e0880152938e01516001600160a01b0316610200870152818e015186850360ff1901610220880152939250614cdb8385613e9c565b908e0151805161024088015260208101516102608801529093509150614cfe9050565b506001600160a01b038a1660208401526001600160a01b03891660408401526001600160a01b03881660608401526001600160a01b038716608084015282810360a0840152614d4d8187614bbc565b915050614d5e60c083018515159052565b8260e08301529998505050505050505050565b600060208284031215614d8357600080fd5b81516001600160401b03811115614d9957600080fd5b8201601f81018413614daa57600080fd5b8051614db861400682613fd1565b818152856020838501011115614dcd57600080fd5b6117be826020830160208601613e70565b6020808252602d908201527f4552433732313a2063616c6c6572206973206e6f7420746f6b656e206f776e6560408201526c1c881bdc88185c1c1c9bdd9959609a1b606082015260800190565b600060208284031215614e3d57600080fd5b5051919050565b6020808252602b908201527f496e697469616c697a61626c653a20636f6e7472616374206973206e6f74206960408201526a6e697469616c697a696e6760a81b606082015260800190565b60208082526025908201527f4552433732313a207472616e736665722066726f6d20696e636f72726563742060408201526437bbb732b960d91b606082015260800190565b60208082526032908201527f4552433732313a207472616e7366657220746f206e6f6e20455243373231526560408201527131b2b4bb32b91034b6b83632b6b2b73a32b960711b606082015260800190565b6001600160a01b038581168252841660208201526040810183905260806060820181905260009061487490830184613e9c565b600060208284031215614f6b57600080fd5b81516118a881613e3d565b600082821015614f8857614f88614b2d565b500390565b60008219821115614fa057614fa0614b2d565b50019056fea264697066735822122001dd5b6ae2158b295c57ad19f09ae393f5084c898bd670d22c3a7ecd81263c4c64736f6c634300080c0033",
  "linkReferences": {},
  "deployedLinkReferences": {}
}