{
  "_format": "hh-sol-artifact-1",
  "contractName": "GenerativeProject",
  "sourceName": "contracts/nfts/GenerativeProject.sol",
  "abi": [
    {
      "inputs": [
        {
          "internalType": "address",
          "name": "operator",
          "type": "address"
        }
      ],
      "name": "OperatorNotAllowed",
      "type": "error"
    },
    {
      "anonymous": false,
      "inputs": [
        {
          "indexed": true,
          "internalType": "address",
          "name": "owner",
          "type": "address"
        },
        {
          "indexed": true,
          "internalType": "address",
          "name": "approved",
          "type": "address"
        },
        {
          "indexed": true,
          "internalType": "uint256",
          "name": "tokenId",
          "type": "uint256"
        }
      ],
      "name": "Approval",
      "type": "event"
    },
    {
      "anonymous": false,
      "inputs": [
        {
          "indexed": true,
          "internalType": "address",
          "name": "owner",
          "type": "address"
        },
        {
          "indexed": true,
          "internalType": "address",
          "name": "operator",
          "type": "address"
        },
        {
          "indexed": false,
          "internalType": "bool",
          "name": "approved",
          "type": "bool"
        }
      ],
      "name": "ApprovalForAll",
      "type": "event"
    },
    {
      "anonymous": false,
      "inputs": [
        {
          "indexed": false,
          "internalType": "uint8",
          "name": "version",
          "type": "uint8"
        }
      ],
      "name": "Initialized",
      "type": "event"
    },
    {
      "anonymous": false,
      "inputs": [
        {
          "indexed": true,
          "internalType": "address",
          "name": "previousOwner",
          "type": "address"
        },
        {
          "indexed": true,
          "internalType": "address",
          "name": "newOwner",
          "type": "address"
        }
      ],
      "name": "OwnershipTransferred",
      "type": "event"
    },
    {
      "anonymous": false,
      "inputs": [
        {
          "indexed": false,
          "internalType": "address",
          "name": "account",
          "type": "address"
        }
      ],
      "name": "Paused",
      "type": "event"
    },
    {
      "anonymous": false,
      "inputs": [
        {
          "indexed": true,
          "internalType": "address",
          "name": "from",
          "type": "address"
        },
        {
          "indexed": true,
          "internalType": "address",
          "name": "to",
          "type": "address"
        },
        {
          "indexed": true,
          "internalType": "uint256",
          "name": "tokenId",
          "type": "uint256"
        }
      ],
      "name": "Transfer",
      "type": "event"
    },
    {
      "anonymous": false,
      "inputs": [
        {
          "indexed": false,
          "internalType": "address",
          "name": "account",
          "type": "address"
        }
      ],
      "name": "Unpaused",
      "type": "event"
    },
    {
      "inputs": [],
      "name": "_admin",
      "outputs": [
        {
          "internalType": "address",
          "name": "",
          "type": "address"
        }
      ],
      "stateMutability": "view",
      "type": "function"
    },
    {
      "inputs": [],
      "name": "_paramsAddress",
      "outputs": [
        {
          "internalType": "address",
          "name": "",
          "type": "address"
        }
      ],
      "stateMutability": "view",
      "type": "function"
    },
    {
      "inputs": [],
      "name": "_projectDataContextAddr",
      "outputs": [
        {
          "internalType": "address",
          "name": "",
          "type": "address"
        }
      ],
      "stateMutability": "view",
      "type": "function"
    },
    {
      "inputs": [],
      "name": "_projectImplementation",
      "outputs": [
        {
          "internalType": "address",
          "name": "",
          "type": "address"
        }
      ],
      "stateMutability": "view",
      "type": "function"
    },
    {
      "inputs": [],
      "name": "_randomizerAddr",
      "outputs": [
        {
          "internalType": "address",
          "name": "",
          "type": "address"
        }
      ],
      "stateMutability": "view",
      "type": "function"
    },
    {
      "inputs": [
        {
          "internalType": "uint256",
          "name": "projectId",
          "type": "uint256"
        },
        {
          "internalType": "string",
          "name": "_script",
          "type": "string"
        }
      ],
      "name": "addProjectScript",
      "outputs": [],
      "stateMutability": "nonpayable",
      "type": "function"
    },
    {
      "inputs": [
        {
          "internalType": "address",
          "name": "to",
          "type": "address"
        },
        {
          "internalType": "uint256",
          "name": "tokenId",
          "type": "uint256"
        }
      ],
      "name": "approve",
      "outputs": [],
      "stateMutability": "nonpayable",
      "type": "function"
    },
    {
      "inputs": [
        {
          "internalType": "address",
          "name": "owner",
          "type": "address"
        }
      ],
      "name": "balanceOf",
      "outputs": [
        {
          "internalType": "uint256",
          "name": "",
          "type": "uint256"
        }
      ],
      "stateMutability": "view",
      "type": "function"
    },
    {
      "inputs": [
        {
          "internalType": "address",
          "name": "newAdm",
          "type": "address"
        }
      ],
      "name": "changeAdmin",
      "outputs": [],
      "stateMutability": "nonpayable",
      "type": "function"
    },
    {
      "inputs": [
        {
          "internalType": "address",
          "name": "newAddr",
          "type": "address"
        }
      ],
      "name": "changeDataContextAddr",
      "outputs": [],
      "stateMutability": "nonpayable",
      "type": "function"
    },
    {
      "inputs": [
        {
          "internalType": "address",
          "name": "newAddr",
          "type": "address"
        }
      ],
      "name": "changeParamAddr",
      "outputs": [],
      "stateMutability": "nonpayable",
      "type": "function"
    },
    {
      "inputs": [
        {
          "internalType": "address",
          "name": "newAddr",
          "type": "address"
        }
      ],
      "name": "changeProjectImplementation",
      "outputs": [],
      "stateMutability": "nonpayable",
      "type": "function"
    },
    {
      "inputs": [
        {
          "internalType": "address",
          "name": "newAddr",
          "type": "address"
        }
      ],
      "name": "changeRandomizerAddr",
      "outputs": [],
      "stateMutability": "nonpayable",
      "type": "function"
    },
    {
      "inputs": [
        {
          "internalType": "uint256",
          "name": "projectId",
          "type": "uint256"
        }
      ],
      "name": "completeProject",
      "outputs": [],
      "stateMutability": "nonpayable",
      "type": "function"
    },
    {
      "inputs": [
        {
          "internalType": "uint256",
          "name": "projectId",
          "type": "uint256"
        },
        {
          "internalType": "uint256",
          "name": "scriptIndex",
          "type": "uint256"
        }
      ],
      "name": "deleteProjectScript",
      "outputs": [],
      "stateMutability": "nonpayable",
      "type": "function"
    },
    {
      "inputs": [
        {
          "internalType": "uint256",
          "name": "tokenId",
          "type": "uint256"
        }
      ],
      "name": "getApproved",
      "outputs": [
        {
          "internalType": "address",
          "name": "",
          "type": "address"
        }
      ],
      "stateMutability": "view",
      "type": "function"
    },
    {
      "inputs": [],
      "name": "getGenerativeNFTImpl",
      "outputs": [
        {
          "internalType": "address",
          "name": "impl",
          "type": "address"
        }
      ],
      "stateMutability": "view",
      "type": "function"
    },
    {
      "inputs": [
        {
          "internalType": "string",
          "name": "name",
          "type": "string"
        },
        {
          "internalType": "string",
          "name": "symbol",
          "type": "string"
        },
        {
          "internalType": "address",
          "name": "admin",
          "type": "address"
        },
        {
          "internalType": "address",
          "name": "paramsAddress",
          "type": "address"
        },
        {
          "internalType": "address",
          "name": "randomizerAddr",
          "type": "address"
        },
        {
          "internalType": "address",
          "name": "projectDataContextAddr",
          "type": "address"
        }
      ],
      "name": "initialize",
      "outputs": [],
      "stateMutability": "nonpayable",
      "type": "function"
    },
    {
      "inputs": [
        {
          "internalType": "address",
          "name": "owner",
          "type": "address"
        },
        {
          "internalType": "address",
          "name": "operator",
          "type": "address"
        }
      ],
      "name": "isApprovedForAll",
      "outputs": [
        {
          "internalType": "bool",
          "name": "",
          "type": "bool"
        }
      ],
      "stateMutability": "view",
      "type": "function"
    },
    {
      "inputs": [
        {
          "components": [
            {
              "internalType": "uint24",
              "name": "_maxSupply",
              "type": "uint24"
            },
            {
              "internalType": "uint24",
              "name": "_limit",
              "type": "uint24"
            },
            {
              "internalType": "uint256",
              "name": "_mintPrice",
              "type": "uint256"
            },
            {
              "internalType": "address",
              "name": "_mintPriceAddr",
              "type": "address"
            },
            {
              "internalType": "string",
              "name": "_name",
              "type": "string"
            },
            {
              "internalType": "string",
              "name": "_creator",
              "type": "string"
            },
            {
              "internalType": "address",
              "name": "_creatorAddr",
              "type": "address"
            },
            {
              "internalType": "string",
              "name": "_license",
              "type": "string"
            },
            {
              "internalType": "string",
              "name": "_desc",
              "type": "string"
            },
            {
              "internalType": "string",
              "name": "_image",
              "type": "string"
            },
            {
              "components": [
                {
                  "internalType": "string",
                  "name": "_web",
                  "type": "string"
                },
                {
                  "internalType": "string",
                  "name": "_twitter",
                  "type": "string"
                },
                {
                  "internalType": "string",
                  "name": "_discord",
                  "type": "string"
                },
                {
                  "internalType": "string",
                  "name": "_medium",
                  "type": "string"
                },
                {
                  "internalType": "string",
                  "name": "_instagram",
                  "type": "string"
                }
              ],
              "internalType": "struct NFTProject.ProjectSocial",
              "name": "_social",
              "type": "tuple"
            },
            {
              "internalType": "string[]",
              "name": "_scriptType",
              "type": "string[]"
            },
            {
              "internalType": "string[]",
              "name": "_scripts",
              "type": "string[]"
            },
            {
              "internalType": "string",
              "name": "_styles",
              "type": "string"
            },
            {
              "internalType": "uint256",
              "name": "_completeTime",
              "type": "uint256"
            },
            {
              "internalType": "address",
              "name": "_genNFTAddr",
              "type": "address"
            },
            {
              "internalType": "string",
              "name": "_itemDesc",
              "type": "string"
            },
            {
              "internalType": "address[]",
              "name": "_reserves",
              "type": "address[]"
            },
            {
              "internalType": "uint256",
              "name": "_royalty",
              "type": "uint256"
            }
          ],
          "internalType": "struct NFTProject.Project",
          "name": "project",
          "type": "tuple"
        },
        {
          "internalType": "bool",
          "name": "disable",
          "type": "bool"
        },
        {
          "internalType": "uint256",
          "name": "openingTime",
          "type": "uint256"
        }
      ],
      "name": "mint",
      "outputs": [
        {
          "internalType": "uint256",
          "name": "",
          "type": "uint256"
        }
      ],
      "stateMutability": "payable",
      "type": "function"
    },
    {
      "inputs": [],
      "name": "name",
      "outputs": [
        {
          "internalType": "string",
          "name": "",
          "type": "string"
        }
      ],
      "stateMutability": "view",
      "type": "function"
    },
    {
      "inputs": [],
      "name": "owner",
      "outputs": [
        {
          "internalType": "address",
          "name": "",
          "type": "address"
        }
      ],
      "stateMutability": "view",
      "type": "function"
    },
    {
      "inputs": [
        {
          "internalType": "uint256",
          "name": "tokenId",
          "type": "uint256"
        }
      ],
      "name": "ownerOf",
      "outputs": [
        {
          "internalType": "address",
          "name": "",
          "type": "address"
        }
      ],
      "stateMutability": "view",
      "type": "function"
    },
    {
      "inputs": [],
      "name": "paused",
      "outputs": [
        {
          "internalType": "bool",
          "name": "",
          "type": "bool"
        }
      ],
      "stateMutability": "view",
      "type": "function"
    },
    {
      "inputs": [
        {
          "internalType": "uint256",
          "name": "projectId",
          "type": "uint256"
        }
      ],
      "name": "projectDetails",
      "outputs": [
        {
          "components": [
            {
              "internalType": "uint24",
              "name": "_maxSupply",
              "type": "uint24"
            },
            {
              "internalType": "uint24",
              "name": "_limit",
              "type": "uint24"
            },
            {
              "internalType": "uint256",
              "name": "_mintPrice",
              "type": "uint256"
            },
            {
              "internalType": "address",
              "name": "_mintPriceAddr",
              "type": "address"
            },
            {
              "internalType": "string",
              "name": "_name",
              "type": "string"
            },
            {
              "internalType": "string",
              "name": "_creator",
              "type": "string"
            },
            {
              "internalType": "address",
              "name": "_creatorAddr",
              "type": "address"
            },
            {
              "internalType": "string",
              "name": "_license",
              "type": "string"
            },
            {
              "internalType": "string",
              "name": "_desc",
              "type": "string"
            },
            {
              "internalType": "string",
              "name": "_image",
              "type": "string"
            },
            {
              "components": [
                {
                  "internalType": "string",
                  "name": "_web",
                  "type": "string"
                },
                {
                  "internalType": "string",
                  "name": "_twitter",
                  "type": "string"
                },
                {
                  "internalType": "string",
                  "name": "_discord",
                  "type": "string"
                },
                {
                  "internalType": "string",
                  "name": "_medium",
                  "type": "string"
                },
                {
                  "internalType": "string",
                  "name": "_instagram",
                  "type": "string"
                }
              ],
              "internalType": "struct NFTProject.ProjectSocial",
              "name": "_social",
              "type": "tuple"
            },
            {
              "internalType": "string[]",
              "name": "_scriptType",
              "type": "string[]"
            },
            {
              "internalType": "string[]",
              "name": "_scripts",
              "type": "string[]"
            },
            {
              "internalType": "string",
              "name": "_styles",
              "type": "string"
            },
            {
              "internalType": "uint256",
              "name": "_completeTime",
              "type": "uint256"
            },
            {
              "internalType": "address",
              "name": "_genNFTAddr",
              "type": "address"
            },
            {
              "internalType": "string",
              "name": "_itemDesc",
              "type": "string"
            },
            {
              "internalType": "address[]",
              "name": "_reserves",
              "type": "address[]"
            },
            {
              "internalType": "uint256",
              "name": "_royalty",
              "type": "uint256"
            }
          ],
          "internalType": "struct NFTProject.Project",
          "name": "project",
          "type": "tuple"
        }
      ],
      "stateMutability": "view",
      "type": "function"
    },
    {
      "inputs": [
        {
          "internalType": "uint256",
          "name": "projectId",
          "type": "uint256"
        }
      ],
      "name": "projectStatus",
      "outputs": [
        {
          "internalType": "bool",
          "name": "enable",
          "type": "bool"
        }
      ],
      "stateMutability": "view",
      "type": "function"
    },
    {
      "inputs": [],
      "name": "renounceOwnership",
      "outputs": [],
      "stateMutability": "nonpayable",
      "type": "function"
    },
    {
      "inputs": [
        {
          "internalType": "uint256",
          "name": "projectId",
          "type": "uint256"
        },
        {
          "internalType": "uint256",
          "name": "_salePrice",
          "type": "uint256"
        }
      ],
      "name": "royaltyInfo",
      "outputs": [
        {
          "internalType": "address",
          "name": "receiver",
          "type": "address"
        },
        {
          "internalType": "uint256",
          "name": "royaltyAmount",
          "type": "uint256"
        }
      ],
      "stateMutability": "view",
      "type": "function"
    },
    {
      "inputs": [
        {
          "internalType": "address",
          "name": "from",
          "type": "address"
        },
        {
          "internalType": "address",
          "name": "to",
          "type": "address"
        },
        {
          "internalType": "uint256",
          "name": "tokenId",
          "type": "uint256"
        }
      ],
      "name": "safeTransferFrom",
      "outputs": [],
      "stateMutability": "nonpayable",
      "type": "function"
    },
    {
      "inputs": [
        {
          "internalType": "address",
          "name": "from",
          "type": "address"
        },
        {
          "internalType": "address",
          "name": "to",
          "type": "address"
        },
        {
          "internalType": "uint256",
          "name": "tokenId",
          "type": "uint256"
        },
        {
          "internalType": "bytes",
          "name": "data",
          "type": "bytes"
        }
      ],
      "name": "safeTransferFrom",
      "outputs": [],
      "stateMutability": "nonpayable",
      "type": "function"
    },
    {
      "inputs": [
        {
          "internalType": "address",
          "name": "operator",
          "type": "address"
        },
        {
          "internalType": "bool",
          "name": "approved",
          "type": "bool"
        }
      ],
      "name": "setApprovalForAll",
      "outputs": [],
      "stateMutability": "nonpayable",
      "type": "function"
    },
    {
      "inputs": [
        {
          "internalType": "uint256",
          "name": "projectId",
          "type": "uint256"
        },
        {
          "internalType": "bool",
          "name": "enable",
          "type": "bool"
        }
      ],
      "name": "setProjectStatus",
      "outputs": [],
      "stateMutability": "nonpayable",
      "type": "function"
    },
    {
      "inputs": [
        {
          "internalType": "bytes4",
          "name": "interfaceId",
          "type": "bytes4"
        }
      ],
      "name": "supportsInterface",
      "outputs": [
        {
          "internalType": "bool",
          "name": "",
          "type": "bool"
        }
      ],
      "stateMutability": "view",
      "type": "function"
    },
    {
      "inputs": [],
      "name": "symbol",
      "outputs": [
        {
          "internalType": "string",
          "name": "",
          "type": "string"
        }
      ],
      "stateMutability": "view",
      "type": "function"
    },
    {
      "inputs": [
        {
          "internalType": "uint256",
          "name": "projectId",
          "type": "uint256"
        }
      ],
      "name": "tokenURI",
      "outputs": [
        {
          "internalType": "string",
          "name": "result",
          "type": "string"
        }
      ],
      "stateMutability": "view",
      "type": "function"
    },
    {
      "inputs": [
        {
          "internalType": "address",
          "name": "from",
          "type": "address"
        },
        {
          "internalType": "address",
          "name": "to",
          "type": "address"
        },
        {
          "internalType": "uint256",
          "name": "tokenId",
          "type": "uint256"
        }
      ],
      "name": "transferFrom",
      "outputs": [],
      "stateMutability": "nonpayable",
      "type": "function"
    },
    {
      "inputs": [
        {
          "internalType": "address",
          "name": "newOwner",
          "type": "address"
        }
      ],
      "name": "transferOwnership",
      "outputs": [],
      "stateMutability": "nonpayable",
      "type": "function"
    },
    {
      "inputs": [
        {
          "internalType": "uint256",
          "name": "projectId",
          "type": "uint256"
        },
        {
          "internalType": "string",
          "name": "creatorName",
          "type": "string"
        }
      ],
      "name": "updateProjectCreatorName",
      "outputs": [],
      "stateMutability": "nonpayable",
      "type": "function"
    },
    {
      "inputs": [
        {
          "internalType": "uint256",
          "name": "projectId",
          "type": "uint256"
        },
        {
          "internalType": "string",
          "name": "license",
          "type": "string"
        }
      ],
      "name": "updateProjectLicense",
      "outputs": [],
      "stateMutability": "nonpayable",
      "type": "function"
    },
    {
      "inputs": [
        {
          "internalType": "uint256",
          "name": "projectId",
          "type": "uint256"
        },
        {
          "internalType": "string",
          "name": "projectName",
          "type": "string"
        }
      ],
      "name": "updateProjectName",
      "outputs": [],
      "stateMutability": "nonpayable",
      "type": "function"
    },
    {
      "inputs": [
        {
          "internalType": "uint256",
          "name": "projectId",
          "type": "uint256"
        },
        {
          "internalType": "uint256",
          "name": "price",
          "type": "uint256"
        }
      ],
      "name": "updateProjectPrice",
      "outputs": [],
      "stateMutability": "nonpayable",
      "type": "function"
    },
    {
      "inputs": [
        {
          "internalType": "uint256",
          "name": "projectId",
          "type": "uint256"
        },
        {
          "internalType": "address",
          "name": "priceAddress",
          "type": "address"
        }
      ],
      "name": "updateProjectPriceAddress",
      "outputs": [],
      "stateMutability": "nonpayable",
      "type": "function"
    },
    {
      "inputs": [
        {
          "internalType": "uint256",
          "name": "projectId",
          "type": "uint256"
        },
        {
          "internalType": "uint256",
          "name": "scriptIndex",
          "type": "uint256"
        },
        {
          "internalType": "string",
          "name": "script",
          "type": "string"
        }
      ],
      "name": "updateProjectScript",
      "outputs": [],
      "stateMutability": "nonpayable",
      "type": "function"
    },
    {
      "inputs": [
        {
          "internalType": "uint256",
          "name": "projectId",
          "type": "uint256"
        },
        {
          "internalType": "string",
          "name": "scriptType",
          "type": "string"
        },
        {
          "internalType": "uint256",
          "name": "i",
          "type": "uint256"
        }
      ],
      "name": "updateProjectScriptType",
      "outputs": [],
      "stateMutability": "nonpayable",
      "type": "function"
    },
    {
      "inputs": [
        {
          "internalType": "uint256",
          "name": "projectId",
          "type": "uint256"
        },
        {
          "components": [
            {
              "internalType": "string",
              "name": "_web",
              "type": "string"
            },
            {
              "internalType": "string",
              "name": "_twitter",
              "type": "string"
            },
            {
              "internalType": "string",
              "name": "_discord",
              "type": "string"
            },
            {
              "internalType": "string",
              "name": "_medium",
              "type": "string"
            },
            {
              "internalType": "string",
              "name": "_instagram",
              "type": "string"
            }
          ],
          "internalType": "struct NFTProject.ProjectSocial",
          "name": "data",
          "type": "tuple"
        }
      ],
      "name": "updateProjectSocial",
      "outputs": [],
      "stateMutability": "nonpayable",
      "type": "function"
    },
    {
      "inputs": [
        {
          "internalType": "address",
          "name": "receiver",
          "type": "address"
        },
        {
          "internalType": "address",
          "name": "erc20Addr",
          "type": "address"
        },
        {
          "internalType": "uint256",
          "name": "amount",
          "type": "uint256"
        }
      ],
      "name": "withdraw",
      "outputs": [],
      "stateMutability": "nonpayable",
      "type": "function"
    }
  ],
  "bytecode": "0x608060405234801561001057600080fd5b50615dfc80620000216000396000f3fe60806040526004361061027d5760003560e01c806370a082311161014f578063acad0124116100c1578063daf618001161007a578063daf61800146107c5578063e283d82f146107e5578063e56f2fe414610805578063e985e9c514610825578063f2fde38b1461086e578063febfd6c31461088e57600080fd5b8063acad012414610704578063adfc7dae14610724578063b1656ba314610745578063b88d4fde14610765578063c87b56dd14610785578063d9caed12146107a557600080fd5b80638dd91a56116101135780638dd91a56146106425780638e1ab7771461066f5780638f2839701461068f57806392655336146106af57806395d89b41146106cf578063a22cb465146106e457600080fd5b806370a08231146105ad578063715018a6146105cd5780637c582908146105e257806389abfc9f146106025780638da5cb5b1461062357600080fd5b806325b75d68116101f3578063472f1e02116101ac578063472f1e02146104f357806350ac589214610513578063575b57ea146105335780635c975abb146105545780636352211e1461056c57806366215eb41461058c57600080fd5b806325b75d68146104145780632a55205a14610434578063300b4800146104735780633af6cd1e1461049257806342842e0e146104b257806345bf4d08146104d257600080fd5b8063095ea7b311610245578063095ea7b3146103545780630d17067314610374578063166b7469146103945780631ca9741b146103b45780632245f152146103d457806323b872dd146103f457600080fd5b806301bc45c91461028257806301ffc9a7146102c057806306fdde03146102f057806306fe72a814610312578063081812fc14610334575b600080fd5b34801561028e57600080fd5b5061015f546102a3906001600160a01b031681565b6040516001600160a01b0390911681526020015b60405180910390f35b3480156102cc57600080fd5b506102e06102db366004614993565b6108ae565b60405190151581526020016102b7565b3480156102fc57600080fd5b50610305610900565b6040516102b79190614a08565b34801561031e57600080fd5b5061033261032d366004614a40565b610992565b005b34801561034057600080fd5b506102a361034f366004614a5d565b610a2f565b34801561036057600080fd5b5061033261036f366004614a76565b610a56565b34801561038057600080fd5b5061033261038f366004614bb8565b610b6c565b3480156103a057600080fd5b506103326103af366004614bfe565b610c8a565b3480156103c057600080fd5b506103326103cf366004614a40565b610d7b565b3480156103e057600080fd5b506103326103ef366004614a5d565b610e10565b34801561040057600080fd5b5061033261040f366004614c20565b610ec1565b34801561042057600080fd5b5061033261042f366004614bb8565b611017565b34801561044057600080fd5b5061045461044f366004614bfe565b611135565b604080516001600160a01b0390931683526020830191909152016102b7565b34801561047f57600080fd5b50610165546001600160a01b03166102a3565b34801561049e57600080fd5b506103326104ad366004614c7a565b611166565b3480156104be57600080fd5b506103326104cd366004614c20565b611337565b6104e56104e0366004614eab565b611482565b6040519081526020016102b7565b3480156104ff57600080fd5b5061033261050e366004614a40565b611afa565b34801561051f57600080fd5b506102e061052e366004614a5d565b611b8f565b34801561053f57600080fd5b50610162546102a3906001600160a01b031681565b34801561056057600080fd5b5060975460ff166102e0565b34801561057857600080fd5b506102a3610587366004614a5d565b611c74565b34801561059857600080fd5b50610161546102a3906001600160a01b031681565b3480156105b957600080fd5b506104e56105c8366004614a40565b611cd4565b3480156105d957600080fd5b50610332611d5a565b3480156105ee57600080fd5b506103326105fd366004615125565b611d6e565b34801561060e57600080fd5b50610165546102a3906001600160a01b031681565b34801561062f57600080fd5b5061012d546001600160a01b03166102a3565b34801561064e57600080fd5b5061066261065d366004614a5d565b611eea565b6040516102b7919061526b565b34801561067b57600080fd5b5061033261068a36600461546b565b6128dd565b34801561069b57600080fd5b506103326106aa366004614a40565b612aa7565b3480156106bb57600080fd5b506103326106ca366004614bfe565b612b3c565b3480156106db57600080fd5b50610305612c99565b3480156106f057600080fd5b506103326106ff3660046154a7565b612ca8565b34801561071057600080fd5b5061033261071f366004614bb8565b612cb3565b34801561073057600080fd5b50610160546102a3906001600160a01b031681565b34801561075157600080fd5b506103326107603660046154d5565b612d9c565b34801561077157600080fd5b50610332610780366004615524565b612e93565b34801561079157600080fd5b506103056107a0366004614a5d565b612fec565b3480156107b157600080fd5b506103326107c0366004614c20565b6130a6565b3480156107d157600080fd5b506103326107e03660046155a3565b613202565b3480156107f157600080fd5b50610332610800366004614bb8565b6132dc565b34801561081157600080fd5b506103326108203660046155f2565b6133fa565b34801561083157600080fd5b506102e06108403660046156a0565b6001600160a01b039182166000908152606a6020908152604080832093909416825291909152205460ff1690565b34801561087a57600080fd5b50610332610889366004614a40565b613605565b34801561089a57600080fd5b506103326108a9366004614a40565b61367b565b60006001600160e01b031982166380ac58cd60e01b14806108df57506001600160e01b03198216635b5e139f60e01b145b806108fa57506301ffc9a760e01b6001600160e01b03198316145b92915050565b60606065805461090f906156ce565b80601f016020809104026020016040519081016040528092919081815260200182805461093b906156ce565b80156109885780601f1061095d57610100808354040283529160200191610988565b820191906000526020600020905b81548152906001019060200180831161096b57829003601f168201915b5050505050905090565b61015f546001600160a01b0316331480156109b557506001600160a01b03811615155b6040518060400160405280600381526020016231303160e81b815250906109f85760405162461bcd60e51b81526004016109ef9190614a08565b60405180910390fd5b50610165546001600160a01b03828116911614610a2c5761016580546001600160a01b0319166001600160a01b0383161790555b50565b6000610a3a82613710565b506000908152606960205260409020546001600160a01b031690565b6000610a6182611c74565b9050806001600160a01b0316836001600160a01b03161415610acf5760405162461bcd60e51b815260206004820152602160248201527f4552433732313a20617070726f76616c20746f2063757272656e74206f776e656044820152603960f91b60648201526084016109ef565b336001600160a01b0382161480610aeb5750610aeb8133610840565b610b5d5760405162461bcd60e51b815260206004820152603d60248201527f4552433732313a20617070726f76652063616c6c6572206973206e6f7420746f60448201527f6b656e206f776e6572206f7220617070726f76656420666f7220616c6c00000060648201526084016109ef565b610b678383613760565b505050565b61015f546001600160a01b0316331480610ba05750600082815261016460205260409020600501546001600160a01b031633145b6040518060400160405280600381526020016231303160e81b81525090610bda5760405162461bcd60e51b81526004016109ef9190614a08565b50610be4826137ce565b6040518060400160405280600381526020016232303960e81b81525090610c1e5760405162461bcd60e51b81526004016109ef9190614a08565b506000828152610164602090815260409091208251610c45926003909201918401906146eb565b5080604051610c549190615709565b6040519081900381209083907fdaa562afcb682535ccff278b5881e249435b61d592905fa2fe0f33a9a363e11b90600090a35050565b61015f546001600160a01b0316331480610cbe5750600082815261016460205260409020600501546001600160a01b031633145b6040518060400160405280600381526020016231303160e81b81525090610cf85760405162461bcd60e51b81526004016109ef9190614a08565b50610d02826137ce565b6040518060400160405280600381526020016232303960e81b81525090610d3c5760405162461bcd60e51b81526004016109ef9190614a08565b50600082815261016460205260409020600f01805482908110610d6157610d61615725565b906000526020600020016000610d77919061476f565b5050565b61015f546001600160a01b031633148015610d9e57506001600160a01b03811615155b6040518060400160405280600381526020016231303160e81b81525090610dd85760405162461bcd60e51b81526004016109ef9190614a08565b50610161546001600160a01b03828116911614610a2c5761016180546001600160a01b0383166001600160a01b031990911617905550565b600081815261016460205260409020601201546001600160a01b03163314610e3757600080fd5b610e40816137ce565b6040518060400160405280600381526020016232303960e81b81525090610e7a5760405162461bcd60e51b81526004016109ef9190614a08565b50600081815261016460205260408082204260119091018190559051909183917f28259f066448a50458eb3d217c396dbd1f78c8626a2a252ddc0d34ab906b54239190a350565b826daaeb6d7670e522a718067333cd4e3b15611006576001600160a01b038116331415610ef857610ef38484846137eb565b611011565b604051633185c44d60e21b81526daaeb6d7670e522a718067333cd4e9063c617113490610f2b903090339060040161573b565b602060405180830381865afa158015610f48573d6000803e3d6000fd5b505050506040513d601f19601f82011682018060405250810190610f6c9190615755565b8015610fe75750604051633185c44d60e21b81526daaeb6d7670e522a718067333cd4e9063c617113490610fa6903090859060040161573b565b602060405180830381865afa158015610fc3573d6000803e3d6000fd5b505050506040513d601f19601f82011682018060405250810190610fe79190615755565b61100657604051633b79c77360e21b81523360048201526024016109ef565b6110118484846137eb565b50505050565b61015f546001600160a01b031633148061104b5750600082815261016460205260409020600501546001600160a01b031633145b6040518060400160405280600381526020016231303160e81b815250906110855760405162461bcd60e51b81526004016109ef9190614a08565b5061108f826137ce565b6040518060400160405280600381526020016232303960e81b815250906110c95760405162461bcd60e51b81526004016109ef9190614a08565b5060008281526101646020908152604090912082516110f0926006909201918401906146eb565b50806040516110ff9190615709565b6040519081900381209083907f37e7d36d9467fef9204db596ec8ad600a5f42d03309d7936daed5b4aedf9a16690600090a35050565b61015f546001600160a01b03166000612710611153846101f4615788565b61115d91906157a7565b90509250929050565b61116f826137ce565b6040518060400160405280600381526020016232303960e81b815250906111a95760405162461bcd60e51b81526004016109ef9190614a08565b5061015f546001600160a01b03163314806111de5750600082815261016460205260409020600501546001600160a01b031633145b6040518060400160405280600381526020016231303160e81b815250906112185760405162461bcd60e51b81526004016109ef9190614a08565b50600082815261016460209081526040918290206012015482516302734eab60e51b815292516001600160a01b0390911692841515928492634e69d5609260048082019392918290030181865afa158015611277573d6000803e3d6000fd5b505050506040513d601f19601f8201168201806040525081019061129b9190615755565b151514156112a857600080fd5b6040516317103dbd60e21b815282151560048201526001600160a01b03821690635c40f6f490602401600060405180830381600087803b1580156112eb57600080fd5b505af11580156112ff573d6000803e3d6000fd5b505060405184151592508591507ff6c6b5ef8b8f3bb25af69bda9a347568bfc16d17d1f6e911de88f63a08994af990600090a3505050565b826daaeb6d7670e522a718067333cd4e3b15611477576001600160a01b03811633141561136957610ef384848461381c565b604051633185c44d60e21b81526daaeb6d7670e522a718067333cd4e9063c61711349061139c903090339060040161573b565b602060405180830381865afa1580156113b9573d6000803e3d6000fd5b505050506040513d601f19601f820116820180604052508101906113dd9190615755565b80156114585750604051633185c44d60e21b81526daaeb6d7670e522a718067333cd4e9063c617113490611417903090859060040161573b565b602060405180830381865afa158015611434573d6000803e3d6000fd5b505050506040513d601f19601f820116820180604052508101906114589190615755565b61147757604051633b79c77360e21b81523360048201526024016109ef565b61101184848461381c565b600061148c613837565b60038460800151511180156114a6575060038460a0015151115b80156114b85750600084610120015151115b6040518060400160405280600381526020016203230360ec1b815250906114f25760405162461bcd60e51b81526004016109ef9190614a08565b50835162ffffff16158015906115135750620f4240846000015162ffffff16105b801561152857506000846020015162ffffff16115b80156115465750836000015162ffffff16846020015162ffffff1611155b8015611559575061271084610240015111155b604051806040016040528060038152602001620c8c0d60ea1b815250906115935760405162461bcd60e51b81526004016109ef9190614a08565b5060c084015160408051808201909152600381526203130360ec1b6020820152906001600160a01b03166115da5760405162461bcd60e51b81526004016109ef9190614a08565b5061016380549060006115ec836157c9565b9091555050610160546001600160a01b0316611606613891565b610163546000908152610164602090815260409182902087518154838a015162ffffff90811663010000000265ffffffffffff1990921692169190911717815591870151600183015560608701516002830180546001600160a01b039092166001600160a01b0319909216919091179055608087015180518893926116929260038501929101906146eb565b5060a082015180516116ae9160048401916020909101906146eb565b5060c08201516005820180546001600160a01b0319166001600160a01b0390921691909117905560e082015180516116f09160068401916020909101906146eb565b50610100820151805161170d9160078401916020909101906146eb565b50610120820151805161172a9160088401916020909101906146eb565b50610140820151805180516009840191611749918391602001906146eb565b50602082810151805161176292600185019201906146eb565b506040820151805161177e9160028401916020909101906146eb565b506060820151805161179a9160038401916020909101906146eb565b50608082015180516117b69160048401916020909101906146eb565b50505061016082015180516117d591600e8401916020909101906147a9565b5061018082015180516117f291600f8401916020909101906147a9565b506101a0820151805161180f9160108401916020909101906146eb565b506101c082015160118201556101e08201516012820180546001600160a01b0319166001600160a01b03909216919091179055610200820151805161185e9160138401916020909101906146eb565b50610220820151805161187b916014840191602090910190614802565b50610240820151816015015590505061189b8560c0015161016354613b9d565b60006040516118a990614857565b604051809103906000f0801580156118c5573d6000803e3d6000fd5b50610163546000908152610164602052604080822060120180546001600160a01b0319166001600160a01b038516908117909155815163266c45bb60e11b81526004810192909252604482018390526060602483015260648201929092529192508291829190634cd88b7690608401600060405180830381600087803b15801561194e57600080fd5b505af1158015611962573d6000803e3d6000fd5b50505050806001600160a01b031663fc237452604051806101a00160405280306001600160a01b031681526020016101635481526020018b6000015162ffffff1681526020018b6020015162ffffff168152602001600062ffffff168152602001600062ffffff1681526020018b60a0015181526020018b6040015181526020018b606001516001600160a01b031681526020018b6080015181526020016040518060400160405280600081526020018b81525081526020018b610220015181526020018b610240015181525061015f60009054906101000a90046001600160a01b031661016060009054906101000a90046001600160a01b031661016160009054906101000a90046001600160a01b031661016260009054906101000a90046001600160a01b03168d6040518763ffffffff1660e01b8152600401611aad969594939291906157e4565b600060405180830381600087803b158015611ac757600080fd5b505af1158015611adb573d6000803e3d6000fd5b5050505061016354945050505050611af3600160fb55565b9392505050565b61015f546001600160a01b031633148015611b1d57506001600160a01b03811615155b6040518060400160405280600381526020016231303160e81b81525090611b575760405162461bcd60e51b81526004016109ef9190614a08565b50610162546001600160a01b03828116911614610a2c5761016280546001600160a01b0383166001600160a01b031990911617905550565b6000611b9a826137ce565b6040518060400160405280600381526020016232303960e81b81525090611bd45760405162461bcd60e51b81526004016109ef9190614a08565b50600082815261016460209081526040918290206012015482516302734eab60e51b815292516001600160a01b03909116928392634e69d560926004808401938290030181865afa158015611c2d573d6000803e3d6000fd5b505050506040513d601f19601f82011682018060405250810190611c519190615755565b9150818015611af357505050600090815261016460205260409020601101541590565b6000818152606760205260408120546001600160a01b0316806108fa5760405162461bcd60e51b8152602060048201526018602482015277115490cdcc8c4e881a5b9d985b1a59081d1bdad95b88125160421b60448201526064016109ef565b60006001600160a01b038216611d3e5760405162461bcd60e51b815260206004820152602960248201527f4552433732313a2061646472657373207a65726f206973206e6f7420612076616044820152683634b21037bbb732b960b91b60648201526084016109ef565b506001600160a01b031660009081526068602052604090205490565b611d62613bbe565b611d6c6000613c19565b565b61015f546001600160a01b0316331480611da25750600082815261016460205260409020600501546001600160a01b031633145b6040518060400160405280600381526020016231303160e81b81525090611ddc5760405162461bcd60e51b81526004016109ef9190614a08565b50611de6826137ce565b6040518060400160405280600381526020016232303960e81b81525090611e205760405162461bcd60e51b81526004016109ef9190614a08565b5060008281526101646020526040908190206002810180546001600160a01b0319166001600160a01b038581169182179092556012909201549251633745368960e11b8152600481019290925291909116908190636e8a6d1290602401600060405180830381600087803b158015611e9757600080fd5b505af1158015611eab573d6000803e3d6000fd5b50506040516001600160a01b03851692508591507f5b1e0d93bdeaa5768c67d3842b9e946453118961a3f54a491511d7fc452b374f90600090a3505050565b611ef2614864565b611efb826137ce565b6040518060400160405280600381526020016232303960e81b81525090611f355760405162461bcd60e51b81526004016109ef9190614a08565b5060008281526101646020908152604091829020825161026081018452815462ffffff80821683526301000000909104169281019290925260018101549282019290925260028201546001600160a01b03166060820152600382018054919291608084019190611fa4906156ce565b80601f0160208091040260200160405190810160405280929190818152602001828054611fd0906156ce565b801561201d5780601f10611ff25761010080835404028352916020019161201d565b820191906000526020600020905b81548152906001019060200180831161200057829003601f168201915b50505050508152602001600482018054612036906156ce565b80601f0160208091040260200160405190810160405280929190818152602001828054612062906156ce565b80156120af5780601f10612084576101008083540402835291602001916120af565b820191906000526020600020905b81548152906001019060200180831161209257829003601f168201915b505050918352505060058201546001600160a01b031660208201526006820180546040909201916120df906156ce565b80601f016020809104026020016040519081016040528092919081815260200182805461210b906156ce565b80156121585780601f1061212d57610100808354040283529160200191612158565b820191906000526020600020905b81548152906001019060200180831161213b57829003601f168201915b50505050508152602001600782018054612171906156ce565b80601f016020809104026020016040519081016040528092919081815260200182805461219d906156ce565b80156121ea5780601f106121bf576101008083540402835291602001916121ea565b820191906000526020600020905b8154815290600101906020018083116121cd57829003601f168201915b50505050508152602001600882018054612203906156ce565b80601f016020809104026020016040519081016040528092919081815260200182805461222f906156ce565b801561227c5780601f106122515761010080835404028352916020019161227c565b820191906000526020600020905b81548152906001019060200180831161225f57829003601f168201915b50505050508152602001600982016040518060a00160405290816000820180546122a5906156ce565b80601f01602080910402602001604051908101604052809291908181526020018280546122d1906156ce565b801561231e5780601f106122f35761010080835404028352916020019161231e565b820191906000526020600020905b81548152906001019060200180831161230157829003601f168201915b50505050508152602001600182018054612337906156ce565b80601f0160208091040260200160405190810160405280929190818152602001828054612363906156ce565b80156123b05780601f10612385576101008083540402835291602001916123b0565b820191906000526020600020905b81548152906001019060200180831161239357829003601f168201915b505050505081526020016002820180546123c9906156ce565b80601f01602080910402602001604051908101604052809291908181526020018280546123f5906156ce565b80156124425780601f1061241757610100808354040283529160200191612442565b820191906000526020600020905b81548152906001019060200180831161242557829003601f168201915b5050505050815260200160038201805461245b906156ce565b80601f0160208091040260200160405190810160405280929190818152602001828054612487906156ce565b80156124d45780601f106124a9576101008083540402835291602001916124d4565b820191906000526020600020905b8154815290600101906020018083116124b757829003601f168201915b505050505081526020016004820180546124ed906156ce565b80601f0160208091040260200160405190810160405280929190818152602001828054612519906156ce565b80156125665780601f1061253b57610100808354040283529160200191612566565b820191906000526020600020905b81548152906001019060200180831161254957829003601f168201915b5050505050815250508152602001600e8201805480602002602001604051908101604052809291908181526020016000905b828210156126445783829060005260206000200180546125b7906156ce565b80601f01602080910402602001604051908101604052809291908181526020018280546125e3906156ce565b80156126305780601f1061260557610100808354040283529160200191612630565b820191906000526020600020905b81548152906001019060200180831161261357829003601f168201915b505050505081526020019060010190612598565b505050508152602001600f8201805480602002602001604051908101604052809291908181526020016000905b8282101561271d578382906000526020600020018054612690906156ce565b80601f01602080910402602001604051908101604052809291908181526020018280546126bc906156ce565b80156127095780601f106126de57610100808354040283529160200191612709565b820191906000526020600020905b8154815290600101906020018083116126ec57829003601f168201915b505050505081526020019060010190612671565b505050508152602001601082018054612735906156ce565b80601f0160208091040260200160405190810160405280929190818152602001828054612761906156ce565b80156127ae5780601f10612783576101008083540402835291602001916127ae565b820191906000526020600020905b81548152906001019060200180831161279157829003601f168201915b50505091835250506011820154602082015260128201546001600160a01b031660408201526013820180546060909201916127e8906156ce565b80601f0160208091040260200160405190810160405280929190818152602001828054612814906156ce565b80156128615780601f1061283657610100808354040283529160200191612861565b820191906000526020600020905b81548152906001019060200180831161284457829003601f168201915b50505050508152602001601482018054806020026020016040519081016040528092919081815260200182805480156128c357602002820191906000526020600020905b81546001600160a01b031681526001909101906020018083116128a5575b505050505081526020016015820154815250509050919050565b61015f546001600160a01b03163314806129115750600082815261016460205260409020600501546001600160a01b031633145b6040518060400160405280600381526020016231303160e81b8152509061294b5760405162461bcd60e51b81526004016109ef9190614a08565b50612955826137ce565b6040518060400160405280600381526020016232303960e81b8152509061298f5760405162461bcd60e51b81526004016109ef9190614a08565b506040808201516000848152610164602090815292902081516129bc93600b9092019291909101906146eb565b50602080820151600084815261016483526040902081516129e693600a90920192909101906146eb565b5060808101516000838152610164602090815260409091208251612a1393600d90920192909101906146eb565b5060608101516000838152610164602090815260409091208251612a4093600c90920192909101906146eb565b5080516000838152610164602090815260409091208251612a6a93600990920192909101906146eb565b50817fac9eecd527183c9d33cb010c7110e35faa09868c77e3cf66465a67079dca197c82604051612a9b9190615975565b60405180910390a25050565b61015f546001600160a01b031633148015612aca57506001600160a01b03811615155b6040518060400160405280600381526020016231303160e81b81525090612b045760405162461bcd60e51b81526004016109ef9190614a08565b5061015f546001600160a01b03828116911614610a2c5761015f80546001600160a01b0383166001600160a01b031990911617905550565b61015f546001600160a01b0316331480612b705750600082815261016460205260409020600501546001600160a01b031633145b6040518060400160405280600381526020016231303160e81b81525090612baa5760405162461bcd60e51b81526004016109ef9190614a08565b50612bb4826137ce565b6040518060400160405280600381526020016232303960e81b81525090612bee5760405162461bcd60e51b81526004016109ef9190614a08565b50600082815261016460205260409081902060018101839055601201549051638d6cc56d60e01b8152600481018390526001600160a01b03909116908190638d6cc56d90602401600060405180830381600087803b158015612c4f57600080fd5b505af1158015612c63573d6000803e3d6000fd5b50506040518492508591507fcc3136787384490182c3da4ad1777aa0e5905afb3cae9b76d71e34cd870883ef90600090a3505050565b60606066805461090f906156ce565b610d77338383613c6c565b61015f546001600160a01b0316331480612ce75750600082815261016460205260409020600501546001600160a01b031633145b6040518060400160405280600381526020016231303160e81b81525090612d215760405162461bcd60e51b81526004016109ef9190614a08565b50612d2b826137ce565b6040518060400160405280600381526020016232303960e81b81525090612d655760405162461bcd60e51b81526004016109ef9190614a08565b506000828152610164602090815260408220600f018054600181018255908352918190208351610b679391909101918401906146eb565b61015f546001600160a01b0316331480612dd05750600083815261016460205260409020600501546001600160a01b031633145b6040518060400160405280600381526020016231303160e81b81525090612e0a5760405162461bcd60e51b81526004016109ef9190614a08565b50612e14836137ce565b6040518060400160405280600381526020016232303960e81b81525090612e4e5760405162461bcd60e51b81526004016109ef9190614a08565b50600083815261016460205260409020600f01805482919084908110612e7657612e76615725565b9060005260206000200190805190602001906110119291906146eb565b836daaeb6d7670e522a718067333cd4e3b15612fd9576001600160a01b038116331415612ecb57612ec685858585613d3b565b612fe5565b604051633185c44d60e21b81526daaeb6d7670e522a718067333cd4e9063c617113490612efe903090339060040161573b565b602060405180830381865afa158015612f1b573d6000803e3d6000fd5b505050506040513d601f19601f82011682018060405250810190612f3f9190615755565b8015612fba5750604051633185c44d60e21b81526daaeb6d7670e522a718067333cd4e9063c617113490612f79903090859060040161573b565b602060405180830381865afa158015612f96573d6000803e3d6000fd5b505050506040513d601f19601f82011682018060405250810190612fba9190615755565b612fd957604051633b79c77360e21b81523360048201526024016109ef565b612fe585858585613d3b565b5050505050565b6060612ff7826137ce565b6040518060400160405280600381526020016232303960e81b815250906130315760405162461bcd60e51b81526004016109ef9190614a08565b506101625460405163079ebc6f60e41b8152600481018490526001600160a01b039091169081906379ebc6f090602401600060405180830381865afa15801561307e573d6000803e3d6000fd5b505050506040513d6000823e601f3d908101601f19168201604052611af39190810190615988565b6130ae613837565b61015f5460408051808201909152600381526231303160e81b6020820152906001600160a01b031633146130f55760405162461bcd60e51b81526004016109ef9190614a08565b5060006001600160a01b038316613176578147101561311357600080fd5b6040516001600160a01b038516908390600081818185875af1925050503d806000811461315c576040519150601f19603f3d011682016040523d82523d6000602084013e613161565b606091505b5050809150508061317157600080fd5b6131f7565b60405163a9059cbb60e01b81526001600160a01b0385811660048301526024820184905284919082169063a9059cbb906044016020604051808303816000875af11580156131c8573d6000803e3d6000fd5b505050506040513d601f19601f820116820180604052508101906131ec9190615755565b6131f557600080fd5b505b50610b67600160fb55565b61015f546001600160a01b03163314806132365750600083815261016460205260409020600501546001600160a01b031633145b6040518060400160405280600381526020016231303160e81b815250906132705760405162461bcd60e51b81526004016109ef9190614a08565b5061327a836137ce565b6040518060400160405280600381526020016232303960e81b815250906132b45760405162461bcd60e51b81526004016109ef9190614a08565b50600083815261016460205260409020600e01805483919083908110612e7657612e76615725565b61015f546001600160a01b03163314806133105750600082815261016460205260409020600501546001600160a01b031633145b6040518060400160405280600381526020016231303160e81b8152509061334a5760405162461bcd60e51b81526004016109ef9190614a08565b50613354826137ce565b6040518060400160405280600381526020016232303960e81b8152509061338e5760405162461bcd60e51b81526004016109ef9190614a08565b5060008281526101646020908152604090912082516133b5926004909201918401906146eb565b50806040516133c49190615709565b6040519081900381209083907f0659e01d131efb672ee6f7f79276247f0e1a8ad1731616056a9e671caa57b41090600090a35050565b600054610100900460ff161580801561341a5750600054600160ff909116105b806134345750303b158015613434575060005460ff166001145b6134975760405162461bcd60e51b815260206004820152602e60248201527f496e697469616c697a61626c653a20636f6e747261637420697320616c72656160448201526d191e481a5b9a5d1a585b1a5e995960921b60648201526084016109ef565b6000805460ff1916600117905580156134ba576000805461ff0019166101001790555b60408051808201909152600381526203130360ec1b60208201526001600160a01b0386166134fb5760405162461bcd60e51b81526004016109ef9190614a08565b5060408051808201909152600381526203130360ec1b60208201526001600160a01b03851661353d5760405162461bcd60e51b81526004016109ef9190614a08565b5061016080546001600160a01b038087166001600160a01b03199283161790925561015f805488841690831617905561016180548684169083161790556101628054928516929091169190911790556135968787613d6d565b61359e613d9e565b6135a6613dcd565b6135ae613dfc565b6135b6613e42565b80156135fc576000805461ff0019169055604051600181527f7f26b83ff96e1f2b6a682f133852f6798a09c465da95921460cefb38474024989060200160405180910390a15b50505050505050565b61360d613bbe565b6001600160a01b0381166136725760405162461bcd60e51b815260206004820152602660248201527f4f776e61626c653a206e6577206f776e657220697320746865207a65726f206160448201526564647265737360d01b60648201526084016109ef565b610a2c81613c19565b61015f546001600160a01b03163314801561369e57506001600160a01b03811615155b6040518060400160405280600381526020016231303160e81b815250906136d85760405162461bcd60e51b81526004016109ef9190614a08565b50610160546001600160a01b03828116911614610a2c5761016080546001600160a01b0383166001600160a01b031990911617905550565b613719816137ce565b610a2c5760405162461bcd60e51b8152602060048201526018602482015277115490cdcc8c4e881a5b9d985b1a59081d1bdad95b88125160421b60448201526064016109ef565b600081815260696020526040902080546001600160a01b0319166001600160a01b038416908117909155819061379582611c74565b6001600160a01b03167f8c5be1e5ebec7d5bd14f71427d1e84f3dd0314c0f7b2291e5b200ac8c7c3b92560405160405180910390a45050565b6000908152606760205260409020546001600160a01b0316151590565b6137f53382613e71565b6138115760405162461bcd60e51b81526004016109ef906159f5565b610b67838383613ef0565b610b6783838360405180602001604052806000815250612e93565b600260fb54141561388a5760405162461bcd60e51b815260206004820152601f60248201527f5265656e7472616e637947756172643a207265656e7472616e742063616c6c0060448201526064016109ef565b600260fb55565b61015f546001600160a01b03163314611d6c576101605460408051808201825260128152714352454154455f50524f4a4543545f46454560701b60208201529051636d12dce160e01b81526001600160a01b03909216916000918391636d12dce1916138ff91600401614a08565b602060405180830381865afa15801561391c573d6000803e3d6000fd5b505050506040513d601f19601f820116820180604052508101906139409190615a42565b90508015610d775760408051808201825260098152682322a2afaa27a5a2a760b91b6020820152905163bf40fac160e01b81526000916001600160a01b0385169163bf40fac19161399391600401614a08565b602060405180830381865afa1580156139b0573d6000803e3d6000fd5b505050506040513d601f19601f820116820180604052508101906139d49190615a5b565b604080518082018252601f81527f4d494e545f4e46545f4f50455241544f525f54524541535552455f41444452006020820152905163bf40fac160e01b815291925030916000916001600160a01b0387169163bf40fac191613a3891600401614a08565b602060405180830381865afa158015613a55573d6000803e3d6000fd5b505050506040513d601f19601f82011682018060405250810190613a799190615a5b565b90506001600160a01b03811615613a8e578091505b6001600160a01b03831615613b28576040516323b872dd60e01b81523360048201526001600160a01b038381166024830152604482018690528491908216906323b872dd906064016020604051808303816000875af1158015613af5573d6000803e3d6000fd5b505050506040513d601f19601f82011682018060405250810190613b199190615755565b613b2257600080fd5b50612fe5565b83341015613b3557600080fd5b6000826001600160a01b03163460405160006040518083038185875af1925050503d8060008114613b82576040519150601f19603f3d011682016040523d82523d6000602084013e613b87565b606091505b5050905080613b9557600080fd5b505050505050565b610d77828260405180602001604052806000815250614061565b600160fb55565b61012d546001600160a01b03163314611d6c5760405162461bcd60e51b815260206004820181905260248201527f4f776e61626c653a2063616c6c6572206973206e6f7420746865206f776e657260448201526064016109ef565b61012d80546001600160a01b038381166001600160a01b0319831681179093556040519116919082907f8be0079c531659141344cd1fd0a4f28419497f9722a3daafe3b4186f6b6457e090600090a35050565b816001600160a01b0316836001600160a01b03161415613cce5760405162461bcd60e51b815260206004820152601960248201527f4552433732313a20617070726f766520746f2063616c6c65720000000000000060448201526064016109ef565b6001600160a01b038381166000818152606a6020908152604080832094871680845294825291829020805460ff191686151590811790915591519182527f17307eab39ab6107e8899845ad3d59bd9653f200f220920489ca2b5937696c31910160405180910390a3505050565b613d453383613e71565b613d615760405162461bcd60e51b81526004016109ef906159f5565b61101184848484614094565b600054610100900460ff16613d945760405162461bcd60e51b81526004016109ef90615a78565b610d7782826140c7565b600054610100900460ff16613dc55760405162461bcd60e51b81526004016109ef90615a78565b611d6c614115565b600054610100900460ff16613df45760405162461bcd60e51b81526004016109ef90615a78565b611d6c61413c565b600054610100900460ff16613e235760405162461bcd60e51b81526004016109ef90615a78565b611d6c733cc6cdda760b79bafa08df41ecfa224f810dceb6600161416f565b600054610100900460ff16613e695760405162461bcd60e51b81526004016109ef90615a78565b611d6c6142f8565b600080613e7d83611c74565b9050806001600160a01b0316846001600160a01b03161480613ec457506001600160a01b038082166000908152606a602090815260408083209388168352929052205460ff165b80613ee85750836001600160a01b0316613edd84610a2f565b6001600160a01b0316145b949350505050565b826001600160a01b0316613f0382611c74565b6001600160a01b031614613f295760405162461bcd60e51b81526004016109ef90615ac3565b6001600160a01b038216613f8b5760405162461bcd60e51b8152602060048201526024808201527f4552433732313a207472616e7366657220746f20746865207a65726f206164646044820152637265737360e01b60648201526084016109ef565b613f988383836001614328565b826001600160a01b0316613fab82611c74565b6001600160a01b031614613fd15760405162461bcd60e51b81526004016109ef90615ac3565b600081815260696020908152604080832080546001600160a01b03199081169091556001600160a01b0387811680865260688552838620805460001901905590871680865283862080546001019055868652606790945282852080549092168417909155905184937fddf252ad1be2c89b69c2b068fc378daa952ba7f163c4a11628f55a4df523b3ef91a4505050565b61406b8383614377565b61407860008484846144f2565b610b675760405162461bcd60e51b81526004016109ef90615b08565b61409f848484613ef0565b6140ab848484846144f2565b6110115760405162461bcd60e51b81526004016109ef90615b08565b600054610100900460ff166140ee5760405162461bcd60e51b81526004016109ef90615a78565b81516141019060659060208501906146eb565b508051610b679060669060208401906146eb565b600054610100900460ff16613bb75760405162461bcd60e51b81526004016109ef90615a78565b600054610100900460ff166141635760405162461bcd60e51b81526004016109ef90615a78565b6097805460ff19169055565b600054610100900460ff166141965760405162461bcd60e51b81526004016109ef90615a78565b6daaeb6d7670e522a718067333cd4e3b15610d775760405163c3c5a54760e01b81523060048201526daaeb6d7670e522a718067333cd4e9063c3c5a547906024016020604051808303816000875af11580156141f6573d6000803e3d6000fd5b505050506040513d601f19601f8201168201806040525081019061421a9190615755565b610d7757801561428557604051633e9f1edf60e11b81526daaeb6d7670e522a718067333cd4e90637d3e3dbe90614257903090869060040161573b565b600060405180830381600087803b15801561427157600080fd5b505af1158015613b95573d6000803e3d6000fd5b6001600160a01b038216156142c75760405163a0af290360e01b81526daaeb6d7670e522a718067333cd4e9063a0af290390614257903090869060040161573b565b604051632210724360e11b81523060048201526daaeb6d7670e522a718067333cd4e90634420e48690602401614257565b600054610100900460ff1661431f5760405162461bcd60e51b81526004016109ef90615a78565b611d6c33613c19565b60408051808201909152600381526203231360ec1b60208201526001600160a01b0385161561436a5760405162461bcd60e51b81526004016109ef9190614a08565b50611011848484846145f0565b6001600160a01b0382166143cd5760405162461bcd60e51b815260206004820181905260248201527f4552433732313a206d696e7420746f20746865207a65726f206164647265737360448201526064016109ef565b6143d6816137ce565b156144235760405162461bcd60e51b815260206004820152601c60248201527f4552433732313a20746f6b656e20616c7265616479206d696e7465640000000060448201526064016109ef565b614431600083836001614328565b61443a816137ce565b156144875760405162461bcd60e51b815260206004820152601c60248201527f4552433732313a20746f6b656e20616c7265616479206d696e7465640000000060448201526064016109ef565b6001600160a01b038216600081815260686020908152604080832080546001019055848352606790915280822080546001600160a01b0319168417905551839291907fddf252ad1be2c89b69c2b068fc378daa952ba7f163c4a11628f55a4df523b3ef908290a45050565b60006001600160a01b0384163b156145e557604051630a85bd0160e11b81526001600160a01b0385169063150b7a0290614536903390899088908890600401615b5a565b6020604051808303816000875af1925050508015614571575060408051601f3d908101601f1916820190925261456e91810190615b97565b60015b6145cb573d80801561459f576040519150601f19603f3d011682016040523d82523d6000602084013e6145a4565b606091505b5080516145c35760405162461bcd60e51b81526004016109ef90615b08565b805181602001fd5b6001600160e01b031916630a85bd0160e11b149050613ee8565b506001949350505050565b6145fc84848484614663565b60975460ff16156110115760405162461bcd60e51b815260206004820152602b60248201527f4552433732315061757361626c653a20746f6b656e207472616e73666572207760448201526a1a1a5b19481c185d5cd95960aa1b60648201526084016109ef565b6001811115611011576001600160a01b038416156146a9576001600160a01b038416600090815260686020526040812080548392906146a3908490615bb4565b90915550505b6001600160a01b03831615611011576001600160a01b038316600090815260686020526040812080548392906146e0908490615bcb565b909155505050505050565b8280546146f7906156ce565b90600052602060002090601f016020900481019282614719576000855561475f565b82601f1061473257805160ff191683800117855561475f565b8280016001018555821561475f579182015b8281111561475f578251825591602001919060010190614744565b5061476b92915061494b565b5090565b50805461477b906156ce565b6000825580601f1061478b575050565b601f016020900490600052602060002090810190610a2c919061494b565b8280548282559060005260206000209081019282156147f6579160200282015b828111156147f657825180516147e69184916020909101906146eb565b50916020019190600101906147c9565b5061476b929150614960565b82805482825590600052602060002090810192821561475f579160200282015b8281111561475f57825182546001600160a01b0319166001600160a01b03909116178255602090920191600190910190614822565b6101e380615be483390190565b604051806102600160405280600062ffffff168152602001600062ffffff1681526020016000815260200160006001600160a01b03168152602001606081526020016060815260200160006001600160a01b031681526020016060815260200160608152602001606081526020016149046040518060a0016040528060608152602001606081526020016060815260200160608152602001606081525090565b81526020016060815260200160608152602001606081526020016000815260200160006001600160a01b031681526020016060815260200160608152602001600081525090565b5b8082111561476b576000815560010161494c565b8082111561476b576000614974828261476f565b50600101614960565b6001600160e01b031981168114610a2c57600080fd5b6000602082840312156149a557600080fd5b8135611af38161497d565b60005b838110156149cb5781810151838201526020016149b3565b838111156110115750506000910152565b600081518084526149f48160208601602086016149b0565b601f01601f19169290920160200192915050565b602081526000611af360208301846149dc565b6001600160a01b0381168114610a2c57600080fd5b8035614a3b81614a1b565b919050565b600060208284031215614a5257600080fd5b8135611af381614a1b565b600060208284031215614a6f57600080fd5b5035919050565b60008060408385031215614a8957600080fd5b8235614a9481614a1b565b946020939093013593505050565b634e487b7160e01b600052604160045260246000fd5b60405160a081016001600160401b0381118282101715614ada57614ada614aa2565b60405290565b60405161026081016001600160401b0381118282101715614ada57614ada614aa2565b604051601f8201601f191681016001600160401b0381118282101715614b2b57614b2b614aa2565b604052919050565b60006001600160401b03821115614b4c57614b4c614aa2565b50601f01601f191660200190565b6000614b6d614b6884614b33565b614b03565b9050828152838383011115614b8157600080fd5b828260208301376000602084830101529392505050565b600082601f830112614ba957600080fd5b611af383833560208501614b5a565b60008060408385031215614bcb57600080fd5b8235915060208301356001600160401b03811115614be857600080fd5b614bf485828601614b98565b9150509250929050565b60008060408385031215614c1157600080fd5b50508035926020909101359150565b600080600060608486031215614c3557600080fd5b8335614c4081614a1b565b92506020840135614c5081614a1b565b929592945050506040919091013590565b8015158114610a2c57600080fd5b8035614a3b81614c61565b60008060408385031215614c8d57600080fd5b823591506020830135614c9f81614c61565b809150509250929050565b803562ffffff81168114614a3b57600080fd5b600060a08284031215614ccf57600080fd5b614cd7614ab8565b905081356001600160401b0380821115614cf057600080fd5b614cfc85838601614b98565b83526020840135915080821115614d1257600080fd5b614d1e85838601614b98565b60208401526040840135915080821115614d3757600080fd5b614d4385838601614b98565b60408401526060840135915080821115614d5c57600080fd5b614d6885838601614b98565b60608401526080840135915080821115614d8157600080fd5b50614d8e84828501614b98565b60808301525092915050565b60006001600160401b03821115614db357614db3614aa2565b5060051b60200190565b600082601f830112614dce57600080fd5b81356020614dde614b6883614d9a565b82815260059290921b84018101918181019086841115614dfd57600080fd5b8286015b84811015614e3c5780356001600160401b03811115614e205760008081fd5b614e2e8986838b0101614b98565b845250918301918301614e01565b509695505050505050565b600082601f830112614e5857600080fd5b81356020614e68614b6883614d9a565b82815260059290921b84018101918181019086841115614e8757600080fd5b8286015b84811015614e3c578035614e9e81614a1b565b8352918301918301614e8b565b600080600060608486031215614ec057600080fd5b83356001600160401b0380821115614ed757600080fd5b908501906102608288031215614eec57600080fd5b614ef4614ae0565b614efd83614caa565b8152614f0b60208401614caa565b602082015260408301356040820152614f2660608401614a30565b6060820152608083013582811115614f3d57600080fd5b614f4989828601614b98565b60808301525060a083013582811115614f6157600080fd5b614f6d89828601614b98565b60a083015250614f7f60c08401614a30565b60c082015260e083013582811115614f9657600080fd5b614fa289828601614b98565b60e0830152506101008084013583811115614fbc57600080fd5b614fc88a828701614b98565b8284015250506101208084013583811115614fe257600080fd5b614fee8a828701614b98565b828401525050610140808401358381111561500857600080fd5b6150148a828701614cbd565b828401525050610160808401358381111561502e57600080fd5b61503a8a828701614dbd565b828401525050610180808401358381111561505457600080fd5b6150608a828701614dbd565b8284015250506101a0808401358381111561507a57600080fd5b6150868a828701614b98565b8284015250506101c08084013581830152506101e06150a6818501614a30565b9082015261020083810135838111156150be57600080fd5b6150ca8a828701614b98565b82840152505061022080840135838111156150e457600080fd5b6150f08a828701614e47565b8284015250506102409150818301358282015280955050505061511560208501614c6f565b9150604084013590509250925092565b6000806040838503121561513857600080fd5b823591506020830135614c9f81614a1b565b6000815160a0845261515f60a08501826149dc565b90506020830151848203602086015261517882826149dc565b9150506040830151848203604086015261519282826149dc565b915050606083015184820360608601526151ac82826149dc565b915050608083015184820360808601526151c682826149dc565b95945050505050565b600082825180855260208086019550808260051b84010181860160005b8481101561521a57601f198684030189526152088383516149dc565b988401989250908301906001016151ec565b5090979650505050505050565b600081518084526020808501945080840160005b838110156152605781516001600160a01b03168752958201959082019060010161523b565b509495945050505050565b6020815261528160208201835162ffffff169052565b60006020830151615299604084018262ffffff169052565b506040830151606083015260608301516152be60808401826001600160a01b03169052565b5060808301516102608060a08501526152db6102808501836149dc565b915060a0850151601f19808685030160c08701526152f984836149dc565b935060c0870151915061531760e08701836001600160a01b03169052565b60e0870151915061010081878603018188015261533485846149dc565b94508088015192505061012081878603018188015261535385846149dc565b94508088015192505061014081878603018188015261537285846149dc565b945080880151925050610160818786030181880152615391858461514a565b9450808801519250506101808187860301818801526153b085846151cf565b9450808801519250506101a08187860301818801526153cf85846151cf565b9450808801519250506101c08187860301818801526153ee85846149dc565b908801516101e088810191909152880151909450915061020061541b818801846001600160a01b03169052565b8088015192505061022081878603018188015261543885846149dc565b9450808801519250506102408187860301818801526154578584615227565b970151959092019490945250929392505050565b6000806040838503121561547e57600080fd5b8235915060208301356001600160401b0381111561549b57600080fd5b614bf485828601614cbd565b600080604083850312156154ba57600080fd5b82356154c581614a1b565b91506020830135614c9f81614c61565b6000806000606084860312156154ea57600080fd5b833592506020840135915060408401356001600160401b0381111561550e57600080fd5b61551a86828701614b98565b9150509250925092565b6000806000806080858703121561553a57600080fd5b843561554581614a1b565b9350602085013561555581614a1b565b92506040850135915060608501356001600160401b0381111561557757600080fd5b8501601f8101871361558857600080fd5b61559787823560208401614b5a565b91505092959194509250565b6000806000606084860312156155b857600080fd5b8335925060208401356001600160401b038111156155d557600080fd5b6155e186828701614b98565b925050604084013590509250925092565b60008060008060008060c0878903121561560b57600080fd5b86356001600160401b038082111561562257600080fd5b61562e8a838b01614b98565b9750602089013591508082111561564457600080fd5b5061565189828a01614b98565b955050604087013561566281614a1b565b9350606087013561567281614a1b565b9250608087013561568281614a1b565b915060a087013561569281614a1b565b809150509295509295509295565b600080604083850312156156b357600080fd5b82356156be81614a1b565b91506020830135614c9f81614a1b565b600181811c908216806156e257607f821691505b6020821081141561570357634e487b7160e01b600052602260045260246000fd5b50919050565b6000825161571b8184602087016149b0565b9190910192915050565b634e487b7160e01b600052603260045260246000fd5b6001600160a01b0392831681529116602082015260400190565b60006020828403121561576757600080fd5b8151611af381614c61565b634e487b7160e01b600052601160045260246000fd5b60008160001904831182151516156157a2576157a2615772565b500290565b6000826157c457634e487b7160e01b600052601260045260246000fd5b500490565b60006000198214156157dd576157dd615772565b5060010190565b60c081526157fe60c0820188516001600160a01b03169052565b602087015160e0820152600060408801516101006158228185018362ffffff169052565b60608a0151915061012061583c8186018462ffffff169052565b60808b015192506101406158568187018562ffffff169052565b60a08c015193506101606158708188018662ffffff169052565b60c08d015194506101c061018081818a01526158906102808a01886149dc565b965060e08f01516101a08a0152858f015195506158b7828a01876001600160a01b03169052565b848f0151955060bf19945084898803016101e08a01526158d787876149dc565b8f85015180516102008c015260208101516102208c01529097509550828f0151955084898803016102408a015261590e8787615227565b908f01516102608a01526001600160a01b038e1660208a0152965061593595505050505050565b6001600160a01b03861660408301526001600160a01b03851660608301526001600160a01b038416608083015282151560a0830152979650505050505050565b602081526000611af3602083018461514a565b60006020828403121561599a57600080fd5b81516001600160401b038111156159b057600080fd5b8201601f810184136159c157600080fd5b80516159cf614b6882614b33565b8181528560208385010111156159e457600080fd5b6151c68260208301602086016149b0565b6020808252602d908201527f4552433732313a2063616c6c6572206973206e6f7420746f6b656e206f776e6560408201526c1c881bdc88185c1c1c9bdd9959609a1b606082015260800190565b600060208284031215615a5457600080fd5b5051919050565b600060208284031215615a6d57600080fd5b8151611af381614a1b565b6020808252602b908201527f496e697469616c697a61626c653a20636f6e7472616374206973206e6f74206960408201526a6e697469616c697a696e6760a81b606082015260800190565b60208082526025908201527f4552433732313a207472616e736665722066726f6d20696e636f72726563742060408201526437bbb732b960d91b606082015260800190565b60208082526032908201527f4552433732313a207472616e7366657220746f206e6f6e20455243373231526560408201527131b2b4bb32b91034b6b83632b6b2b73a32b960711b606082015260800190565b6001600160a01b0385811682528416602082015260408101839052608060608201819052600090615b8d908301846149dc565b9695505050505050565b600060208284031215615ba957600080fd5b8151611af38161497d565b600082821015615bc657615bc6615772565b500390565b60008219821115615bde57615bde615772565b50019056fe60a060405234801561001057600080fd5b50336080526080516101ae61003560003960008181604b0152609f01526101ae6000f3fe6080604052600436106100225760003560e01c8063567fdcf31461003957610031565b366100315761002f610089565b005b61002f610089565b34801561004557600080fd5b5061006d7f000000000000000000000000000000000000000000000000000000000000000081565b6040516001600160a01b03909116815260200160405180910390f35b61009961009461009b565b610124565b565b60007f00000000000000000000000000000000000000000000000000000000000000006001600160a01b031663300b48006040518163ffffffff1660e01b8152600401602060405180830381865afa1580156100fb573d6000803e3d6000fd5b505050506040513d601f19601f8201168201806040525081019061011f9190610148565b905090565b3660008037600080366000845af43d6000803e808015610143573d6000f35b3d6000fd5b60006020828403121561015a57600080fd5b81516001600160a01b038116811461017157600080fd5b939250505056fea2646970667358221220324caa91cef19f7d44f08de560d6b787a18d85c238528de123ac5823b61da3ea64736f6c634300080c0033a264697066735822122063a000f150214c8a12ccdd3511b0be4a5f9584e620082044cfa0466bcd50d48c64736f6c634300080c0033",
  "linkReferences": {},
  "deployedLinkReferences": {}
}