{
  "_format": "hh-sol-artifact-1",
  "contractName": "GenerativeProject",
  "sourceName": "contracts/nfts/GenerativeProject.sol",
  "abi": [
    {
      "inputs": [
        {
          "internalType": "address",
          "name": "operator",
          "type": "address"
        }
      ],
      "name": "OperatorNotAllowed",
      "type": "error"
    },
    {
      "anonymous": false,
      "inputs": [
        {
          "indexed": true,
          "internalType": "address",
          "name": "owner",
          "type": "address"
        },
        {
          "indexed": true,
          "internalType": "address",
          "name": "approved",
          "type": "address"
        },
        {
          "indexed": true,
          "internalType": "uint256",
          "name": "tokenId",
          "type": "uint256"
        }
      ],
      "name": "Approval",
      "type": "event"
    },
    {
      "anonymous": false,
      "inputs": [
        {
          "indexed": true,
          "internalType": "address",
          "name": "owner",
          "type": "address"
        },
        {
          "indexed": true,
          "internalType": "address",
          "name": "operator",
          "type": "address"
        },
        {
          "indexed": false,
          "internalType": "bool",
          "name": "approved",
          "type": "bool"
        }
      ],
      "name": "ApprovalForAll",
      "type": "event"
    },
    {
      "anonymous": false,
      "inputs": [
        {
          "indexed": false,
          "internalType": "uint8",
          "name": "version",
          "type": "uint8"
        }
      ],
      "name": "Initialized",
      "type": "event"
    },
    {
      "anonymous": false,
      "inputs": [
        {
          "indexed": true,
          "internalType": "address",
          "name": "previousOwner",
          "type": "address"
        },
        {
          "indexed": true,
          "internalType": "address",
          "name": "newOwner",
          "type": "address"
        }
      ],
      "name": "OwnershipTransferred",
      "type": "event"
    },
    {
      "anonymous": false,
      "inputs": [
        {
          "indexed": false,
          "internalType": "address",
          "name": "account",
          "type": "address"
        }
      ],
      "name": "Paused",
      "type": "event"
    },
    {
      "anonymous": false,
      "inputs": [
        {
          "indexed": true,
          "internalType": "address",
          "name": "from",
          "type": "address"
        },
        {
          "indexed": true,
          "internalType": "address",
          "name": "to",
          "type": "address"
        },
        {
          "indexed": true,
          "internalType": "uint256",
          "name": "tokenId",
          "type": "uint256"
        }
      ],
      "name": "Transfer",
      "type": "event"
    },
    {
      "anonymous": false,
      "inputs": [
        {
          "indexed": false,
          "internalType": "address",
          "name": "account",
          "type": "address"
        }
      ],
      "name": "Unpaused",
      "type": "event"
    },
    {
      "inputs": [],
      "name": "_admin",
      "outputs": [
        {
          "internalType": "address",
          "name": "",
          "type": "address"
        }
      ],
      "stateMutability": "view",
      "type": "function"
    },
    {
      "inputs": [],
      "name": "_paramsAddress",
      "outputs": [
        {
          "internalType": "address",
          "name": "",
          "type": "address"
        }
      ],
      "stateMutability": "view",
      "type": "function"
    },
    {
      "inputs": [],
      "name": "_projectDataContextAddr",
      "outputs": [
        {
          "internalType": "address",
          "name": "",
          "type": "address"
        }
      ],
      "stateMutability": "view",
      "type": "function"
    },
    {
      "inputs": [],
      "name": "_randomizerAddr",
      "outputs": [
        {
          "internalType": "address",
          "name": "",
          "type": "address"
        }
      ],
      "stateMutability": "view",
      "type": "function"
    },
    {
      "inputs": [
        {
          "internalType": "uint256",
          "name": "projectId",
          "type": "uint256"
        },
        {
          "internalType": "string",
          "name": "_script",
          "type": "string"
        }
      ],
      "name": "addProjectScript",
      "outputs": [],
      "stateMutability": "nonpayable",
      "type": "function"
    },
    {
      "inputs": [
        {
          "internalType": "address",
          "name": "to",
          "type": "address"
        },
        {
          "internalType": "uint256",
          "name": "tokenId",
          "type": "uint256"
        }
      ],
      "name": "approve",
      "outputs": [],
      "stateMutability": "nonpayable",
      "type": "function"
    },
    {
      "inputs": [
        {
          "internalType": "address",
          "name": "owner",
          "type": "address"
        }
      ],
      "name": "balanceOf",
      "outputs": [
        {
          "internalType": "uint256",
          "name": "",
          "type": "uint256"
        }
      ],
      "stateMutability": "view",
      "type": "function"
    },
    {
      "inputs": [
        {
          "internalType": "address",
          "name": "newAdm",
          "type": "address"
        }
      ],
      "name": "changeAdmin",
      "outputs": [],
      "stateMutability": "nonpayable",
      "type": "function"
    },
    {
      "inputs": [
        {
          "internalType": "address",
          "name": "newAddr",
          "type": "address"
        }
      ],
      "name": "changeDataContextAddr",
      "outputs": [],
      "stateMutability": "nonpayable",
      "type": "function"
    },
    {
      "inputs": [
        {
          "internalType": "address",
          "name": "newAddr",
          "type": "address"
        }
      ],
      "name": "changeParamAddr",
      "outputs": [],
      "stateMutability": "nonpayable",
      "type": "function"
    },
    {
      "inputs": [
        {
          "internalType": "address",
          "name": "newAddr",
          "type": "address"
        }
      ],
      "name": "changeRandomizerAddr",
      "outputs": [],
      "stateMutability": "nonpayable",
      "type": "function"
    },
    {
      "inputs": [
        {
          "internalType": "uint256",
          "name": "projectId",
          "type": "uint256"
        }
      ],
      "name": "completeProject",
      "outputs": [],
      "stateMutability": "nonpayable",
      "type": "function"
    },
    {
      "inputs": [
        {
          "internalType": "uint256",
          "name": "projectId",
          "type": "uint256"
        },
        {
          "internalType": "uint256",
          "name": "scriptIndex",
          "type": "uint256"
        }
      ],
      "name": "deleteProjectScript",
      "outputs": [],
      "stateMutability": "nonpayable",
      "type": "function"
    },
    {
      "inputs": [
        {
          "internalType": "uint256",
          "name": "tokenId",
          "type": "uint256"
        }
      ],
      "name": "getApproved",
      "outputs": [
        {
          "internalType": "address",
          "name": "",
          "type": "address"
        }
      ],
      "stateMutability": "view",
      "type": "function"
    },
    {
      "inputs": [
        {
          "internalType": "string",
          "name": "name",
          "type": "string"
        },
        {
          "internalType": "string",
          "name": "symbol",
          "type": "string"
        },
        {
          "internalType": "address",
          "name": "admin",
          "type": "address"
        },
        {
          "internalType": "address",
          "name": "paramsAddress",
          "type": "address"
        },
        {
          "internalType": "address",
          "name": "randomizerAddr",
          "type": "address"
        },
        {
          "internalType": "address",
          "name": "projectDataContextAddr",
          "type": "address"
        }
      ],
      "name": "initialize",
      "outputs": [],
      "stateMutability": "nonpayable",
      "type": "function"
    },
    {
      "inputs": [
        {
          "internalType": "address",
          "name": "owner",
          "type": "address"
        },
        {
          "internalType": "address",
          "name": "operator",
          "type": "address"
        }
      ],
      "name": "isApprovedForAll",
      "outputs": [
        {
          "internalType": "bool",
          "name": "",
          "type": "bool"
        }
      ],
      "stateMutability": "view",
      "type": "function"
    },
    {
      "inputs": [
        {
          "components": [
            {
              "internalType": "uint24",
              "name": "_maxSupply",
              "type": "uint24"
            },
            {
              "internalType": "uint24",
              "name": "_limit",
              "type": "uint24"
            },
            {
              "internalType": "uint256",
              "name": "_mintPrice",
              "type": "uint256"
            },
            {
              "internalType": "address",
              "name": "_mintPriceAddr",
              "type": "address"
            },
            {
              "internalType": "string",
              "name": "_name",
              "type": "string"
            },
            {
              "internalType": "string",
              "name": "_creator",
              "type": "string"
            },
            {
              "internalType": "address",
              "name": "_creatorAddr",
              "type": "address"
            },
            {
              "internalType": "string",
              "name": "_license",
              "type": "string"
            },
            {
              "internalType": "string",
              "name": "_desc",
              "type": "string"
            },
            {
              "internalType": "string",
              "name": "_image",
              "type": "string"
            },
            {
              "components": [
                {
                  "internalType": "string",
                  "name": "_web",
                  "type": "string"
                },
                {
                  "internalType": "string",
                  "name": "_twitter",
                  "type": "string"
                },
                {
                  "internalType": "string",
                  "name": "_discord",
                  "type": "string"
                },
                {
                  "internalType": "string",
                  "name": "_medium",
                  "type": "string"
                },
                {
                  "internalType": "string",
                  "name": "_instagram",
                  "type": "string"
                }
              ],
              "internalType": "struct NFTProject.ProjectSocial",
              "name": "_social",
              "type": "tuple"
            },
            {
              "internalType": "string[]",
              "name": "_scriptType",
              "type": "string[]"
            },
            {
              "internalType": "string[]",
              "name": "_scripts",
              "type": "string[]"
            },
            {
              "internalType": "string",
              "name": "_styles",
              "type": "string"
            },
            {
              "internalType": "uint256",
              "name": "_completeTime",
              "type": "uint256"
            },
            {
              "internalType": "address",
              "name": "_genNFTAddr",
              "type": "address"
            },
            {
              "internalType": "string",
              "name": "_itemDesc",
              "type": "string"
            }
          ],
          "internalType": "struct NFTProject.Project",
          "name": "project",
          "type": "tuple"
        },
        {
          "internalType": "address[]",
          "name": "reserves",
          "type": "address[]"
        },
        {
          "internalType": "bool",
          "name": "disable",
          "type": "bool"
        },
        {
          "internalType": "uint256",
          "name": "openingTime",
          "type": "uint256"
        }
      ],
      "name": "mint",
      "outputs": [
        {
          "internalType": "uint256",
          "name": "",
          "type": "uint256"
        }
      ],
      "stateMutability": "payable",
      "type": "function"
    },
    {
      "inputs": [],
      "name": "name",
      "outputs": [
        {
          "internalType": "string",
          "name": "",
          "type": "string"
        }
      ],
      "stateMutability": "view",
      "type": "function"
    },
    {
      "inputs": [],
      "name": "owner",
      "outputs": [
        {
          "internalType": "address",
          "name": "",
          "type": "address"
        }
      ],
      "stateMutability": "view",
      "type": "function"
    },
    {
      "inputs": [
        {
          "internalType": "uint256",
          "name": "tokenId",
          "type": "uint256"
        }
      ],
      "name": "ownerOf",
      "outputs": [
        {
          "internalType": "address",
          "name": "",
          "type": "address"
        }
      ],
      "stateMutability": "view",
      "type": "function"
    },
    {
      "inputs": [],
      "name": "paused",
      "outputs": [
        {
          "internalType": "bool",
          "name": "",
          "type": "bool"
        }
      ],
      "stateMutability": "view",
      "type": "function"
    },
    {
      "inputs": [
        {
          "internalType": "uint256",
          "name": "projectId",
          "type": "uint256"
        }
      ],
      "name": "projectDetails",
      "outputs": [
        {
          "components": [
            {
              "internalType": "uint24",
              "name": "_maxSupply",
              "type": "uint24"
            },
            {
              "internalType": "uint24",
              "name": "_limit",
              "type": "uint24"
            },
            {
              "internalType": "uint256",
              "name": "_mintPrice",
              "type": "uint256"
            },
            {
              "internalType": "address",
              "name": "_mintPriceAddr",
              "type": "address"
            },
            {
              "internalType": "string",
              "name": "_name",
              "type": "string"
            },
            {
              "internalType": "string",
              "name": "_creator",
              "type": "string"
            },
            {
              "internalType": "address",
              "name": "_creatorAddr",
              "type": "address"
            },
            {
              "internalType": "string",
              "name": "_license",
              "type": "string"
            },
            {
              "internalType": "string",
              "name": "_desc",
              "type": "string"
            },
            {
              "internalType": "string",
              "name": "_image",
              "type": "string"
            },
            {
              "components": [
                {
                  "internalType": "string",
                  "name": "_web",
                  "type": "string"
                },
                {
                  "internalType": "string",
                  "name": "_twitter",
                  "type": "string"
                },
                {
                  "internalType": "string",
                  "name": "_discord",
                  "type": "string"
                },
                {
                  "internalType": "string",
                  "name": "_medium",
                  "type": "string"
                },
                {
                  "internalType": "string",
                  "name": "_instagram",
                  "type": "string"
                }
              ],
              "internalType": "struct NFTProject.ProjectSocial",
              "name": "_social",
              "type": "tuple"
            },
            {
              "internalType": "string[]",
              "name": "_scriptType",
              "type": "string[]"
            },
            {
              "internalType": "string[]",
              "name": "_scripts",
              "type": "string[]"
            },
            {
              "internalType": "string",
              "name": "_styles",
              "type": "string"
            },
            {
              "internalType": "uint256",
              "name": "_completeTime",
              "type": "uint256"
            },
            {
              "internalType": "address",
              "name": "_genNFTAddr",
              "type": "address"
            },
            {
              "internalType": "string",
              "name": "_itemDesc",
              "type": "string"
            }
          ],
          "internalType": "struct NFTProject.Project",
          "name": "project",
          "type": "tuple"
        }
      ],
      "stateMutability": "view",
      "type": "function"
    },
    {
      "inputs": [
        {
          "internalType": "uint256",
          "name": "projectId",
          "type": "uint256"
        }
      ],
      "name": "projectStatus",
      "outputs": [
        {
          "internalType": "bool",
          "name": "enable",
          "type": "bool"
        }
      ],
      "stateMutability": "view",
      "type": "function"
    },
    {
      "inputs": [],
      "name": "renounceOwnership",
      "outputs": [],
      "stateMutability": "nonpayable",
      "type": "function"
    },
    {
      "inputs": [
        {
          "internalType": "uint256",
          "name": "projectId",
          "type": "uint256"
        },
        {
          "internalType": "uint256",
          "name": "_salePrice",
          "type": "uint256"
        }
      ],
      "name": "royaltyInfo",
      "outputs": [
        {
          "internalType": "address",
          "name": "receiver",
          "type": "address"
        },
        {
          "internalType": "uint256",
          "name": "royaltyAmount",
          "type": "uint256"
        }
      ],
      "stateMutability": "view",
      "type": "function"
    },
    {
      "inputs": [
        {
          "internalType": "address",
          "name": "from",
          "type": "address"
        },
        {
          "internalType": "address",
          "name": "to",
          "type": "address"
        },
        {
          "internalType": "uint256",
          "name": "tokenId",
          "type": "uint256"
        }
      ],
      "name": "safeTransferFrom",
      "outputs": [],
      "stateMutability": "nonpayable",
      "type": "function"
    },
    {
      "inputs": [
        {
          "internalType": "address",
          "name": "from",
          "type": "address"
        },
        {
          "internalType": "address",
          "name": "to",
          "type": "address"
        },
        {
          "internalType": "uint256",
          "name": "tokenId",
          "type": "uint256"
        },
        {
          "internalType": "bytes",
          "name": "data",
          "type": "bytes"
        }
      ],
      "name": "safeTransferFrom",
      "outputs": [],
      "stateMutability": "nonpayable",
      "type": "function"
    },
    {
      "inputs": [
        {
          "internalType": "address",
          "name": "operator",
          "type": "address"
        },
        {
          "internalType": "bool",
          "name": "approved",
          "type": "bool"
        }
      ],
      "name": "setApprovalForAll",
      "outputs": [],
      "stateMutability": "nonpayable",
      "type": "function"
    },
    {
      "inputs": [
        {
          "internalType": "uint256",
          "name": "projectId",
          "type": "uint256"
        },
        {
          "internalType": "bool",
          "name": "enable",
          "type": "bool"
        }
      ],
      "name": "setProjectStatus",
      "outputs": [],
      "stateMutability": "nonpayable",
      "type": "function"
    },
    {
      "inputs": [
        {
          "internalType": "bytes4",
          "name": "interfaceId",
          "type": "bytes4"
        }
      ],
      "name": "supportsInterface",
      "outputs": [
        {
          "internalType": "bool",
          "name": "",
          "type": "bool"
        }
      ],
      "stateMutability": "view",
      "type": "function"
    },
    {
      "inputs": [],
      "name": "symbol",
      "outputs": [
        {
          "internalType": "string",
          "name": "",
          "type": "string"
        }
      ],
      "stateMutability": "view",
      "type": "function"
    },
    {
      "inputs": [
        {
          "internalType": "uint256",
          "name": "projectId",
          "type": "uint256"
        }
      ],
      "name": "tokenURI",
      "outputs": [
        {
          "internalType": "string",
          "name": "result",
          "type": "string"
        }
      ],
      "stateMutability": "view",
      "type": "function"
    },
    {
      "inputs": [
        {
          "internalType": "address",
          "name": "from",
          "type": "address"
        },
        {
          "internalType": "address",
          "name": "to",
          "type": "address"
        },
        {
          "internalType": "uint256",
          "name": "tokenId",
          "type": "uint256"
        }
      ],
      "name": "transferFrom",
      "outputs": [],
      "stateMutability": "nonpayable",
      "type": "function"
    },
    {
      "inputs": [
        {
          "internalType": "address",
          "name": "newOwner",
          "type": "address"
        }
      ],
      "name": "transferOwnership",
      "outputs": [],
      "stateMutability": "nonpayable",
      "type": "function"
    },
    {
      "inputs": [
        {
          "internalType": "uint256",
          "name": "projectId",
          "type": "uint256"
        },
        {
          "internalType": "string",
          "name": "creatorName",
          "type": "string"
        }
      ],
      "name": "updateProjectCreatorName",
      "outputs": [],
      "stateMutability": "nonpayable",
      "type": "function"
    },
    {
      "inputs": [
        {
          "internalType": "uint256",
          "name": "projectId",
          "type": "uint256"
        },
        {
          "internalType": "string",
          "name": "license",
          "type": "string"
        }
      ],
      "name": "updateProjectLicense",
      "outputs": [],
      "stateMutability": "nonpayable",
      "type": "function"
    },
    {
      "inputs": [
        {
          "internalType": "uint256",
          "name": "projectId",
          "type": "uint256"
        },
        {
          "internalType": "string",
          "name": "projectName",
          "type": "string"
        }
      ],
      "name": "updateProjectName",
      "outputs": [],
      "stateMutability": "nonpayable",
      "type": "function"
    },
    {
      "inputs": [
        {
          "internalType": "uint256",
          "name": "projectId",
          "type": "uint256"
        },
        {
          "internalType": "uint256",
          "name": "scriptIndex",
          "type": "uint256"
        },
        {
          "internalType": "string",
          "name": "script",
          "type": "string"
        }
      ],
      "name": "updateProjectScript",
      "outputs": [],
      "stateMutability": "nonpayable",
      "type": "function"
    },
    {
      "inputs": [
        {
          "internalType": "uint256",
          "name": "projectId",
          "type": "uint256"
        },
        {
          "internalType": "string",
          "name": "scriptType",
          "type": "string"
        },
        {
          "internalType": "uint256",
          "name": "i",
          "type": "uint256"
        }
      ],
      "name": "updateProjectScriptType",
      "outputs": [],
      "stateMutability": "nonpayable",
      "type": "function"
    },
    {
      "inputs": [
        {
          "internalType": "address",
          "name": "receiver",
          "type": "address"
        },
        {
          "internalType": "address",
          "name": "erc20Addr",
          "type": "address"
        },
        {
          "internalType": "uint256",
          "name": "amount",
          "type": "uint256"
        }
      ],
      "name": "withdraw",
      "outputs": [],
      "stateMutability": "nonpayable",
      "type": "function"
    }
  ],
  "bytecode": "0x608060405234801561001057600080fd5b50614c26806100206000396000f3fe60806040526004361061023b5760003560e01c806366215eb41161012e578063b1656ba3116100ab578063e283d82f1161006f578063e283d82f146106e3578063e56f2fe414610703578063e985e9c514610723578063f2fde38b1461076c578063febfd6c31461078c57600080fd5b8063b1656ba314610643578063b88d4fde14610663578063c87b56dd14610683578063d9caed12146106a3578063daf61800146106c357600080fd5b80638f283970116100f25780638f283970146105ad57806395d89b41146105cd578063a22cb465146105e2578063acad012414610602578063adfc7dae1461062257600080fd5b806366215eb41461050b57806370a082311461052c578063715018a61461054c5780638da5cb5b146105615780638dd91a561461058057600080fd5b806323b872dd116101bc578063472f1e0211610180578063472f1e021461047257806350ac589214610492578063575b57ea146104b25780635c975abb146104d35780636352211e146104eb57600080fd5b806323b872dd146103b357806325b75d68146103d35780632a55205a146103f35780633af6cd1e1461043257806342842e0e1461045257600080fd5b80630d170673116102035780630d170673146103125780630f9573cf14610332578063166b7469146103535780631ca9741b146103735780632245f1521461039357600080fd5b806301bc45c91461024057806301ffc9a71461027e57806306fdde03146102ae578063081812fc146102d0578063095ea7b3146102f0575b600080fd5b34801561024c57600080fd5b5061015f54610261906001600160a01b031681565b6040516001600160a01b0390911681526020015b60405180910390f35b34801561028a57600080fd5b5061029e610299366004613a86565b6107ac565b6040519015158152602001610275565b3480156102ba57600080fd5b506102c36107fe565b6040516102759190613afb565b3480156102dc57600080fd5b506102616102eb366004613b0e565b610890565b3480156102fc57600080fd5b5061031061030b366004613b47565b6108b7565b005b34801561031e57600080fd5b5061031061032d366004613c89565b6109d2565b610345610340366004613ee9565b610a35565b604051908152602001610275565b34801561035f57600080fd5b5061031061036e366004614153565b610fd9565b34801561037f57600080fd5b5061031061038e366004614175565b611054565b34801561039f57600080fd5b506103106103ae366004613b0e565b6110e8565b3480156103bf57600080fd5b506103106103ce366004614192565b611127565b3480156103df57600080fd5b506103106103ee366004613c89565b61127d565b3480156103ff57600080fd5b5061041361040e366004614153565b6112e0565b604080516001600160a01b039093168352602083019190915201610275565b34801561043e57600080fd5b5061031061044d3660046141d3565b611311565b34801561045e57600080fd5b5061031061046d366004614192565b6113f9565b34801561047e57600080fd5b5061031061048d366004614175565b611544565b34801561049e57600080fd5b5061029e6104ad366004613b0e565b6115d9565b3480156104be57600080fd5b5061016254610261906001600160a01b031681565b3480156104df57600080fd5b5060975460ff1661029e565b3480156104f757600080fd5b50610261610506366004613b0e565b61165c565b34801561051757600080fd5b5061016154610261906001600160a01b031681565b34801561053857600080fd5b50610345610547366004614175565b6116bc565b34801561055857600080fd5b50610310611742565b34801561056d57600080fd5b5061012d546001600160a01b0316610261565b34801561058c57600080fd5b506105a061059b366004613b0e565b611756565b60405161027591906142dd565b3480156105b957600080fd5b506103106105c8366004614175565b612099565b3480156105d957600080fd5b506102c361212e565b3480156105ee57600080fd5b506103106105fd3660046144b0565b61213d565b34801561060e57600080fd5b5061031061061d366004613c89565b612148565b34801561062e57600080fd5b5061016054610261906001600160a01b031681565b34801561064f57600080fd5b5061031061065e3660046144de565b6121bb565b34801561066f57600080fd5b5061031061067e36600461452d565b61223c565b34801561068f57600080fd5b506102c361069e366004613b0e565b612395565b3480156106af57600080fd5b506103106106be366004614192565b612461565b3480156106cf57600080fd5b506103106106de3660046145ac565b6125c8565b3480156106ef57600080fd5b506103106106fe366004613c89565b61262c565b34801561070f57600080fd5b5061031061071e3660046145fb565b61268f565b34801561072f57600080fd5b5061029e61073e3660046146a9565b6001600160a01b039182166000908152606a6020908152604080832093909416825291909152205460ff1690565b34801561077857600080fd5b50610310610787366004614175565b612891565b34801561079857600080fd5b506103106107a7366004614175565b612907565b60006001600160e01b031982166380ac58cd60e01b14806107dd57506001600160e01b03198216635b5e139f60e01b145b806107f857506301ffc9a760e01b6001600160e01b03198316145b92915050565b60606065805461080d906146d7565b80601f0160208091040260200160405190810160405280929190818152602001828054610839906146d7565b80156108865780601f1061085b57610100808354040283529160200191610886565b820191906000526020600020905b81548152906001019060200180831161086957829003601f168201915b5050505050905090565b600061089b8261299c565b506000908152606960205260409020546001600160a01b031690565b60006108c28261165c565b9050806001600160a01b0316836001600160a01b031614156109355760405162461bcd60e51b815260206004820152602160248201527f4552433732313a20617070726f76616c20746f2063757272656e74206f776e656044820152603960f91b60648201526084015b60405180910390fd5b336001600160a01b03821614806109515750610951813361073e565b6109c35760405162461bcd60e51b815260206004820152603d60248201527f4552433732313a20617070726f76652063616c6c6572206973206e6f7420746f60448201527f6b656e206f776e6572206f7220617070726f76656420666f7220616c6c000000606482015260840161092c565b6109cd83836129fb565b505050565b61015f546001600160a01b0316331480610a065750600082815261016460205260409020600501546001600160a01b031633145b610a0f57600080fd5b60008281526101646020908152604090912082516109cd9260039092019184019061384e565b6000610a3f612a69565b600385608001515111610a5157600080fd5b60038560a001515111610a6357600080fd5b845162ffffff16610a7357600080fd5b6000856020015162ffffff16118015610a9e5750846000015162ffffff16856020015162ffffff1611155b610aa757600080fd5b60c08501516001600160a01b0316610abe57600080fd5b6101638054906000610acf83614728565b9091555050610160546001600160a01b0316610ae9612ac3565b610163546000908152610164602090815260409182902088518154838b015162ffffff90811663010000000265ffffffffffff1990921692169190911717815591880151600183015560608801516002830180546001600160a01b039092166001600160a01b031990921691909117905560808801518051899392610b7592600385019291019061384e565b5060a08201518051610b9191600484019160209091019061384e565b5060c08201516005820180546001600160a01b0319166001600160a01b0390921691909117905560e08201518051610bd391600684019160209091019061384e565b506101008201518051610bf091600784019160209091019061384e565b506101208201518051610c0d91600884019160209091019061384e565b50610140820151805180516009840191610c2c9183916020019061384e565b506020828101518051610c45926001850192019061384e565b5060408201518051610c6191600284019160209091019061384e565b5060608201518051610c7d91600384019160209091019061384e565b5060808201518051610c9991600484019160209091019061384e565b5050506101608201518051610cb891600e8401916020909101906138d2565b506101808201518051610cd591600f8401916020909101906138d2565b506101a08201518051610cf291601084019160209091019061384e565b506101c082015160118201556101e08201516012820180546001600160a01b0319166001600160a01b039092169190911790556102008201518051610d4191601384019160209091019061384e565b50905050610d568660c0015161016354612ca6565b604080518082018252601781527f47454e455241544956455f4e46545f54454d504c4154450000000000000000006020820152905163bf40fac160e01b8152600091610e00916001600160a01b0385169163bf40fac191610dba9190600401613afb565b602060405180830381865afa158015610dd7573d6000803e3d6000fd5b505050506040513d601f19601f82011682018060405250810190610dfb9190614743565b612cc0565b905080610164600061016354815260200190815260200160002060120160006101000a8154816001600160a01b0302191690836001600160a01b031602179055506000819050806001600160a01b031663e42b6ccd604051806101800160405280306001600160a01b031681526020016101635481526020018b6000015162ffffff1681526020018b6020015162ffffff168152602001600062ffffff168152602001600062ffffff1681526020018b60a0015181526020018b60c001516001600160a01b031681526020018b6040015181526020018b606001516001600160a01b031681526020018b6080015181526020016040518060400160405280600081526020018a81525081525061015f60009054906101000a90046001600160a01b031661016060009054906101000a90046001600160a01b031661016160009054906101000a90046001600160a01b031661016260009054906101000a90046001600160a01b03168d8d6040518863ffffffff1660e01b8152600401610f8c97969594939291906147a4565b600060405180830381600087803b158015610fa657600080fd5b505af1158015610fba573d6000803e3d6000fd5b50505050610163549350505050610fd1600160fb55565b949350505050565b61015f546001600160a01b031633148061100d5750600082815261016460205260409020600501546001600160a01b031633145b61101657600080fd5b600082815261016460205260409020600f0180548290811061103a5761103a61492e565b906000526020600020016000611050919061392b565b5050565b61015f546001600160a01b03163314801561107757506001600160a01b03811615155b6040518060400160405280600381526020016231303160e81b815250906110b15760405162461bcd60e51b815260040161092c9190613afb565b50610161546001600160a01b038281169116146110e55761016180546001600160a01b0319166001600160a01b0383161790555b50565b600081815261016460205260409020601201546001600160a01b0316331461110f57600080fd5b60009081526101646020526040902042601190910155565b826daaeb6d7670e522a718067333cd4e3b1561126c576001600160a01b03811633141561115e57611159848484612d61565b611277565b604051633185c44d60e21b81526daaeb6d7670e522a718067333cd4e9063c6171134906111919030903390600401614944565b602060405180830381865afa1580156111ae573d6000803e3d6000fd5b505050506040513d601f19601f820116820180604052508101906111d2919061495e565b801561124d5750604051633185c44d60e21b81526daaeb6d7670e522a718067333cd4e9063c61711349061120c9030908590600401614944565b602060405180830381865afa158015611229573d6000803e3d6000fd5b505050506040513d601f19601f8201168201806040525081019061124d919061495e565b61126c57604051633b79c77360e21b815233600482015260240161092c565b611277848484612d61565b50505050565b61015f546001600160a01b03163314806112b15750600082815261016460205260409020600501546001600160a01b031633145b6112ba57600080fd5b60008281526101646020908152604090912082516109cd9260069092019184019061384e565b61015f546001600160a01b031660006127106112fe846101f461497b565b611308919061499a565b90509250929050565b6040516328562c4960e11b8152600481018390528115159030906350ac589290602401602060405180830381865afa158015611351573d6000803e3d6000fd5b505050506040513d601f19601f82011682018060405250810190611375919061495e565b1515141561138257600080fd5b60008281526101646020526040908190206012015490516317103dbd60e21b815282151560048201526001600160a01b03909116908190635c40f6f490602401600060405180830381600087803b1580156113dc57600080fd5b505af11580156113f0573d6000803e3d6000fd5b50505050505050565b826daaeb6d7670e522a718067333cd4e3b15611539576001600160a01b03811633141561142b57611159848484612d92565b604051633185c44d60e21b81526daaeb6d7670e522a718067333cd4e9063c61711349061145e9030903390600401614944565b602060405180830381865afa15801561147b573d6000803e3d6000fd5b505050506040513d601f19601f8201168201806040525081019061149f919061495e565b801561151a5750604051633185c44d60e21b81526daaeb6d7670e522a718067333cd4e9063c6171134906114d99030908590600401614944565b602060405180830381865afa1580156114f6573d6000803e3d6000fd5b505050506040513d601f19601f8201168201806040525081019061151a919061495e565b61153957604051633b79c77360e21b815233600482015260240161092c565b611277848484612d92565b61015f546001600160a01b03163314801561156757506001600160a01b03811615155b6040518060400160405280600381526020016231303160e81b815250906115a15760405162461bcd60e51b815260040161092c9190613afb565b50610162546001600160a01b038281169116146110e55761016280546001600160a01b0383166001600160a01b031990911617905550565b6000818152610164602090815260408083206012015481516302734eab60e51b815291516001600160a01b03909116928392634e69d56092600480830193928290030181865afa158015611631573d6000803e3d6000fd5b505050506040513d601f19601f82011682018060405250810190611655919061495e565b9392505050565b6000818152606760205260408120546001600160a01b0316806107f85760405162461bcd60e51b8152602060048201526018602482015277115490cdcc8c4e881a5b9d985b1a59081d1bdad95b88125160421b604482015260640161092c565b60006001600160a01b0382166117265760405162461bcd60e51b815260206004820152602960248201527f4552433732313a2061646472657373207a65726f206973206e6f7420612076616044820152683634b21037bbb732b960b91b606482015260840161092c565b506001600160a01b031660009081526068602052604090205490565b61174a612dad565b6117546000612e08565b565b61175e613965565b60008281526101646020908152604091829020825161022081018452815462ffffff80821683526301000000909104169281019290925260018101549282019290925260028201546001600160a01b031660608201526003820180549192916080840191906117cc906146d7565b80601f01602080910402602001604051908101604052809291908181526020018280546117f8906146d7565b80156118455780601f1061181a57610100808354040283529160200191611845565b820191906000526020600020905b81548152906001019060200180831161182857829003601f168201915b5050505050815260200160048201805461185e906146d7565b80601f016020809104026020016040519081016040528092919081815260200182805461188a906146d7565b80156118d75780601f106118ac576101008083540402835291602001916118d7565b820191906000526020600020905b8154815290600101906020018083116118ba57829003601f168201915b505050918352505060058201546001600160a01b03166020820152600682018054604090920191611907906146d7565b80601f0160208091040260200160405190810160405280929190818152602001828054611933906146d7565b80156119805780601f1061195557610100808354040283529160200191611980565b820191906000526020600020905b81548152906001019060200180831161196357829003601f168201915b50505050508152602001600782018054611999906146d7565b80601f01602080910402602001604051908101604052809291908181526020018280546119c5906146d7565b8015611a125780601f106119e757610100808354040283529160200191611a12565b820191906000526020600020905b8154815290600101906020018083116119f557829003601f168201915b50505050508152602001600882018054611a2b906146d7565b80601f0160208091040260200160405190810160405280929190818152602001828054611a57906146d7565b8015611aa45780601f10611a7957610100808354040283529160200191611aa4565b820191906000526020600020905b815481529060010190602001808311611a8757829003601f168201915b50505050508152602001600982016040518060a0016040529081600082018054611acd906146d7565b80601f0160208091040260200160405190810160405280929190818152602001828054611af9906146d7565b8015611b465780601f10611b1b57610100808354040283529160200191611b46565b820191906000526020600020905b815481529060010190602001808311611b2957829003601f168201915b50505050508152602001600182018054611b5f906146d7565b80601f0160208091040260200160405190810160405280929190818152602001828054611b8b906146d7565b8015611bd85780601f10611bad57610100808354040283529160200191611bd8565b820191906000526020600020905b815481529060010190602001808311611bbb57829003601f168201915b50505050508152602001600282018054611bf1906146d7565b80601f0160208091040260200160405190810160405280929190818152602001828054611c1d906146d7565b8015611c6a5780601f10611c3f57610100808354040283529160200191611c6a565b820191906000526020600020905b815481529060010190602001808311611c4d57829003601f168201915b50505050508152602001600382018054611c83906146d7565b80601f0160208091040260200160405190810160405280929190818152602001828054611caf906146d7565b8015611cfc5780601f10611cd157610100808354040283529160200191611cfc565b820191906000526020600020905b815481529060010190602001808311611cdf57829003601f168201915b50505050508152602001600482018054611d15906146d7565b80601f0160208091040260200160405190810160405280929190818152602001828054611d41906146d7565b8015611d8e5780601f10611d6357610100808354040283529160200191611d8e565b820191906000526020600020905b815481529060010190602001808311611d7157829003601f168201915b5050505050815250508152602001600e8201805480602002602001604051908101604052809291908181526020016000905b82821015611e6c578382906000526020600020018054611ddf906146d7565b80601f0160208091040260200160405190810160405280929190818152602001828054611e0b906146d7565b8015611e585780601f10611e2d57610100808354040283529160200191611e58565b820191906000526020600020905b815481529060010190602001808311611e3b57829003601f168201915b505050505081526020019060010190611dc0565b505050508152602001600f8201805480602002602001604051908101604052809291908181526020016000905b82821015611f45578382906000526020600020018054611eb8906146d7565b80601f0160208091040260200160405190810160405280929190818152602001828054611ee4906146d7565b8015611f315780601f10611f0657610100808354040283529160200191611f31565b820191906000526020600020905b815481529060010190602001808311611f1457829003601f168201915b505050505081526020019060010190611e99565b505050508152602001601082018054611f5d906146d7565b80601f0160208091040260200160405190810160405280929190818152602001828054611f89906146d7565b8015611fd65780601f10611fab57610100808354040283529160200191611fd6565b820191906000526020600020905b815481529060010190602001808311611fb957829003601f168201915b50505091835250506011820154602082015260128201546001600160a01b03166040820152601382018054606090920191612010906146d7565b80601f016020809104026020016040519081016040528092919081815260200182805461203c906146d7565b80156120895780601f1061205e57610100808354040283529160200191612089565b820191906000526020600020905b81548152906001019060200180831161206c57829003601f168201915b5050505050815250509050919050565b61015f546001600160a01b0316331480156120bc57506001600160a01b03811615155b6040518060400160405280600381526020016231303160e81b815250906120f65760405162461bcd60e51b815260040161092c9190613afb565b5061015f546001600160a01b038281169116146110e55761015f80546001600160a01b0383166001600160a01b031990911617905550565b60606066805461080d906146d7565b611050338383612e5b565b61015f546001600160a01b031633148061217c5750600082815261016460205260409020600501546001600160a01b031633145b61218557600080fd5b6000828152610164602090815260408220600f0180546001810182559083529181902083516109cd93919091019184019061384e565b61015f546001600160a01b03163314806121ef5750600083815261016460205260409020600501546001600160a01b031633145b6121f857600080fd5b600083815261016460205260409020600f0180548291908490811061221f5761221f61492e565b90600052602060002001908051906020019061127792919061384e565b836daaeb6d7670e522a718067333cd4e3b15612382576001600160a01b0381163314156122745761226f85858585612f2a565b61238e565b604051633185c44d60e21b81526daaeb6d7670e522a718067333cd4e9063c6171134906122a79030903390600401614944565b602060405180830381865afa1580156122c4573d6000803e3d6000fd5b505050506040513d601f19601f820116820180604052508101906122e8919061495e565b80156123635750604051633185c44d60e21b81526daaeb6d7670e522a718067333cd4e9063c6171134906123229030908590600401614944565b602060405180830381865afa15801561233f573d6000803e3d6000fd5b505050506040513d601f19601f82011682018060405250810190612363919061495e565b61238257604051633b79c77360e21b815233600482015260240161092c565b61238e85858585612f2a565b5050505050565b6000818152606760205260409020546060906001600160a01b031615156040518060400160405280600381526020016232303960e81b815250906123ec5760405162461bcd60e51b815260040161092c9190613afb565b506101625460405163079ebc6f60e41b8152600481018490526001600160a01b039091169081906379ebc6f090602401600060405180830381865afa158015612439573d6000803e3d6000fd5b505050506040513d6000823e601f3d908101601f1916820160405261165591908101906149bc565b612469612a69565b61015f546001600160a01b0316336001600160a01b0316146040518060400160405280600381526020016231303160e81b815250906124bb5760405162461bcd60e51b815260040161092c9190613afb565b5060006001600160a01b03831661253c57814710156124d957600080fd5b6040516001600160a01b038516908390600081818185875af1925050503d8060008114612522576040519150601f19603f3d011682016040523d82523d6000602084013e612527565b606091505b5050809150508061253757600080fd5b6125bd565b60405163a9059cbb60e01b81526001600160a01b0385811660048301526024820184905284919082169063a9059cbb906044016020604051808303816000875af115801561258e573d6000803e3d6000fd5b505050506040513d601f19601f820116820180604052508101906125b2919061495e565b6125bb57600080fd5b505b506109cd600160fb55565b61015f546001600160a01b03163314806125fc5750600083815261016460205260409020600501546001600160a01b031633145b61260557600080fd5b600083815261016460205260409020600e0180548391908390811061221f5761221f61492e565b61015f546001600160a01b03163314806126605750600082815261016460205260409020600501546001600160a01b031633145b61266957600080fd5b60008281526101646020908152604090912082516109cd9260049092019184019061384e565b600054610100900460ff16158080156126af5750600054600160ff909116105b806126c95750303b1580156126c9575060005460ff166001145b61272c5760405162461bcd60e51b815260206004820152602e60248201527f496e697469616c697a61626c653a20636f6e747261637420697320616c72656160448201526d191e481a5b9a5d1a585b1a5e995960921b606482015260840161092c565b6000805460ff19166001179055801561274f576000805461ff0019166101001790555b60408051808201909152600381526203130360ec1b60208201526001600160a01b0386166127905760405162461bcd60e51b815260040161092c9190613afb565b5060408051808201909152600381526203130360ec1b60208201526001600160a01b0385166127d25760405162461bcd60e51b815260040161092c9190613afb565b5061016080546001600160a01b038087166001600160a01b03199283161790925561015f8054888416908316179055610161805486841690831617905561016280549285169290911691909117905561282b8787612f5c565b612833612f8d565b61283b612fbc565b612843612feb565b80156113f0576000805461ff0019169055604051600181527f7f26b83ff96e1f2b6a682f133852f6798a09c465da95921460cefb38474024989060200160405180910390a150505050505050565b612899612dad565b6001600160a01b0381166128fe5760405162461bcd60e51b815260206004820152602660248201527f4f776e61626c653a206e6577206f776e657220697320746865207a65726f206160448201526564647265737360d01b606482015260840161092c565b6110e581612e08565b61015f546001600160a01b03163314801561292a57506001600160a01b03811615155b6040518060400160405280600381526020016231303160e81b815250906129645760405162461bcd60e51b815260040161092c9190613afb565b50610160546001600160a01b038281169116146110e55761016080546001600160a01b0383166001600160a01b031990911617905550565b6000818152606760205260409020546001600160a01b03166110e55760405162461bcd60e51b8152602060048201526018602482015277115490cdcc8c4e881a5b9d985b1a59081d1bdad95b88125160421b604482015260640161092c565b600081815260696020526040902080546001600160a01b0319166001600160a01b0384169081179091558190612a308261165c565b6001600160a01b03167f8c5be1e5ebec7d5bd14f71427d1e84f3dd0314c0f7b2291e5b200ac8c7c3b92560405160405180910390a45050565b600260fb541415612abc5760405162461bcd60e51b815260206004820152601f60248201527f5265656e7472616e637947756172643a207265656e7472616e742063616c6c00604482015260640161092c565b600260fb55565b61015f546001600160a01b03163314611754576101605460408051808201825260128152714352454154455f50524f4a4543545f46454560701b60208201529051636d12dce160e01b81526001600160a01b03909216916000918391636d12dce191612b3191600401613afb565b602060405180830381865afa158015612b4e573d6000803e3d6000fd5b505050506040513d601f19601f82011682018060405250810190612b729190614a29565b905080156110505760408051808201825260098152682322a2afaa27a5a2a760b91b6020820152905163bf40fac160e01b81526000916001600160a01b0385169163bf40fac191612bc591600401613afb565b602060405180830381865afa158015612be2573d6000803e3d6000fd5b505050506040513d601f19601f82011682018060405250810190612c069190614743565b90506001600160a01b03811615612c99576040516323b872dd60e01b81523360048201523060248201526044810183905281906001600160a01b038216906323b872dd906064016020604051808303816000875af1158015612c6c573d6000803e3d6000fd5b505050506040513d601f19601f82011682018060405250810190612c90919061495e565b61127757600080fd5b813410156109cd57600080fd5b611050828260405180602001604052806000815250613031565b6000763d602d80600a3d3981f3363d3d373d3d3d363d730000008260601b60e81c176000526e5af43d82803e903d91602b57fd5bf38260781b17602052603760096000f090506001600160a01b038116612d555760405162461bcd60e51b8152602060048201526016602482015275115490cc4c4d8dce8818dc99585d194819985a5b195960521b604482015260640161092c565b919050565b600160fb55565b612d6b3382613064565b612d875760405162461bcd60e51b815260040161092c90614a42565b6109cd8383836130e2565b6109cd8383836040518060200160405280600081525061223c565b61012d546001600160a01b031633146117545760405162461bcd60e51b815260206004820181905260248201527f4f776e61626c653a2063616c6c6572206973206e6f7420746865206f776e6572604482015260640161092c565b61012d80546001600160a01b038381166001600160a01b0319831681179093556040519116919082907f8be0079c531659141344cd1fd0a4f28419497f9722a3daafe3b4186f6b6457e090600090a35050565b816001600160a01b0316836001600160a01b03161415612ebd5760405162461bcd60e51b815260206004820152601960248201527f4552433732313a20617070726f766520746f2063616c6c657200000000000000604482015260640161092c565b6001600160a01b038381166000818152606a6020908152604080832094871680845294825291829020805460ff191686151590811790915591519182527f17307eab39ab6107e8899845ad3d59bd9653f200f220920489ca2b5937696c31910160405180910390a3505050565b612f343383613064565b612f505760405162461bcd60e51b815260040161092c90614a42565b61127784848484613253565b600054610100900460ff16612f835760405162461bcd60e51b815260040161092c90614a8f565b6110508282613286565b600054610100900460ff16612fb45760405162461bcd60e51b815260040161092c90614a8f565b6117546132d4565b600054610100900460ff16612fe35760405162461bcd60e51b815260040161092c90614a8f565b6117546132fb565b600054610100900460ff166130125760405162461bcd60e51b815260040161092c90614a8f565b611754733cc6cdda760b79bafa08df41ecfa224f810dceb6600161332e565b61303b83836134bf565b6130486000848484613658565b6109cd5760405162461bcd60e51b815260040161092c90614ada565b6000806130708361165c565b9050806001600160a01b0316846001600160a01b031614806130b757506001600160a01b038082166000908152606a602090815260408083209388168352929052205460ff165b80610fd15750836001600160a01b03166130d084610890565b6001600160a01b031614949350505050565b826001600160a01b03166130f58261165c565b6001600160a01b03161461311b5760405162461bcd60e51b815260040161092c90614b2c565b6001600160a01b03821661317d5760405162461bcd60e51b8152602060048201526024808201527f4552433732313a207472616e7366657220746f20746865207a65726f206164646044820152637265737360e01b606482015260840161092c565b61318a8383836001613753565b826001600160a01b031661319d8261165c565b6001600160a01b0316146131c35760405162461bcd60e51b815260040161092c90614b2c565b600081815260696020908152604080832080546001600160a01b03199081169091556001600160a01b0387811680865260688552838620805460001901905590871680865283862080546001019055868652606790945282852080549092168417909155905184937fddf252ad1be2c89b69c2b068fc378daa952ba7f163c4a11628f55a4df523b3ef91a4505050565b61325e8484846130e2565b61326a84848484613658565b6112775760405162461bcd60e51b815260040161092c90614ada565b600054610100900460ff166132ad5760405162461bcd60e51b815260040161092c90614a8f565b81516132c090606590602085019061384e565b5080516109cd90606690602084019061384e565b600054610100900460ff16612d5a5760405162461bcd60e51b815260040161092c90614a8f565b600054610100900460ff166133225760405162461bcd60e51b815260040161092c90614a8f565b6097805460ff19169055565b600054610100900460ff166133555760405162461bcd60e51b815260040161092c90614a8f565b6daaeb6d7670e522a718067333cd4e3b156110505760405163c3c5a54760e01b81523060048201526daaeb6d7670e522a718067333cd4e9063c3c5a547906024016020604051808303816000875af11580156133b5573d6000803e3d6000fd5b505050506040513d601f19601f820116820180604052508101906133d9919061495e565b61105057801561344c57604051633e9f1edf60e11b81526daaeb6d7670e522a718067333cd4e90637d3e3dbe906134169030908690600401614944565b600060405180830381600087803b15801561343057600080fd5b505af1158015613444573d6000803e3d6000fd5b505050505050565b6001600160a01b0382161561348e5760405163a0af290360e01b81526daaeb6d7670e522a718067333cd4e9063a0af2903906134169030908690600401614944565b604051632210724360e11b81523060048201526daaeb6d7670e522a718067333cd4e90634420e48690602401613416565b6001600160a01b0382166135155760405162461bcd60e51b815260206004820181905260248201527f4552433732313a206d696e7420746f20746865207a65726f2061646472657373604482015260640161092c565b6000818152606760205260409020546001600160a01b03161561357a5760405162461bcd60e51b815260206004820152601c60248201527f4552433732313a20746f6b656e20616c7265616479206d696e74656400000000604482015260640161092c565b613588600083836001613753565b6000818152606760205260409020546001600160a01b0316156135ed5760405162461bcd60e51b815260206004820152601c60248201527f4552433732313a20746f6b656e20616c7265616479206d696e74656400000000604482015260640161092c565b6001600160a01b038216600081815260686020908152604080832080546001019055848352606790915280822080546001600160a01b0319168417905551839291907fddf252ad1be2c89b69c2b068fc378daa952ba7f163c4a11628f55a4df523b3ef908290a45050565b60006001600160a01b0384163b1561374b57604051630a85bd0160e11b81526001600160a01b0385169063150b7a029061369c903390899088908890600401614b71565b6020604051808303816000875af19250505080156136d7575060408051601f3d908101601f191682019092526136d491810190614ba4565b60015b613731573d808015613705576040519150601f19603f3d011682016040523d82523d6000602084013e61370a565b606091505b5080516137295760405162461bcd60e51b815260040161092c90614ada565b805181602001fd5b6001600160e01b031916630a85bd0160e11b149050610fd1565b506001610fd1565b61375f848484846137c6565b60975460ff16156112775760405162461bcd60e51b815260206004820152602b60248201527f4552433732315061757361626c653a20746f6b656e207472616e73666572207760448201526a1a1a5b19481c185d5cd95960aa1b606482015260840161092c565b6001811115611277576001600160a01b0384161561380c576001600160a01b03841660009081526068602052604081208054839290613806908490614bc1565b90915550505b6001600160a01b03831615611277576001600160a01b03831660009081526068602052604081208054839290613843908490614bd8565b909155505050505050565b82805461385a906146d7565b90600052602060002090601f01602090048101928261387c57600085556138c2565b82601f1061389557805160ff19168380011785556138c2565b828001600101855582156138c2579182015b828111156138c25782518255916020019190600101906138a7565b506138ce929150613a3e565b5090565b82805482825590600052602060002090810192821561391f579160200282015b8281111561391f578251805161390f91849160209091019061384e565b50916020019190600101906138f2565b506138ce929150613a53565b508054613937906146d7565b6000825580601f10613947575050565b601f0160209004906000526020600020908101906110e59190613a3e565b604051806102200160405280600062ffffff168152602001600062ffffff1681526020016000815260200160006001600160a01b03168152602001606081526020016060815260200160006001600160a01b03168152602001606081526020016060815260200160608152602001613a056040518060a0016040528060608152602001606081526020016060815260200160608152602001606081525090565b81526020016060815260200160608152602001606081526020016000815260200160006001600160a01b03168152602001606081525090565b5b808211156138ce5760008155600101613a3f565b808211156138ce576000613a67828261392b565b50600101613a53565b6001600160e01b0319811681146110e557600080fd5b600060208284031215613a9857600080fd5b813561165581613a70565b60005b83811015613abe578181015183820152602001613aa6565b838111156112775750506000910152565b60008151808452613ae7816020860160208601613aa3565b601f01601f19169290920160200192915050565b6020815260006116556020830184613acf565b600060208284031215613b2057600080fd5b5035919050565b6001600160a01b03811681146110e557600080fd5b8035612d5581613b27565b60008060408385031215613b5a57600080fd5b8235613b6581613b27565b946020939093013593505050565b634e487b7160e01b600052604160045260246000fd5b60405160a081016001600160401b0381118282101715613bab57613bab613b73565b60405290565b60405161022081016001600160401b0381118282101715613bab57613bab613b73565b604051601f8201601f191681016001600160401b0381118282101715613bfc57613bfc613b73565b604052919050565b60006001600160401b03821115613c1d57613c1d613b73565b50601f01601f191660200190565b6000613c3e613c3984613c04565b613bd4565b9050828152838383011115613c5257600080fd5b828260208301376000602084830101529392505050565b600082601f830112613c7a57600080fd5b61165583833560208501613c2b565b60008060408385031215613c9c57600080fd5b8235915060208301356001600160401b03811115613cb957600080fd5b613cc585828601613c69565b9150509250929050565b803562ffffff81168114612d5557600080fd5b600060a08284031215613cf457600080fd5b613cfc613b89565b905081356001600160401b0380821115613d1557600080fd5b613d2185838601613c69565b83526020840135915080821115613d3757600080fd5b613d4385838601613c69565b60208401526040840135915080821115613d5c57600080fd5b613d6885838601613c69565b60408401526060840135915080821115613d8157600080fd5b613d8d85838601613c69565b60608401526080840135915080821115613da657600080fd5b50613db384828501613c69565b60808301525092915050565b60006001600160401b03821115613dd857613dd8613b73565b5060051b60200190565b600082601f830112613df357600080fd5b81356020613e03613c3983613dbf565b82815260059290921b84018101918181019086841115613e2257600080fd5b8286015b84811015613e615780356001600160401b03811115613e455760008081fd5b613e538986838b0101613c69565b845250918301918301613e26565b509695505050505050565b600082601f830112613e7d57600080fd5b81356020613e8d613c3983613dbf565b82815260059290921b84018101918181019086841115613eac57600080fd5b8286015b84811015613e61578035613ec381613b27565b8352918301918301613eb0565b80151581146110e557600080fd5b8035612d5581613ed0565b60008060008060808587031215613eff57600080fd5b84356001600160401b0380821115613f1657600080fd5b908601906102208289031215613f2b57600080fd5b613f33613bb1565b613f3c83613ccf565b8152613f4a60208401613ccf565b602082015260408301356040820152613f6560608401613b3c565b6060820152608083013582811115613f7c57600080fd5b613f888a828601613c69565b60808301525060a083013582811115613fa057600080fd5b613fac8a828601613c69565b60a083015250613fbe60c08401613b3c565b60c082015260e083013582811115613fd557600080fd5b613fe18a828601613c69565b60e0830152506101008084013583811115613ffb57600080fd5b6140078b828701613c69565b828401525050610120808401358381111561402157600080fd5b61402d8b828701613c69565b828401525050610140808401358381111561404757600080fd5b6140538b828701613ce2565b828401525050610160808401358381111561406d57600080fd5b6140798b828701613de2565b828401525050610180808401358381111561409357600080fd5b61409f8b828701613de2565b8284015250506101a080840135838111156140b957600080fd5b6140c58b828701613c69565b8284015250506101c08084013581830152506101e06140e5818501613b3c565b9082015261020083810135838111156140fd57600080fd5b6141098b828701613c69565b82840152505080965050602087013591508082111561412757600080fd5b5061413487828801613e6c565b93505061414360408601613ede565b9396929550929360600135925050565b6000806040838503121561416657600080fd5b50508035926020909101359150565b60006020828403121561418757600080fd5b813561165581613b27565b6000806000606084860312156141a757600080fd5b83356141b281613b27565b925060208401356141c281613b27565b929592945050506040919091013590565b600080604083850312156141e657600080fd5b8235915060208301356141f881613ed0565b809150509250929050565b6000815160a0845261421860a0850182613acf565b9050602083015184820360208601526142318282613acf565b9150506040830151848203604086015261424b8282613acf565b915050606083015184820360608601526142658282613acf565b9150506080830151848203608086015261427f8282613acf565b95945050505050565b600081518084526020808501808196508360051b8101915082860160005b858110156142d05782840389526142be848351613acf565b988501989350908401906001016142a6565b5091979650505050505050565b602081526142f360208201835162ffffff169052565b6000602083015161430b604084018262ffffff169052565b5060408301516060830152606083015161433060808401826001600160a01b03169052565b5060808301516102208060a085015261434d610240850183613acf565b915060a0850151601f19808685030160c087015261436b8483613acf565b935060c0870151915061438960e08701836001600160a01b03169052565b60e087015191506101008187860301818801526143a68584613acf565b9450808801519250506101208187860301818801526143c58584613acf565b9450808801519250506101408187860301818801526143e48584613acf565b9450808801519250506101608187860301818801526144038584614203565b9450808801519250506101808187860301818801526144228584614288565b9450808801519250506101a08187860301818801526144418584614288565b9450808801519250506101c08187860301818801526144608584613acf565b908801516101e088810191909152880151909450915061020061448d818801846001600160a01b03169052565b8701518685039091018387015290506144a68382613acf565b9695505050505050565b600080604083850312156144c357600080fd5b82356144ce81613b27565b915060208301356141f881613ed0565b6000806000606084860312156144f357600080fd5b833592506020840135915060408401356001600160401b0381111561451757600080fd5b61452386828701613c69565b9150509250925092565b6000806000806080858703121561454357600080fd5b843561454e81613b27565b9350602085013561455e81613b27565b92506040850135915060608501356001600160401b0381111561458057600080fd5b8501601f8101871361459157600080fd5b6145a087823560208401613c2b565b91505092959194509250565b6000806000606084860312156145c157600080fd5b8335925060208401356001600160401b038111156145de57600080fd5b6145ea86828701613c69565b925050604084013590509250925092565b60008060008060008060c0878903121561461457600080fd5b86356001600160401b038082111561462b57600080fd5b6146378a838b01613c69565b9750602089013591508082111561464d57600080fd5b5061465a89828a01613c69565b955050604087013561466b81613b27565b9350606087013561467b81613b27565b9250608087013561468b81613b27565b915060a087013561469b81613b27565b809150509295509295509295565b600080604083850312156146bc57600080fd5b82356146c781613b27565b915060208301356141f881613b27565b600181811c908216806146eb57607f821691505b6020821081141561470c57634e487b7160e01b600052602260045260246000fd5b50919050565b634e487b7160e01b600052601160045260246000fd5b600060001982141561473c5761473c614712565b5060010190565b60006020828403121561475557600080fd5b815161165581613b27565b600081518084526020808501945080840160005b838110156147995781516001600160a01b031687529582019590820190600101614774565b509495945050505050565b60e081526147be60e0820189516001600160a01b03169052565b60006020890151610100818185015260408b015191506101206147e78186018462ffffff169052565b60608c015192506101406148018187018562ffffff169052565b60808d0151935061016061481b8188018662ffffff169052565b60a08e015162ffffff1661018088015260c08e01516101a0808901529450614847610280880186613acf565b945060e08e01516148646101c08901826001600160a01b03169052565b50928d01516101e0870152818d01516001600160a01b0316610200870152808d015160df19878603016102208801529261489e8585613acf565b908e01518051610240890152602081015161026089015290945092506148c2915050565b506001600160a01b03891660208401526001600160a01b03881660408401526001600160a01b03871660608401526001600160a01b038616608084015282810360a08401526149118186614760565b91505061492260c083018415159052565b98975050505050505050565b634e487b7160e01b600052603260045260246000fd5b6001600160a01b0392831681529116602082015260400190565b60006020828403121561497057600080fd5b815161165581613ed0565b600081600019048311821515161561499557614995614712565b500290565b6000826149b757634e487b7160e01b600052601260045260246000fd5b500490565b6000602082840312156149ce57600080fd5b81516001600160401b038111156149e457600080fd5b8201601f810184136149f557600080fd5b8051614a03613c3982613c04565b818152856020838501011115614a1857600080fd5b61427f826020830160208601613aa3565b600060208284031215614a3b57600080fd5b5051919050565b6020808252602d908201527f4552433732313a2063616c6c6572206973206e6f7420746f6b656e206f776e6560408201526c1c881bdc88185c1c1c9bdd9959609a1b606082015260800190565b6020808252602b908201527f496e697469616c697a61626c653a20636f6e7472616374206973206e6f74206960408201526a6e697469616c697a696e6760a81b606082015260800190565b60208082526032908201527f4552433732313a207472616e7366657220746f206e6f6e20455243373231526560408201527131b2b4bb32b91034b6b83632b6b2b73a32b960711b606082015260800190565b60208082526025908201527f4552433732313a207472616e736665722066726f6d20696e636f72726563742060408201526437bbb732b960d91b606082015260800190565b6001600160a01b03858116825284166020820152604081018390526080606082018190526000906144a690830184613acf565b600060208284031215614bb657600080fd5b815161165581613a70565b600082821015614bd357614bd3614712565b500390565b60008219821115614beb57614beb614712565b50019056fea264697066735822122071ad769e7bfe3d23b408e7cb54b9c517bea5e22143fe8f785f1574d795120b1d64736f6c634300080c0033",
  "linkReferences": {},
  "deployedLinkReferences": {}
}