{
  "_format": "hh-sol-artifact-1",
  "contractName": "GenerativeProject",
  "sourceName": "contracts/nfts/GenerativeProject.sol",
  "abi": [
    {
      "inputs": [
        {
          "internalType": "address",
          "name": "operator",
          "type": "address"
        }
      ],
      "name": "OperatorNotAllowed",
      "type": "error"
    },
    {
      "anonymous": false,
      "inputs": [
        {
          "indexed": true,
          "internalType": "address",
          "name": "owner",
          "type": "address"
        },
        {
          "indexed": true,
          "internalType": "address",
          "name": "approved",
          "type": "address"
        },
        {
          "indexed": true,
          "internalType": "uint256",
          "name": "tokenId",
          "type": "uint256"
        }
      ],
      "name": "Approval",
      "type": "event"
    },
    {
      "anonymous": false,
      "inputs": [
        {
          "indexed": true,
          "internalType": "address",
          "name": "owner",
          "type": "address"
        },
        {
          "indexed": true,
          "internalType": "address",
          "name": "operator",
          "type": "address"
        },
        {
          "indexed": false,
          "internalType": "bool",
          "name": "approved",
          "type": "bool"
        }
      ],
      "name": "ApprovalForAll",
      "type": "event"
    },
    {
      "anonymous": false,
      "inputs": [
        {
          "indexed": false,
          "internalType": "uint8",
          "name": "version",
          "type": "uint8"
        }
      ],
      "name": "Initialized",
      "type": "event"
    },
    {
      "anonymous": false,
      "inputs": [
        {
          "indexed": true,
          "internalType": "address",
          "name": "previousOwner",
          "type": "address"
        },
        {
          "indexed": true,
          "internalType": "address",
          "name": "newOwner",
          "type": "address"
        }
      ],
      "name": "OwnershipTransferred",
      "type": "event"
    },
    {
      "anonymous": false,
      "inputs": [
        {
          "indexed": false,
          "internalType": "address",
          "name": "account",
          "type": "address"
        }
      ],
      "name": "Paused",
      "type": "event"
    },
    {
      "anonymous": false,
      "inputs": [
        {
          "indexed": true,
          "internalType": "address",
          "name": "from",
          "type": "address"
        },
        {
          "indexed": true,
          "internalType": "address",
          "name": "to",
          "type": "address"
        },
        {
          "indexed": true,
          "internalType": "uint256",
          "name": "tokenId",
          "type": "uint256"
        }
      ],
      "name": "Transfer",
      "type": "event"
    },
    {
      "anonymous": false,
      "inputs": [
        {
          "indexed": false,
          "internalType": "address",
          "name": "account",
          "type": "address"
        }
      ],
      "name": "Unpaused",
      "type": "event"
    },
    {
      "inputs": [],
      "name": "_admin",
      "outputs": [
        {
          "internalType": "address",
          "name": "",
          "type": "address"
        }
      ],
      "stateMutability": "view",
      "type": "function"
    },
    {
      "inputs": [],
      "name": "_paramsAddress",
      "outputs": [
        {
          "internalType": "address",
          "name": "",
          "type": "address"
        }
      ],
      "stateMutability": "view",
      "type": "function"
    },
    {
      "inputs": [],
      "name": "_projectDataContextAddr",
      "outputs": [
        {
          "internalType": "address",
          "name": "",
          "type": "address"
        }
      ],
      "stateMutability": "view",
      "type": "function"
    },
    {
      "inputs": [],
      "name": "_randomizerAddr",
      "outputs": [
        {
          "internalType": "address",
          "name": "",
          "type": "address"
        }
      ],
      "stateMutability": "view",
      "type": "function"
    },
    {
      "inputs": [
        {
          "internalType": "uint256",
          "name": "projectId",
          "type": "uint256"
        },
        {
          "internalType": "string",
          "name": "_script",
          "type": "string"
        }
      ],
      "name": "addProjectScript",
      "outputs": [],
      "stateMutability": "nonpayable",
      "type": "function"
    },
    {
      "inputs": [
        {
          "internalType": "address",
          "name": "to",
          "type": "address"
        },
        {
          "internalType": "uint256",
          "name": "tokenId",
          "type": "uint256"
        }
      ],
      "name": "approve",
      "outputs": [],
      "stateMutability": "nonpayable",
      "type": "function"
    },
    {
      "inputs": [
        {
          "internalType": "address",
          "name": "owner",
          "type": "address"
        }
      ],
      "name": "balanceOf",
      "outputs": [
        {
          "internalType": "uint256",
          "name": "",
          "type": "uint256"
        }
      ],
      "stateMutability": "view",
      "type": "function"
    },
    {
      "inputs": [
        {
          "internalType": "address",
          "name": "newAdm",
          "type": "address"
        }
      ],
      "name": "changeAdmin",
      "outputs": [],
      "stateMutability": "nonpayable",
      "type": "function"
    },
    {
      "inputs": [
        {
          "internalType": "address",
          "name": "newAddr",
          "type": "address"
        }
      ],
      "name": "changeDataContextAddr",
      "outputs": [],
      "stateMutability": "nonpayable",
      "type": "function"
    },
    {
      "inputs": [
        {
          "internalType": "address",
          "name": "newAddr",
          "type": "address"
        }
      ],
      "name": "changeParamAddr",
      "outputs": [],
      "stateMutability": "nonpayable",
      "type": "function"
    },
    {
      "inputs": [
        {
          "internalType": "address",
          "name": "newAddr",
          "type": "address"
        }
      ],
      "name": "changeRandomizerAddr",
      "outputs": [],
      "stateMutability": "nonpayable",
      "type": "function"
    },
    {
      "inputs": [
        {
          "internalType": "uint256",
          "name": "projectId",
          "type": "uint256"
        }
      ],
      "name": "completeProject",
      "outputs": [],
      "stateMutability": "nonpayable",
      "type": "function"
    },
    {
      "inputs": [
        {
          "internalType": "uint256",
          "name": "projectId",
          "type": "uint256"
        },
        {
          "internalType": "uint256",
          "name": "scriptIndex",
          "type": "uint256"
        }
      ],
      "name": "deleteProjectScript",
      "outputs": [],
      "stateMutability": "nonpayable",
      "type": "function"
    },
    {
      "inputs": [
        {
          "internalType": "uint256",
          "name": "tokenId",
          "type": "uint256"
        }
      ],
      "name": "getApproved",
      "outputs": [
        {
          "internalType": "address",
          "name": "",
          "type": "address"
        }
      ],
      "stateMutability": "view",
      "type": "function"
    },
    {
      "inputs": [
        {
          "internalType": "string",
          "name": "name",
          "type": "string"
        },
        {
          "internalType": "string",
          "name": "symbol",
          "type": "string"
        },
        {
          "internalType": "address",
          "name": "admin",
          "type": "address"
        },
        {
          "internalType": "address",
          "name": "paramsAddress",
          "type": "address"
        },
        {
          "internalType": "address",
          "name": "randomizerAddr",
          "type": "address"
        },
        {
          "internalType": "address",
          "name": "projectDataContextAddr",
          "type": "address"
        }
      ],
      "name": "initialize",
      "outputs": [],
      "stateMutability": "nonpayable",
      "type": "function"
    },
    {
      "inputs": [
        {
          "internalType": "address",
          "name": "owner",
          "type": "address"
        },
        {
          "internalType": "address",
          "name": "operator",
          "type": "address"
        }
      ],
      "name": "isApprovedForAll",
      "outputs": [
        {
          "internalType": "bool",
          "name": "",
          "type": "bool"
        }
      ],
      "stateMutability": "view",
      "type": "function"
    },
    {
      "inputs": [
        {
          "components": [
            {
              "internalType": "uint24",
              "name": "_maxSupply",
              "type": "uint24"
            },
            {
              "internalType": "uint24",
              "name": "_limit",
              "type": "uint24"
            },
            {
              "internalType": "uint256",
              "name": "_mintPrice",
              "type": "uint256"
            },
            {
              "internalType": "address",
              "name": "_mintPriceAddr",
              "type": "address"
            },
            {
              "internalType": "string",
              "name": "_name",
              "type": "string"
            },
            {
              "internalType": "string",
              "name": "_creator",
              "type": "string"
            },
            {
              "internalType": "address",
              "name": "_creatorAddr",
              "type": "address"
            },
            {
              "internalType": "string",
              "name": "_license",
              "type": "string"
            },
            {
              "internalType": "string",
              "name": "_desc",
              "type": "string"
            },
            {
              "internalType": "string",
              "name": "_image",
              "type": "string"
            },
            {
              "components": [
                {
                  "internalType": "string",
                  "name": "_web",
                  "type": "string"
                },
                {
                  "internalType": "string",
                  "name": "_twitter",
                  "type": "string"
                },
                {
                  "internalType": "string",
                  "name": "_discord",
                  "type": "string"
                },
                {
                  "internalType": "string",
                  "name": "_medium",
                  "type": "string"
                },
                {
                  "internalType": "string",
                  "name": "_instagram",
                  "type": "string"
                }
              ],
              "internalType": "struct NFTProject.ProjectSocial",
              "name": "_social",
              "type": "tuple"
            },
            {
              "internalType": "string[]",
              "name": "_scriptType",
              "type": "string[]"
            },
            {
              "internalType": "string[]",
              "name": "_scripts",
              "type": "string[]"
            },
            {
              "internalType": "string",
              "name": "_styles",
              "type": "string"
            },
            {
              "internalType": "uint256",
              "name": "_completeTime",
              "type": "uint256"
            },
            {
              "internalType": "address",
              "name": "_genNFTAddr",
              "type": "address"
            },
            {
              "internalType": "string",
              "name": "_itemDesc",
              "type": "string"
            },
            {
              "internalType": "address[]",
              "name": "_reserves",
              "type": "address[]"
            },
            {
              "internalType": "uint256",
              "name": "_royalty",
              "type": "uint256"
            }
          ],
          "internalType": "struct NFTProject.Project",
          "name": "project",
          "type": "tuple"
        },
        {
          "internalType": "bool",
          "name": "disable",
          "type": "bool"
        },
        {
          "internalType": "uint256",
          "name": "openingTime",
          "type": "uint256"
        }
      ],
      "name": "mint",
      "outputs": [
        {
          "internalType": "uint256",
          "name": "",
          "type": "uint256"
        }
      ],
      "stateMutability": "payable",
      "type": "function"
    },
    {
      "inputs": [],
      "name": "name",
      "outputs": [
        {
          "internalType": "string",
          "name": "",
          "type": "string"
        }
      ],
      "stateMutability": "view",
      "type": "function"
    },
    {
      "inputs": [],
      "name": "owner",
      "outputs": [
        {
          "internalType": "address",
          "name": "",
          "type": "address"
        }
      ],
      "stateMutability": "view",
      "type": "function"
    },
    {
      "inputs": [
        {
          "internalType": "uint256",
          "name": "tokenId",
          "type": "uint256"
        }
      ],
      "name": "ownerOf",
      "outputs": [
        {
          "internalType": "address",
          "name": "",
          "type": "address"
        }
      ],
      "stateMutability": "view",
      "type": "function"
    },
    {
      "inputs": [],
      "name": "paused",
      "outputs": [
        {
          "internalType": "bool",
          "name": "",
          "type": "bool"
        }
      ],
      "stateMutability": "view",
      "type": "function"
    },
    {
      "inputs": [
        {
          "internalType": "uint256",
          "name": "projectId",
          "type": "uint256"
        }
      ],
      "name": "projectDetails",
      "outputs": [
        {
          "components": [
            {
              "internalType": "uint24",
              "name": "_maxSupply",
              "type": "uint24"
            },
            {
              "internalType": "uint24",
              "name": "_limit",
              "type": "uint24"
            },
            {
              "internalType": "uint256",
              "name": "_mintPrice",
              "type": "uint256"
            },
            {
              "internalType": "address",
              "name": "_mintPriceAddr",
              "type": "address"
            },
            {
              "internalType": "string",
              "name": "_name",
              "type": "string"
            },
            {
              "internalType": "string",
              "name": "_creator",
              "type": "string"
            },
            {
              "internalType": "address",
              "name": "_creatorAddr",
              "type": "address"
            },
            {
              "internalType": "string",
              "name": "_license",
              "type": "string"
            },
            {
              "internalType": "string",
              "name": "_desc",
              "type": "string"
            },
            {
              "internalType": "string",
              "name": "_image",
              "type": "string"
            },
            {
              "components": [
                {
                  "internalType": "string",
                  "name": "_web",
                  "type": "string"
                },
                {
                  "internalType": "string",
                  "name": "_twitter",
                  "type": "string"
                },
                {
                  "internalType": "string",
                  "name": "_discord",
                  "type": "string"
                },
                {
                  "internalType": "string",
                  "name": "_medium",
                  "type": "string"
                },
                {
                  "internalType": "string",
                  "name": "_instagram",
                  "type": "string"
                }
              ],
              "internalType": "struct NFTProject.ProjectSocial",
              "name": "_social",
              "type": "tuple"
            },
            {
              "internalType": "string[]",
              "name": "_scriptType",
              "type": "string[]"
            },
            {
              "internalType": "string[]",
              "name": "_scripts",
              "type": "string[]"
            },
            {
              "internalType": "string",
              "name": "_styles",
              "type": "string"
            },
            {
              "internalType": "uint256",
              "name": "_completeTime",
              "type": "uint256"
            },
            {
              "internalType": "address",
              "name": "_genNFTAddr",
              "type": "address"
            },
            {
              "internalType": "string",
              "name": "_itemDesc",
              "type": "string"
            },
            {
              "internalType": "address[]",
              "name": "_reserves",
              "type": "address[]"
            },
            {
              "internalType": "uint256",
              "name": "_royalty",
              "type": "uint256"
            }
          ],
          "internalType": "struct NFTProject.Project",
          "name": "project",
          "type": "tuple"
        }
      ],
      "stateMutability": "view",
      "type": "function"
    },
    {
      "inputs": [
        {
          "internalType": "uint256",
          "name": "projectId",
          "type": "uint256"
        }
      ],
      "name": "projectStatus",
      "outputs": [
        {
          "internalType": "bool",
          "name": "enable",
          "type": "bool"
        }
      ],
      "stateMutability": "view",
      "type": "function"
    },
    {
      "inputs": [],
      "name": "renounceOwnership",
      "outputs": [],
      "stateMutability": "nonpayable",
      "type": "function"
    },
    {
      "inputs": [
        {
          "internalType": "uint256",
          "name": "projectId",
          "type": "uint256"
        },
        {
          "internalType": "uint256",
          "name": "_salePrice",
          "type": "uint256"
        }
      ],
      "name": "royaltyInfo",
      "outputs": [
        {
          "internalType": "address",
          "name": "receiver",
          "type": "address"
        },
        {
          "internalType": "uint256",
          "name": "royaltyAmount",
          "type": "uint256"
        }
      ],
      "stateMutability": "view",
      "type": "function"
    },
    {
      "inputs": [
        {
          "internalType": "address",
          "name": "from",
          "type": "address"
        },
        {
          "internalType": "address",
          "name": "to",
          "type": "address"
        },
        {
          "internalType": "uint256",
          "name": "tokenId",
          "type": "uint256"
        }
      ],
      "name": "safeTransferFrom",
      "outputs": [],
      "stateMutability": "nonpayable",
      "type": "function"
    },
    {
      "inputs": [
        {
          "internalType": "address",
          "name": "from",
          "type": "address"
        },
        {
          "internalType": "address",
          "name": "to",
          "type": "address"
        },
        {
          "internalType": "uint256",
          "name": "tokenId",
          "type": "uint256"
        },
        {
          "internalType": "bytes",
          "name": "data",
          "type": "bytes"
        }
      ],
      "name": "safeTransferFrom",
      "outputs": [],
      "stateMutability": "nonpayable",
      "type": "function"
    },
    {
      "inputs": [
        {
          "internalType": "address",
          "name": "operator",
          "type": "address"
        },
        {
          "internalType": "bool",
          "name": "approved",
          "type": "bool"
        }
      ],
      "name": "setApprovalForAll",
      "outputs": [],
      "stateMutability": "nonpayable",
      "type": "function"
    },
    {
      "inputs": [
        {
          "internalType": "uint256",
          "name": "projectId",
          "type": "uint256"
        },
        {
          "internalType": "bool",
          "name": "enable",
          "type": "bool"
        }
      ],
      "name": "setProjectStatus",
      "outputs": [],
      "stateMutability": "nonpayable",
      "type": "function"
    },
    {
      "inputs": [
        {
          "internalType": "bytes4",
          "name": "interfaceId",
          "type": "bytes4"
        }
      ],
      "name": "supportsInterface",
      "outputs": [
        {
          "internalType": "bool",
          "name": "",
          "type": "bool"
        }
      ],
      "stateMutability": "view",
      "type": "function"
    },
    {
      "inputs": [],
      "name": "symbol",
      "outputs": [
        {
          "internalType": "string",
          "name": "",
          "type": "string"
        }
      ],
      "stateMutability": "view",
      "type": "function"
    },
    {
      "inputs": [
        {
          "internalType": "uint256",
          "name": "projectId",
          "type": "uint256"
        }
      ],
      "name": "tokenURI",
      "outputs": [
        {
          "internalType": "string",
          "name": "result",
          "type": "string"
        }
      ],
      "stateMutability": "view",
      "type": "function"
    },
    {
      "inputs": [
        {
          "internalType": "address",
          "name": "from",
          "type": "address"
        },
        {
          "internalType": "address",
          "name": "to",
          "type": "address"
        },
        {
          "internalType": "uint256",
          "name": "tokenId",
          "type": "uint256"
        }
      ],
      "name": "transferFrom",
      "outputs": [],
      "stateMutability": "nonpayable",
      "type": "function"
    },
    {
      "inputs": [
        {
          "internalType": "address",
          "name": "newOwner",
          "type": "address"
        }
      ],
      "name": "transferOwnership",
      "outputs": [],
      "stateMutability": "nonpayable",
      "type": "function"
    },
    {
      "inputs": [
        {
          "internalType": "uint256",
          "name": "projectId",
          "type": "uint256"
        },
        {
          "internalType": "string",
          "name": "creatorName",
          "type": "string"
        }
      ],
      "name": "updateProjectCreatorName",
      "outputs": [],
      "stateMutability": "nonpayable",
      "type": "function"
    },
    {
      "inputs": [
        {
          "internalType": "uint256",
          "name": "projectId",
          "type": "uint256"
        },
        {
          "internalType": "string",
          "name": "license",
          "type": "string"
        }
      ],
      "name": "updateProjectLicense",
      "outputs": [],
      "stateMutability": "nonpayable",
      "type": "function"
    },
    {
      "inputs": [
        {
          "internalType": "uint256",
          "name": "projectId",
          "type": "uint256"
        },
        {
          "internalType": "string",
          "name": "projectName",
          "type": "string"
        }
      ],
      "name": "updateProjectName",
      "outputs": [],
      "stateMutability": "nonpayable",
      "type": "function"
    },
    {
      "inputs": [
        {
          "internalType": "uint256",
          "name": "projectId",
          "type": "uint256"
        },
        {
          "internalType": "uint256",
          "name": "price",
          "type": "uint256"
        }
      ],
      "name": "updateProjectPrice",
      "outputs": [],
      "stateMutability": "nonpayable",
      "type": "function"
    },
    {
      "inputs": [
        {
          "internalType": "uint256",
          "name": "projectId",
          "type": "uint256"
        },
        {
          "internalType": "address",
          "name": "priceAddress",
          "type": "address"
        }
      ],
      "name": "updateProjectPriceAddress",
      "outputs": [],
      "stateMutability": "nonpayable",
      "type": "function"
    },
    {
      "inputs": [
        {
          "internalType": "uint256",
          "name": "projectId",
          "type": "uint256"
        },
        {
          "internalType": "uint256",
          "name": "scriptIndex",
          "type": "uint256"
        },
        {
          "internalType": "string",
          "name": "script",
          "type": "string"
        }
      ],
      "name": "updateProjectScript",
      "outputs": [],
      "stateMutability": "nonpayable",
      "type": "function"
    },
    {
      "inputs": [
        {
          "internalType": "uint256",
          "name": "projectId",
          "type": "uint256"
        },
        {
          "internalType": "string",
          "name": "scriptType",
          "type": "string"
        },
        {
          "internalType": "uint256",
          "name": "i",
          "type": "uint256"
        }
      ],
      "name": "updateProjectScriptType",
      "outputs": [],
      "stateMutability": "nonpayable",
      "type": "function"
    },
    {
      "inputs": [
        {
          "internalType": "uint256",
          "name": "projectId",
          "type": "uint256"
        },
        {
          "components": [
            {
              "internalType": "string",
              "name": "_web",
              "type": "string"
            },
            {
              "internalType": "string",
              "name": "_twitter",
              "type": "string"
            },
            {
              "internalType": "string",
              "name": "_discord",
              "type": "string"
            },
            {
              "internalType": "string",
              "name": "_medium",
              "type": "string"
            },
            {
              "internalType": "string",
              "name": "_instagram",
              "type": "string"
            }
          ],
          "internalType": "struct NFTProject.ProjectSocial",
          "name": "data",
          "type": "tuple"
        }
      ],
      "name": "updateProjectSocial",
      "outputs": [],
      "stateMutability": "nonpayable",
      "type": "function"
    },
    {
      "inputs": [
        {
          "internalType": "address",
          "name": "receiver",
          "type": "address"
        },
        {
          "internalType": "address",
          "name": "erc20Addr",
          "type": "address"
        },
        {
          "internalType": "uint256",
          "name": "amount",
          "type": "uint256"
        }
      ],
      "name": "withdraw",
      "outputs": [],
      "stateMutability": "nonpayable",
      "type": "function"
    }
  ],
  "bytecode": "0x608060405234801561001057600080fd5b50615b2f80620000216000396000f3fe60806040526004361061025c5760003560e01c806370a0823111610144578063adfc7dae116100b6578063daf618001161007a578063daf6180014610744578063e283d82f14610764578063e56f2fe414610784578063e985e9c5146107a4578063f2fde38b146107ed578063febfd6c31461080d57600080fd5b8063adfc7dae146106a3578063b1656ba3146106c4578063b88d4fde146106e4578063c87b56dd14610704578063d9caed121461072457600080fd5b80638e1ab777116101085780638e1ab777146105ee5780638f2839701461060e578063926553361461062e57806395d89b411461064e578063a22cb46514610663578063acad01241461068357600080fd5b806370a082311461054d578063715018a61461056d5780637c582908146105825780638da5cb5b146105a25780638dd91a56146105c157600080fd5b806325b75d68116101dd578063472f1e02116101a1578063472f1e021461049357806350ac5892146104b3578063575b57ea146104d35780635c975abb146104f45780636352211e1461050c57806366215eb41461052c57600080fd5b806325b75d68146103d35780632a55205a146103f35780633af6cd1e1461043257806342842e0e1461045257806345bf4d081461047257600080fd5b80630d170673116102245780630d17067314610333578063166b7469146103535780631ca9741b146103735780632245f1521461039357806323b872dd146103b357600080fd5b806301bc45c91461026157806301ffc9a71461029f57806306fdde03146102cf578063081812fc146102f1578063095ea7b314610311575b600080fd5b34801561026d57600080fd5b5061015f54610282906001600160a01b031681565b6040516001600160a01b0390911681526020015b60405180910390f35b3480156102ab57600080fd5b506102bf6102ba3660046148b1565b61082d565b6040519015158152602001610296565b3480156102db57600080fd5b506102e461087f565b6040516102969190614926565b3480156102fd57600080fd5b5061028261030c366004614939565b610911565b34801561031d57600080fd5b5061033161032c366004614972565b610938565b005b34801561033f57600080fd5b5061033161034e366004614ab4565b610a53565b34801561035f57600080fd5b5061033161036e366004614afa565b610b71565b34801561037f57600080fd5b5061033161038e366004614b1c565b610c62565b34801561039f57600080fd5b506103316103ae366004614939565b610cf6565b3480156103bf57600080fd5b506103316103ce366004614b39565b610da7565b3480156103df57600080fd5b506103316103ee366004614ab4565b610efd565b3480156103ff57600080fd5b5061041361040e366004614afa565b61101b565b604080516001600160a01b039093168352602083019190915201610296565b34801561043e57600080fd5b5061033161044d366004614b93565b61104c565b34801561045e57600080fd5b5061033161046d366004614b39565b61121d565b610485610480366004614dc4565b611368565b604051908152602001610296565b34801561049f57600080fd5b506103316104ae366004614b1c565b61198b565b3480156104bf57600080fd5b506102bf6104ce366004614939565b611a20565b3480156104df57600080fd5b5061016254610282906001600160a01b031681565b34801561050057600080fd5b5060975460ff166102bf565b34801561051857600080fd5b50610282610527366004614939565b611b05565b34801561053857600080fd5b5061016154610282906001600160a01b031681565b34801561055957600080fd5b50610485610568366004614b1c565b611b65565b34801561057957600080fd5b50610331611beb565b34801561058e57600080fd5b5061033161059d36600461503e565b611bff565b3480156105ae57600080fd5b5061012d546001600160a01b0316610282565b3480156105cd57600080fd5b506105e16105dc366004614939565b611d7b565b6040516102969190615181565b3480156105fa57600080fd5b50610331610609366004615381565b61276e565b34801561061a57600080fd5b50610331610629366004614b1c565b612938565b34801561063a57600080fd5b50610331610649366004614afa565b6129cd565b34801561065a57600080fd5b506102e4612b2a565b34801561066f57600080fd5b5061033161067e3660046153bd565b612b39565b34801561068f57600080fd5b5061033161069e366004614ab4565b612b44565b3480156106af57600080fd5b5061016054610282906001600160a01b031681565b3480156106d057600080fd5b506103316106df3660046153eb565b612c2d565b3480156106f057600080fd5b506103316106ff36600461543a565b612d24565b34801561071057600080fd5b506102e461071f366004614939565b612e7d565b34801561073057600080fd5b5061033161073f366004614b39565b612f37565b34801561075057600080fd5b5061033161075f3660046154b9565b613093565b34801561077057600080fd5b5061033161077f366004614ab4565b61316d565b34801561079057600080fd5b5061033161079f366004615508565b61328b565b3480156107b057600080fd5b506102bf6107bf3660046155b6565b6001600160a01b039182166000908152606a6020908152604080832093909416825291909152205460ff1690565b3480156107f957600080fd5b50610331610808366004614b1c565b613496565b34801561081957600080fd5b50610331610828366004614b1c565b61350c565b60006001600160e01b031982166380ac58cd60e01b148061085e57506001600160e01b03198216635b5e139f60e01b145b8061087957506301ffc9a760e01b6001600160e01b03198316145b92915050565b60606065805461088e906155e4565b80601f01602080910402602001604051908101604052809291908181526020018280546108ba906155e4565b80156109075780601f106108dc57610100808354040283529160200191610907565b820191906000526020600020905b8154815290600101906020018083116108ea57829003601f168201915b5050505050905090565b600061091c826135a1565b506000908152606960205260409020546001600160a01b031690565b600061094382611b05565b9050806001600160a01b0316836001600160a01b031614156109b65760405162461bcd60e51b815260206004820152602160248201527f4552433732313a20617070726f76616c20746f2063757272656e74206f776e656044820152603960f91b60648201526084015b60405180910390fd5b336001600160a01b03821614806109d257506109d281336107bf565b610a445760405162461bcd60e51b815260206004820152603d60248201527f4552433732313a20617070726f76652063616c6c6572206973206e6f7420746f60448201527f6b656e206f776e6572206f7220617070726f76656420666f7220616c6c00000060648201526084016109ad565b610a4e83836135f1565b505050565b61015f546001600160a01b0316331480610a875750600082815261016460205260409020600501546001600160a01b031633145b6040518060400160405280600381526020016231303160e81b81525090610ac15760405162461bcd60e51b81526004016109ad9190614926565b50610acb8261365f565b6040518060400160405280600381526020016232303960e81b81525090610b055760405162461bcd60e51b81526004016109ad9190614926565b506000828152610164602090815260409091208251610b2c92600390920191840190614616565b5080604051610b3b919061561f565b6040519081900381209083907fdaa562afcb682535ccff278b5881e249435b61d592905fa2fe0f33a9a363e11b90600090a35050565b61015f546001600160a01b0316331480610ba55750600082815261016460205260409020600501546001600160a01b031633145b6040518060400160405280600381526020016231303160e81b81525090610bdf5760405162461bcd60e51b81526004016109ad9190614926565b50610be98261365f565b6040518060400160405280600381526020016232303960e81b81525090610c235760405162461bcd60e51b81526004016109ad9190614926565b50600082815261016460205260409020600f01805482908110610c4857610c4861563b565b906000526020600020016000610c5e919061469a565b5050565b61015f546001600160a01b031633148015610c8557506001600160a01b03811615155b6040518060400160405280600381526020016231303160e81b81525090610cbf5760405162461bcd60e51b81526004016109ad9190614926565b50610161546001600160a01b03828116911614610cf35761016180546001600160a01b0319166001600160a01b0383161790555b50565b600081815261016460205260409020601201546001600160a01b03163314610d1d57600080fd5b610d268161365f565b6040518060400160405280600381526020016232303960e81b81525090610d605760405162461bcd60e51b81526004016109ad9190614926565b50600081815261016460205260408082204260119091018190559051909183917f28259f066448a50458eb3d217c396dbd1f78c8626a2a252ddc0d34ab906b54239190a350565b826daaeb6d7670e522a718067333cd4e3b15610eec576001600160a01b038116331415610dde57610dd984848461367c565b610ef7565b604051633185c44d60e21b81526daaeb6d7670e522a718067333cd4e9063c617113490610e119030903390600401615651565b602060405180830381865afa158015610e2e573d6000803e3d6000fd5b505050506040513d601f19601f82011682018060405250810190610e52919061566b565b8015610ecd5750604051633185c44d60e21b81526daaeb6d7670e522a718067333cd4e9063c617113490610e8c9030908590600401615651565b602060405180830381865afa158015610ea9573d6000803e3d6000fd5b505050506040513d601f19601f82011682018060405250810190610ecd919061566b565b610eec57604051633b79c77360e21b81523360048201526024016109ad565b610ef784848461367c565b50505050565b61015f546001600160a01b0316331480610f315750600082815261016460205260409020600501546001600160a01b031633145b6040518060400160405280600381526020016231303160e81b81525090610f6b5760405162461bcd60e51b81526004016109ad9190614926565b50610f758261365f565b6040518060400160405280600381526020016232303960e81b81525090610faf5760405162461bcd60e51b81526004016109ad9190614926565b506000828152610164602090815260409091208251610fd692600690920191840190614616565b5080604051610fe5919061561f565b6040519081900381209083907f37e7d36d9467fef9204db596ec8ad600a5f42d03309d7936daed5b4aedf9a16690600090a35050565b61015f546001600160a01b03166000612710611039846101f461569e565b61104391906156bd565b90509250929050565b6110558261365f565b6040518060400160405280600381526020016232303960e81b8152509061108f5760405162461bcd60e51b81526004016109ad9190614926565b5061015f546001600160a01b03163314806110c45750600082815261016460205260409020600501546001600160a01b031633145b6040518060400160405280600381526020016231303160e81b815250906110fe5760405162461bcd60e51b81526004016109ad9190614926565b50600082815261016460209081526040918290206012015482516302734eab60e51b815292516001600160a01b0390911692841515928492634e69d5609260048082019392918290030181865afa15801561115d573d6000803e3d6000fd5b505050506040513d601f19601f82011682018060405250810190611181919061566b565b1515141561118e57600080fd5b6040516317103dbd60e21b815282151560048201526001600160a01b03821690635c40f6f490602401600060405180830381600087803b1580156111d157600080fd5b505af11580156111e5573d6000803e3d6000fd5b505060405184151592508591507ff6c6b5ef8b8f3bb25af69bda9a347568bfc16d17d1f6e911de88f63a08994af990600090a3505050565b826daaeb6d7670e522a718067333cd4e3b1561135d576001600160a01b03811633141561124f57610dd98484846136ad565b604051633185c44d60e21b81526daaeb6d7670e522a718067333cd4e9063c6171134906112829030903390600401615651565b602060405180830381865afa15801561129f573d6000803e3d6000fd5b505050506040513d601f19601f820116820180604052508101906112c3919061566b565b801561133e5750604051633185c44d60e21b81526daaeb6d7670e522a718067333cd4e9063c6171134906112fd9030908590600401615651565b602060405180830381865afa15801561131a573d6000803e3d6000fd5b505050506040513d601f19601f8201168201806040525081019061133e919061566b565b61135d57604051633b79c77360e21b81523360048201526024016109ad565b610ef78484846136ad565b60006113726136c8565b600384608001515111801561138c575060038460a0015151115b801561139e5750600084610120015151115b6040518060400160405280600381526020016203230360ec1b815250906113d85760405162461bcd60e51b81526004016109ad9190614926565b50835162ffffff16158015906113f95750620f4240846000015162ffffff16105b801561140e57506000846020015162ffffff16115b801561142c5750836000015162ffffff16846020015162ffffff1611155b801561143f575061271084610240015111155b604051806040016040528060038152602001620c8c0d60ea1b815250906114795760405162461bcd60e51b81526004016109ad9190614926565b5060c084015160408051808201909152600381526203130360ec1b6020820152906001600160a01b03166114c05760405162461bcd60e51b81526004016109ad9190614926565b5061016380549060006114d2836156df565b9091555050610160546001600160a01b03166114ec613722565b610163546000908152610164602090815260409182902087518154838a015162ffffff90811663010000000265ffffffffffff1990921692169190911717815591870151600183015560608701516002830180546001600160a01b039092166001600160a01b031990921691909117905560808701518051889392611578926003850192910190614616565b5060a08201518051611594916004840191602090910190614616565b5060c08201516005820180546001600160a01b0319166001600160a01b0390921691909117905560e082015180516115d6916006840191602090910190614616565b5061010082015180516115f3916007840191602090910190614616565b506101208201518051611610916008840191602090910190614616565b5061014082015180518051600984019161162f91839160200190614616565b5060208281015180516116489260018501920190614616565b5060408201518051611664916002840191602090910190614616565b5060608201518051611680916003840191602090910190614616565b506080820151805161169c916004840191602090910190614616565b50505061016082015180516116bb91600e8401916020909101906146d4565b5061018082015180516116d891600f8401916020909101906146d4565b506101a082015180516116f5916010840191602090910190614616565b506101c082015160118201556101e08201516012820180546001600160a01b0319166001600160a01b039092169190911790556102008201518051611744916013840191602090910190614616565b50610220820151805161176191601484019160209091019061472d565b5061024082015181601501559050506117818560c0015161016354613a2e565b604080518082018252601781527f47454e455241544956455f4e46545f54454d504c4154450000000000000000006020820152905163bf40fac160e01b815260009161182b916001600160a01b0385169163bf40fac1916117e59190600401614926565b602060405180830381865afa158015611802573d6000803e3d6000fd5b505050506040513d601f19601f8201168201806040525081019061182691906156fa565b613a48565b610163805460009081526101646020908152604080832060120180546001600160a01b0319166001600160a01b0387811691821790925582516101a0810184523081529554868501528c5162ffffff908116878501528d85015116606080880191909152608080880187905260a08089018890528f015160c08901528e85015160e0890152908e015183166101008801528d0151610120870152825180840184529485529284018a90526101408501939093526102208b0151610160808601919091526102408c015161018086015261015f54905461016154610162549351637e11ba2960e11b81529798508897949663fc2374529661193f96919594811694938116939281169216908e90600401615717565b600060405180830381600087803b15801561195957600080fd5b505af115801561196d573d6000803e3d6000fd5b50505050610163549350505050611984600160fb55565b9392505050565b61015f546001600160a01b0316331480156119ae57506001600160a01b03811615155b6040518060400160405280600381526020016231303160e81b815250906119e85760405162461bcd60e51b81526004016109ad9190614926565b50610162546001600160a01b03828116911614610cf35761016280546001600160a01b0383166001600160a01b031990911617905550565b6000611a2b8261365f565b6040518060400160405280600381526020016232303960e81b81525090611a655760405162461bcd60e51b81526004016109ad9190614926565b50600082815261016460209081526040918290206012015482516302734eab60e51b815292516001600160a01b03909116928392634e69d560926004808401938290030181865afa158015611abe573d6000803e3d6000fd5b505050506040513d601f19601f82011682018060405250810190611ae2919061566b565b915081801561198457505050600090815261016460205260409020601101541590565b6000818152606760205260408120546001600160a01b0316806108795760405162461bcd60e51b8152602060048201526018602482015277115490cdcc8c4e881a5b9d985b1a59081d1bdad95b88125160421b60448201526064016109ad565b60006001600160a01b038216611bcf5760405162461bcd60e51b815260206004820152602960248201527f4552433732313a2061646472657373207a65726f206973206e6f7420612076616044820152683634b21037bbb732b960b91b60648201526084016109ad565b506001600160a01b031660009081526068602052604090205490565b611bf3613ae9565b611bfd6000613b44565b565b61015f546001600160a01b0316331480611c335750600082815261016460205260409020600501546001600160a01b031633145b6040518060400160405280600381526020016231303160e81b81525090611c6d5760405162461bcd60e51b81526004016109ad9190614926565b50611c778261365f565b6040518060400160405280600381526020016232303960e81b81525090611cb15760405162461bcd60e51b81526004016109ad9190614926565b5060008281526101646020526040908190206002810180546001600160a01b0319166001600160a01b038581169182179092556012909201549251633745368960e11b8152600481019290925291909116908190636e8a6d1290602401600060405180830381600087803b158015611d2857600080fd5b505af1158015611d3c573d6000803e3d6000fd5b50506040516001600160a01b03851692508591507f5b1e0d93bdeaa5768c67d3842b9e946453118961a3f54a491511d7fc452b374f90600090a3505050565b611d83614782565b611d8c8261365f565b6040518060400160405280600381526020016232303960e81b81525090611dc65760405162461bcd60e51b81526004016109ad9190614926565b5060008281526101646020908152604091829020825161026081018452815462ffffff80821683526301000000909104169281019290925260018101549282019290925260028201546001600160a01b03166060820152600382018054919291608084019190611e35906155e4565b80601f0160208091040260200160405190810160405280929190818152602001828054611e61906155e4565b8015611eae5780601f10611e8357610100808354040283529160200191611eae565b820191906000526020600020905b815481529060010190602001808311611e9157829003601f168201915b50505050508152602001600482018054611ec7906155e4565b80601f0160208091040260200160405190810160405280929190818152602001828054611ef3906155e4565b8015611f405780601f10611f1557610100808354040283529160200191611f40565b820191906000526020600020905b815481529060010190602001808311611f2357829003601f168201915b505050918352505060058201546001600160a01b03166020820152600682018054604090920191611f70906155e4565b80601f0160208091040260200160405190810160405280929190818152602001828054611f9c906155e4565b8015611fe95780601f10611fbe57610100808354040283529160200191611fe9565b820191906000526020600020905b815481529060010190602001808311611fcc57829003601f168201915b50505050508152602001600782018054612002906155e4565b80601f016020809104026020016040519081016040528092919081815260200182805461202e906155e4565b801561207b5780601f106120505761010080835404028352916020019161207b565b820191906000526020600020905b81548152906001019060200180831161205e57829003601f168201915b50505050508152602001600882018054612094906155e4565b80601f01602080910402602001604051908101604052809291908181526020018280546120c0906155e4565b801561210d5780601f106120e25761010080835404028352916020019161210d565b820191906000526020600020905b8154815290600101906020018083116120f057829003601f168201915b50505050508152602001600982016040518060a0016040529081600082018054612136906155e4565b80601f0160208091040260200160405190810160405280929190818152602001828054612162906155e4565b80156121af5780601f10612184576101008083540402835291602001916121af565b820191906000526020600020905b81548152906001019060200180831161219257829003601f168201915b505050505081526020016001820180546121c8906155e4565b80601f01602080910402602001604051908101604052809291908181526020018280546121f4906155e4565b80156122415780601f1061221657610100808354040283529160200191612241565b820191906000526020600020905b81548152906001019060200180831161222457829003601f168201915b5050505050815260200160028201805461225a906155e4565b80601f0160208091040260200160405190810160405280929190818152602001828054612286906155e4565b80156122d35780601f106122a8576101008083540402835291602001916122d3565b820191906000526020600020905b8154815290600101906020018083116122b657829003601f168201915b505050505081526020016003820180546122ec906155e4565b80601f0160208091040260200160405190810160405280929190818152602001828054612318906155e4565b80156123655780601f1061233a57610100808354040283529160200191612365565b820191906000526020600020905b81548152906001019060200180831161234857829003601f168201915b5050505050815260200160048201805461237e906155e4565b80601f01602080910402602001604051908101604052809291908181526020018280546123aa906155e4565b80156123f75780601f106123cc576101008083540402835291602001916123f7565b820191906000526020600020905b8154815290600101906020018083116123da57829003601f168201915b5050505050815250508152602001600e8201805480602002602001604051908101604052809291908181526020016000905b828210156124d5578382906000526020600020018054612448906155e4565b80601f0160208091040260200160405190810160405280929190818152602001828054612474906155e4565b80156124c15780601f10612496576101008083540402835291602001916124c1565b820191906000526020600020905b8154815290600101906020018083116124a457829003601f168201915b505050505081526020019060010190612429565b505050508152602001600f8201805480602002602001604051908101604052809291908181526020016000905b828210156125ae578382906000526020600020018054612521906155e4565b80601f016020809104026020016040519081016040528092919081815260200182805461254d906155e4565b801561259a5780601f1061256f5761010080835404028352916020019161259a565b820191906000526020600020905b81548152906001019060200180831161257d57829003601f168201915b505050505081526020019060010190612502565b5050505081526020016010820180546125c6906155e4565b80601f01602080910402602001604051908101604052809291908181526020018280546125f2906155e4565b801561263f5780601f106126145761010080835404028352916020019161263f565b820191906000526020600020905b81548152906001019060200180831161262257829003601f168201915b50505091835250506011820154602082015260128201546001600160a01b03166040820152601382018054606090920191612679906155e4565b80601f01602080910402602001604051908101604052809291908181526020018280546126a5906155e4565b80156126f25780601f106126c7576101008083540402835291602001916126f2565b820191906000526020600020905b8154815290600101906020018083116126d557829003601f168201915b505050505081526020016014820180548060200260200160405190810160405280929190818152602001828054801561275457602002820191906000526020600020905b81546001600160a01b03168152600190910190602001808311612736575b505050505081526020016015820154815250509050919050565b61015f546001600160a01b03163314806127a25750600082815261016460205260409020600501546001600160a01b031633145b6040518060400160405280600381526020016231303160e81b815250906127dc5760405162461bcd60e51b81526004016109ad9190614926565b506127e68261365f565b6040518060400160405280600381526020016232303960e81b815250906128205760405162461bcd60e51b81526004016109ad9190614926565b5060408082015160008481526101646020908152929020815161284d93600b909201929190910190614616565b506020808201516000848152610164835260409020815161287793600a9092019290910190614616565b50608081015160008381526101646020908152604090912082516128a493600d9092019290910190614616565b50606081015160008381526101646020908152604090912082516128d193600c9092019290910190614616565b50805160008381526101646020908152604090912082516128fb9360099092019290910190614616565b50817fac9eecd527183c9d33cb010c7110e35faa09868c77e3cf66465a67079dca197c8260405161292c91906158a8565b60405180910390a25050565b61015f546001600160a01b03163314801561295b57506001600160a01b03811615155b6040518060400160405280600381526020016231303160e81b815250906129955760405162461bcd60e51b81526004016109ad9190614926565b5061015f546001600160a01b03828116911614610cf35761015f80546001600160a01b0383166001600160a01b031990911617905550565b61015f546001600160a01b0316331480612a015750600082815261016460205260409020600501546001600160a01b031633145b6040518060400160405280600381526020016231303160e81b81525090612a3b5760405162461bcd60e51b81526004016109ad9190614926565b50612a458261365f565b6040518060400160405280600381526020016232303960e81b81525090612a7f5760405162461bcd60e51b81526004016109ad9190614926565b50600082815261016460205260409081902060018101839055601201549051638d6cc56d60e01b8152600481018390526001600160a01b03909116908190638d6cc56d90602401600060405180830381600087803b158015612ae057600080fd5b505af1158015612af4573d6000803e3d6000fd5b50506040518492508591507fcc3136787384490182c3da4ad1777aa0e5905afb3cae9b76d71e34cd870883ef90600090a3505050565b60606066805461088e906155e4565b610c5e338383613b97565b61015f546001600160a01b0316331480612b785750600082815261016460205260409020600501546001600160a01b031633145b6040518060400160405280600381526020016231303160e81b81525090612bb25760405162461bcd60e51b81526004016109ad9190614926565b50612bbc8261365f565b6040518060400160405280600381526020016232303960e81b81525090612bf65760405162461bcd60e51b81526004016109ad9190614926565b506000828152610164602090815260408220600f018054600181018255908352918190208351610a4e939190910191840190614616565b61015f546001600160a01b0316331480612c615750600083815261016460205260409020600501546001600160a01b031633145b6040518060400160405280600381526020016231303160e81b81525090612c9b5760405162461bcd60e51b81526004016109ad9190614926565b50612ca58361365f565b6040518060400160405280600381526020016232303960e81b81525090612cdf5760405162461bcd60e51b81526004016109ad9190614926565b50600083815261016460205260409020600f01805482919084908110612d0757612d0761563b565b906000526020600020019080519060200190610ef7929190614616565b836daaeb6d7670e522a718067333cd4e3b15612e6a576001600160a01b038116331415612d5c57612d5785858585613c66565b612e76565b604051633185c44d60e21b81526daaeb6d7670e522a718067333cd4e9063c617113490612d8f9030903390600401615651565b602060405180830381865afa158015612dac573d6000803e3d6000fd5b505050506040513d601f19601f82011682018060405250810190612dd0919061566b565b8015612e4b5750604051633185c44d60e21b81526daaeb6d7670e522a718067333cd4e9063c617113490612e0a9030908590600401615651565b602060405180830381865afa158015612e27573d6000803e3d6000fd5b505050506040513d601f19601f82011682018060405250810190612e4b919061566b565b612e6a57604051633b79c77360e21b81523360048201526024016109ad565b612e7685858585613c66565b5050505050565b6060612e888261365f565b6040518060400160405280600381526020016232303960e81b81525090612ec25760405162461bcd60e51b81526004016109ad9190614926565b506101625460405163079ebc6f60e41b8152600481018490526001600160a01b039091169081906379ebc6f090602401600060405180830381865afa158015612f0f573d6000803e3d6000fd5b505050506040513d6000823e601f3d908101601f1916820160405261198491908101906158bb565b612f3f6136c8565b61015f5460408051808201909152600381526231303160e81b6020820152906001600160a01b03163314612f865760405162461bcd60e51b81526004016109ad9190614926565b5060006001600160a01b0383166130075781471015612fa457600080fd5b6040516001600160a01b038516908390600081818185875af1925050503d8060008114612fed576040519150601f19603f3d011682016040523d82523d6000602084013e612ff2565b606091505b5050809150508061300257600080fd5b613088565b60405163a9059cbb60e01b81526001600160a01b0385811660048301526024820184905284919082169063a9059cbb906044016020604051808303816000875af1158015613059573d6000803e3d6000fd5b505050506040513d601f19601f8201168201806040525081019061307d919061566b565b61308657600080fd5b505b50610a4e600160fb55565b61015f546001600160a01b03163314806130c75750600083815261016460205260409020600501546001600160a01b031633145b6040518060400160405280600381526020016231303160e81b815250906131015760405162461bcd60e51b81526004016109ad9190614926565b5061310b8361365f565b6040518060400160405280600381526020016232303960e81b815250906131455760405162461bcd60e51b81526004016109ad9190614926565b50600083815261016460205260409020600e01805483919083908110612d0757612d0761563b565b61015f546001600160a01b03163314806131a15750600082815261016460205260409020600501546001600160a01b031633145b6040518060400160405280600381526020016231303160e81b815250906131db5760405162461bcd60e51b81526004016109ad9190614926565b506131e58261365f565b6040518060400160405280600381526020016232303960e81b8152509061321f5760405162461bcd60e51b81526004016109ad9190614926565b50600082815261016460209081526040909120825161324692600490920191840190614616565b5080604051613255919061561f565b6040519081900381209083907f0659e01d131efb672ee6f7f79276247f0e1a8ad1731616056a9e671caa57b41090600090a35050565b600054610100900460ff16158080156132ab5750600054600160ff909116105b806132c55750303b1580156132c5575060005460ff166001145b6133285760405162461bcd60e51b815260206004820152602e60248201527f496e697469616c697a61626c653a20636f6e747261637420697320616c72656160448201526d191e481a5b9a5d1a585b1a5e995960921b60648201526084016109ad565b6000805460ff19166001179055801561334b576000805461ff0019166101001790555b60408051808201909152600381526203130360ec1b60208201526001600160a01b03861661338c5760405162461bcd60e51b81526004016109ad9190614926565b5060408051808201909152600381526203130360ec1b60208201526001600160a01b0385166133ce5760405162461bcd60e51b81526004016109ad9190614926565b5061016080546001600160a01b038087166001600160a01b03199283161790925561015f805488841690831617905561016180548684169083161790556101628054928516929091169190911790556134278787613c98565b61342f613cc9565b613437613cf8565b61343f613d27565b613447613d6d565b801561348d576000805461ff0019169055604051600181527f7f26b83ff96e1f2b6a682f133852f6798a09c465da95921460cefb38474024989060200160405180910390a15b50505050505050565b61349e613ae9565b6001600160a01b0381166135035760405162461bcd60e51b815260206004820152602660248201527f4f776e61626c653a206e6577206f776e657220697320746865207a65726f206160448201526564647265737360d01b60648201526084016109ad565b610cf381613b44565b61015f546001600160a01b03163314801561352f57506001600160a01b03811615155b6040518060400160405280600381526020016231303160e81b815250906135695760405162461bcd60e51b81526004016109ad9190614926565b50610160546001600160a01b03828116911614610cf35761016080546001600160a01b0383166001600160a01b031990911617905550565b6135aa8161365f565b610cf35760405162461bcd60e51b8152602060048201526018602482015277115490cdcc8c4e881a5b9d985b1a59081d1bdad95b88125160421b60448201526064016109ad565b600081815260696020526040902080546001600160a01b0319166001600160a01b038416908117909155819061362682611b05565b6001600160a01b03167f8c5be1e5ebec7d5bd14f71427d1e84f3dd0314c0f7b2291e5b200ac8c7c3b92560405160405180910390a45050565b6000908152606760205260409020546001600160a01b0316151590565b6136863382613d9c565b6136a25760405162461bcd60e51b81526004016109ad90615928565b610a4e838383613e1b565b610a4e83838360405180602001604052806000815250612d24565b600260fb54141561371b5760405162461bcd60e51b815260206004820152601f60248201527f5265656e7472616e637947756172643a207265656e7472616e742063616c6c0060448201526064016109ad565b600260fb55565b61015f546001600160a01b03163314611bfd576101605460408051808201825260128152714352454154455f50524f4a4543545f46454560701b60208201529051636d12dce160e01b81526001600160a01b03909216916000918391636d12dce19161379091600401614926565b602060405180830381865afa1580156137ad573d6000803e3d6000fd5b505050506040513d601f19601f820116820180604052508101906137d19190615975565b90508015610c5e5760408051808201825260098152682322a2afaa27a5a2a760b91b6020820152905163bf40fac160e01b81526000916001600160a01b0385169163bf40fac19161382491600401614926565b602060405180830381865afa158015613841573d6000803e3d6000fd5b505050506040513d601f19601f8201168201806040525081019061386591906156fa565b604080518082018252601f81527f4d494e545f4e46545f4f50455241544f525f54524541535552455f41444452006020820152905163bf40fac160e01b815291925030916000916001600160a01b0387169163bf40fac1916138c991600401614926565b602060405180830381865afa1580156138e6573d6000803e3d6000fd5b505050506040513d601f19601f8201168201806040525081019061390a91906156fa565b90506001600160a01b0381161561391f578091505b6001600160a01b038316156139b9576040516323b872dd60e01b81523360048201526001600160a01b038381166024830152604482018690528491908216906323b872dd906064016020604051808303816000875af1158015613986573d6000803e3d6000fd5b505050506040513d601f19601f820116820180604052508101906139aa919061566b565b6139b357600080fd5b50612e76565b833410156139c657600080fd5b6000826001600160a01b03163460405160006040518083038185875af1925050503d8060008114613a13576040519150601f19603f3d011682016040523d82523d6000602084013e613a18565b606091505b5050905080613a2657600080fd5b505050505050565b610c5e828260405180602001604052806000815250613f8c565b6000763d602d80600a3d3981f3363d3d373d3d3d363d730000008260601b60e81c176000526e5af43d82803e903d91602b57fd5bf38260781b17602052603760096000f090506001600160a01b038116613add5760405162461bcd60e51b8152602060048201526016602482015275115490cc4c4d8dce8818dc99585d194819985a5b195960521b60448201526064016109ad565b919050565b600160fb55565b61012d546001600160a01b03163314611bfd5760405162461bcd60e51b815260206004820181905260248201527f4f776e61626c653a2063616c6c6572206973206e6f7420746865206f776e657260448201526064016109ad565b61012d80546001600160a01b038381166001600160a01b0319831681179093556040519116919082907f8be0079c531659141344cd1fd0a4f28419497f9722a3daafe3b4186f6b6457e090600090a35050565b816001600160a01b0316836001600160a01b03161415613bf95760405162461bcd60e51b815260206004820152601960248201527f4552433732313a20617070726f766520746f2063616c6c65720000000000000060448201526064016109ad565b6001600160a01b038381166000818152606a6020908152604080832094871680845294825291829020805460ff191686151590811790915591519182527f17307eab39ab6107e8899845ad3d59bd9653f200f220920489ca2b5937696c31910160405180910390a3505050565b613c703383613d9c565b613c8c5760405162461bcd60e51b81526004016109ad90615928565b610ef784848484613fbf565b600054610100900460ff16613cbf5760405162461bcd60e51b81526004016109ad9061598e565b610c5e8282613ff2565b600054610100900460ff16613cf05760405162461bcd60e51b81526004016109ad9061598e565b611bfd614040565b600054610100900460ff16613d1f5760405162461bcd60e51b81526004016109ad9061598e565b611bfd614067565b600054610100900460ff16613d4e5760405162461bcd60e51b81526004016109ad9061598e565b611bfd733cc6cdda760b79bafa08df41ecfa224f810dceb6600161409a565b600054610100900460ff16613d945760405162461bcd60e51b81526004016109ad9061598e565b611bfd614223565b600080613da883611b05565b9050806001600160a01b0316846001600160a01b03161480613def57506001600160a01b038082166000908152606a602090815260408083209388168352929052205460ff165b80613e135750836001600160a01b0316613e0884610911565b6001600160a01b0316145b949350505050565b826001600160a01b0316613e2e82611b05565b6001600160a01b031614613e545760405162461bcd60e51b81526004016109ad906159d9565b6001600160a01b038216613eb65760405162461bcd60e51b8152602060048201526024808201527f4552433732313a207472616e7366657220746f20746865207a65726f206164646044820152637265737360e01b60648201526084016109ad565b613ec38383836001614253565b826001600160a01b0316613ed682611b05565b6001600160a01b031614613efc5760405162461bcd60e51b81526004016109ad906159d9565b600081815260696020908152604080832080546001600160a01b03199081169091556001600160a01b0387811680865260688552838620805460001901905590871680865283862080546001019055868652606790945282852080549092168417909155905184937fddf252ad1be2c89b69c2b068fc378daa952ba7f163c4a11628f55a4df523b3ef91a4505050565b613f9683836142a2565b613fa3600084848461441d565b610a4e5760405162461bcd60e51b81526004016109ad90615a1e565b613fca848484613e1b565b613fd68484848461441d565b610ef75760405162461bcd60e51b81526004016109ad90615a1e565b600054610100900460ff166140195760405162461bcd60e51b81526004016109ad9061598e565b815161402c906065906020850190614616565b508051610a4e906066906020840190614616565b600054610100900460ff16613ae25760405162461bcd60e51b81526004016109ad9061598e565b600054610100900460ff1661408e5760405162461bcd60e51b81526004016109ad9061598e565b6097805460ff19169055565b600054610100900460ff166140c15760405162461bcd60e51b81526004016109ad9061598e565b6daaeb6d7670e522a718067333cd4e3b15610c5e5760405163c3c5a54760e01b81523060048201526daaeb6d7670e522a718067333cd4e9063c3c5a547906024016020604051808303816000875af1158015614121573d6000803e3d6000fd5b505050506040513d601f19601f82011682018060405250810190614145919061566b565b610c5e5780156141b057604051633e9f1edf60e11b81526daaeb6d7670e522a718067333cd4e90637d3e3dbe906141829030908690600401615651565b600060405180830381600087803b15801561419c57600080fd5b505af1158015613a26573d6000803e3d6000fd5b6001600160a01b038216156141f25760405163a0af290360e01b81526daaeb6d7670e522a718067333cd4e9063a0af2903906141829030908690600401615651565b604051632210724360e11b81523060048201526daaeb6d7670e522a718067333cd4e90634420e48690602401614182565b600054610100900460ff1661424a5760405162461bcd60e51b81526004016109ad9061598e565b611bfd33613b44565b60408051808201909152600381526203231360ec1b60208201526001600160a01b038516156142955760405162461bcd60e51b81526004016109ad9190614926565b50610ef78484848461451b565b6001600160a01b0382166142f85760405162461bcd60e51b815260206004820181905260248201527f4552433732313a206d696e7420746f20746865207a65726f206164647265737360448201526064016109ad565b6143018161365f565b1561434e5760405162461bcd60e51b815260206004820152601c60248201527f4552433732313a20746f6b656e20616c7265616479206d696e7465640000000060448201526064016109ad565b61435c600083836001614253565b6143658161365f565b156143b25760405162461bcd60e51b815260206004820152601c60248201527f4552433732313a20746f6b656e20616c7265616479206d696e7465640000000060448201526064016109ad565b6001600160a01b038216600081815260686020908152604080832080546001019055848352606790915280822080546001600160a01b0319168417905551839291907fddf252ad1be2c89b69c2b068fc378daa952ba7f163c4a11628f55a4df523b3ef908290a45050565b60006001600160a01b0384163b1561451057604051630a85bd0160e11b81526001600160a01b0385169063150b7a0290614461903390899088908890600401615a70565b6020604051808303816000875af192505050801561449c575060408051601f3d908101601f1916820190925261449991810190615aad565b60015b6144f6573d8080156144ca576040519150601f19603f3d011682016040523d82523d6000602084013e6144cf565b606091505b5080516144ee5760405162461bcd60e51b81526004016109ad90615a1e565b805181602001fd5b6001600160e01b031916630a85bd0160e11b149050613e13565b506001949350505050565b6145278484848461458e565b60975460ff1615610ef75760405162461bcd60e51b815260206004820152602b60248201527f4552433732315061757361626c653a20746f6b656e207472616e73666572207760448201526a1a1a5b19481c185d5cd95960aa1b60648201526084016109ad565b6001811115610ef7576001600160a01b038416156145d4576001600160a01b038416600090815260686020526040812080548392906145ce908490615aca565b90915550505b6001600160a01b03831615610ef7576001600160a01b0383166000908152606860205260408120805483929061460b908490615ae1565b909155505050505050565b828054614622906155e4565b90600052602060002090601f016020900481019282614644576000855561468a565b82601f1061465d57805160ff191683800117855561468a565b8280016001018555821561468a579182015b8281111561468a57825182559160200191906001019061466f565b50614696929150614869565b5090565b5080546146a6906155e4565b6000825580601f106146b6575050565b601f016020900490600052602060002090810190610cf39190614869565b828054828255906000526020600020908101928215614721579160200282015b828111156147215782518051614711918491602090910190614616565b50916020019190600101906146f4565b5061469692915061487e565b82805482825590600052602060002090810192821561468a579160200282015b8281111561468a57825182546001600160a01b0319166001600160a01b0390911617825560209092019160019091019061474d565b604051806102600160405280600062ffffff168152602001600062ffffff1681526020016000815260200160006001600160a01b03168152602001606081526020016060815260200160006001600160a01b031681526020016060815260200160608152602001606081526020016148226040518060a0016040528060608152602001606081526020016060815260200160608152602001606081525090565b81526020016060815260200160608152602001606081526020016000815260200160006001600160a01b031681526020016060815260200160608152602001600081525090565b5b80821115614696576000815560010161486a565b80821115614696576000614892828261469a565b5060010161487e565b6001600160e01b031981168114610cf357600080fd5b6000602082840312156148c357600080fd5b81356119848161489b565b60005b838110156148e95781810151838201526020016148d1565b83811115610ef75750506000910152565b600081518084526149128160208601602086016148ce565b601f01601f19169290920160200192915050565b60208152600061198460208301846148fa565b60006020828403121561494b57600080fd5b5035919050565b6001600160a01b0381168114610cf357600080fd5b8035613add81614952565b6000806040838503121561498557600080fd5b823561499081614952565b946020939093013593505050565b634e487b7160e01b600052604160045260246000fd5b60405160a081016001600160401b03811182821017156149d6576149d661499e565b60405290565b60405161026081016001600160401b03811182821017156149d6576149d661499e565b604051601f8201601f191681016001600160401b0381118282101715614a2757614a2761499e565b604052919050565b60006001600160401b03821115614a4857614a4861499e565b50601f01601f191660200190565b6000614a69614a6484614a2f565b6149ff565b9050828152838383011115614a7d57600080fd5b828260208301376000602084830101529392505050565b600082601f830112614aa557600080fd5b61198483833560208501614a56565b60008060408385031215614ac757600080fd5b8235915060208301356001600160401b03811115614ae457600080fd5b614af085828601614a94565b9150509250929050565b60008060408385031215614b0d57600080fd5b50508035926020909101359150565b600060208284031215614b2e57600080fd5b813561198481614952565b600080600060608486031215614b4e57600080fd5b8335614b5981614952565b92506020840135614b6981614952565b929592945050506040919091013590565b8015158114610cf357600080fd5b8035613add81614b7a565b60008060408385031215614ba657600080fd5b823591506020830135614bb881614b7a565b809150509250929050565b803562ffffff81168114613add57600080fd5b600060a08284031215614be857600080fd5b614bf06149b4565b905081356001600160401b0380821115614c0957600080fd5b614c1585838601614a94565b83526020840135915080821115614c2b57600080fd5b614c3785838601614a94565b60208401526040840135915080821115614c5057600080fd5b614c5c85838601614a94565b60408401526060840135915080821115614c7557600080fd5b614c8185838601614a94565b60608401526080840135915080821115614c9a57600080fd5b50614ca784828501614a94565b60808301525092915050565b60006001600160401b03821115614ccc57614ccc61499e565b5060051b60200190565b600082601f830112614ce757600080fd5b81356020614cf7614a6483614cb3565b82815260059290921b84018101918181019086841115614d1657600080fd5b8286015b84811015614d555780356001600160401b03811115614d395760008081fd5b614d478986838b0101614a94565b845250918301918301614d1a565b509695505050505050565b600082601f830112614d7157600080fd5b81356020614d81614a6483614cb3565b82815260059290921b84018101918181019086841115614da057600080fd5b8286015b84811015614d55578035614db781614952565b8352918301918301614da4565b600080600060608486031215614dd957600080fd5b83356001600160401b0380821115614df057600080fd5b908501906102608288031215614e0557600080fd5b614e0d6149dc565b614e1683614bc3565b8152614e2460208401614bc3565b602082015260408301356040820152614e3f60608401614967565b6060820152608083013582811115614e5657600080fd5b614e6289828601614a94565b60808301525060a083013582811115614e7a57600080fd5b614e8689828601614a94565b60a083015250614e9860c08401614967565b60c082015260e083013582811115614eaf57600080fd5b614ebb89828601614a94565b60e0830152506101008084013583811115614ed557600080fd5b614ee18a828701614a94565b8284015250506101208084013583811115614efb57600080fd5b614f078a828701614a94565b8284015250506101408084013583811115614f2157600080fd5b614f2d8a828701614bd6565b8284015250506101608084013583811115614f4757600080fd5b614f538a828701614cd6565b8284015250506101808084013583811115614f6d57600080fd5b614f798a828701614cd6565b8284015250506101a08084013583811115614f9357600080fd5b614f9f8a828701614a94565b8284015250506101c08084013581830152506101e0614fbf818501614967565b908201526102008381013583811115614fd757600080fd5b614fe38a828701614a94565b8284015250506102208084013583811115614ffd57600080fd5b6150098a828701614d60565b8284015250506102409150818301358282015280955050505061502e60208501614b88565b9150604084013590509250925092565b6000806040838503121561505157600080fd5b823591506020830135614bb881614952565b6000815160a0845261507860a08501826148fa565b90506020830151848203602086015261509182826148fa565b915050604083015184820360408601526150ab82826148fa565b915050606083015184820360608601526150c582826148fa565b915050608083015184820360808601526150df82826148fa565b95945050505050565b600081518084526020808501808196508360051b8101915082860160005b8581101561513057828403895261511e8483516148fa565b98850198935090840190600101615106565b5091979650505050505050565b600081518084526020808501945080840160005b838110156151765781516001600160a01b031687529582019590820190600101615151565b509495945050505050565b6020815261519760208201835162ffffff169052565b600060208301516151af604084018262ffffff169052565b506040830151606083015260608301516151d460808401826001600160a01b03169052565b5060808301516102608060a08501526151f16102808501836148fa565b915060a0850151601f19808685030160c087015261520f84836148fa565b935060c0870151915061522d60e08701836001600160a01b03169052565b60e0870151915061010081878603018188015261524a85846148fa565b94508088015192505061012081878603018188015261526985846148fa565b94508088015192505061014081878603018188015261528885846148fa565b9450808801519250506101608187860301818801526152a78584615063565b9450808801519250506101808187860301818801526152c685846150e8565b9450808801519250506101a08187860301818801526152e585846150e8565b9450808801519250506101c081878603018188015261530485846148fa565b908801516101e0888101919091528801519094509150610200615331818801846001600160a01b03169052565b8088015192505061022081878603018188015261534e85846148fa565b94508088015192505061024081878603018188015261536d858461513d565b970151959092019490945250929392505050565b6000806040838503121561539457600080fd5b8235915060208301356001600160401b038111156153b157600080fd5b614af085828601614bd6565b600080604083850312156153d057600080fd5b82356153db81614952565b91506020830135614bb881614b7a565b60008060006060848603121561540057600080fd5b833592506020840135915060408401356001600160401b0381111561542457600080fd5b61543086828701614a94565b9150509250925092565b6000806000806080858703121561545057600080fd5b843561545b81614952565b9350602085013561546b81614952565b92506040850135915060608501356001600160401b0381111561548d57600080fd5b8501601f8101871361549e57600080fd5b6154ad87823560208401614a56565b91505092959194509250565b6000806000606084860312156154ce57600080fd5b8335925060208401356001600160401b038111156154eb57600080fd5b6154f786828701614a94565b925050604084013590509250925092565b60008060008060008060c0878903121561552157600080fd5b86356001600160401b038082111561553857600080fd5b6155448a838b01614a94565b9750602089013591508082111561555a57600080fd5b5061556789828a01614a94565b955050604087013561557881614952565b9350606087013561558881614952565b9250608087013561559881614952565b915060a08701356155a881614952565b809150509295509295509295565b600080604083850312156155c957600080fd5b82356155d481614952565b91506020830135614bb881614952565b600181811c908216806155f857607f821691505b6020821081141561561957634e487b7160e01b600052602260045260246000fd5b50919050565b600082516156318184602087016148ce565b9190910192915050565b634e487b7160e01b600052603260045260246000fd5b6001600160a01b0392831681529116602082015260400190565b60006020828403121561567d57600080fd5b815161198481614b7a565b634e487b7160e01b600052601160045260246000fd5b60008160001904831182151516156156b8576156b8615688565b500290565b6000826156da57634e487b7160e01b600052601260045260246000fd5b500490565b60006000198214156156f3576156f3615688565b5060010190565b60006020828403121561570c57600080fd5b815161198481614952565b60c0815261573160c0820188516001600160a01b03169052565b602087015160e0820152600060408801516101006157558185018362ffffff169052565b60608a0151915061012061576f8186018462ffffff169052565b60808b015192506101406157898187018562ffffff169052565b60a08c015193506101606157a38188018662ffffff169052565b60c08d015194506101c061018081818a01526157c36102808a01886148fa565b965060e08f01516101a08a0152858f015195506157ea828a01876001600160a01b03169052565b848f0151955060bf19945084898803016101e08a015261580a87876148fa565b8f85015180516102008c015260208101516102208c01529097509550828f0151955084898803016102408a0152615841878761513d565b908f01516102608a01526001600160a01b038e1660208a0152965061586895505050505050565b6001600160a01b03861660408301526001600160a01b03851660608301526001600160a01b038416608083015282151560a0830152979650505050505050565b6020815260006119846020830184615063565b6000602082840312156158cd57600080fd5b81516001600160401b038111156158e357600080fd5b8201601f810184136158f457600080fd5b8051615902614a6482614a2f565b81815285602083850101111561591757600080fd5b6150df8260208301602086016148ce565b6020808252602d908201527f4552433732313a2063616c6c6572206973206e6f7420746f6b656e206f776e6560408201526c1c881bdc88185c1c1c9bdd9959609a1b606082015260800190565b60006020828403121561598757600080fd5b5051919050565b6020808252602b908201527f496e697469616c697a61626c653a20636f6e7472616374206973206e6f74206960408201526a6e697469616c697a696e6760a81b606082015260800190565b60208082526025908201527f4552433732313a207472616e736665722066726f6d20696e636f72726563742060408201526437bbb732b960d91b606082015260800190565b60208082526032908201527f4552433732313a207472616e7366657220746f206e6f6e20455243373231526560408201527131b2b4bb32b91034b6b83632b6b2b73a32b960711b606082015260800190565b6001600160a01b0385811682528416602082015260408101839052608060608201819052600090615aa3908301846148fa565b9695505050505050565b600060208284031215615abf57600080fd5b81516119848161489b565b600082821015615adc57615adc615688565b500390565b60008219821115615af457615af4615688565b50019056fea264697066735822122011c5386430975ae5d42ec6512d288cd56d0202c0e7aee9c31944ce4fce3e6adc64736f6c634300080c0033",
  "linkReferences": {},
  "deployedLinkReferences": {}
}