{
  "_format": "hh-sol-artifact-1",
  "contractName": "GenerativeProject",
  "sourceName": "contracts/nfts/GenerativeProject.sol",
  "abi": [
    {
      "inputs": [
        {
          "internalType": "address",
          "name": "operator",
          "type": "address"
        }
      ],
      "name": "OperatorNotAllowed",
      "type": "error"
    },
    {
      "anonymous": false,
      "inputs": [
        {
          "indexed": true,
          "internalType": "address",
          "name": "owner",
          "type": "address"
        },
        {
          "indexed": true,
          "internalType": "address",
          "name": "approved",
          "type": "address"
        },
        {
          "indexed": true,
          "internalType": "uint256",
          "name": "tokenId",
          "type": "uint256"
        }
      ],
      "name": "Approval",
      "type": "event"
    },
    {
      "anonymous": false,
      "inputs": [
        {
          "indexed": true,
          "internalType": "address",
          "name": "owner",
          "type": "address"
        },
        {
          "indexed": true,
          "internalType": "address",
          "name": "operator",
          "type": "address"
        },
        {
          "indexed": false,
          "internalType": "bool",
          "name": "approved",
          "type": "bool"
        }
      ],
      "name": "ApprovalForAll",
      "type": "event"
    },
    {
      "anonymous": false,
      "inputs": [
        {
          "indexed": false,
          "internalType": "uint8",
          "name": "version",
          "type": "uint8"
        }
      ],
      "name": "Initialized",
      "type": "event"
    },
    {
      "anonymous": false,
      "inputs": [
        {
          "indexed": true,
          "internalType": "address",
          "name": "previousOwner",
          "type": "address"
        },
        {
          "indexed": true,
          "internalType": "address",
          "name": "newOwner",
          "type": "address"
        }
      ],
      "name": "OwnershipTransferred",
      "type": "event"
    },
    {
      "anonymous": false,
      "inputs": [
        {
          "indexed": false,
          "internalType": "address",
          "name": "account",
          "type": "address"
        }
      ],
      "name": "Paused",
      "type": "event"
    },
    {
      "anonymous": false,
      "inputs": [
        {
          "indexed": true,
          "internalType": "address",
          "name": "from",
          "type": "address"
        },
        {
          "indexed": true,
          "internalType": "address",
          "name": "to",
          "type": "address"
        },
        {
          "indexed": true,
          "internalType": "uint256",
          "name": "tokenId",
          "type": "uint256"
        }
      ],
      "name": "Transfer",
      "type": "event"
    },
    {
      "anonymous": false,
      "inputs": [
        {
          "indexed": false,
          "internalType": "address",
          "name": "account",
          "type": "address"
        }
      ],
      "name": "Unpaused",
      "type": "event"
    },
    {
      "inputs": [],
      "name": "_admin",
      "outputs": [
        {
          "internalType": "address",
          "name": "",
          "type": "address"
        }
      ],
      "stateMutability": "view",
      "type": "function"
    },
    {
      "inputs": [],
      "name": "_paramsAddress",
      "outputs": [
        {
          "internalType": "address",
          "name": "",
          "type": "address"
        }
      ],
      "stateMutability": "view",
      "type": "function"
    },
    {
      "inputs": [],
      "name": "_projectDataContextAddr",
      "outputs": [
        {
          "internalType": "address",
          "name": "",
          "type": "address"
        }
      ],
      "stateMutability": "view",
      "type": "function"
    },
    {
      "inputs": [],
      "name": "_projectImplementation",
      "outputs": [
        {
          "internalType": "address",
          "name": "",
          "type": "address"
        }
      ],
      "stateMutability": "view",
      "type": "function"
    },
    {
      "inputs": [],
      "name": "_randomizerAddr",
      "outputs": [
        {
          "internalType": "address",
          "name": "",
          "type": "address"
        }
      ],
      "stateMutability": "view",
      "type": "function"
    },
    {
      "inputs": [
        {
          "internalType": "uint256",
          "name": "projectId",
          "type": "uint256"
        },
        {
          "internalType": "string",
          "name": "_script",
          "type": "string"
        }
      ],
      "name": "addProjectScript",
      "outputs": [],
      "stateMutability": "nonpayable",
      "type": "function"
    },
    {
      "inputs": [
        {
          "internalType": "address",
          "name": "to",
          "type": "address"
        },
        {
          "internalType": "uint256",
          "name": "tokenId",
          "type": "uint256"
        }
      ],
      "name": "approve",
      "outputs": [],
      "stateMutability": "nonpayable",
      "type": "function"
    },
    {
      "inputs": [
        {
          "internalType": "address",
          "name": "owner",
          "type": "address"
        }
      ],
      "name": "balanceOf",
      "outputs": [
        {
          "internalType": "uint256",
          "name": "",
          "type": "uint256"
        }
      ],
      "stateMutability": "view",
      "type": "function"
    },
    {
      "inputs": [
        {
          "internalType": "address",
          "name": "newAdm",
          "type": "address"
        }
      ],
      "name": "changeAdmin",
      "outputs": [],
      "stateMutability": "nonpayable",
      "type": "function"
    },
    {
      "inputs": [
        {
          "internalType": "address",
          "name": "newAddr",
          "type": "address"
        }
      ],
      "name": "changeDataContextAddr",
      "outputs": [],
      "stateMutability": "nonpayable",
      "type": "function"
    },
    {
      "inputs": [
        {
          "internalType": "address",
          "name": "newAddr",
          "type": "address"
        }
      ],
      "name": "changeParamAddr",
      "outputs": [],
      "stateMutability": "nonpayable",
      "type": "function"
    },
    {
      "inputs": [
        {
          "internalType": "address",
          "name": "newAddr",
          "type": "address"
        }
      ],
      "name": "changeProjectImplementation",
      "outputs": [],
      "stateMutability": "nonpayable",
      "type": "function"
    },
    {
      "inputs": [
        {
          "internalType": "address",
          "name": "newAddr",
          "type": "address"
        }
      ],
      "name": "changeRandomizerAddr",
      "outputs": [],
      "stateMutability": "nonpayable",
      "type": "function"
    },
    {
      "inputs": [
        {
          "internalType": "uint256",
          "name": "projectId",
          "type": "uint256"
        }
      ],
      "name": "completeProject",
      "outputs": [],
      "stateMutability": "nonpayable",
      "type": "function"
    },
    {
      "inputs": [
        {
          "internalType": "uint256",
          "name": "projectId",
          "type": "uint256"
        },
        {
          "internalType": "uint256",
          "name": "scriptIndex",
          "type": "uint256"
        }
      ],
      "name": "deleteProjectScript",
      "outputs": [],
      "stateMutability": "nonpayable",
      "type": "function"
    },
    {
      "inputs": [
        {
          "internalType": "uint256",
          "name": "tokenId",
          "type": "uint256"
        }
      ],
      "name": "getApproved",
      "outputs": [
        {
          "internalType": "address",
          "name": "",
          "type": "address"
        }
      ],
      "stateMutability": "view",
      "type": "function"
    },
    {
      "inputs": [],
      "name": "getGenerativeNFTImpl",
      "outputs": [
        {
          "internalType": "address",
          "name": "impl",
          "type": "address"
        }
      ],
      "stateMutability": "view",
      "type": "function"
    },
    {
      "inputs": [
        {
          "internalType": "string",
          "name": "name",
          "type": "string"
        },
        {
          "internalType": "string",
          "name": "symbol",
          "type": "string"
        },
        {
          "internalType": "address",
          "name": "admin",
          "type": "address"
        },
        {
          "internalType": "address",
          "name": "paramsAddress",
          "type": "address"
        },
        {
          "internalType": "address",
          "name": "randomizerAddr",
          "type": "address"
        },
        {
          "internalType": "address",
          "name": "projectDataContextAddr",
          "type": "address"
        }
      ],
      "name": "initialize",
      "outputs": [],
      "stateMutability": "nonpayable",
      "type": "function"
    },
    {
      "inputs": [
        {
          "internalType": "address",
          "name": "owner",
          "type": "address"
        },
        {
          "internalType": "address",
          "name": "operator",
          "type": "address"
        }
      ],
      "name": "isApprovedForAll",
      "outputs": [
        {
          "internalType": "bool",
          "name": "",
          "type": "bool"
        }
      ],
      "stateMutability": "view",
      "type": "function"
    },
    {
      "inputs": [
        {
          "components": [
            {
              "internalType": "uint24",
              "name": "_maxSupply",
              "type": "uint24"
            },
            {
              "internalType": "uint24",
              "name": "_limit",
              "type": "uint24"
            },
            {
              "internalType": "uint256",
              "name": "_mintPrice",
              "type": "uint256"
            },
            {
              "internalType": "address",
              "name": "_mintPriceAddr",
              "type": "address"
            },
            {
              "internalType": "string",
              "name": "_name",
              "type": "string"
            },
            {
              "internalType": "string",
              "name": "_creator",
              "type": "string"
            },
            {
              "internalType": "address",
              "name": "_creatorAddr",
              "type": "address"
            },
            {
              "internalType": "string",
              "name": "_license",
              "type": "string"
            },
            {
              "internalType": "string",
              "name": "_desc",
              "type": "string"
            },
            {
              "internalType": "string",
              "name": "_image",
              "type": "string"
            },
            {
              "components": [
                {
                  "internalType": "string",
                  "name": "_web",
                  "type": "string"
                },
                {
                  "internalType": "string",
                  "name": "_twitter",
                  "type": "string"
                },
                {
                  "internalType": "string",
                  "name": "_discord",
                  "type": "string"
                },
                {
                  "internalType": "string",
                  "name": "_medium",
                  "type": "string"
                },
                {
                  "internalType": "string",
                  "name": "_instagram",
                  "type": "string"
                }
              ],
              "internalType": "struct NFTProject.ProjectSocial",
              "name": "_social",
              "type": "tuple"
            },
            {
              "internalType": "string[]",
              "name": "_scriptType",
              "type": "string[]"
            },
            {
              "internalType": "string[]",
              "name": "_scripts",
              "type": "string[]"
            },
            {
              "internalType": "string",
              "name": "_styles",
              "type": "string"
            },
            {
              "internalType": "uint256",
              "name": "_completeTime",
              "type": "uint256"
            },
            {
              "internalType": "address",
              "name": "_genNFTAddr",
              "type": "address"
            },
            {
              "internalType": "string",
              "name": "_itemDesc",
              "type": "string"
            },
            {
              "internalType": "address[]",
              "name": "_reserves",
              "type": "address[]"
            },
            {
              "internalType": "uint256",
              "name": "_royalty",
              "type": "uint256"
            }
          ],
          "internalType": "struct NFTProject.Project",
          "name": "project",
          "type": "tuple"
        },
        {
          "internalType": "bool",
          "name": "disable",
          "type": "bool"
        },
        {
          "internalType": "uint256",
          "name": "openingTime",
          "type": "uint256"
        }
      ],
      "name": "mint",
      "outputs": [
        {
          "internalType": "uint256",
          "name": "",
          "type": "uint256"
        }
      ],
      "stateMutability": "payable",
      "type": "function"
    },
    {
      "inputs": [],
      "name": "name",
      "outputs": [
        {
          "internalType": "string",
          "name": "",
          "type": "string"
        }
      ],
      "stateMutability": "view",
      "type": "function"
    },
    {
      "inputs": [],
      "name": "owner",
      "outputs": [
        {
          "internalType": "address",
          "name": "",
          "type": "address"
        }
      ],
      "stateMutability": "view",
      "type": "function"
    },
    {
      "inputs": [
        {
          "internalType": "uint256",
          "name": "tokenId",
          "type": "uint256"
        }
      ],
      "name": "ownerOf",
      "outputs": [
        {
          "internalType": "address",
          "name": "",
          "type": "address"
        }
      ],
      "stateMutability": "view",
      "type": "function"
    },
    {
      "inputs": [],
      "name": "paused",
      "outputs": [
        {
          "internalType": "bool",
          "name": "",
          "type": "bool"
        }
      ],
      "stateMutability": "view",
      "type": "function"
    },
    {
      "inputs": [
        {
          "internalType": "uint256",
          "name": "projectId",
          "type": "uint256"
        }
      ],
      "name": "projectDetails",
      "outputs": [
        {
          "components": [
            {
              "internalType": "uint24",
              "name": "_maxSupply",
              "type": "uint24"
            },
            {
              "internalType": "uint24",
              "name": "_limit",
              "type": "uint24"
            },
            {
              "internalType": "uint256",
              "name": "_mintPrice",
              "type": "uint256"
            },
            {
              "internalType": "address",
              "name": "_mintPriceAddr",
              "type": "address"
            },
            {
              "internalType": "string",
              "name": "_name",
              "type": "string"
            },
            {
              "internalType": "string",
              "name": "_creator",
              "type": "string"
            },
            {
              "internalType": "address",
              "name": "_creatorAddr",
              "type": "address"
            },
            {
              "internalType": "string",
              "name": "_license",
              "type": "string"
            },
            {
              "internalType": "string",
              "name": "_desc",
              "type": "string"
            },
            {
              "internalType": "string",
              "name": "_image",
              "type": "string"
            },
            {
              "components": [
                {
                  "internalType": "string",
                  "name": "_web",
                  "type": "string"
                },
                {
                  "internalType": "string",
                  "name": "_twitter",
                  "type": "string"
                },
                {
                  "internalType": "string",
                  "name": "_discord",
                  "type": "string"
                },
                {
                  "internalType": "string",
                  "name": "_medium",
                  "type": "string"
                },
                {
                  "internalType": "string",
                  "name": "_instagram",
                  "type": "string"
                }
              ],
              "internalType": "struct NFTProject.ProjectSocial",
              "name": "_social",
              "type": "tuple"
            },
            {
              "internalType": "string[]",
              "name": "_scriptType",
              "type": "string[]"
            },
            {
              "internalType": "string[]",
              "name": "_scripts",
              "type": "string[]"
            },
            {
              "internalType": "string",
              "name": "_styles",
              "type": "string"
            },
            {
              "internalType": "uint256",
              "name": "_completeTime",
              "type": "uint256"
            },
            {
              "internalType": "address",
              "name": "_genNFTAddr",
              "type": "address"
            },
            {
              "internalType": "string",
              "name": "_itemDesc",
              "type": "string"
            },
            {
              "internalType": "address[]",
              "name": "_reserves",
              "type": "address[]"
            },
            {
              "internalType": "uint256",
              "name": "_royalty",
              "type": "uint256"
            }
          ],
          "internalType": "struct NFTProject.Project",
          "name": "project",
          "type": "tuple"
        }
      ],
      "stateMutability": "view",
      "type": "function"
    },
    {
      "inputs": [
        {
          "internalType": "uint256",
          "name": "projectId",
          "type": "uint256"
        }
      ],
      "name": "projectStatus",
      "outputs": [
        {
          "internalType": "bool",
          "name": "enable",
          "type": "bool"
        }
      ],
      "stateMutability": "view",
      "type": "function"
    },
    {
      "inputs": [],
      "name": "renounceOwnership",
      "outputs": [],
      "stateMutability": "nonpayable",
      "type": "function"
    },
    {
      "inputs": [
        {
          "internalType": "uint256",
          "name": "projectId",
          "type": "uint256"
        },
        {
          "internalType": "uint256",
          "name": "_salePrice",
          "type": "uint256"
        }
      ],
      "name": "royaltyInfo",
      "outputs": [
        {
          "internalType": "address",
          "name": "receiver",
          "type": "address"
        },
        {
          "internalType": "uint256",
          "name": "royaltyAmount",
          "type": "uint256"
        }
      ],
      "stateMutability": "view",
      "type": "function"
    },
    {
      "inputs": [
        {
          "internalType": "address",
          "name": "from",
          "type": "address"
        },
        {
          "internalType": "address",
          "name": "to",
          "type": "address"
        },
        {
          "internalType": "uint256",
          "name": "tokenId",
          "type": "uint256"
        }
      ],
      "name": "safeTransferFrom",
      "outputs": [],
      "stateMutability": "nonpayable",
      "type": "function"
    },
    {
      "inputs": [
        {
          "internalType": "address",
          "name": "from",
          "type": "address"
        },
        {
          "internalType": "address",
          "name": "to",
          "type": "address"
        },
        {
          "internalType": "uint256",
          "name": "tokenId",
          "type": "uint256"
        },
        {
          "internalType": "bytes",
          "name": "data",
          "type": "bytes"
        }
      ],
      "name": "safeTransferFrom",
      "outputs": [],
      "stateMutability": "nonpayable",
      "type": "function"
    },
    {
      "inputs": [
        {
          "internalType": "address",
          "name": "operator",
          "type": "address"
        },
        {
          "internalType": "bool",
          "name": "approved",
          "type": "bool"
        }
      ],
      "name": "setApprovalForAll",
      "outputs": [],
      "stateMutability": "nonpayable",
      "type": "function"
    },
    {
      "inputs": [
        {
          "internalType": "uint256",
          "name": "projectId",
          "type": "uint256"
        },
        {
          "internalType": "bool",
          "name": "enable",
          "type": "bool"
        }
      ],
      "name": "setProjectStatus",
      "outputs": [],
      "stateMutability": "nonpayable",
      "type": "function"
    },
    {
      "inputs": [
        {
          "internalType": "bytes4",
          "name": "interfaceId",
          "type": "bytes4"
        }
      ],
      "name": "supportsInterface",
      "outputs": [
        {
          "internalType": "bool",
          "name": "",
          "type": "bool"
        }
      ],
      "stateMutability": "view",
      "type": "function"
    },
    {
      "inputs": [],
      "name": "symbol",
      "outputs": [
        {
          "internalType": "string",
          "name": "",
          "type": "string"
        }
      ],
      "stateMutability": "view",
      "type": "function"
    },
    {
      "inputs": [
        {
          "internalType": "uint256",
          "name": "projectId",
          "type": "uint256"
        }
      ],
      "name": "tokenURI",
      "outputs": [
        {
          "internalType": "string",
          "name": "result",
          "type": "string"
        }
      ],
      "stateMutability": "view",
      "type": "function"
    },
    {
      "inputs": [
        {
          "internalType": "address",
          "name": "from",
          "type": "address"
        },
        {
          "internalType": "address",
          "name": "to",
          "type": "address"
        },
        {
          "internalType": "uint256",
          "name": "tokenId",
          "type": "uint256"
        }
      ],
      "name": "transferFrom",
      "outputs": [],
      "stateMutability": "nonpayable",
      "type": "function"
    },
    {
      "inputs": [
        {
          "internalType": "address",
          "name": "newOwner",
          "type": "address"
        }
      ],
      "name": "transferOwnership",
      "outputs": [],
      "stateMutability": "nonpayable",
      "type": "function"
    },
    {
      "inputs": [
        {
          "internalType": "uint256",
          "name": "projectId",
          "type": "uint256"
        },
        {
          "internalType": "string",
          "name": "creatorName",
          "type": "string"
        }
      ],
      "name": "updateProjectCreatorName",
      "outputs": [],
      "stateMutability": "nonpayable",
      "type": "function"
    },
    {
      "inputs": [
        {
          "internalType": "uint256",
          "name": "projectId",
          "type": "uint256"
        },
        {
          "internalType": "string",
          "name": "license",
          "type": "string"
        }
      ],
      "name": "updateProjectLicense",
      "outputs": [],
      "stateMutability": "nonpayable",
      "type": "function"
    },
    {
      "inputs": [
        {
          "internalType": "uint256",
          "name": "projectId",
          "type": "uint256"
        },
        {
          "internalType": "string",
          "name": "projectName",
          "type": "string"
        }
      ],
      "name": "updateProjectName",
      "outputs": [],
      "stateMutability": "nonpayable",
      "type": "function"
    },
    {
      "inputs": [
        {
          "internalType": "uint256",
          "name": "projectId",
          "type": "uint256"
        },
        {
          "internalType": "uint256",
          "name": "price",
          "type": "uint256"
        }
      ],
      "name": "updateProjectPrice",
      "outputs": [],
      "stateMutability": "nonpayable",
      "type": "function"
    },
    {
      "inputs": [
        {
          "internalType": "uint256",
          "name": "projectId",
          "type": "uint256"
        },
        {
          "internalType": "address",
          "name": "priceAddress",
          "type": "address"
        }
      ],
      "name": "updateProjectPriceAddress",
      "outputs": [],
      "stateMutability": "nonpayable",
      "type": "function"
    },
    {
      "inputs": [
        {
          "internalType": "uint256",
          "name": "projectId",
          "type": "uint256"
        },
        {
          "internalType": "uint256",
          "name": "scriptIndex",
          "type": "uint256"
        },
        {
          "internalType": "string",
          "name": "script",
          "type": "string"
        }
      ],
      "name": "updateProjectScript",
      "outputs": [],
      "stateMutability": "nonpayable",
      "type": "function"
    },
    {
      "inputs": [
        {
          "internalType": "uint256",
          "name": "projectId",
          "type": "uint256"
        },
        {
          "internalType": "string",
          "name": "scriptType",
          "type": "string"
        },
        {
          "internalType": "uint256",
          "name": "i",
          "type": "uint256"
        }
      ],
      "name": "updateProjectScriptType",
      "outputs": [],
      "stateMutability": "nonpayable",
      "type": "function"
    },
    {
      "inputs": [
        {
          "internalType": "uint256",
          "name": "projectId",
          "type": "uint256"
        },
        {
          "components": [
            {
              "internalType": "string",
              "name": "_web",
              "type": "string"
            },
            {
              "internalType": "string",
              "name": "_twitter",
              "type": "string"
            },
            {
              "internalType": "string",
              "name": "_discord",
              "type": "string"
            },
            {
              "internalType": "string",
              "name": "_medium",
              "type": "string"
            },
            {
              "internalType": "string",
              "name": "_instagram",
              "type": "string"
            }
          ],
          "internalType": "struct NFTProject.ProjectSocial",
          "name": "data",
          "type": "tuple"
        }
      ],
      "name": "updateProjectSocial",
      "outputs": [],
      "stateMutability": "nonpayable",
      "type": "function"
    },
    {
      "inputs": [
        {
          "internalType": "address",
          "name": "receiver",
          "type": "address"
        },
        {
          "internalType": "address",
          "name": "erc20Addr",
          "type": "address"
        },
        {
          "internalType": "uint256",
          "name": "amount",
          "type": "uint256"
        }
      ],
      "name": "withdraw",
      "outputs": [],
      "stateMutability": "nonpayable",
      "type": "function"
    }
  ],
  "bytecode": "0x608060405234801561001057600080fd5b50615d3680620000216000396000f3fe60806040526004361061027d5760003560e01c806370a082311161014f578063acad0124116100c1578063daf618001161007a578063daf61800146107c5578063e283d82f146107e5578063e56f2fe414610805578063e985e9c514610825578063f2fde38b1461086e578063febfd6c31461088e57600080fd5b8063acad012414610704578063adfc7dae14610724578063b1656ba314610745578063b88d4fde14610765578063c87b56dd14610785578063d9caed12146107a557600080fd5b80638dd91a56116101135780638dd91a56146106425780638e1ab7771461066f5780638f2839701461068f57806392655336146106af57806395d89b41146106cf578063a22cb465146106e457600080fd5b806370a08231146105ad578063715018a6146105cd5780637c582908146105e257806389abfc9f146106025780638da5cb5b1461062357600080fd5b806325b75d68116101f3578063472f1e02116101ac578063472f1e02146104f357806350ac589214610513578063575b57ea146105335780635c975abb146105545780636352211e1461056c57806366215eb41461058c57600080fd5b806325b75d68146104145780632a55205a14610434578063300b4800146104735780633af6cd1e1461049257806342842e0e146104b257806345bf4d08146104d257600080fd5b8063095ea7b311610245578063095ea7b3146103545780630d17067314610374578063166b7469146103945780631ca9741b146103b45780632245f152146103d457806323b872dd146103f457600080fd5b806301bc45c91461028257806301ffc9a7146102c057806306fdde03146102f057806306fe72a814610312578063081812fc14610334575b600080fd5b34801561028e57600080fd5b5061015f546102a3906001600160a01b031681565b6040516001600160a01b0390911681526020015b60405180910390f35b3480156102cc57600080fd5b506102e06102db3660046148ff565b6108ae565b60405190151581526020016102b7565b3480156102fc57600080fd5b50610305610900565b6040516102b79190614974565b34801561031e57600080fd5b5061033261032d3660046149ac565b610992565b005b34801561034057600080fd5b506102a361034f3660046149c9565b610a2f565b34801561036057600080fd5b5061033261036f3660046149e2565b610a56565b34801561038057600080fd5b5061033261038f366004614b24565b610b6c565b3480156103a057600080fd5b506103326103af366004614b6a565b610c8a565b3480156103c057600080fd5b506103326103cf3660046149ac565b610d7b565b3480156103e057600080fd5b506103326103ef3660046149c9565b610e10565b34801561040057600080fd5b5061033261040f366004614b8c565b610ec1565b34801561042057600080fd5b5061033261042f366004614b24565b611017565b34801561044057600080fd5b5061045461044f366004614b6a565b611135565b604080516001600160a01b0390931683526020830191909152016102b7565b34801561047f57600080fd5b50610165546001600160a01b03166102a3565b34801561049e57600080fd5b506103326104ad366004614be6565b611166565b3480156104be57600080fd5b506103326104cd366004614b8c565b611337565b6104e56104e0366004614e17565b611482565b6040519081526020016102b7565b3480156104ff57600080fd5b5061033261050e3660046149ac565b611afa565b34801561051f57600080fd5b506102e061052e3660046149c9565b611b8f565b34801561053f57600080fd5b50610162546102a3906001600160a01b031681565b34801561056057600080fd5b5060975460ff166102e0565b34801561057857600080fd5b506102a36105873660046149c9565b611c74565b34801561059857600080fd5b50610161546102a3906001600160a01b031681565b3480156105b957600080fd5b506104e56105c83660046149ac565b611cd4565b3480156105d957600080fd5b50610332611d5a565b3480156105ee57600080fd5b506103326105fd366004615091565b611d6e565b34801561060e57600080fd5b50610165546102a3906001600160a01b031681565b34801561062f57600080fd5b5061012d546001600160a01b03166102a3565b34801561064e57600080fd5b5061066261065d3660046149c9565b611eea565b6040516102b791906151d4565b34801561067b57600080fd5b5061033261068a3660046153d4565b6128dd565b34801561069b57600080fd5b506103326106aa3660046149ac565b612aa7565b3480156106bb57600080fd5b506103326106ca366004614b6a565b612b3c565b3480156106db57600080fd5b50610305612c99565b3480156106f057600080fd5b506103326106ff366004615410565b612ca8565b34801561071057600080fd5b5061033261071f366004614b24565b612cb3565b34801561073057600080fd5b50610160546102a3906001600160a01b031681565b34801561075157600080fd5b5061033261076036600461543e565b612d9c565b34801561077157600080fd5b5061033261078036600461548d565b612e93565b34801561079157600080fd5b506103056107a03660046149c9565b612fec565b3480156107b157600080fd5b506103326107c0366004614b8c565b6130a6565b3480156107d157600080fd5b506103326107e036600461550c565b613202565b3480156107f157600080fd5b50610332610800366004614b24565b6132dc565b34801561081157600080fd5b5061033261082036600461555b565b6133fa565b34801561083157600080fd5b506102e0610840366004615609565b6001600160a01b039182166000908152606a6020908152604080832093909416825291909152205460ff1690565b34801561087a57600080fd5b506103326108893660046149ac565b613605565b34801561089a57600080fd5b506103326108a93660046149ac565b61367b565b60006001600160e01b031982166380ac58cd60e01b14806108df57506001600160e01b03198216635b5e139f60e01b145b806108fa57506301ffc9a760e01b6001600160e01b03198316145b92915050565b60606065805461090f90615637565b80601f016020809104026020016040519081016040528092919081815260200182805461093b90615637565b80156109885780601f1061095d57610100808354040283529160200191610988565b820191906000526020600020905b81548152906001019060200180831161096b57829003601f168201915b5050505050905090565b61015f546001600160a01b0316331480156109b557506001600160a01b03811615155b6040518060400160405280600381526020016231303160e81b815250906109f85760405162461bcd60e51b81526004016109ef9190614974565b60405180910390fd5b50610165546001600160a01b03828116911614610a2c5761016580546001600160a01b0319166001600160a01b0383161790555b50565b6000610a3a82613710565b506000908152606960205260409020546001600160a01b031690565b6000610a6182611c74565b9050806001600160a01b0316836001600160a01b03161415610acf5760405162461bcd60e51b815260206004820152602160248201527f4552433732313a20617070726f76616c20746f2063757272656e74206f776e656044820152603960f91b60648201526084016109ef565b336001600160a01b0382161480610aeb5750610aeb8133610840565b610b5d5760405162461bcd60e51b815260206004820152603d60248201527f4552433732313a20617070726f76652063616c6c6572206973206e6f7420746f60448201527f6b656e206f776e6572206f7220617070726f76656420666f7220616c6c00000060648201526084016109ef565b610b678383613760565b505050565b61015f546001600160a01b0316331480610ba05750600082815261016460205260409020600501546001600160a01b031633145b6040518060400160405280600381526020016231303160e81b81525090610bda5760405162461bcd60e51b81526004016109ef9190614974565b50610be4826137ce565b6040518060400160405280600381526020016232303960e81b81525090610c1e5760405162461bcd60e51b81526004016109ef9190614974565b506000828152610164602090815260409091208251610c4592600390920191840190614657565b5080604051610c549190615672565b6040519081900381209083907fdaa562afcb682535ccff278b5881e249435b61d592905fa2fe0f33a9a363e11b90600090a35050565b61015f546001600160a01b0316331480610cbe5750600082815261016460205260409020600501546001600160a01b031633145b6040518060400160405280600381526020016231303160e81b81525090610cf85760405162461bcd60e51b81526004016109ef9190614974565b50610d02826137ce565b6040518060400160405280600381526020016232303960e81b81525090610d3c5760405162461bcd60e51b81526004016109ef9190614974565b50600082815261016460205260409020600f01805482908110610d6157610d6161568e565b906000526020600020016000610d7791906146db565b5050565b61015f546001600160a01b031633148015610d9e57506001600160a01b03811615155b6040518060400160405280600381526020016231303160e81b81525090610dd85760405162461bcd60e51b81526004016109ef9190614974565b50610161546001600160a01b03828116911614610a2c5761016180546001600160a01b0383166001600160a01b031990911617905550565b600081815261016460205260409020601201546001600160a01b03163314610e3757600080fd5b610e40816137ce565b6040518060400160405280600381526020016232303960e81b81525090610e7a5760405162461bcd60e51b81526004016109ef9190614974565b50600081815261016460205260408082204260119091018190559051909183917f28259f066448a50458eb3d217c396dbd1f78c8626a2a252ddc0d34ab906b54239190a350565b826daaeb6d7670e522a718067333cd4e3b15611006576001600160a01b038116331415610ef857610ef38484846137eb565b611011565b604051633185c44d60e21b81526daaeb6d7670e522a718067333cd4e9063c617113490610f2b90309033906004016156a4565b602060405180830381865afa158015610f48573d6000803e3d6000fd5b505050506040513d601f19601f82011682018060405250810190610f6c91906156be565b8015610fe75750604051633185c44d60e21b81526daaeb6d7670e522a718067333cd4e9063c617113490610fa690309085906004016156a4565b602060405180830381865afa158015610fc3573d6000803e3d6000fd5b505050506040513d601f19601f82011682018060405250810190610fe791906156be565b61100657604051633b79c77360e21b81523360048201526024016109ef565b6110118484846137eb565b50505050565b61015f546001600160a01b031633148061104b5750600082815261016460205260409020600501546001600160a01b031633145b6040518060400160405280600381526020016231303160e81b815250906110855760405162461bcd60e51b81526004016109ef9190614974565b5061108f826137ce565b6040518060400160405280600381526020016232303960e81b815250906110c95760405162461bcd60e51b81526004016109ef9190614974565b5060008281526101646020908152604090912082516110f092600690920191840190614657565b50806040516110ff9190615672565b6040519081900381209083907f37e7d36d9467fef9204db596ec8ad600a5f42d03309d7936daed5b4aedf9a16690600090a35050565b61015f546001600160a01b03166000612710611153846101f46156f1565b61115d9190615710565b90509250929050565b61116f826137ce565b6040518060400160405280600381526020016232303960e81b815250906111a95760405162461bcd60e51b81526004016109ef9190614974565b5061015f546001600160a01b03163314806111de5750600082815261016460205260409020600501546001600160a01b031633145b6040518060400160405280600381526020016231303160e81b815250906112185760405162461bcd60e51b81526004016109ef9190614974565b50600082815261016460209081526040918290206012015482516302734eab60e51b815292516001600160a01b0390911692841515928492634e69d5609260048082019392918290030181865afa158015611277573d6000803e3d6000fd5b505050506040513d601f19601f8201168201806040525081019061129b91906156be565b151514156112a857600080fd5b6040516317103dbd60e21b815282151560048201526001600160a01b03821690635c40f6f490602401600060405180830381600087803b1580156112eb57600080fd5b505af11580156112ff573d6000803e3d6000fd5b505060405184151592508591507ff6c6b5ef8b8f3bb25af69bda9a347568bfc16d17d1f6e911de88f63a08994af990600090a3505050565b826daaeb6d7670e522a718067333cd4e3b15611477576001600160a01b03811633141561136957610ef384848461381c565b604051633185c44d60e21b81526daaeb6d7670e522a718067333cd4e9063c61711349061139c90309033906004016156a4565b602060405180830381865afa1580156113b9573d6000803e3d6000fd5b505050506040513d601f19601f820116820180604052508101906113dd91906156be565b80156114585750604051633185c44d60e21b81526daaeb6d7670e522a718067333cd4e9063c61711349061141790309085906004016156a4565b602060405180830381865afa158015611434573d6000803e3d6000fd5b505050506040513d601f19601f8201168201806040525081019061145891906156be565b61147757604051633b79c77360e21b81523360048201526024016109ef565b61101184848461381c565b600061148c613837565b60038460800151511180156114a6575060038460a0015151115b80156114b85750600084610120015151115b6040518060400160405280600381526020016203230360ec1b815250906114f25760405162461bcd60e51b81526004016109ef9190614974565b50835162ffffff16158015906115135750620f4240846000015162ffffff16105b801561152857506000846020015162ffffff16115b80156115465750836000015162ffffff16846020015162ffffff1611155b8015611559575061271084610240015111155b604051806040016040528060038152602001620c8c0d60ea1b815250906115935760405162461bcd60e51b81526004016109ef9190614974565b5060c084015160408051808201909152600381526203130360ec1b6020820152906001600160a01b03166115da5760405162461bcd60e51b81526004016109ef9190614974565b5061016380549060006115ec83615732565b9091555050610160546001600160a01b0316611606613891565b610163546000908152610164602090815260409182902087518154838a015162ffffff90811663010000000265ffffffffffff1990921692169190911717815591870151600183015560608701516002830180546001600160a01b039092166001600160a01b031990921691909117905560808701518051889392611692926003850192910190614657565b5060a082015180516116ae916004840191602090910190614657565b5060c08201516005820180546001600160a01b0319166001600160a01b0390921691909117905560e082015180516116f0916006840191602090910190614657565b50610100820151805161170d916007840191602090910190614657565b50610120820151805161172a916008840191602090910190614657565b5061014082015180518051600984019161174991839160200190614657565b5060208281015180516117629260018501920190614657565b506040820151805161177e916002840191602090910190614657565b506060820151805161179a916003840191602090910190614657565b50608082015180516117b6916004840191602090910190614657565b50505061016082015180516117d591600e840191602090910190614715565b5061018082015180516117f291600f840191602090910190614715565b506101a0820151805161180f916010840191602090910190614657565b506101c082015160118201556101e08201516012820180546001600160a01b0319166001600160a01b03909216919091179055610200820151805161185e916013840191602090910190614657565b50610220820151805161187b91601484019160209091019061476e565b50610240820151816015015590505061189b8560c0015161016354613b9d565b60006040516118a9906147c3565b604051809103906000f0801580156118c5573d6000803e3d6000fd5b50610163546000908152610164602052604080822060120180546001600160a01b0319166001600160a01b038516908117909155815163266c45bb60e11b81526004810192909252604482018390526060602483015260648201929092529192508291829190634cd88b7690608401600060405180830381600087803b15801561194e57600080fd5b505af1158015611962573d6000803e3d6000fd5b50505050806001600160a01b031663fc237452604051806101a00160405280306001600160a01b031681526020016101635481526020018b6000015162ffffff1681526020018b6020015162ffffff168152602001600062ffffff168152602001600062ffffff1681526020018b60a0015181526020018b6040015181526020018b606001516001600160a01b031681526020018b6080015181526020016040518060400160405280600081526020018b81525081526020018b610220015181526020018b610240015181525061015f60009054906101000a90046001600160a01b031661016060009054906101000a90046001600160a01b031661016160009054906101000a90046001600160a01b031661016260009054906101000a90046001600160a01b03168d6040518763ffffffff1660e01b8152600401611aad9695949392919061574d565b600060405180830381600087803b158015611ac757600080fd5b505af1158015611adb573d6000803e3d6000fd5b5050505061016354945050505050611af3600160fb55565b9392505050565b61015f546001600160a01b031633148015611b1d57506001600160a01b03811615155b6040518060400160405280600381526020016231303160e81b81525090611b575760405162461bcd60e51b81526004016109ef9190614974565b50610162546001600160a01b03828116911614610a2c5761016280546001600160a01b0383166001600160a01b031990911617905550565b6000611b9a826137ce565b6040518060400160405280600381526020016232303960e81b81525090611bd45760405162461bcd60e51b81526004016109ef9190614974565b50600082815261016460209081526040918290206012015482516302734eab60e51b815292516001600160a01b03909116928392634e69d560926004808401938290030181865afa158015611c2d573d6000803e3d6000fd5b505050506040513d601f19601f82011682018060405250810190611c5191906156be565b9150818015611af357505050600090815261016460205260409020601101541590565b6000818152606760205260408120546001600160a01b0316806108fa5760405162461bcd60e51b8152602060048201526018602482015277115490cdcc8c4e881a5b9d985b1a59081d1bdad95b88125160421b60448201526064016109ef565b60006001600160a01b038216611d3e5760405162461bcd60e51b815260206004820152602960248201527f4552433732313a2061646472657373207a65726f206973206e6f7420612076616044820152683634b21037bbb732b960b91b60648201526084016109ef565b506001600160a01b031660009081526068602052604090205490565b611d62613bbe565b611d6c6000613c19565b565b61015f546001600160a01b0316331480611da25750600082815261016460205260409020600501546001600160a01b031633145b6040518060400160405280600381526020016231303160e81b81525090611ddc5760405162461bcd60e51b81526004016109ef9190614974565b50611de6826137ce565b6040518060400160405280600381526020016232303960e81b81525090611e205760405162461bcd60e51b81526004016109ef9190614974565b5060008281526101646020526040908190206002810180546001600160a01b0319166001600160a01b038581169182179092556012909201549251633745368960e11b8152600481019290925291909116908190636e8a6d1290602401600060405180830381600087803b158015611e9757600080fd5b505af1158015611eab573d6000803e3d6000fd5b50506040516001600160a01b03851692508591507f5b1e0d93bdeaa5768c67d3842b9e946453118961a3f54a491511d7fc452b374f90600090a3505050565b611ef26147d0565b611efb826137ce565b6040518060400160405280600381526020016232303960e81b81525090611f355760405162461bcd60e51b81526004016109ef9190614974565b5060008281526101646020908152604091829020825161026081018452815462ffffff80821683526301000000909104169281019290925260018101549282019290925260028201546001600160a01b03166060820152600382018054919291608084019190611fa490615637565b80601f0160208091040260200160405190810160405280929190818152602001828054611fd090615637565b801561201d5780601f10611ff25761010080835404028352916020019161201d565b820191906000526020600020905b81548152906001019060200180831161200057829003601f168201915b5050505050815260200160048201805461203690615637565b80601f016020809104026020016040519081016040528092919081815260200182805461206290615637565b80156120af5780601f10612084576101008083540402835291602001916120af565b820191906000526020600020905b81548152906001019060200180831161209257829003601f168201915b505050918352505060058201546001600160a01b031660208201526006820180546040909201916120df90615637565b80601f016020809104026020016040519081016040528092919081815260200182805461210b90615637565b80156121585780601f1061212d57610100808354040283529160200191612158565b820191906000526020600020905b81548152906001019060200180831161213b57829003601f168201915b5050505050815260200160078201805461217190615637565b80601f016020809104026020016040519081016040528092919081815260200182805461219d90615637565b80156121ea5780601f106121bf576101008083540402835291602001916121ea565b820191906000526020600020905b8154815290600101906020018083116121cd57829003601f168201915b5050505050815260200160088201805461220390615637565b80601f016020809104026020016040519081016040528092919081815260200182805461222f90615637565b801561227c5780601f106122515761010080835404028352916020019161227c565b820191906000526020600020905b81548152906001019060200180831161225f57829003601f168201915b50505050508152602001600982016040518060a00160405290816000820180546122a590615637565b80601f01602080910402602001604051908101604052809291908181526020018280546122d190615637565b801561231e5780601f106122f35761010080835404028352916020019161231e565b820191906000526020600020905b81548152906001019060200180831161230157829003601f168201915b5050505050815260200160018201805461233790615637565b80601f016020809104026020016040519081016040528092919081815260200182805461236390615637565b80156123b05780601f10612385576101008083540402835291602001916123b0565b820191906000526020600020905b81548152906001019060200180831161239357829003601f168201915b505050505081526020016002820180546123c990615637565b80601f01602080910402602001604051908101604052809291908181526020018280546123f590615637565b80156124425780601f1061241757610100808354040283529160200191612442565b820191906000526020600020905b81548152906001019060200180831161242557829003601f168201915b5050505050815260200160038201805461245b90615637565b80601f016020809104026020016040519081016040528092919081815260200182805461248790615637565b80156124d45780601f106124a9576101008083540402835291602001916124d4565b820191906000526020600020905b8154815290600101906020018083116124b757829003601f168201915b505050505081526020016004820180546124ed90615637565b80601f016020809104026020016040519081016040528092919081815260200182805461251990615637565b80156125665780601f1061253b57610100808354040283529160200191612566565b820191906000526020600020905b81548152906001019060200180831161254957829003601f168201915b5050505050815250508152602001600e8201805480602002602001604051908101604052809291908181526020016000905b828210156126445783829060005260206000200180546125b790615637565b80601f01602080910402602001604051908101604052809291908181526020018280546125e390615637565b80156126305780601f1061260557610100808354040283529160200191612630565b820191906000526020600020905b81548152906001019060200180831161261357829003601f168201915b505050505081526020019060010190612598565b505050508152602001600f8201805480602002602001604051908101604052809291908181526020016000905b8282101561271d57838290600052602060002001805461269090615637565b80601f01602080910402602001604051908101604052809291908181526020018280546126bc90615637565b80156127095780601f106126de57610100808354040283529160200191612709565b820191906000526020600020905b8154815290600101906020018083116126ec57829003601f168201915b505050505081526020019060010190612671565b50505050815260200160108201805461273590615637565b80601f016020809104026020016040519081016040528092919081815260200182805461276190615637565b80156127ae5780601f10612783576101008083540402835291602001916127ae565b820191906000526020600020905b81548152906001019060200180831161279157829003601f168201915b50505091835250506011820154602082015260128201546001600160a01b031660408201526013820180546060909201916127e890615637565b80601f016020809104026020016040519081016040528092919081815260200182805461281490615637565b80156128615780601f1061283657610100808354040283529160200191612861565b820191906000526020600020905b81548152906001019060200180831161284457829003601f168201915b50505050508152602001601482018054806020026020016040519081016040528092919081815260200182805480156128c357602002820191906000526020600020905b81546001600160a01b031681526001909101906020018083116128a5575b505050505081526020016015820154815250509050919050565b61015f546001600160a01b03163314806129115750600082815261016460205260409020600501546001600160a01b031633145b6040518060400160405280600381526020016231303160e81b8152509061294b5760405162461bcd60e51b81526004016109ef9190614974565b50612955826137ce565b6040518060400160405280600381526020016232303960e81b8152509061298f5760405162461bcd60e51b81526004016109ef9190614974565b506040808201516000848152610164602090815292902081516129bc93600b909201929190910190614657565b50602080820151600084815261016483526040902081516129e693600a9092019290910190614657565b5060808101516000838152610164602090815260409091208251612a1393600d9092019290910190614657565b5060608101516000838152610164602090815260409091208251612a4093600c9092019290910190614657565b5080516000838152610164602090815260409091208251612a6a9360099092019290910190614657565b50817fac9eecd527183c9d33cb010c7110e35faa09868c77e3cf66465a67079dca197c82604051612a9b91906158de565b60405180910390a25050565b61015f546001600160a01b031633148015612aca57506001600160a01b03811615155b6040518060400160405280600381526020016231303160e81b81525090612b045760405162461bcd60e51b81526004016109ef9190614974565b5061015f546001600160a01b03828116911614610a2c5761015f80546001600160a01b0383166001600160a01b031990911617905550565b61015f546001600160a01b0316331480612b705750600082815261016460205260409020600501546001600160a01b031633145b6040518060400160405280600381526020016231303160e81b81525090612baa5760405162461bcd60e51b81526004016109ef9190614974565b50612bb4826137ce565b6040518060400160405280600381526020016232303960e81b81525090612bee5760405162461bcd60e51b81526004016109ef9190614974565b50600082815261016460205260409081902060018101839055601201549051638d6cc56d60e01b8152600481018390526001600160a01b03909116908190638d6cc56d90602401600060405180830381600087803b158015612c4f57600080fd5b505af1158015612c63573d6000803e3d6000fd5b50506040518492508591507fcc3136787384490182c3da4ad1777aa0e5905afb3cae9b76d71e34cd870883ef90600090a3505050565b60606066805461090f90615637565b610d77338383613c6c565b61015f546001600160a01b0316331480612ce75750600082815261016460205260409020600501546001600160a01b031633145b6040518060400160405280600381526020016231303160e81b81525090612d215760405162461bcd60e51b81526004016109ef9190614974565b50612d2b826137ce565b6040518060400160405280600381526020016232303960e81b81525090612d655760405162461bcd60e51b81526004016109ef9190614974565b506000828152610164602090815260408220600f018054600181018255908352918190208351610b67939190910191840190614657565b61015f546001600160a01b0316331480612dd05750600083815261016460205260409020600501546001600160a01b031633145b6040518060400160405280600381526020016231303160e81b81525090612e0a5760405162461bcd60e51b81526004016109ef9190614974565b50612e14836137ce565b6040518060400160405280600381526020016232303960e81b81525090612e4e5760405162461bcd60e51b81526004016109ef9190614974565b50600083815261016460205260409020600f01805482919084908110612e7657612e7661568e565b906000526020600020019080519060200190611011929190614657565b836daaeb6d7670e522a718067333cd4e3b15612fd9576001600160a01b038116331415612ecb57612ec685858585613d3b565b612fe5565b604051633185c44d60e21b81526daaeb6d7670e522a718067333cd4e9063c617113490612efe90309033906004016156a4565b602060405180830381865afa158015612f1b573d6000803e3d6000fd5b505050506040513d601f19601f82011682018060405250810190612f3f91906156be565b8015612fba5750604051633185c44d60e21b81526daaeb6d7670e522a718067333cd4e9063c617113490612f7990309085906004016156a4565b602060405180830381865afa158015612f96573d6000803e3d6000fd5b505050506040513d601f19601f82011682018060405250810190612fba91906156be565b612fd957604051633b79c77360e21b81523360048201526024016109ef565b612fe585858585613d3b565b5050505050565b6060612ff7826137ce565b6040518060400160405280600381526020016232303960e81b815250906130315760405162461bcd60e51b81526004016109ef9190614974565b506101625460405163079ebc6f60e41b8152600481018490526001600160a01b039091169081906379ebc6f090602401600060405180830381865afa15801561307e573d6000803e3d6000fd5b505050506040513d6000823e601f3d908101601f19168201604052611af391908101906158f1565b6130ae613837565b61015f5460408051808201909152600381526231303160e81b6020820152906001600160a01b031633146130f55760405162461bcd60e51b81526004016109ef9190614974565b5060006001600160a01b038316613176578147101561311357600080fd5b6040516001600160a01b038516908390600081818185875af1925050503d806000811461315c576040519150601f19603f3d011682016040523d82523d6000602084013e613161565b606091505b5050809150508061317157600080fd5b6131f7565b60405163a9059cbb60e01b81526001600160a01b0385811660048301526024820184905284919082169063a9059cbb906044016020604051808303816000875af11580156131c8573d6000803e3d6000fd5b505050506040513d601f19601f820116820180604052508101906131ec91906156be565b6131f557600080fd5b505b50610b67600160fb55565b61015f546001600160a01b03163314806132365750600083815261016460205260409020600501546001600160a01b031633145b6040518060400160405280600381526020016231303160e81b815250906132705760405162461bcd60e51b81526004016109ef9190614974565b5061327a836137ce565b6040518060400160405280600381526020016232303960e81b815250906132b45760405162461bcd60e51b81526004016109ef9190614974565b50600083815261016460205260409020600e01805483919083908110612e7657612e7661568e565b61015f546001600160a01b03163314806133105750600082815261016460205260409020600501546001600160a01b031633145b6040518060400160405280600381526020016231303160e81b8152509061334a5760405162461bcd60e51b81526004016109ef9190614974565b50613354826137ce565b6040518060400160405280600381526020016232303960e81b8152509061338e5760405162461bcd60e51b81526004016109ef9190614974565b5060008281526101646020908152604090912082516133b592600490920191840190614657565b50806040516133c49190615672565b6040519081900381209083907f0659e01d131efb672ee6f7f79276247f0e1a8ad1731616056a9e671caa57b41090600090a35050565b600054610100900460ff161580801561341a5750600054600160ff909116105b806134345750303b158015613434575060005460ff166001145b6134975760405162461bcd60e51b815260206004820152602e60248201527f496e697469616c697a61626c653a20636f6e747261637420697320616c72656160448201526d191e481a5b9a5d1a585b1a5e995960921b60648201526084016109ef565b6000805460ff1916600117905580156134ba576000805461ff0019166101001790555b60408051808201909152600381526203130360ec1b60208201526001600160a01b0386166134fb5760405162461bcd60e51b81526004016109ef9190614974565b5060408051808201909152600381526203130360ec1b60208201526001600160a01b03851661353d5760405162461bcd60e51b81526004016109ef9190614974565b5061016080546001600160a01b038087166001600160a01b03199283161790925561015f805488841690831617905561016180548684169083161790556101628054928516929091169190911790556135968787613d6d565b61359e613d9e565b6135a6613dcd565b6135ae613dfc565b6135b6613e42565b80156135fc576000805461ff0019169055604051600181527f7f26b83ff96e1f2b6a682f133852f6798a09c465da95921460cefb38474024989060200160405180910390a15b50505050505050565b61360d613bbe565b6001600160a01b0381166136725760405162461bcd60e51b815260206004820152602660248201527f4f776e61626c653a206e6577206f776e657220697320746865207a65726f206160448201526564647265737360d01b60648201526084016109ef565b610a2c81613c19565b61015f546001600160a01b03163314801561369e57506001600160a01b03811615155b6040518060400160405280600381526020016231303160e81b815250906136d85760405162461bcd60e51b81526004016109ef9190614974565b50610160546001600160a01b03828116911614610a2c5761016080546001600160a01b0383166001600160a01b031990911617905550565b613719816137ce565b610a2c5760405162461bcd60e51b8152602060048201526018602482015277115490cdcc8c4e881a5b9d985b1a59081d1bdad95b88125160421b60448201526064016109ef565b600081815260696020526040902080546001600160a01b0319166001600160a01b038416908117909155819061379582611c74565b6001600160a01b03167f8c5be1e5ebec7d5bd14f71427d1e84f3dd0314c0f7b2291e5b200ac8c7c3b92560405160405180910390a45050565b6000908152606760205260409020546001600160a01b0316151590565b6137f53382613e71565b6138115760405162461bcd60e51b81526004016109ef9061595e565b610b67838383613ef0565b610b6783838360405180602001604052806000815250612e93565b600260fb54141561388a5760405162461bcd60e51b815260206004820152601f60248201527f5265656e7472616e637947756172643a207265656e7472616e742063616c6c0060448201526064016109ef565b600260fb55565b61015f546001600160a01b03163314611d6c576101605460408051808201825260128152714352454154455f50524f4a4543545f46454560701b60208201529051636d12dce160e01b81526001600160a01b03909216916000918391636d12dce1916138ff91600401614974565b602060405180830381865afa15801561391c573d6000803e3d6000fd5b505050506040513d601f19601f8201168201806040525081019061394091906159ab565b90508015610d775760408051808201825260098152682322a2afaa27a5a2a760b91b6020820152905163bf40fac160e01b81526000916001600160a01b0385169163bf40fac19161399391600401614974565b602060405180830381865afa1580156139b0573d6000803e3d6000fd5b505050506040513d601f19601f820116820180604052508101906139d491906159c4565b604080518082018252601f81527f4d494e545f4e46545f4f50455241544f525f54524541535552455f41444452006020820152905163bf40fac160e01b815291925030916000916001600160a01b0387169163bf40fac191613a3891600401614974565b602060405180830381865afa158015613a55573d6000803e3d6000fd5b505050506040513d601f19601f82011682018060405250810190613a7991906159c4565b90506001600160a01b03811615613a8e578091505b6001600160a01b03831615613b28576040516323b872dd60e01b81523360048201526001600160a01b038381166024830152604482018690528491908216906323b872dd906064016020604051808303816000875af1158015613af5573d6000803e3d6000fd5b505050506040513d601f19601f82011682018060405250810190613b1991906156be565b613b2257600080fd5b50612fe5565b83341015613b3557600080fd5b6000826001600160a01b03163460405160006040518083038185875af1925050503d8060008114613b82576040519150601f19603f3d011682016040523d82523d6000602084013e613b87565b606091505b5050905080613b9557600080fd5b505050505050565b610d77828260405180602001604052806000815250614061565b600160fb55565b61012d546001600160a01b03163314611d6c5760405162461bcd60e51b815260206004820181905260248201527f4f776e61626c653a2063616c6c6572206973206e6f7420746865206f776e657260448201526064016109ef565b61012d80546001600160a01b038381166001600160a01b0319831681179093556040519116919082907f8be0079c531659141344cd1fd0a4f28419497f9722a3daafe3b4186f6b6457e090600090a35050565b816001600160a01b0316836001600160a01b03161415613cce5760405162461bcd60e51b815260206004820152601960248201527f4552433732313a20617070726f766520746f2063616c6c65720000000000000060448201526064016109ef565b6001600160a01b038381166000818152606a6020908152604080832094871680845294825291829020805460ff191686151590811790915591519182527f17307eab39ab6107e8899845ad3d59bd9653f200f220920489ca2b5937696c31910160405180910390a3505050565b613d453383613e71565b613d615760405162461bcd60e51b81526004016109ef9061595e565b61101184848484614094565b600054610100900460ff16613d945760405162461bcd60e51b81526004016109ef906159e1565b610d7782826140c7565b600054610100900460ff16613dc55760405162461bcd60e51b81526004016109ef906159e1565b611d6c614115565b600054610100900460ff16613df45760405162461bcd60e51b81526004016109ef906159e1565b611d6c61413c565b600054610100900460ff16613e235760405162461bcd60e51b81526004016109ef906159e1565b611d6c733cc6cdda760b79bafa08df41ecfa224f810dceb6600161416f565b600054610100900460ff16613e695760405162461bcd60e51b81526004016109ef906159e1565b611d6c6142f8565b600080613e7d83611c74565b9050806001600160a01b0316846001600160a01b03161480613ec457506001600160a01b038082166000908152606a602090815260408083209388168352929052205460ff165b80613ee85750836001600160a01b0316613edd84610a2f565b6001600160a01b0316145b949350505050565b826001600160a01b0316613f0382611c74565b6001600160a01b031614613f295760405162461bcd60e51b81526004016109ef90615a2c565b6001600160a01b038216613f8b5760405162461bcd60e51b8152602060048201526024808201527f4552433732313a207472616e7366657220746f20746865207a65726f206164646044820152637265737360e01b60648201526084016109ef565b613f988383836001614328565b826001600160a01b0316613fab82611c74565b6001600160a01b031614613fd15760405162461bcd60e51b81526004016109ef90615a2c565b600081815260696020908152604080832080546001600160a01b03199081169091556001600160a01b0387811680865260688552838620805460001901905590871680865283862080546001019055868652606790945282852080549092168417909155905184937fddf252ad1be2c89b69c2b068fc378daa952ba7f163c4a11628f55a4df523b3ef91a4505050565b61406b8383614377565b61407860008484846144f2565b610b675760405162461bcd60e51b81526004016109ef90615a71565b61409f848484613ef0565b6140ab848484846144f2565b6110115760405162461bcd60e51b81526004016109ef90615a71565b600054610100900460ff166140ee5760405162461bcd60e51b81526004016109ef906159e1565b8151614101906065906020850190614657565b508051610b67906066906020840190614657565b600054610100900460ff16613bb75760405162461bcd60e51b81526004016109ef906159e1565b600054610100900460ff166141635760405162461bcd60e51b81526004016109ef906159e1565b6097805460ff19169055565b600054610100900460ff166141965760405162461bcd60e51b81526004016109ef906159e1565b6daaeb6d7670e522a718067333cd4e3b15610d775760405163c3c5a54760e01b81523060048201526daaeb6d7670e522a718067333cd4e9063c3c5a547906024016020604051808303816000875af11580156141f6573d6000803e3d6000fd5b505050506040513d601f19601f8201168201806040525081019061421a91906156be565b610d7757801561428557604051633e9f1edf60e11b81526daaeb6d7670e522a718067333cd4e90637d3e3dbe9061425790309086906004016156a4565b600060405180830381600087803b15801561427157600080fd5b505af1158015613b95573d6000803e3d6000fd5b6001600160a01b038216156142c75760405163a0af290360e01b81526daaeb6d7670e522a718067333cd4e9063a0af29039061425790309086906004016156a4565b604051632210724360e11b81523060048201526daaeb6d7670e522a718067333cd4e90634420e48690602401614257565b600054610100900460ff1661431f5760405162461bcd60e51b81526004016109ef906159e1565b611d6c33613c19565b60408051808201909152600381526203231360ec1b60208201526001600160a01b0385161561436a5760405162461bcd60e51b81526004016109ef9190614974565b50611011848484846145f0565b6001600160a01b0382166143cd5760405162461bcd60e51b815260206004820181905260248201527f4552433732313a206d696e7420746f20746865207a65726f206164647265737360448201526064016109ef565b6143d6816137ce565b156144235760405162461bcd60e51b815260206004820152601c60248201527f4552433732313a20746f6b656e20616c7265616479206d696e7465640000000060448201526064016109ef565b614431600083836001614328565b61443a816137ce565b156144875760405162461bcd60e51b815260206004820152601c60248201527f4552433732313a20746f6b656e20616c7265616479206d696e7465640000000060448201526064016109ef565b6001600160a01b038216600081815260686020908152604080832080546001019055848352606790915280822080546001600160a01b0319168417905551839291907fddf252ad1be2c89b69c2b068fc378daa952ba7f163c4a11628f55a4df523b3ef908290a45050565b60006001600160a01b0384163b156145e557604051630a85bd0160e11b81526001600160a01b0385169063150b7a0290614536903390899088908890600401615ac3565b6020604051808303816000875af1925050508015614571575060408051601f3d908101601f1916820190925261456e91810190615b00565b60015b6145cb573d80801561459f576040519150601f19603f3d011682016040523d82523d6000602084013e6145a4565b606091505b5080516145c35760405162461bcd60e51b81526004016109ef90615a71565b805181602001fd5b6001600160e01b031916630a85bd0160e11b149050613ee8565b506001949350505050565b60975460ff16156110115760405162461bcd60e51b815260206004820152602b60248201527f4552433732315061757361626c653a20746f6b656e207472616e73666572207760448201526a1a1a5b19481c185d5cd95960aa1b60648201526084016109ef565b82805461466390615637565b90600052602060002090601f01602090048101928261468557600085556146cb565b82601f1061469e57805160ff19168380011785556146cb565b828001600101855582156146cb579182015b828111156146cb5782518255916020019190600101906146b0565b506146d79291506148b7565b5090565b5080546146e790615637565b6000825580601f106146f7575050565b601f016020900490600052602060002090810190610a2c91906148b7565b828054828255906000526020600020908101928215614762579160200282015b828111156147625782518051614752918491602090910190614657565b5091602001919060010190614735565b506146d79291506148cc565b8280548282559060005260206000209081019282156146cb579160200282015b828111156146cb57825182546001600160a01b0319166001600160a01b0390911617825560209092019160019091019061478e565b6101e380615b1e83390190565b604051806102600160405280600062ffffff168152602001600062ffffff1681526020016000815260200160006001600160a01b03168152602001606081526020016060815260200160006001600160a01b031681526020016060815260200160608152602001606081526020016148706040518060a0016040528060608152602001606081526020016060815260200160608152602001606081525090565b81526020016060815260200160608152602001606081526020016000815260200160006001600160a01b031681526020016060815260200160608152602001600081525090565b5b808211156146d757600081556001016148b8565b808211156146d75760006148e082826146db565b506001016148cc565b6001600160e01b031981168114610a2c57600080fd5b60006020828403121561491157600080fd5b8135611af3816148e9565b60005b8381101561493757818101518382015260200161491f565b838111156110115750506000910152565b6000815180845261496081602086016020860161491c565b601f01601f19169290920160200192915050565b602081526000611af36020830184614948565b6001600160a01b0381168114610a2c57600080fd5b80356149a781614987565b919050565b6000602082840312156149be57600080fd5b8135611af381614987565b6000602082840312156149db57600080fd5b5035919050565b600080604083850312156149f557600080fd5b8235614a0081614987565b946020939093013593505050565b634e487b7160e01b600052604160045260246000fd5b60405160a081016001600160401b0381118282101715614a4657614a46614a0e565b60405290565b60405161026081016001600160401b0381118282101715614a4657614a46614a0e565b604051601f8201601f191681016001600160401b0381118282101715614a9757614a97614a0e565b604052919050565b60006001600160401b03821115614ab857614ab8614a0e565b50601f01601f191660200190565b6000614ad9614ad484614a9f565b614a6f565b9050828152838383011115614aed57600080fd5b828260208301376000602084830101529392505050565b600082601f830112614b1557600080fd5b611af383833560208501614ac6565b60008060408385031215614b3757600080fd5b8235915060208301356001600160401b03811115614b5457600080fd5b614b6085828601614b04565b9150509250929050565b60008060408385031215614b7d57600080fd5b50508035926020909101359150565b600080600060608486031215614ba157600080fd5b8335614bac81614987565b92506020840135614bbc81614987565b929592945050506040919091013590565b8015158114610a2c57600080fd5b80356149a781614bcd565b60008060408385031215614bf957600080fd5b823591506020830135614c0b81614bcd565b809150509250929050565b803562ffffff811681146149a757600080fd5b600060a08284031215614c3b57600080fd5b614c43614a24565b905081356001600160401b0380821115614c5c57600080fd5b614c6885838601614b04565b83526020840135915080821115614c7e57600080fd5b614c8a85838601614b04565b60208401526040840135915080821115614ca357600080fd5b614caf85838601614b04565b60408401526060840135915080821115614cc857600080fd5b614cd485838601614b04565b60608401526080840135915080821115614ced57600080fd5b50614cfa84828501614b04565b60808301525092915050565b60006001600160401b03821115614d1f57614d1f614a0e565b5060051b60200190565b600082601f830112614d3a57600080fd5b81356020614d4a614ad483614d06565b82815260059290921b84018101918181019086841115614d6957600080fd5b8286015b84811015614da85780356001600160401b03811115614d8c5760008081fd5b614d9a8986838b0101614b04565b845250918301918301614d6d565b509695505050505050565b600082601f830112614dc457600080fd5b81356020614dd4614ad483614d06565b82815260059290921b84018101918181019086841115614df357600080fd5b8286015b84811015614da8578035614e0a81614987565b8352918301918301614df7565b600080600060608486031215614e2c57600080fd5b83356001600160401b0380821115614e4357600080fd5b908501906102608288031215614e5857600080fd5b614e60614a4c565b614e6983614c16565b8152614e7760208401614c16565b602082015260408301356040820152614e926060840161499c565b6060820152608083013582811115614ea957600080fd5b614eb589828601614b04565b60808301525060a083013582811115614ecd57600080fd5b614ed989828601614b04565b60a083015250614eeb60c0840161499c565b60c082015260e083013582811115614f0257600080fd5b614f0e89828601614b04565b60e0830152506101008084013583811115614f2857600080fd5b614f348a828701614b04565b8284015250506101208084013583811115614f4e57600080fd5b614f5a8a828701614b04565b8284015250506101408084013583811115614f7457600080fd5b614f808a828701614c29565b8284015250506101608084013583811115614f9a57600080fd5b614fa68a828701614d29565b8284015250506101808084013583811115614fc057600080fd5b614fcc8a828701614d29565b8284015250506101a08084013583811115614fe657600080fd5b614ff28a828701614b04565b8284015250506101c08084013581830152506101e061501281850161499c565b90820152610200838101358381111561502a57600080fd5b6150368a828701614b04565b828401525050610220808401358381111561505057600080fd5b61505c8a828701614db3565b8284015250506102409150818301358282015280955050505061508160208501614bdb565b9150604084013590509250925092565b600080604083850312156150a457600080fd5b823591506020830135614c0b81614987565b6000815160a084526150cb60a0850182614948565b9050602083015184820360208601526150e48282614948565b915050604083015184820360408601526150fe8282614948565b915050606083015184820360608601526151188282614948565b915050608083015184820360808601526151328282614948565b95945050505050565b600081518084526020808501808196508360051b8101915082860160005b85811015615183578284038952615171848351614948565b98850198935090840190600101615159565b5091979650505050505050565b600081518084526020808501945080840160005b838110156151c95781516001600160a01b0316875295820195908201906001016151a4565b509495945050505050565b602081526151ea60208201835162ffffff169052565b60006020830151615202604084018262ffffff169052565b5060408301516060830152606083015161522760808401826001600160a01b03169052565b5060808301516102608060a0850152615244610280850183614948565b915060a0850151601f19808685030160c08701526152628483614948565b935060c0870151915061528060e08701836001600160a01b03169052565b60e0870151915061010081878603018188015261529d8584614948565b9450808801519250506101208187860301818801526152bc8584614948565b9450808801519250506101408187860301818801526152db8584614948565b9450808801519250506101608187860301818801526152fa85846150b6565b945080880151925050610180818786030181880152615319858461513b565b9450808801519250506101a0818786030181880152615338858461513b565b9450808801519250506101c08187860301818801526153578584614948565b908801516101e0888101919091528801519094509150610200615384818801846001600160a01b03169052565b808801519250506102208187860301818801526153a18584614948565b9450808801519250506102408187860301818801526153c08584615190565b970151959092019490945250929392505050565b600080604083850312156153e757600080fd5b8235915060208301356001600160401b0381111561540457600080fd5b614b6085828601614c29565b6000806040838503121561542357600080fd5b823561542e81614987565b91506020830135614c0b81614bcd565b60008060006060848603121561545357600080fd5b833592506020840135915060408401356001600160401b0381111561547757600080fd5b61548386828701614b04565b9150509250925092565b600080600080608085870312156154a357600080fd5b84356154ae81614987565b935060208501356154be81614987565b92506040850135915060608501356001600160401b038111156154e057600080fd5b8501601f810187136154f157600080fd5b61550087823560208401614ac6565b91505092959194509250565b60008060006060848603121561552157600080fd5b8335925060208401356001600160401b0381111561553e57600080fd5b61554a86828701614b04565b925050604084013590509250925092565b60008060008060008060c0878903121561557457600080fd5b86356001600160401b038082111561558b57600080fd5b6155978a838b01614b04565b975060208901359150808211156155ad57600080fd5b506155ba89828a01614b04565b95505060408701356155cb81614987565b935060608701356155db81614987565b925060808701356155eb81614987565b915060a08701356155fb81614987565b809150509295509295509295565b6000806040838503121561561c57600080fd5b823561562781614987565b91506020830135614c0b81614987565b600181811c9082168061564b57607f821691505b6020821081141561566c57634e487b7160e01b600052602260045260246000fd5b50919050565b6000825161568481846020870161491c565b9190910192915050565b634e487b7160e01b600052603260045260246000fd5b6001600160a01b0392831681529116602082015260400190565b6000602082840312156156d057600080fd5b8151611af381614bcd565b634e487b7160e01b600052601160045260246000fd5b600081600019048311821515161561570b5761570b6156db565b500290565b60008261572d57634e487b7160e01b600052601260045260246000fd5b500490565b6000600019821415615746576157466156db565b5060010190565b60c0815261576760c0820188516001600160a01b03169052565b602087015160e08201526000604088015161010061578b8185018362ffffff169052565b60608a015191506101206157a58186018462ffffff169052565b60808b015192506101406157bf8187018562ffffff169052565b60a08c015193506101606157d98188018662ffffff169052565b60c08d015194506101c061018081818a01526157f96102808a0188614948565b965060e08f01516101a08a0152858f01519550615820828a01876001600160a01b03169052565b848f0151955060bf19945084898803016101e08a01526158408787614948565b8f85015180516102008c015260208101516102208c01529097509550828f0151955084898803016102408a01526158778787615190565b908f01516102608a01526001600160a01b038e1660208a0152965061589e95505050505050565b6001600160a01b03861660408301526001600160a01b03851660608301526001600160a01b038416608083015282151560a0830152979650505050505050565b602081526000611af360208301846150b6565b60006020828403121561590357600080fd5b81516001600160401b0381111561591957600080fd5b8201601f8101841361592a57600080fd5b8051615938614ad482614a9f565b81815285602083850101111561594d57600080fd5b61513282602083016020860161491c565b6020808252602d908201527f4552433732313a2063616c6c6572206973206e6f7420746f6b656e206f776e6560408201526c1c881bdc88185c1c1c9bdd9959609a1b606082015260800190565b6000602082840312156159bd57600080fd5b5051919050565b6000602082840312156159d657600080fd5b8151611af381614987565b6020808252602b908201527f496e697469616c697a61626c653a20636f6e7472616374206973206e6f74206960408201526a6e697469616c697a696e6760a81b606082015260800190565b60208082526025908201527f4552433732313a207472616e736665722066726f6d20696e636f72726563742060408201526437bbb732b960d91b606082015260800190565b60208082526032908201527f4552433732313a207472616e7366657220746f206e6f6e20455243373231526560408201527131b2b4bb32b91034b6b83632b6b2b73a32b960711b606082015260800190565b6001600160a01b0385811682528416602082015260408101839052608060608201819052600090615af690830184614948565b9695505050505050565b600060208284031215615b1257600080fd5b8151611af3816148e956fe60a060405234801561001057600080fd5b50336080526080516101ae61003560003960008181604b0152609f01526101ae6000f3fe6080604052600436106100225760003560e01c8063567fdcf31461003957610031565b366100315761002f610089565b005b61002f610089565b34801561004557600080fd5b5061006d7f000000000000000000000000000000000000000000000000000000000000000081565b6040516001600160a01b03909116815260200160405180910390f35b61009961009461009b565b610124565b565b60007f00000000000000000000000000000000000000000000000000000000000000006001600160a01b031663300b48006040518163ffffffff1660e01b8152600401602060405180830381865afa1580156100fb573d6000803e3d6000fd5b505050506040513d601f19601f8201168201806040525081019061011f9190610148565b905090565b3660008037600080366000845af43d6000803e808015610143573d6000f35b3d6000fd5b60006020828403121561015a57600080fd5b81516001600160a01b038116811461017157600080fd5b939250505056fea2646970667358221220132b343a0ab24692350a5afcc8b94562ad065df5873a0bf9a905bca89759f19264736f6c634300080c0033a2646970667358221220a60e6607ef8c62994e52942c29b9d0a6f0b13e1ca471da6161ab6f766fdeacdb64736f6c634300080c0033",
  "linkReferences": {},
  "deployedLinkReferences": {}
}