{
  "_format": "hh-sol-artifact-1",
  "contractName": "GenerativeProject",
  "sourceName": "contracts/nfts/GenerativeProject.sol",
  "abi": [
    {
      "inputs": [
        {
          "internalType": "address",
          "name": "operator",
          "type": "address"
        }
      ],
      "name": "OperatorNotAllowed",
      "type": "error"
    },
    {
      "anonymous": false,
      "inputs": [
        {
          "indexed": true,
          "internalType": "address",
          "name": "owner",
          "type": "address"
        },
        {
          "indexed": true,
          "internalType": "address",
          "name": "approved",
          "type": "address"
        },
        {
          "indexed": true,
          "internalType": "uint256",
          "name": "tokenId",
          "type": "uint256"
        }
      ],
      "name": "Approval",
      "type": "event"
    },
    {
      "anonymous": false,
      "inputs": [
        {
          "indexed": true,
          "internalType": "address",
          "name": "owner",
          "type": "address"
        },
        {
          "indexed": true,
          "internalType": "address",
          "name": "operator",
          "type": "address"
        },
        {
          "indexed": false,
          "internalType": "bool",
          "name": "approved",
          "type": "bool"
        }
      ],
      "name": "ApprovalForAll",
      "type": "event"
    },
    {
      "anonymous": false,
      "inputs": [
        {
          "indexed": false,
          "internalType": "uint8",
          "name": "version",
          "type": "uint8"
        }
      ],
      "name": "Initialized",
      "type": "event"
    },
    {
      "anonymous": false,
      "inputs": [
        {
          "indexed": true,
          "internalType": "address",
          "name": "previousOwner",
          "type": "address"
        },
        {
          "indexed": true,
          "internalType": "address",
          "name": "newOwner",
          "type": "address"
        }
      ],
      "name": "OwnershipTransferred",
      "type": "event"
    },
    {
      "anonymous": false,
      "inputs": [
        {
          "indexed": false,
          "internalType": "address",
          "name": "account",
          "type": "address"
        }
      ],
      "name": "Paused",
      "type": "event"
    },
    {
      "anonymous": false,
      "inputs": [
        {
          "indexed": true,
          "internalType": "address",
          "name": "from",
          "type": "address"
        },
        {
          "indexed": true,
          "internalType": "address",
          "name": "to",
          "type": "address"
        },
        {
          "indexed": true,
          "internalType": "uint256",
          "name": "tokenId",
          "type": "uint256"
        }
      ],
      "name": "Transfer",
      "type": "event"
    },
    {
      "anonymous": false,
      "inputs": [
        {
          "indexed": false,
          "internalType": "address",
          "name": "account",
          "type": "address"
        }
      ],
      "name": "Unpaused",
      "type": "event"
    },
    {
      "inputs": [],
      "name": "_admin",
      "outputs": [
        {
          "internalType": "address",
          "name": "",
          "type": "address"
        }
      ],
      "stateMutability": "view",
      "type": "function"
    },
    {
      "inputs": [],
      "name": "_paramsAddress",
      "outputs": [
        {
          "internalType": "address",
          "name": "",
          "type": "address"
        }
      ],
      "stateMutability": "view",
      "type": "function"
    },
    {
      "inputs": [],
      "name": "_projectDataContextAddr",
      "outputs": [
        {
          "internalType": "address",
          "name": "",
          "type": "address"
        }
      ],
      "stateMutability": "view",
      "type": "function"
    },
    {
      "inputs": [],
      "name": "_randomizerAddr",
      "outputs": [
        {
          "internalType": "address",
          "name": "",
          "type": "address"
        }
      ],
      "stateMutability": "view",
      "type": "function"
    },
    {
      "inputs": [
        {
          "internalType": "uint256",
          "name": "projectId",
          "type": "uint256"
        },
        {
          "internalType": "string",
          "name": "_script",
          "type": "string"
        }
      ],
      "name": "addProjectScript",
      "outputs": [],
      "stateMutability": "nonpayable",
      "type": "function"
    },
    {
      "inputs": [
        {
          "internalType": "address",
          "name": "to",
          "type": "address"
        },
        {
          "internalType": "uint256",
          "name": "tokenId",
          "type": "uint256"
        }
      ],
      "name": "approve",
      "outputs": [],
      "stateMutability": "nonpayable",
      "type": "function"
    },
    {
      "inputs": [
        {
          "internalType": "address",
          "name": "owner",
          "type": "address"
        }
      ],
      "name": "balanceOf",
      "outputs": [
        {
          "internalType": "uint256",
          "name": "",
          "type": "uint256"
        }
      ],
      "stateMutability": "view",
      "type": "function"
    },
    {
      "inputs": [
        {
          "internalType": "address",
          "name": "newAdm",
          "type": "address"
        }
      ],
      "name": "changeAdmin",
      "outputs": [],
      "stateMutability": "nonpayable",
      "type": "function"
    },
    {
      "inputs": [
        {
          "internalType": "address",
          "name": "newAddr",
          "type": "address"
        }
      ],
      "name": "changeDataContextAddr",
      "outputs": [],
      "stateMutability": "nonpayable",
      "type": "function"
    },
    {
      "inputs": [
        {
          "internalType": "address",
          "name": "newAddr",
          "type": "address"
        }
      ],
      "name": "changeParamAddr",
      "outputs": [],
      "stateMutability": "nonpayable",
      "type": "function"
    },
    {
      "inputs": [
        {
          "internalType": "address",
          "name": "newAddr",
          "type": "address"
        }
      ],
      "name": "changeRandomizerAddr",
      "outputs": [],
      "stateMutability": "nonpayable",
      "type": "function"
    },
    {
      "inputs": [
        {
          "internalType": "uint256",
          "name": "projectId",
          "type": "uint256"
        }
      ],
      "name": "completeProject",
      "outputs": [],
      "stateMutability": "nonpayable",
      "type": "function"
    },
    {
      "inputs": [
        {
          "internalType": "uint256",
          "name": "projectId",
          "type": "uint256"
        },
        {
          "internalType": "uint256",
          "name": "scriptIndex",
          "type": "uint256"
        }
      ],
      "name": "deleteProjectScript",
      "outputs": [],
      "stateMutability": "nonpayable",
      "type": "function"
    },
    {
      "inputs": [
        {
          "internalType": "uint256",
          "name": "tokenId",
          "type": "uint256"
        }
      ],
      "name": "getApproved",
      "outputs": [
        {
          "internalType": "address",
          "name": "",
          "type": "address"
        }
      ],
      "stateMutability": "view",
      "type": "function"
    },
    {
      "inputs": [
        {
          "internalType": "string",
          "name": "name",
          "type": "string"
        },
        {
          "internalType": "string",
          "name": "symbol",
          "type": "string"
        },
        {
          "internalType": "address",
          "name": "admin",
          "type": "address"
        },
        {
          "internalType": "address",
          "name": "paramsAddress",
          "type": "address"
        },
        {
          "internalType": "address",
          "name": "randomizerAddr",
          "type": "address"
        },
        {
          "internalType": "address",
          "name": "projectDataContextAddr",
          "type": "address"
        }
      ],
      "name": "initialize",
      "outputs": [],
      "stateMutability": "nonpayable",
      "type": "function"
    },
    {
      "inputs": [
        {
          "internalType": "address",
          "name": "owner",
          "type": "address"
        },
        {
          "internalType": "address",
          "name": "operator",
          "type": "address"
        }
      ],
      "name": "isApprovedForAll",
      "outputs": [
        {
          "internalType": "bool",
          "name": "",
          "type": "bool"
        }
      ],
      "stateMutability": "view",
      "type": "function"
    },
    {
      "inputs": [
        {
          "components": [
            {
              "internalType": "uint24",
              "name": "_maxSupply",
              "type": "uint24"
            },
            {
              "internalType": "uint24",
              "name": "_limit",
              "type": "uint24"
            },
            {
              "internalType": "uint256",
              "name": "_mintPrice",
              "type": "uint256"
            },
            {
              "internalType": "address",
              "name": "_mintPriceAddr",
              "type": "address"
            },
            {
              "internalType": "string",
              "name": "_name",
              "type": "string"
            },
            {
              "internalType": "string",
              "name": "_creator",
              "type": "string"
            },
            {
              "internalType": "address",
              "name": "_creatorAddr",
              "type": "address"
            },
            {
              "internalType": "string",
              "name": "_license",
              "type": "string"
            },
            {
              "internalType": "string",
              "name": "_desc",
              "type": "string"
            },
            {
              "internalType": "string",
              "name": "_image",
              "type": "string"
            },
            {
              "components": [
                {
                  "internalType": "string",
                  "name": "_web",
                  "type": "string"
                },
                {
                  "internalType": "string",
                  "name": "_twitter",
                  "type": "string"
                },
                {
                  "internalType": "string",
                  "name": "_discord",
                  "type": "string"
                },
                {
                  "internalType": "string",
                  "name": "_medium",
                  "type": "string"
                },
                {
                  "internalType": "string",
                  "name": "_instagram",
                  "type": "string"
                }
              ],
              "internalType": "struct NFTProject.ProjectSocial",
              "name": "_social",
              "type": "tuple"
            },
            {
              "internalType": "string[]",
              "name": "_scriptType",
              "type": "string[]"
            },
            {
              "internalType": "string[]",
              "name": "_scripts",
              "type": "string[]"
            },
            {
              "internalType": "string",
              "name": "_styles",
              "type": "string"
            },
            {
              "internalType": "uint256",
              "name": "_completeTime",
              "type": "uint256"
            },
            {
              "internalType": "address",
              "name": "_genNFTAddr",
              "type": "address"
            },
            {
              "internalType": "string",
              "name": "_itemDesc",
              "type": "string"
            },
            {
              "internalType": "address[]",
              "name": "_reserves",
              "type": "address[]"
            },
            {
              "internalType": "uint256",
              "name": "_royalty",
              "type": "uint256"
            }
          ],
          "internalType": "struct NFTProject.Project",
          "name": "project",
          "type": "tuple"
        },
        {
          "internalType": "bool",
          "name": "disable",
          "type": "bool"
        },
        {
          "internalType": "uint256",
          "name": "openingTime",
          "type": "uint256"
        }
      ],
      "name": "mint",
      "outputs": [
        {
          "internalType": "uint256",
          "name": "",
          "type": "uint256"
        }
      ],
      "stateMutability": "payable",
      "type": "function"
    },
    {
      "inputs": [],
      "name": "name",
      "outputs": [
        {
          "internalType": "string",
          "name": "",
          "type": "string"
        }
      ],
      "stateMutability": "view",
      "type": "function"
    },
    {
      "inputs": [],
      "name": "owner",
      "outputs": [
        {
          "internalType": "address",
          "name": "",
          "type": "address"
        }
      ],
      "stateMutability": "view",
      "type": "function"
    },
    {
      "inputs": [
        {
          "internalType": "uint256",
          "name": "tokenId",
          "type": "uint256"
        }
      ],
      "name": "ownerOf",
      "outputs": [
        {
          "internalType": "address",
          "name": "",
          "type": "address"
        }
      ],
      "stateMutability": "view",
      "type": "function"
    },
    {
      "inputs": [],
      "name": "paused",
      "outputs": [
        {
          "internalType": "bool",
          "name": "",
          "type": "bool"
        }
      ],
      "stateMutability": "view",
      "type": "function"
    },
    {
      "inputs": [
        {
          "internalType": "uint256",
          "name": "projectId",
          "type": "uint256"
        }
      ],
      "name": "projectDetails",
      "outputs": [
        {
          "components": [
            {
              "internalType": "uint24",
              "name": "_maxSupply",
              "type": "uint24"
            },
            {
              "internalType": "uint24",
              "name": "_limit",
              "type": "uint24"
            },
            {
              "internalType": "uint256",
              "name": "_mintPrice",
              "type": "uint256"
            },
            {
              "internalType": "address",
              "name": "_mintPriceAddr",
              "type": "address"
            },
            {
              "internalType": "string",
              "name": "_name",
              "type": "string"
            },
            {
              "internalType": "string",
              "name": "_creator",
              "type": "string"
            },
            {
              "internalType": "address",
              "name": "_creatorAddr",
              "type": "address"
            },
            {
              "internalType": "string",
              "name": "_license",
              "type": "string"
            },
            {
              "internalType": "string",
              "name": "_desc",
              "type": "string"
            },
            {
              "internalType": "string",
              "name": "_image",
              "type": "string"
            },
            {
              "components": [
                {
                  "internalType": "string",
                  "name": "_web",
                  "type": "string"
                },
                {
                  "internalType": "string",
                  "name": "_twitter",
                  "type": "string"
                },
                {
                  "internalType": "string",
                  "name": "_discord",
                  "type": "string"
                },
                {
                  "internalType": "string",
                  "name": "_medium",
                  "type": "string"
                },
                {
                  "internalType": "string",
                  "name": "_instagram",
                  "type": "string"
                }
              ],
              "internalType": "struct NFTProject.ProjectSocial",
              "name": "_social",
              "type": "tuple"
            },
            {
              "internalType": "string[]",
              "name": "_scriptType",
              "type": "string[]"
            },
            {
              "internalType": "string[]",
              "name": "_scripts",
              "type": "string[]"
            },
            {
              "internalType": "string",
              "name": "_styles",
              "type": "string"
            },
            {
              "internalType": "uint256",
              "name": "_completeTime",
              "type": "uint256"
            },
            {
              "internalType": "address",
              "name": "_genNFTAddr",
              "type": "address"
            },
            {
              "internalType": "string",
              "name": "_itemDesc",
              "type": "string"
            },
            {
              "internalType": "address[]",
              "name": "_reserves",
              "type": "address[]"
            },
            {
              "internalType": "uint256",
              "name": "_royalty",
              "type": "uint256"
            }
          ],
          "internalType": "struct NFTProject.Project",
          "name": "project",
          "type": "tuple"
        }
      ],
      "stateMutability": "view",
      "type": "function"
    },
    {
      "inputs": [
        {
          "internalType": "uint256",
          "name": "projectId",
          "type": "uint256"
        }
      ],
      "name": "projectStatus",
      "outputs": [
        {
          "internalType": "bool",
          "name": "enable",
          "type": "bool"
        }
      ],
      "stateMutability": "view",
      "type": "function"
    },
    {
      "inputs": [],
      "name": "renounceOwnership",
      "outputs": [],
      "stateMutability": "nonpayable",
      "type": "function"
    },
    {
      "inputs": [
        {
          "internalType": "uint256",
          "name": "projectId",
          "type": "uint256"
        },
        {
          "internalType": "uint256",
          "name": "_salePrice",
          "type": "uint256"
        }
      ],
      "name": "royaltyInfo",
      "outputs": [
        {
          "internalType": "address",
          "name": "receiver",
          "type": "address"
        },
        {
          "internalType": "uint256",
          "name": "royaltyAmount",
          "type": "uint256"
        }
      ],
      "stateMutability": "view",
      "type": "function"
    },
    {
      "inputs": [
        {
          "internalType": "address",
          "name": "from",
          "type": "address"
        },
        {
          "internalType": "address",
          "name": "to",
          "type": "address"
        },
        {
          "internalType": "uint256",
          "name": "tokenId",
          "type": "uint256"
        }
      ],
      "name": "safeTransferFrom",
      "outputs": [],
      "stateMutability": "nonpayable",
      "type": "function"
    },
    {
      "inputs": [
        {
          "internalType": "address",
          "name": "from",
          "type": "address"
        },
        {
          "internalType": "address",
          "name": "to",
          "type": "address"
        },
        {
          "internalType": "uint256",
          "name": "tokenId",
          "type": "uint256"
        },
        {
          "internalType": "bytes",
          "name": "data",
          "type": "bytes"
        }
      ],
      "name": "safeTransferFrom",
      "outputs": [],
      "stateMutability": "nonpayable",
      "type": "function"
    },
    {
      "inputs": [
        {
          "internalType": "address",
          "name": "operator",
          "type": "address"
        },
        {
          "internalType": "bool",
          "name": "approved",
          "type": "bool"
        }
      ],
      "name": "setApprovalForAll",
      "outputs": [],
      "stateMutability": "nonpayable",
      "type": "function"
    },
    {
      "inputs": [
        {
          "internalType": "uint256",
          "name": "projectId",
          "type": "uint256"
        },
        {
          "internalType": "bool",
          "name": "enable",
          "type": "bool"
        }
      ],
      "name": "setProjectStatus",
      "outputs": [],
      "stateMutability": "nonpayable",
      "type": "function"
    },
    {
      "inputs": [
        {
          "internalType": "bytes4",
          "name": "interfaceId",
          "type": "bytes4"
        }
      ],
      "name": "supportsInterface",
      "outputs": [
        {
          "internalType": "bool",
          "name": "",
          "type": "bool"
        }
      ],
      "stateMutability": "view",
      "type": "function"
    },
    {
      "inputs": [],
      "name": "symbol",
      "outputs": [
        {
          "internalType": "string",
          "name": "",
          "type": "string"
        }
      ],
      "stateMutability": "view",
      "type": "function"
    },
    {
      "inputs": [
        {
          "internalType": "uint256",
          "name": "projectId",
          "type": "uint256"
        }
      ],
      "name": "tokenURI",
      "outputs": [
        {
          "internalType": "string",
          "name": "result",
          "type": "string"
        }
      ],
      "stateMutability": "view",
      "type": "function"
    },
    {
      "inputs": [
        {
          "internalType": "address",
          "name": "from",
          "type": "address"
        },
        {
          "internalType": "address",
          "name": "to",
          "type": "address"
        },
        {
          "internalType": "uint256",
          "name": "tokenId",
          "type": "uint256"
        }
      ],
      "name": "transferFrom",
      "outputs": [],
      "stateMutability": "nonpayable",
      "type": "function"
    },
    {
      "inputs": [
        {
          "internalType": "address",
          "name": "newOwner",
          "type": "address"
        }
      ],
      "name": "transferOwnership",
      "outputs": [],
      "stateMutability": "nonpayable",
      "type": "function"
    },
    {
      "inputs": [
        {
          "internalType": "uint256",
          "name": "projectId",
          "type": "uint256"
        },
        {
          "internalType": "string",
          "name": "creatorName",
          "type": "string"
        }
      ],
      "name": "updateProjectCreatorName",
      "outputs": [],
      "stateMutability": "nonpayable",
      "type": "function"
    },
    {
      "inputs": [
        {
          "internalType": "uint256",
          "name": "projectId",
          "type": "uint256"
        },
        {
          "internalType": "string",
          "name": "license",
          "type": "string"
        }
      ],
      "name": "updateProjectLicense",
      "outputs": [],
      "stateMutability": "nonpayable",
      "type": "function"
    },
    {
      "inputs": [
        {
          "internalType": "uint256",
          "name": "projectId",
          "type": "uint256"
        },
        {
          "internalType": "string",
          "name": "projectName",
          "type": "string"
        }
      ],
      "name": "updateProjectName",
      "outputs": [],
      "stateMutability": "nonpayable",
      "type": "function"
    },
    {
      "inputs": [
        {
          "internalType": "uint256",
          "name": "projectId",
          "type": "uint256"
        },
        {
          "internalType": "uint256",
          "name": "price",
          "type": "uint256"
        }
      ],
      "name": "updateProjectPrice",
      "outputs": [],
      "stateMutability": "nonpayable",
      "type": "function"
    },
    {
      "inputs": [
        {
          "internalType": "uint256",
          "name": "projectId",
          "type": "uint256"
        },
        {
          "internalType": "uint256",
          "name": "scriptIndex",
          "type": "uint256"
        },
        {
          "internalType": "string",
          "name": "script",
          "type": "string"
        }
      ],
      "name": "updateProjectScript",
      "outputs": [],
      "stateMutability": "nonpayable",
      "type": "function"
    },
    {
      "inputs": [
        {
          "internalType": "uint256",
          "name": "projectId",
          "type": "uint256"
        },
        {
          "internalType": "string",
          "name": "scriptType",
          "type": "string"
        },
        {
          "internalType": "uint256",
          "name": "i",
          "type": "uint256"
        }
      ],
      "name": "updateProjectScriptType",
      "outputs": [],
      "stateMutability": "nonpayable",
      "type": "function"
    },
    {
      "inputs": [
        {
          "internalType": "uint256",
          "name": "projectId",
          "type": "uint256"
        },
        {
          "components": [
            {
              "internalType": "string",
              "name": "_web",
              "type": "string"
            },
            {
              "internalType": "string",
              "name": "_twitter",
              "type": "string"
            },
            {
              "internalType": "string",
              "name": "_discord",
              "type": "string"
            },
            {
              "internalType": "string",
              "name": "_medium",
              "type": "string"
            },
            {
              "internalType": "string",
              "name": "_instagram",
              "type": "string"
            }
          ],
          "internalType": "struct NFTProject.ProjectSocial",
          "name": "data",
          "type": "tuple"
        }
      ],
      "name": "updateProjectSocial",
      "outputs": [],
      "stateMutability": "nonpayable",
      "type": "function"
    },
    {
      "inputs": [
        {
          "internalType": "address",
          "name": "receiver",
          "type": "address"
        },
        {
          "internalType": "address",
          "name": "erc20Addr",
          "type": "address"
        },
        {
          "internalType": "uint256",
          "name": "amount",
          "type": "uint256"
        }
      ],
      "name": "withdraw",
      "outputs": [],
      "stateMutability": "nonpayable",
      "type": "function"
    }
  ],
  "bytecode": "0x608060405234801561001057600080fd5b506157db80620000216000396000f3fe6080604052600436106102515760003560e01c806370a0823111610139578063adfc7dae116100b6578063daf618001161007a578063daf6180014610719578063e283d82f14610739578063e56f2fe414610759578063e985e9c514610779578063f2fde38b146107c2578063febfd6c3146107e257600080fd5b8063adfc7dae14610678578063b1656ba314610699578063b88d4fde146106b9578063c87b56dd146106d9578063d9caed12146106f957600080fd5b80638f283970116100fd5780638f283970146105e3578063926553361461060357806395d89b4114610623578063a22cb46514610638578063acad01241461065857600080fd5b806370a0823114610542578063715018a6146105625780638da5cb5b146105775780638dd91a56146105965780638e1ab777146105c357600080fd5b806325b75d68116101d2578063472f1e0211610196578063472f1e021461048857806350ac5892146104a8578063575b57ea146104c85780635c975abb146104e95780636352211e1461050157806366215eb41461052157600080fd5b806325b75d68146103c85780632a55205a146103e85780633af6cd1e1461042757806342842e0e1461044757806345bf4d081461046757600080fd5b80630d170673116102195780630d17067314610328578063166b7469146103485780631ca9741b146103685780632245f1521461038857806323b872dd146103a857600080fd5b806301bc45c91461025657806301ffc9a71461029457806306fdde03146102c4578063081812fc146102e6578063095ea7b314610306575b600080fd5b34801561026257600080fd5b5061015f54610277906001600160a01b031681565b6040516001600160a01b0390911681526020015b60405180910390f35b3480156102a057600080fd5b506102b46102af366004614582565b610802565b604051901515815260200161028b565b3480156102d057600080fd5b506102d9610854565b60405161028b91906145f7565b3480156102f257600080fd5b5061027761030136600461460a565b6108e6565b34801561031257600080fd5b50610326610321366004614643565b61090d565b005b34801561033457600080fd5b50610326610343366004614785565b610a28565b34801561035457600080fd5b506103266103633660046147cb565b610b46565b34801561037457600080fd5b506103266103833660046147ed565b610c37565b34801561039457600080fd5b506103266103a336600461460a565b610ccb565b3480156103b457600080fd5b506103266103c336600461480a565b610d7c565b3480156103d457600080fd5b506103266103e3366004614785565b610ed2565b3480156103f457600080fd5b506104086104033660046147cb565b610ff0565b604080516001600160a01b03909316835260208301919091520161028b565b34801561043357600080fd5b50610326610442366004614864565b611021565b34801561045357600080fd5b5061032661046236600461480a565b6111f2565b61047a610475366004614a95565b61133d565b60405190815260200161028b565b34801561049457600080fd5b506103266104a33660046147ed565b611960565b3480156104b457600080fd5b506102b46104c336600461460a565b6119f5565b3480156104d457600080fd5b5061016254610277906001600160a01b031681565b3480156104f557600080fd5b5060975460ff166102b4565b34801561050d57600080fd5b5061027761051c36600461460a565b611ada565b34801561052d57600080fd5b5061016154610277906001600160a01b031681565b34801561054e57600080fd5b5061047a61055d3660046147ed565b611b3a565b34801561056e57600080fd5b50610326611bc0565b34801561058357600080fd5b5061012d546001600160a01b0316610277565b3480156105a257600080fd5b506105b66105b136600461460a565b611bd4565b60405161028b9190614e2d565b3480156105cf57600080fd5b506103266105de36600461502d565b6125c7565b3480156105ef57600080fd5b506103266105fe3660046147ed565b612791565b34801561060f57600080fd5b5061032661061e3660046147cb565b612826565b34801561062f57600080fd5b506102d9612983565b34801561064457600080fd5b50610326610653366004615069565b612992565b34801561066457600080fd5b50610326610673366004614785565b61299d565b34801561068457600080fd5b5061016054610277906001600160a01b031681565b3480156106a557600080fd5b506103266106b4366004615097565b612a86565b3480156106c557600080fd5b506103266106d43660046150e6565b612b7d565b3480156106e557600080fd5b506102d96106f436600461460a565b612cd6565b34801561070557600080fd5b5061032661071436600461480a565b612d90565b34801561072557600080fd5b50610326610734366004615165565b612eec565b34801561074557600080fd5b50610326610754366004614785565b612fc6565b34801561076557600080fd5b506103266107743660046151b4565b6130e4565b34801561078557600080fd5b506102b4610794366004615262565b6001600160a01b039182166000908152606a6020908152604080832093909416825291909152205460ff1690565b3480156107ce57600080fd5b506103266107dd3660046147ed565b6132e7565b3480156107ee57600080fd5b506103266107fd3660046147ed565b61335d565b60006001600160e01b031982166380ac58cd60e01b148061083357506001600160e01b03198216635b5e139f60e01b145b8061084e57506301ffc9a760e01b6001600160e01b03198316145b92915050565b60606065805461086390615290565b80601f016020809104026020016040519081016040528092919081815260200182805461088f90615290565b80156108dc5780601f106108b1576101008083540402835291602001916108dc565b820191906000526020600020905b8154815290600101906020018083116108bf57829003601f168201915b5050505050905090565b60006108f1826133f2565b506000908152606960205260409020546001600160a01b031690565b600061091882611ada565b9050806001600160a01b0316836001600160a01b0316141561098b5760405162461bcd60e51b815260206004820152602160248201527f4552433732313a20617070726f76616c20746f2063757272656e74206f776e656044820152603960f91b60648201526084015b60405180910390fd5b336001600160a01b03821614806109a757506109a78133610794565b610a195760405162461bcd60e51b815260206004820152603d60248201527f4552433732313a20617070726f76652063616c6c6572206973206e6f7420746f60448201527f6b656e206f776e6572206f7220617070726f76656420666f7220616c6c0000006064820152608401610982565b610a238383613442565b505050565b61015f546001600160a01b0316331480610a5c5750600082815261016460205260409020600501546001600160a01b031633145b6040518060400160405280600381526020016231303160e81b81525090610a965760405162461bcd60e51b815260040161098291906145f7565b50610aa0826134b0565b6040518060400160405280600381526020016232303960e81b81525090610ada5760405162461bcd60e51b815260040161098291906145f7565b506000828152610164602090815260409091208251610b01926003909201918401906142e7565b5080604051610b1091906152cb565b6040519081900381209083907fdaa562afcb682535ccff278b5881e249435b61d592905fa2fe0f33a9a363e11b90600090a35050565b61015f546001600160a01b0316331480610b7a5750600082815261016460205260409020600501546001600160a01b031633145b6040518060400160405280600381526020016231303160e81b81525090610bb45760405162461bcd60e51b815260040161098291906145f7565b50610bbe826134b0565b6040518060400160405280600381526020016232303960e81b81525090610bf85760405162461bcd60e51b815260040161098291906145f7565b50600082815261016460205260409020600f01805482908110610c1d57610c1d6152e7565b906000526020600020016000610c33919061436b565b5050565b61015f546001600160a01b031633148015610c5a57506001600160a01b03811615155b6040518060400160405280600381526020016231303160e81b81525090610c945760405162461bcd60e51b815260040161098291906145f7565b50610161546001600160a01b03828116911614610cc85761016180546001600160a01b0319166001600160a01b0383161790555b50565b600081815261016460205260409020601201546001600160a01b03163314610cf257600080fd5b610cfb816134b0565b6040518060400160405280600381526020016232303960e81b81525090610d355760405162461bcd60e51b815260040161098291906145f7565b50600081815261016460205260408082204260119091018190559051909183917f28259f066448a50458eb3d217c396dbd1f78c8626a2a252ddc0d34ab906b54239190a350565b826daaeb6d7670e522a718067333cd4e3b15610ec1576001600160a01b038116331415610db357610dae8484846134cd565b610ecc565b604051633185c44d60e21b81526daaeb6d7670e522a718067333cd4e9063c617113490610de690309033906004016152fd565b602060405180830381865afa158015610e03573d6000803e3d6000fd5b505050506040513d601f19601f82011682018060405250810190610e279190615317565b8015610ea25750604051633185c44d60e21b81526daaeb6d7670e522a718067333cd4e9063c617113490610e6190309085906004016152fd565b602060405180830381865afa158015610e7e573d6000803e3d6000fd5b505050506040513d601f19601f82011682018060405250810190610ea29190615317565b610ec157604051633b79c77360e21b8152336004820152602401610982565b610ecc8484846134cd565b50505050565b61015f546001600160a01b0316331480610f065750600082815261016460205260409020600501546001600160a01b031633145b6040518060400160405280600381526020016231303160e81b81525090610f405760405162461bcd60e51b815260040161098291906145f7565b50610f4a826134b0565b6040518060400160405280600381526020016232303960e81b81525090610f845760405162461bcd60e51b815260040161098291906145f7565b506000828152610164602090815260409091208251610fab926006909201918401906142e7565b5080604051610fba91906152cb565b6040519081900381209083907f37e7d36d9467fef9204db596ec8ad600a5f42d03309d7936daed5b4aedf9a16690600090a35050565b61015f546001600160a01b0316600061271061100e846101f461534a565b6110189190615369565b90509250929050565b61102a826134b0565b6040518060400160405280600381526020016232303960e81b815250906110645760405162461bcd60e51b815260040161098291906145f7565b5061015f546001600160a01b03163314806110995750600082815261016460205260409020600501546001600160a01b031633145b6040518060400160405280600381526020016231303160e81b815250906110d35760405162461bcd60e51b815260040161098291906145f7565b50600082815261016460209081526040918290206012015482516302734eab60e51b815292516001600160a01b0390911692841515928492634e69d5609260048082019392918290030181865afa158015611132573d6000803e3d6000fd5b505050506040513d601f19601f820116820180604052508101906111569190615317565b1515141561116357600080fd5b6040516317103dbd60e21b815282151560048201526001600160a01b03821690635c40f6f490602401600060405180830381600087803b1580156111a657600080fd5b505af11580156111ba573d6000803e3d6000fd5b505060405184151592508591507ff6c6b5ef8b8f3bb25af69bda9a347568bfc16d17d1f6e911de88f63a08994af990600090a3505050565b826daaeb6d7670e522a718067333cd4e3b15611332576001600160a01b03811633141561122457610dae8484846134fe565b604051633185c44d60e21b81526daaeb6d7670e522a718067333cd4e9063c61711349061125790309033906004016152fd565b602060405180830381865afa158015611274573d6000803e3d6000fd5b505050506040513d601f19601f820116820180604052508101906112989190615317565b80156113135750604051633185c44d60e21b81526daaeb6d7670e522a718067333cd4e9063c6171134906112d290309085906004016152fd565b602060405180830381865afa1580156112ef573d6000803e3d6000fd5b505050506040513d601f19601f820116820180604052508101906113139190615317565b61133257604051633b79c77360e21b8152336004820152602401610982565b610ecc8484846134fe565b6000611347613519565b6003846080015151118015611361575060038460a0015151115b80156113735750600084610120015151115b6040518060400160405280600381526020016203230360ec1b815250906113ad5760405162461bcd60e51b815260040161098291906145f7565b50835162ffffff16158015906113ce5750620f4240846000015162ffffff16105b80156113e357506000846020015162ffffff16115b80156114015750836000015162ffffff16846020015162ffffff1611155b8015611414575061271084610240015111155b604051806040016040528060038152602001620c8c0d60ea1b8152509061144e5760405162461bcd60e51b815260040161098291906145f7565b5060c084015160408051808201909152600381526203130360ec1b6020820152906001600160a01b03166114955760405162461bcd60e51b815260040161098291906145f7565b5061016380549060006114a78361538b565b9091555050610160546001600160a01b03166114c1613573565b610163546000908152610164602090815260409182902087518154838a015162ffffff90811663010000000265ffffffffffff1990921692169190911717815591870151600183015560608701516002830180546001600160a01b039092166001600160a01b03199092169190911790556080870151805188939261154d9260038501929101906142e7565b5060a082015180516115699160048401916020909101906142e7565b5060c08201516005820180546001600160a01b0319166001600160a01b0390921691909117905560e082015180516115ab9160068401916020909101906142e7565b5061010082015180516115c89160078401916020909101906142e7565b5061012082015180516115e59160088401916020909101906142e7565b50610140820151805180516009840191611604918391602001906142e7565b50602082810151805161161d92600185019201906142e7565b50604082015180516116399160028401916020909101906142e7565b50606082015180516116559160038401916020909101906142e7565b50608082015180516116719160048401916020909101906142e7565b505050610160820151805161169091600e8401916020909101906143a5565b5061018082015180516116ad91600f8401916020909101906143a5565b506101a082015180516116ca9160108401916020909101906142e7565b506101c082015160118201556101e08201516012820180546001600160a01b0319166001600160a01b0390921691909117905561020082015180516117199160138401916020909101906142e7565b5061022082015180516117369160148401916020909101906143fe565b5061024082015181601501559050506117568560c0015161016354613756565b604080518082018252601781527f47454e455241544956455f4e46545f54454d504c4154450000000000000000006020820152905163bf40fac160e01b8152600091611800916001600160a01b0385169163bf40fac1916117ba91906004016145f7565b602060405180830381865afa1580156117d7573d6000803e3d6000fd5b505050506040513d601f19601f820116820180604052508101906117fb91906153a6565b613770565b610163805460009081526101646020908152604080832060120180546001600160a01b0319166001600160a01b0387811691821790925582516101a0810184523081529554868501528c5162ffffff908116878501528d85015116606080880191909152608080880187905260a08089018890528f015160c08901528e85015160e0890152908e015183166101008801528d0151610120870152825180840184529485529284018a90526101408501939093526102208b0151610160808601919091526102408c015161018086015261015f54905461016154610162549351637e11ba2960e11b81529798508897949663fc2374529661191496919594811694938116939281169216908e906004016153c3565b600060405180830381600087803b15801561192e57600080fd5b505af1158015611942573d6000803e3d6000fd5b50505050610163549350505050611959600160fb55565b9392505050565b61015f546001600160a01b03163314801561198357506001600160a01b03811615155b6040518060400160405280600381526020016231303160e81b815250906119bd5760405162461bcd60e51b815260040161098291906145f7565b50610162546001600160a01b03828116911614610cc85761016280546001600160a01b0383166001600160a01b031990911617905550565b6000611a00826134b0565b6040518060400160405280600381526020016232303960e81b81525090611a3a5760405162461bcd60e51b815260040161098291906145f7565b50600082815261016460209081526040918290206012015482516302734eab60e51b815292516001600160a01b03909116928392634e69d560926004808401938290030181865afa158015611a93573d6000803e3d6000fd5b505050506040513d601f19601f82011682018060405250810190611ab79190615317565b915081801561195957505050600090815261016460205260409020601101541590565b6000818152606760205260408120546001600160a01b03168061084e5760405162461bcd60e51b8152602060048201526018602482015277115490cdcc8c4e881a5b9d985b1a59081d1bdad95b88125160421b6044820152606401610982565b60006001600160a01b038216611ba45760405162461bcd60e51b815260206004820152602960248201527f4552433732313a2061646472657373207a65726f206973206e6f7420612076616044820152683634b21037bbb732b960b91b6064820152608401610982565b506001600160a01b031660009081526068602052604090205490565b611bc8613811565b611bd2600061386c565b565b611bdc614453565b611be5826134b0565b6040518060400160405280600381526020016232303960e81b81525090611c1f5760405162461bcd60e51b815260040161098291906145f7565b5060008281526101646020908152604091829020825161026081018452815462ffffff80821683526301000000909104169281019290925260018101549282019290925260028201546001600160a01b03166060820152600382018054919291608084019190611c8e90615290565b80601f0160208091040260200160405190810160405280929190818152602001828054611cba90615290565b8015611d075780601f10611cdc57610100808354040283529160200191611d07565b820191906000526020600020905b815481529060010190602001808311611cea57829003601f168201915b50505050508152602001600482018054611d2090615290565b80601f0160208091040260200160405190810160405280929190818152602001828054611d4c90615290565b8015611d995780601f10611d6e57610100808354040283529160200191611d99565b820191906000526020600020905b815481529060010190602001808311611d7c57829003601f168201915b505050918352505060058201546001600160a01b03166020820152600682018054604090920191611dc990615290565b80601f0160208091040260200160405190810160405280929190818152602001828054611df590615290565b8015611e425780601f10611e1757610100808354040283529160200191611e42565b820191906000526020600020905b815481529060010190602001808311611e2557829003601f168201915b50505050508152602001600782018054611e5b90615290565b80601f0160208091040260200160405190810160405280929190818152602001828054611e8790615290565b8015611ed45780601f10611ea957610100808354040283529160200191611ed4565b820191906000526020600020905b815481529060010190602001808311611eb757829003601f168201915b50505050508152602001600882018054611eed90615290565b80601f0160208091040260200160405190810160405280929190818152602001828054611f1990615290565b8015611f665780601f10611f3b57610100808354040283529160200191611f66565b820191906000526020600020905b815481529060010190602001808311611f4957829003601f168201915b50505050508152602001600982016040518060a0016040529081600082018054611f8f90615290565b80601f0160208091040260200160405190810160405280929190818152602001828054611fbb90615290565b80156120085780601f10611fdd57610100808354040283529160200191612008565b820191906000526020600020905b815481529060010190602001808311611feb57829003601f168201915b5050505050815260200160018201805461202190615290565b80601f016020809104026020016040519081016040528092919081815260200182805461204d90615290565b801561209a5780601f1061206f5761010080835404028352916020019161209a565b820191906000526020600020905b81548152906001019060200180831161207d57829003601f168201915b505050505081526020016002820180546120b390615290565b80601f01602080910402602001604051908101604052809291908181526020018280546120df90615290565b801561212c5780601f106121015761010080835404028352916020019161212c565b820191906000526020600020905b81548152906001019060200180831161210f57829003601f168201915b5050505050815260200160038201805461214590615290565b80601f016020809104026020016040519081016040528092919081815260200182805461217190615290565b80156121be5780601f10612193576101008083540402835291602001916121be565b820191906000526020600020905b8154815290600101906020018083116121a157829003601f168201915b505050505081526020016004820180546121d790615290565b80601f016020809104026020016040519081016040528092919081815260200182805461220390615290565b80156122505780601f1061222557610100808354040283529160200191612250565b820191906000526020600020905b81548152906001019060200180831161223357829003601f168201915b5050505050815250508152602001600e8201805480602002602001604051908101604052809291908181526020016000905b8282101561232e5783829060005260206000200180546122a190615290565b80601f01602080910402602001604051908101604052809291908181526020018280546122cd90615290565b801561231a5780601f106122ef5761010080835404028352916020019161231a565b820191906000526020600020905b8154815290600101906020018083116122fd57829003601f168201915b505050505081526020019060010190612282565b505050508152602001600f8201805480602002602001604051908101604052809291908181526020016000905b8282101561240757838290600052602060002001805461237a90615290565b80601f01602080910402602001604051908101604052809291908181526020018280546123a690615290565b80156123f35780601f106123c8576101008083540402835291602001916123f3565b820191906000526020600020905b8154815290600101906020018083116123d657829003601f168201915b50505050508152602001906001019061235b565b50505050815260200160108201805461241f90615290565b80601f016020809104026020016040519081016040528092919081815260200182805461244b90615290565b80156124985780601f1061246d57610100808354040283529160200191612498565b820191906000526020600020905b81548152906001019060200180831161247b57829003601f168201915b50505091835250506011820154602082015260128201546001600160a01b031660408201526013820180546060909201916124d290615290565b80601f01602080910402602001604051908101604052809291908181526020018280546124fe90615290565b801561254b5780601f106125205761010080835404028352916020019161254b565b820191906000526020600020905b81548152906001019060200180831161252e57829003601f168201915b50505050508152602001601482018054806020026020016040519081016040528092919081815260200182805480156125ad57602002820191906000526020600020905b81546001600160a01b0316815260019091019060200180831161258f575b505050505081526020016015820154815250509050919050565b61015f546001600160a01b03163314806125fb5750600082815261016460205260409020600501546001600160a01b031633145b6040518060400160405280600381526020016231303160e81b815250906126355760405162461bcd60e51b815260040161098291906145f7565b5061263f826134b0565b6040518060400160405280600381526020016232303960e81b815250906126795760405162461bcd60e51b815260040161098291906145f7565b506040808201516000848152610164602090815292902081516126a693600b9092019291909101906142e7565b50602080820151600084815261016483526040902081516126d093600a90920192909101906142e7565b50608081015160008381526101646020908152604090912082516126fd93600d90920192909101906142e7565b506060810151600083815261016460209081526040909120825161272a93600c90920192909101906142e7565b508051600083815261016460209081526040909120825161275493600990920192909101906142e7565b50817fac9eecd527183c9d33cb010c7110e35faa09868c77e3cf66465a67079dca197c826040516127859190615554565b60405180910390a25050565b61015f546001600160a01b0316331480156127b457506001600160a01b03811615155b6040518060400160405280600381526020016231303160e81b815250906127ee5760405162461bcd60e51b815260040161098291906145f7565b5061015f546001600160a01b03828116911614610cc85761015f80546001600160a01b0383166001600160a01b031990911617905550565b61015f546001600160a01b031633148061285a5750600082815261016460205260409020600501546001600160a01b031633145b6040518060400160405280600381526020016231303160e81b815250906128945760405162461bcd60e51b815260040161098291906145f7565b5061289e826134b0565b6040518060400160405280600381526020016232303960e81b815250906128d85760405162461bcd60e51b815260040161098291906145f7565b50600082815261016460205260409081902060018101839055601201549051638d6cc56d60e01b8152600481018390526001600160a01b03909116908190638d6cc56d90602401600060405180830381600087803b15801561293957600080fd5b505af115801561294d573d6000803e3d6000fd5b50506040518492508591507fcc3136787384490182c3da4ad1777aa0e5905afb3cae9b76d71e34cd870883ef90600090a3505050565b60606066805461086390615290565b610c333383836138bf565b61015f546001600160a01b03163314806129d15750600082815261016460205260409020600501546001600160a01b031633145b6040518060400160405280600381526020016231303160e81b81525090612a0b5760405162461bcd60e51b815260040161098291906145f7565b50612a15826134b0565b6040518060400160405280600381526020016232303960e81b81525090612a4f5760405162461bcd60e51b815260040161098291906145f7565b506000828152610164602090815260408220600f018054600181018255908352918190208351610a239391909101918401906142e7565b61015f546001600160a01b0316331480612aba5750600083815261016460205260409020600501546001600160a01b031633145b6040518060400160405280600381526020016231303160e81b81525090612af45760405162461bcd60e51b815260040161098291906145f7565b50612afe836134b0565b6040518060400160405280600381526020016232303960e81b81525090612b385760405162461bcd60e51b815260040161098291906145f7565b50600083815261016460205260409020600f01805482919084908110612b6057612b606152e7565b906000526020600020019080519060200190610ecc9291906142e7565b836daaeb6d7670e522a718067333cd4e3b15612cc3576001600160a01b038116331415612bb557612bb08585858561398e565b612ccf565b604051633185c44d60e21b81526daaeb6d7670e522a718067333cd4e9063c617113490612be890309033906004016152fd565b602060405180830381865afa158015612c05573d6000803e3d6000fd5b505050506040513d601f19601f82011682018060405250810190612c299190615317565b8015612ca45750604051633185c44d60e21b81526daaeb6d7670e522a718067333cd4e9063c617113490612c6390309085906004016152fd565b602060405180830381865afa158015612c80573d6000803e3d6000fd5b505050506040513d601f19601f82011682018060405250810190612ca49190615317565b612cc357604051633b79c77360e21b8152336004820152602401610982565b612ccf8585858561398e565b5050505050565b6060612ce1826134b0565b6040518060400160405280600381526020016232303960e81b81525090612d1b5760405162461bcd60e51b815260040161098291906145f7565b506101625460405163079ebc6f60e41b8152600481018490526001600160a01b039091169081906379ebc6f090602401600060405180830381865afa158015612d68573d6000803e3d6000fd5b505050506040513d6000823e601f3d908101601f191682016040526119599190810190615567565b612d98613519565b61015f5460408051808201909152600381526231303160e81b6020820152906001600160a01b03163314612ddf5760405162461bcd60e51b815260040161098291906145f7565b5060006001600160a01b038316612e605781471015612dfd57600080fd5b6040516001600160a01b038516908390600081818185875af1925050503d8060008114612e46576040519150601f19603f3d011682016040523d82523d6000602084013e612e4b565b606091505b50508091505080612e5b57600080fd5b612ee1565b60405163a9059cbb60e01b81526001600160a01b0385811660048301526024820184905284919082169063a9059cbb906044016020604051808303816000875af1158015612eb2573d6000803e3d6000fd5b505050506040513d601f19601f82011682018060405250810190612ed69190615317565b612edf57600080fd5b505b50610a23600160fb55565b61015f546001600160a01b0316331480612f205750600083815261016460205260409020600501546001600160a01b031633145b6040518060400160405280600381526020016231303160e81b81525090612f5a5760405162461bcd60e51b815260040161098291906145f7565b50612f64836134b0565b6040518060400160405280600381526020016232303960e81b81525090612f9e5760405162461bcd60e51b815260040161098291906145f7565b50600083815261016460205260409020600e01805483919083908110612b6057612b606152e7565b61015f546001600160a01b0316331480612ffa5750600082815261016460205260409020600501546001600160a01b031633145b6040518060400160405280600381526020016231303160e81b815250906130345760405162461bcd60e51b815260040161098291906145f7565b5061303e826134b0565b6040518060400160405280600381526020016232303960e81b815250906130785760405162461bcd60e51b815260040161098291906145f7565b50600082815261016460209081526040909120825161309f926004909201918401906142e7565b50806040516130ae91906152cb565b6040519081900381209083907f0659e01d131efb672ee6f7f79276247f0e1a8ad1731616056a9e671caa57b41090600090a35050565b600054610100900460ff16158080156131045750600054600160ff909116105b8061311e5750303b15801561311e575060005460ff166001145b6131815760405162461bcd60e51b815260206004820152602e60248201527f496e697469616c697a61626c653a20636f6e747261637420697320616c72656160448201526d191e481a5b9a5d1a585b1a5e995960921b6064820152608401610982565b6000805460ff1916600117905580156131a4576000805461ff0019166101001790555b60408051808201909152600381526203130360ec1b60208201526001600160a01b0386166131e55760405162461bcd60e51b815260040161098291906145f7565b5060408051808201909152600381526203130360ec1b60208201526001600160a01b0385166132275760405162461bcd60e51b815260040161098291906145f7565b5061016080546001600160a01b038087166001600160a01b03199283161790925561015f8054888416908316179055610161805486841690831617905561016280549285169290911691909117905561328087876139c0565b6132886139f1565b613290613a20565b613298613a4f565b80156132de576000805461ff0019169055604051600181527f7f26b83ff96e1f2b6a682f133852f6798a09c465da95921460cefb38474024989060200160405180910390a15b50505050505050565b6132ef613811565b6001600160a01b0381166133545760405162461bcd60e51b815260206004820152602660248201527f4f776e61626c653a206e6577206f776e657220697320746865207a65726f206160448201526564647265737360d01b6064820152608401610982565b610cc88161386c565b61015f546001600160a01b03163314801561338057506001600160a01b03811615155b6040518060400160405280600381526020016231303160e81b815250906133ba5760405162461bcd60e51b815260040161098291906145f7565b50610160546001600160a01b03828116911614610cc85761016080546001600160a01b0383166001600160a01b031990911617905550565b6133fb816134b0565b610cc85760405162461bcd60e51b8152602060048201526018602482015277115490cdcc8c4e881a5b9d985b1a59081d1bdad95b88125160421b6044820152606401610982565b600081815260696020526040902080546001600160a01b0319166001600160a01b038416908117909155819061347782611ada565b6001600160a01b03167f8c5be1e5ebec7d5bd14f71427d1e84f3dd0314c0f7b2291e5b200ac8c7c3b92560405160405180910390a45050565b6000908152606760205260409020546001600160a01b0316151590565b6134d73382613a95565b6134f35760405162461bcd60e51b8152600401610982906155d4565b610a23838383613b14565b610a2383838360405180602001604052806000815250612b7d565b600260fb54141561356c5760405162461bcd60e51b815260206004820152601f60248201527f5265656e7472616e637947756172643a207265656e7472616e742063616c6c006044820152606401610982565b600260fb55565b61015f546001600160a01b03163314611bd2576101605460408051808201825260128152714352454154455f50524f4a4543545f46454560701b60208201529051636d12dce160e01b81526001600160a01b03909216916000918391636d12dce1916135e1916004016145f7565b602060405180830381865afa1580156135fe573d6000803e3d6000fd5b505050506040513d601f19601f820116820180604052508101906136229190615621565b90508015610c335760408051808201825260098152682322a2afaa27a5a2a760b91b6020820152905163bf40fac160e01b81526000916001600160a01b0385169163bf40fac191613675916004016145f7565b602060405180830381865afa158015613692573d6000803e3d6000fd5b505050506040513d601f19601f820116820180604052508101906136b691906153a6565b90506001600160a01b03811615613749576040516323b872dd60e01b81523360048201523060248201526044810183905281906001600160a01b038216906323b872dd906064016020604051808303816000875af115801561371c573d6000803e3d6000fd5b505050506040513d601f19601f820116820180604052508101906137409190615317565b610ecc57600080fd5b81341015610a2357600080fd5b610c33828260405180602001604052806000815250613c85565b6000763d602d80600a3d3981f3363d3d373d3d3d363d730000008260601b60e81c176000526e5af43d82803e903d91602b57fd5bf38260781b17602052603760096000f090506001600160a01b0381166138055760405162461bcd60e51b8152602060048201526016602482015275115490cc4c4d8dce8818dc99585d194819985a5b195960521b6044820152606401610982565b919050565b600160fb55565b61012d546001600160a01b03163314611bd25760405162461bcd60e51b815260206004820181905260248201527f4f776e61626c653a2063616c6c6572206973206e6f7420746865206f776e65726044820152606401610982565b61012d80546001600160a01b038381166001600160a01b0319831681179093556040519116919082907f8be0079c531659141344cd1fd0a4f28419497f9722a3daafe3b4186f6b6457e090600090a35050565b816001600160a01b0316836001600160a01b031614156139215760405162461bcd60e51b815260206004820152601960248201527f4552433732313a20617070726f766520746f2063616c6c6572000000000000006044820152606401610982565b6001600160a01b038381166000818152606a6020908152604080832094871680845294825291829020805460ff191686151590811790915591519182527f17307eab39ab6107e8899845ad3d59bd9653f200f220920489ca2b5937696c31910160405180910390a3505050565b6139983383613a95565b6139b45760405162461bcd60e51b8152600401610982906155d4565b610ecc84848484613cb8565b600054610100900460ff166139e75760405162461bcd60e51b81526004016109829061563a565b610c338282613ceb565b600054610100900460ff16613a185760405162461bcd60e51b81526004016109829061563a565b611bd2613d39565b600054610100900460ff16613a475760405162461bcd60e51b81526004016109829061563a565b611bd2613d60565b600054610100900460ff16613a765760405162461bcd60e51b81526004016109829061563a565b611bd2733cc6cdda760b79bafa08df41ecfa224f810dceb66001613d93565b600080613aa183611ada565b9050806001600160a01b0316846001600160a01b03161480613ae857506001600160a01b038082166000908152606a602090815260408083209388168352929052205460ff165b80613b0c5750836001600160a01b0316613b01846108e6565b6001600160a01b0316145b949350505050565b826001600160a01b0316613b2782611ada565b6001600160a01b031614613b4d5760405162461bcd60e51b815260040161098290615685565b6001600160a01b038216613baf5760405162461bcd60e51b8152602060048201526024808201527f4552433732313a207472616e7366657220746f20746865207a65726f206164646044820152637265737360e01b6064820152608401610982565b613bbc8383836001613f24565b826001600160a01b0316613bcf82611ada565b6001600160a01b031614613bf55760405162461bcd60e51b815260040161098290615685565b600081815260696020908152604080832080546001600160a01b03199081169091556001600160a01b0387811680865260688552838620805460001901905590871680865283862080546001019055868652606790945282852080549092168417909155905184937fddf252ad1be2c89b69c2b068fc378daa952ba7f163c4a11628f55a4df523b3ef91a4505050565b613c8f8383613f73565b613c9c60008484846140ee565b610a235760405162461bcd60e51b8152600401610982906156ca565b613cc3848484613b14565b613ccf848484846140ee565b610ecc5760405162461bcd60e51b8152600401610982906156ca565b600054610100900460ff16613d125760405162461bcd60e51b81526004016109829061563a565b8151613d259060659060208501906142e7565b508051610a239060669060208401906142e7565b600054610100900460ff1661380a5760405162461bcd60e51b81526004016109829061563a565b600054610100900460ff16613d875760405162461bcd60e51b81526004016109829061563a565b6097805460ff19169055565b600054610100900460ff16613dba5760405162461bcd60e51b81526004016109829061563a565b6daaeb6d7670e522a718067333cd4e3b15610c335760405163c3c5a54760e01b81523060048201526daaeb6d7670e522a718067333cd4e9063c3c5a547906024016020604051808303816000875af1158015613e1a573d6000803e3d6000fd5b505050506040513d601f19601f82011682018060405250810190613e3e9190615317565b610c33578015613eb157604051633e9f1edf60e11b81526daaeb6d7670e522a718067333cd4e90637d3e3dbe90613e7b90309086906004016152fd565b600060405180830381600087803b158015613e9557600080fd5b505af1158015613ea9573d6000803e3d6000fd5b505050505050565b6001600160a01b03821615613ef35760405163a0af290360e01b81526daaeb6d7670e522a718067333cd4e9063a0af290390613e7b90309086906004016152fd565b604051632210724360e11b81523060048201526daaeb6d7670e522a718067333cd4e90634420e48690602401613e7b565b60408051808201909152600381526203231360ec1b60208201526001600160a01b03851615613f665760405162461bcd60e51b815260040161098291906145f7565b50610ecc848484846141ec565b6001600160a01b038216613fc95760405162461bcd60e51b815260206004820181905260248201527f4552433732313a206d696e7420746f20746865207a65726f20616464726573736044820152606401610982565b613fd2816134b0565b1561401f5760405162461bcd60e51b815260206004820152601c60248201527f4552433732313a20746f6b656e20616c7265616479206d696e746564000000006044820152606401610982565b61402d600083836001613f24565b614036816134b0565b156140835760405162461bcd60e51b815260206004820152601c60248201527f4552433732313a20746f6b656e20616c7265616479206d696e746564000000006044820152606401610982565b6001600160a01b038216600081815260686020908152604080832080546001019055848352606790915280822080546001600160a01b0319168417905551839291907fddf252ad1be2c89b69c2b068fc378daa952ba7f163c4a11628f55a4df523b3ef908290a45050565b60006001600160a01b0384163b156141e157604051630a85bd0160e11b81526001600160a01b0385169063150b7a029061413290339089908890889060040161571c565b6020604051808303816000875af192505050801561416d575060408051601f3d908101601f1916820190925261416a91810190615759565b60015b6141c7573d80801561419b576040519150601f19603f3d011682016040523d82523d6000602084013e6141a0565b606091505b5080516141bf5760405162461bcd60e51b8152600401610982906156ca565b805181602001fd5b6001600160e01b031916630a85bd0160e11b149050613b0c565b506001949350505050565b6141f88484848461425f565b60975460ff1615610ecc5760405162461bcd60e51b815260206004820152602b60248201527f4552433732315061757361626c653a20746f6b656e207472616e73666572207760448201526a1a1a5b19481c185d5cd95960aa1b6064820152608401610982565b6001811115610ecc576001600160a01b038416156142a5576001600160a01b0384166000908152606860205260408120805483929061429f908490615776565b90915550505b6001600160a01b03831615610ecc576001600160a01b038316600090815260686020526040812080548392906142dc90849061578d565b909155505050505050565b8280546142f390615290565b90600052602060002090601f016020900481019282614315576000855561435b565b82601f1061432e57805160ff191683800117855561435b565b8280016001018555821561435b579182015b8281111561435b578251825591602001919060010190614340565b5061436792915061453a565b5090565b50805461437790615290565b6000825580601f10614387575050565b601f016020900490600052602060002090810190610cc8919061453a565b8280548282559060005260206000209081019282156143f2579160200282015b828111156143f257825180516143e29184916020909101906142e7565b50916020019190600101906143c5565b5061436792915061454f565b82805482825590600052602060002090810192821561435b579160200282015b8281111561435b57825182546001600160a01b0319166001600160a01b0390911617825560209092019160019091019061441e565b604051806102600160405280600062ffffff168152602001600062ffffff1681526020016000815260200160006001600160a01b03168152602001606081526020016060815260200160006001600160a01b031681526020016060815260200160608152602001606081526020016144f36040518060a0016040528060608152602001606081526020016060815260200160608152602001606081525090565b81526020016060815260200160608152602001606081526020016000815260200160006001600160a01b031681526020016060815260200160608152602001600081525090565b5b80821115614367576000815560010161453b565b80821115614367576000614563828261436b565b5060010161454f565b6001600160e01b031981168114610cc857600080fd5b60006020828403121561459457600080fd5b81356119598161456c565b60005b838110156145ba5781810151838201526020016145a2565b83811115610ecc5750506000910152565b600081518084526145e381602086016020860161459f565b601f01601f19169290920160200192915050565b60208152600061195960208301846145cb565b60006020828403121561461c57600080fd5b5035919050565b6001600160a01b0381168114610cc857600080fd5b803561380581614623565b6000806040838503121561465657600080fd5b823561466181614623565b946020939093013593505050565b634e487b7160e01b600052604160045260246000fd5b60405160a081016001600160401b03811182821017156146a7576146a761466f565b60405290565b60405161026081016001600160401b03811182821017156146a7576146a761466f565b604051601f8201601f191681016001600160401b03811182821017156146f8576146f861466f565b604052919050565b60006001600160401b038211156147195761471961466f565b50601f01601f191660200190565b600061473a61473584614700565b6146d0565b905082815283838301111561474e57600080fd5b828260208301376000602084830101529392505050565b600082601f83011261477657600080fd5b61195983833560208501614727565b6000806040838503121561479857600080fd5b8235915060208301356001600160401b038111156147b557600080fd5b6147c185828601614765565b9150509250929050565b600080604083850312156147de57600080fd5b50508035926020909101359150565b6000602082840312156147ff57600080fd5b813561195981614623565b60008060006060848603121561481f57600080fd5b833561482a81614623565b9250602084013561483a81614623565b929592945050506040919091013590565b8015158114610cc857600080fd5b80356138058161484b565b6000806040838503121561487757600080fd5b8235915060208301356148898161484b565b809150509250929050565b803562ffffff8116811461380557600080fd5b600060a082840312156148b957600080fd5b6148c1614685565b905081356001600160401b03808211156148da57600080fd5b6148e685838601614765565b835260208401359150808211156148fc57600080fd5b61490885838601614765565b6020840152604084013591508082111561492157600080fd5b61492d85838601614765565b6040840152606084013591508082111561494657600080fd5b61495285838601614765565b6060840152608084013591508082111561496b57600080fd5b5061497884828501614765565b60808301525092915050565b60006001600160401b0382111561499d5761499d61466f565b5060051b60200190565b600082601f8301126149b857600080fd5b813560206149c861473583614984565b82815260059290921b840181019181810190868411156149e757600080fd5b8286015b84811015614a265780356001600160401b03811115614a0a5760008081fd5b614a188986838b0101614765565b8452509183019183016149eb565b509695505050505050565b600082601f830112614a4257600080fd5b81356020614a5261473583614984565b82815260059290921b84018101918181019086841115614a7157600080fd5b8286015b84811015614a26578035614a8881614623565b8352918301918301614a75565b600080600060608486031215614aaa57600080fd5b83356001600160401b0380821115614ac157600080fd5b908501906102608288031215614ad657600080fd5b614ade6146ad565b614ae783614894565b8152614af560208401614894565b602082015260408301356040820152614b1060608401614638565b6060820152608083013582811115614b2757600080fd5b614b3389828601614765565b60808301525060a083013582811115614b4b57600080fd5b614b5789828601614765565b60a083015250614b6960c08401614638565b60c082015260e083013582811115614b8057600080fd5b614b8c89828601614765565b60e0830152506101008084013583811115614ba657600080fd5b614bb28a828701614765565b8284015250506101208084013583811115614bcc57600080fd5b614bd88a828701614765565b8284015250506101408084013583811115614bf257600080fd5b614bfe8a8287016148a7565b8284015250506101608084013583811115614c1857600080fd5b614c248a8287016149a7565b8284015250506101808084013583811115614c3e57600080fd5b614c4a8a8287016149a7565b8284015250506101a08084013583811115614c6457600080fd5b614c708a828701614765565b8284015250506101c08084013581830152506101e0614c90818501614638565b908201526102008381013583811115614ca857600080fd5b614cb48a828701614765565b8284015250506102208084013583811115614cce57600080fd5b614cda8a828701614a31565b82840152505061024091508183013582820152809550505050614cff60208501614859565b9150604084013590509250925092565b6000815160a08452614d2460a08501826145cb565b905060208301518482036020860152614d3d82826145cb565b91505060408301518482036040860152614d5782826145cb565b91505060608301518482036060860152614d7182826145cb565b91505060808301518482036080860152614d8b82826145cb565b95945050505050565b600081518084526020808501808196508360051b8101915082860160005b85811015614ddc578284038952614dca8483516145cb565b98850198935090840190600101614db2565b5091979650505050505050565b600081518084526020808501945080840160005b83811015614e225781516001600160a01b031687529582019590820190600101614dfd565b509495945050505050565b60208152614e4360208201835162ffffff169052565b60006020830151614e5b604084018262ffffff169052565b50604083015160608301526060830151614e8060808401826001600160a01b03169052565b5060808301516102608060a0850152614e9d6102808501836145cb565b915060a0850151601f19808685030160c0870152614ebb84836145cb565b935060c08701519150614ed960e08701836001600160a01b03169052565b60e08701519150610100818786030181880152614ef685846145cb565b945080880151925050610120818786030181880152614f1585846145cb565b945080880151925050610140818786030181880152614f3485846145cb565b945080880151925050610160818786030181880152614f538584614d0f565b945080880151925050610180818786030181880152614f728584614d94565b9450808801519250506101a0818786030181880152614f918584614d94565b9450808801519250506101c0818786030181880152614fb085846145cb565b908801516101e0888101919091528801519094509150610200614fdd818801846001600160a01b03169052565b80880151925050610220818786030181880152614ffa85846145cb565b9450808801519250506102408187860301818801526150198584614de9565b970151959092019490945250929392505050565b6000806040838503121561504057600080fd5b8235915060208301356001600160401b0381111561505d57600080fd5b6147c1858286016148a7565b6000806040838503121561507c57600080fd5b823561508781614623565b915060208301356148898161484b565b6000806000606084860312156150ac57600080fd5b833592506020840135915060408401356001600160401b038111156150d057600080fd5b6150dc86828701614765565b9150509250925092565b600080600080608085870312156150fc57600080fd5b843561510781614623565b9350602085013561511781614623565b92506040850135915060608501356001600160401b0381111561513957600080fd5b8501601f8101871361514a57600080fd5b61515987823560208401614727565b91505092959194509250565b60008060006060848603121561517a57600080fd5b8335925060208401356001600160401b0381111561519757600080fd5b6151a386828701614765565b925050604084013590509250925092565b60008060008060008060c087890312156151cd57600080fd5b86356001600160401b03808211156151e457600080fd5b6151f08a838b01614765565b9750602089013591508082111561520657600080fd5b5061521389828a01614765565b955050604087013561522481614623565b9350606087013561523481614623565b9250608087013561524481614623565b915060a087013561525481614623565b809150509295509295509295565b6000806040838503121561527557600080fd5b823561528081614623565b9150602083013561488981614623565b600181811c908216806152a457607f821691505b602082108114156152c557634e487b7160e01b600052602260045260246000fd5b50919050565b600082516152dd81846020870161459f565b9190910192915050565b634e487b7160e01b600052603260045260246000fd5b6001600160a01b0392831681529116602082015260400190565b60006020828403121561532957600080fd5b81516119598161484b565b634e487b7160e01b600052601160045260246000fd5b600081600019048311821515161561536457615364615334565b500290565b60008261538657634e487b7160e01b600052601260045260246000fd5b500490565b600060001982141561539f5761539f615334565b5060010190565b6000602082840312156153b857600080fd5b815161195981614623565b60c081526153dd60c0820188516001600160a01b03169052565b602087015160e0820152600060408801516101006154018185018362ffffff169052565b60608a0151915061012061541b8186018462ffffff169052565b60808b015192506101406154358187018562ffffff169052565b60a08c0151935061016061544f8188018662ffffff169052565b60c08d015194506101c061018081818a015261546f6102808a01886145cb565b965060e08f01516101a08a0152858f01519550615496828a01876001600160a01b03169052565b848f0151955060bf19945084898803016101e08a01526154b687876145cb565b8f85015180516102008c015260208101516102208c01529097509550828f0151955084898803016102408a01526154ed8787614de9565b908f01516102608a01526001600160a01b038e1660208a0152965061551495505050505050565b6001600160a01b03861660408301526001600160a01b03851660608301526001600160a01b038416608083015282151560a0830152979650505050505050565b6020815260006119596020830184614d0f565b60006020828403121561557957600080fd5b81516001600160401b0381111561558f57600080fd5b8201601f810184136155a057600080fd5b80516155ae61473582614700565b8181528560208385010111156155c357600080fd5b614d8b82602083016020860161459f565b6020808252602d908201527f4552433732313a2063616c6c6572206973206e6f7420746f6b656e206f776e6560408201526c1c881bdc88185c1c1c9bdd9959609a1b606082015260800190565b60006020828403121561563357600080fd5b5051919050565b6020808252602b908201527f496e697469616c697a61626c653a20636f6e7472616374206973206e6f74206960408201526a6e697469616c697a696e6760a81b606082015260800190565b60208082526025908201527f4552433732313a207472616e736665722066726f6d20696e636f72726563742060408201526437bbb732b960d91b606082015260800190565b60208082526032908201527f4552433732313a207472616e7366657220746f206e6f6e20455243373231526560408201527131b2b4bb32b91034b6b83632b6b2b73a32b960711b606082015260800190565b6001600160a01b038581168252841660208201526040810183905260806060820181905260009061574f908301846145cb565b9695505050505050565b60006020828403121561576b57600080fd5b81516119598161456c565b60008282101561578857615788615334565b500390565b600082198211156157a0576157a0615334565b50019056fea26469706673582212207f381a38988869af808cf19f07063ccf93cb4791d42d4e4b214e84f6f5c9d58664736f6c634300080c0033",
  "linkReferences": {},
  "deployedLinkReferences": {}
}