{
  "_format": "hh-sol-artifact-1",
  "contractName": "GenerativeProject",
  "sourceName": "contracts/nfts/GenerativeProject.sol",
  "abi": [
    {
      "inputs": [
        {
          "internalType": "address",
          "name": "operator",
          "type": "address"
        }
      ],
      "name": "OperatorNotAllowed",
      "type": "error"
    },
    {
      "anonymous": false,
      "inputs": [
        {
          "indexed": true,
          "internalType": "address",
          "name": "owner",
          "type": "address"
        },
        {
          "indexed": true,
          "internalType": "address",
          "name": "approved",
          "type": "address"
        },
        {
          "indexed": true,
          "internalType": "uint256",
          "name": "tokenId",
          "type": "uint256"
        }
      ],
      "name": "Approval",
      "type": "event"
    },
    {
      "anonymous": false,
      "inputs": [
        {
          "indexed": true,
          "internalType": "address",
          "name": "owner",
          "type": "address"
        },
        {
          "indexed": true,
          "internalType": "address",
          "name": "operator",
          "type": "address"
        },
        {
          "indexed": false,
          "internalType": "bool",
          "name": "approved",
          "type": "bool"
        }
      ],
      "name": "ApprovalForAll",
      "type": "event"
    },
    {
      "anonymous": false,
      "inputs": [
        {
          "indexed": false,
          "internalType": "uint8",
          "name": "version",
          "type": "uint8"
        }
      ],
      "name": "Initialized",
      "type": "event"
    },
    {
      "anonymous": false,
      "inputs": [
        {
          "indexed": true,
          "internalType": "address",
          "name": "previousOwner",
          "type": "address"
        },
        {
          "indexed": true,
          "internalType": "address",
          "name": "newOwner",
          "type": "address"
        }
      ],
      "name": "OwnershipTransferred",
      "type": "event"
    },
    {
      "anonymous": false,
      "inputs": [
        {
          "indexed": false,
          "internalType": "address",
          "name": "account",
          "type": "address"
        }
      ],
      "name": "Paused",
      "type": "event"
    },
    {
      "anonymous": false,
      "inputs": [
        {
          "indexed": true,
          "internalType": "address",
          "name": "from",
          "type": "address"
        },
        {
          "indexed": true,
          "internalType": "address",
          "name": "to",
          "type": "address"
        },
        {
          "indexed": true,
          "internalType": "uint256",
          "name": "tokenId",
          "type": "uint256"
        }
      ],
      "name": "Transfer",
      "type": "event"
    },
    {
      "anonymous": false,
      "inputs": [
        {
          "indexed": false,
          "internalType": "address",
          "name": "account",
          "type": "address"
        }
      ],
      "name": "Unpaused",
      "type": "event"
    },
    {
      "inputs": [],
      "name": "_admin",
      "outputs": [
        {
          "internalType": "address",
          "name": "",
          "type": "address"
        }
      ],
      "stateMutability": "view",
      "type": "function"
    },
    {
      "inputs": [],
      "name": "_paramsAddress",
      "outputs": [
        {
          "internalType": "address",
          "name": "",
          "type": "address"
        }
      ],
      "stateMutability": "view",
      "type": "function"
    },
    {
      "inputs": [],
      "name": "_projectDataContextAddr",
      "outputs": [
        {
          "internalType": "address",
          "name": "",
          "type": "address"
        }
      ],
      "stateMutability": "view",
      "type": "function"
    },
    {
      "inputs": [],
      "name": "_randomizerAddr",
      "outputs": [
        {
          "internalType": "address",
          "name": "",
          "type": "address"
        }
      ],
      "stateMutability": "view",
      "type": "function"
    },
    {
      "inputs": [
        {
          "internalType": "uint256",
          "name": "projectId",
          "type": "uint256"
        },
        {
          "internalType": "string",
          "name": "_script",
          "type": "string"
        }
      ],
      "name": "addProjectScript",
      "outputs": [],
      "stateMutability": "nonpayable",
      "type": "function"
    },
    {
      "inputs": [
        {
          "internalType": "address",
          "name": "to",
          "type": "address"
        },
        {
          "internalType": "uint256",
          "name": "tokenId",
          "type": "uint256"
        }
      ],
      "name": "approve",
      "outputs": [],
      "stateMutability": "nonpayable",
      "type": "function"
    },
    {
      "inputs": [
        {
          "internalType": "address",
          "name": "owner",
          "type": "address"
        }
      ],
      "name": "balanceOf",
      "outputs": [
        {
          "internalType": "uint256",
          "name": "",
          "type": "uint256"
        }
      ],
      "stateMutability": "view",
      "type": "function"
    },
    {
      "inputs": [
        {
          "internalType": "address",
          "name": "newAdm",
          "type": "address"
        }
      ],
      "name": "changeAdmin",
      "outputs": [],
      "stateMutability": "nonpayable",
      "type": "function"
    },
    {
      "inputs": [
        {
          "internalType": "address",
          "name": "newAddr",
          "type": "address"
        }
      ],
      "name": "changeDataContextAddr",
      "outputs": [],
      "stateMutability": "nonpayable",
      "type": "function"
    },
    {
      "inputs": [
        {
          "internalType": "address",
          "name": "newAddr",
          "type": "address"
        }
      ],
      "name": "changeParamAddr",
      "outputs": [],
      "stateMutability": "nonpayable",
      "type": "function"
    },
    {
      "inputs": [
        {
          "internalType": "address",
          "name": "newAddr",
          "type": "address"
        }
      ],
      "name": "changeRandomizerAddr",
      "outputs": [],
      "stateMutability": "nonpayable",
      "type": "function"
    },
    {
      "inputs": [
        {
          "internalType": "uint256",
          "name": "projectId",
          "type": "uint256"
        }
      ],
      "name": "completeProject",
      "outputs": [],
      "stateMutability": "nonpayable",
      "type": "function"
    },
    {
      "inputs": [
        {
          "internalType": "uint256",
          "name": "projectId",
          "type": "uint256"
        },
        {
          "internalType": "uint256",
          "name": "scriptIndex",
          "type": "uint256"
        }
      ],
      "name": "deleteProjectScript",
      "outputs": [],
      "stateMutability": "nonpayable",
      "type": "function"
    },
    {
      "inputs": [
        {
          "internalType": "uint256",
          "name": "tokenId",
          "type": "uint256"
        }
      ],
      "name": "getApproved",
      "outputs": [
        {
          "internalType": "address",
          "name": "",
          "type": "address"
        }
      ],
      "stateMutability": "view",
      "type": "function"
    },
    {
      "inputs": [
        {
          "internalType": "string",
          "name": "name",
          "type": "string"
        },
        {
          "internalType": "string",
          "name": "symbol",
          "type": "string"
        },
        {
          "internalType": "address",
          "name": "admin",
          "type": "address"
        },
        {
          "internalType": "address",
          "name": "paramsAddress",
          "type": "address"
        },
        {
          "internalType": "address",
          "name": "randomizerAddr",
          "type": "address"
        },
        {
          "internalType": "address",
          "name": "projectDataContextAddr",
          "type": "address"
        }
      ],
      "name": "initialize",
      "outputs": [],
      "stateMutability": "nonpayable",
      "type": "function"
    },
    {
      "inputs": [
        {
          "internalType": "address",
          "name": "owner",
          "type": "address"
        },
        {
          "internalType": "address",
          "name": "operator",
          "type": "address"
        }
      ],
      "name": "isApprovedForAll",
      "outputs": [
        {
          "internalType": "bool",
          "name": "",
          "type": "bool"
        }
      ],
      "stateMutability": "view",
      "type": "function"
    },
    {
      "inputs": [
        {
          "components": [
            {
              "internalType": "uint24",
              "name": "_maxSupply",
              "type": "uint24"
            },
            {
              "internalType": "uint24",
              "name": "_limit",
              "type": "uint24"
            },
            {
              "internalType": "uint256",
              "name": "_mintPrice",
              "type": "uint256"
            },
            {
              "internalType": "address",
              "name": "_mintPriceAddr",
              "type": "address"
            },
            {
              "internalType": "string",
              "name": "_name",
              "type": "string"
            },
            {
              "internalType": "string",
              "name": "_creator",
              "type": "string"
            },
            {
              "internalType": "address",
              "name": "_creatorAddr",
              "type": "address"
            },
            {
              "internalType": "string",
              "name": "_license",
              "type": "string"
            },
            {
              "internalType": "string",
              "name": "_desc",
              "type": "string"
            },
            {
              "internalType": "string",
              "name": "_image",
              "type": "string"
            },
            {
              "components": [
                {
                  "internalType": "string",
                  "name": "_web",
                  "type": "string"
                },
                {
                  "internalType": "string",
                  "name": "_twitter",
                  "type": "string"
                },
                {
                  "internalType": "string",
                  "name": "_discord",
                  "type": "string"
                },
                {
                  "internalType": "string",
                  "name": "_medium",
                  "type": "string"
                },
                {
                  "internalType": "string",
                  "name": "_instagram",
                  "type": "string"
                }
              ],
              "internalType": "struct NFTProject.ProjectSocial",
              "name": "_social",
              "type": "tuple"
            },
            {
              "internalType": "string[]",
              "name": "_scriptType",
              "type": "string[]"
            },
            {
              "internalType": "string[]",
              "name": "_scripts",
              "type": "string[]"
            },
            {
              "internalType": "string",
              "name": "_styles",
              "type": "string"
            },
            {
              "internalType": "uint256",
              "name": "_completeTime",
              "type": "uint256"
            },
            {
              "internalType": "address",
              "name": "_genNFTAddr",
              "type": "address"
            },
            {
              "internalType": "string",
              "name": "_itemDesc",
              "type": "string"
            }
          ],
          "internalType": "struct NFTProject.Project",
          "name": "project",
          "type": "tuple"
        },
        {
          "internalType": "address[]",
          "name": "reserves",
          "type": "address[]"
        },
        {
          "internalType": "bool",
          "name": "disable",
          "type": "bool"
        },
        {
          "internalType": "uint256",
          "name": "openingTime",
          "type": "uint256"
        }
      ],
      "name": "mint",
      "outputs": [
        {
          "internalType": "uint256",
          "name": "",
          "type": "uint256"
        }
      ],
      "stateMutability": "payable",
      "type": "function"
    },
    {
      "inputs": [],
      "name": "name",
      "outputs": [
        {
          "internalType": "string",
          "name": "",
          "type": "string"
        }
      ],
      "stateMutability": "view",
      "type": "function"
    },
    {
      "inputs": [],
      "name": "owner",
      "outputs": [
        {
          "internalType": "address",
          "name": "",
          "type": "address"
        }
      ],
      "stateMutability": "view",
      "type": "function"
    },
    {
      "inputs": [
        {
          "internalType": "uint256",
          "name": "tokenId",
          "type": "uint256"
        }
      ],
      "name": "ownerOf",
      "outputs": [
        {
          "internalType": "address",
          "name": "",
          "type": "address"
        }
      ],
      "stateMutability": "view",
      "type": "function"
    },
    {
      "inputs": [],
      "name": "paused",
      "outputs": [
        {
          "internalType": "bool",
          "name": "",
          "type": "bool"
        }
      ],
      "stateMutability": "view",
      "type": "function"
    },
    {
      "inputs": [
        {
          "internalType": "uint256",
          "name": "projectId",
          "type": "uint256"
        }
      ],
      "name": "projectDetails",
      "outputs": [
        {
          "components": [
            {
              "internalType": "uint24",
              "name": "_maxSupply",
              "type": "uint24"
            },
            {
              "internalType": "uint24",
              "name": "_limit",
              "type": "uint24"
            },
            {
              "internalType": "uint256",
              "name": "_mintPrice",
              "type": "uint256"
            },
            {
              "internalType": "address",
              "name": "_mintPriceAddr",
              "type": "address"
            },
            {
              "internalType": "string",
              "name": "_name",
              "type": "string"
            },
            {
              "internalType": "string",
              "name": "_creator",
              "type": "string"
            },
            {
              "internalType": "address",
              "name": "_creatorAddr",
              "type": "address"
            },
            {
              "internalType": "string",
              "name": "_license",
              "type": "string"
            },
            {
              "internalType": "string",
              "name": "_desc",
              "type": "string"
            },
            {
              "internalType": "string",
              "name": "_image",
              "type": "string"
            },
            {
              "components": [
                {
                  "internalType": "string",
                  "name": "_web",
                  "type": "string"
                },
                {
                  "internalType": "string",
                  "name": "_twitter",
                  "type": "string"
                },
                {
                  "internalType": "string",
                  "name": "_discord",
                  "type": "string"
                },
                {
                  "internalType": "string",
                  "name": "_medium",
                  "type": "string"
                },
                {
                  "internalType": "string",
                  "name": "_instagram",
                  "type": "string"
                }
              ],
              "internalType": "struct NFTProject.ProjectSocial",
              "name": "_social",
              "type": "tuple"
            },
            {
              "internalType": "string[]",
              "name": "_scriptType",
              "type": "string[]"
            },
            {
              "internalType": "string[]",
              "name": "_scripts",
              "type": "string[]"
            },
            {
              "internalType": "string",
              "name": "_styles",
              "type": "string"
            },
            {
              "internalType": "uint256",
              "name": "_completeTime",
              "type": "uint256"
            },
            {
              "internalType": "address",
              "name": "_genNFTAddr",
              "type": "address"
            },
            {
              "internalType": "string",
              "name": "_itemDesc",
              "type": "string"
            }
          ],
          "internalType": "struct NFTProject.Project",
          "name": "project",
          "type": "tuple"
        }
      ],
      "stateMutability": "view",
      "type": "function"
    },
    {
      "inputs": [
        {
          "internalType": "uint256",
          "name": "projectId",
          "type": "uint256"
        }
      ],
      "name": "projectStatus",
      "outputs": [
        {
          "internalType": "bool",
          "name": "enable",
          "type": "bool"
        }
      ],
      "stateMutability": "view",
      "type": "function"
    },
    {
      "inputs": [],
      "name": "renounceOwnership",
      "outputs": [],
      "stateMutability": "nonpayable",
      "type": "function"
    },
    {
      "inputs": [
        {
          "internalType": "uint256",
          "name": "projectId",
          "type": "uint256"
        },
        {
          "internalType": "uint256",
          "name": "_salePrice",
          "type": "uint256"
        }
      ],
      "name": "royaltyInfo",
      "outputs": [
        {
          "internalType": "address",
          "name": "receiver",
          "type": "address"
        },
        {
          "internalType": "uint256",
          "name": "royaltyAmount",
          "type": "uint256"
        }
      ],
      "stateMutability": "view",
      "type": "function"
    },
    {
      "inputs": [
        {
          "internalType": "address",
          "name": "from",
          "type": "address"
        },
        {
          "internalType": "address",
          "name": "to",
          "type": "address"
        },
        {
          "internalType": "uint256",
          "name": "tokenId",
          "type": "uint256"
        }
      ],
      "name": "safeTransferFrom",
      "outputs": [],
      "stateMutability": "nonpayable",
      "type": "function"
    },
    {
      "inputs": [
        {
          "internalType": "address",
          "name": "from",
          "type": "address"
        },
        {
          "internalType": "address",
          "name": "to",
          "type": "address"
        },
        {
          "internalType": "uint256",
          "name": "tokenId",
          "type": "uint256"
        },
        {
          "internalType": "bytes",
          "name": "data",
          "type": "bytes"
        }
      ],
      "name": "safeTransferFrom",
      "outputs": [],
      "stateMutability": "nonpayable",
      "type": "function"
    },
    {
      "inputs": [
        {
          "internalType": "address",
          "name": "operator",
          "type": "address"
        },
        {
          "internalType": "bool",
          "name": "approved",
          "type": "bool"
        }
      ],
      "name": "setApprovalForAll",
      "outputs": [],
      "stateMutability": "nonpayable",
      "type": "function"
    },
    {
      "inputs": [
        {
          "internalType": "uint256",
          "name": "projectId",
          "type": "uint256"
        },
        {
          "internalType": "bool",
          "name": "enable",
          "type": "bool"
        }
      ],
      "name": "setProjectStatus",
      "outputs": [],
      "stateMutability": "nonpayable",
      "type": "function"
    },
    {
      "inputs": [
        {
          "internalType": "bytes4",
          "name": "interfaceId",
          "type": "bytes4"
        }
      ],
      "name": "supportsInterface",
      "outputs": [
        {
          "internalType": "bool",
          "name": "",
          "type": "bool"
        }
      ],
      "stateMutability": "view",
      "type": "function"
    },
    {
      "inputs": [],
      "name": "symbol",
      "outputs": [
        {
          "internalType": "string",
          "name": "",
          "type": "string"
        }
      ],
      "stateMutability": "view",
      "type": "function"
    },
    {
      "inputs": [
        {
          "internalType": "uint256",
          "name": "projectId",
          "type": "uint256"
        }
      ],
      "name": "tokenURI",
      "outputs": [
        {
          "internalType": "string",
          "name": "result",
          "type": "string"
        }
      ],
      "stateMutability": "view",
      "type": "function"
    },
    {
      "inputs": [
        {
          "internalType": "address",
          "name": "from",
          "type": "address"
        },
        {
          "internalType": "address",
          "name": "to",
          "type": "address"
        },
        {
          "internalType": "uint256",
          "name": "tokenId",
          "type": "uint256"
        }
      ],
      "name": "transferFrom",
      "outputs": [],
      "stateMutability": "nonpayable",
      "type": "function"
    },
    {
      "inputs": [
        {
          "internalType": "address",
          "name": "newOwner",
          "type": "address"
        }
      ],
      "name": "transferOwnership",
      "outputs": [],
      "stateMutability": "nonpayable",
      "type": "function"
    },
    {
      "inputs": [
        {
          "internalType": "uint256",
          "name": "projectId",
          "type": "uint256"
        },
        {
          "internalType": "string",
          "name": "creatorName",
          "type": "string"
        }
      ],
      "name": "updateProjectCreatorName",
      "outputs": [],
      "stateMutability": "nonpayable",
      "type": "function"
    },
    {
      "inputs": [
        {
          "internalType": "uint256",
          "name": "projectId",
          "type": "uint256"
        },
        {
          "internalType": "string",
          "name": "license",
          "type": "string"
        }
      ],
      "name": "updateProjectLicense",
      "outputs": [],
      "stateMutability": "nonpayable",
      "type": "function"
    },
    {
      "inputs": [
        {
          "internalType": "uint256",
          "name": "projectId",
          "type": "uint256"
        },
        {
          "internalType": "string",
          "name": "projectName",
          "type": "string"
        }
      ],
      "name": "updateProjectName",
      "outputs": [],
      "stateMutability": "nonpayable",
      "type": "function"
    },
    {
      "inputs": [
        {
          "internalType": "uint256",
          "name": "projectId",
          "type": "uint256"
        },
        {
          "internalType": "uint256",
          "name": "scriptIndex",
          "type": "uint256"
        },
        {
          "internalType": "string",
          "name": "script",
          "type": "string"
        }
      ],
      "name": "updateProjectScript",
      "outputs": [],
      "stateMutability": "nonpayable",
      "type": "function"
    },
    {
      "inputs": [
        {
          "internalType": "uint256",
          "name": "projectId",
          "type": "uint256"
        },
        {
          "internalType": "string",
          "name": "scriptType",
          "type": "string"
        },
        {
          "internalType": "uint256",
          "name": "i",
          "type": "uint256"
        }
      ],
      "name": "updateProjectScriptType",
      "outputs": [],
      "stateMutability": "nonpayable",
      "type": "function"
    },
    {
      "inputs": [
        {
          "internalType": "address",
          "name": "receiver",
          "type": "address"
        },
        {
          "internalType": "address",
          "name": "erc20Addr",
          "type": "address"
        },
        {
          "internalType": "uint256",
          "name": "amount",
          "type": "uint256"
        }
      ],
      "name": "withdraw",
      "outputs": [],
      "stateMutability": "nonpayable",
      "type": "function"
    }
  ],
  "bytecode": "0x608060405234801561001057600080fd5b50614c09806100206000396000f3fe60806040526004361061023b5760003560e01c806366215eb41161012e578063b1656ba3116100ab578063e283d82f1161006f578063e283d82f146106e3578063e56f2fe414610703578063e985e9c514610723578063f2fde38b1461076c578063febfd6c31461078c57600080fd5b8063b1656ba314610643578063b88d4fde14610663578063c87b56dd14610683578063d9caed12146106a3578063daf61800146106c357600080fd5b80638f283970116100f25780638f283970146105ad57806395d89b41146105cd578063a22cb465146105e2578063acad012414610602578063adfc7dae1461062257600080fd5b806366215eb41461050b57806370a082311461052c578063715018a61461054c5780638da5cb5b146105615780638dd91a561461058057600080fd5b806323b872dd116101bc578063472f1e0211610180578063472f1e021461047257806350ac589214610492578063575b57ea146104b25780635c975abb146104d35780636352211e146104eb57600080fd5b806323b872dd146103b357806325b75d68146103d35780632a55205a146103f35780633af6cd1e1461043257806342842e0e1461045257600080fd5b80630d170673116102035780630d170673146103125780630f9573cf14610332578063166b7469146103535780631ca9741b146103735780632245f1521461039357600080fd5b806301bc45c91461024057806301ffc9a71461027e57806306fdde03146102ae578063081812fc146102d0578063095ea7b3146102f0575b600080fd5b34801561024c57600080fd5b5061015f54610261906001600160a01b031681565b6040516001600160a01b0390911681526020015b60405180910390f35b34801561028a57600080fd5b5061029e610299366004613a6c565b6107ac565b6040519015158152602001610275565b3480156102ba57600080fd5b506102c36107fe565b6040516102759190613ae1565b3480156102dc57600080fd5b506102616102eb366004613af4565b610890565b3480156102fc57600080fd5b5061031061030b366004613b2d565b6108b7565b005b34801561031e57600080fd5b5061031061032d366004613c6f565b6109d2565b610345610340366004613ecf565b610a35565b604051908152602001610275565b34801561035f57600080fd5b5061031061036e366004614139565b610fcd565b34801561037f57600080fd5b5061031061038e36600461415b565b611048565b34801561039f57600080fd5b506103106103ae366004613af4565b6110dc565b3480156103bf57600080fd5b506103106103ce366004614178565b61111b565b3480156103df57600080fd5b506103106103ee366004613c6f565b611271565b3480156103ff57600080fd5b5061041361040e366004614139565b6112d4565b604080516001600160a01b039093168352602083019190915201610275565b34801561043e57600080fd5b5061031061044d3660046141b9565b611305565b34801561045e57600080fd5b5061031061046d366004614178565b6113ed565b34801561047e57600080fd5b5061031061048d36600461415b565b611538565b34801561049e57600080fd5b5061029e6104ad366004613af4565b6115cd565b3480156104be57600080fd5b5061016254610261906001600160a01b031681565b3480156104df57600080fd5b5060975460ff1661029e565b3480156104f757600080fd5b50610261610506366004613af4565b611650565b34801561051757600080fd5b5061016154610261906001600160a01b031681565b34801561053857600080fd5b5061034561054736600461415b565b6116b0565b34801561055857600080fd5b50610310611736565b34801561056d57600080fd5b5061012d546001600160a01b0316610261565b34801561058c57600080fd5b506105a061059b366004613af4565b61174a565b60405161027591906142c0565b3480156105b957600080fd5b506103106105c836600461415b565b61208d565b3480156105d957600080fd5b506102c3612122565b3480156105ee57600080fd5b506103106105fd366004614493565b612131565b34801561060e57600080fd5b5061031061061d366004613c6f565b61213c565b34801561062e57600080fd5b5061016054610261906001600160a01b031681565b34801561064f57600080fd5b5061031061065e3660046144c1565b6121af565b34801561066f57600080fd5b5061031061067e366004614510565b612230565b34801561068f57600080fd5b506102c361069e366004613af4565b612389565b3480156106af57600080fd5b506103106106be366004614178565b612455565b3480156106cf57600080fd5b506103106106de36600461458f565b6125bc565b3480156106ef57600080fd5b506103106106fe366004613c6f565b612620565b34801561070f57600080fd5b5061031061071e3660046145de565b612683565b34801561072f57600080fd5b5061029e61073e36600461468c565b6001600160a01b039182166000908152606a6020908152604080832093909416825291909152205460ff1690565b34801561077857600080fd5b5061031061078736600461415b565b612885565b34801561079857600080fd5b506103106107a736600461415b565b6128fb565b60006001600160e01b031982166380ac58cd60e01b14806107dd57506001600160e01b03198216635b5e139f60e01b145b806107f857506301ffc9a760e01b6001600160e01b03198316145b92915050565b60606065805461080d906146ba565b80601f0160208091040260200160405190810160405280929190818152602001828054610839906146ba565b80156108865780601f1061085b57610100808354040283529160200191610886565b820191906000526020600020905b81548152906001019060200180831161086957829003601f168201915b5050505050905090565b600061089b82612990565b506000908152606960205260409020546001600160a01b031690565b60006108c282611650565b9050806001600160a01b0316836001600160a01b031614156109355760405162461bcd60e51b815260206004820152602160248201527f4552433732313a20617070726f76616c20746f2063757272656e74206f776e656044820152603960f91b60648201526084015b60405180910390fd5b336001600160a01b03821614806109515750610951813361073e565b6109c35760405162461bcd60e51b815260206004820152603d60248201527f4552433732313a20617070726f76652063616c6c6572206973206e6f7420746f60448201527f6b656e206f776e6572206f7220617070726f76656420666f7220616c6c000000606482015260840161092c565b6109cd83836129ef565b505050565b61015f546001600160a01b0316331480610a065750600082815261016460205260409020600501546001600160a01b031633145b610a0f57600080fd5b60008281526101646020908152604090912082516109cd92600390920191840190613834565b6000610a3f612a5d565b600385608001515111610a5157600080fd5b60038560a001515111610a6357600080fd5b845162ffffff16610a7357600080fd5b6000856020015162ffffff16118015610a9e5750846000015162ffffff16856020015162ffffff1611155b610aa757600080fd5b60c08501516001600160a01b0316610abe57600080fd5b6101638054906000610acf8361470b565b9091555050610160546001600160a01b0316610ae9612ab7565b610163546000908152610164602090815260409182902088518154838b015162ffffff90811663010000000265ffffffffffff1990921692169190911717815591880151600183015560608801516002830180546001600160a01b039092166001600160a01b031990921691909117905560808801518051899392610b75926003850192910190613834565b5060a08201518051610b91916004840191602090910190613834565b5060c08201516005820180546001600160a01b0319166001600160a01b0390921691909117905560e08201518051610bd3916006840191602090910190613834565b506101008201518051610bf0916007840191602090910190613834565b506101208201518051610c0d916008840191602090910190613834565b50610140820151805180516009840191610c2c91839160200190613834565b506020828101518051610c459260018501920190613834565b5060408201518051610c61916002840191602090910190613834565b5060608201518051610c7d916003840191602090910190613834565b5060808201518051610c99916004840191602090910190613834565b5050506101608201518051610cb891600e8401916020909101906138b8565b506101808201518051610cd591600f8401916020909101906138b8565b506101a08201518051610cf2916010840191602090910190613834565b506101c082015160118201556101e08201516012820180546001600160a01b0319166001600160a01b039092169190911790556102008201518051610d41916013840191602090910190613834565b50905050610d523361016354612c8c565b60405163bf40fac160e01b815260206004820152601760248201527f47454e455241544956455f4e46545f54454d504c4154450000000000000000006044820152600090610df4906001600160a01b0384169063bf40fac190606401602060405180830381865afa158015610dcb573d6000803e3d6000fd5b505050506040513d601f19601f82011682018060405250810190610def9190614726565b612ca6565b905080610164600061016354815260200190815260200160002060120160006101000a8154816001600160a01b0302191690836001600160a01b031602179055506000819050806001600160a01b031663e42b6ccd604051806101800160405280306001600160a01b031681526020016101635481526020018b6000015162ffffff1681526020018b6020015162ffffff168152602001600062ffffff168152602001600062ffffff1681526020018b60a0015181526020018b60c001516001600160a01b031681526020018b6040015181526020018b606001516001600160a01b031681526020018b6080015181526020016040518060400160405280600081526020018a81525081525061015f60009054906101000a90046001600160a01b031661016060009054906101000a90046001600160a01b031661016160009054906101000a90046001600160a01b031661016260009054906101000a90046001600160a01b03168d8d6040518863ffffffff1660e01b8152600401610f809796959493929190614787565b600060405180830381600087803b158015610f9a57600080fd5b505af1158015610fae573d6000803e3d6000fd5b50505050610163549350505050610fc5600160fb55565b949350505050565b61015f546001600160a01b03163314806110015750600082815261016460205260409020600501546001600160a01b031633145b61100a57600080fd5b600082815261016460205260409020600f0180548290811061102e5761102e614911565b9060005260206000200160006110449190613911565b5050565b61015f546001600160a01b03163314801561106b57506001600160a01b03811615155b6040518060400160405280600381526020016231303160e81b815250906110a55760405162461bcd60e51b815260040161092c9190613ae1565b50610161546001600160a01b038281169116146110d95761016180546001600160a01b0319166001600160a01b0383161790555b50565b600081815261016460205260409020601201546001600160a01b0316331461110357600080fd5b60009081526101646020526040902042601190910155565b826daaeb6d7670e522a718067333cd4e3b15611260576001600160a01b0381163314156111525761114d848484612d47565b61126b565b604051633185c44d60e21b81526daaeb6d7670e522a718067333cd4e9063c6171134906111859030903390600401614927565b602060405180830381865afa1580156111a2573d6000803e3d6000fd5b505050506040513d601f19601f820116820180604052508101906111c69190614941565b80156112415750604051633185c44d60e21b81526daaeb6d7670e522a718067333cd4e9063c6171134906112009030908590600401614927565b602060405180830381865afa15801561121d573d6000803e3d6000fd5b505050506040513d601f19601f820116820180604052508101906112419190614941565b61126057604051633b79c77360e21b815233600482015260240161092c565b61126b848484612d47565b50505050565b61015f546001600160a01b03163314806112a55750600082815261016460205260409020600501546001600160a01b031633145b6112ae57600080fd5b60008281526101646020908152604090912082516109cd92600690920191840190613834565b61015f546001600160a01b031660006127106112f2846101f461495e565b6112fc919061497d565b90509250929050565b6040516328562c4960e11b8152600481018390528115159030906350ac589290602401602060405180830381865afa158015611345573d6000803e3d6000fd5b505050506040513d601f19601f820116820180604052508101906113699190614941565b1515141561137657600080fd5b60008281526101646020526040908190206012015490516317103dbd60e21b815282151560048201526001600160a01b03909116908190635c40f6f490602401600060405180830381600087803b1580156113d057600080fd5b505af11580156113e4573d6000803e3d6000fd5b50505050505050565b826daaeb6d7670e522a718067333cd4e3b1561152d576001600160a01b03811633141561141f5761114d848484612d78565b604051633185c44d60e21b81526daaeb6d7670e522a718067333cd4e9063c6171134906114529030903390600401614927565b602060405180830381865afa15801561146f573d6000803e3d6000fd5b505050506040513d601f19601f820116820180604052508101906114939190614941565b801561150e5750604051633185c44d60e21b81526daaeb6d7670e522a718067333cd4e9063c6171134906114cd9030908590600401614927565b602060405180830381865afa1580156114ea573d6000803e3d6000fd5b505050506040513d601f19601f8201168201806040525081019061150e9190614941565b61152d57604051633b79c77360e21b815233600482015260240161092c565b61126b848484612d78565b61015f546001600160a01b03163314801561155b57506001600160a01b03811615155b6040518060400160405280600381526020016231303160e81b815250906115955760405162461bcd60e51b815260040161092c9190613ae1565b50610162546001600160a01b038281169116146110d95761016280546001600160a01b0383166001600160a01b031990911617905550565b6000818152610164602090815260408083206012015481516302734eab60e51b815291516001600160a01b03909116928392634e69d56092600480830193928290030181865afa158015611625573d6000803e3d6000fd5b505050506040513d601f19601f820116820180604052508101906116499190614941565b9392505050565b6000818152606760205260408120546001600160a01b0316806107f85760405162461bcd60e51b8152602060048201526018602482015277115490cdcc8c4e881a5b9d985b1a59081d1bdad95b88125160421b604482015260640161092c565b60006001600160a01b03821661171a5760405162461bcd60e51b815260206004820152602960248201527f4552433732313a2061646472657373207a65726f206973206e6f7420612076616044820152683634b21037bbb732b960b91b606482015260840161092c565b506001600160a01b031660009081526068602052604090205490565b61173e612d93565b6117486000612dee565b565b61175261394b565b60008281526101646020908152604091829020825161022081018452815462ffffff80821683526301000000909104169281019290925260018101549282019290925260028201546001600160a01b031660608201526003820180549192916080840191906117c0906146ba565b80601f01602080910402602001604051908101604052809291908181526020018280546117ec906146ba565b80156118395780601f1061180e57610100808354040283529160200191611839565b820191906000526020600020905b81548152906001019060200180831161181c57829003601f168201915b50505050508152602001600482018054611852906146ba565b80601f016020809104026020016040519081016040528092919081815260200182805461187e906146ba565b80156118cb5780601f106118a0576101008083540402835291602001916118cb565b820191906000526020600020905b8154815290600101906020018083116118ae57829003601f168201915b505050918352505060058201546001600160a01b031660208201526006820180546040909201916118fb906146ba565b80601f0160208091040260200160405190810160405280929190818152602001828054611927906146ba565b80156119745780601f1061194957610100808354040283529160200191611974565b820191906000526020600020905b81548152906001019060200180831161195757829003601f168201915b5050505050815260200160078201805461198d906146ba565b80601f01602080910402602001604051908101604052809291908181526020018280546119b9906146ba565b8015611a065780601f106119db57610100808354040283529160200191611a06565b820191906000526020600020905b8154815290600101906020018083116119e957829003601f168201915b50505050508152602001600882018054611a1f906146ba565b80601f0160208091040260200160405190810160405280929190818152602001828054611a4b906146ba565b8015611a985780601f10611a6d57610100808354040283529160200191611a98565b820191906000526020600020905b815481529060010190602001808311611a7b57829003601f168201915b50505050508152602001600982016040518060a0016040529081600082018054611ac1906146ba565b80601f0160208091040260200160405190810160405280929190818152602001828054611aed906146ba565b8015611b3a5780601f10611b0f57610100808354040283529160200191611b3a565b820191906000526020600020905b815481529060010190602001808311611b1d57829003601f168201915b50505050508152602001600182018054611b53906146ba565b80601f0160208091040260200160405190810160405280929190818152602001828054611b7f906146ba565b8015611bcc5780601f10611ba157610100808354040283529160200191611bcc565b820191906000526020600020905b815481529060010190602001808311611baf57829003601f168201915b50505050508152602001600282018054611be5906146ba565b80601f0160208091040260200160405190810160405280929190818152602001828054611c11906146ba565b8015611c5e5780601f10611c3357610100808354040283529160200191611c5e565b820191906000526020600020905b815481529060010190602001808311611c4157829003601f168201915b50505050508152602001600382018054611c77906146ba565b80601f0160208091040260200160405190810160405280929190818152602001828054611ca3906146ba565b8015611cf05780601f10611cc557610100808354040283529160200191611cf0565b820191906000526020600020905b815481529060010190602001808311611cd357829003601f168201915b50505050508152602001600482018054611d09906146ba565b80601f0160208091040260200160405190810160405280929190818152602001828054611d35906146ba565b8015611d825780601f10611d5757610100808354040283529160200191611d82565b820191906000526020600020905b815481529060010190602001808311611d6557829003601f168201915b5050505050815250508152602001600e8201805480602002602001604051908101604052809291908181526020016000905b82821015611e60578382906000526020600020018054611dd3906146ba565b80601f0160208091040260200160405190810160405280929190818152602001828054611dff906146ba565b8015611e4c5780601f10611e2157610100808354040283529160200191611e4c565b820191906000526020600020905b815481529060010190602001808311611e2f57829003601f168201915b505050505081526020019060010190611db4565b505050508152602001600f8201805480602002602001604051908101604052809291908181526020016000905b82821015611f39578382906000526020600020018054611eac906146ba565b80601f0160208091040260200160405190810160405280929190818152602001828054611ed8906146ba565b8015611f255780601f10611efa57610100808354040283529160200191611f25565b820191906000526020600020905b815481529060010190602001808311611f0857829003601f168201915b505050505081526020019060010190611e8d565b505050508152602001601082018054611f51906146ba565b80601f0160208091040260200160405190810160405280929190818152602001828054611f7d906146ba565b8015611fca5780601f10611f9f57610100808354040283529160200191611fca565b820191906000526020600020905b815481529060010190602001808311611fad57829003601f168201915b50505091835250506011820154602082015260128201546001600160a01b03166040820152601382018054606090920191612004906146ba565b80601f0160208091040260200160405190810160405280929190818152602001828054612030906146ba565b801561207d5780601f106120525761010080835404028352916020019161207d565b820191906000526020600020905b81548152906001019060200180831161206057829003601f168201915b5050505050815250509050919050565b61015f546001600160a01b0316331480156120b057506001600160a01b03811615155b6040518060400160405280600381526020016231303160e81b815250906120ea5760405162461bcd60e51b815260040161092c9190613ae1565b5061015f546001600160a01b038281169116146110d95761015f80546001600160a01b0383166001600160a01b031990911617905550565b60606066805461080d906146ba565b611044338383612e41565b61015f546001600160a01b03163314806121705750600082815261016460205260409020600501546001600160a01b031633145b61217957600080fd5b6000828152610164602090815260408220600f0180546001810182559083529181902083516109cd939190910191840190613834565b61015f546001600160a01b03163314806121e35750600083815261016460205260409020600501546001600160a01b031633145b6121ec57600080fd5b600083815261016460205260409020600f0180548291908490811061221357612213614911565b90600052602060002001908051906020019061126b929190613834565b836daaeb6d7670e522a718067333cd4e3b15612376576001600160a01b0381163314156122685761226385858585612f10565b612382565b604051633185c44d60e21b81526daaeb6d7670e522a718067333cd4e9063c61711349061229b9030903390600401614927565b602060405180830381865afa1580156122b8573d6000803e3d6000fd5b505050506040513d601f19601f820116820180604052508101906122dc9190614941565b80156123575750604051633185c44d60e21b81526daaeb6d7670e522a718067333cd4e9063c6171134906123169030908590600401614927565b602060405180830381865afa158015612333573d6000803e3d6000fd5b505050506040513d601f19601f820116820180604052508101906123579190614941565b61237657604051633b79c77360e21b815233600482015260240161092c565b61238285858585612f10565b5050505050565b6000818152606760205260409020546060906001600160a01b031615156040518060400160405280600381526020016232303960e81b815250906123e05760405162461bcd60e51b815260040161092c9190613ae1565b506101625460405163079ebc6f60e41b8152600481018490526001600160a01b039091169081906379ebc6f090602401600060405180830381865afa15801561242d573d6000803e3d6000fd5b505050506040513d6000823e601f3d908101601f19168201604052611649919081019061499f565b61245d612a5d565b61015f546001600160a01b0316336001600160a01b0316146040518060400160405280600381526020016231303160e81b815250906124af5760405162461bcd60e51b815260040161092c9190613ae1565b5060006001600160a01b03831661253057814710156124cd57600080fd5b6040516001600160a01b038516908390600081818185875af1925050503d8060008114612516576040519150601f19603f3d011682016040523d82523d6000602084013e61251b565b606091505b5050809150508061252b57600080fd5b6125b1565b60405163a9059cbb60e01b81526001600160a01b0385811660048301526024820184905284919082169063a9059cbb906044016020604051808303816000875af1158015612582573d6000803e3d6000fd5b505050506040513d601f19601f820116820180604052508101906125a69190614941565b6125af57600080fd5b505b506109cd600160fb55565b61015f546001600160a01b03163314806125f05750600083815261016460205260409020600501546001600160a01b031633145b6125f957600080fd5b600083815261016460205260409020600e0180548391908390811061221357612213614911565b61015f546001600160a01b03163314806126545750600082815261016460205260409020600501546001600160a01b031633145b61265d57600080fd5b60008281526101646020908152604090912082516109cd92600490920191840190613834565b600054610100900460ff16158080156126a35750600054600160ff909116105b806126bd5750303b1580156126bd575060005460ff166001145b6127205760405162461bcd60e51b815260206004820152602e60248201527f496e697469616c697a61626c653a20636f6e747261637420697320616c72656160448201526d191e481a5b9a5d1a585b1a5e995960921b606482015260840161092c565b6000805460ff191660011790558015612743576000805461ff0019166101001790555b60408051808201909152600381526203130360ec1b60208201526001600160a01b0386166127845760405162461bcd60e51b815260040161092c9190613ae1565b5060408051808201909152600381526203130360ec1b60208201526001600160a01b0385166127c65760405162461bcd60e51b815260040161092c9190613ae1565b5061016080546001600160a01b038087166001600160a01b03199283161790925561015f8054888416908316179055610161805486841690831617905561016280549285169290911691909117905561281f8787612f42565b612827612f73565b61282f612fa2565b612837612fd1565b80156113e4576000805461ff0019169055604051600181527f7f26b83ff96e1f2b6a682f133852f6798a09c465da95921460cefb38474024989060200160405180910390a150505050505050565b61288d612d93565b6001600160a01b0381166128f25760405162461bcd60e51b815260206004820152602660248201527f4f776e61626c653a206e6577206f776e657220697320746865207a65726f206160448201526564647265737360d01b606482015260840161092c565b6110d981612dee565b61015f546001600160a01b03163314801561291e57506001600160a01b03811615155b6040518060400160405280600381526020016231303160e81b815250906129585760405162461bcd60e51b815260040161092c9190613ae1565b50610160546001600160a01b038281169116146110d95761016080546001600160a01b0383166001600160a01b031990911617905550565b6000818152606760205260409020546001600160a01b03166110d95760405162461bcd60e51b8152602060048201526018602482015277115490cdcc8c4e881a5b9d985b1a59081d1bdad95b88125160421b604482015260640161092c565b600081815260696020526040902080546001600160a01b0319166001600160a01b0384169081179091558190612a2482611650565b6001600160a01b03167f8c5be1e5ebec7d5bd14f71427d1e84f3dd0314c0f7b2291e5b200ac8c7c3b92560405160405180910390a45050565b600260fb541415612ab05760405162461bcd60e51b815260206004820152601f60248201527f5265656e7472616e637947756172643a207265656e7472616e742063616c6c00604482015260640161092c565b600260fb55565b61015f546001600160a01b031633146117485761016054604051636d12dce160e01b81526020600482015260126024820152714352454154455f50524f4a4543545f46454560701b60448201526001600160a01b03909116906000908290636d12dce190606401602060405180830381865afa158015612b3b573d6000803e3d6000fd5b505050506040513d601f19601f82011682018060405250810190612b5f9190614a0c565b905080156110445760405163bf40fac160e01b81526020600482015260096024820152682322a2afaa27a5a2a760b91b60448201526000906001600160a01b0384169063bf40fac190606401602060405180830381865afa158015612bc8573d6000803e3d6000fd5b505050506040513d601f19601f82011682018060405250810190612bec9190614726565b90506001600160a01b03811615612c7f576040516323b872dd60e01b81523360048201523060248201526044810183905281906001600160a01b038216906323b872dd906064016020604051808303816000875af1158015612c52573d6000803e3d6000fd5b505050506040513d601f19601f82011682018060405250810190612c769190614941565b61126b57600080fd5b813410156109cd57600080fd5b611044828260405180602001604052806000815250613017565b6000763d602d80600a3d3981f3363d3d373d3d3d363d730000008260601b60e81c176000526e5af43d82803e903d91602b57fd5bf38260781b17602052603760096000f090506001600160a01b038116612d3b5760405162461bcd60e51b8152602060048201526016602482015275115490cc4c4d8dce8818dc99585d194819985a5b195960521b604482015260640161092c565b919050565b600160fb55565b612d51338261304a565b612d6d5760405162461bcd60e51b815260040161092c90614a25565b6109cd8383836130c8565b6109cd83838360405180602001604052806000815250612230565b61012d546001600160a01b031633146117485760405162461bcd60e51b815260206004820181905260248201527f4f776e61626c653a2063616c6c6572206973206e6f7420746865206f776e6572604482015260640161092c565b61012d80546001600160a01b038381166001600160a01b0319831681179093556040519116919082907f8be0079c531659141344cd1fd0a4f28419497f9722a3daafe3b4186f6b6457e090600090a35050565b816001600160a01b0316836001600160a01b03161415612ea35760405162461bcd60e51b815260206004820152601960248201527f4552433732313a20617070726f766520746f2063616c6c657200000000000000604482015260640161092c565b6001600160a01b038381166000818152606a6020908152604080832094871680845294825291829020805460ff191686151590811790915591519182527f17307eab39ab6107e8899845ad3d59bd9653f200f220920489ca2b5937696c31910160405180910390a3505050565b612f1a338361304a565b612f365760405162461bcd60e51b815260040161092c90614a25565b61126b84848484613239565b600054610100900460ff16612f695760405162461bcd60e51b815260040161092c90614a72565b611044828261326c565b600054610100900460ff16612f9a5760405162461bcd60e51b815260040161092c90614a72565b6117486132ba565b600054610100900460ff16612fc95760405162461bcd60e51b815260040161092c90614a72565b6117486132e1565b600054610100900460ff16612ff85760405162461bcd60e51b815260040161092c90614a72565b611748733cc6cdda760b79bafa08df41ecfa224f810dceb66001613314565b61302183836134a5565b61302e600084848461363e565b6109cd5760405162461bcd60e51b815260040161092c90614abd565b60008061305683611650565b9050806001600160a01b0316846001600160a01b0316148061309d57506001600160a01b038082166000908152606a602090815260408083209388168352929052205460ff165b80610fc55750836001600160a01b03166130b684610890565b6001600160a01b031614949350505050565b826001600160a01b03166130db82611650565b6001600160a01b0316146131015760405162461bcd60e51b815260040161092c90614b0f565b6001600160a01b0382166131635760405162461bcd60e51b8152602060048201526024808201527f4552433732313a207472616e7366657220746f20746865207a65726f206164646044820152637265737360e01b606482015260840161092c565b6131708383836001613739565b826001600160a01b031661318382611650565b6001600160a01b0316146131a95760405162461bcd60e51b815260040161092c90614b0f565b600081815260696020908152604080832080546001600160a01b03199081169091556001600160a01b0387811680865260688552838620805460001901905590871680865283862080546001019055868652606790945282852080549092168417909155905184937fddf252ad1be2c89b69c2b068fc378daa952ba7f163c4a11628f55a4df523b3ef91a4505050565b6132448484846130c8565b6132508484848461363e565b61126b5760405162461bcd60e51b815260040161092c90614abd565b600054610100900460ff166132935760405162461bcd60e51b815260040161092c90614a72565b81516132a6906065906020850190613834565b5080516109cd906066906020840190613834565b600054610100900460ff16612d405760405162461bcd60e51b815260040161092c90614a72565b600054610100900460ff166133085760405162461bcd60e51b815260040161092c90614a72565b6097805460ff19169055565b600054610100900460ff1661333b5760405162461bcd60e51b815260040161092c90614a72565b6daaeb6d7670e522a718067333cd4e3b156110445760405163c3c5a54760e01b81523060048201526daaeb6d7670e522a718067333cd4e9063c3c5a547906024016020604051808303816000875af115801561339b573d6000803e3d6000fd5b505050506040513d601f19601f820116820180604052508101906133bf9190614941565b61104457801561343257604051633e9f1edf60e11b81526daaeb6d7670e522a718067333cd4e90637d3e3dbe906133fc9030908690600401614927565b600060405180830381600087803b15801561341657600080fd5b505af115801561342a573d6000803e3d6000fd5b505050505050565b6001600160a01b038216156134745760405163a0af290360e01b81526daaeb6d7670e522a718067333cd4e9063a0af2903906133fc9030908690600401614927565b604051632210724360e11b81523060048201526daaeb6d7670e522a718067333cd4e90634420e486906024016133fc565b6001600160a01b0382166134fb5760405162461bcd60e51b815260206004820181905260248201527f4552433732313a206d696e7420746f20746865207a65726f2061646472657373604482015260640161092c565b6000818152606760205260409020546001600160a01b0316156135605760405162461bcd60e51b815260206004820152601c60248201527f4552433732313a20746f6b656e20616c7265616479206d696e74656400000000604482015260640161092c565b61356e600083836001613739565b6000818152606760205260409020546001600160a01b0316156135d35760405162461bcd60e51b815260206004820152601c60248201527f4552433732313a20746f6b656e20616c7265616479206d696e74656400000000604482015260640161092c565b6001600160a01b038216600081815260686020908152604080832080546001019055848352606790915280822080546001600160a01b0319168417905551839291907fddf252ad1be2c89b69c2b068fc378daa952ba7f163c4a11628f55a4df523b3ef908290a45050565b60006001600160a01b0384163b1561373157604051630a85bd0160e11b81526001600160a01b0385169063150b7a0290613682903390899088908890600401614b54565b6020604051808303816000875af19250505080156136bd575060408051601f3d908101601f191682019092526136ba91810190614b87565b60015b613717573d8080156136eb576040519150601f19603f3d011682016040523d82523d6000602084013e6136f0565b606091505b50805161370f5760405162461bcd60e51b815260040161092c90614abd565b805181602001fd5b6001600160e01b031916630a85bd0160e11b149050610fc5565b506001610fc5565b613745848484846137ac565b60975460ff161561126b5760405162461bcd60e51b815260206004820152602b60248201527f4552433732315061757361626c653a20746f6b656e207472616e73666572207760448201526a1a1a5b19481c185d5cd95960aa1b606482015260840161092c565b600181111561126b576001600160a01b038416156137f2576001600160a01b038416600090815260686020526040812080548392906137ec908490614ba4565b90915550505b6001600160a01b0383161561126b576001600160a01b03831660009081526068602052604081208054839290613829908490614bbb565b909155505050505050565b828054613840906146ba565b90600052602060002090601f01602090048101928261386257600085556138a8565b82601f1061387b57805160ff19168380011785556138a8565b828001600101855582156138a8579182015b828111156138a857825182559160200191906001019061388d565b506138b4929150613a24565b5090565b828054828255906000526020600020908101928215613905579160200282015b8281111561390557825180516138f5918491602090910190613834565b50916020019190600101906138d8565b506138b4929150613a39565b50805461391d906146ba565b6000825580601f1061392d575050565b601f0160209004906000526020600020908101906110d99190613a24565b604051806102200160405280600062ffffff168152602001600062ffffff1681526020016000815260200160006001600160a01b03168152602001606081526020016060815260200160006001600160a01b031681526020016060815260200160608152602001606081526020016139eb6040518060a0016040528060608152602001606081526020016060815260200160608152602001606081525090565b81526020016060815260200160608152602001606081526020016000815260200160006001600160a01b03168152602001606081525090565b5b808211156138b45760008155600101613a25565b808211156138b4576000613a4d8282613911565b50600101613a39565b6001600160e01b0319811681146110d957600080fd5b600060208284031215613a7e57600080fd5b813561164981613a56565b60005b83811015613aa4578181015183820152602001613a8c565b8381111561126b5750506000910152565b60008151808452613acd816020860160208601613a89565b601f01601f19169290920160200192915050565b6020815260006116496020830184613ab5565b600060208284031215613b0657600080fd5b5035919050565b6001600160a01b03811681146110d957600080fd5b8035612d3b81613b0d565b60008060408385031215613b4057600080fd5b8235613b4b81613b0d565b946020939093013593505050565b634e487b7160e01b600052604160045260246000fd5b60405160a081016001600160401b0381118282101715613b9157613b91613b59565b60405290565b60405161022081016001600160401b0381118282101715613b9157613b91613b59565b604051601f8201601f191681016001600160401b0381118282101715613be257613be2613b59565b604052919050565b60006001600160401b03821115613c0357613c03613b59565b50601f01601f191660200190565b6000613c24613c1f84613bea565b613bba565b9050828152838383011115613c3857600080fd5b828260208301376000602084830101529392505050565b600082601f830112613c6057600080fd5b61164983833560208501613c11565b60008060408385031215613c8257600080fd5b8235915060208301356001600160401b03811115613c9f57600080fd5b613cab85828601613c4f565b9150509250929050565b803562ffffff81168114612d3b57600080fd5b600060a08284031215613cda57600080fd5b613ce2613b6f565b905081356001600160401b0380821115613cfb57600080fd5b613d0785838601613c4f565b83526020840135915080821115613d1d57600080fd5b613d2985838601613c4f565b60208401526040840135915080821115613d4257600080fd5b613d4e85838601613c4f565b60408401526060840135915080821115613d6757600080fd5b613d7385838601613c4f565b60608401526080840135915080821115613d8c57600080fd5b50613d9984828501613c4f565b60808301525092915050565b60006001600160401b03821115613dbe57613dbe613b59565b5060051b60200190565b600082601f830112613dd957600080fd5b81356020613de9613c1f83613da5565b82815260059290921b84018101918181019086841115613e0857600080fd5b8286015b84811015613e475780356001600160401b03811115613e2b5760008081fd5b613e398986838b0101613c4f565b845250918301918301613e0c565b509695505050505050565b600082601f830112613e6357600080fd5b81356020613e73613c1f83613da5565b82815260059290921b84018101918181019086841115613e9257600080fd5b8286015b84811015613e47578035613ea981613b0d565b8352918301918301613e96565b80151581146110d957600080fd5b8035612d3b81613eb6565b60008060008060808587031215613ee557600080fd5b84356001600160401b0380821115613efc57600080fd5b908601906102208289031215613f1157600080fd5b613f19613b97565b613f2283613cb5565b8152613f3060208401613cb5565b602082015260408301356040820152613f4b60608401613b22565b6060820152608083013582811115613f6257600080fd5b613f6e8a828601613c4f565b60808301525060a083013582811115613f8657600080fd5b613f928a828601613c4f565b60a083015250613fa460c08401613b22565b60c082015260e083013582811115613fbb57600080fd5b613fc78a828601613c4f565b60e0830152506101008084013583811115613fe157600080fd5b613fed8b828701613c4f565b828401525050610120808401358381111561400757600080fd5b6140138b828701613c4f565b828401525050610140808401358381111561402d57600080fd5b6140398b828701613cc8565b828401525050610160808401358381111561405357600080fd5b61405f8b828701613dc8565b828401525050610180808401358381111561407957600080fd5b6140858b828701613dc8565b8284015250506101a0808401358381111561409f57600080fd5b6140ab8b828701613c4f565b8284015250506101c08084013581830152506101e06140cb818501613b22565b9082015261020083810135838111156140e357600080fd5b6140ef8b828701613c4f565b82840152505080965050602087013591508082111561410d57600080fd5b5061411a87828801613e52565b93505061412960408601613ec4565b9396929550929360600135925050565b6000806040838503121561414c57600080fd5b50508035926020909101359150565b60006020828403121561416d57600080fd5b813561164981613b0d565b60008060006060848603121561418d57600080fd5b833561419881613b0d565b925060208401356141a881613b0d565b929592945050506040919091013590565b600080604083850312156141cc57600080fd5b8235915060208301356141de81613eb6565b809150509250929050565b6000815160a084526141fe60a0850182613ab5565b9050602083015184820360208601526142178282613ab5565b915050604083015184820360408601526142318282613ab5565b9150506060830151848203606086015261424b8282613ab5565b915050608083015184820360808601526142658282613ab5565b95945050505050565b6000815180845260208085019450848260051b860182860160005b858110156142b35783830389526142a1838351613ab5565b98850198925090840190600101614289565b5090979650505050505050565b602081526142d660208201835162ffffff169052565b600060208301516142ee604084018262ffffff169052565b5060408301516060830152606083015161431360808401826001600160a01b03169052565b5060808301516102208060a0850152614330610240850183613ab5565b915060a0850151601f19808685030160c087015261434e8483613ab5565b935060c0870151915061436c60e08701836001600160a01b03169052565b60e087015191506101008187860301818801526143898584613ab5565b9450808801519250506101208187860301818801526143a88584613ab5565b9450808801519250506101408187860301818801526143c78584613ab5565b9450808801519250506101608187860301818801526143e685846141e9565b945080880151925050610180818786030181880152614405858461426e565b9450808801519250506101a0818786030181880152614424858461426e565b9450808801519250506101c08187860301818801526144438584613ab5565b908801516101e0888101919091528801519094509150610200614470818801846001600160a01b03169052565b8701518685039091018387015290506144898382613ab5565b9695505050505050565b600080604083850312156144a657600080fd5b82356144b181613b0d565b915060208301356141de81613eb6565b6000806000606084860312156144d657600080fd5b833592506020840135915060408401356001600160401b038111156144fa57600080fd5b61450686828701613c4f565b9150509250925092565b6000806000806080858703121561452657600080fd5b843561453181613b0d565b9350602085013561454181613b0d565b92506040850135915060608501356001600160401b0381111561456357600080fd5b8501601f8101871361457457600080fd5b61458387823560208401613c11565b91505092959194509250565b6000806000606084860312156145a457600080fd5b8335925060208401356001600160401b038111156145c157600080fd5b6145cd86828701613c4f565b925050604084013590509250925092565b60008060008060008060c087890312156145f757600080fd5b86356001600160401b038082111561460e57600080fd5b61461a8a838b01613c4f565b9750602089013591508082111561463057600080fd5b5061463d89828a01613c4f565b955050604087013561464e81613b0d565b9350606087013561465e81613b0d565b9250608087013561466e81613b0d565b915060a087013561467e81613b0d565b809150509295509295509295565b6000806040838503121561469f57600080fd5b82356146aa81613b0d565b915060208301356141de81613b0d565b600181811c908216806146ce57607f821691505b602082108114156146ef57634e487b7160e01b600052602260045260246000fd5b50919050565b634e487b7160e01b600052601160045260246000fd5b600060001982141561471f5761471f6146f5565b5060010190565b60006020828403121561473857600080fd5b815161164981613b0d565b600081518084526020808501945080840160005b8381101561477c5781516001600160a01b031687529582019590820190600101614757565b509495945050505050565b60e081526147a160e0820189516001600160a01b03169052565b60006020890151610100818185015260408b015191506101206147ca8186018462ffffff169052565b60608c015192506101406147e48187018562ffffff169052565b60808d015193506101606147fe8188018662ffffff169052565b60a08e015162ffffff1661018088015260c08e01516101a080890152945061482a610280880186613ab5565b945060e08e01516148476101c08901826001600160a01b03169052565b50928d01516101e0870152818d01516001600160a01b0316610200870152808d015160df1987860301610220880152926148818585613ab5565b908e01518051610240890152602081015161026089015290945092506148a5915050565b506001600160a01b03891660208401526001600160a01b03881660408401526001600160a01b03871660608401526001600160a01b038616608084015282810360a08401526148f48186614743565b91505061490560c083018415159052565b98975050505050505050565b634e487b7160e01b600052603260045260246000fd5b6001600160a01b0392831681529116602082015260400190565b60006020828403121561495357600080fd5b815161164981613eb6565b6000816000190483118215151615614978576149786146f5565b500290565b60008261499a57634e487b7160e01b600052601260045260246000fd5b500490565b6000602082840312156149b157600080fd5b81516001600160401b038111156149c757600080fd5b8201601f810184136149d857600080fd5b80516149e6613c1f82613bea565b8181528560208385010111156149fb57600080fd5b614265826020830160208601613a89565b600060208284031215614a1e57600080fd5b5051919050565b6020808252602d908201527f4552433732313a2063616c6c6572206973206e6f7420746f6b656e206f776e6560408201526c1c881bdc88185c1c1c9bdd9959609a1b606082015260800190565b6020808252602b908201527f496e697469616c697a61626c653a20636f6e7472616374206973206e6f74206960408201526a6e697469616c697a696e6760a81b606082015260800190565b60208082526032908201527f4552433732313a207472616e7366657220746f206e6f6e20455243373231526560408201527131b2b4bb32b91034b6b83632b6b2b73a32b960711b606082015260800190565b60208082526025908201527f4552433732313a207472616e736665722066726f6d20696e636f72726563742060408201526437bbb732b960d91b606082015260800190565b6001600160a01b038581168252841660208201526040810183905260806060820181905260009061448990830184613ab5565b600060208284031215614b9957600080fd5b815161164981613a56565b600082821015614bb657614bb66146f5565b500390565b60008219821115614bce57614bce6146f5565b50019056fea26469706673582212200a1f5529e57c43c2071a4e2492284376104795fcf6bdf0a896cf7b59f5e99ca264736f6c634300080c0033",
  "linkReferences": {},
  "deployedLinkReferences": {}
}