{
  "_format": "hh-sol-artifact-1",
  "contractName": "GenerativeProject",
  "sourceName": "contracts/nfts/GenerativeProject.sol",
  "abi": [
    {
      "inputs": [
        {
          "internalType": "address",
          "name": "operator",
          "type": "address"
        }
      ],
      "name": "OperatorNotAllowed",
      "type": "error"
    },
    {
      "anonymous": false,
      "inputs": [
        {
          "indexed": true,
          "internalType": "address",
          "name": "owner",
          "type": "address"
        },
        {
          "indexed": true,
          "internalType": "address",
          "name": "approved",
          "type": "address"
        },
        {
          "indexed": true,
          "internalType": "uint256",
          "name": "tokenId",
          "type": "uint256"
        }
      ],
      "name": "Approval",
      "type": "event"
    },
    {
      "anonymous": false,
      "inputs": [
        {
          "indexed": true,
          "internalType": "address",
          "name": "owner",
          "type": "address"
        },
        {
          "indexed": true,
          "internalType": "address",
          "name": "operator",
          "type": "address"
        },
        {
          "indexed": false,
          "internalType": "bool",
          "name": "approved",
          "type": "bool"
        }
      ],
      "name": "ApprovalForAll",
      "type": "event"
    },
    {
      "anonymous": false,
      "inputs": [
        {
          "indexed": false,
          "internalType": "uint8",
          "name": "version",
          "type": "uint8"
        }
      ],
      "name": "Initialized",
      "type": "event"
    },
    {
      "anonymous": false,
      "inputs": [
        {
          "indexed": true,
          "internalType": "address",
          "name": "previousOwner",
          "type": "address"
        },
        {
          "indexed": true,
          "internalType": "address",
          "name": "newOwner",
          "type": "address"
        }
      ],
      "name": "OwnershipTransferred",
      "type": "event"
    },
    {
      "anonymous": false,
      "inputs": [
        {
          "indexed": false,
          "internalType": "address",
          "name": "account",
          "type": "address"
        }
      ],
      "name": "Paused",
      "type": "event"
    },
    {
      "anonymous": false,
      "inputs": [
        {
          "indexed": true,
          "internalType": "address",
          "name": "from",
          "type": "address"
        },
        {
          "indexed": true,
          "internalType": "address",
          "name": "to",
          "type": "address"
        },
        {
          "indexed": true,
          "internalType": "uint256",
          "name": "tokenId",
          "type": "uint256"
        }
      ],
      "name": "Transfer",
      "type": "event"
    },
    {
      "anonymous": false,
      "inputs": [
        {
          "indexed": false,
          "internalType": "address",
          "name": "account",
          "type": "address"
        }
      ],
      "name": "Unpaused",
      "type": "event"
    },
    {
      "inputs": [],
      "name": "_admin",
      "outputs": [
        {
          "internalType": "address",
          "name": "",
          "type": "address"
        }
      ],
      "stateMutability": "view",
      "type": "function"
    },
    {
      "inputs": [],
      "name": "_paramsAddress",
      "outputs": [
        {
          "internalType": "address",
          "name": "",
          "type": "address"
        }
      ],
      "stateMutability": "view",
      "type": "function"
    },
    {
      "inputs": [],
      "name": "_projectDataContextAddr",
      "outputs": [
        {
          "internalType": "address",
          "name": "",
          "type": "address"
        }
      ],
      "stateMutability": "view",
      "type": "function"
    },
    {
      "inputs": [],
      "name": "_randomizerAddr",
      "outputs": [
        {
          "internalType": "address",
          "name": "",
          "type": "address"
        }
      ],
      "stateMutability": "view",
      "type": "function"
    },
    {
      "inputs": [
        {
          "internalType": "uint256",
          "name": "projectId",
          "type": "uint256"
        },
        {
          "internalType": "string",
          "name": "_script",
          "type": "string"
        }
      ],
      "name": "addProjectScript",
      "outputs": [],
      "stateMutability": "nonpayable",
      "type": "function"
    },
    {
      "inputs": [
        {
          "internalType": "address",
          "name": "to",
          "type": "address"
        },
        {
          "internalType": "uint256",
          "name": "tokenId",
          "type": "uint256"
        }
      ],
      "name": "approve",
      "outputs": [],
      "stateMutability": "nonpayable",
      "type": "function"
    },
    {
      "inputs": [
        {
          "internalType": "address",
          "name": "owner",
          "type": "address"
        }
      ],
      "name": "balanceOf",
      "outputs": [
        {
          "internalType": "uint256",
          "name": "",
          "type": "uint256"
        }
      ],
      "stateMutability": "view",
      "type": "function"
    },
    {
      "inputs": [
        {
          "internalType": "address",
          "name": "newAdm",
          "type": "address"
        }
      ],
      "name": "changeAdmin",
      "outputs": [],
      "stateMutability": "nonpayable",
      "type": "function"
    },
    {
      "inputs": [
        {
          "internalType": "address",
          "name": "newAddr",
          "type": "address"
        }
      ],
      "name": "changeDataContextAddr",
      "outputs": [],
      "stateMutability": "nonpayable",
      "type": "function"
    },
    {
      "inputs": [
        {
          "internalType": "address",
          "name": "newAddr",
          "type": "address"
        }
      ],
      "name": "changeParamAddr",
      "outputs": [],
      "stateMutability": "nonpayable",
      "type": "function"
    },
    {
      "inputs": [
        {
          "internalType": "address",
          "name": "newAddr",
          "type": "address"
        }
      ],
      "name": "changeRandomizerAddr",
      "outputs": [],
      "stateMutability": "nonpayable",
      "type": "function"
    },
    {
      "inputs": [
        {
          "internalType": "uint256",
          "name": "projectId",
          "type": "uint256"
        }
      ],
      "name": "completeProject",
      "outputs": [],
      "stateMutability": "nonpayable",
      "type": "function"
    },
    {
      "inputs": [
        {
          "internalType": "uint256",
          "name": "projectId",
          "type": "uint256"
        },
        {
          "internalType": "uint256",
          "name": "scriptIndex",
          "type": "uint256"
        }
      ],
      "name": "deleteProjectScript",
      "outputs": [],
      "stateMutability": "nonpayable",
      "type": "function"
    },
    {
      "inputs": [
        {
          "internalType": "uint256",
          "name": "tokenId",
          "type": "uint256"
        }
      ],
      "name": "getApproved",
      "outputs": [
        {
          "internalType": "address",
          "name": "",
          "type": "address"
        }
      ],
      "stateMutability": "view",
      "type": "function"
    },
    {
      "inputs": [
        {
          "internalType": "string",
          "name": "name",
          "type": "string"
        },
        {
          "internalType": "string",
          "name": "symbol",
          "type": "string"
        },
        {
          "internalType": "address",
          "name": "admin",
          "type": "address"
        },
        {
          "internalType": "address",
          "name": "paramsAddress",
          "type": "address"
        },
        {
          "internalType": "address",
          "name": "randomizerAddr",
          "type": "address"
        },
        {
          "internalType": "address",
          "name": "projectDataContextAddr",
          "type": "address"
        }
      ],
      "name": "initialize",
      "outputs": [],
      "stateMutability": "nonpayable",
      "type": "function"
    },
    {
      "inputs": [
        {
          "internalType": "address",
          "name": "owner",
          "type": "address"
        },
        {
          "internalType": "address",
          "name": "operator",
          "type": "address"
        }
      ],
      "name": "isApprovedForAll",
      "outputs": [
        {
          "internalType": "bool",
          "name": "",
          "type": "bool"
        }
      ],
      "stateMutability": "view",
      "type": "function"
    },
    {
      "inputs": [
        {
          "components": [
            {
              "internalType": "uint24",
              "name": "_maxSupply",
              "type": "uint24"
            },
            {
              "internalType": "uint24",
              "name": "_limit",
              "type": "uint24"
            },
            {
              "internalType": "uint256",
              "name": "_mintPrice",
              "type": "uint256"
            },
            {
              "internalType": "address",
              "name": "_mintPriceAddr",
              "type": "address"
            },
            {
              "internalType": "string",
              "name": "_name",
              "type": "string"
            },
            {
              "internalType": "string",
              "name": "_creator",
              "type": "string"
            },
            {
              "internalType": "address",
              "name": "_creatorAddr",
              "type": "address"
            },
            {
              "internalType": "string",
              "name": "_license",
              "type": "string"
            },
            {
              "internalType": "string",
              "name": "_desc",
              "type": "string"
            },
            {
              "internalType": "string",
              "name": "_image",
              "type": "string"
            },
            {
              "components": [
                {
                  "internalType": "string",
                  "name": "_web",
                  "type": "string"
                },
                {
                  "internalType": "string",
                  "name": "_twitter",
                  "type": "string"
                },
                {
                  "internalType": "string",
                  "name": "_discord",
                  "type": "string"
                },
                {
                  "internalType": "string",
                  "name": "_medium",
                  "type": "string"
                },
                {
                  "internalType": "string",
                  "name": "_instagram",
                  "type": "string"
                }
              ],
              "internalType": "struct NFTProject.ProjectSocial",
              "name": "_social",
              "type": "tuple"
            },
            {
              "internalType": "string[]",
              "name": "_scriptType",
              "type": "string[]"
            },
            {
              "internalType": "string[]",
              "name": "_scripts",
              "type": "string[]"
            },
            {
              "internalType": "string",
              "name": "_styles",
              "type": "string"
            },
            {
              "internalType": "uint256",
              "name": "_completeTime",
              "type": "uint256"
            },
            {
              "internalType": "address",
              "name": "_genNFTAddr",
              "type": "address"
            }
          ],
          "internalType": "struct NFTProject.Project",
          "name": "project",
          "type": "tuple"
        },
        {
          "internalType": "address[]",
          "name": "reserves",
          "type": "address[]"
        }
      ],
      "name": "mint",
      "outputs": [
        {
          "internalType": "uint256",
          "name": "",
          "type": "uint256"
        }
      ],
      "stateMutability": "payable",
      "type": "function"
    },
    {
      "inputs": [],
      "name": "name",
      "outputs": [
        {
          "internalType": "string",
          "name": "",
          "type": "string"
        }
      ],
      "stateMutability": "view",
      "type": "function"
    },
    {
      "inputs": [],
      "name": "owner",
      "outputs": [
        {
          "internalType": "address",
          "name": "",
          "type": "address"
        }
      ],
      "stateMutability": "view",
      "type": "function"
    },
    {
      "inputs": [
        {
          "internalType": "uint256",
          "name": "tokenId",
          "type": "uint256"
        }
      ],
      "name": "ownerOf",
      "outputs": [
        {
          "internalType": "address",
          "name": "",
          "type": "address"
        }
      ],
      "stateMutability": "view",
      "type": "function"
    },
    {
      "inputs": [],
      "name": "paused",
      "outputs": [
        {
          "internalType": "bool",
          "name": "",
          "type": "bool"
        }
      ],
      "stateMutability": "view",
      "type": "function"
    },
    {
      "inputs": [
        {
          "internalType": "uint256",
          "name": "projectId",
          "type": "uint256"
        }
      ],
      "name": "projectDetails",
      "outputs": [
        {
          "components": [
            {
              "internalType": "uint24",
              "name": "_maxSupply",
              "type": "uint24"
            },
            {
              "internalType": "uint24",
              "name": "_limit",
              "type": "uint24"
            },
            {
              "internalType": "uint256",
              "name": "_mintPrice",
              "type": "uint256"
            },
            {
              "internalType": "address",
              "name": "_mintPriceAddr",
              "type": "address"
            },
            {
              "internalType": "string",
              "name": "_name",
              "type": "string"
            },
            {
              "internalType": "string",
              "name": "_creator",
              "type": "string"
            },
            {
              "internalType": "address",
              "name": "_creatorAddr",
              "type": "address"
            },
            {
              "internalType": "string",
              "name": "_license",
              "type": "string"
            },
            {
              "internalType": "string",
              "name": "_desc",
              "type": "string"
            },
            {
              "internalType": "string",
              "name": "_image",
              "type": "string"
            },
            {
              "components": [
                {
                  "internalType": "string",
                  "name": "_web",
                  "type": "string"
                },
                {
                  "internalType": "string",
                  "name": "_twitter",
                  "type": "string"
                },
                {
                  "internalType": "string",
                  "name": "_discord",
                  "type": "string"
                },
                {
                  "internalType": "string",
                  "name": "_medium",
                  "type": "string"
                },
                {
                  "internalType": "string",
                  "name": "_instagram",
                  "type": "string"
                }
              ],
              "internalType": "struct NFTProject.ProjectSocial",
              "name": "_social",
              "type": "tuple"
            },
            {
              "internalType": "string[]",
              "name": "_scriptType",
              "type": "string[]"
            },
            {
              "internalType": "string[]",
              "name": "_scripts",
              "type": "string[]"
            },
            {
              "internalType": "string",
              "name": "_styles",
              "type": "string"
            },
            {
              "internalType": "uint256",
              "name": "_completeTime",
              "type": "uint256"
            },
            {
              "internalType": "address",
              "name": "_genNFTAddr",
              "type": "address"
            }
          ],
          "internalType": "struct NFTProject.Project",
          "name": "project",
          "type": "tuple"
        }
      ],
      "stateMutability": "view",
      "type": "function"
    },
    {
      "inputs": [],
      "name": "renounceOwnership",
      "outputs": [],
      "stateMutability": "nonpayable",
      "type": "function"
    },
    {
      "inputs": [
        {
          "internalType": "uint256",
          "name": "projectId",
          "type": "uint256"
        },
        {
          "internalType": "uint256",
          "name": "_salePrice",
          "type": "uint256"
        }
      ],
      "name": "royaltyInfo",
      "outputs": [
        {
          "internalType": "address",
          "name": "receiver",
          "type": "address"
        },
        {
          "internalType": "uint256",
          "name": "royaltyAmount",
          "type": "uint256"
        }
      ],
      "stateMutability": "view",
      "type": "function"
    },
    {
      "inputs": [
        {
          "internalType": "address",
          "name": "from",
          "type": "address"
        },
        {
          "internalType": "address",
          "name": "to",
          "type": "address"
        },
        {
          "internalType": "uint256",
          "name": "tokenId",
          "type": "uint256"
        }
      ],
      "name": "safeTransferFrom",
      "outputs": [],
      "stateMutability": "nonpayable",
      "type": "function"
    },
    {
      "inputs": [
        {
          "internalType": "address",
          "name": "from",
          "type": "address"
        },
        {
          "internalType": "address",
          "name": "to",
          "type": "address"
        },
        {
          "internalType": "uint256",
          "name": "tokenId",
          "type": "uint256"
        },
        {
          "internalType": "bytes",
          "name": "data",
          "type": "bytes"
        }
      ],
      "name": "safeTransferFrom",
      "outputs": [],
      "stateMutability": "nonpayable",
      "type": "function"
    },
    {
      "inputs": [
        {
          "internalType": "address",
          "name": "operator",
          "type": "address"
        },
        {
          "internalType": "bool",
          "name": "approved",
          "type": "bool"
        }
      ],
      "name": "setApprovalForAll",
      "outputs": [],
      "stateMutability": "nonpayable",
      "type": "function"
    },
    {
      "inputs": [
        {
          "internalType": "bytes4",
          "name": "interfaceId",
          "type": "bytes4"
        }
      ],
      "name": "supportsInterface",
      "outputs": [
        {
          "internalType": "bool",
          "name": "",
          "type": "bool"
        }
      ],
      "stateMutability": "view",
      "type": "function"
    },
    {
      "inputs": [],
      "name": "symbol",
      "outputs": [
        {
          "internalType": "string",
          "name": "",
          "type": "string"
        }
      ],
      "stateMutability": "view",
      "type": "function"
    },
    {
      "inputs": [
        {
          "internalType": "uint256",
          "name": "projectId",
          "type": "uint256"
        }
      ],
      "name": "tokenURI",
      "outputs": [
        {
          "internalType": "string",
          "name": "result",
          "type": "string"
        }
      ],
      "stateMutability": "view",
      "type": "function"
    },
    {
      "inputs": [
        {
          "internalType": "address",
          "name": "from",
          "type": "address"
        },
        {
          "internalType": "address",
          "name": "to",
          "type": "address"
        },
        {
          "internalType": "uint256",
          "name": "tokenId",
          "type": "uint256"
        }
      ],
      "name": "transferFrom",
      "outputs": [],
      "stateMutability": "nonpayable",
      "type": "function"
    },
    {
      "inputs": [
        {
          "internalType": "address",
          "name": "newOwner",
          "type": "address"
        }
      ],
      "name": "transferOwnership",
      "outputs": [],
      "stateMutability": "nonpayable",
      "type": "function"
    },
    {
      "inputs": [
        {
          "internalType": "uint256",
          "name": "projectId",
          "type": "uint256"
        },
        {
          "internalType": "string",
          "name": "creatorName",
          "type": "string"
        }
      ],
      "name": "updateProjectCreatorName",
      "outputs": [],
      "stateMutability": "nonpayable",
      "type": "function"
    },
    {
      "inputs": [
        {
          "internalType": "uint256",
          "name": "projectId",
          "type": "uint256"
        },
        {
          "internalType": "string",
          "name": "license",
          "type": "string"
        }
      ],
      "name": "updateProjectLicense",
      "outputs": [],
      "stateMutability": "nonpayable",
      "type": "function"
    },
    {
      "inputs": [
        {
          "internalType": "uint256",
          "name": "projectId",
          "type": "uint256"
        },
        {
          "internalType": "string",
          "name": "projectName",
          "type": "string"
        }
      ],
      "name": "updateProjectName",
      "outputs": [],
      "stateMutability": "nonpayable",
      "type": "function"
    },
    {
      "inputs": [
        {
          "internalType": "uint256",
          "name": "projectId",
          "type": "uint256"
        },
        {
          "internalType": "uint256",
          "name": "scriptIndex",
          "type": "uint256"
        },
        {
          "internalType": "string",
          "name": "script",
          "type": "string"
        }
      ],
      "name": "updateProjectScript",
      "outputs": [],
      "stateMutability": "nonpayable",
      "type": "function"
    },
    {
      "inputs": [
        {
          "internalType": "uint256",
          "name": "projectId",
          "type": "uint256"
        },
        {
          "internalType": "string",
          "name": "scriptType",
          "type": "string"
        },
        {
          "internalType": "uint256",
          "name": "i",
          "type": "uint256"
        }
      ],
      "name": "updateProjectScriptType",
      "outputs": [],
      "stateMutability": "nonpayable",
      "type": "function"
    }
  ],
  "bytecode": "0x608060405234801561001057600080fd5b50614662806100206000396000f3fe60806040526004361061021a5760003560e01c80636b83597e11610123578063adfc7dae116100ab578063e283d82f1161006f578063e283d82f14610662578063e56f2fe414610682578063e985e9c5146106a2578063f2fde38b146106eb578063febfd6c31461070b57600080fd5b8063adfc7dae146105c1578063b1656ba3146105e2578063b88d4fde14610602578063c87b56dd14610622578063daf618001461064257600080fd5b80638dd91a56116100f25780638dd91a561461051f5780638f2839701461054c57806395d89b411461056c578063a22cb46514610581578063acad0124146105a157600080fd5b80636b83597e146104aa57806370a08231146104cb578063715018a6146104eb5780638da5cb5b1461050057600080fd5b806323b872dd116101a6578063472f1e0211610175578063472f1e0214610410578063575b57ea146104305780635c975abb146104515780636352211e1461046957806366215eb41461048957600080fd5b806323b872dd1461037157806325b75d68146103915780632a55205a146103b157806342842e0e146103f057600080fd5b8063095ea7b3116101ed578063095ea7b3146102cf5780630d170673146102f1578063166b7469146103115780631ca9741b146103315780632245f1521461035157600080fd5b806301bc45c91461021f57806301ffc9a71461025d57806306fdde031461028d578063081812fc146102af575b600080fd5b34801561022b57600080fd5b5061015f54610240906001600160a01b031681565b6040516001600160a01b0390911681526020015b60405180910390f35b34801561026957600080fd5b5061027d610278366004613576565b61072b565b6040519015158152602001610254565b34801561029957600080fd5b506102a261077d565b60405161025491906135eb565b3480156102bb57600080fd5b506102406102ca3660046135fe565b61080f565b3480156102db57600080fd5b506102ef6102ea366004613637565b610836565b005b3480156102fd57600080fd5b506102ef61030c366004613779565b610951565b34801561031d57600080fd5b506102ef61032c3660046137bf565b6109b4565b34801561033d57600080fd5b506102ef61034c3660046137e1565b610a2f565b34801561035d57600080fd5b506102ef61036c3660046135fe565b610ac3565b34801561037d57600080fd5b506102ef61038c3660046137fe565b610b02565b34801561039d57600080fd5b506102ef6103ac366004613779565b610c58565b3480156103bd57600080fd5b506103d16103cc3660046137bf565b610cbb565b604080516001600160a01b039093168352602083019190915201610254565b3480156103fc57600080fd5b506102ef61040b3660046137fe565b610cec565b34801561041c57600080fd5b506102ef61042b3660046137e1565b610e37565b34801561043c57600080fd5b5061016254610240906001600160a01b031681565b34801561045d57600080fd5b5060975460ff1661027d565b34801561047557600080fd5b506102406104843660046135fe565b610ecc565b34801561049557600080fd5b5061016154610240906001600160a01b031681565b6104bd6104b8366004613a40565b610f2c565b604051908152602001610254565b3480156104d757600080fd5b506104bd6104e63660046137e1565b611409565b3480156104f757600080fd5b506102ef61148f565b34801561050c57600080fd5b5061012d546001600160a01b0316610240565b34801561052b57600080fd5b5061053f61053a3660046135fe565b6114a3565b6040516102549190613d3a565b34801561055857600080fd5b506102ef6105673660046137e1565b611d50565b34801561057857600080fd5b506102a2611de5565b34801561058d57600080fd5b506102ef61059c366004613f00565b611df4565b3480156105ad57600080fd5b506102ef6105bc366004613779565b611dff565b3480156105cd57600080fd5b5061016054610240906001600160a01b031681565b3480156105ee57600080fd5b506102ef6105fd366004613f39565b611e72565b34801561060e57600080fd5b506102ef61061d366004613f88565b611ef3565b34801561062e57600080fd5b506102a261063d3660046135fe565b61204c565b34801561064e57600080fd5b506102ef61065d366004614007565b6120c8565b34801561066e57600080fd5b506102ef61067d366004613779565b61212c565b34801561068e57600080fd5b506102ef61069d366004614056565b61218f565b3480156106ae57600080fd5b5061027d6106bd366004614104565b6001600160a01b039182166000908152606a6020908152604080832093909416825291909152205460ff1690565b3480156106f757600080fd5b506102ef6107063660046137e1565b612392565b34801561071757600080fd5b506102ef6107263660046137e1565b612408565b60006001600160e01b031982166380ac58cd60e01b148061075c57506001600160e01b03198216635b5e139f60e01b145b8061077757506301ffc9a760e01b6001600160e01b03198316145b92915050565b60606065805461078c90614132565b80601f01602080910402602001604051908101604052809291908181526020018280546107b890614132565b80156108055780601f106107da57610100808354040283529160200191610805565b820191906000526020600020905b8154815290600101906020018083116107e857829003601f168201915b5050505050905090565b600061081a8261249d565b506000908152606960205260409020546001600160a01b031690565b600061084182610ecc565b9050806001600160a01b0316836001600160a01b031614156108b45760405162461bcd60e51b815260206004820152602160248201527f4552433732313a20617070726f76616c20746f2063757272656e74206f776e656044820152603960f91b60648201526084015b60405180910390fd5b336001600160a01b03821614806108d057506108d081336106bd565b6109425760405162461bcd60e51b815260206004820152603d60248201527f4552433732313a20617070726f76652063616c6c6572206973206e6f7420746f60448201527f6b656e206f776e6572206f7220617070726f76656420666f7220616c6c00000060648201526084016108ab565b61094c83836124fc565b505050565b61015f546001600160a01b03163314806109855750600082815261016460205260409020600501546001600160a01b031633145b61098e57600080fd5b600082815261016460209081526040909120825161094c92600390920191840190613345565b61015f546001600160a01b03163314806109e85750600082815261016460205260409020600501546001600160a01b031633145b6109f157600080fd5b600082815261016460205260409020600f01805482908110610a1557610a1561416d565b906000526020600020016000610a2b91906133c9565b5050565b61015f546001600160a01b031633148015610a5257506001600160a01b03811615155b6040518060400160405280600381526020016231303160e81b81525090610a8c5760405162461bcd60e51b81526004016108ab91906135eb565b50610161546001600160a01b03828116911614610ac05761016180546001600160a01b0319166001600160a01b0383161790555b50565b600081815261016460205260409020601201546001600160a01b03163314610aea57600080fd5b60009081526101646020526040902042601190910155565b826daaeb6d7670e522a718067333cd4e3b15610c47576001600160a01b038116331415610b3957610b3484848461256a565b610c52565b604051633185c44d60e21b81526daaeb6d7670e522a718067333cd4e9063c617113490610b6c9030903390600401614183565b602060405180830381865afa158015610b89573d6000803e3d6000fd5b505050506040513d601f19601f82011682018060405250810190610bad919061419d565b8015610c285750604051633185c44d60e21b81526daaeb6d7670e522a718067333cd4e9063c617113490610be79030908590600401614183565b602060405180830381865afa158015610c04573d6000803e3d6000fd5b505050506040513d601f19601f82011682018060405250810190610c28919061419d565b610c4757604051633b79c77360e21b81523360048201526024016108ab565b610c5284848461256a565b50505050565b61015f546001600160a01b0316331480610c8c5750600082815261016460205260409020600501546001600160a01b031633145b610c9557600080fd5b600082815261016460209081526040909120825161094c92600690920191840190613345565b61015f546001600160a01b03166000612710610cd9846101f46141d0565b610ce391906141ef565b90509250929050565b826daaeb6d7670e522a718067333cd4e3b15610e2c576001600160a01b038116331415610d1e57610b3484848461259b565b604051633185c44d60e21b81526daaeb6d7670e522a718067333cd4e9063c617113490610d519030903390600401614183565b602060405180830381865afa158015610d6e573d6000803e3d6000fd5b505050506040513d601f19601f82011682018060405250810190610d92919061419d565b8015610e0d5750604051633185c44d60e21b81526daaeb6d7670e522a718067333cd4e9063c617113490610dcc9030908590600401614183565b602060405180830381865afa158015610de9573d6000803e3d6000fd5b505050506040513d601f19601f82011682018060405250810190610e0d919061419d565b610e2c57604051633b79c77360e21b81523360048201526024016108ab565b610c5284848461259b565b61015f546001600160a01b031633148015610e5a57506001600160a01b03811615155b6040518060400160405280600381526020016231303160e81b81525090610e945760405162461bcd60e51b81526004016108ab91906135eb565b50610162546001600160a01b03828116911614610ac05761016280546001600160a01b0383166001600160a01b031990911617905550565b6000818152606760205260408120546001600160a01b0316806107775760405162461bcd60e51b8152602060048201526018602482015277115490cdcc8c4e881a5b9d985b1a59081d1bdad95b88125160421b60448201526064016108ab565b6000610f366125b6565b600383608001515111610f4857600080fd5b60038360a001515111610f5a57600080fd5b825162ffffff16610f6a57600080fd5b6000836020015162ffffff16118015610f955750826000015162ffffff16836020015162ffffff1611155b610f9e57600080fd5b60c08301516001600160a01b0316610fb557600080fd5b6101638054906000610fc683614211565b9091555050610160546001600160a01b0316610fe0612610565b6101635460009081526101646020908152604091829020865181548389015162ffffff90811663010000000265ffffffffffff1990921692169190911717815591860151600183015560608601516002830180546001600160a01b039092166001600160a01b03199092169190911790556080860151805187939261106c926003850192910190613345565b5060a08201518051611088916004840191602090910190613345565b5060c08201516005820180546001600160a01b0319166001600160a01b0390921691909117905560e082015180516110ca916006840191602090910190613345565b5061010082015180516110e7916007840191602090910190613345565b506101208201518051611104916008840191602090910190613345565b5061014082015180518051600984019161112391839160200190613345565b50602082810151805161113c9260018501920190613345565b5060408201518051611158916002840191602090910190613345565b5060608201518051611174916003840191602090910190613345565b5060808201518051611190916004840191602090910190613345565b50505061016082015180516111af91600e840191602090910190613403565b5061018082015180516111cc91600f840191602090910190613403565b506101a082015180516111e9916010840191602090910190613345565b506101c082015160118201556101e090910151601290910180546001600160a01b0319166001600160a01b039092169190911790556101635461122d9033906127e5565b60405163bf40fac160e01b815260206004820152601760248201527f47454e455241544956455f4e46545f54454d504c41544500000000000000000060448201526000906112cf906001600160a01b0384169063bf40fac190606401602060405180830381865afa1580156112a6573d6000803e3d6000fd5b505050506040513d601f19601f820116820180604052508101906112ca919061422c565b6127ff565b610163805460009081526101646020908152604080832060120180546001600160a01b0319166001600160a01b03878116918217909255825161016080820185523082529654818601528c5162ffffff90811682860152948d0151909416606080860191909152608080860187905260a080870197909752958d015160c0808701919091528d0151831660e08601528c8401516101008601528c01518216610120850152938b015161014084015261015f54945461016154610162549351630fd551db60e11b815297985088979596631faaa3b6966113c4969591851694938416939283169291909116908d9060040161428d565b600060405180830381600087803b1580156113de57600080fd5b505af11580156113f2573d6000803e3d6000fd5b50505050610163549350505050610777600160fb55565b60006001600160a01b0382166114735760405162461bcd60e51b815260206004820152602960248201527f4552433732313a2061646472657373207a65726f206973206e6f7420612076616044820152683634b21037bbb732b960b91b60648201526084016108ab565b506001600160a01b031660009081526068602052604090205490565b6114976128a0565b6114a160006128fb565b565b6114ab61345c565b60008281526101646020908152604091829020825161020081018452815462ffffff80821683526301000000909104169281019290925260018101549282019290925260028201546001600160a01b0316606082015260038201805491929160808401919061151990614132565b80601f016020809104026020016040519081016040528092919081815260200182805461154590614132565b80156115925780601f1061156757610100808354040283529160200191611592565b820191906000526020600020905b81548152906001019060200180831161157557829003601f168201915b505050505081526020016004820180546115ab90614132565b80601f01602080910402602001604051908101604052809291908181526020018280546115d790614132565b80156116245780601f106115f957610100808354040283529160200191611624565b820191906000526020600020905b81548152906001019060200180831161160757829003601f168201915b505050918352505060058201546001600160a01b0316602082015260068201805460409092019161165490614132565b80601f016020809104026020016040519081016040528092919081815260200182805461168090614132565b80156116cd5780601f106116a2576101008083540402835291602001916116cd565b820191906000526020600020905b8154815290600101906020018083116116b057829003601f168201915b505050505081526020016007820180546116e690614132565b80601f016020809104026020016040519081016040528092919081815260200182805461171290614132565b801561175f5780601f106117345761010080835404028352916020019161175f565b820191906000526020600020905b81548152906001019060200180831161174257829003601f168201915b5050505050815260200160088201805461177890614132565b80601f01602080910402602001604051908101604052809291908181526020018280546117a490614132565b80156117f15780601f106117c6576101008083540402835291602001916117f1565b820191906000526020600020905b8154815290600101906020018083116117d457829003601f168201915b50505050508152602001600982016040518060a001604052908160008201805461181a90614132565b80601f016020809104026020016040519081016040528092919081815260200182805461184690614132565b80156118935780601f1061186857610100808354040283529160200191611893565b820191906000526020600020905b81548152906001019060200180831161187657829003601f168201915b505050505081526020016001820180546118ac90614132565b80601f01602080910402602001604051908101604052809291908181526020018280546118d890614132565b80156119255780601f106118fa57610100808354040283529160200191611925565b820191906000526020600020905b81548152906001019060200180831161190857829003601f168201915b5050505050815260200160028201805461193e90614132565b80601f016020809104026020016040519081016040528092919081815260200182805461196a90614132565b80156119b75780601f1061198c576101008083540402835291602001916119b7565b820191906000526020600020905b81548152906001019060200180831161199a57829003601f168201915b505050505081526020016003820180546119d090614132565b80601f01602080910402602001604051908101604052809291908181526020018280546119fc90614132565b8015611a495780601f10611a1e57610100808354040283529160200191611a49565b820191906000526020600020905b815481529060010190602001808311611a2c57829003601f168201915b50505050508152602001600482018054611a6290614132565b80601f0160208091040260200160405190810160405280929190818152602001828054611a8e90614132565b8015611adb5780601f10611ab057610100808354040283529160200191611adb565b820191906000526020600020905b815481529060010190602001808311611abe57829003601f168201915b5050505050815250508152602001600e8201805480602002602001604051908101604052809291908181526020016000905b82821015611bb9578382906000526020600020018054611b2c90614132565b80601f0160208091040260200160405190810160405280929190818152602001828054611b5890614132565b8015611ba55780601f10611b7a57610100808354040283529160200191611ba5565b820191906000526020600020905b815481529060010190602001808311611b8857829003601f168201915b505050505081526020019060010190611b0d565b505050508152602001600f8201805480602002602001604051908101604052809291908181526020016000905b82821015611c92578382906000526020600020018054611c0590614132565b80601f0160208091040260200160405190810160405280929190818152602001828054611c3190614132565b8015611c7e5780601f10611c5357610100808354040283529160200191611c7e565b820191906000526020600020905b815481529060010190602001808311611c6157829003601f168201915b505050505081526020019060010190611be6565b505050508152602001601082018054611caa90614132565b80601f0160208091040260200160405190810160405280929190818152602001828054611cd690614132565b8015611d235780601f10611cf857610100808354040283529160200191611d23565b820191906000526020600020905b815481529060010190602001808311611d0657829003601f168201915b5050509183525050601182015460208201526012909101546001600160a01b031660409091015292915050565b61015f546001600160a01b031633148015611d7357506001600160a01b03811615155b6040518060400160405280600381526020016231303160e81b81525090611dad5760405162461bcd60e51b81526004016108ab91906135eb565b5061015f546001600160a01b03828116911614610ac05761015f80546001600160a01b0383166001600160a01b031990911617905550565b60606066805461078c90614132565b610a2b33838361294e565b61015f546001600160a01b0316331480611e335750600082815261016460205260409020600501546001600160a01b031633145b611e3c57600080fd5b6000828152610164602090815260408220600f01805460018101825590835291819020835161094c939190910191840190613345565b61015f546001600160a01b0316331480611ea65750600083815261016460205260409020600501546001600160a01b031633145b611eaf57600080fd5b600083815261016460205260409020600f01805482919084908110611ed657611ed661416d565b906000526020600020019080519060200190610c52929190613345565b836daaeb6d7670e522a718067333cd4e3b15612039576001600160a01b038116331415611f2b57611f2685858585612a1d565b612045565b604051633185c44d60e21b81526daaeb6d7670e522a718067333cd4e9063c617113490611f5e9030903390600401614183565b602060405180830381865afa158015611f7b573d6000803e3d6000fd5b505050506040513d601f19601f82011682018060405250810190611f9f919061419d565b801561201a5750604051633185c44d60e21b81526daaeb6d7670e522a718067333cd4e9063c617113490611fd99030908590600401614183565b602060405180830381865afa158015611ff6573d6000803e3d6000fd5b505050506040513d601f19601f8201168201806040525081019061201a919061419d565b61203957604051633b79c77360e21b81523360048201526024016108ab565b61204585858585612a1d565b5050505050565b6101625460405163079ebc6f60e41b8152600481018390526060916001600160a01b03169081906379ebc6f090602401600060405180830381865afa158015612099573d6000803e3d6000fd5b505050506040513d6000823e601f3d908101601f191682016040526120c191908101906143ee565b9392505050565b61015f546001600160a01b03163314806120fc5750600083815261016460205260409020600501546001600160a01b031633145b61210557600080fd5b600083815261016460205260409020600e01805483919083908110611ed657611ed661416d565b61015f546001600160a01b03163314806121605750600082815261016460205260409020600501546001600160a01b031633145b61216957600080fd5b600082815261016460209081526040909120825161094c92600490920191840190613345565b600054610100900460ff16158080156121af5750600054600160ff909116105b806121c95750303b1580156121c9575060005460ff166001145b61222c5760405162461bcd60e51b815260206004820152602e60248201527f496e697469616c697a61626c653a20636f6e747261637420697320616c72656160448201526d191e481a5b9a5d1a585b1a5e995960921b60648201526084016108ab565b6000805460ff19166001179055801561224f576000805461ff0019166101001790555b60408051808201909152600381526203130360ec1b60208201526001600160a01b0386166122905760405162461bcd60e51b81526004016108ab91906135eb565b5060408051808201909152600381526203130360ec1b60208201526001600160a01b0385166122d25760405162461bcd60e51b81526004016108ab91906135eb565b5061016080546001600160a01b038087166001600160a01b03199283161790925561015f8054888416908316179055610161805486841690831617905561016280549285169290911691909117905561232b8787612a4f565b612333612a80565b61233b612aaf565b612343612ade565b8015612389576000805461ff0019169055604051600181527f7f26b83ff96e1f2b6a682f133852f6798a09c465da95921460cefb38474024989060200160405180910390a15b50505050505050565b61239a6128a0565b6001600160a01b0381166123ff5760405162461bcd60e51b815260206004820152602660248201527f4f776e61626c653a206e6577206f776e657220697320746865207a65726f206160448201526564647265737360d01b60648201526084016108ab565b610ac0816128fb565b61015f546001600160a01b03163314801561242b57506001600160a01b03811615155b6040518060400160405280600381526020016231303160e81b815250906124655760405162461bcd60e51b81526004016108ab91906135eb565b50610160546001600160a01b03828116911614610ac05761016080546001600160a01b0383166001600160a01b031990911617905550565b6000818152606760205260409020546001600160a01b0316610ac05760405162461bcd60e51b8152602060048201526018602482015277115490cdcc8c4e881a5b9d985b1a59081d1bdad95b88125160421b60448201526064016108ab565b600081815260696020526040902080546001600160a01b0319166001600160a01b038416908117909155819061253182610ecc565b6001600160a01b03167f8c5be1e5ebec7d5bd14f71427d1e84f3dd0314c0f7b2291e5b200ac8c7c3b92560405160405180910390a45050565b6125743382612b24565b6125905760405162461bcd60e51b81526004016108ab9061445b565b61094c838383612ba3565b61094c83838360405180602001604052806000815250611ef3565b600260fb5414156126095760405162461bcd60e51b815260206004820152601f60248201527f5265656e7472616e637947756172643a207265656e7472616e742063616c6c0060448201526064016108ab565b600260fb55565b61015f546001600160a01b031633146114a15761016054604051636d12dce160e01b81526020600482015260126024820152714352454154455f50524f4a4543545f46454560701b60448201526001600160a01b03909116906000908290636d12dce190606401602060405180830381865afa158015612694573d6000803e3d6000fd5b505050506040513d601f19601f820116820180604052508101906126b891906144a8565b90508015610a2b5760405163bf40fac160e01b81526020600482015260096024820152682322a2afaa27a5a2a760b91b60448201526000906001600160a01b0384169063bf40fac190606401602060405180830381865afa158015612721573d6000803e3d6000fd5b505050506040513d601f19601f82011682018060405250810190612745919061422c565b90506001600160a01b038116156127d8576040516323b872dd60e01b81523360048201523060248201526044810183905281906001600160a01b038216906323b872dd906064016020604051808303816000875af11580156127ab573d6000803e3d6000fd5b505050506040513d601f19601f820116820180604052508101906127cf919061419d565b610c5257600080fd5b8134101561094c57600080fd5b610a2b828260405180602001604052806000815250612d14565b6000763d602d80600a3d3981f3363d3d373d3d3d363d730000008260601b60e81c176000526e5af43d82803e903d91602b57fd5bf38260781b17602052603760096000f090506001600160a01b0381166128945760405162461bcd60e51b8152602060048201526016602482015275115490cc4c4d8dce8818dc99585d194819985a5b195960521b60448201526064016108ab565b919050565b600160fb55565b61012d546001600160a01b031633146114a15760405162461bcd60e51b815260206004820181905260248201527f4f776e61626c653a2063616c6c6572206973206e6f7420746865206f776e657260448201526064016108ab565b61012d80546001600160a01b038381166001600160a01b0319831681179093556040519116919082907f8be0079c531659141344cd1fd0a4f28419497f9722a3daafe3b4186f6b6457e090600090a35050565b816001600160a01b0316836001600160a01b031614156129b05760405162461bcd60e51b815260206004820152601960248201527f4552433732313a20617070726f766520746f2063616c6c65720000000000000060448201526064016108ab565b6001600160a01b038381166000818152606a6020908152604080832094871680845294825291829020805460ff191686151590811790915591519182527f17307eab39ab6107e8899845ad3d59bd9653f200f220920489ca2b5937696c31910160405180910390a3505050565b612a273383612b24565b612a435760405162461bcd60e51b81526004016108ab9061445b565b610c5284848484612d47565b600054610100900460ff16612a765760405162461bcd60e51b81526004016108ab906144c1565b610a2b8282612d7a565b600054610100900460ff16612aa75760405162461bcd60e51b81526004016108ab906144c1565b6114a1612dc8565b600054610100900460ff16612ad65760405162461bcd60e51b81526004016108ab906144c1565b6114a1612def565b600054610100900460ff16612b055760405162461bcd60e51b81526004016108ab906144c1565b6114a1733cc6cdda760b79bafa08df41ecfa224f810dceb66001612e22565b600080612b3083610ecc565b9050806001600160a01b0316846001600160a01b03161480612b7757506001600160a01b038082166000908152606a602090815260408083209388168352929052205460ff165b80612b9b5750836001600160a01b0316612b908461080f565b6001600160a01b0316145b949350505050565b826001600160a01b0316612bb682610ecc565b6001600160a01b031614612bdc5760405162461bcd60e51b81526004016108ab9061450c565b6001600160a01b038216612c3e5760405162461bcd60e51b8152602060048201526024808201527f4552433732313a207472616e7366657220746f20746865207a65726f206164646044820152637265737360e01b60648201526084016108ab565b612c4b8383836001612fb3565b826001600160a01b0316612c5e82610ecc565b6001600160a01b031614612c845760405162461bcd60e51b81526004016108ab9061450c565b600081815260696020908152604080832080546001600160a01b03199081169091556001600160a01b0387811680865260688552838620805460001901905590871680865283862080546001019055868652606790945282852080549092168417909155905184937fddf252ad1be2c89b69c2b068fc378daa952ba7f163c4a11628f55a4df523b3ef91a4505050565b612d1e8383613026565b612d2b60008484846131bf565b61094c5760405162461bcd60e51b81526004016108ab90614551565b612d52848484612ba3565b612d5e848484846131bf565b610c525760405162461bcd60e51b81526004016108ab90614551565b600054610100900460ff16612da15760405162461bcd60e51b81526004016108ab906144c1565b8151612db4906065906020850190613345565b50805161094c906066906020840190613345565b600054610100900460ff166128995760405162461bcd60e51b81526004016108ab906144c1565b600054610100900460ff16612e165760405162461bcd60e51b81526004016108ab906144c1565b6097805460ff19169055565b600054610100900460ff16612e495760405162461bcd60e51b81526004016108ab906144c1565b6daaeb6d7670e522a718067333cd4e3b15610a2b5760405163c3c5a54760e01b81523060048201526daaeb6d7670e522a718067333cd4e9063c3c5a547906024016020604051808303816000875af1158015612ea9573d6000803e3d6000fd5b505050506040513d601f19601f82011682018060405250810190612ecd919061419d565b610a2b578015612f4057604051633e9f1edf60e11b81526daaeb6d7670e522a718067333cd4e90637d3e3dbe90612f0a9030908690600401614183565b600060405180830381600087803b158015612f2457600080fd5b505af1158015612f38573d6000803e3d6000fd5b505050505050565b6001600160a01b03821615612f825760405163a0af290360e01b81526daaeb6d7670e522a718067333cd4e9063a0af290390612f0a9030908690600401614183565b604051632210724360e11b81523060048201526daaeb6d7670e522a718067333cd4e90634420e48690602401612f0a565b612fbf848484846132bd565b60975460ff1615610c525760405162461bcd60e51b815260206004820152602b60248201527f4552433732315061757361626c653a20746f6b656e207472616e73666572207760448201526a1a1a5b19481c185d5cd95960aa1b60648201526084016108ab565b6001600160a01b03821661307c5760405162461bcd60e51b815260206004820181905260248201527f4552433732313a206d696e7420746f20746865207a65726f206164647265737360448201526064016108ab565b6000818152606760205260409020546001600160a01b0316156130e15760405162461bcd60e51b815260206004820152601c60248201527f4552433732313a20746f6b656e20616c7265616479206d696e7465640000000060448201526064016108ab565b6130ef600083836001612fb3565b6000818152606760205260409020546001600160a01b0316156131545760405162461bcd60e51b815260206004820152601c60248201527f4552433732313a20746f6b656e20616c7265616479206d696e7465640000000060448201526064016108ab565b6001600160a01b038216600081815260686020908152604080832080546001019055848352606790915280822080546001600160a01b0319168417905551839291907fddf252ad1be2c89b69c2b068fc378daa952ba7f163c4a11628f55a4df523b3ef908290a45050565b60006001600160a01b0384163b156132b257604051630a85bd0160e11b81526001600160a01b0385169063150b7a02906132039033908990889088906004016145a3565b6020604051808303816000875af192505050801561323e575060408051601f3d908101601f1916820190925261323b918101906145e0565b60015b613298573d80801561326c576040519150601f19603f3d011682016040523d82523d6000602084013e613271565b606091505b5080516132905760405162461bcd60e51b81526004016108ab90614551565b805181602001fd5b6001600160e01b031916630a85bd0160e11b149050612b9b565b506001949350505050565b6001811115610c52576001600160a01b03841615613303576001600160a01b038416600090815260686020526040812080548392906132fd9084906145fd565b90915550505b6001600160a01b03831615610c52576001600160a01b0383166000908152606860205260408120805483929061333a908490614614565b909155505050505050565b82805461335190614132565b90600052602060002090601f01602090048101928261337357600085556133b9565b82601f1061338c57805160ff19168380011785556133b9565b828001600101855582156133b9579182015b828111156133b957825182559160200191906001019061339e565b506133c592915061352e565b5090565b5080546133d590614132565b6000825580601f106133e5575050565b601f016020900490600052602060002090810190610ac0919061352e565b828054828255906000526020600020908101928215613450579160200282015b828111156134505782518051613440918491602090910190613345565b5091602001919060010190613423565b506133c5929150613543565b604051806102000160405280600062ffffff168152602001600062ffffff1681526020016000815260200160006001600160a01b03168152602001606081526020016060815260200160006001600160a01b031681526020016060815260200160608152602001606081526020016134fc6040518060a0016040528060608152602001606081526020016060815260200160608152602001606081525090565b81526020016060815260200160608152602001606081526020016000815260200160006001600160a01b031681525090565b5b808211156133c5576000815560010161352f565b808211156133c557600061355782826133c9565b50600101613543565b6001600160e01b031981168114610ac057600080fd5b60006020828403121561358857600080fd5b81356120c181613560565b60005b838110156135ae578181015183820152602001613596565b83811115610c525750506000910152565b600081518084526135d7816020860160208601613593565b601f01601f19169290920160200192915050565b6020815260006120c160208301846135bf565b60006020828403121561361057600080fd5b5035919050565b6001600160a01b0381168114610ac057600080fd5b803561289481613617565b6000806040838503121561364a57600080fd5b823561365581613617565b946020939093013593505050565b634e487b7160e01b600052604160045260246000fd5b60405160a081016001600160401b038111828210171561369b5761369b613663565b60405290565b60405161020081016001600160401b038111828210171561369b5761369b613663565b604051601f8201601f191681016001600160401b03811182821017156136ec576136ec613663565b604052919050565b60006001600160401b0382111561370d5761370d613663565b50601f01601f191660200190565b600061372e613729846136f4565b6136c4565b905082815283838301111561374257600080fd5b828260208301376000602084830101529392505050565b600082601f83011261376a57600080fd5b6120c18383356020850161371b565b6000806040838503121561378c57600080fd5b8235915060208301356001600160401b038111156137a957600080fd5b6137b585828601613759565b9150509250929050565b600080604083850312156137d257600080fd5b50508035926020909101359150565b6000602082840312156137f357600080fd5b81356120c181613617565b60008060006060848603121561381357600080fd5b833561381e81613617565b9250602084013561382e81613617565b929592945050506040919091013590565b803562ffffff8116811461289457600080fd5b600060a0828403121561386457600080fd5b61386c613679565b905081356001600160401b038082111561388557600080fd5b61389185838601613759565b835260208401359150808211156138a757600080fd5b6138b385838601613759565b602084015260408401359150808211156138cc57600080fd5b6138d885838601613759565b604084015260608401359150808211156138f157600080fd5b6138fd85838601613759565b6060840152608084013591508082111561391657600080fd5b5061392384828501613759565b60808301525092915050565b60006001600160401b0382111561394857613948613663565b5060051b60200190565b600082601f83011261396357600080fd5b813560206139736137298361392f565b82815260059290921b8401810191818101908684111561399257600080fd5b8286015b848110156139d15780356001600160401b038111156139b55760008081fd5b6139c38986838b0101613759565b845250918301918301613996565b509695505050505050565b600082601f8301126139ed57600080fd5b813560206139fd6137298361392f565b82815260059290921b84018101918181019086841115613a1c57600080fd5b8286015b848110156139d1578035613a3381613617565b8352918301918301613a20565b60008060408385031215613a5357600080fd5b82356001600160401b0380821115613a6a57600080fd5b908401906102008287031215613a7f57600080fd5b613a876136a1565b613a908361383f565b8152613a9e6020840161383f565b602082015260408301356040820152613ab96060840161362c565b6060820152608083013582811115613ad057600080fd5b613adc88828601613759565b60808301525060a083013582811115613af457600080fd5b613b0088828601613759565b60a083015250613b1260c0840161362c565b60c082015260e083013582811115613b2957600080fd5b613b3588828601613759565b60e0830152506101008084013583811115613b4f57600080fd5b613b5b89828701613759565b8284015250506101208084013583811115613b7557600080fd5b613b8189828701613759565b8284015250506101408084013583811115613b9b57600080fd5b613ba789828701613852565b8284015250506101608084013583811115613bc157600080fd5b613bcd89828701613952565b8284015250506101808084013583811115613be757600080fd5b613bf389828701613952565b8284015250506101a08084013583811115613c0d57600080fd5b613c1989828701613759565b8284015250506101c08084013581830152506101e0613c3981850161362c565b9082015293506020850135915080821115613c5357600080fd5b506137b5858286016139dc565b6000815160a08452613c7560a08501826135bf565b905060208301518482036020860152613c8e82826135bf565b91505060408301518482036040860152613ca882826135bf565b91505060608301518482036060860152613cc282826135bf565b91505060808301518482036080860152613cdc82826135bf565b95945050505050565b600081518084526020808501808196508360051b8101915082860160005b85811015613d2d578284038952613d1b8483516135bf565b98850198935090840190600101613d03565b5091979650505050505050565b60208152613d5060208201835162ffffff169052565b60006020830151613d68604084018262ffffff169052565b50604083015160608301526060830151613d8d60808401826001600160a01b03169052565b5060808301516102008060a0850152613daa6102208501836135bf565b915060a0850151601f19808685030160c0870152613dc884836135bf565b935060c08701519150613de660e08701836001600160a01b03169052565b60e08701519150610100818786030181880152613e0385846135bf565b945080880151925050610120818786030181880152613e2285846135bf565b945080880151925050610140818786030181880152613e4185846135bf565b945080880151925050610160818786030181880152613e608584613c60565b945080880151925050610180818786030181880152613e7f8584613ce5565b9450808801519250506101a0818786030181880152613e9e8584613ce5565b9450808801519250506101c0818786030181880152613ebd85846135bf565b908801516101e0888101919091528801516001600160a01b038116858901529094509150613ee89050565b5090949350505050565b8015158114610ac057600080fd5b60008060408385031215613f1357600080fd5b8235613f1e81613617565b91506020830135613f2e81613ef2565b809150509250929050565b600080600060608486031215613f4e57600080fd5b833592506020840135915060408401356001600160401b03811115613f7257600080fd5b613f7e86828701613759565b9150509250925092565b60008060008060808587031215613f9e57600080fd5b8435613fa981613617565b93506020850135613fb981613617565b92506040850135915060608501356001600160401b03811115613fdb57600080fd5b8501601f81018713613fec57600080fd5b613ffb8782356020840161371b565b91505092959194509250565b60008060006060848603121561401c57600080fd5b8335925060208401356001600160401b0381111561403957600080fd5b61404586828701613759565b925050604084013590509250925092565b60008060008060008060c0878903121561406f57600080fd5b86356001600160401b038082111561408657600080fd5b6140928a838b01613759565b975060208901359150808211156140a857600080fd5b506140b589828a01613759565b95505060408701356140c681613617565b935060608701356140d681613617565b925060808701356140e681613617565b915060a08701356140f681613617565b809150509295509295509295565b6000806040838503121561411757600080fd5b823561412281613617565b91506020830135613f2e81613617565b600181811c9082168061414657607f821691505b6020821081141561416757634e487b7160e01b600052602260045260246000fd5b50919050565b634e487b7160e01b600052603260045260246000fd5b6001600160a01b0392831681529116602082015260400190565b6000602082840312156141af57600080fd5b81516120c181613ef2565b634e487b7160e01b600052601160045260246000fd5b60008160001904831182151516156141ea576141ea6141ba565b500290565b60008261420c57634e487b7160e01b600052601260045260246000fd5b500490565b6000600019821415614225576142256141ba565b5060010190565b60006020828403121561423e57600080fd5b81516120c181613617565b600081518084526020808501945080840160005b838110156142825781516001600160a01b03168752958201959082019060010161425d565b509495945050505050565b60c081526142a760c0820188516001600160a01b03169052565b602087015160e0820152600060408801516101006142cb8185018362ffffff169052565b60608a015191506101206142e58186018462ffffff169052565b60808b015192506101406142ff8187018562ffffff169052565b60a08c015193506101606143198188018662ffffff169052565b60c08d0151945080610180880152506143366102208701856135bf565b935060e08c01516143536101a08801826001600160a01b03169052565b50918b01516101c08601528a01516001600160a01b03166101e085015289015160bf198483030161020085015261438a82826135bf565b9150506143a260208401896001600160a01b03169052565b6001600160a01b03871660408401526001600160a01b03861660608401526001600160a01b038516608084015282810360a08401526143e18185614249565b9998505050505050505050565b60006020828403121561440057600080fd5b81516001600160401b0381111561441657600080fd5b8201601f8101841361442757600080fd5b8051614435613729826136f4565b81815285602083850101111561444a57600080fd5b613cdc826020830160208601613593565b6020808252602d908201527f4552433732313a2063616c6c6572206973206e6f7420746f6b656e206f776e6560408201526c1c881bdc88185c1c1c9bdd9959609a1b606082015260800190565b6000602082840312156144ba57600080fd5b5051919050565b6020808252602b908201527f496e697469616c697a61626c653a20636f6e7472616374206973206e6f74206960408201526a6e697469616c697a696e6760a81b606082015260800190565b60208082526025908201527f4552433732313a207472616e736665722066726f6d20696e636f72726563742060408201526437bbb732b960d91b606082015260800190565b60208082526032908201527f4552433732313a207472616e7366657220746f206e6f6e20455243373231526560408201527131b2b4bb32b91034b6b83632b6b2b73a32b960711b606082015260800190565b6001600160a01b03858116825284166020820152604081018390526080606082018190526000906145d6908301846135bf565b9695505050505050565b6000602082840312156145f257600080fd5b81516120c181613560565b60008282101561460f5761460f6141ba565b500390565b60008219821115614627576146276141ba565b50019056fea2646970667358221220f89eebc76c2f8b16ab9c94ac527eeab0ecf4f91290027a9d7061833a2545832864736f6c634300080c0033",
  "linkReferences": {},
  "deployedLinkReferences": {}
}