{
  "_format": "hh-sol-artifact-1",
  "contractName": "MarketplaceServiceConfigs",
  "sourceName": "contracts/libs/configs/MarketplaceServiceConfigs.sol",
  "abi": [
    {
      "inputs": [],
      "name": "DEFAULT_MARKETPLACE_BENEFIT_PERCENT",
      "outputs": [
        {
          "internalType": "uint256",
          "name": "",
          "type": "uint256"
        }
      ],
      "stateMutability": "view",
      "type": "function"
    },
    {
      "inputs": [],
      "name": "MARKETPLACE_BENEFIT_PERCENT",
      "outputs": [
        {
          "internalType": "string",
          "name": "",
          "type": "string"
        }
      ],
      "stateMutability": "view",
      "type": "function"
    }
  ],
  "bytecode": "0x61012661003a600b82828239805160001a60731461002d57634e487b7160e01b600052600060045260246000fd5b30600052607381538281f3fe7300000000000000000000000000000000000000003014608060405260043610603d5760003560e01c80637b0aa36c1460425780638d468eb014605c575b600080fd5b604960fa81565b6040519081526020015b60405180910390f35b60976040518060400160405280601b81526020017f4d41524b4554504c4143455f42454e454649545f50455243454e54000000000081525081565b60405160539190600060208083528351808285015260005b8181101560c95785810183015185820160400152820160af565b8181111560da576000604083870101525b50601f01601f191692909201604001939250505056fea2646970667358221220154077bac91da2ea7eee75739fd7839e232ff2c51be7c2b0abd989869c214f7864736f6c634300080c0033",
  "linkReferences": {},
  "deployedLinkReferences": {}
}