{
  "_format": "hh-sol-artifact-1",
  "contractName": "ERC721PresetMinterPauserAutoIdUpgradeable",
  "sourceName": "@openzeppelin/contracts-upgradeable/token/ERC721/presets/ERC721PresetMinterPauserAutoIdUpgradeable.sol",
  "abi": [
    {
      "anonymous": false,
      "inputs": [
        {
          "indexed": true,
          "internalType": "address",
          "name": "owner",
          "type": "address"
        },
        {
          "indexed": true,
          "internalType": "address",
          "name": "approved",
          "type": "address"
        },
        {
          "indexed": true,
          "internalType": "uint256",
          "name": "tokenId",
          "type": "uint256"
        }
      ],
      "name": "Approval",
      "type": "event"
    },
    {
      "anonymous": false,
      "inputs": [
        {
          "indexed": true,
          "internalType": "address",
          "name": "owner",
          "type": "address"
        },
        {
          "indexed": true,
          "internalType": "address",
          "name": "operator",
          "type": "address"
        },
        {
          "indexed": false,
          "internalType": "bool",
          "name": "approved",
          "type": "bool"
        }
      ],
      "name": "ApprovalForAll",
      "type": "event"
    },
    {
      "anonymous": false,
      "inputs": [
        {
          "indexed": false,
          "internalType": "uint8",
          "name": "version",
          "type": "uint8"
        }
      ],
      "name": "Initialized",
      "type": "event"
    },
    {
      "anonymous": false,
      "inputs": [
        {
          "indexed": false,
          "internalType": "address",
          "name": "account",
          "type": "address"
        }
      ],
      "name": "Paused",
      "type": "event"
    },
    {
      "anonymous": false,
      "inputs": [
        {
          "indexed": true,
          "internalType": "bytes32",
          "name": "role",
          "type": "bytes32"
        },
        {
          "indexed": true,
          "internalType": "bytes32",
          "name": "previousAdminRole",
          "type": "bytes32"
        },
        {
          "indexed": true,
          "internalType": "bytes32",
          "name": "newAdminRole",
          "type": "bytes32"
        }
      ],
      "name": "RoleAdminChanged",
      "type": "event"
    },
    {
      "anonymous": false,
      "inputs": [
        {
          "indexed": true,
          "internalType": "bytes32",
          "name": "role",
          "type": "bytes32"
        },
        {
          "indexed": true,
          "internalType": "address",
          "name": "account",
          "type": "address"
        },
        {
          "indexed": true,
          "internalType": "address",
          "name": "sender",
          "type": "address"
        }
      ],
      "name": "RoleGranted",
      "type": "event"
    },
    {
      "anonymous": false,
      "inputs": [
        {
          "indexed": true,
          "internalType": "bytes32",
          "name": "role",
          "type": "bytes32"
        },
        {
          "indexed": true,
          "internalType": "address",
          "name": "account",
          "type": "address"
        },
        {
          "indexed": true,
          "internalType": "address",
          "name": "sender",
          "type": "address"
        }
      ],
      "name": "RoleRevoked",
      "type": "event"
    },
    {
      "anonymous": false,
      "inputs": [
        {
          "indexed": true,
          "internalType": "address",
          "name": "from",
          "type": "address"
        },
        {
          "indexed": true,
          "internalType": "address",
          "name": "to",
          "type": "address"
        },
        {
          "indexed": true,
          "internalType": "uint256",
          "name": "tokenId",
          "type": "uint256"
        }
      ],
      "name": "Transfer",
      "type": "event"
    },
    {
      "anonymous": false,
      "inputs": [
        {
          "indexed": false,
          "internalType": "address",
          "name": "account",
          "type": "address"
        }
      ],
      "name": "Unpaused",
      "type": "event"
    },
    {
      "inputs": [],
      "name": "DEFAULT_ADMIN_ROLE",
      "outputs": [
        {
          "internalType": "bytes32",
          "name": "",
          "type": "bytes32"
        }
      ],
      "stateMutability": "view",
      "type": "function"
    },
    {
      "inputs": [],
      "name": "MINTER_ROLE",
      "outputs": [
        {
          "internalType": "bytes32",
          "name": "",
          "type": "bytes32"
        }
      ],
      "stateMutability": "view",
      "type": "function"
    },
    {
      "inputs": [],
      "name": "PAUSER_ROLE",
      "outputs": [
        {
          "internalType": "bytes32",
          "name": "",
          "type": "bytes32"
        }
      ],
      "stateMutability": "view",
      "type": "function"
    },
    {
      "inputs": [
        {
          "internalType": "address",
          "name": "to",
          "type": "address"
        },
        {
          "internalType": "uint256",
          "name": "tokenId",
          "type": "uint256"
        }
      ],
      "name": "approve",
      "outputs": [],
      "stateMutability": "nonpayable",
      "type": "function"
    },
    {
      "inputs": [
        {
          "internalType": "address",
          "name": "owner",
          "type": "address"
        }
      ],
      "name": "balanceOf",
      "outputs": [
        {
          "internalType": "uint256",
          "name": "",
          "type": "uint256"
        }
      ],
      "stateMutability": "view",
      "type": "function"
    },
    {
      "inputs": [
        {
          "internalType": "uint256",
          "name": "tokenId",
          "type": "uint256"
        }
      ],
      "name": "burn",
      "outputs": [],
      "stateMutability": "nonpayable",
      "type": "function"
    },
    {
      "inputs": [
        {
          "internalType": "uint256",
          "name": "tokenId",
          "type": "uint256"
        }
      ],
      "name": "getApproved",
      "outputs": [
        {
          "internalType": "address",
          "name": "",
          "type": "address"
        }
      ],
      "stateMutability": "view",
      "type": "function"
    },
    {
      "inputs": [
        {
          "internalType": "bytes32",
          "name": "role",
          "type": "bytes32"
        }
      ],
      "name": "getRoleAdmin",
      "outputs": [
        {
          "internalType": "bytes32",
          "name": "",
          "type": "bytes32"
        }
      ],
      "stateMutability": "view",
      "type": "function"
    },
    {
      "inputs": [
        {
          "internalType": "bytes32",
          "name": "role",
          "type": "bytes32"
        },
        {
          "internalType": "uint256",
          "name": "index",
          "type": "uint256"
        }
      ],
      "name": "getRoleMember",
      "outputs": [
        {
          "internalType": "address",
          "name": "",
          "type": "address"
        }
      ],
      "stateMutability": "view",
      "type": "function"
    },
    {
      "inputs": [
        {
          "internalType": "bytes32",
          "name": "role",
          "type": "bytes32"
        }
      ],
      "name": "getRoleMemberCount",
      "outputs": [
        {
          "internalType": "uint256",
          "name": "",
          "type": "uint256"
        }
      ],
      "stateMutability": "view",
      "type": "function"
    },
    {
      "inputs": [
        {
          "internalType": "bytes32",
          "name": "role",
          "type": "bytes32"
        },
        {
          "internalType": "address",
          "name": "account",
          "type": "address"
        }
      ],
      "name": "grantRole",
      "outputs": [],
      "stateMutability": "nonpayable",
      "type": "function"
    },
    {
      "inputs": [
        {
          "internalType": "bytes32",
          "name": "role",
          "type": "bytes32"
        },
        {
          "internalType": "address",
          "name": "account",
          "type": "address"
        }
      ],
      "name": "hasRole",
      "outputs": [
        {
          "internalType": "bool",
          "name": "",
          "type": "bool"
        }
      ],
      "stateMutability": "view",
      "type": "function"
    },
    {
      "inputs": [
        {
          "internalType": "string",
          "name": "name",
          "type": "string"
        },
        {
          "internalType": "string",
          "name": "symbol",
          "type": "string"
        },
        {
          "internalType": "string",
          "name": "baseTokenURI",
          "type": "string"
        }
      ],
      "name": "initialize",
      "outputs": [],
      "stateMutability": "nonpayable",
      "type": "function"
    },
    {
      "inputs": [
        {
          "internalType": "address",
          "name": "owner",
          "type": "address"
        },
        {
          "internalType": "address",
          "name": "operator",
          "type": "address"
        }
      ],
      "name": "isApprovedForAll",
      "outputs": [
        {
          "internalType": "bool",
          "name": "",
          "type": "bool"
        }
      ],
      "stateMutability": "view",
      "type": "function"
    },
    {
      "inputs": [
        {
          "internalType": "address",
          "name": "to",
          "type": "address"
        }
      ],
      "name": "mint",
      "outputs": [],
      "stateMutability": "nonpayable",
      "type": "function"
    },
    {
      "inputs": [],
      "name": "name",
      "outputs": [
        {
          "internalType": "string",
          "name": "",
          "type": "string"
        }
      ],
      "stateMutability": "view",
      "type": "function"
    },
    {
      "inputs": [
        {
          "internalType": "uint256",
          "name": "tokenId",
          "type": "uint256"
        }
      ],
      "name": "ownerOf",
      "outputs": [
        {
          "internalType": "address",
          "name": "",
          "type": "address"
        }
      ],
      "stateMutability": "view",
      "type": "function"
    },
    {
      "inputs": [],
      "name": "pause",
      "outputs": [],
      "stateMutability": "nonpayable",
      "type": "function"
    },
    {
      "inputs": [],
      "name": "paused",
      "outputs": [
        {
          "internalType": "bool",
          "name": "",
          "type": "bool"
        }
      ],
      "stateMutability": "view",
      "type": "function"
    },
    {
      "inputs": [
        {
          "internalType": "bytes32",
          "name": "role",
          "type": "bytes32"
        },
        {
          "internalType": "address",
          "name": "account",
          "type": "address"
        }
      ],
      "name": "renounceRole",
      "outputs": [],
      "stateMutability": "nonpayable",
      "type": "function"
    },
    {
      "inputs": [
        {
          "internalType": "bytes32",
          "name": "role",
          "type": "bytes32"
        },
        {
          "internalType": "address",
          "name": "account",
          "type": "address"
        }
      ],
      "name": "revokeRole",
      "outputs": [],
      "stateMutability": "nonpayable",
      "type": "function"
    },
    {
      "inputs": [
        {
          "internalType": "address",
          "name": "from",
          "type": "address"
        },
        {
          "internalType": "address",
          "name": "to",
          "type": "address"
        },
        {
          "internalType": "uint256",
          "name": "tokenId",
          "type": "uint256"
        }
      ],
      "name": "safeTransferFrom",
      "outputs": [],
      "stateMutability": "nonpayable",
      "type": "function"
    },
    {
      "inputs": [
        {
          "internalType": "address",
          "name": "from",
          "type": "address"
        },
        {
          "internalType": "address",
          "name": "to",
          "type": "address"
        },
        {
          "internalType": "uint256",
          "name": "tokenId",
          "type": "uint256"
        },
        {
          "internalType": "bytes",
          "name": "data",
          "type": "bytes"
        }
      ],
      "name": "safeTransferFrom",
      "outputs": [],
      "stateMutability": "nonpayable",
      "type": "function"
    },
    {
      "inputs": [
        {
          "internalType": "address",
          "name": "operator",
          "type": "address"
        },
        {
          "internalType": "bool",
          "name": "approved",
          "type": "bool"
        }
      ],
      "name": "setApprovalForAll",
      "outputs": [],
      "stateMutability": "nonpayable",
      "type": "function"
    },
    {
      "inputs": [
        {
          "internalType": "bytes4",
          "name": "interfaceId",
          "type": "bytes4"
        }
      ],
      "name": "supportsInterface",
      "outputs": [
        {
          "internalType": "bool",
          "name": "",
          "type": "bool"
        }
      ],
      "stateMutability": "view",
      "type": "function"
    },
    {
      "inputs": [],
      "name": "symbol",
      "outputs": [
        {
          "internalType": "string",
          "name": "",
          "type": "string"
        }
      ],
      "stateMutability": "view",
      "type": "function"
    },
    {
      "inputs": [
        {
          "internalType": "uint256",
          "name": "index",
          "type": "uint256"
        }
      ],
      "name": "tokenByIndex",
      "outputs": [
        {
          "internalType": "uint256",
          "name": "",
          "type": "uint256"
        }
      ],
      "stateMutability": "view",
      "type": "function"
    },
    {
      "inputs": [
        {
          "internalType": "address",
          "name": "owner",
          "type": "address"
        },
        {
          "internalType": "uint256",
          "name": "index",
          "type": "uint256"
        }
      ],
      "name": "tokenOfOwnerByIndex",
      "outputs": [
        {
          "internalType": "uint256",
          "name": "",
          "type": "uint256"
        }
      ],
      "stateMutability": "view",
      "type": "function"
    },
    {
      "inputs": [
        {
          "internalType": "uint256",
          "name": "tokenId",
          "type": "uint256"
        }
      ],
      "name": "tokenURI",
      "outputs": [
        {
          "internalType": "string",
          "name": "",
          "type": "string"
        }
      ],
      "stateMutability": "view",
      "type": "function"
    },
    {
      "inputs": [],
      "name": "totalSupply",
      "outputs": [
        {
          "internalType": "uint256",
          "name": "",
          "type": "uint256"
        }
      ],
      "stateMutability": "view",
      "type": "function"
    },
    {
      "inputs": [
        {
          "internalType": "address",
          "name": "from",
          "type": "address"
        },
        {
          "internalType": "address",
          "name": "to",
          "type": "address"
        },
        {
          "internalType": "uint256",
          "name": "tokenId",
          "type": "uint256"
        }
      ],
      "name": "transferFrom",
      "outputs": [],
      "stateMutability": "nonpayable",
      "type": "function"
    },
    {
      "inputs": [],
      "name": "unpause",
      "outputs": [],
      "stateMutability": "nonpayable",
      "type": "function"
    }
  ],
  "bytecode": "0x608060405234801561001057600080fd5b50612a1f806100206000396000f3fe608060405234801561001057600080fd5b50600436106101f05760003560e01c80636a6278421161010f578063a6487c53116100a2578063d539139311610071578063d539139314610416578063d547741f1461043d578063e63ab1e914610450578063e985e9c51461046557600080fd5b8063a6487c53146103ca578063b88d4fde146103dd578063c87b56dd146103f0578063ca15c8731461040357600080fd5b806391d14854116100de57806391d148541461039457806395d89b41146103a7578063a217fddf146103af578063a22cb465146103b757600080fd5b80636a6278421461035357806370a08231146103665780638456cb59146103795780639010d07c1461038157600080fd5b80632f745c591161018757806342966c681161015657806342966c681461030e5780634f6ccce7146103215780635c975abb146103345780636352211e1461034057600080fd5b80632f745c59146102cd57806336568abe146102e05780633f4ba83a146102f357806342842e0e146102fb57600080fd5b806318160ddd116101c357806318160ddd1461027257806323b872dd14610284578063248a9ca3146102975780632f2ff15d146102ba57600080fd5b806301ffc9a7146101f557806306fdde031461021d578063081812fc14610232578063095ea7b31461025d575b600080fd5b610208610203366004612318565b6104a1565b60405190151581526020015b60405180910390f35b6102256104b2565b604051610214919061238d565b6102456102403660046123a0565b610544565b6040516001600160a01b039091168152602001610214565b61027061026b3660046123d5565b61056b565b005b60fd545b604051908152602001610214565b6102706102923660046123ff565b610686565b6102766102a53660046123a0565b60009081526065602052604090206001015490565b6102706102c836600461243b565b6106b8565b6102766102db3660046123d5565b6106dd565b6102706102ee36600461243b565b610773565b6102706107f1565b6102706103093660046123ff565b610887565b61027061031c3660046123a0565b6108a2565b61027661032f3660046123a0565b6108d3565b61015f5460ff16610208565b61024561034e3660046123a0565b610966565b610270610361366004612467565b6109c6565b610276610374366004612467565b610a84565b610270610b0a565b61024561038f366004612482565b610b9c565b6102086103a236600461243b565b610bbb565b610225610be6565b610276600081565b6102706103c53660046124a4565b610bf5565b6102706103d836600461258c565b610c00565b6102706103eb366004612614565b610d17565b6102256103fe3660046123a0565b610d49565b6102766104113660046123a0565b610daf565b6102767f9f2df0fed2c77648de5860a4cc508cd0818c85b8b8a1ab4ceeef8d981c8956a681565b61027061044b36600461243b565b610dc6565b6102766000805160206129ca83398151915281565b610208610473366004612690565b6001600160a01b03918216600090815260ce6020908152604080832093909416825291909152205460ff1690565b60006104ac82610deb565b92915050565b606060c980546104c1906126ba565b80601f01602080910402602001604051908101604052809291908181526020018280546104ed906126ba565b801561053a5780601f1061050f5761010080835404028352916020019161053a565b820191906000526020600020905b81548152906001019060200180831161051d57829003601f168201915b5050505050905090565b600061054f82610e10565b50600090815260cd60205260409020546001600160a01b031690565b600061057682610966565b9050806001600160a01b0316836001600160a01b031614156105e95760405162461bcd60e51b815260206004820152602160248201527f4552433732313a20617070726f76616c20746f2063757272656e74206f776e656044820152603960f91b60648201526084015b60405180910390fd5b336001600160a01b038216148061060557506106058133610473565b6106775760405162461bcd60e51b815260206004820152603d60248201527f4552433732313a20617070726f76652063616c6c6572206973206e6f7420746f60448201527f6b656e206f776e6572206f7220617070726f76656420666f7220616c6c00000060648201526084016105e0565b6106818383610e6f565b505050565b610691335b82610edd565b6106ad5760405162461bcd60e51b81526004016105e0906126f5565b610681838383610f5c565b6000828152606560205260409020600101546106d3816110cd565b61068183836110d7565b60006106e883610a84565b821061074a5760405162461bcd60e51b815260206004820152602b60248201527f455243373231456e756d657261626c653a206f776e657220696e646578206f7560448201526a74206f6620626f756e647360a81b60648201526084016105e0565b506001600160a01b0391909116600090815260fb60209081526040808320938352929052205490565b6001600160a01b03811633146107e35760405162461bcd60e51b815260206004820152602f60248201527f416363657373436f6e74726f6c3a2063616e206f6e6c792072656e6f756e636560448201526e103937b632b9903337b91039b2b63360891b60648201526084016105e0565b6107ed82826110f9565b5050565b6108096000805160206129ca83398151915233610bbb565b61087d576040805162461bcd60e51b81526020600482015260248101919091527f4552433732315072657365744d696e7465725061757365724175746f49643a2060448201527f6d75737420686176652070617573657220726f6c6520746f20756e706175736560648201526084016105e0565b61088561111b565b565b61068183838360405180602001604052806000815250610d17565b6108ab3361068b565b6108c75760405162461bcd60e51b81526004016105e0906126f5565b6108d08161116e565b50565b60006108de60fd5490565b82106109415760405162461bcd60e51b815260206004820152602c60248201527f455243373231456e756d657261626c653a20676c6f62616c20696e646578206f60448201526b7574206f6620626f756e647360a01b60648201526084016105e0565b60fd828154811061095457610954612742565b90600052602060002001549050919050565b600081815260cb60205260408120546001600160a01b0316806104ac5760405162461bcd60e51b8152602060048201526018602482015277115490cdcc8c4e881a5b9d985b1a59081d1bdad95b88125160421b60448201526064016105e0565b6109f07f9f2df0fed2c77648de5860a4cc508cd0818c85b8b8a1ab4ceeef8d981c8956a633610bbb565b610a625760405162461bcd60e51b815260206004820152603d60248201527f4552433732315072657365744d696e7465725061757365724175746f49643a2060448201527f6d7573742068617665206d696e74657220726f6c6520746f206d696e7400000060648201526084016105e0565b610a7581610a706101c35490565b611211565b6108d06101c380546001019055565b60006001600160a01b038216610aee5760405162461bcd60e51b815260206004820152602960248201527f4552433732313a2061646472657373207a65726f206973206e6f7420612076616044820152683634b21037bbb732b960b91b60648201526084016105e0565b506001600160a01b0316600090815260cc602052604090205490565b610b226000805160206129ca83398151915233610bbb565b610b945760405162461bcd60e51b815260206004820152603e60248201527f4552433732315072657365744d696e7465725061757365724175746f49643a2060448201527f6d75737420686176652070617573657220726f6c6520746f207061757365000060648201526084016105e0565b6108856113aa565b6000828152609760205260408120610bb490836113e8565b9392505050565b60009182526065602090815260408084206001600160a01b0393909316845291905290205460ff1690565b606060ca80546104c1906126ba565b6107ed3383836113f4565b600054610100900460ff1615808015610c205750600054600160ff909116105b80610c3a5750303b158015610c3a575060005460ff166001145b610c9d5760405162461bcd60e51b815260206004820152602e60248201527f496e697469616c697a61626c653a20636f6e747261637420697320616c72656160448201526d191e481a5b9a5d1a585b1a5e995960921b60648201526084016105e0565b6000805460ff191660011790558015610cc0576000805461ff0019166101001790555b610ccb8484846114c3565b8015610d11576000805461ff0019169055604051600181527f7f26b83ff96e1f2b6a682f133852f6798a09c465da95921460cefb38474024989060200160405180910390a15b50505050565b610d213383610edd565b610d3d5760405162461bcd60e51b81526004016105e0906126f5565b610d1184848484611507565b6060610d5482610e10565b6000610d5e61153a565b90506000815111610d7e5760405180602001604052806000815250610bb4565b80610d888461154a565b604051602001610d99929190612758565b6040516020818303038152906040529392505050565b60008181526097602052604081206104ac906115e7565b600082815260656020526040902060010154610de1816110cd565b61068183836110f9565b60006001600160e01b0319821663780e9d6360e01b14806104ac57506104ac826115f1565b600081815260cb60205260409020546001600160a01b03166108d05760405162461bcd60e51b8152602060048201526018602482015277115490cdcc8c4e881a5b9d985b1a59081d1bdad95b88125160421b60448201526064016105e0565b600081815260cd6020526040902080546001600160a01b0319166001600160a01b0384169081179091558190610ea482610966565b6001600160a01b03167f8c5be1e5ebec7d5bd14f71427d1e84f3dd0314c0f7b2291e5b200ac8c7c3b92560405160405180910390a45050565b600080610ee983610966565b9050806001600160a01b0316846001600160a01b03161480610f3057506001600160a01b03808216600090815260ce602090815260408083209388168352929052205460ff165b80610f545750836001600160a01b0316610f4984610544565b6001600160a01b0316145b949350505050565b826001600160a01b0316610f6f82610966565b6001600160a01b031614610f955760405162461bcd60e51b81526004016105e090612787565b6001600160a01b038216610ff75760405162461bcd60e51b8152602060048201526024808201527f4552433732313a207472616e7366657220746f20746865207a65726f206164646044820152637265737360e01b60648201526084016105e0565b6110048383836001611631565b826001600160a01b031661101782610966565b6001600160a01b03161461103d5760405162461bcd60e51b81526004016105e090612787565b600081815260cd6020908152604080832080546001600160a01b03199081169091556001600160a01b0387811680865260cc855283862080546000190190559087168086528386208054600101905586865260cb90945282852080549092168417909155905184937fddf252ad1be2c89b69c2b068fc378daa952ba7f163c4a11628f55a4df523b3ef91a4505050565b6108d0813361163d565b6110e18282611696565b6000828152609760205260409020610681908261171c565b6111038282611731565b60008281526097602052604090206106819082611798565b6111236117ad565b61015f805460ff191690557f5db9ee0a495bf2e6ff9c91a7834c1ba4fdd244a5e8aa4e537bd38aeae4b073aa335b6040516001600160a01b03909116815260200160405180910390a1565b600061117982610966565b9050611189816000846001611631565b61119282610966565b600083815260cd6020908152604080832080546001600160a01b03199081169091556001600160a01b03851680855260cc8452828520805460001901905587855260cb909352818420805490911690555192935084927fddf252ad1be2c89b69c2b068fc378daa952ba7f163c4a11628f55a4df523b3ef908390a45050565b6001600160a01b0382166112675760405162461bcd60e51b815260206004820181905260248201527f4552433732313a206d696e7420746f20746865207a65726f206164647265737360448201526064016105e0565b600081815260cb60205260409020546001600160a01b0316156112cc5760405162461bcd60e51b815260206004820152601c60248201527f4552433732313a20746f6b656e20616c7265616479206d696e7465640000000060448201526064016105e0565b6112da600083836001611631565b600081815260cb60205260409020546001600160a01b03161561133f5760405162461bcd60e51b815260206004820152601c60248201527f4552433732313a20746f6b656e20616c7265616479206d696e7465640000000060448201526064016105e0565b6001600160a01b038216600081815260cc602090815260408083208054600101905584835260cb90915280822080546001600160a01b0319168417905551839291907fddf252ad1be2c89b69c2b068fc378daa952ba7f163c4a11628f55a4df523b3ef908290a45050565b6113b26117f7565b61015f805460ff191660011790557f62e78cea01bee320cd4e420270b5ea74000d11b0c9f74754ebdbfc544b05a2586111513390565b6000610bb4838361183e565b816001600160a01b0316836001600160a01b031614156114565760405162461bcd60e51b815260206004820152601960248201527f4552433732313a20617070726f766520746f2063616c6c65720000000000000060448201526064016105e0565b6001600160a01b03838116600081815260ce6020908152604080832094871680845294825291829020805460ff191686151590811790915591519182527f17307eab39ab6107e8899845ad3d59bd9653f200f220920489ca2b5937696c31910160405180910390a3505050565b600054610100900460ff166114ea5760405162461bcd60e51b81526004016105e0906127cc565b6114f48383611868565b6114fc6118b6565b6106818383836118ea565b611512848484610f5c565b61151e84848484611973565b610d115760405162461bcd60e51b81526004016105e090612817565b60606101c480546104c1906126ba565b6060600061155783611a71565b600101905060008167ffffffffffffffff811115611577576115776124e0565b6040519080825280601f01601f1916602001820160405280156115a1576020820181803683370190505b5090508181016020015b600019016f181899199a1a9b1b9c1cb0b131b232b360811b600a86061a8153600a85049450846115da576115df565b6115ab565b509392505050565b60006104ac825490565b60006001600160e01b031982166380ac58cd60e01b148061162257506001600160e01b03198216635b5e139f60e01b145b806104ac57506104ac82611b49565b610d1184848484611b6e565b6116478282610bbb565b6107ed5761165481611be2565b61165f836020611bf4565b604051602001611670929190612869565b60408051601f198184030181529082905262461bcd60e51b82526105e09160040161238d565b6116a08282610bbb565b6107ed5760008281526065602090815260408083206001600160a01b03851684529091529020805460ff191660011790556116d83390565b6001600160a01b0316816001600160a01b0316837f2f8788117e7eff1d82e926ec794901d17c78024a50270940304540a733656f0d60405160405180910390a45050565b6000610bb4836001600160a01b038416611d90565b61173b8282610bbb565b156107ed5760008281526065602090815260408083206001600160a01b0385168085529252808320805460ff1916905551339285917ff6391f5c32d9c69d2a47ea670b442974b53935d1edc7fd64eb21e047a839171b9190a45050565b6000610bb4836001600160a01b038416611ddf565b61015f5460ff166108855760405162461bcd60e51b815260206004820152601460248201527314185d5cd8589b194e881b9bdd081c185d5cd95960621b60448201526064016105e0565b61015f5460ff16156108855760405162461bcd60e51b815260206004820152601060248201526f14185d5cd8589b194e881c185d5cd95960821b60448201526064016105e0565b600082600001828154811061185557611855612742565b9060005260206000200154905092915050565b600054610100900460ff1661188f5760405162461bcd60e51b81526004016105e0906127cc565b81516118a29060c9906020850190612269565b5080516106819060ca906020840190612269565b600054610100900460ff166118dd5760405162461bcd60e51b81526004016105e0906127cc565b61015f805460ff19169055565b600054610100900460ff166119115760405162461bcd60e51b81526004016105e0906127cc565b8051611925906101c4906020840190612269565b50611931600033611ed2565b61195b7f9f2df0fed2c77648de5860a4cc508cd0818c85b8b8a1ab4ceeef8d981c8956a633611ed2565b6106816000805160206129ca83398151915233611ed2565b60006001600160a01b0384163b15611a6657604051630a85bd0160e11b81526001600160a01b0385169063150b7a02906119b79033908990889088906004016128de565b6020604051808303816000875af19250505080156119f2575060408051601f3d908101601f191682019092526119ef9181019061291b565b60015b611a4c573d808015611a20576040519150601f19603f3d011682016040523d82523d6000602084013e611a25565b606091505b508051611a445760405162461bcd60e51b81526004016105e090612817565b805181602001fd5b6001600160e01b031916630a85bd0160e11b149050610f54565b506001949350505050565b60008072184f03e93ff9f4daa797ed6e38ed64bf6a1f0160401b8310611ab05772184f03e93ff9f4daa797ed6e38ed64bf6a1f0160401b830492506040015b6d04ee2d6d415b85acef81000000008310611adc576d04ee2d6d415b85acef8100000000830492506020015b662386f26fc100008310611afa57662386f26fc10000830492506010015b6305f5e1008310611b12576305f5e100830492506008015b6127108310611b2657612710830492506004015b60648310611b38576064830492506002015b600a83106104ac5760010192915050565b60006001600160e01b03198216635a05180f60e01b14806104ac57506104ac82611edc565b611b7a84848484611f11565b61015f5460ff1615610d115760405162461bcd60e51b815260206004820152602b60248201527f4552433732315061757361626c653a20746f6b656e207472616e73666572207760448201526a1a1a5b19481c185d5cd95960aa1b60648201526084016105e0565b60606104ac6001600160a01b03831660145b60606000611c0383600261294e565b611c0e90600261296d565b67ffffffffffffffff811115611c2657611c266124e0565b6040519080825280601f01601f191660200182016040528015611c50576020820181803683370190505b509050600360fc1b81600081518110611c6b57611c6b612742565b60200101906001600160f81b031916908160001a905350600f60fb1b81600181518110611c9a57611c9a612742565b60200101906001600160f81b031916908160001a9053506000611cbe84600261294e565b611cc990600161296d565b90505b6001811115611d41576f181899199a1a9b1b9c1cb0b131b232b360811b85600f1660108110611cfd57611cfd612742565b1a60f81b828281518110611d1357611d13612742565b60200101906001600160f81b031916908160001a90535060049490941c93611d3a81612985565b9050611ccc565b508315610bb45760405162461bcd60e51b815260206004820181905260248201527f537472696e67733a20686578206c656e67746820696e73756666696369656e7460448201526064016105e0565b6000818152600183016020526040812054611dd7575081546001818101845560008481526020808220909301849055845484825282860190935260409020919091556104ac565b5060006104ac565b60008181526001830160205260408120548015611ec8576000611e0360018361299c565b8554909150600090611e179060019061299c565b9050818114611e7c576000866000018281548110611e3757611e37612742565b9060005260206000200154905080876000018481548110611e5a57611e5a612742565b6000918252602080832090910192909255918252600188019052604090208390555b8554869080611e8d57611e8d6129b3565b6001900381819060005260206000200160009055905585600101600086815260200190815260200160002060009055600193505050506104ac565b60009150506104ac565b6107ed82826110d7565b60006001600160e01b03198216637965db0b60e01b14806104ac57506301ffc9a760e01b6001600160e01b03198316146104ac565b611f1d84848484612051565b6001811115611f8c5760405162461bcd60e51b815260206004820152603560248201527f455243373231456e756d657261626c653a20636f6e7365637574697665207472604482015274185b9cd9995c9cc81b9bdd081cdd5c1c1bdc9d1959605a1b60648201526084016105e0565b816001600160a01b038516611fe857611fe38160fd8054600083815260fe60205260408120829055600182018355919091527f9346ac6dd7de6b96975fec380d4d994c4c12e6a8897544f22915316cc6cca2800155565b61200b565b836001600160a01b0316856001600160a01b03161461200b5761200b85826120d9565b6001600160a01b0384166120275761202281612176565b61204a565b846001600160a01b0316846001600160a01b03161461204a5761204a8482612225565b5050505050565b6001811115610d11576001600160a01b03841615612097576001600160a01b038416600090815260cc60205260408120805483929061209190849061299c565b90915550505b6001600160a01b03831615610d11576001600160a01b038316600090815260cc6020526040812080548392906120ce90849061296d565b909155505050505050565b600060016120e684610a84565b6120f0919061299c565b600083815260fc6020526040902054909150808214612143576001600160a01b038416600090815260fb60209081526040808320858452825280832054848452818420819055835260fc90915290208190555b50600091825260fc602090815260408084208490556001600160a01b03909416835260fb81528383209183525290812055565b60fd546000906121889060019061299c565b600083815260fe602052604081205460fd80549394509092849081106121b0576121b0612742565b906000526020600020015490508060fd83815481106121d1576121d1612742565b600091825260208083209091019290925582815260fe909152604080822084905585825281205560fd805480612209576122096129b3565b6001900381819060005260206000200160009055905550505050565b600061223083610a84565b6001600160a01b03909316600090815260fb60209081526040808320868452825280832085905593825260fc9052919091209190915550565b828054612275906126ba565b90600052602060002090601f01602090048101928261229757600085556122dd565b82601f106122b057805160ff19168380011785556122dd565b828001600101855582156122dd579182015b828111156122dd5782518255916020019190600101906122c2565b506122e99291506122ed565b5090565b5b808211156122e957600081556001016122ee565b6001600160e01b0319811681146108d057600080fd5b60006020828403121561232a57600080fd5b8135610bb481612302565b60005b83811015612350578181015183820152602001612338565b83811115610d115750506000910152565b60008151808452612379816020860160208601612335565b601f01601f19169290920160200192915050565b602081526000610bb46020830184612361565b6000602082840312156123b257600080fd5b5035919050565b80356001600160a01b03811681146123d057600080fd5b919050565b600080604083850312156123e857600080fd5b6123f1836123b9565b946020939093013593505050565b60008060006060848603121561241457600080fd5b61241d846123b9565b925061242b602085016123b9565b9150604084013590509250925092565b6000806040838503121561244e57600080fd5b8235915061245e602084016123b9565b90509250929050565b60006020828403121561247957600080fd5b610bb4826123b9565b6000806040838503121561249557600080fd5b50508035926020909101359150565b600080604083850312156124b757600080fd5b6124c0836123b9565b9150602083013580151581146124d557600080fd5b809150509250929050565b634e487b7160e01b600052604160045260246000fd5b600067ffffffffffffffff80841115612511576125116124e0565b604051601f8501601f19908116603f01168101908282118183101715612539576125396124e0565b8160405280935085815286868601111561255257600080fd5b858560208301376000602087830101525050509392505050565b600082601f83011261257d57600080fd5b610bb4838335602085016124f6565b6000806000606084860312156125a157600080fd5b833567ffffffffffffffff808211156125b957600080fd5b6125c58783880161256c565b945060208601359150808211156125db57600080fd5b6125e78783880161256c565b935060408601359150808211156125fd57600080fd5b5061260a8682870161256c565b9150509250925092565b6000806000806080858703121561262a57600080fd5b612633856123b9565b9350612641602086016123b9565b925060408501359150606085013567ffffffffffffffff81111561266457600080fd5b8501601f8101871361267557600080fd5b612684878235602084016124f6565b91505092959194509250565b600080604083850312156126a357600080fd5b6126ac836123b9565b915061245e602084016123b9565b600181811c908216806126ce57607f821691505b602082108114156126ef57634e487b7160e01b600052602260045260246000fd5b50919050565b6020808252602d908201527f4552433732313a2063616c6c6572206973206e6f7420746f6b656e206f776e6560408201526c1c881bdc88185c1c1c9bdd9959609a1b606082015260800190565b634e487b7160e01b600052603260045260246000fd5b6000835161276a818460208801612335565b83519083019061277e818360208801612335565b01949350505050565b60208082526025908201527f4552433732313a207472616e736665722066726f6d20696e636f72726563742060408201526437bbb732b960d91b606082015260800190565b6020808252602b908201527f496e697469616c697a61626c653a20636f6e7472616374206973206e6f74206960408201526a6e697469616c697a696e6760a81b606082015260800190565b60208082526032908201527f4552433732313a207472616e7366657220746f206e6f6e20455243373231526560408201527131b2b4bb32b91034b6b83632b6b2b73a32b960711b606082015260800190565b7f416363657373436f6e74726f6c3a206163636f756e74200000000000000000008152600083516128a1816017850160208801612335565b7001034b99036b4b9b9b4b733903937b6329607d1b60179184019182015283516128d2816028840160208801612335565b01602801949350505050565b6001600160a01b038581168252841660208201526040810183905260806060820181905260009061291190830184612361565b9695505050505050565b60006020828403121561292d57600080fd5b8151610bb481612302565b634e487b7160e01b600052601160045260246000fd5b600081600019048311821515161561296857612968612938565b500290565b6000821982111561298057612980612938565b500190565b60008161299457612994612938565b506000190190565b6000828210156129ae576129ae612938565b500390565b634e487b7160e01b600052603160045260246000fdfe65d7a28e3265b37a6474929f336521b332c1681b933f6cb9f3376673440d862aa2646970667358221220bd02e2035b2370602adc2f15ce448e0a2847c43f58082157791e5406391a1a1b64736f6c634300080c0033",
  "linkReferences": {},
  "deployedLinkReferences": {}
}