{
  "_format": "hh-sol-artifact-1",
  "contractName": "TrustlessPhotos",
  "sourceName": "contracts/services/TrustlessPhotos.sol",
  "abi": [
    {
      "anonymous": false,
      "inputs": [
        {
          "indexed": true,
          "internalType": "address",
          "name": "owner",
          "type": "address"
        },
        {
          "indexed": true,
          "internalType": "address",
          "name": "approved",
          "type": "address"
        },
        {
          "indexed": true,
          "internalType": "uint256",
          "name": "tokenId",
          "type": "uint256"
        }
      ],
      "name": "Approval",
      "type": "event"
    },
    {
      "anonymous": false,
      "inputs": [
        {
          "indexed": true,
          "internalType": "address",
          "name": "owner",
          "type": "address"
        },
        {
          "indexed": true,
          "internalType": "address",
          "name": "operator",
          "type": "address"
        },
        {
          "indexed": false,
          "internalType": "bool",
          "name": "approved",
          "type": "bool"
        }
      ],
      "name": "ApprovalForAll",
      "type": "event"
    },
    {
      "anonymous": false,
      "inputs": [
        {
          "indexed": false,
          "internalType": "uint8",
          "name": "version",
          "type": "uint8"
        }
      ],
      "name": "Initialized",
      "type": "event"
    },
    {
      "anonymous": false,
      "inputs": [
        {
          "indexed": true,
          "internalType": "address",
          "name": "previousOwner",
          "type": "address"
        },
        {
          "indexed": true,
          "internalType": "address",
          "name": "newOwner",
          "type": "address"
        }
      ],
      "name": "OwnershipTransferred",
      "type": "event"
    },
    {
      "anonymous": false,
      "inputs": [
        {
          "indexed": true,
          "internalType": "address",
          "name": "from",
          "type": "address"
        },
        {
          "indexed": true,
          "internalType": "address",
          "name": "to",
          "type": "address"
        },
        {
          "indexed": true,
          "internalType": "uint256",
          "name": "tokenId",
          "type": "uint256"
        }
      ],
      "name": "Transfer",
      "type": "event"
    },
    {
      "inputs": [],
      "name": "_admin",
      "outputs": [
        {
          "internalType": "address",
          "name": "",
          "type": "address"
        }
      ],
      "stateMutability": "view",
      "type": "function"
    },
    {
      "inputs": [],
      "name": "_bfsAddr",
      "outputs": [
        {
          "internalType": "address",
          "name": "",
          "type": "address"
        }
      ],
      "stateMutability": "view",
      "type": "function"
    },
    {
      "inputs": [],
      "name": "_index",
      "outputs": [
        {
          "internalType": "uint256",
          "name": "",
          "type": "uint256"
        }
      ],
      "stateMutability": "view",
      "type": "function"
    },
    {
      "inputs": [],
      "name": "_parameterAddr",
      "outputs": [
        {
          "internalType": "address",
          "name": "",
          "type": "address"
        }
      ],
      "stateMutability": "view",
      "type": "function"
    },
    {
      "inputs": [
        {
          "internalType": "address",
          "name": "",
          "type": "address"
        },
        {
          "internalType": "string",
          "name": "",
          "type": "string"
        },
        {
          "internalType": "uint256",
          "name": "",
          "type": "uint256"
        }
      ],
      "name": "albumPhotos",
      "outputs": [
        {
          "internalType": "uint256",
          "name": "",
          "type": "uint256"
        }
      ],
      "stateMutability": "view",
      "type": "function"
    },
    {
      "inputs": [
        {
          "internalType": "address",
          "name": "to",
          "type": "address"
        },
        {
          "internalType": "uint256",
          "name": "tokenId",
          "type": "uint256"
        }
      ],
      "name": "approve",
      "outputs": [],
      "stateMutability": "nonpayable",
      "type": "function"
    },
    {
      "inputs": [
        {
          "internalType": "address",
          "name": "owner",
          "type": "address"
        }
      ],
      "name": "balanceOf",
      "outputs": [
        {
          "internalType": "uint256",
          "name": "",
          "type": "uint256"
        }
      ],
      "stateMutability": "view",
      "type": "function"
    },
    {
      "inputs": [
        {
          "internalType": "address",
          "name": "newAdm",
          "type": "address"
        }
      ],
      "name": "changeAdmin",
      "outputs": [],
      "stateMutability": "nonpayable",
      "type": "function"
    },
    {
      "inputs": [
        {
          "internalType": "address",
          "name": "newAddr",
          "type": "address"
        }
      ],
      "name": "changeBFS",
      "outputs": [],
      "stateMutability": "nonpayable",
      "type": "function"
    },
    {
      "inputs": [
        {
          "internalType": "address",
          "name": "newAdm",
          "type": "address"
        }
      ],
      "name": "changeParam",
      "outputs": [],
      "stateMutability": "nonpayable",
      "type": "function"
    },
    {
      "inputs": [
        {
          "internalType": "string",
          "name": "album",
          "type": "string"
        }
      ],
      "name": "countAlbumPhotos",
      "outputs": [
        {
          "internalType": "uint256",
          "name": "",
          "type": "uint256"
        }
      ],
      "stateMutability": "view",
      "type": "function"
    },
    {
      "inputs": [],
      "name": "countAlbums",
      "outputs": [
        {
          "internalType": "uint256",
          "name": "",
          "type": "uint256"
        }
      ],
      "stateMutability": "view",
      "type": "function"
    },
    {
      "inputs": [],
      "name": "countPhotos",
      "outputs": [
        {
          "internalType": "uint256",
          "name": "",
          "type": "uint256"
        }
      ],
      "stateMutability": "view",
      "type": "function"
    },
    {
      "inputs": [
        {
          "internalType": "uint256",
          "name": "photoIndex",
          "type": "uint256"
        }
      ],
      "name": "download",
      "outputs": [
        {
          "internalType": "bytes[]",
          "name": "data",
          "type": "bytes[]"
        }
      ],
      "stateMutability": "view",
      "type": "function"
    },
    {
      "inputs": [
        {
          "internalType": "uint256",
          "name": "photoIndex",
          "type": "uint256"
        },
        {
          "internalType": "uint256",
          "name": "chunkIndex",
          "type": "uint256"
        }
      ],
      "name": "downloadPartial",
      "outputs": [
        {
          "internalType": "bytes",
          "name": "data",
          "type": "bytes"
        },
        {
          "internalType": "int256",
          "name": "nextChunk",
          "type": "int256"
        }
      ],
      "stateMutability": "view",
      "type": "function"
    },
    {
      "inputs": [
        {
          "internalType": "uint256",
          "name": "tokenId",
          "type": "uint256"
        }
      ],
      "name": "getApproved",
      "outputs": [
        {
          "internalType": "address",
          "name": "",
          "type": "address"
        }
      ],
      "stateMutability": "view",
      "type": "function"
    },
    {
      "inputs": [],
      "name": "getChainID",
      "outputs": [
        {
          "internalType": "uint256",
          "name": "",
          "type": "uint256"
        }
      ],
      "stateMutability": "view",
      "type": "function"
    },
    {
      "inputs": [
        {
          "internalType": "address",
          "name": "admin",
          "type": "address"
        },
        {
          "internalType": "address",
          "name": "parameterControl",
          "type": "address"
        },
        {
          "internalType": "address",
          "name": "bfsAddr",
          "type": "address"
        }
      ],
      "name": "initialize",
      "outputs": [],
      "stateMutability": "nonpayable",
      "type": "function"
    },
    {
      "inputs": [
        {
          "internalType": "address",
          "name": "owner",
          "type": "address"
        },
        {
          "internalType": "address",
          "name": "operator",
          "type": "address"
        }
      ],
      "name": "isApprovedForAll",
      "outputs": [
        {
          "internalType": "bool",
          "name": "",
          "type": "bool"
        }
      ],
      "stateMutability": "view",
      "type": "function"
    },
    {
      "inputs": [
        {
          "internalType": "uint256",
          "name": "photoIndex",
          "type": "uint256"
        }
      ],
      "name": "linkPhoto",
      "outputs": [
        {
          "internalType": "string",
          "name": "",
          "type": "string"
        }
      ],
      "stateMutability": "view",
      "type": "function"
    },
    {
      "inputs": [
        {
          "internalType": "string",
          "name": "album",
          "type": "string"
        }
      ],
      "name": "listAlbumPhotos",
      "outputs": [
        {
          "internalType": "uint256[]",
          "name": "",
          "type": "uint256[]"
        }
      ],
      "stateMutability": "view",
      "type": "function"
    },
    {
      "inputs": [],
      "name": "listAlbums",
      "outputs": [
        {
          "internalType": "string[]",
          "name": "",
          "type": "string[]"
        }
      ],
      "stateMutability": "view",
      "type": "function"
    },
    {
      "inputs": [],
      "name": "listPhotos",
      "outputs": [
        {
          "internalType": "uint256[]",
          "name": "",
          "type": "uint256[]"
        }
      ],
      "stateMutability": "view",
      "type": "function"
    },
    {
      "inputs": [],
      "name": "name",
      "outputs": [
        {
          "internalType": "string",
          "name": "",
          "type": "string"
        }
      ],
      "stateMutability": "view",
      "type": "function"
    },
    {
      "inputs": [
        {
          "internalType": "address",
          "name": "",
          "type": "address"
        },
        {
          "internalType": "uint256",
          "name": "",
          "type": "uint256"
        }
      ],
      "name": "ownedAlbums",
      "outputs": [
        {
          "internalType": "string",
          "name": "",
          "type": "string"
        }
      ],
      "stateMutability": "view",
      "type": "function"
    },
    {
      "inputs": [
        {
          "internalType": "address",
          "name": "",
          "type": "address"
        },
        {
          "internalType": "uint256",
          "name": "",
          "type": "uint256"
        }
      ],
      "name": "ownedPhotos",
      "outputs": [
        {
          "internalType": "uint256",
          "name": "",
          "type": "uint256"
        }
      ],
      "stateMutability": "view",
      "type": "function"
    },
    {
      "inputs": [],
      "name": "owner",
      "outputs": [
        {
          "internalType": "address",
          "name": "",
          "type": "address"
        }
      ],
      "stateMutability": "view",
      "type": "function"
    },
    {
      "inputs": [
        {
          "internalType": "uint256",
          "name": "tokenId",
          "type": "uint256"
        }
      ],
      "name": "ownerOf",
      "outputs": [
        {
          "internalType": "address",
          "name": "",
          "type": "address"
        }
      ],
      "stateMutability": "view",
      "type": "function"
    },
    {
      "inputs": [],
      "name": "renounceOwnership",
      "outputs": [],
      "stateMutability": "nonpayable",
      "type": "function"
    },
    {
      "inputs": [
        {
          "internalType": "address",
          "name": "from",
          "type": "address"
        },
        {
          "internalType": "address",
          "name": "to",
          "type": "address"
        },
        {
          "internalType": "uint256",
          "name": "tokenId",
          "type": "uint256"
        }
      ],
      "name": "safeTransferFrom",
      "outputs": [],
      "stateMutability": "nonpayable",
      "type": "function"
    },
    {
      "inputs": [
        {
          "internalType": "address",
          "name": "from",
          "type": "address"
        },
        {
          "internalType": "address",
          "name": "to",
          "type": "address"
        },
        {
          "internalType": "uint256",
          "name": "tokenId",
          "type": "uint256"
        },
        {
          "internalType": "bytes",
          "name": "data",
          "type": "bytes"
        }
      ],
      "name": "safeTransferFrom",
      "outputs": [],
      "stateMutability": "nonpayable",
      "type": "function"
    },
    {
      "inputs": [
        {
          "internalType": "address",
          "name": "operator",
          "type": "address"
        },
        {
          "internalType": "bool",
          "name": "approved",
          "type": "bool"
        }
      ],
      "name": "setApprovalForAll",
      "outputs": [],
      "stateMutability": "nonpayable",
      "type": "function"
    },
    {
      "inputs": [
        {
          "internalType": "bytes4",
          "name": "interfaceId",
          "type": "bytes4"
        }
      ],
      "name": "supportsInterface",
      "outputs": [
        {
          "internalType": "bool",
          "name": "",
          "type": "bool"
        }
      ],
      "stateMutability": "view",
      "type": "function"
    },
    {
      "inputs": [],
      "name": "symbol",
      "outputs": [
        {
          "internalType": "string",
          "name": "",
          "type": "string"
        }
      ],
      "stateMutability": "view",
      "type": "function"
    },
    {
      "inputs": [
        {
          "internalType": "uint256",
          "name": "tokenId",
          "type": "uint256"
        }
      ],
      "name": "tokenURI",
      "outputs": [
        {
          "internalType": "string",
          "name": "",
          "type": "string"
        }
      ],
      "stateMutability": "view",
      "type": "function"
    },
    {
      "inputs": [
        {
          "internalType": "address",
          "name": "from",
          "type": "address"
        },
        {
          "internalType": "address",
          "name": "to",
          "type": "address"
        },
        {
          "internalType": "uint256",
          "name": "tokenId",
          "type": "uint256"
        }
      ],
      "name": "transferFrom",
      "outputs": [],
      "stateMutability": "nonpayable",
      "type": "function"
    },
    {
      "inputs": [
        {
          "internalType": "address",
          "name": "newOwner",
          "type": "address"
        }
      ],
      "name": "transferOwnership",
      "outputs": [],
      "stateMutability": "nonpayable",
      "type": "function"
    },
    {
      "inputs": [
        {
          "internalType": "bytes[][]",
          "name": "photos",
          "type": "bytes[][]"
        },
        {
          "internalType": "string",
          "name": "album",
          "type": "string"
        }
      ],
      "name": "upload",
      "outputs": [],
      "stateMutability": "nonpayable",
      "type": "function"
    }
  ],
  "bytecode": "0x608060405234801561001057600080fd5b50612aa7806100206000396000f3fe608060405234801561001057600080fd5b50600436106102325760003560e01c80637abbffd411610130578063a22cb465116100b8578063c87b56dd1161007c578063c87b56dd146104b7578063c98689d2146104ca578063d41a009a146104df578063e985e9c514610500578063f2fde38b1461051657600080fd5b8063a22cb4651461045c578063a4971ca91461046a578063b88d4fde1461047d578063bd3b6f8314610491578063c0c53b8b146104a457600080fd5b80638953112e116100ff5780638953112e146104075780638d20759f1461041d5780638da5cb5b146104305780638f2839701461044157806395d89b411461045457600080fd5b80637abbffd4146103b757806381042374146103cc57806381966478146103df57806387b9c24d146103e757600080fd5b80634072d655116101be57806370a082311161018257806370a0823114610356578063715018a61461036957806372c035cf14610371578063741149b11461038457806379fb8c681461039757600080fd5b80634072d6551461031757806342842e0e146102f157806343bef90b1461032a578063564b81ef1461033d5780636352211e1461034357600080fd5b806306fdde031161020557806306fdde03146102b4578063081812fc146102c9578063095ea7b3146102dd57806323b872dd146102f1578063300e68441461030457600080fd5b80630186108014610237578063018cbd1c1461025357806301bc45c91461026657806301ffc9a714610291575b600080fd5b61024060fe5481565b6040519081526020015b60405180910390f35b6102406102613660046120c5565b610529565b60fb54610279906001600160a01b031681565b6040516001600160a01b03909116815260200161024a565b6102a461029f366004612110565b61055d565b604051901515815260200161024a565b6102bc6105af565b60405161024a9190612185565b6102796102d7366004612198565b50600090565b6102ef6102eb3660046121c8565b5050565b005b6102ef6102ff3660046121f2565b505050565b60fd54610279906001600160a01b031681565b6102bc6103253660046121c8565b610641565b6102406103383660046121c8565b6106fb565b46610240565b610279610351366004612198565b61072c565b61024061036436600461222e565b610791565b6102ef610817565b60fc54610279906001600160a01b031681565b6102ef61039236600461222e565b61082b565b6103aa6103a53660046120c5565b6108bc565b60405161024a9190612249565b6103bf61093d565b60405161024a919061228d565b6102ef6103da36600461222e565b610a22565b6103aa610ab4565b6103fa6103f5366004612198565b610b14565b60405161024a91906122ef565b3360009081526101016020526040902054610240565b61024061042b366004612344565b610ceb565b60c9546001600160a01b0316610279565b6102ef61044f36600461222e565b610d39565b6102bc610dcb565b6102ef6102eb36600461239b565b6102bc610478366004612198565b610dda565b6102ef61048b3660046123d7565b50505050565b6102ef61049f366004612463565b610e29565b6102ef6104b23660046125ab565b611080565b6102bc6104c5366004612198565b611242565b33600090815260ff6020526040902054610240565b6104f26104ed3660046125ee565b61126f565b60405161024a929190612610565b6102a461050e366004612632565b600092915050565b6102ef61052436600461222e565b61133c565b33600090815261010060205260408082209051610547908490612665565b9081526040519081900360200190205492915050565b60006001600160e01b031982166380ac58cd60e01b148061058e57506001600160e01b03198216635b5e139f60e01b145b806105a957506301ffc9a760e01b6001600160e01b03198316145b92915050565b6060606580546105be90612681565b80601f01602080910402602001604051908101604052809291908181526020018280546105ea90612681565b80156106375780601f1061060c57610100808354040283529160200191610637565b820191906000526020600020905b81548152906001019060200180831161061a57829003601f168201915b5050505050905090565b610101602052816000526040600020818154811061065e57600080fd5b9060005260206000200160009150915050805461067a90612681565b80601f01602080910402602001604051908101604052809291908181526020018280546106a690612681565b80156106f35780601f106106c8576101008083540402835291602001916106f3565b820191906000526020600020905b8154815290600101906020018083116106d657829003601f168201915b505050505081565b60ff602052816000526040600020818154811061071757600080fd5b90600052602060002001600091509150505481565b6000818152606760205260408120546001600160a01b0316806105a95760405162461bcd60e51b8152602060048201526018602482015277115490cdcc8c4e881a5b9d985b1a59081d1bdad95b88125160421b60448201526064015b60405180910390fd5b60006001600160a01b0382166107fb5760405162461bcd60e51b815260206004820152602960248201527f4552433732313a2061646472657373207a65726f206973206e6f7420612076616044820152683634b21037bbb732b960b91b6064820152608401610788565b506001600160a01b031660009081526068602052604090205490565b61081f6113b2565b610829600061140c565b565b60fb546001600160a01b03163314801561084d57506001600160a01b03811615155b6040518060400160405280600381526020016231303160e81b815250906108875760405162461bcd60e51b81526004016107889190612185565b5060fc546001600160a01b038281169116146108b95760fc80546001600160a01b0319166001600160a01b0383161790555b50565b3360009081526101006020526040908190209051606091906108df908490612665565b908152604080519182900360209081018320805480830285018301909352828452919083018282801561093157602002820191906000526020600020905b81548152602001906001019080831161091d575b50505050509050919050565b33600090815261010160209081526040808320805482518185028101850190935280835260609492939192909184015b82821015610a1957838290600052602060002001805461098c90612681565b80601f01602080910402602001604051908101604052809291908181526020018280546109b890612681565b8015610a055780601f106109da57610100808354040283529160200191610a05565b820191906000526020600020905b8154815290600101906020018083116109e857829003601f168201915b50505050508152602001906001019061096d565b50505050905090565b60fb546001600160a01b031633148015610a4457506001600160a01b03811615155b6040518060400160405280600381526020016231303160e81b81525090610a7e5760405162461bcd60e51b81526004016107889190612185565b5060fd546001600160a01b038281169116146108b95760fd80546001600160a01b0383166001600160a01b031990911617905550565b33600090815260ff602090815260409182902080548351818402810184019094528084526060939283018282801561063757602002820191906000526020600020905b815481526020019060010190808311610af7575050505050905090565b6060610b1f8261072c565b6001600160a01b0316336001600160a01b031614610b3c57919050565b60fd546001600160a01b03166000610b54338561145e565b90506000826001600160a01b031663ba67e64130846040518363ffffffff1660e01b8152600401610b869291906126bc565b602060405180830381865afa158015610ba3573d6000803e3d6000fd5b505050506040513d601f19601f82011682018060405250810190610bc791906126e0565b9050610bd460018261270f565b905060008167ffffffffffffffff811115610bf157610bf1612000565b604051908082528060200260200182016040528015610c2457816020015b6060815260200190600190039081610c0f5790505b50905060005b82811015610ce157600080866001600160a01b031663a0e567643088866040518463ffffffff1660e01b8152600401610c6593929190612727565b600060405180830381865afa158015610c82573d6000803e3d6000fd5b505050506040513d6000823e601f3d908101601f19168201604052610caa919081019061275b565b9150915081848481518110610cc157610cc16127dc565b602002602001018190525050508080610cd9906127f2565b915050610c2a565b5095945050505050565b6101006020908152600084815260409020835180850183018051928152908301928501929092209152805482908110610d2357600080fd5b9060005260206000200160009250925050505481565b60fb546001600160a01b031633148015610d5b57506001600160a01b03811615155b6040518060400160405280600381526020016231303160e81b81525090610d955760405162461bcd60e51b81526004016107889190612185565b5060fb546001600160a01b038281169116146108b95760fb80546001600160a01b0383166001600160a01b031990911617905550565b6060606680546105be90612681565b6060610de58261072c565b6001600160a01b0316336001600160a01b03161415610e10576105a9610e0b338461145e565b61149a565b505060408051602081019091526000815290565b919050565b60005b82518110156102ff5760fe8054906000610e45836127f2565b909155505060fe5460009043610e5c60018261280d565b60408051602081019490945283019190915240606082015242608082015260a00160408051601f1981840301815291905280516020909101209050610fff8116610ea63382611551565b60fd546001600160a01b03166000610ebe338461145e565b905060005b878681518110610ed557610ed56127dc565b602002602001015151811015610f8c57826001600160a01b031663928a4b3e83838b8a81518110610f0857610f086127dc565b60200260200101518581518110610f2157610f216127dc565b60200260200101516040518463ffffffff1660e01b8152600401610f4793929190612824565b600060405180830381600087803b158015610f6157600080fd5b505af1158015610f75573d6000803e3d6000fd5b505050508080610f84906127f2565b915050610ec3565b50610f9f83610f9a8361149a565b61156b565b33600081815260ff6020908152604080832080546001810182559084528284200187905592825261010090528190209051610fdb908890612665565b90815260405190819003602001902054611025573360009081526101016020908152604082208054600181018255908352918190208851611023939190910191890190611f67565b505b3360009081526101006020526040908190209051611044908890612665565b90815260405160209181900382019020805460018101825560009182529190200192909255508291506110789050816127f2565b915050610e2c565b600054610100900460ff16158080156110a05750600054600160ff909116105b806110ba5750303b1580156110ba575060005460ff166001145b61111d5760405162461bcd60e51b815260206004820152602e60248201527f496e697469616c697a61626c653a20636f6e747261637420697320616c72656160448201526d191e481a5b9a5d1a585b1a5e995960921b6064820152608401610788565b6000805460ff191660011790558015611140576000805461ff0019166101001790555b60408051808201909152600381526203130360ec1b60208201526001600160a01b0385166111815760405162461bcd60e51b81526004016107889190612185565b5060fb80546001600160a01b038087166001600160a01b03199283161790925560fc805486841690831617905560fd8054928516929091169190911790556111c7611605565b6111ef6040518060200160405280600081525060405180602001604052806000815250611634565b6111f7611665565b801561048b576000805461ff0019169055604051600181527f7f26b83ff96e1f2b6a682f133852f6798a09c465da95921460cefb38474024989060200160405180910390a150505050565b606061124d8261072c565b6001600160a01b0316336001600160a01b03161415610e10576105a98261168c565b6060600061127c8461072c565b6001600160a01b0316336001600160a01b03161461129d5750600019611335565b60fd546001600160a01b031660006112b5338761145e565b60405163283959d960e21b81529091506001600160a01b0383169063a0e56764906112e890309085908a90600401612727565b600060405180830381865afa158015611305573d6000803e3d6000fd5b505050506040513d6000823e601f3d908101601f1916820160405261132d919081019061275b565b909450925050505b9250929050565b6113446113b2565b6001600160a01b0381166113a95760405162461bcd60e51b815260206004820152602660248201527f4f776e61626c653a206e6577206f776e657220697320746865207a65726f206160448201526564647265737360d01b6064820152608401610788565b6108b98161140c565b60c9546001600160a01b031633146108295760405162461bcd60e51b815260206004820181905260248201527f4f776e61626c653a2063616c6c6572206973206e6f7420746865206f776e65726044820152606401610788565b60c980546001600160a01b038381166001600160a01b0319831681179093556040519116919082907f8be0079c531659141344cd1fd0a4f28419497f9722a3daafe3b4186f6b6457e090600090a35050565b60606114698361179d565b611472836117b3565b604051602001611483929190612859565b604051602081830303815290604052905092915050565b60606000611508306001600160a01b031663564b81ef6040518163ffffffff1660e01b8152600401602060405180830381865afa1580156114df573d6000803e3d6000fd5b505050506040513d601f19601f8201168201806040525081019061150391906126e0565b6117b3565b60fd5461151d906001600160a01b031661179d565b6115263061179d565b8560405160200161153a9493929190612895565b60408051601f198184030181529190529392505050565b6102eb828260405180602001604052806000815250611850565b6000828152606760205260409020546001600160a01b03166115e65760405162461bcd60e51b815260206004820152602e60248201527f45524337323155524953746f726167653a2055524920736574206f66206e6f6e60448201526d32bc34b9ba32b73a103a37b5b2b760911b6064820152608401610788565b600082815260976020908152604090912082516102ff92840190611f67565b600054610100900460ff1661162c5760405162461bcd60e51b81526004016107889061291f565b610829611883565b600054610100900460ff1661165b5760405162461bcd60e51b81526004016107889061291f565b6102eb82826118b3565b600054610100900460ff166108295760405162461bcd60e51b81526004016107889061291f565b606061169782611901565b600082815260976020526040812080546116b090612681565b80601f01602080910402602001604051908101604052809291908181526020018280546116dc90612681565b80156117295780601f106116fe57610100808354040283529160200191611729565b820191906000526020600020905b81548152906001019060200180831161170c57829003601f168201915b50505050509050600061174760408051602081019091526000815290565b905080516000141561175a575092915050565b81511561178c57808260405160200161177492919061296a565b60405160208183030381529060405292505050919050565b61179584611960565b949350505050565b60606105a96001600160a01b03831660146119d4565b606060006117c083611b70565b600101905060008167ffffffffffffffff8111156117e0576117e0612000565b6040519080825280601f01601f19166020018201604052801561180a576020820181803683370190505b5090508181016020015b600019016f181899199a1a9b1b9c1cb0b131b232b360811b600a86061a8153600a850494508461184357611848565b611814565b509392505050565b61185a8383611c48565b6118676000848484611de1565b6102ff5760405162461bcd60e51b815260040161078890612999565b600054610100900460ff166118aa5760405162461bcd60e51b81526004016107889061291f565b6108293361140c565b600054610100900460ff166118da5760405162461bcd60e51b81526004016107889061291f565b81516118ed906065906020850190611f67565b5080516102ff906066906020840190611f67565b6000818152606760205260409020546001600160a01b03166108b95760405162461bcd60e51b8152602060048201526018602482015277115490cdcc8c4e881a5b9d985b1a59081d1bdad95b88125160421b6044820152606401610788565b606061196b82611901565b600061198260408051602081019091526000815290565b905060008151116119a257604051806020016040528060008152506119cd565b806119ac846117b3565b6040516020016119bd92919061296a565b6040516020818303038152906040525b9392505050565b606060006119e38360026129eb565b6119ee90600261270f565b67ffffffffffffffff811115611a0657611a06612000565b6040519080825280601f01601f191660200182016040528015611a30576020820181803683370190505b509050600360fc1b81600081518110611a4b57611a4b6127dc565b60200101906001600160f81b031916908160001a905350600f60fb1b81600181518110611a7a57611a7a6127dc565b60200101906001600160f81b031916908160001a9053506000611a9e8460026129eb565b611aa990600161270f565b90505b6001811115611b21576f181899199a1a9b1b9c1cb0b131b232b360811b85600f1660108110611add57611add6127dc565b1a60f81b828281518110611af357611af36127dc565b60200101906001600160f81b031916908160001a90535060049490941c93611b1a81612a0a565b9050611aac565b5083156119cd5760405162461bcd60e51b815260206004820181905260248201527f537472696e67733a20686578206c656e67746820696e73756666696369656e746044820152606401610788565b60008072184f03e93ff9f4daa797ed6e38ed64bf6a1f0160401b8310611baf5772184f03e93ff9f4daa797ed6e38ed64bf6a1f0160401b830492506040015b6d04ee2d6d415b85acef81000000008310611bdb576d04ee2d6d415b85acef8100000000830492506020015b662386f26fc100008310611bf957662386f26fc10000830492506010015b6305f5e1008310611c11576305f5e100830492506008015b6127108310611c2557612710830492506004015b60648310611c37576064830492506002015b600a83106105a95760010192915050565b6001600160a01b038216611c9e5760405162461bcd60e51b815260206004820181905260248201527f4552433732313a206d696e7420746f20746865207a65726f20616464726573736044820152606401610788565b6000818152606760205260409020546001600160a01b031615611d035760405162461bcd60e51b815260206004820152601c60248201527f4552433732313a20746f6b656e20616c7265616479206d696e746564000000006044820152606401610788565b611d11600083836001611edf565b6000818152606760205260409020546001600160a01b031615611d765760405162461bcd60e51b815260206004820152601c60248201527f4552433732313a20746f6b656e20616c7265616479206d696e746564000000006044820152606401610788565b6001600160a01b038216600081815260686020908152604080832080546001019055848352606790915280822080546001600160a01b0319168417905551839291907fddf252ad1be2c89b69c2b068fc378daa952ba7f163c4a11628f55a4df523b3ef908290a45050565b60006001600160a01b0384163b15611ed457604051630a85bd0160e11b81526001600160a01b0385169063150b7a0290611e25903390899088908890600401612a21565b6020604051808303816000875af1925050508015611e60575060408051601f3d908101601f19168201909252611e5d91810190612a54565b60015b611eba573d808015611e8e576040519150601f19603f3d011682016040523d82523d6000602084013e611e93565b606091505b508051611eb25760405162461bcd60e51b815260040161078890612999565b805181602001fd5b6001600160e01b031916630a85bd0160e11b149050611795565b506001949350505050565b600181111561048b576001600160a01b03841615611f25576001600160a01b03841660009081526068602052604081208054839290611f1f90849061280d565b90915550505b6001600160a01b0383161561048b576001600160a01b03831660009081526068602052604081208054839290611f5c90849061270f565b909155505050505050565b828054611f7390612681565b90600052602060002090601f016020900481019282611f955760008555611fdb565b82601f10611fae57805160ff1916838001178555611fdb565b82800160010185558215611fdb579182015b82811115611fdb578251825591602001919060010190611fc0565b50611fe7929150611feb565b5090565b5b80821115611fe75760008155600101611fec565b634e487b7160e01b600052604160045260246000fd5b604051601f8201601f1916810167ffffffffffffffff8111828210171561203f5761203f612000565b604052919050565b600067ffffffffffffffff82111561206157612061612000565b50601f01601f191660200190565b600082601f83011261208057600080fd5b813561209361208e82612047565b612016565b8181528460208386010111156120a857600080fd5b816020850160208301376000918101602001919091529392505050565b6000602082840312156120d757600080fd5b813567ffffffffffffffff8111156120ee57600080fd5b6117958482850161206f565b6001600160e01b0319811681146108b957600080fd5b60006020828403121561212257600080fd5b81356119cd816120fa565b60005b83811015612148578181015183820152602001612130565b8381111561048b5750506000910152565b6000815180845261217181602086016020860161212d565b601f01601f19169290920160200192915050565b6020815260006119cd6020830184612159565b6000602082840312156121aa57600080fd5b5035919050565b80356001600160a01b0381168114610e2457600080fd5b600080604083850312156121db57600080fd5b6121e4836121b1565b946020939093013593505050565b60008060006060848603121561220757600080fd5b612210846121b1565b925061221e602085016121b1565b9150604084013590509250925092565b60006020828403121561224057600080fd5b6119cd826121b1565b6020808252825182820181905260009190848201906040850190845b8181101561228157835183529284019291840191600101612265565b50909695505050505050565b6000602080830181845280855180835260408601915060408160051b870101925083870160005b828110156122e257603f198886030184526122d0858351612159565b945092850192908501906001016122b4565b5092979650505050505050565b6000602080830181845280855180835260408601915060408160051b870101925083870160005b828110156122e257603f19888603018452612332858351612159565b94509285019290850190600101612316565b60008060006060848603121561235957600080fd5b612362846121b1565b9250602084013567ffffffffffffffff81111561237e57600080fd5b61238a8682870161206f565b925050604084013590509250925092565b600080604083850312156123ae57600080fd5b6123b7836121b1565b9150602083013580151581146123cc57600080fd5b809150509250929050565b600080600080608085870312156123ed57600080fd5b6123f6856121b1565b9350612404602086016121b1565b925060408501359150606085013567ffffffffffffffff81111561242757600080fd5b6124338782880161206f565b91505092959194509250565b600067ffffffffffffffff82111561245957612459612000565b5060051b60200190565b6000806040838503121561247657600080fd5b67ffffffffffffffff808435111561248d57600080fd5b8335840185601f8201126124a057600080fd5b6124ad61208e823561243f565b81358082526020808301929160051b840101888111156124cc57600080fd5b602084015b8181101561257b5785813511156124e757600080fd5b803585018a603f8201126124fa57600080fd5b602081013561250b61208e8261243f565b81815260059190911b82016040019060208101908d83111561252c57600080fd5b604084015b83811015612565578a8135111561254757600080fd5b6125578f6040833588010161206f565b835260209283019201612531565b50875250506020948501949190910190506124d1565b5090955050505060208401358181111561259457600080fd5b6125a08682870161206f565b925050509250929050565b6000806000606084860312156125c057600080fd5b6125c9846121b1565b92506125d7602085016121b1565b91506125e5604085016121b1565b90509250925092565b6000806040838503121561260157600080fd5b50508035926020909101359150565b6040815260006126236040830185612159565b90508260208301529392505050565b6000806040838503121561264557600080fd5b61264e836121b1565b915061265c602084016121b1565b90509250929050565b6000825161267781846020870161212d565b9190910192915050565b600181811c9082168061269557607f821691505b602082108114156126b657634e487b7160e01b600052602260045260246000fd5b50919050565b6001600160a01b038316815260406020820181905260009061179590830184612159565b6000602082840312156126f257600080fd5b5051919050565b634e487b7160e01b600052601160045260246000fd5b60008219821115612722576127226126f9565b500190565b6001600160a01b038416815260606020820181905260009061274b90830185612159565b9050826040830152949350505050565b6000806040838503121561276e57600080fd5b825167ffffffffffffffff81111561278557600080fd5b8301601f8101851361279657600080fd5b80516127a461208e82612047565b8181528660208385010111156127b957600080fd5b6127ca82602083016020860161212d565b60209590950151949694955050505050565b634e487b7160e01b600052603260045260246000fd5b6000600019821415612806576128066126f9565b5060010190565b60008282101561281f5761281f6126f9565b500390565b6060815260006128376060830186612159565b846020840152828103604084015261284f8185612159565b9695505050505050565b6000835161286b81846020880161212d565b602f60f81b908301908152835161288981600184016020880161212d565b01600101949350505050565b656266733a2f2f60d01b8152600085516128b6816006850160208a0161212d565b8083019050602f60f81b80600683015286516128d9816007850160208b0161212d565b6007920191820181905285516128f6816008850160208a0161212d565b6008920191820152835161291181600984016020880161212d565b016009019695505050505050565b6020808252602b908201527f496e697469616c697a61626c653a20636f6e7472616374206973206e6f74206960408201526a6e697469616c697a696e6760a81b606082015260800190565b6000835161297c81846020880161212d565b83519083019061299081836020880161212d565b01949350505050565b60208082526032908201527f4552433732313a207472616e7366657220746f206e6f6e20455243373231526560408201527131b2b4bb32b91034b6b83632b6b2b73a32b960711b606082015260800190565b6000816000190483118215151615612a0557612a056126f9565b500290565b600081612a1957612a196126f9565b506000190190565b6001600160a01b038581168252841660208201526040810183905260806060820181905260009061284f90830184612159565b600060208284031215612a6657600080fd5b81516119cd816120fa56fea2646970667358221220384bfbf78c66ecc201477ab69138120776b7175e02f786b26e16f86c69e0412464736f6c634300080c0033",
  "linkReferences": {},
  "deployedLinkReferences": {}
}