{
  "_format": "hh-sol-artifact-1",
  "contractName": "TrustlessPhotos",
  "sourceName": "contracts/services/TrustlessPhotos.sol",
  "abi": [
    {
      "anonymous": false,
      "inputs": [
        {
          "indexed": true,
          "internalType": "address",
          "name": "owner",
          "type": "address"
        },
        {
          "indexed": true,
          "internalType": "address",
          "name": "approved",
          "type": "address"
        },
        {
          "indexed": true,
          "internalType": "uint256",
          "name": "tokenId",
          "type": "uint256"
        }
      ],
      "name": "Approval",
      "type": "event"
    },
    {
      "anonymous": false,
      "inputs": [
        {
          "indexed": true,
          "internalType": "address",
          "name": "owner",
          "type": "address"
        },
        {
          "indexed": true,
          "internalType": "address",
          "name": "operator",
          "type": "address"
        },
        {
          "indexed": false,
          "internalType": "bool",
          "name": "approved",
          "type": "bool"
        }
      ],
      "name": "ApprovalForAll",
      "type": "event"
    },
    {
      "anonymous": false,
      "inputs": [
        {
          "indexed": false,
          "internalType": "uint8",
          "name": "version",
          "type": "uint8"
        }
      ],
      "name": "Initialized",
      "type": "event"
    },
    {
      "anonymous": false,
      "inputs": [
        {
          "indexed": true,
          "internalType": "address",
          "name": "previousOwner",
          "type": "address"
        },
        {
          "indexed": true,
          "internalType": "address",
          "name": "newOwner",
          "type": "address"
        }
      ],
      "name": "OwnershipTransferred",
      "type": "event"
    },
    {
      "anonymous": false,
      "inputs": [
        {
          "indexed": true,
          "internalType": "address",
          "name": "from",
          "type": "address"
        },
        {
          "indexed": true,
          "internalType": "address",
          "name": "to",
          "type": "address"
        },
        {
          "indexed": true,
          "internalType": "uint256",
          "name": "tokenId",
          "type": "uint256"
        }
      ],
      "name": "Transfer",
      "type": "event"
    },
    {
      "inputs": [],
      "name": "_admin",
      "outputs": [
        {
          "internalType": "address",
          "name": "",
          "type": "address"
        }
      ],
      "stateMutability": "view",
      "type": "function"
    },
    {
      "inputs": [],
      "name": "_bfsAddr",
      "outputs": [
        {
          "internalType": "address",
          "name": "",
          "type": "address"
        }
      ],
      "stateMutability": "view",
      "type": "function"
    },
    {
      "inputs": [],
      "name": "_index",
      "outputs": [
        {
          "internalType": "uint256",
          "name": "",
          "type": "uint256"
        }
      ],
      "stateMutability": "view",
      "type": "function"
    },
    {
      "inputs": [],
      "name": "_parameterAddr",
      "outputs": [
        {
          "internalType": "address",
          "name": "",
          "type": "address"
        }
      ],
      "stateMutability": "view",
      "type": "function"
    },
    {
      "inputs": [
        {
          "internalType": "address",
          "name": "",
          "type": "address"
        },
        {
          "internalType": "string",
          "name": "",
          "type": "string"
        },
        {
          "internalType": "uint256",
          "name": "",
          "type": "uint256"
        }
      ],
      "name": "albumPhotos",
      "outputs": [
        {
          "internalType": "uint256",
          "name": "",
          "type": "uint256"
        }
      ],
      "stateMutability": "view",
      "type": "function"
    },
    {
      "inputs": [
        {
          "internalType": "address",
          "name": "to",
          "type": "address"
        },
        {
          "internalType": "uint256",
          "name": "tokenId",
          "type": "uint256"
        }
      ],
      "name": "approve",
      "outputs": [],
      "stateMutability": "nonpayable",
      "type": "function"
    },
    {
      "inputs": [
        {
          "internalType": "address",
          "name": "owner",
          "type": "address"
        }
      ],
      "name": "balanceOf",
      "outputs": [
        {
          "internalType": "uint256",
          "name": "",
          "type": "uint256"
        }
      ],
      "stateMutability": "view",
      "type": "function"
    },
    {
      "inputs": [
        {
          "internalType": "address",
          "name": "newAdm",
          "type": "address"
        }
      ],
      "name": "changeAdmin",
      "outputs": [],
      "stateMutability": "nonpayable",
      "type": "function"
    },
    {
      "inputs": [
        {
          "internalType": "address",
          "name": "newAddr",
          "type": "address"
        }
      ],
      "name": "changeBFS",
      "outputs": [],
      "stateMutability": "nonpayable",
      "type": "function"
    },
    {
      "inputs": [
        {
          "internalType": "address",
          "name": "newAdm",
          "type": "address"
        }
      ],
      "name": "changeParam",
      "outputs": [],
      "stateMutability": "nonpayable",
      "type": "function"
    },
    {
      "inputs": [
        {
          "internalType": "string",
          "name": "album",
          "type": "string"
        }
      ],
      "name": "countAlbumPhotos",
      "outputs": [
        {
          "internalType": "uint256",
          "name": "",
          "type": "uint256"
        }
      ],
      "stateMutability": "view",
      "type": "function"
    },
    {
      "inputs": [],
      "name": "countAlbums",
      "outputs": [
        {
          "internalType": "uint256",
          "name": "",
          "type": "uint256"
        }
      ],
      "stateMutability": "view",
      "type": "function"
    },
    {
      "inputs": [],
      "name": "countPhotos",
      "outputs": [
        {
          "internalType": "uint256",
          "name": "",
          "type": "uint256"
        }
      ],
      "stateMutability": "view",
      "type": "function"
    },
    {
      "inputs": [
        {
          "internalType": "uint256",
          "name": "photoIndex",
          "type": "uint256"
        }
      ],
      "name": "download",
      "outputs": [
        {
          "internalType": "bytes[]",
          "name": "data",
          "type": "bytes[]"
        }
      ],
      "stateMutability": "view",
      "type": "function"
    },
    {
      "inputs": [
        {
          "internalType": "uint256",
          "name": "photoIndex",
          "type": "uint256"
        },
        {
          "internalType": "uint256",
          "name": "chunkIndex",
          "type": "uint256"
        }
      ],
      "name": "downloadPartial",
      "outputs": [
        {
          "internalType": "bytes",
          "name": "data",
          "type": "bytes"
        },
        {
          "internalType": "int256",
          "name": "nextChunk",
          "type": "int256"
        }
      ],
      "stateMutability": "view",
      "type": "function"
    },
    {
      "inputs": [
        {
          "internalType": "uint256",
          "name": "tokenId",
          "type": "uint256"
        }
      ],
      "name": "getApproved",
      "outputs": [
        {
          "internalType": "address",
          "name": "",
          "type": "address"
        }
      ],
      "stateMutability": "view",
      "type": "function"
    },
    {
      "inputs": [],
      "name": "getChainID",
      "outputs": [
        {
          "internalType": "uint256",
          "name": "",
          "type": "uint256"
        }
      ],
      "stateMutability": "view",
      "type": "function"
    },
    {
      "inputs": [
        {
          "internalType": "address",
          "name": "admin",
          "type": "address"
        },
        {
          "internalType": "address",
          "name": "parameterControl",
          "type": "address"
        },
        {
          "internalType": "address",
          "name": "bfsAddr",
          "type": "address"
        }
      ],
      "name": "initialize",
      "outputs": [],
      "stateMutability": "nonpayable",
      "type": "function"
    },
    {
      "inputs": [
        {
          "internalType": "address",
          "name": "owner",
          "type": "address"
        },
        {
          "internalType": "address",
          "name": "operator",
          "type": "address"
        }
      ],
      "name": "isApprovedForAll",
      "outputs": [
        {
          "internalType": "bool",
          "name": "",
          "type": "bool"
        }
      ],
      "stateMutability": "view",
      "type": "function"
    },
    {
      "inputs": [
        {
          "internalType": "uint256",
          "name": "photoIndex",
          "type": "uint256"
        }
      ],
      "name": "linkPhoto",
      "outputs": [
        {
          "internalType": "string",
          "name": "",
          "type": "string"
        }
      ],
      "stateMutability": "view",
      "type": "function"
    },
    {
      "inputs": [
        {
          "internalType": "string",
          "name": "album",
          "type": "string"
        }
      ],
      "name": "listAlbumPhotos",
      "outputs": [
        {
          "internalType": "uint256[]",
          "name": "",
          "type": "uint256[]"
        }
      ],
      "stateMutability": "view",
      "type": "function"
    },
    {
      "inputs": [],
      "name": "listAlbums",
      "outputs": [
        {
          "internalType": "string[]",
          "name": "",
          "type": "string[]"
        }
      ],
      "stateMutability": "view",
      "type": "function"
    },
    {
      "inputs": [],
      "name": "listPhotos",
      "outputs": [
        {
          "internalType": "uint256[]",
          "name": "",
          "type": "uint256[]"
        }
      ],
      "stateMutability": "view",
      "type": "function"
    },
    {
      "inputs": [],
      "name": "name",
      "outputs": [
        {
          "internalType": "string",
          "name": "",
          "type": "string"
        }
      ],
      "stateMutability": "view",
      "type": "function"
    },
    {
      "inputs": [
        {
          "internalType": "address",
          "name": "",
          "type": "address"
        },
        {
          "internalType": "uint256",
          "name": "",
          "type": "uint256"
        }
      ],
      "name": "ownedAlbums",
      "outputs": [
        {
          "internalType": "string",
          "name": "",
          "type": "string"
        }
      ],
      "stateMutability": "view",
      "type": "function"
    },
    {
      "inputs": [
        {
          "internalType": "address",
          "name": "",
          "type": "address"
        },
        {
          "internalType": "uint256",
          "name": "",
          "type": "uint256"
        }
      ],
      "name": "ownedPhotos",
      "outputs": [
        {
          "internalType": "uint256",
          "name": "",
          "type": "uint256"
        }
      ],
      "stateMutability": "view",
      "type": "function"
    },
    {
      "inputs": [],
      "name": "owner",
      "outputs": [
        {
          "internalType": "address",
          "name": "",
          "type": "address"
        }
      ],
      "stateMutability": "view",
      "type": "function"
    },
    {
      "inputs": [
        {
          "internalType": "uint256",
          "name": "tokenId",
          "type": "uint256"
        }
      ],
      "name": "ownerOf",
      "outputs": [
        {
          "internalType": "address",
          "name": "",
          "type": "address"
        }
      ],
      "stateMutability": "view",
      "type": "function"
    },
    {
      "inputs": [],
      "name": "renounceOwnership",
      "outputs": [],
      "stateMutability": "nonpayable",
      "type": "function"
    },
    {
      "inputs": [
        {
          "internalType": "address",
          "name": "from",
          "type": "address"
        },
        {
          "internalType": "address",
          "name": "to",
          "type": "address"
        },
        {
          "internalType": "uint256",
          "name": "tokenId",
          "type": "uint256"
        }
      ],
      "name": "safeTransferFrom",
      "outputs": [],
      "stateMutability": "nonpayable",
      "type": "function"
    },
    {
      "inputs": [
        {
          "internalType": "address",
          "name": "from",
          "type": "address"
        },
        {
          "internalType": "address",
          "name": "to",
          "type": "address"
        },
        {
          "internalType": "uint256",
          "name": "tokenId",
          "type": "uint256"
        },
        {
          "internalType": "bytes",
          "name": "data",
          "type": "bytes"
        }
      ],
      "name": "safeTransferFrom",
      "outputs": [],
      "stateMutability": "nonpayable",
      "type": "function"
    },
    {
      "inputs": [
        {
          "internalType": "address",
          "name": "operator",
          "type": "address"
        },
        {
          "internalType": "bool",
          "name": "approved",
          "type": "bool"
        }
      ],
      "name": "setApprovalForAll",
      "outputs": [],
      "stateMutability": "nonpayable",
      "type": "function"
    },
    {
      "inputs": [
        {
          "internalType": "bytes4",
          "name": "interfaceId",
          "type": "bytes4"
        }
      ],
      "name": "supportsInterface",
      "outputs": [
        {
          "internalType": "bool",
          "name": "",
          "type": "bool"
        }
      ],
      "stateMutability": "view",
      "type": "function"
    },
    {
      "inputs": [],
      "name": "symbol",
      "outputs": [
        {
          "internalType": "string",
          "name": "",
          "type": "string"
        }
      ],
      "stateMutability": "view",
      "type": "function"
    },
    {
      "inputs": [
        {
          "internalType": "uint256",
          "name": "tokenId",
          "type": "uint256"
        }
      ],
      "name": "tokenURI",
      "outputs": [
        {
          "internalType": "string",
          "name": "",
          "type": "string"
        }
      ],
      "stateMutability": "view",
      "type": "function"
    },
    {
      "inputs": [
        {
          "internalType": "address",
          "name": "from",
          "type": "address"
        },
        {
          "internalType": "address",
          "name": "to",
          "type": "address"
        },
        {
          "internalType": "uint256",
          "name": "tokenId",
          "type": "uint256"
        }
      ],
      "name": "transferFrom",
      "outputs": [],
      "stateMutability": "nonpayable",
      "type": "function"
    },
    {
      "inputs": [
        {
          "internalType": "address",
          "name": "newOwner",
          "type": "address"
        }
      ],
      "name": "transferOwnership",
      "outputs": [],
      "stateMutability": "nonpayable",
      "type": "function"
    },
    {
      "inputs": [
        {
          "internalType": "bytes[][]",
          "name": "photos",
          "type": "bytes[][]"
        },
        {
          "internalType": "string",
          "name": "album",
          "type": "string"
        }
      ],
      "name": "upload",
      "outputs": [],
      "stateMutability": "nonpayable",
      "type": "function"
    }
  ],
  "bytecode": "0x608060405234801561001057600080fd5b50612a71806100206000396000f3fe608060405234801561001057600080fd5b50600436106102325760003560e01c80637abbffd411610130578063a22cb465116100b8578063c87b56dd1161007c578063c87b56dd146104b7578063c98689d2146104ca578063d41a009a146104df578063e985e9c514610500578063f2fde38b1461051657600080fd5b8063a22cb4651461045c578063a4971ca91461046a578063b88d4fde1461047d578063bd3b6f8314610491578063c0c53b8b146104a457600080fd5b80638953112e116100ff5780638953112e146104075780638d20759f1461041d5780638da5cb5b146104305780638f2839701461044157806395d89b411461045457600080fd5b80637abbffd4146103b757806381042374146103cc57806381966478146103df57806387b9c24d146103e757600080fd5b80634072d655116101be57806370a082311161018257806370a0823114610356578063715018a61461036957806372c035cf14610371578063741149b11461038457806379fb8c681461039757600080fd5b80634072d6551461031757806342842e0e146102f157806343bef90b1461032a578063564b81ef1461033d5780636352211e1461034357600080fd5b806306fdde031161020557806306fdde03146102b4578063081812fc146102c9578063095ea7b3146102dd57806323b872dd146102f1578063300e68441461030457600080fd5b80630186108014610237578063018cbd1c1461025357806301bc45c91461026657806301ffc9a714610291575b600080fd5b61024060fe5481565b6040519081526020015b60405180910390f35b61024061026136600461208f565b610529565b60fb54610279906001600160a01b031681565b6040516001600160a01b03909116815260200161024a565b6102a461029f3660046120da565b61055d565b604051901515815260200161024a565b6102bc6105af565b60405161024a919061214f565b6102796102d7366004612162565b50600090565b6102ef6102eb366004612192565b5050565b005b6102ef6102ff3660046121bc565b505050565b60fd54610279906001600160a01b031681565b6102bc610325366004612192565b610641565b610240610338366004612192565b6106fb565b46610240565b610279610351366004612162565b61072c565b6102406103643660046121f8565b610791565b6102ef610817565b60fc54610279906001600160a01b031681565b6102ef6103923660046121f8565b61082b565b6103aa6103a536600461208f565b6108bc565b60405161024a9190612213565b6103bf61093d565b60405161024a9190612257565b6102ef6103da3660046121f8565b610a22565b6103aa610ab4565b6103fa6103f5366004612162565b610b14565b60405161024a91906122b9565b3360009081526101016020526040902054610240565b61024061042b36600461230e565b610ceb565b60c9546001600160a01b0316610279565b6102ef61044f3660046121f8565b610d39565b6102bc610dcb565b6102ef6102eb366004612365565b6102bc610478366004612162565b610dda565b6102ef61048b3660046123a1565b50505050565b6102ef61049f36600461242d565b610e29565b6102ef6104b2366004612575565b61104a565b6102bc6104c5366004612162565b61120c565b33600090815260ff6020526040902054610240565b6104f26104ed3660046125b8565b611239565b60405161024a9291906125da565b6102a461050e3660046125fc565b600092915050565b6102ef6105243660046121f8565b611306565b3360009081526101006020526040808220905161054790849061262f565b9081526040519081900360200190205492915050565b60006001600160e01b031982166380ac58cd60e01b148061058e57506001600160e01b03198216635b5e139f60e01b145b806105a957506301ffc9a760e01b6001600160e01b03198316145b92915050565b6060606580546105be9061264b565b80601f01602080910402602001604051908101604052809291908181526020018280546105ea9061264b565b80156106375780601f1061060c57610100808354040283529160200191610637565b820191906000526020600020905b81548152906001019060200180831161061a57829003601f168201915b5050505050905090565b610101602052816000526040600020818154811061065e57600080fd5b9060005260206000200160009150915050805461067a9061264b565b80601f01602080910402602001604051908101604052809291908181526020018280546106a69061264b565b80156106f35780601f106106c8576101008083540402835291602001916106f3565b820191906000526020600020905b8154815290600101906020018083116106d657829003601f168201915b505050505081565b60ff602052816000526040600020818154811061071757600080fd5b90600052602060002001600091509150505481565b6000818152606760205260408120546001600160a01b0316806105a95760405162461bcd60e51b8152602060048201526018602482015277115490cdcc8c4e881a5b9d985b1a59081d1bdad95b88125160421b60448201526064015b60405180910390fd5b60006001600160a01b0382166107fb5760405162461bcd60e51b815260206004820152602960248201527f4552433732313a2061646472657373207a65726f206973206e6f7420612076616044820152683634b21037bbb732b960b91b6064820152608401610788565b506001600160a01b031660009081526068602052604090205490565b61081f61137c565b61082960006113d6565b565b60fb546001600160a01b03163314801561084d57506001600160a01b03811615155b6040518060400160405280600381526020016231303160e81b815250906108875760405162461bcd60e51b8152600401610788919061214f565b5060fc546001600160a01b038281169116146108b95760fc80546001600160a01b0319166001600160a01b0383161790555b50565b3360009081526101006020526040908190209051606091906108df90849061262f565b908152604080519182900360209081018320805480830285018301909352828452919083018282801561093157602002820191906000526020600020905b81548152602001906001019080831161091d575b50505050509050919050565b33600090815261010160209081526040808320805482518185028101850190935280835260609492939192909184015b82821015610a1957838290600052602060002001805461098c9061264b565b80601f01602080910402602001604051908101604052809291908181526020018280546109b89061264b565b8015610a055780601f106109da57610100808354040283529160200191610a05565b820191906000526020600020905b8154815290600101906020018083116109e857829003601f168201915b50505050508152602001906001019061096d565b50505050905090565b60fb546001600160a01b031633148015610a4457506001600160a01b03811615155b6040518060400160405280600381526020016231303160e81b81525090610a7e5760405162461bcd60e51b8152600401610788919061214f565b5060fd546001600160a01b038281169116146108b95760fd80546001600160a01b0383166001600160a01b031990911617905550565b33600090815260ff602090815260409182902080548351818402810184019094528084526060939283018282801561063757602002820191906000526020600020905b815481526020019060010190808311610af7575050505050905090565b6060610b1f8261072c565b6001600160a01b0316336001600160a01b031614610b3c57919050565b60fd546001600160a01b03166000610b543385611428565b90506000826001600160a01b031663ba67e64130846040518363ffffffff1660e01b8152600401610b86929190612686565b602060405180830381865afa158015610ba3573d6000803e3d6000fd5b505050506040513d601f19601f82011682018060405250810190610bc791906126aa565b9050610bd46001826126d9565b905060008167ffffffffffffffff811115610bf157610bf1611fca565b604051908082528060200260200182016040528015610c2457816020015b6060815260200190600190039081610c0f5790505b50905060005b82811015610ce157600080866001600160a01b031663a0e567643088866040518463ffffffff1660e01b8152600401610c65939291906126f1565b600060405180830381865afa158015610c82573d6000803e3d6000fd5b505050506040513d6000823e601f3d908101601f19168201604052610caa9190810190612725565b9150915081848481518110610cc157610cc16127a6565b602002602001018190525050508080610cd9906127bc565b915050610c2a565b5095945050505050565b6101006020908152600084815260409020835180850183018051928152908301928501929092209152805482908110610d2357600080fd5b9060005260206000200160009250925050505481565b60fb546001600160a01b031633148015610d5b57506001600160a01b03811615155b6040518060400160405280600381526020016231303160e81b81525090610d955760405162461bcd60e51b8152600401610788919061214f565b5060fb546001600160a01b038281169116146108b95760fb80546001600160a01b0383166001600160a01b031990911617905550565b6060606680546105be9061264b565b6060610de58261072c565b6001600160a01b0316336001600160a01b03161415610e10576105a9610e0b3384611428565b611464565b505060408051602081019091526000815290565b919050565b60005b82518110156102ff5760fe8054906000610e45836127bc565b909155505060fe5460009043610e5c6001826127d7565b60408051602081019490945283019190915240606082015242608082015260a00160408051601f1981840301815291905280516020909101209050610fff8116610ea6338261151b565b60fd546001600160a01b03166000610ebe3384611428565b905060005b878681518110610ed557610ed56127a6565b602002602001015151811015610f8c57826001600160a01b031663928a4b3e83838b8a81518110610f0857610f086127a6565b60200260200101518581518110610f2157610f216127a6565b60200260200101516040518463ffffffff1660e01b8152600401610f47939291906127ee565b600060405180830381600087803b158015610f6157600080fd5b505af1158015610f75573d6000803e3d6000fd5b505050508080610f84906127bc565b915050610ec3565b50610f9f83610f9a83611464565b611535565b33600081815260ff602090815260408083208054600181810183559185528385200188905593835261010182528220805493840181558252908190208851610fee939190910191890190611f31565b50336000908152610100602052604090819020905161100e90889061262f565b90815260405160209181900382019020805460018101825560009182529190200192909255508291506110429050816127bc565b915050610e2c565b600054610100900460ff161580801561106a5750600054600160ff909116105b806110845750303b158015611084575060005460ff166001145b6110e75760405162461bcd60e51b815260206004820152602e60248201527f496e697469616c697a61626c653a20636f6e747261637420697320616c72656160448201526d191e481a5b9a5d1a585b1a5e995960921b6064820152608401610788565b6000805460ff19166001179055801561110a576000805461ff0019166101001790555b60408051808201909152600381526203130360ec1b60208201526001600160a01b03851661114b5760405162461bcd60e51b8152600401610788919061214f565b5060fb80546001600160a01b038087166001600160a01b03199283161790925560fc805486841690831617905560fd8054928516929091169190911790556111916115cf565b6111b960405180602001604052806000815250604051806020016040528060008152506115fe565b6111c161162f565b801561048b576000805461ff0019169055604051600181527f7f26b83ff96e1f2b6a682f133852f6798a09c465da95921460cefb38474024989060200160405180910390a150505050565b60606112178261072c565b6001600160a01b0316336001600160a01b03161415610e10576105a982611656565b606060006112468461072c565b6001600160a01b0316336001600160a01b03161461126757506000196112ff565b60fd546001600160a01b0316600061127f3387611428565b60405163283959d960e21b81529091506001600160a01b0383169063a0e56764906112b290309085908a906004016126f1565b600060405180830381865afa1580156112cf573d6000803e3d6000fd5b505050506040513d6000823e601f3d908101601f191682016040526112f79190810190612725565b909450925050505b9250929050565b61130e61137c565b6001600160a01b0381166113735760405162461bcd60e51b815260206004820152602660248201527f4f776e61626c653a206e6577206f776e657220697320746865207a65726f206160448201526564647265737360d01b6064820152608401610788565b6108b9816113d6565b60c9546001600160a01b031633146108295760405162461bcd60e51b815260206004820181905260248201527f4f776e61626c653a2063616c6c6572206973206e6f7420746865206f776e65726044820152606401610788565b60c980546001600160a01b038381166001600160a01b0319831681179093556040519116919082907f8be0079c531659141344cd1fd0a4f28419497f9722a3daafe3b4186f6b6457e090600090a35050565b606061143383611767565b61143c8361177d565b60405160200161144d929190612823565b604051602081830303815290604052905092915050565b606060006114d2306001600160a01b031663564b81ef6040518163ffffffff1660e01b8152600401602060405180830381865afa1580156114a9573d6000803e3d6000fd5b505050506040513d601f19601f820116820180604052508101906114cd91906126aa565b61177d565b60fd546114e7906001600160a01b0316611767565b6114f030611767565b85604051602001611504949392919061285f565b60408051601f198184030181529190529392505050565b6102eb82826040518060200160405280600081525061181a565b6000828152606760205260409020546001600160a01b03166115b05760405162461bcd60e51b815260206004820152602e60248201527f45524337323155524953746f726167653a2055524920736574206f66206e6f6e60448201526d32bc34b9ba32b73a103a37b5b2b760911b6064820152608401610788565b600082815260976020908152604090912082516102ff92840190611f31565b600054610100900460ff166115f65760405162461bcd60e51b8152600401610788906128e9565b61082961184d565b600054610100900460ff166116255760405162461bcd60e51b8152600401610788906128e9565b6102eb828261187d565b600054610100900460ff166108295760405162461bcd60e51b8152600401610788906128e9565b6060611661826118cb565b6000828152609760205260408120805461167a9061264b565b80601f01602080910402602001604051908101604052809291908181526020018280546116a69061264b565b80156116f35780601f106116c8576101008083540402835291602001916116f3565b820191906000526020600020905b8154815290600101906020018083116116d657829003601f168201915b50505050509050600061171160408051602081019091526000815290565b9050805160001415611724575092915050565b81511561175657808260405160200161173e929190612934565b60405160208183030381529060405292505050919050565b61175f8461192a565b949350505050565b60606105a96001600160a01b038316601461199e565b6060600061178a83611b3a565b600101905060008167ffffffffffffffff8111156117aa576117aa611fca565b6040519080825280601f01601f1916602001820160405280156117d4576020820181803683370190505b5090508181016020015b600019016f181899199a1a9b1b9c1cb0b131b232b360811b600a86061a8153600a850494508461180d57611812565b6117de565b509392505050565b6118248383611c12565b6118316000848484611dab565b6102ff5760405162461bcd60e51b815260040161078890612963565b600054610100900460ff166118745760405162461bcd60e51b8152600401610788906128e9565b610829336113d6565b600054610100900460ff166118a45760405162461bcd60e51b8152600401610788906128e9565b81516118b7906065906020850190611f31565b5080516102ff906066906020840190611f31565b6000818152606760205260409020546001600160a01b03166108b95760405162461bcd60e51b8152602060048201526018602482015277115490cdcc8c4e881a5b9d985b1a59081d1bdad95b88125160421b6044820152606401610788565b6060611935826118cb565b600061194c60408051602081019091526000815290565b9050600081511161196c5760405180602001604052806000815250611997565b806119768461177d565b604051602001611987929190612934565b6040516020818303038152906040525b9392505050565b606060006119ad8360026129b5565b6119b89060026126d9565b67ffffffffffffffff8111156119d0576119d0611fca565b6040519080825280601f01601f1916602001820160405280156119fa576020820181803683370190505b509050600360fc1b81600081518110611a1557611a156127a6565b60200101906001600160f81b031916908160001a905350600f60fb1b81600181518110611a4457611a446127a6565b60200101906001600160f81b031916908160001a9053506000611a688460026129b5565b611a739060016126d9565b90505b6001811115611aeb576f181899199a1a9b1b9c1cb0b131b232b360811b85600f1660108110611aa757611aa76127a6565b1a60f81b828281518110611abd57611abd6127a6565b60200101906001600160f81b031916908160001a90535060049490941c93611ae4816129d4565b9050611a76565b5083156119975760405162461bcd60e51b815260206004820181905260248201527f537472696e67733a20686578206c656e67746820696e73756666696369656e746044820152606401610788565b60008072184f03e93ff9f4daa797ed6e38ed64bf6a1f0160401b8310611b795772184f03e93ff9f4daa797ed6e38ed64bf6a1f0160401b830492506040015b6d04ee2d6d415b85acef81000000008310611ba5576d04ee2d6d415b85acef8100000000830492506020015b662386f26fc100008310611bc357662386f26fc10000830492506010015b6305f5e1008310611bdb576305f5e100830492506008015b6127108310611bef57612710830492506004015b60648310611c01576064830492506002015b600a83106105a95760010192915050565b6001600160a01b038216611c685760405162461bcd60e51b815260206004820181905260248201527f4552433732313a206d696e7420746f20746865207a65726f20616464726573736044820152606401610788565b6000818152606760205260409020546001600160a01b031615611ccd5760405162461bcd60e51b815260206004820152601c60248201527f4552433732313a20746f6b656e20616c7265616479206d696e746564000000006044820152606401610788565b611cdb600083836001611ea9565b6000818152606760205260409020546001600160a01b031615611d405760405162461bcd60e51b815260206004820152601c60248201527f4552433732313a20746f6b656e20616c7265616479206d696e746564000000006044820152606401610788565b6001600160a01b038216600081815260686020908152604080832080546001019055848352606790915280822080546001600160a01b0319168417905551839291907fddf252ad1be2c89b69c2b068fc378daa952ba7f163c4a11628f55a4df523b3ef908290a45050565b60006001600160a01b0384163b15611e9e57604051630a85bd0160e11b81526001600160a01b0385169063150b7a0290611def9033908990889088906004016129eb565b6020604051808303816000875af1925050508015611e2a575060408051601f3d908101601f19168201909252611e2791810190612a1e565b60015b611e84573d808015611e58576040519150601f19603f3d011682016040523d82523d6000602084013e611e5d565b606091505b508051611e7c5760405162461bcd60e51b815260040161078890612963565b805181602001fd5b6001600160e01b031916630a85bd0160e11b14905061175f565b506001949350505050565b600181111561048b576001600160a01b03841615611eef576001600160a01b03841660009081526068602052604081208054839290611ee99084906127d7565b90915550505b6001600160a01b0383161561048b576001600160a01b03831660009081526068602052604081208054839290611f269084906126d9565b909155505050505050565b828054611f3d9061264b565b90600052602060002090601f016020900481019282611f5f5760008555611fa5565b82601f10611f7857805160ff1916838001178555611fa5565b82800160010185558215611fa5579182015b82811115611fa5578251825591602001919060010190611f8a565b50611fb1929150611fb5565b5090565b5b80821115611fb15760008155600101611fb6565b634e487b7160e01b600052604160045260246000fd5b604051601f8201601f1916810167ffffffffffffffff8111828210171561200957612009611fca565b604052919050565b600067ffffffffffffffff82111561202b5761202b611fca565b50601f01601f191660200190565b600082601f83011261204a57600080fd5b813561205d61205882612011565b611fe0565b81815284602083860101111561207257600080fd5b816020850160208301376000918101602001919091529392505050565b6000602082840312156120a157600080fd5b813567ffffffffffffffff8111156120b857600080fd5b61175f84828501612039565b6001600160e01b0319811681146108b957600080fd5b6000602082840312156120ec57600080fd5b8135611997816120c4565b60005b838110156121125781810151838201526020016120fa565b8381111561048b5750506000910152565b6000815180845261213b8160208601602086016120f7565b601f01601f19169290920160200192915050565b6020815260006119976020830184612123565b60006020828403121561217457600080fd5b5035919050565b80356001600160a01b0381168114610e2457600080fd5b600080604083850312156121a557600080fd5b6121ae8361217b565b946020939093013593505050565b6000806000606084860312156121d157600080fd5b6121da8461217b565b92506121e86020850161217b565b9150604084013590509250925092565b60006020828403121561220a57600080fd5b6119978261217b565b6020808252825182820181905260009190848201906040850190845b8181101561224b5783518352928401929184019160010161222f565b50909695505050505050565b6000602080830181845280855180835260408601915060408160051b870101925083870160005b828110156122ac57603f1988860301845261229a858351612123565b9450928501929085019060010161227e565b5092979650505050505050565b6000602080830181845280855180835260408601915060408160051b870101925083870160005b828110156122ac57603f198886030184526122fc858351612123565b945092850192908501906001016122e0565b60008060006060848603121561232357600080fd5b61232c8461217b565b9250602084013567ffffffffffffffff81111561234857600080fd5b61235486828701612039565b925050604084013590509250925092565b6000806040838503121561237857600080fd5b6123818361217b565b91506020830135801515811461239657600080fd5b809150509250929050565b600080600080608085870312156123b757600080fd5b6123c08561217b565b93506123ce6020860161217b565b925060408501359150606085013567ffffffffffffffff8111156123f157600080fd5b6123fd87828801612039565b91505092959194509250565b600067ffffffffffffffff82111561242357612423611fca565b5060051b60200190565b6000806040838503121561244057600080fd5b67ffffffffffffffff808435111561245757600080fd5b8335840185601f82011261246a57600080fd5b6124776120588235612409565b81358082526020808301929160051b8401018881111561249657600080fd5b602084015b818110156125455785813511156124b157600080fd5b803585018a603f8201126124c457600080fd5b60208101356124d561205882612409565b81815260059190911b82016040019060208101908d8311156124f657600080fd5b604084015b8381101561252f578a8135111561251157600080fd5b6125218f60408335880101612039565b8352602092830192016124fb565b508752505060209485019491909101905061249b565b5090955050505060208401358181111561255e57600080fd5b61256a86828701612039565b925050509250929050565b60008060006060848603121561258a57600080fd5b6125938461217b565b92506125a16020850161217b565b91506125af6040850161217b565b90509250925092565b600080604083850312156125cb57600080fd5b50508035926020909101359150565b6040815260006125ed6040830185612123565b90508260208301529392505050565b6000806040838503121561260f57600080fd5b6126188361217b565b91506126266020840161217b565b90509250929050565b600082516126418184602087016120f7565b9190910192915050565b600181811c9082168061265f57607f821691505b6020821081141561268057634e487b7160e01b600052602260045260246000fd5b50919050565b6001600160a01b038316815260406020820181905260009061175f90830184612123565b6000602082840312156126bc57600080fd5b5051919050565b634e487b7160e01b600052601160045260246000fd5b600082198211156126ec576126ec6126c3565b500190565b6001600160a01b038416815260606020820181905260009061271590830185612123565b9050826040830152949350505050565b6000806040838503121561273857600080fd5b825167ffffffffffffffff81111561274f57600080fd5b8301601f8101851361276057600080fd5b805161276e61205882612011565b81815286602083850101111561278357600080fd5b6127948260208301602086016120f7565b60209590950151949694955050505050565b634e487b7160e01b600052603260045260246000fd5b60006000198214156127d0576127d06126c3565b5060010190565b6000828210156127e9576127e96126c3565b500390565b6060815260006128016060830186612123565b84602084015282810360408401526128198185612123565b9695505050505050565b600083516128358184602088016120f7565b602f60f81b90830190815283516128538160018401602088016120f7565b01600101949350505050565b656266733a2f2f60d01b815260008551612880816006850160208a016120f7565b8083019050602f60f81b80600683015286516128a3816007850160208b016120f7565b6007920191820181905285516128c0816008850160208a016120f7565b600892019182015283516128db8160098401602088016120f7565b016009019695505050505050565b6020808252602b908201527f496e697469616c697a61626c653a20636f6e7472616374206973206e6f74206960408201526a6e697469616c697a696e6760a81b606082015260800190565b600083516129468184602088016120f7565b83519083019061295a8183602088016120f7565b01949350505050565b60208082526032908201527f4552433732313a207472616e7366657220746f206e6f6e20455243373231526560408201527131b2b4bb32b91034b6b83632b6b2b73a32b960711b606082015260800190565b60008160001904831182151516156129cf576129cf6126c3565b500290565b6000816129e3576129e36126c3565b506000190190565b6001600160a01b038581168252841660208201526040810183905260806060820181905260009061281990830184612123565b600060208284031215612a3057600080fd5b8151611997816120c456fea264697066735822122040c93ac445941f41f79083278b8296b3ae8b53f8a595f1522a4975798cf3884064736f6c634300080c0033",
  "linkReferences": {},
  "deployedLinkReferences": {}
}