{
  "_format": "hh-sol-artifact-1",
  "contractName": "TrustlessPhotos",
  "sourceName": "contracts/services/TrustlessPhotos.sol",
  "abi": [
    {
      "anonymous": false,
      "inputs": [
        {
          "indexed": true,
          "internalType": "address",
          "name": "owner",
          "type": "address"
        },
        {
          "indexed": true,
          "internalType": "address",
          "name": "approved",
          "type": "address"
        },
        {
          "indexed": true,
          "internalType": "uint256",
          "name": "tokenId",
          "type": "uint256"
        }
      ],
      "name": "Approval",
      "type": "event"
    },
    {
      "anonymous": false,
      "inputs": [
        {
          "indexed": true,
          "internalType": "address",
          "name": "owner",
          "type": "address"
        },
        {
          "indexed": true,
          "internalType": "address",
          "name": "operator",
          "type": "address"
        },
        {
          "indexed": false,
          "internalType": "bool",
          "name": "approved",
          "type": "bool"
        }
      ],
      "name": "ApprovalForAll",
      "type": "event"
    },
    {
      "anonymous": false,
      "inputs": [
        {
          "indexed": false,
          "internalType": "uint8",
          "name": "version",
          "type": "uint8"
        }
      ],
      "name": "Initialized",
      "type": "event"
    },
    {
      "anonymous": false,
      "inputs": [
        {
          "indexed": true,
          "internalType": "address",
          "name": "previousOwner",
          "type": "address"
        },
        {
          "indexed": true,
          "internalType": "address",
          "name": "newOwner",
          "type": "address"
        }
      ],
      "name": "OwnershipTransferred",
      "type": "event"
    },
    {
      "anonymous": false,
      "inputs": [
        {
          "indexed": true,
          "internalType": "address",
          "name": "from",
          "type": "address"
        },
        {
          "indexed": true,
          "internalType": "address",
          "name": "to",
          "type": "address"
        },
        {
          "indexed": true,
          "internalType": "uint256",
          "name": "tokenId",
          "type": "uint256"
        }
      ],
      "name": "Transfer",
      "type": "event"
    },
    {
      "inputs": [],
      "name": "_admin",
      "outputs": [
        {
          "internalType": "address",
          "name": "",
          "type": "address"
        }
      ],
      "stateMutability": "view",
      "type": "function"
    },
    {
      "inputs": [],
      "name": "_bfsAddr",
      "outputs": [
        {
          "internalType": "address",
          "name": "",
          "type": "address"
        }
      ],
      "stateMutability": "view",
      "type": "function"
    },
    {
      "inputs": [],
      "name": "_index",
      "outputs": [
        {
          "internalType": "uint256",
          "name": "",
          "type": "uint256"
        }
      ],
      "stateMutability": "view",
      "type": "function"
    },
    {
      "inputs": [],
      "name": "_parameterAddr",
      "outputs": [
        {
          "internalType": "address",
          "name": "",
          "type": "address"
        }
      ],
      "stateMutability": "view",
      "type": "function"
    },
    {
      "inputs": [
        {
          "internalType": "address",
          "name": "to",
          "type": "address"
        },
        {
          "internalType": "uint256",
          "name": "tokenId",
          "type": "uint256"
        }
      ],
      "name": "approve",
      "outputs": [],
      "stateMutability": "nonpayable",
      "type": "function"
    },
    {
      "inputs": [
        {
          "internalType": "address",
          "name": "owner",
          "type": "address"
        }
      ],
      "name": "balanceOf",
      "outputs": [
        {
          "internalType": "uint256",
          "name": "",
          "type": "uint256"
        }
      ],
      "stateMutability": "view",
      "type": "function"
    },
    {
      "inputs": [
        {
          "internalType": "address",
          "name": "newAdm",
          "type": "address"
        }
      ],
      "name": "changeAdmin",
      "outputs": [],
      "stateMutability": "nonpayable",
      "type": "function"
    },
    {
      "inputs": [
        {
          "internalType": "address",
          "name": "newAddr",
          "type": "address"
        }
      ],
      "name": "changeBFS",
      "outputs": [],
      "stateMutability": "nonpayable",
      "type": "function"
    },
    {
      "inputs": [
        {
          "internalType": "address",
          "name": "newAdm",
          "type": "address"
        }
      ],
      "name": "changeParam",
      "outputs": [],
      "stateMutability": "nonpayable",
      "type": "function"
    },
    {
      "inputs": [],
      "name": "countPhotos",
      "outputs": [
        {
          "internalType": "uint256",
          "name": "",
          "type": "uint256"
        }
      ],
      "stateMutability": "view",
      "type": "function"
    },
    {
      "inputs": [
        {
          "internalType": "uint256",
          "name": "photoIndex",
          "type": "uint256"
        }
      ],
      "name": "download",
      "outputs": [
        {
          "internalType": "bytes[]",
          "name": "data",
          "type": "bytes[]"
        }
      ],
      "stateMutability": "view",
      "type": "function"
    },
    {
      "inputs": [
        {
          "internalType": "uint256",
          "name": "photoIndex",
          "type": "uint256"
        },
        {
          "internalType": "uint256",
          "name": "chunkIndex",
          "type": "uint256"
        }
      ],
      "name": "downloadPartial",
      "outputs": [
        {
          "internalType": "bytes",
          "name": "data",
          "type": "bytes"
        },
        {
          "internalType": "int256",
          "name": "nextChunk",
          "type": "int256"
        }
      ],
      "stateMutability": "view",
      "type": "function"
    },
    {
      "inputs": [
        {
          "internalType": "uint256",
          "name": "tokenId",
          "type": "uint256"
        }
      ],
      "name": "getApproved",
      "outputs": [
        {
          "internalType": "address",
          "name": "",
          "type": "address"
        }
      ],
      "stateMutability": "view",
      "type": "function"
    },
    {
      "inputs": [],
      "name": "getChainID",
      "outputs": [
        {
          "internalType": "uint256",
          "name": "",
          "type": "uint256"
        }
      ],
      "stateMutability": "view",
      "type": "function"
    },
    {
      "inputs": [
        {
          "internalType": "address",
          "name": "admin",
          "type": "address"
        },
        {
          "internalType": "address",
          "name": "parameterControl",
          "type": "address"
        },
        {
          "internalType": "address",
          "name": "bfsAddr",
          "type": "address"
        }
      ],
      "name": "initialize",
      "outputs": [],
      "stateMutability": "nonpayable",
      "type": "function"
    },
    {
      "inputs": [
        {
          "internalType": "address",
          "name": "owner",
          "type": "address"
        },
        {
          "internalType": "address",
          "name": "operator",
          "type": "address"
        }
      ],
      "name": "isApprovedForAll",
      "outputs": [
        {
          "internalType": "bool",
          "name": "",
          "type": "bool"
        }
      ],
      "stateMutability": "view",
      "type": "function"
    },
    {
      "inputs": [
        {
          "internalType": "uint256",
          "name": "photoIndex",
          "type": "uint256"
        }
      ],
      "name": "linkPhoto",
      "outputs": [
        {
          "internalType": "string",
          "name": "",
          "type": "string"
        }
      ],
      "stateMutability": "view",
      "type": "function"
    },
    {
      "inputs": [],
      "name": "listPhotos",
      "outputs": [
        {
          "internalType": "uint256[]",
          "name": "",
          "type": "uint256[]"
        }
      ],
      "stateMutability": "view",
      "type": "function"
    },
    {
      "inputs": [],
      "name": "name",
      "outputs": [
        {
          "internalType": "string",
          "name": "",
          "type": "string"
        }
      ],
      "stateMutability": "view",
      "type": "function"
    },
    {
      "inputs": [
        {
          "internalType": "address",
          "name": "",
          "type": "address"
        },
        {
          "internalType": "uint256",
          "name": "",
          "type": "uint256"
        }
      ],
      "name": "ownedPhotos",
      "outputs": [
        {
          "internalType": "uint256",
          "name": "",
          "type": "uint256"
        }
      ],
      "stateMutability": "view",
      "type": "function"
    },
    {
      "inputs": [],
      "name": "owner",
      "outputs": [
        {
          "internalType": "address",
          "name": "",
          "type": "address"
        }
      ],
      "stateMutability": "view",
      "type": "function"
    },
    {
      "inputs": [
        {
          "internalType": "uint256",
          "name": "tokenId",
          "type": "uint256"
        }
      ],
      "name": "ownerOf",
      "outputs": [
        {
          "internalType": "address",
          "name": "",
          "type": "address"
        }
      ],
      "stateMutability": "view",
      "type": "function"
    },
    {
      "inputs": [],
      "name": "renounceOwnership",
      "outputs": [],
      "stateMutability": "nonpayable",
      "type": "function"
    },
    {
      "inputs": [
        {
          "internalType": "address",
          "name": "from",
          "type": "address"
        },
        {
          "internalType": "address",
          "name": "to",
          "type": "address"
        },
        {
          "internalType": "uint256",
          "name": "tokenId",
          "type": "uint256"
        }
      ],
      "name": "safeTransferFrom",
      "outputs": [],
      "stateMutability": "nonpayable",
      "type": "function"
    },
    {
      "inputs": [
        {
          "internalType": "address",
          "name": "from",
          "type": "address"
        },
        {
          "internalType": "address",
          "name": "to",
          "type": "address"
        },
        {
          "internalType": "uint256",
          "name": "tokenId",
          "type": "uint256"
        },
        {
          "internalType": "bytes",
          "name": "data",
          "type": "bytes"
        }
      ],
      "name": "safeTransferFrom",
      "outputs": [],
      "stateMutability": "nonpayable",
      "type": "function"
    },
    {
      "inputs": [
        {
          "internalType": "address",
          "name": "operator",
          "type": "address"
        },
        {
          "internalType": "bool",
          "name": "approved",
          "type": "bool"
        }
      ],
      "name": "setApprovalForAll",
      "outputs": [],
      "stateMutability": "nonpayable",
      "type": "function"
    },
    {
      "inputs": [
        {
          "internalType": "bytes4",
          "name": "interfaceId",
          "type": "bytes4"
        }
      ],
      "name": "supportsInterface",
      "outputs": [
        {
          "internalType": "bool",
          "name": "",
          "type": "bool"
        }
      ],
      "stateMutability": "view",
      "type": "function"
    },
    {
      "inputs": [],
      "name": "symbol",
      "outputs": [
        {
          "internalType": "string",
          "name": "",
          "type": "string"
        }
      ],
      "stateMutability": "view",
      "type": "function"
    },
    {
      "inputs": [
        {
          "internalType": "uint256",
          "name": "tokenId",
          "type": "uint256"
        }
      ],
      "name": "tokenURI",
      "outputs": [
        {
          "internalType": "string",
          "name": "",
          "type": "string"
        }
      ],
      "stateMutability": "view",
      "type": "function"
    },
    {
      "inputs": [
        {
          "internalType": "address",
          "name": "from",
          "type": "address"
        },
        {
          "internalType": "address",
          "name": "to",
          "type": "address"
        },
        {
          "internalType": "uint256",
          "name": "tokenId",
          "type": "uint256"
        }
      ],
      "name": "transferFrom",
      "outputs": [],
      "stateMutability": "nonpayable",
      "type": "function"
    },
    {
      "inputs": [
        {
          "internalType": "address",
          "name": "newOwner",
          "type": "address"
        }
      ],
      "name": "transferOwnership",
      "outputs": [],
      "stateMutability": "nonpayable",
      "type": "function"
    },
    {
      "inputs": [
        {
          "internalType": "bytes[][]",
          "name": "photos",
          "type": "bytes[][]"
        }
      ],
      "name": "upload",
      "outputs": [],
      "stateMutability": "nonpayable",
      "type": "function"
    }
  ],
  "bytecode": "0x608060405234801561001057600080fd5b50612528806100206000396000f3fe608060405234801561001057600080fd5b50600436106101f05760003560e01c8063810423741161010f578063a4971ca9116100a2578063c98689d211610071578063c98689d214610411578063d41a009a14610426578063e985e9c514610447578063f2fde38b1461045d57600080fd5b8063a4971ca9146103c4578063b88d4fde146103d7578063c0c53b8b146103eb578063c87b56dd146103fe57600080fd5b80638da5cb5b116100de5780638da5cb5b1461038a5780638f2839701461039b57806395d89b41146103ae578063a22cb465146103b657600080fd5b8063810423741461032f578063819664781461034257806387b9c24d146103575780638c6430e41461037757600080fd5b806342842e0e1161018757806370a082311161015657806370a08231146102ee578063715018a61461030157806372c035cf14610309578063741149b11461031c57600080fd5b806342842e0e1461029c57806343bef90b146102c2578063564b81ef146102d55780636352211e146102db57600080fd5b8063081812fc116101c3578063081812fc14610274578063095ea7b31461028857806323b872dd1461029c578063300e6844146102af57600080fd5b806301861080146101f557806301bc45c91461021157806301ffc9a71461023c57806306fdde031461025f575b600080fd5b6101fe60fe5481565b6040519081526020015b60405180910390f35b60fb54610224906001600160a01b031681565b6040516001600160a01b039091168152602001610208565b61024f61024a366004611bbf565b610470565b6040519015158152602001610208565b6102676104c2565b6040516102089190611c34565b610224610282366004611c47565b50600090565b61029a610296366004611c77565b5050565b005b61029a6102aa366004611ca1565b505050565b60fd54610224906001600160a01b031681565b6101fe6102d0366004611c77565b610554565b466101fe565b6102246102e9366004611c47565b610585565b6101fe6102fc366004611cdd565b6105ea565b61029a610670565b60fc54610224906001600160a01b031681565b61029a61032a366004611cdd565b610684565b61029a61033d366004611cdd565b610715565b61034a6107a7565b6040516102089190611cf8565b61036a610365366004611c47565b610807565b6040516102089190611d3c565b61029a610385366004611e87565b6109b9565b60c9546001600160a01b0316610224565b61029a6103a9366004611cdd565b610b64565b610267610bf6565b61029a610296366004611fa4565b6102676103d2366004611c47565b610c05565b61029a6103e5366004611fe0565b50505050565b61029a6103f9366004612048565b610c54565b61026761040c366004611c47565b610e16565b33600090815260ff60205260409020546101fe565b61043961043436600461208b565b610e43565b6040516102089291906120ad565b61024f6104553660046120cf565b600092915050565b61029a61046b366004611cdd565b610ee5565b60006001600160e01b031982166380ac58cd60e01b14806104a157506001600160e01b03198216635b5e139f60e01b145b806104bc57506301ffc9a760e01b6001600160e01b03198316145b92915050565b6060606580546104d190612102565b80601f01602080910402602001604051908101604052809291908181526020018280546104fd90612102565b801561054a5780601f1061051f5761010080835404028352916020019161054a565b820191906000526020600020905b81548152906001019060200180831161052d57829003601f168201915b5050505050905090565b60ff602052816000526040600020818154811061057057600080fd5b90600052602060002001600091509150505481565b6000818152606760205260408120546001600160a01b0316806104bc5760405162461bcd60e51b8152602060048201526018602482015277115490cdcc8c4e881a5b9d985b1a59081d1bdad95b88125160421b60448201526064015b60405180910390fd5b60006001600160a01b0382166106545760405162461bcd60e51b815260206004820152602960248201527f4552433732313a2061646472657373207a65726f206973206e6f7420612076616044820152683634b21037bbb732b960b91b60648201526084016105e1565b506001600160a01b031660009081526068602052604090205490565b610678610f5b565b6106826000610fb5565b565b60fb546001600160a01b0316331480156106a657506001600160a01b03811615155b6040518060400160405280600381526020016231303160e81b815250906106e05760405162461bcd60e51b81526004016105e19190611c34565b5060fc546001600160a01b038281169116146107125760fc80546001600160a01b0319166001600160a01b0383161790555b50565b60fb546001600160a01b03163314801561073757506001600160a01b03811615155b6040518060400160405280600381526020016231303160e81b815250906107715760405162461bcd60e51b81526004016105e19190611c34565b5060fd546001600160a01b038281169116146107125760fd80546001600160a01b0383166001600160a01b031990911617905550565b33600090815260ff602090815260409182902080548351818402810184019094528084526060939283018282801561054a57602002820191906000526020600020905b8154815260200190600101908083116107ea575050505050905090565b60fd546060906001600160a01b031660006108223385611007565b90506000826001600160a01b031663ba67e64130846040518363ffffffff1660e01b815260040161085492919061213d565b602060405180830381865afa158015610871573d6000803e3d6000fd5b505050506040513d601f19601f820116820180604052508101906108959190612161565b90506108a2600182612190565b905060008167ffffffffffffffff8111156108bf576108bf611d9e565b6040519080825280602002602001820160405280156108f257816020015b60608152602001906001900390816108dd5790505b50905060005b828110156109af57600080866001600160a01b031663a0e567643088866040518463ffffffff1660e01b8152600401610933939291906121a8565b600060405180830381865afa158015610950573d6000803e3d6000fd5b505050506040513d6000823e601f3d908101601f1916820160405261097891908101906121dc565b915091508184848151811061098f5761098f61225d565b6020026020010181905250505080806109a790612273565b9150506108f8565b5095945050505050565b60005b81518110156102965760fe80549060006109d583612273565b909155505060fe54600090436109ec60018261228e565b60408051602081019490945283019190915240606082015242608082015260a00160408051601f1981840301815291905280516020909101209050610fff8116610a363382611043565b60fd546001600160a01b03166000610a4e3384611007565b905060005b868681518110610a6557610a6561225d565b602002602001015151811015610b1c57826001600160a01b031663928a4b3e83838a8a81518110610a9857610a9861225d565b60200260200101518581518110610ab157610ab161225d565b60200260200101516040518463ffffffff1660e01b8152600401610ad7939291906122a5565b600060405180830381600087803b158015610af157600080fd5b505af1158015610b05573d6000803e3d6000fd5b505050508080610b1490612273565b915050610a53565b50610b2f83610b2a8361105d565b611114565b505033600090815260ff6020908152604082208054600181018255908352912001555080610b5c81612273565b9150506109bc565b60fb546001600160a01b031633148015610b8657506001600160a01b03811615155b6040518060400160405280600381526020016231303160e81b81525090610bc05760405162461bcd60e51b81526004016105e19190611c34565b5060fb546001600160a01b038281169116146107125760fb80546001600160a01b0383166001600160a01b031990911617905550565b6060606680546104d190612102565b6060610c1082610585565b6001600160a01b0316336001600160a01b03161415610c3b576104bc610c363384611007565b61105d565b505060408051602081019091526000815290565b919050565b600054610100900460ff1615808015610c745750600054600160ff909116105b80610c8e5750303b158015610c8e575060005460ff166001145b610cf15760405162461bcd60e51b815260206004820152602e60248201527f496e697469616c697a61626c653a20636f6e747261637420697320616c72656160448201526d191e481a5b9a5d1a585b1a5e995960921b60648201526084016105e1565b6000805460ff191660011790558015610d14576000805461ff0019166101001790555b60408051808201909152600381526203130360ec1b60208201526001600160a01b038516610d555760405162461bcd60e51b81526004016105e19190611c34565b5060fb80546001600160a01b038087166001600160a01b03199283161790925560fc805486841690831617905560fd805492851692909116919091179055610d9b6111ae565b610dc360405180602001604052806000815250604051806020016040528060008152506111dd565b610dcb61120e565b80156103e5576000805461ff0019169055604051600181527f7f26b83ff96e1f2b6a682f133852f6798a09c465da95921460cefb38474024989060200160405180910390a150505050565b6060610e2182610585565b6001600160a01b0316336001600160a01b03161415610c3b576104bc82611235565b60fd546060906000906001600160a01b031681610e603387611007565b60405163283959d960e21b81529091506001600160a01b0383169063a0e5676490610e9390309085908a906004016121a8565b600060405180830381865afa158015610eb0573d6000803e3d6000fd5b505050506040513d6000823e601f3d908101601f19168201604052610ed891908101906121dc565b9097909650945050505050565b610eed610f5b565b6001600160a01b038116610f525760405162461bcd60e51b815260206004820152602660248201527f4f776e61626c653a206e6577206f776e657220697320746865207a65726f206160448201526564647265737360d01b60648201526084016105e1565b61071281610fb5565b60c9546001600160a01b031633146106825760405162461bcd60e51b815260206004820181905260248201527f4f776e61626c653a2063616c6c6572206973206e6f7420746865206f776e657260448201526064016105e1565b60c980546001600160a01b038381166001600160a01b0319831681179093556040519116919082907f8be0079c531659141344cd1fd0a4f28419497f9722a3daafe3b4186f6b6457e090600090a35050565b606061101283611346565b61101b8361135c565b60405160200161102c9291906122da565b604051602081830303815290604052905092915050565b6102968282604051806020016040528060008152506113f9565b606060006110cb306001600160a01b031663564b81ef6040518163ffffffff1660e01b8152600401602060405180830381865afa1580156110a2573d6000803e3d6000fd5b505050506040513d601f19601f820116820180604052508101906110c69190612161565b61135c565b60fd546110e0906001600160a01b0316611346565b6110e930611346565b856040516020016110fd9493929190612316565b60408051601f198184030181529190529392505050565b6000828152606760205260409020546001600160a01b031661118f5760405162461bcd60e51b815260206004820152602e60248201527f45524337323155524953746f726167653a2055524920736574206f66206e6f6e60448201526d32bc34b9ba32b73a103a37b5b2b760911b60648201526084016105e1565b600082815260976020908152604090912082516102aa92840190611b10565b600054610100900460ff166111d55760405162461bcd60e51b81526004016105e1906123a0565b61068261142c565b600054610100900460ff166112045760405162461bcd60e51b81526004016105e1906123a0565b610296828261145c565b600054610100900460ff166106825760405162461bcd60e51b81526004016105e1906123a0565b6060611240826114aa565b6000828152609760205260408120805461125990612102565b80601f016020809104026020016040519081016040528092919081815260200182805461128590612102565b80156112d25780601f106112a7576101008083540402835291602001916112d2565b820191906000526020600020905b8154815290600101906020018083116112b557829003601f168201915b5050505050905060006112f060408051602081019091526000815290565b9050805160001415611303575092915050565b81511561133557808260405160200161131d9291906123eb565b60405160208183030381529060405292505050919050565b61133e84611509565b949350505050565b60606104bc6001600160a01b038316601461157d565b6060600061136983611719565b600101905060008167ffffffffffffffff81111561138957611389611d9e565b6040519080825280601f01601f1916602001820160405280156113b3576020820181803683370190505b5090508181016020015b600019016f181899199a1a9b1b9c1cb0b131b232b360811b600a86061a8153600a85049450846113ec576113f1565b6113bd565b509392505050565b61140383836117f1565b611410600084848461198a565b6102aa5760405162461bcd60e51b81526004016105e19061241a565b600054610100900460ff166114535760405162461bcd60e51b81526004016105e1906123a0565b61068233610fb5565b600054610100900460ff166114835760405162461bcd60e51b81526004016105e1906123a0565b8151611496906065906020850190611b10565b5080516102aa906066906020840190611b10565b6000818152606760205260409020546001600160a01b03166107125760405162461bcd60e51b8152602060048201526018602482015277115490cdcc8c4e881a5b9d985b1a59081d1bdad95b88125160421b60448201526064016105e1565b6060611514826114aa565b600061152b60408051602081019091526000815290565b9050600081511161154b5760405180602001604052806000815250611576565b806115558461135c565b6040516020016115669291906123eb565b6040516020818303038152906040525b9392505050565b6060600061158c83600261246c565b611597906002612190565b67ffffffffffffffff8111156115af576115af611d9e565b6040519080825280601f01601f1916602001820160405280156115d9576020820181803683370190505b509050600360fc1b816000815181106115f4576115f461225d565b60200101906001600160f81b031916908160001a905350600f60fb1b816001815181106116235761162361225d565b60200101906001600160f81b031916908160001a905350600061164784600261246c565b611652906001612190565b90505b60018111156116ca576f181899199a1a9b1b9c1cb0b131b232b360811b85600f16601081106116865761168661225d565b1a60f81b82828151811061169c5761169c61225d565b60200101906001600160f81b031916908160001a90535060049490941c936116c38161248b565b9050611655565b5083156115765760405162461bcd60e51b815260206004820181905260248201527f537472696e67733a20686578206c656e67746820696e73756666696369656e7460448201526064016105e1565b60008072184f03e93ff9f4daa797ed6e38ed64bf6a1f0160401b83106117585772184f03e93ff9f4daa797ed6e38ed64bf6a1f0160401b830492506040015b6d04ee2d6d415b85acef81000000008310611784576d04ee2d6d415b85acef8100000000830492506020015b662386f26fc1000083106117a257662386f26fc10000830492506010015b6305f5e10083106117ba576305f5e100830492506008015b61271083106117ce57612710830492506004015b606483106117e0576064830492506002015b600a83106104bc5760010192915050565b6001600160a01b0382166118475760405162461bcd60e51b815260206004820181905260248201527f4552433732313a206d696e7420746f20746865207a65726f206164647265737360448201526064016105e1565b6000818152606760205260409020546001600160a01b0316156118ac5760405162461bcd60e51b815260206004820152601c60248201527f4552433732313a20746f6b656e20616c7265616479206d696e7465640000000060448201526064016105e1565b6118ba600083836001611a88565b6000818152606760205260409020546001600160a01b03161561191f5760405162461bcd60e51b815260206004820152601c60248201527f4552433732313a20746f6b656e20616c7265616479206d696e7465640000000060448201526064016105e1565b6001600160a01b038216600081815260686020908152604080832080546001019055848352606790915280822080546001600160a01b0319168417905551839291907fddf252ad1be2c89b69c2b068fc378daa952ba7f163c4a11628f55a4df523b3ef908290a45050565b60006001600160a01b0384163b15611a7d57604051630a85bd0160e11b81526001600160a01b0385169063150b7a02906119ce9033908990889088906004016124a2565b6020604051808303816000875af1925050508015611a09575060408051601f3d908101601f19168201909252611a06918101906124d5565b60015b611a63573d808015611a37576040519150601f19603f3d011682016040523d82523d6000602084013e611a3c565b606091505b508051611a5b5760405162461bcd60e51b81526004016105e19061241a565b805181602001fd5b6001600160e01b031916630a85bd0160e11b14905061133e565b506001949350505050565b60018111156103e5576001600160a01b03841615611ace576001600160a01b03841660009081526068602052604081208054839290611ac890849061228e565b90915550505b6001600160a01b038316156103e5576001600160a01b03831660009081526068602052604081208054839290611b05908490612190565b909155505050505050565b828054611b1c90612102565b90600052602060002090601f016020900481019282611b3e5760008555611b84565b82601f10611b5757805160ff1916838001178555611b84565b82800160010185558215611b84579182015b82811115611b84578251825591602001919060010190611b69565b50611b90929150611b94565b5090565b5b80821115611b905760008155600101611b95565b6001600160e01b03198116811461071257600080fd5b600060208284031215611bd157600080fd5b813561157681611ba9565b60005b83811015611bf7578181015183820152602001611bdf565b838111156103e55750506000910152565b60008151808452611c20816020860160208601611bdc565b601f01601f19169290920160200192915050565b6020815260006115766020830184611c08565b600060208284031215611c5957600080fd5b5035919050565b80356001600160a01b0381168114610c4f57600080fd5b60008060408385031215611c8a57600080fd5b611c9383611c60565b946020939093013593505050565b600080600060608486031215611cb657600080fd5b611cbf84611c60565b9250611ccd60208501611c60565b9150604084013590509250925092565b600060208284031215611cef57600080fd5b61157682611c60565b6020808252825182820181905260009190848201906040850190845b81811015611d3057835183529284019291840191600101611d14565b50909695505050505050565b6000602080830181845280855180835260408601915060408160051b870101925083870160005b82811015611d9157603f19888603018452611d7f858351611c08565b94509285019290850190600101611d63565b5092979650505050505050565b634e487b7160e01b600052604160045260246000fd5b604051601f8201601f1916810167ffffffffffffffff81118282101715611ddd57611ddd611d9e565b604052919050565b600067ffffffffffffffff821115611dff57611dff611d9e565b5060051b60200190565b600067ffffffffffffffff821115611e2357611e23611d9e565b50601f01601f191660200190565b600082601f830112611e4257600080fd5b8135611e55611e5082611e09565b611db4565b818152846020838601011115611e6a57600080fd5b816020850160208301376000918101602001919091529392505050565b60006020808385031215611e9a57600080fd5b67ffffffffffffffff8084351115611eb157600080fd5b8335840185601f820112611ec457600080fd5b8035611ed2611e5082611de5565b81815260059190911b82018401908481019088831115611ef157600080fd5b8584015b83811015611f97578581351115611f0b57600080fd5b803585018a603f820112611f1e57600080fd5b87810135611f2e611e5082611de5565b81815260059190911b820160400190898101908d831115611f4e57600080fd5b604084015b83811015611f86578a81351115611f6957600080fd5b611f798f60408335880101611e31565b8352918b01918b01611f53565b508652505050918601918601611ef5565b5098975050505050505050565b60008060408385031215611fb757600080fd5b611fc083611c60565b915060208301358015158114611fd557600080fd5b809150509250929050565b60008060008060808587031215611ff657600080fd5b611fff85611c60565b935061200d60208601611c60565b925060408501359150606085013567ffffffffffffffff81111561203057600080fd5b61203c87828801611e31565b91505092959194509250565b60008060006060848603121561205d57600080fd5b61206684611c60565b925061207460208501611c60565b915061208260408501611c60565b90509250925092565b6000806040838503121561209e57600080fd5b50508035926020909101359150565b6040815260006120c06040830185611c08565b90508260208301529392505050565b600080604083850312156120e257600080fd5b6120eb83611c60565b91506120f960208401611c60565b90509250929050565b600181811c9082168061211657607f821691505b6020821081141561213757634e487b7160e01b600052602260045260246000fd5b50919050565b6001600160a01b038316815260406020820181905260009061133e90830184611c08565b60006020828403121561217357600080fd5b5051919050565b634e487b7160e01b600052601160045260246000fd5b600082198211156121a3576121a361217a565b500190565b6001600160a01b03841681526060602082018190526000906121cc90830185611c08565b9050826040830152949350505050565b600080604083850312156121ef57600080fd5b825167ffffffffffffffff81111561220657600080fd5b8301601f8101851361221757600080fd5b8051612225611e5082611e09565b81815286602083850101111561223a57600080fd5b61224b826020830160208601611bdc565b60209590950151949694955050505050565b634e487b7160e01b600052603260045260246000fd5b60006000198214156122875761228761217a565b5060010190565b6000828210156122a0576122a061217a565b500390565b6060815260006122b86060830186611c08565b84602084015282810360408401526122d08185611c08565b9695505050505050565b600083516122ec818460208801611bdc565b602f60f81b908301908152835161230a816001840160208801611bdc565b01600101949350505050565b656266733a2f2f60d01b815260008551612337816006850160208a01611bdc565b8083019050602f60f81b806006830152865161235a816007850160208b01611bdc565b600792019182018190528551612377816008850160208a01611bdc565b60089201918201528351612392816009840160208801611bdc565b016009019695505050505050565b6020808252602b908201527f496e697469616c697a61626c653a20636f6e7472616374206973206e6f74206960408201526a6e697469616c697a696e6760a81b606082015260800190565b600083516123fd818460208801611bdc565b835190830190612411818360208801611bdc565b01949350505050565b60208082526032908201527f4552433732313a207472616e7366657220746f206e6f6e20455243373231526560408201527131b2b4bb32b91034b6b83632b6b2b73a32b960711b606082015260800190565b60008160001904831182151516156124865761248661217a565b500290565b60008161249a5761249a61217a565b506000190190565b6001600160a01b03858116825284166020820152604081018390526080606082018190526000906122d090830184611c08565b6000602082840312156124e757600080fd5b815161157681611ba956fea2646970667358221220d6a38ac40784a4113cb7c71eca6dd73212fcbb06f27c87c99a85ba895e275c0964736f6c634300080c0033",
  "linkReferences": {},
  "deployedLinkReferences": {}
}