{
  "_format": "hh-sol-artifact-1",
  "contractName": "WTC",
  "sourceName": "contracts/erc20/WTC.sol",
  "abi": [
    {
      "anonymous": false,
      "inputs": [
        {
          "indexed": true,
          "internalType": "address",
          "name": "src",
          "type": "address"
        },
        {
          "indexed": true,
          "internalType": "address",
          "name": "guy",
          "type": "address"
        },
        {
          "indexed": false,
          "internalType": "uint256",
          "name": "wad",
          "type": "uint256"
        }
      ],
      "name": "Approval",
      "type": "event"
    },
    {
      "anonymous": false,
      "inputs": [
        {
          "indexed": true,
          "internalType": "address",
          "name": "dst",
          "type": "address"
        },
        {
          "indexed": false,
          "internalType": "uint256",
          "name": "wad",
          "type": "uint256"
        }
      ],
      "name": "Deposit",
      "type": "event"
    },
    {
      "anonymous": false,
      "inputs": [
        {
          "indexed": false,
          "internalType": "uint8",
          "name": "version",
          "type": "uint8"
        }
      ],
      "name": "Initialized",
      "type": "event"
    },
    {
      "anonymous": false,
      "inputs": [
        {
          "indexed": true,
          "internalType": "address",
          "name": "previousOwner",
          "type": "address"
        },
        {
          "indexed": true,
          "internalType": "address",
          "name": "newOwner",
          "type": "address"
        }
      ],
      "name": "OwnershipTransferred",
      "type": "event"
    },
    {
      "anonymous": false,
      "inputs": [
        {
          "indexed": true,
          "internalType": "address",
          "name": "src",
          "type": "address"
        },
        {
          "indexed": true,
          "internalType": "address",
          "name": "dst",
          "type": "address"
        },
        {
          "indexed": false,
          "internalType": "uint256",
          "name": "wad",
          "type": "uint256"
        }
      ],
      "name": "Transfer",
      "type": "event"
    },
    {
      "anonymous": false,
      "inputs": [
        {
          "indexed": true,
          "internalType": "address",
          "name": "src",
          "type": "address"
        },
        {
          "indexed": false,
          "internalType": "uint256",
          "name": "wad",
          "type": "uint256"
        }
      ],
      "name": "Withdrawal",
      "type": "event"
    },
    {
      "inputs": [
        {
          "internalType": "address",
          "name": "",
          "type": "address"
        },
        {
          "internalType": "address",
          "name": "",
          "type": "address"
        }
      ],
      "name": "allowance",
      "outputs": [
        {
          "internalType": "uint256",
          "name": "",
          "type": "uint256"
        }
      ],
      "stateMutability": "view",
      "type": "function"
    },
    {
      "inputs": [
        {
          "internalType": "address",
          "name": "guy",
          "type": "address"
        },
        {
          "internalType": "uint256",
          "name": "wad",
          "type": "uint256"
        }
      ],
      "name": "approve",
      "outputs": [
        {
          "internalType": "bool",
          "name": "",
          "type": "bool"
        }
      ],
      "stateMutability": "nonpayable",
      "type": "function"
    },
    {
      "inputs": [
        {
          "internalType": "address",
          "name": "",
          "type": "address"
        }
      ],
      "name": "balanceOf",
      "outputs": [
        {
          "internalType": "uint256",
          "name": "",
          "type": "uint256"
        }
      ],
      "stateMutability": "view",
      "type": "function"
    },
    {
      "inputs": [],
      "name": "decimals",
      "outputs": [
        {
          "internalType": "uint8",
          "name": "",
          "type": "uint8"
        }
      ],
      "stateMutability": "view",
      "type": "function"
    },
    {
      "inputs": [],
      "name": "deposit",
      "outputs": [],
      "stateMutability": "payable",
      "type": "function"
    },
    {
      "inputs": [],
      "name": "initialize",
      "outputs": [],
      "stateMutability": "nonpayable",
      "type": "function"
    },
    {
      "inputs": [],
      "name": "name",
      "outputs": [
        {
          "internalType": "string",
          "name": "",
          "type": "string"
        }
      ],
      "stateMutability": "view",
      "type": "function"
    },
    {
      "inputs": [],
      "name": "owner",
      "outputs": [
        {
          "internalType": "address",
          "name": "",
          "type": "address"
        }
      ],
      "stateMutability": "view",
      "type": "function"
    },
    {
      "inputs": [],
      "name": "renounceOwnership",
      "outputs": [],
      "stateMutability": "nonpayable",
      "type": "function"
    },
    {
      "inputs": [],
      "name": "symbol",
      "outputs": [
        {
          "internalType": "string",
          "name": "",
          "type": "string"
        }
      ],
      "stateMutability": "view",
      "type": "function"
    },
    {
      "inputs": [],
      "name": "totalSupply",
      "outputs": [
        {
          "internalType": "uint256",
          "name": "",
          "type": "uint256"
        }
      ],
      "stateMutability": "view",
      "type": "function"
    },
    {
      "inputs": [
        {
          "internalType": "address",
          "name": "dst",
          "type": "address"
        },
        {
          "internalType": "uint256",
          "name": "wad",
          "type": "uint256"
        }
      ],
      "name": "transfer",
      "outputs": [
        {
          "internalType": "bool",
          "name": "",
          "type": "bool"
        }
      ],
      "stateMutability": "nonpayable",
      "type": "function"
    },
    {
      "inputs": [
        {
          "internalType": "address",
          "name": "src",
          "type": "address"
        },
        {
          "internalType": "address",
          "name": "dst",
          "type": "address"
        },
        {
          "internalType": "uint256",
          "name": "wad",
          "type": "uint256"
        }
      ],
      "name": "transferFrom",
      "outputs": [
        {
          "internalType": "bool",
          "name": "",
          "type": "bool"
        }
      ],
      "stateMutability": "nonpayable",
      "type": "function"
    },
    {
      "inputs": [
        {
          "internalType": "address",
          "name": "newOwner",
          "type": "address"
        }
      ],
      "name": "transferOwnership",
      "outputs": [],
      "stateMutability": "nonpayable",
      "type": "function"
    },
    {
      "inputs": [
        {
          "internalType": "uint256",
          "name": "wad",
          "type": "uint256"
        }
      ],
      "name": "withdraw",
      "outputs": [],
      "stateMutability": "nonpayable",
      "type": "function"
    },
    {
      "stateMutability": "payable",
      "type": "receive"
    }
  ],
  "bytecode": "0x608060405234801561001057600080fd5b50610b33806100206000396000f3fe6080604052600436106100ec5760003560e01c8063715018a61161008a578063a9059cbb11610059578063a9059cbb146102ab578063d0e30db0146102cb578063dd62ed3e146102d3578063f2fde38b1461030b57600080fd5b8063715018a61461022d5780638129fc1c146102425780638da5cb5b1461025757806395d89b411461027f57600080fd5b806323b872dd116100c657806323b872dd146101945780632e1a7d4d146101b4578063313ce567146101d457806370a082311461020057600080fd5b806306fdde0314610100578063095ea7b31461014557806318160ddd1461017557600080fd5b366100fb576100f961032b565b005b600080fd5b34801561010c57600080fd5b5060408051808201909152600a8152695772617070656420544360b01b60208201525b60405161013c919061092f565b60405180910390f35b34801561015157600080fd5b506101656101603660046109a0565b61039f565b604051901515815260200161013c565b34801561018157600080fd5b506066545b60405190815260200161013c565b3480156101a057600080fd5b506101656101af3660046109ca565b61040b565b3480156101c057600080fd5b506100f96101cf366004610a06565b61058f565b3480156101e057600080fd5b506065546101ee9060ff1681565b60405160ff909116815260200161013c565b34801561020c57600080fd5b5061018661021b366004610a1f565b60676020526000908152604090205481565b34801561023957600080fd5b506100f9610668565b34801561024e57600080fd5b506100f961067c565b34801561026357600080fd5b506033546040516001600160a01b03909116815260200161013c565b34801561028b57600080fd5b5060408051808201909152600381526257544360e81b602082015261012f565b3480156102b757600080fd5b506101656102c63660046109a0565b61079f565b6100f961032b565b3480156102df57600080fd5b506101866102ee366004610a3a565b606860209081526000928352604080842090915290825290205481565b34801561031757600080fd5b506100f9610326366004610a1f565b6107b3565b336000908152606760205260408120805434929061034a908490610a83565b9250508190555034606660008282546103639190610a83565b909155505060405134815233907fe1fffcc4923d04b559f4d29a8bfc6cda04eb5b0d3c460751c2402c5c5cc9109c9060200160405180910390a2565b3360008181526068602090815260408083206001600160a01b038716808552925280832085905551919290917f8c5be1e5ebec7d5bd14f71427d1e84f3dd0314c0f7b2291e5b200ac8c7c3b925906103fa9086815260200190565b60405180910390a350600192915050565b6001600160a01b03831660009081526067602052604081205482111561043057600080fd5b6001600160a01b038416331480159061046e57506001600160a01b038416600090815260686020908152604080832033845290915290205460001914155b156104dc576001600160a01b03841660009081526068602090815260408083203384529091529020548211156104a357600080fd5b6001600160a01b0384166000908152606860209081526040808320338452909152812080548492906104d6908490610a9b565b90915550505b6001600160a01b03841660009081526067602052604081208054849290610504908490610a9b565b90915550506001600160a01b03831660009081526067602052604081208054849290610531908490610a83565b92505081905550826001600160a01b0316846001600160a01b03167fddf252ad1be2c89b69c2b068fc378daa952ba7f163c4a11628f55a4df523b3ef8460405161057d91815260200190565b60405180910390a35060019392505050565b336000908152606760205260409020548111156105ab57600080fd5b33600090815260676020526040812080548392906105ca908490610a9b565b9250508190555080606660008282546105e39190610a9b565b909155505060405133908290600081818185875af1925050503d8060008114610628576040519150601f19603f3d011682016040523d82523d6000602084013e61062d565b606091505b50506040518281523391507f7fcf532c15f0a6db0bd6d0e038bea71d30d808c7d98cb3bf7268a95bf5081b659060200160405180910390a250565b610670610829565b61067a6000610883565b565b600054610100900460ff161580801561069c5750600054600160ff909116105b806106b65750303b1580156106b6575060005460ff166001145b61071e5760405162461bcd60e51b815260206004820152602e60248201527f496e697469616c697a61626c653a20636f6e747261637420697320616c72656160448201526d191e481a5b9a5d1a585b1a5e995960921b60648201526084015b60405180910390fd5b6000805460ff191660011790558015610741576000805461ff0019166101001790555b6065805460ff191660121790556107566108d5565b801561079c576000805461ff0019169055604051600181527f7f26b83ff96e1f2b6a682f133852f6798a09c465da95921460cefb38474024989060200160405180910390a15b50565b60006107ac33848461040b565b9392505050565b6107bb610829565b6001600160a01b0381166108205760405162461bcd60e51b815260206004820152602660248201527f4f776e61626c653a206e6577206f776e657220697320746865207a65726f206160448201526564647265737360d01b6064820152608401610715565b61079c81610883565b6033546001600160a01b0316331461067a5760405162461bcd60e51b815260206004820181905260248201527f4f776e61626c653a2063616c6c6572206973206e6f7420746865206f776e65726044820152606401610715565b603380546001600160a01b038381166001600160a01b0319831681179093556040519116919082907f8be0079c531659141344cd1fd0a4f28419497f9722a3daafe3b4186f6b6457e090600090a35050565b600054610100900460ff166108fc5760405162461bcd60e51b815260040161071590610ab2565b61067a600054610100900460ff166109265760405162461bcd60e51b815260040161071590610ab2565b61067a33610883565b600060208083528351808285015260005b8181101561095c57858101830151858201604001528201610940565b8181111561096e576000604083870101525b50601f01601f1916929092016040019392505050565b80356001600160a01b038116811461099b57600080fd5b919050565b600080604083850312156109b357600080fd5b6109bc83610984565b946020939093013593505050565b6000806000606084860312156109df57600080fd5b6109e884610984565b92506109f660208501610984565b9150604084013590509250925092565b600060208284031215610a1857600080fd5b5035919050565b600060208284031215610a3157600080fd5b6107ac82610984565b60008060408385031215610a4d57600080fd5b610a5683610984565b9150610a6460208401610984565b90509250929050565b634e487b7160e01b600052601160045260246000fd5b60008219821115610a9657610a96610a6d565b500190565b600082821015610aad57610aad610a6d565b500390565b6020808252602b908201527f496e697469616c697a61626c653a20636f6e7472616374206973206e6f74206960408201526a6e697469616c697a696e6760a81b60608201526080019056fea2646970667358221220a077596a15240ee4a4ceec0d3a1e47b18a2c01dac0551cc04d58865161d45bfb64736f6c634300080c0033",
  "linkReferences": {},
  "deployedLinkReferences": {}
}