{
  "_format": "hh-sol-artifact-1",
  "contractName": "SOUL",
  "sourceName": "contracts/nfts/SOUL.sol",
  "abi": [
    {
      "anonymous": false,
      "inputs": [
        {
          "indexed": true,
          "internalType": "address",
          "name": "owner",
          "type": "address"
        },
        {
          "indexed": true,
          "internalType": "address",
          "name": "approved",
          "type": "address"
        },
        {
          "indexed": true,
          "internalType": "uint256",
          "name": "tokenId",
          "type": "uint256"
        }
      ],
      "name": "Approval",
      "type": "event"
    },
    {
      "anonymous": false,
      "inputs": [
        {
          "indexed": true,
          "internalType": "address",
          "name": "owner",
          "type": "address"
        },
        {
          "indexed": true,
          "internalType": "address",
          "name": "operator",
          "type": "address"
        },
        {
          "indexed": false,
          "internalType": "bool",
          "name": "approved",
          "type": "bool"
        }
      ],
      "name": "ApprovalForAll",
      "type": "event"
    },
    {
      "anonymous": false,
      "inputs": [
        {
          "indexed": true,
          "internalType": "uint256",
          "name": "tokenId",
          "type": "uint256"
        },
        {
          "indexed": false,
          "internalType": "address",
          "name": "sender",
          "type": "address"
        },
        {
          "indexed": false,
          "internalType": "uint256",
          "name": "value",
          "type": "uint256"
        },
        {
          "indexed": false,
          "internalType": "bool",
          "name": "extended",
          "type": "bool"
        },
        {
          "components": [
            {
              "internalType": "uint256",
              "name": "tokenId",
              "type": "uint256"
            },
            {
              "internalType": "address",
              "name": "erc20Token",
              "type": "address"
            },
            {
              "internalType": "uint256",
              "name": "amount",
              "type": "uint256"
            },
            {
              "internalType": "uint256",
              "name": "startTime",
              "type": "uint256"
            },
            {
              "internalType": "uint256",
              "name": "endTime",
              "type": "uint256"
            },
            {
              "internalType": "address payable",
              "name": "bidder",
              "type": "address"
            },
            {
              "internalType": "bool",
              "name": "settled",
              "type": "bool"
            },
            {
              "internalType": "uint256",
              "name": "timeBuffer",
              "type": "uint256"
            },
            {
              "internalType": "uint256",
              "name": "reservePrice",
              "type": "uint256"
            },
            {
              "internalType": "uint256",
              "name": "minBidIncrementPercentage",
              "type": "uint256"
            },
            {
              "internalType": "bytes32",
              "name": "auctionId",
              "type": "bytes32"
            }
          ],
          "indexed": false,
          "internalType": "struct AuctionHouse.Auction",
          "name": "auction",
          "type": "tuple"
        }
      ],
      "name": "AuctionBid",
      "type": "event"
    },
    {
      "anonymous": false,
      "inputs": [
        {
          "indexed": true,
          "internalType": "uint256",
          "name": "tokenId",
          "type": "uint256"
        },
        {
          "indexed": false,
          "internalType": "address",
          "name": "sender",
          "type": "address"
        },
        {
          "indexed": false,
          "internalType": "uint256",
          "name": "value",
          "type": "uint256"
        },
        {
          "indexed": false,
          "internalType": "bytes32",
          "name": "auctionId",
          "type": "bytes32"
        }
      ],
      "name": "AuctionClaimBid",
      "type": "event"
    },
    {
      "anonymous": false,
      "inputs": [
        {
          "indexed": true,
          "internalType": "uint256",
          "name": "tokenId",
          "type": "uint256"
        }
      ],
      "name": "AuctionClosed",
      "type": "event"
    },
    {
      "anonymous": false,
      "inputs": [
        {
          "indexed": true,
          "internalType": "uint256",
          "name": "tokenId",
          "type": "uint256"
        },
        {
          "indexed": false,
          "internalType": "uint256",
          "name": "startTime",
          "type": "uint256"
        },
        {
          "indexed": false,
          "internalType": "uint256",
          "name": "endTime",
          "type": "uint256"
        },
        {
          "indexed": false,
          "internalType": "address",
          "name": "sender",
          "type": "address"
        },
        {
          "indexed": false,
          "internalType": "bytes32",
          "name": "auctionId",
          "type": "bytes32"
        },
        {
          "components": [
            {
              "internalType": "uint256",
              "name": "tokenId",
              "type": "uint256"
            },
            {
              "internalType": "address",
              "name": "erc20Token",
              "type": "address"
            },
            {
              "internalType": "uint256",
              "name": "amount",
              "type": "uint256"
            },
            {
              "internalType": "uint256",
              "name": "startTime",
              "type": "uint256"
            },
            {
              "internalType": "uint256",
              "name": "endTime",
              "type": "uint256"
            },
            {
              "internalType": "address payable",
              "name": "bidder",
              "type": "address"
            },
            {
              "internalType": "bool",
              "name": "settled",
              "type": "bool"
            },
            {
              "internalType": "uint256",
              "name": "timeBuffer",
              "type": "uint256"
            },
            {
              "internalType": "uint256",
              "name": "reservePrice",
              "type": "uint256"
            },
            {
              "internalType": "uint256",
              "name": "minBidIncrementPercentage",
              "type": "uint256"
            },
            {
              "internalType": "bytes32",
              "name": "auctionId",
              "type": "bytes32"
            }
          ],
          "indexed": false,
          "internalType": "struct AuctionHouse.Auction",
          "name": "auction",
          "type": "tuple"
        }
      ],
      "name": "AuctionCreated",
      "type": "event"
    },
    {
      "anonymous": false,
      "inputs": [
        {
          "indexed": true,
          "internalType": "uint256",
          "name": "tokenId",
          "type": "uint256"
        },
        {
          "indexed": false,
          "internalType": "uint256",
          "name": "endTime",
          "type": "uint256"
        },
        {
          "components": [
            {
              "internalType": "uint256",
              "name": "tokenId",
              "type": "uint256"
            },
            {
              "internalType": "address",
              "name": "erc20Token",
              "type": "address"
            },
            {
              "internalType": "uint256",
              "name": "amount",
              "type": "uint256"
            },
            {
              "internalType": "uint256",
              "name": "startTime",
              "type": "uint256"
            },
            {
              "internalType": "uint256",
              "name": "endTime",
              "type": "uint256"
            },
            {
              "internalType": "address payable",
              "name": "bidder",
              "type": "address"
            },
            {
              "internalType": "bool",
              "name": "settled",
              "type": "bool"
            },
            {
              "internalType": "uint256",
              "name": "timeBuffer",
              "type": "uint256"
            },
            {
              "internalType": "uint256",
              "name": "reservePrice",
              "type": "uint256"
            },
            {
              "internalType": "uint256",
              "name": "minBidIncrementPercentage",
              "type": "uint256"
            },
            {
              "internalType": "bytes32",
              "name": "auctionId",
              "type": "bytes32"
            }
          ],
          "indexed": false,
          "internalType": "struct AuctionHouse.Auction",
          "name": "auction",
          "type": "tuple"
        }
      ],
      "name": "AuctionExtended",
      "type": "event"
    },
    {
      "anonymous": false,
      "inputs": [
        {
          "indexed": false,
          "internalType": "uint256",
          "name": "minBidIncrementPercentage",
          "type": "uint256"
        }
      ],
      "name": "AuctionMinBidIncrementPercentageUpdated",
      "type": "event"
    },
    {
      "anonymous": false,
      "inputs": [
        {
          "indexed": false,
          "internalType": "uint256",
          "name": "reservePrice",
          "type": "uint256"
        }
      ],
      "name": "AuctionReservePriceUpdated",
      "type": "event"
    },
    {
      "anonymous": false,
      "inputs": [
        {
          "indexed": true,
          "internalType": "uint256",
          "name": "tokenId",
          "type": "uint256"
        },
        {
          "indexed": false,
          "internalType": "address",
          "name": "winner",
          "type": "address"
        },
        {
          "indexed": false,
          "internalType": "uint256",
          "name": "amount",
          "type": "uint256"
        },
        {
          "components": [
            {
              "internalType": "uint256",
              "name": "tokenId",
              "type": "uint256"
            },
            {
              "internalType": "address",
              "name": "erc20Token",
              "type": "address"
            },
            {
              "internalType": "uint256",
              "name": "amount",
              "type": "uint256"
            },
            {
              "internalType": "uint256",
              "name": "startTime",
              "type": "uint256"
            },
            {
              "internalType": "uint256",
              "name": "endTime",
              "type": "uint256"
            },
            {
              "internalType": "address payable",
              "name": "bidder",
              "type": "address"
            },
            {
              "internalType": "bool",
              "name": "settled",
              "type": "bool"
            },
            {
              "internalType": "uint256",
              "name": "timeBuffer",
              "type": "uint256"
            },
            {
              "internalType": "uint256",
              "name": "reservePrice",
              "type": "uint256"
            },
            {
              "internalType": "uint256",
              "name": "minBidIncrementPercentage",
              "type": "uint256"
            },
            {
              "internalType": "bytes32",
              "name": "auctionId",
              "type": "bytes32"
            }
          ],
          "indexed": false,
          "internalType": "struct AuctionHouse.Auction",
          "name": "auction",
          "type": "tuple"
        }
      ],
      "name": "AuctionSettled",
      "type": "event"
    },
    {
      "anonymous": false,
      "inputs": [
        {
          "indexed": false,
          "internalType": "uint256",
          "name": "timeBuffer",
          "type": "uint256"
        }
      ],
      "name": "AuctionTimeBufferUpdated",
      "type": "event"
    },
    {
      "anonymous": false,
      "inputs": [
        {
          "indexed": false,
          "internalType": "uint8",
          "name": "version",
          "type": "uint8"
        }
      ],
      "name": "Initialized",
      "type": "event"
    },
    {
      "anonymous": false,
      "inputs": [
        {
          "indexed": true,
          "internalType": "address",
          "name": "previousOwner",
          "type": "address"
        },
        {
          "indexed": true,
          "internalType": "address",
          "name": "newOwner",
          "type": "address"
        }
      ],
      "name": "OwnershipTransferred",
      "type": "event"
    },
    {
      "anonymous": false,
      "inputs": [
        {
          "indexed": false,
          "internalType": "address",
          "name": "account",
          "type": "address"
        }
      ],
      "name": "Paused",
      "type": "event"
    },
    {
      "anonymous": false,
      "inputs": [
        {
          "indexed": true,
          "internalType": "address",
          "name": "from",
          "type": "address"
        },
        {
          "indexed": true,
          "internalType": "address",
          "name": "to",
          "type": "address"
        },
        {
          "indexed": true,
          "internalType": "uint256",
          "name": "tokenId",
          "type": "uint256"
        }
      ],
      "name": "Transfer",
      "type": "event"
    },
    {
      "anonymous": false,
      "inputs": [
        {
          "indexed": false,
          "internalType": "address",
          "name": "user",
          "type": "address"
        },
        {
          "indexed": false,
          "internalType": "uint256",
          "name": "blockNumber",
          "type": "uint256"
        },
        {
          "indexed": false,
          "internalType": "uint256",
          "name": "tokenId",
          "type": "uint256"
        },
        {
          "indexed": false,
          "internalType": "string",
          "name": "featureName",
          "type": "string"
        },
        {
          "indexed": false,
          "internalType": "uint256",
          "name": "balanceGM",
          "type": "uint256"
        }
      ],
      "name": "UnlockFeature",
      "type": "event"
    },
    {
      "anonymous": false,
      "inputs": [
        {
          "indexed": false,
          "internalType": "address",
          "name": "account",
          "type": "address"
        }
      ],
      "name": "Unpaused",
      "type": "event"
    },
    {
      "inputs": [],
      "name": "_admin",
      "outputs": [
        {
          "internalType": "address",
          "name": "",
          "type": "address"
        }
      ],
      "stateMutability": "view",
      "type": "function"
    },
    {
      "inputs": [
        {
          "internalType": "uint256",
          "name": "",
          "type": "uint256"
        }
      ],
      "name": "_auctions",
      "outputs": [
        {
          "internalType": "uint256",
          "name": "tokenId",
          "type": "uint256"
        },
        {
          "internalType": "address",
          "name": "erc20Token",
          "type": "address"
        },
        {
          "internalType": "uint256",
          "name": "amount",
          "type": "uint256"
        },
        {
          "internalType": "uint256",
          "name": "startTime",
          "type": "uint256"
        },
        {
          "internalType": "uint256",
          "name": "endTime",
          "type": "uint256"
        },
        {
          "internalType": "address payable",
          "name": "bidder",
          "type": "address"
        },
        {
          "internalType": "bool",
          "name": "settled",
          "type": "bool"
        },
        {
          "internalType": "uint256",
          "name": "timeBuffer",
          "type": "uint256"
        },
        {
          "internalType": "uint256",
          "name": "reservePrice",
          "type": "uint256"
        },
        {
          "internalType": "uint256",
          "name": "minBidIncrementPercentage",
          "type": "uint256"
        },
        {
          "internalType": "bytes32",
          "name": "auctionId",
          "type": "bytes32"
        }
      ],
      "stateMutability": "view",
      "type": "function"
    },
    {
      "inputs": [
        {
          "internalType": "bytes32",
          "name": "",
          "type": "bytes32"
        }
      ],
      "name": "_auctionsList",
      "outputs": [
        {
          "internalType": "uint256",
          "name": "tokenId",
          "type": "uint256"
        },
        {
          "internalType": "address",
          "name": "erc20Token",
          "type": "address"
        },
        {
          "internalType": "uint256",
          "name": "amount",
          "type": "uint256"
        },
        {
          "internalType": "uint256",
          "name": "startTime",
          "type": "uint256"
        },
        {
          "internalType": "uint256",
          "name": "endTime",
          "type": "uint256"
        },
        {
          "internalType": "address payable",
          "name": "bidder",
          "type": "address"
        },
        {
          "internalType": "bool",
          "name": "settled",
          "type": "bool"
        },
        {
          "internalType": "uint256",
          "name": "timeBuffer",
          "type": "uint256"
        },
        {
          "internalType": "uint256",
          "name": "reservePrice",
          "type": "uint256"
        },
        {
          "internalType": "uint256",
          "name": "minBidIncrementPercentage",
          "type": "uint256"
        },
        {
          "internalType": "bytes32",
          "name": "auctionId",
          "type": "bytes32"
        }
      ],
      "stateMutability": "view",
      "type": "function"
    },
    {
      "inputs": [],
      "name": "_bfs",
      "outputs": [
        {
          "internalType": "address",
          "name": "",
          "type": "address"
        }
      ],
      "stateMutability": "view",
      "type": "function"
    },
    {
      "inputs": [
        {
          "internalType": "uint256",
          "name": "",
          "type": "uint256"
        },
        {
          "internalType": "bytes32",
          "name": "",
          "type": "bytes32"
        },
        {
          "internalType": "address",
          "name": "",
          "type": "address"
        }
      ],
      "name": "_bidderAuctions",
      "outputs": [
        {
          "internalType": "uint256",
          "name": "",
          "type": "uint256"
        }
      ],
      "stateMutability": "view",
      "type": "function"
    },
    {
      "inputs": [
        {
          "internalType": "uint256",
          "name": "",
          "type": "uint256"
        },
        {
          "internalType": "bytes32",
          "name": "",
          "type": "bytes32"
        },
        {
          "internalType": "uint256",
          "name": "",
          "type": "uint256"
        }
      ],
      "name": "_bidderAuctionsList",
      "outputs": [
        {
          "internalType": "address",
          "name": "",
          "type": "address"
        }
      ],
      "stateMutability": "view",
      "type": "function"
    },
    {
      "inputs": [
        {
          "internalType": "address",
          "name": "",
          "type": "address"
        },
        {
          "internalType": "address",
          "name": "",
          "type": "address"
        }
      ],
      "name": "_biddingBalance",
      "outputs": [
        {
          "internalType": "uint256",
          "name": "",
          "type": "uint256"
        }
      ],
      "stateMutability": "view",
      "type": "function"
    },
    {
      "inputs": [
        {
          "internalType": "address",
          "name": "",
          "type": "address"
        }
      ],
      "name": "_coreTeamTreasury",
      "outputs": [
        {
          "internalType": "uint256",
          "name": "",
          "type": "uint256"
        }
      ],
      "stateMutability": "view",
      "type": "function"
    },
    {
      "inputs": [],
      "name": "_dao",
      "outputs": [
        {
          "internalType": "address",
          "name": "",
          "type": "address"
        }
      ],
      "stateMutability": "view",
      "type": "function"
    },
    {
      "inputs": [
        {
          "internalType": "uint256",
          "name": "",
          "type": "uint256"
        },
        {
          "internalType": "address",
          "name": "",
          "type": "address"
        },
        {
          "internalType": "string",
          "name": "",
          "type": "string"
        }
      ],
      "name": "_features",
      "outputs": [
        {
          "internalType": "bool",
          "name": "",
          "type": "bool"
        }
      ],
      "stateMutability": "view",
      "type": "function"
    },
    {
      "inputs": [],
      "name": "_gmToken",
      "outputs": [
        {
          "internalType": "address",
          "name": "",
          "type": "address"
        }
      ],
      "stateMutability": "view",
      "type": "function"
    },
    {
      "inputs": [],
      "name": "_maxSupply",
      "outputs": [
        {
          "internalType": "uint256",
          "name": "",
          "type": "uint256"
        }
      ],
      "stateMutability": "view",
      "type": "function"
    },
    {
      "inputs": [
        {
          "internalType": "uint256",
          "name": "",
          "type": "uint256"
        }
      ],
      "name": "_mintAt",
      "outputs": [
        {
          "internalType": "uint256",
          "name": "",
          "type": "uint256"
        }
      ],
      "stateMutability": "view",
      "type": "function"
    },
    {
      "inputs": [
        {
          "internalType": "address",
          "name": "",
          "type": "address"
        }
      ],
      "name": "_minted",
      "outputs": [
        {
          "internalType": "uint256",
          "name": "",
          "type": "uint256"
        }
      ],
      "stateMutability": "view",
      "type": "function"
    },
    {
      "inputs": [
        {
          "internalType": "uint256",
          "name": "",
          "type": "uint256"
        }
      ],
      "name": "_names",
      "outputs": [
        {
          "internalType": "string",
          "name": "",
          "type": "string"
        }
      ],
      "stateMutability": "view",
      "type": "function"
    },
    {
      "inputs": [],
      "name": "_paramsAddress",
      "outputs": [
        {
          "internalType": "address",
          "name": "",
          "type": "address"
        }
      ],
      "stateMutability": "view",
      "type": "function"
    },
    {
      "inputs": [],
      "name": "_randomizerAddr",
      "outputs": [
        {
          "internalType": "address",
          "name": "",
          "type": "address"
        }
      ],
      "stateMutability": "view",
      "type": "function"
    },
    {
      "inputs": [],
      "name": "_script",
      "outputs": [
        {
          "internalType": "string",
          "name": "",
          "type": "string"
        }
      ],
      "stateMutability": "view",
      "type": "function"
    },
    {
      "inputs": [],
      "name": "_signerMint",
      "outputs": [
        {
          "internalType": "address",
          "name": "",
          "type": "address"
        }
      ],
      "stateMutability": "view",
      "type": "function"
    },
    {
      "inputs": [
        {
          "internalType": "address",
          "name": "to",
          "type": "address"
        },
        {
          "internalType": "uint256",
          "name": "tokenId",
          "type": "uint256"
        }
      ],
      "name": "approve",
      "outputs": [],
      "stateMutability": "nonpayable",
      "type": "function"
    },
    {
      "inputs": [
        {
          "internalType": "uint256",
          "name": "tokenId",
          "type": "uint256"
        }
      ],
      "name": "available",
      "outputs": [
        {
          "internalType": "bool",
          "name": "",
          "type": "bool"
        }
      ],
      "stateMutability": "view",
      "type": "function"
    },
    {
      "inputs": [
        {
          "internalType": "address",
          "name": "owner",
          "type": "address"
        }
      ],
      "name": "balanceOf",
      "outputs": [
        {
          "internalType": "uint256",
          "name": "",
          "type": "uint256"
        }
      ],
      "stateMutability": "view",
      "type": "function"
    },
    {
      "inputs": [
        {
          "internalType": "address",
          "name": "walletAddress",
          "type": "address"
        }
      ],
      "name": "biddable",
      "outputs": [
        {
          "internalType": "bool",
          "name": "",
          "type": "bool"
        }
      ],
      "stateMutability": "view",
      "type": "function"
    },
    {
      "inputs": [
        {
          "internalType": "uint256",
          "name": "tokenId",
          "type": "uint256"
        },
        {
          "internalType": "address",
          "name": "user",
          "type": "address"
        },
        {
          "internalType": "string",
          "name": "featureName",
          "type": "string"
        }
      ],
      "name": "canUnlockFeature",
      "outputs": [
        {
          "internalType": "bool",
          "name": "",
          "type": "bool"
        }
      ],
      "stateMutability": "view",
      "type": "function"
    },
    {
      "inputs": [
        {
          "internalType": "address",
          "name": "newAdm",
          "type": "address"
        }
      ],
      "name": "changeAdmin",
      "outputs": [],
      "stateMutability": "nonpayable",
      "type": "function"
    },
    {
      "inputs": [
        {
          "internalType": "address",
          "name": "newBfs",
          "type": "address"
        }
      ],
      "name": "changeBfs",
      "outputs": [],
      "stateMutability": "nonpayable",
      "type": "function"
    },
    {
      "inputs": [
        {
          "internalType": "address",
          "name": "newBrc20",
          "type": "address"
        }
      ],
      "name": "changeBrc20Token",
      "outputs": [],
      "stateMutability": "nonpayable",
      "type": "function"
    },
    {
      "inputs": [
        {
          "internalType": "address",
          "name": "newAddr",
          "type": "address"
        }
      ],
      "name": "changeDao",
      "outputs": [],
      "stateMutability": "nonpayable",
      "type": "function"
    },
    {
      "inputs": [
        {
          "internalType": "address",
          "name": "newAddr",
          "type": "address"
        }
      ],
      "name": "changeParamAddr",
      "outputs": [],
      "stateMutability": "nonpayable",
      "type": "function"
    },
    {
      "inputs": [
        {
          "internalType": "address",
          "name": "newAddr",
          "type": "address"
        }
      ],
      "name": "changeRandomizerAddr",
      "outputs": [],
      "stateMutability": "nonpayable",
      "type": "function"
    },
    {
      "inputs": [
        {
          "internalType": "string",
          "name": "newScript",
          "type": "string"
        }
      ],
      "name": "changeScript",
      "outputs": [],
      "stateMutability": "nonpayable",
      "type": "function"
    },
    {
      "inputs": [
        {
          "internalType": "address",
          "name": "newAdd",
          "type": "address"
        }
      ],
      "name": "changeSignerMint",
      "outputs": [],
      "stateMutability": "nonpayable",
      "type": "function"
    },
    {
      "inputs": [
        {
          "internalType": "uint256",
          "name": "tokenId",
          "type": "uint256"
        }
      ],
      "name": "createAuction",
      "outputs": [],
      "stateMutability": "nonpayable",
      "type": "function"
    },
    {
      "inputs": [
        {
          "internalType": "uint256",
          "name": "tokenId",
          "type": "uint256"
        },
        {
          "internalType": "uint256",
          "name": "amount",
          "type": "uint256"
        }
      ],
      "name": "createBid",
      "outputs": [],
      "stateMutability": "nonpayable",
      "type": "function"
    },
    {
      "inputs": [
        {
          "internalType": "uint256",
          "name": "amount",
          "type": "uint256"
        }
      ],
      "name": "deposit",
      "outputs": [],
      "stateMutability": "payable",
      "type": "function"
    },
    {
      "inputs": [
        {
          "internalType": "uint256",
          "name": "tokenId",
          "type": "uint256"
        }
      ],
      "name": "getApproved",
      "outputs": [
        {
          "internalType": "address",
          "name": "",
          "type": "address"
        }
      ],
      "stateMutability": "view",
      "type": "function"
    },
    {
      "inputs": [
        {
          "internalType": "address",
          "name": "user",
          "type": "address"
        },
        {
          "internalType": "uint256",
          "name": "totalGM",
          "type": "uint256"
        }
      ],
      "name": "getMessageHash",
      "outputs": [
        {
          "internalType": "bytes32",
          "name": "",
          "type": "bytes32"
        }
      ],
      "stateMutability": "view",
      "type": "function"
    },
    {
      "inputs": [],
      "name": "getSettingFeatures",
      "outputs": [
        {
          "internalType": "string[11]",
          "name": "features",
          "type": "string[11]"
        },
        {
          "internalType": "uint256[11]",
          "name": "balances",
          "type": "uint256[11]"
        },
        {
          "internalType": "uint256[11]",
          "name": "holdTimes",
          "type": "uint256[11]"
        }
      ],
      "stateMutability": "view",
      "type": "function"
    },
    {
      "inputs": [
        {
          "internalType": "string",
          "name": "name",
          "type": "string"
        },
        {
          "internalType": "string",
          "name": "symbol",
          "type": "string"
        },
        {
          "internalType": "address",
          "name": "admin",
          "type": "address"
        },
        {
          "internalType": "address",
          "name": "paramsAddress",
          "type": "address"
        },
        {
          "internalType": "address",
          "name": "randomizerAddr",
          "type": "address"
        },
        {
          "internalType": "address",
          "name": "gmToken",
          "type": "address"
        },
        {
          "internalType": "address",
          "name": "bfs",
          "type": "address"
        },
        {
          "internalType": "address",
          "name": "signerMint",
          "type": "address"
        }
      ],
      "name": "initialize",
      "outputs": [],
      "stateMutability": "nonpayable",
      "type": "function"
    },
    {
      "inputs": [
        {
          "internalType": "address",
          "name": "owner",
          "type": "address"
        },
        {
          "internalType": "address",
          "name": "operator",
          "type": "address"
        }
      ],
      "name": "isApprovedForAll",
      "outputs": [
        {
          "internalType": "bool",
          "name": "",
          "type": "bool"
        }
      ],
      "stateMutability": "view",
      "type": "function"
    },
    {
      "inputs": [
        {
          "internalType": "address",
          "name": "to",
          "type": "address"
        },
        {
          "internalType": "uint256",
          "name": "totalGM",
          "type": "uint256"
        },
        {
          "internalType": "bytes",
          "name": "signature",
          "type": "bytes"
        }
      ],
      "name": "mint",
      "outputs": [
        {
          "internalType": "uint256",
          "name": "tokenId",
          "type": "uint256"
        }
      ],
      "stateMutability": "nonpayable",
      "type": "function"
    },
    {
      "inputs": [],
      "name": "name",
      "outputs": [
        {
          "internalType": "string",
          "name": "",
          "type": "string"
        }
      ],
      "stateMutability": "view",
      "type": "function"
    },
    {
      "inputs": [
        {
          "internalType": "address",
          "name": "",
          "type": "address"
        },
        {
          "internalType": "address",
          "name": "",
          "type": "address"
        },
        {
          "internalType": "uint256",
          "name": "",
          "type": "uint256"
        },
        {
          "internalType": "bytes",
          "name": "",
          "type": "bytes"
        }
      ],
      "name": "onERC721Received",
      "outputs": [
        {
          "internalType": "bytes4",
          "name": "",
          "type": "bytes4"
        }
      ],
      "stateMutability": "pure",
      "type": "function"
    },
    {
      "inputs": [],
      "name": "owner",
      "outputs": [
        {
          "internalType": "address",
          "name": "",
          "type": "address"
        }
      ],
      "stateMutability": "view",
      "type": "function"
    },
    {
      "inputs": [
        {
          "internalType": "uint256",
          "name": "tokenId",
          "type": "uint256"
        }
      ],
      "name": "ownerOf",
      "outputs": [
        {
          "internalType": "address",
          "name": "",
          "type": "address"
        }
      ],
      "stateMutability": "view",
      "type": "function"
    },
    {
      "inputs": [],
      "name": "p5jsScript",
      "outputs": [
        {
          "internalType": "string",
          "name": "result",
          "type": "string"
        }
      ],
      "stateMutability": "view",
      "type": "function"
    },
    {
      "inputs": [],
      "name": "paused",
      "outputs": [
        {
          "internalType": "bool",
          "name": "",
          "type": "bool"
        }
      ],
      "stateMutability": "view",
      "type": "function"
    },
    {
      "inputs": [],
      "name": "renounceOwnership",
      "outputs": [],
      "stateMutability": "nonpayable",
      "type": "function"
    },
    {
      "inputs": [
        {
          "internalType": "uint256",
          "name": "projectId",
          "type": "uint256"
        },
        {
          "internalType": "uint256",
          "name": "_salePrice",
          "type": "uint256"
        }
      ],
      "name": "royaltyInfo",
      "outputs": [
        {
          "internalType": "address",
          "name": "receiver",
          "type": "address"
        },
        {
          "internalType": "uint256",
          "name": "royaltyAmount",
          "type": "uint256"
        }
      ],
      "stateMutability": "view",
      "type": "function"
    },
    {
      "inputs": [
        {
          "internalType": "address",
          "name": "from",
          "type": "address"
        },
        {
          "internalType": "address",
          "name": "to",
          "type": "address"
        },
        {
          "internalType": "uint256",
          "name": "tokenId",
          "type": "uint256"
        }
      ],
      "name": "safeTransferFrom",
      "outputs": [],
      "stateMutability": "nonpayable",
      "type": "function"
    },
    {
      "inputs": [
        {
          "internalType": "address",
          "name": "from",
          "type": "address"
        },
        {
          "internalType": "address",
          "name": "to",
          "type": "address"
        },
        {
          "internalType": "uint256",
          "name": "tokenId",
          "type": "uint256"
        },
        {
          "internalType": "bytes",
          "name": "data",
          "type": "bytes"
        }
      ],
      "name": "safeTransferFrom",
      "outputs": [],
      "stateMutability": "nonpayable",
      "type": "function"
    },
    {
      "inputs": [
        {
          "internalType": "address",
          "name": "operator",
          "type": "address"
        },
        {
          "internalType": "bool",
          "name": "approved",
          "type": "bool"
        }
      ],
      "name": "setApprovalForAll",
      "outputs": [],
      "stateMutability": "nonpayable",
      "type": "function"
    },
    {
      "inputs": [
        {
          "internalType": "uint256",
          "name": "tokenId",
          "type": "uint256"
        },
        {
          "internalType": "string",
          "name": "name",
          "type": "string"
        }
      ],
      "name": "setName",
      "outputs": [],
      "stateMutability": "nonpayable",
      "type": "function"
    },
    {
      "inputs": [
        {
          "internalType": "uint256",
          "name": "tokenId",
          "type": "uint256"
        }
      ],
      "name": "settleAuction",
      "outputs": [],
      "stateMutability": "nonpayable",
      "type": "function"
    },
    {
      "inputs": [
        {
          "internalType": "bytes4",
          "name": "interfaceId",
          "type": "bytes4"
        }
      ],
      "name": "supportsInterface",
      "outputs": [
        {
          "internalType": "bool",
          "name": "",
          "type": "bool"
        }
      ],
      "stateMutability": "view",
      "type": "function"
    },
    {
      "inputs": [],
      "name": "symbol",
      "outputs": [
        {
          "internalType": "string",
          "name": "",
          "type": "string"
        }
      ],
      "stateMutability": "view",
      "type": "function"
    },
    {
      "inputs": [
        {
          "internalType": "bytes32",
          "name": "seed",
          "type": "bytes32"
        },
        {
          "internalType": "uint256",
          "name": "tokenId",
          "type": "uint256"
        }
      ],
      "name": "tokenHTML",
      "outputs": [
        {
          "internalType": "string",
          "name": "result",
          "type": "string"
        }
      ],
      "stateMutability": "view",
      "type": "function"
    },
    {
      "inputs": [
        {
          "internalType": "uint256",
          "name": "tokenId",
          "type": "uint256"
        }
      ],
      "name": "tokenIdToHash",
      "outputs": [
        {
          "internalType": "bytes32",
          "name": "",
          "type": "bytes32"
        }
      ],
      "stateMutability": "view",
      "type": "function"
    },
    {
      "inputs": [
        {
          "internalType": "uint256",
          "name": "tokenId",
          "type": "uint256"
        }
      ],
      "name": "tokenURI",
      "outputs": [
        {
          "internalType": "string",
          "name": "result",
          "type": "string"
        }
      ],
      "stateMutability": "view",
      "type": "function"
    },
    {
      "inputs": [
        {
          "internalType": "address",
          "name": "from",
          "type": "address"
        },
        {
          "internalType": "address",
          "name": "to",
          "type": "address"
        },
        {
          "internalType": "uint256",
          "name": "tokenId",
          "type": "uint256"
        }
      ],
      "name": "transferFrom",
      "outputs": [],
      "stateMutability": "nonpayable",
      "type": "function"
    },
    {
      "inputs": [
        {
          "internalType": "address",
          "name": "newOwner",
          "type": "address"
        }
      ],
      "name": "transferOwnership",
      "outputs": [],
      "stateMutability": "nonpayable",
      "type": "function"
    },
    {
      "inputs": [
        {
          "internalType": "uint256",
          "name": "tokenId",
          "type": "uint256"
        },
        {
          "internalType": "string",
          "name": "featureName",
          "type": "string"
        }
      ],
      "name": "unlockFeature",
      "outputs": [],
      "stateMutability": "nonpayable",
      "type": "function"
    },
    {
      "inputs": [
        {
          "internalType": "bytes32",
          "name": "seed",
          "type": "bytes32"
        },
        {
          "internalType": "uint256",
          "name": "tokenId",
          "type": "uint256"
        }
      ],
      "name": "variableScript",
      "outputs": [
        {
          "internalType": "string",
          "name": "result",
          "type": "string"
        }
      ],
      "stateMutability": "view",
      "type": "function"
    },
    {
      "inputs": [],
      "name": "web3Script",
      "outputs": [
        {
          "internalType": "string",
          "name": "result",
          "type": "string"
        }
      ],
      "stateMutability": "view",
      "type": "function"
    },
    {
      "inputs": [
        {
          "internalType": "address",
          "name": "erc20Addr",
          "type": "address"
        }
      ],
      "name": "withdraw",
      "outputs": [],
      "stateMutability": "nonpayable",
      "type": "function"
    }
  ],
  "bytecode": "0x608060405234801561001057600080fd5b5061760d80620000216000396000f3fe6080604052600436106103ce5760003560e01c806374973a41116101fd578063b6b55f2511610118578063d8826fec116100ab578063eb29c2321161007a578063eb29c23214610d5d578063f2fde38b14610d7d578063f3f83ddd14610d9d578063fe55932a14610dbd578063febfd6c314610ddd57600080fd5b8063d8826fec14610cb3578063dd07662f14610cd3578063e068372614610cf3578063e985e9c514610d1457600080fd5b8063c5c1b8af116100e7578063c5c1b8af14610c0c578063c87b56dd14610c45578063cc22e00414610c65578063d5563f3114610c9357600080fd5b8063b6b55f2514610b9d578063b7751c7114610bb0578063b88d4fde14610bd0578063bd89684314610beb57600080fd5b806394f5a66e116101905780639c6f35f91161015f5780639c6f35f914610b26578063a0d41e1114610b47578063a22cb46514610b5c578063adfc7dae14610b7c57600080fd5b806394f5a66e14610a5157806395d89b4114610a7157806396e494e814610a865780639a247cb314610aa657600080fd5b80638da5cb5b116101cc5780638da5cb5b146109d25780638f283970146109f157806393c6cdc014610a1157806394d008ef14610a3157600080fd5b806374973a411461095a57806375b4ab5d1461096f5780637de77ecc1461098f5780638a016249146109bd57600080fd5b80632e0048ad116102ed57806351cff8d9116102805780636352211e1161024f5780636352211e146108e457806366215eb41461090457806370a0823114610925578063715018a61461094557600080fd5b806351cff8d91461084d57806355cd63261461086d5780635c975abb146108ac578063621a1f74146108c457600080fd5b806333348979116102bc57806333348979146107cc57806342842e0e146107ed57806343b2ce191461080d578063512c91df1461082d57600080fd5b80632e0048ad146107115780632e993611146107685780632fd6a6921461078857806332e32326146107ac57600080fd5b806317dc6bf61161036557806325c5aa061161033457806325c5aa06146106645780632824d162146106845780632a55205a146106b25780632b7d13de146106f157600080fd5b806317dc6bf61461051e5780631ca9741b1461060457806322f4596f1461062457806323b872dd1461064957600080fd5b8063081812fc116103a1578063081812fc14610483578063095ea7b3146104a3578063140f0e07146104c5578063150b7a02146104e557600080fd5b806301bc45c9146103d357806301ffc9a71461041157806306cb20c11461044157806306fdde0314610461575b600080fd5b3480156103df57600080fd5b5061015f546103f4906001600160a01b031681565b6040516001600160a01b0390911681526020015b60405180910390f35b34801561041d57600080fd5b5061043161042c366004616303565b610dfd565b6040519015158152602001610408565b34801561044d57600080fd5b506103f461045c366004616320565b610e4f565b34801561046d57600080fd5b50610476610e95565b60405161040891906163a4565b34801561048f57600080fd5b506103f461049e3660046163b7565b610f27565b3480156104af57600080fd5b506104c36104be3660046163f0565b610f4e565b005b3480156104d157600080fd5b506104c36104e03660046164e7565b611069565b3480156104f157600080fd5b5061050561050036600461655c565b6110e1565b6040516001600160e01b03199091168152602001610408565b34801561052a57600080fd5b5061059e6105393660046163b7565b61016d60205260009081526040902080546001820154600283015460038401546004850154600586015460068701546007880154600889015460099099015497986001600160a01b0397881698969795969495841694600160a01b90940460ff16938b565b604080519b8c526001600160a01b039a8b1660208d01528b019890985260608a019690965260808901949094529590911660a0870152151560c086015260e085019390935261010084019290925261012083019190915261014082015261016001610408565b34801561061057600080fd5b506104c361061f3660046165ce565b6110f3565b34801561063057600080fd5b5061063b6101665481565b604051908152602001610408565b34801561065557600080fd5b506104c36103ce3660046165eb565b34801561067057600080fd5b5061047661067f3660046163b7565b611187565b34801561069057600080fd5b5061063b61069f3660046165ce565b6101706020526000908152604090205481565b3480156106be57600080fd5b506106d26106cd36600461662c565b611222565b604080516001600160a01b039093168352602083019190915201610408565b3480156106fd57600080fd5b506104c361070c3660046165ce565b611253565b34801561071d57600080fd5b5061043161072c36600461664e565b61017360209081526000938452604080852082529284529190922082518084018301805192815290830193909201929092209190525460ff1681565b34801561077457600080fd5b506104c36107833660046163b7565b6112e8565b34801561079457600080fd5b5061079d611303565b604051610408939291906166c9565b3480156107b857600080fd5b506104766107c736600461662c565b6117ae565b3480156107d857600080fd5b50610165546103f4906001600160a01b031681565b3480156107f957600080fd5b506104c36108083660046165eb565b611997565b34801561081957600080fd5b506104c3610828366004616732565b6119b2565b34801561083957600080fd5b5061063b6108483660046163f0565b611abc565b34801561085957600080fd5b506104c36108683660046165ce565b611b1a565b34801561087957600080fd5b5061063b610888366004616778565b61016f60209081526000938452604080852082529284528284209052825290205481565b3480156108b857600080fd5b5060975460ff16610431565b3480156108d057600080fd5b5061063b6108df3660046163b7565b611d54565b3480156108f057600080fd5b506103f46108ff3660046163b7565b611e22565b34801561091057600080fd5b50610161546103f4906001600160a01b031681565b34801561093157600080fd5b5061063b6109403660046165ce565b611e3e565b34801561095157600080fd5b506104c3611ec4565b34801561096657600080fd5b50610476611ed8565b34801561097b57600080fd5b5061043161098a3660046165ce565b612123565b34801561099b57600080fd5b5061063b6109aa3660046165ce565b61016a6020526000908152604090205481565b3480156109c957600080fd5b5061047661222a565b3480156109de57600080fd5b5061012d546001600160a01b03166103f4565b3480156109fd57600080fd5b506104c3610a0c3660046165ce565b612238565b348015610a1d57600080fd5b506104c3610a2c3660046165ce565b6122cd565b348015610a3d57600080fd5b5061063b610a4c3660046167b1565b612362565b348015610a5d57600080fd5b506104c3610a6c36600461680c565b6126b8565b348015610a7d57600080fd5b506104766128de565b348015610a9257600080fd5b50610431610aa13660046163b7565b6128ed565b348015610ab257600080fd5b5061059e610ac13660046163b7565b61016e60205260009081526040902080546001820154600283015460038401546004850154600586015460068701546007880154600889015460099099015497986001600160a01b0397881698969795969495841694600160a01b90940460ff16938b565b348015610b3257600080fd5b50610164546103f4906001600160a01b031681565b348015610b5357600080fd5b50610476612a37565b348015610b6857600080fd5b506104c3610b773660046168eb565b612c5a565b348015610b8857600080fd5b50610160546103f4906001600160a01b031681565b6104c3610bab3660046163b7565b612c65565b348015610bbc57600080fd5b506104c3610bcb36600461662c565b612f77565b348015610bdc57600080fd5b506104c36103ce366004616924565b348015610bf757600080fd5b50610167546103f4906001600160a01b031681565b348015610c1857600080fd5b5061063b610c273660046169a3565b61016c60209081526000928352604080842090915290825290205481565b348015610c5157600080fd5b50610476610c603660046163b7565b6134d8565b348015610c7157600080fd5b5061063b610c803660046163b7565b6101696020526000908152604090205481565b348015610c9f57600080fd5b506104c3610cae3660046163b7565b6136a9565b348015610cbf57600080fd5b506104c3610cce3660046165ce565b6137bc565b348015610cdf57600080fd5b50610431610cee36600461664e565b613851565b348015610cff57600080fd5b50610174546103f4906001600160a01b031681565b348015610d2057600080fd5b50610431610d2f3660046169a3565b6001600160a01b039182166000908152606a6020908152604080832093909416825291909152205460ff1690565b348015610d6957600080fd5b50610476610d7836600461662c565b613968565b348015610d8957600080fd5b506104c3610d983660046165ce565b613a3a565b348015610da957600080fd5b506104c3610db83660046165ce565b613ab0565b348015610dc957600080fd5b506104c3610dd8366004616732565b613b45565b348015610de957600080fd5b506104c3610df83660046165ce565b613b9e565b60006001600160e01b031982166380ac58cd60e01b1480610e2e57506001600160e01b03198216635b5e139f60e01b145b80610e4957506301ffc9a760e01b6001600160e01b03198316145b92915050565b6101716020528260005260406000206020528160005260406000208181548110610e7857600080fd5b6000918252602090912001546001600160a01b0316925083915050565b606060658054610ea4906169d1565b80601f0160208091040260200160405190810160405280929190818152602001828054610ed0906169d1565b8015610f1d5780601f10610ef257610100808354040283529160200191610f1d565b820191906000526020600020905b815481529060010190602001808311610f0057829003601f168201915b5050505050905090565b6000610f3282613c33565b506000908152606960205260409020546001600160a01b031690565b6000610f5982613c83565b9050806001600160a01b0316836001600160a01b03161415610fcc5760405162461bcd60e51b815260206004820152602160248201527f4552433732313a20617070726f76616c20746f2063757272656e74206f776e656044820152603960f91b60648201526084015b60405180910390fd5b336001600160a01b0382161480610fe85750610fe88133610d2f565b61105a5760405162461bcd60e51b815260206004820152603d60248201527f4552433732313a20617070726f76652063616c6c6572206973206e6f7420746f60448201527f6b656e206f776e6572206f7220617070726f76656420666f7220616c6c0000006064820152608401610fc3565b6110648383613ce3565b505050565b61015f546001600160a01b031633148061108e5750610174546001600160a01b031633145b6040518060400160405280600381526020016231303160e81b815250906110c85760405162461bcd60e51b8152600401610fc391906163a4565b5080516110dd9061016390602084019061620d565b5050565b630a85bd0160e11b5b95945050505050565b61015f546001600160a01b03163314801561111657506001600160a01b03811615155b6040518060400160405280600381526020016231303160e81b815250906111505760405162461bcd60e51b8152600401610fc391906163a4565b50610161546001600160a01b038281169116146111845761016180546001600160a01b0319166001600160a01b0383161790555b50565b61017260205260009081526040902080546111a1906169d1565b80601f01602080910402602001604051908101604052809291908181526020018280546111cd906169d1565b801561121a5780601f106111ef5761010080835404028352916020019161121a565b820191906000526020600020905b8154815290600101906020018083116111fd57829003601f168201915b505050505081565b61015f546001600160a01b03166000612710611240846101f4616a22565b61124a9190616a41565b90509250929050565b61015f546001600160a01b03163314801561127657506001600160a01b03811615155b6040518060400160405280600381526020016231303160e81b815250906112b05760405162461bcd60e51b8152600401610fc391906163a4565b50610165546001600160a01b038281169116146111845761016580546001600160a01b0383166001600160a01b031990911617905550565b6112f0613daf565b6112f981613e09565b611184600160fb55565b61130b616291565b6113136162b9565b61131b6162b9565b604051806101600160405280604051806040016040528060118152602001701999585d1d5c9957dcdd5b9959999958dd607a1b8152508152602001604051806040016040528060128152602001713332b0ba3ab932afb1b637bab23630bcb2b960711b8152508152602001604051806040016040528060128152602001711999585d1d5c9957d99bdc9959dc9bdd5b9960721b81525081526020016040518060400160405280600d81526020016c3332b0ba3ab932afb232b1b7b960991b8152508152602001604051806040016040528060128152602001713332b0ba3ab932afb9b832b1b4b0b637b13560711b81525081526020016040518060400160405280601081526020016f666561747572655f73756e736861706560801b81525081526020016040518060400160405280600f81526020016e666561747572655f7261696e626f7760881b81525081526020016040518060400160405280600f81526020016e3332b0ba3ab932afba343ab73232b960891b81525081526020016040518060400160405280600c81526020016b3332b0ba3ab932afb930b4b760a11b81525081526020016040518060400160405280600f81526020016e666561747572655f73756e6175726160881b8152508152602001604051806040016040528060118152602001703332b0ba3ab932afb9bab73834b63630b960791b81525081525092506040518061016001604052806005815260200160088152602001600d815260200160158152602001601581526020016022815260200160378152602001605981526020016090815260200160e9815260200161017981525091506040518061016001604052806103e881526020016107d08152602001610bb881526020016113888152602001611f408152602001611f408152602001611f408152602001611f408152602001611f408152602001611f408152602001611f408152509050600061016060009054906101000a90046001600160a01b0316905060005b600b8110156117a75760008582600b811061161857611618616a63565b602002015190506000836001600160a01b0316636d12dce18361163a8661440f565b60405160200161164b929190616a79565b6040516020818303038152906040526040518263ffffffff1660e01b815260040161167691906163a4565b602060405180830381865afa158015611693573d6000803e3d6000fd5b505050506040513d601f19601f820116820180604052508101906116b79190616ad7565b905080156116d857808684600b81106116d2576116d2616a63565b60200201525b6000846001600160a01b0316636d12dce1846116f38761440f565b604051602001611704929190616af0565b6040516020818303038152906040526040518263ffffffff1660e01b815260040161172f91906163a4565b602060405180830381865afa15801561174c573d6000803e3d6000fd5b505050506040513d601f19601f820116820180604052508101906117709190616ad7565b9050801561179157808685600b811061178b5761178b616a63565b60200201525b505050808061179f90616b4f565b9150506115fb565b5050909192565b6040805180820190915260128152711e39b1b934b83a1034b21e93bb30b939939f60711b6020820152806117e1846144ab565b6040516020016117f2929190616b6a565b60408051601f1981840301815291905261016454909150819061181d906001600160a01b03166144f7565b60405160200161182e929190616bbe565b60408051808303601f19018152908290526101605463bf40fac160e01b835260206004840152602160248401527f535741505f504f4f4c5f474d5f4554485f434f4e54524143545f4144445245536044840152605360f81b60648401529092506001600160a01b031690600090829063bf40fac190608401602060405180830381865afa1580156118c3573d6000803e3d6000fd5b505050506040513d601f19601f820116820180604052508101906118e79190616c25565b9050826118f3826144f7565b604051602001611904929190616c42565b60405160208183030381529060405292508261191f306144f7565b604051602001611930929190616cba565b60405160208183030381529060405292508261194b8561440f565b60405160200161195c929190616d21565b60405160208183030381529060405292508260405160200161197e9190616d79565b6040516020818303038152906040529250505092915050565b61106483838360405180602001604052806000815250600080fd5b6119ba613daf565b6119c5823383613851565b6119ce57600080fd5b336119d883611e22565b6001600160a01b0316146119eb57600080fd5b60008281526101736020908152604080832033845290915290819020905160019190611a18908490616da6565b9081526040805160209281900383019020805460ff19169315159390931790925533600081815261016c8352838120610164546001600160a01b03168252909252919020547f50a967414608c8bcb438ba6300808e0f3e187b3438e1d8a0f78ad089a8c73e119190439085908590611a8f8561450d565b611a999190616dc2565b604051611aaa959493929190616dda565b60405180910390a16110dd600160fb55565b6101675461016454604080513060208083019190915246828401526001600160a01b03948516606083015295841660808201529290911660a083015260c0808301939093528051808303909301835260e09091019052805191012090565b611b22613daf565b61015f5481906001600160a01b0316331415611c32576001600160a01b03821660009081526101706020526040902054611b5b57600080fd5b6001600160a01b03828116600090815261017060205260409081902054905163a9059cbb60e01b815233600482015260248101919091529082169063a9059cbb906044016020604051808303816000875af1158015611bbe573d6000803e3d6000fd5b505050506040513d601f19601f82011682018060405250810190611be29190616e19565b611c135760405162461bcd60e51b8152602060048201526002602482015261573160f01b6044820152606401610fc3565b6001600160a01b03821660009081526101706020526040812055611d49565b33600090815261016c602090815260408083206001600160a01b0386168452909152902054611c6057600080fd5b33600081815261016c602090815260408083206001600160a01b03878116855292529182902054915163a9059cbb60e01b81526004810193909352602483019190915282169063a9059cbb906044016020604051808303816000875af1158015611cce573d6000803e3d6000fd5b505050506040513d601f19601f82011682018060405250810190611cf29190616e19565b611d235760405162461bcd60e51b81526020600482015260026024820152612b9960f11b6044820152606401610fc3565b33600090815261016c602090815260408083206001600160a01b03861684529091528120555b50611184600160fb55565b6000611d5f8261457d565b6040518060400160405280600381526020016232303960e81b81525090611d995760405162461bcd60e51b8152600401610fc391906163a4565b5060008281526101686020526040902054600160a01b900460a01b6001600160a01b031916611dca57506000919050565b60008281526101686020908152604091829020549151611e0592600160a01b900460a01b91016001600160a01b031991909116815260200190565b604051602081830303815290604052805190602001209050919050565b600090815261016860205260409020546001600160a01b031690565b60006001600160a01b038216611ea85760405162461bcd60e51b815260206004820152602960248201527f4552433732313a2061646472657373207a65726f206973206e6f7420612076616044820152683634b21037bbb732b960b91b6064820152608401610fc3565b506001600160a01b031660009081526068602052604090205490565b611ecc61459b565b611ed660006145f6565b565b60606040518060600160405280603781526020016175a16037913961016554604080518082018252600d81526c70356a7340312e352e302e6a7360981b602082015261016054915163bf40fac160e01b81529394506001600160a01b03928316939092600092169063bf40fac190611f76906004016020808252600f908201526e29a1a924a82a2fa82927ab24a222a960891b604082015260600190565b602060405180830381865afa158015611f93573d6000803e3d6000fd5b505050506040513d601f19601f82011682018060405250810190611fb79190616c25565b90506000836001600160a01b031663ba67e64183856040518363ffffffff1660e01b8152600401611fe9929190616e36565b602060405180830381865afa158015612006573d6000803e3d6000fd5b505050506040513d601f19601f8201168201806040525081019061202a9190616ad7565b9050612037600182616dc2565b905060005b818110156120f957600080866001600160a01b031663a0e567648688866040518463ffffffff1660e01b815260040161207793929190616e5a565b600060405180830381865afa158015612094573d6000803e3d6000fd5b505050506040513d6000823e601f3d908101601f191682016040526120bc9190810190616ebe565b9150915087826040516020016120d3929190616f18565b6040516020818303038152906040529750505080806120f190616b4f565b91505061203c565b508460405160200161210b9190616d79565b60405160208183030381529060405294505050505090565b60008061212f83611e3e565b111561213d57506000919050565b6101605460405163bf40fac160e01b81526000916001600160a01b03169063bf40fac19061216d90600401616f47565b602060405180830381865afa15801561218a573d6000803e3d6000fd5b505050506040513d601f19601f820116820180604052508101906121ae9190616c25565b90506001600160a01b0381166121cd5750610164546001600160a01b03165b6121d5614649565b6001600160a01b03808516600090815261016c6020908152604080832061016454909416835292905220546122098561450d565b6122139190616dc2565b106122215750600192915050565b50600092915050565b61016380546111a1906169d1565b61015f546001600160a01b03163314801561225b57506001600160a01b03811615155b6040518060400160405280600381526020016231303160e81b815250906122955760405162461bcd60e51b8152600401610fc391906163a4565b5061015f546001600160a01b038281169116146111845761015f80546001600160a01b0383166001600160a01b031990911617905550565b61015f546001600160a01b0316331480156122f057506001600160a01b03811615155b6040518060400160405280600381526020016231303160e81b8152509061232a5760405162461bcd60e51b8152600401610fc391906163a4565b50610164546001600160a01b038281169116146111845761016480546001600160a01b0383166001600160a01b031990911617905550565b600061236c613daf565b6101665461016254106040518060400160405280600381526020016232303360e81b815250906123af5760405162461bcd60e51b8152600401610fc391906163a4565b5061015f546001600160a01b031633146124ef57336001600160a01b038616146124035760405162461bcd60e51b815260206004820152600560248201526447505f495560d81b6044820152606401610fc3565b61240c85611e3e565b1561243f5760405162461bcd60e51b8152602060048201526003602482015262312d3160e81b6044820152606401610fc3565b6001600160a01b038516600090815261016a60205260409020541561248a5760405162461bcd60e51b81526020600482015260016024820152604d60f81b6044820152606401610fc3565b6124cb858585858080601f0160208091040260200160405190810160405280939291908181526020018383808284376000920191909152506146f492505050565b50506001600160a01b038516600090815261016a60205260409020600190556125eb565b61015f546001600160a01b03868116911614156125365760405162461bcd60e51b815260206004820152600560248201526447505f495560d81b6044820152606401610fc3565b6001600160a01b03851630146125eb5761254f85611e3e565b156125825760405162461bcd60e51b8152602060048201526003602482015262312d3160e81b6044820152606401610fc3565b6001600160a01b038516600090815261016a6020526040902054156125cd5760405162461bcd60e51b81526020600482015260016024820152604d60f81b6044820152606401610fc3565b6001600160a01b038516600090815261016a60205260409020600190555b61016280549060006125fc83616b4f565b9190505550610162549050612611858261476d565b61016154604051631da00d8560e01b8152600481018390526001600160a01b03909116906000908290631da00d85906024016020604051808303816000875af1158015612662573d6000803e3d6000fd5b505050506040513d601f19601f820116820180604052508101906126869190616ad7565b90506126928382614787565b50506000818152610169602052604090204390556126b0600160fb55565b949350505050565b600054610100900460ff16158080156126d85750600054600160ff909116105b806126f25750303b1580156126f2575060005460ff166001145b6127555760405162461bcd60e51b815260206004820152602e60248201527f496e697469616c697a61626c653a20636f6e747261637420697320616c72656160448201526d191e481a5b9a5d1a585b1a5e995960921b6064820152608401610fc3565b6000805460ff191660011790558015612778576000805461ff0019166101001790555b60408051808201909152600381526203130360ec1b60208201526001600160a01b0388166127b95760405162461bcd60e51b8152600401610fc391906163a4565b5060408051808201909152600381526203130360ec1b60208201526001600160a01b0387166127fb5760405162461bcd60e51b8152600401610fc391906163a4565b5061016080546001600160a01b03199081166001600160a01b038981169190911790925561015f805482168a841617905561016180548216888416179055610164805482168784161790556104df610166556101658054821686841617905561016780549091169184169190911790556128758989614852565b61287d614883565b6128856148b2565b61288d6148e1565b80156128d3576000805461ff0019169055604051600181527f7f26b83ff96e1f2b6a682f133852f6798a09c465da95921460cefb38474024989060200160405180910390a15b505050505050505050565b606060668054610ea4906169d1565b60006128f88261457d565b61290457506000919050565b61290c614910565b600083815261016960205260409020546129269043616f7e565b11612954573061293583611e22565b6001600160a01b0316141561294c57506001919050565b506000919050565b61015f546001600160a01b031661296a83611e22565b6001600160a01b0316141561298157506000919050565b3061298b83611e22565b6001600160a01b031614156129c457600082815261016d6020526040902060050154600160a01b900460ff16156129c457506001919050565b60006129ce614649565b90508061016c60006129df86611e22565b6001600160a01b039081168252602080830193909352604091820160009081206101645490921681529252902054612a1e612a1986611e22565b61450d565b612a289190616dc2565b10156122215750600192915050565b60606040518060600160405280603781526020016175a16037913961016554604080518082018252600f81526e776562336a7340312e322e372e6a7360881b602082015261016054915163bf40fac160e01b81529394506001600160a01b03928316939092600092169063bf40fac190612ad7906004016020808252600f908201526e29a1a924a82a2fa82927ab24a222a960891b604082015260600190565b602060405180830381865afa158015612af4573d6000803e3d6000fd5b505050506040513d601f19601f82011682018060405250810190612b189190616c25565b90506000836001600160a01b031663ba67e64183856040518363ffffffff1660e01b8152600401612b4a929190616e36565b602060405180830381865afa158015612b67573d6000803e3d6000fd5b505050506040513d601f19601f82011682018060405250810190612b8b9190616ad7565b9050612b98600182616dc2565b905060005b818110156120f957600080866001600160a01b031663a0e567648688866040518463ffffffff1660e01b8152600401612bd893929190616e5a565b600060405180830381865afa158015612bf5573d6000803e3d6000fd5b505050506040513d6000823e601f3d908101601f19168201604052612c1d9190810190616ebe565b915091508782604051602001612c34929190616f18565b604051602081830303815290604052975050508080612c5290616b4f565b915050612b9d565b6110dd3383836149b2565b612c6d613daf565b6101605460405163bf40fac160e01b81526000916001600160a01b03169063bf40fac190612c9d90600401616f47565b602060405180830381865afa158015612cba573d6000803e3d6000fd5b505050506040513d601f19601f82011682018060405250810190612cde9190616c25565b90506001600160a01b038116612cfd5750610164546001600160a01b03165b604051636eb1769f60e11b8152336004820152306024820152819083906001600160a01b0383169063dd62ed3e90604401602060405180830381865afa158015612d4b573d6000803e3d6000fd5b505050506040513d601f19601f82011682018060405250810190612d6f9190616ad7565b1015612dbd5760405162461bcd60e51b815260206004820152601c60248201527f6e6f7420656e6f75676820616c6c6f7720657263323020746f6b656e000000006044820152606401610fc3565b6040516370a0823160e01b815233600482015283906001600160a01b038316906370a0823190602401602060405180830381865afa158015612e03573d6000803e3d6000fd5b505050506040513d601f19601f82011682018060405250810190612e279190616ad7565b1015612e6e5760405162461bcd60e51b81526020600482015260166024820152753737ba1032b737bab3b41032b9319918103a37b5b2b760511b6044820152606401610fc3565b6040516323b872dd60e01b8152336004820152306024820152604481018490526001600160a01b038216906323b872dd906064016020604051808303816000875af1158015612ec1573d6000803e3d6000fd5b505050506040513d601f19601f82011682018060405250810190612ee59190616e19565b612f315760405162461bcd60e51b815260206004820152601d60248201527f63616e206e6f74206765742065726332302066726f6d206269646465720000006044820152606401610fc3565b33600090815261016c602090815260408083206001600160a01b038616845290915281208054859290612f65908490616dc2565b9091555050600160fb55506111849050565b612f7f613daf565b612f8833612123565b612fbd5760405162461bcd60e51b8152600401610fc39060208082526004908201526304e5f43360e41b604082015260600190565b612fc633611e3e565b15612ffc5760405162461bcd60e51b8152602060048201526006602482015265272fa1982f9960d11b6044820152606401610fc3565b600082815261016f6020908152604080832061016d835281842060090154845282528083203384529091529020546130715760008281526101716020908152604080832061016d835281842060090154845282528220805460018101825590835291200180546001600160a01b031916331790555b600082815261016d602052604090205482146130c45760405162461bcd60e51b81526020600482015260126024820152713737ba103ab8103337b91030bab1ba34b7b760711b6044820152606401610fc3565b600082815261016d602052604090206004015443106131175760405162461bcd60e51b815260206004820152600f60248201526e105d58dd1a5bdb88195e1c1a5c9959608a1b6044820152606401610fc3565b33600090815261016c6020908152604080832085845261016d8352818420600101546001600160a01b031684529091529020548111156131995760405162461bcd60e51b815260206004820152601e60248201527f6e6f7420656e6f7567682062616c616e636520657263323020746f6b656e00006044820152606401610fc3565b600082815261016f6020908152604080832061016d83528184206009015484528252808320338452909152812054906131d28284616dc2565b600085815261016d602052604090206007015490915081116132365760405162461bcd60e51b815260206004820152601f60248201527f4d7573742073656e64206174206c6561737420726573657276655072696365006044820152606401610fc3565b600084815261016d60205260409020600881015460029091015460649161325c91616a22565b6132669190616a41565b600085815261016d60205260409020600201546132839190616dc2565b81116132f9576040805162461bcd60e51b81526020600482015260248101919091527f4d7573742073656e64206d6f7265207468616e206c617374206269642062792060448201527f6d696e426964496e6372656d656e7450657263656e7461676520616d6f756e746064820152608401610fc3565b33600090815261016c6020908152604080832087845261016d8352818420600101546001600160a01b031684529091528120805485929061333b908490616f7e565b9091555050600084815261016f6020908152604080832061016d8084528285206009810180548752928552838620338088529086528487208890556002808301899055600580840180546001600160a01b0319908116909417815586548a5261016e8952878a209092018a905590549454885294872090940180549094166001600160a01b0390931692909217909255878452915260068101546004909101546133e6904390616f7e565b109050801561342057600085815261016d602052604090206006015461340c9043616dc2565b600086815261016d60205260409020600401555b600085815261016d602052604090819020805491517ffd09e259e5c48be16f7dd63468e19266c684a9f3dce3b31881dbc1f909fc0d7c91613467913391899187919061702b565b60405180910390a280156134c557600085815261016d60205260409081902080546004820154925190927f4c1666cb87ed4fd7706cb19b1e3160612601aca7235c307fe64a11bc8db0f41f926134bc92617058565b60405180910390a25b5050506110dd600160fb55565b50505050565b60606134e38261457d565b6040518060400160405280600381526020016232303960e81b8152509061351d5760405162461bcd60e51b8152600401610fc391906163a4565b5060405163188687dd60e21b815260048101839052600090309063621a1f7490602401602060405180830381865afa15801561355d573d6000803e3d6000fd5b505050506040513d601f19601f820116820180604052508101906135819190616ad7565b61016054604051637594e11960e11b815260048101839052602481018690529192506001600160a01b031690600090309063eb29c23290604401600060405180830381865afa1580156135d8573d6000803e3d6000fd5b505050506040513d6000823e601f3d908101601f19168201604052613600919081019061706d565b905061362a816040516020016136169190616da6565b604051602081830303815290604052614a81565b60405160200161363a91906170b5565b604051602081830303815290604052905060008160405160200161365e91906170f3565b60408051601f198184030181528282526000898152610172602090815292902090935061368f9290918491016171d4565b604051602081830303815290604052945050505050919050565b6136b1613daf565b6136ba816128ed565b6136ef5760405162461bcd60e51b8152600401610fc39060208082526004908201526304e5f43360e41b604082015260600190565b60006136fa82611e22565b905061370582614be6565b6001600160a01b0381163014611d49576000806000613722611303565b92509250925060005b600b8110156137ad576000868152610173602090815260408083206001600160a01b038916845290915281208583600b811061376957613769616a63565b602002015160405161377b9190616da6565b908152604051908190036020019020805491151560ff19909216919091179055806137a581616b4f565b91505061372b565b5050505050611184600160fb55565b61015f546001600160a01b0316331480156137df57506001600160a01b03811615155b6040518060400160405280600381526020016231303160e81b815250906138195760405162461bcd60e51b8152600401610fc391906163a4565b50610174546001600160a01b038281169116146111845761017480546001600160a01b0383166001600160a01b031990911617905550565b6000838152610173602090815260408083206001600160a01b03861684529091528082209051829190613885908590616da6565b9081526040519081900360200190205460ff16905080156138aa576000915050613961565b60008060006138b88661525c565b9250925092508251600014156138d5576000945050505050613961565b6138e782670de0b6b3a7640000616a22565b6001600160a01b03808916600090815261016c60209081526040808320610164549094168352929052205461391b8961450d565b6139259190616dc2565b10613958576000888152610169602052604090205481906139469043616f7e565b10613958576001945050505050613961565b60009450505050505b9392505050565b60408051808201909152600c81526b1e343a36b61f1e3432b0b21f60a11b602082015280613994611ed8565b6040516020016139a5929190616f18565b6040516020818303038152906040529050806139bf612a37565b6040516020016139d0929190616f18565b6040516020818303038152906040529050806139ec84846117ae565b6040516020016139fd929190616f18565b604051602081830303815290604052905080610163604051602001613a23929190617269565b604051602081830303815290604052905092915050565b613a4261459b565b6001600160a01b038116613aa75760405162461bcd60e51b815260206004820152602660248201527f4f776e61626c653a206e6577206f776e657220697320746865207a65726f206160448201526564647265737360d01b6064820152608401610fc3565b611184816145f6565b61015f546001600160a01b031633148015613ad357506001600160a01b03811615155b6040518060400160405280600381526020016231303160e81b81525090613b0d5760405162461bcd60e51b8152600401610fc391906163a4565b50610167546001600160a01b038281169116146111845761016780546001600160a01b0383166001600160a01b031990911617905550565b613b4d613daf565b613b5682611e22565b6001600160a01b0316336001600160a01b031614613b7357600080fd5b6000828152610172602090815260409091208251613b939284019061620d565b506110dd600160fb55565b61015f546001600160a01b031633148015613bc157506001600160a01b03811615155b6040518060400160405280600381526020016231303160e81b81525090613bfb5760405162461bcd60e51b8152600401610fc391906163a4565b50610160546001600160a01b038281169116146111845761016080546001600160a01b0383166001600160a01b031990911617905550565b613c3c8161457d565b6111845760405162461bcd60e51b8152602060048201526018602482015277115490cdcc8c4e881a5b9d985b1a59081d1bdad95b88125160421b6044820152606401610fc3565b6000818152606760205260408120546001600160a01b031680610e495760405162461bcd60e51b8152602060048201526018602482015277115490cdcc8c4e881a5b9d985b1a59081d1bdad95b88125160421b6044820152606401610fc3565b600081815260696020526040902080546001600160a01b0319166001600160a01b0384169081179091558190613d1882613c83565b6001600160a01b03167f8c5be1e5ebec7d5bd14f71427d1e84f3dd0314c0f7b2291e5b200ac8c7c3b92560405160405180910390a45050565b6001600160a01b0382163014613d7457613d6a82611e3e565b15613d7457600080fd5b613d7f838383615388565b60009081526101686020526040902080546001600160a01b0319166001600160a01b039290921691909117905550565b600260fb541415613e025760405162461bcd60e51b815260206004820152601f60248201527f5265656e7472616e637947756172643a207265656e7472616e742063616c6c006044820152606401610fc3565b600260fb55565b600081815261016d602052604090206009810154600390910154613e665760405162461bcd60e51b815260206004820152601460248201527320bab1ba34b7b7103430b9b713ba103132b3bab760611b6044820152606401610fc3565b600082815261016d6020526040902060050154600160a01b900460ff1615613ed05760405162461bcd60e51b815260206004820181905260248201527f41756374696f6e2068617320616c7265616479206265656e20736574746c65646044820152606401610fc3565b600082815261016d6020526040902060040154431015613f325760405162461bcd60e51b815260206004820152601860248201527f41756374696f6e206861736e277420636f6d706c6574656400000000000000006044820152606401610fc3565b600082815261016d6020818152604080842060059081018054600160a01b60ff60a01b199182168117835588885261016e865293872090920180549092169092179055858452919052546001600160a01b03161561407757600083815261016d6020526040902060050154613faf906001600160a01b0316611e3e565b613fe557600083815261016d6020526040902060058101549054613fe09130916001600160a01b0390911690613d51565b614077565b600083815261016d60209081526040808320600281015460058201546001600160a01b03908116865261016c855283862060019093015416855292528220805491929091614034908490616dc2565b909155505050600082815261016f60209081526040808320848452825280832085845261016d8352818420600501546001600160a01b0316845290915281205560015b600083815261016d602052604090206002015415801590614096575080155b1561429e576101605460405163bf40fac160e01b815260206004820152601c60248201527f534f554c5f41554354494f4e5f474d5f44414f5f54726561737572790000000060448201526000916001600160a01b03169063bf40fac190606401602060405180830381865afa158015614113573d6000803e3d6000fd5b505050506040513d601f19601f820116820180604052508101906141379190616c25565b90506001600160a01b03811661414c57600080fd5b600084815261016d60205260408120600201546127109061416f906103e8616a22565b6141799190616a41565b600086815261016d6020526040902060018101546002909101549192506001600160a01b03169063a9059cbb9084906141b3908590616f7e565b6040516001600160e01b031960e085901b1681526001600160a01b03909216600483015260248201526044016020604051808303816000875af11580156141fe573d6000803e3d6000fd5b505050506040513d601f19601f820116820180604052508101906142229190616e19565b50600085815261016d60209081526040808320600101546001600160a01b031683526101709091528120805483929061425c908490616dc2565b909155505050600084815261016f60209081526040808320868452825280832087845261016d8352818420600501546001600160a01b03168452909152812055505b600083815261017160209081526040808320858452909152902054156143a35760005b6000848152610171602090815260408083208684529091529020548110156143a157600084815261016d6020908152604080832060050154610171835281842087855290925290912080546001600160a01b03909216918390811061432857614328616a63565b6000918252602090912001546001600160a01b03161461438f576000848152610171602090815260408083208684529091529020805461438f91908390811061437357614373616a63565b6000918252602090912001546001600160a01b031685856154f9565b8061439981616b4f565b9150506142c1565b505b600083815261016d602052604090819020805460058201546002830154935191937f727cff623966c8adc61ac68940e8c898c04ff7ced5d69d9735d51f0589daf532936143fb936001600160a01b0390931692617287565b60405180910390a2505050565b600160fb55565b6060600061441c83615684565b60010190506000816001600160401b0381111561443b5761443b61641c565b6040519080825280601f01601f191660200182016040528015614465576020820181803683370190505b5090508181016020015b600019016f181899199a1a9b1b9c1cb0b131b232b360811b600a86061a8153600a850494508461449e576144a3565b61446f565b509392505050565b60606144b68261575c565b6144c3608084901b61575c565b60405161060f60f31b6020820152602281019290925260428201526062016040516020818303038152906040529050919050565b6060610e496001600160a01b038316601461590e565b610164546040516370a0823160e01b81526001600160a01b03838116600483015260009216906370a0823190602401602060405180830381865afa158015614559573d6000803e3d6000fd5b505050506040513d601f19601f82011682018060405250810190610e499190616ad7565b600090815261016860205260409020546001600160a01b0316151590565b61012d546001600160a01b03163314611ed65760405162461bcd60e51b815260206004820181905260248201527f4f776e61626c653a2063616c6c6572206973206e6f7420746865206f776e65726044820152606401610fc3565b61012d80546001600160a01b038381166001600160a01b0319831681179093556040519116919082907f8be0079c531659141344cd1fd0a4f28419497f9722a3daafe3b4186f6b6457e090600090a35050565b61016054604051636d12dce160e01b815260206004820152601160248201527014d3d55317d1d357d512149154d213d311607a1b604482015260009182916001600160a01b0390911690636d12dce190606401602060405180830381865afa1580156146b9573d6000803e3d6000fd5b505050506040513d601f19601f820116820180604052508101906146dd9190616ad7565b9050806146ef5750670de0b6b3a76400005b919050565b60008060006147038686611abc565b9050600061471961471383615aa9565b86615ae4565b610167549091506001600160a01b038083169116146147625760405162461bcd60e51b815260206004820152600560248201526447505f4e4160d81b6044820152606401610fc3565b969095509350505050565b6110dd828260405180602001604052806000815250615b00565b60008281526101686020908152604091829020548251808401909352600383526219181b60e91b91830191909152600160a01b900460a01b6001600160a01b031916156147e75760405162461bcd60e51b8152600401610fc391906163a4565b5060408051808201909152600381526232303760e81b6020820152816148205760405162461bcd60e51b8152600401610fc391906163a4565b5060009182526101686020526040909120805460a09290921c600160a01b026001600160a01b03909216919091179055565b600054610100900460ff166148795760405162461bcd60e51b8152600401610fc3906172ac565b6110dd8282615b33565b600054610100900460ff166148aa5760405162461bcd60e51b8152600401610fc3906172ac565b611ed6615b81565b600054610100900460ff166148d95760405162461bcd60e51b8152600401610fc3906172ac565b611ed6615ba8565b600054610100900460ff166149085760405162461bcd60e51b8152600401610fc3906172ac565b611ed6615bdb565b61016054604051636d12dce160e01b815260206004820152600f60248201526e534f554c5f474d5f5245534552564560881b604482015260009182916001600160a01b0390911690636d12dce190606401602060405180830381865afa15801561497e573d6000803e3d6000fd5b505050506040513d601f19601f820116820180604052508101906149a29190616ad7565b9050806146ef57506103f0919050565b816001600160a01b0316836001600160a01b03161415614a145760405162461bcd60e51b815260206004820152601960248201527f4552433732313a20617070726f766520746f2063616c6c6572000000000000006044820152606401610fc3565b6001600160a01b038381166000818152606a6020908152604080832094871680845294825291829020805460ff191686151590811790915591519182527f17307eab39ab6107e8899845ad3d59bd9653f200f220920489ca2b5937696c31910160405180910390a3505050565b6060815160001415614aa157505060408051602081019091526000815290565b60006040518060600160405280604081526020016175616040913990506000600384516002614ad09190616dc2565b614ada9190616a41565b614ae5906004616a22565b90506000614af4826020616dc2565b6001600160401b03811115614b0b57614b0b61641c565b6040519080825280601f01601f191660200182016040528015614b35576020820181803683370190505b509050818152600183018586518101602084015b81831015614ba1576003830192508251603f8160121c168501518253600182019150603f81600c1c168501518253600182019150603f8160061c168501518253600182019150603f8116850151825350600101614b49565b600389510660018114614bbb5760028114614bcc57614bd8565b613d3d60f01b600119830152614bd8565b603d60f81b6000198301525b509398975050505050505050565b600081815261016d6020526040902060050154600160a01b900460ff1680614c1b5750600081815261016d6020526040902054155b614c8d5760405162461bcd60e51b815260206004820152603860248201527f41756374696f6e2068617320616c7265616479206265656e20736574746c656460448201527f206f72203173742041756374696f6e206f6620746f6b656e00000000000000006064820152608401610fc3565b436000614c98614910565b614ca29083616dc2565b6101608054604080519283018152600060208401819052838201819052606084018190526080840181905260a0840181905260c0840181905260e08401819052610100840181905261012084018190526101408401528683525163bf40fac160e01b81529293506001600160a01b031691829063bf40fac190614d2790600401616f47565b602060405180830381865afa158015614d44573d6000803e3d6000fd5b505050506040513d601f19601f82011682018060405250810190614d689190616c25565b6001600160a01b031660208201819052614d8f57610164546001600160a01b031660208201525b60006040828101829052606083018690526080830185905260a0830182905260c083019190915251636d12dce160e01b815260206004820152601860248201527f534f554c5f41554354494f4e5f54494d455f425546464552000000000000000060448201526001600160a01b03831690636d12dce190606401602060405180830381865afa158015614e26573d6000803e3d6000fd5b505050506040513d601f19601f82011682018060405250810190614e4a9190616ad7565b60e0820152604051636d12dce160e01b815260206004820152601a60248201527f534f554c5f41554354494f4e5f524553455256455f505249434500000000000060448201526001600160a01b03831690636d12dce190606401602060405180830381865afa158015614ec1573d6000803e3d6000fd5b505050506040513d601f19601f82011682018060405250810190614ee59190616ad7565b610100820152604051636d12dce160e01b815260206004820152602560248201527f534f554c5f41554354494f4e5f4d494e5f4249445f494e4352454153455f50456044820152641490d1539560da1b60648201526001600160a01b03831690636d12dce190608401602060405180830381865afa158015614f6b573d6000803e3d6000fd5b505050506040513d601f19601f82011682018060405250810190614f8f9190616ad7565b61012082015261016b8054906000614fa683616b4f565b9190505550614fb761016b5461440f565b614fc4826060015161440f565b614fd1836080015161440f565b614fda8861440f565b604051602001614fed9493929190617349565b60405160208183030381529060405280519060200120816101400181815250508061016d60008781526020019081526020016000206000820151816000015560208201518160010160006101000a8154816001600160a01b0302191690836001600160a01b0316021790555060408201518160020155606082015181600301556080820151816004015560a08201518160050160006101000a8154816001600160a01b0302191690836001600160a01b0316021790555060c08201518160050160146101000a81548160ff02191690831515021790555060e082015181600601556101008201518160070155610120820151816008015561014082015181600901559050508061016e600083610140015181526020019081526020016000206000820151816000015560208201518160010160006101000a8154816001600160a01b0302191690836001600160a01b0316021790555060408201518160020155606082015181600301556080820151816004015560a08201518160050160006101000a8154816001600160a01b0302191690836001600160a01b0316021790555060c08201518160050160146101000a81548160ff02191690831515021790555060e08201518160060155610100820151816007015561012082015181600801556101408201518160090155905050306001600160a01b03166151ef86611e22565b6001600160a01b0316146152105761521061520986611e22565b3087613d51565b847fb404e07dbfe9071da655c32567071b2ee4e88867784a1b39f01a8457787e504f8585338561014001518660405161524d9594939291906173a0565b60405180910390a25050505050565b6060600080600080600061526e611303565b92509250925060005b600b8161ffff16101561536457838161ffff16600b811061529a5761529a616a63565b60200201516040516020016152af9190616da6565b60405160208183030381529060405280519060200120886040516020016152d69190616da6565b60405160208183030381529060405280519060200120141561535257838161ffff16600b811061530857615308616a63565b6020020151838261ffff16600b811061532357615323616a63565b6020020151838361ffff16600b811061533e5761533e616a63565b602002015196509650965050505050615381565b8061535c81617472565b915050615277565b505060408051602081019091526000808252909550935083925050505b9193909250565b826001600160a01b031661539b82613c83565b6001600160a01b0316146153c15760405162461bcd60e51b8152600401610fc390617494565b6001600160a01b0382166154235760405162461bcd60e51b8152602060048201526024808201527f4552433732313a207472616e7366657220746f20746865207a65726f206164646044820152637265737360e01b6064820152608401610fc3565b6154308383836001615d06565b826001600160a01b031661544382613c83565b6001600160a01b0316146154695760405162461bcd60e51b8152600401610fc390617494565b600081815260696020908152604080832080546001600160a01b03199081169091556001600160a01b0387811680865260688552838620805460001901905590871680865283862080546001019055868652606790945282852080549092168417909155905184937fddf252ad1be2c89b69c2b068fc378daa952ba7f163c4a11628f55a4df523b3ef91a4505050565b600081815261016e6020526040902060050154600160a01b900460ff1661551f57600080fd5b600081815261016e60205260409020600501546001600160a01b038481169116141561554a57600080fd5b600082815261016f6020908152604080832084845282528083206001600160a01b038716845290915290205461557f57600080fd5b600082815261016f6020908152604080832084845282528083206001600160a01b0387168085529083529281902054815193845291830191909152810182905282907f3efeb5ca9b10c05ba2df4bcac38445e4a4e8a996887f004e5036d254c14a98649060600160405180910390a2600082815261016f6020908152604080832084845282528083206001600160a01b0380881685529083528184205461016c845282852086865261016e85528386206001015490921685529252822080549192909161564d908490616dc2565b9091555050600091825261016f602090815260408084209284529181528183206001600160a01b0390941683529290925290812055565b60008072184f03e93ff9f4daa797ed6e38ed64bf6a1f0160401b83106156c35772184f03e93ff9f4daa797ed6e38ed64bf6a1f0160401b830492506040015b6d04ee2d6d415b85acef810000000083106156ef576d04ee2d6d415b85acef8100000000830492506020015b662386f26fc10000831061570d57662386f26fc10000830492506010015b6305f5e1008310615725576305f5e100830492506008015b612710831061573957612710830492506004015b6064831061574b576064830492506002015b600a8310610e495760010192915050565b7aff00000000000000ff00000000000000ff00000000000000ff00006bffffffff0000000000000000604083901c90811663ffffffff60c01b84161760201c63ffffffff60601b919091166001600160e01b031984161717601081901c9182167eff00000000000000ff00000000000000ff00000000000000ff000000000000821617600890811c7bff00000000000000ff00000000000000ff00000000000000ff000000939093167fff00000000000000ff00000000000000ff00000000000000ff000000000000009290921691909117919091179081901c7e0f000f000f000f000f000f000f000f000f000f000f000f000f000f000f000f167f0f000f000f000f000f000f000f000f000f000f000f000f000f000f000f000f00600492831c1617906158aa827f0606060606060606060606060606060606060606060606060606060606060606616dc2565b901c7f0f0f0f0f0f0f0f0f0f0f0f0f0f0f0f0f0f0f0f0f0f0f0f0f0f0f0f0f0f0f0f0f1660076158da9190616a22565b615904827f3030303030303030303030303030303030303030303030303030303030303030616dc2565b610e499190616dc2565b6060600061591d836002616a22565b615928906002616dc2565b6001600160401b0381111561593f5761593f61641c565b6040519080825280601f01601f191660200182016040528015615969576020820181803683370190505b509050600360fc1b8160008151811061598457615984616a63565b60200101906001600160f81b031916908160001a905350600f60fb1b816001815181106159b3576159b3616a63565b60200101906001600160f81b031916908160001a90535060006159d7846002616a22565b6159e2906001616dc2565b90505b6001811115615a5a576f181899199a1a9b1b9c1cb0b131b232b360811b85600f1660108110615a1657615a16616a63565b1a60f81b828281518110615a2c57615a2c616a63565b60200101906001600160f81b031916908160001a90535060049490941c93615a53816174d9565b90506159e5565b5083156139615760405162461bcd60e51b815260206004820181905260248201527f537472696e67733a20686578206c656e67746820696e73756666696369656e746044820152606401610fc3565b6040517f19457468657265756d205369676e6564204d6573736167653a0a3332000000006020820152603c8101829052600090605c01611e05565b6000806000615af38585615d79565b915091506144a381615dbf565b615b0a8383615f0d565b615b176000848484615c0b565b6110645760405162461bcd60e51b8152600401610fc3906172f7565b600054610100900460ff16615b5a5760405162461bcd60e51b8152600401610fc3906172ac565b8151615b6d90606590602085019061620d565b50805161106490606690602084019061620d565b600054610100900460ff166144085760405162461bcd60e51b8152600401610fc3906172ac565b600054610100900460ff16615bcf5760405162461bcd60e51b8152600401610fc3906172ac565b6097805460ff19169055565b600054610100900460ff16615c025760405162461bcd60e51b8152600401610fc3906172ac565b611ed6336145f6565b60006001600160a01b0384163b15615cfe57604051630a85bd0160e11b81526001600160a01b0385169063150b7a0290615c4f9033908990889088906004016174f0565b6020604051808303816000875af1925050508015615c8a575060408051601f3d908101601f19168201909252615c879181019061752d565b60015b615ce4573d808015615cb8576040519150601f19603f3d011682016040523d82523d6000602084013e615cbd565b606091505b508051615cdc5760405162461bcd60e51b8152600401610fc3906172f7565b805181602001fd5b6001600160e01b031916630a85bd0160e11b1490506126b0565b5060016126b0565b615d1284848484615f46565b60975460ff16156134d25760405162461bcd60e51b815260206004820152602b60248201527f4552433732315061757361626c653a20746f6b656e207472616e73666572207760448201526a1a1a5b19481c185d5cd95960aa1b6064820152608401610fc3565b600080825160411415615db05760208301516040840151606085015160001a615da487828585615fce565b94509450505050615db8565b506000905060025b9250929050565b6000816004811115615dd357615dd361754a565b1415615ddc5750565b6001816004811115615df057615df061754a565b1415615e3e5760405162461bcd60e51b815260206004820152601860248201527f45434453413a20696e76616c6964207369676e617475726500000000000000006044820152606401610fc3565b6002816004811115615e5257615e5261754a565b1415615ea05760405162461bcd60e51b815260206004820152601f60248201527f45434453413a20696e76616c6964207369676e6174757265206c656e677468006044820152606401610fc3565b6003816004811115615eb457615eb461754a565b14156111845760405162461bcd60e51b815260206004820152602260248201527f45434453413a20696e76616c6964207369676e6174757265202773272076616c604482015261756560f01b6064820152608401610fc3565b615f178282616092565b60009081526101686020526040902080546001600160a01b0319166001600160a01b0392909216919091179055565b60018111156134d2576001600160a01b03841615615f8c576001600160a01b03841660009081526068602052604081208054839290615f86908490616f7e565b90915550505b6001600160a01b038316156134d2576001600160a01b03831660009081526068602052604081208054839290615fc3908490616dc2565b909155505050505050565b6000807f7fffffffffffffffffffffffffffffff5d576e7357a4501ddfe92f46681b20a08311156160055750600090506003616089565b6040805160008082526020820180845289905260ff881692820192909252606081018690526080810185905260019060a0016020604051602081039080840390855afa158015616059573d6000803e3d6000fd5b5050604051601f1901519150506001600160a01b03811661608257600060019250925050616089565b9150600090505b94509492505050565b6001600160a01b0382166160e85760405162461bcd60e51b815260206004820181905260248201527f4552433732313a206d696e7420746f20746865207a65726f20616464726573736044820152606401610fc3565b6160f18161457d565b1561613e5760405162461bcd60e51b815260206004820152601c60248201527f4552433732313a20746f6b656e20616c7265616479206d696e746564000000006044820152606401610fc3565b61614c600083836001615d06565b6161558161457d565b156161a25760405162461bcd60e51b815260206004820152601c60248201527f4552433732313a20746f6b656e20616c7265616479206d696e746564000000006044820152606401610fc3565b6001600160a01b038216600081815260686020908152604080832080546001019055848352606790915280822080546001600160a01b0319168417905551839291907fddf252ad1be2c89b69c2b068fc378daa952ba7f163c4a11628f55a4df523b3ef908290a45050565b828054616219906169d1565b90600052602060002090601f01602090048101928261623b5760008555616281565b82601f1061625457805160ff1916838001178555616281565b82800160010185558215616281579182015b82811115616281578251825591602001919060010190616266565b5061628d9291506162d8565b5090565b604051806101600160405280600b905b60608152602001906001900390816162a15790505090565b604051806101600160405280600b906020820280368337509192915050565b5b8082111561628d57600081556001016162d9565b6001600160e01b03198116811461118457600080fd5b60006020828403121561631557600080fd5b8135613961816162ed565b60008060006060848603121561633557600080fd5b505081359360208301359350604090920135919050565b60005b8381101561636757818101518382015260200161634f565b838111156134d25750506000910152565b6000815180845261639081602086016020860161634c565b601f01601f19169290920160200192915050565b6020815260006139616020830184616378565b6000602082840312156163c957600080fd5b5035919050565b6001600160a01b038116811461118457600080fd5b80356146ef816163d0565b6000806040838503121561640357600080fd5b823561640e816163d0565b946020939093013593505050565b634e487b7160e01b600052604160045260246000fd5b604051601f8201601f191681016001600160401b038111828210171561645a5761645a61641c565b604052919050565b60006001600160401b0382111561647b5761647b61641c565b50601f01601f191660200190565b600061649c61649784616462565b616432565b90508281528383830111156164b057600080fd5b828260208301376000602084830101529392505050565b600082601f8301126164d857600080fd5b61396183833560208501616489565b6000602082840312156164f957600080fd5b81356001600160401b0381111561650f57600080fd5b6126b0848285016164c7565b60008083601f84011261652d57600080fd5b5081356001600160401b0381111561654457600080fd5b602083019150836020828501011115615db857600080fd5b60008060008060006080868803121561657457600080fd5b853561657f816163d0565b9450602086013561658f816163d0565b93506040860135925060608601356001600160401b038111156165b157600080fd5b6165bd8882890161651b565b969995985093965092949392505050565b6000602082840312156165e057600080fd5b8135613961816163d0565b60008060006060848603121561660057600080fd5b833561660b816163d0565b9250602084013561661b816163d0565b929592945050506040919091013590565b6000806040838503121561663f57600080fd5b50508035926020909101359150565b60008060006060848603121561666357600080fd5b833592506020840135616675816163d0565b915060408401356001600160401b0381111561669057600080fd5b61669c868287016164c7565b9150509250925092565b8060005b600b8110156134d25781518452602093840193909101906001016166aa565b6102e08082526000908201610440830186835b600b811015616710576102df198684030184526166fa838351616378565b60209485019490935091909101906001016166dc565b5050809250505061672460208301856166a6565b6126b06101808301846166a6565b6000806040838503121561674557600080fd5b8235915060208301356001600160401b0381111561676257600080fd5b61676e858286016164c7565b9150509250929050565b60008060006060848603121561678d57600080fd5b833592506020840135915060408401356167a6816163d0565b809150509250925092565b600080600080606085870312156167c757600080fd5b84356167d2816163d0565b93506020850135925060408501356001600160401b038111156167f457600080fd5b6168008782880161651b565b95989497509550505050565b600080600080600080600080610100898b03121561682957600080fd5b88356001600160401b038082111561684057600080fd5b61684c8c838d016164c7565b995060208b013591508082111561686257600080fd5b5061686f8b828c016164c7565b9750506040890135616880816163d0565b95506060890135616890816163d0565b945060808901356168a0816163d0565b935060a08901356168b0816163d0565b925060c08901356168c0816163d0565b91506168ce60e08a016163e5565b90509295985092959890939650565b801515811461118457600080fd5b600080604083850312156168fe57600080fd5b8235616909816163d0565b91506020830135616919816168dd565b809150509250929050565b6000806000806080858703121561693a57600080fd5b8435616945816163d0565b93506020850135616955816163d0565b92506040850135915060608501356001600160401b0381111561697757600080fd5b8501601f8101871361698857600080fd5b61699787823560208401616489565b91505092959194509250565b600080604083850312156169b657600080fd5b82356169c1816163d0565b91506020830135616919816163d0565b600181811c908216806169e557607f821691505b60208210811415616a0657634e487b7160e01b600052602260045260246000fd5b50919050565b634e487b7160e01b600052601160045260246000fd5b6000816000190483118215151615616a3c57616a3c616a0c565b500290565b600082616a5e57634e487b7160e01b600052601260045260246000fd5b500490565b634e487b7160e01b600052603260045260246000fd5b631cdbdd5b60e21b8152605f60f81b600482015260008351616aa281600585016020880161634c565b685f62616c616e63655f60b81b6005918401918201528351616acb81600e84016020880161634c565b01600e01949350505050565b600060208284031215616ae957600080fd5b5051919050565b631cdbdd5b60e21b8152605f60f81b600482015260008351616b1981600585016020880161634c565b695f686f6c6454696d655f60b01b6005918401918201528351616b4381600f84016020880161634c565b01600f01949350505050565b6000600019821415616b6357616b63616a0c565b5060010190565b60008351616b7c81846020880161634c565b696c657420736565643d2760b01b9083019081528351616ba381600a84016020880161634c565b61273b60f01b600a9290910191820152600c01949350505050565b60008351616bd081846020880161634c565b7f6c657420474d5f434f4e54524143545f414444524553533d27000000000000009083019081528351616c0a81601984016020880161634c565b61273b60f01b60199290910191820152601b01949350505050565b600060208284031215616c3757600080fd5b8151613961816163d0565b60008351616c5481846020880161634c565b80830190507f6c657420535741505f504f4f4c5f474d5f4554485f434f4e54524143545f414481526644524553533d2760c81b60208201528351616c9f81602784016020880161634c565b61273b60f01b60279290910191820152602901949350505050565b60008351616ccc81846020880161634c565b7f6c657420736f756c4e6674436f6e7472616374416464726573733d27000000009083019081528351616d0681601c84016020880161634c565b61273b60f01b601c9290910191820152601e01949350505050565b60008351616d3381846020880161634c565b6d6c657420544f4b454e5f49443d2760901b9083019081528351616d5e81600e84016020880161634c565b61273b60f01b600e9290910191820152601001949350505050565b60008251616d8b81846020870161634c565b681e17b9b1b934b83a1f60b91b920191825250600901919050565b60008251616db881846020870161634c565b9190910192915050565b60008219821115616dd557616dd5616a0c565b500190565b60018060a01b038616815284602082015283604082015260a060608201526000616e0760a0830185616378565b90508260808301529695505050505050565b600060208284031215616e2b57600080fd5b8151613961816168dd565b6001600160a01b03831681526040602082018190526000906126b090830184616378565b6001600160a01b0384168152606060208201819052600090616e7e90830185616378565b9050826040830152949350505050565b6000616e9c61649784616462565b9050828152838383011115616eb057600080fd5b61396183602083018461634c565b60008060408385031215616ed157600080fd5b82516001600160401b03811115616ee757600080fd5b8301601f81018513616ef857600080fd5b616f0785825160208401616e8e565b925050602083015190509250929050565b60008351616f2a81846020880161634c565b835190830190616f3e81836020880161634c565b01949350505050565b60208082526018908201527f534f554c5f41554354494f4e5f45524332305f544f4b454e0000000000000000604082015260600190565b600082821015616f9057616f90616a0c565b500390565b8054825260018101546001600160a01b03166001600160a01b03811660208401525060028101546040830152600381015460608301526004810154608083015260058101546001600160a01b03811660a0840152616ffd60c0840160ff8360a01c1615159052565b50600681015460e0830152600781015461010083015260088101546101208301526009015461014090910152565b6001600160a01b03851681526020810184905282151560408201526101c081016110ea6060830184616f95565b82815261018081016139616020830184616f95565b60006020828403121561707f57600080fd5b81516001600160401b0381111561709557600080fd5b8201601f810184136170a657600080fd5b6126b084825160208401616e8e565b7519185d184e9d195e1d0bda1d1b5b0ed8985cd94d8d0b60521b8152600082516170e681601685016020870161634c565b9190910160160192915050565b7216101130b734b6b0ba34b7b72fbab936111d1160691b8152815160009061712281601385016020870161634c565b601160f91b6013939091019283015250601401919050565b8054600090600181811c908083168061715457607f831692505b602080841082141561717657634e487b7160e01b600052602260045260246000fd5b81801561718a576001811461719b576171c8565b60ff198616895284890196506171c8565b60008881526020902060005b868110156171c05781548b8201529085019083016171a7565b505084890196505b50505050505092915050565b683d913730b6b2911d1160b91b815260006171f2600983018561713a565b721116113232b9b1b934b83a34b7b7111d10111160691b81526c16101134b6b0b3b2911d10111160991b6013820152835161723481602080850190880161634c565b7116101130ba3a3934b13aba32b9911d10111160711b60209290910191820152607d60f81b6032820152603301949350505050565b6000835161727b81846020880161634c565b6110ea8184018561713a565b6001600160a01b0384168152602081018390526101a081016126b06040830184616f95565b6020808252602b908201527f496e697469616c697a61626c653a20636f6e7472616374206973206e6f74206960408201526a6e697469616c697a696e6760a81b606082015260800190565b60208082526032908201527f4552433732313a207472616e7366657220746f206e6f6e20455243373231526560408201527131b2b4bb32b91034b6b83632b6b2b73a32b960711b606082015260800190565b6000855161735b818460208a0161634c565b85519083019061736f818360208a0161634c565b855191019061738281836020890161634c565b845191019061739581836020880161634c565b019695505050505050565b85815260208082018690526001600160a01b038516604083015260608201849052825160808301528201516101e08201906173e660a08401826001600160a01b03169052565b50604083015160c0830152606083015160e08301526080830151610100818185015260a08501519150610120617426818601846001600160a01b03169052565b60c0860151925061014061743d8187018515159052565b60e0870151610160870152918601516101808601528501516101a0850152909301516101c09092019190915295945050505050565b600061ffff8083168181141561748a5761748a616a0c565b6001019392505050565b60208082526025908201527f4552433732313a207472616e736665722066726f6d20696e636f72726563742060408201526437bbb732b960d91b606082015260800190565b6000816174e8576174e8616a0c565b506000190190565b6001600160a01b038581168252841660208201526040810183905260806060820181905260009061752390830184616378565b9695505050505050565b60006020828403121561753f57600080fd5b8151613961816162ed565b634e487b7160e01b600052602160045260246000fdfe4142434445464748494a4b4c4d4e4f505152535455565758595a6162636465666768696a6b6c6d6e6f707172737475767778797a303132333435363738392b2f3c7363726970742073616e64626f783d27616c6c6f772d736372697074732720747970653d27746578742f6a617661736372697074273ea264697066735822122008c6b4c52378c931168598de85fc4a650c65fc32522ecf1893b3cd58750d690564736f6c634300080c0033",
  "linkReferences": {},
  "deployedLinkReferences": {}
}