{
  "_format": "hh-sol-artifact-1",
  "contractName": "SOUL",
  "sourceName": "contracts/nfts/SOUL.sol",
  "abi": [
    {
      "anonymous": false,
      "inputs": [
        {
          "indexed": true,
          "internalType": "address",
          "name": "owner",
          "type": "address"
        },
        {
          "indexed": true,
          "internalType": "address",
          "name": "approved",
          "type": "address"
        },
        {
          "indexed": true,
          "internalType": "uint256",
          "name": "tokenId",
          "type": "uint256"
        }
      ],
      "name": "Approval",
      "type": "event"
    },
    {
      "anonymous": false,
      "inputs": [
        {
          "indexed": true,
          "internalType": "address",
          "name": "owner",
          "type": "address"
        },
        {
          "indexed": true,
          "internalType": "address",
          "name": "operator",
          "type": "address"
        },
        {
          "indexed": false,
          "internalType": "bool",
          "name": "approved",
          "type": "bool"
        }
      ],
      "name": "ApprovalForAll",
      "type": "event"
    },
    {
      "anonymous": false,
      "inputs": [
        {
          "indexed": true,
          "internalType": "uint256",
          "name": "tokenId",
          "type": "uint256"
        },
        {
          "indexed": false,
          "internalType": "address",
          "name": "sender",
          "type": "address"
        },
        {
          "indexed": false,
          "internalType": "uint256",
          "name": "value",
          "type": "uint256"
        },
        {
          "indexed": false,
          "internalType": "bool",
          "name": "extended",
          "type": "bool"
        },
        {
          "components": [
            {
              "internalType": "uint256",
              "name": "tokenId",
              "type": "uint256"
            },
            {
              "internalType": "address",
              "name": "erc20Token",
              "type": "address"
            },
            {
              "internalType": "uint256",
              "name": "amount",
              "type": "uint256"
            },
            {
              "internalType": "uint256",
              "name": "startTime",
              "type": "uint256"
            },
            {
              "internalType": "uint256",
              "name": "endTime",
              "type": "uint256"
            },
            {
              "internalType": "address payable",
              "name": "bidder",
              "type": "address"
            },
            {
              "internalType": "bool",
              "name": "settled",
              "type": "bool"
            },
            {
              "internalType": "uint256",
              "name": "timeBuffer",
              "type": "uint256"
            },
            {
              "internalType": "uint256",
              "name": "reservePrice",
              "type": "uint256"
            },
            {
              "internalType": "uint256",
              "name": "minBidIncrementPercentage",
              "type": "uint256"
            },
            {
              "internalType": "bytes32",
              "name": "auctionId",
              "type": "bytes32"
            }
          ],
          "indexed": false,
          "internalType": "struct AuctionHouse.Auction",
          "name": "auction",
          "type": "tuple"
        }
      ],
      "name": "AuctionBid",
      "type": "event"
    },
    {
      "anonymous": false,
      "inputs": [
        {
          "indexed": true,
          "internalType": "uint256",
          "name": "tokenId",
          "type": "uint256"
        },
        {
          "indexed": false,
          "internalType": "address",
          "name": "sender",
          "type": "address"
        },
        {
          "indexed": false,
          "internalType": "uint256",
          "name": "value",
          "type": "uint256"
        },
        {
          "indexed": false,
          "internalType": "bytes32",
          "name": "auctionId",
          "type": "bytes32"
        }
      ],
      "name": "AuctionClaimBid",
      "type": "event"
    },
    {
      "anonymous": false,
      "inputs": [
        {
          "indexed": true,
          "internalType": "uint256",
          "name": "tokenId",
          "type": "uint256"
        }
      ],
      "name": "AuctionClosed",
      "type": "event"
    },
    {
      "anonymous": false,
      "inputs": [
        {
          "indexed": true,
          "internalType": "uint256",
          "name": "tokenId",
          "type": "uint256"
        },
        {
          "indexed": false,
          "internalType": "uint256",
          "name": "startTime",
          "type": "uint256"
        },
        {
          "indexed": false,
          "internalType": "uint256",
          "name": "endTime",
          "type": "uint256"
        },
        {
          "indexed": false,
          "internalType": "address",
          "name": "sender",
          "type": "address"
        },
        {
          "indexed": false,
          "internalType": "bytes32",
          "name": "auctionId",
          "type": "bytes32"
        },
        {
          "components": [
            {
              "internalType": "uint256",
              "name": "tokenId",
              "type": "uint256"
            },
            {
              "internalType": "address",
              "name": "erc20Token",
              "type": "address"
            },
            {
              "internalType": "uint256",
              "name": "amount",
              "type": "uint256"
            },
            {
              "internalType": "uint256",
              "name": "startTime",
              "type": "uint256"
            },
            {
              "internalType": "uint256",
              "name": "endTime",
              "type": "uint256"
            },
            {
              "internalType": "address payable",
              "name": "bidder",
              "type": "address"
            },
            {
              "internalType": "bool",
              "name": "settled",
              "type": "bool"
            },
            {
              "internalType": "uint256",
              "name": "timeBuffer",
              "type": "uint256"
            },
            {
              "internalType": "uint256",
              "name": "reservePrice",
              "type": "uint256"
            },
            {
              "internalType": "uint256",
              "name": "minBidIncrementPercentage",
              "type": "uint256"
            },
            {
              "internalType": "bytes32",
              "name": "auctionId",
              "type": "bytes32"
            }
          ],
          "indexed": false,
          "internalType": "struct AuctionHouse.Auction",
          "name": "auction",
          "type": "tuple"
        }
      ],
      "name": "AuctionCreated",
      "type": "event"
    },
    {
      "anonymous": false,
      "inputs": [
        {
          "indexed": true,
          "internalType": "uint256",
          "name": "tokenId",
          "type": "uint256"
        },
        {
          "indexed": false,
          "internalType": "uint256",
          "name": "endTime",
          "type": "uint256"
        },
        {
          "components": [
            {
              "internalType": "uint256",
              "name": "tokenId",
              "type": "uint256"
            },
            {
              "internalType": "address",
              "name": "erc20Token",
              "type": "address"
            },
            {
              "internalType": "uint256",
              "name": "amount",
              "type": "uint256"
            },
            {
              "internalType": "uint256",
              "name": "startTime",
              "type": "uint256"
            },
            {
              "internalType": "uint256",
              "name": "endTime",
              "type": "uint256"
            },
            {
              "internalType": "address payable",
              "name": "bidder",
              "type": "address"
            },
            {
              "internalType": "bool",
              "name": "settled",
              "type": "bool"
            },
            {
              "internalType": "uint256",
              "name": "timeBuffer",
              "type": "uint256"
            },
            {
              "internalType": "uint256",
              "name": "reservePrice",
              "type": "uint256"
            },
            {
              "internalType": "uint256",
              "name": "minBidIncrementPercentage",
              "type": "uint256"
            },
            {
              "internalType": "bytes32",
              "name": "auctionId",
              "type": "bytes32"
            }
          ],
          "indexed": false,
          "internalType": "struct AuctionHouse.Auction",
          "name": "auction",
          "type": "tuple"
        }
      ],
      "name": "AuctionExtended",
      "type": "event"
    },
    {
      "anonymous": false,
      "inputs": [
        {
          "indexed": false,
          "internalType": "uint256",
          "name": "minBidIncrementPercentage",
          "type": "uint256"
        }
      ],
      "name": "AuctionMinBidIncrementPercentageUpdated",
      "type": "event"
    },
    {
      "anonymous": false,
      "inputs": [
        {
          "indexed": false,
          "internalType": "uint256",
          "name": "reservePrice",
          "type": "uint256"
        }
      ],
      "name": "AuctionReservePriceUpdated",
      "type": "event"
    },
    {
      "anonymous": false,
      "inputs": [
        {
          "indexed": true,
          "internalType": "uint256",
          "name": "tokenId",
          "type": "uint256"
        },
        {
          "indexed": false,
          "internalType": "address",
          "name": "winner",
          "type": "address"
        },
        {
          "indexed": false,
          "internalType": "uint256",
          "name": "amount",
          "type": "uint256"
        },
        {
          "components": [
            {
              "internalType": "uint256",
              "name": "tokenId",
              "type": "uint256"
            },
            {
              "internalType": "address",
              "name": "erc20Token",
              "type": "address"
            },
            {
              "internalType": "uint256",
              "name": "amount",
              "type": "uint256"
            },
            {
              "internalType": "uint256",
              "name": "startTime",
              "type": "uint256"
            },
            {
              "internalType": "uint256",
              "name": "endTime",
              "type": "uint256"
            },
            {
              "internalType": "address payable",
              "name": "bidder",
              "type": "address"
            },
            {
              "internalType": "bool",
              "name": "settled",
              "type": "bool"
            },
            {
              "internalType": "uint256",
              "name": "timeBuffer",
              "type": "uint256"
            },
            {
              "internalType": "uint256",
              "name": "reservePrice",
              "type": "uint256"
            },
            {
              "internalType": "uint256",
              "name": "minBidIncrementPercentage",
              "type": "uint256"
            },
            {
              "internalType": "bytes32",
              "name": "auctionId",
              "type": "bytes32"
            }
          ],
          "indexed": false,
          "internalType": "struct AuctionHouse.Auction",
          "name": "auction",
          "type": "tuple"
        }
      ],
      "name": "AuctionSettled",
      "type": "event"
    },
    {
      "anonymous": false,
      "inputs": [
        {
          "indexed": false,
          "internalType": "uint256",
          "name": "timeBuffer",
          "type": "uint256"
        }
      ],
      "name": "AuctionTimeBufferUpdated",
      "type": "event"
    },
    {
      "anonymous": false,
      "inputs": [
        {
          "indexed": false,
          "internalType": "uint8",
          "name": "version",
          "type": "uint8"
        }
      ],
      "name": "Initialized",
      "type": "event"
    },
    {
      "anonymous": false,
      "inputs": [
        {
          "indexed": true,
          "internalType": "address",
          "name": "previousOwner",
          "type": "address"
        },
        {
          "indexed": true,
          "internalType": "address",
          "name": "newOwner",
          "type": "address"
        }
      ],
      "name": "OwnershipTransferred",
      "type": "event"
    },
    {
      "anonymous": false,
      "inputs": [
        {
          "indexed": false,
          "internalType": "address",
          "name": "account",
          "type": "address"
        }
      ],
      "name": "Paused",
      "type": "event"
    },
    {
      "anonymous": false,
      "inputs": [
        {
          "indexed": true,
          "internalType": "address",
          "name": "from",
          "type": "address"
        },
        {
          "indexed": true,
          "internalType": "address",
          "name": "to",
          "type": "address"
        },
        {
          "indexed": true,
          "internalType": "uint256",
          "name": "tokenId",
          "type": "uint256"
        }
      ],
      "name": "Transfer",
      "type": "event"
    },
    {
      "anonymous": false,
      "inputs": [
        {
          "indexed": false,
          "internalType": "address",
          "name": "user",
          "type": "address"
        },
        {
          "indexed": false,
          "internalType": "uint256",
          "name": "blockNumber",
          "type": "uint256"
        },
        {
          "indexed": false,
          "internalType": "uint256",
          "name": "tokenId",
          "type": "uint256"
        },
        {
          "indexed": false,
          "internalType": "string",
          "name": "featureName",
          "type": "string"
        }
      ],
      "name": "UnlockFeature",
      "type": "event"
    },
    {
      "anonymous": false,
      "inputs": [
        {
          "indexed": false,
          "internalType": "address",
          "name": "account",
          "type": "address"
        }
      ],
      "name": "Unpaused",
      "type": "event"
    },
    {
      "inputs": [],
      "name": "_admin",
      "outputs": [
        {
          "internalType": "address",
          "name": "",
          "type": "address"
        }
      ],
      "stateMutability": "view",
      "type": "function"
    },
    {
      "inputs": [
        {
          "internalType": "uint256",
          "name": "",
          "type": "uint256"
        }
      ],
      "name": "_auctions",
      "outputs": [
        {
          "internalType": "uint256",
          "name": "tokenId",
          "type": "uint256"
        },
        {
          "internalType": "address",
          "name": "erc20Token",
          "type": "address"
        },
        {
          "internalType": "uint256",
          "name": "amount",
          "type": "uint256"
        },
        {
          "internalType": "uint256",
          "name": "startTime",
          "type": "uint256"
        },
        {
          "internalType": "uint256",
          "name": "endTime",
          "type": "uint256"
        },
        {
          "internalType": "address payable",
          "name": "bidder",
          "type": "address"
        },
        {
          "internalType": "bool",
          "name": "settled",
          "type": "bool"
        },
        {
          "internalType": "uint256",
          "name": "timeBuffer",
          "type": "uint256"
        },
        {
          "internalType": "uint256",
          "name": "reservePrice",
          "type": "uint256"
        },
        {
          "internalType": "uint256",
          "name": "minBidIncrementPercentage",
          "type": "uint256"
        },
        {
          "internalType": "bytes32",
          "name": "auctionId",
          "type": "bytes32"
        }
      ],
      "stateMutability": "view",
      "type": "function"
    },
    {
      "inputs": [
        {
          "internalType": "bytes32",
          "name": "",
          "type": "bytes32"
        }
      ],
      "name": "_auctionsList",
      "outputs": [
        {
          "internalType": "uint256",
          "name": "tokenId",
          "type": "uint256"
        },
        {
          "internalType": "address",
          "name": "erc20Token",
          "type": "address"
        },
        {
          "internalType": "uint256",
          "name": "amount",
          "type": "uint256"
        },
        {
          "internalType": "uint256",
          "name": "startTime",
          "type": "uint256"
        },
        {
          "internalType": "uint256",
          "name": "endTime",
          "type": "uint256"
        },
        {
          "internalType": "address payable",
          "name": "bidder",
          "type": "address"
        },
        {
          "internalType": "bool",
          "name": "settled",
          "type": "bool"
        },
        {
          "internalType": "uint256",
          "name": "timeBuffer",
          "type": "uint256"
        },
        {
          "internalType": "uint256",
          "name": "reservePrice",
          "type": "uint256"
        },
        {
          "internalType": "uint256",
          "name": "minBidIncrementPercentage",
          "type": "uint256"
        },
        {
          "internalType": "bytes32",
          "name": "auctionId",
          "type": "bytes32"
        }
      ],
      "stateMutability": "view",
      "type": "function"
    },
    {
      "inputs": [],
      "name": "_bfs",
      "outputs": [
        {
          "internalType": "address",
          "name": "",
          "type": "address"
        }
      ],
      "stateMutability": "view",
      "type": "function"
    },
    {
      "inputs": [
        {
          "internalType": "uint256",
          "name": "",
          "type": "uint256"
        },
        {
          "internalType": "bytes32",
          "name": "",
          "type": "bytes32"
        },
        {
          "internalType": "address",
          "name": "",
          "type": "address"
        }
      ],
      "name": "_bidderAuctions",
      "outputs": [
        {
          "internalType": "uint256",
          "name": "",
          "type": "uint256"
        }
      ],
      "stateMutability": "view",
      "type": "function"
    },
    {
      "inputs": [
        {
          "internalType": "uint256",
          "name": "",
          "type": "uint256"
        },
        {
          "internalType": "bytes32",
          "name": "",
          "type": "bytes32"
        },
        {
          "internalType": "uint256",
          "name": "",
          "type": "uint256"
        }
      ],
      "name": "_bidderAuctionsList",
      "outputs": [
        {
          "internalType": "address",
          "name": "",
          "type": "address"
        }
      ],
      "stateMutability": "view",
      "type": "function"
    },
    {
      "inputs": [
        {
          "internalType": "address",
          "name": "",
          "type": "address"
        },
        {
          "internalType": "address",
          "name": "",
          "type": "address"
        }
      ],
      "name": "_biddingBalance",
      "outputs": [
        {
          "internalType": "uint256",
          "name": "",
          "type": "uint256"
        }
      ],
      "stateMutability": "view",
      "type": "function"
    },
    {
      "inputs": [
        {
          "internalType": "address",
          "name": "",
          "type": "address"
        }
      ],
      "name": "_coreTeamTreasury",
      "outputs": [
        {
          "internalType": "uint256",
          "name": "",
          "type": "uint256"
        }
      ],
      "stateMutability": "view",
      "type": "function"
    },
    {
      "inputs": [
        {
          "internalType": "uint256",
          "name": "",
          "type": "uint256"
        },
        {
          "internalType": "address",
          "name": "",
          "type": "address"
        },
        {
          "internalType": "string",
          "name": "",
          "type": "string"
        }
      ],
      "name": "_features",
      "outputs": [
        {
          "internalType": "bool",
          "name": "",
          "type": "bool"
        }
      ],
      "stateMutability": "view",
      "type": "function"
    },
    {
      "inputs": [],
      "name": "_gmToken",
      "outputs": [
        {
          "internalType": "address",
          "name": "",
          "type": "address"
        }
      ],
      "stateMutability": "view",
      "type": "function"
    },
    {
      "inputs": [],
      "name": "_maxSupply",
      "outputs": [
        {
          "internalType": "uint256",
          "name": "",
          "type": "uint256"
        }
      ],
      "stateMutability": "view",
      "type": "function"
    },
    {
      "inputs": [
        {
          "internalType": "uint256",
          "name": "",
          "type": "uint256"
        }
      ],
      "name": "_mintAt",
      "outputs": [
        {
          "internalType": "uint256",
          "name": "",
          "type": "uint256"
        }
      ],
      "stateMutability": "view",
      "type": "function"
    },
    {
      "inputs": [
        {
          "internalType": "address",
          "name": "",
          "type": "address"
        }
      ],
      "name": "_minted",
      "outputs": [
        {
          "internalType": "uint256",
          "name": "",
          "type": "uint256"
        }
      ],
      "stateMutability": "view",
      "type": "function"
    },
    {
      "inputs": [
        {
          "internalType": "uint256",
          "name": "",
          "type": "uint256"
        }
      ],
      "name": "_names",
      "outputs": [
        {
          "internalType": "string",
          "name": "",
          "type": "string"
        }
      ],
      "stateMutability": "view",
      "type": "function"
    },
    {
      "inputs": [],
      "name": "_paramsAddress",
      "outputs": [
        {
          "internalType": "address",
          "name": "",
          "type": "address"
        }
      ],
      "stateMutability": "view",
      "type": "function"
    },
    {
      "inputs": [],
      "name": "_randomizerAddr",
      "outputs": [
        {
          "internalType": "address",
          "name": "",
          "type": "address"
        }
      ],
      "stateMutability": "view",
      "type": "function"
    },
    {
      "inputs": [],
      "name": "_script",
      "outputs": [
        {
          "internalType": "string",
          "name": "",
          "type": "string"
        }
      ],
      "stateMutability": "view",
      "type": "function"
    },
    {
      "inputs": [],
      "name": "_signerMint",
      "outputs": [
        {
          "internalType": "address",
          "name": "",
          "type": "address"
        }
      ],
      "stateMutability": "view",
      "type": "function"
    },
    {
      "inputs": [
        {
          "internalType": "address",
          "name": "to",
          "type": "address"
        },
        {
          "internalType": "uint256",
          "name": "tokenId",
          "type": "uint256"
        }
      ],
      "name": "approve",
      "outputs": [],
      "stateMutability": "nonpayable",
      "type": "function"
    },
    {
      "inputs": [
        {
          "internalType": "uint256",
          "name": "tokenId",
          "type": "uint256"
        }
      ],
      "name": "available",
      "outputs": [
        {
          "internalType": "bool",
          "name": "",
          "type": "bool"
        }
      ],
      "stateMutability": "view",
      "type": "function"
    },
    {
      "inputs": [
        {
          "internalType": "address",
          "name": "owner",
          "type": "address"
        }
      ],
      "name": "balanceOf",
      "outputs": [
        {
          "internalType": "uint256",
          "name": "",
          "type": "uint256"
        }
      ],
      "stateMutability": "view",
      "type": "function"
    },
    {
      "inputs": [
        {
          "internalType": "address",
          "name": "walletAddress",
          "type": "address"
        }
      ],
      "name": "biddable",
      "outputs": [
        {
          "internalType": "bool",
          "name": "",
          "type": "bool"
        }
      ],
      "stateMutability": "view",
      "type": "function"
    },
    {
      "inputs": [
        {
          "internalType": "uint256",
          "name": "tokenId",
          "type": "uint256"
        },
        {
          "internalType": "address",
          "name": "user",
          "type": "address"
        },
        {
          "internalType": "string",
          "name": "featureName",
          "type": "string"
        }
      ],
      "name": "canUnlockFeature",
      "outputs": [
        {
          "internalType": "bool",
          "name": "",
          "type": "bool"
        }
      ],
      "stateMutability": "view",
      "type": "function"
    },
    {
      "inputs": [
        {
          "internalType": "address",
          "name": "newAdm",
          "type": "address"
        }
      ],
      "name": "changeAdmin",
      "outputs": [],
      "stateMutability": "nonpayable",
      "type": "function"
    },
    {
      "inputs": [
        {
          "internalType": "address",
          "name": "newBfs",
          "type": "address"
        }
      ],
      "name": "changeBfs",
      "outputs": [],
      "stateMutability": "nonpayable",
      "type": "function"
    },
    {
      "inputs": [
        {
          "internalType": "address",
          "name": "newBrc20",
          "type": "address"
        }
      ],
      "name": "changeBrc20Token",
      "outputs": [],
      "stateMutability": "nonpayable",
      "type": "function"
    },
    {
      "inputs": [
        {
          "internalType": "address",
          "name": "newAddr",
          "type": "address"
        }
      ],
      "name": "changeParamAddr",
      "outputs": [],
      "stateMutability": "nonpayable",
      "type": "function"
    },
    {
      "inputs": [
        {
          "internalType": "address",
          "name": "newAddr",
          "type": "address"
        }
      ],
      "name": "changeRandomizerAddr",
      "outputs": [],
      "stateMutability": "nonpayable",
      "type": "function"
    },
    {
      "inputs": [
        {
          "internalType": "string",
          "name": "newScript",
          "type": "string"
        }
      ],
      "name": "changeScript",
      "outputs": [],
      "stateMutability": "nonpayable",
      "type": "function"
    },
    {
      "inputs": [
        {
          "internalType": "address",
          "name": "newAdd",
          "type": "address"
        }
      ],
      "name": "changeSignerMint",
      "outputs": [],
      "stateMutability": "nonpayable",
      "type": "function"
    },
    {
      "inputs": [
        {
          "internalType": "uint256",
          "name": "tokenId",
          "type": "uint256"
        }
      ],
      "name": "createAuction",
      "outputs": [],
      "stateMutability": "nonpayable",
      "type": "function"
    },
    {
      "inputs": [
        {
          "internalType": "uint256",
          "name": "tokenId",
          "type": "uint256"
        },
        {
          "internalType": "uint256",
          "name": "amount",
          "type": "uint256"
        }
      ],
      "name": "createBid",
      "outputs": [],
      "stateMutability": "nonpayable",
      "type": "function"
    },
    {
      "inputs": [
        {
          "internalType": "uint256",
          "name": "amount",
          "type": "uint256"
        }
      ],
      "name": "deposit",
      "outputs": [],
      "stateMutability": "payable",
      "type": "function"
    },
    {
      "inputs": [
        {
          "internalType": "uint256",
          "name": "tokenId",
          "type": "uint256"
        }
      ],
      "name": "getApproved",
      "outputs": [
        {
          "internalType": "address",
          "name": "",
          "type": "address"
        }
      ],
      "stateMutability": "view",
      "type": "function"
    },
    {
      "inputs": [
        {
          "internalType": "address",
          "name": "user",
          "type": "address"
        },
        {
          "internalType": "uint256",
          "name": "totalGM",
          "type": "uint256"
        }
      ],
      "name": "getMessageHash",
      "outputs": [
        {
          "internalType": "bytes32",
          "name": "",
          "type": "bytes32"
        }
      ],
      "stateMutability": "view",
      "type": "function"
    },
    {
      "inputs": [],
      "name": "getSettingFeatures",
      "outputs": [
        {
          "internalType": "string[11]",
          "name": "features",
          "type": "string[11]"
        },
        {
          "internalType": "uint256[11]",
          "name": "balances",
          "type": "uint256[11]"
        },
        {
          "internalType": "uint256[11]",
          "name": "holdTimes",
          "type": "uint256[11]"
        }
      ],
      "stateMutability": "view",
      "type": "function"
    },
    {
      "inputs": [
        {
          "internalType": "string",
          "name": "name",
          "type": "string"
        },
        {
          "internalType": "string",
          "name": "symbol",
          "type": "string"
        },
        {
          "internalType": "address",
          "name": "admin",
          "type": "address"
        },
        {
          "internalType": "address",
          "name": "paramsAddress",
          "type": "address"
        },
        {
          "internalType": "address",
          "name": "randomizerAddr",
          "type": "address"
        },
        {
          "internalType": "address",
          "name": "gmToken",
          "type": "address"
        },
        {
          "internalType": "address",
          "name": "bfs",
          "type": "address"
        },
        {
          "internalType": "address",
          "name": "signerMint",
          "type": "address"
        }
      ],
      "name": "initialize",
      "outputs": [],
      "stateMutability": "nonpayable",
      "type": "function"
    },
    {
      "inputs": [
        {
          "internalType": "address",
          "name": "owner",
          "type": "address"
        },
        {
          "internalType": "address",
          "name": "operator",
          "type": "address"
        }
      ],
      "name": "isApprovedForAll",
      "outputs": [
        {
          "internalType": "bool",
          "name": "",
          "type": "bool"
        }
      ],
      "stateMutability": "view",
      "type": "function"
    },
    {
      "inputs": [
        {
          "internalType": "address",
          "name": "to",
          "type": "address"
        },
        {
          "internalType": "uint256",
          "name": "totalGM",
          "type": "uint256"
        },
        {
          "internalType": "bytes",
          "name": "signature",
          "type": "bytes"
        }
      ],
      "name": "mint",
      "outputs": [
        {
          "internalType": "uint256",
          "name": "tokenId",
          "type": "uint256"
        }
      ],
      "stateMutability": "nonpayable",
      "type": "function"
    },
    {
      "inputs": [],
      "name": "name",
      "outputs": [
        {
          "internalType": "string",
          "name": "",
          "type": "string"
        }
      ],
      "stateMutability": "view",
      "type": "function"
    },
    {
      "inputs": [
        {
          "internalType": "address",
          "name": "",
          "type": "address"
        },
        {
          "internalType": "address",
          "name": "",
          "type": "address"
        },
        {
          "internalType": "uint256",
          "name": "",
          "type": "uint256"
        },
        {
          "internalType": "bytes",
          "name": "",
          "type": "bytes"
        }
      ],
      "name": "onERC721Received",
      "outputs": [
        {
          "internalType": "bytes4",
          "name": "",
          "type": "bytes4"
        }
      ],
      "stateMutability": "pure",
      "type": "function"
    },
    {
      "inputs": [],
      "name": "owner",
      "outputs": [
        {
          "internalType": "address",
          "name": "",
          "type": "address"
        }
      ],
      "stateMutability": "view",
      "type": "function"
    },
    {
      "inputs": [
        {
          "internalType": "uint256",
          "name": "tokenId",
          "type": "uint256"
        }
      ],
      "name": "ownerOf",
      "outputs": [
        {
          "internalType": "address",
          "name": "",
          "type": "address"
        }
      ],
      "stateMutability": "view",
      "type": "function"
    },
    {
      "inputs": [],
      "name": "p5jsScript",
      "outputs": [
        {
          "internalType": "string",
          "name": "result",
          "type": "string"
        }
      ],
      "stateMutability": "view",
      "type": "function"
    },
    {
      "inputs": [],
      "name": "paused",
      "outputs": [
        {
          "internalType": "bool",
          "name": "",
          "type": "bool"
        }
      ],
      "stateMutability": "view",
      "type": "function"
    },
    {
      "inputs": [],
      "name": "renounceOwnership",
      "outputs": [],
      "stateMutability": "nonpayable",
      "type": "function"
    },
    {
      "inputs": [
        {
          "internalType": "uint256",
          "name": "projectId",
          "type": "uint256"
        },
        {
          "internalType": "uint256",
          "name": "_salePrice",
          "type": "uint256"
        }
      ],
      "name": "royaltyInfo",
      "outputs": [
        {
          "internalType": "address",
          "name": "receiver",
          "type": "address"
        },
        {
          "internalType": "uint256",
          "name": "royaltyAmount",
          "type": "uint256"
        }
      ],
      "stateMutability": "view",
      "type": "function"
    },
    {
      "inputs": [
        {
          "internalType": "address",
          "name": "from",
          "type": "address"
        },
        {
          "internalType": "address",
          "name": "to",
          "type": "address"
        },
        {
          "internalType": "uint256",
          "name": "tokenId",
          "type": "uint256"
        }
      ],
      "name": "safeTransferFrom",
      "outputs": [],
      "stateMutability": "nonpayable",
      "type": "function"
    },
    {
      "inputs": [
        {
          "internalType": "address",
          "name": "from",
          "type": "address"
        },
        {
          "internalType": "address",
          "name": "to",
          "type": "address"
        },
        {
          "internalType": "uint256",
          "name": "tokenId",
          "type": "uint256"
        },
        {
          "internalType": "bytes",
          "name": "data",
          "type": "bytes"
        }
      ],
      "name": "safeTransferFrom",
      "outputs": [],
      "stateMutability": "nonpayable",
      "type": "function"
    },
    {
      "inputs": [
        {
          "internalType": "address",
          "name": "operator",
          "type": "address"
        },
        {
          "internalType": "bool",
          "name": "approved",
          "type": "bool"
        }
      ],
      "name": "setApprovalForAll",
      "outputs": [],
      "stateMutability": "nonpayable",
      "type": "function"
    },
    {
      "inputs": [
        {
          "internalType": "uint256",
          "name": "tokenId",
          "type": "uint256"
        },
        {
          "internalType": "string",
          "name": "name",
          "type": "string"
        }
      ],
      "name": "setName",
      "outputs": [],
      "stateMutability": "nonpayable",
      "type": "function"
    },
    {
      "inputs": [
        {
          "internalType": "uint256",
          "name": "tokenId",
          "type": "uint256"
        }
      ],
      "name": "settleAuction",
      "outputs": [],
      "stateMutability": "nonpayable",
      "type": "function"
    },
    {
      "inputs": [
        {
          "internalType": "bytes4",
          "name": "interfaceId",
          "type": "bytes4"
        }
      ],
      "name": "supportsInterface",
      "outputs": [
        {
          "internalType": "bool",
          "name": "",
          "type": "bool"
        }
      ],
      "stateMutability": "view",
      "type": "function"
    },
    {
      "inputs": [],
      "name": "symbol",
      "outputs": [
        {
          "internalType": "string",
          "name": "",
          "type": "string"
        }
      ],
      "stateMutability": "view",
      "type": "function"
    },
    {
      "inputs": [
        {
          "internalType": "bytes32",
          "name": "seed",
          "type": "bytes32"
        },
        {
          "internalType": "uint256",
          "name": "tokenId",
          "type": "uint256"
        }
      ],
      "name": "tokenHTML",
      "outputs": [
        {
          "internalType": "string",
          "name": "result",
          "type": "string"
        }
      ],
      "stateMutability": "view",
      "type": "function"
    },
    {
      "inputs": [
        {
          "internalType": "uint256",
          "name": "tokenId",
          "type": "uint256"
        }
      ],
      "name": "tokenIdToHash",
      "outputs": [
        {
          "internalType": "bytes32",
          "name": "",
          "type": "bytes32"
        }
      ],
      "stateMutability": "view",
      "type": "function"
    },
    {
      "inputs": [
        {
          "internalType": "uint256",
          "name": "tokenId",
          "type": "uint256"
        }
      ],
      "name": "tokenURI",
      "outputs": [
        {
          "internalType": "string",
          "name": "result",
          "type": "string"
        }
      ],
      "stateMutability": "view",
      "type": "function"
    },
    {
      "inputs": [
        {
          "internalType": "address",
          "name": "from",
          "type": "address"
        },
        {
          "internalType": "address",
          "name": "to",
          "type": "address"
        },
        {
          "internalType": "uint256",
          "name": "tokenId",
          "type": "uint256"
        }
      ],
      "name": "transferFrom",
      "outputs": [],
      "stateMutability": "nonpayable",
      "type": "function"
    },
    {
      "inputs": [
        {
          "internalType": "address",
          "name": "newOwner",
          "type": "address"
        }
      ],
      "name": "transferOwnership",
      "outputs": [],
      "stateMutability": "nonpayable",
      "type": "function"
    },
    {
      "inputs": [
        {
          "internalType": "uint256",
          "name": "tokenId",
          "type": "uint256"
        },
        {
          "internalType": "string",
          "name": "featureName",
          "type": "string"
        }
      ],
      "name": "unlockFeature",
      "outputs": [],
      "stateMutability": "nonpayable",
      "type": "function"
    },
    {
      "inputs": [
        {
          "internalType": "bytes32",
          "name": "seed",
          "type": "bytes32"
        },
        {
          "internalType": "uint256",
          "name": "tokenId",
          "type": "uint256"
        }
      ],
      "name": "variableScript",
      "outputs": [
        {
          "internalType": "string",
          "name": "result",
          "type": "string"
        }
      ],
      "stateMutability": "view",
      "type": "function"
    },
    {
      "inputs": [],
      "name": "web3Script",
      "outputs": [
        {
          "internalType": "string",
          "name": "result",
          "type": "string"
        }
      ],
      "stateMutability": "view",
      "type": "function"
    },
    {
      "inputs": [
        {
          "internalType": "address",
          "name": "erc20Addr",
          "type": "address"
        }
      ],
      "name": "withdraw",
      "outputs": [],
      "stateMutability": "nonpayable",
      "type": "function"
    }
  ],
  "bytecode": "0x608060405234801561001057600080fd5b506174d680620000216000396000f3fe6080604052600436106103b85760003560e01c8063715018a6116101f2578063adfc7dae1161010d578063d5563f31116100a0578063f2fde38b1161006f578063f2fde38b14610d26578063f3f83ddd14610d46578063fe55932a14610d66578063febfd6c314610d8657600080fd5b8063d5563f3114610c7d578063dd07662f14610c9d578063e985e9c514610cbd578063eb29c23214610d0657600080fd5b8063bd896843116100dc578063bd89684314610bd5578063c5c1b8af14610bf6578063c87b56dd14610c2f578063cc22e00414610c4f57600080fd5b8063adfc7dae14610b66578063b6b55f2514610b87578063b7751c7114610b9a578063b88d4fde14610bba57600080fd5b806394d008ef116101855780639a247cb3116101545780639a247cb314610a905780639c6f35f914610b10578063a0d41e1114610b31578063a22cb46514610b4657600080fd5b806394d008ef14610a1b57806394f5a66e14610a3b57806395d89b4114610a5b57806396e494e814610a7057600080fd5b80638a016249116101c15780638a016249146109a75780638da5cb5b146109bc5780638f283970146109db57806393c6cdc0146109fb57600080fd5b8063715018a61461092f57806374973a411461094457806375b4ab5d146109595780637de77ecc1461097957600080fd5b80632b7d13de116102e2578063512c91df11610275578063621a1f7411610244578063621a1f74146108ae5780636352211e146108ce57806366215eb4146108ee57806370a082311461090f57600080fd5b8063512c91df1461081757806351cff8d91461083757806355cd6326146108575780635c975abb1461089657600080fd5b806332e32326116102b157806332e323261461079657806333348979146107b657806342842e0e146107d757806343b2ce19146107f757600080fd5b80632b7d13de146106db5780632e0048ad146106fb5780632e993611146107525780632fd6a6921461077257600080fd5b8063150b7a021161035a57806323b872dd1161032957806323b872dd1461063357806325c5aa061461064e5780632824d1621461066e5780632a55205a1461069c57600080fd5b8063150b7a02146104cf57806317dc6bf6146105085780631ca9741b146105ee57806322f4596f1461060e57600080fd5b806306fdde031161039657806306fdde031461044b578063081812fc1461046d578063095ea7b31461048d578063140f0e07146104af57600080fd5b806301bc45c9146103bd57806301ffc9a7146103fb57806306cb20c11461042b575b600080fd5b3480156103c957600080fd5b5061015f546103de906001600160a01b031681565b6040516001600160a01b0390911681526020015b60405180910390f35b34801561040757600080fd5b5061041b6104163660046161de565b610da6565b60405190151581526020016103f2565b34801561043757600080fd5b506103de6104463660046161fb565b610df8565b34801561045757600080fd5b50610460610e3e565b6040516103f2919061627f565b34801561047957600080fd5b506103de610488366004616292565b610ed0565b34801561049957600080fd5b506104ad6104a83660046162cb565b610ef7565b005b3480156104bb57600080fd5b506104ad6104ca3660046163c2565b611012565b3480156104db57600080fd5b506104ef6104ea366004616437565b611072565b6040516001600160e01b031990911681526020016103f2565b34801561051457600080fd5b50610588610523366004616292565b61016d60205260009081526040902080546001820154600283015460038401546004850154600586015460068701546007880154600889015460099099015497986001600160a01b0397881698969795969495841694600160a01b90940460ff16938b565b604080519b8c526001600160a01b039a8b1660208d01528b019890985260608a019690965260808901949094529590911660a0870152151560c086015260e0850193909352610100840192909252610120830191909152610140820152610160016103f2565b3480156105fa57600080fd5b506104ad6106093660046164a9565b611084565b34801561061a57600080fd5b506106256101665481565b6040519081526020016103f2565b34801561063f57600080fd5b506104ad6103b83660046164c6565b34801561065a57600080fd5b50610460610669366004616292565b611118565b34801561067a57600080fd5b506106256106893660046164a9565b6101706020526000908152604090205481565b3480156106a857600080fd5b506106bc6106b7366004616507565b6111b3565b604080516001600160a01b0390931683526020830191909152016103f2565b3480156106e757600080fd5b506104ad6106f63660046164a9565b6111e4565b34801561070757600080fd5b5061041b610716366004616529565b61017360209081526000938452604080852082529284529190922082518084018301805192815290830193909201929092209190525460ff1681565b34801561075e57600080fd5b506104ad61076d366004616292565b611279565b34801561077e57600080fd5b50610787611294565b6040516103f2939291906165a4565b3480156107a257600080fd5b506104606107b1366004616507565b61173f565b3480156107c257600080fd5b50610165546103de906001600160a01b031681565b3480156107e357600080fd5b506104ad6107f23660046164c6565b611928565b34801561080357600080fd5b506104ad61081236600461660d565b611943565b34801561082357600080fd5b506106256108323660046162cb565b611a0f565b34801561084357600080fd5b506104ad6108523660046164a9565b611a6d565b34801561086357600080fd5b50610625610872366004616653565b61016f60209081526000938452604080852082529284528284209052825290205481565b3480156108a257600080fd5b5060975460ff1661041b565b3480156108ba57600080fd5b506106256108c9366004616292565b611ca7565b3480156108da57600080fd5b506103de6108e9366004616292565b611d75565b3480156108fa57600080fd5b50610161546103de906001600160a01b031681565b34801561091b57600080fd5b5061062561092a3660046164a9565b611d91565b34801561093b57600080fd5b506104ad611e17565b34801561095057600080fd5b50610460611e2b565b34801561096557600080fd5b5061041b6109743660046164a9565b612085565b34801561098557600080fd5b506106256109943660046164a9565b61016a6020526000908152604090205481565b3480156109b357600080fd5b5061046061218c565b3480156109c857600080fd5b5061012d546001600160a01b03166103de565b3480156109e757600080fd5b506104ad6109f63660046164a9565b61219a565b348015610a0757600080fd5b506104ad610a163660046164a9565b61222f565b348015610a2757600080fd5b50610625610a3636600461668c565b6122c4565b348015610a4757600080fd5b506104ad610a563660046166e7565b61261a565b348015610a6757600080fd5b50610460612840565b348015610a7c57600080fd5b5061041b610a8b366004616292565b61284f565b348015610a9c57600080fd5b50610588610aab366004616292565b61016e60205260009081526040902080546001820154600283015460038401546004850154600586015460068701546007880154600889015460099099015497986001600160a01b0397881698969795969495841694600160a01b90940460ff16938b565b348015610b1c57600080fd5b50610164546103de906001600160a01b031681565b348015610b3d57600080fd5b50610460612999565b348015610b5257600080fd5b506104ad610b613660046167c6565b612bca565b348015610b7257600080fd5b50610160546103de906001600160a01b031681565b6104ad610b95366004616292565b612bd5565b348015610ba657600080fd5b506104ad610bb5366004616507565b612ee7565b348015610bc657600080fd5b506104ad6103b83660046167ff565b348015610be157600080fd5b50610167546103de906001600160a01b031681565b348015610c0257600080fd5b50610625610c1136600461687e565b61016c60209081526000928352604080842090915290825290205481565b348015610c3b57600080fd5b50610460610c4a366004616292565b613448565b348015610c5b57600080fd5b50610625610c6a366004616292565b6101696020526000908152604090205481565b348015610c8957600080fd5b506104ad610c98366004616292565b613619565b348015610ca957600080fd5b5061041b610cb8366004616529565b61372c565b348015610cc957600080fd5b5061041b610cd836600461687e565b6001600160a01b039182166000908152606a6020908152604080832093909416825291909152205460ff1690565b348015610d1257600080fd5b50610460610d21366004616507565b613843565b348015610d3257600080fd5b506104ad610d413660046164a9565b613915565b348015610d5257600080fd5b506104ad610d613660046164a9565b61398b565b348015610d7257600080fd5b506104ad610d8136600461660d565b613a20565b348015610d9257600080fd5b506104ad610da13660046164a9565b613a79565b60006001600160e01b031982166380ac58cd60e01b1480610dd757506001600160e01b03198216635b5e139f60e01b145b80610df257506301ffc9a760e01b6001600160e01b03198316145b92915050565b6101716020528260005260406000206020528160005260406000208181548110610e2157600080fd5b6000918252602090912001546001600160a01b0316925083915050565b606060658054610e4d906168ac565b80601f0160208091040260200160405190810160405280929190818152602001828054610e79906168ac565b8015610ec65780601f10610e9b57610100808354040283529160200191610ec6565b820191906000526020600020905b815481529060010190602001808311610ea957829003601f168201915b5050505050905090565b6000610edb82613b0e565b506000908152606960205260409020546001600160a01b031690565b6000610f0282613b5e565b9050806001600160a01b0316836001600160a01b03161415610f755760405162461bcd60e51b815260206004820152602160248201527f4552433732313a20617070726f76616c20746f2063757272656e74206f776e656044820152603960f91b60648201526084015b60405180910390fd5b336001600160a01b0382161480610f915750610f918133610cd8565b6110035760405162461bcd60e51b815260206004820152603d60248201527f4552433732313a20617070726f76652063616c6c6572206973206e6f7420746f60448201527f6b656e206f776e6572206f7220617070726f76656420666f7220616c6c0000006064820152608401610f6c565b61100d8383613bbe565b505050565b61015f5460408051808201909152600381526231303160e81b6020820152906001600160a01b031633146110595760405162461bcd60e51b8152600401610f6c919061627f565b50805161106e906101639060208401906160e8565b5050565b630a85bd0160e11b5b95945050505050565b61015f546001600160a01b0316331480156110a757506001600160a01b03811615155b6040518060400160405280600381526020016231303160e81b815250906110e15760405162461bcd60e51b8152600401610f6c919061627f565b50610161546001600160a01b038281169116146111155761016180546001600160a01b0319166001600160a01b0383161790555b50565b6101726020526000908152604090208054611132906168ac565b80601f016020809104026020016040519081016040528092919081815260200182805461115e906168ac565b80156111ab5780601f10611180576101008083540402835291602001916111ab565b820191906000526020600020905b81548152906001019060200180831161118e57829003601f168201915b505050505081565b61015f546001600160a01b031660006127106111d1846101f46168fd565b6111db919061691c565b90509250929050565b61015f546001600160a01b03163314801561120757506001600160a01b03811615155b6040518060400160405280600381526020016231303160e81b815250906112415760405162461bcd60e51b8152600401610f6c919061627f565b50610165546001600160a01b038281169116146111155761016580546001600160a01b0383166001600160a01b031990911617905550565b611281613c8a565b61128a81613ce4565b611115600160fb55565b61129c61616c565b6112a4616194565b6112ac616194565b604051806101600160405280604051806040016040528060118152602001701999585d1d5c9957dcdd5b9959999958dd607a1b8152508152602001604051806040016040528060128152602001713332b0ba3ab932afb1b637bab23630bcb2b960711b8152508152602001604051806040016040528060128152602001711999585d1d5c9957d99bdc9959dc9bdd5b9960721b81525081526020016040518060400160405280600d81526020016c3332b0ba3ab932afb232b1b7b960991b8152508152602001604051806040016040528060128152602001713332b0ba3ab932afb9b832b1b4b0b637b13560711b81525081526020016040518060400160405280601081526020016f666561747572655f73756e736861706560801b81525081526020016040518060400160405280600f81526020016e666561747572655f7261696e626f7760881b81525081526020016040518060400160405280600f81526020016e3332b0ba3ab932afba343ab73232b960891b81525081526020016040518060400160405280600c81526020016b3332b0ba3ab932afb930b4b760a11b81525081526020016040518060400160405280600f81526020016e666561747572655f73756e6175726160881b8152508152602001604051806040016040528060118152602001703332b0ba3ab932afb9bab73834b63630b960791b81525081525092506040518061016001604052806005815260200160088152602001600d815260200160158152602001601581526020016022815260200160378152602001605981526020016090815260200160e9815260200161017981525091506040518061016001604052806103e881526020016107d08152602001610bb881526020016113888152602001611f408152602001611f408152602001611f408152602001611f408152602001611f408152602001611f408152602001611f408152509050600061016060009054906101000a90046001600160a01b0316905060005b600b8110156117385760008582600b81106115a9576115a961693e565b602002015190506000836001600160a01b0316636d12dce1836115cb866142ea565b6040516020016115dc929190616954565b6040516020818303038152906040526040518263ffffffff1660e01b8152600401611607919061627f565b602060405180830381865afa158015611624573d6000803e3d6000fd5b505050506040513d601f19601f8201168201806040525081019061164891906169b2565b9050801561166957808684600b81106116635761166361693e565b60200201525b6000846001600160a01b0316636d12dce184611684876142ea565b6040516020016116959291906169cb565b6040516020818303038152906040526040518263ffffffff1660e01b81526004016116c0919061627f565b602060405180830381865afa1580156116dd573d6000803e3d6000fd5b505050506040513d601f19601f8201168201806040525081019061170191906169b2565b9050801561172257808685600b811061171c5761171c61693e565b60200201525b505050808061173090616a2a565b91505061158c565b5050909192565b6040805180820190915260128152711e39b1b934b83a1034b21e93bb30b939939f60711b60208201528061177284614386565b604051602001611783929190616a45565b60408051601f198184030181529190526101645490915081906117ae906001600160a01b03166143d2565b6040516020016117bf929190616a99565b60408051808303601f19018152908290526101605463bf40fac160e01b835260206004840152602160248401527f535741505f504f4f4c5f474d5f4554485f434f4e54524143545f4144445245536044840152605360f81b60648401529092506001600160a01b031690600090829063bf40fac190608401602060405180830381865afa158015611854573d6000803e3d6000fd5b505050506040513d601f19601f820116820180604052508101906118789190616b00565b905082611884826143d2565b604051602001611895929190616b1d565b6040516020818303038152906040529250826118b0306143d2565b6040516020016118c1929190616b95565b6040516020818303038152906040529250826118dc856142ea565b6040516020016118ed929190616bfc565b60405160208183030381529060405292508260405160200161190f9190616c54565b6040516020818303038152906040529250505092915050565b61100d83838360405180602001604052806000815250600080fd5b61194b613c8a565b61195682338361372c565b61195f57600080fd5b3361196983611d75565b6001600160a01b03161461197c57600080fd5b600082815261017360209081526040808320338452909152908190209051600191906119a9908490616c81565b908152604051908190036020018120805492151560ff19909316929092179091557f5db1ea2148ed1be0097b4ac2c3e06db07833f436be9a414b0a51849fd070a805906119fd903390439086908690616c9d565b60405180910390a161106e600160fb55565b6101675461016454604080513060208083019190915246828401526001600160a01b03948516606083015295841660808201529290911660a083015260c0808301939093528051808303909301835260e09091019052805191012090565b611a75613c8a565b61015f5481906001600160a01b0316331415611b85576001600160a01b03821660009081526101706020526040902054611aae57600080fd5b6001600160a01b03828116600090815261017060205260409081902054905163a9059cbb60e01b815233600482015260248101919091529082169063a9059cbb906044016020604051808303816000875af1158015611b11573d6000803e3d6000fd5b505050506040513d601f19601f82011682018060405250810190611b359190616cd4565b611b665760405162461bcd60e51b8152602060048201526002602482015261573160f01b6044820152606401610f6c565b6001600160a01b03821660009081526101706020526040812055611c9c565b33600090815261016c602090815260408083206001600160a01b0386168452909152902054611bb357600080fd5b33600081815261016c602090815260408083206001600160a01b03878116855292529182902054915163a9059cbb60e01b81526004810193909352602483019190915282169063a9059cbb906044016020604051808303816000875af1158015611c21573d6000803e3d6000fd5b505050506040513d601f19601f82011682018060405250810190611c459190616cd4565b611c765760405162461bcd60e51b81526020600482015260026024820152612b9960f11b6044820152606401610f6c565b33600090815261016c602090815260408083206001600160a01b03861684529091528120555b50611115600160fb55565b6000611cb2826143e8565b6040518060400160405280600381526020016232303960e81b81525090611cec5760405162461bcd60e51b8152600401610f6c919061627f565b5060008281526101686020526040902054600160a01b900460a01b6001600160a01b031916611d1d57506000919050565b60008281526101686020908152604091829020549151611d5892600160a01b900460a01b91016001600160a01b031991909116815260200190565b604051602081830303815290604052805190602001209050919050565b600090815261016860205260409020546001600160a01b031690565b60006001600160a01b038216611dfb5760405162461bcd60e51b815260206004820152602960248201527f4552433732313a2061646472657373207a65726f206973206e6f7420612076616044820152683634b21037bbb732b960b91b6064820152608401610f6c565b506001600160a01b031660009081526068602052604090205490565b611e1f614406565b611e296000614461565b565b606060405180606001604052806037815260200161746a6037913961016554604080518082018252600d81526c70356a7340312e352e302e6a7360981b602082015261016054915163bf40fac160e01b81529394506001600160a01b039283169390929190911690600090829063bf40fac190611ece906004016020808252600f908201526e29a1a924a82a2fa82927ab24a222a960891b604082015260600190565b602060405180830381865afa158015611eeb573d6000803e3d6000fd5b505050506040513d601f19601f82011682018060405250810190611f0f9190616b00565b90506000846001600160a01b031663ba67e64183866040518363ffffffff1660e01b8152600401611f41929190616cf1565b602060405180830381865afa158015611f5e573d6000803e3d6000fd5b505050506040513d601f19601f82011682018060405250810190611f8291906169b2565b9050611f8f600182616d15565b905060005b8181101561205a5761015f5460405163283959d960e21b815260009182916001600160a01b038a81169263a0e5676492611fd892909116908b908890600401616d2d565b600060405180830381865afa158015611ff5573d6000803e3d6000fd5b505050506040513d6000823e601f3d908101601f1916820160405261201d9190810190616d91565b915091508882604051602001612034929190616deb565b60405160208183030381529060405298505050808061205290616a2a565b915050611f94565b508560405160200161206c9190616c54565b6040516020818303038152906040529550505050505090565b60008061209183611d91565b111561209f57506000919050565b6101605460405163bf40fac160e01b81526000916001600160a01b03169063bf40fac1906120cf90600401616e1a565b602060405180830381865afa1580156120ec573d6000803e3d6000fd5b505050506040513d601f19601f820116820180604052508101906121109190616b00565b90506001600160a01b03811661212f5750610164546001600160a01b03165b6121376144b4565b6001600160a01b03808516600090815261016c60209081526040808320610164549094168352929052205461216b8561455f565b6121759190616d15565b106121835750600192915050565b50600092915050565b6101638054611132906168ac565b61015f546001600160a01b0316331480156121bd57506001600160a01b03811615155b6040518060400160405280600381526020016231303160e81b815250906121f75760405162461bcd60e51b8152600401610f6c919061627f565b5061015f546001600160a01b038281169116146111155761015f80546001600160a01b0383166001600160a01b031990911617905550565b61015f546001600160a01b03163314801561225257506001600160a01b03811615155b6040518060400160405280600381526020016231303160e81b8152509061228c5760405162461bcd60e51b8152600401610f6c919061627f565b50610164546001600160a01b038281169116146111155761016480546001600160a01b0383166001600160a01b031990911617905550565b60006122ce613c8a565b6101665461016254106040518060400160405280600381526020016232303360e81b815250906123115760405162461bcd60e51b8152600401610f6c919061627f565b5061015f546001600160a01b0316331461245157336001600160a01b038616146123655760405162461bcd60e51b815260206004820152600560248201526447505f495560d81b6044820152606401610f6c565b61236e85611d91565b156123a15760405162461bcd60e51b8152602060048201526003602482015262312d3160e81b6044820152606401610f6c565b6001600160a01b038516600090815261016a6020526040902054156123ec5760405162461bcd60e51b81526020600482015260016024820152604d60f81b6044820152606401610f6c565b61242d858585858080601f0160208091040260200160405190810160405280939291908181526020018383808284376000920191909152506145cf92505050565b50506001600160a01b038516600090815261016a602052604090206001905561254d565b61015f546001600160a01b03868116911614156124985760405162461bcd60e51b815260206004820152600560248201526447505f495560d81b6044820152606401610f6c565b6001600160a01b038516301461254d576124b185611d91565b156124e45760405162461bcd60e51b8152602060048201526003602482015262312d3160e81b6044820152606401610f6c565b6001600160a01b038516600090815261016a60205260409020541561252f5760405162461bcd60e51b81526020600482015260016024820152604d60f81b6044820152606401610f6c565b6001600160a01b038516600090815261016a60205260409020600190555b610162805490600061255e83616a2a565b91905055506101625490506125738582614648565b61016154604051631da00d8560e01b8152600481018390526001600160a01b03909116906000908290631da00d85906024016020604051808303816000875af11580156125c4573d6000803e3d6000fd5b505050506040513d601f19601f820116820180604052508101906125e891906169b2565b90506125f48382614662565b5050600081815261016960205260409020439055612612600160fb55565b949350505050565b600054610100900460ff161580801561263a5750600054600160ff909116105b806126545750303b158015612654575060005460ff166001145b6126b75760405162461bcd60e51b815260206004820152602e60248201527f496e697469616c697a61626c653a20636f6e747261637420697320616c72656160448201526d191e481a5b9a5d1a585b1a5e995960921b6064820152608401610f6c565b6000805460ff1916600117905580156126da576000805461ff0019166101001790555b60408051808201909152600381526203130360ec1b60208201526001600160a01b03881661271b5760405162461bcd60e51b8152600401610f6c919061627f565b5060408051808201909152600381526203130360ec1b60208201526001600160a01b03871661275d5760405162461bcd60e51b8152600401610f6c919061627f565b5061016080546001600160a01b03199081166001600160a01b038981169190911790925561015f805482168a841617905561016180548216888416179055610164805482168784161790556104df610166556101658054821686841617905561016780549091169184169190911790556127d7898961472d565b6127df61475e565b6127e761478d565b6127ef6147bc565b8015612835576000805461ff0019169055604051600181527f7f26b83ff96e1f2b6a682f133852f6798a09c465da95921460cefb38474024989060200160405180910390a15b505050505050505050565b606060668054610e4d906168ac565b600061285a826143e8565b61286657506000919050565b61286e6147eb565b600083815261016960205260409020546128889043616e51565b116128b6573061289783611d75565b6001600160a01b031614156128ae57506001919050565b506000919050565b61015f546001600160a01b03166128cc83611d75565b6001600160a01b031614156128e357506000919050565b306128ed83611d75565b6001600160a01b0316141561292657600082815261016d6020526040902060050154600160a01b900460ff161561292657506001919050565b60006129306144b4565b90508061016c600061294186611d75565b6001600160a01b03908116825260208083019390935260409182016000908120610164549092168152925290205461298061297b86611d75565b61455f565b61298a9190616d15565b10156121835750600192915050565b606060405180606001604052806037815260200161746a6037913961016554604080518082018252600f81526e776562336a7340312e322e372e6a7360881b602082015261016054915163bf40fac160e01b81529394506001600160a01b039283169390929190911690600090829063bf40fac190612a3e906004016020808252600f908201526e29a1a924a82a2fa82927ab24a222a960891b604082015260600190565b602060405180830381865afa158015612a5b573d6000803e3d6000fd5b505050506040513d601f19601f82011682018060405250810190612a7f9190616b00565b90506000846001600160a01b031663ba67e64183866040518363ffffffff1660e01b8152600401612ab1929190616cf1565b602060405180830381865afa158015612ace573d6000803e3d6000fd5b505050506040513d601f19601f82011682018060405250810190612af291906169b2565b9050612aff600182616d15565b905060005b8181101561205a5761015f5460405163283959d960e21b815260009182916001600160a01b038a81169263a0e5676492612b4892909116908b908890600401616d2d565b600060405180830381865afa158015612b65573d6000803e3d6000fd5b505050506040513d6000823e601f3d908101601f19168201604052612b8d9190810190616d91565b915091508882604051602001612ba4929190616deb565b604051602081830303815290604052985050508080612bc290616a2a565b915050612b04565b61106e33838361488d565b612bdd613c8a565b6101605460405163bf40fac160e01b81526000916001600160a01b03169063bf40fac190612c0d90600401616e1a565b602060405180830381865afa158015612c2a573d6000803e3d6000fd5b505050506040513d601f19601f82011682018060405250810190612c4e9190616b00565b90506001600160a01b038116612c6d5750610164546001600160a01b03165b604051636eb1769f60e11b8152336004820152306024820152819083906001600160a01b0383169063dd62ed3e90604401602060405180830381865afa158015612cbb573d6000803e3d6000fd5b505050506040513d601f19601f82011682018060405250810190612cdf91906169b2565b1015612d2d5760405162461bcd60e51b815260206004820152601c60248201527f6e6f7420656e6f75676820616c6c6f7720657263323020746f6b656e000000006044820152606401610f6c565b6040516370a0823160e01b815233600482015283906001600160a01b038316906370a0823190602401602060405180830381865afa158015612d73573d6000803e3d6000fd5b505050506040513d601f19601f82011682018060405250810190612d9791906169b2565b1015612dde5760405162461bcd60e51b81526020600482015260166024820152753737ba1032b737bab3b41032b9319918103a37b5b2b760511b6044820152606401610f6c565b6040516323b872dd60e01b8152336004820152306024820152604481018490526001600160a01b038216906323b872dd906064016020604051808303816000875af1158015612e31573d6000803e3d6000fd5b505050506040513d601f19601f82011682018060405250810190612e559190616cd4565b612ea15760405162461bcd60e51b815260206004820152601d60248201527f63616e206e6f74206765742065726332302066726f6d206269646465720000006044820152606401610f6c565b33600090815261016c602090815260408083206001600160a01b038616845290915281208054859290612ed5908490616d15565b9091555050600160fb55506111159050565b612eef613c8a565b612ef833612085565b612f2d5760405162461bcd60e51b8152600401610f6c9060208082526004908201526304e5f43360e41b604082015260600190565b612f3633611d91565b15612f6c5760405162461bcd60e51b8152602060048201526006602482015265272fa1982f9960d11b6044820152606401610f6c565b600082815261016f6020908152604080832061016d83528184206009015484528252808320338452909152902054612fe15760008281526101716020908152604080832061016d835281842060090154845282528220805460018101825590835291200180546001600160a01b031916331790555b600082815261016d602052604090205482146130345760405162461bcd60e51b81526020600482015260126024820152713737ba103ab8103337b91030bab1ba34b7b760711b6044820152606401610f6c565b600082815261016d602052604090206004015443106130875760405162461bcd60e51b815260206004820152600f60248201526e105d58dd1a5bdb88195e1c1a5c9959608a1b6044820152606401610f6c565b33600090815261016c6020908152604080832085845261016d8352818420600101546001600160a01b031684529091529020548111156131095760405162461bcd60e51b815260206004820152601e60248201527f6e6f7420656e6f7567682062616c616e636520657263323020746f6b656e00006044820152606401610f6c565b600082815261016f6020908152604080832061016d83528184206009015484528252808320338452909152812054906131428284616d15565b600085815261016d602052604090206007015490915081116131a65760405162461bcd60e51b815260206004820152601f60248201527f4d7573742073656e64206174206c6561737420726573657276655072696365006044820152606401610f6c565b600084815261016d6020526040902060088101546002909101546064916131cc916168fd565b6131d6919061691c565b600085815261016d60205260409020600201546131f39190616d15565b8111613269576040805162461bcd60e51b81526020600482015260248101919091527f4d7573742073656e64206d6f7265207468616e206c617374206269642062792060448201527f6d696e426964496e6372656d656e7450657263656e7461676520616d6f756e746064820152608401610f6c565b33600090815261016c6020908152604080832087845261016d8352818420600101546001600160a01b03168452909152812080548592906132ab908490616e51565b9091555050600084815261016f6020908152604080832061016d8084528285206009810180548752928552838620338088529086528487208890556002808301899055600580840180546001600160a01b0319908116909417815586548a5261016e8952878a209092018a905590549454885294872090940180549094166001600160a01b039093169290921790925587845291526006810154600490910154613356904390616e51565b109050801561339057600085815261016d602052604090206006015461337c9043616d15565b600086815261016d60205260409020600401555b600085815261016d602052604090819020805491517ffd09e259e5c48be16f7dd63468e19266c684a9f3dce3b31881dbc1f909fc0d7c916133d79133918991879190616efe565b60405180910390a2801561343557600085815261016d60205260409081902080546004820154925190927f4c1666cb87ed4fd7706cb19b1e3160612601aca7235c307fe64a11bc8db0f41f9261342c92616f2b565b60405180910390a25b50505061106e600160fb55565b50505050565b6060613453826143e8565b6040518060400160405280600381526020016232303960e81b8152509061348d5760405162461bcd60e51b8152600401610f6c919061627f565b5060405163188687dd60e21b815260048101839052600090309063621a1f7490602401602060405180830381865afa1580156134cd573d6000803e3d6000fd5b505050506040513d601f19601f820116820180604052508101906134f191906169b2565b61016054604051637594e11960e11b815260048101839052602481018690529192506001600160a01b031690600090309063eb29c23290604401600060405180830381865afa158015613548573d6000803e3d6000fd5b505050506040513d6000823e601f3d908101601f191682016040526135709190810190616f40565b905061359a816040516020016135869190616c81565b60405160208183030381529060405261495c565b6040516020016135aa9190616f88565b60405160208183030381529060405290506000816040516020016135ce9190616fc6565b60408051601f19818403018152828252600089815261017260209081529290209093506135ff9290918491016170a7565b604051602081830303815290604052945050505050919050565b613621613c8a565b61362a8161284f565b61365f5760405162461bcd60e51b8152600401610f6c9060208082526004908201526304e5f43360e41b604082015260600190565b600061366a82611d75565b905061367582614ac1565b6001600160a01b0381163014611c9c576000806000613692611294565b92509250925060005b600b81101561371d576000868152610173602090815260408083206001600160a01b038916845290915281208583600b81106136d9576136d961693e565b60200201516040516136eb9190616c81565b908152604051908190036020019020805491151560ff199092169190911790558061371581616a2a565b91505061369b565b5050505050611115600160fb55565b6000838152610173602090815260408083206001600160a01b03861684529091528082209051829190613760908590616c81565b9081526040519081900360200190205460ff169050801561378557600091505061383c565b600080600061379386615137565b9250925092508251600014156137b057600094505050505061383c565b6137c282670de0b6b3a76400006168fd565b6001600160a01b03808916600090815261016c6020908152604080832061016454909416835292905220546137f68961455f565b6138009190616d15565b10613833576000888152610169602052604090205481906138219043616e51565b1061383357600194505050505061383c565b60009450505050505b9392505050565b60408051808201909152600c81526b1e343a36b61f1e3432b0b21f60a11b60208201528061386f611e2b565b604051602001613880929190616deb565b60405160208183030381529060405290508061389a612999565b6040516020016138ab929190616deb565b6040516020818303038152906040529050806138c7848461173f565b6040516020016138d8929190616deb565b6040516020818303038152906040529050806101636040516020016138fe92919061713c565b604051602081830303815290604052905092915050565b61391d614406565b6001600160a01b0381166139825760405162461bcd60e51b815260206004820152602660248201527f4f776e61626c653a206e6577206f776e657220697320746865207a65726f206160448201526564647265737360d01b6064820152608401610f6c565b61111581614461565b61015f546001600160a01b0316331480156139ae57506001600160a01b03811615155b6040518060400160405280600381526020016231303160e81b815250906139e85760405162461bcd60e51b8152600401610f6c919061627f565b50610167546001600160a01b038281169116146111155761016780546001600160a01b0383166001600160a01b031990911617905550565b613a28613c8a565b613a3182611d75565b6001600160a01b0316336001600160a01b031614613a4e57600080fd5b6000828152610172602090815260409091208251613a6e928401906160e8565b5061106e600160fb55565b61015f546001600160a01b031633148015613a9c57506001600160a01b03811615155b6040518060400160405280600381526020016231303160e81b81525090613ad65760405162461bcd60e51b8152600401610f6c919061627f565b50610160546001600160a01b038281169116146111155761016080546001600160a01b0383166001600160a01b031990911617905550565b613b17816143e8565b6111155760405162461bcd60e51b8152602060048201526018602482015277115490cdcc8c4e881a5b9d985b1a59081d1bdad95b88125160421b6044820152606401610f6c565b6000818152606760205260408120546001600160a01b031680610df25760405162461bcd60e51b8152602060048201526018602482015277115490cdcc8c4e881a5b9d985b1a59081d1bdad95b88125160421b6044820152606401610f6c565b600081815260696020526040902080546001600160a01b0319166001600160a01b0384169081179091558190613bf382613b5e565b6001600160a01b03167f8c5be1e5ebec7d5bd14f71427d1e84f3dd0314c0f7b2291e5b200ac8c7c3b92560405160405180910390a45050565b6001600160a01b0382163014613c4f57613c4582611d91565b15613c4f57600080fd5b613c5a838383615263565b60009081526101686020526040902080546001600160a01b0319166001600160a01b039290921691909117905550565b600260fb541415613cdd5760405162461bcd60e51b815260206004820152601f60248201527f5265656e7472616e637947756172643a207265656e7472616e742063616c6c006044820152606401610f6c565b600260fb55565b600081815261016d602052604090206009810154600390910154613d415760405162461bcd60e51b815260206004820152601460248201527320bab1ba34b7b7103430b9b713ba103132b3bab760611b6044820152606401610f6c565b600082815261016d6020526040902060050154600160a01b900460ff1615613dab5760405162461bcd60e51b815260206004820181905260248201527f41756374696f6e2068617320616c7265616479206265656e20736574746c65646044820152606401610f6c565b600082815261016d6020526040902060040154431015613e0d5760405162461bcd60e51b815260206004820152601860248201527f41756374696f6e206861736e277420636f6d706c6574656400000000000000006044820152606401610f6c565b600082815261016d6020818152604080842060059081018054600160a01b60ff60a01b199182168117835588885261016e865293872090920180549092169092179055858452919052546001600160a01b031615613f5257600083815261016d6020526040902060050154613e8a906001600160a01b0316611d91565b613ec057600083815261016d6020526040902060058101549054613ebb9130916001600160a01b0390911690613c2c565b613f52565b600083815261016d60209081526040808320600281015460058201546001600160a01b03908116865261016c855283862060019093015416855292528220805491929091613f0f908490616d15565b909155505050600082815261016f60209081526040808320848452825280832085845261016d8352818420600501546001600160a01b0316845290915281205560015b600083815261016d602052604090206002015415801590613f71575080155b15614179576101605460405163bf40fac160e01b815260206004820152601c60248201527f534f554c5f41554354494f4e5f474d5f44414f5f54726561737572790000000060448201526000916001600160a01b03169063bf40fac190606401602060405180830381865afa158015613fee573d6000803e3d6000fd5b505050506040513d601f19601f820116820180604052508101906140129190616b00565b90506001600160a01b03811661402757600080fd5b600084815261016d60205260408120600201546127109061404a906103e86168fd565b614054919061691c565b600086815261016d6020526040902060018101546002909101549192506001600160a01b03169063a9059cbb90849061408e908590616e51565b6040516001600160e01b031960e085901b1681526001600160a01b03909216600483015260248201526044016020604051808303816000875af11580156140d9573d6000803e3d6000fd5b505050506040513d601f19601f820116820180604052508101906140fd9190616cd4565b50600085815261016d60209081526040808320600101546001600160a01b0316835261017090915281208054839290614137908490616d15565b909155505050600084815261016f60209081526040808320868452825280832087845261016d8352818420600501546001600160a01b03168452909152812055505b6000838152610171602090815260408083208584529091529020541561427e5760005b60008481526101716020908152604080832086845290915290205481101561427c57600084815261016d6020908152604080832060050154610171835281842087855290925290912080546001600160a01b0390921691839081106142035761420361693e565b6000918252602090912001546001600160a01b03161461426a576000848152610171602090815260408083208684529091529020805461426a91908390811061424e5761424e61693e565b6000918252602090912001546001600160a01b031685856153d4565b8061427481616a2a565b91505061419c565b505b600083815261016d602052604090819020805460058201546002830154935191937f727cff623966c8adc61ac68940e8c898c04ff7ced5d69d9735d51f0589daf532936142d6936001600160a01b039093169261715a565b60405180910390a2505050565b600160fb55565b606060006142f78361555f565b60010190506000816001600160401b03811115614316576143166162f7565b6040519080825280601f01601f191660200182016040528015614340576020820181803683370190505b5090508181016020015b600019016f181899199a1a9b1b9c1cb0b131b232b360811b600a86061a8153600a85049450846143795761437e565b61434a565b509392505050565b606061439182615637565b61439e608084901b615637565b60405161060f60f31b6020820152602281019290925260428201526062016040516020818303038152906040529050919050565b6060610df26001600160a01b03831660146157e9565b600090815261016860205260409020546001600160a01b0316151590565b61012d546001600160a01b03163314611e295760405162461bcd60e51b815260206004820181905260248201527f4f776e61626c653a2063616c6c6572206973206e6f7420746865206f776e65726044820152606401610f6c565b61012d80546001600160a01b038381166001600160a01b0319831681179093556040519116919082907f8be0079c531659141344cd1fd0a4f28419497f9722a3daafe3b4186f6b6457e090600090a35050565b61016054604051636d12dce160e01b815260206004820152601160248201527014d3d55317d1d357d512149154d213d311607a1b604482015260009182916001600160a01b0390911690636d12dce190606401602060405180830381865afa158015614524573d6000803e3d6000fd5b505050506040513d601f19601f8201168201806040525081019061454891906169b2565b90508061455a5750670de0b6b3a76400005b919050565b610164546040516370a0823160e01b81526001600160a01b03838116600483015260009216906370a0823190602401602060405180830381865afa1580156145ab573d6000803e3d6000fd5b505050506040513d601f19601f82011682018060405250810190610df291906169b2565b60008060006145de8686611a0f565b905060006145f46145ee83615984565b866159bf565b610167549091506001600160a01b0380831691161461463d5760405162461bcd60e51b815260206004820152600560248201526447505f4e4160d81b6044820152606401610f6c565b969095509350505050565b61106e8282604051806020016040528060008152506159db565b60008281526101686020908152604091829020548251808401909352600383526219181b60e91b91830191909152600160a01b900460a01b6001600160a01b031916156146c25760405162461bcd60e51b8152600401610f6c919061627f565b5060408051808201909152600381526232303760e81b6020820152816146fb5760405162461bcd60e51b8152600401610f6c919061627f565b5060009182526101686020526040909120805460a09290921c600160a01b026001600160a01b03909216919091179055565b600054610100900460ff166147545760405162461bcd60e51b8152600401610f6c9061717f565b61106e8282615a0e565b600054610100900460ff166147855760405162461bcd60e51b8152600401610f6c9061717f565b611e29615a5c565b600054610100900460ff166147b45760405162461bcd60e51b8152600401610f6c9061717f565b611e29615a83565b600054610100900460ff166147e35760405162461bcd60e51b8152600401610f6c9061717f565b611e29615ab6565b61016054604051636d12dce160e01b815260206004820152600f60248201526e534f554c5f474d5f5245534552564560881b604482015260009182916001600160a01b0390911690636d12dce190606401602060405180830381865afa158015614859573d6000803e3d6000fd5b505050506040513d601f19601f8201168201806040525081019061487d91906169b2565b90508061455a57506103f0919050565b816001600160a01b0316836001600160a01b031614156148ef5760405162461bcd60e51b815260206004820152601960248201527f4552433732313a20617070726f766520746f2063616c6c6572000000000000006044820152606401610f6c565b6001600160a01b038381166000818152606a6020908152604080832094871680845294825291829020805460ff191686151590811790915591519182527f17307eab39ab6107e8899845ad3d59bd9653f200f220920489ca2b5937696c31910160405180910390a3505050565b606081516000141561497c57505060408051602081019091526000815290565b600060405180606001604052806040815260200161742a60409139905060006003845160026149ab9190616d15565b6149b5919061691c565b6149c09060046168fd565b905060006149cf826020616d15565b6001600160401b038111156149e6576149e66162f7565b6040519080825280601f01601f191660200182016040528015614a10576020820181803683370190505b509050818152600183018586518101602084015b81831015614a7c576003830192508251603f8160121c168501518253600182019150603f81600c1c168501518253600182019150603f8160061c168501518253600182019150603f8116850151825350600101614a24565b600389510660018114614a965760028114614aa757614ab3565b613d3d60f01b600119830152614ab3565b603d60f81b6000198301525b509398975050505050505050565b600081815261016d6020526040902060050154600160a01b900460ff1680614af65750600081815261016d6020526040902054155b614b685760405162461bcd60e51b815260206004820152603860248201527f41756374696f6e2068617320616c7265616479206265656e20736574746c656460448201527f206f72203173742041756374696f6e206f6620746f6b656e00000000000000006064820152608401610f6c565b436000614b736147eb565b614b7d9083616d15565b6101608054604080519283018152600060208401819052838201819052606084018190526080840181905260a0840181905260c0840181905260e08401819052610100840181905261012084018190526101408401528683525163bf40fac160e01b81529293506001600160a01b031691829063bf40fac190614c0290600401616e1a565b602060405180830381865afa158015614c1f573d6000803e3d6000fd5b505050506040513d601f19601f82011682018060405250810190614c439190616b00565b6001600160a01b031660208201819052614c6a57610164546001600160a01b031660208201525b60006040828101829052606083018690526080830185905260a0830182905260c083019190915251636d12dce160e01b815260206004820152601860248201527f534f554c5f41554354494f4e5f54494d455f425546464552000000000000000060448201526001600160a01b03831690636d12dce190606401602060405180830381865afa158015614d01573d6000803e3d6000fd5b505050506040513d601f19601f82011682018060405250810190614d2591906169b2565b60e0820152604051636d12dce160e01b815260206004820152601a60248201527f534f554c5f41554354494f4e5f524553455256455f505249434500000000000060448201526001600160a01b03831690636d12dce190606401602060405180830381865afa158015614d9c573d6000803e3d6000fd5b505050506040513d601f19601f82011682018060405250810190614dc091906169b2565b610100820152604051636d12dce160e01b815260206004820152602560248201527f534f554c5f41554354494f4e5f4d494e5f4249445f494e4352454153455f50456044820152641490d1539560da1b60648201526001600160a01b03831690636d12dce190608401602060405180830381865afa158015614e46573d6000803e3d6000fd5b505050506040513d601f19601f82011682018060405250810190614e6a91906169b2565b61012082015261016b8054906000614e8183616a2a565b9190505550614e9261016b546142ea565b614e9f82606001516142ea565b614eac83608001516142ea565b614eb5886142ea565b604051602001614ec8949392919061721c565b60405160208183030381529060405280519060200120816101400181815250508061016d60008781526020019081526020016000206000820151816000015560208201518160010160006101000a8154816001600160a01b0302191690836001600160a01b0316021790555060408201518160020155606082015181600301556080820151816004015560a08201518160050160006101000a8154816001600160a01b0302191690836001600160a01b0316021790555060c08201518160050160146101000a81548160ff02191690831515021790555060e082015181600601556101008201518160070155610120820151816008015561014082015181600901559050508061016e600083610140015181526020019081526020016000206000820151816000015560208201518160010160006101000a8154816001600160a01b0302191690836001600160a01b0316021790555060408201518160020155606082015181600301556080820151816004015560a08201518160050160006101000a8154816001600160a01b0302191690836001600160a01b0316021790555060c08201518160050160146101000a81548160ff02191690831515021790555060e08201518160060155610100820151816007015561012082015181600801556101408201518160090155905050306001600160a01b03166150ca86611d75565b6001600160a01b0316146150eb576150eb6150e486611d75565b3087613c2c565b847fb404e07dbfe9071da655c32567071b2ee4e88867784a1b39f01a8457787e504f85853385610140015186604051615128959493929190617273565b60405180910390a25050505050565b60606000806000806000615149611294565b92509250925060005b600b8161ffff16101561523f57838161ffff16600b81106151755761517561693e565b602002015160405160200161518a9190616c81565b60405160208183030381529060405280519060200120886040516020016151b19190616c81565b60405160208183030381529060405280519060200120141561522d57838161ffff16600b81106151e3576151e361693e565b6020020151838261ffff16600b81106151fe576151fe61693e565b6020020151838361ffff16600b81106152195761521961693e565b60200201519650965096505050505061525c565b8061523781617345565b915050615152565b505060408051602081019091526000808252909550935083925050505b9193909250565b826001600160a01b031661527682613b5e565b6001600160a01b03161461529c5760405162461bcd60e51b8152600401610f6c90617367565b6001600160a01b0382166152fe5760405162461bcd60e51b8152602060048201526024808201527f4552433732313a207472616e7366657220746f20746865207a65726f206164646044820152637265737360e01b6064820152608401610f6c565b61530b8383836001615be1565b826001600160a01b031661531e82613b5e565b6001600160a01b0316146153445760405162461bcd60e51b8152600401610f6c90617367565b600081815260696020908152604080832080546001600160a01b03199081169091556001600160a01b0387811680865260688552838620805460001901905590871680865283862080546001019055868652606790945282852080549092168417909155905184937fddf252ad1be2c89b69c2b068fc378daa952ba7f163c4a11628f55a4df523b3ef91a4505050565b600081815261016e6020526040902060050154600160a01b900460ff166153fa57600080fd5b600081815261016e60205260409020600501546001600160a01b038481169116141561542557600080fd5b600082815261016f6020908152604080832084845282528083206001600160a01b038716845290915290205461545a57600080fd5b600082815261016f6020908152604080832084845282528083206001600160a01b0387168085529083529281902054815193845291830191909152810182905282907f3efeb5ca9b10c05ba2df4bcac38445e4a4e8a996887f004e5036d254c14a98649060600160405180910390a2600082815261016f6020908152604080832084845282528083206001600160a01b0380881685529083528184205461016c845282852086865261016e855283862060010154909216855292528220805491929091615528908490616d15565b9091555050600091825261016f602090815260408084209284529181528183206001600160a01b0390941683529290925290812055565b60008072184f03e93ff9f4daa797ed6e38ed64bf6a1f0160401b831061559e5772184f03e93ff9f4daa797ed6e38ed64bf6a1f0160401b830492506040015b6d04ee2d6d415b85acef810000000083106155ca576d04ee2d6d415b85acef8100000000830492506020015b662386f26fc1000083106155e857662386f26fc10000830492506010015b6305f5e1008310615600576305f5e100830492506008015b612710831061561457612710830492506004015b60648310615626576064830492506002015b600a8310610df25760010192915050565b7aff00000000000000ff00000000000000ff00000000000000ff00006bffffffff0000000000000000604083901c90811663ffffffff60c01b84161760201c63ffffffff60601b919091166001600160e01b031984161717601081901c9182167eff00000000000000ff00000000000000ff00000000000000ff000000000000821617600890811c7bff00000000000000ff00000000000000ff00000000000000ff000000939093167fff00000000000000ff00000000000000ff00000000000000ff000000000000009290921691909117919091179081901c7e0f000f000f000f000f000f000f000f000f000f000f000f000f000f000f000f167f0f000f000f000f000f000f000f000f000f000f000f000f000f000f000f000f00600492831c161790615785827f0606060606060606060606060606060606060606060606060606060606060606616d15565b901c7f0f0f0f0f0f0f0f0f0f0f0f0f0f0f0f0f0f0f0f0f0f0f0f0f0f0f0f0f0f0f0f0f1660076157b591906168fd565b6157df827f3030303030303030303030303030303030303030303030303030303030303030616d15565b610df29190616d15565b606060006157f88360026168fd565b615803906002616d15565b6001600160401b0381111561581a5761581a6162f7565b6040519080825280601f01601f191660200182016040528015615844576020820181803683370190505b509050600360fc1b8160008151811061585f5761585f61693e565b60200101906001600160f81b031916908160001a905350600f60fb1b8160018151811061588e5761588e61693e565b60200101906001600160f81b031916908160001a90535060006158b28460026168fd565b6158bd906001616d15565b90505b6001811115615935576f181899199a1a9b1b9c1cb0b131b232b360811b85600f16601081106158f1576158f161693e565b1a60f81b8282815181106159075761590761693e565b60200101906001600160f81b031916908160001a90535060049490941c9361592e816173ac565b90506158c0565b50831561383c5760405162461bcd60e51b815260206004820181905260248201527f537472696e67733a20686578206c656e67746820696e73756666696369656e746044820152606401610f6c565b6040517f19457468657265756d205369676e6564204d6573736167653a0a3332000000006020820152603c8101829052600090605c01611d58565b60008060006159ce8585615c54565b9150915061437e81615c9a565b6159e58383615de8565b6159f26000848484615ae6565b61100d5760405162461bcd60e51b8152600401610f6c906171ca565b600054610100900460ff16615a355760405162461bcd60e51b8152600401610f6c9061717f565b8151615a489060659060208501906160e8565b50805161100d9060669060208401906160e8565b600054610100900460ff166142e35760405162461bcd60e51b8152600401610f6c9061717f565b600054610100900460ff16615aaa5760405162461bcd60e51b8152600401610f6c9061717f565b6097805460ff19169055565b600054610100900460ff16615add5760405162461bcd60e51b8152600401610f6c9061717f565b611e2933614461565b60006001600160a01b0384163b15615bd957604051630a85bd0160e11b81526001600160a01b0385169063150b7a0290615b2a9033908990889088906004016173c3565b6020604051808303816000875af1925050508015615b65575060408051601f3d908101601f19168201909252615b62918101906173f6565b60015b615bbf573d808015615b93576040519150601f19603f3d011682016040523d82523d6000602084013e615b98565b606091505b508051615bb75760405162461bcd60e51b8152600401610f6c906171ca565b805181602001fd5b6001600160e01b031916630a85bd0160e11b149050612612565b506001612612565b615bed84848484615e21565b60975460ff16156134425760405162461bcd60e51b815260206004820152602b60248201527f4552433732315061757361626c653a20746f6b656e207472616e73666572207760448201526a1a1a5b19481c185d5cd95960aa1b6064820152608401610f6c565b600080825160411415615c8b5760208301516040840151606085015160001a615c7f87828585615ea9565b94509450505050615c93565b506000905060025b9250929050565b6000816004811115615cae57615cae617413565b1415615cb75750565b6001816004811115615ccb57615ccb617413565b1415615d195760405162461bcd60e51b815260206004820152601860248201527f45434453413a20696e76616c6964207369676e617475726500000000000000006044820152606401610f6c565b6002816004811115615d2d57615d2d617413565b1415615d7b5760405162461bcd60e51b815260206004820152601f60248201527f45434453413a20696e76616c6964207369676e6174757265206c656e677468006044820152606401610f6c565b6003816004811115615d8f57615d8f617413565b14156111155760405162461bcd60e51b815260206004820152602260248201527f45434453413a20696e76616c6964207369676e6174757265202773272076616c604482015261756560f01b6064820152608401610f6c565b615df28282615f6d565b60009081526101686020526040902080546001600160a01b0319166001600160a01b0392909216919091179055565b6001811115613442576001600160a01b03841615615e67576001600160a01b03841660009081526068602052604081208054839290615e61908490616e51565b90915550505b6001600160a01b03831615613442576001600160a01b03831660009081526068602052604081208054839290615e9e908490616d15565b909155505050505050565b6000807f7fffffffffffffffffffffffffffffff5d576e7357a4501ddfe92f46681b20a0831115615ee05750600090506003615f64565b6040805160008082526020820180845289905260ff881692820192909252606081018690526080810185905260019060a0016020604051602081039080840390855afa158015615f34573d6000803e3d6000fd5b5050604051601f1901519150506001600160a01b038116615f5d57600060019250925050615f64565b9150600090505b94509492505050565b6001600160a01b038216615fc35760405162461bcd60e51b815260206004820181905260248201527f4552433732313a206d696e7420746f20746865207a65726f20616464726573736044820152606401610f6c565b615fcc816143e8565b156160195760405162461bcd60e51b815260206004820152601c60248201527f4552433732313a20746f6b656e20616c7265616479206d696e746564000000006044820152606401610f6c565b616027600083836001615be1565b616030816143e8565b1561607d5760405162461bcd60e51b815260206004820152601c60248201527f4552433732313a20746f6b656e20616c7265616479206d696e746564000000006044820152606401610f6c565b6001600160a01b038216600081815260686020908152604080832080546001019055848352606790915280822080546001600160a01b0319168417905551839291907fddf252ad1be2c89b69c2b068fc378daa952ba7f163c4a11628f55a4df523b3ef908290a45050565b8280546160f4906168ac565b90600052602060002090601f016020900481019282616116576000855561615c565b82601f1061612f57805160ff191683800117855561615c565b8280016001018555821561615c579182015b8281111561615c578251825591602001919060010190616141565b506161689291506161b3565b5090565b604051806101600160405280600b905b606081526020019060019003908161617c5790505090565b604051806101600160405280600b906020820280368337509192915050565b5b8082111561616857600081556001016161b4565b6001600160e01b03198116811461111557600080fd5b6000602082840312156161f057600080fd5b813561383c816161c8565b60008060006060848603121561621057600080fd5b505081359360208301359350604090920135919050565b60005b8381101561624257818101518382015260200161622a565b838111156134425750506000910152565b6000815180845261626b816020860160208601616227565b601f01601f19169290920160200192915050565b60208152600061383c6020830184616253565b6000602082840312156162a457600080fd5b5035919050565b6001600160a01b038116811461111557600080fd5b803561455a816162ab565b600080604083850312156162de57600080fd5b82356162e9816162ab565b946020939093013593505050565b634e487b7160e01b600052604160045260246000fd5b604051601f8201601f191681016001600160401b0381118282101715616335576163356162f7565b604052919050565b60006001600160401b03821115616356576163566162f7565b50601f01601f191660200190565b60006163776163728461633d565b61630d565b905082815283838301111561638b57600080fd5b828260208301376000602084830101529392505050565b600082601f8301126163b357600080fd5b61383c83833560208501616364565b6000602082840312156163d457600080fd5b81356001600160401b038111156163ea57600080fd5b612612848285016163a2565b60008083601f84011261640857600080fd5b5081356001600160401b0381111561641f57600080fd5b602083019150836020828501011115615c9357600080fd5b60008060008060006080868803121561644f57600080fd5b853561645a816162ab565b9450602086013561646a816162ab565b93506040860135925060608601356001600160401b0381111561648c57600080fd5b616498888289016163f6565b969995985093965092949392505050565b6000602082840312156164bb57600080fd5b813561383c816162ab565b6000806000606084860312156164db57600080fd5b83356164e6816162ab565b925060208401356164f6816162ab565b929592945050506040919091013590565b6000806040838503121561651a57600080fd5b50508035926020909101359150565b60008060006060848603121561653e57600080fd5b833592506020840135616550816162ab565b915060408401356001600160401b0381111561656b57600080fd5b616577868287016163a2565b9150509250925092565b8060005b600b811015613442578151845260209384019390910190600101616585565b6102e08082526000908201610440830186835b600b8110156165eb576102df198684030184526165d5838351616253565b60209485019490935091909101906001016165b7565b505080925050506165ff6020830185616581565b612612610180830184616581565b6000806040838503121561662057600080fd5b8235915060208301356001600160401b0381111561663d57600080fd5b616649858286016163a2565b9150509250929050565b60008060006060848603121561666857600080fd5b83359250602084013591506040840135616681816162ab565b809150509250925092565b600080600080606085870312156166a257600080fd5b84356166ad816162ab565b93506020850135925060408501356001600160401b038111156166cf57600080fd5b6166db878288016163f6565b95989497509550505050565b600080600080600080600080610100898b03121561670457600080fd5b88356001600160401b038082111561671b57600080fd5b6167278c838d016163a2565b995060208b013591508082111561673d57600080fd5b5061674a8b828c016163a2565b975050604089013561675b816162ab565b9550606089013561676b816162ab565b9450608089013561677b816162ab565b935060a089013561678b816162ab565b925060c089013561679b816162ab565b91506167a960e08a016162c0565b90509295985092959890939650565b801515811461111557600080fd5b600080604083850312156167d957600080fd5b82356167e4816162ab565b915060208301356167f4816167b8565b809150509250929050565b6000806000806080858703121561681557600080fd5b8435616820816162ab565b93506020850135616830816162ab565b92506040850135915060608501356001600160401b0381111561685257600080fd5b8501601f8101871361686357600080fd5b61687287823560208401616364565b91505092959194509250565b6000806040838503121561689157600080fd5b823561689c816162ab565b915060208301356167f4816162ab565b600181811c908216806168c057607f821691505b602082108114156168e157634e487b7160e01b600052602260045260246000fd5b50919050565b634e487b7160e01b600052601160045260246000fd5b6000816000190483118215151615616917576169176168e7565b500290565b60008261693957634e487b7160e01b600052601260045260246000fd5b500490565b634e487b7160e01b600052603260045260246000fd5b631cdbdd5b60e21b8152605f60f81b60048201526000835161697d816005850160208801616227565b685f62616c616e63655f60b81b60059184019182015283516169a681600e840160208801616227565b01600e01949350505050565b6000602082840312156169c457600080fd5b5051919050565b631cdbdd5b60e21b8152605f60f81b6004820152600083516169f4816005850160208801616227565b695f686f6c6454696d655f60b01b6005918401918201528351616a1e81600f840160208801616227565b01600f01949350505050565b6000600019821415616a3e57616a3e6168e7565b5060010190565b60008351616a57818460208801616227565b696c657420736565643d2760b01b9083019081528351616a7e81600a840160208801616227565b61273b60f01b600a9290910191820152600c01949350505050565b60008351616aab818460208801616227565b7f6c657420474d5f434f4e54524143545f414444524553533d27000000000000009083019081528351616ae5816019840160208801616227565b61273b60f01b60199290910191820152601b01949350505050565b600060208284031215616b1257600080fd5b815161383c816162ab565b60008351616b2f818460208801616227565b80830190507f6c657420535741505f504f4f4c5f474d5f4554485f434f4e54524143545f414481526644524553533d2760c81b60208201528351616b7a816027840160208801616227565b61273b60f01b60279290910191820152602901949350505050565b60008351616ba7818460208801616227565b7f6c657420736f756c4e6674436f6e7472616374416464726573733d27000000009083019081528351616be181601c840160208801616227565b61273b60f01b601c9290910191820152601e01949350505050565b60008351616c0e818460208801616227565b6d6c657420544f4b454e5f49443d2760901b9083019081528351616c3981600e840160208801616227565b61273b60f01b600e9290910191820152601001949350505050565b60008251616c66818460208701616227565b681e17b9b1b934b83a1f60b91b920191825250600901919050565b60008251616c93818460208701616227565b9190910192915050565b60018060a01b0385168152836020820152826040820152608060608201526000616cca6080830184616253565b9695505050505050565b600060208284031215616ce657600080fd5b815161383c816167b8565b6001600160a01b038316815260406020820181905260009061261290830184616253565b60008219821115616d2857616d286168e7565b500190565b6001600160a01b0384168152606060208201819052600090616d5190830185616253565b9050826040830152949350505050565b6000616d6f6163728461633d565b9050828152838383011115616d8357600080fd5b61383c836020830184616227565b60008060408385031215616da457600080fd5b82516001600160401b03811115616dba57600080fd5b8301601f81018513616dcb57600080fd5b616dda85825160208401616d61565b925050602083015190509250929050565b60008351616dfd818460208801616227565b835190830190616e11818360208801616227565b01949350505050565b60208082526018908201527f534f554c5f41554354494f4e5f45524332305f544f4b454e0000000000000000604082015260600190565b600082821015616e6357616e636168e7565b500390565b8054825260018101546001600160a01b03166001600160a01b03811660208401525060028101546040830152600381015460608301526004810154608083015260058101546001600160a01b03811660a0840152616ed060c0840160ff8360a01c1615159052565b50600681015460e0830152600781015461010083015260088101546101208301526009015461014090910152565b6001600160a01b03851681526020810184905282151560408201526101c0810161107b6060830184616e68565b828152610180810161383c6020830184616e68565b600060208284031215616f5257600080fd5b81516001600160401b03811115616f6857600080fd5b8201601f81018413616f7957600080fd5b61261284825160208401616d61565b7519185d184e9d195e1d0bda1d1b5b0ed8985cd94d8d0b60521b815260008251616fb9816016850160208701616227565b9190910160160192915050565b7216101130b734b6b0ba34b7b72fbab936111d1160691b81528151600090616ff5816013850160208701616227565b601160f91b6013939091019283015250601401919050565b8054600090600181811c908083168061702757607f831692505b602080841082141561704957634e487b7160e01b600052602260045260246000fd5b81801561705d576001811461706e5761709b565b60ff1986168952848901965061709b565b60008881526020902060005b868110156170935781548b82015290850190830161707a565b505084890196505b50505050505092915050565b683d913730b6b2911d1160b91b815260006170c5600983018561700d565b721116113232b9b1b934b83a34b7b7111d10111160691b81526c16101134b6b0b3b2911d10111160991b60138201528351617107816020808501908801616227565b7116101130ba3a3934b13aba32b9911d10111160711b60209290910191820152607d60f81b6032820152603301949350505050565b6000835161714e818460208801616227565b61107b8184018561700d565b6001600160a01b0384168152602081018390526101a081016126126040830184616e68565b6020808252602b908201527f496e697469616c697a61626c653a20636f6e7472616374206973206e6f74206960408201526a6e697469616c697a696e6760a81b606082015260800190565b60208082526032908201527f4552433732313a207472616e7366657220746f206e6f6e20455243373231526560408201527131b2b4bb32b91034b6b83632b6b2b73a32b960711b606082015260800190565b6000855161722e818460208a01616227565b855190830190617242818360208a01616227565b8551910190617255818360208901616227565b8451910190617268818360208801616227565b019695505050505050565b85815260208082018690526001600160a01b038516604083015260608201849052825160808301528201516101e08201906172b960a08401826001600160a01b03169052565b50604083015160c0830152606083015160e08301526080830151610100818185015260a085015191506101206172f9818601846001600160a01b03169052565b60c086015192506101406173108187018515159052565b60e0870151610160870152918601516101808601528501516101a0850152909301516101c09092019190915295945050505050565b600061ffff8083168181141561735d5761735d6168e7565b6001019392505050565b60208082526025908201527f4552433732313a207472616e736665722066726f6d20696e636f72726563742060408201526437bbb732b960d91b606082015260800190565b6000816173bb576173bb6168e7565b506000190190565b6001600160a01b0385811682528416602082015260408101839052608060608201819052600090616cca90830184616253565b60006020828403121561740857600080fd5b815161383c816161c8565b634e487b7160e01b600052602160045260246000fdfe4142434445464748494a4b4c4d4e4f505152535455565758595a6162636465666768696a6b6c6d6e6f707172737475767778797a303132333435363738392b2f3c7363726970742073616e64626f783d27616c6c6f772d736372697074732720747970653d27746578742f6a617661736372697074273ea2646970667358221220203389842b899547cfdd21c8711ce6cf0dd3e2de87081b913bf2c2bd3a2c284164736f6c634300080c0033",
  "linkReferences": {},
  "deployedLinkReferences": {}
}