{
  "_format": "hh-sol-artifact-1",
  "contractName": "SOUL",
  "sourceName": "contracts/nfts/SOUL.sol",
  "abi": [
    {
      "anonymous": false,
      "inputs": [
        {
          "indexed": true,
          "internalType": "address",
          "name": "owner",
          "type": "address"
        },
        {
          "indexed": true,
          "internalType": "address",
          "name": "approved",
          "type": "address"
        },
        {
          "indexed": true,
          "internalType": "uint256",
          "name": "tokenId",
          "type": "uint256"
        }
      ],
      "name": "Approval",
      "type": "event"
    },
    {
      "anonymous": false,
      "inputs": [
        {
          "indexed": true,
          "internalType": "address",
          "name": "owner",
          "type": "address"
        },
        {
          "indexed": true,
          "internalType": "address",
          "name": "operator",
          "type": "address"
        },
        {
          "indexed": false,
          "internalType": "bool",
          "name": "approved",
          "type": "bool"
        }
      ],
      "name": "ApprovalForAll",
      "type": "event"
    },
    {
      "anonymous": false,
      "inputs": [
        {
          "indexed": true,
          "internalType": "uint256",
          "name": "tokenId",
          "type": "uint256"
        },
        {
          "indexed": false,
          "internalType": "address",
          "name": "sender",
          "type": "address"
        },
        {
          "indexed": false,
          "internalType": "uint256",
          "name": "value",
          "type": "uint256"
        },
        {
          "indexed": false,
          "internalType": "bool",
          "name": "extended",
          "type": "bool"
        }
      ],
      "name": "AuctionBid",
      "type": "event"
    },
    {
      "anonymous": false,
      "inputs": [
        {
          "indexed": true,
          "internalType": "uint256",
          "name": "tokenId",
          "type": "uint256"
        },
        {
          "indexed": false,
          "internalType": "address",
          "name": "sender",
          "type": "address"
        },
        {
          "indexed": false,
          "internalType": "uint256",
          "name": "value",
          "type": "uint256"
        }
      ],
      "name": "AuctionClaimBid",
      "type": "event"
    },
    {
      "anonymous": false,
      "inputs": [
        {
          "indexed": true,
          "internalType": "uint256",
          "name": "tokenId",
          "type": "uint256"
        }
      ],
      "name": "AuctionClosed",
      "type": "event"
    },
    {
      "anonymous": false,
      "inputs": [
        {
          "indexed": true,
          "internalType": "uint256",
          "name": "tokenId",
          "type": "uint256"
        },
        {
          "indexed": false,
          "internalType": "uint256",
          "name": "startTime",
          "type": "uint256"
        },
        {
          "indexed": false,
          "internalType": "uint256",
          "name": "endTime",
          "type": "uint256"
        }
      ],
      "name": "AuctionCreated",
      "type": "event"
    },
    {
      "anonymous": false,
      "inputs": [
        {
          "indexed": true,
          "internalType": "uint256",
          "name": "tokenId",
          "type": "uint256"
        },
        {
          "indexed": false,
          "internalType": "uint256",
          "name": "endTime",
          "type": "uint256"
        }
      ],
      "name": "AuctionExtended",
      "type": "event"
    },
    {
      "anonymous": false,
      "inputs": [
        {
          "indexed": false,
          "internalType": "uint256",
          "name": "minBidIncrementPercentage",
          "type": "uint256"
        }
      ],
      "name": "AuctionMinBidIncrementPercentageUpdated",
      "type": "event"
    },
    {
      "anonymous": false,
      "inputs": [
        {
          "indexed": false,
          "internalType": "uint256",
          "name": "reservePrice",
          "type": "uint256"
        }
      ],
      "name": "AuctionReservePriceUpdated",
      "type": "event"
    },
    {
      "anonymous": false,
      "inputs": [
        {
          "indexed": true,
          "internalType": "uint256",
          "name": "tokenId",
          "type": "uint256"
        },
        {
          "indexed": false,
          "internalType": "address",
          "name": "winner",
          "type": "address"
        },
        {
          "indexed": false,
          "internalType": "uint256",
          "name": "amount",
          "type": "uint256"
        }
      ],
      "name": "AuctionSettled",
      "type": "event"
    },
    {
      "anonymous": false,
      "inputs": [
        {
          "indexed": false,
          "internalType": "uint256",
          "name": "timeBuffer",
          "type": "uint256"
        }
      ],
      "name": "AuctionTimeBufferUpdated",
      "type": "event"
    },
    {
      "anonymous": false,
      "inputs": [
        {
          "indexed": true,
          "internalType": "address",
          "name": "reserver",
          "type": "address"
        },
        {
          "indexed": true,
          "internalType": "uint256",
          "name": "tokenId",
          "type": "uint256"
        },
        {
          "indexed": true,
          "internalType": "address",
          "name": "owner",
          "type": "address"
        },
        {
          "indexed": false,
          "internalType": "uint256",
          "name": "blockNumber",
          "type": "uint256"
        }
      ],
      "name": "Claim",
      "type": "event"
    },
    {
      "anonymous": false,
      "inputs": [
        {
          "indexed": false,
          "internalType": "uint8",
          "name": "version",
          "type": "uint8"
        }
      ],
      "name": "Initialized",
      "type": "event"
    },
    {
      "anonymous": false,
      "inputs": [
        {
          "indexed": true,
          "internalType": "address",
          "name": "previousOwner",
          "type": "address"
        },
        {
          "indexed": true,
          "internalType": "address",
          "name": "newOwner",
          "type": "address"
        }
      ],
      "name": "OwnershipTransferred",
      "type": "event"
    },
    {
      "anonymous": false,
      "inputs": [
        {
          "indexed": false,
          "internalType": "address",
          "name": "account",
          "type": "address"
        }
      ],
      "name": "Paused",
      "type": "event"
    },
    {
      "anonymous": false,
      "inputs": [
        {
          "indexed": true,
          "internalType": "address",
          "name": "reserver",
          "type": "address"
        },
        {
          "indexed": true,
          "internalType": "uint256",
          "name": "tokenId",
          "type": "uint256"
        },
        {
          "indexed": true,
          "internalType": "address",
          "name": "owner",
          "type": "address"
        },
        {
          "indexed": false,
          "internalType": "uint256",
          "name": "blockNumber",
          "type": "uint256"
        }
      ],
      "name": "Reserve",
      "type": "event"
    },
    {
      "anonymous": false,
      "inputs": [
        {
          "indexed": true,
          "internalType": "address",
          "name": "from",
          "type": "address"
        },
        {
          "indexed": true,
          "internalType": "address",
          "name": "to",
          "type": "address"
        },
        {
          "indexed": true,
          "internalType": "uint256",
          "name": "tokenId",
          "type": "uint256"
        }
      ],
      "name": "Transfer",
      "type": "event"
    },
    {
      "anonymous": false,
      "inputs": [
        {
          "indexed": false,
          "internalType": "address",
          "name": "account",
          "type": "address"
        }
      ],
      "name": "Unpaused",
      "type": "event"
    },
    {
      "inputs": [],
      "name": "_admin",
      "outputs": [
        {
          "internalType": "address",
          "name": "",
          "type": "address"
        }
      ],
      "stateMutability": "view",
      "type": "function"
    },
    {
      "inputs": [
        {
          "internalType": "uint256",
          "name": "",
          "type": "uint256"
        }
      ],
      "name": "_auctions",
      "outputs": [
        {
          "internalType": "uint256",
          "name": "tokenId",
          "type": "uint256"
        },
        {
          "internalType": "address",
          "name": "erc20Token",
          "type": "address"
        },
        {
          "internalType": "uint256",
          "name": "amount",
          "type": "uint256"
        },
        {
          "internalType": "uint256",
          "name": "startTime",
          "type": "uint256"
        },
        {
          "internalType": "uint256",
          "name": "endTime",
          "type": "uint256"
        },
        {
          "internalType": "address payable",
          "name": "bidder",
          "type": "address"
        },
        {
          "internalType": "bool",
          "name": "settled",
          "type": "bool"
        },
        {
          "internalType": "uint256",
          "name": "timeBuffer",
          "type": "uint256"
        },
        {
          "internalType": "uint256",
          "name": "reservePrice",
          "type": "uint256"
        },
        {
          "internalType": "uint256",
          "name": "minBidIncrementPercentage",
          "type": "uint256"
        }
      ],
      "stateMutability": "view",
      "type": "function"
    },
    {
      "inputs": [],
      "name": "_bfs",
      "outputs": [
        {
          "internalType": "address",
          "name": "",
          "type": "address"
        }
      ],
      "stateMutability": "view",
      "type": "function"
    },
    {
      "inputs": [
        {
          "internalType": "uint256",
          "name": "",
          "type": "uint256"
        },
        {
          "internalType": "address",
          "name": "",
          "type": "address"
        }
      ],
      "name": "_bidders",
      "outputs": [
        {
          "internalType": "uint256",
          "name": "",
          "type": "uint256"
        }
      ],
      "stateMutability": "view",
      "type": "function"
    },
    {
      "inputs": [],
      "name": "_gmToken",
      "outputs": [
        {
          "internalType": "address",
          "name": "",
          "type": "address"
        }
      ],
      "stateMutability": "view",
      "type": "function"
    },
    {
      "inputs": [],
      "name": "_maxSupply",
      "outputs": [
        {
          "internalType": "uint256",
          "name": "",
          "type": "uint256"
        }
      ],
      "stateMutability": "view",
      "type": "function"
    },
    {
      "inputs": [
        {
          "internalType": "uint256",
          "name": "",
          "type": "uint256"
        }
      ],
      "name": "_mintAt",
      "outputs": [
        {
          "internalType": "uint256",
          "name": "",
          "type": "uint256"
        }
      ],
      "stateMutability": "view",
      "type": "function"
    },
    {
      "inputs": [
        {
          "internalType": "address",
          "name": "",
          "type": "address"
        }
      ],
      "name": "_minted",
      "outputs": [
        {
          "internalType": "uint256",
          "name": "",
          "type": "uint256"
        }
      ],
      "stateMutability": "view",
      "type": "function"
    },
    {
      "inputs": [],
      "name": "_paramsAddress",
      "outputs": [
        {
          "internalType": "address",
          "name": "",
          "type": "address"
        }
      ],
      "stateMutability": "view",
      "type": "function"
    },
    {
      "inputs": [],
      "name": "_randomizerAddr",
      "outputs": [
        {
          "internalType": "address",
          "name": "",
          "type": "address"
        }
      ],
      "stateMutability": "view",
      "type": "function"
    },
    {
      "inputs": [],
      "name": "_script",
      "outputs": [
        {
          "internalType": "string",
          "name": "",
          "type": "string"
        }
      ],
      "stateMutability": "view",
      "type": "function"
    },
    {
      "inputs": [],
      "name": "_signerMint",
      "outputs": [
        {
          "internalType": "address",
          "name": "",
          "type": "address"
        }
      ],
      "stateMutability": "view",
      "type": "function"
    },
    {
      "inputs": [
        {
          "internalType": "address",
          "name": "to",
          "type": "address"
        },
        {
          "internalType": "uint256",
          "name": "tokenId",
          "type": "uint256"
        }
      ],
      "name": "approve",
      "outputs": [],
      "stateMutability": "nonpayable",
      "type": "function"
    },
    {
      "inputs": [
        {
          "internalType": "uint256",
          "name": "tokenId",
          "type": "uint256"
        }
      ],
      "name": "available",
      "outputs": [
        {
          "internalType": "bool",
          "name": "",
          "type": "bool"
        }
      ],
      "stateMutability": "view",
      "type": "function"
    },
    {
      "inputs": [
        {
          "internalType": "address",
          "name": "owner",
          "type": "address"
        }
      ],
      "name": "balanceOf",
      "outputs": [
        {
          "internalType": "uint256",
          "name": "",
          "type": "uint256"
        }
      ],
      "stateMutability": "view",
      "type": "function"
    },
    {
      "inputs": [
        {
          "internalType": "address",
          "name": "to",
          "type": "address"
        },
        {
          "internalType": "uint256",
          "name": "n",
          "type": "uint256"
        },
        {
          "internalType": "bytes",
          "name": "signatures",
          "type": "bytes"
        }
      ],
      "name": "batchMint",
      "outputs": [
        {
          "internalType": "uint256[]",
          "name": "",
          "type": "uint256[]"
        }
      ],
      "stateMutability": "payable",
      "type": "function"
    },
    {
      "inputs": [
        {
          "internalType": "uint256",
          "name": "tokenId",
          "type": "uint256"
        }
      ],
      "name": "biddable",
      "outputs": [
        {
          "internalType": "bool",
          "name": "",
          "type": "bool"
        }
      ],
      "stateMutability": "view",
      "type": "function"
    },
    {
      "inputs": [
        {
          "internalType": "address",
          "name": "newAdm",
          "type": "address"
        }
      ],
      "name": "changeAdmin",
      "outputs": [],
      "stateMutability": "nonpayable",
      "type": "function"
    },
    {
      "inputs": [
        {
          "internalType": "address",
          "name": "newBfs",
          "type": "address"
        }
      ],
      "name": "changeBfs",
      "outputs": [],
      "stateMutability": "nonpayable",
      "type": "function"
    },
    {
      "inputs": [
        {
          "internalType": "address",
          "name": "newBrc20",
          "type": "address"
        }
      ],
      "name": "changeBrc20Token",
      "outputs": [],
      "stateMutability": "nonpayable",
      "type": "function"
    },
    {
      "inputs": [
        {
          "internalType": "address",
          "name": "newAddr",
          "type": "address"
        }
      ],
      "name": "changeParamAddr",
      "outputs": [],
      "stateMutability": "nonpayable",
      "type": "function"
    },
    {
      "inputs": [
        {
          "internalType": "address",
          "name": "newAddr",
          "type": "address"
        }
      ],
      "name": "changeRandomizerAddr",
      "outputs": [],
      "stateMutability": "nonpayable",
      "type": "function"
    },
    {
      "inputs": [
        {
          "internalType": "string",
          "name": "newScript",
          "type": "string"
        }
      ],
      "name": "changeScript",
      "outputs": [],
      "stateMutability": "nonpayable",
      "type": "function"
    },
    {
      "inputs": [
        {
          "internalType": "address",
          "name": "newAdd",
          "type": "address"
        }
      ],
      "name": "changeSignerMint",
      "outputs": [],
      "stateMutability": "nonpayable",
      "type": "function"
    },
    {
      "inputs": [
        {
          "internalType": "uint256",
          "name": "tokenId",
          "type": "uint256"
        }
      ],
      "name": "claimBid",
      "outputs": [],
      "stateMutability": "nonpayable",
      "type": "function"
    },
    {
      "inputs": [
        {
          "internalType": "uint256",
          "name": "tokenId",
          "type": "uint256"
        }
      ],
      "name": "createAuction",
      "outputs": [],
      "stateMutability": "nonpayable",
      "type": "function"
    },
    {
      "inputs": [
        {
          "internalType": "uint256",
          "name": "tokenId",
          "type": "uint256"
        },
        {
          "internalType": "uint256",
          "name": "amount",
          "type": "uint256"
        }
      ],
      "name": "createBid",
      "outputs": [],
      "stateMutability": "payable",
      "type": "function"
    },
    {
      "inputs": [
        {
          "internalType": "uint256",
          "name": "tokenId",
          "type": "uint256"
        }
      ],
      "name": "getApproved",
      "outputs": [
        {
          "internalType": "address",
          "name": "",
          "type": "address"
        }
      ],
      "stateMutability": "view",
      "type": "function"
    },
    {
      "inputs": [
        {
          "internalType": "address",
          "name": "user",
          "type": "address"
        },
        {
          "internalType": "uint256",
          "name": "totalGM",
          "type": "uint256"
        }
      ],
      "name": "getMessageHash",
      "outputs": [
        {
          "internalType": "bytes32",
          "name": "",
          "type": "bytes32"
        }
      ],
      "stateMutability": "view",
      "type": "function"
    },
    {
      "inputs": [
        {
          "internalType": "string",
          "name": "name",
          "type": "string"
        },
        {
          "internalType": "string",
          "name": "symbol",
          "type": "string"
        },
        {
          "internalType": "address",
          "name": "admin",
          "type": "address"
        },
        {
          "internalType": "address",
          "name": "paramsAddress",
          "type": "address"
        },
        {
          "internalType": "address",
          "name": "randomizerAddr",
          "type": "address"
        },
        {
          "internalType": "address",
          "name": "gmToken",
          "type": "address"
        },
        {
          "internalType": "address",
          "name": "bfs",
          "type": "address"
        },
        {
          "internalType": "address",
          "name": "signerMint",
          "type": "address"
        }
      ],
      "name": "initialize",
      "outputs": [],
      "stateMutability": "nonpayable",
      "type": "function"
    },
    {
      "inputs": [
        {
          "internalType": "address",
          "name": "owner",
          "type": "address"
        },
        {
          "internalType": "address",
          "name": "operator",
          "type": "address"
        }
      ],
      "name": "isApprovedForAll",
      "outputs": [
        {
          "internalType": "bool",
          "name": "",
          "type": "bool"
        }
      ],
      "stateMutability": "view",
      "type": "function"
    },
    {
      "inputs": [
        {
          "internalType": "address",
          "name": "to",
          "type": "address"
        },
        {
          "internalType": "uint256",
          "name": "totalGM",
          "type": "uint256"
        },
        {
          "internalType": "bytes",
          "name": "signature",
          "type": "bytes"
        }
      ],
      "name": "mint",
      "outputs": [
        {
          "internalType": "uint256",
          "name": "tokenId",
          "type": "uint256"
        }
      ],
      "stateMutability": "payable",
      "type": "function"
    },
    {
      "inputs": [],
      "name": "name",
      "outputs": [
        {
          "internalType": "string",
          "name": "",
          "type": "string"
        }
      ],
      "stateMutability": "view",
      "type": "function"
    },
    {
      "inputs": [],
      "name": "owner",
      "outputs": [
        {
          "internalType": "address",
          "name": "",
          "type": "address"
        }
      ],
      "stateMutability": "view",
      "type": "function"
    },
    {
      "inputs": [
        {
          "internalType": "uint256",
          "name": "tokenId",
          "type": "uint256"
        }
      ],
      "name": "ownerOf",
      "outputs": [
        {
          "internalType": "address",
          "name": "",
          "type": "address"
        }
      ],
      "stateMutability": "view",
      "type": "function"
    },
    {
      "inputs": [],
      "name": "p5jsScript",
      "outputs": [
        {
          "internalType": "string",
          "name": "result",
          "type": "string"
        }
      ],
      "stateMutability": "view",
      "type": "function"
    },
    {
      "inputs": [],
      "name": "paused",
      "outputs": [
        {
          "internalType": "bool",
          "name": "",
          "type": "bool"
        }
      ],
      "stateMutability": "view",
      "type": "function"
    },
    {
      "inputs": [],
      "name": "renounceOwnership",
      "outputs": [],
      "stateMutability": "nonpayable",
      "type": "function"
    },
    {
      "inputs": [
        {
          "internalType": "uint256",
          "name": "projectId",
          "type": "uint256"
        },
        {
          "internalType": "uint256",
          "name": "_salePrice",
          "type": "uint256"
        }
      ],
      "name": "royaltyInfo",
      "outputs": [
        {
          "internalType": "address",
          "name": "receiver",
          "type": "address"
        },
        {
          "internalType": "uint256",
          "name": "royaltyAmount",
          "type": "uint256"
        }
      ],
      "stateMutability": "view",
      "type": "function"
    },
    {
      "inputs": [
        {
          "internalType": "address",
          "name": "from",
          "type": "address"
        },
        {
          "internalType": "address",
          "name": "to",
          "type": "address"
        },
        {
          "internalType": "uint256",
          "name": "tokenId",
          "type": "uint256"
        }
      ],
      "name": "safeTransferFrom",
      "outputs": [],
      "stateMutability": "nonpayable",
      "type": "function"
    },
    {
      "inputs": [
        {
          "internalType": "address",
          "name": "from",
          "type": "address"
        },
        {
          "internalType": "address",
          "name": "to",
          "type": "address"
        },
        {
          "internalType": "uint256",
          "name": "tokenId",
          "type": "uint256"
        },
        {
          "internalType": "bytes",
          "name": "data",
          "type": "bytes"
        }
      ],
      "name": "safeTransferFrom",
      "outputs": [],
      "stateMutability": "nonpayable",
      "type": "function"
    },
    {
      "inputs": [
        {
          "internalType": "address",
          "name": "operator",
          "type": "address"
        },
        {
          "internalType": "bool",
          "name": "approved",
          "type": "bool"
        }
      ],
      "name": "setApprovalForAll",
      "outputs": [],
      "stateMutability": "nonpayable",
      "type": "function"
    },
    {
      "inputs": [
        {
          "internalType": "uint256",
          "name": "tokenId",
          "type": "uint256"
        }
      ],
      "name": "settleAuction",
      "outputs": [],
      "stateMutability": "nonpayable",
      "type": "function"
    },
    {
      "inputs": [
        {
          "internalType": "bytes4",
          "name": "interfaceId",
          "type": "bytes4"
        }
      ],
      "name": "supportsInterface",
      "outputs": [
        {
          "internalType": "bool",
          "name": "",
          "type": "bool"
        }
      ],
      "stateMutability": "view",
      "type": "function"
    },
    {
      "inputs": [],
      "name": "symbol",
      "outputs": [
        {
          "internalType": "string",
          "name": "",
          "type": "string"
        }
      ],
      "stateMutability": "view",
      "type": "function"
    },
    {
      "inputs": [
        {
          "internalType": "bytes32",
          "name": "seed",
          "type": "bytes32"
        },
        {
          "internalType": "uint256",
          "name": "tokenId",
          "type": "uint256"
        }
      ],
      "name": "tokenHTML",
      "outputs": [
        {
          "internalType": "string",
          "name": "result",
          "type": "string"
        }
      ],
      "stateMutability": "view",
      "type": "function"
    },
    {
      "inputs": [
        {
          "internalType": "uint256",
          "name": "tokenId",
          "type": "uint256"
        }
      ],
      "name": "tokenIdToHash",
      "outputs": [
        {
          "internalType": "bytes32",
          "name": "",
          "type": "bytes32"
        }
      ],
      "stateMutability": "view",
      "type": "function"
    },
    {
      "inputs": [
        {
          "internalType": "uint256",
          "name": "tokenId",
          "type": "uint256"
        }
      ],
      "name": "tokenURI",
      "outputs": [
        {
          "internalType": "string",
          "name": "result",
          "type": "string"
        }
      ],
      "stateMutability": "view",
      "type": "function"
    },
    {
      "inputs": [
        {
          "internalType": "address",
          "name": "from",
          "type": "address"
        },
        {
          "internalType": "address",
          "name": "to",
          "type": "address"
        },
        {
          "internalType": "uint256",
          "name": "tokenId",
          "type": "uint256"
        }
      ],
      "name": "transferFrom",
      "outputs": [],
      "stateMutability": "nonpayable",
      "type": "function"
    },
    {
      "inputs": [
        {
          "internalType": "address",
          "name": "newOwner",
          "type": "address"
        }
      ],
      "name": "transferOwnership",
      "outputs": [],
      "stateMutability": "nonpayable",
      "type": "function"
    },
    {
      "inputs": [
        {
          "internalType": "bytes32",
          "name": "seed",
          "type": "bytes32"
        },
        {
          "internalType": "uint256",
          "name": "tokenId",
          "type": "uint256"
        }
      ],
      "name": "variableScript",
      "outputs": [
        {
          "internalType": "string",
          "name": "result",
          "type": "string"
        }
      ],
      "stateMutability": "view",
      "type": "function"
    },
    {
      "inputs": [],
      "name": "web3Script",
      "outputs": [
        {
          "internalType": "string",
          "name": "result",
          "type": "string"
        }
      ],
      "stateMutability": "view",
      "type": "function"
    }
  ],
  "bytecode": "0x608060405234801561001057600080fd5b50615bf380620000216000396000f3fe6080604052600436106102ff5760003560e01c8063715018a611610190578063a22cb465116100dc578063cc22e00411610095578063eb29c2321161006f578063eb29c23214610a10578063f2fde38b14610a30578063f3f83ddd14610a50578063febfd6c314610a7057600080fd5b8063cc22e00414610979578063d5563f31146109a7578063e985e9c5146109c757600080fd5b8063a22cb465146108c9578063adfc7dae146108e9578063b7751c711461090a578063b88d4fde1461091d578063bd89684314610938578063c87b56dd1461095957600080fd5b806393c6cdc01161014957806395d89b411161012357806395d89b411461085e57806396e494e8146108735780639c6f35f914610893578063a0d41e11146108b457600080fd5b806393c6cdc01461080b57806394d008ef1461082b57806394f5a66e1461083e57600080fd5b8063715018a61461075f57806374973a41146107745780637de77ecc146107895780638a016249146107b75780638da5cb5b146107cc5780638f283970146107eb57600080fd5b80632d61bd091161024f5780635c975abb116102085780636352211e116101e25780636352211e146106de57806366215eb4146106fe57806368a17bd81461071f57806370a082311461073f57600080fd5b80635c975abb14610686578063621a1f741461069e578063624de2a9146106be57600080fd5b80632d61bd09146105ac5780632e993611146105e557806332e3232614610605578063333489791461062557806342842e0e14610646578063512c91df1461066657600080fd5b806317dc6bf6116102bc57806322f4596f1161029657806322f4596f1461050d57806323b872dd146105325780632a55205a1461054d5780632b7d13de1461058c57600080fd5b806317dc6bf6146103f65780631ca9741b146104cd57806321113057146104ed57600080fd5b806301bc45c91461030457806301ffc9a71461034257806306fdde0314610372578063081812fc14610394578063095ea7b3146103b4578063140f0e07146103d6575b600080fd5b34801561031057600080fd5b5061015f54610325906001600160a01b031681565b6040516001600160a01b0390911681526020015b60405180910390f35b34801561034e57600080fd5b5061036261035d366004614d44565b610a90565b6040519015158152602001610339565b34801561037e57600080fd5b50610387610ae2565b6040516103399190614db9565b3480156103a057600080fd5b506103256103af366004614dcc565b610b74565b3480156103c057600080fd5b506103d46103cf366004614e05565b610b9b565b005b3480156103e257600080fd5b506103d46103f1366004614efe565b610cb6565b34801561040257600080fd5b50610471610411366004614dcc565b61016a6020526000908152604090208054600182015460028301546003840154600485015460058601546006870154600788015460089098015496976001600160a01b0396871697959694959394831693600160a01b90930460ff16928a565b604080519a8b526001600160a01b03998a1660208c01528a019790975260608901959095526080880193909352941660a086015292151560c085015260e084019290925261010083019190915261012082015261014001610339565b3480156104d957600080fd5b506103d46104e8366004614f33565b610d16565b3480156104f957600080fd5b506103d4610508366004614dcc565b610daa565b34801561051957600080fd5b506105246101655481565b604051908152602001610339565b34801561053e57600080fd5b506103d46102ff366004614f50565b34801561055957600080fd5b5061056d610568366004614f91565b610f20565b604080516001600160a01b039093168352602083019190915201610339565b34801561059857600080fd5b506103d46105a7366004614f33565b610f51565b3480156105b857600080fd5b506105246105c7366004614fb3565b61016b60209081526000928352604080842090915290825290205481565b3480156105f157600080fd5b506103d4610600366004614dcc565b610fe6565b34801561061157600080fd5b50610387610620366004614f91565b61101e565b34801561063157600080fd5b5061016954610325906001600160a01b031681565b34801561065257600080fd5b506103d4610661366004614f50565b611207565b34801561067257600080fd5b50610524610681366004614e05565b611222565b34801561069257600080fd5b5060975460ff16610362565b3480156106aa57600080fd5b506105246106b9366004614dcc565b611280565b6106d16106cc366004614fe3565b61134e565b604051610339919061506c565b3480156106ea57600080fd5b506103256106f9366004614dcc565b61141b565b34801561070a57600080fd5b5061016154610325906001600160a01b031681565b34801561072b57600080fd5b5061036261073a366004614dcc565b611437565b34801561074b57600080fd5b5061052461075a366004614f33565b61145f565b34801561076b57600080fd5b506103d46114e5565b34801561078057600080fd5b506103876114f9565b34801561079557600080fd5b506105246107a4366004614f33565b6101686020526000908152604090205481565b3480156107c357600080fd5b50610387611753565b3480156107d857600080fd5b5061012d546001600160a01b0316610325565b3480156107f757600080fd5b506103d4610806366004614f33565b6117e2565b34801561081757600080fd5b506103d4610826366004614f33565b611877565b610524610839366004614fe3565b61190c565b34801561084a57600080fd5b506103d46108593660046150b0565b611c19565b34801561086a57600080fd5b50610387611e3f565b34801561087f57600080fd5b5061036261088e366004614dcc565b611e4e565b34801561089f57600080fd5b5061016454610325906001600160a01b031681565b3480156108c057600080fd5b50610387611f25565b3480156108d557600080fd5b506103d46108e4366004615190565b612156565b3480156108f557600080fd5b5061016054610325906001600160a01b031681565b6103d4610918366004614f91565b612161565b34801561092957600080fd5b506103d46102ff3660046151be565b34801561094457600080fd5b5061016c54610325906001600160a01b031681565b34801561096557600080fd5b50610387610974366004614dcc565b612774565b34801561098557600080fd5b50610524610994366004614dcc565b6101676020526000908152604090205481565b3480156109b357600080fd5b506103d46109c2366004614dcc565b612a0d565b3480156109d357600080fd5b506103626109e236600461523e565b6001600160a01b039182166000908152606a6020908152604080832093909416825291909152205460ff1690565b348015610a1c57600080fd5b50610387610a2b366004614f91565b612ab4565b348015610a3c57600080fd5b506103d4610a4b366004614f33565b612b86565b348015610a5c57600080fd5b506103d4610a6b366004614f33565b612bfc565b348015610a7c57600080fd5b506103d4610a8b366004614f33565b612c91565b60006001600160e01b031982166380ac58cd60e01b1480610ac157506001600160e01b03198216635b5e139f60e01b145b80610adc57506301ffc9a760e01b6001600160e01b03198316145b92915050565b606060658054610af19061526c565b80601f0160208091040260200160405190810160405280929190818152602001828054610b1d9061526c565b8015610b6a5780601f10610b3f57610100808354040283529160200191610b6a565b820191906000526020600020905b815481529060010190602001808311610b4d57829003601f168201915b5050505050905090565b6000610b7f82612d26565b506000908152606960205260409020546001600160a01b031690565b6000610ba682612d76565b9050806001600160a01b0316836001600160a01b03161415610c195760405162461bcd60e51b815260206004820152602160248201527f4552433732313a20617070726f76616c20746f2063757272656e74206f776e656044820152603960f91b60648201526084015b60405180910390fd5b336001600160a01b0382161480610c355750610c3581336109e2565b610ca75760405162461bcd60e51b815260206004820152603d60248201527f4552433732313a20617070726f76652063616c6c6572206973206e6f7420746f60448201527f6b656e206f776e6572206f7220617070726f76656420666f7220616c6c0000006064820152608401610c10565b610cb18383612dd6565b505050565b61015f5460408051808201909152600381526231303160e81b6020820152906001600160a01b03163314610cfd5760405162461bcd60e51b8152600401610c109190614db9565b508051610d1290610163906020840190614c95565b5050565b61015f546001600160a01b031633148015610d3957506001600160a01b03811615155b6040518060400160405280600381526020016231303160e81b81525090610d735760405162461bcd60e51b8152600401610c109190614db9565b50610161546001600160a01b03828116911614610da75761016180546001600160a01b0319166001600160a01b0383161790555b50565b610db2612e44565b600081815261016a6020526040902060050154600160a01b900460ff16610dd857600080fd5b600081815261016a60205260409020600501546001600160a01b0316331415610e0057600080fd5b600081815261016b60209081526040808320338452909152902054610e2457600080fd5b600081815261016a602090815260408083206001015461016b83528184203380865293529281902054905163a9059cbb60e01b8152600481019290925260248201526001600160a01b039091169063a9059cbb906044016020604051808303816000875af1158015610e9a573d6000803e3d6000fd5b505050506040513d601f19601f82011682018060405250810190610ebe91906152a7565b50600081815261016b6020908152604080832033808552908352928190205481519384529183019190915282917f63ad079d900b92497dd34dccc37cb42c76aff5798f6084bd35af77d8cb5473fe910160405180910390a2610da7600160fb55565b61015f546001600160a01b03166000612710610f3e846101f46152da565b610f4891906152f9565b90509250929050565b61015f546001600160a01b031633148015610f7457506001600160a01b03811615155b6040518060400160405280600381526020016231303160e81b81525090610fae5760405162461bcd60e51b8152600401610c109190614db9565b50610169546001600160a01b03828116911614610da75761016980546001600160a01b0383166001600160a01b031990911617905550565b610fee612e44565b61101481610ffb8361141b565b6001600160a01b0316336001600160a01b031614612ee0565b610da7600160fb55565b6040805180820190915260128152711e39b1b934b83a1034b21e93bb30b939939f60711b602082015280611051846132ae565b60405160200161106292919061531b565b60408051601f1981840301815291905261016454909150819061108d906001600160a01b03166132fa565b60405160200161109e92919061536f565b60408051808303601f19018152908290526101605463bf40fac160e01b835260206004840152602160248401527f535741505f504f4f4c5f474d5f4554485f434f4e54524143545f4144445245536044840152605360f81b60648401529092506001600160a01b031690600090829063bf40fac190608401602060405180830381865afa158015611133573d6000803e3d6000fd5b505050506040513d601f19601f8201168201806040525081019061115791906153d6565b905082611163826132fa565b6040516020016111749291906153f3565b60405160208183030381529060405292508261118f306132fa565b6040516020016111a092919061546b565b6040516020818303038152906040529250826111bb85613310565b6040516020016111cc9291906154d2565b6040516020818303038152906040529250826040516020016111ee919061552a565b6040516020818303038152906040529250505092915050565b610cb183838360405180602001604052806000815250600080fd5b61016c5461016454604080513060208083019190915246828401526001600160a01b03948516606083015295841660808201529290911660a083015260c0808301939093528051808303909301835260e09091019052805191012090565b600061128b826133ad565b6040518060400160405280600381526020016232303960e81b815250906112c55760405162461bcd60e51b8152600401610c109190614db9565b5060008281526101666020526040902054600160a01b900460a01b6001600160a01b0319166112f657506000919050565b6000828152610166602090815260409182902054915161133192600160a01b900460a01b91016001600160a01b031991909116815260200190565b604051602081830303815290604052805190602001209050919050565b606060008467ffffffffffffffff81111561136b5761136b614e31565b604051908082528060200260200182016040528015611394578160200160208202803683370190505b5061015f549091506001600160a01b031633146113b057600080fd5b60005b8581101561140f5760006113ca886000888861190c565b9050808383815181106113df576113df615557565b60200260200101818152505062030d405a10156113fc575061140f565b50806114078161556d565b9150506113b3565b5090505b949350505050565b600090815261016660205260409020546001600160a01b031690565b60006114416133cb565b61144a33613476565b1061145757506001919050565b506000919050565b60006001600160a01b0382166114c95760405162461bcd60e51b815260206004820152602960248201527f4552433732313a2061646472657373207a65726f206973206e6f7420612076616044820152683634b21037bbb732b960b91b6064820152608401610c10565b506001600160a01b031660009081526068602052604090205490565b6114ed6134e6565b6114f76000613541565b565b6060604051806060016040528060378152602001615b876037913961016954604080518082018252600d81526c70356a7340312e352e302e6a7360981b602082015261016054915163bf40fac160e01b81529394506001600160a01b039283169390929190911690600090829063bf40fac19061159c906004016020808252600f908201526e29a1a924a82a2fa82927ab24a222a960891b604082015260600190565b602060405180830381865afa1580156115b9573d6000803e3d6000fd5b505050506040513d601f19601f820116820180604052508101906115dd91906153d6565b90506000846001600160a01b031663ba67e64183866040518363ffffffff1660e01b815260040161160f929190615588565b602060405180830381865afa15801561162c573d6000803e3d6000fd5b505050506040513d601f19601f8201168201806040525081019061165091906155ac565b905061165d6001826155c5565b905060005b818110156117285761015f5460405163283959d960e21b815260009182916001600160a01b038a81169263a0e56764926116a692909116908b9088906004016155dd565b600060405180830381865afa1580156116c3573d6000803e3d6000fd5b505050506040513d6000823e601f3d908101601f191682016040526116eb9190810190615641565b91509150888260405160200161170292919061569c565b6040516020818303038152906040529850505080806117209061556d565b915050611662565b508560405160200161173a919061552a565b6040516020818303038152906040529550505050505090565b61016380546117619061526c565b80601f016020809104026020016040519081016040528092919081815260200182805461178d9061526c565b80156117da5780601f106117af576101008083540402835291602001916117da565b820191906000526020600020905b8154815290600101906020018083116117bd57829003601f168201915b505050505081565b61015f546001600160a01b03163314801561180557506001600160a01b03811615155b6040518060400160405280600381526020016231303160e81b8152509061183f5760405162461bcd60e51b8152600401610c109190614db9565b5061015f546001600160a01b03828116911614610da75761015f80546001600160a01b0383166001600160a01b031990911617905550565b61015f546001600160a01b03163314801561189a57506001600160a01b03811615155b6040518060400160405280600381526020016231303160e81b815250906118d45760405162461bcd60e51b8152600401610c109190614db9565b50610164546001600160a01b03828116911614610da75761016480546001600160a01b0383166001600160a01b031990911617905550565b6000611916612e44565b6101655461016254106040518060400160405280600381526020016232303360e81b815250906119595760405162461bcd60e51b8152600401610c109190614db9565b5061015f546001600160a01b03163314611a9957336001600160a01b038616146119ad5760405162461bcd60e51b815260206004820152600560248201526447505f495560d81b6044820152606401610c10565b6119b68561145f565b156119e95760405162461bcd60e51b8152602060048201526003602482015262312d3160e81b6044820152606401610c10565b6001600160a01b0385166000908152610168602052604090205415611a345760405162461bcd60e51b81526020600482015260016024820152604d60f81b6044820152606401610c10565b611a75858585858080601f01602080910402602001604051908101604052809392919081815260200183838082843760009201919091525061359492505050565b50506001600160a01b03851660009081526101686020526040902060019055611b54565b61015f546001600160a01b03868116911614611b5457611ab88561145f565b15611aeb5760405162461bcd60e51b8152602060048201526003602482015262312d3160e81b6044820152606401610c10565b6001600160a01b0385166000908152610168602052604090205415611b365760405162461bcd60e51b81526020600482015260016024820152604d60f81b6044820152606401610c10565b6001600160a01b038516600090815261016860205260409020600190555b6101628054906000611b658361556d565b9190505550610162549050611b7a858261360d565b61016154604051631da00d8560e01b8152600481018390526001600160a01b03909116906000908290631da00d85906024016020604051808303816000875af1158015611bcb573d6000803e3d6000fd5b505050506040513d601f19601f82011682018060405250810190611bef91906155ac565b9050611bfb8382613627565b5050600081815261016760205260409020439055611413600160fb55565b600054610100900460ff1615808015611c395750600054600160ff909116105b80611c535750303b158015611c53575060005460ff166001145b611cb65760405162461bcd60e51b815260206004820152602e60248201527f496e697469616c697a61626c653a20636f6e747261637420697320616c72656160448201526d191e481a5b9a5d1a585b1a5e995960921b6064820152608401610c10565b6000805460ff191660011790558015611cd9576000805461ff0019166101001790555b60408051808201909152600381526203130360ec1b60208201526001600160a01b038816611d1a5760405162461bcd60e51b8152600401610c109190614db9565b5060408051808201909152600381526203130360ec1b60208201526001600160a01b038716611d5c5760405162461bcd60e51b8152600401610c109190614db9565b5061016080546001600160a01b03199081166001600160a01b038981169190911790925561015f805482168a841617905561016180548216888416179055610164805482168784161790556103e8610165556101698054821686841617905561016c8054909116918416919091179055611dd689896136f2565b611dde613723565b611de6613752565b611dee613781565b8015611e34576000805461ff0019169055604051600181527f7f26b83ff96e1f2b6a682f133852f6798a09c465da95921460cefb38474024989060200160405180910390a15b505050505050505050565b606060668054610af19061526c565b6000611e586137b0565b60008381526101676020526040902054611e7290436156cb565b11611e7f57506000919050565b61015f546001600160a01b0316611e958361141b565b6001600160a01b03161415611eac57506000919050565b30611eb68361141b565b6001600160a01b03161415611eef57600082815261016a6020526040902060050154600160a01b900460ff1615611eef57506001919050565b6000611ef96133cb565b905080611f0d611f088561141b565b613476565b1015611f1c5750600192915050565b50600092915050565b6060604051806060016040528060378152602001615b876037913961016954604080518082018252600f81526e776562336a7340312e322e372e6a7360881b602082015261016054915163bf40fac160e01b81529394506001600160a01b039283169390929190911690600090829063bf40fac190611fca906004016020808252600f908201526e29a1a924a82a2fa82927ab24a222a960891b604082015260600190565b602060405180830381865afa158015611fe7573d6000803e3d6000fd5b505050506040513d601f19601f8201168201806040525081019061200b91906153d6565b90506000846001600160a01b031663ba67e64183866040518363ffffffff1660e01b815260040161203d929190615588565b602060405180830381865afa15801561205a573d6000803e3d6000fd5b505050506040513d601f19601f8201168201806040525081019061207e91906155ac565b905061208b6001826155c5565b905060005b818110156117285761015f5460405163283959d960e21b815260009182916001600160a01b038a81169263a0e56764926120d492909116908b9088906004016155dd565b600060405180830381865afa1580156120f1573d6000803e3d6000fd5b505050506040513d6000823e601f3d908101601f191682016040526121199190810190615641565b91509150888260405160200161213092919061569c565b60405160208183030381529060405298505050808061214e9061556d565b915050612090565b610d12338383613852565b612169612e44565b61217282611437565b6121a75760405162461bcd60e51b8152600401610c109060208082526004908201526304e5f43360e41b604082015260600190565b6121b03361145f565b156121e65760405162461bcd60e51b8152602060048201526006602482015265272fa1982f9960d11b6044820152606401610c10565b600082815261016a602090815260408083206001015461016b83528184203385529092528220546001600160a01b039091169161222382856155c5565b600086815261016a602052604090205490915085146122795760405162461bcd60e51b81526020600482015260126024820152713737ba103ab8103337b91030bab1ba34b7b760711b6044820152606401610c10565b600085815261016a602052604090206004015443106122cc5760405162461bcd60e51b815260206004820152600f60248201526e105d58dd1a5bdb88195e1c1a5c9959608a1b6044820152606401610c10565b604051636eb1769f60e11b815233600482015230602482015284906001600160a01b0385169063dd62ed3e90604401602060405180830381865afa158015612318573d6000803e3d6000fd5b505050506040513d601f19601f8201168201806040525081019061233c91906155ac565b101561238a5760405162461bcd60e51b815260206004820152601c60248201527f6e6f7420656e6f75676820616c6c6f7720657263323020746f6b656e000000006044820152606401610c10565b6040516370a0823160e01b815233600482015284906001600160a01b038516906370a0823190602401602060405180830381865afa1580156123d0573d6000803e3d6000fd5b505050506040513d601f19601f820116820180604052508101906123f491906155ac565b101561243b5760405162461bcd60e51b81526020600482015260166024820152753737ba1032b737bab3b41032b9319918103a37b5b2b760511b6044820152606401610c10565b600085815261016a602052604090206007015481101561249d5760405162461bcd60e51b815260206004820152601f60248201527f4d7573742073656e64206174206c6561737420726573657276655072696365006044820152606401610c10565b600085815261016a6020526040902060088101546002909101546064916124c3916152da565b6124cd91906152f9565b600086815261016a60205260409020600201546124ea91906155c5565b811015612561576040805162461bcd60e51b81526020600482015260248101919091527f4d7573742073656e64206d6f7265207468616e206c617374206269642062792060448201527f6d696e426964496e6372656d656e7450657263656e7461676520616d6f756e746064820152608401610c10565b6040516323b872dd60e01b8152336004820152306024820152604481018590526001600160a01b038416906323b872dd906064016020604051808303816000875af11580156125b4573d6000803e3d6000fd5b505050506040513d601f19601f820116820180604052508101906125d891906152a7565b6126245760405162461bcd60e51b815260206004820152601d60248201527f63616e206e6f74206765742065726332302066726f6d206269646465720000006044820152606401610c10565b600085815261016b602090815260408083203380855290835281842085905588845261016a9092528220600281018490556005810180546001600160a01b03191690921790915560068101546004909101546126819043906156cb565b10905080156126bb57600086815261016a60205260409020600601546126a790436155c5565b600087815261016a60205260409020600401555b600086815261016a60209081526040918290205482513381529182018890528315158284015291517f1159164c56f277e6fc99c11731bd380e0347deb969b75523398734c252706ea39181900360600190a2801561276057600086815261016a602090815260409182902080546004909101549251928352917f6e912a3a9105bdd2af817ba5adc14e6c127c1035b5b648faa29ca0d58ab8ff4e910160405180910390a25b50505050610d12600160fb55565b50505050565b606061277f826133ad565b6040518060400160405280600381526020016232303960e81b815250906127b95760405162461bcd60e51b8152600401610c109190614db9565b5060405163188687dd60e21b815260048101839052600090309063621a1f7490602401602060405180830381865afa1580156127f9573d6000803e3d6000fd5b505050506040513d601f19601f8201168201806040525081019061281d91906155ac565b61016054604051637594e11960e11b815260048101839052602481018690529192506001600160a01b031690600090309063eb29c23290604401600060405180830381865afa158015612874573d6000803e3d6000fd5b505050506040513d6000823e601f3d908101601f1916820160405261289c91908101906156e2565b90506128c6816040516020016128b2919061572b565b604051602081830303815290604052613921565b6040516020016128d69190615747565b60405160208183030381529060405290506000816040516020016128fa9190615785565b60408051601f198184030181528282018252600e83526d109054d157d5549257d51490525560921b6020840152905163349f642f60e11b81529092506000916001600160a01b0386169163693ec85e9161295691600401614db9565b600060405180830381865afa158015612973573d6000803e3d6000fd5b505050506040513d6000823e601f3d908101601f1916820160405261299b91908101906156e2565b9050806129a7306132fa565b6129b089613310565b6129b9886132ae565b6040516020016129cc94939291906157cc565b60405160208183030381529060405290508082826040516020016129f29392919061584e565b60405160208183030381529060405295505050505050919050565b612a15612e44565b612a1e81611e4e565b612a535760405162461bcd60e51b8152600401610c109060208082526004908201526304e5f43360e41b604082015260600190565b612a5b6137b0565b60008281526101676020526040902054612a7590436156cb565b11612aab5760405162461bcd60e51b81526020600482015260066024820152654e5f43305f3360d01b6044820152606401610c10565b61101481613a87565b60408051808201909152600c81526b1e343a36b61f1e3432b0b21f60a11b602082015280612ae06114f9565b604051602001612af192919061569c565b604051602081830303815290604052905080612b0b611f25565b604051602001612b1c92919061569c565b604051602081830303815290604052905080612b38848461101e565b604051602001612b4992919061569c565b604051602081830303815290604052905080610163604051602001612b6f92919061592c565b604051602081830303815290604052905092915050565b612b8e6134e6565b6001600160a01b038116612bf35760405162461bcd60e51b815260206004820152602660248201527f4f776e61626c653a206e6577206f776e657220697320746865207a65726f206160448201526564647265737360d01b6064820152608401610c10565b610da781613541565b61015f546001600160a01b031633148015612c1f57506001600160a01b03811615155b6040518060400160405280600381526020016231303160e81b81525090612c595760405162461bcd60e51b8152600401610c109190614db9565b5061016c546001600160a01b03828116911614610da75761016c80546001600160a01b0383166001600160a01b031990911617905550565b61015f546001600160a01b031633148015612cb457506001600160a01b03811615155b6040518060400160405280600381526020016231303160e81b81525090612cee5760405162461bcd60e51b8152600401610c109190614db9565b50610160546001600160a01b03828116911614610da75761016080546001600160a01b0383166001600160a01b031990911617905550565b612d2f816133ad565b610da75760405162461bcd60e51b8152602060048201526018602482015277115490cdcc8c4e881a5b9d985b1a59081d1bdad95b88125160421b6044820152606401610c10565b6000818152606760205260408120546001600160a01b031680610adc5760405162461bcd60e51b8152602060048201526018602482015277115490cdcc8c4e881a5b9d985b1a59081d1bdad95b88125160421b6044820152606401610c10565b600081815260696020526040902080546001600160a01b0319166001600160a01b0384169081179091558190612e0b82612d76565b6001600160a01b03167f8c5be1e5ebec7d5bd14f71427d1e84f3dd0314c0f7b2291e5b200ac8c7c3b92560405160405180910390a45050565b600260fb541415612e975760405162461bcd60e51b815260206004820152601f60248201527f5265656e7472616e637947756172643a207265656e7472616e742063616c6c006044820152606401610c10565b600260fb55565b600160fb55565b612eb0838383613f93565b60009081526101666020526040902080546001600160a01b0319166001600160a01b039290921691909117905550565b600082815261016a6020526040902060030154612f365760405162461bcd60e51b815260206004820152601460248201527320bab1ba34b7b7103430b9b713ba103132b3bab760611b6044820152606401610c10565b600082815261016a6020526040902060050154600160a01b900460ff1615612fa05760405162461bcd60e51b815260206004820181905260248201527f41756374696f6e2068617320616c7265616479206265656e20736574746c65646044820152606401610c10565b600082815261016a60205260409020600401544310156130025760405162461bcd60e51b815260206004820152601860248201527f41756374696f6e206861736e277420636f6d706c6574656400000000000000006044820152606401610c10565b600082815261016a6020526040812060058101805460ff60a01b198116600160a01b179091556003909101919091556001600160a01b03161561309557600082815261016a6020526040902060050154613064906001600160a01b031661145f565b61309557600082815261016a60205260409020600581015490546130959130916001600160a01b0390911690612ea5565b600082815261016a602052604090206002015415613247576101605460405163bf40fac160e01b815260206004820152601c60248201527f534f554c5f41554354494f4e5f474d5f44414f5f54726561737572790000000060448201526000916001600160a01b03169063bf40fac190606401602060405180830381865afa158015613125573d6000803e3d6000fd5b505050506040513d601f19601f8201168201806040525081019061314991906153d6565b90506001600160a01b03811661315e57600080fd5b600083815261016a6020526040902060018101546002909101546001600160a01b039091169063a9059cbb9083906127109061319c906123286152da565b6131a691906152f9565b6040516001600160e01b031960e085901b1681526001600160a01b03909216600483015260248201526044016020604051808303816000875af11580156131f1573d6000803e3d6000fd5b505050506040513d601f19601f8201168201806040525081019061321591906152a7565b5050600082815261016b6020908152604080832061016a8352818420600501546001600160a01b031684529091528120555b600082815261016a60209081526040918290208054600582015460029092015484516001600160a01b0390931683529282019290925290917fc9f72b276a388619c6d185d146697036241880c36654b1a3ffdad07c24038d99910160405180910390a25050565b60606132b982614104565b6132c6608084901b614104565b60405161060f60f31b6020820152602281019290925260428201526062016040516020818303038152906040529050919050565b6060610adc6001600160a01b03831660146142b6565b6060600061331d83614459565b600101905060008167ffffffffffffffff81111561333d5761333d614e31565b6040519080825280601f01601f191660200182016040528015613367576020820181803683370190505b5090508181016020015b600019016f181899199a1a9b1b9c1cb0b131b232b360811b600a86061a8153600a85049450846133a0576133a5565b613371565b509392505050565b600090815261016660205260409020546001600160a01b0316151590565b61016054604051636d12dce160e01b815260206004820152601160248201527014d3d55317d1d357d512149154d213d311607a1b604482015260009182916001600160a01b0390911690636d12dce190606401602060405180830381865afa15801561343b573d6000803e3d6000fd5b505050506040513d601f19601f8201168201806040525081019061345f91906155ac565b9050806134715750670de0b6b3a76400005b919050565b610164546040516370a0823160e01b81526001600160a01b03838116600483015260009216906370a0823190602401602060405180830381865afa1580156134c2573d6000803e3d6000fd5b505050506040513d601f19601f82011682018060405250810190610adc91906155ac565b61012d546001600160a01b031633146114f75760405162461bcd60e51b815260206004820181905260248201527f4f776e61626c653a2063616c6c6572206973206e6f7420746865206f776e65726044820152606401610c10565b61012d80546001600160a01b038381166001600160a01b0319831681179093556040519116919082907f8be0079c531659141344cd1fd0a4f28419497f9722a3daafe3b4186f6b6457e090600090a35050565b60008060006135a38686611222565b905060006135b96135b383614531565b8661456c565b61016c549091506001600160a01b038083169116146136025760405162461bcd60e51b815260206004820152600560248201526447505f4e4160d81b6044820152606401610c10565b969095509350505050565b610d12828260405180602001604052806000815250614588565b60008281526101666020908152604091829020548251808401909352600383526219181b60e91b91830191909152600160a01b900460a01b6001600160a01b031916156136875760405162461bcd60e51b8152600401610c109190614db9565b5060408051808201909152600381526232303760e81b6020820152816136c05760405162461bcd60e51b8152600401610c109190614db9565b5060009182526101666020526040909120805460a09290921c600160a01b026001600160a01b03909216919091179055565b600054610100900460ff166137195760405162461bcd60e51b8152600401610c10906159dd565b610d1282826145bb565b600054610100900460ff1661374a5760405162461bcd60e51b8152600401610c10906159dd565b6114f7614609565b600054610100900460ff166137795760405162461bcd60e51b8152600401610c10906159dd565b6114f7614630565b600054610100900460ff166137a85760405162461bcd60e51b8152600401610c10906159dd565b6114f7614663565b61016054604051636d12dce160e01b815260206004820152600f60248201526e534f554c5f474d5f5245534552564560881b604482015260009182916001600160a01b0390911690636d12dce190606401602060405180830381865afa15801561381e573d6000803e3d6000fd5b505050506040513d601f19601f8201168201806040525081019061384291906155ac565b90508061347157506103f0919050565b816001600160a01b0316836001600160a01b031614156138b45760405162461bcd60e51b815260206004820152601960248201527f4552433732313a20617070726f766520746f2063616c6c6572000000000000006044820152606401610c10565b6001600160a01b038381166000818152606a6020908152604080832094871680845294825291829020805460ff191686151590811790915591519182527f17307eab39ab6107e8899845ad3d59bd9653f200f220920489ca2b5937696c31910160405180910390a3505050565b606081516000141561394157505060408051602081019091526000815290565b6000604051806060016040528060408152602001615b47604091399050600060038451600261397091906155c5565b61397a91906152f9565b6139859060046152da565b905060006139948260206155c5565b67ffffffffffffffff8111156139ac576139ac614e31565b6040519080825280601f01601f1916602001820160405280156139d6576020820181803683370190505b509050818152600183018586518101602084015b81831015613a42576003830192508251603f8160121c168501518253600182019150603f81600c1c168501518253600182019150603f8160061c168501518253600182019150603f81168501518253506001016139ea565b600389510660018114613a5c5760028114613a6d57613a79565b613d3d60f01b600119830152613a79565b603d60f81b6000198301525b509398975050505050505050565b613a90816133ad565b613a9957600080fd5b600081815261016a6020526040902060050154600160a01b900460ff1680613ace5750600081815261016a6020526040902054155b613b405760405162461bcd60e51b815260206004820152603860248201527f41756374696f6e2068617320616c7265616479206265656e20736574746c656460448201527f206f72203173742041756374696f6e206f6620746f6b656e00000000000000006064820152608401610c10565b436000613b4b6137b0565b613b5590836155c5565b610160546040805161014081018252600080825260208201819052918101829052606081018290526080810182905260a0810182905260c0810182905260e0810182905261010081018290526101208101919091529192506001600160a01b03169084815260405163bf40fac160e01b815260206004820152601860248201527f534f554c5f41554354494f4e5f45524332305f544f4b454e000000000000000060448201526001600160a01b0383169063bf40fac190606401602060405180830381865afa158015613c2c573d6000803e3d6000fd5b505050506040513d601f19601f82011682018060405250810190613c5091906153d6565b6001600160a01b031660208201819052613c7757610164546001600160a01b031660208201525b60006040828101829052606083018690526080830185905260a0830182905260c083019190915251636d12dce160e01b815260206004820152601860248201527f534f554c5f41554354494f4e5f54494d455f425546464552000000000000000060448201526001600160a01b03831690636d12dce190606401602060405180830381865afa158015613d0e573d6000803e3d6000fd5b505050506040513d601f19601f82011682018060405250810190613d3291906155ac565b60e0820152604051636d12dce160e01b815260206004820152601a60248201527f534f554c5f41554354494f4e5f524553455256455f505249434500000000000060448201526001600160a01b03831690636d12dce190606401602060405180830381865afa158015613da9573d6000803e3d6000fd5b505050506040513d601f19601f82011682018060405250810190613dcd91906155ac565b610100820152604051636d12dce160e01b815260206004820152602560248201527f534f554c5f41554354494f4e5f4d494e5f4249445f494e4352454153455f50456044820152641490d1539560da1b60648201526001600160a01b03831690636d12dce190608401602060405180830381865afa158015613e53573d6000803e3d6000fd5b505050506040513d601f19601f82011682018060405250810190613e7791906155ac565b6101208201908152600086815261016a602090815260409182902084518155908401516001820180546001600160a01b0319166001600160a01b03928316179055918401516002820155606084015160038201556080840151600482015560a084015160058201805460c0870151929094166001600160a81b031990941693909317600160a01b911515919091021790915560e083015160068201556101008301516007820155905160089091015530613f308661141b565b6001600160a01b031614613f5157613f51613f4a8661141b565b3087612ea5565b604080518581526020810185905286917fd6eddd1118d71820909c1197aa966dbc15ed6f508554252169cc3d5ccac756ca910160405180910390a25050505050565b826001600160a01b0316613fa682612d76565b6001600160a01b031614613fcc5760405162461bcd60e51b8152600401610c1090615a7a565b6001600160a01b03821661402e5760405162461bcd60e51b8152602060048201526024808201527f4552433732313a207472616e7366657220746f20746865207a65726f206164646044820152637265737360e01b6064820152608401610c10565b61403b838383600161478e565b826001600160a01b031661404e82612d76565b6001600160a01b0316146140745760405162461bcd60e51b8152600401610c1090615a7a565b600081815260696020908152604080832080546001600160a01b03199081169091556001600160a01b0387811680865260688552838620805460001901905590871680865283862080546001019055868652606790945282852080549092168417909155905184937fddf252ad1be2c89b69c2b068fc378daa952ba7f163c4a11628f55a4df523b3ef91a4505050565b7aff00000000000000ff00000000000000ff00000000000000ff00006bffffffff0000000000000000604083901c90811663ffffffff60c01b84161760201c63ffffffff60601b919091166001600160e01b031984161717601081901c9182167eff00000000000000ff00000000000000ff00000000000000ff000000000000821617600890811c7bff00000000000000ff00000000000000ff00000000000000ff000000939093167fff00000000000000ff00000000000000ff00000000000000ff000000000000009290921691909117919091179081901c7e0f000f000f000f000f000f000f000f000f000f000f000f000f000f000f000f167f0f000f000f000f000f000f000f000f000f000f000f000f000f000f000f000f00600492831c161790614252827f06060606060606060606060606060606060606060606060606060606060606066155c5565b901c7f0f0f0f0f0f0f0f0f0f0f0f0f0f0f0f0f0f0f0f0f0f0f0f0f0f0f0f0f0f0f0f0f16600761428291906152da565b6142ac827f30303030303030303030303030303030303030303030303030303030303030306155c5565b610adc91906155c5565b606060006142c58360026152da565b6142d09060026155c5565b67ffffffffffffffff8111156142e8576142e8614e31565b6040519080825280601f01601f191660200182016040528015614312576020820181803683370190505b509050600360fc1b8160008151811061432d5761432d615557565b60200101906001600160f81b031916908160001a905350600f60fb1b8160018151811061435c5761435c615557565b60200101906001600160f81b031916908160001a90535060006143808460026152da565b61438b9060016155c5565b90505b6001811115614403576f181899199a1a9b1b9c1cb0b131b232b360811b85600f16601081106143bf576143bf615557565b1a60f81b8282815181106143d5576143d5615557565b60200101906001600160f81b031916908160001a90535060049490941c936143fc81615abf565b905061438e565b5083156144525760405162461bcd60e51b815260206004820181905260248201527f537472696e67733a20686578206c656e67746820696e73756666696369656e746044820152606401610c10565b9392505050565b60008072184f03e93ff9f4daa797ed6e38ed64bf6a1f0160401b83106144985772184f03e93ff9f4daa797ed6e38ed64bf6a1f0160401b830492506040015b6d04ee2d6d415b85acef810000000083106144c4576d04ee2d6d415b85acef8100000000830492506020015b662386f26fc1000083106144e257662386f26fc10000830492506010015b6305f5e10083106144fa576305f5e100830492506008015b612710831061450e57612710830492506004015b60648310614520576064830492506002015b600a8310610adc5760010192915050565b6040517f19457468657265756d205369676e6564204d6573736167653a0a3332000000006020820152603c8101829052600090605c01611331565b600080600061457b8585614801565b915091506133a581614847565b6145928383614995565b61459f6000848484614693565b610cb15760405162461bcd60e51b8152600401610c1090615a28565b600054610100900460ff166145e25760405162461bcd60e51b8152600401610c10906159dd565b81516145f5906065906020850190614c95565b508051610cb1906066906020840190614c95565b600054610100900460ff16612e9e5760405162461bcd60e51b8152600401610c10906159dd565b600054610100900460ff166146575760405162461bcd60e51b8152600401610c10906159dd565b6097805460ff19169055565b600054610100900460ff1661468a5760405162461bcd60e51b8152600401610c10906159dd565b6114f733613541565b60006001600160a01b0384163b1561478657604051630a85bd0160e11b81526001600160a01b0385169063150b7a02906146d7903390899088908890600401615ad6565b6020604051808303816000875af1925050508015614712575060408051601f3d908101601f1916820190925261470f91810190615b13565b60015b61476c573d808015614740576040519150601f19603f3d011682016040523d82523d6000602084013e614745565b606091505b5080516147645760405162461bcd60e51b8152600401610c1090615a28565b805181602001fd5b6001600160e01b031916630a85bd0160e11b149050611413565b506001611413565b61479a848484846149ce565b60975460ff161561276e5760405162461bcd60e51b815260206004820152602b60248201527f4552433732315061757361626c653a20746f6b656e207472616e73666572207760448201526a1a1a5b19481c185d5cd95960aa1b6064820152608401610c10565b6000808251604114156148385760208301516040840151606085015160001a61482c87828585614a56565b94509450505050614840565b506000905060025b9250929050565b600081600481111561485b5761485b615b30565b14156148645750565b600181600481111561487857614878615b30565b14156148c65760405162461bcd60e51b815260206004820152601860248201527f45434453413a20696e76616c6964207369676e617475726500000000000000006044820152606401610c10565b60028160048111156148da576148da615b30565b14156149285760405162461bcd60e51b815260206004820152601f60248201527f45434453413a20696e76616c6964207369676e6174757265206c656e677468006044820152606401610c10565b600381600481111561493c5761493c615b30565b1415610da75760405162461bcd60e51b815260206004820152602260248201527f45434453413a20696e76616c6964207369676e6174757265202773272076616c604482015261756560f01b6064820152608401610c10565b61499f8282614b1a565b60009081526101666020526040902080546001600160a01b0319166001600160a01b0392909216919091179055565b600181111561276e576001600160a01b03841615614a14576001600160a01b03841660009081526068602052604081208054839290614a0e9084906156cb565b90915550505b6001600160a01b0383161561276e576001600160a01b03831660009081526068602052604081208054839290614a4b9084906155c5565b909155505050505050565b6000807f7fffffffffffffffffffffffffffffff5d576e7357a4501ddfe92f46681b20a0831115614a8d5750600090506003614b11565b6040805160008082526020820180845289905260ff881692820192909252606081018690526080810185905260019060a0016020604051602081039080840390855afa158015614ae1573d6000803e3d6000fd5b5050604051601f1901519150506001600160a01b038116614b0a57600060019250925050614b11565b9150600090505b94509492505050565b6001600160a01b038216614b705760405162461bcd60e51b815260206004820181905260248201527f4552433732313a206d696e7420746f20746865207a65726f20616464726573736044820152606401610c10565b614b79816133ad565b15614bc65760405162461bcd60e51b815260206004820152601c60248201527f4552433732313a20746f6b656e20616c7265616479206d696e746564000000006044820152606401610c10565b614bd460008383600161478e565b614bdd816133ad565b15614c2a5760405162461bcd60e51b815260206004820152601c60248201527f4552433732313a20746f6b656e20616c7265616479206d696e746564000000006044820152606401610c10565b6001600160a01b038216600081815260686020908152604080832080546001019055848352606790915280822080546001600160a01b0319168417905551839291907fddf252ad1be2c89b69c2b068fc378daa952ba7f163c4a11628f55a4df523b3ef908290a45050565b828054614ca19061526c565b90600052602060002090601f016020900481019282614cc35760008555614d09565b82601f10614cdc57805160ff1916838001178555614d09565b82800160010185558215614d09579182015b82811115614d09578251825591602001919060010190614cee565b50614d15929150614d19565b5090565b5b80821115614d155760008155600101614d1a565b6001600160e01b031981168114610da757600080fd5b600060208284031215614d5657600080fd5b813561445281614d2e565b60005b83811015614d7c578181015183820152602001614d64565b8381111561276e5750506000910152565b60008151808452614da5816020860160208601614d61565b601f01601f19169290920160200192915050565b6020815260006144526020830184614d8d565b600060208284031215614dde57600080fd5b5035919050565b6001600160a01b0381168114610da757600080fd5b803561347181614de5565b60008060408385031215614e1857600080fd5b8235614e2381614de5565b946020939093013593505050565b634e487b7160e01b600052604160045260246000fd5b604051601f8201601f1916810167ffffffffffffffff81118282101715614e7057614e70614e31565b604052919050565b600067ffffffffffffffff821115614e9257614e92614e31565b50601f01601f191660200190565b6000614eb3614eae84614e78565b614e47565b9050828152838383011115614ec757600080fd5b828260208301376000602084830101529392505050565b600082601f830112614eef57600080fd5b61445283833560208501614ea0565b600060208284031215614f1057600080fd5b813567ffffffffffffffff811115614f2757600080fd5b61141384828501614ede565b600060208284031215614f4557600080fd5b813561445281614de5565b600080600060608486031215614f6557600080fd5b8335614f7081614de5565b92506020840135614f8081614de5565b929592945050506040919091013590565b60008060408385031215614fa457600080fd5b50508035926020909101359150565b60008060408385031215614fc657600080fd5b823591506020830135614fd881614de5565b809150509250929050565b60008060008060608587031215614ff957600080fd5b843561500481614de5565b935060208501359250604085013567ffffffffffffffff8082111561502857600080fd5b818701915087601f83011261503c57600080fd5b81358181111561504b57600080fd5b88602082850101111561505d57600080fd5b95989497505060200194505050565b6020808252825182820181905260009190848201906040850190845b818110156150a457835183529284019291840191600101615088565b50909695505050505050565b600080600080600080600080610100898b0312156150cd57600080fd5b883567ffffffffffffffff808211156150e557600080fd5b6150f18c838d01614ede565b995060208b013591508082111561510757600080fd5b506151148b828c01614ede565b975050604089013561512581614de5565b9550606089013561513581614de5565b9450608089013561514581614de5565b935060a089013561515581614de5565b925060c089013561516581614de5565b915061517360e08a01614dfa565b90509295985092959890939650565b8015158114610da757600080fd5b600080604083850312156151a357600080fd5b82356151ae81614de5565b91506020830135614fd881615182565b600080600080608085870312156151d457600080fd5b84356151df81614de5565b935060208501356151ef81614de5565b925060408501359150606085013567ffffffffffffffff81111561521257600080fd5b8501601f8101871361522357600080fd5b61523287823560208401614ea0565b91505092959194509250565b6000806040838503121561525157600080fd5b823561525c81614de5565b91506020830135614fd881614de5565b600181811c9082168061528057607f821691505b602082108114156152a157634e487b7160e01b600052602260045260246000fd5b50919050565b6000602082840312156152b957600080fd5b815161445281615182565b634e487b7160e01b600052601160045260246000fd5b60008160001904831182151516156152f4576152f46152c4565b500290565b60008261531657634e487b7160e01b600052601260045260246000fd5b500490565b6000835161532d818460208801614d61565b696c657420736565643d2760b01b908301908152835161535481600a840160208801614d61565b61273b60f01b600a9290910191820152600c01949350505050565b60008351615381818460208801614d61565b7f6c657420474d5f434f4e54524143545f414444524553533d270000000000000090830190815283516153bb816019840160208801614d61565b61273b60f01b60199290910191820152601b01949350505050565b6000602082840312156153e857600080fd5b815161445281614de5565b60008351615405818460208801614d61565b80830190507f6c657420535741505f504f4f4c5f474d5f4554485f434f4e54524143545f414481526644524553533d2760c81b60208201528351615450816027840160208801614d61565b61273b60f01b60279290910191820152602901949350505050565b6000835161547d818460208801614d61565b7f6c657420736f6c617269734e6674436f6e7472616374416464726573733d270090830190815283516154b781601f840160208801614d61565b61273b60f01b601f9290910191820152602101949350505050565b600083516154e4818460208801614d61565b6d6c657420544f4b454e5f49443d2760901b908301908152835161550f81600e840160208801614d61565b61273b60f01b600e9290910191820152601001949350505050565b6000825161553c818460208701614d61565b681e17b9b1b934b83a1f60b91b920191825250600901919050565b634e487b7160e01b600052603260045260246000fd5b6000600019821415615581576155816152c4565b5060010190565b6001600160a01b038316815260406020820181905260009061141390830184614d8d565b6000602082840312156155be57600080fd5b5051919050565b600082198211156155d8576155d86152c4565b500190565b6001600160a01b038416815260606020820181905260009061560190830185614d8d565b9050826040830152949350505050565b600061561f614eae84614e78565b905082815283838301111561563357600080fd5b614452836020830184614d61565b6000806040838503121561565457600080fd5b825167ffffffffffffffff81111561566b57600080fd5b8301601f8101851361567c57600080fd5b61568b85825160208401615611565b925050602083015190509250929050565b600083516156ae818460208801614d61565b8351908301906156c2818360208801614d61565b01949350505050565b6000828210156156dd576156dd6152c4565b500390565b6000602082840312156156f457600080fd5b815167ffffffffffffffff81111561570b57600080fd5b8201601f8101841361571c57600080fd5b61141384825160208401615611565b6000825161573d818460208701614d61565b9190910192915050565b7519185d184e9d195e1d0bda1d1b5b0ed8985cd94d8d0b60521b815260008251615778816016850160208701614d61565b9190910160160192915050565b7216101130b734b6b0ba34b7b72fbab936111d1160691b815281516000906157b4816013850160208701614d61565b601160f91b6013939091019283015250601401919050565b600085516157de818460208a01614d61565b8083019050602f60f81b80825286516157fe816001850160208b01614d61565b60019201918201528451615819816002840160208901614d61565b653f736565643d60d01b600292909101918201528351615840816008840160208801614d61565b016008019695505050505050565b7f7b226e616d65223a22222c226465736372697074696f6e223a2022220000000081526b16101134b6b0b3b2911d101160a11b601c820152835160009061589c816028850160208901614d61565b6e1331b0b83a3ab9329e9b181818181160891b60289184019182015284516158cb816037840160208901614d61565b7016101130ba3a3934b13aba32b9911d101160791b6037929091019182015283516158fd816048840160208801614d61565b6a1331b0b83a3ab9329e981160a91b60489290910191820152607d60f81b605382015260540195945050505050565b60008351602061593f8285838901614d61565b845491840191600090600181811c908083168061595d57607f831692505b85831081141561597b57634e487b7160e01b85526022600452602485fd5b80801561598f57600181146159a0576159cd565b60ff198516885283880195506159cd565b60008b81526020902060005b858110156159c55781548a8201529084019088016159ac565b505083880195505b50939a9950505050505050505050565b6020808252602b908201527f496e697469616c697a61626c653a20636f6e7472616374206973206e6f74206960408201526a6e697469616c697a696e6760a81b606082015260800190565b60208082526032908201527f4552433732313a207472616e7366657220746f206e6f6e20455243373231526560408201527131b2b4bb32b91034b6b83632b6b2b73a32b960711b606082015260800190565b60208082526025908201527f4552433732313a207472616e736665722066726f6d20696e636f72726563742060408201526437bbb732b960d91b606082015260800190565b600081615ace57615ace6152c4565b506000190190565b6001600160a01b0385811682528416602082015260408101839052608060608201819052600090615b0990830184614d8d565b9695505050505050565b600060208284031215615b2557600080fd5b815161445281614d2e565b634e487b7160e01b600052602160045260246000fdfe4142434445464748494a4b4c4d4e4f505152535455565758595a6162636465666768696a6b6c6d6e6f707172737475767778797a303132333435363738392b2f3c7363726970742073616e64626f783d27616c6c6f772d736372697074732720747970653d27746578742f6a617661736372697074273ea264697066735822122051a04b9cbe3983255e6797017102df6760d172d3ea6f4ccd60453f3855679df364736f6c634300080c0033",
  "linkReferences": {},
  "deployedLinkReferences": {}
}