{
  "_format": "hh-sol-artifact-1",
  "contractName": "SOUL",
  "sourceName": "contracts/nfts/SOUL.sol",
  "abi": [
    {
      "anonymous": false,
      "inputs": [
        {
          "indexed": true,
          "internalType": "address",
          "name": "owner",
          "type": "address"
        },
        {
          "indexed": true,
          "internalType": "address",
          "name": "approved",
          "type": "address"
        },
        {
          "indexed": true,
          "internalType": "uint256",
          "name": "tokenId",
          "type": "uint256"
        }
      ],
      "name": "Approval",
      "type": "event"
    },
    {
      "anonymous": false,
      "inputs": [
        {
          "indexed": true,
          "internalType": "address",
          "name": "owner",
          "type": "address"
        },
        {
          "indexed": true,
          "internalType": "address",
          "name": "operator",
          "type": "address"
        },
        {
          "indexed": false,
          "internalType": "bool",
          "name": "approved",
          "type": "bool"
        }
      ],
      "name": "ApprovalForAll",
      "type": "event"
    },
    {
      "anonymous": false,
      "inputs": [
        {
          "indexed": true,
          "internalType": "uint256",
          "name": "tokenId",
          "type": "uint256"
        },
        {
          "indexed": false,
          "internalType": "address",
          "name": "sender",
          "type": "address"
        },
        {
          "indexed": false,
          "internalType": "uint256",
          "name": "value",
          "type": "uint256"
        },
        {
          "indexed": false,
          "internalType": "bool",
          "name": "extended",
          "type": "bool"
        },
        {
          "components": [
            {
              "internalType": "uint256",
              "name": "tokenId",
              "type": "uint256"
            },
            {
              "internalType": "address",
              "name": "erc20Token",
              "type": "address"
            },
            {
              "internalType": "uint256",
              "name": "amount",
              "type": "uint256"
            },
            {
              "internalType": "uint256",
              "name": "startTime",
              "type": "uint256"
            },
            {
              "internalType": "uint256",
              "name": "endTime",
              "type": "uint256"
            },
            {
              "internalType": "address payable",
              "name": "bidder",
              "type": "address"
            },
            {
              "internalType": "bool",
              "name": "settled",
              "type": "bool"
            },
            {
              "internalType": "uint256",
              "name": "timeBuffer",
              "type": "uint256"
            },
            {
              "internalType": "uint256",
              "name": "reservePrice",
              "type": "uint256"
            },
            {
              "internalType": "uint256",
              "name": "minBidIncrementPercentage",
              "type": "uint256"
            },
            {
              "internalType": "bytes32",
              "name": "auctionId",
              "type": "bytes32"
            }
          ],
          "indexed": false,
          "internalType": "struct AuctionHouse.Auction",
          "name": "auction",
          "type": "tuple"
        }
      ],
      "name": "AuctionBid",
      "type": "event"
    },
    {
      "anonymous": false,
      "inputs": [
        {
          "indexed": true,
          "internalType": "uint256",
          "name": "tokenId",
          "type": "uint256"
        },
        {
          "indexed": false,
          "internalType": "address",
          "name": "sender",
          "type": "address"
        },
        {
          "indexed": false,
          "internalType": "uint256",
          "name": "value",
          "type": "uint256"
        },
        {
          "indexed": false,
          "internalType": "bytes32",
          "name": "auctionId",
          "type": "bytes32"
        }
      ],
      "name": "AuctionClaimBid",
      "type": "event"
    },
    {
      "anonymous": false,
      "inputs": [
        {
          "indexed": true,
          "internalType": "uint256",
          "name": "tokenId",
          "type": "uint256"
        }
      ],
      "name": "AuctionClosed",
      "type": "event"
    },
    {
      "anonymous": false,
      "inputs": [
        {
          "indexed": true,
          "internalType": "uint256",
          "name": "tokenId",
          "type": "uint256"
        },
        {
          "indexed": false,
          "internalType": "uint256",
          "name": "startTime",
          "type": "uint256"
        },
        {
          "indexed": false,
          "internalType": "uint256",
          "name": "endTime",
          "type": "uint256"
        },
        {
          "indexed": false,
          "internalType": "address",
          "name": "sender",
          "type": "address"
        },
        {
          "indexed": false,
          "internalType": "bytes32",
          "name": "auctionId",
          "type": "bytes32"
        },
        {
          "components": [
            {
              "internalType": "uint256",
              "name": "tokenId",
              "type": "uint256"
            },
            {
              "internalType": "address",
              "name": "erc20Token",
              "type": "address"
            },
            {
              "internalType": "uint256",
              "name": "amount",
              "type": "uint256"
            },
            {
              "internalType": "uint256",
              "name": "startTime",
              "type": "uint256"
            },
            {
              "internalType": "uint256",
              "name": "endTime",
              "type": "uint256"
            },
            {
              "internalType": "address payable",
              "name": "bidder",
              "type": "address"
            },
            {
              "internalType": "bool",
              "name": "settled",
              "type": "bool"
            },
            {
              "internalType": "uint256",
              "name": "timeBuffer",
              "type": "uint256"
            },
            {
              "internalType": "uint256",
              "name": "reservePrice",
              "type": "uint256"
            },
            {
              "internalType": "uint256",
              "name": "minBidIncrementPercentage",
              "type": "uint256"
            },
            {
              "internalType": "bytes32",
              "name": "auctionId",
              "type": "bytes32"
            }
          ],
          "indexed": false,
          "internalType": "struct AuctionHouse.Auction",
          "name": "auction",
          "type": "tuple"
        }
      ],
      "name": "AuctionCreated",
      "type": "event"
    },
    {
      "anonymous": false,
      "inputs": [
        {
          "indexed": true,
          "internalType": "uint256",
          "name": "tokenId",
          "type": "uint256"
        },
        {
          "indexed": false,
          "internalType": "uint256",
          "name": "endTime",
          "type": "uint256"
        },
        {
          "components": [
            {
              "internalType": "uint256",
              "name": "tokenId",
              "type": "uint256"
            },
            {
              "internalType": "address",
              "name": "erc20Token",
              "type": "address"
            },
            {
              "internalType": "uint256",
              "name": "amount",
              "type": "uint256"
            },
            {
              "internalType": "uint256",
              "name": "startTime",
              "type": "uint256"
            },
            {
              "internalType": "uint256",
              "name": "endTime",
              "type": "uint256"
            },
            {
              "internalType": "address payable",
              "name": "bidder",
              "type": "address"
            },
            {
              "internalType": "bool",
              "name": "settled",
              "type": "bool"
            },
            {
              "internalType": "uint256",
              "name": "timeBuffer",
              "type": "uint256"
            },
            {
              "internalType": "uint256",
              "name": "reservePrice",
              "type": "uint256"
            },
            {
              "internalType": "uint256",
              "name": "minBidIncrementPercentage",
              "type": "uint256"
            },
            {
              "internalType": "bytes32",
              "name": "auctionId",
              "type": "bytes32"
            }
          ],
          "indexed": false,
          "internalType": "struct AuctionHouse.Auction",
          "name": "auction",
          "type": "tuple"
        }
      ],
      "name": "AuctionExtended",
      "type": "event"
    },
    {
      "anonymous": false,
      "inputs": [
        {
          "indexed": false,
          "internalType": "uint256",
          "name": "minBidIncrementPercentage",
          "type": "uint256"
        }
      ],
      "name": "AuctionMinBidIncrementPercentageUpdated",
      "type": "event"
    },
    {
      "anonymous": false,
      "inputs": [
        {
          "indexed": false,
          "internalType": "uint256",
          "name": "reservePrice",
          "type": "uint256"
        }
      ],
      "name": "AuctionReservePriceUpdated",
      "type": "event"
    },
    {
      "anonymous": false,
      "inputs": [
        {
          "indexed": true,
          "internalType": "uint256",
          "name": "tokenId",
          "type": "uint256"
        },
        {
          "indexed": false,
          "internalType": "address",
          "name": "winner",
          "type": "address"
        },
        {
          "indexed": false,
          "internalType": "uint256",
          "name": "amount",
          "type": "uint256"
        },
        {
          "components": [
            {
              "internalType": "uint256",
              "name": "tokenId",
              "type": "uint256"
            },
            {
              "internalType": "address",
              "name": "erc20Token",
              "type": "address"
            },
            {
              "internalType": "uint256",
              "name": "amount",
              "type": "uint256"
            },
            {
              "internalType": "uint256",
              "name": "startTime",
              "type": "uint256"
            },
            {
              "internalType": "uint256",
              "name": "endTime",
              "type": "uint256"
            },
            {
              "internalType": "address payable",
              "name": "bidder",
              "type": "address"
            },
            {
              "internalType": "bool",
              "name": "settled",
              "type": "bool"
            },
            {
              "internalType": "uint256",
              "name": "timeBuffer",
              "type": "uint256"
            },
            {
              "internalType": "uint256",
              "name": "reservePrice",
              "type": "uint256"
            },
            {
              "internalType": "uint256",
              "name": "minBidIncrementPercentage",
              "type": "uint256"
            },
            {
              "internalType": "bytes32",
              "name": "auctionId",
              "type": "bytes32"
            }
          ],
          "indexed": false,
          "internalType": "struct AuctionHouse.Auction",
          "name": "auction",
          "type": "tuple"
        }
      ],
      "name": "AuctionSettled",
      "type": "event"
    },
    {
      "anonymous": false,
      "inputs": [
        {
          "indexed": false,
          "internalType": "uint256",
          "name": "timeBuffer",
          "type": "uint256"
        }
      ],
      "name": "AuctionTimeBufferUpdated",
      "type": "event"
    },
    {
      "anonymous": false,
      "inputs": [
        {
          "indexed": true,
          "internalType": "address",
          "name": "reserver",
          "type": "address"
        },
        {
          "indexed": true,
          "internalType": "uint256",
          "name": "tokenId",
          "type": "uint256"
        },
        {
          "indexed": true,
          "internalType": "address",
          "name": "owner",
          "type": "address"
        },
        {
          "indexed": false,
          "internalType": "uint256",
          "name": "blockNumber",
          "type": "uint256"
        }
      ],
      "name": "Claim",
      "type": "event"
    },
    {
      "anonymous": false,
      "inputs": [
        {
          "indexed": false,
          "internalType": "uint8",
          "name": "version",
          "type": "uint8"
        }
      ],
      "name": "Initialized",
      "type": "event"
    },
    {
      "anonymous": false,
      "inputs": [
        {
          "indexed": true,
          "internalType": "address",
          "name": "previousOwner",
          "type": "address"
        },
        {
          "indexed": true,
          "internalType": "address",
          "name": "newOwner",
          "type": "address"
        }
      ],
      "name": "OwnershipTransferred",
      "type": "event"
    },
    {
      "anonymous": false,
      "inputs": [
        {
          "indexed": false,
          "internalType": "address",
          "name": "account",
          "type": "address"
        }
      ],
      "name": "Paused",
      "type": "event"
    },
    {
      "anonymous": false,
      "inputs": [
        {
          "indexed": true,
          "internalType": "address",
          "name": "reserver",
          "type": "address"
        },
        {
          "indexed": true,
          "internalType": "uint256",
          "name": "tokenId",
          "type": "uint256"
        },
        {
          "indexed": true,
          "internalType": "address",
          "name": "owner",
          "type": "address"
        },
        {
          "indexed": false,
          "internalType": "uint256",
          "name": "blockNumber",
          "type": "uint256"
        }
      ],
      "name": "Reserve",
      "type": "event"
    },
    {
      "anonymous": false,
      "inputs": [
        {
          "indexed": true,
          "internalType": "address",
          "name": "from",
          "type": "address"
        },
        {
          "indexed": true,
          "internalType": "address",
          "name": "to",
          "type": "address"
        },
        {
          "indexed": true,
          "internalType": "uint256",
          "name": "tokenId",
          "type": "uint256"
        }
      ],
      "name": "Transfer",
      "type": "event"
    },
    {
      "anonymous": false,
      "inputs": [
        {
          "indexed": false,
          "internalType": "address",
          "name": "account",
          "type": "address"
        }
      ],
      "name": "Unpaused",
      "type": "event"
    },
    {
      "inputs": [],
      "name": "_admin",
      "outputs": [
        {
          "internalType": "address",
          "name": "",
          "type": "address"
        }
      ],
      "stateMutability": "view",
      "type": "function"
    },
    {
      "inputs": [
        {
          "internalType": "uint256",
          "name": "",
          "type": "uint256"
        }
      ],
      "name": "_auctions",
      "outputs": [
        {
          "internalType": "uint256",
          "name": "tokenId",
          "type": "uint256"
        },
        {
          "internalType": "address",
          "name": "erc20Token",
          "type": "address"
        },
        {
          "internalType": "uint256",
          "name": "amount",
          "type": "uint256"
        },
        {
          "internalType": "uint256",
          "name": "startTime",
          "type": "uint256"
        },
        {
          "internalType": "uint256",
          "name": "endTime",
          "type": "uint256"
        },
        {
          "internalType": "address payable",
          "name": "bidder",
          "type": "address"
        },
        {
          "internalType": "bool",
          "name": "settled",
          "type": "bool"
        },
        {
          "internalType": "uint256",
          "name": "timeBuffer",
          "type": "uint256"
        },
        {
          "internalType": "uint256",
          "name": "reservePrice",
          "type": "uint256"
        },
        {
          "internalType": "uint256",
          "name": "minBidIncrementPercentage",
          "type": "uint256"
        },
        {
          "internalType": "bytes32",
          "name": "auctionId",
          "type": "bytes32"
        }
      ],
      "stateMutability": "view",
      "type": "function"
    },
    {
      "inputs": [
        {
          "internalType": "bytes32",
          "name": "",
          "type": "bytes32"
        }
      ],
      "name": "_auctionsList",
      "outputs": [
        {
          "internalType": "uint256",
          "name": "tokenId",
          "type": "uint256"
        },
        {
          "internalType": "address",
          "name": "erc20Token",
          "type": "address"
        },
        {
          "internalType": "uint256",
          "name": "amount",
          "type": "uint256"
        },
        {
          "internalType": "uint256",
          "name": "startTime",
          "type": "uint256"
        },
        {
          "internalType": "uint256",
          "name": "endTime",
          "type": "uint256"
        },
        {
          "internalType": "address payable",
          "name": "bidder",
          "type": "address"
        },
        {
          "internalType": "bool",
          "name": "settled",
          "type": "bool"
        },
        {
          "internalType": "uint256",
          "name": "timeBuffer",
          "type": "uint256"
        },
        {
          "internalType": "uint256",
          "name": "reservePrice",
          "type": "uint256"
        },
        {
          "internalType": "uint256",
          "name": "minBidIncrementPercentage",
          "type": "uint256"
        },
        {
          "internalType": "bytes32",
          "name": "auctionId",
          "type": "bytes32"
        }
      ],
      "stateMutability": "view",
      "type": "function"
    },
    {
      "inputs": [],
      "name": "_bfs",
      "outputs": [
        {
          "internalType": "address",
          "name": "",
          "type": "address"
        }
      ],
      "stateMutability": "view",
      "type": "function"
    },
    {
      "inputs": [
        {
          "internalType": "uint256",
          "name": "",
          "type": "uint256"
        },
        {
          "internalType": "bytes32",
          "name": "",
          "type": "bytes32"
        },
        {
          "internalType": "address",
          "name": "",
          "type": "address"
        }
      ],
      "name": "_bidderAuctions",
      "outputs": [
        {
          "internalType": "uint256",
          "name": "",
          "type": "uint256"
        }
      ],
      "stateMutability": "view",
      "type": "function"
    },
    {
      "inputs": [
        {
          "internalType": "uint256",
          "name": "",
          "type": "uint256"
        },
        {
          "internalType": "bytes32",
          "name": "",
          "type": "bytes32"
        },
        {
          "internalType": "uint256",
          "name": "",
          "type": "uint256"
        }
      ],
      "name": "_bidderAuctionsList",
      "outputs": [
        {
          "internalType": "address",
          "name": "",
          "type": "address"
        }
      ],
      "stateMutability": "view",
      "type": "function"
    },
    {
      "inputs": [
        {
          "internalType": "address",
          "name": "",
          "type": "address"
        },
        {
          "internalType": "address",
          "name": "",
          "type": "address"
        }
      ],
      "name": "_biddingBalance",
      "outputs": [
        {
          "internalType": "uint256",
          "name": "",
          "type": "uint256"
        }
      ],
      "stateMutability": "view",
      "type": "function"
    },
    {
      "inputs": [
        {
          "internalType": "address",
          "name": "",
          "type": "address"
        }
      ],
      "name": "_coreTeamTreasury",
      "outputs": [
        {
          "internalType": "uint256",
          "name": "",
          "type": "uint256"
        }
      ],
      "stateMutability": "view",
      "type": "function"
    },
    {
      "inputs": [],
      "name": "_gmToken",
      "outputs": [
        {
          "internalType": "address",
          "name": "",
          "type": "address"
        }
      ],
      "stateMutability": "view",
      "type": "function"
    },
    {
      "inputs": [],
      "name": "_maxSupply",
      "outputs": [
        {
          "internalType": "uint256",
          "name": "",
          "type": "uint256"
        }
      ],
      "stateMutability": "view",
      "type": "function"
    },
    {
      "inputs": [
        {
          "internalType": "uint256",
          "name": "",
          "type": "uint256"
        }
      ],
      "name": "_mintAt",
      "outputs": [
        {
          "internalType": "uint256",
          "name": "",
          "type": "uint256"
        }
      ],
      "stateMutability": "view",
      "type": "function"
    },
    {
      "inputs": [
        {
          "internalType": "address",
          "name": "",
          "type": "address"
        }
      ],
      "name": "_minted",
      "outputs": [
        {
          "internalType": "uint256",
          "name": "",
          "type": "uint256"
        }
      ],
      "stateMutability": "view",
      "type": "function"
    },
    {
      "inputs": [],
      "name": "_paramsAddress",
      "outputs": [
        {
          "internalType": "address",
          "name": "",
          "type": "address"
        }
      ],
      "stateMutability": "view",
      "type": "function"
    },
    {
      "inputs": [],
      "name": "_randomizerAddr",
      "outputs": [
        {
          "internalType": "address",
          "name": "",
          "type": "address"
        }
      ],
      "stateMutability": "view",
      "type": "function"
    },
    {
      "inputs": [],
      "name": "_script",
      "outputs": [
        {
          "internalType": "string",
          "name": "",
          "type": "string"
        }
      ],
      "stateMutability": "view",
      "type": "function"
    },
    {
      "inputs": [],
      "name": "_signerMint",
      "outputs": [
        {
          "internalType": "address",
          "name": "",
          "type": "address"
        }
      ],
      "stateMutability": "view",
      "type": "function"
    },
    {
      "inputs": [
        {
          "internalType": "address",
          "name": "to",
          "type": "address"
        },
        {
          "internalType": "uint256",
          "name": "tokenId",
          "type": "uint256"
        }
      ],
      "name": "approve",
      "outputs": [],
      "stateMutability": "nonpayable",
      "type": "function"
    },
    {
      "inputs": [
        {
          "internalType": "uint256",
          "name": "tokenId",
          "type": "uint256"
        }
      ],
      "name": "available",
      "outputs": [
        {
          "internalType": "bool",
          "name": "",
          "type": "bool"
        }
      ],
      "stateMutability": "view",
      "type": "function"
    },
    {
      "inputs": [
        {
          "internalType": "address",
          "name": "owner",
          "type": "address"
        }
      ],
      "name": "balanceOf",
      "outputs": [
        {
          "internalType": "uint256",
          "name": "",
          "type": "uint256"
        }
      ],
      "stateMutability": "view",
      "type": "function"
    },
    {
      "inputs": [
        {
          "internalType": "uint256",
          "name": "tokenId",
          "type": "uint256"
        }
      ],
      "name": "biddable",
      "outputs": [
        {
          "internalType": "bool",
          "name": "",
          "type": "bool"
        }
      ],
      "stateMutability": "view",
      "type": "function"
    },
    {
      "inputs": [
        {
          "internalType": "address",
          "name": "newAdm",
          "type": "address"
        }
      ],
      "name": "changeAdmin",
      "outputs": [],
      "stateMutability": "nonpayable",
      "type": "function"
    },
    {
      "inputs": [
        {
          "internalType": "address",
          "name": "newBfs",
          "type": "address"
        }
      ],
      "name": "changeBfs",
      "outputs": [],
      "stateMutability": "nonpayable",
      "type": "function"
    },
    {
      "inputs": [
        {
          "internalType": "address",
          "name": "newBrc20",
          "type": "address"
        }
      ],
      "name": "changeBrc20Token",
      "outputs": [],
      "stateMutability": "nonpayable",
      "type": "function"
    },
    {
      "inputs": [
        {
          "internalType": "address",
          "name": "newAddr",
          "type": "address"
        }
      ],
      "name": "changeParamAddr",
      "outputs": [],
      "stateMutability": "nonpayable",
      "type": "function"
    },
    {
      "inputs": [
        {
          "internalType": "address",
          "name": "newAddr",
          "type": "address"
        }
      ],
      "name": "changeRandomizerAddr",
      "outputs": [],
      "stateMutability": "nonpayable",
      "type": "function"
    },
    {
      "inputs": [
        {
          "internalType": "string",
          "name": "newScript",
          "type": "string"
        }
      ],
      "name": "changeScript",
      "outputs": [],
      "stateMutability": "nonpayable",
      "type": "function"
    },
    {
      "inputs": [
        {
          "internalType": "address",
          "name": "newAdd",
          "type": "address"
        }
      ],
      "name": "changeSignerMint",
      "outputs": [],
      "stateMutability": "nonpayable",
      "type": "function"
    },
    {
      "inputs": [
        {
          "internalType": "uint256",
          "name": "tokenId",
          "type": "uint256"
        },
        {
          "internalType": "bytes32",
          "name": "auctionId",
          "type": "bytes32"
        }
      ],
      "name": "claimBid",
      "outputs": [],
      "stateMutability": "nonpayable",
      "type": "function"
    },
    {
      "inputs": [
        {
          "internalType": "uint256",
          "name": "tokenId",
          "type": "uint256"
        }
      ],
      "name": "createAuction",
      "outputs": [],
      "stateMutability": "nonpayable",
      "type": "function"
    },
    {
      "inputs": [
        {
          "internalType": "uint256",
          "name": "tokenId",
          "type": "uint256"
        },
        {
          "internalType": "uint256",
          "name": "amount",
          "type": "uint256"
        }
      ],
      "name": "createBid",
      "outputs": [],
      "stateMutability": "nonpayable",
      "type": "function"
    },
    {
      "inputs": [
        {
          "internalType": "uint256",
          "name": "amount",
          "type": "uint256"
        }
      ],
      "name": "deposit",
      "outputs": [],
      "stateMutability": "payable",
      "type": "function"
    },
    {
      "inputs": [
        {
          "internalType": "uint256",
          "name": "tokenId",
          "type": "uint256"
        }
      ],
      "name": "getApproved",
      "outputs": [
        {
          "internalType": "address",
          "name": "",
          "type": "address"
        }
      ],
      "stateMutability": "view",
      "type": "function"
    },
    {
      "inputs": [
        {
          "internalType": "address",
          "name": "user",
          "type": "address"
        },
        {
          "internalType": "uint256",
          "name": "totalGM",
          "type": "uint256"
        }
      ],
      "name": "getMessageHash",
      "outputs": [
        {
          "internalType": "bytes32",
          "name": "",
          "type": "bytes32"
        }
      ],
      "stateMutability": "view",
      "type": "function"
    },
    {
      "inputs": [
        {
          "internalType": "string",
          "name": "name",
          "type": "string"
        },
        {
          "internalType": "string",
          "name": "symbol",
          "type": "string"
        },
        {
          "internalType": "address",
          "name": "admin",
          "type": "address"
        },
        {
          "internalType": "address",
          "name": "paramsAddress",
          "type": "address"
        },
        {
          "internalType": "address",
          "name": "randomizerAddr",
          "type": "address"
        },
        {
          "internalType": "address",
          "name": "gmToken",
          "type": "address"
        },
        {
          "internalType": "address",
          "name": "bfs",
          "type": "address"
        },
        {
          "internalType": "address",
          "name": "signerMint",
          "type": "address"
        }
      ],
      "name": "initialize",
      "outputs": [],
      "stateMutability": "nonpayable",
      "type": "function"
    },
    {
      "inputs": [
        {
          "internalType": "address",
          "name": "owner",
          "type": "address"
        },
        {
          "internalType": "address",
          "name": "operator",
          "type": "address"
        }
      ],
      "name": "isApprovedForAll",
      "outputs": [
        {
          "internalType": "bool",
          "name": "",
          "type": "bool"
        }
      ],
      "stateMutability": "view",
      "type": "function"
    },
    {
      "inputs": [
        {
          "internalType": "address",
          "name": "to",
          "type": "address"
        },
        {
          "internalType": "uint256",
          "name": "totalGM",
          "type": "uint256"
        },
        {
          "internalType": "bytes",
          "name": "signature",
          "type": "bytes"
        }
      ],
      "name": "mint",
      "outputs": [
        {
          "internalType": "uint256",
          "name": "tokenId",
          "type": "uint256"
        }
      ],
      "stateMutability": "nonpayable",
      "type": "function"
    },
    {
      "inputs": [],
      "name": "name",
      "outputs": [
        {
          "internalType": "string",
          "name": "",
          "type": "string"
        }
      ],
      "stateMutability": "view",
      "type": "function"
    },
    {
      "inputs": [],
      "name": "owner",
      "outputs": [
        {
          "internalType": "address",
          "name": "",
          "type": "address"
        }
      ],
      "stateMutability": "view",
      "type": "function"
    },
    {
      "inputs": [
        {
          "internalType": "uint256",
          "name": "tokenId",
          "type": "uint256"
        }
      ],
      "name": "ownerOf",
      "outputs": [
        {
          "internalType": "address",
          "name": "",
          "type": "address"
        }
      ],
      "stateMutability": "view",
      "type": "function"
    },
    {
      "inputs": [],
      "name": "p5jsScript",
      "outputs": [
        {
          "internalType": "string",
          "name": "result",
          "type": "string"
        }
      ],
      "stateMutability": "view",
      "type": "function"
    },
    {
      "inputs": [],
      "name": "paused",
      "outputs": [
        {
          "internalType": "bool",
          "name": "",
          "type": "bool"
        }
      ],
      "stateMutability": "view",
      "type": "function"
    },
    {
      "inputs": [],
      "name": "renounceOwnership",
      "outputs": [],
      "stateMutability": "nonpayable",
      "type": "function"
    },
    {
      "inputs": [
        {
          "internalType": "uint256",
          "name": "projectId",
          "type": "uint256"
        },
        {
          "internalType": "uint256",
          "name": "_salePrice",
          "type": "uint256"
        }
      ],
      "name": "royaltyInfo",
      "outputs": [
        {
          "internalType": "address",
          "name": "receiver",
          "type": "address"
        },
        {
          "internalType": "uint256",
          "name": "royaltyAmount",
          "type": "uint256"
        }
      ],
      "stateMutability": "view",
      "type": "function"
    },
    {
      "inputs": [
        {
          "internalType": "address",
          "name": "from",
          "type": "address"
        },
        {
          "internalType": "address",
          "name": "to",
          "type": "address"
        },
        {
          "internalType": "uint256",
          "name": "tokenId",
          "type": "uint256"
        }
      ],
      "name": "safeTransferFrom",
      "outputs": [],
      "stateMutability": "nonpayable",
      "type": "function"
    },
    {
      "inputs": [
        {
          "internalType": "address",
          "name": "from",
          "type": "address"
        },
        {
          "internalType": "address",
          "name": "to",
          "type": "address"
        },
        {
          "internalType": "uint256",
          "name": "tokenId",
          "type": "uint256"
        },
        {
          "internalType": "bytes",
          "name": "data",
          "type": "bytes"
        }
      ],
      "name": "safeTransferFrom",
      "outputs": [],
      "stateMutability": "nonpayable",
      "type": "function"
    },
    {
      "inputs": [
        {
          "internalType": "address",
          "name": "operator",
          "type": "address"
        },
        {
          "internalType": "bool",
          "name": "approved",
          "type": "bool"
        }
      ],
      "name": "setApprovalForAll",
      "outputs": [],
      "stateMutability": "nonpayable",
      "type": "function"
    },
    {
      "inputs": [
        {
          "internalType": "uint256",
          "name": "tokenId",
          "type": "uint256"
        }
      ],
      "name": "settleAuction",
      "outputs": [],
      "stateMutability": "nonpayable",
      "type": "function"
    },
    {
      "inputs": [
        {
          "internalType": "bytes4",
          "name": "interfaceId",
          "type": "bytes4"
        }
      ],
      "name": "supportsInterface",
      "outputs": [
        {
          "internalType": "bool",
          "name": "",
          "type": "bool"
        }
      ],
      "stateMutability": "view",
      "type": "function"
    },
    {
      "inputs": [],
      "name": "symbol",
      "outputs": [
        {
          "internalType": "string",
          "name": "",
          "type": "string"
        }
      ],
      "stateMutability": "view",
      "type": "function"
    },
    {
      "inputs": [
        {
          "internalType": "bytes32",
          "name": "seed",
          "type": "bytes32"
        },
        {
          "internalType": "uint256",
          "name": "tokenId",
          "type": "uint256"
        }
      ],
      "name": "tokenHTML",
      "outputs": [
        {
          "internalType": "string",
          "name": "result",
          "type": "string"
        }
      ],
      "stateMutability": "view",
      "type": "function"
    },
    {
      "inputs": [
        {
          "internalType": "uint256",
          "name": "tokenId",
          "type": "uint256"
        }
      ],
      "name": "tokenIdToHash",
      "outputs": [
        {
          "internalType": "bytes32",
          "name": "",
          "type": "bytes32"
        }
      ],
      "stateMutability": "view",
      "type": "function"
    },
    {
      "inputs": [
        {
          "internalType": "uint256",
          "name": "tokenId",
          "type": "uint256"
        }
      ],
      "name": "tokenURI",
      "outputs": [
        {
          "internalType": "string",
          "name": "result",
          "type": "string"
        }
      ],
      "stateMutability": "view",
      "type": "function"
    },
    {
      "inputs": [
        {
          "internalType": "address",
          "name": "from",
          "type": "address"
        },
        {
          "internalType": "address",
          "name": "to",
          "type": "address"
        },
        {
          "internalType": "uint256",
          "name": "tokenId",
          "type": "uint256"
        }
      ],
      "name": "transferFrom",
      "outputs": [],
      "stateMutability": "nonpayable",
      "type": "function"
    },
    {
      "inputs": [
        {
          "internalType": "address",
          "name": "newOwner",
          "type": "address"
        }
      ],
      "name": "transferOwnership",
      "outputs": [],
      "stateMutability": "nonpayable",
      "type": "function"
    },
    {
      "inputs": [
        {
          "internalType": "bytes32",
          "name": "seed",
          "type": "bytes32"
        },
        {
          "internalType": "uint256",
          "name": "tokenId",
          "type": "uint256"
        }
      ],
      "name": "variableScript",
      "outputs": [
        {
          "internalType": "string",
          "name": "result",
          "type": "string"
        }
      ],
      "stateMutability": "view",
      "type": "function"
    },
    {
      "inputs": [],
      "name": "web3Script",
      "outputs": [
        {
          "internalType": "string",
          "name": "result",
          "type": "string"
        }
      ],
      "stateMutability": "view",
      "type": "function"
    },
    {
      "inputs": [
        {
          "internalType": "address",
          "name": "erc20Addr",
          "type": "address"
        }
      ],
      "name": "withdraw",
      "outputs": [],
      "stateMutability": "nonpayable",
      "type": "function"
    }
  ],
  "bytecode": "0x608060405234801561001057600080fd5b5061671180620000216000396000f3fe6080604052600436106103765760003560e01c806374973a41116101d1578063adfc7dae11610102578063cc22e004116100a0578063f2fde38b1161006f578063f2fde38b14610bd0578063f3f83ddd14610bf0578063f50cbc8b14610c10578063febfd6c314610c3057600080fd5b8063cc22e00414610b19578063d5563f3114610b47578063e985e9c514610b67578063eb29c23214610bb057600080fd5b8063b88d4fde116100dc578063b88d4fde14610a84578063bd89684314610a9f578063c5c1b8af14610ac0578063c87b56dd14610af957600080fd5b8063adfc7dae14610a30578063b6b55f2514610a51578063b7751c7114610a6457600080fd5b806394f5a66e1161016f5780639a247cb3116101495780639a247cb31461095a5780639c6f35f9146109da578063a0d41e11146109fb578063a22cb46514610a1057600080fd5b806394f5a66e1461090557806395d89b411461092557806396e494e81461093a57600080fd5b80638da5cb5b116101ab5780638da5cb5b146108865780638f283970146108a557806393c6cdc0146108c557806394d008ef146108e557600080fd5b806374973a411461082e5780637de77ecc146108435780638a0162491461087157600080fd5b80632e993611116102ab5780635c975abb1161024957806366215eb41161022357806366215eb4146107b857806368a17bd8146107d957806370a08231146107f9578063715018a61461081957600080fd5b80635c975abb14610760578063621a1f74146107785780636352211e1461079857600080fd5b806342842e0e1161028557806342842e0e146106c1578063512c91df146106e157806351cff8d91461070157806355cd63261461072157600080fd5b80632e9936111461066057806332e323261461068057806333348979146106a057600080fd5b806317dc6bf61161031857806323b872dd116102f257806323b872dd146105b85780632824d162146105d35780632a55205a146106015780632b7d13de1461064057600080fd5b806317dc6bf61461048d5780631ca9741b1461057357806322f4596f1461059357600080fd5b806306fdde031161035457806306fdde0314610409578063081812fc1461042b578063095ea7b31461044b578063140f0e071461046d57600080fd5b806301bc45c91461037b57806301ffc9a7146103b957806306cb20c1146103e9575b600080fd5b34801561038757600080fd5b5061015f5461039c906001600160a01b031681565b6040516001600160a01b0390911681526020015b60405180910390f35b3480156103c557600080fd5b506103d96103d4366004615715565b610c50565b60405190151581526020016103b0565b3480156103f557600080fd5b5061039c610404366004615732565b610ca2565b34801561041557600080fd5b5061041e610ce8565b6040516103b091906157b6565b34801561043757600080fd5b5061039c6104463660046157c9565b610d7a565b34801561045757600080fd5b5061046b610466366004615802565b610da1565b005b34801561047957600080fd5b5061046b6104883660046158fb565b610ebc565b34801561049957600080fd5b5061050d6104a83660046157c9565b61016d60205260009081526040902080546001820154600283015460038401546004850154600586015460068701546007880154600889015460099099015497986001600160a01b0397881698969795969495841694600160a01b90940460ff16938b565b604080519b8c526001600160a01b039a8b1660208d01528b019890985260608a019690965260808901949094529590911660a0870152151560c086015260e0850193909352610100840192909252610120830191909152610140820152610160016103b0565b34801561057f57600080fd5b5061046b61058e366004615930565b610f1c565b34801561059f57600080fd5b506105aa6101665481565b6040519081526020016103b0565b3480156105c457600080fd5b5061046b61037636600461594d565b3480156105df57600080fd5b506105aa6105ee366004615930565b6101706020526000908152604090205481565b34801561060d57600080fd5b5061062161061c36600461598e565b610fb0565b604080516001600160a01b0390931683526020830191909152016103b0565b34801561064c57600080fd5b5061046b61065b366004615930565b610fe1565b34801561066c57600080fd5b5061046b61067b3660046157c9565b611076565b34801561068c57600080fd5b5061041e61069b36600461598e565b6110ae565b3480156106ac57600080fd5b506101655461039c906001600160a01b031681565b3480156106cd57600080fd5b5061046b6106dc36600461594d565b611297565b3480156106ed57600080fd5b506105aa6106fc366004615802565b6112b2565b34801561070d57600080fd5b5061046b61071c366004615930565b611310565b34801561072d57600080fd5b506105aa61073c3660046159b0565b61016f60209081526000938452604080852082529284528284209052825290205481565b34801561076c57600080fd5b5060975460ff166103d9565b34801561078457600080fd5b506105aa6107933660046157c9565b61154a565b3480156107a457600080fd5b5061039c6107b33660046157c9565b611618565b3480156107c457600080fd5b506101615461039c906001600160a01b031681565b3480156107e557600080fd5b506103d96107f43660046157c9565b611634565b34801561080557600080fd5b506105aa610814366004615930565b61165c565b34801561082557600080fd5b5061046b6116e2565b34801561083a57600080fd5b5061041e6116f6565b34801561084f57600080fd5b506105aa61085e366004615930565b61016a6020526000908152604090205481565b34801561087d57600080fd5b5061041e611950565b34801561089257600080fd5b5061012d546001600160a01b031661039c565b3480156108b157600080fd5b5061046b6108c0366004615930565b6119df565b3480156108d157600080fd5b5061046b6108e0366004615930565b611a74565b3480156108f157600080fd5b506105aa6109003660046159e9565b611b09565b34801561091157600080fd5b5061046b610920366004615a72565b611e5f565b34801561093157600080fd5b5061041e612085565b34801561094657600080fd5b506103d96109553660046157c9565b612094565b34801561096657600080fd5b5061050d6109753660046157c9565b61016e60205260009081526040902080546001820154600283015460038401546004850154600586015460068701546007880154600889015460099099015497986001600160a01b0397881698969795969495841694600160a01b90940460ff16938b565b3480156109e657600080fd5b506101645461039c906001600160a01b031681565b348015610a0757600080fd5b5061041e612180565b348015610a1c57600080fd5b5061046b610a2b366004615b52565b6123b1565b348015610a3c57600080fd5b506101605461039c906001600160a01b031681565b61046b610a5f3660046157c9565b6123bc565b348015610a7057600080fd5b5061046b610a7f36600461598e565b6126f4565b348015610a9057600080fd5b5061046b610376366004615b8b565b348015610aab57600080fd5b506101675461039c906001600160a01b031681565b348015610acc57600080fd5b506105aa610adb366004615c0b565b61016c60209081526000928352604080842090915290825290205481565b348015610b0557600080fd5b5061041e610b143660046157c9565b612c68565b348015610b2557600080fd5b506105aa610b343660046157c9565b6101696020526000908152604090205481565b348015610b5357600080fd5b5061046b610b623660046157c9565b612e2a565b348015610b7357600080fd5b506103d9610b82366004615c0b565b6001600160a01b039182166000908152606a6020908152604080832093909416825291909152205460ff1690565b348015610bbc57600080fd5b5061041e610bcb36600461598e565b612ed1565b348015610bdc57600080fd5b5061046b610beb366004615930565b612fa3565b348015610bfc57600080fd5b5061046b610c0b366004615930565b613019565b348015610c1c57600080fd5b5061046b610c2b36600461598e565b6130ae565b348015610c3c57600080fd5b5061046b610c4b366004615930565b6130cb565b60006001600160e01b031982166380ac58cd60e01b1480610c8157506001600160e01b03198216635b5e139f60e01b145b80610c9c57506301ffc9a760e01b6001600160e01b03198316145b92915050565b6101716020528260005260406000206020528160005260406000208181548110610ccb57600080fd5b6000918252602090912001546001600160a01b0316925083915050565b606060658054610cf790615c39565b80601f0160208091040260200160405190810160405280929190818152602001828054610d2390615c39565b8015610d705780601f10610d4557610100808354040283529160200191610d70565b820191906000526020600020905b815481529060010190602001808311610d5357829003601f168201915b5050505050905090565b6000610d8582613160565b506000908152606960205260409020546001600160a01b031690565b6000610dac826131b0565b9050806001600160a01b0316836001600160a01b03161415610e1f5760405162461bcd60e51b815260206004820152602160248201527f4552433732313a20617070726f76616c20746f2063757272656e74206f776e656044820152603960f91b60648201526084015b60405180910390fd5b336001600160a01b0382161480610e3b5750610e3b8133610b82565b610ead5760405162461bcd60e51b815260206004820152603d60248201527f4552433732313a20617070726f76652063616c6c6572206973206e6f7420746f60448201527f6b656e206f776e6572206f7220617070726f76656420666f7220616c6c0000006064820152608401610e16565b610eb78383613210565b505050565b61015f5460408051808201909152600381526231303160e81b6020820152906001600160a01b03163314610f035760405162461bcd60e51b8152600401610e1691906157b6565b508051610f1890610163906020840190615666565b5050565b61015f546001600160a01b031633148015610f3f57506001600160a01b03811615155b6040518060400160405280600381526020016231303160e81b81525090610f795760405162461bcd60e51b8152600401610e1691906157b6565b50610161546001600160a01b03828116911614610fad5761016180546001600160a01b0319166001600160a01b0383161790555b50565b61015f546001600160a01b03166000612710610fce846101f4615c8a565b610fd89190615ca9565b90509250929050565b61015f546001600160a01b03163314801561100457506001600160a01b03811615155b6040518060400160405280600381526020016231303160e81b8152509061103e5760405162461bcd60e51b8152600401610e1691906157b6565b50610165546001600160a01b03828116911614610fad5761016580546001600160a01b0383166001600160a01b031990911617905550565b61107e6132b9565b6110a48161108b83611618565b6001600160a01b0316336001600160a01b031614613313565b610fad600160fb55565b6040805180820190915260128152711e39b1b934b83a1034b21e93bb30b939939f60711b6020820152806110e18461394c565b6040516020016110f2929190615ccb565b60408051601f1981840301815291905261016454909150819061111d906001600160a01b0316613998565b60405160200161112e929190615d1f565b60408051808303601f19018152908290526101605463bf40fac160e01b835260206004840152602160248401527f535741505f504f4f4c5f474d5f4554485f434f4e54524143545f4144445245536044840152605360f81b60648401529092506001600160a01b031690600090829063bf40fac190608401602060405180830381865afa1580156111c3573d6000803e3d6000fd5b505050506040513d601f19601f820116820180604052508101906111e79190615d86565b9050826111f382613998565b604051602001611204929190615da3565b60405160208183030381529060405292508261121f30613998565b604051602001611230929190615e1b565b60405160208183030381529060405292508261124b856139ae565b60405160200161125c929190615e82565b60405160208183030381529060405292508260405160200161127e9190615eda565b6040516020818303038152906040529250505092915050565b610eb783838360405180602001604052806000815250600080fd5b6101675461016454604080513060208083019190915246828401526001600160a01b03948516606083015295841660808201529290911660a083015260c0808301939093528051808303909301835260e09091019052805191012090565b6113186132b9565b61015f5481906001600160a01b0316331415611428576001600160a01b0382166000908152610170602052604090205461135157600080fd5b6001600160a01b03828116600090815261017060205260409081902054905163a9059cbb60e01b815233600482015260248101919091529082169063a9059cbb906044016020604051808303816000875af11580156113b4573d6000803e3d6000fd5b505050506040513d601f19601f820116820180604052508101906113d89190615f07565b6114095760405162461bcd60e51b8152602060048201526002602482015261573160f01b6044820152606401610e16565b6001600160a01b0382166000908152610170602052604081205561153f565b33600090815261016c602090815260408083206001600160a01b038616845290915290205461145657600080fd5b33600081815261016c602090815260408083206001600160a01b03878116855292529182902054915163a9059cbb60e01b81526004810193909352602483019190915282169063a9059cbb906044016020604051808303816000875af11580156114c4573d6000803e3d6000fd5b505050506040513d601f19601f820116820180604052508101906114e89190615f07565b6115195760405162461bcd60e51b81526020600482015260026024820152612b9960f11b6044820152606401610e16565b33600090815261016c602090815260408083206001600160a01b03861684529091528120555b50610fad600160fb55565b600061155582613a4b565b6040518060400160405280600381526020016232303960e81b8152509061158f5760405162461bcd60e51b8152600401610e1691906157b6565b5060008281526101686020526040902054600160a01b900460a01b6001600160a01b0319166115c057506000919050565b600082815261016860209081526040918290205491516115fb92600160a01b900460a01b91016001600160a01b031991909116815260200190565b604051602081830303815290604052805190602001209050919050565b600090815261016860205260409020546001600160a01b031690565b600061163e613a69565b61164733613b14565b1061165457506001919050565b506000919050565b60006001600160a01b0382166116c65760405162461bcd60e51b815260206004820152602960248201527f4552433732313a2061646472657373207a65726f206973206e6f7420612076616044820152683634b21037bbb732b960b91b6064820152608401610e16565b506001600160a01b031660009081526068602052604090205490565b6116ea613b84565b6116f46000613bdf565b565b60606040518060600160405280603781526020016166a56037913961016554604080518082018252600d81526c70356a7340312e352e302e6a7360981b602082015261016054915163bf40fac160e01b81529394506001600160a01b039283169390929190911690600090829063bf40fac190611799906004016020808252600f908201526e29a1a924a82a2fa82927ab24a222a960891b604082015260600190565b602060405180830381865afa1580156117b6573d6000803e3d6000fd5b505050506040513d601f19601f820116820180604052508101906117da9190615d86565b90506000846001600160a01b031663ba67e64183866040518363ffffffff1660e01b815260040161180c929190615f24565b602060405180830381865afa158015611829573d6000803e3d6000fd5b505050506040513d601f19601f8201168201806040525081019061184d9190615f48565b905061185a600182615f61565b905060005b818110156119255761015f5460405163283959d960e21b815260009182916001600160a01b038a81169263a0e56764926118a392909116908b908890600401615f79565b600060405180830381865afa1580156118c0573d6000803e3d6000fd5b505050506040513d6000823e601f3d908101601f191682016040526118e89190810190615fdd565b9150915088826040516020016118ff929190616038565b60405160208183030381529060405298505050808061191d90616067565b91505061185f565b50856040516020016119379190615eda565b6040516020818303038152906040529550505050505090565b610163805461195e90615c39565b80601f016020809104026020016040519081016040528092919081815260200182805461198a90615c39565b80156119d75780601f106119ac576101008083540402835291602001916119d7565b820191906000526020600020905b8154815290600101906020018083116119ba57829003601f168201915b505050505081565b61015f546001600160a01b031633148015611a0257506001600160a01b03811615155b6040518060400160405280600381526020016231303160e81b81525090611a3c5760405162461bcd60e51b8152600401610e1691906157b6565b5061015f546001600160a01b03828116911614610fad5761015f80546001600160a01b0383166001600160a01b031990911617905550565b61015f546001600160a01b031633148015611a9757506001600160a01b03811615155b6040518060400160405280600381526020016231303160e81b81525090611ad15760405162461bcd60e51b8152600401610e1691906157b6565b50610164546001600160a01b03828116911614610fad5761016480546001600160a01b0383166001600160a01b031990911617905550565b6000611b136132b9565b6101665461016254106040518060400160405280600381526020016232303360e81b81525090611b565760405162461bcd60e51b8152600401610e1691906157b6565b5061015f546001600160a01b03163314611c9657336001600160a01b03861614611baa5760405162461bcd60e51b815260206004820152600560248201526447505f495560d81b6044820152606401610e16565b611bb38561165c565b15611be65760405162461bcd60e51b8152602060048201526003602482015262312d3160e81b6044820152606401610e16565b6001600160a01b038516600090815261016a602052604090205415611c315760405162461bcd60e51b81526020600482015260016024820152604d60f81b6044820152606401610e16565b611c72858585858080601f016020809104026020016040519081016040528093929190818152602001838380828437600092019190915250613c3292505050565b50506001600160a01b038516600090815261016a6020526040902060019055611d92565b61015f546001600160a01b0386811691161415611cdd5760405162461bcd60e51b815260206004820152600560248201526447505f495560d81b6044820152606401610e16565b6001600160a01b0385163014611d9257611cf68561165c565b15611d295760405162461bcd60e51b8152602060048201526003602482015262312d3160e81b6044820152606401610e16565b6001600160a01b038516600090815261016a602052604090205415611d745760405162461bcd60e51b81526020600482015260016024820152604d60f81b6044820152606401610e16565b6001600160a01b038516600090815261016a60205260409020600190555b6101628054906000611da383616067565b9190505550610162549050611db88582613cab565b61016154604051631da00d8560e01b8152600481018390526001600160a01b03909116906000908290631da00d85906024016020604051808303816000875af1158015611e09573d6000803e3d6000fd5b505050506040513d601f19601f82011682018060405250810190611e2d9190615f48565b9050611e398382613cc5565b5050600081815261016960205260409020439055611e57600160fb55565b949350505050565b600054610100900460ff1615808015611e7f5750600054600160ff909116105b80611e995750303b158015611e99575060005460ff166001145b611efc5760405162461bcd60e51b815260206004820152602e60248201527f496e697469616c697a61626c653a20636f6e747261637420697320616c72656160448201526d191e481a5b9a5d1a585b1a5e995960921b6064820152608401610e16565b6000805460ff191660011790558015611f1f576000805461ff0019166101001790555b60408051808201909152600381526203130360ec1b60208201526001600160a01b038816611f605760405162461bcd60e51b8152600401610e1691906157b6565b5060408051808201909152600381526203130360ec1b60208201526001600160a01b038716611fa25760405162461bcd60e51b8152600401610e1691906157b6565b5061016080546001600160a01b03199081166001600160a01b038981169190911790925561015f805482168a841617905561016180548216888416179055610164805482168784161790556103e86101665561016580548216868416179055610167805490911691841691909117905561201c8989613d90565b612024613dc1565b61202c613df0565b612034613e1f565b801561207a576000805461ff0019169055604051600181527f7f26b83ff96e1f2b6a682f133852f6798a09c465da95921460cefb38474024989060200160405180910390a15b505050505050505050565b606060668054610cf790615c39565b600061209f82613a4b565b6120ab57506000919050565b6120b3613e4e565b600083815261016960205260409020546120cd9043616082565b116120da57506000919050565b61015f546001600160a01b03166120f083611618565b6001600160a01b0316141561210757506000919050565b3061211183611618565b6001600160a01b0316141561214a57600082815261016d6020526040902060050154600160a01b900460ff161561214a57506001919050565b6000612154613a69565b90508061216861216385611618565b613b14565b10156121775750600192915050565b50600092915050565b60606040518060600160405280603781526020016166a56037913961016554604080518082018252600f81526e776562336a7340312e322e372e6a7360881b602082015261016054915163bf40fac160e01b81529394506001600160a01b039283169390929190911690600090829063bf40fac190612225906004016020808252600f908201526e29a1a924a82a2fa82927ab24a222a960891b604082015260600190565b602060405180830381865afa158015612242573d6000803e3d6000fd5b505050506040513d601f19601f820116820180604052508101906122669190615d86565b90506000846001600160a01b031663ba67e64183866040518363ffffffff1660e01b8152600401612298929190615f24565b602060405180830381865afa1580156122b5573d6000803e3d6000fd5b505050506040513d601f19601f820116820180604052508101906122d99190615f48565b90506122e6600182615f61565b905060005b818110156119255761015f5460405163283959d960e21b815260009182916001600160a01b038a81169263a0e567649261232f92909116908b908890600401615f79565b600060405180830381865afa15801561234c573d6000803e3d6000fd5b505050506040513d6000823e601f3d908101601f191682016040526123749190810190615fdd565b91509150888260405160200161238b929190616038565b6040516020818303038152906040529850505080806123a990616067565b9150506122eb565b610f18338383613ef0565b6123c46132b9565b6101605460405163bf40fac160e01b815260206004820152601860248201527729a7aaa62fa0aaa1aa24a7a72fa2a92199182faa27a5a2a760411b60448201526000916001600160a01b03169063bf40fac190606401602060405180830381865afa158015612437573d6000803e3d6000fd5b505050506040513d601f19601f8201168201806040525081019061245b9190615d86565b90506001600160a01b03811661247a5750610164546001600160a01b03165b604051636eb1769f60e11b8152336004820152306024820152819083906001600160a01b0383169063dd62ed3e90604401602060405180830381865afa1580156124c8573d6000803e3d6000fd5b505050506040513d601f19601f820116820180604052508101906124ec9190615f48565b101561253a5760405162461bcd60e51b815260206004820152601c60248201527f6e6f7420656e6f75676820616c6c6f7720657263323020746f6b656e000000006044820152606401610e16565b6040516370a0823160e01b815233600482015283906001600160a01b038316906370a0823190602401602060405180830381865afa158015612580573d6000803e3d6000fd5b505050506040513d601f19601f820116820180604052508101906125a49190615f48565b10156125eb5760405162461bcd60e51b81526020600482015260166024820152753737ba1032b737bab3b41032b9319918103a37b5b2b760511b6044820152606401610e16565b6040516323b872dd60e01b8152336004820152306024820152604481018490526001600160a01b038216906323b872dd906064016020604051808303816000875af115801561263e573d6000803e3d6000fd5b505050506040513d601f19601f820116820180604052508101906126629190615f07565b6126ae5760405162461bcd60e51b815260206004820152601d60248201527f63616e206e6f74206765742065726332302066726f6d206269646465720000006044820152606401610e16565b33600090815261016c602090815260408083206001600160a01b0386168452909152812080548592906126e2908490615f61565b9091555050600160fb5550610fad9050565b6126fc6132b9565b61270582611634565b61273a5760405162461bcd60e51b8152600401610e169060208082526004908201526304e5f43360e41b604082015260600190565b6127433361165c565b156127795760405162461bcd60e51b8152602060048201526006602482015265272fa1982f9960d11b6044820152606401610e16565b600082815261016f6020908152604080832061016d835281842060090154845282528083203384529091529020546127ee5760008281526101716020908152604080832061016d835281842060090154845282528220805460018101825590835291200180546001600160a01b031916331790555b600082815261016d60205260409020600181015490546001600160a01b039091169083146128535760405162461bcd60e51b81526020600482015260126024820152713737ba103ab8103337b91030bab1ba34b7b760711b6044820152606401610e16565b600083815261016d602052604090206004015443106128a65760405162461bcd60e51b815260206004820152600f60248201526e105d58dd1a5bdb88195e1c1a5c9959608a1b6044820152606401610e16565b33600090815261016c6020908152604080832086845261016d8352818420600101546001600160a01b031684529091529020548211156129285760405162461bcd60e51b815260206004820152601e60248201527f6e6f7420656e6f7567682062616c616e636520657263323020746f6b656e00006044820152606401610e16565b600083815261016f6020908152604080832061016d83528184206009015484528252808320338452909152812054906129618285615f61565b600086815261016d602052604090206007015490915081116129c55760405162461bcd60e51b815260206004820152601f60248201527f4d7573742073656e64206174206c6561737420726573657276655072696365006044820152606401610e16565b600085815261016d6020526040902060088101546002909101546064916129eb91615c8a565b6129f59190615ca9565b600086815261016d6020526040902060020154612a129190615f61565b8111612a88576040805162461bcd60e51b81526020600482015260248101919091527f4d7573742073656e64206d6f7265207468616e206c617374206269642062792060448201527f6d696e426964496e6372656d656e7450657263656e7461676520616d6f756e746064820152608401610e16565b33600090815261016c6020908152604080832088845261016d8352818420600101546001600160a01b0316845290915281208054869290612aca908490616082565b9091555050600085815261016f6020908152604080832061016d8084528285206009810180548752928552838620338088529086528487208890556002808301899055600580840180546001600160a01b0319908116909417815586548a5261016e8952878a209092018a905590549454885294872090940180549094166001600160a01b039093169290921790925588845291526006810154600490910154612b75904390616082565b1090508015612baf57600086815261016d6020526040902060060154612b9b9043615f61565b600087815261016d60205260409020600401555b600086815261016d602052604090819020805491517ffd09e259e5c48be16f7dd63468e19266c684a9f3dce3b31881dbc1f909fc0d7c91612bf69133918a9187919061612f565b60405180910390a28015612c5457600086815261016d60205260409081902080546004820154925190927f4c1666cb87ed4fd7706cb19b1e3160612601aca7235c307fe64a11bc8db0f41f92612c4b92616165565b60405180910390a25b50505050610f18600160fb55565b50505050565b6060612c7382613a4b565b6040518060400160405280600381526020016232303960e81b81525090612cad5760405162461bcd60e51b8152600401610e1691906157b6565b5060405163188687dd60e21b815260048101839052600090309063621a1f7490602401602060405180830381865afa158015612ced573d6000803e3d6000fd5b505050506040513d601f19601f82011682018060405250810190612d119190615f48565b61016054604051637594e11960e11b815260048101839052602481018690529192506001600160a01b031690600090309063eb29c23290604401600060405180830381865afa158015612d68573d6000803e3d6000fd5b505050506040513d6000823e601f3d908101601f19168201604052612d90919081019061617a565b9050612dba81604051602001612da691906161c3565b604051602081830303815290604052613fbf565b604051602001612dca91906161df565b6040516020818303038152906040529050600081604051602001612dee919061621d565b604051602081830303815290604052905080604051602001612e109190616264565b604051602081830303815290604052945050505050919050565b612e326132b9565b612e3b81612094565b612e705760405162461bcd60e51b8152600401610e169060208082526004908201526304e5f43360e41b604082015260600190565b612e78613e4e565b60008281526101696020526040902054612e929043616082565b11612ec85760405162461bcd60e51b81526020600482015260066024820152654e5f43305f3360d01b6044820152606401610e16565b6110a481614125565b60408051808201909152600c81526b1e343a36b61f1e3432b0b21f60a11b602082015280612efd6116f6565b604051602001612f0e929190616038565b604051602081830303815290604052905080612f28612180565b604051602001612f39929190616038565b604051602081830303815290604052905080612f5584846110ae565b604051602001612f66929190616038565b604051602081830303815290604052905080610163604051602001612f8c9291906162e6565b604051602081830303815290604052905092915050565b612fab613b84565b6001600160a01b0381166130105760405162461bcd60e51b815260206004820152602660248201527f4f776e61626c653a206e6577206f776e657220697320746865207a65726f206160448201526564647265737360d01b6064820152608401610e16565b610fad81613bdf565b61015f546001600160a01b03163314801561303c57506001600160a01b03811615155b6040518060400160405280600381526020016231303160e81b815250906130765760405162461bcd60e51b8152600401610e1691906157b6565b50610167546001600160a01b03828116911614610fad5761016780546001600160a01b0383166001600160a01b031990911617905550565b6130b66132b9565b6130c13383836147d9565b610f18600160fb55565b61015f546001600160a01b0316331480156130ee57506001600160a01b03811615155b6040518060400160405280600381526020016231303160e81b815250906131285760405162461bcd60e51b8152600401610e1691906157b6565b50610160546001600160a01b03828116911614610fad5761016080546001600160a01b0383166001600160a01b031990911617905550565b61316981613a4b565b610fad5760405162461bcd60e51b8152602060048201526018602482015277115490cdcc8c4e881a5b9d985b1a59081d1bdad95b88125160421b6044820152606401610e16565b6000818152606760205260408120546001600160a01b031680610c9c5760405162461bcd60e51b8152602060048201526018602482015277115490cdcc8c4e881a5b9d985b1a59081d1bdad95b88125160421b6044820152606401610e16565b600081815260696020526040902080546001600160a01b0319166001600160a01b0384169081179091558190613245826131b0565b6001600160a01b03167f8c5be1e5ebec7d5bd14f71427d1e84f3dd0314c0f7b2291e5b200ac8c7c3b92560405160405180910390a45050565b613289838383614964565b60009081526101686020526040902080546001600160a01b0319166001600160a01b039290921691909117905550565b600260fb54141561330c5760405162461bcd60e51b815260206004820152601f60248201527f5265656e7472616e637947756172643a207265656e7472616e742063616c6c006044820152606401610e16565b600260fb55565b600082815261016d60205260409020600301546133695760405162461bcd60e51b815260206004820152601460248201527320bab1ba34b7b7103430b9b713ba103132b3bab760611b6044820152606401610e16565b600082815261016d6020526040902060050154600160a01b900460ff16156133d35760405162461bcd60e51b815260206004820181905260248201527f41756374696f6e2068617320616c7265616479206265656e20736574746c65646044820152606401610e16565b600082815261016d60205260409020600401544310156134355760405162461bcd60e51b815260206004820152601860248201527f41756374696f6e206861736e277420636f6d706c6574656400000000000000006044820152606401610e16565b600082815261016d6020818152604080842060058082018054600160a01b60ff60a01b1991821681178355600990940154885261016e865293872090910180549093169091179091559285905252546001600160a01b03161561358057600082815261016d60205260409020600501546134b7906001600160a01b031661165c565b6134ed57600082815261016d60205260409020600581015490546134e89130916001600160a01b039091169061327e565b613580565b600082815261016d60209081526040808320600281015460058201546001600160a01b03908116865261016c85528386206001909301541685529252822080549192909161353c908490615f61565b9091555050600082815261016f6020908152604080832061016d8352818420600981015485529083528184206005909101546001600160a01b031684529091528120555b600082815261016d60205260409020600201541561379f576101605460405163bf40fac160e01b815260206004820152601c60248201527f534f554c5f41554354494f4e5f474d5f44414f5f54726561737572790000000060448201526000916001600160a01b03169063bf40fac190606401602060405180830381865afa158015613610573d6000803e3d6000fd5b505050506040513d601f19601f820116820180604052508101906136349190615d86565b90506001600160a01b03811661364957600080fd5b600083815261016d60205260408120600201546127109061366c906103e8615c8a565b6136769190615ca9565b600085815261016d6020526040902060018101546002909101549192506001600160a01b03169063a9059cbb9084906136b0908590616082565b6040516001600160e01b031960e085901b1681526001600160a01b03909216600483015260248201526044016020604051808303816000875af11580156136fb573d6000803e3d6000fd5b505050506040513d601f19601f8201168201806040525081019061371f9190615f07565b50600084815261016d60209081526040808320600101546001600160a01b0316835261017090915281208054839290613759908490615f61565b909155505050600083815261016f6020908152604080832061016d8352818420600981015485529083528184206005909101546001600160a01b03168452909152812055505b60008281526101716020908152604080832061016d8352818420600901548452909152902054156138e15760005b60008381526101716020908152604080832061016d83528184206009015484529091529020548110156138df57600083815261016d60209081526040808320600581015461017184528285206009909201548552925290912080546001600160a01b03909216918390811061384457613844616397565b6000918252602090912001546001600160a01b0316146138cd5760008381526101716020908152604080832061016d8352818420600901548452909152902080546138cd91908390811061389a5761389a616397565b600091825260208083209091015486835261016d9091526040909120600901546001600160a01b039091169085906147d9565b806138d781616067565b9150506137cd565b505b600082815261016d602052604090819020805460058201546002830154935191937f727cff623966c8adc61ac68940e8c898c04ff7ced5d69d9735d51f0589daf53293613939936001600160a01b03909316926163ad565b60405180910390a25050565b600160fb55565b606061395782614ad5565b613964608084901b614ad5565b60405161060f60f31b6020820152602281019290925260428201526062016040516020818303038152906040529050919050565b6060610c9c6001600160a01b0383166014614c87565b606060006139bb83614e2a565b600101905060008167ffffffffffffffff8111156139db576139db61582e565b6040519080825280601f01601f191660200182016040528015613a05576020820181803683370190505b5090508181016020015b600019016f181899199a1a9b1b9c1cb0b131b232b360811b600a86061a8153600a8504945084613a3e57613a43565b613a0f565b509392505050565b600090815261016860205260409020546001600160a01b0316151590565b61016054604051636d12dce160e01b815260206004820152601160248201527014d3d55317d1d357d512149154d213d311607a1b604482015260009182916001600160a01b0390911690636d12dce190606401602060405180830381865afa158015613ad9573d6000803e3d6000fd5b505050506040513d601f19601f82011682018060405250810190613afd9190615f48565b905080613b0f5750670de0b6b3a76400005b919050565b610164546040516370a0823160e01b81526001600160a01b03838116600483015260009216906370a0823190602401602060405180830381865afa158015613b60573d6000803e3d6000fd5b505050506040513d601f19601f82011682018060405250810190610c9c9190615f48565b61012d546001600160a01b031633146116f45760405162461bcd60e51b815260206004820181905260248201527f4f776e61626c653a2063616c6c6572206973206e6f7420746865206f776e65726044820152606401610e16565b61012d80546001600160a01b038381166001600160a01b0319831681179093556040519116919082907f8be0079c531659141344cd1fd0a4f28419497f9722a3daafe3b4186f6b6457e090600090a35050565b6000806000613c4186866112b2565b90506000613c57613c5183614f02565b86614f3d565b610167549091506001600160a01b03808316911614613ca05760405162461bcd60e51b815260206004820152600560248201526447505f4e4160d81b6044820152606401610e16565b969095509350505050565b610f18828260405180602001604052806000815250614f59565b60008281526101686020908152604091829020548251808401909352600383526219181b60e91b91830191909152600160a01b900460a01b6001600160a01b03191615613d255760405162461bcd60e51b8152600401610e1691906157b6565b5060408051808201909152600381526232303760e81b602082015281613d5e5760405162461bcd60e51b8152600401610e1691906157b6565b5060009182526101686020526040909120805460a09290921c600160a01b026001600160a01b03909216919091179055565b600054610100900460ff16613db75760405162461bcd60e51b8152600401610e16906163d2565b610f188282614f8c565b600054610100900460ff16613de85760405162461bcd60e51b8152600401610e16906163d2565b6116f4614fda565b600054610100900460ff16613e175760405162461bcd60e51b8152600401610e16906163d2565b6116f4615001565b600054610100900460ff16613e465760405162461bcd60e51b8152600401610e16906163d2565b6116f4615034565b61016054604051636d12dce160e01b815260206004820152600f60248201526e534f554c5f474d5f5245534552564560881b604482015260009182916001600160a01b0390911690636d12dce190606401602060405180830381865afa158015613ebc573d6000803e3d6000fd5b505050506040513d601f19601f82011682018060405250810190613ee09190615f48565b905080613b0f57506103f0919050565b816001600160a01b0316836001600160a01b03161415613f525760405162461bcd60e51b815260206004820152601960248201527f4552433732313a20617070726f766520746f2063616c6c6572000000000000006044820152606401610e16565b6001600160a01b038381166000818152606a6020908152604080832094871680845294825291829020805460ff191686151590811790915591519182527f17307eab39ab6107e8899845ad3d59bd9653f200f220920489ca2b5937696c31910160405180910390a3505050565b6060815160001415613fdf57505060408051602081019091526000815290565b6000604051806060016040528060408152602001616665604091399050600060038451600261400e9190615f61565b6140189190615ca9565b614023906004615c8a565b90506000614032826020615f61565b67ffffffffffffffff81111561404a5761404a61582e565b6040519080825280601f01601f191660200182016040528015614074576020820181803683370190505b509050818152600183018586518101602084015b818310156140e0576003830192508251603f8160121c168501518253600182019150603f81600c1c168501518253600182019150603f8160061c168501518253600182019150603f8116850151825350600101614088565b6003895106600181146140fa576002811461410b57614117565b613d3d60f01b600119830152614117565b603d60f81b6000198301525b509398975050505050505050565b61412e81613a4b565b61413757600080fd5b600081815261016d6020526040902060050154600160a01b900460ff168061416c5750600081815261016d6020526040902054155b6141de5760405162461bcd60e51b815260206004820152603860248201527f41756374696f6e2068617320616c7265616479206265656e20736574746c656460448201527f206f72203173742041756374696f6e206f6620746f6b656e00000000000000006064820152608401610e16565b4360006141e9613e4e565b6141f39083615f61565b610160805460408051928301815260006020808501829052848301829052606085018290526080850182905260a0850182905260c0850182905260e0850182905261010085018290526101208501829052610140850191909152878452905163bf40fac160e01b81526004810191909152601860248201527729a7aaa62fa0aaa1aa24a7a72fa2a92199182faa27a5a2a760411b60448201529293506001600160a01b031691829063bf40fac190606401602060405180830381865afa1580156142c1573d6000803e3d6000fd5b505050506040513d601f19601f820116820180604052508101906142e59190615d86565b6001600160a01b03166020820181905261430c57610164546001600160a01b031660208201525b60006040828101829052606083018690526080830185905260a0830182905260c083019190915251636d12dce160e01b815260206004820152601860248201527f534f554c5f41554354494f4e5f54494d455f425546464552000000000000000060448201526001600160a01b03831690636d12dce190606401602060405180830381865afa1580156143a3573d6000803e3d6000fd5b505050506040513d601f19601f820116820180604052508101906143c79190615f48565b60e0820152604051636d12dce160e01b815260206004820152601a60248201527f534f554c5f41554354494f4e5f524553455256455f505249434500000000000060448201526001600160a01b03831690636d12dce190606401602060405180830381865afa15801561443e573d6000803e3d6000fd5b505050506040513d601f19601f820116820180604052508101906144629190615f48565b610100820152604051636d12dce160e01b815260206004820152602560248201527f534f554c5f41554354494f4e5f4d494e5f4249445f494e4352454153455f50456044820152641490d1539560da1b60648201526001600160a01b03831690636d12dce190608401602060405180830381865afa1580156144e8573d6000803e3d6000fd5b505050506040513d601f19601f8201168201806040525081019061450c9190615f48565b61012082015261016b805490600061452383616067565b919050555061453461016b546139ae565b61454182606001516139ae565b61454e83608001516139ae565b614557886139ae565b60405160200161456a949392919061646f565b60405160208183030381529060405280519060200120816101400181815250508061016d60008781526020019081526020016000206000820151816000015560208201518160010160006101000a8154816001600160a01b0302191690836001600160a01b0316021790555060408201518160020155606082015181600301556080820151816004015560a08201518160050160006101000a8154816001600160a01b0302191690836001600160a01b0316021790555060c08201518160050160146101000a81548160ff02191690831515021790555060e082015181600601556101008201518160070155610120820151816008015561014082015181600901559050508061016e600083610140015181526020019081526020016000206000820151816000015560208201518160010160006101000a8154816001600160a01b0302191690836001600160a01b0316021790555060408201518160020155606082015181600301556080820151816004015560a08201518160050160006101000a8154816001600160a01b0302191690836001600160a01b0316021790555060c08201518160050160146101000a81548160ff02191690831515021790555060e08201518160060155610100820151816007015561012082015181600801556101408201518160090155905050306001600160a01b031661476c86611618565b6001600160a01b03161461478d5761478d61478686611618565b308761327e565b847fb404e07dbfe9071da655c32567071b2ee4e88867784a1b39f01a8457787e504f858533856101400151866040516147ca9594939291906164c6565b60405180910390a25050505050565b600081815261016e6020526040902060050154600160a01b900460ff166147ff57600080fd5b600081815261016e60205260409020600501546001600160a01b038481169116141561482a57600080fd5b600082815261016f6020908152604080832084845282528083206001600160a01b038716845290915290205461485f57600080fd5b600082815261016f6020908152604080832084845282528083206001600160a01b0387168085529083529281902054815193845291830191909152810182905282907f3efeb5ca9b10c05ba2df4bcac38445e4a4e8a996887f004e5036d254c14a98649060600160405180910390a2600082815261016f6020908152604080832084845282528083206001600160a01b0380881685529083528184205461016c845282852086865261016e85528386206001015490921685529252822080549192909161492d908490615f61565b9091555050600091825261016f602090815260408084209284529181528183206001600160a01b0390941683529290925290812055565b826001600160a01b0316614977826131b0565b6001600160a01b03161461499d5760405162461bcd60e51b8152600401610e1690616598565b6001600160a01b0382166149ff5760405162461bcd60e51b8152602060048201526024808201527f4552433732313a207472616e7366657220746f20746865207a65726f206164646044820152637265737360e01b6064820152608401610e16565b614a0c838383600161515f565b826001600160a01b0316614a1f826131b0565b6001600160a01b031614614a455760405162461bcd60e51b8152600401610e1690616598565b600081815260696020908152604080832080546001600160a01b03199081169091556001600160a01b0387811680865260688552838620805460001901905590871680865283862080546001019055868652606790945282852080549092168417909155905184937fddf252ad1be2c89b69c2b068fc378daa952ba7f163c4a11628f55a4df523b3ef91a4505050565b7aff00000000000000ff00000000000000ff00000000000000ff00006bffffffff0000000000000000604083901c90811663ffffffff60c01b84161760201c63ffffffff60601b919091166001600160e01b031984161717601081901c9182167eff00000000000000ff00000000000000ff00000000000000ff000000000000821617600890811c7bff00000000000000ff00000000000000ff00000000000000ff000000939093167fff00000000000000ff00000000000000ff00000000000000ff000000000000009290921691909117919091179081901c7e0f000f000f000f000f000f000f000f000f000f000f000f000f000f000f000f167f0f000f000f000f000f000f000f000f000f000f000f000f000f000f000f000f00600492831c161790614c23827f0606060606060606060606060606060606060606060606060606060606060606615f61565b901c7f0f0f0f0f0f0f0f0f0f0f0f0f0f0f0f0f0f0f0f0f0f0f0f0f0f0f0f0f0f0f0f0f166007614c539190615c8a565b614c7d827f3030303030303030303030303030303030303030303030303030303030303030615f61565b610c9c9190615f61565b60606000614c96836002615c8a565b614ca1906002615f61565b67ffffffffffffffff811115614cb957614cb961582e565b6040519080825280601f01601f191660200182016040528015614ce3576020820181803683370190505b509050600360fc1b81600081518110614cfe57614cfe616397565b60200101906001600160f81b031916908160001a905350600f60fb1b81600181518110614d2d57614d2d616397565b60200101906001600160f81b031916908160001a9053506000614d51846002615c8a565b614d5c906001615f61565b90505b6001811115614dd4576f181899199a1a9b1b9c1cb0b131b232b360811b85600f1660108110614d9057614d90616397565b1a60f81b828281518110614da657614da6616397565b60200101906001600160f81b031916908160001a90535060049490941c93614dcd816165dd565b9050614d5f565b508315614e235760405162461bcd60e51b815260206004820181905260248201527f537472696e67733a20686578206c656e67746820696e73756666696369656e746044820152606401610e16565b9392505050565b60008072184f03e93ff9f4daa797ed6e38ed64bf6a1f0160401b8310614e695772184f03e93ff9f4daa797ed6e38ed64bf6a1f0160401b830492506040015b6d04ee2d6d415b85acef81000000008310614e95576d04ee2d6d415b85acef8100000000830492506020015b662386f26fc100008310614eb357662386f26fc10000830492506010015b6305f5e1008310614ecb576305f5e100830492506008015b6127108310614edf57612710830492506004015b60648310614ef1576064830492506002015b600a8310610c9c5760010192915050565b6040517f19457468657265756d205369676e6564204d6573736167653a0a3332000000006020820152603c8101829052600090605c016115fb565b6000806000614f4c85856151d2565b91509150613a4381615218565b614f638383615366565b614f706000848484615064565b610eb75760405162461bcd60e51b8152600401610e169061641d565b600054610100900460ff16614fb35760405162461bcd60e51b8152600401610e16906163d2565b8151614fc6906065906020850190615666565b508051610eb7906066906020840190615666565b600054610100900460ff166139455760405162461bcd60e51b8152600401610e16906163d2565b600054610100900460ff166150285760405162461bcd60e51b8152600401610e16906163d2565b6097805460ff19169055565b600054610100900460ff1661505b5760405162461bcd60e51b8152600401610e16906163d2565b6116f433613bdf565b60006001600160a01b0384163b1561515757604051630a85bd0160e11b81526001600160a01b0385169063150b7a02906150a89033908990889088906004016165f4565b6020604051808303816000875af19250505080156150e3575060408051601f3d908101601f191682019092526150e091810190616631565b60015b61513d573d808015615111576040519150601f19603f3d011682016040523d82523d6000602084013e615116565b606091505b5080516151355760405162461bcd60e51b8152600401610e169061641d565b805181602001fd5b6001600160e01b031916630a85bd0160e11b149050611e57565b506001611e57565b61516b8484848461539f565b60975460ff1615612c625760405162461bcd60e51b815260206004820152602b60248201527f4552433732315061757361626c653a20746f6b656e207472616e73666572207760448201526a1a1a5b19481c185d5cd95960aa1b6064820152608401610e16565b6000808251604114156152095760208301516040840151606085015160001a6151fd87828585615427565b94509450505050615211565b506000905060025b9250929050565b600081600481111561522c5761522c61664e565b14156152355750565b60018160048111156152495761524961664e565b14156152975760405162461bcd60e51b815260206004820152601860248201527f45434453413a20696e76616c6964207369676e617475726500000000000000006044820152606401610e16565b60028160048111156152ab576152ab61664e565b14156152f95760405162461bcd60e51b815260206004820152601f60248201527f45434453413a20696e76616c6964207369676e6174757265206c656e677468006044820152606401610e16565b600381600481111561530d5761530d61664e565b1415610fad5760405162461bcd60e51b815260206004820152602260248201527f45434453413a20696e76616c6964207369676e6174757265202773272076616c604482015261756560f01b6064820152608401610e16565b61537082826154eb565b60009081526101686020526040902080546001600160a01b0319166001600160a01b0392909216919091179055565b6001811115612c62576001600160a01b038416156153e5576001600160a01b038416600090815260686020526040812080548392906153df908490616082565b90915550505b6001600160a01b03831615612c62576001600160a01b0383166000908152606860205260408120805483929061541c908490615f61565b909155505050505050565b6000807f7fffffffffffffffffffffffffffffff5d576e7357a4501ddfe92f46681b20a083111561545e57506000905060036154e2565b6040805160008082526020820180845289905260ff881692820192909252606081018690526080810185905260019060a0016020604051602081039080840390855afa1580156154b2573d6000803e3d6000fd5b5050604051601f1901519150506001600160a01b0381166154db576000600192509250506154e2565b9150600090505b94509492505050565b6001600160a01b0382166155415760405162461bcd60e51b815260206004820181905260248201527f4552433732313a206d696e7420746f20746865207a65726f20616464726573736044820152606401610e16565b61554a81613a4b565b156155975760405162461bcd60e51b815260206004820152601c60248201527f4552433732313a20746f6b656e20616c7265616479206d696e746564000000006044820152606401610e16565b6155a560008383600161515f565b6155ae81613a4b565b156155fb5760405162461bcd60e51b815260206004820152601c60248201527f4552433732313a20746f6b656e20616c7265616479206d696e746564000000006044820152606401610e16565b6001600160a01b038216600081815260686020908152604080832080546001019055848352606790915280822080546001600160a01b0319168417905551839291907fddf252ad1be2c89b69c2b068fc378daa952ba7f163c4a11628f55a4df523b3ef908290a45050565b82805461567290615c39565b90600052602060002090601f01602090048101928261569457600085556156da565b82601f106156ad57805160ff19168380011785556156da565b828001600101855582156156da579182015b828111156156da5782518255916020019190600101906156bf565b506156e69291506156ea565b5090565b5b808211156156e657600081556001016156eb565b6001600160e01b031981168114610fad57600080fd5b60006020828403121561572757600080fd5b8135614e23816156ff565b60008060006060848603121561574757600080fd5b505081359360208301359350604090920135919050565b60005b83811015615779578181015183820152602001615761565b83811115612c625750506000910152565b600081518084526157a281602086016020860161575e565b601f01601f19169290920160200192915050565b602081526000614e23602083018461578a565b6000602082840312156157db57600080fd5b5035919050565b6001600160a01b0381168114610fad57600080fd5b8035613b0f816157e2565b6000806040838503121561581557600080fd5b8235615820816157e2565b946020939093013593505050565b634e487b7160e01b600052604160045260246000fd5b604051601f8201601f1916810167ffffffffffffffff8111828210171561586d5761586d61582e565b604052919050565b600067ffffffffffffffff82111561588f5761588f61582e565b50601f01601f191660200190565b60006158b06158ab84615875565b615844565b90508281528383830111156158c457600080fd5b828260208301376000602084830101529392505050565b600082601f8301126158ec57600080fd5b614e238383356020850161589d565b60006020828403121561590d57600080fd5b813567ffffffffffffffff81111561592457600080fd5b611e57848285016158db565b60006020828403121561594257600080fd5b8135614e23816157e2565b60008060006060848603121561596257600080fd5b833561596d816157e2565b9250602084013561597d816157e2565b929592945050506040919091013590565b600080604083850312156159a157600080fd5b50508035926020909101359150565b6000806000606084860312156159c557600080fd5b833592506020840135915060408401356159de816157e2565b809150509250925092565b600080600080606085870312156159ff57600080fd5b8435615a0a816157e2565b935060208501359250604085013567ffffffffffffffff80821115615a2e57600080fd5b818701915087601f830112615a4257600080fd5b813581811115615a5157600080fd5b886020828501011115615a6357600080fd5b95989497505060200194505050565b600080600080600080600080610100898b031215615a8f57600080fd5b883567ffffffffffffffff80821115615aa757600080fd5b615ab38c838d016158db565b995060208b0135915080821115615ac957600080fd5b50615ad68b828c016158db565b9750506040890135615ae7816157e2565b95506060890135615af7816157e2565b94506080890135615b07816157e2565b935060a0890135615b17816157e2565b925060c0890135615b27816157e2565b9150615b3560e08a016157f7565b90509295985092959890939650565b8015158114610fad57600080fd5b60008060408385031215615b6557600080fd5b8235615b70816157e2565b91506020830135615b8081615b44565b809150509250929050565b60008060008060808587031215615ba157600080fd5b8435615bac816157e2565b93506020850135615bbc816157e2565b925060408501359150606085013567ffffffffffffffff811115615bdf57600080fd5b8501601f81018713615bf057600080fd5b615bff8782356020840161589d565b91505092959194509250565b60008060408385031215615c1e57600080fd5b8235615c29816157e2565b91506020830135615b80816157e2565b600181811c90821680615c4d57607f821691505b60208210811415615c6e57634e487b7160e01b600052602260045260246000fd5b50919050565b634e487b7160e01b600052601160045260246000fd5b6000816000190483118215151615615ca457615ca4615c74565b500290565b600082615cc657634e487b7160e01b600052601260045260246000fd5b500490565b60008351615cdd81846020880161575e565b696c657420736565643d2760b01b9083019081528351615d0481600a84016020880161575e565b61273b60f01b600a9290910191820152600c01949350505050565b60008351615d3181846020880161575e565b7f6c657420474d5f434f4e54524143545f414444524553533d27000000000000009083019081528351615d6b81601984016020880161575e565b61273b60f01b60199290910191820152601b01949350505050565b600060208284031215615d9857600080fd5b8151614e23816157e2565b60008351615db581846020880161575e565b80830190507f6c657420535741505f504f4f4c5f474d5f4554485f434f4e54524143545f414481526644524553533d2760c81b60208201528351615e0081602784016020880161575e565b61273b60f01b60279290910191820152602901949350505050565b60008351615e2d81846020880161575e565b7f6c657420736f6c617269734e6674436f6e7472616374416464726573733d27009083019081528351615e6781601f84016020880161575e565b61273b60f01b601f9290910191820152602101949350505050565b60008351615e9481846020880161575e565b6d6c657420544f4b454e5f49443d2760901b9083019081528351615ebf81600e84016020880161575e565b61273b60f01b600e9290910191820152601001949350505050565b60008251615eec81846020870161575e565b681e17b9b1b934b83a1f60b91b920191825250600901919050565b600060208284031215615f1957600080fd5b8151614e2381615b44565b6001600160a01b0383168152604060208201819052600090611e579083018461578a565b600060208284031215615f5a57600080fd5b5051919050565b60008219821115615f7457615f74615c74565b500190565b6001600160a01b0384168152606060208201819052600090615f9d9083018561578a565b9050826040830152949350505050565b6000615fbb6158ab84615875565b9050828152838383011115615fcf57600080fd5b614e2383602083018461575e565b60008060408385031215615ff057600080fd5b825167ffffffffffffffff81111561600757600080fd5b8301601f8101851361601857600080fd5b61602785825160208401615fad565b925050602083015190509250929050565b6000835161604a81846020880161575e565b83519083019061605e81836020880161575e565b01949350505050565b600060001982141561607b5761607b615c74565b5060010190565b60008282101561609457616094615c74565b500390565b8054825260018101546001600160a01b03166001600160a01b03811660208401525060028101546040830152600381015460608301526004810154608083015260058101546001600160a01b03811660a084015261610160c0840160ff8360a01c1615159052565b50600681015460e0830152600781015461010083015260088101546101208301526009015461014090910152565b6001600160a01b03851681526020810184905282151560408201526101c0810161615c6060830184616099565b95945050505050565b8281526101808101614e236020830184616099565b60006020828403121561618c57600080fd5b815167ffffffffffffffff8111156161a357600080fd5b8201601f810184136161b457600080fd5b611e5784825160208401615fad565b600082516161d581846020870161575e565b9190910192915050565b7519185d184e9d195e1d0bda1d1b5b0ed8985cd94d8d0b60521b81526000825161621081601685016020870161575e565b9190910160160192915050565b7216101130b734b6b0ba34b7b72fbab936111d1160691b8152815160009061624c81601385016020870161575e565b601160f91b6013939091019283015250601401919050565b7f7b226e616d65223a22222c226465736372697074696f6e223a2022220000000081526c16101134b6b0b3b2911d10111160991b601c82015281516000906162b381602985016020870161575e565b7116101130ba3a3934b13aba32b9911d10111160711b6029939091019283015250607d60f81b603b820152603c01919050565b6000835160206162f9828583890161575e565b845491840191600090600181811c908083168061631757607f831692505b85831081141561633557634e487b7160e01b85526022600452602485fd5b808015616349576001811461635a57616387565b60ff19851688528388019550616387565b60008b81526020902060005b8581101561637f5781548a820152908401908801616366565b505083880195505b50939a9950505050505050505050565b634e487b7160e01b600052603260045260246000fd5b6001600160a01b0384168152602081018390526101a08101611e576040830184616099565b6020808252602b908201527f496e697469616c697a61626c653a20636f6e7472616374206973206e6f74206960408201526a6e697469616c697a696e6760a81b606082015260800190565b60208082526032908201527f4552433732313a207472616e7366657220746f206e6f6e20455243373231526560408201527131b2b4bb32b91034b6b83632b6b2b73a32b960711b606082015260800190565b60008551616481818460208a0161575e565b855190830190616495818360208a0161575e565b85519101906164a881836020890161575e565b84519101906164bb81836020880161575e565b019695505050505050565b85815260208082018690526001600160a01b038516604083015260608201849052825160808301528201516101e082019061650c60a08401826001600160a01b03169052565b50604083015160c0830152606083015160e08301526080830151610100818185015260a0850151915061012061654c818601846001600160a01b03169052565b60c086015192506101406165638187018515159052565b60e0870151610160870152918601516101808601528501516101a0850152909301516101c09092019190915295945050505050565b60208082526025908201527f4552433732313a207472616e736665722066726f6d20696e636f72726563742060408201526437bbb732b960d91b606082015260800190565b6000816165ec576165ec615c74565b506000190190565b6001600160a01b03858116825284166020820152604081018390526080606082018190526000906166279083018461578a565b9695505050505050565b60006020828403121561664357600080fd5b8151614e23816156ff565b634e487b7160e01b600052602160045260246000fdfe4142434445464748494a4b4c4d4e4f505152535455565758595a6162636465666768696a6b6c6d6e6f707172737475767778797a303132333435363738392b2f3c7363726970742073616e64626f783d27616c6c6f772d736372697074732720747970653d27746578742f6a617661736372697074273ea26469706673582212205bc1ff2ccb3090dd29fca69bc58490efb957428749c2e7d6d88f21c4e90f9fd164736f6c634300080c0033",
  "linkReferences": {},
  "deployedLinkReferences": {}
}