{
  "_format": "hh-sol-artifact-1",
  "contractName": "SOUL",
  "sourceName": "contracts/nfts/SOUL.sol",
  "abi": [
    {
      "anonymous": false,
      "inputs": [
        {
          "indexed": true,
          "internalType": "address",
          "name": "owner",
          "type": "address"
        },
        {
          "indexed": true,
          "internalType": "address",
          "name": "approved",
          "type": "address"
        },
        {
          "indexed": true,
          "internalType": "uint256",
          "name": "tokenId",
          "type": "uint256"
        }
      ],
      "name": "Approval",
      "type": "event"
    },
    {
      "anonymous": false,
      "inputs": [
        {
          "indexed": true,
          "internalType": "address",
          "name": "owner",
          "type": "address"
        },
        {
          "indexed": true,
          "internalType": "address",
          "name": "operator",
          "type": "address"
        },
        {
          "indexed": false,
          "internalType": "bool",
          "name": "approved",
          "type": "bool"
        }
      ],
      "name": "ApprovalForAll",
      "type": "event"
    },
    {
      "anonymous": false,
      "inputs": [
        {
          "indexed": true,
          "internalType": "uint256",
          "name": "tokenId",
          "type": "uint256"
        },
        {
          "indexed": false,
          "internalType": "address",
          "name": "sender",
          "type": "address"
        },
        {
          "indexed": false,
          "internalType": "uint256",
          "name": "value",
          "type": "uint256"
        },
        {
          "indexed": false,
          "internalType": "bool",
          "name": "extended",
          "type": "bool"
        },
        {
          "components": [
            {
              "internalType": "uint256",
              "name": "tokenId",
              "type": "uint256"
            },
            {
              "internalType": "address",
              "name": "erc20Token",
              "type": "address"
            },
            {
              "internalType": "uint256",
              "name": "amount",
              "type": "uint256"
            },
            {
              "internalType": "uint256",
              "name": "startTime",
              "type": "uint256"
            },
            {
              "internalType": "uint256",
              "name": "endTime",
              "type": "uint256"
            },
            {
              "internalType": "address payable",
              "name": "bidder",
              "type": "address"
            },
            {
              "internalType": "bool",
              "name": "settled",
              "type": "bool"
            },
            {
              "internalType": "uint256",
              "name": "timeBuffer",
              "type": "uint256"
            },
            {
              "internalType": "uint256",
              "name": "reservePrice",
              "type": "uint256"
            },
            {
              "internalType": "uint256",
              "name": "minBidIncrementPercentage",
              "type": "uint256"
            },
            {
              "internalType": "bytes32",
              "name": "auctionId",
              "type": "bytes32"
            }
          ],
          "indexed": false,
          "internalType": "struct AuctionHouse.Auction",
          "name": "auction",
          "type": "tuple"
        }
      ],
      "name": "AuctionBid",
      "type": "event"
    },
    {
      "anonymous": false,
      "inputs": [
        {
          "indexed": true,
          "internalType": "uint256",
          "name": "tokenId",
          "type": "uint256"
        },
        {
          "indexed": false,
          "internalType": "address",
          "name": "sender",
          "type": "address"
        },
        {
          "indexed": false,
          "internalType": "uint256",
          "name": "value",
          "type": "uint256"
        },
        {
          "indexed": false,
          "internalType": "bytes32",
          "name": "auctionId",
          "type": "bytes32"
        }
      ],
      "name": "AuctionClaimBid",
      "type": "event"
    },
    {
      "anonymous": false,
      "inputs": [
        {
          "indexed": true,
          "internalType": "uint256",
          "name": "tokenId",
          "type": "uint256"
        }
      ],
      "name": "AuctionClosed",
      "type": "event"
    },
    {
      "anonymous": false,
      "inputs": [
        {
          "indexed": true,
          "internalType": "uint256",
          "name": "tokenId",
          "type": "uint256"
        },
        {
          "indexed": false,
          "internalType": "uint256",
          "name": "startTime",
          "type": "uint256"
        },
        {
          "indexed": false,
          "internalType": "uint256",
          "name": "endTime",
          "type": "uint256"
        },
        {
          "indexed": false,
          "internalType": "address",
          "name": "sender",
          "type": "address"
        },
        {
          "indexed": false,
          "internalType": "bytes32",
          "name": "auctionId",
          "type": "bytes32"
        },
        {
          "components": [
            {
              "internalType": "uint256",
              "name": "tokenId",
              "type": "uint256"
            },
            {
              "internalType": "address",
              "name": "erc20Token",
              "type": "address"
            },
            {
              "internalType": "uint256",
              "name": "amount",
              "type": "uint256"
            },
            {
              "internalType": "uint256",
              "name": "startTime",
              "type": "uint256"
            },
            {
              "internalType": "uint256",
              "name": "endTime",
              "type": "uint256"
            },
            {
              "internalType": "address payable",
              "name": "bidder",
              "type": "address"
            },
            {
              "internalType": "bool",
              "name": "settled",
              "type": "bool"
            },
            {
              "internalType": "uint256",
              "name": "timeBuffer",
              "type": "uint256"
            },
            {
              "internalType": "uint256",
              "name": "reservePrice",
              "type": "uint256"
            },
            {
              "internalType": "uint256",
              "name": "minBidIncrementPercentage",
              "type": "uint256"
            },
            {
              "internalType": "bytes32",
              "name": "auctionId",
              "type": "bytes32"
            }
          ],
          "indexed": false,
          "internalType": "struct AuctionHouse.Auction",
          "name": "auction",
          "type": "tuple"
        }
      ],
      "name": "AuctionCreated",
      "type": "event"
    },
    {
      "anonymous": false,
      "inputs": [
        {
          "indexed": true,
          "internalType": "uint256",
          "name": "tokenId",
          "type": "uint256"
        },
        {
          "indexed": false,
          "internalType": "uint256",
          "name": "endTime",
          "type": "uint256"
        },
        {
          "components": [
            {
              "internalType": "uint256",
              "name": "tokenId",
              "type": "uint256"
            },
            {
              "internalType": "address",
              "name": "erc20Token",
              "type": "address"
            },
            {
              "internalType": "uint256",
              "name": "amount",
              "type": "uint256"
            },
            {
              "internalType": "uint256",
              "name": "startTime",
              "type": "uint256"
            },
            {
              "internalType": "uint256",
              "name": "endTime",
              "type": "uint256"
            },
            {
              "internalType": "address payable",
              "name": "bidder",
              "type": "address"
            },
            {
              "internalType": "bool",
              "name": "settled",
              "type": "bool"
            },
            {
              "internalType": "uint256",
              "name": "timeBuffer",
              "type": "uint256"
            },
            {
              "internalType": "uint256",
              "name": "reservePrice",
              "type": "uint256"
            },
            {
              "internalType": "uint256",
              "name": "minBidIncrementPercentage",
              "type": "uint256"
            },
            {
              "internalType": "bytes32",
              "name": "auctionId",
              "type": "bytes32"
            }
          ],
          "indexed": false,
          "internalType": "struct AuctionHouse.Auction",
          "name": "auction",
          "type": "tuple"
        }
      ],
      "name": "AuctionExtended",
      "type": "event"
    },
    {
      "anonymous": false,
      "inputs": [
        {
          "indexed": false,
          "internalType": "uint256",
          "name": "minBidIncrementPercentage",
          "type": "uint256"
        }
      ],
      "name": "AuctionMinBidIncrementPercentageUpdated",
      "type": "event"
    },
    {
      "anonymous": false,
      "inputs": [
        {
          "indexed": false,
          "internalType": "uint256",
          "name": "reservePrice",
          "type": "uint256"
        }
      ],
      "name": "AuctionReservePriceUpdated",
      "type": "event"
    },
    {
      "anonymous": false,
      "inputs": [
        {
          "indexed": true,
          "internalType": "uint256",
          "name": "tokenId",
          "type": "uint256"
        },
        {
          "indexed": false,
          "internalType": "address",
          "name": "winner",
          "type": "address"
        },
        {
          "indexed": false,
          "internalType": "uint256",
          "name": "amount",
          "type": "uint256"
        },
        {
          "components": [
            {
              "internalType": "uint256",
              "name": "tokenId",
              "type": "uint256"
            },
            {
              "internalType": "address",
              "name": "erc20Token",
              "type": "address"
            },
            {
              "internalType": "uint256",
              "name": "amount",
              "type": "uint256"
            },
            {
              "internalType": "uint256",
              "name": "startTime",
              "type": "uint256"
            },
            {
              "internalType": "uint256",
              "name": "endTime",
              "type": "uint256"
            },
            {
              "internalType": "address payable",
              "name": "bidder",
              "type": "address"
            },
            {
              "internalType": "bool",
              "name": "settled",
              "type": "bool"
            },
            {
              "internalType": "uint256",
              "name": "timeBuffer",
              "type": "uint256"
            },
            {
              "internalType": "uint256",
              "name": "reservePrice",
              "type": "uint256"
            },
            {
              "internalType": "uint256",
              "name": "minBidIncrementPercentage",
              "type": "uint256"
            },
            {
              "internalType": "bytes32",
              "name": "auctionId",
              "type": "bytes32"
            }
          ],
          "indexed": false,
          "internalType": "struct AuctionHouse.Auction",
          "name": "auction",
          "type": "tuple"
        }
      ],
      "name": "AuctionSettled",
      "type": "event"
    },
    {
      "anonymous": false,
      "inputs": [
        {
          "indexed": false,
          "internalType": "uint256",
          "name": "timeBuffer",
          "type": "uint256"
        }
      ],
      "name": "AuctionTimeBufferUpdated",
      "type": "event"
    },
    {
      "anonymous": false,
      "inputs": [
        {
          "indexed": true,
          "internalType": "address",
          "name": "reserver",
          "type": "address"
        },
        {
          "indexed": true,
          "internalType": "uint256",
          "name": "tokenId",
          "type": "uint256"
        },
        {
          "indexed": true,
          "internalType": "address",
          "name": "owner",
          "type": "address"
        },
        {
          "indexed": false,
          "internalType": "uint256",
          "name": "blockNumber",
          "type": "uint256"
        }
      ],
      "name": "Claim",
      "type": "event"
    },
    {
      "anonymous": false,
      "inputs": [
        {
          "indexed": false,
          "internalType": "uint8",
          "name": "version",
          "type": "uint8"
        }
      ],
      "name": "Initialized",
      "type": "event"
    },
    {
      "anonymous": false,
      "inputs": [
        {
          "indexed": true,
          "internalType": "address",
          "name": "previousOwner",
          "type": "address"
        },
        {
          "indexed": true,
          "internalType": "address",
          "name": "newOwner",
          "type": "address"
        }
      ],
      "name": "OwnershipTransferred",
      "type": "event"
    },
    {
      "anonymous": false,
      "inputs": [
        {
          "indexed": false,
          "internalType": "address",
          "name": "account",
          "type": "address"
        }
      ],
      "name": "Paused",
      "type": "event"
    },
    {
      "anonymous": false,
      "inputs": [
        {
          "indexed": true,
          "internalType": "address",
          "name": "reserver",
          "type": "address"
        },
        {
          "indexed": true,
          "internalType": "uint256",
          "name": "tokenId",
          "type": "uint256"
        },
        {
          "indexed": true,
          "internalType": "address",
          "name": "owner",
          "type": "address"
        },
        {
          "indexed": false,
          "internalType": "uint256",
          "name": "blockNumber",
          "type": "uint256"
        }
      ],
      "name": "Reserve",
      "type": "event"
    },
    {
      "anonymous": false,
      "inputs": [
        {
          "indexed": true,
          "internalType": "address",
          "name": "from",
          "type": "address"
        },
        {
          "indexed": true,
          "internalType": "address",
          "name": "to",
          "type": "address"
        },
        {
          "indexed": true,
          "internalType": "uint256",
          "name": "tokenId",
          "type": "uint256"
        }
      ],
      "name": "Transfer",
      "type": "event"
    },
    {
      "anonymous": false,
      "inputs": [
        {
          "indexed": false,
          "internalType": "address",
          "name": "account",
          "type": "address"
        }
      ],
      "name": "Unpaused",
      "type": "event"
    },
    {
      "inputs": [],
      "name": "_admin",
      "outputs": [
        {
          "internalType": "address",
          "name": "",
          "type": "address"
        }
      ],
      "stateMutability": "view",
      "type": "function"
    },
    {
      "inputs": [
        {
          "internalType": "uint256",
          "name": "",
          "type": "uint256"
        }
      ],
      "name": "_auctions",
      "outputs": [
        {
          "internalType": "uint256",
          "name": "tokenId",
          "type": "uint256"
        },
        {
          "internalType": "address",
          "name": "erc20Token",
          "type": "address"
        },
        {
          "internalType": "uint256",
          "name": "amount",
          "type": "uint256"
        },
        {
          "internalType": "uint256",
          "name": "startTime",
          "type": "uint256"
        },
        {
          "internalType": "uint256",
          "name": "endTime",
          "type": "uint256"
        },
        {
          "internalType": "address payable",
          "name": "bidder",
          "type": "address"
        },
        {
          "internalType": "bool",
          "name": "settled",
          "type": "bool"
        },
        {
          "internalType": "uint256",
          "name": "timeBuffer",
          "type": "uint256"
        },
        {
          "internalType": "uint256",
          "name": "reservePrice",
          "type": "uint256"
        },
        {
          "internalType": "uint256",
          "name": "minBidIncrementPercentage",
          "type": "uint256"
        },
        {
          "internalType": "bytes32",
          "name": "auctionId",
          "type": "bytes32"
        }
      ],
      "stateMutability": "view",
      "type": "function"
    },
    {
      "inputs": [
        {
          "internalType": "bytes32",
          "name": "",
          "type": "bytes32"
        }
      ],
      "name": "_auctionsList",
      "outputs": [
        {
          "internalType": "uint256",
          "name": "tokenId",
          "type": "uint256"
        },
        {
          "internalType": "address",
          "name": "erc20Token",
          "type": "address"
        },
        {
          "internalType": "uint256",
          "name": "amount",
          "type": "uint256"
        },
        {
          "internalType": "uint256",
          "name": "startTime",
          "type": "uint256"
        },
        {
          "internalType": "uint256",
          "name": "endTime",
          "type": "uint256"
        },
        {
          "internalType": "address payable",
          "name": "bidder",
          "type": "address"
        },
        {
          "internalType": "bool",
          "name": "settled",
          "type": "bool"
        },
        {
          "internalType": "uint256",
          "name": "timeBuffer",
          "type": "uint256"
        },
        {
          "internalType": "uint256",
          "name": "reservePrice",
          "type": "uint256"
        },
        {
          "internalType": "uint256",
          "name": "minBidIncrementPercentage",
          "type": "uint256"
        },
        {
          "internalType": "bytes32",
          "name": "auctionId",
          "type": "bytes32"
        }
      ],
      "stateMutability": "view",
      "type": "function"
    },
    {
      "inputs": [],
      "name": "_bfs",
      "outputs": [
        {
          "internalType": "address",
          "name": "",
          "type": "address"
        }
      ],
      "stateMutability": "view",
      "type": "function"
    },
    {
      "inputs": [
        {
          "internalType": "uint256",
          "name": "",
          "type": "uint256"
        },
        {
          "internalType": "bytes32",
          "name": "",
          "type": "bytes32"
        },
        {
          "internalType": "address",
          "name": "",
          "type": "address"
        }
      ],
      "name": "_bidderAuctions",
      "outputs": [
        {
          "internalType": "uint256",
          "name": "",
          "type": "uint256"
        }
      ],
      "stateMutability": "view",
      "type": "function"
    },
    {
      "inputs": [
        {
          "internalType": "uint256",
          "name": "",
          "type": "uint256"
        },
        {
          "internalType": "bytes32",
          "name": "",
          "type": "bytes32"
        },
        {
          "internalType": "uint256",
          "name": "",
          "type": "uint256"
        }
      ],
      "name": "_bidderAuctionsList",
      "outputs": [
        {
          "internalType": "address",
          "name": "",
          "type": "address"
        }
      ],
      "stateMutability": "view",
      "type": "function"
    },
    {
      "inputs": [
        {
          "internalType": "address",
          "name": "",
          "type": "address"
        },
        {
          "internalType": "address",
          "name": "",
          "type": "address"
        }
      ],
      "name": "_biddingBalance",
      "outputs": [
        {
          "internalType": "uint256",
          "name": "",
          "type": "uint256"
        }
      ],
      "stateMutability": "view",
      "type": "function"
    },
    {
      "inputs": [
        {
          "internalType": "address",
          "name": "",
          "type": "address"
        }
      ],
      "name": "_coreTeamTreasury",
      "outputs": [
        {
          "internalType": "uint256",
          "name": "",
          "type": "uint256"
        }
      ],
      "stateMutability": "view",
      "type": "function"
    },
    {
      "inputs": [],
      "name": "_gmToken",
      "outputs": [
        {
          "internalType": "address",
          "name": "",
          "type": "address"
        }
      ],
      "stateMutability": "view",
      "type": "function"
    },
    {
      "inputs": [],
      "name": "_maxSupply",
      "outputs": [
        {
          "internalType": "uint256",
          "name": "",
          "type": "uint256"
        }
      ],
      "stateMutability": "view",
      "type": "function"
    },
    {
      "inputs": [
        {
          "internalType": "uint256",
          "name": "",
          "type": "uint256"
        }
      ],
      "name": "_mintAt",
      "outputs": [
        {
          "internalType": "uint256",
          "name": "",
          "type": "uint256"
        }
      ],
      "stateMutability": "view",
      "type": "function"
    },
    {
      "inputs": [
        {
          "internalType": "address",
          "name": "",
          "type": "address"
        }
      ],
      "name": "_minted",
      "outputs": [
        {
          "internalType": "uint256",
          "name": "",
          "type": "uint256"
        }
      ],
      "stateMutability": "view",
      "type": "function"
    },
    {
      "inputs": [],
      "name": "_paramsAddress",
      "outputs": [
        {
          "internalType": "address",
          "name": "",
          "type": "address"
        }
      ],
      "stateMutability": "view",
      "type": "function"
    },
    {
      "inputs": [],
      "name": "_randomizerAddr",
      "outputs": [
        {
          "internalType": "address",
          "name": "",
          "type": "address"
        }
      ],
      "stateMutability": "view",
      "type": "function"
    },
    {
      "inputs": [],
      "name": "_script",
      "outputs": [
        {
          "internalType": "string",
          "name": "",
          "type": "string"
        }
      ],
      "stateMutability": "view",
      "type": "function"
    },
    {
      "inputs": [],
      "name": "_signerMint",
      "outputs": [
        {
          "internalType": "address",
          "name": "",
          "type": "address"
        }
      ],
      "stateMutability": "view",
      "type": "function"
    },
    {
      "inputs": [
        {
          "internalType": "address",
          "name": "to",
          "type": "address"
        },
        {
          "internalType": "uint256",
          "name": "tokenId",
          "type": "uint256"
        }
      ],
      "name": "approve",
      "outputs": [],
      "stateMutability": "nonpayable",
      "type": "function"
    },
    {
      "inputs": [
        {
          "internalType": "uint256",
          "name": "tokenId",
          "type": "uint256"
        }
      ],
      "name": "available",
      "outputs": [
        {
          "internalType": "bool",
          "name": "",
          "type": "bool"
        }
      ],
      "stateMutability": "view",
      "type": "function"
    },
    {
      "inputs": [
        {
          "internalType": "address",
          "name": "owner",
          "type": "address"
        }
      ],
      "name": "balanceOf",
      "outputs": [
        {
          "internalType": "uint256",
          "name": "",
          "type": "uint256"
        }
      ],
      "stateMutability": "view",
      "type": "function"
    },
    {
      "inputs": [
        {
          "internalType": "address",
          "name": "to",
          "type": "address"
        },
        {
          "internalType": "uint256",
          "name": "n",
          "type": "uint256"
        },
        {
          "internalType": "bytes",
          "name": "signatures",
          "type": "bytes"
        }
      ],
      "name": "batchMint",
      "outputs": [
        {
          "internalType": "uint256[]",
          "name": "",
          "type": "uint256[]"
        }
      ],
      "stateMutability": "payable",
      "type": "function"
    },
    {
      "inputs": [
        {
          "internalType": "uint256",
          "name": "tokenId",
          "type": "uint256"
        }
      ],
      "name": "biddable",
      "outputs": [
        {
          "internalType": "bool",
          "name": "",
          "type": "bool"
        }
      ],
      "stateMutability": "view",
      "type": "function"
    },
    {
      "inputs": [
        {
          "internalType": "address",
          "name": "newAdm",
          "type": "address"
        }
      ],
      "name": "changeAdmin",
      "outputs": [],
      "stateMutability": "nonpayable",
      "type": "function"
    },
    {
      "inputs": [
        {
          "internalType": "address",
          "name": "newBfs",
          "type": "address"
        }
      ],
      "name": "changeBfs",
      "outputs": [],
      "stateMutability": "nonpayable",
      "type": "function"
    },
    {
      "inputs": [
        {
          "internalType": "address",
          "name": "newBrc20",
          "type": "address"
        }
      ],
      "name": "changeBrc20Token",
      "outputs": [],
      "stateMutability": "nonpayable",
      "type": "function"
    },
    {
      "inputs": [
        {
          "internalType": "address",
          "name": "newAddr",
          "type": "address"
        }
      ],
      "name": "changeParamAddr",
      "outputs": [],
      "stateMutability": "nonpayable",
      "type": "function"
    },
    {
      "inputs": [
        {
          "internalType": "address",
          "name": "newAddr",
          "type": "address"
        }
      ],
      "name": "changeRandomizerAddr",
      "outputs": [],
      "stateMutability": "nonpayable",
      "type": "function"
    },
    {
      "inputs": [
        {
          "internalType": "string",
          "name": "newScript",
          "type": "string"
        }
      ],
      "name": "changeScript",
      "outputs": [],
      "stateMutability": "nonpayable",
      "type": "function"
    },
    {
      "inputs": [
        {
          "internalType": "address",
          "name": "newAdd",
          "type": "address"
        }
      ],
      "name": "changeSignerMint",
      "outputs": [],
      "stateMutability": "nonpayable",
      "type": "function"
    },
    {
      "inputs": [
        {
          "internalType": "uint256",
          "name": "tokenId",
          "type": "uint256"
        },
        {
          "internalType": "bytes32",
          "name": "auctionId",
          "type": "bytes32"
        }
      ],
      "name": "claimBid",
      "outputs": [],
      "stateMutability": "nonpayable",
      "type": "function"
    },
    {
      "inputs": [
        {
          "internalType": "uint256",
          "name": "tokenId",
          "type": "uint256"
        }
      ],
      "name": "createAuction",
      "outputs": [],
      "stateMutability": "nonpayable",
      "type": "function"
    },
    {
      "inputs": [
        {
          "internalType": "uint256",
          "name": "tokenId",
          "type": "uint256"
        },
        {
          "internalType": "uint256",
          "name": "amount",
          "type": "uint256"
        }
      ],
      "name": "createBid",
      "outputs": [],
      "stateMutability": "payable",
      "type": "function"
    },
    {
      "inputs": [
        {
          "internalType": "uint256",
          "name": "amount",
          "type": "uint256"
        }
      ],
      "name": "deposit",
      "outputs": [],
      "stateMutability": "payable",
      "type": "function"
    },
    {
      "inputs": [
        {
          "internalType": "uint256",
          "name": "tokenId",
          "type": "uint256"
        }
      ],
      "name": "getApproved",
      "outputs": [
        {
          "internalType": "address",
          "name": "",
          "type": "address"
        }
      ],
      "stateMutability": "view",
      "type": "function"
    },
    {
      "inputs": [
        {
          "internalType": "address",
          "name": "user",
          "type": "address"
        },
        {
          "internalType": "uint256",
          "name": "totalGM",
          "type": "uint256"
        }
      ],
      "name": "getMessageHash",
      "outputs": [
        {
          "internalType": "bytes32",
          "name": "",
          "type": "bytes32"
        }
      ],
      "stateMutability": "view",
      "type": "function"
    },
    {
      "inputs": [
        {
          "internalType": "string",
          "name": "name",
          "type": "string"
        },
        {
          "internalType": "string",
          "name": "symbol",
          "type": "string"
        },
        {
          "internalType": "address",
          "name": "admin",
          "type": "address"
        },
        {
          "internalType": "address",
          "name": "paramsAddress",
          "type": "address"
        },
        {
          "internalType": "address",
          "name": "randomizerAddr",
          "type": "address"
        },
        {
          "internalType": "address",
          "name": "gmToken",
          "type": "address"
        },
        {
          "internalType": "address",
          "name": "bfs",
          "type": "address"
        },
        {
          "internalType": "address",
          "name": "signerMint",
          "type": "address"
        }
      ],
      "name": "initialize",
      "outputs": [],
      "stateMutability": "nonpayable",
      "type": "function"
    },
    {
      "inputs": [
        {
          "internalType": "address",
          "name": "owner",
          "type": "address"
        },
        {
          "internalType": "address",
          "name": "operator",
          "type": "address"
        }
      ],
      "name": "isApprovedForAll",
      "outputs": [
        {
          "internalType": "bool",
          "name": "",
          "type": "bool"
        }
      ],
      "stateMutability": "view",
      "type": "function"
    },
    {
      "inputs": [
        {
          "internalType": "address",
          "name": "to",
          "type": "address"
        },
        {
          "internalType": "uint256",
          "name": "totalGM",
          "type": "uint256"
        },
        {
          "internalType": "bytes",
          "name": "signature",
          "type": "bytes"
        }
      ],
      "name": "mint",
      "outputs": [
        {
          "internalType": "uint256",
          "name": "tokenId",
          "type": "uint256"
        }
      ],
      "stateMutability": "payable",
      "type": "function"
    },
    {
      "inputs": [],
      "name": "name",
      "outputs": [
        {
          "internalType": "string",
          "name": "",
          "type": "string"
        }
      ],
      "stateMutability": "view",
      "type": "function"
    },
    {
      "inputs": [],
      "name": "owner",
      "outputs": [
        {
          "internalType": "address",
          "name": "",
          "type": "address"
        }
      ],
      "stateMutability": "view",
      "type": "function"
    },
    {
      "inputs": [
        {
          "internalType": "uint256",
          "name": "tokenId",
          "type": "uint256"
        }
      ],
      "name": "ownerOf",
      "outputs": [
        {
          "internalType": "address",
          "name": "",
          "type": "address"
        }
      ],
      "stateMutability": "view",
      "type": "function"
    },
    {
      "inputs": [],
      "name": "p5jsScript",
      "outputs": [
        {
          "internalType": "string",
          "name": "result",
          "type": "string"
        }
      ],
      "stateMutability": "view",
      "type": "function"
    },
    {
      "inputs": [],
      "name": "paused",
      "outputs": [
        {
          "internalType": "bool",
          "name": "",
          "type": "bool"
        }
      ],
      "stateMutability": "view",
      "type": "function"
    },
    {
      "inputs": [],
      "name": "renounceOwnership",
      "outputs": [],
      "stateMutability": "nonpayable",
      "type": "function"
    },
    {
      "inputs": [
        {
          "internalType": "uint256",
          "name": "projectId",
          "type": "uint256"
        },
        {
          "internalType": "uint256",
          "name": "_salePrice",
          "type": "uint256"
        }
      ],
      "name": "royaltyInfo",
      "outputs": [
        {
          "internalType": "address",
          "name": "receiver",
          "type": "address"
        },
        {
          "internalType": "uint256",
          "name": "royaltyAmount",
          "type": "uint256"
        }
      ],
      "stateMutability": "view",
      "type": "function"
    },
    {
      "inputs": [
        {
          "internalType": "address",
          "name": "from",
          "type": "address"
        },
        {
          "internalType": "address",
          "name": "to",
          "type": "address"
        },
        {
          "internalType": "uint256",
          "name": "tokenId",
          "type": "uint256"
        }
      ],
      "name": "safeTransferFrom",
      "outputs": [],
      "stateMutability": "nonpayable",
      "type": "function"
    },
    {
      "inputs": [
        {
          "internalType": "address",
          "name": "from",
          "type": "address"
        },
        {
          "internalType": "address",
          "name": "to",
          "type": "address"
        },
        {
          "internalType": "uint256",
          "name": "tokenId",
          "type": "uint256"
        },
        {
          "internalType": "bytes",
          "name": "data",
          "type": "bytes"
        }
      ],
      "name": "safeTransferFrom",
      "outputs": [],
      "stateMutability": "nonpayable",
      "type": "function"
    },
    {
      "inputs": [
        {
          "internalType": "address",
          "name": "operator",
          "type": "address"
        },
        {
          "internalType": "bool",
          "name": "approved",
          "type": "bool"
        }
      ],
      "name": "setApprovalForAll",
      "outputs": [],
      "stateMutability": "nonpayable",
      "type": "function"
    },
    {
      "inputs": [
        {
          "internalType": "uint256",
          "name": "tokenId",
          "type": "uint256"
        }
      ],
      "name": "settleAuction",
      "outputs": [],
      "stateMutability": "nonpayable",
      "type": "function"
    },
    {
      "inputs": [
        {
          "internalType": "bytes4",
          "name": "interfaceId",
          "type": "bytes4"
        }
      ],
      "name": "supportsInterface",
      "outputs": [
        {
          "internalType": "bool",
          "name": "",
          "type": "bool"
        }
      ],
      "stateMutability": "view",
      "type": "function"
    },
    {
      "inputs": [],
      "name": "symbol",
      "outputs": [
        {
          "internalType": "string",
          "name": "",
          "type": "string"
        }
      ],
      "stateMutability": "view",
      "type": "function"
    },
    {
      "inputs": [
        {
          "internalType": "bytes32",
          "name": "seed",
          "type": "bytes32"
        },
        {
          "internalType": "uint256",
          "name": "tokenId",
          "type": "uint256"
        }
      ],
      "name": "tokenHTML",
      "outputs": [
        {
          "internalType": "string",
          "name": "result",
          "type": "string"
        }
      ],
      "stateMutability": "view",
      "type": "function"
    },
    {
      "inputs": [
        {
          "internalType": "uint256",
          "name": "tokenId",
          "type": "uint256"
        }
      ],
      "name": "tokenIdToHash",
      "outputs": [
        {
          "internalType": "bytes32",
          "name": "",
          "type": "bytes32"
        }
      ],
      "stateMutability": "view",
      "type": "function"
    },
    {
      "inputs": [
        {
          "internalType": "uint256",
          "name": "tokenId",
          "type": "uint256"
        }
      ],
      "name": "tokenURI",
      "outputs": [
        {
          "internalType": "string",
          "name": "result",
          "type": "string"
        }
      ],
      "stateMutability": "view",
      "type": "function"
    },
    {
      "inputs": [
        {
          "internalType": "address",
          "name": "from",
          "type": "address"
        },
        {
          "internalType": "address",
          "name": "to",
          "type": "address"
        },
        {
          "internalType": "uint256",
          "name": "tokenId",
          "type": "uint256"
        }
      ],
      "name": "transferFrom",
      "outputs": [],
      "stateMutability": "nonpayable",
      "type": "function"
    },
    {
      "inputs": [
        {
          "internalType": "address",
          "name": "newOwner",
          "type": "address"
        }
      ],
      "name": "transferOwnership",
      "outputs": [],
      "stateMutability": "nonpayable",
      "type": "function"
    },
    {
      "inputs": [
        {
          "internalType": "bytes32",
          "name": "seed",
          "type": "bytes32"
        },
        {
          "internalType": "uint256",
          "name": "tokenId",
          "type": "uint256"
        }
      ],
      "name": "variableScript",
      "outputs": [
        {
          "internalType": "string",
          "name": "result",
          "type": "string"
        }
      ],
      "stateMutability": "view",
      "type": "function"
    },
    {
      "inputs": [],
      "name": "web3Script",
      "outputs": [
        {
          "internalType": "string",
          "name": "result",
          "type": "string"
        }
      ],
      "stateMutability": "view",
      "type": "function"
    },
    {
      "inputs": [
        {
          "internalType": "address",
          "name": "erc20Addr",
          "type": "address"
        }
      ],
      "name": "withdraw",
      "outputs": [],
      "stateMutability": "nonpayable",
      "type": "function"
    }
  ],
  "bytecode": "0x608060405234801561001057600080fd5b506167c780620000216000396000f3fe6080604052600436106103815760003560e01c806374973a41116101d1578063adfc7dae11610102578063cc22e004116100a0578063f2fde38b1161006f578063f2fde38b14610be1578063f3f83ddd14610c01578063f50cbc8b14610c21578063febfd6c314610c4157600080fd5b8063cc22e00414610b2a578063d5563f3114610b58578063e985e9c514610b78578063eb29c23214610bc157600080fd5b8063b88d4fde116100dc578063b88d4fde14610a95578063bd89684314610ab0578063c5c1b8af14610ad1578063c87b56dd14610b0a57600080fd5b8063adfc7dae14610a4e578063b6b55f2514610a6f578063b7751c7114610a8257600080fd5b806394f5a66e1161016f5780639a247cb3116101495780639a247cb3146109785780639c6f35f9146109f8578063a0d41e1114610a19578063a22cb46514610a2e57600080fd5b806394f5a66e1461092357806395d89b411461094357806396e494e81461095857600080fd5b80638da5cb5b116101ab5780638da5cb5b146108b15780638f283970146108d057806393c6cdc0146108f057806394d008ef1461091057600080fd5b806374973a41146108595780637de77ecc1461086e5780638a0162491461089c57600080fd5b80632e993611116102b65780635c975abb1161025457806366215eb41161022357806366215eb4146107e357806368a17bd81461080457806370a0823114610824578063715018a61461084457600080fd5b80635c975abb1461076b578063621a1f7414610783578063624de2a9146107a35780636352211e146107c357600080fd5b806342842e0e1161029057806342842e0e146106cc578063512c91df146106ec57806351cff8d91461070c57806355cd63261461072c57600080fd5b80632e9936111461066b57806332e323261461068b57806333348979146106ab57600080fd5b806317dc6bf61161032357806323b872dd116102fd57806323b872dd146105c35780632824d162146105de5780632a55205a1461060c5780632b7d13de1461064b57600080fd5b806317dc6bf6146104985780631ca9741b1461057e57806322f4596f1461059e57600080fd5b806306fdde031161035f57806306fdde0314610414578063081812fc14610436578063095ea7b314610456578063140f0e071461047857600080fd5b806301bc45c91461038657806301ffc9a7146103c457806306cb20c1146103f4575b600080fd5b34801561039257600080fd5b5061015f546103a7906001600160a01b031681565b6040516001600160a01b0390911681526020015b60405180910390f35b3480156103d057600080fd5b506103e46103df366004615787565b610c61565b60405190151581526020016103bb565b34801561040057600080fd5b506103a761040f3660046157a4565b610cb3565b34801561042057600080fd5b50610429610cf9565b6040516103bb9190615828565b34801561044257600080fd5b506103a761045136600461583b565b610d8b565b34801561046257600080fd5b50610476610471366004615874565b610db2565b005b34801561048457600080fd5b5061047661049336600461596d565b610ecd565b3480156104a457600080fd5b506105186104b336600461583b565b61016d60205260009081526040902080546001820154600283015460038401546004850154600586015460068701546007880154600889015460099099015497986001600160a01b0397881698969795969495841694600160a01b90940460ff16938b565b604080519b8c526001600160a01b039a8b1660208d01528b019890985260608a019690965260808901949094529590911660a0870152151560c086015260e0850193909352610100840192909252610120830191909152610140820152610160016103bb565b34801561058a57600080fd5b506104766105993660046159a2565b610f2d565b3480156105aa57600080fd5b506105b56101665481565b6040519081526020016103bb565b3480156105cf57600080fd5b506104766103813660046159bf565b3480156105ea57600080fd5b506105b56105f93660046159a2565b6101706020526000908152604090205481565b34801561061857600080fd5b5061062c610627366004615a00565b610fc1565b604080516001600160a01b0390931683526020830191909152016103bb565b34801561065757600080fd5b506104766106663660046159a2565b610ff2565b34801561067757600080fd5b5061047661068636600461583b565b611087565b34801561069757600080fd5b506104296106a6366004615a00565b6110bf565b3480156106b757600080fd5b50610165546103a7906001600160a01b031681565b3480156106d857600080fd5b506104766106e73660046159bf565b6112a8565b3480156106f857600080fd5b506105b5610707366004615874565b6112c3565b34801561071857600080fd5b506104766107273660046159a2565b611321565b34801561073857600080fd5b506105b5610747366004615a22565b61016f60209081526000938452604080852082529284528284209052825290205481565b34801561077757600080fd5b5060975460ff166103e4565b34801561078f57600080fd5b506105b561079e36600461583b565b61155b565b6107b66107b1366004615a5b565b611629565b6040516103bb9190615ae4565b3480156107cf57600080fd5b506103a76107de36600461583b565b6116f6565b3480156107ef57600080fd5b50610161546103a7906001600160a01b031681565b34801561081057600080fd5b506103e461081f36600461583b565b611712565b34801561083057600080fd5b506105b561083f3660046159a2565b61173a565b34801561085057600080fd5b506104766117c0565b34801561086557600080fd5b506104296117d4565b34801561087a57600080fd5b506105b56108893660046159a2565b61016a6020526000908152604090205481565b3480156108a857600080fd5b50610429611a2e565b3480156108bd57600080fd5b5061012d546001600160a01b03166103a7565b3480156108dc57600080fd5b506104766108eb3660046159a2565b611abd565b3480156108fc57600080fd5b5061047661090b3660046159a2565b611b52565b6105b561091e366004615a5b565b611be7565b34801561092f57600080fd5b5061047661093e366004615b28565b611f0a565b34801561094f57600080fd5b50610429612130565b34801561096457600080fd5b506103e461097336600461583b565b61213f565b34801561098457600080fd5b5061051861099336600461583b565b61016e60205260009081526040902080546001820154600283015460038401546004850154600586015460068701546007880154600889015460099099015497986001600160a01b0397881698969795969495841694600160a01b90940460ff16938b565b348015610a0457600080fd5b50610164546103a7906001600160a01b031681565b348015610a2557600080fd5b5061042961222b565b348015610a3a57600080fd5b50610476610a49366004615c08565b61245c565b348015610a5a57600080fd5b50610160546103a7906001600160a01b031681565b610476610a7d36600461583b565b612467565b610476610a90366004615a00565b61278c565b348015610aa157600080fd5b50610476610381366004615c41565b348015610abc57600080fd5b50610167546103a7906001600160a01b031681565b348015610add57600080fd5b506105b5610aec366004615cc1565b61016c60209081526000928352604080842090915290825290205481565b348015610b1657600080fd5b50610429610b2536600461583b565b612d00565b348015610b3657600080fd5b506105b5610b4536600461583b565b6101696020526000908152604090205481565b348015610b6457600080fd5b50610476610b7336600461583b565b612ec2565b348015610b8457600080fd5b506103e4610b93366004615cc1565b6001600160a01b039182166000908152606a6020908152604080832093909416825291909152205460ff1690565b348015610bcd57600080fd5b50610429610bdc366004615a00565b612f69565b348015610bed57600080fd5b50610476610bfc3660046159a2565b61303b565b348015610c0d57600080fd5b50610476610c1c3660046159a2565b6130b1565b348015610c2d57600080fd5b50610476610c3c366004615a00565b613146565b348015610c4d57600080fd5b50610476610c5c3660046159a2565b6131c9565b60006001600160e01b031982166380ac58cd60e01b1480610c9257506001600160e01b03198216635b5e139f60e01b145b80610cad57506301ffc9a760e01b6001600160e01b03198316145b92915050565b6101716020528260005260406000206020528160005260406000208181548110610cdc57600080fd5b6000918252602090912001546001600160a01b0316925083915050565b606060658054610d0890615cef565b80601f0160208091040260200160405190810160405280929190818152602001828054610d3490615cef565b8015610d815780601f10610d5657610100808354040283529160200191610d81565b820191906000526020600020905b815481529060010190602001808311610d6457829003601f168201915b5050505050905090565b6000610d968261325e565b506000908152606960205260409020546001600160a01b031690565b6000610dbd826132ae565b9050806001600160a01b0316836001600160a01b03161415610e305760405162461bcd60e51b815260206004820152602160248201527f4552433732313a20617070726f76616c20746f2063757272656e74206f776e656044820152603960f91b60648201526084015b60405180910390fd5b336001600160a01b0382161480610e4c5750610e4c8133610b93565b610ebe5760405162461bcd60e51b815260206004820152603d60248201527f4552433732313a20617070726f76652063616c6c6572206973206e6f7420746f60448201527f6b656e206f776e6572206f7220617070726f76656420666f7220616c6c0000006064820152608401610e27565b610ec8838361330e565b505050565b61015f5460408051808201909152600381526231303160e81b6020820152906001600160a01b03163314610f145760405162461bcd60e51b8152600401610e279190615828565b508051610f29906101639060208401906156d8565b5050565b61015f546001600160a01b031633148015610f5057506001600160a01b03811615155b6040518060400160405280600381526020016231303160e81b81525090610f8a5760405162461bcd60e51b8152600401610e279190615828565b50610161546001600160a01b03828116911614610fbe5761016180546001600160a01b0319166001600160a01b0383161790555b50565b61015f546001600160a01b03166000612710610fdf846101f4615d40565b610fe99190615d5f565b90509250929050565b61015f546001600160a01b03163314801561101557506001600160a01b03811615155b6040518060400160405280600381526020016231303160e81b8152509061104f5760405162461bcd60e51b8152600401610e279190615828565b50610165546001600160a01b03828116911614610fbe5761016580546001600160a01b0383166001600160a01b031990911617905550565b61108f6133b7565b6110b58161109c836116f6565b6001600160a01b0316336001600160a01b031614613411565b610fbe600160fb55565b6040805180820190915260128152711e39b1b934b83a1034b21e93bb30b939939f60711b6020820152806110f284613a2d565b604051602001611103929190615d81565b60408051601f1981840301815291905261016454909150819061112e906001600160a01b0316613a79565b60405160200161113f929190615dd5565b60408051808303601f19018152908290526101605463bf40fac160e01b835260206004840152602160248401527f535741505f504f4f4c5f474d5f4554485f434f4e54524143545f4144445245536044840152605360f81b60648401529092506001600160a01b031690600090829063bf40fac190608401602060405180830381865afa1580156111d4573d6000803e3d6000fd5b505050506040513d601f19601f820116820180604052508101906111f89190615e3c565b90508261120482613a79565b604051602001611215929190615e59565b60405160208183030381529060405292508261123030613a79565b604051602001611241929190615ed1565b60405160208183030381529060405292508261125c85613a8f565b60405160200161126d929190615f38565b60405160208183030381529060405292508260405160200161128f9190615f90565b6040516020818303038152906040529250505092915050565b610ec883838360405180602001604052806000815250600080fd5b6101675461016454604080513060208083019190915246828401526001600160a01b03948516606083015295841660808201529290911660a083015260c0808301939093528051808303909301835260e09091019052805191012090565b6113296133b7565b61015f5481906001600160a01b0316331415611439576001600160a01b0382166000908152610170602052604090205461136257600080fd5b6001600160a01b03828116600090815261017060205260409081902054905163a9059cbb60e01b815233600482015260248101919091529082169063a9059cbb906044016020604051808303816000875af11580156113c5573d6000803e3d6000fd5b505050506040513d601f19601f820116820180604052508101906113e99190615fbd565b61141a5760405162461bcd60e51b8152602060048201526002602482015261573160f01b6044820152606401610e27565b6001600160a01b03821660009081526101706020526040812055611550565b33600090815261016c602090815260408083206001600160a01b038616845290915290205461146757600080fd5b33600081815261016c602090815260408083206001600160a01b03878116855292529182902054915163a9059cbb60e01b81526004810193909352602483019190915282169063a9059cbb906044016020604051808303816000875af11580156114d5573d6000803e3d6000fd5b505050506040513d601f19601f820116820180604052508101906114f99190615fbd565b61152a5760405162461bcd60e51b81526020600482015260026024820152612b9960f11b6044820152606401610e27565b33600090815261016c602090815260408083206001600160a01b03861684529091528120555b50610fbe600160fb55565b600061156682613b2c565b6040518060400160405280600381526020016232303960e81b815250906115a05760405162461bcd60e51b8152600401610e279190615828565b5060008281526101686020526040902054600160a01b900460a01b6001600160a01b0319166115d157506000919050565b6000828152610168602090815260409182902054915161160c92600160a01b900460a01b91016001600160a01b031991909116815260200190565b604051602081830303815290604052805190602001209050919050565b606060008467ffffffffffffffff811115611646576116466158a0565b60405190808252806020026020018201604052801561166f578160200160208202803683370190505b5061015f549091506001600160a01b0316331461168b57600080fd5b60005b858110156116ea5760006116a58860008888611be7565b9050808383815181106116ba576116ba615fda565b60200260200101818152505062030d405a10156116d757506116ea565b50806116e281615ff0565b91505061168e565b5090505b949350505050565b600090815261016860205260409020546001600160a01b031690565b600061171c613b4a565b61172533613bf5565b1061173257506001919050565b506000919050565b60006001600160a01b0382166117a45760405162461bcd60e51b815260206004820152602960248201527f4552433732313a2061646472657373207a65726f206973206e6f7420612076616044820152683634b21037bbb732b960b91b6064820152608401610e27565b506001600160a01b031660009081526068602052604090205490565b6117c8613c65565b6117d26000613cc0565b565b606060405180606001604052806037815260200161675b6037913961016554604080518082018252600d81526c70356a7340312e352e302e6a7360981b602082015261016054915163bf40fac160e01b81529394506001600160a01b039283169390929190911690600090829063bf40fac190611877906004016020808252600f908201526e29a1a924a82a2fa82927ab24a222a960891b604082015260600190565b602060405180830381865afa158015611894573d6000803e3d6000fd5b505050506040513d601f19601f820116820180604052508101906118b89190615e3c565b90506000846001600160a01b031663ba67e64183866040518363ffffffff1660e01b81526004016118ea92919061600b565b602060405180830381865afa158015611907573d6000803e3d6000fd5b505050506040513d601f19601f8201168201806040525081019061192b919061602f565b9050611938600182616048565b905060005b81811015611a035761015f5460405163283959d960e21b815260009182916001600160a01b038a81169263a0e567649261198192909116908b908890600401616060565b600060405180830381865afa15801561199e573d6000803e3d6000fd5b505050506040513d6000823e601f3d908101601f191682016040526119c691908101906160c4565b9150915088826040516020016119dd92919061611f565b6040516020818303038152906040529850505080806119fb90615ff0565b91505061193d565b5085604051602001611a159190615f90565b6040516020818303038152906040529550505050505090565b6101638054611a3c90615cef565b80601f0160208091040260200160405190810160405280929190818152602001828054611a6890615cef565b8015611ab55780601f10611a8a57610100808354040283529160200191611ab5565b820191906000526020600020905b815481529060010190602001808311611a9857829003601f168201915b505050505081565b61015f546001600160a01b031633148015611ae057506001600160a01b03811615155b6040518060400160405280600381526020016231303160e81b81525090611b1a5760405162461bcd60e51b8152600401610e279190615828565b5061015f546001600160a01b03828116911614610fbe5761015f80546001600160a01b0383166001600160a01b031990911617905550565b61015f546001600160a01b031633148015611b7557506001600160a01b03811615155b6040518060400160405280600381526020016231303160e81b81525090611baf5760405162461bcd60e51b8152600401610e279190615828565b50610164546001600160a01b03828116911614610fbe5761016480546001600160a01b0383166001600160a01b031990911617905550565b6000611bf16133b7565b6101665461016254106040518060400160405280600381526020016232303360e81b81525090611c345760405162461bcd60e51b8152600401610e279190615828565b5061015f546001600160a01b03163314611d7457336001600160a01b03861614611c885760405162461bcd60e51b815260206004820152600560248201526447505f495560d81b6044820152606401610e27565b611c918561173a565b15611cc45760405162461bcd60e51b8152602060048201526003602482015262312d3160e81b6044820152606401610e27565b6001600160a01b038516600090815261016a602052604090205415611d0f5760405162461bcd60e51b81526020600482015260016024820152604d60f81b6044820152606401610e27565b611d50858585858080601f016020809104026020016040519081016040528093929190818152602001838380828437600092019190915250613d1392505050565b50506001600160a01b038516600090815261016a6020526040902060019055611e45565b61015f546001600160a01b0386811691161415611d9057600080fd5b6001600160a01b0385163014611e4557611da98561173a565b15611ddc5760405162461bcd60e51b8152602060048201526003602482015262312d3160e81b6044820152606401610e27565b6001600160a01b038516600090815261016a602052604090205415611e275760405162461bcd60e51b81526020600482015260016024820152604d60f81b6044820152606401610e27565b6001600160a01b038516600090815261016a60205260409020600190555b6101628054906000611e5683615ff0565b9190505550610162549050611e6b8582613d8c565b61016154604051631da00d8560e01b8152600481018390526001600160a01b03909116906000908290631da00d85906024016020604051808303816000875af1158015611ebc573d6000803e3d6000fd5b505050506040513d601f19601f82011682018060405250810190611ee0919061602f565b9050611eec8382613da6565b50506000818152610169602052604090204390556116ee600160fb55565b600054610100900460ff1615808015611f2a5750600054600160ff909116105b80611f445750303b158015611f44575060005460ff166001145b611fa75760405162461bcd60e51b815260206004820152602e60248201527f496e697469616c697a61626c653a20636f6e747261637420697320616c72656160448201526d191e481a5b9a5d1a585b1a5e995960921b6064820152608401610e27565b6000805460ff191660011790558015611fca576000805461ff0019166101001790555b60408051808201909152600381526203130360ec1b60208201526001600160a01b03881661200b5760405162461bcd60e51b8152600401610e279190615828565b5060408051808201909152600381526203130360ec1b60208201526001600160a01b03871661204d5760405162461bcd60e51b8152600401610e279190615828565b5061016080546001600160a01b03199081166001600160a01b038981169190911790925561015f805482168a841617905561016180548216888416179055610164805482168784161790556103e8610166556101658054821686841617905561016780549091169184169190911790556120c78989613e71565b6120cf613ea2565b6120d7613ed1565b6120df613f00565b8015612125576000805461ff0019169055604051600181527f7f26b83ff96e1f2b6a682f133852f6798a09c465da95921460cefb38474024989060200160405180910390a15b505050505050505050565b606060668054610d0890615cef565b600061214a82613b2c565b61215657506000919050565b61215e613f2f565b60008381526101696020526040902054612178904361614e565b1161218557506000919050565b61015f546001600160a01b031661219b836116f6565b6001600160a01b031614156121b257506000919050565b306121bc836116f6565b6001600160a01b031614156121f557600082815261016d6020526040902060050154600160a01b900460ff16156121f557506001919050565b60006121ff613b4a565b90508061221361220e856116f6565b613bf5565b10156122225750600192915050565b50600092915050565b606060405180606001604052806037815260200161675b6037913961016554604080518082018252600f81526e776562336a7340312e322e372e6a7360881b602082015261016054915163bf40fac160e01b81529394506001600160a01b039283169390929190911690600090829063bf40fac1906122d0906004016020808252600f908201526e29a1a924a82a2fa82927ab24a222a960891b604082015260600190565b602060405180830381865afa1580156122ed573d6000803e3d6000fd5b505050506040513d601f19601f820116820180604052508101906123119190615e3c565b90506000846001600160a01b031663ba67e64183866040518363ffffffff1660e01b815260040161234392919061600b565b602060405180830381865afa158015612360573d6000803e3d6000fd5b505050506040513d601f19601f82011682018060405250810190612384919061602f565b9050612391600182616048565b905060005b81811015611a035761015f5460405163283959d960e21b815260009182916001600160a01b038a81169263a0e56764926123da92909116908b908890600401616060565b600060405180830381865afa1580156123f7573d6000803e3d6000fd5b505050506040513d6000823e601f3d908101601f1916820160405261241f91908101906160c4565b91509150888260405160200161243692919061611f565b60405160208183030381529060405298505050808061245490615ff0565b915050612396565b610f29338383613fd1565b61246f6133b7565b6101605460405163bf40fac160e01b815260206004820152601860248201527729a7aaa62fa0aaa1aa24a7a72fa2a92199182faa27a5a2a760411b60448201526000916001600160a01b03169063bf40fac190606401602060405180830381865afa1580156124e2573d6000803e3d6000fd5b505050506040513d601f19601f820116820180604052508101906125069190615e3c565b90506001600160a01b0381166125255750610164546001600160a01b03165b604051636eb1769f60e11b8152336004820152306024820152819083906001600160a01b0383169063dd62ed3e90604401602060405180830381865afa158015612573573d6000803e3d6000fd5b505050506040513d601f19601f82011682018060405250810190612597919061602f565b10156125e55760405162461bcd60e51b815260206004820152601c60248201527f6e6f7420656e6f75676820616c6c6f7720657263323020746f6b656e000000006044820152606401610e27565b6040516370a0823160e01b815233600482015283906001600160a01b038316906370a0823190602401602060405180830381865afa15801561262b573d6000803e3d6000fd5b505050506040513d601f19601f8201168201806040525081019061264f919061602f565b10156126965760405162461bcd60e51b81526020600482015260166024820152753737ba1032b737bab3b41032b9319918103a37b5b2b760511b6044820152606401610e27565b6040516323b872dd60e01b8152336004820152306024820152604481018490526001600160a01b038216906323b872dd906064016020604051808303816000875af11580156126e9573d6000803e3d6000fd5b505050506040513d601f19601f8201168201806040525081019061270d9190615fbd565b6127595760405162461bcd60e51b815260206004820152601d60248201527f63616e206e6f74206765742065726332302066726f6d206269646465720000006044820152606401610e27565b5033600090815261016c602090815260408083206001600160a01b0394909416835292905220819055610fbe600160fb55565b6127946133b7565b61279d82611712565b6127d25760405162461bcd60e51b8152600401610e279060208082526004908201526304e5f43360e41b604082015260600190565b6127db3361173a565b156128115760405162461bcd60e51b8152602060048201526006602482015265272fa1982f9960d11b6044820152606401610e27565b600082815261016f6020908152604080832061016d835281842060090154845282528083203384529091529020546128865760008281526101716020908152604080832061016d835281842060090154845282528220805460018101825590835291200180546001600160a01b031916331790555b600082815261016d60205260409020600181015490546001600160a01b039091169083146128eb5760405162461bcd60e51b81526020600482015260126024820152713737ba103ab8103337b91030bab1ba34b7b760711b6044820152606401610e27565b600083815261016d6020526040902060040154431061293e5760405162461bcd60e51b815260206004820152600f60248201526e105d58dd1a5bdb88195e1c1a5c9959608a1b6044820152606401610e27565b33600090815261016c6020908152604080832086845261016d8352818420600101546001600160a01b031684529091529020548211156129c05760405162461bcd60e51b815260206004820152601e60248201527f6e6f7420656e6f7567682062616c616e636520657263323020746f6b656e00006044820152606401610e27565b600083815261016f6020908152604080832061016d83528184206009015484528252808320338452909152812054906129f98285616048565b600086815261016d60205260409020600701549091508111612a5d5760405162461bcd60e51b815260206004820152601f60248201527f4d7573742073656e64206174206c6561737420726573657276655072696365006044820152606401610e27565b600085815261016d602052604090206008810154600290910154606491612a8391615d40565b612a8d9190615d5f565b600086815261016d6020526040902060020154612aaa9190616048565b8111612b20576040805162461bcd60e51b81526020600482015260248101919091527f4d7573742073656e64206d6f7265207468616e206c617374206269642062792060448201527f6d696e426964496e6372656d656e7450657263656e7461676520616d6f756e746064820152608401610e27565b33600090815261016c6020908152604080832088845261016d8352818420600101546001600160a01b0316845290915281208054869290612b6290849061614e565b9091555050600085815261016f6020908152604080832061016d8084528285206009810180548752928552838620338088529086528487208890556002808301899055600580840180546001600160a01b0319908116909417815586548a5261016e8952878a209092018a905590549454885294872090940180549094166001600160a01b039093169290921790925588845291526006810154600490910154612c0d90439061614e565b1090508015612c4757600086815261016d6020526040902060060154612c339043616048565b600087815261016d60205260409020600401555b600086815261016d602052604090819020805491517ffd09e259e5c48be16f7dd63468e19266c684a9f3dce3b31881dbc1f909fc0d7c91612c8e9133918a918791906161fb565b60405180910390a28015612cec57600086815261016d60205260409081902080546004820154925190927f4c1666cb87ed4fd7706cb19b1e3160612601aca7235c307fe64a11bc8db0f41f92612ce392616231565b60405180910390a25b50505050610f29600160fb55565b50505050565b6060612d0b82613b2c565b6040518060400160405280600381526020016232303960e81b81525090612d455760405162461bcd60e51b8152600401610e279190615828565b5060405163188687dd60e21b815260048101839052600090309063621a1f7490602401602060405180830381865afa158015612d85573d6000803e3d6000fd5b505050506040513d601f19601f82011682018060405250810190612da9919061602f565b61016054604051637594e11960e11b815260048101839052602481018690529192506001600160a01b031690600090309063eb29c23290604401600060405180830381865afa158015612e00573d6000803e3d6000fd5b505050506040513d6000823e601f3d908101601f19168201604052612e289190810190616246565b9050612e5281604051602001612e3e919061628f565b6040516020818303038152906040526140a0565b604051602001612e6291906162ab565b6040516020818303038152906040529050600081604051602001612e8691906162e9565b604051602081830303815290604052905080604051602001612ea89190616330565b604051602081830303815290604052945050505050919050565b612eca6133b7565b612ed38161213f565b612f085760405162461bcd60e51b8152600401610e279060208082526004908201526304e5f43360e41b604082015260600190565b612f10613f2f565b60008281526101696020526040902054612f2a904361614e565b11612f605760405162461bcd60e51b81526020600482015260066024820152654e5f43305f3360d01b6044820152606401610e27565b6110b581614206565b60408051808201909152600c81526b1e343a36b61f1e3432b0b21f60a11b602082015280612f956117d4565b604051602001612fa692919061611f565b604051602081830303815290604052905080612fc061222b565b604051602001612fd192919061611f565b604051602081830303815290604052905080612fed84846110bf565b604051602001612ffe92919061611f565b6040516020818303038152906040529050806101636040516020016130249291906163b2565b604051602081830303815290604052905092915050565b613043613c65565b6001600160a01b0381166130a85760405162461bcd60e51b815260206004820152602660248201527f4f776e61626c653a206e6577206f776e657220697320746865207a65726f206160448201526564647265737360d01b6064820152608401610e27565b610fbe81613cc0565b61015f546001600160a01b0316331480156130d457506001600160a01b03811615155b6040518060400160405280600381526020016231303160e81b8152509061310e5760405162461bcd60e51b8152600401610e279190615828565b50610167546001600160a01b03828116911614610fbe5761016780546001600160a01b0383166001600160a01b031990911617905550565b61314e6133b7565b6131593383836148ba565b600082815261016f602090815260408083208484528252808320338085529083529281902054815193845291830191909152810182905282907f3efeb5ca9b10c05ba2df4bcac38445e4a4e8a996887f004e5036d254c14a98649060600160405180910390a2610f29600160fb55565b61015f546001600160a01b0316331480156131ec57506001600160a01b03811615155b6040518060400160405280600381526020016231303160e81b815250906132265760405162461bcd60e51b8152600401610e279190615828565b50610160546001600160a01b03828116911614610fbe5761016080546001600160a01b0383166001600160a01b031990911617905550565b61326781613b2c565b610fbe5760405162461bcd60e51b8152602060048201526018602482015277115490cdcc8c4e881a5b9d985b1a59081d1bdad95b88125160421b6044820152606401610e27565b6000818152606760205260408120546001600160a01b031680610cad5760405162461bcd60e51b8152602060048201526018602482015277115490cdcc8c4e881a5b9d985b1a59081d1bdad95b88125160421b6044820152606401610e27565b600081815260696020526040902080546001600160a01b0319166001600160a01b0384169081179091558190613343826132ae565b6001600160a01b03167f8c5be1e5ebec7d5bd14f71427d1e84f3dd0314c0f7b2291e5b200ac8c7c3b92560405160405180910390a45050565b6133878383836149d6565b60009081526101686020526040902080546001600160a01b0319166001600160a01b039290921691909117905550565b600260fb54141561340a5760405162461bcd60e51b815260206004820152601f60248201527f5265656e7472616e637947756172643a207265656e7472616e742063616c6c006044820152606401610e27565b600260fb55565b600082815261016d60205260409020600301546134675760405162461bcd60e51b815260206004820152601460248201527320bab1ba34b7b7103430b9b713ba103132b3bab760611b6044820152606401610e27565b600082815261016d6020526040902060050154600160a01b900460ff16156134d15760405162461bcd60e51b815260206004820181905260248201527f41756374696f6e2068617320616c7265616479206265656e20736574746c65646044820152606401610e27565b600082815261016d60205260409020600401544310156135335760405162461bcd60e51b815260206004820152601860248201527f41756374696f6e206861736e277420636f6d706c6574656400000000000000006044820152606401610e27565b600082815261016d602081815260408084206003810185905560058082018054600160a01b60ff60a01b1991821681178355600990940154885261016e865293872090910180549093169091179091559285905252546001600160a01b03161561368557600082815261016d60205260409020600501546135bc906001600160a01b031661173a565b6135f257600082815261016d60205260409020600581015490546135ed9130916001600160a01b039091169061337c565b613685565b600082815261016d60209081526040808320600281015460058201546001600160a01b03908116865261016c855283862060019093015416855292528220805491929091613641908490616048565b9091555050600082815261016f6020908152604080832061016d8352818420600981015485529083528184206005909101546001600160a01b031684529091528120555b600082815261016d602052604090206002015415613880576101605460405163bf40fac160e01b815260206004820152601c60248201527f534f554c5f41554354494f4e5f474d5f44414f5f54726561737572790000000060448201526000916001600160a01b03169063bf40fac190606401602060405180830381865afa158015613715573d6000803e3d6000fd5b505050506040513d601f19601f820116820180604052508101906137399190615e3c565b90506001600160a01b03811661374e57600080fd5b600083815261016d602052604081206002015461271090613771906103e8615d40565b61377b9190615d5f565b600085815261016d6020526040902060018101546002909101549192506001600160a01b03169063a9059cbb9084906137b590859061614e565b6040516001600160e01b031960e085901b1681526001600160a01b03909216600483015260248201526044016020604051808303816000875af1158015613800573d6000803e3d6000fd5b505050506040513d601f19601f820116820180604052508101906138249190615fbd565b50600084815261016d6020908152604080832060018101546001600160a01b03908116855261017084528285209590955587845261016f8352818420600982015485528352818420600590910154909416835292905290812055505b60008281526101716020908152604080832061016d8352818420600901548452909152902054156139c25760005b60008381526101716020908152604080832061016d83528184206009015484529091529020548110156139c057600083815261016d60209081526040808320600581015461017184528285206009909201548552925290912080546001600160a01b03909216918390811061392557613925615fda565b6000918252602090912001546001600160a01b0316146139ae5760008381526101716020908152604080832061016d8352818420600901548452909152902080546139ae91908390811061397b5761397b615fda565b600091825260208083209091015486835261016d9091526040909120600901546001600160a01b039091169085906148ba565b806139b881615ff0565b9150506138ae565b505b600082815261016d602052604090819020805460058201546002830154935191937f727cff623966c8adc61ac68940e8c898c04ff7ced5d69d9735d51f0589daf53293613a1a936001600160a01b0390931692616463565b60405180910390a25050565b600160fb55565b6060613a3882614b47565b613a45608084901b614b47565b60405161060f60f31b6020820152602281019290925260428201526062016040516020818303038152906040529050919050565b6060610cad6001600160a01b0383166014614cf9565b60606000613a9c83614e9c565b600101905060008167ffffffffffffffff811115613abc57613abc6158a0565b6040519080825280601f01601f191660200182016040528015613ae6576020820181803683370190505b5090508181016020015b600019016f181899199a1a9b1b9c1cb0b131b232b360811b600a86061a8153600a8504945084613b1f57613b24565b613af0565b509392505050565b600090815261016860205260409020546001600160a01b0316151590565b61016054604051636d12dce160e01b815260206004820152601160248201527014d3d55317d1d357d512149154d213d311607a1b604482015260009182916001600160a01b0390911690636d12dce190606401602060405180830381865afa158015613bba573d6000803e3d6000fd5b505050506040513d601f19601f82011682018060405250810190613bde919061602f565b905080613bf05750670de0b6b3a76400005b919050565b610164546040516370a0823160e01b81526001600160a01b03838116600483015260009216906370a0823190602401602060405180830381865afa158015613c41573d6000803e3d6000fd5b505050506040513d601f19601f82011682018060405250810190610cad919061602f565b61012d546001600160a01b031633146117d25760405162461bcd60e51b815260206004820181905260248201527f4f776e61626c653a2063616c6c6572206973206e6f7420746865206f776e65726044820152606401610e27565b61012d80546001600160a01b038381166001600160a01b0319831681179093556040519116919082907f8be0079c531659141344cd1fd0a4f28419497f9722a3daafe3b4186f6b6457e090600090a35050565b6000806000613d2286866112c3565b90506000613d38613d3283614f74565b86614faf565b610167549091506001600160a01b03808316911614613d815760405162461bcd60e51b815260206004820152600560248201526447505f4e4160d81b6044820152606401610e27565b969095509350505050565b610f29828260405180602001604052806000815250614fcb565b60008281526101686020908152604091829020548251808401909352600383526219181b60e91b91830191909152600160a01b900460a01b6001600160a01b03191615613e065760405162461bcd60e51b8152600401610e279190615828565b5060408051808201909152600381526232303760e81b602082015281613e3f5760405162461bcd60e51b8152600401610e279190615828565b5060009182526101686020526040909120805460a09290921c600160a01b026001600160a01b03909216919091179055565b600054610100900460ff16613e985760405162461bcd60e51b8152600401610e2790616488565b610f298282614ffe565b600054610100900460ff16613ec95760405162461bcd60e51b8152600401610e2790616488565b6117d261504c565b600054610100900460ff16613ef85760405162461bcd60e51b8152600401610e2790616488565b6117d2615073565b600054610100900460ff16613f275760405162461bcd60e51b8152600401610e2790616488565b6117d26150a6565b61016054604051636d12dce160e01b815260206004820152600f60248201526e534f554c5f474d5f5245534552564560881b604482015260009182916001600160a01b0390911690636d12dce190606401602060405180830381865afa158015613f9d573d6000803e3d6000fd5b505050506040513d601f19601f82011682018060405250810190613fc1919061602f565b905080613bf057506103f0919050565b816001600160a01b0316836001600160a01b031614156140335760405162461bcd60e51b815260206004820152601960248201527f4552433732313a20617070726f766520746f2063616c6c6572000000000000006044820152606401610e27565b6001600160a01b038381166000818152606a6020908152604080832094871680845294825291829020805460ff191686151590811790915591519182527f17307eab39ab6107e8899845ad3d59bd9653f200f220920489ca2b5937696c31910160405180910390a3505050565b60608151600014156140c057505060408051602081019091526000815290565b600060405180606001604052806040815260200161671b60409139905060006003845160026140ef9190616048565b6140f99190615d5f565b614104906004615d40565b90506000614113826020616048565b67ffffffffffffffff81111561412b5761412b6158a0565b6040519080825280601f01601f191660200182016040528015614155576020820181803683370190505b509050818152600183018586518101602084015b818310156141c1576003830192508251603f8160121c168501518253600182019150603f81600c1c168501518253600182019150603f8160061c168501518253600182019150603f8116850151825350600101614169565b6003895106600181146141db57600281146141ec576141f8565b613d3d60f01b6001198301526141f8565b603d60f81b6000198301525b509398975050505050505050565b61420f81613b2c565b61421857600080fd5b600081815261016d6020526040902060050154600160a01b900460ff168061424d5750600081815261016d6020526040902054155b6142bf5760405162461bcd60e51b815260206004820152603860248201527f41756374696f6e2068617320616c7265616479206265656e20736574746c656460448201527f206f72203173742041756374696f6e206f6620746f6b656e00000000000000006064820152608401610e27565b4360006142ca613f2f565b6142d49083616048565b610160805460408051928301815260006020808501829052848301829052606085018290526080850182905260a0850182905260c0850182905260e0850182905261010085018290526101208501829052610140850191909152878452905163bf40fac160e01b81526004810191909152601860248201527729a7aaa62fa0aaa1aa24a7a72fa2a92199182faa27a5a2a760411b60448201529293506001600160a01b031691829063bf40fac190606401602060405180830381865afa1580156143a2573d6000803e3d6000fd5b505050506040513d601f19601f820116820180604052508101906143c69190615e3c565b6001600160a01b0316602082018190526143ed57610164546001600160a01b031660208201525b60006040828101829052606083018690526080830185905260a0830182905260c083019190915251636d12dce160e01b815260206004820152601860248201527f534f554c5f41554354494f4e5f54494d455f425546464552000000000000000060448201526001600160a01b03831690636d12dce190606401602060405180830381865afa158015614484573d6000803e3d6000fd5b505050506040513d601f19601f820116820180604052508101906144a8919061602f565b60e0820152604051636d12dce160e01b815260206004820152601a60248201527f534f554c5f41554354494f4e5f524553455256455f505249434500000000000060448201526001600160a01b03831690636d12dce190606401602060405180830381865afa15801561451f573d6000803e3d6000fd5b505050506040513d601f19601f82011682018060405250810190614543919061602f565b610100820152604051636d12dce160e01b815260206004820152602560248201527f534f554c5f41554354494f4e5f4d494e5f4249445f494e4352454153455f50456044820152641490d1539560da1b60648201526001600160a01b03831690636d12dce190608401602060405180830381865afa1580156145c9573d6000803e3d6000fd5b505050506040513d601f19601f820116820180604052508101906145ed919061602f565b61012082015261016b805490600061460483615ff0565b919050555061461561016b54613a8f565b6146228260600151613a8f565b61462f8360800151613a8f565b61463888613a8f565b60405160200161464b9493929190616525565b60405160208183030381529060405280519060200120816101400181815250508061016d60008781526020019081526020016000206000820151816000015560208201518160010160006101000a8154816001600160a01b0302191690836001600160a01b0316021790555060408201518160020155606082015181600301556080820151816004015560a08201518160050160006101000a8154816001600160a01b0302191690836001600160a01b0316021790555060c08201518160050160146101000a81548160ff02191690831515021790555060e082015181600601556101008201518160070155610120820151816008015561014082015181600901559050508061016e600083610140015181526020019081526020016000206000820151816000015560208201518160010160006101000a8154816001600160a01b0302191690836001600160a01b0316021790555060408201518160020155606082015181600301556080820151816004015560a08201518160050160006101000a8154816001600160a01b0302191690836001600160a01b0316021790555060c08201518160050160146101000a81548160ff02191690831515021790555060e08201518160060155610100820151816007015561012082015181600801556101408201518160090155905050306001600160a01b031661484d866116f6565b6001600160a01b03161461486e5761486e614867866116f6565b308761337c565b847fb404e07dbfe9071da655c32567071b2ee4e88867784a1b39f01a8457787e504f858533856101400151866040516148ab95949392919061657c565b60405180910390a25050505050565b600081815261016e6020526040902060050154600160a01b900460ff166148e057600080fd5b600081815261016e60205260409020600501546001600160a01b038481169116141561490b57600080fd5b600082815261016f6020908152604080832084845282528083206001600160a01b038716845290915290205461494057600080fd5b600082815261016f6020908152604080832084845282528083206001600160a01b0380881685529083528184205461016c845282852086865261016e85528386206001015490921685529252822080549192909161499f908490616048565b9091555050600091825261016f602090815260408084209284529181528183206001600160a01b0390941683529290925290812055565b826001600160a01b03166149e9826132ae565b6001600160a01b031614614a0f5760405162461bcd60e51b8152600401610e279061664e565b6001600160a01b038216614a715760405162461bcd60e51b8152602060048201526024808201527f4552433732313a207472616e7366657220746f20746865207a65726f206164646044820152637265737360e01b6064820152608401610e27565b614a7e83838360016151d1565b826001600160a01b0316614a91826132ae565b6001600160a01b031614614ab75760405162461bcd60e51b8152600401610e279061664e565b600081815260696020908152604080832080546001600160a01b03199081169091556001600160a01b0387811680865260688552838620805460001901905590871680865283862080546001019055868652606790945282852080549092168417909155905184937fddf252ad1be2c89b69c2b068fc378daa952ba7f163c4a11628f55a4df523b3ef91a4505050565b7aff00000000000000ff00000000000000ff00000000000000ff00006bffffffff0000000000000000604083901c90811663ffffffff60c01b84161760201c63ffffffff60601b919091166001600160e01b031984161717601081901c9182167eff00000000000000ff00000000000000ff00000000000000ff000000000000821617600890811c7bff00000000000000ff00000000000000ff00000000000000ff000000939093167fff00000000000000ff00000000000000ff00000000000000ff000000000000009290921691909117919091179081901c7e0f000f000f000f000f000f000f000f000f000f000f000f000f000f000f000f167f0f000f000f000f000f000f000f000f000f000f000f000f000f000f000f000f00600492831c161790614c95827f0606060606060606060606060606060606060606060606060606060606060606616048565b901c7f0f0f0f0f0f0f0f0f0f0f0f0f0f0f0f0f0f0f0f0f0f0f0f0f0f0f0f0f0f0f0f0f166007614cc59190615d40565b614cef827f3030303030303030303030303030303030303030303030303030303030303030616048565b610cad9190616048565b60606000614d08836002615d40565b614d13906002616048565b67ffffffffffffffff811115614d2b57614d2b6158a0565b6040519080825280601f01601f191660200182016040528015614d55576020820181803683370190505b509050600360fc1b81600081518110614d7057614d70615fda565b60200101906001600160f81b031916908160001a905350600f60fb1b81600181518110614d9f57614d9f615fda565b60200101906001600160f81b031916908160001a9053506000614dc3846002615d40565b614dce906001616048565b90505b6001811115614e46576f181899199a1a9b1b9c1cb0b131b232b360811b85600f1660108110614e0257614e02615fda565b1a60f81b828281518110614e1857614e18615fda565b60200101906001600160f81b031916908160001a90535060049490941c93614e3f81616693565b9050614dd1565b508315614e955760405162461bcd60e51b815260206004820181905260248201527f537472696e67733a20686578206c656e67746820696e73756666696369656e746044820152606401610e27565b9392505050565b60008072184f03e93ff9f4daa797ed6e38ed64bf6a1f0160401b8310614edb5772184f03e93ff9f4daa797ed6e38ed64bf6a1f0160401b830492506040015b6d04ee2d6d415b85acef81000000008310614f07576d04ee2d6d415b85acef8100000000830492506020015b662386f26fc100008310614f2557662386f26fc10000830492506010015b6305f5e1008310614f3d576305f5e100830492506008015b6127108310614f5157612710830492506004015b60648310614f63576064830492506002015b600a8310610cad5760010192915050565b6040517f19457468657265756d205369676e6564204d6573736167653a0a3332000000006020820152603c8101829052600090605c0161160c565b6000806000614fbe8585615244565b91509150613b248161528a565b614fd583836153d8565b614fe260008484846150d6565b610ec85760405162461bcd60e51b8152600401610e27906164d3565b600054610100900460ff166150255760405162461bcd60e51b8152600401610e2790616488565b81516150389060659060208501906156d8565b508051610ec89060669060208401906156d8565b600054610100900460ff16613a265760405162461bcd60e51b8152600401610e2790616488565b600054610100900460ff1661509a5760405162461bcd60e51b8152600401610e2790616488565b6097805460ff19169055565b600054610100900460ff166150cd5760405162461bcd60e51b8152600401610e2790616488565b6117d233613cc0565b60006001600160a01b0384163b156151c957604051630a85bd0160e11b81526001600160a01b0385169063150b7a029061511a9033908990889088906004016166aa565b6020604051808303816000875af1925050508015615155575060408051601f3d908101601f19168201909252615152918101906166e7565b60015b6151af573d808015615183576040519150601f19603f3d011682016040523d82523d6000602084013e615188565b606091505b5080516151a75760405162461bcd60e51b8152600401610e27906164d3565b805181602001fd5b6001600160e01b031916630a85bd0160e11b1490506116ee565b5060016116ee565b6151dd84848484615411565b60975460ff1615612cfa5760405162461bcd60e51b815260206004820152602b60248201527f4552433732315061757361626c653a20746f6b656e207472616e73666572207760448201526a1a1a5b19481c185d5cd95960aa1b6064820152608401610e27565b60008082516041141561527b5760208301516040840151606085015160001a61526f87828585615499565b94509450505050615283565b506000905060025b9250929050565b600081600481111561529e5761529e616704565b14156152a75750565b60018160048111156152bb576152bb616704565b14156153095760405162461bcd60e51b815260206004820152601860248201527f45434453413a20696e76616c6964207369676e617475726500000000000000006044820152606401610e27565b600281600481111561531d5761531d616704565b141561536b5760405162461bcd60e51b815260206004820152601f60248201527f45434453413a20696e76616c6964207369676e6174757265206c656e677468006044820152606401610e27565b600381600481111561537f5761537f616704565b1415610fbe5760405162461bcd60e51b815260206004820152602260248201527f45434453413a20696e76616c6964207369676e6174757265202773272076616c604482015261756560f01b6064820152608401610e27565b6153e2828261555d565b60009081526101686020526040902080546001600160a01b0319166001600160a01b0392909216919091179055565b6001811115612cfa576001600160a01b03841615615457576001600160a01b0384166000908152606860205260408120805483929061545190849061614e565b90915550505b6001600160a01b03831615612cfa576001600160a01b0383166000908152606860205260408120805483929061548e908490616048565b909155505050505050565b6000807f7fffffffffffffffffffffffffffffff5d576e7357a4501ddfe92f46681b20a08311156154d05750600090506003615554565b6040805160008082526020820180845289905260ff881692820192909252606081018690526080810185905260019060a0016020604051602081039080840390855afa158015615524573d6000803e3d6000fd5b5050604051601f1901519150506001600160a01b03811661554d57600060019250925050615554565b9150600090505b94509492505050565b6001600160a01b0382166155b35760405162461bcd60e51b815260206004820181905260248201527f4552433732313a206d696e7420746f20746865207a65726f20616464726573736044820152606401610e27565b6155bc81613b2c565b156156095760405162461bcd60e51b815260206004820152601c60248201527f4552433732313a20746f6b656e20616c7265616479206d696e746564000000006044820152606401610e27565b6156176000838360016151d1565b61562081613b2c565b1561566d5760405162461bcd60e51b815260206004820152601c60248201527f4552433732313a20746f6b656e20616c7265616479206d696e746564000000006044820152606401610e27565b6001600160a01b038216600081815260686020908152604080832080546001019055848352606790915280822080546001600160a01b0319168417905551839291907fddf252ad1be2c89b69c2b068fc378daa952ba7f163c4a11628f55a4df523b3ef908290a45050565b8280546156e490615cef565b90600052602060002090601f016020900481019282615706576000855561574c565b82601f1061571f57805160ff191683800117855561574c565b8280016001018555821561574c579182015b8281111561574c578251825591602001919060010190615731565b5061575892915061575c565b5090565b5b80821115615758576000815560010161575d565b6001600160e01b031981168114610fbe57600080fd5b60006020828403121561579957600080fd5b8135614e9581615771565b6000806000606084860312156157b957600080fd5b505081359360208301359350604090920135919050565b60005b838110156157eb5781810151838201526020016157d3565b83811115612cfa5750506000910152565b600081518084526158148160208601602086016157d0565b601f01601f19169290920160200192915050565b602081526000614e9560208301846157fc565b60006020828403121561584d57600080fd5b5035919050565b6001600160a01b0381168114610fbe57600080fd5b8035613bf081615854565b6000806040838503121561588757600080fd5b823561589281615854565b946020939093013593505050565b634e487b7160e01b600052604160045260246000fd5b604051601f8201601f1916810167ffffffffffffffff811182821017156158df576158df6158a0565b604052919050565b600067ffffffffffffffff821115615901576159016158a0565b50601f01601f191660200190565b600061592261591d846158e7565b6158b6565b905082815283838301111561593657600080fd5b828260208301376000602084830101529392505050565b600082601f83011261595e57600080fd5b614e958383356020850161590f565b60006020828403121561597f57600080fd5b813567ffffffffffffffff81111561599657600080fd5b6116ee8482850161594d565b6000602082840312156159b457600080fd5b8135614e9581615854565b6000806000606084860312156159d457600080fd5b83356159df81615854565b925060208401356159ef81615854565b929592945050506040919091013590565b60008060408385031215615a1357600080fd5b50508035926020909101359150565b600080600060608486031215615a3757600080fd5b83359250602084013591506040840135615a5081615854565b809150509250925092565b60008060008060608587031215615a7157600080fd5b8435615a7c81615854565b935060208501359250604085013567ffffffffffffffff80821115615aa057600080fd5b818701915087601f830112615ab457600080fd5b813581811115615ac357600080fd5b886020828501011115615ad557600080fd5b95989497505060200194505050565b6020808252825182820181905260009190848201906040850190845b81811015615b1c57835183529284019291840191600101615b00565b50909695505050505050565b600080600080600080600080610100898b031215615b4557600080fd5b883567ffffffffffffffff80821115615b5d57600080fd5b615b698c838d0161594d565b995060208b0135915080821115615b7f57600080fd5b50615b8c8b828c0161594d565b9750506040890135615b9d81615854565b95506060890135615bad81615854565b94506080890135615bbd81615854565b935060a0890135615bcd81615854565b925060c0890135615bdd81615854565b9150615beb60e08a01615869565b90509295985092959890939650565b8015158114610fbe57600080fd5b60008060408385031215615c1b57600080fd5b8235615c2681615854565b91506020830135615c3681615bfa565b809150509250929050565b60008060008060808587031215615c5757600080fd5b8435615c6281615854565b93506020850135615c7281615854565b925060408501359150606085013567ffffffffffffffff811115615c9557600080fd5b8501601f81018713615ca657600080fd5b615cb58782356020840161590f565b91505092959194509250565b60008060408385031215615cd457600080fd5b8235615cdf81615854565b91506020830135615c3681615854565b600181811c90821680615d0357607f821691505b60208210811415615d2457634e487b7160e01b600052602260045260246000fd5b50919050565b634e487b7160e01b600052601160045260246000fd5b6000816000190483118215151615615d5a57615d5a615d2a565b500290565b600082615d7c57634e487b7160e01b600052601260045260246000fd5b500490565b60008351615d938184602088016157d0565b696c657420736565643d2760b01b9083019081528351615dba81600a8401602088016157d0565b61273b60f01b600a9290910191820152600c01949350505050565b60008351615de78184602088016157d0565b7f6c657420474d5f434f4e54524143545f414444524553533d27000000000000009083019081528351615e218160198401602088016157d0565b61273b60f01b60199290910191820152601b01949350505050565b600060208284031215615e4e57600080fd5b8151614e9581615854565b60008351615e6b8184602088016157d0565b80830190507f6c657420535741505f504f4f4c5f474d5f4554485f434f4e54524143545f414481526644524553533d2760c81b60208201528351615eb68160278401602088016157d0565b61273b60f01b60279290910191820152602901949350505050565b60008351615ee38184602088016157d0565b7f6c657420736f6c617269734e6674436f6e7472616374416464726573733d27009083019081528351615f1d81601f8401602088016157d0565b61273b60f01b601f9290910191820152602101949350505050565b60008351615f4a8184602088016157d0565b6d6c657420544f4b454e5f49443d2760901b9083019081528351615f7581600e8401602088016157d0565b61273b60f01b600e9290910191820152601001949350505050565b60008251615fa28184602087016157d0565b681e17b9b1b934b83a1f60b91b920191825250600901919050565b600060208284031215615fcf57600080fd5b8151614e9581615bfa565b634e487b7160e01b600052603260045260246000fd5b600060001982141561600457616004615d2a565b5060010190565b6001600160a01b03831681526040602082018190526000906116ee908301846157fc565b60006020828403121561604157600080fd5b5051919050565b6000821982111561605b5761605b615d2a565b500190565b6001600160a01b0384168152606060208201819052600090616084908301856157fc565b9050826040830152949350505050565b60006160a261591d846158e7565b90508281528383830111156160b657600080fd5b614e958360208301846157d0565b600080604083850312156160d757600080fd5b825167ffffffffffffffff8111156160ee57600080fd5b8301601f810185136160ff57600080fd5b61610e85825160208401616094565b925050602083015190509250929050565b600083516161318184602088016157d0565b8351908301906161458183602088016157d0565b01949350505050565b60008282101561616057616160615d2a565b500390565b8054825260018101546001600160a01b03166001600160a01b03811660208401525060028101546040830152600381015460608301526004810154608083015260058101546001600160a01b03811660a08401526161cd60c0840160ff8360a01c1615159052565b50600681015460e0830152600781015461010083015260088101546101208301526009015461014090910152565b6001600160a01b03851681526020810184905282151560408201526101c081016162286060830184616165565b95945050505050565b8281526101808101614e956020830184616165565b60006020828403121561625857600080fd5b815167ffffffffffffffff81111561626f57600080fd5b8201601f8101841361628057600080fd5b6116ee84825160208401616094565b600082516162a18184602087016157d0565b9190910192915050565b7519185d184e9d195e1d0bda1d1b5b0ed8985cd94d8d0b60521b8152600082516162dc8160168501602087016157d0565b9190910160160192915050565b7216101130b734b6b0ba34b7b72fbab936111d1160691b815281516000906163188160138501602087016157d0565b601160f91b6013939091019283015250601401919050565b7f7b226e616d65223a22222c226465736372697074696f6e223a2022220000000081526c16101134b6b0b3b2911d10111160991b601c820152815160009061637f8160298501602087016157d0565b7116101130ba3a3934b13aba32b9911d10111160711b6029939091019283015250607d60f81b603b820152603c01919050565b6000835160206163c582858389016157d0565b845491840191600090600181811c90808316806163e357607f831692505b85831081141561640157634e487b7160e01b85526022600452602485fd5b808015616415576001811461642657616453565b60ff19851688528388019550616453565b60008b81526020902060005b8581101561644b5781548a820152908401908801616432565b505083880195505b50939a9950505050505050505050565b6001600160a01b0384168152602081018390526101a081016116ee6040830184616165565b6020808252602b908201527f496e697469616c697a61626c653a20636f6e7472616374206973206e6f74206960408201526a6e697469616c697a696e6760a81b606082015260800190565b60208082526032908201527f4552433732313a207472616e7366657220746f206e6f6e20455243373231526560408201527131b2b4bb32b91034b6b83632b6b2b73a32b960711b606082015260800190565b60008551616537818460208a016157d0565b85519083019061654b818360208a016157d0565b855191019061655e8183602089016157d0565b84519101906165718183602088016157d0565b019695505050505050565b85815260208082018690526001600160a01b038516604083015260608201849052825160808301528201516101e08201906165c260a08401826001600160a01b03169052565b50604083015160c0830152606083015160e08301526080830151610100818185015260a08501519150610120616602818601846001600160a01b03169052565b60c086015192506101406166198187018515159052565b60e0870151610160870152918601516101808601528501516101a0850152909301516101c09092019190915295945050505050565b60208082526025908201527f4552433732313a207472616e736665722066726f6d20696e636f72726563742060408201526437bbb732b960d91b606082015260800190565b6000816166a2576166a2615d2a565b506000190190565b6001600160a01b03858116825284166020820152604081018390526080606082018190526000906166dd908301846157fc565b9695505050505050565b6000602082840312156166f957600080fd5b8151614e9581615771565b634e487b7160e01b600052602160045260246000fdfe4142434445464748494a4b4c4d4e4f505152535455565758595a6162636465666768696a6b6c6d6e6f707172737475767778797a303132333435363738392b2f3c7363726970742073616e64626f783d27616c6c6f772d736372697074732720747970653d27746578742f6a617661736372697074273ea264697066735822122053baca7bcde57969ec3f3f1dbff751ce99a8e024ef621e987e99a99e79abcae764736f6c634300080c0033",
  "linkReferences": {},
  "deployedLinkReferences": {}
}