{
  "_format": "hh-sol-artifact-1",
  "contractName": "SOUL",
  "sourceName": "contracts/nfts/SOUL.sol",
  "abi": [
    {
      "anonymous": false,
      "inputs": [
        {
          "indexed": true,
          "internalType": "address",
          "name": "owner",
          "type": "address"
        },
        {
          "indexed": true,
          "internalType": "address",
          "name": "approved",
          "type": "address"
        },
        {
          "indexed": true,
          "internalType": "uint256",
          "name": "tokenId",
          "type": "uint256"
        }
      ],
      "name": "Approval",
      "type": "event"
    },
    {
      "anonymous": false,
      "inputs": [
        {
          "indexed": true,
          "internalType": "address",
          "name": "owner",
          "type": "address"
        },
        {
          "indexed": true,
          "internalType": "address",
          "name": "operator",
          "type": "address"
        },
        {
          "indexed": false,
          "internalType": "bool",
          "name": "approved",
          "type": "bool"
        }
      ],
      "name": "ApprovalForAll",
      "type": "event"
    },
    {
      "anonymous": false,
      "inputs": [
        {
          "indexed": true,
          "internalType": "uint256",
          "name": "tokenId",
          "type": "uint256"
        },
        {
          "indexed": false,
          "internalType": "address",
          "name": "sender",
          "type": "address"
        },
        {
          "indexed": false,
          "internalType": "uint256",
          "name": "value",
          "type": "uint256"
        },
        {
          "indexed": false,
          "internalType": "bool",
          "name": "extended",
          "type": "bool"
        }
      ],
      "name": "AuctionBid",
      "type": "event"
    },
    {
      "anonymous": false,
      "inputs": [
        {
          "indexed": true,
          "internalType": "uint256",
          "name": "tokenId",
          "type": "uint256"
        },
        {
          "indexed": false,
          "internalType": "address",
          "name": "sender",
          "type": "address"
        },
        {
          "indexed": false,
          "internalType": "uint256",
          "name": "value",
          "type": "uint256"
        }
      ],
      "name": "AuctionClaimBid",
      "type": "event"
    },
    {
      "anonymous": false,
      "inputs": [
        {
          "indexed": true,
          "internalType": "uint256",
          "name": "tokenId",
          "type": "uint256"
        }
      ],
      "name": "AuctionClosed",
      "type": "event"
    },
    {
      "anonymous": false,
      "inputs": [
        {
          "indexed": true,
          "internalType": "uint256",
          "name": "tokenId",
          "type": "uint256"
        },
        {
          "indexed": false,
          "internalType": "uint256",
          "name": "startTime",
          "type": "uint256"
        },
        {
          "indexed": false,
          "internalType": "uint256",
          "name": "endTime",
          "type": "uint256"
        }
      ],
      "name": "AuctionCreated",
      "type": "event"
    },
    {
      "anonymous": false,
      "inputs": [
        {
          "indexed": true,
          "internalType": "uint256",
          "name": "tokenId",
          "type": "uint256"
        },
        {
          "indexed": false,
          "internalType": "uint256",
          "name": "endTime",
          "type": "uint256"
        }
      ],
      "name": "AuctionExtended",
      "type": "event"
    },
    {
      "anonymous": false,
      "inputs": [
        {
          "indexed": false,
          "internalType": "uint256",
          "name": "minBidIncrementPercentage",
          "type": "uint256"
        }
      ],
      "name": "AuctionMinBidIncrementPercentageUpdated",
      "type": "event"
    },
    {
      "anonymous": false,
      "inputs": [
        {
          "indexed": false,
          "internalType": "uint256",
          "name": "reservePrice",
          "type": "uint256"
        }
      ],
      "name": "AuctionReservePriceUpdated",
      "type": "event"
    },
    {
      "anonymous": false,
      "inputs": [
        {
          "indexed": true,
          "internalType": "uint256",
          "name": "tokenId",
          "type": "uint256"
        },
        {
          "indexed": false,
          "internalType": "address",
          "name": "winner",
          "type": "address"
        },
        {
          "indexed": false,
          "internalType": "uint256",
          "name": "amount",
          "type": "uint256"
        }
      ],
      "name": "AuctionSettled",
      "type": "event"
    },
    {
      "anonymous": false,
      "inputs": [
        {
          "indexed": false,
          "internalType": "uint256",
          "name": "timeBuffer",
          "type": "uint256"
        }
      ],
      "name": "AuctionTimeBufferUpdated",
      "type": "event"
    },
    {
      "anonymous": false,
      "inputs": [
        {
          "indexed": true,
          "internalType": "address",
          "name": "reserver",
          "type": "address"
        },
        {
          "indexed": true,
          "internalType": "uint256",
          "name": "tokenId",
          "type": "uint256"
        },
        {
          "indexed": true,
          "internalType": "address",
          "name": "owner",
          "type": "address"
        },
        {
          "indexed": false,
          "internalType": "uint256",
          "name": "blockNumber",
          "type": "uint256"
        }
      ],
      "name": "Claim",
      "type": "event"
    },
    {
      "anonymous": false,
      "inputs": [
        {
          "indexed": false,
          "internalType": "uint8",
          "name": "version",
          "type": "uint8"
        }
      ],
      "name": "Initialized",
      "type": "event"
    },
    {
      "anonymous": false,
      "inputs": [
        {
          "indexed": true,
          "internalType": "address",
          "name": "previousOwner",
          "type": "address"
        },
        {
          "indexed": true,
          "internalType": "address",
          "name": "newOwner",
          "type": "address"
        }
      ],
      "name": "OwnershipTransferred",
      "type": "event"
    },
    {
      "anonymous": false,
      "inputs": [
        {
          "indexed": false,
          "internalType": "address",
          "name": "account",
          "type": "address"
        }
      ],
      "name": "Paused",
      "type": "event"
    },
    {
      "anonymous": false,
      "inputs": [
        {
          "indexed": true,
          "internalType": "address",
          "name": "reserver",
          "type": "address"
        },
        {
          "indexed": true,
          "internalType": "uint256",
          "name": "tokenId",
          "type": "uint256"
        },
        {
          "indexed": true,
          "internalType": "address",
          "name": "owner",
          "type": "address"
        },
        {
          "indexed": false,
          "internalType": "uint256",
          "name": "blockNumber",
          "type": "uint256"
        }
      ],
      "name": "Reserve",
      "type": "event"
    },
    {
      "anonymous": false,
      "inputs": [
        {
          "indexed": true,
          "internalType": "address",
          "name": "from",
          "type": "address"
        },
        {
          "indexed": true,
          "internalType": "address",
          "name": "to",
          "type": "address"
        },
        {
          "indexed": true,
          "internalType": "uint256",
          "name": "tokenId",
          "type": "uint256"
        }
      ],
      "name": "Transfer",
      "type": "event"
    },
    {
      "anonymous": false,
      "inputs": [
        {
          "indexed": false,
          "internalType": "address",
          "name": "account",
          "type": "address"
        }
      ],
      "name": "Unpaused",
      "type": "event"
    },
    {
      "inputs": [],
      "name": "_admin",
      "outputs": [
        {
          "internalType": "address",
          "name": "",
          "type": "address"
        }
      ],
      "stateMutability": "view",
      "type": "function"
    },
    {
      "inputs": [
        {
          "internalType": "uint256",
          "name": "",
          "type": "uint256"
        }
      ],
      "name": "_auctions",
      "outputs": [
        {
          "internalType": "uint256",
          "name": "tokenId",
          "type": "uint256"
        },
        {
          "internalType": "address",
          "name": "erc20Token",
          "type": "address"
        },
        {
          "internalType": "uint256",
          "name": "amount",
          "type": "uint256"
        },
        {
          "internalType": "uint256",
          "name": "startTime",
          "type": "uint256"
        },
        {
          "internalType": "uint256",
          "name": "endTime",
          "type": "uint256"
        },
        {
          "internalType": "address payable",
          "name": "bidder",
          "type": "address"
        },
        {
          "internalType": "bool",
          "name": "settled",
          "type": "bool"
        },
        {
          "internalType": "uint256",
          "name": "timeBuffer",
          "type": "uint256"
        },
        {
          "internalType": "uint256",
          "name": "reservePrice",
          "type": "uint256"
        },
        {
          "internalType": "uint256",
          "name": "minBidIncrementPercentage",
          "type": "uint256"
        }
      ],
      "stateMutability": "view",
      "type": "function"
    },
    {
      "inputs": [],
      "name": "_bfs",
      "outputs": [
        {
          "internalType": "address",
          "name": "",
          "type": "address"
        }
      ],
      "stateMutability": "view",
      "type": "function"
    },
    {
      "inputs": [
        {
          "internalType": "uint256",
          "name": "",
          "type": "uint256"
        },
        {
          "internalType": "address",
          "name": "",
          "type": "address"
        }
      ],
      "name": "_bidders",
      "outputs": [
        {
          "internalType": "uint256",
          "name": "",
          "type": "uint256"
        }
      ],
      "stateMutability": "view",
      "type": "function"
    },
    {
      "inputs": [],
      "name": "_gmToken",
      "outputs": [
        {
          "internalType": "address",
          "name": "",
          "type": "address"
        }
      ],
      "stateMutability": "view",
      "type": "function"
    },
    {
      "inputs": [],
      "name": "_maxSupply",
      "outputs": [
        {
          "internalType": "uint256",
          "name": "",
          "type": "uint256"
        }
      ],
      "stateMutability": "view",
      "type": "function"
    },
    {
      "inputs": [
        {
          "internalType": "uint256",
          "name": "",
          "type": "uint256"
        }
      ],
      "name": "_mintAt",
      "outputs": [
        {
          "internalType": "uint256",
          "name": "",
          "type": "uint256"
        }
      ],
      "stateMutability": "view",
      "type": "function"
    },
    {
      "inputs": [
        {
          "internalType": "address",
          "name": "",
          "type": "address"
        }
      ],
      "name": "_minted",
      "outputs": [
        {
          "internalType": "uint256",
          "name": "",
          "type": "uint256"
        }
      ],
      "stateMutability": "view",
      "type": "function"
    },
    {
      "inputs": [],
      "name": "_paramsAddress",
      "outputs": [
        {
          "internalType": "address",
          "name": "",
          "type": "address"
        }
      ],
      "stateMutability": "view",
      "type": "function"
    },
    {
      "inputs": [],
      "name": "_randomizerAddr",
      "outputs": [
        {
          "internalType": "address",
          "name": "",
          "type": "address"
        }
      ],
      "stateMutability": "view",
      "type": "function"
    },
    {
      "inputs": [],
      "name": "_script",
      "outputs": [
        {
          "internalType": "string",
          "name": "",
          "type": "string"
        }
      ],
      "stateMutability": "view",
      "type": "function"
    },
    {
      "inputs": [],
      "name": "_signerMint",
      "outputs": [
        {
          "internalType": "address",
          "name": "",
          "type": "address"
        }
      ],
      "stateMutability": "view",
      "type": "function"
    },
    {
      "inputs": [
        {
          "internalType": "address",
          "name": "to",
          "type": "address"
        },
        {
          "internalType": "uint256",
          "name": "tokenId",
          "type": "uint256"
        }
      ],
      "name": "approve",
      "outputs": [],
      "stateMutability": "nonpayable",
      "type": "function"
    },
    {
      "inputs": [
        {
          "internalType": "uint256",
          "name": "tokenId",
          "type": "uint256"
        }
      ],
      "name": "available",
      "outputs": [
        {
          "internalType": "bool",
          "name": "",
          "type": "bool"
        }
      ],
      "stateMutability": "view",
      "type": "function"
    },
    {
      "inputs": [
        {
          "internalType": "address",
          "name": "owner",
          "type": "address"
        }
      ],
      "name": "balanceOf",
      "outputs": [
        {
          "internalType": "uint256",
          "name": "",
          "type": "uint256"
        }
      ],
      "stateMutability": "view",
      "type": "function"
    },
    {
      "inputs": [
        {
          "internalType": "address",
          "name": "to",
          "type": "address"
        },
        {
          "internalType": "uint256",
          "name": "n",
          "type": "uint256"
        },
        {
          "internalType": "bytes",
          "name": "signatures",
          "type": "bytes"
        }
      ],
      "name": "batchMint",
      "outputs": [
        {
          "internalType": "uint256[]",
          "name": "",
          "type": "uint256[]"
        }
      ],
      "stateMutability": "payable",
      "type": "function"
    },
    {
      "inputs": [
        {
          "internalType": "address",
          "name": "newAdm",
          "type": "address"
        }
      ],
      "name": "changeAdmin",
      "outputs": [],
      "stateMutability": "nonpayable",
      "type": "function"
    },
    {
      "inputs": [
        {
          "internalType": "address",
          "name": "newBfs",
          "type": "address"
        }
      ],
      "name": "changeBfs",
      "outputs": [],
      "stateMutability": "nonpayable",
      "type": "function"
    },
    {
      "inputs": [
        {
          "internalType": "address",
          "name": "newBrc20",
          "type": "address"
        }
      ],
      "name": "changeBrc20Token",
      "outputs": [],
      "stateMutability": "nonpayable",
      "type": "function"
    },
    {
      "inputs": [
        {
          "internalType": "address",
          "name": "newAddr",
          "type": "address"
        }
      ],
      "name": "changeParamAddr",
      "outputs": [],
      "stateMutability": "nonpayable",
      "type": "function"
    },
    {
      "inputs": [
        {
          "internalType": "address",
          "name": "newAddr",
          "type": "address"
        }
      ],
      "name": "changeRandomizerAddr",
      "outputs": [],
      "stateMutability": "nonpayable",
      "type": "function"
    },
    {
      "inputs": [
        {
          "internalType": "string",
          "name": "newScript",
          "type": "string"
        }
      ],
      "name": "changeScript",
      "outputs": [],
      "stateMutability": "nonpayable",
      "type": "function"
    },
    {
      "inputs": [
        {
          "internalType": "address",
          "name": "newAdd",
          "type": "address"
        }
      ],
      "name": "changeSignerMint",
      "outputs": [],
      "stateMutability": "nonpayable",
      "type": "function"
    },
    {
      "inputs": [
        {
          "internalType": "uint256",
          "name": "tokenId",
          "type": "uint256"
        }
      ],
      "name": "claimBid",
      "outputs": [],
      "stateMutability": "nonpayable",
      "type": "function"
    },
    {
      "inputs": [
        {
          "internalType": "uint256",
          "name": "tokenId",
          "type": "uint256"
        }
      ],
      "name": "createAuction",
      "outputs": [],
      "stateMutability": "nonpayable",
      "type": "function"
    },
    {
      "inputs": [
        {
          "internalType": "uint256",
          "name": "tokenId",
          "type": "uint256"
        },
        {
          "internalType": "uint256",
          "name": "amount",
          "type": "uint256"
        }
      ],
      "name": "createBid",
      "outputs": [],
      "stateMutability": "payable",
      "type": "function"
    },
    {
      "inputs": [
        {
          "internalType": "uint256",
          "name": "tokenId",
          "type": "uint256"
        }
      ],
      "name": "getApproved",
      "outputs": [
        {
          "internalType": "address",
          "name": "",
          "type": "address"
        }
      ],
      "stateMutability": "view",
      "type": "function"
    },
    {
      "inputs": [
        {
          "internalType": "address",
          "name": "user",
          "type": "address"
        },
        {
          "internalType": "uint256",
          "name": "totalGM",
          "type": "uint256"
        }
      ],
      "name": "getMessageHash",
      "outputs": [
        {
          "internalType": "bytes32",
          "name": "",
          "type": "bytes32"
        }
      ],
      "stateMutability": "view",
      "type": "function"
    },
    {
      "inputs": [
        {
          "internalType": "string",
          "name": "name",
          "type": "string"
        },
        {
          "internalType": "string",
          "name": "symbol",
          "type": "string"
        },
        {
          "internalType": "address",
          "name": "admin",
          "type": "address"
        },
        {
          "internalType": "address",
          "name": "paramsAddress",
          "type": "address"
        },
        {
          "internalType": "address",
          "name": "randomizerAddr",
          "type": "address"
        },
        {
          "internalType": "address",
          "name": "gmToken",
          "type": "address"
        },
        {
          "internalType": "address",
          "name": "bfs",
          "type": "address"
        },
        {
          "internalType": "address",
          "name": "signerMint",
          "type": "address"
        }
      ],
      "name": "initialize",
      "outputs": [],
      "stateMutability": "nonpayable",
      "type": "function"
    },
    {
      "inputs": [
        {
          "internalType": "address",
          "name": "owner",
          "type": "address"
        },
        {
          "internalType": "address",
          "name": "operator",
          "type": "address"
        }
      ],
      "name": "isApprovedForAll",
      "outputs": [
        {
          "internalType": "bool",
          "name": "",
          "type": "bool"
        }
      ],
      "stateMutability": "view",
      "type": "function"
    },
    {
      "inputs": [
        {
          "internalType": "address",
          "name": "to",
          "type": "address"
        },
        {
          "internalType": "uint256",
          "name": "totalGM",
          "type": "uint256"
        },
        {
          "internalType": "bytes",
          "name": "signature",
          "type": "bytes"
        }
      ],
      "name": "mint",
      "outputs": [
        {
          "internalType": "uint256",
          "name": "tokenId",
          "type": "uint256"
        }
      ],
      "stateMutability": "payable",
      "type": "function"
    },
    {
      "inputs": [],
      "name": "name",
      "outputs": [
        {
          "internalType": "string",
          "name": "",
          "type": "string"
        }
      ],
      "stateMutability": "view",
      "type": "function"
    },
    {
      "inputs": [],
      "name": "owner",
      "outputs": [
        {
          "internalType": "address",
          "name": "",
          "type": "address"
        }
      ],
      "stateMutability": "view",
      "type": "function"
    },
    {
      "inputs": [
        {
          "internalType": "uint256",
          "name": "tokenId",
          "type": "uint256"
        }
      ],
      "name": "ownerOf",
      "outputs": [
        {
          "internalType": "address",
          "name": "",
          "type": "address"
        }
      ],
      "stateMutability": "view",
      "type": "function"
    },
    {
      "inputs": [],
      "name": "p5jsScript",
      "outputs": [
        {
          "internalType": "string",
          "name": "result",
          "type": "string"
        }
      ],
      "stateMutability": "view",
      "type": "function"
    },
    {
      "inputs": [],
      "name": "paused",
      "outputs": [
        {
          "internalType": "bool",
          "name": "",
          "type": "bool"
        }
      ],
      "stateMutability": "view",
      "type": "function"
    },
    {
      "inputs": [],
      "name": "renounceOwnership",
      "outputs": [],
      "stateMutability": "nonpayable",
      "type": "function"
    },
    {
      "inputs": [
        {
          "internalType": "uint256",
          "name": "projectId",
          "type": "uint256"
        },
        {
          "internalType": "uint256",
          "name": "_salePrice",
          "type": "uint256"
        }
      ],
      "name": "royaltyInfo",
      "outputs": [
        {
          "internalType": "address",
          "name": "receiver",
          "type": "address"
        },
        {
          "internalType": "uint256",
          "name": "royaltyAmount",
          "type": "uint256"
        }
      ],
      "stateMutability": "view",
      "type": "function"
    },
    {
      "inputs": [
        {
          "internalType": "address",
          "name": "from",
          "type": "address"
        },
        {
          "internalType": "address",
          "name": "to",
          "type": "address"
        },
        {
          "internalType": "uint256",
          "name": "tokenId",
          "type": "uint256"
        }
      ],
      "name": "safeTransferFrom",
      "outputs": [],
      "stateMutability": "nonpayable",
      "type": "function"
    },
    {
      "inputs": [
        {
          "internalType": "address",
          "name": "from",
          "type": "address"
        },
        {
          "internalType": "address",
          "name": "to",
          "type": "address"
        },
        {
          "internalType": "uint256",
          "name": "tokenId",
          "type": "uint256"
        },
        {
          "internalType": "bytes",
          "name": "data",
          "type": "bytes"
        }
      ],
      "name": "safeTransferFrom",
      "outputs": [],
      "stateMutability": "nonpayable",
      "type": "function"
    },
    {
      "inputs": [
        {
          "internalType": "address",
          "name": "operator",
          "type": "address"
        },
        {
          "internalType": "bool",
          "name": "approved",
          "type": "bool"
        }
      ],
      "name": "setApprovalForAll",
      "outputs": [],
      "stateMutability": "nonpayable",
      "type": "function"
    },
    {
      "inputs": [
        {
          "internalType": "uint256",
          "name": "tokenId",
          "type": "uint256"
        }
      ],
      "name": "settleAuction",
      "outputs": [],
      "stateMutability": "nonpayable",
      "type": "function"
    },
    {
      "inputs": [
        {
          "internalType": "bytes4",
          "name": "interfaceId",
          "type": "bytes4"
        }
      ],
      "name": "supportsInterface",
      "outputs": [
        {
          "internalType": "bool",
          "name": "",
          "type": "bool"
        }
      ],
      "stateMutability": "view",
      "type": "function"
    },
    {
      "inputs": [],
      "name": "symbol",
      "outputs": [
        {
          "internalType": "string",
          "name": "",
          "type": "string"
        }
      ],
      "stateMutability": "view",
      "type": "function"
    },
    {
      "inputs": [
        {
          "internalType": "bytes32",
          "name": "seed",
          "type": "bytes32"
        },
        {
          "internalType": "uint256",
          "name": "tokenId",
          "type": "uint256"
        }
      ],
      "name": "tokenHTML",
      "outputs": [
        {
          "internalType": "string",
          "name": "result",
          "type": "string"
        }
      ],
      "stateMutability": "view",
      "type": "function"
    },
    {
      "inputs": [
        {
          "internalType": "uint256",
          "name": "tokenId",
          "type": "uint256"
        }
      ],
      "name": "tokenIdToHash",
      "outputs": [
        {
          "internalType": "bytes32",
          "name": "",
          "type": "bytes32"
        }
      ],
      "stateMutability": "view",
      "type": "function"
    },
    {
      "inputs": [
        {
          "internalType": "uint256",
          "name": "tokenId",
          "type": "uint256"
        }
      ],
      "name": "tokenURI",
      "outputs": [
        {
          "internalType": "string",
          "name": "result",
          "type": "string"
        }
      ],
      "stateMutability": "view",
      "type": "function"
    },
    {
      "inputs": [
        {
          "internalType": "address",
          "name": "from",
          "type": "address"
        },
        {
          "internalType": "address",
          "name": "to",
          "type": "address"
        },
        {
          "internalType": "uint256",
          "name": "tokenId",
          "type": "uint256"
        }
      ],
      "name": "transferFrom",
      "outputs": [],
      "stateMutability": "nonpayable",
      "type": "function"
    },
    {
      "inputs": [
        {
          "internalType": "address",
          "name": "newOwner",
          "type": "address"
        }
      ],
      "name": "transferOwnership",
      "outputs": [],
      "stateMutability": "nonpayable",
      "type": "function"
    },
    {
      "inputs": [
        {
          "internalType": "bytes32",
          "name": "seed",
          "type": "bytes32"
        },
        {
          "internalType": "uint256",
          "name": "tokenId",
          "type": "uint256"
        }
      ],
      "name": "variableScript",
      "outputs": [
        {
          "internalType": "string",
          "name": "result",
          "type": "string"
        }
      ],
      "stateMutability": "view",
      "type": "function"
    },
    {
      "inputs": [],
      "name": "web3Script",
      "outputs": [
        {
          "internalType": "string",
          "name": "result",
          "type": "string"
        }
      ],
      "stateMutability": "view",
      "type": "function"
    }
  ],
  "bytecode": "0x608060405234801561001057600080fd5b50615f0f80620000216000396000f3fe6080604052600436106102e45760003560e01c8063715018a611610190578063a22cb465116100dc578063cc22e00411610095578063eb29c2321161006f578063eb29c232146109f6578063f2fde38b14610a16578063f3f83ddd14610a36578063febfd6c314610a5657600080fd5b8063cc22e0041461095f578063d5563f311461098d578063e985e9c5146109ad57600080fd5b8063a22cb465146108aa578063adfc7dae146108ca578063b7751c71146108eb578063b88d4fde146108fe578063bd8968431461091e578063c87b56dd1461093f57600080fd5b806393c6cdc01161014957806395d89b411161012357806395d89b411461083f57806396e494e8146108545780639c6f35f914610874578063a0d41e111461089557600080fd5b806393c6cdc0146107ec57806394d008ef1461080c57806394f5a66e1461081f57600080fd5b8063715018a61461074057806374973a41146107555780637de77ecc1461076a5780638a016249146107985780638da5cb5b146107ad5780638f283970146107cc57600080fd5b80632b7d13de1161024f578063512c91df11610208578063624de2a9116101e2578063624de2a9146106a85780636352211e146106c857806366215eb4146106ff57806370a082311461072057600080fd5b8063512c91df146106505780635c975abb14610670578063621a1f741461068857600080fd5b80632b7d13de146105765780632d61bd09146105965780632e993611146105cf57806332e32326146105ef578063333489791461060f57806342842e0e1461063057600080fd5b806317dc6bf6116102a157806317dc6bf6146103db5780631ca9741b146104b257806321113057146104d257806322f4596f146104f257806323b872dd146105175780632a55205a1461053757600080fd5b806301bc45c9146102e957806301ffc9a71461032757806306fdde0314610357578063081812fc14610379578063095ea7b314610399578063140f0e07146103bb575b600080fd5b3480156102f557600080fd5b5061015f5461030a906001600160a01b031681565b6040516001600160a01b0390911681526020015b60405180910390f35b34801561033357600080fd5b50610347610342366004615060565b610a76565b604051901515815260200161031e565b34801561036357600080fd5b5061036c610ac8565b60405161031e91906150d5565b34801561038557600080fd5b5061030a6103943660046150e8565b610b5a565b3480156103a557600080fd5b506103b96103b4366004615121565b610b81565b005b3480156103c757600080fd5b506103b96103d636600461521a565b610c9c565b3480156103e757600080fd5b506104566103f63660046150e8565b61016a6020526000908152604090208054600182015460028301546003840154600485015460058601546006870154600788015460089098015496976001600160a01b0396871697959694959394831693600160a01b90930460ff16928a565b604080519a8b526001600160a01b03998a1660208c01528a019790975260608901959095526080880193909352941660a086015292151560c085015260e08401929092526101008301919091526101208201526101400161031e565b3480156104be57600080fd5b506103b96104cd36600461524f565b610cfc565b3480156104de57600080fd5b506103b96104ed3660046150e8565b610d90565b3480156104fe57600080fd5b506105096101655481565b60405190815260200161031e565b34801561052357600080fd5b506103b961053236600461526c565b610f06565b34801561054357600080fd5b506105576105523660046152ad565b610ff1565b604080516001600160a01b03909316835260208301919091520161031e565b34801561058257600080fd5b506103b961059136600461524f565b611022565b3480156105a257600080fd5b506105096105b13660046152cf565b61016b60209081526000928352604080842090915290825290205481565b3480156105db57600080fd5b506103b96105ea3660046150e8565b6110b7565b3480156105fb57600080fd5b5061036c61060a3660046152ad565b61118b565b34801561061b57600080fd5b506101695461030a906001600160a01b031681565b34801561063c57600080fd5b506103b961064b36600461526c565b611374565b34801561065c57600080fd5b5061050961066b366004615121565b61138f565b34801561067c57600080fd5b5060975460ff16610347565b34801561069457600080fd5b506105096106a33660046150e8565b6113ed565b6106bb6106b63660046152ff565b6114bb565b60405161031e9190615388565b3480156106d457600080fd5b5061030a6106e33660046150e8565b600090815261016660205260409020546001600160a01b031690565b34801561070b57600080fd5b506101615461030a906001600160a01b031681565b34801561072c57600080fd5b5061050961073b36600461524f565b611588565b34801561074c57600080fd5b506103b961160e565b34801561076157600080fd5b5061036c611622565b34801561077657600080fd5b5061050961078536600461524f565b6101686020526000908152604090205481565b3480156107a457600080fd5b5061036c61187c565b3480156107b957600080fd5b5061012d546001600160a01b031661030a565b3480156107d857600080fd5b506103b96107e736600461524f565b61190b565b3480156107f857600080fd5b506103b961080736600461524f565b6119a0565b61050961081a3660046152ff565b611a35565b34801561082b57600080fd5b506103b961083a3660046153cc565b611d42565b34801561084b57600080fd5b5061036c611f68565b34801561086057600080fd5b5061034761086f3660046150e8565b611f77565b34801561088057600080fd5b506101645461030a906001600160a01b031681565b3480156108a157600080fd5b5061036c611fe1565b3480156108b657600080fd5b506103b96108c53660046154ac565b612212565b3480156108d657600080fd5b506101605461030a906001600160a01b031681565b6103b96108f93660046152ad565b61221d565b34801561090a57600080fd5b506103b96109193660046154da565b61282a565b34801561092a57600080fd5b5061016c5461030a906001600160a01b031681565b34801561094b57600080fd5b5061036c61095a3660046150e8565b61291c565b34801561096b57600080fd5b5061050961097a3660046150e8565b6101676020526000908152604090205481565b34801561099957600080fd5b506103b96109a83660046150e8565b612bb5565b3480156109b957600080fd5b506103476109c836600461555a565b6001600160a01b039182166000908152606a6020908152604080832093909416825291909152205460ff1690565b348015610a0257600080fd5b5061036c610a113660046152ad565b612c9b565b348015610a2257600080fd5b506103b9610a3136600461524f565b612d6d565b348015610a4257600080fd5b506103b9610a5136600461524f565b612de3565b348015610a6257600080fd5b506103b9610a7136600461524f565b612e78565b60006001600160e01b031982166380ac58cd60e01b1480610aa757506001600160e01b03198216635b5e139f60e01b145b80610ac257506301ffc9a760e01b6001600160e01b03198316145b92915050565b606060658054610ad790615588565b80601f0160208091040260200160405190810160405280929190818152602001828054610b0390615588565b8015610b505780601f10610b2557610100808354040283529160200191610b50565b820191906000526020600020905b815481529060010190602001808311610b3357829003601f168201915b5050505050905090565b6000610b6582612f0d565b506000908152606960205260409020546001600160a01b031690565b6000610b8c82612f5d565b9050806001600160a01b0316836001600160a01b03161415610bff5760405162461bcd60e51b815260206004820152602160248201527f4552433732313a20617070726f76616c20746f2063757272656e74206f776e656044820152603960f91b60648201526084015b60405180910390fd5b336001600160a01b0382161480610c1b5750610c1b81336109c8565b610c8d5760405162461bcd60e51b815260206004820152603d60248201527f4552433732313a20617070726f76652063616c6c6572206973206e6f7420746f60448201527f6b656e206f776e6572206f7220617070726f76656420666f7220616c6c0000006064820152608401610bf6565b610c978383612fbd565b505050565b61015f5460408051808201909152600381526231303160e81b6020820152906001600160a01b03163314610ce35760405162461bcd60e51b8152600401610bf691906150d5565b508051610cf890610163906020840190614fb1565b5050565b61015f546001600160a01b031633148015610d1f57506001600160a01b03811615155b6040518060400160405280600381526020016231303160e81b81525090610d595760405162461bcd60e51b8152600401610bf691906150d5565b50610161546001600160a01b03828116911614610d8d5761016180546001600160a01b0319166001600160a01b0383161790555b50565b610d9861302b565b600081815261016a6020526040902060050154600160a01b900460ff16610dbe57600080fd5b600081815261016a60205260409020600501546001600160a01b0316331415610de657600080fd5b600081815261016b60209081526040808320338452909152902054610e0a57600080fd5b600081815261016a602090815260408083206001015461016b83528184203380865293529281902054905163a9059cbb60e01b8152600481019290925260248201526001600160a01b039091169063a9059cbb906044016020604051808303816000875af1158015610e80573d6000803e3d6000fd5b505050506040513d601f19601f82011682018060405250810190610ea491906155c3565b50600081815261016b6020908152604080832033808552908352928190205481519384529183019190915282917f63ad079d900b92497dd34dccc37cb42c76aff5798f6084bd35af77d8cb5473fe910160405180910390a2610d8d600160fb55565b336001600160a01b0384161415610f5b5761015f546001600160a01b03163314610f565760405162461bcd60e51b81526020600482015260016024820152601560fa1b6044820152606401610bf6565b610fe6565b333b63ffffffff1615610f965760405162461bcd60e51b8152602060048201526003602482015262545f3160e81b6044820152606401610bf6565b600081815261016a6020526040902060050154600160a01b900460ff16610fbc57600080fd5b600081815261016a60205260409020600501546001600160a01b03838116911614610fe657600080fd5b610c9783838361308c565b61015f546001600160a01b0316600061271061100f846101f46155f6565b6110199190615615565b90509250929050565b61015f546001600160a01b03163314801561104557506001600160a01b03811615155b6040518060400160405280600381526020016231303160e81b8152509061107f5760405162461bcd60e51b8152600401610bf691906150d5565b50610169546001600160a01b03828116911614610d8d5761016980546001600160a01b0383166001600160a01b031990911617905550565b6110bf61302b565b600081815261016660205260409020546001600160a01b03163314156111445760006110ea336130c7565b905060006110f6613137565b9050808210156111415760405162461bcd60e51b815260206004820152601660248201527518985b185b98d94811d3480f081d1a1c995cda1bdb1960521b6044820152606401610bf6565b50505b6111818161116883600090815261016660205260409020546001600160a01b031690565b6001600160a01b0316336001600160a01b0316146131dd565b610d8d600160fb55565b6040805180820190915260128152711e39b1b934b83a1034b21e93bb30b939939f60711b6020820152806111be846136fb565b6040516020016111cf929190615637565b60408051601f198184030181529190526101645490915081906111fa906001600160a01b0316613747565b60405160200161120b92919061568b565b60408051808303601f19018152908290526101605463bf40fac160e01b835260206004840152602160248401527f535741505f504f4f4c5f474d5f4554485f434f4e54524143545f4144445245536044840152605360f81b60648401529092506001600160a01b031690600090829063bf40fac190608401602060405180830381865afa1580156112a0573d6000803e3d6000fd5b505050506040513d601f19601f820116820180604052508101906112c491906156f2565b9050826112d082613747565b6040516020016112e192919061570f565b6040516020818303038152906040529250826112fc30613747565b60405160200161130d929190615787565b6040516020818303038152906040529250826113288561375d565b6040516020016113399291906157ee565b60405160208183030381529060405292508260405160200161135b9190615846565b6040516020818303038152906040529250505092915050565b610c978383836040518060200160405280600081525061282a565b61016c5461016454604080513060208083019190915246828401526001600160a01b03948516606083015295841660808201529290911660a083015260c0808301939093528051808303909301835260e09091019052805191012090565b60006113f8826137fa565b6040518060400160405280600381526020016232303960e81b815250906114325760405162461bcd60e51b8152600401610bf691906150d5565b5060008281526101666020526040902054600160a01b900460a01b6001600160a01b03191661146357506000919050565b6000828152610166602090815260409182902054915161149e92600160a01b900460a01b91016001600160a01b031991909116815260200190565b604051602081830303815290604052805190602001209050919050565b606060008467ffffffffffffffff8111156114d8576114d861514d565b604051908082528060200260200182016040528015611501578160200160208202803683370190505b5061015f549091506001600160a01b0316331461151d57600080fd5b60005b8581101561157c5760006115378860008888611a35565b90508083838151811061154c5761154c615873565b60200260200101818152505062030d405a1015611569575061157c565b508061157481615889565b915050611520565b5090505b949350505050565b60006001600160a01b0382166115f25760405162461bcd60e51b815260206004820152602960248201527f4552433732313a2061646472657373207a65726f206973206e6f7420612076616044820152683634b21037bbb732b960b91b6064820152608401610bf6565b506001600160a01b031660009081526068602052604090205490565b611616613818565b6116206000613873565b565b6060604051806060016040528060378152602001615ea36037913961016954604080518082018252600d81526c70356a7340312e352e302e6a7360981b602082015261016054915163bf40fac160e01b81529394506001600160a01b039283169390929190911690600090829063bf40fac1906116c5906004016020808252600f908201526e29a1a924a82a2fa82927ab24a222a960891b604082015260600190565b602060405180830381865afa1580156116e2573d6000803e3d6000fd5b505050506040513d601f19601f8201168201806040525081019061170691906156f2565b90506000846001600160a01b031663ba67e64183866040518363ffffffff1660e01b81526004016117389291906158a4565b602060405180830381865afa158015611755573d6000803e3d6000fd5b505050506040513d601f19601f8201168201806040525081019061177991906158c8565b90506117866001826158e1565b905060005b818110156118515761015f5460405163283959d960e21b815260009182916001600160a01b038a81169263a0e56764926117cf92909116908b9088906004016158f9565b600060405180830381865afa1580156117ec573d6000803e3d6000fd5b505050506040513d6000823e601f3d908101601f19168201604052611814919081019061595d565b91509150888260405160200161182b9291906159b8565b60405160208183030381529060405298505050808061184990615889565b91505061178b565b50856040516020016118639190615846565b6040516020818303038152906040529550505050505090565b610163805461188a90615588565b80601f01602080910402602001604051908101604052809291908181526020018280546118b690615588565b80156119035780601f106118d857610100808354040283529160200191611903565b820191906000526020600020905b8154815290600101906020018083116118e657829003601f168201915b505050505081565b61015f546001600160a01b03163314801561192e57506001600160a01b03811615155b6040518060400160405280600381526020016231303160e81b815250906119685760405162461bcd60e51b8152600401610bf691906150d5565b5061015f546001600160a01b03828116911614610d8d5761015f80546001600160a01b0383166001600160a01b031990911617905550565b61015f546001600160a01b0316331480156119c357506001600160a01b03811615155b6040518060400160405280600381526020016231303160e81b815250906119fd5760405162461bcd60e51b8152600401610bf691906150d5565b50610164546001600160a01b03828116911614610d8d5761016480546001600160a01b0383166001600160a01b031990911617905550565b6000611a3f61302b565b6101655461016254106040518060400160405280600381526020016232303360e81b81525090611a825760405162461bcd60e51b8152600401610bf691906150d5565b5061015f546001600160a01b03163314611bc257336001600160a01b03861614611ad65760405162461bcd60e51b815260206004820152600560248201526447505f495560d81b6044820152606401610bf6565b611adf85611588565b15611b125760405162461bcd60e51b8152602060048201526003602482015262312d3160e81b6044820152606401610bf6565b6001600160a01b0385166000908152610168602052604090205415611b5d5760405162461bcd60e51b81526020600482015260016024820152604d60f81b6044820152606401610bf6565b611b9e858585858080601f0160208091040260200160405190810160405280939291908181526020018383808284376000920191909152506138c692505050565b50506001600160a01b03851660009081526101686020526040902060019055611c7d565b61015f546001600160a01b03868116911614611c7d57611be185611588565b15611c145760405162461bcd60e51b8152602060048201526003602482015262312d3160e81b6044820152606401610bf6565b6001600160a01b0385166000908152610168602052604090205415611c5f5760405162461bcd60e51b81526020600482015260016024820152604d60f81b6044820152606401610bf6565b6001600160a01b038516600090815261016860205260409020600190555b6101628054906000611c8e83615889565b9190505550610162549050611ca3858261393f565b61016154604051631da00d8560e01b8152600481018390526001600160a01b03909116906000908290631da00d85906024016020604051808303816000875af1158015611cf4573d6000803e3d6000fd5b505050506040513d601f19601f82011682018060405250810190611d1891906158c8565b9050611d248382613959565b5050600081815261016760205260409020439055611580600160fb55565b600054610100900460ff1615808015611d625750600054600160ff909116105b80611d7c5750303b158015611d7c575060005460ff166001145b611ddf5760405162461bcd60e51b815260206004820152602e60248201527f496e697469616c697a61626c653a20636f6e747261637420697320616c72656160448201526d191e481a5b9a5d1a585b1a5e995960921b6064820152608401610bf6565b6000805460ff191660011790558015611e02576000805461ff0019166101001790555b60408051808201909152600381526203130360ec1b60208201526001600160a01b038816611e435760405162461bcd60e51b8152600401610bf691906150d5565b5060408051808201909152600381526203130360ec1b60208201526001600160a01b038716611e855760405162461bcd60e51b8152600401610bf691906150d5565b5061016080546001600160a01b03199081166001600160a01b038981169190911790925561015f805482168a841617905561016180548216888416179055610164805482168784161790556103e8610165556101698054821686841617905561016c8054909116918416919091179055611eff8989613a24565b611f07613a55565b611f0f613a84565b611f17613ab3565b8015611f5d576000805461ff0019169055604051600181527f7f26b83ff96e1f2b6a682f133852f6798a09c465da95921460cefb38474024989060200160405180910390a15b505050505050505050565b606060668054610ad790615588565b600081815261016660205260408120546001600160a01b031681611f9a826130c7565b90506000611fa7336130c7565b90506000611fb3613137565b90508083108015611fc45750808210155b15611fd55750600195945050505050565b50600095945050505050565b6060604051806060016040528060378152602001615ea36037913961016954604080518082018252600f81526e776562336a7340312e322e372e6a7360881b602082015261016054915163bf40fac160e01b81529394506001600160a01b039283169390929190911690600090829063bf40fac190612086906004016020808252600f908201526e29a1a924a82a2fa82927ab24a222a960891b604082015260600190565b602060405180830381865afa1580156120a3573d6000803e3d6000fd5b505050506040513d601f19601f820116820180604052508101906120c791906156f2565b90506000846001600160a01b031663ba67e64183866040518363ffffffff1660e01b81526004016120f99291906158a4565b602060405180830381865afa158015612116573d6000803e3d6000fd5b505050506040513d601f19601f8201168201806040525081019061213a91906158c8565b90506121476001826158e1565b905060005b818110156118515761015f5460405163283959d960e21b815260009182916001600160a01b038a81169263a0e567649261219092909116908b9088906004016158f9565b600060405180830381865afa1580156121ad573d6000803e3d6000fd5b505050506040513d6000823e601f3d908101601f191682016040526121d5919081019061595d565b9150915088826040516020016121ec9291906159b8565b60405160208183030381529060405298505050808061220a90615889565b91505061214c565b610cf8338383613ae2565b61222561302b565b61222e82611f77565b6122635760405162461bcd60e51b8152600401610bf69060208082526004908201526304e5f43360e41b604082015260600190565b61226c33611588565b156122a25760405162461bcd60e51b8152602060048201526006602482015265272fa1982f9960d11b6044820152606401610bf6565b600082815261016a602090815260408083206001015461016b83528184203385529092528220546001600160a01b03909116916122df82856158e1565b600086815261016a602052604090205490915085146123355760405162461bcd60e51b81526020600482015260126024820152713737ba103ab8103337b91030bab1ba34b7b760711b6044820152606401610bf6565b600085815261016a602052604090206004015442106123885760405162461bcd60e51b815260206004820152600f60248201526e105d58dd1a5bdb88195e1c1a5c9959608a1b6044820152606401610bf6565b604051636eb1769f60e11b815233600482015230602482015284906001600160a01b0385169063dd62ed3e90604401602060405180830381865afa1580156123d4573d6000803e3d6000fd5b505050506040513d601f19601f820116820180604052508101906123f891906158c8565b10156124465760405162461bcd60e51b815260206004820152601c60248201527f6e6f7420656e6f75676820616c6c6f7720657263323020746f6b656e000000006044820152606401610bf6565b6040516370a0823160e01b815233600482015284906001600160a01b038516906370a0823190602401602060405180830381865afa15801561248c573d6000803e3d6000fd5b505050506040513d601f19601f820116820180604052508101906124b091906158c8565b10156124f75760405162461bcd60e51b81526020600482015260166024820152753737ba1032b737bab3b41032b9319918103a37b5b2b760511b6044820152606401610bf6565b600085815261016a60205260409020600701548110156125595760405162461bcd60e51b815260206004820152601f60248201527f4d7573742073656e64206174206c6561737420726573657276655072696365006044820152606401610bf6565b600085815261016a60205260409020600881015460029091015460649161257f916155f6565b6125899190615615565b600086815261016a60205260409020600201546125a691906158e1565b81101561261d576040805162461bcd60e51b81526020600482015260248101919091527f4d7573742073656e64206d6f7265207468616e206c617374206269642062792060448201527f6d696e426964496e6372656d656e7450657263656e7461676520616d6f756e746064820152608401610bf6565b6040516323b872dd60e01b8152336004820152306024820152604481018590526001600160a01b038416906323b872dd906064016020604051808303816000875af1158015612670573d6000803e3d6000fd5b505050506040513d601f19601f8201168201806040525081019061269491906155c3565b6126e05760405162461bcd60e51b815260206004820152601d60248201527f63616e206e6f74206765742065726332302066726f6d206269646465720000006044820152606401610bf6565b600085815261016b602090815260408083203380855290835281842085905588845261016a9092528220600281018490556005810180546001600160a01b031916909217909155600681015460049091015461273d9042906159e7565b109050801561277757600086815261016a602052604090206006015461276390426158e1565b600087815261016a60205260409020600401555b600086815261016a60209081526040918290205482513381529182018890528315158284015291517f1159164c56f277e6fc99c11731bd380e0347deb969b75523398734c252706ea39181900360600190a2801561281c57600086815261016a602090815260409182902080546004909101549251928352917f6e912a3a9105bdd2af817ba5adc14e6c127c1035b5b648faa29ca0d58ab8ff4e910160405180910390a25b50505050610cf8600160fb55565b336001600160a01b038516141561287f5761015f546001600160a01b0316331461287a5760405162461bcd60e51b81526020600482015260016024820152601560fa1b6044820152606401610bf6565b61290a565b333b63ffffffff16156128ba5760405162461bcd60e51b8152602060048201526003602482015262545f3160e81b6044820152606401610bf6565b600082815261016a6020526040902060050154600160a01b900460ff166128e057600080fd5b600082815261016a60205260409020600501546001600160a01b0384811691161461290a57600080fd5b61291684848484613bb1565b50505050565b6060612927826137fa565b6040518060400160405280600381526020016232303960e81b815250906129615760405162461bcd60e51b8152600401610bf691906150d5565b5060405163188687dd60e21b815260048101839052600090309063621a1f7490602401602060405180830381865afa1580156129a1573d6000803e3d6000fd5b505050506040513d601f19601f820116820180604052508101906129c591906158c8565b61016054604051637594e11960e11b815260048101839052602481018690529192506001600160a01b031690600090309063eb29c23290604401600060405180830381865afa158015612a1c573d6000803e3d6000fd5b505050506040513d6000823e601f3d908101601f19168201604052612a4491908101906159fe565b9050612a6e81604051602001612a5a9190615a47565b604051602081830303815290604052613be4565b604051602001612a7e9190615a63565b6040516020818303038152906040529050600081604051602001612aa29190615aa1565b60408051601f198184030181528282018252600e83526d109054d157d5549257d51490525560921b6020840152905163349f642f60e11b81529092506000916001600160a01b0386169163693ec85e91612afe916004016150d5565b600060405180830381865afa158015612b1b573d6000803e3d6000fd5b505050506040513d6000823e601f3d908101601f19168201604052612b4391908101906159fe565b905080612b4f30613747565b612b588961375d565b612b61886136fb565b604051602001612b749493929190615ae8565b6040516020818303038152906040529050808282604051602001612b9a93929190615b6a565b60405160208183030381529060405295505050505050919050565b612bbd61302b565b612bc681611f77565b612bfb5760405162461bcd60e51b8152600401610bf69060208082526004908201526304e5f43360e41b604082015260600190565b612c0433611588565b15612c3a5760405162461bcd60e51b8152602060048201526006602482015265272fa1982f9960d11b6044820152606401610bf6565b612c42613d4a565b60008281526101676020526040902054612c5c90436159e7565b11612c925760405162461bcd60e51b81526020600482015260066024820152654e5f43305f3360d01b6044820152606401610bf6565b61118181613de7565b60408051808201909152600c81526b1e343a36b61f1e3432b0b21f60a11b602082015280612cc7611622565b604051602001612cd89291906159b8565b604051602081830303815290604052905080612cf2611fe1565b604051602001612d039291906159b8565b604051602081830303815290604052905080612d1f848461118b565b604051602001612d309291906159b8565b604051602081830303815290604052905080610163604051602001612d56929190615c48565b604051602081830303815290604052905092915050565b612d75613818565b6001600160a01b038116612dda5760405162461bcd60e51b815260206004820152602660248201527f4f776e61626c653a206e6577206f776e657220697320746865207a65726f206160448201526564647265737360d01b6064820152608401610bf6565b610d8d81613873565b61015f546001600160a01b031633148015612e0657506001600160a01b03811615155b6040518060400160405280600381526020016231303160e81b81525090612e405760405162461bcd60e51b8152600401610bf691906150d5565b5061016c546001600160a01b03828116911614610d8d5761016c80546001600160a01b0383166001600160a01b031990911617905550565b61015f546001600160a01b031633148015612e9b57506001600160a01b03811615155b6040518060400160405280600381526020016231303160e81b81525090612ed55760405162461bcd60e51b8152600401610bf691906150d5565b50610160546001600160a01b03828116911614610d8d5761016080546001600160a01b0383166001600160a01b031990911617905550565b612f16816137fa565b610d8d5760405162461bcd60e51b8152602060048201526018602482015277115490cdcc8c4e881a5b9d985b1a59081d1bdad95b88125160421b6044820152606401610bf6565b6000818152606760205260408120546001600160a01b031680610ac25760405162461bcd60e51b8152602060048201526018602482015277115490cdcc8c4e881a5b9d985b1a59081d1bdad95b88125160421b6044820152606401610bf6565b600081815260696020526040902080546001600160a01b0319166001600160a01b0384169081179091558190612ff282612f5d565b6001600160a01b03167f8c5be1e5ebec7d5bd14f71427d1e84f3dd0314c0f7b2291e5b200ac8c7c3b92560405160405180910390a45050565b600260fb54141561307e5760405162461bcd60e51b815260206004820152601f60248201527f5265656e7472616e637947756172643a207265656e7472616e742063616c6c006044820152606401610bf6565b600260fb55565b600160fb55565b6130978383836142af565b60009081526101666020526040902080546001600160a01b0319166001600160a01b039290921691909117905550565b610164546040516370a0823160e01b81526001600160a01b03838116600483015260009216906370a0823190602401602060405180830381865afa158015613113573d6000803e3d6000fd5b505050506040513d601f19601f82011682018060405250810190610ac291906158c8565b61016054604051636d12dce160e01b815260206004820152600c60248201526b11d357d512149154d213d31160a21b604482015260009182916001600160a01b0390911690636d12dce190606401602060405180830381865afa1580156131a2573d6000803e3d6000fd5b505050506040513d601f19601f820116820180604052508101906131c691906158c8565b9050806131d85750670de0b6b3a76400005b919050565b600082815261016a60205260409020600301546132335760405162461bcd60e51b815260206004820152601460248201527320bab1ba34b7b7103430b9b713ba103132b3bab760611b6044820152606401610bf6565b600082815261016a6020526040902060050154600160a01b900460ff161561329d5760405162461bcd60e51b815260206004820181905260248201527f41756374696f6e2068617320616c7265616479206265656e20736574746c65646044820152606401610bf6565b8061359957600082815261016a60205260409020600401544210156132ff5760405162461bcd60e51b8152602060048201526018602482015277105d58dd1a5bdb881a185cdb89dd0818dbdb5c1b195d195960421b6044820152606401610bf6565b600082815261016a6020526040812060058101805460ff60a01b198116600160a01b179091556003909101919091556001600160a01b0316156133805760008281526101666020526040902054613380906001600160a01b0316600084815261016a60205260409020600581015490546001600160a01b0390911690610f06565b600082815261016a602052604090206002015415613532576101605460405163bf40fac160e01b815260206004820152601c60248201527f534f554c5f41554354494f4e5f474d5f44414f5f54726561737572790000000060448201526000916001600160a01b03169063bf40fac190606401602060405180830381865afa158015613410573d6000803e3d6000fd5b505050506040513d601f19601f8201168201806040525081019061343491906156f2565b90506001600160a01b03811661344957600080fd5b600083815261016a6020526040902060018101546002909101546001600160a01b039091169063a9059cbb90839061271090613487906123286155f6565b6134919190615615565b6040516001600160e01b031960e085901b1681526001600160a01b03909216600483015260248201526044016020604051808303816000875af11580156134dc573d6000803e3d6000fd5b505050506040513d601f19601f8201168201806040525081019061350091906155c3565b5050600082815261016b6020908152604080832061016a8352818420600501546001600160a01b031684529091528120555b600082815261016a60209081526040918290208054600582015460029092015484516001600160a01b0390931683529282019290925290917fc9f72b276a388619c6d185d146697036241880c36654b1a3ffdad07c24038d99910160405180910390a25050565b600082815261016a602052604090206004015442106135f55760405162461bcd60e51b8152602060048201526018602482015277105d58dd1a5bdb881a185cdb89dd0818dbdb5c1b195d195960421b6044820152606401610bf6565b600082815261016a6020526040812060058101805460ff60a01b1916600160a01b179055600381019190915560020154156136bf57600082815261016a60205260409081902060018101546005820154600290920154925163a9059cbb60e01b81526001600160a01b0392831660048201526024810193909352169063a9059cbb906044016020604051808303816000875af1158015613699573d6000803e3d6000fd5b505050506040513d601f19601f820116820180604052508101906136bd91906155c3565b505b600082815261016a602052604080822054905190917fac4a907ec29adcc56774b757ecb1e1b4d597374fc9386107d05e2670259df7d391a25050565b606061370682614420565b613713608084901b614420565b60405161060f60f31b6020820152602281019290925260428201526062016040516020818303038152906040529050919050565b6060610ac26001600160a01b03831660146145d2565b6060600061376a83614775565b600101905060008167ffffffffffffffff81111561378a5761378a61514d565b6040519080825280601f01601f1916602001820160405280156137b4576020820181803683370190505b5090508181016020015b600019016f181899199a1a9b1b9c1cb0b131b232b360811b600a86061a8153600a85049450846137ed576137f2565b6137be565b509392505050565b600090815261016660205260409020546001600160a01b0316151590565b61012d546001600160a01b031633146116205760405162461bcd60e51b815260206004820181905260248201527f4f776e61626c653a2063616c6c6572206973206e6f7420746865206f776e65726044820152606401610bf6565b61012d80546001600160a01b038381166001600160a01b0319831681179093556040519116919082907f8be0079c531659141344cd1fd0a4f28419497f9722a3daafe3b4186f6b6457e090600090a35050565b60008060006138d5868661138f565b905060006138eb6138e58361484d565b86614888565b61016c549091506001600160a01b038083169116146139345760405162461bcd60e51b815260206004820152600560248201526447505f4e4160d81b6044820152606401610bf6565b969095509350505050565b610cf88282604051806020016040528060008152506148a4565b60008281526101666020908152604091829020548251808401909352600383526219181b60e91b91830191909152600160a01b900460a01b6001600160a01b031916156139b95760405162461bcd60e51b8152600401610bf691906150d5565b5060408051808201909152600381526232303760e81b6020820152816139f25760405162461bcd60e51b8152600401610bf691906150d5565b5060009182526101666020526040909120805460a09290921c600160a01b026001600160a01b03909216919091179055565b600054610100900460ff16613a4b5760405162461bcd60e51b8152600401610bf690615cf9565b610cf882826148d7565b600054610100900460ff16613a7c5760405162461bcd60e51b8152600401610bf690615cf9565b611620614925565b600054610100900460ff16613aab5760405162461bcd60e51b8152600401610bf690615cf9565b61162061494c565b600054610100900460ff16613ada5760405162461bcd60e51b8152600401610bf690615cf9565b61162061497f565b816001600160a01b0316836001600160a01b03161415613b445760405162461bcd60e51b815260206004820152601960248201527f4552433732313a20617070726f766520746f2063616c6c6572000000000000006044820152606401610bf6565b6001600160a01b038381166000818152606a6020908152604080832094871680845294825291829020805460ff191686151590811790915591519182527f17307eab39ab6107e8899845ad3d59bd9653f200f220920489ca2b5937696c31910160405180910390a3505050565b613bbc84848461308c565b613bc8848484846149af565b6129165760405162461bcd60e51b8152600401610bf690615d44565b6060815160001415613c0457505060408051602081019091526000815290565b6000604051806060016040528060408152602001615e636040913990506000600384516002613c3391906158e1565b613c3d9190615615565b613c489060046155f6565b90506000613c578260206158e1565b67ffffffffffffffff811115613c6f57613c6f61514d565b6040519080825280601f01601f191660200182016040528015613c99576020820181803683370190505b509050818152600183018586518101602084015b81831015613d05576003830192508251603f8160121c168501518253600182019150603f81600c1c168501518253600182019150603f8160061c168501518253600182019150603f8116850151825350600101613cad565b600389510660018114613d1f5760028114613d3057613d3c565b613d3d60f01b600119830152613d3c565b603d60f81b6000198301525b509398975050505050505050565b61016054604051636d12dce160e01b815260206004820152600a602482015269474d5f5245534552564560b01b604482015260009182916001600160a01b0390911690636d12dce190606401602060405180830381865afa158015613db3573d6000803e3d6000fd5b505050506040513d601f19601f82011682018060405250810190613dd791906158c8565b9050806131d857506103f0919050565b613df0816137fa565b613df957600080fd5b600081815261016a6020526040902060050154600160a01b900460ff1680613e2e5750600081815261016a6020526040902054155b613ea05760405162461bcd60e51b815260206004820152603860248201527f41756374696f6e2068617320616c7265616479206265656e20736574746c656460448201527f206f72203173742041756374696f6e206f6620746f6b656e00000000000000006064820152608401610bf6565b426000613eab613d4a565b613eb590836158e1565b610160546040805161014081018252600080825260208201819052918101829052606081018290526080810182905260a0810182905260c0810182905260e0810182905261010081018290526101208101919091529192506001600160a01b03169084815260405163bf40fac160e01b815260206004820152601860248201527f534f554c5f41554354494f4e5f45524332305f544f4b454e000000000000000060448201526001600160a01b0383169063bf40fac190606401602060405180830381865afa158015613f8c573d6000803e3d6000fd5b505050506040513d601f19601f82011682018060405250810190613fb091906156f2565b6001600160a01b0390811660208301526000604080840182905260608401879052608084018690523360a085015260c084019190915251636d12dce160e01b815290831690636d12dce1906140399060040160208082526018908201527f534f554c5f41554354494f4e5f54494d455f4255464645520000000000000000604082015260600190565b602060405180830381865afa158015614056573d6000803e3d6000fd5b505050506040513d601f19601f8201168201806040525081019061407a91906158c8565b60e0820152604051636d12dce160e01b815260206004820152601a60248201527f534f554c5f41554354494f4e5f524553455256455f505249434500000000000060448201526001600160a01b03831690636d12dce190606401602060405180830381865afa1580156140f1573d6000803e3d6000fd5b505050506040513d601f19601f8201168201806040525081019061411591906158c8565b610100820152604051636d12dce160e01b815260206004820152602560248201527f534f554c5f41554354494f4e5f4d494e5f4249445f494e4352454153455f50456044820152641490d1539560da1b60648201526001600160a01b03831690636d12dce190608401602060405180830381865afa15801561419b573d6000803e3d6000fd5b505050506040513d601f19601f820116820180604052508101906141bf91906158c8565b6101208201908152600086815261016a602090815260409182902084518155818501516001820180546001600160a01b0319166001600160a01b03928316179055838601516002830155606086015160038301556080860151600483015560a086015160058301805460c0890151929093166001600160a81b031990931692909217600160a01b9115159190910217905560e0850151600682015561010085015160078201559251600890930192909255805186815291820185905286917fd6eddd1118d71820909c1197aa966dbc15ed6f508554252169cc3d5ccac756ca910160405180910390a25050505050565b826001600160a01b03166142c282612f5d565b6001600160a01b0316146142e85760405162461bcd60e51b8152600401610bf690615d96565b6001600160a01b03821661434a5760405162461bcd60e51b8152602060048201526024808201527f4552433732313a207472616e7366657220746f20746865207a65726f206164646044820152637265737360e01b6064820152608401610bf6565b6143578383836001614aaa565b826001600160a01b031661436a82612f5d565b6001600160a01b0316146143905760405162461bcd60e51b8152600401610bf690615d96565b600081815260696020908152604080832080546001600160a01b03199081169091556001600160a01b0387811680865260688552838620805460001901905590871680865283862080546001019055868652606790945282852080549092168417909155905184937fddf252ad1be2c89b69c2b068fc378daa952ba7f163c4a11628f55a4df523b3ef91a4505050565b7aff00000000000000ff00000000000000ff00000000000000ff00006bffffffff0000000000000000604083901c90811663ffffffff60c01b84161760201c63ffffffff60601b919091166001600160e01b031984161717601081901c9182167eff00000000000000ff00000000000000ff00000000000000ff000000000000821617600890811c7bff00000000000000ff00000000000000ff00000000000000ff000000939093167fff00000000000000ff00000000000000ff00000000000000ff000000000000009290921691909117919091179081901c7e0f000f000f000f000f000f000f000f000f000f000f000f000f000f000f000f167f0f000f000f000f000f000f000f000f000f000f000f000f000f000f000f000f00600492831c16179061456e827f06060606060606060606060606060606060606060606060606060606060606066158e1565b901c7f0f0f0f0f0f0f0f0f0f0f0f0f0f0f0f0f0f0f0f0f0f0f0f0f0f0f0f0f0f0f0f0f16600761459e91906155f6565b6145c8827f30303030303030303030303030303030303030303030303030303030303030306158e1565b610ac291906158e1565b606060006145e18360026155f6565b6145ec9060026158e1565b67ffffffffffffffff8111156146045761460461514d565b6040519080825280601f01601f19166020018201604052801561462e576020820181803683370190505b509050600360fc1b8160008151811061464957614649615873565b60200101906001600160f81b031916908160001a905350600f60fb1b8160018151811061467857614678615873565b60200101906001600160f81b031916908160001a905350600061469c8460026155f6565b6146a79060016158e1565b90505b600181111561471f576f181899199a1a9b1b9c1cb0b131b232b360811b85600f16601081106146db576146db615873565b1a60f81b8282815181106146f1576146f1615873565b60200101906001600160f81b031916908160001a90535060049490941c9361471881615ddb565b90506146aa565b50831561476e5760405162461bcd60e51b815260206004820181905260248201527f537472696e67733a20686578206c656e67746820696e73756666696369656e746044820152606401610bf6565b9392505050565b60008072184f03e93ff9f4daa797ed6e38ed64bf6a1f0160401b83106147b45772184f03e93ff9f4daa797ed6e38ed64bf6a1f0160401b830492506040015b6d04ee2d6d415b85acef810000000083106147e0576d04ee2d6d415b85acef8100000000830492506020015b662386f26fc1000083106147fe57662386f26fc10000830492506010015b6305f5e1008310614816576305f5e100830492506008015b612710831061482a57612710830492506004015b6064831061483c576064830492506002015b600a8310610ac25760010192915050565b6040517f19457468657265756d205369676e6564204d6573736167653a0a3332000000006020820152603c8101829052600090605c0161149e565b60008060006148978585614b1d565b915091506137f281614b63565b6148ae8383614cb1565b6148bb60008484846149af565b610c975760405162461bcd60e51b8152600401610bf690615d44565b600054610100900460ff166148fe5760405162461bcd60e51b8152600401610bf690615cf9565b8151614911906065906020850190614fb1565b508051610c97906066906020840190614fb1565b600054610100900460ff166130855760405162461bcd60e51b8152600401610bf690615cf9565b600054610100900460ff166149735760405162461bcd60e51b8152600401610bf690615cf9565b6097805460ff19169055565b600054610100900460ff166149a65760405162461bcd60e51b8152600401610bf690615cf9565b61162033613873565b60006001600160a01b0384163b15614aa257604051630a85bd0160e11b81526001600160a01b0385169063150b7a02906149f3903390899088908890600401615df2565b6020604051808303816000875af1925050508015614a2e575060408051601f3d908101601f19168201909252614a2b91810190615e2f565b60015b614a88573d808015614a5c576040519150601f19603f3d011682016040523d82523d6000602084013e614a61565b606091505b508051614a805760405162461bcd60e51b8152600401610bf690615d44565b805181602001fd5b6001600160e01b031916630a85bd0160e11b149050611580565b506001611580565b614ab684848484614cea565b60975460ff16156129165760405162461bcd60e51b815260206004820152602b60248201527f4552433732315061757361626c653a20746f6b656e207472616e73666572207760448201526a1a1a5b19481c185d5cd95960aa1b6064820152608401610bf6565b600080825160411415614b545760208301516040840151606085015160001a614b4887828585614d72565b94509450505050614b5c565b506000905060025b9250929050565b6000816004811115614b7757614b77615e4c565b1415614b805750565b6001816004811115614b9457614b94615e4c565b1415614be25760405162461bcd60e51b815260206004820152601860248201527f45434453413a20696e76616c6964207369676e617475726500000000000000006044820152606401610bf6565b6002816004811115614bf657614bf6615e4c565b1415614c445760405162461bcd60e51b815260206004820152601f60248201527f45434453413a20696e76616c6964207369676e6174757265206c656e677468006044820152606401610bf6565b6003816004811115614c5857614c58615e4c565b1415610d8d5760405162461bcd60e51b815260206004820152602260248201527f45434453413a20696e76616c6964207369676e6174757265202773272076616c604482015261756560f01b6064820152608401610bf6565b614cbb8282614e36565b60009081526101666020526040902080546001600160a01b0319166001600160a01b0392909216919091179055565b6001811115612916576001600160a01b03841615614d30576001600160a01b03841660009081526068602052604081208054839290614d2a9084906159e7565b90915550505b6001600160a01b03831615612916576001600160a01b03831660009081526068602052604081208054839290614d679084906158e1565b909155505050505050565b6000807f7fffffffffffffffffffffffffffffff5d576e7357a4501ddfe92f46681b20a0831115614da95750600090506003614e2d565b6040805160008082526020820180845289905260ff881692820192909252606081018690526080810185905260019060a0016020604051602081039080840390855afa158015614dfd573d6000803e3d6000fd5b5050604051601f1901519150506001600160a01b038116614e2657600060019250925050614e2d565b9150600090505b94509492505050565b6001600160a01b038216614e8c5760405162461bcd60e51b815260206004820181905260248201527f4552433732313a206d696e7420746f20746865207a65726f20616464726573736044820152606401610bf6565b614e95816137fa565b15614ee25760405162461bcd60e51b815260206004820152601c60248201527f4552433732313a20746f6b656e20616c7265616479206d696e746564000000006044820152606401610bf6565b614ef0600083836001614aaa565b614ef9816137fa565b15614f465760405162461bcd60e51b815260206004820152601c60248201527f4552433732313a20746f6b656e20616c7265616479206d696e746564000000006044820152606401610bf6565b6001600160a01b038216600081815260686020908152604080832080546001019055848352606790915280822080546001600160a01b0319168417905551839291907fddf252ad1be2c89b69c2b068fc378daa952ba7f163c4a11628f55a4df523b3ef908290a45050565b828054614fbd90615588565b90600052602060002090601f016020900481019282614fdf5760008555615025565b82601f10614ff857805160ff1916838001178555615025565b82800160010185558215615025579182015b8281111561502557825182559160200191906001019061500a565b50615031929150615035565b5090565b5b808211156150315760008155600101615036565b6001600160e01b031981168114610d8d57600080fd5b60006020828403121561507257600080fd5b813561476e8161504a565b60005b83811015615098578181015183820152602001615080565b838111156129165750506000910152565b600081518084526150c181602086016020860161507d565b601f01601f19169290920160200192915050565b60208152600061476e60208301846150a9565b6000602082840312156150fa57600080fd5b5035919050565b6001600160a01b0381168114610d8d57600080fd5b80356131d881615101565b6000806040838503121561513457600080fd5b823561513f81615101565b946020939093013593505050565b634e487b7160e01b600052604160045260246000fd5b604051601f8201601f1916810167ffffffffffffffff8111828210171561518c5761518c61514d565b604052919050565b600067ffffffffffffffff8211156151ae576151ae61514d565b50601f01601f191660200190565b60006151cf6151ca84615194565b615163565b90508281528383830111156151e357600080fd5b828260208301376000602084830101529392505050565b600082601f83011261520b57600080fd5b61476e838335602085016151bc565b60006020828403121561522c57600080fd5b813567ffffffffffffffff81111561524357600080fd5b611580848285016151fa565b60006020828403121561526157600080fd5b813561476e81615101565b60008060006060848603121561528157600080fd5b833561528c81615101565b9250602084013561529c81615101565b929592945050506040919091013590565b600080604083850312156152c057600080fd5b50508035926020909101359150565b600080604083850312156152e257600080fd5b8235915060208301356152f481615101565b809150509250929050565b6000806000806060858703121561531557600080fd5b843561532081615101565b935060208501359250604085013567ffffffffffffffff8082111561534457600080fd5b818701915087601f83011261535857600080fd5b81358181111561536757600080fd5b88602082850101111561537957600080fd5b95989497505060200194505050565b6020808252825182820181905260009190848201906040850190845b818110156153c0578351835292840192918401916001016153a4565b50909695505050505050565b600080600080600080600080610100898b0312156153e957600080fd5b883567ffffffffffffffff8082111561540157600080fd5b61540d8c838d016151fa565b995060208b013591508082111561542357600080fd5b506154308b828c016151fa565b975050604089013561544181615101565b9550606089013561545181615101565b9450608089013561546181615101565b935060a089013561547181615101565b925060c089013561548181615101565b915061548f60e08a01615116565b90509295985092959890939650565b8015158114610d8d57600080fd5b600080604083850312156154bf57600080fd5b82356154ca81615101565b915060208301356152f48161549e565b600080600080608085870312156154f057600080fd5b84356154fb81615101565b9350602085013561550b81615101565b925060408501359150606085013567ffffffffffffffff81111561552e57600080fd5b8501601f8101871361553f57600080fd5b61554e878235602084016151bc565b91505092959194509250565b6000806040838503121561556d57600080fd5b823561557881615101565b915060208301356152f481615101565b600181811c9082168061559c57607f821691505b602082108114156155bd57634e487b7160e01b600052602260045260246000fd5b50919050565b6000602082840312156155d557600080fd5b815161476e8161549e565b634e487b7160e01b600052601160045260246000fd5b6000816000190483118215151615615610576156106155e0565b500290565b60008261563257634e487b7160e01b600052601260045260246000fd5b500490565b6000835161564981846020880161507d565b696c657420736565643d2760b01b908301908152835161567081600a84016020880161507d565b61273b60f01b600a9290910191820152600c01949350505050565b6000835161569d81846020880161507d565b7f6c657420474d5f434f4e54524143545f414444524553533d270000000000000090830190815283516156d781601984016020880161507d565b61273b60f01b60199290910191820152601b01949350505050565b60006020828403121561570457600080fd5b815161476e81615101565b6000835161572181846020880161507d565b80830190507f6c657420535741505f504f4f4c5f474d5f4554485f434f4e54524143545f414481526644524553533d2760c81b6020820152835161576c81602784016020880161507d565b61273b60f01b60279290910191820152602901949350505050565b6000835161579981846020880161507d565b7f6c657420736f6c617269734e6674436f6e7472616374416464726573733d270090830190815283516157d381601f84016020880161507d565b61273b60f01b601f9290910191820152602101949350505050565b6000835161580081846020880161507d565b6d6c657420544f4b454e5f49443d2760901b908301908152835161582b81600e84016020880161507d565b61273b60f01b600e9290910191820152601001949350505050565b6000825161585881846020870161507d565b681e17b9b1b934b83a1f60b91b920191825250600901919050565b634e487b7160e01b600052603260045260246000fd5b600060001982141561589d5761589d6155e0565b5060010190565b6001600160a01b0383168152604060208201819052600090611580908301846150a9565b6000602082840312156158da57600080fd5b5051919050565b600082198211156158f4576158f46155e0565b500190565b6001600160a01b038416815260606020820181905260009061591d908301856150a9565b9050826040830152949350505050565b600061593b6151ca84615194565b905082815283838301111561594f57600080fd5b61476e83602083018461507d565b6000806040838503121561597057600080fd5b825167ffffffffffffffff81111561598757600080fd5b8301601f8101851361599857600080fd5b6159a78582516020840161592d565b925050602083015190509250929050565b600083516159ca81846020880161507d565b8351908301906159de81836020880161507d565b01949350505050565b6000828210156159f9576159f96155e0565b500390565b600060208284031215615a1057600080fd5b815167ffffffffffffffff811115615a2757600080fd5b8201601f81018413615a3857600080fd5b6115808482516020840161592d565b60008251615a5981846020870161507d565b9190910192915050565b7519185d184e9d195e1d0bda1d1b5b0ed8985cd94d8d0b60521b815260008251615a9481601685016020870161507d565b9190910160160192915050565b7216101130b734b6b0ba34b7b72fbab936111d1160691b81528151600090615ad081601385016020870161507d565b601160f91b6013939091019283015250601401919050565b60008551615afa818460208a0161507d565b8083019050602f60f81b8082528651615b1a816001850160208b0161507d565b60019201918201528451615b3581600284016020890161507d565b653f736565643d60d01b600292909101918201528351615b5c81600884016020880161507d565b016008019695505050505050565b7f7b226e616d65223a22222c226465736372697074696f6e223a2022220000000081526b16101134b6b0b3b2911d101160a11b601c8201528351600090615bb881602885016020890161507d565b6e1331b0b83a3ab9329e9b181818181160891b6028918401918201528451615be781603784016020890161507d565b7016101130ba3a3934b13aba32b9911d101160791b603792909101918201528351615c1981604884016020880161507d565b6a1331b0b83a3ab9329e981160a91b60489290910191820152607d60f81b605382015260540195945050505050565b600083516020615c5b828583890161507d565b845491840191600090600181811c9080831680615c7957607f831692505b858310811415615c9757634e487b7160e01b85526022600452602485fd5b808015615cab5760018114615cbc57615ce9565b60ff19851688528388019550615ce9565b60008b81526020902060005b85811015615ce15781548a820152908401908801615cc8565b505083880195505b50939a9950505050505050505050565b6020808252602b908201527f496e697469616c697a61626c653a20636f6e7472616374206973206e6f74206960408201526a6e697469616c697a696e6760a81b606082015260800190565b60208082526032908201527f4552433732313a207472616e7366657220746f206e6f6e20455243373231526560408201527131b2b4bb32b91034b6b83632b6b2b73a32b960711b606082015260800190565b60208082526025908201527f4552433732313a207472616e736665722066726f6d20696e636f72726563742060408201526437bbb732b960d91b606082015260800190565b600081615dea57615dea6155e0565b506000190190565b6001600160a01b0385811682528416602082015260408101839052608060608201819052600090615e25908301846150a9565b9695505050505050565b600060208284031215615e4157600080fd5b815161476e8161504a565b634e487b7160e01b600052602160045260246000fdfe4142434445464748494a4b4c4d4e4f505152535455565758595a6162636465666768696a6b6c6d6e6f707172737475767778797a303132333435363738392b2f3c7363726970742073616e64626f783d27616c6c6f772d736372697074732720747970653d27746578742f6a617661736372697074273ea2646970667358221220e777d6e34f9ace5e896f3a82bf18cf9ecf2a4b6842db734d31aafccf60b9e09864736f6c634300080c0033",
  "linkReferences": {},
  "deployedLinkReferences": {}
}