{
  "_format": "hh-sol-artifact-1",
  "contractName": "SOUL",
  "sourceName": "contracts/nfts/SOUL.sol",
  "abi": [
    {
      "anonymous": false,
      "inputs": [
        {
          "indexed": true,
          "internalType": "address",
          "name": "owner",
          "type": "address"
        },
        {
          "indexed": true,
          "internalType": "address",
          "name": "approved",
          "type": "address"
        },
        {
          "indexed": true,
          "internalType": "uint256",
          "name": "tokenId",
          "type": "uint256"
        }
      ],
      "name": "Approval",
      "type": "event"
    },
    {
      "anonymous": false,
      "inputs": [
        {
          "indexed": true,
          "internalType": "address",
          "name": "owner",
          "type": "address"
        },
        {
          "indexed": true,
          "internalType": "address",
          "name": "operator",
          "type": "address"
        },
        {
          "indexed": false,
          "internalType": "bool",
          "name": "approved",
          "type": "bool"
        }
      ],
      "name": "ApprovalForAll",
      "type": "event"
    },
    {
      "anonymous": false,
      "inputs": [
        {
          "indexed": true,
          "internalType": "uint256",
          "name": "tokenId",
          "type": "uint256"
        },
        {
          "indexed": false,
          "internalType": "address",
          "name": "sender",
          "type": "address"
        },
        {
          "indexed": false,
          "internalType": "uint256",
          "name": "value",
          "type": "uint256"
        },
        {
          "indexed": false,
          "internalType": "bool",
          "name": "extended",
          "type": "bool"
        },
        {
          "components": [
            {
              "internalType": "uint256",
              "name": "tokenId",
              "type": "uint256"
            },
            {
              "internalType": "address",
              "name": "erc20Token",
              "type": "address"
            },
            {
              "internalType": "uint256",
              "name": "amount",
              "type": "uint256"
            },
            {
              "internalType": "uint256",
              "name": "startTime",
              "type": "uint256"
            },
            {
              "internalType": "uint256",
              "name": "endTime",
              "type": "uint256"
            },
            {
              "internalType": "address payable",
              "name": "bidder",
              "type": "address"
            },
            {
              "internalType": "bool",
              "name": "settled",
              "type": "bool"
            },
            {
              "internalType": "uint256",
              "name": "timeBuffer",
              "type": "uint256"
            },
            {
              "internalType": "uint256",
              "name": "reservePrice",
              "type": "uint256"
            },
            {
              "internalType": "uint256",
              "name": "minBidIncrementPercentage",
              "type": "uint256"
            },
            {
              "internalType": "bytes32",
              "name": "auctionId",
              "type": "bytes32"
            }
          ],
          "indexed": false,
          "internalType": "struct AuctionHouse.Auction",
          "name": "auction",
          "type": "tuple"
        }
      ],
      "name": "AuctionBid",
      "type": "event"
    },
    {
      "anonymous": false,
      "inputs": [
        {
          "indexed": true,
          "internalType": "uint256",
          "name": "tokenId",
          "type": "uint256"
        },
        {
          "indexed": false,
          "internalType": "address",
          "name": "sender",
          "type": "address"
        },
        {
          "indexed": false,
          "internalType": "uint256",
          "name": "value",
          "type": "uint256"
        },
        {
          "indexed": false,
          "internalType": "bytes32",
          "name": "auctionId",
          "type": "bytes32"
        }
      ],
      "name": "AuctionClaimBid",
      "type": "event"
    },
    {
      "anonymous": false,
      "inputs": [
        {
          "indexed": true,
          "internalType": "uint256",
          "name": "tokenId",
          "type": "uint256"
        }
      ],
      "name": "AuctionClosed",
      "type": "event"
    },
    {
      "anonymous": false,
      "inputs": [
        {
          "indexed": true,
          "internalType": "uint256",
          "name": "tokenId",
          "type": "uint256"
        },
        {
          "indexed": false,
          "internalType": "uint256",
          "name": "startTime",
          "type": "uint256"
        },
        {
          "indexed": false,
          "internalType": "uint256",
          "name": "endTime",
          "type": "uint256"
        },
        {
          "indexed": false,
          "internalType": "address",
          "name": "sender",
          "type": "address"
        },
        {
          "indexed": false,
          "internalType": "bytes32",
          "name": "auctionId",
          "type": "bytes32"
        },
        {
          "components": [
            {
              "internalType": "uint256",
              "name": "tokenId",
              "type": "uint256"
            },
            {
              "internalType": "address",
              "name": "erc20Token",
              "type": "address"
            },
            {
              "internalType": "uint256",
              "name": "amount",
              "type": "uint256"
            },
            {
              "internalType": "uint256",
              "name": "startTime",
              "type": "uint256"
            },
            {
              "internalType": "uint256",
              "name": "endTime",
              "type": "uint256"
            },
            {
              "internalType": "address payable",
              "name": "bidder",
              "type": "address"
            },
            {
              "internalType": "bool",
              "name": "settled",
              "type": "bool"
            },
            {
              "internalType": "uint256",
              "name": "timeBuffer",
              "type": "uint256"
            },
            {
              "internalType": "uint256",
              "name": "reservePrice",
              "type": "uint256"
            },
            {
              "internalType": "uint256",
              "name": "minBidIncrementPercentage",
              "type": "uint256"
            },
            {
              "internalType": "bytes32",
              "name": "auctionId",
              "type": "bytes32"
            }
          ],
          "indexed": false,
          "internalType": "struct AuctionHouse.Auction",
          "name": "auction",
          "type": "tuple"
        }
      ],
      "name": "AuctionCreated",
      "type": "event"
    },
    {
      "anonymous": false,
      "inputs": [
        {
          "indexed": true,
          "internalType": "uint256",
          "name": "tokenId",
          "type": "uint256"
        },
        {
          "indexed": false,
          "internalType": "uint256",
          "name": "endTime",
          "type": "uint256"
        },
        {
          "components": [
            {
              "internalType": "uint256",
              "name": "tokenId",
              "type": "uint256"
            },
            {
              "internalType": "address",
              "name": "erc20Token",
              "type": "address"
            },
            {
              "internalType": "uint256",
              "name": "amount",
              "type": "uint256"
            },
            {
              "internalType": "uint256",
              "name": "startTime",
              "type": "uint256"
            },
            {
              "internalType": "uint256",
              "name": "endTime",
              "type": "uint256"
            },
            {
              "internalType": "address payable",
              "name": "bidder",
              "type": "address"
            },
            {
              "internalType": "bool",
              "name": "settled",
              "type": "bool"
            },
            {
              "internalType": "uint256",
              "name": "timeBuffer",
              "type": "uint256"
            },
            {
              "internalType": "uint256",
              "name": "reservePrice",
              "type": "uint256"
            },
            {
              "internalType": "uint256",
              "name": "minBidIncrementPercentage",
              "type": "uint256"
            },
            {
              "internalType": "bytes32",
              "name": "auctionId",
              "type": "bytes32"
            }
          ],
          "indexed": false,
          "internalType": "struct AuctionHouse.Auction",
          "name": "auction",
          "type": "tuple"
        }
      ],
      "name": "AuctionExtended",
      "type": "event"
    },
    {
      "anonymous": false,
      "inputs": [
        {
          "indexed": false,
          "internalType": "uint256",
          "name": "minBidIncrementPercentage",
          "type": "uint256"
        }
      ],
      "name": "AuctionMinBidIncrementPercentageUpdated",
      "type": "event"
    },
    {
      "anonymous": false,
      "inputs": [
        {
          "indexed": false,
          "internalType": "uint256",
          "name": "reservePrice",
          "type": "uint256"
        }
      ],
      "name": "AuctionReservePriceUpdated",
      "type": "event"
    },
    {
      "anonymous": false,
      "inputs": [
        {
          "indexed": true,
          "internalType": "uint256",
          "name": "tokenId",
          "type": "uint256"
        },
        {
          "indexed": false,
          "internalType": "address",
          "name": "winner",
          "type": "address"
        },
        {
          "indexed": false,
          "internalType": "uint256",
          "name": "amount",
          "type": "uint256"
        },
        {
          "components": [
            {
              "internalType": "uint256",
              "name": "tokenId",
              "type": "uint256"
            },
            {
              "internalType": "address",
              "name": "erc20Token",
              "type": "address"
            },
            {
              "internalType": "uint256",
              "name": "amount",
              "type": "uint256"
            },
            {
              "internalType": "uint256",
              "name": "startTime",
              "type": "uint256"
            },
            {
              "internalType": "uint256",
              "name": "endTime",
              "type": "uint256"
            },
            {
              "internalType": "address payable",
              "name": "bidder",
              "type": "address"
            },
            {
              "internalType": "bool",
              "name": "settled",
              "type": "bool"
            },
            {
              "internalType": "uint256",
              "name": "timeBuffer",
              "type": "uint256"
            },
            {
              "internalType": "uint256",
              "name": "reservePrice",
              "type": "uint256"
            },
            {
              "internalType": "uint256",
              "name": "minBidIncrementPercentage",
              "type": "uint256"
            },
            {
              "internalType": "bytes32",
              "name": "auctionId",
              "type": "bytes32"
            }
          ],
          "indexed": false,
          "internalType": "struct AuctionHouse.Auction",
          "name": "auction",
          "type": "tuple"
        }
      ],
      "name": "AuctionSettled",
      "type": "event"
    },
    {
      "anonymous": false,
      "inputs": [
        {
          "indexed": false,
          "internalType": "uint256",
          "name": "timeBuffer",
          "type": "uint256"
        }
      ],
      "name": "AuctionTimeBufferUpdated",
      "type": "event"
    },
    {
      "anonymous": false,
      "inputs": [
        {
          "indexed": true,
          "internalType": "address",
          "name": "reserver",
          "type": "address"
        },
        {
          "indexed": true,
          "internalType": "uint256",
          "name": "tokenId",
          "type": "uint256"
        },
        {
          "indexed": true,
          "internalType": "address",
          "name": "owner",
          "type": "address"
        },
        {
          "indexed": false,
          "internalType": "uint256",
          "name": "blockNumber",
          "type": "uint256"
        }
      ],
      "name": "Claim",
      "type": "event"
    },
    {
      "anonymous": false,
      "inputs": [
        {
          "indexed": false,
          "internalType": "uint8",
          "name": "version",
          "type": "uint8"
        }
      ],
      "name": "Initialized",
      "type": "event"
    },
    {
      "anonymous": false,
      "inputs": [
        {
          "indexed": true,
          "internalType": "address",
          "name": "previousOwner",
          "type": "address"
        },
        {
          "indexed": true,
          "internalType": "address",
          "name": "newOwner",
          "type": "address"
        }
      ],
      "name": "OwnershipTransferred",
      "type": "event"
    },
    {
      "anonymous": false,
      "inputs": [
        {
          "indexed": false,
          "internalType": "address",
          "name": "account",
          "type": "address"
        }
      ],
      "name": "Paused",
      "type": "event"
    },
    {
      "anonymous": false,
      "inputs": [
        {
          "indexed": true,
          "internalType": "address",
          "name": "reserver",
          "type": "address"
        },
        {
          "indexed": true,
          "internalType": "uint256",
          "name": "tokenId",
          "type": "uint256"
        },
        {
          "indexed": true,
          "internalType": "address",
          "name": "owner",
          "type": "address"
        },
        {
          "indexed": false,
          "internalType": "uint256",
          "name": "blockNumber",
          "type": "uint256"
        }
      ],
      "name": "Reserve",
      "type": "event"
    },
    {
      "anonymous": false,
      "inputs": [
        {
          "indexed": true,
          "internalType": "address",
          "name": "from",
          "type": "address"
        },
        {
          "indexed": true,
          "internalType": "address",
          "name": "to",
          "type": "address"
        },
        {
          "indexed": true,
          "internalType": "uint256",
          "name": "tokenId",
          "type": "uint256"
        }
      ],
      "name": "Transfer",
      "type": "event"
    },
    {
      "anonymous": false,
      "inputs": [
        {
          "indexed": false,
          "internalType": "address",
          "name": "account",
          "type": "address"
        }
      ],
      "name": "Unpaused",
      "type": "event"
    },
    {
      "inputs": [],
      "name": "_admin",
      "outputs": [
        {
          "internalType": "address",
          "name": "",
          "type": "address"
        }
      ],
      "stateMutability": "view",
      "type": "function"
    },
    {
      "inputs": [
        {
          "internalType": "uint256",
          "name": "",
          "type": "uint256"
        }
      ],
      "name": "_auctions",
      "outputs": [
        {
          "internalType": "uint256",
          "name": "tokenId",
          "type": "uint256"
        },
        {
          "internalType": "address",
          "name": "erc20Token",
          "type": "address"
        },
        {
          "internalType": "uint256",
          "name": "amount",
          "type": "uint256"
        },
        {
          "internalType": "uint256",
          "name": "startTime",
          "type": "uint256"
        },
        {
          "internalType": "uint256",
          "name": "endTime",
          "type": "uint256"
        },
        {
          "internalType": "address payable",
          "name": "bidder",
          "type": "address"
        },
        {
          "internalType": "bool",
          "name": "settled",
          "type": "bool"
        },
        {
          "internalType": "uint256",
          "name": "timeBuffer",
          "type": "uint256"
        },
        {
          "internalType": "uint256",
          "name": "reservePrice",
          "type": "uint256"
        },
        {
          "internalType": "uint256",
          "name": "minBidIncrementPercentage",
          "type": "uint256"
        },
        {
          "internalType": "bytes32",
          "name": "auctionId",
          "type": "bytes32"
        }
      ],
      "stateMutability": "view",
      "type": "function"
    },
    {
      "inputs": [
        {
          "internalType": "bytes32",
          "name": "",
          "type": "bytes32"
        }
      ],
      "name": "_auctionsList",
      "outputs": [
        {
          "internalType": "uint256",
          "name": "tokenId",
          "type": "uint256"
        },
        {
          "internalType": "address",
          "name": "erc20Token",
          "type": "address"
        },
        {
          "internalType": "uint256",
          "name": "amount",
          "type": "uint256"
        },
        {
          "internalType": "uint256",
          "name": "startTime",
          "type": "uint256"
        },
        {
          "internalType": "uint256",
          "name": "endTime",
          "type": "uint256"
        },
        {
          "internalType": "address payable",
          "name": "bidder",
          "type": "address"
        },
        {
          "internalType": "bool",
          "name": "settled",
          "type": "bool"
        },
        {
          "internalType": "uint256",
          "name": "timeBuffer",
          "type": "uint256"
        },
        {
          "internalType": "uint256",
          "name": "reservePrice",
          "type": "uint256"
        },
        {
          "internalType": "uint256",
          "name": "minBidIncrementPercentage",
          "type": "uint256"
        },
        {
          "internalType": "bytes32",
          "name": "auctionId",
          "type": "bytes32"
        }
      ],
      "stateMutability": "view",
      "type": "function"
    },
    {
      "inputs": [],
      "name": "_bfs",
      "outputs": [
        {
          "internalType": "address",
          "name": "",
          "type": "address"
        }
      ],
      "stateMutability": "view",
      "type": "function"
    },
    {
      "inputs": [
        {
          "internalType": "uint256",
          "name": "",
          "type": "uint256"
        },
        {
          "internalType": "bytes32",
          "name": "",
          "type": "bytes32"
        },
        {
          "internalType": "address",
          "name": "",
          "type": "address"
        }
      ],
      "name": "_bidderAuctions",
      "outputs": [
        {
          "internalType": "uint256",
          "name": "",
          "type": "uint256"
        }
      ],
      "stateMutability": "view",
      "type": "function"
    },
    {
      "inputs": [
        {
          "internalType": "uint256",
          "name": "",
          "type": "uint256"
        },
        {
          "internalType": "bytes32",
          "name": "",
          "type": "bytes32"
        },
        {
          "internalType": "uint256",
          "name": "",
          "type": "uint256"
        }
      ],
      "name": "_bidderAuctionsList",
      "outputs": [
        {
          "internalType": "address",
          "name": "",
          "type": "address"
        }
      ],
      "stateMutability": "view",
      "type": "function"
    },
    {
      "inputs": [
        {
          "internalType": "address",
          "name": "",
          "type": "address"
        },
        {
          "internalType": "address",
          "name": "",
          "type": "address"
        }
      ],
      "name": "_biddingBalance",
      "outputs": [
        {
          "internalType": "uint256",
          "name": "",
          "type": "uint256"
        }
      ],
      "stateMutability": "view",
      "type": "function"
    },
    {
      "inputs": [
        {
          "internalType": "address",
          "name": "",
          "type": "address"
        }
      ],
      "name": "_coreTeamTreasury",
      "outputs": [
        {
          "internalType": "uint256",
          "name": "",
          "type": "uint256"
        }
      ],
      "stateMutability": "view",
      "type": "function"
    },
    {
      "inputs": [],
      "name": "_gmToken",
      "outputs": [
        {
          "internalType": "address",
          "name": "",
          "type": "address"
        }
      ],
      "stateMutability": "view",
      "type": "function"
    },
    {
      "inputs": [],
      "name": "_maxSupply",
      "outputs": [
        {
          "internalType": "uint256",
          "name": "",
          "type": "uint256"
        }
      ],
      "stateMutability": "view",
      "type": "function"
    },
    {
      "inputs": [
        {
          "internalType": "uint256",
          "name": "",
          "type": "uint256"
        }
      ],
      "name": "_mintAt",
      "outputs": [
        {
          "internalType": "uint256",
          "name": "",
          "type": "uint256"
        }
      ],
      "stateMutability": "view",
      "type": "function"
    },
    {
      "inputs": [
        {
          "internalType": "address",
          "name": "",
          "type": "address"
        }
      ],
      "name": "_minted",
      "outputs": [
        {
          "internalType": "uint256",
          "name": "",
          "type": "uint256"
        }
      ],
      "stateMutability": "view",
      "type": "function"
    },
    {
      "inputs": [
        {
          "internalType": "uint256",
          "name": "",
          "type": "uint256"
        }
      ],
      "name": "_names",
      "outputs": [
        {
          "internalType": "string",
          "name": "",
          "type": "string"
        }
      ],
      "stateMutability": "view",
      "type": "function"
    },
    {
      "inputs": [],
      "name": "_paramsAddress",
      "outputs": [
        {
          "internalType": "address",
          "name": "",
          "type": "address"
        }
      ],
      "stateMutability": "view",
      "type": "function"
    },
    {
      "inputs": [],
      "name": "_randomizerAddr",
      "outputs": [
        {
          "internalType": "address",
          "name": "",
          "type": "address"
        }
      ],
      "stateMutability": "view",
      "type": "function"
    },
    {
      "inputs": [],
      "name": "_script",
      "outputs": [
        {
          "internalType": "string",
          "name": "",
          "type": "string"
        }
      ],
      "stateMutability": "view",
      "type": "function"
    },
    {
      "inputs": [],
      "name": "_signerMint",
      "outputs": [
        {
          "internalType": "address",
          "name": "",
          "type": "address"
        }
      ],
      "stateMutability": "view",
      "type": "function"
    },
    {
      "inputs": [
        {
          "internalType": "address",
          "name": "to",
          "type": "address"
        },
        {
          "internalType": "uint256",
          "name": "tokenId",
          "type": "uint256"
        }
      ],
      "name": "approve",
      "outputs": [],
      "stateMutability": "nonpayable",
      "type": "function"
    },
    {
      "inputs": [
        {
          "internalType": "uint256",
          "name": "tokenId",
          "type": "uint256"
        }
      ],
      "name": "available",
      "outputs": [
        {
          "internalType": "bool",
          "name": "",
          "type": "bool"
        }
      ],
      "stateMutability": "view",
      "type": "function"
    },
    {
      "inputs": [
        {
          "internalType": "address",
          "name": "owner",
          "type": "address"
        }
      ],
      "name": "balanceOf",
      "outputs": [
        {
          "internalType": "uint256",
          "name": "",
          "type": "uint256"
        }
      ],
      "stateMutability": "view",
      "type": "function"
    },
    {
      "inputs": [
        {
          "internalType": "address",
          "name": "walletAddress",
          "type": "address"
        }
      ],
      "name": "biddable",
      "outputs": [
        {
          "internalType": "bool",
          "name": "",
          "type": "bool"
        }
      ],
      "stateMutability": "view",
      "type": "function"
    },
    {
      "inputs": [
        {
          "internalType": "address",
          "name": "newAdm",
          "type": "address"
        }
      ],
      "name": "changeAdmin",
      "outputs": [],
      "stateMutability": "nonpayable",
      "type": "function"
    },
    {
      "inputs": [
        {
          "internalType": "address",
          "name": "newBfs",
          "type": "address"
        }
      ],
      "name": "changeBfs",
      "outputs": [],
      "stateMutability": "nonpayable",
      "type": "function"
    },
    {
      "inputs": [
        {
          "internalType": "address",
          "name": "newBrc20",
          "type": "address"
        }
      ],
      "name": "changeBrc20Token",
      "outputs": [],
      "stateMutability": "nonpayable",
      "type": "function"
    },
    {
      "inputs": [
        {
          "internalType": "address",
          "name": "newAddr",
          "type": "address"
        }
      ],
      "name": "changeParamAddr",
      "outputs": [],
      "stateMutability": "nonpayable",
      "type": "function"
    },
    {
      "inputs": [
        {
          "internalType": "address",
          "name": "newAddr",
          "type": "address"
        }
      ],
      "name": "changeRandomizerAddr",
      "outputs": [],
      "stateMutability": "nonpayable",
      "type": "function"
    },
    {
      "inputs": [
        {
          "internalType": "string",
          "name": "newScript",
          "type": "string"
        }
      ],
      "name": "changeScript",
      "outputs": [],
      "stateMutability": "nonpayable",
      "type": "function"
    },
    {
      "inputs": [
        {
          "internalType": "address",
          "name": "newAdd",
          "type": "address"
        }
      ],
      "name": "changeSignerMint",
      "outputs": [],
      "stateMutability": "nonpayable",
      "type": "function"
    },
    {
      "inputs": [
        {
          "internalType": "uint256",
          "name": "tokenId",
          "type": "uint256"
        }
      ],
      "name": "createAuction",
      "outputs": [],
      "stateMutability": "nonpayable",
      "type": "function"
    },
    {
      "inputs": [
        {
          "internalType": "uint256",
          "name": "tokenId",
          "type": "uint256"
        },
        {
          "internalType": "uint256",
          "name": "amount",
          "type": "uint256"
        }
      ],
      "name": "createBid",
      "outputs": [],
      "stateMutability": "nonpayable",
      "type": "function"
    },
    {
      "inputs": [
        {
          "internalType": "uint256",
          "name": "amount",
          "type": "uint256"
        }
      ],
      "name": "deposit",
      "outputs": [],
      "stateMutability": "payable",
      "type": "function"
    },
    {
      "inputs": [
        {
          "internalType": "uint256",
          "name": "tokenId",
          "type": "uint256"
        }
      ],
      "name": "getApproved",
      "outputs": [
        {
          "internalType": "address",
          "name": "",
          "type": "address"
        }
      ],
      "stateMutability": "view",
      "type": "function"
    },
    {
      "inputs": [
        {
          "internalType": "address",
          "name": "user",
          "type": "address"
        },
        {
          "internalType": "uint256",
          "name": "totalGM",
          "type": "uint256"
        }
      ],
      "name": "getMessageHash",
      "outputs": [
        {
          "internalType": "bytes32",
          "name": "",
          "type": "bytes32"
        }
      ],
      "stateMutability": "view",
      "type": "function"
    },
    {
      "inputs": [
        {
          "internalType": "string",
          "name": "name",
          "type": "string"
        },
        {
          "internalType": "string",
          "name": "symbol",
          "type": "string"
        },
        {
          "internalType": "address",
          "name": "admin",
          "type": "address"
        },
        {
          "internalType": "address",
          "name": "paramsAddress",
          "type": "address"
        },
        {
          "internalType": "address",
          "name": "randomizerAddr",
          "type": "address"
        },
        {
          "internalType": "address",
          "name": "gmToken",
          "type": "address"
        },
        {
          "internalType": "address",
          "name": "bfs",
          "type": "address"
        },
        {
          "internalType": "address",
          "name": "signerMint",
          "type": "address"
        }
      ],
      "name": "initialize",
      "outputs": [],
      "stateMutability": "nonpayable",
      "type": "function"
    },
    {
      "inputs": [
        {
          "internalType": "address",
          "name": "owner",
          "type": "address"
        },
        {
          "internalType": "address",
          "name": "operator",
          "type": "address"
        }
      ],
      "name": "isApprovedForAll",
      "outputs": [
        {
          "internalType": "bool",
          "name": "",
          "type": "bool"
        }
      ],
      "stateMutability": "view",
      "type": "function"
    },
    {
      "inputs": [
        {
          "internalType": "address",
          "name": "to",
          "type": "address"
        },
        {
          "internalType": "uint256",
          "name": "totalGM",
          "type": "uint256"
        },
        {
          "internalType": "bytes",
          "name": "signature",
          "type": "bytes"
        }
      ],
      "name": "mint",
      "outputs": [
        {
          "internalType": "uint256",
          "name": "tokenId",
          "type": "uint256"
        }
      ],
      "stateMutability": "nonpayable",
      "type": "function"
    },
    {
      "inputs": [],
      "name": "name",
      "outputs": [
        {
          "internalType": "string",
          "name": "",
          "type": "string"
        }
      ],
      "stateMutability": "view",
      "type": "function"
    },
    {
      "inputs": [
        {
          "internalType": "address",
          "name": "",
          "type": "address"
        },
        {
          "internalType": "address",
          "name": "",
          "type": "address"
        },
        {
          "internalType": "uint256",
          "name": "",
          "type": "uint256"
        },
        {
          "internalType": "bytes",
          "name": "",
          "type": "bytes"
        }
      ],
      "name": "onERC721Received",
      "outputs": [
        {
          "internalType": "bytes4",
          "name": "",
          "type": "bytes4"
        }
      ],
      "stateMutability": "pure",
      "type": "function"
    },
    {
      "inputs": [],
      "name": "owner",
      "outputs": [
        {
          "internalType": "address",
          "name": "",
          "type": "address"
        }
      ],
      "stateMutability": "view",
      "type": "function"
    },
    {
      "inputs": [
        {
          "internalType": "uint256",
          "name": "tokenId",
          "type": "uint256"
        }
      ],
      "name": "ownerOf",
      "outputs": [
        {
          "internalType": "address",
          "name": "",
          "type": "address"
        }
      ],
      "stateMutability": "view",
      "type": "function"
    },
    {
      "inputs": [],
      "name": "p5jsScript",
      "outputs": [
        {
          "internalType": "string",
          "name": "result",
          "type": "string"
        }
      ],
      "stateMutability": "view",
      "type": "function"
    },
    {
      "inputs": [],
      "name": "paused",
      "outputs": [
        {
          "internalType": "bool",
          "name": "",
          "type": "bool"
        }
      ],
      "stateMutability": "view",
      "type": "function"
    },
    {
      "inputs": [],
      "name": "renounceOwnership",
      "outputs": [],
      "stateMutability": "nonpayable",
      "type": "function"
    },
    {
      "inputs": [
        {
          "internalType": "uint256",
          "name": "projectId",
          "type": "uint256"
        },
        {
          "internalType": "uint256",
          "name": "_salePrice",
          "type": "uint256"
        }
      ],
      "name": "royaltyInfo",
      "outputs": [
        {
          "internalType": "address",
          "name": "receiver",
          "type": "address"
        },
        {
          "internalType": "uint256",
          "name": "royaltyAmount",
          "type": "uint256"
        }
      ],
      "stateMutability": "view",
      "type": "function"
    },
    {
      "inputs": [
        {
          "internalType": "address",
          "name": "from",
          "type": "address"
        },
        {
          "internalType": "address",
          "name": "to",
          "type": "address"
        },
        {
          "internalType": "uint256",
          "name": "tokenId",
          "type": "uint256"
        }
      ],
      "name": "safeTransferFrom",
      "outputs": [],
      "stateMutability": "nonpayable",
      "type": "function"
    },
    {
      "inputs": [
        {
          "internalType": "address",
          "name": "from",
          "type": "address"
        },
        {
          "internalType": "address",
          "name": "to",
          "type": "address"
        },
        {
          "internalType": "uint256",
          "name": "tokenId",
          "type": "uint256"
        },
        {
          "internalType": "bytes",
          "name": "data",
          "type": "bytes"
        }
      ],
      "name": "safeTransferFrom",
      "outputs": [],
      "stateMutability": "nonpayable",
      "type": "function"
    },
    {
      "inputs": [
        {
          "internalType": "address",
          "name": "operator",
          "type": "address"
        },
        {
          "internalType": "bool",
          "name": "approved",
          "type": "bool"
        }
      ],
      "name": "setApprovalForAll",
      "outputs": [],
      "stateMutability": "nonpayable",
      "type": "function"
    },
    {
      "inputs": [
        {
          "internalType": "uint256",
          "name": "tokenId",
          "type": "uint256"
        },
        {
          "internalType": "string",
          "name": "name",
          "type": "string"
        }
      ],
      "name": "setName",
      "outputs": [],
      "stateMutability": "nonpayable",
      "type": "function"
    },
    {
      "inputs": [
        {
          "internalType": "uint256",
          "name": "tokenId",
          "type": "uint256"
        }
      ],
      "name": "settleAuction",
      "outputs": [],
      "stateMutability": "nonpayable",
      "type": "function"
    },
    {
      "inputs": [
        {
          "internalType": "bytes4",
          "name": "interfaceId",
          "type": "bytes4"
        }
      ],
      "name": "supportsInterface",
      "outputs": [
        {
          "internalType": "bool",
          "name": "",
          "type": "bool"
        }
      ],
      "stateMutability": "view",
      "type": "function"
    },
    {
      "inputs": [],
      "name": "symbol",
      "outputs": [
        {
          "internalType": "string",
          "name": "",
          "type": "string"
        }
      ],
      "stateMutability": "view",
      "type": "function"
    },
    {
      "inputs": [
        {
          "internalType": "bytes32",
          "name": "seed",
          "type": "bytes32"
        },
        {
          "internalType": "uint256",
          "name": "tokenId",
          "type": "uint256"
        }
      ],
      "name": "tokenHTML",
      "outputs": [
        {
          "internalType": "string",
          "name": "result",
          "type": "string"
        }
      ],
      "stateMutability": "view",
      "type": "function"
    },
    {
      "inputs": [
        {
          "internalType": "uint256",
          "name": "tokenId",
          "type": "uint256"
        }
      ],
      "name": "tokenIdToHash",
      "outputs": [
        {
          "internalType": "bytes32",
          "name": "",
          "type": "bytes32"
        }
      ],
      "stateMutability": "view",
      "type": "function"
    },
    {
      "inputs": [
        {
          "internalType": "uint256",
          "name": "tokenId",
          "type": "uint256"
        }
      ],
      "name": "tokenURI",
      "outputs": [
        {
          "internalType": "string",
          "name": "result",
          "type": "string"
        }
      ],
      "stateMutability": "view",
      "type": "function"
    },
    {
      "inputs": [
        {
          "internalType": "address",
          "name": "from",
          "type": "address"
        },
        {
          "internalType": "address",
          "name": "to",
          "type": "address"
        },
        {
          "internalType": "uint256",
          "name": "tokenId",
          "type": "uint256"
        }
      ],
      "name": "transferFrom",
      "outputs": [],
      "stateMutability": "nonpayable",
      "type": "function"
    },
    {
      "inputs": [
        {
          "internalType": "address",
          "name": "newOwner",
          "type": "address"
        }
      ],
      "name": "transferOwnership",
      "outputs": [],
      "stateMutability": "nonpayable",
      "type": "function"
    },
    {
      "inputs": [
        {
          "internalType": "bytes32",
          "name": "seed",
          "type": "bytes32"
        },
        {
          "internalType": "uint256",
          "name": "tokenId",
          "type": "uint256"
        }
      ],
      "name": "variableScript",
      "outputs": [
        {
          "internalType": "string",
          "name": "result",
          "type": "string"
        }
      ],
      "stateMutability": "view",
      "type": "function"
    },
    {
      "inputs": [],
      "name": "web3Script",
      "outputs": [
        {
          "internalType": "string",
          "name": "result",
          "type": "string"
        }
      ],
      "stateMutability": "view",
      "type": "function"
    },
    {
      "inputs": [
        {
          "internalType": "address",
          "name": "erc20Addr",
          "type": "address"
        }
      ],
      "name": "withdraw",
      "outputs": [],
      "stateMutability": "nonpayable",
      "type": "function"
    }
  ],
  "bytecode": "0x608060405234801561001057600080fd5b506168f480620000216000396000f3fe60806040526004361061038c5760003560e01c806374973a41116101dc578063adfc7dae11610102578063cc22e004116100a0578063f2fde38b1161006f578063f2fde38b14610c3f578063f3f83ddd14610c5f578063fe55932a14610c7f578063febfd6c314610c9f57600080fd5b8063cc22e00414610b88578063d5563f3114610bb6578063e985e9c514610bd6578063eb29c23214610c1f57600080fd5b8063b88d4fde116100dc578063b88d4fde14610af3578063bd89684314610b0e578063c5c1b8af14610b2f578063c87b56dd14610b6857600080fd5b8063adfc7dae14610a9f578063b6b55f2514610ac0578063b7751c7114610ad357600080fd5b806394d008ef1161017a5780639a247cb3116101495780639a247cb3146109c95780639c6f35f914610a49578063a0d41e1114610a6a578063a22cb46514610a7f57600080fd5b806394d008ef1461095457806394f5a66e1461097457806395d89b411461099457806396e494e8146109a957600080fd5b80638a016249116101b65780638a016249146108e05780638da5cb5b146108f55780638f2839701461091457806393c6cdc01461093457600080fd5b806374973a411461087d57806375b4ab5d146108925780637de77ecc146108b257600080fd5b80632a55205a116102c157806351cff8d91161025f5780636352211e1161022e5780636352211e1461080757806366215eb41461082757806370a0823114610848578063715018a61461086857600080fd5b806351cff8d91461077057806355cd6326146107905780635c975abb146107cf578063621a1f74146107e757600080fd5b806332e323261161029b57806332e32326146106ef578063333489791461070f57806342842e0e14610730578063512c91df1461075057600080fd5b80632a55205a146106705780632b7d13de146106af5780632e993611146106cf57600080fd5b8063150b7a021161032e57806322f4596f1161030857806322f4596f146105e257806323b872dd1461060757806325c5aa06146106225780632824d1621461064257600080fd5b8063150b7a02146104a357806317dc6bf6146104dc5780631ca9741b146105c257600080fd5b806306fdde031161036a57806306fdde031461041f578063081812fc14610441578063095ea7b314610461578063140f0e071461048357600080fd5b806301bc45c91461039157806301ffc9a7146103cf57806306cb20c1146103ff575b600080fd5b34801561039d57600080fd5b5061015f546103b2906001600160a01b031681565b6040516001600160a01b0390911681526020015b60405180910390f35b3480156103db57600080fd5b506103ef6103ea3660046157ec565b610cbf565b60405190151581526020016103c6565b34801561040b57600080fd5b506103b261041a366004615809565b610d11565b34801561042b57600080fd5b50610434610d57565b6040516103c6919061588d565b34801561044d57600080fd5b506103b261045c3660046158a0565b610de9565b34801561046d57600080fd5b5061048161047c3660046158d9565b610e10565b005b34801561048f57600080fd5b5061048161049e3660046159d0565b610f2b565b3480156104af57600080fd5b506104c36104be366004615a45565b610f8b565b6040516001600160e01b031990911681526020016103c6565b3480156104e857600080fd5b5061055c6104f73660046158a0565b61016d60205260009081526040902080546001820154600283015460038401546004850154600586015460068701546007880154600889015460099099015497986001600160a01b0397881698969795969495841694600160a01b90940460ff16938b565b604080519b8c526001600160a01b039a8b1660208d01528b019890985260608a019690965260808901949094529590911660a0870152151560c086015260e0850193909352610100840192909252610120830191909152610140820152610160016103c6565b3480156105ce57600080fd5b506104816105dd366004615ab7565b610f9d565b3480156105ee57600080fd5b506105f96101665481565b6040519081526020016103c6565b34801561061357600080fd5b5061048161038c366004615ad4565b34801561062e57600080fd5b5061043461063d3660046158a0565b611031565b34801561064e57600080fd5b506105f961065d366004615ab7565b6101706020526000908152604090205481565b34801561067c57600080fd5b5061069061068b366004615b15565b6110cc565b604080516001600160a01b0390931683526020830191909152016103c6565b3480156106bb57600080fd5b506104816106ca366004615ab7565b6110fd565b3480156106db57600080fd5b506104816106ea3660046158a0565b611192565b3480156106fb57600080fd5b5061043461070a366004615b15565b6111ca565b34801561071b57600080fd5b50610165546103b2906001600160a01b031681565b34801561073c57600080fd5b5061048161074b366004615ad4565b6113b3565b34801561075c57600080fd5b506105f961076b3660046158d9565b6113ce565b34801561077c57600080fd5b5061048161078b366004615ab7565b61142c565b34801561079c57600080fd5b506105f96107ab366004615b37565b61016f60209081526000938452604080852082529284528284209052825290205481565b3480156107db57600080fd5b5060975460ff166103ef565b3480156107f357600080fd5b506105f96108023660046158a0565b611666565b34801561081357600080fd5b506103b26108223660046158a0565b611734565b34801561083357600080fd5b50610161546103b2906001600160a01b031681565b34801561085457600080fd5b506105f9610863366004615ab7565b611750565b34801561087457600080fd5b506104816117d6565b34801561088957600080fd5b506104346117ea565b34801561089e57600080fd5b506103ef6108ad366004615ab7565b611a44565b3480156108be57600080fd5b506105f96108cd366004615ab7565b61016a6020526000908152604090205481565b3480156108ec57600080fd5b50610434611b47565b34801561090157600080fd5b5061012d546001600160a01b03166103b2565b34801561092057600080fd5b5061048161092f366004615ab7565b611b55565b34801561094057600080fd5b5061048161094f366004615ab7565b611bea565b34801561096057600080fd5b506105f961096f366004615b70565b611c7f565b34801561098057600080fd5b5061048161098f366004615bcb565b611fd5565b3480156109a057600080fd5b506104346121fb565b3480156109b557600080fd5b506103ef6109c43660046158a0565b61220a565b3480156109d557600080fd5b5061055c6109e43660046158a0565b61016e60205260009081526040902080546001820154600283015460038401546004850154600586015460068701546007880154600889015460099099015497986001600160a01b0397881698969795969495841694600160a01b90940460ff16938b565b348015610a5557600080fd5b50610164546103b2906001600160a01b031681565b348015610a7657600080fd5b506104346122ed565b348015610a8b57600080fd5b50610481610a9a366004615caa565b61251e565b348015610aab57600080fd5b50610160546103b2906001600160a01b031681565b610481610ace3660046158a0565b612529565b348015610adf57600080fd5b50610481610aee366004615b15565b61283b565b348015610aff57600080fd5b5061048161038c366004615ce3565b348015610b1a57600080fd5b50610167546103b2906001600160a01b031681565b348015610b3b57600080fd5b506105f9610b4a366004615d62565b61016c60209081526000928352604080842090915290825290205481565b348015610b7457600080fd5b50610434610b833660046158a0565b612d9c565b348015610b9457600080fd5b506105f9610ba33660046158a0565b6101696020526000908152604090205481565b348015610bc257600080fd5b50610481610bd13660046158a0565b612f6d565b348015610be257600080fd5b506103ef610bf1366004615d62565b6001600160a01b039182166000908152606a6020908152604080832093909416825291909152205460ff1690565b348015610c2b57600080fd5b50610434610c3a366004615b15565b612fbc565b348015610c4b57600080fd5b50610481610c5a366004615ab7565b61308e565b348015610c6b57600080fd5b50610481610c7a366004615ab7565b613104565b348015610c8b57600080fd5b50610481610c9a366004615d90565b613199565b348015610cab57600080fd5b50610481610cba366004615ab7565b6131f2565b60006001600160e01b031982166380ac58cd60e01b1480610cf057506001600160e01b03198216635b5e139f60e01b145b80610d0b57506301ffc9a760e01b6001600160e01b03198316145b92915050565b6101716020528260005260406000206020528160005260406000208181548110610d3a57600080fd5b6000918252602090912001546001600160a01b0316925083915050565b606060658054610d6690615dd6565b80601f0160208091040260200160405190810160405280929190818152602001828054610d9290615dd6565b8015610ddf5780601f10610db457610100808354040283529160200191610ddf565b820191906000526020600020905b815481529060010190602001808311610dc257829003601f168201915b5050505050905090565b6000610df482613287565b506000908152606960205260409020546001600160a01b031690565b6000610e1b826132d7565b9050806001600160a01b0316836001600160a01b03161415610e8e5760405162461bcd60e51b815260206004820152602160248201527f4552433732313a20617070726f76616c20746f2063757272656e74206f776e656044820152603960f91b60648201526084015b60405180910390fd5b336001600160a01b0382161480610eaa5750610eaa8133610bf1565b610f1c5760405162461bcd60e51b815260206004820152603d60248201527f4552433732313a20617070726f76652063616c6c6572206973206e6f7420746f60448201527f6b656e206f776e6572206f7220617070726f76656420666f7220616c6c0000006064820152608401610e85565b610f268383613337565b505050565b61015f5460408051808201909152600381526231303160e81b6020820152906001600160a01b03163314610f725760405162461bcd60e51b8152600401610e85919061588d565b508051610f879061016390602084019061573d565b5050565b630a85bd0160e11b5b95945050505050565b61015f546001600160a01b031633148015610fc057506001600160a01b03811615155b6040518060400160405280600381526020016231303160e81b81525090610ffa5760405162461bcd60e51b8152600401610e85919061588d565b50610161546001600160a01b0382811691161461102e5761016180546001600160a01b0319166001600160a01b0383161790555b50565b610172602052600090815260409020805461104b90615dd6565b80601f016020809104026020016040519081016040528092919081815260200182805461107790615dd6565b80156110c45780601f10611099576101008083540402835291602001916110c4565b820191906000526020600020905b8154815290600101906020018083116110a757829003601f168201915b505050505081565b61015f546001600160a01b031660006127106110ea846101f4615e27565b6110f49190615e46565b90509250929050565b61015f546001600160a01b03163314801561112057506001600160a01b03811615155b6040518060400160405280600381526020016231303160e81b8152509061115a5760405162461bcd60e51b8152600401610e85919061588d565b50610165546001600160a01b0382811691161461102e5761016580546001600160a01b0383166001600160a01b031990911617905550565b61119a613403565b6111c0816111a783611734565b6001600160a01b0316336001600160a01b03161461345d565b61102e600160fb55565b6040805180820190915260128152711e39b1b934b83a1034b21e93bb30b939939f60711b6020820152806111fd84613a64565b60405160200161120e929190615e68565b60408051601f19818403018152919052610164549091508190611239906001600160a01b0316613ab0565b60405160200161124a929190615ebc565b60408051808303601f19018152908290526101605463bf40fac160e01b835260206004840152602160248401527f535741505f504f4f4c5f474d5f4554485f434f4e54524143545f4144445245536044840152605360f81b60648401529092506001600160a01b031690600090829063bf40fac190608401602060405180830381865afa1580156112df573d6000803e3d6000fd5b505050506040513d601f19601f820116820180604052508101906113039190615f23565b90508261130f82613ab0565b604051602001611320929190615f40565b60405160208183030381529060405292508261133b30613ab0565b60405160200161134c929190615fb8565b60405160208183030381529060405292508261136785613ac6565b60405160200161137892919061601f565b60405160208183030381529060405292508260405160200161139a9190616077565b6040516020818303038152906040529250505092915050565b610f2683838360405180602001604052806000815250600080fd5b6101675461016454604080513060208083019190915246828401526001600160a01b03948516606083015295841660808201529290911660a083015260c0808301939093528051808303909301835260e09091019052805191012090565b611434613403565b61015f5481906001600160a01b0316331415611544576001600160a01b0382166000908152610170602052604090205461146d57600080fd5b6001600160a01b03828116600090815261017060205260409081902054905163a9059cbb60e01b815233600482015260248101919091529082169063a9059cbb906044016020604051808303816000875af11580156114d0573d6000803e3d6000fd5b505050506040513d601f19601f820116820180604052508101906114f491906160a4565b6115255760405162461bcd60e51b8152602060048201526002602482015261573160f01b6044820152606401610e85565b6001600160a01b0382166000908152610170602052604081205561165b565b33600090815261016c602090815260408083206001600160a01b038616845290915290205461157257600080fd5b33600081815261016c602090815260408083206001600160a01b03878116855292529182902054915163a9059cbb60e01b81526004810193909352602483019190915282169063a9059cbb906044016020604051808303816000875af11580156115e0573d6000803e3d6000fd5b505050506040513d601f19601f8201168201806040525081019061160491906160a4565b6116355760405162461bcd60e51b81526020600482015260026024820152612b9960f11b6044820152606401610e85565b33600090815261016c602090815260408083206001600160a01b03861684529091528120555b5061102e600160fb55565b600061167182613b62565b6040518060400160405280600381526020016232303960e81b815250906116ab5760405162461bcd60e51b8152600401610e85919061588d565b5060008281526101686020526040902054600160a01b900460a01b6001600160a01b0319166116dc57506000919050565b6000828152610168602090815260409182902054915161171792600160a01b900460a01b91016001600160a01b031991909116815260200190565b604051602081830303815290604052805190602001209050919050565b600090815261016860205260409020546001600160a01b031690565b60006001600160a01b0382166117ba5760405162461bcd60e51b815260206004820152602960248201527f4552433732313a2061646472657373207a65726f206973206e6f7420612076616044820152683634b21037bbb732b960b91b6064820152608401610e85565b506001600160a01b031660009081526068602052604090205490565b6117de613b80565b6117e86000613bdb565b565b60606040518060600160405280603781526020016168886037913961016554604080518082018252600d81526c70356a7340312e352e302e6a7360981b602082015261016054915163bf40fac160e01b81529394506001600160a01b039283169390929190911690600090829063bf40fac19061188d906004016020808252600f908201526e29a1a924a82a2fa82927ab24a222a960891b604082015260600190565b602060405180830381865afa1580156118aa573d6000803e3d6000fd5b505050506040513d601f19601f820116820180604052508101906118ce9190615f23565b90506000846001600160a01b031663ba67e64183866040518363ffffffff1660e01b81526004016119009291906160c1565b602060405180830381865afa15801561191d573d6000803e3d6000fd5b505050506040513d601f19601f8201168201806040525081019061194191906160e5565b905061194e6001826160fe565b905060005b81811015611a195761015f5460405163283959d960e21b815260009182916001600160a01b038a81169263a0e567649261199792909116908b908890600401616116565b600060405180830381865afa1580156119b4573d6000803e3d6000fd5b505050506040513d6000823e601f3d908101601f191682016040526119dc919081019061617a565b9150915088826040516020016119f39291906161d4565b604051602081830303815290604052985050508080611a1190616203565b915050611953565b5085604051602001611a2b9190616077565b6040516020818303038152906040529550505050505090565b600080611a5083611750565b1115611a5e57506000919050565b6101605460405163bf40fac160e01b81526000916001600160a01b03169063bf40fac190611a8e9060040161621e565b602060405180830381865afa158015611aab573d6000803e3d6000fd5b505050506040513d601f19601f82011682018060405250810190611acf9190615f23565b90506001600160a01b038116611aee5750610164546001600160a01b03165b611af6613c2e565b6001600160a01b03808516600090815261016c6020908152604080832093861683529290522054611b2685613cd9565b611b3091906160fe565b10611b3e5750600192915050565b50600092915050565b610163805461104b90615dd6565b61015f546001600160a01b031633148015611b7857506001600160a01b03811615155b6040518060400160405280600381526020016231303160e81b81525090611bb25760405162461bcd60e51b8152600401610e85919061588d565b5061015f546001600160a01b0382811691161461102e5761015f80546001600160a01b0383166001600160a01b031990911617905550565b61015f546001600160a01b031633148015611c0d57506001600160a01b03811615155b6040518060400160405280600381526020016231303160e81b81525090611c475760405162461bcd60e51b8152600401610e85919061588d565b50610164546001600160a01b0382811691161461102e5761016480546001600160a01b0383166001600160a01b031990911617905550565b6000611c89613403565b6101665461016254106040518060400160405280600381526020016232303360e81b81525090611ccc5760405162461bcd60e51b8152600401610e85919061588d565b5061015f546001600160a01b03163314611e0c57336001600160a01b03861614611d205760405162461bcd60e51b815260206004820152600560248201526447505f495560d81b6044820152606401610e85565b611d2985611750565b15611d5c5760405162461bcd60e51b8152602060048201526003602482015262312d3160e81b6044820152606401610e85565b6001600160a01b038516600090815261016a602052604090205415611da75760405162461bcd60e51b81526020600482015260016024820152604d60f81b6044820152606401610e85565b611de8858585858080601f016020809104026020016040519081016040528093929190818152602001838380828437600092019190915250613d4992505050565b50506001600160a01b038516600090815261016a6020526040902060019055611f08565b61015f546001600160a01b0386811691161415611e535760405162461bcd60e51b815260206004820152600560248201526447505f495560d81b6044820152606401610e85565b6001600160a01b0385163014611f0857611e6c85611750565b15611e9f5760405162461bcd60e51b8152602060048201526003602482015262312d3160e81b6044820152606401610e85565b6001600160a01b038516600090815261016a602052604090205415611eea5760405162461bcd60e51b81526020600482015260016024820152604d60f81b6044820152606401610e85565b6001600160a01b038516600090815261016a60205260409020600190555b6101628054906000611f1983616203565b9190505550610162549050611f2e8582613dc2565b61016154604051631da00d8560e01b8152600481018390526001600160a01b03909116906000908290631da00d85906024016020604051808303816000875af1158015611f7f573d6000803e3d6000fd5b505050506040513d601f19601f82011682018060405250810190611fa391906160e5565b9050611faf8382613ddc565b5050600081815261016960205260409020439055611fcd600160fb55565b949350505050565b600054610100900460ff1615808015611ff55750600054600160ff909116105b8061200f5750303b15801561200f575060005460ff166001145b6120725760405162461bcd60e51b815260206004820152602e60248201527f496e697469616c697a61626c653a20636f6e747261637420697320616c72656160448201526d191e481a5b9a5d1a585b1a5e995960921b6064820152608401610e85565b6000805460ff191660011790558015612095576000805461ff0019166101001790555b60408051808201909152600381526203130360ec1b60208201526001600160a01b0388166120d65760405162461bcd60e51b8152600401610e85919061588d565b5060408051808201909152600381526203130360ec1b60208201526001600160a01b0387166121185760405162461bcd60e51b8152600401610e85919061588d565b5061016080546001600160a01b03199081166001600160a01b038981169190911790925561015f805482168a841617905561016180548216888416179055610164805482168784161790556104df610166556101658054821686841617905561016780549091169184169190911790556121928989613ea7565b61219a613ed8565b6121a2613f07565b6121aa613f36565b80156121f0576000805461ff0019169055604051600181527f7f26b83ff96e1f2b6a682f133852f6798a09c465da95921460cefb38474024989060200160405180910390a15b505050505050505050565b606060668054610d6690615dd6565b600061221582613b62565b61222157506000919050565b612229613f65565b600083815261016960205260409020546122439043616255565b1161225057506000919050565b61015f546001600160a01b031661226683611734565b6001600160a01b0316141561227d57506000919050565b3061228783611734565b6001600160a01b031614156122c057600082815261016d6020526040902060050154600160a01b900460ff16156122c057506001919050565b60006122ca613c2e565b9050806122de6122d985611734565b613cd9565b1015611b3e5750600192915050565b60606040518060600160405280603781526020016168886037913961016554604080518082018252600f81526e776562336a7340312e322e372e6a7360881b602082015261016054915163bf40fac160e01b81529394506001600160a01b039283169390929190911690600090829063bf40fac190612392906004016020808252600f908201526e29a1a924a82a2fa82927ab24a222a960891b604082015260600190565b602060405180830381865afa1580156123af573d6000803e3d6000fd5b505050506040513d601f19601f820116820180604052508101906123d39190615f23565b90506000846001600160a01b031663ba67e64183866040518363ffffffff1660e01b81526004016124059291906160c1565b602060405180830381865afa158015612422573d6000803e3d6000fd5b505050506040513d601f19601f8201168201806040525081019061244691906160e5565b90506124536001826160fe565b905060005b81811015611a195761015f5460405163283959d960e21b815260009182916001600160a01b038a81169263a0e567649261249c92909116908b908890600401616116565b600060405180830381865afa1580156124b9573d6000803e3d6000fd5b505050506040513d6000823e601f3d908101601f191682016040526124e1919081019061617a565b9150915088826040516020016124f89291906161d4565b60405160208183030381529060405298505050808061251690616203565b915050612458565b610f87338383614007565b612531613403565b6101605460405163bf40fac160e01b81526000916001600160a01b03169063bf40fac1906125619060040161621e565b602060405180830381865afa15801561257e573d6000803e3d6000fd5b505050506040513d601f19601f820116820180604052508101906125a29190615f23565b90506001600160a01b0381166125c15750610164546001600160a01b03165b604051636eb1769f60e11b8152336004820152306024820152819083906001600160a01b0383169063dd62ed3e90604401602060405180830381865afa15801561260f573d6000803e3d6000fd5b505050506040513d601f19601f8201168201806040525081019061263391906160e5565b10156126815760405162461bcd60e51b815260206004820152601c60248201527f6e6f7420656e6f75676820616c6c6f7720657263323020746f6b656e000000006044820152606401610e85565b6040516370a0823160e01b815233600482015283906001600160a01b038316906370a0823190602401602060405180830381865afa1580156126c7573d6000803e3d6000fd5b505050506040513d601f19601f820116820180604052508101906126eb91906160e5565b10156127325760405162461bcd60e51b81526020600482015260166024820152753737ba1032b737bab3b41032b9319918103a37b5b2b760511b6044820152606401610e85565b6040516323b872dd60e01b8152336004820152306024820152604481018490526001600160a01b038216906323b872dd906064016020604051808303816000875af1158015612785573d6000803e3d6000fd5b505050506040513d601f19601f820116820180604052508101906127a991906160a4565b6127f55760405162461bcd60e51b815260206004820152601d60248201527f63616e206e6f74206765742065726332302066726f6d206269646465720000006044820152606401610e85565b33600090815261016c602090815260408083206001600160a01b0386168452909152812080548592906128299084906160fe565b9091555050600160fb555061102e9050565b612843613403565b61284c33611a44565b6128815760405162461bcd60e51b8152600401610e859060208082526004908201526304e5f43360e41b604082015260600190565b61288a33611750565b156128c05760405162461bcd60e51b8152602060048201526006602482015265272fa1982f9960d11b6044820152606401610e85565b600082815261016f6020908152604080832061016d835281842060090154845282528083203384529091529020546129355760008281526101716020908152604080832061016d835281842060090154845282528220805460018101825590835291200180546001600160a01b031916331790555b600082815261016d602052604090205482146129885760405162461bcd60e51b81526020600482015260126024820152713737ba103ab8103337b91030bab1ba34b7b760711b6044820152606401610e85565b600082815261016d602052604090206004015443106129db5760405162461bcd60e51b815260206004820152600f60248201526e105d58dd1a5bdb88195e1c1a5c9959608a1b6044820152606401610e85565b33600090815261016c6020908152604080832085845261016d8352818420600101546001600160a01b03168452909152902054811115612a5d5760405162461bcd60e51b815260206004820152601e60248201527f6e6f7420656e6f7567682062616c616e636520657263323020746f6b656e00006044820152606401610e85565b600082815261016f6020908152604080832061016d8352818420600901548452825280832033845290915281205490612a9682846160fe565b600085815261016d60205260409020600701549091508111612afa5760405162461bcd60e51b815260206004820152601f60248201527f4d7573742073656e64206174206c6561737420726573657276655072696365006044820152606401610e85565b600084815261016d602052604090206008810154600290910154606491612b2091615e27565b612b2a9190615e46565b600085815261016d6020526040902060020154612b4791906160fe565b8111612bbd576040805162461bcd60e51b81526020600482015260248101919091527f4d7573742073656e64206d6f7265207468616e206c617374206269642062792060448201527f6d696e426964496e6372656d656e7450657263656e7461676520616d6f756e746064820152608401610e85565b33600090815261016c6020908152604080832087845261016d8352818420600101546001600160a01b0316845290915281208054859290612bff908490616255565b9091555050600084815261016f6020908152604080832061016d8084528285206009810180548752928552838620338088529086528487208890556002808301899055600580840180546001600160a01b0319908116909417815586548a5261016e8952878a209092018a905590549454885294872090940180549094166001600160a01b039093169290921790925587845291526006810154600490910154612caa904390616255565b1090508015612ce457600085815261016d6020526040902060060154612cd090436160fe565b600086815261016d60205260409020600401555b600085815261016d602052604090819020805491517ffd09e259e5c48be16f7dd63468e19266c684a9f3dce3b31881dbc1f909fc0d7c91612d2b9133918991879190616302565b60405180910390a28015612d8957600085815261016d60205260409081902080546004820154925190927f4c1666cb87ed4fd7706cb19b1e3160612601aca7235c307fe64a11bc8db0f41f92612d809261632f565b60405180910390a25b505050610f87600160fb55565b50505050565b6060612da782613b62565b6040518060400160405280600381526020016232303960e81b81525090612de15760405162461bcd60e51b8152600401610e85919061588d565b5060405163188687dd60e21b815260048101839052600090309063621a1f7490602401602060405180830381865afa158015612e21573d6000803e3d6000fd5b505050506040513d601f19601f82011682018060405250810190612e4591906160e5565b61016054604051637594e11960e11b815260048101839052602481018690529192506001600160a01b031690600090309063eb29c23290604401600060405180830381865afa158015612e9c573d6000803e3d6000fd5b505050506040513d6000823e601f3d908101601f19168201604052612ec49190810190616344565b9050612eee81604051602001612eda919061638c565b6040516020818303038152906040526140d6565b604051602001612efe91906163a8565b6040516020818303038152906040529050600081604051602001612f2291906163e6565b60408051601f1981840301815282825260008981526101726020908152929020909350612f539290918491016164c7565b604051602081830303815290604052945050505050919050565b612f75613403565b612f7e8161220a565b612fb35760405162461bcd60e51b8152600401610e859060208082526004908201526304e5f43360e41b604082015260600190565b6111c08161423b565b60408051808201909152600c81526b1e343a36b61f1e3432b0b21f60a11b602082015280612fe86117ea565b604051602001612ff99291906161d4565b6040516020818303038152906040529050806130136122ed565b6040516020016130249291906161d4565b60405160208183030381529060405290508061304084846111ca565b6040516020016130519291906161d4565b60405160208183030381529060405290508061016360405160200161307792919061655c565b604051602081830303815290604052905092915050565b613096613b80565b6001600160a01b0381166130fb5760405162461bcd60e51b815260206004820152602660248201527f4f776e61626c653a206e6577206f776e657220697320746865207a65726f206160448201526564647265737360d01b6064820152608401610e85565b61102e81613bdb565b61015f546001600160a01b03163314801561312757506001600160a01b03811615155b6040518060400160405280600381526020016231303160e81b815250906131615760405162461bcd60e51b8152600401610e85919061588d565b50610167546001600160a01b0382811691161461102e5761016780546001600160a01b0383166001600160a01b031990911617905550565b6131a1613403565b6131aa82611734565b6001600160a01b0316336001600160a01b0316146131c757600080fd5b60008281526101726020908152604090912082516131e79284019061573d565b50610f87600160fb55565b61015f546001600160a01b03163314801561321557506001600160a01b03811615155b6040518060400160405280600381526020016231303160e81b8152509061324f5760405162461bcd60e51b8152600401610e85919061588d565b50610160546001600160a01b0382811691161461102e5761016080546001600160a01b0383166001600160a01b031990911617905550565b61329081613b62565b61102e5760405162461bcd60e51b8152602060048201526018602482015277115490cdcc8c4e881a5b9d985b1a59081d1bdad95b88125160421b6044820152606401610e85565b6000818152606760205260408120546001600160a01b031680610d0b5760405162461bcd60e51b8152602060048201526018602482015277115490cdcc8c4e881a5b9d985b1a59081d1bdad95b88125160421b6044820152606401610e85565b600081815260696020526040902080546001600160a01b0319166001600160a01b038416908117909155819061336c826132d7565b6001600160a01b03167f8c5be1e5ebec7d5bd14f71427d1e84f3dd0314c0f7b2291e5b200ac8c7c3b92560405160405180910390a45050565b6001600160a01b03821630146133c8576133be82611750565b156133c857600080fd5b6133d38383836148b1565b60009081526101686020526040902080546001600160a01b0319166001600160a01b039290921691909117905550565b600260fb5414156134565760405162461bcd60e51b815260206004820152601f60248201527f5265656e7472616e637947756172643a207265656e7472616e742063616c6c006044820152606401610e85565b600260fb55565b600082815261016d6020526040902060098101546003909101546134ba5760405162461bcd60e51b815260206004820152601460248201527320bab1ba34b7b7103430b9b713ba103132b3bab760611b6044820152606401610e85565b600083815261016d6020526040902060050154600160a01b900460ff16156135245760405162461bcd60e51b815260206004820181905260248201527f41756374696f6e2068617320616c7265616479206265656e20736574746c65646044820152606401610e85565b600083815261016d60205260409020600401544310156135865760405162461bcd60e51b815260206004820152601860248201527f41756374696f6e206861736e277420636f6d706c6574656400000000000000006044820152606401610e85565b600083815261016d6020818152604080842060059081018054600160a01b60ff60a01b199182168117835588885261016e865293872090920180549092169092179055868452919052546001600160a01b0316156136cb57600084815261016d6020526040902060050154613603906001600160a01b0316611750565b61363957600084815261016d60205260409020600581015490546136349130916001600160a01b03909116906133a5565b6136cb565b600084815261016d60209081526040808320600281015460058201546001600160a01b03908116865261016c8552838620600190930154168552925282208054919290916136889084906160fe565b909155505050600083815261016f60209081526040808320848452825280832086845261016d8352818420600501546001600160a01b0316845290915281205560015b600084815261016d6020526040902060020154158015906136ea575080155b156138f2576101605460405163bf40fac160e01b815260206004820152601c60248201527f534f554c5f41554354494f4e5f474d5f44414f5f54726561737572790000000060448201526000916001600160a01b03169063bf40fac190606401602060405180830381865afa158015613767573d6000803e3d6000fd5b505050506040513d601f19601f8201168201806040525081019061378b9190615f23565b90506001600160a01b0381166137a057600080fd5b600085815261016d6020526040812060020154612710906137c3906103e8615e27565b6137cd9190615e46565b600087815261016d6020526040902060018101546002909101549192506001600160a01b03169063a9059cbb908490613807908590616255565b6040516001600160e01b031960e085901b1681526001600160a01b03909216600483015260248201526044016020604051808303816000875af1158015613852573d6000803e3d6000fd5b505050506040513d601f19601f8201168201806040525081019061387691906160a4565b50600086815261016d60209081526040808320600101546001600160a01b03168352610170909152812080548392906138b09084906160fe565b909155505050600085815261016f60209081526040808320868452825280832088845261016d8352818420600501546001600160a01b03168452909152812055505b600084815261017160209081526040808320858452909152902054156139f75760005b6000858152610171602090815260408083208684529091529020548110156139f557600085815261016d6020908152604080832060050154610171835281842087855290925290912080546001600160a01b03909216918390811061397c5761397c61657a565b6000918252602090912001546001600160a01b0316146139e357600085815261017160209081526040808320868452909152902080546139e39190839081106139c7576139c761657a565b6000918252602090912001546001600160a01b03168685614a22565b806139ed81616203565b915050613915565b505b600084815261016d602052604090819020805460058201546002830154935191937f727cff623966c8adc61ac68940e8c898c04ff7ced5d69d9735d51f0589daf53293613a4f936001600160a01b0390931692616590565b60405180910390a250505050565b600160fb55565b6060613a6f82614bad565b613a7c608084901b614bad565b60405161060f60f31b6020820152602281019290925260428201526062016040516020818303038152906040529050919050565b6060610d0b6001600160a01b0383166014614d5f565b60606000613ad383614f01565b60010190506000816001600160401b03811115613af257613af2615905565b6040519080825280601f01601f191660200182016040528015613b1c576020820181803683370190505b5090508181016020015b600019016f181899199a1a9b1b9c1cb0b131b232b360811b600a86061a8153600a8504945084613b5557613b5a565b613b26565b509392505050565b600090815261016860205260409020546001600160a01b0316151590565b61012d546001600160a01b031633146117e85760405162461bcd60e51b815260206004820181905260248201527f4f776e61626c653a2063616c6c6572206973206e6f7420746865206f776e65726044820152606401610e85565b61012d80546001600160a01b038381166001600160a01b0319831681179093556040519116919082907f8be0079c531659141344cd1fd0a4f28419497f9722a3daafe3b4186f6b6457e090600090a35050565b61016054604051636d12dce160e01b815260206004820152601160248201527014d3d55317d1d357d512149154d213d311607a1b604482015260009182916001600160a01b0390911690636d12dce190606401602060405180830381865afa158015613c9e573d6000803e3d6000fd5b505050506040513d601f19601f82011682018060405250810190613cc291906160e5565b905080613cd45750670de0b6b3a76400005b919050565b610164546040516370a0823160e01b81526001600160a01b03838116600483015260009216906370a0823190602401602060405180830381865afa158015613d25573d6000803e3d6000fd5b505050506040513d601f19601f82011682018060405250810190610d0b91906160e5565b6000806000613d5886866113ce565b90506000613d6e613d6883614fd9565b86615014565b610167549091506001600160a01b03808316911614613db75760405162461bcd60e51b815260206004820152600560248201526447505f4e4160d81b6044820152606401610e85565b969095509350505050565b610f87828260405180602001604052806000815250615030565b60008281526101686020908152604091829020548251808401909352600383526219181b60e91b91830191909152600160a01b900460a01b6001600160a01b03191615613e3c5760405162461bcd60e51b8152600401610e85919061588d565b5060408051808201909152600381526232303760e81b602082015281613e755760405162461bcd60e51b8152600401610e85919061588d565b5060009182526101686020526040909120805460a09290921c600160a01b026001600160a01b03909216919091179055565b600054610100900460ff16613ece5760405162461bcd60e51b8152600401610e85906165b5565b610f878282615063565b600054610100900460ff16613eff5760405162461bcd60e51b8152600401610e85906165b5565b6117e86150b1565b600054610100900460ff16613f2e5760405162461bcd60e51b8152600401610e85906165b5565b6117e86150d8565b600054610100900460ff16613f5d5760405162461bcd60e51b8152600401610e85906165b5565b6117e861510b565b61016054604051636d12dce160e01b815260206004820152600f60248201526e534f554c5f474d5f5245534552564560881b604482015260009182916001600160a01b0390911690636d12dce190606401602060405180830381865afa158015613fd3573d6000803e3d6000fd5b505050506040513d601f19601f82011682018060405250810190613ff791906160e5565b905080613cd457506103f0919050565b816001600160a01b0316836001600160a01b031614156140695760405162461bcd60e51b815260206004820152601960248201527f4552433732313a20617070726f766520746f2063616c6c6572000000000000006044820152606401610e85565b6001600160a01b038381166000818152606a6020908152604080832094871680845294825291829020805460ff191686151590811790915591519182527f17307eab39ab6107e8899845ad3d59bd9653f200f220920489ca2b5937696c31910160405180910390a3505050565b60608151600014156140f657505060408051602081019091526000815290565b6000604051806060016040528060408152602001616848604091399050600060038451600261412591906160fe565b61412f9190615e46565b61413a906004615e27565b905060006141498260206160fe565b6001600160401b0381111561416057614160615905565b6040519080825280601f01601f19166020018201604052801561418a576020820181803683370190505b509050818152600183018586518101602084015b818310156141f6576003830192508251603f8160121c168501518253600182019150603f81600c1c168501518253600182019150603f8160061c168501518253600182019150603f811685015182535060010161419e565b60038951066001811461421057600281146142215761422d565b613d3d60f01b60011983015261422d565b603d60f81b6000198301525b509398975050505050505050565b600081815261016d6020526040902060050154600160a01b900460ff16806142705750600081815261016d6020526040902054155b6142e25760405162461bcd60e51b815260206004820152603860248201527f41756374696f6e2068617320616c7265616479206265656e20736574746c656460448201527f206f72203173742041756374696f6e206f6620746f6b656e00000000000000006064820152608401610e85565b4360006142ed613f65565b6142f790836160fe565b6101608054604080519283018152600060208401819052838201819052606084018190526080840181905260a0840181905260c0840181905260e08401819052610100840181905261012084018190526101408401528683525163bf40fac160e01b81529293506001600160a01b031691829063bf40fac19061437c9060040161621e565b602060405180830381865afa158015614399573d6000803e3d6000fd5b505050506040513d601f19601f820116820180604052508101906143bd9190615f23565b6001600160a01b0316602082018190526143e457610164546001600160a01b031660208201525b60006040828101829052606083018690526080830185905260a0830182905260c083019190915251636d12dce160e01b815260206004820152601860248201527f534f554c5f41554354494f4e5f54494d455f425546464552000000000000000060448201526001600160a01b03831690636d12dce190606401602060405180830381865afa15801561447b573d6000803e3d6000fd5b505050506040513d601f19601f8201168201806040525081019061449f91906160e5565b60e0820152604051636d12dce160e01b815260206004820152601a60248201527f534f554c5f41554354494f4e5f524553455256455f505249434500000000000060448201526001600160a01b03831690636d12dce190606401602060405180830381865afa158015614516573d6000803e3d6000fd5b505050506040513d601f19601f8201168201806040525081019061453a91906160e5565b610100820152604051636d12dce160e01b815260206004820152602560248201527f534f554c5f41554354494f4e5f4d494e5f4249445f494e4352454153455f50456044820152641490d1539560da1b60648201526001600160a01b03831690636d12dce190608401602060405180830381865afa1580156145c0573d6000803e3d6000fd5b505050506040513d601f19601f820116820180604052508101906145e491906160e5565b61012082015261016b80549060006145fb83616203565b919050555061460c61016b54613ac6565b6146198260600151613ac6565b6146268360800151613ac6565b61462f88613ac6565b6040516020016146429493929190616652565b60405160208183030381529060405280519060200120816101400181815250508061016d60008781526020019081526020016000206000820151816000015560208201518160010160006101000a8154816001600160a01b0302191690836001600160a01b0316021790555060408201518160020155606082015181600301556080820151816004015560a08201518160050160006101000a8154816001600160a01b0302191690836001600160a01b0316021790555060c08201518160050160146101000a81548160ff02191690831515021790555060e082015181600601556101008201518160070155610120820151816008015561014082015181600901559050508061016e600083610140015181526020019081526020016000206000820151816000015560208201518160010160006101000a8154816001600160a01b0302191690836001600160a01b0316021790555060408201518160020155606082015181600301556080820151816004015560a08201518160050160006101000a8154816001600160a01b0302191690836001600160a01b0316021790555060c08201518160050160146101000a81548160ff02191690831515021790555060e08201518160060155610100820151816007015561012082015181600801556101408201518160090155905050306001600160a01b031661484486611734565b6001600160a01b0316146148655761486561485e86611734565b30876133a5565b847fb404e07dbfe9071da655c32567071b2ee4e88867784a1b39f01a8457787e504f858533856101400151866040516148a29594939291906166a9565b60405180910390a25050505050565b826001600160a01b03166148c4826132d7565b6001600160a01b0316146148ea5760405162461bcd60e51b8152600401610e859061677b565b6001600160a01b03821661494c5760405162461bcd60e51b8152602060048201526024808201527f4552433732313a207472616e7366657220746f20746865207a65726f206164646044820152637265737360e01b6064820152608401610e85565b6149598383836001615236565b826001600160a01b031661496c826132d7565b6001600160a01b0316146149925760405162461bcd60e51b8152600401610e859061677b565b600081815260696020908152604080832080546001600160a01b03199081169091556001600160a01b0387811680865260688552838620805460001901905590871680865283862080546001019055868652606790945282852080549092168417909155905184937fddf252ad1be2c89b69c2b068fc378daa952ba7f163c4a11628f55a4df523b3ef91a4505050565b600081815261016e6020526040902060050154600160a01b900460ff16614a4857600080fd5b600081815261016e60205260409020600501546001600160a01b0384811691161415614a7357600080fd5b600082815261016f6020908152604080832084845282528083206001600160a01b0387168452909152902054614aa857600080fd5b600082815261016f6020908152604080832084845282528083206001600160a01b0387168085529083529281902054815193845291830191909152810182905282907f3efeb5ca9b10c05ba2df4bcac38445e4a4e8a996887f004e5036d254c14a98649060600160405180910390a2600082815261016f6020908152604080832084845282528083206001600160a01b0380881685529083528184205461016c845282852086865261016e855283862060010154909216855292528220805491929091614b769084906160fe565b9091555050600091825261016f602090815260408084209284529181528183206001600160a01b0390941683529290925290812055565b7aff00000000000000ff00000000000000ff00000000000000ff00006bffffffff0000000000000000604083901c90811663ffffffff60c01b84161760201c63ffffffff60601b919091166001600160e01b031984161717601081901c9182167eff00000000000000ff00000000000000ff00000000000000ff000000000000821617600890811c7bff00000000000000ff00000000000000ff00000000000000ff000000939093167fff00000000000000ff00000000000000ff00000000000000ff000000000000009290921691909117919091179081901c7e0f000f000f000f000f000f000f000f000f000f000f000f000f000f000f000f167f0f000f000f000f000f000f000f000f000f000f000f000f000f000f000f000f00600492831c161790614cfb827f06060606060606060606060606060606060606060606060606060606060606066160fe565b901c7f0f0f0f0f0f0f0f0f0f0f0f0f0f0f0f0f0f0f0f0f0f0f0f0f0f0f0f0f0f0f0f0f166007614d2b9190615e27565b614d55827f30303030303030303030303030303030303030303030303030303030303030306160fe565b610d0b91906160fe565b60606000614d6e836002615e27565b614d799060026160fe565b6001600160401b03811115614d9057614d90615905565b6040519080825280601f01601f191660200182016040528015614dba576020820181803683370190505b509050600360fc1b81600081518110614dd557614dd561657a565b60200101906001600160f81b031916908160001a905350600f60fb1b81600181518110614e0457614e0461657a565b60200101906001600160f81b031916908160001a9053506000614e28846002615e27565b614e339060016160fe565b90505b6001811115614eab576f181899199a1a9b1b9c1cb0b131b232b360811b85600f1660108110614e6757614e6761657a565b1a60f81b828281518110614e7d57614e7d61657a565b60200101906001600160f81b031916908160001a90535060049490941c93614ea4816167c0565b9050614e36565b508315614efa5760405162461bcd60e51b815260206004820181905260248201527f537472696e67733a20686578206c656e67746820696e73756666696369656e746044820152606401610e85565b9392505050565b60008072184f03e93ff9f4daa797ed6e38ed64bf6a1f0160401b8310614f405772184f03e93ff9f4daa797ed6e38ed64bf6a1f0160401b830492506040015b6d04ee2d6d415b85acef81000000008310614f6c576d04ee2d6d415b85acef8100000000830492506020015b662386f26fc100008310614f8a57662386f26fc10000830492506010015b6305f5e1008310614fa2576305f5e100830492506008015b6127108310614fb657612710830492506004015b60648310614fc8576064830492506002015b600a8310610d0b5760010192915050565b6040517f19457468657265756d205369676e6564204d6573736167653a0a3332000000006020820152603c8101829052600090605c01611717565b600080600061502385856152a9565b91509150613b5a816152ef565b61503a838361543d565b615047600084848461513b565b610f265760405162461bcd60e51b8152600401610e8590616600565b600054610100900460ff1661508a5760405162461bcd60e51b8152600401610e85906165b5565b815161509d90606590602085019061573d565b508051610f2690606690602084019061573d565b600054610100900460ff16613a5d5760405162461bcd60e51b8152600401610e85906165b5565b600054610100900460ff166150ff5760405162461bcd60e51b8152600401610e85906165b5565b6097805460ff19169055565b600054610100900460ff166151325760405162461bcd60e51b8152600401610e85906165b5565b6117e833613bdb565b60006001600160a01b0384163b1561522e57604051630a85bd0160e11b81526001600160a01b0385169063150b7a029061517f9033908990889088906004016167d7565b6020604051808303816000875af19250505080156151ba575060408051601f3d908101601f191682019092526151b791810190616814565b60015b615214573d8080156151e8576040519150601f19603f3d011682016040523d82523d6000602084013e6151ed565b606091505b50805161520c5760405162461bcd60e51b8152600401610e8590616600565b805181602001fd5b6001600160e01b031916630a85bd0160e11b149050611fcd565b506001611fcd565b61524284848484615476565b60975460ff1615612d965760405162461bcd60e51b815260206004820152602b60248201527f4552433732315061757361626c653a20746f6b656e207472616e73666572207760448201526a1a1a5b19481c185d5cd95960aa1b6064820152608401610e85565b6000808251604114156152e05760208301516040840151606085015160001a6152d4878285856154fe565b945094505050506152e8565b506000905060025b9250929050565b600081600481111561530357615303616831565b141561530c5750565b600181600481111561532057615320616831565b141561536e5760405162461bcd60e51b815260206004820152601860248201527f45434453413a20696e76616c6964207369676e617475726500000000000000006044820152606401610e85565b600281600481111561538257615382616831565b14156153d05760405162461bcd60e51b815260206004820152601f60248201527f45434453413a20696e76616c6964207369676e6174757265206c656e677468006044820152606401610e85565b60038160048111156153e4576153e4616831565b141561102e5760405162461bcd60e51b815260206004820152602260248201527f45434453413a20696e76616c6964207369676e6174757265202773272076616c604482015261756560f01b6064820152608401610e85565b61544782826155c2565b60009081526101686020526040902080546001600160a01b0319166001600160a01b0392909216919091179055565b6001811115612d96576001600160a01b038416156154bc576001600160a01b038416600090815260686020526040812080548392906154b6908490616255565b90915550505b6001600160a01b03831615612d96576001600160a01b038316600090815260686020526040812080548392906154f39084906160fe565b909155505050505050565b6000807f7fffffffffffffffffffffffffffffff5d576e7357a4501ddfe92f46681b20a083111561553557506000905060036155b9565b6040805160008082526020820180845289905260ff881692820192909252606081018690526080810185905260019060a0016020604051602081039080840390855afa158015615589573d6000803e3d6000fd5b5050604051601f1901519150506001600160a01b0381166155b2576000600192509250506155b9565b9150600090505b94509492505050565b6001600160a01b0382166156185760405162461bcd60e51b815260206004820181905260248201527f4552433732313a206d696e7420746f20746865207a65726f20616464726573736044820152606401610e85565b61562181613b62565b1561566e5760405162461bcd60e51b815260206004820152601c60248201527f4552433732313a20746f6b656e20616c7265616479206d696e746564000000006044820152606401610e85565b61567c600083836001615236565b61568581613b62565b156156d25760405162461bcd60e51b815260206004820152601c60248201527f4552433732313a20746f6b656e20616c7265616479206d696e746564000000006044820152606401610e85565b6001600160a01b038216600081815260686020908152604080832080546001019055848352606790915280822080546001600160a01b0319168417905551839291907fddf252ad1be2c89b69c2b068fc378daa952ba7f163c4a11628f55a4df523b3ef908290a45050565b82805461574990615dd6565b90600052602060002090601f01602090048101928261576b57600085556157b1565b82601f1061578457805160ff19168380011785556157b1565b828001600101855582156157b1579182015b828111156157b1578251825591602001919060010190615796565b506157bd9291506157c1565b5090565b5b808211156157bd57600081556001016157c2565b6001600160e01b03198116811461102e57600080fd5b6000602082840312156157fe57600080fd5b8135614efa816157d6565b60008060006060848603121561581e57600080fd5b505081359360208301359350604090920135919050565b60005b83811015615850578181015183820152602001615838565b83811115612d965750506000910152565b60008151808452615879816020860160208601615835565b601f01601f19169290920160200192915050565b602081526000614efa6020830184615861565b6000602082840312156158b257600080fd5b5035919050565b6001600160a01b038116811461102e57600080fd5b8035613cd4816158b9565b600080604083850312156158ec57600080fd5b82356158f7816158b9565b946020939093013593505050565b634e487b7160e01b600052604160045260246000fd5b604051601f8201601f191681016001600160401b038111828210171561594357615943615905565b604052919050565b60006001600160401b0382111561596457615964615905565b50601f01601f191660200190565b60006159856159808461594b565b61591b565b905082815283838301111561599957600080fd5b828260208301376000602084830101529392505050565b600082601f8301126159c157600080fd5b614efa83833560208501615972565b6000602082840312156159e257600080fd5b81356001600160401b038111156159f857600080fd5b611fcd848285016159b0565b60008083601f840112615a1657600080fd5b5081356001600160401b03811115615a2d57600080fd5b6020830191508360208285010111156152e857600080fd5b600080600080600060808688031215615a5d57600080fd5b8535615a68816158b9565b94506020860135615a78816158b9565b93506040860135925060608601356001600160401b03811115615a9a57600080fd5b615aa688828901615a04565b969995985093965092949392505050565b600060208284031215615ac957600080fd5b8135614efa816158b9565b600080600060608486031215615ae957600080fd5b8335615af4816158b9565b92506020840135615b04816158b9565b929592945050506040919091013590565b60008060408385031215615b2857600080fd5b50508035926020909101359150565b600080600060608486031215615b4c57600080fd5b83359250602084013591506040840135615b65816158b9565b809150509250925092565b60008060008060608587031215615b8657600080fd5b8435615b91816158b9565b93506020850135925060408501356001600160401b03811115615bb357600080fd5b615bbf87828801615a04565b95989497509550505050565b600080600080600080600080610100898b031215615be857600080fd5b88356001600160401b0380821115615bff57600080fd5b615c0b8c838d016159b0565b995060208b0135915080821115615c2157600080fd5b50615c2e8b828c016159b0565b9750506040890135615c3f816158b9565b95506060890135615c4f816158b9565b94506080890135615c5f816158b9565b935060a0890135615c6f816158b9565b925060c0890135615c7f816158b9565b9150615c8d60e08a016158ce565b90509295985092959890939650565b801515811461102e57600080fd5b60008060408385031215615cbd57600080fd5b8235615cc8816158b9565b91506020830135615cd881615c9c565b809150509250929050565b60008060008060808587031215615cf957600080fd5b8435615d04816158b9565b93506020850135615d14816158b9565b92506040850135915060608501356001600160401b03811115615d3657600080fd5b8501601f81018713615d4757600080fd5b615d5687823560208401615972565b91505092959194509250565b60008060408385031215615d7557600080fd5b8235615d80816158b9565b91506020830135615cd8816158b9565b60008060408385031215615da357600080fd5b8235915060208301356001600160401b03811115615dc057600080fd5b615dcc858286016159b0565b9150509250929050565b600181811c90821680615dea57607f821691505b60208210811415615e0b57634e487b7160e01b600052602260045260246000fd5b50919050565b634e487b7160e01b600052601160045260246000fd5b6000816000190483118215151615615e4157615e41615e11565b500290565b600082615e6357634e487b7160e01b600052601260045260246000fd5b500490565b60008351615e7a818460208801615835565b696c657420736565643d2760b01b9083019081528351615ea181600a840160208801615835565b61273b60f01b600a9290910191820152600c01949350505050565b60008351615ece818460208801615835565b7f6c657420474d5f434f4e54524143545f414444524553533d27000000000000009083019081528351615f08816019840160208801615835565b61273b60f01b60199290910191820152601b01949350505050565b600060208284031215615f3557600080fd5b8151614efa816158b9565b60008351615f52818460208801615835565b80830190507f6c657420535741505f504f4f4c5f474d5f4554485f434f4e54524143545f414481526644524553533d2760c81b60208201528351615f9d816027840160208801615835565b61273b60f01b60279290910191820152602901949350505050565b60008351615fca818460208801615835565b7f6c657420736f756c4e6674436f6e7472616374416464726573733d2700000000908301908152835161600481601c840160208801615835565b61273b60f01b601c9290910191820152601e01949350505050565b60008351616031818460208801615835565b6d6c657420544f4b454e5f49443d2760901b908301908152835161605c81600e840160208801615835565b61273b60f01b600e9290910191820152601001949350505050565b60008251616089818460208701615835565b681e17b9b1b934b83a1f60b91b920191825250600901919050565b6000602082840312156160b657600080fd5b8151614efa81615c9c565b6001600160a01b0383168152604060208201819052600090611fcd90830184615861565b6000602082840312156160f757600080fd5b5051919050565b6000821982111561611157616111615e11565b500190565b6001600160a01b038416815260606020820181905260009061613a90830185615861565b9050826040830152949350505050565b60006161586159808461594b565b905082815283838301111561616c57600080fd5b614efa836020830184615835565b6000806040838503121561618d57600080fd5b82516001600160401b038111156161a357600080fd5b8301601f810185136161b457600080fd5b6161c38582516020840161614a565b925050602083015190509250929050565b600083516161e6818460208801615835565b8351908301906161fa818360208801615835565b01949350505050565b600060001982141561621757616217615e11565b5060010190565b60208082526018908201527f534f554c5f41554354494f4e5f45524332305f544f4b454e0000000000000000604082015260600190565b60008282101561626757616267615e11565b500390565b8054825260018101546001600160a01b03166001600160a01b03811660208401525060028101546040830152600381015460608301526004810154608083015260058101546001600160a01b03811660a08401526162d460c0840160ff8360a01c1615159052565b50600681015460e0830152600781015461010083015260088101546101208301526009015461014090910152565b6001600160a01b03851681526020810184905282151560408201526101c08101610f94606083018461626c565b8281526101808101614efa602083018461626c565b60006020828403121561635657600080fd5b81516001600160401b0381111561636c57600080fd5b8201601f8101841361637d57600080fd5b611fcd8482516020840161614a565b6000825161639e818460208701615835565b9190910192915050565b7519185d184e9d195e1d0bda1d1b5b0ed8985cd94d8d0b60521b8152600082516163d9816016850160208701615835565b9190910160160192915050565b7216101130b734b6b0ba34b7b72fbab936111d1160691b81528151600090616415816013850160208701615835565b601160f91b6013939091019283015250601401919050565b8054600090600181811c908083168061644757607f831692505b602080841082141561646957634e487b7160e01b600052602260045260246000fd5b81801561647d576001811461648e576164bb565b60ff198616895284890196506164bb565b60008881526020902060005b868110156164b35781548b82015290850190830161649a565b505084890196505b50505050505092915050565b683d913730b6b2911d1160b91b815260006164e5600983018561642d565b721116113232b9b1b934b83a34b7b7111d10111160691b81526c16101134b6b0b3b2911d10111160991b60138201528351616527816020808501908801615835565b7116101130ba3a3934b13aba32b9911d10111160711b60209290910191820152607d60f81b6032820152603301949350505050565b6000835161656e818460208801615835565b610f948184018561642d565b634e487b7160e01b600052603260045260246000fd5b6001600160a01b0384168152602081018390526101a08101611fcd604083018461626c565b6020808252602b908201527f496e697469616c697a61626c653a20636f6e7472616374206973206e6f74206960408201526a6e697469616c697a696e6760a81b606082015260800190565b60208082526032908201527f4552433732313a207472616e7366657220746f206e6f6e20455243373231526560408201527131b2b4bb32b91034b6b83632b6b2b73a32b960711b606082015260800190565b60008551616664818460208a01615835565b855190830190616678818360208a01615835565b855191019061668b818360208901615835565b845191019061669e818360208801615835565b019695505050505050565b85815260208082018690526001600160a01b038516604083015260608201849052825160808301528201516101e08201906166ef60a08401826001600160a01b03169052565b50604083015160c0830152606083015160e08301526080830151610100818185015260a0850151915061012061672f818601846001600160a01b03169052565b60c086015192506101406167468187018515159052565b60e0870151610160870152918601516101808601528501516101a0850152909301516101c09092019190915295945050505050565b60208082526025908201527f4552433732313a207472616e736665722066726f6d20696e636f72726563742060408201526437bbb732b960d91b606082015260800190565b6000816167cf576167cf615e11565b506000190190565b6001600160a01b038581168252841660208201526040810183905260806060820181905260009061680a90830184615861565b9695505050505050565b60006020828403121561682657600080fd5b8151614efa816157d6565b634e487b7160e01b600052602160045260246000fdfe4142434445464748494a4b4c4d4e4f505152535455565758595a6162636465666768696a6b6c6d6e6f707172737475767778797a303132333435363738392b2f3c7363726970742073616e64626f783d27616c6c6f772d736372697074732720747970653d27746578742f6a617661736372697074273ea26469706673582212203dfe89f90042a9a4c5ee8dac878a06a0b1297298b5c791700de908b33ee6bb8d64736f6c634300080c0033",
  "linkReferences": {},
  "deployedLinkReferences": {}
}