{
  "_format": "hh-sol-artifact-1",
  "contractName": "SOUL",
  "sourceName": "contracts/nfts/SOUL.sol",
  "abi": [
    {
      "anonymous": false,
      "inputs": [
        {
          "indexed": true,
          "internalType": "address",
          "name": "owner",
          "type": "address"
        },
        {
          "indexed": true,
          "internalType": "address",
          "name": "approved",
          "type": "address"
        },
        {
          "indexed": true,
          "internalType": "uint256",
          "name": "tokenId",
          "type": "uint256"
        }
      ],
      "name": "Approval",
      "type": "event"
    },
    {
      "anonymous": false,
      "inputs": [
        {
          "indexed": true,
          "internalType": "address",
          "name": "owner",
          "type": "address"
        },
        {
          "indexed": true,
          "internalType": "address",
          "name": "operator",
          "type": "address"
        },
        {
          "indexed": false,
          "internalType": "bool",
          "name": "approved",
          "type": "bool"
        }
      ],
      "name": "ApprovalForAll",
      "type": "event"
    },
    {
      "anonymous": false,
      "inputs": [
        {
          "indexed": true,
          "internalType": "uint256",
          "name": "tokenId",
          "type": "uint256"
        },
        {
          "indexed": false,
          "internalType": "address",
          "name": "sender",
          "type": "address"
        },
        {
          "indexed": false,
          "internalType": "uint256",
          "name": "value",
          "type": "uint256"
        },
        {
          "indexed": false,
          "internalType": "bool",
          "name": "extended",
          "type": "bool"
        }
      ],
      "name": "AuctionBid",
      "type": "event"
    },
    {
      "anonymous": false,
      "inputs": [
        {
          "indexed": true,
          "internalType": "uint256",
          "name": "tokenId",
          "type": "uint256"
        },
        {
          "indexed": false,
          "internalType": "address",
          "name": "sender",
          "type": "address"
        },
        {
          "indexed": false,
          "internalType": "uint256",
          "name": "value",
          "type": "uint256"
        }
      ],
      "name": "AuctionClaimBid",
      "type": "event"
    },
    {
      "anonymous": false,
      "inputs": [
        {
          "indexed": true,
          "internalType": "uint256",
          "name": "tokenId",
          "type": "uint256"
        }
      ],
      "name": "AuctionClosed",
      "type": "event"
    },
    {
      "anonymous": false,
      "inputs": [
        {
          "indexed": true,
          "internalType": "uint256",
          "name": "tokenId",
          "type": "uint256"
        },
        {
          "indexed": false,
          "internalType": "uint256",
          "name": "startTime",
          "type": "uint256"
        },
        {
          "indexed": false,
          "internalType": "uint256",
          "name": "endTime",
          "type": "uint256"
        }
      ],
      "name": "AuctionCreated",
      "type": "event"
    },
    {
      "anonymous": false,
      "inputs": [
        {
          "indexed": true,
          "internalType": "uint256",
          "name": "tokenId",
          "type": "uint256"
        },
        {
          "indexed": false,
          "internalType": "uint256",
          "name": "endTime",
          "type": "uint256"
        }
      ],
      "name": "AuctionExtended",
      "type": "event"
    },
    {
      "anonymous": false,
      "inputs": [
        {
          "indexed": false,
          "internalType": "uint256",
          "name": "minBidIncrementPercentage",
          "type": "uint256"
        }
      ],
      "name": "AuctionMinBidIncrementPercentageUpdated",
      "type": "event"
    },
    {
      "anonymous": false,
      "inputs": [
        {
          "indexed": false,
          "internalType": "uint256",
          "name": "reservePrice",
          "type": "uint256"
        }
      ],
      "name": "AuctionReservePriceUpdated",
      "type": "event"
    },
    {
      "anonymous": false,
      "inputs": [
        {
          "indexed": true,
          "internalType": "uint256",
          "name": "tokenId",
          "type": "uint256"
        },
        {
          "indexed": false,
          "internalType": "address",
          "name": "winner",
          "type": "address"
        },
        {
          "indexed": false,
          "internalType": "uint256",
          "name": "amount",
          "type": "uint256"
        }
      ],
      "name": "AuctionSettled",
      "type": "event"
    },
    {
      "anonymous": false,
      "inputs": [
        {
          "indexed": false,
          "internalType": "uint256",
          "name": "timeBuffer",
          "type": "uint256"
        }
      ],
      "name": "AuctionTimeBufferUpdated",
      "type": "event"
    },
    {
      "anonymous": false,
      "inputs": [
        {
          "indexed": true,
          "internalType": "address",
          "name": "reserver",
          "type": "address"
        },
        {
          "indexed": true,
          "internalType": "uint256",
          "name": "tokenId",
          "type": "uint256"
        },
        {
          "indexed": true,
          "internalType": "address",
          "name": "owner",
          "type": "address"
        },
        {
          "indexed": false,
          "internalType": "uint256",
          "name": "blockNumber",
          "type": "uint256"
        }
      ],
      "name": "Claim",
      "type": "event"
    },
    {
      "anonymous": false,
      "inputs": [
        {
          "indexed": false,
          "internalType": "uint8",
          "name": "version",
          "type": "uint8"
        }
      ],
      "name": "Initialized",
      "type": "event"
    },
    {
      "anonymous": false,
      "inputs": [
        {
          "indexed": true,
          "internalType": "address",
          "name": "previousOwner",
          "type": "address"
        },
        {
          "indexed": true,
          "internalType": "address",
          "name": "newOwner",
          "type": "address"
        }
      ],
      "name": "OwnershipTransferred",
      "type": "event"
    },
    {
      "anonymous": false,
      "inputs": [
        {
          "indexed": false,
          "internalType": "address",
          "name": "account",
          "type": "address"
        }
      ],
      "name": "Paused",
      "type": "event"
    },
    {
      "anonymous": false,
      "inputs": [
        {
          "indexed": true,
          "internalType": "address",
          "name": "reserver",
          "type": "address"
        },
        {
          "indexed": true,
          "internalType": "uint256",
          "name": "tokenId",
          "type": "uint256"
        },
        {
          "indexed": true,
          "internalType": "address",
          "name": "owner",
          "type": "address"
        },
        {
          "indexed": false,
          "internalType": "uint256",
          "name": "blockNumber",
          "type": "uint256"
        }
      ],
      "name": "Reserve",
      "type": "event"
    },
    {
      "anonymous": false,
      "inputs": [
        {
          "indexed": true,
          "internalType": "address",
          "name": "from",
          "type": "address"
        },
        {
          "indexed": true,
          "internalType": "address",
          "name": "to",
          "type": "address"
        },
        {
          "indexed": true,
          "internalType": "uint256",
          "name": "tokenId",
          "type": "uint256"
        }
      ],
      "name": "Transfer",
      "type": "event"
    },
    {
      "anonymous": false,
      "inputs": [
        {
          "indexed": false,
          "internalType": "address",
          "name": "account",
          "type": "address"
        }
      ],
      "name": "Unpaused",
      "type": "event"
    },
    {
      "inputs": [],
      "name": "_admin",
      "outputs": [
        {
          "internalType": "address",
          "name": "",
          "type": "address"
        }
      ],
      "stateMutability": "view",
      "type": "function"
    },
    {
      "inputs": [
        {
          "internalType": "uint256",
          "name": "",
          "type": "uint256"
        }
      ],
      "name": "_auctions",
      "outputs": [
        {
          "internalType": "uint256",
          "name": "tokenId",
          "type": "uint256"
        },
        {
          "internalType": "address",
          "name": "erc20Token",
          "type": "address"
        },
        {
          "internalType": "uint256",
          "name": "amount",
          "type": "uint256"
        },
        {
          "internalType": "uint256",
          "name": "startTime",
          "type": "uint256"
        },
        {
          "internalType": "uint256",
          "name": "endTime",
          "type": "uint256"
        },
        {
          "internalType": "address payable",
          "name": "bidder",
          "type": "address"
        },
        {
          "internalType": "bool",
          "name": "settled",
          "type": "bool"
        },
        {
          "internalType": "uint256",
          "name": "timeBuffer",
          "type": "uint256"
        },
        {
          "internalType": "uint256",
          "name": "reservePrice",
          "type": "uint256"
        },
        {
          "internalType": "uint256",
          "name": "minBidIncrementPercentage",
          "type": "uint256"
        }
      ],
      "stateMutability": "view",
      "type": "function"
    },
    {
      "inputs": [],
      "name": "_bfs",
      "outputs": [
        {
          "internalType": "address",
          "name": "",
          "type": "address"
        }
      ],
      "stateMutability": "view",
      "type": "function"
    },
    {
      "inputs": [
        {
          "internalType": "uint256",
          "name": "",
          "type": "uint256"
        },
        {
          "internalType": "address",
          "name": "",
          "type": "address"
        }
      ],
      "name": "_bidders",
      "outputs": [
        {
          "internalType": "uint256",
          "name": "",
          "type": "uint256"
        }
      ],
      "stateMutability": "view",
      "type": "function"
    },
    {
      "inputs": [],
      "name": "_gmToken",
      "outputs": [
        {
          "internalType": "address",
          "name": "",
          "type": "address"
        }
      ],
      "stateMutability": "view",
      "type": "function"
    },
    {
      "inputs": [],
      "name": "_maxSupply",
      "outputs": [
        {
          "internalType": "uint256",
          "name": "",
          "type": "uint256"
        }
      ],
      "stateMutability": "view",
      "type": "function"
    },
    {
      "inputs": [
        {
          "internalType": "uint256",
          "name": "",
          "type": "uint256"
        }
      ],
      "name": "_mintAt",
      "outputs": [
        {
          "internalType": "uint256",
          "name": "",
          "type": "uint256"
        }
      ],
      "stateMutability": "view",
      "type": "function"
    },
    {
      "inputs": [],
      "name": "_paramsAddress",
      "outputs": [
        {
          "internalType": "address",
          "name": "",
          "type": "address"
        }
      ],
      "stateMutability": "view",
      "type": "function"
    },
    {
      "inputs": [],
      "name": "_randomizerAddr",
      "outputs": [
        {
          "internalType": "address",
          "name": "",
          "type": "address"
        }
      ],
      "stateMutability": "view",
      "type": "function"
    },
    {
      "inputs": [],
      "name": "_script",
      "outputs": [
        {
          "internalType": "string",
          "name": "",
          "type": "string"
        }
      ],
      "stateMutability": "view",
      "type": "function"
    },
    {
      "inputs": [],
      "name": "_signerMint",
      "outputs": [
        {
          "internalType": "address",
          "name": "",
          "type": "address"
        }
      ],
      "stateMutability": "view",
      "type": "function"
    },
    {
      "inputs": [
        {
          "internalType": "address",
          "name": "to",
          "type": "address"
        },
        {
          "internalType": "uint256",
          "name": "tokenId",
          "type": "uint256"
        }
      ],
      "name": "approve",
      "outputs": [],
      "stateMutability": "nonpayable",
      "type": "function"
    },
    {
      "inputs": [
        {
          "internalType": "address",
          "name": "owner",
          "type": "address"
        }
      ],
      "name": "balanceOf",
      "outputs": [
        {
          "internalType": "uint256",
          "name": "",
          "type": "uint256"
        }
      ],
      "stateMutability": "view",
      "type": "function"
    },
    {
      "inputs": [
        {
          "internalType": "address",
          "name": "to",
          "type": "address"
        },
        {
          "internalType": "uint256",
          "name": "n",
          "type": "uint256"
        },
        {
          "internalType": "bytes",
          "name": "signatures",
          "type": "bytes"
        }
      ],
      "name": "batchMint",
      "outputs": [
        {
          "internalType": "uint256[]",
          "name": "",
          "type": "uint256[]"
        }
      ],
      "stateMutability": "payable",
      "type": "function"
    },
    {
      "inputs": [
        {
          "internalType": "address",
          "name": "newAdm",
          "type": "address"
        }
      ],
      "name": "changeAdmin",
      "outputs": [],
      "stateMutability": "nonpayable",
      "type": "function"
    },
    {
      "inputs": [
        {
          "internalType": "address",
          "name": "newBfs",
          "type": "address"
        }
      ],
      "name": "changeBfs",
      "outputs": [],
      "stateMutability": "nonpayable",
      "type": "function"
    },
    {
      "inputs": [
        {
          "internalType": "address",
          "name": "newBrc20",
          "type": "address"
        }
      ],
      "name": "changeBrc20Token",
      "outputs": [],
      "stateMutability": "nonpayable",
      "type": "function"
    },
    {
      "inputs": [
        {
          "internalType": "address",
          "name": "newAddr",
          "type": "address"
        }
      ],
      "name": "changeParamAddr",
      "outputs": [],
      "stateMutability": "nonpayable",
      "type": "function"
    },
    {
      "inputs": [
        {
          "internalType": "address",
          "name": "newAddr",
          "type": "address"
        }
      ],
      "name": "changeRandomizerAddr",
      "outputs": [],
      "stateMutability": "nonpayable",
      "type": "function"
    },
    {
      "inputs": [
        {
          "internalType": "string",
          "name": "newScript",
          "type": "string"
        }
      ],
      "name": "changeScript",
      "outputs": [],
      "stateMutability": "nonpayable",
      "type": "function"
    },
    {
      "inputs": [
        {
          "internalType": "address",
          "name": "newAdd",
          "type": "address"
        }
      ],
      "name": "changeSignerMint",
      "outputs": [],
      "stateMutability": "nonpayable",
      "type": "function"
    },
    {
      "inputs": [
        {
          "internalType": "uint256",
          "name": "tokenId",
          "type": "uint256"
        }
      ],
      "name": "claimBid",
      "outputs": [],
      "stateMutability": "nonpayable",
      "type": "function"
    },
    {
      "inputs": [
        {
          "internalType": "uint256",
          "name": "tokenId",
          "type": "uint256"
        }
      ],
      "name": "claimable",
      "outputs": [
        {
          "internalType": "bool",
          "name": "",
          "type": "bool"
        }
      ],
      "stateMutability": "view",
      "type": "function"
    },
    {
      "inputs": [
        {
          "internalType": "uint256",
          "name": "tokenId",
          "type": "uint256"
        }
      ],
      "name": "createAuction",
      "outputs": [],
      "stateMutability": "nonpayable",
      "type": "function"
    },
    {
      "inputs": [
        {
          "internalType": "uint256",
          "name": "tokenId",
          "type": "uint256"
        },
        {
          "internalType": "uint256",
          "name": "amount",
          "type": "uint256"
        }
      ],
      "name": "createBid",
      "outputs": [],
      "stateMutability": "payable",
      "type": "function"
    },
    {
      "inputs": [
        {
          "internalType": "uint256",
          "name": "tokenId",
          "type": "uint256"
        }
      ],
      "name": "getApproved",
      "outputs": [
        {
          "internalType": "address",
          "name": "",
          "type": "address"
        }
      ],
      "stateMutability": "view",
      "type": "function"
    },
    {
      "inputs": [
        {
          "internalType": "address",
          "name": "user",
          "type": "address"
        },
        {
          "internalType": "uint256",
          "name": "totalGM",
          "type": "uint256"
        }
      ],
      "name": "getMessageHash",
      "outputs": [
        {
          "internalType": "bytes32",
          "name": "",
          "type": "bytes32"
        }
      ],
      "stateMutability": "view",
      "type": "function"
    },
    {
      "inputs": [
        {
          "internalType": "string",
          "name": "name",
          "type": "string"
        },
        {
          "internalType": "string",
          "name": "symbol",
          "type": "string"
        },
        {
          "internalType": "address",
          "name": "admin",
          "type": "address"
        },
        {
          "internalType": "address",
          "name": "paramsAddress",
          "type": "address"
        },
        {
          "internalType": "address",
          "name": "randomizerAddr",
          "type": "address"
        },
        {
          "internalType": "address",
          "name": "gmToken",
          "type": "address"
        },
        {
          "internalType": "address",
          "name": "bfs",
          "type": "address"
        },
        {
          "internalType": "address",
          "name": "signerMint",
          "type": "address"
        }
      ],
      "name": "initialize",
      "outputs": [],
      "stateMutability": "nonpayable",
      "type": "function"
    },
    {
      "inputs": [
        {
          "internalType": "address",
          "name": "owner",
          "type": "address"
        },
        {
          "internalType": "address",
          "name": "operator",
          "type": "address"
        }
      ],
      "name": "isApprovedForAll",
      "outputs": [
        {
          "internalType": "bool",
          "name": "",
          "type": "bool"
        }
      ],
      "stateMutability": "view",
      "type": "function"
    },
    {
      "inputs": [
        {
          "internalType": "address",
          "name": "to",
          "type": "address"
        },
        {
          "internalType": "address",
          "name": "user",
          "type": "address"
        },
        {
          "internalType": "uint256",
          "name": "totalGM",
          "type": "uint256"
        },
        {
          "internalType": "bytes",
          "name": "signature",
          "type": "bytes"
        }
      ],
      "name": "mint",
      "outputs": [
        {
          "internalType": "uint256",
          "name": "tokenId",
          "type": "uint256"
        }
      ],
      "stateMutability": "payable",
      "type": "function"
    },
    {
      "inputs": [],
      "name": "name",
      "outputs": [
        {
          "internalType": "string",
          "name": "",
          "type": "string"
        }
      ],
      "stateMutability": "view",
      "type": "function"
    },
    {
      "inputs": [],
      "name": "owner",
      "outputs": [
        {
          "internalType": "address",
          "name": "",
          "type": "address"
        }
      ],
      "stateMutability": "view",
      "type": "function"
    },
    {
      "inputs": [
        {
          "internalType": "uint256",
          "name": "tokenId",
          "type": "uint256"
        }
      ],
      "name": "ownerOf",
      "outputs": [
        {
          "internalType": "address",
          "name": "",
          "type": "address"
        }
      ],
      "stateMutability": "view",
      "type": "function"
    },
    {
      "inputs": [],
      "name": "p5jsScript",
      "outputs": [
        {
          "internalType": "string",
          "name": "result",
          "type": "string"
        }
      ],
      "stateMutability": "view",
      "type": "function"
    },
    {
      "inputs": [],
      "name": "paused",
      "outputs": [
        {
          "internalType": "bool",
          "name": "",
          "type": "bool"
        }
      ],
      "stateMutability": "view",
      "type": "function"
    },
    {
      "inputs": [],
      "name": "renounceOwnership",
      "outputs": [],
      "stateMutability": "nonpayable",
      "type": "function"
    },
    {
      "inputs": [
        {
          "internalType": "uint256",
          "name": "projectId",
          "type": "uint256"
        },
        {
          "internalType": "uint256",
          "name": "_salePrice",
          "type": "uint256"
        }
      ],
      "name": "royaltyInfo",
      "outputs": [
        {
          "internalType": "address",
          "name": "receiver",
          "type": "address"
        },
        {
          "internalType": "uint256",
          "name": "royaltyAmount",
          "type": "uint256"
        }
      ],
      "stateMutability": "view",
      "type": "function"
    },
    {
      "inputs": [
        {
          "internalType": "address",
          "name": "from",
          "type": "address"
        },
        {
          "internalType": "address",
          "name": "to",
          "type": "address"
        },
        {
          "internalType": "uint256",
          "name": "tokenId",
          "type": "uint256"
        }
      ],
      "name": "safeTransferFrom",
      "outputs": [],
      "stateMutability": "nonpayable",
      "type": "function"
    },
    {
      "inputs": [
        {
          "internalType": "address",
          "name": "from",
          "type": "address"
        },
        {
          "internalType": "address",
          "name": "to",
          "type": "address"
        },
        {
          "internalType": "uint256",
          "name": "tokenId",
          "type": "uint256"
        },
        {
          "internalType": "bytes",
          "name": "data",
          "type": "bytes"
        }
      ],
      "name": "safeTransferFrom",
      "outputs": [],
      "stateMutability": "nonpayable",
      "type": "function"
    },
    {
      "inputs": [
        {
          "internalType": "address",
          "name": "operator",
          "type": "address"
        },
        {
          "internalType": "bool",
          "name": "approved",
          "type": "bool"
        }
      ],
      "name": "setApprovalForAll",
      "outputs": [],
      "stateMutability": "nonpayable",
      "type": "function"
    },
    {
      "inputs": [
        {
          "internalType": "uint256",
          "name": "tokenId",
          "type": "uint256"
        }
      ],
      "name": "settleAuction",
      "outputs": [],
      "stateMutability": "nonpayable",
      "type": "function"
    },
    {
      "inputs": [
        {
          "internalType": "bytes4",
          "name": "interfaceId",
          "type": "bytes4"
        }
      ],
      "name": "supportsInterface",
      "outputs": [
        {
          "internalType": "bool",
          "name": "",
          "type": "bool"
        }
      ],
      "stateMutability": "view",
      "type": "function"
    },
    {
      "inputs": [],
      "name": "symbol",
      "outputs": [
        {
          "internalType": "string",
          "name": "",
          "type": "string"
        }
      ],
      "stateMutability": "view",
      "type": "function"
    },
    {
      "inputs": [
        {
          "internalType": "bytes32",
          "name": "seed",
          "type": "bytes32"
        },
        {
          "internalType": "uint256",
          "name": "tokenId",
          "type": "uint256"
        }
      ],
      "name": "tokenHTML",
      "outputs": [
        {
          "internalType": "string",
          "name": "result",
          "type": "string"
        }
      ],
      "stateMutability": "view",
      "type": "function"
    },
    {
      "inputs": [
        {
          "internalType": "uint256",
          "name": "tokenId",
          "type": "uint256"
        }
      ],
      "name": "tokenIdToHash",
      "outputs": [
        {
          "internalType": "bytes32",
          "name": "",
          "type": "bytes32"
        }
      ],
      "stateMutability": "view",
      "type": "function"
    },
    {
      "inputs": [
        {
          "internalType": "uint256",
          "name": "tokenId",
          "type": "uint256"
        }
      ],
      "name": "tokenURI",
      "outputs": [
        {
          "internalType": "string",
          "name": "result",
          "type": "string"
        }
      ],
      "stateMutability": "view",
      "type": "function"
    },
    {
      "inputs": [
        {
          "internalType": "address",
          "name": "from",
          "type": "address"
        },
        {
          "internalType": "address",
          "name": "to",
          "type": "address"
        },
        {
          "internalType": "uint256",
          "name": "tokenId",
          "type": "uint256"
        }
      ],
      "name": "transferFrom",
      "outputs": [],
      "stateMutability": "nonpayable",
      "type": "function"
    },
    {
      "inputs": [
        {
          "internalType": "address",
          "name": "newOwner",
          "type": "address"
        }
      ],
      "name": "transferOwnership",
      "outputs": [],
      "stateMutability": "nonpayable",
      "type": "function"
    },
    {
      "inputs": [
        {
          "internalType": "bytes32",
          "name": "seed",
          "type": "bytes32"
        },
        {
          "internalType": "uint256",
          "name": "tokenId",
          "type": "uint256"
        }
      ],
      "name": "variableScript",
      "outputs": [
        {
          "internalType": "string",
          "name": "result",
          "type": "string"
        }
      ],
      "stateMutability": "view",
      "type": "function"
    },
    {
      "inputs": [],
      "name": "web3Script",
      "outputs": [
        {
          "internalType": "string",
          "name": "result",
          "type": "string"
        }
      ],
      "stateMutability": "view",
      "type": "function"
    }
  ],
  "bytecode": "0x608060405234801561001057600080fd5b50615db980620000216000396000f3fe6080604052600436106102c95760003560e01c806370a0823111610175578063adfc7dae116100dc578063d1d58b2511610095578063eb29c2321161006f578063eb29c232146109ad578063f2fde38b146109cd578063f3f83ddd146109ed578063febfd6c314610a0d57600080fd5b8063d1d58b2514610924578063d5563f3114610944578063e985e9c51461096457600080fd5b8063adfc7dae14610861578063b7751c7114610882578063b88d4fde14610895578063bd896843146108b5578063c87b56dd146108d6578063cc22e004146108f657600080fd5b806393c6cdc01161012e57806393c6cdc0146107b657806394f5a66e146107d657806395d89b41146107f65780639c6f35f91461080b578063a0d41e111461082c578063a22cb4651461084157600080fd5b806370a0823114610718578063715018a61461073857806374973a411461074d5780638a016249146107625780638da5cb5b146107775780638f2839701461079657600080fd5b80632b7d13de11610234578063512c91df116101ed578063621a1f74116101c7578063621a1f7414610680578063624de2a9146106a05780636352211e146106c057806366215eb4146106f757600080fd5b8063512c91df146106355780635c975abb146106555780636010a5e71461066d57600080fd5b80632b7d13de1461055b5780632d61bd091461057b5780632e993611146105b457806332e32326146105d457806333348979146105f457806342842e0e1461061557600080fd5b806317dc6bf61161028657806317dc6bf6146103c05780631ca9741b1461049757806321113057146104b757806322f4596f146104d757806323b872dd146104fc5780632a55205a1461051c57600080fd5b806301bc45c9146102ce57806301ffc9a71461030c57806306fdde031461033c578063081812fc1461035e578063095ea7b31461037e578063140f0e07146103a0575b600080fd5b3480156102da57600080fd5b5061015f546102ef906001600160a01b031681565b6040516001600160a01b0390911681526020015b60405180910390f35b34801561031857600080fd5b5061032c610327366004614e8c565b610a2d565b6040519015158152602001610303565b34801561034857600080fd5b50610351610a7f565b6040516103039190614f01565b34801561036a57600080fd5b506102ef610379366004614f14565b610b11565b34801561038a57600080fd5b5061039e610399366004614f4d565b610b38565b005b3480156103ac57600080fd5b5061039e6103bb366004615044565b610c53565b3480156103cc57600080fd5b5061043b6103db366004614f14565b6101696020526000908152604090208054600182015460028301546003840154600485015460058601546006870154600788015460089098015496976001600160a01b0396871697959694959394831693600160a01b90930460ff16928a565b604080519a8b526001600160a01b03998a1660208c01528a019790975260608901959095526080880193909352941660a086015292151560c085015260e084019290925261010083019190915261012082015261014001610303565b3480156104a357600080fd5b5061039e6104b2366004615078565b610cb3565b3480156104c357600080fd5b5061039e6104d2366004614f14565b610d47565b3480156104e357600080fd5b506104ee6101655481565b604051908152602001610303565b34801561050857600080fd5b5061039e610517366004615095565b610ebd565b34801561052857600080fd5b5061053c6105373660046150d6565b610f90565b604080516001600160a01b039093168352602083019190915201610303565b34801561056757600080fd5b5061039e610576366004615078565b610fc1565b34801561058757600080fd5b506104ee6105963660046150f8565b61016a60209081526000928352604080842090915290825290205481565b3480156105c057600080fd5b5061039e6105cf366004614f14565b611056565b3480156105e057600080fd5b506103516105ef3660046150d6565b61112a565b34801561060057600080fd5b50610168546102ef906001600160a01b031681565b34801561062157600080fd5b5061039e610630366004615095565b611313565b34801561064157600080fd5b506104ee610650366004614f4d565b61132e565b34801561066157600080fd5b5060975460ff1661032c565b6104ee61067b366004615169565b61138c565b34801561068c57600080fd5b506104ee61069b366004614f14565b61153f565b6106b36106ae3660046151db565b61160d565b6040516103039190615236565b3480156106cc57600080fd5b506102ef6106db366004614f14565b600090815261016660205260409020546001600160a01b031690565b34801561070357600080fd5b50610161546102ef906001600160a01b031681565b34801561072457600080fd5b506104ee610733366004615078565b6116da565b34801561074457600080fd5b5061039e611760565b34801561075957600080fd5b50610351611774565b34801561076e57600080fd5b506103516119ce565b34801561078357600080fd5b5061012d546001600160a01b03166102ef565b3480156107a257600080fd5b5061039e6107b1366004615078565b611a5d565b3480156107c257600080fd5b5061039e6107d1366004615078565b611af2565b3480156107e257600080fd5b5061039e6107f136600461527a565b611b87565b34801561080257600080fd5b50610351611dad565b34801561081757600080fd5b50610164546102ef906001600160a01b031681565b34801561083857600080fd5b50610351611dbc565b34801561084d57600080fd5b5061039e61085c366004615359565b611fed565b34801561086d57600080fd5b50610160546102ef906001600160a01b031681565b61039e6108903660046150d6565b611ff8565b3480156108a157600080fd5b5061039e6108b0366004615387565b612607565b3480156108c157600080fd5b5061016b546102ef906001600160a01b031681565b3480156108e257600080fd5b506103516108f1366004614f14565b6126e1565b34801561090257600080fd5b506104ee610911366004614f14565b6101676020526000908152604090205481565b34801561093057600080fd5b5061032c61093f366004614f14565b61297a565b34801561095057600080fd5b5061039e61095f366004614f14565b6129e4565b34801561097057600080fd5b5061032c61097f366004615406565b6001600160a01b039182166000908152606a6020908152604080832093909416825291909152205460ff1690565b3480156109b957600080fd5b506103516109c83660046150d6565b612aca565b3480156109d957600080fd5b5061039e6109e8366004615078565b612b9c565b3480156109f957600080fd5b5061039e610a08366004615078565b612c12565b348015610a1957600080fd5b5061039e610a28366004615078565b612ca7565b60006001600160e01b031982166380ac58cd60e01b1480610a5e57506001600160e01b03198216635b5e139f60e01b145b80610a7957506301ffc9a760e01b6001600160e01b03198316145b92915050565b606060658054610a8e90615434565b80601f0160208091040260200160405190810160405280929190818152602001828054610aba90615434565b8015610b075780601f10610adc57610100808354040283529160200191610b07565b820191906000526020600020905b815481529060010190602001808311610aea57829003601f168201915b5050505050905090565b6000610b1c82612d3c565b506000908152606960205260409020546001600160a01b031690565b6000610b4382612d8c565b9050806001600160a01b0316836001600160a01b03161415610bb65760405162461bcd60e51b815260206004820152602160248201527f4552433732313a20617070726f76616c20746f2063757272656e74206f776e656044820152603960f91b60648201526084015b60405180910390fd5b336001600160a01b0382161480610bd25750610bd2813361097f565b610c445760405162461bcd60e51b815260206004820152603d60248201527f4552433732313a20617070726f76652063616c6c6572206973206e6f7420746f60448201527f6b656e206f776e6572206f7220617070726f76656420666f7220616c6c0000006064820152608401610bad565b610c4e8383612dec565b505050565b61015f5460408051808201909152600381526231303160e81b6020820152906001600160a01b03163314610c9a5760405162461bcd60e51b8152600401610bad9190614f01565b508051610caf90610163906020840190614ddd565b5050565b61015f546001600160a01b031633148015610cd657506001600160a01b03811615155b6040518060400160405280600381526020016231303160e81b81525090610d105760405162461bcd60e51b8152600401610bad9190614f01565b50610161546001600160a01b03828116911614610d445761016180546001600160a01b0319166001600160a01b0383161790555b50565b610d4f612e5a565b60008181526101696020526040902060050154600160a01b900460ff16610d7557600080fd5b600081815261016960205260409020600501546001600160a01b0316331415610d9d57600080fd5b600081815261016a60209081526040808320338452909152902054610dc157600080fd5b6000818152610169602090815260408083206001015461016a83528184203380865293529281902054905163a9059cbb60e01b8152600481019290925260248201526001600160a01b039091169063a9059cbb906044016020604051808303816000875af1158015610e37573d6000803e3d6000fd5b505050506040513d601f19601f82011682018060405250810190610e5b919061546f565b50600081815261016a6020908152604080832033808552908352928190205481519384529183019190915282917f63ad079d900b92497dd34dccc37cb42c76aff5798f6084bd35af77d8cb5473fe910160405180910390a2610d44600160fb55565b336001600160a01b0384161415610efa5760405162461bcd60e51b81526020600482015260016024820152601560fa1b6044820152606401610bad565b333b63ffffffff1615610f355760405162461bcd60e51b8152602060048201526003602482015262545f3160e81b6044820152606401610bad565b60008181526101696020526040902060050154600160a01b900460ff16610f5b57600080fd5b600081815261016960205260409020600501546001600160a01b03838116911614610f8557600080fd5b610c4e838383612ebb565b61015f546001600160a01b03166000612710610fae846101f46154a2565b610fb891906154c1565b90509250929050565b61015f546001600160a01b031633148015610fe457506001600160a01b03811615155b6040518060400160405280600381526020016231303160e81b8152509061101e5760405162461bcd60e51b8152600401610bad9190614f01565b50610168546001600160a01b03828116911614610d445761016880546001600160a01b0383166001600160a01b031990911617905550565b61105e612e5a565b600081815261016660205260409020546001600160a01b03163314156110e357600061108933612ef6565b90506000611095612f66565b9050808210156110e05760405162461bcd60e51b815260206004820152601660248201527518985b185b98d94811d3480f081d1a1c995cda1bdb1960521b6044820152606401610bad565b50505b6111208161110783600090815261016660205260409020546001600160a01b031690565b6001600160a01b0316336001600160a01b03161461300c565b610d44600160fb55565b6040805180820190915260128152711e39b1b934b83a1034b21e93bb30b939939f60711b60208201528061115d8461352a565b60405160200161116e9291906154e3565b60408051601f19818403018152919052610164549091508190611199906001600160a01b0316613576565b6040516020016111aa929190615537565b60408051808303601f19018152908290526101605463bf40fac160e01b835260206004840152602160248401527f535741505f504f4f4c5f474d5f4554485f434f4e54524143545f4144445245536044840152605360f81b60648401529092506001600160a01b031690600090829063bf40fac190608401602060405180830381865afa15801561123f573d6000803e3d6000fd5b505050506040513d601f19601f82011682018060405250810190611263919061559e565b90508261126f82613576565b6040516020016112809291906155bb565b60405160208183030381529060405292508261129b30613576565b6040516020016112ac929190615633565b6040516020818303038152906040529250826112c78561358c565b6040516020016112d892919061569a565b6040516020818303038152906040529250826040516020016112fa91906156f2565b6040516020818303038152906040529250505092915050565b610c4e83838360405180602001604052806000815250612607565b61016b5461016454604080513060208083019190915246828401526001600160a01b03948516606083015295841660808201529290911660a083015260c0808301939093528051808303909301835260e09091019052805191012090565b6000611396612e5a565b6101655461016254106040518060400160405280600381526020016232303360e81b815250906113d95760405162461bcd60e51b8152600401610bad9190614f01565b5061015f546001600160a01b0316331461147157336001600160a01b0386161461142d5760405162461bcd60e51b815260206004820152600560248201526447505f495560d81b6044820152606401610bad565b61146e858585858080601f01602080910402602001604051908101604052809392919081815260200183838082843760009201919091525061362892505050565b50505b61016280549060006114828361571f565b919050555061016254905061149786826136a1565b61016154604051631da00d8560e01b8152600481018390526001600160a01b03909116906000908290631da00d85906024016020604051808303816000875af11580156114e8573d6000803e3d6000fd5b505050506040513d601f19601f8201168201806040525081019061150c919061573a565b905061151883826136bb565b5050600081815261016760205260409020439055611536600160fb55565b95945050505050565b600061154a82613786565b6040518060400160405280600381526020016232303960e81b815250906115845760405162461bcd60e51b8152600401610bad9190614f01565b5060008281526101666020526040902054600160a01b900460a01b6001600160a01b0319166115b557506000919050565b600082815261016660209081526040918290205491516115f092600160a01b900460a01b91016001600160a01b031991909116815260200190565b604051602081830303815290604052805190602001209050919050565b60606000846001600160401b0381111561162957611629614f79565b604051908082528060200260200182016040528015611652578160200160208202803683370190505b5061015f549091506001600160a01b0316331461166e57600080fd5b60005b858110156116ce57600061168988600080898961138c565b90508083838151811061169e5761169e615753565b60200260200101818152505062030d405a10156116bb57506116ce565b50806116c68161571f565b915050611671565b5090505b949350505050565b60006001600160a01b0382166117445760405162461bcd60e51b815260206004820152602960248201527f4552433732313a2061646472657373207a65726f206973206e6f7420612076616044820152683634b21037bbb732b960b91b6064820152608401610bad565b506001600160a01b031660009081526068602052604090205490565b6117686137a4565b61177260006137ff565b565b6060604051806060016040528060378152602001615d4d6037913961016854604080518082018252600d81526c70356a7340312e352e302e6a7360981b602082015261016054915163bf40fac160e01b81529394506001600160a01b039283169390929190911690600090829063bf40fac190611817906004016020808252600f908201526e29a1a924a82a2fa82927ab24a222a960891b604082015260600190565b602060405180830381865afa158015611834573d6000803e3d6000fd5b505050506040513d601f19601f82011682018060405250810190611858919061559e565b90506000846001600160a01b031663ba67e64183866040518363ffffffff1660e01b815260040161188a929190615769565b602060405180830381865afa1580156118a7573d6000803e3d6000fd5b505050506040513d601f19601f820116820180604052508101906118cb919061573a565b90506118d860018261578d565b905060005b818110156119a35761015f5460405163283959d960e21b815260009182916001600160a01b038a81169263a0e567649261192192909116908b9088906004016157a5565b600060405180830381865afa15801561193e573d6000803e3d6000fd5b505050506040513d6000823e601f3d908101601f191682016040526119669190810190615809565b91509150888260405160200161197d929190615863565b60405160208183030381529060405298505050808061199b9061571f565b9150506118dd565b50856040516020016119b591906156f2565b6040516020818303038152906040529550505050505090565b61016380546119dc90615434565b80601f0160208091040260200160405190810160405280929190818152602001828054611a0890615434565b8015611a555780601f10611a2a57610100808354040283529160200191611a55565b820191906000526020600020905b815481529060010190602001808311611a3857829003601f168201915b505050505081565b61015f546001600160a01b031633148015611a8057506001600160a01b03811615155b6040518060400160405280600381526020016231303160e81b81525090611aba5760405162461bcd60e51b8152600401610bad9190614f01565b5061015f546001600160a01b03828116911614610d445761015f80546001600160a01b0383166001600160a01b031990911617905550565b61015f546001600160a01b031633148015611b1557506001600160a01b03811615155b6040518060400160405280600381526020016231303160e81b81525090611b4f5760405162461bcd60e51b8152600401610bad9190614f01565b50610164546001600160a01b03828116911614610d445761016480546001600160a01b0383166001600160a01b031990911617905550565b600054610100900460ff1615808015611ba75750600054600160ff909116105b80611bc15750303b158015611bc1575060005460ff166001145b611c245760405162461bcd60e51b815260206004820152602e60248201527f496e697469616c697a61626c653a20636f6e747261637420697320616c72656160448201526d191e481a5b9a5d1a585b1a5e995960921b6064820152608401610bad565b6000805460ff191660011790558015611c47576000805461ff0019166101001790555b60408051808201909152600381526203130360ec1b60208201526001600160a01b038816611c885760405162461bcd60e51b8152600401610bad9190614f01565b5060408051808201909152600381526203130360ec1b60208201526001600160a01b038716611cca5760405162461bcd60e51b8152600401610bad9190614f01565b5061016080546001600160a01b03199081166001600160a01b038981169190911790925561015f805482168a841617905561016180548216888416179055610164805482168784161790556103e8610165556101688054821686841617905561016b8054909116918416919091179055611d448989613852565b611d4c613883565b611d546138b2565b611d5c6138e1565b8015611da2576000805461ff0019169055604051600181527f7f26b83ff96e1f2b6a682f133852f6798a09c465da95921460cefb38474024989060200160405180910390a15b505050505050505050565b606060668054610a8e90615434565b6060604051806060016040528060378152602001615d4d6037913961016854604080518082018252600f81526e776562336a7340312e322e372e6a7360881b602082015261016054915163bf40fac160e01b81529394506001600160a01b039283169390929190911690600090829063bf40fac190611e61906004016020808252600f908201526e29a1a924a82a2fa82927ab24a222a960891b604082015260600190565b602060405180830381865afa158015611e7e573d6000803e3d6000fd5b505050506040513d601f19601f82011682018060405250810190611ea2919061559e565b90506000846001600160a01b031663ba67e64183866040518363ffffffff1660e01b8152600401611ed4929190615769565b602060405180830381865afa158015611ef1573d6000803e3d6000fd5b505050506040513d601f19601f82011682018060405250810190611f15919061573a565b9050611f2260018261578d565b905060005b818110156119a35761015f5460405163283959d960e21b815260009182916001600160a01b038a81169263a0e5676492611f6b92909116908b9088906004016157a5565b600060405180830381865afa158015611f88573d6000803e3d6000fd5b505050506040513d6000823e601f3d908101601f19168201604052611fb09190810190615809565b915091508882604051602001611fc7929190615863565b604051602081830303815290604052985050508080611fe59061571f565b915050611f27565b610caf338383613910565b612000612e5a565b6120098261297a565b61203e5760405162461bcd60e51b8152600401610bad9060208082526004908201526304e5f43360e41b604082015260600190565b612047336116da565b1561207d5760405162461bcd60e51b8152602060048201526006602482015265272fa1982f9960d11b6044820152606401610bad565b6000828152610169602090815260408083206001015461016a83528184203385529092528220546001600160a01b03909116916120ba828561578d565b6000868152610169602052604090205490915085146121105760405162461bcd60e51b81526020600482015260126024820152713737ba103ab8103337b91030bab1ba34b7b760711b6044820152606401610bad565b6000858152610169602052604090206004015442106121635760405162461bcd60e51b815260206004820152600f60248201526e105d58dd1a5bdb88195e1c1a5c9959608a1b6044820152606401610bad565b604051636eb1769f60e11b815233600482015230602482015284906001600160a01b0385169063dd62ed3e90604401602060405180830381865afa1580156121af573d6000803e3d6000fd5b505050506040513d601f19601f820116820180604052508101906121d3919061573a565b10156122215760405162461bcd60e51b815260206004820152601c60248201527f6e6f7420656e6f75676820616c6c6f7720657263323020746f6b656e000000006044820152606401610bad565b6040516370a0823160e01b815233600482015284906001600160a01b038516906370a0823190602401602060405180830381865afa158015612267573d6000803e3d6000fd5b505050506040513d601f19601f8201168201806040525081019061228b919061573a565b10156122d25760405162461bcd60e51b81526020600482015260166024820152753737ba1032b737bab3b41032b9319918103a37b5b2b760511b6044820152606401610bad565b600085815261016960205260409020600701548110156123345760405162461bcd60e51b815260206004820152601f60248201527f4d7573742073656e64206174206c6561737420726573657276655072696365006044820152606401610bad565b600085815261016960205260409020600881015460029091015460649161235a916154a2565b61236491906154c1565b60008681526101696020526040902060020154612381919061578d565b8110156123f8576040805162461bcd60e51b81526020600482015260248101919091527f4d7573742073656e64206d6f7265207468616e206c617374206269642062792060448201527f6d696e426964496e6372656d656e7450657263656e7461676520616d6f756e746064820152608401610bad565b6040516323b872dd60e01b8152336004820152306024820152604481018590526001600160a01b038416906323b872dd906064016020604051808303816000875af115801561244b573d6000803e3d6000fd5b505050506040513d601f19601f8201168201806040525081019061246f919061546f565b6124bb5760405162461bcd60e51b815260206004820152601d60248201527f63616e206e6f74206765742065726332302066726f6d206269646465720000006044820152606401610bad565b600085815261016a60209081526040808320338085529083528184208590558884526101699092528220600281018490556005810180546001600160a01b0319169092179091556006810154600490910154612518904290615892565b1090508015612552576000868152610169602052604090206006015461253e904261578d565b600087815261016960205260409020600401555b6000868152610169602090815260409182902054825133815234928101929092528315158284015291517f1159164c56f277e6fc99c11731bd380e0347deb969b75523398734c252706ea39181900360600190a280156125f9576000868152610169602090815260409182902080546004909101549251928352917f6e912a3a9105bdd2af817ba5adc14e6c127c1035b5b648faa29ca0d58ab8ff4e910160405180910390a25b50505050610caf600160fb55565b336001600160a01b03851614156126445760405162461bcd60e51b81526020600482015260016024820152601560fa1b6044820152606401610bad565b333b63ffffffff161561267f5760405162461bcd60e51b8152602060048201526003602482015262545f3160e81b6044820152606401610bad565b60008281526101696020526040902060050154600160a01b900460ff166126a557600080fd5b600082815261016960205260409020600501546001600160a01b038481169116146126cf57600080fd5b6126db848484846139df565b50505050565b60606126ec82613786565b6040518060400160405280600381526020016232303960e81b815250906127265760405162461bcd60e51b8152600401610bad9190614f01565b5060405163188687dd60e21b815260048101839052600090309063621a1f7490602401602060405180830381865afa158015612766573d6000803e3d6000fd5b505050506040513d601f19601f8201168201806040525081019061278a919061573a565b61016054604051637594e11960e11b815260048101839052602481018690529192506001600160a01b031690600090309063eb29c23290604401600060405180830381865afa1580156127e1573d6000803e3d6000fd5b505050506040513d6000823e601f3d908101601f1916820160405261280991908101906158a9565b90506128338160405160200161281f91906158f1565b604051602081830303815290604052613a12565b604051602001612843919061590d565b6040516020818303038152906040529050600081604051602001612867919061594b565b60408051601f198184030181528282018252600e83526d109054d157d5549257d51490525560921b6020840152905163349f642f60e11b81529092506000916001600160a01b0386169163693ec85e916128c391600401614f01565b600060405180830381865afa1580156128e0573d6000803e3d6000fd5b505050506040513d6000823e601f3d908101601f1916820160405261290891908101906158a9565b90508061291430613576565b61291d8961358c565b6129268861352a565b6040516020016129399493929190615992565b604051602081830303815290604052905080828260405160200161295f93929190615a14565b60405160208183030381529060405295505050505050919050565b600081815261016660205260408120546001600160a01b03168161299d82612ef6565b905060006129aa33612ef6565b905060006129b6612f66565b905080831080156129c75750808210155b156129d85750600195945050505050565b50600095945050505050565b6129ec612e5a565b6129f58161297a565b612a2a5760405162461bcd60e51b8152600401610bad9060208082526004908201526304e5f43360e41b604082015260600190565b612a33336116da565b15612a695760405162461bcd60e51b8152602060048201526006602482015265272fa1982f9960d11b6044820152606401610bad565b612a71613b77565b60008281526101676020526040902054612a8b9043615892565b11612ac15760405162461bcd60e51b81526020600482015260066024820152654e5f43305f3360d01b6044820152606401610bad565b61112081613c14565b60408051808201909152600c81526b1e343a36b61f1e3432b0b21f60a11b602082015280612af6611774565b604051602001612b07929190615863565b604051602081830303815290604052905080612b21611dbc565b604051602001612b32929190615863565b604051602081830303815290604052905080612b4e848461112a565b604051602001612b5f929190615863565b604051602081830303815290604052905080610163604051602001612b85929190615af2565b604051602081830303815290604052905092915050565b612ba46137a4565b6001600160a01b038116612c095760405162461bcd60e51b815260206004820152602660248201527f4f776e61626c653a206e6577206f776e657220697320746865207a65726f206160448201526564647265737360d01b6064820152608401610bad565b610d44816137ff565b61015f546001600160a01b031633148015612c3557506001600160a01b03811615155b6040518060400160405280600381526020016231303160e81b81525090612c6f5760405162461bcd60e51b8152600401610bad9190614f01565b5061016b546001600160a01b03828116911614610d445761016b80546001600160a01b0383166001600160a01b031990911617905550565b61015f546001600160a01b031633148015612cca57506001600160a01b03811615155b6040518060400160405280600381526020016231303160e81b81525090612d045760405162461bcd60e51b8152600401610bad9190614f01565b50610160546001600160a01b03828116911614610d445761016080546001600160a01b0383166001600160a01b031990911617905550565b612d4581613786565b610d445760405162461bcd60e51b8152602060048201526018602482015277115490cdcc8c4e881a5b9d985b1a59081d1bdad95b88125160421b6044820152606401610bad565b6000818152606760205260408120546001600160a01b031680610a795760405162461bcd60e51b8152602060048201526018602482015277115490cdcc8c4e881a5b9d985b1a59081d1bdad95b88125160421b6044820152606401610bad565b600081815260696020526040902080546001600160a01b0319166001600160a01b0384169081179091558190612e2182612d8c565b6001600160a01b03167f8c5be1e5ebec7d5bd14f71427d1e84f3dd0314c0f7b2291e5b200ac8c7c3b92560405160405180910390a45050565b600260fb541415612ead5760405162461bcd60e51b815260206004820152601f60248201527f5265656e7472616e637947756172643a207265656e7472616e742063616c6c006044820152606401610bad565b600260fb55565b600160fb55565b612ec68383836140dc565b60009081526101666020526040902080546001600160a01b0319166001600160a01b039290921691909117905550565b610164546040516370a0823160e01b81526001600160a01b03838116600483015260009216906370a0823190602401602060405180830381865afa158015612f42573d6000803e3d6000fd5b505050506040513d601f19601f82011682018060405250810190610a79919061573a565b61016054604051636d12dce160e01b815260206004820152600c60248201526b11d357d512149154d213d31160a21b604482015260009182916001600160a01b0390911690636d12dce190606401602060405180830381865afa158015612fd1573d6000803e3d6000fd5b505050506040513d601f19601f82011682018060405250810190612ff5919061573a565b9050806130075750670de0b6b3a76400005b919050565b600082815261016960205260409020600301546130625760405162461bcd60e51b815260206004820152601460248201527320bab1ba34b7b7103430b9b713ba103132b3bab760611b6044820152606401610bad565b60008281526101696020526040902060050154600160a01b900460ff16156130cc5760405162461bcd60e51b815260206004820181905260248201527f41756374696f6e2068617320616c7265616479206265656e20736574746c65646044820152606401610bad565b806133c8576000828152610169602052604090206004015442101561312e5760405162461bcd60e51b8152602060048201526018602482015277105d58dd1a5bdb881a185cdb89dd0818dbdb5c1b195d195960421b6044820152606401610bad565b60008281526101696020526040812060058101805460ff60a01b198116600160a01b179091556003909101919091556001600160a01b0316156131af57600082815261016660205260409020546131af906001600160a01b0316600084815261016960205260409020600581015490546001600160a01b0390911690610ebd565b6000828152610169602052604090206002015415613361576101605460405163bf40fac160e01b815260206004820152601c60248201527f534f554c5f41554354494f4e5f474d5f44414f5f54726561737572790000000060448201526000916001600160a01b03169063bf40fac190606401602060405180830381865afa15801561323f573d6000803e3d6000fd5b505050506040513d601f19601f82011682018060405250810190613263919061559e565b90506001600160a01b03811661327857600080fd5b60008381526101696020526040902060018101546002909101546001600160a01b039091169063a9059cbb908390612710906132b6906123286154a2565b6132c091906154c1565b6040516001600160e01b031960e085901b1681526001600160a01b03909216600483015260248201526044016020604051808303816000875af115801561330b573d6000803e3d6000fd5b505050506040513d601f19601f8201168201806040525081019061332f919061546f565b5050600082815261016a602090815260408083206101698352818420600501546001600160a01b031684529091528120555b600082815261016960209081526040918290208054600582015460029092015484516001600160a01b0390931683529282019290925290917fc9f72b276a388619c6d185d146697036241880c36654b1a3ffdad07c24038d99910160405180910390a25050565b6000828152610169602052604090206004015442106134245760405162461bcd60e51b8152602060048201526018602482015277105d58dd1a5bdb881a185cdb89dd0818dbdb5c1b195d195960421b6044820152606401610bad565b60008281526101696020526040812060058101805460ff60a01b1916600160a01b179055600381019190915560020154156134ee57600082815261016960205260409081902060018101546005820154600290920154925163a9059cbb60e01b81526001600160a01b0392831660048201526024810193909352169063a9059cbb906044016020604051808303816000875af11580156134c8573d6000803e3d6000fd5b505050506040513d601f19601f820116820180604052508101906134ec919061546f565b505b6000828152610169602052604080822054905190917fac4a907ec29adcc56774b757ecb1e1b4d597374fc9386107d05e2670259df7d391a25050565b60606135358261424d565b613542608084901b61424d565b60405161060f60f31b6020820152602281019290925260428201526062016040516020818303038152906040529050919050565b6060610a796001600160a01b03831660146143ff565b60606000613599836145a1565b60010190506000816001600160401b038111156135b8576135b8614f79565b6040519080825280601f01601f1916602001820160405280156135e2576020820181803683370190505b5090508181016020015b600019016f181899199a1a9b1b9c1cb0b131b232b360811b600a86061a8153600a850494508461361b57613620565b6135ec565b509392505050565b6000806000613637868661132e565b9050600061364d61364783614679565b866146b4565b61016b549091506001600160a01b038083169116146136965760405162461bcd60e51b815260206004820152600560248201526447505f4e4160d81b6044820152606401610bad565b969095509350505050565b610caf8282604051806020016040528060008152506146d0565b60008281526101666020908152604091829020548251808401909352600383526219181b60e91b91830191909152600160a01b900460a01b6001600160a01b0319161561371b5760405162461bcd60e51b8152600401610bad9190614f01565b5060408051808201909152600381526232303760e81b6020820152816137545760405162461bcd60e51b8152600401610bad9190614f01565b5060009182526101666020526040909120805460a09290921c600160a01b026001600160a01b03909216919091179055565b600090815261016660205260409020546001600160a01b0316151590565b61012d546001600160a01b031633146117725760405162461bcd60e51b815260206004820181905260248201527f4f776e61626c653a2063616c6c6572206973206e6f7420746865206f776e65726044820152606401610bad565b61012d80546001600160a01b038381166001600160a01b0319831681179093556040519116919082907f8be0079c531659141344cd1fd0a4f28419497f9722a3daafe3b4186f6b6457e090600090a35050565b600054610100900460ff166138795760405162461bcd60e51b8152600401610bad90615ba3565b610caf8282614703565b600054610100900460ff166138aa5760405162461bcd60e51b8152600401610bad90615ba3565b611772614751565b600054610100900460ff166138d95760405162461bcd60e51b8152600401610bad90615ba3565b611772614778565b600054610100900460ff166139085760405162461bcd60e51b8152600401610bad90615ba3565b6117726147ab565b816001600160a01b0316836001600160a01b031614156139725760405162461bcd60e51b815260206004820152601960248201527f4552433732313a20617070726f766520746f2063616c6c6572000000000000006044820152606401610bad565b6001600160a01b038381166000818152606a6020908152604080832094871680845294825291829020805460ff191686151590811790915591519182527f17307eab39ab6107e8899845ad3d59bd9653f200f220920489ca2b5937696c31910160405180910390a3505050565b6139ea848484612ebb565b6139f6848484846147db565b6126db5760405162461bcd60e51b8152600401610bad90615bee565b6060815160001415613a3257505060408051602081019091526000815290565b6000604051806060016040528060408152602001615d0d6040913990506000600384516002613a61919061578d565b613a6b91906154c1565b613a769060046154a2565b90506000613a8582602061578d565b6001600160401b03811115613a9c57613a9c614f79565b6040519080825280601f01601f191660200182016040528015613ac6576020820181803683370190505b509050818152600183018586518101602084015b81831015613b32576003830192508251603f8160121c168501518253600182019150603f81600c1c168501518253600182019150603f8160061c168501518253600182019150603f8116850151825350600101613ada565b600389510660018114613b4c5760028114613b5d57613b69565b613d3d60f01b600119830152613b69565b603d60f81b6000198301525b509398975050505050505050565b61016054604051636d12dce160e01b815260206004820152600a602482015269474d5f5245534552564560b01b604482015260009182916001600160a01b0390911690636d12dce190606401602060405180830381865afa158015613be0573d6000803e3d6000fd5b505050506040513d601f19601f82011682018060405250810190613c04919061573a565b90508061300757506103f0919050565b613c1d81613786565b613c2657600080fd5b60008181526101696020526040902060050154600160a01b900460ff1680613c5b575060008181526101696020526040902054155b613ccd5760405162461bcd60e51b815260206004820152603860248201527f41756374696f6e2068617320616c7265616479206265656e20736574746c656460448201527f206f72203173742041756374696f6e206f6620746f6b656e00000000000000006064820152608401610bad565b426000613cd8613b77565b613ce2908361578d565b610160546040805161014081018252600080825260208201819052918101829052606081018290526080810182905260a0810182905260c0810182905260e0810182905261010081018290526101208101919091529192506001600160a01b03169084815260405163bf40fac160e01b815260206004820152601860248201527f534f554c5f41554354494f4e5f45524332305f544f4b454e000000000000000060448201526001600160a01b0383169063bf40fac190606401602060405180830381865afa158015613db9573d6000803e3d6000fd5b505050506040513d601f19601f82011682018060405250810190613ddd919061559e565b6001600160a01b0390811660208301526000604080840182905260608401879052608084018690523360a085015260c084019190915251636d12dce160e01b815290831690636d12dce190613e669060040160208082526018908201527f534f554c5f41554354494f4e5f54494d455f4255464645520000000000000000604082015260600190565b602060405180830381865afa158015613e83573d6000803e3d6000fd5b505050506040513d601f19601f82011682018060405250810190613ea7919061573a565b60e0820152604051636d12dce160e01b815260206004820152601a60248201527f534f554c5f41554354494f4e5f524553455256455f505249434500000000000060448201526001600160a01b03831690636d12dce190606401602060405180830381865afa158015613f1e573d6000803e3d6000fd5b505050506040513d601f19601f82011682018060405250810190613f42919061573a565b610100820152604051636d12dce160e01b815260206004820152602560248201527f534f554c5f41554354494f4e5f4d494e5f4249445f494e4352454153455f50456044820152641490d1539560da1b60648201526001600160a01b03831690636d12dce190608401602060405180830381865afa158015613fc8573d6000803e3d6000fd5b505050506040513d601f19601f82011682018060405250810190613fec919061573a565b61012082019081526000868152610169602090815260409182902084518155818501516001820180546001600160a01b0319166001600160a01b03928316179055838601516002830155606086015160038301556080860151600483015560a086015160058301805460c0890151929093166001600160a81b031990931692909217600160a01b9115159190910217905560e0850151600682015561010085015160078201559251600890930192909255805186815291820185905286917fd6eddd1118d71820909c1197aa966dbc15ed6f508554252169cc3d5ccac756ca910160405180910390a25050505050565b826001600160a01b03166140ef82612d8c565b6001600160a01b0316146141155760405162461bcd60e51b8152600401610bad90615c40565b6001600160a01b0382166141775760405162461bcd60e51b8152602060048201526024808201527f4552433732313a207472616e7366657220746f20746865207a65726f206164646044820152637265737360e01b6064820152608401610bad565b61418483838360016148d6565b826001600160a01b031661419782612d8c565b6001600160a01b0316146141bd5760405162461bcd60e51b8152600401610bad90615c40565b600081815260696020908152604080832080546001600160a01b03199081169091556001600160a01b0387811680865260688552838620805460001901905590871680865283862080546001019055868652606790945282852080549092168417909155905184937fddf252ad1be2c89b69c2b068fc378daa952ba7f163c4a11628f55a4df523b3ef91a4505050565b7aff00000000000000ff00000000000000ff00000000000000ff00006bffffffff0000000000000000604083901c90811663ffffffff60c01b84161760201c63ffffffff60601b919091166001600160e01b031984161717601081901c9182167eff00000000000000ff00000000000000ff00000000000000ff000000000000821617600890811c7bff00000000000000ff00000000000000ff00000000000000ff000000939093167fff00000000000000ff00000000000000ff00000000000000ff000000000000009290921691909117919091179081901c7e0f000f000f000f000f000f000f000f000f000f000f000f000f000f000f000f167f0f000f000f000f000f000f000f000f000f000f000f000f000f000f000f000f00600492831c16179061439b827f060606060606060606060606060606060606060606060606060606060606060661578d565b901c7f0f0f0f0f0f0f0f0f0f0f0f0f0f0f0f0f0f0f0f0f0f0f0f0f0f0f0f0f0f0f0f0f1660076143cb91906154a2565b6143f5827f303030303030303030303030303030303030303030303030303030303030303061578d565b610a79919061578d565b6060600061440e8360026154a2565b61441990600261578d565b6001600160401b0381111561443057614430614f79565b6040519080825280601f01601f19166020018201604052801561445a576020820181803683370190505b509050600360fc1b8160008151811061447557614475615753565b60200101906001600160f81b031916908160001a905350600f60fb1b816001815181106144a4576144a4615753565b60200101906001600160f81b031916908160001a90535060006144c88460026154a2565b6144d390600161578d565b90505b600181111561454b576f181899199a1a9b1b9c1cb0b131b232b360811b85600f166010811061450757614507615753565b1a60f81b82828151811061451d5761451d615753565b60200101906001600160f81b031916908160001a90535060049490941c9361454481615c85565b90506144d6565b50831561459a5760405162461bcd60e51b815260206004820181905260248201527f537472696e67733a20686578206c656e67746820696e73756666696369656e746044820152606401610bad565b9392505050565b60008072184f03e93ff9f4daa797ed6e38ed64bf6a1f0160401b83106145e05772184f03e93ff9f4daa797ed6e38ed64bf6a1f0160401b830492506040015b6d04ee2d6d415b85acef8100000000831061460c576d04ee2d6d415b85acef8100000000830492506020015b662386f26fc10000831061462a57662386f26fc10000830492506010015b6305f5e1008310614642576305f5e100830492506008015b612710831061465657612710830492506004015b60648310614668576064830492506002015b600a8310610a795760010192915050565b6040517f19457468657265756d205369676e6564204d6573736167653a0a3332000000006020820152603c8101829052600090605c016115f0565b60008060006146c38585614949565b915091506136208161498f565b6146da8383614add565b6146e760008484846147db565b610c4e5760405162461bcd60e51b8152600401610bad90615bee565b600054610100900460ff1661472a5760405162461bcd60e51b8152600401610bad90615ba3565b815161473d906065906020850190614ddd565b508051610c4e906066906020840190614ddd565b600054610100900460ff16612eb45760405162461bcd60e51b8152600401610bad90615ba3565b600054610100900460ff1661479f5760405162461bcd60e51b8152600401610bad90615ba3565b6097805460ff19169055565b600054610100900460ff166147d25760405162461bcd60e51b8152600401610bad90615ba3565b611772336137ff565b60006001600160a01b0384163b156148ce57604051630a85bd0160e11b81526001600160a01b0385169063150b7a029061481f903390899088908890600401615c9c565b6020604051808303816000875af192505050801561485a575060408051601f3d908101601f1916820190925261485791810190615cd9565b60015b6148b4573d808015614888576040519150601f19603f3d011682016040523d82523d6000602084013e61488d565b606091505b5080516148ac5760405162461bcd60e51b8152600401610bad90615bee565b805181602001fd5b6001600160e01b031916630a85bd0160e11b1490506116d2565b5060016116d2565b6148e284848484614b16565b60975460ff16156126db5760405162461bcd60e51b815260206004820152602b60248201527f4552433732315061757361626c653a20746f6b656e207472616e73666572207760448201526a1a1a5b19481c185d5cd95960aa1b6064820152608401610bad565b6000808251604114156149805760208301516040840151606085015160001a61497487828585614b9e565b94509450505050614988565b506000905060025b9250929050565b60008160048111156149a3576149a3615cf6565b14156149ac5750565b60018160048111156149c0576149c0615cf6565b1415614a0e5760405162461bcd60e51b815260206004820152601860248201527f45434453413a20696e76616c6964207369676e617475726500000000000000006044820152606401610bad565b6002816004811115614a2257614a22615cf6565b1415614a705760405162461bcd60e51b815260206004820152601f60248201527f45434453413a20696e76616c6964207369676e6174757265206c656e677468006044820152606401610bad565b6003816004811115614a8457614a84615cf6565b1415610d445760405162461bcd60e51b815260206004820152602260248201527f45434453413a20696e76616c6964207369676e6174757265202773272076616c604482015261756560f01b6064820152608401610bad565b614ae78282614c62565b60009081526101666020526040902080546001600160a01b0319166001600160a01b0392909216919091179055565b60018111156126db576001600160a01b03841615614b5c576001600160a01b03841660009081526068602052604081208054839290614b56908490615892565b90915550505b6001600160a01b038316156126db576001600160a01b03831660009081526068602052604081208054839290614b9390849061578d565b909155505050505050565b6000807f7fffffffffffffffffffffffffffffff5d576e7357a4501ddfe92f46681b20a0831115614bd55750600090506003614c59565b6040805160008082526020820180845289905260ff881692820192909252606081018690526080810185905260019060a0016020604051602081039080840390855afa158015614c29573d6000803e3d6000fd5b5050604051601f1901519150506001600160a01b038116614c5257600060019250925050614c59565b9150600090505b94509492505050565b6001600160a01b038216614cb85760405162461bcd60e51b815260206004820181905260248201527f4552433732313a206d696e7420746f20746865207a65726f20616464726573736044820152606401610bad565b614cc181613786565b15614d0e5760405162461bcd60e51b815260206004820152601c60248201527f4552433732313a20746f6b656e20616c7265616479206d696e746564000000006044820152606401610bad565b614d1c6000838360016148d6565b614d2581613786565b15614d725760405162461bcd60e51b815260206004820152601c60248201527f4552433732313a20746f6b656e20616c7265616479206d696e746564000000006044820152606401610bad565b6001600160a01b038216600081815260686020908152604080832080546001019055848352606790915280822080546001600160a01b0319168417905551839291907fddf252ad1be2c89b69c2b068fc378daa952ba7f163c4a11628f55a4df523b3ef908290a45050565b828054614de990615434565b90600052602060002090601f016020900481019282614e0b5760008555614e51565b82601f10614e2457805160ff1916838001178555614e51565b82800160010185558215614e51579182015b82811115614e51578251825591602001919060010190614e36565b50614e5d929150614e61565b5090565b5b80821115614e5d5760008155600101614e62565b6001600160e01b031981168114610d4457600080fd5b600060208284031215614e9e57600080fd5b813561459a81614e76565b60005b83811015614ec4578181015183820152602001614eac565b838111156126db5750506000910152565b60008151808452614eed816020860160208601614ea9565b601f01601f19169290920160200192915050565b60208152600061459a6020830184614ed5565b600060208284031215614f2657600080fd5b5035919050565b6001600160a01b0381168114610d4457600080fd5b803561300781614f2d565b60008060408385031215614f6057600080fd5b8235614f6b81614f2d565b946020939093013593505050565b634e487b7160e01b600052604160045260246000fd5b604051601f8201601f191681016001600160401b0381118282101715614fb757614fb7614f79565b604052919050565b60006001600160401b03821115614fd857614fd8614f79565b50601f01601f191660200190565b6000614ff9614ff484614fbf565b614f8f565b905082815283838301111561500d57600080fd5b828260208301376000602084830101529392505050565b600082601f83011261503557600080fd5b61459a83833560208501614fe6565b60006020828403121561505657600080fd5b81356001600160401b0381111561506c57600080fd5b6116d284828501615024565b60006020828403121561508a57600080fd5b813561459a81614f2d565b6000806000606084860312156150aa57600080fd5b83356150b581614f2d565b925060208401356150c581614f2d565b929592945050506040919091013590565b600080604083850312156150e957600080fd5b50508035926020909101359150565b6000806040838503121561510b57600080fd5b82359150602083013561511d81614f2d565b809150509250929050565b60008083601f84011261513a57600080fd5b5081356001600160401b0381111561515157600080fd5b60208301915083602082850101111561498857600080fd5b60008060008060006080868803121561518157600080fd5b853561518c81614f2d565b9450602086013561519c81614f2d565b93506040860135925060608601356001600160401b038111156151be57600080fd5b6151ca88828901615128565b969995985093965092949392505050565b600080600080606085870312156151f157600080fd5b84356151fc81614f2d565b93506020850135925060408501356001600160401b0381111561521e57600080fd5b61522a87828801615128565b95989497509550505050565b6020808252825182820181905260009190848201906040850190845b8181101561526e57835183529284019291840191600101615252565b50909695505050505050565b600080600080600080600080610100898b03121561529757600080fd5b88356001600160401b03808211156152ae57600080fd5b6152ba8c838d01615024565b995060208b01359150808211156152d057600080fd5b506152dd8b828c01615024565b97505060408901356152ee81614f2d565b955060608901356152fe81614f2d565b9450608089013561530e81614f2d565b935060a089013561531e81614f2d565b925060c089013561532e81614f2d565b915061533c60e08a01614f42565b90509295985092959890939650565b8015158114610d4457600080fd5b6000806040838503121561536c57600080fd5b823561537781614f2d565b9150602083013561511d8161534b565b6000806000806080858703121561539d57600080fd5b84356153a881614f2d565b935060208501356153b881614f2d565b92506040850135915060608501356001600160401b038111156153da57600080fd5b8501601f810187136153eb57600080fd5b6153fa87823560208401614fe6565b91505092959194509250565b6000806040838503121561541957600080fd5b823561542481614f2d565b9150602083013561511d81614f2d565b600181811c9082168061544857607f821691505b6020821081141561546957634e487b7160e01b600052602260045260246000fd5b50919050565b60006020828403121561548157600080fd5b815161459a8161534b565b634e487b7160e01b600052601160045260246000fd5b60008160001904831182151516156154bc576154bc61548c565b500290565b6000826154de57634e487b7160e01b600052601260045260246000fd5b500490565b600083516154f5818460208801614ea9565b696c657420736565643d2760b01b908301908152835161551c81600a840160208801614ea9565b61273b60f01b600a9290910191820152600c01949350505050565b60008351615549818460208801614ea9565b7f6c657420474d5f434f4e54524143545f414444524553533d27000000000000009083019081528351615583816019840160208801614ea9565b61273b60f01b60199290910191820152601b01949350505050565b6000602082840312156155b057600080fd5b815161459a81614f2d565b600083516155cd818460208801614ea9565b80830190507f6c657420535741505f504f4f4c5f474d5f4554485f434f4e54524143545f414481526644524553533d2760c81b60208201528351615618816027840160208801614ea9565b61273b60f01b60279290910191820152602901949350505050565b60008351615645818460208801614ea9565b7f6c657420736f6c617269734e6674436f6e7472616374416464726573733d2700908301908152835161567f81601f840160208801614ea9565b61273b60f01b601f9290910191820152602101949350505050565b600083516156ac818460208801614ea9565b6d6c657420544f4b454e5f49443d2760901b90830190815283516156d781600e840160208801614ea9565b61273b60f01b600e9290910191820152601001949350505050565b60008251615704818460208701614ea9565b681e17b9b1b934b83a1f60b91b920191825250600901919050565b60006000198214156157335761573361548c565b5060010190565b60006020828403121561574c57600080fd5b5051919050565b634e487b7160e01b600052603260045260246000fd5b6001600160a01b03831681526040602082018190526000906116d290830184614ed5565b600082198211156157a0576157a061548c565b500190565b6001600160a01b03841681526060602082018190526000906157c990830185614ed5565b9050826040830152949350505050565b60006157e7614ff484614fbf565b90508281528383830111156157fb57600080fd5b61459a836020830184614ea9565b6000806040838503121561581c57600080fd5b82516001600160401b0381111561583257600080fd5b8301601f8101851361584357600080fd5b615852858251602084016157d9565b925050602083015190509250929050565b60008351615875818460208801614ea9565b835190830190615889818360208801614ea9565b01949350505050565b6000828210156158a4576158a461548c565b500390565b6000602082840312156158bb57600080fd5b81516001600160401b038111156158d157600080fd5b8201601f810184136158e257600080fd5b6116d2848251602084016157d9565b60008251615903818460208701614ea9565b9190910192915050565b7519185d184e9d195e1d0bda1d1b5b0ed8985cd94d8d0b60521b81526000825161593e816016850160208701614ea9565b9190910160160192915050565b7216101130b734b6b0ba34b7b72fbab936111d1160691b8152815160009061597a816013850160208701614ea9565b601160f91b6013939091019283015250601401919050565b600085516159a4818460208a01614ea9565b8083019050602f60f81b80825286516159c4816001850160208b01614ea9565b600192019182015284516159df816002840160208901614ea9565b653f736565643d60d01b600292909101918201528351615a06816008840160208801614ea9565b016008019695505050505050565b7f7b226e616d65223a22222c226465736372697074696f6e223a2022220000000081526b16101134b6b0b3b2911d101160a11b601c8201528351600090615a62816028850160208901614ea9565b6e1331b0b83a3ab9329e9b181818181160891b6028918401918201528451615a91816037840160208901614ea9565b7016101130ba3a3934b13aba32b9911d101160791b603792909101918201528351615ac3816048840160208801614ea9565b6a1331b0b83a3ab9329e981160a91b60489290910191820152607d60f81b605382015260540195945050505050565b600083516020615b058285838901614ea9565b845491840191600090600181811c9080831680615b2357607f831692505b858310811415615b4157634e487b7160e01b85526022600452602485fd5b808015615b555760018114615b6657615b93565b60ff19851688528388019550615b93565b60008b81526020902060005b85811015615b8b5781548a820152908401908801615b72565b505083880195505b50939a9950505050505050505050565b6020808252602b908201527f496e697469616c697a61626c653a20636f6e7472616374206973206e6f74206960408201526a6e697469616c697a696e6760a81b606082015260800190565b60208082526032908201527f4552433732313a207472616e7366657220746f206e6f6e20455243373231526560408201527131b2b4bb32b91034b6b83632b6b2b73a32b960711b606082015260800190565b60208082526025908201527f4552433732313a207472616e736665722066726f6d20696e636f72726563742060408201526437bbb732b960d91b606082015260800190565b600081615c9457615c9461548c565b506000190190565b6001600160a01b0385811682528416602082015260408101839052608060608201819052600090615ccf90830184614ed5565b9695505050505050565b600060208284031215615ceb57600080fd5b815161459a81614e76565b634e487b7160e01b600052602160045260246000fdfe4142434445464748494a4b4c4d4e4f505152535455565758595a6162636465666768696a6b6c6d6e6f707172737475767778797a303132333435363738392b2f3c7363726970742073616e64626f783d27616c6c6f772d736372697074732720747970653d27746578742f6a617661736372697074273ea26469706673582212206ccafc43baac5df04914c685083330f884122471a16c30df1b745d243511bd0e64736f6c634300080c0033",
  "linkReferences": {},
  "deployedLinkReferences": {}
}