{
  "_format": "hh-sol-artifact-1",
  "contractName": "SOUL",
  "sourceName": "contracts/nfts/SOUL.sol",
  "abi": [
    {
      "anonymous": false,
      "inputs": [
        {
          "indexed": true,
          "internalType": "address",
          "name": "owner",
          "type": "address"
        },
        {
          "indexed": true,
          "internalType": "address",
          "name": "approved",
          "type": "address"
        },
        {
          "indexed": true,
          "internalType": "uint256",
          "name": "tokenId",
          "type": "uint256"
        }
      ],
      "name": "Approval",
      "type": "event"
    },
    {
      "anonymous": false,
      "inputs": [
        {
          "indexed": true,
          "internalType": "address",
          "name": "owner",
          "type": "address"
        },
        {
          "indexed": true,
          "internalType": "address",
          "name": "operator",
          "type": "address"
        },
        {
          "indexed": false,
          "internalType": "bool",
          "name": "approved",
          "type": "bool"
        }
      ],
      "name": "ApprovalForAll",
      "type": "event"
    },
    {
      "anonymous": false,
      "inputs": [
        {
          "indexed": true,
          "internalType": "uint256",
          "name": "tokenId",
          "type": "uint256"
        },
        {
          "indexed": false,
          "internalType": "address",
          "name": "sender",
          "type": "address"
        },
        {
          "indexed": false,
          "internalType": "uint256",
          "name": "value",
          "type": "uint256"
        },
        {
          "indexed": false,
          "internalType": "bool",
          "name": "extended",
          "type": "bool"
        },
        {
          "components": [
            {
              "internalType": "uint256",
              "name": "tokenId",
              "type": "uint256"
            },
            {
              "internalType": "address",
              "name": "erc20Token",
              "type": "address"
            },
            {
              "internalType": "uint256",
              "name": "amount",
              "type": "uint256"
            },
            {
              "internalType": "uint256",
              "name": "startTime",
              "type": "uint256"
            },
            {
              "internalType": "uint256",
              "name": "endTime",
              "type": "uint256"
            },
            {
              "internalType": "address payable",
              "name": "bidder",
              "type": "address"
            },
            {
              "internalType": "bool",
              "name": "settled",
              "type": "bool"
            },
            {
              "internalType": "uint256",
              "name": "timeBuffer",
              "type": "uint256"
            },
            {
              "internalType": "uint256",
              "name": "reservePrice",
              "type": "uint256"
            },
            {
              "internalType": "uint256",
              "name": "minBidIncrementPercentage",
              "type": "uint256"
            },
            {
              "internalType": "bytes32",
              "name": "auctionId",
              "type": "bytes32"
            }
          ],
          "indexed": false,
          "internalType": "struct AuctionHouse.Auction",
          "name": "auction",
          "type": "tuple"
        }
      ],
      "name": "AuctionBid",
      "type": "event"
    },
    {
      "anonymous": false,
      "inputs": [
        {
          "indexed": true,
          "internalType": "uint256",
          "name": "tokenId",
          "type": "uint256"
        },
        {
          "indexed": false,
          "internalType": "address",
          "name": "sender",
          "type": "address"
        },
        {
          "indexed": false,
          "internalType": "uint256",
          "name": "value",
          "type": "uint256"
        },
        {
          "indexed": false,
          "internalType": "bytes32",
          "name": "auctionId",
          "type": "bytes32"
        }
      ],
      "name": "AuctionClaimBid",
      "type": "event"
    },
    {
      "anonymous": false,
      "inputs": [
        {
          "indexed": true,
          "internalType": "uint256",
          "name": "tokenId",
          "type": "uint256"
        }
      ],
      "name": "AuctionClosed",
      "type": "event"
    },
    {
      "anonymous": false,
      "inputs": [
        {
          "indexed": true,
          "internalType": "uint256",
          "name": "tokenId",
          "type": "uint256"
        },
        {
          "indexed": false,
          "internalType": "uint256",
          "name": "startTime",
          "type": "uint256"
        },
        {
          "indexed": false,
          "internalType": "uint256",
          "name": "endTime",
          "type": "uint256"
        },
        {
          "indexed": false,
          "internalType": "address",
          "name": "sender",
          "type": "address"
        },
        {
          "indexed": false,
          "internalType": "bytes32",
          "name": "auctionId",
          "type": "bytes32"
        },
        {
          "components": [
            {
              "internalType": "uint256",
              "name": "tokenId",
              "type": "uint256"
            },
            {
              "internalType": "address",
              "name": "erc20Token",
              "type": "address"
            },
            {
              "internalType": "uint256",
              "name": "amount",
              "type": "uint256"
            },
            {
              "internalType": "uint256",
              "name": "startTime",
              "type": "uint256"
            },
            {
              "internalType": "uint256",
              "name": "endTime",
              "type": "uint256"
            },
            {
              "internalType": "address payable",
              "name": "bidder",
              "type": "address"
            },
            {
              "internalType": "bool",
              "name": "settled",
              "type": "bool"
            },
            {
              "internalType": "uint256",
              "name": "timeBuffer",
              "type": "uint256"
            },
            {
              "internalType": "uint256",
              "name": "reservePrice",
              "type": "uint256"
            },
            {
              "internalType": "uint256",
              "name": "minBidIncrementPercentage",
              "type": "uint256"
            },
            {
              "internalType": "bytes32",
              "name": "auctionId",
              "type": "bytes32"
            }
          ],
          "indexed": false,
          "internalType": "struct AuctionHouse.Auction",
          "name": "auction",
          "type": "tuple"
        }
      ],
      "name": "AuctionCreated",
      "type": "event"
    },
    {
      "anonymous": false,
      "inputs": [
        {
          "indexed": true,
          "internalType": "uint256",
          "name": "tokenId",
          "type": "uint256"
        },
        {
          "indexed": false,
          "internalType": "uint256",
          "name": "endTime",
          "type": "uint256"
        },
        {
          "components": [
            {
              "internalType": "uint256",
              "name": "tokenId",
              "type": "uint256"
            },
            {
              "internalType": "address",
              "name": "erc20Token",
              "type": "address"
            },
            {
              "internalType": "uint256",
              "name": "amount",
              "type": "uint256"
            },
            {
              "internalType": "uint256",
              "name": "startTime",
              "type": "uint256"
            },
            {
              "internalType": "uint256",
              "name": "endTime",
              "type": "uint256"
            },
            {
              "internalType": "address payable",
              "name": "bidder",
              "type": "address"
            },
            {
              "internalType": "bool",
              "name": "settled",
              "type": "bool"
            },
            {
              "internalType": "uint256",
              "name": "timeBuffer",
              "type": "uint256"
            },
            {
              "internalType": "uint256",
              "name": "reservePrice",
              "type": "uint256"
            },
            {
              "internalType": "uint256",
              "name": "minBidIncrementPercentage",
              "type": "uint256"
            },
            {
              "internalType": "bytes32",
              "name": "auctionId",
              "type": "bytes32"
            }
          ],
          "indexed": false,
          "internalType": "struct AuctionHouse.Auction",
          "name": "auction",
          "type": "tuple"
        }
      ],
      "name": "AuctionExtended",
      "type": "event"
    },
    {
      "anonymous": false,
      "inputs": [
        {
          "indexed": false,
          "internalType": "uint256",
          "name": "minBidIncrementPercentage",
          "type": "uint256"
        }
      ],
      "name": "AuctionMinBidIncrementPercentageUpdated",
      "type": "event"
    },
    {
      "anonymous": false,
      "inputs": [
        {
          "indexed": false,
          "internalType": "uint256",
          "name": "reservePrice",
          "type": "uint256"
        }
      ],
      "name": "AuctionReservePriceUpdated",
      "type": "event"
    },
    {
      "anonymous": false,
      "inputs": [
        {
          "indexed": true,
          "internalType": "uint256",
          "name": "tokenId",
          "type": "uint256"
        },
        {
          "indexed": false,
          "internalType": "address",
          "name": "winner",
          "type": "address"
        },
        {
          "indexed": false,
          "internalType": "uint256",
          "name": "amount",
          "type": "uint256"
        },
        {
          "components": [
            {
              "internalType": "uint256",
              "name": "tokenId",
              "type": "uint256"
            },
            {
              "internalType": "address",
              "name": "erc20Token",
              "type": "address"
            },
            {
              "internalType": "uint256",
              "name": "amount",
              "type": "uint256"
            },
            {
              "internalType": "uint256",
              "name": "startTime",
              "type": "uint256"
            },
            {
              "internalType": "uint256",
              "name": "endTime",
              "type": "uint256"
            },
            {
              "internalType": "address payable",
              "name": "bidder",
              "type": "address"
            },
            {
              "internalType": "bool",
              "name": "settled",
              "type": "bool"
            },
            {
              "internalType": "uint256",
              "name": "timeBuffer",
              "type": "uint256"
            },
            {
              "internalType": "uint256",
              "name": "reservePrice",
              "type": "uint256"
            },
            {
              "internalType": "uint256",
              "name": "minBidIncrementPercentage",
              "type": "uint256"
            },
            {
              "internalType": "bytes32",
              "name": "auctionId",
              "type": "bytes32"
            }
          ],
          "indexed": false,
          "internalType": "struct AuctionHouse.Auction",
          "name": "auction",
          "type": "tuple"
        }
      ],
      "name": "AuctionSettled",
      "type": "event"
    },
    {
      "anonymous": false,
      "inputs": [
        {
          "indexed": false,
          "internalType": "uint256",
          "name": "timeBuffer",
          "type": "uint256"
        }
      ],
      "name": "AuctionTimeBufferUpdated",
      "type": "event"
    },
    {
      "anonymous": false,
      "inputs": [
        {
          "indexed": true,
          "internalType": "address",
          "name": "reserver",
          "type": "address"
        },
        {
          "indexed": true,
          "internalType": "uint256",
          "name": "tokenId",
          "type": "uint256"
        },
        {
          "indexed": true,
          "internalType": "address",
          "name": "owner",
          "type": "address"
        },
        {
          "indexed": false,
          "internalType": "uint256",
          "name": "blockNumber",
          "type": "uint256"
        }
      ],
      "name": "Claim",
      "type": "event"
    },
    {
      "anonymous": false,
      "inputs": [
        {
          "indexed": false,
          "internalType": "uint8",
          "name": "version",
          "type": "uint8"
        }
      ],
      "name": "Initialized",
      "type": "event"
    },
    {
      "anonymous": false,
      "inputs": [
        {
          "indexed": true,
          "internalType": "address",
          "name": "previousOwner",
          "type": "address"
        },
        {
          "indexed": true,
          "internalType": "address",
          "name": "newOwner",
          "type": "address"
        }
      ],
      "name": "OwnershipTransferred",
      "type": "event"
    },
    {
      "anonymous": false,
      "inputs": [
        {
          "indexed": false,
          "internalType": "address",
          "name": "account",
          "type": "address"
        }
      ],
      "name": "Paused",
      "type": "event"
    },
    {
      "anonymous": false,
      "inputs": [
        {
          "indexed": true,
          "internalType": "address",
          "name": "reserver",
          "type": "address"
        },
        {
          "indexed": true,
          "internalType": "uint256",
          "name": "tokenId",
          "type": "uint256"
        },
        {
          "indexed": true,
          "internalType": "address",
          "name": "owner",
          "type": "address"
        },
        {
          "indexed": false,
          "internalType": "uint256",
          "name": "blockNumber",
          "type": "uint256"
        }
      ],
      "name": "Reserve",
      "type": "event"
    },
    {
      "anonymous": false,
      "inputs": [
        {
          "indexed": true,
          "internalType": "address",
          "name": "from",
          "type": "address"
        },
        {
          "indexed": true,
          "internalType": "address",
          "name": "to",
          "type": "address"
        },
        {
          "indexed": true,
          "internalType": "uint256",
          "name": "tokenId",
          "type": "uint256"
        }
      ],
      "name": "Transfer",
      "type": "event"
    },
    {
      "anonymous": false,
      "inputs": [
        {
          "indexed": false,
          "internalType": "address",
          "name": "account",
          "type": "address"
        }
      ],
      "name": "Unpaused",
      "type": "event"
    },
    {
      "inputs": [],
      "name": "_admin",
      "outputs": [
        {
          "internalType": "address",
          "name": "",
          "type": "address"
        }
      ],
      "stateMutability": "view",
      "type": "function"
    },
    {
      "inputs": [
        {
          "internalType": "uint256",
          "name": "",
          "type": "uint256"
        }
      ],
      "name": "_auctions",
      "outputs": [
        {
          "internalType": "uint256",
          "name": "tokenId",
          "type": "uint256"
        },
        {
          "internalType": "address",
          "name": "erc20Token",
          "type": "address"
        },
        {
          "internalType": "uint256",
          "name": "amount",
          "type": "uint256"
        },
        {
          "internalType": "uint256",
          "name": "startTime",
          "type": "uint256"
        },
        {
          "internalType": "uint256",
          "name": "endTime",
          "type": "uint256"
        },
        {
          "internalType": "address payable",
          "name": "bidder",
          "type": "address"
        },
        {
          "internalType": "bool",
          "name": "settled",
          "type": "bool"
        },
        {
          "internalType": "uint256",
          "name": "timeBuffer",
          "type": "uint256"
        },
        {
          "internalType": "uint256",
          "name": "reservePrice",
          "type": "uint256"
        },
        {
          "internalType": "uint256",
          "name": "minBidIncrementPercentage",
          "type": "uint256"
        },
        {
          "internalType": "bytes32",
          "name": "auctionId",
          "type": "bytes32"
        }
      ],
      "stateMutability": "view",
      "type": "function"
    },
    {
      "inputs": [
        {
          "internalType": "bytes32",
          "name": "",
          "type": "bytes32"
        }
      ],
      "name": "_auctionsList",
      "outputs": [
        {
          "internalType": "uint256",
          "name": "tokenId",
          "type": "uint256"
        },
        {
          "internalType": "address",
          "name": "erc20Token",
          "type": "address"
        },
        {
          "internalType": "uint256",
          "name": "amount",
          "type": "uint256"
        },
        {
          "internalType": "uint256",
          "name": "startTime",
          "type": "uint256"
        },
        {
          "internalType": "uint256",
          "name": "endTime",
          "type": "uint256"
        },
        {
          "internalType": "address payable",
          "name": "bidder",
          "type": "address"
        },
        {
          "internalType": "bool",
          "name": "settled",
          "type": "bool"
        },
        {
          "internalType": "uint256",
          "name": "timeBuffer",
          "type": "uint256"
        },
        {
          "internalType": "uint256",
          "name": "reservePrice",
          "type": "uint256"
        },
        {
          "internalType": "uint256",
          "name": "minBidIncrementPercentage",
          "type": "uint256"
        },
        {
          "internalType": "bytes32",
          "name": "auctionId",
          "type": "bytes32"
        }
      ],
      "stateMutability": "view",
      "type": "function"
    },
    {
      "inputs": [],
      "name": "_bfs",
      "outputs": [
        {
          "internalType": "address",
          "name": "",
          "type": "address"
        }
      ],
      "stateMutability": "view",
      "type": "function"
    },
    {
      "inputs": [
        {
          "internalType": "uint256",
          "name": "",
          "type": "uint256"
        },
        {
          "internalType": "bytes32",
          "name": "",
          "type": "bytes32"
        },
        {
          "internalType": "address",
          "name": "",
          "type": "address"
        }
      ],
      "name": "_bidderAuctions",
      "outputs": [
        {
          "internalType": "uint256",
          "name": "",
          "type": "uint256"
        }
      ],
      "stateMutability": "view",
      "type": "function"
    },
    {
      "inputs": [
        {
          "internalType": "address",
          "name": "",
          "type": "address"
        }
      ],
      "name": "_coreTeamTreasury",
      "outputs": [
        {
          "internalType": "uint256",
          "name": "",
          "type": "uint256"
        }
      ],
      "stateMutability": "view",
      "type": "function"
    },
    {
      "inputs": [],
      "name": "_gmToken",
      "outputs": [
        {
          "internalType": "address",
          "name": "",
          "type": "address"
        }
      ],
      "stateMutability": "view",
      "type": "function"
    },
    {
      "inputs": [],
      "name": "_maxSupply",
      "outputs": [
        {
          "internalType": "uint256",
          "name": "",
          "type": "uint256"
        }
      ],
      "stateMutability": "view",
      "type": "function"
    },
    {
      "inputs": [
        {
          "internalType": "uint256",
          "name": "",
          "type": "uint256"
        }
      ],
      "name": "_mintAt",
      "outputs": [
        {
          "internalType": "uint256",
          "name": "",
          "type": "uint256"
        }
      ],
      "stateMutability": "view",
      "type": "function"
    },
    {
      "inputs": [
        {
          "internalType": "address",
          "name": "",
          "type": "address"
        }
      ],
      "name": "_minted",
      "outputs": [
        {
          "internalType": "uint256",
          "name": "",
          "type": "uint256"
        }
      ],
      "stateMutability": "view",
      "type": "function"
    },
    {
      "inputs": [],
      "name": "_paramsAddress",
      "outputs": [
        {
          "internalType": "address",
          "name": "",
          "type": "address"
        }
      ],
      "stateMutability": "view",
      "type": "function"
    },
    {
      "inputs": [],
      "name": "_randomizerAddr",
      "outputs": [
        {
          "internalType": "address",
          "name": "",
          "type": "address"
        }
      ],
      "stateMutability": "view",
      "type": "function"
    },
    {
      "inputs": [],
      "name": "_script",
      "outputs": [
        {
          "internalType": "string",
          "name": "",
          "type": "string"
        }
      ],
      "stateMutability": "view",
      "type": "function"
    },
    {
      "inputs": [],
      "name": "_signerMint",
      "outputs": [
        {
          "internalType": "address",
          "name": "",
          "type": "address"
        }
      ],
      "stateMutability": "view",
      "type": "function"
    },
    {
      "inputs": [
        {
          "internalType": "address",
          "name": "to",
          "type": "address"
        },
        {
          "internalType": "uint256",
          "name": "tokenId",
          "type": "uint256"
        }
      ],
      "name": "approve",
      "outputs": [],
      "stateMutability": "nonpayable",
      "type": "function"
    },
    {
      "inputs": [
        {
          "internalType": "uint256",
          "name": "tokenId",
          "type": "uint256"
        }
      ],
      "name": "available",
      "outputs": [
        {
          "internalType": "bool",
          "name": "",
          "type": "bool"
        }
      ],
      "stateMutability": "view",
      "type": "function"
    },
    {
      "inputs": [
        {
          "internalType": "address",
          "name": "owner",
          "type": "address"
        }
      ],
      "name": "balanceOf",
      "outputs": [
        {
          "internalType": "uint256",
          "name": "",
          "type": "uint256"
        }
      ],
      "stateMutability": "view",
      "type": "function"
    },
    {
      "inputs": [
        {
          "internalType": "address",
          "name": "to",
          "type": "address"
        },
        {
          "internalType": "uint256",
          "name": "n",
          "type": "uint256"
        },
        {
          "internalType": "bytes",
          "name": "signatures",
          "type": "bytes"
        }
      ],
      "name": "batchMint",
      "outputs": [
        {
          "internalType": "uint256[]",
          "name": "",
          "type": "uint256[]"
        }
      ],
      "stateMutability": "payable",
      "type": "function"
    },
    {
      "inputs": [
        {
          "internalType": "uint256",
          "name": "tokenId",
          "type": "uint256"
        }
      ],
      "name": "biddable",
      "outputs": [
        {
          "internalType": "bool",
          "name": "",
          "type": "bool"
        }
      ],
      "stateMutability": "view",
      "type": "function"
    },
    {
      "inputs": [
        {
          "internalType": "address",
          "name": "newAdm",
          "type": "address"
        }
      ],
      "name": "changeAdmin",
      "outputs": [],
      "stateMutability": "nonpayable",
      "type": "function"
    },
    {
      "inputs": [
        {
          "internalType": "address",
          "name": "newBfs",
          "type": "address"
        }
      ],
      "name": "changeBfs",
      "outputs": [],
      "stateMutability": "nonpayable",
      "type": "function"
    },
    {
      "inputs": [
        {
          "internalType": "address",
          "name": "newBrc20",
          "type": "address"
        }
      ],
      "name": "changeBrc20Token",
      "outputs": [],
      "stateMutability": "nonpayable",
      "type": "function"
    },
    {
      "inputs": [
        {
          "internalType": "address",
          "name": "newAddr",
          "type": "address"
        }
      ],
      "name": "changeParamAddr",
      "outputs": [],
      "stateMutability": "nonpayable",
      "type": "function"
    },
    {
      "inputs": [
        {
          "internalType": "address",
          "name": "newAddr",
          "type": "address"
        }
      ],
      "name": "changeRandomizerAddr",
      "outputs": [],
      "stateMutability": "nonpayable",
      "type": "function"
    },
    {
      "inputs": [
        {
          "internalType": "string",
          "name": "newScript",
          "type": "string"
        }
      ],
      "name": "changeScript",
      "outputs": [],
      "stateMutability": "nonpayable",
      "type": "function"
    },
    {
      "inputs": [
        {
          "internalType": "address",
          "name": "newAdd",
          "type": "address"
        }
      ],
      "name": "changeSignerMint",
      "outputs": [],
      "stateMutability": "nonpayable",
      "type": "function"
    },
    {
      "inputs": [
        {
          "internalType": "uint256",
          "name": "tokenId",
          "type": "uint256"
        },
        {
          "internalType": "bytes32",
          "name": "auctionId",
          "type": "bytes32"
        }
      ],
      "name": "claimBid",
      "outputs": [],
      "stateMutability": "nonpayable",
      "type": "function"
    },
    {
      "inputs": [
        {
          "internalType": "uint256",
          "name": "tokenId",
          "type": "uint256"
        }
      ],
      "name": "createAuction",
      "outputs": [],
      "stateMutability": "nonpayable",
      "type": "function"
    },
    {
      "inputs": [
        {
          "internalType": "uint256",
          "name": "tokenId",
          "type": "uint256"
        },
        {
          "internalType": "uint256",
          "name": "amount",
          "type": "uint256"
        }
      ],
      "name": "createBid",
      "outputs": [],
      "stateMutability": "payable",
      "type": "function"
    },
    {
      "inputs": [
        {
          "internalType": "uint256",
          "name": "amount",
          "type": "uint256"
        }
      ],
      "name": "deposit",
      "outputs": [],
      "stateMutability": "payable",
      "type": "function"
    },
    {
      "inputs": [
        {
          "internalType": "uint256",
          "name": "tokenId",
          "type": "uint256"
        }
      ],
      "name": "getApproved",
      "outputs": [
        {
          "internalType": "address",
          "name": "",
          "type": "address"
        }
      ],
      "stateMutability": "view",
      "type": "function"
    },
    {
      "inputs": [
        {
          "internalType": "address",
          "name": "user",
          "type": "address"
        },
        {
          "internalType": "uint256",
          "name": "totalGM",
          "type": "uint256"
        }
      ],
      "name": "getMessageHash",
      "outputs": [
        {
          "internalType": "bytes32",
          "name": "",
          "type": "bytes32"
        }
      ],
      "stateMutability": "view",
      "type": "function"
    },
    {
      "inputs": [
        {
          "internalType": "string",
          "name": "name",
          "type": "string"
        },
        {
          "internalType": "string",
          "name": "symbol",
          "type": "string"
        },
        {
          "internalType": "address",
          "name": "admin",
          "type": "address"
        },
        {
          "internalType": "address",
          "name": "paramsAddress",
          "type": "address"
        },
        {
          "internalType": "address",
          "name": "randomizerAddr",
          "type": "address"
        },
        {
          "internalType": "address",
          "name": "gmToken",
          "type": "address"
        },
        {
          "internalType": "address",
          "name": "bfs",
          "type": "address"
        },
        {
          "internalType": "address",
          "name": "signerMint",
          "type": "address"
        }
      ],
      "name": "initialize",
      "outputs": [],
      "stateMutability": "nonpayable",
      "type": "function"
    },
    {
      "inputs": [
        {
          "internalType": "address",
          "name": "owner",
          "type": "address"
        },
        {
          "internalType": "address",
          "name": "operator",
          "type": "address"
        }
      ],
      "name": "isApprovedForAll",
      "outputs": [
        {
          "internalType": "bool",
          "name": "",
          "type": "bool"
        }
      ],
      "stateMutability": "view",
      "type": "function"
    },
    {
      "inputs": [
        {
          "internalType": "address",
          "name": "to",
          "type": "address"
        },
        {
          "internalType": "uint256",
          "name": "totalGM",
          "type": "uint256"
        },
        {
          "internalType": "bytes",
          "name": "signature",
          "type": "bytes"
        }
      ],
      "name": "mint",
      "outputs": [
        {
          "internalType": "uint256",
          "name": "tokenId",
          "type": "uint256"
        }
      ],
      "stateMutability": "payable",
      "type": "function"
    },
    {
      "inputs": [],
      "name": "name",
      "outputs": [
        {
          "internalType": "string",
          "name": "",
          "type": "string"
        }
      ],
      "stateMutability": "view",
      "type": "function"
    },
    {
      "inputs": [],
      "name": "owner",
      "outputs": [
        {
          "internalType": "address",
          "name": "",
          "type": "address"
        }
      ],
      "stateMutability": "view",
      "type": "function"
    },
    {
      "inputs": [
        {
          "internalType": "uint256",
          "name": "tokenId",
          "type": "uint256"
        }
      ],
      "name": "ownerOf",
      "outputs": [
        {
          "internalType": "address",
          "name": "",
          "type": "address"
        }
      ],
      "stateMutability": "view",
      "type": "function"
    },
    {
      "inputs": [],
      "name": "p5jsScript",
      "outputs": [
        {
          "internalType": "string",
          "name": "result",
          "type": "string"
        }
      ],
      "stateMutability": "view",
      "type": "function"
    },
    {
      "inputs": [],
      "name": "paused",
      "outputs": [
        {
          "internalType": "bool",
          "name": "",
          "type": "bool"
        }
      ],
      "stateMutability": "view",
      "type": "function"
    },
    {
      "inputs": [],
      "name": "renounceOwnership",
      "outputs": [],
      "stateMutability": "nonpayable",
      "type": "function"
    },
    {
      "inputs": [
        {
          "internalType": "uint256",
          "name": "projectId",
          "type": "uint256"
        },
        {
          "internalType": "uint256",
          "name": "_salePrice",
          "type": "uint256"
        }
      ],
      "name": "royaltyInfo",
      "outputs": [
        {
          "internalType": "address",
          "name": "receiver",
          "type": "address"
        },
        {
          "internalType": "uint256",
          "name": "royaltyAmount",
          "type": "uint256"
        }
      ],
      "stateMutability": "view",
      "type": "function"
    },
    {
      "inputs": [
        {
          "internalType": "address",
          "name": "from",
          "type": "address"
        },
        {
          "internalType": "address",
          "name": "to",
          "type": "address"
        },
        {
          "internalType": "uint256",
          "name": "tokenId",
          "type": "uint256"
        }
      ],
      "name": "safeTransferFrom",
      "outputs": [],
      "stateMutability": "nonpayable",
      "type": "function"
    },
    {
      "inputs": [
        {
          "internalType": "address",
          "name": "from",
          "type": "address"
        },
        {
          "internalType": "address",
          "name": "to",
          "type": "address"
        },
        {
          "internalType": "uint256",
          "name": "tokenId",
          "type": "uint256"
        },
        {
          "internalType": "bytes",
          "name": "data",
          "type": "bytes"
        }
      ],
      "name": "safeTransferFrom",
      "outputs": [],
      "stateMutability": "nonpayable",
      "type": "function"
    },
    {
      "inputs": [
        {
          "internalType": "address",
          "name": "operator",
          "type": "address"
        },
        {
          "internalType": "bool",
          "name": "approved",
          "type": "bool"
        }
      ],
      "name": "setApprovalForAll",
      "outputs": [],
      "stateMutability": "nonpayable",
      "type": "function"
    },
    {
      "inputs": [
        {
          "internalType": "uint256",
          "name": "tokenId",
          "type": "uint256"
        }
      ],
      "name": "settleAuction",
      "outputs": [],
      "stateMutability": "nonpayable",
      "type": "function"
    },
    {
      "inputs": [
        {
          "internalType": "bytes4",
          "name": "interfaceId",
          "type": "bytes4"
        }
      ],
      "name": "supportsInterface",
      "outputs": [
        {
          "internalType": "bool",
          "name": "",
          "type": "bool"
        }
      ],
      "stateMutability": "view",
      "type": "function"
    },
    {
      "inputs": [],
      "name": "symbol",
      "outputs": [
        {
          "internalType": "string",
          "name": "",
          "type": "string"
        }
      ],
      "stateMutability": "view",
      "type": "function"
    },
    {
      "inputs": [
        {
          "internalType": "bytes32",
          "name": "seed",
          "type": "bytes32"
        },
        {
          "internalType": "uint256",
          "name": "tokenId",
          "type": "uint256"
        }
      ],
      "name": "tokenHTML",
      "outputs": [
        {
          "internalType": "string",
          "name": "result",
          "type": "string"
        }
      ],
      "stateMutability": "view",
      "type": "function"
    },
    {
      "inputs": [
        {
          "internalType": "uint256",
          "name": "tokenId",
          "type": "uint256"
        }
      ],
      "name": "tokenIdToHash",
      "outputs": [
        {
          "internalType": "bytes32",
          "name": "",
          "type": "bytes32"
        }
      ],
      "stateMutability": "view",
      "type": "function"
    },
    {
      "inputs": [
        {
          "internalType": "uint256",
          "name": "tokenId",
          "type": "uint256"
        }
      ],
      "name": "tokenURI",
      "outputs": [
        {
          "internalType": "string",
          "name": "result",
          "type": "string"
        }
      ],
      "stateMutability": "view",
      "type": "function"
    },
    {
      "inputs": [
        {
          "internalType": "address",
          "name": "from",
          "type": "address"
        },
        {
          "internalType": "address",
          "name": "to",
          "type": "address"
        },
        {
          "internalType": "uint256",
          "name": "tokenId",
          "type": "uint256"
        }
      ],
      "name": "transferFrom",
      "outputs": [],
      "stateMutability": "nonpayable",
      "type": "function"
    },
    {
      "inputs": [
        {
          "internalType": "address",
          "name": "newOwner",
          "type": "address"
        }
      ],
      "name": "transferOwnership",
      "outputs": [],
      "stateMutability": "nonpayable",
      "type": "function"
    },
    {
      "inputs": [
        {
          "internalType": "bytes32",
          "name": "seed",
          "type": "bytes32"
        },
        {
          "internalType": "uint256",
          "name": "tokenId",
          "type": "uint256"
        }
      ],
      "name": "variableScript",
      "outputs": [
        {
          "internalType": "string",
          "name": "result",
          "type": "string"
        }
      ],
      "stateMutability": "view",
      "type": "function"
    },
    {
      "inputs": [],
      "name": "web3Script",
      "outputs": [
        {
          "internalType": "string",
          "name": "result",
          "type": "string"
        }
      ],
      "stateMutability": "view",
      "type": "function"
    },
    {
      "inputs": [
        {
          "internalType": "address",
          "name": "erc20Addr",
          "type": "address"
        }
      ],
      "name": "withdraw",
      "outputs": [],
      "stateMutability": "nonpayable",
      "type": "function"
    }
  ],
  "bytecode": "0x608060405234801561001057600080fd5b506165b980620000216000396000f3fe60806040526004361061036b5760003560e01c806374973a41116101c6578063adfc7dae116100f7578063d5563f3111610095578063f2fde38b1161006f578063f2fde38b14610b72578063f3f83ddd14610b92578063f50cbc8b14610bb2578063febfd6c314610bd257600080fd5b8063d5563f3114610ae9578063e985e9c514610b09578063eb29c23214610b5257600080fd5b8063b88d4fde116100d1578063b88d4fde14610a5f578063bd89684314610a7a578063c87b56dd14610a9b578063cc22e00414610abb57600080fd5b8063adfc7dae14610a18578063b6b55f2514610a39578063b7751c7114610a4c57600080fd5b806394f5a66e116101645780639a247cb31161013e5780639a247cb3146109425780639c6f35f9146109c2578063a0d41e11146109e3578063a22cb465146109f857600080fd5b806394f5a66e146108ed57806395d89b411461090d57806396e494e81461092257600080fd5b80638da5cb5b116101a05780638da5cb5b1461087b5780638f2839701461089a57806393c6cdc0146108ba57806394d008ef146108da57600080fd5b806374973a41146108235780637de77ecc146108385780638a0162491461086657600080fd5b806332e32326116102a0578063621a1f741161023e57806366215eb41161021857806366215eb4146107ad57806368a17bd8146107ce57806370a08231146107ee578063715018a61461080e57600080fd5b8063621a1f741461074d578063624de2a91461076d5780636352211e1461078d57600080fd5b8063512c91df1161027a578063512c91df146106b657806351cff8d9146106d657806355cd6326146106f65780635c975abb1461073557600080fd5b806332e3232614610655578063333489791461067557806342842e0e1461069657600080fd5b80631ca9741b1161030d5780632824d162116102e75780632824d162146105a85780632a55205a146105d65780632b7d13de146106155780632e9936111461063557600080fd5b80631ca9741b1461054857806322f4596f1461056857806323b872dd1461058d57600080fd5b8063081812fc11610349578063081812fc14610400578063095ea7b314610420578063140f0e071461044257806317dc6bf61461046257600080fd5b806301bc45c91461037057806301ffc9a7146103ae57806306fdde03146103de575b600080fd5b34801561037c57600080fd5b5061015f54610391906001600160a01b031681565b6040516001600160a01b0390911681526020015b60405180910390f35b3480156103ba57600080fd5b506103ce6103c93660046154c7565b610bf2565b60405190151581526020016103a5565b3480156103ea57600080fd5b506103f3610c44565b6040516103a5919061553c565b34801561040c57600080fd5b5061039161041b36600461554f565b610cd6565b34801561042c57600080fd5b5061044061043b366004615588565b610cfd565b005b34801561044e57600080fd5b5061044061045d366004615681565b610e18565b34801561046e57600080fd5b506104e261047d36600461554f565b61016d60205260009081526040902080546001820154600283015460038401546004850154600586015460068701546007880154600889015460099099015497986001600160a01b0397881698969795969495841694600160a01b90940460ff16938b565b604080519b8c526001600160a01b039a8b1660208d01528b019890985260608a019690965260808901949094529590911660a0870152151560c086015260e0850193909352610100840192909252610120830191909152610140820152610160016103a5565b34801561055457600080fd5b506104406105633660046156b6565b610e78565b34801561057457600080fd5b5061057f6101665481565b6040519081526020016103a5565b34801561059957600080fd5b5061044061036b3660046156d3565b3480156105b457600080fd5b5061057f6105c33660046156b6565b6101706020526000908152604090205481565b3480156105e257600080fd5b506105f66105f1366004615714565b610f0c565b604080516001600160a01b0390931683526020830191909152016103a5565b34801561062157600080fd5b506104406106303660046156b6565b610f3d565b34801561064157600080fd5b5061044061065036600461554f565b610fd2565b34801561066157600080fd5b506103f3610670366004615714565b61100a565b34801561068157600080fd5b5061016554610391906001600160a01b031681565b3480156106a257600080fd5b506104406106b13660046156d3565b6111f3565b3480156106c257600080fd5b5061057f6106d1366004615588565b61120e565b3480156106e257600080fd5b506104406106f13660046156b6565b61126c565b34801561070257600080fd5b5061057f610711366004615736565b61016f60209081526000938452604080852082529284528284209052825290205481565b34801561074157600080fd5b5060975460ff166103ce565b34801561075957600080fd5b5061057f61076836600461554f565b6114ac565b61078061077b36600461576f565b61157a565b6040516103a591906157f8565b34801561079957600080fd5b506103916107a836600461554f565b611647565b3480156107b957600080fd5b5061016154610391906001600160a01b031681565b3480156107da57600080fd5b506103ce6107e936600461554f565b611663565b3480156107fa57600080fd5b5061057f6108093660046156b6565b61168b565b34801561081a57600080fd5b50610440611711565b34801561082f57600080fd5b506103f3611725565b34801561084457600080fd5b5061057f6108533660046156b6565b61016a6020526000908152604090205481565b34801561087257600080fd5b506103f361197f565b34801561088757600080fd5b5061012d546001600160a01b0316610391565b3480156108a657600080fd5b506104406108b53660046156b6565b611a0e565b3480156108c657600080fd5b506104406108d53660046156b6565b611aa3565b61057f6108e836600461576f565b611b38565b3480156108f957600080fd5b5061044061090836600461583c565b611e45565b34801561091957600080fd5b506103f361206b565b34801561092e57600080fd5b506103ce61093d36600461554f565b61207a565b34801561094e57600080fd5b506104e261095d36600461554f565b61016e60205260009081526040902080546001820154600283015460038401546004850154600586015460068701546007880154600889015460099099015497986001600160a01b0397881698969795969495841694600160a01b90940460ff16938b565b3480156109ce57600080fd5b5061016454610391906001600160a01b031681565b3480156109ef57600080fd5b506103f3612166565b348015610a0457600080fd5b50610440610a1336600461591c565b612397565b348015610a2457600080fd5b5061016054610391906001600160a01b031681565b610440610a4736600461554f565b6123a2565b610440610a5a366004615714565b6126c7565b348015610a6b57600080fd5b5061044061036b366004615955565b348015610a8657600080fd5b5061016754610391906001600160a01b031681565b348015610aa757600080fd5b506103f3610ab636600461554f565b612b8f565b348015610ac757600080fd5b5061057f610ad636600461554f565b6101696020526000908152604090205481565b348015610af557600080fd5b50610440610b0436600461554f565b612e28565b348015610b1557600080fd5b506103ce610b243660046159d5565b6001600160a01b039182166000908152606a6020908152604080832093909416825291909152205460ff1690565b348015610b5e57600080fd5b506103f3610b6d366004615714565b612ecf565b348015610b7e57600080fd5b50610440610b8d3660046156b6565b612fa1565b348015610b9e57600080fd5b50610440610bad3660046156b6565b613017565b348015610bbe57600080fd5b50610440610bcd366004615714565b6130ac565b348015610bde57600080fd5b50610440610bed3660046156b6565b613200565b60006001600160e01b031982166380ac58cd60e01b1480610c2357506001600160e01b03198216635b5e139f60e01b145b80610c3e57506301ffc9a760e01b6001600160e01b03198316145b92915050565b606060658054610c5390615a03565b80601f0160208091040260200160405190810160405280929190818152602001828054610c7f90615a03565b8015610ccc5780601f10610ca157610100808354040283529160200191610ccc565b820191906000526020600020905b815481529060010190602001808311610caf57829003601f168201915b5050505050905090565b6000610ce182613295565b506000908152606960205260409020546001600160a01b031690565b6000610d08826132e5565b9050806001600160a01b0316836001600160a01b03161415610d7b5760405162461bcd60e51b815260206004820152602160248201527f4552433732313a20617070726f76616c20746f2063757272656e74206f776e656044820152603960f91b60648201526084015b60405180910390fd5b336001600160a01b0382161480610d975750610d978133610b24565b610e095760405162461bcd60e51b815260206004820152603d60248201527f4552433732313a20617070726f76652063616c6c6572206973206e6f7420746f60448201527f6b656e206f776e6572206f7220617070726f76656420666f7220616c6c0000006064820152608401610d72565b610e138383613345565b505050565b61015f5460408051808201909152600381526231303160e81b6020820152906001600160a01b03163314610e5f5760405162461bcd60e51b8152600401610d72919061553c565b508051610e7490610163906020840190615418565b5050565b61015f546001600160a01b031633148015610e9b57506001600160a01b03811615155b6040518060400160405280600381526020016231303160e81b81525090610ed55760405162461bcd60e51b8152600401610d72919061553c565b50610161546001600160a01b03828116911614610f095761016180546001600160a01b0319166001600160a01b0383161790555b50565b61015f546001600160a01b03166000612710610f2a846101f4615a54565b610f349190615a73565b90509250929050565b61015f546001600160a01b031633148015610f6057506001600160a01b03811615155b6040518060400160405280600381526020016231303160e81b81525090610f9a5760405162461bcd60e51b8152600401610d72919061553c565b50610165546001600160a01b03828116911614610f095761016580546001600160a01b0383166001600160a01b031990911617905550565b610fda6133ee565b61100081610fe783611647565b6001600160a01b0316336001600160a01b031614613448565b610f09600160fb55565b6040805180820190915260128152711e39b1b934b83a1034b21e93bb30b939939f60711b60208201528061103d84613889565b60405160200161104e929190615a95565b60408051601f19818403018152919052610164549091508190611079906001600160a01b03166138d5565b60405160200161108a929190615ae9565b60408051808303601f19018152908290526101605463bf40fac160e01b835260206004840152602160248401527f535741505f504f4f4c5f474d5f4554485f434f4e54524143545f4144445245536044840152605360f81b60648401529092506001600160a01b031690600090829063bf40fac190608401602060405180830381865afa15801561111f573d6000803e3d6000fd5b505050506040513d601f19601f820116820180604052508101906111439190615b50565b90508261114f826138d5565b604051602001611160929190615b6d565b60405160208183030381529060405292508261117b306138d5565b60405160200161118c929190615be5565b6040516020818303038152906040529250826111a7856138eb565b6040516020016111b8929190615c4c565b6040516020818303038152906040529250826040516020016111da9190615ca4565b6040516020818303038152906040529250505092915050565b610e1383838360405180602001604052806000815250600080fd5b6101675461016454604080513060208083019190915246828401526001600160a01b03948516606083015295841660808201529290911660a083015260c0808301939093528051808303909301835260e09091019052805191012090565b6112746133ee565b61015f5481906001600160a01b0316331415611384576001600160a01b038216600090815261017060205260409020546112ad57600080fd5b6001600160a01b03828116600090815261017060205260409081902054905163a9059cbb60e01b815233600482015260248101919091529082169063a9059cbb906044016020604051808303816000875af1158015611310573d6000803e3d6000fd5b505050506040513d601f19601f820116820180604052508101906113349190615cd1565b6113655760405162461bcd60e51b8152602060048201526002602482015261573160f01b6044820152606401610d72565b6001600160a01b038216600090815261017060205260408120556114a1565b33600090815261016c602090815260408083206001600160a01b03861684529091529020546113b257600080fd5b33600081815261016c602090815260408083206001600160a01b0387811685529252918290205491516323b872dd60e01b8152306004820152602481019390935260448301919091528216906323b872dd906064016020604051808303816000875af1158015611426573d6000803e3d6000fd5b505050506040513d601f19601f8201168201806040525081019061144a9190615cd1565b61147b5760405162461bcd60e51b81526020600482015260026024820152612b9960f11b6044820152606401610d72565b33600090815261016c602090815260408083206001600160a01b03861684529091528120555b50610f09600160fb55565b60006114b782613988565b6040518060400160405280600381526020016232303960e81b815250906114f15760405162461bcd60e51b8152600401610d72919061553c565b5060008281526101686020526040902054600160a01b900460a01b6001600160a01b03191661152257506000919050565b6000828152610168602090815260409182902054915161155d92600160a01b900460a01b91016001600160a01b031991909116815260200190565b604051602081830303815290604052805190602001209050919050565b606060008467ffffffffffffffff811115611597576115976155b4565b6040519080825280602002602001820160405280156115c0578160200160208202803683370190505b5061015f549091506001600160a01b031633146115dc57600080fd5b60005b8581101561163b5760006115f68860008888611b38565b90508083838151811061160b5761160b615cee565b60200260200101818152505062030d405a1015611628575061163b565b508061163381615d04565b9150506115df565b5090505b949350505050565b600090815261016860205260409020546001600160a01b031690565b600061166d6139a6565b61167633613a51565b1061168357506001919050565b506000919050565b60006001600160a01b0382166116f55760405162461bcd60e51b815260206004820152602960248201527f4552433732313a2061646472657373207a65726f206973206e6f7420612076616044820152683634b21037bbb732b960b91b6064820152608401610d72565b506001600160a01b031660009081526068602052604090205490565b611719613ac1565b6117236000613b1c565b565b606060405180606001604052806037815260200161654d6037913961016554604080518082018252600d81526c70356a7340312e352e302e6a7360981b602082015261016054915163bf40fac160e01b81529394506001600160a01b039283169390929190911690600090829063bf40fac1906117c8906004016020808252600f908201526e29a1a924a82a2fa82927ab24a222a960891b604082015260600190565b602060405180830381865afa1580156117e5573d6000803e3d6000fd5b505050506040513d601f19601f820116820180604052508101906118099190615b50565b90506000846001600160a01b031663ba67e64183866040518363ffffffff1660e01b815260040161183b929190615d1f565b602060405180830381865afa158015611858573d6000803e3d6000fd5b505050506040513d601f19601f8201168201806040525081019061187c9190615d43565b9050611889600182615d5c565b905060005b818110156119545761015f5460405163283959d960e21b815260009182916001600160a01b038a81169263a0e56764926118d292909116908b908890600401615d74565b600060405180830381865afa1580156118ef573d6000803e3d6000fd5b505050506040513d6000823e601f3d908101601f191682016040526119179190810190615dd8565b91509150888260405160200161192e929190615e33565b60405160208183030381529060405298505050808061194c90615d04565b91505061188e565b50856040516020016119669190615ca4565b6040516020818303038152906040529550505050505090565b610163805461198d90615a03565b80601f01602080910402602001604051908101604052809291908181526020018280546119b990615a03565b8015611a065780601f106119db57610100808354040283529160200191611a06565b820191906000526020600020905b8154815290600101906020018083116119e957829003601f168201915b505050505081565b61015f546001600160a01b031633148015611a3157506001600160a01b03811615155b6040518060400160405280600381526020016231303160e81b81525090611a6b5760405162461bcd60e51b8152600401610d72919061553c565b5061015f546001600160a01b03828116911614610f095761015f80546001600160a01b0383166001600160a01b031990911617905550565b61015f546001600160a01b031633148015611ac657506001600160a01b03811615155b6040518060400160405280600381526020016231303160e81b81525090611b005760405162461bcd60e51b8152600401610d72919061553c565b50610164546001600160a01b03828116911614610f095761016480546001600160a01b0383166001600160a01b031990911617905550565b6000611b426133ee565b6101665461016254106040518060400160405280600381526020016232303360e81b81525090611b855760405162461bcd60e51b8152600401610d72919061553c565b5061015f546001600160a01b03163314611cc557336001600160a01b03861614611bd95760405162461bcd60e51b815260206004820152600560248201526447505f495560d81b6044820152606401610d72565b611be28561168b565b15611c155760405162461bcd60e51b8152602060048201526003602482015262312d3160e81b6044820152606401610d72565b6001600160a01b038516600090815261016a602052604090205415611c605760405162461bcd60e51b81526020600482015260016024820152604d60f81b6044820152606401610d72565b611ca1858585858080601f016020809104026020016040519081016040528093929190818152602001838380828437600092019190915250613b6f92505050565b50506001600160a01b038516600090815261016a6020526040902060019055611d80565b61015f546001600160a01b03868116911614611d8057611ce48561168b565b15611d175760405162461bcd60e51b8152602060048201526003602482015262312d3160e81b6044820152606401610d72565b6001600160a01b038516600090815261016a602052604090205415611d625760405162461bcd60e51b81526020600482015260016024820152604d60f81b6044820152606401610d72565b6001600160a01b038516600090815261016a60205260409020600190555b6101628054906000611d9183615d04565b9190505550610162549050611da68582613be8565b61016154604051631da00d8560e01b8152600481018390526001600160a01b03909116906000908290631da00d85906024016020604051808303816000875af1158015611df7573d6000803e3d6000fd5b505050506040513d601f19601f82011682018060405250810190611e1b9190615d43565b9050611e278382613c02565b505060008181526101696020526040902043905561163f600160fb55565b600054610100900460ff1615808015611e655750600054600160ff909116105b80611e7f5750303b158015611e7f575060005460ff166001145b611ee25760405162461bcd60e51b815260206004820152602e60248201527f496e697469616c697a61626c653a20636f6e747261637420697320616c72656160448201526d191e481a5b9a5d1a585b1a5e995960921b6064820152608401610d72565b6000805460ff191660011790558015611f05576000805461ff0019166101001790555b60408051808201909152600381526203130360ec1b60208201526001600160a01b038816611f465760405162461bcd60e51b8152600401610d72919061553c565b5060408051808201909152600381526203130360ec1b60208201526001600160a01b038716611f885760405162461bcd60e51b8152600401610d72919061553c565b5061016080546001600160a01b03199081166001600160a01b038981169190911790925561015f805482168a841617905561016180548216888416179055610164805482168784161790556103e8610166556101658054821686841617905561016780549091169184169190911790556120028989613ccd565b61200a613cfe565b612012613d2d565b61201a613d5c565b8015612060576000805461ff0019169055604051600181527f7f26b83ff96e1f2b6a682f133852f6798a09c465da95921460cefb38474024989060200160405180910390a15b505050505050505050565b606060668054610c5390615a03565b600061208582613988565b61209157506000919050565b612099613d8b565b600083815261016960205260409020546120b39043615e62565b116120c057506000919050565b61015f546001600160a01b03166120d683611647565b6001600160a01b031614156120ed57506000919050565b306120f783611647565b6001600160a01b0316141561213057600082815261016d6020526040902060050154600160a01b900460ff161561213057506001919050565b600061213a6139a6565b90508061214e61214985611647565b613a51565b101561215d5750600192915050565b50600092915050565b606060405180606001604052806037815260200161654d6037913961016554604080518082018252600f81526e776562336a7340312e322e372e6a7360881b602082015261016054915163bf40fac160e01b81529394506001600160a01b039283169390929190911690600090829063bf40fac19061220b906004016020808252600f908201526e29a1a924a82a2fa82927ab24a222a960891b604082015260600190565b602060405180830381865afa158015612228573d6000803e3d6000fd5b505050506040513d601f19601f8201168201806040525081019061224c9190615b50565b90506000846001600160a01b031663ba67e64183866040518363ffffffff1660e01b815260040161227e929190615d1f565b602060405180830381865afa15801561229b573d6000803e3d6000fd5b505050506040513d601f19601f820116820180604052508101906122bf9190615d43565b90506122cc600182615d5c565b905060005b818110156119545761015f5460405163283959d960e21b815260009182916001600160a01b038a81169263a0e567649261231592909116908b908890600401615d74565b600060405180830381865afa158015612332573d6000803e3d6000fd5b505050506040513d6000823e601f3d908101601f1916820160405261235a9190810190615dd8565b915091508882604051602001612371929190615e33565b60405160208183030381529060405298505050808061238f90615d04565b9150506122d1565b610e74338383613e2d565b6123aa6133ee565b6101605460405163bf40fac160e01b815260206004820152601860248201527729a7aaa62fa0aaa1aa24a7a72fa2a92199182faa27a5a2a760411b60448201526000916001600160a01b03169063bf40fac190606401602060405180830381865afa15801561241d573d6000803e3d6000fd5b505050506040513d601f19601f820116820180604052508101906124419190615b50565b90506001600160a01b0381166124605750610164546001600160a01b03165b604051636eb1769f60e11b8152336004820152306024820152819083906001600160a01b0383169063dd62ed3e90604401602060405180830381865afa1580156124ae573d6000803e3d6000fd5b505050506040513d601f19601f820116820180604052508101906124d29190615d43565b10156125205760405162461bcd60e51b815260206004820152601c60248201527f6e6f7420656e6f75676820616c6c6f7720657263323020746f6b656e000000006044820152606401610d72565b6040516370a0823160e01b815233600482015283906001600160a01b038316906370a0823190602401602060405180830381865afa158015612566573d6000803e3d6000fd5b505050506040513d601f19601f8201168201806040525081019061258a9190615d43565b10156125d15760405162461bcd60e51b81526020600482015260166024820152753737ba1032b737bab3b41032b9319918103a37b5b2b760511b6044820152606401610d72565b6040516323b872dd60e01b8152336004820152306024820152604481018490526001600160a01b038216906323b872dd906064016020604051808303816000875af1158015612624573d6000803e3d6000fd5b505050506040513d601f19601f820116820180604052508101906126489190615cd1565b6126945760405162461bcd60e51b815260206004820152601d60248201527f63616e206e6f74206765742065726332302066726f6d206269646465720000006044820152606401610d72565b5033600090815261016c602090815260408083206001600160a01b0394909416835292905220819055610f09600160fb55565b6126cf6133ee565b6126d882611663565b61270d5760405162461bcd60e51b8152600401610d729060208082526004908201526304e5f43360e41b604082015260600190565b6127163361168b565b1561274c5760405162461bcd60e51b8152602060048201526006602482015265272fa1982f9960d11b6044820152606401610d72565b600082815261016d60205260409020600181015490546001600160a01b039091169083146127b15760405162461bcd60e51b81526020600482015260126024820152713737ba103ab8103337b91030bab1ba34b7b760711b6044820152606401610d72565b600083815261016d602052604090206004015443106128045760405162461bcd60e51b815260206004820152600f60248201526e105d58dd1a5bdb88195e1c1a5c9959608a1b6044820152606401610d72565b33600090815261016c6020908152604080832086845261016d8352818420600101546001600160a01b031684529091529020548211156128865760405162461bcd60e51b815260206004820152601e60248201527f6e6f7420656e6f7567682062616c616e636520657263323020746f6b656e00006044820152606401610d72565b600083815261016f6020908152604080832061016d83528184206009015484528252808320338452909152812054906128bf8285615d5c565b600086815261016d60205260409020600701549091508110156129245760405162461bcd60e51b815260206004820152601f60248201527f4d7573742073656e64206174206c6561737420726573657276655072696365006044820152606401610d72565b600085815261016d60205260409020600881015460029091015460649161294a91615a54565b6129549190615a73565b600086815261016d60205260409020600201546129719190615d5c565b8110156129e8576040805162461bcd60e51b81526020600482015260248101919091527f4d7573742073656e64206d6f7265207468616e206c617374206269642062792060448201527f6d696e426964496e6372656d656e7450657263656e7461676520616d6f756e746064820152608401610d72565b33600090815261016c6020908152604080832088845261016d8352818420600101546001600160a01b0316845290915281208054869290612a2a908490615e62565b9091555050600085815261016f6020908152604080832061016d8084528285206009810154865291845282852033808752908552928520869055898552909252600282018490556005820180546001600160a01b03191690911790556006810154600490910154612a9c904390615e62565b1090508015612ad657600086815261016d6020526040902060060154612ac29043615d5c565b600087815261016d60205260409020600401555b600086815261016d602052604090819020805491517ffd09e259e5c48be16f7dd63468e19266c684a9f3dce3b31881dbc1f909fc0d7c91612b1d9133918a91879190615f0f565b60405180910390a28015612b7b57600086815261016d60205260409081902080546004820154925190927f4c1666cb87ed4fd7706cb19b1e3160612601aca7235c307fe64a11bc8db0f41f92612b7292615f45565b60405180910390a25b50505050610e74600160fb55565b50505050565b6060612b9a82613988565b6040518060400160405280600381526020016232303960e81b81525090612bd45760405162461bcd60e51b8152600401610d72919061553c565b5060405163188687dd60e21b815260048101839052600090309063621a1f7490602401602060405180830381865afa158015612c14573d6000803e3d6000fd5b505050506040513d601f19601f82011682018060405250810190612c389190615d43565b61016054604051637594e11960e11b815260048101839052602481018690529192506001600160a01b031690600090309063eb29c23290604401600060405180830381865afa158015612c8f573d6000803e3d6000fd5b505050506040513d6000823e601f3d908101601f19168201604052612cb79190810190615f5a565b9050612ce181604051602001612ccd9190615fa3565b604051602081830303815290604052613efc565b604051602001612cf19190615fbf565b6040516020818303038152906040529050600081604051602001612d159190615ffd565b60408051601f198184030181528282018252600e83526d109054d157d5549257d51490525560921b6020840152905163349f642f60e11b81529092506000916001600160a01b0386169163693ec85e91612d719160040161553c565b600060405180830381865afa158015612d8e573d6000803e3d6000fd5b505050506040513d6000823e601f3d908101601f19168201604052612db69190810190615f5a565b905080612dc2306138d5565b612dcb896138eb565b612dd488613889565b604051602001612de79493929190616044565b6040516020818303038152906040529050808282604051602001612e0d939291906160c6565b60405160208183030381529060405295505050505050919050565b612e306133ee565b612e398161207a565b612e6e5760405162461bcd60e51b8152600401610d729060208082526004908201526304e5f43360e41b604082015260600190565b612e76613d8b565b60008281526101696020526040902054612e909043615e62565b11612ec65760405162461bcd60e51b81526020600482015260066024820152654e5f43305f3360d01b6044820152606401610d72565b61100081614062565b60408051808201909152600c81526b1e343a36b61f1e3432b0b21f60a11b602082015280612efb611725565b604051602001612f0c929190615e33565b604051602081830303815290604052905080612f26612166565b604051602001612f37929190615e33565b604051602081830303815290604052905080612f53848461100a565b604051602001612f64929190615e33565b604051602081830303815290604052905080610163604051602001612f8a9291906161a4565b604051602081830303815290604052905092915050565b612fa9613ac1565b6001600160a01b03811661300e5760405162461bcd60e51b815260206004820152602660248201527f4f776e61626c653a206e6577206f776e657220697320746865207a65726f206160448201526564647265737360d01b6064820152608401610d72565b610f0981613b1c565b61015f546001600160a01b03163314801561303a57506001600160a01b03811615155b6040518060400160405280600381526020016231303160e81b815250906130745760405162461bcd60e51b8152600401610d72919061553c565b50610167546001600160a01b03828116911614610f095761016780546001600160a01b0383166001600160a01b031990911617905550565b6130b46133ee565b600081815261016e6020526040902060050154600160a01b900460ff166130da57600080fd5b600081815261016e60205260409020600501546001600160a01b031633141561310257600080fd5b600082815261016f60209081526040808320848452825280832033845290915290205461312e57600080fd5b600082815261016f60209081526040808320848452825280832033845282528083205461016c835281842085855261016e8452828520600101546001600160a01b031685529092528220805491929091613189908490615d5c565b9091555050600082815261016f6020908152604080832084845282528083203380855290835281842084905581519081529182019290925290810182905282907f3efeb5ca9b10c05ba2df4bcac38445e4a4e8a996887f004e5036d254c14a98649060600160405180910390a2610e74600160fb55565b61015f546001600160a01b03163314801561322357506001600160a01b03811615155b6040518060400160405280600381526020016231303160e81b8152509061325d5760405162461bcd60e51b8152600401610d72919061553c565b50610160546001600160a01b03828116911614610f095761016080546001600160a01b0383166001600160a01b031990911617905550565b61329e81613988565b610f095760405162461bcd60e51b8152602060048201526018602482015277115490cdcc8c4e881a5b9d985b1a59081d1bdad95b88125160421b6044820152606401610d72565b6000818152606760205260408120546001600160a01b031680610c3e5760405162461bcd60e51b8152602060048201526018602482015277115490cdcc8c4e881a5b9d985b1a59081d1bdad95b88125160421b6044820152606401610d72565b600081815260696020526040902080546001600160a01b0319166001600160a01b038416908117909155819061337a826132e5565b6001600160a01b03167f8c5be1e5ebec7d5bd14f71427d1e84f3dd0314c0f7b2291e5b200ac8c7c3b92560405160405180910390a45050565b6133be838383614716565b60009081526101686020526040902080546001600160a01b0319166001600160a01b039290921691909117905550565b600260fb5414156134415760405162461bcd60e51b815260206004820152601f60248201527f5265656e7472616e637947756172643a207265656e7472616e742063616c6c006044820152606401610d72565b600260fb55565b600082815261016d602052604090206003015461349e5760405162461bcd60e51b815260206004820152601460248201527320bab1ba34b7b7103430b9b713ba103132b3bab760611b6044820152606401610d72565b600082815261016d6020526040902060050154600160a01b900460ff16156135085760405162461bcd60e51b815260206004820181905260248201527f41756374696f6e2068617320616c7265616479206265656e20736574746c65646044820152606401610d72565b600082815261016d602052604090206004015443101561356a5760405162461bcd60e51b815260206004820152601860248201527f41756374696f6e206861736e277420636f6d706c6574656400000000000000006044820152606401610d72565b600082815261016d602081815260408084206003810185905560058082018054600160a01b60ff60a01b1991821681178355600990940154885261016e865293872090910180549093169091179091559285905252546001600160a01b03161561362457600082815261016d60205260409020600501546135f3906001600160a01b031661168b565b61362457600082815261016d60205260409020600581015490546136249130916001600160a01b03909116906133b3565b600082815261016d60205260409020600201541561381e576101605460405163bf40fac160e01b815260206004820152601c60248201527f534f554c5f41554354494f4e5f474d5f44414f5f54726561737572790000000060448201526000916001600160a01b03169063bf40fac190606401602060405180830381865afa1580156136b4573d6000803e3d6000fd5b505050506040513d601f19601f820116820180604052508101906136d89190615b50565b90506001600160a01b0381166136ed57600080fd5b600083815261016d602052604081206002015461271090613710906103e8615a54565b61371a9190615a73565b600085815261016d6020526040902060018101546002909101549192506001600160a01b03169063a9059cbb908490613754908590615e62565b6040516001600160e01b031960e085901b1681526001600160a01b03909216600483015260248201526044016020604051808303816000875af115801561379f573d6000803e3d6000fd5b505050506040513d601f19601f820116820180604052508101906137c39190615cd1565b50600084815261016d602090815260408083206001810180546001600160a01b03908116865261017085528386209690965588855261016f845282852060099092015485529083528184209054909416835292905290812055505b600082815261016d602052604090819020805460058201546002830154935191937f727cff623966c8adc61ac68940e8c898c04ff7ced5d69d9735d51f0589daf53293613876936001600160a01b0390931692616255565b60405180910390a25050565b600160fb55565b606061389482614887565b6138a1608084901b614887565b60405161060f60f31b6020820152602281019290925260428201526062016040516020818303038152906040529050919050565b6060610c3e6001600160a01b0383166014614a39565b606060006138f883614bdc565b600101905060008167ffffffffffffffff811115613918576139186155b4565b6040519080825280601f01601f191660200182016040528015613942576020820181803683370190505b5090508181016020015b600019016f181899199a1a9b1b9c1cb0b131b232b360811b600a86061a8153600a850494508461397b57613980565b61394c565b509392505050565b600090815261016860205260409020546001600160a01b0316151590565b61016054604051636d12dce160e01b815260206004820152601160248201527014d3d55317d1d357d512149154d213d311607a1b604482015260009182916001600160a01b0390911690636d12dce190606401602060405180830381865afa158015613a16573d6000803e3d6000fd5b505050506040513d601f19601f82011682018060405250810190613a3a9190615d43565b905080613a4c5750670de0b6b3a76400005b919050565b610164546040516370a0823160e01b81526001600160a01b03838116600483015260009216906370a0823190602401602060405180830381865afa158015613a9d573d6000803e3d6000fd5b505050506040513d601f19601f82011682018060405250810190610c3e9190615d43565b61012d546001600160a01b031633146117235760405162461bcd60e51b815260206004820181905260248201527f4f776e61626c653a2063616c6c6572206973206e6f7420746865206f776e65726044820152606401610d72565b61012d80546001600160a01b038381166001600160a01b0319831681179093556040519116919082907f8be0079c531659141344cd1fd0a4f28419497f9722a3daafe3b4186f6b6457e090600090a35050565b6000806000613b7e868661120e565b90506000613b94613b8e83614cb4565b86614cef565b610167549091506001600160a01b03808316911614613bdd5760405162461bcd60e51b815260206004820152600560248201526447505f4e4160d81b6044820152606401610d72565b969095509350505050565b610e74828260405180602001604052806000815250614d0b565b60008281526101686020908152604091829020548251808401909352600383526219181b60e91b91830191909152600160a01b900460a01b6001600160a01b03191615613c625760405162461bcd60e51b8152600401610d72919061553c565b5060408051808201909152600381526232303760e81b602082015281613c9b5760405162461bcd60e51b8152600401610d72919061553c565b5060009182526101686020526040909120805460a09290921c600160a01b026001600160a01b03909216919091179055565b600054610100900460ff16613cf45760405162461bcd60e51b8152600401610d729061627a565b610e748282614d3e565b600054610100900460ff16613d255760405162461bcd60e51b8152600401610d729061627a565b611723614d8c565b600054610100900460ff16613d545760405162461bcd60e51b8152600401610d729061627a565b611723614db3565b600054610100900460ff16613d835760405162461bcd60e51b8152600401610d729061627a565b611723614de6565b61016054604051636d12dce160e01b815260206004820152600f60248201526e534f554c5f474d5f5245534552564560881b604482015260009182916001600160a01b0390911690636d12dce190606401602060405180830381865afa158015613df9573d6000803e3d6000fd5b505050506040513d601f19601f82011682018060405250810190613e1d9190615d43565b905080613a4c57506103f0919050565b816001600160a01b0316836001600160a01b03161415613e8f5760405162461bcd60e51b815260206004820152601960248201527f4552433732313a20617070726f766520746f2063616c6c6572000000000000006044820152606401610d72565b6001600160a01b038381166000818152606a6020908152604080832094871680845294825291829020805460ff191686151590811790915591519182527f17307eab39ab6107e8899845ad3d59bd9653f200f220920489ca2b5937696c31910160405180910390a3505050565b6060815160001415613f1c57505060408051602081019091526000815290565b600060405180606001604052806040815260200161650d6040913990506000600384516002613f4b9190615d5c565b613f559190615a73565b613f60906004615a54565b90506000613f6f826020615d5c565b67ffffffffffffffff811115613f8757613f876155b4565b6040519080825280601f01601f191660200182016040528015613fb1576020820181803683370190505b509050818152600183018586518101602084015b8183101561401d576003830192508251603f8160121c168501518253600182019150603f81600c1c168501518253600182019150603f8160061c168501518253600182019150603f8116850151825350600101613fc5565b600389510660018114614037576002811461404857614054565b613d3d60f01b600119830152614054565b603d60f81b6000198301525b509398975050505050505050565b61406b81613988565b61407457600080fd5b600081815261016d6020526040902060050154600160a01b900460ff16806140a95750600081815261016d6020526040902054155b61411b5760405162461bcd60e51b815260206004820152603860248201527f41756374696f6e2068617320616c7265616479206265656e20736574746c656460448201527f206f72203173742041756374696f6e206f6620746f6b656e00000000000000006064820152608401610d72565b436000614126613d8b565b6141309083615d5c565b610160805460408051928301815260006020808501829052848301829052606085018290526080850182905260a0850182905260c0850182905260e0850182905261010085018290526101208501829052610140850191909152878452905163bf40fac160e01b81526004810191909152601860248201527729a7aaa62fa0aaa1aa24a7a72fa2a92199182faa27a5a2a760411b60448201529293506001600160a01b031691829063bf40fac190606401602060405180830381865afa1580156141fe573d6000803e3d6000fd5b505050506040513d601f19601f820116820180604052508101906142229190615b50565b6001600160a01b03166020820181905261424957610164546001600160a01b031660208201525b60006040828101829052606083018690526080830185905260a0830182905260c083019190915251636d12dce160e01b815260206004820152601860248201527f534f554c5f41554354494f4e5f54494d455f425546464552000000000000000060448201526001600160a01b03831690636d12dce190606401602060405180830381865afa1580156142e0573d6000803e3d6000fd5b505050506040513d601f19601f820116820180604052508101906143049190615d43565b60e0820152604051636d12dce160e01b815260206004820152601a60248201527f534f554c5f41554354494f4e5f524553455256455f505249434500000000000060448201526001600160a01b03831690636d12dce190606401602060405180830381865afa15801561437b573d6000803e3d6000fd5b505050506040513d601f19601f8201168201806040525081019061439f9190615d43565b610100820152604051636d12dce160e01b815260206004820152602560248201527f534f554c5f41554354494f4e5f4d494e5f4249445f494e4352454153455f50456044820152641490d1539560da1b60648201526001600160a01b03831690636d12dce190608401602060405180830381865afa158015614425573d6000803e3d6000fd5b505050506040513d601f19601f820116820180604052508101906144499190615d43565b61012082015261016b805490600061446083615d04565b919050555061447161016b546138eb565b61447e82606001516138eb565b61448b83608001516138eb565b614494886138eb565b6040516020016144a79493929190616317565b60405160208183030381529060405280519060200120816101400181815250508061016d60008781526020019081526020016000206000820151816000015560208201518160010160006101000a8154816001600160a01b0302191690836001600160a01b0316021790555060408201518160020155606082015181600301556080820151816004015560a08201518160050160006101000a8154816001600160a01b0302191690836001600160a01b0316021790555060c08201518160050160146101000a81548160ff02191690831515021790555060e082015181600601556101008201518160070155610120820151816008015561014082015181600901559050508061016e600083610140015181526020019081526020016000206000820151816000015560208201518160010160006101000a8154816001600160a01b0302191690836001600160a01b0316021790555060408201518160020155606082015181600301556080820151816004015560a08201518160050160006101000a8154816001600160a01b0302191690836001600160a01b0316021790555060c08201518160050160146101000a81548160ff02191690831515021790555060e08201518160060155610100820151816007015561012082015181600801556101408201518160090155905050306001600160a01b03166146a986611647565b6001600160a01b0316146146ca576146ca6146c386611647565b30876133b3565b847fb404e07dbfe9071da655c32567071b2ee4e88867784a1b39f01a8457787e504f8585338561014001518660405161470795949392919061636e565b60405180910390a25050505050565b826001600160a01b0316614729826132e5565b6001600160a01b03161461474f5760405162461bcd60e51b8152600401610d7290616440565b6001600160a01b0382166147b15760405162461bcd60e51b8152602060048201526024808201527f4552433732313a207472616e7366657220746f20746865207a65726f206164646044820152637265737360e01b6064820152608401610d72565b6147be8383836001614f11565b826001600160a01b03166147d1826132e5565b6001600160a01b0316146147f75760405162461bcd60e51b8152600401610d7290616440565b600081815260696020908152604080832080546001600160a01b03199081169091556001600160a01b0387811680865260688552838620805460001901905590871680865283862080546001019055868652606790945282852080549092168417909155905184937fddf252ad1be2c89b69c2b068fc378daa952ba7f163c4a11628f55a4df523b3ef91a4505050565b7aff00000000000000ff00000000000000ff00000000000000ff00006bffffffff0000000000000000604083901c90811663ffffffff60c01b84161760201c63ffffffff60601b919091166001600160e01b031984161717601081901c9182167eff00000000000000ff00000000000000ff00000000000000ff000000000000821617600890811c7bff00000000000000ff00000000000000ff00000000000000ff000000939093167fff00000000000000ff00000000000000ff00000000000000ff000000000000009290921691909117919091179081901c7e0f000f000f000f000f000f000f000f000f000f000f000f000f000f000f000f167f0f000f000f000f000f000f000f000f000f000f000f000f000f000f000f000f00600492831c1617906149d5827f0606060606060606060606060606060606060606060606060606060606060606615d5c565b901c7f0f0f0f0f0f0f0f0f0f0f0f0f0f0f0f0f0f0f0f0f0f0f0f0f0f0f0f0f0f0f0f0f166007614a059190615a54565b614a2f827f3030303030303030303030303030303030303030303030303030303030303030615d5c565b610c3e9190615d5c565b60606000614a48836002615a54565b614a53906002615d5c565b67ffffffffffffffff811115614a6b57614a6b6155b4565b6040519080825280601f01601f191660200182016040528015614a95576020820181803683370190505b509050600360fc1b81600081518110614ab057614ab0615cee565b60200101906001600160f81b031916908160001a905350600f60fb1b81600181518110614adf57614adf615cee565b60200101906001600160f81b031916908160001a9053506000614b03846002615a54565b614b0e906001615d5c565b90505b6001811115614b86576f181899199a1a9b1b9c1cb0b131b232b360811b85600f1660108110614b4257614b42615cee565b1a60f81b828281518110614b5857614b58615cee565b60200101906001600160f81b031916908160001a90535060049490941c93614b7f81616485565b9050614b11565b508315614bd55760405162461bcd60e51b815260206004820181905260248201527f537472696e67733a20686578206c656e67746820696e73756666696369656e746044820152606401610d72565b9392505050565b60008072184f03e93ff9f4daa797ed6e38ed64bf6a1f0160401b8310614c1b5772184f03e93ff9f4daa797ed6e38ed64bf6a1f0160401b830492506040015b6d04ee2d6d415b85acef81000000008310614c47576d04ee2d6d415b85acef8100000000830492506020015b662386f26fc100008310614c6557662386f26fc10000830492506010015b6305f5e1008310614c7d576305f5e100830492506008015b6127108310614c9157612710830492506004015b60648310614ca3576064830492506002015b600a8310610c3e5760010192915050565b6040517f19457468657265756d205369676e6564204d6573736167653a0a3332000000006020820152603c8101829052600090605c0161155d565b6000806000614cfe8585614f84565b9150915061398081614fca565b614d158383615118565b614d226000848484614e16565b610e135760405162461bcd60e51b8152600401610d72906162c5565b600054610100900460ff16614d655760405162461bcd60e51b8152600401610d729061627a565b8151614d78906065906020850190615418565b508051610e13906066906020840190615418565b600054610100900460ff166138825760405162461bcd60e51b8152600401610d729061627a565b600054610100900460ff16614dda5760405162461bcd60e51b8152600401610d729061627a565b6097805460ff19169055565b600054610100900460ff16614e0d5760405162461bcd60e51b8152600401610d729061627a565b61172333613b1c565b60006001600160a01b0384163b15614f0957604051630a85bd0160e11b81526001600160a01b0385169063150b7a0290614e5a90339089908890889060040161649c565b6020604051808303816000875af1925050508015614e95575060408051601f3d908101601f19168201909252614e92918101906164d9565b60015b614eef573d808015614ec3576040519150601f19603f3d011682016040523d82523d6000602084013e614ec8565b606091505b508051614ee75760405162461bcd60e51b8152600401610d72906162c5565b805181602001fd5b6001600160e01b031916630a85bd0160e11b14905061163f565b50600161163f565b614f1d84848484615151565b60975460ff1615612b895760405162461bcd60e51b815260206004820152602b60248201527f4552433732315061757361626c653a20746f6b656e207472616e73666572207760448201526a1a1a5b19481c185d5cd95960aa1b6064820152608401610d72565b600080825160411415614fbb5760208301516040840151606085015160001a614faf878285856151d9565b94509450505050614fc3565b506000905060025b9250929050565b6000816004811115614fde57614fde6164f6565b1415614fe75750565b6001816004811115614ffb57614ffb6164f6565b14156150495760405162461bcd60e51b815260206004820152601860248201527f45434453413a20696e76616c6964207369676e617475726500000000000000006044820152606401610d72565b600281600481111561505d5761505d6164f6565b14156150ab5760405162461bcd60e51b815260206004820152601f60248201527f45434453413a20696e76616c6964207369676e6174757265206c656e677468006044820152606401610d72565b60038160048111156150bf576150bf6164f6565b1415610f095760405162461bcd60e51b815260206004820152602260248201527f45434453413a20696e76616c6964207369676e6174757265202773272076616c604482015261756560f01b6064820152608401610d72565b615122828261529d565b60009081526101686020526040902080546001600160a01b0319166001600160a01b0392909216919091179055565b6001811115612b89576001600160a01b03841615615197576001600160a01b03841660009081526068602052604081208054839290615191908490615e62565b90915550505b6001600160a01b03831615612b89576001600160a01b038316600090815260686020526040812080548392906151ce908490615d5c565b909155505050505050565b6000807f7fffffffffffffffffffffffffffffff5d576e7357a4501ddfe92f46681b20a08311156152105750600090506003615294565b6040805160008082526020820180845289905260ff881692820192909252606081018690526080810185905260019060a0016020604051602081039080840390855afa158015615264573d6000803e3d6000fd5b5050604051601f1901519150506001600160a01b03811661528d57600060019250925050615294565b9150600090505b94509492505050565b6001600160a01b0382166152f35760405162461bcd60e51b815260206004820181905260248201527f4552433732313a206d696e7420746f20746865207a65726f20616464726573736044820152606401610d72565b6152fc81613988565b156153495760405162461bcd60e51b815260206004820152601c60248201527f4552433732313a20746f6b656e20616c7265616479206d696e746564000000006044820152606401610d72565b615357600083836001614f11565b61536081613988565b156153ad5760405162461bcd60e51b815260206004820152601c60248201527f4552433732313a20746f6b656e20616c7265616479206d696e746564000000006044820152606401610d72565b6001600160a01b038216600081815260686020908152604080832080546001019055848352606790915280822080546001600160a01b0319168417905551839291907fddf252ad1be2c89b69c2b068fc378daa952ba7f163c4a11628f55a4df523b3ef908290a45050565b82805461542490615a03565b90600052602060002090601f016020900481019282615446576000855561548c565b82601f1061545f57805160ff191683800117855561548c565b8280016001018555821561548c579182015b8281111561548c578251825591602001919060010190615471565b5061549892915061549c565b5090565b5b80821115615498576000815560010161549d565b6001600160e01b031981168114610f0957600080fd5b6000602082840312156154d957600080fd5b8135614bd5816154b1565b60005b838110156154ff5781810151838201526020016154e7565b83811115612b895750506000910152565b600081518084526155288160208601602086016154e4565b601f01601f19169290920160200192915050565b602081526000614bd56020830184615510565b60006020828403121561556157600080fd5b5035919050565b6001600160a01b0381168114610f0957600080fd5b8035613a4c81615568565b6000806040838503121561559b57600080fd5b82356155a681615568565b946020939093013593505050565b634e487b7160e01b600052604160045260246000fd5b604051601f8201601f1916810167ffffffffffffffff811182821017156155f3576155f36155b4565b604052919050565b600067ffffffffffffffff821115615615576156156155b4565b50601f01601f191660200190565b6000615636615631846155fb565b6155ca565b905082815283838301111561564a57600080fd5b828260208301376000602084830101529392505050565b600082601f83011261567257600080fd5b614bd583833560208501615623565b60006020828403121561569357600080fd5b813567ffffffffffffffff8111156156aa57600080fd5b61163f84828501615661565b6000602082840312156156c857600080fd5b8135614bd581615568565b6000806000606084860312156156e857600080fd5b83356156f381615568565b9250602084013561570381615568565b929592945050506040919091013590565b6000806040838503121561572757600080fd5b50508035926020909101359150565b60008060006060848603121561574b57600080fd5b8335925060208401359150604084013561576481615568565b809150509250925092565b6000806000806060858703121561578557600080fd5b843561579081615568565b935060208501359250604085013567ffffffffffffffff808211156157b457600080fd5b818701915087601f8301126157c857600080fd5b8135818111156157d757600080fd5b8860208285010111156157e957600080fd5b95989497505060200194505050565b6020808252825182820181905260009190848201906040850190845b8181101561583057835183529284019291840191600101615814565b50909695505050505050565b600080600080600080600080610100898b03121561585957600080fd5b883567ffffffffffffffff8082111561587157600080fd5b61587d8c838d01615661565b995060208b013591508082111561589357600080fd5b506158a08b828c01615661565b97505060408901356158b181615568565b955060608901356158c181615568565b945060808901356158d181615568565b935060a08901356158e181615568565b925060c08901356158f181615568565b91506158ff60e08a0161557d565b90509295985092959890939650565b8015158114610f0957600080fd5b6000806040838503121561592f57600080fd5b823561593a81615568565b9150602083013561594a8161590e565b809150509250929050565b6000806000806080858703121561596b57600080fd5b843561597681615568565b9350602085013561598681615568565b925060408501359150606085013567ffffffffffffffff8111156159a957600080fd5b8501601f810187136159ba57600080fd5b6159c987823560208401615623565b91505092959194509250565b600080604083850312156159e857600080fd5b82356159f381615568565b9150602083013561594a81615568565b600181811c90821680615a1757607f821691505b60208210811415615a3857634e487b7160e01b600052602260045260246000fd5b50919050565b634e487b7160e01b600052601160045260246000fd5b6000816000190483118215151615615a6e57615a6e615a3e565b500290565b600082615a9057634e487b7160e01b600052601260045260246000fd5b500490565b60008351615aa78184602088016154e4565b696c657420736565643d2760b01b9083019081528351615ace81600a8401602088016154e4565b61273b60f01b600a9290910191820152600c01949350505050565b60008351615afb8184602088016154e4565b7f6c657420474d5f434f4e54524143545f414444524553533d27000000000000009083019081528351615b358160198401602088016154e4565b61273b60f01b60199290910191820152601b01949350505050565b600060208284031215615b6257600080fd5b8151614bd581615568565b60008351615b7f8184602088016154e4565b80830190507f6c657420535741505f504f4f4c5f474d5f4554485f434f4e54524143545f414481526644524553533d2760c81b60208201528351615bca8160278401602088016154e4565b61273b60f01b60279290910191820152602901949350505050565b60008351615bf78184602088016154e4565b7f6c657420736f6c617269734e6674436f6e7472616374416464726573733d27009083019081528351615c3181601f8401602088016154e4565b61273b60f01b601f9290910191820152602101949350505050565b60008351615c5e8184602088016154e4565b6d6c657420544f4b454e5f49443d2760901b9083019081528351615c8981600e8401602088016154e4565b61273b60f01b600e9290910191820152601001949350505050565b60008251615cb68184602087016154e4565b681e17b9b1b934b83a1f60b91b920191825250600901919050565b600060208284031215615ce357600080fd5b8151614bd58161590e565b634e487b7160e01b600052603260045260246000fd5b6000600019821415615d1857615d18615a3e565b5060010190565b6001600160a01b038316815260406020820181905260009061163f90830184615510565b600060208284031215615d5557600080fd5b5051919050565b60008219821115615d6f57615d6f615a3e565b500190565b6001600160a01b0384168152606060208201819052600090615d9890830185615510565b9050826040830152949350505050565b6000615db6615631846155fb565b9050828152838383011115615dca57600080fd5b614bd58360208301846154e4565b60008060408385031215615deb57600080fd5b825167ffffffffffffffff811115615e0257600080fd5b8301601f81018513615e1357600080fd5b615e2285825160208401615da8565b925050602083015190509250929050565b60008351615e458184602088016154e4565b835190830190615e598183602088016154e4565b01949350505050565b600082821015615e7457615e74615a3e565b500390565b8054825260018101546001600160a01b03166001600160a01b03811660208401525060028101546040830152600381015460608301526004810154608083015260058101546001600160a01b03811660a0840152615ee160c0840160ff8360a01c1615159052565b50600681015460e0830152600781015461010083015260088101546101208301526009015461014090910152565b6001600160a01b03851681526020810184905282151560408201526101c08101615f3c6060830184615e79565b95945050505050565b8281526101808101614bd56020830184615e79565b600060208284031215615f6c57600080fd5b815167ffffffffffffffff811115615f8357600080fd5b8201601f81018413615f9457600080fd5b61163f84825160208401615da8565b60008251615fb58184602087016154e4565b9190910192915050565b7519185d184e9d195e1d0bda1d1b5b0ed8985cd94d8d0b60521b815260008251615ff08160168501602087016154e4565b9190910160160192915050565b7216101130b734b6b0ba34b7b72fbab936111d1160691b8152815160009061602c8160138501602087016154e4565b601160f91b6013939091019283015250601401919050565b60008551616056818460208a016154e4565b8083019050602f60f81b8082528651616076816001850160208b016154e4565b600192019182015284516160918160028401602089016154e4565b653f736565643d60d01b6002929091019182015283516160b88160088401602088016154e4565b016008019695505050505050565b7f7b226e616d65223a22222c226465736372697074696f6e223a2022220000000081526b16101134b6b0b3b2911d101160a11b601c82015283516000906161148160288501602089016154e4565b6e1331b0b83a3ab9329e9b181818181160891b60289184019182015284516161438160378401602089016154e4565b7016101130ba3a3934b13aba32b9911d101160791b6037929091019182015283516161758160488401602088016154e4565b6a1331b0b83a3ab9329e981160a91b60489290910191820152607d60f81b605382015260540195945050505050565b6000835160206161b782858389016154e4565b845491840191600090600181811c90808316806161d557607f831692505b8583108114156161f357634e487b7160e01b85526022600452602485fd5b808015616207576001811461621857616245565b60ff19851688528388019550616245565b60008b81526020902060005b8581101561623d5781548a820152908401908801616224565b505083880195505b50939a9950505050505050505050565b6001600160a01b0384168152602081018390526101a0810161163f6040830184615e79565b6020808252602b908201527f496e697469616c697a61626c653a20636f6e7472616374206973206e6f74206960408201526a6e697469616c697a696e6760a81b606082015260800190565b60208082526032908201527f4552433732313a207472616e7366657220746f206e6f6e20455243373231526560408201527131b2b4bb32b91034b6b83632b6b2b73a32b960711b606082015260800190565b60008551616329818460208a016154e4565b85519083019061633d818360208a016154e4565b85519101906163508183602089016154e4565b84519101906163638183602088016154e4565b019695505050505050565b85815260208082018690526001600160a01b038516604083015260608201849052825160808301528201516101e08201906163b460a08401826001600160a01b03169052565b50604083015160c0830152606083015160e08301526080830151610100818185015260a085015191506101206163f4818601846001600160a01b03169052565b60c0860151925061014061640b8187018515159052565b60e0870151610160870152918601516101808601528501516101a0850152909301516101c09092019190915295945050505050565b60208082526025908201527f4552433732313a207472616e736665722066726f6d20696e636f72726563742060408201526437bbb732b960d91b606082015260800190565b60008161649457616494615a3e565b506000190190565b6001600160a01b03858116825284166020820152604081018390526080606082018190526000906164cf90830184615510565b9695505050505050565b6000602082840312156164eb57600080fd5b8151614bd5816154b1565b634e487b7160e01b600052602160045260246000fdfe4142434445464748494a4b4c4d4e4f505152535455565758595a6162636465666768696a6b6c6d6e6f707172737475767778797a303132333435363738392b2f3c7363726970742073616e64626f783d27616c6c6f772d736372697074732720747970653d27746578742f6a617661736372697074273ea264697066735822122077ab607df07efc86cf469fc6945661ed4eaa8bea5a7647e5714b4be81fb78f1564736f6c634300080c0033",
  "linkReferences": {},
  "deployedLinkReferences": {}
}