{
  "_format": "hh-sol-artifact-1",
  "contractName": "SOUL",
  "sourceName": "contracts/nfts/SOUL.sol",
  "abi": [
    {
      "anonymous": false,
      "inputs": [
        {
          "indexed": true,
          "internalType": "address",
          "name": "owner",
          "type": "address"
        },
        {
          "indexed": true,
          "internalType": "address",
          "name": "approved",
          "type": "address"
        },
        {
          "indexed": true,
          "internalType": "uint256",
          "name": "tokenId",
          "type": "uint256"
        }
      ],
      "name": "Approval",
      "type": "event"
    },
    {
      "anonymous": false,
      "inputs": [
        {
          "indexed": true,
          "internalType": "address",
          "name": "owner",
          "type": "address"
        },
        {
          "indexed": true,
          "internalType": "address",
          "name": "operator",
          "type": "address"
        },
        {
          "indexed": false,
          "internalType": "bool",
          "name": "approved",
          "type": "bool"
        }
      ],
      "name": "ApprovalForAll",
      "type": "event"
    },
    {
      "anonymous": false,
      "inputs": [
        {
          "indexed": true,
          "internalType": "uint256",
          "name": "tokenId",
          "type": "uint256"
        },
        {
          "indexed": false,
          "internalType": "address",
          "name": "sender",
          "type": "address"
        },
        {
          "indexed": false,
          "internalType": "uint256",
          "name": "value",
          "type": "uint256"
        },
        {
          "indexed": false,
          "internalType": "bool",
          "name": "extended",
          "type": "bool"
        },
        {
          "components": [
            {
              "internalType": "uint256",
              "name": "tokenId",
              "type": "uint256"
            },
            {
              "internalType": "address",
              "name": "erc20Token",
              "type": "address"
            },
            {
              "internalType": "uint256",
              "name": "amount",
              "type": "uint256"
            },
            {
              "internalType": "uint256",
              "name": "startTime",
              "type": "uint256"
            },
            {
              "internalType": "uint256",
              "name": "endTime",
              "type": "uint256"
            },
            {
              "internalType": "address payable",
              "name": "bidder",
              "type": "address"
            },
            {
              "internalType": "bool",
              "name": "settled",
              "type": "bool"
            },
            {
              "internalType": "uint256",
              "name": "timeBuffer",
              "type": "uint256"
            },
            {
              "internalType": "uint256",
              "name": "reservePrice",
              "type": "uint256"
            },
            {
              "internalType": "uint256",
              "name": "minBidIncrementPercentage",
              "type": "uint256"
            },
            {
              "internalType": "bytes32",
              "name": "auctionId",
              "type": "bytes32"
            }
          ],
          "indexed": false,
          "internalType": "struct AuctionHouse.Auction",
          "name": "auction",
          "type": "tuple"
        }
      ],
      "name": "AuctionBid",
      "type": "event"
    },
    {
      "anonymous": false,
      "inputs": [
        {
          "indexed": true,
          "internalType": "uint256",
          "name": "tokenId",
          "type": "uint256"
        },
        {
          "indexed": false,
          "internalType": "address",
          "name": "sender",
          "type": "address"
        },
        {
          "indexed": false,
          "internalType": "uint256",
          "name": "value",
          "type": "uint256"
        },
        {
          "indexed": false,
          "internalType": "bytes32",
          "name": "auctionId",
          "type": "bytes32"
        }
      ],
      "name": "AuctionClaimBid",
      "type": "event"
    },
    {
      "anonymous": false,
      "inputs": [
        {
          "indexed": true,
          "internalType": "uint256",
          "name": "tokenId",
          "type": "uint256"
        }
      ],
      "name": "AuctionClosed",
      "type": "event"
    },
    {
      "anonymous": false,
      "inputs": [
        {
          "indexed": true,
          "internalType": "uint256",
          "name": "tokenId",
          "type": "uint256"
        },
        {
          "indexed": false,
          "internalType": "uint256",
          "name": "startTime",
          "type": "uint256"
        },
        {
          "indexed": false,
          "internalType": "uint256",
          "name": "endTime",
          "type": "uint256"
        },
        {
          "indexed": false,
          "internalType": "address",
          "name": "sender",
          "type": "address"
        },
        {
          "indexed": false,
          "internalType": "bytes32",
          "name": "auctionId",
          "type": "bytes32"
        },
        {
          "components": [
            {
              "internalType": "uint256",
              "name": "tokenId",
              "type": "uint256"
            },
            {
              "internalType": "address",
              "name": "erc20Token",
              "type": "address"
            },
            {
              "internalType": "uint256",
              "name": "amount",
              "type": "uint256"
            },
            {
              "internalType": "uint256",
              "name": "startTime",
              "type": "uint256"
            },
            {
              "internalType": "uint256",
              "name": "endTime",
              "type": "uint256"
            },
            {
              "internalType": "address payable",
              "name": "bidder",
              "type": "address"
            },
            {
              "internalType": "bool",
              "name": "settled",
              "type": "bool"
            },
            {
              "internalType": "uint256",
              "name": "timeBuffer",
              "type": "uint256"
            },
            {
              "internalType": "uint256",
              "name": "reservePrice",
              "type": "uint256"
            },
            {
              "internalType": "uint256",
              "name": "minBidIncrementPercentage",
              "type": "uint256"
            },
            {
              "internalType": "bytes32",
              "name": "auctionId",
              "type": "bytes32"
            }
          ],
          "indexed": false,
          "internalType": "struct AuctionHouse.Auction",
          "name": "auction",
          "type": "tuple"
        }
      ],
      "name": "AuctionCreated",
      "type": "event"
    },
    {
      "anonymous": false,
      "inputs": [
        {
          "indexed": true,
          "internalType": "uint256",
          "name": "tokenId",
          "type": "uint256"
        },
        {
          "indexed": false,
          "internalType": "uint256",
          "name": "endTime",
          "type": "uint256"
        },
        {
          "components": [
            {
              "internalType": "uint256",
              "name": "tokenId",
              "type": "uint256"
            },
            {
              "internalType": "address",
              "name": "erc20Token",
              "type": "address"
            },
            {
              "internalType": "uint256",
              "name": "amount",
              "type": "uint256"
            },
            {
              "internalType": "uint256",
              "name": "startTime",
              "type": "uint256"
            },
            {
              "internalType": "uint256",
              "name": "endTime",
              "type": "uint256"
            },
            {
              "internalType": "address payable",
              "name": "bidder",
              "type": "address"
            },
            {
              "internalType": "bool",
              "name": "settled",
              "type": "bool"
            },
            {
              "internalType": "uint256",
              "name": "timeBuffer",
              "type": "uint256"
            },
            {
              "internalType": "uint256",
              "name": "reservePrice",
              "type": "uint256"
            },
            {
              "internalType": "uint256",
              "name": "minBidIncrementPercentage",
              "type": "uint256"
            },
            {
              "internalType": "bytes32",
              "name": "auctionId",
              "type": "bytes32"
            }
          ],
          "indexed": false,
          "internalType": "struct AuctionHouse.Auction",
          "name": "auction",
          "type": "tuple"
        }
      ],
      "name": "AuctionExtended",
      "type": "event"
    },
    {
      "anonymous": false,
      "inputs": [
        {
          "indexed": false,
          "internalType": "uint256",
          "name": "minBidIncrementPercentage",
          "type": "uint256"
        }
      ],
      "name": "AuctionMinBidIncrementPercentageUpdated",
      "type": "event"
    },
    {
      "anonymous": false,
      "inputs": [
        {
          "indexed": false,
          "internalType": "uint256",
          "name": "reservePrice",
          "type": "uint256"
        }
      ],
      "name": "AuctionReservePriceUpdated",
      "type": "event"
    },
    {
      "anonymous": false,
      "inputs": [
        {
          "indexed": true,
          "internalType": "uint256",
          "name": "tokenId",
          "type": "uint256"
        },
        {
          "indexed": false,
          "internalType": "address",
          "name": "winner",
          "type": "address"
        },
        {
          "indexed": false,
          "internalType": "uint256",
          "name": "amount",
          "type": "uint256"
        },
        {
          "components": [
            {
              "internalType": "uint256",
              "name": "tokenId",
              "type": "uint256"
            },
            {
              "internalType": "address",
              "name": "erc20Token",
              "type": "address"
            },
            {
              "internalType": "uint256",
              "name": "amount",
              "type": "uint256"
            },
            {
              "internalType": "uint256",
              "name": "startTime",
              "type": "uint256"
            },
            {
              "internalType": "uint256",
              "name": "endTime",
              "type": "uint256"
            },
            {
              "internalType": "address payable",
              "name": "bidder",
              "type": "address"
            },
            {
              "internalType": "bool",
              "name": "settled",
              "type": "bool"
            },
            {
              "internalType": "uint256",
              "name": "timeBuffer",
              "type": "uint256"
            },
            {
              "internalType": "uint256",
              "name": "reservePrice",
              "type": "uint256"
            },
            {
              "internalType": "uint256",
              "name": "minBidIncrementPercentage",
              "type": "uint256"
            },
            {
              "internalType": "bytes32",
              "name": "auctionId",
              "type": "bytes32"
            }
          ],
          "indexed": false,
          "internalType": "struct AuctionHouse.Auction",
          "name": "auction",
          "type": "tuple"
        }
      ],
      "name": "AuctionSettled",
      "type": "event"
    },
    {
      "anonymous": false,
      "inputs": [
        {
          "indexed": false,
          "internalType": "uint256",
          "name": "timeBuffer",
          "type": "uint256"
        }
      ],
      "name": "AuctionTimeBufferUpdated",
      "type": "event"
    },
    {
      "anonymous": false,
      "inputs": [
        {
          "indexed": false,
          "internalType": "uint8",
          "name": "version",
          "type": "uint8"
        }
      ],
      "name": "Initialized",
      "type": "event"
    },
    {
      "anonymous": false,
      "inputs": [
        {
          "indexed": true,
          "internalType": "address",
          "name": "previousOwner",
          "type": "address"
        },
        {
          "indexed": true,
          "internalType": "address",
          "name": "newOwner",
          "type": "address"
        }
      ],
      "name": "OwnershipTransferred",
      "type": "event"
    },
    {
      "anonymous": false,
      "inputs": [
        {
          "indexed": false,
          "internalType": "address",
          "name": "account",
          "type": "address"
        }
      ],
      "name": "Paused",
      "type": "event"
    },
    {
      "anonymous": false,
      "inputs": [
        {
          "indexed": true,
          "internalType": "address",
          "name": "from",
          "type": "address"
        },
        {
          "indexed": true,
          "internalType": "address",
          "name": "to",
          "type": "address"
        },
        {
          "indexed": true,
          "internalType": "uint256",
          "name": "tokenId",
          "type": "uint256"
        }
      ],
      "name": "Transfer",
      "type": "event"
    },
    {
      "anonymous": false,
      "inputs": [
        {
          "indexed": false,
          "internalType": "address",
          "name": "user",
          "type": "address"
        },
        {
          "indexed": false,
          "internalType": "uint256",
          "name": "blockNumber",
          "type": "uint256"
        },
        {
          "indexed": false,
          "internalType": "uint256",
          "name": "tokenId",
          "type": "uint256"
        },
        {
          "indexed": false,
          "internalType": "string",
          "name": "featureName",
          "type": "string"
        },
        {
          "indexed": false,
          "internalType": "uint256",
          "name": "balanceGM",
          "type": "uint256"
        }
      ],
      "name": "UnlockFeature",
      "type": "event"
    },
    {
      "anonymous": false,
      "inputs": [
        {
          "indexed": false,
          "internalType": "address",
          "name": "account",
          "type": "address"
        }
      ],
      "name": "Unpaused",
      "type": "event"
    },
    {
      "inputs": [],
      "name": "_admin",
      "outputs": [
        {
          "internalType": "address",
          "name": "",
          "type": "address"
        }
      ],
      "stateMutability": "view",
      "type": "function"
    },
    {
      "inputs": [
        {
          "internalType": "uint256",
          "name": "",
          "type": "uint256"
        }
      ],
      "name": "_auctions",
      "outputs": [
        {
          "internalType": "uint256",
          "name": "tokenId",
          "type": "uint256"
        },
        {
          "internalType": "address",
          "name": "erc20Token",
          "type": "address"
        },
        {
          "internalType": "uint256",
          "name": "amount",
          "type": "uint256"
        },
        {
          "internalType": "uint256",
          "name": "startTime",
          "type": "uint256"
        },
        {
          "internalType": "uint256",
          "name": "endTime",
          "type": "uint256"
        },
        {
          "internalType": "address payable",
          "name": "bidder",
          "type": "address"
        },
        {
          "internalType": "bool",
          "name": "settled",
          "type": "bool"
        },
        {
          "internalType": "uint256",
          "name": "timeBuffer",
          "type": "uint256"
        },
        {
          "internalType": "uint256",
          "name": "reservePrice",
          "type": "uint256"
        },
        {
          "internalType": "uint256",
          "name": "minBidIncrementPercentage",
          "type": "uint256"
        },
        {
          "internalType": "bytes32",
          "name": "auctionId",
          "type": "bytes32"
        }
      ],
      "stateMutability": "view",
      "type": "function"
    },
    {
      "inputs": [
        {
          "internalType": "bytes32",
          "name": "",
          "type": "bytes32"
        }
      ],
      "name": "_auctionsList",
      "outputs": [
        {
          "internalType": "uint256",
          "name": "tokenId",
          "type": "uint256"
        },
        {
          "internalType": "address",
          "name": "erc20Token",
          "type": "address"
        },
        {
          "internalType": "uint256",
          "name": "amount",
          "type": "uint256"
        },
        {
          "internalType": "uint256",
          "name": "startTime",
          "type": "uint256"
        },
        {
          "internalType": "uint256",
          "name": "endTime",
          "type": "uint256"
        },
        {
          "internalType": "address payable",
          "name": "bidder",
          "type": "address"
        },
        {
          "internalType": "bool",
          "name": "settled",
          "type": "bool"
        },
        {
          "internalType": "uint256",
          "name": "timeBuffer",
          "type": "uint256"
        },
        {
          "internalType": "uint256",
          "name": "reservePrice",
          "type": "uint256"
        },
        {
          "internalType": "uint256",
          "name": "minBidIncrementPercentage",
          "type": "uint256"
        },
        {
          "internalType": "bytes32",
          "name": "auctionId",
          "type": "bytes32"
        }
      ],
      "stateMutability": "view",
      "type": "function"
    },
    {
      "inputs": [],
      "name": "_bfs",
      "outputs": [
        {
          "internalType": "address",
          "name": "",
          "type": "address"
        }
      ],
      "stateMutability": "view",
      "type": "function"
    },
    {
      "inputs": [
        {
          "internalType": "uint256",
          "name": "",
          "type": "uint256"
        },
        {
          "internalType": "bytes32",
          "name": "",
          "type": "bytes32"
        },
        {
          "internalType": "address",
          "name": "",
          "type": "address"
        }
      ],
      "name": "_bidderAuctions",
      "outputs": [
        {
          "internalType": "uint256",
          "name": "",
          "type": "uint256"
        }
      ],
      "stateMutability": "view",
      "type": "function"
    },
    {
      "inputs": [
        {
          "internalType": "uint256",
          "name": "",
          "type": "uint256"
        },
        {
          "internalType": "bytes32",
          "name": "",
          "type": "bytes32"
        },
        {
          "internalType": "uint256",
          "name": "",
          "type": "uint256"
        }
      ],
      "name": "_bidderAuctionsList",
      "outputs": [
        {
          "internalType": "address",
          "name": "",
          "type": "address"
        }
      ],
      "stateMutability": "view",
      "type": "function"
    },
    {
      "inputs": [
        {
          "internalType": "address",
          "name": "",
          "type": "address"
        },
        {
          "internalType": "address",
          "name": "",
          "type": "address"
        }
      ],
      "name": "_biddingBalance",
      "outputs": [
        {
          "internalType": "uint256",
          "name": "",
          "type": "uint256"
        }
      ],
      "stateMutability": "view",
      "type": "function"
    },
    {
      "inputs": [
        {
          "internalType": "address",
          "name": "",
          "type": "address"
        }
      ],
      "name": "_coreTeamTreasury",
      "outputs": [
        {
          "internalType": "uint256",
          "name": "",
          "type": "uint256"
        }
      ],
      "stateMutability": "view",
      "type": "function"
    },
    {
      "inputs": [],
      "name": "_dao",
      "outputs": [
        {
          "internalType": "address",
          "name": "",
          "type": "address"
        }
      ],
      "stateMutability": "view",
      "type": "function"
    },
    {
      "inputs": [],
      "name": "_daoBlockReserve",
      "outputs": [
        {
          "internalType": "uint256",
          "name": "",
          "type": "uint256"
        }
      ],
      "stateMutability": "view",
      "type": "function"
    },
    {
      "inputs": [],
      "name": "_daoGMThreshold",
      "outputs": [
        {
          "internalType": "uint256",
          "name": "",
          "type": "uint256"
        }
      ],
      "stateMutability": "view",
      "type": "function"
    },
    {
      "inputs": [
        {
          "internalType": "uint256",
          "name": "",
          "type": "uint256"
        },
        {
          "internalType": "address",
          "name": "",
          "type": "address"
        },
        {
          "internalType": "string",
          "name": "",
          "type": "string"
        }
      ],
      "name": "_features",
      "outputs": [
        {
          "internalType": "bool",
          "name": "",
          "type": "bool"
        }
      ],
      "stateMutability": "view",
      "type": "function"
    },
    {
      "inputs": [],
      "name": "_gmToken",
      "outputs": [
        {
          "internalType": "address",
          "name": "",
          "type": "address"
        }
      ],
      "stateMutability": "view",
      "type": "function"
    },
    {
      "inputs": [
        {
          "internalType": "uint256",
          "name": "",
          "type": "uint256"
        }
      ],
      "name": "_lastSettle",
      "outputs": [
        {
          "internalType": "uint256",
          "name": "",
          "type": "uint256"
        }
      ],
      "stateMutability": "view",
      "type": "function"
    },
    {
      "inputs": [],
      "name": "_maxSupply",
      "outputs": [
        {
          "internalType": "uint256",
          "name": "",
          "type": "uint256"
        }
      ],
      "stateMutability": "view",
      "type": "function"
    },
    {
      "inputs": [
        {
          "internalType": "uint256",
          "name": "",
          "type": "uint256"
        }
      ],
      "name": "_mintAt",
      "outputs": [
        {
          "internalType": "uint256",
          "name": "",
          "type": "uint256"
        }
      ],
      "stateMutability": "view",
      "type": "function"
    },
    {
      "inputs": [
        {
          "internalType": "address",
          "name": "",
          "type": "address"
        }
      ],
      "name": "_minted",
      "outputs": [
        {
          "internalType": "uint256",
          "name": "",
          "type": "uint256"
        }
      ],
      "stateMutability": "view",
      "type": "function"
    },
    {
      "inputs": [
        {
          "internalType": "uint256",
          "name": "",
          "type": "uint256"
        }
      ],
      "name": "_names",
      "outputs": [
        {
          "internalType": "string",
          "name": "",
          "type": "string"
        }
      ],
      "stateMutability": "view",
      "type": "function"
    },
    {
      "inputs": [],
      "name": "_paramsAddress",
      "outputs": [
        {
          "internalType": "address",
          "name": "",
          "type": "address"
        }
      ],
      "stateMutability": "view",
      "type": "function"
    },
    {
      "inputs": [],
      "name": "_randomizerAddr",
      "outputs": [
        {
          "internalType": "address",
          "name": "",
          "type": "address"
        }
      ],
      "stateMutability": "view",
      "type": "function"
    },
    {
      "inputs": [],
      "name": "_script",
      "outputs": [
        {
          "internalType": "string",
          "name": "",
          "type": "string"
        }
      ],
      "stateMutability": "view",
      "type": "function"
    },
    {
      "inputs": [],
      "name": "_signerMint",
      "outputs": [
        {
          "internalType": "address",
          "name": "",
          "type": "address"
        }
      ],
      "stateMutability": "view",
      "type": "function"
    },
    {
      "inputs": [
        {
          "internalType": "address",
          "name": "to",
          "type": "address"
        },
        {
          "internalType": "uint256",
          "name": "tokenId",
          "type": "uint256"
        }
      ],
      "name": "approve",
      "outputs": [],
      "stateMutability": "nonpayable",
      "type": "function"
    },
    {
      "inputs": [
        {
          "internalType": "uint256",
          "name": "tokenId",
          "type": "uint256"
        }
      ],
      "name": "available",
      "outputs": [
        {
          "internalType": "bool",
          "name": "",
          "type": "bool"
        }
      ],
      "stateMutability": "view",
      "type": "function"
    },
    {
      "inputs": [
        {
          "internalType": "address",
          "name": "owner",
          "type": "address"
        }
      ],
      "name": "balanceOf",
      "outputs": [
        {
          "internalType": "uint256",
          "name": "",
          "type": "uint256"
        }
      ],
      "stateMutability": "view",
      "type": "function"
    },
    {
      "inputs": [
        {
          "internalType": "address",
          "name": "walletAddress",
          "type": "address"
        }
      ],
      "name": "biddable",
      "outputs": [
        {
          "internalType": "bool",
          "name": "",
          "type": "bool"
        }
      ],
      "stateMutability": "view",
      "type": "function"
    },
    {
      "inputs": [
        {
          "internalType": "uint256",
          "name": "tokenId",
          "type": "uint256"
        },
        {
          "internalType": "address",
          "name": "user",
          "type": "address"
        },
        {
          "internalType": "string",
          "name": "featureName",
          "type": "string"
        }
      ],
      "name": "canUnlockFeature",
      "outputs": [
        {
          "internalType": "bool",
          "name": "",
          "type": "bool"
        }
      ],
      "stateMutability": "view",
      "type": "function"
    },
    {
      "inputs": [
        {
          "internalType": "address",
          "name": "newAdm",
          "type": "address"
        }
      ],
      "name": "changeAdmin",
      "outputs": [],
      "stateMutability": "nonpayable",
      "type": "function"
    },
    {
      "inputs": [
        {
          "internalType": "address",
          "name": "newBfs",
          "type": "address"
        }
      ],
      "name": "changeBfs",
      "outputs": [],
      "stateMutability": "nonpayable",
      "type": "function"
    },
    {
      "inputs": [
        {
          "internalType": "address",
          "name": "newBrc20",
          "type": "address"
        }
      ],
      "name": "changeBrc20Token",
      "outputs": [],
      "stateMutability": "nonpayable",
      "type": "function"
    },
    {
      "inputs": [
        {
          "internalType": "address",
          "name": "newAddr",
          "type": "address"
        }
      ],
      "name": "changeDao",
      "outputs": [],
      "stateMutability": "nonpayable",
      "type": "function"
    },
    {
      "inputs": [
        {
          "internalType": "uint256",
          "name": "newBlockReserve",
          "type": "uint256"
        }
      ],
      "name": "changeDaoBlockReserve",
      "outputs": [],
      "stateMutability": "nonpayable",
      "type": "function"
    },
    {
      "inputs": [
        {
          "internalType": "uint256",
          "name": "newThreshold",
          "type": "uint256"
        }
      ],
      "name": "changeDaoGmThreshold",
      "outputs": [],
      "stateMutability": "nonpayable",
      "type": "function"
    },
    {
      "inputs": [
        {
          "internalType": "address",
          "name": "newAddr",
          "type": "address"
        }
      ],
      "name": "changeParamAddr",
      "outputs": [],
      "stateMutability": "nonpayable",
      "type": "function"
    },
    {
      "inputs": [
        {
          "internalType": "address",
          "name": "newAddr",
          "type": "address"
        }
      ],
      "name": "changeRandomizerAddr",
      "outputs": [],
      "stateMutability": "nonpayable",
      "type": "function"
    },
    {
      "inputs": [
        {
          "internalType": "string",
          "name": "newScript",
          "type": "string"
        }
      ],
      "name": "changeScript",
      "outputs": [],
      "stateMutability": "nonpayable",
      "type": "function"
    },
    {
      "inputs": [
        {
          "internalType": "address",
          "name": "newAdd",
          "type": "address"
        }
      ],
      "name": "changeSignerMint",
      "outputs": [],
      "stateMutability": "nonpayable",
      "type": "function"
    },
    {
      "inputs": [
        {
          "internalType": "uint256",
          "name": "tokenId",
          "type": "uint256"
        }
      ],
      "name": "createAuction",
      "outputs": [],
      "stateMutability": "nonpayable",
      "type": "function"
    },
    {
      "inputs": [
        {
          "internalType": "uint256",
          "name": "tokenId",
          "type": "uint256"
        },
        {
          "internalType": "uint256",
          "name": "amount",
          "type": "uint256"
        }
      ],
      "name": "createBid",
      "outputs": [],
      "stateMutability": "nonpayable",
      "type": "function"
    },
    {
      "inputs": [
        {
          "internalType": "uint256",
          "name": "amount",
          "type": "uint256"
        }
      ],
      "name": "deposit",
      "outputs": [],
      "stateMutability": "payable",
      "type": "function"
    },
    {
      "inputs": [
        {
          "internalType": "uint256",
          "name": "tokenId",
          "type": "uint256"
        }
      ],
      "name": "getApproved",
      "outputs": [
        {
          "internalType": "address",
          "name": "",
          "type": "address"
        }
      ],
      "stateMutability": "view",
      "type": "function"
    },
    {
      "inputs": [
        {
          "internalType": "address",
          "name": "user",
          "type": "address"
        },
        {
          "internalType": "uint256",
          "name": "totalGM",
          "type": "uint256"
        }
      ],
      "name": "getMessageHash",
      "outputs": [
        {
          "internalType": "bytes32",
          "name": "",
          "type": "bytes32"
        }
      ],
      "stateMutability": "view",
      "type": "function"
    },
    {
      "inputs": [],
      "name": "getSettingFeatures",
      "outputs": [
        {
          "internalType": "string[11]",
          "name": "features",
          "type": "string[11]"
        },
        {
          "internalType": "uint256[11]",
          "name": "balances",
          "type": "uint256[11]"
        },
        {
          "internalType": "uint256[11]",
          "name": "holdTimes",
          "type": "uint256[11]"
        }
      ],
      "stateMutability": "view",
      "type": "function"
    },
    {
      "inputs": [
        {
          "internalType": "string",
          "name": "name",
          "type": "string"
        },
        {
          "internalType": "string",
          "name": "symbol",
          "type": "string"
        },
        {
          "internalType": "address",
          "name": "admin",
          "type": "address"
        },
        {
          "internalType": "address",
          "name": "paramsAddress",
          "type": "address"
        },
        {
          "internalType": "address",
          "name": "randomizerAddr",
          "type": "address"
        },
        {
          "internalType": "address",
          "name": "gmToken",
          "type": "address"
        },
        {
          "internalType": "address",
          "name": "bfs",
          "type": "address"
        },
        {
          "internalType": "address",
          "name": "signerMint",
          "type": "address"
        }
      ],
      "name": "initialize",
      "outputs": [],
      "stateMutability": "nonpayable",
      "type": "function"
    },
    {
      "inputs": [
        {
          "internalType": "address",
          "name": "owner",
          "type": "address"
        },
        {
          "internalType": "address",
          "name": "operator",
          "type": "address"
        }
      ],
      "name": "isApprovedForAll",
      "outputs": [
        {
          "internalType": "bool",
          "name": "",
          "type": "bool"
        }
      ],
      "stateMutability": "view",
      "type": "function"
    },
    {
      "inputs": [
        {
          "internalType": "address",
          "name": "to",
          "type": "address"
        },
        {
          "internalType": "uint256",
          "name": "totalGM",
          "type": "uint256"
        },
        {
          "internalType": "bytes",
          "name": "signature",
          "type": "bytes"
        }
      ],
      "name": "mint",
      "outputs": [
        {
          "internalType": "uint256",
          "name": "tokenId",
          "type": "uint256"
        }
      ],
      "stateMutability": "nonpayable",
      "type": "function"
    },
    {
      "inputs": [],
      "name": "name",
      "outputs": [
        {
          "internalType": "string",
          "name": "",
          "type": "string"
        }
      ],
      "stateMutability": "view",
      "type": "function"
    },
    {
      "inputs": [
        {
          "internalType": "address",
          "name": "",
          "type": "address"
        },
        {
          "internalType": "address",
          "name": "",
          "type": "address"
        },
        {
          "internalType": "uint256",
          "name": "",
          "type": "uint256"
        },
        {
          "internalType": "bytes",
          "name": "",
          "type": "bytes"
        }
      ],
      "name": "onERC721Received",
      "outputs": [
        {
          "internalType": "bytes4",
          "name": "",
          "type": "bytes4"
        }
      ],
      "stateMutability": "pure",
      "type": "function"
    },
    {
      "inputs": [],
      "name": "owner",
      "outputs": [
        {
          "internalType": "address",
          "name": "",
          "type": "address"
        }
      ],
      "stateMutability": "view",
      "type": "function"
    },
    {
      "inputs": [
        {
          "internalType": "uint256",
          "name": "tokenId",
          "type": "uint256"
        }
      ],
      "name": "ownerOf",
      "outputs": [
        {
          "internalType": "address",
          "name": "",
          "type": "address"
        }
      ],
      "stateMutability": "view",
      "type": "function"
    },
    {
      "inputs": [],
      "name": "p5jsScript",
      "outputs": [
        {
          "internalType": "string",
          "name": "result",
          "type": "string"
        }
      ],
      "stateMutability": "view",
      "type": "function"
    },
    {
      "inputs": [],
      "name": "paused",
      "outputs": [
        {
          "internalType": "bool",
          "name": "",
          "type": "bool"
        }
      ],
      "stateMutability": "view",
      "type": "function"
    },
    {
      "inputs": [],
      "name": "renounceOwnership",
      "outputs": [],
      "stateMutability": "nonpayable",
      "type": "function"
    },
    {
      "inputs": [
        {
          "internalType": "uint256",
          "name": "projectId",
          "type": "uint256"
        },
        {
          "internalType": "uint256",
          "name": "_salePrice",
          "type": "uint256"
        }
      ],
      "name": "royaltyInfo",
      "outputs": [
        {
          "internalType": "address",
          "name": "receiver",
          "type": "address"
        },
        {
          "internalType": "uint256",
          "name": "royaltyAmount",
          "type": "uint256"
        }
      ],
      "stateMutability": "view",
      "type": "function"
    },
    {
      "inputs": [
        {
          "internalType": "address",
          "name": "from",
          "type": "address"
        },
        {
          "internalType": "address",
          "name": "to",
          "type": "address"
        },
        {
          "internalType": "uint256",
          "name": "tokenId",
          "type": "uint256"
        }
      ],
      "name": "safeTransferFrom",
      "outputs": [],
      "stateMutability": "nonpayable",
      "type": "function"
    },
    {
      "inputs": [
        {
          "internalType": "address",
          "name": "from",
          "type": "address"
        },
        {
          "internalType": "address",
          "name": "to",
          "type": "address"
        },
        {
          "internalType": "uint256",
          "name": "tokenId",
          "type": "uint256"
        },
        {
          "internalType": "bytes",
          "name": "data",
          "type": "bytes"
        }
      ],
      "name": "safeTransferFrom",
      "outputs": [],
      "stateMutability": "nonpayable",
      "type": "function"
    },
    {
      "inputs": [
        {
          "internalType": "address",
          "name": "operator",
          "type": "address"
        },
        {
          "internalType": "bool",
          "name": "approved",
          "type": "bool"
        }
      ],
      "name": "setApprovalForAll",
      "outputs": [],
      "stateMutability": "nonpayable",
      "type": "function"
    },
    {
      "inputs": [
        {
          "internalType": "uint256",
          "name": "tokenId",
          "type": "uint256"
        },
        {
          "internalType": "string",
          "name": "name",
          "type": "string"
        }
      ],
      "name": "setName",
      "outputs": [],
      "stateMutability": "nonpayable",
      "type": "function"
    },
    {
      "inputs": [
        {
          "internalType": "uint256",
          "name": "tokenId",
          "type": "uint256"
        }
      ],
      "name": "settleAuction",
      "outputs": [],
      "stateMutability": "nonpayable",
      "type": "function"
    },
    {
      "inputs": [
        {
          "internalType": "bytes4",
          "name": "interfaceId",
          "type": "bytes4"
        }
      ],
      "name": "supportsInterface",
      "outputs": [
        {
          "internalType": "bool",
          "name": "",
          "type": "bool"
        }
      ],
      "stateMutability": "view",
      "type": "function"
    },
    {
      "inputs": [],
      "name": "symbol",
      "outputs": [
        {
          "internalType": "string",
          "name": "",
          "type": "string"
        }
      ],
      "stateMutability": "view",
      "type": "function"
    },
    {
      "inputs": [
        {
          "internalType": "bytes32",
          "name": "seed",
          "type": "bytes32"
        },
        {
          "internalType": "uint256",
          "name": "tokenId",
          "type": "uint256"
        }
      ],
      "name": "tokenHTML",
      "outputs": [
        {
          "internalType": "string",
          "name": "result",
          "type": "string"
        }
      ],
      "stateMutability": "view",
      "type": "function"
    },
    {
      "inputs": [
        {
          "internalType": "uint256",
          "name": "tokenId",
          "type": "uint256"
        }
      ],
      "name": "tokenIdToHash",
      "outputs": [
        {
          "internalType": "bytes32",
          "name": "",
          "type": "bytes32"
        }
      ],
      "stateMutability": "view",
      "type": "function"
    },
    {
      "inputs": [
        {
          "internalType": "uint256",
          "name": "tokenId",
          "type": "uint256"
        }
      ],
      "name": "tokenURI",
      "outputs": [
        {
          "internalType": "string",
          "name": "result",
          "type": "string"
        }
      ],
      "stateMutability": "view",
      "type": "function"
    },
    {
      "inputs": [
        {
          "internalType": "address",
          "name": "from",
          "type": "address"
        },
        {
          "internalType": "address",
          "name": "to",
          "type": "address"
        },
        {
          "internalType": "uint256",
          "name": "tokenId",
          "type": "uint256"
        }
      ],
      "name": "transferFrom",
      "outputs": [],
      "stateMutability": "nonpayable",
      "type": "function"
    },
    {
      "inputs": [
        {
          "internalType": "address",
          "name": "newOwner",
          "type": "address"
        }
      ],
      "name": "transferOwnership",
      "outputs": [],
      "stateMutability": "nonpayable",
      "type": "function"
    },
    {
      "inputs": [
        {
          "internalType": "uint256",
          "name": "tokenId",
          "type": "uint256"
        },
        {
          "internalType": "string",
          "name": "featureName",
          "type": "string"
        }
      ],
      "name": "unlockFeature",
      "outputs": [],
      "stateMutability": "nonpayable",
      "type": "function"
    },
    {
      "inputs": [
        {
          "internalType": "bytes32",
          "name": "seed",
          "type": "bytes32"
        },
        {
          "internalType": "uint256",
          "name": "tokenId",
          "type": "uint256"
        }
      ],
      "name": "variableScript",
      "outputs": [
        {
          "internalType": "string",
          "name": "result",
          "type": "string"
        }
      ],
      "stateMutability": "view",
      "type": "function"
    },
    {
      "inputs": [],
      "name": "web3Script",
      "outputs": [
        {
          "internalType": "string",
          "name": "result",
          "type": "string"
        }
      ],
      "stateMutability": "view",
      "type": "function"
    },
    {
      "inputs": [
        {
          "internalType": "address",
          "name": "erc20Addr",
          "type": "address"
        }
      ],
      "name": "withdraw",
      "outputs": [],
      "stateMutability": "nonpayable",
      "type": "function"
    }
  ],
  "bytecode": "0x608060405234801561001057600080fd5b506177a180620000216000396000f3fe6080604052600436106104055760003560e01c80637706233f11610213578063b88d4fde11610123578063dd07662f116100ab578063f2fde38b1161007a578063f2fde38b14610e22578063f3f83ddd14610e42578063fc78569a14610e62578063fe55932a14610e90578063febfd6c314610eb057600080fd5b8063dd07662f14610d78578063e068372614610d98578063e985e9c514610db9578063eb29c23214610e0257600080fd5b8063c5c1b8af116100f2578063c5c1b8af14610cb1578063c87b56dd14610cea578063cc22e00414610d0a578063d5563f3114610d38578063d8826fec14610d5857600080fd5b8063b88d4fde14610c3e578063bd89684314610c59578063bdeb4f2c14610c7a578063bf6e930c14610c9a57600080fd5b806395d89b41116101a6578063a0d41e1111610175578063a0d41e1114610bb5578063a22cb46514610bca578063adfc7dae14610bea578063b6b55f2514610c0b578063b7751c7114610c1e57600080fd5b806395d89b4114610adf57806396e494e814610af45780639a247cb314610b145780639c6f35f914610b9457600080fd5b80638f283970116101e25780638f28397014610a5f57806393c6cdc014610a7f57806394d008ef14610a9f57806394f5a66e14610abf57600080fd5b80637706233f146109dd5780637de77ecc146109fd5780638a01624914610a2b5780638da5cb5b14610a4057600080fd5b80632e9936111161031957806355f1df5b116102a157806366215eb41161027057806366215eb41461095257806370a0823114610973578063715018a61461099357806374973a41146109a857806375b4ab5d146109bd57600080fd5b806355f1df5b146108e35780635c975abb146108fa578063621a1f74146109125780636352211e1461093257600080fd5b806342842e0e116102e857806342842e0e1461082457806343b2ce1914610844578063512c91df1461086457806351cff8d91461088457806355cd6326146108a457600080fd5b80632e9936111461079f5780632fd6a692146107bf57806332e32326146107e3578063333489791461080357600080fd5b806317dc6bf61161039c57806325c5aa061161036b57806325c5aa061461069b5780632824d162146106bb5780632a55205a146106e95780632b7d13de146107285780632e0048ad1461074857600080fd5b806317dc6bf6146105555780631ca9741b1461063b57806322f4596f1461065b57806323b872dd1461068057600080fd5b8063081812fc116103d8578063081812fc146104ba578063095ea7b3146104da578063140f0e07146104fc578063150b7a021461051c57600080fd5b806301bc45c91461040a57806301ffc9a71461044857806306cb20c11461047857806306fdde0314610498575b600080fd5b34801561041657600080fd5b5061015f5461042b906001600160a01b031681565b6040516001600160a01b0390911681526020015b60405180910390f35b34801561045457600080fd5b50610468610463366004616497565b610ed0565b604051901515815260200161043f565b34801561048457600080fd5b5061042b6104933660046164b4565b610f22565b3480156104a457600080fd5b506104ad610f68565b60405161043f9190616538565b3480156104c657600080fd5b5061042b6104d536600461654b565b610ffa565b3480156104e657600080fd5b506104fa6104f5366004616584565b611021565b005b34801561050857600080fd5b506104fa61051736600461667b565b61113c565b34801561052857600080fd5b5061053c6105373660046166f0565b6111b4565b6040516001600160e01b0319909116815260200161043f565b34801561056157600080fd5b506105d561057036600461654b565b61016d60205260009081526040902080546001820154600283015460038401546004850154600586015460068701546007880154600889015460099099015497986001600160a01b0397881698969795969495841694600160a01b90940460ff16938b565b604080519b8c526001600160a01b039a8b1660208d01528b019890985260608a019690965260808901949094529590911660a0870152151560c086015260e08501939093526101008401929092526101208301919091526101408201526101600161043f565b34801561064757600080fd5b506104fa610656366004616762565b6111c6565b34801561066757600080fd5b506106726101665481565b60405190815260200161043f565b34801561068c57600080fd5b506104fa61040536600461677f565b3480156106a757600080fd5b506104ad6106b636600461654b565b61125a565b3480156106c757600080fd5b506106726106d6366004616762565b6101706020526000908152604090205481565b3480156106f557600080fd5b506107096107043660046167c0565b6112f5565b604080516001600160a01b03909316835260208301919091520161043f565b34801561073457600080fd5b506104fa610743366004616762565b611326565b34801561075457600080fd5b506104686107633660046167e2565b61017360209081526000938452604080852082529284529190922082518084018301805192815290830193909201929092209190525460ff1681565b3480156107ab57600080fd5b506104fa6107ba36600461654b565b6113bb565b3480156107cb57600080fd5b506107d46113d6565b60405161043f9392919061685d565b3480156107ef57600080fd5b506104ad6107fe3660046167c0565b611881565b34801561080f57600080fd5b506101655461042b906001600160a01b031681565b34801561083057600080fd5b506104fa61083f36600461677f565b611a6a565b34801561085057600080fd5b506104fa61085f3660046168c6565b611a85565b34801561087057600080fd5b5061067261087f366004616584565b611b8f565b34801561089057600080fd5b506104fa61089f366004616762565b611bed565b3480156108b057600080fd5b506106726108bf36600461690c565b61016f60209081526000938452604080852082529284528284209052825290205481565b3480156108ef57600080fd5b506106726101765481565b34801561090657600080fd5b5060975460ff16610468565b34801561091e57600080fd5b5061067261092d36600461654b565b611e27565b34801561093e57600080fd5b5061042b61094d36600461654b565b611ef5565b34801561095e57600080fd5b506101615461042b906001600160a01b031681565b34801561097f57600080fd5b5061067261098e366004616762565b611f11565b34801561099f57600080fd5b506104fa611f97565b3480156109b457600080fd5b506104ad611fab565b3480156109c957600080fd5b506104686109d8366004616762565b6121f6565b3480156109e957600080fd5b506104fa6109f836600461654b565b6122fd565b348015610a0957600080fd5b50610672610a18366004616762565b61016a6020526000908152604090205481565b348015610a3757600080fd5b506104ad61236d565b348015610a4c57600080fd5b5061012d546001600160a01b031661042b565b348015610a6b57600080fd5b506104fa610a7a366004616762565b61237b565b348015610a8b57600080fd5b506104fa610a9a366004616762565b612410565b348015610aab57600080fd5b50610672610aba366004616945565b6124a5565b348015610acb57600080fd5b506104fa610ada3660046169a0565b61280a565b348015610aeb57600080fd5b506104ad612a30565b348015610b0057600080fd5b50610468610b0f36600461654b565b612a3f565b348015610b2057600080fd5b506105d5610b2f36600461654b565b61016e60205260009081526040902080546001820154600283015460038401546004850154600586015460068701546007880154600889015460099099015497986001600160a01b0397881698969795969495841694600160a01b90940460ff16938b565b348015610ba057600080fd5b506101645461042b906001600160a01b031681565b348015610bc157600080fd5b506104ad612b89565b348015610bd657600080fd5b506104fa610be5366004616a7f565b612dac565b348015610bf657600080fd5b506101605461042b906001600160a01b031681565b6104fa610c1936600461654b565b612db7565b348015610c2a57600080fd5b506104fa610c393660046167c0565b6130c9565b348015610c4a57600080fd5b506104fa610405366004616ab8565b348015610c6557600080fd5b506101675461042b906001600160a01b031681565b348015610c8657600080fd5b506104fa610c9536600461654b565b61362a565b348015610ca657600080fd5b506106726101755481565b348015610cbd57600080fd5b50610672610ccc366004616b37565b61016c60209081526000928352604080842090915290825290205481565b348015610cf657600080fd5b506104ad610d0536600461654b565b61369a565b348015610d1657600080fd5b50610672610d2536600461654b565b6101696020526000908152604090205481565b348015610d4457600080fd5b506104fa610d5336600461654b565b61386b565b348015610d6457600080fd5b506104fa610d73366004616762565b61397e565b348015610d8457600080fd5b50610468610d933660046167e2565b613a13565b348015610da457600080fd5b506101745461042b906001600160a01b031681565b348015610dc557600080fd5b50610468610dd4366004616b37565b6001600160a01b039182166000908152606a6020908152604080832093909416825291909152205460ff1690565b348015610e0e57600080fd5b506104ad610e1d3660046167c0565b613b72565b348015610e2e57600080fd5b506104fa610e3d366004616762565b613c44565b348015610e4e57600080fd5b506104fa610e5d366004616762565b613cba565b348015610e6e57600080fd5b50610672610e7d36600461654b565b6101776020526000908152604090205481565b348015610e9c57600080fd5b506104fa610eab3660046168c6565b613d4f565b348015610ebc57600080fd5b506104fa610ecb366004616762565b613da8565b60006001600160e01b031982166380ac58cd60e01b1480610f0157506001600160e01b03198216635b5e139f60e01b145b80610f1c57506301ffc9a760e01b6001600160e01b03198316145b92915050565b6101716020528260005260406000206020528160005260406000208181548110610f4b57600080fd5b6000918252602090912001546001600160a01b0316925083915050565b606060658054610f7790616b65565b80601f0160208091040260200160405190810160405280929190818152602001828054610fa390616b65565b8015610ff05780601f10610fc557610100808354040283529160200191610ff0565b820191906000526020600020905b815481529060010190602001808311610fd357829003601f168201915b5050505050905090565b600061100582613e3d565b506000908152606960205260409020546001600160a01b031690565b600061102c82613e8d565b9050806001600160a01b0316836001600160a01b0316141561109f5760405162461bcd60e51b815260206004820152602160248201527f4552433732313a20617070726f76616c20746f2063757272656e74206f776e656044820152603960f91b60648201526084015b60405180910390fd5b336001600160a01b03821614806110bb57506110bb8133610dd4565b61112d5760405162461bcd60e51b815260206004820152603d60248201527f4552433732313a20617070726f76652063616c6c6572206973206e6f7420746f60448201527f6b656e206f776e6572206f7220617070726f76656420666f7220616c6c0000006064820152608401611096565b6111378383613eed565b505050565b61015f546001600160a01b03163314806111615750610174546001600160a01b031633145b6040518060400160405280600381526020016231303160e81b8152509061119b5760405162461bcd60e51b81526004016110969190616538565b5080516111b0906101639060208401906163a1565b5050565b630a85bd0160e11b5b95945050505050565b61015f546001600160a01b0316331480156111e957506001600160a01b03811615155b6040518060400160405280600381526020016231303160e81b815250906112235760405162461bcd60e51b81526004016110969190616538565b50610161546001600160a01b038281169116146112575761016180546001600160a01b0319166001600160a01b0383161790555b50565b610172602052600090815260409020805461127490616b65565b80601f01602080910402602001604051908101604052809291908181526020018280546112a090616b65565b80156112ed5780601f106112c2576101008083540402835291602001916112ed565b820191906000526020600020905b8154815290600101906020018083116112d057829003601f168201915b505050505081565b61015f546001600160a01b03166000612710611313846101f4616bb6565b61131d9190616bd5565b90509250929050565b61015f546001600160a01b03163314801561134957506001600160a01b03811615155b6040518060400160405280600381526020016231303160e81b815250906113835760405162461bcd60e51b81526004016110969190616538565b50610165546001600160a01b038281169116146112575761016580546001600160a01b0383166001600160a01b031990911617905550565b6113c3613fb9565b6113cc81614013565b611257600160fb55565b6113de616425565b6113e661644d565b6113ee61644d565b604051806101600160405280604051806040016040528060118152602001701999585d1d5c9957dcdd5b9959999958dd607a1b8152508152602001604051806040016040528060128152602001713332b0ba3ab932afb1b637bab23630bcb2b960711b8152508152602001604051806040016040528060128152602001711999585d1d5c9957d99bdc9959dc9bdd5b9960721b81525081526020016040518060400160405280600d81526020016c3332b0ba3ab932afb232b1b7b960991b8152508152602001604051806040016040528060128152602001713332b0ba3ab932afb9b832b1b4b0b637b13560711b81525081526020016040518060400160405280601081526020016f666561747572655f73756e736861706560801b81525081526020016040518060400160405280600f81526020016e666561747572655f7261696e626f7760881b81525081526020016040518060400160405280600f81526020016e3332b0ba3ab932afba343ab73232b960891b81525081526020016040518060400160405280600c81526020016b3332b0ba3ab932afb930b4b760a11b81525081526020016040518060400160405280600f81526020016e666561747572655f73756e6175726160881b8152508152602001604051806040016040528060118152602001703332b0ba3ab932afb9bab73834b63630b960791b81525081525092506040518061016001604052806005815260200160088152602001600d815260200160158152602001601581526020016022815260200160378152602001605981526020016090815260200160e9815260200161017981525091506040518061016001604052806103e881526020016107d08152602001610bb881526020016113888152602001611f408152602001611f408152602001611f408152602001611f408152602001611f408152602001611f408152602001611f408152509050600061016060009054906101000a90046001600160a01b0316905060005b600b81101561187a5760008582600b81106116eb576116eb616bf7565b602002015190506000836001600160a01b0316636d12dce18361170d8661462b565b60405160200161171e929190616c0d565b6040516020818303038152906040526040518263ffffffff1660e01b81526004016117499190616538565b602060405180830381865afa158015611766573d6000803e3d6000fd5b505050506040513d601f19601f8201168201806040525081019061178a9190616c6b565b905080156117ab57808684600b81106117a5576117a5616bf7565b60200201525b6000846001600160a01b0316636d12dce1846117c68761462b565b6040516020016117d7929190616c84565b6040516020818303038152906040526040518263ffffffff1660e01b81526004016118029190616538565b602060405180830381865afa15801561181f573d6000803e3d6000fd5b505050506040513d601f19601f820116820180604052508101906118439190616c6b565b9050801561186457808685600b811061185e5761185e616bf7565b60200201525b505050808061187290616ce3565b9150506116ce565b5050909192565b6040805180820190915260128152711e39b1b934b83a1034b21e93bb30b939939f60711b6020820152806118b4846146c7565b6040516020016118c5929190616cfe565b60408051601f198184030181529190526101645490915081906118f0906001600160a01b0316614713565b604051602001611901929190616d52565b60408051808303601f19018152908290526101605463bf40fac160e01b835260206004840152602160248401527f535741505f504f4f4c5f474d5f4554485f434f4e54524143545f4144445245536044840152605360f81b60648401529092506001600160a01b031690600090829063bf40fac190608401602060405180830381865afa158015611996573d6000803e3d6000fd5b505050506040513d601f19601f820116820180604052508101906119ba9190616db9565b9050826119c682614713565b6040516020016119d7929190616dd6565b6040516020818303038152906040529250826119f230614713565b604051602001611a03929190616e4e565b604051602081830303815290604052925082611a1e8561462b565b604051602001611a2f929190616eb5565b604051602081830303815290604052925082604051602001611a519190616f0d565b6040516020818303038152906040529250505092915050565b61113783838360405180602001604052806000815250600080fd5b611a8d613fb9565b611a98823383613a13565b611aa157600080fd5b33611aab83611ef5565b6001600160a01b031614611abe57600080fd5b60008281526101736020908152604080832033845290915290819020905160019190611aeb908490616f3a565b9081526040805160209281900383019020805460ff19169315159390931790925533600081815261016c8352838120610164546001600160a01b03168252909252919020547f50a967414608c8bcb438ba6300808e0f3e187b3438e1d8a0f78ad089a8c73e119190439085908590611b6285614729565b611b6c9190616f56565b604051611b7d959493929190616f6e565b60405180910390a16111b0600160fb55565b6101675461016454604080513060208083019190915246828401526001600160a01b03948516606083015295841660808201529290911660a083015260c0808301939093528051808303909301835260e09091019052805191012090565b611bf5613fb9565b61015f5481906001600160a01b0316331415611d05576001600160a01b03821660009081526101706020526040902054611c2e57600080fd5b6001600160a01b03828116600090815261017060205260409081902054905163a9059cbb60e01b815233600482015260248101919091529082169063a9059cbb906044016020604051808303816000875af1158015611c91573d6000803e3d6000fd5b505050506040513d601f19601f82011682018060405250810190611cb59190616fad565b611ce65760405162461bcd60e51b8152602060048201526002602482015261573160f01b6044820152606401611096565b6001600160a01b03821660009081526101706020526040812055611e1c565b33600090815261016c602090815260408083206001600160a01b0386168452909152902054611d3357600080fd5b33600081815261016c602090815260408083206001600160a01b03878116855292529182902054915163a9059cbb60e01b81526004810193909352602483019190915282169063a9059cbb906044016020604051808303816000875af1158015611da1573d6000803e3d6000fd5b505050506040513d601f19601f82011682018060405250810190611dc59190616fad565b611df65760405162461bcd60e51b81526020600482015260026024820152612b9960f11b6044820152606401611096565b33600090815261016c602090815260408083206001600160a01b03861684529091528120555b50611257600160fb55565b6000611e3282614799565b6040518060400160405280600381526020016232303960e81b81525090611e6c5760405162461bcd60e51b81526004016110969190616538565b5060008281526101686020526040902054600160a01b900460a01b6001600160a01b031916611e9d57506000919050565b60008281526101686020908152604091829020549151611ed892600160a01b900460a01b91016001600160a01b031991909116815260200190565b604051602081830303815290604052805190602001209050919050565b600090815261016860205260409020546001600160a01b031690565b60006001600160a01b038216611f7b5760405162461bcd60e51b815260206004820152602960248201527f4552433732313a2061646472657373207a65726f206973206e6f7420612076616044820152683634b21037bbb732b960b91b6064820152608401611096565b506001600160a01b031660009081526068602052604090205490565b611f9f6147b7565b611fa96000614812565b565b60606040518060600160405280603781526020016177356037913961016554604080518082018252600d81526c70356a7340312e352e302e6a7360981b602082015261016054915163bf40fac160e01b81529394506001600160a01b03928316939092600092169063bf40fac190612049906004016020808252600f908201526e29a1a924a82a2fa82927ab24a222a960891b604082015260600190565b602060405180830381865afa158015612066573d6000803e3d6000fd5b505050506040513d601f19601f8201168201806040525081019061208a9190616db9565b90506000836001600160a01b031663ba67e64183856040518363ffffffff1660e01b81526004016120bc929190616fca565b602060405180830381865afa1580156120d9573d6000803e3d6000fd5b505050506040513d601f19601f820116820180604052508101906120fd9190616c6b565b905061210a600182616f56565b905060005b818110156121cc57600080866001600160a01b031663a0e567648688866040518463ffffffff1660e01b815260040161214a93929190616fee565b600060405180830381865afa158015612167573d6000803e3d6000fd5b505050506040513d6000823e601f3d908101601f1916820160405261218f9190810190617052565b9150915087826040516020016121a69291906170ac565b6040516020818303038152906040529750505080806121c490616ce3565b91505061210f565b50846040516020016121de9190616f0d565b60405160208183030381529060405294505050505090565b60008061220283611f11565b111561221057506000919050565b6101605460405163bf40fac160e01b81526000916001600160a01b03169063bf40fac190612240906004016170db565b602060405180830381865afa15801561225d573d6000803e3d6000fd5b505050506040513d601f19601f820116820180604052508101906122819190616db9565b90506001600160a01b0381166122a05750610164546001600160a01b03165b6122a8614865565b6001600160a01b03808516600090815261016c6020908152604080832061016454909416835292905220546122dc85614729565b6122e69190616f56565b106122f45750600192915050565b50600092915050565b61015f546001600160a01b03163314806123225750610174546001600160a01b031633145b6040518060400160405280600381526020016231303160e81b8152509061235c5760405162461bcd60e51b81526004016110969190616538565b508061017654146112575761017655565b610163805461127490616b65565b61015f546001600160a01b03163314801561239e57506001600160a01b03811615155b6040518060400160405280600381526020016231303160e81b815250906123d85760405162461bcd60e51b81526004016110969190616538565b5061015f546001600160a01b038281169116146112575761015f80546001600160a01b0383166001600160a01b031990911617905550565b61015f546001600160a01b03163314801561243357506001600160a01b03811615155b6040518060400160405280600381526020016231303160e81b8152509061246d5760405162461bcd60e51b81526004016110969190616538565b50610164546001600160a01b038281169116146112575761016480546001600160a01b0383166001600160a01b031990911617905550565b60006124af613fb9565b6101665461016254106040518060400160405280600381526020016232303360e81b815250906124f25760405162461bcd60e51b81526004016110969190616538565b5061015f546001600160a01b0316331461263257336001600160a01b038616146125465760405162461bcd60e51b815260206004820152600560248201526447505f495560d81b6044820152606401611096565b61254f85611f11565b156125825760405162461bcd60e51b8152602060048201526003602482015262312d3160e81b6044820152606401611096565b6001600160a01b038516600090815261016a6020526040902054156125cd5760405162461bcd60e51b81526020600482015260016024820152604d60f81b6044820152606401611096565b61260e858585858080601f01602080910402602001604051908101604052809392919081815260200183838082843760009201919091525061492092505050565b50506001600160a01b038516600090815261016a602052604090206001905561272e565b61015f546001600160a01b03868116911614156126795760405162461bcd60e51b815260206004820152600560248201526447505f495560d81b6044820152606401611096565b6001600160a01b038516301461272e5761269285611f11565b156126c55760405162461bcd60e51b8152602060048201526003602482015262312d3160e81b6044820152606401611096565b6001600160a01b038516600090815261016a6020526040902054156127105760405162461bcd60e51b81526020600482015260016024820152604d60f81b6044820152606401611096565b6001600160a01b038516600090815261016a60205260409020600190555b610162805490600061273f83616ce3565b919050555061016254905061275485826149c0565b61016154604051631da00d8560e01b8152600481018390526001600160a01b03909116906000908290631da00d85906024016020604051808303816000875af11580156127a5573d6000803e3d6000fd5b505050506040513d601f19601f820116820180604052508101906127c99190616c6b565b90506127d583826149da565b5050600081815261016960209081526040808320439081905561017790925290912055612802600160fb55565b949350505050565b600054610100900460ff161580801561282a5750600054600160ff909116105b806128445750303b158015612844575060005460ff166001145b6128a75760405162461bcd60e51b815260206004820152602e60248201527f496e697469616c697a61626c653a20636f6e747261637420697320616c72656160448201526d191e481a5b9a5d1a585b1a5e995960921b6064820152608401611096565b6000805460ff1916600117905580156128ca576000805461ff0019166101001790555b60408051808201909152600381526203130360ec1b60208201526001600160a01b03881661290b5760405162461bcd60e51b81526004016110969190616538565b5060408051808201909152600381526203130360ec1b60208201526001600160a01b03871661294d5760405162461bcd60e51b81526004016110969190616538565b5061016080546001600160a01b03199081166001600160a01b038981169190911790925561015f805482168a841617905561016180548216888416179055610164805482168784161790556104df610166556101658054821686841617905561016780549091169184169190911790556129c78989614aa5565b6129cf614ad6565b6129d7614b05565b6129df614b34565b8015612a25576000805461ff0019169055604051600181527f7f26b83ff96e1f2b6a682f133852f6798a09c465da95921460cefb38474024989060200160405180910390a15b505050505050505050565b606060668054610f7790616b65565b6000612a4a82614799565b612a5657506000919050565b612a5e614b63565b60008381526101696020526040902054612a789043617112565b11612aa65730612a8783611ef5565b6001600160a01b03161415612a9e57506001919050565b506000919050565b61015f546001600160a01b0316612abc83611ef5565b6001600160a01b03161415612ad357506000919050565b30612add83611ef5565b6001600160a01b03161415612b1657600082815261016d6020526040902060050154600160a01b900460ff1615612b1657506001919050565b6000612b20614865565b90508061016c6000612b3186611ef5565b6001600160a01b039081168252602080830193909352604091820160009081206101645490921681529252902054612b70612b6b86611ef5565b614729565b612b7a9190616f56565b10156122f45750600192915050565b60606040518060600160405280603781526020016177356037913961016554604080518082018252600f81526e776562336a7340312e322e372e6a7360881b602082015261016054915163bf40fac160e01b81529394506001600160a01b03928316939092600092169063bf40fac190612c29906004016020808252600f908201526e29a1a924a82a2fa82927ab24a222a960891b604082015260600190565b602060405180830381865afa158015612c46573d6000803e3d6000fd5b505050506040513d601f19601f82011682018060405250810190612c6a9190616db9565b90506000836001600160a01b031663ba67e64183856040518363ffffffff1660e01b8152600401612c9c929190616fca565b602060405180830381865afa158015612cb9573d6000803e3d6000fd5b505050506040513d601f19601f82011682018060405250810190612cdd9190616c6b565b9050612cea600182616f56565b905060005b818110156121cc57600080866001600160a01b031663a0e567648688866040518463ffffffff1660e01b8152600401612d2a93929190616fee565b600060405180830381865afa158015612d47573d6000803e3d6000fd5b505050506040513d6000823e601f3d908101601f19168201604052612d6f9190810190617052565b915091508782604051602001612d869291906170ac565b604051602081830303815290604052975050508080612da490616ce3565b915050612cef565b6111b0338383614c15565b612dbf613fb9565b6101605460405163bf40fac160e01b81526000916001600160a01b03169063bf40fac190612def906004016170db565b602060405180830381865afa158015612e0c573d6000803e3d6000fd5b505050506040513d601f19601f82011682018060405250810190612e309190616db9565b90506001600160a01b038116612e4f5750610164546001600160a01b03165b604051636eb1769f60e11b8152336004820152306024820152819083906001600160a01b0383169063dd62ed3e90604401602060405180830381865afa158015612e9d573d6000803e3d6000fd5b505050506040513d601f19601f82011682018060405250810190612ec19190616c6b565b1015612f0f5760405162461bcd60e51b815260206004820152601c60248201527f6e6f7420656e6f75676820616c6c6f7720657263323020746f6b656e000000006044820152606401611096565b6040516370a0823160e01b815233600482015283906001600160a01b038316906370a0823190602401602060405180830381865afa158015612f55573d6000803e3d6000fd5b505050506040513d601f19601f82011682018060405250810190612f799190616c6b565b1015612fc05760405162461bcd60e51b81526020600482015260166024820152753737ba1032b737bab3b41032b9319918103a37b5b2b760511b6044820152606401611096565b6040516323b872dd60e01b8152336004820152306024820152604481018490526001600160a01b038216906323b872dd906064016020604051808303816000875af1158015613013573d6000803e3d6000fd5b505050506040513d601f19601f820116820180604052508101906130379190616fad565b6130835760405162461bcd60e51b815260206004820152601d60248201527f63616e206e6f74206765742065726332302066726f6d206269646465720000006044820152606401611096565b33600090815261016c602090815260408083206001600160a01b0386168452909152812080548592906130b7908490616f56565b9091555050600160fb55506112579050565b6130d1613fb9565b6130da336121f6565b61310f5760405162461bcd60e51b81526004016110969060208082526004908201526304e5f43360e41b604082015260600190565b61311833611f11565b1561314e5760405162461bcd60e51b8152602060048201526006602482015265272fa1982f9960d11b6044820152606401611096565b600082815261016f6020908152604080832061016d835281842060090154845282528083203384529091529020546131c35760008281526101716020908152604080832061016d835281842060090154845282528220805460018101825590835291200180546001600160a01b031916331790555b600082815261016d602052604090205482146132165760405162461bcd60e51b81526020600482015260126024820152713737ba103ab8103337b91030bab1ba34b7b760711b6044820152606401611096565b600082815261016d602052604090206004015443106132695760405162461bcd60e51b815260206004820152600f60248201526e105d58dd1a5bdb88195e1c1a5c9959608a1b6044820152606401611096565b33600090815261016c6020908152604080832085845261016d8352818420600101546001600160a01b031684529091529020548111156132eb5760405162461bcd60e51b815260206004820152601e60248201527f6e6f7420656e6f7567682062616c616e636520657263323020746f6b656e00006044820152606401611096565b600082815261016f6020908152604080832061016d83528184206009015484528252808320338452909152812054906133248284616f56565b600085815261016d602052604090206007015490915081116133885760405162461bcd60e51b815260206004820152601f60248201527f4d7573742073656e64206174206c6561737420726573657276655072696365006044820152606401611096565b600084815261016d6020526040902060088101546002909101546064916133ae91616bb6565b6133b89190616bd5565b600085815261016d60205260409020600201546133d59190616f56565b811161344b576040805162461bcd60e51b81526020600482015260248101919091527f4d7573742073656e64206d6f7265207468616e206c617374206269642062792060448201527f6d696e426964496e6372656d656e7450657263656e7461676520616d6f756e746064820152608401611096565b33600090815261016c6020908152604080832087845261016d8352818420600101546001600160a01b031684529091528120805485929061348d908490617112565b9091555050600084815261016f6020908152604080832061016d8084528285206009810180548752928552838620338088529086528487208890556002808301899055600580840180546001600160a01b0319908116909417815586548a5261016e8952878a209092018a905590549454885294872090940180549094166001600160a01b039093169290921790925587845291526006810154600490910154613538904390617112565b109050801561357257600085815261016d602052604090206006015461355e9043616f56565b600086815261016d60205260409020600401555b600085815261016d602052604090819020805491517ffd09e259e5c48be16f7dd63468e19266c684a9f3dce3b31881dbc1f909fc0d7c916135b991339189918791906171bf565b60405180910390a2801561361757600085815261016d60205260409081902080546004820154925190927f4c1666cb87ed4fd7706cb19b1e3160612601aca7235c307fe64a11bc8db0f41f9261360e926171ec565b60405180910390a25b5050506111b0600160fb55565b50505050565b61015f546001600160a01b031633148061364f5750610174546001600160a01b031633145b6040518060400160405280600381526020016231303160e81b815250906136895760405162461bcd60e51b81526004016110969190616538565b508061017554146112575761017555565b60606136a582614799565b6040518060400160405280600381526020016232303960e81b815250906136df5760405162461bcd60e51b81526004016110969190616538565b5060405163188687dd60e21b815260048101839052600090309063621a1f7490602401602060405180830381865afa15801561371f573d6000803e3d6000fd5b505050506040513d601f19601f820116820180604052508101906137439190616c6b565b61016054604051637594e11960e11b815260048101839052602481018690529192506001600160a01b031690600090309063eb29c23290604401600060405180830381865afa15801561379a573d6000803e3d6000fd5b505050506040513d6000823e601f3d908101601f191682016040526137c29190810190617201565b90506137ec816040516020016137d89190616f3a565b604051602081830303815290604052614ce4565b6040516020016137fc9190617249565b60405160208183030381529060405290506000816040516020016138209190617287565b60408051601f1981840301815282825260008981526101726020908152929020909350613851929091849101617368565b604051602081830303815290604052945050505050919050565b613873613fb9565b61387c81612a3f565b6138b15760405162461bcd60e51b81526004016110969060208082526004908201526304e5f43360e41b604082015260600190565b60006138bc82611ef5565b90506138c782614e49565b6001600160a01b0381163014611e1c5760008060006138e46113d6565b92509250925060005b600b81101561396f576000868152610173602090815260408083206001600160a01b038916845290915281208583600b811061392b5761392b616bf7565b602002015160405161393d9190616f3a565b908152604051908190036020019020805491151560ff199092169190911790558061396781616ce3565b9150506138ed565b5050505050611257600160fb55565b61015f546001600160a01b0316331480156139a157506001600160a01b03811615155b6040518060400160405280600381526020016231303160e81b815250906139db5760405162461bcd60e51b81526004016110969190616538565b50610174546001600160a01b038281169116146112575761017480546001600160a01b0383166001600160a01b031990911617905550565b6000838152610173602090815260408083206001600160a01b03861684529091528082209051829190613a47908590616f3a565b9081526040519081900360200190205460ff1690508015613a6c576000915050613b6b565b6000806000613a7a866154bf565b925092509250825160001415613a97576000945050505050613b6b565b613aa982670de0b6b3a7640000616bb6565b6001600160a01b03808916600090815261016c602090815260408083206101645490941683529290522054613add89614729565b613ae79190616f56565b10613b62576000888152610177602052604090205415613b3457600088815261017760205260409020548190613b1d9043617112565b10613b2f576001945050505050613b6b565b613b62565b600088815261016960205260409020548190613b509043617112565b10613b62576001945050505050613b6b565b60009450505050505b9392505050565b60408051808201909152600c81526b1e343a36b61f1e3432b0b21f60a11b602082015280613b9e611fab565b604051602001613baf9291906170ac565b604051602081830303815290604052905080613bc9612b89565b604051602001613bda9291906170ac565b604051602081830303815290604052905080613bf68484611881565b604051602001613c079291906170ac565b604051602081830303815290604052905080610163604051602001613c2d9291906173fd565b604051602081830303815290604052905092915050565b613c4c6147b7565b6001600160a01b038116613cb15760405162461bcd60e51b815260206004820152602660248201527f4f776e61626c653a206e6577206f776e657220697320746865207a65726f206160448201526564647265737360d01b6064820152608401611096565b61125781614812565b61015f546001600160a01b031633148015613cdd57506001600160a01b03811615155b6040518060400160405280600381526020016231303160e81b81525090613d175760405162461bcd60e51b81526004016110969190616538565b50610167546001600160a01b038281169116146112575761016780546001600160a01b0383166001600160a01b031990911617905550565b613d57613fb9565b613d6082611ef5565b6001600160a01b0316336001600160a01b031614613d7d57600080fd5b6000828152610172602090815260409091208251613d9d928401906163a1565b506111b0600160fb55565b61015f546001600160a01b031633148015613dcb57506001600160a01b03811615155b6040518060400160405280600381526020016231303160e81b81525090613e055760405162461bcd60e51b81526004016110969190616538565b50610160546001600160a01b038281169116146112575761016080546001600160a01b0383166001600160a01b031990911617905550565b613e4681614799565b6112575760405162461bcd60e51b8152602060048201526018602482015277115490cdcc8c4e881a5b9d985b1a59081d1bdad95b88125160421b6044820152606401611096565b6000818152606760205260408120546001600160a01b031680610f1c5760405162461bcd60e51b8152602060048201526018602482015277115490cdcc8c4e881a5b9d985b1a59081d1bdad95b88125160421b6044820152606401611096565b600081815260696020526040902080546001600160a01b0319166001600160a01b0384169081179091558190613f2282613e8d565b6001600160a01b03167f8c5be1e5ebec7d5bd14f71427d1e84f3dd0314c0f7b2291e5b200ac8c7c3b92560405160405180910390a45050565b6001600160a01b0382163014613f7e57613f7482611f11565b15613f7e57600080fd5b613f898383836155eb565b60009081526101686020526040902080546001600160a01b0319166001600160a01b039290921691909117905550565b600260fb54141561400c5760405162461bcd60e51b815260206004820152601f60248201527f5265656e7472616e637947756172643a207265656e7472616e742063616c6c006044820152606401611096565b600260fb55565b600081815261016d6020526040902060098101546003909101546140705760405162461bcd60e51b815260206004820152601460248201527320bab1ba34b7b7103430b9b713ba103132b3bab760611b6044820152606401611096565b600082815261016d6020526040902060050154600160a01b900460ff16156140da5760405162461bcd60e51b815260206004820181905260248201527f41756374696f6e2068617320616c7265616479206265656e20736574746c65646044820152606401611096565b600082815261016d602052604090206004015443101561413c5760405162461bcd60e51b815260206004820152601860248201527f41756374696f6e206861736e277420636f6d706c6574656400000000000000006044820152606401611096565b600082815261016d6020818152604080842060059081018054600160a01b60ff60a01b199182168117835588885261016e865293872090920180549092169092179055858452919052546001600160a01b03161561429357600083815261016d60205260409020600501546141b9906001600160a01b0316611f11565b61420157600083815261016d60205260409020600581015490546141ea9130916001600160a01b0390911690613f5b565b600083815261017760205260409020439055614293565b600083815261016d60209081526040808320600281015460058201546001600160a01b03908116865261016c855283862060019093015416855292528220805491929091614250908490616f56565b909155505050600082815261016f60209081526040808320848452825280832085845261016d8352818420600501546001600160a01b0316845290915281205560015b600083815261016d6020526040902060020154158015906142b2575080155b156144ba576101605460405163bf40fac160e01b815260206004820152601c60248201527f534f554c5f41554354494f4e5f474d5f44414f5f54726561737572790000000060448201526000916001600160a01b03169063bf40fac190606401602060405180830381865afa15801561432f573d6000803e3d6000fd5b505050506040513d601f19601f820116820180604052508101906143539190616db9565b90506001600160a01b03811661436857600080fd5b600084815261016d60205260408120600201546127109061438b906103e8616bb6565b6143959190616bd5565b600086815261016d6020526040902060018101546002909101549192506001600160a01b03169063a9059cbb9084906143cf908590617112565b6040516001600160e01b031960e085901b1681526001600160a01b03909216600483015260248201526044016020604051808303816000875af115801561441a573d6000803e3d6000fd5b505050506040513d601f19601f8201168201806040525081019061443e9190616fad565b50600085815261016d60209081526040808320600101546001600160a01b0316835261017090915281208054839290614478908490616f56565b909155505050600084815261016f60209081526040808320868452825280832087845261016d8352818420600501546001600160a01b03168452909152812055505b600083815261017160209081526040808320858452909152902054156145bf5760005b6000848152610171602090815260408083208684529091529020548110156145bd57600084815261016d6020908152604080832060050154610171835281842087855290925290912080546001600160a01b03909216918390811061454457614544616bf7565b6000918252602090912001546001600160a01b0316146145ab57600084815261017160209081526040808320868452909152902080546145ab91908390811061458f5761458f616bf7565b6000918252602090912001546001600160a01b0316858561575c565b806145b581616ce3565b9150506144dd565b505b600083815261016d602052604090819020805460058201546002830154935191937f727cff623966c8adc61ac68940e8c898c04ff7ced5d69d9735d51f0589daf53293614617936001600160a01b039093169261741b565b60405180910390a2505050565b600160fb55565b60606000614638836158e7565b60010190506000816001600160401b03811115614657576146576165b0565b6040519080825280601f01601f191660200182016040528015614681576020820181803683370190505b5090508181016020015b600019016f181899199a1a9b1b9c1cb0b131b232b360811b600a86061a8153600a85049450846146ba576146bf565b61468b565b509392505050565b60606146d2826159bf565b6146df608084901b6159bf565b60405161060f60f31b6020820152602281019290925260428201526062016040516020818303038152906040529050919050565b6060610f1c6001600160a01b0383166014615b71565b610164546040516370a0823160e01b81526001600160a01b03838116600483015260009216906370a0823190602401602060405180830381865afa158015614775573d6000803e3d6000fd5b505050506040513d601f19601f82011682018060405250810190610f1c9190616c6b565b600090815261016860205260409020546001600160a01b0316151590565b61012d546001600160a01b03163314611fa95760405162461bcd60e51b815260206004820181905260248201527f4f776e61626c653a2063616c6c6572206973206e6f7420746865206f776e65726044820152606401611096565b61012d80546001600160a01b038381166001600160a01b0319831681179093556040519116919082907f8be0079c531659141344cd1fd0a4f28419497f9722a3daafe3b4186f6b6457e090600090a35050565b610176546000901561487957506101765490565b61016054604051636d12dce160e01b815260206004820152601160248201527014d3d55317d1d357d512149154d213d311607a1b60448201526000916001600160a01b031690636d12dce190606401602060405180830381865afa1580156148e5573d6000803e3d6000fd5b505050506040513d601f19601f820116820180604052508101906149099190616c6b565b90508061491b5750670de0b6b3a76400005b919050565b600080600061492f8686611b8f565b7f19457468657265756d205369676e6564204d6573736167653a0a3332000000006000908152601c829052603c81209192509061496c9086615d0c565b610167549091506001600160a01b038083169116146149b55760405162461bcd60e51b815260206004820152600560248201526447505f4e4160d81b6044820152606401611096565b969095509350505050565b6111b0828260405180602001604052806000815250615d28565b60008281526101686020908152604091829020548251808401909352600383526219181b60e91b91830191909152600160a01b900460a01b6001600160a01b03191615614a3a5760405162461bcd60e51b81526004016110969190616538565b5060408051808201909152600381526232303760e81b602082015281614a735760405162461bcd60e51b81526004016110969190616538565b5060009182526101686020526040909120805460a09290921c600160a01b026001600160a01b03909216919091179055565b600054610100900460ff16614acc5760405162461bcd60e51b815260040161109690617440565b6111b08282615d5b565b600054610100900460ff16614afd5760405162461bcd60e51b815260040161109690617440565b611fa9615da9565b600054610100900460ff16614b2c5760405162461bcd60e51b815260040161109690617440565b611fa9615dd0565b600054610100900460ff16614b5b5760405162461bcd60e51b815260040161109690617440565b611fa9615e03565b6101755460009015614b7757506101755490565b61016054604051636d12dce160e01b815260206004820152600f60248201526e534f554c5f474d5f5245534552564560881b60448201526000916001600160a01b031690636d12dce190606401602060405180830381865afa158015614be1573d6000803e3d6000fd5b505050506040513d601f19601f82011682018060405250810190614c059190616c6b565b90508061491b57506103f0919050565b816001600160a01b0316836001600160a01b03161415614c775760405162461bcd60e51b815260206004820152601960248201527f4552433732313a20617070726f766520746f2063616c6c6572000000000000006044820152606401611096565b6001600160a01b038381166000818152606a6020908152604080832094871680845294825291829020805460ff191686151590811790915591519182527f17307eab39ab6107e8899845ad3d59bd9653f200f220920489ca2b5937696c31910160405180910390a3505050565b6060815160001415614d0457505060408051602081019091526000815290565b60006040518060600160405280604081526020016176f56040913990506000600384516002614d339190616f56565b614d3d9190616bd5565b614d48906004616bb6565b90506000614d57826020616f56565b6001600160401b03811115614d6e57614d6e6165b0565b6040519080825280601f01601f191660200182016040528015614d98576020820181803683370190505b509050818152600183018586518101602084015b81831015614e04576003830192508251603f8160121c168501518253600182019150603f81600c1c168501518253600182019150603f8160061c168501518253600182019150603f8116850151825350600101614dac565b600389510660018114614e1e5760028114614e2f57614e3b565b613d3d60f01b600119830152614e3b565b603d60f81b6000198301525b509398975050505050505050565b600081815261016d6020526040902060050154600160a01b900460ff1680614e7e5750600081815261016d6020526040902054155b614ef05760405162461bcd60e51b815260206004820152603860248201527f41756374696f6e2068617320616c7265616479206265656e20736574746c656460448201527f206f72203173742041756374696f6e206f6620746f6b656e00000000000000006064820152608401611096565b436000614efb614b63565b614f059083616f56565b6101608054604080519283018152600060208401819052838201819052606084018190526080840181905260a0840181905260c0840181905260e08401819052610100840181905261012084018190526101408401528683525163bf40fac160e01b81529293506001600160a01b031691829063bf40fac190614f8a906004016170db565b602060405180830381865afa158015614fa7573d6000803e3d6000fd5b505050506040513d601f19601f82011682018060405250810190614fcb9190616db9565b6001600160a01b031660208201819052614ff257610164546001600160a01b031660208201525b60006040828101829052606083018690526080830185905260a0830182905260c083019190915251636d12dce160e01b815260206004820152601860248201527f534f554c5f41554354494f4e5f54494d455f425546464552000000000000000060448201526001600160a01b03831690636d12dce190606401602060405180830381865afa158015615089573d6000803e3d6000fd5b505050506040513d601f19601f820116820180604052508101906150ad9190616c6b565b60e0820152604051636d12dce160e01b815260206004820152601a60248201527f534f554c5f41554354494f4e5f524553455256455f505249434500000000000060448201526001600160a01b03831690636d12dce190606401602060405180830381865afa158015615124573d6000803e3d6000fd5b505050506040513d601f19601f820116820180604052508101906151489190616c6b565b610100820152604051636d12dce160e01b815260206004820152602560248201527f534f554c5f41554354494f4e5f4d494e5f4249445f494e4352454153455f50456044820152641490d1539560da1b60648201526001600160a01b03831690636d12dce190608401602060405180830381865afa1580156151ce573d6000803e3d6000fd5b505050506040513d601f19601f820116820180604052508101906151f29190616c6b565b61012082015261016b805490600061520983616ce3565b919050555061521a61016b5461462b565b615227826060015161462b565b615234836080015161462b565b61523d8861462b565b60405160200161525094939291906174dd565b60405160208183030381529060405280519060200120816101400181815250508061016d60008781526020019081526020016000206000820151816000015560208201518160010160006101000a8154816001600160a01b0302191690836001600160a01b0316021790555060408201518160020155606082015181600301556080820151816004015560a08201518160050160006101000a8154816001600160a01b0302191690836001600160a01b0316021790555060c08201518160050160146101000a81548160ff02191690831515021790555060e082015181600601556101008201518160070155610120820151816008015561014082015181600901559050508061016e600083610140015181526020019081526020016000206000820151816000015560208201518160010160006101000a8154816001600160a01b0302191690836001600160a01b0316021790555060408201518160020155606082015181600301556080820151816004015560a08201518160050160006101000a8154816001600160a01b0302191690836001600160a01b0316021790555060c08201518160050160146101000a81548160ff02191690831515021790555060e08201518160060155610100820151816007015561012082015181600801556101408201518160090155905050306001600160a01b031661545286611ef5565b6001600160a01b0316146154735761547361546c86611ef5565b3087613f5b565b847fb404e07dbfe9071da655c32567071b2ee4e88867784a1b39f01a8457787e504f858533856101400151866040516154b0959493929190617534565b60405180910390a25050505050565b606060008060008060006154d16113d6565b92509250925060005b600b8161ffff1610156155c757838161ffff16600b81106154fd576154fd616bf7565b60200201516040516020016155129190616f3a565b60405160208183030381529060405280519060200120886040516020016155399190616f3a565b6040516020818303038152906040528051906020012014156155b557838161ffff16600b811061556b5761556b616bf7565b6020020151838261ffff16600b811061558657615586616bf7565b6020020151838361ffff16600b81106155a1576155a1616bf7565b6020020151965096509650505050506155e4565b806155bf81617606565b9150506154da565b505060408051602081019091526000808252909550935083925050505b9193909250565b826001600160a01b03166155fe82613e8d565b6001600160a01b0316146156245760405162461bcd60e51b815260040161109690617628565b6001600160a01b0382166156865760405162461bcd60e51b8152602060048201526024808201527f4552433732313a207472616e7366657220746f20746865207a65726f206164646044820152637265737360e01b6064820152608401611096565b6156938383836001615f2e565b826001600160a01b03166156a682613e8d565b6001600160a01b0316146156cc5760405162461bcd60e51b815260040161109690617628565b600081815260696020908152604080832080546001600160a01b03199081169091556001600160a01b0387811680865260688552838620805460001901905590871680865283862080546001019055868652606790945282852080549092168417909155905184937fddf252ad1be2c89b69c2b068fc378daa952ba7f163c4a11628f55a4df523b3ef91a4505050565b600081815261016e6020526040902060050154600160a01b900460ff1661578257600080fd5b600081815261016e60205260409020600501546001600160a01b03848116911614156157ad57600080fd5b600082815261016f6020908152604080832084845282528083206001600160a01b03871684529091529020546157e257600080fd5b600082815261016f6020908152604080832084845282528083206001600160a01b0387168085529083529281902054815193845291830191909152810182905282907f3efeb5ca9b10c05ba2df4bcac38445e4a4e8a996887f004e5036d254c14a98649060600160405180910390a2600082815261016f6020908152604080832084845282528083206001600160a01b0380881685529083528184205461016c845282852086865261016e8552838620600101549092168552925282208054919290916158b0908490616f56565b9091555050600091825261016f602090815260408084209284529181528183206001600160a01b0390941683529290925290812055565b60008072184f03e93ff9f4daa797ed6e38ed64bf6a1f0160401b83106159265772184f03e93ff9f4daa797ed6e38ed64bf6a1f0160401b830492506040015b6d04ee2d6d415b85acef81000000008310615952576d04ee2d6d415b85acef8100000000830492506020015b662386f26fc10000831061597057662386f26fc10000830492506010015b6305f5e1008310615988576305f5e100830492506008015b612710831061599c57612710830492506004015b606483106159ae576064830492506002015b600a8310610f1c5760010192915050565b7aff00000000000000ff00000000000000ff00000000000000ff00006bffffffff0000000000000000604083901c90811663ffffffff60c01b84161760201c63ffffffff60601b919091166001600160e01b031984161717601081901c9182167eff00000000000000ff00000000000000ff00000000000000ff000000000000821617600890811c7bff00000000000000ff00000000000000ff00000000000000ff000000939093167fff00000000000000ff00000000000000ff00000000000000ff000000000000009290921691909117919091179081901c7e0f000f000f000f000f000f000f000f000f000f000f000f000f000f000f000f167f0f000f000f000f000f000f000f000f000f000f000f000f000f000f000f000f00600492831c161790615b0d827f0606060606060606060606060606060606060606060606060606060606060606616f56565b901c7f0f0f0f0f0f0f0f0f0f0f0f0f0f0f0f0f0f0f0f0f0f0f0f0f0f0f0f0f0f0f0f0f166007615b3d9190616bb6565b615b67827f3030303030303030303030303030303030303030303030303030303030303030616f56565b610f1c9190616f56565b60606000615b80836002616bb6565b615b8b906002616f56565b6001600160401b03811115615ba257615ba26165b0565b6040519080825280601f01601f191660200182016040528015615bcc576020820181803683370190505b509050600360fc1b81600081518110615be757615be7616bf7565b60200101906001600160f81b031916908160001a905350600f60fb1b81600181518110615c1657615c16616bf7565b60200101906001600160f81b031916908160001a9053506000615c3a846002616bb6565b615c45906001616f56565b90505b6001811115615cbd576f181899199a1a9b1b9c1cb0b131b232b360811b85600f1660108110615c7957615c79616bf7565b1a60f81b828281518110615c8f57615c8f616bf7565b60200101906001600160f81b031916908160001a90535060049490941c93615cb68161766d565b9050615c48565b508315613b6b5760405162461bcd60e51b815260206004820181905260248201527f537472696e67733a20686578206c656e67746820696e73756666696369656e746044820152606401611096565b6000806000615d1b8585615f95565b915091506146bf81615fdb565b615d328383616129565b615d3f6000848484615e33565b6111375760405162461bcd60e51b81526004016110969061748b565b600054610100900460ff16615d825760405162461bcd60e51b815260040161109690617440565b8151615d959060659060208501906163a1565b5080516111379060669060208401906163a1565b600054610100900460ff166146245760405162461bcd60e51b815260040161109690617440565b600054610100900460ff16615df75760405162461bcd60e51b815260040161109690617440565b6097805460ff19169055565b600054610100900460ff16615e2a5760405162461bcd60e51b815260040161109690617440565b611fa933614812565b60006001600160a01b0384163b15615f2657604051630a85bd0160e11b81526001600160a01b0385169063150b7a0290615e77903390899088908890600401617684565b6020604051808303816000875af1925050508015615eb2575060408051601f3d908101601f19168201909252615eaf918101906176c1565b60015b615f0c573d808015615ee0576040519150601f19603f3d011682016040523d82523d6000602084013e615ee5565b606091505b508051615f045760405162461bcd60e51b81526004016110969061748b565b805181602001fd5b6001600160e01b031916630a85bd0160e11b149050612802565b506001612802565b60975460ff16156136245760405162461bcd60e51b815260206004820152602b60248201527f4552433732315061757361626c653a20746f6b656e207472616e73666572207760448201526a1a1a5b19481c185d5cd95960aa1b6064820152608401611096565b600080825160411415615fcc5760208301516040840151606085015160001a615fc087828585616162565b94509450505050615fd4565b506000905060025b9250929050565b6000816004811115615fef57615fef6176de565b1415615ff85750565b600181600481111561600c5761600c6176de565b141561605a5760405162461bcd60e51b815260206004820152601860248201527f45434453413a20696e76616c6964207369676e617475726500000000000000006044820152606401611096565b600281600481111561606e5761606e6176de565b14156160bc5760405162461bcd60e51b815260206004820152601f60248201527f45434453413a20696e76616c6964207369676e6174757265206c656e677468006044820152606401611096565b60038160048111156160d0576160d06176de565b14156112575760405162461bcd60e51b815260206004820152602260248201527f45434453413a20696e76616c6964207369676e6174757265202773272076616c604482015261756560f01b6064820152608401611096565b6161338282616226565b60009081526101686020526040902080546001600160a01b0319166001600160a01b0392909216919091179055565b6000807f7fffffffffffffffffffffffffffffff5d576e7357a4501ddfe92f46681b20a0831115616199575060009050600361621d565b6040805160008082526020820180845289905260ff881692820192909252606081018690526080810185905260019060a0016020604051602081039080840390855afa1580156161ed573d6000803e3d6000fd5b5050604051601f1901519150506001600160a01b0381166162165760006001925092505061621d565b9150600090505b94509492505050565b6001600160a01b03821661627c5760405162461bcd60e51b815260206004820181905260248201527f4552433732313a206d696e7420746f20746865207a65726f20616464726573736044820152606401611096565b61628581614799565b156162d25760405162461bcd60e51b815260206004820152601c60248201527f4552433732313a20746f6b656e20616c7265616479206d696e746564000000006044820152606401611096565b6162e0600083836001615f2e565b6162e981614799565b156163365760405162461bcd60e51b815260206004820152601c60248201527f4552433732313a20746f6b656e20616c7265616479206d696e746564000000006044820152606401611096565b6001600160a01b038216600081815260686020908152604080832080546001019055848352606790915280822080546001600160a01b0319168417905551839291907fddf252ad1be2c89b69c2b068fc378daa952ba7f163c4a11628f55a4df523b3ef908290a45050565b8280546163ad90616b65565b90600052602060002090601f0160209004810192826163cf5760008555616415565b82601f106163e857805160ff1916838001178555616415565b82800160010185558215616415579182015b828111156164155782518255916020019190600101906163fa565b5061642192915061646c565b5090565b604051806101600160405280600b905b60608152602001906001900390816164355790505090565b604051806101600160405280600b906020820280368337509192915050565b5b80821115616421576000815560010161646d565b6001600160e01b03198116811461125757600080fd5b6000602082840312156164a957600080fd5b8135613b6b81616481565b6000806000606084860312156164c957600080fd5b505081359360208301359350604090920135919050565b60005b838110156164fb5781810151838201526020016164e3565b838111156136245750506000910152565b600081518084526165248160208601602086016164e0565b601f01601f19169290920160200192915050565b602081526000613b6b602083018461650c565b60006020828403121561655d57600080fd5b5035919050565b6001600160a01b038116811461125757600080fd5b803561491b81616564565b6000806040838503121561659757600080fd5b82356165a281616564565b946020939093013593505050565b634e487b7160e01b600052604160045260246000fd5b604051601f8201601f191681016001600160401b03811182821017156165ee576165ee6165b0565b604052919050565b60006001600160401b0382111561660f5761660f6165b0565b50601f01601f191660200190565b600061663061662b846165f6565b6165c6565b905082815283838301111561664457600080fd5b828260208301376000602084830101529392505050565b600082601f83011261666c57600080fd5b613b6b8383356020850161661d565b60006020828403121561668d57600080fd5b81356001600160401b038111156166a357600080fd5b6128028482850161665b565b60008083601f8401126166c157600080fd5b5081356001600160401b038111156166d857600080fd5b602083019150836020828501011115615fd457600080fd5b60008060008060006080868803121561670857600080fd5b853561671381616564565b9450602086013561672381616564565b93506040860135925060608601356001600160401b0381111561674557600080fd5b616751888289016166af565b969995985093965092949392505050565b60006020828403121561677457600080fd5b8135613b6b81616564565b60008060006060848603121561679457600080fd5b833561679f81616564565b925060208401356167af81616564565b929592945050506040919091013590565b600080604083850312156167d357600080fd5b50508035926020909101359150565b6000806000606084860312156167f757600080fd5b83359250602084013561680981616564565b915060408401356001600160401b0381111561682457600080fd5b6168308682870161665b565b9150509250925092565b8060005b600b81101561362457815184526020938401939091019060010161683e565b6102e08082526000908201610440830186835b600b8110156168a4576102df1986840301845261688e83835161650c565b6020948501949093509190910190600101616870565b505080925050506168b8602083018561683a565b61280261018083018461683a565b600080604083850312156168d957600080fd5b8235915060208301356001600160401b038111156168f657600080fd5b6169028582860161665b565b9150509250929050565b60008060006060848603121561692157600080fd5b8335925060208401359150604084013561693a81616564565b809150509250925092565b6000806000806060858703121561695b57600080fd5b843561696681616564565b93506020850135925060408501356001600160401b0381111561698857600080fd5b616994878288016166af565b95989497509550505050565b600080600080600080600080610100898b0312156169bd57600080fd5b88356001600160401b03808211156169d457600080fd5b6169e08c838d0161665b565b995060208b01359150808211156169f657600080fd5b50616a038b828c0161665b565b9750506040890135616a1481616564565b95506060890135616a2481616564565b94506080890135616a3481616564565b935060a0890135616a4481616564565b925060c0890135616a5481616564565b9150616a6260e08a01616579565b90509295985092959890939650565b801515811461125757600080fd5b60008060408385031215616a9257600080fd5b8235616a9d81616564565b91506020830135616aad81616a71565b809150509250929050565b60008060008060808587031215616ace57600080fd5b8435616ad981616564565b93506020850135616ae981616564565b92506040850135915060608501356001600160401b03811115616b0b57600080fd5b8501601f81018713616b1c57600080fd5b616b2b8782356020840161661d565b91505092959194509250565b60008060408385031215616b4a57600080fd5b8235616b5581616564565b91506020830135616aad81616564565b600181811c90821680616b7957607f821691505b60208210811415616b9a57634e487b7160e01b600052602260045260246000fd5b50919050565b634e487b7160e01b600052601160045260246000fd5b6000816000190483118215151615616bd057616bd0616ba0565b500290565b600082616bf257634e487b7160e01b600052601260045260246000fd5b500490565b634e487b7160e01b600052603260045260246000fd5b631cdbdd5b60e21b8152605f60f81b600482015260008351616c368160058501602088016164e0565b685f62616c616e63655f60b81b6005918401918201528351616c5f81600e8401602088016164e0565b01600e01949350505050565b600060208284031215616c7d57600080fd5b5051919050565b631cdbdd5b60e21b8152605f60f81b600482015260008351616cad8160058501602088016164e0565b695f686f6c6454696d655f60b01b6005918401918201528351616cd781600f8401602088016164e0565b01600f01949350505050565b6000600019821415616cf757616cf7616ba0565b5060010190565b60008351616d108184602088016164e0565b696c657420736565643d2760b01b9083019081528351616d3781600a8401602088016164e0565b61273b60f01b600a9290910191820152600c01949350505050565b60008351616d648184602088016164e0565b7f6c657420474d5f434f4e54524143545f414444524553533d27000000000000009083019081528351616d9e8160198401602088016164e0565b61273b60f01b60199290910191820152601b01949350505050565b600060208284031215616dcb57600080fd5b8151613b6b81616564565b60008351616de88184602088016164e0565b80830190507f6c657420535741505f504f4f4c5f474d5f4554485f434f4e54524143545f414481526644524553533d2760c81b60208201528351616e338160278401602088016164e0565b61273b60f01b60279290910191820152602901949350505050565b60008351616e608184602088016164e0565b7f6c657420534f554c5f4e46545f434f4e54524143543d270000000000000000009083019081528351616e9a8160178401602088016164e0565b61273b60f01b60179290910191820152601901949350505050565b60008351616ec78184602088016164e0565b6d6c657420544f4b454e5f49443d2760901b9083019081528351616ef281600e8401602088016164e0565b61273b60f01b600e9290910191820152601001949350505050565b60008251616f1f8184602087016164e0565b681e17b9b1b934b83a1f60b91b920191825250600901919050565b60008251616f4c8184602087016164e0565b9190910192915050565b60008219821115616f6957616f69616ba0565b500190565b60018060a01b038616815284602082015283604082015260a060608201526000616f9b60a083018561650c565b90508260808301529695505050505050565b600060208284031215616fbf57600080fd5b8151613b6b81616a71565b6001600160a01b03831681526040602082018190526000906128029083018461650c565b6001600160a01b03841681526060602082018190526000906170129083018561650c565b9050826040830152949350505050565b600061703061662b846165f6565b905082815283838301111561704457600080fd5b613b6b8360208301846164e0565b6000806040838503121561706557600080fd5b82516001600160401b0381111561707b57600080fd5b8301601f8101851361708c57600080fd5b61709b85825160208401617022565b925050602083015190509250929050565b600083516170be8184602088016164e0565b8351908301906170d28183602088016164e0565b01949350505050565b60208082526018908201527f534f554c5f41554354494f4e5f45524332305f544f4b454e0000000000000000604082015260600190565b60008282101561712457617124616ba0565b500390565b8054825260018101546001600160a01b03166001600160a01b03811660208401525060028101546040830152600381015460608301526004810154608083015260058101546001600160a01b03811660a084015261719160c0840160ff8360a01c1615159052565b50600681015460e0830152600781015461010083015260088101546101208301526009015461014090910152565b6001600160a01b03851681526020810184905282151560408201526101c081016111bd6060830184617129565b8281526101808101613b6b6020830184617129565b60006020828403121561721357600080fd5b81516001600160401b0381111561722957600080fd5b8201601f8101841361723a57600080fd5b61280284825160208401617022565b7519185d184e9d195e1d0bda1d1b5b0ed8985cd94d8d0b60521b81526000825161727a8160168501602087016164e0565b9190910160160192915050565b7216101130b734b6b0ba34b7b72fbab936111d1160691b815281516000906172b68160138501602087016164e0565b601160f91b6013939091019283015250601401919050565b8054600090600181811c90808316806172e857607f831692505b602080841082141561730a57634e487b7160e01b600052602260045260246000fd5b81801561731e576001811461732f5761735c565b60ff1986168952848901965061735c565b60008881526020902060005b868110156173545781548b82015290850190830161733b565b505084890196505b50505050505092915050565b683d913730b6b2911d1160b91b8152600061738660098301856172ce565b721116113232b9b1b934b83a34b7b7111d10111160691b81526c16101134b6b0b3b2911d10111160991b601382015283516173c88160208085019088016164e0565b7116101130ba3a3934b13aba32b9911d10111160711b60209290910191820152607d60f81b6032820152603301949350505050565b6000835161740f8184602088016164e0565b6111bd818401856172ce565b6001600160a01b0384168152602081018390526101a081016128026040830184617129565b6020808252602b908201527f496e697469616c697a61626c653a20636f6e7472616374206973206e6f74206960408201526a6e697469616c697a696e6760a81b606082015260800190565b60208082526032908201527f4552433732313a207472616e7366657220746f206e6f6e20455243373231526560408201527131b2b4bb32b91034b6b83632b6b2b73a32b960711b606082015260800190565b600085516174ef818460208a016164e0565b855190830190617503818360208a016164e0565b85519101906175168183602089016164e0565b84519101906175298183602088016164e0565b019695505050505050565b85815260208082018690526001600160a01b038516604083015260608201849052825160808301528201516101e082019061757a60a08401826001600160a01b03169052565b50604083015160c0830152606083015160e08301526080830151610100818185015260a085015191506101206175ba818601846001600160a01b03169052565b60c086015192506101406175d18187018515159052565b60e0870151610160870152918601516101808601528501516101a0850152909301516101c09092019190915295945050505050565b600061ffff8083168181141561761e5761761e616ba0565b6001019392505050565b60208082526025908201527f4552433732313a207472616e736665722066726f6d20696e636f72726563742060408201526437bbb732b960d91b606082015260800190565b60008161767c5761767c616ba0565b506000190190565b6001600160a01b03858116825284166020820152604081018390526080606082018190526000906176b79083018461650c565b9695505050505050565b6000602082840312156176d357600080fd5b8151613b6b81616481565b634e487b7160e01b600052602160045260246000fdfe4142434445464748494a4b4c4d4e4f505152535455565758595a6162636465666768696a6b6c6d6e6f707172737475767778797a303132333435363738392b2f3c7363726970742073616e64626f783d27616c6c6f772d736372697074732720747970653d27746578742f6a617661736372697074273ea264697066735822122019375ba25346cf865d898fe4ed9724e41cd91bde53a6415eaabbec0e02be207a64736f6c634300080c0033",
  "linkReferences": {},
  "deployedLinkReferences": {}
}