{
  "_format": "hh-sol-artifact-1",
  "contractName": "SOUL",
  "sourceName": "contracts/nfts/SOUL.sol",
  "abi": [
    {
      "anonymous": false,
      "inputs": [
        {
          "indexed": true,
          "internalType": "address",
          "name": "owner",
          "type": "address"
        },
        {
          "indexed": true,
          "internalType": "address",
          "name": "approved",
          "type": "address"
        },
        {
          "indexed": true,
          "internalType": "uint256",
          "name": "tokenId",
          "type": "uint256"
        }
      ],
      "name": "Approval",
      "type": "event"
    },
    {
      "anonymous": false,
      "inputs": [
        {
          "indexed": true,
          "internalType": "address",
          "name": "owner",
          "type": "address"
        },
        {
          "indexed": true,
          "internalType": "address",
          "name": "operator",
          "type": "address"
        },
        {
          "indexed": false,
          "internalType": "bool",
          "name": "approved",
          "type": "bool"
        }
      ],
      "name": "ApprovalForAll",
      "type": "event"
    },
    {
      "anonymous": false,
      "inputs": [
        {
          "indexed": true,
          "internalType": "uint256",
          "name": "tokenId",
          "type": "uint256"
        },
        {
          "indexed": false,
          "internalType": "address",
          "name": "sender",
          "type": "address"
        },
        {
          "indexed": false,
          "internalType": "uint256",
          "name": "value",
          "type": "uint256"
        },
        {
          "indexed": false,
          "internalType": "bool",
          "name": "extended",
          "type": "bool"
        }
      ],
      "name": "AuctionBid",
      "type": "event"
    },
    {
      "anonymous": false,
      "inputs": [
        {
          "indexed": true,
          "internalType": "uint256",
          "name": "tokenId",
          "type": "uint256"
        },
        {
          "indexed": false,
          "internalType": "address",
          "name": "sender",
          "type": "address"
        },
        {
          "indexed": false,
          "internalType": "uint256",
          "name": "value",
          "type": "uint256"
        }
      ],
      "name": "AuctionClaimBid",
      "type": "event"
    },
    {
      "anonymous": false,
      "inputs": [
        {
          "indexed": true,
          "internalType": "uint256",
          "name": "tokenId",
          "type": "uint256"
        }
      ],
      "name": "AuctionClosed",
      "type": "event"
    },
    {
      "anonymous": false,
      "inputs": [
        {
          "indexed": true,
          "internalType": "uint256",
          "name": "tokenId",
          "type": "uint256"
        },
        {
          "indexed": false,
          "internalType": "uint256",
          "name": "startTime",
          "type": "uint256"
        },
        {
          "indexed": false,
          "internalType": "uint256",
          "name": "endTime",
          "type": "uint256"
        }
      ],
      "name": "AuctionCreated",
      "type": "event"
    },
    {
      "anonymous": false,
      "inputs": [
        {
          "indexed": true,
          "internalType": "uint256",
          "name": "tokenId",
          "type": "uint256"
        },
        {
          "indexed": false,
          "internalType": "uint256",
          "name": "endTime",
          "type": "uint256"
        }
      ],
      "name": "AuctionExtended",
      "type": "event"
    },
    {
      "anonymous": false,
      "inputs": [
        {
          "indexed": false,
          "internalType": "uint256",
          "name": "minBidIncrementPercentage",
          "type": "uint256"
        }
      ],
      "name": "AuctionMinBidIncrementPercentageUpdated",
      "type": "event"
    },
    {
      "anonymous": false,
      "inputs": [
        {
          "indexed": false,
          "internalType": "uint256",
          "name": "reservePrice",
          "type": "uint256"
        }
      ],
      "name": "AuctionReservePriceUpdated",
      "type": "event"
    },
    {
      "anonymous": false,
      "inputs": [
        {
          "indexed": true,
          "internalType": "uint256",
          "name": "tokenId",
          "type": "uint256"
        },
        {
          "indexed": false,
          "internalType": "address",
          "name": "winner",
          "type": "address"
        },
        {
          "indexed": false,
          "internalType": "uint256",
          "name": "amount",
          "type": "uint256"
        }
      ],
      "name": "AuctionSettled",
      "type": "event"
    },
    {
      "anonymous": false,
      "inputs": [
        {
          "indexed": false,
          "internalType": "uint256",
          "name": "timeBuffer",
          "type": "uint256"
        }
      ],
      "name": "AuctionTimeBufferUpdated",
      "type": "event"
    },
    {
      "anonymous": false,
      "inputs": [
        {
          "indexed": true,
          "internalType": "address",
          "name": "reserver",
          "type": "address"
        },
        {
          "indexed": true,
          "internalType": "uint256",
          "name": "tokenId",
          "type": "uint256"
        },
        {
          "indexed": true,
          "internalType": "address",
          "name": "owner",
          "type": "address"
        },
        {
          "indexed": false,
          "internalType": "uint256",
          "name": "blockNumber",
          "type": "uint256"
        }
      ],
      "name": "Claim",
      "type": "event"
    },
    {
      "anonymous": false,
      "inputs": [
        {
          "indexed": false,
          "internalType": "uint8",
          "name": "version",
          "type": "uint8"
        }
      ],
      "name": "Initialized",
      "type": "event"
    },
    {
      "anonymous": false,
      "inputs": [
        {
          "indexed": true,
          "internalType": "address",
          "name": "previousOwner",
          "type": "address"
        },
        {
          "indexed": true,
          "internalType": "address",
          "name": "newOwner",
          "type": "address"
        }
      ],
      "name": "OwnershipTransferred",
      "type": "event"
    },
    {
      "anonymous": false,
      "inputs": [
        {
          "indexed": false,
          "internalType": "address",
          "name": "account",
          "type": "address"
        }
      ],
      "name": "Paused",
      "type": "event"
    },
    {
      "anonymous": false,
      "inputs": [
        {
          "indexed": true,
          "internalType": "address",
          "name": "reserver",
          "type": "address"
        },
        {
          "indexed": true,
          "internalType": "uint256",
          "name": "tokenId",
          "type": "uint256"
        },
        {
          "indexed": true,
          "internalType": "address",
          "name": "owner",
          "type": "address"
        },
        {
          "indexed": false,
          "internalType": "uint256",
          "name": "blockNumber",
          "type": "uint256"
        }
      ],
      "name": "Reserve",
      "type": "event"
    },
    {
      "anonymous": false,
      "inputs": [
        {
          "indexed": true,
          "internalType": "address",
          "name": "from",
          "type": "address"
        },
        {
          "indexed": true,
          "internalType": "address",
          "name": "to",
          "type": "address"
        },
        {
          "indexed": true,
          "internalType": "uint256",
          "name": "tokenId",
          "type": "uint256"
        }
      ],
      "name": "Transfer",
      "type": "event"
    },
    {
      "anonymous": false,
      "inputs": [
        {
          "indexed": false,
          "internalType": "address",
          "name": "account",
          "type": "address"
        }
      ],
      "name": "Unpaused",
      "type": "event"
    },
    {
      "inputs": [],
      "name": "_admin",
      "outputs": [
        {
          "internalType": "address",
          "name": "",
          "type": "address"
        }
      ],
      "stateMutability": "view",
      "type": "function"
    },
    {
      "inputs": [
        {
          "internalType": "uint256",
          "name": "",
          "type": "uint256"
        }
      ],
      "name": "_auctions",
      "outputs": [
        {
          "internalType": "uint256",
          "name": "tokenId",
          "type": "uint256"
        },
        {
          "internalType": "address",
          "name": "erc20Token",
          "type": "address"
        },
        {
          "internalType": "uint256",
          "name": "amount",
          "type": "uint256"
        },
        {
          "internalType": "uint256",
          "name": "startTime",
          "type": "uint256"
        },
        {
          "internalType": "uint256",
          "name": "endTime",
          "type": "uint256"
        },
        {
          "internalType": "address payable",
          "name": "bidder",
          "type": "address"
        },
        {
          "internalType": "bool",
          "name": "settled",
          "type": "bool"
        },
        {
          "internalType": "uint256",
          "name": "timeBuffer",
          "type": "uint256"
        },
        {
          "internalType": "uint256",
          "name": "reservePrice",
          "type": "uint256"
        },
        {
          "internalType": "uint256",
          "name": "minBidIncrementPercentage",
          "type": "uint256"
        }
      ],
      "stateMutability": "view",
      "type": "function"
    },
    {
      "inputs": [],
      "name": "_bfs",
      "outputs": [
        {
          "internalType": "address",
          "name": "",
          "type": "address"
        }
      ],
      "stateMutability": "view",
      "type": "function"
    },
    {
      "inputs": [
        {
          "internalType": "uint256",
          "name": "",
          "type": "uint256"
        },
        {
          "internalType": "address",
          "name": "",
          "type": "address"
        }
      ],
      "name": "_bidders",
      "outputs": [
        {
          "internalType": "uint256",
          "name": "",
          "type": "uint256"
        }
      ],
      "stateMutability": "view",
      "type": "function"
    },
    {
      "inputs": [],
      "name": "_gmToken",
      "outputs": [
        {
          "internalType": "address",
          "name": "",
          "type": "address"
        }
      ],
      "stateMutability": "view",
      "type": "function"
    },
    {
      "inputs": [],
      "name": "_maxSupply",
      "outputs": [
        {
          "internalType": "uint256",
          "name": "",
          "type": "uint256"
        }
      ],
      "stateMutability": "view",
      "type": "function"
    },
    {
      "inputs": [
        {
          "internalType": "uint256",
          "name": "",
          "type": "uint256"
        }
      ],
      "name": "_mintAt",
      "outputs": [
        {
          "internalType": "uint256",
          "name": "",
          "type": "uint256"
        }
      ],
      "stateMutability": "view",
      "type": "function"
    },
    {
      "inputs": [],
      "name": "_paramsAddress",
      "outputs": [
        {
          "internalType": "address",
          "name": "",
          "type": "address"
        }
      ],
      "stateMutability": "view",
      "type": "function"
    },
    {
      "inputs": [],
      "name": "_randomizerAddr",
      "outputs": [
        {
          "internalType": "address",
          "name": "",
          "type": "address"
        }
      ],
      "stateMutability": "view",
      "type": "function"
    },
    {
      "inputs": [],
      "name": "_script",
      "outputs": [
        {
          "internalType": "string",
          "name": "",
          "type": "string"
        }
      ],
      "stateMutability": "view",
      "type": "function"
    },
    {
      "inputs": [],
      "name": "_signerMint",
      "outputs": [
        {
          "internalType": "address",
          "name": "",
          "type": "address"
        }
      ],
      "stateMutability": "view",
      "type": "function"
    },
    {
      "inputs": [
        {
          "internalType": "address",
          "name": "to",
          "type": "address"
        },
        {
          "internalType": "uint256",
          "name": "tokenId",
          "type": "uint256"
        }
      ],
      "name": "approve",
      "outputs": [],
      "stateMutability": "nonpayable",
      "type": "function"
    },
    {
      "inputs": [
        {
          "internalType": "address",
          "name": "owner",
          "type": "address"
        }
      ],
      "name": "balanceOf",
      "outputs": [
        {
          "internalType": "uint256",
          "name": "",
          "type": "uint256"
        }
      ],
      "stateMutability": "view",
      "type": "function"
    },
    {
      "inputs": [
        {
          "internalType": "address",
          "name": "to",
          "type": "address"
        },
        {
          "internalType": "uint256",
          "name": "n",
          "type": "uint256"
        },
        {
          "internalType": "bytes",
          "name": "signatures",
          "type": "bytes"
        }
      ],
      "name": "batchMint",
      "outputs": [
        {
          "internalType": "uint256[]",
          "name": "",
          "type": "uint256[]"
        }
      ],
      "stateMutability": "payable",
      "type": "function"
    },
    {
      "inputs": [
        {
          "internalType": "address",
          "name": "newAdm",
          "type": "address"
        }
      ],
      "name": "changeAdmin",
      "outputs": [],
      "stateMutability": "nonpayable",
      "type": "function"
    },
    {
      "inputs": [
        {
          "internalType": "address",
          "name": "newBfs",
          "type": "address"
        }
      ],
      "name": "changeBfs",
      "outputs": [],
      "stateMutability": "nonpayable",
      "type": "function"
    },
    {
      "inputs": [
        {
          "internalType": "address",
          "name": "newBrc20",
          "type": "address"
        }
      ],
      "name": "changeBrc20Token",
      "outputs": [],
      "stateMutability": "nonpayable",
      "type": "function"
    },
    {
      "inputs": [
        {
          "internalType": "address",
          "name": "newAddr",
          "type": "address"
        }
      ],
      "name": "changeParamAddr",
      "outputs": [],
      "stateMutability": "nonpayable",
      "type": "function"
    },
    {
      "inputs": [
        {
          "internalType": "address",
          "name": "newAddr",
          "type": "address"
        }
      ],
      "name": "changeRandomizerAddr",
      "outputs": [],
      "stateMutability": "nonpayable",
      "type": "function"
    },
    {
      "inputs": [
        {
          "internalType": "string",
          "name": "newScript",
          "type": "string"
        }
      ],
      "name": "changeScript",
      "outputs": [],
      "stateMutability": "nonpayable",
      "type": "function"
    },
    {
      "inputs": [
        {
          "internalType": "address",
          "name": "newAdd",
          "type": "address"
        }
      ],
      "name": "changeSignerMint",
      "outputs": [],
      "stateMutability": "nonpayable",
      "type": "function"
    },
    {
      "inputs": [
        {
          "internalType": "uint256",
          "name": "tokenId",
          "type": "uint256"
        }
      ],
      "name": "claimBid",
      "outputs": [],
      "stateMutability": "nonpayable",
      "type": "function"
    },
    {
      "inputs": [
        {
          "internalType": "uint256",
          "name": "tokenId",
          "type": "uint256"
        }
      ],
      "name": "claimable",
      "outputs": [
        {
          "internalType": "bool",
          "name": "",
          "type": "bool"
        }
      ],
      "stateMutability": "view",
      "type": "function"
    },
    {
      "inputs": [
        {
          "internalType": "uint256",
          "name": "tokenId",
          "type": "uint256"
        }
      ],
      "name": "createAuction",
      "outputs": [],
      "stateMutability": "nonpayable",
      "type": "function"
    },
    {
      "inputs": [
        {
          "internalType": "uint256",
          "name": "tokenId",
          "type": "uint256"
        },
        {
          "internalType": "uint256",
          "name": "amount",
          "type": "uint256"
        }
      ],
      "name": "createBid",
      "outputs": [],
      "stateMutability": "payable",
      "type": "function"
    },
    {
      "inputs": [
        {
          "internalType": "uint256",
          "name": "tokenId",
          "type": "uint256"
        }
      ],
      "name": "getApproved",
      "outputs": [
        {
          "internalType": "address",
          "name": "",
          "type": "address"
        }
      ],
      "stateMutability": "view",
      "type": "function"
    },
    {
      "inputs": [
        {
          "internalType": "address",
          "name": "user",
          "type": "address"
        },
        {
          "internalType": "uint256",
          "name": "totalGM",
          "type": "uint256"
        }
      ],
      "name": "getMessageHash",
      "outputs": [
        {
          "internalType": "bytes32",
          "name": "",
          "type": "bytes32"
        }
      ],
      "stateMutability": "view",
      "type": "function"
    },
    {
      "inputs": [
        {
          "internalType": "string",
          "name": "name",
          "type": "string"
        },
        {
          "internalType": "string",
          "name": "symbol",
          "type": "string"
        },
        {
          "internalType": "address",
          "name": "admin",
          "type": "address"
        },
        {
          "internalType": "address",
          "name": "paramsAddress",
          "type": "address"
        },
        {
          "internalType": "address",
          "name": "randomizerAddr",
          "type": "address"
        },
        {
          "internalType": "address",
          "name": "gmToken",
          "type": "address"
        },
        {
          "internalType": "address",
          "name": "bfs",
          "type": "address"
        }
      ],
      "name": "initialize",
      "outputs": [],
      "stateMutability": "nonpayable",
      "type": "function"
    },
    {
      "inputs": [
        {
          "internalType": "address",
          "name": "owner",
          "type": "address"
        },
        {
          "internalType": "address",
          "name": "operator",
          "type": "address"
        }
      ],
      "name": "isApprovedForAll",
      "outputs": [
        {
          "internalType": "bool",
          "name": "",
          "type": "bool"
        }
      ],
      "stateMutability": "view",
      "type": "function"
    },
    {
      "inputs": [
        {
          "internalType": "address",
          "name": "to",
          "type": "address"
        },
        {
          "internalType": "address",
          "name": "user",
          "type": "address"
        },
        {
          "internalType": "uint256",
          "name": "totalGM",
          "type": "uint256"
        },
        {
          "internalType": "bytes",
          "name": "signature",
          "type": "bytes"
        }
      ],
      "name": "mint",
      "outputs": [
        {
          "internalType": "uint256",
          "name": "tokenId",
          "type": "uint256"
        }
      ],
      "stateMutability": "payable",
      "type": "function"
    },
    {
      "inputs": [],
      "name": "name",
      "outputs": [
        {
          "internalType": "string",
          "name": "",
          "type": "string"
        }
      ],
      "stateMutability": "view",
      "type": "function"
    },
    {
      "inputs": [],
      "name": "owner",
      "outputs": [
        {
          "internalType": "address",
          "name": "",
          "type": "address"
        }
      ],
      "stateMutability": "view",
      "type": "function"
    },
    {
      "inputs": [
        {
          "internalType": "uint256",
          "name": "tokenId",
          "type": "uint256"
        }
      ],
      "name": "ownerOf",
      "outputs": [
        {
          "internalType": "address",
          "name": "",
          "type": "address"
        }
      ],
      "stateMutability": "view",
      "type": "function"
    },
    {
      "inputs": [],
      "name": "p5jsScript",
      "outputs": [
        {
          "internalType": "string",
          "name": "result",
          "type": "string"
        }
      ],
      "stateMutability": "view",
      "type": "function"
    },
    {
      "inputs": [],
      "name": "paused",
      "outputs": [
        {
          "internalType": "bool",
          "name": "",
          "type": "bool"
        }
      ],
      "stateMutability": "view",
      "type": "function"
    },
    {
      "inputs": [],
      "name": "renounceOwnership",
      "outputs": [],
      "stateMutability": "nonpayable",
      "type": "function"
    },
    {
      "inputs": [
        {
          "internalType": "uint256",
          "name": "projectId",
          "type": "uint256"
        },
        {
          "internalType": "uint256",
          "name": "_salePrice",
          "type": "uint256"
        }
      ],
      "name": "royaltyInfo",
      "outputs": [
        {
          "internalType": "address",
          "name": "receiver",
          "type": "address"
        },
        {
          "internalType": "uint256",
          "name": "royaltyAmount",
          "type": "uint256"
        }
      ],
      "stateMutability": "view",
      "type": "function"
    },
    {
      "inputs": [
        {
          "internalType": "address",
          "name": "from",
          "type": "address"
        },
        {
          "internalType": "address",
          "name": "to",
          "type": "address"
        },
        {
          "internalType": "uint256",
          "name": "tokenId",
          "type": "uint256"
        }
      ],
      "name": "safeTransferFrom",
      "outputs": [],
      "stateMutability": "nonpayable",
      "type": "function"
    },
    {
      "inputs": [
        {
          "internalType": "address",
          "name": "from",
          "type": "address"
        },
        {
          "internalType": "address",
          "name": "to",
          "type": "address"
        },
        {
          "internalType": "uint256",
          "name": "tokenId",
          "type": "uint256"
        },
        {
          "internalType": "bytes",
          "name": "data",
          "type": "bytes"
        }
      ],
      "name": "safeTransferFrom",
      "outputs": [],
      "stateMutability": "nonpayable",
      "type": "function"
    },
    {
      "inputs": [
        {
          "internalType": "address",
          "name": "operator",
          "type": "address"
        },
        {
          "internalType": "bool",
          "name": "approved",
          "type": "bool"
        }
      ],
      "name": "setApprovalForAll",
      "outputs": [],
      "stateMutability": "nonpayable",
      "type": "function"
    },
    {
      "inputs": [
        {
          "internalType": "uint256",
          "name": "tokenId",
          "type": "uint256"
        }
      ],
      "name": "settleAuction",
      "outputs": [],
      "stateMutability": "nonpayable",
      "type": "function"
    },
    {
      "inputs": [
        {
          "internalType": "bytes4",
          "name": "interfaceId",
          "type": "bytes4"
        }
      ],
      "name": "supportsInterface",
      "outputs": [
        {
          "internalType": "bool",
          "name": "",
          "type": "bool"
        }
      ],
      "stateMutability": "view",
      "type": "function"
    },
    {
      "inputs": [],
      "name": "symbol",
      "outputs": [
        {
          "internalType": "string",
          "name": "",
          "type": "string"
        }
      ],
      "stateMutability": "view",
      "type": "function"
    },
    {
      "inputs": [
        {
          "internalType": "bytes32",
          "name": "seed",
          "type": "bytes32"
        },
        {
          "internalType": "uint256",
          "name": "tokenId",
          "type": "uint256"
        }
      ],
      "name": "tokenHTML",
      "outputs": [
        {
          "internalType": "string",
          "name": "result",
          "type": "string"
        }
      ],
      "stateMutability": "view",
      "type": "function"
    },
    {
      "inputs": [
        {
          "internalType": "uint256",
          "name": "tokenId",
          "type": "uint256"
        }
      ],
      "name": "tokenIdToHash",
      "outputs": [
        {
          "internalType": "bytes32",
          "name": "",
          "type": "bytes32"
        }
      ],
      "stateMutability": "view",
      "type": "function"
    },
    {
      "inputs": [
        {
          "internalType": "uint256",
          "name": "tokenId",
          "type": "uint256"
        }
      ],
      "name": "tokenURI",
      "outputs": [
        {
          "internalType": "string",
          "name": "result",
          "type": "string"
        }
      ],
      "stateMutability": "view",
      "type": "function"
    },
    {
      "inputs": [
        {
          "internalType": "address",
          "name": "from",
          "type": "address"
        },
        {
          "internalType": "address",
          "name": "to",
          "type": "address"
        },
        {
          "internalType": "uint256",
          "name": "tokenId",
          "type": "uint256"
        }
      ],
      "name": "transferFrom",
      "outputs": [],
      "stateMutability": "nonpayable",
      "type": "function"
    },
    {
      "inputs": [
        {
          "internalType": "address",
          "name": "newOwner",
          "type": "address"
        }
      ],
      "name": "transferOwnership",
      "outputs": [],
      "stateMutability": "nonpayable",
      "type": "function"
    },
    {
      "inputs": [
        {
          "internalType": "bytes32",
          "name": "seed",
          "type": "bytes32"
        },
        {
          "internalType": "uint256",
          "name": "tokenId",
          "type": "uint256"
        }
      ],
      "name": "variableScript",
      "outputs": [
        {
          "internalType": "string",
          "name": "result",
          "type": "string"
        }
      ],
      "stateMutability": "view",
      "type": "function"
    },
    {
      "inputs": [],
      "name": "web3Script",
      "outputs": [
        {
          "internalType": "string",
          "name": "result",
          "type": "string"
        }
      ],
      "stateMutability": "view",
      "type": "function"
    }
  ],
  "bytecode": "0x608060405234801561001057600080fd5b50615d9180620000216000396000f3fe6080604052600436106102c95760003560e01c806370a0823111610175578063b7751c71116100dc578063d1d58b2511610095578063eb29c2321161006f578063eb29c232146109ad578063f2fde38b146109cd578063f3f83ddd146109ed578063febfd6c314610a0d57600080fd5b8063d1d58b2514610924578063d5563f3114610944578063e985e9c51461096457600080fd5b8063b7751c7114610862578063b88d4fde14610875578063bd89684314610895578063c87b56dd146108b6578063c91f0c53146108d6578063cc22e004146108f657600080fd5b806393c6cdc01161012e57806393c6cdc0146107b657806395d89b41146107d65780639c6f35f9146107eb578063a0d41e111461080c578063a22cb46514610821578063adfc7dae1461084157600080fd5b806370a0823114610718578063715018a61461073857806374973a411461074d5780638a016249146107625780638da5cb5b146107775780638f2839701461079657600080fd5b80632b7d13de11610234578063512c91df116101ed578063621a1f74116101c7578063621a1f7414610680578063624de2a9146106a05780636352211e146106c057806366215eb4146106f757600080fd5b8063512c91df146106355780635c975abb146106555780636010a5e71461066d57600080fd5b80632b7d13de1461055b5780632d61bd091461057b5780632e993611146105b457806332e32326146105d457806333348979146105f457806342842e0e1461061557600080fd5b806317dc6bf61161028657806317dc6bf6146103c05780631ca9741b1461049757806321113057146104b757806322f4596f146104d757806323b872dd146104fc5780632a55205a1461051c57600080fd5b806301bc45c9146102ce57806301ffc9a71461030c57806306fdde031461033c578063081812fc1461035e578063095ea7b31461037e578063140f0e07146103a0575b600080fd5b3480156102da57600080fd5b5061015f546102ef906001600160a01b031681565b6040516001600160a01b0390911681526020015b60405180910390f35b34801561031857600080fd5b5061032c610327366004614e7e565b610a2d565b6040519015158152602001610303565b34801561034857600080fd5b50610351610a7f565b6040516103039190614ef3565b34801561036a57600080fd5b506102ef610379366004614f06565b610b11565b34801561038a57600080fd5b5061039e610399366004614f34565b610b38565b005b3480156103ac57600080fd5b5061039e6103bb36600461502b565b610c53565b3480156103cc57600080fd5b5061043b6103db366004614f06565b6101696020526000908152604090208054600182015460028301546003840154600485015460058601546006870154600788015460089098015496976001600160a01b0396871697959694959394831693600160a01b90930460ff16928a565b604080519a8b526001600160a01b03998a1660208c01528a019790975260608901959095526080880193909352941660a086015292151560c085015260e084019290925261010083019190915261012082015261014001610303565b3480156104a357600080fd5b5061039e6104b236600461505f565b610cb3565b3480156104c357600080fd5b5061039e6104d2366004614f06565b610d47565b3480156104e357600080fd5b506104ee6101655481565b604051908152602001610303565b34801561050857600080fd5b5061039e61051736600461507c565b610ebd565b34801561052857600080fd5b5061053c6105373660046150bd565b610f90565b604080516001600160a01b039093168352602083019190915201610303565b34801561056757600080fd5b5061039e61057636600461505f565b610fc1565b34801561058757600080fd5b506104ee6105963660046150df565b61016a60209081526000928352604080842090915290825290205481565b3480156105c057600080fd5b5061039e6105cf366004614f06565b611056565b3480156105e057600080fd5b506103516105ef3660046150bd565b61112a565b34801561060057600080fd5b50610168546102ef906001600160a01b031681565b34801561062157600080fd5b5061039e61063036600461507c565b611313565b34801561064157600080fd5b506104ee610650366004614f34565b61132e565b34801561066157600080fd5b5060975460ff1661032c565b6104ee61067b366004615150565b61138c565b34801561068c57600080fd5b506104ee61069b366004614f06565b61153f565b6106b36106ae3660046151c2565b61160d565b604051610303919061521d565b3480156106cc57600080fd5b506102ef6106db366004614f06565b600090815261016660205260409020546001600160a01b031690565b34801561070357600080fd5b50610161546102ef906001600160a01b031681565b34801561072457600080fd5b506104ee61073336600461505f565b6116da565b34801561074457600080fd5b5061039e611760565b34801561075957600080fd5b50610351611774565b34801561076e57600080fd5b506103516119ce565b34801561078357600080fd5b5061012d546001600160a01b03166102ef565b3480156107a257600080fd5b5061039e6107b136600461505f565b611a5d565b3480156107c257600080fd5b5061039e6107d136600461505f565b611af2565b3480156107e257600080fd5b50610351611b87565b3480156107f757600080fd5b50610164546102ef906001600160a01b031681565b34801561081857600080fd5b50610351611b96565b34801561082d57600080fd5b5061039e61083c36600461526f565b611dc7565b34801561084d57600080fd5b50610160546102ef906001600160a01b031681565b61039e6108703660046150bd565b611dd2565b34801561088157600080fd5b5061039e61089036600461529d565b6123e1565b3480156108a157600080fd5b5061016b546102ef906001600160a01b031681565b3480156108c257600080fd5b506103516108d1366004614f06565b6124bb565b3480156108e257600080fd5b5061039e6108f136600461531c565b612754565b34801561090257600080fd5b506104ee610911366004614f06565b6101676020526000908152604090205481565b34801561093057600080fd5b5061032c61093f366004614f06565b61296c565b34801561095057600080fd5b5061039e61095f366004614f06565b6129d6565b34801561097057600080fd5b5061032c61097f3660046153de565b6001600160a01b039182166000908152606a6020908152604080832093909416825291909152205460ff1690565b3480156109b957600080fd5b506103516109c83660046150bd565b612abc565b3480156109d957600080fd5b5061039e6109e836600461505f565b612b8e565b3480156109f957600080fd5b5061039e610a0836600461505f565b612c04565b348015610a1957600080fd5b5061039e610a2836600461505f565b612c99565b60006001600160e01b031982166380ac58cd60e01b1480610a5e57506001600160e01b03198216635b5e139f60e01b145b80610a7957506301ffc9a760e01b6001600160e01b03198316145b92915050565b606060658054610a8e9061540c565b80601f0160208091040260200160405190810160405280929190818152602001828054610aba9061540c565b8015610b075780601f10610adc57610100808354040283529160200191610b07565b820191906000526020600020905b815481529060010190602001808311610aea57829003601f168201915b5050505050905090565b6000610b1c82612d2e565b506000908152606960205260409020546001600160a01b031690565b6000610b4382612d7e565b9050806001600160a01b0316836001600160a01b03161415610bb65760405162461bcd60e51b815260206004820152602160248201527f4552433732313a20617070726f76616c20746f2063757272656e74206f776e656044820152603960f91b60648201526084015b60405180910390fd5b336001600160a01b0382161480610bd25750610bd2813361097f565b610c445760405162461bcd60e51b815260206004820152603d60248201527f4552433732313a20617070726f76652063616c6c6572206973206e6f7420746f60448201527f6b656e206f776e6572206f7220617070726f76656420666f7220616c6c0000006064820152608401610bad565b610c4e8383612dde565b505050565b61015f5460408051808201909152600381526231303160e81b6020820152906001600160a01b03163314610c9a5760405162461bcd60e51b8152600401610bad9190614ef3565b508051610caf90610163906020840190614dcf565b5050565b61015f546001600160a01b031633148015610cd657506001600160a01b03811615155b6040518060400160405280600381526020016231303160e81b81525090610d105760405162461bcd60e51b8152600401610bad9190614ef3565b50610161546001600160a01b03828116911614610d445761016180546001600160a01b0319166001600160a01b0383161790555b50565b610d4f612e4c565b60008181526101696020526040902060050154600160a01b900460ff16610d7557600080fd5b600081815261016960205260409020600501546001600160a01b0316331415610d9d57600080fd5b600081815261016a60209081526040808320338452909152902054610dc157600080fd5b6000818152610169602090815260408083206001015461016a83528184203380865293529281902054905163a9059cbb60e01b8152600481019290925260248201526001600160a01b039091169063a9059cbb906044016020604051808303816000875af1158015610e37573d6000803e3d6000fd5b505050506040513d601f19601f82011682018060405250810190610e5b9190615447565b50600081815261016a6020908152604080832033808552908352928190205481519384529183019190915282917f63ad079d900b92497dd34dccc37cb42c76aff5798f6084bd35af77d8cb5473fe910160405180910390a2610d44600160fb55565b336001600160a01b0384161415610efa5760405162461bcd60e51b81526020600482015260016024820152601560fa1b6044820152606401610bad565b333b63ffffffff1615610f355760405162461bcd60e51b8152602060048201526003602482015262545f3160e81b6044820152606401610bad565b60008181526101696020526040902060050154600160a01b900460ff16610f5b57600080fd5b600081815261016960205260409020600501546001600160a01b03838116911614610f8557600080fd5b610c4e838383612ead565b61015f546001600160a01b03166000612710610fae846101f461547a565b610fb89190615499565b90509250929050565b61015f546001600160a01b031633148015610fe457506001600160a01b03811615155b6040518060400160405280600381526020016231303160e81b8152509061101e5760405162461bcd60e51b8152600401610bad9190614ef3565b50610168546001600160a01b03828116911614610d445761016880546001600160a01b0383166001600160a01b031990911617905550565b61105e612e4c565b600081815261016660205260409020546001600160a01b03163314156110e357600061108933612ee8565b90506000611095612f58565b9050808210156110e05760405162461bcd60e51b815260206004820152601660248201527518985b185b98d94811d3480f081d1a1c995cda1bdb1960521b6044820152606401610bad565b50505b6111208161110783600090815261016660205260409020546001600160a01b031690565b6001600160a01b0316336001600160a01b031614612ffe565b610d44600160fb55565b6040805180820190915260128152711e39b1b934b83a1034b21e93bb30b939939f60711b60208201528061115d8461351c565b60405160200161116e9291906154bb565b60408051601f19818403018152919052610164549091508190611199906001600160a01b0316613568565b6040516020016111aa92919061550f565b60408051808303601f19018152908290526101605463bf40fac160e01b835260206004840152602160248401527f535741505f504f4f4c5f474d5f4554485f434f4e54524143545f4144445245536044840152605360f81b60648401529092506001600160a01b031690600090829063bf40fac190608401602060405180830381865afa15801561123f573d6000803e3d6000fd5b505050506040513d601f19601f820116820180604052508101906112639190615576565b90508261126f82613568565b604051602001611280929190615593565b60405160208183030381529060405292508261129b30613568565b6040516020016112ac92919061560b565b6040516020818303038152906040529250826112c78561357e565b6040516020016112d8929190615672565b6040516020818303038152906040529250826040516020016112fa91906156ca565b6040516020818303038152906040529250505092915050565b610c4e838383604051806020016040528060008152506123e1565b61016b5461016454604080513060208083019190915246828401526001600160a01b03948516606083015295841660808201529290911660a083015260c0808301939093528051808303909301835260e09091019052805191012090565b6000611396612e4c565b6101655461016254106040518060400160405280600381526020016232303360e81b815250906113d95760405162461bcd60e51b8152600401610bad9190614ef3565b5061015f546001600160a01b0316331461147157336001600160a01b0386161461142d5760405162461bcd60e51b815260206004820152600560248201526447505f495560d81b6044820152606401610bad565b61146e858585858080601f01602080910402602001604051908101604052809392919081815260200183838082843760009201919091525061361a92505050565b50505b6101628054906000611482836156f7565b91905055506101625490506114978682613693565b61016154604051631da00d8560e01b8152600481018390526001600160a01b03909116906000908290631da00d85906024016020604051808303816000875af11580156114e8573d6000803e3d6000fd5b505050506040513d601f19601f8201168201806040525081019061150c9190615712565b905061151883826136ad565b5050600081815261016760205260409020439055611536600160fb55565b95945050505050565b600061154a82613778565b6040518060400160405280600381526020016232303960e81b815250906115845760405162461bcd60e51b8152600401610bad9190614ef3565b5060008281526101666020526040902054600160a01b900460a01b6001600160a01b0319166115b557506000919050565b600082815261016660209081526040918290205491516115f092600160a01b900460a01b91016001600160a01b031991909116815260200190565b604051602081830303815290604052805190602001209050919050565b60606000846001600160401b0381111561162957611629614f60565b604051908082528060200260200182016040528015611652578160200160208202803683370190505b5061015f549091506001600160a01b0316331461166e57600080fd5b60005b858110156116ce57600061168988600080898961138c565b90508083838151811061169e5761169e61572b565b60200260200101818152505062030d405a10156116bb57506116ce565b50806116c6816156f7565b915050611671565b5090505b949350505050565b60006001600160a01b0382166117445760405162461bcd60e51b815260206004820152602960248201527f4552433732313a2061646472657373207a65726f206973206e6f7420612076616044820152683634b21037bbb732b960b91b6064820152608401610bad565b506001600160a01b031660009081526068602052604090205490565b611768613796565b61177260006137f1565b565b6060604051806060016040528060378152602001615d256037913961016854604080518082018252600d81526c70356a7340312e352e302e6a7360981b602082015261016054915163bf40fac160e01b81529394506001600160a01b039283169390929190911690600090829063bf40fac190611817906004016020808252600f908201526e29a1a924a82a2fa82927ab24a222a960891b604082015260600190565b602060405180830381865afa158015611834573d6000803e3d6000fd5b505050506040513d601f19601f820116820180604052508101906118589190615576565b90506000846001600160a01b031663ba67e64183866040518363ffffffff1660e01b815260040161188a929190615741565b602060405180830381865afa1580156118a7573d6000803e3d6000fd5b505050506040513d601f19601f820116820180604052508101906118cb9190615712565b90506118d8600182615765565b905060005b818110156119a35761015f5460405163283959d960e21b815260009182916001600160a01b038a81169263a0e567649261192192909116908b90889060040161577d565b600060405180830381865afa15801561193e573d6000803e3d6000fd5b505050506040513d6000823e601f3d908101601f1916820160405261196691908101906157e1565b91509150888260405160200161197d92919061583b565b60405160208183030381529060405298505050808061199b906156f7565b9150506118dd565b50856040516020016119b591906156ca565b6040516020818303038152906040529550505050505090565b61016380546119dc9061540c565b80601f0160208091040260200160405190810160405280929190818152602001828054611a089061540c565b8015611a555780601f10611a2a57610100808354040283529160200191611a55565b820191906000526020600020905b815481529060010190602001808311611a3857829003601f168201915b505050505081565b61015f546001600160a01b031633148015611a8057506001600160a01b03811615155b6040518060400160405280600381526020016231303160e81b81525090611aba5760405162461bcd60e51b8152600401610bad9190614ef3565b5061015f546001600160a01b03828116911614610d445761015f80546001600160a01b0383166001600160a01b031990911617905550565b61015f546001600160a01b031633148015611b1557506001600160a01b03811615155b6040518060400160405280600381526020016231303160e81b81525090611b4f5760405162461bcd60e51b8152600401610bad9190614ef3565b50610164546001600160a01b03828116911614610d445761016480546001600160a01b0383166001600160a01b031990911617905550565b606060668054610a8e9061540c565b6060604051806060016040528060378152602001615d256037913961016854604080518082018252600f81526e776562336a7340312e322e372e6a7360881b602082015261016054915163bf40fac160e01b81529394506001600160a01b039283169390929190911690600090829063bf40fac190611c3b906004016020808252600f908201526e29a1a924a82a2fa82927ab24a222a960891b604082015260600190565b602060405180830381865afa158015611c58573d6000803e3d6000fd5b505050506040513d601f19601f82011682018060405250810190611c7c9190615576565b90506000846001600160a01b031663ba67e64183866040518363ffffffff1660e01b8152600401611cae929190615741565b602060405180830381865afa158015611ccb573d6000803e3d6000fd5b505050506040513d601f19601f82011682018060405250810190611cef9190615712565b9050611cfc600182615765565b905060005b818110156119a35761015f5460405163283959d960e21b815260009182916001600160a01b038a81169263a0e5676492611d4592909116908b90889060040161577d565b600060405180830381865afa158015611d62573d6000803e3d6000fd5b505050506040513d6000823e601f3d908101601f19168201604052611d8a91908101906157e1565b915091508882604051602001611da192919061583b565b604051602081830303815290604052985050508080611dbf906156f7565b915050611d01565b610caf338383613844565b611dda612e4c565b611de38261296c565b611e185760405162461bcd60e51b8152600401610bad9060208082526004908201526304e5f43360e41b604082015260600190565b611e21336116da565b15611e575760405162461bcd60e51b8152602060048201526006602482015265272fa1982f9960d11b6044820152606401610bad565b6000828152610169602090815260408083206001015461016a83528184203385529092528220546001600160a01b0390911691611e948285615765565b600086815261016960205260409020549091508514611eea5760405162461bcd60e51b81526020600482015260126024820152713737ba103ab8103337b91030bab1ba34b7b760711b6044820152606401610bad565b600085815261016960205260409020600401544210611f3d5760405162461bcd60e51b815260206004820152600f60248201526e105d58dd1a5bdb88195e1c1a5c9959608a1b6044820152606401610bad565b604051636eb1769f60e11b815233600482015230602482015284906001600160a01b0385169063dd62ed3e90604401602060405180830381865afa158015611f89573d6000803e3d6000fd5b505050506040513d601f19601f82011682018060405250810190611fad9190615712565b1015611ffb5760405162461bcd60e51b815260206004820152601c60248201527f6e6f7420656e6f75676820616c6c6f7720657263323020746f6b656e000000006044820152606401610bad565b6040516370a0823160e01b815233600482015284906001600160a01b038516906370a0823190602401602060405180830381865afa158015612041573d6000803e3d6000fd5b505050506040513d601f19601f820116820180604052508101906120659190615712565b10156120ac5760405162461bcd60e51b81526020600482015260166024820152753737ba1032b737bab3b41032b9319918103a37b5b2b760511b6044820152606401610bad565b6000858152610169602052604090206007015481101561210e5760405162461bcd60e51b815260206004820152601f60248201527f4d7573742073656e64206174206c6561737420726573657276655072696365006044820152606401610bad565b60008581526101696020526040902060088101546002909101546064916121349161547a565b61213e9190615499565b6000868152610169602052604090206002015461215b9190615765565b8110156121d2576040805162461bcd60e51b81526020600482015260248101919091527f4d7573742073656e64206d6f7265207468616e206c617374206269642062792060448201527f6d696e426964496e6372656d656e7450657263656e7461676520616d6f756e746064820152608401610bad565b6040516323b872dd60e01b8152336004820152306024820152604481018590526001600160a01b038416906323b872dd906064016020604051808303816000875af1158015612225573d6000803e3d6000fd5b505050506040513d601f19601f820116820180604052508101906122499190615447565b6122955760405162461bcd60e51b815260206004820152601d60248201527f63616e206e6f74206765742065726332302066726f6d206269646465720000006044820152606401610bad565b600085815261016a60209081526040808320338085529083528184208590558884526101699092528220600281018490556005810180546001600160a01b03191690921790915560068101546004909101546122f290429061586a565b109050801561232c57600086815261016960205260409020600601546123189042615765565b600087815261016960205260409020600401555b6000868152610169602090815260409182902054825133815234928101929092528315158284015291517f1159164c56f277e6fc99c11731bd380e0347deb969b75523398734c252706ea39181900360600190a280156123d3576000868152610169602090815260409182902080546004909101549251928352917f6e912a3a9105bdd2af817ba5adc14e6c127c1035b5b648faa29ca0d58ab8ff4e910160405180910390a25b50505050610caf600160fb55565b336001600160a01b038516141561241e5760405162461bcd60e51b81526020600482015260016024820152601560fa1b6044820152606401610bad565b333b63ffffffff16156124595760405162461bcd60e51b8152602060048201526003602482015262545f3160e81b6044820152606401610bad565b60008281526101696020526040902060050154600160a01b900460ff1661247f57600080fd5b600082815261016960205260409020600501546001600160a01b038481169116146124a957600080fd5b6124b584848484613913565b50505050565b60606124c682613778565b6040518060400160405280600381526020016232303960e81b815250906125005760405162461bcd60e51b8152600401610bad9190614ef3565b5060405163188687dd60e21b815260048101839052600090309063621a1f7490602401602060405180830381865afa158015612540573d6000803e3d6000fd5b505050506040513d601f19601f820116820180604052508101906125649190615712565b61016054604051637594e11960e11b815260048101839052602481018690529192506001600160a01b031690600090309063eb29c23290604401600060405180830381865afa1580156125bb573d6000803e3d6000fd5b505050506040513d6000823e601f3d908101601f191682016040526125e39190810190615881565b905061260d816040516020016125f991906158c9565b604051602081830303815290604052613946565b60405160200161261d91906158e5565b60405160208183030381529060405290506000816040516020016126419190615923565b60408051601f198184030181528282018252600e83526d109054d157d5549257d51490525560921b6020840152905163349f642f60e11b81529092506000916001600160a01b0386169163693ec85e9161269d91600401614ef3565b600060405180830381865afa1580156126ba573d6000803e3d6000fd5b505050506040513d6000823e601f3d908101601f191682016040526126e29190810190615881565b9050806126ee30613568565b6126f78961357e565b6127008861351c565b604051602001612713949392919061596a565b6040516020818303038152906040529050808282604051602001612739939291906159ec565b60405160208183030381529060405295505050505050919050565b600054610100900460ff16158080156127745750600054600160ff909116105b8061278e5750303b15801561278e575060005460ff166001145b6127f15760405162461bcd60e51b815260206004820152602e60248201527f496e697469616c697a61626c653a20636f6e747261637420697320616c72656160448201526d191e481a5b9a5d1a585b1a5e995960921b6064820152608401610bad565b6000805460ff191660011790558015612814576000805461ff0019166101001790555b60408051808201909152600381526203130360ec1b60208201526001600160a01b0387166128555760405162461bcd60e51b8152600401610bad9190614ef3565b5060408051808201909152600381526203130360ec1b60208201526001600160a01b0386166128975760405162461bcd60e51b8152600401610bad9190614ef3565b5061016080546001600160a01b03199081166001600160a01b038881169190911790925561015f8054821689841617905561016180548216878416179055610164805482168684161790556103e86101655561016880549091169184169190911790556129048888613aab565b61290c613adc565b612914613b0b565b61291c613b3a565b8015612962576000805461ff0019169055604051600181527f7f26b83ff96e1f2b6a682f133852f6798a09c465da95921460cefb38474024989060200160405180910390a15b5050505050505050565b600081815261016660205260408120546001600160a01b03168161298f82612ee8565b9050600061299c33612ee8565b905060006129a8612f58565b905080831080156129b95750808210155b156129ca5750600195945050505050565b50600095945050505050565b6129de612e4c565b6129e78161296c565b612a1c5760405162461bcd60e51b8152600401610bad9060208082526004908201526304e5f43360e41b604082015260600190565b612a25336116da565b15612a5b5760405162461bcd60e51b8152602060048201526006602482015265272fa1982f9960d11b6044820152606401610bad565b612a63613b69565b60008281526101676020526040902054612a7d904361586a565b11612ab35760405162461bcd60e51b81526020600482015260066024820152654e5f43305f3360d01b6044820152606401610bad565b61112081613c06565b60408051808201909152600c81526b1e343a36b61f1e3432b0b21f60a11b602082015280612ae8611774565b604051602001612af992919061583b565b604051602081830303815290604052905080612b13611b96565b604051602001612b2492919061583b565b604051602081830303815290604052905080612b40848461112a565b604051602001612b5192919061583b565b604051602081830303815290604052905080610163604051602001612b77929190615aca565b604051602081830303815290604052905092915050565b612b96613796565b6001600160a01b038116612bfb5760405162461bcd60e51b815260206004820152602660248201527f4f776e61626c653a206e6577206f776e657220697320746865207a65726f206160448201526564647265737360d01b6064820152608401610bad565b610d44816137f1565b61015f546001600160a01b031633148015612c2757506001600160a01b03811615155b6040518060400160405280600381526020016231303160e81b81525090612c615760405162461bcd60e51b8152600401610bad9190614ef3565b5061016b546001600160a01b03828116911614610d445761016b80546001600160a01b0383166001600160a01b031990911617905550565b61015f546001600160a01b031633148015612cbc57506001600160a01b03811615155b6040518060400160405280600381526020016231303160e81b81525090612cf65760405162461bcd60e51b8152600401610bad9190614ef3565b50610160546001600160a01b03828116911614610d445761016080546001600160a01b0383166001600160a01b031990911617905550565b612d3781613778565b610d445760405162461bcd60e51b8152602060048201526018602482015277115490cdcc8c4e881a5b9d985b1a59081d1bdad95b88125160421b6044820152606401610bad565b6000818152606760205260408120546001600160a01b031680610a795760405162461bcd60e51b8152602060048201526018602482015277115490cdcc8c4e881a5b9d985b1a59081d1bdad95b88125160421b6044820152606401610bad565b600081815260696020526040902080546001600160a01b0319166001600160a01b0384169081179091558190612e1382612d7e565b6001600160a01b03167f8c5be1e5ebec7d5bd14f71427d1e84f3dd0314c0f7b2291e5b200ac8c7c3b92560405160405180910390a45050565b600260fb541415612e9f5760405162461bcd60e51b815260206004820152601f60248201527f5265656e7472616e637947756172643a207265656e7472616e742063616c6c006044820152606401610bad565b600260fb55565b600160fb55565b612eb88383836140ce565b60009081526101666020526040902080546001600160a01b0319166001600160a01b039290921691909117905550565b610164546040516370a0823160e01b81526001600160a01b03838116600483015260009216906370a0823190602401602060405180830381865afa158015612f34573d6000803e3d6000fd5b505050506040513d601f19601f82011682018060405250810190610a799190615712565b61016054604051636d12dce160e01b815260206004820152600c60248201526b11d357d512149154d213d31160a21b604482015260009182916001600160a01b0390911690636d12dce190606401602060405180830381865afa158015612fc3573d6000803e3d6000fd5b505050506040513d601f19601f82011682018060405250810190612fe79190615712565b905080612ff95750670de0b6b3a76400005b919050565b600082815261016960205260409020600301546130545760405162461bcd60e51b815260206004820152601460248201527320bab1ba34b7b7103430b9b713ba103132b3bab760611b6044820152606401610bad565b60008281526101696020526040902060050154600160a01b900460ff16156130be5760405162461bcd60e51b815260206004820181905260248201527f41756374696f6e2068617320616c7265616479206265656e20736574746c65646044820152606401610bad565b806133ba57600082815261016960205260409020600401544210156131205760405162461bcd60e51b8152602060048201526018602482015277105d58dd1a5bdb881a185cdb89dd0818dbdb5c1b195d195960421b6044820152606401610bad565b60008281526101696020526040812060058101805460ff60a01b198116600160a01b179091556003909101919091556001600160a01b0316156131a157600082815261016660205260409020546131a1906001600160a01b0316600084815261016960205260409020600581015490546001600160a01b0390911690610ebd565b6000828152610169602052604090206002015415613353576101605460405163bf40fac160e01b815260206004820152601c60248201527f534f554c5f41554354494f4e5f474d5f44414f5f54726561737572790000000060448201526000916001600160a01b03169063bf40fac190606401602060405180830381865afa158015613231573d6000803e3d6000fd5b505050506040513d601f19601f820116820180604052508101906132559190615576565b90506001600160a01b03811661326a57600080fd5b60008381526101696020526040902060018101546002909101546001600160a01b039091169063a9059cbb908390612710906132a89061232861547a565b6132b29190615499565b6040516001600160e01b031960e085901b1681526001600160a01b03909216600483015260248201526044016020604051808303816000875af11580156132fd573d6000803e3d6000fd5b505050506040513d601f19601f820116820180604052508101906133219190615447565b5050600082815261016a602090815260408083206101698352818420600501546001600160a01b031684529091528120555b600082815261016960209081526040918290208054600582015460029092015484516001600160a01b0390931683529282019290925290917fc9f72b276a388619c6d185d146697036241880c36654b1a3ffdad07c24038d99910160405180910390a25050565b6000828152610169602052604090206004015442106134165760405162461bcd60e51b8152602060048201526018602482015277105d58dd1a5bdb881a185cdb89dd0818dbdb5c1b195d195960421b6044820152606401610bad565b60008281526101696020526040812060058101805460ff60a01b1916600160a01b179055600381019190915560020154156134e057600082815261016960205260409081902060018101546005820154600290920154925163a9059cbb60e01b81526001600160a01b0392831660048201526024810193909352169063a9059cbb906044016020604051808303816000875af11580156134ba573d6000803e3d6000fd5b505050506040513d601f19601f820116820180604052508101906134de9190615447565b505b6000828152610169602052604080822054905190917fac4a907ec29adcc56774b757ecb1e1b4d597374fc9386107d05e2670259df7d391a25050565b60606135278261423f565b613534608084901b61423f565b60405161060f60f31b6020820152602281019290925260428201526062016040516020818303038152906040529050919050565b6060610a796001600160a01b03831660146143f1565b6060600061358b83614593565b60010190506000816001600160401b038111156135aa576135aa614f60565b6040519080825280601f01601f1916602001820160405280156135d4576020820181803683370190505b5090508181016020015b600019016f181899199a1a9b1b9c1cb0b131b232b360811b600a86061a8153600a850494508461360d57613612565b6135de565b509392505050565b6000806000613629868661132e565b9050600061363f6136398361466b565b866146a6565b61016b549091506001600160a01b038083169116146136885760405162461bcd60e51b815260206004820152600560248201526447505f4e4160d81b6044820152606401610bad565b969095509350505050565b610caf8282604051806020016040528060008152506146c2565b60008281526101666020908152604091829020548251808401909352600383526219181b60e91b91830191909152600160a01b900460a01b6001600160a01b0319161561370d5760405162461bcd60e51b8152600401610bad9190614ef3565b5060408051808201909152600381526232303760e81b6020820152816137465760405162461bcd60e51b8152600401610bad9190614ef3565b5060009182526101666020526040909120805460a09290921c600160a01b026001600160a01b03909216919091179055565b600090815261016660205260409020546001600160a01b0316151590565b61012d546001600160a01b031633146117725760405162461bcd60e51b815260206004820181905260248201527f4f776e61626c653a2063616c6c6572206973206e6f7420746865206f776e65726044820152606401610bad565b61012d80546001600160a01b038381166001600160a01b0319831681179093556040519116919082907f8be0079c531659141344cd1fd0a4f28419497f9722a3daafe3b4186f6b6457e090600090a35050565b816001600160a01b0316836001600160a01b031614156138a65760405162461bcd60e51b815260206004820152601960248201527f4552433732313a20617070726f766520746f2063616c6c6572000000000000006044820152606401610bad565b6001600160a01b038381166000818152606a6020908152604080832094871680845294825291829020805460ff191686151590811790915591519182527f17307eab39ab6107e8899845ad3d59bd9653f200f220920489ca2b5937696c31910160405180910390a3505050565b61391e848484612ead565b61392a848484846146f5565b6124b55760405162461bcd60e51b8152600401610bad90615b7b565b606081516000141561396657505060408051602081019091526000815290565b6000604051806060016040528060408152602001615ce560409139905060006003845160026139959190615765565b61399f9190615499565b6139aa90600461547a565b905060006139b9826020615765565b6001600160401b038111156139d0576139d0614f60565b6040519080825280601f01601f1916602001820160405280156139fa576020820181803683370190505b509050818152600183018586518101602084015b81831015613a66576003830192508251603f8160121c168501518253600182019150603f81600c1c168501518253600182019150603f8160061c168501518253600182019150603f8116850151825350600101613a0e565b600389510660018114613a805760028114613a9157613a9d565b613d3d60f01b600119830152613a9d565b603d60f81b6000198301525b509398975050505050505050565b600054610100900460ff16613ad25760405162461bcd60e51b8152600401610bad90615bcd565b610caf82826147f0565b600054610100900460ff16613b035760405162461bcd60e51b8152600401610bad90615bcd565b61177261483e565b600054610100900460ff16613b325760405162461bcd60e51b8152600401610bad90615bcd565b611772614865565b600054610100900460ff16613b615760405162461bcd60e51b8152600401610bad90615bcd565b611772614898565b61016054604051636d12dce160e01b815260206004820152600a602482015269474d5f5245534552564560b01b604482015260009182916001600160a01b0390911690636d12dce190606401602060405180830381865afa158015613bd2573d6000803e3d6000fd5b505050506040513d601f19601f82011682018060405250810190613bf69190615712565b905080612ff957506103f0919050565b613c0f81613778565b613c1857600080fd5b60008181526101696020526040902060050154600160a01b900460ff1680613c4d575060008181526101696020526040902054155b613cbf5760405162461bcd60e51b815260206004820152603860248201527f41756374696f6e2068617320616c7265616479206265656e20736574746c656460448201527f206f72203173742041756374696f6e206f6620746f6b656e00000000000000006064820152608401610bad565b426000613cca613b69565b613cd49083615765565b610160546040805161014081018252600080825260208201819052918101829052606081018290526080810182905260a0810182905260c0810182905260e0810182905261010081018290526101208101919091529192506001600160a01b03169084815260405163bf40fac160e01b815260206004820152601860248201527f534f554c5f41554354494f4e5f45524332305f544f4b454e000000000000000060448201526001600160a01b0383169063bf40fac190606401602060405180830381865afa158015613dab573d6000803e3d6000fd5b505050506040513d601f19601f82011682018060405250810190613dcf9190615576565b6001600160a01b0390811660208301526000604080840182905260608401879052608084018690523360a085015260c084019190915251636d12dce160e01b815290831690636d12dce190613e589060040160208082526018908201527f534f554c5f41554354494f4e5f54494d455f4255464645520000000000000000604082015260600190565b602060405180830381865afa158015613e75573d6000803e3d6000fd5b505050506040513d601f19601f82011682018060405250810190613e999190615712565b60e0820152604051636d12dce160e01b815260206004820152601a60248201527f534f554c5f41554354494f4e5f524553455256455f505249434500000000000060448201526001600160a01b03831690636d12dce190606401602060405180830381865afa158015613f10573d6000803e3d6000fd5b505050506040513d601f19601f82011682018060405250810190613f349190615712565b610100820152604051636d12dce160e01b815260206004820152602560248201527f534f554c5f41554354494f4e5f4d494e5f4249445f494e4352454153455f50456044820152641490d1539560da1b60648201526001600160a01b03831690636d12dce190608401602060405180830381865afa158015613fba573d6000803e3d6000fd5b505050506040513d601f19601f82011682018060405250810190613fde9190615712565b61012082019081526000868152610169602090815260409182902084518155818501516001820180546001600160a01b0319166001600160a01b03928316179055838601516002830155606086015160038301556080860151600483015560a086015160058301805460c0890151929093166001600160a81b031990931692909217600160a01b9115159190910217905560e0850151600682015561010085015160078201559251600890930192909255805186815291820185905286917fd6eddd1118d71820909c1197aa966dbc15ed6f508554252169cc3d5ccac756ca910160405180910390a25050505050565b826001600160a01b03166140e182612d7e565b6001600160a01b0316146141075760405162461bcd60e51b8152600401610bad90615c18565b6001600160a01b0382166141695760405162461bcd60e51b8152602060048201526024808201527f4552433732313a207472616e7366657220746f20746865207a65726f206164646044820152637265737360e01b6064820152608401610bad565b61417683838360016148c8565b826001600160a01b031661418982612d7e565b6001600160a01b0316146141af5760405162461bcd60e51b8152600401610bad90615c18565b600081815260696020908152604080832080546001600160a01b03199081169091556001600160a01b0387811680865260688552838620805460001901905590871680865283862080546001019055868652606790945282852080549092168417909155905184937fddf252ad1be2c89b69c2b068fc378daa952ba7f163c4a11628f55a4df523b3ef91a4505050565b7aff00000000000000ff00000000000000ff00000000000000ff00006bffffffff0000000000000000604083901c90811663ffffffff60c01b84161760201c63ffffffff60601b919091166001600160e01b031984161717601081901c9182167eff00000000000000ff00000000000000ff00000000000000ff000000000000821617600890811c7bff00000000000000ff00000000000000ff00000000000000ff000000939093167fff00000000000000ff00000000000000ff00000000000000ff000000000000009290921691909117919091179081901c7e0f000f000f000f000f000f000f000f000f000f000f000f000f000f000f000f167f0f000f000f000f000f000f000f000f000f000f000f000f000f000f000f000f00600492831c16179061438d827f0606060606060606060606060606060606060606060606060606060606060606615765565b901c7f0f0f0f0f0f0f0f0f0f0f0f0f0f0f0f0f0f0f0f0f0f0f0f0f0f0f0f0f0f0f0f0f1660076143bd919061547a565b6143e7827f3030303030303030303030303030303030303030303030303030303030303030615765565b610a799190615765565b6060600061440083600261547a565b61440b906002615765565b6001600160401b0381111561442257614422614f60565b6040519080825280601f01601f19166020018201604052801561444c576020820181803683370190505b509050600360fc1b816000815181106144675761446761572b565b60200101906001600160f81b031916908160001a905350600f60fb1b816001815181106144965761449661572b565b60200101906001600160f81b031916908160001a90535060006144ba84600261547a565b6144c5906001615765565b90505b600181111561453d576f181899199a1a9b1b9c1cb0b131b232b360811b85600f16601081106144f9576144f961572b565b1a60f81b82828151811061450f5761450f61572b565b60200101906001600160f81b031916908160001a90535060049490941c9361453681615c5d565b90506144c8565b50831561458c5760405162461bcd60e51b815260206004820181905260248201527f537472696e67733a20686578206c656e67746820696e73756666696369656e746044820152606401610bad565b9392505050565b60008072184f03e93ff9f4daa797ed6e38ed64bf6a1f0160401b83106145d25772184f03e93ff9f4daa797ed6e38ed64bf6a1f0160401b830492506040015b6d04ee2d6d415b85acef810000000083106145fe576d04ee2d6d415b85acef8100000000830492506020015b662386f26fc10000831061461c57662386f26fc10000830492506010015b6305f5e1008310614634576305f5e100830492506008015b612710831061464857612710830492506004015b6064831061465a576064830492506002015b600a8310610a795760010192915050565b6040517f19457468657265756d205369676e6564204d6573736167653a0a3332000000006020820152603c8101829052600090605c016115f0565b60008060006146b5858561493b565b9150915061361281614981565b6146cc8383614acf565b6146d960008484846146f5565b610c4e5760405162461bcd60e51b8152600401610bad90615b7b565b60006001600160a01b0384163b156147e857604051630a85bd0160e11b81526001600160a01b0385169063150b7a0290614739903390899088908890600401615c74565b6020604051808303816000875af1925050508015614774575060408051601f3d908101601f1916820190925261477191810190615cb1565b60015b6147ce573d8080156147a2576040519150601f19603f3d011682016040523d82523d6000602084013e6147a7565b606091505b5080516147c65760405162461bcd60e51b8152600401610bad90615b7b565b805181602001fd5b6001600160e01b031916630a85bd0160e11b1490506116d2565b5060016116d2565b600054610100900460ff166148175760405162461bcd60e51b8152600401610bad90615bcd565b815161482a906065906020850190614dcf565b508051610c4e906066906020840190614dcf565b600054610100900460ff16612ea65760405162461bcd60e51b8152600401610bad90615bcd565b600054610100900460ff1661488c5760405162461bcd60e51b8152600401610bad90615bcd565b6097805460ff19169055565b600054610100900460ff166148bf5760405162461bcd60e51b8152600401610bad90615bcd565b611772336137f1565b6148d484848484614b08565b60975460ff16156124b55760405162461bcd60e51b815260206004820152602b60248201527f4552433732315061757361626c653a20746f6b656e207472616e73666572207760448201526a1a1a5b19481c185d5cd95960aa1b6064820152608401610bad565b6000808251604114156149725760208301516040840151606085015160001a61496687828585614b90565b9450945050505061497a565b506000905060025b9250929050565b600081600481111561499557614995615cce565b141561499e5750565b60018160048111156149b2576149b2615cce565b1415614a005760405162461bcd60e51b815260206004820152601860248201527f45434453413a20696e76616c6964207369676e617475726500000000000000006044820152606401610bad565b6002816004811115614a1457614a14615cce565b1415614a625760405162461bcd60e51b815260206004820152601f60248201527f45434453413a20696e76616c6964207369676e6174757265206c656e677468006044820152606401610bad565b6003816004811115614a7657614a76615cce565b1415610d445760405162461bcd60e51b815260206004820152602260248201527f45434453413a20696e76616c6964207369676e6174757265202773272076616c604482015261756560f01b6064820152608401610bad565b614ad98282614c54565b60009081526101666020526040902080546001600160a01b0319166001600160a01b0392909216919091179055565b60018111156124b5576001600160a01b03841615614b4e576001600160a01b03841660009081526068602052604081208054839290614b4890849061586a565b90915550505b6001600160a01b038316156124b5576001600160a01b03831660009081526068602052604081208054839290614b85908490615765565b909155505050505050565b6000807f7fffffffffffffffffffffffffffffff5d576e7357a4501ddfe92f46681b20a0831115614bc75750600090506003614c4b565b6040805160008082526020820180845289905260ff881692820192909252606081018690526080810185905260019060a0016020604051602081039080840390855afa158015614c1b573d6000803e3d6000fd5b5050604051601f1901519150506001600160a01b038116614c4457600060019250925050614c4b565b9150600090505b94509492505050565b6001600160a01b038216614caa5760405162461bcd60e51b815260206004820181905260248201527f4552433732313a206d696e7420746f20746865207a65726f20616464726573736044820152606401610bad565b614cb381613778565b15614d005760405162461bcd60e51b815260206004820152601c60248201527f4552433732313a20746f6b656e20616c7265616479206d696e746564000000006044820152606401610bad565b614d0e6000838360016148c8565b614d1781613778565b15614d645760405162461bcd60e51b815260206004820152601c60248201527f4552433732313a20746f6b656e20616c7265616479206d696e746564000000006044820152606401610bad565b6001600160a01b038216600081815260686020908152604080832080546001019055848352606790915280822080546001600160a01b0319168417905551839291907fddf252ad1be2c89b69c2b068fc378daa952ba7f163c4a11628f55a4df523b3ef908290a45050565b828054614ddb9061540c565b90600052602060002090601f016020900481019282614dfd5760008555614e43565b82601f10614e1657805160ff1916838001178555614e43565b82800160010185558215614e43579182015b82811115614e43578251825591602001919060010190614e28565b50614e4f929150614e53565b5090565b5b80821115614e4f5760008155600101614e54565b6001600160e01b031981168114610d4457600080fd5b600060208284031215614e9057600080fd5b813561458c81614e68565b60005b83811015614eb6578181015183820152602001614e9e565b838111156124b55750506000910152565b60008151808452614edf816020860160208601614e9b565b601f01601f19169290920160200192915050565b60208152600061458c6020830184614ec7565b600060208284031215614f1857600080fd5b5035919050565b6001600160a01b0381168114610d4457600080fd5b60008060408385031215614f4757600080fd5b8235614f5281614f1f565b946020939093013593505050565b634e487b7160e01b600052604160045260246000fd5b604051601f8201601f191681016001600160401b0381118282101715614f9e57614f9e614f60565b604052919050565b60006001600160401b03821115614fbf57614fbf614f60565b50601f01601f191660200190565b6000614fe0614fdb84614fa6565b614f76565b9050828152838383011115614ff457600080fd5b828260208301376000602084830101529392505050565b600082601f83011261501c57600080fd5b61458c83833560208501614fcd565b60006020828403121561503d57600080fd5b81356001600160401b0381111561505357600080fd5b6116d28482850161500b565b60006020828403121561507157600080fd5b813561458c81614f1f565b60008060006060848603121561509157600080fd5b833561509c81614f1f565b925060208401356150ac81614f1f565b929592945050506040919091013590565b600080604083850312156150d057600080fd5b50508035926020909101359150565b600080604083850312156150f257600080fd5b82359150602083013561510481614f1f565b809150509250929050565b60008083601f84011261512157600080fd5b5081356001600160401b0381111561513857600080fd5b60208301915083602082850101111561497a57600080fd5b60008060008060006080868803121561516857600080fd5b853561517381614f1f565b9450602086013561518381614f1f565b93506040860135925060608601356001600160401b038111156151a557600080fd5b6151b18882890161510f565b969995985093965092949392505050565b600080600080606085870312156151d857600080fd5b84356151e381614f1f565b93506020850135925060408501356001600160401b0381111561520557600080fd5b6152118782880161510f565b95989497509550505050565b6020808252825182820181905260009190848201906040850190845b8181101561525557835183529284019291840191600101615239565b50909695505050505050565b8015158114610d4457600080fd5b6000806040838503121561528257600080fd5b823561528d81614f1f565b9150602083013561510481615261565b600080600080608085870312156152b357600080fd5b84356152be81614f1f565b935060208501356152ce81614f1f565b92506040850135915060608501356001600160401b038111156152f057600080fd5b8501601f8101871361530157600080fd5b61531087823560208401614fcd565b91505092959194509250565b600080600080600080600060e0888a03121561533757600080fd5b87356001600160401b038082111561534e57600080fd5b61535a8b838c0161500b565b985060208a013591508082111561537057600080fd5b5061537d8a828b0161500b565b965050604088013561538e81614f1f565b9450606088013561539e81614f1f565b935060808801356153ae81614f1f565b925060a08801356153be81614f1f565b915060c08801356153ce81614f1f565b8091505092959891949750929550565b600080604083850312156153f157600080fd5b82356153fc81614f1f565b9150602083013561510481614f1f565b600181811c9082168061542057607f821691505b6020821081141561544157634e487b7160e01b600052602260045260246000fd5b50919050565b60006020828403121561545957600080fd5b815161458c81615261565b634e487b7160e01b600052601160045260246000fd5b600081600019048311821515161561549457615494615464565b500290565b6000826154b657634e487b7160e01b600052601260045260246000fd5b500490565b600083516154cd818460208801614e9b565b696c657420736565643d2760b01b90830190815283516154f481600a840160208801614e9b565b61273b60f01b600a9290910191820152600c01949350505050565b60008351615521818460208801614e9b565b7f6c657420474d5f434f4e54524143545f414444524553533d2700000000000000908301908152835161555b816019840160208801614e9b565b61273b60f01b60199290910191820152601b01949350505050565b60006020828403121561558857600080fd5b815161458c81614f1f565b600083516155a5818460208801614e9b565b80830190507f6c657420535741505f504f4f4c5f474d5f4554485f434f4e54524143545f414481526644524553533d2760c81b602082015283516155f0816027840160208801614e9b565b61273b60f01b60279290910191820152602901949350505050565b6000835161561d818460208801614e9b565b7f6c657420736f6c617269734e6674436f6e7472616374416464726573733d2700908301908152835161565781601f840160208801614e9b565b61273b60f01b601f9290910191820152602101949350505050565b60008351615684818460208801614e9b565b6d6c657420544f4b454e5f49443d2760901b90830190815283516156af81600e840160208801614e9b565b61273b60f01b600e9290910191820152601001949350505050565b600082516156dc818460208701614e9b565b681e17b9b1b934b83a1f60b91b920191825250600901919050565b600060001982141561570b5761570b615464565b5060010190565b60006020828403121561572457600080fd5b5051919050565b634e487b7160e01b600052603260045260246000fd5b6001600160a01b03831681526040602082018190526000906116d290830184614ec7565b6000821982111561577857615778615464565b500190565b6001600160a01b03841681526060602082018190526000906157a190830185614ec7565b9050826040830152949350505050565b60006157bf614fdb84614fa6565b90508281528383830111156157d357600080fd5b61458c836020830184614e9b565b600080604083850312156157f457600080fd5b82516001600160401b0381111561580a57600080fd5b8301601f8101851361581b57600080fd5b61582a858251602084016157b1565b925050602083015190509250929050565b6000835161584d818460208801614e9b565b835190830190615861818360208801614e9b565b01949350505050565b60008282101561587c5761587c615464565b500390565b60006020828403121561589357600080fd5b81516001600160401b038111156158a957600080fd5b8201601f810184136158ba57600080fd5b6116d2848251602084016157b1565b600082516158db818460208701614e9b565b9190910192915050565b7519185d184e9d195e1d0bda1d1b5b0ed8985cd94d8d0b60521b815260008251615916816016850160208701614e9b565b9190910160160192915050565b7216101130b734b6b0ba34b7b72fbab936111d1160691b81528151600090615952816013850160208701614e9b565b601160f91b6013939091019283015250601401919050565b6000855161597c818460208a01614e9b565b8083019050602f60f81b808252865161599c816001850160208b01614e9b565b600192019182015284516159b7816002840160208901614e9b565b653f736565643d60d01b6002929091019182015283516159de816008840160208801614e9b565b016008019695505050505050565b7f7b226e616d65223a22222c226465736372697074696f6e223a2022220000000081526b16101134b6b0b3b2911d101160a11b601c8201528351600090615a3a816028850160208901614e9b565b6e1331b0b83a3ab9329e9b181818181160891b6028918401918201528451615a69816037840160208901614e9b565b7016101130ba3a3934b13aba32b9911d101160791b603792909101918201528351615a9b816048840160208801614e9b565b6a1331b0b83a3ab9329e981160a91b60489290910191820152607d60f81b605382015260540195945050505050565b600083516020615add8285838901614e9b565b845491840191600090600181811c9080831680615afb57607f831692505b858310811415615b1957634e487b7160e01b85526022600452602485fd5b808015615b2d5760018114615b3e57615b6b565b60ff19851688528388019550615b6b565b60008b81526020902060005b85811015615b635781548a820152908401908801615b4a565b505083880195505b50939a9950505050505050505050565b60208082526032908201527f4552433732313a207472616e7366657220746f206e6f6e20455243373231526560408201527131b2b4bb32b91034b6b83632b6b2b73a32b960711b606082015260800190565b6020808252602b908201527f496e697469616c697a61626c653a20636f6e7472616374206973206e6f74206960408201526a6e697469616c697a696e6760a81b606082015260800190565b60208082526025908201527f4552433732313a207472616e736665722066726f6d20696e636f72726563742060408201526437bbb732b960d91b606082015260800190565b600081615c6c57615c6c615464565b506000190190565b6001600160a01b0385811682528416602082015260408101839052608060608201819052600090615ca790830184614ec7565b9695505050505050565b600060208284031215615cc357600080fd5b815161458c81614e68565b634e487b7160e01b600052602160045260246000fdfe4142434445464748494a4b4c4d4e4f505152535455565758595a6162636465666768696a6b6c6d6e6f707172737475767778797a303132333435363738392b2f3c7363726970742073616e64626f783d27616c6c6f772d736372697074732720747970653d27746578742f6a617661736372697074273ea2646970667358221220a0cf3d0af8047378c89b67153519e68e5f12868b4d3996da2ca233ba1d02b64964736f6c634300080c0033",
  "linkReferences": {},
  "deployedLinkReferences": {}
}