{
  "_format": "hh-sol-artifact-1",
  "contractName": "SOUL",
  "sourceName": "contracts/nfts/SOUL.sol",
  "abi": [
    {
      "anonymous": false,
      "inputs": [
        {
          "indexed": true,
          "internalType": "address",
          "name": "owner",
          "type": "address"
        },
        {
          "indexed": true,
          "internalType": "address",
          "name": "approved",
          "type": "address"
        },
        {
          "indexed": true,
          "internalType": "uint256",
          "name": "tokenId",
          "type": "uint256"
        }
      ],
      "name": "Approval",
      "type": "event"
    },
    {
      "anonymous": false,
      "inputs": [
        {
          "indexed": true,
          "internalType": "address",
          "name": "owner",
          "type": "address"
        },
        {
          "indexed": true,
          "internalType": "address",
          "name": "operator",
          "type": "address"
        },
        {
          "indexed": false,
          "internalType": "bool",
          "name": "approved",
          "type": "bool"
        }
      ],
      "name": "ApprovalForAll",
      "type": "event"
    },
    {
      "anonymous": false,
      "inputs": [
        {
          "indexed": true,
          "internalType": "uint256",
          "name": "tokenId",
          "type": "uint256"
        },
        {
          "indexed": false,
          "internalType": "address",
          "name": "sender",
          "type": "address"
        },
        {
          "indexed": false,
          "internalType": "uint256",
          "name": "value",
          "type": "uint256"
        },
        {
          "indexed": false,
          "internalType": "bool",
          "name": "extended",
          "type": "bool"
        }
      ],
      "name": "AuctionBid",
      "type": "event"
    },
    {
      "anonymous": false,
      "inputs": [
        {
          "indexed": true,
          "internalType": "uint256",
          "name": "tokenId",
          "type": "uint256"
        },
        {
          "indexed": false,
          "internalType": "address",
          "name": "sender",
          "type": "address"
        },
        {
          "indexed": false,
          "internalType": "uint256",
          "name": "value",
          "type": "uint256"
        }
      ],
      "name": "AuctionClaimBid",
      "type": "event"
    },
    {
      "anonymous": false,
      "inputs": [
        {
          "indexed": true,
          "internalType": "uint256",
          "name": "tokenId",
          "type": "uint256"
        }
      ],
      "name": "AuctionClosed",
      "type": "event"
    },
    {
      "anonymous": false,
      "inputs": [
        {
          "indexed": true,
          "internalType": "uint256",
          "name": "tokenId",
          "type": "uint256"
        },
        {
          "indexed": false,
          "internalType": "uint256",
          "name": "startTime",
          "type": "uint256"
        },
        {
          "indexed": false,
          "internalType": "uint256",
          "name": "endTime",
          "type": "uint256"
        }
      ],
      "name": "AuctionCreated",
      "type": "event"
    },
    {
      "anonymous": false,
      "inputs": [
        {
          "indexed": true,
          "internalType": "uint256",
          "name": "tokenId",
          "type": "uint256"
        },
        {
          "indexed": false,
          "internalType": "uint256",
          "name": "endTime",
          "type": "uint256"
        }
      ],
      "name": "AuctionExtended",
      "type": "event"
    },
    {
      "anonymous": false,
      "inputs": [
        {
          "indexed": false,
          "internalType": "uint256",
          "name": "minBidIncrementPercentage",
          "type": "uint256"
        }
      ],
      "name": "AuctionMinBidIncrementPercentageUpdated",
      "type": "event"
    },
    {
      "anonymous": false,
      "inputs": [
        {
          "indexed": false,
          "internalType": "uint256",
          "name": "reservePrice",
          "type": "uint256"
        }
      ],
      "name": "AuctionReservePriceUpdated",
      "type": "event"
    },
    {
      "anonymous": false,
      "inputs": [
        {
          "indexed": true,
          "internalType": "uint256",
          "name": "tokenId",
          "type": "uint256"
        },
        {
          "indexed": false,
          "internalType": "address",
          "name": "winner",
          "type": "address"
        },
        {
          "indexed": false,
          "internalType": "uint256",
          "name": "amount",
          "type": "uint256"
        }
      ],
      "name": "AuctionSettled",
      "type": "event"
    },
    {
      "anonymous": false,
      "inputs": [
        {
          "indexed": false,
          "internalType": "uint256",
          "name": "timeBuffer",
          "type": "uint256"
        }
      ],
      "name": "AuctionTimeBufferUpdated",
      "type": "event"
    },
    {
      "anonymous": false,
      "inputs": [
        {
          "indexed": true,
          "internalType": "address",
          "name": "reserver",
          "type": "address"
        },
        {
          "indexed": true,
          "internalType": "uint256",
          "name": "tokenId",
          "type": "uint256"
        },
        {
          "indexed": true,
          "internalType": "address",
          "name": "owner",
          "type": "address"
        },
        {
          "indexed": false,
          "internalType": "uint256",
          "name": "blockNumber",
          "type": "uint256"
        }
      ],
      "name": "Claim",
      "type": "event"
    },
    {
      "anonymous": false,
      "inputs": [
        {
          "indexed": false,
          "internalType": "uint8",
          "name": "version",
          "type": "uint8"
        }
      ],
      "name": "Initialized",
      "type": "event"
    },
    {
      "anonymous": false,
      "inputs": [
        {
          "indexed": true,
          "internalType": "address",
          "name": "previousOwner",
          "type": "address"
        },
        {
          "indexed": true,
          "internalType": "address",
          "name": "newOwner",
          "type": "address"
        }
      ],
      "name": "OwnershipTransferred",
      "type": "event"
    },
    {
      "anonymous": false,
      "inputs": [
        {
          "indexed": false,
          "internalType": "address",
          "name": "account",
          "type": "address"
        }
      ],
      "name": "Paused",
      "type": "event"
    },
    {
      "anonymous": false,
      "inputs": [
        {
          "indexed": true,
          "internalType": "address",
          "name": "reserver",
          "type": "address"
        },
        {
          "indexed": true,
          "internalType": "uint256",
          "name": "tokenId",
          "type": "uint256"
        },
        {
          "indexed": true,
          "internalType": "address",
          "name": "owner",
          "type": "address"
        },
        {
          "indexed": false,
          "internalType": "uint256",
          "name": "blockNumber",
          "type": "uint256"
        }
      ],
      "name": "Reserve",
      "type": "event"
    },
    {
      "anonymous": false,
      "inputs": [
        {
          "indexed": true,
          "internalType": "address",
          "name": "from",
          "type": "address"
        },
        {
          "indexed": true,
          "internalType": "address",
          "name": "to",
          "type": "address"
        },
        {
          "indexed": true,
          "internalType": "uint256",
          "name": "tokenId",
          "type": "uint256"
        }
      ],
      "name": "Transfer",
      "type": "event"
    },
    {
      "anonymous": false,
      "inputs": [
        {
          "indexed": false,
          "internalType": "address",
          "name": "account",
          "type": "address"
        }
      ],
      "name": "Unpaused",
      "type": "event"
    },
    {
      "inputs": [],
      "name": "_admin",
      "outputs": [
        {
          "internalType": "address",
          "name": "",
          "type": "address"
        }
      ],
      "stateMutability": "view",
      "type": "function"
    },
    {
      "inputs": [
        {
          "internalType": "uint256",
          "name": "",
          "type": "uint256"
        }
      ],
      "name": "_auctions",
      "outputs": [
        {
          "internalType": "uint256",
          "name": "tokenId",
          "type": "uint256"
        },
        {
          "internalType": "address",
          "name": "erc20Token",
          "type": "address"
        },
        {
          "internalType": "uint256",
          "name": "amount",
          "type": "uint256"
        },
        {
          "internalType": "uint256",
          "name": "startTime",
          "type": "uint256"
        },
        {
          "internalType": "uint256",
          "name": "endTime",
          "type": "uint256"
        },
        {
          "internalType": "address payable",
          "name": "bidder",
          "type": "address"
        },
        {
          "internalType": "bool",
          "name": "settled",
          "type": "bool"
        },
        {
          "internalType": "uint256",
          "name": "timeBuffer",
          "type": "uint256"
        },
        {
          "internalType": "uint256",
          "name": "reservePrice",
          "type": "uint256"
        },
        {
          "internalType": "uint256",
          "name": "minBidIncrementPercentage",
          "type": "uint256"
        }
      ],
      "stateMutability": "view",
      "type": "function"
    },
    {
      "inputs": [],
      "name": "_bfs",
      "outputs": [
        {
          "internalType": "address",
          "name": "",
          "type": "address"
        }
      ],
      "stateMutability": "view",
      "type": "function"
    },
    {
      "inputs": [
        {
          "internalType": "uint256",
          "name": "",
          "type": "uint256"
        },
        {
          "internalType": "address",
          "name": "",
          "type": "address"
        }
      ],
      "name": "_bidders",
      "outputs": [
        {
          "internalType": "uint256",
          "name": "",
          "type": "uint256"
        }
      ],
      "stateMutability": "view",
      "type": "function"
    },
    {
      "inputs": [],
      "name": "_gmToken",
      "outputs": [
        {
          "internalType": "address",
          "name": "",
          "type": "address"
        }
      ],
      "stateMutability": "view",
      "type": "function"
    },
    {
      "inputs": [],
      "name": "_maxSupply",
      "outputs": [
        {
          "internalType": "uint256",
          "name": "",
          "type": "uint256"
        }
      ],
      "stateMutability": "view",
      "type": "function"
    },
    {
      "inputs": [
        {
          "internalType": "uint256",
          "name": "",
          "type": "uint256"
        }
      ],
      "name": "_mintAt",
      "outputs": [
        {
          "internalType": "uint256",
          "name": "",
          "type": "uint256"
        }
      ],
      "stateMutability": "view",
      "type": "function"
    },
    {
      "inputs": [
        {
          "internalType": "address",
          "name": "",
          "type": "address"
        }
      ],
      "name": "_minted",
      "outputs": [
        {
          "internalType": "uint256",
          "name": "",
          "type": "uint256"
        }
      ],
      "stateMutability": "view",
      "type": "function"
    },
    {
      "inputs": [],
      "name": "_paramsAddress",
      "outputs": [
        {
          "internalType": "address",
          "name": "",
          "type": "address"
        }
      ],
      "stateMutability": "view",
      "type": "function"
    },
    {
      "inputs": [],
      "name": "_randomizerAddr",
      "outputs": [
        {
          "internalType": "address",
          "name": "",
          "type": "address"
        }
      ],
      "stateMutability": "view",
      "type": "function"
    },
    {
      "inputs": [],
      "name": "_script",
      "outputs": [
        {
          "internalType": "string",
          "name": "",
          "type": "string"
        }
      ],
      "stateMutability": "view",
      "type": "function"
    },
    {
      "inputs": [],
      "name": "_signerMint",
      "outputs": [
        {
          "internalType": "address",
          "name": "",
          "type": "address"
        }
      ],
      "stateMutability": "view",
      "type": "function"
    },
    {
      "inputs": [
        {
          "internalType": "address",
          "name": "to",
          "type": "address"
        },
        {
          "internalType": "uint256",
          "name": "tokenId",
          "type": "uint256"
        }
      ],
      "name": "approve",
      "outputs": [],
      "stateMutability": "nonpayable",
      "type": "function"
    },
    {
      "inputs": [
        {
          "internalType": "uint256",
          "name": "tokenId",
          "type": "uint256"
        }
      ],
      "name": "available",
      "outputs": [
        {
          "internalType": "bool",
          "name": "",
          "type": "bool"
        }
      ],
      "stateMutability": "view",
      "type": "function"
    },
    {
      "inputs": [
        {
          "internalType": "address",
          "name": "owner",
          "type": "address"
        }
      ],
      "name": "balanceOf",
      "outputs": [
        {
          "internalType": "uint256",
          "name": "",
          "type": "uint256"
        }
      ],
      "stateMutability": "view",
      "type": "function"
    },
    {
      "inputs": [
        {
          "internalType": "address",
          "name": "to",
          "type": "address"
        },
        {
          "internalType": "uint256",
          "name": "n",
          "type": "uint256"
        },
        {
          "internalType": "bytes",
          "name": "signatures",
          "type": "bytes"
        }
      ],
      "name": "batchMint",
      "outputs": [
        {
          "internalType": "uint256[]",
          "name": "",
          "type": "uint256[]"
        }
      ],
      "stateMutability": "payable",
      "type": "function"
    },
    {
      "inputs": [
        {
          "internalType": "uint256",
          "name": "tokenId",
          "type": "uint256"
        }
      ],
      "name": "biddable",
      "outputs": [
        {
          "internalType": "bool",
          "name": "",
          "type": "bool"
        }
      ],
      "stateMutability": "view",
      "type": "function"
    },
    {
      "inputs": [
        {
          "internalType": "address",
          "name": "newAdm",
          "type": "address"
        }
      ],
      "name": "changeAdmin",
      "outputs": [],
      "stateMutability": "nonpayable",
      "type": "function"
    },
    {
      "inputs": [
        {
          "internalType": "address",
          "name": "newBfs",
          "type": "address"
        }
      ],
      "name": "changeBfs",
      "outputs": [],
      "stateMutability": "nonpayable",
      "type": "function"
    },
    {
      "inputs": [
        {
          "internalType": "address",
          "name": "newBrc20",
          "type": "address"
        }
      ],
      "name": "changeBrc20Token",
      "outputs": [],
      "stateMutability": "nonpayable",
      "type": "function"
    },
    {
      "inputs": [
        {
          "internalType": "address",
          "name": "newAddr",
          "type": "address"
        }
      ],
      "name": "changeParamAddr",
      "outputs": [],
      "stateMutability": "nonpayable",
      "type": "function"
    },
    {
      "inputs": [
        {
          "internalType": "address",
          "name": "newAddr",
          "type": "address"
        }
      ],
      "name": "changeRandomizerAddr",
      "outputs": [],
      "stateMutability": "nonpayable",
      "type": "function"
    },
    {
      "inputs": [
        {
          "internalType": "string",
          "name": "newScript",
          "type": "string"
        }
      ],
      "name": "changeScript",
      "outputs": [],
      "stateMutability": "nonpayable",
      "type": "function"
    },
    {
      "inputs": [
        {
          "internalType": "address",
          "name": "newAdd",
          "type": "address"
        }
      ],
      "name": "changeSignerMint",
      "outputs": [],
      "stateMutability": "nonpayable",
      "type": "function"
    },
    {
      "inputs": [
        {
          "internalType": "uint256",
          "name": "tokenId",
          "type": "uint256"
        }
      ],
      "name": "claimBid",
      "outputs": [],
      "stateMutability": "nonpayable",
      "type": "function"
    },
    {
      "inputs": [
        {
          "internalType": "uint256",
          "name": "tokenId",
          "type": "uint256"
        }
      ],
      "name": "createAuction",
      "outputs": [],
      "stateMutability": "nonpayable",
      "type": "function"
    },
    {
      "inputs": [
        {
          "internalType": "uint256",
          "name": "tokenId",
          "type": "uint256"
        },
        {
          "internalType": "uint256",
          "name": "amount",
          "type": "uint256"
        }
      ],
      "name": "createBid",
      "outputs": [],
      "stateMutability": "payable",
      "type": "function"
    },
    {
      "inputs": [
        {
          "internalType": "uint256",
          "name": "tokenId",
          "type": "uint256"
        }
      ],
      "name": "getApproved",
      "outputs": [
        {
          "internalType": "address",
          "name": "",
          "type": "address"
        }
      ],
      "stateMutability": "view",
      "type": "function"
    },
    {
      "inputs": [
        {
          "internalType": "address",
          "name": "user",
          "type": "address"
        },
        {
          "internalType": "uint256",
          "name": "totalGM",
          "type": "uint256"
        }
      ],
      "name": "getMessageHash",
      "outputs": [
        {
          "internalType": "bytes32",
          "name": "",
          "type": "bytes32"
        }
      ],
      "stateMutability": "view",
      "type": "function"
    },
    {
      "inputs": [
        {
          "internalType": "string",
          "name": "name",
          "type": "string"
        },
        {
          "internalType": "string",
          "name": "symbol",
          "type": "string"
        },
        {
          "internalType": "address",
          "name": "admin",
          "type": "address"
        },
        {
          "internalType": "address",
          "name": "paramsAddress",
          "type": "address"
        },
        {
          "internalType": "address",
          "name": "randomizerAddr",
          "type": "address"
        },
        {
          "internalType": "address",
          "name": "gmToken",
          "type": "address"
        },
        {
          "internalType": "address",
          "name": "bfs",
          "type": "address"
        },
        {
          "internalType": "address",
          "name": "signerMint",
          "type": "address"
        }
      ],
      "name": "initialize",
      "outputs": [],
      "stateMutability": "nonpayable",
      "type": "function"
    },
    {
      "inputs": [
        {
          "internalType": "address",
          "name": "owner",
          "type": "address"
        },
        {
          "internalType": "address",
          "name": "operator",
          "type": "address"
        }
      ],
      "name": "isApprovedForAll",
      "outputs": [
        {
          "internalType": "bool",
          "name": "",
          "type": "bool"
        }
      ],
      "stateMutability": "view",
      "type": "function"
    },
    {
      "inputs": [
        {
          "internalType": "address",
          "name": "to",
          "type": "address"
        },
        {
          "internalType": "uint256",
          "name": "totalGM",
          "type": "uint256"
        },
        {
          "internalType": "bytes",
          "name": "signature",
          "type": "bytes"
        }
      ],
      "name": "mint",
      "outputs": [
        {
          "internalType": "uint256",
          "name": "tokenId",
          "type": "uint256"
        }
      ],
      "stateMutability": "payable",
      "type": "function"
    },
    {
      "inputs": [],
      "name": "name",
      "outputs": [
        {
          "internalType": "string",
          "name": "",
          "type": "string"
        }
      ],
      "stateMutability": "view",
      "type": "function"
    },
    {
      "inputs": [],
      "name": "owner",
      "outputs": [
        {
          "internalType": "address",
          "name": "",
          "type": "address"
        }
      ],
      "stateMutability": "view",
      "type": "function"
    },
    {
      "inputs": [
        {
          "internalType": "uint256",
          "name": "tokenId",
          "type": "uint256"
        }
      ],
      "name": "ownerOf",
      "outputs": [
        {
          "internalType": "address",
          "name": "",
          "type": "address"
        }
      ],
      "stateMutability": "view",
      "type": "function"
    },
    {
      "inputs": [],
      "name": "p5jsScript",
      "outputs": [
        {
          "internalType": "string",
          "name": "result",
          "type": "string"
        }
      ],
      "stateMutability": "view",
      "type": "function"
    },
    {
      "inputs": [],
      "name": "paused",
      "outputs": [
        {
          "internalType": "bool",
          "name": "",
          "type": "bool"
        }
      ],
      "stateMutability": "view",
      "type": "function"
    },
    {
      "inputs": [],
      "name": "renounceOwnership",
      "outputs": [],
      "stateMutability": "nonpayable",
      "type": "function"
    },
    {
      "inputs": [
        {
          "internalType": "uint256",
          "name": "projectId",
          "type": "uint256"
        },
        {
          "internalType": "uint256",
          "name": "_salePrice",
          "type": "uint256"
        }
      ],
      "name": "royaltyInfo",
      "outputs": [
        {
          "internalType": "address",
          "name": "receiver",
          "type": "address"
        },
        {
          "internalType": "uint256",
          "name": "royaltyAmount",
          "type": "uint256"
        }
      ],
      "stateMutability": "view",
      "type": "function"
    },
    {
      "inputs": [
        {
          "internalType": "address",
          "name": "from",
          "type": "address"
        },
        {
          "internalType": "address",
          "name": "to",
          "type": "address"
        },
        {
          "internalType": "uint256",
          "name": "tokenId",
          "type": "uint256"
        }
      ],
      "name": "safeTransferFrom",
      "outputs": [],
      "stateMutability": "nonpayable",
      "type": "function"
    },
    {
      "inputs": [
        {
          "internalType": "address",
          "name": "from",
          "type": "address"
        },
        {
          "internalType": "address",
          "name": "to",
          "type": "address"
        },
        {
          "internalType": "uint256",
          "name": "tokenId",
          "type": "uint256"
        },
        {
          "internalType": "bytes",
          "name": "data",
          "type": "bytes"
        }
      ],
      "name": "safeTransferFrom",
      "outputs": [],
      "stateMutability": "nonpayable",
      "type": "function"
    },
    {
      "inputs": [
        {
          "internalType": "address",
          "name": "operator",
          "type": "address"
        },
        {
          "internalType": "bool",
          "name": "approved",
          "type": "bool"
        }
      ],
      "name": "setApprovalForAll",
      "outputs": [],
      "stateMutability": "nonpayable",
      "type": "function"
    },
    {
      "inputs": [
        {
          "internalType": "uint256",
          "name": "tokenId",
          "type": "uint256"
        }
      ],
      "name": "settleAuction",
      "outputs": [],
      "stateMutability": "nonpayable",
      "type": "function"
    },
    {
      "inputs": [
        {
          "internalType": "bytes4",
          "name": "interfaceId",
          "type": "bytes4"
        }
      ],
      "name": "supportsInterface",
      "outputs": [
        {
          "internalType": "bool",
          "name": "",
          "type": "bool"
        }
      ],
      "stateMutability": "view",
      "type": "function"
    },
    {
      "inputs": [],
      "name": "symbol",
      "outputs": [
        {
          "internalType": "string",
          "name": "",
          "type": "string"
        }
      ],
      "stateMutability": "view",
      "type": "function"
    },
    {
      "inputs": [
        {
          "internalType": "bytes32",
          "name": "seed",
          "type": "bytes32"
        },
        {
          "internalType": "uint256",
          "name": "tokenId",
          "type": "uint256"
        }
      ],
      "name": "tokenHTML",
      "outputs": [
        {
          "internalType": "string",
          "name": "result",
          "type": "string"
        }
      ],
      "stateMutability": "view",
      "type": "function"
    },
    {
      "inputs": [
        {
          "internalType": "uint256",
          "name": "tokenId",
          "type": "uint256"
        }
      ],
      "name": "tokenIdToHash",
      "outputs": [
        {
          "internalType": "bytes32",
          "name": "",
          "type": "bytes32"
        }
      ],
      "stateMutability": "view",
      "type": "function"
    },
    {
      "inputs": [
        {
          "internalType": "uint256",
          "name": "tokenId",
          "type": "uint256"
        }
      ],
      "name": "tokenURI",
      "outputs": [
        {
          "internalType": "string",
          "name": "result",
          "type": "string"
        }
      ],
      "stateMutability": "view",
      "type": "function"
    },
    {
      "inputs": [
        {
          "internalType": "address",
          "name": "from",
          "type": "address"
        },
        {
          "internalType": "address",
          "name": "to",
          "type": "address"
        },
        {
          "internalType": "uint256",
          "name": "tokenId",
          "type": "uint256"
        }
      ],
      "name": "transferFrom",
      "outputs": [],
      "stateMutability": "nonpayable",
      "type": "function"
    },
    {
      "inputs": [
        {
          "internalType": "address",
          "name": "newOwner",
          "type": "address"
        }
      ],
      "name": "transferOwnership",
      "outputs": [],
      "stateMutability": "nonpayable",
      "type": "function"
    },
    {
      "inputs": [
        {
          "internalType": "bytes32",
          "name": "seed",
          "type": "bytes32"
        },
        {
          "internalType": "uint256",
          "name": "tokenId",
          "type": "uint256"
        }
      ],
      "name": "variableScript",
      "outputs": [
        {
          "internalType": "string",
          "name": "result",
          "type": "string"
        }
      ],
      "stateMutability": "view",
      "type": "function"
    },
    {
      "inputs": [],
      "name": "web3Script",
      "outputs": [
        {
          "internalType": "string",
          "name": "result",
          "type": "string"
        }
      ],
      "stateMutability": "view",
      "type": "function"
    },
    {
      "inputs": [
        {
          "internalType": "address",
          "name": "erc20Addr",
          "type": "address"
        },
        {
          "internalType": "uint256",
          "name": "amount",
          "type": "uint256"
        }
      ],
      "name": "withdraw",
      "outputs": [],
      "stateMutability": "nonpayable",
      "type": "function"
    }
  ],
  "bytecode": "0x608060405234801561001057600080fd5b50615d7880620000216000396000f3fe60806040526004361061031a5760003560e01c8063715018a6116101ab578063a22cb465116100f7578063d5563f3111610095578063f2fde38b1161006f578063f2fde38b14610a4b578063f3f83ddd14610a6b578063f3fef3a314610a8b578063febfd6c314610aab57600080fd5b8063d5563f31146109c2578063e985e9c5146109e2578063eb29c23214610a2b57600080fd5b8063b88d4fde116100d1578063b88d4fde14610938578063bd89684314610953578063c87b56dd14610974578063cc22e0041461099457600080fd5b8063a22cb465146108e4578063adfc7dae14610904578063b7751c711461092557600080fd5b806393c6cdc01161016457806395d89b411161013e57806395d89b411461087957806396e494e81461088e5780639c6f35f9146108ae578063a0d41e11146108cf57600080fd5b806393c6cdc01461082657806394d008ef1461084657806394f5a66e1461085957600080fd5b8063715018a61461077a57806374973a411461078f5780637de77ecc146107a45780638a016249146107d25780638da5cb5b146107e75780638f2839701461080657600080fd5b80632d61bd091161026a5780635c975abb116102235780636352211e116101fd5780636352211e146106f957806366215eb41461071957806368a17bd81461073a57806370a082311461075a57600080fd5b80635c975abb146106a1578063621a1f74146106b9578063624de2a9146106d957600080fd5b80632d61bd09146105c75780632e9936111461060057806332e3232614610620578063333489791461064057806342842e0e14610661578063512c91df1461068157600080fd5b806317dc6bf6116102d757806322f4596f116102b157806322f4596f1461052857806323b872dd1461054d5780632a55205a146105685780632b7d13de146105a757600080fd5b806317dc6bf6146104115780631ca9741b146104e8578063211130571461050857600080fd5b806301bc45c91461031f57806301ffc9a71461035d57806306fdde031461038d578063081812fc146103af578063095ea7b3146103cf578063140f0e07146103f1575b600080fd5b34801561032b57600080fd5b5061015f54610340906001600160a01b031681565b6040516001600160a01b0390911681526020015b60405180910390f35b34801561036957600080fd5b5061037d610378366004614ec9565b610acb565b6040519015158152602001610354565b34801561039957600080fd5b506103a2610b1d565b6040516103549190614f3e565b3480156103bb57600080fd5b506103406103ca366004614f51565b610baf565b3480156103db57600080fd5b506103ef6103ea366004614f8a565b610bd6565b005b3480156103fd57600080fd5b506103ef61040c366004615083565b610cf1565b34801561041d57600080fd5b5061048c61042c366004614f51565b61016a6020526000908152604090208054600182015460028301546003840154600485015460058601546006870154600788015460089098015496976001600160a01b0396871697959694959394831693600160a01b90930460ff16928a565b604080519a8b526001600160a01b03998a1660208c01528a019790975260608901959095526080880193909352941660a086015292151560c085015260e084019290925261010083019190915261012082015261014001610354565b3480156104f457600080fd5b506103ef6105033660046150b8565b610d51565b34801561051457600080fd5b506103ef610523366004614f51565b610de5565b34801561053457600080fd5b5061053f6101655481565b604051908152602001610354565b34801561055957600080fd5b506103ef61031a3660046150d5565b34801561057457600080fd5b50610588610583366004615116565b610f5b565b604080516001600160a01b039093168352602083019190915201610354565b3480156105b357600080fd5b506103ef6105c23660046150b8565b610f8c565b3480156105d357600080fd5b5061053f6105e2366004615138565b61016b60209081526000928352604080842090915290825290205481565b34801561060c57600080fd5b506103ef61061b366004614f51565b611021565b34801561062c57600080fd5b506103a261063b366004615116565b611059565b34801561064c57600080fd5b5061016954610340906001600160a01b031681565b34801561066d57600080fd5b506103ef61067c3660046150d5565b611242565b34801561068d57600080fd5b5061053f61069c366004614f8a565b61125d565b3480156106ad57600080fd5b5060975460ff1661037d565b3480156106c557600080fd5b5061053f6106d4366004614f51565b6112bb565b6106ec6106e7366004615168565b611389565b60405161035491906151f1565b34801561070557600080fd5b50610340610714366004614f51565b611456565b34801561072557600080fd5b5061016154610340906001600160a01b031681565b34801561074657600080fd5b5061037d610755366004614f51565b611472565b34801561076657600080fd5b5061053f6107753660046150b8565b61149a565b34801561078657600080fd5b506103ef611520565b34801561079b57600080fd5b506103a2611534565b3480156107b057600080fd5b5061053f6107bf3660046150b8565b6101686020526000908152604090205481565b3480156107de57600080fd5b506103a261178e565b3480156107f357600080fd5b5061012d546001600160a01b0316610340565b34801561081257600080fd5b506103ef6108213660046150b8565b61181d565b34801561083257600080fd5b506103ef6108413660046150b8565b6118b2565b61053f610854366004615168565b611947565b34801561086557600080fd5b506103ef610874366004615235565b611c54565b34801561088557600080fd5b506103a2611e7a565b34801561089a57600080fd5b5061037d6108a9366004614f51565b611e89565b3480156108ba57600080fd5b5061016454610340906001600160a01b031681565b3480156108db57600080fd5b506103a2611f60565b3480156108f057600080fd5b506103ef6108ff366004615315565b612191565b34801561091057600080fd5b5061016054610340906001600160a01b031681565b6103ef610933366004615116565b61219c565b34801561094457600080fd5b506103ef61031a366004615343565b34801561095f57600080fd5b5061016c54610340906001600160a01b031681565b34801561098057600080fd5b506103a261098f366004614f51565b6127af565b3480156109a057600080fd5b5061053f6109af366004614f51565b6101676020526000908152604090205481565b3480156109ce57600080fd5b506103ef6109dd366004614f51565b612a48565b3480156109ee57600080fd5b5061037d6109fd3660046153c3565b6001600160a01b039182166000908152606a6020908152604080832093909416825291909152205460ff1690565b348015610a3757600080fd5b506103a2610a46366004615116565b612aef565b348015610a5757600080fd5b506103ef610a663660046150b8565b612bc1565b348015610a7757600080fd5b506103ef610a863660046150b8565b612c37565b348015610a9757600080fd5b506103ef610aa6366004614f8a565b612ccc565b348015610ab757600080fd5b506103ef610ac63660046150b8565b612e16565b60006001600160e01b031982166380ac58cd60e01b1480610afc57506001600160e01b03198216635b5e139f60e01b145b80610b1757506301ffc9a760e01b6001600160e01b03198316145b92915050565b606060658054610b2c906153f1565b80601f0160208091040260200160405190810160405280929190818152602001828054610b58906153f1565b8015610ba55780601f10610b7a57610100808354040283529160200191610ba5565b820191906000526020600020905b815481529060010190602001808311610b8857829003601f168201915b5050505050905090565b6000610bba82612eab565b506000908152606960205260409020546001600160a01b031690565b6000610be182612efb565b9050806001600160a01b0316836001600160a01b03161415610c545760405162461bcd60e51b815260206004820152602160248201527f4552433732313a20617070726f76616c20746f2063757272656e74206f776e656044820152603960f91b60648201526084015b60405180910390fd5b336001600160a01b0382161480610c705750610c7081336109fd565b610ce25760405162461bcd60e51b815260206004820152603d60248201527f4552433732313a20617070726f76652063616c6c6572206973206e6f7420746f60448201527f6b656e206f776e6572206f7220617070726f76656420666f7220616c6c0000006064820152608401610c4b565b610cec8383612f5b565b505050565b61015f5460408051808201909152600381526231303160e81b6020820152906001600160a01b03163314610d385760405162461bcd60e51b8152600401610c4b9190614f3e565b508051610d4d90610163906020840190614e1a565b5050565b61015f546001600160a01b031633148015610d7457506001600160a01b03811615155b6040518060400160405280600381526020016231303160e81b81525090610dae5760405162461bcd60e51b8152600401610c4b9190614f3e565b50610161546001600160a01b03828116911614610de25761016180546001600160a01b0319166001600160a01b0383161790555b50565b610ded612fc9565b600081815261016a6020526040902060050154600160a01b900460ff16610e1357600080fd5b600081815261016a60205260409020600501546001600160a01b0316331415610e3b57600080fd5b600081815261016b60209081526040808320338452909152902054610e5f57600080fd5b600081815261016a602090815260408083206001015461016b83528184203380865293529281902054905163a9059cbb60e01b8152600481019290925260248201526001600160a01b039091169063a9059cbb906044016020604051808303816000875af1158015610ed5573d6000803e3d6000fd5b505050506040513d601f19601f82011682018060405250810190610ef9919061542c565b50600081815261016b6020908152604080832033808552908352928190205481519384529183019190915282917f63ad079d900b92497dd34dccc37cb42c76aff5798f6084bd35af77d8cb5473fe910160405180910390a2610de2600160fb55565b61015f546001600160a01b03166000612710610f79846101f461545f565b610f83919061547e565b90509250929050565b61015f546001600160a01b031633148015610faf57506001600160a01b03811615155b6040518060400160405280600381526020016231303160e81b81525090610fe95760405162461bcd60e51b8152600401610c4b9190614f3e565b50610169546001600160a01b03828116911614610de25761016980546001600160a01b0383166001600160a01b031990911617905550565b611029612fc9565b61104f8161103683611456565b6001600160a01b0316336001600160a01b031614613065565b610de2600160fb55565b6040805180820190915260128152711e39b1b934b83a1034b21e93bb30b939939f60711b60208201528061108c84613433565b60405160200161109d9291906154a0565b60408051601f198184030181529190526101645490915081906110c8906001600160a01b031661347f565b6040516020016110d99291906154f4565b60408051808303601f19018152908290526101605463bf40fac160e01b835260206004840152602160248401527f535741505f504f4f4c5f474d5f4554485f434f4e54524143545f4144445245536044840152605360f81b60648401529092506001600160a01b031690600090829063bf40fac190608401602060405180830381865afa15801561116e573d6000803e3d6000fd5b505050506040513d601f19601f82011682018060405250810190611192919061555b565b90508261119e8261347f565b6040516020016111af929190615578565b6040516020818303038152906040529250826111ca3061347f565b6040516020016111db9291906155f0565b6040516020818303038152906040529250826111f685613495565b604051602001611207929190615657565b60405160208183030381529060405292508260405160200161122991906156af565b6040516020818303038152906040529250505092915050565b610cec83838360405180602001604052806000815250600080fd5b61016c5461016454604080513060208083019190915246828401526001600160a01b03948516606083015295841660808201529290911660a083015260c0808301939093528051808303909301835260e09091019052805191012090565b60006112c682613532565b6040518060400160405280600381526020016232303960e81b815250906113005760405162461bcd60e51b8152600401610c4b9190614f3e565b5060008281526101666020526040902054600160a01b900460a01b6001600160a01b03191661133157506000919050565b6000828152610166602090815260409182902054915161136c92600160a01b900460a01b91016001600160a01b031991909116815260200190565b604051602081830303815290604052805190602001209050919050565b606060008467ffffffffffffffff8111156113a6576113a6614fb6565b6040519080825280602002602001820160405280156113cf578160200160208202803683370190505b5061015f549091506001600160a01b031633146113eb57600080fd5b60005b8581101561144a5760006114058860008888611947565b90508083838151811061141a5761141a6156dc565b60200260200101818152505062030d405a1015611437575061144a565b5080611442816156f2565b9150506113ee565b5090505b949350505050565b600090815261016660205260409020546001600160a01b031690565b600061147c613550565b611485336135fb565b1061149257506001919050565b506000919050565b60006001600160a01b0382166115045760405162461bcd60e51b815260206004820152602960248201527f4552433732313a2061646472657373207a65726f206973206e6f7420612076616044820152683634b21037bbb732b960b91b6064820152608401610c4b565b506001600160a01b031660009081526068602052604090205490565b61152861366b565b61153260006136c6565b565b6060604051806060016040528060378152602001615d0c6037913961016954604080518082018252600d81526c70356a7340312e352e302e6a7360981b602082015261016054915163bf40fac160e01b81529394506001600160a01b039283169390929190911690600090829063bf40fac1906115d7906004016020808252600f908201526e29a1a924a82a2fa82927ab24a222a960891b604082015260600190565b602060405180830381865afa1580156115f4573d6000803e3d6000fd5b505050506040513d601f19601f82011682018060405250810190611618919061555b565b90506000846001600160a01b031663ba67e64183866040518363ffffffff1660e01b815260040161164a92919061570d565b602060405180830381865afa158015611667573d6000803e3d6000fd5b505050506040513d601f19601f8201168201806040525081019061168b9190615731565b905061169860018261574a565b905060005b818110156117635761015f5460405163283959d960e21b815260009182916001600160a01b038a81169263a0e56764926116e192909116908b908890600401615762565b600060405180830381865afa1580156116fe573d6000803e3d6000fd5b505050506040513d6000823e601f3d908101601f1916820160405261172691908101906157c6565b91509150888260405160200161173d929190615821565b60405160208183030381529060405298505050808061175b906156f2565b91505061169d565b508560405160200161177591906156af565b6040516020818303038152906040529550505050505090565b610163805461179c906153f1565b80601f01602080910402602001604051908101604052809291908181526020018280546117c8906153f1565b80156118155780601f106117ea57610100808354040283529160200191611815565b820191906000526020600020905b8154815290600101906020018083116117f857829003601f168201915b505050505081565b61015f546001600160a01b03163314801561184057506001600160a01b03811615155b6040518060400160405280600381526020016231303160e81b8152509061187a5760405162461bcd60e51b8152600401610c4b9190614f3e565b5061015f546001600160a01b03828116911614610de25761015f80546001600160a01b0383166001600160a01b031990911617905550565b61015f546001600160a01b0316331480156118d557506001600160a01b03811615155b6040518060400160405280600381526020016231303160e81b8152509061190f5760405162461bcd60e51b8152600401610c4b9190614f3e565b50610164546001600160a01b03828116911614610de25761016480546001600160a01b0383166001600160a01b031990911617905550565b6000611951612fc9565b6101655461016254106040518060400160405280600381526020016232303360e81b815250906119945760405162461bcd60e51b8152600401610c4b9190614f3e565b5061015f546001600160a01b03163314611ad457336001600160a01b038616146119e85760405162461bcd60e51b815260206004820152600560248201526447505f495560d81b6044820152606401610c4b565b6119f18561149a565b15611a245760405162461bcd60e51b8152602060048201526003602482015262312d3160e81b6044820152606401610c4b565b6001600160a01b0385166000908152610168602052604090205415611a6f5760405162461bcd60e51b81526020600482015260016024820152604d60f81b6044820152606401610c4b565b611ab0858585858080601f01602080910402602001604051908101604052809392919081815260200183838082843760009201919091525061371992505050565b50506001600160a01b03851660009081526101686020526040902060019055611b8f565b61015f546001600160a01b03868116911614611b8f57611af38561149a565b15611b265760405162461bcd60e51b8152602060048201526003602482015262312d3160e81b6044820152606401610c4b565b6001600160a01b0385166000908152610168602052604090205415611b715760405162461bcd60e51b81526020600482015260016024820152604d60f81b6044820152606401610c4b565b6001600160a01b038516600090815261016860205260409020600190555b6101628054906000611ba0836156f2565b9190505550610162549050611bb58582613792565b61016154604051631da00d8560e01b8152600481018390526001600160a01b03909116906000908290631da00d85906024016020604051808303816000875af1158015611c06573d6000803e3d6000fd5b505050506040513d601f19601f82011682018060405250810190611c2a9190615731565b9050611c3683826137ac565b505060008181526101676020526040902043905561144e600160fb55565b600054610100900460ff1615808015611c745750600054600160ff909116105b80611c8e5750303b158015611c8e575060005460ff166001145b611cf15760405162461bcd60e51b815260206004820152602e60248201527f496e697469616c697a61626c653a20636f6e747261637420697320616c72656160448201526d191e481a5b9a5d1a585b1a5e995960921b6064820152608401610c4b565b6000805460ff191660011790558015611d14576000805461ff0019166101001790555b60408051808201909152600381526203130360ec1b60208201526001600160a01b038816611d555760405162461bcd60e51b8152600401610c4b9190614f3e565b5060408051808201909152600381526203130360ec1b60208201526001600160a01b038716611d975760405162461bcd60e51b8152600401610c4b9190614f3e565b5061016080546001600160a01b03199081166001600160a01b038981169190911790925561015f805482168a841617905561016180548216888416179055610164805482168784161790556103e8610165556101698054821686841617905561016c8054909116918416919091179055611e118989613877565b611e196138a8565b611e216138d7565b611e29613906565b8015611e6f576000805461ff0019169055604051600181527f7f26b83ff96e1f2b6a682f133852f6798a09c465da95921460cefb38474024989060200160405180910390a15b505050505050505050565b606060668054610b2c906153f1565b6000611e93613935565b60008381526101676020526040902054611ead9043615850565b11611eba57506000919050565b61015f546001600160a01b0316611ed083611456565b6001600160a01b03161415611ee757506000919050565b30611ef183611456565b6001600160a01b03161415611f2a57600082815261016a6020526040902060050154600160a01b900460ff1615611f2a57506001919050565b6000611f34613550565b905080611f48611f4385611456565b6135fb565b1015611f575750600192915050565b50600092915050565b6060604051806060016040528060378152602001615d0c6037913961016954604080518082018252600f81526e776562336a7340312e322e372e6a7360881b602082015261016054915163bf40fac160e01b81529394506001600160a01b039283169390929190911690600090829063bf40fac190612005906004016020808252600f908201526e29a1a924a82a2fa82927ab24a222a960891b604082015260600190565b602060405180830381865afa158015612022573d6000803e3d6000fd5b505050506040513d601f19601f82011682018060405250810190612046919061555b565b90506000846001600160a01b031663ba67e64183866040518363ffffffff1660e01b815260040161207892919061570d565b602060405180830381865afa158015612095573d6000803e3d6000fd5b505050506040513d601f19601f820116820180604052508101906120b99190615731565b90506120c660018261574a565b905060005b818110156117635761015f5460405163283959d960e21b815260009182916001600160a01b038a81169263a0e567649261210f92909116908b908890600401615762565b600060405180830381865afa15801561212c573d6000803e3d6000fd5b505050506040513d6000823e601f3d908101601f1916820160405261215491908101906157c6565b91509150888260405160200161216b929190615821565b604051602081830303815290604052985050508080612189906156f2565b9150506120cb565b610d4d3383836139d7565b6121a4612fc9565b6121ad82611472565b6121e25760405162461bcd60e51b8152600401610c4b9060208082526004908201526304e5f43360e41b604082015260600190565b6121eb3361149a565b156122215760405162461bcd60e51b8152602060048201526006602482015265272fa1982f9960d11b6044820152606401610c4b565b600082815261016a602090815260408083206001015461016b83528184203385529092528220546001600160a01b039091169161225e828561574a565b600086815261016a602052604090205490915085146122b45760405162461bcd60e51b81526020600482015260126024820152713737ba103ab8103337b91030bab1ba34b7b760711b6044820152606401610c4b565b600085815261016a602052604090206004015443106123075760405162461bcd60e51b815260206004820152600f60248201526e105d58dd1a5bdb88195e1c1a5c9959608a1b6044820152606401610c4b565b604051636eb1769f60e11b815233600482015230602482015284906001600160a01b0385169063dd62ed3e90604401602060405180830381865afa158015612353573d6000803e3d6000fd5b505050506040513d601f19601f820116820180604052508101906123779190615731565b10156123c55760405162461bcd60e51b815260206004820152601c60248201527f6e6f7420656e6f75676820616c6c6f7720657263323020746f6b656e000000006044820152606401610c4b565b6040516370a0823160e01b815233600482015284906001600160a01b038516906370a0823190602401602060405180830381865afa15801561240b573d6000803e3d6000fd5b505050506040513d601f19601f8201168201806040525081019061242f9190615731565b10156124765760405162461bcd60e51b81526020600482015260166024820152753737ba1032b737bab3b41032b9319918103a37b5b2b760511b6044820152606401610c4b565b600085815261016a60205260409020600701548110156124d85760405162461bcd60e51b815260206004820152601f60248201527f4d7573742073656e64206174206c6561737420726573657276655072696365006044820152606401610c4b565b600085815261016a6020526040902060088101546002909101546064916124fe9161545f565b612508919061547e565b600086815261016a6020526040902060020154612525919061574a565b81101561259c576040805162461bcd60e51b81526020600482015260248101919091527f4d7573742073656e64206d6f7265207468616e206c617374206269642062792060448201527f6d696e426964496e6372656d656e7450657263656e7461676520616d6f756e746064820152608401610c4b565b6040516323b872dd60e01b8152336004820152306024820152604481018590526001600160a01b038416906323b872dd906064016020604051808303816000875af11580156125ef573d6000803e3d6000fd5b505050506040513d601f19601f82011682018060405250810190612613919061542c565b61265f5760405162461bcd60e51b815260206004820152601d60248201527f63616e206e6f74206765742065726332302066726f6d206269646465720000006044820152606401610c4b565b600085815261016b602090815260408083203380855290835281842085905588845261016a9092528220600281018490556005810180546001600160a01b03191690921790915560068101546004909101546126bc904390615850565b10905080156126f657600086815261016a60205260409020600601546126e2904361574a565b600087815261016a60205260409020600401555b600086815261016a60209081526040918290205482513381529182018890528315158284015291517f1159164c56f277e6fc99c11731bd380e0347deb969b75523398734c252706ea39181900360600190a2801561279b57600086815261016a602090815260409182902080546004909101549251928352917f6e912a3a9105bdd2af817ba5adc14e6c127c1035b5b648faa29ca0d58ab8ff4e910160405180910390a25b50505050610d4d600160fb55565b50505050565b60606127ba82613532565b6040518060400160405280600381526020016232303960e81b815250906127f45760405162461bcd60e51b8152600401610c4b9190614f3e565b5060405163188687dd60e21b815260048101839052600090309063621a1f7490602401602060405180830381865afa158015612834573d6000803e3d6000fd5b505050506040513d601f19601f820116820180604052508101906128589190615731565b61016054604051637594e11960e11b815260048101839052602481018690529192506001600160a01b031690600090309063eb29c23290604401600060405180830381865afa1580156128af573d6000803e3d6000fd5b505050506040513d6000823e601f3d908101601f191682016040526128d79190810190615867565b9050612901816040516020016128ed91906158b0565b604051602081830303815290604052613aa6565b60405160200161291191906158cc565b6040516020818303038152906040529050600081604051602001612935919061590a565b60408051601f198184030181528282018252600e83526d109054d157d5549257d51490525560921b6020840152905163349f642f60e11b81529092506000916001600160a01b0386169163693ec85e9161299191600401614f3e565b600060405180830381865afa1580156129ae573d6000803e3d6000fd5b505050506040513d6000823e601f3d908101601f191682016040526129d69190810190615867565b9050806129e23061347f565b6129eb89613495565b6129f488613433565b604051602001612a079493929190615951565b6040516020818303038152906040529050808282604051602001612a2d939291906159d3565b60405160208183030381529060405295505050505050919050565b612a50612fc9565b612a5981611e89565b612a8e5760405162461bcd60e51b8152600401610c4b9060208082526004908201526304e5f43360e41b604082015260600190565b612a96613935565b60008281526101676020526040902054612ab09043615850565b11612ae65760405162461bcd60e51b81526020600482015260066024820152654e5f43305f3360d01b6044820152606401610c4b565b61104f81613c0c565b60408051808201909152600c81526b1e343a36b61f1e3432b0b21f60a11b602082015280612b1b611534565b604051602001612b2c929190615821565b604051602081830303815290604052905080612b46611f60565b604051602001612b57929190615821565b604051602081830303815290604052905080612b738484611059565b604051602001612b84929190615821565b604051602081830303815290604052905080610163604051602001612baa929190615ab1565b604051602081830303815290604052905092915050565b612bc961366b565b6001600160a01b038116612c2e5760405162461bcd60e51b815260206004820152602660248201527f4f776e61626c653a206e6577206f776e657220697320746865207a65726f206160448201526564647265737360d01b6064820152608401610c4b565b610de2816136c6565b61015f546001600160a01b031633148015612c5a57506001600160a01b03811615155b6040518060400160405280600381526020016231303160e81b81525090612c945760405162461bcd60e51b8152600401610c4b9190614f3e565b5061016c546001600160a01b03828116911614610de25761016c80546001600160a01b0383166001600160a01b031990911617905550565b612cd4612fc9565b61015f5460408051808201909152600381526231303160e81b6020820152906001600160a01b03163314612d1b5760405162461bcd60e51b8152600401610c4b9190614f3e565b506001600160a01b038216612d925780471015612d3757600080fd5b604051600090339083908381818185875af1925050503d8060008114612d79576040519150601f19603f3d011682016040523d82523d6000602084013e612d7e565b606091505b5050905080612d8c57600080fd5b50612e0c565b60405163a9059cbb60e01b8152336004820152602481018290526001600160a01b0383169063a9059cbb906044016020604051808303816000875af1158015612ddf573d6000803e3d6000fd5b505050506040513d601f19601f82011682018060405250810190612e03919061542c565b612e0c57600080fd5b610d4d600160fb55565b61015f546001600160a01b031633148015612e3957506001600160a01b03811615155b6040518060400160405280600381526020016231303160e81b81525090612e735760405162461bcd60e51b8152600401610c4b9190614f3e565b50610160546001600160a01b03828116911614610de25761016080546001600160a01b0383166001600160a01b031990911617905550565b612eb481613532565b610de25760405162461bcd60e51b8152602060048201526018602482015277115490cdcc8c4e881a5b9d985b1a59081d1bdad95b88125160421b6044820152606401610c4b565b6000818152606760205260408120546001600160a01b031680610b175760405162461bcd60e51b8152602060048201526018602482015277115490cdcc8c4e881a5b9d985b1a59081d1bdad95b88125160421b6044820152606401610c4b565b600081815260696020526040902080546001600160a01b0319166001600160a01b0384169081179091558190612f9082612efb565b6001600160a01b03167f8c5be1e5ebec7d5bd14f71427d1e84f3dd0314c0f7b2291e5b200ac8c7c3b92560405160405180910390a45050565b600260fb54141561301c5760405162461bcd60e51b815260206004820152601f60248201527f5265656e7472616e637947756172643a207265656e7472616e742063616c6c006044820152606401610c4b565b600260fb55565b600160fb55565b613035838383614118565b60009081526101666020526040902080546001600160a01b0319166001600160a01b039290921691909117905550565b600082815261016a60205260409020600301546130bb5760405162461bcd60e51b815260206004820152601460248201527320bab1ba34b7b7103430b9b713ba103132b3bab760611b6044820152606401610c4b565b600082815261016a6020526040902060050154600160a01b900460ff16156131255760405162461bcd60e51b815260206004820181905260248201527f41756374696f6e2068617320616c7265616479206265656e20736574746c65646044820152606401610c4b565b600082815261016a60205260409020600401544310156131875760405162461bcd60e51b815260206004820152601860248201527f41756374696f6e206861736e277420636f6d706c6574656400000000000000006044820152606401610c4b565b600082815261016a6020526040812060058101805460ff60a01b198116600160a01b179091556003909101919091556001600160a01b03161561321a57600082815261016a60205260409020600501546131e9906001600160a01b031661149a565b61321a57600082815261016a602052604090206005810154905461321a9130916001600160a01b039091169061302a565b600082815261016a6020526040902060020154156133cc576101605460405163bf40fac160e01b815260206004820152601c60248201527f534f554c5f41554354494f4e5f474d5f44414f5f54726561737572790000000060448201526000916001600160a01b03169063bf40fac190606401602060405180830381865afa1580156132aa573d6000803e3d6000fd5b505050506040513d601f19601f820116820180604052508101906132ce919061555b565b90506001600160a01b0381166132e357600080fd5b600083815261016a6020526040902060018101546002909101546001600160a01b039091169063a9059cbb908390612710906133219061232861545f565b61332b919061547e565b6040516001600160e01b031960e085901b1681526001600160a01b03909216600483015260248201526044016020604051808303816000875af1158015613376573d6000803e3d6000fd5b505050506040513d601f19601f8201168201806040525081019061339a919061542c565b5050600082815261016b6020908152604080832061016a8352818420600501546001600160a01b031684529091528120555b600082815261016a60209081526040918290208054600582015460029092015484516001600160a01b0390931683529282019290925290917fc9f72b276a388619c6d185d146697036241880c36654b1a3ffdad07c24038d99910160405180910390a25050565b606061343e82614289565b61344b608084901b614289565b60405161060f60f31b6020820152602281019290925260428201526062016040516020818303038152906040529050919050565b6060610b176001600160a01b038316601461443b565b606060006134a2836145de565b600101905060008167ffffffffffffffff8111156134c2576134c2614fb6565b6040519080825280601f01601f1916602001820160405280156134ec576020820181803683370190505b5090508181016020015b600019016f181899199a1a9b1b9c1cb0b131b232b360811b600a86061a8153600a85049450846135255761352a565b6134f6565b509392505050565b600090815261016660205260409020546001600160a01b0316151590565b61016054604051636d12dce160e01b815260206004820152601160248201527014d3d55317d1d357d512149154d213d311607a1b604482015260009182916001600160a01b0390911690636d12dce190606401602060405180830381865afa1580156135c0573d6000803e3d6000fd5b505050506040513d601f19601f820116820180604052508101906135e49190615731565b9050806135f65750670de0b6b3a76400005b919050565b610164546040516370a0823160e01b81526001600160a01b03838116600483015260009216906370a0823190602401602060405180830381865afa158015613647573d6000803e3d6000fd5b505050506040513d601f19601f82011682018060405250810190610b179190615731565b61012d546001600160a01b031633146115325760405162461bcd60e51b815260206004820181905260248201527f4f776e61626c653a2063616c6c6572206973206e6f7420746865206f776e65726044820152606401610c4b565b61012d80546001600160a01b038381166001600160a01b0319831681179093556040519116919082907f8be0079c531659141344cd1fd0a4f28419497f9722a3daafe3b4186f6b6457e090600090a35050565b6000806000613728868661125d565b9050600061373e613738836146b6565b866146f1565b61016c549091506001600160a01b038083169116146137875760405162461bcd60e51b815260206004820152600560248201526447505f4e4160d81b6044820152606401610c4b565b969095509350505050565b610d4d82826040518060200160405280600081525061470d565b60008281526101666020908152604091829020548251808401909352600383526219181b60e91b91830191909152600160a01b900460a01b6001600160a01b0319161561380c5760405162461bcd60e51b8152600401610c4b9190614f3e565b5060408051808201909152600381526232303760e81b6020820152816138455760405162461bcd60e51b8152600401610c4b9190614f3e565b5060009182526101666020526040909120805460a09290921c600160a01b026001600160a01b03909216919091179055565b600054610100900460ff1661389e5760405162461bcd60e51b8152600401610c4b90615b62565b610d4d8282614740565b600054610100900460ff166138cf5760405162461bcd60e51b8152600401610c4b90615b62565b61153261478e565b600054610100900460ff166138fe5760405162461bcd60e51b8152600401610c4b90615b62565b6115326147b5565b600054610100900460ff1661392d5760405162461bcd60e51b8152600401610c4b90615b62565b6115326147e8565b61016054604051636d12dce160e01b815260206004820152600f60248201526e534f554c5f474d5f5245534552564560881b604482015260009182916001600160a01b0390911690636d12dce190606401602060405180830381865afa1580156139a3573d6000803e3d6000fd5b505050506040513d601f19601f820116820180604052508101906139c79190615731565b9050806135f657506103f0919050565b816001600160a01b0316836001600160a01b03161415613a395760405162461bcd60e51b815260206004820152601960248201527f4552433732313a20617070726f766520746f2063616c6c6572000000000000006044820152606401610c4b565b6001600160a01b038381166000818152606a6020908152604080832094871680845294825291829020805460ff191686151590811790915591519182527f17307eab39ab6107e8899845ad3d59bd9653f200f220920489ca2b5937696c31910160405180910390a3505050565b6060815160001415613ac657505060408051602081019091526000815290565b6000604051806060016040528060408152602001615ccc6040913990506000600384516002613af5919061574a565b613aff919061547e565b613b0a90600461545f565b90506000613b1982602061574a565b67ffffffffffffffff811115613b3157613b31614fb6565b6040519080825280601f01601f191660200182016040528015613b5b576020820181803683370190505b509050818152600183018586518101602084015b81831015613bc7576003830192508251603f8160121c168501518253600182019150603f81600c1c168501518253600182019150603f8160061c168501518253600182019150603f8116850151825350600101613b6f565b600389510660018114613be15760028114613bf257613bfe565b613d3d60f01b600119830152613bfe565b603d60f81b6000198301525b509398975050505050505050565b613c1581613532565b613c1e57600080fd5b600081815261016a6020526040902060050154600160a01b900460ff1680613c535750600081815261016a6020526040902054155b613cc55760405162461bcd60e51b815260206004820152603860248201527f41756374696f6e2068617320616c7265616479206265656e20736574746c656460448201527f206f72203173742041756374696f6e206f6620746f6b656e00000000000000006064820152608401610c4b565b436000613cd0613935565b613cda908361574a565b610160546040805161014081018252600080825260208201819052918101829052606081018290526080810182905260a0810182905260c0810182905260e0810182905261010081018290526101208101919091529192506001600160a01b03169084815260405163bf40fac160e01b815260206004820152601860248201527f534f554c5f41554354494f4e5f45524332305f544f4b454e000000000000000060448201526001600160a01b0383169063bf40fac190606401602060405180830381865afa158015613db1573d6000803e3d6000fd5b505050506040513d601f19601f82011682018060405250810190613dd5919061555b565b6001600160a01b031660208201819052613dfc57610164546001600160a01b031660208201525b60006040828101829052606083018690526080830185905260a0830182905260c083019190915251636d12dce160e01b815260206004820152601860248201527f534f554c5f41554354494f4e5f54494d455f425546464552000000000000000060448201526001600160a01b03831690636d12dce190606401602060405180830381865afa158015613e93573d6000803e3d6000fd5b505050506040513d601f19601f82011682018060405250810190613eb79190615731565b60e0820152604051636d12dce160e01b815260206004820152601a60248201527f534f554c5f41554354494f4e5f524553455256455f505249434500000000000060448201526001600160a01b03831690636d12dce190606401602060405180830381865afa158015613f2e573d6000803e3d6000fd5b505050506040513d601f19601f82011682018060405250810190613f529190615731565b610100820152604051636d12dce160e01b815260206004820152602560248201527f534f554c5f41554354494f4e5f4d494e5f4249445f494e4352454153455f50456044820152641490d1539560da1b60648201526001600160a01b03831690636d12dce190608401602060405180830381865afa158015613fd8573d6000803e3d6000fd5b505050506040513d601f19601f82011682018060405250810190613ffc9190615731565b6101208201908152600086815261016a602090815260409182902084518155908401516001820180546001600160a01b0319166001600160a01b03928316179055918401516002820155606084015160038201556080840151600482015560a084015160058201805460c0870151929094166001600160a81b031990941693909317600160a01b911515919091021790915560e0830151600682015561010083015160078201559051600890910155306140b586611456565b6001600160a01b0316146140d6576140d66140cf86611456565b308761302a565b604080518581526020810185905286917fd6eddd1118d71820909c1197aa966dbc15ed6f508554252169cc3d5ccac756ca910160405180910390a25050505050565b826001600160a01b031661412b82612efb565b6001600160a01b0316146141515760405162461bcd60e51b8152600401610c4b90615bff565b6001600160a01b0382166141b35760405162461bcd60e51b8152602060048201526024808201527f4552433732313a207472616e7366657220746f20746865207a65726f206164646044820152637265737360e01b6064820152608401610c4b565b6141c08383836001614913565b826001600160a01b03166141d382612efb565b6001600160a01b0316146141f95760405162461bcd60e51b8152600401610c4b90615bff565b600081815260696020908152604080832080546001600160a01b03199081169091556001600160a01b0387811680865260688552838620805460001901905590871680865283862080546001019055868652606790945282852080549092168417909155905184937fddf252ad1be2c89b69c2b068fc378daa952ba7f163c4a11628f55a4df523b3ef91a4505050565b7aff00000000000000ff00000000000000ff00000000000000ff00006bffffffff0000000000000000604083901c90811663ffffffff60c01b84161760201c63ffffffff60601b919091166001600160e01b031984161717601081901c9182167eff00000000000000ff00000000000000ff00000000000000ff000000000000821617600890811c7bff00000000000000ff00000000000000ff00000000000000ff000000939093167fff00000000000000ff00000000000000ff00000000000000ff000000000000009290921691909117919091179081901c7e0f000f000f000f000f000f000f000f000f000f000f000f000f000f000f000f167f0f000f000f000f000f000f000f000f000f000f000f000f000f000f000f000f00600492831c1617906143d7827f060606060606060606060606060606060606060606060606060606060606060661574a565b901c7f0f0f0f0f0f0f0f0f0f0f0f0f0f0f0f0f0f0f0f0f0f0f0f0f0f0f0f0f0f0f0f0f166007614407919061545f565b614431827f303030303030303030303030303030303030303030303030303030303030303061574a565b610b17919061574a565b6060600061444a83600261545f565b61445590600261574a565b67ffffffffffffffff81111561446d5761446d614fb6565b6040519080825280601f01601f191660200182016040528015614497576020820181803683370190505b509050600360fc1b816000815181106144b2576144b26156dc565b60200101906001600160f81b031916908160001a905350600f60fb1b816001815181106144e1576144e16156dc565b60200101906001600160f81b031916908160001a905350600061450584600261545f565b61451090600161574a565b90505b6001811115614588576f181899199a1a9b1b9c1cb0b131b232b360811b85600f1660108110614544576145446156dc565b1a60f81b82828151811061455a5761455a6156dc565b60200101906001600160f81b031916908160001a90535060049490941c9361458181615c44565b9050614513565b5083156145d75760405162461bcd60e51b815260206004820181905260248201527f537472696e67733a20686578206c656e67746820696e73756666696369656e746044820152606401610c4b565b9392505050565b60008072184f03e93ff9f4daa797ed6e38ed64bf6a1f0160401b831061461d5772184f03e93ff9f4daa797ed6e38ed64bf6a1f0160401b830492506040015b6d04ee2d6d415b85acef81000000008310614649576d04ee2d6d415b85acef8100000000830492506020015b662386f26fc10000831061466757662386f26fc10000830492506010015b6305f5e100831061467f576305f5e100830492506008015b612710831061469357612710830492506004015b606483106146a5576064830492506002015b600a8310610b175760010192915050565b6040517f19457468657265756d205369676e6564204d6573736167653a0a3332000000006020820152603c8101829052600090605c0161136c565b60008060006147008585614986565b9150915061352a816149cc565b6147178383614b1a565b6147246000848484614818565b610cec5760405162461bcd60e51b8152600401610c4b90615bad565b600054610100900460ff166147675760405162461bcd60e51b8152600401610c4b90615b62565b815161477a906065906020850190614e1a565b508051610cec906066906020840190614e1a565b600054610100900460ff166130235760405162461bcd60e51b8152600401610c4b90615b62565b600054610100900460ff166147dc5760405162461bcd60e51b8152600401610c4b90615b62565b6097805460ff19169055565b600054610100900460ff1661480f5760405162461bcd60e51b8152600401610c4b90615b62565b611532336136c6565b60006001600160a01b0384163b1561490b57604051630a85bd0160e11b81526001600160a01b0385169063150b7a029061485c903390899088908890600401615c5b565b6020604051808303816000875af1925050508015614897575060408051601f3d908101601f1916820190925261489491810190615c98565b60015b6148f1573d8080156148c5576040519150601f19603f3d011682016040523d82523d6000602084013e6148ca565b606091505b5080516148e95760405162461bcd60e51b8152600401610c4b90615bad565b805181602001fd5b6001600160e01b031916630a85bd0160e11b14905061144e565b50600161144e565b61491f84848484614b53565b60975460ff16156127a95760405162461bcd60e51b815260206004820152602b60248201527f4552433732315061757361626c653a20746f6b656e207472616e73666572207760448201526a1a1a5b19481c185d5cd95960aa1b6064820152608401610c4b565b6000808251604114156149bd5760208301516040840151606085015160001a6149b187828585614bdb565b945094505050506149c5565b506000905060025b9250929050565b60008160048111156149e0576149e0615cb5565b14156149e95750565b60018160048111156149fd576149fd615cb5565b1415614a4b5760405162461bcd60e51b815260206004820152601860248201527f45434453413a20696e76616c6964207369676e617475726500000000000000006044820152606401610c4b565b6002816004811115614a5f57614a5f615cb5565b1415614aad5760405162461bcd60e51b815260206004820152601f60248201527f45434453413a20696e76616c6964207369676e6174757265206c656e677468006044820152606401610c4b565b6003816004811115614ac157614ac1615cb5565b1415610de25760405162461bcd60e51b815260206004820152602260248201527f45434453413a20696e76616c6964207369676e6174757265202773272076616c604482015261756560f01b6064820152608401610c4b565b614b248282614c9f565b60009081526101666020526040902080546001600160a01b0319166001600160a01b0392909216919091179055565b60018111156127a9576001600160a01b03841615614b99576001600160a01b03841660009081526068602052604081208054839290614b93908490615850565b90915550505b6001600160a01b038316156127a9576001600160a01b03831660009081526068602052604081208054839290614bd090849061574a565b909155505050505050565b6000807f7fffffffffffffffffffffffffffffff5d576e7357a4501ddfe92f46681b20a0831115614c125750600090506003614c96565b6040805160008082526020820180845289905260ff881692820192909252606081018690526080810185905260019060a0016020604051602081039080840390855afa158015614c66573d6000803e3d6000fd5b5050604051601f1901519150506001600160a01b038116614c8f57600060019250925050614c96565b9150600090505b94509492505050565b6001600160a01b038216614cf55760405162461bcd60e51b815260206004820181905260248201527f4552433732313a206d696e7420746f20746865207a65726f20616464726573736044820152606401610c4b565b614cfe81613532565b15614d4b5760405162461bcd60e51b815260206004820152601c60248201527f4552433732313a20746f6b656e20616c7265616479206d696e746564000000006044820152606401610c4b565b614d59600083836001614913565b614d6281613532565b15614daf5760405162461bcd60e51b815260206004820152601c60248201527f4552433732313a20746f6b656e20616c7265616479206d696e746564000000006044820152606401610c4b565b6001600160a01b038216600081815260686020908152604080832080546001019055848352606790915280822080546001600160a01b0319168417905551839291907fddf252ad1be2c89b69c2b068fc378daa952ba7f163c4a11628f55a4df523b3ef908290a45050565b828054614e26906153f1565b90600052602060002090601f016020900481019282614e485760008555614e8e565b82601f10614e6157805160ff1916838001178555614e8e565b82800160010185558215614e8e579182015b82811115614e8e578251825591602001919060010190614e73565b50614e9a929150614e9e565b5090565b5b80821115614e9a5760008155600101614e9f565b6001600160e01b031981168114610de257600080fd5b600060208284031215614edb57600080fd5b81356145d781614eb3565b60005b83811015614f01578181015183820152602001614ee9565b838111156127a95750506000910152565b60008151808452614f2a816020860160208601614ee6565b601f01601f19169290920160200192915050565b6020815260006145d76020830184614f12565b600060208284031215614f6357600080fd5b5035919050565b6001600160a01b0381168114610de257600080fd5b80356135f681614f6a565b60008060408385031215614f9d57600080fd5b8235614fa881614f6a565b946020939093013593505050565b634e487b7160e01b600052604160045260246000fd5b604051601f8201601f1916810167ffffffffffffffff81118282101715614ff557614ff5614fb6565b604052919050565b600067ffffffffffffffff82111561501757615017614fb6565b50601f01601f191660200190565b600061503861503384614ffd565b614fcc565b905082815283838301111561504c57600080fd5b828260208301376000602084830101529392505050565b600082601f83011261507457600080fd5b6145d783833560208501615025565b60006020828403121561509557600080fd5b813567ffffffffffffffff8111156150ac57600080fd5b61144e84828501615063565b6000602082840312156150ca57600080fd5b81356145d781614f6a565b6000806000606084860312156150ea57600080fd5b83356150f581614f6a565b9250602084013561510581614f6a565b929592945050506040919091013590565b6000806040838503121561512957600080fd5b50508035926020909101359150565b6000806040838503121561514b57600080fd5b82359150602083013561515d81614f6a565b809150509250929050565b6000806000806060858703121561517e57600080fd5b843561518981614f6a565b935060208501359250604085013567ffffffffffffffff808211156151ad57600080fd5b818701915087601f8301126151c157600080fd5b8135818111156151d057600080fd5b8860208285010111156151e257600080fd5b95989497505060200194505050565b6020808252825182820181905260009190848201906040850190845b818110156152295783518352928401929184019160010161520d565b50909695505050505050565b600080600080600080600080610100898b03121561525257600080fd5b883567ffffffffffffffff8082111561526a57600080fd5b6152768c838d01615063565b995060208b013591508082111561528c57600080fd5b506152998b828c01615063565b97505060408901356152aa81614f6a565b955060608901356152ba81614f6a565b945060808901356152ca81614f6a565b935060a08901356152da81614f6a565b925060c08901356152ea81614f6a565b91506152f860e08a01614f7f565b90509295985092959890939650565b8015158114610de257600080fd5b6000806040838503121561532857600080fd5b823561533381614f6a565b9150602083013561515d81615307565b6000806000806080858703121561535957600080fd5b843561536481614f6a565b9350602085013561537481614f6a565b925060408501359150606085013567ffffffffffffffff81111561539757600080fd5b8501601f810187136153a857600080fd5b6153b787823560208401615025565b91505092959194509250565b600080604083850312156153d657600080fd5b82356153e181614f6a565b9150602083013561515d81614f6a565b600181811c9082168061540557607f821691505b6020821081141561542657634e487b7160e01b600052602260045260246000fd5b50919050565b60006020828403121561543e57600080fd5b81516145d781615307565b634e487b7160e01b600052601160045260246000fd5b600081600019048311821515161561547957615479615449565b500290565b60008261549b57634e487b7160e01b600052601260045260246000fd5b500490565b600083516154b2818460208801614ee6565b696c657420736565643d2760b01b90830190815283516154d981600a840160208801614ee6565b61273b60f01b600a9290910191820152600c01949350505050565b60008351615506818460208801614ee6565b7f6c657420474d5f434f4e54524143545f414444524553533d27000000000000009083019081528351615540816019840160208801614ee6565b61273b60f01b60199290910191820152601b01949350505050565b60006020828403121561556d57600080fd5b81516145d781614f6a565b6000835161558a818460208801614ee6565b80830190507f6c657420535741505f504f4f4c5f474d5f4554485f434f4e54524143545f414481526644524553533d2760c81b602082015283516155d5816027840160208801614ee6565b61273b60f01b60279290910191820152602901949350505050565b60008351615602818460208801614ee6565b7f6c657420736f6c617269734e6674436f6e7472616374416464726573733d2700908301908152835161563c81601f840160208801614ee6565b61273b60f01b601f9290910191820152602101949350505050565b60008351615669818460208801614ee6565b6d6c657420544f4b454e5f49443d2760901b908301908152835161569481600e840160208801614ee6565b61273b60f01b600e9290910191820152601001949350505050565b600082516156c1818460208701614ee6565b681e17b9b1b934b83a1f60b91b920191825250600901919050565b634e487b7160e01b600052603260045260246000fd5b600060001982141561570657615706615449565b5060010190565b6001600160a01b038316815260406020820181905260009061144e90830184614f12565b60006020828403121561574357600080fd5b5051919050565b6000821982111561575d5761575d615449565b500190565b6001600160a01b038416815260606020820181905260009061578690830185614f12565b9050826040830152949350505050565b60006157a461503384614ffd565b90508281528383830111156157b857600080fd5b6145d7836020830184614ee6565b600080604083850312156157d957600080fd5b825167ffffffffffffffff8111156157f057600080fd5b8301601f8101851361580157600080fd5b61581085825160208401615796565b925050602083015190509250929050565b60008351615833818460208801614ee6565b835190830190615847818360208801614ee6565b01949350505050565b60008282101561586257615862615449565b500390565b60006020828403121561587957600080fd5b815167ffffffffffffffff81111561589057600080fd5b8201601f810184136158a157600080fd5b61144e84825160208401615796565b600082516158c2818460208701614ee6565b9190910192915050565b7519185d184e9d195e1d0bda1d1b5b0ed8985cd94d8d0b60521b8152600082516158fd816016850160208701614ee6565b9190910160160192915050565b7216101130b734b6b0ba34b7b72fbab936111d1160691b81528151600090615939816013850160208701614ee6565b601160f91b6013939091019283015250601401919050565b60008551615963818460208a01614ee6565b8083019050602f60f81b8082528651615983816001850160208b01614ee6565b6001920191820152845161599e816002840160208901614ee6565b653f736565643d60d01b6002929091019182015283516159c5816008840160208801614ee6565b016008019695505050505050565b7f7b226e616d65223a22222c226465736372697074696f6e223a2022220000000081526b16101134b6b0b3b2911d101160a11b601c8201528351600090615a21816028850160208901614ee6565b6e1331b0b83a3ab9329e9b181818181160891b6028918401918201528451615a50816037840160208901614ee6565b7016101130ba3a3934b13aba32b9911d101160791b603792909101918201528351615a82816048840160208801614ee6565b6a1331b0b83a3ab9329e981160a91b60489290910191820152607d60f81b605382015260540195945050505050565b600083516020615ac48285838901614ee6565b845491840191600090600181811c9080831680615ae257607f831692505b858310811415615b0057634e487b7160e01b85526022600452602485fd5b808015615b145760018114615b2557615b52565b60ff19851688528388019550615b52565b60008b81526020902060005b85811015615b4a5781548a820152908401908801615b31565b505083880195505b50939a9950505050505050505050565b6020808252602b908201527f496e697469616c697a61626c653a20636f6e7472616374206973206e6f74206960408201526a6e697469616c697a696e6760a81b606082015260800190565b60208082526032908201527f4552433732313a207472616e7366657220746f206e6f6e20455243373231526560408201527131b2b4bb32b91034b6b83632b6b2b73a32b960711b606082015260800190565b60208082526025908201527f4552433732313a207472616e736665722066726f6d20696e636f72726563742060408201526437bbb732b960d91b606082015260800190565b600081615c5357615c53615449565b506000190190565b6001600160a01b0385811682528416602082015260408101839052608060608201819052600090615c8e90830184614f12565b9695505050505050565b600060208284031215615caa57600080fd5b81516145d781614eb3565b634e487b7160e01b600052602160045260246000fdfe4142434445464748494a4b4c4d4e4f505152535455565758595a6162636465666768696a6b6c6d6e6f707172737475767778797a303132333435363738392b2f3c7363726970742073616e64626f783d27616c6c6f772d736372697074732720747970653d27746578742f6a617661736372697074273ea264697066735822122004c283f0ca1ed7873f62c3acdc020aeedb57e8067132b3d1576500c64ec391eb64736f6c634300080c0033",
  "linkReferences": {},
  "deployedLinkReferences": {}
}