{
  "_format": "hh-sol-artifact-1",
  "contractName": "SOUL",
  "sourceName": "contracts/nfts/SOUL.sol",
  "abi": [
    {
      "anonymous": false,
      "inputs": [
        {
          "indexed": true,
          "internalType": "address",
          "name": "owner",
          "type": "address"
        },
        {
          "indexed": true,
          "internalType": "address",
          "name": "approved",
          "type": "address"
        },
        {
          "indexed": true,
          "internalType": "uint256",
          "name": "tokenId",
          "type": "uint256"
        }
      ],
      "name": "Approval",
      "type": "event"
    },
    {
      "anonymous": false,
      "inputs": [
        {
          "indexed": true,
          "internalType": "address",
          "name": "owner",
          "type": "address"
        },
        {
          "indexed": true,
          "internalType": "address",
          "name": "operator",
          "type": "address"
        },
        {
          "indexed": false,
          "internalType": "bool",
          "name": "approved",
          "type": "bool"
        }
      ],
      "name": "ApprovalForAll",
      "type": "event"
    },
    {
      "anonymous": false,
      "inputs": [
        {
          "indexed": true,
          "internalType": "uint256",
          "name": "tokenId",
          "type": "uint256"
        },
        {
          "indexed": false,
          "internalType": "address",
          "name": "sender",
          "type": "address"
        },
        {
          "indexed": false,
          "internalType": "uint256",
          "name": "value",
          "type": "uint256"
        },
        {
          "indexed": false,
          "internalType": "bool",
          "name": "extended",
          "type": "bool"
        }
      ],
      "name": "AuctionBid",
      "type": "event"
    },
    {
      "anonymous": false,
      "inputs": [
        {
          "indexed": true,
          "internalType": "uint256",
          "name": "tokenId",
          "type": "uint256"
        },
        {
          "indexed": false,
          "internalType": "address",
          "name": "sender",
          "type": "address"
        },
        {
          "indexed": false,
          "internalType": "uint256",
          "name": "value",
          "type": "uint256"
        }
      ],
      "name": "AuctionClaimBid",
      "type": "event"
    },
    {
      "anonymous": false,
      "inputs": [
        {
          "indexed": true,
          "internalType": "uint256",
          "name": "tokenId",
          "type": "uint256"
        }
      ],
      "name": "AuctionClosed",
      "type": "event"
    },
    {
      "anonymous": false,
      "inputs": [
        {
          "indexed": true,
          "internalType": "uint256",
          "name": "tokenId",
          "type": "uint256"
        },
        {
          "indexed": false,
          "internalType": "uint256",
          "name": "startTime",
          "type": "uint256"
        },
        {
          "indexed": false,
          "internalType": "uint256",
          "name": "endTime",
          "type": "uint256"
        }
      ],
      "name": "AuctionCreated",
      "type": "event"
    },
    {
      "anonymous": false,
      "inputs": [
        {
          "indexed": true,
          "internalType": "uint256",
          "name": "tokenId",
          "type": "uint256"
        },
        {
          "indexed": false,
          "internalType": "uint256",
          "name": "endTime",
          "type": "uint256"
        }
      ],
      "name": "AuctionExtended",
      "type": "event"
    },
    {
      "anonymous": false,
      "inputs": [
        {
          "indexed": false,
          "internalType": "uint256",
          "name": "minBidIncrementPercentage",
          "type": "uint256"
        }
      ],
      "name": "AuctionMinBidIncrementPercentageUpdated",
      "type": "event"
    },
    {
      "anonymous": false,
      "inputs": [
        {
          "indexed": false,
          "internalType": "uint256",
          "name": "reservePrice",
          "type": "uint256"
        }
      ],
      "name": "AuctionReservePriceUpdated",
      "type": "event"
    },
    {
      "anonymous": false,
      "inputs": [
        {
          "indexed": true,
          "internalType": "uint256",
          "name": "tokenId",
          "type": "uint256"
        },
        {
          "indexed": false,
          "internalType": "address",
          "name": "winner",
          "type": "address"
        },
        {
          "indexed": false,
          "internalType": "uint256",
          "name": "amount",
          "type": "uint256"
        }
      ],
      "name": "AuctionSettled",
      "type": "event"
    },
    {
      "anonymous": false,
      "inputs": [
        {
          "indexed": false,
          "internalType": "uint256",
          "name": "timeBuffer",
          "type": "uint256"
        }
      ],
      "name": "AuctionTimeBufferUpdated",
      "type": "event"
    },
    {
      "anonymous": false,
      "inputs": [
        {
          "indexed": true,
          "internalType": "address",
          "name": "reserver",
          "type": "address"
        },
        {
          "indexed": true,
          "internalType": "uint256",
          "name": "tokenId",
          "type": "uint256"
        },
        {
          "indexed": true,
          "internalType": "address",
          "name": "owner",
          "type": "address"
        },
        {
          "indexed": false,
          "internalType": "uint256",
          "name": "blockNumber",
          "type": "uint256"
        }
      ],
      "name": "Claim",
      "type": "event"
    },
    {
      "anonymous": false,
      "inputs": [
        {
          "indexed": false,
          "internalType": "uint8",
          "name": "version",
          "type": "uint8"
        }
      ],
      "name": "Initialized",
      "type": "event"
    },
    {
      "anonymous": false,
      "inputs": [
        {
          "indexed": true,
          "internalType": "address",
          "name": "previousOwner",
          "type": "address"
        },
        {
          "indexed": true,
          "internalType": "address",
          "name": "newOwner",
          "type": "address"
        }
      ],
      "name": "OwnershipTransferred",
      "type": "event"
    },
    {
      "anonymous": false,
      "inputs": [
        {
          "indexed": false,
          "internalType": "address",
          "name": "account",
          "type": "address"
        }
      ],
      "name": "Paused",
      "type": "event"
    },
    {
      "anonymous": false,
      "inputs": [
        {
          "indexed": true,
          "internalType": "address",
          "name": "reserver",
          "type": "address"
        },
        {
          "indexed": true,
          "internalType": "uint256",
          "name": "tokenId",
          "type": "uint256"
        },
        {
          "indexed": true,
          "internalType": "address",
          "name": "owner",
          "type": "address"
        },
        {
          "indexed": false,
          "internalType": "uint256",
          "name": "blockNumber",
          "type": "uint256"
        }
      ],
      "name": "Reserve",
      "type": "event"
    },
    {
      "anonymous": false,
      "inputs": [
        {
          "indexed": true,
          "internalType": "address",
          "name": "from",
          "type": "address"
        },
        {
          "indexed": true,
          "internalType": "address",
          "name": "to",
          "type": "address"
        },
        {
          "indexed": true,
          "internalType": "uint256",
          "name": "tokenId",
          "type": "uint256"
        }
      ],
      "name": "Transfer",
      "type": "event"
    },
    {
      "anonymous": false,
      "inputs": [
        {
          "indexed": false,
          "internalType": "address",
          "name": "account",
          "type": "address"
        }
      ],
      "name": "Unpaused",
      "type": "event"
    },
    {
      "inputs": [],
      "name": "_admin",
      "outputs": [
        {
          "internalType": "address",
          "name": "",
          "type": "address"
        }
      ],
      "stateMutability": "view",
      "type": "function"
    },
    {
      "inputs": [
        {
          "internalType": "uint256",
          "name": "",
          "type": "uint256"
        }
      ],
      "name": "_auctions",
      "outputs": [
        {
          "internalType": "uint256",
          "name": "tokenId",
          "type": "uint256"
        },
        {
          "internalType": "address",
          "name": "erc20Token",
          "type": "address"
        },
        {
          "internalType": "uint256",
          "name": "amount",
          "type": "uint256"
        },
        {
          "internalType": "uint256",
          "name": "startTime",
          "type": "uint256"
        },
        {
          "internalType": "uint256",
          "name": "endTime",
          "type": "uint256"
        },
        {
          "internalType": "address payable",
          "name": "bidder",
          "type": "address"
        },
        {
          "internalType": "bool",
          "name": "settled",
          "type": "bool"
        },
        {
          "internalType": "uint256",
          "name": "timeBuffer",
          "type": "uint256"
        },
        {
          "internalType": "uint256",
          "name": "reservePrice",
          "type": "uint256"
        },
        {
          "internalType": "uint256",
          "name": "minBidIncrementPercentage",
          "type": "uint256"
        }
      ],
      "stateMutability": "view",
      "type": "function"
    },
    {
      "inputs": [],
      "name": "_bfs",
      "outputs": [
        {
          "internalType": "address",
          "name": "",
          "type": "address"
        }
      ],
      "stateMutability": "view",
      "type": "function"
    },
    {
      "inputs": [
        {
          "internalType": "uint256",
          "name": "",
          "type": "uint256"
        },
        {
          "internalType": "address",
          "name": "",
          "type": "address"
        }
      ],
      "name": "_bidders",
      "outputs": [
        {
          "internalType": "uint256",
          "name": "",
          "type": "uint256"
        }
      ],
      "stateMutability": "view",
      "type": "function"
    },
    {
      "inputs": [],
      "name": "_gmToken",
      "outputs": [
        {
          "internalType": "address",
          "name": "",
          "type": "address"
        }
      ],
      "stateMutability": "view",
      "type": "function"
    },
    {
      "inputs": [],
      "name": "_maxSupply",
      "outputs": [
        {
          "internalType": "uint256",
          "name": "",
          "type": "uint256"
        }
      ],
      "stateMutability": "view",
      "type": "function"
    },
    {
      "inputs": [
        {
          "internalType": "uint256",
          "name": "",
          "type": "uint256"
        }
      ],
      "name": "_mintAt",
      "outputs": [
        {
          "internalType": "uint256",
          "name": "",
          "type": "uint256"
        }
      ],
      "stateMutability": "view",
      "type": "function"
    },
    {
      "inputs": [
        {
          "internalType": "address",
          "name": "",
          "type": "address"
        }
      ],
      "name": "_minted",
      "outputs": [
        {
          "internalType": "uint256",
          "name": "",
          "type": "uint256"
        }
      ],
      "stateMutability": "view",
      "type": "function"
    },
    {
      "inputs": [],
      "name": "_paramsAddress",
      "outputs": [
        {
          "internalType": "address",
          "name": "",
          "type": "address"
        }
      ],
      "stateMutability": "view",
      "type": "function"
    },
    {
      "inputs": [],
      "name": "_randomizerAddr",
      "outputs": [
        {
          "internalType": "address",
          "name": "",
          "type": "address"
        }
      ],
      "stateMutability": "view",
      "type": "function"
    },
    {
      "inputs": [],
      "name": "_script",
      "outputs": [
        {
          "internalType": "string",
          "name": "",
          "type": "string"
        }
      ],
      "stateMutability": "view",
      "type": "function"
    },
    {
      "inputs": [],
      "name": "_signerMint",
      "outputs": [
        {
          "internalType": "address",
          "name": "",
          "type": "address"
        }
      ],
      "stateMutability": "view",
      "type": "function"
    },
    {
      "inputs": [
        {
          "internalType": "address",
          "name": "to",
          "type": "address"
        },
        {
          "internalType": "uint256",
          "name": "tokenId",
          "type": "uint256"
        }
      ],
      "name": "approve",
      "outputs": [],
      "stateMutability": "nonpayable",
      "type": "function"
    },
    {
      "inputs": [
        {
          "internalType": "uint256",
          "name": "tokenId",
          "type": "uint256"
        }
      ],
      "name": "available",
      "outputs": [
        {
          "internalType": "bool",
          "name": "",
          "type": "bool"
        }
      ],
      "stateMutability": "view",
      "type": "function"
    },
    {
      "inputs": [
        {
          "internalType": "address",
          "name": "owner",
          "type": "address"
        }
      ],
      "name": "balanceOf",
      "outputs": [
        {
          "internalType": "uint256",
          "name": "",
          "type": "uint256"
        }
      ],
      "stateMutability": "view",
      "type": "function"
    },
    {
      "inputs": [
        {
          "internalType": "address",
          "name": "to",
          "type": "address"
        },
        {
          "internalType": "uint256",
          "name": "n",
          "type": "uint256"
        },
        {
          "internalType": "bytes",
          "name": "signatures",
          "type": "bytes"
        }
      ],
      "name": "batchMint",
      "outputs": [
        {
          "internalType": "uint256[]",
          "name": "",
          "type": "uint256[]"
        }
      ],
      "stateMutability": "payable",
      "type": "function"
    },
    {
      "inputs": [
        {
          "internalType": "uint256",
          "name": "tokenId",
          "type": "uint256"
        }
      ],
      "name": "biddable",
      "outputs": [
        {
          "internalType": "bool",
          "name": "",
          "type": "bool"
        }
      ],
      "stateMutability": "view",
      "type": "function"
    },
    {
      "inputs": [
        {
          "internalType": "address",
          "name": "newAdm",
          "type": "address"
        }
      ],
      "name": "changeAdmin",
      "outputs": [],
      "stateMutability": "nonpayable",
      "type": "function"
    },
    {
      "inputs": [
        {
          "internalType": "address",
          "name": "newBfs",
          "type": "address"
        }
      ],
      "name": "changeBfs",
      "outputs": [],
      "stateMutability": "nonpayable",
      "type": "function"
    },
    {
      "inputs": [
        {
          "internalType": "address",
          "name": "newBrc20",
          "type": "address"
        }
      ],
      "name": "changeBrc20Token",
      "outputs": [],
      "stateMutability": "nonpayable",
      "type": "function"
    },
    {
      "inputs": [
        {
          "internalType": "address",
          "name": "newAddr",
          "type": "address"
        }
      ],
      "name": "changeParamAddr",
      "outputs": [],
      "stateMutability": "nonpayable",
      "type": "function"
    },
    {
      "inputs": [
        {
          "internalType": "address",
          "name": "newAddr",
          "type": "address"
        }
      ],
      "name": "changeRandomizerAddr",
      "outputs": [],
      "stateMutability": "nonpayable",
      "type": "function"
    },
    {
      "inputs": [
        {
          "internalType": "string",
          "name": "newScript",
          "type": "string"
        }
      ],
      "name": "changeScript",
      "outputs": [],
      "stateMutability": "nonpayable",
      "type": "function"
    },
    {
      "inputs": [
        {
          "internalType": "address",
          "name": "newAdd",
          "type": "address"
        }
      ],
      "name": "changeSignerMint",
      "outputs": [],
      "stateMutability": "nonpayable",
      "type": "function"
    },
    {
      "inputs": [
        {
          "internalType": "uint256",
          "name": "tokenId",
          "type": "uint256"
        }
      ],
      "name": "claimBid",
      "outputs": [],
      "stateMutability": "nonpayable",
      "type": "function"
    },
    {
      "inputs": [
        {
          "internalType": "uint256",
          "name": "tokenId",
          "type": "uint256"
        }
      ],
      "name": "createAuction",
      "outputs": [],
      "stateMutability": "nonpayable",
      "type": "function"
    },
    {
      "inputs": [
        {
          "internalType": "uint256",
          "name": "tokenId",
          "type": "uint256"
        },
        {
          "internalType": "uint256",
          "name": "amount",
          "type": "uint256"
        }
      ],
      "name": "createBid",
      "outputs": [],
      "stateMutability": "payable",
      "type": "function"
    },
    {
      "inputs": [
        {
          "internalType": "uint256",
          "name": "tokenId",
          "type": "uint256"
        }
      ],
      "name": "getApproved",
      "outputs": [
        {
          "internalType": "address",
          "name": "",
          "type": "address"
        }
      ],
      "stateMutability": "view",
      "type": "function"
    },
    {
      "inputs": [
        {
          "internalType": "address",
          "name": "user",
          "type": "address"
        },
        {
          "internalType": "uint256",
          "name": "totalGM",
          "type": "uint256"
        }
      ],
      "name": "getMessageHash",
      "outputs": [
        {
          "internalType": "bytes32",
          "name": "",
          "type": "bytes32"
        }
      ],
      "stateMutability": "view",
      "type": "function"
    },
    {
      "inputs": [
        {
          "internalType": "string",
          "name": "name",
          "type": "string"
        },
        {
          "internalType": "string",
          "name": "symbol",
          "type": "string"
        },
        {
          "internalType": "address",
          "name": "admin",
          "type": "address"
        },
        {
          "internalType": "address",
          "name": "paramsAddress",
          "type": "address"
        },
        {
          "internalType": "address",
          "name": "randomizerAddr",
          "type": "address"
        },
        {
          "internalType": "address",
          "name": "gmToken",
          "type": "address"
        },
        {
          "internalType": "address",
          "name": "bfs",
          "type": "address"
        },
        {
          "internalType": "address",
          "name": "signerMint",
          "type": "address"
        }
      ],
      "name": "initialize",
      "outputs": [],
      "stateMutability": "nonpayable",
      "type": "function"
    },
    {
      "inputs": [
        {
          "internalType": "address",
          "name": "owner",
          "type": "address"
        },
        {
          "internalType": "address",
          "name": "operator",
          "type": "address"
        }
      ],
      "name": "isApprovedForAll",
      "outputs": [
        {
          "internalType": "bool",
          "name": "",
          "type": "bool"
        }
      ],
      "stateMutability": "view",
      "type": "function"
    },
    {
      "inputs": [
        {
          "internalType": "address",
          "name": "to",
          "type": "address"
        },
        {
          "internalType": "uint256",
          "name": "totalGM",
          "type": "uint256"
        },
        {
          "internalType": "bytes",
          "name": "signature",
          "type": "bytes"
        }
      ],
      "name": "mint",
      "outputs": [
        {
          "internalType": "uint256",
          "name": "tokenId",
          "type": "uint256"
        }
      ],
      "stateMutability": "payable",
      "type": "function"
    },
    {
      "inputs": [],
      "name": "name",
      "outputs": [
        {
          "internalType": "string",
          "name": "",
          "type": "string"
        }
      ],
      "stateMutability": "view",
      "type": "function"
    },
    {
      "inputs": [],
      "name": "owner",
      "outputs": [
        {
          "internalType": "address",
          "name": "",
          "type": "address"
        }
      ],
      "stateMutability": "view",
      "type": "function"
    },
    {
      "inputs": [
        {
          "internalType": "uint256",
          "name": "tokenId",
          "type": "uint256"
        }
      ],
      "name": "ownerOf",
      "outputs": [
        {
          "internalType": "address",
          "name": "",
          "type": "address"
        }
      ],
      "stateMutability": "view",
      "type": "function"
    },
    {
      "inputs": [],
      "name": "p5jsScript",
      "outputs": [
        {
          "internalType": "string",
          "name": "result",
          "type": "string"
        }
      ],
      "stateMutability": "view",
      "type": "function"
    },
    {
      "inputs": [],
      "name": "paused",
      "outputs": [
        {
          "internalType": "bool",
          "name": "",
          "type": "bool"
        }
      ],
      "stateMutability": "view",
      "type": "function"
    },
    {
      "inputs": [],
      "name": "renounceOwnership",
      "outputs": [],
      "stateMutability": "nonpayable",
      "type": "function"
    },
    {
      "inputs": [
        {
          "internalType": "uint256",
          "name": "projectId",
          "type": "uint256"
        },
        {
          "internalType": "uint256",
          "name": "_salePrice",
          "type": "uint256"
        }
      ],
      "name": "royaltyInfo",
      "outputs": [
        {
          "internalType": "address",
          "name": "receiver",
          "type": "address"
        },
        {
          "internalType": "uint256",
          "name": "royaltyAmount",
          "type": "uint256"
        }
      ],
      "stateMutability": "view",
      "type": "function"
    },
    {
      "inputs": [
        {
          "internalType": "address",
          "name": "from",
          "type": "address"
        },
        {
          "internalType": "address",
          "name": "to",
          "type": "address"
        },
        {
          "internalType": "uint256",
          "name": "tokenId",
          "type": "uint256"
        }
      ],
      "name": "safeTransferFrom",
      "outputs": [],
      "stateMutability": "nonpayable",
      "type": "function"
    },
    {
      "inputs": [
        {
          "internalType": "address",
          "name": "from",
          "type": "address"
        },
        {
          "internalType": "address",
          "name": "to",
          "type": "address"
        },
        {
          "internalType": "uint256",
          "name": "tokenId",
          "type": "uint256"
        },
        {
          "internalType": "bytes",
          "name": "data",
          "type": "bytes"
        }
      ],
      "name": "safeTransferFrom",
      "outputs": [],
      "stateMutability": "nonpayable",
      "type": "function"
    },
    {
      "inputs": [
        {
          "internalType": "address",
          "name": "operator",
          "type": "address"
        },
        {
          "internalType": "bool",
          "name": "approved",
          "type": "bool"
        }
      ],
      "name": "setApprovalForAll",
      "outputs": [],
      "stateMutability": "nonpayable",
      "type": "function"
    },
    {
      "inputs": [
        {
          "internalType": "uint256",
          "name": "tokenId",
          "type": "uint256"
        }
      ],
      "name": "settleAuction",
      "outputs": [],
      "stateMutability": "nonpayable",
      "type": "function"
    },
    {
      "inputs": [
        {
          "internalType": "bytes4",
          "name": "interfaceId",
          "type": "bytes4"
        }
      ],
      "name": "supportsInterface",
      "outputs": [
        {
          "internalType": "bool",
          "name": "",
          "type": "bool"
        }
      ],
      "stateMutability": "view",
      "type": "function"
    },
    {
      "inputs": [],
      "name": "symbol",
      "outputs": [
        {
          "internalType": "string",
          "name": "",
          "type": "string"
        }
      ],
      "stateMutability": "view",
      "type": "function"
    },
    {
      "inputs": [
        {
          "internalType": "bytes32",
          "name": "seed",
          "type": "bytes32"
        },
        {
          "internalType": "uint256",
          "name": "tokenId",
          "type": "uint256"
        }
      ],
      "name": "tokenHTML",
      "outputs": [
        {
          "internalType": "string",
          "name": "result",
          "type": "string"
        }
      ],
      "stateMutability": "view",
      "type": "function"
    },
    {
      "inputs": [
        {
          "internalType": "uint256",
          "name": "tokenId",
          "type": "uint256"
        }
      ],
      "name": "tokenIdToHash",
      "outputs": [
        {
          "internalType": "bytes32",
          "name": "",
          "type": "bytes32"
        }
      ],
      "stateMutability": "view",
      "type": "function"
    },
    {
      "inputs": [
        {
          "internalType": "uint256",
          "name": "tokenId",
          "type": "uint256"
        }
      ],
      "name": "tokenURI",
      "outputs": [
        {
          "internalType": "string",
          "name": "result",
          "type": "string"
        }
      ],
      "stateMutability": "view",
      "type": "function"
    },
    {
      "inputs": [
        {
          "internalType": "address",
          "name": "from",
          "type": "address"
        },
        {
          "internalType": "address",
          "name": "to",
          "type": "address"
        },
        {
          "internalType": "uint256",
          "name": "tokenId",
          "type": "uint256"
        }
      ],
      "name": "transferFrom",
      "outputs": [],
      "stateMutability": "nonpayable",
      "type": "function"
    },
    {
      "inputs": [
        {
          "internalType": "address",
          "name": "newOwner",
          "type": "address"
        }
      ],
      "name": "transferOwnership",
      "outputs": [],
      "stateMutability": "nonpayable",
      "type": "function"
    },
    {
      "inputs": [
        {
          "internalType": "bytes32",
          "name": "seed",
          "type": "bytes32"
        },
        {
          "internalType": "uint256",
          "name": "tokenId",
          "type": "uint256"
        }
      ],
      "name": "variableScript",
      "outputs": [
        {
          "internalType": "string",
          "name": "result",
          "type": "string"
        }
      ],
      "stateMutability": "view",
      "type": "function"
    },
    {
      "inputs": [],
      "name": "web3Script",
      "outputs": [
        {
          "internalType": "string",
          "name": "result",
          "type": "string"
        }
      ],
      "stateMutability": "view",
      "type": "function"
    }
  ],
  "bytecode": "0x608060405234801561001057600080fd5b50615ef980620000216000396000f3fe6080604052600436106102ff5760003560e01c8063715018a611610190578063a22cb465116100dc578063cc22e00411610095578063eb29c2321161006f578063eb29c23214610a1a578063f2fde38b14610a3a578063f3f83ddd14610a5a578063febfd6c314610a7a57600080fd5b8063cc22e00414610983578063d5563f31146109b1578063e985e9c5146109d157600080fd5b8063a22cb465146108ce578063adfc7dae146108ee578063b7751c711461090f578063b88d4fde14610922578063bd89684314610942578063c87b56dd1461096357600080fd5b806393c6cdc01161014957806395d89b411161012357806395d89b411461086357806396e494e8146108785780639c6f35f914610898578063a0d41e11146108b957600080fd5b806393c6cdc01461081057806394d008ef1461083057806394f5a66e1461084357600080fd5b8063715018a61461076457806374973a41146107795780637de77ecc1461078e5780638a016249146107bc5780638da5cb5b146107d15780638f283970146107f057600080fd5b80632d61bd091161024f5780635c975abb116102085780636352211e116101e25780636352211e146106e357806366215eb41461070357806368a17bd81461072457806370a082311461074457600080fd5b80635c975abb1461068b578063621a1f74146106a3578063624de2a9146106c357600080fd5b80632d61bd09146105b15780632e993611146105ea57806332e323261461060a578063333489791461062a57806342842e0e1461064b578063512c91df1461066b57600080fd5b806317dc6bf6116102bc57806322f4596f1161029657806322f4596f1461050d57806323b872dd146105325780632a55205a146105525780632b7d13de1461059157600080fd5b806317dc6bf6146103f65780631ca9741b146104cd57806321113057146104ed57600080fd5b806301bc45c91461030457806301ffc9a71461034257806306fdde0314610372578063081812fc14610394578063095ea7b3146103b4578063140f0e07146103d6575b600080fd5b34801561031057600080fd5b5061015f54610325906001600160a01b031681565b6040516001600160a01b0390911681526020015b60405180910390f35b34801561034e57600080fd5b5061036261035d36600461504a565b610a9a565b6040519015158152602001610339565b34801561037e57600080fd5b50610387610aec565b60405161033991906150bf565b3480156103a057600080fd5b506103256103af3660046150d2565b610b7e565b3480156103c057600080fd5b506103d46103cf36600461510b565b610ba5565b005b3480156103e257600080fd5b506103d46103f1366004615204565b610cc0565b34801561040257600080fd5b506104716104113660046150d2565b61016a6020526000908152604090208054600182015460028301546003840154600485015460058601546006870154600788015460089098015496976001600160a01b0396871697959694959394831693600160a01b90930460ff16928a565b604080519a8b526001600160a01b03998a1660208c01528a019790975260608901959095526080880193909352941660a086015292151560c085015260e084019290925261010083019190915261012082015261014001610339565b3480156104d957600080fd5b506103d46104e8366004615239565b610d20565b3480156104f957600080fd5b506103d46105083660046150d2565b610db4565b34801561051957600080fd5b506105246101655481565b604051908152602001610339565b34801561053e57600080fd5b506103d461054d366004615256565b610f2a565b34801561055e57600080fd5b5061057261056d366004615297565b610ff3565b604080516001600160a01b039093168352602083019190915201610339565b34801561059d57600080fd5b506103d46105ac366004615239565b611024565b3480156105bd57600080fd5b506105246105cc3660046152b9565b61016b60209081526000928352604080842090915290825290205481565b3480156105f657600080fd5b506103d46106053660046150d2565b6110b9565b34801561061657600080fd5b50610387610625366004615297565b611178565b34801561063657600080fd5b5061016954610325906001600160a01b031681565b34801561065757600080fd5b506103d4610666366004615256565b611361565b34801561067757600080fd5b5061052461068636600461510b565b61137c565b34801561069757600080fd5b5060975460ff16610362565b3480156106af57600080fd5b506105246106be3660046150d2565b6113da565b6106d66106d13660046152e9565b6114a8565b6040516103399190615372565b3480156106ef57600080fd5b506103256106fe3660046150d2565b611575565b34801561070f57600080fd5b5061016154610325906001600160a01b031681565b34801561073057600080fd5b5061036261073f3660046150d2565b611591565b34801561075057600080fd5b5061052461075f366004615239565b6115bf565b34801561077057600080fd5b506103d4611645565b34801561078557600080fd5b50610387611659565b34801561079a57600080fd5b506105246107a9366004615239565b6101686020526000908152604090205481565b3480156107c857600080fd5b506103876118b3565b3480156107dd57600080fd5b5061012d546001600160a01b0316610325565b3480156107fc57600080fd5b506103d461080b366004615239565b611942565b34801561081c57600080fd5b506103d461082b366004615239565b6119d7565b61052461083e3660046152e9565b611a6c565b34801561084f57600080fd5b506103d461085e3660046153b6565b611d79565b34801561086f57600080fd5b50610387611f9f565b34801561088457600080fd5b506103626108933660046150d2565b611fae565b3480156108a457600080fd5b5061016454610325906001600160a01b031681565b3480156108c557600080fd5b50610387612054565b3480156108da57600080fd5b506103d46108e9366004615496565b612285565b3480156108fa57600080fd5b5061016054610325906001600160a01b031681565b6103d461091d366004615297565b612290565b34801561092e57600080fd5b506103d461093d3660046154c4565b61289d565b34801561094e57600080fd5b5061016c54610325906001600160a01b031681565b34801561096f57600080fd5b5061038761097e3660046150d2565b6128ff565b34801561098f57600080fd5b5061052461099e3660046150d2565b6101676020526000908152604090205481565b3480156109bd57600080fd5b506103d46109cc3660046150d2565b612b98565b3480156109dd57600080fd5b506103626109ec366004615544565b6001600160a01b039182166000908152606a6020908152604080832093909416825291909152205460ff1690565b348015610a2657600080fd5b50610387610a35366004615297565b612c7e565b348015610a4657600080fd5b506103d4610a55366004615239565b612d50565b348015610a6657600080fd5b506103d4610a75366004615239565b612dc6565b348015610a8657600080fd5b506103d4610a95366004615239565b612e5b565b60006001600160e01b031982166380ac58cd60e01b1480610acb57506001600160e01b03198216635b5e139f60e01b145b80610ae657506301ffc9a760e01b6001600160e01b03198316145b92915050565b606060658054610afb90615572565b80601f0160208091040260200160405190810160405280929190818152602001828054610b2790615572565b8015610b745780601f10610b4957610100808354040283529160200191610b74565b820191906000526020600020905b815481529060010190602001808311610b5757829003601f168201915b5050505050905090565b6000610b8982612ef0565b506000908152606960205260409020546001600160a01b031690565b6000610bb082612f40565b9050806001600160a01b0316836001600160a01b03161415610c235760405162461bcd60e51b815260206004820152602160248201527f4552433732313a20617070726f76616c20746f2063757272656e74206f776e656044820152603960f91b60648201526084015b60405180910390fd5b336001600160a01b0382161480610c3f5750610c3f81336109ec565b610cb15760405162461bcd60e51b815260206004820152603d60248201527f4552433732313a20617070726f76652063616c6c6572206973206e6f7420746f60448201527f6b656e206f776e6572206f7220617070726f76656420666f7220616c6c0000006064820152608401610c1a565b610cbb8383612fa0565b505050565b61015f5460408051808201909152600381526231303160e81b6020820152906001600160a01b03163314610d075760405162461bcd60e51b8152600401610c1a91906150bf565b508051610d1c90610163906020840190614f9b565b5050565b61015f546001600160a01b031633148015610d4357506001600160a01b03811615155b6040518060400160405280600381526020016231303160e81b81525090610d7d5760405162461bcd60e51b8152600401610c1a91906150bf565b50610161546001600160a01b03828116911614610db15761016180546001600160a01b0319166001600160a01b0383161790555b50565b610dbc61300e565b600081815261016a6020526040902060050154600160a01b900460ff16610de257600080fd5b600081815261016a60205260409020600501546001600160a01b0316331415610e0a57600080fd5b600081815261016b60209081526040808320338452909152902054610e2e57600080fd5b600081815261016a602090815260408083206001015461016b83528184203380865293529281902054905163a9059cbb60e01b8152600481019290925260248201526001600160a01b039091169063a9059cbb906044016020604051808303816000875af1158015610ea4573d6000803e3d6000fd5b505050506040513d601f19601f82011682018060405250810190610ec891906155ad565b50600081815261016b6020908152604080832033808552908352928190205481519384529183019190915282917f63ad079d900b92497dd34dccc37cb42c76aff5798f6084bd35af77d8cb5473fe910160405180910390a2610db1600160fb55565b336001600160a01b0384161415610f7f5761015f546001600160a01b03163314610f7a5760405162461bcd60e51b81526020600482015260016024820152601560fa1b6044820152606401610c1a565b610fe8565b333b63ffffffff1615610fba5760405162461bcd60e51b8152602060048201526003602482015262545f3160e81b6044820152606401610c1a565b60405162461bcd60e51b81526020600482015260036024820152622a2f9960e91b6044820152606401610c1a565b610cbb83838361306f565b61015f546001600160a01b03166000612710611011846101f46155e0565b61101b91906155ff565b90509250929050565b61015f546001600160a01b03163314801561104757506001600160a01b03811615155b6040518060400160405280600381526020016231303160e81b815250906110815760405162461bcd60e51b8152600401610c1a91906150bf565b50610169546001600160a01b03828116911614610db15761016980546001600160a01b0383166001600160a01b031990911617905550565b6110c161300e565b6110ca81611575565b6001600160a01b0316336001600160a01b031614156111485760006110ee336130aa565b905060006110fa61311a565b9050808210156111455760405162461bcd60e51b815260206004820152601660248201527518985b185b98d94811d3480f081d1a1c995cda1bdb1960521b6044820152606401610c1a565b50505b61116e8161115583611575565b6001600160a01b0316336001600160a01b0316146131c5565b610db1600160fb55565b6040805180820190915260128152711e39b1b934b83a1034b21e93bb30b939939f60711b6020820152806111ab846136cc565b6040516020016111bc929190615621565b60408051601f198184030181529190526101645490915081906111e7906001600160a01b0316613718565b6040516020016111f8929190615675565b60408051808303601f19018152908290526101605463bf40fac160e01b835260206004840152602160248401527f535741505f504f4f4c5f474d5f4554485f434f4e54524143545f4144445245536044840152605360f81b60648401529092506001600160a01b031690600090829063bf40fac190608401602060405180830381865afa15801561128d573d6000803e3d6000fd5b505050506040513d601f19601f820116820180604052508101906112b191906156dc565b9050826112bd82613718565b6040516020016112ce9291906156f9565b6040516020818303038152906040529250826112e930613718565b6040516020016112fa929190615771565b6040516020818303038152906040529250826113158561372e565b6040516020016113269291906157d8565b6040516020818303038152906040529250826040516020016113489190615830565b6040516020818303038152906040529250505092915050565b610cbb8383836040518060200160405280600081525061289d565b61016c5461016454604080513060208083019190915246828401526001600160a01b03948516606083015295841660808201529290911660a083015260c0808301939093528051808303909301835260e09091019052805191012090565b60006113e5826137cb565b6040518060400160405280600381526020016232303960e81b8152509061141f5760405162461bcd60e51b8152600401610c1a91906150bf565b5060008281526101666020526040902054600160a01b900460a01b6001600160a01b03191661145057506000919050565b6000828152610166602090815260409182902054915161148b92600160a01b900460a01b91016001600160a01b031991909116815260200190565b604051602081830303815290604052805190602001209050919050565b606060008467ffffffffffffffff8111156114c5576114c5615137565b6040519080825280602002602001820160405280156114ee578160200160208202803683370190505b5061015f549091506001600160a01b0316331461150a57600080fd5b60005b858110156115695760006115248860008888611a6c565b9050808383815181106115395761153961585d565b60200260200101818152505062030d405a10156115565750611569565b508061156181615873565b91505061150d565b5090505b949350505050565b600090815261016660205260409020546001600160a01b031690565b60008061159c61311a565b9050806115a8336130aa565b106115b65750600192915050565b50600092915050565b60006001600160a01b0382166116295760405162461bcd60e51b815260206004820152602960248201527f4552433732313a2061646472657373207a65726f206973206e6f7420612076616044820152683634b21037bbb732b960b91b6064820152608401610c1a565b506001600160a01b031660009081526068602052604090205490565b61164d6137e9565b6116576000613844565b565b6060604051806060016040528060378152602001615e8d6037913961016954604080518082018252600d81526c70356a7340312e352e302e6a7360981b602082015261016054915163bf40fac160e01b81529394506001600160a01b039283169390929190911690600090829063bf40fac1906116fc906004016020808252600f908201526e29a1a924a82a2fa82927ab24a222a960891b604082015260600190565b602060405180830381865afa158015611719573d6000803e3d6000fd5b505050506040513d601f19601f8201168201806040525081019061173d91906156dc565b90506000846001600160a01b031663ba67e64183866040518363ffffffff1660e01b815260040161176f92919061588e565b602060405180830381865afa15801561178c573d6000803e3d6000fd5b505050506040513d601f19601f820116820180604052508101906117b091906158b2565b90506117bd6001826158cb565b905060005b818110156118885761015f5460405163283959d960e21b815260009182916001600160a01b038a81169263a0e567649261180692909116908b9088906004016158e3565b600060405180830381865afa158015611823573d6000803e3d6000fd5b505050506040513d6000823e601f3d908101601f1916820160405261184b9190810190615947565b9150915088826040516020016118629291906159a2565b60405160208183030381529060405298505050808061188090615873565b9150506117c2565b508560405160200161189a9190615830565b6040516020818303038152906040529550505050505090565b61016380546118c190615572565b80601f01602080910402602001604051908101604052809291908181526020018280546118ed90615572565b801561193a5780601f1061190f5761010080835404028352916020019161193a565b820191906000526020600020905b81548152906001019060200180831161191d57829003601f168201915b505050505081565b61015f546001600160a01b03163314801561196557506001600160a01b03811615155b6040518060400160405280600381526020016231303160e81b8152509061199f5760405162461bcd60e51b8152600401610c1a91906150bf565b5061015f546001600160a01b03828116911614610db15761015f80546001600160a01b0383166001600160a01b031990911617905550565b61015f546001600160a01b0316331480156119fa57506001600160a01b03811615155b6040518060400160405280600381526020016231303160e81b81525090611a345760405162461bcd60e51b8152600401610c1a91906150bf565b50610164546001600160a01b03828116911614610db15761016480546001600160a01b0383166001600160a01b031990911617905550565b6000611a7661300e565b6101655461016254106040518060400160405280600381526020016232303360e81b81525090611ab95760405162461bcd60e51b8152600401610c1a91906150bf565b5061015f546001600160a01b03163314611bf957336001600160a01b03861614611b0d5760405162461bcd60e51b815260206004820152600560248201526447505f495560d81b6044820152606401610c1a565b611b16856115bf565b15611b495760405162461bcd60e51b8152602060048201526003602482015262312d3160e81b6044820152606401610c1a565b6001600160a01b0385166000908152610168602052604090205415611b945760405162461bcd60e51b81526020600482015260016024820152604d60f81b6044820152606401610c1a565b611bd5858585858080601f01602080910402602001604051908101604052809392919081815260200183838082843760009201919091525061389792505050565b50506001600160a01b03851660009081526101686020526040902060019055611cb4565b61015f546001600160a01b03868116911614611cb457611c18856115bf565b15611c4b5760405162461bcd60e51b8152602060048201526003602482015262312d3160e81b6044820152606401610c1a565b6001600160a01b0385166000908152610168602052604090205415611c965760405162461bcd60e51b81526020600482015260016024820152604d60f81b6044820152606401610c1a565b6001600160a01b038516600090815261016860205260409020600190555b6101628054906000611cc583615873565b9190505550610162549050611cda8582613910565b61016154604051631da00d8560e01b8152600481018390526001600160a01b03909116906000908290631da00d85906024016020604051808303816000875af1158015611d2b573d6000803e3d6000fd5b505050506040513d601f19601f82011682018060405250810190611d4f91906158b2565b9050611d5b838261392a565b505060008181526101676020526040902043905561156d600160fb55565b600054610100900460ff1615808015611d995750600054600160ff909116105b80611db35750303b158015611db3575060005460ff166001145b611e165760405162461bcd60e51b815260206004820152602e60248201527f496e697469616c697a61626c653a20636f6e747261637420697320616c72656160448201526d191e481a5b9a5d1a585b1a5e995960921b6064820152608401610c1a565b6000805460ff191660011790558015611e39576000805461ff0019166101001790555b60408051808201909152600381526203130360ec1b60208201526001600160a01b038816611e7a5760405162461bcd60e51b8152600401610c1a91906150bf565b5060408051808201909152600381526203130360ec1b60208201526001600160a01b038716611ebc5760405162461bcd60e51b8152600401610c1a91906150bf565b5061016080546001600160a01b03199081166001600160a01b038981169190911790925561015f805482168a841617905561016180548216888416179055610164805482168784161790556103e8610165556101698054821686841617905561016c8054909116918416919091179055611f3689896139f5565b611f3e613a26565b611f46613a55565b611f4e613a84565b8015611f94576000805461ff0019169055604051600181527f7f26b83ff96e1f2b6a682f133852f6798a09c465da95921460cefb38474024989060200160405180910390a15b505050505050505050565b606060668054610afb90615572565b6000611fb8613ab3565b60008381526101676020526040902054611fd290436159d1565b11611fdf57506000919050565b61015f546001600160a01b0316611ff583611575565b6001600160a01b0316148061201a57503061200f83611575565b6001600160a01b0316145b1561202757506000919050565b600061203161311a565b90508061204561204085611575565b6130aa565b10156115b65750600192915050565b6060604051806060016040528060378152602001615e8d6037913961016954604080518082018252600f81526e776562336a7340312e322e372e6a7360881b602082015261016054915163bf40fac160e01b81529394506001600160a01b039283169390929190911690600090829063bf40fac1906120f9906004016020808252600f908201526e29a1a924a82a2fa82927ab24a222a960891b604082015260600190565b602060405180830381865afa158015612116573d6000803e3d6000fd5b505050506040513d601f19601f8201168201806040525081019061213a91906156dc565b90506000846001600160a01b031663ba67e64183866040518363ffffffff1660e01b815260040161216c92919061588e565b602060405180830381865afa158015612189573d6000803e3d6000fd5b505050506040513d601f19601f820116820180604052508101906121ad91906158b2565b90506121ba6001826158cb565b905060005b818110156118885761015f5460405163283959d960e21b815260009182916001600160a01b038a81169263a0e567649261220392909116908b9088906004016158e3565b600060405180830381865afa158015612220573d6000803e3d6000fd5b505050506040513d6000823e601f3d908101601f191682016040526122489190810190615947565b91509150888260405160200161225f9291906159a2565b60405160208183030381529060405298505050808061227d90615873565b9150506121bf565b610d1c338383613b55565b61229861300e565b6122a182611591565b6122d65760405162461bcd60e51b8152600401610c1a9060208082526004908201526304e5f43360e41b604082015260600190565b6122df336115bf565b156123155760405162461bcd60e51b8152602060048201526006602482015265272fa1982f9960d11b6044820152606401610c1a565b600082815261016a602090815260408083206001015461016b83528184203385529092528220546001600160a01b039091169161235282856158cb565b600086815261016a602052604090205490915085146123a85760405162461bcd60e51b81526020600482015260126024820152713737ba103ab8103337b91030bab1ba34b7b760711b6044820152606401610c1a565b600085815261016a602052604090206004015442106123fb5760405162461bcd60e51b815260206004820152600f60248201526e105d58dd1a5bdb88195e1c1a5c9959608a1b6044820152606401610c1a565b604051636eb1769f60e11b815233600482015230602482015284906001600160a01b0385169063dd62ed3e90604401602060405180830381865afa158015612447573d6000803e3d6000fd5b505050506040513d601f19601f8201168201806040525081019061246b91906158b2565b10156124b95760405162461bcd60e51b815260206004820152601c60248201527f6e6f7420656e6f75676820616c6c6f7720657263323020746f6b656e000000006044820152606401610c1a565b6040516370a0823160e01b815233600482015284906001600160a01b038516906370a0823190602401602060405180830381865afa1580156124ff573d6000803e3d6000fd5b505050506040513d601f19601f8201168201806040525081019061252391906158b2565b101561256a5760405162461bcd60e51b81526020600482015260166024820152753737ba1032b737bab3b41032b9319918103a37b5b2b760511b6044820152606401610c1a565b600085815261016a60205260409020600701548110156125cc5760405162461bcd60e51b815260206004820152601f60248201527f4d7573742073656e64206174206c6561737420726573657276655072696365006044820152606401610c1a565b600085815261016a6020526040902060088101546002909101546064916125f2916155e0565b6125fc91906155ff565b600086815261016a602052604090206002015461261991906158cb565b811015612690576040805162461bcd60e51b81526020600482015260248101919091527f4d7573742073656e64206d6f7265207468616e206c617374206269642062792060448201527f6d696e426964496e6372656d656e7450657263656e7461676520616d6f756e746064820152608401610c1a565b6040516323b872dd60e01b8152336004820152306024820152604481018590526001600160a01b038416906323b872dd906064016020604051808303816000875af11580156126e3573d6000803e3d6000fd5b505050506040513d601f19601f8201168201806040525081019061270791906155ad565b6127535760405162461bcd60e51b815260206004820152601d60248201527f63616e206e6f74206765742065726332302066726f6d206269646465720000006044820152606401610c1a565b600085815261016b602090815260408083203380855290835281842085905588845261016a9092528220600281018490556005810180546001600160a01b03191690921790915560068101546004909101546127b09042906159d1565b10905080156127ea57600086815261016a60205260409020600601546127d690426158cb565b600087815261016a60205260409020600401555b600086815261016a60209081526040918290205482513381529182018890528315158284015291517f1159164c56f277e6fc99c11731bd380e0347deb969b75523398734c252706ea39181900360600190a2801561288f57600086815261016a602090815260409182902080546004909101549251928352917f6e912a3a9105bdd2af817ba5adc14e6c127c1035b5b648faa29ca0d58ab8ff4e910160405180910390a25b50505050610d1c600160fb55565b336001600160a01b0385161415610f7f5761015f546001600160a01b031633146128ed5760405162461bcd60e51b81526020600482015260016024820152601560fa1b6044820152606401610c1a565b6128f984848484613c24565b50505050565b606061290a826137cb565b6040518060400160405280600381526020016232303960e81b815250906129445760405162461bcd60e51b8152600401610c1a91906150bf565b5060405163188687dd60e21b815260048101839052600090309063621a1f7490602401602060405180830381865afa158015612984573d6000803e3d6000fd5b505050506040513d601f19601f820116820180604052508101906129a891906158b2565b61016054604051637594e11960e11b815260048101839052602481018690529192506001600160a01b031690600090309063eb29c23290604401600060405180830381865afa1580156129ff573d6000803e3d6000fd5b505050506040513d6000823e601f3d908101601f19168201604052612a2791908101906159e8565b9050612a5181604051602001612a3d9190615a31565b604051602081830303815290604052613c57565b604051602001612a619190615a4d565b6040516020818303038152906040529050600081604051602001612a859190615a8b565b60408051601f198184030181528282018252600e83526d109054d157d5549257d51490525560921b6020840152905163349f642f60e11b81529092506000916001600160a01b0386169163693ec85e91612ae1916004016150bf565b600060405180830381865afa158015612afe573d6000803e3d6000fd5b505050506040513d6000823e601f3d908101601f19168201604052612b2691908101906159e8565b905080612b3230613718565b612b3b8961372e565b612b44886136cc565b604051602001612b579493929190615ad2565b6040516020818303038152906040529050808282604051602001612b7d93929190615b54565b60405160208183030381529060405295505050505050919050565b612ba061300e565b612ba981611fae565b612bde5760405162461bcd60e51b8152600401610c1a9060208082526004908201526304e5f43360e41b604082015260600190565b612be7336115bf565b15612c1d5760405162461bcd60e51b8152602060048201526006602482015265272fa1982f9960d11b6044820152606401610c1a565b612c25613ab3565b60008281526101676020526040902054612c3f90436159d1565b11612c755760405162461bcd60e51b81526020600482015260066024820152654e5f43305f3360d01b6044820152606401610c1a565b61116e81613dbd565b60408051808201909152600c81526b1e343a36b61f1e3432b0b21f60a11b602082015280612caa611659565b604051602001612cbb9291906159a2565b604051602081830303815290604052905080612cd5612054565b604051602001612ce69291906159a2565b604051602081830303815290604052905080612d028484611178565b604051602001612d139291906159a2565b604051602081830303815290604052905080610163604051602001612d39929190615c32565b604051602081830303815290604052905092915050565b612d586137e9565b6001600160a01b038116612dbd5760405162461bcd60e51b815260206004820152602660248201527f4f776e61626c653a206e6577206f776e657220697320746865207a65726f206160448201526564647265737360d01b6064820152608401610c1a565b610db181613844565b61015f546001600160a01b031633148015612de957506001600160a01b03811615155b6040518060400160405280600381526020016231303160e81b81525090612e235760405162461bcd60e51b8152600401610c1a91906150bf565b5061016c546001600160a01b03828116911614610db15761016c80546001600160a01b0383166001600160a01b031990911617905550565b61015f546001600160a01b031633148015612e7e57506001600160a01b03811615155b6040518060400160405280600381526020016231303160e81b81525090612eb85760405162461bcd60e51b8152600401610c1a91906150bf565b50610160546001600160a01b03828116911614610db15761016080546001600160a01b0383166001600160a01b031990911617905550565b612ef9816137cb565b610db15760405162461bcd60e51b8152602060048201526018602482015277115490cdcc8c4e881a5b9d985b1a59081d1bdad95b88125160421b6044820152606401610c1a565b6000818152606760205260408120546001600160a01b031680610ae65760405162461bcd60e51b8152602060048201526018602482015277115490cdcc8c4e881a5b9d985b1a59081d1bdad95b88125160421b6044820152606401610c1a565b600081815260696020526040902080546001600160a01b0319166001600160a01b0384169081179091558190612fd582612f40565b6001600160a01b03167f8c5be1e5ebec7d5bd14f71427d1e84f3dd0314c0f7b2291e5b200ac8c7c3b92560405160405180910390a45050565b600260fb5414156130615760405162461bcd60e51b815260206004820152601f60248201527f5265656e7472616e637947756172643a207265656e7472616e742063616c6c006044820152606401610c1a565b600260fb55565b600160fb55565b61307a838383614299565b60009081526101666020526040902080546001600160a01b0319166001600160a01b039290921691909117905550565b610164546040516370a0823160e01b81526001600160a01b03838116600483015260009216906370a0823190602401602060405180830381865afa1580156130f6573d6000803e3d6000fd5b505050506040513d601f19601f82011682018060405250810190610ae691906158b2565b61016054604051636d12dce160e01b815260206004820152601160248201527014d3d55317d1d357d512149154d213d311607a1b604482015260009182916001600160a01b0390911690636d12dce190606401602060405180830381865afa15801561318a573d6000803e3d6000fd5b505050506040513d601f19601f820116820180604052508101906131ae91906158b2565b9050806131c05750670de0b6b3a76400005b919050565b600082815261016a602052604090206003015461321b5760405162461bcd60e51b815260206004820152601460248201527320bab1ba34b7b7103430b9b713ba103132b3bab760611b6044820152606401610c1a565b600082815261016a6020526040902060050154600160a01b900460ff16156132855760405162461bcd60e51b815260206004820181905260248201527f41756374696f6e2068617320616c7265616479206265656e20736574746c65646044820152606401610c1a565b8061356a57600082815261016a60205260409020600401544210156132e75760405162461bcd60e51b8152602060048201526018602482015277105d58dd1a5bdb881a185cdb89dd0818dbdb5c1b195d195960421b6044820152606401610c1a565b600082815261016a6020526040812060058101805460ff60a01b198116600160a01b179091556003909101919091556001600160a01b03161561335157600082815261016a60205260409020600581015490546133519130916001600160a01b039091169061306f565b600082815261016a602052604090206002015415613503576101605460405163bf40fac160e01b815260206004820152601c60248201527f534f554c5f41554354494f4e5f474d5f44414f5f54726561737572790000000060448201526000916001600160a01b03169063bf40fac190606401602060405180830381865afa1580156133e1573d6000803e3d6000fd5b505050506040513d601f19601f8201168201806040525081019061340591906156dc565b90506001600160a01b03811661341a57600080fd5b600083815261016a6020526040902060018101546002909101546001600160a01b039091169063a9059cbb90839061271090613458906123286155e0565b61346291906155ff565b6040516001600160e01b031960e085901b1681526001600160a01b03909216600483015260248201526044016020604051808303816000875af11580156134ad573d6000803e3d6000fd5b505050506040513d601f19601f820116820180604052508101906134d191906155ad565b5050600082815261016b6020908152604080832061016a8352818420600501546001600160a01b031684529091528120555b600082815261016a60209081526040918290208054600582015460029092015484516001600160a01b0390931683529282019290925290917fc9f72b276a388619c6d185d146697036241880c36654b1a3ffdad07c24038d99910160405180910390a25050565b600082815261016a602052604090206004015442106135c65760405162461bcd60e51b8152602060048201526018602482015277105d58dd1a5bdb881a185cdb89dd0818dbdb5c1b195d195960421b6044820152606401610c1a565b600082815261016a6020526040812060058101805460ff60a01b1916600160a01b1790556003810191909155600201541561369057600082815261016a60205260409081902060018101546005820154600290920154925163a9059cbb60e01b81526001600160a01b0392831660048201526024810193909352169063a9059cbb906044016020604051808303816000875af115801561366a573d6000803e3d6000fd5b505050506040513d601f19601f8201168201806040525081019061368e91906155ad565b505b600082815261016a602052604080822054905190917fac4a907ec29adcc56774b757ecb1e1b4d597374fc9386107d05e2670259df7d391a25050565b60606136d78261440a565b6136e4608084901b61440a565b60405161060f60f31b6020820152602281019290925260428201526062016040516020818303038152906040529050919050565b6060610ae66001600160a01b03831660146145bc565b6060600061373b8361475f565b600101905060008167ffffffffffffffff81111561375b5761375b615137565b6040519080825280601f01601f191660200182016040528015613785576020820181803683370190505b5090508181016020015b600019016f181899199a1a9b1b9c1cb0b131b232b360811b600a86061a8153600a85049450846137be576137c3565b61378f565b509392505050565b600090815261016660205260409020546001600160a01b0316151590565b61012d546001600160a01b031633146116575760405162461bcd60e51b815260206004820181905260248201527f4f776e61626c653a2063616c6c6572206973206e6f7420746865206f776e65726044820152606401610c1a565b61012d80546001600160a01b038381166001600160a01b0319831681179093556040519116919082907f8be0079c531659141344cd1fd0a4f28419497f9722a3daafe3b4186f6b6457e090600090a35050565b60008060006138a6868661137c565b905060006138bc6138b683614837565b86614872565b61016c549091506001600160a01b038083169116146139055760405162461bcd60e51b815260206004820152600560248201526447505f4e4160d81b6044820152606401610c1a565b969095509350505050565b610d1c82826040518060200160405280600081525061488e565b60008281526101666020908152604091829020548251808401909352600383526219181b60e91b91830191909152600160a01b900460a01b6001600160a01b0319161561398a5760405162461bcd60e51b8152600401610c1a91906150bf565b5060408051808201909152600381526232303760e81b6020820152816139c35760405162461bcd60e51b8152600401610c1a91906150bf565b5060009182526101666020526040909120805460a09290921c600160a01b026001600160a01b03909216919091179055565b600054610100900460ff16613a1c5760405162461bcd60e51b8152600401610c1a90615ce3565b610d1c82826148c1565b600054610100900460ff16613a4d5760405162461bcd60e51b8152600401610c1a90615ce3565b61165761490f565b600054610100900460ff16613a7c5760405162461bcd60e51b8152600401610c1a90615ce3565b611657614936565b600054610100900460ff16613aab5760405162461bcd60e51b8152600401610c1a90615ce3565b611657614969565b61016054604051636d12dce160e01b815260206004820152600f60248201526e534f554c5f474d5f5245534552564560881b604482015260009182916001600160a01b0390911690636d12dce190606401602060405180830381865afa158015613b21573d6000803e3d6000fd5b505050506040513d601f19601f82011682018060405250810190613b4591906158b2565b9050806131c057506103f0919050565b816001600160a01b0316836001600160a01b03161415613bb75760405162461bcd60e51b815260206004820152601960248201527f4552433732313a20617070726f766520746f2063616c6c6572000000000000006044820152606401610c1a565b6001600160a01b038381166000818152606a6020908152604080832094871680845294825291829020805460ff191686151590811790915591519182527f17307eab39ab6107e8899845ad3d59bd9653f200f220920489ca2b5937696c31910160405180910390a3505050565b613c2f84848461306f565b613c3b84848484614999565b6128f95760405162461bcd60e51b8152600401610c1a90615d2e565b6060815160001415613c7757505060408051602081019091526000815290565b6000604051806060016040528060408152602001615e4d6040913990506000600384516002613ca691906158cb565b613cb091906155ff565b613cbb9060046155e0565b90506000613cca8260206158cb565b67ffffffffffffffff811115613ce257613ce2615137565b6040519080825280601f01601f191660200182016040528015613d0c576020820181803683370190505b509050818152600183018586518101602084015b81831015613d78576003830192508251603f8160121c168501518253600182019150603f81600c1c168501518253600182019150603f8160061c168501518253600182019150603f8116850151825350600101613d20565b600389510660018114613d925760028114613da357613daf565b613d3d60f01b600119830152613daf565b603d60f81b6000198301525b509398975050505050505050565b613dc6816137cb565b613dcf57600080fd5b600081815261016a6020526040902060050154600160a01b900460ff1680613e045750600081815261016a6020526040902054155b613e765760405162461bcd60e51b815260206004820152603860248201527f41756374696f6e2068617320616c7265616479206265656e20736574746c656460448201527f206f72203173742041756374696f6e206f6620746f6b656e00000000000000006064820152608401610c1a565b426000613e81613ab3565b613e8b90836158cb565b610160546040805161014081018252600080825260208201819052918101829052606081018290526080810182905260a0810182905260c0810182905260e0810182905261010081018290526101208101919091529192506001600160a01b03169084815260405163bf40fac160e01b815260206004820152601860248201527f534f554c5f41554354494f4e5f45524332305f544f4b454e000000000000000060448201526001600160a01b0383169063bf40fac190606401602060405180830381865afa158015613f62573d6000803e3d6000fd5b505050506040513d601f19601f82011682018060405250810190613f8691906156dc565b6001600160a01b0390811660208301526000604080840182905260608401879052608084018690523360a085015260c084019190915251636d12dce160e01b815290831690636d12dce19061400f9060040160208082526018908201527f534f554c5f41554354494f4e5f54494d455f4255464645520000000000000000604082015260600190565b602060405180830381865afa15801561402c573d6000803e3d6000fd5b505050506040513d601f19601f8201168201806040525081019061405091906158b2565b60e0820152604051636d12dce160e01b815260206004820152601a60248201527f534f554c5f41554354494f4e5f524553455256455f505249434500000000000060448201526001600160a01b03831690636d12dce190606401602060405180830381865afa1580156140c7573d6000803e3d6000fd5b505050506040513d601f19601f820116820180604052508101906140eb91906158b2565b610100820152604051636d12dce160e01b815260206004820152602560248201527f534f554c5f41554354494f4e5f4d494e5f4249445f494e4352454153455f50456044820152641490d1539560da1b60648201526001600160a01b03831690636d12dce190608401602060405180830381865afa158015614171573d6000803e3d6000fd5b505050506040513d601f19601f8201168201806040525081019061419591906158b2565b6101208201908152600086815261016a602090815260409182902084518155908401516001820180546001600160a01b0319166001600160a01b03928316179055918401516002820155606084015160038201556080840151600482015560a084015160058201805460c0870151929094166001600160a81b031990941693909317600160a01b911515919091021790915560e083015160068201556101008301516007820155905160089091015561425761425086611575565b308761306f565b604080518581526020810185905286917fd6eddd1118d71820909c1197aa966dbc15ed6f508554252169cc3d5ccac756ca910160405180910390a25050505050565b826001600160a01b03166142ac82612f40565b6001600160a01b0316146142d25760405162461bcd60e51b8152600401610c1a90615d80565b6001600160a01b0382166143345760405162461bcd60e51b8152602060048201526024808201527f4552433732313a207472616e7366657220746f20746865207a65726f206164646044820152637265737360e01b6064820152608401610c1a565b6143418383836001614a94565b826001600160a01b031661435482612f40565b6001600160a01b03161461437a5760405162461bcd60e51b8152600401610c1a90615d80565b600081815260696020908152604080832080546001600160a01b03199081169091556001600160a01b0387811680865260688552838620805460001901905590871680865283862080546001019055868652606790945282852080549092168417909155905184937fddf252ad1be2c89b69c2b068fc378daa952ba7f163c4a11628f55a4df523b3ef91a4505050565b7aff00000000000000ff00000000000000ff00000000000000ff00006bffffffff0000000000000000604083901c90811663ffffffff60c01b84161760201c63ffffffff60601b919091166001600160e01b031984161717601081901c9182167eff00000000000000ff00000000000000ff00000000000000ff000000000000821617600890811c7bff00000000000000ff00000000000000ff00000000000000ff000000939093167fff00000000000000ff00000000000000ff00000000000000ff000000000000009290921691909117919091179081901c7e0f000f000f000f000f000f000f000f000f000f000f000f000f000f000f000f167f0f000f000f000f000f000f000f000f000f000f000f000f000f000f000f000f00600492831c161790614558827f06060606060606060606060606060606060606060606060606060606060606066158cb565b901c7f0f0f0f0f0f0f0f0f0f0f0f0f0f0f0f0f0f0f0f0f0f0f0f0f0f0f0f0f0f0f0f0f16600761458891906155e0565b6145b2827f30303030303030303030303030303030303030303030303030303030303030306158cb565b610ae691906158cb565b606060006145cb8360026155e0565b6145d69060026158cb565b67ffffffffffffffff8111156145ee576145ee615137565b6040519080825280601f01601f191660200182016040528015614618576020820181803683370190505b509050600360fc1b816000815181106146335761463361585d565b60200101906001600160f81b031916908160001a905350600f60fb1b816001815181106146625761466261585d565b60200101906001600160f81b031916908160001a90535060006146868460026155e0565b6146919060016158cb565b90505b6001811115614709576f181899199a1a9b1b9c1cb0b131b232b360811b85600f16601081106146c5576146c561585d565b1a60f81b8282815181106146db576146db61585d565b60200101906001600160f81b031916908160001a90535060049490941c9361470281615dc5565b9050614694565b5083156147585760405162461bcd60e51b815260206004820181905260248201527f537472696e67733a20686578206c656e67746820696e73756666696369656e746044820152606401610c1a565b9392505050565b60008072184f03e93ff9f4daa797ed6e38ed64bf6a1f0160401b831061479e5772184f03e93ff9f4daa797ed6e38ed64bf6a1f0160401b830492506040015b6d04ee2d6d415b85acef810000000083106147ca576d04ee2d6d415b85acef8100000000830492506020015b662386f26fc1000083106147e857662386f26fc10000830492506010015b6305f5e1008310614800576305f5e100830492506008015b612710831061481457612710830492506004015b60648310614826576064830492506002015b600a8310610ae65760010192915050565b6040517f19457468657265756d205369676e6564204d6573736167653a0a3332000000006020820152603c8101829052600090605c0161148b565b60008060006148818585614b07565b915091506137c381614b4d565b6148988383614c9b565b6148a56000848484614999565b610cbb5760405162461bcd60e51b8152600401610c1a90615d2e565b600054610100900460ff166148e85760405162461bcd60e51b8152600401610c1a90615ce3565b81516148fb906065906020850190614f9b565b508051610cbb906066906020840190614f9b565b600054610100900460ff166130685760405162461bcd60e51b8152600401610c1a90615ce3565b600054610100900460ff1661495d5760405162461bcd60e51b8152600401610c1a90615ce3565b6097805460ff19169055565b600054610100900460ff166149905760405162461bcd60e51b8152600401610c1a90615ce3565b61165733613844565b60006001600160a01b0384163b15614a8c57604051630a85bd0160e11b81526001600160a01b0385169063150b7a02906149dd903390899088908890600401615ddc565b6020604051808303816000875af1925050508015614a18575060408051601f3d908101601f19168201909252614a1591810190615e19565b60015b614a72573d808015614a46576040519150601f19603f3d011682016040523d82523d6000602084013e614a4b565b606091505b508051614a6a5760405162461bcd60e51b8152600401610c1a90615d2e565b805181602001fd5b6001600160e01b031916630a85bd0160e11b14905061156d565b50600161156d565b614aa084848484614cd4565b60975460ff16156128f95760405162461bcd60e51b815260206004820152602b60248201527f4552433732315061757361626c653a20746f6b656e207472616e73666572207760448201526a1a1a5b19481c185d5cd95960aa1b6064820152608401610c1a565b600080825160411415614b3e5760208301516040840151606085015160001a614b3287828585614d5c565b94509450505050614b46565b506000905060025b9250929050565b6000816004811115614b6157614b61615e36565b1415614b6a5750565b6001816004811115614b7e57614b7e615e36565b1415614bcc5760405162461bcd60e51b815260206004820152601860248201527f45434453413a20696e76616c6964207369676e617475726500000000000000006044820152606401610c1a565b6002816004811115614be057614be0615e36565b1415614c2e5760405162461bcd60e51b815260206004820152601f60248201527f45434453413a20696e76616c6964207369676e6174757265206c656e677468006044820152606401610c1a565b6003816004811115614c4257614c42615e36565b1415610db15760405162461bcd60e51b815260206004820152602260248201527f45434453413a20696e76616c6964207369676e6174757265202773272076616c604482015261756560f01b6064820152608401610c1a565b614ca58282614e20565b60009081526101666020526040902080546001600160a01b0319166001600160a01b0392909216919091179055565b60018111156128f9576001600160a01b03841615614d1a576001600160a01b03841660009081526068602052604081208054839290614d149084906159d1565b90915550505b6001600160a01b038316156128f9576001600160a01b03831660009081526068602052604081208054839290614d519084906158cb565b909155505050505050565b6000807f7fffffffffffffffffffffffffffffff5d576e7357a4501ddfe92f46681b20a0831115614d935750600090506003614e17565b6040805160008082526020820180845289905260ff881692820192909252606081018690526080810185905260019060a0016020604051602081039080840390855afa158015614de7573d6000803e3d6000fd5b5050604051601f1901519150506001600160a01b038116614e1057600060019250925050614e17565b9150600090505b94509492505050565b6001600160a01b038216614e765760405162461bcd60e51b815260206004820181905260248201527f4552433732313a206d696e7420746f20746865207a65726f20616464726573736044820152606401610c1a565b614e7f816137cb565b15614ecc5760405162461bcd60e51b815260206004820152601c60248201527f4552433732313a20746f6b656e20616c7265616479206d696e746564000000006044820152606401610c1a565b614eda600083836001614a94565b614ee3816137cb565b15614f305760405162461bcd60e51b815260206004820152601c60248201527f4552433732313a20746f6b656e20616c7265616479206d696e746564000000006044820152606401610c1a565b6001600160a01b038216600081815260686020908152604080832080546001019055848352606790915280822080546001600160a01b0319168417905551839291907fddf252ad1be2c89b69c2b068fc378daa952ba7f163c4a11628f55a4df523b3ef908290a45050565b828054614fa790615572565b90600052602060002090601f016020900481019282614fc9576000855561500f565b82601f10614fe257805160ff191683800117855561500f565b8280016001018555821561500f579182015b8281111561500f578251825591602001919060010190614ff4565b5061501b92915061501f565b5090565b5b8082111561501b5760008155600101615020565b6001600160e01b031981168114610db157600080fd5b60006020828403121561505c57600080fd5b813561475881615034565b60005b8381101561508257818101518382015260200161506a565b838111156128f95750506000910152565b600081518084526150ab816020860160208601615067565b601f01601f19169290920160200192915050565b6020815260006147586020830184615093565b6000602082840312156150e457600080fd5b5035919050565b6001600160a01b0381168114610db157600080fd5b80356131c0816150eb565b6000806040838503121561511e57600080fd5b8235615129816150eb565b946020939093013593505050565b634e487b7160e01b600052604160045260246000fd5b604051601f8201601f1916810167ffffffffffffffff8111828210171561517657615176615137565b604052919050565b600067ffffffffffffffff82111561519857615198615137565b50601f01601f191660200190565b60006151b96151b48461517e565b61514d565b90508281528383830111156151cd57600080fd5b828260208301376000602084830101529392505050565b600082601f8301126151f557600080fd5b614758838335602085016151a6565b60006020828403121561521657600080fd5b813567ffffffffffffffff81111561522d57600080fd5b61156d848285016151e4565b60006020828403121561524b57600080fd5b8135614758816150eb565b60008060006060848603121561526b57600080fd5b8335615276816150eb565b92506020840135615286816150eb565b929592945050506040919091013590565b600080604083850312156152aa57600080fd5b50508035926020909101359150565b600080604083850312156152cc57600080fd5b8235915060208301356152de816150eb565b809150509250929050565b600080600080606085870312156152ff57600080fd5b843561530a816150eb565b935060208501359250604085013567ffffffffffffffff8082111561532e57600080fd5b818701915087601f83011261534257600080fd5b81358181111561535157600080fd5b88602082850101111561536357600080fd5b95989497505060200194505050565b6020808252825182820181905260009190848201906040850190845b818110156153aa5783518352928401929184019160010161538e565b50909695505050505050565b600080600080600080600080610100898b0312156153d357600080fd5b883567ffffffffffffffff808211156153eb57600080fd5b6153f78c838d016151e4565b995060208b013591508082111561540d57600080fd5b5061541a8b828c016151e4565b975050604089013561542b816150eb565b9550606089013561543b816150eb565b9450608089013561544b816150eb565b935060a089013561545b816150eb565b925060c089013561546b816150eb565b915061547960e08a01615100565b90509295985092959890939650565b8015158114610db157600080fd5b600080604083850312156154a957600080fd5b82356154b4816150eb565b915060208301356152de81615488565b600080600080608085870312156154da57600080fd5b84356154e5816150eb565b935060208501356154f5816150eb565b925060408501359150606085013567ffffffffffffffff81111561551857600080fd5b8501601f8101871361552957600080fd5b615538878235602084016151a6565b91505092959194509250565b6000806040838503121561555757600080fd5b8235615562816150eb565b915060208301356152de816150eb565b600181811c9082168061558657607f821691505b602082108114156155a757634e487b7160e01b600052602260045260246000fd5b50919050565b6000602082840312156155bf57600080fd5b815161475881615488565b634e487b7160e01b600052601160045260246000fd5b60008160001904831182151516156155fa576155fa6155ca565b500290565b60008261561c57634e487b7160e01b600052601260045260246000fd5b500490565b60008351615633818460208801615067565b696c657420736565643d2760b01b908301908152835161565a81600a840160208801615067565b61273b60f01b600a9290910191820152600c01949350505050565b60008351615687818460208801615067565b7f6c657420474d5f434f4e54524143545f414444524553533d270000000000000090830190815283516156c1816019840160208801615067565b61273b60f01b60199290910191820152601b01949350505050565b6000602082840312156156ee57600080fd5b8151614758816150eb565b6000835161570b818460208801615067565b80830190507f6c657420535741505f504f4f4c5f474d5f4554485f434f4e54524143545f414481526644524553533d2760c81b60208201528351615756816027840160208801615067565b61273b60f01b60279290910191820152602901949350505050565b60008351615783818460208801615067565b7f6c657420736f6c617269734e6674436f6e7472616374416464726573733d270090830190815283516157bd81601f840160208801615067565b61273b60f01b601f9290910191820152602101949350505050565b600083516157ea818460208801615067565b6d6c657420544f4b454e5f49443d2760901b908301908152835161581581600e840160208801615067565b61273b60f01b600e9290910191820152601001949350505050565b60008251615842818460208701615067565b681e17b9b1b934b83a1f60b91b920191825250600901919050565b634e487b7160e01b600052603260045260246000fd5b6000600019821415615887576158876155ca565b5060010190565b6001600160a01b038316815260406020820181905260009061156d90830184615093565b6000602082840312156158c457600080fd5b5051919050565b600082198211156158de576158de6155ca565b500190565b6001600160a01b038416815260606020820181905260009061590790830185615093565b9050826040830152949350505050565b60006159256151b48461517e565b905082815283838301111561593957600080fd5b614758836020830184615067565b6000806040838503121561595a57600080fd5b825167ffffffffffffffff81111561597157600080fd5b8301601f8101851361598257600080fd5b61599185825160208401615917565b925050602083015190509250929050565b600083516159b4818460208801615067565b8351908301906159c8818360208801615067565b01949350505050565b6000828210156159e3576159e36155ca565b500390565b6000602082840312156159fa57600080fd5b815167ffffffffffffffff811115615a1157600080fd5b8201601f81018413615a2257600080fd5b61156d84825160208401615917565b60008251615a43818460208701615067565b9190910192915050565b7519185d184e9d195e1d0bda1d1b5b0ed8985cd94d8d0b60521b815260008251615a7e816016850160208701615067565b9190910160160192915050565b7216101130b734b6b0ba34b7b72fbab936111d1160691b81528151600090615aba816013850160208701615067565b601160f91b6013939091019283015250601401919050565b60008551615ae4818460208a01615067565b8083019050602f60f81b8082528651615b04816001850160208b01615067565b60019201918201528451615b1f816002840160208901615067565b653f736565643d60d01b600292909101918201528351615b46816008840160208801615067565b016008019695505050505050565b7f7b226e616d65223a22222c226465736372697074696f6e223a2022220000000081526b16101134b6b0b3b2911d101160a11b601c8201528351600090615ba2816028850160208901615067565b6e1331b0b83a3ab9329e9b181818181160891b6028918401918201528451615bd1816037840160208901615067565b7016101130ba3a3934b13aba32b9911d101160791b603792909101918201528351615c03816048840160208801615067565b6a1331b0b83a3ab9329e981160a91b60489290910191820152607d60f81b605382015260540195945050505050565b600083516020615c458285838901615067565b845491840191600090600181811c9080831680615c6357607f831692505b858310811415615c8157634e487b7160e01b85526022600452602485fd5b808015615c955760018114615ca657615cd3565b60ff19851688528388019550615cd3565b60008b81526020902060005b85811015615ccb5781548a820152908401908801615cb2565b505083880195505b50939a9950505050505050505050565b6020808252602b908201527f496e697469616c697a61626c653a20636f6e7472616374206973206e6f74206960408201526a6e697469616c697a696e6760a81b606082015260800190565b60208082526032908201527f4552433732313a207472616e7366657220746f206e6f6e20455243373231526560408201527131b2b4bb32b91034b6b83632b6b2b73a32b960711b606082015260800190565b60208082526025908201527f4552433732313a207472616e736665722066726f6d20696e636f72726563742060408201526437bbb732b960d91b606082015260800190565b600081615dd457615dd46155ca565b506000190190565b6001600160a01b0385811682528416602082015260408101839052608060608201819052600090615e0f90830184615093565b9695505050505050565b600060208284031215615e2b57600080fd5b815161475881615034565b634e487b7160e01b600052602160045260246000fdfe4142434445464748494a4b4c4d4e4f505152535455565758595a6162636465666768696a6b6c6d6e6f707172737475767778797a303132333435363738392b2f3c7363726970742073616e64626f783d27616c6c6f772d736372697074732720747970653d27746578742f6a617661736372697074273ea264697066735822122061e606c727d48b4a807b70f28a9be78242f83416bcb63ab1ae26fa92be460cd764736f6c634300080c0033",
  "linkReferences": {},
  "deployedLinkReferences": {}
}