{
  "_format": "hh-sol-artifact-1",
  "contractName": "SOUL",
  "sourceName": "contracts/nfts/SOUL.sol",
  "abi": [
    {
      "anonymous": false,
      "inputs": [
        {
          "indexed": true,
          "internalType": "address",
          "name": "owner",
          "type": "address"
        },
        {
          "indexed": true,
          "internalType": "address",
          "name": "approved",
          "type": "address"
        },
        {
          "indexed": true,
          "internalType": "uint256",
          "name": "tokenId",
          "type": "uint256"
        }
      ],
      "name": "Approval",
      "type": "event"
    },
    {
      "anonymous": false,
      "inputs": [
        {
          "indexed": true,
          "internalType": "address",
          "name": "owner",
          "type": "address"
        },
        {
          "indexed": true,
          "internalType": "address",
          "name": "operator",
          "type": "address"
        },
        {
          "indexed": false,
          "internalType": "bool",
          "name": "approved",
          "type": "bool"
        }
      ],
      "name": "ApprovalForAll",
      "type": "event"
    },
    {
      "anonymous": false,
      "inputs": [
        {
          "indexed": true,
          "internalType": "uint256",
          "name": "tokenId",
          "type": "uint256"
        },
        {
          "indexed": false,
          "internalType": "address",
          "name": "sender",
          "type": "address"
        },
        {
          "indexed": false,
          "internalType": "uint256",
          "name": "value",
          "type": "uint256"
        },
        {
          "indexed": false,
          "internalType": "bool",
          "name": "extended",
          "type": "bool"
        },
        {
          "components": [
            {
              "internalType": "uint256",
              "name": "tokenId",
              "type": "uint256"
            },
            {
              "internalType": "address",
              "name": "erc20Token",
              "type": "address"
            },
            {
              "internalType": "uint256",
              "name": "amount",
              "type": "uint256"
            },
            {
              "internalType": "uint256",
              "name": "startTime",
              "type": "uint256"
            },
            {
              "internalType": "uint256",
              "name": "endTime",
              "type": "uint256"
            },
            {
              "internalType": "address payable",
              "name": "bidder",
              "type": "address"
            },
            {
              "internalType": "bool",
              "name": "settled",
              "type": "bool"
            },
            {
              "internalType": "uint256",
              "name": "timeBuffer",
              "type": "uint256"
            },
            {
              "internalType": "uint256",
              "name": "reservePrice",
              "type": "uint256"
            },
            {
              "internalType": "uint256",
              "name": "minBidIncrementPercentage",
              "type": "uint256"
            },
            {
              "internalType": "bytes32",
              "name": "auctionId",
              "type": "bytes32"
            }
          ],
          "indexed": false,
          "internalType": "struct AuctionHouse.Auction",
          "name": "auction",
          "type": "tuple"
        }
      ],
      "name": "AuctionBid",
      "type": "event"
    },
    {
      "anonymous": false,
      "inputs": [
        {
          "indexed": true,
          "internalType": "uint256",
          "name": "tokenId",
          "type": "uint256"
        },
        {
          "indexed": false,
          "internalType": "address",
          "name": "sender",
          "type": "address"
        },
        {
          "indexed": false,
          "internalType": "uint256",
          "name": "value",
          "type": "uint256"
        },
        {
          "indexed": false,
          "internalType": "bytes32",
          "name": "auctionId",
          "type": "bytes32"
        }
      ],
      "name": "AuctionClaimBid",
      "type": "event"
    },
    {
      "anonymous": false,
      "inputs": [
        {
          "indexed": true,
          "internalType": "uint256",
          "name": "tokenId",
          "type": "uint256"
        }
      ],
      "name": "AuctionClosed",
      "type": "event"
    },
    {
      "anonymous": false,
      "inputs": [
        {
          "indexed": true,
          "internalType": "uint256",
          "name": "tokenId",
          "type": "uint256"
        },
        {
          "indexed": false,
          "internalType": "uint256",
          "name": "startTime",
          "type": "uint256"
        },
        {
          "indexed": false,
          "internalType": "uint256",
          "name": "endTime",
          "type": "uint256"
        },
        {
          "indexed": false,
          "internalType": "address",
          "name": "sender",
          "type": "address"
        },
        {
          "indexed": false,
          "internalType": "bytes32",
          "name": "auctionId",
          "type": "bytes32"
        },
        {
          "components": [
            {
              "internalType": "uint256",
              "name": "tokenId",
              "type": "uint256"
            },
            {
              "internalType": "address",
              "name": "erc20Token",
              "type": "address"
            },
            {
              "internalType": "uint256",
              "name": "amount",
              "type": "uint256"
            },
            {
              "internalType": "uint256",
              "name": "startTime",
              "type": "uint256"
            },
            {
              "internalType": "uint256",
              "name": "endTime",
              "type": "uint256"
            },
            {
              "internalType": "address payable",
              "name": "bidder",
              "type": "address"
            },
            {
              "internalType": "bool",
              "name": "settled",
              "type": "bool"
            },
            {
              "internalType": "uint256",
              "name": "timeBuffer",
              "type": "uint256"
            },
            {
              "internalType": "uint256",
              "name": "reservePrice",
              "type": "uint256"
            },
            {
              "internalType": "uint256",
              "name": "minBidIncrementPercentage",
              "type": "uint256"
            },
            {
              "internalType": "bytes32",
              "name": "auctionId",
              "type": "bytes32"
            }
          ],
          "indexed": false,
          "internalType": "struct AuctionHouse.Auction",
          "name": "auction",
          "type": "tuple"
        }
      ],
      "name": "AuctionCreated",
      "type": "event"
    },
    {
      "anonymous": false,
      "inputs": [
        {
          "indexed": true,
          "internalType": "uint256",
          "name": "tokenId",
          "type": "uint256"
        },
        {
          "indexed": false,
          "internalType": "uint256",
          "name": "endTime",
          "type": "uint256"
        },
        {
          "components": [
            {
              "internalType": "uint256",
              "name": "tokenId",
              "type": "uint256"
            },
            {
              "internalType": "address",
              "name": "erc20Token",
              "type": "address"
            },
            {
              "internalType": "uint256",
              "name": "amount",
              "type": "uint256"
            },
            {
              "internalType": "uint256",
              "name": "startTime",
              "type": "uint256"
            },
            {
              "internalType": "uint256",
              "name": "endTime",
              "type": "uint256"
            },
            {
              "internalType": "address payable",
              "name": "bidder",
              "type": "address"
            },
            {
              "internalType": "bool",
              "name": "settled",
              "type": "bool"
            },
            {
              "internalType": "uint256",
              "name": "timeBuffer",
              "type": "uint256"
            },
            {
              "internalType": "uint256",
              "name": "reservePrice",
              "type": "uint256"
            },
            {
              "internalType": "uint256",
              "name": "minBidIncrementPercentage",
              "type": "uint256"
            },
            {
              "internalType": "bytes32",
              "name": "auctionId",
              "type": "bytes32"
            }
          ],
          "indexed": false,
          "internalType": "struct AuctionHouse.Auction",
          "name": "auction",
          "type": "tuple"
        }
      ],
      "name": "AuctionExtended",
      "type": "event"
    },
    {
      "anonymous": false,
      "inputs": [
        {
          "indexed": false,
          "internalType": "uint256",
          "name": "minBidIncrementPercentage",
          "type": "uint256"
        }
      ],
      "name": "AuctionMinBidIncrementPercentageUpdated",
      "type": "event"
    },
    {
      "anonymous": false,
      "inputs": [
        {
          "indexed": false,
          "internalType": "uint256",
          "name": "reservePrice",
          "type": "uint256"
        }
      ],
      "name": "AuctionReservePriceUpdated",
      "type": "event"
    },
    {
      "anonymous": false,
      "inputs": [
        {
          "indexed": true,
          "internalType": "uint256",
          "name": "tokenId",
          "type": "uint256"
        },
        {
          "indexed": false,
          "internalType": "address",
          "name": "winner",
          "type": "address"
        },
        {
          "indexed": false,
          "internalType": "uint256",
          "name": "amount",
          "type": "uint256"
        },
        {
          "components": [
            {
              "internalType": "uint256",
              "name": "tokenId",
              "type": "uint256"
            },
            {
              "internalType": "address",
              "name": "erc20Token",
              "type": "address"
            },
            {
              "internalType": "uint256",
              "name": "amount",
              "type": "uint256"
            },
            {
              "internalType": "uint256",
              "name": "startTime",
              "type": "uint256"
            },
            {
              "internalType": "uint256",
              "name": "endTime",
              "type": "uint256"
            },
            {
              "internalType": "address payable",
              "name": "bidder",
              "type": "address"
            },
            {
              "internalType": "bool",
              "name": "settled",
              "type": "bool"
            },
            {
              "internalType": "uint256",
              "name": "timeBuffer",
              "type": "uint256"
            },
            {
              "internalType": "uint256",
              "name": "reservePrice",
              "type": "uint256"
            },
            {
              "internalType": "uint256",
              "name": "minBidIncrementPercentage",
              "type": "uint256"
            },
            {
              "internalType": "bytes32",
              "name": "auctionId",
              "type": "bytes32"
            }
          ],
          "indexed": false,
          "internalType": "struct AuctionHouse.Auction",
          "name": "auction",
          "type": "tuple"
        }
      ],
      "name": "AuctionSettled",
      "type": "event"
    },
    {
      "anonymous": false,
      "inputs": [
        {
          "indexed": false,
          "internalType": "uint256",
          "name": "timeBuffer",
          "type": "uint256"
        }
      ],
      "name": "AuctionTimeBufferUpdated",
      "type": "event"
    },
    {
      "anonymous": false,
      "inputs": [
        {
          "indexed": true,
          "internalType": "address",
          "name": "reserver",
          "type": "address"
        },
        {
          "indexed": true,
          "internalType": "uint256",
          "name": "tokenId",
          "type": "uint256"
        },
        {
          "indexed": true,
          "internalType": "address",
          "name": "owner",
          "type": "address"
        },
        {
          "indexed": false,
          "internalType": "uint256",
          "name": "blockNumber",
          "type": "uint256"
        }
      ],
      "name": "Claim",
      "type": "event"
    },
    {
      "anonymous": false,
      "inputs": [
        {
          "indexed": false,
          "internalType": "uint8",
          "name": "version",
          "type": "uint8"
        }
      ],
      "name": "Initialized",
      "type": "event"
    },
    {
      "anonymous": false,
      "inputs": [
        {
          "indexed": true,
          "internalType": "address",
          "name": "previousOwner",
          "type": "address"
        },
        {
          "indexed": true,
          "internalType": "address",
          "name": "newOwner",
          "type": "address"
        }
      ],
      "name": "OwnershipTransferred",
      "type": "event"
    },
    {
      "anonymous": false,
      "inputs": [
        {
          "indexed": false,
          "internalType": "address",
          "name": "account",
          "type": "address"
        }
      ],
      "name": "Paused",
      "type": "event"
    },
    {
      "anonymous": false,
      "inputs": [
        {
          "indexed": true,
          "internalType": "address",
          "name": "reserver",
          "type": "address"
        },
        {
          "indexed": true,
          "internalType": "uint256",
          "name": "tokenId",
          "type": "uint256"
        },
        {
          "indexed": true,
          "internalType": "address",
          "name": "owner",
          "type": "address"
        },
        {
          "indexed": false,
          "internalType": "uint256",
          "name": "blockNumber",
          "type": "uint256"
        }
      ],
      "name": "Reserve",
      "type": "event"
    },
    {
      "anonymous": false,
      "inputs": [
        {
          "indexed": true,
          "internalType": "address",
          "name": "from",
          "type": "address"
        },
        {
          "indexed": true,
          "internalType": "address",
          "name": "to",
          "type": "address"
        },
        {
          "indexed": true,
          "internalType": "uint256",
          "name": "tokenId",
          "type": "uint256"
        }
      ],
      "name": "Transfer",
      "type": "event"
    },
    {
      "anonymous": false,
      "inputs": [
        {
          "indexed": false,
          "internalType": "address",
          "name": "account",
          "type": "address"
        }
      ],
      "name": "Unpaused",
      "type": "event"
    },
    {
      "inputs": [],
      "name": "_admin",
      "outputs": [
        {
          "internalType": "address",
          "name": "",
          "type": "address"
        }
      ],
      "stateMutability": "view",
      "type": "function"
    },
    {
      "inputs": [
        {
          "internalType": "uint256",
          "name": "",
          "type": "uint256"
        }
      ],
      "name": "_auctions",
      "outputs": [
        {
          "internalType": "uint256",
          "name": "tokenId",
          "type": "uint256"
        },
        {
          "internalType": "address",
          "name": "erc20Token",
          "type": "address"
        },
        {
          "internalType": "uint256",
          "name": "amount",
          "type": "uint256"
        },
        {
          "internalType": "uint256",
          "name": "startTime",
          "type": "uint256"
        },
        {
          "internalType": "uint256",
          "name": "endTime",
          "type": "uint256"
        },
        {
          "internalType": "address payable",
          "name": "bidder",
          "type": "address"
        },
        {
          "internalType": "bool",
          "name": "settled",
          "type": "bool"
        },
        {
          "internalType": "uint256",
          "name": "timeBuffer",
          "type": "uint256"
        },
        {
          "internalType": "uint256",
          "name": "reservePrice",
          "type": "uint256"
        },
        {
          "internalType": "uint256",
          "name": "minBidIncrementPercentage",
          "type": "uint256"
        },
        {
          "internalType": "bytes32",
          "name": "auctionId",
          "type": "bytes32"
        }
      ],
      "stateMutability": "view",
      "type": "function"
    },
    {
      "inputs": [
        {
          "internalType": "bytes32",
          "name": "",
          "type": "bytes32"
        }
      ],
      "name": "_auctionsList",
      "outputs": [
        {
          "internalType": "uint256",
          "name": "tokenId",
          "type": "uint256"
        },
        {
          "internalType": "address",
          "name": "erc20Token",
          "type": "address"
        },
        {
          "internalType": "uint256",
          "name": "amount",
          "type": "uint256"
        },
        {
          "internalType": "uint256",
          "name": "startTime",
          "type": "uint256"
        },
        {
          "internalType": "uint256",
          "name": "endTime",
          "type": "uint256"
        },
        {
          "internalType": "address payable",
          "name": "bidder",
          "type": "address"
        },
        {
          "internalType": "bool",
          "name": "settled",
          "type": "bool"
        },
        {
          "internalType": "uint256",
          "name": "timeBuffer",
          "type": "uint256"
        },
        {
          "internalType": "uint256",
          "name": "reservePrice",
          "type": "uint256"
        },
        {
          "internalType": "uint256",
          "name": "minBidIncrementPercentage",
          "type": "uint256"
        },
        {
          "internalType": "bytes32",
          "name": "auctionId",
          "type": "bytes32"
        }
      ],
      "stateMutability": "view",
      "type": "function"
    },
    {
      "inputs": [],
      "name": "_bfs",
      "outputs": [
        {
          "internalType": "address",
          "name": "",
          "type": "address"
        }
      ],
      "stateMutability": "view",
      "type": "function"
    },
    {
      "inputs": [
        {
          "internalType": "uint256",
          "name": "",
          "type": "uint256"
        },
        {
          "internalType": "bytes32",
          "name": "",
          "type": "bytes32"
        },
        {
          "internalType": "address",
          "name": "",
          "type": "address"
        }
      ],
      "name": "_bidderAuctions",
      "outputs": [
        {
          "internalType": "uint256",
          "name": "",
          "type": "uint256"
        }
      ],
      "stateMutability": "view",
      "type": "function"
    },
    {
      "inputs": [
        {
          "internalType": "uint256",
          "name": "",
          "type": "uint256"
        },
        {
          "internalType": "bytes32",
          "name": "",
          "type": "bytes32"
        },
        {
          "internalType": "uint256",
          "name": "",
          "type": "uint256"
        }
      ],
      "name": "_bidderAuctionsList",
      "outputs": [
        {
          "internalType": "address",
          "name": "",
          "type": "address"
        }
      ],
      "stateMutability": "view",
      "type": "function"
    },
    {
      "inputs": [
        {
          "internalType": "address",
          "name": "",
          "type": "address"
        },
        {
          "internalType": "address",
          "name": "",
          "type": "address"
        }
      ],
      "name": "_biddingBalance",
      "outputs": [
        {
          "internalType": "uint256",
          "name": "",
          "type": "uint256"
        }
      ],
      "stateMutability": "view",
      "type": "function"
    },
    {
      "inputs": [
        {
          "internalType": "address",
          "name": "",
          "type": "address"
        }
      ],
      "name": "_coreTeamTreasury",
      "outputs": [
        {
          "internalType": "uint256",
          "name": "",
          "type": "uint256"
        }
      ],
      "stateMutability": "view",
      "type": "function"
    },
    {
      "inputs": [],
      "name": "_gmToken",
      "outputs": [
        {
          "internalType": "address",
          "name": "",
          "type": "address"
        }
      ],
      "stateMutability": "view",
      "type": "function"
    },
    {
      "inputs": [],
      "name": "_maxSupply",
      "outputs": [
        {
          "internalType": "uint256",
          "name": "",
          "type": "uint256"
        }
      ],
      "stateMutability": "view",
      "type": "function"
    },
    {
      "inputs": [
        {
          "internalType": "uint256",
          "name": "",
          "type": "uint256"
        }
      ],
      "name": "_mintAt",
      "outputs": [
        {
          "internalType": "uint256",
          "name": "",
          "type": "uint256"
        }
      ],
      "stateMutability": "view",
      "type": "function"
    },
    {
      "inputs": [
        {
          "internalType": "address",
          "name": "",
          "type": "address"
        }
      ],
      "name": "_minted",
      "outputs": [
        {
          "internalType": "uint256",
          "name": "",
          "type": "uint256"
        }
      ],
      "stateMutability": "view",
      "type": "function"
    },
    {
      "inputs": [],
      "name": "_paramsAddress",
      "outputs": [
        {
          "internalType": "address",
          "name": "",
          "type": "address"
        }
      ],
      "stateMutability": "view",
      "type": "function"
    },
    {
      "inputs": [],
      "name": "_randomizerAddr",
      "outputs": [
        {
          "internalType": "address",
          "name": "",
          "type": "address"
        }
      ],
      "stateMutability": "view",
      "type": "function"
    },
    {
      "inputs": [],
      "name": "_script",
      "outputs": [
        {
          "internalType": "string",
          "name": "",
          "type": "string"
        }
      ],
      "stateMutability": "view",
      "type": "function"
    },
    {
      "inputs": [],
      "name": "_signerMint",
      "outputs": [
        {
          "internalType": "address",
          "name": "",
          "type": "address"
        }
      ],
      "stateMutability": "view",
      "type": "function"
    },
    {
      "inputs": [
        {
          "internalType": "address",
          "name": "to",
          "type": "address"
        },
        {
          "internalType": "uint256",
          "name": "tokenId",
          "type": "uint256"
        }
      ],
      "name": "approve",
      "outputs": [],
      "stateMutability": "nonpayable",
      "type": "function"
    },
    {
      "inputs": [
        {
          "internalType": "uint256",
          "name": "tokenId",
          "type": "uint256"
        }
      ],
      "name": "available",
      "outputs": [
        {
          "internalType": "bool",
          "name": "",
          "type": "bool"
        }
      ],
      "stateMutability": "view",
      "type": "function"
    },
    {
      "inputs": [
        {
          "internalType": "address",
          "name": "owner",
          "type": "address"
        }
      ],
      "name": "balanceOf",
      "outputs": [
        {
          "internalType": "uint256",
          "name": "",
          "type": "uint256"
        }
      ],
      "stateMutability": "view",
      "type": "function"
    },
    {
      "inputs": [
        {
          "internalType": "address",
          "name": "walletAddress",
          "type": "address"
        }
      ],
      "name": "biddable",
      "outputs": [
        {
          "internalType": "bool",
          "name": "",
          "type": "bool"
        }
      ],
      "stateMutability": "view",
      "type": "function"
    },
    {
      "inputs": [
        {
          "internalType": "address",
          "name": "newAdm",
          "type": "address"
        }
      ],
      "name": "changeAdmin",
      "outputs": [],
      "stateMutability": "nonpayable",
      "type": "function"
    },
    {
      "inputs": [
        {
          "internalType": "address",
          "name": "newBfs",
          "type": "address"
        }
      ],
      "name": "changeBfs",
      "outputs": [],
      "stateMutability": "nonpayable",
      "type": "function"
    },
    {
      "inputs": [
        {
          "internalType": "address",
          "name": "newBrc20",
          "type": "address"
        }
      ],
      "name": "changeBrc20Token",
      "outputs": [],
      "stateMutability": "nonpayable",
      "type": "function"
    },
    {
      "inputs": [
        {
          "internalType": "address",
          "name": "newAddr",
          "type": "address"
        }
      ],
      "name": "changeParamAddr",
      "outputs": [],
      "stateMutability": "nonpayable",
      "type": "function"
    },
    {
      "inputs": [
        {
          "internalType": "address",
          "name": "newAddr",
          "type": "address"
        }
      ],
      "name": "changeRandomizerAddr",
      "outputs": [],
      "stateMutability": "nonpayable",
      "type": "function"
    },
    {
      "inputs": [
        {
          "internalType": "string",
          "name": "newScript",
          "type": "string"
        }
      ],
      "name": "changeScript",
      "outputs": [],
      "stateMutability": "nonpayable",
      "type": "function"
    },
    {
      "inputs": [
        {
          "internalType": "address",
          "name": "newAdd",
          "type": "address"
        }
      ],
      "name": "changeSignerMint",
      "outputs": [],
      "stateMutability": "nonpayable",
      "type": "function"
    },
    {
      "inputs": [
        {
          "internalType": "uint256",
          "name": "tokenId",
          "type": "uint256"
        }
      ],
      "name": "createAuction",
      "outputs": [],
      "stateMutability": "nonpayable",
      "type": "function"
    },
    {
      "inputs": [
        {
          "internalType": "uint256",
          "name": "tokenId",
          "type": "uint256"
        },
        {
          "internalType": "uint256",
          "name": "amount",
          "type": "uint256"
        }
      ],
      "name": "createBid",
      "outputs": [],
      "stateMutability": "nonpayable",
      "type": "function"
    },
    {
      "inputs": [
        {
          "internalType": "uint256",
          "name": "amount",
          "type": "uint256"
        }
      ],
      "name": "deposit",
      "outputs": [],
      "stateMutability": "payable",
      "type": "function"
    },
    {
      "inputs": [
        {
          "internalType": "uint256",
          "name": "tokenId",
          "type": "uint256"
        }
      ],
      "name": "getApproved",
      "outputs": [
        {
          "internalType": "address",
          "name": "",
          "type": "address"
        }
      ],
      "stateMutability": "view",
      "type": "function"
    },
    {
      "inputs": [
        {
          "internalType": "address",
          "name": "user",
          "type": "address"
        },
        {
          "internalType": "uint256",
          "name": "totalGM",
          "type": "uint256"
        }
      ],
      "name": "getMessageHash",
      "outputs": [
        {
          "internalType": "bytes32",
          "name": "",
          "type": "bytes32"
        }
      ],
      "stateMutability": "view",
      "type": "function"
    },
    {
      "inputs": [
        {
          "internalType": "string",
          "name": "name",
          "type": "string"
        },
        {
          "internalType": "string",
          "name": "symbol",
          "type": "string"
        },
        {
          "internalType": "address",
          "name": "admin",
          "type": "address"
        },
        {
          "internalType": "address",
          "name": "paramsAddress",
          "type": "address"
        },
        {
          "internalType": "address",
          "name": "randomizerAddr",
          "type": "address"
        },
        {
          "internalType": "address",
          "name": "gmToken",
          "type": "address"
        },
        {
          "internalType": "address",
          "name": "bfs",
          "type": "address"
        },
        {
          "internalType": "address",
          "name": "signerMint",
          "type": "address"
        }
      ],
      "name": "initialize",
      "outputs": [],
      "stateMutability": "nonpayable",
      "type": "function"
    },
    {
      "inputs": [
        {
          "internalType": "address",
          "name": "owner",
          "type": "address"
        },
        {
          "internalType": "address",
          "name": "operator",
          "type": "address"
        }
      ],
      "name": "isApprovedForAll",
      "outputs": [
        {
          "internalType": "bool",
          "name": "",
          "type": "bool"
        }
      ],
      "stateMutability": "view",
      "type": "function"
    },
    {
      "inputs": [
        {
          "internalType": "address",
          "name": "to",
          "type": "address"
        },
        {
          "internalType": "uint256",
          "name": "totalGM",
          "type": "uint256"
        },
        {
          "internalType": "bytes",
          "name": "signature",
          "type": "bytes"
        }
      ],
      "name": "mint",
      "outputs": [
        {
          "internalType": "uint256",
          "name": "tokenId",
          "type": "uint256"
        }
      ],
      "stateMutability": "nonpayable",
      "type": "function"
    },
    {
      "inputs": [],
      "name": "name",
      "outputs": [
        {
          "internalType": "string",
          "name": "",
          "type": "string"
        }
      ],
      "stateMutability": "view",
      "type": "function"
    },
    {
      "inputs": [],
      "name": "owner",
      "outputs": [
        {
          "internalType": "address",
          "name": "",
          "type": "address"
        }
      ],
      "stateMutability": "view",
      "type": "function"
    },
    {
      "inputs": [
        {
          "internalType": "uint256",
          "name": "tokenId",
          "type": "uint256"
        }
      ],
      "name": "ownerOf",
      "outputs": [
        {
          "internalType": "address",
          "name": "",
          "type": "address"
        }
      ],
      "stateMutability": "view",
      "type": "function"
    },
    {
      "inputs": [],
      "name": "p5jsScript",
      "outputs": [
        {
          "internalType": "string",
          "name": "result",
          "type": "string"
        }
      ],
      "stateMutability": "view",
      "type": "function"
    },
    {
      "inputs": [],
      "name": "paused",
      "outputs": [
        {
          "internalType": "bool",
          "name": "",
          "type": "bool"
        }
      ],
      "stateMutability": "view",
      "type": "function"
    },
    {
      "inputs": [],
      "name": "renounceOwnership",
      "outputs": [],
      "stateMutability": "nonpayable",
      "type": "function"
    },
    {
      "inputs": [
        {
          "internalType": "uint256",
          "name": "projectId",
          "type": "uint256"
        },
        {
          "internalType": "uint256",
          "name": "_salePrice",
          "type": "uint256"
        }
      ],
      "name": "royaltyInfo",
      "outputs": [
        {
          "internalType": "address",
          "name": "receiver",
          "type": "address"
        },
        {
          "internalType": "uint256",
          "name": "royaltyAmount",
          "type": "uint256"
        }
      ],
      "stateMutability": "view",
      "type": "function"
    },
    {
      "inputs": [
        {
          "internalType": "address",
          "name": "from",
          "type": "address"
        },
        {
          "internalType": "address",
          "name": "to",
          "type": "address"
        },
        {
          "internalType": "uint256",
          "name": "tokenId",
          "type": "uint256"
        }
      ],
      "name": "safeTransferFrom",
      "outputs": [],
      "stateMutability": "nonpayable",
      "type": "function"
    },
    {
      "inputs": [
        {
          "internalType": "address",
          "name": "from",
          "type": "address"
        },
        {
          "internalType": "address",
          "name": "to",
          "type": "address"
        },
        {
          "internalType": "uint256",
          "name": "tokenId",
          "type": "uint256"
        },
        {
          "internalType": "bytes",
          "name": "data",
          "type": "bytes"
        }
      ],
      "name": "safeTransferFrom",
      "outputs": [],
      "stateMutability": "nonpayable",
      "type": "function"
    },
    {
      "inputs": [
        {
          "internalType": "address",
          "name": "operator",
          "type": "address"
        },
        {
          "internalType": "bool",
          "name": "approved",
          "type": "bool"
        }
      ],
      "name": "setApprovalForAll",
      "outputs": [],
      "stateMutability": "nonpayable",
      "type": "function"
    },
    {
      "inputs": [
        {
          "internalType": "uint256",
          "name": "tokenId",
          "type": "uint256"
        }
      ],
      "name": "settleAuction",
      "outputs": [],
      "stateMutability": "nonpayable",
      "type": "function"
    },
    {
      "inputs": [
        {
          "internalType": "bytes4",
          "name": "interfaceId",
          "type": "bytes4"
        }
      ],
      "name": "supportsInterface",
      "outputs": [
        {
          "internalType": "bool",
          "name": "",
          "type": "bool"
        }
      ],
      "stateMutability": "view",
      "type": "function"
    },
    {
      "inputs": [],
      "name": "symbol",
      "outputs": [
        {
          "internalType": "string",
          "name": "",
          "type": "string"
        }
      ],
      "stateMutability": "view",
      "type": "function"
    },
    {
      "inputs": [
        {
          "internalType": "bytes32",
          "name": "seed",
          "type": "bytes32"
        },
        {
          "internalType": "uint256",
          "name": "tokenId",
          "type": "uint256"
        }
      ],
      "name": "tokenHTML",
      "outputs": [
        {
          "internalType": "string",
          "name": "result",
          "type": "string"
        }
      ],
      "stateMutability": "view",
      "type": "function"
    },
    {
      "inputs": [
        {
          "internalType": "uint256",
          "name": "tokenId",
          "type": "uint256"
        }
      ],
      "name": "tokenIdToHash",
      "outputs": [
        {
          "internalType": "bytes32",
          "name": "",
          "type": "bytes32"
        }
      ],
      "stateMutability": "view",
      "type": "function"
    },
    {
      "inputs": [
        {
          "internalType": "uint256",
          "name": "tokenId",
          "type": "uint256"
        }
      ],
      "name": "tokenURI",
      "outputs": [
        {
          "internalType": "string",
          "name": "result",
          "type": "string"
        }
      ],
      "stateMutability": "view",
      "type": "function"
    },
    {
      "inputs": [
        {
          "internalType": "address",
          "name": "from",
          "type": "address"
        },
        {
          "internalType": "address",
          "name": "to",
          "type": "address"
        },
        {
          "internalType": "uint256",
          "name": "tokenId",
          "type": "uint256"
        }
      ],
      "name": "transferFrom",
      "outputs": [],
      "stateMutability": "nonpayable",
      "type": "function"
    },
    {
      "inputs": [
        {
          "internalType": "address",
          "name": "newOwner",
          "type": "address"
        }
      ],
      "name": "transferOwnership",
      "outputs": [],
      "stateMutability": "nonpayable",
      "type": "function"
    },
    {
      "inputs": [
        {
          "internalType": "bytes32",
          "name": "seed",
          "type": "bytes32"
        },
        {
          "internalType": "uint256",
          "name": "tokenId",
          "type": "uint256"
        }
      ],
      "name": "variableScript",
      "outputs": [
        {
          "internalType": "string",
          "name": "result",
          "type": "string"
        }
      ],
      "stateMutability": "view",
      "type": "function"
    },
    {
      "inputs": [],
      "name": "web3Script",
      "outputs": [
        {
          "internalType": "string",
          "name": "result",
          "type": "string"
        }
      ],
      "stateMutability": "view",
      "type": "function"
    },
    {
      "inputs": [
        {
          "internalType": "address",
          "name": "erc20Addr",
          "type": "address"
        }
      ],
      "name": "withdraw",
      "outputs": [],
      "stateMutability": "nonpayable",
      "type": "function"
    }
  ],
  "bytecode": "0x608060405234801561001057600080fd5b5061673b80620000216000396000f3fe60806040526004361061036b5760003560e01c806375b4ab5d116101c6578063adfc7dae116100f7578063cc22e00411610095578063eb29c2321161006f578063eb29c23214610ba5578063f2fde38b14610bc5578063f3f83ddd14610be5578063febfd6c314610c0557600080fd5b8063cc22e00414610b0e578063d5563f3114610b3c578063e985e9c514610b5c57600080fd5b8063b88d4fde116100d1578063b88d4fde14610a79578063bd89684314610a94578063c5c1b8af14610ab5578063c87b56dd14610aee57600080fd5b8063adfc7dae14610a25578063b6b55f2514610a46578063b7751c7114610a5957600080fd5b806394f5a66e116101645780639a247cb31161013e5780639a247cb31461094f5780639c6f35f9146109cf578063a0d41e11146109f0578063a22cb46514610a0557600080fd5b806394f5a66e146108fa57806395d89b411461091a57806396e494e81461092f57600080fd5b80638da5cb5b116101a05780638da5cb5b1461087b5780638f2839701461089a57806393c6cdc0146108ba57806394d008ef146108da57600080fd5b806375b4ab5d146108185780637de77ecc146108385780638a0162491461086657600080fd5b80632e993611116102a05780635c975abb1161023e57806366215eb41161021857806366215eb4146107ad57806370a08231146107ce578063715018a6146107ee57806374973a411461080357600080fd5b80635c975abb14610755578063621a1f741461076d5780636352211e1461078d57600080fd5b806342842e0e1161027a57806342842e0e146106b6578063512c91df146106d657806351cff8d9146106f657806355cd63261461071657600080fd5b80632e9936111461065557806332e3232614610675578063333489791461069557600080fd5b806317dc6bf61161030d57806323b872dd116102e757806323b872dd146105ad5780632824d162146105c85780632a55205a146105f65780632b7d13de1461063557600080fd5b806317dc6bf6146104825780631ca9741b1461056857806322f4596f1461058857600080fd5b806306fdde031161034957806306fdde03146103fe578063081812fc14610420578063095ea7b314610440578063140f0e071461046257600080fd5b806301bc45c91461037057806301ffc9a7146103ae57806306cb20c1146103de575b600080fd5b34801561037c57600080fd5b5061015f54610391906001600160a01b031681565b6040516001600160a01b0390911681526020015b60405180910390f35b3480156103ba57600080fd5b506103ce6103c9366004615708565b610c25565b60405190151581526020016103a5565b3480156103ea57600080fd5b506103916103f9366004615725565b610c77565b34801561040a57600080fd5b50610413610cbd565b6040516103a591906157a9565b34801561042c57600080fd5b5061039161043b3660046157bc565b610d4f565b34801561044c57600080fd5b5061046061045b3660046157f5565b610d76565b005b34801561046e57600080fd5b5061046061047d3660046158ee565b610e91565b34801561048e57600080fd5b5061050261049d3660046157bc565b61016d60205260009081526040902080546001820154600283015460038401546004850154600586015460068701546007880154600889015460099099015497986001600160a01b0397881698969795969495841694600160a01b90940460ff16938b565b604080519b8c526001600160a01b039a8b1660208d01528b019890985260608a019690965260808901949094529590911660a0870152151560c086015260e0850193909352610100840192909252610120830191909152610140820152610160016103a5565b34801561057457600080fd5b50610460610583366004615923565b610ef1565b34801561059457600080fd5b5061059f6101665481565b6040519081526020016103a5565b3480156105b957600080fd5b5061046061036b366004615940565b3480156105d457600080fd5b5061059f6105e3366004615923565b6101706020526000908152604090205481565b34801561060257600080fd5b50610616610611366004615981565b610f85565b604080516001600160a01b0390931683526020830191909152016103a5565b34801561064157600080fd5b50610460610650366004615923565b610fb6565b34801561066157600080fd5b506104606106703660046157bc565b61104b565b34801561068157600080fd5b50610413610690366004615981565b611083565b3480156106a157600080fd5b5061016554610391906001600160a01b031681565b3480156106c257600080fd5b506104606106d1366004615940565b61126c565b3480156106e257600080fd5b5061059f6106f13660046157f5565b611287565b34801561070257600080fd5b50610460610711366004615923565b6112e5565b34801561072257600080fd5b5061059f6107313660046159a3565b61016f60209081526000938452604080852082529284528284209052825290205481565b34801561076157600080fd5b5060975460ff166103ce565b34801561077957600080fd5b5061059f6107883660046157bc565b61151f565b34801561079957600080fd5b506103916107a83660046157bc565b6115ed565b3480156107b957600080fd5b5061016154610391906001600160a01b031681565b3480156107da57600080fd5b5061059f6107e9366004615923565b611609565b3480156107fa57600080fd5b5061046061168f565b34801561080f57600080fd5b506104136116a3565b34801561082457600080fd5b506103ce610833366004615923565b6118fd565b34801561084457600080fd5b5061059f610853366004615923565b61016a6020526000908152604090205481565b34801561087257600080fd5b50610413611a00565b34801561088757600080fd5b5061012d546001600160a01b0316610391565b3480156108a657600080fd5b506104606108b5366004615923565b611a8f565b3480156108c657600080fd5b506104606108d5366004615923565b611b24565b3480156108e657600080fd5b5061059f6108f53660046159dc565b611bb9565b34801561090657600080fd5b50610460610915366004615a65565b611f0f565b34801561092657600080fd5b50610413612135565b34801561093b57600080fd5b506103ce61094a3660046157bc565b612144565b34801561095b57600080fd5b5061050261096a3660046157bc565b61016e60205260009081526040902080546001820154600283015460038401546004850154600586015460068701546007880154600889015460099099015497986001600160a01b0397881698969795969495841694600160a01b90940460ff16938b565b3480156109db57600080fd5b5061016454610391906001600160a01b031681565b3480156109fc57600080fd5b50610413612227565b348015610a1157600080fd5b50610460610a20366004615b45565b612458565b348015610a3157600080fd5b5061016054610391906001600160a01b031681565b610460610a543660046157bc565b612463565b348015610a6557600080fd5b50610460610a74366004615981565b612775565b348015610a8557600080fd5b5061046061036b366004615b7e565b348015610aa057600080fd5b5061016754610391906001600160a01b031681565b348015610ac157600080fd5b5061059f610ad0366004615bfe565b61016c60209081526000928352604080842090915290825290205481565b348015610afa57600080fd5b50610413610b093660046157bc565b612cd6565b348015610b1a57600080fd5b5061059f610b293660046157bc565b6101696020526000908152604090205481565b348015610b4857600080fd5b50610460610b573660046157bc565b612e98565b348015610b6857600080fd5b506103ce610b77366004615bfe565b6001600160a01b039182166000908152606a6020908152604080832093909416825291909152205460ff1690565b348015610bb157600080fd5b50610413610bc0366004615981565b612f3f565b348015610bd157600080fd5b50610460610be0366004615923565b613011565b348015610bf157600080fd5b50610460610c00366004615923565b613087565b348015610c1157600080fd5b50610460610c20366004615923565b61311c565b60006001600160e01b031982166380ac58cd60e01b1480610c5657506001600160e01b03198216635b5e139f60e01b145b80610c7157506301ffc9a760e01b6001600160e01b03198316145b92915050565b6101716020528260005260406000206020528160005260406000208181548110610ca057600080fd5b6000918252602090912001546001600160a01b0316925083915050565b606060658054610ccc90615c2c565b80601f0160208091040260200160405190810160405280929190818152602001828054610cf890615c2c565b8015610d455780601f10610d1a57610100808354040283529160200191610d45565b820191906000526020600020905b815481529060010190602001808311610d2857829003601f168201915b5050505050905090565b6000610d5a826131b1565b506000908152606960205260409020546001600160a01b031690565b6000610d8182613201565b9050806001600160a01b0316836001600160a01b03161415610df45760405162461bcd60e51b815260206004820152602160248201527f4552433732313a20617070726f76616c20746f2063757272656e74206f776e656044820152603960f91b60648201526084015b60405180910390fd5b336001600160a01b0382161480610e105750610e108133610b77565b610e825760405162461bcd60e51b815260206004820152603d60248201527f4552433732313a20617070726f76652063616c6c6572206973206e6f7420746f60448201527f6b656e206f776e6572206f7220617070726f76656420666f7220616c6c0000006064820152608401610deb565b610e8c8383613261565b505050565b61015f5460408051808201909152600381526231303160e81b6020820152906001600160a01b03163314610ed85760405162461bcd60e51b8152600401610deb91906157a9565b508051610eed90610163906020840190615659565b5050565b61015f546001600160a01b031633148015610f1457506001600160a01b03811615155b6040518060400160405280600381526020016231303160e81b81525090610f4e5760405162461bcd60e51b8152600401610deb91906157a9565b50610161546001600160a01b03828116911614610f825761016180546001600160a01b0319166001600160a01b0383161790555b50565b61015f546001600160a01b03166000612710610fa3846101f4615c7d565b610fad9190615c9c565b90509250929050565b61015f546001600160a01b031633148015610fd957506001600160a01b03811615155b6040518060400160405280600381526020016231303160e81b815250906110135760405162461bcd60e51b8152600401610deb91906157a9565b50610165546001600160a01b03828116911614610f825761016580546001600160a01b0383166001600160a01b031990911617905550565b61105361330a565b61107981611060836115ed565b6001600160a01b0316336001600160a01b031614613364565b610f82600160fb55565b6040805180820190915260128152711e39b1b934b83a1034b21e93bb30b939939f60711b6020820152806110b68461396b565b6040516020016110c7929190615cbe565b60408051601f198184030181529190526101645490915081906110f2906001600160a01b03166139b7565b604051602001611103929190615d12565b60408051808303601f19018152908290526101605463bf40fac160e01b835260206004840152602160248401527f535741505f504f4f4c5f474d5f4554485f434f4e54524143545f4144445245536044840152605360f81b60648401529092506001600160a01b031690600090829063bf40fac190608401602060405180830381865afa158015611198573d6000803e3d6000fd5b505050506040513d601f19601f820116820180604052508101906111bc9190615d79565b9050826111c8826139b7565b6040516020016111d9929190615d96565b6040516020818303038152906040529250826111f4306139b7565b604051602001611205929190615e0e565b604051602081830303815290604052925082611220856139cd565b604051602001611231929190615e75565b6040516020818303038152906040529250826040516020016112539190615ecd565b6040516020818303038152906040529250505092915050565b610e8c83838360405180602001604052806000815250600080fd5b6101675461016454604080513060208083019190915246828401526001600160a01b03948516606083015295841660808201529290911660a083015260c0808301939093528051808303909301835260e09091019052805191012090565b6112ed61330a565b61015f5481906001600160a01b03163314156113fd576001600160a01b0382166000908152610170602052604090205461132657600080fd5b6001600160a01b03828116600090815261017060205260409081902054905163a9059cbb60e01b815233600482015260248101919091529082169063a9059cbb906044016020604051808303816000875af1158015611389573d6000803e3d6000fd5b505050506040513d601f19601f820116820180604052508101906113ad9190615efa565b6113de5760405162461bcd60e51b8152602060048201526002602482015261573160f01b6044820152606401610deb565b6001600160a01b03821660009081526101706020526040812055611514565b33600090815261016c602090815260408083206001600160a01b038616845290915290205461142b57600080fd5b33600081815261016c602090815260408083206001600160a01b03878116855292529182902054915163a9059cbb60e01b81526004810193909352602483019190915282169063a9059cbb906044016020604051808303816000875af1158015611499573d6000803e3d6000fd5b505050506040513d601f19601f820116820180604052508101906114bd9190615efa565b6114ee5760405162461bcd60e51b81526020600482015260026024820152612b9960f11b6044820152606401610deb565b33600090815261016c602090815260408083206001600160a01b03861684529091528120555b50610f82600160fb55565b600061152a82613a6a565b6040518060400160405280600381526020016232303960e81b815250906115645760405162461bcd60e51b8152600401610deb91906157a9565b5060008281526101686020526040902054600160a01b900460a01b6001600160a01b03191661159557506000919050565b600082815261016860209081526040918290205491516115d092600160a01b900460a01b91016001600160a01b031991909116815260200190565b604051602081830303815290604052805190602001209050919050565b600090815261016860205260409020546001600160a01b031690565b60006001600160a01b0382166116735760405162461bcd60e51b815260206004820152602960248201527f4552433732313a2061646472657373207a65726f206973206e6f7420612076616044820152683634b21037bbb732b960b91b6064820152608401610deb565b506001600160a01b031660009081526068602052604090205490565b611697613a88565b6116a16000613ae3565b565b60606040518060600160405280603781526020016166cf6037913961016554604080518082018252600d81526c70356a7340312e352e302e6a7360981b602082015261016054915163bf40fac160e01b81529394506001600160a01b039283169390929190911690600090829063bf40fac190611746906004016020808252600f908201526e29a1a924a82a2fa82927ab24a222a960891b604082015260600190565b602060405180830381865afa158015611763573d6000803e3d6000fd5b505050506040513d601f19601f820116820180604052508101906117879190615d79565b90506000846001600160a01b031663ba67e64183866040518363ffffffff1660e01b81526004016117b9929190615f17565b602060405180830381865afa1580156117d6573d6000803e3d6000fd5b505050506040513d601f19601f820116820180604052508101906117fa9190615f3b565b9050611807600182615f54565b905060005b818110156118d25761015f5460405163283959d960e21b815260009182916001600160a01b038a81169263a0e567649261185092909116908b908890600401615f6c565b600060405180830381865afa15801561186d573d6000803e3d6000fd5b505050506040513d6000823e601f3d908101601f191682016040526118959190810190615fd0565b9150915088826040516020016118ac92919061602b565b6040516020818303038152906040529850505080806118ca9061605a565b91505061180c565b50856040516020016118e49190615ecd565b6040516020818303038152906040529550505050505090565b60008061190983611609565b111561191757506000919050565b6101605460405163bf40fac160e01b81526000916001600160a01b03169063bf40fac19061194790600401616075565b602060405180830381865afa158015611964573d6000803e3d6000fd5b505050506040513d601f19601f820116820180604052508101906119889190615d79565b90506001600160a01b0381166119a75750610164546001600160a01b03165b6119af613b36565b6001600160a01b03808516600090815261016c60209081526040808320938616835292905220546119df85613be1565b6119e99190615f54565b106119f75750600192915050565b50600092915050565b6101638054611a0e90615c2c565b80601f0160208091040260200160405190810160405280929190818152602001828054611a3a90615c2c565b8015611a875780601f10611a5c57610100808354040283529160200191611a87565b820191906000526020600020905b815481529060010190602001808311611a6a57829003601f168201915b505050505081565b61015f546001600160a01b031633148015611ab257506001600160a01b03811615155b6040518060400160405280600381526020016231303160e81b81525090611aec5760405162461bcd60e51b8152600401610deb91906157a9565b5061015f546001600160a01b03828116911614610f825761015f80546001600160a01b0383166001600160a01b031990911617905550565b61015f546001600160a01b031633148015611b4757506001600160a01b03811615155b6040518060400160405280600381526020016231303160e81b81525090611b815760405162461bcd60e51b8152600401610deb91906157a9565b50610164546001600160a01b03828116911614610f825761016480546001600160a01b0383166001600160a01b031990911617905550565b6000611bc361330a565b6101665461016254106040518060400160405280600381526020016232303360e81b81525090611c065760405162461bcd60e51b8152600401610deb91906157a9565b5061015f546001600160a01b03163314611d4657336001600160a01b03861614611c5a5760405162461bcd60e51b815260206004820152600560248201526447505f495560d81b6044820152606401610deb565b611c6385611609565b15611c965760405162461bcd60e51b8152602060048201526003602482015262312d3160e81b6044820152606401610deb565b6001600160a01b038516600090815261016a602052604090205415611ce15760405162461bcd60e51b81526020600482015260016024820152604d60f81b6044820152606401610deb565b611d22858585858080601f016020809104026020016040519081016040528093929190818152602001838380828437600092019190915250613c5192505050565b50506001600160a01b038516600090815261016a6020526040902060019055611e42565b61015f546001600160a01b0386811691161415611d8d5760405162461bcd60e51b815260206004820152600560248201526447505f495560d81b6044820152606401610deb565b6001600160a01b0385163014611e4257611da685611609565b15611dd95760405162461bcd60e51b8152602060048201526003602482015262312d3160e81b6044820152606401610deb565b6001600160a01b038516600090815261016a602052604090205415611e245760405162461bcd60e51b81526020600482015260016024820152604d60f81b6044820152606401610deb565b6001600160a01b038516600090815261016a60205260409020600190555b6101628054906000611e538361605a565b9190505550610162549050611e688582613cca565b61016154604051631da00d8560e01b8152600481018390526001600160a01b03909116906000908290631da00d85906024016020604051808303816000875af1158015611eb9573d6000803e3d6000fd5b505050506040513d601f19601f82011682018060405250810190611edd9190615f3b565b9050611ee98382613ce4565b5050600081815261016960205260409020439055611f07600160fb55565b949350505050565b600054610100900460ff1615808015611f2f5750600054600160ff909116105b80611f495750303b158015611f49575060005460ff166001145b611fac5760405162461bcd60e51b815260206004820152602e60248201527f496e697469616c697a61626c653a20636f6e747261637420697320616c72656160448201526d191e481a5b9a5d1a585b1a5e995960921b6064820152608401610deb565b6000805460ff191660011790558015611fcf576000805461ff0019166101001790555b60408051808201909152600381526203130360ec1b60208201526001600160a01b0388166120105760405162461bcd60e51b8152600401610deb91906157a9565b5060408051808201909152600381526203130360ec1b60208201526001600160a01b0387166120525760405162461bcd60e51b8152600401610deb91906157a9565b5061016080546001600160a01b03199081166001600160a01b038981169190911790925561015f805482168a841617905561016180548216888416179055610164805482168784161790556103e8610166556101658054821686841617905561016780549091169184169190911790556120cc8989613daf565b6120d4613de0565b6120dc613e0f565b6120e4613e3e565b801561212a576000805461ff0019169055604051600181527f7f26b83ff96e1f2b6a682f133852f6798a09c465da95921460cefb38474024989060200160405180910390a15b505050505050505050565b606060668054610ccc90615c2c565b600061214f82613a6a565b61215b57506000919050565b612163613e6d565b6000838152610169602052604090205461217d90436160ac565b1161218a57506000919050565b61015f546001600160a01b03166121a0836115ed565b6001600160a01b031614156121b757506000919050565b306121c1836115ed565b6001600160a01b031614156121fa57600082815261016d6020526040902060050154600160a01b900460ff16156121fa57506001919050565b6000612204613b36565b905080612218612213856115ed565b613be1565b10156119f75750600192915050565b60606040518060600160405280603781526020016166cf6037913961016554604080518082018252600f81526e776562336a7340312e322e372e6a7360881b602082015261016054915163bf40fac160e01b81529394506001600160a01b039283169390929190911690600090829063bf40fac1906122cc906004016020808252600f908201526e29a1a924a82a2fa82927ab24a222a960891b604082015260600190565b602060405180830381865afa1580156122e9573d6000803e3d6000fd5b505050506040513d601f19601f8201168201806040525081019061230d9190615d79565b90506000846001600160a01b031663ba67e64183866040518363ffffffff1660e01b815260040161233f929190615f17565b602060405180830381865afa15801561235c573d6000803e3d6000fd5b505050506040513d601f19601f820116820180604052508101906123809190615f3b565b905061238d600182615f54565b905060005b818110156118d25761015f5460405163283959d960e21b815260009182916001600160a01b038a81169263a0e56764926123d692909116908b908890600401615f6c565b600060405180830381865afa1580156123f3573d6000803e3d6000fd5b505050506040513d6000823e601f3d908101601f1916820160405261241b9190810190615fd0565b91509150888260405160200161243292919061602b565b6040516020818303038152906040529850505080806124509061605a565b915050612392565b610eed338383613f0f565b61246b61330a565b6101605460405163bf40fac160e01b81526000916001600160a01b03169063bf40fac19061249b90600401616075565b602060405180830381865afa1580156124b8573d6000803e3d6000fd5b505050506040513d601f19601f820116820180604052508101906124dc9190615d79565b90506001600160a01b0381166124fb5750610164546001600160a01b03165b604051636eb1769f60e11b8152336004820152306024820152819083906001600160a01b0383169063dd62ed3e90604401602060405180830381865afa158015612549573d6000803e3d6000fd5b505050506040513d601f19601f8201168201806040525081019061256d9190615f3b565b10156125bb5760405162461bcd60e51b815260206004820152601c60248201527f6e6f7420656e6f75676820616c6c6f7720657263323020746f6b656e000000006044820152606401610deb565b6040516370a0823160e01b815233600482015283906001600160a01b038316906370a0823190602401602060405180830381865afa158015612601573d6000803e3d6000fd5b505050506040513d601f19601f820116820180604052508101906126259190615f3b565b101561266c5760405162461bcd60e51b81526020600482015260166024820152753737ba1032b737bab3b41032b9319918103a37b5b2b760511b6044820152606401610deb565b6040516323b872dd60e01b8152336004820152306024820152604481018490526001600160a01b038216906323b872dd906064016020604051808303816000875af11580156126bf573d6000803e3d6000fd5b505050506040513d601f19601f820116820180604052508101906126e39190615efa565b61272f5760405162461bcd60e51b815260206004820152601d60248201527f63616e206e6f74206765742065726332302066726f6d206269646465720000006044820152606401610deb565b33600090815261016c602090815260408083206001600160a01b038616845290915281208054859290612763908490615f54565b9091555050600160fb5550610f829050565b61277d61330a565b612786336118fd565b6127bb5760405162461bcd60e51b8152600401610deb9060208082526004908201526304e5f43360e41b604082015260600190565b6127c433611609565b156127fa5760405162461bcd60e51b8152602060048201526006602482015265272fa1982f9960d11b6044820152606401610deb565b600082815261016f6020908152604080832061016d8352818420600901548452825280832033845290915290205461286f5760008281526101716020908152604080832061016d835281842060090154845282528220805460018101825590835291200180546001600160a01b031916331790555b600082815261016d602052604090205482146128c25760405162461bcd60e51b81526020600482015260126024820152713737ba103ab8103337b91030bab1ba34b7b760711b6044820152606401610deb565b600082815261016d602052604090206004015443106129155760405162461bcd60e51b815260206004820152600f60248201526e105d58dd1a5bdb88195e1c1a5c9959608a1b6044820152606401610deb565b33600090815261016c6020908152604080832085845261016d8352818420600101546001600160a01b031684529091529020548111156129975760405162461bcd60e51b815260206004820152601e60248201527f6e6f7420656e6f7567682062616c616e636520657263323020746f6b656e00006044820152606401610deb565b600082815261016f6020908152604080832061016d83528184206009015484528252808320338452909152812054906129d08284615f54565b600085815261016d60205260409020600701549091508111612a345760405162461bcd60e51b815260206004820152601f60248201527f4d7573742073656e64206174206c6561737420726573657276655072696365006044820152606401610deb565b600084815261016d602052604090206008810154600290910154606491612a5a91615c7d565b612a649190615c9c565b600085815261016d6020526040902060020154612a819190615f54565b8111612af7576040805162461bcd60e51b81526020600482015260248101919091527f4d7573742073656e64206d6f7265207468616e206c617374206269642062792060448201527f6d696e426964496e6372656d656e7450657263656e7461676520616d6f756e746064820152608401610deb565b33600090815261016c6020908152604080832087845261016d8352818420600101546001600160a01b0316845290915281208054859290612b399084906160ac565b9091555050600084815261016f6020908152604080832061016d8084528285206009810180548752928552838620338088529086528487208890556002808301899055600580840180546001600160a01b0319908116909417815586548a5261016e8952878a209092018a905590549454885294872090940180549094166001600160a01b039093169290921790925587845291526006810154600490910154612be49043906160ac565b1090508015612c1e57600085815261016d6020526040902060060154612c0a9043615f54565b600086815261016d60205260409020600401555b600085815261016d602052604090819020805491517ffd09e259e5c48be16f7dd63468e19266c684a9f3dce3b31881dbc1f909fc0d7c91612c659133918991879190616159565b60405180910390a28015612cc357600085815261016d60205260409081902080546004820154925190927f4c1666cb87ed4fd7706cb19b1e3160612601aca7235c307fe64a11bc8db0f41f92612cba9261618f565b60405180910390a25b505050610eed600160fb55565b50505050565b6060612ce182613a6a565b6040518060400160405280600381526020016232303960e81b81525090612d1b5760405162461bcd60e51b8152600401610deb91906157a9565b5060405163188687dd60e21b815260048101839052600090309063621a1f7490602401602060405180830381865afa158015612d5b573d6000803e3d6000fd5b505050506040513d601f19601f82011682018060405250810190612d7f9190615f3b565b61016054604051637594e11960e11b815260048101839052602481018690529192506001600160a01b031690600090309063eb29c23290604401600060405180830381865afa158015612dd6573d6000803e3d6000fd5b505050506040513d6000823e601f3d908101601f19168201604052612dfe91908101906161a4565b9050612e2881604051602001612e1491906161ed565b604051602081830303815290604052613fde565b604051602001612e389190616209565b6040516020818303038152906040529050600081604051602001612e5c9190616247565b604051602081830303815290604052905080604051602001612e7e919061628e565b604051602081830303815290604052945050505050919050565b612ea061330a565b612ea981612144565b612ede5760405162461bcd60e51b8152600401610deb9060208082526004908201526304e5f43360e41b604082015260600190565b612ee6613e6d565b60008281526101696020526040902054612f0090436160ac565b11612f365760405162461bcd60e51b81526020600482015260066024820152654e5f43305f3360d01b6044820152606401610deb565b61107981614144565b60408051808201909152600c81526b1e343a36b61f1e3432b0b21f60a11b602082015280612f6b6116a3565b604051602001612f7c92919061602b565b604051602081830303815290604052905080612f96612227565b604051602001612fa792919061602b565b604051602081830303815290604052905080612fc38484611083565b604051602001612fd492919061602b565b604051602081830303815290604052905080610163604051602001612ffa929190616310565b604051602081830303815290604052905092915050565b613019613a88565b6001600160a01b03811661307e5760405162461bcd60e51b815260206004820152602660248201527f4f776e61626c653a206e6577206f776e657220697320746865207a65726f206160448201526564647265737360d01b6064820152608401610deb565b610f8281613ae3565b61015f546001600160a01b0316331480156130aa57506001600160a01b03811615155b6040518060400160405280600381526020016231303160e81b815250906130e45760405162461bcd60e51b8152600401610deb91906157a9565b50610167546001600160a01b03828116911614610f825761016780546001600160a01b0383166001600160a01b031990911617905550565b61015f546001600160a01b03163314801561313f57506001600160a01b03811615155b6040518060400160405280600381526020016231303160e81b815250906131795760405162461bcd60e51b8152600401610deb91906157a9565b50610160546001600160a01b03828116911614610f825761016080546001600160a01b0383166001600160a01b031990911617905550565b6131ba81613a6a565b610f825760405162461bcd60e51b8152602060048201526018602482015277115490cdcc8c4e881a5b9d985b1a59081d1bdad95b88125160421b6044820152606401610deb565b6000818152606760205260408120546001600160a01b031680610c715760405162461bcd60e51b8152602060048201526018602482015277115490cdcc8c4e881a5b9d985b1a59081d1bdad95b88125160421b6044820152606401610deb565b600081815260696020526040902080546001600160a01b0319166001600160a01b038416908117909155819061329682613201565b6001600160a01b03167f8c5be1e5ebec7d5bd14f71427d1e84f3dd0314c0f7b2291e5b200ac8c7c3b92560405160405180910390a45050565b6132da8383836147cc565b60009081526101686020526040902080546001600160a01b0319166001600160a01b039290921691909117905550565b600260fb54141561335d5760405162461bcd60e51b815260206004820152601f60248201527f5265656e7472616e637947756172643a207265656e7472616e742063616c6c006044820152606401610deb565b600260fb55565b600082815261016d6020526040902060098101546003909101546133c15760405162461bcd60e51b815260206004820152601460248201527320bab1ba34b7b7103430b9b713ba103132b3bab760611b6044820152606401610deb565b600083815261016d6020526040902060050154600160a01b900460ff161561342b5760405162461bcd60e51b815260206004820181905260248201527f41756374696f6e2068617320616c7265616479206265656e20736574746c65646044820152606401610deb565b600083815261016d602052604090206004015443101561348d5760405162461bcd60e51b815260206004820152601860248201527f41756374696f6e206861736e277420636f6d706c6574656400000000000000006044820152606401610deb565b600083815261016d6020818152604080842060059081018054600160a01b60ff60a01b199182168117835588885261016e865293872090920180549092169092179055868452919052546001600160a01b0316156135d257600084815261016d602052604090206005015461350a906001600160a01b0316611609565b61354057600084815261016d602052604090206005810154905461353b9130916001600160a01b03909116906132cf565b6135d2565b600084815261016d60209081526040808320600281015460058201546001600160a01b03908116865261016c85528386206001909301541685529252822080549192909161358f908490615f54565b909155505050600083815261016f60209081526040808320848452825280832086845261016d8352818420600501546001600160a01b0316845290915281205560015b600084815261016d6020526040902060020154158015906135f1575080155b156137f9576101605460405163bf40fac160e01b815260206004820152601c60248201527f534f554c5f41554354494f4e5f474d5f44414f5f54726561737572790000000060448201526000916001600160a01b03169063bf40fac190606401602060405180830381865afa15801561366e573d6000803e3d6000fd5b505050506040513d601f19601f820116820180604052508101906136929190615d79565b90506001600160a01b0381166136a757600080fd5b600085815261016d6020526040812060020154612710906136ca906103e8615c7d565b6136d49190615c9c565b600087815261016d6020526040902060018101546002909101549192506001600160a01b03169063a9059cbb90849061370e9085906160ac565b6040516001600160e01b031960e085901b1681526001600160a01b03909216600483015260248201526044016020604051808303816000875af1158015613759573d6000803e3d6000fd5b505050506040513d601f19601f8201168201806040525081019061377d9190615efa565b50600086815261016d60209081526040808320600101546001600160a01b03168352610170909152812080548392906137b7908490615f54565b909155505050600085815261016f60209081526040808320868452825280832088845261016d8352818420600501546001600160a01b03168452909152812055505b600084815261017160209081526040808320858452909152902054156138fe5760005b6000858152610171602090815260408083208684529091529020548110156138fc57600085815261016d6020908152604080832060050154610171835281842087855290925290912080546001600160a01b039092169183908110613883576138836163c1565b6000918252602090912001546001600160a01b0316146138ea57600085815261017160209081526040808320868452909152902080546138ea9190839081106138ce576138ce6163c1565b6000918252602090912001546001600160a01b0316868561493d565b806138f48161605a565b91505061381c565b505b600084815261016d602052604090819020805460058201546002830154935191937f727cff623966c8adc61ac68940e8c898c04ff7ced5d69d9735d51f0589daf53293613956936001600160a01b03909316926163d7565b60405180910390a250505050565b600160fb55565b606061397682614ac8565b613983608084901b614ac8565b60405161060f60f31b6020820152602281019290925260428201526062016040516020818303038152906040529050919050565b6060610c716001600160a01b0383166014614c7a565b606060006139da83614e1d565b600101905060008167ffffffffffffffff8111156139fa576139fa615821565b6040519080825280601f01601f191660200182016040528015613a24576020820181803683370190505b5090508181016020015b600019016f181899199a1a9b1b9c1cb0b131b232b360811b600a86061a8153600a8504945084613a5d57613a62565b613a2e565b509392505050565b600090815261016860205260409020546001600160a01b0316151590565b61012d546001600160a01b031633146116a15760405162461bcd60e51b815260206004820181905260248201527f4f776e61626c653a2063616c6c6572206973206e6f7420746865206f776e65726044820152606401610deb565b61012d80546001600160a01b038381166001600160a01b0319831681179093556040519116919082907f8be0079c531659141344cd1fd0a4f28419497f9722a3daafe3b4186f6b6457e090600090a35050565b61016054604051636d12dce160e01b815260206004820152601160248201527014d3d55317d1d357d512149154d213d311607a1b604482015260009182916001600160a01b0390911690636d12dce190606401602060405180830381865afa158015613ba6573d6000803e3d6000fd5b505050506040513d601f19601f82011682018060405250810190613bca9190615f3b565b905080613bdc5750670de0b6b3a76400005b919050565b610164546040516370a0823160e01b81526001600160a01b03838116600483015260009216906370a0823190602401602060405180830381865afa158015613c2d573d6000803e3d6000fd5b505050506040513d601f19601f82011682018060405250810190610c719190615f3b565b6000806000613c608686611287565b90506000613c76613c7083614ef5565b86614f30565b610167549091506001600160a01b03808316911614613cbf5760405162461bcd60e51b815260206004820152600560248201526447505f4e4160d81b6044820152606401610deb565b969095509350505050565b610eed828260405180602001604052806000815250614f4c565b60008281526101686020908152604091829020548251808401909352600383526219181b60e91b91830191909152600160a01b900460a01b6001600160a01b03191615613d445760405162461bcd60e51b8152600401610deb91906157a9565b5060408051808201909152600381526232303760e81b602082015281613d7d5760405162461bcd60e51b8152600401610deb91906157a9565b5060009182526101686020526040909120805460a09290921c600160a01b026001600160a01b03909216919091179055565b600054610100900460ff16613dd65760405162461bcd60e51b8152600401610deb906163fc565b610eed8282614f7f565b600054610100900460ff16613e075760405162461bcd60e51b8152600401610deb906163fc565b6116a1614fcd565b600054610100900460ff16613e365760405162461bcd60e51b8152600401610deb906163fc565b6116a1614ff4565b600054610100900460ff16613e655760405162461bcd60e51b8152600401610deb906163fc565b6116a1615027565b61016054604051636d12dce160e01b815260206004820152600f60248201526e534f554c5f474d5f5245534552564560881b604482015260009182916001600160a01b0390911690636d12dce190606401602060405180830381865afa158015613edb573d6000803e3d6000fd5b505050506040513d601f19601f82011682018060405250810190613eff9190615f3b565b905080613bdc57506103f0919050565b816001600160a01b0316836001600160a01b03161415613f715760405162461bcd60e51b815260206004820152601960248201527f4552433732313a20617070726f766520746f2063616c6c6572000000000000006044820152606401610deb565b6001600160a01b038381166000818152606a6020908152604080832094871680845294825291829020805460ff191686151590811790915591519182527f17307eab39ab6107e8899845ad3d59bd9653f200f220920489ca2b5937696c31910160405180910390a3505050565b6060815160001415613ffe57505060408051602081019091526000815290565b600060405180606001604052806040815260200161668f604091399050600060038451600261402d9190615f54565b6140379190615c9c565b614042906004615c7d565b90506000614051826020615f54565b67ffffffffffffffff81111561406957614069615821565b6040519080825280601f01601f191660200182016040528015614093576020820181803683370190505b509050818152600183018586518101602084015b818310156140ff576003830192508251603f8160121c168501518253600182019150603f81600c1c168501518253600182019150603f8160061c168501518253600182019150603f81168501518253506001016140a7565b600389510660018114614119576002811461412a57614136565b613d3d60f01b600119830152614136565b603d60f81b6000198301525b509398975050505050505050565b61414d81613a6a565b61415657600080fd5b600081815261016d6020526040902060050154600160a01b900460ff168061418b5750600081815261016d6020526040902054155b6141fd5760405162461bcd60e51b815260206004820152603860248201527f41756374696f6e2068617320616c7265616479206265656e20736574746c656460448201527f206f72203173742041756374696f6e206f6620746f6b656e00000000000000006064820152608401610deb565b436000614208613e6d565b6142129083615f54565b6101608054604080519283018152600060208401819052838201819052606084018190526080840181905260a0840181905260c0840181905260e08401819052610100840181905261012084018190526101408401528683525163bf40fac160e01b81529293506001600160a01b031691829063bf40fac19061429790600401616075565b602060405180830381865afa1580156142b4573d6000803e3d6000fd5b505050506040513d601f19601f820116820180604052508101906142d89190615d79565b6001600160a01b0316602082018190526142ff57610164546001600160a01b031660208201525b60006040828101829052606083018690526080830185905260a0830182905260c083019190915251636d12dce160e01b815260206004820152601860248201527f534f554c5f41554354494f4e5f54494d455f425546464552000000000000000060448201526001600160a01b03831690636d12dce190606401602060405180830381865afa158015614396573d6000803e3d6000fd5b505050506040513d601f19601f820116820180604052508101906143ba9190615f3b565b60e0820152604051636d12dce160e01b815260206004820152601a60248201527f534f554c5f41554354494f4e5f524553455256455f505249434500000000000060448201526001600160a01b03831690636d12dce190606401602060405180830381865afa158015614431573d6000803e3d6000fd5b505050506040513d601f19601f820116820180604052508101906144559190615f3b565b610100820152604051636d12dce160e01b815260206004820152602560248201527f534f554c5f41554354494f4e5f4d494e5f4249445f494e4352454153455f50456044820152641490d1539560da1b60648201526001600160a01b03831690636d12dce190608401602060405180830381865afa1580156144db573d6000803e3d6000fd5b505050506040513d601f19601f820116820180604052508101906144ff9190615f3b565b61012082015261016b80549060006145168361605a565b919050555061452761016b546139cd565b61453482606001516139cd565b61454183608001516139cd565b61454a886139cd565b60405160200161455d9493929190616499565b60405160208183030381529060405280519060200120816101400181815250508061016d60008781526020019081526020016000206000820151816000015560208201518160010160006101000a8154816001600160a01b0302191690836001600160a01b0316021790555060408201518160020155606082015181600301556080820151816004015560a08201518160050160006101000a8154816001600160a01b0302191690836001600160a01b0316021790555060c08201518160050160146101000a81548160ff02191690831515021790555060e082015181600601556101008201518160070155610120820151816008015561014082015181600901559050508061016e600083610140015181526020019081526020016000206000820151816000015560208201518160010160006101000a8154816001600160a01b0302191690836001600160a01b0316021790555060408201518160020155606082015181600301556080820151816004015560a08201518160050160006101000a8154816001600160a01b0302191690836001600160a01b0316021790555060c08201518160050160146101000a81548160ff02191690831515021790555060e08201518160060155610100820151816007015561012082015181600801556101408201518160090155905050306001600160a01b031661475f866115ed565b6001600160a01b03161461478057614780614779866115ed565b30876132cf565b847fb404e07dbfe9071da655c32567071b2ee4e88867784a1b39f01a8457787e504f858533856101400151866040516147bd9594939291906164f0565b60405180910390a25050505050565b826001600160a01b03166147df82613201565b6001600160a01b0316146148055760405162461bcd60e51b8152600401610deb906165c2565b6001600160a01b0382166148675760405162461bcd60e51b8152602060048201526024808201527f4552433732313a207472616e7366657220746f20746865207a65726f206164646044820152637265737360e01b6064820152608401610deb565b6148748383836001615152565b826001600160a01b031661488782613201565b6001600160a01b0316146148ad5760405162461bcd60e51b8152600401610deb906165c2565b600081815260696020908152604080832080546001600160a01b03199081169091556001600160a01b0387811680865260688552838620805460001901905590871680865283862080546001019055868652606790945282852080549092168417909155905184937fddf252ad1be2c89b69c2b068fc378daa952ba7f163c4a11628f55a4df523b3ef91a4505050565b600081815261016e6020526040902060050154600160a01b900460ff1661496357600080fd5b600081815261016e60205260409020600501546001600160a01b038481169116141561498e57600080fd5b600082815261016f6020908152604080832084845282528083206001600160a01b03871684529091529020546149c357600080fd5b600082815261016f6020908152604080832084845282528083206001600160a01b0387168085529083529281902054815193845291830191909152810182905282907f3efeb5ca9b10c05ba2df4bcac38445e4a4e8a996887f004e5036d254c14a98649060600160405180910390a2600082815261016f6020908152604080832084845282528083206001600160a01b0380881685529083528184205461016c845282852086865261016e855283862060010154909216855292528220805491929091614a91908490615f54565b9091555050600091825261016f602090815260408084209284529181528183206001600160a01b0390941683529290925290812055565b7aff00000000000000ff00000000000000ff00000000000000ff00006bffffffff0000000000000000604083901c90811663ffffffff60c01b84161760201c63ffffffff60601b919091166001600160e01b031984161717601081901c9182167eff00000000000000ff00000000000000ff00000000000000ff000000000000821617600890811c7bff00000000000000ff00000000000000ff00000000000000ff000000939093167fff00000000000000ff00000000000000ff00000000000000ff000000000000009290921691909117919091179081901c7e0f000f000f000f000f000f000f000f000f000f000f000f000f000f000f000f167f0f000f000f000f000f000f000f000f000f000f000f000f000f000f000f000f00600492831c161790614c16827f0606060606060606060606060606060606060606060606060606060606060606615f54565b901c7f0f0f0f0f0f0f0f0f0f0f0f0f0f0f0f0f0f0f0f0f0f0f0f0f0f0f0f0f0f0f0f0f166007614c469190615c7d565b614c70827f3030303030303030303030303030303030303030303030303030303030303030615f54565b610c719190615f54565b60606000614c89836002615c7d565b614c94906002615f54565b67ffffffffffffffff811115614cac57614cac615821565b6040519080825280601f01601f191660200182016040528015614cd6576020820181803683370190505b509050600360fc1b81600081518110614cf157614cf16163c1565b60200101906001600160f81b031916908160001a905350600f60fb1b81600181518110614d2057614d206163c1565b60200101906001600160f81b031916908160001a9053506000614d44846002615c7d565b614d4f906001615f54565b90505b6001811115614dc7576f181899199a1a9b1b9c1cb0b131b232b360811b85600f1660108110614d8357614d836163c1565b1a60f81b828281518110614d9957614d996163c1565b60200101906001600160f81b031916908160001a90535060049490941c93614dc081616607565b9050614d52565b508315614e165760405162461bcd60e51b815260206004820181905260248201527f537472696e67733a20686578206c656e67746820696e73756666696369656e746044820152606401610deb565b9392505050565b60008072184f03e93ff9f4daa797ed6e38ed64bf6a1f0160401b8310614e5c5772184f03e93ff9f4daa797ed6e38ed64bf6a1f0160401b830492506040015b6d04ee2d6d415b85acef81000000008310614e88576d04ee2d6d415b85acef8100000000830492506020015b662386f26fc100008310614ea657662386f26fc10000830492506010015b6305f5e1008310614ebe576305f5e100830492506008015b6127108310614ed257612710830492506004015b60648310614ee4576064830492506002015b600a8310610c715760010192915050565b6040517f19457468657265756d205369676e6564204d6573736167653a0a3332000000006020820152603c8101829052600090605c016115d0565b6000806000614f3f85856151c5565b91509150613a628161520b565b614f568383615359565b614f636000848484615057565b610e8c5760405162461bcd60e51b8152600401610deb90616447565b600054610100900460ff16614fa65760405162461bcd60e51b8152600401610deb906163fc565b8151614fb9906065906020850190615659565b508051610e8c906066906020840190615659565b600054610100900460ff166139645760405162461bcd60e51b8152600401610deb906163fc565b600054610100900460ff1661501b5760405162461bcd60e51b8152600401610deb906163fc565b6097805460ff19169055565b600054610100900460ff1661504e5760405162461bcd60e51b8152600401610deb906163fc565b6116a133613ae3565b60006001600160a01b0384163b1561514a57604051630a85bd0160e11b81526001600160a01b0385169063150b7a029061509b90339089908890889060040161661e565b6020604051808303816000875af19250505080156150d6575060408051601f3d908101601f191682019092526150d39181019061665b565b60015b615130573d808015615104576040519150601f19603f3d011682016040523d82523d6000602084013e615109565b606091505b5080516151285760405162461bcd60e51b8152600401610deb90616447565b805181602001fd5b6001600160e01b031916630a85bd0160e11b149050611f07565b506001611f07565b61515e84848484615392565b60975460ff1615612cd05760405162461bcd60e51b815260206004820152602b60248201527f4552433732315061757361626c653a20746f6b656e207472616e73666572207760448201526a1a1a5b19481c185d5cd95960aa1b6064820152608401610deb565b6000808251604114156151fc5760208301516040840151606085015160001a6151f08782858561541a565b94509450505050615204565b506000905060025b9250929050565b600081600481111561521f5761521f616678565b14156152285750565b600181600481111561523c5761523c616678565b141561528a5760405162461bcd60e51b815260206004820152601860248201527f45434453413a20696e76616c6964207369676e617475726500000000000000006044820152606401610deb565b600281600481111561529e5761529e616678565b14156152ec5760405162461bcd60e51b815260206004820152601f60248201527f45434453413a20696e76616c6964207369676e6174757265206c656e677468006044820152606401610deb565b600381600481111561530057615300616678565b1415610f825760405162461bcd60e51b815260206004820152602260248201527f45434453413a20696e76616c6964207369676e6174757265202773272076616c604482015261756560f01b6064820152608401610deb565b61536382826154de565b60009081526101686020526040902080546001600160a01b0319166001600160a01b0392909216919091179055565b6001811115612cd0576001600160a01b038416156153d8576001600160a01b038416600090815260686020526040812080548392906153d29084906160ac565b90915550505b6001600160a01b03831615612cd0576001600160a01b0383166000908152606860205260408120805483929061540f908490615f54565b909155505050505050565b6000807f7fffffffffffffffffffffffffffffff5d576e7357a4501ddfe92f46681b20a083111561545157506000905060036154d5565b6040805160008082526020820180845289905260ff881692820192909252606081018690526080810185905260019060a0016020604051602081039080840390855afa1580156154a5573d6000803e3d6000fd5b5050604051601f1901519150506001600160a01b0381166154ce576000600192509250506154d5565b9150600090505b94509492505050565b6001600160a01b0382166155345760405162461bcd60e51b815260206004820181905260248201527f4552433732313a206d696e7420746f20746865207a65726f20616464726573736044820152606401610deb565b61553d81613a6a565b1561558a5760405162461bcd60e51b815260206004820152601c60248201527f4552433732313a20746f6b656e20616c7265616479206d696e746564000000006044820152606401610deb565b615598600083836001615152565b6155a181613a6a565b156155ee5760405162461bcd60e51b815260206004820152601c60248201527f4552433732313a20746f6b656e20616c7265616479206d696e746564000000006044820152606401610deb565b6001600160a01b038216600081815260686020908152604080832080546001019055848352606790915280822080546001600160a01b0319168417905551839291907fddf252ad1be2c89b69c2b068fc378daa952ba7f163c4a11628f55a4df523b3ef908290a45050565b82805461566590615c2c565b90600052602060002090601f01602090048101928261568757600085556156cd565b82601f106156a057805160ff19168380011785556156cd565b828001600101855582156156cd579182015b828111156156cd5782518255916020019190600101906156b2565b506156d99291506156dd565b5090565b5b808211156156d957600081556001016156de565b6001600160e01b031981168114610f8257600080fd5b60006020828403121561571a57600080fd5b8135614e16816156f2565b60008060006060848603121561573a57600080fd5b505081359360208301359350604090920135919050565b60005b8381101561576c578181015183820152602001615754565b83811115612cd05750506000910152565b60008151808452615795816020860160208601615751565b601f01601f19169290920160200192915050565b602081526000614e16602083018461577d565b6000602082840312156157ce57600080fd5b5035919050565b6001600160a01b0381168114610f8257600080fd5b8035613bdc816157d5565b6000806040838503121561580857600080fd5b8235615813816157d5565b946020939093013593505050565b634e487b7160e01b600052604160045260246000fd5b604051601f8201601f1916810167ffffffffffffffff8111828210171561586057615860615821565b604052919050565b600067ffffffffffffffff82111561588257615882615821565b50601f01601f191660200190565b60006158a361589e84615868565b615837565b90508281528383830111156158b757600080fd5b828260208301376000602084830101529392505050565b600082601f8301126158df57600080fd5b614e1683833560208501615890565b60006020828403121561590057600080fd5b813567ffffffffffffffff81111561591757600080fd5b611f07848285016158ce565b60006020828403121561593557600080fd5b8135614e16816157d5565b60008060006060848603121561595557600080fd5b8335615960816157d5565b92506020840135615970816157d5565b929592945050506040919091013590565b6000806040838503121561599457600080fd5b50508035926020909101359150565b6000806000606084860312156159b857600080fd5b833592506020840135915060408401356159d1816157d5565b809150509250925092565b600080600080606085870312156159f257600080fd5b84356159fd816157d5565b935060208501359250604085013567ffffffffffffffff80821115615a2157600080fd5b818701915087601f830112615a3557600080fd5b813581811115615a4457600080fd5b886020828501011115615a5657600080fd5b95989497505060200194505050565b600080600080600080600080610100898b031215615a8257600080fd5b883567ffffffffffffffff80821115615a9a57600080fd5b615aa68c838d016158ce565b995060208b0135915080821115615abc57600080fd5b50615ac98b828c016158ce565b9750506040890135615ada816157d5565b95506060890135615aea816157d5565b94506080890135615afa816157d5565b935060a0890135615b0a816157d5565b925060c0890135615b1a816157d5565b9150615b2860e08a016157ea565b90509295985092959890939650565b8015158114610f8257600080fd5b60008060408385031215615b5857600080fd5b8235615b63816157d5565b91506020830135615b7381615b37565b809150509250929050565b60008060008060808587031215615b9457600080fd5b8435615b9f816157d5565b93506020850135615baf816157d5565b925060408501359150606085013567ffffffffffffffff811115615bd257600080fd5b8501601f81018713615be357600080fd5b615bf287823560208401615890565b91505092959194509250565b60008060408385031215615c1157600080fd5b8235615c1c816157d5565b91506020830135615b73816157d5565b600181811c90821680615c4057607f821691505b60208210811415615c6157634e487b7160e01b600052602260045260246000fd5b50919050565b634e487b7160e01b600052601160045260246000fd5b6000816000190483118215151615615c9757615c97615c67565b500290565b600082615cb957634e487b7160e01b600052601260045260246000fd5b500490565b60008351615cd0818460208801615751565b696c657420736565643d2760b01b9083019081528351615cf781600a840160208801615751565b61273b60f01b600a9290910191820152600c01949350505050565b60008351615d24818460208801615751565b7f6c657420474d5f434f4e54524143545f414444524553533d27000000000000009083019081528351615d5e816019840160208801615751565b61273b60f01b60199290910191820152601b01949350505050565b600060208284031215615d8b57600080fd5b8151614e16816157d5565b60008351615da8818460208801615751565b80830190507f6c657420535741505f504f4f4c5f474d5f4554485f434f4e54524143545f414481526644524553533d2760c81b60208201528351615df3816027840160208801615751565b61273b60f01b60279290910191820152602901949350505050565b60008351615e20818460208801615751565b7f6c657420736f6c617269734e6674436f6e7472616374416464726573733d27009083019081528351615e5a81601f840160208801615751565b61273b60f01b601f9290910191820152602101949350505050565b60008351615e87818460208801615751565b6d6c657420544f4b454e5f49443d2760901b9083019081528351615eb281600e840160208801615751565b61273b60f01b600e9290910191820152601001949350505050565b60008251615edf818460208701615751565b681e17b9b1b934b83a1f60b91b920191825250600901919050565b600060208284031215615f0c57600080fd5b8151614e1681615b37565b6001600160a01b0383168152604060208201819052600090611f079083018461577d565b600060208284031215615f4d57600080fd5b5051919050565b60008219821115615f6757615f67615c67565b500190565b6001600160a01b0384168152606060208201819052600090615f909083018561577d565b9050826040830152949350505050565b6000615fae61589e84615868565b9050828152838383011115615fc257600080fd5b614e16836020830184615751565b60008060408385031215615fe357600080fd5b825167ffffffffffffffff811115615ffa57600080fd5b8301601f8101851361600b57600080fd5b61601a85825160208401615fa0565b925050602083015190509250929050565b6000835161603d818460208801615751565b835190830190616051818360208801615751565b01949350505050565b600060001982141561606e5761606e615c67565b5060010190565b60208082526018908201527f534f554c5f41554354494f4e5f45524332305f544f4b454e0000000000000000604082015260600190565b6000828210156160be576160be615c67565b500390565b8054825260018101546001600160a01b03166001600160a01b03811660208401525060028101546040830152600381015460608301526004810154608083015260058101546001600160a01b03811660a084015261612b60c0840160ff8360a01c1615159052565b50600681015460e0830152600781015461010083015260088101546101208301526009015461014090910152565b6001600160a01b03851681526020810184905282151560408201526101c0810161618660608301846160c3565b95945050505050565b8281526101808101614e1660208301846160c3565b6000602082840312156161b657600080fd5b815167ffffffffffffffff8111156161cd57600080fd5b8201601f810184136161de57600080fd5b611f0784825160208401615fa0565b600082516161ff818460208701615751565b9190910192915050565b7519185d184e9d195e1d0bda1d1b5b0ed8985cd94d8d0b60521b81526000825161623a816016850160208701615751565b9190910160160192915050565b7216101130b734b6b0ba34b7b72fbab936111d1160691b81528151600090616276816013850160208701615751565b601160f91b6013939091019283015250601401919050565b7f7b226e616d65223a22222c226465736372697074696f6e223a2022220000000081526c16101134b6b0b3b2911d10111160991b601c82015281516000906162dd816029850160208701615751565b7116101130ba3a3934b13aba32b9911d10111160711b6029939091019283015250607d60f81b603b820152603c01919050565b6000835160206163238285838901615751565b845491840191600090600181811c908083168061634157607f831692505b85831081141561635f57634e487b7160e01b85526022600452602485fd5b8080156163735760018114616384576163b1565b60ff198516885283880195506163b1565b60008b81526020902060005b858110156163a95781548a820152908401908801616390565b505083880195505b50939a9950505050505050505050565b634e487b7160e01b600052603260045260246000fd5b6001600160a01b0384168152602081018390526101a08101611f0760408301846160c3565b6020808252602b908201527f496e697469616c697a61626c653a20636f6e7472616374206973206e6f74206960408201526a6e697469616c697a696e6760a81b606082015260800190565b60208082526032908201527f4552433732313a207472616e7366657220746f206e6f6e20455243373231526560408201527131b2b4bb32b91034b6b83632b6b2b73a32b960711b606082015260800190565b600085516164ab818460208a01615751565b8551908301906164bf818360208a01615751565b85519101906164d2818360208901615751565b84519101906164e5818360208801615751565b019695505050505050565b85815260208082018690526001600160a01b038516604083015260608201849052825160808301528201516101e082019061653660a08401826001600160a01b03169052565b50604083015160c0830152606083015160e08301526080830151610100818185015260a08501519150610120616576818601846001600160a01b03169052565b60c0860151925061014061658d8187018515159052565b60e0870151610160870152918601516101808601528501516101a0850152909301516101c09092019190915295945050505050565b60208082526025908201527f4552433732313a207472616e736665722066726f6d20696e636f72726563742060408201526437bbb732b960d91b606082015260800190565b60008161661657616616615c67565b506000190190565b6001600160a01b03858116825284166020820152604081018390526080606082018190526000906166519083018461577d565b9695505050505050565b60006020828403121561666d57600080fd5b8151614e16816156f2565b634e487b7160e01b600052602160045260246000fdfe4142434445464748494a4b4c4d4e4f505152535455565758595a6162636465666768696a6b6c6d6e6f707172737475767778797a303132333435363738392b2f3c7363726970742073616e64626f783d27616c6c6f772d736372697074732720747970653d27746578742f6a617661736372697074273ea2646970667358221220977c4d0f669a976983601b863e81d44e6c41d853946812b0f0b5825796de442164736f6c634300080c0033",
  "linkReferences": {},
  "deployedLinkReferences": {}
}