{
  "_format": "hh-sol-artifact-1",
  "contractName": "SOUL",
  "sourceName": "contracts/nfts/SOUL.sol",
  "abi": [
    {
      "anonymous": false,
      "inputs": [
        {
          "indexed": true,
          "internalType": "address",
          "name": "owner",
          "type": "address"
        },
        {
          "indexed": true,
          "internalType": "address",
          "name": "approved",
          "type": "address"
        },
        {
          "indexed": true,
          "internalType": "uint256",
          "name": "tokenId",
          "type": "uint256"
        }
      ],
      "name": "Approval",
      "type": "event"
    },
    {
      "anonymous": false,
      "inputs": [
        {
          "indexed": true,
          "internalType": "address",
          "name": "owner",
          "type": "address"
        },
        {
          "indexed": true,
          "internalType": "address",
          "name": "operator",
          "type": "address"
        },
        {
          "indexed": false,
          "internalType": "bool",
          "name": "approved",
          "type": "bool"
        }
      ],
      "name": "ApprovalForAll",
      "type": "event"
    },
    {
      "anonymous": false,
      "inputs": [
        {
          "indexed": true,
          "internalType": "uint256",
          "name": "tokenId",
          "type": "uint256"
        },
        {
          "indexed": false,
          "internalType": "address",
          "name": "sender",
          "type": "address"
        },
        {
          "indexed": false,
          "internalType": "uint256",
          "name": "value",
          "type": "uint256"
        },
        {
          "indexed": false,
          "internalType": "bool",
          "name": "extended",
          "type": "bool"
        }
      ],
      "name": "AuctionBid",
      "type": "event"
    },
    {
      "anonymous": false,
      "inputs": [
        {
          "indexed": true,
          "internalType": "uint256",
          "name": "tokenId",
          "type": "uint256"
        },
        {
          "indexed": false,
          "internalType": "address",
          "name": "sender",
          "type": "address"
        },
        {
          "indexed": false,
          "internalType": "uint256",
          "name": "value",
          "type": "uint256"
        }
      ],
      "name": "AuctionClaimBid",
      "type": "event"
    },
    {
      "anonymous": false,
      "inputs": [
        {
          "indexed": true,
          "internalType": "uint256",
          "name": "tokenId",
          "type": "uint256"
        }
      ],
      "name": "AuctionClosed",
      "type": "event"
    },
    {
      "anonymous": false,
      "inputs": [
        {
          "indexed": true,
          "internalType": "uint256",
          "name": "tokenId",
          "type": "uint256"
        },
        {
          "indexed": false,
          "internalType": "uint256",
          "name": "startTime",
          "type": "uint256"
        },
        {
          "indexed": false,
          "internalType": "uint256",
          "name": "endTime",
          "type": "uint256"
        }
      ],
      "name": "AuctionCreated",
      "type": "event"
    },
    {
      "anonymous": false,
      "inputs": [
        {
          "indexed": true,
          "internalType": "uint256",
          "name": "tokenId",
          "type": "uint256"
        },
        {
          "indexed": false,
          "internalType": "uint256",
          "name": "endTime",
          "type": "uint256"
        }
      ],
      "name": "AuctionExtended",
      "type": "event"
    },
    {
      "anonymous": false,
      "inputs": [
        {
          "indexed": false,
          "internalType": "uint256",
          "name": "minBidIncrementPercentage",
          "type": "uint256"
        }
      ],
      "name": "AuctionMinBidIncrementPercentageUpdated",
      "type": "event"
    },
    {
      "anonymous": false,
      "inputs": [
        {
          "indexed": false,
          "internalType": "uint256",
          "name": "reservePrice",
          "type": "uint256"
        }
      ],
      "name": "AuctionReservePriceUpdated",
      "type": "event"
    },
    {
      "anonymous": false,
      "inputs": [
        {
          "indexed": true,
          "internalType": "uint256",
          "name": "tokenId",
          "type": "uint256"
        },
        {
          "indexed": false,
          "internalType": "address",
          "name": "winner",
          "type": "address"
        },
        {
          "indexed": false,
          "internalType": "uint256",
          "name": "amount",
          "type": "uint256"
        }
      ],
      "name": "AuctionSettled",
      "type": "event"
    },
    {
      "anonymous": false,
      "inputs": [
        {
          "indexed": false,
          "internalType": "uint256",
          "name": "timeBuffer",
          "type": "uint256"
        }
      ],
      "name": "AuctionTimeBufferUpdated",
      "type": "event"
    },
    {
      "anonymous": false,
      "inputs": [
        {
          "indexed": true,
          "internalType": "address",
          "name": "reserver",
          "type": "address"
        },
        {
          "indexed": true,
          "internalType": "uint256",
          "name": "tokenId",
          "type": "uint256"
        },
        {
          "indexed": true,
          "internalType": "address",
          "name": "owner",
          "type": "address"
        },
        {
          "indexed": false,
          "internalType": "uint256",
          "name": "blockNumber",
          "type": "uint256"
        }
      ],
      "name": "Claim",
      "type": "event"
    },
    {
      "anonymous": false,
      "inputs": [
        {
          "indexed": false,
          "internalType": "uint8",
          "name": "version",
          "type": "uint8"
        }
      ],
      "name": "Initialized",
      "type": "event"
    },
    {
      "anonymous": false,
      "inputs": [
        {
          "indexed": true,
          "internalType": "address",
          "name": "previousOwner",
          "type": "address"
        },
        {
          "indexed": true,
          "internalType": "address",
          "name": "newOwner",
          "type": "address"
        }
      ],
      "name": "OwnershipTransferred",
      "type": "event"
    },
    {
      "anonymous": false,
      "inputs": [
        {
          "indexed": false,
          "internalType": "address",
          "name": "account",
          "type": "address"
        }
      ],
      "name": "Paused",
      "type": "event"
    },
    {
      "anonymous": false,
      "inputs": [
        {
          "indexed": true,
          "internalType": "address",
          "name": "reserver",
          "type": "address"
        },
        {
          "indexed": true,
          "internalType": "uint256",
          "name": "tokenId",
          "type": "uint256"
        },
        {
          "indexed": true,
          "internalType": "address",
          "name": "owner",
          "type": "address"
        },
        {
          "indexed": false,
          "internalType": "uint256",
          "name": "blockNumber",
          "type": "uint256"
        }
      ],
      "name": "Reserve",
      "type": "event"
    },
    {
      "anonymous": false,
      "inputs": [
        {
          "indexed": true,
          "internalType": "address",
          "name": "from",
          "type": "address"
        },
        {
          "indexed": true,
          "internalType": "address",
          "name": "to",
          "type": "address"
        },
        {
          "indexed": true,
          "internalType": "uint256",
          "name": "tokenId",
          "type": "uint256"
        }
      ],
      "name": "Transfer",
      "type": "event"
    },
    {
      "anonymous": false,
      "inputs": [
        {
          "indexed": false,
          "internalType": "address",
          "name": "account",
          "type": "address"
        }
      ],
      "name": "Unpaused",
      "type": "event"
    },
    {
      "inputs": [],
      "name": "_admin",
      "outputs": [
        {
          "internalType": "address",
          "name": "",
          "type": "address"
        }
      ],
      "stateMutability": "view",
      "type": "function"
    },
    {
      "inputs": [
        {
          "internalType": "uint256",
          "name": "",
          "type": "uint256"
        }
      ],
      "name": "_auctions",
      "outputs": [
        {
          "internalType": "uint256",
          "name": "tokenId",
          "type": "uint256"
        },
        {
          "internalType": "address",
          "name": "erc20Token",
          "type": "address"
        },
        {
          "internalType": "uint256",
          "name": "amount",
          "type": "uint256"
        },
        {
          "internalType": "uint256",
          "name": "startTime",
          "type": "uint256"
        },
        {
          "internalType": "uint256",
          "name": "endTime",
          "type": "uint256"
        },
        {
          "internalType": "address payable",
          "name": "bidder",
          "type": "address"
        },
        {
          "internalType": "bool",
          "name": "settled",
          "type": "bool"
        },
        {
          "internalType": "uint256",
          "name": "timeBuffer",
          "type": "uint256"
        },
        {
          "internalType": "uint256",
          "name": "reservePrice",
          "type": "uint256"
        },
        {
          "internalType": "uint256",
          "name": "minBidIncrementPercentage",
          "type": "uint256"
        }
      ],
      "stateMutability": "view",
      "type": "function"
    },
    {
      "inputs": [],
      "name": "_bfs",
      "outputs": [
        {
          "internalType": "address",
          "name": "",
          "type": "address"
        }
      ],
      "stateMutability": "view",
      "type": "function"
    },
    {
      "inputs": [
        {
          "internalType": "uint256",
          "name": "",
          "type": "uint256"
        },
        {
          "internalType": "address",
          "name": "",
          "type": "address"
        }
      ],
      "name": "_bidders",
      "outputs": [
        {
          "internalType": "uint256",
          "name": "",
          "type": "uint256"
        }
      ],
      "stateMutability": "view",
      "type": "function"
    },
    {
      "inputs": [],
      "name": "_gmToken",
      "outputs": [
        {
          "internalType": "address",
          "name": "",
          "type": "address"
        }
      ],
      "stateMutability": "view",
      "type": "function"
    },
    {
      "inputs": [],
      "name": "_maxSupply",
      "outputs": [
        {
          "internalType": "uint256",
          "name": "",
          "type": "uint256"
        }
      ],
      "stateMutability": "view",
      "type": "function"
    },
    {
      "inputs": [
        {
          "internalType": "uint256",
          "name": "",
          "type": "uint256"
        }
      ],
      "name": "_mintAt",
      "outputs": [
        {
          "internalType": "uint256",
          "name": "",
          "type": "uint256"
        }
      ],
      "stateMutability": "view",
      "type": "function"
    },
    {
      "inputs": [],
      "name": "_paramsAddress",
      "outputs": [
        {
          "internalType": "address",
          "name": "",
          "type": "address"
        }
      ],
      "stateMutability": "view",
      "type": "function"
    },
    {
      "inputs": [],
      "name": "_randomizerAddr",
      "outputs": [
        {
          "internalType": "address",
          "name": "",
          "type": "address"
        }
      ],
      "stateMutability": "view",
      "type": "function"
    },
    {
      "inputs": [],
      "name": "_script",
      "outputs": [
        {
          "internalType": "string",
          "name": "",
          "type": "string"
        }
      ],
      "stateMutability": "view",
      "type": "function"
    },
    {
      "inputs": [],
      "name": "_signerMint",
      "outputs": [
        {
          "internalType": "address",
          "name": "",
          "type": "address"
        }
      ],
      "stateMutability": "view",
      "type": "function"
    },
    {
      "inputs": [
        {
          "internalType": "address",
          "name": "to",
          "type": "address"
        },
        {
          "internalType": "uint256",
          "name": "tokenId",
          "type": "uint256"
        }
      ],
      "name": "approve",
      "outputs": [],
      "stateMutability": "nonpayable",
      "type": "function"
    },
    {
      "inputs": [
        {
          "internalType": "address",
          "name": "owner",
          "type": "address"
        }
      ],
      "name": "balanceOf",
      "outputs": [
        {
          "internalType": "uint256",
          "name": "",
          "type": "uint256"
        }
      ],
      "stateMutability": "view",
      "type": "function"
    },
    {
      "inputs": [
        {
          "internalType": "address",
          "name": "to",
          "type": "address"
        },
        {
          "internalType": "uint256",
          "name": "n",
          "type": "uint256"
        },
        {
          "internalType": "bytes",
          "name": "signatures",
          "type": "bytes"
        }
      ],
      "name": "batchMint",
      "outputs": [
        {
          "internalType": "uint256[]",
          "name": "",
          "type": "uint256[]"
        }
      ],
      "stateMutability": "payable",
      "type": "function"
    },
    {
      "inputs": [
        {
          "internalType": "address",
          "name": "newAdm",
          "type": "address"
        }
      ],
      "name": "changeAdmin",
      "outputs": [],
      "stateMutability": "nonpayable",
      "type": "function"
    },
    {
      "inputs": [
        {
          "internalType": "address",
          "name": "newBfs",
          "type": "address"
        }
      ],
      "name": "changeBfs",
      "outputs": [],
      "stateMutability": "nonpayable",
      "type": "function"
    },
    {
      "inputs": [
        {
          "internalType": "address",
          "name": "newBrc20",
          "type": "address"
        }
      ],
      "name": "changeBrc20Token",
      "outputs": [],
      "stateMutability": "nonpayable",
      "type": "function"
    },
    {
      "inputs": [
        {
          "internalType": "address",
          "name": "newAddr",
          "type": "address"
        }
      ],
      "name": "changeParamAddr",
      "outputs": [],
      "stateMutability": "nonpayable",
      "type": "function"
    },
    {
      "inputs": [
        {
          "internalType": "address",
          "name": "newAddr",
          "type": "address"
        }
      ],
      "name": "changeRandomizerAddr",
      "outputs": [],
      "stateMutability": "nonpayable",
      "type": "function"
    },
    {
      "inputs": [
        {
          "internalType": "string",
          "name": "newScript",
          "type": "string"
        }
      ],
      "name": "changeScript",
      "outputs": [],
      "stateMutability": "nonpayable",
      "type": "function"
    },
    {
      "inputs": [
        {
          "internalType": "address",
          "name": "newAdd",
          "type": "address"
        }
      ],
      "name": "changeSignerMint",
      "outputs": [],
      "stateMutability": "nonpayable",
      "type": "function"
    },
    {
      "inputs": [
        {
          "internalType": "uint256",
          "name": "tokenId",
          "type": "uint256"
        }
      ],
      "name": "claimBid",
      "outputs": [],
      "stateMutability": "nonpayable",
      "type": "function"
    },
    {
      "inputs": [
        {
          "internalType": "uint256",
          "name": "tokenId",
          "type": "uint256"
        }
      ],
      "name": "claimable",
      "outputs": [
        {
          "internalType": "bool",
          "name": "",
          "type": "bool"
        }
      ],
      "stateMutability": "view",
      "type": "function"
    },
    {
      "inputs": [
        {
          "internalType": "uint256",
          "name": "tokenId",
          "type": "uint256"
        }
      ],
      "name": "createAuction",
      "outputs": [],
      "stateMutability": "nonpayable",
      "type": "function"
    },
    {
      "inputs": [
        {
          "internalType": "uint256",
          "name": "tokenId",
          "type": "uint256"
        },
        {
          "internalType": "uint256",
          "name": "amount",
          "type": "uint256"
        }
      ],
      "name": "createBid",
      "outputs": [],
      "stateMutability": "payable",
      "type": "function"
    },
    {
      "inputs": [
        {
          "internalType": "uint256",
          "name": "tokenId",
          "type": "uint256"
        }
      ],
      "name": "getApproved",
      "outputs": [
        {
          "internalType": "address",
          "name": "",
          "type": "address"
        }
      ],
      "stateMutability": "view",
      "type": "function"
    },
    {
      "inputs": [
        {
          "internalType": "address",
          "name": "user",
          "type": "address"
        },
        {
          "internalType": "uint256",
          "name": "totalGM",
          "type": "uint256"
        }
      ],
      "name": "getMessageHash",
      "outputs": [
        {
          "internalType": "bytes32",
          "name": "",
          "type": "bytes32"
        }
      ],
      "stateMutability": "view",
      "type": "function"
    },
    {
      "inputs": [
        {
          "internalType": "string",
          "name": "name",
          "type": "string"
        },
        {
          "internalType": "string",
          "name": "symbol",
          "type": "string"
        },
        {
          "internalType": "address",
          "name": "admin",
          "type": "address"
        },
        {
          "internalType": "address",
          "name": "paramsAddress",
          "type": "address"
        },
        {
          "internalType": "address",
          "name": "randomizerAddr",
          "type": "address"
        },
        {
          "internalType": "address",
          "name": "gmToken",
          "type": "address"
        },
        {
          "internalType": "address",
          "name": "bfs",
          "type": "address"
        },
        {
          "internalType": "address",
          "name": "signerMint",
          "type": "address"
        }
      ],
      "name": "initialize",
      "outputs": [],
      "stateMutability": "nonpayable",
      "type": "function"
    },
    {
      "inputs": [
        {
          "internalType": "address",
          "name": "owner",
          "type": "address"
        },
        {
          "internalType": "address",
          "name": "operator",
          "type": "address"
        }
      ],
      "name": "isApprovedForAll",
      "outputs": [
        {
          "internalType": "bool",
          "name": "",
          "type": "bool"
        }
      ],
      "stateMutability": "view",
      "type": "function"
    },
    {
      "inputs": [
        {
          "internalType": "address",
          "name": "to",
          "type": "address"
        },
        {
          "internalType": "uint256",
          "name": "totalGM",
          "type": "uint256"
        },
        {
          "internalType": "bytes",
          "name": "signature",
          "type": "bytes"
        }
      ],
      "name": "mint",
      "outputs": [
        {
          "internalType": "uint256",
          "name": "tokenId",
          "type": "uint256"
        }
      ],
      "stateMutability": "payable",
      "type": "function"
    },
    {
      "inputs": [],
      "name": "name",
      "outputs": [
        {
          "internalType": "string",
          "name": "",
          "type": "string"
        }
      ],
      "stateMutability": "view",
      "type": "function"
    },
    {
      "inputs": [],
      "name": "owner",
      "outputs": [
        {
          "internalType": "address",
          "name": "",
          "type": "address"
        }
      ],
      "stateMutability": "view",
      "type": "function"
    },
    {
      "inputs": [
        {
          "internalType": "uint256",
          "name": "tokenId",
          "type": "uint256"
        }
      ],
      "name": "ownerOf",
      "outputs": [
        {
          "internalType": "address",
          "name": "",
          "type": "address"
        }
      ],
      "stateMutability": "view",
      "type": "function"
    },
    {
      "inputs": [],
      "name": "p5jsScript",
      "outputs": [
        {
          "internalType": "string",
          "name": "result",
          "type": "string"
        }
      ],
      "stateMutability": "view",
      "type": "function"
    },
    {
      "inputs": [],
      "name": "paused",
      "outputs": [
        {
          "internalType": "bool",
          "name": "",
          "type": "bool"
        }
      ],
      "stateMutability": "view",
      "type": "function"
    },
    {
      "inputs": [],
      "name": "renounceOwnership",
      "outputs": [],
      "stateMutability": "nonpayable",
      "type": "function"
    },
    {
      "inputs": [
        {
          "internalType": "uint256",
          "name": "projectId",
          "type": "uint256"
        },
        {
          "internalType": "uint256",
          "name": "_salePrice",
          "type": "uint256"
        }
      ],
      "name": "royaltyInfo",
      "outputs": [
        {
          "internalType": "address",
          "name": "receiver",
          "type": "address"
        },
        {
          "internalType": "uint256",
          "name": "royaltyAmount",
          "type": "uint256"
        }
      ],
      "stateMutability": "view",
      "type": "function"
    },
    {
      "inputs": [
        {
          "internalType": "address",
          "name": "from",
          "type": "address"
        },
        {
          "internalType": "address",
          "name": "to",
          "type": "address"
        },
        {
          "internalType": "uint256",
          "name": "tokenId",
          "type": "uint256"
        }
      ],
      "name": "safeTransferFrom",
      "outputs": [],
      "stateMutability": "nonpayable",
      "type": "function"
    },
    {
      "inputs": [
        {
          "internalType": "address",
          "name": "from",
          "type": "address"
        },
        {
          "internalType": "address",
          "name": "to",
          "type": "address"
        },
        {
          "internalType": "uint256",
          "name": "tokenId",
          "type": "uint256"
        },
        {
          "internalType": "bytes",
          "name": "data",
          "type": "bytes"
        }
      ],
      "name": "safeTransferFrom",
      "outputs": [],
      "stateMutability": "nonpayable",
      "type": "function"
    },
    {
      "inputs": [
        {
          "internalType": "address",
          "name": "operator",
          "type": "address"
        },
        {
          "internalType": "bool",
          "name": "approved",
          "type": "bool"
        }
      ],
      "name": "setApprovalForAll",
      "outputs": [],
      "stateMutability": "nonpayable",
      "type": "function"
    },
    {
      "inputs": [
        {
          "internalType": "uint256",
          "name": "tokenId",
          "type": "uint256"
        }
      ],
      "name": "settleAuction",
      "outputs": [],
      "stateMutability": "nonpayable",
      "type": "function"
    },
    {
      "inputs": [
        {
          "internalType": "bytes4",
          "name": "interfaceId",
          "type": "bytes4"
        }
      ],
      "name": "supportsInterface",
      "outputs": [
        {
          "internalType": "bool",
          "name": "",
          "type": "bool"
        }
      ],
      "stateMutability": "view",
      "type": "function"
    },
    {
      "inputs": [],
      "name": "symbol",
      "outputs": [
        {
          "internalType": "string",
          "name": "",
          "type": "string"
        }
      ],
      "stateMutability": "view",
      "type": "function"
    },
    {
      "inputs": [
        {
          "internalType": "bytes32",
          "name": "seed",
          "type": "bytes32"
        },
        {
          "internalType": "uint256",
          "name": "tokenId",
          "type": "uint256"
        }
      ],
      "name": "tokenHTML",
      "outputs": [
        {
          "internalType": "string",
          "name": "result",
          "type": "string"
        }
      ],
      "stateMutability": "view",
      "type": "function"
    },
    {
      "inputs": [
        {
          "internalType": "uint256",
          "name": "tokenId",
          "type": "uint256"
        }
      ],
      "name": "tokenIdToHash",
      "outputs": [
        {
          "internalType": "bytes32",
          "name": "",
          "type": "bytes32"
        }
      ],
      "stateMutability": "view",
      "type": "function"
    },
    {
      "inputs": [
        {
          "internalType": "uint256",
          "name": "tokenId",
          "type": "uint256"
        }
      ],
      "name": "tokenURI",
      "outputs": [
        {
          "internalType": "string",
          "name": "result",
          "type": "string"
        }
      ],
      "stateMutability": "view",
      "type": "function"
    },
    {
      "inputs": [
        {
          "internalType": "address",
          "name": "from",
          "type": "address"
        },
        {
          "internalType": "address",
          "name": "to",
          "type": "address"
        },
        {
          "internalType": "uint256",
          "name": "tokenId",
          "type": "uint256"
        }
      ],
      "name": "transferFrom",
      "outputs": [],
      "stateMutability": "nonpayable",
      "type": "function"
    },
    {
      "inputs": [
        {
          "internalType": "address",
          "name": "newOwner",
          "type": "address"
        }
      ],
      "name": "transferOwnership",
      "outputs": [],
      "stateMutability": "nonpayable",
      "type": "function"
    },
    {
      "inputs": [
        {
          "internalType": "bytes32",
          "name": "seed",
          "type": "bytes32"
        },
        {
          "internalType": "uint256",
          "name": "tokenId",
          "type": "uint256"
        }
      ],
      "name": "variableScript",
      "outputs": [
        {
          "internalType": "string",
          "name": "result",
          "type": "string"
        }
      ],
      "stateMutability": "view",
      "type": "function"
    },
    {
      "inputs": [],
      "name": "web3Script",
      "outputs": [
        {
          "internalType": "string",
          "name": "result",
          "type": "string"
        }
      ],
      "stateMutability": "view",
      "type": "function"
    }
  ],
  "bytecode": "0x608060405234801561001057600080fd5b50615df580620000216000396000f3fe6080604052600436106102c95760003560e01c8063715018a611610175578063adfc7dae116100dc578063d1d58b2511610095578063eb29c2321161006f578063eb29c232146109ad578063f2fde38b146109cd578063f3f83ddd146109ed578063febfd6c314610a0d57600080fd5b8063d1d58b2514610924578063d5563f3114610944578063e985e9c51461096457600080fd5b8063adfc7dae14610861578063b7751c7114610882578063b88d4fde14610895578063bd896843146108b5578063c87b56dd146108d6578063cc22e004146108f657600080fd5b806394d008ef1161012e57806394d008ef146107c357806394f5a66e146107d657806395d89b41146107f65780639c6f35f91461080b578063a0d41e111461082c578063a22cb4651461084157600080fd5b8063715018a61461072557806374973a411461073a5780638a0162491461074f5780638da5cb5b146107645780638f2839701461078357806393c6cdc0146107a357600080fd5b80632b7d13de11610234578063512c91df116101ed578063624de2a9116101c7578063624de2a91461068d5780636352211e146106ad57806366215eb4146106e457806370a082311461070557600080fd5b8063512c91df146106355780635c975abb14610655578063621a1f741461066d57600080fd5b80632b7d13de1461055b5780632d61bd091461057b5780632e993611146105b457806332e32326146105d457806333348979146105f457806342842e0e1461061557600080fd5b806317dc6bf61161028657806317dc6bf6146103c05780631ca9741b1461049757806321113057146104b757806322f4596f146104d757806323b872dd146104fc5780632a55205a1461051c57600080fd5b806301bc45c9146102ce57806301ffc9a71461030c57806306fdde031461033c578063081812fc1461035e578063095ea7b31461037e578063140f0e07146103a0575b600080fd5b3480156102da57600080fd5b5061015f546102ef906001600160a01b031681565b6040516001600160a01b0390911681526020015b60405180910390f35b34801561031857600080fd5b5061032c610327366004614f46565b610a2d565b6040519015158152602001610303565b34801561034857600080fd5b50610351610a7f565b6040516103039190614fbb565b34801561036a57600080fd5b506102ef610379366004614fce565b610b11565b34801561038a57600080fd5b5061039e610399366004615007565b610b38565b005b3480156103ac57600080fd5b5061039e6103bb366004615100565b610c53565b3480156103cc57600080fd5b5061043b6103db366004614fce565b6101696020526000908152604090208054600182015460028301546003840154600485015460058601546006870154600788015460089098015496976001600160a01b0396871697959694959394831693600160a01b90930460ff16928a565b604080519a8b526001600160a01b03998a1660208c01528a019790975260608901959095526080880193909352941660a086015292151560c085015260e084019290925261010083019190915261012082015261014001610303565b3480156104a357600080fd5b5061039e6104b2366004615135565b610cb3565b3480156104c357600080fd5b5061039e6104d2366004614fce565b610d47565b3480156104e357600080fd5b506104ee6101655481565b604051908152602001610303565b34801561050857600080fd5b5061039e610517366004615152565b610ebd565b34801561052857600080fd5b5061053c610537366004615193565b610fa8565b604080516001600160a01b039093168352602083019190915201610303565b34801561056757600080fd5b5061039e610576366004615135565b610fd9565b34801561058757600080fd5b506104ee6105963660046151b5565b61016a60209081526000928352604080842090915290825290205481565b3480156105c057600080fd5b5061039e6105cf366004614fce565b61106e565b3480156105e057600080fd5b506103516105ef366004615193565b611142565b34801561060057600080fd5b50610168546102ef906001600160a01b031681565b34801561062157600080fd5b5061039e610630366004615152565b61132b565b34801561064157600080fd5b506104ee610650366004615007565b611346565b34801561066157600080fd5b5060975460ff1661032c565b34801561067957600080fd5b506104ee610688366004614fce565b6113a4565b6106a061069b3660046151e5565b611472565b604051610303919061526e565b3480156106b957600080fd5b506102ef6106c8366004614fce565b600090815261016660205260409020546001600160a01b031690565b3480156106f057600080fd5b50610161546102ef906001600160a01b031681565b34801561071157600080fd5b506104ee610720366004615135565b61153f565b34801561073157600080fd5b5061039e6115c5565b34801561074657600080fd5b506103516115d9565b34801561075b57600080fd5b50610351611833565b34801561077057600080fd5b5061012d546001600160a01b03166102ef565b34801561078f57600080fd5b5061039e61079e366004615135565b6118c2565b3480156107af57600080fd5b5061039e6107be366004615135565b611957565b6104ee6107d13660046151e5565b6119ec565b3480156107e257600080fd5b5061039e6107f13660046152b2565b611c28565b34801561080257600080fd5b50610351611e4e565b34801561081757600080fd5b50610164546102ef906001600160a01b031681565b34801561083857600080fd5b50610351611e5d565b34801561084d57600080fd5b5061039e61085c366004615392565b61208e565b34801561086d57600080fd5b50610160546102ef906001600160a01b031681565b61039e610890366004615193565b612099565b3480156108a157600080fd5b5061039e6108b03660046153c0565b6126a6565b3480156108c157600080fd5b5061016b546102ef906001600160a01b031681565b3480156108e257600080fd5b506103516108f1366004614fce565b612798565b34801561090257600080fd5b506104ee610911366004614fce565b6101676020526000908152604090205481565b34801561093057600080fd5b5061032c61093f366004614fce565b612a31565b34801561095057600080fd5b5061039e61095f366004614fce565b612a9b565b34801561097057600080fd5b5061032c61097f366004615440565b6001600160a01b039182166000908152606a6020908152604080832093909416825291909152205460ff1690565b3480156109b957600080fd5b506103516109c8366004615193565b612b81565b3480156109d957600080fd5b5061039e6109e8366004615135565b612c53565b3480156109f957600080fd5b5061039e610a08366004615135565b612cc9565b348015610a1957600080fd5b5061039e610a28366004615135565b612d5e565b60006001600160e01b031982166380ac58cd60e01b1480610a5e57506001600160e01b03198216635b5e139f60e01b145b80610a7957506301ffc9a760e01b6001600160e01b03198316145b92915050565b606060658054610a8e9061546e565b80601f0160208091040260200160405190810160405280929190818152602001828054610aba9061546e565b8015610b075780601f10610adc57610100808354040283529160200191610b07565b820191906000526020600020905b815481529060010190602001808311610aea57829003601f168201915b5050505050905090565b6000610b1c82612df3565b506000908152606960205260409020546001600160a01b031690565b6000610b4382612e43565b9050806001600160a01b0316836001600160a01b03161415610bb65760405162461bcd60e51b815260206004820152602160248201527f4552433732313a20617070726f76616c20746f2063757272656e74206f776e656044820152603960f91b60648201526084015b60405180910390fd5b336001600160a01b0382161480610bd25750610bd2813361097f565b610c445760405162461bcd60e51b815260206004820152603d60248201527f4552433732313a20617070726f76652063616c6c6572206973206e6f7420746f60448201527f6b656e206f776e6572206f7220617070726f76656420666f7220616c6c0000006064820152608401610bad565b610c4e8383612ea3565b505050565b61015f5460408051808201909152600381526231303160e81b6020820152906001600160a01b03163314610c9a5760405162461bcd60e51b8152600401610bad9190614fbb565b508051610caf90610163906020840190614e97565b5050565b61015f546001600160a01b031633148015610cd657506001600160a01b03811615155b6040518060400160405280600381526020016231303160e81b81525090610d105760405162461bcd60e51b8152600401610bad9190614fbb565b50610161546001600160a01b03828116911614610d445761016180546001600160a01b0319166001600160a01b0383161790555b50565b610d4f612f11565b60008181526101696020526040902060050154600160a01b900460ff16610d7557600080fd5b600081815261016960205260409020600501546001600160a01b0316331415610d9d57600080fd5b600081815261016a60209081526040808320338452909152902054610dc157600080fd5b6000818152610169602090815260408083206001015461016a83528184203380865293529281902054905163a9059cbb60e01b8152600481019290925260248201526001600160a01b039091169063a9059cbb906044016020604051808303816000875af1158015610e37573d6000803e3d6000fd5b505050506040513d601f19601f82011682018060405250810190610e5b91906154a9565b50600081815261016a6020908152604080832033808552908352928190205481519384529183019190915282917f63ad079d900b92497dd34dccc37cb42c76aff5798f6084bd35af77d8cb5473fe910160405180910390a2610d44600160fb55565b336001600160a01b0384161415610f125761015f546001600160a01b03163314610f0d5760405162461bcd60e51b81526020600482015260016024820152601560fa1b6044820152606401610bad565b610f9d565b333b63ffffffff1615610f4d5760405162461bcd60e51b8152602060048201526003602482015262545f3160e81b6044820152606401610bad565b60008181526101696020526040902060050154600160a01b900460ff16610f7357600080fd5b600081815261016960205260409020600501546001600160a01b03838116911614610f9d57600080fd5b610c4e838383612f72565b61015f546001600160a01b03166000612710610fc6846101f46154dc565b610fd091906154fb565b90509250929050565b61015f546001600160a01b031633148015610ffc57506001600160a01b03811615155b6040518060400160405280600381526020016231303160e81b815250906110365760405162461bcd60e51b8152600401610bad9190614fbb565b50610168546001600160a01b03828116911614610d445761016880546001600160a01b0383166001600160a01b031990911617905550565b611076612f11565b600081815261016660205260409020546001600160a01b03163314156110fb5760006110a133612fad565b905060006110ad61301d565b9050808210156110f85760405162461bcd60e51b815260206004820152601660248201527518985b185b98d94811d3480f081d1a1c995cda1bdb1960521b6044820152606401610bad565b50505b6111388161111f83600090815261016660205260409020546001600160a01b031690565b6001600160a01b0316336001600160a01b0316146130c3565b610d44600160fb55565b6040805180820190915260128152711e39b1b934b83a1034b21e93bb30b939939f60711b602082015280611175846135e1565b60405160200161118692919061551d565b60408051601f198184030181529190526101645490915081906111b1906001600160a01b031661362d565b6040516020016111c2929190615571565b60408051808303601f19018152908290526101605463bf40fac160e01b835260206004840152602160248401527f535741505f504f4f4c5f474d5f4554485f434f4e54524143545f4144445245536044840152605360f81b60648401529092506001600160a01b031690600090829063bf40fac190608401602060405180830381865afa158015611257573d6000803e3d6000fd5b505050506040513d601f19601f8201168201806040525081019061127b91906155d8565b9050826112878261362d565b6040516020016112989291906155f5565b6040516020818303038152906040529250826112b33061362d565b6040516020016112c492919061566d565b6040516020818303038152906040529250826112df85613643565b6040516020016112f09291906156d4565b604051602081830303815290604052925082604051602001611312919061572c565b6040516020818303038152906040529250505092915050565b610c4e838383604051806020016040528060008152506126a6565b61016b5461016454604080513060208083019190915246828401526001600160a01b03948516606083015295841660808201529290911660a083015260c0808301939093528051808303909301835260e09091019052805191012090565b60006113af826136e0565b6040518060400160405280600381526020016232303960e81b815250906113e95760405162461bcd60e51b8152600401610bad9190614fbb565b5060008281526101666020526040902054600160a01b900460a01b6001600160a01b03191661141a57506000919050565b6000828152610166602090815260409182902054915161145592600160a01b900460a01b91016001600160a01b031991909116815260200190565b604051602081830303815290604052805190602001209050919050565b606060008467ffffffffffffffff81111561148f5761148f615033565b6040519080825280602002602001820160405280156114b8578160200160208202803683370190505b5061015f549091506001600160a01b031633146114d457600080fd5b60005b858110156115335760006114ee88600088886119ec565b90508083838151811061150357611503615759565b60200260200101818152505062030d405a10156115205750611533565b508061152b8161576f565b9150506114d7565b5090505b949350505050565b60006001600160a01b0382166115a95760405162461bcd60e51b815260206004820152602960248201527f4552433732313a2061646472657373207a65726f206973206e6f7420612076616044820152683634b21037bbb732b960b91b6064820152608401610bad565b506001600160a01b031660009081526068602052604090205490565b6115cd6136fe565b6115d76000613759565b565b6060604051806060016040528060378152602001615d896037913961016854604080518082018252600d81526c70356a7340312e352e302e6a7360981b602082015261016054915163bf40fac160e01b81529394506001600160a01b039283169390929190911690600090829063bf40fac19061167c906004016020808252600f908201526e29a1a924a82a2fa82927ab24a222a960891b604082015260600190565b602060405180830381865afa158015611699573d6000803e3d6000fd5b505050506040513d601f19601f820116820180604052508101906116bd91906155d8565b90506000846001600160a01b031663ba67e64183866040518363ffffffff1660e01b81526004016116ef92919061578a565b602060405180830381865afa15801561170c573d6000803e3d6000fd5b505050506040513d601f19601f8201168201806040525081019061173091906157ae565b905061173d6001826157c7565b905060005b818110156118085761015f5460405163283959d960e21b815260009182916001600160a01b038a81169263a0e567649261178692909116908b9088906004016157df565b600060405180830381865afa1580156117a3573d6000803e3d6000fd5b505050506040513d6000823e601f3d908101601f191682016040526117cb9190810190615843565b9150915088826040516020016117e292919061589e565b6040516020818303038152906040529850505080806118009061576f565b915050611742565b508560405160200161181a919061572c565b6040516020818303038152906040529550505050505090565b61016380546118419061546e565b80601f016020809104026020016040519081016040528092919081815260200182805461186d9061546e565b80156118ba5780601f1061188f576101008083540402835291602001916118ba565b820191906000526020600020905b81548152906001019060200180831161189d57829003601f168201915b505050505081565b61015f546001600160a01b0316331480156118e557506001600160a01b03811615155b6040518060400160405280600381526020016231303160e81b8152509061191f5760405162461bcd60e51b8152600401610bad9190614fbb565b5061015f546001600160a01b03828116911614610d445761015f80546001600160a01b0383166001600160a01b031990911617905550565b61015f546001600160a01b03163314801561197a57506001600160a01b03811615155b6040518060400160405280600381526020016231303160e81b815250906119b45760405162461bcd60e51b8152600401610bad9190614fbb565b50610164546001600160a01b03828116911614610d445761016480546001600160a01b0383166001600160a01b031990911617905550565b60006119f6612f11565b6101655461016254106040518060400160405280600381526020016232303360e81b81525090611a395760405162461bcd60e51b8152600401610bad9190614fbb565b5061015f546001600160a01b03163314611b1157336001600160a01b03861614611a8d5760405162461bcd60e51b815260206004820152600560248201526447505f495560d81b6044820152606401610bad565b611a968561153f565b15611ac95760405162461bcd60e51b8152602060048201526003602482015262312d3160e81b6044820152606401610bad565b611b0a858585858080601f0160208091040260200160405190810160405280939291908181526020018383808284376000920191909152506137ac92505050565b5050611b63565b61015f546001600160a01b03868116911614611b6357611b308561153f565b15611b635760405162461bcd60e51b8152602060048201526003602482015262312d3160e81b6044820152606401610bad565b6101628054906000611b748361576f565b9190505550610162549050611b898582613825565b61016154604051631da00d8560e01b8152600481018390526001600160a01b03909116906000908290631da00d85906024016020604051808303816000875af1158015611bda573d6000803e3d6000fd5b505050506040513d601f19601f82011682018060405250810190611bfe91906157ae565b9050611c0a838261383f565b5050600081815261016760205260409020439055611537600160fb55565b600054610100900460ff1615808015611c485750600054600160ff909116105b80611c625750303b158015611c62575060005460ff166001145b611cc55760405162461bcd60e51b815260206004820152602e60248201527f496e697469616c697a61626c653a20636f6e747261637420697320616c72656160448201526d191e481a5b9a5d1a585b1a5e995960921b6064820152608401610bad565b6000805460ff191660011790558015611ce8576000805461ff0019166101001790555b60408051808201909152600381526203130360ec1b60208201526001600160a01b038816611d295760405162461bcd60e51b8152600401610bad9190614fbb565b5060408051808201909152600381526203130360ec1b60208201526001600160a01b038716611d6b5760405162461bcd60e51b8152600401610bad9190614fbb565b5061016080546001600160a01b03199081166001600160a01b038981169190911790925561015f805482168a841617905561016180548216888416179055610164805482168784161790556103e8610165556101688054821686841617905561016b8054909116918416919091179055611de5898961390a565b611ded61393b565b611df561396a565b611dfd613999565b8015611e43576000805461ff0019169055604051600181527f7f26b83ff96e1f2b6a682f133852f6798a09c465da95921460cefb38474024989060200160405180910390a15b505050505050505050565b606060668054610a8e9061546e565b6060604051806060016040528060378152602001615d896037913961016854604080518082018252600f81526e776562336a7340312e322e372e6a7360881b602082015261016054915163bf40fac160e01b81529394506001600160a01b039283169390929190911690600090829063bf40fac190611f02906004016020808252600f908201526e29a1a924a82a2fa82927ab24a222a960891b604082015260600190565b602060405180830381865afa158015611f1f573d6000803e3d6000fd5b505050506040513d601f19601f82011682018060405250810190611f4391906155d8565b90506000846001600160a01b031663ba67e64183866040518363ffffffff1660e01b8152600401611f7592919061578a565b602060405180830381865afa158015611f92573d6000803e3d6000fd5b505050506040513d601f19601f82011682018060405250810190611fb691906157ae565b9050611fc36001826157c7565b905060005b818110156118085761015f5460405163283959d960e21b815260009182916001600160a01b038a81169263a0e567649261200c92909116908b9088906004016157df565b600060405180830381865afa158015612029573d6000803e3d6000fd5b505050506040513d6000823e601f3d908101601f191682016040526120519190810190615843565b91509150888260405160200161206892919061589e565b6040516020818303038152906040529850505080806120869061576f565b915050611fc8565b610caf3383836139c8565b6120a1612f11565b6120aa82612a31565b6120df5760405162461bcd60e51b8152600401610bad9060208082526004908201526304e5f43360e41b604082015260600190565b6120e83361153f565b1561211e5760405162461bcd60e51b8152602060048201526006602482015265272fa1982f9960d11b6044820152606401610bad565b6000828152610169602090815260408083206001015461016a83528184203385529092528220546001600160a01b039091169161215b82856157c7565b6000868152610169602052604090205490915085146121b15760405162461bcd60e51b81526020600482015260126024820152713737ba103ab8103337b91030bab1ba34b7b760711b6044820152606401610bad565b6000858152610169602052604090206004015442106122045760405162461bcd60e51b815260206004820152600f60248201526e105d58dd1a5bdb88195e1c1a5c9959608a1b6044820152606401610bad565b604051636eb1769f60e11b815233600482015230602482015284906001600160a01b0385169063dd62ed3e90604401602060405180830381865afa158015612250573d6000803e3d6000fd5b505050506040513d601f19601f8201168201806040525081019061227491906157ae565b10156122c25760405162461bcd60e51b815260206004820152601c60248201527f6e6f7420656e6f75676820616c6c6f7720657263323020746f6b656e000000006044820152606401610bad565b6040516370a0823160e01b815233600482015284906001600160a01b038516906370a0823190602401602060405180830381865afa158015612308573d6000803e3d6000fd5b505050506040513d601f19601f8201168201806040525081019061232c91906157ae565b10156123735760405162461bcd60e51b81526020600482015260166024820152753737ba1032b737bab3b41032b9319918103a37b5b2b760511b6044820152606401610bad565b600085815261016960205260409020600701548110156123d55760405162461bcd60e51b815260206004820152601f60248201527f4d7573742073656e64206174206c6561737420726573657276655072696365006044820152606401610bad565b60008581526101696020526040902060088101546002909101546064916123fb916154dc565b61240591906154fb565b6000868152610169602052604090206002015461242291906157c7565b811015612499576040805162461bcd60e51b81526020600482015260248101919091527f4d7573742073656e64206d6f7265207468616e206c617374206269642062792060448201527f6d696e426964496e6372656d656e7450657263656e7461676520616d6f756e746064820152608401610bad565b6040516323b872dd60e01b8152336004820152306024820152604481018590526001600160a01b038416906323b872dd906064016020604051808303816000875af11580156124ec573d6000803e3d6000fd5b505050506040513d601f19601f8201168201806040525081019061251091906154a9565b61255c5760405162461bcd60e51b815260206004820152601d60248201527f63616e206e6f74206765742065726332302066726f6d206269646465720000006044820152606401610bad565b600085815261016a60209081526040808320338085529083528184208590558884526101699092528220600281018490556005810180546001600160a01b03191690921790915560068101546004909101546125b99042906158cd565b10905080156125f357600086815261016960205260409020600601546125df90426157c7565b600087815261016960205260409020600401555b600086815261016960209081526040918290205482513381529182018890528315158284015291517f1159164c56f277e6fc99c11731bd380e0347deb969b75523398734c252706ea39181900360600190a28015612698576000868152610169602090815260409182902080546004909101549251928352917f6e912a3a9105bdd2af817ba5adc14e6c127c1035b5b648faa29ca0d58ab8ff4e910160405180910390a25b50505050610caf600160fb55565b336001600160a01b03851614156126fb5761015f546001600160a01b031633146126f65760405162461bcd60e51b81526020600482015260016024820152601560fa1b6044820152606401610bad565b612786565b333b63ffffffff16156127365760405162461bcd60e51b8152602060048201526003602482015262545f3160e81b6044820152606401610bad565b60008281526101696020526040902060050154600160a01b900460ff1661275c57600080fd5b600082815261016960205260409020600501546001600160a01b0384811691161461278657600080fd5b61279284848484613a97565b50505050565b60606127a3826136e0565b6040518060400160405280600381526020016232303960e81b815250906127dd5760405162461bcd60e51b8152600401610bad9190614fbb565b5060405163188687dd60e21b815260048101839052600090309063621a1f7490602401602060405180830381865afa15801561281d573d6000803e3d6000fd5b505050506040513d601f19601f8201168201806040525081019061284191906157ae565b61016054604051637594e11960e11b815260048101839052602481018690529192506001600160a01b031690600090309063eb29c23290604401600060405180830381865afa158015612898573d6000803e3d6000fd5b505050506040513d6000823e601f3d908101601f191682016040526128c091908101906158e4565b90506128ea816040516020016128d6919061592d565b604051602081830303815290604052613aca565b6040516020016128fa9190615949565b604051602081830303815290604052905060008160405160200161291e9190615987565b60408051601f198184030181528282018252600e83526d109054d157d5549257d51490525560921b6020840152905163349f642f60e11b81529092506000916001600160a01b0386169163693ec85e9161297a91600401614fbb565b600060405180830381865afa158015612997573d6000803e3d6000fd5b505050506040513d6000823e601f3d908101601f191682016040526129bf91908101906158e4565b9050806129cb3061362d565b6129d489613643565b6129dd886135e1565b6040516020016129f094939291906159ce565b6040516020818303038152906040529050808282604051602001612a1693929190615a50565b60405160208183030381529060405295505050505050919050565b600081815261016660205260408120546001600160a01b031681612a5482612fad565b90506000612a6133612fad565b90506000612a6d61301d565b90508083108015612a7e5750808210155b15612a8f5750600195945050505050565b50600095945050505050565b612aa3612f11565b612aac81612a31565b612ae15760405162461bcd60e51b8152600401610bad9060208082526004908201526304e5f43360e41b604082015260600190565b612aea3361153f565b15612b205760405162461bcd60e51b8152602060048201526006602482015265272fa1982f9960d11b6044820152606401610bad565b612b28613c30565b60008281526101676020526040902054612b4290436158cd565b11612b785760405162461bcd60e51b81526020600482015260066024820152654e5f43305f3360d01b6044820152606401610bad565b61113881613ccd565b60408051808201909152600c81526b1e343a36b61f1e3432b0b21f60a11b602082015280612bad6115d9565b604051602001612bbe92919061589e565b604051602081830303815290604052905080612bd8611e5d565b604051602001612be992919061589e565b604051602081830303815290604052905080612c058484611142565b604051602001612c1692919061589e565b604051602081830303815290604052905080610163604051602001612c3c929190615b2e565b604051602081830303815290604052905092915050565b612c5b6136fe565b6001600160a01b038116612cc05760405162461bcd60e51b815260206004820152602660248201527f4f776e61626c653a206e6577206f776e657220697320746865207a65726f206160448201526564647265737360d01b6064820152608401610bad565b610d4481613759565b61015f546001600160a01b031633148015612cec57506001600160a01b03811615155b6040518060400160405280600381526020016231303160e81b81525090612d265760405162461bcd60e51b8152600401610bad9190614fbb565b5061016b546001600160a01b03828116911614610d445761016b80546001600160a01b0383166001600160a01b031990911617905550565b61015f546001600160a01b031633148015612d8157506001600160a01b03811615155b6040518060400160405280600381526020016231303160e81b81525090612dbb5760405162461bcd60e51b8152600401610bad9190614fbb565b50610160546001600160a01b03828116911614610d445761016080546001600160a01b0383166001600160a01b031990911617905550565b612dfc816136e0565b610d445760405162461bcd60e51b8152602060048201526018602482015277115490cdcc8c4e881a5b9d985b1a59081d1bdad95b88125160421b6044820152606401610bad565b6000818152606760205260408120546001600160a01b031680610a795760405162461bcd60e51b8152602060048201526018602482015277115490cdcc8c4e881a5b9d985b1a59081d1bdad95b88125160421b6044820152606401610bad565b600081815260696020526040902080546001600160a01b0319166001600160a01b0384169081179091558190612ed882612e43565b6001600160a01b03167f8c5be1e5ebec7d5bd14f71427d1e84f3dd0314c0f7b2291e5b200ac8c7c3b92560405160405180910390a45050565b600260fb541415612f645760405162461bcd60e51b815260206004820152601f60248201527f5265656e7472616e637947756172643a207265656e7472616e742063616c6c006044820152606401610bad565b600260fb55565b600160fb55565b612f7d838383614195565b60009081526101666020526040902080546001600160a01b0319166001600160a01b039290921691909117905550565b610164546040516370a0823160e01b81526001600160a01b03838116600483015260009216906370a0823190602401602060405180830381865afa158015612ff9573d6000803e3d6000fd5b505050506040513d601f19601f82011682018060405250810190610a7991906157ae565b61016054604051636d12dce160e01b815260206004820152600c60248201526b11d357d512149154d213d31160a21b604482015260009182916001600160a01b0390911690636d12dce190606401602060405180830381865afa158015613088573d6000803e3d6000fd5b505050506040513d601f19601f820116820180604052508101906130ac91906157ae565b9050806130be5750670de0b6b3a76400005b919050565b600082815261016960205260409020600301546131195760405162461bcd60e51b815260206004820152601460248201527320bab1ba34b7b7103430b9b713ba103132b3bab760611b6044820152606401610bad565b60008281526101696020526040902060050154600160a01b900460ff16156131835760405162461bcd60e51b815260206004820181905260248201527f41756374696f6e2068617320616c7265616479206265656e20736574746c65646044820152606401610bad565b8061347f57600082815261016960205260409020600401544210156131e55760405162461bcd60e51b8152602060048201526018602482015277105d58dd1a5bdb881a185cdb89dd0818dbdb5c1b195d195960421b6044820152606401610bad565b60008281526101696020526040812060058101805460ff60a01b198116600160a01b179091556003909101919091556001600160a01b0316156132665760008281526101666020526040902054613266906001600160a01b0316600084815261016960205260409020600581015490546001600160a01b0390911690610ebd565b6000828152610169602052604090206002015415613418576101605460405163bf40fac160e01b815260206004820152601c60248201527f534f554c5f41554354494f4e5f474d5f44414f5f54726561737572790000000060448201526000916001600160a01b03169063bf40fac190606401602060405180830381865afa1580156132f6573d6000803e3d6000fd5b505050506040513d601f19601f8201168201806040525081019061331a91906155d8565b90506001600160a01b03811661332f57600080fd5b60008381526101696020526040902060018101546002909101546001600160a01b039091169063a9059cbb9083906127109061336d906123286154dc565b61337791906154fb565b6040516001600160e01b031960e085901b1681526001600160a01b03909216600483015260248201526044016020604051808303816000875af11580156133c2573d6000803e3d6000fd5b505050506040513d601f19601f820116820180604052508101906133e691906154a9565b5050600082815261016a602090815260408083206101698352818420600501546001600160a01b031684529091528120555b600082815261016960209081526040918290208054600582015460029092015484516001600160a01b0390931683529282019290925290917fc9f72b276a388619c6d185d146697036241880c36654b1a3ffdad07c24038d99910160405180910390a25050565b6000828152610169602052604090206004015442106134db5760405162461bcd60e51b8152602060048201526018602482015277105d58dd1a5bdb881a185cdb89dd0818dbdb5c1b195d195960421b6044820152606401610bad565b60008281526101696020526040812060058101805460ff60a01b1916600160a01b179055600381019190915560020154156135a557600082815261016960205260409081902060018101546005820154600290920154925163a9059cbb60e01b81526001600160a01b0392831660048201526024810193909352169063a9059cbb906044016020604051808303816000875af115801561357f573d6000803e3d6000fd5b505050506040513d601f19601f820116820180604052508101906135a391906154a9565b505b6000828152610169602052604080822054905190917fac4a907ec29adcc56774b757ecb1e1b4d597374fc9386107d05e2670259df7d391a25050565b60606135ec82614306565b6135f9608084901b614306565b60405161060f60f31b6020820152602281019290925260428201526062016040516020818303038152906040529050919050565b6060610a796001600160a01b03831660146144b8565b606060006136508361465b565b600101905060008167ffffffffffffffff81111561367057613670615033565b6040519080825280601f01601f19166020018201604052801561369a576020820181803683370190505b5090508181016020015b600019016f181899199a1a9b1b9c1cb0b131b232b360811b600a86061a8153600a85049450846136d3576136d8565b6136a4565b509392505050565b600090815261016660205260409020546001600160a01b0316151590565b61012d546001600160a01b031633146115d75760405162461bcd60e51b815260206004820181905260248201527f4f776e61626c653a2063616c6c6572206973206e6f7420746865206f776e65726044820152606401610bad565b61012d80546001600160a01b038381166001600160a01b0319831681179093556040519116919082907f8be0079c531659141344cd1fd0a4f28419497f9722a3daafe3b4186f6b6457e090600090a35050565b60008060006137bb8686611346565b905060006137d16137cb83614733565b8661476e565b61016b549091506001600160a01b0380831691161461381a5760405162461bcd60e51b815260206004820152600560248201526447505f4e4160d81b6044820152606401610bad565b969095509350505050565b610caf82826040518060200160405280600081525061478a565b60008281526101666020908152604091829020548251808401909352600383526219181b60e91b91830191909152600160a01b900460a01b6001600160a01b0319161561389f5760405162461bcd60e51b8152600401610bad9190614fbb565b5060408051808201909152600381526232303760e81b6020820152816138d85760405162461bcd60e51b8152600401610bad9190614fbb565b5060009182526101666020526040909120805460a09290921c600160a01b026001600160a01b03909216919091179055565b600054610100900460ff166139315760405162461bcd60e51b8152600401610bad90615bdf565b610caf82826147bd565b600054610100900460ff166139625760405162461bcd60e51b8152600401610bad90615bdf565b6115d761480b565b600054610100900460ff166139915760405162461bcd60e51b8152600401610bad90615bdf565b6115d7614832565b600054610100900460ff166139c05760405162461bcd60e51b8152600401610bad90615bdf565b6115d7614865565b816001600160a01b0316836001600160a01b03161415613a2a5760405162461bcd60e51b815260206004820152601960248201527f4552433732313a20617070726f766520746f2063616c6c6572000000000000006044820152606401610bad565b6001600160a01b038381166000818152606a6020908152604080832094871680845294825291829020805460ff191686151590811790915591519182527f17307eab39ab6107e8899845ad3d59bd9653f200f220920489ca2b5937696c31910160405180910390a3505050565b613aa2848484612f72565b613aae84848484614895565b6127925760405162461bcd60e51b8152600401610bad90615c2a565b6060815160001415613aea57505060408051602081019091526000815290565b6000604051806060016040528060408152602001615d496040913990506000600384516002613b1991906157c7565b613b2391906154fb565b613b2e9060046154dc565b90506000613b3d8260206157c7565b67ffffffffffffffff811115613b5557613b55615033565b6040519080825280601f01601f191660200182016040528015613b7f576020820181803683370190505b509050818152600183018586518101602084015b81831015613beb576003830192508251603f8160121c168501518253600182019150603f81600c1c168501518253600182019150603f8160061c168501518253600182019150603f8116850151825350600101613b93565b600389510660018114613c055760028114613c1657613c22565b613d3d60f01b600119830152613c22565b603d60f81b6000198301525b509398975050505050505050565b61016054604051636d12dce160e01b815260206004820152600a602482015269474d5f5245534552564560b01b604482015260009182916001600160a01b0390911690636d12dce190606401602060405180830381865afa158015613c99573d6000803e3d6000fd5b505050506040513d601f19601f82011682018060405250810190613cbd91906157ae565b9050806130be57506103f0919050565b613cd6816136e0565b613cdf57600080fd5b60008181526101696020526040902060050154600160a01b900460ff1680613d14575060008181526101696020526040902054155b613d865760405162461bcd60e51b815260206004820152603860248201527f41756374696f6e2068617320616c7265616479206265656e20736574746c656460448201527f206f72203173742041756374696f6e206f6620746f6b656e00000000000000006064820152608401610bad565b426000613d91613c30565b613d9b90836157c7565b610160546040805161014081018252600080825260208201819052918101829052606081018290526080810182905260a0810182905260c0810182905260e0810182905261010081018290526101208101919091529192506001600160a01b03169084815260405163bf40fac160e01b815260206004820152601860248201527f534f554c5f41554354494f4e5f45524332305f544f4b454e000000000000000060448201526001600160a01b0383169063bf40fac190606401602060405180830381865afa158015613e72573d6000803e3d6000fd5b505050506040513d601f19601f82011682018060405250810190613e9691906155d8565b6001600160a01b0390811660208301526000604080840182905260608401879052608084018690523360a085015260c084019190915251636d12dce160e01b815290831690636d12dce190613f1f9060040160208082526018908201527f534f554c5f41554354494f4e5f54494d455f4255464645520000000000000000604082015260600190565b602060405180830381865afa158015613f3c573d6000803e3d6000fd5b505050506040513d601f19601f82011682018060405250810190613f6091906157ae565b60e0820152604051636d12dce160e01b815260206004820152601a60248201527f534f554c5f41554354494f4e5f524553455256455f505249434500000000000060448201526001600160a01b03831690636d12dce190606401602060405180830381865afa158015613fd7573d6000803e3d6000fd5b505050506040513d601f19601f82011682018060405250810190613ffb91906157ae565b610100820152604051636d12dce160e01b815260206004820152602560248201527f534f554c5f41554354494f4e5f4d494e5f4249445f494e4352454153455f50456044820152641490d1539560da1b60648201526001600160a01b03831690636d12dce190608401602060405180830381865afa158015614081573d6000803e3d6000fd5b505050506040513d601f19601f820116820180604052508101906140a591906157ae565b61012082019081526000868152610169602090815260409182902084518155818501516001820180546001600160a01b0319166001600160a01b03928316179055838601516002830155606086015160038301556080860151600483015560a086015160058301805460c0890151929093166001600160a81b031990931692909217600160a01b9115159190910217905560e0850151600682015561010085015160078201559251600890930192909255805186815291820185905286917fd6eddd1118d71820909c1197aa966dbc15ed6f508554252169cc3d5ccac756ca910160405180910390a25050505050565b826001600160a01b03166141a882612e43565b6001600160a01b0316146141ce5760405162461bcd60e51b8152600401610bad90615c7c565b6001600160a01b0382166142305760405162461bcd60e51b8152602060048201526024808201527f4552433732313a207472616e7366657220746f20746865207a65726f206164646044820152637265737360e01b6064820152608401610bad565b61423d8383836001614990565b826001600160a01b031661425082612e43565b6001600160a01b0316146142765760405162461bcd60e51b8152600401610bad90615c7c565b600081815260696020908152604080832080546001600160a01b03199081169091556001600160a01b0387811680865260688552838620805460001901905590871680865283862080546001019055868652606790945282852080549092168417909155905184937fddf252ad1be2c89b69c2b068fc378daa952ba7f163c4a11628f55a4df523b3ef91a4505050565b7aff00000000000000ff00000000000000ff00000000000000ff00006bffffffff0000000000000000604083901c90811663ffffffff60c01b84161760201c63ffffffff60601b919091166001600160e01b031984161717601081901c9182167eff00000000000000ff00000000000000ff00000000000000ff000000000000821617600890811c7bff00000000000000ff00000000000000ff00000000000000ff000000939093167fff00000000000000ff00000000000000ff00000000000000ff000000000000009290921691909117919091179081901c7e0f000f000f000f000f000f000f000f000f000f000f000f000f000f000f000f167f0f000f000f000f000f000f000f000f000f000f000f000f000f000f000f000f00600492831c161790614454827f06060606060606060606060606060606060606060606060606060606060606066157c7565b901c7f0f0f0f0f0f0f0f0f0f0f0f0f0f0f0f0f0f0f0f0f0f0f0f0f0f0f0f0f0f0f0f0f16600761448491906154dc565b6144ae827f30303030303030303030303030303030303030303030303030303030303030306157c7565b610a7991906157c7565b606060006144c78360026154dc565b6144d29060026157c7565b67ffffffffffffffff8111156144ea576144ea615033565b6040519080825280601f01601f191660200182016040528015614514576020820181803683370190505b509050600360fc1b8160008151811061452f5761452f615759565b60200101906001600160f81b031916908160001a905350600f60fb1b8160018151811061455e5761455e615759565b60200101906001600160f81b031916908160001a90535060006145828460026154dc565b61458d9060016157c7565b90505b6001811115614605576f181899199a1a9b1b9c1cb0b131b232b360811b85600f16601081106145c1576145c1615759565b1a60f81b8282815181106145d7576145d7615759565b60200101906001600160f81b031916908160001a90535060049490941c936145fe81615cc1565b9050614590565b5083156146545760405162461bcd60e51b815260206004820181905260248201527f537472696e67733a20686578206c656e67746820696e73756666696369656e746044820152606401610bad565b9392505050565b60008072184f03e93ff9f4daa797ed6e38ed64bf6a1f0160401b831061469a5772184f03e93ff9f4daa797ed6e38ed64bf6a1f0160401b830492506040015b6d04ee2d6d415b85acef810000000083106146c6576d04ee2d6d415b85acef8100000000830492506020015b662386f26fc1000083106146e457662386f26fc10000830492506010015b6305f5e10083106146fc576305f5e100830492506008015b612710831061471057612710830492506004015b60648310614722576064830492506002015b600a8310610a795760010192915050565b6040517f19457468657265756d205369676e6564204d6573736167653a0a3332000000006020820152603c8101829052600090605c01611455565b600080600061477d8585614a03565b915091506136d881614a49565b6147948383614b97565b6147a16000848484614895565b610c4e5760405162461bcd60e51b8152600401610bad90615c2a565b600054610100900460ff166147e45760405162461bcd60e51b8152600401610bad90615bdf565b81516147f7906065906020850190614e97565b508051610c4e906066906020840190614e97565b600054610100900460ff16612f6b5760405162461bcd60e51b8152600401610bad90615bdf565b600054610100900460ff166148595760405162461bcd60e51b8152600401610bad90615bdf565b6097805460ff19169055565b600054610100900460ff1661488c5760405162461bcd60e51b8152600401610bad90615bdf565b6115d733613759565b60006001600160a01b0384163b1561498857604051630a85bd0160e11b81526001600160a01b0385169063150b7a02906148d9903390899088908890600401615cd8565b6020604051808303816000875af1925050508015614914575060408051601f3d908101601f1916820190925261491191810190615d15565b60015b61496e573d808015614942576040519150601f19603f3d011682016040523d82523d6000602084013e614947565b606091505b5080516149665760405162461bcd60e51b8152600401610bad90615c2a565b805181602001fd5b6001600160e01b031916630a85bd0160e11b149050611537565b506001611537565b61499c84848484614bd0565b60975460ff16156127925760405162461bcd60e51b815260206004820152602b60248201527f4552433732315061757361626c653a20746f6b656e207472616e73666572207760448201526a1a1a5b19481c185d5cd95960aa1b6064820152608401610bad565b600080825160411415614a3a5760208301516040840151606085015160001a614a2e87828585614c58565b94509450505050614a42565b506000905060025b9250929050565b6000816004811115614a5d57614a5d615d32565b1415614a665750565b6001816004811115614a7a57614a7a615d32565b1415614ac85760405162461bcd60e51b815260206004820152601860248201527f45434453413a20696e76616c6964207369676e617475726500000000000000006044820152606401610bad565b6002816004811115614adc57614adc615d32565b1415614b2a5760405162461bcd60e51b815260206004820152601f60248201527f45434453413a20696e76616c6964207369676e6174757265206c656e677468006044820152606401610bad565b6003816004811115614b3e57614b3e615d32565b1415610d445760405162461bcd60e51b815260206004820152602260248201527f45434453413a20696e76616c6964207369676e6174757265202773272076616c604482015261756560f01b6064820152608401610bad565b614ba18282614d1c565b60009081526101666020526040902080546001600160a01b0319166001600160a01b0392909216919091179055565b6001811115612792576001600160a01b03841615614c16576001600160a01b03841660009081526068602052604081208054839290614c109084906158cd565b90915550505b6001600160a01b03831615612792576001600160a01b03831660009081526068602052604081208054839290614c4d9084906157c7565b909155505050505050565b6000807f7fffffffffffffffffffffffffffffff5d576e7357a4501ddfe92f46681b20a0831115614c8f5750600090506003614d13565b6040805160008082526020820180845289905260ff881692820192909252606081018690526080810185905260019060a0016020604051602081039080840390855afa158015614ce3573d6000803e3d6000fd5b5050604051601f1901519150506001600160a01b038116614d0c57600060019250925050614d13565b9150600090505b94509492505050565b6001600160a01b038216614d725760405162461bcd60e51b815260206004820181905260248201527f4552433732313a206d696e7420746f20746865207a65726f20616464726573736044820152606401610bad565b614d7b816136e0565b15614dc85760405162461bcd60e51b815260206004820152601c60248201527f4552433732313a20746f6b656e20616c7265616479206d696e746564000000006044820152606401610bad565b614dd6600083836001614990565b614ddf816136e0565b15614e2c5760405162461bcd60e51b815260206004820152601c60248201527f4552433732313a20746f6b656e20616c7265616479206d696e746564000000006044820152606401610bad565b6001600160a01b038216600081815260686020908152604080832080546001019055848352606790915280822080546001600160a01b0319168417905551839291907fddf252ad1be2c89b69c2b068fc378daa952ba7f163c4a11628f55a4df523b3ef908290a45050565b828054614ea39061546e565b90600052602060002090601f016020900481019282614ec55760008555614f0b565b82601f10614ede57805160ff1916838001178555614f0b565b82800160010185558215614f0b579182015b82811115614f0b578251825591602001919060010190614ef0565b50614f17929150614f1b565b5090565b5b80821115614f175760008155600101614f1c565b6001600160e01b031981168114610d4457600080fd5b600060208284031215614f5857600080fd5b813561465481614f30565b60005b83811015614f7e578181015183820152602001614f66565b838111156127925750506000910152565b60008151808452614fa7816020860160208601614f63565b601f01601f19169290920160200192915050565b6020815260006146546020830184614f8f565b600060208284031215614fe057600080fd5b5035919050565b6001600160a01b0381168114610d4457600080fd5b80356130be81614fe7565b6000806040838503121561501a57600080fd5b823561502581614fe7565b946020939093013593505050565b634e487b7160e01b600052604160045260246000fd5b604051601f8201601f1916810167ffffffffffffffff8111828210171561507257615072615033565b604052919050565b600067ffffffffffffffff82111561509457615094615033565b50601f01601f191660200190565b60006150b56150b08461507a565b615049565b90508281528383830111156150c957600080fd5b828260208301376000602084830101529392505050565b600082601f8301126150f157600080fd5b614654838335602085016150a2565b60006020828403121561511257600080fd5b813567ffffffffffffffff81111561512957600080fd5b611537848285016150e0565b60006020828403121561514757600080fd5b813561465481614fe7565b60008060006060848603121561516757600080fd5b833561517281614fe7565b9250602084013561518281614fe7565b929592945050506040919091013590565b600080604083850312156151a657600080fd5b50508035926020909101359150565b600080604083850312156151c857600080fd5b8235915060208301356151da81614fe7565b809150509250929050565b600080600080606085870312156151fb57600080fd5b843561520681614fe7565b935060208501359250604085013567ffffffffffffffff8082111561522a57600080fd5b818701915087601f83011261523e57600080fd5b81358181111561524d57600080fd5b88602082850101111561525f57600080fd5b95989497505060200194505050565b6020808252825182820181905260009190848201906040850190845b818110156152a65783518352928401929184019160010161528a565b50909695505050505050565b600080600080600080600080610100898b0312156152cf57600080fd5b883567ffffffffffffffff808211156152e757600080fd5b6152f38c838d016150e0565b995060208b013591508082111561530957600080fd5b506153168b828c016150e0565b975050604089013561532781614fe7565b9550606089013561533781614fe7565b9450608089013561534781614fe7565b935060a089013561535781614fe7565b925060c089013561536781614fe7565b915061537560e08a01614ffc565b90509295985092959890939650565b8015158114610d4457600080fd5b600080604083850312156153a557600080fd5b82356153b081614fe7565b915060208301356151da81615384565b600080600080608085870312156153d657600080fd5b84356153e181614fe7565b935060208501356153f181614fe7565b925060408501359150606085013567ffffffffffffffff81111561541457600080fd5b8501601f8101871361542557600080fd5b615434878235602084016150a2565b91505092959194509250565b6000806040838503121561545357600080fd5b823561545e81614fe7565b915060208301356151da81614fe7565b600181811c9082168061548257607f821691505b602082108114156154a357634e487b7160e01b600052602260045260246000fd5b50919050565b6000602082840312156154bb57600080fd5b815161465481615384565b634e487b7160e01b600052601160045260246000fd5b60008160001904831182151516156154f6576154f66154c6565b500290565b60008261551857634e487b7160e01b600052601260045260246000fd5b500490565b6000835161552f818460208801614f63565b696c657420736565643d2760b01b908301908152835161555681600a840160208801614f63565b61273b60f01b600a9290910191820152600c01949350505050565b60008351615583818460208801614f63565b7f6c657420474d5f434f4e54524143545f414444524553533d270000000000000090830190815283516155bd816019840160208801614f63565b61273b60f01b60199290910191820152601b01949350505050565b6000602082840312156155ea57600080fd5b815161465481614fe7565b60008351615607818460208801614f63565b80830190507f6c657420535741505f504f4f4c5f474d5f4554485f434f4e54524143545f414481526644524553533d2760c81b60208201528351615652816027840160208801614f63565b61273b60f01b60279290910191820152602901949350505050565b6000835161567f818460208801614f63565b7f6c657420736f6c617269734e6674436f6e7472616374416464726573733d270090830190815283516156b981601f840160208801614f63565b61273b60f01b601f9290910191820152602101949350505050565b600083516156e6818460208801614f63565b6d6c657420544f4b454e5f49443d2760901b908301908152835161571181600e840160208801614f63565b61273b60f01b600e9290910191820152601001949350505050565b6000825161573e818460208701614f63565b681e17b9b1b934b83a1f60b91b920191825250600901919050565b634e487b7160e01b600052603260045260246000fd5b6000600019821415615783576157836154c6565b5060010190565b6001600160a01b038316815260406020820181905260009061153790830184614f8f565b6000602082840312156157c057600080fd5b5051919050565b600082198211156157da576157da6154c6565b500190565b6001600160a01b038416815260606020820181905260009061580390830185614f8f565b9050826040830152949350505050565b60006158216150b08461507a565b905082815283838301111561583557600080fd5b614654836020830184614f63565b6000806040838503121561585657600080fd5b825167ffffffffffffffff81111561586d57600080fd5b8301601f8101851361587e57600080fd5b61588d85825160208401615813565b925050602083015190509250929050565b600083516158b0818460208801614f63565b8351908301906158c4818360208801614f63565b01949350505050565b6000828210156158df576158df6154c6565b500390565b6000602082840312156158f657600080fd5b815167ffffffffffffffff81111561590d57600080fd5b8201601f8101841361591e57600080fd5b61153784825160208401615813565b6000825161593f818460208701614f63565b9190910192915050565b7519185d184e9d195e1d0bda1d1b5b0ed8985cd94d8d0b60521b81526000825161597a816016850160208701614f63565b9190910160160192915050565b7216101130b734b6b0ba34b7b72fbab936111d1160691b815281516000906159b6816013850160208701614f63565b601160f91b6013939091019283015250601401919050565b600085516159e0818460208a01614f63565b8083019050602f60f81b8082528651615a00816001850160208b01614f63565b60019201918201528451615a1b816002840160208901614f63565b653f736565643d60d01b600292909101918201528351615a42816008840160208801614f63565b016008019695505050505050565b7f7b226e616d65223a22222c226465736372697074696f6e223a2022220000000081526b16101134b6b0b3b2911d101160a11b601c8201528351600090615a9e816028850160208901614f63565b6e1331b0b83a3ab9329e9b181818181160891b6028918401918201528451615acd816037840160208901614f63565b7016101130ba3a3934b13aba32b9911d101160791b603792909101918201528351615aff816048840160208801614f63565b6a1331b0b83a3ab9329e981160a91b60489290910191820152607d60f81b605382015260540195945050505050565b600083516020615b418285838901614f63565b845491840191600090600181811c9080831680615b5f57607f831692505b858310811415615b7d57634e487b7160e01b85526022600452602485fd5b808015615b915760018114615ba257615bcf565b60ff19851688528388019550615bcf565b60008b81526020902060005b85811015615bc75781548a820152908401908801615bae565b505083880195505b50939a9950505050505050505050565b6020808252602b908201527f496e697469616c697a61626c653a20636f6e7472616374206973206e6f74206960408201526a6e697469616c697a696e6760a81b606082015260800190565b60208082526032908201527f4552433732313a207472616e7366657220746f206e6f6e20455243373231526560408201527131b2b4bb32b91034b6b83632b6b2b73a32b960711b606082015260800190565b60208082526025908201527f4552433732313a207472616e736665722066726f6d20696e636f72726563742060408201526437bbb732b960d91b606082015260800190565b600081615cd057615cd06154c6565b506000190190565b6001600160a01b0385811682528416602082015260408101839052608060608201819052600090615d0b90830184614f8f565b9695505050505050565b600060208284031215615d2757600080fd5b815161465481614f30565b634e487b7160e01b600052602160045260246000fdfe4142434445464748494a4b4c4d4e4f505152535455565758595a6162636465666768696a6b6c6d6e6f707172737475767778797a303132333435363738392b2f3c7363726970742073616e64626f783d27616c6c6f772d736372697074732720747970653d27746578742f6a617661736372697074273ea2646970667358221220093dfb6e08f0dbb965b06ed8841b121f43935da17007248afe276ed6d32a720064736f6c634300080c0033",
  "linkReferences": {},
  "deployedLinkReferences": {}
}