{
  "_format": "hh-sol-artifact-1",
  "contractName": "SOUL",
  "sourceName": "contracts/nfts/SOUL.sol",
  "abi": [
    {
      "anonymous": false,
      "inputs": [
        {
          "indexed": true,
          "internalType": "address",
          "name": "owner",
          "type": "address"
        },
        {
          "indexed": true,
          "internalType": "address",
          "name": "approved",
          "type": "address"
        },
        {
          "indexed": true,
          "internalType": "uint256",
          "name": "tokenId",
          "type": "uint256"
        }
      ],
      "name": "Approval",
      "type": "event"
    },
    {
      "anonymous": false,
      "inputs": [
        {
          "indexed": true,
          "internalType": "address",
          "name": "owner",
          "type": "address"
        },
        {
          "indexed": true,
          "internalType": "address",
          "name": "operator",
          "type": "address"
        },
        {
          "indexed": false,
          "internalType": "bool",
          "name": "approved",
          "type": "bool"
        }
      ],
      "name": "ApprovalForAll",
      "type": "event"
    },
    {
      "anonymous": false,
      "inputs": [
        {
          "indexed": true,
          "internalType": "uint256",
          "name": "tokenId",
          "type": "uint256"
        },
        {
          "indexed": false,
          "internalType": "address",
          "name": "sender",
          "type": "address"
        },
        {
          "indexed": false,
          "internalType": "uint256",
          "name": "value",
          "type": "uint256"
        },
        {
          "indexed": false,
          "internalType": "bool",
          "name": "extended",
          "type": "bool"
        },
        {
          "components": [
            {
              "internalType": "uint256",
              "name": "tokenId",
              "type": "uint256"
            },
            {
              "internalType": "address",
              "name": "erc20Token",
              "type": "address"
            },
            {
              "internalType": "uint256",
              "name": "amount",
              "type": "uint256"
            },
            {
              "internalType": "uint256",
              "name": "startTime",
              "type": "uint256"
            },
            {
              "internalType": "uint256",
              "name": "endTime",
              "type": "uint256"
            },
            {
              "internalType": "address payable",
              "name": "bidder",
              "type": "address"
            },
            {
              "internalType": "bool",
              "name": "settled",
              "type": "bool"
            },
            {
              "internalType": "uint256",
              "name": "timeBuffer",
              "type": "uint256"
            },
            {
              "internalType": "uint256",
              "name": "reservePrice",
              "type": "uint256"
            },
            {
              "internalType": "uint256",
              "name": "minBidIncrementPercentage",
              "type": "uint256"
            },
            {
              "internalType": "bytes32",
              "name": "auctionId",
              "type": "bytes32"
            }
          ],
          "indexed": false,
          "internalType": "struct AuctionHouse.Auction",
          "name": "auction",
          "type": "tuple"
        }
      ],
      "name": "AuctionBid",
      "type": "event"
    },
    {
      "anonymous": false,
      "inputs": [
        {
          "indexed": true,
          "internalType": "uint256",
          "name": "tokenId",
          "type": "uint256"
        },
        {
          "indexed": false,
          "internalType": "address",
          "name": "sender",
          "type": "address"
        },
        {
          "indexed": false,
          "internalType": "uint256",
          "name": "value",
          "type": "uint256"
        },
        {
          "indexed": false,
          "internalType": "bytes32",
          "name": "auctionId",
          "type": "bytes32"
        }
      ],
      "name": "AuctionClaimBid",
      "type": "event"
    },
    {
      "anonymous": false,
      "inputs": [
        {
          "indexed": true,
          "internalType": "uint256",
          "name": "tokenId",
          "type": "uint256"
        }
      ],
      "name": "AuctionClosed",
      "type": "event"
    },
    {
      "anonymous": false,
      "inputs": [
        {
          "indexed": true,
          "internalType": "uint256",
          "name": "tokenId",
          "type": "uint256"
        },
        {
          "indexed": false,
          "internalType": "uint256",
          "name": "startTime",
          "type": "uint256"
        },
        {
          "indexed": false,
          "internalType": "uint256",
          "name": "endTime",
          "type": "uint256"
        },
        {
          "indexed": false,
          "internalType": "address",
          "name": "sender",
          "type": "address"
        },
        {
          "indexed": false,
          "internalType": "bytes32",
          "name": "auctionId",
          "type": "bytes32"
        },
        {
          "components": [
            {
              "internalType": "uint256",
              "name": "tokenId",
              "type": "uint256"
            },
            {
              "internalType": "address",
              "name": "erc20Token",
              "type": "address"
            },
            {
              "internalType": "uint256",
              "name": "amount",
              "type": "uint256"
            },
            {
              "internalType": "uint256",
              "name": "startTime",
              "type": "uint256"
            },
            {
              "internalType": "uint256",
              "name": "endTime",
              "type": "uint256"
            },
            {
              "internalType": "address payable",
              "name": "bidder",
              "type": "address"
            },
            {
              "internalType": "bool",
              "name": "settled",
              "type": "bool"
            },
            {
              "internalType": "uint256",
              "name": "timeBuffer",
              "type": "uint256"
            },
            {
              "internalType": "uint256",
              "name": "reservePrice",
              "type": "uint256"
            },
            {
              "internalType": "uint256",
              "name": "minBidIncrementPercentage",
              "type": "uint256"
            },
            {
              "internalType": "bytes32",
              "name": "auctionId",
              "type": "bytes32"
            }
          ],
          "indexed": false,
          "internalType": "struct AuctionHouse.Auction",
          "name": "auction",
          "type": "tuple"
        }
      ],
      "name": "AuctionCreated",
      "type": "event"
    },
    {
      "anonymous": false,
      "inputs": [
        {
          "indexed": true,
          "internalType": "uint256",
          "name": "tokenId",
          "type": "uint256"
        },
        {
          "indexed": false,
          "internalType": "uint256",
          "name": "endTime",
          "type": "uint256"
        },
        {
          "components": [
            {
              "internalType": "uint256",
              "name": "tokenId",
              "type": "uint256"
            },
            {
              "internalType": "address",
              "name": "erc20Token",
              "type": "address"
            },
            {
              "internalType": "uint256",
              "name": "amount",
              "type": "uint256"
            },
            {
              "internalType": "uint256",
              "name": "startTime",
              "type": "uint256"
            },
            {
              "internalType": "uint256",
              "name": "endTime",
              "type": "uint256"
            },
            {
              "internalType": "address payable",
              "name": "bidder",
              "type": "address"
            },
            {
              "internalType": "bool",
              "name": "settled",
              "type": "bool"
            },
            {
              "internalType": "uint256",
              "name": "timeBuffer",
              "type": "uint256"
            },
            {
              "internalType": "uint256",
              "name": "reservePrice",
              "type": "uint256"
            },
            {
              "internalType": "uint256",
              "name": "minBidIncrementPercentage",
              "type": "uint256"
            },
            {
              "internalType": "bytes32",
              "name": "auctionId",
              "type": "bytes32"
            }
          ],
          "indexed": false,
          "internalType": "struct AuctionHouse.Auction",
          "name": "auction",
          "type": "tuple"
        }
      ],
      "name": "AuctionExtended",
      "type": "event"
    },
    {
      "anonymous": false,
      "inputs": [
        {
          "indexed": false,
          "internalType": "uint256",
          "name": "minBidIncrementPercentage",
          "type": "uint256"
        }
      ],
      "name": "AuctionMinBidIncrementPercentageUpdated",
      "type": "event"
    },
    {
      "anonymous": false,
      "inputs": [
        {
          "indexed": false,
          "internalType": "uint256",
          "name": "reservePrice",
          "type": "uint256"
        }
      ],
      "name": "AuctionReservePriceUpdated",
      "type": "event"
    },
    {
      "anonymous": false,
      "inputs": [
        {
          "indexed": true,
          "internalType": "uint256",
          "name": "tokenId",
          "type": "uint256"
        },
        {
          "indexed": false,
          "internalType": "address",
          "name": "winner",
          "type": "address"
        },
        {
          "indexed": false,
          "internalType": "uint256",
          "name": "amount",
          "type": "uint256"
        },
        {
          "components": [
            {
              "internalType": "uint256",
              "name": "tokenId",
              "type": "uint256"
            },
            {
              "internalType": "address",
              "name": "erc20Token",
              "type": "address"
            },
            {
              "internalType": "uint256",
              "name": "amount",
              "type": "uint256"
            },
            {
              "internalType": "uint256",
              "name": "startTime",
              "type": "uint256"
            },
            {
              "internalType": "uint256",
              "name": "endTime",
              "type": "uint256"
            },
            {
              "internalType": "address payable",
              "name": "bidder",
              "type": "address"
            },
            {
              "internalType": "bool",
              "name": "settled",
              "type": "bool"
            },
            {
              "internalType": "uint256",
              "name": "timeBuffer",
              "type": "uint256"
            },
            {
              "internalType": "uint256",
              "name": "reservePrice",
              "type": "uint256"
            },
            {
              "internalType": "uint256",
              "name": "minBidIncrementPercentage",
              "type": "uint256"
            },
            {
              "internalType": "bytes32",
              "name": "auctionId",
              "type": "bytes32"
            }
          ],
          "indexed": false,
          "internalType": "struct AuctionHouse.Auction",
          "name": "auction",
          "type": "tuple"
        }
      ],
      "name": "AuctionSettled",
      "type": "event"
    },
    {
      "anonymous": false,
      "inputs": [
        {
          "indexed": false,
          "internalType": "uint256",
          "name": "timeBuffer",
          "type": "uint256"
        }
      ],
      "name": "AuctionTimeBufferUpdated",
      "type": "event"
    },
    {
      "anonymous": false,
      "inputs": [
        {
          "indexed": true,
          "internalType": "address",
          "name": "reserver",
          "type": "address"
        },
        {
          "indexed": true,
          "internalType": "uint256",
          "name": "tokenId",
          "type": "uint256"
        },
        {
          "indexed": true,
          "internalType": "address",
          "name": "owner",
          "type": "address"
        },
        {
          "indexed": false,
          "internalType": "uint256",
          "name": "blockNumber",
          "type": "uint256"
        }
      ],
      "name": "Claim",
      "type": "event"
    },
    {
      "anonymous": false,
      "inputs": [
        {
          "indexed": false,
          "internalType": "uint8",
          "name": "version",
          "type": "uint8"
        }
      ],
      "name": "Initialized",
      "type": "event"
    },
    {
      "anonymous": false,
      "inputs": [
        {
          "indexed": true,
          "internalType": "address",
          "name": "previousOwner",
          "type": "address"
        },
        {
          "indexed": true,
          "internalType": "address",
          "name": "newOwner",
          "type": "address"
        }
      ],
      "name": "OwnershipTransferred",
      "type": "event"
    },
    {
      "anonymous": false,
      "inputs": [
        {
          "indexed": false,
          "internalType": "address",
          "name": "account",
          "type": "address"
        }
      ],
      "name": "Paused",
      "type": "event"
    },
    {
      "anonymous": false,
      "inputs": [
        {
          "indexed": true,
          "internalType": "address",
          "name": "reserver",
          "type": "address"
        },
        {
          "indexed": true,
          "internalType": "uint256",
          "name": "tokenId",
          "type": "uint256"
        },
        {
          "indexed": true,
          "internalType": "address",
          "name": "owner",
          "type": "address"
        },
        {
          "indexed": false,
          "internalType": "uint256",
          "name": "blockNumber",
          "type": "uint256"
        }
      ],
      "name": "Reserve",
      "type": "event"
    },
    {
      "anonymous": false,
      "inputs": [
        {
          "indexed": true,
          "internalType": "address",
          "name": "from",
          "type": "address"
        },
        {
          "indexed": true,
          "internalType": "address",
          "name": "to",
          "type": "address"
        },
        {
          "indexed": true,
          "internalType": "uint256",
          "name": "tokenId",
          "type": "uint256"
        }
      ],
      "name": "Transfer",
      "type": "event"
    },
    {
      "anonymous": false,
      "inputs": [
        {
          "indexed": false,
          "internalType": "address",
          "name": "account",
          "type": "address"
        }
      ],
      "name": "Unpaused",
      "type": "event"
    },
    {
      "inputs": [],
      "name": "_admin",
      "outputs": [
        {
          "internalType": "address",
          "name": "",
          "type": "address"
        }
      ],
      "stateMutability": "view",
      "type": "function"
    },
    {
      "inputs": [
        {
          "internalType": "uint256",
          "name": "",
          "type": "uint256"
        }
      ],
      "name": "_auctions",
      "outputs": [
        {
          "internalType": "uint256",
          "name": "tokenId",
          "type": "uint256"
        },
        {
          "internalType": "address",
          "name": "erc20Token",
          "type": "address"
        },
        {
          "internalType": "uint256",
          "name": "amount",
          "type": "uint256"
        },
        {
          "internalType": "uint256",
          "name": "startTime",
          "type": "uint256"
        },
        {
          "internalType": "uint256",
          "name": "endTime",
          "type": "uint256"
        },
        {
          "internalType": "address payable",
          "name": "bidder",
          "type": "address"
        },
        {
          "internalType": "bool",
          "name": "settled",
          "type": "bool"
        },
        {
          "internalType": "uint256",
          "name": "timeBuffer",
          "type": "uint256"
        },
        {
          "internalType": "uint256",
          "name": "reservePrice",
          "type": "uint256"
        },
        {
          "internalType": "uint256",
          "name": "minBidIncrementPercentage",
          "type": "uint256"
        },
        {
          "internalType": "bytes32",
          "name": "auctionId",
          "type": "bytes32"
        }
      ],
      "stateMutability": "view",
      "type": "function"
    },
    {
      "inputs": [
        {
          "internalType": "bytes32",
          "name": "",
          "type": "bytes32"
        }
      ],
      "name": "_auctionsList",
      "outputs": [
        {
          "internalType": "uint256",
          "name": "tokenId",
          "type": "uint256"
        },
        {
          "internalType": "address",
          "name": "erc20Token",
          "type": "address"
        },
        {
          "internalType": "uint256",
          "name": "amount",
          "type": "uint256"
        },
        {
          "internalType": "uint256",
          "name": "startTime",
          "type": "uint256"
        },
        {
          "internalType": "uint256",
          "name": "endTime",
          "type": "uint256"
        },
        {
          "internalType": "address payable",
          "name": "bidder",
          "type": "address"
        },
        {
          "internalType": "bool",
          "name": "settled",
          "type": "bool"
        },
        {
          "internalType": "uint256",
          "name": "timeBuffer",
          "type": "uint256"
        },
        {
          "internalType": "uint256",
          "name": "reservePrice",
          "type": "uint256"
        },
        {
          "internalType": "uint256",
          "name": "minBidIncrementPercentage",
          "type": "uint256"
        },
        {
          "internalType": "bytes32",
          "name": "auctionId",
          "type": "bytes32"
        }
      ],
      "stateMutability": "view",
      "type": "function"
    },
    {
      "inputs": [],
      "name": "_bfs",
      "outputs": [
        {
          "internalType": "address",
          "name": "",
          "type": "address"
        }
      ],
      "stateMutability": "view",
      "type": "function"
    },
    {
      "inputs": [
        {
          "internalType": "uint256",
          "name": "",
          "type": "uint256"
        },
        {
          "internalType": "bytes32",
          "name": "",
          "type": "bytes32"
        },
        {
          "internalType": "address",
          "name": "",
          "type": "address"
        }
      ],
      "name": "_bidderAuctions",
      "outputs": [
        {
          "internalType": "uint256",
          "name": "",
          "type": "uint256"
        }
      ],
      "stateMutability": "view",
      "type": "function"
    },
    {
      "inputs": [
        {
          "internalType": "uint256",
          "name": "",
          "type": "uint256"
        },
        {
          "internalType": "bytes32",
          "name": "",
          "type": "bytes32"
        },
        {
          "internalType": "uint256",
          "name": "",
          "type": "uint256"
        }
      ],
      "name": "_bidderAuctionsList",
      "outputs": [
        {
          "internalType": "address",
          "name": "",
          "type": "address"
        }
      ],
      "stateMutability": "view",
      "type": "function"
    },
    {
      "inputs": [
        {
          "internalType": "address",
          "name": "",
          "type": "address"
        },
        {
          "internalType": "address",
          "name": "",
          "type": "address"
        }
      ],
      "name": "_biddingBalance",
      "outputs": [
        {
          "internalType": "uint256",
          "name": "",
          "type": "uint256"
        }
      ],
      "stateMutability": "view",
      "type": "function"
    },
    {
      "inputs": [
        {
          "internalType": "address",
          "name": "",
          "type": "address"
        }
      ],
      "name": "_coreTeamTreasury",
      "outputs": [
        {
          "internalType": "uint256",
          "name": "",
          "type": "uint256"
        }
      ],
      "stateMutability": "view",
      "type": "function"
    },
    {
      "inputs": [],
      "name": "_gmToken",
      "outputs": [
        {
          "internalType": "address",
          "name": "",
          "type": "address"
        }
      ],
      "stateMutability": "view",
      "type": "function"
    },
    {
      "inputs": [],
      "name": "_maxSupply",
      "outputs": [
        {
          "internalType": "uint256",
          "name": "",
          "type": "uint256"
        }
      ],
      "stateMutability": "view",
      "type": "function"
    },
    {
      "inputs": [
        {
          "internalType": "uint256",
          "name": "",
          "type": "uint256"
        }
      ],
      "name": "_mintAt",
      "outputs": [
        {
          "internalType": "uint256",
          "name": "",
          "type": "uint256"
        }
      ],
      "stateMutability": "view",
      "type": "function"
    },
    {
      "inputs": [
        {
          "internalType": "address",
          "name": "",
          "type": "address"
        }
      ],
      "name": "_minted",
      "outputs": [
        {
          "internalType": "uint256",
          "name": "",
          "type": "uint256"
        }
      ],
      "stateMutability": "view",
      "type": "function"
    },
    {
      "inputs": [],
      "name": "_paramsAddress",
      "outputs": [
        {
          "internalType": "address",
          "name": "",
          "type": "address"
        }
      ],
      "stateMutability": "view",
      "type": "function"
    },
    {
      "inputs": [],
      "name": "_randomizerAddr",
      "outputs": [
        {
          "internalType": "address",
          "name": "",
          "type": "address"
        }
      ],
      "stateMutability": "view",
      "type": "function"
    },
    {
      "inputs": [],
      "name": "_script",
      "outputs": [
        {
          "internalType": "string",
          "name": "",
          "type": "string"
        }
      ],
      "stateMutability": "view",
      "type": "function"
    },
    {
      "inputs": [],
      "name": "_signerMint",
      "outputs": [
        {
          "internalType": "address",
          "name": "",
          "type": "address"
        }
      ],
      "stateMutability": "view",
      "type": "function"
    },
    {
      "inputs": [
        {
          "internalType": "address",
          "name": "to",
          "type": "address"
        },
        {
          "internalType": "uint256",
          "name": "tokenId",
          "type": "uint256"
        }
      ],
      "name": "approve",
      "outputs": [],
      "stateMutability": "nonpayable",
      "type": "function"
    },
    {
      "inputs": [
        {
          "internalType": "uint256",
          "name": "tokenId",
          "type": "uint256"
        }
      ],
      "name": "available",
      "outputs": [
        {
          "internalType": "bool",
          "name": "",
          "type": "bool"
        }
      ],
      "stateMutability": "view",
      "type": "function"
    },
    {
      "inputs": [
        {
          "internalType": "address",
          "name": "owner",
          "type": "address"
        }
      ],
      "name": "balanceOf",
      "outputs": [
        {
          "internalType": "uint256",
          "name": "",
          "type": "uint256"
        }
      ],
      "stateMutability": "view",
      "type": "function"
    },
    {
      "inputs": [
        {
          "internalType": "address",
          "name": "to",
          "type": "address"
        },
        {
          "internalType": "uint256",
          "name": "n",
          "type": "uint256"
        },
        {
          "internalType": "bytes",
          "name": "signatures",
          "type": "bytes"
        }
      ],
      "name": "batchMint",
      "outputs": [
        {
          "internalType": "uint256[]",
          "name": "",
          "type": "uint256[]"
        }
      ],
      "stateMutability": "payable",
      "type": "function"
    },
    {
      "inputs": [
        {
          "internalType": "uint256",
          "name": "tokenId",
          "type": "uint256"
        }
      ],
      "name": "biddable",
      "outputs": [
        {
          "internalType": "bool",
          "name": "",
          "type": "bool"
        }
      ],
      "stateMutability": "view",
      "type": "function"
    },
    {
      "inputs": [
        {
          "internalType": "address",
          "name": "newAdm",
          "type": "address"
        }
      ],
      "name": "changeAdmin",
      "outputs": [],
      "stateMutability": "nonpayable",
      "type": "function"
    },
    {
      "inputs": [
        {
          "internalType": "address",
          "name": "newBfs",
          "type": "address"
        }
      ],
      "name": "changeBfs",
      "outputs": [],
      "stateMutability": "nonpayable",
      "type": "function"
    },
    {
      "inputs": [
        {
          "internalType": "address",
          "name": "newBrc20",
          "type": "address"
        }
      ],
      "name": "changeBrc20Token",
      "outputs": [],
      "stateMutability": "nonpayable",
      "type": "function"
    },
    {
      "inputs": [
        {
          "internalType": "address",
          "name": "newAddr",
          "type": "address"
        }
      ],
      "name": "changeParamAddr",
      "outputs": [],
      "stateMutability": "nonpayable",
      "type": "function"
    },
    {
      "inputs": [
        {
          "internalType": "address",
          "name": "newAddr",
          "type": "address"
        }
      ],
      "name": "changeRandomizerAddr",
      "outputs": [],
      "stateMutability": "nonpayable",
      "type": "function"
    },
    {
      "inputs": [
        {
          "internalType": "string",
          "name": "newScript",
          "type": "string"
        }
      ],
      "name": "changeScript",
      "outputs": [],
      "stateMutability": "nonpayable",
      "type": "function"
    },
    {
      "inputs": [
        {
          "internalType": "address",
          "name": "newAdd",
          "type": "address"
        }
      ],
      "name": "changeSignerMint",
      "outputs": [],
      "stateMutability": "nonpayable",
      "type": "function"
    },
    {
      "inputs": [
        {
          "internalType": "uint256",
          "name": "tokenId",
          "type": "uint256"
        },
        {
          "internalType": "bytes32",
          "name": "auctionId",
          "type": "bytes32"
        }
      ],
      "name": "claimBid",
      "outputs": [],
      "stateMutability": "nonpayable",
      "type": "function"
    },
    {
      "inputs": [
        {
          "internalType": "uint256",
          "name": "tokenId",
          "type": "uint256"
        }
      ],
      "name": "createAuction",
      "outputs": [],
      "stateMutability": "nonpayable",
      "type": "function"
    },
    {
      "inputs": [
        {
          "internalType": "uint256",
          "name": "tokenId",
          "type": "uint256"
        },
        {
          "internalType": "uint256",
          "name": "amount",
          "type": "uint256"
        }
      ],
      "name": "createBid",
      "outputs": [],
      "stateMutability": "payable",
      "type": "function"
    },
    {
      "inputs": [
        {
          "internalType": "uint256",
          "name": "amount",
          "type": "uint256"
        }
      ],
      "name": "deposit",
      "outputs": [],
      "stateMutability": "payable",
      "type": "function"
    },
    {
      "inputs": [
        {
          "internalType": "uint256",
          "name": "tokenId",
          "type": "uint256"
        }
      ],
      "name": "getApproved",
      "outputs": [
        {
          "internalType": "address",
          "name": "",
          "type": "address"
        }
      ],
      "stateMutability": "view",
      "type": "function"
    },
    {
      "inputs": [
        {
          "internalType": "address",
          "name": "user",
          "type": "address"
        },
        {
          "internalType": "uint256",
          "name": "totalGM",
          "type": "uint256"
        }
      ],
      "name": "getMessageHash",
      "outputs": [
        {
          "internalType": "bytes32",
          "name": "",
          "type": "bytes32"
        }
      ],
      "stateMutability": "view",
      "type": "function"
    },
    {
      "inputs": [
        {
          "internalType": "string",
          "name": "name",
          "type": "string"
        },
        {
          "internalType": "string",
          "name": "symbol",
          "type": "string"
        },
        {
          "internalType": "address",
          "name": "admin",
          "type": "address"
        },
        {
          "internalType": "address",
          "name": "paramsAddress",
          "type": "address"
        },
        {
          "internalType": "address",
          "name": "randomizerAddr",
          "type": "address"
        },
        {
          "internalType": "address",
          "name": "gmToken",
          "type": "address"
        },
        {
          "internalType": "address",
          "name": "bfs",
          "type": "address"
        },
        {
          "internalType": "address",
          "name": "signerMint",
          "type": "address"
        }
      ],
      "name": "initialize",
      "outputs": [],
      "stateMutability": "nonpayable",
      "type": "function"
    },
    {
      "inputs": [
        {
          "internalType": "address",
          "name": "owner",
          "type": "address"
        },
        {
          "internalType": "address",
          "name": "operator",
          "type": "address"
        }
      ],
      "name": "isApprovedForAll",
      "outputs": [
        {
          "internalType": "bool",
          "name": "",
          "type": "bool"
        }
      ],
      "stateMutability": "view",
      "type": "function"
    },
    {
      "inputs": [
        {
          "internalType": "address",
          "name": "to",
          "type": "address"
        },
        {
          "internalType": "uint256",
          "name": "totalGM",
          "type": "uint256"
        },
        {
          "internalType": "bytes",
          "name": "signature",
          "type": "bytes"
        }
      ],
      "name": "mint",
      "outputs": [
        {
          "internalType": "uint256",
          "name": "tokenId",
          "type": "uint256"
        }
      ],
      "stateMutability": "payable",
      "type": "function"
    },
    {
      "inputs": [],
      "name": "name",
      "outputs": [
        {
          "internalType": "string",
          "name": "",
          "type": "string"
        }
      ],
      "stateMutability": "view",
      "type": "function"
    },
    {
      "inputs": [],
      "name": "owner",
      "outputs": [
        {
          "internalType": "address",
          "name": "",
          "type": "address"
        }
      ],
      "stateMutability": "view",
      "type": "function"
    },
    {
      "inputs": [
        {
          "internalType": "uint256",
          "name": "tokenId",
          "type": "uint256"
        }
      ],
      "name": "ownerOf",
      "outputs": [
        {
          "internalType": "address",
          "name": "",
          "type": "address"
        }
      ],
      "stateMutability": "view",
      "type": "function"
    },
    {
      "inputs": [],
      "name": "p5jsScript",
      "outputs": [
        {
          "internalType": "string",
          "name": "result",
          "type": "string"
        }
      ],
      "stateMutability": "view",
      "type": "function"
    },
    {
      "inputs": [],
      "name": "paused",
      "outputs": [
        {
          "internalType": "bool",
          "name": "",
          "type": "bool"
        }
      ],
      "stateMutability": "view",
      "type": "function"
    },
    {
      "inputs": [],
      "name": "renounceOwnership",
      "outputs": [],
      "stateMutability": "nonpayable",
      "type": "function"
    },
    {
      "inputs": [
        {
          "internalType": "uint256",
          "name": "projectId",
          "type": "uint256"
        },
        {
          "internalType": "uint256",
          "name": "_salePrice",
          "type": "uint256"
        }
      ],
      "name": "royaltyInfo",
      "outputs": [
        {
          "internalType": "address",
          "name": "receiver",
          "type": "address"
        },
        {
          "internalType": "uint256",
          "name": "royaltyAmount",
          "type": "uint256"
        }
      ],
      "stateMutability": "view",
      "type": "function"
    },
    {
      "inputs": [
        {
          "internalType": "address",
          "name": "from",
          "type": "address"
        },
        {
          "internalType": "address",
          "name": "to",
          "type": "address"
        },
        {
          "internalType": "uint256",
          "name": "tokenId",
          "type": "uint256"
        }
      ],
      "name": "safeTransferFrom",
      "outputs": [],
      "stateMutability": "nonpayable",
      "type": "function"
    },
    {
      "inputs": [
        {
          "internalType": "address",
          "name": "from",
          "type": "address"
        },
        {
          "internalType": "address",
          "name": "to",
          "type": "address"
        },
        {
          "internalType": "uint256",
          "name": "tokenId",
          "type": "uint256"
        },
        {
          "internalType": "bytes",
          "name": "data",
          "type": "bytes"
        }
      ],
      "name": "safeTransferFrom",
      "outputs": [],
      "stateMutability": "nonpayable",
      "type": "function"
    },
    {
      "inputs": [
        {
          "internalType": "address",
          "name": "operator",
          "type": "address"
        },
        {
          "internalType": "bool",
          "name": "approved",
          "type": "bool"
        }
      ],
      "name": "setApprovalForAll",
      "outputs": [],
      "stateMutability": "nonpayable",
      "type": "function"
    },
    {
      "inputs": [
        {
          "internalType": "uint256",
          "name": "tokenId",
          "type": "uint256"
        }
      ],
      "name": "settleAuction",
      "outputs": [],
      "stateMutability": "nonpayable",
      "type": "function"
    },
    {
      "inputs": [
        {
          "internalType": "bytes4",
          "name": "interfaceId",
          "type": "bytes4"
        }
      ],
      "name": "supportsInterface",
      "outputs": [
        {
          "internalType": "bool",
          "name": "",
          "type": "bool"
        }
      ],
      "stateMutability": "view",
      "type": "function"
    },
    {
      "inputs": [],
      "name": "symbol",
      "outputs": [
        {
          "internalType": "string",
          "name": "",
          "type": "string"
        }
      ],
      "stateMutability": "view",
      "type": "function"
    },
    {
      "inputs": [
        {
          "internalType": "bytes32",
          "name": "seed",
          "type": "bytes32"
        },
        {
          "internalType": "uint256",
          "name": "tokenId",
          "type": "uint256"
        }
      ],
      "name": "tokenHTML",
      "outputs": [
        {
          "internalType": "string",
          "name": "result",
          "type": "string"
        }
      ],
      "stateMutability": "view",
      "type": "function"
    },
    {
      "inputs": [
        {
          "internalType": "uint256",
          "name": "tokenId",
          "type": "uint256"
        }
      ],
      "name": "tokenIdToHash",
      "outputs": [
        {
          "internalType": "bytes32",
          "name": "",
          "type": "bytes32"
        }
      ],
      "stateMutability": "view",
      "type": "function"
    },
    {
      "inputs": [
        {
          "internalType": "uint256",
          "name": "tokenId",
          "type": "uint256"
        }
      ],
      "name": "tokenURI",
      "outputs": [
        {
          "internalType": "string",
          "name": "result",
          "type": "string"
        }
      ],
      "stateMutability": "view",
      "type": "function"
    },
    {
      "inputs": [
        {
          "internalType": "address",
          "name": "from",
          "type": "address"
        },
        {
          "internalType": "address",
          "name": "to",
          "type": "address"
        },
        {
          "internalType": "uint256",
          "name": "tokenId",
          "type": "uint256"
        }
      ],
      "name": "transferFrom",
      "outputs": [],
      "stateMutability": "nonpayable",
      "type": "function"
    },
    {
      "inputs": [
        {
          "internalType": "address",
          "name": "newOwner",
          "type": "address"
        }
      ],
      "name": "transferOwnership",
      "outputs": [],
      "stateMutability": "nonpayable",
      "type": "function"
    },
    {
      "inputs": [
        {
          "internalType": "bytes32",
          "name": "seed",
          "type": "bytes32"
        },
        {
          "internalType": "uint256",
          "name": "tokenId",
          "type": "uint256"
        }
      ],
      "name": "variableScript",
      "outputs": [
        {
          "internalType": "string",
          "name": "result",
          "type": "string"
        }
      ],
      "stateMutability": "view",
      "type": "function"
    },
    {
      "inputs": [],
      "name": "web3Script",
      "outputs": [
        {
          "internalType": "string",
          "name": "result",
          "type": "string"
        }
      ],
      "stateMutability": "view",
      "type": "function"
    },
    {
      "inputs": [
        {
          "internalType": "address",
          "name": "erc20Addr",
          "type": "address"
        }
      ],
      "name": "withdraw",
      "outputs": [],
      "stateMutability": "nonpayable",
      "type": "function"
    }
  ],
  "bytecode": "0x608060405234801561001057600080fd5b506167b180620000216000396000f3fe6080604052600436106103815760003560e01c806374973a41116101d1578063adfc7dae11610102578063cc22e004116100a0578063f2fde38b1161006f578063f2fde38b14610be1578063f3f83ddd14610c01578063f50cbc8b14610c21578063febfd6c314610c4157600080fd5b8063cc22e00414610b2a578063d5563f3114610b58578063e985e9c514610b78578063eb29c23214610bc157600080fd5b8063b88d4fde116100dc578063b88d4fde14610a95578063bd89684314610ab0578063c5c1b8af14610ad1578063c87b56dd14610b0a57600080fd5b8063adfc7dae14610a4e578063b6b55f2514610a6f578063b7751c7114610a8257600080fd5b806394f5a66e1161016f5780639a247cb3116101495780639a247cb3146109785780639c6f35f9146109f8578063a0d41e1114610a19578063a22cb46514610a2e57600080fd5b806394f5a66e1461092357806395d89b411461094357806396e494e81461095857600080fd5b80638da5cb5b116101ab5780638da5cb5b146108b15780638f283970146108d057806393c6cdc0146108f057806394d008ef1461091057600080fd5b806374973a41146108595780637de77ecc1461086e5780638a0162491461089c57600080fd5b80632e993611116102b65780635c975abb1161025457806366215eb41161022357806366215eb4146107e357806368a17bd81461080457806370a0823114610824578063715018a61461084457600080fd5b80635c975abb1461076b578063621a1f7414610783578063624de2a9146107a35780636352211e146107c357600080fd5b806342842e0e1161029057806342842e0e146106cc578063512c91df146106ec57806351cff8d91461070c57806355cd63261461072c57600080fd5b80632e9936111461066b57806332e323261461068b57806333348979146106ab57600080fd5b806317dc6bf61161032357806323b872dd116102fd57806323b872dd146105c35780632824d162146105de5780632a55205a1461060c5780632b7d13de1461064b57600080fd5b806317dc6bf6146104985780631ca9741b1461057e57806322f4596f1461059e57600080fd5b806306fdde031161035f57806306fdde0314610414578063081812fc14610436578063095ea7b314610456578063140f0e071461047857600080fd5b806301bc45c91461038657806301ffc9a7146103c457806306cb20c1146103f4575b600080fd5b34801561039257600080fd5b5061015f546103a7906001600160a01b031681565b6040516001600160a01b0390911681526020015b60405180910390f35b3480156103d057600080fd5b506103e46103df366004615771565b610c61565b60405190151581526020016103bb565b34801561040057600080fd5b506103a761040f36600461578e565b610cb3565b34801561042057600080fd5b50610429610cf9565b6040516103bb9190615812565b34801561044257600080fd5b506103a7610451366004615825565b610d8b565b34801561046257600080fd5b5061047661047136600461585e565b610db2565b005b34801561048457600080fd5b50610476610493366004615957565b610ecd565b3480156104a457600080fd5b506105186104b3366004615825565b61016d60205260009081526040902080546001820154600283015460038401546004850154600586015460068701546007880154600889015460099099015497986001600160a01b0397881698969795969495841694600160a01b90940460ff16938b565b604080519b8c526001600160a01b039a8b1660208d01528b019890985260608a019690965260808901949094529590911660a0870152151560c086015260e0850193909352610100840192909252610120830191909152610140820152610160016103bb565b34801561058a57600080fd5b5061047661059936600461598c565b610f2d565b3480156105aa57600080fd5b506105b56101665481565b6040519081526020016103bb565b3480156105cf57600080fd5b506104766103813660046159a9565b3480156105ea57600080fd5b506105b56105f936600461598c565b6101706020526000908152604090205481565b34801561061857600080fd5b5061062c6106273660046159ea565b610fc1565b604080516001600160a01b0390931683526020830191909152016103bb565b34801561065757600080fd5b5061047661066636600461598c565b610ff2565b34801561067757600080fd5b50610476610686366004615825565b611087565b34801561069757600080fd5b506104296106a63660046159ea565b6110bf565b3480156106b757600080fd5b50610165546103a7906001600160a01b031681565b3480156106d857600080fd5b506104766106e73660046159a9565b6112a8565b3480156106f857600080fd5b506105b561070736600461585e565b6112c3565b34801561071857600080fd5b5061047661072736600461598c565b611321565b34801561073857600080fd5b506105b5610747366004615a0c565b61016f60209081526000938452604080852082529284528284209052825290205481565b34801561077757600080fd5b5060975460ff166103e4565b34801561078f57600080fd5b506105b561079e366004615825565b61155b565b6107b66107b1366004615a45565b611629565b6040516103bb9190615ace565b3480156107cf57600080fd5b506103a76107de366004615825565b6116f6565b3480156107ef57600080fd5b50610161546103a7906001600160a01b031681565b34801561081057600080fd5b506103e461081f366004615825565b611712565b34801561083057600080fd5b506105b561083f36600461598c565b61173a565b34801561085057600080fd5b506104766117c0565b34801561086557600080fd5b506104296117d4565b34801561087a57600080fd5b506105b561088936600461598c565b61016a6020526000908152604090205481565b3480156108a857600080fd5b50610429611a2e565b3480156108bd57600080fd5b5061012d546001600160a01b03166103a7565b3480156108dc57600080fd5b506104766108eb36600461598c565b611abd565b3480156108fc57600080fd5b5061047661090b36600461598c565b611b52565b6105b561091e366004615a45565b611be7565b34801561092f57600080fd5b5061047661093e366004615b12565b611ef4565b34801561094f57600080fd5b5061042961211a565b34801561096457600080fd5b506103e4610973366004615825565b612129565b34801561098457600080fd5b50610518610993366004615825565b61016e60205260009081526040902080546001820154600283015460038401546004850154600586015460068701546007880154600889015460099099015497986001600160a01b0397881698969795969495841694600160a01b90940460ff16938b565b348015610a0457600080fd5b50610164546103a7906001600160a01b031681565b348015610a2557600080fd5b50610429612215565b348015610a3a57600080fd5b50610476610a49366004615bf2565b612446565b348015610a5a57600080fd5b50610160546103a7906001600160a01b031681565b610476610a7d366004615825565b612451565b610476610a903660046159ea565b612776565b348015610aa157600080fd5b50610476610381366004615c2b565b348015610abc57600080fd5b50610167546103a7906001600160a01b031681565b348015610add57600080fd5b506105b5610aec366004615cab565b61016c60209081526000928352604080842090915290825290205481565b348015610b1657600080fd5b50610429610b25366004615825565b612cea565b348015610b3657600080fd5b506105b5610b45366004615825565b6101696020526000908152604090205481565b348015610b6457600080fd5b50610476610b73366004615825565b612eac565b348015610b8457600080fd5b506103e4610b93366004615cab565b6001600160a01b039182166000908152606a6020908152604080832093909416825291909152205460ff1690565b348015610bcd57600080fd5b50610429610bdc3660046159ea565b612f53565b348015610bed57600080fd5b50610476610bfc36600461598c565b613025565b348015610c0d57600080fd5b50610476610c1c36600461598c565b61309b565b348015610c2d57600080fd5b50610476610c3c3660046159ea565b613130565b348015610c4d57600080fd5b50610476610c5c36600461598c565b6131b3565b60006001600160e01b031982166380ac58cd60e01b1480610c9257506001600160e01b03198216635b5e139f60e01b145b80610cad57506301ffc9a760e01b6001600160e01b03198316145b92915050565b6101716020528260005260406000206020528160005260406000208181548110610cdc57600080fd5b6000918252602090912001546001600160a01b0316925083915050565b606060658054610d0890615cd9565b80601f0160208091040260200160405190810160405280929190818152602001828054610d3490615cd9565b8015610d815780601f10610d5657610100808354040283529160200191610d81565b820191906000526020600020905b815481529060010190602001808311610d6457829003601f168201915b5050505050905090565b6000610d9682613248565b506000908152606960205260409020546001600160a01b031690565b6000610dbd82613298565b9050806001600160a01b0316836001600160a01b03161415610e305760405162461bcd60e51b815260206004820152602160248201527f4552433732313a20617070726f76616c20746f2063757272656e74206f776e656044820152603960f91b60648201526084015b60405180910390fd5b336001600160a01b0382161480610e4c5750610e4c8133610b93565b610ebe5760405162461bcd60e51b815260206004820152603d60248201527f4552433732313a20617070726f76652063616c6c6572206973206e6f7420746f60448201527f6b656e206f776e6572206f7220617070726f76656420666f7220616c6c0000006064820152608401610e27565b610ec883836132f8565b505050565b61015f5460408051808201909152600381526231303160e81b6020820152906001600160a01b03163314610f145760405162461bcd60e51b8152600401610e279190615812565b508051610f29906101639060208401906156c2565b5050565b61015f546001600160a01b031633148015610f5057506001600160a01b03811615155b6040518060400160405280600381526020016231303160e81b81525090610f8a5760405162461bcd60e51b8152600401610e279190615812565b50610161546001600160a01b03828116911614610fbe5761016180546001600160a01b0319166001600160a01b0383161790555b50565b61015f546001600160a01b03166000612710610fdf846101f4615d2a565b610fe99190615d49565b90509250929050565b61015f546001600160a01b03163314801561101557506001600160a01b03811615155b6040518060400160405280600381526020016231303160e81b8152509061104f5760405162461bcd60e51b8152600401610e279190615812565b50610165546001600160a01b03828116911614610fbe5761016580546001600160a01b0383166001600160a01b031990911617905550565b61108f6133a1565b6110b58161109c836116f6565b6001600160a01b0316336001600160a01b0316146133fb565b610fbe600160fb55565b6040805180820190915260128152711e39b1b934b83a1034b21e93bb30b939939f60711b6020820152806110f284613a17565b604051602001611103929190615d6b565b60408051601f1981840301815291905261016454909150819061112e906001600160a01b0316613a63565b60405160200161113f929190615dbf565b60408051808303601f19018152908290526101605463bf40fac160e01b835260206004840152602160248401527f535741505f504f4f4c5f474d5f4554485f434f4e54524143545f4144445245536044840152605360f81b60648401529092506001600160a01b031690600090829063bf40fac190608401602060405180830381865afa1580156111d4573d6000803e3d6000fd5b505050506040513d601f19601f820116820180604052508101906111f89190615e26565b90508261120482613a63565b604051602001611215929190615e43565b60405160208183030381529060405292508261123030613a63565b604051602001611241929190615ebb565b60405160208183030381529060405292508261125c85613a79565b60405160200161126d929190615f22565b60405160208183030381529060405292508260405160200161128f9190615f7a565b6040516020818303038152906040529250505092915050565b610ec883838360405180602001604052806000815250600080fd5b6101675461016454604080513060208083019190915246828401526001600160a01b03948516606083015295841660808201529290911660a083015260c0808301939093528051808303909301835260e09091019052805191012090565b6113296133a1565b61015f5481906001600160a01b0316331415611439576001600160a01b0382166000908152610170602052604090205461136257600080fd5b6001600160a01b03828116600090815261017060205260409081902054905163a9059cbb60e01b815233600482015260248101919091529082169063a9059cbb906044016020604051808303816000875af11580156113c5573d6000803e3d6000fd5b505050506040513d601f19601f820116820180604052508101906113e99190615fa7565b61141a5760405162461bcd60e51b8152602060048201526002602482015261573160f01b6044820152606401610e27565b6001600160a01b03821660009081526101706020526040812055611550565b33600090815261016c602090815260408083206001600160a01b038616845290915290205461146757600080fd5b33600081815261016c602090815260408083206001600160a01b03878116855292529182902054915163a9059cbb60e01b81526004810193909352602483019190915282169063a9059cbb906044016020604051808303816000875af11580156114d5573d6000803e3d6000fd5b505050506040513d601f19601f820116820180604052508101906114f99190615fa7565b61152a5760405162461bcd60e51b81526020600482015260026024820152612b9960f11b6044820152606401610e27565b33600090815261016c602090815260408083206001600160a01b03861684529091528120555b50610fbe600160fb55565b600061156682613b16565b6040518060400160405280600381526020016232303960e81b815250906115a05760405162461bcd60e51b8152600401610e279190615812565b5060008281526101686020526040902054600160a01b900460a01b6001600160a01b0319166115d157506000919050565b6000828152610168602090815260409182902054915161160c92600160a01b900460a01b91016001600160a01b031991909116815260200190565b604051602081830303815290604052805190602001209050919050565b606060008467ffffffffffffffff8111156116465761164661588a565b60405190808252806020026020018201604052801561166f578160200160208202803683370190505b5061015f549091506001600160a01b0316331461168b57600080fd5b60005b858110156116ea5760006116a58860008888611be7565b9050808383815181106116ba576116ba615fc4565b60200260200101818152505062030d405a10156116d757506116ea565b50806116e281615fda565b91505061168e565b5090505b949350505050565b600090815261016860205260409020546001600160a01b031690565b600061171c613b34565b61172533613bdf565b1061173257506001919050565b506000919050565b60006001600160a01b0382166117a45760405162461bcd60e51b815260206004820152602960248201527f4552433732313a2061646472657373207a65726f206973206e6f7420612076616044820152683634b21037bbb732b960b91b6064820152608401610e27565b506001600160a01b031660009081526068602052604090205490565b6117c8613c4f565b6117d26000613caa565b565b60606040518060600160405280603781526020016167456037913961016554604080518082018252600d81526c70356a7340312e352e302e6a7360981b602082015261016054915163bf40fac160e01b81529394506001600160a01b039283169390929190911690600090829063bf40fac190611877906004016020808252600f908201526e29a1a924a82a2fa82927ab24a222a960891b604082015260600190565b602060405180830381865afa158015611894573d6000803e3d6000fd5b505050506040513d601f19601f820116820180604052508101906118b89190615e26565b90506000846001600160a01b031663ba67e64183866040518363ffffffff1660e01b81526004016118ea929190615ff5565b602060405180830381865afa158015611907573d6000803e3d6000fd5b505050506040513d601f19601f8201168201806040525081019061192b9190616019565b9050611938600182616032565b905060005b81811015611a035761015f5460405163283959d960e21b815260009182916001600160a01b038a81169263a0e567649261198192909116908b90889060040161604a565b600060405180830381865afa15801561199e573d6000803e3d6000fd5b505050506040513d6000823e601f3d908101601f191682016040526119c691908101906160ae565b9150915088826040516020016119dd929190616109565b6040516020818303038152906040529850505080806119fb90615fda565b91505061193d565b5085604051602001611a159190615f7a565b6040516020818303038152906040529550505050505090565b6101638054611a3c90615cd9565b80601f0160208091040260200160405190810160405280929190818152602001828054611a6890615cd9565b8015611ab55780601f10611a8a57610100808354040283529160200191611ab5565b820191906000526020600020905b815481529060010190602001808311611a9857829003601f168201915b505050505081565b61015f546001600160a01b031633148015611ae057506001600160a01b03811615155b6040518060400160405280600381526020016231303160e81b81525090611b1a5760405162461bcd60e51b8152600401610e279190615812565b5061015f546001600160a01b03828116911614610fbe5761015f80546001600160a01b0383166001600160a01b031990911617905550565b61015f546001600160a01b031633148015611b7557506001600160a01b03811615155b6040518060400160405280600381526020016231303160e81b81525090611baf5760405162461bcd60e51b8152600401610e279190615812565b50610164546001600160a01b03828116911614610fbe5761016480546001600160a01b0383166001600160a01b031990911617905550565b6000611bf16133a1565b6101665461016254106040518060400160405280600381526020016232303360e81b81525090611c345760405162461bcd60e51b8152600401610e279190615812565b5061015f546001600160a01b03163314611d7457336001600160a01b03861614611c885760405162461bcd60e51b815260206004820152600560248201526447505f495560d81b6044820152606401610e27565b611c918561173a565b15611cc45760405162461bcd60e51b8152602060048201526003602482015262312d3160e81b6044820152606401610e27565b6001600160a01b038516600090815261016a602052604090205415611d0f5760405162461bcd60e51b81526020600482015260016024820152604d60f81b6044820152606401610e27565b611d50858585858080601f016020809104026020016040519081016040528093929190818152602001838380828437600092019190915250613cfd92505050565b50506001600160a01b038516600090815261016a6020526040902060019055611e2f565b61015f546001600160a01b03868116911614611e2f57611d938561173a565b15611dc65760405162461bcd60e51b8152602060048201526003602482015262312d3160e81b6044820152606401610e27565b6001600160a01b038516600090815261016a602052604090205415611e115760405162461bcd60e51b81526020600482015260016024820152604d60f81b6044820152606401610e27565b6001600160a01b038516600090815261016a60205260409020600190555b6101628054906000611e4083615fda565b9190505550610162549050611e558582613d76565b61016154604051631da00d8560e01b8152600481018390526001600160a01b03909116906000908290631da00d85906024016020604051808303816000875af1158015611ea6573d6000803e3d6000fd5b505050506040513d601f19601f82011682018060405250810190611eca9190616019565b9050611ed68382613d90565b50506000818152610169602052604090204390556116ee600160fb55565b600054610100900460ff1615808015611f145750600054600160ff909116105b80611f2e5750303b158015611f2e575060005460ff166001145b611f915760405162461bcd60e51b815260206004820152602e60248201527f496e697469616c697a61626c653a20636f6e747261637420697320616c72656160448201526d191e481a5b9a5d1a585b1a5e995960921b6064820152608401610e27565b6000805460ff191660011790558015611fb4576000805461ff0019166101001790555b60408051808201909152600381526203130360ec1b60208201526001600160a01b038816611ff55760405162461bcd60e51b8152600401610e279190615812565b5060408051808201909152600381526203130360ec1b60208201526001600160a01b0387166120375760405162461bcd60e51b8152600401610e279190615812565b5061016080546001600160a01b03199081166001600160a01b038981169190911790925561015f805482168a841617905561016180548216888416179055610164805482168784161790556103e8610166556101658054821686841617905561016780549091169184169190911790556120b18989613e5b565b6120b9613e8c565b6120c1613ebb565b6120c9613eea565b801561210f576000805461ff0019169055604051600181527f7f26b83ff96e1f2b6a682f133852f6798a09c465da95921460cefb38474024989060200160405180910390a15b505050505050505050565b606060668054610d0890615cd9565b600061213482613b16565b61214057506000919050565b612148613f19565b600083815261016960205260409020546121629043616138565b1161216f57506000919050565b61015f546001600160a01b0316612185836116f6565b6001600160a01b0316141561219c57506000919050565b306121a6836116f6565b6001600160a01b031614156121df57600082815261016d6020526040902060050154600160a01b900460ff16156121df57506001919050565b60006121e9613b34565b9050806121fd6121f8856116f6565b613bdf565b101561220c5750600192915050565b50600092915050565b60606040518060600160405280603781526020016167456037913961016554604080518082018252600f81526e776562336a7340312e322e372e6a7360881b602082015261016054915163bf40fac160e01b81529394506001600160a01b039283169390929190911690600090829063bf40fac1906122ba906004016020808252600f908201526e29a1a924a82a2fa82927ab24a222a960891b604082015260600190565b602060405180830381865afa1580156122d7573d6000803e3d6000fd5b505050506040513d601f19601f820116820180604052508101906122fb9190615e26565b90506000846001600160a01b031663ba67e64183866040518363ffffffff1660e01b815260040161232d929190615ff5565b602060405180830381865afa15801561234a573d6000803e3d6000fd5b505050506040513d601f19601f8201168201806040525081019061236e9190616019565b905061237b600182616032565b905060005b81811015611a035761015f5460405163283959d960e21b815260009182916001600160a01b038a81169263a0e56764926123c492909116908b90889060040161604a565b600060405180830381865afa1580156123e1573d6000803e3d6000fd5b505050506040513d6000823e601f3d908101601f1916820160405261240991908101906160ae565b915091508882604051602001612420929190616109565b60405160208183030381529060405298505050808061243e90615fda565b915050612380565b610f29338383613fbb565b6124596133a1565b6101605460405163bf40fac160e01b815260206004820152601860248201527729a7aaa62fa0aaa1aa24a7a72fa2a92199182faa27a5a2a760411b60448201526000916001600160a01b03169063bf40fac190606401602060405180830381865afa1580156124cc573d6000803e3d6000fd5b505050506040513d601f19601f820116820180604052508101906124f09190615e26565b90506001600160a01b03811661250f5750610164546001600160a01b03165b604051636eb1769f60e11b8152336004820152306024820152819083906001600160a01b0383169063dd62ed3e90604401602060405180830381865afa15801561255d573d6000803e3d6000fd5b505050506040513d601f19601f820116820180604052508101906125819190616019565b10156125cf5760405162461bcd60e51b815260206004820152601c60248201527f6e6f7420656e6f75676820616c6c6f7720657263323020746f6b656e000000006044820152606401610e27565b6040516370a0823160e01b815233600482015283906001600160a01b038316906370a0823190602401602060405180830381865afa158015612615573d6000803e3d6000fd5b505050506040513d601f19601f820116820180604052508101906126399190616019565b10156126805760405162461bcd60e51b81526020600482015260166024820152753737ba1032b737bab3b41032b9319918103a37b5b2b760511b6044820152606401610e27565b6040516323b872dd60e01b8152336004820152306024820152604481018490526001600160a01b038216906323b872dd906064016020604051808303816000875af11580156126d3573d6000803e3d6000fd5b505050506040513d601f19601f820116820180604052508101906126f79190615fa7565b6127435760405162461bcd60e51b815260206004820152601d60248201527f63616e206e6f74206765742065726332302066726f6d206269646465720000006044820152606401610e27565b5033600090815261016c602090815260408083206001600160a01b0394909416835292905220819055610fbe600160fb55565b61277e6133a1565b61278782611712565b6127bc5760405162461bcd60e51b8152600401610e279060208082526004908201526304e5f43360e41b604082015260600190565b6127c53361173a565b156127fb5760405162461bcd60e51b8152602060048201526006602482015265272fa1982f9960d11b6044820152606401610e27565b600082815261016f6020908152604080832061016d835281842060090154845282528083203384529091529020546128705760008281526101716020908152604080832061016d835281842060090154845282528220805460018101825590835291200180546001600160a01b031916331790555b600082815261016d60205260409020600181015490546001600160a01b039091169083146128d55760405162461bcd60e51b81526020600482015260126024820152713737ba103ab8103337b91030bab1ba34b7b760711b6044820152606401610e27565b600083815261016d602052604090206004015443106129285760405162461bcd60e51b815260206004820152600f60248201526e105d58dd1a5bdb88195e1c1a5c9959608a1b6044820152606401610e27565b33600090815261016c6020908152604080832086845261016d8352818420600101546001600160a01b031684529091529020548211156129aa5760405162461bcd60e51b815260206004820152601e60248201527f6e6f7420656e6f7567682062616c616e636520657263323020746f6b656e00006044820152606401610e27565b600083815261016f6020908152604080832061016d83528184206009015484528252808320338452909152812054906129e38285616032565b600086815261016d60205260409020600701549091508111612a475760405162461bcd60e51b815260206004820152601f60248201527f4d7573742073656e64206174206c6561737420726573657276655072696365006044820152606401610e27565b600085815261016d602052604090206008810154600290910154606491612a6d91615d2a565b612a779190615d49565b600086815261016d6020526040902060020154612a949190616032565b8111612b0a576040805162461bcd60e51b81526020600482015260248101919091527f4d7573742073656e64206d6f7265207468616e206c617374206269642062792060448201527f6d696e426964496e6372656d656e7450657263656e7461676520616d6f756e746064820152608401610e27565b33600090815261016c6020908152604080832088845261016d8352818420600101546001600160a01b0316845290915281208054869290612b4c908490616138565b9091555050600085815261016f6020908152604080832061016d8084528285206009810180548752928552838620338088529086528487208890556002808301899055600580840180546001600160a01b0319908116909417815586548a5261016e8952878a209092018a905590549454885294872090940180549094166001600160a01b039093169290921790925588845291526006810154600490910154612bf7904390616138565b1090508015612c3157600086815261016d6020526040902060060154612c1d9043616032565b600087815261016d60205260409020600401555b600086815261016d602052604090819020805491517ffd09e259e5c48be16f7dd63468e19266c684a9f3dce3b31881dbc1f909fc0d7c91612c789133918a918791906161e5565b60405180910390a28015612cd657600086815261016d60205260409081902080546004820154925190927f4c1666cb87ed4fd7706cb19b1e3160612601aca7235c307fe64a11bc8db0f41f92612ccd9261621b565b60405180910390a25b50505050610f29600160fb55565b50505050565b6060612cf582613b16565b6040518060400160405280600381526020016232303960e81b81525090612d2f5760405162461bcd60e51b8152600401610e279190615812565b5060405163188687dd60e21b815260048101839052600090309063621a1f7490602401602060405180830381865afa158015612d6f573d6000803e3d6000fd5b505050506040513d601f19601f82011682018060405250810190612d939190616019565b61016054604051637594e11960e11b815260048101839052602481018690529192506001600160a01b031690600090309063eb29c23290604401600060405180830381865afa158015612dea573d6000803e3d6000fd5b505050506040513d6000823e601f3d908101601f19168201604052612e129190810190616230565b9050612e3c81604051602001612e289190616279565b60405160208183030381529060405261408a565b604051602001612e4c9190616295565b6040516020818303038152906040529050600081604051602001612e7091906162d3565b604051602081830303815290604052905080604051602001612e92919061631a565b604051602081830303815290604052945050505050919050565b612eb46133a1565b612ebd81612129565b612ef25760405162461bcd60e51b8152600401610e279060208082526004908201526304e5f43360e41b604082015260600190565b612efa613f19565b60008281526101696020526040902054612f149043616138565b11612f4a5760405162461bcd60e51b81526020600482015260066024820152654e5f43305f3360d01b6044820152606401610e27565b6110b5816141f0565b60408051808201909152600c81526b1e343a36b61f1e3432b0b21f60a11b602082015280612f7f6117d4565b604051602001612f90929190616109565b604051602081830303815290604052905080612faa612215565b604051602001612fbb929190616109565b604051602081830303815290604052905080612fd784846110bf565b604051602001612fe8929190616109565b60405160208183030381529060405290508061016360405160200161300e92919061639c565b604051602081830303815290604052905092915050565b61302d613c4f565b6001600160a01b0381166130925760405162461bcd60e51b815260206004820152602660248201527f4f776e61626c653a206e6577206f776e657220697320746865207a65726f206160448201526564647265737360d01b6064820152608401610e27565b610fbe81613caa565b61015f546001600160a01b0316331480156130be57506001600160a01b03811615155b6040518060400160405280600381526020016231303160e81b815250906130f85760405162461bcd60e51b8152600401610e279190615812565b50610167546001600160a01b03828116911614610fbe5761016780546001600160a01b0383166001600160a01b031990911617905550565b6131386133a1565b6131433383836148a4565b600082815261016f602090815260408083208484528252808320338085529083529281902054815193845291830191909152810182905282907f3efeb5ca9b10c05ba2df4bcac38445e4a4e8a996887f004e5036d254c14a98649060600160405180910390a2610f29600160fb55565b61015f546001600160a01b0316331480156131d657506001600160a01b03811615155b6040518060400160405280600381526020016231303160e81b815250906132105760405162461bcd60e51b8152600401610e279190615812565b50610160546001600160a01b03828116911614610fbe5761016080546001600160a01b0383166001600160a01b031990911617905550565b61325181613b16565b610fbe5760405162461bcd60e51b8152602060048201526018602482015277115490cdcc8c4e881a5b9d985b1a59081d1bdad95b88125160421b6044820152606401610e27565b6000818152606760205260408120546001600160a01b031680610cad5760405162461bcd60e51b8152602060048201526018602482015277115490cdcc8c4e881a5b9d985b1a59081d1bdad95b88125160421b6044820152606401610e27565b600081815260696020526040902080546001600160a01b0319166001600160a01b038416908117909155819061332d82613298565b6001600160a01b03167f8c5be1e5ebec7d5bd14f71427d1e84f3dd0314c0f7b2291e5b200ac8c7c3b92560405160405180910390a45050565b6133718383836149c0565b60009081526101686020526040902080546001600160a01b0319166001600160a01b039290921691909117905550565b600260fb5414156133f45760405162461bcd60e51b815260206004820152601f60248201527f5265656e7472616e637947756172643a207265656e7472616e742063616c6c006044820152606401610e27565b600260fb55565b600082815261016d60205260409020600301546134515760405162461bcd60e51b815260206004820152601460248201527320bab1ba34b7b7103430b9b713ba103132b3bab760611b6044820152606401610e27565b600082815261016d6020526040902060050154600160a01b900460ff16156134bb5760405162461bcd60e51b815260206004820181905260248201527f41756374696f6e2068617320616c7265616479206265656e20736574746c65646044820152606401610e27565b600082815261016d602052604090206004015443101561351d5760405162461bcd60e51b815260206004820152601860248201527f41756374696f6e206861736e277420636f6d706c6574656400000000000000006044820152606401610e27565b600082815261016d602081815260408084206003810185905560058082018054600160a01b60ff60a01b1991821681178355600990940154885261016e865293872090910180549093169091179091559285905252546001600160a01b03161561366f57600082815261016d60205260409020600501546135a6906001600160a01b031661173a565b6135dc57600082815261016d60205260409020600581015490546135d79130916001600160a01b0390911690613366565b61366f565b600082815261016d60209081526040808320600281015460058201546001600160a01b03908116865261016c85528386206001909301541685529252822080549192909161362b908490616032565b9091555050600082815261016f6020908152604080832061016d8352818420600981015485529083528184206005909101546001600160a01b031684529091528120555b600082815261016d60205260409020600201541561386a576101605460405163bf40fac160e01b815260206004820152601c60248201527f534f554c5f41554354494f4e5f474d5f44414f5f54726561737572790000000060448201526000916001600160a01b03169063bf40fac190606401602060405180830381865afa1580156136ff573d6000803e3d6000fd5b505050506040513d601f19601f820116820180604052508101906137239190615e26565b90506001600160a01b03811661373857600080fd5b600083815261016d60205260408120600201546127109061375b906103e8615d2a565b6137659190615d49565b600085815261016d6020526040902060018101546002909101549192506001600160a01b03169063a9059cbb90849061379f908590616138565b6040516001600160e01b031960e085901b1681526001600160a01b03909216600483015260248201526044016020604051808303816000875af11580156137ea573d6000803e3d6000fd5b505050506040513d601f19601f8201168201806040525081019061380e9190615fa7565b50600084815261016d6020908152604080832060018101546001600160a01b03908116855261017084528285209590955587845261016f8352818420600982015485528352818420600590910154909416835292905290812055505b60008281526101716020908152604080832061016d8352818420600901548452909152902054156139ac5760005b60008381526101716020908152604080832061016d83528184206009015484529091529020548110156139aa57600083815261016d60209081526040808320600581015461017184528285206009909201548552925290912080546001600160a01b03909216918390811061390f5761390f615fc4565b6000918252602090912001546001600160a01b0316146139985760008381526101716020908152604080832061016d83528184206009015484529091529020805461399891908390811061396557613965615fc4565b600091825260208083209091015486835261016d9091526040909120600901546001600160a01b039091169085906148a4565b806139a281615fda565b915050613898565b505b600082815261016d602052604090819020805460058201546002830154935191937f727cff623966c8adc61ac68940e8c898c04ff7ced5d69d9735d51f0589daf53293613a04936001600160a01b039093169261644d565b60405180910390a25050565b600160fb55565b6060613a2282614b31565b613a2f608084901b614b31565b60405161060f60f31b6020820152602281019290925260428201526062016040516020818303038152906040529050919050565b6060610cad6001600160a01b0383166014614ce3565b60606000613a8683614e86565b600101905060008167ffffffffffffffff811115613aa657613aa661588a565b6040519080825280601f01601f191660200182016040528015613ad0576020820181803683370190505b5090508181016020015b600019016f181899199a1a9b1b9c1cb0b131b232b360811b600a86061a8153600a8504945084613b0957613b0e565b613ada565b509392505050565b600090815261016860205260409020546001600160a01b0316151590565b61016054604051636d12dce160e01b815260206004820152601160248201527014d3d55317d1d357d512149154d213d311607a1b604482015260009182916001600160a01b0390911690636d12dce190606401602060405180830381865afa158015613ba4573d6000803e3d6000fd5b505050506040513d601f19601f82011682018060405250810190613bc89190616019565b905080613bda5750670de0b6b3a76400005b919050565b610164546040516370a0823160e01b81526001600160a01b03838116600483015260009216906370a0823190602401602060405180830381865afa158015613c2b573d6000803e3d6000fd5b505050506040513d601f19601f82011682018060405250810190610cad9190616019565b61012d546001600160a01b031633146117d25760405162461bcd60e51b815260206004820181905260248201527f4f776e61626c653a2063616c6c6572206973206e6f7420746865206f776e65726044820152606401610e27565b61012d80546001600160a01b038381166001600160a01b0319831681179093556040519116919082907f8be0079c531659141344cd1fd0a4f28419497f9722a3daafe3b4186f6b6457e090600090a35050565b6000806000613d0c86866112c3565b90506000613d22613d1c83614f5e565b86614f99565b610167549091506001600160a01b03808316911614613d6b5760405162461bcd60e51b815260206004820152600560248201526447505f4e4160d81b6044820152606401610e27565b969095509350505050565b610f29828260405180602001604052806000815250614fb5565b60008281526101686020908152604091829020548251808401909352600383526219181b60e91b91830191909152600160a01b900460a01b6001600160a01b03191615613df05760405162461bcd60e51b8152600401610e279190615812565b5060408051808201909152600381526232303760e81b602082015281613e295760405162461bcd60e51b8152600401610e279190615812565b5060009182526101686020526040909120805460a09290921c600160a01b026001600160a01b03909216919091179055565b600054610100900460ff16613e825760405162461bcd60e51b8152600401610e2790616472565b610f298282614fe8565b600054610100900460ff16613eb35760405162461bcd60e51b8152600401610e2790616472565b6117d2615036565b600054610100900460ff16613ee25760405162461bcd60e51b8152600401610e2790616472565b6117d261505d565b600054610100900460ff16613f115760405162461bcd60e51b8152600401610e2790616472565b6117d2615090565b61016054604051636d12dce160e01b815260206004820152600f60248201526e534f554c5f474d5f5245534552564560881b604482015260009182916001600160a01b0390911690636d12dce190606401602060405180830381865afa158015613f87573d6000803e3d6000fd5b505050506040513d601f19601f82011682018060405250810190613fab9190616019565b905080613bda57506103f0919050565b816001600160a01b0316836001600160a01b0316141561401d5760405162461bcd60e51b815260206004820152601960248201527f4552433732313a20617070726f766520746f2063616c6c6572000000000000006044820152606401610e27565b6001600160a01b038381166000818152606a6020908152604080832094871680845294825291829020805460ff191686151590811790915591519182527f17307eab39ab6107e8899845ad3d59bd9653f200f220920489ca2b5937696c31910160405180910390a3505050565b60608151600014156140aa57505060408051602081019091526000815290565b600060405180606001604052806040815260200161670560409139905060006003845160026140d99190616032565b6140e39190615d49565b6140ee906004615d2a565b905060006140fd826020616032565b67ffffffffffffffff8111156141155761411561588a565b6040519080825280601f01601f19166020018201604052801561413f576020820181803683370190505b509050818152600183018586518101602084015b818310156141ab576003830192508251603f8160121c168501518253600182019150603f81600c1c168501518253600182019150603f8160061c168501518253600182019150603f8116850151825350600101614153565b6003895106600181146141c557600281146141d6576141e2565b613d3d60f01b6001198301526141e2565b603d60f81b6000198301525b509398975050505050505050565b6141f981613b16565b61420257600080fd5b600081815261016d6020526040902060050154600160a01b900460ff16806142375750600081815261016d6020526040902054155b6142a95760405162461bcd60e51b815260206004820152603860248201527f41756374696f6e2068617320616c7265616479206265656e20736574746c656460448201527f206f72203173742041756374696f6e206f6620746f6b656e00000000000000006064820152608401610e27565b4360006142b4613f19565b6142be9083616032565b610160805460408051928301815260006020808501829052848301829052606085018290526080850182905260a0850182905260c0850182905260e0850182905261010085018290526101208501829052610140850191909152878452905163bf40fac160e01b81526004810191909152601860248201527729a7aaa62fa0aaa1aa24a7a72fa2a92199182faa27a5a2a760411b60448201529293506001600160a01b031691829063bf40fac190606401602060405180830381865afa15801561438c573d6000803e3d6000fd5b505050506040513d601f19601f820116820180604052508101906143b09190615e26565b6001600160a01b0316602082018190526143d757610164546001600160a01b031660208201525b60006040828101829052606083018690526080830185905260a0830182905260c083019190915251636d12dce160e01b815260206004820152601860248201527f534f554c5f41554354494f4e5f54494d455f425546464552000000000000000060448201526001600160a01b03831690636d12dce190606401602060405180830381865afa15801561446e573d6000803e3d6000fd5b505050506040513d601f19601f820116820180604052508101906144929190616019565b60e0820152604051636d12dce160e01b815260206004820152601a60248201527f534f554c5f41554354494f4e5f524553455256455f505249434500000000000060448201526001600160a01b03831690636d12dce190606401602060405180830381865afa158015614509573d6000803e3d6000fd5b505050506040513d601f19601f8201168201806040525081019061452d9190616019565b610100820152604051636d12dce160e01b815260206004820152602560248201527f534f554c5f41554354494f4e5f4d494e5f4249445f494e4352454153455f50456044820152641490d1539560da1b60648201526001600160a01b03831690636d12dce190608401602060405180830381865afa1580156145b3573d6000803e3d6000fd5b505050506040513d601f19601f820116820180604052508101906145d79190616019565b61012082015261016b80549060006145ee83615fda565b91905055506145ff61016b54613a79565b61460c8260600151613a79565b6146198360800151613a79565b61462288613a79565b604051602001614635949392919061650f565b60405160208183030381529060405280519060200120816101400181815250508061016d60008781526020019081526020016000206000820151816000015560208201518160010160006101000a8154816001600160a01b0302191690836001600160a01b0316021790555060408201518160020155606082015181600301556080820151816004015560a08201518160050160006101000a8154816001600160a01b0302191690836001600160a01b0316021790555060c08201518160050160146101000a81548160ff02191690831515021790555060e082015181600601556101008201518160070155610120820151816008015561014082015181600901559050508061016e600083610140015181526020019081526020016000206000820151816000015560208201518160010160006101000a8154816001600160a01b0302191690836001600160a01b0316021790555060408201518160020155606082015181600301556080820151816004015560a08201518160050160006101000a8154816001600160a01b0302191690836001600160a01b0316021790555060c08201518160050160146101000a81548160ff02191690831515021790555060e08201518160060155610100820151816007015561012082015181600801556101408201518160090155905050306001600160a01b0316614837866116f6565b6001600160a01b03161461485857614858614851866116f6565b3087613366565b847fb404e07dbfe9071da655c32567071b2ee4e88867784a1b39f01a8457787e504f85853385610140015186604051614895959493929190616566565b60405180910390a25050505050565b600081815261016e6020526040902060050154600160a01b900460ff166148ca57600080fd5b600081815261016e60205260409020600501546001600160a01b03848116911614156148f557600080fd5b600082815261016f6020908152604080832084845282528083206001600160a01b038716845290915290205461492a57600080fd5b600082815261016f6020908152604080832084845282528083206001600160a01b0380881685529083528184205461016c845282852086865261016e855283862060010154909216855292528220805491929091614989908490616032565b9091555050600091825261016f602090815260408084209284529181528183206001600160a01b0390941683529290925290812055565b826001600160a01b03166149d382613298565b6001600160a01b0316146149f95760405162461bcd60e51b8152600401610e2790616638565b6001600160a01b038216614a5b5760405162461bcd60e51b8152602060048201526024808201527f4552433732313a207472616e7366657220746f20746865207a65726f206164646044820152637265737360e01b6064820152608401610e27565b614a6883838360016151bb565b826001600160a01b0316614a7b82613298565b6001600160a01b031614614aa15760405162461bcd60e51b8152600401610e2790616638565b600081815260696020908152604080832080546001600160a01b03199081169091556001600160a01b0387811680865260688552838620805460001901905590871680865283862080546001019055868652606790945282852080549092168417909155905184937fddf252ad1be2c89b69c2b068fc378daa952ba7f163c4a11628f55a4df523b3ef91a4505050565b7aff00000000000000ff00000000000000ff00000000000000ff00006bffffffff0000000000000000604083901c90811663ffffffff60c01b84161760201c63ffffffff60601b919091166001600160e01b031984161717601081901c9182167eff00000000000000ff00000000000000ff00000000000000ff000000000000821617600890811c7bff00000000000000ff00000000000000ff00000000000000ff000000939093167fff00000000000000ff00000000000000ff00000000000000ff000000000000009290921691909117919091179081901c7e0f000f000f000f000f000f000f000f000f000f000f000f000f000f000f000f167f0f000f000f000f000f000f000f000f000f000f000f000f000f000f000f000f00600492831c161790614c7f827f0606060606060606060606060606060606060606060606060606060606060606616032565b901c7f0f0f0f0f0f0f0f0f0f0f0f0f0f0f0f0f0f0f0f0f0f0f0f0f0f0f0f0f0f0f0f0f166007614caf9190615d2a565b614cd9827f3030303030303030303030303030303030303030303030303030303030303030616032565b610cad9190616032565b60606000614cf2836002615d2a565b614cfd906002616032565b67ffffffffffffffff811115614d1557614d1561588a565b6040519080825280601f01601f191660200182016040528015614d3f576020820181803683370190505b509050600360fc1b81600081518110614d5a57614d5a615fc4565b60200101906001600160f81b031916908160001a905350600f60fb1b81600181518110614d8957614d89615fc4565b60200101906001600160f81b031916908160001a9053506000614dad846002615d2a565b614db8906001616032565b90505b6001811115614e30576f181899199a1a9b1b9c1cb0b131b232b360811b85600f1660108110614dec57614dec615fc4565b1a60f81b828281518110614e0257614e02615fc4565b60200101906001600160f81b031916908160001a90535060049490941c93614e298161667d565b9050614dbb565b508315614e7f5760405162461bcd60e51b815260206004820181905260248201527f537472696e67733a20686578206c656e67746820696e73756666696369656e746044820152606401610e27565b9392505050565b60008072184f03e93ff9f4daa797ed6e38ed64bf6a1f0160401b8310614ec55772184f03e93ff9f4daa797ed6e38ed64bf6a1f0160401b830492506040015b6d04ee2d6d415b85acef81000000008310614ef1576d04ee2d6d415b85acef8100000000830492506020015b662386f26fc100008310614f0f57662386f26fc10000830492506010015b6305f5e1008310614f27576305f5e100830492506008015b6127108310614f3b57612710830492506004015b60648310614f4d576064830492506002015b600a8310610cad5760010192915050565b6040517f19457468657265756d205369676e6564204d6573736167653a0a3332000000006020820152603c8101829052600090605c0161160c565b6000806000614fa8858561522e565b91509150613b0e81615274565b614fbf83836153c2565b614fcc60008484846150c0565b610ec85760405162461bcd60e51b8152600401610e27906164bd565b600054610100900460ff1661500f5760405162461bcd60e51b8152600401610e2790616472565b81516150229060659060208501906156c2565b508051610ec89060669060208401906156c2565b600054610100900460ff16613a105760405162461bcd60e51b8152600401610e2790616472565b600054610100900460ff166150845760405162461bcd60e51b8152600401610e2790616472565b6097805460ff19169055565b600054610100900460ff166150b75760405162461bcd60e51b8152600401610e2790616472565b6117d233613caa565b60006001600160a01b0384163b156151b357604051630a85bd0160e11b81526001600160a01b0385169063150b7a0290615104903390899088908890600401616694565b6020604051808303816000875af192505050801561513f575060408051601f3d908101601f1916820190925261513c918101906166d1565b60015b615199573d80801561516d576040519150601f19603f3d011682016040523d82523d6000602084013e615172565b606091505b5080516151915760405162461bcd60e51b8152600401610e27906164bd565b805181602001fd5b6001600160e01b031916630a85bd0160e11b1490506116ee565b5060016116ee565b6151c7848484846153fb565b60975460ff1615612ce45760405162461bcd60e51b815260206004820152602b60248201527f4552433732315061757361626c653a20746f6b656e207472616e73666572207760448201526a1a1a5b19481c185d5cd95960aa1b6064820152608401610e27565b6000808251604114156152655760208301516040840151606085015160001a61525987828585615483565b9450945050505061526d565b506000905060025b9250929050565b6000816004811115615288576152886166ee565b14156152915750565b60018160048111156152a5576152a56166ee565b14156152f35760405162461bcd60e51b815260206004820152601860248201527f45434453413a20696e76616c6964207369676e617475726500000000000000006044820152606401610e27565b6002816004811115615307576153076166ee565b14156153555760405162461bcd60e51b815260206004820152601f60248201527f45434453413a20696e76616c6964207369676e6174757265206c656e677468006044820152606401610e27565b6003816004811115615369576153696166ee565b1415610fbe5760405162461bcd60e51b815260206004820152602260248201527f45434453413a20696e76616c6964207369676e6174757265202773272076616c604482015261756560f01b6064820152608401610e27565b6153cc8282615547565b60009081526101686020526040902080546001600160a01b0319166001600160a01b0392909216919091179055565b6001811115612ce4576001600160a01b03841615615441576001600160a01b0384166000908152606860205260408120805483929061543b908490616138565b90915550505b6001600160a01b03831615612ce4576001600160a01b03831660009081526068602052604081208054839290615478908490616032565b909155505050505050565b6000807f7fffffffffffffffffffffffffffffff5d576e7357a4501ddfe92f46681b20a08311156154ba575060009050600361553e565b6040805160008082526020820180845289905260ff881692820192909252606081018690526080810185905260019060a0016020604051602081039080840390855afa15801561550e573d6000803e3d6000fd5b5050604051601f1901519150506001600160a01b0381166155375760006001925092505061553e565b9150600090505b94509492505050565b6001600160a01b03821661559d5760405162461bcd60e51b815260206004820181905260248201527f4552433732313a206d696e7420746f20746865207a65726f20616464726573736044820152606401610e27565b6155a681613b16565b156155f35760405162461bcd60e51b815260206004820152601c60248201527f4552433732313a20746f6b656e20616c7265616479206d696e746564000000006044820152606401610e27565b6156016000838360016151bb565b61560a81613b16565b156156575760405162461bcd60e51b815260206004820152601c60248201527f4552433732313a20746f6b656e20616c7265616479206d696e746564000000006044820152606401610e27565b6001600160a01b038216600081815260686020908152604080832080546001019055848352606790915280822080546001600160a01b0319168417905551839291907fddf252ad1be2c89b69c2b068fc378daa952ba7f163c4a11628f55a4df523b3ef908290a45050565b8280546156ce90615cd9565b90600052602060002090601f0160209004810192826156f05760008555615736565b82601f1061570957805160ff1916838001178555615736565b82800160010185558215615736579182015b8281111561573657825182559160200191906001019061571b565b50615742929150615746565b5090565b5b808211156157425760008155600101615747565b6001600160e01b031981168114610fbe57600080fd5b60006020828403121561578357600080fd5b8135614e7f8161575b565b6000806000606084860312156157a357600080fd5b505081359360208301359350604090920135919050565b60005b838110156157d55781810151838201526020016157bd565b83811115612ce45750506000910152565b600081518084526157fe8160208601602086016157ba565b601f01601f19169290920160200192915050565b602081526000614e7f60208301846157e6565b60006020828403121561583757600080fd5b5035919050565b6001600160a01b0381168114610fbe57600080fd5b8035613bda8161583e565b6000806040838503121561587157600080fd5b823561587c8161583e565b946020939093013593505050565b634e487b7160e01b600052604160045260246000fd5b604051601f8201601f1916810167ffffffffffffffff811182821017156158c9576158c961588a565b604052919050565b600067ffffffffffffffff8211156158eb576158eb61588a565b50601f01601f191660200190565b600061590c615907846158d1565b6158a0565b905082815283838301111561592057600080fd5b828260208301376000602084830101529392505050565b600082601f83011261594857600080fd5b614e7f838335602085016158f9565b60006020828403121561596957600080fd5b813567ffffffffffffffff81111561598057600080fd5b6116ee84828501615937565b60006020828403121561599e57600080fd5b8135614e7f8161583e565b6000806000606084860312156159be57600080fd5b83356159c98161583e565b925060208401356159d98161583e565b929592945050506040919091013590565b600080604083850312156159fd57600080fd5b50508035926020909101359150565b600080600060608486031215615a2157600080fd5b83359250602084013591506040840135615a3a8161583e565b809150509250925092565b60008060008060608587031215615a5b57600080fd5b8435615a668161583e565b935060208501359250604085013567ffffffffffffffff80821115615a8a57600080fd5b818701915087601f830112615a9e57600080fd5b813581811115615aad57600080fd5b886020828501011115615abf57600080fd5b95989497505060200194505050565b6020808252825182820181905260009190848201906040850190845b81811015615b0657835183529284019291840191600101615aea565b50909695505050505050565b600080600080600080600080610100898b031215615b2f57600080fd5b883567ffffffffffffffff80821115615b4757600080fd5b615b538c838d01615937565b995060208b0135915080821115615b6957600080fd5b50615b768b828c01615937565b9750506040890135615b878161583e565b95506060890135615b978161583e565b94506080890135615ba78161583e565b935060a0890135615bb78161583e565b925060c0890135615bc78161583e565b9150615bd560e08a01615853565b90509295985092959890939650565b8015158114610fbe57600080fd5b60008060408385031215615c0557600080fd5b8235615c108161583e565b91506020830135615c2081615be4565b809150509250929050565b60008060008060808587031215615c4157600080fd5b8435615c4c8161583e565b93506020850135615c5c8161583e565b925060408501359150606085013567ffffffffffffffff811115615c7f57600080fd5b8501601f81018713615c9057600080fd5b615c9f878235602084016158f9565b91505092959194509250565b60008060408385031215615cbe57600080fd5b8235615cc98161583e565b91506020830135615c208161583e565b600181811c90821680615ced57607f821691505b60208210811415615d0e57634e487b7160e01b600052602260045260246000fd5b50919050565b634e487b7160e01b600052601160045260246000fd5b6000816000190483118215151615615d4457615d44615d14565b500290565b600082615d6657634e487b7160e01b600052601260045260246000fd5b500490565b60008351615d7d8184602088016157ba565b696c657420736565643d2760b01b9083019081528351615da481600a8401602088016157ba565b61273b60f01b600a9290910191820152600c01949350505050565b60008351615dd18184602088016157ba565b7f6c657420474d5f434f4e54524143545f414444524553533d27000000000000009083019081528351615e0b8160198401602088016157ba565b61273b60f01b60199290910191820152601b01949350505050565b600060208284031215615e3857600080fd5b8151614e7f8161583e565b60008351615e558184602088016157ba565b80830190507f6c657420535741505f504f4f4c5f474d5f4554485f434f4e54524143545f414481526644524553533d2760c81b60208201528351615ea08160278401602088016157ba565b61273b60f01b60279290910191820152602901949350505050565b60008351615ecd8184602088016157ba565b7f6c657420736f6c617269734e6674436f6e7472616374416464726573733d27009083019081528351615f0781601f8401602088016157ba565b61273b60f01b601f9290910191820152602101949350505050565b60008351615f348184602088016157ba565b6d6c657420544f4b454e5f49443d2760901b9083019081528351615f5f81600e8401602088016157ba565b61273b60f01b600e9290910191820152601001949350505050565b60008251615f8c8184602087016157ba565b681e17b9b1b934b83a1f60b91b920191825250600901919050565b600060208284031215615fb957600080fd5b8151614e7f81615be4565b634e487b7160e01b600052603260045260246000fd5b6000600019821415615fee57615fee615d14565b5060010190565b6001600160a01b03831681526040602082018190526000906116ee908301846157e6565b60006020828403121561602b57600080fd5b5051919050565b6000821982111561604557616045615d14565b500190565b6001600160a01b038416815260606020820181905260009061606e908301856157e6565b9050826040830152949350505050565b600061608c615907846158d1565b90508281528383830111156160a057600080fd5b614e7f8360208301846157ba565b600080604083850312156160c157600080fd5b825167ffffffffffffffff8111156160d857600080fd5b8301601f810185136160e957600080fd5b6160f88582516020840161607e565b925050602083015190509250929050565b6000835161611b8184602088016157ba565b83519083019061612f8183602088016157ba565b01949350505050565b60008282101561614a5761614a615d14565b500390565b8054825260018101546001600160a01b03166001600160a01b03811660208401525060028101546040830152600381015460608301526004810154608083015260058101546001600160a01b03811660a08401526161b760c0840160ff8360a01c1615159052565b50600681015460e0830152600781015461010083015260088101546101208301526009015461014090910152565b6001600160a01b03851681526020810184905282151560408201526101c08101616212606083018461614f565b95945050505050565b8281526101808101614e7f602083018461614f565b60006020828403121561624257600080fd5b815167ffffffffffffffff81111561625957600080fd5b8201601f8101841361626a57600080fd5b6116ee8482516020840161607e565b6000825161628b8184602087016157ba565b9190910192915050565b7519185d184e9d195e1d0bda1d1b5b0ed8985cd94d8d0b60521b8152600082516162c68160168501602087016157ba565b9190910160160192915050565b7216101130b734b6b0ba34b7b72fbab936111d1160691b815281516000906163028160138501602087016157ba565b601160f91b6013939091019283015250601401919050565b7f7b226e616d65223a22222c226465736372697074696f6e223a2022220000000081526c16101134b6b0b3b2911d10111160991b601c82015281516000906163698160298501602087016157ba565b7116101130ba3a3934b13aba32b9911d10111160711b6029939091019283015250607d60f81b603b820152603c01919050565b6000835160206163af82858389016157ba565b845491840191600090600181811c90808316806163cd57607f831692505b8583108114156163eb57634e487b7160e01b85526022600452602485fd5b8080156163ff57600181146164105761643d565b60ff1985168852838801955061643d565b60008b81526020902060005b858110156164355781548a82015290840190880161641c565b505083880195505b50939a9950505050505050505050565b6001600160a01b0384168152602081018390526101a081016116ee604083018461614f565b6020808252602b908201527f496e697469616c697a61626c653a20636f6e7472616374206973206e6f74206960408201526a6e697469616c697a696e6760a81b606082015260800190565b60208082526032908201527f4552433732313a207472616e7366657220746f206e6f6e20455243373231526560408201527131b2b4bb32b91034b6b83632b6b2b73a32b960711b606082015260800190565b60008551616521818460208a016157ba565b855190830190616535818360208a016157ba565b85519101906165488183602089016157ba565b845191019061655b8183602088016157ba565b019695505050505050565b85815260208082018690526001600160a01b038516604083015260608201849052825160808301528201516101e08201906165ac60a08401826001600160a01b03169052565b50604083015160c0830152606083015160e08301526080830151610100818185015260a085015191506101206165ec818601846001600160a01b03169052565b60c086015192506101406166038187018515159052565b60e0870151610160870152918601516101808601528501516101a0850152909301516101c09092019190915295945050505050565b60208082526025908201527f4552433732313a207472616e736665722066726f6d20696e636f72726563742060408201526437bbb732b960d91b606082015260800190565b60008161668c5761668c615d14565b506000190190565b6001600160a01b03858116825284166020820152604081018390526080606082018190526000906166c7908301846157e6565b9695505050505050565b6000602082840312156166e357600080fd5b8151614e7f8161575b565b634e487b7160e01b600052602160045260246000fdfe4142434445464748494a4b4c4d4e4f505152535455565758595a6162636465666768696a6b6c6d6e6f707172737475767778797a303132333435363738392b2f3c7363726970742073616e64626f783d27616c6c6f772d736372697074732720747970653d27746578742f6a617661736372697074273ea2646970667358221220da6ce9f475ec62554fc6c493be214e87d992bbc2906a1836f13e7ab6a6388bec64736f6c634300080c0033",
  "linkReferences": {},
  "deployedLinkReferences": {}
}