{
  "_format": "hh-sol-artifact-1",
  "contractName": "SOUL",
  "sourceName": "contracts/nfts/SOUL.sol",
  "abi": [
    {
      "anonymous": false,
      "inputs": [
        {
          "indexed": true,
          "internalType": "address",
          "name": "owner",
          "type": "address"
        },
        {
          "indexed": true,
          "internalType": "address",
          "name": "approved",
          "type": "address"
        },
        {
          "indexed": true,
          "internalType": "uint256",
          "name": "tokenId",
          "type": "uint256"
        }
      ],
      "name": "Approval",
      "type": "event"
    },
    {
      "anonymous": false,
      "inputs": [
        {
          "indexed": true,
          "internalType": "address",
          "name": "owner",
          "type": "address"
        },
        {
          "indexed": true,
          "internalType": "address",
          "name": "operator",
          "type": "address"
        },
        {
          "indexed": false,
          "internalType": "bool",
          "name": "approved",
          "type": "bool"
        }
      ],
      "name": "ApprovalForAll",
      "type": "event"
    },
    {
      "anonymous": false,
      "inputs": [
        {
          "indexed": true,
          "internalType": "uint256",
          "name": "tokenId",
          "type": "uint256"
        },
        {
          "indexed": false,
          "internalType": "address",
          "name": "sender",
          "type": "address"
        },
        {
          "indexed": false,
          "internalType": "uint256",
          "name": "value",
          "type": "uint256"
        },
        {
          "indexed": false,
          "internalType": "bool",
          "name": "extended",
          "type": "bool"
        },
        {
          "components": [
            {
              "internalType": "uint256",
              "name": "tokenId",
              "type": "uint256"
            },
            {
              "internalType": "address",
              "name": "erc20Token",
              "type": "address"
            },
            {
              "internalType": "uint256",
              "name": "amount",
              "type": "uint256"
            },
            {
              "internalType": "uint256",
              "name": "startTime",
              "type": "uint256"
            },
            {
              "internalType": "uint256",
              "name": "endTime",
              "type": "uint256"
            },
            {
              "internalType": "address payable",
              "name": "bidder",
              "type": "address"
            },
            {
              "internalType": "bool",
              "name": "settled",
              "type": "bool"
            },
            {
              "internalType": "uint256",
              "name": "timeBuffer",
              "type": "uint256"
            },
            {
              "internalType": "uint256",
              "name": "reservePrice",
              "type": "uint256"
            },
            {
              "internalType": "uint256",
              "name": "minBidIncrementPercentage",
              "type": "uint256"
            },
            {
              "internalType": "bytes32",
              "name": "auctionId",
              "type": "bytes32"
            }
          ],
          "indexed": false,
          "internalType": "struct AuctionHouse.Auction",
          "name": "auction",
          "type": "tuple"
        }
      ],
      "name": "AuctionBid",
      "type": "event"
    },
    {
      "anonymous": false,
      "inputs": [
        {
          "indexed": true,
          "internalType": "uint256",
          "name": "tokenId",
          "type": "uint256"
        },
        {
          "indexed": false,
          "internalType": "address",
          "name": "sender",
          "type": "address"
        },
        {
          "indexed": false,
          "internalType": "uint256",
          "name": "value",
          "type": "uint256"
        },
        {
          "indexed": false,
          "internalType": "bytes32",
          "name": "auctionId",
          "type": "bytes32"
        }
      ],
      "name": "AuctionClaimBid",
      "type": "event"
    },
    {
      "anonymous": false,
      "inputs": [
        {
          "indexed": true,
          "internalType": "uint256",
          "name": "tokenId",
          "type": "uint256"
        }
      ],
      "name": "AuctionClosed",
      "type": "event"
    },
    {
      "anonymous": false,
      "inputs": [
        {
          "indexed": true,
          "internalType": "uint256",
          "name": "tokenId",
          "type": "uint256"
        },
        {
          "indexed": false,
          "internalType": "uint256",
          "name": "startTime",
          "type": "uint256"
        },
        {
          "indexed": false,
          "internalType": "uint256",
          "name": "endTime",
          "type": "uint256"
        },
        {
          "indexed": false,
          "internalType": "address",
          "name": "sender",
          "type": "address"
        },
        {
          "indexed": false,
          "internalType": "bytes32",
          "name": "auctionId",
          "type": "bytes32"
        },
        {
          "components": [
            {
              "internalType": "uint256",
              "name": "tokenId",
              "type": "uint256"
            },
            {
              "internalType": "address",
              "name": "erc20Token",
              "type": "address"
            },
            {
              "internalType": "uint256",
              "name": "amount",
              "type": "uint256"
            },
            {
              "internalType": "uint256",
              "name": "startTime",
              "type": "uint256"
            },
            {
              "internalType": "uint256",
              "name": "endTime",
              "type": "uint256"
            },
            {
              "internalType": "address payable",
              "name": "bidder",
              "type": "address"
            },
            {
              "internalType": "bool",
              "name": "settled",
              "type": "bool"
            },
            {
              "internalType": "uint256",
              "name": "timeBuffer",
              "type": "uint256"
            },
            {
              "internalType": "uint256",
              "name": "reservePrice",
              "type": "uint256"
            },
            {
              "internalType": "uint256",
              "name": "minBidIncrementPercentage",
              "type": "uint256"
            },
            {
              "internalType": "bytes32",
              "name": "auctionId",
              "type": "bytes32"
            }
          ],
          "indexed": false,
          "internalType": "struct AuctionHouse.Auction",
          "name": "auction",
          "type": "tuple"
        }
      ],
      "name": "AuctionCreated",
      "type": "event"
    },
    {
      "anonymous": false,
      "inputs": [
        {
          "indexed": true,
          "internalType": "uint256",
          "name": "tokenId",
          "type": "uint256"
        },
        {
          "indexed": false,
          "internalType": "uint256",
          "name": "endTime",
          "type": "uint256"
        },
        {
          "components": [
            {
              "internalType": "uint256",
              "name": "tokenId",
              "type": "uint256"
            },
            {
              "internalType": "address",
              "name": "erc20Token",
              "type": "address"
            },
            {
              "internalType": "uint256",
              "name": "amount",
              "type": "uint256"
            },
            {
              "internalType": "uint256",
              "name": "startTime",
              "type": "uint256"
            },
            {
              "internalType": "uint256",
              "name": "endTime",
              "type": "uint256"
            },
            {
              "internalType": "address payable",
              "name": "bidder",
              "type": "address"
            },
            {
              "internalType": "bool",
              "name": "settled",
              "type": "bool"
            },
            {
              "internalType": "uint256",
              "name": "timeBuffer",
              "type": "uint256"
            },
            {
              "internalType": "uint256",
              "name": "reservePrice",
              "type": "uint256"
            },
            {
              "internalType": "uint256",
              "name": "minBidIncrementPercentage",
              "type": "uint256"
            },
            {
              "internalType": "bytes32",
              "name": "auctionId",
              "type": "bytes32"
            }
          ],
          "indexed": false,
          "internalType": "struct AuctionHouse.Auction",
          "name": "auction",
          "type": "tuple"
        }
      ],
      "name": "AuctionExtended",
      "type": "event"
    },
    {
      "anonymous": false,
      "inputs": [
        {
          "indexed": false,
          "internalType": "uint256",
          "name": "minBidIncrementPercentage",
          "type": "uint256"
        }
      ],
      "name": "AuctionMinBidIncrementPercentageUpdated",
      "type": "event"
    },
    {
      "anonymous": false,
      "inputs": [
        {
          "indexed": false,
          "internalType": "uint256",
          "name": "reservePrice",
          "type": "uint256"
        }
      ],
      "name": "AuctionReservePriceUpdated",
      "type": "event"
    },
    {
      "anonymous": false,
      "inputs": [
        {
          "indexed": true,
          "internalType": "uint256",
          "name": "tokenId",
          "type": "uint256"
        },
        {
          "indexed": false,
          "internalType": "address",
          "name": "winner",
          "type": "address"
        },
        {
          "indexed": false,
          "internalType": "uint256",
          "name": "amount",
          "type": "uint256"
        },
        {
          "components": [
            {
              "internalType": "uint256",
              "name": "tokenId",
              "type": "uint256"
            },
            {
              "internalType": "address",
              "name": "erc20Token",
              "type": "address"
            },
            {
              "internalType": "uint256",
              "name": "amount",
              "type": "uint256"
            },
            {
              "internalType": "uint256",
              "name": "startTime",
              "type": "uint256"
            },
            {
              "internalType": "uint256",
              "name": "endTime",
              "type": "uint256"
            },
            {
              "internalType": "address payable",
              "name": "bidder",
              "type": "address"
            },
            {
              "internalType": "bool",
              "name": "settled",
              "type": "bool"
            },
            {
              "internalType": "uint256",
              "name": "timeBuffer",
              "type": "uint256"
            },
            {
              "internalType": "uint256",
              "name": "reservePrice",
              "type": "uint256"
            },
            {
              "internalType": "uint256",
              "name": "minBidIncrementPercentage",
              "type": "uint256"
            },
            {
              "internalType": "bytes32",
              "name": "auctionId",
              "type": "bytes32"
            }
          ],
          "indexed": false,
          "internalType": "struct AuctionHouse.Auction",
          "name": "auction",
          "type": "tuple"
        }
      ],
      "name": "AuctionSettled",
      "type": "event"
    },
    {
      "anonymous": false,
      "inputs": [
        {
          "indexed": false,
          "internalType": "uint256",
          "name": "timeBuffer",
          "type": "uint256"
        }
      ],
      "name": "AuctionTimeBufferUpdated",
      "type": "event"
    },
    {
      "anonymous": false,
      "inputs": [
        {
          "indexed": false,
          "internalType": "uint8",
          "name": "version",
          "type": "uint8"
        }
      ],
      "name": "Initialized",
      "type": "event"
    },
    {
      "anonymous": false,
      "inputs": [
        {
          "indexed": true,
          "internalType": "address",
          "name": "previousOwner",
          "type": "address"
        },
        {
          "indexed": true,
          "internalType": "address",
          "name": "newOwner",
          "type": "address"
        }
      ],
      "name": "OwnershipTransferred",
      "type": "event"
    },
    {
      "anonymous": false,
      "inputs": [
        {
          "indexed": false,
          "internalType": "address",
          "name": "account",
          "type": "address"
        }
      ],
      "name": "Paused",
      "type": "event"
    },
    {
      "anonymous": false,
      "inputs": [
        {
          "indexed": true,
          "internalType": "address",
          "name": "from",
          "type": "address"
        },
        {
          "indexed": true,
          "internalType": "address",
          "name": "to",
          "type": "address"
        },
        {
          "indexed": true,
          "internalType": "uint256",
          "name": "tokenId",
          "type": "uint256"
        }
      ],
      "name": "Transfer",
      "type": "event"
    },
    {
      "anonymous": false,
      "inputs": [
        {
          "indexed": false,
          "internalType": "address",
          "name": "account",
          "type": "address"
        }
      ],
      "name": "Unpaused",
      "type": "event"
    },
    {
      "inputs": [],
      "name": "_admin",
      "outputs": [
        {
          "internalType": "address",
          "name": "",
          "type": "address"
        }
      ],
      "stateMutability": "view",
      "type": "function"
    },
    {
      "inputs": [
        {
          "internalType": "uint256",
          "name": "",
          "type": "uint256"
        }
      ],
      "name": "_auctions",
      "outputs": [
        {
          "internalType": "uint256",
          "name": "tokenId",
          "type": "uint256"
        },
        {
          "internalType": "address",
          "name": "erc20Token",
          "type": "address"
        },
        {
          "internalType": "uint256",
          "name": "amount",
          "type": "uint256"
        },
        {
          "internalType": "uint256",
          "name": "startTime",
          "type": "uint256"
        },
        {
          "internalType": "uint256",
          "name": "endTime",
          "type": "uint256"
        },
        {
          "internalType": "address payable",
          "name": "bidder",
          "type": "address"
        },
        {
          "internalType": "bool",
          "name": "settled",
          "type": "bool"
        },
        {
          "internalType": "uint256",
          "name": "timeBuffer",
          "type": "uint256"
        },
        {
          "internalType": "uint256",
          "name": "reservePrice",
          "type": "uint256"
        },
        {
          "internalType": "uint256",
          "name": "minBidIncrementPercentage",
          "type": "uint256"
        },
        {
          "internalType": "bytes32",
          "name": "auctionId",
          "type": "bytes32"
        }
      ],
      "stateMutability": "view",
      "type": "function"
    },
    {
      "inputs": [
        {
          "internalType": "bytes32",
          "name": "",
          "type": "bytes32"
        }
      ],
      "name": "_auctionsList",
      "outputs": [
        {
          "internalType": "uint256",
          "name": "tokenId",
          "type": "uint256"
        },
        {
          "internalType": "address",
          "name": "erc20Token",
          "type": "address"
        },
        {
          "internalType": "uint256",
          "name": "amount",
          "type": "uint256"
        },
        {
          "internalType": "uint256",
          "name": "startTime",
          "type": "uint256"
        },
        {
          "internalType": "uint256",
          "name": "endTime",
          "type": "uint256"
        },
        {
          "internalType": "address payable",
          "name": "bidder",
          "type": "address"
        },
        {
          "internalType": "bool",
          "name": "settled",
          "type": "bool"
        },
        {
          "internalType": "uint256",
          "name": "timeBuffer",
          "type": "uint256"
        },
        {
          "internalType": "uint256",
          "name": "reservePrice",
          "type": "uint256"
        },
        {
          "internalType": "uint256",
          "name": "minBidIncrementPercentage",
          "type": "uint256"
        },
        {
          "internalType": "bytes32",
          "name": "auctionId",
          "type": "bytes32"
        }
      ],
      "stateMutability": "view",
      "type": "function"
    },
    {
      "inputs": [],
      "name": "_bfs",
      "outputs": [
        {
          "internalType": "address",
          "name": "",
          "type": "address"
        }
      ],
      "stateMutability": "view",
      "type": "function"
    },
    {
      "inputs": [
        {
          "internalType": "uint256",
          "name": "",
          "type": "uint256"
        },
        {
          "internalType": "bytes32",
          "name": "",
          "type": "bytes32"
        },
        {
          "internalType": "address",
          "name": "",
          "type": "address"
        }
      ],
      "name": "_bidderAuctions",
      "outputs": [
        {
          "internalType": "uint256",
          "name": "",
          "type": "uint256"
        }
      ],
      "stateMutability": "view",
      "type": "function"
    },
    {
      "inputs": [
        {
          "internalType": "uint256",
          "name": "",
          "type": "uint256"
        },
        {
          "internalType": "bytes32",
          "name": "",
          "type": "bytes32"
        },
        {
          "internalType": "uint256",
          "name": "",
          "type": "uint256"
        }
      ],
      "name": "_bidderAuctionsList",
      "outputs": [
        {
          "internalType": "address",
          "name": "",
          "type": "address"
        }
      ],
      "stateMutability": "view",
      "type": "function"
    },
    {
      "inputs": [
        {
          "internalType": "address",
          "name": "",
          "type": "address"
        },
        {
          "internalType": "address",
          "name": "",
          "type": "address"
        }
      ],
      "name": "_biddingBalance",
      "outputs": [
        {
          "internalType": "uint256",
          "name": "",
          "type": "uint256"
        }
      ],
      "stateMutability": "view",
      "type": "function"
    },
    {
      "inputs": [
        {
          "internalType": "address",
          "name": "",
          "type": "address"
        }
      ],
      "name": "_coreTeamTreasury",
      "outputs": [
        {
          "internalType": "uint256",
          "name": "",
          "type": "uint256"
        }
      ],
      "stateMutability": "view",
      "type": "function"
    },
    {
      "inputs": [
        {
          "internalType": "uint256",
          "name": "",
          "type": "uint256"
        },
        {
          "internalType": "address",
          "name": "",
          "type": "address"
        },
        {
          "internalType": "string",
          "name": "",
          "type": "string"
        }
      ],
      "name": "_features",
      "outputs": [
        {
          "internalType": "bool",
          "name": "",
          "type": "bool"
        }
      ],
      "stateMutability": "view",
      "type": "function"
    },
    {
      "inputs": [],
      "name": "_gmToken",
      "outputs": [
        {
          "internalType": "address",
          "name": "",
          "type": "address"
        }
      ],
      "stateMutability": "view",
      "type": "function"
    },
    {
      "inputs": [],
      "name": "_maxSupply",
      "outputs": [
        {
          "internalType": "uint256",
          "name": "",
          "type": "uint256"
        }
      ],
      "stateMutability": "view",
      "type": "function"
    },
    {
      "inputs": [
        {
          "internalType": "uint256",
          "name": "",
          "type": "uint256"
        }
      ],
      "name": "_mintAt",
      "outputs": [
        {
          "internalType": "uint256",
          "name": "",
          "type": "uint256"
        }
      ],
      "stateMutability": "view",
      "type": "function"
    },
    {
      "inputs": [
        {
          "internalType": "address",
          "name": "",
          "type": "address"
        }
      ],
      "name": "_minted",
      "outputs": [
        {
          "internalType": "uint256",
          "name": "",
          "type": "uint256"
        }
      ],
      "stateMutability": "view",
      "type": "function"
    },
    {
      "inputs": [
        {
          "internalType": "uint256",
          "name": "",
          "type": "uint256"
        }
      ],
      "name": "_names",
      "outputs": [
        {
          "internalType": "string",
          "name": "",
          "type": "string"
        }
      ],
      "stateMutability": "view",
      "type": "function"
    },
    {
      "inputs": [],
      "name": "_paramsAddress",
      "outputs": [
        {
          "internalType": "address",
          "name": "",
          "type": "address"
        }
      ],
      "stateMutability": "view",
      "type": "function"
    },
    {
      "inputs": [],
      "name": "_randomizerAddr",
      "outputs": [
        {
          "internalType": "address",
          "name": "",
          "type": "address"
        }
      ],
      "stateMutability": "view",
      "type": "function"
    },
    {
      "inputs": [],
      "name": "_script",
      "outputs": [
        {
          "internalType": "string",
          "name": "",
          "type": "string"
        }
      ],
      "stateMutability": "view",
      "type": "function"
    },
    {
      "inputs": [],
      "name": "_signerMint",
      "outputs": [
        {
          "internalType": "address",
          "name": "",
          "type": "address"
        }
      ],
      "stateMutability": "view",
      "type": "function"
    },
    {
      "inputs": [
        {
          "internalType": "address",
          "name": "to",
          "type": "address"
        },
        {
          "internalType": "uint256",
          "name": "tokenId",
          "type": "uint256"
        }
      ],
      "name": "approve",
      "outputs": [],
      "stateMutability": "nonpayable",
      "type": "function"
    },
    {
      "inputs": [
        {
          "internalType": "uint256",
          "name": "tokenId",
          "type": "uint256"
        }
      ],
      "name": "available",
      "outputs": [
        {
          "internalType": "bool",
          "name": "",
          "type": "bool"
        }
      ],
      "stateMutability": "view",
      "type": "function"
    },
    {
      "inputs": [
        {
          "internalType": "address",
          "name": "owner",
          "type": "address"
        }
      ],
      "name": "balanceOf",
      "outputs": [
        {
          "internalType": "uint256",
          "name": "",
          "type": "uint256"
        }
      ],
      "stateMutability": "view",
      "type": "function"
    },
    {
      "inputs": [
        {
          "internalType": "address",
          "name": "walletAddress",
          "type": "address"
        }
      ],
      "name": "biddable",
      "outputs": [
        {
          "internalType": "bool",
          "name": "",
          "type": "bool"
        }
      ],
      "stateMutability": "view",
      "type": "function"
    },
    {
      "inputs": [
        {
          "internalType": "uint256",
          "name": "tokenId",
          "type": "uint256"
        },
        {
          "internalType": "address",
          "name": "user",
          "type": "address"
        },
        {
          "internalType": "string",
          "name": "featureName",
          "type": "string"
        }
      ],
      "name": "canUnlockFeature",
      "outputs": [
        {
          "internalType": "bool",
          "name": "",
          "type": "bool"
        }
      ],
      "stateMutability": "view",
      "type": "function"
    },
    {
      "inputs": [
        {
          "internalType": "address",
          "name": "newAdm",
          "type": "address"
        }
      ],
      "name": "changeAdmin",
      "outputs": [],
      "stateMutability": "nonpayable",
      "type": "function"
    },
    {
      "inputs": [
        {
          "internalType": "address",
          "name": "newBfs",
          "type": "address"
        }
      ],
      "name": "changeBfs",
      "outputs": [],
      "stateMutability": "nonpayable",
      "type": "function"
    },
    {
      "inputs": [
        {
          "internalType": "address",
          "name": "newBrc20",
          "type": "address"
        }
      ],
      "name": "changeBrc20Token",
      "outputs": [],
      "stateMutability": "nonpayable",
      "type": "function"
    },
    {
      "inputs": [
        {
          "internalType": "address",
          "name": "newAddr",
          "type": "address"
        }
      ],
      "name": "changeParamAddr",
      "outputs": [],
      "stateMutability": "nonpayable",
      "type": "function"
    },
    {
      "inputs": [
        {
          "internalType": "address",
          "name": "newAddr",
          "type": "address"
        }
      ],
      "name": "changeRandomizerAddr",
      "outputs": [],
      "stateMutability": "nonpayable",
      "type": "function"
    },
    {
      "inputs": [
        {
          "internalType": "string",
          "name": "newScript",
          "type": "string"
        }
      ],
      "name": "changeScript",
      "outputs": [],
      "stateMutability": "nonpayable",
      "type": "function"
    },
    {
      "inputs": [
        {
          "internalType": "address",
          "name": "newAdd",
          "type": "address"
        }
      ],
      "name": "changeSignerMint",
      "outputs": [],
      "stateMutability": "nonpayable",
      "type": "function"
    },
    {
      "inputs": [
        {
          "internalType": "uint256",
          "name": "tokenId",
          "type": "uint256"
        }
      ],
      "name": "createAuction",
      "outputs": [],
      "stateMutability": "nonpayable",
      "type": "function"
    },
    {
      "inputs": [
        {
          "internalType": "uint256",
          "name": "tokenId",
          "type": "uint256"
        },
        {
          "internalType": "uint256",
          "name": "amount",
          "type": "uint256"
        }
      ],
      "name": "createBid",
      "outputs": [],
      "stateMutability": "nonpayable",
      "type": "function"
    },
    {
      "inputs": [
        {
          "internalType": "uint256",
          "name": "amount",
          "type": "uint256"
        }
      ],
      "name": "deposit",
      "outputs": [],
      "stateMutability": "payable",
      "type": "function"
    },
    {
      "inputs": [
        {
          "internalType": "uint256",
          "name": "tokenId",
          "type": "uint256"
        }
      ],
      "name": "getApproved",
      "outputs": [
        {
          "internalType": "address",
          "name": "",
          "type": "address"
        }
      ],
      "stateMutability": "view",
      "type": "function"
    },
    {
      "inputs": [
        {
          "internalType": "address",
          "name": "user",
          "type": "address"
        },
        {
          "internalType": "uint256",
          "name": "totalGM",
          "type": "uint256"
        }
      ],
      "name": "getMessageHash",
      "outputs": [
        {
          "internalType": "bytes32",
          "name": "",
          "type": "bytes32"
        }
      ],
      "stateMutability": "view",
      "type": "function"
    },
    {
      "inputs": [],
      "name": "getSettingFeatures",
      "outputs": [
        {
          "internalType": "string[10]",
          "name": "features",
          "type": "string[10]"
        },
        {
          "internalType": "uint256[10]",
          "name": "balances",
          "type": "uint256[10]"
        },
        {
          "internalType": "uint256[10]",
          "name": "holdTimes",
          "type": "uint256[10]"
        }
      ],
      "stateMutability": "view",
      "type": "function"
    },
    {
      "inputs": [
        {
          "internalType": "string",
          "name": "name",
          "type": "string"
        },
        {
          "internalType": "string",
          "name": "symbol",
          "type": "string"
        },
        {
          "internalType": "address",
          "name": "admin",
          "type": "address"
        },
        {
          "internalType": "address",
          "name": "paramsAddress",
          "type": "address"
        },
        {
          "internalType": "address",
          "name": "randomizerAddr",
          "type": "address"
        },
        {
          "internalType": "address",
          "name": "gmToken",
          "type": "address"
        },
        {
          "internalType": "address",
          "name": "bfs",
          "type": "address"
        },
        {
          "internalType": "address",
          "name": "signerMint",
          "type": "address"
        }
      ],
      "name": "initialize",
      "outputs": [],
      "stateMutability": "nonpayable",
      "type": "function"
    },
    {
      "inputs": [
        {
          "internalType": "address",
          "name": "owner",
          "type": "address"
        },
        {
          "internalType": "address",
          "name": "operator",
          "type": "address"
        }
      ],
      "name": "isApprovedForAll",
      "outputs": [
        {
          "internalType": "bool",
          "name": "",
          "type": "bool"
        }
      ],
      "stateMutability": "view",
      "type": "function"
    },
    {
      "inputs": [
        {
          "internalType": "address",
          "name": "to",
          "type": "address"
        },
        {
          "internalType": "uint256",
          "name": "totalGM",
          "type": "uint256"
        },
        {
          "internalType": "bytes",
          "name": "signature",
          "type": "bytes"
        }
      ],
      "name": "mint",
      "outputs": [
        {
          "internalType": "uint256",
          "name": "tokenId",
          "type": "uint256"
        }
      ],
      "stateMutability": "nonpayable",
      "type": "function"
    },
    {
      "inputs": [],
      "name": "name",
      "outputs": [
        {
          "internalType": "string",
          "name": "",
          "type": "string"
        }
      ],
      "stateMutability": "view",
      "type": "function"
    },
    {
      "inputs": [
        {
          "internalType": "address",
          "name": "",
          "type": "address"
        },
        {
          "internalType": "address",
          "name": "",
          "type": "address"
        },
        {
          "internalType": "uint256",
          "name": "",
          "type": "uint256"
        },
        {
          "internalType": "bytes",
          "name": "",
          "type": "bytes"
        }
      ],
      "name": "onERC721Received",
      "outputs": [
        {
          "internalType": "bytes4",
          "name": "",
          "type": "bytes4"
        }
      ],
      "stateMutability": "pure",
      "type": "function"
    },
    {
      "inputs": [],
      "name": "owner",
      "outputs": [
        {
          "internalType": "address",
          "name": "",
          "type": "address"
        }
      ],
      "stateMutability": "view",
      "type": "function"
    },
    {
      "inputs": [
        {
          "internalType": "uint256",
          "name": "tokenId",
          "type": "uint256"
        }
      ],
      "name": "ownerOf",
      "outputs": [
        {
          "internalType": "address",
          "name": "",
          "type": "address"
        }
      ],
      "stateMutability": "view",
      "type": "function"
    },
    {
      "inputs": [],
      "name": "p5jsScript",
      "outputs": [
        {
          "internalType": "string",
          "name": "result",
          "type": "string"
        }
      ],
      "stateMutability": "view",
      "type": "function"
    },
    {
      "inputs": [],
      "name": "paused",
      "outputs": [
        {
          "internalType": "bool",
          "name": "",
          "type": "bool"
        }
      ],
      "stateMutability": "view",
      "type": "function"
    },
    {
      "inputs": [],
      "name": "renounceOwnership",
      "outputs": [],
      "stateMutability": "nonpayable",
      "type": "function"
    },
    {
      "inputs": [
        {
          "internalType": "uint256",
          "name": "projectId",
          "type": "uint256"
        },
        {
          "internalType": "uint256",
          "name": "_salePrice",
          "type": "uint256"
        }
      ],
      "name": "royaltyInfo",
      "outputs": [
        {
          "internalType": "address",
          "name": "receiver",
          "type": "address"
        },
        {
          "internalType": "uint256",
          "name": "royaltyAmount",
          "type": "uint256"
        }
      ],
      "stateMutability": "view",
      "type": "function"
    },
    {
      "inputs": [
        {
          "internalType": "address",
          "name": "from",
          "type": "address"
        },
        {
          "internalType": "address",
          "name": "to",
          "type": "address"
        },
        {
          "internalType": "uint256",
          "name": "tokenId",
          "type": "uint256"
        }
      ],
      "name": "safeTransferFrom",
      "outputs": [],
      "stateMutability": "nonpayable",
      "type": "function"
    },
    {
      "inputs": [
        {
          "internalType": "address",
          "name": "from",
          "type": "address"
        },
        {
          "internalType": "address",
          "name": "to",
          "type": "address"
        },
        {
          "internalType": "uint256",
          "name": "tokenId",
          "type": "uint256"
        },
        {
          "internalType": "bytes",
          "name": "data",
          "type": "bytes"
        }
      ],
      "name": "safeTransferFrom",
      "outputs": [],
      "stateMutability": "nonpayable",
      "type": "function"
    },
    {
      "inputs": [
        {
          "internalType": "address",
          "name": "operator",
          "type": "address"
        },
        {
          "internalType": "bool",
          "name": "approved",
          "type": "bool"
        }
      ],
      "name": "setApprovalForAll",
      "outputs": [],
      "stateMutability": "nonpayable",
      "type": "function"
    },
    {
      "inputs": [
        {
          "internalType": "uint256",
          "name": "tokenId",
          "type": "uint256"
        },
        {
          "internalType": "string",
          "name": "name",
          "type": "string"
        }
      ],
      "name": "setName",
      "outputs": [],
      "stateMutability": "nonpayable",
      "type": "function"
    },
    {
      "inputs": [
        {
          "internalType": "uint256",
          "name": "tokenId",
          "type": "uint256"
        }
      ],
      "name": "settleAuction",
      "outputs": [],
      "stateMutability": "nonpayable",
      "type": "function"
    },
    {
      "inputs": [
        {
          "internalType": "bytes4",
          "name": "interfaceId",
          "type": "bytes4"
        }
      ],
      "name": "supportsInterface",
      "outputs": [
        {
          "internalType": "bool",
          "name": "",
          "type": "bool"
        }
      ],
      "stateMutability": "view",
      "type": "function"
    },
    {
      "inputs": [],
      "name": "symbol",
      "outputs": [
        {
          "internalType": "string",
          "name": "",
          "type": "string"
        }
      ],
      "stateMutability": "view",
      "type": "function"
    },
    {
      "inputs": [
        {
          "internalType": "bytes32",
          "name": "seed",
          "type": "bytes32"
        },
        {
          "internalType": "uint256",
          "name": "tokenId",
          "type": "uint256"
        }
      ],
      "name": "tokenHTML",
      "outputs": [
        {
          "internalType": "string",
          "name": "result",
          "type": "string"
        }
      ],
      "stateMutability": "view",
      "type": "function"
    },
    {
      "inputs": [
        {
          "internalType": "uint256",
          "name": "tokenId",
          "type": "uint256"
        }
      ],
      "name": "tokenIdToHash",
      "outputs": [
        {
          "internalType": "bytes32",
          "name": "",
          "type": "bytes32"
        }
      ],
      "stateMutability": "view",
      "type": "function"
    },
    {
      "inputs": [
        {
          "internalType": "uint256",
          "name": "tokenId",
          "type": "uint256"
        }
      ],
      "name": "tokenURI",
      "outputs": [
        {
          "internalType": "string",
          "name": "result",
          "type": "string"
        }
      ],
      "stateMutability": "view",
      "type": "function"
    },
    {
      "inputs": [
        {
          "internalType": "address",
          "name": "from",
          "type": "address"
        },
        {
          "internalType": "address",
          "name": "to",
          "type": "address"
        },
        {
          "internalType": "uint256",
          "name": "tokenId",
          "type": "uint256"
        }
      ],
      "name": "transferFrom",
      "outputs": [],
      "stateMutability": "nonpayable",
      "type": "function"
    },
    {
      "inputs": [
        {
          "internalType": "address",
          "name": "newOwner",
          "type": "address"
        }
      ],
      "name": "transferOwnership",
      "outputs": [],
      "stateMutability": "nonpayable",
      "type": "function"
    },
    {
      "inputs": [
        {
          "internalType": "uint256",
          "name": "tokenId",
          "type": "uint256"
        },
        {
          "internalType": "string",
          "name": "featureName",
          "type": "string"
        }
      ],
      "name": "unlockFeature",
      "outputs": [],
      "stateMutability": "nonpayable",
      "type": "function"
    },
    {
      "inputs": [
        {
          "internalType": "bytes32",
          "name": "seed",
          "type": "bytes32"
        },
        {
          "internalType": "uint256",
          "name": "tokenId",
          "type": "uint256"
        }
      ],
      "name": "variableScript",
      "outputs": [
        {
          "internalType": "string",
          "name": "result",
          "type": "string"
        }
      ],
      "stateMutability": "view",
      "type": "function"
    },
    {
      "inputs": [],
      "name": "web3Script",
      "outputs": [
        {
          "internalType": "string",
          "name": "result",
          "type": "string"
        }
      ],
      "stateMutability": "view",
      "type": "function"
    },
    {
      "inputs": [
        {
          "internalType": "address",
          "name": "erc20Addr",
          "type": "address"
        }
      ],
      "name": "withdraw",
      "outputs": [],
      "stateMutability": "nonpayable",
      "type": "function"
    }
  ],
  "bytecode": "0x608060405234801561001057600080fd5b5061741d80620000216000396000f3fe6080604052600436106103b85760003560e01c8063715018a6116101f2578063adfc7dae1161010d578063d5563f31116100a0578063f2fde38b1161006f578063f2fde38b14610d26578063f3f83ddd14610d46578063fe55932a14610d66578063febfd6c314610d8657600080fd5b8063d5563f3114610c7d578063dd07662f14610c9d578063e985e9c514610cbd578063eb29c23214610d0657600080fd5b8063bd896843116100dc578063bd89684314610bd5578063c5c1b8af14610bf6578063c87b56dd14610c2f578063cc22e00414610c4f57600080fd5b8063adfc7dae14610b66578063b6b55f2514610b87578063b7751c7114610b9a578063b88d4fde14610bba57600080fd5b806394d008ef116101855780639a247cb3116101545780639a247cb314610a905780639c6f35f914610b10578063a0d41e1114610b31578063a22cb46514610b4657600080fd5b806394d008ef14610a1b57806394f5a66e14610a3b57806395d89b4114610a5b57806396e494e814610a7057600080fd5b80638a016249116101c15780638a016249146109a75780638da5cb5b146109bc5780638f283970146109db57806393c6cdc0146109fb57600080fd5b8063715018a61461092f57806374973a411461094457806375b4ab5d146109595780637de77ecc1461097957600080fd5b80632b7d13de116102e2578063512c91df11610275578063621a1f7411610244578063621a1f74146108ae5780636352211e146108ce57806366215eb4146108ee57806370a082311461090f57600080fd5b8063512c91df1461081757806351cff8d91461083757806355cd6326146108575780635c975abb1461089657600080fd5b806332e32326116102b157806332e323261461079657806333348979146107b657806342842e0e146107d757806343b2ce19146107f757600080fd5b80632b7d13de146106db5780632e0048ad146106fb5780632e993611146107525780632fd6a6921461077257600080fd5b8063150b7a021161035a57806323b872dd1161032957806323b872dd1461063357806325c5aa061461064e5780632824d1621461066e5780632a55205a1461069c57600080fd5b8063150b7a02146104cf57806317dc6bf6146105085780631ca9741b146105ee57806322f4596f1461060e57600080fd5b806306fdde031161039657806306fdde031461044b578063081812fc1461046d578063095ea7b31461048d578063140f0e07146104af57600080fd5b806301bc45c9146103bd57806301ffc9a7146103fb57806306cb20c11461042b575b600080fd5b3480156103c957600080fd5b5061015f546103de906001600160a01b031681565b6040516001600160a01b0390911681526020015b60405180910390f35b34801561040757600080fd5b5061041b610416366004616152565b610da6565b60405190151581526020016103f2565b34801561043757600080fd5b506103de61044636600461616f565b610df8565b34801561045757600080fd5b50610460610e3e565b6040516103f291906161f3565b34801561047957600080fd5b506103de610488366004616206565b610ed0565b34801561049957600080fd5b506104ad6104a836600461623f565b610ef7565b005b3480156104bb57600080fd5b506104ad6104ca366004616336565b611012565b3480156104db57600080fd5b506104ef6104ea3660046163ab565b611072565b6040516001600160e01b031990911681526020016103f2565b34801561051457600080fd5b50610588610523366004616206565b61016d60205260009081526040902080546001820154600283015460038401546004850154600586015460068701546007880154600889015460099099015497986001600160a01b0397881698969795969495841694600160a01b90940460ff16938b565b604080519b8c526001600160a01b039a8b1660208d01528b019890985260608a019690965260808901949094529590911660a0870152151560c086015260e0850193909352610100840192909252610120830191909152610140820152610160016103f2565b3480156105fa57600080fd5b506104ad61060936600461641d565b611084565b34801561061a57600080fd5b506106256101665481565b6040519081526020016103f2565b34801561063f57600080fd5b506104ad6103b836600461643a565b34801561065a57600080fd5b50610460610669366004616206565b611118565b34801561067a57600080fd5b5061062561068936600461641d565b6101706020526000908152604090205481565b3480156106a857600080fd5b506106bc6106b736600461647b565b6111b3565b604080516001600160a01b0390931683526020830191909152016103f2565b3480156106e757600080fd5b506104ad6106f636600461641d565b6111e4565b34801561070757600080fd5b5061041b61071636600461649d565b61017360209081526000938452604080852082529284529190922082518084018301805192815290830193909201929092209190525460ff1681565b34801561075e57600080fd5b506104ad61076d366004616206565b611279565b34801561077e57600080fd5b506107876112b1565b6040516103f293929190616518565b3480156107a257600080fd5b506104606107b136600461647b565b611721565b3480156107c257600080fd5b50610165546103de906001600160a01b031681565b3480156107e357600080fd5b506104ad6107f236600461643a565b61190a565b34801561080357600080fd5b506104ad610812366004616581565b611925565b34801561082357600080fd5b5061062561083236600461623f565b6119b5565b34801561084357600080fd5b506104ad61085236600461641d565b611a13565b34801561086357600080fd5b506106256108723660046165c7565b61016f60209081526000938452604080852082529284528284209052825290205481565b3480156108a257600080fd5b5060975460ff1661041b565b3480156108ba57600080fd5b506106256108c9366004616206565b611c4d565b3480156108da57600080fd5b506103de6108e9366004616206565b611d1b565b3480156108fa57600080fd5b50610161546103de906001600160a01b031681565b34801561091b57600080fd5b5061062561092a36600461641d565b611d37565b34801561093b57600080fd5b506104ad611dbd565b34801561095057600080fd5b50610460611dd1565b34801561096557600080fd5b5061041b61097436600461641d565b61202b565b34801561098557600080fd5b5061062561099436600461641d565b61016a6020526000908152604090205481565b3480156109b357600080fd5b5061046061212e565b3480156109c857600080fd5b5061012d546001600160a01b03166103de565b3480156109e757600080fd5b506104ad6109f636600461641d565b61213c565b348015610a0757600080fd5b506104ad610a1636600461641d565b6121d1565b348015610a2757600080fd5b50610625610a36366004616600565b612266565b348015610a4757600080fd5b506104ad610a5636600461665b565b6125bc565b348015610a6757600080fd5b506104606127e2565b348015610a7c57600080fd5b5061041b610a8b366004616206565b6127f1565b348015610a9c57600080fd5b50610588610aab366004616206565b61016e60205260009081526040902080546001820154600283015460038401546004850154600586015460068701546007880154600889015460099099015497986001600160a01b0397881698969795969495841694600160a01b90940460ff16938b565b348015610b1c57600080fd5b50610164546103de906001600160a01b031681565b348015610b3d57600080fd5b506104606128d4565b348015610b5257600080fd5b506104ad610b6136600461673a565b612b05565b348015610b7257600080fd5b50610160546103de906001600160a01b031681565b6104ad610b95366004616206565b612b10565b348015610ba657600080fd5b506104ad610bb536600461647b565b612e22565b348015610bc657600080fd5b506104ad6103b8366004616773565b348015610be157600080fd5b50610167546103de906001600160a01b031681565b348015610c0257600080fd5b50610625610c113660046167f2565b61016c60209081526000928352604080842090915290825290205481565b348015610c3b57600080fd5b50610460610c4a366004616206565b613383565b348015610c5b57600080fd5b50610625610c6a366004616206565b6101696020526000908152604090205481565b348015610c8957600080fd5b506104ad610c98366004616206565b613554565b348015610ca957600080fd5b5061041b610cb836600461649d565b613667565b348015610cc957600080fd5b5061041b610cd83660046167f2565b6001600160a01b039182166000908152606a6020908152604080832093909416825291909152205460ff1690565b348015610d1257600080fd5b50610460610d2136600461647b565b6137b6565b348015610d3257600080fd5b506104ad610d4136600461641d565b613888565b348015610d5257600080fd5b506104ad610d6136600461641d565b6138fe565b348015610d7257600080fd5b506104ad610d81366004616581565b613993565b348015610d9257600080fd5b506104ad610da136600461641d565b6139ec565b60006001600160e01b031982166380ac58cd60e01b1480610dd757506001600160e01b03198216635b5e139f60e01b145b80610df257506301ffc9a760e01b6001600160e01b03198316145b92915050565b6101716020528260005260406000206020528160005260406000208181548110610e2157600080fd5b6000918252602090912001546001600160a01b0316925083915050565b606060658054610e4d90616820565b80601f0160208091040260200160405190810160405280929190818152602001828054610e7990616820565b8015610ec65780601f10610e9b57610100808354040283529160200191610ec6565b820191906000526020600020905b815481529060010190602001808311610ea957829003601f168201915b5050505050905090565b6000610edb82613a81565b506000908152606960205260409020546001600160a01b031690565b6000610f0282613ad1565b9050806001600160a01b0316836001600160a01b03161415610f755760405162461bcd60e51b815260206004820152602160248201527f4552433732313a20617070726f76616c20746f2063757272656e74206f776e656044820152603960f91b60648201526084015b60405180910390fd5b336001600160a01b0382161480610f915750610f918133610cd8565b6110035760405162461bcd60e51b815260206004820152603d60248201527f4552433732313a20617070726f76652063616c6c6572206973206e6f7420746f60448201527f6b656e206f776e6572206f7220617070726f76656420666f7220616c6c0000006064820152608401610f6c565b61100d8383613b31565b505050565b61015f5460408051808201909152600381526231303160e81b6020820152906001600160a01b031633146110595760405162461bcd60e51b8152600401610f6c91906161f3565b50805161106e9061016390602084019061605c565b5050565b630a85bd0160e11b5b95945050505050565b61015f546001600160a01b0316331480156110a757506001600160a01b03811615155b6040518060400160405280600381526020016231303160e81b815250906110e15760405162461bcd60e51b8152600401610f6c91906161f3565b50610161546001600160a01b038281169116146111155761016180546001600160a01b0319166001600160a01b0383161790555b50565b610172602052600090815260409020805461113290616820565b80601f016020809104026020016040519081016040528092919081815260200182805461115e90616820565b80156111ab5780601f10611180576101008083540402835291602001916111ab565b820191906000526020600020905b81548152906001019060200180831161118e57829003601f168201915b505050505081565b61015f546001600160a01b031660006127106111d1846101f4616871565b6111db9190616890565b90509250929050565b61015f546001600160a01b03163314801561120757506001600160a01b03811615155b6040518060400160405280600381526020016231303160e81b815250906112415760405162461bcd60e51b8152600401610f6c91906161f3565b50610165546001600160a01b038281169116146111155761016580546001600160a01b0383166001600160a01b031990911617905550565b611281613bfd565b6112a78161128e83611d1b565b6001600160a01b0316336001600160a01b031614613c57565b611115600160fb55565b6112b96160e0565b6112c1616108565b6112c9616108565b604051806101400160405280604051806040016040528060118152602001701999585d1d5c9957dcdd5b9959999958dd607a1b8152508152602001604051806040016040528060128152602001713332b0ba3ab932afb1b637bab23630bcb2b960711b8152508152602001604051806040016040528060128152602001711999585d1d5c9957d99bdc9959dc9bdd5b9960721b81525081526020016040518060400160405280600d81526020016c3332b0ba3ab932afb232b1b7b960991b81525081526020016040518060400160405280600f81526020016e666561747572655f7261696e626f7760881b8152508152602001604051806040016040528060118152602001703332b0ba3ab932afb9bab73834b63630b960791b8152508152602001604051806040016040528060128152602001713332b0ba3ab932afb9b832b1b4b0b637b13560711b81525081526020016040518060400160405280600f81526020016e3332b0ba3ab932afba343ab73232b960891b81525081526020016040518060400160405280600c81526020016b3332b0ba3ab932afb930b4b760a11b81525081526020016040518060400160405280600f81526020016e666561747572655f73756e6175726160881b815250815250925060405180610140016040528060148152602001601e81526020016032815260200160508152602001606481526020016064815260200160c8815260200161012c81526020016101f4815260200161032081525091506040518061014001604052806103e881526020016107d08152602001610bb881526020016113888152602001611f40815260200161271081526020016127108152602001612710815260200161271081526020016127108152509050600061016060009054906101000a90046001600160a01b0316905060005b600a81101561171a5760008582600a811061158b5761158b6168b2565b602002015190506000836001600160a01b0316636d12dce1836115ad8661425e565b6040516020016115be9291906168c8565b6040516020818303038152906040526040518263ffffffff1660e01b81526004016115e991906161f3565b602060405180830381865afa158015611606573d6000803e3d6000fd5b505050506040513d601f19601f8201168201806040525081019061162a9190616926565b9050801561164b57808684600a8110611645576116456168b2565b60200201525b6000846001600160a01b0316636d12dce1846116668761425e565b60405160200161167792919061693f565b6040516020818303038152906040526040518263ffffffff1660e01b81526004016116a291906161f3565b602060405180830381865afa1580156116bf573d6000803e3d6000fd5b505050506040513d601f19601f820116820180604052508101906116e39190616926565b9050801561170457808685600a81106116fe576116fe6168b2565b60200201525b50505080806117129061699e565b91505061156e565b5050909192565b6040805180820190915260128152711e39b1b934b83a1034b21e93bb30b939939f60711b602082015280611754846142fa565b6040516020016117659291906169b9565b60408051601f19818403018152919052610164549091508190611790906001600160a01b0316614346565b6040516020016117a1929190616a0d565b60408051808303601f19018152908290526101605463bf40fac160e01b835260206004840152602160248401527f535741505f504f4f4c5f474d5f4554485f434f4e54524143545f4144445245536044840152605360f81b60648401529092506001600160a01b031690600090829063bf40fac190608401602060405180830381865afa158015611836573d6000803e3d6000fd5b505050506040513d601f19601f8201168201806040525081019061185a9190616a74565b90508261186682614346565b604051602001611877929190616a91565b60405160208183030381529060405292508261189230614346565b6040516020016118a3929190616b09565b6040516020818303038152906040529250826118be8561425e565b6040516020016118cf929190616b70565b6040516020818303038152906040529250826040516020016118f19190616bc8565b6040516020818303038152906040529250505092915050565b61100d83838360405180602001604052806000815250600080fd5b61192d613bfd565b611938823383613667565b61194157600080fd5b3361194b83611d1b565b6001600160a01b03161461195e57600080fd5b6000828152610173602090815260408083203384529091529081902090516001919061198b908490616bf5565b908152604051908190036020019020805491151560ff1990921691909117905561106e600160fb55565b6101675461016454604080513060208083019190915246828401526001600160a01b03948516606083015295841660808201529290911660a083015260c0808301939093528051808303909301835260e09091019052805191012090565b611a1b613bfd565b61015f5481906001600160a01b0316331415611b2b576001600160a01b03821660009081526101706020526040902054611a5457600080fd5b6001600160a01b03828116600090815261017060205260409081902054905163a9059cbb60e01b815233600482015260248101919091529082169063a9059cbb906044016020604051808303816000875af1158015611ab7573d6000803e3d6000fd5b505050506040513d601f19601f82011682018060405250810190611adb9190616c11565b611b0c5760405162461bcd60e51b8152602060048201526002602482015261573160f01b6044820152606401610f6c565b6001600160a01b03821660009081526101706020526040812055611c42565b33600090815261016c602090815260408083206001600160a01b0386168452909152902054611b5957600080fd5b33600081815261016c602090815260408083206001600160a01b03878116855292529182902054915163a9059cbb60e01b81526004810193909352602483019190915282169063a9059cbb906044016020604051808303816000875af1158015611bc7573d6000803e3d6000fd5b505050506040513d601f19601f82011682018060405250810190611beb9190616c11565b611c1c5760405162461bcd60e51b81526020600482015260026024820152612b9960f11b6044820152606401610f6c565b33600090815261016c602090815260408083206001600160a01b03861684529091528120555b50611115600160fb55565b6000611c588261435c565b6040518060400160405280600381526020016232303960e81b81525090611c925760405162461bcd60e51b8152600401610f6c91906161f3565b5060008281526101686020526040902054600160a01b900460a01b6001600160a01b031916611cc357506000919050565b60008281526101686020908152604091829020549151611cfe92600160a01b900460a01b91016001600160a01b031991909116815260200190565b604051602081830303815290604052805190602001209050919050565b600090815261016860205260409020546001600160a01b031690565b60006001600160a01b038216611da15760405162461bcd60e51b815260206004820152602960248201527f4552433732313a2061646472657373207a65726f206973206e6f7420612076616044820152683634b21037bbb732b960b91b6064820152608401610f6c565b506001600160a01b031660009081526068602052604090205490565b611dc561437a565b611dcf60006143d5565b565b60606040518060600160405280603781526020016173b16037913961016554604080518082018252600d81526c70356a7340312e352e302e6a7360981b602082015261016054915163bf40fac160e01b81529394506001600160a01b039283169390929190911690600090829063bf40fac190611e74906004016020808252600f908201526e29a1a924a82a2fa82927ab24a222a960891b604082015260600190565b602060405180830381865afa158015611e91573d6000803e3d6000fd5b505050506040513d601f19601f82011682018060405250810190611eb59190616a74565b90506000846001600160a01b031663ba67e64183866040518363ffffffff1660e01b8152600401611ee7929190616c2e565b602060405180830381865afa158015611f04573d6000803e3d6000fd5b505050506040513d601f19601f82011682018060405250810190611f289190616926565b9050611f35600182616c52565b905060005b818110156120005761015f5460405163283959d960e21b815260009182916001600160a01b038a81169263a0e5676492611f7e92909116908b908890600401616c6a565b600060405180830381865afa158015611f9b573d6000803e3d6000fd5b505050506040513d6000823e601f3d908101601f19168201604052611fc39190810190616cce565b915091508882604051602001611fda929190616d28565b604051602081830303815290604052985050508080611ff89061699e565b915050611f3a565b50856040516020016120129190616bc8565b6040516020818303038152906040529550505050505090565b60008061203783611d37565b111561204557506000919050565b6101605460405163bf40fac160e01b81526000916001600160a01b03169063bf40fac19061207590600401616d57565b602060405180830381865afa158015612092573d6000803e3d6000fd5b505050506040513d601f19601f820116820180604052508101906120b69190616a74565b90506001600160a01b0381166120d55750610164546001600160a01b03165b6120dd614428565b6001600160a01b03808516600090815261016c602090815260408083209386168352929052205461210d856144d3565b6121179190616c52565b106121255750600192915050565b50600092915050565b610163805461113290616820565b61015f546001600160a01b03163314801561215f57506001600160a01b03811615155b6040518060400160405280600381526020016231303160e81b815250906121995760405162461bcd60e51b8152600401610f6c91906161f3565b5061015f546001600160a01b038281169116146111155761015f80546001600160a01b0383166001600160a01b031990911617905550565b61015f546001600160a01b0316331480156121f457506001600160a01b03811615155b6040518060400160405280600381526020016231303160e81b8152509061222e5760405162461bcd60e51b8152600401610f6c91906161f3565b50610164546001600160a01b038281169116146111155761016480546001600160a01b0383166001600160a01b031990911617905550565b6000612270613bfd565b6101665461016254106040518060400160405280600381526020016232303360e81b815250906122b35760405162461bcd60e51b8152600401610f6c91906161f3565b5061015f546001600160a01b031633146123f357336001600160a01b038616146123075760405162461bcd60e51b815260206004820152600560248201526447505f495560d81b6044820152606401610f6c565b61231085611d37565b156123435760405162461bcd60e51b8152602060048201526003602482015262312d3160e81b6044820152606401610f6c565b6001600160a01b038516600090815261016a60205260409020541561238e5760405162461bcd60e51b81526020600482015260016024820152604d60f81b6044820152606401610f6c565b6123cf858585858080601f01602080910402602001604051908101604052809392919081815260200183838082843760009201919091525061454392505050565b50506001600160a01b038516600090815261016a60205260409020600190556124ef565b61015f546001600160a01b038681169116141561243a5760405162461bcd60e51b815260206004820152600560248201526447505f495560d81b6044820152606401610f6c565b6001600160a01b03851630146124ef5761245385611d37565b156124865760405162461bcd60e51b8152602060048201526003602482015262312d3160e81b6044820152606401610f6c565b6001600160a01b038516600090815261016a6020526040902054156124d15760405162461bcd60e51b81526020600482015260016024820152604d60f81b6044820152606401610f6c565b6001600160a01b038516600090815261016a60205260409020600190555b61016280549060006125008361699e565b919050555061016254905061251585826145bc565b61016154604051631da00d8560e01b8152600481018390526001600160a01b03909116906000908290631da00d85906024016020604051808303816000875af1158015612566573d6000803e3d6000fd5b505050506040513d601f19601f8201168201806040525081019061258a9190616926565b905061259683826145d6565b50506000818152610169602052604090204390556125b4600160fb55565b949350505050565b600054610100900460ff16158080156125dc5750600054600160ff909116105b806125f65750303b1580156125f6575060005460ff166001145b6126595760405162461bcd60e51b815260206004820152602e60248201527f496e697469616c697a61626c653a20636f6e747261637420697320616c72656160448201526d191e481a5b9a5d1a585b1a5e995960921b6064820152608401610f6c565b6000805460ff19166001179055801561267c576000805461ff0019166101001790555b60408051808201909152600381526203130360ec1b60208201526001600160a01b0388166126bd5760405162461bcd60e51b8152600401610f6c91906161f3565b5060408051808201909152600381526203130360ec1b60208201526001600160a01b0387166126ff5760405162461bcd60e51b8152600401610f6c91906161f3565b5061016080546001600160a01b03199081166001600160a01b038981169190911790925561015f805482168a841617905561016180548216888416179055610164805482168784161790556104df6101665561016580548216868416179055610167805490911691841691909117905561277989896146a1565b6127816146d2565b612789614701565b612791614730565b80156127d7576000805461ff0019169055604051600181527f7f26b83ff96e1f2b6a682f133852f6798a09c465da95921460cefb38474024989060200160405180910390a15b505050505050505050565b606060668054610e4d90616820565b60006127fc8261435c565b61280857506000919050565b61281061475f565b6000838152610169602052604090205461282a9043616d8e565b1161283757506000919050565b61015f546001600160a01b031661284d83611d1b565b6001600160a01b0316141561286457506000919050565b3061286e83611d1b565b6001600160a01b031614156128a757600082815261016d6020526040902060050154600160a01b900460ff16156128a757506001919050565b60006128b1614428565b9050806128c56128c085611d1b565b6144d3565b10156121255750600192915050565b60606040518060600160405280603781526020016173b16037913961016554604080518082018252600f81526e776562336a7340312e322e372e6a7360881b602082015261016054915163bf40fac160e01b81529394506001600160a01b039283169390929190911690600090829063bf40fac190612979906004016020808252600f908201526e29a1a924a82a2fa82927ab24a222a960891b604082015260600190565b602060405180830381865afa158015612996573d6000803e3d6000fd5b505050506040513d601f19601f820116820180604052508101906129ba9190616a74565b90506000846001600160a01b031663ba67e64183866040518363ffffffff1660e01b81526004016129ec929190616c2e565b602060405180830381865afa158015612a09573d6000803e3d6000fd5b505050506040513d601f19601f82011682018060405250810190612a2d9190616926565b9050612a3a600182616c52565b905060005b818110156120005761015f5460405163283959d960e21b815260009182916001600160a01b038a81169263a0e5676492612a8392909116908b908890600401616c6a565b600060405180830381865afa158015612aa0573d6000803e3d6000fd5b505050506040513d6000823e601f3d908101601f19168201604052612ac89190810190616cce565b915091508882604051602001612adf929190616d28565b604051602081830303815290604052985050508080612afd9061699e565b915050612a3f565b61106e338383614801565b612b18613bfd565b6101605460405163bf40fac160e01b81526000916001600160a01b03169063bf40fac190612b4890600401616d57565b602060405180830381865afa158015612b65573d6000803e3d6000fd5b505050506040513d601f19601f82011682018060405250810190612b899190616a74565b90506001600160a01b038116612ba85750610164546001600160a01b03165b604051636eb1769f60e11b8152336004820152306024820152819083906001600160a01b0383169063dd62ed3e90604401602060405180830381865afa158015612bf6573d6000803e3d6000fd5b505050506040513d601f19601f82011682018060405250810190612c1a9190616926565b1015612c685760405162461bcd60e51b815260206004820152601c60248201527f6e6f7420656e6f75676820616c6c6f7720657263323020746f6b656e000000006044820152606401610f6c565b6040516370a0823160e01b815233600482015283906001600160a01b038316906370a0823190602401602060405180830381865afa158015612cae573d6000803e3d6000fd5b505050506040513d601f19601f82011682018060405250810190612cd29190616926565b1015612d195760405162461bcd60e51b81526020600482015260166024820152753737ba1032b737bab3b41032b9319918103a37b5b2b760511b6044820152606401610f6c565b6040516323b872dd60e01b8152336004820152306024820152604481018490526001600160a01b038216906323b872dd906064016020604051808303816000875af1158015612d6c573d6000803e3d6000fd5b505050506040513d601f19601f82011682018060405250810190612d909190616c11565b612ddc5760405162461bcd60e51b815260206004820152601d60248201527f63616e206e6f74206765742065726332302066726f6d206269646465720000006044820152606401610f6c565b33600090815261016c602090815260408083206001600160a01b038616845290915281208054859290612e10908490616c52565b9091555050600160fb55506111159050565b612e2a613bfd565b612e333361202b565b612e685760405162461bcd60e51b8152600401610f6c9060208082526004908201526304e5f43360e41b604082015260600190565b612e7133611d37565b15612ea75760405162461bcd60e51b8152602060048201526006602482015265272fa1982f9960d11b6044820152606401610f6c565b600082815261016f6020908152604080832061016d83528184206009015484528252808320338452909152902054612f1c5760008281526101716020908152604080832061016d835281842060090154845282528220805460018101825590835291200180546001600160a01b031916331790555b600082815261016d60205260409020548214612f6f5760405162461bcd60e51b81526020600482015260126024820152713737ba103ab8103337b91030bab1ba34b7b760711b6044820152606401610f6c565b600082815261016d60205260409020600401544310612fc25760405162461bcd60e51b815260206004820152600f60248201526e105d58dd1a5bdb88195e1c1a5c9959608a1b6044820152606401610f6c565b33600090815261016c6020908152604080832085845261016d8352818420600101546001600160a01b031684529091529020548111156130445760405162461bcd60e51b815260206004820152601e60248201527f6e6f7420656e6f7567682062616c616e636520657263323020746f6b656e00006044820152606401610f6c565b600082815261016f6020908152604080832061016d835281842060090154845282528083203384529091528120549061307d8284616c52565b600085815261016d602052604090206007015490915081116130e15760405162461bcd60e51b815260206004820152601f60248201527f4d7573742073656e64206174206c6561737420726573657276655072696365006044820152606401610f6c565b600084815261016d60205260409020600881015460029091015460649161310791616871565b6131119190616890565b600085815261016d602052604090206002015461312e9190616c52565b81116131a4576040805162461bcd60e51b81526020600482015260248101919091527f4d7573742073656e64206d6f7265207468616e206c617374206269642062792060448201527f6d696e426964496e6372656d656e7450657263656e7461676520616d6f756e746064820152608401610f6c565b33600090815261016c6020908152604080832087845261016d8352818420600101546001600160a01b03168452909152812080548592906131e6908490616d8e565b9091555050600084815261016f6020908152604080832061016d8084528285206009810180548752928552838620338088529086528487208890556002808301899055600580840180546001600160a01b0319908116909417815586548a5261016e8952878a209092018a905590549454885294872090940180549094166001600160a01b039093169290921790925587845291526006810154600490910154613291904390616d8e565b10905080156132cb57600085815261016d60205260409020600601546132b79043616c52565b600086815261016d60205260409020600401555b600085815261016d602052604090819020805491517ffd09e259e5c48be16f7dd63468e19266c684a9f3dce3b31881dbc1f909fc0d7c916133129133918991879190616e3b565b60405180910390a2801561337057600085815261016d60205260409081902080546004820154925190927f4c1666cb87ed4fd7706cb19b1e3160612601aca7235c307fe64a11bc8db0f41f9261336792616e68565b60405180910390a25b50505061106e600160fb55565b50505050565b606061338e8261435c565b6040518060400160405280600381526020016232303960e81b815250906133c85760405162461bcd60e51b8152600401610f6c91906161f3565b5060405163188687dd60e21b815260048101839052600090309063621a1f7490602401602060405180830381865afa158015613408573d6000803e3d6000fd5b505050506040513d601f19601f8201168201806040525081019061342c9190616926565b61016054604051637594e11960e11b815260048101839052602481018690529192506001600160a01b031690600090309063eb29c23290604401600060405180830381865afa158015613483573d6000803e3d6000fd5b505050506040513d6000823e601f3d908101601f191682016040526134ab9190810190616e7d565b90506134d5816040516020016134c19190616bf5565b6040516020818303038152906040526148d0565b6040516020016134e59190616ec5565b60405160208183030381529060405290506000816040516020016135099190616f03565b60408051601f198184030181528282526000898152610172602090815292902090935061353a929091849101616fe4565b604051602081830303815290604052945050505050919050565b61355c613bfd565b613565816127f1565b61359a5760405162461bcd60e51b8152600401610f6c9060208082526004908201526304e5f43360e41b604082015260600190565b60006135a582611d1b565b90506135b082614a35565b6001600160a01b0381163014611c425760008060006135cd6112b1565b92509250925060005b600a811015613658576000868152610173602090815260408083206001600160a01b038916845290915281208583600a8110613614576136146168b2565b60200201516040516136269190616bf5565b908152604051908190036020019020805491151560ff19909216919091179055806136508161699e565b9150506135d6565b5050505050611115600160fb55565b6000838152610173602090815260408083206001600160a01b0386168452909152808220905182919061369b908590616bf5565b9081526040519081900360200190205460ff16905080156136c05760009150506137af565b610164546040516370a0823160e01b81526001600160a01b03868116600483015260009216906370a0823190602401602060405180830381865afa15801561370c573d6000803e3d6000fd5b505050506040513d601f19601f820116820180604052508101906137309190616926565b90506000806000613740876150ab565b92509250925082516000141561375e576000955050505050506137af565b61377082670de0b6b3a7640000616871565b84106137a5576000898152610169602052604090205481906137929043616d8e565b106137a5576001955050505050506137af565b6000955050505050505b9392505050565b60408051808201909152600c81526b1e343a36b61f1e3432b0b21f60a11b6020820152806137e2611dd1565b6040516020016137f3929190616d28565b60405160208183030381529060405290508061380d6128d4565b60405160200161381e929190616d28565b60405160208183030381529060405290508061383a8484611721565b60405160200161384b929190616d28565b604051602081830303815290604052905080610163604051602001613871929190617079565b604051602081830303815290604052905092915050565b61389061437a565b6001600160a01b0381166138f55760405162461bcd60e51b815260206004820152602660248201527f4f776e61626c653a206e6577206f776e657220697320746865207a65726f206160448201526564647265737360d01b6064820152608401610f6c565b611115816143d5565b61015f546001600160a01b03163314801561392157506001600160a01b03811615155b6040518060400160405280600381526020016231303160e81b8152509061395b5760405162461bcd60e51b8152600401610f6c91906161f3565b50610167546001600160a01b038281169116146111155761016780546001600160a01b0383166001600160a01b031990911617905550565b61399b613bfd565b6139a482611d1b565b6001600160a01b0316336001600160a01b0316146139c157600080fd5b60008281526101726020908152604090912082516139e19284019061605c565b5061106e600160fb55565b61015f546001600160a01b031633148015613a0f57506001600160a01b03811615155b6040518060400160405280600381526020016231303160e81b81525090613a495760405162461bcd60e51b8152600401610f6c91906161f3565b50610160546001600160a01b038281169116146111155761016080546001600160a01b0383166001600160a01b031990911617905550565b613a8a8161435c565b6111155760405162461bcd60e51b8152602060048201526018602482015277115490cdcc8c4e881a5b9d985b1a59081d1bdad95b88125160421b6044820152606401610f6c565b6000818152606760205260408120546001600160a01b031680610df25760405162461bcd60e51b8152602060048201526018602482015277115490cdcc8c4e881a5b9d985b1a59081d1bdad95b88125160421b6044820152606401610f6c565b600081815260696020526040902080546001600160a01b0319166001600160a01b0384169081179091558190613b6682613ad1565b6001600160a01b03167f8c5be1e5ebec7d5bd14f71427d1e84f3dd0314c0f7b2291e5b200ac8c7c3b92560405160405180910390a45050565b6001600160a01b0382163014613bc257613bb882611d37565b15613bc257600080fd5b613bcd8383836151d7565b60009081526101686020526040902080546001600160a01b0319166001600160a01b039290921691909117905550565b600260fb541415613c505760405162461bcd60e51b815260206004820152601f60248201527f5265656e7472616e637947756172643a207265656e7472616e742063616c6c006044820152606401610f6c565b600260fb55565b600082815261016d602052604090206009810154600390910154613cb45760405162461bcd60e51b815260206004820152601460248201527320bab1ba34b7b7103430b9b713ba103132b3bab760611b6044820152606401610f6c565b600083815261016d6020526040902060050154600160a01b900460ff1615613d1e5760405162461bcd60e51b815260206004820181905260248201527f41756374696f6e2068617320616c7265616479206265656e20736574746c65646044820152606401610f6c565b600083815261016d6020526040902060040154431015613d805760405162461bcd60e51b815260206004820152601860248201527f41756374696f6e206861736e277420636f6d706c6574656400000000000000006044820152606401610f6c565b600083815261016d6020818152604080842060059081018054600160a01b60ff60a01b199182168117835588885261016e865293872090920180549092169092179055868452919052546001600160a01b031615613ec557600084815261016d6020526040902060050154613dfd906001600160a01b0316611d37565b613e3357600084815261016d6020526040902060058101549054613e2e9130916001600160a01b0390911690613b9f565b613ec5565b600084815261016d60209081526040808320600281015460058201546001600160a01b03908116865261016c855283862060019093015416855292528220805491929091613e82908490616c52565b909155505050600083815261016f60209081526040808320848452825280832086845261016d8352818420600501546001600160a01b0316845290915281205560015b600084815261016d602052604090206002015415801590613ee4575080155b156140ec576101605460405163bf40fac160e01b815260206004820152601c60248201527f534f554c5f41554354494f4e5f474d5f44414f5f54726561737572790000000060448201526000916001600160a01b03169063bf40fac190606401602060405180830381865afa158015613f61573d6000803e3d6000fd5b505050506040513d601f19601f82011682018060405250810190613f859190616a74565b90506001600160a01b038116613f9a57600080fd5b600085815261016d602052604081206002015461271090613fbd906103e8616871565b613fc79190616890565b600087815261016d6020526040902060018101546002909101549192506001600160a01b03169063a9059cbb908490614001908590616d8e565b6040516001600160e01b031960e085901b1681526001600160a01b03909216600483015260248201526044016020604051808303816000875af115801561404c573d6000803e3d6000fd5b505050506040513d601f19601f820116820180604052508101906140709190616c11565b50600086815261016d60209081526040808320600101546001600160a01b03168352610170909152812080548392906140aa908490616c52565b909155505050600085815261016f60209081526040808320868452825280832088845261016d8352818420600501546001600160a01b03168452909152812055505b600084815261017160209081526040808320858452909152902054156141f15760005b6000858152610171602090815260408083208684529091529020548110156141ef57600085815261016d6020908152604080832060050154610171835281842087855290925290912080546001600160a01b039092169183908110614176576141766168b2565b6000918252602090912001546001600160a01b0316146141dd57600085815261017160209081526040808320868452909152902080546141dd9190839081106141c1576141c16168b2565b6000918252602090912001546001600160a01b03168685615348565b806141e78161699e565b91505061410f565b505b600084815261016d602052604090819020805460058201546002830154935191937f727cff623966c8adc61ac68940e8c898c04ff7ced5d69d9735d51f0589daf53293614249936001600160a01b0390931692617097565b60405180910390a250505050565b600160fb55565b6060600061426b836154d3565b60010190506000816001600160401b0381111561428a5761428a61626b565b6040519080825280601f01601f1916602001820160405280156142b4576020820181803683370190505b5090508181016020015b600019016f181899199a1a9b1b9c1cb0b131b232b360811b600a86061a8153600a85049450846142ed576142f2565b6142be565b509392505050565b6060614305826155ab565b614312608084901b6155ab565b60405161060f60f31b6020820152602281019290925260428201526062016040516020818303038152906040529050919050565b6060610df26001600160a01b038316601461575d565b600090815261016860205260409020546001600160a01b0316151590565b61012d546001600160a01b03163314611dcf5760405162461bcd60e51b815260206004820181905260248201527f4f776e61626c653a2063616c6c6572206973206e6f7420746865206f776e65726044820152606401610f6c565b61012d80546001600160a01b038381166001600160a01b0319831681179093556040519116919082907f8be0079c531659141344cd1fd0a4f28419497f9722a3daafe3b4186f6b6457e090600090a35050565b61016054604051636d12dce160e01b815260206004820152601160248201527014d3d55317d1d357d512149154d213d311607a1b604482015260009182916001600160a01b0390911690636d12dce190606401602060405180830381865afa158015614498573d6000803e3d6000fd5b505050506040513d601f19601f820116820180604052508101906144bc9190616926565b9050806144ce5750670de0b6b3a76400005b919050565b610164546040516370a0823160e01b81526001600160a01b03838116600483015260009216906370a0823190602401602060405180830381865afa15801561451f573d6000803e3d6000fd5b505050506040513d601f19601f82011682018060405250810190610df29190616926565b600080600061455286866119b5565b90506000614568614562836158f8565b86615933565b610167549091506001600160a01b038083169116146145b15760405162461bcd60e51b815260206004820152600560248201526447505f4e4160d81b6044820152606401610f6c565b969095509350505050565b61106e82826040518060200160405280600081525061594f565b60008281526101686020908152604091829020548251808401909352600383526219181b60e91b91830191909152600160a01b900460a01b6001600160a01b031916156146365760405162461bcd60e51b8152600401610f6c91906161f3565b5060408051808201909152600381526232303760e81b60208201528161466f5760405162461bcd60e51b8152600401610f6c91906161f3565b5060009182526101686020526040909120805460a09290921c600160a01b026001600160a01b03909216919091179055565b600054610100900460ff166146c85760405162461bcd60e51b8152600401610f6c906170bc565b61106e8282615982565b600054610100900460ff166146f95760405162461bcd60e51b8152600401610f6c906170bc565b611dcf6159d0565b600054610100900460ff166147285760405162461bcd60e51b8152600401610f6c906170bc565b611dcf6159f7565b600054610100900460ff166147575760405162461bcd60e51b8152600401610f6c906170bc565b611dcf615a2a565b61016054604051636d12dce160e01b815260206004820152600f60248201526e534f554c5f474d5f5245534552564560881b604482015260009182916001600160a01b0390911690636d12dce190606401602060405180830381865afa1580156147cd573d6000803e3d6000fd5b505050506040513d601f19601f820116820180604052508101906147f19190616926565b9050806144ce57506103f0919050565b816001600160a01b0316836001600160a01b031614156148635760405162461bcd60e51b815260206004820152601960248201527f4552433732313a20617070726f766520746f2063616c6c6572000000000000006044820152606401610f6c565b6001600160a01b038381166000818152606a6020908152604080832094871680845294825291829020805460ff191686151590811790915591519182527f17307eab39ab6107e8899845ad3d59bd9653f200f220920489ca2b5937696c31910160405180910390a3505050565b60608151600014156148f057505060408051602081019091526000815290565b6000604051806060016040528060408152602001617371604091399050600060038451600261491f9190616c52565b6149299190616890565b614934906004616871565b90506000614943826020616c52565b6001600160401b0381111561495a5761495a61626b565b6040519080825280601f01601f191660200182016040528015614984576020820181803683370190505b509050818152600183018586518101602084015b818310156149f0576003830192508251603f8160121c168501518253600182019150603f81600c1c168501518253600182019150603f8160061c168501518253600182019150603f8116850151825350600101614998565b600389510660018114614a0a5760028114614a1b57614a27565b613d3d60f01b600119830152614a27565b603d60f81b6000198301525b509398975050505050505050565b600081815261016d6020526040902060050154600160a01b900460ff1680614a6a5750600081815261016d6020526040902054155b614adc5760405162461bcd60e51b815260206004820152603860248201527f41756374696f6e2068617320616c7265616479206265656e20736574746c656460448201527f206f72203173742041756374696f6e206f6620746f6b656e00000000000000006064820152608401610f6c565b436000614ae761475f565b614af19083616c52565b6101608054604080519283018152600060208401819052838201819052606084018190526080840181905260a0840181905260c0840181905260e08401819052610100840181905261012084018190526101408401528683525163bf40fac160e01b81529293506001600160a01b031691829063bf40fac190614b7690600401616d57565b602060405180830381865afa158015614b93573d6000803e3d6000fd5b505050506040513d601f19601f82011682018060405250810190614bb79190616a74565b6001600160a01b031660208201819052614bde57610164546001600160a01b031660208201525b60006040828101829052606083018690526080830185905260a0830182905260c083019190915251636d12dce160e01b815260206004820152601860248201527f534f554c5f41554354494f4e5f54494d455f425546464552000000000000000060448201526001600160a01b03831690636d12dce190606401602060405180830381865afa158015614c75573d6000803e3d6000fd5b505050506040513d601f19601f82011682018060405250810190614c999190616926565b60e0820152604051636d12dce160e01b815260206004820152601a60248201527f534f554c5f41554354494f4e5f524553455256455f505249434500000000000060448201526001600160a01b03831690636d12dce190606401602060405180830381865afa158015614d10573d6000803e3d6000fd5b505050506040513d601f19601f82011682018060405250810190614d349190616926565b610100820152604051636d12dce160e01b815260206004820152602560248201527f534f554c5f41554354494f4e5f4d494e5f4249445f494e4352454153455f50456044820152641490d1539560da1b60648201526001600160a01b03831690636d12dce190608401602060405180830381865afa158015614dba573d6000803e3d6000fd5b505050506040513d601f19601f82011682018060405250810190614dde9190616926565b61012082015261016b8054906000614df58361699e565b9190505550614e0661016b5461425e565b614e13826060015161425e565b614e20836080015161425e565b614e298861425e565b604051602001614e3c9493929190617159565b60405160208183030381529060405280519060200120816101400181815250508061016d60008781526020019081526020016000206000820151816000015560208201518160010160006101000a8154816001600160a01b0302191690836001600160a01b0316021790555060408201518160020155606082015181600301556080820151816004015560a08201518160050160006101000a8154816001600160a01b0302191690836001600160a01b0316021790555060c08201518160050160146101000a81548160ff02191690831515021790555060e082015181600601556101008201518160070155610120820151816008015561014082015181600901559050508061016e600083610140015181526020019081526020016000206000820151816000015560208201518160010160006101000a8154816001600160a01b0302191690836001600160a01b0316021790555060408201518160020155606082015181600301556080820151816004015560a08201518160050160006101000a8154816001600160a01b0302191690836001600160a01b0316021790555060c08201518160050160146101000a81548160ff02191690831515021790555060e08201518160060155610100820151816007015561012082015181600801556101408201518160090155905050306001600160a01b031661503e86611d1b565b6001600160a01b03161461505f5761505f61505886611d1b565b3087613b9f565b847fb404e07dbfe9071da655c32567071b2ee4e88867784a1b39f01a8457787e504f8585338561014001518660405161509c9594939291906171b0565b60405180910390a25050505050565b606060008060008060006150bd6112b1565b92509250925060005b600a8161ffff1610156151b357838161ffff16600a81106150e9576150e96168b2565b60200201516040516020016150fe9190616bf5565b60405160208183030381529060405280519060200120886040516020016151259190616bf5565b6040516020818303038152906040528051906020012014156151a157838161ffff16600a8110615157576151576168b2565b6020020151838261ffff16600a8110615172576151726168b2565b6020020151838361ffff16600a811061518d5761518d6168b2565b6020020151965096509650505050506151d0565b806151ab81617282565b9150506150c6565b505060408051602081019091526000808252909550935083925050505b9193909250565b826001600160a01b03166151ea82613ad1565b6001600160a01b0316146152105760405162461bcd60e51b8152600401610f6c906172a4565b6001600160a01b0382166152725760405162461bcd60e51b8152602060048201526024808201527f4552433732313a207472616e7366657220746f20746865207a65726f206164646044820152637265737360e01b6064820152608401610f6c565b61527f8383836001615b55565b826001600160a01b031661529282613ad1565b6001600160a01b0316146152b85760405162461bcd60e51b8152600401610f6c906172a4565b600081815260696020908152604080832080546001600160a01b03199081169091556001600160a01b0387811680865260688552838620805460001901905590871680865283862080546001019055868652606790945282852080549092168417909155905184937fddf252ad1be2c89b69c2b068fc378daa952ba7f163c4a11628f55a4df523b3ef91a4505050565b600081815261016e6020526040902060050154600160a01b900460ff1661536e57600080fd5b600081815261016e60205260409020600501546001600160a01b038481169116141561539957600080fd5b600082815261016f6020908152604080832084845282528083206001600160a01b03871684529091529020546153ce57600080fd5b600082815261016f6020908152604080832084845282528083206001600160a01b0387168085529083529281902054815193845291830191909152810182905282907f3efeb5ca9b10c05ba2df4bcac38445e4a4e8a996887f004e5036d254c14a98649060600160405180910390a2600082815261016f6020908152604080832084845282528083206001600160a01b0380881685529083528184205461016c845282852086865261016e85528386206001015490921685529252822080549192909161549c908490616c52565b9091555050600091825261016f602090815260408084209284529181528183206001600160a01b0390941683529290925290812055565b60008072184f03e93ff9f4daa797ed6e38ed64bf6a1f0160401b83106155125772184f03e93ff9f4daa797ed6e38ed64bf6a1f0160401b830492506040015b6d04ee2d6d415b85acef8100000000831061553e576d04ee2d6d415b85acef8100000000830492506020015b662386f26fc10000831061555c57662386f26fc10000830492506010015b6305f5e1008310615574576305f5e100830492506008015b612710831061558857612710830492506004015b6064831061559a576064830492506002015b600a8310610df25760010192915050565b7aff00000000000000ff00000000000000ff00000000000000ff00006bffffffff0000000000000000604083901c90811663ffffffff60c01b84161760201c63ffffffff60601b919091166001600160e01b031984161717601081901c9182167eff00000000000000ff00000000000000ff00000000000000ff000000000000821617600890811c7bff00000000000000ff00000000000000ff00000000000000ff000000939093167fff00000000000000ff00000000000000ff00000000000000ff000000000000009290921691909117919091179081901c7e0f000f000f000f000f000f000f000f000f000f000f000f000f000f000f000f167f0f000f000f000f000f000f000f000f000f000f000f000f000f000f000f000f00600492831c1617906156f9827f0606060606060606060606060606060606060606060606060606060606060606616c52565b901c7f0f0f0f0f0f0f0f0f0f0f0f0f0f0f0f0f0f0f0f0f0f0f0f0f0f0f0f0f0f0f0f0f1660076157299190616871565b615753827f3030303030303030303030303030303030303030303030303030303030303030616c52565b610df29190616c52565b6060600061576c836002616871565b615777906002616c52565b6001600160401b0381111561578e5761578e61626b565b6040519080825280601f01601f1916602001820160405280156157b8576020820181803683370190505b509050600360fc1b816000815181106157d3576157d36168b2565b60200101906001600160f81b031916908160001a905350600f60fb1b81600181518110615802576158026168b2565b60200101906001600160f81b031916908160001a9053506000615826846002616871565b615831906001616c52565b90505b60018111156158a9576f181899199a1a9b1b9c1cb0b131b232b360811b85600f1660108110615865576158656168b2565b1a60f81b82828151811061587b5761587b6168b2565b60200101906001600160f81b031916908160001a90535060049490941c936158a2816172e9565b9050615834565b5083156137af5760405162461bcd60e51b815260206004820181905260248201527f537472696e67733a20686578206c656e67746820696e73756666696369656e746044820152606401610f6c565b6040517f19457468657265756d205369676e6564204d6573736167653a0a3332000000006020820152603c8101829052600090605c01611cfe565b60008060006159428585615bc8565b915091506142f281615c0e565b6159598383615d5c565b6159666000848484615a5a565b61100d5760405162461bcd60e51b8152600401610f6c90617107565b600054610100900460ff166159a95760405162461bcd60e51b8152600401610f6c906170bc565b81516159bc90606590602085019061605c565b50805161100d90606690602084019061605c565b600054610100900460ff166142575760405162461bcd60e51b8152600401610f6c906170bc565b600054610100900460ff16615a1e5760405162461bcd60e51b8152600401610f6c906170bc565b6097805460ff19169055565b600054610100900460ff16615a515760405162461bcd60e51b8152600401610f6c906170bc565b611dcf336143d5565b60006001600160a01b0384163b15615b4d57604051630a85bd0160e11b81526001600160a01b0385169063150b7a0290615a9e903390899088908890600401617300565b6020604051808303816000875af1925050508015615ad9575060408051601f3d908101601f19168201909252615ad69181019061733d565b60015b615b33573d808015615b07576040519150601f19603f3d011682016040523d82523d6000602084013e615b0c565b606091505b508051615b2b5760405162461bcd60e51b8152600401610f6c90617107565b805181602001fd5b6001600160e01b031916630a85bd0160e11b1490506125b4565b5060016125b4565b615b6184848484615d95565b60975460ff161561337d5760405162461bcd60e51b815260206004820152602b60248201527f4552433732315061757361626c653a20746f6b656e207472616e73666572207760448201526a1a1a5b19481c185d5cd95960aa1b6064820152608401610f6c565b600080825160411415615bff5760208301516040840151606085015160001a615bf387828585615e1d565b94509450505050615c07565b506000905060025b9250929050565b6000816004811115615c2257615c2261735a565b1415615c2b5750565b6001816004811115615c3f57615c3f61735a565b1415615c8d5760405162461bcd60e51b815260206004820152601860248201527f45434453413a20696e76616c6964207369676e617475726500000000000000006044820152606401610f6c565b6002816004811115615ca157615ca161735a565b1415615cef5760405162461bcd60e51b815260206004820152601f60248201527f45434453413a20696e76616c6964207369676e6174757265206c656e677468006044820152606401610f6c565b6003816004811115615d0357615d0361735a565b14156111155760405162461bcd60e51b815260206004820152602260248201527f45434453413a20696e76616c6964207369676e6174757265202773272076616c604482015261756560f01b6064820152608401610f6c565b615d668282615ee1565b60009081526101686020526040902080546001600160a01b0319166001600160a01b0392909216919091179055565b600181111561337d576001600160a01b03841615615ddb576001600160a01b03841660009081526068602052604081208054839290615dd5908490616d8e565b90915550505b6001600160a01b0383161561337d576001600160a01b03831660009081526068602052604081208054839290615e12908490616c52565b909155505050505050565b6000807f7fffffffffffffffffffffffffffffff5d576e7357a4501ddfe92f46681b20a0831115615e545750600090506003615ed8565b6040805160008082526020820180845289905260ff881692820192909252606081018690526080810185905260019060a0016020604051602081039080840390855afa158015615ea8573d6000803e3d6000fd5b5050604051601f1901519150506001600160a01b038116615ed157600060019250925050615ed8565b9150600090505b94509492505050565b6001600160a01b038216615f375760405162461bcd60e51b815260206004820181905260248201527f4552433732313a206d696e7420746f20746865207a65726f20616464726573736044820152606401610f6c565b615f408161435c565b15615f8d5760405162461bcd60e51b815260206004820152601c60248201527f4552433732313a20746f6b656e20616c7265616479206d696e746564000000006044820152606401610f6c565b615f9b600083836001615b55565b615fa48161435c565b15615ff15760405162461bcd60e51b815260206004820152601c60248201527f4552433732313a20746f6b656e20616c7265616479206d696e746564000000006044820152606401610f6c565b6001600160a01b038216600081815260686020908152604080832080546001019055848352606790915280822080546001600160a01b0319168417905551839291907fddf252ad1be2c89b69c2b068fc378daa952ba7f163c4a11628f55a4df523b3ef908290a45050565b82805461606890616820565b90600052602060002090601f01602090048101928261608a57600085556160d0565b82601f106160a357805160ff19168380011785556160d0565b828001600101855582156160d0579182015b828111156160d05782518255916020019190600101906160b5565b506160dc929150616127565b5090565b604051806101400160405280600a905b60608152602001906001900390816160f05790505090565b604051806101400160405280600a906020820280368337509192915050565b5b808211156160dc5760008155600101616128565b6001600160e01b03198116811461111557600080fd5b60006020828403121561616457600080fd5b81356137af8161613c565b60008060006060848603121561618457600080fd5b505081359360208301359350604090920135919050565b60005b838110156161b657818101518382015260200161619e565b8381111561337d5750506000910152565b600081518084526161df81602086016020860161619b565b601f01601f19169290920160200192915050565b6020815260006137af60208301846161c7565b60006020828403121561621857600080fd5b5035919050565b6001600160a01b038116811461111557600080fd5b80356144ce8161621f565b6000806040838503121561625257600080fd5b823561625d8161621f565b946020939093013593505050565b634e487b7160e01b600052604160045260246000fd5b604051601f8201601f191681016001600160401b03811182821017156162a9576162a961626b565b604052919050565b60006001600160401b038211156162ca576162ca61626b565b50601f01601f191660200190565b60006162eb6162e6846162b1565b616281565b90508281528383830111156162ff57600080fd5b828260208301376000602084830101529392505050565b600082601f83011261632757600080fd5b6137af838335602085016162d8565b60006020828403121561634857600080fd5b81356001600160401b0381111561635e57600080fd5b6125b484828501616316565b60008083601f84011261637c57600080fd5b5081356001600160401b0381111561639357600080fd5b602083019150836020828501011115615c0757600080fd5b6000806000806000608086880312156163c357600080fd5b85356163ce8161621f565b945060208601356163de8161621f565b93506040860135925060608601356001600160401b0381111561640057600080fd5b61640c8882890161636a565b969995985093965092949392505050565b60006020828403121561642f57600080fd5b81356137af8161621f565b60008060006060848603121561644f57600080fd5b833561645a8161621f565b9250602084013561646a8161621f565b929592945050506040919091013590565b6000806040838503121561648e57600080fd5b50508035926020909101359150565b6000806000606084860312156164b257600080fd5b8335925060208401356164c48161621f565b915060408401356001600160401b038111156164df57600080fd5b6164eb86828701616316565b9150509250925092565b8060005b600a81101561337d5781518452602093840193909101906001016164f9565b6102a080825260009082016103e0830186835b600a81101561655f5761029f198684030184526165498383516161c7565b602094850194909350919091019060010161652b565b5050809250505061657360208301856164f5565b6125b46101608301846164f5565b6000806040838503121561659457600080fd5b8235915060208301356001600160401b038111156165b157600080fd5b6165bd85828601616316565b9150509250929050565b6000806000606084860312156165dc57600080fd5b833592506020840135915060408401356165f58161621f565b809150509250925092565b6000806000806060858703121561661657600080fd5b84356166218161621f565b93506020850135925060408501356001600160401b0381111561664357600080fd5b61664f8782880161636a565b95989497509550505050565b600080600080600080600080610100898b03121561667857600080fd5b88356001600160401b038082111561668f57600080fd5b61669b8c838d01616316565b995060208b01359150808211156166b157600080fd5b506166be8b828c01616316565b97505060408901356166cf8161621f565b955060608901356166df8161621f565b945060808901356166ef8161621f565b935060a08901356166ff8161621f565b925060c089013561670f8161621f565b915061671d60e08a01616234565b90509295985092959890939650565b801515811461111557600080fd5b6000806040838503121561674d57600080fd5b82356167588161621f565b915060208301356167688161672c565b809150509250929050565b6000806000806080858703121561678957600080fd5b84356167948161621f565b935060208501356167a48161621f565b92506040850135915060608501356001600160401b038111156167c657600080fd5b8501601f810187136167d757600080fd5b6167e6878235602084016162d8565b91505092959194509250565b6000806040838503121561680557600080fd5b82356168108161621f565b915060208301356167688161621f565b600181811c9082168061683457607f821691505b6020821081141561685557634e487b7160e01b600052602260045260246000fd5b50919050565b634e487b7160e01b600052601160045260246000fd5b600081600019048311821515161561688b5761688b61685b565b500290565b6000826168ad57634e487b7160e01b600052601260045260246000fd5b500490565b634e487b7160e01b600052603260045260246000fd5b631cdbdd5b60e21b8152605f60f81b6004820152600083516168f181600585016020880161619b565b685f62616c616e63655f60b81b600591840191820152835161691a81600e84016020880161619b565b01600e01949350505050565b60006020828403121561693857600080fd5b5051919050565b631cdbdd5b60e21b8152605f60f81b60048201526000835161696881600585016020880161619b565b695f686f6c6454696d655f60b01b600591840191820152835161699281600f84016020880161619b565b01600f01949350505050565b60006000198214156169b2576169b261685b565b5060010190565b600083516169cb81846020880161619b565b696c657420736565643d2760b01b90830190815283516169f281600a84016020880161619b565b61273b60f01b600a9290910191820152600c01949350505050565b60008351616a1f81846020880161619b565b7f6c657420474d5f434f4e54524143545f414444524553533d27000000000000009083019081528351616a5981601984016020880161619b565b61273b60f01b60199290910191820152601b01949350505050565b600060208284031215616a8657600080fd5b81516137af8161621f565b60008351616aa381846020880161619b565b80830190507f6c657420535741505f504f4f4c5f474d5f4554485f434f4e54524143545f414481526644524553533d2760c81b60208201528351616aee81602784016020880161619b565b61273b60f01b60279290910191820152602901949350505050565b60008351616b1b81846020880161619b565b7f6c657420736f756c4e6674436f6e7472616374416464726573733d27000000009083019081528351616b5581601c84016020880161619b565b61273b60f01b601c9290910191820152601e01949350505050565b60008351616b8281846020880161619b565b6d6c657420544f4b454e5f49443d2760901b9083019081528351616bad81600e84016020880161619b565b61273b60f01b600e9290910191820152601001949350505050565b60008251616bda81846020870161619b565b681e17b9b1b934b83a1f60b91b920191825250600901919050565b60008251616c0781846020870161619b565b9190910192915050565b600060208284031215616c2357600080fd5b81516137af8161672c565b6001600160a01b03831681526040602082018190526000906125b4908301846161c7565b60008219821115616c6557616c6561685b565b500190565b6001600160a01b0384168152606060208201819052600090616c8e908301856161c7565b9050826040830152949350505050565b6000616cac6162e6846162b1565b9050828152838383011115616cc057600080fd5b6137af83602083018461619b565b60008060408385031215616ce157600080fd5b82516001600160401b03811115616cf757600080fd5b8301601f81018513616d0857600080fd5b616d1785825160208401616c9e565b925050602083015190509250929050565b60008351616d3a81846020880161619b565b835190830190616d4e81836020880161619b565b01949350505050565b60208082526018908201527f534f554c5f41554354494f4e5f45524332305f544f4b454e0000000000000000604082015260600190565b600082821015616da057616da061685b565b500390565b8054825260018101546001600160a01b03166001600160a01b03811660208401525060028101546040830152600381015460608301526004810154608083015260058101546001600160a01b03811660a0840152616e0d60c0840160ff8360a01c1615159052565b50600681015460e0830152600781015461010083015260088101546101208301526009015461014090910152565b6001600160a01b03851681526020810184905282151560408201526101c0810161107b6060830184616da5565b82815261018081016137af6020830184616da5565b600060208284031215616e8f57600080fd5b81516001600160401b03811115616ea557600080fd5b8201601f81018413616eb657600080fd5b6125b484825160208401616c9e565b7519185d184e9d195e1d0bda1d1b5b0ed8985cd94d8d0b60521b815260008251616ef681601685016020870161619b565b9190910160160192915050565b7216101130b734b6b0ba34b7b72fbab936111d1160691b81528151600090616f3281601385016020870161619b565b601160f91b6013939091019283015250601401919050565b8054600090600181811c9080831680616f6457607f831692505b6020808410821415616f8657634e487b7160e01b600052602260045260246000fd5b818015616f9a5760018114616fab57616fd8565b60ff19861689528489019650616fd8565b60008881526020902060005b86811015616fd05781548b820152908501908301616fb7565b505084890196505b50505050505092915050565b683d913730b6b2911d1160b91b815260006170026009830185616f4a565b721116113232b9b1b934b83a34b7b7111d10111160691b81526c16101134b6b0b3b2911d10111160991b6013820152835161704481602080850190880161619b565b7116101130ba3a3934b13aba32b9911d10111160711b60209290910191820152607d60f81b6032820152603301949350505050565b6000835161708b81846020880161619b565b61107b81840185616f4a565b6001600160a01b0384168152602081018390526101a081016125b46040830184616da5565b6020808252602b908201527f496e697469616c697a61626c653a20636f6e7472616374206973206e6f74206960408201526a6e697469616c697a696e6760a81b606082015260800190565b60208082526032908201527f4552433732313a207472616e7366657220746f206e6f6e20455243373231526560408201527131b2b4bb32b91034b6b83632b6b2b73a32b960711b606082015260800190565b6000855161716b818460208a0161619b565b85519083019061717f818360208a0161619b565b855191019061719281836020890161619b565b84519101906171a581836020880161619b565b019695505050505050565b85815260208082018690526001600160a01b038516604083015260608201849052825160808301528201516101e08201906171f660a08401826001600160a01b03169052565b50604083015160c0830152606083015160e08301526080830151610100818185015260a08501519150610120617236818601846001600160a01b03169052565b60c0860151925061014061724d8187018515159052565b60e0870151610160870152918601516101808601528501516101a0850152909301516101c09092019190915295945050505050565b600061ffff8083168181141561729a5761729a61685b565b6001019392505050565b60208082526025908201527f4552433732313a207472616e736665722066726f6d20696e636f72726563742060408201526437bbb732b960d91b606082015260800190565b6000816172f8576172f861685b565b506000190190565b6001600160a01b0385811682528416602082015260408101839052608060608201819052600090617333908301846161c7565b9695505050505050565b60006020828403121561734f57600080fd5b81516137af8161613c565b634e487b7160e01b600052602160045260246000fdfe4142434445464748494a4b4c4d4e4f505152535455565758595a6162636465666768696a6b6c6d6e6f707172737475767778797a303132333435363738392b2f3c7363726970742073616e64626f783d27616c6c6f772d736372697074732720747970653d27746578742f6a617661736372697074273ea2646970667358221220cec41c0b2a6799f5df844b52e0cf0432211c1d7e010ed38158ff3e5ba5f52f4364736f6c634300080c0033",
  "linkReferences": {},
  "deployedLinkReferences": {}
}