{
  "_format": "hh-sol-artifact-1",
  "contractName": "MultiSigWalletFactory",
  "sourceName": "contracts/services/MultiSigWallet/MultiSigWalletFactory.sol",
  "abi": [
    {
      "anonymous": false,
      "inputs": [
        {
          "indexed": false,
          "internalType": "address",
          "name": "sender",
          "type": "address"
        },
        {
          "indexed": false,
          "internalType": "address",
          "name": "instantiation",
          "type": "address"
        }
      ],
      "name": "ContractInstantiation",
      "type": "event"
    },
    {
      "inputs": [
        {
          "internalType": "address[]",
          "name": "_owners",
          "type": "address[]"
        },
        {
          "internalType": "uint256",
          "name": "_required",
          "type": "uint256"
        }
      ],
      "name": "create",
      "outputs": [
        {
          "internalType": "address",
          "name": "wallet",
          "type": "address"
        }
      ],
      "stateMutability": "nonpayable",
      "type": "function"
    },
    {
      "inputs": [
        {
          "internalType": "address",
          "name": "creator",
          "type": "address"
        }
      ],
      "name": "getInstantiationCount",
      "outputs": [
        {
          "internalType": "uint256",
          "name": "",
          "type": "uint256"
        }
      ],
      "stateMutability": "nonpayable",
      "type": "function"
    },
    {
      "inputs": [
        {
          "internalType": "address",
          "name": "",
          "type": "address"
        },
        {
          "internalType": "uint256",
          "name": "",
          "type": "uint256"
        }
      ],
      "name": "instantiations",
      "outputs": [
        {
          "internalType": "address",
          "name": "",
          "type": "address"
        }
      ],
      "stateMutability": "view",
      "type": "function"
    },
    {
      "inputs": [
        {
          "internalType": "address",
          "name": "",
          "type": "address"
        }
      ],
      "name": "isInstantiation",
      "outputs": [
        {
          "internalType": "bool",
          "name": "",
          "type": "bool"
        }
      ],
      "stateMutability": "view",
      "type": "function"
    }
  ],
  "bytecode": "0x608060405234801561001057600080fd5b50611fc8806100206000396000f3fe608060405234801561001057600080fd5b506004361061004c5760003560e01c80632f4f33161461005157806357183c82146100895780638f838478146100b4578063f8f73808146100eb575b600080fd5b61007461005f366004610236565b60006020819052908152604090205460ff1681565b60405190151581526020015b60405180910390f35b61009c610097366004610258565b6100fe565b6040516001600160a01b039091168152602001610080565b6100dd6100c2366004610236565b6001600160a01b031660009081526001602052604090205490565b604051908152602001610080565b61009c6100f9366004610298565b610136565b6001602052816000526040600020818154811061011a57600080fd5b6000918252602090912001546001600160a01b03169150829050565b60008083836040516101479061020d565b610152929190610363565b604051809103906000f08015801561016e573d6000803e3d6000fd5b50905080915061017d82610184565b5092915050565b6001600160a01b038116600081815260208181526040808320805460ff1916600190811790915533808552818452828520805492830181558552938390200180546001600160a01b031916851790558051928352908201929092527f4fb057ad4a26ed17a57957fa69c306f11987596069b89521c511fc9a894e6161910160405180910390a150565b611bde806103b583390190565b80356001600160a01b038116811461023157600080fd5b919050565b60006020828403121561024857600080fd5b6102518261021a565b9392505050565b6000806040838503121561026b57600080fd5b6102748361021a565b946020939093013593505050565b634e487b7160e01b600052604160045260246000fd5b600080604083850312156102ab57600080fd5b823567ffffffffffffffff808211156102c357600080fd5b818501915085601f8301126102d757600080fd5b81356020828211156102eb576102eb610282565b8160051b604051601f19603f8301168101818110868211171561031057610310610282565b60405292835281830193508481018201928984111561032e57600080fd5b948201945b83861015610353576103448661021a565b85529482019493820193610333565b9997909101359750505050505050565b604080825283519082018190526000906020906060840190828701845b828110156103a55781516001600160a01b031684529284019290840190600101610380565b5050509201929092529291505056fe60806040523480156200001157600080fd5b5060405162001bde38038062001bde833981016040819052620000349162000238565b81518160328211158015620000495750818111155b80156200005557508015155b80156200006157508115155b6200006b57600080fd5b60005b845181101562000161576002600086838151811062000091576200009162000312565b6020908102919091018101516001600160a01b031682528101919091526040016000205460ff16158015620000f5575060006001600160a01b0316858281518110620000e157620000e162000312565b60200260200101516001600160a01b031614155b620000ff57600080fd5b6001600260008784815181106200011a576200011a62000312565b6020908102919091018101516001600160a01b03168252810191909152604001600020805460ff191691151591909117905580620001588162000328565b9150506200006e565b5083516200017790600390602087019062000184565b5050506004555062000352565b828054828255906000526020600020908101928215620001dc579160200282015b82811115620001dc57825182546001600160a01b0319166001600160a01b03909116178255602090920191600190910190620001a5565b50620001ea929150620001ee565b5090565b5b80821115620001ea5760008155600101620001ef565b634e487b7160e01b600052604160045260246000fd5b80516001600160a01b03811681146200023357600080fd5b919050565b600080604083850312156200024c57600080fd5b82516001600160401b03808211156200026457600080fd5b818501915085601f8301126200027957600080fd5b815160208282111562000290576200029062000205565b8160051b604051601f19603f83011681018181108682111715620002b857620002b862000205565b604052928352818301935084810182019289841115620002d757600080fd5b948201945b838610156200030057620002f0866200021b565b85529482019493820193620002dc565b97909101519698969750505050505050565b634e487b7160e01b600052603260045260246000fd5b60006000198214156200034b57634e487b7160e01b600052601160045260246000fd5b5060010190565b61187c80620003626000396000f3fe60806040526004361061012e5760003560e01c8063a0e67e2b116100ab578063c01a8c841161006f578063c01a8c84146103d1578063c6427474146103f1578063d74f8edd14610411578063dc8452cd14610426578063e20056e61461043c578063ee22610b1461045c57600080fd5b8063a0e67e2b1461032c578063a8abe69a1461034e578063b5dc40c31461037b578063b77bf6001461039b578063ba51a6df146103b157600080fd5b806354741525116100f2578063547415251461026e5780637065cb481461029c578063784547a7146102bc5780638b51d13f146102dc5780639ace38c2146102fc57600080fd5b8063025e7c2714610176578063173825d9146101b357806320ea8d86146101d35780632f54bf6e146101f35780633411c81c1461023357600080fd5b3661017157341561016f5760405134815233907fe1fffcc4923d04b559f4d29a8bfc6cda04eb5b0d3c460751c2402c5c5cc9109c9060200160405180910390a25b005b600080fd5b34801561018257600080fd5b50610196610191366004611493565b61047c565b6040516001600160a01b0390911681526020015b60405180910390f35b3480156101bf57600080fd5b5061016f6101ce3660046114c8565b6104a6565b3480156101df57600080fd5b5061016f6101ee366004611493565b61062a565b3480156101ff57600080fd5b5061022361020e3660046114c8565b60026020526000908152604090205460ff1681565b60405190151581526020016101aa565b34801561023f57600080fd5b5061022361024e3660046114e3565b600160209081526000928352604080842090915290825290205460ff1681565b34801561027a57600080fd5b5061028e61028936600461151f565b6106e0565b6040519081526020016101aa565b3480156102a857600080fd5b5061016f6102b73660046114c8565b61075d565b3480156102c857600080fd5b506102236102d7366004611493565b610876565b3480156102e857600080fd5b5061028e6102f7366004611493565b610915565b34801561030857600080fd5b5061031c610317366004611493565b61099b565b6040516101aa9493929190611549565b34801561033857600080fd5b50610341610a59565b6040516101aa91906115c5565b34801561035a57600080fd5b5061036e610369366004611612565b610abb565b6040516101aa9190611658565b34801561038757600080fd5b50610341610396366004611493565b610c53565b3480156103a757600080fd5b5061028e60055481565b3480156103bd57600080fd5b5061016f6103cc366004611493565b610e2b565b3480156103dd57600080fd5b5061016f6103ec366004611493565b610ea8565b3480156103fd57600080fd5b5061028e61040c3660046116a6565b610f6f565b34801561041d57600080fd5b5061028e603281565b34801561043257600080fd5b5061028e60045481565b34801561044857600080fd5b5061016f610457366004611771565b610f8e565b34801561046857600080fd5b5061016f610477366004611493565b611121565b6003818154811061048c57600080fd5b6000918252602090912001546001600160a01b0316905081565b3330146104b257600080fd5b6001600160a01b038116600090815260026020526040902054819060ff166104d957600080fd5b6001600160a01b0382166000908152600260205260408120805460ff191690555b600354610509906001906117b1565b8110156105d957826001600160a01b03166003828154811061052d5761052d6117c8565b6000918252602090912001546001600160a01b031614156105c75760038054610558906001906117b1565b81548110610568576105686117c8565b600091825260209091200154600380546001600160a01b039092169183908110610594576105946117c8565b9060005260206000200160006101000a8154816001600160a01b0302191690836001600160a01b031602179055506105d9565b806105d1816117de565b9150506104fa565b5060035460045411156105f2576003546105f290610e2b565b6040516001600160a01b038316907f8001553a916ef2f495d26a907cc54d96ed840d7bda71e73194bf5a9df7a76b9090600090a25050565b3360008181526002602052604090205460ff1661064657600080fd5b60008281526001602090815260408083203380855292529091205483919060ff1661067057600080fd5b600084815260208190526040902060030154849060ff161561069157600080fd5b6000858152600160209081526040808320338085529252808320805460ff191690555187927ff6a317157440607f36269043eb55f1287a5a19ba2216afeab88cd46cbcfb88e991a35050505050565b6000805b6005548110156107565783801561070d575060008181526020819052604090206003015460ff16155b806107315750828015610731575060008181526020819052604090206003015460ff165b15610744576107416001836117f9565b91505b8061074e816117de565b9150506106e4565b5092915050565b33301461076957600080fd5b6001600160a01b038116600090815260026020526040902054819060ff161561079157600080fd5b816001600160a01b0381166107a557600080fd5b6003546107b39060016117f9565b600454603282111580156107c75750818111155b80156107d257508015155b80156107dd57508115155b6107e657600080fd5b6001600160a01b038516600081815260026020526040808220805460ff1916600190811790915560038054918201815583527fc2575a0e9e593c00f959f8c92f12db2869c3395a3b0502d05e2516446f71f85b0180546001600160a01b03191684179055517ff39e6e1eb0edcf53c221607b54b00cd28f3196fed0a24994dc308b8f611b682d9190a25050505050565b600080805b60035481101561090b57600084815260016020526040812060038054919291849081106108aa576108aa6117c8565b60009182526020808320909101546001600160a01b0316835282019290925260400190205460ff16156108e5576108e26001836117f9565b91505b6004548214156108f9575060019392505050565b80610903816117de565b91505061087b565b5060009392505050565b6000805b6003548110156109955760008381526001602052604081206003805491929184908110610948576109486117c8565b60009182526020808320909101546001600160a01b0316835282019290925260400190205460ff1615610983576109806001836117f9565b91505b8061098d816117de565b915050610919565b50919050565b6000602081905290815260409020805460018201546002830180546001600160a01b039093169391926109cd90611811565b80601f01602080910402602001604051908101604052809291908181526020018280546109f990611811565b8015610a465780601f10610a1b57610100808354040283529160200191610a46565b820191906000526020600020905b815481529060010190602001808311610a2957829003601f168201915b5050506003909301549192505060ff1684565b60606003805480602002602001604051908101604052809291908181526020018280548015610ab157602002820191906000526020600020905b81546001600160a01b03168152600190910190602001808311610a93575b5050505050905090565b6060600060055467ffffffffffffffff811115610ada57610ada611690565b604051908082528060200260200182016040528015610b03578160200160208202803683370190505b5090506000805b600554811015610b9a57858015610b33575060008181526020819052604090206003015460ff16155b80610b575750848015610b57575060008181526020819052604090206003015460ff165b15610b885780838381518110610b6f57610b6f6117c8565b6020908102919091010152610b856001836117f9565b91505b80610b92816117de565b915050610b0a565b610ba488886117b1565b67ffffffffffffffff811115610bbc57610bbc611690565b604051908082528060200260200182016040528015610be5578160200160208202803683370190505b5093508790505b86811015610c4857828181518110610c0657610c066117c8565b6020026020010151848983610c1b91906117b1565b81518110610c2b57610c2b6117c8565b602090810291909101015280610c40816117de565b915050610bec565b505050949350505050565b60035460609060009067ffffffffffffffff811115610c7457610c74611690565b604051908082528060200260200182016040528015610c9d578160200160208202803683370190505b5090506000805b600354811015610d7b5760008581526001602052604081206003805491929184908110610cd357610cd36117c8565b60009182526020808320909101546001600160a01b0316835282019290925260400190205460ff1615610d695760038181548110610d1357610d136117c8565b9060005260206000200160009054906101000a90046001600160a01b0316838381518110610d4357610d436117c8565b6001600160a01b0390921660209283029190910190910152610d666001836117f9565b91505b80610d73816117de565b915050610ca4565b8167ffffffffffffffff811115610d9457610d94611690565b604051908082528060200260200182016040528015610dbd578160200160208202803683370190505b509350600090505b81811015610e2357828181518110610ddf57610ddf6117c8565b6020026020010151848281518110610df957610df96117c8565b6001600160a01b039092166020928302919091019091015280610e1b816117de565b915050610dc5565b505050919050565b333014610e3757600080fd5b6003548160328211801590610e4c5750818111155b8015610e5757508015155b8015610e6257508115155b610e6b57600080fd5b60048390556040518381527fa3f1ee9126a074d9326c682f561767f710e927faa811f7a99829d49dc421797a9060200160405180910390a1505050565b3360008181526002602052604090205460ff16610ec457600080fd5b60008281526020819052604090205482906001600160a01b0316610ee757600080fd5b60008381526001602090815260408083203380855292529091205484919060ff1615610f1257600080fd5b6000858152600160208181526040808420338086529252808420805460ff1916909317909255905187927f4a504a94899432a9846e1aa406dceb1bcfd538bb839071d49d1e5e23f5be30ef91a3610f6885611121565b5050505050565b6000610f7c8484846112e4565b9050610f8781610ea8565b9392505050565b333014610f9a57600080fd5b6001600160a01b038216600090815260026020526040902054829060ff16610fc157600080fd5b6001600160a01b038216600090815260026020526040902054829060ff1615610fe957600080fd5b60005b60035481101561108757846001600160a01b031660038281548110611013576110136117c8565b6000918252602090912001546001600160a01b03161415611075578360038281548110611042576110426117c8565b9060005260206000200160006101000a8154816001600160a01b0302191690836001600160a01b03160217905550611087565b8061107f816117de565b915050610fec565b506001600160a01b03808516600081815260026020526040808220805460ff1990811690915593871682528082208054909416600117909355915190917f8001553a916ef2f495d26a907cc54d96ed840d7bda71e73194bf5a9df7a76b9091a26040516001600160a01b038416907ff39e6e1eb0edcf53c221607b54b00cd28f3196fed0a24994dc308b8f611b682d90600090a250505050565b3360008181526002602052604090205460ff1661113d57600080fd5b60008281526001602090815260408083203380855292529091205483919060ff1661116757600080fd5b600084815260208190526040902060030154849060ff161561118857600080fd5b61119185610876565b15610f6857600085815260208190526040902060038101805460ff1916600190811790915581549082015460028301805461126f936001600160a01b03169291906111db90611811565b90508460020180546111ec90611811565b80601f016020809104026020016040519081016040528092919081815260200182805461121890611811565b80156112655780601f1061123a57610100808354040283529160200191611265565b820191906000526020600020905b81548152906001019060200180831161124857829003601f168201915b50505050506113d7565b156112a45760405186907f33e13ecb54c3076d8e8bb8c2881800a4d972b792045ffae98fdf46df365fed7590600090a26112dc565b60405186907f526441bb6c1aba3c9a4a6ca1d6545da9c2333c8c48343ef398eb858d72b7923690600090a260038101805460ff191690555b505050505050565b6000836001600160a01b0381166112fa57600080fd5b600554604080516080810182526001600160a01b038881168252602080830189815283850189815260006060860181905287815280845295909520845181546001600160a01b0319169416939093178355516001830155925180519496509193909261136d9260028501929101906113fa565b50606091909101516003909101805460ff1916911515919091179055600580546001919060009061139f9084906117f9565b909155505060405182907fc0ba8fe4b176c1714197d43b9cc6bcf797a4a7461c5fe8d0ef6e184ae7601e5190600090a2509392505050565b6000806040516020840160008287838a8c6187965a03f198975050505050505050565b82805461140690611811565b90600052602060002090601f016020900481019282611428576000855561146e565b82601f1061144157805160ff191683800117855561146e565b8280016001018555821561146e579182015b8281111561146e578251825591602001919060010190611453565b5061147a92915061147e565b5090565b5b8082111561147a576000815560010161147f565b6000602082840312156114a557600080fd5b5035919050565b80356001600160a01b03811681146114c357600080fd5b919050565b6000602082840312156114da57600080fd5b610f87826114ac565b600080604083850312156114f657600080fd5b82359150611506602084016114ac565b90509250929050565b803580151581146114c357600080fd5b6000806040838503121561153257600080fd5b61153b8361150f565b91506115066020840161150f565b60018060a01b038516815260006020858184015260806040840152845180608085015260005b8181101561158b5786810183015185820160a00152820161156f565b8181111561159d57600060a083870101525b50601f01601f1916830160a00191506115bc9050606083018415159052565b95945050505050565b6020808252825182820181905260009190848201906040850190845b818110156116065783516001600160a01b0316835292840192918401916001016115e1565b50909695505050505050565b6000806000806080858703121561162857600080fd5b843593506020850135925061163f6040860161150f565b915061164d6060860161150f565b905092959194509250565b6020808252825182820181905260009190848201906040850190845b8181101561160657835183529284019291840191600101611674565b634e487b7160e01b600052604160045260246000fd5b6000806000606084860312156116bb57600080fd5b6116c4846114ac565b925060208401359150604084013567ffffffffffffffff808211156116e857600080fd5b818601915086601f8301126116fc57600080fd5b81358181111561170e5761170e611690565b604051601f8201601f19908116603f0116810190838211818310171561173657611736611690565b8160405282815289602084870101111561174f57600080fd5b8260208601602083013760006020848301015280955050505050509250925092565b6000806040838503121561178457600080fd5b61178d836114ac565b9150611506602084016114ac565b634e487b7160e01b600052601160045260246000fd5b6000828210156117c3576117c361179b565b500390565b634e487b7160e01b600052603260045260246000fd5b60006000198214156117f2576117f261179b565b5060010190565b6000821982111561180c5761180c61179b565b500190565b600181811c9082168061182557607f821691505b6020821081141561099557634e487b7160e01b600052602260045260246000fdfea2646970667358221220e9746e0506b4381005a2c76cdecebfc478f1c03f805b78ce6bcc3d72c22555cf64736f6c634300080c0033a264697066735822122069df42ac9a6c7b6de7bf1176e15c43ffb57e52c674530987d0db33962e6d13e264736f6c634300080c0033",
  "linkReferences": {},
  "deployedLinkReferences": {}
}