{
  "_format": "hh-sol-artifact-1",
  "contractName": "ParameterControl",
  "sourceName": "contracts/governance/ParameterControl.sol",
  "abi": [
    {
      "inputs": [
        {
          "internalType": "address",
          "name": "admin",
          "type": "address"
        }
      ],
      "stateMutability": "nonpayable",
      "type": "constructor"
    },
    {
      "anonymous": false,
      "inputs": [
        {
          "indexed": false,
          "internalType": "address",
          "name": "previousAdmin",
          "type": "address"
        },
        {
          "indexed": false,
          "internalType": "address",
          "name": "newAdmin",
          "type": "address"
        }
      ],
      "name": "AdminChanged",
      "type": "event"
    },
    {
      "anonymous": false,
      "inputs": [
        {
          "indexed": true,
          "internalType": "address",
          "name": "previousOwner",
          "type": "address"
        },
        {
          "indexed": true,
          "internalType": "address",
          "name": "newOwner",
          "type": "address"
        }
      ],
      "name": "OwnershipTransferred",
      "type": "event"
    },
    {
      "anonymous": false,
      "inputs": [
        {
          "indexed": false,
          "internalType": "string",
          "name": "key",
          "type": "string"
        },
        {
          "indexed": false,
          "internalType": "string",
          "name": "value",
          "type": "string"
        }
      ],
      "name": "SetEvent",
      "type": "event"
    },
    {
      "inputs": [],
      "name": "_admin",
      "outputs": [
        {
          "internalType": "address",
          "name": "",
          "type": "address"
        }
      ],
      "stateMutability": "view",
      "type": "function"
    },
    {
      "inputs": [
        {
          "internalType": "string",
          "name": "key",
          "type": "string"
        }
      ],
      "name": "get",
      "outputs": [
        {
          "internalType": "string",
          "name": "",
          "type": "string"
        }
      ],
      "stateMutability": "view",
      "type": "function"
    },
    {
      "inputs": [
        {
          "internalType": "string",
          "name": "key",
          "type": "string"
        }
      ],
      "name": "getAddress",
      "outputs": [
        {
          "internalType": "address",
          "name": "",
          "type": "address"
        }
      ],
      "stateMutability": "view",
      "type": "function"
    },
    {
      "inputs": [
        {
          "internalType": "string",
          "name": "key",
          "type": "string"
        }
      ],
      "name": "getBytes32",
      "outputs": [
        {
          "internalType": "bytes32",
          "name": "",
          "type": "bytes32"
        }
      ],
      "stateMutability": "view",
      "type": "function"
    },
    {
      "inputs": [
        {
          "internalType": "string",
          "name": "key",
          "type": "string"
        }
      ],
      "name": "getInt",
      "outputs": [
        {
          "internalType": "int256",
          "name": "",
          "type": "int256"
        }
      ],
      "stateMutability": "view",
      "type": "function"
    },
    {
      "inputs": [
        {
          "internalType": "string",
          "name": "key",
          "type": "string"
        }
      ],
      "name": "getUInt256",
      "outputs": [
        {
          "internalType": "uint256",
          "name": "",
          "type": "uint256"
        }
      ],
      "stateMutability": "view",
      "type": "function"
    },
    {
      "inputs": [],
      "name": "owner",
      "outputs": [
        {
          "internalType": "address",
          "name": "",
          "type": "address"
        }
      ],
      "stateMutability": "view",
      "type": "function"
    },
    {
      "inputs": [],
      "name": "renounceOwnership",
      "outputs": [],
      "stateMutability": "nonpayable",
      "type": "function"
    },
    {
      "inputs": [
        {
          "internalType": "string",
          "name": "key",
          "type": "string"
        },
        {
          "internalType": "string",
          "name": "value",
          "type": "string"
        }
      ],
      "name": "set",
      "outputs": [],
      "stateMutability": "nonpayable",
      "type": "function"
    },
    {
      "inputs": [
        {
          "internalType": "string",
          "name": "key",
          "type": "string"
        },
        {
          "internalType": "address",
          "name": "value",
          "type": "address"
        }
      ],
      "name": "setAddress",
      "outputs": [],
      "stateMutability": "nonpayable",
      "type": "function"
    },
    {
      "inputs": [
        {
          "internalType": "string",
          "name": "key",
          "type": "string"
        },
        {
          "internalType": "bytes32",
          "name": "value",
          "type": "bytes32"
        }
      ],
      "name": "setBytes32",
      "outputs": [],
      "stateMutability": "nonpayable",
      "type": "function"
    },
    {
      "inputs": [
        {
          "internalType": "string",
          "name": "key",
          "type": "string"
        },
        {
          "internalType": "int256",
          "name": "value",
          "type": "int256"
        }
      ],
      "name": "setInt",
      "outputs": [],
      "stateMutability": "nonpayable",
      "type": "function"
    },
    {
      "inputs": [
        {
          "internalType": "string",
          "name": "key",
          "type": "string"
        },
        {
          "internalType": "uint256",
          "name": "value",
          "type": "uint256"
        }
      ],
      "name": "setUInt256",
      "outputs": [],
      "stateMutability": "nonpayable",
      "type": "function"
    },
    {
      "inputs": [
        {
          "internalType": "address",
          "name": "newOwner",
          "type": "address"
        }
      ],
      "name": "transferOwnership",
      "outputs": [],
      "stateMutability": "nonpayable",
      "type": "function"
    },
    {
      "inputs": [
        {
          "internalType": "address",
          "name": "admin_",
          "type": "address"
        }
      ],
      "name": "updateAdmin",
      "outputs": [],
      "stateMutability": "nonpayable",
      "type": "function"
    }
  ],
  "bytecode": "0x608060405234801561001057600080fd5b50604051610d71380380610d7183398101604081905261002f916100f8565b610038336100a8565b60408051808201909152600381526203130360ec1b60208201526001600160a01b0382166100825760405162461bcd60e51b81526004016100799190610128565b60405180910390fd5b50600180546001600160a01b0319166001600160a01b039290921691909117905561017d565b600080546001600160a01b038381166001600160a01b0319831681178455604051919092169283917f8be0079c531659141344cd1fd0a4f28419497f9722a3daafe3b4186f6b6457e09190a35050565b60006020828403121561010a57600080fd5b81516001600160a01b038116811461012157600080fd5b9392505050565b600060208083528351808285015260005b8181101561015557858101830151858201604001528201610139565b81811115610167576000604083870101525b50601f01601f1916929092016040019392505050565b610be58061018c6000396000f3fe608060405234801561001057600080fd5b50600436106100f55760003560e01c80638da5cb5b11610097578063e2f273bd11610066578063e2f273bd146101f8578063e942b5161461020b578063f2fde38b1461021e578063fda69fae1461023157600080fd5b80638da5cb5b146101ae5780639b2ea4bd146101bf578063bf40fac1146101d2578063c2c5b9f1146101e557600080fd5b80634a4fe0db116100d35780634a4fe0db14610160578063693ec85e146101735780636d12dce114610193578063715018a6146101a657600080fd5b806301bc45c9146100fa57806327314f791461012a578063446871f71461014b575b600080fd5b60015461010d906001600160a01b031681565b6040516001600160a01b0390911681526020015b60405180910390f35b61013d610138366004610949565b610244565b604051908152602001610121565b61015e610159366004610986565b61026c565b005b61015e61016e366004610986565b6102e1565b610186610181366004610949565b610339565b6040516101219190610a27565b61013d6101a1366004610949565b6103e9565b61015e6103fb565b6000546001600160a01b031661010d565b61015e6101cd366004610a5d565b61040f565b61010d6101e0366004610949565b61049a565b61015e6101f3366004610986565b6104cb565b61015e610206366004610aab565b610523565b61015e610219366004610ac6565b61062d565b61015e61022c366004610aab565b6106d8565b61013d61023f366004610949565b610751565b60006006826040516102569190610b2a565b9081526020016040518091039020549050919050565b60015460408051808201909152600381526231303160e81b6020820152906001600160a01b031633146102bb5760405162461bcd60e51b81526004016102b29190610a27565b60405180910390fd5b50806006836040516102cd9190610b2a565b908152604051908190036020019020555050565b60015460408051808201909152600381526231303160e81b6020820152906001600160a01b031633146103275760405162461bcd60e51b81526004016102b29190610a27565b50806004836040516102cd9190610b2a565b606060028260405161034b9190610b2a565b9081526020016040518091039020805461036490610b46565b80601f016020809104026020016040519081016040528092919081815260200182805461039090610b46565b80156103dd5780601f106103b2576101008083540402835291602001916103dd565b820191906000526020600020905b8154815290600101906020018083116103c057829003601f168201915b50505050509050919050565b60006004826040516102569190610b2a565b610403610763565b61040d60006107bd565b565b60015460408051808201909152600381526231303160e81b6020820152906001600160a01b031633146104555760405162461bcd60e51b81526004016102b29190610a27565b50806005836040516104679190610b2a565b90815260405190819003602001902080546001600160a01b03929092166001600160a01b03199092169190911790555050565b60006005826040516104ac9190610b2a565b908152604051908190036020019020546001600160a01b031692915050565b60015460408051808201909152600381526231303160e81b6020820152906001600160a01b031633146105115760405162461bcd60e51b81526004016102b29190610a27565b50806003836040516102cd9190610b2a565b60015460408051808201909152600381526231303160e81b6020820152906001600160a01b031633146105695760405162461bcd60e51b81526004016102b29190610a27565b506001600160a01b0381161580159061059057506001546001600160a01b03828116911614155b6040518060400160405280600381526020016203130360ec1b815250906105ca5760405162461bcd60e51b81526004016102b29190610a27565b50600180546001600160a01b038381166001600160a01b031983168117909355604080519190921680825260208201939093527f7e644d79422f17c01e4894b5f4f588d331ebfa28653d42ae832dc59e38c9798f91015b60405180910390a15050565b60015460408051808201909152600381526231303160e81b6020820152906001600160a01b031633146106735760405162461bcd60e51b81526004016102b29190610a27565b50806002836040516106859190610b2a565b908152602001604051809103902090805190602001906106a692919061080d565b507f8c9a5175c563a8f3b2a18163077ed9533438dfb7b8f52dd83bdbe5a5bd314cb18282604051610621929190610b81565b6106e0610763565b6001600160a01b0381166107455760405162461bcd60e51b815260206004820152602660248201527f4f776e61626c653a206e6577206f776e657220697320746865207a65726f206160448201526564647265737360d01b60648201526084016102b2565b61074e816107bd565b50565b60006003826040516102569190610b2a565b6000546001600160a01b0316331461040d5760405162461bcd60e51b815260206004820181905260248201527f4f776e61626c653a2063616c6c6572206973206e6f7420746865206f776e657260448201526064016102b2565b600080546001600160a01b038381166001600160a01b0319831681178455604051919092169283917f8be0079c531659141344cd1fd0a4f28419497f9722a3daafe3b4186f6b6457e09190a35050565b82805461081990610b46565b90600052602060002090601f01602090048101928261083b5760008555610881565b82601f1061085457805160ff1916838001178555610881565b82800160010185558215610881579182015b82811115610881578251825591602001919060010190610866565b5061088d929150610891565b5090565b5b8082111561088d5760008155600101610892565b634e487b7160e01b600052604160045260246000fd5b600082601f8301126108cd57600080fd5b813567ffffffffffffffff808211156108e8576108e86108a6565b604051601f8301601f19908116603f01168101908282118183101715610910576109106108a6565b8160405283815286602085880101111561092957600080fd5b836020870160208301376000602085830101528094505050505092915050565b60006020828403121561095b57600080fd5b813567ffffffffffffffff81111561097257600080fd5b61097e848285016108bc565b949350505050565b6000806040838503121561099957600080fd5b823567ffffffffffffffff8111156109b057600080fd5b6109bc858286016108bc565b95602094909401359450505050565b60005b838110156109e65781810151838201526020016109ce565b838111156109f5576000848401525b50505050565b60008151808452610a138160208601602086016109cb565b601f01601f19169290920160200192915050565b602081526000610a3a60208301846109fb565b9392505050565b80356001600160a01b0381168114610a5857600080fd5b919050565b60008060408385031215610a7057600080fd5b823567ffffffffffffffff811115610a8757600080fd5b610a93858286016108bc565b925050610aa260208401610a41565b90509250929050565b600060208284031215610abd57600080fd5b610a3a82610a41565b60008060408385031215610ad957600080fd5b823567ffffffffffffffff80821115610af157600080fd5b610afd868387016108bc565b93506020850135915080821115610b1357600080fd5b50610b20858286016108bc565b9150509250929050565b60008251610b3c8184602087016109cb565b9190910192915050565b600181811c90821680610b5a57607f821691505b60208210811415610b7b57634e487b7160e01b600052602260045260246000fd5b50919050565b604081526000610b9460408301856109fb565b8281036020840152610ba681856109fb565b9594505050505056fea26469706673582212204d5691447e5d484fb55c72b0027fd467a2b85500c7bc8607ef941dcfd14f848164736f6c634300080c0033",
  "linkReferences": {},
  "deployedLinkReferences": {}
}