{
  "_format": "hh-sol-artifact-1",
  "contractName": "GenDAOTreasury",
  "sourceName": "contracts/governance/GenDAOTreasury.sol",
  "abi": [
    {
      "anonymous": false,
      "inputs": [
        {
          "indexed": false,
          "internalType": "uint8",
          "name": "version",
          "type": "uint8"
        }
      ],
      "name": "Initialized",
      "type": "event"
    },
    {
      "anonymous": false,
      "inputs": [
        {
          "indexed": true,
          "internalType": "address",
          "name": "previousOwner",
          "type": "address"
        },
        {
          "indexed": true,
          "internalType": "address",
          "name": "newOwner",
          "type": "address"
        }
      ],
      "name": "OwnershipTransferred",
      "type": "event"
    },
    {
      "inputs": [],
      "name": "_admin",
      "outputs": [
        {
          "internalType": "address",
          "name": "",
          "type": "address"
        }
      ],
      "stateMutability": "view",
      "type": "function"
    },
    {
      "inputs": [],
      "name": "_dao",
      "outputs": [
        {
          "internalType": "address",
          "name": "",
          "type": "address"
        }
      ],
      "stateMutability": "view",
      "type": "function"
    },
    {
      "inputs": [],
      "name": "_param",
      "outputs": [
        {
          "internalType": "address",
          "name": "",
          "type": "address"
        }
      ],
      "stateMutability": "view",
      "type": "function"
    },
    {
      "inputs": [
        {
          "internalType": "address",
          "name": "admin",
          "type": "address"
        },
        {
          "internalType": "address",
          "name": "paramAddr",
          "type": "address"
        },
        {
          "internalType": "address",
          "name": "dao",
          "type": "address"
        }
      ],
      "name": "initialize",
      "outputs": [],
      "stateMutability": "nonpayable",
      "type": "function"
    },
    {
      "inputs": [
        {
          "internalType": "address",
          "name": "",
          "type": "address"
        },
        {
          "internalType": "address",
          "name": "",
          "type": "address"
        },
        {
          "internalType": "uint256[]",
          "name": "",
          "type": "uint256[]"
        },
        {
          "internalType": "uint256[]",
          "name": "",
          "type": "uint256[]"
        },
        {
          "internalType": "bytes",
          "name": "",
          "type": "bytes"
        }
      ],
      "name": "onERC1155BatchReceived",
      "outputs": [
        {
          "internalType": "bytes4",
          "name": "",
          "type": "bytes4"
        }
      ],
      "stateMutability": "nonpayable",
      "type": "function"
    },
    {
      "inputs": [
        {
          "internalType": "address",
          "name": "",
          "type": "address"
        },
        {
          "internalType": "address",
          "name": "",
          "type": "address"
        },
        {
          "internalType": "uint256",
          "name": "",
          "type": "uint256"
        },
        {
          "internalType": "uint256",
          "name": "",
          "type": "uint256"
        },
        {
          "internalType": "bytes",
          "name": "",
          "type": "bytes"
        }
      ],
      "name": "onERC1155Received",
      "outputs": [
        {
          "internalType": "bytes4",
          "name": "",
          "type": "bytes4"
        }
      ],
      "stateMutability": "nonpayable",
      "type": "function"
    },
    {
      "inputs": [
        {
          "internalType": "address",
          "name": "",
          "type": "address"
        },
        {
          "internalType": "address",
          "name": "",
          "type": "address"
        },
        {
          "internalType": "uint256",
          "name": "",
          "type": "uint256"
        },
        {
          "internalType": "bytes",
          "name": "",
          "type": "bytes"
        }
      ],
      "name": "onERC721Received",
      "outputs": [
        {
          "internalType": "bytes4",
          "name": "",
          "type": "bytes4"
        }
      ],
      "stateMutability": "nonpayable",
      "type": "function"
    },
    {
      "inputs": [],
      "name": "owner",
      "outputs": [
        {
          "internalType": "address",
          "name": "",
          "type": "address"
        }
      ],
      "stateMutability": "view",
      "type": "function"
    },
    {
      "inputs": [],
      "name": "renounceOwnership",
      "outputs": [],
      "stateMutability": "nonpayable",
      "type": "function"
    },
    {
      "inputs": [
        {
          "internalType": "bytes4",
          "name": "interfaceId",
          "type": "bytes4"
        }
      ],
      "name": "supportsInterface",
      "outputs": [
        {
          "internalType": "bool",
          "name": "",
          "type": "bool"
        }
      ],
      "stateMutability": "view",
      "type": "function"
    },
    {
      "inputs": [
        {
          "internalType": "address",
          "name": "to",
          "type": "address"
        },
        {
          "internalType": "uint256",
          "name": "amount",
          "type": "uint256"
        }
      ],
      "name": "transfer",
      "outputs": [],
      "stateMutability": "nonpayable",
      "type": "function"
    },
    {
      "inputs": [
        {
          "internalType": "address",
          "name": "to",
          "type": "address"
        },
        {
          "internalType": "address",
          "name": "erc20Addr",
          "type": "address"
        },
        {
          "internalType": "uint256",
          "name": "amount",
          "type": "uint256"
        }
      ],
      "name": "transferERC20",
      "outputs": [],
      "stateMutability": "nonpayable",
      "type": "function"
    },
    {
      "inputs": [
        {
          "internalType": "address",
          "name": "to",
          "type": "address"
        },
        {
          "internalType": "address",
          "name": "collection",
          "type": "address"
        },
        {
          "internalType": "uint256",
          "name": "tokenId",
          "type": "uint256"
        }
      ],
      "name": "transferERC721",
      "outputs": [],
      "stateMutability": "nonpayable",
      "type": "function"
    },
    {
      "inputs": [
        {
          "internalType": "address",
          "name": "to",
          "type": "address"
        },
        {
          "internalType": "address",
          "name": "collection",
          "type": "address"
        },
        {
          "internalType": "uint256",
          "name": "tokenId",
          "type": "uint256"
        },
        {
          "internalType": "uint256",
          "name": "amount",
          "type": "uint256"
        }
      ],
      "name": "transferERC721",
      "outputs": [],
      "stateMutability": "nonpayable",
      "type": "function"
    },
    {
      "inputs": [
        {
          "internalType": "address",
          "name": "newOwner",
          "type": "address"
        }
      ],
      "name": "transferOwnership",
      "outputs": [],
      "stateMutability": "nonpayable",
      "type": "function"
    },
    {
      "inputs": [
        {
          "internalType": "address",
          "name": "receiver",
          "type": "address"
        },
        {
          "internalType": "address",
          "name": "erc20Addr",
          "type": "address"
        },
        {
          "internalType": "uint256",
          "name": "amount",
          "type": "uint256"
        }
      ],
      "name": "withdraw",
      "outputs": [],
      "stateMutability": "nonpayable",
      "type": "function"
    },
    {
      "stateMutability": "payable",
      "type": "receive"
    }
  ],
  "bytecode": "0x608060405234801561001057600080fd5b50610f9e806100206000396000f3fe6080604052600436106100f65760003560e01c80639db5dbe41161008a578063d9caed1211610059578063d9caed12146102e5578063e068372614610305578063f23a6e6114610325578063f2fde38b1461035157600080fd5b80639db5dbe414610259578063a9059cbb14610279578063bc197c8114610299578063c0c53b8b146102c557600080fd5b80631aca6376116100c65780631aca6376146101e4578063715018a6146102065780638da5cb5b1461021b5780638dc8073b1461023957600080fd5b8062b2c6e41461010257806301bc45c91461013f57806301ffc9a71461015f578063150b7a02146101a057600080fd5b366100fd57005b600080fd5b34801561010e57600080fd5b50609854610122906001600160a01b031681565b6040516001600160a01b0390911681526020015b60405180910390f35b34801561014b57600080fd5b50609754610122906001600160a01b031681565b34801561016b57600080fd5b5061019061017a366004610af0565b6001600160e01b0319166301ffc9a760e01b1490565b6040519015158152602001610136565b3480156101ac57600080fd5b506101cb6101bb366004610bf4565b630a85bd0160e11b949350505050565b6040516001600160e01b03199091168152602001610136565b3480156101f057600080fd5b506102046101ff366004610c5c565b610371565b005b34801561021257600080fd5b50610204610444565b34801561022757600080fd5b506033546001600160a01b0316610122565b34801561024557600080fd5b50610204610254366004610c98565b610458565b34801561026557600080fd5b50610204610274366004610c5c565b610538565b34801561028557600080fd5b50610204610294366004610cda565b610611565b3480156102a557600080fd5b506101cb6102b4366004610d84565b63bc197c8160e01b95945050505050565b3480156102d157600080fd5b506102046102e0366004610e2e565b6106dc565b3480156102f157600080fd5b50610204610300366004610c5c565b610817565b34801561031157600080fd5b50609954610122906001600160a01b031681565b34801561033157600080fd5b506101cb610340366004610e71565b63f23a6e6160e01b95945050505050565b34801561035d57600080fd5b5061020461036c366004610ed6565b610971565b6103796109ea565b60995460408051808201909152600381526231303160e81b6020820152906001600160a01b031633146103c85760405162461bcd60e51b81526004016103bf9190610ef1565b60405180910390fd5b50604051632142170760e11b81523060048201526001600160a01b038481166024830152604482018390528391908216906342842e0e90606401600060405180830381600087803b15801561041c57600080fd5b505af1158015610430573d6000803e3d6000fd5b505050505061043f6001606555565b505050565b61044c610a44565b6104566000610a9e565b565b6104606109ea565b60995460408051808201909152600381526231303160e81b6020820152906001600160a01b031633146104a65760405162461bcd60e51b81526004016103bf9190610ef1565b50604051637921219560e11b81523060048201526001600160a01b038581166024830152604482018490526064820183905260a06084830152600060a483015284919082169063f242432a9060c401600060405180830381600087803b15801561050f57600080fd5b505af1158015610523573d6000803e3d6000fd5b50505050506105326001606555565b50505050565b6105406109ea565b60995460408051808201909152600381526231303160e81b6020820152906001600160a01b031633146105865760405162461bcd60e51b81526004016103bf9190610ef1565b5060405163a9059cbb60e01b81526001600160a01b0384811660048301526024820183905283919082169063a9059cbb906044016020604051808303816000875af11580156105d9573d6000803e3d6000fd5b505050506040513d601f19601f820116820180604052508101906105fd9190610f46565b61060657600080fd5b5061043f6001606555565b6106196109ea565b60995460408051808201909152600381526231303160e81b6020820152906001600160a01b0316331461065f5760405162461bcd60e51b81526004016103bf9190610ef1565b508047101561066d57600080fd5b6000826001600160a01b03168260405160006040518083038185875af1925050503d80600081146106ba576040519150601f19603f3d011682016040523d82523d6000602084013e6106bf565b606091505b50509050806106cd57600080fd5b506106d86001606555565b5050565b600054610100900460ff16158080156106fc5750600054600160ff909116105b806107165750303b158015610716575060005460ff166001145b6107795760405162461bcd60e51b815260206004820152602e60248201527f496e697469616c697a61626c653a20636f6e747261637420697320616c72656160448201526d191e481a5b9a5d1a585b1a5e995960921b60648201526084016103bf565b6000805460ff19166001179055801561079c576000805461ff0019166101001790555b609780546001600160a01b038087166001600160a01b03199283161790925560988054928616929091169190911790558015610532576000805461ff0019169055604051600181527f7f26b83ff96e1f2b6a682f133852f6798a09c465da95921460cefb38474024989060200160405180910390a150505050565b61081f6109ea565b60975460408051808201909152600381526231303160e81b6020820152906001600160a01b031633146108655760405162461bcd60e51b81526004016103bf9190610ef1565b5060006001600160a01b0383166108e6578147101561088357600080fd5b6040516001600160a01b038516908390600081818185875af1925050503d80600081146108cc576040519150601f19603f3d011682016040523d82523d6000602084013e6108d1565b606091505b505080915050806108e157600080fd5b610606565b60405163a9059cbb60e01b81526001600160a01b0385811660048301526024820184905284919082169063a9059cbb906044016020604051808303816000875af1158015610938573d6000803e3d6000fd5b505050506040513d601f19601f8201168201806040525081019061095c9190610f46565b61096557600080fd5b505061043f6001606555565b610979610a44565b6001600160a01b0381166109de5760405162461bcd60e51b815260206004820152602660248201527f4f776e61626c653a206e6577206f776e657220697320746865207a65726f206160448201526564647265737360d01b60648201526084016103bf565b6109e781610a9e565b50565b60026065541415610a3d5760405162461bcd60e51b815260206004820152601f60248201527f5265656e7472616e637947756172643a207265656e7472616e742063616c6c0060448201526064016103bf565b6002606555565b6033546001600160a01b031633146104565760405162461bcd60e51b815260206004820181905260248201527f4f776e61626c653a2063616c6c6572206973206e6f7420746865206f776e657260448201526064016103bf565b603380546001600160a01b038381166001600160a01b0319831681179093556040519116919082907f8be0079c531659141344cd1fd0a4f28419497f9722a3daafe3b4186f6b6457e090600090a35050565b600060208284031215610b0257600080fd5b81356001600160e01b031981168114610b1a57600080fd5b9392505050565b80356001600160a01b0381168114610b3857600080fd5b919050565b634e487b7160e01b600052604160045260246000fd5b604051601f8201601f1916810167ffffffffffffffff81118282101715610b7c57610b7c610b3d565b604052919050565b600082601f830112610b9557600080fd5b813567ffffffffffffffff811115610baf57610baf610b3d565b610bc2601f8201601f1916602001610b53565b818152846020838601011115610bd757600080fd5b816020850160208301376000918101602001919091529392505050565b60008060008060808587031215610c0a57600080fd5b610c1385610b21565b9350610c2160208601610b21565b925060408501359150606085013567ffffffffffffffff811115610c4457600080fd5b610c5087828801610b84565b91505092959194509250565b600080600060608486031215610c7157600080fd5b610c7a84610b21565b9250610c8860208501610b21565b9150604084013590509250925092565b60008060008060808587031215610cae57600080fd5b610cb785610b21565b9350610cc560208601610b21565b93969395505050506040820135916060013590565b60008060408385031215610ced57600080fd5b610cf683610b21565b946020939093013593505050565b600082601f830112610d1557600080fd5b8135602067ffffffffffffffff821115610d3157610d31610b3d565b8160051b610d40828201610b53565b9283528481018201928281019087851115610d5a57600080fd5b83870192505b84831015610d7957823582529183019190830190610d60565b979650505050505050565b600080600080600060a08688031215610d9c57600080fd5b610da586610b21565b9450610db360208701610b21565b9350604086013567ffffffffffffffff80821115610dd057600080fd5b610ddc89838a01610d04565b94506060880135915080821115610df257600080fd5b610dfe89838a01610d04565b93506080880135915080821115610e1457600080fd5b50610e2188828901610b84565b9150509295509295909350565b600080600060608486031215610e4357600080fd5b610e4c84610b21565b9250610e5a60208501610b21565b9150610e6860408501610b21565b90509250925092565b600080600080600060a08688031215610e8957600080fd5b610e9286610b21565b9450610ea060208701610b21565b93506040860135925060608601359150608086013567ffffffffffffffff811115610eca57600080fd5b610e2188828901610b84565b600060208284031215610ee857600080fd5b610b1a82610b21565b600060208083528351808285015260005b81811015610f1e57858101830151858201604001528201610f02565b81811115610f30576000604083870101525b50601f01601f1916929092016040019392505050565b600060208284031215610f5857600080fd5b81518015158114610b1a57600080fdfea26469706673582212203363a63387ee26039bf9b90810310c9a844fc8877d8f1f3ee8e7e863683bd98964736f6c634300080c0033",
  "linkReferences": {},
  "deployedLinkReferences": {}
}