{
  "_format": "hh-sol-artifact-1",
  "contractName": "GenDAOTreasury",
  "sourceName": "contracts/governance/GenDAOTreasury.sol",
  "abi": [
    {
      "anonymous": false,
      "inputs": [
        {
          "indexed": false,
          "internalType": "uint8",
          "name": "version",
          "type": "uint8"
        }
      ],
      "name": "Initialized",
      "type": "event"
    },
    {
      "anonymous": false,
      "inputs": [
        {
          "indexed": true,
          "internalType": "address",
          "name": "previousOwner",
          "type": "address"
        },
        {
          "indexed": true,
          "internalType": "address",
          "name": "newOwner",
          "type": "address"
        }
      ],
      "name": "OwnershipTransferred",
      "type": "event"
    },
    {
      "inputs": [],
      "name": "_admin",
      "outputs": [
        {
          "internalType": "address",
          "name": "",
          "type": "address"
        }
      ],
      "stateMutability": "view",
      "type": "function"
    },
    {
      "inputs": [],
      "name": "_dao",
      "outputs": [
        {
          "internalType": "address",
          "name": "",
          "type": "address"
        }
      ],
      "stateMutability": "view",
      "type": "function"
    },
    {
      "inputs": [],
      "name": "_paramAddr",
      "outputs": [
        {
          "internalType": "address",
          "name": "",
          "type": "address"
        }
      ],
      "stateMutability": "view",
      "type": "function"
    },
    {
      "inputs": [
        {
          "internalType": "address",
          "name": "newAdm",
          "type": "address"
        }
      ],
      "name": "changeAdmin",
      "outputs": [],
      "stateMutability": "nonpayable",
      "type": "function"
    },
    {
      "inputs": [
        {
          "internalType": "address",
          "name": "newAddr",
          "type": "address"
        }
      ],
      "name": "changeDAOAddress",
      "outputs": [],
      "stateMutability": "nonpayable",
      "type": "function"
    },
    {
      "inputs": [
        {
          "internalType": "address",
          "name": "newAddr",
          "type": "address"
        }
      ],
      "name": "changeParamAddress",
      "outputs": [],
      "stateMutability": "nonpayable",
      "type": "function"
    },
    {
      "inputs": [
        {
          "internalType": "address",
          "name": "admin",
          "type": "address"
        },
        {
          "internalType": "address",
          "name": "paramAddr",
          "type": "address"
        },
        {
          "internalType": "address",
          "name": "dao",
          "type": "address"
        }
      ],
      "name": "initialize",
      "outputs": [],
      "stateMutability": "nonpayable",
      "type": "function"
    },
    {
      "inputs": [
        {
          "internalType": "address",
          "name": "",
          "type": "address"
        },
        {
          "internalType": "address",
          "name": "",
          "type": "address"
        },
        {
          "internalType": "uint256[]",
          "name": "",
          "type": "uint256[]"
        },
        {
          "internalType": "uint256[]",
          "name": "",
          "type": "uint256[]"
        },
        {
          "internalType": "bytes",
          "name": "",
          "type": "bytes"
        }
      ],
      "name": "onERC1155BatchReceived",
      "outputs": [
        {
          "internalType": "bytes4",
          "name": "",
          "type": "bytes4"
        }
      ],
      "stateMutability": "nonpayable",
      "type": "function"
    },
    {
      "inputs": [
        {
          "internalType": "address",
          "name": "",
          "type": "address"
        },
        {
          "internalType": "address",
          "name": "",
          "type": "address"
        },
        {
          "internalType": "uint256",
          "name": "",
          "type": "uint256"
        },
        {
          "internalType": "uint256",
          "name": "",
          "type": "uint256"
        },
        {
          "internalType": "bytes",
          "name": "",
          "type": "bytes"
        }
      ],
      "name": "onERC1155Received",
      "outputs": [
        {
          "internalType": "bytes4",
          "name": "",
          "type": "bytes4"
        }
      ],
      "stateMutability": "nonpayable",
      "type": "function"
    },
    {
      "inputs": [
        {
          "internalType": "address",
          "name": "",
          "type": "address"
        },
        {
          "internalType": "address",
          "name": "",
          "type": "address"
        },
        {
          "internalType": "uint256",
          "name": "",
          "type": "uint256"
        },
        {
          "internalType": "bytes",
          "name": "",
          "type": "bytes"
        }
      ],
      "name": "onERC721Received",
      "outputs": [
        {
          "internalType": "bytes4",
          "name": "",
          "type": "bytes4"
        }
      ],
      "stateMutability": "nonpayable",
      "type": "function"
    },
    {
      "inputs": [],
      "name": "owner",
      "outputs": [
        {
          "internalType": "address",
          "name": "",
          "type": "address"
        }
      ],
      "stateMutability": "view",
      "type": "function"
    },
    {
      "inputs": [],
      "name": "renounceOwnership",
      "outputs": [],
      "stateMutability": "nonpayable",
      "type": "function"
    },
    {
      "inputs": [
        {
          "internalType": "bytes4",
          "name": "interfaceId",
          "type": "bytes4"
        }
      ],
      "name": "supportsInterface",
      "outputs": [
        {
          "internalType": "bool",
          "name": "",
          "type": "bool"
        }
      ],
      "stateMutability": "view",
      "type": "function"
    },
    {
      "inputs": [
        {
          "internalType": "address",
          "name": "to",
          "type": "address"
        },
        {
          "internalType": "uint256",
          "name": "amount",
          "type": "uint256"
        }
      ],
      "name": "transfer",
      "outputs": [],
      "stateMutability": "nonpayable",
      "type": "function"
    },
    {
      "inputs": [
        {
          "internalType": "address",
          "name": "to",
          "type": "address"
        },
        {
          "internalType": "address",
          "name": "collection",
          "type": "address"
        },
        {
          "internalType": "uint256",
          "name": "tokenId",
          "type": "uint256"
        },
        {
          "internalType": "uint256",
          "name": "amount",
          "type": "uint256"
        }
      ],
      "name": "transferERC1155",
      "outputs": [],
      "stateMutability": "nonpayable",
      "type": "function"
    },
    {
      "inputs": [
        {
          "internalType": "address",
          "name": "to",
          "type": "address"
        },
        {
          "internalType": "address",
          "name": "erc20Addr",
          "type": "address"
        },
        {
          "internalType": "uint256",
          "name": "amount",
          "type": "uint256"
        }
      ],
      "name": "transferERC20",
      "outputs": [],
      "stateMutability": "nonpayable",
      "type": "function"
    },
    {
      "inputs": [
        {
          "internalType": "address",
          "name": "to",
          "type": "address"
        },
        {
          "internalType": "address",
          "name": "collection",
          "type": "address"
        },
        {
          "internalType": "uint256",
          "name": "tokenId",
          "type": "uint256"
        }
      ],
      "name": "transferERC721",
      "outputs": [],
      "stateMutability": "nonpayable",
      "type": "function"
    },
    {
      "inputs": [
        {
          "internalType": "address",
          "name": "newOwner",
          "type": "address"
        }
      ],
      "name": "transferOwnership",
      "outputs": [],
      "stateMutability": "nonpayable",
      "type": "function"
    },
    {
      "inputs": [
        {
          "internalType": "address",
          "name": "erc20Addr",
          "type": "address"
        },
        {
          "internalType": "uint256",
          "name": "amount",
          "type": "uint256"
        }
      ],
      "name": "withdraw",
      "outputs": [],
      "stateMutability": "nonpayable",
      "type": "function"
    },
    {
      "inputs": [
        {
          "internalType": "address",
          "name": "collection",
          "type": "address"
        },
        {
          "internalType": "uint256",
          "name": "tokenId",
          "type": "uint256"
        },
        {
          "internalType": "uint256",
          "name": "amount",
          "type": "uint256"
        }
      ],
      "name": "withdrawERC1155",
      "outputs": [],
      "stateMutability": "nonpayable",
      "type": "function"
    },
    {
      "inputs": [
        {
          "internalType": "address",
          "name": "collection",
          "type": "address"
        },
        {
          "internalType": "uint256",
          "name": "tokenId",
          "type": "uint256"
        }
      ],
      "name": "withdrawERC721",
      "outputs": [],
      "stateMutability": "nonpayable",
      "type": "function"
    },
    {
      "stateMutability": "payable",
      "type": "receive"
    }
  ],
  "bytecode": "0x608060405234801561001057600080fd5b50611546806100206000396000f3fe60806040526004361061012e5760003560e01c80639db5dbe4116100ab578063e2437ac11161006f578063e2437ac11461037d578063f23a6e611461039d578063f2fde38b146103c9578063f3e414f8146103e9578063f3fef3a314610409578063f4a290f71461042957600080fd5b80639db5dbe4146102d1578063a9059cbb146102f1578063bc197c8114610311578063c0c53b8b1461033d578063e06837261461035d57600080fd5b80631aca6376116100f25780631aca63761461023e57806339ead7201461025e578063715018a61461027e5780638da5cb5b146102935780638f283970146102b157600080fd5b806301bc45c91461013a57806301ffc9a7146101775780630a7e880c146101b8578063150b7a02146101da57806316a5041f1461021e57600080fd5b3661013557005b600080fd5b34801561014657600080fd5b5060975461015a906001600160a01b031681565b6040516001600160a01b0390911681526020015b60405180910390f35b34801561018357600080fd5b506101a8610192366004610fe2565b6001600160e01b0319166301ffc9a760e01b1490565b604051901515815260200161016e565b3480156101c457600080fd5b506101d86101d336600461102f565b610449565b005b3480156101e657600080fd5b506102056101f5366004611128565b630a85bd0160e11b949350505050565b6040516001600160e01b0319909116815260200161016e565b34801561022a57600080fd5b506101d8610239366004611190565b610518565b34801561024a57600080fd5b506101d86102593660046111ab565b6105a9565b34801561026a57600080fd5b506101d86102793660046111e7565b610674565b34801561028a57600080fd5b506101d86106f7565b34801561029f57600080fd5b506033546001600160a01b031661015a565b3480156102bd57600080fd5b506101d86102cc366004611190565b61070b565b3480156102dd57600080fd5b506101d86102ec3660046111ab565b61079d565b3480156102fd57600080fd5b506101d861030c36600461121a565b610876565b34801561031d57600080fd5b5061020561032c3660046112c4565b63bc197c8160e01b95945050505050565b34801561034957600080fd5b506101d861035836600461136e565b610941565b34801561036957600080fd5b5060995461015a906001600160a01b031681565b34801561038957600080fd5b506101d8610398366004611190565b610b08565b3480156103a957600080fd5b506102056103b83660046113b1565b63f23a6e6160e01b95945050505050565b3480156103d557600080fd5b506101d86103e4366004611190565b610b9a565b3480156103f557600080fd5b506101d861040436600461121a565b610c10565b34801561041557600080fd5b506101d861042436600461121a565b610cd2565b34801561043557600080fd5b5060985461015a906001600160a01b031681565b610451610e20565b60995460408051808201909152600381526231303160e81b6020820152906001600160a01b031633146104a05760405162461bcd60e51b81526004016104979190611416565b60405180910390fd5b50604051637921219560e11b815283906001600160a01b0382169063f242432a906104d590309089908890889060040161146b565b600060405180830381600087803b1580156104ef57600080fd5b505af1158015610503573d6000803e3d6000fd5b50505050506105126001606555565b50505050565b6097546001600160a01b03163314801561053a57506001600160a01b03811615155b6040518060400160405280600381526020016231303160e81b815250906105745760405162461bcd60e51b81526004016104979190611416565b506098546001600160a01b038281169116146105a657609880546001600160a01b0319166001600160a01b0383161790555b50565b6105b1610e20565b60995460408051808201909152600381526231303160e81b6020820152906001600160a01b031633146105f75760405162461bcd60e51b81526004016104979190611416565b50604051632142170760e11b81523060048201526001600160a01b038481166024830152604482018390528391908216906342842e0e906064015b600060405180830381600087803b15801561064c57600080fd5b505af1158015610660573d6000803e3d6000fd5b505050505061066f6001606555565b505050565b61067c610e20565b60975460408051808201909152600381526231303160e81b6020820152906001600160a01b031633146106c25760405162461bcd60e51b81526004016104979190611416565b50604051637921219560e11b815283906001600160a01b0382169063f242432a9061063290309033908890889060040161146b565b6106ff610e81565b6107096000610edb565b565b6097546001600160a01b03163314801561072d57506001600160a01b03811615155b6040518060400160405280600381526020016231303160e81b815250906107675760405162461bcd60e51b81526004016104979190611416565b506097546001600160a01b038281169116146105a657609780546001600160a01b0383166001600160a01b031990911617905550565b6107a5610e20565b60995460408051808201909152600381526231303160e81b6020820152906001600160a01b031633146107eb5760405162461bcd60e51b81526004016104979190611416565b5060405163a9059cbb60e01b81526001600160a01b0384811660048301526024820183905283919082169063a9059cbb906044016020604051808303816000875af115801561083e573d6000803e3d6000fd5b505050506040513d601f19601f8201168201806040525081019061086291906114a3565b61086b57600080fd5b5061066f6001606555565b61087e610e20565b60995460408051808201909152600381526231303160e81b6020820152906001600160a01b031633146108c45760405162461bcd60e51b81526004016104979190611416565b50804710156108d257600080fd5b6000826001600160a01b03168260405160006040518083038185875af1925050503d806000811461091f576040519150601f19603f3d011682016040523d82523d6000602084013e610924565b606091505b505090508061093257600080fd5b5061093d6001606555565b5050565b600054610100900460ff16158080156109615750600054600160ff909116105b8061097b5750303b15801561097b575060005460ff166001145b6109de5760405162461bcd60e51b815260206004820152602e60248201527f496e697469616c697a61626c653a20636f6e747261637420697320616c72656160448201526d191e481a5b9a5d1a585b1a5e995960921b6064820152608401610497565b6000805460ff191660011790558015610a01576000805461ff0019166101001790555b6001600160a01b03841615801590610a2157506001600160a01b03831615155b8015610a3557506001600160a01b03821615155b6040518060400160405280600381526020016203130360ec1b81525090610a6f5760405162461bcd60e51b81526004016104979190611416565b50609780546001600160a01b038087166001600160a01b031992831617909255609880548684169083161790556099805492851692909116919091179055610ab5610f2d565b610abd610f5c565b8015610512576000805461ff0019169055604051600181527f7f26b83ff96e1f2b6a682f133852f6798a09c465da95921460cefb38474024989060200160405180910390a150505050565b6097546001600160a01b031633148015610b2a57506001600160a01b03811615155b6040518060400160405280600381526020016231303160e81b81525090610b645760405162461bcd60e51b81526004016104979190611416565b506099546001600160a01b038281169116146105a657609980546001600160a01b0383166001600160a01b031990911617905550565b610ba2610e81565b6001600160a01b038116610c075760405162461bcd60e51b815260206004820152602660248201527f4f776e61626c653a206e6577206f776e657220697320746865207a65726f206160448201526564647265737360d01b6064820152608401610497565b6105a681610edb565b610c18610e20565b60975460408051808201909152600381526231303160e81b6020820152906001600160a01b03163314610c5e5760405162461bcd60e51b81526004016104979190611416565b50604051632142170760e11b81523060048201523360248201526044810182905282906001600160a01b038216906342842e0e90606401600060405180830381600087803b158015610caf57600080fd5b505af1158015610cc3573d6000803e3d6000fd5b505050505061093d6001606555565b610cda610e20565b60975460408051808201909152600381526231303160e81b6020820152906001600160a01b03163314610d205760405162461bcd60e51b81526004016104979190611416565b5060006001600160a01b038316610d985781471015610d3e57600080fd5b60405133908390600081818185875af1925050503d8060008114610d7e576040519150601f19603f3d011682016040523d82523d6000602084013e610d83565b606091505b50508091505080610d9357600080fd5b610932565b60405163a9059cbb60e01b81523360048201526024810183905283906001600160a01b0382169063a9059cbb906044016020604051808303816000875af1158015610de7573d6000803e3d6000fd5b505050506040513d601f19601f82011682018060405250810190610e0b91906114a3565b610e1457600080fd5b505061093d6001606555565b60026065541415610e735760405162461bcd60e51b815260206004820152601f60248201527f5265656e7472616e637947756172643a207265656e7472616e742063616c6c006044820152606401610497565b6002606555565b6001606555565b6033546001600160a01b031633146107095760405162461bcd60e51b815260206004820181905260248201527f4f776e61626c653a2063616c6c6572206973206e6f7420746865206f776e65726044820152606401610497565b603380546001600160a01b038381166001600160a01b0319831681179093556040519116919082907f8be0079c531659141344cd1fd0a4f28419497f9722a3daafe3b4186f6b6457e090600090a35050565b600054610100900460ff16610f545760405162461bcd60e51b8152600401610497906114c5565b610709610f8b565b600054610100900460ff16610f835760405162461bcd60e51b8152600401610497906114c5565b610709610fbb565b600054610100900460ff16610fb25760405162461bcd60e51b8152600401610497906114c5565b61070933610edb565b600054610100900460ff16610e7a5760405162461bcd60e51b8152600401610497906114c5565b600060208284031215610ff457600080fd5b81356001600160e01b03198116811461100c57600080fd5b9392505050565b80356001600160a01b038116811461102a57600080fd5b919050565b6000806000806080858703121561104557600080fd5b61104e85611013565b935061105c60208601611013565b93969395505050506040820135916060013590565b634e487b7160e01b600052604160045260246000fd5b604051601f8201601f1916810167ffffffffffffffff811182821017156110b0576110b0611071565b604052919050565b600082601f8301126110c957600080fd5b813567ffffffffffffffff8111156110e3576110e3611071565b6110f6601f8201601f1916602001611087565b81815284602083860101111561110b57600080fd5b816020850160208301376000918101602001919091529392505050565b6000806000806080858703121561113e57600080fd5b61114785611013565b935061115560208601611013565b925060408501359150606085013567ffffffffffffffff81111561117857600080fd5b611184878288016110b8565b91505092959194509250565b6000602082840312156111a257600080fd5b61100c82611013565b6000806000606084860312156111c057600080fd5b6111c984611013565b92506111d760208501611013565b9150604084013590509250925092565b6000806000606084860312156111fc57600080fd5b61120584611013565b95602085013595506040909401359392505050565b6000806040838503121561122d57600080fd5b61123683611013565b946020939093013593505050565b600082601f83011261125557600080fd5b8135602067ffffffffffffffff82111561127157611271611071565b8160051b611280828201611087565b928352848101820192828101908785111561129a57600080fd5b83870192505b848310156112b9578235825291830191908301906112a0565b979650505050505050565b600080600080600060a086880312156112dc57600080fd5b6112e586611013565b94506112f360208701611013565b9350604086013567ffffffffffffffff8082111561131057600080fd5b61131c89838a01611244565b9450606088013591508082111561133257600080fd5b61133e89838a01611244565b9350608088013591508082111561135457600080fd5b50611361888289016110b8565b9150509295509295909350565b60008060006060848603121561138357600080fd5b61138c84611013565b925061139a60208501611013565b91506113a860408501611013565b90509250925092565b600080600080600060a086880312156113c957600080fd5b6113d286611013565b94506113e060208701611013565b93506040860135925060608601359150608086013567ffffffffffffffff81111561140a57600080fd5b611361888289016110b8565b600060208083528351808285015260005b8181101561144357858101830151858201604001528201611427565b81811115611455576000604083870101525b50601f01601f1916929092016040019392505050565b6001600160a01b0394851681529290931660208301526040820152606081019190915260a06080820181905260009082015260c00190565b6000602082840312156114b557600080fd5b8151801515811461100c57600080fd5b6020808252602b908201527f496e697469616c697a61626c653a20636f6e7472616374206973206e6f74206960408201526a6e697469616c697a696e6760a81b60608201526080019056fea2646970667358221220e5ab3078e563da5ac7dc2570acbff051263dda8f4290346855c62749ffa2cf1c64736f6c634300080c0033",
  "linkReferences": {},
  "deployedLinkReferences": {}
}