{
  "_format": "hh-sol-artifact-1",
  "contractName": "GenDAOTreasury",
  "sourceName": "contracts/governance/GenDAOTreasury.sol",
  "abi": [
    {
      "anonymous": false,
      "inputs": [
        {
          "indexed": false,
          "internalType": "uint8",
          "name": "version",
          "type": "uint8"
        }
      ],
      "name": "Initialized",
      "type": "event"
    },
    {
      "anonymous": false,
      "inputs": [
        {
          "indexed": true,
          "internalType": "address",
          "name": "previousOwner",
          "type": "address"
        },
        {
          "indexed": true,
          "internalType": "address",
          "name": "newOwner",
          "type": "address"
        }
      ],
      "name": "OwnershipTransferred",
      "type": "event"
    },
    {
      "inputs": [],
      "name": "_admin",
      "outputs": [
        {
          "internalType": "address",
          "name": "",
          "type": "address"
        }
      ],
      "stateMutability": "view",
      "type": "function"
    },
    {
      "inputs": [],
      "name": "_dao",
      "outputs": [
        {
          "internalType": "address",
          "name": "",
          "type": "address"
        }
      ],
      "stateMutability": "view",
      "type": "function"
    },
    {
      "inputs": [],
      "name": "_paramAddr",
      "outputs": [
        {
          "internalType": "address",
          "name": "",
          "type": "address"
        }
      ],
      "stateMutability": "view",
      "type": "function"
    },
    {
      "inputs": [
        {
          "internalType": "address",
          "name": "newAdm",
          "type": "address"
        }
      ],
      "name": "changeAdmin",
      "outputs": [],
      "stateMutability": "nonpayable",
      "type": "function"
    },
    {
      "inputs": [
        {
          "internalType": "address",
          "name": "newAddr",
          "type": "address"
        }
      ],
      "name": "changeDAOAddress",
      "outputs": [],
      "stateMutability": "nonpayable",
      "type": "function"
    },
    {
      "inputs": [
        {
          "internalType": "address",
          "name": "newAddr",
          "type": "address"
        }
      ],
      "name": "changeParamAddress",
      "outputs": [],
      "stateMutability": "nonpayable",
      "type": "function"
    },
    {
      "inputs": [
        {
          "internalType": "address",
          "name": "admin",
          "type": "address"
        },
        {
          "internalType": "address",
          "name": "paramAddr",
          "type": "address"
        },
        {
          "internalType": "address",
          "name": "dao",
          "type": "address"
        }
      ],
      "name": "initialize",
      "outputs": [],
      "stateMutability": "nonpayable",
      "type": "function"
    },
    {
      "inputs": [
        {
          "internalType": "address",
          "name": "",
          "type": "address"
        },
        {
          "internalType": "address",
          "name": "",
          "type": "address"
        },
        {
          "internalType": "uint256[]",
          "name": "",
          "type": "uint256[]"
        },
        {
          "internalType": "uint256[]",
          "name": "",
          "type": "uint256[]"
        },
        {
          "internalType": "bytes",
          "name": "",
          "type": "bytes"
        }
      ],
      "name": "onERC1155BatchReceived",
      "outputs": [
        {
          "internalType": "bytes4",
          "name": "",
          "type": "bytes4"
        }
      ],
      "stateMutability": "nonpayable",
      "type": "function"
    },
    {
      "inputs": [
        {
          "internalType": "address",
          "name": "",
          "type": "address"
        },
        {
          "internalType": "address",
          "name": "",
          "type": "address"
        },
        {
          "internalType": "uint256",
          "name": "",
          "type": "uint256"
        },
        {
          "internalType": "uint256",
          "name": "",
          "type": "uint256"
        },
        {
          "internalType": "bytes",
          "name": "",
          "type": "bytes"
        }
      ],
      "name": "onERC1155Received",
      "outputs": [
        {
          "internalType": "bytes4",
          "name": "",
          "type": "bytes4"
        }
      ],
      "stateMutability": "nonpayable",
      "type": "function"
    },
    {
      "inputs": [
        {
          "internalType": "address",
          "name": "",
          "type": "address"
        },
        {
          "internalType": "address",
          "name": "",
          "type": "address"
        },
        {
          "internalType": "uint256",
          "name": "",
          "type": "uint256"
        },
        {
          "internalType": "bytes",
          "name": "",
          "type": "bytes"
        }
      ],
      "name": "onERC721Received",
      "outputs": [
        {
          "internalType": "bytes4",
          "name": "",
          "type": "bytes4"
        }
      ],
      "stateMutability": "nonpayable",
      "type": "function"
    },
    {
      "inputs": [],
      "name": "owner",
      "outputs": [
        {
          "internalType": "address",
          "name": "",
          "type": "address"
        }
      ],
      "stateMutability": "view",
      "type": "function"
    },
    {
      "inputs": [],
      "name": "renounceOwnership",
      "outputs": [],
      "stateMutability": "nonpayable",
      "type": "function"
    },
    {
      "inputs": [
        {
          "internalType": "bytes4",
          "name": "interfaceId",
          "type": "bytes4"
        }
      ],
      "name": "supportsInterface",
      "outputs": [
        {
          "internalType": "bool",
          "name": "",
          "type": "bool"
        }
      ],
      "stateMutability": "view",
      "type": "function"
    },
    {
      "inputs": [
        {
          "internalType": "address",
          "name": "to",
          "type": "address"
        },
        {
          "internalType": "uint256",
          "name": "amount",
          "type": "uint256"
        }
      ],
      "name": "transfer",
      "outputs": [],
      "stateMutability": "nonpayable",
      "type": "function"
    },
    {
      "inputs": [
        {
          "internalType": "address",
          "name": "to",
          "type": "address"
        },
        {
          "internalType": "address",
          "name": "erc20Addr",
          "type": "address"
        },
        {
          "internalType": "uint256",
          "name": "amount",
          "type": "uint256"
        }
      ],
      "name": "transferERC20",
      "outputs": [],
      "stateMutability": "nonpayable",
      "type": "function"
    },
    {
      "inputs": [
        {
          "internalType": "address",
          "name": "to",
          "type": "address"
        },
        {
          "internalType": "address",
          "name": "collection",
          "type": "address"
        },
        {
          "internalType": "uint256",
          "name": "tokenId",
          "type": "uint256"
        }
      ],
      "name": "transferERC721",
      "outputs": [],
      "stateMutability": "nonpayable",
      "type": "function"
    },
    {
      "inputs": [
        {
          "internalType": "address",
          "name": "to",
          "type": "address"
        },
        {
          "internalType": "address",
          "name": "collection",
          "type": "address"
        },
        {
          "internalType": "uint256",
          "name": "tokenId",
          "type": "uint256"
        },
        {
          "internalType": "uint256",
          "name": "amount",
          "type": "uint256"
        }
      ],
      "name": "transferERC721",
      "outputs": [],
      "stateMutability": "nonpayable",
      "type": "function"
    },
    {
      "inputs": [
        {
          "internalType": "address",
          "name": "newOwner",
          "type": "address"
        }
      ],
      "name": "transferOwnership",
      "outputs": [],
      "stateMutability": "nonpayable",
      "type": "function"
    },
    {
      "inputs": [
        {
          "internalType": "address",
          "name": "receiver",
          "type": "address"
        },
        {
          "internalType": "address",
          "name": "erc20Addr",
          "type": "address"
        },
        {
          "internalType": "uint256",
          "name": "amount",
          "type": "uint256"
        }
      ],
      "name": "withdraw",
      "outputs": [],
      "stateMutability": "nonpayable",
      "type": "function"
    },
    {
      "stateMutability": "payable",
      "type": "receive"
    }
  ],
  "bytecode": "0x608060405234801561001057600080fd5b506111df806100206000396000f3fe6080604052600436106101185760003560e01c80639db5dbe4116100a0578063e068372611610064578063e068372614610347578063e2437ac114610367578063f23a6e6114610387578063f2fde38b146103b3578063f4a290f7146103d357600080fd5b80639db5dbe41461029b578063a9059cbb146102bb578063bc197c81146102db578063c0c53b8b14610307578063d9caed121461032757600080fd5b80631aca6376116100e75780631aca637614610208578063715018a6146102285780638da5cb5b1461023d5780638dc8073b1461025b5780638f2839701461027b57600080fd5b806301bc45c91461012457806301ffc9a714610161578063150b7a02146101a257806316a5041f146101e657600080fd5b3661011f57005b600080fd5b34801561013057600080fd5b50609754610144906001600160a01b031681565b6040516001600160a01b0390911681526020015b60405180910390f35b34801561016d57600080fd5b5061019261017c366004610d31565b6001600160e01b0319166301ffc9a760e01b1490565b6040519015158152602001610158565b3480156101ae57600080fd5b506101cd6101bd366004610e35565b630a85bd0160e11b949350505050565b6040516001600160e01b03199091168152602001610158565b3480156101f257600080fd5b50610206610201366004610e9d565b6103f3565b005b34801561021457600080fd5b50610206610223366004610eb8565b61048d565b34801561023457600080fd5b50610206610557565b34801561024957600080fd5b506033546001600160a01b0316610144565b34801561026757600080fd5b50610206610276366004610ef4565b61056b565b34801561028757600080fd5b50610206610296366004610e9d565b61064b565b3480156102a757600080fd5b506102066102b6366004610eb8565b6106dd565b3480156102c757600080fd5b506102066102d6366004610f36565b6107b6565b3480156102e757600080fd5b506101cd6102f6366004610fe0565b63bc197c8160e01b95945050505050565b34801561031357600080fd5b5061020661032236600461108a565b610881565b34801561033357600080fd5b50610206610342366004610eb8565b6109c9565b34801561035357600080fd5b50609954610144906001600160a01b031681565b34801561037357600080fd5b50610206610382366004610e9d565b610b23565b34801561039357600080fd5b506101cd6103a23660046110cd565b63f23a6e6160e01b95945050505050565b3480156103bf57600080fd5b506102066103ce366004610e9d565b610bb5565b3480156103df57600080fd5b50609854610144906001600160a01b031681565b6097546001600160a01b03163314801561041557506001600160a01b03811615155b6040518060400160405280600381526020016231303160e81b815250906104585760405162461bcd60e51b815260040161044f9190611132565b60405180910390fd5b506098546001600160a01b0382811691161461048a57609880546001600160a01b0319166001600160a01b0383161790555b50565b610495610c2b565b60995460408051808201909152600381526231303160e81b6020820152906001600160a01b031633146104db5760405162461bcd60e51b815260040161044f9190611132565b50604051632142170760e11b81523060048201526001600160a01b038481166024830152604482018390528391908216906342842e0e90606401600060405180830381600087803b15801561052f57600080fd5b505af1158015610543573d6000803e3d6000fd5b50505050506105526001606555565b505050565b61055f610c85565b6105696000610cdf565b565b610573610c2b565b60995460408051808201909152600381526231303160e81b6020820152906001600160a01b031633146105b95760405162461bcd60e51b815260040161044f9190611132565b50604051637921219560e11b81523060048201526001600160a01b038581166024830152604482018490526064820183905260a06084830152600060a483015284919082169063f242432a9060c401600060405180830381600087803b15801561062257600080fd5b505af1158015610636573d6000803e3d6000fd5b50505050506106456001606555565b50505050565b6097546001600160a01b03163314801561066d57506001600160a01b03811615155b6040518060400160405280600381526020016231303160e81b815250906106a75760405162461bcd60e51b815260040161044f9190611132565b506097546001600160a01b0382811691161461048a57609780546001600160a01b0383166001600160a01b031990911617905550565b6106e5610c2b565b60995460408051808201909152600381526231303160e81b6020820152906001600160a01b0316331461072b5760405162461bcd60e51b815260040161044f9190611132565b5060405163a9059cbb60e01b81526001600160a01b0384811660048301526024820183905283919082169063a9059cbb906044016020604051808303816000875af115801561077e573d6000803e3d6000fd5b505050506040513d601f19601f820116820180604052508101906107a29190611187565b6107ab57600080fd5b506105526001606555565b6107be610c2b565b60995460408051808201909152600381526231303160e81b6020820152906001600160a01b031633146108045760405162461bcd60e51b815260040161044f9190611132565b508047101561081257600080fd5b6000826001600160a01b03168260405160006040518083038185875af1925050503d806000811461085f576040519150601f19603f3d011682016040523d82523d6000602084013e610864565b606091505b505090508061087257600080fd5b5061087d6001606555565b5050565b600054610100900460ff16158080156108a15750600054600160ff909116105b806108bb5750303b1580156108bb575060005460ff166001145b61091e5760405162461bcd60e51b815260206004820152602e60248201527f496e697469616c697a61626c653a20636f6e747261637420697320616c72656160448201526d191e481a5b9a5d1a585b1a5e995960921b606482015260840161044f565b6000805460ff191660011790558015610941576000805461ff0019166101001790555b609780546001600160a01b038087166001600160a01b0319928316179092556098805486841690831617905560998054928516929091169190911790558015610645576000805461ff0019169055604051600181527f7f26b83ff96e1f2b6a682f133852f6798a09c465da95921460cefb38474024989060200160405180910390a150505050565b6109d1610c2b565b60975460408051808201909152600381526231303160e81b6020820152906001600160a01b03163314610a175760405162461bcd60e51b815260040161044f9190611132565b5060006001600160a01b038316610a985781471015610a3557600080fd5b6040516001600160a01b038516908390600081818185875af1925050503d8060008114610a7e576040519150601f19603f3d011682016040523d82523d6000602084013e610a83565b606091505b50508091505080610a9357600080fd5b6107ab565b60405163a9059cbb60e01b81526001600160a01b0385811660048301526024820184905284919082169063a9059cbb906044016020604051808303816000875af1158015610aea573d6000803e3d6000fd5b505050506040513d601f19601f82011682018060405250810190610b0e9190611187565b610b1757600080fd5b50506105526001606555565b6097546001600160a01b031633148015610b4557506001600160a01b03811615155b6040518060400160405280600381526020016231303160e81b81525090610b7f5760405162461bcd60e51b815260040161044f9190611132565b506099546001600160a01b0382811691161461048a57609980546001600160a01b0383166001600160a01b031990911617905550565b610bbd610c85565b6001600160a01b038116610c225760405162461bcd60e51b815260206004820152602660248201527f4f776e61626c653a206e6577206f776e657220697320746865207a65726f206160448201526564647265737360d01b606482015260840161044f565b61048a81610cdf565b60026065541415610c7e5760405162461bcd60e51b815260206004820152601f60248201527f5265656e7472616e637947756172643a207265656e7472616e742063616c6c00604482015260640161044f565b6002606555565b6033546001600160a01b031633146105695760405162461bcd60e51b815260206004820181905260248201527f4f776e61626c653a2063616c6c6572206973206e6f7420746865206f776e6572604482015260640161044f565b603380546001600160a01b038381166001600160a01b0319831681179093556040519116919082907f8be0079c531659141344cd1fd0a4f28419497f9722a3daafe3b4186f6b6457e090600090a35050565b600060208284031215610d4357600080fd5b81356001600160e01b031981168114610d5b57600080fd5b9392505050565b80356001600160a01b0381168114610d7957600080fd5b919050565b634e487b7160e01b600052604160045260246000fd5b604051601f8201601f1916810167ffffffffffffffff81118282101715610dbd57610dbd610d7e565b604052919050565b600082601f830112610dd657600080fd5b813567ffffffffffffffff811115610df057610df0610d7e565b610e03601f8201601f1916602001610d94565b818152846020838601011115610e1857600080fd5b816020850160208301376000918101602001919091529392505050565b60008060008060808587031215610e4b57600080fd5b610e5485610d62565b9350610e6260208601610d62565b925060408501359150606085013567ffffffffffffffff811115610e8557600080fd5b610e9187828801610dc5565b91505092959194509250565b600060208284031215610eaf57600080fd5b610d5b82610d62565b600080600060608486031215610ecd57600080fd5b610ed684610d62565b9250610ee460208501610d62565b9150604084013590509250925092565b60008060008060808587031215610f0a57600080fd5b610f1385610d62565b9350610f2160208601610d62565b93969395505050506040820135916060013590565b60008060408385031215610f4957600080fd5b610f5283610d62565b946020939093013593505050565b600082601f830112610f7157600080fd5b8135602067ffffffffffffffff821115610f8d57610f8d610d7e565b8160051b610f9c828201610d94565b9283528481018201928281019087851115610fb657600080fd5b83870192505b84831015610fd557823582529183019190830190610fbc565b979650505050505050565b600080600080600060a08688031215610ff857600080fd5b61100186610d62565b945061100f60208701610d62565b9350604086013567ffffffffffffffff8082111561102c57600080fd5b61103889838a01610f60565b9450606088013591508082111561104e57600080fd5b61105a89838a01610f60565b9350608088013591508082111561107057600080fd5b5061107d88828901610dc5565b9150509295509295909350565b60008060006060848603121561109f57600080fd5b6110a884610d62565b92506110b660208501610d62565b91506110c460408501610d62565b90509250925092565b600080600080600060a086880312156110e557600080fd5b6110ee86610d62565b94506110fc60208701610d62565b93506040860135925060608601359150608086013567ffffffffffffffff81111561112657600080fd5b61107d88828901610dc5565b600060208083528351808285015260005b8181101561115f57858101830151858201604001528201611143565b81811115611171576000604083870101525b50601f01601f1916929092016040019392505050565b60006020828403121561119957600080fd5b81518015158114610d5b57600080fdfea264697066735822122079e881b54c0e980df0891e04979b9337bb5fe9cdd74d24b7f781b6a1fd9e11bb64736f6c634300080c0033",
  "linkReferences": {},
  "deployedLinkReferences": {}
}