{
  "_format": "hh-sol-artifact-1",
  "contractName": "GENTokenTestnet",
  "sourceName": "contracts/erc20/GENTokenTestnet.sol",
  "abi": [
    {
      "anonymous": false,
      "inputs": [
        {
          "indexed": true,
          "internalType": "address",
          "name": "owner",
          "type": "address"
        },
        {
          "indexed": true,
          "internalType": "address",
          "name": "spender",
          "type": "address"
        },
        {
          "indexed": false,
          "internalType": "uint256",
          "name": "value",
          "type": "uint256"
        }
      ],
      "name": "Approval",
      "type": "event"
    },
    {
      "anonymous": false,
      "inputs": [
        {
          "indexed": false,
          "internalType": "address",
          "name": "to",
          "type": "address"
        },
        {
          "indexed": false,
          "internalType": "uint256",
          "name": "amount",
          "type": "uint256"
        },
        {
          "indexed": false,
          "internalType": "uint256",
          "name": "primary",
          "type": "uint256"
        },
        {
          "indexed": false,
          "internalType": "uint256",
          "name": "",
          "type": "uint256"
        },
        {
          "indexed": false,
          "internalType": "uint256",
          "name": "second",
          "type": "uint256"
        }
      ],
      "name": "ClaimToken",
      "type": "event"
    },
    {
      "anonymous": false,
      "inputs": [
        {
          "indexed": true,
          "internalType": "address",
          "name": "delegator",
          "type": "address"
        },
        {
          "indexed": true,
          "internalType": "address",
          "name": "fromDelegate",
          "type": "address"
        },
        {
          "indexed": true,
          "internalType": "address",
          "name": "toDelegate",
          "type": "address"
        }
      ],
      "name": "DelegateChanged",
      "type": "event"
    },
    {
      "anonymous": false,
      "inputs": [
        {
          "indexed": true,
          "internalType": "address",
          "name": "delegate",
          "type": "address"
        },
        {
          "indexed": false,
          "internalType": "uint256",
          "name": "previousBalance",
          "type": "uint256"
        },
        {
          "indexed": false,
          "internalType": "uint256",
          "name": "newBalance",
          "type": "uint256"
        }
      ],
      "name": "DelegateVotesChanged",
      "type": "event"
    },
    {
      "anonymous": false,
      "inputs": [
        {
          "indexed": false,
          "internalType": "uint8",
          "name": "version",
          "type": "uint8"
        }
      ],
      "name": "Initialized",
      "type": "event"
    },
    {
      "anonymous": false,
      "inputs": [
        {
          "indexed": false,
          "internalType": "address",
          "name": "genNFT",
          "type": "address"
        }
      ],
      "name": "NotSupportProjectAddress",
      "type": "event"
    },
    {
      "anonymous": false,
      "inputs": [
        {
          "indexed": false,
          "internalType": "address",
          "name": "genNFT",
          "type": "address"
        }
      ],
      "name": "NotSupportProjectIndex",
      "type": "event"
    },
    {
      "anonymous": false,
      "inputs": [
        {
          "indexed": true,
          "internalType": "address",
          "name": "previousOwner",
          "type": "address"
        },
        {
          "indexed": true,
          "internalType": "address",
          "name": "newOwner",
          "type": "address"
        }
      ],
      "name": "OwnershipTransferred",
      "type": "event"
    },
    {
      "anonymous": false,
      "inputs": [
        {
          "indexed": false,
          "internalType": "address",
          "name": "account",
          "type": "address"
        }
      ],
      "name": "Paused",
      "type": "event"
    },
    {
      "anonymous": false,
      "inputs": [
        {
          "indexed": true,
          "internalType": "address",
          "name": "from",
          "type": "address"
        },
        {
          "indexed": true,
          "internalType": "address",
          "name": "to",
          "type": "address"
        },
        {
          "indexed": false,
          "internalType": "uint256",
          "name": "value",
          "type": "uint256"
        }
      ],
      "name": "Transfer",
      "type": "event"
    },
    {
      "anonymous": false,
      "inputs": [
        {
          "indexed": false,
          "internalType": "address",
          "name": "account",
          "type": "address"
        }
      ],
      "name": "Unpaused",
      "type": "event"
    },
    {
      "inputs": [],
      "name": "DOMAIN_SEPARATOR",
      "outputs": [
        {
          "internalType": "bytes32",
          "name": "",
          "type": "bytes32"
        }
      ],
      "stateMutability": "view",
      "type": "function"
    },
    {
      "inputs": [
        {
          "internalType": "address",
          "name": "",
          "type": "address"
        },
        {
          "internalType": "address",
          "name": "",
          "type": "address"
        }
      ],
      "name": "_PoASecondSale",
      "outputs": [
        {
          "internalType": "uint256",
          "name": "",
          "type": "uint256"
        }
      ],
      "stateMutability": "view",
      "type": "function"
    },
    {
      "inputs": [],
      "name": "_admin",
      "outputs": [
        {
          "internalType": "address",
          "name": "",
          "type": "address"
        }
      ],
      "stateMutability": "view",
      "type": "function"
    },
    {
      "inputs": [
        {
          "internalType": "address",
          "name": "",
          "type": "address"
        },
        {
          "internalType": "address",
          "name": "",
          "type": "address"
        }
      ],
      "name": "_claimed",
      "outputs": [
        {
          "internalType": "uint256",
          "name": "",
          "type": "uint256"
        }
      ],
      "stateMutability": "view",
      "type": "function"
    },
    {
      "inputs": [
        {
          "internalType": "address",
          "name": "",
          "type": "address"
        },
        {
          "internalType": "address",
          "name": "",
          "type": "address"
        }
      ],
      "name": "_claimedIndex",
      "outputs": [
        {
          "internalType": "uint256",
          "name": "",
          "type": "uint256"
        }
      ],
      "stateMutability": "view",
      "type": "function"
    },
    {
      "inputs": [],
      "name": "_paramAddr",
      "outputs": [
        {
          "internalType": "address",
          "name": "",
          "type": "address"
        }
      ],
      "stateMutability": "view",
      "type": "function"
    },
    {
      "inputs": [
        {
          "internalType": "address",
          "name": "",
          "type": "address"
        }
      ],
      "name": "_proxyPoASecondSales",
      "outputs": [
        {
          "internalType": "bool",
          "name": "",
          "type": "bool"
        }
      ],
      "stateMutability": "view",
      "type": "function"
    },
    {
      "inputs": [],
      "name": "_remainClaimSupply",
      "outputs": [
        {
          "internalType": "uint256",
          "name": "",
          "type": "uint256"
        }
      ],
      "stateMutability": "view",
      "type": "function"
    },
    {
      "inputs": [],
      "name": "_remainCoreTeam",
      "outputs": [
        {
          "internalType": "uint256",
          "name": "",
          "type": "uint256"
        }
      ],
      "stateMutability": "view",
      "type": "function"
    },
    {
      "inputs": [],
      "name": "_remainDAO",
      "outputs": [
        {
          "internalType": "uint256",
          "name": "",
          "type": "uint256"
        }
      ],
      "stateMutability": "view",
      "type": "function"
    },
    {
      "inputs": [
        {
          "internalType": "address",
          "name": "owner",
          "type": "address"
        },
        {
          "internalType": "address",
          "name": "spender",
          "type": "address"
        }
      ],
      "name": "allowance",
      "outputs": [
        {
          "internalType": "uint256",
          "name": "",
          "type": "uint256"
        }
      ],
      "stateMutability": "view",
      "type": "function"
    },
    {
      "inputs": [
        {
          "internalType": "address",
          "name": "spender",
          "type": "address"
        },
        {
          "internalType": "uint256",
          "name": "amount",
          "type": "uint256"
        }
      ],
      "name": "approve",
      "outputs": [
        {
          "internalType": "bool",
          "name": "",
          "type": "bool"
        }
      ],
      "stateMutability": "nonpayable",
      "type": "function"
    },
    {
      "inputs": [
        {
          "internalType": "address",
          "name": "account",
          "type": "address"
        }
      ],
      "name": "balanceOf",
      "outputs": [
        {
          "internalType": "uint256",
          "name": "",
          "type": "uint256"
        }
      ],
      "stateMutability": "view",
      "type": "function"
    },
    {
      "inputs": [
        {
          "internalType": "uint256",
          "name": "amount",
          "type": "uint256"
        }
      ],
      "name": "burn",
      "outputs": [],
      "stateMutability": "nonpayable",
      "type": "function"
    },
    {
      "inputs": [
        {
          "internalType": "address",
          "name": "account",
          "type": "address"
        },
        {
          "internalType": "uint256",
          "name": "amount",
          "type": "uint256"
        }
      ],
      "name": "burnFrom",
      "outputs": [],
      "stateMutability": "nonpayable",
      "type": "function"
    },
    {
      "inputs": [
        {
          "internalType": "address",
          "name": "newAdm",
          "type": "address"
        }
      ],
      "name": "changeAdmin",
      "outputs": [],
      "stateMutability": "nonpayable",
      "type": "function"
    },
    {
      "inputs": [
        {
          "internalType": "address",
          "name": "newAddr",
          "type": "address"
        }
      ],
      "name": "changeParamAddress",
      "outputs": [],
      "stateMutability": "nonpayable",
      "type": "function"
    },
    {
      "inputs": [
        {
          "internalType": "address",
          "name": "account",
          "type": "address"
        },
        {
          "internalType": "uint32",
          "name": "pos",
          "type": "uint32"
        }
      ],
      "name": "checkpoints",
      "outputs": [
        {
          "components": [
            {
              "internalType": "uint32",
              "name": "fromBlock",
              "type": "uint32"
            },
            {
              "internalType": "uint224",
              "name": "votes",
              "type": "uint224"
            }
          ],
          "internalType": "struct ERC20VotesUpgradeable.Checkpoint",
          "name": "",
          "type": "tuple"
        }
      ],
      "stateMutability": "view",
      "type": "function"
    },
    {
      "inputs": [],
      "name": "decay",
      "outputs": [
        {
          "internalType": "uint8",
          "name": "",
          "type": "uint8"
        }
      ],
      "stateMutability": "view",
      "type": "function"
    },
    {
      "inputs": [],
      "name": "decimals",
      "outputs": [
        {
          "internalType": "uint8",
          "name": "",
          "type": "uint8"
        }
      ],
      "stateMutability": "pure",
      "type": "function"
    },
    {
      "inputs": [
        {
          "internalType": "address",
          "name": "spender",
          "type": "address"
        },
        {
          "internalType": "uint256",
          "name": "subtractedValue",
          "type": "uint256"
        }
      ],
      "name": "decreaseAllowance",
      "outputs": [
        {
          "internalType": "bool",
          "name": "",
          "type": "bool"
        }
      ],
      "stateMutability": "nonpayable",
      "type": "function"
    },
    {
      "inputs": [
        {
          "internalType": "address",
          "name": "delegatee",
          "type": "address"
        }
      ],
      "name": "delegate",
      "outputs": [],
      "stateMutability": "nonpayable",
      "type": "function"
    },
    {
      "inputs": [
        {
          "internalType": "address",
          "name": "delegatee",
          "type": "address"
        },
        {
          "internalType": "uint256",
          "name": "nonce",
          "type": "uint256"
        },
        {
          "internalType": "uint256",
          "name": "expiry",
          "type": "uint256"
        },
        {
          "internalType": "uint8",
          "name": "v",
          "type": "uint8"
        },
        {
          "internalType": "bytes32",
          "name": "r",
          "type": "bytes32"
        },
        {
          "internalType": "bytes32",
          "name": "s",
          "type": "bytes32"
        }
      ],
      "name": "delegateBySig",
      "outputs": [],
      "stateMutability": "nonpayable",
      "type": "function"
    },
    {
      "inputs": [
        {
          "internalType": "address",
          "name": "account",
          "type": "address"
        }
      ],
      "name": "delegates",
      "outputs": [
        {
          "internalType": "address",
          "name": "",
          "type": "address"
        }
      ],
      "stateMutability": "view",
      "type": "function"
    },
    {
      "inputs": [
        {
          "internalType": "address",
          "name": "account",
          "type": "address"
        }
      ],
      "name": "getCurrentVotes",
      "outputs": [
        {
          "internalType": "uint96",
          "name": "",
          "type": "uint96"
        }
      ],
      "stateMutability": "view",
      "type": "function"
    },
    {
      "inputs": [
        {
          "internalType": "uint256",
          "name": "blockNumber",
          "type": "uint256"
        }
      ],
      "name": "getPastTotalSupply",
      "outputs": [
        {
          "internalType": "uint256",
          "name": "",
          "type": "uint256"
        }
      ],
      "stateMutability": "view",
      "type": "function"
    },
    {
      "inputs": [
        {
          "internalType": "address",
          "name": "account",
          "type": "address"
        },
        {
          "internalType": "uint256",
          "name": "blockNumber",
          "type": "uint256"
        }
      ],
      "name": "getPastVotes",
      "outputs": [
        {
          "internalType": "uint256",
          "name": "",
          "type": "uint256"
        }
      ],
      "stateMutability": "view",
      "type": "function"
    },
    {
      "inputs": [
        {
          "internalType": "address",
          "name": "account",
          "type": "address"
        },
        {
          "internalType": "uint256",
          "name": "blockNumber",
          "type": "uint256"
        }
      ],
      "name": "getPriorVotes",
      "outputs": [
        {
          "internalType": "uint96",
          "name": "",
          "type": "uint96"
        }
      ],
      "stateMutability": "view",
      "type": "function"
    },
    {
      "inputs": [
        {
          "internalType": "address",
          "name": "account",
          "type": "address"
        }
      ],
      "name": "getVotes",
      "outputs": [
        {
          "internalType": "uint256",
          "name": "",
          "type": "uint256"
        }
      ],
      "stateMutability": "view",
      "type": "function"
    },
    {
      "inputs": [
        {
          "internalType": "address",
          "name": "spender",
          "type": "address"
        },
        {
          "internalType": "uint256",
          "name": "addedValue",
          "type": "uint256"
        }
      ],
      "name": "increaseAllowance",
      "outputs": [
        {
          "internalType": "bool",
          "name": "",
          "type": "bool"
        }
      ],
      "stateMutability": "nonpayable",
      "type": "function"
    },
    {
      "inputs": [
        {
          "internalType": "string",
          "name": "name",
          "type": "string"
        },
        {
          "internalType": "string",
          "name": "symbol",
          "type": "string"
        },
        {
          "internalType": "address",
          "name": "admin",
          "type": "address"
        },
        {
          "internalType": "address",
          "name": "paramAddr",
          "type": "address"
        }
      ],
      "name": "initialize",
      "outputs": [],
      "stateMutability": "nonpayable",
      "type": "function"
    },
    {
      "inputs": [
        {
          "internalType": "address",
          "name": "generativeProjectAddr",
          "type": "address"
        },
        {
          "internalType": "uint256",
          "name": "projectId",
          "type": "uint256"
        }
      ],
      "name": "miningPoA",
      "outputs": [],
      "stateMutability": "nonpayable",
      "type": "function"
    },
    {
      "inputs": [],
      "name": "name",
      "outputs": [
        {
          "internalType": "string",
          "name": "",
          "type": "string"
        }
      ],
      "stateMutability": "view",
      "type": "function"
    },
    {
      "inputs": [
        {
          "internalType": "address",
          "name": "owner",
          "type": "address"
        }
      ],
      "name": "nonces",
      "outputs": [
        {
          "internalType": "uint256",
          "name": "",
          "type": "uint256"
        }
      ],
      "stateMutability": "view",
      "type": "function"
    },
    {
      "inputs": [
        {
          "internalType": "address",
          "name": "account",
          "type": "address"
        }
      ],
      "name": "numCheckpoints",
      "outputs": [
        {
          "internalType": "uint32",
          "name": "",
          "type": "uint32"
        }
      ],
      "stateMutability": "view",
      "type": "function"
    },
    {
      "inputs": [],
      "name": "owner",
      "outputs": [
        {
          "internalType": "address",
          "name": "",
          "type": "address"
        }
      ],
      "stateMutability": "view",
      "type": "function"
    },
    {
      "inputs": [],
      "name": "paused",
      "outputs": [
        {
          "internalType": "bool",
          "name": "",
          "type": "bool"
        }
      ],
      "stateMutability": "view",
      "type": "function"
    },
    {
      "inputs": [
        {
          "internalType": "address",
          "name": "owner",
          "type": "address"
        },
        {
          "internalType": "address",
          "name": "spender",
          "type": "address"
        },
        {
          "internalType": "uint256",
          "name": "value",
          "type": "uint256"
        },
        {
          "internalType": "uint256",
          "name": "deadline",
          "type": "uint256"
        },
        {
          "internalType": "uint8",
          "name": "v",
          "type": "uint8"
        },
        {
          "internalType": "bytes32",
          "name": "r",
          "type": "bytes32"
        },
        {
          "internalType": "bytes32",
          "name": "s",
          "type": "bytes32"
        }
      ],
      "name": "permit",
      "outputs": [],
      "stateMutability": "nonpayable",
      "type": "function"
    },
    {
      "inputs": [
        {
          "internalType": "address",
          "name": "generativeProjectAddr",
          "type": "address"
        },
        {
          "internalType": "uint256",
          "name": "projectId",
          "type": "uint256"
        }
      ],
      "name": "proofOfArtAvailable",
      "outputs": [
        {
          "internalType": "uint256",
          "name": "",
          "type": "uint256"
        },
        {
          "internalType": "uint256",
          "name": "",
          "type": "uint256"
        },
        {
          "internalType": "uint256",
          "name": "",
          "type": "uint256"
        }
      ],
      "stateMutability": "nonpayable",
      "type": "function"
    },
    {
      "inputs": [],
      "name": "renounceOwnership",
      "outputs": [],
      "stateMutability": "nonpayable",
      "type": "function"
    },
    {
      "inputs": [
        {
          "internalType": "address",
          "name": "genNFTAddr",
          "type": "address"
        },
        {
          "internalType": "uint256",
          "name": "tokenId",
          "type": "uint256"
        },
        {
          "internalType": "address",
          "name": "erc20Addr",
          "type": "address"
        },
        {
          "internalType": "uint256",
          "name": "amount",
          "type": "uint256"
        }
      ],
      "name": "setPoASecondSale",
      "outputs": [],
      "stateMutability": "nonpayable",
      "type": "function"
    },
    {
      "inputs": [
        {
          "internalType": "address",
          "name": "addr",
          "type": "address"
        },
        {
          "internalType": "bool",
          "name": "approve",
          "type": "bool"
        }
      ],
      "name": "setProxyPoASecondSale",
      "outputs": [],
      "stateMutability": "nonpayable",
      "type": "function"
    },
    {
      "inputs": [],
      "name": "symbol",
      "outputs": [
        {
          "internalType": "string",
          "name": "",
          "type": "string"
        }
      ],
      "stateMutability": "view",
      "type": "function"
    },
    {
      "inputs": [],
      "name": "totalSupply",
      "outputs": [
        {
          "internalType": "uint256",
          "name": "",
          "type": "uint256"
        }
      ],
      "stateMutability": "view",
      "type": "function"
    },
    {
      "inputs": [
        {
          "internalType": "address",
          "name": "to",
          "type": "address"
        },
        {
          "internalType": "uint256",
          "name": "amount",
          "type": "uint256"
        }
      ],
      "name": "transfer",
      "outputs": [
        {
          "internalType": "bool",
          "name": "",
          "type": "bool"
        }
      ],
      "stateMutability": "nonpayable",
      "type": "function"
    },
    {
      "inputs": [
        {
          "internalType": "address",
          "name": "from",
          "type": "address"
        },
        {
          "internalType": "address",
          "name": "to",
          "type": "address"
        },
        {
          "internalType": "uint256",
          "name": "amount",
          "type": "uint256"
        }
      ],
      "name": "transferFrom",
      "outputs": [
        {
          "internalType": "bool",
          "name": "",
          "type": "bool"
        }
      ],
      "stateMutability": "nonpayable",
      "type": "function"
    },
    {
      "inputs": [
        {
          "internalType": "address",
          "name": "newOwner",
          "type": "address"
        }
      ],
      "name": "transferOwnership",
      "outputs": [],
      "stateMutability": "nonpayable",
      "type": "function"
    }
  ],
  "bytecode": "0x608060405234801561001057600080fd5b50613bfe806100206000396000f3fe608060405234801561001057600080fd5b50600436106102955760003560e01c806379cc679011610167578063b354675b116100ce578063d505accf11610087578063d505accf14610668578063dd62ed3e1461067b578063e6f814131461068e578063f1127ed814610698578063f2fde38b146106d5578063f4a290f7146106e857600080fd5b8063b354675b146105d5578063b4b5ea5714610601578063b4d2728314610614578063c3678f3514610627578063c3cda52014610631578063c4fcdc3d1461064457600080fd5b80639452772911610120578063945277291461053a57806395d89b41146105665780639637e89a1461056e5780639ab24eb01461059c578063a457c2d7146105af578063a9059cbb146105c257600080fd5b806379cc6790146104ca5780637ecebe00146104dd5780638da5cb5b146104f05780638e539e8c146105015780638f15b414146105145780638f2839701461052757600080fd5b806342966c681161020b57806361d61800116101c457806361d61800146104105780636e0c558f1461041a5780636fcfff451461044657806370a082311461046e578063715018a614610497578063782d6fe11461049f57600080fd5b806342966c681461039757806354fac919146103aa578063587cde1e146103b25780635c19a95c146103df5780635c975abb146103f257806361bcaf74146103fd57600080fd5b806323b872dd1161025d57806323b872dd1461032e578063306ca55d14610341578063313ce567146103545780633644e5151461036957806339509351146103715780633a46b1a81461038457600080fd5b806301bc45c91461029a57806306fdde03146102cb578063095ea7b3146102e057806316a5041f1461030357806318160ddd14610318575b600080fd5b6101f8546102ae906001600160a01b031681565b6040516001600160a01b0390911681526020015b60405180910390f35b6102d36106fc565b6040516102c29190613049565b6102f36102ee366004613091565b61078e565b60405190151581526020016102c2565b6103166103113660046130bd565b6107a8565b005b610320610845565b6040519081526020016102c2565b6102f361033c3660046130da565b610855565b61031661034f36600461311b565b610879565b60125b60405160ff90911681526020016102c2565b610320610903565b6102f361037f366004613091565b61090d565b610320610392366004613091565b61092f565b6103166103a5366004613159565b6109aa565b6103576109b4565b6102ae6103c03660046130bd565b6001600160a01b03908116600090815261019460205260409020541690565b6103166103ed3660046130bd565b610a9c565b60655460ff166102f3565b61031661040b366004613172565b610aa6565b6103206101fe5481565b6103206104283660046131ba565b6101ff60209081526000928352604080842090915290825290205481565b6104596104543660046130bd565b610cdf565b60405163ffffffff90911681526020016102c2565b61032061047c3660046130bd565b6001600160a01b031660009081526033602052604090205490565b610316610d02565b6104b26104ad366004613091565b610d16565b6040516001600160601b0390911681526020016102c2565b6103166104d8366004613091565b610d2a565b6103206104eb3660046130bd565b610d43565b60fb546001600160a01b03166102ae565b61032061050f366004613159565b610d62565b6103166105223660046132fa565b610dbf565b6103166105353660046130bd565b61102b565b6103206105483660046131ba565b6101fa60209081526000928352604080842090915290825290205481565b6102d36110c0565b61058161057c366004613091565b6110cf565b604080519384526020840192909252908201526060016102c2565b6103206105aa3660046130bd565b61145c565b6102f36105bd366004613091565b6114e5565b6102f36105d0366004613091565b611560565b6103206105e33660046131ba565b6101fb60209081526000928352604080842090915290825290205481565b6104b261060f3660046130bd565b61156e565b610316610622366004613091565b61157c565b6103206101fc5481565b61031661063f366004613399565b61188b565b6102f36106523660046130bd565b6102006020526000908152604090205460ff1681565b6103166106763660046133f3565b6119c1565b6103206106893660046131ba565b611b25565b6103206101fd5481565b6106ab6106a6366004613461565b611b50565b60408051825163ffffffff1681526020928301516001600160e01b031692810192909252016102c2565b6103166106e33660046130bd565b611bd5565b6101f9546102ae906001600160a01b031681565b60606036805461070b90613498565b80601f016020809104026020016040519081016040528092919081815260200182805461073790613498565b80156107845780601f1061075957610100808354040283529160200191610784565b820191906000526020600020905b81548152906001019060200180831161076757829003601f168201915b5050505050905090565b60003361079c818585611c4b565b60019150505b92915050565b6101f8546001600160a01b0316331480156107cb57506001600160a01b03811615155b6040518060400160405280600381526020016231303160e81b8152509061080e5760405162461bcd60e51b81526004016108059190613049565b60405180910390fd5b506101f9546001600160a01b03828116911614610842576101f880546001600160a01b0319166001600160a01b0383161790555b50565b600061085060355490565b905090565b600033610863858285611d6f565b61086e858585611de3565b506001949350505050565b6101f8546001600160a01b03163314801561089c57506001600160a01b03821615155b6040518060400160405280600381526020016231303160e81b815250906108d65760405162461bcd60e51b81526004016108059190613049565b506001600160a01b0391909116600090815261020060205260409020805460ff1916911515919091179055565b6000610850611f9f565b60003361079c8185856109208383611b25565b61092a91906134e3565b611c4b565b60004382106109805760405162461bcd60e51b815260206004820152601f60248201527f4552433230566f7465733a20626c6f636b206e6f7420796574206d696e6564006044820152606401610805565b6001600160a01b0383166000908152610195602052604090206109a3908361201c565b9392505050565b6108423382612113565b6000806109c36012600a6135df565b6109d090620f42406135ee565b905060006101fc5482603c6109e591906135ee565b6109ef919061360d565b90506109fc82600a6135ee565b811015610a0c5760209250505090565b610a178260146135ee565b811015610a275760109250505090565b610a3282601e6135ee565b811015610a425760089250505090565b610a4d8260286135ee565b811015610a5d5760049250505090565b610a688260326135ee565b811015610a785760029250505090565b610a8382603c6135ee565b811015610a935760019250505090565b60009250505090565b610842338261211d565b6101f8546001600160a01b0316331480610ad05750336000908152610200602052604090205460ff165b15610cd9576001600160a01b038216610cd9576000849050806001600160a01b0316633cf96af16040518163ffffffff1660e01b8152600401602060405180830381865afa925050508015610b42575060408051601f3d908101601f19168201909252610b3f9181019061362f565b60015b610b87576040516001600160a01b03861681527fd885430e240642202c2cb56f1e0ef33710e94fff454cd0e3c6d509b01d5aca739060200160405180910390a1610cd7565b6000610b96620f424087613662565b6040516331a9108f60e11b81526004810182905290915082906000906001600160a01b03831690636352211e90602401602060405180830381865afa158015610be3573d6000803e3d6000fd5b505050506040513d601f19601f82011682018060405250810190610c07919061362f565b90506001600160a01b03811615610cd2576040516346ec8d2b60e11b8152600481018490526000906001600160a01b03841690638dd91a5690602401600060405180830381865afa158015610c60573d6000803e3d6000fd5b505050506040513d6000823e601f3d908101601f19168201604052610c8891908101906138d5565b6001600160a01b0380841660009081526101ff602090815260408083206101e0860151909416835292905290812080549293508992909190610ccb9084906134e3565b9091555050505b505050505b505b50505050565b6001600160a01b038116600090815261019560205260408120546107a290612198565b610d0a612201565b610d14600061225b565b565b60006109a3610d25848461092f565b6122ad565b610d35823383611d6f565b610d3f8282612113565b5050565b6001600160a01b038116600090815261016160205260408120546107a2565b6000438210610db35760405162461bcd60e51b815260206004820152601f60248201527f4552433230566f7465733a20626c6f636b206e6f7420796574206d696e6564006044820152606401610805565b6107a26101968361201c565b600054610100900460ff1615808015610ddf5750600054600160ff909116105b80610df95750303b158015610df9575060005460ff166001145b610e5c5760405162461bcd60e51b815260206004820152602e60248201527f496e697469616c697a61626c653a20636f6e747261637420697320616c72656160448201526d191e481a5b9a5d1a585b1a5e995960921b6064820152608401610805565b6000805460ff191660011790558015610e7f576000805461ff0019166101001790555b6001600160a01b03831615801590610e9f57506001600160a01b03821615155b6040518060400160405280600381526020016203130360ec1b81525090610ed95760405162461bcd60e51b81526004016108059190613049565b506101f880546001600160a01b038086166001600160a01b0319928316179092556101f98054928516929091169190911790556000610f16601290565b610f2190600a6135df565b610f2f906305f5e1006135ee565b90506064610f3e82603c6135ee565b610f489190613662565b6101fc556064610f5982601e6135ee565b610f639190613662565b6101fd8190556101f854610f82916001600160a01b0390911690612315565b60006101fd556064610f9582600a6135ee565b610f9f9190613662565b6101fe8190556101f854610fbe916001600160a01b0390911690612315565b60006101fe55610fcc61231f565b610fd6868661234e565b610fde61237f565b508015610cd7576000805461ff0019169055604051600181527f7f26b83ff96e1f2b6a682f133852f6798a09c465da95921460cefb38474024989060200160405180910390a15050505050565b6101f8546001600160a01b03163314801561104e57506001600160a01b03811615155b6040518060400160405280600381526020016231303160e81b815250906110885760405162461bcd60e51b81526004016108059190613049565b506101f8546001600160a01b03828116911614610842576101f880546001600160a01b0383166001600160a01b031990911617905550565b60606037805461070b90613498565b6040516346ec8d2b60e11b81526004810182905260009081908190859082906001600160a01b03831690638dd91a5690602401600060405180830381865afa15801561111f573d6000803e3d6000fd5b505050506040513d6000823e601f3d908101601f1916820160405261114791908101906138d5565b606081015160408051808201909152600381526203430360ec1b60208201529192506001600160a01b0316156111905760405162461bcd60e51b81526004016108059190613049565b5060008160400151116111a257600080fd5b6000816101e001519050806001600160a01b031663631847266040518163ffffffff1660e01b8152600401602060405180830381865afa925050508015611206575060408051601f3d908101601f1916820190925261120391810190613b36565b60015b611252576101e08201516040516001600160a01b0390911681527fa2d47e5e61369d0bde38a716e62f1ea16d8124813f8ea55b832c218216e91dfc9060200160405180910390a1611446565b60008162ffffff161161126457600080fd5b600083604001516101fb6000876001600160a01b0316636352211e8d6040518263ffffffff1660e01b815260040161129e91815260200190565b602060405180830381865afa1580156112bb573d6000803e3d6000fd5b505050506040513d601f19601f820116820180604052508101906112df919061362f565b6001600160a01b039081168252602080830193909352604091820160009081206101e08a01519092168152925290205461131e9062ffffff851661360d565b61132891906135ee565b905060006101ff6000876001600160a01b0316636352211e8d6040518263ffffffff1660e01b815260040161135f91815260200190565b602060405180830381865afa15801561137c573d6000803e3d6000fd5b505050506040513d601f19601f820116820180604052508101906113a0919061362f565b6001600160a01b03166001600160a01b031681526020019081526020016000206000866101e001516001600160a01b03166001600160a01b031681526020019081526020016000205490506113f36109b4565b6114009060ff16836135ee565b61140c906103e86135ee565b836114156109b4565b6114229060ff16846135ee565b61142e906103e86135ee565b919a5062ffffff169850965061145595505050505050565b60008060009550955095505050505b9250925092565b6001600160a01b0381166000908152610195602052604081205480156114d2576001600160a01b0383166000908152610195602052604090206114a060018361360d565b815481106114b0576114b0613b51565b60009182526020909120015464010000000090046001600160e01b03166114d5565b60005b6001600160e01b03169392505050565b600033816114f38286611b25565b9050838110156115535760405162461bcd60e51b815260206004820152602560248201527f45524332303a2064656372656173656420616c6c6f77616e63652062656c6f77604482015264207a65726f60d81b6064820152608401610805565b61086e8286868403611c4b565b60003361079c818585611de3565b60006107a2610d258361145c565b6115846123ae565b60006101fc54116040518060400160405280600381526020016232303360e81b815250906115c55760405162461bcd60e51b81526004016108059190613049565b506040516346ec8d2b60e11b81526004810182905282906000906001600160a01b03831690638dd91a5690602401600060405180830381865afa158015611610573d6000803e3d6000fd5b505050506040513d6000823e601f3d908101601f1916820160405261163891908101906138d5565b606081015160408051808201909152600381526203430360ec1b60208201529192506001600160a01b0316156116815760405162461bcd60e51b81526004016108059190613049565b50600081604001511161169357600080fd5b60008060006116a287876110cf565b9194509250905060006116b582856134e3565b90506101fc548111156116c857506101fc545b60c0850180516001600160a01b0390811660009081526101fb602090815260408083206101e08b018051861685529083528184208990559451841683526101fa825280832094519093168252929092528120805483929061172a9084906134e3565b90915550506040516331a9108f60e11b81526004810188905282906101ff906000906001600160a01b038a1690636352211e90602401602060405180830381865afa15801561177d573d6000803e3d6000fd5b505050506040513d601f19601f820116820180604052508101906117a1919061362f565b6001600160a01b03166001600160a01b031681526020019081526020016000206000876101e001516001600160a01b03166001600160a01b0316815260200190815260200160002060008282546117f8919061360d565b909155505060c085015161180c9082612315565b806101fc600082825461181f919061360d565b909155505060c0850151604080516001600160a01b03909216825260208201839052810185905260608101849052608081018390527fab8740194374c5f9d49b0cbd25bbba5777839e75f33e3f7cd15b08a92cf6805b9060a00160405180910390a15050505050505050565b834211156118db5760405162461bcd60e51b815260206004820152601d60248201527f4552433230566f7465733a207369676e617475726520657870697265640000006044820152606401610805565b604080517fe48329057bfd03d55e49b547132e39cffd9c1820ad7b9d4c5307691425d15adf60208201526001600160a01b0388169181019190915260608101869052608081018590526000906119559061194d9060a001604051602081830303815290604052805190602001206123f4565b858585612442565b90506119608161246a565b86146119ae5760405162461bcd60e51b815260206004820152601960248201527f4552433230566f7465733a20696e76616c6964206e6f6e6365000000000000006044820152606401610805565b6119b8818861211d565b50505050505050565b83421115611a115760405162461bcd60e51b815260206004820152601d60248201527f45524332305065726d69743a206578706972656420646561646c696e650000006044820152606401610805565b60007f6e71edae12b1b97f4d1f60370fef10105fa2faae0126114a169c64845d6126c9888888611a408c61246a565b6040805160208101969096526001600160a01b0394851690860152929091166060840152608083015260a082015260c0810186905260e0016040516020818303038152906040528051906020012090506000611a9b826123f4565b90506000611aab82878787612442565b9050896001600160a01b0316816001600160a01b031614611b0e5760405162461bcd60e51b815260206004820152601e60248201527f45524332305065726d69743a20696e76616c6964207369676e617475726500006044820152606401610805565b611b198a8a8a611c4b565b50505050505050505050565b6001600160a01b03918216600090815260346020908152604080832093909416825291909152205490565b60408051808201909152600080825260208201526001600160a01b038316600090815261019560205260409020805463ffffffff8416908110611b9557611b95613b51565b60009182526020918290206040805180820190915291015463ffffffff8116825264010000000090046001600160e01b0316918101919091529392505050565b611bdd612201565b6001600160a01b038116611c425760405162461bcd60e51b815260206004820152602660248201527f4f776e61626c653a206e6577206f776e657220697320746865207a65726f206160448201526564647265737360d01b6064820152608401610805565b6108428161225b565b6001600160a01b038316611cad5760405162461bcd60e51b8152602060048201526024808201527f45524332303a20617070726f76652066726f6d20746865207a65726f206164646044820152637265737360e01b6064820152608401610805565b6001600160a01b038216611d0e5760405162461bcd60e51b815260206004820152602260248201527f45524332303a20617070726f766520746f20746865207a65726f206164647265604482015261737360f01b6064820152608401610805565b6001600160a01b0383811660008181526034602090815260408083209487168084529482529182902085905590518481527f8c5be1e5ebec7d5bd14f71427d1e84f3dd0314c0f7b2291e5b200ac8c7c3b925910160405180910390a3505050565b6000611d7b8484611b25565b90506000198114610cd95781811015611dd65760405162461bcd60e51b815260206004820152601d60248201527f45524332303a20696e73756666696369656e7420616c6c6f77616e63650000006044820152606401610805565b610cd98484848403611c4b565b6001600160a01b038316611e475760405162461bcd60e51b815260206004820152602560248201527f45524332303a207472616e736665722066726f6d20746865207a65726f206164604482015264647265737360d81b6064820152608401610805565b6001600160a01b038216611ea95760405162461bcd60e51b815260206004820152602360248201527f45524332303a207472616e7366657220746f20746865207a65726f206164647260448201526265737360e81b6064820152608401610805565b611eb4838383612493565b6001600160a01b03831660009081526033602052604090205481811015611f2c5760405162461bcd60e51b815260206004820152602660248201527f45524332303a207472616e7366657220616d6f756e7420657863656564732062604482015265616c616e636560d01b6064820152608401610805565b6001600160a01b0380851660008181526033602052604080822086860390559286168082529083902080548601905591517fddf252ad1be2c89b69c2b068fc378daa952ba7f163c4a11628f55a4df523b3ef90611f8c9086815260200190565b60405180910390a3610cd98484846124a3565b60006108507f8b73c3c69bb8fe3d512ecc4cf759cc79239f7b179b0ffacaa9a75d522b39400f611fcf61012d5490565b61012e546040805160208101859052908101839052606081018290524660808201523060a082015260009060c0016040516020818303038152906040528051906020012090509392505050565b815460009081816005811115612076576000612037846124ae565b612041908561360d565b600088815260209020909150869082015463ffffffff16111561206657809150612074565b6120718160016134e3565b92505b505b808210156120c357600061208a8383612593565b600088815260209020909150869082015463ffffffff1611156120af578091506120bd565b6120ba8160016134e3565b92505b50612076565b80156120fd576120e6866120d860018461360d565b600091825260209091200190565b5464010000000090046001600160e01b0316612100565b60005b6001600160e01b03169695505050505050565b610d3f82826125ae565b6001600160a01b0382811660008181526101946020818152604080842080546033845282862054949093528787166001600160a01b03198416811790915590519190951694919391928592917f3134e8a2e6d97e929a7e54011ea5485d7d196dd5f0ba4d4ef95803e8e3fc257f9190a4610cd98284836125c7565b600063ffffffff8211156121fd5760405162461bcd60e51b815260206004820152602660248201527f53616665436173743a2076616c756520646f65736e27742066697420696e203360448201526532206269747360d01b6064820152608401610805565b5090565b60fb546001600160a01b03163314610d145760405162461bcd60e51b815260206004820181905260248201527f4f776e61626c653a2063616c6c6572206973206e6f7420746865206f776e65726044820152606401610805565b60fb80546001600160a01b038381166001600160a01b0319831681179093556040519116919082907f8be0079c531659141344cd1fd0a4f28419497f9722a3daafe3b4186f6b6457e090600090a35050565b60006001600160601b038211156121fd5760405162461bcd60e51b815260206004820152602660248201527f53616665436173743a2076616c756520646f65736e27742066697420696e203960448201526536206269747360d01b6064820152608401610805565b610d3f8282612706565b600054610100900460ff166123465760405162461bcd60e51b815260040161080590613b67565b610d14612796565b600054610100900460ff166123755760405162461bcd60e51b815260040161080590613b67565b610d3f82826127c9565b600054610100900460ff166123a65760405162461bcd60e51b815260040161080590613b67565b610d14612817565b60655460ff1615610d145760405162461bcd60e51b815260206004820152601060248201526f14185d5cd8589b194e881c185d5cd95960821b6044820152606401610805565b60006107a2612401611f9f565b8360405161190160f01b6020820152602281018390526042810182905260009060620160405160208183030381529060405280519060200120905092915050565b600080600061245387878787612847565b915091506124608161290b565b5095945050505050565b6001600160a01b0381166000908152610161602052604090208054600181018255905b50919050565b61249e838383612a59565b505050565b61249e838383612abf565b6000816124bd57506000919050565b600060016124ca84612af2565b901c6001901b905060018184816124e3576124e361364c565b048201901c905060018184816124fb576124fb61364c565b048201901c905060018184816125135761251361364c565b048201901c9050600181848161252b5761252b61364c565b048201901c905060018184816125435761254361364c565b048201901c9050600181848161255b5761255b61364c565b048201901c905060018184816125735761257361364c565b048201901c90506109a38182858161258d5761258d61364c565b04612b86565b60006125a26002848418613662565b6109a3908484166134e3565b6125b88282612b9c565b610cd9610196612ce383612cef565b816001600160a01b0316836001600160a01b0316141580156125e95750600081115b1561249e576001600160a01b03831615612678576001600160a01b038316600090815261019560205260408120819061262590612ce385612cef565b91509150846001600160a01b03167fdec2bacdd2f05b59de34da9b523dff8be42e5e38e818c82fdb0bae774387a724838360405161266d929190918252602082015260400190565b60405180910390a250505b6001600160a01b0382161561249e576001600160a01b03821660009081526101956020526040812081906126af90612e4385612cef565b91509150836001600160a01b03167fdec2bacdd2f05b59de34da9b523dff8be42e5e38e818c82fdb0bae774387a72483836040516126f7929190918252602082015260400190565b60405180910390a25050505050565b6127108282612e4f565b6001600160601b03612720610845565b11156127875760405162461bcd60e51b815260206004820152603060248201527f4552433230566f7465733a20746f74616c20737570706c79207269736b73206f60448201526f766572666c6f77696e6720766f74657360801b6064820152608401610805565b610cd9610196612e4383612cef565b600054610100900460ff166127bd5760405162461bcd60e51b815260040161080590613b67565b6065805460ff19169055565b600054610100900460ff166127f05760405162461bcd60e51b815260040161080590613b67565b8151612803906036906020850190612f8d565b50805161249e906037906020840190612f8d565b600054610100900460ff1661283e5760405162461bcd60e51b815260040161080590613b67565b610d143361225b565b6000807f7fffffffffffffffffffffffffffffff5d576e7357a4501ddfe92f46681b20a083111561287e5750600090506003612902565b6040805160008082526020820180845289905260ff881692820192909252606081018690526080810185905260019060a0016020604051602081039080840390855afa1580156128d2573d6000803e3d6000fd5b5050604051601f1901519150506001600160a01b0381166128fb57600060019250925050612902565b9150600090505b94509492505050565b600081600481111561291f5761291f613bb2565b14156129285750565b600181600481111561293c5761293c613bb2565b141561298a5760405162461bcd60e51b815260206004820152601860248201527f45434453413a20696e76616c6964207369676e617475726500000000000000006044820152606401610805565b600281600481111561299e5761299e613bb2565b14156129ec5760405162461bcd60e51b815260206004820152601f60248201527f45434453413a20696e76616c6964207369676e6174757265206c656e677468006044820152606401610805565b6003816004811115612a0057612a00613bb2565b14156108425760405162461bcd60e51b815260206004820152602260248201527f45434453413a20696e76616c6964207369676e6174757265202773272076616c604482015261756560f01b6064820152608401610805565b60655460ff161561249e5760405162461bcd60e51b815260206004820152602a60248201527f45524332305061757361626c653a20746f6b656e207472616e736665722077686044820152691a5b19481c185d5cd95960b21b6064820152608401610805565b6001600160a01b038381166000908152610194602052604080822054858416835291205461249e929182169116836125c7565b600080608083901c15612b0757608092831c92015b604083901c15612b1957604092831c92015b602083901c15612b2b57602092831c92015b601083901c15612b3d57601092831c92015b600883901c15612b4f57600892831c92015b600483901c15612b6157600492831c92015b600283901c15612b7357600292831c92015b600183901c156107a25760010192915050565b6000818310612b9557816109a3565b5090919050565b6001600160a01b038216612bfc5760405162461bcd60e51b815260206004820152602160248201527f45524332303a206275726e2066726f6d20746865207a65726f206164647265736044820152607360f81b6064820152608401610805565b612c0882600083612493565b6001600160a01b03821660009081526033602052604090205481811015612c7c5760405162461bcd60e51b815260206004820152602260248201527f45524332303a206275726e20616d6f756e7420657863656564732062616c616e604482015261636560f01b6064820152608401610805565b6001600160a01b03831660008181526033602090815260408083208686039055603580548790039055518581529192917fddf252ad1be2c89b69c2b068fc378daa952ba7f163c4a11628f55a4df523b3ef910160405180910390a361249e836000846124a3565b60006109a3828461360d565b82546000908190818115612d3c57612d0c876120d860018561360d565b60408051808201909152905463ffffffff8116825264010000000090046001600160e01b03166020820152612d51565b60408051808201909152600080825260208201525b905080602001516001600160e01b03169350612d7184868863ffffffff16565b9250600082118015612d895750805163ffffffff1643145b15612dce57612d9783612f24565b612da6886120d860018661360d565b80546001600160e01b03929092166401000000000263ffffffff909216919091179055612e39565b866040518060400160405280612de343612198565b63ffffffff168152602001612df786612f24565b6001600160e01b0390811690915282546001810184556000938452602093849020835194909301519091166401000000000263ffffffff909316929092179101555b5050935093915050565b60006109a382846134e3565b6001600160a01b038216612ea55760405162461bcd60e51b815260206004820152601f60248201527f45524332303a206d696e7420746f20746865207a65726f2061646472657373006044820152606401610805565b612eb160008383612493565b8060356000828254612ec391906134e3565b90915550506001600160a01b0382166000818152603360209081526040808320805486019055518481527fddf252ad1be2c89b69c2b068fc378daa952ba7f163c4a11628f55a4df523b3ef910160405180910390a3610d3f600083836124a3565b60006001600160e01b038211156121fd5760405162461bcd60e51b815260206004820152602760248201527f53616665436173743a2076616c756520646f65736e27742066697420696e20326044820152663234206269747360c81b6064820152608401610805565b828054612f9990613498565b90600052602060002090601f016020900481019282612fbb5760008555613001565b82601f10612fd457805160ff1916838001178555613001565b82800160010185558215613001579182015b82811115613001578251825591602001919060010190612fe6565b506121fd9291505b808211156121fd5760008155600101613009565b60005b83811015613038578181015183820152602001613020565b83811115610cd95750506000910152565b602081526000825180602084015261306881604085016020870161301d565b601f01601f19169190910160400192915050565b6001600160a01b038116811461084257600080fd5b600080604083850312156130a457600080fd5b82356130af8161307c565b946020939093013593505050565b6000602082840312156130cf57600080fd5b81356109a38161307c565b6000806000606084860312156130ef57600080fd5b83356130fa8161307c565b9250602084013561310a8161307c565b929592945050506040919091013590565b6000806040838503121561312e57600080fd5b82356131398161307c565b91506020830135801515811461314e57600080fd5b809150509250929050565b60006020828403121561316b57600080fd5b5035919050565b6000806000806080858703121561318857600080fd5b84356131938161307c565b93506020850135925060408501356131aa8161307c565b9396929550929360600135925050565b600080604083850312156131cd57600080fd5b82356131d88161307c565b9150602083013561314e8161307c565b634e487b7160e01b600052604160045260246000fd5b60405160a0810167ffffffffffffffff81118282101715613221576132216131e8565b60405290565b604051610260810167ffffffffffffffff81118282101715613221576132216131e8565b604051601f8201601f1916810167ffffffffffffffff81118282101715613274576132746131e8565b604052919050565b600067ffffffffffffffff821115613296576132966131e8565b50601f01601f191660200190565b600082601f8301126132b557600080fd5b81356132c86132c38261327c565b61324b565b8181528460208386010111156132dd57600080fd5b816020850160208301376000918101602001919091529392505050565b6000806000806080858703121561331057600080fd5b843567ffffffffffffffff8082111561332857600080fd5b613334888389016132a4565b9550602087013591508082111561334a57600080fd5b50613357878288016132a4565b93505060408501356133688161307c565b915060608501356133788161307c565b939692955090935050565b803560ff8116811461339457600080fd5b919050565b60008060008060008060c087890312156133b257600080fd5b86356133bd8161307c565b955060208701359450604087013593506133d960608801613383565b92506080870135915060a087013590509295509295509295565b600080600080600080600060e0888a03121561340e57600080fd5b87356134198161307c565b965060208801356134298161307c565b9550604088013594506060880135935061344560808901613383565b925060a0880135915060c0880135905092959891949750929550565b6000806040838503121561347457600080fd5b823561347f8161307c565b9150602083013563ffffffff8116811461314e57600080fd5b600181811c908216806134ac57607f821691505b6020821081141561248d57634e487b7160e01b600052602260045260246000fd5b634e487b7160e01b600052601160045260246000fd5b600082198211156134f6576134f66134cd565b500190565b600181815b8085111561353657816000190482111561351c5761351c6134cd565b8085161561352957918102915b93841c9390800290613500565b509250929050565b60008261354d575060016107a2565b8161355a575060006107a2565b8160018114613570576002811461357a57613596565b60019150506107a2565b60ff84111561358b5761358b6134cd565b50506001821b6107a2565b5060208310610133831016604e8410600b84101617156135b9575081810a6107a2565b6135c383836134fb565b80600019048211156135d7576135d76134cd565b029392505050565b60006109a360ff84168361353e565b6000816000190483118215151615613608576136086134cd565b500290565b60008282101561361f5761361f6134cd565b500390565b80516133948161307c565b60006020828403121561364157600080fd5b81516109a38161307c565b634e487b7160e01b600052601260045260246000fd5b60008261367f57634e487b7160e01b600052601260045260246000fd5b500490565b805162ffffff8116811461339457600080fd5b600082601f8301126136a857600080fd5b81516136b66132c38261327c565b8181528460208386010111156136cb57600080fd5b6136dc82602083016020870161301d565b949350505050565b600060a082840312156136f657600080fd5b6136fe6131fe565b9050815167ffffffffffffffff8082111561371857600080fd5b61372485838601613697565b8352602084015191508082111561373a57600080fd5b61374685838601613697565b6020840152604084015191508082111561375f57600080fd5b61376b85838601613697565b6040840152606084015191508082111561378457600080fd5b61379085838601613697565b606084015260808401519150808211156137a957600080fd5b506137b684828501613697565b60808301525092915050565b600067ffffffffffffffff8211156137dc576137dc6131e8565b5060051b60200190565b600082601f8301126137f757600080fd5b815160206138076132c3836137c2565b82815260059290921b8401810191818101908684111561382657600080fd5b8286015b8481101561386657805167ffffffffffffffff81111561384a5760008081fd5b6138588986838b0101613697565b84525091830191830161382a565b509695505050505050565b600082601f83011261388257600080fd5b815160206138926132c3836137c2565b82815260059290921b840181019181810190868411156138b157600080fd5b8286015b848110156138665780516138c88161307c565b83529183019183016138b5565b6000602082840312156138e757600080fd5b815167ffffffffffffffff808211156138ff57600080fd5b90830190610260828603121561391457600080fd5b61391c613227565b61392583613684565b815261393360208401613684565b60208201526040830151604082015261394e60608401613624565b606082015260808301518281111561396557600080fd5b61397187828601613697565b60808301525060a08301518281111561398957600080fd5b61399587828601613697565b60a0830152506139a760c08401613624565b60c082015260e0830151828111156139be57600080fd5b6139ca87828601613697565b60e08301525061010080840151838111156139e457600080fd5b6139f088828701613697565b8284015250506101208084015183811115613a0a57600080fd5b613a1688828701613697565b8284015250506101408084015183811115613a3057600080fd5b613a3c888287016136e4565b8284015250506101608084015183811115613a5657600080fd5b613a62888287016137e6565b8284015250506101808084015183811115613a7c57600080fd5b613a88888287016137e6565b8284015250506101a08084015183811115613aa257600080fd5b613aae88828701613697565b8284015250506101c08084015181830152506101e0613ace818501613624565b908201526102008381015183811115613ae657600080fd5b613af288828701613697565b8284015250506102208084015183811115613b0c57600080fd5b613b1888828701613871565b91830191909152506102409283015192810192909252509392505050565b600060208284031215613b4857600080fd5b6109a382613684565b634e487b7160e01b600052603260045260246000fd5b6020808252602b908201527f496e697469616c697a61626c653a20636f6e7472616374206973206e6f74206960408201526a6e697469616c697a696e6760a81b606082015260800190565b634e487b7160e01b600052602160045260246000fdfea2646970667358221220ff7cc2ce532a4c75090565b703bc08946abbfddfcf3d3e42bd0fc4d83a2c6fe164736f6c634300080c0033",
  "linkReferences": {},
  "deployedLinkReferences": {}
}