{
  "_format": "hh-sol-artifact-1",
  "contractName": "GENTokenTestnet",
  "sourceName": "contracts/erc20/GENTokenTestnet.sol",
  "abi": [
    {
      "anonymous": false,
      "inputs": [
        {
          "indexed": true,
          "internalType": "address",
          "name": "owner",
          "type": "address"
        },
        {
          "indexed": true,
          "internalType": "address",
          "name": "spender",
          "type": "address"
        },
        {
          "indexed": false,
          "internalType": "uint256",
          "name": "value",
          "type": "uint256"
        }
      ],
      "name": "Approval",
      "type": "event"
    },
    {
      "anonymous": false,
      "inputs": [
        {
          "indexed": false,
          "internalType": "address",
          "name": "to",
          "type": "address"
        },
        {
          "indexed": false,
          "internalType": "uint256",
          "name": "amount",
          "type": "uint256"
        },
        {
          "indexed": false,
          "internalType": "uint256",
          "name": "primary",
          "type": "uint256"
        },
        {
          "indexed": false,
          "internalType": "uint256",
          "name": "",
          "type": "uint256"
        },
        {
          "indexed": false,
          "internalType": "uint256",
          "name": "second",
          "type": "uint256"
        }
      ],
      "name": "ClaimToken",
      "type": "event"
    },
    {
      "anonymous": false,
      "inputs": [
        {
          "indexed": true,
          "internalType": "address",
          "name": "delegator",
          "type": "address"
        },
        {
          "indexed": true,
          "internalType": "address",
          "name": "fromDelegate",
          "type": "address"
        },
        {
          "indexed": true,
          "internalType": "address",
          "name": "toDelegate",
          "type": "address"
        }
      ],
      "name": "DelegateChanged",
      "type": "event"
    },
    {
      "anonymous": false,
      "inputs": [
        {
          "indexed": true,
          "internalType": "address",
          "name": "delegate",
          "type": "address"
        },
        {
          "indexed": false,
          "internalType": "uint256",
          "name": "previousBalance",
          "type": "uint256"
        },
        {
          "indexed": false,
          "internalType": "uint256",
          "name": "newBalance",
          "type": "uint256"
        }
      ],
      "name": "DelegateVotesChanged",
      "type": "event"
    },
    {
      "anonymous": false,
      "inputs": [
        {
          "indexed": false,
          "internalType": "uint8",
          "name": "version",
          "type": "uint8"
        }
      ],
      "name": "Initialized",
      "type": "event"
    },
    {
      "anonymous": false,
      "inputs": [
        {
          "indexed": false,
          "internalType": "address",
          "name": "genNFT",
          "type": "address"
        }
      ],
      "name": "NotSupportProjectAddress",
      "type": "event"
    },
    {
      "anonymous": false,
      "inputs": [
        {
          "indexed": false,
          "internalType": "address",
          "name": "genNFT",
          "type": "address"
        }
      ],
      "name": "NotSupportProjectIndex",
      "type": "event"
    },
    {
      "anonymous": false,
      "inputs": [
        {
          "indexed": true,
          "internalType": "address",
          "name": "previousOwner",
          "type": "address"
        },
        {
          "indexed": true,
          "internalType": "address",
          "name": "newOwner",
          "type": "address"
        }
      ],
      "name": "OwnershipTransferred",
      "type": "event"
    },
    {
      "anonymous": false,
      "inputs": [
        {
          "indexed": false,
          "internalType": "address",
          "name": "account",
          "type": "address"
        }
      ],
      "name": "Paused",
      "type": "event"
    },
    {
      "anonymous": false,
      "inputs": [
        {
          "indexed": true,
          "internalType": "address",
          "name": "from",
          "type": "address"
        },
        {
          "indexed": true,
          "internalType": "address",
          "name": "to",
          "type": "address"
        },
        {
          "indexed": false,
          "internalType": "uint256",
          "name": "value",
          "type": "uint256"
        }
      ],
      "name": "Transfer",
      "type": "event"
    },
    {
      "anonymous": false,
      "inputs": [
        {
          "indexed": false,
          "internalType": "address",
          "name": "account",
          "type": "address"
        }
      ],
      "name": "Unpaused",
      "type": "event"
    },
    {
      "inputs": [],
      "name": "DOMAIN_SEPARATOR",
      "outputs": [
        {
          "internalType": "bytes32",
          "name": "",
          "type": "bytes32"
        }
      ],
      "stateMutability": "view",
      "type": "function"
    },
    {
      "inputs": [
        {
          "internalType": "address",
          "name": "",
          "type": "address"
        },
        {
          "internalType": "address",
          "name": "",
          "type": "address"
        }
      ],
      "name": "_PoASecondSale",
      "outputs": [
        {
          "internalType": "uint256",
          "name": "",
          "type": "uint256"
        }
      ],
      "stateMutability": "view",
      "type": "function"
    },
    {
      "inputs": [],
      "name": "_admin",
      "outputs": [
        {
          "internalType": "address",
          "name": "",
          "type": "address"
        }
      ],
      "stateMutability": "view",
      "type": "function"
    },
    {
      "inputs": [
        {
          "internalType": "address",
          "name": "",
          "type": "address"
        },
        {
          "internalType": "address",
          "name": "",
          "type": "address"
        }
      ],
      "name": "_claimed",
      "outputs": [
        {
          "internalType": "uint256",
          "name": "",
          "type": "uint256"
        }
      ],
      "stateMutability": "view",
      "type": "function"
    },
    {
      "inputs": [
        {
          "internalType": "address",
          "name": "",
          "type": "address"
        },
        {
          "internalType": "address",
          "name": "",
          "type": "address"
        }
      ],
      "name": "_claimedIndex",
      "outputs": [
        {
          "internalType": "uint256",
          "name": "",
          "type": "uint256"
        }
      ],
      "stateMutability": "view",
      "type": "function"
    },
    {
      "inputs": [],
      "name": "_daoVesting",
      "outputs": [
        {
          "internalType": "uint256",
          "name": "",
          "type": "uint256"
        }
      ],
      "stateMutability": "view",
      "type": "function"
    },
    {
      "inputs": [],
      "name": "_paramAddr",
      "outputs": [
        {
          "internalType": "address",
          "name": "",
          "type": "address"
        }
      ],
      "stateMutability": "view",
      "type": "function"
    },
    {
      "inputs": [
        {
          "internalType": "address",
          "name": "",
          "type": "address"
        }
      ],
      "name": "_proxyPoASecondSales",
      "outputs": [
        {
          "internalType": "bool",
          "name": "",
          "type": "bool"
        }
      ],
      "stateMutability": "view",
      "type": "function"
    },
    {
      "inputs": [],
      "name": "_remainClaimSupply",
      "outputs": [
        {
          "internalType": "uint256",
          "name": "",
          "type": "uint256"
        }
      ],
      "stateMutability": "view",
      "type": "function"
    },
    {
      "inputs": [],
      "name": "_remainCoreTeam",
      "outputs": [
        {
          "internalType": "uint256",
          "name": "",
          "type": "uint256"
        }
      ],
      "stateMutability": "view",
      "type": "function"
    },
    {
      "inputs": [],
      "name": "_remainDAO",
      "outputs": [
        {
          "internalType": "uint256",
          "name": "",
          "type": "uint256"
        }
      ],
      "stateMutability": "view",
      "type": "function"
    },
    {
      "inputs": [],
      "name": "_teamVesting",
      "outputs": [
        {
          "internalType": "uint256",
          "name": "",
          "type": "uint256"
        }
      ],
      "stateMutability": "view",
      "type": "function"
    },
    {
      "inputs": [
        {
          "internalType": "address",
          "name": "owner",
          "type": "address"
        },
        {
          "internalType": "address",
          "name": "spender",
          "type": "address"
        }
      ],
      "name": "allowance",
      "outputs": [
        {
          "internalType": "uint256",
          "name": "",
          "type": "uint256"
        }
      ],
      "stateMutability": "view",
      "type": "function"
    },
    {
      "inputs": [
        {
          "internalType": "address",
          "name": "spender",
          "type": "address"
        },
        {
          "internalType": "uint256",
          "name": "amount",
          "type": "uint256"
        }
      ],
      "name": "approve",
      "outputs": [
        {
          "internalType": "bool",
          "name": "",
          "type": "bool"
        }
      ],
      "stateMutability": "nonpayable",
      "type": "function"
    },
    {
      "inputs": [
        {
          "internalType": "address",
          "name": "account",
          "type": "address"
        }
      ],
      "name": "balanceOf",
      "outputs": [
        {
          "internalType": "uint256",
          "name": "",
          "type": "uint256"
        }
      ],
      "stateMutability": "view",
      "type": "function"
    },
    {
      "inputs": [
        {
          "internalType": "uint256",
          "name": "amount",
          "type": "uint256"
        }
      ],
      "name": "burn",
      "outputs": [],
      "stateMutability": "nonpayable",
      "type": "function"
    },
    {
      "inputs": [
        {
          "internalType": "address",
          "name": "account",
          "type": "address"
        },
        {
          "internalType": "uint256",
          "name": "amount",
          "type": "uint256"
        }
      ],
      "name": "burnFrom",
      "outputs": [],
      "stateMutability": "nonpayable",
      "type": "function"
    },
    {
      "inputs": [
        {
          "internalType": "address",
          "name": "newAdm",
          "type": "address"
        }
      ],
      "name": "changeAdmin",
      "outputs": [],
      "stateMutability": "nonpayable",
      "type": "function"
    },
    {
      "inputs": [
        {
          "internalType": "address",
          "name": "newAddr",
          "type": "address"
        }
      ],
      "name": "changeParamAddress",
      "outputs": [],
      "stateMutability": "nonpayable",
      "type": "function"
    },
    {
      "inputs": [
        {
          "internalType": "address",
          "name": "account",
          "type": "address"
        },
        {
          "internalType": "uint32",
          "name": "pos",
          "type": "uint32"
        }
      ],
      "name": "checkpoints",
      "outputs": [
        {
          "components": [
            {
              "internalType": "uint32",
              "name": "fromBlock",
              "type": "uint32"
            },
            {
              "internalType": "uint224",
              "name": "votes",
              "type": "uint224"
            }
          ],
          "internalType": "struct ERC20VotesUpgradeable.Checkpoint",
          "name": "",
          "type": "tuple"
        }
      ],
      "stateMutability": "view",
      "type": "function"
    },
    {
      "inputs": [],
      "name": "decay",
      "outputs": [
        {
          "internalType": "uint8",
          "name": "",
          "type": "uint8"
        }
      ],
      "stateMutability": "view",
      "type": "function"
    },
    {
      "inputs": [],
      "name": "decimals",
      "outputs": [
        {
          "internalType": "uint8",
          "name": "",
          "type": "uint8"
        }
      ],
      "stateMutability": "pure",
      "type": "function"
    },
    {
      "inputs": [
        {
          "internalType": "address",
          "name": "spender",
          "type": "address"
        },
        {
          "internalType": "uint256",
          "name": "subtractedValue",
          "type": "uint256"
        }
      ],
      "name": "decreaseAllowance",
      "outputs": [
        {
          "internalType": "bool",
          "name": "",
          "type": "bool"
        }
      ],
      "stateMutability": "nonpayable",
      "type": "function"
    },
    {
      "inputs": [
        {
          "internalType": "address",
          "name": "delegatee",
          "type": "address"
        }
      ],
      "name": "delegate",
      "outputs": [],
      "stateMutability": "nonpayable",
      "type": "function"
    },
    {
      "inputs": [
        {
          "internalType": "address",
          "name": "delegatee",
          "type": "address"
        },
        {
          "internalType": "uint256",
          "name": "nonce",
          "type": "uint256"
        },
        {
          "internalType": "uint256",
          "name": "expiry",
          "type": "uint256"
        },
        {
          "internalType": "uint8",
          "name": "v",
          "type": "uint8"
        },
        {
          "internalType": "bytes32",
          "name": "r",
          "type": "bytes32"
        },
        {
          "internalType": "bytes32",
          "name": "s",
          "type": "bytes32"
        }
      ],
      "name": "delegateBySig",
      "outputs": [],
      "stateMutability": "nonpayable",
      "type": "function"
    },
    {
      "inputs": [
        {
          "internalType": "address",
          "name": "account",
          "type": "address"
        }
      ],
      "name": "delegates",
      "outputs": [
        {
          "internalType": "address",
          "name": "",
          "type": "address"
        }
      ],
      "stateMutability": "view",
      "type": "function"
    },
    {
      "inputs": [
        {
          "internalType": "address",
          "name": "account",
          "type": "address"
        }
      ],
      "name": "getCurrentVotes",
      "outputs": [
        {
          "internalType": "uint96",
          "name": "",
          "type": "uint96"
        }
      ],
      "stateMutability": "view",
      "type": "function"
    },
    {
      "inputs": [
        {
          "internalType": "uint256",
          "name": "blockNumber",
          "type": "uint256"
        }
      ],
      "name": "getPastTotalSupply",
      "outputs": [
        {
          "internalType": "uint256",
          "name": "",
          "type": "uint256"
        }
      ],
      "stateMutability": "view",
      "type": "function"
    },
    {
      "inputs": [
        {
          "internalType": "address",
          "name": "account",
          "type": "address"
        },
        {
          "internalType": "uint256",
          "name": "blockNumber",
          "type": "uint256"
        }
      ],
      "name": "getPastVotes",
      "outputs": [
        {
          "internalType": "uint256",
          "name": "",
          "type": "uint256"
        }
      ],
      "stateMutability": "view",
      "type": "function"
    },
    {
      "inputs": [
        {
          "internalType": "address",
          "name": "account",
          "type": "address"
        },
        {
          "internalType": "uint256",
          "name": "blockNumber",
          "type": "uint256"
        }
      ],
      "name": "getPriorVotes",
      "outputs": [
        {
          "internalType": "uint96",
          "name": "",
          "type": "uint96"
        }
      ],
      "stateMutability": "view",
      "type": "function"
    },
    {
      "inputs": [
        {
          "internalType": "address",
          "name": "account",
          "type": "address"
        }
      ],
      "name": "getVotes",
      "outputs": [
        {
          "internalType": "uint256",
          "name": "",
          "type": "uint256"
        }
      ],
      "stateMutability": "view",
      "type": "function"
    },
    {
      "inputs": [
        {
          "internalType": "address",
          "name": "spender",
          "type": "address"
        },
        {
          "internalType": "uint256",
          "name": "addedValue",
          "type": "uint256"
        }
      ],
      "name": "increaseAllowance",
      "outputs": [
        {
          "internalType": "bool",
          "name": "",
          "type": "bool"
        }
      ],
      "stateMutability": "nonpayable",
      "type": "function"
    },
    {
      "inputs": [
        {
          "internalType": "string",
          "name": "name",
          "type": "string"
        },
        {
          "internalType": "string",
          "name": "symbol",
          "type": "string"
        },
        {
          "internalType": "address",
          "name": "admin",
          "type": "address"
        },
        {
          "internalType": "address",
          "name": "paramAddr",
          "type": "address"
        }
      ],
      "name": "initialize",
      "outputs": [],
      "stateMutability": "nonpayable",
      "type": "function"
    },
    {
      "inputs": [],
      "name": "miningDAOTreasury",
      "outputs": [],
      "stateMutability": "nonpayable",
      "type": "function"
    },
    {
      "inputs": [
        {
          "internalType": "address",
          "name": "generativeProjectAddr",
          "type": "address"
        },
        {
          "internalType": "uint256",
          "name": "projectId",
          "type": "uint256"
        }
      ],
      "name": "miningPoA",
      "outputs": [],
      "stateMutability": "nonpayable",
      "type": "function"
    },
    {
      "inputs": [],
      "name": "miningTeam",
      "outputs": [],
      "stateMutability": "nonpayable",
      "type": "function"
    },
    {
      "inputs": [],
      "name": "name",
      "outputs": [
        {
          "internalType": "string",
          "name": "",
          "type": "string"
        }
      ],
      "stateMutability": "view",
      "type": "function"
    },
    {
      "inputs": [
        {
          "internalType": "address",
          "name": "owner",
          "type": "address"
        }
      ],
      "name": "nonces",
      "outputs": [
        {
          "internalType": "uint256",
          "name": "",
          "type": "uint256"
        }
      ],
      "stateMutability": "view",
      "type": "function"
    },
    {
      "inputs": [
        {
          "internalType": "address",
          "name": "account",
          "type": "address"
        }
      ],
      "name": "numCheckpoints",
      "outputs": [
        {
          "internalType": "uint32",
          "name": "",
          "type": "uint32"
        }
      ],
      "stateMutability": "view",
      "type": "function"
    },
    {
      "inputs": [],
      "name": "owner",
      "outputs": [
        {
          "internalType": "address",
          "name": "",
          "type": "address"
        }
      ],
      "stateMutability": "view",
      "type": "function"
    },
    {
      "inputs": [],
      "name": "paused",
      "outputs": [
        {
          "internalType": "bool",
          "name": "",
          "type": "bool"
        }
      ],
      "stateMutability": "view",
      "type": "function"
    },
    {
      "inputs": [
        {
          "internalType": "address",
          "name": "owner",
          "type": "address"
        },
        {
          "internalType": "address",
          "name": "spender",
          "type": "address"
        },
        {
          "internalType": "uint256",
          "name": "value",
          "type": "uint256"
        },
        {
          "internalType": "uint256",
          "name": "deadline",
          "type": "uint256"
        },
        {
          "internalType": "uint8",
          "name": "v",
          "type": "uint8"
        },
        {
          "internalType": "bytes32",
          "name": "r",
          "type": "bytes32"
        },
        {
          "internalType": "bytes32",
          "name": "s",
          "type": "bytes32"
        }
      ],
      "name": "permit",
      "outputs": [],
      "stateMutability": "nonpayable",
      "type": "function"
    },
    {
      "inputs": [
        {
          "internalType": "address",
          "name": "generativeProjectAddr",
          "type": "address"
        },
        {
          "internalType": "uint256",
          "name": "projectId",
          "type": "uint256"
        }
      ],
      "name": "proofOfArtAvailable",
      "outputs": [
        {
          "internalType": "uint256",
          "name": "",
          "type": "uint256"
        },
        {
          "internalType": "uint256",
          "name": "",
          "type": "uint256"
        },
        {
          "internalType": "uint256",
          "name": "",
          "type": "uint256"
        }
      ],
      "stateMutability": "nonpayable",
      "type": "function"
    },
    {
      "inputs": [],
      "name": "renounceOwnership",
      "outputs": [],
      "stateMutability": "nonpayable",
      "type": "function"
    },
    {
      "inputs": [
        {
          "internalType": "address",
          "name": "genNFTAddr",
          "type": "address"
        },
        {
          "internalType": "uint256",
          "name": "tokenId",
          "type": "uint256"
        },
        {
          "internalType": "address",
          "name": "erc20Addr",
          "type": "address"
        },
        {
          "internalType": "uint256",
          "name": "amount",
          "type": "uint256"
        }
      ],
      "name": "setPoASecondSale",
      "outputs": [],
      "stateMutability": "nonpayable",
      "type": "function"
    },
    {
      "inputs": [
        {
          "internalType": "address",
          "name": "addr",
          "type": "address"
        },
        {
          "internalType": "bool",
          "name": "approve",
          "type": "bool"
        }
      ],
      "name": "setProxyPoASecondSale",
      "outputs": [],
      "stateMutability": "nonpayable",
      "type": "function"
    },
    {
      "inputs": [],
      "name": "symbol",
      "outputs": [
        {
          "internalType": "string",
          "name": "",
          "type": "string"
        }
      ],
      "stateMutability": "view",
      "type": "function"
    },
    {
      "inputs": [],
      "name": "totalSupply",
      "outputs": [
        {
          "internalType": "uint256",
          "name": "",
          "type": "uint256"
        }
      ],
      "stateMutability": "view",
      "type": "function"
    },
    {
      "inputs": [
        {
          "internalType": "address",
          "name": "to",
          "type": "address"
        },
        {
          "internalType": "uint256",
          "name": "amount",
          "type": "uint256"
        }
      ],
      "name": "transfer",
      "outputs": [
        {
          "internalType": "bool",
          "name": "",
          "type": "bool"
        }
      ],
      "stateMutability": "nonpayable",
      "type": "function"
    },
    {
      "inputs": [
        {
          "internalType": "address",
          "name": "from",
          "type": "address"
        },
        {
          "internalType": "address",
          "name": "to",
          "type": "address"
        },
        {
          "internalType": "uint256",
          "name": "amount",
          "type": "uint256"
        }
      ],
      "name": "transferFrom",
      "outputs": [
        {
          "internalType": "bool",
          "name": "",
          "type": "bool"
        }
      ],
      "stateMutability": "nonpayable",
      "type": "function"
    },
    {
      "inputs": [
        {
          "internalType": "address",
          "name": "newOwner",
          "type": "address"
        }
      ],
      "name": "transferOwnership",
      "outputs": [],
      "stateMutability": "nonpayable",
      "type": "function"
    }
  ],
  "bytecode": "0x608060405234801561001057600080fd5b50613fc3806100206000396000f3fe608060405234801561001057600080fd5b50600436106102f15760003560e01c806379cc67901161019d578063b354675b116100e9578063d4fcd9af116100a2578063e6f814131161007c578063e6f814131461070e578063f1127ed814610718578063f2fde38b14610755578063f4a290f71461076857600080fd5b8063d4fcd9af146106e0578063d505accf146106e8578063dd62ed3e146106fb57600080fd5b8063b354675b1461064d578063b4b5ea5714610679578063b4d272831461068c578063c3678f351461069f578063c3cda520146106a9578063c4fcdc3d146106bc57600080fd5b806394527729116101565780639ab24eb0116101305780639ab24eb01461060a578063a457c2d71461061d578063a9059cbb14610630578063ab8de8a31461064357600080fd5b806394527729146105a857806395d89b41146105d45780639637e89a146105dc57600080fd5b806379cc6790146105385780637ecebe001461054b5780638da5cb5b1461055e5780638e539e8c1461056f5780638f15b414146105825780638f2839701461059557600080fd5b806342966c681161025c57806361bcaf74116102155780636fcfff45116101ef5780636fcfff45146104b457806370a08231146104dc578063715018a614610505578063782d6fe11461050d57600080fd5b806361bcaf741461046b57806361d618001461047e5780636e0c558f1461048857600080fd5b806342966c68146103fb578063448e36e61461040e57806354fac91914610418578063587cde1e146104205780635c19a95c1461044d5780635c975abb1461046057600080fd5b8063306ca55d116102ae578063306ca55d1461039d578063313ce567146103b05780633644e515146103c557806339509351146103cd5780633a46b1a8146103e057806341ca7834146103f357600080fd5b806301bc45c9146102f657806306fdde0314610327578063095ea7b31461033c57806316a5041f1461035f57806318160ddd1461037457806323b872dd1461038a575b600080fd5b6101f85461030a906001600160a01b031681565b6040516001600160a01b0390911681526020015b60405180910390f35b61032f61077c565b60405161031e919061340e565b61034f61034a366004613456565b61080e565b604051901515815260200161031e565b61037261036d366004613482565b610828565b005b61037c6108c5565b60405190815260200161031e565b61034f61039836600461349f565b6108d5565b6103726103ab3660046134e0565b6108f9565b60125b60405160ff909116815260200161031e565b61037c610983565b61034f6103db366004613456565b61098d565b61037c6103ee366004613456565b6109af565b610372610a2a565b61037261040936600461351e565b610bcb565b61037c6102015481565b6103b3610bd5565b61030a61042e366004613482565b6001600160a01b03908116600090815261019460205260409020541690565b61037261045b366004613482565b610cbd565b60655460ff1661034f565b610372610479366004613537565b610cc7565b61037c6101fe5481565b61037c61049636600461357f565b6101ff60209081526000928352604080842090915290825290205481565b6104c76104c2366004613482565b610f00565b60405163ffffffff909116815260200161031e565b61037c6104ea366004613482565b6001600160a01b031660009081526033602052604090205490565b610372610f23565b61052061051b366004613456565b610f37565b6040516001600160601b03909116815260200161031e565b610372610546366004613456565b610f4b565b61037c610559366004613482565b610f64565b60fb546001600160a01b031661030a565b61037c61057d36600461351e565b610f83565b6103726105903660046136bf565b610fe0565b6103726105a3366004613482565b61124c565b61037c6105b636600461357f565b6101fa60209081526000928352604080842090915290825290205481565b61032f6112e1565b6105ef6105ea366004613456565b6112f0565b6040805193845260208401929092529082015260600161031e565b61037c610618366004613482565b611676565b61034f61062b366004613456565b6116ff565b61034f61063e366004613456565b61177a565b61037c6102025481565b61037c61065b36600461357f565b6101fb60209081526000928352604080842090915290825290205481565b610520610687366004613482565b611788565b61037261069a366004613456565b611796565b61037c6101fc5481565b6103726106b736600461375e565b611a80565b61034f6106ca366004613482565b6102006020526000908152604090205460ff1681565b610372611bb6565b6103726106f63660046137b8565b611d86565b61037c61070936600461357f565b611eea565b61037c6101fd5481565b61072b610726366004613826565b611f15565b60408051825163ffffffff1681526020928301516001600160e01b0316928101929092520161031e565b610372610763366004613482565b611f9a565b6101f95461030a906001600160a01b031681565b60606036805461078b9061385d565b80601f01602080910402602001604051908101604052809291908181526020018280546107b79061385d565b80156108045780601f106107d957610100808354040283529160200191610804565b820191906000526020600020905b8154815290600101906020018083116107e757829003601f168201915b5050505050905090565b60003361081c818585612010565b60019150505b92915050565b6101f8546001600160a01b03163314801561084b57506001600160a01b03811615155b6040518060400160405280600381526020016231303160e81b8152509061088e5760405162461bcd60e51b8152600401610885919061340e565b60405180910390fd5b506101f9546001600160a01b038281169116146108c2576101f980546001600160a01b0319166001600160a01b0383161790555b50565b60006108d060355490565b905090565b6000336108e3858285612134565b6108ee8585856121a8565b506001949350505050565b6101f8546001600160a01b03163314801561091c57506001600160a01b03821615155b6040518060400160405280600381526020016231303160e81b815250906109565760405162461bcd60e51b8152600401610885919061340e565b506001600160a01b0391909116600090815261020060205260409020805460ff1916911515919091179055565b60006108d0612364565b60003361081c8185856109a08383611eea565b6109aa91906138a8565b612010565b6000438210610a005760405162461bcd60e51b815260206004820152601f60248201527f4552433230566f7465733a20626c6f636b206e6f7420796574206d696e6564006044820152606401610885565b6001600160a01b038316600090815261019560205260409020610a2390836123e1565b9392505050565b610a326124d8565b610a3d33600a61251e565b600a6101fd6000828254610a5191906138a8565b90915550506102015462249e8390610a6990436138c0565b116040518060400160405280600381526020016234303360e81b81525090610aa45760405162461bcd60e51b8152600401610885919061340e565b506101f954604080518082018252600c81526b5445414d5f56455354494e4760a01b6020820152905163bf40fac160e01b81526001600160a01b0390921691600091839163bf40fac191610afa9160040161340e565b602060405180830381865afa158015610b17573d6000803e3d6000fd5b505050506040513d601f19601f82011682018060405250810190610b3b91906138e2565b60408051808201909152600381526234303160e81b60208201529091506001600160a01b038216610b7f5760405162461bcd60e51b8152600401610885919061340e565b50600060646101fd54610b929190613915565b610b9d906019613937565b9050610ba98282612528565b806101fd6000828254610bbc91906138c0565b90915550504361020155505050565b6108c2338261251e565b600080610be46012600a613a3a565b610bf190620f4240613937565b905060006101fc5482603c610c069190613937565b610c1091906138c0565b9050610c1d82600a613937565b811015610c2d5760209250505090565b610c38826014613937565b811015610c485760109250505090565b610c5382601e613937565b811015610c635760089250505090565b610c6e826028613937565b811015610c7e5760049250505090565b610c89826032613937565b811015610c995760029250505090565b610ca482603c613937565b811015610cb45760019250505090565b60009250505090565b6108c23382612532565b6101f8546001600160a01b0316331480610cf15750336000908152610200602052604090205460ff165b15610efa576001600160a01b038216610efa576000849050806001600160a01b0316633cf96af16040518163ffffffff1660e01b8152600401602060405180830381865afa925050508015610d63575060408051601f3d908101601f19168201909252610d60918101906138e2565b60015b610da8576040516001600160a01b03861681527fd885430e240642202c2cb56f1e0ef33710e94fff454cd0e3c6d509b01d5aca739060200160405180910390a1610ef8565b6000610db7620f424087613915565b6040516331a9108f60e11b81526004810182905290915082906000906001600160a01b03831690636352211e90602401602060405180830381865afa158015610e04573d6000803e3d6000fd5b505050506040513d601f19601f82011682018060405250810190610e2891906138e2565b90506001600160a01b03811615610ef3576040516346ec8d2b60e11b8152600481018490526000906001600160a01b03841690638dd91a5690602401600060405180830381865afa158015610e81573d6000803e3d6000fd5b505050506040513d6000823e601f3d908101601f19168201604052610ea99190810190613c9a565b6001600160a01b0380841660009081526101ff602090815260408083206101e0860151909416835292905290812080549293508992909190610eec9084906138a8565b9091555050505b505050505b505b50505050565b6001600160a01b03811660009081526101956020526040812054610822906125ad565b610f2b612616565b610f356000612670565b565b6000610a23610f4684846109af565b6126c2565b610f56823383612134565b610f60828261251e565b5050565b6001600160a01b03811660009081526101616020526040812054610822565b6000438210610fd45760405162461bcd60e51b815260206004820152601f60248201527f4552433230566f7465733a20626c6f636b206e6f7420796574206d696e6564006044820152606401610885565b610822610196836123e1565b600054610100900460ff16158080156110005750600054600160ff909116105b8061101a5750303b15801561101a575060005460ff166001145b61107d5760405162461bcd60e51b815260206004820152602e60248201527f496e697469616c697a61626c653a20636f6e747261637420697320616c72656160448201526d191e481a5b9a5d1a585b1a5e995960921b6064820152608401610885565b6000805460ff1916600117905580156110a0576000805461ff0019166101001790555b6001600160a01b038316158015906110c057506001600160a01b03821615155b6040518060400160405280600381526020016203130360ec1b815250906110fa5760405162461bcd60e51b8152600401610885919061340e565b506101f880546001600160a01b038086166001600160a01b0319928316179092556101f98054928516929091169190911790556000611137601290565b61114290600a613a3a565b611150906305f5e100613937565b9050606461115f82603c613937565b6111699190613915565b6101fc55606461117a82601e613937565b6111849190613915565b6101fd8190556101f8546111a3916001600160a01b0390911690612528565b60006101fd5560646111b682600a613937565b6111c09190613915565b6101fe8190556101f8546111df916001600160a01b0390911690612528565b60006101fe556111ed61272a565b6111f78686612759565b6111ff61278a565b508015610ef8576000805461ff0019169055604051600181527f7f26b83ff96e1f2b6a682f133852f6798a09c465da95921460cefb38474024989060200160405180910390a15050505050565b6101f8546001600160a01b03163314801561126f57506001600160a01b03811615155b6040518060400160405280600381526020016231303160e81b815250906112a95760405162461bcd60e51b8152600401610885919061340e565b506101f8546001600160a01b038281169116146108c2576101f880546001600160a01b0383166001600160a01b031990911617905550565b60606037805461078b9061385d565b6040516346ec8d2b60e11b81526004810182905260009081908190859082906001600160a01b03831690638dd91a5690602401600060405180830381865afa158015611340573d6000803e3d6000fd5b505050506040513d6000823e601f3d908101601f191682016040526113689190810190613c9a565b606081015160408051808201909152600381526203430360ec1b60208201529192506001600160a01b0316156113b15760405162461bcd60e51b8152600401610885919061340e565b5060008160400151116113c357600080fd5b6000816101e001519050806001600160a01b031663631847266040518163ffffffff1660e01b8152600401602060405180830381865afa925050508015611427575060408051601f3d908101601f1916820190925261142491810190613efb565b60015b611473576101e08201516040516001600160a01b0390911681527fa2d47e5e61369d0bde38a716e62f1ea16d8124813f8ea55b832c218216e91dfc9060200160405180910390a1611660565b60008162ffffff161161148557600080fd5b600083604001516101fb6000876001600160a01b0316636352211e8d6040518263ffffffff1660e01b81526004016114bf91815260200190565b602060405180830381865afa1580156114dc573d6000803e3d6000fd5b505050506040513d601f19601f8201168201806040525081019061150091906138e2565b6001600160a01b039081168252602080830193909352604091820160009081206101e08a01519092168152925290205461153f9062ffffff85166138c0565b6115499190613937565b9050611553610bd5565b6115609060ff1682613937565b61156b906064613937565b82611574610bd5565b60ff166101ff6000896001600160a01b0316636352211e8f6040518263ffffffff1660e01b81526004016115aa91815260200190565b602060405180830381865afa1580156115c7573d6000803e3d6000fd5b505050506040513d601f19601f820116820180604052508101906115eb91906138e2565b6001600160a01b03166001600160a01b031681526020019081526020016000206000886101e001516001600160a01b03166001600160a01b031681526020019081526020016000205461163e9190613937565b611649906064613937565b91995062ffffff169750955061166f945050505050565b60008060009550955095505050505b9250925092565b6001600160a01b0381166000908152610195602052604081205480156116ec576001600160a01b0383166000908152610195602052604090206116ba6001836138c0565b815481106116ca576116ca613f16565b60009182526020909120015464010000000090046001600160e01b03166116ef565b60005b6001600160e01b03169392505050565b6000338161170d8286611eea565b90508381101561176d5760405162461bcd60e51b815260206004820152602560248201527f45524332303a2064656372656173656420616c6c6f77616e63652062656c6f77604482015264207a65726f60d81b6064820152608401610885565b6108ee8286868403612010565b60003361081c8185856121a8565b6000610822610f4683611676565b61179e6124d8565b60006101fc54116040518060400160405280600381526020016232303360e81b815250906117df5760405162461bcd60e51b8152600401610885919061340e565b506040516346ec8d2b60e11b81526004810182905282906000906001600160a01b03831690638dd91a5690602401600060405180830381865afa15801561182a573d6000803e3d6000fd5b505050506040513d6000823e601f3d908101601f191682016040526118529190810190613c9a565b606081015160408051808201909152600381526203430360ec1b60208201529192506001600160a01b03161561189b5760405162461bcd60e51b8152600401610885919061340e565b5060008160400151116118ad57600080fd5b60008060006118bc87876112f0565b9194509250905060006118cf82856138a8565b90508015611a76576101fc548111156118e857506101fc545b60c0850180516001600160a01b0390811660009081526101fb602090815260408083206101e08b018051861685529083528184208990559451841683526101fa825280832094519093168252929092528120805483929061194a9084906138a8565b90915550506040516331a9108f60e11b8152600481018890526000906101ff9082906001600160a01b038a1690636352211e90602401602060405180830381865afa15801561199d573d6000803e3d6000fd5b505050506040513d601f19601f820116820180604052508101906119c191906138e2565b6001600160a01b039081168252602080830193909352604091820160009081206101e08b01519092168152925290205560c0850151611a009082612528565b806101fc6000828254611a1391906138c0565b909155505060c0850151604080516001600160a01b03909216825260208201839052810185905260608101849052608081018390527fab8740194374c5f9d49b0cbd25bbba5777839e75f33e3f7cd15b08a92cf6805b9060a00160405180910390a15b5050505050505050565b83421115611ad05760405162461bcd60e51b815260206004820152601d60248201527f4552433230566f7465733a207369676e617475726520657870697265640000006044820152606401610885565b604080517fe48329057bfd03d55e49b547132e39cffd9c1820ad7b9d4c5307691425d15adf60208201526001600160a01b038816918101919091526060810186905260808101859052600090611b4a90611b429060a001604051602081830303815290604052805190602001206127b9565b858585612807565b9050611b558161282f565b8614611ba35760405162461bcd60e51b815260206004820152601960248201527f4552433230566f7465733a20696e76616c6964206e6f6e6365000000000000006044820152606401610885565b611bad8188612532565b50505050505050565b611bbe6124d8565b60006101fe5411604051806040016040528060038152602001620d0c0d60ea1b81525090611bff5760405162461bcd60e51b8152600401610885919061340e565b5062249e836102025443611c1391906138c0565b116040518060400160405280600381526020016234303360e81b81525090611c4e5760405162461bcd60e51b8152600401610885919061340e565b506101f954604080518082018252601f81527f4d494e545f4e46545f4f50455241544f525f54524541535552455f41444452006020820152905163bf40fac160e01b81526001600160a01b0390921691600091839163bf40fac191611cb59160040161340e565b602060405180830381865afa158015611cd2573d6000803e3d6000fd5b505050506040513d601f19601f82011682018060405250810190611cf691906138e2565b6040805180820190915260038152621a181960e91b60208201529091506001600160a01b038216611d3a5760405162461bcd60e51b8152600401610885919061340e565b50600060646101fe54611d4d9190613915565b611d58906019613937565b9050611d648282612528565b806101fe6000828254611d7791906138c0565b90915550504361020255505050565b83421115611dd65760405162461bcd60e51b815260206004820152601d60248201527f45524332305065726d69743a206578706972656420646561646c696e650000006044820152606401610885565b60007f6e71edae12b1b97f4d1f60370fef10105fa2faae0126114a169c64845d6126c9888888611e058c61282f565b6040805160208101969096526001600160a01b0394851690860152929091166060840152608083015260a082015260c0810186905260e0016040516020818303038152906040528051906020012090506000611e60826127b9565b90506000611e7082878787612807565b9050896001600160a01b0316816001600160a01b031614611ed35760405162461bcd60e51b815260206004820152601e60248201527f45524332305065726d69743a20696e76616c6964207369676e617475726500006044820152606401610885565b611ede8a8a8a612010565b50505050505050505050565b6001600160a01b03918216600090815260346020908152604080832093909416825291909152205490565b60408051808201909152600080825260208201526001600160a01b038316600090815261019560205260409020805463ffffffff8416908110611f5a57611f5a613f16565b60009182526020918290206040805180820190915291015463ffffffff8116825264010000000090046001600160e01b0316918101919091529392505050565b611fa2612616565b6001600160a01b0381166120075760405162461bcd60e51b815260206004820152602660248201527f4f776e61626c653a206e6577206f776e657220697320746865207a65726f206160448201526564647265737360d01b6064820152608401610885565b6108c281612670565b6001600160a01b0383166120725760405162461bcd60e51b8152602060048201526024808201527f45524332303a20617070726f76652066726f6d20746865207a65726f206164646044820152637265737360e01b6064820152608401610885565b6001600160a01b0382166120d35760405162461bcd60e51b815260206004820152602260248201527f45524332303a20617070726f766520746f20746865207a65726f206164647265604482015261737360f01b6064820152608401610885565b6001600160a01b0383811660008181526034602090815260408083209487168084529482529182902085905590518481527f8c5be1e5ebec7d5bd14f71427d1e84f3dd0314c0f7b2291e5b200ac8c7c3b925910160405180910390a3505050565b60006121408484611eea565b90506000198114610efa578181101561219b5760405162461bcd60e51b815260206004820152601d60248201527f45524332303a20696e73756666696369656e7420616c6c6f77616e63650000006044820152606401610885565b610efa8484848403612010565b6001600160a01b03831661220c5760405162461bcd60e51b815260206004820152602560248201527f45524332303a207472616e736665722066726f6d20746865207a65726f206164604482015264647265737360d81b6064820152608401610885565b6001600160a01b03821661226e5760405162461bcd60e51b815260206004820152602360248201527f45524332303a207472616e7366657220746f20746865207a65726f206164647260448201526265737360e81b6064820152608401610885565b612279838383612858565b6001600160a01b038316600090815260336020526040902054818110156122f15760405162461bcd60e51b815260206004820152602660248201527f45524332303a207472616e7366657220616d6f756e7420657863656564732062604482015265616c616e636560d01b6064820152608401610885565b6001600160a01b0380851660008181526033602052604080822086860390559286168082529083902080548601905591517fddf252ad1be2c89b69c2b068fc378daa952ba7f163c4a11628f55a4df523b3ef906123519086815260200190565b60405180910390a3610efa848484612868565b60006108d07f8b73c3c69bb8fe3d512ecc4cf759cc79239f7b179b0ffacaa9a75d522b39400f61239461012d5490565b61012e546040805160208101859052908101839052606081018290524660808201523060a082015260009060c0016040516020818303038152906040528051906020012090509392505050565b81546000908181600581111561243b5760006123fc84612873565b61240690856138c0565b600088815260209020909150869082015463ffffffff16111561242b57809150612439565b6124368160016138a8565b92505b505b8082101561248857600061244f8383612958565b600088815260209020909150869082015463ffffffff16111561247457809150612482565b61247f8160016138a8565b92505b5061243b565b80156124c2576124ab8661249d6001846138c0565b600091825260209091200190565b5464010000000090046001600160e01b03166124c5565b60005b6001600160e01b03169695505050505050565b60655460ff1615610f355760405162461bcd60e51b815260206004820152601060248201526f14185d5cd8589b194e881c185d5cd95960821b6044820152606401610885565b610f608282612973565b610f60828261298c565b6001600160a01b0382811660008181526101946020818152604080842080546033845282862054949093528787166001600160a01b03198416811790915590519190951694919391928592917f3134e8a2e6d97e929a7e54011ea5485d7d196dd5f0ba4d4ef95803e8e3fc257f9190a4610efa828483612a1c565b600063ffffffff8211156126125760405162461bcd60e51b815260206004820152602660248201527f53616665436173743a2076616c756520646f65736e27742066697420696e203360448201526532206269747360d01b6064820152608401610885565b5090565b60fb546001600160a01b03163314610f355760405162461bcd60e51b815260206004820181905260248201527f4f776e61626c653a2063616c6c6572206973206e6f7420746865206f776e65726044820152606401610885565b60fb80546001600160a01b038381166001600160a01b0319831681179093556040519116919082907f8be0079c531659141344cd1fd0a4f28419497f9722a3daafe3b4186f6b6457e090600090a35050565b60006001600160601b038211156126125760405162461bcd60e51b815260206004820152602660248201527f53616665436173743a2076616c756520646f65736e27742066697420696e203960448201526536206269747360d01b6064820152608401610885565b600054610100900460ff166127515760405162461bcd60e51b815260040161088590613f2c565b610f35612b5b565b600054610100900460ff166127805760405162461bcd60e51b815260040161088590613f2c565b610f608282612b8e565b600054610100900460ff166127b15760405162461bcd60e51b815260040161088590613f2c565b610f35612bdc565b60006108226127c6612364565b8360405161190160f01b6020820152602281018390526042810182905260009060620160405160208183030381529060405280519060200120905092915050565b600080600061281887878787612c0c565b9150915061282581612cd0565b5095945050505050565b6001600160a01b0381166000908152610161602052604090208054600181018255905b50919050565b612863838383612e1e565b505050565b612863838383612e84565b60008161288257506000919050565b6000600161288f84612eb7565b901c6001901b905060018184816128a8576128a86138ff565b048201901c905060018184816128c0576128c06138ff565b048201901c905060018184816128d8576128d86138ff565b048201901c905060018184816128f0576128f06138ff565b048201901c90506001818481612908576129086138ff565b048201901c90506001818481612920576129206138ff565b048201901c90506001818481612938576129386138ff565b048201901c9050610a2381828581612952576129526138ff565b04612f4b565b60006129676002848418613915565b610a23908484166138a8565b61297d8282612f61565b610efa6101966130a8836130b4565b6129968282613208565b6001600160601b036129a66108c5565b1115612a0d5760405162461bcd60e51b815260206004820152603060248201527f4552433230566f7465733a20746f74616c20737570706c79207269736b73206f60448201526f766572666c6f77696e6720766f74657360801b6064820152608401610885565b610efa6101966132dd836130b4565b816001600160a01b0316836001600160a01b031614158015612a3e5750600081115b15612863576001600160a01b03831615612acd576001600160a01b0383166000908152610195602052604081208190612a7a906130a8856130b4565b91509150846001600160a01b03167fdec2bacdd2f05b59de34da9b523dff8be42e5e38e818c82fdb0bae774387a7248383604051612ac2929190918252602082015260400190565b60405180910390a250505b6001600160a01b03821615612863576001600160a01b0382166000908152610195602052604081208190612b04906132dd856130b4565b91509150836001600160a01b03167fdec2bacdd2f05b59de34da9b523dff8be42e5e38e818c82fdb0bae774387a7248383604051612b4c929190918252602082015260400190565b60405180910390a25050505050565b600054610100900460ff16612b825760405162461bcd60e51b815260040161088590613f2c565b6065805460ff19169055565b600054610100900460ff16612bb55760405162461bcd60e51b815260040161088590613f2c565b8151612bc8906036906020850190613352565b508051612863906037906020840190613352565b600054610100900460ff16612c035760405162461bcd60e51b815260040161088590613f2c565b610f3533612670565b6000807f7fffffffffffffffffffffffffffffff5d576e7357a4501ddfe92f46681b20a0831115612c435750600090506003612cc7565b6040805160008082526020820180845289905260ff881692820192909252606081018690526080810185905260019060a0016020604051602081039080840390855afa158015612c97573d6000803e3d6000fd5b5050604051601f1901519150506001600160a01b038116612cc057600060019250925050612cc7565b9150600090505b94509492505050565b6000816004811115612ce457612ce4613f77565b1415612ced5750565b6001816004811115612d0157612d01613f77565b1415612d4f5760405162461bcd60e51b815260206004820152601860248201527f45434453413a20696e76616c6964207369676e617475726500000000000000006044820152606401610885565b6002816004811115612d6357612d63613f77565b1415612db15760405162461bcd60e51b815260206004820152601f60248201527f45434453413a20696e76616c6964207369676e6174757265206c656e677468006044820152606401610885565b6003816004811115612dc557612dc5613f77565b14156108c25760405162461bcd60e51b815260206004820152602260248201527f45434453413a20696e76616c6964207369676e6174757265202773272076616c604482015261756560f01b6064820152608401610885565b60655460ff16156128635760405162461bcd60e51b815260206004820152602a60248201527f45524332305061757361626c653a20746f6b656e207472616e736665722077686044820152691a5b19481c185d5cd95960b21b6064820152608401610885565b6001600160a01b038381166000908152610194602052604080822054858416835291205461286392918216911683612a1c565b600080608083901c15612ecc57608092831c92015b604083901c15612ede57604092831c92015b602083901c15612ef057602092831c92015b601083901c15612f0257601092831c92015b600883901c15612f1457600892831c92015b600483901c15612f2657600492831c92015b600283901c15612f3857600292831c92015b600183901c156108225760010192915050565b6000818310612f5a5781610a23565b5090919050565b6001600160a01b038216612fc15760405162461bcd60e51b815260206004820152602160248201527f45524332303a206275726e2066726f6d20746865207a65726f206164647265736044820152607360f81b6064820152608401610885565b612fcd82600083612858565b6001600160a01b038216600090815260336020526040902054818110156130415760405162461bcd60e51b815260206004820152602260248201527f45524332303a206275726e20616d6f756e7420657863656564732062616c616e604482015261636560f01b6064820152608401610885565b6001600160a01b03831660008181526033602090815260408083208686039055603580548790039055518581529192917fddf252ad1be2c89b69c2b068fc378daa952ba7f163c4a11628f55a4df523b3ef910160405180910390a361286383600084612868565b6000610a2382846138c0565b82546000908190818115613101576130d18761249d6001856138c0565b60408051808201909152905463ffffffff8116825264010000000090046001600160e01b03166020820152613116565b60408051808201909152600080825260208201525b905080602001516001600160e01b0316935061313684868863ffffffff16565b925060008211801561314e5750805163ffffffff1643145b156131935761315c836132e9565b61316b8861249d6001866138c0565b80546001600160e01b03929092166401000000000263ffffffff9092169190911790556131fe565b8660405180604001604052806131a8436125ad565b63ffffffff1681526020016131bc866132e9565b6001600160e01b0390811690915282546001810184556000938452602093849020835194909301519091166401000000000263ffffffff909316929092179101555b5050935093915050565b6001600160a01b03821661325e5760405162461bcd60e51b815260206004820152601f60248201527f45524332303a206d696e7420746f20746865207a65726f2061646472657373006044820152606401610885565b61326a60008383612858565b806035600082825461327c91906138a8565b90915550506001600160a01b0382166000818152603360209081526040808320805486019055518481527fddf252ad1be2c89b69c2b068fc378daa952ba7f163c4a11628f55a4df523b3ef910160405180910390a3610f6060008383612868565b6000610a2382846138a8565b60006001600160e01b038211156126125760405162461bcd60e51b815260206004820152602760248201527f53616665436173743a2076616c756520646f65736e27742066697420696e20326044820152663234206269747360c81b6064820152608401610885565b82805461335e9061385d565b90600052602060002090601f01602090048101928261338057600085556133c6565b82601f1061339957805160ff19168380011785556133c6565b828001600101855582156133c6579182015b828111156133c65782518255916020019190600101906133ab565b506126129291505b8082111561261257600081556001016133ce565b60005b838110156133fd5781810151838201526020016133e5565b83811115610efa5750506000910152565b602081526000825180602084015261342d8160408501602087016133e2565b601f01601f19169190910160400192915050565b6001600160a01b03811681146108c257600080fd5b6000806040838503121561346957600080fd5b823561347481613441565b946020939093013593505050565b60006020828403121561349457600080fd5b8135610a2381613441565b6000806000606084860312156134b457600080fd5b83356134bf81613441565b925060208401356134cf81613441565b929592945050506040919091013590565b600080604083850312156134f357600080fd5b82356134fe81613441565b91506020830135801515811461351357600080fd5b809150509250929050565b60006020828403121561353057600080fd5b5035919050565b6000806000806080858703121561354d57600080fd5b843561355881613441565b935060208501359250604085013561356f81613441565b9396929550929360600135925050565b6000806040838503121561359257600080fd5b823561359d81613441565b9150602083013561351381613441565b634e487b7160e01b600052604160045260246000fd5b60405160a0810167ffffffffffffffff811182821017156135e6576135e66135ad565b60405290565b604051610260810167ffffffffffffffff811182821017156135e6576135e66135ad565b604051601f8201601f1916810167ffffffffffffffff81118282101715613639576136396135ad565b604052919050565b600067ffffffffffffffff82111561365b5761365b6135ad565b50601f01601f191660200190565b600082601f83011261367a57600080fd5b813561368d61368882613641565b613610565b8181528460208386010111156136a257600080fd5b816020850160208301376000918101602001919091529392505050565b600080600080608085870312156136d557600080fd5b843567ffffffffffffffff808211156136ed57600080fd5b6136f988838901613669565b9550602087013591508082111561370f57600080fd5b5061371c87828801613669565b935050604085013561372d81613441565b9150606085013561373d81613441565b939692955090935050565b803560ff8116811461375957600080fd5b919050565b60008060008060008060c0878903121561377757600080fd5b863561378281613441565b9550602087013594506040870135935061379e60608801613748565b92506080870135915060a087013590509295509295509295565b600080600080600080600060e0888a0312156137d357600080fd5b87356137de81613441565b965060208801356137ee81613441565b9550604088013594506060880135935061380a60808901613748565b925060a0880135915060c0880135905092959891949750929550565b6000806040838503121561383957600080fd5b823561384481613441565b9150602083013563ffffffff8116811461351357600080fd5b600181811c9082168061387157607f821691505b6020821081141561285257634e487b7160e01b600052602260045260246000fd5b634e487b7160e01b600052601160045260246000fd5b600082198211156138bb576138bb613892565b500190565b6000828210156138d2576138d2613892565b500390565b805161375981613441565b6000602082840312156138f457600080fd5b8151610a2381613441565b634e487b7160e01b600052601260045260246000fd5b60008261393257634e487b7160e01b600052601260045260246000fd5b500490565b600081600019048311821515161561395157613951613892565b500290565b600181815b8085111561399157816000190482111561397757613977613892565b8085161561398457918102915b93841c939080029061395b565b509250929050565b6000826139a857506001610822565b816139b557506000610822565b81600181146139cb57600281146139d5576139f1565b6001915050610822565b60ff8411156139e6576139e6613892565b50506001821b610822565b5060208310610133831016604e8410600b8410161715613a14575081810a610822565b613a1e8383613956565b8060001904821115613a3257613a32613892565b029392505050565b6000610a2360ff841683613999565b805162ffffff8116811461375957600080fd5b600082601f830112613a6d57600080fd5b8151613a7b61368882613641565b818152846020838601011115613a9057600080fd5b613aa18260208301602087016133e2565b949350505050565b600060a08284031215613abb57600080fd5b613ac36135c3565b9050815167ffffffffffffffff80821115613add57600080fd5b613ae985838601613a5c565b83526020840151915080821115613aff57600080fd5b613b0b85838601613a5c565b60208401526040840151915080821115613b2457600080fd5b613b3085838601613a5c565b60408401526060840151915080821115613b4957600080fd5b613b5585838601613a5c565b60608401526080840151915080821115613b6e57600080fd5b50613b7b84828501613a5c565b60808301525092915050565b600067ffffffffffffffff821115613ba157613ba16135ad565b5060051b60200190565b600082601f830112613bbc57600080fd5b81516020613bcc61368883613b87565b82815260059290921b84018101918181019086841115613beb57600080fd5b8286015b84811015613c2b57805167ffffffffffffffff811115613c0f5760008081fd5b613c1d8986838b0101613a5c565b845250918301918301613bef565b509695505050505050565b600082601f830112613c4757600080fd5b81516020613c5761368883613b87565b82815260059290921b84018101918181019086841115613c7657600080fd5b8286015b84811015613c2b578051613c8d81613441565b8352918301918301613c7a565b600060208284031215613cac57600080fd5b815167ffffffffffffffff80821115613cc457600080fd5b908301906102608286031215613cd957600080fd5b613ce16135ec565b613cea83613a49565b8152613cf860208401613a49565b602082015260408301516040820152613d13606084016138d7565b6060820152608083015182811115613d2a57600080fd5b613d3687828601613a5c565b60808301525060a083015182811115613d4e57600080fd5b613d5a87828601613a5c565b60a083015250613d6c60c084016138d7565b60c082015260e083015182811115613d8357600080fd5b613d8f87828601613a5c565b60e0830152506101008084015183811115613da957600080fd5b613db588828701613a5c565b8284015250506101208084015183811115613dcf57600080fd5b613ddb88828701613a5c565b8284015250506101408084015183811115613df557600080fd5b613e0188828701613aa9565b8284015250506101608084015183811115613e1b57600080fd5b613e2788828701613bab565b8284015250506101808084015183811115613e4157600080fd5b613e4d88828701613bab565b8284015250506101a08084015183811115613e6757600080fd5b613e7388828701613a5c565b8284015250506101c08084015181830152506101e0613e938185016138d7565b908201526102008381015183811115613eab57600080fd5b613eb788828701613a5c565b8284015250506102208084015183811115613ed157600080fd5b613edd88828701613c36565b91830191909152506102409283015192810192909252509392505050565b600060208284031215613f0d57600080fd5b610a2382613a49565b634e487b7160e01b600052603260045260246000fd5b6020808252602b908201527f496e697469616c697a61626c653a20636f6e7472616374206973206e6f74206960408201526a6e697469616c697a696e6760a81b606082015260800190565b634e487b7160e01b600052602160045260246000fdfea26469706673582212201dca02a1ac8b85934269fbacbb1cc9db893c54019febe163788d29ca8043e2bc64736f6c634300080c0033",
  "linkReferences": {},
  "deployedLinkReferences": {}
}