{
  "_format": "hh-sol-artifact-1",
  "contractName": "GENTokenTestnet",
  "sourceName": "contracts/erc20/GENTokenTestnet.sol",
  "abi": [
    {
      "anonymous": false,
      "inputs": [
        {
          "indexed": true,
          "internalType": "address",
          "name": "owner",
          "type": "address"
        },
        {
          "indexed": true,
          "internalType": "address",
          "name": "spender",
          "type": "address"
        },
        {
          "indexed": false,
          "internalType": "uint256",
          "name": "value",
          "type": "uint256"
        }
      ],
      "name": "Approval",
      "type": "event"
    },
    {
      "anonymous": false,
      "inputs": [
        {
          "indexed": false,
          "internalType": "address",
          "name": "to",
          "type": "address"
        },
        {
          "indexed": false,
          "internalType": "uint256",
          "name": "amount",
          "type": "uint256"
        },
        {
          "indexed": false,
          "internalType": "uint256",
          "name": "primary",
          "type": "uint256"
        },
        {
          "indexed": false,
          "internalType": "uint256",
          "name": "",
          "type": "uint256"
        },
        {
          "indexed": false,
          "internalType": "uint256",
          "name": "second",
          "type": "uint256"
        }
      ],
      "name": "ClaimToken",
      "type": "event"
    },
    {
      "anonymous": false,
      "inputs": [
        {
          "indexed": true,
          "internalType": "address",
          "name": "delegator",
          "type": "address"
        },
        {
          "indexed": true,
          "internalType": "address",
          "name": "fromDelegate",
          "type": "address"
        },
        {
          "indexed": true,
          "internalType": "address",
          "name": "toDelegate",
          "type": "address"
        }
      ],
      "name": "DelegateChanged",
      "type": "event"
    },
    {
      "anonymous": false,
      "inputs": [
        {
          "indexed": true,
          "internalType": "address",
          "name": "delegate",
          "type": "address"
        },
        {
          "indexed": false,
          "internalType": "uint256",
          "name": "previousBalance",
          "type": "uint256"
        },
        {
          "indexed": false,
          "internalType": "uint256",
          "name": "newBalance",
          "type": "uint256"
        }
      ],
      "name": "DelegateVotesChanged",
      "type": "event"
    },
    {
      "anonymous": false,
      "inputs": [
        {
          "indexed": false,
          "internalType": "uint8",
          "name": "version",
          "type": "uint8"
        }
      ],
      "name": "Initialized",
      "type": "event"
    },
    {
      "anonymous": false,
      "inputs": [
        {
          "indexed": false,
          "internalType": "address",
          "name": "genNFT",
          "type": "address"
        }
      ],
      "name": "NotSupportProjectAddress",
      "type": "event"
    },
    {
      "anonymous": false,
      "inputs": [
        {
          "indexed": false,
          "internalType": "address",
          "name": "genNFT",
          "type": "address"
        }
      ],
      "name": "NotSupportProjectIndex",
      "type": "event"
    },
    {
      "anonymous": false,
      "inputs": [
        {
          "indexed": true,
          "internalType": "address",
          "name": "previousOwner",
          "type": "address"
        },
        {
          "indexed": true,
          "internalType": "address",
          "name": "newOwner",
          "type": "address"
        }
      ],
      "name": "OwnershipTransferred",
      "type": "event"
    },
    {
      "anonymous": false,
      "inputs": [
        {
          "indexed": false,
          "internalType": "address",
          "name": "account",
          "type": "address"
        }
      ],
      "name": "Paused",
      "type": "event"
    },
    {
      "anonymous": false,
      "inputs": [
        {
          "indexed": true,
          "internalType": "address",
          "name": "from",
          "type": "address"
        },
        {
          "indexed": true,
          "internalType": "address",
          "name": "to",
          "type": "address"
        },
        {
          "indexed": false,
          "internalType": "uint256",
          "name": "value",
          "type": "uint256"
        }
      ],
      "name": "Transfer",
      "type": "event"
    },
    {
      "anonymous": false,
      "inputs": [
        {
          "indexed": false,
          "internalType": "address",
          "name": "account",
          "type": "address"
        }
      ],
      "name": "Unpaused",
      "type": "event"
    },
    {
      "inputs": [],
      "name": "DOMAIN_SEPARATOR",
      "outputs": [
        {
          "internalType": "bytes32",
          "name": "",
          "type": "bytes32"
        }
      ],
      "stateMutability": "view",
      "type": "function"
    },
    {
      "inputs": [
        {
          "internalType": "address",
          "name": "",
          "type": "address"
        },
        {
          "internalType": "address",
          "name": "",
          "type": "address"
        }
      ],
      "name": "_PoASecondSale",
      "outputs": [
        {
          "internalType": "uint256",
          "name": "",
          "type": "uint256"
        }
      ],
      "stateMutability": "view",
      "type": "function"
    },
    {
      "inputs": [],
      "name": "_admin",
      "outputs": [
        {
          "internalType": "address",
          "name": "",
          "type": "address"
        }
      ],
      "stateMutability": "view",
      "type": "function"
    },
    {
      "inputs": [
        {
          "internalType": "address",
          "name": "",
          "type": "address"
        },
        {
          "internalType": "address",
          "name": "",
          "type": "address"
        }
      ],
      "name": "_claimed",
      "outputs": [
        {
          "internalType": "uint256",
          "name": "",
          "type": "uint256"
        }
      ],
      "stateMutability": "view",
      "type": "function"
    },
    {
      "inputs": [
        {
          "internalType": "address",
          "name": "",
          "type": "address"
        },
        {
          "internalType": "address",
          "name": "",
          "type": "address"
        }
      ],
      "name": "_claimedIndex",
      "outputs": [
        {
          "internalType": "uint256",
          "name": "",
          "type": "uint256"
        }
      ],
      "stateMutability": "view",
      "type": "function"
    },
    {
      "inputs": [],
      "name": "_daoVesting",
      "outputs": [
        {
          "internalType": "uint256",
          "name": "",
          "type": "uint256"
        }
      ],
      "stateMutability": "view",
      "type": "function"
    },
    {
      "inputs": [],
      "name": "_paramAddr",
      "outputs": [
        {
          "internalType": "address",
          "name": "",
          "type": "address"
        }
      ],
      "stateMutability": "view",
      "type": "function"
    },
    {
      "inputs": [
        {
          "internalType": "address",
          "name": "",
          "type": "address"
        }
      ],
      "name": "_proxyPoASecondSales",
      "outputs": [
        {
          "internalType": "bool",
          "name": "",
          "type": "bool"
        }
      ],
      "stateMutability": "view",
      "type": "function"
    },
    {
      "inputs": [],
      "name": "_remainClaimSupply",
      "outputs": [
        {
          "internalType": "uint256",
          "name": "",
          "type": "uint256"
        }
      ],
      "stateMutability": "view",
      "type": "function"
    },
    {
      "inputs": [],
      "name": "_remainCoreTeam",
      "outputs": [
        {
          "internalType": "uint256",
          "name": "",
          "type": "uint256"
        }
      ],
      "stateMutability": "view",
      "type": "function"
    },
    {
      "inputs": [],
      "name": "_remainDAO",
      "outputs": [
        {
          "internalType": "uint256",
          "name": "",
          "type": "uint256"
        }
      ],
      "stateMutability": "view",
      "type": "function"
    },
    {
      "inputs": [],
      "name": "_teamVesting",
      "outputs": [
        {
          "internalType": "uint256",
          "name": "",
          "type": "uint256"
        }
      ],
      "stateMutability": "view",
      "type": "function"
    },
    {
      "inputs": [
        {
          "internalType": "address",
          "name": "owner",
          "type": "address"
        },
        {
          "internalType": "address",
          "name": "spender",
          "type": "address"
        }
      ],
      "name": "allowance",
      "outputs": [
        {
          "internalType": "uint256",
          "name": "",
          "type": "uint256"
        }
      ],
      "stateMutability": "view",
      "type": "function"
    },
    {
      "inputs": [
        {
          "internalType": "address",
          "name": "spender",
          "type": "address"
        },
        {
          "internalType": "uint256",
          "name": "amount",
          "type": "uint256"
        }
      ],
      "name": "approve",
      "outputs": [
        {
          "internalType": "bool",
          "name": "",
          "type": "bool"
        }
      ],
      "stateMutability": "nonpayable",
      "type": "function"
    },
    {
      "inputs": [
        {
          "internalType": "address",
          "name": "account",
          "type": "address"
        }
      ],
      "name": "balanceOf",
      "outputs": [
        {
          "internalType": "uint256",
          "name": "",
          "type": "uint256"
        }
      ],
      "stateMutability": "view",
      "type": "function"
    },
    {
      "inputs": [
        {
          "internalType": "uint256",
          "name": "amount",
          "type": "uint256"
        }
      ],
      "name": "burn",
      "outputs": [],
      "stateMutability": "nonpayable",
      "type": "function"
    },
    {
      "inputs": [
        {
          "internalType": "address",
          "name": "account",
          "type": "address"
        },
        {
          "internalType": "uint256",
          "name": "amount",
          "type": "uint256"
        }
      ],
      "name": "burnFrom",
      "outputs": [],
      "stateMutability": "nonpayable",
      "type": "function"
    },
    {
      "inputs": [
        {
          "internalType": "address",
          "name": "newAdm",
          "type": "address"
        }
      ],
      "name": "changeAdmin",
      "outputs": [],
      "stateMutability": "nonpayable",
      "type": "function"
    },
    {
      "inputs": [
        {
          "internalType": "address",
          "name": "newAddr",
          "type": "address"
        }
      ],
      "name": "changeParamAddress",
      "outputs": [],
      "stateMutability": "nonpayable",
      "type": "function"
    },
    {
      "inputs": [
        {
          "internalType": "address",
          "name": "account",
          "type": "address"
        },
        {
          "internalType": "uint32",
          "name": "pos",
          "type": "uint32"
        }
      ],
      "name": "checkpoints",
      "outputs": [
        {
          "components": [
            {
              "internalType": "uint32",
              "name": "fromBlock",
              "type": "uint32"
            },
            {
              "internalType": "uint224",
              "name": "votes",
              "type": "uint224"
            }
          ],
          "internalType": "struct ERC20VotesUpgradeable.Checkpoint",
          "name": "",
          "type": "tuple"
        }
      ],
      "stateMutability": "view",
      "type": "function"
    },
    {
      "inputs": [],
      "name": "decay",
      "outputs": [
        {
          "internalType": "uint8",
          "name": "",
          "type": "uint8"
        }
      ],
      "stateMutability": "view",
      "type": "function"
    },
    {
      "inputs": [],
      "name": "decimals",
      "outputs": [
        {
          "internalType": "uint8",
          "name": "",
          "type": "uint8"
        }
      ],
      "stateMutability": "pure",
      "type": "function"
    },
    {
      "inputs": [
        {
          "internalType": "address",
          "name": "spender",
          "type": "address"
        },
        {
          "internalType": "uint256",
          "name": "subtractedValue",
          "type": "uint256"
        }
      ],
      "name": "decreaseAllowance",
      "outputs": [
        {
          "internalType": "bool",
          "name": "",
          "type": "bool"
        }
      ],
      "stateMutability": "nonpayable",
      "type": "function"
    },
    {
      "inputs": [
        {
          "internalType": "address",
          "name": "delegatee",
          "type": "address"
        }
      ],
      "name": "delegate",
      "outputs": [],
      "stateMutability": "nonpayable",
      "type": "function"
    },
    {
      "inputs": [
        {
          "internalType": "address",
          "name": "delegatee",
          "type": "address"
        },
        {
          "internalType": "uint256",
          "name": "nonce",
          "type": "uint256"
        },
        {
          "internalType": "uint256",
          "name": "expiry",
          "type": "uint256"
        },
        {
          "internalType": "uint8",
          "name": "v",
          "type": "uint8"
        },
        {
          "internalType": "bytes32",
          "name": "r",
          "type": "bytes32"
        },
        {
          "internalType": "bytes32",
          "name": "s",
          "type": "bytes32"
        }
      ],
      "name": "delegateBySig",
      "outputs": [],
      "stateMutability": "nonpayable",
      "type": "function"
    },
    {
      "inputs": [
        {
          "internalType": "address",
          "name": "account",
          "type": "address"
        }
      ],
      "name": "delegates",
      "outputs": [
        {
          "internalType": "address",
          "name": "",
          "type": "address"
        }
      ],
      "stateMutability": "view",
      "type": "function"
    },
    {
      "inputs": [
        {
          "internalType": "address",
          "name": "account",
          "type": "address"
        }
      ],
      "name": "getCurrentVotes",
      "outputs": [
        {
          "internalType": "uint96",
          "name": "",
          "type": "uint96"
        }
      ],
      "stateMutability": "view",
      "type": "function"
    },
    {
      "inputs": [
        {
          "internalType": "uint256",
          "name": "blockNumber",
          "type": "uint256"
        }
      ],
      "name": "getPastTotalSupply",
      "outputs": [
        {
          "internalType": "uint256",
          "name": "",
          "type": "uint256"
        }
      ],
      "stateMutability": "view",
      "type": "function"
    },
    {
      "inputs": [
        {
          "internalType": "address",
          "name": "account",
          "type": "address"
        },
        {
          "internalType": "uint256",
          "name": "blockNumber",
          "type": "uint256"
        }
      ],
      "name": "getPastVotes",
      "outputs": [
        {
          "internalType": "uint256",
          "name": "",
          "type": "uint256"
        }
      ],
      "stateMutability": "view",
      "type": "function"
    },
    {
      "inputs": [
        {
          "internalType": "address",
          "name": "account",
          "type": "address"
        },
        {
          "internalType": "uint256",
          "name": "blockNumber",
          "type": "uint256"
        }
      ],
      "name": "getPriorVotes",
      "outputs": [
        {
          "internalType": "uint96",
          "name": "",
          "type": "uint96"
        }
      ],
      "stateMutability": "view",
      "type": "function"
    },
    {
      "inputs": [
        {
          "internalType": "address",
          "name": "account",
          "type": "address"
        }
      ],
      "name": "getVotes",
      "outputs": [
        {
          "internalType": "uint256",
          "name": "",
          "type": "uint256"
        }
      ],
      "stateMutability": "view",
      "type": "function"
    },
    {
      "inputs": [
        {
          "internalType": "address",
          "name": "spender",
          "type": "address"
        },
        {
          "internalType": "uint256",
          "name": "addedValue",
          "type": "uint256"
        }
      ],
      "name": "increaseAllowance",
      "outputs": [
        {
          "internalType": "bool",
          "name": "",
          "type": "bool"
        }
      ],
      "stateMutability": "nonpayable",
      "type": "function"
    },
    {
      "inputs": [
        {
          "internalType": "string",
          "name": "name",
          "type": "string"
        },
        {
          "internalType": "string",
          "name": "symbol",
          "type": "string"
        },
        {
          "internalType": "address",
          "name": "admin",
          "type": "address"
        },
        {
          "internalType": "address",
          "name": "paramAddr",
          "type": "address"
        }
      ],
      "name": "initialize",
      "outputs": [],
      "stateMutability": "nonpayable",
      "type": "function"
    },
    {
      "inputs": [],
      "name": "miningDAOTreasury",
      "outputs": [],
      "stateMutability": "nonpayable",
      "type": "function"
    },
    {
      "inputs": [
        {
          "internalType": "address",
          "name": "generativeProjectAddr",
          "type": "address"
        },
        {
          "internalType": "uint256",
          "name": "projectId",
          "type": "uint256"
        }
      ],
      "name": "miningPoA",
      "outputs": [],
      "stateMutability": "nonpayable",
      "type": "function"
    },
    {
      "inputs": [],
      "name": "miningTeam",
      "outputs": [],
      "stateMutability": "nonpayable",
      "type": "function"
    },
    {
      "inputs": [],
      "name": "name",
      "outputs": [
        {
          "internalType": "string",
          "name": "",
          "type": "string"
        }
      ],
      "stateMutability": "view",
      "type": "function"
    },
    {
      "inputs": [
        {
          "internalType": "address",
          "name": "owner",
          "type": "address"
        }
      ],
      "name": "nonces",
      "outputs": [
        {
          "internalType": "uint256",
          "name": "",
          "type": "uint256"
        }
      ],
      "stateMutability": "view",
      "type": "function"
    },
    {
      "inputs": [
        {
          "internalType": "address",
          "name": "account",
          "type": "address"
        }
      ],
      "name": "numCheckpoints",
      "outputs": [
        {
          "internalType": "uint32",
          "name": "",
          "type": "uint32"
        }
      ],
      "stateMutability": "view",
      "type": "function"
    },
    {
      "inputs": [],
      "name": "owner",
      "outputs": [
        {
          "internalType": "address",
          "name": "",
          "type": "address"
        }
      ],
      "stateMutability": "view",
      "type": "function"
    },
    {
      "inputs": [],
      "name": "paused",
      "outputs": [
        {
          "internalType": "bool",
          "name": "",
          "type": "bool"
        }
      ],
      "stateMutability": "view",
      "type": "function"
    },
    {
      "inputs": [
        {
          "internalType": "address",
          "name": "owner",
          "type": "address"
        },
        {
          "internalType": "address",
          "name": "spender",
          "type": "address"
        },
        {
          "internalType": "uint256",
          "name": "value",
          "type": "uint256"
        },
        {
          "internalType": "uint256",
          "name": "deadline",
          "type": "uint256"
        },
        {
          "internalType": "uint8",
          "name": "v",
          "type": "uint8"
        },
        {
          "internalType": "bytes32",
          "name": "r",
          "type": "bytes32"
        },
        {
          "internalType": "bytes32",
          "name": "s",
          "type": "bytes32"
        }
      ],
      "name": "permit",
      "outputs": [],
      "stateMutability": "nonpayable",
      "type": "function"
    },
    {
      "inputs": [
        {
          "internalType": "address",
          "name": "generativeProjectAddr",
          "type": "address"
        },
        {
          "internalType": "uint256",
          "name": "projectId",
          "type": "uint256"
        }
      ],
      "name": "proofOfArtAvailable",
      "outputs": [
        {
          "internalType": "uint256",
          "name": "",
          "type": "uint256"
        },
        {
          "internalType": "uint256",
          "name": "",
          "type": "uint256"
        },
        {
          "internalType": "uint256",
          "name": "",
          "type": "uint256"
        }
      ],
      "stateMutability": "nonpayable",
      "type": "function"
    },
    {
      "inputs": [],
      "name": "renounceOwnership",
      "outputs": [],
      "stateMutability": "nonpayable",
      "type": "function"
    },
    {
      "inputs": [
        {
          "internalType": "address",
          "name": "genNFTAddr",
          "type": "address"
        },
        {
          "internalType": "uint256",
          "name": "tokenId",
          "type": "uint256"
        },
        {
          "internalType": "address",
          "name": "erc20Addr",
          "type": "address"
        },
        {
          "internalType": "uint256",
          "name": "amount",
          "type": "uint256"
        }
      ],
      "name": "setPoASecondSale",
      "outputs": [],
      "stateMutability": "nonpayable",
      "type": "function"
    },
    {
      "inputs": [
        {
          "internalType": "address",
          "name": "addr",
          "type": "address"
        },
        {
          "internalType": "bool",
          "name": "approve",
          "type": "bool"
        }
      ],
      "name": "setProxyPoASecondSale",
      "outputs": [],
      "stateMutability": "nonpayable",
      "type": "function"
    },
    {
      "inputs": [],
      "name": "symbol",
      "outputs": [
        {
          "internalType": "string",
          "name": "",
          "type": "string"
        }
      ],
      "stateMutability": "view",
      "type": "function"
    },
    {
      "inputs": [],
      "name": "totalSupply",
      "outputs": [
        {
          "internalType": "uint256",
          "name": "",
          "type": "uint256"
        }
      ],
      "stateMutability": "view",
      "type": "function"
    },
    {
      "inputs": [
        {
          "internalType": "address",
          "name": "to",
          "type": "address"
        },
        {
          "internalType": "uint256",
          "name": "amount",
          "type": "uint256"
        }
      ],
      "name": "transfer",
      "outputs": [
        {
          "internalType": "bool",
          "name": "",
          "type": "bool"
        }
      ],
      "stateMutability": "nonpayable",
      "type": "function"
    },
    {
      "inputs": [
        {
          "internalType": "address",
          "name": "from",
          "type": "address"
        },
        {
          "internalType": "address",
          "name": "to",
          "type": "address"
        },
        {
          "internalType": "uint256",
          "name": "amount",
          "type": "uint256"
        }
      ],
      "name": "transferFrom",
      "outputs": [
        {
          "internalType": "bool",
          "name": "",
          "type": "bool"
        }
      ],
      "stateMutability": "nonpayable",
      "type": "function"
    },
    {
      "inputs": [
        {
          "internalType": "address",
          "name": "newOwner",
          "type": "address"
        }
      ],
      "name": "transferOwnership",
      "outputs": [],
      "stateMutability": "nonpayable",
      "type": "function"
    }
  ],
  "bytecode": "0x608060405234801561001057600080fd5b50613f45806100206000396000f3fe608060405234801561001057600080fd5b50600436106102f15760003560e01c806379cc67901161019d578063b354675b116100e9578063d4fcd9af116100a2578063e6f814131161007c578063e6f814131461070e578063f1127ed814610718578063f2fde38b14610755578063f4a290f71461076857600080fd5b8063d4fcd9af146106e0578063d505accf146106e8578063dd62ed3e146106fb57600080fd5b8063b354675b1461064d578063b4b5ea5714610679578063b4d272831461068c578063c3678f351461069f578063c3cda520146106a9578063c4fcdc3d146106bc57600080fd5b806394527729116101565780639ab24eb0116101305780639ab24eb01461060a578063a457c2d71461061d578063a9059cbb14610630578063ab8de8a31461064357600080fd5b806394527729146105a857806395d89b41146105d45780639637e89a146105dc57600080fd5b806379cc6790146105385780637ecebe001461054b5780638da5cb5b1461055e5780638e539e8c1461056f5780638f15b414146105825780638f2839701461059557600080fd5b806342966c681161025c57806361bcaf74116102155780636fcfff45116101ef5780636fcfff45146104b457806370a08231146104dc578063715018a614610505578063782d6fe11461050d57600080fd5b806361bcaf741461046b57806361d618001461047e5780636e0c558f1461048857600080fd5b806342966c68146103fb578063448e36e61461040e57806354fac91914610418578063587cde1e146104205780635c19a95c1461044d5780635c975abb1461046057600080fd5b8063306ca55d116102ae578063306ca55d1461039d578063313ce567146103b05780633644e515146103c557806339509351146103cd5780633a46b1a8146103e057806341ca7834146103f357600080fd5b806301bc45c9146102f657806306fdde0314610327578063095ea7b31461033c57806316a5041f1461035f57806318160ddd1461037457806323b872dd1461038a575b600080fd5b6101f85461030a906001600160a01b031681565b6040516001600160a01b0390911681526020015b60405180910390f35b61032f61077c565b60405161031e9190613390565b61034f61034a3660046133d8565b61080e565b604051901515815260200161031e565b61037261036d366004613404565b610828565b005b61037c6108c5565b60405190815260200161031e565b61034f610398366004613421565b6108d5565b6103726103ab366004613462565b6108f9565b60125b60405160ff909116815260200161031e565b61037c610983565b61034f6103db3660046133d8565b61098d565b61037c6103ee3660046133d8565b6109af565b610372610a2a565b6103726104093660046134a0565b610b9b565b61037c6102015481565b6103b3610ba5565b61030a61042e366004613404565b6001600160a01b03908116600090815261019460205260409020541690565b61037261045b366004613404565b610c8d565b60655460ff1661034f565b6103726104793660046134b9565b610c97565b61037c6101fe5481565b61037c610496366004613501565b6101ff60209081526000928352604080842090915290825290205481565b6104c76104c2366004613404565b610ed0565b60405163ffffffff909116815260200161031e565b61037c6104ea366004613404565b6001600160a01b031660009081526033602052604090205490565b610372610ef3565b61052061051b3660046133d8565b610f07565b6040516001600160601b03909116815260200161031e565b6103726105463660046133d8565b610f1b565b61037c610559366004613404565b610f34565b60fb546001600160a01b031661030a565b61037c61057d3660046134a0565b610f53565b610372610590366004613641565b610fb0565b6103726105a3366004613404565b61121c565b61037c6105b6366004613501565b6101fa60209081526000928352604080842090915290825290205481565b61032f6112b1565b6105ef6105ea3660046133d8565b6112c0565b6040805193845260208401929092529082015260600161031e565b61037c610618366004613404565b611646565b61034f61062b3660046133d8565b6116cf565b61034f61063e3660046133d8565b61174a565b61037c6102025481565b61037c61065b366004613501565b6101fb60209081526000928352604080842090915290825290205481565b610520610687366004613404565b611758565b61037261069a3660046133d8565b611766565b61037c6101fc5481565b6103726106b73660046136e0565b611a50565b61034f6106ca366004613404565b6102006020526000908152604090205460ff1681565b610372611b86565b6103726106f636600461373a565b611d08565b61037c610709366004613501565b611e6c565b61037c6101fd5481565b61072b6107263660046137a8565b611e97565b60408051825163ffffffff1681526020928301516001600160e01b0316928101929092520161031e565b610372610763366004613404565b611f1c565b6101f95461030a906001600160a01b031681565b60606036805461078b906137df565b80601f01602080910402602001604051908101604052809291908181526020018280546107b7906137df565b80156108045780601f106107d957610100808354040283529160200191610804565b820191906000526020600020905b8154815290600101906020018083116107e757829003601f168201915b5050505050905090565b60003361081c818585611f92565b60019150505b92915050565b6101f8546001600160a01b03163314801561084b57506001600160a01b03811615155b6040518060400160405280600381526020016231303160e81b8152509061088e5760405162461bcd60e51b81526004016108859190613390565b60405180910390fd5b506101f9546001600160a01b038281169116146108c2576101f980546001600160a01b0319166001600160a01b0383161790555b50565b60006108d060355490565b905090565b6000336108e38582856120b6565b6108ee85858561212a565b506001949350505050565b6101f8546001600160a01b03163314801561091c57506001600160a01b03821615155b6040518060400160405280600381526020016231303160e81b815250906109565760405162461bcd60e51b81526004016108859190613390565b506001600160a01b0391909116600090815261020060205260409020805460ff1916911515919091179055565b60006108d06122e6565b60003361081c8185856109a08383611e6c565b6109aa919061382a565b611f92565b6000438210610a005760405162461bcd60e51b815260206004820152601f60248201527f4552433230566f7465733a20626c6f636b206e6f7420796574206d696e6564006044820152606401610885565b6001600160a01b038316600090815261019560205260409020610a239083612363565b9392505050565b610a3261245a565b610a3d33600a6124a0565b600a6101fd5561020154606490610a549043613842565b116040518060400160405280600381526020016234303360e81b81525090610a8f5760405162461bcd60e51b81526004016108859190613390565b506101f954604080518082018252600c81526b5445414d5f56455354494e4760a01b6020820152905163bf40fac160e01b81526001600160a01b0390921691600091839163bf40fac191610ae591600401613390565b602060405180830381865afa158015610b02573d6000803e3d6000fd5b505050506040513d601f19601f82011682018060405250810190610b269190613864565b60408051808201909152600381526234303160e81b60208201529091506001600160a01b038216610b6a5760405162461bcd60e51b81526004016108859190613390565b506101fd54610b7982826124aa565b806101fd6000828254610b8c9190613842565b90915550504361020155505050565b6108c233826124a0565b600080610bb46012600a613965565b610bc190620f4240613974565b905060006101fc5482603c610bd69190613974565b610be09190613842565b9050610bed82600a613974565b811015610bfd5760209250505090565b610c08826014613974565b811015610c185760109250505090565b610c2382601e613974565b811015610c335760089250505090565b610c3e826028613974565b811015610c4e5760049250505090565b610c59826032613974565b811015610c695760029250505090565b610c7482603c613974565b811015610c845760019250505090565b60009250505090565b6108c233826124b4565b6101f8546001600160a01b0316331480610cc15750336000908152610200602052604090205460ff165b15610eca576001600160a01b038216610eca576000849050806001600160a01b0316633cf96af16040518163ffffffff1660e01b8152600401602060405180830381865afa925050508015610d33575060408051601f3d908101601f19168201909252610d3091810190613864565b60015b610d78576040516001600160a01b03861681527fd885430e240642202c2cb56f1e0ef33710e94fff454cd0e3c6d509b01d5aca739060200160405180910390a1610ec8565b6000610d87620f4240876139a9565b6040516331a9108f60e11b81526004810182905290915082906000906001600160a01b03831690636352211e90602401602060405180830381865afa158015610dd4573d6000803e3d6000fd5b505050506040513d601f19601f82011682018060405250810190610df89190613864565b90506001600160a01b03811615610ec3576040516346ec8d2b60e11b8152600481018490526000906001600160a01b03841690638dd91a5690602401600060405180830381865afa158015610e51573d6000803e3d6000fd5b505050506040513d6000823e601f3d908101601f19168201604052610e799190810190613c1c565b6001600160a01b0380841660009081526101ff602090815260408083206101e0860151909416835292905290812080549293508992909190610ebc90849061382a565b9091555050505b505050505b505b50505050565b6001600160a01b038116600090815261019560205260408120546108229061252f565b610efb612598565b610f0560006125f2565b565b6000610a23610f1684846109af565b612644565b610f268233836120b6565b610f3082826124a0565b5050565b6001600160a01b03811660009081526101616020526040812054610822565b6000438210610fa45760405162461bcd60e51b815260206004820152601f60248201527f4552433230566f7465733a20626c6f636b206e6f7420796574206d696e6564006044820152606401610885565b61082261019683612363565b600054610100900460ff1615808015610fd05750600054600160ff909116105b80610fea5750303b158015610fea575060005460ff166001145b61104d5760405162461bcd60e51b815260206004820152602e60248201527f496e697469616c697a61626c653a20636f6e747261637420697320616c72656160448201526d191e481a5b9a5d1a585b1a5e995960921b6064820152608401610885565b6000805460ff191660011790558015611070576000805461ff0019166101001790555b6001600160a01b0383161580159061109057506001600160a01b03821615155b6040518060400160405280600381526020016203130360ec1b815250906110ca5760405162461bcd60e51b81526004016108859190613390565b506101f880546001600160a01b038086166001600160a01b0319928316179092556101f98054928516929091169190911790556000611107601290565b61111290600a613965565b611120906305f5e100613974565b9050606461112f82603c613974565b61113991906139a9565b6101fc55606461114a82601e613974565b61115491906139a9565b6101fd8190556101f854611173916001600160a01b03909116906124aa565b60006101fd55606461118682600a613974565b61119091906139a9565b6101fe8190556101f8546111af916001600160a01b03909116906124aa565b60006101fe556111bd6126ac565b6111c786866126db565b6111cf61270c565b508015610ec8576000805461ff0019169055604051600181527f7f26b83ff96e1f2b6a682f133852f6798a09c465da95921460cefb38474024989060200160405180910390a15050505050565b6101f8546001600160a01b03163314801561123f57506001600160a01b03811615155b6040518060400160405280600381526020016231303160e81b815250906112795760405162461bcd60e51b81526004016108859190613390565b506101f8546001600160a01b038281169116146108c2576101f880546001600160a01b0383166001600160a01b031990911617905550565b60606037805461078b906137df565b6040516346ec8d2b60e11b81526004810182905260009081908190859082906001600160a01b03831690638dd91a5690602401600060405180830381865afa158015611310573d6000803e3d6000fd5b505050506040513d6000823e601f3d908101601f191682016040526113389190810190613c1c565b606081015160408051808201909152600381526203430360ec1b60208201529192506001600160a01b0316156113815760405162461bcd60e51b81526004016108859190613390565b50600081604001511161139357600080fd5b6000816101e001519050806001600160a01b031663631847266040518163ffffffff1660e01b8152600401602060405180830381865afa9250505080156113f7575060408051601f3d908101601f191682019092526113f491810190613e7d565b60015b611443576101e08201516040516001600160a01b0390911681527fa2d47e5e61369d0bde38a716e62f1ea16d8124813f8ea55b832c218216e91dfc9060200160405180910390a1611630565b60008162ffffff161161145557600080fd5b600083604001516101fb6000876001600160a01b0316636352211e8d6040518263ffffffff1660e01b815260040161148f91815260200190565b602060405180830381865afa1580156114ac573d6000803e3d6000fd5b505050506040513d601f19601f820116820180604052508101906114d09190613864565b6001600160a01b039081168252602080830193909352604091820160009081206101e08a01519092168152925290205461150f9062ffffff8516613842565b6115199190613974565b9050611523610ba5565b6115309060ff1682613974565b61153b906064613974565b82611544610ba5565b60ff166101ff6000896001600160a01b0316636352211e8f6040518263ffffffff1660e01b815260040161157a91815260200190565b602060405180830381865afa158015611597573d6000803e3d6000fd5b505050506040513d601f19601f820116820180604052508101906115bb9190613864565b6001600160a01b03166001600160a01b031681526020019081526020016000206000886101e001516001600160a01b03166001600160a01b031681526020019081526020016000205461160e9190613974565b611619906064613974565b91995062ffffff169750955061163f945050505050565b60008060009550955095505050505b9250925092565b6001600160a01b0381166000908152610195602052604081205480156116bc576001600160a01b03831660009081526101956020526040902061168a600183613842565b8154811061169a5761169a613e98565b60009182526020909120015464010000000090046001600160e01b03166116bf565b60005b6001600160e01b03169392505050565b600033816116dd8286611e6c565b90508381101561173d5760405162461bcd60e51b815260206004820152602560248201527f45524332303a2064656372656173656420616c6c6f77616e63652062656c6f77604482015264207a65726f60d81b6064820152608401610885565b6108ee8286868403611f92565b60003361081c81858561212a565b6000610822610f1683611646565b61176e61245a565b60006101fc54116040518060400160405280600381526020016232303360e81b815250906117af5760405162461bcd60e51b81526004016108859190613390565b506040516346ec8d2b60e11b81526004810182905282906000906001600160a01b03831690638dd91a5690602401600060405180830381865afa1580156117fa573d6000803e3d6000fd5b505050506040513d6000823e601f3d908101601f191682016040526118229190810190613c1c565b606081015160408051808201909152600381526203430360ec1b60208201529192506001600160a01b03161561186b5760405162461bcd60e51b81526004016108859190613390565b50600081604001511161187d57600080fd5b600080600061188c87876112c0565b91945092509050600061189f828561382a565b90508015611a46576101fc548111156118b857506101fc545b60c0850180516001600160a01b0390811660009081526101fb602090815260408083206101e08b018051861685529083528184208990559451841683526101fa825280832094519093168252929092528120805483929061191a90849061382a565b90915550506040516331a9108f60e11b8152600481018890526000906101ff9082906001600160a01b038a1690636352211e90602401602060405180830381865afa15801561196d573d6000803e3d6000fd5b505050506040513d601f19601f820116820180604052508101906119919190613864565b6001600160a01b039081168252602080830193909352604091820160009081206101e08b01519092168152925290205560c08501516119d090826124aa565b806101fc60008282546119e39190613842565b909155505060c0850151604080516001600160a01b03909216825260208201839052810185905260608101849052608081018390527fab8740194374c5f9d49b0cbd25bbba5777839e75f33e3f7cd15b08a92cf6805b9060a00160405180910390a15b5050505050505050565b83421115611aa05760405162461bcd60e51b815260206004820152601d60248201527f4552433230566f7465733a207369676e617475726520657870697265640000006044820152606401610885565b604080517fe48329057bfd03d55e49b547132e39cffd9c1820ad7b9d4c5307691425d15adf60208201526001600160a01b038816918101919091526060810186905260808101859052600090611b1a90611b129060a0016040516020818303038152906040528051906020012061273b565b858585612789565b9050611b25816127b1565b8614611b735760405162461bcd60e51b815260206004820152601960248201527f4552433230566f7465733a20696e76616c6964206e6f6e6365000000000000006044820152606401610885565b611b7d81886124b4565b50505050505050565b611b8e61245a565b611b9933600a6124a0565b600a6101fe5561020254606490611bb09043613842565b116040518060400160405280600381526020016234303360e81b81525090611beb5760405162461bcd60e51b81526004016108859190613390565b506101f954604080518082018252601f81527f4d494e545f4e46545f4f50455241544f525f54524541535552455f41444452006020820152905163bf40fac160e01b81526001600160a01b0390921691600091839163bf40fac191611c5291600401613390565b602060405180830381865afa158015611c6f573d6000803e3d6000fd5b505050506040513d601f19601f82011682018060405250810190611c939190613864565b6040805180820190915260038152621a181960e91b60208201529091506001600160a01b038216611cd75760405162461bcd60e51b81526004016108859190613390565b506101fe54611ce682826124aa565b806101fe6000828254611cf99190613842565b90915550504361020255505050565b83421115611d585760405162461bcd60e51b815260206004820152601d60248201527f45524332305065726d69743a206578706972656420646561646c696e650000006044820152606401610885565b60007f6e71edae12b1b97f4d1f60370fef10105fa2faae0126114a169c64845d6126c9888888611d878c6127b1565b6040805160208101969096526001600160a01b0394851690860152929091166060840152608083015260a082015260c0810186905260e0016040516020818303038152906040528051906020012090506000611de28261273b565b90506000611df282878787612789565b9050896001600160a01b0316816001600160a01b031614611e555760405162461bcd60e51b815260206004820152601e60248201527f45524332305065726d69743a20696e76616c6964207369676e617475726500006044820152606401610885565b611e608a8a8a611f92565b50505050505050505050565b6001600160a01b03918216600090815260346020908152604080832093909416825291909152205490565b60408051808201909152600080825260208201526001600160a01b038316600090815261019560205260409020805463ffffffff8416908110611edc57611edc613e98565b60009182526020918290206040805180820190915291015463ffffffff8116825264010000000090046001600160e01b0316918101919091529392505050565b611f24612598565b6001600160a01b038116611f895760405162461bcd60e51b815260206004820152602660248201527f4f776e61626c653a206e6577206f776e657220697320746865207a65726f206160448201526564647265737360d01b6064820152608401610885565b6108c2816125f2565b6001600160a01b038316611ff45760405162461bcd60e51b8152602060048201526024808201527f45524332303a20617070726f76652066726f6d20746865207a65726f206164646044820152637265737360e01b6064820152608401610885565b6001600160a01b0382166120555760405162461bcd60e51b815260206004820152602260248201527f45524332303a20617070726f766520746f20746865207a65726f206164647265604482015261737360f01b6064820152608401610885565b6001600160a01b0383811660008181526034602090815260408083209487168084529482529182902085905590518481527f8c5be1e5ebec7d5bd14f71427d1e84f3dd0314c0f7b2291e5b200ac8c7c3b925910160405180910390a3505050565b60006120c28484611e6c565b90506000198114610eca578181101561211d5760405162461bcd60e51b815260206004820152601d60248201527f45524332303a20696e73756666696369656e7420616c6c6f77616e63650000006044820152606401610885565b610eca8484848403611f92565b6001600160a01b03831661218e5760405162461bcd60e51b815260206004820152602560248201527f45524332303a207472616e736665722066726f6d20746865207a65726f206164604482015264647265737360d81b6064820152608401610885565b6001600160a01b0382166121f05760405162461bcd60e51b815260206004820152602360248201527f45524332303a207472616e7366657220746f20746865207a65726f206164647260448201526265737360e81b6064820152608401610885565b6121fb8383836127da565b6001600160a01b038316600090815260336020526040902054818110156122735760405162461bcd60e51b815260206004820152602660248201527f45524332303a207472616e7366657220616d6f756e7420657863656564732062604482015265616c616e636560d01b6064820152608401610885565b6001600160a01b0380851660008181526033602052604080822086860390559286168082529083902080548601905591517fddf252ad1be2c89b69c2b068fc378daa952ba7f163c4a11628f55a4df523b3ef906122d39086815260200190565b60405180910390a3610eca8484846127ea565b60006108d07f8b73c3c69bb8fe3d512ecc4cf759cc79239f7b179b0ffacaa9a75d522b39400f61231661012d5490565b61012e546040805160208101859052908101839052606081018290524660808201523060a082015260009060c0016040516020818303038152906040528051906020012090509392505050565b8154600090818160058111156123bd57600061237e846127f5565b6123889085613842565b600088815260209020909150869082015463ffffffff1611156123ad578091506123bb565b6123b881600161382a565b92505b505b8082101561240a5760006123d183836128da565b600088815260209020909150869082015463ffffffff1611156123f657809150612404565b61240181600161382a565b92505b506123bd565b80156124445761242d8661241f600184613842565b600091825260209091200190565b5464010000000090046001600160e01b0316612447565b60005b6001600160e01b03169695505050505050565b60655460ff1615610f055760405162461bcd60e51b815260206004820152601060248201526f14185d5cd8589b194e881c185d5cd95960821b6044820152606401610885565b610f3082826128f5565b610f30828261290e565b6001600160a01b0382811660008181526101946020818152604080842080546033845282862054949093528787166001600160a01b03198416811790915590519190951694919391928592917f3134e8a2e6d97e929a7e54011ea5485d7d196dd5f0ba4d4ef95803e8e3fc257f9190a4610eca82848361299e565b600063ffffffff8211156125945760405162461bcd60e51b815260206004820152602660248201527f53616665436173743a2076616c756520646f65736e27742066697420696e203360448201526532206269747360d01b6064820152608401610885565b5090565b60fb546001600160a01b03163314610f055760405162461bcd60e51b815260206004820181905260248201527f4f776e61626c653a2063616c6c6572206973206e6f7420746865206f776e65726044820152606401610885565b60fb80546001600160a01b038381166001600160a01b0319831681179093556040519116919082907f8be0079c531659141344cd1fd0a4f28419497f9722a3daafe3b4186f6b6457e090600090a35050565b60006001600160601b038211156125945760405162461bcd60e51b815260206004820152602660248201527f53616665436173743a2076616c756520646f65736e27742066697420696e203960448201526536206269747360d01b6064820152608401610885565b600054610100900460ff166126d35760405162461bcd60e51b815260040161088590613eae565b610f05612add565b600054610100900460ff166127025760405162461bcd60e51b815260040161088590613eae565b610f308282612b10565b600054610100900460ff166127335760405162461bcd60e51b815260040161088590613eae565b610f05612b5e565b60006108226127486122e6565b8360405161190160f01b6020820152602281018390526042810182905260009060620160405160208183030381529060405280519060200120905092915050565b600080600061279a87878787612b8e565b915091506127a781612c52565b5095945050505050565b6001600160a01b0381166000908152610161602052604090208054600181018255905b50919050565b6127e5838383612da0565b505050565b6127e5838383612e06565b60008161280457506000919050565b6000600161281184612e39565b901c6001901b9050600181848161282a5761282a613993565b048201901c9050600181848161284257612842613993565b048201901c9050600181848161285a5761285a613993565b048201901c9050600181848161287257612872613993565b048201901c9050600181848161288a5761288a613993565b048201901c905060018184816128a2576128a2613993565b048201901c905060018184816128ba576128ba613993565b048201901c9050610a23818285816128d4576128d4613993565b04612ecd565b60006128e960028484186139a9565b610a239084841661382a565b6128ff8282612ee3565b610eca61019661302a83613036565b612918828261318a565b6001600160601b036129286108c5565b111561298f5760405162461bcd60e51b815260206004820152603060248201527f4552433230566f7465733a20746f74616c20737570706c79207269736b73206f60448201526f766572666c6f77696e6720766f74657360801b6064820152608401610885565b610eca61019661325f83613036565b816001600160a01b0316836001600160a01b0316141580156129c05750600081115b156127e5576001600160a01b03831615612a4f576001600160a01b03831660009081526101956020526040812081906129fc9061302a85613036565b91509150846001600160a01b03167fdec2bacdd2f05b59de34da9b523dff8be42e5e38e818c82fdb0bae774387a7248383604051612a44929190918252602082015260400190565b60405180910390a250505b6001600160a01b038216156127e5576001600160a01b0382166000908152610195602052604081208190612a869061325f85613036565b91509150836001600160a01b03167fdec2bacdd2f05b59de34da9b523dff8be42e5e38e818c82fdb0bae774387a7248383604051612ace929190918252602082015260400190565b60405180910390a25050505050565b600054610100900460ff16612b045760405162461bcd60e51b815260040161088590613eae565b6065805460ff19169055565b600054610100900460ff16612b375760405162461bcd60e51b815260040161088590613eae565b8151612b4a9060369060208501906132d4565b5080516127e59060379060208401906132d4565b600054610100900460ff16612b855760405162461bcd60e51b815260040161088590613eae565b610f05336125f2565b6000807f7fffffffffffffffffffffffffffffff5d576e7357a4501ddfe92f46681b20a0831115612bc55750600090506003612c49565b6040805160008082526020820180845289905260ff881692820192909252606081018690526080810185905260019060a0016020604051602081039080840390855afa158015612c19573d6000803e3d6000fd5b5050604051601f1901519150506001600160a01b038116612c4257600060019250925050612c49565b9150600090505b94509492505050565b6000816004811115612c6657612c66613ef9565b1415612c6f5750565b6001816004811115612c8357612c83613ef9565b1415612cd15760405162461bcd60e51b815260206004820152601860248201527f45434453413a20696e76616c6964207369676e617475726500000000000000006044820152606401610885565b6002816004811115612ce557612ce5613ef9565b1415612d335760405162461bcd60e51b815260206004820152601f60248201527f45434453413a20696e76616c6964207369676e6174757265206c656e677468006044820152606401610885565b6003816004811115612d4757612d47613ef9565b14156108c25760405162461bcd60e51b815260206004820152602260248201527f45434453413a20696e76616c6964207369676e6174757265202773272076616c604482015261756560f01b6064820152608401610885565b60655460ff16156127e55760405162461bcd60e51b815260206004820152602a60248201527f45524332305061757361626c653a20746f6b656e207472616e736665722077686044820152691a5b19481c185d5cd95960b21b6064820152608401610885565b6001600160a01b03838116600090815261019460205260408082205485841683529120546127e59291821691168361299e565b600080608083901c15612e4e57608092831c92015b604083901c15612e6057604092831c92015b602083901c15612e7257602092831c92015b601083901c15612e8457601092831c92015b600883901c15612e9657600892831c92015b600483901c15612ea857600492831c92015b600283901c15612eba57600292831c92015b600183901c156108225760010192915050565b6000818310612edc5781610a23565b5090919050565b6001600160a01b038216612f435760405162461bcd60e51b815260206004820152602160248201527f45524332303a206275726e2066726f6d20746865207a65726f206164647265736044820152607360f81b6064820152608401610885565b612f4f826000836127da565b6001600160a01b03821660009081526033602052604090205481811015612fc35760405162461bcd60e51b815260206004820152602260248201527f45524332303a206275726e20616d6f756e7420657863656564732062616c616e604482015261636560f01b6064820152608401610885565b6001600160a01b03831660008181526033602090815260408083208686039055603580548790039055518581529192917fddf252ad1be2c89b69c2b068fc378daa952ba7f163c4a11628f55a4df523b3ef910160405180910390a36127e5836000846127ea565b6000610a238284613842565b82546000908190818115613083576130538761241f600185613842565b60408051808201909152905463ffffffff8116825264010000000090046001600160e01b03166020820152613098565b60408051808201909152600080825260208201525b905080602001516001600160e01b031693506130b884868863ffffffff16565b92506000821180156130d05750805163ffffffff1643145b15613115576130de8361326b565b6130ed8861241f600186613842565b80546001600160e01b03929092166401000000000263ffffffff909216919091179055613180565b86604051806040016040528061312a4361252f565b63ffffffff16815260200161313e8661326b565b6001600160e01b0390811690915282546001810184556000938452602093849020835194909301519091166401000000000263ffffffff909316929092179101555b5050935093915050565b6001600160a01b0382166131e05760405162461bcd60e51b815260206004820152601f60248201527f45524332303a206d696e7420746f20746865207a65726f2061646472657373006044820152606401610885565b6131ec600083836127da565b80603560008282546131fe919061382a565b90915550506001600160a01b0382166000818152603360209081526040808320805486019055518481527fddf252ad1be2c89b69c2b068fc378daa952ba7f163c4a11628f55a4df523b3ef910160405180910390a3610f30600083836127ea565b6000610a23828461382a565b60006001600160e01b038211156125945760405162461bcd60e51b815260206004820152602760248201527f53616665436173743a2076616c756520646f65736e27742066697420696e20326044820152663234206269747360c81b6064820152608401610885565b8280546132e0906137df565b90600052602060002090601f0160209004810192826133025760008555613348565b82601f1061331b57805160ff1916838001178555613348565b82800160010185558215613348579182015b8281111561334857825182559160200191906001019061332d565b506125949291505b808211156125945760008155600101613350565b60005b8381101561337f578181015183820152602001613367565b83811115610eca5750506000910152565b60208152600082518060208401526133af816040850160208701613364565b601f01601f19169190910160400192915050565b6001600160a01b03811681146108c257600080fd5b600080604083850312156133eb57600080fd5b82356133f6816133c3565b946020939093013593505050565b60006020828403121561341657600080fd5b8135610a23816133c3565b60008060006060848603121561343657600080fd5b8335613441816133c3565b92506020840135613451816133c3565b929592945050506040919091013590565b6000806040838503121561347557600080fd5b8235613480816133c3565b91506020830135801515811461349557600080fd5b809150509250929050565b6000602082840312156134b257600080fd5b5035919050565b600080600080608085870312156134cf57600080fd5b84356134da816133c3565b93506020850135925060408501356134f1816133c3565b9396929550929360600135925050565b6000806040838503121561351457600080fd5b823561351f816133c3565b91506020830135613495816133c3565b634e487b7160e01b600052604160045260246000fd5b60405160a0810167ffffffffffffffff811182821017156135685761356861352f565b60405290565b604051610260810167ffffffffffffffff811182821017156135685761356861352f565b604051601f8201601f1916810167ffffffffffffffff811182821017156135bb576135bb61352f565b604052919050565b600067ffffffffffffffff8211156135dd576135dd61352f565b50601f01601f191660200190565b600082601f8301126135fc57600080fd5b813561360f61360a826135c3565b613592565b81815284602083860101111561362457600080fd5b816020850160208301376000918101602001919091529392505050565b6000806000806080858703121561365757600080fd5b843567ffffffffffffffff8082111561366f57600080fd5b61367b888389016135eb565b9550602087013591508082111561369157600080fd5b5061369e878288016135eb565b93505060408501356136af816133c3565b915060608501356136bf816133c3565b939692955090935050565b803560ff811681146136db57600080fd5b919050565b60008060008060008060c087890312156136f957600080fd5b8635613704816133c3565b95506020870135945060408701359350613720606088016136ca565b92506080870135915060a087013590509295509295509295565b600080600080600080600060e0888a03121561375557600080fd5b8735613760816133c3565b96506020880135613770816133c3565b9550604088013594506060880135935061378c608089016136ca565b925060a0880135915060c0880135905092959891949750929550565b600080604083850312156137bb57600080fd5b82356137c6816133c3565b9150602083013563ffffffff8116811461349557600080fd5b600181811c908216806137f357607f821691505b602082108114156127d457634e487b7160e01b600052602260045260246000fd5b634e487b7160e01b600052601160045260246000fd5b6000821982111561383d5761383d613814565b500190565b60008282101561385457613854613814565b500390565b80516136db816133c3565b60006020828403121561387657600080fd5b8151610a23816133c3565b600181815b808511156138bc5781600019048211156138a2576138a2613814565b808516156138af57918102915b93841c9390800290613886565b509250929050565b6000826138d357506001610822565b816138e057506000610822565b81600181146138f657600281146139005761391c565b6001915050610822565b60ff84111561391157613911613814565b50506001821b610822565b5060208310610133831016604e8410600b841016171561393f575081810a610822565b6139498383613881565b806000190482111561395d5761395d613814565b029392505050565b6000610a2360ff8416836138c4565b600081600019048311821515161561398e5761398e613814565b500290565b634e487b7160e01b600052601260045260246000fd5b6000826139c657634e487b7160e01b600052601260045260246000fd5b500490565b805162ffffff811681146136db57600080fd5b600082601f8301126139ef57600080fd5b81516139fd61360a826135c3565b818152846020838601011115613a1257600080fd5b613a23826020830160208701613364565b949350505050565b600060a08284031215613a3d57600080fd5b613a45613545565b9050815167ffffffffffffffff80821115613a5f57600080fd5b613a6b858386016139de565b83526020840151915080821115613a8157600080fd5b613a8d858386016139de565b60208401526040840151915080821115613aa657600080fd5b613ab2858386016139de565b60408401526060840151915080821115613acb57600080fd5b613ad7858386016139de565b60608401526080840151915080821115613af057600080fd5b50613afd848285016139de565b60808301525092915050565b600067ffffffffffffffff821115613b2357613b2361352f565b5060051b60200190565b600082601f830112613b3e57600080fd5b81516020613b4e61360a83613b09565b82815260059290921b84018101918181019086841115613b6d57600080fd5b8286015b84811015613bad57805167ffffffffffffffff811115613b915760008081fd5b613b9f8986838b01016139de565b845250918301918301613b71565b509695505050505050565b600082601f830112613bc957600080fd5b81516020613bd961360a83613b09565b82815260059290921b84018101918181019086841115613bf857600080fd5b8286015b84811015613bad578051613c0f816133c3565b8352918301918301613bfc565b600060208284031215613c2e57600080fd5b815167ffffffffffffffff80821115613c4657600080fd5b908301906102608286031215613c5b57600080fd5b613c6361356e565b613c6c836139cb565b8152613c7a602084016139cb565b602082015260408301516040820152613c9560608401613859565b6060820152608083015182811115613cac57600080fd5b613cb8878286016139de565b60808301525060a083015182811115613cd057600080fd5b613cdc878286016139de565b60a083015250613cee60c08401613859565b60c082015260e083015182811115613d0557600080fd5b613d11878286016139de565b60e0830152506101008084015183811115613d2b57600080fd5b613d37888287016139de565b8284015250506101208084015183811115613d5157600080fd5b613d5d888287016139de565b8284015250506101408084015183811115613d7757600080fd5b613d8388828701613a2b565b8284015250506101608084015183811115613d9d57600080fd5b613da988828701613b2d565b8284015250506101808084015183811115613dc357600080fd5b613dcf88828701613b2d565b8284015250506101a08084015183811115613de957600080fd5b613df5888287016139de565b8284015250506101c08084015181830152506101e0613e15818501613859565b908201526102008381015183811115613e2d57600080fd5b613e39888287016139de565b8284015250506102208084015183811115613e5357600080fd5b613e5f88828701613bb8565b91830191909152506102409283015192810192909252509392505050565b600060208284031215613e8f57600080fd5b610a23826139cb565b634e487b7160e01b600052603260045260246000fd5b6020808252602b908201527f496e697469616c697a61626c653a20636f6e7472616374206973206e6f74206960408201526a6e697469616c697a696e6760a81b606082015260800190565b634e487b7160e01b600052602160045260246000fdfea2646970667358221220ce10a552f4c61e67c9d686dd521ad4ca928aa877e1f1a0e897e5f78a76c16adf64736f6c634300080c0033",
  "linkReferences": {},
  "deployedLinkReferences": {}
}