{
  "_format": "hh-sol-artifact-1",
  "contractName": "AdvanceMarketplaceService",
  "sourceName": "contracts/services/AdvanceMarketplaceService.sol",
  "abi": [
    {
      "anonymous": false,
      "inputs": [
        {
          "indexed": false,
          "internalType": "uint8",
          "name": "version",
          "type": "uint8"
        }
      ],
      "name": "Initialized",
      "type": "event"
    },
    {
      "inputs": [],
      "name": "_admin",
      "outputs": [
        {
          "internalType": "address",
          "name": "",
          "type": "address"
        }
      ],
      "stateMutability": "view",
      "type": "function"
    },
    {
      "inputs": [
        {
          "internalType": "uint256",
          "name": "",
          "type": "uint256"
        }
      ],
      "name": "_arrayListingId",
      "outputs": [
        {
          "internalType": "bytes32",
          "name": "",
          "type": "bytes32"
        }
      ],
      "stateMutability": "view",
      "type": "function"
    },
    {
      "inputs": [
        {
          "internalType": "uint256",
          "name": "",
          "type": "uint256"
        }
      ],
      "name": "_arrayMakeOfferId",
      "outputs": [
        {
          "internalType": "bytes32",
          "name": "",
          "type": "bytes32"
        }
      ],
      "stateMutability": "view",
      "type": "function"
    },
    {
      "inputs": [
        {
          "internalType": "address",
          "name": "",
          "type": "address"
        },
        {
          "internalType": "uint256",
          "name": "",
          "type": "uint256"
        },
        {
          "internalType": "uint256",
          "name": "",
          "type": "uint256"
        }
      ],
      "name": "_listingTokenDataMapping",
      "outputs": [
        {
          "internalType": "address",
          "name": "_collectionContract",
          "type": "address"
        },
        {
          "internalType": "uint256",
          "name": "_tokenId",
          "type": "uint256"
        },
        {
          "internalType": "address",
          "name": "_seller",
          "type": "address"
        },
        {
          "internalType": "uint256",
          "name": "_price",
          "type": "uint256"
        },
        {
          "internalType": "address",
          "name": "_erc20Token",
          "type": "address"
        },
        {
          "internalType": "bool",
          "name": "_closed",
          "type": "bool"
        },
        {
          "internalType": "uint256",
          "name": "_durationTime",
          "type": "uint256"
        }
      ],
      "stateMutability": "view",
      "type": "function"
    },
    {
      "inputs": [
        {
          "internalType": "bytes32",
          "name": "",
          "type": "bytes32"
        }
      ],
      "name": "_listingTokens",
      "outputs": [
        {
          "internalType": "address",
          "name": "_collectionContract",
          "type": "address"
        },
        {
          "internalType": "uint256",
          "name": "_tokenId",
          "type": "uint256"
        },
        {
          "internalType": "address",
          "name": "_seller",
          "type": "address"
        },
        {
          "internalType": "uint256",
          "name": "_price",
          "type": "uint256"
        },
        {
          "internalType": "address",
          "name": "_erc20Token",
          "type": "address"
        },
        {
          "internalType": "bool",
          "name": "_closed",
          "type": "bool"
        },
        {
          "internalType": "uint256",
          "name": "_durationTime",
          "type": "uint256"
        }
      ],
      "stateMutability": "view",
      "type": "function"
    },
    {
      "inputs": [
        {
          "internalType": "address",
          "name": "",
          "type": "address"
        },
        {
          "internalType": "uint256",
          "name": "",
          "type": "uint256"
        },
        {
          "internalType": "uint256",
          "name": "",
          "type": "uint256"
        }
      ],
      "name": "_makeOfferDataMapping",
      "outputs": [
        {
          "internalType": "address",
          "name": "_collectionContract",
          "type": "address"
        },
        {
          "internalType": "uint256",
          "name": "_tokenId",
          "type": "uint256"
        },
        {
          "internalType": "address",
          "name": "_buyer",
          "type": "address"
        },
        {
          "internalType": "address",
          "name": "_erc20Token",
          "type": "address"
        },
        {
          "internalType": "uint256",
          "name": "_price",
          "type": "uint256"
        },
        {
          "internalType": "bool",
          "name": "_closed",
          "type": "bool"
        },
        {
          "internalType": "uint256",
          "name": "_durationTime",
          "type": "uint256"
        }
      ],
      "stateMutability": "view",
      "type": "function"
    },
    {
      "inputs": [
        {
          "internalType": "bytes32",
          "name": "",
          "type": "bytes32"
        }
      ],
      "name": "_makeOfferTokens",
      "outputs": [
        {
          "internalType": "address",
          "name": "_collectionContract",
          "type": "address"
        },
        {
          "internalType": "uint256",
          "name": "_tokenId",
          "type": "uint256"
        },
        {
          "internalType": "address",
          "name": "_buyer",
          "type": "address"
        },
        {
          "internalType": "address",
          "name": "_erc20Token",
          "type": "address"
        },
        {
          "internalType": "uint256",
          "name": "_price",
          "type": "uint256"
        },
        {
          "internalType": "bool",
          "name": "_closed",
          "type": "bool"
        },
        {
          "internalType": "uint256",
          "name": "_durationTime",
          "type": "uint256"
        }
      ],
      "stateMutability": "view",
      "type": "function"
    },
    {
      "inputs": [],
      "name": "_parameterAddr",
      "outputs": [
        {
          "internalType": "address",
          "name": "",
          "type": "address"
        }
      ],
      "stateMutability": "view",
      "type": "function"
    },
    {
      "inputs": [
        {
          "internalType": "bytes32",
          "name": "offerId",
          "type": "bytes32"
        }
      ],
      "name": "acceptMakeOffer",
      "outputs": [],
      "stateMutability": "nonpayable",
      "type": "function"
    },
    {
      "inputs": [
        {
          "internalType": "bytes32",
          "name": "_offeringId",
          "type": "bytes32"
        }
      ],
      "name": "cancelListing",
      "outputs": [],
      "stateMutability": "nonpayable",
      "type": "function"
    },
    {
      "inputs": [
        {
          "internalType": "bytes32",
          "name": "offerId",
          "type": "bytes32"
        }
      ],
      "name": "cancelMakeOffer",
      "outputs": [],
      "stateMutability": "nonpayable",
      "type": "function"
    },
    {
      "inputs": [
        {
          "internalType": "address",
          "name": "newAdm",
          "type": "address"
        }
      ],
      "name": "changeAdmin",
      "outputs": [],
      "stateMutability": "nonpayable",
      "type": "function"
    },
    {
      "inputs": [
        {
          "internalType": "address",
          "name": "newAddr",
          "type": "address"
        }
      ],
      "name": "changeParamAddr",
      "outputs": [],
      "stateMutability": "nonpayable",
      "type": "function"
    },
    {
      "inputs": [
        {
          "internalType": "address",
          "name": "admin",
          "type": "address"
        },
        {
          "internalType": "address",
          "name": "parameterControl",
          "type": "address"
        }
      ],
      "name": "initialize",
      "outputs": [],
      "stateMutability": "nonpayable",
      "type": "function"
    },
    {
      "inputs": [
        {
          "components": [
            {
              "internalType": "address",
              "name": "_collectionContract",
              "type": "address"
            },
            {
              "internalType": "uint256",
              "name": "_tokenId",
              "type": "uint256"
            },
            {
              "internalType": "address",
              "name": "_seller",
              "type": "address"
            },
            {
              "internalType": "uint256",
              "name": "_price",
              "type": "uint256"
            },
            {
              "internalType": "address",
              "name": "_erc20Token",
              "type": "address"
            },
            {
              "internalType": "bool",
              "name": "_closed",
              "type": "bool"
            },
            {
              "internalType": "uint256",
              "name": "_durationTime",
              "type": "uint256"
            }
          ],
          "internalType": "struct Marketplace.ListingTokenData",
          "name": "listingData",
          "type": "tuple"
        }
      ],
      "name": "listToken",
      "outputs": [
        {
          "internalType": "bytes32",
          "name": "",
          "type": "bytes32"
        }
      ],
      "stateMutability": "nonpayable",
      "type": "function"
    },
    {
      "inputs": [
        {
          "components": [
            {
              "internalType": "address",
              "name": "_collectionContract",
              "type": "address"
            },
            {
              "internalType": "uint256",
              "name": "_tokenId",
              "type": "uint256"
            },
            {
              "internalType": "address",
              "name": "_buyer",
              "type": "address"
            },
            {
              "internalType": "address",
              "name": "_erc20Token",
              "type": "address"
            },
            {
              "internalType": "uint256",
              "name": "_price",
              "type": "uint256"
            },
            {
              "internalType": "bool",
              "name": "_closed",
              "type": "bool"
            },
            {
              "internalType": "uint256",
              "name": "_durationTime",
              "type": "uint256"
            }
          ],
          "internalType": "struct Marketplace.MakeOfferData",
          "name": "makeOfferData",
          "type": "tuple"
        }
      ],
      "name": "makeOffer",
      "outputs": [
        {
          "internalType": "bytes32",
          "name": "",
          "type": "bytes32"
        }
      ],
      "stateMutability": "nonpayable",
      "type": "function"
    },
    {
      "inputs": [
        {
          "internalType": "bytes32",
          "name": "offeringId",
          "type": "bytes32"
        }
      ],
      "name": "purchaseToken",
      "outputs": [],
      "stateMutability": "payable",
      "type": "function"
    },
    {
      "inputs": [
        {
          "internalType": "address",
          "name": "receiver",
          "type": "address"
        },
        {
          "internalType": "address",
          "name": "erc20Addr",
          "type": "address"
        },
        {
          "internalType": "uint256",
          "name": "amount",
          "type": "uint256"
        }
      ],
      "name": "withdraw",
      "outputs": [],
      "stateMutability": "nonpayable",
      "type": "function"
    }
  ],
  "bytecode": "0x608060405234801561001057600080fd5b50612a76806100206000396000f3fe6080604052600436106101095760003560e01c80639299e55211610095578063d9caed1211610064578063d9caed12146103f6578063d9e87e6114610416578063ed4ec20114610436578063f1f2df0e14610456578063febfd6c31461047657600080fd5b80639299e552146102e1578063a3a1937c14610301578063d299a086146103b6578063d2abb69c146103d657600080fd5b80633dd72c40116100dc5780633dd72c40146101f7578063485cc9551461026157806351351e3e1461028157806372c035cf146102a15780638f283970146102c157600080fd5b806301bc45c91461010e57806314646f6d1461014b5780631fd4d2ed146101b45780633ac1089a146101e2575b600080fd5b34801561011a57600080fd5b5060345461012e906001600160a01b031681565b6040516001600160a01b0390911681526020015b60405180910390f35b34801561015757600080fd5b5061016b6101663660046124e8565b610496565b604080516001600160a01b039889168152602081019790975294871694860194909452949091166060840152608083015291151560a082015260c081019190915260e001610142565b3480156101c057600080fd5b506101d46101cf36600461251d565b61050f565b604051908152602001610142565b6101f56101f036600461251d565b610530565b005b34801561020357600080fd5b5061016b61021236600461251d565b60386020526000908152604090208054600182015460028301546003840154600485015460058601546006909601546001600160a01b03958616969495938416949290931692909160ff169087565b34801561026d57600080fd5b506101f561027c366004612536565b61054d565b34801561028d57600080fd5b506101d461029c3660046125ca565b610625565b3480156102ad57600080fd5b5060355461012e906001600160a01b031681565b3480156102cd57600080fd5b506101f56102dc366004612651565b61070d565b3480156102ed57600080fd5b506101f56102fc36600461251d565b61079f565b34801561030d57600080fd5b5061036b61031c36600461251d565b6036602052600090815260409020805460018201546002830154600384015460048501546005909501546001600160a01b03948516959394928316939192821691600160a01b900460ff169087565b604080516001600160a01b0398891681526020810197909752948716948601949094526060850192909252909316608083015291151560a082015260c081019190915260e001610142565b3480156103c257600080fd5b5061036b6103d13660046124e8565b6107a8565b3480156103e257600080fd5b506101d46103f1366004612675565b610824565b34801561040257600080fd5b506101f56104113660046126e4565b6108fd565b34801561042257600080fd5b506101f561043136600461251d565b610a57565b34801561044257600080fd5b506101d461045136600461251d565b610a68565b34801561046257600080fd5b506101f561047136600461251d565b610a78565b34801561048257600080fd5b506101f5610491366004612651565b610a81565b603b60205282600052604060002060205281600052604060002081815481106104be57600080fd5b600091825260209091206007909102018054600182015460028301546003840154600485015460058601546006909601546001600160a01b03958616995093975091841695509092169260ff169087565b6039818154811061051f57600080fd5b600091825260209091200154905081565b610538610b13565b61054181610b6d565b61054a60018055565b50565b600054610100900460ff161580801561056d5750600054600160ff909116105b806105875750303b158015610587575060005460ff166001145b6105ac5760405162461bcd60e51b81526004016105a390612725565b60405180910390fd5b6000805460ff1916600117905580156105cf576000805461ff0019166101001790555b6105d983836113e7565b8015610620576000805461ff0019169055604051600181527f7f26b83ff96e1f2b6a682f133852f6798a09c465da95921460cefb3847402498906020015b60405180910390a15b505050565b60008061063183611556565b600081815260366020908152604080832087516001600160a01b039081168552603a845282852098840151855297835290832080546001818101835591855292909320815460069093020180546001600160a01b0319908116938916939093178155838201549381019390935560028082015490840180548416918916919091179055600380820154908401556004808201805491850180549485169290991691821789555460ff600160a01b91829004161515026001600160a81b031990931617919091179095556005948501549401939093555090919050565b6034546001600160a01b03163314801561072f57506001600160a01b03811615155b6040518060400160405280600381526020016231303160e81b815250906107695760405162461bcd60e51b81526004016105a391906127a3565b506034546001600160a01b0382811691161461054a57603480546001600160a01b0383166001600160a01b031990911617905550565b61054a81611899565b603a60205282600052604060002060205281600052604060002081815481106107d057600080fd5b60009182526020909120600690910201805460018201546002830154600384015460048501546005909501546001600160a01b03948516985092965090831694509291821691600160a01b900460ff169087565b60008061083083611978565b600081815260386020908152604080832080546001600160a01b039081168552603b84528285206001808401805488529186529386208054808601825590875294909520825460079095020180549482166001600160a01b03199586161781559454928501929092556002808201549085018054918416918516919091179055600380820154908501805491909316931692909217905560048082015490830155600580820154908301805460ff191660ff90921615159190911790556006908101549101559392505050565b610905610b13565b60345460408051808201909152600381526231303160e81b6020820152906001600160a01b0316331461094b5760405162461bcd60e51b81526004016105a391906127a3565b5060006001600160a01b0383166109cc578147101561096957600080fd5b6040516001600160a01b038516908390600081818185875af1925050503d80600081146109b2576040519150601f19603f3d011682016040523d82523d6000602084013e6109b7565b606091505b505080915050806109c757600080fd5b610a4d565b60405163a9059cbb60e01b81526001600160a01b0385811660048301526024820184905284919082169063a9059cbb906044016020604051808303816000875af1158015610a1e573d6000803e3d6000fd5b505050506040513d601f19601f82011682018060405250810190610a4291906127d6565b610a4b57600080fd5b505b5061062060018055565b610a5f610b13565b61054181611bbd565b6037818154811061051f57600080fd5b61054a81612241565b6034546001600160a01b031633148015610aa357506001600160a01b03811615155b6040518060400160405280600381526020016231303160e81b81525090610add5760405162461bcd60e51b81526004016105a391906127a3565b506035546001600160a01b0382811691161461054a57603580546001600160a01b0383166001600160a01b031990911617905550565b60026001541415610b665760405162461bcd60e51b815260206004820152601f60248201527f5265656e7472616e637947756172643a207265656e7472616e742063616c6c0060448201526064016105a3565b6002600155565b6000818152603660209081526040808320815160e0808201845282546001600160a01b039081168084526001850154848801526002850154821684870152600385015460608086019190915260048601549283166080808701829052600160a01b90940460ff16151560a08088019190915260059097015460c080880191909152885195860189528a86529885018a905296840189905283018890529082018790529281018690529384019490945291829115159060008215610d5f57506080808601516040805160e08101825233808252828a01516001600160a01b0390811660208401526060808c01805185870152519084015292516370a0823160e01b8152600481019190915292939092908301918416906370a0823190602401602060405180830381865afa158015610ca8573d6000803e3d6000fd5b505050506040513d601f19601f82011682018060405250810190610ccc91906127f3565b8152604051636eb1769f60e11b81523360048201523060248201526020909101906001600160a01b0384169063dd62ed3e90604401602060405180830381865afa158015610d1e573d6000803e3d6000fd5b505050506040513d601f19601f82011682018060405250810190610d4291906127f3565b815260200187608001516001600160a01b03168152509150610dbf565b6040518060e00160405280336001600160a01b0316815260200187604001516001600160a01b031681526020018760600151815260200187606001518152602001600081526020016000815260200160006001600160a01b031681525091505b85604001516001600160a01b0316846001600160a01b0316636352211e88602001516040518263ffffffff1660e01b8152600401610dff91815260200190565b602060405180830381865afa158015610e1c573d6000803e3d6000fd5b505050506040513d601f19601f82011682018060405250810190610e40919061280c565b6001600160a01b0316146040518060400160405280600381526020016203330360ec1b81525090610e845760405162461bcd60e51b81526004016105a391906127a3565b508215610f165760408083015160a08401518251808401909352600383526233303560e81b60208401521015610ecd5760405162461bcd60e51b81526004016105a391906127a3565b506040808301516080840151825180840190935260038352620ccc0d60ea1b60208401521015610f105760405162461bcd60e51b81526004016105a391906127a3565b50610f56565b6040808301518151808301909252600382526233303360e81b6020830152341015610f545760405162461bcd60e51b81526004016105a391906127a3565b505b600087815260366020908152604091829020600401548251808401909352600383526219981960e91b91830191909152600160a01b900460ff1615610fae5760405162461bcd60e51b81526004016105a391906127a3565b5081516020870151604051632142170760e11b81526001600160a01b038716926342842e0e92610fe49230929190600401612829565b600060405180830381600087803b158015610ffe57600080fd5b505af1158015611012573d6000803e3d6000fd5b50506035546040805160808101825260008082526020808301829052828401829052606083019190915282518084018452601b81527f4d41524b4554504c4143455f42454e454649545f50455243454e540000000000918101919091529151636d12dce160e01b81526001600160a01b03909316945092508391636d12dce19161109e916004016127a3565b602060405180830381865afa1580156110bb573d6000803e3d6000fd5b505050506040513d601f19601f820116820180604052508101906110df91906127f3565b604082018190526110f3576109c460408201525b60408101511561113a57612710816040015185606001516111149190612863565b61111e9190612882565b606082018190526040850180516111369083906128a4565b9052505b84156112ab57835160608501516040516323b872dd60e01b81526001600160a01b038616926323b872dd9261117492309190600401612829565b6020604051808303816000875af1158015611193573d6000803e3d6000fd5b505050506040513d601f19601f820116820180604052508101906111b791906127d6565b6040518060400160405280600381526020016219981b60e91b815250906111f15760405162461bcd60e51b81526004016105a391906127a3565b506040808901518582015191516323b872dd60e01b81526001600160a01b038616926323b872dd9261122892309290600401612829565b6020604051808303816000875af1158015611247573d6000803e3d6000fd5b505050506040513d601f19601f8201168201806040525081019061126b91906127d6565b6040518060400160405280600381526020016219981b60e91b815250906112a55760405162461bcd60e51b81526004016105a391906127a3565b50611380565b60408051808201909152600381526233303360e81b6020820152476112e35760405162461bcd60e51b81526004016105a391906127a3565b50600088604001516001600160a01b0316856040015160405160006040518083038185875af1925050503d8060008114611339576040519150601f19603f3d011682016040523d82523d6000602084013e61133e565b606091505b50509050806040518060400160405280600381526020016219981b60e91b8152509061137d5760405162461bcd60e51b81526004016105a391906127a3565b50505b60008981526036602052604090819020600401805460ff60a01b1916600160a01b1790555189907f0d67ca70fa9836b4bb7c89f81cb4844dfaac024fee75d9b3f4a8b627ff18353c906113d4908b906128bb565b60405180910390a2505050505050505050565b600054610100900460ff16158080156114075750600054600160ff909116105b806114215750303b158015611421575060005460ff166001145b61143d5760405162461bcd60e51b81526004016105a390612725565b6000805460ff191660011790558015611460576000805461ff0019166101001790555b60408051808201909152600381526203130360ec1b60208201526001600160a01b0384166114a15760405162461bcd60e51b81526004016105a391906127a3565b5060408051808201909152600381526203130360ec1b60208201526001600160a01b0383166114e35760405162461bcd60e51b81526004016105a391906127a3565b50603480546001600160a01b038086166001600160a01b03199283161790925560358054928516929091169190911790558015610620576000805461ff0019169055604051600181527f7f26b83ff96e1f2b6a682f133852f6798a09c465da95921460cefb384740249890602001610617565b805160208201516040516331a9108f60e11b815260048101919091526000919033906001600160a01b03831690636352211e90602401602060405180830381865afa1580156115a9573d6000803e3d6000fd5b505050506040513d601f19601f820116820180604052508101906115cd919061280c565b6001600160a01b0316146040518060400160405280600381526020016203330360ec1b815250906116115760405162461bcd60e51b81526004016105a391906127a3565b5060405163e985e9c560e01b81523360048201523060248201526001600160a01b0382169063e985e9c590604401602060405180830381865afa15801561165c573d6000803e3d6000fd5b505050506040513d601f19601f8201168201806040525081019061168091906127d6565b60408051808201909152600381526233303160e81b60208201529015156001146116bd5760405162461bcd60e51b81526004016105a391906127a3565b50603380549060006116ce83612916565b919050555060006116e060335461235d565b845160208601516116f09061235d565b60405160200161170293929190612931565b604051602081830303815290604052805190602001209050836036600083815260200190815260200160002060008201518160000160006101000a8154816001600160a01b0302191690836001600160a01b031602179055506020820151816001015560408201518160020160006101000a8154816001600160a01b0302191690836001600160a01b031602179055506060820151816003015560808201518160040160006101000a8154816001600160a01b0302191690836001600160a01b0316021790555060a08201518160040160146101000a81548160ff02191690831515021790555060c08201518160050155905050336036600083815260200190815260200160002060020160006101000a8154816001600160a01b0302191690836001600160a01b031602179055506037819080600181540180825580915050600190039060005260206000200160009091909190915055807f3ccf769eda81980d79028be70b31cbf4781fd3de79e39294f5a3155cd871fe428560405161188a91906128bb565b60405180910390a29392505050565b600081815260366020908152604091829020600201548251808401909352600383526203330360ec1b918301919091526001600160a01b031633146118f15760405162461bcd60e51b81526004016105a391906127a3565b50600081815260366020526040902060040154600160a01b900460ff161561191857600080fd5b6000818152603660205260409081902060048101805460ff60a01b1916600160a01b179055905182917f70dbf33ef944f625cca697b383d06641eadb22e5f56d9f755930ea29a97953dc9161196d919061297d565b60405180910390a250565b606081015160408051808201909152600381526203130360ec1b60208201526000916001600160a01b03166119c05760405162461bcd60e51b81526004016105a391906127a3565b50815160408051808201909152600381526203130360ec1b6020820152906001600160a01b0316611a045760405162461bcd60e51b81526004016105a391906127a3565b506000826080015111611a1657600080fd5b60008260c0015111611a2757600080fd5b60608201516080830151604051636eb1769f60e11b81523360048201523060248201526001600160a01b0383169063dd62ed3e90604401602060405180830381865afa158015611a7b573d6000803e3d6000fd5b505050506040513d601f19601f82011682018060405250810190611a9f91906127f3565b1015611aaa57600080fd5b60338054906000611aba83612916565b91905055506000611acc60335461235d565b84516020860151611adc9061235d565b604051602001611aee93929190612931565b60408051808303601f19018152828252805160209182012060008181526038835292909220875181546001600160a01b03199081166001600160a01b0392831617835592890151600183015560028201805460608b01516003850180548716919094161790925560808a0151600484015560a08a015160058401805460ff191691151591909117905560c08a015160069093019290925590911633179055915081907f1101875263abf1b7c3fc9cf51275180975f69f768a3c09e1b453fa0cad6f29b19061188a9087906129e5565b600081815260386020908152604091829020825160e08101845281546001600160a01b03908116825260018301549382019390935260028201548316938101939093526003810154909116606083015260048101546080830152600581015460ff1615801560a084015260069091015460c0830152611c3b57600080fd5b805160208201516040516331a9108f60e11b815233916001600160a01b03841691636352211e91611c729160040190815260200190565b602060405180830381865afa158015611c8f573d6000803e3d6000fd5b505050506040513d601f19601f82011682018060405250810190611cb3919061280c565b6001600160a01b031614611cc657600080fd5b60405163e985e9c560e01b81523360048201523060248201526001600160a01b0382169063e985e9c590604401602060405180830381865afa158015611d10573d6000803e3d6000fd5b505050506040513d601f19601f82011682018060405250810190611d3491906127d6565b611d3d57600080fd5b606082015160808301516040808501519051636eb1769f60e11b81526001600160a01b0391821660048201523060248201529083169063dd62ed3e90604401602060405180830381865afa158015611d99573d6000803e3d6000fd5b505050506040513d601f19601f82011682018060405250810190611dbd91906127f3565b1015611dc857600080fd5b6040805160e08101825284820180516001600160a01b0390811683523360208401526080808801805185870152516060850152915193516370a0823160e01b8152938116600485015260009391830191908516906370a0823190602401602060405180830381865afa158015611e42573d6000803e3d6000fd5b505050506040513d601f19601f82011682018060405250810190611e6691906127f3565b81526040808701519051636eb1769f60e11b81526001600160a01b0391821660048201523060248201526020909201919085169063dd62ed3e90604401602060405180830381865afa158015611ec0573d6000803e3d6000fd5b505050506040513d601f19601f82011682018060405250810190611ee491906127f3565b81526060808701516001600160a01b039081166020938401526035546040805160808101825260008082528187018190528183018190529481019490945280518082018252601b81527f4d41524b4554504c4143455f42454e454649545f50455243454e5400000000009581019590955251636d12dce160e01b8152949550169290918391636d12dce191611f7b916004016127a3565b602060405180830381865afa158015611f98573d6000803e3d6000fd5b505050506040513d601f19601f82011682018060405250810190611fbc91906127f3565b60408201819052611fd0576109c460408201525b6040810151156120175761271081604001518460600151611ff19190612863565b611ffb9190612882565b606082018190526040840180516120139083906128a4565b9052505b825160608401516040516323b872dd60e01b81526001600160a01b038716926323b872dd9261204b92309190600401612829565b6020604051808303816000875af115801561206a573d6000803e3d6000fd5b505050506040513d601f19601f8201168201806040525081019061208e91906127d6565b6040518060400160405280600381526020016219981b60e91b815250906120c85760405162461bcd60e51b81526004016105a391906127a3565b5060408084015190516323b872dd60e01b81526001600160a01b038616916323b872dd916120fd913091339190600401612829565b6020604051808303816000875af115801561211c573d6000803e3d6000fd5b505050506040513d601f19601f8201168201806040525081019061214091906127d6565b6040518060400160405280600381526020016219981b60e91b8152509061217a5760405162461bcd60e51b81526004016105a391906127a3565b5082516020870151604051632142170760e11b81526001600160a01b038816926342842e0e926121b09230929190600401612829565b600060405180830381600087803b1580156121ca57600080fd5b505af11580156121de573d6000803e3d6000fd5b50505060008881526038602052604090819020600501805460ff19166001179055518891507f18f1ceedf8920f811ccf39358c2a2164a50e62c93ad4dafc82e6906cf81dc0a4906122309089906129e5565b60405180910390a250505050505050565b600081815260386020908152604091829020600201548251808401909352600383526203130360ec1b918301919091526001600160a01b031633146122995760405162461bcd60e51b81526004016105a391906127a3565b5060008181526038602052604090206005015460ff16156122b957600080fd5b6000818152603860205260409081902060058101805460ff19166001179055905182917fd1e7e193455ba4241e816f1b6fa787b59dad27c1279c69179f6cb4b4387bf5439161196d919081546001600160a01b03908116825260018301546020830152600283015481166040830152600383015416606082015260048201546080820152600582015460ff16151560a082015260069091015460c082015260e00190565b6060600061236a836123fa565b600101905060008167ffffffffffffffff81111561238a5761238a61256f565b6040519080825280601f01601f1916602001820160405280156123b4576020820181803683370190505b5090508181016020015b600019016f181899199a1a9b1b9c1cb0b131b232b360811b600a86061a8153600a85049450846123ed576123f2565b6123be565b509392505050565b60008072184f03e93ff9f4daa797ed6e38ed64bf6a1f0160401b83106124395772184f03e93ff9f4daa797ed6e38ed64bf6a1f0160401b830492506040015b6d04ee2d6d415b85acef81000000008310612465576d04ee2d6d415b85acef8100000000830492506020015b662386f26fc10000831061248357662386f26fc10000830492506010015b6305f5e100831061249b576305f5e100830492506008015b61271083106124af57612710830492506004015b606483106124c1576064830492506002015b600a83106124cd576001015b92915050565b6001600160a01b038116811461054a57600080fd5b6000806000606084860312156124fd57600080fd5b8335612508816124d3565b95602085013595506040909401359392505050565b60006020828403121561252f57600080fd5b5035919050565b6000806040838503121561254957600080fd5b8235612554816124d3565b91506020830135612564816124d3565b809150509250929050565b634e487b7160e01b600052604160045260246000fd5b60405160e0810167ffffffffffffffff811182821017156125b657634e487b7160e01b600052604160045260246000fd5b60405290565b801515811461054a57600080fd5b600060e082840312156125dc57600080fd5b6125e4612585565b82356125ef816124d3565b8152602083810135908201526040830135612609816124d3565b6040820152606083810135908201526080830135612626816124d3565b608082015260a0830135612639816125bc565b60a082015260c0928301359281019290925250919050565b60006020828403121561266357600080fd5b813561266e816124d3565b9392505050565b600060e0828403121561268757600080fd5b61268f612585565b823561269a816124d3565b81526020838101359082015260408301356126b4816124d3565b604082015260608301356126c7816124d3565b60608201526080838101359082015260a0830135612639816125bc565b6000806000606084860312156126f957600080fd5b8335612704816124d3565b92506020840135612714816124d3565b929592945050506040919091013590565b6020808252602e908201527f496e697469616c697a61626c653a20636f6e747261637420697320616c72656160408201526d191e481a5b9a5d1a585b1a5e995960921b606082015260800190565b60005b8381101561278e578181015183820152602001612776565b8381111561279d576000848401525b50505050565b60208152600082518060208401526127c2816040850160208701612773565b601f01601f19169190910160400192915050565b6000602082840312156127e857600080fd5b815161266e816125bc565b60006020828403121561280557600080fd5b5051919050565b60006020828403121561281e57600080fd5b815161266e816124d3565b6001600160a01b039384168152919092166020820152604081019190915260600190565b634e487b7160e01b600052601160045260246000fd5b600081600019048311821515161561287d5761287d61284d565b500290565b60008261289f57634e487b7160e01b600052601260045260246000fd5b500490565b6000828210156128b6576128b661284d565b500390565b81516001600160a01b03908116825260208084015190830152604080840151821690830152606080840151908301526080808401519091169082015260a08281015115159082015260c0918201519181019190915260e00190565b600060001982141561292a5761292a61284d565b5060010190565b60008451612943818460208901612773565b606085901b6bffffffffffffffffffffffff19169083019081528351612970816014840160208801612773565b0160140195945050505050565b81546001600160a01b03908116825260018301546020830152600283015481166040830152600383015460608301526004830154808216608084015260e0830191906129d360a0850160ff8360a01c1615159052565b5050600583015460c083015292915050565b81516001600160a01b03908116825260208084015190830152604080840151821690830152606080840151909116908201526080808301519082015260a08281015115159082015260c0918201519181019190915260e0019056fea2646970667358221220d9e0781bdb5acf4bc1e4ae46ee000fadd4546dbab87cfbc6f7580a2d78b394cf64736f6c634300080c0033",
  "linkReferences": {},
  "deployedLinkReferences": {}
}