{
  "_format": "hh-sol-artifact-1",
  "contractName": "AdvanceMarketplaceService",
  "sourceName": "contracts/services/AdvanceMarketplaceService.sol",
  "abi": [
    {
      "anonymous": false,
      "inputs": [
        {
          "indexed": false,
          "internalType": "uint8",
          "name": "version",
          "type": "uint8"
        }
      ],
      "name": "Initialized",
      "type": "event"
    },
    {
      "inputs": [],
      "name": "_admin",
      "outputs": [
        {
          "internalType": "address",
          "name": "",
          "type": "address"
        }
      ],
      "stateMutability": "view",
      "type": "function"
    },
    {
      "inputs": [
        {
          "internalType": "address",
          "name": "",
          "type": "address"
        }
      ],
      "name": "_allowableERC20MakeListToken",
      "outputs": [
        {
          "internalType": "bool",
          "name": "",
          "type": "bool"
        }
      ],
      "stateMutability": "view",
      "type": "function"
    },
    {
      "inputs": [
        {
          "internalType": "address",
          "name": "",
          "type": "address"
        }
      ],
      "name": "_allowableERC20MakeOffer",
      "outputs": [
        {
          "internalType": "bool",
          "name": "",
          "type": "bool"
        }
      ],
      "stateMutability": "view",
      "type": "function"
    },
    {
      "inputs": [
        {
          "internalType": "uint256",
          "name": "",
          "type": "uint256"
        }
      ],
      "name": "_arrayListingId",
      "outputs": [
        {
          "internalType": "bytes32",
          "name": "",
          "type": "bytes32"
        }
      ],
      "stateMutability": "view",
      "type": "function"
    },
    {
      "inputs": [
        {
          "internalType": "uint256",
          "name": "",
          "type": "uint256"
        }
      ],
      "name": "_arrayMakeOfferId",
      "outputs": [
        {
          "internalType": "bytes32",
          "name": "",
          "type": "bytes32"
        }
      ],
      "stateMutability": "view",
      "type": "function"
    },
    {
      "inputs": [
        {
          "internalType": "address",
          "name": "",
          "type": "address"
        },
        {
          "internalType": "uint256",
          "name": "",
          "type": "uint256"
        },
        {
          "internalType": "uint256",
          "name": "",
          "type": "uint256"
        }
      ],
      "name": "_listingTokenDataMapping",
      "outputs": [
        {
          "internalType": "address",
          "name": "_collectionContract",
          "type": "address"
        },
        {
          "internalType": "uint256",
          "name": "_tokenId",
          "type": "uint256"
        },
        {
          "internalType": "address",
          "name": "_seller",
          "type": "address"
        },
        {
          "internalType": "address",
          "name": "_erc20Token",
          "type": "address"
        },
        {
          "internalType": "uint256",
          "name": "_price",
          "type": "uint256"
        },
        {
          "internalType": "bool",
          "name": "_closed",
          "type": "bool"
        },
        {
          "internalType": "uint256",
          "name": "_durationTime",
          "type": "uint256"
        }
      ],
      "stateMutability": "view",
      "type": "function"
    },
    {
      "inputs": [
        {
          "internalType": "address",
          "name": "",
          "type": "address"
        },
        {
          "internalType": "uint256",
          "name": "",
          "type": "uint256"
        }
      ],
      "name": "_listingTokenIds",
      "outputs": [
        {
          "internalType": "uint256",
          "name": "",
          "type": "uint256"
        }
      ],
      "stateMutability": "view",
      "type": "function"
    },
    {
      "inputs": [
        {
          "internalType": "bytes32",
          "name": "",
          "type": "bytes32"
        }
      ],
      "name": "_listingTokens",
      "outputs": [
        {
          "internalType": "address",
          "name": "_collectionContract",
          "type": "address"
        },
        {
          "internalType": "uint256",
          "name": "_tokenId",
          "type": "uint256"
        },
        {
          "internalType": "address",
          "name": "_seller",
          "type": "address"
        },
        {
          "internalType": "address",
          "name": "_erc20Token",
          "type": "address"
        },
        {
          "internalType": "uint256",
          "name": "_price",
          "type": "uint256"
        },
        {
          "internalType": "bool",
          "name": "_closed",
          "type": "bool"
        },
        {
          "internalType": "uint256",
          "name": "_durationTime",
          "type": "uint256"
        }
      ],
      "stateMutability": "view",
      "type": "function"
    },
    {
      "inputs": [
        {
          "internalType": "address",
          "name": "",
          "type": "address"
        },
        {
          "internalType": "uint256",
          "name": "",
          "type": "uint256"
        },
        {
          "internalType": "uint256",
          "name": "",
          "type": "uint256"
        }
      ],
      "name": "_makeOfferDataMapping",
      "outputs": [
        {
          "internalType": "address",
          "name": "_collectionContract",
          "type": "address"
        },
        {
          "internalType": "uint256",
          "name": "_tokenId",
          "type": "uint256"
        },
        {
          "internalType": "address",
          "name": "_buyer",
          "type": "address"
        },
        {
          "internalType": "address",
          "name": "_erc20Token",
          "type": "address"
        },
        {
          "internalType": "uint256",
          "name": "_price",
          "type": "uint256"
        },
        {
          "internalType": "bool",
          "name": "_closed",
          "type": "bool"
        },
        {
          "internalType": "uint256",
          "name": "_durationTime",
          "type": "uint256"
        }
      ],
      "stateMutability": "view",
      "type": "function"
    },
    {
      "inputs": [
        {
          "internalType": "address",
          "name": "",
          "type": "address"
        },
        {
          "internalType": "uint256",
          "name": "",
          "type": "uint256"
        }
      ],
      "name": "_makeOfferTokenIds",
      "outputs": [
        {
          "internalType": "uint256",
          "name": "",
          "type": "uint256"
        }
      ],
      "stateMutability": "view",
      "type": "function"
    },
    {
      "inputs": [
        {
          "internalType": "bytes32",
          "name": "",
          "type": "bytes32"
        }
      ],
      "name": "_makeOfferTokens",
      "outputs": [
        {
          "internalType": "address",
          "name": "_collectionContract",
          "type": "address"
        },
        {
          "internalType": "uint256",
          "name": "_tokenId",
          "type": "uint256"
        },
        {
          "internalType": "address",
          "name": "_buyer",
          "type": "address"
        },
        {
          "internalType": "address",
          "name": "_erc20Token",
          "type": "address"
        },
        {
          "internalType": "uint256",
          "name": "_price",
          "type": "uint256"
        },
        {
          "internalType": "bool",
          "name": "_closed",
          "type": "bool"
        },
        {
          "internalType": "uint256",
          "name": "_durationTime",
          "type": "uint256"
        }
      ],
      "stateMutability": "view",
      "type": "function"
    },
    {
      "inputs": [],
      "name": "_parameterAddr",
      "outputs": [
        {
          "internalType": "address",
          "name": "",
          "type": "address"
        }
      ],
      "stateMutability": "view",
      "type": "function"
    },
    {
      "inputs": [
        {
          "internalType": "bytes32",
          "name": "offerId",
          "type": "bytes32"
        }
      ],
      "name": "acceptMakeOffer",
      "outputs": [],
      "stateMutability": "nonpayable",
      "type": "function"
    },
    {
      "inputs": [
        {
          "internalType": "bytes32",
          "name": "_offeringId",
          "type": "bytes32"
        }
      ],
      "name": "cancelListing",
      "outputs": [],
      "stateMutability": "nonpayable",
      "type": "function"
    },
    {
      "inputs": [
        {
          "internalType": "bytes32",
          "name": "offerId",
          "type": "bytes32"
        }
      ],
      "name": "cancelMakeOffer",
      "outputs": [],
      "stateMutability": "nonpayable",
      "type": "function"
    },
    {
      "inputs": [
        {
          "internalType": "address",
          "name": "newAdm",
          "type": "address"
        }
      ],
      "name": "changeAdmin",
      "outputs": [],
      "stateMutability": "nonpayable",
      "type": "function"
    },
    {
      "inputs": [
        {
          "internalType": "address",
          "name": "newAddr",
          "type": "address"
        }
      ],
      "name": "changeParamAddr",
      "outputs": [],
      "stateMutability": "nonpayable",
      "type": "function"
    },
    {
      "inputs": [
        {
          "internalType": "address",
          "name": "admin",
          "type": "address"
        },
        {
          "internalType": "address",
          "name": "parameterControl",
          "type": "address"
        }
      ],
      "name": "initialize",
      "outputs": [],
      "stateMutability": "nonpayable",
      "type": "function"
    },
    {
      "inputs": [
        {
          "components": [
            {
              "internalType": "address",
              "name": "_collectionContract",
              "type": "address"
            },
            {
              "internalType": "uint256",
              "name": "_tokenId",
              "type": "uint256"
            },
            {
              "internalType": "address",
              "name": "_seller",
              "type": "address"
            },
            {
              "internalType": "address",
              "name": "_erc20Token",
              "type": "address"
            },
            {
              "internalType": "uint256",
              "name": "_price",
              "type": "uint256"
            },
            {
              "internalType": "bool",
              "name": "_closed",
              "type": "bool"
            },
            {
              "internalType": "uint256",
              "name": "_durationTime",
              "type": "uint256"
            }
          ],
          "internalType": "struct Marketplace.ListingTokenData",
          "name": "listingData",
          "type": "tuple"
        }
      ],
      "name": "listToken",
      "outputs": [
        {
          "internalType": "bytes32",
          "name": "",
          "type": "bytes32"
        }
      ],
      "stateMutability": "nonpayable",
      "type": "function"
    },
    {
      "inputs": [
        {
          "components": [
            {
              "internalType": "address",
              "name": "_collectionContract",
              "type": "address"
            },
            {
              "internalType": "uint256",
              "name": "_tokenId",
              "type": "uint256"
            },
            {
              "internalType": "address",
              "name": "_buyer",
              "type": "address"
            },
            {
              "internalType": "address",
              "name": "_erc20Token",
              "type": "address"
            },
            {
              "internalType": "uint256",
              "name": "_price",
              "type": "uint256"
            },
            {
              "internalType": "bool",
              "name": "_closed",
              "type": "bool"
            },
            {
              "internalType": "uint256",
              "name": "_durationTime",
              "type": "uint256"
            }
          ],
          "internalType": "struct Marketplace.MakeOfferData",
          "name": "makeOfferData",
          "type": "tuple"
        }
      ],
      "name": "makeOffer",
      "outputs": [
        {
          "internalType": "bytes32",
          "name": "",
          "type": "bytes32"
        }
      ],
      "stateMutability": "nonpayable",
      "type": "function"
    },
    {
      "inputs": [
        {
          "internalType": "bytes32",
          "name": "offeringId",
          "type": "bytes32"
        }
      ],
      "name": "purchaseToken",
      "outputs": [],
      "stateMutability": "payable",
      "type": "function"
    },
    {
      "inputs": [
        {
          "internalType": "address",
          "name": "erc20",
          "type": "address"
        },
        {
          "internalType": "bool",
          "name": "allow",
          "type": "bool"
        }
      ],
      "name": "setApproveERC20ListToken",
      "outputs": [],
      "stateMutability": "nonpayable",
      "type": "function"
    },
    {
      "inputs": [
        {
          "internalType": "address",
          "name": "erc20",
          "type": "address"
        },
        {
          "internalType": "bool",
          "name": "allow",
          "type": "bool"
        }
      ],
      "name": "setApproveERC20MakeOffer",
      "outputs": [],
      "stateMutability": "nonpayable",
      "type": "function"
    },
    {
      "inputs": [
        {
          "internalType": "address",
          "name": "receiver",
          "type": "address"
        },
        {
          "internalType": "address",
          "name": "erc20Addr",
          "type": "address"
        },
        {
          "internalType": "uint256",
          "name": "amount",
          "type": "uint256"
        }
      ],
      "name": "withdraw",
      "outputs": [],
      "stateMutability": "nonpayable",
      "type": "function"
    }
  ],
  "bytecode": "0x608060405234801561001057600080fd5b50612db8806100206000396000f3fe60806040526004361061014b5760003560e01c8063a3a1937c116100b6578063e5026b8b1161006f578063e5026b8b146104bd578063eab651d8146104dd578063ed4ec201146104fd578063f1f2df0e1461051d578063f40cb02d1461053d578063febfd6c31461055d57600080fd5b8063a3a1937c146103a3578063bd7ec0c21461040d578063d299a0861461043d578063d2abb69c1461045d578063d9caed121461047d578063d9e87e611461049d57600080fd5b80635b06e64a116101085780635b06e64a146102c357806372c035cf146103035780638f283970146103235780639142e6a8146103435780639299e55214610363578063a25d6dce1461038357600080fd5b806301bc45c91461015057806314646f6d1461018d5780631fd4d2ed146101f65780633ac1089a146102245780633dd72c4014610239578063485cc955146102a3575b600080fd5b34801561015c57600080fd5b50603454610170906001600160a01b031681565b6040516001600160a01b0390911681526020015b60405180910390f35b34801561019957600080fd5b506101ad6101a8366004612891565b61057d565b604080516001600160a01b039889168152602081019790975294871694860194909452949091166060840152608083015291151560a082015260c081019190915260e001610184565b34801561020257600080fd5b506102166102113660046128c6565b6105f6565b604051908152602001610184565b6102376102323660046128c6565b610617565b005b34801561024557600080fd5b506101ad6102543660046128c6565b60386020526000908152604090208054600182015460028301546003840154600485015460058601546006909601546001600160a01b03958616969495938416949290931692909160ff169087565b3480156102af57600080fd5b506102376102be3660046128df565b610634565b3480156102cf57600080fd5b506102f36102de366004612918565b603f6020526000908152604090205460ff1681565b6040519015158152602001610184565b34801561030f57600080fd5b50603554610170906001600160a01b031681565b34801561032f57600080fd5b5061023761033e366004612918565b61070c565b34801561034f57600080fd5b5061023761035e366004612955565b61079e565b34801561036f57600080fd5b5061023761037e3660046128c6565b610810565b34801561038f57600080fd5b5061021661039e366004612983565b610819565b3480156103af57600080fd5b506101ad6103be3660046128c6565b60366020526000908152604090208054600182015460028301546003840154600485015460058601546006909601546001600160a01b03958616969495938416949290931692909160ff169087565b34801561041957600080fd5b506102f3610428366004612918565b603e6020526000908152604090205460ff1681565b34801561044957600080fd5b506101ad610458366004612891565b61084a565b34801561046957600080fd5b50610216610478366004612a71565b610872565b34801561048957600080fd5b50610237610498366004612a8d565b6109c1565b3480156104a957600080fd5b506102376104b83660046128c6565b610b1b565b3480156104c957600080fd5b506102376104d8366004612955565b610b2c565b3480156104e957600080fd5b506102166104f8366004612983565b610b9e565b34801561050957600080fd5b506102166105183660046128c6565b610bba565b34801561052957600080fd5b506102376105383660046128c6565b610bca565b34801561054957600080fd5b50610216610558366004612a71565b610bd3565b34801561056957600080fd5b50610237610578366004612918565b610d22565b603c60205282600052604060002060205281600052604060002081815481106105a557600080fd5b600091825260209091206007909102018054600182015460028301546003840154600485015460058601546006909601546001600160a01b03958616995093975091841695509092169260ff169087565b6039818154811061060657600080fd5b600091825260209091200154905081565b61061f610db4565b61062881610e0e565b61063160018055565b50565b600054610100900460ff16158080156106545750600054600160ff909116105b8061066e5750303b15801561066e575060005460ff166001145b6106935760405162461bcd60e51b815260040161068a90612ace565b60405180910390fd5b6000805460ff1916600117905580156106b6576000805461ff0019166101001790555b6106c083836116f5565b8015610707576000805461ff0019169055604051600181527f7f26b83ff96e1f2b6a682f133852f6798a09c465da95921460cefb3847402498906020015b60405180910390a15b505050565b6034546001600160a01b03163314801561072e57506001600160a01b03811615155b6040518060400160405280600381526020016231303160e81b815250906107685760405162461bcd60e51b815260040161068a9190612b4c565b506034546001600160a01b0382811691161461063157603480546001600160a01b0383166001600160a01b031990911617905550565b60345460408051808201909152600381526231303160e81b6020820152906001600160a01b031633146107e45760405162461bcd60e51b815260040161068a9190612b4c565b506001600160a01b03919091166000908152603e60205260409020805460ff1916911515919091179055565b61063181611864565b603d602052816000526040600020818154811061083557600080fd5b90600052602060002001600091509150505481565b603a60205282600052604060002060205281600052604060002081815481106105a557600080fd5b60608101516001600160a01b03166000908152603e60209081526040808320548151808301909252600382526233303760e81b928201929092529060ff166108cd5760405162461bcd60e51b815260040161068a9190612b4c565b5060006108d983611936565b600081815260386020908152604080832080546001600160a01b039081168552603c845282852060018084018054885291865284872080548083018255908852868820855460079092020180549185166001600160a01b031992831617815583548184015560028087015490820180549187169184169190911790556003808701549082018054918716919093161790915560048086015490820155600580860154908201805460ff191660ff909216151591909117905560068086015491015592549091168552603d84529184209154825491820183559184529190922001559392505050565b6109c9610db4565b60345460408051808201909152600381526231303160e81b6020820152906001600160a01b03163314610a0f5760405162461bcd60e51b815260040161068a9190612b4c565b5060006001600160a01b038316610a905781471015610a2d57600080fd5b6040516001600160a01b038516908390600081818185875af1925050503d8060008114610a76576040519150601f19603f3d011682016040523d82523d6000602084013e610a7b565b606091505b50508091505080610a8b57600080fd5b610b11565b60405163a9059cbb60e01b81526001600160a01b0385811660048301526024820184905284919082169063a9059cbb906044016020604051808303816000875af1158015610ae2573d6000803e3d6000fd5b505050506040513d601f19601f82011682018060405250810190610b069190612b7f565b610b0f57600080fd5b505b5061070760018055565b610b23610db4565b61062881611c21565b60345460408051808201909152600381526231303160e81b6020820152906001600160a01b03163314610b725760405162461bcd60e51b815260040161068a9190612b4c565b506001600160a01b03919091166000908152603f60205260409020805460ff1916911515919091179055565b603b602052816000526040600020818154811061083557600080fd5b6037818154811061060657600080fd5b610631816122fb565b60608101516001600160a01b03166000908152603f60209081526040808320548151808301909252600382526233303760e81b928201929092529060ff16610c2e5760405162461bcd60e51b815260040161068a9190612b4c565b506000610c3a836123c2565b600081815260366020908152604080832080546001600160a01b039081168552603a845282852060018084018054885291865284872080548083018255908852868820855460079092020180549185166001600160a01b031992831617815583548184015560028087015490820180549187169184169190911790556003808701549082018054918716919093161790915560048086015490820155600580860154908201805460ff191660ff909216151591909117905560068086015491015592549091168552603b84529184209154825491820183559184529190922001559392505050565b6034546001600160a01b031633148015610d4457506001600160a01b03811615155b6040518060400160405280600381526020016231303160e81b81525090610d7e5760405162461bcd60e51b815260040161068a9190612b4c565b506035546001600160a01b0382811691161461063157603580546001600160a01b0383166001600160a01b031990911617905550565b60026001541415610e075760405162461bcd60e51b815260206004820152601f60248201527f5265656e7472616e637947756172643a207265656e7472616e742063616c6c00604482015260640161068a565b6002600155565b600081815260366020908152604091829020825160e08101845281546001600160a01b03908116825260018301549382019390935260028201548316938101939093526003810154909116606083015260048101546080830152600581015460ff1615801560a084015260069091015460c083015280610e9157508060c0015142105b6040518060400160405280600381526020016219981960e91b81525090610ecb5760405162461bcd60e51b815260040161068a9190612b4c565b5080516060808301516040805160e0810182526000808252602082018190529181018290529283018190526080830181905260a0830181905260c083015282916001600160a01b039091161515906000821561107857856060015190506040518060e00160405280336001600160a01b0316815260200187604001516001600160a01b031681526020018760800151815260200187608001518152602001826001600160a01b03166370a08231336040518263ffffffff1660e01b8152600401610fa491906001600160a01b0391909116815260200190565b602060405180830381865afa158015610fc1573d6000803e3d6000fd5b505050506040513d601f19601f82011682018060405250810190610fe59190612b9c565b8152604051636eb1769f60e11b81523360048201523060248201526020909101906001600160a01b0384169063dd62ed3e90604401602060405180830381865afa158015611037573d6000803e3d6000fd5b505050506040513d601f19601f8201168201806040525081019061105b9190612b9c565b815260200187606001516001600160a01b031681525091506110d8565b6040518060e00160405280336001600160a01b0316815260200187604001516001600160a01b031681526020018760800151815260200187608001518152602001600081526020016000815260200160006001600160a01b031681525091505b85604001516001600160a01b0316846001600160a01b0316636352211e88602001516040518263ffffffff1660e01b815260040161111891815260200190565b602060405180830381865afa158015611135573d6000803e3d6000fd5b505050506040513d601f19601f820116820180604052508101906111599190612bb5565b6001600160a01b0316146040518060400160405280600381526020016203330360ec1b8152509061119d5760405162461bcd60e51b815260040161068a9190612b4c565b50821561122f5760408083015160a08401518251808401909352600383526233303560e81b602084015210156111e65760405162461bcd60e51b815260040161068a9190612b4c565b506040808301516080840151825180840190935260038352620ccc0d60ea1b602084015210156112295760405162461bcd60e51b815260040161068a9190612b4c565b5061126f565b6040808301518151808301909252600382526233303360e81b602083015234101561126d5760405162461bcd60e51b815260040161068a9190612b4c565b505b600087815260366020908152604091829020600501548251808401909352600383526219981960e91b9183019190915260ff16156112c05760405162461bcd60e51b815260040161068a9190612b4c565b50602080830151835191880151604051632142170760e11b81526001600160a01b038816936342842e0e936112f9939092600401612bd2565b600060405180830381600087803b15801561131357600080fd5b505af1158015611327573d6000803e3d6000fd5b50506035546040805160808101825260008082526020808301829052828401829052606083019190915282518084018452601b81527f4d41524b4554504c4143455f42454e454649545f50455243454e540000000000918101919091529151636d12dce160e01b81526001600160a01b03909316945092508391636d12dce1916113b391600401612b4c565b602060405180830381865afa1580156113d0573d6000803e3d6000fd5b505050506040513d601f19601f820116820180604052508101906113f49190612b9c565b604082018190526114075760fa60408201525b60408101511561144e57612710816040015185606001516114289190612c0c565b6114329190612c2b565b6060820181905260408501805161144a908390612c4d565b9052505b84156115bf57835160608501516040516323b872dd60e01b81526001600160a01b038616926323b872dd9261148892309190600401612bd2565b6020604051808303816000875af11580156114a7573d6000803e3d6000fd5b505050506040513d601f19601f820116820180604052508101906114cb9190612b7f565b6040518060400160405280600381526020016219981b60e91b815250906115055760405162461bcd60e51b815260040161068a9190612b4c565b506040808901518582015191516323b872dd60e01b81526001600160a01b038616926323b872dd9261153c92309290600401612bd2565b6020604051808303816000875af115801561155b573d6000803e3d6000fd5b505050506040513d601f19601f8201168201806040525081019061157f9190612b7f565b6040518060400160405280600381526020016219981b60e91b815250906115b95760405162461bcd60e51b815260040161068a9190612b4c565b50611694565b60408051808201909152600381526233303360e81b6020820152476115f75760405162461bcd60e51b815260040161068a9190612b4c565b50600088604001516001600160a01b0316856040015160405160006040518083038185875af1925050503d806000811461164d576040519150601f19603f3d011682016040523d82523d6000602084013e611652565b606091505b50509050806040518060400160405280600381526020016219981b60e91b815250906116915760405162461bcd60e51b815260040161068a9190612b4c565b50505b60008981526036602052604090819020600501805460ff191660011790555189907fe06095b27616fe3bacd030b307fd111d7774afa5176a7cfd0863f3e8e8904b71906116e2908b90612c64565b60405180910390a2505050505050505050565b600054610100900460ff16158080156117155750600054600160ff909116105b8061172f5750303b15801561172f575060005460ff166001145b61174b5760405162461bcd60e51b815260040161068a90612ace565b6000805460ff19166001179055801561176e576000805461ff0019166101001790555b60408051808201909152600381526203130360ec1b60208201526001600160a01b0384166117af5760405162461bcd60e51b815260040161068a9190612b4c565b5060408051808201909152600381526203130360ec1b60208201526001600160a01b0383166117f15760405162461bcd60e51b815260040161068a9190612b4c565b50603480546001600160a01b038086166001600160a01b03199283161790925560358054928516929091169190911790558015610707576000805461ff0019169055604051600181527f7f26b83ff96e1f2b6a682f133852f6798a09c465da95921460cefb3847402498906020016106fe565b600081815260366020908152604091829020600201548251808401909352600383526203330360ec1b918301919091526001600160a01b031633146118bc5760405162461bcd60e51b815260040161068a9190612b4c565b5060008181526036602052604090206005015460ff16156118dc57600080fd5b6000818152603660205260409081902060058101805460ff19166001179055905182917f0f9936e2210c5cb61170d9da568110dc1426511cd2a1ffabe518cb3f12791c329161192b9190612cbf565b60405180910390a250565b606081015160408051808201909152600381526203130360ec1b60208201526000916001600160a01b031661197e5760405162461bcd60e51b815260040161068a9190612b4c565b50815160408051808201909152600381526203130360ec1b6020820152906001600160a01b03166119c25760405162461bcd60e51b815260040161068a9190612b4c565b5060008260800151116040518060400160405280600381526020016206660760eb1b81525090611a055760405162461bcd60e51b815260040161068a9190612b4c565b5060008260c00151116040518060400160405280600381526020016233303960e81b81525090611a485760405162461bcd60e51b815260040161068a9190612b4c565b5060608201516080830151604051636eb1769f60e11b81523360048201523060248201526001600160a01b0383169063dd62ed3e90604401602060405180830381865afa158015611a9d573d6000803e3d6000fd5b505050506040513d601f19601f82011682018060405250810190611ac19190612b9c565b1015611acc57600080fd5b60338054906000611adc83612d1b565b91905055506000611aee6033546126f6565b84516020860151611afe906126f6565b604051602001611b1093929190612d36565b60408051808303601f190181528282528051602091820120600081815260388352928320885181546001600160a01b03199081166001600160a01b03928316178355938a015160018084019190915560028301805460608d01516003860180548916919095161790935560808c0151600485015560a08c015160058501805460ff191691151591909117905560c08c01516006909401939093559316331790556039805492830181559092527fdc16fef70f8d5ddbc01ee3d903d1e69c18a3c7be080eb86a81e0578814ee58d301819055915081907f1101875263abf1b7c3fc9cf51275180975f69f768a3c09e1b453fa0cad6f29b190611c12908790612c64565b60405180910390a29392505050565b600081815260386020908152604091829020825160e08101845281546001600160a01b03908116825260018301549382019390935260028201548316938101939093526003810154909116606083015260048101546080830152600581015460ff1615801560a084015260069091015460c083015280611ca457508060c0015142105b6040518060400160405280600381526020016219981960e91b81525090611cde5760405162461bcd60e51b815260040161068a9190612b4c565b50805160208201516040516331a9108f60e11b815233916001600160a01b03841691636352211e91611d169160040190815260200190565b602060405180830381865afa158015611d33573d6000803e3d6000fd5b505050506040513d601f19601f82011682018060405250810190611d579190612bb5565b6001600160a01b031614611d6a57600080fd5b60405163e985e9c560e01b81523360048201523060248201526001600160a01b0382169063e985e9c590604401602060405180830381865afa158015611db4573d6000803e3d6000fd5b505050506040513d601f19601f82011682018060405250810190611dd89190612b7f565b611de157600080fd5b606082015160808301516040808501519051636eb1769f60e11b81526001600160a01b0391821660048201523060248201529083169063dd62ed3e90604401602060405180830381865afa158015611e3d573d6000803e3d6000fd5b505050506040513d601f19601f82011682018060405250810190611e619190612b9c565b1015611e6c57600080fd5b6040805160e08101825284820180516001600160a01b0390811683523360208401526080808801805185870152516060850152915193516370a0823160e01b8152938116600485015260009391830191908516906370a0823190602401602060405180830381865afa158015611ee6573d6000803e3d6000fd5b505050506040513d601f19601f82011682018060405250810190611f0a9190612b9c565b81526040808701519051636eb1769f60e11b81526001600160a01b0391821660048201523060248201526020909201919085169063dd62ed3e90604401602060405180830381865afa158015611f64573d6000803e3d6000fd5b505050506040513d601f19601f82011682018060405250810190611f889190612b9c565b81526060808701516001600160a01b039081166020938401526035546040805160808101825260008082528187018190528183018190529481019490945280518082018252601b81527f4d41524b4554504c4143455f42454e454649545f50455243454e5400000000009581019590955251636d12dce160e01b8152949550169290918391636d12dce19161201f91600401612b4c565b602060405180830381865afa15801561203c573d6000803e3d6000fd5b505050506040513d601f19601f820116820180604052508101906120609190612b9c565b604082018190526120735760fa60408201525b6040810151156120ba57612710816040015184606001516120949190612c0c565b61209e9190612c2b565b606082018190526040840180516120b6908390612c4d565b9052505b825160608401516040516323b872dd60e01b81526001600160a01b038716926323b872dd926120ee92309190600401612bd2565b6020604051808303816000875af115801561210d573d6000803e3d6000fd5b505050506040513d601f19601f820116820180604052508101906121319190612b7f565b6040518060400160405280600381526020016219981b60e91b8152509061216b5760405162461bcd60e51b815260040161068a9190612b4c565b506020830151604080850151905163a9059cbb60e01b81526001600160a01b0387169263a9059cbb926121b4926004016001600160a01b03929092168252602082015260400190565b6020604051808303816000875af11580156121d3573d6000803e3d6000fd5b505050506040513d601f19601f820116820180604052508101906121f79190612b7f565b6040518060400160405280600381526020016219981b60e91b815250906122315760405162461bcd60e51b815260040161068a9190612b4c565b50602080840151845191880151604051632142170760e11b81526001600160a01b038916936342842e0e9361226a939092600401612bd2565b600060405180830381600087803b15801561228457600080fd5b505af1158015612298573d6000803e3d6000fd5b50505060008881526038602052604090819020600501805460ff19166001179055518891507f18f1ceedf8920f811ccf39358c2a2164a50e62c93ad4dafc82e6906cf81dc0a4906122ea908990612c64565b60405180910390a250505050505050565b600081815260386020908152604091829020600201548251808401909352600383526203130360ec1b918301919091526001600160a01b031633146123535760405162461bcd60e51b815260040161068a9190612b4c565b5060008181526038602052604090206005015460ff161561237357600080fd5b6000818152603860205260409081902060058101805460ff19166001179055905182917fd1e7e193455ba4241e816f1b6fa787b59dad27c1279c69179f6cb4b4387bf5439161192b9190612cbf565b805160208201516040516331a9108f60e11b815260048101919091526000919033906001600160a01b03831690636352211e90602401602060405180830381865afa158015612415573d6000803e3d6000fd5b505050506040513d601f19601f820116820180604052508101906124399190612bb5565b6001600160a01b0316146040518060400160405280600381526020016203330360ec1b8152509061247d5760405162461bcd60e51b815260040161068a9190612b4c565b5060008360800151116040518060400160405280600381526020016206660760eb1b815250906124c05760405162461bcd60e51b815260040161068a9190612b4c565b5060008360c00151116040518060400160405280600381526020016233303960e81b815250906125035760405162461bcd60e51b815260040161068a9190612b4c565b5060405163e985e9c560e01b81523360048201523060248201526001600160a01b0382169063e985e9c590604401602060405180830381865afa15801561254e573d6000803e3d6000fd5b505050506040513d601f19601f820116820180604052508101906125729190612b7f565b60408051808201909152600381526233303160e81b60208201529015156001146125af5760405162461bcd60e51b815260040161068a9190612b4c565b50603380549060006125c083612d1b565b919050555060006125d26033546126f6565b845160208601516125e2906126f6565b6040516020016125f493929190612d36565b60408051808303601f190181528282528051602091820120600081815260368352928320885181546001600160a01b03199081166001600160a01b03928316178355938a015160018084019190915560028301805460608d01516003860180548916919095161790935560808c0151600485015560a08c015160058501805460ff191691151591909117905560c08c01516006909401939093559316331790556037805492830181559092527f42a7b7dd785cd69714a189dffb3fd7d7174edc9ece837694ce50f7078f7c31ae01819055915081907f36baa67ff8b95fa14aac46cea75517dc7f57ebebc1b90d48388c8c085f5cbfe390611c12908790612c64565b6060600061270383612793565b600101905060008167ffffffffffffffff811115612723576127236129af565b6040519080825280601f01601f19166020018201604052801561274d576020820181803683370190505b5090508181016020015b600019016f181899199a1a9b1b9c1cb0b131b232b360811b600a86061a8153600a85049450846127865761278b565b612757565b509392505050565b60008072184f03e93ff9f4daa797ed6e38ed64bf6a1f0160401b83106127d25772184f03e93ff9f4daa797ed6e38ed64bf6a1f0160401b830492506040015b6d04ee2d6d415b85acef810000000083106127fe576d04ee2d6d415b85acef8100000000830492506020015b662386f26fc10000831061281c57662386f26fc10000830492506010015b6305f5e1008310612834576305f5e100830492506008015b612710831061284857612710830492506004015b6064831061285a576064830492506002015b600a8310612866576001015b92915050565b6001600160a01b038116811461063157600080fd5b803561288c8161286c565b919050565b6000806000606084860312156128a657600080fd5b83356128b18161286c565b95602085013595506040909401359392505050565b6000602082840312156128d857600080fd5b5035919050565b600080604083850312156128f257600080fd5b82356128fd8161286c565b9150602083013561290d8161286c565b809150509250929050565b60006020828403121561292a57600080fd5b81356129358161286c565b9392505050565b801515811461063157600080fd5b803561288c8161293c565b6000806040838503121561296857600080fd5b82356129738161286c565b9150602083013561290d8161293c565b6000806040838503121561299657600080fd5b82356129a18161286c565b946020939093013593505050565b634e487b7160e01b600052604160045260246000fd5b600060e082840312156129d757600080fd5b60405160e0810181811067ffffffffffffffff82111715612a0857634e487b7160e01b600052604160045260246000fd5b604052905080612a1783612881565b815260208301356020820152612a2f60408401612881565b6040820152612a4060608401612881565b606082015260808301356080820152612a5b60a0840161294a565b60a082015260c083013560c08201525092915050565b600060e08284031215612a8357600080fd5b61293583836129c5565b600080600060608486031215612aa257600080fd5b8335612aad8161286c565b92506020840135612abd8161286c565b929592945050506040919091013590565b6020808252602e908201527f496e697469616c697a61626c653a20636f6e747261637420697320616c72656160408201526d191e481a5b9a5d1a585b1a5e995960921b606082015260800190565b60005b83811015612b37578181015183820152602001612b1f565b83811115612b46576000848401525b50505050565b6020815260008251806020840152612b6b816040850160208701612b1c565b601f01601f19169190910160400192915050565b600060208284031215612b9157600080fd5b81516129358161293c565b600060208284031215612bae57600080fd5b5051919050565b600060208284031215612bc757600080fd5b81516129358161286c565b6001600160a01b039384168152919092166020820152604081019190915260600190565b634e487b7160e01b600052601160045260246000fd5b6000816000190483118215151615612c2657612c26612bf6565b500290565b600082612c4857634e487b7160e01b600052601260045260246000fd5b500490565b600082821015612c5f57612c5f612bf6565b500390565b81516001600160a01b03908116825260208084015190830152604080840151821690830152606080840151909116908201526080808301519082015260a08083015115159082015260c0808301519082015260e08101612866565b81546001600160a01b03908116825260018301546020830152600283015481166040830152600383015416606082015260048201546080820152600582015460ff16151560a0820152600682015460c082015260e08101612866565b6000600019821415612d2f57612d2f612bf6565b5060010190565b60008451612d48818460208901612b1c565b606085901b6bffffffffffffffffffffffff19169083019081528351612d75816014840160208801612b1c565b016014019594505050505056fea2646970667358221220ed6826cce3fd08d7e8ee9e000ca746779012424db07fe6a89775c7830064eca964736f6c634300080c0033",
  "linkReferences": {},
  "deployedLinkReferences": {}
}