{
  "_format": "hh-sol-artifact-1",
  "contractName": "AdvanceMarketplaceService",
  "sourceName": "contracts/services/AdvanceMarketplaceService.sol",
  "abi": [
    {
      "anonymous": false,
      "inputs": [
        {
          "indexed": false,
          "internalType": "uint8",
          "name": "version",
          "type": "uint8"
        }
      ],
      "name": "Initialized",
      "type": "event"
    },
    {
      "inputs": [],
      "name": "_admin",
      "outputs": [
        {
          "internalType": "address",
          "name": "",
          "type": "address"
        }
      ],
      "stateMutability": "view",
      "type": "function"
    },
    {
      "inputs": [
        {
          "internalType": "address",
          "name": "",
          "type": "address"
        }
      ],
      "name": "_allowableERC20MakeListToken",
      "outputs": [
        {
          "internalType": "bool",
          "name": "",
          "type": "bool"
        }
      ],
      "stateMutability": "view",
      "type": "function"
    },
    {
      "inputs": [
        {
          "internalType": "address",
          "name": "",
          "type": "address"
        }
      ],
      "name": "_allowableERC20MakeOffer",
      "outputs": [
        {
          "internalType": "bool",
          "name": "",
          "type": "bool"
        }
      ],
      "stateMutability": "view",
      "type": "function"
    },
    {
      "inputs": [
        {
          "internalType": "uint256",
          "name": "",
          "type": "uint256"
        }
      ],
      "name": "_arrayListingId",
      "outputs": [
        {
          "internalType": "bytes32",
          "name": "",
          "type": "bytes32"
        }
      ],
      "stateMutability": "view",
      "type": "function"
    },
    {
      "inputs": [
        {
          "internalType": "uint256",
          "name": "",
          "type": "uint256"
        }
      ],
      "name": "_arrayMakeOfferId",
      "outputs": [
        {
          "internalType": "bytes32",
          "name": "",
          "type": "bytes32"
        }
      ],
      "stateMutability": "view",
      "type": "function"
    },
    {
      "inputs": [
        {
          "internalType": "address",
          "name": "",
          "type": "address"
        },
        {
          "internalType": "uint256",
          "name": "",
          "type": "uint256"
        },
        {
          "internalType": "uint256",
          "name": "",
          "type": "uint256"
        }
      ],
      "name": "_listingTokenDataMapping",
      "outputs": [
        {
          "internalType": "address",
          "name": "_collectionContract",
          "type": "address"
        },
        {
          "internalType": "uint256",
          "name": "_tokenId",
          "type": "uint256"
        },
        {
          "internalType": "address",
          "name": "_seller",
          "type": "address"
        },
        {
          "internalType": "address",
          "name": "_erc20Token",
          "type": "address"
        },
        {
          "internalType": "uint256",
          "name": "_price",
          "type": "uint256"
        },
        {
          "internalType": "bool",
          "name": "_closed",
          "type": "bool"
        },
        {
          "internalType": "uint256",
          "name": "_durationTime",
          "type": "uint256"
        }
      ],
      "stateMutability": "view",
      "type": "function"
    },
    {
      "inputs": [
        {
          "internalType": "address",
          "name": "",
          "type": "address"
        },
        {
          "internalType": "uint256",
          "name": "",
          "type": "uint256"
        }
      ],
      "name": "_listingTokenIds",
      "outputs": [
        {
          "internalType": "uint256",
          "name": "",
          "type": "uint256"
        }
      ],
      "stateMutability": "view",
      "type": "function"
    },
    {
      "inputs": [
        {
          "internalType": "bytes32",
          "name": "",
          "type": "bytes32"
        }
      ],
      "name": "_listingTokens",
      "outputs": [
        {
          "internalType": "address",
          "name": "_collectionContract",
          "type": "address"
        },
        {
          "internalType": "uint256",
          "name": "_tokenId",
          "type": "uint256"
        },
        {
          "internalType": "address",
          "name": "_seller",
          "type": "address"
        },
        {
          "internalType": "address",
          "name": "_erc20Token",
          "type": "address"
        },
        {
          "internalType": "uint256",
          "name": "_price",
          "type": "uint256"
        },
        {
          "internalType": "bool",
          "name": "_closed",
          "type": "bool"
        },
        {
          "internalType": "uint256",
          "name": "_durationTime",
          "type": "uint256"
        }
      ],
      "stateMutability": "view",
      "type": "function"
    },
    {
      "inputs": [
        {
          "internalType": "address",
          "name": "",
          "type": "address"
        },
        {
          "internalType": "uint256",
          "name": "",
          "type": "uint256"
        },
        {
          "internalType": "uint256",
          "name": "",
          "type": "uint256"
        }
      ],
      "name": "_makeOfferDataMapping",
      "outputs": [
        {
          "internalType": "address",
          "name": "_collectionContract",
          "type": "address"
        },
        {
          "internalType": "uint256",
          "name": "_tokenId",
          "type": "uint256"
        },
        {
          "internalType": "address",
          "name": "_buyer",
          "type": "address"
        },
        {
          "internalType": "address",
          "name": "_erc20Token",
          "type": "address"
        },
        {
          "internalType": "uint256",
          "name": "_price",
          "type": "uint256"
        },
        {
          "internalType": "bool",
          "name": "_closed",
          "type": "bool"
        },
        {
          "internalType": "uint256",
          "name": "_durationTime",
          "type": "uint256"
        }
      ],
      "stateMutability": "view",
      "type": "function"
    },
    {
      "inputs": [
        {
          "internalType": "address",
          "name": "",
          "type": "address"
        },
        {
          "internalType": "uint256",
          "name": "",
          "type": "uint256"
        }
      ],
      "name": "_makeOfferTokenIds",
      "outputs": [
        {
          "internalType": "uint256",
          "name": "",
          "type": "uint256"
        }
      ],
      "stateMutability": "view",
      "type": "function"
    },
    {
      "inputs": [
        {
          "internalType": "bytes32",
          "name": "",
          "type": "bytes32"
        }
      ],
      "name": "_makeOfferTokens",
      "outputs": [
        {
          "internalType": "address",
          "name": "_collectionContract",
          "type": "address"
        },
        {
          "internalType": "uint256",
          "name": "_tokenId",
          "type": "uint256"
        },
        {
          "internalType": "address",
          "name": "_buyer",
          "type": "address"
        },
        {
          "internalType": "address",
          "name": "_erc20Token",
          "type": "address"
        },
        {
          "internalType": "uint256",
          "name": "_price",
          "type": "uint256"
        },
        {
          "internalType": "bool",
          "name": "_closed",
          "type": "bool"
        },
        {
          "internalType": "uint256",
          "name": "_durationTime",
          "type": "uint256"
        }
      ],
      "stateMutability": "view",
      "type": "function"
    },
    {
      "inputs": [],
      "name": "_parameterAddr",
      "outputs": [
        {
          "internalType": "address",
          "name": "",
          "type": "address"
        }
      ],
      "stateMutability": "view",
      "type": "function"
    },
    {
      "inputs": [
        {
          "internalType": "bytes32",
          "name": "offerId",
          "type": "bytes32"
        }
      ],
      "name": "acceptMakeOffer",
      "outputs": [],
      "stateMutability": "nonpayable",
      "type": "function"
    },
    {
      "inputs": [
        {
          "internalType": "bytes32",
          "name": "_offeringId",
          "type": "bytes32"
        }
      ],
      "name": "cancelListing",
      "outputs": [],
      "stateMutability": "nonpayable",
      "type": "function"
    },
    {
      "inputs": [
        {
          "internalType": "bytes32",
          "name": "offerId",
          "type": "bytes32"
        }
      ],
      "name": "cancelMakeOffer",
      "outputs": [],
      "stateMutability": "nonpayable",
      "type": "function"
    },
    {
      "inputs": [
        {
          "internalType": "address",
          "name": "newAdm",
          "type": "address"
        }
      ],
      "name": "changeAdmin",
      "outputs": [],
      "stateMutability": "nonpayable",
      "type": "function"
    },
    {
      "inputs": [
        {
          "internalType": "address",
          "name": "newAddr",
          "type": "address"
        }
      ],
      "name": "changeParamAddr",
      "outputs": [],
      "stateMutability": "nonpayable",
      "type": "function"
    },
    {
      "inputs": [
        {
          "internalType": "address",
          "name": "admin",
          "type": "address"
        },
        {
          "internalType": "address",
          "name": "parameterControl",
          "type": "address"
        }
      ],
      "name": "initialize",
      "outputs": [],
      "stateMutability": "nonpayable",
      "type": "function"
    },
    {
      "inputs": [
        {
          "components": [
            {
              "internalType": "address",
              "name": "_collectionContract",
              "type": "address"
            },
            {
              "internalType": "uint256",
              "name": "_tokenId",
              "type": "uint256"
            },
            {
              "internalType": "address",
              "name": "_seller",
              "type": "address"
            },
            {
              "internalType": "address",
              "name": "_erc20Token",
              "type": "address"
            },
            {
              "internalType": "uint256",
              "name": "_price",
              "type": "uint256"
            },
            {
              "internalType": "bool",
              "name": "_closed",
              "type": "bool"
            },
            {
              "internalType": "uint256",
              "name": "_durationTime",
              "type": "uint256"
            }
          ],
          "internalType": "struct Marketplace.ListingTokenData",
          "name": "listingData",
          "type": "tuple"
        }
      ],
      "name": "listToken",
      "outputs": [
        {
          "internalType": "bytes32",
          "name": "",
          "type": "bytes32"
        }
      ],
      "stateMutability": "nonpayable",
      "type": "function"
    },
    {
      "inputs": [
        {
          "components": [
            {
              "internalType": "address",
              "name": "_collectionContract",
              "type": "address"
            },
            {
              "internalType": "uint256",
              "name": "_tokenId",
              "type": "uint256"
            },
            {
              "internalType": "address",
              "name": "_buyer",
              "type": "address"
            },
            {
              "internalType": "address",
              "name": "_erc20Token",
              "type": "address"
            },
            {
              "internalType": "uint256",
              "name": "_price",
              "type": "uint256"
            },
            {
              "internalType": "bool",
              "name": "_closed",
              "type": "bool"
            },
            {
              "internalType": "uint256",
              "name": "_durationTime",
              "type": "uint256"
            }
          ],
          "internalType": "struct Marketplace.MakeOfferData",
          "name": "makeOfferData",
          "type": "tuple"
        }
      ],
      "name": "makeOffer",
      "outputs": [
        {
          "internalType": "bytes32",
          "name": "",
          "type": "bytes32"
        }
      ],
      "stateMutability": "nonpayable",
      "type": "function"
    },
    {
      "inputs": [
        {
          "internalType": "bytes32",
          "name": "offeringId",
          "type": "bytes32"
        }
      ],
      "name": "purchaseToken",
      "outputs": [],
      "stateMutability": "payable",
      "type": "function"
    },
    {
      "inputs": [
        {
          "internalType": "address",
          "name": "erc20",
          "type": "address"
        },
        {
          "internalType": "bool",
          "name": "allow",
          "type": "bool"
        }
      ],
      "name": "setApproveERC20ListToken",
      "outputs": [],
      "stateMutability": "nonpayable",
      "type": "function"
    },
    {
      "inputs": [
        {
          "internalType": "address",
          "name": "erc20",
          "type": "address"
        },
        {
          "internalType": "bool",
          "name": "allow",
          "type": "bool"
        }
      ],
      "name": "setApproveERC20MakeOffer",
      "outputs": [],
      "stateMutability": "nonpayable",
      "type": "function"
    },
    {
      "inputs": [
        {
          "internalType": "address",
          "name": "receiver",
          "type": "address"
        },
        {
          "internalType": "address",
          "name": "erc20Addr",
          "type": "address"
        },
        {
          "internalType": "uint256",
          "name": "amount",
          "type": "uint256"
        }
      ],
      "name": "withdraw",
      "outputs": [],
      "stateMutability": "nonpayable",
      "type": "function"
    }
  ],
  "bytecode": "0x608060405234801561001057600080fd5b50612d6d806100206000396000f3fe60806040526004361061014b5760003560e01c8063a3a1937c116100b6578063e5026b8b1161006f578063e5026b8b146104bd578063eab651d8146104dd578063ed4ec201146104fd578063f1f2df0e1461051d578063f40cb02d1461053d578063febfd6c31461055d57600080fd5b8063a3a1937c146103a3578063bd7ec0c21461040d578063d299a0861461043d578063d2abb69c1461045d578063d9caed121461047d578063d9e87e611461049d57600080fd5b80635b06e64a116101085780635b06e64a146102c357806372c035cf146103035780638f283970146103235780639142e6a8146103435780639299e55214610363578063a25d6dce1461038357600080fd5b806301bc45c91461015057806314646f6d1461018d5780631fd4d2ed146101f65780633ac1089a146102245780633dd72c4014610239578063485cc955146102a3575b600080fd5b34801561015c57600080fd5b50603454610170906001600160a01b031681565b6040516001600160a01b0390911681526020015b60405180910390f35b34801561019957600080fd5b506101ad6101a8366004612846565b61057d565b604080516001600160a01b039889168152602081019790975294871694860194909452949091166060840152608083015291151560a082015260c081019190915260e001610184565b34801561020257600080fd5b5061021661021136600461287b565b6105f6565b604051908152602001610184565b61023761023236600461287b565b610617565b005b34801561024557600080fd5b506101ad61025436600461287b565b60386020526000908152604090208054600182015460028301546003840154600485015460058601546006909601546001600160a01b03958616969495938416949290931692909160ff169087565b3480156102af57600080fd5b506102376102be366004612894565b610634565b3480156102cf57600080fd5b506102f36102de3660046128cd565b603f6020526000908152604090205460ff1681565b6040519015158152602001610184565b34801561030f57600080fd5b50603554610170906001600160a01b031681565b34801561032f57600080fd5b5061023761033e3660046128cd565b61070c565b34801561034f57600080fd5b5061023761035e36600461290a565b61079e565b34801561036f57600080fd5b5061023761037e36600461287b565b610810565b34801561038f57600080fd5b5061021661039e366004612938565b610819565b3480156103af57600080fd5b506101ad6103be36600461287b565b60366020526000908152604090208054600182015460028301546003840154600485015460058601546006909601546001600160a01b03958616969495938416949290931692909160ff169087565b34801561041957600080fd5b506102f36104283660046128cd565b603e6020526000908152604090205460ff1681565b34801561044957600080fd5b506101ad610458366004612846565b61084a565b34801561046957600080fd5b50610216610478366004612a26565b610872565b34801561048957600080fd5b50610237610498366004612a42565b6109c1565b3480156104a957600080fd5b506102376104b836600461287b565b610b1b565b3480156104c957600080fd5b506102376104d836600461290a565b610b2c565b3480156104e957600080fd5b506102166104f8366004612938565b610b9e565b34801561050957600080fd5b5061021661051836600461287b565b610bba565b34801561052957600080fd5b5061023761053836600461287b565b610bca565b34801561054957600080fd5b50610216610558366004612a26565b610bd3565b34801561056957600080fd5b506102376105783660046128cd565b610d22565b603c60205282600052604060002060205281600052604060002081815481106105a557600080fd5b600091825260209091206007909102018054600182015460028301546003840154600485015460058601546006909601546001600160a01b03958616995093975091841695509092169260ff169087565b6039818154811061060657600080fd5b600091825260209091200154905081565b61061f610db4565b61062881610e0e565b61063160018055565b50565b600054610100900460ff16158080156106545750600054600160ff909116105b8061066e5750303b15801561066e575060005460ff166001145b6106935760405162461bcd60e51b815260040161068a90612a83565b60405180910390fd5b6000805460ff1916600117905580156106b6576000805461ff0019166101001790555b6106c083836116f3565b8015610707576000805461ff0019169055604051600181527f7f26b83ff96e1f2b6a682f133852f6798a09c465da95921460cefb3847402498906020015b60405180910390a15b505050565b6034546001600160a01b03163314801561072e57506001600160a01b03811615155b6040518060400160405280600381526020016231303160e81b815250906107685760405162461bcd60e51b815260040161068a9190612b01565b506034546001600160a01b0382811691161461063157603480546001600160a01b0383166001600160a01b031990911617905550565b60345460408051808201909152600381526231303160e81b6020820152906001600160a01b031633146107e45760405162461bcd60e51b815260040161068a9190612b01565b506001600160a01b03919091166000908152603e60205260409020805460ff1916911515919091179055565b61063181611862565b603d602052816000526040600020818154811061083557600080fd5b90600052602060002001600091509150505481565b603a60205282600052604060002060205281600052604060002081815481106105a557600080fd5b60608101516001600160a01b03166000908152603e60209081526040808320548151808301909252600382526233303760e81b928201929092529060ff166108cd5760405162461bcd60e51b815260040161068a9190612b01565b5060006108d983611934565b600081815260386020908152604080832080546001600160a01b039081168552603c845282852060018084018054885291865284872080548083018255908852868820855460079092020180549185166001600160a01b031992831617815583548184015560028087015490820180549187169184169190911790556003808701549082018054918716919093161790915560048086015490820155600580860154908201805460ff191660ff909216151591909117905560068086015491015592549091168552603d84529184209154825491820183559184529190922001559392505050565b6109c9610db4565b60345460408051808201909152600381526231303160e81b6020820152906001600160a01b03163314610a0f5760405162461bcd60e51b815260040161068a9190612b01565b5060006001600160a01b038316610a905781471015610a2d57600080fd5b6040516001600160a01b038516908390600081818185875af1925050503d8060008114610a76576040519150601f19603f3d011682016040523d82523d6000602084013e610a7b565b606091505b50508091505080610a8b57600080fd5b610b11565b60405163a9059cbb60e01b81526001600160a01b0385811660048301526024820184905284919082169063a9059cbb906044016020604051808303816000875af1158015610ae2573d6000803e3d6000fd5b505050506040513d601f19601f82011682018060405250810190610b069190612b34565b610b0f57600080fd5b505b5061070760018055565b610b23610db4565b61062881611bec565b60345460408051808201909152600381526231303160e81b6020820152906001600160a01b03163314610b725760405162461bcd60e51b815260040161068a9190612b01565b506001600160a01b03919091166000908152603f60205260409020805460ff1916911515919091179055565b603b602052816000526040600020818154811061083557600080fd5b6037818154811061060657600080fd5b610631816122b0565b60608101516001600160a01b03166000908152603f60209081526040808320548151808301909252600382526233303760e81b928201929092529060ff16610c2e5760405162461bcd60e51b815260040161068a9190612b01565b506000610c3a83612377565b600081815260366020908152604080832080546001600160a01b039081168552603a845282852060018084018054885291865284872080548083018255908852868820855460079092020180549185166001600160a01b031992831617815583548184015560028087015490820180549187169184169190911790556003808701549082018054918716919093161790915560048086015490820155600580860154908201805460ff191660ff909216151591909117905560068086015491015592549091168552603b84529184209154825491820183559184529190922001559392505050565b6034546001600160a01b031633148015610d4457506001600160a01b03811615155b6040518060400160405280600381526020016231303160e81b81525090610d7e5760405162461bcd60e51b815260040161068a9190612b01565b506035546001600160a01b0382811691161461063157603580546001600160a01b0383166001600160a01b031990911617905550565b60026001541415610e075760405162461bcd60e51b815260206004820152601f60248201527f5265656e7472616e637947756172643a207265656e7472616e742063616c6c00604482015260640161068a565b6002600155565b600081815260366020908152604091829020825160e08101845281546001600160a01b03908116825260018301549382019390935260028201548316938101939093526003810154909116606083015260048101546080830152600581015460ff1615801560a084015260069091015460c083015280610e9157508060c0015142105b6040518060400160405280600381526020016219981960e91b81525090610ecb5760405162461bcd60e51b815260040161068a9190612b01565b5080516060808301516040805160e0810182526000808252602082018190529181018290529283018190526080830181905260a0830181905260c083015282916001600160a01b039091161515906000821561107857856060015190506040518060e00160405280336001600160a01b0316815260200187604001516001600160a01b031681526020018760800151815260200187608001518152602001826001600160a01b03166370a08231336040518263ffffffff1660e01b8152600401610fa491906001600160a01b0391909116815260200190565b602060405180830381865afa158015610fc1573d6000803e3d6000fd5b505050506040513d601f19601f82011682018060405250810190610fe59190612b51565b8152604051636eb1769f60e11b81523360048201523060248201526020909101906001600160a01b0384169063dd62ed3e90604401602060405180830381865afa158015611037573d6000803e3d6000fd5b505050506040513d601f19601f8201168201806040525081019061105b9190612b51565b815260200187606001516001600160a01b031681525091506110d8565b6040518060e00160405280336001600160a01b0316815260200187604001516001600160a01b031681526020018760800151815260200187608001518152602001600081526020016000815260200160006001600160a01b031681525091505b85604001516001600160a01b0316846001600160a01b0316636352211e88602001516040518263ffffffff1660e01b815260040161111891815260200190565b602060405180830381865afa158015611135573d6000803e3d6000fd5b505050506040513d601f19601f820116820180604052508101906111599190612b6a565b6001600160a01b0316146040518060400160405280600381526020016203330360ec1b8152509061119d5760405162461bcd60e51b815260040161068a9190612b01565b50821561122f5760408083015160a08401518251808401909352600383526233303560e81b602084015210156111e65760405162461bcd60e51b815260040161068a9190612b01565b506040808301516080840151825180840190935260038352620ccc0d60ea1b602084015210156112295760405162461bcd60e51b815260040161068a9190612b01565b5061126f565b6040808301518151808301909252600382526233303360e81b602083015234101561126d5760405162461bcd60e51b815260040161068a9190612b01565b505b600087815260366020908152604091829020600501548251808401909352600383526219981960e91b9183019190915260ff16156112c05760405162461bcd60e51b815260040161068a9190612b01565b5081516020870151604051632142170760e11b81526001600160a01b038716926342842e0e926112f69230929190600401612b87565b600060405180830381600087803b15801561131057600080fd5b505af1158015611324573d6000803e3d6000fd5b50506035546040805160808101825260008082526020808301829052828401829052606083019190915282518084018452601b81527f4d41524b4554504c4143455f42454e454649545f50455243454e540000000000918101919091529151636d12dce160e01b81526001600160a01b03909316945092508391636d12dce1916113b091600401612b01565b602060405180830381865afa1580156113cd573d6000803e3d6000fd5b505050506040513d601f19601f820116820180604052508101906113f19190612b51565b60408201819052611405576109c460408201525b60408101511561144c57612710816040015185606001516114269190612bc1565b6114309190612be0565b60608201819052604085018051611448908390612c02565b9052505b84156115bd57835160608501516040516323b872dd60e01b81526001600160a01b038616926323b872dd9261148692309190600401612b87565b6020604051808303816000875af11580156114a5573d6000803e3d6000fd5b505050506040513d601f19601f820116820180604052508101906114c99190612b34565b6040518060400160405280600381526020016219981b60e91b815250906115035760405162461bcd60e51b815260040161068a9190612b01565b506040808901518582015191516323b872dd60e01b81526001600160a01b038616926323b872dd9261153a92309290600401612b87565b6020604051808303816000875af1158015611559573d6000803e3d6000fd5b505050506040513d601f19601f8201168201806040525081019061157d9190612b34565b6040518060400160405280600381526020016219981b60e91b815250906115b75760405162461bcd60e51b815260040161068a9190612b01565b50611692565b60408051808201909152600381526233303360e81b6020820152476115f55760405162461bcd60e51b815260040161068a9190612b01565b50600088604001516001600160a01b0316856040015160405160006040518083038185875af1925050503d806000811461164b576040519150601f19603f3d011682016040523d82523d6000602084013e611650565b606091505b50509050806040518060400160405280600381526020016219981b60e91b8152509061168f5760405162461bcd60e51b815260040161068a9190612b01565b50505b60008981526036602052604090819020600501805460ff191660011790555189907fe06095b27616fe3bacd030b307fd111d7774afa5176a7cfd0863f3e8e8904b71906116e0908b90612c19565b60405180910390a2505050505050505050565b600054610100900460ff16158080156117135750600054600160ff909116105b8061172d5750303b15801561172d575060005460ff166001145b6117495760405162461bcd60e51b815260040161068a90612a83565b6000805460ff19166001179055801561176c576000805461ff0019166101001790555b60408051808201909152600381526203130360ec1b60208201526001600160a01b0384166117ad5760405162461bcd60e51b815260040161068a9190612b01565b5060408051808201909152600381526203130360ec1b60208201526001600160a01b0383166117ef5760405162461bcd60e51b815260040161068a9190612b01565b50603480546001600160a01b038086166001600160a01b03199283161790925560358054928516929091169190911790558015610707576000805461ff0019169055604051600181527f7f26b83ff96e1f2b6a682f133852f6798a09c465da95921460cefb3847402498906020016106fe565b600081815260366020908152604091829020600201548251808401909352600383526203330360ec1b918301919091526001600160a01b031633146118ba5760405162461bcd60e51b815260040161068a9190612b01565b5060008181526036602052604090206005015460ff16156118da57600080fd5b6000818152603660205260409081902060058101805460ff19166001179055905182917f0f9936e2210c5cb61170d9da568110dc1426511cd2a1ffabe518cb3f12791c32916119299190612c74565b60405180910390a250565b606081015160408051808201909152600381526203130360ec1b60208201526000916001600160a01b031661197c5760405162461bcd60e51b815260040161068a9190612b01565b50815160408051808201909152600381526203130360ec1b6020820152906001600160a01b03166119c05760405162461bcd60e51b815260040161068a9190612b01565b5060008260800151116040518060400160405280600381526020016206660760eb1b81525090611a035760405162461bcd60e51b815260040161068a9190612b01565b5060008260c00151116040518060400160405280600381526020016233303960e81b81525090611a465760405162461bcd60e51b815260040161068a9190612b01565b5060608201516080830151604051636eb1769f60e11b81523360048201523060248201526001600160a01b0383169063dd62ed3e90604401602060405180830381865afa158015611a9b573d6000803e3d6000fd5b505050506040513d601f19601f82011682018060405250810190611abf9190612b51565b1015611aca57600080fd5b60338054906000611ada83612cd0565b91905055506000611aec6033546126ab565b84516020860151611afc906126ab565b604051602001611b0e93929190612ceb565b60408051808303601f19018152828252805160209182012060008181526038835292909220875181546001600160a01b03199081166001600160a01b0392831617835592890151600183015560028201805460608b01516003850180548716919094161790925560808a0151600484015560a08a015160058401805460ff191691151591909117905560c08a015160069093019290925590911633179055915081907f1101875263abf1b7c3fc9cf51275180975f69f768a3c09e1b453fa0cad6f29b190611bdd908790612c19565b60405180910390a29392505050565b600081815260386020908152604091829020825160e08101845281546001600160a01b03908116825260018301549382019390935260028201548316938101939093526003810154909116606083015260048101546080830152600581015460ff1615801560a084015260069091015460c083015280611c6f57508060c0015142105b6040518060400160405280600381526020016219981960e91b81525090611ca95760405162461bcd60e51b815260040161068a9190612b01565b50805160208201516040516331a9108f60e11b815233916001600160a01b03841691636352211e91611ce19160040190815260200190565b602060405180830381865afa158015611cfe573d6000803e3d6000fd5b505050506040513d601f19601f82011682018060405250810190611d229190612b6a565b6001600160a01b031614611d3557600080fd5b60405163e985e9c560e01b81523360048201523060248201526001600160a01b0382169063e985e9c590604401602060405180830381865afa158015611d7f573d6000803e3d6000fd5b505050506040513d601f19601f82011682018060405250810190611da39190612b34565b611dac57600080fd5b606082015160808301516040808501519051636eb1769f60e11b81526001600160a01b0391821660048201523060248201529083169063dd62ed3e90604401602060405180830381865afa158015611e08573d6000803e3d6000fd5b505050506040513d601f19601f82011682018060405250810190611e2c9190612b51565b1015611e3757600080fd5b6040805160e08101825284820180516001600160a01b0390811683523360208401526080808801805185870152516060850152915193516370a0823160e01b8152938116600485015260009391830191908516906370a0823190602401602060405180830381865afa158015611eb1573d6000803e3d6000fd5b505050506040513d601f19601f82011682018060405250810190611ed59190612b51565b81526040808701519051636eb1769f60e11b81526001600160a01b0391821660048201523060248201526020909201919085169063dd62ed3e90604401602060405180830381865afa158015611f2f573d6000803e3d6000fd5b505050506040513d601f19601f82011682018060405250810190611f539190612b51565b81526060808701516001600160a01b039081166020938401526035546040805160808101825260008082528187018190528183018190529481019490945280518082018252601b81527f4d41524b4554504c4143455f42454e454649545f50455243454e5400000000009581019590955251636d12dce160e01b8152949550169290918391636d12dce191611fea91600401612b01565b602060405180830381865afa158015612007573d6000803e3d6000fd5b505050506040513d601f19601f8201168201806040525081019061202b9190612b51565b6040820181905261203f576109c460408201525b60408101511561208657612710816040015184606001516120609190612bc1565b61206a9190612be0565b60608201819052604084018051612082908390612c02565b9052505b825160608401516040516323b872dd60e01b81526001600160a01b038716926323b872dd926120ba92309190600401612b87565b6020604051808303816000875af11580156120d9573d6000803e3d6000fd5b505050506040513d601f19601f820116820180604052508101906120fd9190612b34565b6040518060400160405280600381526020016219981b60e91b815250906121375760405162461bcd60e51b815260040161068a9190612b01565b5060408084015190516323b872dd60e01b81526001600160a01b038616916323b872dd9161216c913091339190600401612b87565b6020604051808303816000875af115801561218b573d6000803e3d6000fd5b505050506040513d601f19601f820116820180604052508101906121af9190612b34565b6040518060400160405280600381526020016219981b60e91b815250906121e95760405162461bcd60e51b815260040161068a9190612b01565b5082516020870151604051632142170760e11b81526001600160a01b038816926342842e0e9261221f9230929190600401612b87565b600060405180830381600087803b15801561223957600080fd5b505af115801561224d573d6000803e3d6000fd5b50505060008881526038602052604090819020600501805460ff19166001179055518891507f18f1ceedf8920f811ccf39358c2a2164a50e62c93ad4dafc82e6906cf81dc0a49061229f908990612c19565b60405180910390a250505050505050565b600081815260386020908152604091829020600201548251808401909352600383526203130360ec1b918301919091526001600160a01b031633146123085760405162461bcd60e51b815260040161068a9190612b01565b5060008181526038602052604090206005015460ff161561232857600080fd5b6000818152603860205260409081902060058101805460ff19166001179055905182917fd1e7e193455ba4241e816f1b6fa787b59dad27c1279c69179f6cb4b4387bf543916119299190612c74565b805160208201516040516331a9108f60e11b815260048101919091526000919033906001600160a01b03831690636352211e90602401602060405180830381865afa1580156123ca573d6000803e3d6000fd5b505050506040513d601f19601f820116820180604052508101906123ee9190612b6a565b6001600160a01b0316146040518060400160405280600381526020016203330360ec1b815250906124325760405162461bcd60e51b815260040161068a9190612b01565b5060008360800151116040518060400160405280600381526020016206660760eb1b815250906124755760405162461bcd60e51b815260040161068a9190612b01565b5060008360c00151116040518060400160405280600381526020016233303960e81b815250906124b85760405162461bcd60e51b815260040161068a9190612b01565b5060405163e985e9c560e01b81523360048201523060248201526001600160a01b0382169063e985e9c590604401602060405180830381865afa158015612503573d6000803e3d6000fd5b505050506040513d601f19601f820116820180604052508101906125279190612b34565b60408051808201909152600381526233303160e81b60208201529015156001146125645760405162461bcd60e51b815260040161068a9190612b01565b506033805490600061257583612cd0565b919050555060006125876033546126ab565b84516020860151612597906126ab565b6040516020016125a993929190612ceb565b60408051808303601f190181528282528051602091820120600081815260368352928320885181546001600160a01b03199081166001600160a01b03928316178355938a015160018084019190915560028301805460608d01516003860180548916919095161790935560808c0151600485015560a08c015160058501805460ff191691151591909117905560c08c01516006909401939093559316331790556037805492830181559092527f42a7b7dd785cd69714a189dffb3fd7d7174edc9ece837694ce50f7078f7c31ae01819055915081907f36baa67ff8b95fa14aac46cea75517dc7f57ebebc1b90d48388c8c085f5cbfe390611bdd908790612c19565b606060006126b883612748565b600101905060008167ffffffffffffffff8111156126d8576126d8612964565b6040519080825280601f01601f191660200182016040528015612702576020820181803683370190505b5090508181016020015b600019016f181899199a1a9b1b9c1cb0b131b232b360811b600a86061a8153600a850494508461273b57612740565b61270c565b509392505050565b60008072184f03e93ff9f4daa797ed6e38ed64bf6a1f0160401b83106127875772184f03e93ff9f4daa797ed6e38ed64bf6a1f0160401b830492506040015b6d04ee2d6d415b85acef810000000083106127b3576d04ee2d6d415b85acef8100000000830492506020015b662386f26fc1000083106127d157662386f26fc10000830492506010015b6305f5e10083106127e9576305f5e100830492506008015b61271083106127fd57612710830492506004015b6064831061280f576064830492506002015b600a831061281b576001015b92915050565b6001600160a01b038116811461063157600080fd5b803561284181612821565b919050565b60008060006060848603121561285b57600080fd5b833561286681612821565b95602085013595506040909401359392505050565b60006020828403121561288d57600080fd5b5035919050565b600080604083850312156128a757600080fd5b82356128b281612821565b915060208301356128c281612821565b809150509250929050565b6000602082840312156128df57600080fd5b81356128ea81612821565b9392505050565b801515811461063157600080fd5b8035612841816128f1565b6000806040838503121561291d57600080fd5b823561292881612821565b915060208301356128c2816128f1565b6000806040838503121561294b57600080fd5b823561295681612821565b946020939093013593505050565b634e487b7160e01b600052604160045260246000fd5b600060e0828403121561298c57600080fd5b60405160e0810181811067ffffffffffffffff821117156129bd57634e487b7160e01b600052604160045260246000fd5b6040529050806129cc83612836565b8152602083013560208201526129e460408401612836565b60408201526129f560608401612836565b606082015260808301356080820152612a1060a084016128ff565b60a082015260c083013560c08201525092915050565b600060e08284031215612a3857600080fd5b6128ea838361297a565b600080600060608486031215612a5757600080fd5b8335612a6281612821565b92506020840135612a7281612821565b929592945050506040919091013590565b6020808252602e908201527f496e697469616c697a61626c653a20636f6e747261637420697320616c72656160408201526d191e481a5b9a5d1a585b1a5e995960921b606082015260800190565b60005b83811015612aec578181015183820152602001612ad4565b83811115612afb576000848401525b50505050565b6020815260008251806020840152612b20816040850160208701612ad1565b601f01601f19169190910160400192915050565b600060208284031215612b4657600080fd5b81516128ea816128f1565b600060208284031215612b6357600080fd5b5051919050565b600060208284031215612b7c57600080fd5b81516128ea81612821565b6001600160a01b039384168152919092166020820152604081019190915260600190565b634e487b7160e01b600052601160045260246000fd5b6000816000190483118215151615612bdb57612bdb612bab565b500290565b600082612bfd57634e487b7160e01b600052601260045260246000fd5b500490565b600082821015612c1457612c14612bab565b500390565b81516001600160a01b03908116825260208084015190830152604080840151821690830152606080840151909116908201526080808301519082015260a08083015115159082015260c0808301519082015260e0810161281b565b81546001600160a01b03908116825260018301546020830152600283015481166040830152600383015416606082015260048201546080820152600582015460ff16151560a0820152600682015460c082015260e0810161281b565b6000600019821415612ce457612ce4612bab565b5060010190565b60008451612cfd818460208901612ad1565b606085901b6bffffffffffffffffffffffff19169083019081528351612d2a816014840160208801612ad1565b016014019594505050505056fea26469706673582212207036693a8527168488b0d9ab2a9c859c7a5f67823b78de99123dc842e5b0e5f264736f6c634300080c0033",
  "linkReferences": {},
  "deployedLinkReferences": {}
}