{
  "_format": "hh-sol-artifact-1",
  "contractName": "AdvanceMarketplaceService",
  "sourceName": "contracts/services/AdvanceMarketplaceService.sol",
  "abi": [
    {
      "anonymous": false,
      "inputs": [
        {
          "indexed": false,
          "internalType": "uint8",
          "name": "version",
          "type": "uint8"
        }
      ],
      "name": "Initialized",
      "type": "event"
    },
    {
      "inputs": [],
      "name": "_admin",
      "outputs": [
        {
          "internalType": "address",
          "name": "",
          "type": "address"
        }
      ],
      "stateMutability": "view",
      "type": "function"
    },
    {
      "inputs": [
        {
          "internalType": "address",
          "name": "",
          "type": "address"
        }
      ],
      "name": "_allowableERC20MakeListToken",
      "outputs": [
        {
          "internalType": "bool",
          "name": "",
          "type": "bool"
        }
      ],
      "stateMutability": "view",
      "type": "function"
    },
    {
      "inputs": [
        {
          "internalType": "address",
          "name": "",
          "type": "address"
        }
      ],
      "name": "_allowableERC20MakeOffer",
      "outputs": [
        {
          "internalType": "bool",
          "name": "",
          "type": "bool"
        }
      ],
      "stateMutability": "view",
      "type": "function"
    },
    {
      "inputs": [
        {
          "internalType": "uint256",
          "name": "",
          "type": "uint256"
        }
      ],
      "name": "_arrayListingId",
      "outputs": [
        {
          "internalType": "bytes32",
          "name": "",
          "type": "bytes32"
        }
      ],
      "stateMutability": "view",
      "type": "function"
    },
    {
      "inputs": [
        {
          "internalType": "uint256",
          "name": "",
          "type": "uint256"
        }
      ],
      "name": "_arrayMakeOfferId",
      "outputs": [
        {
          "internalType": "bytes32",
          "name": "",
          "type": "bytes32"
        }
      ],
      "stateMutability": "view",
      "type": "function"
    },
    {
      "inputs": [
        {
          "internalType": "address",
          "name": "",
          "type": "address"
        },
        {
          "internalType": "uint256",
          "name": "",
          "type": "uint256"
        },
        {
          "internalType": "uint256",
          "name": "",
          "type": "uint256"
        }
      ],
      "name": "_listingTokenDataMapping",
      "outputs": [
        {
          "internalType": "address",
          "name": "_collectionContract",
          "type": "address"
        },
        {
          "internalType": "uint256",
          "name": "_tokenId",
          "type": "uint256"
        },
        {
          "internalType": "address",
          "name": "_seller",
          "type": "address"
        },
        {
          "internalType": "address",
          "name": "_erc20Token",
          "type": "address"
        },
        {
          "internalType": "uint256",
          "name": "_price",
          "type": "uint256"
        },
        {
          "internalType": "bool",
          "name": "_closed",
          "type": "bool"
        },
        {
          "internalType": "uint256",
          "name": "_durationTime",
          "type": "uint256"
        }
      ],
      "stateMutability": "view",
      "type": "function"
    },
    {
      "inputs": [
        {
          "internalType": "address",
          "name": "",
          "type": "address"
        },
        {
          "internalType": "uint256",
          "name": "",
          "type": "uint256"
        }
      ],
      "name": "_listingTokenIds",
      "outputs": [
        {
          "internalType": "uint256",
          "name": "",
          "type": "uint256"
        }
      ],
      "stateMutability": "view",
      "type": "function"
    },
    {
      "inputs": [
        {
          "internalType": "bytes32",
          "name": "",
          "type": "bytes32"
        }
      ],
      "name": "_listingTokens",
      "outputs": [
        {
          "internalType": "address",
          "name": "_collectionContract",
          "type": "address"
        },
        {
          "internalType": "uint256",
          "name": "_tokenId",
          "type": "uint256"
        },
        {
          "internalType": "address",
          "name": "_seller",
          "type": "address"
        },
        {
          "internalType": "address",
          "name": "_erc20Token",
          "type": "address"
        },
        {
          "internalType": "uint256",
          "name": "_price",
          "type": "uint256"
        },
        {
          "internalType": "bool",
          "name": "_closed",
          "type": "bool"
        },
        {
          "internalType": "uint256",
          "name": "_durationTime",
          "type": "uint256"
        }
      ],
      "stateMutability": "view",
      "type": "function"
    },
    {
      "inputs": [
        {
          "internalType": "address",
          "name": "",
          "type": "address"
        },
        {
          "internalType": "uint256",
          "name": "",
          "type": "uint256"
        },
        {
          "internalType": "uint256",
          "name": "",
          "type": "uint256"
        }
      ],
      "name": "_makeOfferDataMapping",
      "outputs": [
        {
          "internalType": "address",
          "name": "_collectionContract",
          "type": "address"
        },
        {
          "internalType": "uint256",
          "name": "_tokenId",
          "type": "uint256"
        },
        {
          "internalType": "address",
          "name": "_buyer",
          "type": "address"
        },
        {
          "internalType": "address",
          "name": "_erc20Token",
          "type": "address"
        },
        {
          "internalType": "uint256",
          "name": "_price",
          "type": "uint256"
        },
        {
          "internalType": "bool",
          "name": "_closed",
          "type": "bool"
        },
        {
          "internalType": "uint256",
          "name": "_durationTime",
          "type": "uint256"
        }
      ],
      "stateMutability": "view",
      "type": "function"
    },
    {
      "inputs": [
        {
          "internalType": "address",
          "name": "",
          "type": "address"
        },
        {
          "internalType": "uint256",
          "name": "",
          "type": "uint256"
        }
      ],
      "name": "_makeOfferTokenIds",
      "outputs": [
        {
          "internalType": "uint256",
          "name": "",
          "type": "uint256"
        }
      ],
      "stateMutability": "view",
      "type": "function"
    },
    {
      "inputs": [
        {
          "internalType": "bytes32",
          "name": "",
          "type": "bytes32"
        }
      ],
      "name": "_makeOfferTokens",
      "outputs": [
        {
          "internalType": "address",
          "name": "_collectionContract",
          "type": "address"
        },
        {
          "internalType": "uint256",
          "name": "_tokenId",
          "type": "uint256"
        },
        {
          "internalType": "address",
          "name": "_buyer",
          "type": "address"
        },
        {
          "internalType": "address",
          "name": "_erc20Token",
          "type": "address"
        },
        {
          "internalType": "uint256",
          "name": "_price",
          "type": "uint256"
        },
        {
          "internalType": "bool",
          "name": "_closed",
          "type": "bool"
        },
        {
          "internalType": "uint256",
          "name": "_durationTime",
          "type": "uint256"
        }
      ],
      "stateMutability": "view",
      "type": "function"
    },
    {
      "inputs": [],
      "name": "_parameterAddr",
      "outputs": [
        {
          "internalType": "address",
          "name": "",
          "type": "address"
        }
      ],
      "stateMutability": "view",
      "type": "function"
    },
    {
      "inputs": [
        {
          "internalType": "bytes32",
          "name": "offerId",
          "type": "bytes32"
        }
      ],
      "name": "acceptMakeOffer",
      "outputs": [],
      "stateMutability": "nonpayable",
      "type": "function"
    },
    {
      "inputs": [
        {
          "internalType": "bytes32",
          "name": "_offeringId",
          "type": "bytes32"
        }
      ],
      "name": "cancelListing",
      "outputs": [],
      "stateMutability": "nonpayable",
      "type": "function"
    },
    {
      "inputs": [
        {
          "internalType": "bytes32",
          "name": "offerId",
          "type": "bytes32"
        }
      ],
      "name": "cancelMakeOffer",
      "outputs": [],
      "stateMutability": "nonpayable",
      "type": "function"
    },
    {
      "inputs": [
        {
          "internalType": "address",
          "name": "newAdm",
          "type": "address"
        }
      ],
      "name": "changeAdmin",
      "outputs": [],
      "stateMutability": "nonpayable",
      "type": "function"
    },
    {
      "inputs": [
        {
          "internalType": "address",
          "name": "newAddr",
          "type": "address"
        }
      ],
      "name": "changeParamAddr",
      "outputs": [],
      "stateMutability": "nonpayable",
      "type": "function"
    },
    {
      "inputs": [
        {
          "internalType": "address",
          "name": "admin",
          "type": "address"
        },
        {
          "internalType": "address",
          "name": "parameterControl",
          "type": "address"
        }
      ],
      "name": "initialize",
      "outputs": [],
      "stateMutability": "nonpayable",
      "type": "function"
    },
    {
      "inputs": [
        {
          "components": [
            {
              "internalType": "address",
              "name": "_collectionContract",
              "type": "address"
            },
            {
              "internalType": "uint256",
              "name": "_tokenId",
              "type": "uint256"
            },
            {
              "internalType": "address",
              "name": "_seller",
              "type": "address"
            },
            {
              "internalType": "address",
              "name": "_erc20Token",
              "type": "address"
            },
            {
              "internalType": "uint256",
              "name": "_price",
              "type": "uint256"
            },
            {
              "internalType": "bool",
              "name": "_closed",
              "type": "bool"
            },
            {
              "internalType": "uint256",
              "name": "_durationTime",
              "type": "uint256"
            }
          ],
          "internalType": "struct Marketplace.ListingTokenData",
          "name": "listingData",
          "type": "tuple"
        }
      ],
      "name": "listToken",
      "outputs": [
        {
          "internalType": "bytes32",
          "name": "",
          "type": "bytes32"
        }
      ],
      "stateMutability": "nonpayable",
      "type": "function"
    },
    {
      "inputs": [
        {
          "components": [
            {
              "internalType": "address",
              "name": "_collectionContract",
              "type": "address"
            },
            {
              "internalType": "uint256",
              "name": "_tokenId",
              "type": "uint256"
            },
            {
              "internalType": "address",
              "name": "_buyer",
              "type": "address"
            },
            {
              "internalType": "address",
              "name": "_erc20Token",
              "type": "address"
            },
            {
              "internalType": "uint256",
              "name": "_price",
              "type": "uint256"
            },
            {
              "internalType": "bool",
              "name": "_closed",
              "type": "bool"
            },
            {
              "internalType": "uint256",
              "name": "_durationTime",
              "type": "uint256"
            }
          ],
          "internalType": "struct Marketplace.MakeOfferData",
          "name": "makeOfferData",
          "type": "tuple"
        }
      ],
      "name": "makeOffer",
      "outputs": [
        {
          "internalType": "bytes32",
          "name": "",
          "type": "bytes32"
        }
      ],
      "stateMutability": "nonpayable",
      "type": "function"
    },
    {
      "inputs": [
        {
          "internalType": "bytes32",
          "name": "offeringId",
          "type": "bytes32"
        }
      ],
      "name": "purchaseToken",
      "outputs": [],
      "stateMutability": "payable",
      "type": "function"
    },
    {
      "inputs": [
        {
          "internalType": "address",
          "name": "erc20",
          "type": "address"
        },
        {
          "internalType": "bool",
          "name": "allow",
          "type": "bool"
        }
      ],
      "name": "setApproveERC20ListToken",
      "outputs": [],
      "stateMutability": "nonpayable",
      "type": "function"
    },
    {
      "inputs": [
        {
          "internalType": "address",
          "name": "erc20",
          "type": "address"
        },
        {
          "internalType": "bool",
          "name": "allow",
          "type": "bool"
        }
      ],
      "name": "setApproveERC20MakeOffer",
      "outputs": [],
      "stateMutability": "nonpayable",
      "type": "function"
    },
    {
      "inputs": [
        {
          "internalType": "bytes32[]",
          "name": "offers",
          "type": "bytes32[]"
        }
      ],
      "name": "sweep",
      "outputs": [],
      "stateMutability": "payable",
      "type": "function"
    },
    {
      "inputs": [
        {
          "internalType": "address",
          "name": "receiver",
          "type": "address"
        },
        {
          "internalType": "address",
          "name": "erc20Addr",
          "type": "address"
        },
        {
          "internalType": "uint256",
          "name": "amount",
          "type": "uint256"
        }
      ],
      "name": "withdraw",
      "outputs": [],
      "stateMutability": "nonpayable",
      "type": "function"
    }
  ],
  "bytecode": "0x608060405234801561001057600080fd5b50613721806100206000396000f3fe6080604052600436106101665760003560e01c8063a25d6dce116100d1578063d9e87e611161008a578063ed4ec20111610064578063ed4ec2011461052b578063f1f2df0e1461054b578063f40cb02d1461056b578063febfd6c31461058b57600080fd5b8063d9e87e61146104cb578063e5026b8b146104eb578063eab651d81461050b57600080fd5b8063a25d6dce146103b1578063a3a1937c146103d1578063bd7ec0c21461043b578063d299a0861461046b578063d2abb69c1461048b578063d9caed12146104ab57600080fd5b80635b06e64a116101235780635b06e64a146102de5780636852168a1461031e57806372c035cf146103315780638f283970146103515780639142e6a8146103715780639299e5521461039157600080fd5b806301bc45c91461016b57806314646f6d146101a85780631fd4d2ed146102115780633ac1089a1461023f5780633dd72c4014610254578063485cc955146102be575b600080fd5b34801561017757600080fd5b5060345461018b906001600160a01b031681565b6040516001600160a01b0390911681526020015b60405180910390f35b3480156101b457600080fd5b506101c86101c3366004613061565b6105ab565b604080516001600160a01b039889168152602081019790975294871694860194909452949091166060840152608083015291151560a082015260c081019190915260e00161019f565b34801561021d57600080fd5b5061023161022c366004613096565b610624565b60405190815260200161019f565b61025261024d366004613096565b610645565b005b34801561026057600080fd5b506101c861026f366004613096565b60386020526000908152604090208054600182015460028301546003840154600485015460058601546006909601546001600160a01b03958616969495938416949290931692909160ff169087565b3480156102ca57600080fd5b506102526102d93660046130af565b610662565b3480156102ea57600080fd5b5061030e6102f93660046130e8565b603f6020526000908152604090205460ff1681565b604051901515815260200161019f565b61025261032c366004613153565b610739565b34801561033d57600080fd5b5060355461018b906001600160a01b031681565b34801561035d57600080fd5b5061025261036c3660046130e8565b61088e565b34801561037d57600080fd5b5061025261038c366004613207565b610920565b34801561039d57600080fd5b506102526103ac366004613096565b610992565b3480156103bd57600080fd5b506102316103cc366004613235565b61099b565b3480156103dd57600080fd5b506101c86103ec366004613096565b60366020526000908152604090208054600182015460028301546003840154600485015460058601546006909601546001600160a01b03958616969495938416949290931692909160ff169087565b34801561044757600080fd5b5061030e6104563660046130e8565b603e6020526000908152604090205460ff1681565b34801561047757600080fd5b506101c8610486366004613061565b6109cc565b34801561049757600080fd5b506102316104a6366004613307565b6109f4565b3480156104b757600080fd5b506102526104c6366004613323565b610b43565b3480156104d757600080fd5b506102526104e6366004613096565b610c9d565b3480156104f757600080fd5b50610252610506366004613207565b610cae565b34801561051757600080fd5b50610231610526366004613235565b610d20565b34801561053757600080fd5b50610231610546366004613096565b610d3c565b34801561055757600080fd5b50610252610566366004613096565b610d4c565b34801561057757600080fd5b50610231610586366004613307565b610d55565b34801561059757600080fd5b506102526105a63660046130e8565b610ea4565b603c60205282600052604060002060205281600052604060002081815481106105d357600080fd5b600091825260209091206007909102018054600182015460028301546003840154600485015460058601546006909601546001600160a01b03958616995093975091841695509092169260ff169087565b6039818154811061063457600080fd5b600091825260209091200154905081565b61064d610f36565b61065681610f90565b61065f60018055565b50565b600054610100900460ff16158080156106825750600054600160ff909116105b8061069c5750303b15801561069c575060005460ff166001145b6106c15760405162461bcd60e51b81526004016106b890613364565b60405180910390fd5b6000805460ff1916600117905580156106e4576000805461ff0019166101001790555b6106ee8383611b31565b8015610734576000805461ff0019169055604051600181527f7f26b83ff96e1f2b6a682f133852f6798a09c465da95921460cefb38474024989060200160405180910390a15b505050565b610741610f36565b60648151111561075057600080fd5b6000815167ffffffffffffffff81111561076c5761076c61310c565b604051908082528060200260200182016040528015610795578160200160208202803683370190505b50905060005b825181101561084c57603660008483815181106107ba576107ba6133b2565b60209081029190910181015182528101919091526040016000206005015460ff1661083a576108018382815181106107f4576107f46133b2565b6020026020010151610f90565b828181518110610813576108136133b2565b602002602001015182828151811061082d5761082d6133b2565b6020026020010181815250505b80610844816133de565b91505061079b565b507f158dd3c50fd0d637d65e59a4fe2a179d6ec485730ab6a010b2329e8f0484c8b88160405161087c91906133f9565b60405180910390a15061065f60018055565b6034546001600160a01b0316331480156108b057506001600160a01b03811615155b6040518060400160405280600381526020016231303160e81b815250906108ea5760405162461bcd60e51b81526004016106b8919061346d565b506034546001600160a01b0382811691161461065f57603480546001600160a01b0383166001600160a01b031990911617905550565b60345460408051808201909152600381526231303160e81b6020820152906001600160a01b031633146109665760405162461bcd60e51b81526004016106b8919061346d565b506001600160a01b03919091166000908152603e60205260409020805460ff1916911515919091179055565b61065f81611c66565b603d60205281600052604060002081815481106109b757600080fd5b90600052602060002001600091509150505481565b603a60205282600052604060002060205281600052604060002081815481106105d357600080fd5b60608101516001600160a01b03166000908152603e60209081526040808320548151808301909252600382526233303760e81b928201929092529060ff16610a4f5760405162461bcd60e51b81526004016106b8919061346d565b506000610a5b83611d38565b600081815260386020908152604080832080546001600160a01b039081168552603c845282852060018084018054885291865284872080548083018255908852868820855460079092020180549185166001600160a01b031992831617815583548184015560028087015490820180549187169184169190911790556003808701549082018054918716919093161790915560048086015490820155600580860154908201805460ff191660ff909216151591909117905560068086015491015592549091168552603d84529184209154825491820183559184529190922001559392505050565b610b4b610f36565b60345460408051808201909152600381526231303160e81b6020820152906001600160a01b03163314610b915760405162461bcd60e51b81526004016106b8919061346d565b5060006001600160a01b038316610c125781471015610baf57600080fd5b6040516001600160a01b038516908390600081818185875af1925050503d8060008114610bf8576040519150601f19603f3d011682016040523d82523d6000602084013e610bfd565b606091505b50508091505080610c0d57600080fd5b610c93565b60405163a9059cbb60e01b81526001600160a01b0385811660048301526024820184905284919082169063a9059cbb906044016020604051808303816000875af1158015610c64573d6000803e3d6000fd5b505050506040513d601f19601f82011682018060405250810190610c8891906134a0565b610c9157600080fd5b505b5061073460018055565b610ca5610f36565b61065681612023565b60345460408051808201909152600381526231303160e81b6020820152906001600160a01b03163314610cf45760405162461bcd60e51b81526004016106b8919061346d565b506001600160a01b03919091166000908152603f60205260409020805460ff1916911515919091179055565b603b60205281600052604060002081815481106109b757600080fd5b6037818154811061063457600080fd5b61065f8161299c565b60608101516001600160a01b03166000908152603f60209081526040808320548151808301909252600382526233303760e81b928201929092529060ff16610db05760405162461bcd60e51b81526004016106b8919061346d565b506000610dbc83612a63565b600081815260366020908152604080832080546001600160a01b039081168552603a845282852060018084018054885291865284872080548083018255908852868820855460079092020180549185166001600160a01b031992831617815583548184015560028087015490820180549187169184169190911790556003808701549082018054918716919093161790915560048086015490820155600580860154908201805460ff191660ff909216151591909117905560068086015491015592549091168552603b84529184209154825491820183559184529190922001559392505050565b6034546001600160a01b031633148015610ec657506001600160a01b03811615155b6040518060400160405280600381526020016231303160e81b81525090610f005760405162461bcd60e51b81526004016106b8919061346d565b506035546001600160a01b0382811691161461065f57603580546001600160a01b0383166001600160a01b031990911617905550565b60026001541415610f895760405162461bcd60e51b815260206004820152601f60248201527f5265656e7472616e637947756172643a207265656e7472616e742063616c6c0060448201526064016106b8565b6002600155565b600081815260366020908152604091829020825160e08101845281546001600160a01b03908116825260018301549382019390935260028201548316938101939093526003810154909116606083015260048101546080830152600581015460ff1615801560a0840181905260069092015460c08401529061101557508060c0015142105b6040518060400160405280600381526020016219981960e91b8152509061104f5760405162461bcd60e51b81526004016106b8919061346d565b506000828152603660209081526040808320600501805460ff191660011790558351606080860151835160e08101855286815294850186905292840185905283018490526080830184905260a0830184905260c08301939093526001600160a01b03161515906000821561121457846060015190506040518060e00160405280336001600160a01b0316815260200186604001516001600160a01b031681526020018660800151815260200186608001518152602001826001600160a01b03166370a08231336040518263ffffffff1660e01b815260040161114091906001600160a01b0391909116815260200190565b602060405180830381865afa15801561115d573d6000803e3d6000fd5b505050506040513d601f19601f8201168201806040525081019061118191906134bd565b8152604051636eb1769f60e11b81523360048201523060248201526020909101906001600160a01b0384169063dd62ed3e90604401602060405180830381865afa1580156111d3573d6000803e3d6000fd5b505050506040513d601f19601f820116820180604052508101906111f791906134bd565b815260200186606001516001600160a01b03168152509150611274565b6040518060e00160405280336001600160a01b0316815260200186604001516001600160a01b031681526020018660800151815260200186608001518152602001600081526020016000815260200160006001600160a01b031681525091505b84604001516001600160a01b0316846001600160a01b0316636352211e87602001516040518263ffffffff1660e01b81526004016112b491815260200190565b602060405180830381865afa1580156112d1573d6000803e3d6000fd5b505050506040513d601f19601f820116820180604052508101906112f591906134d6565b6001600160a01b0316146040518060400160405280600381526020016203330360ec1b815250906113395760405162461bcd60e51b81526004016106b8919061346d565b5082156113cb5760408083015160a08401518251808401909352600383526233303560e81b602084015210156113825760405162461bcd60e51b81526004016106b8919061346d565b506040808301516080840151825180840190935260038352620ccc0d60ea1b602084015210156113c55760405162461bcd60e51b81526004016106b8919061346d565b5061140b565b6040808301518151808301909252600382526233303360e81b60208301523410156114095760405162461bcd60e51b81526004016106b8919061346d565b505b602080830151835191870151604051632142170760e11b81526001600160a01b038816936342842e0e936114439390926004016134f3565b600060405180830381600087803b15801561145d57600080fd5b505af1158015611471573d6000803e3d6000fd5b50506035546040805160808101825260008082526020808301829052828401829052606083019190915282518084018452601b81527f4d41524b4554504c4143455f42454e454649545f50455243454e540000000000918101919091529151636d12dce160e01b81526001600160a01b03909316945092508391636d12dce1916114fd9160040161346d565b602060405180830381865afa15801561151a573d6000803e3d6000fd5b505050506040513d601f19601f8201168201806040525081019061153e91906134bd565b604082018190526115515760fa60408201525b60408101511561159857612710816040015185606001516115729190613517565b61157c9190613536565b60608201819052604085018051611594908390613558565b9052505b6040516301ffc9a760e01b815263152a902d60e11b60048201526001600160a01b038716906301ffc9a790602401602060405180830381865afa1580156115e3573d6000803e3d6000fd5b505050506040513d601f19601f8201168201806040525081019061160791906134a0565b156116be5786516020880151606086015160405163152a902d60e11b81526004810192909252602482015260009081906001600160a01b03841690632a55205a906044016040805180830381865afa158015611667573d6000803e3d6000fd5b505050506040513d601f19601f8201168201806040525081019061168b919061356f565b602086018190526001600160a01b038216865260408901805192945090925082916116b7908390613558565b9052505050505b841561193457835160608501516040516323b872dd60e01b81526001600160a01b038616926323b872dd926116f8923091906004016134f3565b6020604051808303816000875af1158015611717573d6000803e3d6000fd5b505050506040513d601f19601f8201168201806040525081019061173b91906134a0565b6040518060400160405280600381526020016219981b60e91b815250906117755760405162461bcd60e51b81526004016106b8919061346d565b5060408088015185820151915163a9059cbb60e01b81526001600160a01b039182166004820152602481019290925284169063a9059cbb906044016020604051808303816000875af11580156117cf573d6000803e3d6000fd5b505050506040513d601f19601f820116820180604052508101906117f391906134a0565b6040518060400160405280600381526020016219981b60e91b8152509061182d5760405162461bcd60e51b81526004016106b8919061346d565b5080516001600160a01b03161580159061184b575060008160200151115b1561192f578051602082015160405163a9059cbb60e01b81526001600160a01b0386169263a9059cbb92611895926004016001600160a01b03929092168252602082015260400190565b6020604051808303816000875af11580156118b4573d6000803e3d6000fd5b505050506040513d601f19601f820116820180604052508101906118d891906134a0565b6040518060400160405280600381526020016219981b60e91b815250906119125760405162461bcd60e51b81526004016106b8919061346d565b5061192f8160000151886020015189606001518460200151612d97565b611ad7565b60408051808201909152600381526233303360e81b60208201524761196c5760405162461bcd60e51b81526004016106b8919061346d565b50600087604001516001600160a01b0316856040015160405160006040518083038185875af1925050503d80600081146119c2576040519150601f19603f3d011682016040523d82523d6000602084013e6119c7565b606091505b505060408051808201909152600381526219981b60e91b602082015290915081611a045760405162461bcd60e51b81526004016106b8919061346d565b5081516001600160a01b031615801590611a22575060008260200151115b15611ad557815160208301516040516001600160a01b0390921691600081818185875af1925050503d8060008114611a76576040519150601f19603f3d011682016040523d82523d6000602084013e611a7b565b606091505b505060408051808201909152600381526219981b60e91b602082015290915081611ab85760405162461bcd60e51b81526004016106b8919061346d565b50611ad5826000015189602001518a606001518560200151612d97565b505b877fe06095b27616fe3bacd030b307fd111d7774afa5176a7cfd0863f3e8e8904b71603660008b8152602001908152602001600020604051611b19919061359d565b60405180910390a25050505050505050565b60018055565b600054610100900460ff1615808015611b515750600054600160ff909116105b80611b6b5750303b158015611b6b575060005460ff166001145b611b875760405162461bcd60e51b81526004016106b890613364565b6000805460ff191660011790558015611baa576000805461ff0019166101001790555b60408051808201909152600381526203130360ec1b60208201526001600160a01b038416611beb5760405162461bcd60e51b81526004016106b8919061346d565b5060408051808201909152600381526203130360ec1b60208201526001600160a01b038316611c2d5760405162461bcd60e51b81526004016106b8919061346d565b50603480546001600160a01b038086166001600160a01b03199283161790925560358054928516929091169190911790556106ee612e7e565b600081815260366020908152604091829020600201548251808401909352600383526203330360ec1b918301919091526001600160a01b03163314611cbe5760405162461bcd60e51b81526004016106b8919061346d565b5060008181526036602052604090206005015460ff1615611cde57600080fd5b6000818152603660205260409081902060058101805460ff19166001179055905182917f0f9936e2210c5cb61170d9da568110dc1426511cd2a1ffabe518cb3f12791c3291611d2d919061359d565b60405180910390a250565b606081015160408051808201909152600381526203130360ec1b60208201526000916001600160a01b0316611d805760405162461bcd60e51b81526004016106b8919061346d565b50815160408051808201909152600381526203130360ec1b6020820152906001600160a01b0316611dc45760405162461bcd60e51b81526004016106b8919061346d565b5060008260800151116040518060400160405280600381526020016206660760eb1b81525090611e075760405162461bcd60e51b81526004016106b8919061346d565b5060008260c00151116040518060400160405280600381526020016233303960e81b81525090611e4a5760405162461bcd60e51b81526004016106b8919061346d565b5060608201516080830151604051636eb1769f60e11b81523360048201523060248201526001600160a01b0383169063dd62ed3e90604401602060405180830381865afa158015611e9f573d6000803e3d6000fd5b505050506040513d601f19601f82011682018060405250810190611ec391906134bd565b1015611ece57600080fd5b60338054906000611ede836133de565b91905055506000611ef0603354612eaf565b84516020860151611f0090612eaf565b604051602001611f12939291906135f9565b60408051808303601f190181528282528051602091820120600081815260388352928320885181546001600160a01b03199081166001600160a01b03928316178355938a015160018084019190915560028301805460608d01516003860180548916919095161790935560808c0151600485015560a08c015160058501805460ff191691151591909117905560c08c01516006909401939093559316331790556039805492830181559092527fdc16fef70f8d5ddbc01ee3d903d1e69c18a3c7be080eb86a81e0578814ee58d301819055915081907f1101875263abf1b7c3fc9cf51275180975f69f768a3c09e1b453fa0cad6f29b190612014908790613645565b60405180910390a29392505050565b600081815260386020908152604091829020825160e08101845281546001600160a01b03908116825260018301549382019390935260028201548316938101939093526003810154909116606083015260048101546080830152600581015460ff1615801560a0840181905260069092015460c0840152906120a857508060c0015142105b6040518060400160405280600381526020016219981960e91b815250906120e25760405162461bcd60e51b81526004016106b8919061346d565b50600082815260386020908152604091829020600501805460ff1916600117905582519083015191516331a9108f60e11b8152909133916001600160a01b03841691636352211e9161213b919060040190815260200190565b602060405180830381865afa158015612158573d6000803e3d6000fd5b505050506040513d601f19601f8201168201806040525081019061217c91906134d6565b6001600160a01b0316146040518060400160405280600381526020016203330360ec1b815250906121c05760405162461bcd60e51b81526004016106b8919061346d565b5060405163e985e9c560e01b81523360048201523060248201526001600160a01b0382169063e985e9c590604401602060405180830381865afa15801561220b573d6000803e3d6000fd5b505050506040513d601f19601f8201168201806040525081019061222f91906134a0565b6040518060400160405280600381526020016233303160e81b815250906122695760405162461bcd60e51b81526004016106b8919061346d565b50606082015160808301516040808501519051636eb1769f60e11b81526001600160a01b0391821660048201523060248201529083169063dd62ed3e90604401602060405180830381865afa1580156122c6573d6000803e3d6000fd5b505050506040513d601f19601f820116820180604052508101906122ea91906134bd565b10156122f557600080fd5b6040805160e08101825284820180516001600160a01b0390811683523360208401526080808801805185870152516060850152915193516370a0823160e01b8152938116600485015260009391830191908516906370a0823190602401602060405180830381865afa15801561236f573d6000803e3d6000fd5b505050506040513d601f19601f8201168201806040525081019061239391906134bd565b81526040808701519051636eb1769f60e11b81526001600160a01b0391821660048201523060248201526020909201919085169063dd62ed3e90604401602060405180830381865afa1580156123ed573d6000803e3d6000fd5b505050506040513d601f19601f8201168201806040525081019061241191906134bd565b81526060808701516001600160a01b039081166020938401526035546040805160808101825260008082528187018190528183018190529481019490945280518082018252601b81527f4d41524b4554504c4143455f42454e454649545f50455243454e5400000000009581019590955251636d12dce160e01b8152949550169290918391636d12dce1916124a89160040161346d565b602060405180830381865afa1580156124c5573d6000803e3d6000fd5b505050506040513d601f19601f820116820180604052508101906124e991906134bd565b604082018190526124fc5760fa60408201525b604081015115612543576127108160400151846060015161251d9190613517565b6125279190613536565b6060820181905260408401805161253f908390613558565b9052505b6040516301ffc9a760e01b815263152a902d60e11b60048201526001600160a01b038616906301ffc9a790602401602060405180830381865afa15801561258e573d6000803e3d6000fd5b505050506040513d601f19601f820116820180604052508101906125b291906134a0565b156126695785516020870151606085015160405163152a902d60e11b81526004810192909252602482015260009081906001600160a01b03841690632a55205a906044016040805180830381865afa158015612612573d6000803e3d6000fd5b505050506040513d601f19601f82011682018060405250810190612636919061356f565b602086018190526001600160a01b03821686526040880180519294509092508291612662908390613558565b9052505050505b825160608401516040516323b872dd60e01b81526001600160a01b038716926323b872dd9261269d923091906004016134f3565b6020604051808303816000875af11580156126bc573d6000803e3d6000fd5b505050506040513d601f19601f820116820180604052508101906126e091906134a0565b6040518060400160405280600381526020016219981b60e91b8152509061271a5760405162461bcd60e51b81526004016106b8919061346d565b506020830151604080850151905163a9059cbb60e01b81526001600160a01b0387169263a9059cbb92612763926004016001600160a01b03929092168252602082015260400190565b6020604051808303816000875af1158015612782573d6000803e3d6000fd5b505050506040513d601f19601f820116820180604052508101906127a691906134a0565b6040518060400160405280600381526020016219981b60e91b815250906127e05760405162461bcd60e51b81526004016106b8919061346d565b5080516001600160a01b0316158015906127fe575060008160200151115b156128e2578051602082015160405163a9059cbb60e01b81526001600160a01b0387169263a9059cbb92612848926004016001600160a01b03929092168252602082015260400190565b6020604051808303816000875af1158015612867573d6000803e3d6000fd5b505050506040513d601f19601f8201168201806040525081019061288b91906134a0565b6040518060400160405280600381526020016219981b60e91b815250906128c55760405162461bcd60e51b81526004016106b8919061346d565b506128e28160000151876020015188606001518460200151612d97565b602080840151845191880151604051632142170760e11b81526001600160a01b038916936342842e0e9361291a9390926004016134f3565b600060405180830381600087803b15801561293457600080fd5b505af1158015612948573d6000803e3d6000fd5b5050506000888152603860205260409081902090518992507f18f1ceedf8920f811ccf39358c2a2164a50e62c93ad4dafc82e6906cf81dc0a49161298b9161359d565b60405180910390a250505050505050565b600081815260386020908152604091829020600201548251808401909352600383526203130360ec1b918301919091526001600160a01b031633146129f45760405162461bcd60e51b81526004016106b8919061346d565b5060008181526038602052604090206005015460ff1615612a1457600080fd5b6000818152603860205260409081902060058101805460ff19166001179055905182917fd1e7e193455ba4241e816f1b6fa787b59dad27c1279c69179f6cb4b4387bf54391611d2d919061359d565b805160208201516040516331a9108f60e11b815260048101919091526000919033906001600160a01b03831690636352211e90602401602060405180830381865afa158015612ab6573d6000803e3d6000fd5b505050506040513d601f19601f82011682018060405250810190612ada91906134d6565b6001600160a01b0316146040518060400160405280600381526020016203330360ec1b81525090612b1e5760405162461bcd60e51b81526004016106b8919061346d565b5060008360800151116040518060400160405280600381526020016206660760eb1b81525090612b615760405162461bcd60e51b81526004016106b8919061346d565b5060008360c00151116040518060400160405280600381526020016233303960e81b81525090612ba45760405162461bcd60e51b81526004016106b8919061346d565b5060405163e985e9c560e01b81523360048201523060248201526001600160a01b0382169063e985e9c590604401602060405180830381865afa158015612bef573d6000803e3d6000fd5b505050506040513d601f19601f82011682018060405250810190612c1391906134a0565b60408051808201909152600381526233303160e81b6020820152901515600114612c505760405162461bcd60e51b81526004016106b8919061346d565b5060338054906000612c61836133de565b91905055506000612c73603354612eaf565b84516020860151612c8390612eaf565b604051602001612c95939291906135f9565b60408051808303601f190181528282528051602091820120600081815260368352928320885181546001600160a01b03199081166001600160a01b03928316178355938a015160018084019190915560028301805460608d01516003860180548916919095161790935560808c0151600485015560a08c015160058501805460ff191691151591909117905560c08c01516006909401939093559316331790556037805492830181559092527f42a7b7dd785cd69714a189dffb3fd7d7174edc9ece837694ce50f7078f7c31ae01819055915081907f36baa67ff8b95fa14aac46cea75517dc7f57ebebc1b90d48388c8c085f5cbfe390612014908790613645565b6040516301ffc9a760e01b815263676eda1760e01b600482015284906001600160a01b038216906301ffc9a790602401602060405180830381865afa158015612de4573d6000803e3d6000fd5b505050506040513d601f19601f82011682018060405250810190612e0891906134a0565b15612e775760405163676eda1760e01b8152600481018590526001600160a01b0384811660248301526044820184905282169063676eda1790606401600060405180830381600087803b158015612e5e57600080fd5b505af1158015612e72573d6000803e3d6000fd5b505050505b5050505050565b600054610100900460ff16612ea55760405162461bcd60e51b81526004016106b8906136a0565b612ead612f4c565b565b60606000612ebc83612f73565b600101905060008167ffffffffffffffff811115612edc57612edc61310c565b6040519080825280601f01601f191660200182016040528015612f06576020820181803683370190505b5090508181016020015b600019016f181899199a1a9b1b9c1cb0b131b232b360811b600a86061a8153600a8504945084612f3f57612f44565b612f10565b509392505050565b600054610100900460ff16611b2b5760405162461bcd60e51b81526004016106b8906136a0565b60008072184f03e93ff9f4daa797ed6e38ed64bf6a1f0160401b8310612fb25772184f03e93ff9f4daa797ed6e38ed64bf6a1f0160401b830492506040015b6d04ee2d6d415b85acef81000000008310612fde576d04ee2d6d415b85acef8100000000830492506020015b662386f26fc100008310612ffc57662386f26fc10000830492506010015b6305f5e1008310613014576305f5e100830492506008015b612710831061302857612710830492506004015b6064831061303a576064830492506002015b600a8310613046576001015b92915050565b6001600160a01b038116811461065f57600080fd5b60008060006060848603121561307657600080fd5b83356130818161304c565b95602085013595506040909401359392505050565b6000602082840312156130a857600080fd5b5035919050565b600080604083850312156130c257600080fd5b82356130cd8161304c565b915060208301356130dd8161304c565b809150509250929050565b6000602082840312156130fa57600080fd5b81356131058161304c565b9392505050565b634e487b7160e01b600052604160045260246000fd5b604051601f8201601f1916810167ffffffffffffffff8111828210171561314b5761314b61310c565b604052919050565b6000602080838503121561316657600080fd5b823567ffffffffffffffff8082111561317e57600080fd5b818501915085601f83011261319257600080fd5b8135818111156131a4576131a461310c565b8060051b91506131b5848301613122565b81815291830184019184810190888411156131cf57600080fd5b938501935b838510156131ed578435825293850193908501906131d4565b98975050505050505050565b801515811461065f57600080fd5b6000806040838503121561321a57600080fd5b82356132258161304c565b915060208301356130dd816131f9565b6000806040838503121561324857600080fd5b82356132538161304c565b946020939093013593505050565b600060e0828403121561327357600080fd5b60405160e0810181811067ffffffffffffffff821117156132965761329661310c565b60405290508082356132a78161304c565b81526020838101359082015260408301356132c18161304c565b604082015260608301356132d48161304c565b60608201526080838101359082015260a08301356132f1816131f9565b60a082015260c092830135920191909152919050565b600060e0828403121561331957600080fd5b6131058383613261565b60008060006060848603121561333857600080fd5b83356133438161304c565b925060208401356133538161304c565b929592945050506040919091013590565b6020808252602e908201527f496e697469616c697a61626c653a20636f6e747261637420697320616c72656160408201526d191e481a5b9a5d1a585b1a5e995960921b606082015260800190565b634e487b7160e01b600052603260045260246000fd5b634e487b7160e01b600052601160045260246000fd5b60006000198214156133f2576133f26133c8565b5060010190565b6020808252825182820181905260009190848201906040850190845b8181101561343157835183529284019291840191600101613415565b50909695505050505050565b60005b83811015613458578181015183820152602001613440565b83811115613467576000848401525b50505050565b602081526000825180602084015261348c81604085016020870161343d565b601f01601f19169190910160400192915050565b6000602082840312156134b257600080fd5b8151613105816131f9565b6000602082840312156134cf57600080fd5b5051919050565b6000602082840312156134e857600080fd5b81516131058161304c565b6001600160a01b039384168152919092166020820152604081019190915260600190565b6000816000190483118215151615613531576135316133c8565b500290565b60008261355357634e487b7160e01b600052601260045260246000fd5b500490565b60008282101561356a5761356a6133c8565b500390565b6000806040838503121561358257600080fd5b825161358d8161304c565b6020939093015192949293505050565b81546001600160a01b03908116825260018301546020830152600283015481166040830152600383015416606082015260048201546080820152600582015460ff16151560a0820152600682015460c082015260e08101613046565b6000845161360b81846020890161343d565b606085901b6bffffffffffffffffffffffff1916908301908152835161363881601484016020880161343d565b0160140195945050505050565b81516001600160a01b03908116825260208084015190830152604080840151821690830152606080840151909116908201526080808301519082015260a08083015115159082015260c0808301519082015260e08101613046565b6020808252602b908201527f496e697469616c697a61626c653a20636f6e7472616374206973206e6f74206960408201526a6e697469616c697a696e6760a81b60608201526080019056fea2646970667358221220108f1567690cc72d244b662b8bcbbf78bf7de7f7e7e679e6adf365f6e0ca486564736f6c634300080c0033",
  "linkReferences": {},
  "deployedLinkReferences": {}
}