{
  "_format": "hh-sol-artifact-1",
  "contractName": "AdvanceMarketplaceService",
  "sourceName": "contracts/services/AdvanceMarketplaceService.sol",
  "abi": [
    {
      "anonymous": false,
      "inputs": [
        {
          "indexed": false,
          "internalType": "uint8",
          "name": "version",
          "type": "uint8"
        }
      ],
      "name": "Initialized",
      "type": "event"
    },
    {
      "inputs": [],
      "name": "_admin",
      "outputs": [
        {
          "internalType": "address",
          "name": "",
          "type": "address"
        }
      ],
      "stateMutability": "view",
      "type": "function"
    },
    {
      "inputs": [
        {
          "internalType": "uint256",
          "name": "",
          "type": "uint256"
        }
      ],
      "name": "_arrayListingId",
      "outputs": [
        {
          "internalType": "bytes32",
          "name": "",
          "type": "bytes32"
        }
      ],
      "stateMutability": "view",
      "type": "function"
    },
    {
      "inputs": [
        {
          "internalType": "bytes32",
          "name": "",
          "type": "bytes32"
        }
      ],
      "name": "_listingTokens",
      "outputs": [
        {
          "internalType": "address",
          "name": "_seller",
          "type": "address"
        },
        {
          "internalType": "address",
          "name": "_collectionContract",
          "type": "address"
        },
        {
          "internalType": "uint256",
          "name": "_tokenId",
          "type": "uint256"
        },
        {
          "internalType": "uint256",
          "name": "_price",
          "type": "uint256"
        },
        {
          "internalType": "bool",
          "name": "_closed",
          "type": "bool"
        },
        {
          "internalType": "address",
          "name": "_erc20Token",
          "type": "address"
        },
        {
          "internalType": "uint256",
          "name": "_durationTime",
          "type": "uint256"
        }
      ],
      "stateMutability": "view",
      "type": "function"
    },
    {
      "inputs": [
        {
          "internalType": "address",
          "name": "",
          "type": "address"
        },
        {
          "internalType": "uint256",
          "name": "",
          "type": "uint256"
        }
      ],
      "name": "_multiBuyOffering",
      "outputs": [
        {
          "internalType": "address",
          "name": "_offerErc20Token",
          "type": "address"
        },
        {
          "internalType": "uint256",
          "name": "_offerPrice",
          "type": "uint256"
        },
        {
          "internalType": "address",
          "name": "_buyer",
          "type": "address"
        },
        {
          "internalType": "uint256",
          "name": "_durationTime",
          "type": "uint256"
        }
      ],
      "stateMutability": "view",
      "type": "function"
    },
    {
      "inputs": [],
      "name": "_parameterAddr",
      "outputs": [
        {
          "internalType": "address",
          "name": "",
          "type": "address"
        }
      ],
      "stateMutability": "view",
      "type": "function"
    },
    {
      "inputs": [],
      "name": "arrayListingId",
      "outputs": [
        {
          "internalType": "bytes32[]",
          "name": "",
          "type": "bytes32[]"
        }
      ],
      "stateMutability": "view",
      "type": "function"
    },
    {
      "inputs": [
        {
          "internalType": "bytes32",
          "name": "_offeringId",
          "type": "bytes32"
        }
      ],
      "name": "cancelListing",
      "outputs": [],
      "stateMutability": "nonpayable",
      "type": "function"
    },
    {
      "inputs": [
        {
          "internalType": "address",
          "name": "newAdm",
          "type": "address"
        }
      ],
      "name": "changeAdmin",
      "outputs": [],
      "stateMutability": "nonpayable",
      "type": "function"
    },
    {
      "inputs": [
        {
          "internalType": "address",
          "name": "newAddr",
          "type": "address"
        }
      ],
      "name": "changeParamAddr",
      "outputs": [],
      "stateMutability": "nonpayable",
      "type": "function"
    },
    {
      "inputs": [
        {
          "internalType": "address",
          "name": "admin",
          "type": "address"
        },
        {
          "internalType": "address",
          "name": "parameterControl",
          "type": "address"
        }
      ],
      "name": "initialize",
      "outputs": [],
      "stateMutability": "nonpayable",
      "type": "function"
    },
    {
      "inputs": [
        {
          "components": [
            {
              "internalType": "address",
              "name": "_seller",
              "type": "address"
            },
            {
              "internalType": "address",
              "name": "_collectionContract",
              "type": "address"
            },
            {
              "internalType": "uint256",
              "name": "_tokenId",
              "type": "uint256"
            },
            {
              "internalType": "uint256",
              "name": "_price",
              "type": "uint256"
            },
            {
              "internalType": "bool",
              "name": "_closed",
              "type": "bool"
            },
            {
              "internalType": "address",
              "name": "_erc20Token",
              "type": "address"
            },
            {
              "internalType": "uint256",
              "name": "_durationTime",
              "type": "uint256"
            }
          ],
          "internalType": "struct Marketplace.ListingTokenData",
          "name": "listingData",
          "type": "tuple"
        }
      ],
      "name": "listToken",
      "outputs": [
        {
          "internalType": "bytes32",
          "name": "",
          "type": "bytes32"
        }
      ],
      "stateMutability": "nonpayable",
      "type": "function"
    },
    {
      "inputs": [
        {
          "internalType": "bytes32",
          "name": "offeringId",
          "type": "bytes32"
        }
      ],
      "name": "purchaseToken",
      "outputs": [],
      "stateMutability": "payable",
      "type": "function"
    },
    {
      "inputs": [
        {
          "internalType": "address",
          "name": "receiver",
          "type": "address"
        },
        {
          "internalType": "address",
          "name": "erc20Addr",
          "type": "address"
        },
        {
          "internalType": "uint256",
          "name": "amount",
          "type": "uint256"
        }
      ],
      "name": "withdraw",
      "outputs": [],
      "stateMutability": "nonpayable",
      "type": "function"
    }
  ],
  "bytecode": "0x608060405234801561001057600080fd5b50611ba4806100206000396000f3fe6080604052600436106100c25760003560e01c806372c035cf1161007f578063a3a1937c11610059578063a3a1937c14610279578063d9caed1214610327578063ed4ec20114610347578063febfd6c31461036757600080fd5b806372c035cf146102195780638f283970146102395780639299e5521461025957600080fd5b806301bc45c9146100c75780633ac1089a14610104578063485cc955146101195780635861933e14610139578063595daee11461015b5780636993dc6a14610189575b600080fd5b3480156100d357600080fd5b506034546100e7906001600160a01b031681565b6040516001600160a01b0390911681526020015b60405180910390f35b61011761011236600461174f565b610387565b005b34801561012557600080fd5b50610117610134366004611788565b6103a5565b34801561014557600080fd5b5061014e61047d565b6040516100fb91906117c1565b34801561016757600080fd5b5061017b610176366004611834565b6104d5565b6040519081526020016100fb565b34801561019557600080fd5b506101e46101a43660046118e0565b603860209081526000928352604080842090915290825290208054600182015460028301546003909301546001600160a01b039283169391929091169084565b6040516100fb94939291906001600160a01b039485168152602081019390935292166040820152606081019190915260800190565b34801561022557600080fd5b506035546100e7906001600160a01b031681565b34801561024557600080fd5b5061011761025436600461190c565b6104f8565b34801561026557600080fd5b5061011761027436600461174f565b61058a565b34801561028557600080fd5b506102e161029436600461174f565b6036602052600090815260409020805460018201546002830154600384015460048501546005909501546001600160a01b0394851695938516949293919260ff8316926101009004169087565b604080516001600160a01b039889168152968816602088015286019490945260608501929092521515608084015290921660a082015260c081019190915260e0016100fb565b34801561033357600080fd5b50610117610342366004611930565b610593565b34801561035357600080fd5b5061017b61036236600461174f565b6106ed565b34801561037357600080fd5b5061011761038236600461190c565b61070e565b61038f6107a0565b61039981336107fa565b6103a260018055565b50565b600054610100900460ff16158080156103c55750600054600160ff909116105b806103df5750303b1580156103df575060005460ff166001145b6104045760405162461bcd60e51b81526004016103fb90611971565b60405180910390fd5b6000805460ff191660011790558015610427576000805461ff0019166101001790555b6104318383611037565b8015610478576000805461ff0019169055604051600181527f7f26b83ff96e1f2b6a682f133852f6798a09c465da95921460cefb3847402498906020015b60405180910390a15b505050565b606060378054806020026020016040519081016040528092919081815260200182805480156104cb57602002820191906000526020600020905b8154815260200190600101908083116104b7575b5050505050905090565b60006104df6107a0565b6104e8826111a6565b90506104f360018055565b919050565b6034546001600160a01b03163314801561051a57506001600160a01b03811615155b6040518060400160405280600381526020016231303160e81b815250906105545760405162461bcd60e51b81526004016103fb91906119ef565b506034546001600160a01b038281169116146103a257603480546001600160a01b0383166001600160a01b031990911617905550565b6103a281611491565b61059b6107a0565b60345460408051808201909152600381526231303160e81b6020820152906001600160a01b031633146105e15760405162461bcd60e51b81526004016103fb91906119ef565b5060006001600160a01b03831661066257814710156105ff57600080fd5b6040516001600160a01b038516908390600081818185875af1925050503d8060008114610648576040519150601f19603f3d011682016040523d82523d6000602084013e61064d565b606091505b5050809150508061065d57600080fd5b6106e3565b60405163a9059cbb60e01b81526001600160a01b0385811660048301526024820184905284919082169063a9059cbb906044016020604051808303816000875af11580156106b4573d6000803e3d6000fd5b505050506040513d601f19601f820116820180604052508101906106d89190611a22565b6106e157600080fd5b505b5061047860018055565b603781815481106106fd57600080fd5b600091825260209091200154905081565b6034546001600160a01b03163314801561073057506001600160a01b03811615155b6040518060400160405280600381526020016231303160e81b8152509061076a5760405162461bcd60e51b81526004016103fb91906119ef565b506035546001600160a01b038281169116146103a257603580546001600160a01b0383166001600160a01b031990911617905550565b600260015414156107f35760405162461bcd60e51b815260206004820152601f60248201527f5265656e7472616e637947756172643a207265656e7472616e742063616c6c0060448201526064016103fb565b6002600155565b6000828152603660209081526040808320815160e08101835281546001600160a01b039081168083526001840154821683870181905260028501548487018190526003860154606080870191909152600487015460ff8116151560808089019190915261010090910490951660a080880182905260059098015460c08089019190915289519081018a528b8152998a018b90529789018a9052880189905292870188905293860187905291959294859491939115801592906109e1575060a08701516040805160c0810182526001600160a01b03808c168083526060808d0180516020860152518486015293516370a0823160e01b815260048101919091529192830191908416906370a0823190602401602060405180830381865afa158015610928573d6000803e3d6000fd5b505050506040513d601f19601f8201168201806040525081019061094c9190611a3f565b8152604051636eb1769f60e11b81526001600160a01b038c8116600483015230602483015260209092019184169063dd62ed3e90604401602060405180830381865afa1580156109a0573d6000803e3d6000fd5b505050506040513d601f19601f820116820180604052508101906109c49190611a3f565b81526020018960a001516001600160a01b03168152509150610a2e565b6040518060c001604052808a6001600160a01b031681526020018960600151815260200189606001518152602001600081526020016000815260200160006001600160a01b031681525091505b6040516331a9108f60e11b8152600481018690526001600160a01b038086169190881690636352211e90602401602060405180830381865afa158015610a78573d6000803e3d6000fd5b505050506040513d601f19601f82011682018060405250810190610a9c9190611a58565b6001600160a01b0316146040518060400160405280600381526020016203330360ec1b81525090610ae05760405162461bcd60e51b81526004016103fb91906119ef565b508215610b7a578160200151826080015110156040518060400160405280600381526020016233303560e81b81525090610b2d5760405162461bcd60e51b81526004016103fb91906119ef565b50816020015182606001511015604051806040016040528060038152602001620ccc0d60ea1b81525090610b745760405162461bcd60e51b81526004016103fb91906119ef565b50610bbe565b81602001513410156040518060400160405280600381526020016233303360e81b81525090610bbc5760405162461bcd60e51b81526004016103fb91906119ef565b505b60008a815260366020908152604091829020600401548251808401909352600383526219981960e91b9183019190915260ff1615610c0f5760405162461bcd60e51b81526004016103fb91906119ef565b508151604051632142170760e11b81526001600160a01b038816916342842e0e91610c409130918a90600401611a75565b600060405180830381600087803b158015610c5a57600080fd5b505af1158015610c6e573d6000803e3d6000fd5b50506035546040805160808101825260008082526020808301829052828401829052606083019190915282518084018452601b81527f4d41524b4554504c4143455f42454e454649545f50455243454e540000000000918101919091529151636d12dce160e01b81526001600160a01b03909316945092508391636d12dce191610cfa916004016119ef565b602060405180830381865afa158015610d17573d6000803e3d6000fd5b505050506040513d601f19601f82011682018060405250810190610d3b9190611a3f565b60408201819052610d4f576109c460408201525b604081015115610d965761271081604001518560400151610d709190611aaf565b610d7a9190611ace565b60608201819052602085018051610d92908390611af0565b9052505b8415610f0657835160408086015190516323b872dd60e01b81526001600160a01b038616926323b872dd92610dd092309190600401611a75565b6020604051808303816000875af1158015610def573d6000803e3d6000fd5b505050506040513d601f19601f82011682018060405250810190610e139190611a22565b6040518060400160405280600381526020016219981b60e91b81525090610e4d5760405162461bcd60e51b81526004016103fb91906119ef565b50895160208501516040516323b872dd60e01b81526001600160a01b038616926323b872dd92610e839230929190600401611a75565b6020604051808303816000875af1158015610ea2573d6000803e3d6000fd5b505050506040513d601f19601f82011682018060405250810190610ec69190611a22565b6040518060400160405280600381526020016219981b60e91b81525090610f005760405162461bcd60e51b81526004016103fb91906119ef565b50610fd6565b60408051808201909152600381526233303360e81b602082015247610f3e5760405162461bcd60e51b81526004016103fb91906119ef565b50895160208501516040516000926001600160a01b031691908381818185875af1925050503d8060008114610f8f576040519150601f19603f3d011682016040523d82523d6000602084013e610f94565b606091505b50509050806040518060400160405280600381526020016219981b60e91b81525090610fd35760405162461bcd60e51b81526004016103fb91906119ef565b50505b60008c815260366020526040808220600401805460ff19166001179055855190516001600160a01b03909116918e917f3004f67c11f5aa47210c03ff25c0f48c410d0a417b33292fca39f25ba8d2dddf9190a3505050505050505050505050565b600054610100900460ff16158080156110575750600054600160ff909116105b806110715750303b158015611071575060005460ff166001145b61108d5760405162461bcd60e51b81526004016103fb90611971565b6000805460ff1916600117905580156110b0576000805461ff0019166101001790555b60408051808201909152600381526203130360ec1b60208201526001600160a01b0384166110f15760405162461bcd60e51b81526004016103fb91906119ef565b5060408051808201909152600381526203130360ec1b60208201526001600160a01b0383166111335760405162461bcd60e51b81526004016103fb91906119ef565b50603480546001600160a01b038086166001600160a01b03199283161790925560358054928516929091169190911790558015610478576000805461ff0019169055604051600181527f7f26b83ff96e1f2b6a682f133852f6798a09c465da95921460cefb38474024989060200161046f565b60006111b06107a0565b602082015160408084015190516331a9108f60e11b815233916001600160a01b03841691636352211e916111ea9160040190815260200190565b602060405180830381865afa158015611207573d6000803e3d6000fd5b505050506040513d601f19601f8201168201806040525081019061122b9190611a58565b6001600160a01b0316146040518060400160405280600381526020016203330360ec1b8152509061126f5760405162461bcd60e51b81526004016103fb91906119ef565b5060405163e985e9c560e01b81523360048201523060248201526000906001600160a01b0383169063e985e9c590604401602060405180830381865afa1580156112bd573d6000803e3d6000fd5b505050506040513d601f19601f820116820180604052508101906112e19190611a22565b60408051808201909152600381526233303160e81b60208201529091506001821515146113215760405162461bcd60e51b81526004016103fb91906119ef565b506033805490600061133283611b07565b919050555060006113446033546115d9565b856020015161135687604001516115d9565b60405160200161136893929190611b22565b60408051601f19818403018152828252805160209182012060008181526036835283812080546001600160a01b0319908116339081178355948c018051600180850180546001600160a01b03938416951694909417909355968d018051600285015560608e018051600386015560c08f0151600586015560a08f015160049095018054958a1661010002610100600160a81b0319909616959095179094556037805493840181559094527f42a7b7dd785cd69714a189dffb3fd7d7174edc9ece837694ce50f7078f7c31ae9091018490555191519051929650929493169285927fa2c73c734a10dc845099c99c4c34e3db3329eb72b7061d3eafb5ecfb877c593c9261147c92918252602082015260400190565b60405180910390a4925050506104f360018055565b600081815260366020908152604091829020548251808401909352600383526203330360ec1b918301919091526001600160a01b031633146114e65760405162461bcd60e51b81526004016103fb91906119ef565b5060008181526036602052604090206004015460ff161561150657600080fd5b6000818152603660205260409081902060018101546002909101549151632142170760e11b81526001600160a01b039091169182916342842e0e916115519130913391600401611a75565b600060405180830381600087803b15801561156b57600080fd5b505af115801561157f573d6000803e3d6000fd5b50505060008381526036602052604080822060048101805460ff191660011790555490516001600160a01b03909116925084917fee847753f7429cae2eda1655de552711ce889fc0679c05a3026b65f98bc6487791a35050565b606060006115e683611676565b600101905060008167ffffffffffffffff81111561160657611606611805565b6040519080825280601f01601f191660200182016040528015611630576020820181803683370190505b5090508181016020015b600019016f181899199a1a9b1b9c1cb0b131b232b360811b600a86061a8153600a85049450846116695761166e565b61163a565b509392505050565b60008072184f03e93ff9f4daa797ed6e38ed64bf6a1f0160401b83106116b55772184f03e93ff9f4daa797ed6e38ed64bf6a1f0160401b830492506040015b6d04ee2d6d415b85acef810000000083106116e1576d04ee2d6d415b85acef8100000000830492506020015b662386f26fc1000083106116ff57662386f26fc10000830492506010015b6305f5e1008310611717576305f5e100830492506008015b612710831061172b57612710830492506004015b6064831061173d576064830492506002015b600a8310611749576001015b92915050565b60006020828403121561176157600080fd5b5035919050565b6001600160a01b03811681146103a257600080fd5b80356104f381611768565b6000806040838503121561179b57600080fd5b82356117a681611768565b915060208301356117b681611768565b809150509250929050565b6020808252825182820181905260009190848201906040850190845b818110156117f9578351835292840192918401916001016117dd565b50909695505050505050565b634e487b7160e01b600052604160045260246000fd5b80151581146103a257600080fd5b80356104f38161181b565b600060e0828403121561184657600080fd5b60405160e0810181811067ffffffffffffffff8211171561187757634e487b7160e01b600052604160045260246000fd5b6040526118838361177d565b81526118916020840161177d565b602082015260408301356040820152606083013560608201526118b660808401611829565b60808201526118c760a0840161177d565b60a082015260c083013560c08201528091505092915050565b600080604083850312156118f357600080fd5b82356118fe81611768565b946020939093013593505050565b60006020828403121561191e57600080fd5b813561192981611768565b9392505050565b60008060006060848603121561194557600080fd5b833561195081611768565b9250602084013561196081611768565b929592945050506040919091013590565b6020808252602e908201527f496e697469616c697a61626c653a20636f6e747261637420697320616c72656160408201526d191e481a5b9a5d1a585b1a5e995960921b606082015260800190565b60005b838110156119da5781810151838201526020016119c2565b838111156119e9576000848401525b50505050565b6020815260008251806020840152611a0e8160408501602087016119bf565b601f01601f19169190910160400192915050565b600060208284031215611a3457600080fd5b81516119298161181b565b600060208284031215611a5157600080fd5b5051919050565b600060208284031215611a6a57600080fd5b815161192981611768565b6001600160a01b039384168152919092166020820152604081019190915260600190565b634e487b7160e01b600052601160045260246000fd5b6000816000190483118215151615611ac957611ac9611a99565b500290565b600082611aeb57634e487b7160e01b600052601260045260246000fd5b500490565b600082821015611b0257611b02611a99565b500390565b6000600019821415611b1b57611b1b611a99565b5060010190565b60008451611b348184602089016119bf565b606085901b6bffffffffffffffffffffffff19169083019081528351611b618160148401602088016119bf565b016014019594505050505056fea26469706673582212207ceac94cec74cb3418e265ad5e806d339035cd60abec60e9bc3092650273b91064736f6c634300080c0033",
  "linkReferences": {},
  "deployedLinkReferences": {}
}