{
  "_format": "hh-sol-artifact-1",
  "contractName": "AdvanceMarketplaceService",
  "sourceName": "contracts/services/AdvanceMarketplaceService.sol",
  "abi": [
    {
      "anonymous": false,
      "inputs": [
        {
          "indexed": false,
          "internalType": "uint8",
          "name": "version",
          "type": "uint8"
        }
      ],
      "name": "Initialized",
      "type": "event"
    },
    {
      "inputs": [],
      "name": "_admin",
      "outputs": [
        {
          "internalType": "address",
          "name": "",
          "type": "address"
        }
      ],
      "stateMutability": "view",
      "type": "function"
    },
    {
      "inputs": [
        {
          "internalType": "address",
          "name": "",
          "type": "address"
        }
      ],
      "name": "_allowableERC20MakeListToken",
      "outputs": [
        {
          "internalType": "bool",
          "name": "",
          "type": "bool"
        }
      ],
      "stateMutability": "view",
      "type": "function"
    },
    {
      "inputs": [
        {
          "internalType": "address",
          "name": "",
          "type": "address"
        }
      ],
      "name": "_allowableERC20MakeOffer",
      "outputs": [
        {
          "internalType": "bool",
          "name": "",
          "type": "bool"
        }
      ],
      "stateMutability": "view",
      "type": "function"
    },
    {
      "inputs": [
        {
          "internalType": "uint256",
          "name": "",
          "type": "uint256"
        }
      ],
      "name": "_arrayListingId",
      "outputs": [
        {
          "internalType": "bytes32",
          "name": "",
          "type": "bytes32"
        }
      ],
      "stateMutability": "view",
      "type": "function"
    },
    {
      "inputs": [
        {
          "internalType": "uint256",
          "name": "",
          "type": "uint256"
        }
      ],
      "name": "_arrayMakeOfferId",
      "outputs": [
        {
          "internalType": "bytes32",
          "name": "",
          "type": "bytes32"
        }
      ],
      "stateMutability": "view",
      "type": "function"
    },
    {
      "inputs": [
        {
          "internalType": "address",
          "name": "",
          "type": "address"
        },
        {
          "internalType": "uint256",
          "name": "",
          "type": "uint256"
        },
        {
          "internalType": "uint256",
          "name": "",
          "type": "uint256"
        }
      ],
      "name": "_listingTokenDataMapping",
      "outputs": [
        {
          "internalType": "address",
          "name": "_collectionContract",
          "type": "address"
        },
        {
          "internalType": "uint256",
          "name": "_tokenId",
          "type": "uint256"
        },
        {
          "internalType": "address",
          "name": "_seller",
          "type": "address"
        },
        {
          "internalType": "address",
          "name": "_erc20Token",
          "type": "address"
        },
        {
          "internalType": "uint256",
          "name": "_price",
          "type": "uint256"
        },
        {
          "internalType": "bool",
          "name": "_closed",
          "type": "bool"
        },
        {
          "internalType": "uint256",
          "name": "_durationTime",
          "type": "uint256"
        }
      ],
      "stateMutability": "view",
      "type": "function"
    },
    {
      "inputs": [
        {
          "internalType": "address",
          "name": "",
          "type": "address"
        },
        {
          "internalType": "uint256",
          "name": "",
          "type": "uint256"
        }
      ],
      "name": "_listingTokenIds",
      "outputs": [
        {
          "internalType": "uint256",
          "name": "",
          "type": "uint256"
        }
      ],
      "stateMutability": "view",
      "type": "function"
    },
    {
      "inputs": [
        {
          "internalType": "bytes32",
          "name": "",
          "type": "bytes32"
        }
      ],
      "name": "_listingTokens",
      "outputs": [
        {
          "internalType": "address",
          "name": "_collectionContract",
          "type": "address"
        },
        {
          "internalType": "uint256",
          "name": "_tokenId",
          "type": "uint256"
        },
        {
          "internalType": "address",
          "name": "_seller",
          "type": "address"
        },
        {
          "internalType": "address",
          "name": "_erc20Token",
          "type": "address"
        },
        {
          "internalType": "uint256",
          "name": "_price",
          "type": "uint256"
        },
        {
          "internalType": "bool",
          "name": "_closed",
          "type": "bool"
        },
        {
          "internalType": "uint256",
          "name": "_durationTime",
          "type": "uint256"
        }
      ],
      "stateMutability": "view",
      "type": "function"
    },
    {
      "inputs": [
        {
          "internalType": "address",
          "name": "",
          "type": "address"
        },
        {
          "internalType": "uint256",
          "name": "",
          "type": "uint256"
        },
        {
          "internalType": "uint256",
          "name": "",
          "type": "uint256"
        }
      ],
      "name": "_makeOfferDataMapping",
      "outputs": [
        {
          "internalType": "address",
          "name": "_collectionContract",
          "type": "address"
        },
        {
          "internalType": "uint256",
          "name": "_tokenId",
          "type": "uint256"
        },
        {
          "internalType": "address",
          "name": "_buyer",
          "type": "address"
        },
        {
          "internalType": "address",
          "name": "_erc20Token",
          "type": "address"
        },
        {
          "internalType": "uint256",
          "name": "_price",
          "type": "uint256"
        },
        {
          "internalType": "bool",
          "name": "_closed",
          "type": "bool"
        },
        {
          "internalType": "uint256",
          "name": "_durationTime",
          "type": "uint256"
        }
      ],
      "stateMutability": "view",
      "type": "function"
    },
    {
      "inputs": [
        {
          "internalType": "address",
          "name": "",
          "type": "address"
        },
        {
          "internalType": "uint256",
          "name": "",
          "type": "uint256"
        }
      ],
      "name": "_makeOfferTokenIds",
      "outputs": [
        {
          "internalType": "uint256",
          "name": "",
          "type": "uint256"
        }
      ],
      "stateMutability": "view",
      "type": "function"
    },
    {
      "inputs": [
        {
          "internalType": "bytes32",
          "name": "",
          "type": "bytes32"
        }
      ],
      "name": "_makeOfferTokens",
      "outputs": [
        {
          "internalType": "address",
          "name": "_collectionContract",
          "type": "address"
        },
        {
          "internalType": "uint256",
          "name": "_tokenId",
          "type": "uint256"
        },
        {
          "internalType": "address",
          "name": "_buyer",
          "type": "address"
        },
        {
          "internalType": "address",
          "name": "_erc20Token",
          "type": "address"
        },
        {
          "internalType": "uint256",
          "name": "_price",
          "type": "uint256"
        },
        {
          "internalType": "bool",
          "name": "_closed",
          "type": "bool"
        },
        {
          "internalType": "uint256",
          "name": "_durationTime",
          "type": "uint256"
        }
      ],
      "stateMutability": "view",
      "type": "function"
    },
    {
      "inputs": [],
      "name": "_parameterAddr",
      "outputs": [
        {
          "internalType": "address",
          "name": "",
          "type": "address"
        }
      ],
      "stateMutability": "view",
      "type": "function"
    },
    {
      "inputs": [
        {
          "internalType": "bytes32",
          "name": "offerId",
          "type": "bytes32"
        }
      ],
      "name": "acceptMakeOffer",
      "outputs": [],
      "stateMutability": "nonpayable",
      "type": "function"
    },
    {
      "inputs": [
        {
          "internalType": "bytes32",
          "name": "_offeringId",
          "type": "bytes32"
        }
      ],
      "name": "cancelListing",
      "outputs": [],
      "stateMutability": "nonpayable",
      "type": "function"
    },
    {
      "inputs": [
        {
          "internalType": "bytes32",
          "name": "offerId",
          "type": "bytes32"
        }
      ],
      "name": "cancelMakeOffer",
      "outputs": [],
      "stateMutability": "nonpayable",
      "type": "function"
    },
    {
      "inputs": [
        {
          "internalType": "address",
          "name": "newAdm",
          "type": "address"
        }
      ],
      "name": "changeAdmin",
      "outputs": [],
      "stateMutability": "nonpayable",
      "type": "function"
    },
    {
      "inputs": [
        {
          "internalType": "address",
          "name": "newAddr",
          "type": "address"
        }
      ],
      "name": "changeParamAddr",
      "outputs": [],
      "stateMutability": "nonpayable",
      "type": "function"
    },
    {
      "inputs": [
        {
          "internalType": "address",
          "name": "admin",
          "type": "address"
        },
        {
          "internalType": "address",
          "name": "parameterControl",
          "type": "address"
        }
      ],
      "name": "initialize",
      "outputs": [],
      "stateMutability": "nonpayable",
      "type": "function"
    },
    {
      "inputs": [
        {
          "components": [
            {
              "internalType": "address",
              "name": "_collectionContract",
              "type": "address"
            },
            {
              "internalType": "uint256",
              "name": "_tokenId",
              "type": "uint256"
            },
            {
              "internalType": "address",
              "name": "_seller",
              "type": "address"
            },
            {
              "internalType": "address",
              "name": "_erc20Token",
              "type": "address"
            },
            {
              "internalType": "uint256",
              "name": "_price",
              "type": "uint256"
            },
            {
              "internalType": "bool",
              "name": "_closed",
              "type": "bool"
            },
            {
              "internalType": "uint256",
              "name": "_durationTime",
              "type": "uint256"
            }
          ],
          "internalType": "struct Marketplace.ListingTokenData",
          "name": "listingData",
          "type": "tuple"
        }
      ],
      "name": "listToken",
      "outputs": [
        {
          "internalType": "bytes32",
          "name": "",
          "type": "bytes32"
        }
      ],
      "stateMutability": "nonpayable",
      "type": "function"
    },
    {
      "inputs": [
        {
          "components": [
            {
              "internalType": "address",
              "name": "_collectionContract",
              "type": "address"
            },
            {
              "internalType": "uint256",
              "name": "_tokenId",
              "type": "uint256"
            },
            {
              "internalType": "address",
              "name": "_buyer",
              "type": "address"
            },
            {
              "internalType": "address",
              "name": "_erc20Token",
              "type": "address"
            },
            {
              "internalType": "uint256",
              "name": "_price",
              "type": "uint256"
            },
            {
              "internalType": "bool",
              "name": "_closed",
              "type": "bool"
            },
            {
              "internalType": "uint256",
              "name": "_durationTime",
              "type": "uint256"
            }
          ],
          "internalType": "struct Marketplace.MakeOfferData",
          "name": "makeOfferData",
          "type": "tuple"
        }
      ],
      "name": "makeOffer",
      "outputs": [
        {
          "internalType": "bytes32",
          "name": "",
          "type": "bytes32"
        }
      ],
      "stateMutability": "nonpayable",
      "type": "function"
    },
    {
      "inputs": [
        {
          "components": [
            {
              "internalType": "address",
              "name": "_collectionContract",
              "type": "address"
            },
            {
              "internalType": "uint256[]",
              "name": "_tokenIds",
              "type": "uint256[]"
            },
            {
              "internalType": "address",
              "name": "_buyer",
              "type": "address"
            },
            {
              "internalType": "address",
              "name": "_erc20Token",
              "type": "address"
            },
            {
              "internalType": "uint256",
              "name": "_price",
              "type": "uint256"
            },
            {
              "internalType": "bool",
              "name": "_closed",
              "type": "bool"
            },
            {
              "internalType": "uint256",
              "name": "_durationTime",
              "type": "uint256"
            }
          ],
          "internalType": "struct Marketplace.MakeOfferCollectionData",
          "name": "makeOfferCollectionData",
          "type": "tuple"
        }
      ],
      "name": "makeOfferCollection",
      "outputs": [
        {
          "internalType": "bytes32[]",
          "name": "result",
          "type": "bytes32[]"
        }
      ],
      "stateMutability": "nonpayable",
      "type": "function"
    },
    {
      "inputs": [
        {
          "internalType": "bytes32",
          "name": "offeringId",
          "type": "bytes32"
        }
      ],
      "name": "purchaseToken",
      "outputs": [],
      "stateMutability": "payable",
      "type": "function"
    },
    {
      "inputs": [
        {
          "internalType": "address",
          "name": "erc20",
          "type": "address"
        },
        {
          "internalType": "bool",
          "name": "allow",
          "type": "bool"
        }
      ],
      "name": "setApproveERC20ListToken",
      "outputs": [],
      "stateMutability": "nonpayable",
      "type": "function"
    },
    {
      "inputs": [
        {
          "internalType": "address",
          "name": "erc20",
          "type": "address"
        },
        {
          "internalType": "bool",
          "name": "allow",
          "type": "bool"
        }
      ],
      "name": "setApproveERC20MakeOffer",
      "outputs": [],
      "stateMutability": "nonpayable",
      "type": "function"
    },
    {
      "inputs": [
        {
          "internalType": "bytes32[]",
          "name": "offers",
          "type": "bytes32[]"
        }
      ],
      "name": "sweep",
      "outputs": [],
      "stateMutability": "payable",
      "type": "function"
    },
    {
      "inputs": [
        {
          "internalType": "bytes32",
          "name": "offerId",
          "type": "bytes32"
        },
        {
          "internalType": "uint256",
          "name": "price",
          "type": "uint256"
        }
      ],
      "name": "updateListingPrice",
      "outputs": [],
      "stateMutability": "nonpayable",
      "type": "function"
    },
    {
      "inputs": [
        {
          "internalType": "bytes32",
          "name": "offerId",
          "type": "bytes32"
        },
        {
          "internalType": "uint256",
          "name": "price",
          "type": "uint256"
        }
      ],
      "name": "updateMakeOfferPrice",
      "outputs": [],
      "stateMutability": "nonpayable",
      "type": "function"
    },
    {
      "inputs": [
        {
          "internalType": "address",
          "name": "erc20Addr",
          "type": "address"
        },
        {
          "internalType": "uint256",
          "name": "amount",
          "type": "uint256"
        }
      ],
      "name": "withdraw",
      "outputs": [],
      "stateMutability": "nonpayable",
      "type": "function"
    }
  ],
  "bytecode": "0x608060405234801561001057600080fd5b506142b1806100206000396000f3fe6080604052600436106101b75760003560e01c80639c9b62aa116100ec578063e5026b8b1161008a578063f1f2df0e11610064578063f1f2df0e146105e9578063f3fef3a314610609578063f40cb02d14610629578063febfd6c31461064957600080fd5b8063e5026b8b14610589578063eab651d8146105a9578063ed4ec201146105c957600080fd5b8063bd7ec0c2116100c6578063bd7ec0c2146104f9578063d299a08614610529578063d2abb69c14610549578063d9e87e611461056957600080fd5b80639c9b62aa1461044f578063a25d6dce1461046f578063a3a1937c1461048f57600080fd5b8063485cc9551161015957806372c035cf1161013357806372c035cf146103cf5780638f283970146103ef5780639142e6a81461040f5780639299e5521461042f57600080fd5b8063485cc9551461035c5780635b06e64a1461037c5780636852168a146103bc57600080fd5b80632670ab0f116101955780632670ab0f146102905780633ac1089a146102bd5780633dd72c40146102d25780633e93d0cd1461033c57600080fd5b806301bc45c9146101bc57806314646f6d146101f95780631fd4d2ed14610262575b600080fd5b3480156101c857600080fd5b506034546101dc906001600160a01b031681565b6040516001600160a01b0390911681526020015b60405180910390f35b34801561020557600080fd5b50610219610214366004613a8e565b610669565b604080516001600160a01b039889168152602081019790975294871694860194909452949091166060840152608083015291151560a082015260c081019190915260e0016101f0565b34801561026e57600080fd5b5061028261027d366004613ac3565b6106e2565b6040519081526020016101f0565b34801561029c57600080fd5b506102b06102ab366004613bf4565b610703565b6040516101f09190613cbc565b6102d06102cb366004613ac3565b6109cf565b005b3480156102de57600080fd5b506102196102ed366004613ac3565b60386020526000908152604090208054600182015460028301546003840154600485015460058601546006909601546001600160a01b03958616969495938416949290931692909160ff169087565b34801561034857600080fd5b506102d0610357366004613d00565b6109ec565b34801561036857600080fd5b506102d0610377366004613d22565b610a3b565b34801561038857600080fd5b506103ac610397366004613d5b565b603f6020526000908152604090205460ff1681565b60405190151581526020016101f0565b6102d06103ca366004613d7f565b610b09565b3480156103db57600080fd5b506035546101dc906001600160a01b031681565b3480156103fb57600080fd5b506102d061040a366004613d5b565b610c6e565b34801561041b57600080fd5b506102d061042a366004613e10565b610d00565b34801561043b57600080fd5b506102d061044a366004613ac3565b610d72565b34801561045b57600080fd5b506102d061046a366004613d00565b610d7b565b34801561047b57600080fd5b5061028261048a366004613e3e565b610dca565b34801561049b57600080fd5b506102196104aa366004613ac3565b60366020526000908152604090208054600182015460028301546003840154600485015460058601546006909601546001600160a01b03958616969495938416949290931692909160ff169087565b34801561050557600080fd5b506103ac610514366004613d5b565b603e6020526000908152604090205460ff1681565b34801561053557600080fd5b50610219610544366004613a8e565b610dfb565b34801561055557600080fd5b50610282610564366004613ef2565b610e23565b34801561057557600080fd5b506102d0610584366004613ac3565b610f72565b34801561059557600080fd5b506102d06105a4366004613e10565b610f83565b3480156105b557600080fd5b506102826105c4366004613e3e565b610ff5565b3480156105d557600080fd5b506102826105e4366004613ac3565b611011565b3480156105f557600080fd5b506102d0610604366004613ac3565b611021565b34801561061557600080fd5b506102d0610624366004613e3e565b61102a565b34801561063557600080fd5b50610282610644366004613ef2565b611247565b34801561065557600080fd5b506102d0610664366004613d5b565b611396565b603c602052826000526040600020602052816000526040600020818154811061069157600080fd5b600091825260209091206007909102018054600182015460028301546003840154600485015460058601546006909601546001600160a01b03958616995093975091841695509092169260ff169087565b603981815481106106f257600080fd5b600091825260209091200154905081565b6060818101516001600160a01b03166000908152603e6020908152604091829020548251808401909352600383526233303760e81b9183019190915260ff166107685760405162461bcd60e51b815260040161075f9190613f3a565b60405180910390fd5b5081602001515167ffffffffffffffff81111561078757610787613adc565b6040519080825280602002602001820160405280156107b0578160200160208202803683370190505b50905060005b8260200151518110156109925760006040518060e0016040528085600001516001600160a01b03168152602001856020015184815181106107f9576107f9613f6d565b60200260200101518152602001336001600160a01b0316815260200185606001516001600160a01b03168152602001856020015151866080015161083d9190613f99565b81526020016000151581526020018560c001518152509050600061086082611428565b600081815260386020908152604080832080546001600160a01b039081168552603c845282852060018084018054885291865284872080548083018255908852868820855460079092020180549185166001600160a01b031992831617815583548184015560028087015490820180549187169184169190911790556003808701549082018054918716919093161790915560048086015490820155600580860154908201805460ff191660ff909216151591909117905560068086015491015583549092168652603d85529285209254835491820184559285529290932090910155855191925090829086908690811061095d5761095d613f6d565b60200260200101818152505062030d405a101561097c57505050610992565b505050808061098a90613fbb565b9150506107b6565b507fc123571abb841e956264da4696ac135e6e5ac168d2b17cfdf2b1fb4dd1e30ce1816040516109c29190613cbc565b60405180910390a1919050565b6109d76116d0565b6109e08161172a565b6109e960018055565b50565b600081116109f957600080fd5b60008281526036602052604080822060040183905551829184917fd427e420f535ff7b1631b634183f475083a8a062ca123f6633ae118eafd329a49190a35050565b600054610100900460ff1615808015610a5b5750600054600160ff909116105b80610a755750303b158015610a75575060005460ff166001145b610a915760405162461bcd60e51b815260040161075f90613fd6565b6000805460ff191660011790558015610ab4576000805461ff0019166101001790555b610abe838361259d565b8015610b04576000805461ff0019169055604051600181527f7f26b83ff96e1f2b6a682f133852f6798a09c465da95921460cefb38474024989060200160405180910390a15b505050565b610b116116d0565b606481511115610b2057600080fd5b6000815167ffffffffffffffff811115610b3c57610b3c613adc565b604051908082528060200260200182016040528015610b65578160200160208202803683370190505b50905060005b8251811015610c2c5760366000848381518110610b8a57610b8a613f6d565b60209081029190910181015182528101919091526040016000206005015460ff16610c0a57610bd1838281518110610bc457610bc4613f6d565b602002602001015161172a565b828181518110610be357610be3613f6d565b6020026020010151828281518110610bfd57610bfd613f6d565b6020026020010181815250505b62030d405a1015610c1a57610c2c565b80610c2481613fbb565b915050610b6b565b507f158dd3c50fd0d637d65e59a4fe2a179d6ec485730ab6a010b2329e8f0484c8b881604051610c5c9190613cbc565b60405180910390a1506109e960018055565b6034546001600160a01b031633148015610c9057506001600160a01b03811615155b6040518060400160405280600381526020016231303160e81b81525090610cca5760405162461bcd60e51b815260040161075f9190613f3a565b506034546001600160a01b038281169116146109e957603480546001600160a01b0383166001600160a01b031990911617905550565b60345460408051808201909152600381526231303160e81b6020820152906001600160a01b03163314610d465760405162461bcd60e51b815260040161075f9190613f3a565b506001600160a01b03919091166000908152603e60205260409020805460ff1916911515919091179055565b6109e9816126d2565b60008111610d8857600080fd5b60008281526038602052604080822060040183905551829184917f3c1b9515c85fbdd17ae5c958c9173645c3acd8f86d5d73f6ab9ea580c2a5b3119190a35050565b603d6020528160005260406000208181548110610de657600080fd5b90600052602060002001600091509150505481565b603a602052826000526040600020602052816000526040600020818154811061069157600080fd5b60608101516001600160a01b03166000908152603e60209081526040808320548151808301909252600382526233303760e81b928201929092529060ff16610e7e5760405162461bcd60e51b815260040161075f9190613f3a565b506000610e8a83611428565b600081815260386020908152604080832080546001600160a01b039081168552603c845282852060018084018054885291865284872080548083018255908852868820855460079092020180549185166001600160a01b031992831617815583548184015560028087015490820180549187169184169190911790556003808701549082018054918716919093161790915560048086015490820155600580860154908201805460ff191660ff909216151591909117905560068086015491015592549091168552603d84529184209154825491820183559184529190922001559392505050565b610f7a6116d0565b6109e0816127a4565b60345460408051808201909152600381526231303160e81b6020820152906001600160a01b03163314610fc95760405162461bcd60e51b815260040161075f9190613f3a565b506001600160a01b03919091166000908152603f60205260409020805460ff1916911515919091179055565b603b6020528160005260406000208181548110610de657600080fd5b603781815481106106f257600080fd5b6109e9816132ac565b6110326116d0565b60345460408051808201909152600381526231303160e81b6020820152906001600160a01b031633146110785760405162461bcd60e51b815260040161075f9190613f3a565b50603554604080518082018252601f81527f4d494e545f4e46545f4f50455241544f525f54524541535552455f41444452006020820152905163bf40fac160e01b815233926001600160a01b031691600091839163bf40fac1916110df9190600401613f3a565b602060405180830381865afa1580156110fc573d6000803e3d6000fd5b505050506040513d601f19601f820116820180604052508101906111209190614024565b90506001600160a01b03811615611135578092505b60006001600160a01b0386166111b5578447101561115257600080fd5b6040516001600160a01b038516908690600081818185875af1925050503d806000811461119b576040519150601f19603f3d011682016040523d82523d6000602084013e6111a0565b606091505b505080915050806111b057600080fd5b611236565b60405163a9059cbb60e01b81526001600160a01b0385811660048301526024820187905287919082169063a9059cbb906044016020604051808303816000875af1158015611207573d6000803e3d6000fd5b505050506040513d601f19601f8201168201806040525081019061122b9190614041565b61123457600080fd5b505b5050505061124360018055565b5050565b60608101516001600160a01b03166000908152603f60209081526040808320548151808301909252600382526233303760e81b928201929092529060ff166112a25760405162461bcd60e51b815260040161075f9190613f3a565b5060006112ae83613373565b600081815260366020908152604080832080546001600160a01b039081168552603a845282852060018084018054885291865284872080548083018255908852868820855460079092020180549185166001600160a01b031992831617815583548184015560028087015490820180549187169184169190911790556003808701549082018054918716919093161790915560048086015490820155600580860154908201805460ff191660ff909216151591909117905560068086015491015592549091168552603b84529184209154825491820183559184529190922001559392505050565b6034546001600160a01b0316331480156113b857506001600160a01b03811615155b6040518060400160405280600381526020016231303160e81b815250906113f25760405162461bcd60e51b815260040161075f9190613f3a565b506035546001600160a01b038281169116146109e957603580546001600160a01b0383166001600160a01b031990911617905550565b606081015160408051808201909152600381526203130360ec1b60208201526000916001600160a01b03166114705760405162461bcd60e51b815260040161075f9190613f3a565b50815160408051808201909152600381526203130360ec1b6020820152906001600160a01b03166114b45760405162461bcd60e51b815260040161075f9190613f3a565b5060008260800151116040518060400160405280600381526020016206660760eb1b815250906114f75760405162461bcd60e51b815260040161075f9190613f3a565b5060608201516080830151604051636eb1769f60e11b81523360048201523060248201526001600160a01b0383169063dd62ed3e90604401602060405180830381865afa15801561154c573d6000803e3d6000fd5b505050506040513d601f19601f82011682018060405250810190611570919061405e565b101561157b57600080fd5b6033805490600061158b83613fbb565b9190505550600061159d603354613664565b845160208601516115ad90613664565b6040516020016115bf93929190614077565b60408051808303601f190181528282528051602091820120600081815260388352928320885181546001600160a01b03199081166001600160a01b03928316178355938a015160018084019190915560028301805460608d01516003860180548916919095161790935560808c0151600485015560a08c015160058501805460ff191691151591909117905560c08c01516006909401939093559316331790556039805492830181559092527fdc16fef70f8d5ddbc01ee3d903d1e69c18a3c7be080eb86a81e0578814ee58d301819055915081907f1101875263abf1b7c3fc9cf51275180975f69f768a3c09e1b453fa0cad6f29b1906116c19087906140c3565b60405180910390a29392505050565b600260015414156117235760405162461bcd60e51b815260206004820152601f60248201527f5265656e7472616e637947756172643a207265656e7472616e742063616c6c00604482015260640161075f565b6002600155565b600081815260366020908152604091829020825160e08101845281546001600160a01b03908116825260018301549382019390935260028201548316938101939093526003810154909116606083015260048101546080830152600581015460ff1615801560a0840181905260069092015460c0840152906117bb575060c081015115806117bb57508060c0015142105b6040518060400160405280600381526020016219981960e91b815250906117f55760405162461bcd60e51b815260040161075f9190613f3a565b506000828152603660209081526040808320600501805460ff191660011790558351606080860151835160e08101855286815294850186905292840185905283018490526080830184905260a0830184905260c08301939093526001600160a01b0316151590600082156119ba57846060015190506040518060e00160405280336001600160a01b0316815260200186604001516001600160a01b031681526020018660800151815260200186608001518152602001826001600160a01b03166370a08231336040518263ffffffff1660e01b81526004016118e691906001600160a01b0391909116815260200190565b602060405180830381865afa158015611903573d6000803e3d6000fd5b505050506040513d601f19601f82011682018060405250810190611927919061405e565b8152604051636eb1769f60e11b81523360048201523060248201526020909101906001600160a01b0384169063dd62ed3e90604401602060405180830381865afa158015611979573d6000803e3d6000fd5b505050506040513d601f19601f8201168201806040525081019061199d919061405e565b815260200186606001516001600160a01b03168152509150611a1a565b6040518060e00160405280336001600160a01b0316815260200186604001516001600160a01b031681526020018660800151815260200186608001518152602001600081526020016000815260200160006001600160a01b031681525091505b84604001516001600160a01b0316846001600160a01b0316636352211e87602001516040518263ffffffff1660e01b8152600401611a5a91815260200190565b602060405180830381865afa158015611a77573d6000803e3d6000fd5b505050506040513d601f19601f82011682018060405250810190611a9b9190614024565b6001600160a01b0316146040518060400160405280600381526020016203330360ec1b81525090611adf5760405162461bcd60e51b815260040161075f9190613f3a565b508215611b715760408083015160a08401518251808401909352600383526233303560e81b60208401521015611b285760405162461bcd60e51b815260040161075f9190613f3a565b506040808301516080840151825180840190935260038352620ccc0d60ea1b60208401521015611b6b5760405162461bcd60e51b815260040161075f9190613f3a565b50611bb1565b6040808301518151808301909252600382526233303360e81b6020830152341015611baf5760405162461bcd60e51b815260040161075f9190613f3a565b505b602080830151835191870151604051632142170760e11b81526001600160a01b038816936342842e0e93611be993909260040161411e565b600060405180830381600087803b158015611c0357600080fd5b505af1158015611c17573d6000803e3d6000fd5b50506035546040805160808101825260008082526020808301829052828401829052606083019190915282518084018452601b81527f4d41524b4554504c4143455f42454e454649545f50455243454e540000000000918101919091529151636d12dce160e01b81526001600160a01b03909316945092508391636d12dce191611ca391600401613f3a565b602060405180830381865afa158015611cc0573d6000803e3d6000fd5b505050506040513d601f19601f82011682018060405250810190611ce4919061405e565b60408201819052611cf75760fa60408201525b604081015115611d3e5761271081604001518560600151611d189190614142565b611d229190613f99565b60608201819052604085018051611d3a908390614161565b9052505b6040516301ffc9a760e01b815263152a902d60e11b60048201526001600160a01b038716906301ffc9a790602401602060405180830381865afa158015611d89573d6000803e3d6000fd5b505050506040513d601f19601f82011682018060405250810190611dad9190614041565b15611e645786516020880151606086015160405163152a902d60e11b81526004810192909252602482015260009081906001600160a01b03841690632a55205a906044016040805180830381865afa158015611e0d573d6000803e3d6000fd5b505050506040513d601f19601f82011682018060405250810190611e319190614178565b602086018190526001600160a01b03821686526040890180519294509092508291611e5d908390614161565b9052505050505b604080518082018252601f81527f4d494e545f4e46545f4f50455241544f525f54524541535552455f41444452006020820152905163bf40fac160e01b815230916000916001600160a01b0386169163bf40fac191611ec69190600401613f3a565b602060405180830381865afa158015611ee3573d6000803e3d6000fd5b505050506040513d601f19601f82011682018060405250810190611f079190614024565b90506001600160a01b03811615611f1c578091505b861561225857855160608701516040516323b872dd60e01b81526001600160a01b038816926323b872dd92611f569230919060040161411e565b6020604051808303816000875af1158015611f75573d6000803e3d6000fd5b505050506040513d601f19601f82011682018060405250810190611f999190614041565b6040518060400160405280600381526020016219981b60e91b81525090611fd35760405162461bcd60e51b815260040161075f9190613f3a565b506040808a015187820151915163a9059cbb60e01b81526001600160a01b039182166004820152602481019290925286169063a9059cbb906044016020604051808303816000875af115801561202d573d6000803e3d6000fd5b505050506040513d601f19601f820116820180604052508101906120519190614041565b6040518060400160405280600381526020016219981b60e91b8152509061208b5760405162461bcd60e51b815260040161075f9190613f3a565b506001600160a01b038216301461215257606083015160405163a9059cbb60e01b81526001600160a01b03848116600483015260248201929092529086169063a9059cbb906044016020604051808303816000875af11580156120f2573d6000803e3d6000fd5b505050506040513d601f19601f820116820180604052508101906121169190614041565b6040518060400160405280600381526020016219981b60e91b815250906121505760405162461bcd60e51b815260040161075f9190613f3a565b505b82516001600160a01b03161580159061216f575060008360200151115b15612253578251602084015160405163a9059cbb60e01b81526001600160a01b0388169263a9059cbb926121b9926004016001600160a01b03929092168252602082015260400190565b6020604051808303816000875af11580156121d8573d6000803e3d6000fd5b505050506040513d601f19601f820116820180604052508101906121fc9190614041565b6040518060400160405280600381526020016219981b60e91b815250906122365760405162461bcd60e51b815260040161075f9190613f3a565b5061225383600001518a602001518b606001518660200151613701565b61253f565b60408051808201909152600381526233303360e81b6020820152476122905760405162461bcd60e51b815260040161075f9190613f3a565b50600089604001516001600160a01b0316876040015160405160006040518083038185875af1925050503d80600081146122e6576040519150601f19603f3d011682016040523d82523d6000602084013e6122eb565b606091505b505060408051808201909152600381526219981b60e91b6020820152909150816123285760405162461bcd60e51b815260040161075f9190613f3a565b506001600160a01b03831630146123ca5760608401516040516001600160a01b0385169190600081818185875af1925050503d8060008114612386576040519150601f19603f3d011682016040523d82523d6000602084013e61238b565b606091505b505060408051808201909152600381526219981b60e91b6020820152909150816123c85760405162461bcd60e51b815260040161075f9190613f3a565b505b83516001600160a01b0316158015906123e7575060008460200151115b1561249a57835160208501516040516001600160a01b0390921691600081818185875af1925050503d806000811461243b576040519150601f19603f3d011682016040523d82523d6000602084013e612440565b606091505b505060408051808201909152600381526219981b60e91b60208201529091508161247d5760405162461bcd60e51b815260040161075f9190613f3a565b5061249a84600001518b602001518c606001518760200151613701565b604080518082018252600981526823a2a72faa27a5a2a760b91b6020820152905163bf40fac160e01b815261253d916001600160a01b0388169163bf40fac1916124e691600401613f3a565b602060405180830381865afa158015612503573d6000803e3d6000fd5b505050506040513d601f19601f820116820180604052508101906125279190614024565b8b5160208d015160608e015160808f01516137f8565b505b60008a81526036602052604090819020875191518c927f744eb8cec82caa596aa6c23e80f64b53c47d2139a53db9b3bbd7eb0a0a4b799292612583929091906141fb565b60405180910390a250505050505050505050565b60018055565b600054610100900460ff16158080156125bd5750600054600160ff909116105b806125d75750303b1580156125d7575060005460ff166001145b6125f35760405162461bcd60e51b815260040161075f90613fd6565b6000805460ff191660011790558015612616576000805461ff0019166101001790555b60408051808201909152600381526203130360ec1b60208201526001600160a01b0384166126575760405162461bcd60e51b815260040161075f9190613f3a565b5060408051808201909152600381526203130360ec1b60208201526001600160a01b0383166126995760405162461bcd60e51b815260040161075f9190613f3a565b50603480546001600160a01b038086166001600160a01b0319928316179092556035805492851692909116919091179055610abe613938565b600081815260366020908152604091829020600201548251808401909352600383526203330360ec1b918301919091526001600160a01b0316331461272a5760405162461bcd60e51b815260040161075f9190613f3a565b5060008181526036602052604090206005015460ff161561274a57600080fd5b6000818152603660205260409081902060058101805460ff19166001179055905182917f0f9936e2210c5cb61170d9da568110dc1426511cd2a1ffabe518cb3f12791c32916127999190614222565b60405180910390a250565b600081815260386020908152604091829020825160e08101845281546001600160a01b03908116825260018301549382019390935260028201548316938101939093526003810154909116606083015260048101546080830152600581015460ff1615801560a0840181905260069092015460c084015290612835575060c0810151158061283557508060c0015142105b6040518060400160405280600381526020016219981960e91b8152509061286f5760405162461bcd60e51b815260040161075f9190613f3a565b50600082815260386020908152604091829020600501805460ff1916600117905582519083015191516331a9108f60e11b8152909133916001600160a01b03841691636352211e916128c8919060040190815260200190565b602060405180830381865afa1580156128e5573d6000803e3d6000fd5b505050506040513d601f19601f820116820180604052508101906129099190614024565b6001600160a01b0316146040518060400160405280600381526020016203330360ec1b8152509061294d5760405162461bcd60e51b815260040161075f9190613f3a565b5060405163e985e9c560e01b81523360048201523060248201526001600160a01b0382169063e985e9c590604401602060405180830381865afa158015612998573d6000803e3d6000fd5b505050506040513d601f19601f820116820180604052508101906129bc9190614041565b6040518060400160405280600381526020016233303160e81b815250906129f65760405162461bcd60e51b815260040161075f9190613f3a565b50606082015160808301516040808501519051636eb1769f60e11b81526001600160a01b0391821660048201523060248201529083169063dd62ed3e90604401602060405180830381865afa158015612a53573d6000803e3d6000fd5b505050506040513d601f19601f82011682018060405250810190612a77919061405e565b1015612a8257600080fd5b6040805160e08101825284820180516001600160a01b0390811683523360208401526080808801805185870152516060850152915193516370a0823160e01b8152938116600485015260009391830191908516906370a0823190602401602060405180830381865afa158015612afc573d6000803e3d6000fd5b505050506040513d601f19601f82011682018060405250810190612b20919061405e565b81526040808701519051636eb1769f60e11b81526001600160a01b0391821660048201523060248201526020909201919085169063dd62ed3e90604401602060405180830381865afa158015612b7a573d6000803e3d6000fd5b505050506040513d601f19601f82011682018060405250810190612b9e919061405e565b81526060808701516001600160a01b039081166020938401526035546040805160808101825260008082528187018190528183018190529481019490945280518082018252601b81527f4d41524b4554504c4143455f42454e454649545f50455243454e5400000000009581019590955251636d12dce160e01b8152949550169290918391636d12dce191612c3591600401613f3a565b602060405180830381865afa158015612c52573d6000803e3d6000fd5b505050506040513d601f19601f82011682018060405250810190612c76919061405e565b60408201819052612c895760fa60408201525b604081015115612cd05761271081604001518460600151612caa9190614142565b612cb49190613f99565b60608201819052604084018051612ccc908390614161565b9052505b6040516301ffc9a760e01b815263152a902d60e11b60048201526001600160a01b038616906301ffc9a790602401602060405180830381865afa158015612d1b573d6000803e3d6000fd5b505050506040513d601f19601f82011682018060405250810190612d3f9190614041565b15612df65785516020870151606085015160405163152a902d60e11b81526004810192909252602482015260009081906001600160a01b03841690632a55205a906044016040805180830381865afa158015612d9f573d6000803e3d6000fd5b505050506040513d601f19601f82011682018060405250810190612dc39190614178565b602086018190526001600160a01b03821686526040880180519294509092508291612def908390614161565b9052505050505b604080518082018252601f81527f4d494e545f4e46545f4f50455241544f525f54524541535552455f41444452006020820152905163bf40fac160e01b815230916000916001600160a01b0386169163bf40fac191612e589190600401613f3a565b602060405180830381865afa158015612e75573d6000803e3d6000fd5b505050506040513d601f19601f82011682018060405250810190612e999190614024565b90506001600160a01b03811615612eae578091505b845160608601516040516323b872dd60e01b81526001600160a01b038916926323b872dd92612ee29230919060040161411e565b6020604051808303816000875af1158015612f01573d6000803e3d6000fd5b505050506040513d601f19601f82011682018060405250810190612f259190614041565b6040518060400160405280600381526020016219981b60e91b81525090612f5f5760405162461bcd60e51b815260040161075f9190613f3a565b506020850151604080870151905163a9059cbb60e01b81526001600160a01b0389169263a9059cbb92612fa8926004016001600160a01b03929092168252602082015260400190565b6020604051808303816000875af1158015612fc7573d6000803e3d6000fd5b505050506040513d601f19601f82011682018060405250810190612feb9190614041565b6040518060400160405280600381526020016219981b60e91b815250906130255760405162461bcd60e51b815260040161075f9190613f3a565b506001600160a01b03821630146130ec57606083015160405163a9059cbb60e01b81526001600160a01b03848116600483015260248201929092529087169063a9059cbb906044016020604051808303816000875af115801561308c573d6000803e3d6000fd5b505050506040513d601f19601f820116820180604052508101906130b09190614041565b6040518060400160405280600381526020016219981b60e91b815250906130ea5760405162461bcd60e51b815260040161075f9190613f3a565b505b82516001600160a01b031615801590613109575060008360200151115b156131ed578251602084015160405163a9059cbb60e01b81526001600160a01b0389169263a9059cbb92613153926004016001600160a01b03929092168252602082015260400190565b6020604051808303816000875af1158015613172573d6000803e3d6000fd5b505050506040513d601f19601f820116820180604052508101906131969190614041565b6040518060400160405280600381526020016219981b60e91b815250906131d05760405162461bcd60e51b815260040161075f9190613f3a565b506131ed836000015189602001518a606001518660200151613701565b6020808601518651918a0151604051632142170760e11b81526001600160a01b038b16936342842e0e9361322593909260040161411e565b600060405180830381600087803b15801561323f57600080fd5b505af1158015613253573d6000803e3d6000fd5b50505060008a81526038602052604090819020875191518c93507fe0787f0a475d5edb93acefb462596edcf3ab4d4949407b732fec63d7e5afc60c9261329992916141fb565b60405180910390a2505050505050505050565b600081815260386020908152604091829020600201548251808401909352600383526203130360ec1b918301919091526001600160a01b031633146133045760405162461bcd60e51b815260040161075f9190613f3a565b5060008181526038602052604090206005015460ff161561332457600080fd5b6000818152603860205260409081902060058101805460ff19166001179055905182917fd1e7e193455ba4241e816f1b6fa787b59dad27c1279c69179f6cb4b4387bf543916127999190614222565b805160208201516040516331a9108f60e11b815260048101919091526000919033906001600160a01b03831690636352211e90602401602060405180830381865afa1580156133c6573d6000803e3d6000fd5b505050506040513d601f19601f820116820180604052508101906133ea9190614024565b6001600160a01b0316146040518060400160405280600381526020016203330360ec1b8152509061342e5760405162461bcd60e51b815260040161075f9190613f3a565b5060008360800151116040518060400160405280600381526020016206660760eb1b815250906134715760405162461bcd60e51b815260040161075f9190613f3a565b5060405163e985e9c560e01b81523360048201523060248201526001600160a01b0382169063e985e9c590604401602060405180830381865afa1580156134bc573d6000803e3d6000fd5b505050506040513d601f19601f820116820180604052508101906134e09190614041565b60408051808201909152600381526233303160e81b602082015290151560011461351d5760405162461bcd60e51b815260040161075f9190613f3a565b506033805490600061352e83613fbb565b91905055506000613540603354613664565b8451602086015161355090613664565b60405160200161356293929190614077565b60408051808303601f190181528282528051602091820120600081815260368352928320885181546001600160a01b03199081166001600160a01b03928316178355938a015160018084019190915560028301805460608d01516003860180548916919095161790935560808c0151600485015560a08c015160058501805460ff191691151591909117905560c08c01516006909401939093559316331790556037805492830181559092527f42a7b7dd785cd69714a189dffb3fd7d7174edc9ece837694ce50f7078f7c31ae01819055915081907f36baa67ff8b95fa14aac46cea75517dc7f57ebebc1b90d48388c8c085f5cbfe3906116c19087906140c3565b6060600061367183613969565b600101905060008167ffffffffffffffff81111561369157613691613adc565b6040519080825280601f01601f1916602001820160405280156136bb576020820181803683370190505b5090508181016020015b600019016f181899199a1a9b1b9c1cb0b131b232b360811b600a86061a8153600a85049450846136f4576136f9565b6136c5565b509392505050565b6001600160a01b038416156137f2576040516301ffc9a760e01b815263676eda1760e01b600482015284906001600160a01b038216906301ffc9a790602401602060405180830381865afa15801561375d573d6000803e3d6000fd5b505050506040513d601f19601f820116820180604052508101906137819190614041565b156137f05760405163676eda1760e01b8152600481018590526001600160a01b0384811660248301526044820184905282169063676eda1790606401600060405180830381600087803b1580156137d757600080fd5b505af11580156137eb573d6000803e3d6000fd5b505050505b505b50505050565b6001600160a01b038516156137f05760405163186f2bdd60e21b81526001600160a01b038581166004830152602482018590528381166044830152606482018390528691908216906361bcaf7490608401600060405180830381600087803b15801561386357600080fd5b505af1925050508015613874575060015b6138d657604080516001600160a01b0388811682528781166020830152818301879052851660608201526080810184905290517f2b24ae3182dffe91b3b5d3bd7e893fdf479327b5a0f15f2ce99b2d6e798680e69181900360a00190a1613930565b604080516001600160a01b0388811682528781166020830152818301879052851660608201526080810184905290517fd6a08b4403c29a9320fb167fd747bf8bf1fa0ebc0ec4d46a726f3ddbb4ab42379181900360a00190a15b505050505050565b600054610100900460ff1661395f5760405162461bcd60e51b815260040161075f90614230565b613967613a42565b565b60008072184f03e93ff9f4daa797ed6e38ed64bf6a1f0160401b83106139a85772184f03e93ff9f4daa797ed6e38ed64bf6a1f0160401b830492506040015b6d04ee2d6d415b85acef810000000083106139d4576d04ee2d6d415b85acef8100000000830492506020015b662386f26fc1000083106139f257662386f26fc10000830492506010015b6305f5e1008310613a0a576305f5e100830492506008015b6127108310613a1e57612710830492506004015b60648310613a30576064830492506002015b600a8310613a3c576001015b92915050565b600054610100900460ff166125975760405162461bcd60e51b815260040161075f90614230565b6001600160a01b03811681146109e957600080fd5b8035613a8981613a69565b919050565b600080600060608486031215613aa357600080fd5b8335613aae81613a69565b95602085013595506040909401359392505050565b600060208284031215613ad557600080fd5b5035919050565b634e487b7160e01b600052604160045260246000fd5b60405160e0810167ffffffffffffffff81118282101715613b1557613b15613adc565b60405290565b604051601f8201601f1916810167ffffffffffffffff81118282101715613b4457613b44613adc565b604052919050565b600067ffffffffffffffff821115613b6657613b66613adc565b5060051b60200190565b600082601f830112613b8157600080fd5b81356020613b96613b9183613b4c565b613b1b565b82815260059290921b84018101918181019086841115613bb557600080fd5b8286015b84811015613bd05780358352918301918301613bb9565b509695505050505050565b80151581146109e957600080fd5b8035613a8981613bdb565b600060208284031215613c0657600080fd5b813567ffffffffffffffff80821115613c1e57600080fd5b9083019060e08286031215613c3257600080fd5b613c3a613af2565b613c4383613a7e565b8152602083013582811115613c5757600080fd5b613c6387828601613b70565b602083015250613c7560408401613a7e565b6040820152613c8660608401613a7e565b606082015260808301356080820152613ca160a08401613be9565b60a082015260c083013560c082015280935050505092915050565b6020808252825182820181905260009190848201906040850190845b81811015613cf457835183529284019291840191600101613cd8565b50909695505050505050565b60008060408385031215613d1357600080fd5b50508035926020909101359150565b60008060408385031215613d3557600080fd5b8235613d4081613a69565b91506020830135613d5081613a69565b809150509250929050565b600060208284031215613d6d57600080fd5b8135613d7881613a69565b9392505050565b60006020808385031215613d9257600080fd5b823567ffffffffffffffff811115613da957600080fd5b8301601f81018513613dba57600080fd5b8035613dc8613b9182613b4c565b81815260059190911b82018301908381019087831115613de757600080fd5b928401925b82841015613e0557833582529284019290840190613dec565b979650505050505050565b60008060408385031215613e2357600080fd5b8235613e2e81613a69565b91506020830135613d5081613bdb565b60008060408385031215613e5157600080fd5b8235613e5c81613a69565b946020939093013593505050565b600060e08284031215613e7c57600080fd5b613e84613af2565b90508135613e9181613a69565b8152602082810135908201526040820135613eab81613a69565b60408201526060820135613ebe81613a69565b60608201526080828101359082015260a0820135613edb81613bdb565b8060a08301525060c082013560c082015292915050565b600060e08284031215613f0457600080fd5b613d788383613e6a565b60005b83811015613f29578181015183820152602001613f11565b838111156137f25750506000910152565b6020815260008251806020840152613f59816040850160208701613f0e565b601f01601f19169190910160400192915050565b634e487b7160e01b600052603260045260246000fd5b634e487b7160e01b600052601160045260246000fd5b600082613fb657634e487b7160e01b600052601260045260246000fd5b500490565b6000600019821415613fcf57613fcf613f83565b5060010190565b6020808252602e908201527f496e697469616c697a61626c653a20636f6e747261637420697320616c72656160408201526d191e481a5b9a5d1a585b1a5e995960921b606082015260800190565b60006020828403121561403657600080fd5b8151613d7881613a69565b60006020828403121561405357600080fd5b8151613d7881613bdb565b60006020828403121561407057600080fd5b5051919050565b60008451614089818460208901613f0e565b606085901b6bffffffffffffffffffffffff191690830190815283516140b6816014840160208801613f0e565b0160140195945050505050565b81516001600160a01b03908116825260208084015190830152604080840151821690830152606080840151909116908201526080808301519082015260a08083015115159082015260c0808301519082015260e08101613a3c565b6001600160a01b039384168152919092166020820152604081019190915260600190565b600081600019048311821515161561415c5761415c613f83565b500290565b60008282101561417357614173613f83565b500390565b6000806040838503121561418b57600080fd5b825161419681613a69565b6020939093015192949293505050565b80546001600160a01b03908116835260018201546020840152600282015481166040840152600382015416606083015260048101546080830152600581015460ff16151560a08301526006015460c090910152565b610100810161420a82856141a6565b6001600160a01b039290921660e09190910152919050565b60e08101613a3c82846141a6565b6020808252602b908201527f496e697469616c697a61626c653a20636f6e7472616374206973206e6f74206960408201526a6e697469616c697a696e6760a81b60608201526080019056fea2646970667358221220d8113d2c9bdb371af13a7386f593ee7420e7151314034fe5cc776a141ecae07f64736f6c634300080c0033",
  "linkReferences": {},
  "deployedLinkReferences": {}
}