{
  "_format": "hh-sol-artifact-1",
  "contractName": "AdvanceMarketplaceService",
  "sourceName": "contracts/services/AdvanceMarketplaceService.sol",
  "abi": [
    {
      "anonymous": false,
      "inputs": [
        {
          "indexed": false,
          "internalType": "uint8",
          "name": "version",
          "type": "uint8"
        }
      ],
      "name": "Initialized",
      "type": "event"
    },
    {
      "inputs": [],
      "name": "_admin",
      "outputs": [
        {
          "internalType": "address",
          "name": "",
          "type": "address"
        }
      ],
      "stateMutability": "view",
      "type": "function"
    },
    {
      "inputs": [
        {
          "internalType": "address",
          "name": "",
          "type": "address"
        }
      ],
      "name": "_allowableERC20MakeListToken",
      "outputs": [
        {
          "internalType": "bool",
          "name": "",
          "type": "bool"
        }
      ],
      "stateMutability": "view",
      "type": "function"
    },
    {
      "inputs": [
        {
          "internalType": "address",
          "name": "",
          "type": "address"
        }
      ],
      "name": "_allowableERC20MakeOffer",
      "outputs": [
        {
          "internalType": "bool",
          "name": "",
          "type": "bool"
        }
      ],
      "stateMutability": "view",
      "type": "function"
    },
    {
      "inputs": [
        {
          "internalType": "uint256",
          "name": "",
          "type": "uint256"
        }
      ],
      "name": "_arrayListingId",
      "outputs": [
        {
          "internalType": "bytes32",
          "name": "",
          "type": "bytes32"
        }
      ],
      "stateMutability": "view",
      "type": "function"
    },
    {
      "inputs": [
        {
          "internalType": "uint256",
          "name": "",
          "type": "uint256"
        }
      ],
      "name": "_arrayMakeOfferId",
      "outputs": [
        {
          "internalType": "bytes32",
          "name": "",
          "type": "bytes32"
        }
      ],
      "stateMutability": "view",
      "type": "function"
    },
    {
      "inputs": [
        {
          "internalType": "address",
          "name": "",
          "type": "address"
        },
        {
          "internalType": "uint256",
          "name": "",
          "type": "uint256"
        },
        {
          "internalType": "uint256",
          "name": "",
          "type": "uint256"
        }
      ],
      "name": "_listingTokenDataMapping",
      "outputs": [
        {
          "internalType": "address",
          "name": "_collectionContract",
          "type": "address"
        },
        {
          "internalType": "uint256",
          "name": "_tokenId",
          "type": "uint256"
        },
        {
          "internalType": "address",
          "name": "_seller",
          "type": "address"
        },
        {
          "internalType": "address",
          "name": "_erc20Token",
          "type": "address"
        },
        {
          "internalType": "uint256",
          "name": "_price",
          "type": "uint256"
        },
        {
          "internalType": "bool",
          "name": "_closed",
          "type": "bool"
        },
        {
          "internalType": "uint256",
          "name": "_durationTime",
          "type": "uint256"
        }
      ],
      "stateMutability": "view",
      "type": "function"
    },
    {
      "inputs": [
        {
          "internalType": "address",
          "name": "",
          "type": "address"
        },
        {
          "internalType": "uint256",
          "name": "",
          "type": "uint256"
        }
      ],
      "name": "_listingTokenIds",
      "outputs": [
        {
          "internalType": "uint256",
          "name": "",
          "type": "uint256"
        }
      ],
      "stateMutability": "view",
      "type": "function"
    },
    {
      "inputs": [
        {
          "internalType": "bytes32",
          "name": "",
          "type": "bytes32"
        }
      ],
      "name": "_listingTokens",
      "outputs": [
        {
          "internalType": "address",
          "name": "_collectionContract",
          "type": "address"
        },
        {
          "internalType": "uint256",
          "name": "_tokenId",
          "type": "uint256"
        },
        {
          "internalType": "address",
          "name": "_seller",
          "type": "address"
        },
        {
          "internalType": "address",
          "name": "_erc20Token",
          "type": "address"
        },
        {
          "internalType": "uint256",
          "name": "_price",
          "type": "uint256"
        },
        {
          "internalType": "bool",
          "name": "_closed",
          "type": "bool"
        },
        {
          "internalType": "uint256",
          "name": "_durationTime",
          "type": "uint256"
        }
      ],
      "stateMutability": "view",
      "type": "function"
    },
    {
      "inputs": [
        {
          "internalType": "address",
          "name": "",
          "type": "address"
        },
        {
          "internalType": "uint256",
          "name": "",
          "type": "uint256"
        },
        {
          "internalType": "uint256",
          "name": "",
          "type": "uint256"
        }
      ],
      "name": "_makeOfferDataMapping",
      "outputs": [
        {
          "internalType": "address",
          "name": "_collectionContract",
          "type": "address"
        },
        {
          "internalType": "uint256",
          "name": "_tokenId",
          "type": "uint256"
        },
        {
          "internalType": "address",
          "name": "_buyer",
          "type": "address"
        },
        {
          "internalType": "address",
          "name": "_erc20Token",
          "type": "address"
        },
        {
          "internalType": "uint256",
          "name": "_price",
          "type": "uint256"
        },
        {
          "internalType": "bool",
          "name": "_closed",
          "type": "bool"
        },
        {
          "internalType": "uint256",
          "name": "_durationTime",
          "type": "uint256"
        }
      ],
      "stateMutability": "view",
      "type": "function"
    },
    {
      "inputs": [
        {
          "internalType": "address",
          "name": "",
          "type": "address"
        },
        {
          "internalType": "uint256",
          "name": "",
          "type": "uint256"
        }
      ],
      "name": "_makeOfferTokenIds",
      "outputs": [
        {
          "internalType": "uint256",
          "name": "",
          "type": "uint256"
        }
      ],
      "stateMutability": "view",
      "type": "function"
    },
    {
      "inputs": [
        {
          "internalType": "bytes32",
          "name": "",
          "type": "bytes32"
        }
      ],
      "name": "_makeOfferTokens",
      "outputs": [
        {
          "internalType": "address",
          "name": "_collectionContract",
          "type": "address"
        },
        {
          "internalType": "uint256",
          "name": "_tokenId",
          "type": "uint256"
        },
        {
          "internalType": "address",
          "name": "_buyer",
          "type": "address"
        },
        {
          "internalType": "address",
          "name": "_erc20Token",
          "type": "address"
        },
        {
          "internalType": "uint256",
          "name": "_price",
          "type": "uint256"
        },
        {
          "internalType": "bool",
          "name": "_closed",
          "type": "bool"
        },
        {
          "internalType": "uint256",
          "name": "_durationTime",
          "type": "uint256"
        }
      ],
      "stateMutability": "view",
      "type": "function"
    },
    {
      "inputs": [],
      "name": "_parameterAddr",
      "outputs": [
        {
          "internalType": "address",
          "name": "",
          "type": "address"
        }
      ],
      "stateMutability": "view",
      "type": "function"
    },
    {
      "inputs": [
        {
          "internalType": "bytes32",
          "name": "offerId",
          "type": "bytes32"
        }
      ],
      "name": "acceptMakeOffer",
      "outputs": [],
      "stateMutability": "nonpayable",
      "type": "function"
    },
    {
      "inputs": [
        {
          "internalType": "bytes32",
          "name": "_offeringId",
          "type": "bytes32"
        }
      ],
      "name": "cancelListing",
      "outputs": [],
      "stateMutability": "nonpayable",
      "type": "function"
    },
    {
      "inputs": [
        {
          "internalType": "bytes32",
          "name": "offerId",
          "type": "bytes32"
        }
      ],
      "name": "cancelMakeOffer",
      "outputs": [],
      "stateMutability": "nonpayable",
      "type": "function"
    },
    {
      "inputs": [
        {
          "internalType": "address",
          "name": "newAdm",
          "type": "address"
        }
      ],
      "name": "changeAdmin",
      "outputs": [],
      "stateMutability": "nonpayable",
      "type": "function"
    },
    {
      "inputs": [
        {
          "internalType": "address",
          "name": "newAddr",
          "type": "address"
        }
      ],
      "name": "changeParamAddr",
      "outputs": [],
      "stateMutability": "nonpayable",
      "type": "function"
    },
    {
      "inputs": [
        {
          "internalType": "address",
          "name": "admin",
          "type": "address"
        },
        {
          "internalType": "address",
          "name": "parameterControl",
          "type": "address"
        }
      ],
      "name": "initialize",
      "outputs": [],
      "stateMutability": "nonpayable",
      "type": "function"
    },
    {
      "inputs": [
        {
          "components": [
            {
              "internalType": "address",
              "name": "_collectionContract",
              "type": "address"
            },
            {
              "internalType": "uint256",
              "name": "_tokenId",
              "type": "uint256"
            },
            {
              "internalType": "address",
              "name": "_seller",
              "type": "address"
            },
            {
              "internalType": "address",
              "name": "_erc20Token",
              "type": "address"
            },
            {
              "internalType": "uint256",
              "name": "_price",
              "type": "uint256"
            },
            {
              "internalType": "bool",
              "name": "_closed",
              "type": "bool"
            },
            {
              "internalType": "uint256",
              "name": "_durationTime",
              "type": "uint256"
            }
          ],
          "internalType": "struct Marketplace.ListingTokenData",
          "name": "listingData",
          "type": "tuple"
        }
      ],
      "name": "listToken",
      "outputs": [
        {
          "internalType": "bytes32",
          "name": "",
          "type": "bytes32"
        }
      ],
      "stateMutability": "nonpayable",
      "type": "function"
    },
    {
      "inputs": [
        {
          "components": [
            {
              "internalType": "address",
              "name": "_collectionContract",
              "type": "address"
            },
            {
              "internalType": "uint256",
              "name": "_tokenId",
              "type": "uint256"
            },
            {
              "internalType": "address",
              "name": "_buyer",
              "type": "address"
            },
            {
              "internalType": "address",
              "name": "_erc20Token",
              "type": "address"
            },
            {
              "internalType": "uint256",
              "name": "_price",
              "type": "uint256"
            },
            {
              "internalType": "bool",
              "name": "_closed",
              "type": "bool"
            },
            {
              "internalType": "uint256",
              "name": "_durationTime",
              "type": "uint256"
            }
          ],
          "internalType": "struct Marketplace.MakeOfferData",
          "name": "makeOfferData",
          "type": "tuple"
        }
      ],
      "name": "makeOffer",
      "outputs": [
        {
          "internalType": "bytes32",
          "name": "",
          "type": "bytes32"
        }
      ],
      "stateMutability": "nonpayable",
      "type": "function"
    },
    {
      "inputs": [
        {
          "components": [
            {
              "internalType": "address",
              "name": "_collectionContract",
              "type": "address"
            },
            {
              "internalType": "uint256[]",
              "name": "_tokenIds",
              "type": "uint256[]"
            },
            {
              "internalType": "address",
              "name": "_buyer",
              "type": "address"
            },
            {
              "internalType": "address",
              "name": "_erc20Token",
              "type": "address"
            },
            {
              "internalType": "uint256",
              "name": "_price",
              "type": "uint256"
            },
            {
              "internalType": "bool",
              "name": "_closed",
              "type": "bool"
            },
            {
              "internalType": "uint256",
              "name": "_durationTime",
              "type": "uint256"
            }
          ],
          "internalType": "struct Marketplace.MakeOfferCollectionData",
          "name": "makeOfferCollectionData",
          "type": "tuple"
        }
      ],
      "name": "makeOfferCollection",
      "outputs": [
        {
          "internalType": "bytes32[]",
          "name": "result",
          "type": "bytes32[]"
        }
      ],
      "stateMutability": "nonpayable",
      "type": "function"
    },
    {
      "inputs": [
        {
          "internalType": "bytes32",
          "name": "offeringId",
          "type": "bytes32"
        }
      ],
      "name": "purchaseToken",
      "outputs": [],
      "stateMutability": "payable",
      "type": "function"
    },
    {
      "inputs": [
        {
          "internalType": "address",
          "name": "erc20",
          "type": "address"
        },
        {
          "internalType": "bool",
          "name": "allow",
          "type": "bool"
        }
      ],
      "name": "setApproveERC20ListToken",
      "outputs": [],
      "stateMutability": "nonpayable",
      "type": "function"
    },
    {
      "inputs": [
        {
          "internalType": "address",
          "name": "erc20",
          "type": "address"
        },
        {
          "internalType": "bool",
          "name": "allow",
          "type": "bool"
        }
      ],
      "name": "setApproveERC20MakeOffer",
      "outputs": [],
      "stateMutability": "nonpayable",
      "type": "function"
    },
    {
      "inputs": [
        {
          "internalType": "bytes32[]",
          "name": "offers",
          "type": "bytes32[]"
        }
      ],
      "name": "sweep",
      "outputs": [],
      "stateMutability": "payable",
      "type": "function"
    },
    {
      "inputs": [
        {
          "internalType": "bytes32",
          "name": "offerId",
          "type": "bytes32"
        },
        {
          "internalType": "uint256",
          "name": "price",
          "type": "uint256"
        }
      ],
      "name": "updateListingPrice",
      "outputs": [],
      "stateMutability": "nonpayable",
      "type": "function"
    },
    {
      "inputs": [
        {
          "internalType": "bytes32",
          "name": "offerId",
          "type": "bytes32"
        },
        {
          "internalType": "uint256",
          "name": "price",
          "type": "uint256"
        }
      ],
      "name": "updateMakeOfferPrice",
      "outputs": [],
      "stateMutability": "nonpayable",
      "type": "function"
    },
    {
      "inputs": [
        {
          "internalType": "address",
          "name": "receiver",
          "type": "address"
        },
        {
          "internalType": "address",
          "name": "erc20Addr",
          "type": "address"
        },
        {
          "internalType": "uint256",
          "name": "amount",
          "type": "uint256"
        }
      ],
      "name": "withdraw",
      "outputs": [],
      "stateMutability": "nonpayable",
      "type": "function"
    }
  ],
  "bytecode": "0x608060405234801561001057600080fd5b50613e8e806100206000396000f3fe6080604052600436106101b75760003560e01c80639c9b62aa116100ec578063d9e87e611161008a578063ed4ec20111610064578063ed4ec201146105e9578063f1f2df0e14610609578063f40cb02d14610629578063febfd6c31461064957600080fd5b8063d9e87e6114610589578063e5026b8b146105a9578063eab651d8146105c957600080fd5b8063bd7ec0c2116100c6578063bd7ec0c2146104f9578063d299a08614610529578063d2abb69c14610549578063d9caed121461056957600080fd5b80639c9b62aa1461044f578063a25d6dce1461046f578063a3a1937c1461048f57600080fd5b8063485cc9551161015957806372c035cf1161013357806372c035cf146103cf5780638f283970146103ef5780639142e6a81461040f5780639299e5521461042f57600080fd5b8063485cc9551461035c5780635b06e64a1461037c5780636852168a146103bc57600080fd5b80632670ab0f116101955780632670ab0f146102905780633ac1089a146102bd5780633dd72c40146102d25780633e93d0cd1461033c57600080fd5b806301bc45c9146101bc57806314646f6d146101f95780631fd4d2ed14610262575b600080fd5b3480156101c857600080fd5b506034546101dc906001600160a01b031681565b6040516001600160a01b0390911681526020015b60405180910390f35b34801561020557600080fd5b5061021961021436600461362a565b610669565b604080516001600160a01b039889168152602081019790975294871694860194909452949091166060840152608083015291151560a082015260c081019190915260e0016101f0565b34801561026e57600080fd5b5061028261027d36600461365f565b6106e2565b6040519081526020016101f0565b34801561029c57600080fd5b506102b06102ab366004613790565b610703565b6040516101f09190613858565b6102d06102cb36600461365f565b6109cf565b005b3480156102de57600080fd5b506102196102ed36600461365f565b60386020526000908152604090208054600182015460028301546003840154600485015460058601546006909601546001600160a01b03958616969495938416949290931692909160ff169087565b34801561034857600080fd5b506102d061035736600461389c565b6109ec565b34801561036857600080fd5b506102d06103773660046138be565b610a3b565b34801561038857600080fd5b506103ac6103973660046138f7565b603f6020526000908152604090205460ff1681565b60405190151581526020016101f0565b6102d06103ca36600461391b565b610b09565b3480156103db57600080fd5b506035546101dc906001600160a01b031681565b3480156103fb57600080fd5b506102d061040a3660046138f7565b610c6e565b34801561041b57600080fd5b506102d061042a3660046139ac565b610d00565b34801561043b57600080fd5b506102d061044a36600461365f565b610d72565b34801561045b57600080fd5b506102d061046a36600461389c565b610d7b565b34801561047b57600080fd5b5061028261048a3660046139da565b610dca565b34801561049b57600080fd5b506102196104aa36600461365f565b60366020526000908152604090208054600182015460028301546003840154600485015460058601546006909601546001600160a01b03958616969495938416949290931692909160ff169087565b34801561050557600080fd5b506103ac6105143660046138f7565b603e6020526000908152604090205460ff1681565b34801561053557600080fd5b5061021961054436600461362a565b610dfb565b34801561055557600080fd5b50610282610564366004613a8e565b610e23565b34801561057557600080fd5b506102d0610584366004613aaa565b610f72565b34801561059557600080fd5b506102d06105a436600461365f565b6110cc565b3480156105b557600080fd5b506102d06105c43660046139ac565b6110dd565b3480156105d557600080fd5b506102826105e43660046139da565b61114f565b3480156105f557600080fd5b5061028261060436600461365f565b61116b565b34801561061557600080fd5b506102d061062436600461365f565b61117b565b34801561063557600080fd5b50610282610644366004613a8e565b611184565b34801561065557600080fd5b506102d06106643660046138f7565b6112d3565b603c602052826000526040600020602052816000526040600020818154811061069157600080fd5b600091825260209091206007909102018054600182015460028301546003840154600485015460058601546006909601546001600160a01b03958616995093975091841695509092169260ff169087565b603981815481106106f257600080fd5b600091825260209091200154905081565b6060818101516001600160a01b03166000908152603e6020908152604091829020548251808401909352600383526233303760e81b9183019190915260ff166107685760405162461bcd60e51b815260040161075f9190613b17565b60405180910390fd5b5081602001515167ffffffffffffffff81111561078757610787613678565b6040519080825280602002602001820160405280156107b0578160200160208202803683370190505b50905060005b8260200151518110156109925760006040518060e0016040528085600001516001600160a01b03168152602001856020015184815181106107f9576107f9613b4a565b60200260200101518152602001336001600160a01b0316815260200185606001516001600160a01b03168152602001856020015151866080015161083d9190613b76565b81526020016000151581526020018560c001518152509050600061086082611365565b600081815260386020908152604080832080546001600160a01b039081168552603c845282852060018084018054885291865284872080548083018255908852868820855460079092020180549185166001600160a01b031992831617815583548184015560028087015490820180549187169184169190911790556003808701549082018054918716919093161790915560048086015490820155600580860154908201805460ff191660ff909216151591909117905560068086015491015583549092168652603d85529285209254835491820184559285529290932090910155855191925090829086908690811061095d5761095d613b4a565b60200260200101818152505062030d405a101561097c57505050610992565b505050808061098a90613b98565b9150506107b6565b507fc123571abb841e956264da4696ac135e6e5ac168d2b17cfdf2b1fb4dd1e30ce1816040516109c29190613858565b60405180910390a1919050565b6109d761160d565b6109e081611667565b6109e960018055565b50565b600081116109f957600080fd5b60008281526036602052604080822060040183905551829184917fd427e420f535ff7b1631b634183f475083a8a062ca123f6633ae118eafd329a49190a35050565b600054610100900460ff1615808015610a5b5750600054600160ff909116105b80610a755750303b158015610a75575060005460ff166001145b610a915760405162461bcd60e51b815260040161075f90613bb3565b6000805460ff191660011790558015610ab4576000805461ff0019166101001790555b610abe83836122b9565b8015610b04576000805461ff0019169055604051600181527f7f26b83ff96e1f2b6a682f133852f6798a09c465da95921460cefb38474024989060200160405180910390a15b505050565b610b1161160d565b606481511115610b2057600080fd5b6000815167ffffffffffffffff811115610b3c57610b3c613678565b604051908082528060200260200182016040528015610b65578160200160208202803683370190505b50905060005b8251811015610c2c5760366000848381518110610b8a57610b8a613b4a565b60209081029190910181015182528101919091526040016000206005015460ff16610c0a57610bd1838281518110610bc457610bc4613b4a565b6020026020010151611667565b828181518110610be357610be3613b4a565b6020026020010151828281518110610bfd57610bfd613b4a565b6020026020010181815250505b62030d405a1015610c1a57610c2c565b80610c2481613b98565b915050610b6b565b507f158dd3c50fd0d637d65e59a4fe2a179d6ec485730ab6a010b2329e8f0484c8b881604051610c5c9190613858565b60405180910390a1506109e960018055565b6034546001600160a01b031633148015610c9057506001600160a01b03811615155b6040518060400160405280600381526020016231303160e81b81525090610cca5760405162461bcd60e51b815260040161075f9190613b17565b506034546001600160a01b038281169116146109e957603480546001600160a01b0383166001600160a01b031990911617905550565b60345460408051808201909152600381526231303160e81b6020820152906001600160a01b03163314610d465760405162461bcd60e51b815260040161075f9190613b17565b506001600160a01b03919091166000908152603e60205260409020805460ff1916911515919091179055565b6109e9816123ee565b60008111610d8857600080fd5b60008281526038602052604080822060040183905551829184917f3c1b9515c85fbdd17ae5c958c9173645c3acd8f86d5d73f6ab9ea580c2a5b3119190a35050565b603d6020528160005260406000208181548110610de657600080fd5b90600052602060002001600091509150505481565b603a602052826000526040600020602052816000526040600020818154811061069157600080fd5b60608101516001600160a01b03166000908152603e60209081526040808320548151808301909252600382526233303760e81b928201929092529060ff16610e7e5760405162461bcd60e51b815260040161075f9190613b17565b506000610e8a83611365565b600081815260386020908152604080832080546001600160a01b039081168552603c845282852060018084018054885291865284872080548083018255908852868820855460079092020180549185166001600160a01b031992831617815583548184015560028087015490820180549187169184169190911790556003808701549082018054918716919093161790915560048086015490820155600580860154908201805460ff191660ff909216151591909117905560068086015491015592549091168552603d84529184209154825491820183559184529190922001559392505050565b610f7a61160d565b60345460408051808201909152600381526231303160e81b6020820152906001600160a01b03163314610fc05760405162461bcd60e51b815260040161075f9190613b17565b5060006001600160a01b0383166110415781471015610fde57600080fd5b6040516001600160a01b038516908390600081818185875af1925050503d8060008114611027576040519150601f19603f3d011682016040523d82523d6000602084013e61102c565b606091505b5050809150508061103c57600080fd5b6110c2565b60405163a9059cbb60e01b81526001600160a01b0385811660048301526024820184905284919082169063a9059cbb906044016020604051808303816000875af1158015611093573d6000803e3d6000fd5b505050506040513d601f19601f820116820180604052508101906110b79190613c01565b6110c057600080fd5b505b50610b0460018055565b6110d461160d565b6109e0816124c0565b60345460408051808201909152600381526231303160e81b6020820152906001600160a01b031633146111235760405162461bcd60e51b815260040161075f9190613b17565b506001600160a01b03919091166000908152603f60205260409020805460ff1916911515919091179055565b603b6020528160005260406000208181548110610de657600080fd5b603781815481106106f257600080fd5b6109e981612e48565b60608101516001600160a01b03166000908152603f60209081526040808320548151808301909252600382526233303760e81b928201929092529060ff166111df5760405162461bcd60e51b815260040161075f9190613b17565b5060006111eb83612f0f565b600081815260366020908152604080832080546001600160a01b039081168552603a845282852060018084018054885291865284872080548083018255908852868820855460079092020180549185166001600160a01b031992831617815583548184015560028087015490820180549187169184169190911790556003808701549082018054918716919093161790915560048086015490820155600580860154908201805460ff191660ff909216151591909117905560068086015491015592549091168552603b84529184209154825491820183559184529190922001559392505050565b6034546001600160a01b0316331480156112f557506001600160a01b03811615155b6040518060400160405280600381526020016231303160e81b8152509061132f5760405162461bcd60e51b815260040161075f9190613b17565b506035546001600160a01b038281169116146109e957603580546001600160a01b0383166001600160a01b031990911617905550565b606081015160408051808201909152600381526203130360ec1b60208201526000916001600160a01b03166113ad5760405162461bcd60e51b815260040161075f9190613b17565b50815160408051808201909152600381526203130360ec1b6020820152906001600160a01b03166113f15760405162461bcd60e51b815260040161075f9190613b17565b5060008260800151116040518060400160405280600381526020016206660760eb1b815250906114345760405162461bcd60e51b815260040161075f9190613b17565b5060608201516080830151604051636eb1769f60e11b81523360048201523060248201526001600160a01b0383169063dd62ed3e90604401602060405180830381865afa158015611489573d6000803e3d6000fd5b505050506040513d601f19601f820116820180604052508101906114ad9190613c1e565b10156114b857600080fd5b603380549060006114c883613b98565b919050555060006114da603354613200565b845160208601516114ea90613200565b6040516020016114fc93929190613c37565b60408051808303601f190181528282528051602091820120600081815260388352928320885181546001600160a01b03199081166001600160a01b03928316178355938a015160018084019190915560028301805460608d01516003860180548916919095161790935560808c0151600485015560a08c015160058501805460ff191691151591909117905560c08c01516006909401939093559316331790556039805492830181559092527fdc16fef70f8d5ddbc01ee3d903d1e69c18a3c7be080eb86a81e0578814ee58d301819055915081907f1101875263abf1b7c3fc9cf51275180975f69f768a3c09e1b453fa0cad6f29b1906115fe908790613c83565b60405180910390a29392505050565b600260015414156116605760405162461bcd60e51b815260206004820152601f60248201527f5265656e7472616e637947756172643a207265656e7472616e742063616c6c00604482015260640161075f565b6002600155565b600081815260366020908152604091829020825160e08101845281546001600160a01b03908116825260018301549382019390935260028201548316938101939093526003810154909116606083015260048101546080830152600581015460ff1615801560a0840181905260069092015460c0840152906116f8575060c081015115806116f857508060c0015142105b6040518060400160405280600381526020016219981960e91b815250906117325760405162461bcd60e51b815260040161075f9190613b17565b506000828152603660209081526040808320600501805460ff191660011790558351606080860151835160e08101855286815294850186905292840185905283018490526080830184905260a0830184905260c08301939093526001600160a01b0316151590600082156118f757846060015190506040518060e00160405280336001600160a01b0316815260200186604001516001600160a01b031681526020018660800151815260200186608001518152602001826001600160a01b03166370a08231336040518263ffffffff1660e01b815260040161182391906001600160a01b0391909116815260200190565b602060405180830381865afa158015611840573d6000803e3d6000fd5b505050506040513d601f19601f820116820180604052508101906118649190613c1e565b8152604051636eb1769f60e11b81523360048201523060248201526020909101906001600160a01b0384169063dd62ed3e90604401602060405180830381865afa1580156118b6573d6000803e3d6000fd5b505050506040513d601f19601f820116820180604052508101906118da9190613c1e565b815260200186606001516001600160a01b03168152509150611957565b6040518060e00160405280336001600160a01b0316815260200186604001516001600160a01b031681526020018660800151815260200186608001518152602001600081526020016000815260200160006001600160a01b031681525091505b84604001516001600160a01b0316846001600160a01b0316636352211e87602001516040518263ffffffff1660e01b815260040161199791815260200190565b602060405180830381865afa1580156119b4573d6000803e3d6000fd5b505050506040513d601f19601f820116820180604052508101906119d89190613cde565b6001600160a01b0316146040518060400160405280600381526020016203330360ec1b81525090611a1c5760405162461bcd60e51b815260040161075f9190613b17565b508215611aae5760408083015160a08401518251808401909352600383526233303560e81b60208401521015611a655760405162461bcd60e51b815260040161075f9190613b17565b506040808301516080840151825180840190935260038352620ccc0d60ea1b60208401521015611aa85760405162461bcd60e51b815260040161075f9190613b17565b50611aee565b6040808301518151808301909252600382526233303360e81b6020830152341015611aec5760405162461bcd60e51b815260040161075f9190613b17565b505b602080830151835191870151604051632142170760e11b81526001600160a01b038816936342842e0e93611b26939092600401613cfb565b600060405180830381600087803b158015611b4057600080fd5b505af1158015611b54573d6000803e3d6000fd5b50506035546040805160808101825260008082526020808301829052828401829052606083019190915282518084018452601b81527f4d41524b4554504c4143455f42454e454649545f50455243454e540000000000918101919091529151636d12dce160e01b81526001600160a01b03909316945092508391636d12dce191611be091600401613b17565b602060405180830381865afa158015611bfd573d6000803e3d6000fd5b505050506040513d601f19601f82011682018060405250810190611c219190613c1e565b60408201819052611c345760fa60408201525b604081015115611c7b5761271081604001518560600151611c559190613d1f565b611c5f9190613b76565b60608201819052604085018051611c77908390613d3e565b9052505b6040516301ffc9a760e01b815263152a902d60e11b60048201526001600160a01b038716906301ffc9a790602401602060405180830381865afa158015611cc6573d6000803e3d6000fd5b505050506040513d601f19601f82011682018060405250810190611cea9190613c01565b15611da15786516020880151606086015160405163152a902d60e11b81526004810192909252602482015260009081906001600160a01b03841690632a55205a906044016040805180830381865afa158015611d4a573d6000803e3d6000fd5b505050506040513d601f19601f82011682018060405250810190611d6e9190613d55565b602086018190526001600160a01b03821686526040890180519294509092508291611d9a908390613d3e565b9052505050505b841561201757835160608501516040516323b872dd60e01b81526001600160a01b038616926323b872dd92611ddb92309190600401613cfb565b6020604051808303816000875af1158015611dfa573d6000803e3d6000fd5b505050506040513d601f19601f82011682018060405250810190611e1e9190613c01565b6040518060400160405280600381526020016219981b60e91b81525090611e585760405162461bcd60e51b815260040161075f9190613b17565b5060408088015185820151915163a9059cbb60e01b81526001600160a01b039182166004820152602481019290925284169063a9059cbb906044016020604051808303816000875af1158015611eb2573d6000803e3d6000fd5b505050506040513d601f19601f82011682018060405250810190611ed69190613c01565b6040518060400160405280600381526020016219981b60e91b81525090611f105760405162461bcd60e51b815260040161075f9190613b17565b5080516001600160a01b031615801590611f2e575060008160200151115b15612012578051602082015160405163a9059cbb60e01b81526001600160a01b0386169263a9059cbb92611f78926004016001600160a01b03929092168252602082015260400190565b6020604051808303816000875af1158015611f97573d6000803e3d6000fd5b505050506040513d601f19601f82011682018060405250810190611fbb9190613c01565b6040518060400160405280600381526020016219981b60e91b81525090611ff55760405162461bcd60e51b815260040161075f9190613b17565b50612012816000015188602001518960600151846020015161329d565b61225d565b60408051808201909152600381526233303360e81b60208201524761204f5760405162461bcd60e51b815260040161075f9190613b17565b50600087604001516001600160a01b0316856040015160405160006040518083038185875af1925050503d80600081146120a5576040519150601f19603f3d011682016040523d82523d6000602084013e6120aa565b606091505b505060408051808201909152600381526219981b60e91b6020820152909150816120e75760405162461bcd60e51b815260040161075f9190613b17565b5081516001600160a01b031615801590612105575060008260200151115b156121b857815160208301516040516001600160a01b0390921691600081818185875af1925050503d8060008114612159576040519150601f19603f3d011682016040523d82523d6000602084013e61215e565b606091505b505060408051808201909152600381526219981b60e91b60208201529091508161219b5760405162461bcd60e51b815260040161075f9190613b17565b506121b8826000015189602001518a60600151856020015161329d565b604080518082018252600981526823a2a72faa27a5a2a760b91b6020820152905163bf40fac160e01b815261225b916001600160a01b0386169163bf40fac19161220491600401613b17565b602060405180830381865afa158015612221573d6000803e3d6000fd5b505050506040513d601f19601f820116820180604052508101906122459190613cde565b895160208b015160608c015160808d0151613394565b505b60008881526036602052604090819020855191518a927f744eb8cec82caa596aa6c23e80f64b53c47d2139a53db9b3bbd7eb0a0a4b7992926122a192909190613dd8565b60405180910390a25050505050505050565b60018055565b600054610100900460ff16158080156122d95750600054600160ff909116105b806122f35750303b1580156122f3575060005460ff166001145b61230f5760405162461bcd60e51b815260040161075f90613bb3565b6000805460ff191660011790558015612332576000805461ff0019166101001790555b60408051808201909152600381526203130360ec1b60208201526001600160a01b0384166123735760405162461bcd60e51b815260040161075f9190613b17565b5060408051808201909152600381526203130360ec1b60208201526001600160a01b0383166123b55760405162461bcd60e51b815260040161075f9190613b17565b50603480546001600160a01b038086166001600160a01b0319928316179092556035805492851692909116919091179055610abe6134d4565b600081815260366020908152604091829020600201548251808401909352600383526203330360ec1b918301919091526001600160a01b031633146124465760405162461bcd60e51b815260040161075f9190613b17565b5060008181526036602052604090206005015460ff161561246657600080fd5b6000818152603660205260409081902060058101805460ff19166001179055905182917f0f9936e2210c5cb61170d9da568110dc1426511cd2a1ffabe518cb3f12791c32916124b59190613dff565b60405180910390a250565b600081815260386020908152604091829020825160e08101845281546001600160a01b03908116825260018301549382019390935260028201548316938101939093526003810154909116606083015260048101546080830152600581015460ff1615801560a0840181905260069092015460c084015290612551575060c0810151158061255157508060c0015142105b6040518060400160405280600381526020016219981960e91b8152509061258b5760405162461bcd60e51b815260040161075f9190613b17565b50600082815260386020908152604091829020600501805460ff1916600117905582519083015191516331a9108f60e11b8152909133916001600160a01b03841691636352211e916125e4919060040190815260200190565b602060405180830381865afa158015612601573d6000803e3d6000fd5b505050506040513d601f19601f820116820180604052508101906126259190613cde565b6001600160a01b0316146040518060400160405280600381526020016203330360ec1b815250906126695760405162461bcd60e51b815260040161075f9190613b17565b5060405163e985e9c560e01b81523360048201523060248201526001600160a01b0382169063e985e9c590604401602060405180830381865afa1580156126b4573d6000803e3d6000fd5b505050506040513d601f19601f820116820180604052508101906126d89190613c01565b6040518060400160405280600381526020016233303160e81b815250906127125760405162461bcd60e51b815260040161075f9190613b17565b50606082015160808301516040808501519051636eb1769f60e11b81526001600160a01b0391821660048201523060248201529083169063dd62ed3e90604401602060405180830381865afa15801561276f573d6000803e3d6000fd5b505050506040513d601f19601f820116820180604052508101906127939190613c1e565b101561279e57600080fd5b6040805160e08101825284820180516001600160a01b0390811683523360208401526080808801805185870152516060850152915193516370a0823160e01b8152938116600485015260009391830191908516906370a0823190602401602060405180830381865afa158015612818573d6000803e3d6000fd5b505050506040513d601f19601f8201168201806040525081019061283c9190613c1e565b81526040808701519051636eb1769f60e11b81526001600160a01b0391821660048201523060248201526020909201919085169063dd62ed3e90604401602060405180830381865afa158015612896573d6000803e3d6000fd5b505050506040513d601f19601f820116820180604052508101906128ba9190613c1e565b81526060808701516001600160a01b039081166020938401526035546040805160808101825260008082528187018190528183018190529481019490945280518082018252601b81527f4d41524b4554504c4143455f42454e454649545f50455243454e5400000000009581019590955251636d12dce160e01b8152949550169290918391636d12dce19161295191600401613b17565b602060405180830381865afa15801561296e573d6000803e3d6000fd5b505050506040513d601f19601f820116820180604052508101906129929190613c1e565b604082018190526129a55760fa60408201525b6040810151156129ec57612710816040015184606001516129c69190613d1f565b6129d09190613b76565b606082018190526040840180516129e8908390613d3e565b9052505b6040516301ffc9a760e01b815263152a902d60e11b60048201526001600160a01b038616906301ffc9a790602401602060405180830381865afa158015612a37573d6000803e3d6000fd5b505050506040513d601f19601f82011682018060405250810190612a5b9190613c01565b15612b125785516020870151606085015160405163152a902d60e11b81526004810192909252602482015260009081906001600160a01b03841690632a55205a906044016040805180830381865afa158015612abb573d6000803e3d6000fd5b505050506040513d601f19601f82011682018060405250810190612adf9190613d55565b602086018190526001600160a01b03821686526040880180519294509092508291612b0b908390613d3e565b9052505050505b825160608401516040516323b872dd60e01b81526001600160a01b038716926323b872dd92612b4692309190600401613cfb565b6020604051808303816000875af1158015612b65573d6000803e3d6000fd5b505050506040513d601f19601f82011682018060405250810190612b899190613c01565b6040518060400160405280600381526020016219981b60e91b81525090612bc35760405162461bcd60e51b815260040161075f9190613b17565b506020830151604080850151905163a9059cbb60e01b81526001600160a01b0387169263a9059cbb92612c0c926004016001600160a01b03929092168252602082015260400190565b6020604051808303816000875af1158015612c2b573d6000803e3d6000fd5b505050506040513d601f19601f82011682018060405250810190612c4f9190613c01565b6040518060400160405280600381526020016219981b60e91b81525090612c895760405162461bcd60e51b815260040161075f9190613b17565b5080516001600160a01b031615801590612ca7575060008160200151115b15612d8b578051602082015160405163a9059cbb60e01b81526001600160a01b0387169263a9059cbb92612cf1926004016001600160a01b03929092168252602082015260400190565b6020604051808303816000875af1158015612d10573d6000803e3d6000fd5b505050506040513d601f19601f82011682018060405250810190612d349190613c01565b6040518060400160405280600381526020016219981b60e91b81525090612d6e5760405162461bcd60e51b815260040161075f9190613b17565b50612d8b816000015187602001518860600151846020015161329d565b602080840151845191880151604051632142170760e11b81526001600160a01b038916936342842e0e93612dc3939092600401613cfb565b600060405180830381600087803b158015612ddd57600080fd5b505af1158015612df1573d6000803e3d6000fd5b50505060008881526038602052604090819020855191518a93507fe0787f0a475d5edb93acefb462596edcf3ab4d4949407b732fec63d7e5afc60c92612e379291613dd8565b60405180910390a250505050505050565b600081815260386020908152604091829020600201548251808401909352600383526203130360ec1b918301919091526001600160a01b03163314612ea05760405162461bcd60e51b815260040161075f9190613b17565b5060008181526038602052604090206005015460ff1615612ec057600080fd5b6000818152603860205260409081902060058101805460ff19166001179055905182917fd1e7e193455ba4241e816f1b6fa787b59dad27c1279c69179f6cb4b4387bf543916124b59190613dff565b805160208201516040516331a9108f60e11b815260048101919091526000919033906001600160a01b03831690636352211e90602401602060405180830381865afa158015612f62573d6000803e3d6000fd5b505050506040513d601f19601f82011682018060405250810190612f869190613cde565b6001600160a01b0316146040518060400160405280600381526020016203330360ec1b81525090612fca5760405162461bcd60e51b815260040161075f9190613b17565b5060008360800151116040518060400160405280600381526020016206660760eb1b8152509061300d5760405162461bcd60e51b815260040161075f9190613b17565b5060405163e985e9c560e01b81523360048201523060248201526001600160a01b0382169063e985e9c590604401602060405180830381865afa158015613058573d6000803e3d6000fd5b505050506040513d601f19601f8201168201806040525081019061307c9190613c01565b60408051808201909152600381526233303160e81b60208201529015156001146130b95760405162461bcd60e51b815260040161075f9190613b17565b50603380549060006130ca83613b98565b919050555060006130dc603354613200565b845160208601516130ec90613200565b6040516020016130fe93929190613c37565b60408051808303601f190181528282528051602091820120600081815260368352928320885181546001600160a01b03199081166001600160a01b03928316178355938a015160018084019190915560028301805460608d01516003860180548916919095161790935560808c0151600485015560a08c015160058501805460ff191691151591909117905560c08c01516006909401939093559316331790556037805492830181559092527f42a7b7dd785cd69714a189dffb3fd7d7174edc9ece837694ce50f7078f7c31ae01819055915081907f36baa67ff8b95fa14aac46cea75517dc7f57ebebc1b90d48388c8c085f5cbfe3906115fe908790613c83565b6060600061320d83613505565b600101905060008167ffffffffffffffff81111561322d5761322d613678565b6040519080825280601f01601f191660200182016040528015613257576020820181803683370190505b5090508181016020015b600019016f181899199a1a9b1b9c1cb0b131b232b360811b600a86061a8153600a850494508461329057613295565b613261565b509392505050565b6001600160a01b0384161561338e576040516301ffc9a760e01b815263676eda1760e01b600482015284906001600160a01b038216906301ffc9a790602401602060405180830381865afa1580156132f9573d6000803e3d6000fd5b505050506040513d601f19601f8201168201806040525081019061331d9190613c01565b1561338c5760405163676eda1760e01b8152600481018590526001600160a01b0384811660248301526044820184905282169063676eda1790606401600060405180830381600087803b15801561337357600080fd5b505af1158015613387573d6000803e3d6000fd5b505050505b505b50505050565b6001600160a01b0385161561338c5760405163186f2bdd60e21b81526001600160a01b038581166004830152602482018590528381166044830152606482018390528691908216906361bcaf7490608401600060405180830381600087803b1580156133ff57600080fd5b505af1925050508015613410575060015b61347257604080516001600160a01b0388811682528781166020830152818301879052851660608201526080810184905290517f2b24ae3182dffe91b3b5d3bd7e893fdf479327b5a0f15f2ce99b2d6e798680e69181900360a00190a16134cc565b604080516001600160a01b0388811682528781166020830152818301879052851660608201526080810184905290517fd6a08b4403c29a9320fb167fd747bf8bf1fa0ebc0ec4d46a726f3ddbb4ab42379181900360a00190a15b505050505050565b600054610100900460ff166134fb5760405162461bcd60e51b815260040161075f90613e0d565b6135036135de565b565b60008072184f03e93ff9f4daa797ed6e38ed64bf6a1f0160401b83106135445772184f03e93ff9f4daa797ed6e38ed64bf6a1f0160401b830492506040015b6d04ee2d6d415b85acef81000000008310613570576d04ee2d6d415b85acef8100000000830492506020015b662386f26fc10000831061358e57662386f26fc10000830492506010015b6305f5e10083106135a6576305f5e100830492506008015b61271083106135ba57612710830492506004015b606483106135cc576064830492506002015b600a83106135d8576001015b92915050565b600054610100900460ff166122b35760405162461bcd60e51b815260040161075f90613e0d565b6001600160a01b03811681146109e957600080fd5b803561362581613605565b919050565b60008060006060848603121561363f57600080fd5b833561364a81613605565b95602085013595506040909401359392505050565b60006020828403121561367157600080fd5b5035919050565b634e487b7160e01b600052604160045260246000fd5b60405160e0810167ffffffffffffffff811182821017156136b1576136b1613678565b60405290565b604051601f8201601f1916810167ffffffffffffffff811182821017156136e0576136e0613678565b604052919050565b600067ffffffffffffffff82111561370257613702613678565b5060051b60200190565b600082601f83011261371d57600080fd5b8135602061373261372d836136e8565b6136b7565b82815260059290921b8401810191818101908684111561375157600080fd5b8286015b8481101561376c5780358352918301918301613755565b509695505050505050565b80151581146109e957600080fd5b803561362581613777565b6000602082840312156137a257600080fd5b813567ffffffffffffffff808211156137ba57600080fd5b9083019060e082860312156137ce57600080fd5b6137d661368e565b6137df8361361a565b81526020830135828111156137f357600080fd5b6137ff8782860161370c565b6020830152506138116040840161361a565b60408201526138226060840161361a565b60608201526080830135608082015261383d60a08401613785565b60a082015260c083013560c082015280935050505092915050565b6020808252825182820181905260009190848201906040850190845b8181101561389057835183529284019291840191600101613874565b50909695505050505050565b600080604083850312156138af57600080fd5b50508035926020909101359150565b600080604083850312156138d157600080fd5b82356138dc81613605565b915060208301356138ec81613605565b809150509250929050565b60006020828403121561390957600080fd5b813561391481613605565b9392505050565b6000602080838503121561392e57600080fd5b823567ffffffffffffffff81111561394557600080fd5b8301601f8101851361395657600080fd5b803561396461372d826136e8565b81815260059190911b8201830190838101908783111561398357600080fd5b928401925b828410156139a157833582529284019290840190613988565b979650505050505050565b600080604083850312156139bf57600080fd5b82356139ca81613605565b915060208301356138ec81613777565b600080604083850312156139ed57600080fd5b82356139f881613605565b946020939093013593505050565b600060e08284031215613a1857600080fd5b613a2061368e565b90508135613a2d81613605565b8152602082810135908201526040820135613a4781613605565b60408201526060820135613a5a81613605565b60608201526080828101359082015260a0820135613a7781613777565b8060a08301525060c082013560c082015292915050565b600060e08284031215613aa057600080fd5b6139148383613a06565b600080600060608486031215613abf57600080fd5b8335613aca81613605565b92506020840135613ada81613605565b929592945050506040919091013590565b60005b83811015613b06578181015183820152602001613aee565b8381111561338e5750506000910152565b6020815260008251806020840152613b36816040850160208701613aeb565b601f01601f19169190910160400192915050565b634e487b7160e01b600052603260045260246000fd5b634e487b7160e01b600052601160045260246000fd5b600082613b9357634e487b7160e01b600052601260045260246000fd5b500490565b6000600019821415613bac57613bac613b60565b5060010190565b6020808252602e908201527f496e697469616c697a61626c653a20636f6e747261637420697320616c72656160408201526d191e481a5b9a5d1a585b1a5e995960921b606082015260800190565b600060208284031215613c1357600080fd5b815161391481613777565b600060208284031215613c3057600080fd5b5051919050565b60008451613c49818460208901613aeb565b606085901b6bffffffffffffffffffffffff19169083019081528351613c76816014840160208801613aeb565b0160140195945050505050565b81516001600160a01b03908116825260208084015190830152604080840151821690830152606080840151909116908201526080808301519082015260a08083015115159082015260c0808301519082015260e081016135d8565b600060208284031215613cf057600080fd5b815161391481613605565b6001600160a01b039384168152919092166020820152604081019190915260600190565b6000816000190483118215151615613d3957613d39613b60565b500290565b600082821015613d5057613d50613b60565b500390565b60008060408385031215613d6857600080fd5b8251613d7381613605565b6020939093015192949293505050565b80546001600160a01b03908116835260018201546020840152600282015481166040840152600382015416606083015260048101546080830152600581015460ff16151560a08301526006015460c090910152565b6101008101613de78285613d83565b6001600160a01b039290921660e09190910152919050565b60e081016135d88284613d83565b6020808252602b908201527f496e697469616c697a61626c653a20636f6e7472616374206973206e6f74206960408201526a6e697469616c697a696e6760a81b60608201526080019056fea264697066735822122011b8919fef5e2140af3c67077a0064cfd3868dfa90b87110bd9f881dca704ddd64736f6c634300080c0033",
  "linkReferences": {},
  "deployedLinkReferences": {}
}