{
  "_format": "hh-sol-artifact-1",
  "contractName": "AdvanceMarketplaceService",
  "sourceName": "contracts/services/AdvanceMarketplaceService.sol",
  "abi": [
    {
      "anonymous": false,
      "inputs": [
        {
          "indexed": false,
          "internalType": "uint8",
          "name": "version",
          "type": "uint8"
        }
      ],
      "name": "Initialized",
      "type": "event"
    },
    {
      "inputs": [],
      "name": "_admin",
      "outputs": [
        {
          "internalType": "address",
          "name": "",
          "type": "address"
        }
      ],
      "stateMutability": "view",
      "type": "function"
    },
    {
      "inputs": [
        {
          "internalType": "address",
          "name": "",
          "type": "address"
        }
      ],
      "name": "_allowableERC20MakeListToken",
      "outputs": [
        {
          "internalType": "bool",
          "name": "",
          "type": "bool"
        }
      ],
      "stateMutability": "view",
      "type": "function"
    },
    {
      "inputs": [
        {
          "internalType": "address",
          "name": "",
          "type": "address"
        }
      ],
      "name": "_allowableERC20MakeOffer",
      "outputs": [
        {
          "internalType": "bool",
          "name": "",
          "type": "bool"
        }
      ],
      "stateMutability": "view",
      "type": "function"
    },
    {
      "inputs": [
        {
          "internalType": "uint256",
          "name": "",
          "type": "uint256"
        }
      ],
      "name": "_arrayListingId",
      "outputs": [
        {
          "internalType": "bytes32",
          "name": "",
          "type": "bytes32"
        }
      ],
      "stateMutability": "view",
      "type": "function"
    },
    {
      "inputs": [
        {
          "internalType": "uint256",
          "name": "",
          "type": "uint256"
        }
      ],
      "name": "_arrayMakeOfferId",
      "outputs": [
        {
          "internalType": "bytes32",
          "name": "",
          "type": "bytes32"
        }
      ],
      "stateMutability": "view",
      "type": "function"
    },
    {
      "inputs": [
        {
          "internalType": "address",
          "name": "",
          "type": "address"
        },
        {
          "internalType": "uint256",
          "name": "",
          "type": "uint256"
        },
        {
          "internalType": "uint256",
          "name": "",
          "type": "uint256"
        }
      ],
      "name": "_listingTokenDataMapping",
      "outputs": [
        {
          "internalType": "address",
          "name": "_collectionContract",
          "type": "address"
        },
        {
          "internalType": "uint256",
          "name": "_tokenId",
          "type": "uint256"
        },
        {
          "internalType": "address",
          "name": "_seller",
          "type": "address"
        },
        {
          "internalType": "address",
          "name": "_erc20Token",
          "type": "address"
        },
        {
          "internalType": "uint256",
          "name": "_price",
          "type": "uint256"
        },
        {
          "internalType": "bool",
          "name": "_closed",
          "type": "bool"
        },
        {
          "internalType": "uint256",
          "name": "_durationTime",
          "type": "uint256"
        }
      ],
      "stateMutability": "view",
      "type": "function"
    },
    {
      "inputs": [
        {
          "internalType": "address",
          "name": "",
          "type": "address"
        },
        {
          "internalType": "uint256",
          "name": "",
          "type": "uint256"
        }
      ],
      "name": "_listingTokenIds",
      "outputs": [
        {
          "internalType": "uint256",
          "name": "",
          "type": "uint256"
        }
      ],
      "stateMutability": "view",
      "type": "function"
    },
    {
      "inputs": [
        {
          "internalType": "bytes32",
          "name": "",
          "type": "bytes32"
        }
      ],
      "name": "_listingTokens",
      "outputs": [
        {
          "internalType": "address",
          "name": "_collectionContract",
          "type": "address"
        },
        {
          "internalType": "uint256",
          "name": "_tokenId",
          "type": "uint256"
        },
        {
          "internalType": "address",
          "name": "_seller",
          "type": "address"
        },
        {
          "internalType": "address",
          "name": "_erc20Token",
          "type": "address"
        },
        {
          "internalType": "uint256",
          "name": "_price",
          "type": "uint256"
        },
        {
          "internalType": "bool",
          "name": "_closed",
          "type": "bool"
        },
        {
          "internalType": "uint256",
          "name": "_durationTime",
          "type": "uint256"
        }
      ],
      "stateMutability": "view",
      "type": "function"
    },
    {
      "inputs": [
        {
          "internalType": "address",
          "name": "",
          "type": "address"
        },
        {
          "internalType": "uint256",
          "name": "",
          "type": "uint256"
        },
        {
          "internalType": "uint256",
          "name": "",
          "type": "uint256"
        }
      ],
      "name": "_makeOfferDataMapping",
      "outputs": [
        {
          "internalType": "address",
          "name": "_collectionContract",
          "type": "address"
        },
        {
          "internalType": "uint256",
          "name": "_tokenId",
          "type": "uint256"
        },
        {
          "internalType": "address",
          "name": "_buyer",
          "type": "address"
        },
        {
          "internalType": "address",
          "name": "_erc20Token",
          "type": "address"
        },
        {
          "internalType": "uint256",
          "name": "_price",
          "type": "uint256"
        },
        {
          "internalType": "bool",
          "name": "_closed",
          "type": "bool"
        },
        {
          "internalType": "uint256",
          "name": "_durationTime",
          "type": "uint256"
        }
      ],
      "stateMutability": "view",
      "type": "function"
    },
    {
      "inputs": [
        {
          "internalType": "address",
          "name": "",
          "type": "address"
        },
        {
          "internalType": "uint256",
          "name": "",
          "type": "uint256"
        }
      ],
      "name": "_makeOfferTokenIds",
      "outputs": [
        {
          "internalType": "uint256",
          "name": "",
          "type": "uint256"
        }
      ],
      "stateMutability": "view",
      "type": "function"
    },
    {
      "inputs": [
        {
          "internalType": "bytes32",
          "name": "",
          "type": "bytes32"
        }
      ],
      "name": "_makeOfferTokens",
      "outputs": [
        {
          "internalType": "address",
          "name": "_collectionContract",
          "type": "address"
        },
        {
          "internalType": "uint256",
          "name": "_tokenId",
          "type": "uint256"
        },
        {
          "internalType": "address",
          "name": "_buyer",
          "type": "address"
        },
        {
          "internalType": "address",
          "name": "_erc20Token",
          "type": "address"
        },
        {
          "internalType": "uint256",
          "name": "_price",
          "type": "uint256"
        },
        {
          "internalType": "bool",
          "name": "_closed",
          "type": "bool"
        },
        {
          "internalType": "uint256",
          "name": "_durationTime",
          "type": "uint256"
        }
      ],
      "stateMutability": "view",
      "type": "function"
    },
    {
      "inputs": [],
      "name": "_parameterAddr",
      "outputs": [
        {
          "internalType": "address",
          "name": "",
          "type": "address"
        }
      ],
      "stateMutability": "view",
      "type": "function"
    },
    {
      "inputs": [
        {
          "internalType": "bytes32",
          "name": "offerId",
          "type": "bytes32"
        }
      ],
      "name": "acceptMakeOffer",
      "outputs": [],
      "stateMutability": "nonpayable",
      "type": "function"
    },
    {
      "inputs": [
        {
          "internalType": "bytes32",
          "name": "_offeringId",
          "type": "bytes32"
        }
      ],
      "name": "cancelListing",
      "outputs": [],
      "stateMutability": "nonpayable",
      "type": "function"
    },
    {
      "inputs": [
        {
          "internalType": "bytes32",
          "name": "offerId",
          "type": "bytes32"
        }
      ],
      "name": "cancelMakeOffer",
      "outputs": [],
      "stateMutability": "nonpayable",
      "type": "function"
    },
    {
      "inputs": [
        {
          "internalType": "address",
          "name": "newAdm",
          "type": "address"
        }
      ],
      "name": "changeAdmin",
      "outputs": [],
      "stateMutability": "nonpayable",
      "type": "function"
    },
    {
      "inputs": [
        {
          "internalType": "address",
          "name": "newAddr",
          "type": "address"
        }
      ],
      "name": "changeParamAddr",
      "outputs": [],
      "stateMutability": "nonpayable",
      "type": "function"
    },
    {
      "inputs": [
        {
          "internalType": "address",
          "name": "admin",
          "type": "address"
        },
        {
          "internalType": "address",
          "name": "parameterControl",
          "type": "address"
        }
      ],
      "name": "initialize",
      "outputs": [],
      "stateMutability": "nonpayable",
      "type": "function"
    },
    {
      "inputs": [
        {
          "components": [
            {
              "internalType": "address",
              "name": "_collectionContract",
              "type": "address"
            },
            {
              "internalType": "uint256",
              "name": "_tokenId",
              "type": "uint256"
            },
            {
              "internalType": "address",
              "name": "_seller",
              "type": "address"
            },
            {
              "internalType": "address",
              "name": "_erc20Token",
              "type": "address"
            },
            {
              "internalType": "uint256",
              "name": "_price",
              "type": "uint256"
            },
            {
              "internalType": "bool",
              "name": "_closed",
              "type": "bool"
            },
            {
              "internalType": "uint256",
              "name": "_durationTime",
              "type": "uint256"
            }
          ],
          "internalType": "struct Marketplace.ListingTokenData",
          "name": "listingData",
          "type": "tuple"
        }
      ],
      "name": "listToken",
      "outputs": [
        {
          "internalType": "bytes32",
          "name": "",
          "type": "bytes32"
        }
      ],
      "stateMutability": "nonpayable",
      "type": "function"
    },
    {
      "inputs": [
        {
          "components": [
            {
              "internalType": "address",
              "name": "_collectionContract",
              "type": "address"
            },
            {
              "internalType": "uint256",
              "name": "_tokenId",
              "type": "uint256"
            },
            {
              "internalType": "address",
              "name": "_buyer",
              "type": "address"
            },
            {
              "internalType": "address",
              "name": "_erc20Token",
              "type": "address"
            },
            {
              "internalType": "uint256",
              "name": "_price",
              "type": "uint256"
            },
            {
              "internalType": "bool",
              "name": "_closed",
              "type": "bool"
            },
            {
              "internalType": "uint256",
              "name": "_durationTime",
              "type": "uint256"
            }
          ],
          "internalType": "struct Marketplace.MakeOfferData",
          "name": "makeOfferData",
          "type": "tuple"
        }
      ],
      "name": "makeOffer",
      "outputs": [
        {
          "internalType": "bytes32",
          "name": "",
          "type": "bytes32"
        }
      ],
      "stateMutability": "nonpayable",
      "type": "function"
    },
    {
      "inputs": [
        {
          "components": [
            {
              "internalType": "address",
              "name": "_collectionContract",
              "type": "address"
            },
            {
              "internalType": "uint256[]",
              "name": "_tokenIds",
              "type": "uint256[]"
            },
            {
              "internalType": "address",
              "name": "_buyer",
              "type": "address"
            },
            {
              "internalType": "address",
              "name": "_erc20Token",
              "type": "address"
            },
            {
              "internalType": "uint256",
              "name": "_price",
              "type": "uint256"
            },
            {
              "internalType": "bool",
              "name": "_closed",
              "type": "bool"
            },
            {
              "internalType": "uint256",
              "name": "_durationTime",
              "type": "uint256"
            }
          ],
          "internalType": "struct Marketplace.MakeOfferCollectionData",
          "name": "makeOfferCollectionData",
          "type": "tuple"
        }
      ],
      "name": "makeOfferCollection",
      "outputs": [
        {
          "internalType": "bytes32[]",
          "name": "result",
          "type": "bytes32[]"
        }
      ],
      "stateMutability": "nonpayable",
      "type": "function"
    },
    {
      "inputs": [
        {
          "internalType": "bytes32",
          "name": "offeringId",
          "type": "bytes32"
        }
      ],
      "name": "purchaseToken",
      "outputs": [],
      "stateMutability": "payable",
      "type": "function"
    },
    {
      "inputs": [
        {
          "internalType": "address",
          "name": "erc20",
          "type": "address"
        },
        {
          "internalType": "bool",
          "name": "allow",
          "type": "bool"
        }
      ],
      "name": "setApproveERC20ListToken",
      "outputs": [],
      "stateMutability": "nonpayable",
      "type": "function"
    },
    {
      "inputs": [
        {
          "internalType": "address",
          "name": "erc20",
          "type": "address"
        },
        {
          "internalType": "bool",
          "name": "allow",
          "type": "bool"
        }
      ],
      "name": "setApproveERC20MakeOffer",
      "outputs": [],
      "stateMutability": "nonpayable",
      "type": "function"
    },
    {
      "inputs": [
        {
          "internalType": "bytes32[]",
          "name": "offers",
          "type": "bytes32[]"
        }
      ],
      "name": "sweep",
      "outputs": [],
      "stateMutability": "payable",
      "type": "function"
    },
    {
      "inputs": [
        {
          "internalType": "bytes32",
          "name": "offerId",
          "type": "bytes32"
        },
        {
          "internalType": "uint256",
          "name": "price",
          "type": "uint256"
        }
      ],
      "name": "updateListingPrice",
      "outputs": [],
      "stateMutability": "nonpayable",
      "type": "function"
    },
    {
      "inputs": [
        {
          "internalType": "bytes32",
          "name": "offerId",
          "type": "bytes32"
        },
        {
          "internalType": "uint256",
          "name": "price",
          "type": "uint256"
        }
      ],
      "name": "updateMakeOfferPrice",
      "outputs": [],
      "stateMutability": "nonpayable",
      "type": "function"
    },
    {
      "inputs": [
        {
          "internalType": "address",
          "name": "erc20Addr",
          "type": "address"
        },
        {
          "internalType": "uint256",
          "name": "amount",
          "type": "uint256"
        }
      ],
      "name": "withdraw",
      "outputs": [],
      "stateMutability": "nonpayable",
      "type": "function"
    }
  ],
  "bytecode": "0x608060405234801561001057600080fd5b506142c5806100206000396000f3fe6080604052600436106101b75760003560e01c80639c9b62aa116100ec578063e5026b8b1161008a578063f1f2df0e11610064578063f1f2df0e146105e9578063f3fef3a314610609578063f40cb02d14610629578063febfd6c31461064957600080fd5b8063e5026b8b14610589578063eab651d8146105a9578063ed4ec201146105c957600080fd5b8063bd7ec0c2116100c6578063bd7ec0c2146104f9578063d299a08614610529578063d2abb69c14610549578063d9e87e611461056957600080fd5b80639c9b62aa1461044f578063a25d6dce1461046f578063a3a1937c1461048f57600080fd5b8063485cc9551161015957806372c035cf1161013357806372c035cf146103cf5780638f283970146103ef5780639142e6a81461040f5780639299e5521461042f57600080fd5b8063485cc9551461035c5780635b06e64a1461037c5780636852168a146103bc57600080fd5b80632670ab0f116101955780632670ab0f146102905780633ac1089a146102bd5780633dd72c40146102d25780633e93d0cd1461033c57600080fd5b806301bc45c9146101bc57806314646f6d146101f95780631fd4d2ed14610262575b600080fd5b3480156101c857600080fd5b506034546101dc906001600160a01b031681565b6040516001600160a01b0390911681526020015b60405180910390f35b34801561020557600080fd5b50610219610214366004613aa2565b610669565b604080516001600160a01b039889168152602081019790975294871694860194909452949091166060840152608083015291151560a082015260c081019190915260e0016101f0565b34801561026e57600080fd5b5061028261027d366004613ad7565b6106e2565b6040519081526020016101f0565b34801561029c57600080fd5b506102b06102ab366004613c08565b610703565b6040516101f09190613cd0565b6102d06102cb366004613ad7565b6109cf565b005b3480156102de57600080fd5b506102196102ed366004613ad7565b60386020526000908152604090208054600182015460028301546003840154600485015460058601546006909601546001600160a01b03958616969495938416949290931692909160ff169087565b34801561034857600080fd5b506102d0610357366004613d14565b6109ec565b34801561036857600080fd5b506102d0610377366004613d36565b610a45565b34801561038857600080fd5b506103ac610397366004613d6f565b603f6020526000908152604090205460ff1681565b60405190151581526020016101f0565b6102d06103ca366004613d93565b610b13565b3480156103db57600080fd5b506035546101dc906001600160a01b031681565b3480156103fb57600080fd5b506102d061040a366004613d6f565b610c78565b34801561041b57600080fd5b506102d061042a366004613e24565b610d0a565b34801561043b57600080fd5b506102d061044a366004613ad7565b610d7c565b34801561045b57600080fd5b506102d061046a366004613d14565b610d85565b34801561047b57600080fd5b5061028261048a366004613e52565b610dde565b34801561049b57600080fd5b506102196104aa366004613ad7565b60366020526000908152604090208054600182015460028301546003840154600485015460058601546006909601546001600160a01b03958616969495938416949290931692909160ff169087565b34801561050557600080fd5b506103ac610514366004613d6f565b603e6020526000908152604090205460ff1681565b34801561053557600080fd5b50610219610544366004613aa2565b610e0f565b34801561055557600080fd5b50610282610564366004613f06565b610e37565b34801561057557600080fd5b506102d0610584366004613ad7565b610f86565b34801561059557600080fd5b506102d06105a4366004613e24565b610f97565b3480156105b557600080fd5b506102826105c4366004613e52565b611009565b3480156105d557600080fd5b506102826105e4366004613ad7565b611025565b3480156105f557600080fd5b506102d0610604366004613ad7565b611035565b34801561061557600080fd5b506102d0610624366004613e52565b61103e565b34801561063557600080fd5b50610282610644366004613f06565b61125b565b34801561065557600080fd5b506102d0610664366004613d6f565b6113aa565b603c602052826000526040600020602052816000526040600020818154811061069157600080fd5b600091825260209091206007909102018054600182015460028301546003840154600485015460058601546006909601546001600160a01b03958616995093975091841695509092169260ff169087565b603981815481106106f257600080fd5b600091825260209091200154905081565b6060818101516001600160a01b03166000908152603e6020908152604091829020548251808401909352600383526233303760e81b9183019190915260ff166107685760405162461bcd60e51b815260040161075f9190613f4e565b60405180910390fd5b5081602001515167ffffffffffffffff81111561078757610787613af0565b6040519080825280602002602001820160405280156107b0578160200160208202803683370190505b50905060005b8260200151518110156109925760006040518060e0016040528085600001516001600160a01b03168152602001856020015184815181106107f9576107f9613f81565b60200260200101518152602001336001600160a01b0316815260200185606001516001600160a01b03168152602001856020015151866080015161083d9190613fad565b81526020016000151581526020018560c00151815250905060006108608261143c565b600081815260386020908152604080832080546001600160a01b039081168552603c845282852060018084018054885291865284872080548083018255908852868820855460079092020180549185166001600160a01b031992831617815583548184015560028087015490820180549187169184169190911790556003808701549082018054918716919093161790915560048086015490820155600580860154908201805460ff191660ff909216151591909117905560068086015491015583549092168652603d85529285209254835491820184559285529290932090910155855191925090829086908690811061095d5761095d613f81565b60200260200101818152505062030d405a101561097c57505050610992565b505050808061098a90613fcf565b9150506107b6565b507fc123571abb841e956264da4696ac135e6e5ac168d2b17cfdf2b1fb4dd1e30ce1816040516109c29190613cd0565b60405180910390a1919050565b6109d76116e4565b6109e08161173e565b6109e960018055565b50565b6000811180156109fa575060005b610a0357600080fd5b60008281526036602052604080822060040183905551829184917fd427e420f535ff7b1631b634183f475083a8a062ca123f6633ae118eafd329a49190a35050565b600054610100900460ff1615808015610a655750600054600160ff909116105b80610a7f5750303b158015610a7f575060005460ff166001145b610a9b5760405162461bcd60e51b815260040161075f90613fea565b6000805460ff191660011790558015610abe576000805461ff0019166101001790555b610ac883836125b1565b8015610b0e576000805461ff0019169055604051600181527f7f26b83ff96e1f2b6a682f133852f6798a09c465da95921460cefb38474024989060200160405180910390a15b505050565b610b1b6116e4565b606481511115610b2a57600080fd5b6000815167ffffffffffffffff811115610b4657610b46613af0565b604051908082528060200260200182016040528015610b6f578160200160208202803683370190505b50905060005b8251811015610c365760366000848381518110610b9457610b94613f81565b60209081029190910181015182528101919091526040016000206005015460ff16610c1457610bdb838281518110610bce57610bce613f81565b602002602001015161173e565b828181518110610bed57610bed613f81565b6020026020010151828281518110610c0757610c07613f81565b6020026020010181815250505b62030d405a1015610c2457610c36565b80610c2e81613fcf565b915050610b75565b507f158dd3c50fd0d637d65e59a4fe2a179d6ec485730ab6a010b2329e8f0484c8b881604051610c669190613cd0565b60405180910390a1506109e960018055565b6034546001600160a01b031633148015610c9a57506001600160a01b03811615155b6040518060400160405280600381526020016231303160e81b81525090610cd45760405162461bcd60e51b815260040161075f9190613f4e565b506034546001600160a01b038281169116146109e957603480546001600160a01b0383166001600160a01b031990911617905550565b60345460408051808201909152600381526231303160e81b6020820152906001600160a01b03163314610d505760405162461bcd60e51b815260040161075f9190613f4e565b506001600160a01b03919091166000908152603e60205260409020805460ff1916911515919091179055565b6109e9816126e6565b600081118015610d93575060005b610d9c57600080fd5b60008281526038602052604080822060040183905551829184917f3c1b9515c85fbdd17ae5c958c9173645c3acd8f86d5d73f6ab9ea580c2a5b3119190a35050565b603d6020528160005260406000208181548110610dfa57600080fd5b90600052602060002001600091509150505481565b603a602052826000526040600020602052816000526040600020818154811061069157600080fd5b60608101516001600160a01b03166000908152603e60209081526040808320548151808301909252600382526233303760e81b928201929092529060ff16610e925760405162461bcd60e51b815260040161075f9190613f4e565b506000610e9e8361143c565b600081815260386020908152604080832080546001600160a01b039081168552603c845282852060018084018054885291865284872080548083018255908852868820855460079092020180549185166001600160a01b031992831617815583548184015560028087015490820180549187169184169190911790556003808701549082018054918716919093161790915560048086015490820155600580860154908201805460ff191660ff909216151591909117905560068086015491015592549091168552603d84529184209154825491820183559184529190922001559392505050565b610f8e6116e4565b6109e0816127b8565b60345460408051808201909152600381526231303160e81b6020820152906001600160a01b03163314610fdd5760405162461bcd60e51b815260040161075f9190613f4e565b506001600160a01b03919091166000908152603f60205260409020805460ff1916911515919091179055565b603b6020528160005260406000208181548110610dfa57600080fd5b603781815481106106f257600080fd5b6109e9816132c0565b6110466116e4565b60345460408051808201909152600381526231303160e81b6020820152906001600160a01b0316331461108c5760405162461bcd60e51b815260040161075f9190613f4e565b50603554604080518082018252601f81527f4d494e545f4e46545f4f50455241544f525f54524541535552455f41444452006020820152905163bf40fac160e01b815233926001600160a01b031691600091839163bf40fac1916110f39190600401613f4e565b602060405180830381865afa158015611110573d6000803e3d6000fd5b505050506040513d601f19601f820116820180604052508101906111349190614038565b90506001600160a01b03811615611149578092505b60006001600160a01b0386166111c9578447101561116657600080fd5b6040516001600160a01b038516908690600081818185875af1925050503d80600081146111af576040519150601f19603f3d011682016040523d82523d6000602084013e6111b4565b606091505b505080915050806111c457600080fd5b61124a565b60405163a9059cbb60e01b81526001600160a01b0385811660048301526024820187905287919082169063a9059cbb906044016020604051808303816000875af115801561121b573d6000803e3d6000fd5b505050506040513d601f19601f8201168201806040525081019061123f9190614055565b61124857600080fd5b505b5050505061125760018055565b5050565b60608101516001600160a01b03166000908152603f60209081526040808320548151808301909252600382526233303760e81b928201929092529060ff166112b65760405162461bcd60e51b815260040161075f9190613f4e565b5060006112c283613387565b600081815260366020908152604080832080546001600160a01b039081168552603a845282852060018084018054885291865284872080548083018255908852868820855460079092020180549185166001600160a01b031992831617815583548184015560028087015490820180549187169184169190911790556003808701549082018054918716919093161790915560048086015490820155600580860154908201805460ff191660ff909216151591909117905560068086015491015592549091168552603b84529184209154825491820183559184529190922001559392505050565b6034546001600160a01b0316331480156113cc57506001600160a01b03811615155b6040518060400160405280600381526020016231303160e81b815250906114065760405162461bcd60e51b815260040161075f9190613f4e565b506035546001600160a01b038281169116146109e957603580546001600160a01b0383166001600160a01b031990911617905550565b606081015160408051808201909152600381526203130360ec1b60208201526000916001600160a01b03166114845760405162461bcd60e51b815260040161075f9190613f4e565b50815160408051808201909152600381526203130360ec1b6020820152906001600160a01b03166114c85760405162461bcd60e51b815260040161075f9190613f4e565b5060008260800151116040518060400160405280600381526020016206660760eb1b8152509061150b5760405162461bcd60e51b815260040161075f9190613f4e565b5060608201516080830151604051636eb1769f60e11b81523360048201523060248201526001600160a01b0383169063dd62ed3e90604401602060405180830381865afa158015611560573d6000803e3d6000fd5b505050506040513d601f19601f820116820180604052508101906115849190614072565b101561158f57600080fd5b6033805490600061159f83613fcf565b919050555060006115b1603354613678565b845160208601516115c190613678565b6040516020016115d39392919061408b565b60408051808303601f190181528282528051602091820120600081815260388352928320885181546001600160a01b03199081166001600160a01b03928316178355938a015160018084019190915560028301805460608d01516003860180548916919095161790935560808c0151600485015560a08c015160058501805460ff191691151591909117905560c08c01516006909401939093559316331790556039805492830181559092527fdc16fef70f8d5ddbc01ee3d903d1e69c18a3c7be080eb86a81e0578814ee58d301819055915081907f1101875263abf1b7c3fc9cf51275180975f69f768a3c09e1b453fa0cad6f29b1906116d59087906140d7565b60405180910390a29392505050565b600260015414156117375760405162461bcd60e51b815260206004820152601f60248201527f5265656e7472616e637947756172643a207265656e7472616e742063616c6c00604482015260640161075f565b6002600155565b600081815260366020908152604091829020825160e08101845281546001600160a01b03908116825260018301549382019390935260028201548316938101939093526003810154909116606083015260048101546080830152600581015460ff1615801560a0840181905260069092015460c0840152906117cf575060c081015115806117cf57508060c0015142105b6040518060400160405280600381526020016219981960e91b815250906118095760405162461bcd60e51b815260040161075f9190613f4e565b506000828152603660209081526040808320600501805460ff191660011790558351606080860151835160e08101855286815294850186905292840185905283018490526080830184905260a0830184905260c08301939093526001600160a01b0316151590600082156119ce57846060015190506040518060e00160405280336001600160a01b0316815260200186604001516001600160a01b031681526020018660800151815260200186608001518152602001826001600160a01b03166370a08231336040518263ffffffff1660e01b81526004016118fa91906001600160a01b0391909116815260200190565b602060405180830381865afa158015611917573d6000803e3d6000fd5b505050506040513d601f19601f8201168201806040525081019061193b9190614072565b8152604051636eb1769f60e11b81523360048201523060248201526020909101906001600160a01b0384169063dd62ed3e90604401602060405180830381865afa15801561198d573d6000803e3d6000fd5b505050506040513d601f19601f820116820180604052508101906119b19190614072565b815260200186606001516001600160a01b03168152509150611a2e565b6040518060e00160405280336001600160a01b0316815260200186604001516001600160a01b031681526020018660800151815260200186608001518152602001600081526020016000815260200160006001600160a01b031681525091505b84604001516001600160a01b0316846001600160a01b0316636352211e87602001516040518263ffffffff1660e01b8152600401611a6e91815260200190565b602060405180830381865afa158015611a8b573d6000803e3d6000fd5b505050506040513d601f19601f82011682018060405250810190611aaf9190614038565b6001600160a01b0316146040518060400160405280600381526020016203330360ec1b81525090611af35760405162461bcd60e51b815260040161075f9190613f4e565b508215611b855760408083015160a08401518251808401909352600383526233303560e81b60208401521015611b3c5760405162461bcd60e51b815260040161075f9190613f4e565b506040808301516080840151825180840190935260038352620ccc0d60ea1b60208401521015611b7f5760405162461bcd60e51b815260040161075f9190613f4e565b50611bc5565b6040808301518151808301909252600382526233303360e81b6020830152341015611bc35760405162461bcd60e51b815260040161075f9190613f4e565b505b602080830151835191870151604051632142170760e11b81526001600160a01b038816936342842e0e93611bfd939092600401614132565b600060405180830381600087803b158015611c1757600080fd5b505af1158015611c2b573d6000803e3d6000fd5b50506035546040805160808101825260008082526020808301829052828401829052606083019190915282518084018452601b81527f4d41524b4554504c4143455f42454e454649545f50455243454e540000000000918101919091529151636d12dce160e01b81526001600160a01b03909316945092508391636d12dce191611cb791600401613f4e565b602060405180830381865afa158015611cd4573d6000803e3d6000fd5b505050506040513d601f19601f82011682018060405250810190611cf89190614072565b60408201819052611d0b5760fa60408201525b604081015115611d525761271081604001518560600151611d2c9190614156565b611d369190613fad565b60608201819052604085018051611d4e908390614175565b9052505b6040516301ffc9a760e01b815263152a902d60e11b60048201526001600160a01b038716906301ffc9a790602401602060405180830381865afa158015611d9d573d6000803e3d6000fd5b505050506040513d601f19601f82011682018060405250810190611dc19190614055565b15611e785786516020880151606086015160405163152a902d60e11b81526004810192909252602482015260009081906001600160a01b03841690632a55205a906044016040805180830381865afa158015611e21573d6000803e3d6000fd5b505050506040513d601f19601f82011682018060405250810190611e45919061418c565b602086018190526001600160a01b03821686526040890180519294509092508291611e71908390614175565b9052505050505b604080518082018252601f81527f4d494e545f4e46545f4f50455241544f525f54524541535552455f41444452006020820152905163bf40fac160e01b815230916000916001600160a01b0386169163bf40fac191611eda9190600401613f4e565b602060405180830381865afa158015611ef7573d6000803e3d6000fd5b505050506040513d601f19601f82011682018060405250810190611f1b9190614038565b90506001600160a01b03811615611f30578091505b861561226c57855160608701516040516323b872dd60e01b81526001600160a01b038816926323b872dd92611f6a92309190600401614132565b6020604051808303816000875af1158015611f89573d6000803e3d6000fd5b505050506040513d601f19601f82011682018060405250810190611fad9190614055565b6040518060400160405280600381526020016219981b60e91b81525090611fe75760405162461bcd60e51b815260040161075f9190613f4e565b506040808a015187820151915163a9059cbb60e01b81526001600160a01b039182166004820152602481019290925286169063a9059cbb906044016020604051808303816000875af1158015612041573d6000803e3d6000fd5b505050506040513d601f19601f820116820180604052508101906120659190614055565b6040518060400160405280600381526020016219981b60e91b8152509061209f5760405162461bcd60e51b815260040161075f9190613f4e565b506001600160a01b038216301461216657606083015160405163a9059cbb60e01b81526001600160a01b03848116600483015260248201929092529086169063a9059cbb906044016020604051808303816000875af1158015612106573d6000803e3d6000fd5b505050506040513d601f19601f8201168201806040525081019061212a9190614055565b6040518060400160405280600381526020016219981b60e91b815250906121645760405162461bcd60e51b815260040161075f9190613f4e565b505b82516001600160a01b031615801590612183575060008360200151115b15612267578251602084015160405163a9059cbb60e01b81526001600160a01b0388169263a9059cbb926121cd926004016001600160a01b03929092168252602082015260400190565b6020604051808303816000875af11580156121ec573d6000803e3d6000fd5b505050506040513d601f19601f820116820180604052508101906122109190614055565b6040518060400160405280600381526020016219981b60e91b8152509061224a5760405162461bcd60e51b815260040161075f9190613f4e565b5061226783600001518a602001518b606001518660200151613715565b612553565b60408051808201909152600381526233303360e81b6020820152476122a45760405162461bcd60e51b815260040161075f9190613f4e565b50600089604001516001600160a01b0316876040015160405160006040518083038185875af1925050503d80600081146122fa576040519150601f19603f3d011682016040523d82523d6000602084013e6122ff565b606091505b505060408051808201909152600381526219981b60e91b60208201529091508161233c5760405162461bcd60e51b815260040161075f9190613f4e565b506001600160a01b03831630146123de5760608401516040516001600160a01b0385169190600081818185875af1925050503d806000811461239a576040519150601f19603f3d011682016040523d82523d6000602084013e61239f565b606091505b505060408051808201909152600381526219981b60e91b6020820152909150816123dc5760405162461bcd60e51b815260040161075f9190613f4e565b505b83516001600160a01b0316158015906123fb575060008460200151115b156124ae57835160208501516040516001600160a01b0390921691600081818185875af1925050503d806000811461244f576040519150601f19603f3d011682016040523d82523d6000602084013e612454565b606091505b505060408051808201909152600381526219981b60e91b6020820152909150816124915760405162461bcd60e51b815260040161075f9190613f4e565b506124ae84600001518b602001518c606001518760200151613715565b604080518082018252600981526823a2a72faa27a5a2a760b91b6020820152905163bf40fac160e01b8152612551916001600160a01b0388169163bf40fac1916124fa91600401613f4e565b602060405180830381865afa158015612517573d6000803e3d6000fd5b505050506040513d601f19601f8201168201806040525081019061253b9190614038565b8b5160208d015160608e015160808f015161380c565b505b60008a81526036602052604090819020875191518c927f744eb8cec82caa596aa6c23e80f64b53c47d2139a53db9b3bbd7eb0a0a4b7992926125979290919061420f565b60405180910390a250505050505050505050565b60018055565b600054610100900460ff16158080156125d15750600054600160ff909116105b806125eb5750303b1580156125eb575060005460ff166001145b6126075760405162461bcd60e51b815260040161075f90613fea565b6000805460ff19166001179055801561262a576000805461ff0019166101001790555b60408051808201909152600381526203130360ec1b60208201526001600160a01b03841661266b5760405162461bcd60e51b815260040161075f9190613f4e565b5060408051808201909152600381526203130360ec1b60208201526001600160a01b0383166126ad5760405162461bcd60e51b815260040161075f9190613f4e565b50603480546001600160a01b038086166001600160a01b0319928316179092556035805492851692909116919091179055610ac861394c565b600081815260366020908152604091829020600201548251808401909352600383526203330360ec1b918301919091526001600160a01b0316331461273e5760405162461bcd60e51b815260040161075f9190613f4e565b5060008181526036602052604090206005015460ff161561275e57600080fd5b6000818152603660205260409081902060058101805460ff19166001179055905182917f0f9936e2210c5cb61170d9da568110dc1426511cd2a1ffabe518cb3f12791c32916127ad9190614236565b60405180910390a250565b600081815260386020908152604091829020825160e08101845281546001600160a01b03908116825260018301549382019390935260028201548316938101939093526003810154909116606083015260048101546080830152600581015460ff1615801560a0840181905260069092015460c084015290612849575060c0810151158061284957508060c0015142105b6040518060400160405280600381526020016219981960e91b815250906128835760405162461bcd60e51b815260040161075f9190613f4e565b50600082815260386020908152604091829020600501805460ff1916600117905582519083015191516331a9108f60e11b8152909133916001600160a01b03841691636352211e916128dc919060040190815260200190565b602060405180830381865afa1580156128f9573d6000803e3d6000fd5b505050506040513d601f19601f8201168201806040525081019061291d9190614038565b6001600160a01b0316146040518060400160405280600381526020016203330360ec1b815250906129615760405162461bcd60e51b815260040161075f9190613f4e565b5060405163e985e9c560e01b81523360048201523060248201526001600160a01b0382169063e985e9c590604401602060405180830381865afa1580156129ac573d6000803e3d6000fd5b505050506040513d601f19601f820116820180604052508101906129d09190614055565b6040518060400160405280600381526020016233303160e81b81525090612a0a5760405162461bcd60e51b815260040161075f9190613f4e565b50606082015160808301516040808501519051636eb1769f60e11b81526001600160a01b0391821660048201523060248201529083169063dd62ed3e90604401602060405180830381865afa158015612a67573d6000803e3d6000fd5b505050506040513d601f19601f82011682018060405250810190612a8b9190614072565b1015612a9657600080fd5b6040805160e08101825284820180516001600160a01b0390811683523360208401526080808801805185870152516060850152915193516370a0823160e01b8152938116600485015260009391830191908516906370a0823190602401602060405180830381865afa158015612b10573d6000803e3d6000fd5b505050506040513d601f19601f82011682018060405250810190612b349190614072565b81526040808701519051636eb1769f60e11b81526001600160a01b0391821660048201523060248201526020909201919085169063dd62ed3e90604401602060405180830381865afa158015612b8e573d6000803e3d6000fd5b505050506040513d601f19601f82011682018060405250810190612bb29190614072565b81526060808701516001600160a01b039081166020938401526035546040805160808101825260008082528187018190528183018190529481019490945280518082018252601b81527f4d41524b4554504c4143455f42454e454649545f50455243454e5400000000009581019590955251636d12dce160e01b8152949550169290918391636d12dce191612c4991600401613f4e565b602060405180830381865afa158015612c66573d6000803e3d6000fd5b505050506040513d601f19601f82011682018060405250810190612c8a9190614072565b60408201819052612c9d5760fa60408201525b604081015115612ce45761271081604001518460600151612cbe9190614156565b612cc89190613fad565b60608201819052604084018051612ce0908390614175565b9052505b6040516301ffc9a760e01b815263152a902d60e11b60048201526001600160a01b038616906301ffc9a790602401602060405180830381865afa158015612d2f573d6000803e3d6000fd5b505050506040513d601f19601f82011682018060405250810190612d539190614055565b15612e0a5785516020870151606085015160405163152a902d60e11b81526004810192909252602482015260009081906001600160a01b03841690632a55205a906044016040805180830381865afa158015612db3573d6000803e3d6000fd5b505050506040513d601f19601f82011682018060405250810190612dd7919061418c565b602086018190526001600160a01b03821686526040880180519294509092508291612e03908390614175565b9052505050505b604080518082018252601f81527f4d494e545f4e46545f4f50455241544f525f54524541535552455f41444452006020820152905163bf40fac160e01b815230916000916001600160a01b0386169163bf40fac191612e6c9190600401613f4e565b602060405180830381865afa158015612e89573d6000803e3d6000fd5b505050506040513d601f19601f82011682018060405250810190612ead9190614038565b90506001600160a01b03811615612ec2578091505b845160608601516040516323b872dd60e01b81526001600160a01b038916926323b872dd92612ef692309190600401614132565b6020604051808303816000875af1158015612f15573d6000803e3d6000fd5b505050506040513d601f19601f82011682018060405250810190612f399190614055565b6040518060400160405280600381526020016219981b60e91b81525090612f735760405162461bcd60e51b815260040161075f9190613f4e565b506020850151604080870151905163a9059cbb60e01b81526001600160a01b0389169263a9059cbb92612fbc926004016001600160a01b03929092168252602082015260400190565b6020604051808303816000875af1158015612fdb573d6000803e3d6000fd5b505050506040513d601f19601f82011682018060405250810190612fff9190614055565b6040518060400160405280600381526020016219981b60e91b815250906130395760405162461bcd60e51b815260040161075f9190613f4e565b506001600160a01b038216301461310057606083015160405163a9059cbb60e01b81526001600160a01b03848116600483015260248201929092529087169063a9059cbb906044016020604051808303816000875af11580156130a0573d6000803e3d6000fd5b505050506040513d601f19601f820116820180604052508101906130c49190614055565b6040518060400160405280600381526020016219981b60e91b815250906130fe5760405162461bcd60e51b815260040161075f9190613f4e565b505b82516001600160a01b03161580159061311d575060008360200151115b15613201578251602084015160405163a9059cbb60e01b81526001600160a01b0389169263a9059cbb92613167926004016001600160a01b03929092168252602082015260400190565b6020604051808303816000875af1158015613186573d6000803e3d6000fd5b505050506040513d601f19601f820116820180604052508101906131aa9190614055565b6040518060400160405280600381526020016219981b60e91b815250906131e45760405162461bcd60e51b815260040161075f9190613f4e565b50613201836000015189602001518a606001518660200151613715565b6020808601518651918a0151604051632142170760e11b81526001600160a01b038b16936342842e0e93613239939092600401614132565b600060405180830381600087803b15801561325357600080fd5b505af1158015613267573d6000803e3d6000fd5b50505060008a81526038602052604090819020875191518c93507fe0787f0a475d5edb93acefb462596edcf3ab4d4949407b732fec63d7e5afc60c926132ad929161420f565b60405180910390a2505050505050505050565b600081815260386020908152604091829020600201548251808401909352600383526203130360ec1b918301919091526001600160a01b031633146133185760405162461bcd60e51b815260040161075f9190613f4e565b5060008181526038602052604090206005015460ff161561333857600080fd5b6000818152603860205260409081902060058101805460ff19166001179055905182917fd1e7e193455ba4241e816f1b6fa787b59dad27c1279c69179f6cb4b4387bf543916127ad9190614236565b805160208201516040516331a9108f60e11b815260048101919091526000919033906001600160a01b03831690636352211e90602401602060405180830381865afa1580156133da573d6000803e3d6000fd5b505050506040513d601f19601f820116820180604052508101906133fe9190614038565b6001600160a01b0316146040518060400160405280600381526020016203330360ec1b815250906134425760405162461bcd60e51b815260040161075f9190613f4e565b5060008360800151116040518060400160405280600381526020016206660760eb1b815250906134855760405162461bcd60e51b815260040161075f9190613f4e565b5060405163e985e9c560e01b81523360048201523060248201526001600160a01b0382169063e985e9c590604401602060405180830381865afa1580156134d0573d6000803e3d6000fd5b505050506040513d601f19601f820116820180604052508101906134f49190614055565b60408051808201909152600381526233303160e81b60208201529015156001146135315760405162461bcd60e51b815260040161075f9190613f4e565b506033805490600061354283613fcf565b91905055506000613554603354613678565b8451602086015161356490613678565b6040516020016135769392919061408b565b60408051808303601f190181528282528051602091820120600081815260368352928320885181546001600160a01b03199081166001600160a01b03928316178355938a015160018084019190915560028301805460608d01516003860180548916919095161790935560808c0151600485015560a08c015160058501805460ff191691151591909117905560c08c01516006909401939093559316331790556037805492830181559092527f42a7b7dd785cd69714a189dffb3fd7d7174edc9ece837694ce50f7078f7c31ae01819055915081907f36baa67ff8b95fa14aac46cea75517dc7f57ebebc1b90d48388c8c085f5cbfe3906116d59087906140d7565b606060006136858361397d565b600101905060008167ffffffffffffffff8111156136a5576136a5613af0565b6040519080825280601f01601f1916602001820160405280156136cf576020820181803683370190505b5090508181016020015b600019016f181899199a1a9b1b9c1cb0b131b232b360811b600a86061a8153600a85049450846137085761370d565b6136d9565b509392505050565b6001600160a01b03841615613806576040516301ffc9a760e01b815263676eda1760e01b600482015284906001600160a01b038216906301ffc9a790602401602060405180830381865afa158015613771573d6000803e3d6000fd5b505050506040513d601f19601f820116820180604052508101906137959190614055565b156138045760405163676eda1760e01b8152600481018590526001600160a01b0384811660248301526044820184905282169063676eda1790606401600060405180830381600087803b1580156137eb57600080fd5b505af11580156137ff573d6000803e3d6000fd5b505050505b505b50505050565b6001600160a01b038516156138045760405163186f2bdd60e21b81526001600160a01b038581166004830152602482018590528381166044830152606482018390528691908216906361bcaf7490608401600060405180830381600087803b15801561387757600080fd5b505af1925050508015613888575060015b6138ea57604080516001600160a01b0388811682528781166020830152818301879052851660608201526080810184905290517f2b24ae3182dffe91b3b5d3bd7e893fdf479327b5a0f15f2ce99b2d6e798680e69181900360a00190a1613944565b604080516001600160a01b0388811682528781166020830152818301879052851660608201526080810184905290517fd6a08b4403c29a9320fb167fd747bf8bf1fa0ebc0ec4d46a726f3ddbb4ab42379181900360a00190a15b505050505050565b600054610100900460ff166139735760405162461bcd60e51b815260040161075f90614244565b61397b613a56565b565b60008072184f03e93ff9f4daa797ed6e38ed64bf6a1f0160401b83106139bc5772184f03e93ff9f4daa797ed6e38ed64bf6a1f0160401b830492506040015b6d04ee2d6d415b85acef810000000083106139e8576d04ee2d6d415b85acef8100000000830492506020015b662386f26fc100008310613a0657662386f26fc10000830492506010015b6305f5e1008310613a1e576305f5e100830492506008015b6127108310613a3257612710830492506004015b60648310613a44576064830492506002015b600a8310613a50576001015b92915050565b600054610100900460ff166125ab5760405162461bcd60e51b815260040161075f90614244565b6001600160a01b03811681146109e957600080fd5b8035613a9d81613a7d565b919050565b600080600060608486031215613ab757600080fd5b8335613ac281613a7d565b95602085013595506040909401359392505050565b600060208284031215613ae957600080fd5b5035919050565b634e487b7160e01b600052604160045260246000fd5b60405160e0810167ffffffffffffffff81118282101715613b2957613b29613af0565b60405290565b604051601f8201601f1916810167ffffffffffffffff81118282101715613b5857613b58613af0565b604052919050565b600067ffffffffffffffff821115613b7a57613b7a613af0565b5060051b60200190565b600082601f830112613b9557600080fd5b81356020613baa613ba583613b60565b613b2f565b82815260059290921b84018101918181019086841115613bc957600080fd5b8286015b84811015613be45780358352918301918301613bcd565b509695505050505050565b80151581146109e957600080fd5b8035613a9d81613bef565b600060208284031215613c1a57600080fd5b813567ffffffffffffffff80821115613c3257600080fd5b9083019060e08286031215613c4657600080fd5b613c4e613b06565b613c5783613a92565b8152602083013582811115613c6b57600080fd5b613c7787828601613b84565b602083015250613c8960408401613a92565b6040820152613c9a60608401613a92565b606082015260808301356080820152613cb560a08401613bfd565b60a082015260c083013560c082015280935050505092915050565b6020808252825182820181905260009190848201906040850190845b81811015613d0857835183529284019291840191600101613cec565b50909695505050505050565b60008060408385031215613d2757600080fd5b50508035926020909101359150565b60008060408385031215613d4957600080fd5b8235613d5481613a7d565b91506020830135613d6481613a7d565b809150509250929050565b600060208284031215613d8157600080fd5b8135613d8c81613a7d565b9392505050565b60006020808385031215613da657600080fd5b823567ffffffffffffffff811115613dbd57600080fd5b8301601f81018513613dce57600080fd5b8035613ddc613ba582613b60565b81815260059190911b82018301908381019087831115613dfb57600080fd5b928401925b82841015613e1957833582529284019290840190613e00565b979650505050505050565b60008060408385031215613e3757600080fd5b8235613e4281613a7d565b91506020830135613d6481613bef565b60008060408385031215613e6557600080fd5b8235613e7081613a7d565b946020939093013593505050565b600060e08284031215613e9057600080fd5b613e98613b06565b90508135613ea581613a7d565b8152602082810135908201526040820135613ebf81613a7d565b60408201526060820135613ed281613a7d565b60608201526080828101359082015260a0820135613eef81613bef565b8060a08301525060c082013560c082015292915050565b600060e08284031215613f1857600080fd5b613d8c8383613e7e565b60005b83811015613f3d578181015183820152602001613f25565b838111156138065750506000910152565b6020815260008251806020840152613f6d816040850160208701613f22565b601f01601f19169190910160400192915050565b634e487b7160e01b600052603260045260246000fd5b634e487b7160e01b600052601160045260246000fd5b600082613fca57634e487b7160e01b600052601260045260246000fd5b500490565b6000600019821415613fe357613fe3613f97565b5060010190565b6020808252602e908201527f496e697469616c697a61626c653a20636f6e747261637420697320616c72656160408201526d191e481a5b9a5d1a585b1a5e995960921b606082015260800190565b60006020828403121561404a57600080fd5b8151613d8c81613a7d565b60006020828403121561406757600080fd5b8151613d8c81613bef565b60006020828403121561408457600080fd5b5051919050565b6000845161409d818460208901613f22565b606085901b6bffffffffffffffffffffffff191690830190815283516140ca816014840160208801613f22565b0160140195945050505050565b81516001600160a01b03908116825260208084015190830152604080840151821690830152606080840151909116908201526080808301519082015260a08083015115159082015260c0808301519082015260e08101613a50565b6001600160a01b039384168152919092166020820152604081019190915260600190565b600081600019048311821515161561417057614170613f97565b500290565b60008282101561418757614187613f97565b500390565b6000806040838503121561419f57600080fd5b82516141aa81613a7d565b6020939093015192949293505050565b80546001600160a01b03908116835260018201546020840152600282015481166040840152600382015416606083015260048101546080830152600581015460ff16151560a08301526006015460c090910152565b610100810161421e82856141ba565b6001600160a01b039290921660e09190910152919050565b60e08101613a5082846141ba565b6020808252602b908201527f496e697469616c697a61626c653a20636f6e7472616374206973206e6f74206960408201526a6e697469616c697a696e6760a81b60608201526080019056fea2646970667358221220ed3c7643552f8a88ed9026d2cd332b1322e310399f4a49c84a9875ec9ee3598364736f6c634300080c0033",
  "linkReferences": {},
  "deployedLinkReferences": {}
}