{
  "_format": "hh-sol-artifact-1",
  "contractName": "AdvanceMarketplaceService",
  "sourceName": "contracts/services/AdvanceMarketplaceService.sol",
  "abi": [
    {
      "anonymous": false,
      "inputs": [
        {
          "indexed": false,
          "internalType": "uint8",
          "name": "version",
          "type": "uint8"
        }
      ],
      "name": "Initialized",
      "type": "event"
    },
    {
      "inputs": [],
      "name": "_admin",
      "outputs": [
        {
          "internalType": "address",
          "name": "",
          "type": "address"
        }
      ],
      "stateMutability": "view",
      "type": "function"
    },
    {
      "inputs": [
        {
          "internalType": "address",
          "name": "",
          "type": "address"
        }
      ],
      "name": "_allowableERC20MakeListToken",
      "outputs": [
        {
          "internalType": "bool",
          "name": "",
          "type": "bool"
        }
      ],
      "stateMutability": "view",
      "type": "function"
    },
    {
      "inputs": [
        {
          "internalType": "address",
          "name": "",
          "type": "address"
        }
      ],
      "name": "_allowableERC20MakeOffer",
      "outputs": [
        {
          "internalType": "bool",
          "name": "",
          "type": "bool"
        }
      ],
      "stateMutability": "view",
      "type": "function"
    },
    {
      "inputs": [
        {
          "internalType": "uint256",
          "name": "",
          "type": "uint256"
        }
      ],
      "name": "_arrayListingId",
      "outputs": [
        {
          "internalType": "bytes32",
          "name": "",
          "type": "bytes32"
        }
      ],
      "stateMutability": "view",
      "type": "function"
    },
    {
      "inputs": [
        {
          "internalType": "uint256",
          "name": "",
          "type": "uint256"
        }
      ],
      "name": "_arrayMakeOfferId",
      "outputs": [
        {
          "internalType": "bytes32",
          "name": "",
          "type": "bytes32"
        }
      ],
      "stateMutability": "view",
      "type": "function"
    },
    {
      "inputs": [
        {
          "internalType": "address",
          "name": "",
          "type": "address"
        },
        {
          "internalType": "uint256",
          "name": "",
          "type": "uint256"
        },
        {
          "internalType": "uint256",
          "name": "",
          "type": "uint256"
        }
      ],
      "name": "_listingTokenDataMapping",
      "outputs": [
        {
          "internalType": "address",
          "name": "_collectionContract",
          "type": "address"
        },
        {
          "internalType": "uint256",
          "name": "_tokenId",
          "type": "uint256"
        },
        {
          "internalType": "address",
          "name": "_seller",
          "type": "address"
        },
        {
          "internalType": "address",
          "name": "_erc20Token",
          "type": "address"
        },
        {
          "internalType": "uint256",
          "name": "_price",
          "type": "uint256"
        },
        {
          "internalType": "bool",
          "name": "_closed",
          "type": "bool"
        },
        {
          "internalType": "uint256",
          "name": "_durationTime",
          "type": "uint256"
        }
      ],
      "stateMutability": "view",
      "type": "function"
    },
    {
      "inputs": [
        {
          "internalType": "address",
          "name": "",
          "type": "address"
        },
        {
          "internalType": "uint256",
          "name": "",
          "type": "uint256"
        }
      ],
      "name": "_listingTokenIds",
      "outputs": [
        {
          "internalType": "uint256",
          "name": "",
          "type": "uint256"
        }
      ],
      "stateMutability": "view",
      "type": "function"
    },
    {
      "inputs": [
        {
          "internalType": "bytes32",
          "name": "",
          "type": "bytes32"
        }
      ],
      "name": "_listingTokens",
      "outputs": [
        {
          "internalType": "address",
          "name": "_collectionContract",
          "type": "address"
        },
        {
          "internalType": "uint256",
          "name": "_tokenId",
          "type": "uint256"
        },
        {
          "internalType": "address",
          "name": "_seller",
          "type": "address"
        },
        {
          "internalType": "address",
          "name": "_erc20Token",
          "type": "address"
        },
        {
          "internalType": "uint256",
          "name": "_price",
          "type": "uint256"
        },
        {
          "internalType": "bool",
          "name": "_closed",
          "type": "bool"
        },
        {
          "internalType": "uint256",
          "name": "_durationTime",
          "type": "uint256"
        }
      ],
      "stateMutability": "view",
      "type": "function"
    },
    {
      "inputs": [
        {
          "internalType": "address",
          "name": "",
          "type": "address"
        },
        {
          "internalType": "uint256",
          "name": "",
          "type": "uint256"
        },
        {
          "internalType": "uint256",
          "name": "",
          "type": "uint256"
        }
      ],
      "name": "_makeOfferDataMapping",
      "outputs": [
        {
          "internalType": "address",
          "name": "_collectionContract",
          "type": "address"
        },
        {
          "internalType": "uint256",
          "name": "_tokenId",
          "type": "uint256"
        },
        {
          "internalType": "address",
          "name": "_buyer",
          "type": "address"
        },
        {
          "internalType": "address",
          "name": "_erc20Token",
          "type": "address"
        },
        {
          "internalType": "uint256",
          "name": "_price",
          "type": "uint256"
        },
        {
          "internalType": "bool",
          "name": "_closed",
          "type": "bool"
        },
        {
          "internalType": "uint256",
          "name": "_durationTime",
          "type": "uint256"
        }
      ],
      "stateMutability": "view",
      "type": "function"
    },
    {
      "inputs": [
        {
          "internalType": "address",
          "name": "",
          "type": "address"
        },
        {
          "internalType": "uint256",
          "name": "",
          "type": "uint256"
        }
      ],
      "name": "_makeOfferTokenIds",
      "outputs": [
        {
          "internalType": "uint256",
          "name": "",
          "type": "uint256"
        }
      ],
      "stateMutability": "view",
      "type": "function"
    },
    {
      "inputs": [
        {
          "internalType": "bytes32",
          "name": "",
          "type": "bytes32"
        }
      ],
      "name": "_makeOfferTokens",
      "outputs": [
        {
          "internalType": "address",
          "name": "_collectionContract",
          "type": "address"
        },
        {
          "internalType": "uint256",
          "name": "_tokenId",
          "type": "uint256"
        },
        {
          "internalType": "address",
          "name": "_buyer",
          "type": "address"
        },
        {
          "internalType": "address",
          "name": "_erc20Token",
          "type": "address"
        },
        {
          "internalType": "uint256",
          "name": "_price",
          "type": "uint256"
        },
        {
          "internalType": "bool",
          "name": "_closed",
          "type": "bool"
        },
        {
          "internalType": "uint256",
          "name": "_durationTime",
          "type": "uint256"
        }
      ],
      "stateMutability": "view",
      "type": "function"
    },
    {
      "inputs": [],
      "name": "_parameterAddr",
      "outputs": [
        {
          "internalType": "address",
          "name": "",
          "type": "address"
        }
      ],
      "stateMutability": "view",
      "type": "function"
    },
    {
      "inputs": [
        {
          "internalType": "bytes32",
          "name": "offerId",
          "type": "bytes32"
        }
      ],
      "name": "acceptMakeOffer",
      "outputs": [],
      "stateMutability": "nonpayable",
      "type": "function"
    },
    {
      "inputs": [
        {
          "internalType": "bytes32",
          "name": "_offeringId",
          "type": "bytes32"
        }
      ],
      "name": "cancelListing",
      "outputs": [],
      "stateMutability": "nonpayable",
      "type": "function"
    },
    {
      "inputs": [
        {
          "internalType": "bytes32",
          "name": "offerId",
          "type": "bytes32"
        }
      ],
      "name": "cancelMakeOffer",
      "outputs": [],
      "stateMutability": "nonpayable",
      "type": "function"
    },
    {
      "inputs": [
        {
          "internalType": "address",
          "name": "newAdm",
          "type": "address"
        }
      ],
      "name": "changeAdmin",
      "outputs": [],
      "stateMutability": "nonpayable",
      "type": "function"
    },
    {
      "inputs": [
        {
          "internalType": "address",
          "name": "newAddr",
          "type": "address"
        }
      ],
      "name": "changeParamAddr",
      "outputs": [],
      "stateMutability": "nonpayable",
      "type": "function"
    },
    {
      "inputs": [
        {
          "internalType": "address",
          "name": "admin",
          "type": "address"
        },
        {
          "internalType": "address",
          "name": "parameterControl",
          "type": "address"
        }
      ],
      "name": "initialize",
      "outputs": [],
      "stateMutability": "nonpayable",
      "type": "function"
    },
    {
      "inputs": [
        {
          "components": [
            {
              "internalType": "address",
              "name": "_collectionContract",
              "type": "address"
            },
            {
              "internalType": "uint256",
              "name": "_tokenId",
              "type": "uint256"
            },
            {
              "internalType": "address",
              "name": "_seller",
              "type": "address"
            },
            {
              "internalType": "address",
              "name": "_erc20Token",
              "type": "address"
            },
            {
              "internalType": "uint256",
              "name": "_price",
              "type": "uint256"
            },
            {
              "internalType": "bool",
              "name": "_closed",
              "type": "bool"
            },
            {
              "internalType": "uint256",
              "name": "_durationTime",
              "type": "uint256"
            }
          ],
          "internalType": "struct Marketplace.ListingTokenData",
          "name": "listingData",
          "type": "tuple"
        }
      ],
      "name": "listToken",
      "outputs": [
        {
          "internalType": "bytes32",
          "name": "",
          "type": "bytes32"
        }
      ],
      "stateMutability": "nonpayable",
      "type": "function"
    },
    {
      "inputs": [
        {
          "components": [
            {
              "internalType": "address",
              "name": "_collectionContract",
              "type": "address"
            },
            {
              "internalType": "uint256",
              "name": "_tokenId",
              "type": "uint256"
            },
            {
              "internalType": "address",
              "name": "_buyer",
              "type": "address"
            },
            {
              "internalType": "address",
              "name": "_erc20Token",
              "type": "address"
            },
            {
              "internalType": "uint256",
              "name": "_price",
              "type": "uint256"
            },
            {
              "internalType": "bool",
              "name": "_closed",
              "type": "bool"
            },
            {
              "internalType": "uint256",
              "name": "_durationTime",
              "type": "uint256"
            }
          ],
          "internalType": "struct Marketplace.MakeOfferData",
          "name": "makeOfferData",
          "type": "tuple"
        }
      ],
      "name": "makeOffer",
      "outputs": [
        {
          "internalType": "bytes32",
          "name": "",
          "type": "bytes32"
        }
      ],
      "stateMutability": "nonpayable",
      "type": "function"
    },
    {
      "inputs": [
        {
          "internalType": "bytes32",
          "name": "offeringId",
          "type": "bytes32"
        }
      ],
      "name": "purchaseToken",
      "outputs": [],
      "stateMutability": "payable",
      "type": "function"
    },
    {
      "inputs": [
        {
          "internalType": "address",
          "name": "erc20",
          "type": "address"
        },
        {
          "internalType": "bool",
          "name": "allow",
          "type": "bool"
        }
      ],
      "name": "setApproveERC20ListToken",
      "outputs": [],
      "stateMutability": "nonpayable",
      "type": "function"
    },
    {
      "inputs": [
        {
          "internalType": "address",
          "name": "erc20",
          "type": "address"
        },
        {
          "internalType": "bool",
          "name": "allow",
          "type": "bool"
        }
      ],
      "name": "setApproveERC20MakeOffer",
      "outputs": [],
      "stateMutability": "nonpayable",
      "type": "function"
    },
    {
      "inputs": [
        {
          "internalType": "bytes32[]",
          "name": "offers",
          "type": "bytes32[]"
        }
      ],
      "name": "sweep",
      "outputs": [],
      "stateMutability": "payable",
      "type": "function"
    },
    {
      "inputs": [
        {
          "internalType": "address",
          "name": "receiver",
          "type": "address"
        },
        {
          "internalType": "address",
          "name": "erc20Addr",
          "type": "address"
        },
        {
          "internalType": "uint256",
          "name": "amount",
          "type": "uint256"
        }
      ],
      "name": "withdraw",
      "outputs": [],
      "stateMutability": "nonpayable",
      "type": "function"
    }
  ],
  "bytecode": "0x608060405234801561001057600080fd5b50613731806100206000396000f3fe6080604052600436106101665760003560e01c8063a25d6dce116100d1578063d9e87e611161008a578063ed4ec20111610064578063ed4ec2011461052b578063f1f2df0e1461054b578063f40cb02d1461056b578063febfd6c31461058b57600080fd5b8063d9e87e61146104cb578063e5026b8b146104eb578063eab651d81461050b57600080fd5b8063a25d6dce146103b1578063a3a1937c146103d1578063bd7ec0c21461043b578063d299a0861461046b578063d2abb69c1461048b578063d9caed12146104ab57600080fd5b80635b06e64a116101235780635b06e64a146102de5780636852168a1461031e57806372c035cf146103315780638f283970146103515780639142e6a8146103715780639299e5521461039157600080fd5b806301bc45c91461016b57806314646f6d146101a85780631fd4d2ed146102115780633ac1089a1461023f5780633dd72c4014610254578063485cc955146102be575b600080fd5b34801561017757600080fd5b5060345461018b906001600160a01b031681565b6040516001600160a01b0390911681526020015b60405180910390f35b3480156101b457600080fd5b506101c86101c3366004613071565b6105ab565b604080516001600160a01b039889168152602081019790975294871694860194909452949091166060840152608083015291151560a082015260c081019190915260e00161019f565b34801561021d57600080fd5b5061023161022c3660046130a6565b610624565b60405190815260200161019f565b61025261024d3660046130a6565b610645565b005b34801561026057600080fd5b506101c861026f3660046130a6565b60386020526000908152604090208054600182015460028301546003840154600485015460058601546006909601546001600160a01b03958616969495938416949290931692909160ff169087565b3480156102ca57600080fd5b506102526102d93660046130bf565b610662565b3480156102ea57600080fd5b5061030e6102f93660046130f8565b603f6020526000908152604090205460ff1681565b604051901515815260200161019f565b61025261032c366004613163565b610739565b34801561033d57600080fd5b5060355461018b906001600160a01b031681565b34801561035d57600080fd5b5061025261036c3660046130f8565b61089e565b34801561037d57600080fd5b5061025261038c366004613217565b610930565b34801561039d57600080fd5b506102526103ac3660046130a6565b6109a2565b3480156103bd57600080fd5b506102316103cc366004613245565b6109ab565b3480156103dd57600080fd5b506101c86103ec3660046130a6565b60366020526000908152604090208054600182015460028301546003840154600485015460058601546006909601546001600160a01b03958616969495938416949290931692909160ff169087565b34801561044757600080fd5b5061030e6104563660046130f8565b603e6020526000908152604090205460ff1681565b34801561047757600080fd5b506101c8610486366004613071565b6109dc565b34801561049757600080fd5b506102316104a6366004613317565b610a04565b3480156104b757600080fd5b506102526104c6366004613333565b610b53565b3480156104d757600080fd5b506102526104e63660046130a6565b610cad565b3480156104f757600080fd5b50610252610506366004613217565b610cbe565b34801561051757600080fd5b50610231610526366004613245565b610d30565b34801561053757600080fd5b506102316105463660046130a6565b610d4c565b34801561055757600080fd5b506102526105663660046130a6565b610d5c565b34801561057757600080fd5b50610231610586366004613317565b610d65565b34801561059757600080fd5b506102526105a63660046130f8565b610eb4565b603c60205282600052604060002060205281600052604060002081815481106105d357600080fd5b600091825260209091206007909102018054600182015460028301546003840154600485015460058601546006909601546001600160a01b03958616995093975091841695509092169260ff169087565b6039818154811061063457600080fd5b600091825260209091200154905081565b61064d610f46565b61065681610fa0565b61065f60018055565b50565b600054610100900460ff16158080156106825750600054600160ff909116105b8061069c5750303b15801561069c575060005460ff166001145b6106c15760405162461bcd60e51b81526004016106b890613374565b60405180910390fd5b6000805460ff1916600117905580156106e4576000805461ff0019166101001790555b6106ee8383611b41565b8015610734576000805461ff0019169055604051600181527f7f26b83ff96e1f2b6a682f133852f6798a09c465da95921460cefb38474024989060200160405180910390a15b505050565b610741610f46565b60648151111561075057600080fd5b6000815167ffffffffffffffff81111561076c5761076c61311c565b604051908082528060200260200182016040528015610795578160200160208202803683370190505b50905060005b825181101561085c57620493e05a10156107b45761085c565b603660008483815181106107ca576107ca6133c2565b60209081029190910181015182528101919091526040016000206005015460ff1661084a57610811838281518110610804576108046133c2565b6020026020010151610fa0565b828181518110610823576108236133c2565b602002602001015182828151811061083d5761083d6133c2565b6020026020010181815250505b80610854816133ee565b91505061079b565b507f158dd3c50fd0d637d65e59a4fe2a179d6ec485730ab6a010b2329e8f0484c8b88160405161088c9190613409565b60405180910390a15061065f60018055565b6034546001600160a01b0316331480156108c057506001600160a01b03811615155b6040518060400160405280600381526020016231303160e81b815250906108fa5760405162461bcd60e51b81526004016106b8919061347d565b506034546001600160a01b0382811691161461065f57603480546001600160a01b0383166001600160a01b031990911617905550565b60345460408051808201909152600381526231303160e81b6020820152906001600160a01b031633146109765760405162461bcd60e51b81526004016106b8919061347d565b506001600160a01b03919091166000908152603e60205260409020805460ff1916911515919091179055565b61065f81611c76565b603d60205281600052604060002081815481106109c757600080fd5b90600052602060002001600091509150505481565b603a60205282600052604060002060205281600052604060002081815481106105d357600080fd5b60608101516001600160a01b03166000908152603e60209081526040808320548151808301909252600382526233303760e81b928201929092529060ff16610a5f5760405162461bcd60e51b81526004016106b8919061347d565b506000610a6b83611d48565b600081815260386020908152604080832080546001600160a01b039081168552603c845282852060018084018054885291865284872080548083018255908852868820855460079092020180549185166001600160a01b031992831617815583548184015560028087015490820180549187169184169190911790556003808701549082018054918716919093161790915560048086015490820155600580860154908201805460ff191660ff909216151591909117905560068086015491015592549091168552603d84529184209154825491820183559184529190922001559392505050565b610b5b610f46565b60345460408051808201909152600381526231303160e81b6020820152906001600160a01b03163314610ba15760405162461bcd60e51b81526004016106b8919061347d565b5060006001600160a01b038316610c225781471015610bbf57600080fd5b6040516001600160a01b038516908390600081818185875af1925050503d8060008114610c08576040519150601f19603f3d011682016040523d82523d6000602084013e610c0d565b606091505b50508091505080610c1d57600080fd5b610ca3565b60405163a9059cbb60e01b81526001600160a01b0385811660048301526024820184905284919082169063a9059cbb906044016020604051808303816000875af1158015610c74573d6000803e3d6000fd5b505050506040513d601f19601f82011682018060405250810190610c9891906134b0565b610ca157600080fd5b505b5061073460018055565b610cb5610f46565b61065681612033565b60345460408051808201909152600381526231303160e81b6020820152906001600160a01b03163314610d045760405162461bcd60e51b81526004016106b8919061347d565b506001600160a01b03919091166000908152603f60205260409020805460ff1916911515919091179055565b603b60205281600052604060002081815481106109c757600080fd5b6037818154811061063457600080fd5b61065f816129ac565b60608101516001600160a01b03166000908152603f60209081526040808320548151808301909252600382526233303760e81b928201929092529060ff16610dc05760405162461bcd60e51b81526004016106b8919061347d565b506000610dcc83612a73565b600081815260366020908152604080832080546001600160a01b039081168552603a845282852060018084018054885291865284872080548083018255908852868820855460079092020180549185166001600160a01b031992831617815583548184015560028087015490820180549187169184169190911790556003808701549082018054918716919093161790915560048086015490820155600580860154908201805460ff191660ff909216151591909117905560068086015491015592549091168552603b84529184209154825491820183559184529190922001559392505050565b6034546001600160a01b031633148015610ed657506001600160a01b03811615155b6040518060400160405280600381526020016231303160e81b81525090610f105760405162461bcd60e51b81526004016106b8919061347d565b506035546001600160a01b0382811691161461065f57603580546001600160a01b0383166001600160a01b031990911617905550565b60026001541415610f995760405162461bcd60e51b815260206004820152601f60248201527f5265656e7472616e637947756172643a207265656e7472616e742063616c6c0060448201526064016106b8565b6002600155565b600081815260366020908152604091829020825160e08101845281546001600160a01b03908116825260018301549382019390935260028201548316938101939093526003810154909116606083015260048101546080830152600581015460ff1615801560a0840181905260069092015460c08401529061102557508060c0015142105b6040518060400160405280600381526020016219981960e91b8152509061105f5760405162461bcd60e51b81526004016106b8919061347d565b506000828152603660209081526040808320600501805460ff191660011790558351606080860151835160e08101855286815294850186905292840185905283018490526080830184905260a0830184905260c08301939093526001600160a01b03161515906000821561122457846060015190506040518060e00160405280336001600160a01b0316815260200186604001516001600160a01b031681526020018660800151815260200186608001518152602001826001600160a01b03166370a08231336040518263ffffffff1660e01b815260040161115091906001600160a01b0391909116815260200190565b602060405180830381865afa15801561116d573d6000803e3d6000fd5b505050506040513d601f19601f8201168201806040525081019061119191906134cd565b8152604051636eb1769f60e11b81523360048201523060248201526020909101906001600160a01b0384169063dd62ed3e90604401602060405180830381865afa1580156111e3573d6000803e3d6000fd5b505050506040513d601f19601f8201168201806040525081019061120791906134cd565b815260200186606001516001600160a01b03168152509150611284565b6040518060e00160405280336001600160a01b0316815260200186604001516001600160a01b031681526020018660800151815260200186608001518152602001600081526020016000815260200160006001600160a01b031681525091505b84604001516001600160a01b0316846001600160a01b0316636352211e87602001516040518263ffffffff1660e01b81526004016112c491815260200190565b602060405180830381865afa1580156112e1573d6000803e3d6000fd5b505050506040513d601f19601f8201168201806040525081019061130591906134e6565b6001600160a01b0316146040518060400160405280600381526020016203330360ec1b815250906113495760405162461bcd60e51b81526004016106b8919061347d565b5082156113db5760408083015160a08401518251808401909352600383526233303560e81b602084015210156113925760405162461bcd60e51b81526004016106b8919061347d565b506040808301516080840151825180840190935260038352620ccc0d60ea1b602084015210156113d55760405162461bcd60e51b81526004016106b8919061347d565b5061141b565b6040808301518151808301909252600382526233303360e81b60208301523410156114195760405162461bcd60e51b81526004016106b8919061347d565b505b602080830151835191870151604051632142170760e11b81526001600160a01b038816936342842e0e93611453939092600401613503565b600060405180830381600087803b15801561146d57600080fd5b505af1158015611481573d6000803e3d6000fd5b50506035546040805160808101825260008082526020808301829052828401829052606083019190915282518084018452601b81527f4d41524b4554504c4143455f42454e454649545f50455243454e540000000000918101919091529151636d12dce160e01b81526001600160a01b03909316945092508391636d12dce19161150d9160040161347d565b602060405180830381865afa15801561152a573d6000803e3d6000fd5b505050506040513d601f19601f8201168201806040525081019061154e91906134cd565b604082018190526115615760fa60408201525b6040810151156115a857612710816040015185606001516115829190613527565b61158c9190613546565b606082018190526040850180516115a4908390613568565b9052505b6040516301ffc9a760e01b815263152a902d60e11b60048201526001600160a01b038716906301ffc9a790602401602060405180830381865afa1580156115f3573d6000803e3d6000fd5b505050506040513d601f19601f8201168201806040525081019061161791906134b0565b156116ce5786516020880151606086015160405163152a902d60e11b81526004810192909252602482015260009081906001600160a01b03841690632a55205a906044016040805180830381865afa158015611677573d6000803e3d6000fd5b505050506040513d601f19601f8201168201806040525081019061169b919061357f565b602086018190526001600160a01b038216865260408901805192945090925082916116c7908390613568565b9052505050505b841561194457835160608501516040516323b872dd60e01b81526001600160a01b038616926323b872dd9261170892309190600401613503565b6020604051808303816000875af1158015611727573d6000803e3d6000fd5b505050506040513d601f19601f8201168201806040525081019061174b91906134b0565b6040518060400160405280600381526020016219981b60e91b815250906117855760405162461bcd60e51b81526004016106b8919061347d565b5060408088015185820151915163a9059cbb60e01b81526001600160a01b039182166004820152602481019290925284169063a9059cbb906044016020604051808303816000875af11580156117df573d6000803e3d6000fd5b505050506040513d601f19601f8201168201806040525081019061180391906134b0565b6040518060400160405280600381526020016219981b60e91b8152509061183d5760405162461bcd60e51b81526004016106b8919061347d565b5080516001600160a01b03161580159061185b575060008160200151115b1561193f578051602082015160405163a9059cbb60e01b81526001600160a01b0386169263a9059cbb926118a5926004016001600160a01b03929092168252602082015260400190565b6020604051808303816000875af11580156118c4573d6000803e3d6000fd5b505050506040513d601f19601f820116820180604052508101906118e891906134b0565b6040518060400160405280600381526020016219981b60e91b815250906119225760405162461bcd60e51b81526004016106b8919061347d565b5061193f8160000151886020015189606001518460200151612da7565b611ae7565b60408051808201909152600381526233303360e81b60208201524761197c5760405162461bcd60e51b81526004016106b8919061347d565b50600087604001516001600160a01b0316856040015160405160006040518083038185875af1925050503d80600081146119d2576040519150601f19603f3d011682016040523d82523d6000602084013e6119d7565b606091505b505060408051808201909152600381526219981b60e91b602082015290915081611a145760405162461bcd60e51b81526004016106b8919061347d565b5081516001600160a01b031615801590611a32575060008260200151115b15611ae557815160208301516040516001600160a01b0390921691600081818185875af1925050503d8060008114611a86576040519150601f19603f3d011682016040523d82523d6000602084013e611a8b565b606091505b505060408051808201909152600381526219981b60e91b602082015290915081611ac85760405162461bcd60e51b81526004016106b8919061347d565b50611ae5826000015189602001518a606001518560200151612da7565b505b877fe06095b27616fe3bacd030b307fd111d7774afa5176a7cfd0863f3e8e8904b71603660008b8152602001908152602001600020604051611b2991906135ad565b60405180910390a25050505050505050565b60018055565b600054610100900460ff1615808015611b615750600054600160ff909116105b80611b7b5750303b158015611b7b575060005460ff166001145b611b975760405162461bcd60e51b81526004016106b890613374565b6000805460ff191660011790558015611bba576000805461ff0019166101001790555b60408051808201909152600381526203130360ec1b60208201526001600160a01b038416611bfb5760405162461bcd60e51b81526004016106b8919061347d565b5060408051808201909152600381526203130360ec1b60208201526001600160a01b038316611c3d5760405162461bcd60e51b81526004016106b8919061347d565b50603480546001600160a01b038086166001600160a01b03199283161790925560358054928516929091169190911790556106ee612e8e565b600081815260366020908152604091829020600201548251808401909352600383526203330360ec1b918301919091526001600160a01b03163314611cce5760405162461bcd60e51b81526004016106b8919061347d565b5060008181526036602052604090206005015460ff1615611cee57600080fd5b6000818152603660205260409081902060058101805460ff19166001179055905182917f0f9936e2210c5cb61170d9da568110dc1426511cd2a1ffabe518cb3f12791c3291611d3d91906135ad565b60405180910390a250565b606081015160408051808201909152600381526203130360ec1b60208201526000916001600160a01b0316611d905760405162461bcd60e51b81526004016106b8919061347d565b50815160408051808201909152600381526203130360ec1b6020820152906001600160a01b0316611dd45760405162461bcd60e51b81526004016106b8919061347d565b5060008260800151116040518060400160405280600381526020016206660760eb1b81525090611e175760405162461bcd60e51b81526004016106b8919061347d565b5060008260c00151116040518060400160405280600381526020016233303960e81b81525090611e5a5760405162461bcd60e51b81526004016106b8919061347d565b5060608201516080830151604051636eb1769f60e11b81523360048201523060248201526001600160a01b0383169063dd62ed3e90604401602060405180830381865afa158015611eaf573d6000803e3d6000fd5b505050506040513d601f19601f82011682018060405250810190611ed391906134cd565b1015611ede57600080fd5b60338054906000611eee836133ee565b91905055506000611f00603354612ebf565b84516020860151611f1090612ebf565b604051602001611f2293929190613609565b60408051808303601f190181528282528051602091820120600081815260388352928320885181546001600160a01b03199081166001600160a01b03928316178355938a015160018084019190915560028301805460608d01516003860180548916919095161790935560808c0151600485015560a08c015160058501805460ff191691151591909117905560c08c01516006909401939093559316331790556039805492830181559092527fdc16fef70f8d5ddbc01ee3d903d1e69c18a3c7be080eb86a81e0578814ee58d301819055915081907f1101875263abf1b7c3fc9cf51275180975f69f768a3c09e1b453fa0cad6f29b190612024908790613655565b60405180910390a29392505050565b600081815260386020908152604091829020825160e08101845281546001600160a01b03908116825260018301549382019390935260028201548316938101939093526003810154909116606083015260048101546080830152600581015460ff1615801560a0840181905260069092015460c0840152906120b857508060c0015142105b6040518060400160405280600381526020016219981960e91b815250906120f25760405162461bcd60e51b81526004016106b8919061347d565b50600082815260386020908152604091829020600501805460ff1916600117905582519083015191516331a9108f60e11b8152909133916001600160a01b03841691636352211e9161214b919060040190815260200190565b602060405180830381865afa158015612168573d6000803e3d6000fd5b505050506040513d601f19601f8201168201806040525081019061218c91906134e6565b6001600160a01b0316146040518060400160405280600381526020016203330360ec1b815250906121d05760405162461bcd60e51b81526004016106b8919061347d565b5060405163e985e9c560e01b81523360048201523060248201526001600160a01b0382169063e985e9c590604401602060405180830381865afa15801561221b573d6000803e3d6000fd5b505050506040513d601f19601f8201168201806040525081019061223f91906134b0565b6040518060400160405280600381526020016233303160e81b815250906122795760405162461bcd60e51b81526004016106b8919061347d565b50606082015160808301516040808501519051636eb1769f60e11b81526001600160a01b0391821660048201523060248201529083169063dd62ed3e90604401602060405180830381865afa1580156122d6573d6000803e3d6000fd5b505050506040513d601f19601f820116820180604052508101906122fa91906134cd565b101561230557600080fd5b6040805160e08101825284820180516001600160a01b0390811683523360208401526080808801805185870152516060850152915193516370a0823160e01b8152938116600485015260009391830191908516906370a0823190602401602060405180830381865afa15801561237f573d6000803e3d6000fd5b505050506040513d601f19601f820116820180604052508101906123a391906134cd565b81526040808701519051636eb1769f60e11b81526001600160a01b0391821660048201523060248201526020909201919085169063dd62ed3e90604401602060405180830381865afa1580156123fd573d6000803e3d6000fd5b505050506040513d601f19601f8201168201806040525081019061242191906134cd565b81526060808701516001600160a01b039081166020938401526035546040805160808101825260008082528187018190528183018190529481019490945280518082018252601b81527f4d41524b4554504c4143455f42454e454649545f50455243454e5400000000009581019590955251636d12dce160e01b8152949550169290918391636d12dce1916124b89160040161347d565b602060405180830381865afa1580156124d5573d6000803e3d6000fd5b505050506040513d601f19601f820116820180604052508101906124f991906134cd565b6040820181905261250c5760fa60408201525b604081015115612553576127108160400151846060015161252d9190613527565b6125379190613546565b6060820181905260408401805161254f908390613568565b9052505b6040516301ffc9a760e01b815263152a902d60e11b60048201526001600160a01b038616906301ffc9a790602401602060405180830381865afa15801561259e573d6000803e3d6000fd5b505050506040513d601f19601f820116820180604052508101906125c291906134b0565b156126795785516020870151606085015160405163152a902d60e11b81526004810192909252602482015260009081906001600160a01b03841690632a55205a906044016040805180830381865afa158015612622573d6000803e3d6000fd5b505050506040513d601f19601f82011682018060405250810190612646919061357f565b602086018190526001600160a01b03821686526040880180519294509092508291612672908390613568565b9052505050505b825160608401516040516323b872dd60e01b81526001600160a01b038716926323b872dd926126ad92309190600401613503565b6020604051808303816000875af11580156126cc573d6000803e3d6000fd5b505050506040513d601f19601f820116820180604052508101906126f091906134b0565b6040518060400160405280600381526020016219981b60e91b8152509061272a5760405162461bcd60e51b81526004016106b8919061347d565b506020830151604080850151905163a9059cbb60e01b81526001600160a01b0387169263a9059cbb92612773926004016001600160a01b03929092168252602082015260400190565b6020604051808303816000875af1158015612792573d6000803e3d6000fd5b505050506040513d601f19601f820116820180604052508101906127b691906134b0565b6040518060400160405280600381526020016219981b60e91b815250906127f05760405162461bcd60e51b81526004016106b8919061347d565b5080516001600160a01b03161580159061280e575060008160200151115b156128f2578051602082015160405163a9059cbb60e01b81526001600160a01b0387169263a9059cbb92612858926004016001600160a01b03929092168252602082015260400190565b6020604051808303816000875af1158015612877573d6000803e3d6000fd5b505050506040513d601f19601f8201168201806040525081019061289b91906134b0565b6040518060400160405280600381526020016219981b60e91b815250906128d55760405162461bcd60e51b81526004016106b8919061347d565b506128f28160000151876020015188606001518460200151612da7565b602080840151845191880151604051632142170760e11b81526001600160a01b038916936342842e0e9361292a939092600401613503565b600060405180830381600087803b15801561294457600080fd5b505af1158015612958573d6000803e3d6000fd5b5050506000888152603860205260409081902090518992507f18f1ceedf8920f811ccf39358c2a2164a50e62c93ad4dafc82e6906cf81dc0a49161299b916135ad565b60405180910390a250505050505050565b600081815260386020908152604091829020600201548251808401909352600383526203130360ec1b918301919091526001600160a01b03163314612a045760405162461bcd60e51b81526004016106b8919061347d565b5060008181526038602052604090206005015460ff1615612a2457600080fd5b6000818152603860205260409081902060058101805460ff19166001179055905182917fd1e7e193455ba4241e816f1b6fa787b59dad27c1279c69179f6cb4b4387bf54391611d3d91906135ad565b805160208201516040516331a9108f60e11b815260048101919091526000919033906001600160a01b03831690636352211e90602401602060405180830381865afa158015612ac6573d6000803e3d6000fd5b505050506040513d601f19601f82011682018060405250810190612aea91906134e6565b6001600160a01b0316146040518060400160405280600381526020016203330360ec1b81525090612b2e5760405162461bcd60e51b81526004016106b8919061347d565b5060008360800151116040518060400160405280600381526020016206660760eb1b81525090612b715760405162461bcd60e51b81526004016106b8919061347d565b5060008360c00151116040518060400160405280600381526020016233303960e81b81525090612bb45760405162461bcd60e51b81526004016106b8919061347d565b5060405163e985e9c560e01b81523360048201523060248201526001600160a01b0382169063e985e9c590604401602060405180830381865afa158015612bff573d6000803e3d6000fd5b505050506040513d601f19601f82011682018060405250810190612c2391906134b0565b60408051808201909152600381526233303160e81b6020820152901515600114612c605760405162461bcd60e51b81526004016106b8919061347d565b5060338054906000612c71836133ee565b91905055506000612c83603354612ebf565b84516020860151612c9390612ebf565b604051602001612ca593929190613609565b60408051808303601f190181528282528051602091820120600081815260368352928320885181546001600160a01b03199081166001600160a01b03928316178355938a015160018084019190915560028301805460608d01516003860180548916919095161790935560808c0151600485015560a08c015160058501805460ff191691151591909117905560c08c01516006909401939093559316331790556037805492830181559092527f42a7b7dd785cd69714a189dffb3fd7d7174edc9ece837694ce50f7078f7c31ae01819055915081907f36baa67ff8b95fa14aac46cea75517dc7f57ebebc1b90d48388c8c085f5cbfe390612024908790613655565b6040516301ffc9a760e01b815263676eda1760e01b600482015284906001600160a01b038216906301ffc9a790602401602060405180830381865afa158015612df4573d6000803e3d6000fd5b505050506040513d601f19601f82011682018060405250810190612e1891906134b0565b15612e875760405163676eda1760e01b8152600481018590526001600160a01b0384811660248301526044820184905282169063676eda1790606401600060405180830381600087803b158015612e6e57600080fd5b505af1158015612e82573d6000803e3d6000fd5b505050505b5050505050565b600054610100900460ff16612eb55760405162461bcd60e51b81526004016106b8906136b0565b612ebd612f5c565b565b60606000612ecc83612f83565b600101905060008167ffffffffffffffff811115612eec57612eec61311c565b6040519080825280601f01601f191660200182016040528015612f16576020820181803683370190505b5090508181016020015b600019016f181899199a1a9b1b9c1cb0b131b232b360811b600a86061a8153600a8504945084612f4f57612f54565b612f20565b509392505050565b600054610100900460ff16611b3b5760405162461bcd60e51b81526004016106b8906136b0565b60008072184f03e93ff9f4daa797ed6e38ed64bf6a1f0160401b8310612fc25772184f03e93ff9f4daa797ed6e38ed64bf6a1f0160401b830492506040015b6d04ee2d6d415b85acef81000000008310612fee576d04ee2d6d415b85acef8100000000830492506020015b662386f26fc10000831061300c57662386f26fc10000830492506010015b6305f5e1008310613024576305f5e100830492506008015b612710831061303857612710830492506004015b6064831061304a576064830492506002015b600a8310613056576001015b92915050565b6001600160a01b038116811461065f57600080fd5b60008060006060848603121561308657600080fd5b83356130918161305c565b95602085013595506040909401359392505050565b6000602082840312156130b857600080fd5b5035919050565b600080604083850312156130d257600080fd5b82356130dd8161305c565b915060208301356130ed8161305c565b809150509250929050565b60006020828403121561310a57600080fd5b81356131158161305c565b9392505050565b634e487b7160e01b600052604160045260246000fd5b604051601f8201601f1916810167ffffffffffffffff8111828210171561315b5761315b61311c565b604052919050565b6000602080838503121561317657600080fd5b823567ffffffffffffffff8082111561318e57600080fd5b818501915085601f8301126131a257600080fd5b8135818111156131b4576131b461311c565b8060051b91506131c5848301613132565b81815291830184019184810190888411156131df57600080fd5b938501935b838510156131fd578435825293850193908501906131e4565b98975050505050505050565b801515811461065f57600080fd5b6000806040838503121561322a57600080fd5b82356132358161305c565b915060208301356130ed81613209565b6000806040838503121561325857600080fd5b82356132638161305c565b946020939093013593505050565b600060e0828403121561328357600080fd5b60405160e0810181811067ffffffffffffffff821117156132a6576132a661311c565b60405290508082356132b78161305c565b81526020838101359082015260408301356132d18161305c565b604082015260608301356132e48161305c565b60608201526080838101359082015260a083013561330181613209565b60a082015260c092830135920191909152919050565b600060e0828403121561332957600080fd5b6131158383613271565b60008060006060848603121561334857600080fd5b83356133538161305c565b925060208401356133638161305c565b929592945050506040919091013590565b6020808252602e908201527f496e697469616c697a61626c653a20636f6e747261637420697320616c72656160408201526d191e481a5b9a5d1a585b1a5e995960921b606082015260800190565b634e487b7160e01b600052603260045260246000fd5b634e487b7160e01b600052601160045260246000fd5b6000600019821415613402576134026133d8565b5060010190565b6020808252825182820181905260009190848201906040850190845b8181101561344157835183529284019291840191600101613425565b50909695505050505050565b60005b83811015613468578181015183820152602001613450565b83811115613477576000848401525b50505050565b602081526000825180602084015261349c81604085016020870161344d565b601f01601f19169190910160400192915050565b6000602082840312156134c257600080fd5b815161311581613209565b6000602082840312156134df57600080fd5b5051919050565b6000602082840312156134f857600080fd5b81516131158161305c565b6001600160a01b039384168152919092166020820152604081019190915260600190565b6000816000190483118215151615613541576135416133d8565b500290565b60008261356357634e487b7160e01b600052601260045260246000fd5b500490565b60008282101561357a5761357a6133d8565b500390565b6000806040838503121561359257600080fd5b825161359d8161305c565b6020939093015192949293505050565b81546001600160a01b03908116825260018301546020830152600283015481166040830152600383015416606082015260048201546080820152600582015460ff16151560a0820152600682015460c082015260e08101613056565b6000845161361b81846020890161344d565b606085901b6bffffffffffffffffffffffff1916908301908152835161364881601484016020880161344d565b0160140195945050505050565b81516001600160a01b03908116825260208084015190830152604080840151821690830152606080840151909116908201526080808301519082015260a08083015115159082015260c0808301519082015260e08101613056565b6020808252602b908201527f496e697469616c697a61626c653a20636f6e7472616374206973206e6f74206960408201526a6e697469616c697a696e6760a81b60608201526080019056fea26469706673582212205607db3c2a34a1ab82362079028dca0bd25d4b67d0cae6df0bfd08937dde360264736f6c634300080c0033",
  "linkReferences": {},
  "deployedLinkReferences": {}
}