{
  "_format": "hh-sol-artifact-1",
  "contractName": "AdvanceMarketplaceService",
  "sourceName": "contracts/services/AdvanceMarketplaceService.sol",
  "abi": [
    {
      "anonymous": false,
      "inputs": [
        {
          "indexed": false,
          "internalType": "uint8",
          "name": "version",
          "type": "uint8"
        }
      ],
      "name": "Initialized",
      "type": "event"
    },
    {
      "inputs": [],
      "name": "_admin",
      "outputs": [
        {
          "internalType": "address",
          "name": "",
          "type": "address"
        }
      ],
      "stateMutability": "view",
      "type": "function"
    },
    {
      "inputs": [
        {
          "internalType": "address",
          "name": "",
          "type": "address"
        }
      ],
      "name": "_allowableERC20MakeListToken",
      "outputs": [
        {
          "internalType": "bool",
          "name": "",
          "type": "bool"
        }
      ],
      "stateMutability": "view",
      "type": "function"
    },
    {
      "inputs": [
        {
          "internalType": "address",
          "name": "",
          "type": "address"
        }
      ],
      "name": "_allowableERC20MakeOffer",
      "outputs": [
        {
          "internalType": "bool",
          "name": "",
          "type": "bool"
        }
      ],
      "stateMutability": "view",
      "type": "function"
    },
    {
      "inputs": [
        {
          "internalType": "uint256",
          "name": "",
          "type": "uint256"
        }
      ],
      "name": "_arrayListingId",
      "outputs": [
        {
          "internalType": "bytes32",
          "name": "",
          "type": "bytes32"
        }
      ],
      "stateMutability": "view",
      "type": "function"
    },
    {
      "inputs": [
        {
          "internalType": "uint256",
          "name": "",
          "type": "uint256"
        }
      ],
      "name": "_arrayMakeOfferId",
      "outputs": [
        {
          "internalType": "bytes32",
          "name": "",
          "type": "bytes32"
        }
      ],
      "stateMutability": "view",
      "type": "function"
    },
    {
      "inputs": [
        {
          "internalType": "address",
          "name": "",
          "type": "address"
        },
        {
          "internalType": "uint256",
          "name": "",
          "type": "uint256"
        },
        {
          "internalType": "uint256",
          "name": "",
          "type": "uint256"
        }
      ],
      "name": "_listingTokenDataMapping",
      "outputs": [
        {
          "internalType": "address",
          "name": "_collectionContract",
          "type": "address"
        },
        {
          "internalType": "uint256",
          "name": "_tokenId",
          "type": "uint256"
        },
        {
          "internalType": "address",
          "name": "_seller",
          "type": "address"
        },
        {
          "internalType": "uint256",
          "name": "_price",
          "type": "uint256"
        },
        {
          "internalType": "address",
          "name": "_erc20Token",
          "type": "address"
        },
        {
          "internalType": "bool",
          "name": "_closed",
          "type": "bool"
        },
        {
          "internalType": "uint256",
          "name": "_durationTime",
          "type": "uint256"
        }
      ],
      "stateMutability": "view",
      "type": "function"
    },
    {
      "inputs": [
        {
          "internalType": "bytes32",
          "name": "",
          "type": "bytes32"
        }
      ],
      "name": "_listingTokens",
      "outputs": [
        {
          "internalType": "address",
          "name": "_collectionContract",
          "type": "address"
        },
        {
          "internalType": "uint256",
          "name": "_tokenId",
          "type": "uint256"
        },
        {
          "internalType": "address",
          "name": "_seller",
          "type": "address"
        },
        {
          "internalType": "uint256",
          "name": "_price",
          "type": "uint256"
        },
        {
          "internalType": "address",
          "name": "_erc20Token",
          "type": "address"
        },
        {
          "internalType": "bool",
          "name": "_closed",
          "type": "bool"
        },
        {
          "internalType": "uint256",
          "name": "_durationTime",
          "type": "uint256"
        }
      ],
      "stateMutability": "view",
      "type": "function"
    },
    {
      "inputs": [
        {
          "internalType": "address",
          "name": "",
          "type": "address"
        },
        {
          "internalType": "uint256",
          "name": "",
          "type": "uint256"
        },
        {
          "internalType": "uint256",
          "name": "",
          "type": "uint256"
        }
      ],
      "name": "_makeOfferDataMapping",
      "outputs": [
        {
          "internalType": "address",
          "name": "_collectionContract",
          "type": "address"
        },
        {
          "internalType": "uint256",
          "name": "_tokenId",
          "type": "uint256"
        },
        {
          "internalType": "address",
          "name": "_buyer",
          "type": "address"
        },
        {
          "internalType": "address",
          "name": "_erc20Token",
          "type": "address"
        },
        {
          "internalType": "uint256",
          "name": "_price",
          "type": "uint256"
        },
        {
          "internalType": "bool",
          "name": "_closed",
          "type": "bool"
        },
        {
          "internalType": "uint256",
          "name": "_durationTime",
          "type": "uint256"
        }
      ],
      "stateMutability": "view",
      "type": "function"
    },
    {
      "inputs": [
        {
          "internalType": "bytes32",
          "name": "",
          "type": "bytes32"
        }
      ],
      "name": "_makeOfferTokens",
      "outputs": [
        {
          "internalType": "address",
          "name": "_collectionContract",
          "type": "address"
        },
        {
          "internalType": "uint256",
          "name": "_tokenId",
          "type": "uint256"
        },
        {
          "internalType": "address",
          "name": "_buyer",
          "type": "address"
        },
        {
          "internalType": "address",
          "name": "_erc20Token",
          "type": "address"
        },
        {
          "internalType": "uint256",
          "name": "_price",
          "type": "uint256"
        },
        {
          "internalType": "bool",
          "name": "_closed",
          "type": "bool"
        },
        {
          "internalType": "uint256",
          "name": "_durationTime",
          "type": "uint256"
        }
      ],
      "stateMutability": "view",
      "type": "function"
    },
    {
      "inputs": [],
      "name": "_parameterAddr",
      "outputs": [
        {
          "internalType": "address",
          "name": "",
          "type": "address"
        }
      ],
      "stateMutability": "view",
      "type": "function"
    },
    {
      "inputs": [
        {
          "internalType": "bytes32",
          "name": "offerId",
          "type": "bytes32"
        }
      ],
      "name": "acceptMakeOffer",
      "outputs": [],
      "stateMutability": "nonpayable",
      "type": "function"
    },
    {
      "inputs": [
        {
          "internalType": "bytes32",
          "name": "_offeringId",
          "type": "bytes32"
        }
      ],
      "name": "cancelListing",
      "outputs": [],
      "stateMutability": "nonpayable",
      "type": "function"
    },
    {
      "inputs": [
        {
          "internalType": "bytes32",
          "name": "offerId",
          "type": "bytes32"
        }
      ],
      "name": "cancelMakeOffer",
      "outputs": [],
      "stateMutability": "nonpayable",
      "type": "function"
    },
    {
      "inputs": [
        {
          "internalType": "address",
          "name": "newAdm",
          "type": "address"
        }
      ],
      "name": "changeAdmin",
      "outputs": [],
      "stateMutability": "nonpayable",
      "type": "function"
    },
    {
      "inputs": [
        {
          "internalType": "address",
          "name": "newAddr",
          "type": "address"
        }
      ],
      "name": "changeParamAddr",
      "outputs": [],
      "stateMutability": "nonpayable",
      "type": "function"
    },
    {
      "inputs": [
        {
          "internalType": "address",
          "name": "admin",
          "type": "address"
        },
        {
          "internalType": "address",
          "name": "parameterControl",
          "type": "address"
        }
      ],
      "name": "initialize",
      "outputs": [],
      "stateMutability": "nonpayable",
      "type": "function"
    },
    {
      "inputs": [
        {
          "components": [
            {
              "internalType": "address",
              "name": "_collectionContract",
              "type": "address"
            },
            {
              "internalType": "uint256",
              "name": "_tokenId",
              "type": "uint256"
            },
            {
              "internalType": "address",
              "name": "_seller",
              "type": "address"
            },
            {
              "internalType": "uint256",
              "name": "_price",
              "type": "uint256"
            },
            {
              "internalType": "address",
              "name": "_erc20Token",
              "type": "address"
            },
            {
              "internalType": "bool",
              "name": "_closed",
              "type": "bool"
            },
            {
              "internalType": "uint256",
              "name": "_durationTime",
              "type": "uint256"
            }
          ],
          "internalType": "struct Marketplace.ListingTokenData",
          "name": "listingData",
          "type": "tuple"
        }
      ],
      "name": "listToken",
      "outputs": [
        {
          "internalType": "bytes32",
          "name": "",
          "type": "bytes32"
        }
      ],
      "stateMutability": "nonpayable",
      "type": "function"
    },
    {
      "inputs": [
        {
          "components": [
            {
              "internalType": "address",
              "name": "_collectionContract",
              "type": "address"
            },
            {
              "internalType": "uint256",
              "name": "_tokenId",
              "type": "uint256"
            },
            {
              "internalType": "address",
              "name": "_buyer",
              "type": "address"
            },
            {
              "internalType": "address",
              "name": "_erc20Token",
              "type": "address"
            },
            {
              "internalType": "uint256",
              "name": "_price",
              "type": "uint256"
            },
            {
              "internalType": "bool",
              "name": "_closed",
              "type": "bool"
            },
            {
              "internalType": "uint256",
              "name": "_durationTime",
              "type": "uint256"
            }
          ],
          "internalType": "struct Marketplace.MakeOfferData",
          "name": "makeOfferData",
          "type": "tuple"
        }
      ],
      "name": "makeOffer",
      "outputs": [
        {
          "internalType": "bytes32",
          "name": "",
          "type": "bytes32"
        }
      ],
      "stateMutability": "nonpayable",
      "type": "function"
    },
    {
      "inputs": [
        {
          "internalType": "bytes32",
          "name": "offeringId",
          "type": "bytes32"
        }
      ],
      "name": "purchaseToken",
      "outputs": [],
      "stateMutability": "payable",
      "type": "function"
    },
    {
      "inputs": [
        {
          "internalType": "address",
          "name": "erc20",
          "type": "address"
        },
        {
          "internalType": "bool",
          "name": "allow",
          "type": "bool"
        }
      ],
      "name": "setApproveERC20ListToken",
      "outputs": [],
      "stateMutability": "nonpayable",
      "type": "function"
    },
    {
      "inputs": [
        {
          "internalType": "address",
          "name": "erc20",
          "type": "address"
        },
        {
          "internalType": "bool",
          "name": "allow",
          "type": "bool"
        }
      ],
      "name": "setApproveERC20MakeOffer",
      "outputs": [],
      "stateMutability": "nonpayable",
      "type": "function"
    },
    {
      "inputs": [
        {
          "internalType": "address",
          "name": "receiver",
          "type": "address"
        },
        {
          "internalType": "address",
          "name": "erc20Addr",
          "type": "address"
        },
        {
          "internalType": "uint256",
          "name": "amount",
          "type": "uint256"
        }
      ],
      "name": "withdraw",
      "outputs": [],
      "stateMutability": "nonpayable",
      "type": "function"
    }
  ],
  "bytecode": "0x608060405234801561001057600080fd5b50612e9d806100206000396000f3fe6080604052600436106101355760003560e01c80639299e552116100ab578063d9caed121161006f578063d9caed12146104b2578063d9e87e61146104d2578063e5026b8b146104f2578063ed4ec20114610512578063f1f2df0e14610532578063febfd6c31461055257600080fd5b80639299e5521461036d578063a3a1937c1461038d578063bd7ec0c214610442578063d299a08614610472578063d2abb69c1461049257600080fd5b8063485cc955116100fd578063485cc9551461028d57806351351e3e146102ad5780635b06e64a146102cd57806372c035cf1461030d5780638f2839701461032d5780639142e6a81461034d57600080fd5b806301bc45c91461013a57806314646f6d146101775780631fd4d2ed146101e05780633ac1089a1461020e5780633dd72c4014610223575b600080fd5b34801561014657600080fd5b5060345461015a906001600160a01b031681565b6040516001600160a01b0390911681526020015b60405180910390f35b34801561018357600080fd5b506101976101923660046128e1565b610572565b604080516001600160a01b039889168152602081019790975294871694860194909452949091166060840152608083015291151560a082015260c081019190915260e00161016e565b3480156101ec57600080fd5b506102006101fb366004612916565b6105eb565b60405190815260200161016e565b61022161021c366004612916565b61060c565b005b34801561022f57600080fd5b5061019761023e366004612916565b60386020526000908152604090208054600182015460028301546003840154600485015460058601546006909601546001600160a01b03958616969495938416949290931692909160ff169087565b34801561029957600080fd5b506102216102a836600461292f565b610629565b3480156102b957600080fd5b506102006102c83660046129c3565b610701565b3480156102d957600080fd5b506102fd6102e8366004612a4a565b603d6020526000908152604090205460ff1681565b604051901515815260200161016e565b34801561031957600080fd5b5060355461015a906001600160a01b031681565b34801561033957600080fd5b50610221610348366004612a4a565b610844565b34801561035957600080fd5b50610221610368366004612a6e565b6108d6565b34801561037957600080fd5b50610221610388366004612916565b610948565b34801561039957600080fd5b506103f76103a8366004612916565b6036602052600090815260409020805460018201546002830154600384015460048501546005909501546001600160a01b03948516959394928316939192821691600160a01b900460ff169087565b604080516001600160a01b0398891681526020810197909752948716948601949094526060850192909252909316608083015291151560a082015260c081019190915260e00161016e565b34801561044e57600080fd5b506102fd61045d366004612a4a565b603c6020526000908152604090205460ff1681565b34801561047e57600080fd5b506103f761048d3660046128e1565b610951565b34801561049e57600080fd5b506102006104ad366004612a9c565b6109cd565b3480156104be57600080fd5b506102216104cd366004612b0b565b610b01565b3480156104de57600080fd5b506102216104ed366004612916565b610c5b565b3480156104fe57600080fd5b5061022161050d366004612a6e565b610c6c565b34801561051e57600080fd5b5061020061052d366004612916565b610cde565b34801561053e57600080fd5b5061022161054d366004612916565b610cee565b34801561055e57600080fd5b5061022161056d366004612a4a565b610cf7565b603b602052826000526040600020602052816000526040600020818154811061059a57600080fd5b600091825260209091206007909102018054600182015460028301546003840154600485015460058601546006909601546001600160a01b03958616995093975091841695509092169260ff169087565b603981815481106105fb57600080fd5b600091825260209091200154905081565b610614610d89565b61061d81610de3565b61062660018055565b50565b600054610100900460ff16158080156106495750600054600160ff909116105b806106635750303b158015610663575060005460ff166001145b6106885760405162461bcd60e51b815260040161067f90612b4c565b60405180910390fd5b6000805460ff1916600117905580156106ab576000805461ff0019166101001790555b6106b583836116b6565b80156106fc576000805461ff0019169055604051600181527f7f26b83ff96e1f2b6a682f133852f6798a09c465da95921460cefb3847402498906020015b60405180910390a15b505050565b60808101516001600160a01b03166000908152603d60209081526040808320548151808301909252600382526233303760e81b928201929092529060ff1661075c5760405162461bcd60e51b815260040161067f9190612bca565b50600061076883611825565b600081815260366020908152604080832087516001600160a01b039081168552603a845282852098840151855297835290832080546001818101835591855292909320815460069093020180546001600160a01b0319908116938916939093178155838201549381019390935560028082015490840180548416918916919091179055600380820154908401556004808201805491850180549485169290991691821789555460ff600160a01b91829004161515026001600160a81b031990931617919091179095556005948501549401939093555090919050565b6034546001600160a01b03163314801561086657506001600160a01b03811615155b6040518060400160405280600381526020016231303160e81b815250906108a05760405162461bcd60e51b815260040161067f9190612bca565b506034546001600160a01b0382811691161461062657603480546001600160a01b0383166001600160a01b031990911617905550565b60345460408051808201909152600381526231303160e81b6020820152906001600160a01b0316331461091c5760405162461bcd60e51b815260040161067f9190612bca565b506001600160a01b03919091166000908152603c60205260409020805460ff1916911515919091179055565b61062681611bee565b603a602052826000526040600020602052816000526040600020818154811061097957600080fd5b60009182526020909120600690910201805460018201546002830154600384015460048501546005909501546001600160a01b03948516985092965090831694509291821691600160a01b900460ff169087565b60608101516001600160a01b03166000908152603c60209081526040808320548151808301909252600382526233303760e81b928201929092529060ff16610a285760405162461bcd60e51b815260040161067f9190612bca565b506000610a3483611ccd565b600081815260386020908152604080832080546001600160a01b039081168552603b84528285206001808401805488529186529386208054808601825590875294909520825460079095020180549482166001600160a01b03199586161781559454928501929092556002808201549085018054918416918516919091179055600380820154908501805491909316931692909217905560048082015490830155600580820154908301805460ff191660ff90921615159190911790556006908101549101559392505050565b610b09610d89565b60345460408051808201909152600381526231303160e81b6020820152906001600160a01b03163314610b4f5760405162461bcd60e51b815260040161067f9190612bca565b5060006001600160a01b038316610bd05781471015610b6d57600080fd5b6040516001600160a01b038516908390600081818185875af1925050503d8060008114610bb6576040519150601f19603f3d011682016040523d82523d6000602084013e610bbb565b606091505b50508091505080610bcb57600080fd5b610c51565b60405163a9059cbb60e01b81526001600160a01b0385811660048301526024820184905284919082169063a9059cbb906044016020604051808303816000875af1158015610c22573d6000803e3d6000fd5b505050506040513d601f19601f82011682018060405250810190610c469190612bfd565b610c4f57600080fd5b505b506106fc60018055565b610c63610d89565b61061d81611f76565b60345460408051808201909152600381526231303160e81b6020820152906001600160a01b03163314610cb25760405162461bcd60e51b815260040161067f9190612bca565b506001600160a01b03919091166000908152603d60205260409020805460ff1916911515919091179055565b603781815481106105fb57600080fd5b6106268161263a565b6034546001600160a01b031633148015610d1957506001600160a01b03811615155b6040518060400160405280600381526020016231303160e81b81525090610d535760405162461bcd60e51b815260040161067f9190612bca565b506035546001600160a01b0382811691161461062657603580546001600160a01b0383166001600160a01b031990911617905550565b60026001541415610ddc5760405162461bcd60e51b815260206004820152601f60248201527f5265656e7472616e637947756172643a207265656e7472616e742063616c6c00604482015260640161067f565b6002600155565b600081815260366020908152604091829020825160e08101845281546001600160a01b03908116825260018301549382019390935260028201548316938101939093526003810154606084015260048101549182166080840152600160a01b90910460ff1615801560a084015260059091015460c083015280610e6957508060c0015142105b6040518060400160405280600381526020016219981960e91b81525090610ea35760405162461bcd60e51b815260040161067f9190612bca565b5080516080808301516040805160e0810182526000808252602082018190529181018290526060810182905292830181905260a0830181905260c083015282916001600160a01b039091161515906000821561102e57506080808601516040805160e08101825233808252828a01516001600160a01b0390811660208401526060808c01805185870152519084015292516370a0823160e01b8152600481019190915292939092908301918416906370a0823190602401602060405180830381865afa158015610f77573d6000803e3d6000fd5b505050506040513d601f19601f82011682018060405250810190610f9b9190612c1a565b8152604051636eb1769f60e11b81523360048201523060248201526020909101906001600160a01b0384169063dd62ed3e90604401602060405180830381865afa158015610fed573d6000803e3d6000fd5b505050506040513d601f19601f820116820180604052508101906110119190612c1a565b815260200187608001516001600160a01b0316815250915061108e565b6040518060e00160405280336001600160a01b0316815260200187604001516001600160a01b031681526020018760600151815260200187606001518152602001600081526020016000815260200160006001600160a01b031681525091505b85604001516001600160a01b0316846001600160a01b0316636352211e88602001516040518263ffffffff1660e01b81526004016110ce91815260200190565b602060405180830381865afa1580156110eb573d6000803e3d6000fd5b505050506040513d601f19601f8201168201806040525081019061110f9190612c33565b6001600160a01b0316146040518060400160405280600381526020016203330360ec1b815250906111535760405162461bcd60e51b815260040161067f9190612bca565b5082156111e55760408083015160a08401518251808401909352600383526233303560e81b6020840152101561119c5760405162461bcd60e51b815260040161067f9190612bca565b506040808301516080840151825180840190935260038352620ccc0d60ea1b602084015210156111df5760405162461bcd60e51b815260040161067f9190612bca565b50611225565b6040808301518151808301909252600382526233303360e81b60208301523410156112235760405162461bcd60e51b815260040161067f9190612bca565b505b600087815260366020908152604091829020600401548251808401909352600383526219981960e91b91830191909152600160a01b900460ff161561127d5760405162461bcd60e51b815260040161067f9190612bca565b5081516020870151604051632142170760e11b81526001600160a01b038716926342842e0e926112b39230929190600401612c50565b600060405180830381600087803b1580156112cd57600080fd5b505af11580156112e1573d6000803e3d6000fd5b50506035546040805160808101825260008082526020808301829052828401829052606083019190915282518084018452601b81527f4d41524b4554504c4143455f42454e454649545f50455243454e540000000000918101919091529151636d12dce160e01b81526001600160a01b03909316945092508391636d12dce19161136d91600401612bca565b602060405180830381865afa15801561138a573d6000803e3d6000fd5b505050506040513d601f19601f820116820180604052508101906113ae9190612c1a565b604082018190526113c2576109c460408201525b60408101511561140957612710816040015185606001516113e39190612c8a565b6113ed9190612ca9565b60608201819052604085018051611405908390612ccb565b9052505b841561157a57835160608501516040516323b872dd60e01b81526001600160a01b038616926323b872dd9261144392309190600401612c50565b6020604051808303816000875af1158015611462573d6000803e3d6000fd5b505050506040513d601f19601f820116820180604052508101906114869190612bfd565b6040518060400160405280600381526020016219981b60e91b815250906114c05760405162461bcd60e51b815260040161067f9190612bca565b506040808901518582015191516323b872dd60e01b81526001600160a01b038616926323b872dd926114f792309290600401612c50565b6020604051808303816000875af1158015611516573d6000803e3d6000fd5b505050506040513d601f19601f8201168201806040525081019061153a9190612bfd565b6040518060400160405280600381526020016219981b60e91b815250906115745760405162461bcd60e51b815260040161067f9190612bca565b5061164f565b60408051808201909152600381526233303360e81b6020820152476115b25760405162461bcd60e51b815260040161067f9190612bca565b50600088604001516001600160a01b0316856040015160405160006040518083038185875af1925050503d8060008114611608576040519150601f19603f3d011682016040523d82523d6000602084013e61160d565b606091505b50509050806040518060400160405280600381526020016219981b60e91b8152509061164c5760405162461bcd60e51b815260040161067f9190612bca565b50505b60008981526036602052604090819020600401805460ff60a01b1916600160a01b1790555189907f0d67ca70fa9836b4bb7c89f81cb4844dfaac024fee75d9b3f4a8b627ff18353c906116a3908b90612ce2565b60405180910390a2505050505050505050565b600054610100900460ff16158080156116d65750600054600160ff909116105b806116f05750303b1580156116f0575060005460ff166001145b61170c5760405162461bcd60e51b815260040161067f90612b4c565b6000805460ff19166001179055801561172f576000805461ff0019166101001790555b60408051808201909152600381526203130360ec1b60208201526001600160a01b0384166117705760405162461bcd60e51b815260040161067f9190612bca565b5060408051808201909152600381526203130360ec1b60208201526001600160a01b0383166117b25760405162461bcd60e51b815260040161067f9190612bca565b50603480546001600160a01b038086166001600160a01b031992831617909255603580549285169290911691909117905580156106fc576000805461ff0019169055604051600181527f7f26b83ff96e1f2b6a682f133852f6798a09c465da95921460cefb3847402498906020016106f3565b805160208201516040516331a9108f60e11b815260048101919091526000919033906001600160a01b03831690636352211e90602401602060405180830381865afa158015611878573d6000803e3d6000fd5b505050506040513d601f19601f8201168201806040525081019061189c9190612c33565b6001600160a01b0316146040518060400160405280600381526020016203330360ec1b815250906118e05760405162461bcd60e51b815260040161067f9190612bca565b5060008360600151116040518060400160405280600381526020016206660760eb1b815250906119235760405162461bcd60e51b815260040161067f9190612bca565b5060008360c00151116040518060400160405280600381526020016233303960e81b815250906119665760405162461bcd60e51b815260040161067f9190612bca565b5060405163e985e9c560e01b81523360048201523060248201526001600160a01b0382169063e985e9c590604401602060405180830381865afa1580156119b1573d6000803e3d6000fd5b505050506040513d601f19601f820116820180604052508101906119d59190612bfd565b60408051808201909152600381526233303160e81b6020820152901515600114611a125760405162461bcd60e51b815260040161067f9190612bca565b5060338054906000611a2383612d3d565b91905055506000611a35603354612756565b84516020860151611a4590612756565b604051602001611a5793929190612d58565b604051602081830303815290604052805190602001209050836036600083815260200190815260200160002060008201518160000160006101000a8154816001600160a01b0302191690836001600160a01b031602179055506020820151816001015560408201518160020160006101000a8154816001600160a01b0302191690836001600160a01b031602179055506060820151816003015560808201518160040160006101000a8154816001600160a01b0302191690836001600160a01b0316021790555060a08201518160040160146101000a81548160ff02191690831515021790555060c08201518160050155905050336036600083815260200190815260200160002060020160006101000a8154816001600160a01b0302191690836001600160a01b031602179055506037819080600181540180825580915050600190039060005260206000200160009091909190915055807f3ccf769eda81980d79028be70b31cbf4781fd3de79e39294f5a3155cd871fe4285604051611bdf9190612ce2565b60405180910390a29392505050565b600081815260366020908152604091829020600201548251808401909352600383526203330360ec1b918301919091526001600160a01b03163314611c465760405162461bcd60e51b815260040161067f9190612bca565b50600081815260366020526040902060040154600160a01b900460ff1615611c6d57600080fd5b6000818152603660205260409081902060048101805460ff60a01b1916600160a01b179055905182917f70dbf33ef944f625cca697b383d06641eadb22e5f56d9f755930ea29a97953dc91611cc29190612da4565b60405180910390a250565b606081015160408051808201909152600381526203130360ec1b60208201526000916001600160a01b0316611d155760405162461bcd60e51b815260040161067f9190612bca565b50815160408051808201909152600381526203130360ec1b6020820152906001600160a01b0316611d595760405162461bcd60e51b815260040161067f9190612bca565b5060008260800151116040518060400160405280600381526020016206660760eb1b81525090611d9c5760405162461bcd60e51b815260040161067f9190612bca565b5060008260c00151116040518060400160405280600381526020016233303960e81b81525090611ddf5760405162461bcd60e51b815260040161067f9190612bca565b5060608201516080830151604051636eb1769f60e11b81523360048201523060248201526001600160a01b0383169063dd62ed3e90604401602060405180830381865afa158015611e34573d6000803e3d6000fd5b505050506040513d601f19601f82011682018060405250810190611e589190612c1a565b1015611e6357600080fd5b60338054906000611e7383612d3d565b91905055506000611e85603354612756565b84516020860151611e9590612756565b604051602001611ea793929190612d58565b60408051808303601f19018152828252805160209182012060008181526038835292909220875181546001600160a01b03199081166001600160a01b0392831617835592890151600183015560028201805460608b01516003850180548716919094161790925560808a0151600484015560a08a015160058401805460ff191691151591909117905560c08a015160069093019290925590911633179055915081907f1101875263abf1b7c3fc9cf51275180975f69f768a3c09e1b453fa0cad6f29b190611bdf908790612e0c565b600081815260386020908152604091829020825160e08101845281546001600160a01b03908116825260018301549382019390935260028201548316938101939093526003810154909116606083015260048101546080830152600581015460ff1615801560a084015260069091015460c083015280611ff957508060c0015142105b6040518060400160405280600381526020016219981960e91b815250906120335760405162461bcd60e51b815260040161067f9190612bca565b50805160208201516040516331a9108f60e11b815233916001600160a01b03841691636352211e9161206b9160040190815260200190565b602060405180830381865afa158015612088573d6000803e3d6000fd5b505050506040513d601f19601f820116820180604052508101906120ac9190612c33565b6001600160a01b0316146120bf57600080fd5b60405163e985e9c560e01b81523360048201523060248201526001600160a01b0382169063e985e9c590604401602060405180830381865afa158015612109573d6000803e3d6000fd5b505050506040513d601f19601f8201168201806040525081019061212d9190612bfd565b61213657600080fd5b606082015160808301516040808501519051636eb1769f60e11b81526001600160a01b0391821660048201523060248201529083169063dd62ed3e90604401602060405180830381865afa158015612192573d6000803e3d6000fd5b505050506040513d601f19601f820116820180604052508101906121b69190612c1a565b10156121c157600080fd5b6040805160e08101825284820180516001600160a01b0390811683523360208401526080808801805185870152516060850152915193516370a0823160e01b8152938116600485015260009391830191908516906370a0823190602401602060405180830381865afa15801561223b573d6000803e3d6000fd5b505050506040513d601f19601f8201168201806040525081019061225f9190612c1a565b81526040808701519051636eb1769f60e11b81526001600160a01b0391821660048201523060248201526020909201919085169063dd62ed3e90604401602060405180830381865afa1580156122b9573d6000803e3d6000fd5b505050506040513d601f19601f820116820180604052508101906122dd9190612c1a565b81526060808701516001600160a01b039081166020938401526035546040805160808101825260008082528187018190528183018190529481019490945280518082018252601b81527f4d41524b4554504c4143455f42454e454649545f50455243454e5400000000009581019590955251636d12dce160e01b8152949550169290918391636d12dce19161237491600401612bca565b602060405180830381865afa158015612391573d6000803e3d6000fd5b505050506040513d601f19601f820116820180604052508101906123b59190612c1a565b604082018190526123c9576109c460408201525b60408101511561241057612710816040015184606001516123ea9190612c8a565b6123f49190612ca9565b6060820181905260408401805161240c908390612ccb565b9052505b825160608401516040516323b872dd60e01b81526001600160a01b038716926323b872dd9261244492309190600401612c50565b6020604051808303816000875af1158015612463573d6000803e3d6000fd5b505050506040513d601f19601f820116820180604052508101906124879190612bfd565b6040518060400160405280600381526020016219981b60e91b815250906124c15760405162461bcd60e51b815260040161067f9190612bca565b5060408084015190516323b872dd60e01b81526001600160a01b038616916323b872dd916124f6913091339190600401612c50565b6020604051808303816000875af1158015612515573d6000803e3d6000fd5b505050506040513d601f19601f820116820180604052508101906125399190612bfd565b6040518060400160405280600381526020016219981b60e91b815250906125735760405162461bcd60e51b815260040161067f9190612bca565b5082516020870151604051632142170760e11b81526001600160a01b038816926342842e0e926125a99230929190600401612c50565b600060405180830381600087803b1580156125c357600080fd5b505af11580156125d7573d6000803e3d6000fd5b50505060008881526038602052604090819020600501805460ff19166001179055518891507f18f1ceedf8920f811ccf39358c2a2164a50e62c93ad4dafc82e6906cf81dc0a490612629908990612e0c565b60405180910390a250505050505050565b600081815260386020908152604091829020600201548251808401909352600383526203130360ec1b918301919091526001600160a01b031633146126925760405162461bcd60e51b815260040161067f9190612bca565b5060008181526038602052604090206005015460ff16156126b257600080fd5b6000818152603860205260409081902060058101805460ff19166001179055905182917fd1e7e193455ba4241e816f1b6fa787b59dad27c1279c69179f6cb4b4387bf54391611cc2919081546001600160a01b03908116825260018301546020830152600283015481166040830152600383015416606082015260048201546080820152600582015460ff16151560a082015260069091015460c082015260e00190565b60606000612763836127f3565b600101905060008167ffffffffffffffff81111561278357612783612968565b6040519080825280601f01601f1916602001820160405280156127ad576020820181803683370190505b5090508181016020015b600019016f181899199a1a9b1b9c1cb0b131b232b360811b600a86061a8153600a85049450846127e6576127eb565b6127b7565b509392505050565b60008072184f03e93ff9f4daa797ed6e38ed64bf6a1f0160401b83106128325772184f03e93ff9f4daa797ed6e38ed64bf6a1f0160401b830492506040015b6d04ee2d6d415b85acef8100000000831061285e576d04ee2d6d415b85acef8100000000830492506020015b662386f26fc10000831061287c57662386f26fc10000830492506010015b6305f5e1008310612894576305f5e100830492506008015b61271083106128a857612710830492506004015b606483106128ba576064830492506002015b600a83106128c6576001015b92915050565b6001600160a01b038116811461062657600080fd5b6000806000606084860312156128f657600080fd5b8335612901816128cc565b95602085013595506040909401359392505050565b60006020828403121561292857600080fd5b5035919050565b6000806040838503121561294257600080fd5b823561294d816128cc565b9150602083013561295d816128cc565b809150509250929050565b634e487b7160e01b600052604160045260246000fd5b60405160e0810167ffffffffffffffff811182821017156129af57634e487b7160e01b600052604160045260246000fd5b60405290565b801515811461062657600080fd5b600060e082840312156129d557600080fd5b6129dd61297e565b82356129e8816128cc565b8152602083810135908201526040830135612a02816128cc565b6040820152606083810135908201526080830135612a1f816128cc565b608082015260a0830135612a32816129b5565b60a082015260c0928301359281019290925250919050565b600060208284031215612a5c57600080fd5b8135612a67816128cc565b9392505050565b60008060408385031215612a8157600080fd5b8235612a8c816128cc565b9150602083013561295d816129b5565b600060e08284031215612aae57600080fd5b612ab661297e565b8235612ac1816128cc565b8152602083810135908201526040830135612adb816128cc565b60408201526060830135612aee816128cc565b60608201526080838101359082015260a0830135612a32816129b5565b600080600060608486031215612b2057600080fd5b8335612b2b816128cc565b92506020840135612b3b816128cc565b929592945050506040919091013590565b6020808252602e908201527f496e697469616c697a61626c653a20636f6e747261637420697320616c72656160408201526d191e481a5b9a5d1a585b1a5e995960921b606082015260800190565b60005b83811015612bb5578181015183820152602001612b9d565b83811115612bc4576000848401525b50505050565b6020815260008251806020840152612be9816040850160208701612b9a565b601f01601f19169190910160400192915050565b600060208284031215612c0f57600080fd5b8151612a67816129b5565b600060208284031215612c2c57600080fd5b5051919050565b600060208284031215612c4557600080fd5b8151612a67816128cc565b6001600160a01b039384168152919092166020820152604081019190915260600190565b634e487b7160e01b600052601160045260246000fd5b6000816000190483118215151615612ca457612ca4612c74565b500290565b600082612cc657634e487b7160e01b600052601260045260246000fd5b500490565b600082821015612cdd57612cdd612c74565b500390565b81516001600160a01b03908116825260208084015190830152604080840151821690830152606080840151908301526080808401519091169082015260a08281015115159082015260c0918201519181019190915260e00190565b6000600019821415612d5157612d51612c74565b5060010190565b60008451612d6a818460208901612b9a565b606085901b6bffffffffffffffffffffffff19169083019081528351612d97816014840160208801612b9a565b0160140195945050505050565b81546001600160a01b03908116825260018301546020830152600283015481166040830152600383015460608301526004830154808216608084015260e083019190612dfa60a0850160ff8360a01c1615159052565b5050600583015460c083015292915050565b81516001600160a01b03908116825260208084015190830152604080840151821690830152606080840151909116908201526080808301519082015260a08281015115159082015260c0918201519181019190915260e0019056fea2646970667358221220716868bd3db82e9941af91b6c94a14d87b6bb17636123909f7a614d32c54770464736f6c634300080c0033",
  "linkReferences": {},
  "deployedLinkReferences": {}
}