{
  "_format": "hh-sol-artifact-1",
  "contractName": "AdvanceMarketplaceService",
  "sourceName": "contracts/services/AdvanceMarketplaceService.sol",
  "abi": [
    {
      "anonymous": false,
      "inputs": [
        {
          "indexed": false,
          "internalType": "uint8",
          "name": "version",
          "type": "uint8"
        }
      ],
      "name": "Initialized",
      "type": "event"
    },
    {
      "inputs": [],
      "name": "_admin",
      "outputs": [
        {
          "internalType": "address",
          "name": "",
          "type": "address"
        }
      ],
      "stateMutability": "view",
      "type": "function"
    },
    {
      "inputs": [
        {
          "internalType": "address",
          "name": "",
          "type": "address"
        }
      ],
      "name": "_allowableERC20MakeListToken",
      "outputs": [
        {
          "internalType": "bool",
          "name": "",
          "type": "bool"
        }
      ],
      "stateMutability": "view",
      "type": "function"
    },
    {
      "inputs": [
        {
          "internalType": "address",
          "name": "",
          "type": "address"
        }
      ],
      "name": "_allowableERC20MakeOffer",
      "outputs": [
        {
          "internalType": "bool",
          "name": "",
          "type": "bool"
        }
      ],
      "stateMutability": "view",
      "type": "function"
    },
    {
      "inputs": [
        {
          "internalType": "uint256",
          "name": "",
          "type": "uint256"
        }
      ],
      "name": "_arrayListingId",
      "outputs": [
        {
          "internalType": "bytes32",
          "name": "",
          "type": "bytes32"
        }
      ],
      "stateMutability": "view",
      "type": "function"
    },
    {
      "inputs": [
        {
          "internalType": "uint256",
          "name": "",
          "type": "uint256"
        }
      ],
      "name": "_arrayMakeOfferId",
      "outputs": [
        {
          "internalType": "bytes32",
          "name": "",
          "type": "bytes32"
        }
      ],
      "stateMutability": "view",
      "type": "function"
    },
    {
      "inputs": [
        {
          "internalType": "address",
          "name": "",
          "type": "address"
        },
        {
          "internalType": "uint256",
          "name": "",
          "type": "uint256"
        },
        {
          "internalType": "uint256",
          "name": "",
          "type": "uint256"
        }
      ],
      "name": "_listingTokenDataMapping",
      "outputs": [
        {
          "internalType": "address",
          "name": "_collectionContract",
          "type": "address"
        },
        {
          "internalType": "uint256",
          "name": "_tokenId",
          "type": "uint256"
        },
        {
          "internalType": "address",
          "name": "_seller",
          "type": "address"
        },
        {
          "internalType": "address",
          "name": "_erc20Token",
          "type": "address"
        },
        {
          "internalType": "uint256",
          "name": "_price",
          "type": "uint256"
        },
        {
          "internalType": "bool",
          "name": "_closed",
          "type": "bool"
        },
        {
          "internalType": "uint256",
          "name": "_durationTime",
          "type": "uint256"
        }
      ],
      "stateMutability": "view",
      "type": "function"
    },
    {
      "inputs": [
        {
          "internalType": "address",
          "name": "",
          "type": "address"
        },
        {
          "internalType": "uint256",
          "name": "",
          "type": "uint256"
        }
      ],
      "name": "_listingTokenIds",
      "outputs": [
        {
          "internalType": "uint256",
          "name": "",
          "type": "uint256"
        }
      ],
      "stateMutability": "view",
      "type": "function"
    },
    {
      "inputs": [
        {
          "internalType": "bytes32",
          "name": "",
          "type": "bytes32"
        }
      ],
      "name": "_listingTokens",
      "outputs": [
        {
          "internalType": "address",
          "name": "_collectionContract",
          "type": "address"
        },
        {
          "internalType": "uint256",
          "name": "_tokenId",
          "type": "uint256"
        },
        {
          "internalType": "address",
          "name": "_seller",
          "type": "address"
        },
        {
          "internalType": "address",
          "name": "_erc20Token",
          "type": "address"
        },
        {
          "internalType": "uint256",
          "name": "_price",
          "type": "uint256"
        },
        {
          "internalType": "bool",
          "name": "_closed",
          "type": "bool"
        },
        {
          "internalType": "uint256",
          "name": "_durationTime",
          "type": "uint256"
        }
      ],
      "stateMutability": "view",
      "type": "function"
    },
    {
      "inputs": [
        {
          "internalType": "address",
          "name": "",
          "type": "address"
        },
        {
          "internalType": "uint256",
          "name": "",
          "type": "uint256"
        },
        {
          "internalType": "uint256",
          "name": "",
          "type": "uint256"
        }
      ],
      "name": "_makeOfferDataMapping",
      "outputs": [
        {
          "internalType": "address",
          "name": "_collectionContract",
          "type": "address"
        },
        {
          "internalType": "uint256",
          "name": "_tokenId",
          "type": "uint256"
        },
        {
          "internalType": "address",
          "name": "_buyer",
          "type": "address"
        },
        {
          "internalType": "address",
          "name": "_erc20Token",
          "type": "address"
        },
        {
          "internalType": "uint256",
          "name": "_price",
          "type": "uint256"
        },
        {
          "internalType": "bool",
          "name": "_closed",
          "type": "bool"
        },
        {
          "internalType": "uint256",
          "name": "_durationTime",
          "type": "uint256"
        }
      ],
      "stateMutability": "view",
      "type": "function"
    },
    {
      "inputs": [
        {
          "internalType": "address",
          "name": "",
          "type": "address"
        },
        {
          "internalType": "uint256",
          "name": "",
          "type": "uint256"
        }
      ],
      "name": "_makeOfferTokenIds",
      "outputs": [
        {
          "internalType": "uint256",
          "name": "",
          "type": "uint256"
        }
      ],
      "stateMutability": "view",
      "type": "function"
    },
    {
      "inputs": [
        {
          "internalType": "bytes32",
          "name": "",
          "type": "bytes32"
        }
      ],
      "name": "_makeOfferTokens",
      "outputs": [
        {
          "internalType": "address",
          "name": "_collectionContract",
          "type": "address"
        },
        {
          "internalType": "uint256",
          "name": "_tokenId",
          "type": "uint256"
        },
        {
          "internalType": "address",
          "name": "_buyer",
          "type": "address"
        },
        {
          "internalType": "address",
          "name": "_erc20Token",
          "type": "address"
        },
        {
          "internalType": "uint256",
          "name": "_price",
          "type": "uint256"
        },
        {
          "internalType": "bool",
          "name": "_closed",
          "type": "bool"
        },
        {
          "internalType": "uint256",
          "name": "_durationTime",
          "type": "uint256"
        }
      ],
      "stateMutability": "view",
      "type": "function"
    },
    {
      "inputs": [],
      "name": "_parameterAddr",
      "outputs": [
        {
          "internalType": "address",
          "name": "",
          "type": "address"
        }
      ],
      "stateMutability": "view",
      "type": "function"
    },
    {
      "inputs": [
        {
          "internalType": "bytes32",
          "name": "offerId",
          "type": "bytes32"
        }
      ],
      "name": "acceptMakeOffer",
      "outputs": [],
      "stateMutability": "nonpayable",
      "type": "function"
    },
    {
      "inputs": [
        {
          "internalType": "bytes32",
          "name": "_offeringId",
          "type": "bytes32"
        }
      ],
      "name": "cancelListing",
      "outputs": [],
      "stateMutability": "nonpayable",
      "type": "function"
    },
    {
      "inputs": [
        {
          "internalType": "bytes32",
          "name": "offerId",
          "type": "bytes32"
        }
      ],
      "name": "cancelMakeOffer",
      "outputs": [],
      "stateMutability": "nonpayable",
      "type": "function"
    },
    {
      "inputs": [
        {
          "internalType": "address",
          "name": "newAdm",
          "type": "address"
        }
      ],
      "name": "changeAdmin",
      "outputs": [],
      "stateMutability": "nonpayable",
      "type": "function"
    },
    {
      "inputs": [
        {
          "internalType": "address",
          "name": "newAddr",
          "type": "address"
        }
      ],
      "name": "changeParamAddr",
      "outputs": [],
      "stateMutability": "nonpayable",
      "type": "function"
    },
    {
      "inputs": [
        {
          "internalType": "address",
          "name": "admin",
          "type": "address"
        },
        {
          "internalType": "address",
          "name": "parameterControl",
          "type": "address"
        }
      ],
      "name": "initialize",
      "outputs": [],
      "stateMutability": "nonpayable",
      "type": "function"
    },
    {
      "inputs": [
        {
          "components": [
            {
              "internalType": "address",
              "name": "_collectionContract",
              "type": "address"
            },
            {
              "internalType": "uint256",
              "name": "_tokenId",
              "type": "uint256"
            },
            {
              "internalType": "address",
              "name": "_seller",
              "type": "address"
            },
            {
              "internalType": "address",
              "name": "_erc20Token",
              "type": "address"
            },
            {
              "internalType": "uint256",
              "name": "_price",
              "type": "uint256"
            },
            {
              "internalType": "bool",
              "name": "_closed",
              "type": "bool"
            },
            {
              "internalType": "uint256",
              "name": "_durationTime",
              "type": "uint256"
            }
          ],
          "internalType": "struct Marketplace.ListingTokenData",
          "name": "listingData",
          "type": "tuple"
        }
      ],
      "name": "listToken",
      "outputs": [
        {
          "internalType": "bytes32",
          "name": "",
          "type": "bytes32"
        }
      ],
      "stateMutability": "nonpayable",
      "type": "function"
    },
    {
      "inputs": [
        {
          "components": [
            {
              "internalType": "address",
              "name": "_collectionContract",
              "type": "address"
            },
            {
              "internalType": "uint256",
              "name": "_tokenId",
              "type": "uint256"
            },
            {
              "internalType": "address",
              "name": "_buyer",
              "type": "address"
            },
            {
              "internalType": "address",
              "name": "_erc20Token",
              "type": "address"
            },
            {
              "internalType": "uint256",
              "name": "_price",
              "type": "uint256"
            },
            {
              "internalType": "bool",
              "name": "_closed",
              "type": "bool"
            },
            {
              "internalType": "uint256",
              "name": "_durationTime",
              "type": "uint256"
            }
          ],
          "internalType": "struct Marketplace.MakeOfferData",
          "name": "makeOfferData",
          "type": "tuple"
        }
      ],
      "name": "makeOffer",
      "outputs": [
        {
          "internalType": "bytes32",
          "name": "",
          "type": "bytes32"
        }
      ],
      "stateMutability": "nonpayable",
      "type": "function"
    },
    {
      "inputs": [
        {
          "components": [
            {
              "internalType": "address",
              "name": "_collectionContract",
              "type": "address"
            },
            {
              "internalType": "uint256[]",
              "name": "_tokenIds",
              "type": "uint256[]"
            },
            {
              "internalType": "address",
              "name": "_buyer",
              "type": "address"
            },
            {
              "internalType": "address",
              "name": "_erc20Token",
              "type": "address"
            },
            {
              "internalType": "uint256",
              "name": "_price",
              "type": "uint256"
            },
            {
              "internalType": "bool",
              "name": "_closed",
              "type": "bool"
            },
            {
              "internalType": "uint256",
              "name": "_durationTime",
              "type": "uint256"
            }
          ],
          "internalType": "struct Marketplace.MakeOfferCollectionData",
          "name": "makeOfferCollectionData",
          "type": "tuple"
        }
      ],
      "name": "makeOfferCollection",
      "outputs": [
        {
          "internalType": "bytes32[]",
          "name": "result",
          "type": "bytes32[]"
        }
      ],
      "stateMutability": "nonpayable",
      "type": "function"
    },
    {
      "inputs": [
        {
          "internalType": "bytes32",
          "name": "offeringId",
          "type": "bytes32"
        }
      ],
      "name": "purchaseToken",
      "outputs": [],
      "stateMutability": "payable",
      "type": "function"
    },
    {
      "inputs": [
        {
          "internalType": "address",
          "name": "erc20",
          "type": "address"
        },
        {
          "internalType": "bool",
          "name": "allow",
          "type": "bool"
        }
      ],
      "name": "setApproveERC20ListToken",
      "outputs": [],
      "stateMutability": "nonpayable",
      "type": "function"
    },
    {
      "inputs": [
        {
          "internalType": "address",
          "name": "erc20",
          "type": "address"
        },
        {
          "internalType": "bool",
          "name": "allow",
          "type": "bool"
        }
      ],
      "name": "setApproveERC20MakeOffer",
      "outputs": [],
      "stateMutability": "nonpayable",
      "type": "function"
    },
    {
      "inputs": [
        {
          "internalType": "bytes32[]",
          "name": "offers",
          "type": "bytes32[]"
        }
      ],
      "name": "sweep",
      "outputs": [],
      "stateMutability": "payable",
      "type": "function"
    },
    {
      "inputs": [
        {
          "internalType": "address",
          "name": "receiver",
          "type": "address"
        },
        {
          "internalType": "address",
          "name": "erc20Addr",
          "type": "address"
        },
        {
          "internalType": "uint256",
          "name": "amount",
          "type": "uint256"
        }
      ],
      "name": "withdraw",
      "outputs": [],
      "stateMutability": "nonpayable",
      "type": "function"
    }
  ],
  "bytecode": "0x608060405234801561001057600080fd5b50613ba4806100206000396000f3fe6080604052600436106101815760003560e01c8063a25d6dce116100d1578063d9e87e611161008a578063ed4ec20111610064578063ed4ec20114610573578063f1f2df0e14610593578063f40cb02d146105b3578063febfd6c3146105d357600080fd5b8063d9e87e6114610513578063e5026b8b14610533578063eab651d81461055357600080fd5b8063a25d6dce146103f9578063a3a1937c14610419578063bd7ec0c214610483578063d299a086146104b3578063d2abb69c146104d3578063d9caed12146104f357600080fd5b8063485cc9551161013e57806372c035cf1161011857806372c035cf146103795780638f283970146103995780639142e6a8146103b95780639299e552146103d957600080fd5b8063485cc955146103065780635b06e64a146103265780636852168a1461036657600080fd5b806301bc45c91461018657806314646f6d146101c35780631fd4d2ed1461022c5780632670ab0f1461025a5780633ac1089a146102875780633dd72c401461029c575b600080fd5b34801561019257600080fd5b506034546101a6906001600160a01b031681565b6040516001600160a01b0390911681526020015b60405180910390f35b3480156101cf57600080fd5b506101e36101de36600461338c565b6105f3565b604080516001600160a01b039889168152602081019790975294871694860194909452949091166060840152608083015291151560a082015260c081019190915260e0016101ba565b34801561023857600080fd5b5061024c6102473660046133c1565b61066c565b6040519081526020016101ba565b34801561026657600080fd5b5061027a6102753660046134f2565b61068d565b6040516101ba91906135ba565b61029a6102953660046133c1565b610959565b005b3480156102a857600080fd5b506101e36102b73660046133c1565b60386020526000908152604090208054600182015460028301546003840154600485015460058601546006909601546001600160a01b03958616969495938416949290931692909160ff169087565b34801561031257600080fd5b5061029a6103213660046135fe565b610976565b34801561033257600080fd5b50610356610341366004613637565b603f6020526000908152604090205460ff1681565b60405190151581526020016101ba565b61029a61037436600461365b565b610a44565b34801561038557600080fd5b506035546101a6906001600160a01b031681565b3480156103a557600080fd5b5061029a6103b4366004613637565b610ba9565b3480156103c557600080fd5b5061029a6103d43660046136ec565b610c3b565b3480156103e557600080fd5b5061029a6103f43660046133c1565b610cad565b34801561040557600080fd5b5061024c61041436600461371a565b610cb6565b34801561042557600080fd5b506101e36104343660046133c1565b60366020526000908152604090208054600182015460028301546003840154600485015460058601546006909601546001600160a01b03958616969495938416949290931692909160ff169087565b34801561048f57600080fd5b5061035661049e366004613637565b603e6020526000908152604090205460ff1681565b3480156104bf57600080fd5b506101e36104ce36600461338c565b610ce7565b3480156104df57600080fd5b5061024c6104ee3660046137ce565b610d0f565b3480156104ff57600080fd5b5061029a61050e3660046137ea565b610e5e565b34801561051f57600080fd5b5061029a61052e3660046133c1565b610fb8565b34801561053f57600080fd5b5061029a61054e3660046136ec565b610fc9565b34801561055f57600080fd5b5061024c61056e36600461371a565b61103b565b34801561057f57600080fd5b5061024c61058e3660046133c1565b611057565b34801561059f57600080fd5b5061029a6105ae3660046133c1565b611067565b3480156105bf57600080fd5b5061024c6105ce3660046137ce565b611070565b3480156105df57600080fd5b5061029a6105ee366004613637565b6111bf565b603c602052826000526040600020602052816000526040600020818154811061061b57600080fd5b600091825260209091206007909102018054600182015460028301546003840154600485015460058601546006909601546001600160a01b03958616995093975091841695509092169260ff169087565b6039818154811061067c57600080fd5b600091825260209091200154905081565b6060818101516001600160a01b03166000908152603e6020908152604091829020548251808401909352600383526233303760e81b9183019190915260ff166106f25760405162461bcd60e51b81526004016106e9919061385b565b60405180910390fd5b5081602001515167ffffffffffffffff811115610711576107116133da565b60405190808252806020026020018201604052801561073a578160200160208202803683370190505b50905060005b82602001515181101561091c5760006040518060e0016040528085600001516001600160a01b03168152602001856020015184815181106107835761078361388e565b60200260200101518152602001336001600160a01b0316815260200185606001516001600160a01b0316815260200185602001515186608001516107c791906138ba565b81526020016000151581526020018560c00151815250905060006107ea82611251565b600081815260386020908152604080832080546001600160a01b039081168552603c845282852060018084018054885291865284872080548083018255908852868820855460079092020180549185166001600160a01b031992831617815583548184015560028087015490820180549187169184169190911790556003808701549082018054918716919093161790915560048086015490820155600580860154908201805460ff191660ff909216151591909117905560068086015491015583549092168652603d8552928520925483549182018455928552929093209091015585519192509082908690869081106108e7576108e761388e565b60200260200101818152505062030d405a10156109065750505061091c565b5050508080610914906138dc565b915050610740565b507fc123571abb841e956264da4696ac135e6e5ac168d2b17cfdf2b1fb4dd1e30ce18160405161094c91906135ba565b60405180910390a1919050565b61096161153c565b61096a81611596565b61097360018055565b50565b600054610100900460ff16158080156109965750600054600160ff909116105b806109b05750303b1580156109b0575060005460ff166001145b6109cc5760405162461bcd60e51b81526004016106e9906138f7565b6000805460ff1916600117905580156109ef576000805461ff0019166101001790555b6109f98383612137565b8015610a3f576000805461ff0019169055604051600181527f7f26b83ff96e1f2b6a682f133852f6798a09c465da95921460cefb38474024989060200160405180910390a15b505050565b610a4c61153c565b606481511115610a5b57600080fd5b6000815167ffffffffffffffff811115610a7757610a776133da565b604051908082528060200260200182016040528015610aa0578160200160208202803683370190505b50905060005b8251811015610b675760366000848381518110610ac557610ac561388e565b60209081029190910181015182528101919091526040016000206005015460ff16610b4557610b0c838281518110610aff57610aff61388e565b6020026020010151611596565b828181518110610b1e57610b1e61388e565b6020026020010151828281518110610b3857610b3861388e565b6020026020010181815250505b62030d405a1015610b5557610b67565b80610b5f816138dc565b915050610aa6565b507f158dd3c50fd0d637d65e59a4fe2a179d6ec485730ab6a010b2329e8f0484c8b881604051610b9791906135ba565b60405180910390a15061097360018055565b6034546001600160a01b031633148015610bcb57506001600160a01b03811615155b6040518060400160405280600381526020016231303160e81b81525090610c055760405162461bcd60e51b81526004016106e9919061385b565b506034546001600160a01b0382811691161461097357603480546001600160a01b0383166001600160a01b031990911617905550565b60345460408051808201909152600381526231303160e81b6020820152906001600160a01b03163314610c815760405162461bcd60e51b81526004016106e9919061385b565b506001600160a01b03919091166000908152603e60205260409020805460ff1916911515919091179055565b6109738161226c565b603d6020528160005260406000208181548110610cd257600080fd5b90600052602060002001600091509150505481565b603a602052826000526040600020602052816000526040600020818154811061061b57600080fd5b60608101516001600160a01b03166000908152603e60209081526040808320548151808301909252600382526233303760e81b928201929092529060ff16610d6a5760405162461bcd60e51b81526004016106e9919061385b565b506000610d7683611251565b600081815260386020908152604080832080546001600160a01b039081168552603c845282852060018084018054885291865284872080548083018255908852868820855460079092020180549185166001600160a01b031992831617815583548184015560028087015490820180549187169184169190911790556003808701549082018054918716919093161790915560048086015490820155600580860154908201805460ff191660ff909216151591909117905560068086015491015592549091168552603d84529184209154825491820183559184529190922001559392505050565b610e6661153c565b60345460408051808201909152600381526231303160e81b6020820152906001600160a01b03163314610eac5760405162461bcd60e51b81526004016106e9919061385b565b5060006001600160a01b038316610f2d5781471015610eca57600080fd5b6040516001600160a01b038516908390600081818185875af1925050503d8060008114610f13576040519150601f19603f3d011682016040523d82523d6000602084013e610f18565b606091505b50508091505080610f2857600080fd5b610fae565b60405163a9059cbb60e01b81526001600160a01b0385811660048301526024820184905284919082169063a9059cbb906044016020604051808303816000875af1158015610f7f573d6000803e3d6000fd5b505050506040513d601f19601f82011682018060405250810190610fa39190613945565b610fac57600080fd5b505b50610a3f60018055565b610fc061153c565b61096a8161233e565b60345460408051808201909152600381526231303160e81b6020820152906001600160a01b0316331461100f5760405162461bcd60e51b81526004016106e9919061385b565b506001600160a01b03919091166000908152603f60205260409020805460ff1916911515919091179055565b603b6020528160005260406000208181548110610cd257600080fd5b6037818154811061067c57600080fd5b61097381612cb7565b60608101516001600160a01b03166000908152603f60209081526040808320548151808301909252600382526233303760e81b928201929092529060ff166110cb5760405162461bcd60e51b81526004016106e9919061385b565b5060006110d783612d7e565b600081815260366020908152604080832080546001600160a01b039081168552603a845282852060018084018054885291865284872080548083018255908852868820855460079092020180549185166001600160a01b031992831617815583548184015560028087015490820180549187169184169190911790556003808701549082018054918716919093161790915560048086015490820155600580860154908201805460ff191660ff909216151591909117905560068086015491015592549091168552603b84529184209154825491820183559184529190922001559392505050565b6034546001600160a01b0316331480156111e157506001600160a01b03811615155b6040518060400160405280600381526020016231303160e81b8152509061121b5760405162461bcd60e51b81526004016106e9919061385b565b506035546001600160a01b0382811691161461097357603580546001600160a01b0383166001600160a01b031990911617905550565b606081015160408051808201909152600381526203130360ec1b60208201526000916001600160a01b03166112995760405162461bcd60e51b81526004016106e9919061385b565b50815160408051808201909152600381526203130360ec1b6020820152906001600160a01b03166112dd5760405162461bcd60e51b81526004016106e9919061385b565b5060008260800151116040518060400160405280600381526020016206660760eb1b815250906113205760405162461bcd60e51b81526004016106e9919061385b565b5060008260c00151116040518060400160405280600381526020016233303960e81b815250906113635760405162461bcd60e51b81526004016106e9919061385b565b5060608201516080830151604051636eb1769f60e11b81523360048201523060248201526001600160a01b0383169063dd62ed3e90604401602060405180830381865afa1580156113b8573d6000803e3d6000fd5b505050506040513d601f19601f820116820180604052508101906113dc9190613962565b10156113e757600080fd5b603380549060006113f7836138dc565b919050555060006114096033546130b2565b84516020860151611419906130b2565b60405160200161142b9392919061397b565b60408051808303601f190181528282528051602091820120600081815260388352928320885181546001600160a01b03199081166001600160a01b03928316178355938a015160018084019190915560028301805460608d01516003860180548916919095161790935560808c0151600485015560a08c015160058501805460ff191691151591909117905560c08c01516006909401939093559316331790556039805492830181559092527fdc16fef70f8d5ddbc01ee3d903d1e69c18a3c7be080eb86a81e0578814ee58d301819055915081907f1101875263abf1b7c3fc9cf51275180975f69f768a3c09e1b453fa0cad6f29b19061152d9087906139c7565b60405180910390a29392505050565b6002600154141561158f5760405162461bcd60e51b815260206004820152601f60248201527f5265656e7472616e637947756172643a207265656e7472616e742063616c6c0060448201526064016106e9565b6002600155565b600081815260366020908152604091829020825160e08101845281546001600160a01b03908116825260018301549382019390935260028201548316938101939093526003810154909116606083015260048101546080830152600581015460ff1615801560a0840181905260069092015460c08401529061161b57508060c0015142105b6040518060400160405280600381526020016219981960e91b815250906116555760405162461bcd60e51b81526004016106e9919061385b565b506000828152603660209081526040808320600501805460ff191660011790558351606080860151835160e08101855286815294850186905292840185905283018490526080830184905260a0830184905260c08301939093526001600160a01b03161515906000821561181a57846060015190506040518060e00160405280336001600160a01b0316815260200186604001516001600160a01b031681526020018660800151815260200186608001518152602001826001600160a01b03166370a08231336040518263ffffffff1660e01b815260040161174691906001600160a01b0391909116815260200190565b602060405180830381865afa158015611763573d6000803e3d6000fd5b505050506040513d601f19601f820116820180604052508101906117879190613962565b8152604051636eb1769f60e11b81523360048201523060248201526020909101906001600160a01b0384169063dd62ed3e90604401602060405180830381865afa1580156117d9573d6000803e3d6000fd5b505050506040513d601f19601f820116820180604052508101906117fd9190613962565b815260200186606001516001600160a01b0316815250915061187a565b6040518060e00160405280336001600160a01b0316815260200186604001516001600160a01b031681526020018660800151815260200186608001518152602001600081526020016000815260200160006001600160a01b031681525091505b84604001516001600160a01b0316846001600160a01b0316636352211e87602001516040518263ffffffff1660e01b81526004016118ba91815260200190565b602060405180830381865afa1580156118d7573d6000803e3d6000fd5b505050506040513d601f19601f820116820180604052508101906118fb9190613a22565b6001600160a01b0316146040518060400160405280600381526020016203330360ec1b8152509061193f5760405162461bcd60e51b81526004016106e9919061385b565b5082156119d15760408083015160a08401518251808401909352600383526233303560e81b602084015210156119885760405162461bcd60e51b81526004016106e9919061385b565b506040808301516080840151825180840190935260038352620ccc0d60ea1b602084015210156119cb5760405162461bcd60e51b81526004016106e9919061385b565b50611a11565b6040808301518151808301909252600382526233303360e81b6020830152341015611a0f5760405162461bcd60e51b81526004016106e9919061385b565b505b602080830151835191870151604051632142170760e11b81526001600160a01b038816936342842e0e93611a49939092600401613a3f565b600060405180830381600087803b158015611a6357600080fd5b505af1158015611a77573d6000803e3d6000fd5b50506035546040805160808101825260008082526020808301829052828401829052606083019190915282518084018452601b81527f4d41524b4554504c4143455f42454e454649545f50455243454e540000000000918101919091529151636d12dce160e01b81526001600160a01b03909316945092508391636d12dce191611b039160040161385b565b602060405180830381865afa158015611b20573d6000803e3d6000fd5b505050506040513d601f19601f82011682018060405250810190611b449190613962565b60408201819052611b575760fa60408201525b604081015115611b9e5761271081604001518560600151611b789190613a63565b611b8291906138ba565b60608201819052604085018051611b9a908390613a82565b9052505b6040516301ffc9a760e01b815263152a902d60e11b60048201526001600160a01b038716906301ffc9a790602401602060405180830381865afa158015611be9573d6000803e3d6000fd5b505050506040513d601f19601f82011682018060405250810190611c0d9190613945565b15611cc45786516020880151606086015160405163152a902d60e11b81526004810192909252602482015260009081906001600160a01b03841690632a55205a906044016040805180830381865afa158015611c6d573d6000803e3d6000fd5b505050506040513d601f19601f82011682018060405250810190611c919190613a99565b602086018190526001600160a01b03821686526040890180519294509092508291611cbd908390613a82565b9052505050505b8415611f3a57835160608501516040516323b872dd60e01b81526001600160a01b038616926323b872dd92611cfe92309190600401613a3f565b6020604051808303816000875af1158015611d1d573d6000803e3d6000fd5b505050506040513d601f19601f82011682018060405250810190611d419190613945565b6040518060400160405280600381526020016219981b60e91b81525090611d7b5760405162461bcd60e51b81526004016106e9919061385b565b5060408088015185820151915163a9059cbb60e01b81526001600160a01b039182166004820152602481019290925284169063a9059cbb906044016020604051808303816000875af1158015611dd5573d6000803e3d6000fd5b505050506040513d601f19601f82011682018060405250810190611df99190613945565b6040518060400160405280600381526020016219981b60e91b81525090611e335760405162461bcd60e51b81526004016106e9919061385b565b5080516001600160a01b031615801590611e51575060008160200151115b15611f35578051602082015160405163a9059cbb60e01b81526001600160a01b0386169263a9059cbb92611e9b926004016001600160a01b03929092168252602082015260400190565b6020604051808303816000875af1158015611eba573d6000803e3d6000fd5b505050506040513d601f19601f82011682018060405250810190611ede9190613945565b6040518060400160405280600381526020016219981b60e91b81525090611f185760405162461bcd60e51b81526004016106e9919061385b565b50611f35816000015188602001518960600151846020015161314f565b6120dd565b60408051808201909152600381526233303360e81b602082015247611f725760405162461bcd60e51b81526004016106e9919061385b565b50600087604001516001600160a01b0316856040015160405160006040518083038185875af1925050503d8060008114611fc8576040519150601f19603f3d011682016040523d82523d6000602084013e611fcd565b606091505b505060408051808201909152600381526219981b60e91b60208201529091508161200a5760405162461bcd60e51b81526004016106e9919061385b565b5081516001600160a01b031615801590612028575060008260200151115b156120db57815160208301516040516001600160a01b0390921691600081818185875af1925050503d806000811461207c576040519150601f19603f3d011682016040523d82523d6000602084013e612081565b606091505b505060408051808201909152600381526219981b60e91b6020820152909150816120be5760405162461bcd60e51b81526004016106e9919061385b565b506120db826000015189602001518a60600151856020015161314f565b505b877fe06095b27616fe3bacd030b307fd111d7774afa5176a7cfd0863f3e8e8904b71603660008b815260200190815260200160002060405161211f9190613ac7565b60405180910390a25050505050505050565b60018055565b600054610100900460ff16158080156121575750600054600160ff909116105b806121715750303b158015612171575060005460ff166001145b61218d5760405162461bcd60e51b81526004016106e9906138f7565b6000805460ff1916600117905580156121b0576000805461ff0019166101001790555b60408051808201909152600381526203130360ec1b60208201526001600160a01b0384166121f15760405162461bcd60e51b81526004016106e9919061385b565b5060408051808201909152600381526203130360ec1b60208201526001600160a01b0383166122335760405162461bcd60e51b81526004016106e9919061385b565b50603480546001600160a01b038086166001600160a01b03199283161790925560358054928516929091169190911790556109f9613236565b600081815260366020908152604091829020600201548251808401909352600383526203330360ec1b918301919091526001600160a01b031633146122c45760405162461bcd60e51b81526004016106e9919061385b565b5060008181526036602052604090206005015460ff16156122e457600080fd5b6000818152603660205260409081902060058101805460ff19166001179055905182917f0f9936e2210c5cb61170d9da568110dc1426511cd2a1ffabe518cb3f12791c32916123339190613ac7565b60405180910390a250565b600081815260386020908152604091829020825160e08101845281546001600160a01b03908116825260018301549382019390935260028201548316938101939093526003810154909116606083015260048101546080830152600581015460ff1615801560a0840181905260069092015460c0840152906123c357508060c0015142105b6040518060400160405280600381526020016219981960e91b815250906123fd5760405162461bcd60e51b81526004016106e9919061385b565b50600082815260386020908152604091829020600501805460ff1916600117905582519083015191516331a9108f60e11b8152909133916001600160a01b03841691636352211e91612456919060040190815260200190565b602060405180830381865afa158015612473573d6000803e3d6000fd5b505050506040513d601f19601f820116820180604052508101906124979190613a22565b6001600160a01b0316146040518060400160405280600381526020016203330360ec1b815250906124db5760405162461bcd60e51b81526004016106e9919061385b565b5060405163e985e9c560e01b81523360048201523060248201526001600160a01b0382169063e985e9c590604401602060405180830381865afa158015612526573d6000803e3d6000fd5b505050506040513d601f19601f8201168201806040525081019061254a9190613945565b6040518060400160405280600381526020016233303160e81b815250906125845760405162461bcd60e51b81526004016106e9919061385b565b50606082015160808301516040808501519051636eb1769f60e11b81526001600160a01b0391821660048201523060248201529083169063dd62ed3e90604401602060405180830381865afa1580156125e1573d6000803e3d6000fd5b505050506040513d601f19601f820116820180604052508101906126059190613962565b101561261057600080fd5b6040805160e08101825284820180516001600160a01b0390811683523360208401526080808801805185870152516060850152915193516370a0823160e01b8152938116600485015260009391830191908516906370a0823190602401602060405180830381865afa15801561268a573d6000803e3d6000fd5b505050506040513d601f19601f820116820180604052508101906126ae9190613962565b81526040808701519051636eb1769f60e11b81526001600160a01b0391821660048201523060248201526020909201919085169063dd62ed3e90604401602060405180830381865afa158015612708573d6000803e3d6000fd5b505050506040513d601f19601f8201168201806040525081019061272c9190613962565b81526060808701516001600160a01b039081166020938401526035546040805160808101825260008082528187018190528183018190529481019490945280518082018252601b81527f4d41524b4554504c4143455f42454e454649545f50455243454e5400000000009581019590955251636d12dce160e01b8152949550169290918391636d12dce1916127c39160040161385b565b602060405180830381865afa1580156127e0573d6000803e3d6000fd5b505050506040513d601f19601f820116820180604052508101906128049190613962565b604082018190526128175760fa60408201525b60408101511561285e57612710816040015184606001516128389190613a63565b61284291906138ba565b6060820181905260408401805161285a908390613a82565b9052505b6040516301ffc9a760e01b815263152a902d60e11b60048201526001600160a01b038616906301ffc9a790602401602060405180830381865afa1580156128a9573d6000803e3d6000fd5b505050506040513d601f19601f820116820180604052508101906128cd9190613945565b156129845785516020870151606085015160405163152a902d60e11b81526004810192909252602482015260009081906001600160a01b03841690632a55205a906044016040805180830381865afa15801561292d573d6000803e3d6000fd5b505050506040513d601f19601f820116820180604052508101906129519190613a99565b602086018190526001600160a01b0382168652604088018051929450909250829161297d908390613a82565b9052505050505b825160608401516040516323b872dd60e01b81526001600160a01b038716926323b872dd926129b892309190600401613a3f565b6020604051808303816000875af11580156129d7573d6000803e3d6000fd5b505050506040513d601f19601f820116820180604052508101906129fb9190613945565b6040518060400160405280600381526020016219981b60e91b81525090612a355760405162461bcd60e51b81526004016106e9919061385b565b506020830151604080850151905163a9059cbb60e01b81526001600160a01b0387169263a9059cbb92612a7e926004016001600160a01b03929092168252602082015260400190565b6020604051808303816000875af1158015612a9d573d6000803e3d6000fd5b505050506040513d601f19601f82011682018060405250810190612ac19190613945565b6040518060400160405280600381526020016219981b60e91b81525090612afb5760405162461bcd60e51b81526004016106e9919061385b565b5080516001600160a01b031615801590612b19575060008160200151115b15612bfd578051602082015160405163a9059cbb60e01b81526001600160a01b0387169263a9059cbb92612b63926004016001600160a01b03929092168252602082015260400190565b6020604051808303816000875af1158015612b82573d6000803e3d6000fd5b505050506040513d601f19601f82011682018060405250810190612ba69190613945565b6040518060400160405280600381526020016219981b60e91b81525090612be05760405162461bcd60e51b81526004016106e9919061385b565b50612bfd816000015187602001518860600151846020015161314f565b602080840151845191880151604051632142170760e11b81526001600160a01b038916936342842e0e93612c35939092600401613a3f565b600060405180830381600087803b158015612c4f57600080fd5b505af1158015612c63573d6000803e3d6000fd5b5050506000888152603860205260409081902090518992507f18f1ceedf8920f811ccf39358c2a2164a50e62c93ad4dafc82e6906cf81dc0a491612ca691613ac7565b60405180910390a250505050505050565b600081815260386020908152604091829020600201548251808401909352600383526203130360ec1b918301919091526001600160a01b03163314612d0f5760405162461bcd60e51b81526004016106e9919061385b565b5060008181526038602052604090206005015460ff1615612d2f57600080fd5b6000818152603860205260409081902060058101805460ff19166001179055905182917fd1e7e193455ba4241e816f1b6fa787b59dad27c1279c69179f6cb4b4387bf543916123339190613ac7565b805160208201516040516331a9108f60e11b815260048101919091526000919033906001600160a01b03831690636352211e90602401602060405180830381865afa158015612dd1573d6000803e3d6000fd5b505050506040513d601f19601f82011682018060405250810190612df59190613a22565b6001600160a01b0316146040518060400160405280600381526020016203330360ec1b81525090612e395760405162461bcd60e51b81526004016106e9919061385b565b5060008360800151116040518060400160405280600381526020016206660760eb1b81525090612e7c5760405162461bcd60e51b81526004016106e9919061385b565b5060008360c00151116040518060400160405280600381526020016233303960e81b81525090612ebf5760405162461bcd60e51b81526004016106e9919061385b565b5060405163e985e9c560e01b81523360048201523060248201526001600160a01b0382169063e985e9c590604401602060405180830381865afa158015612f0a573d6000803e3d6000fd5b505050506040513d601f19601f82011682018060405250810190612f2e9190613945565b60408051808201909152600381526233303160e81b6020820152901515600114612f6b5760405162461bcd60e51b81526004016106e9919061385b565b5060338054906000612f7c836138dc565b91905055506000612f8e6033546130b2565b84516020860151612f9e906130b2565b604051602001612fb09392919061397b565b60408051808303601f190181528282528051602091820120600081815260368352928320885181546001600160a01b03199081166001600160a01b03928316178355938a015160018084019190915560028301805460608d01516003860180548916919095161790935560808c0151600485015560a08c015160058501805460ff191691151591909117905560c08c01516006909401939093559316331790556037805492830181559092527f42a7b7dd785cd69714a189dffb3fd7d7174edc9ece837694ce50f7078f7c31ae01819055915081907f36baa67ff8b95fa14aac46cea75517dc7f57ebebc1b90d48388c8c085f5cbfe39061152d9087906139c7565b606060006130bf83613267565b600101905060008167ffffffffffffffff8111156130df576130df6133da565b6040519080825280601f01601f191660200182016040528015613109576020820181803683370190505b5090508181016020015b600019016f181899199a1a9b1b9c1cb0b131b232b360811b600a86061a8153600a850494508461314257613147565b613113565b509392505050565b6040516301ffc9a760e01b815263676eda1760e01b600482015284906001600160a01b038216906301ffc9a790602401602060405180830381865afa15801561319c573d6000803e3d6000fd5b505050506040513d601f19601f820116820180604052508101906131c09190613945565b1561322f5760405163676eda1760e01b8152600481018590526001600160a01b0384811660248301526044820184905282169063676eda1790606401600060405180830381600087803b15801561321657600080fd5b505af115801561322a573d6000803e3d6000fd5b505050505b5050505050565b600054610100900460ff1661325d5760405162461bcd60e51b81526004016106e990613b23565b613265613340565b565b60008072184f03e93ff9f4daa797ed6e38ed64bf6a1f0160401b83106132a65772184f03e93ff9f4daa797ed6e38ed64bf6a1f0160401b830492506040015b6d04ee2d6d415b85acef810000000083106132d2576d04ee2d6d415b85acef8100000000830492506020015b662386f26fc1000083106132f057662386f26fc10000830492506010015b6305f5e1008310613308576305f5e100830492506008015b612710831061331c57612710830492506004015b6064831061332e576064830492506002015b600a831061333a576001015b92915050565b600054610100900460ff166121315760405162461bcd60e51b81526004016106e990613b23565b6001600160a01b038116811461097357600080fd5b803561338781613367565b919050565b6000806000606084860312156133a157600080fd5b83356133ac81613367565b95602085013595506040909401359392505050565b6000602082840312156133d357600080fd5b5035919050565b634e487b7160e01b600052604160045260246000fd5b60405160e0810167ffffffffffffffff81118282101715613413576134136133da565b60405290565b604051601f8201601f1916810167ffffffffffffffff81118282101715613442576134426133da565b604052919050565b600067ffffffffffffffff821115613464576134646133da565b5060051b60200190565b600082601f83011261347f57600080fd5b8135602061349461348f8361344a565b613419565b82815260059290921b840181019181810190868411156134b357600080fd5b8286015b848110156134ce57803583529183019183016134b7565b509695505050505050565b801515811461097357600080fd5b8035613387816134d9565b60006020828403121561350457600080fd5b813567ffffffffffffffff8082111561351c57600080fd5b9083019060e0828603121561353057600080fd5b6135386133f0565b6135418361337c565b815260208301358281111561355557600080fd5b6135618782860161346e565b6020830152506135736040840161337c565b60408201526135846060840161337c565b60608201526080830135608082015261359f60a084016134e7565b60a082015260c083013560c082015280935050505092915050565b6020808252825182820181905260009190848201906040850190845b818110156135f2578351835292840192918401916001016135d6565b50909695505050505050565b6000806040838503121561361157600080fd5b823561361c81613367565b9150602083013561362c81613367565b809150509250929050565b60006020828403121561364957600080fd5b813561365481613367565b9392505050565b6000602080838503121561366e57600080fd5b823567ffffffffffffffff81111561368557600080fd5b8301601f8101851361369657600080fd5b80356136a461348f8261344a565b81815260059190911b820183019083810190878311156136c357600080fd5b928401925b828410156136e1578335825292840192908401906136c8565b979650505050505050565b600080604083850312156136ff57600080fd5b823561370a81613367565b9150602083013561362c816134d9565b6000806040838503121561372d57600080fd5b823561373881613367565b946020939093013593505050565b600060e0828403121561375857600080fd5b6137606133f0565b9050813561376d81613367565b815260208281013590820152604082013561378781613367565b6040820152606082013561379a81613367565b60608201526080828101359082015260a08201356137b7816134d9565b8060a08301525060c082013560c082015292915050565b600060e082840312156137e057600080fd5b6136548383613746565b6000806000606084860312156137ff57600080fd5b833561380a81613367565b9250602084013561381a81613367565b929592945050506040919091013590565b60005b8381101561384657818101518382015260200161382e565b83811115613855576000848401525b50505050565b602081526000825180602084015261387a81604085016020870161382b565b601f01601f19169190910160400192915050565b634e487b7160e01b600052603260045260246000fd5b634e487b7160e01b600052601160045260246000fd5b6000826138d757634e487b7160e01b600052601260045260246000fd5b500490565b60006000198214156138f0576138f06138a4565b5060010190565b6020808252602e908201527f496e697469616c697a61626c653a20636f6e747261637420697320616c72656160408201526d191e481a5b9a5d1a585b1a5e995960921b606082015260800190565b60006020828403121561395757600080fd5b8151613654816134d9565b60006020828403121561397457600080fd5b5051919050565b6000845161398d81846020890161382b565b606085901b6bffffffffffffffffffffffff191690830190815283516139ba81601484016020880161382b565b0160140195945050505050565b81516001600160a01b03908116825260208084015190830152604080840151821690830152606080840151909116908201526080808301519082015260a08083015115159082015260c0808301519082015260e0810161333a565b600060208284031215613a3457600080fd5b815161365481613367565b6001600160a01b039384168152919092166020820152604081019190915260600190565b6000816000190483118215151615613a7d57613a7d6138a4565b500290565b600082821015613a9457613a946138a4565b500390565b60008060408385031215613aac57600080fd5b8251613ab781613367565b6020939093015192949293505050565b81546001600160a01b03908116825260018301546020830152600283015481166040830152600383015416606082015260048201546080820152600582015460ff16151560a0820152600682015460c082015260e0810161333a565b6020808252602b908201527f496e697469616c697a61626c653a20636f6e7472616374206973206e6f74206960408201526a6e697469616c697a696e6760a81b60608201526080019056fea264697066735822122062454890303206f44cca1b8d118821fb6a977394f43173359a52f0a7189928de64736f6c634300080c0033",
  "linkReferences": {},
  "deployedLinkReferences": {}
}