{
  "_format": "hh-sol-artifact-1",
  "contractName": "AdvanceMarketplaceService",
  "sourceName": "contracts/services/AdvanceMarketplaceService.sol",
  "abi": [
    {
      "anonymous": false,
      "inputs": [
        {
          "indexed": false,
          "internalType": "uint8",
          "name": "version",
          "type": "uint8"
        }
      ],
      "name": "Initialized",
      "type": "event"
    },
    {
      "inputs": [],
      "name": "_admin",
      "outputs": [
        {
          "internalType": "address",
          "name": "",
          "type": "address"
        }
      ],
      "stateMutability": "view",
      "type": "function"
    },
    {
      "inputs": [
        {
          "internalType": "uint256",
          "name": "",
          "type": "uint256"
        }
      ],
      "name": "_arrayOffering",
      "outputs": [
        {
          "internalType": "bytes32",
          "name": "",
          "type": "bytes32"
        }
      ],
      "stateMutability": "view",
      "type": "function"
    },
    {
      "inputs": [
        {
          "internalType": "address",
          "name": "",
          "type": "address"
        },
        {
          "internalType": "uint256",
          "name": "",
          "type": "uint256"
        }
      ],
      "name": "_multiBuyOffering",
      "outputs": [
        {
          "internalType": "address",
          "name": "buyer",
          "type": "address"
        },
        {
          "internalType": "uint256",
          "name": "budget",
          "type": "uint256"
        },
        {
          "internalType": "address",
          "name": "erc20Token",
          "type": "address"
        }
      ],
      "stateMutability": "view",
      "type": "function"
    },
    {
      "inputs": [
        {
          "internalType": "bytes32",
          "name": "",
          "type": "bytes32"
        }
      ],
      "name": "_offeringRegistry",
      "outputs": [
        {
          "internalType": "address",
          "name": "offerer",
          "type": "address"
        },
        {
          "internalType": "address",
          "name": "hostContract",
          "type": "address"
        },
        {
          "internalType": "uint256",
          "name": "tokenId",
          "type": "uint256"
        },
        {
          "internalType": "uint256",
          "name": "price",
          "type": "uint256"
        },
        {
          "internalType": "bool",
          "name": "closed",
          "type": "bool"
        },
        {
          "internalType": "address",
          "name": "erc20Token",
          "type": "address"
        }
      ],
      "stateMutability": "view",
      "type": "function"
    },
    {
      "inputs": [],
      "name": "_parameterAddr",
      "outputs": [
        {
          "internalType": "address",
          "name": "",
          "type": "address"
        }
      ],
      "stateMutability": "view",
      "type": "function"
    },
    {
      "inputs": [],
      "name": "arrayOffering",
      "outputs": [
        {
          "internalType": "bytes32[]",
          "name": "",
          "type": "bytes32[]"
        }
      ],
      "stateMutability": "view",
      "type": "function"
    },
    {
      "inputs": [
        {
          "internalType": "bytes32",
          "name": "_offeringId",
          "type": "bytes32"
        }
      ],
      "name": "cancelListing",
      "outputs": [],
      "stateMutability": "nonpayable",
      "type": "function"
    },
    {
      "inputs": [
        {
          "internalType": "address",
          "name": "erc721",
          "type": "address"
        },
        {
          "internalType": "uint256",
          "name": "tokenId",
          "type": "uint256"
        }
      ],
      "name": "cancelMultiBuyOffering",
      "outputs": [],
      "stateMutability": "nonpayable",
      "type": "function"
    },
    {
      "inputs": [
        {
          "internalType": "address",
          "name": "newAdm",
          "type": "address"
        }
      ],
      "name": "changeAdmin",
      "outputs": [],
      "stateMutability": "nonpayable",
      "type": "function"
    },
    {
      "inputs": [
        {
          "internalType": "address",
          "name": "newAddr",
          "type": "address"
        }
      ],
      "name": "changeParamAddr",
      "outputs": [],
      "stateMutability": "nonpayable",
      "type": "function"
    },
    {
      "inputs": [
        {
          "internalType": "address",
          "name": "admin",
          "type": "address"
        },
        {
          "internalType": "address",
          "name": "parameterControl",
          "type": "address"
        }
      ],
      "name": "initialize",
      "outputs": [],
      "stateMutability": "nonpayable",
      "type": "function"
    },
    {
      "inputs": [
        {
          "internalType": "address",
          "name": "hostContractErc721",
          "type": "address"
        },
        {
          "internalType": "uint256",
          "name": "tokenId",
          "type": "uint256"
        },
        {
          "internalType": "address",
          "name": "erc20Token",
          "type": "address"
        },
        {
          "internalType": "uint256",
          "name": "price",
          "type": "uint256"
        }
      ],
      "name": "listToken",
      "outputs": [
        {
          "internalType": "bytes32",
          "name": "",
          "type": "bytes32"
        }
      ],
      "stateMutability": "nonpayable",
      "type": "function"
    },
    {
      "inputs": [
        {
          "internalType": "bytes32",
          "name": "offeringId",
          "type": "bytes32"
        }
      ],
      "name": "purchaseToken",
      "outputs": [],
      "stateMutability": "payable",
      "type": "function"
    },
    {
      "inputs": [
        {
          "components": [
            {
              "internalType": "address",
              "name": "buyer",
              "type": "address"
            },
            {
              "internalType": "uint256",
              "name": "budget",
              "type": "uint256"
            },
            {
              "internalType": "address",
              "name": "erc20Token",
              "type": "address"
            }
          ],
          "internalType": "struct Marketplace.MultiBuyOffering",
          "name": "offer",
          "type": "tuple"
        },
        {
          "internalType": "address",
          "name": "erc721",
          "type": "address"
        },
        {
          "internalType": "uint256",
          "name": "tokenId",
          "type": "uint256"
        }
      ],
      "name": "setMultiBuyOffering",
      "outputs": [],
      "stateMutability": "payable",
      "type": "function"
    },
    {
      "inputs": [
        {
          "internalType": "address",
          "name": "receiver",
          "type": "address"
        },
        {
          "internalType": "address",
          "name": "erc20Addr",
          "type": "address"
        },
        {
          "internalType": "uint256",
          "name": "amount",
          "type": "uint256"
        }
      ],
      "name": "withdraw",
      "outputs": [],
      "stateMutability": "nonpayable",
      "type": "function"
    }
  ],
  "bytecode": "0x608060405234801561001057600080fd5b506121ac806100206000396000f3fe6080604052600436106100e85760003560e01c80638f2839701161008a578063bda06b3711610059578063bda06b371461033b578063d9caed121461035d578063de9c611b1461037d578063febfd6c31461039d57600080fd5b80638f283970146102c85780639299e552146102e857806395db184e14610308578063a308a9741461031b57600080fd5b80633ac1089a116100c65780633ac1089a146101f7578063485cc9551461020c5780636993dc6a1461022c57806372c035cf146102a857600080fd5b806301bc45c9146100ed578063065ecabf1461012a5780630f924901146101c9575b600080fd5b3480156100f957600080fd5b5060345461010d906001600160a01b031681565b6040516001600160a01b0390911681526020015b60405180910390f35b34801561013657600080fd5b5061018b610145366004611d29565b603660205260009081526040902080546001820154600283015460038401546004909401546001600160a01b03938416949284169391929160ff82169161010090041686565b604080516001600160a01b039788168152958716602087015285019390935260608401919091521515608083015290911660a082015260c001610121565b3480156101d557600080fd5b506101e96101e4366004611d29565b6103bd565b604051908152602001610121565b61020a610205366004611d29565b6103de565b005b34801561021857600080fd5b5061020a610227366004611d67565b6103fc565b34801561023857600080fd5b5061027e610247366004611da0565b60386020908152600092835260408084209091529082529020805460018201546002909201546001600160a01b0391821692911683565b604080516001600160a01b0394851681526020810193909352921691810191909152606001610121565b3480156102b457600080fd5b5060355461010d906001600160a01b031681565b3480156102d457600080fd5b5061020a6102e3366004611dcc565b6104d4565b3480156102f457600080fd5b5061020a610303366004611d29565b610566565b61020a610316366004611e06565b610612565b34801561032757600080fd5b506101e9610336366004611ea7565b610852565b34801561034757600080fd5b50610350610a12565b6040516101219190611eef565b34801561036957600080fd5b5061020a610378366004611f33565b610a6a565b34801561038957600080fd5b5061020a610398366004611da0565b610bc2565b3480156103a957600080fd5b5061020a6103b8366004611dcc565b610dc4565b603781815481106103cd57600080fd5b600091825260209091200154905081565b6103e6610e56565b6103f08133610eb0565b6103f960018055565b50565b600054610100900460ff161580801561041c5750600054600160ff909116105b806104365750303b158015610436575060005460ff166001145b61045b5760405162461bcd60e51b815260040161045290611f74565b60405180910390fd5b6000805460ff19166001179055801561047e576000805461ff0019166101001790555b61048883836116e3565b80156104cf576000805461ff0019169055604051600181527f7f26b83ff96e1f2b6a682f133852f6798a09c465da95921460cefb3847402498906020015b60405180910390a15b505050565b6034546001600160a01b0316331480156104f657506001600160a01b03811615155b6040518060400160405280600381526020016231303160e81b815250906105305760405162461bcd60e51b81526004016104529190611ff2565b506034546001600160a01b038281169116146103f957603480546001600160a01b0383166001600160a01b031990911617905550565b600081815260366020908152604091829020548251808401909352600383526203330360ec1b918301919091526001600160a01b031633146105bb5760405162461bcd60e51b81526004016104529190611ff2565b5060008181526036602052604080822060048101805460ff191660011790555490516001600160a01b039091169183917fee847753f7429cae2eda1655de552711ce889fc0679c05a3026b65f98bc648779190a350565b61061a610e56565b6001600160a01b038083166000908152603860209081526040808320858452825291829020865181549085166001600160a01b0319918216178255918701516001820155918601516002909201805492909316911681179091556106a7576001600160a01b0382166000908152603860209081526040808320848452909152902034600190910155610849565b6040838101516001600160a01b038481166000908152603860209081528482208683529052839020600101549251636eb1769f60e11b81523360048201523060248201529192919083169063dd62ed3e90604401602060405180830381865afa158015610718573d6000803e3d6000fd5b505050506040513d601f19601f8201168201806040525081019061073c9190612025565b10156040518060400160405280600381526020016233303560e81b815250906107785760405162461bcd60e51b81526004016104529190611ff2565b506001600160a01b038381166000908152603860209081526040808320868452909152908190206001015490516323b872dd60e01b8152918316916323b872dd916107c9913391309160040161203e565b6020604051808303816000875af11580156107e8573d6000803e3d6000fd5b505050506040513d601f19601f8201168201806040525081019061080c9190612062565b6040518060400160405280600381526020016219981b60e91b815250906108465760405162461bcd60e51b81526004016104529190611ff2565b50505b6104cf60018055565b600061085c610e56565b600061086a86868686611852565b6001600160a01b0387811660009081526038602090815260408083208a845290915290205491925016156109ff576000818152603660209081526040808320600401546001600160a01b038a81168552603884528285208a865290935292206002015481166101009092041614156109ff576000818152603660209081526040808320600301546001600160a01b038a168452603883528184208985529092529091206001015411156109ff576109218130610eb0565b6000818152603660209081526040808320600101546001600160a01b038a81168552603884528285208a865290935292819020549051632142170760e11b81529282169283926342842e0e9261098292309291909116908b9060040161203e565b600060405180830381600087803b15801561099c57600080fd5b505af11580156109b0573d6000803e3d6000fd5b5050506000838152603660209081526040808320600301546001600160a01b038c168452603883528184208b85529092528220600101805491935091906109f890849061209a565b9091555050505b9050610a0a60018055565b949350505050565b60606037805480602002602001604051908101604052809291908181526020018280548015610a6057602002820191906000526020600020905b815481526020019060010190808311610a4c575b5050505050905090565b610a72610e56565b60345460408051808201909152600381526231303160e81b6020820152906001600160a01b03163314610ab85760405162461bcd60e51b81526004016104529190611ff2565b5060006001600160a01b038316610b395781471015610ad657600080fd5b6040516001600160a01b038516908390600081818185875af1925050503d8060008114610b1f576040519150601f19603f3d011682016040523d82523d6000602084013e610b24565b606091505b50508091505080610b3457600080fd5b610bb8565b60405163a9059cbb60e01b81526001600160a01b0385811660048301526024820184905284919082169063a9059cbb906044016020604051808303816000875af1158015610b8b573d6000803e3d6000fd5b505050506040513d601f19601f82011682018060405250810190610baf9190612062565b61084657600080fd5b506104cf60018055565b610bca610e56565b6001600160a01b038281166000908152603860209081526040808320858452909152902054163314610bfb57600080fd5b6001600160a01b038216600090815260386020908152604080832084845290915290206001015415610db7576001600160a01b03828116600090815260386020908152604080832085845290915290206002015416610cd8576001600160a01b03828116600090815260386020908152604080832085845290915280822080546001909101549151929316918381818185875af1925050503d8060008114610cbf576040519150601f19603f3d011682016040523d82523d6000602084013e610cc4565b606091505b5050905080610cd257600080fd5b50610db7565b6001600160a01b038281166000908152603860209081526040808320858452909152908190206002810154815460019092015492516323b872dd60e01b81529084169384936323b872dd93610d3793309391909116919060040161203e565b6020604051808303816000875af1158015610d56573d6000803e3d6000fd5b505050506040513d601f19601f82011682018060405250810190610d7a9190612062565b6040518060400160405280600381526020016219981b60e91b81525090610db45760405162461bcd60e51b81526004016104529190611ff2565b50505b610dc060018055565b5050565b6034546001600160a01b031633148015610de657506001600160a01b03811615155b6040518060400160405280600381526020016231303160e81b81525090610e205760405162461bcd60e51b81526004016104529190611ff2565b506035546001600160a01b038281169116146103f957603580546001600160a01b0383166001600160a01b031990911617905550565b60026001541415610ea95760405162461bcd60e51b815260206004820152601f60248201527f5265656e7472616e637947756172643a207265656e7472616e742063616c6c006044820152606401610452565b6002600155565b6000828152603660209081526040808320815160c0808201845282546001600160a01b03908116808452600185015482168488018190526002860154858801819052600387015460608088019190915260049097015460ff8116151560808089019190915261010090910490941660a080880182905289519687018a528b87529986018b90529785018a90529584018990529183018890529582019690965290949384939091901515906000821561108d575060a08701516040805160c0810182526001600160a01b03808c168083526060808d0180516020860152518486015293516370a0823160e01b815260048101919091529192830191908416906370a0823190602401602060405180830381865afa158015610fd4573d6000803e3d6000fd5b505050506040513d601f19601f82011682018060405250810190610ff89190612025565b8152604051636eb1769f60e11b81526001600160a01b038c8116600483015230602483015260209092019184169063dd62ed3e90604401602060405180830381865afa15801561104c573d6000803e3d6000fd5b505050506040513d601f19601f820116820180604052508101906110709190612025565b81526020018960a001516001600160a01b031681525091506110da565b6040518060c001604052808a6001600160a01b031681526020018960600151815260200189606001518152602001600081526020016000815260200160006001600160a01b031681525091505b6040516331a9108f60e11b8152600481018690526001600160a01b038086169190881690636352211e90602401602060405180830381865afa158015611124573d6000803e3d6000fd5b505050506040513d601f19601f8201168201806040525081019061114891906120b1565b6001600160a01b0316146040518060400160405280600381526020016203330360ec1b8152509061118c5760405162461bcd60e51b81526004016104529190611ff2565b508215611226578160200151826080015110156040518060400160405280600381526020016233303560e81b815250906111d95760405162461bcd60e51b81526004016104529190611ff2565b50816020015182606001511015604051806040016040528060038152602001620ccc0d60ea1b815250906112205760405162461bcd60e51b81526004016104529190611ff2565b5061126a565b81602001513410156040518060400160405280600381526020016233303360e81b815250906112685760405162461bcd60e51b81526004016104529190611ff2565b505b60008a815260366020908152604091829020600401548251808401909352600383526219981960e91b9183019190915260ff16156112bb5760405162461bcd60e51b81526004016104529190611ff2565b508151604051632142170760e11b81526001600160a01b038816916342842e0e916112ec9130918a9060040161203e565b600060405180830381600087803b15801561130657600080fd5b505af115801561131a573d6000803e3d6000fd5b50506035546040805160808101825260008082526020808301829052828401829052606083019190915282518084018452601b81527f4d41524b4554504c4143455f42454e454649545f50455243454e540000000000918101919091529151636d12dce160e01b81526001600160a01b03909316945092508391636d12dce1916113a691600401611ff2565b602060405180830381865afa1580156113c3573d6000803e3d6000fd5b505050506040513d601f19601f820116820180604052508101906113e79190612025565b604082018190526113fb576109c460408201525b604081015115611442576127108160400151856040015161141c91906120ce565b61142691906120ed565b6060820181905260208501805161143e90839061209a565b9052505b84156115b257835160408086015190516323b872dd60e01b81526001600160a01b038616926323b872dd9261147c9230919060040161203e565b6020604051808303816000875af115801561149b573d6000803e3d6000fd5b505050506040513d601f19601f820116820180604052508101906114bf9190612062565b6040518060400160405280600381526020016219981b60e91b815250906114f95760405162461bcd60e51b81526004016104529190611ff2565b50895160208501516040516323b872dd60e01b81526001600160a01b038616926323b872dd9261152f923092919060040161203e565b6020604051808303816000875af115801561154e573d6000803e3d6000fd5b505050506040513d601f19601f820116820180604052508101906115729190612062565b6040518060400160405280600381526020016219981b60e91b815250906115ac5760405162461bcd60e51b81526004016104529190611ff2565b50611682565b60408051808201909152600381526233303360e81b6020820152476115ea5760405162461bcd60e51b81526004016104529190611ff2565b50895160208501516040516000926001600160a01b031691908381818185875af1925050503d806000811461163b576040519150601f19603f3d011682016040523d82523d6000602084013e611640565b606091505b50509050806040518060400160405280600381526020016219981b60e91b8152509061167f5760405162461bcd60e51b81526004016104529190611ff2565b50505b60008c815260366020526040808220600401805460ff19166001179055855190516001600160a01b03909116918e917f3004f67c11f5aa47210c03ff25c0f48c410d0a417b33292fca39f25ba8d2dddf9190a3505050505050505050505050565b600054610100900460ff16158080156117035750600054600160ff909116105b8061171d5750303b15801561171d575060005460ff166001145b6117395760405162461bcd60e51b815260040161045290611f74565b6000805460ff19166001179055801561175c576000805461ff0019166101001790555b60408051808201909152600381526203130360ec1b60208201526001600160a01b03841661179d5760405162461bcd60e51b81526004016104529190611ff2565b5060408051808201909152600381526203130360ec1b60208201526001600160a01b0383166117df5760405162461bcd60e51b81526004016104529190611ff2565b50603480546001600160a01b038086166001600160a01b031992831617909255603580549285169290911691909117905580156104cf576000805461ff0019169055604051600181527f7f26b83ff96e1f2b6a682f133852f6798a09c465da95921460cefb3847402498906020016104c6565b600061185c610e56565b6040516331a9108f60e11b8152600481018590523390869082906001600160a01b03831690636352211e90602401602060405180830381865afa1580156118a7573d6000803e3d6000fd5b505050506040513d601f19601f820116820180604052508101906118cb91906120b1565b6001600160a01b0316146040518060400160405280600381526020016203330360ec1b8152509061190f5760405162461bcd60e51b81526004016104529190611ff2565b5060405163e985e9c560e01b81526001600160a01b0383811660048301523060248301526000919083169063e985e9c590604401602060405180830381865afa158015611960573d6000803e3d6000fd5b505050506040513d601f19601f820116820180604052508101906119849190612062565b60408051808201909152600381526233303160e81b60208201529091506001821515146119c45760405162461bcd60e51b81526004016104529190611ff2565b50603380549060006119d58361210f565b919050555060006119e7603354611bb3565b896119f18a611bb3565b604051602001611a039392919061212a565b60408051601f19818403018152918152815160209283012060008181526036909352912080546001600160a01b038088166001600160a01b03199283161783556001830180548e8316931692909217909155600282018b90556003909101889055909150871615611aa25760008181526036602052604090206004018054610100600160a81b0319166101006001600160a01b038a1602179055611ac3565b60008181526036602052604090206004018054610100600160a81b03191690555b6040516323b872dd60e01b81526001600160a01b038416906323b872dd90611af390879030908d9060040161203e565b600060405180830381600087803b158015611b0d57600080fd5b505af1158015611b21573d6000803e3d6000fd5b5050603780546001810182556000919091527f42a7b7dd785cd69714a189dffb3fd7d7174edc9ece837694ce50f7078f7c31ae01839055505060408051898152602081018890526001600160a01b0386811692908c169184917fa2c73c734a10dc845099c99c4c34e3db3329eb72b7061d3eafb5ecfb877c593c910160405180910390a49350505050610a0a60018055565b60606000611bc083611c50565b600101905060008167ffffffffffffffff811115611be057611be0611df0565b6040519080825280601f01601f191660200182016040528015611c0a576020820181803683370190505b5090508181016020015b600019016f181899199a1a9b1b9c1cb0b131b232b360811b600a86061a8153600a8504945084611c4357611c48565b611c14565b509392505050565b60008072184f03e93ff9f4daa797ed6e38ed64bf6a1f0160401b8310611c8f5772184f03e93ff9f4daa797ed6e38ed64bf6a1f0160401b830492506040015b6d04ee2d6d415b85acef81000000008310611cbb576d04ee2d6d415b85acef8100000000830492506020015b662386f26fc100008310611cd957662386f26fc10000830492506010015b6305f5e1008310611cf1576305f5e100830492506008015b6127108310611d0557612710830492506004015b60648310611d17576064830492506002015b600a8310611d23576001015b92915050565b600060208284031215611d3b57600080fd5b5035919050565b6001600160a01b03811681146103f957600080fd5b8035611d6281611d42565b919050565b60008060408385031215611d7a57600080fd5b8235611d8581611d42565b91506020830135611d9581611d42565b809150509250929050565b60008060408385031215611db357600080fd5b8235611dbe81611d42565b946020939093013593505050565b600060208284031215611dde57600080fd5b8135611de981611d42565b9392505050565b634e487b7160e01b600052604160045260246000fd5b600080600083850360a0811215611e1c57600080fd5b6060811215611e2a57600080fd5b506040516060810181811067ffffffffffffffff82111715611e5c57634e487b7160e01b600052604160045260246000fd5b6040528435611e6a81611d42565b8152602085810135908201526040850135611e8481611d42565b60408201529250611e9760608501611d57565b9150608084013590509250925092565b60008060008060808587031215611ebd57600080fd5b8435611ec881611d42565b9350602085013592506040850135611edf81611d42565b9396929550929360600135925050565b6020808252825182820181905260009190848201906040850190845b81811015611f2757835183529284019291840191600101611f0b565b50909695505050505050565b600080600060608486031215611f4857600080fd5b8335611f5381611d42565b92506020840135611f6381611d42565b929592945050506040919091013590565b6020808252602e908201527f496e697469616c697a61626c653a20636f6e747261637420697320616c72656160408201526d191e481a5b9a5d1a585b1a5e995960921b606082015260800190565b60005b83811015611fdd578181015183820152602001611fc5565b83811115611fec576000848401525b50505050565b6020815260008251806020840152612011816040850160208701611fc2565b601f01601f19169190910160400192915050565b60006020828403121561203757600080fd5b5051919050565b6001600160a01b039384168152919092166020820152604081019190915260600190565b60006020828403121561207457600080fd5b81518015158114611de957600080fd5b634e487b7160e01b600052601160045260246000fd5b6000828210156120ac576120ac612084565b500390565b6000602082840312156120c357600080fd5b8151611de981611d42565b60008160001904831182151516156120e8576120e8612084565b500290565b60008261210a57634e487b7160e01b600052601260045260246000fd5b500490565b600060001982141561212357612123612084565b5060010190565b6000845161213c818460208901611fc2565b606085901b6bffffffffffffffffffffffff19169083019081528351612169816014840160208801611fc2565b016014019594505050505056fea26469706673582212207b7552024ff690a0a7f5bd903274cf6d40109e4ef02495c783960d59c47506d064736f6c634300080c0033",
  "linkReferences": {},
  "deployedLinkReferences": {}
}