{
  "_format": "hh-sol-artifact-1",
  "contractName": "AdvanceMarketplaceService",
  "sourceName": "contracts/services/AdvanceMarketplaceService.sol",
  "abi": [
    {
      "anonymous": false,
      "inputs": [
        {
          "indexed": false,
          "internalType": "uint8",
          "name": "version",
          "type": "uint8"
        }
      ],
      "name": "Initialized",
      "type": "event"
    },
    {
      "inputs": [],
      "name": "_admin",
      "outputs": [
        {
          "internalType": "address",
          "name": "",
          "type": "address"
        }
      ],
      "stateMutability": "view",
      "type": "function"
    },
    {
      "inputs": [
        {
          "internalType": "uint256",
          "name": "",
          "type": "uint256"
        }
      ],
      "name": "_arrayOffering",
      "outputs": [
        {
          "internalType": "bytes32",
          "name": "",
          "type": "bytes32"
        }
      ],
      "stateMutability": "view",
      "type": "function"
    },
    {
      "inputs": [
        {
          "internalType": "address",
          "name": "",
          "type": "address"
        },
        {
          "internalType": "uint256",
          "name": "",
          "type": "uint256"
        }
      ],
      "name": "_multiBuyOffering",
      "outputs": [
        {
          "internalType": "address",
          "name": "_buyer",
          "type": "address"
        },
        {
          "internalType": "uint256",
          "name": "_budget",
          "type": "uint256"
        },
        {
          "internalType": "address",
          "name": "_erc20Token",
          "type": "address"
        },
        {
          "internalType": "uint256",
          "name": "_durationTime",
          "type": "uint256"
        }
      ],
      "stateMutability": "view",
      "type": "function"
    },
    {
      "inputs": [
        {
          "internalType": "bytes32",
          "name": "",
          "type": "bytes32"
        }
      ],
      "name": "_offeringRegistry",
      "outputs": [
        {
          "internalType": "address",
          "name": "offerer",
          "type": "address"
        },
        {
          "internalType": "address",
          "name": "hostContract",
          "type": "address"
        },
        {
          "internalType": "uint256",
          "name": "tokenId",
          "type": "uint256"
        },
        {
          "internalType": "uint256",
          "name": "price",
          "type": "uint256"
        },
        {
          "internalType": "bool",
          "name": "closed",
          "type": "bool"
        },
        {
          "internalType": "address",
          "name": "erc20Token",
          "type": "address"
        }
      ],
      "stateMutability": "view",
      "type": "function"
    },
    {
      "inputs": [],
      "name": "_parameterAddr",
      "outputs": [
        {
          "internalType": "address",
          "name": "",
          "type": "address"
        }
      ],
      "stateMutability": "view",
      "type": "function"
    },
    {
      "inputs": [],
      "name": "arrayOffering",
      "outputs": [
        {
          "internalType": "bytes32[]",
          "name": "",
          "type": "bytes32[]"
        }
      ],
      "stateMutability": "view",
      "type": "function"
    },
    {
      "inputs": [
        {
          "internalType": "bytes32",
          "name": "_offeringId",
          "type": "bytes32"
        }
      ],
      "name": "cancelListing",
      "outputs": [],
      "stateMutability": "nonpayable",
      "type": "function"
    },
    {
      "inputs": [
        {
          "internalType": "address",
          "name": "erc721",
          "type": "address"
        },
        {
          "internalType": "uint256",
          "name": "tokenId",
          "type": "uint256"
        }
      ],
      "name": "cancelMultiBuyOffering",
      "outputs": [],
      "stateMutability": "nonpayable",
      "type": "function"
    },
    {
      "inputs": [
        {
          "internalType": "address",
          "name": "newAdm",
          "type": "address"
        }
      ],
      "name": "changeAdmin",
      "outputs": [],
      "stateMutability": "nonpayable",
      "type": "function"
    },
    {
      "inputs": [
        {
          "internalType": "address",
          "name": "newAddr",
          "type": "address"
        }
      ],
      "name": "changeParamAddr",
      "outputs": [],
      "stateMutability": "nonpayable",
      "type": "function"
    },
    {
      "inputs": [
        {
          "internalType": "address",
          "name": "admin",
          "type": "address"
        },
        {
          "internalType": "address",
          "name": "parameterControl",
          "type": "address"
        }
      ],
      "name": "initialize",
      "outputs": [],
      "stateMutability": "nonpayable",
      "type": "function"
    },
    {
      "inputs": [
        {
          "internalType": "address",
          "name": "hostContractErc721",
          "type": "address"
        },
        {
          "internalType": "uint256",
          "name": "tokenId",
          "type": "uint256"
        },
        {
          "internalType": "address",
          "name": "erc20Token",
          "type": "address"
        },
        {
          "internalType": "uint256",
          "name": "price",
          "type": "uint256"
        }
      ],
      "name": "listToken",
      "outputs": [
        {
          "internalType": "bytes32",
          "name": "",
          "type": "bytes32"
        }
      ],
      "stateMutability": "nonpayable",
      "type": "function"
    },
    {
      "inputs": [
        {
          "components": [
            {
              "internalType": "address",
              "name": "_buyer",
              "type": "address"
            },
            {
              "internalType": "uint256",
              "name": "_budget",
              "type": "uint256"
            },
            {
              "internalType": "address",
              "name": "_erc20Token",
              "type": "address"
            },
            {
              "internalType": "uint256",
              "name": "_durationTime",
              "type": "uint256"
            }
          ],
          "internalType": "struct Marketplace.MultiBuyOffering",
          "name": "offer",
          "type": "tuple"
        },
        {
          "internalType": "address",
          "name": "erc721",
          "type": "address"
        },
        {
          "internalType": "uint256",
          "name": "tokenId",
          "type": "uint256"
        }
      ],
      "name": "makeMultiBuyOffering",
      "outputs": [],
      "stateMutability": "payable",
      "type": "function"
    },
    {
      "inputs": [
        {
          "internalType": "bytes32",
          "name": "offeringId",
          "type": "bytes32"
        }
      ],
      "name": "purchaseToken",
      "outputs": [],
      "stateMutability": "payable",
      "type": "function"
    },
    {
      "inputs": [
        {
          "internalType": "address",
          "name": "receiver",
          "type": "address"
        },
        {
          "internalType": "address",
          "name": "erc20Addr",
          "type": "address"
        },
        {
          "internalType": "uint256",
          "name": "amount",
          "type": "uint256"
        }
      ],
      "name": "withdraw",
      "outputs": [],
      "stateMutability": "nonpayable",
      "type": "function"
    }
  ],
  "bytecode": "0x608060405234801561001057600080fd5b5061226c806100206000396000f3fe6080604052600436106100e85760003560e01c80638f2839701161008a578063c328443b11610059578063c328443b1461035e578063d9caed1214610371578063de9c611b14610391578063febfd6c3146103b157600080fd5b80638f283970146102dc5780639299e552146102fc578063a308a9741461031c578063bda06b371461033c57600080fd5b80633ac1089a116100c65780633ac1089a146101f7578063485cc9551461020c5780636993dc6a1461022c57806372c035cf146102bc57600080fd5b806301bc45c9146100ed578063065ecabf1461012a5780630f924901146101c9575b600080fd5b3480156100f957600080fd5b5060345461010d906001600160a01b031681565b6040516001600160a01b0390911681526020015b60405180910390f35b34801561013657600080fd5b5061018b610145366004611de3565b603660205260009081526040902080546001820154600283015460038401546004909401546001600160a01b03938416949284169391929160ff82169161010090041686565b604080516001600160a01b039788168152958716602087015285019390935260608401919091521515608083015290911660a082015260c001610121565b3480156101d557600080fd5b506101e96101e4366004611de3565b6103d1565b604051908152602001610121565b61020a610205366004611de3565b6103f2565b005b34801561021857600080fd5b5061020a610227366004611e21565b610410565b34801561023857600080fd5b50610287610247366004611e5a565b603860209081526000928352604080842090915290825290208054600182015460028301546003909301546001600160a01b039283169391929091169084565b60405161012194939291906001600160a01b039485168152602081019390935292166040820152606081019190915260800190565b3480156102c857600080fd5b5060355461010d906001600160a01b031681565b3480156102e857600080fd5b5061020a6102f7366004611e86565b6104e8565b34801561030857600080fd5b5061020a610317366004611de3565b61057a565b34801561032857600080fd5b506101e9610337366004611eaa565b6106c2565b34801561034857600080fd5b50610351610882565b6040516101219190611ef2565b61020a61036c366004611f4c565b6108da565b34801561037d57600080fd5b5061020a61038c366004611ff3565b610b24565b34801561039d57600080fd5b5061020a6103ac366004611e5a565b610c7c565b3480156103bd57600080fd5b5061020a6103cc366004611e86565b610e7e565b603781815481106103e157600080fd5b600091825260209091200154905081565b6103fa610f10565b6104048133610f6a565b61040d60018055565b50565b600054610100900460ff16158080156104305750600054600160ff909116105b8061044a5750303b15801561044a575060005460ff166001145b61046f5760405162461bcd60e51b815260040161046690612034565b60405180910390fd5b6000805460ff191660011790558015610492576000805461ff0019166101001790555b61049c838361179d565b80156104e3576000805461ff0019169055604051600181527f7f26b83ff96e1f2b6a682f133852f6798a09c465da95921460cefb3847402498906020015b60405180910390a15b505050565b6034546001600160a01b03163314801561050a57506001600160a01b03811615155b6040518060400160405280600381526020016231303160e81b815250906105445760405162461bcd60e51b815260040161046691906120b2565b506034546001600160a01b0382811691161461040d57603480546001600160a01b0383166001600160a01b031990911617905550565b600081815260366020908152604091829020548251808401909352600383526203330360ec1b918301919091526001600160a01b031633146105cf5760405162461bcd60e51b815260040161046691906120b2565b5060008181526036602052604090206004015460ff16156105ef57600080fd5b6000818152603660205260409081902060018101546002909101549151632142170760e11b81526001600160a01b039091169182916342842e0e9161063a91309133916004016120e5565b600060405180830381600087803b15801561065457600080fd5b505af1158015610668573d6000803e3d6000fd5b50505060008381526036602052604080822060048101805460ff191660011790555490516001600160a01b03909116925084917fee847753f7429cae2eda1655de552711ce889fc0679c05a3026b65f98bc6487791a35050565b60006106cc610f10565b60006106da8686868661190c565b6001600160a01b0387811660009081526038602090815260408083208a8452909152902054919250161561086f576000818152603660209081526040808320600401546001600160a01b038a81168552603884528285208a8652909352922060020154811661010090920416141561086f576000818152603660209081526040808320600301546001600160a01b038a1684526038835281842089855290925290912060010154111561086f576107918130610f6a565b6000818152603660209081526040808320600101546001600160a01b038a81168552603884528285208a865290935292819020549051632142170760e11b81529282169283926342842e0e926107f292309291909116908b906004016120e5565b600060405180830381600087803b15801561080c57600080fd5b505af1158015610820573d6000803e3d6000fd5b5050506000838152603660209081526040808320600301546001600160a01b038c168452603883528184208b855290925282206001018054919350919061086890849061211f565b9091555050505b905061087a60018055565b949350505050565b606060378054806020026020016040519081016040528092919081815260200182805480156108d057602002820191906000526020600020905b8154815260200190600101908083116108bc575b5050505050905090565b6108e2610f10565b6001600160a01b038083166000908152603860209081526040808320858452825291829020865181549085166001600160a01b03199182161782559187015160018201559186015160028301805491909416911681179092556060850151600390910155610979576001600160a01b0382166000908152603860209081526040808320848452909152902034600190910155610b1b565b6040838101516001600160a01b038481166000908152603860209081528482208683529052839020600101549251636eb1769f60e11b81523360048201523060248201529192919083169063dd62ed3e90604401602060405180830381865afa1580156109ea573d6000803e3d6000fd5b505050506040513d601f19601f82011682018060405250810190610a0e9190612136565b10156040518060400160405280600381526020016233303560e81b81525090610a4a5760405162461bcd60e51b815260040161046691906120b2565b506001600160a01b038381166000908152603860209081526040808320868452909152908190206001015490516323b872dd60e01b8152918316916323b872dd91610a9b91339130916004016120e5565b6020604051808303816000875af1158015610aba573d6000803e3d6000fd5b505050506040513d601f19601f82011682018060405250810190610ade919061214f565b6040518060400160405280600381526020016219981b60e91b81525090610b185760405162461bcd60e51b815260040161046691906120b2565b50505b6104e360018055565b610b2c610f10565b60345460408051808201909152600381526231303160e81b6020820152906001600160a01b03163314610b725760405162461bcd60e51b815260040161046691906120b2565b5060006001600160a01b038316610bf35781471015610b9057600080fd5b6040516001600160a01b038516908390600081818185875af1925050503d8060008114610bd9576040519150601f19603f3d011682016040523d82523d6000602084013e610bde565b606091505b50508091505080610bee57600080fd5b610c72565b60405163a9059cbb60e01b81526001600160a01b0385811660048301526024820184905284919082169063a9059cbb906044016020604051808303816000875af1158015610c45573d6000803e3d6000fd5b505050506040513d601f19601f82011682018060405250810190610c69919061214f565b610b1857600080fd5b506104e360018055565b610c84610f10565b6001600160a01b038281166000908152603860209081526040808320858452909152902054163314610cb557600080fd5b6001600160a01b038216600090815260386020908152604080832084845290915290206001015415610e71576001600160a01b03828116600090815260386020908152604080832085845290915290206002015416610d92576001600160a01b03828116600090815260386020908152604080832085845290915280822080546001909101549151929316918381818185875af1925050503d8060008114610d79576040519150601f19603f3d011682016040523d82523d6000602084013e610d7e565b606091505b5050905080610d8c57600080fd5b50610e71565b6001600160a01b038281166000908152603860209081526040808320858452909152908190206002810154815460019092015492516323b872dd60e01b81529084169384936323b872dd93610df19330939190911691906004016120e5565b6020604051808303816000875af1158015610e10573d6000803e3d6000fd5b505050506040513d601f19601f82011682018060405250810190610e34919061214f565b6040518060400160405280600381526020016219981b60e91b81525090610e6e5760405162461bcd60e51b815260040161046691906120b2565b50505b610e7a60018055565b5050565b6034546001600160a01b031633148015610ea057506001600160a01b03811615155b6040518060400160405280600381526020016231303160e81b81525090610eda5760405162461bcd60e51b815260040161046691906120b2565b506035546001600160a01b0382811691161461040d57603580546001600160a01b0383166001600160a01b031990911617905550565b60026001541415610f635760405162461bcd60e51b815260206004820152601f60248201527f5265656e7472616e637947756172643a207265656e7472616e742063616c6c006044820152606401610466565b6002600155565b6000828152603660209081526040808320815160c0808201845282546001600160a01b03908116808452600185015482168488018190526002860154858801819052600387015460608088019190915260049097015460ff8116151560808089019190915261010090910490941660a080880182905289519687018a528b87529986018b90529785018a905295840189905291830188905295820196909652909493849390919015159060008215611147575060a08701516040805160c0810182526001600160a01b03808c168083526060808d0180516020860152518486015293516370a0823160e01b815260048101919091529192830191908416906370a0823190602401602060405180830381865afa15801561108e573d6000803e3d6000fd5b505050506040513d601f19601f820116820180604052508101906110b29190612136565b8152604051636eb1769f60e11b81526001600160a01b038c8116600483015230602483015260209092019184169063dd62ed3e90604401602060405180830381865afa158015611106573d6000803e3d6000fd5b505050506040513d601f19601f8201168201806040525081019061112a9190612136565b81526020018960a001516001600160a01b03168152509150611194565b6040518060c001604052808a6001600160a01b031681526020018960600151815260200189606001518152602001600081526020016000815260200160006001600160a01b031681525091505b6040516331a9108f60e11b8152600481018690526001600160a01b038086169190881690636352211e90602401602060405180830381865afa1580156111de573d6000803e3d6000fd5b505050506040513d601f19601f820116820180604052508101906112029190612171565b6001600160a01b0316146040518060400160405280600381526020016203330360ec1b815250906112465760405162461bcd60e51b815260040161046691906120b2565b5082156112e0578160200151826080015110156040518060400160405280600381526020016233303560e81b815250906112935760405162461bcd60e51b815260040161046691906120b2565b50816020015182606001511015604051806040016040528060038152602001620ccc0d60ea1b815250906112da5760405162461bcd60e51b815260040161046691906120b2565b50611324565b81602001513410156040518060400160405280600381526020016233303360e81b815250906113225760405162461bcd60e51b815260040161046691906120b2565b505b60008a815260366020908152604091829020600401548251808401909352600383526219981960e91b9183019190915260ff16156113755760405162461bcd60e51b815260040161046691906120b2565b508151604051632142170760e11b81526001600160a01b038816916342842e0e916113a69130918a906004016120e5565b600060405180830381600087803b1580156113c057600080fd5b505af11580156113d4573d6000803e3d6000fd5b50506035546040805160808101825260008082526020808301829052828401829052606083019190915282518084018452601b81527f4d41524b4554504c4143455f42454e454649545f50455243454e540000000000918101919091529151636d12dce160e01b81526001600160a01b03909316945092508391636d12dce191611460916004016120b2565b602060405180830381865afa15801561147d573d6000803e3d6000fd5b505050506040513d601f19601f820116820180604052508101906114a19190612136565b604082018190526114b5576109c460408201525b6040810151156114fc57612710816040015185604001516114d6919061218e565b6114e091906121ad565b606082018190526020850180516114f890839061211f565b9052505b841561166c57835160408086015190516323b872dd60e01b81526001600160a01b038616926323b872dd92611536923091906004016120e5565b6020604051808303816000875af1158015611555573d6000803e3d6000fd5b505050506040513d601f19601f82011682018060405250810190611579919061214f565b6040518060400160405280600381526020016219981b60e91b815250906115b35760405162461bcd60e51b815260040161046691906120b2565b50895160208501516040516323b872dd60e01b81526001600160a01b038616926323b872dd926115e992309291906004016120e5565b6020604051808303816000875af1158015611608573d6000803e3d6000fd5b505050506040513d601f19601f8201168201806040525081019061162c919061214f565b6040518060400160405280600381526020016219981b60e91b815250906116665760405162461bcd60e51b815260040161046691906120b2565b5061173c565b60408051808201909152600381526233303360e81b6020820152476116a45760405162461bcd60e51b815260040161046691906120b2565b50895160208501516040516000926001600160a01b031691908381818185875af1925050503d80600081146116f5576040519150601f19603f3d011682016040523d82523d6000602084013e6116fa565b606091505b50509050806040518060400160405280600381526020016219981b60e91b815250906117395760405162461bcd60e51b815260040161046691906120b2565b50505b60008c815260366020526040808220600401805460ff19166001179055855190516001600160a01b03909116918e917f3004f67c11f5aa47210c03ff25c0f48c410d0a417b33292fca39f25ba8d2dddf9190a3505050505050505050505050565b600054610100900460ff16158080156117bd5750600054600160ff909116105b806117d75750303b1580156117d7575060005460ff166001145b6117f35760405162461bcd60e51b815260040161046690612034565b6000805460ff191660011790558015611816576000805461ff0019166101001790555b60408051808201909152600381526203130360ec1b60208201526001600160a01b0384166118575760405162461bcd60e51b815260040161046691906120b2565b5060408051808201909152600381526203130360ec1b60208201526001600160a01b0383166118995760405162461bcd60e51b815260040161046691906120b2565b50603480546001600160a01b038086166001600160a01b031992831617909255603580549285169290911691909117905580156104e3576000805461ff0019169055604051600181527f7f26b83ff96e1f2b6a682f133852f6798a09c465da95921460cefb3847402498906020016104da565b6000611916610f10565b6040516331a9108f60e11b8152600481018590523390869082906001600160a01b03831690636352211e90602401602060405180830381865afa158015611961573d6000803e3d6000fd5b505050506040513d601f19601f820116820180604052508101906119859190612171565b6001600160a01b0316146040518060400160405280600381526020016203330360ec1b815250906119c95760405162461bcd60e51b815260040161046691906120b2565b5060405163e985e9c560e01b81526001600160a01b0383811660048301523060248301526000919083169063e985e9c590604401602060405180830381865afa158015611a1a573d6000803e3d6000fd5b505050506040513d601f19601f82011682018060405250810190611a3e919061214f565b60408051808201909152600381526233303160e81b6020820152909150600182151514611a7e5760405162461bcd60e51b815260040161046691906120b2565b5060338054906000611a8f836121cf565b91905055506000611aa1603354611c6d565b89611aab8a611c6d565b604051602001611abd939291906121ea565b60408051601f19818403018152918152815160209283012060008181526036909352912080546001600160a01b038088166001600160a01b03199283161783556001830180548e8316931692909217909155600282018b90556003909101889055909150871615611b5c5760008181526036602052604090206004018054610100600160a81b0319166101006001600160a01b038a1602179055611b7d565b60008181526036602052604090206004018054610100600160a81b03191690555b6040516323b872dd60e01b81526001600160a01b038416906323b872dd90611bad90879030908d906004016120e5565b600060405180830381600087803b158015611bc757600080fd5b505af1158015611bdb573d6000803e3d6000fd5b5050603780546001810182556000919091527f42a7b7dd785cd69714a189dffb3fd7d7174edc9ece837694ce50f7078f7c31ae01839055505060408051898152602081018890526001600160a01b0386811692908c169184917fa2c73c734a10dc845099c99c4c34e3db3329eb72b7061d3eafb5ecfb877c593c910160405180910390a4935050505061087a60018055565b60606000611c7a83611d0a565b600101905060008167ffffffffffffffff811115611c9a57611c9a611f36565b6040519080825280601f01601f191660200182016040528015611cc4576020820181803683370190505b5090508181016020015b600019016f181899199a1a9b1b9c1cb0b131b232b360811b600a86061a8153600a8504945084611cfd57611d02565b611cce565b509392505050565b60008072184f03e93ff9f4daa797ed6e38ed64bf6a1f0160401b8310611d495772184f03e93ff9f4daa797ed6e38ed64bf6a1f0160401b830492506040015b6d04ee2d6d415b85acef81000000008310611d75576d04ee2d6d415b85acef8100000000830492506020015b662386f26fc100008310611d9357662386f26fc10000830492506010015b6305f5e1008310611dab576305f5e100830492506008015b6127108310611dbf57612710830492506004015b60648310611dd1576064830492506002015b600a8310611ddd576001015b92915050565b600060208284031215611df557600080fd5b5035919050565b6001600160a01b038116811461040d57600080fd5b8035611e1c81611dfc565b919050565b60008060408385031215611e3457600080fd5b8235611e3f81611dfc565b91506020830135611e4f81611dfc565b809150509250929050565b60008060408385031215611e6d57600080fd5b8235611e7881611dfc565b946020939093013593505050565b600060208284031215611e9857600080fd5b8135611ea381611dfc565b9392505050565b60008060008060808587031215611ec057600080fd5b8435611ecb81611dfc565b9350602085013592506040850135611ee281611dfc565b9396929550929360600135925050565b6020808252825182820181905260009190848201906040850190845b81811015611f2a57835183529284019291840191600101611f0e565b50909695505050505050565b634e487b7160e01b600052604160045260246000fd5b600080600083850360c0811215611f6257600080fd5b6080811215611f7057600080fd5b506040516080810181811067ffffffffffffffff82111715611fa257634e487b7160e01b600052604160045260246000fd5b604052611fae85611e11565b815260208501356020820152611fc660408601611e11565b6040820152606085810135908201529250611fe360808501611e11565b915060a084013590509250925092565b60008060006060848603121561200857600080fd5b833561201381611dfc565b9250602084013561202381611dfc565b929592945050506040919091013590565b6020808252602e908201527f496e697469616c697a61626c653a20636f6e747261637420697320616c72656160408201526d191e481a5b9a5d1a585b1a5e995960921b606082015260800190565b60005b8381101561209d578181015183820152602001612085565b838111156120ac576000848401525b50505050565b60208152600082518060208401526120d1816040850160208701612082565b601f01601f19169190910160400192915050565b6001600160a01b039384168152919092166020820152604081019190915260600190565b634e487b7160e01b600052601160045260246000fd5b60008282101561213157612131612109565b500390565b60006020828403121561214857600080fd5b5051919050565b60006020828403121561216157600080fd5b81518015158114611ea357600080fd5b60006020828403121561218357600080fd5b8151611ea381611dfc565b60008160001904831182151516156121a8576121a8612109565b500290565b6000826121ca57634e487b7160e01b600052601260045260246000fd5b500490565b60006000198214156121e3576121e3612109565b5060010190565b600084516121fc818460208901612082565b606085901b6bffffffffffffffffffffffff19169083019081528351612229816014840160208801612082565b016014019594505050505056fea264697066735822122031ba6d44808db4caa0942b7699d878855fc4182398f1f3ed2b02dc437ae4557464736f6c634300080c0033",
  "linkReferences": {},
  "deployedLinkReferences": {}
}