{
  "_format": "hh-sol-artifact-1",
  "contractName": "Errors",
  "sourceName": "contracts/libs/helpers/Errors.sol",
  "abi": [
    {
      "inputs": [],
      "name": "DAO_VESTING_ERROR_ADDR",
      "outputs": [
        {
          "internalType": "string",
          "name": "",
          "type": "string"
        }
      ],
      "stateMutability": "view",
      "type": "function"
    },
    {
      "inputs": [],
      "name": "ERC20_BALANCE_INVALID",
      "outputs": [
        {
          "internalType": "string",
          "name": "",
          "type": "string"
        }
      ],
      "stateMutability": "view",
      "type": "function"
    },
    {
      "inputs": [],
      "name": "ERC20_NOT_APPROVED",
      "outputs": [
        {
          "internalType": "string",
          "name": "",
          "type": "string"
        }
      ],
      "stateMutability": "view",
      "type": "function"
    },
    {
      "inputs": [],
      "name": "ERC_20_NOT_ALLOW",
      "outputs": [
        {
          "internalType": "string",
          "name": "",
          "type": "string"
        }
      ],
      "stateMutability": "view",
      "type": "function"
    },
    {
      "inputs": [],
      "name": "ERC_721_NOT_APPROVED",
      "outputs": [
        {
          "internalType": "string",
          "name": "",
          "type": "string"
        }
      ],
      "stateMutability": "view",
      "type": "function"
    },
    {
      "inputs": [],
      "name": "FORBIDDEN_TRANSFER_PROJECT",
      "outputs": [
        {
          "internalType": "string",
          "name": "",
          "type": "string"
        }
      ],
      "stateMutability": "view",
      "type": "function"
    },
    {
      "inputs": [],
      "name": "INVALID_ERC721_OWNER",
      "outputs": [
        {
          "internalType": "string",
          "name": "",
          "type": "string"
        }
      ],
      "stateMutability": "view",
      "type": "function"
    },
    {
      "inputs": [],
      "name": "INV_ADD",
      "outputs": [
        {
          "internalType": "string",
          "name": "",
          "type": "string"
        }
      ],
      "stateMutability": "view",
      "type": "function"
    },
    {
      "inputs": [],
      "name": "INV_FEE_PROJECT",
      "outputs": [
        {
          "internalType": "string",
          "name": "",
          "type": "string"
        }
      ],
      "stateMutability": "view",
      "type": "function"
    },
    {
      "inputs": [],
      "name": "INV_PARAMS",
      "outputs": [
        {
          "internalType": "string",
          "name": "",
          "type": "string"
        }
      ],
      "stateMutability": "view",
      "type": "function"
    },
    {
      "inputs": [],
      "name": "INV_PROJECT",
      "outputs": [
        {
          "internalType": "string",
          "name": "",
          "type": "string"
        }
      ],
      "stateMutability": "view",
      "type": "function"
    },
    {
      "inputs": [],
      "name": "INV_TOKEN",
      "outputs": [
        {
          "internalType": "string",
          "name": "",
          "type": "string"
        }
      ],
      "stateMutability": "view",
      "type": "function"
    },
    {
      "inputs": [],
      "name": "MISSING_NAME",
      "outputs": [
        {
          "internalType": "string",
          "name": "",
          "type": "string"
        }
      ],
      "stateMutability": "view",
      "type": "function"
    },
    {
      "inputs": [],
      "name": "OFFERING_CLOSED",
      "outputs": [
        {
          "internalType": "string",
          "name": "",
          "type": "string"
        }
      ],
      "stateMutability": "view",
      "type": "function"
    },
    {
      "inputs": [],
      "name": "ONLY_ADMIN_ALLOWED",
      "outputs": [
        {
          "internalType": "string",
          "name": "",
          "type": "string"
        }
      ],
      "stateMutability": "view",
      "type": "function"
    },
    {
      "inputs": [],
      "name": "ONLY_CREATOR",
      "outputs": [
        {
          "internalType": "string",
          "name": "",
          "type": "string"
        }
      ],
      "stateMutability": "view",
      "type": "function"
    },
    {
      "inputs": [],
      "name": "OPENING_SCHEDULE",
      "outputs": [
        {
          "internalType": "string",
          "name": "",
          "type": "string"
        }
      ],
      "stateMutability": "view",
      "type": "function"
    },
    {
      "inputs": [],
      "name": "POA_INVALID_TOKEN",
      "outputs": [
        {
          "internalType": "string",
          "name": "",
          "type": "string"
        }
      ],
      "stateMutability": "view",
      "type": "function"
    },
    {
      "inputs": [],
      "name": "REACH_MAX",
      "outputs": [
        {
          "internalType": "string",
          "name": "",
          "type": "string"
        }
      ],
      "stateMutability": "view",
      "type": "function"
    },
    {
      "inputs": [],
      "name": "SUCCESS",
      "outputs": [
        {
          "internalType": "string",
          "name": "",
          "type": "string"
        }
      ],
      "stateMutability": "view",
      "type": "function"
    },
    {
      "inputs": [],
      "name": "TEAM_VESTING_ERROR_ADDR",
      "outputs": [
        {
          "internalType": "string",
          "name": "",
          "type": "string"
        }
      ],
      "stateMutability": "view",
      "type": "function"
    },
    {
      "inputs": [],
      "name": "TOKEN_HAS_SEED",
      "outputs": [
        {
          "internalType": "string",
          "name": "",
          "type": "string"
        }
      ],
      "stateMutability": "view",
      "type": "function"
    },
    {
      "inputs": [],
      "name": "TOO_HIGH",
      "outputs": [
        {
          "internalType": "string",
          "name": "",
          "type": "string"
        }
      ],
      "stateMutability": "view",
      "type": "function"
    },
    {
      "inputs": [],
      "name": "TRANSFER_FAIL",
      "outputs": [
        {
          "internalType": "string",
          "name": "",
          "type": "string"
        }
      ],
      "stateMutability": "view",
      "type": "function"
    },
    {
      "inputs": [],
      "name": "VALUE_INVALID",
      "outputs": [
        {
          "internalType": "string",
          "name": "",
          "type": "string"
        }
      ],
      "stateMutability": "view",
      "type": "function"
    },
    {
      "inputs": [],
      "name": "VESTING_REMAIN",
      "outputs": [
        {
          "internalType": "string",
          "name": "",
          "type": "string"
        }
      ],
      "stateMutability": "view",
      "type": "function"
    },
    {
      "inputs": [],
      "name": "VESTING_TIME_LOCK",
      "outputs": [
        {
          "internalType": "string",
          "name": "",
          "type": "string"
        }
      ],
      "stateMutability": "view",
      "type": "function"
    },
    {
      "inputs": [],
      "name": "ZERO_ADDR",
      "outputs": [
        {
          "internalType": "address",
          "name": "",
          "type": "address"
        }
      ],
      "stateMutability": "view",
      "type": "function"
    },
    {
      "inputs": [],
      "name": "ZERO_DURATION",
      "outputs": [
        {
          "internalType": "string",
          "name": "",
          "type": "string"
        }
      ],
      "stateMutability": "view",
      "type": "function"
    },
    {
      "inputs": [],
      "name": "ZERO_PRICE",
      "outputs": [
        {
          "internalType": "string",
          "name": "",
          "type": "string"
        }
      ],
      "stateMutability": "view",
      "type": "function"
    },
    {
      "inputs": [],
      "name": "ZERO_SEED",
      "outputs": [
        {
          "internalType": "string",
          "name": "",
          "type": "string"
        }
      ],
      "stateMutability": "view",
      "type": "function"
    }
  ],
  "bytecode": "0x6106af61003a600b82828239805160001a60731461002d57634e487b7160e01b600052600060045260246000fd5b30600052607381538281f3fe73000000000000000000000000000000000000000030146080604052600436106101ef5760003560e01c80637267050811610119578063c3679ee5116100ac578063ec94a5771161007b578063ec94a5771461059c578063ef494c25146105be578063f9e93731146105e0578063feff83c31461060257600080fd5b8063c3679ee514610516578063d0a6d1a614610538578063d5bec68514610558578063e81216b51461057a57600080fd5b80639bf3cfe3116100e85780639bf3cfe31461048e578063b746287b146104b0578063b92436e0146104d2578063c059011b146104f457600080fd5b8063726705081461040657806386f8148f146104285780638cb739c61461044a57806390131fab1461046c57600080fd5b806338abf0c911610191578063585c081c11610160578063585c081c1461038057806363731080146103a2578063652b7f31146103c25780636a137674146103e457600080fd5b806338abf0c9146102f85780633a13248f1461031a578063552e387c1461033c5780635560f1f81461035e57600080fd5b806323312297116101cd5780632331229714610270578063243c1d6d146102925780632b72ddbd146102b457806335a02d73146102d657600080fd5b806307475084146101f4578063143c1c361461022c5780631557ff241461024e575b600080fd5b6102166040518060400160405280600381526020016219981b60e91b81525081565b6040516102239190610624565b60405180910390f35b6102166040518060400160405280600381526020016219181b60e91b81525081565b6102166040518060400160405280600381526020016206660760eb1b81525081565b6102166040518060400160405280600381526020016232303360e81b81525081565b610216604051806040016040528060038152602001620d0c0d60ea1b81525081565b6102166040518060400160405280600381526020016219981960e91b81525081565b6102166040518060400160405280600381526020016233303560e81b81525081565b6102166040518060400160405280600381526020016219181960e91b81525081565b6102166040518060400160405280600381526020016206460760eb1b81525081565b6102166040518060400160405280600381526020016231303160e81b81525081565b6102166040518060400160405280600381526020016233303360e81b81525081565b6102166040518060400160405280600381526020016232303560e81b81525081565b6103aa600081565b6040516001600160a01b039091168152602001610223565b6102166040518060400160405280600381526020016232303160e81b81525081565b6102166040518060400160405280600381526020016203430360ec1b81525081565b6102166040518060400160405280600381526020016203130360ec1b81525081565b6102166040518060400160405280600381526020016203230360ec1b81525081565b6102166040518060400160405280600381526020016232303960e81b81525081565b6102166040518060400160405280600381526020016203330360ec1b81525081565b6102166040518060400160405280600381526020016232303760e81b81525081565b6102166040518060400160405280600381526020016218981960e91b81525081565b6102166040518060400160405280600381526020016234303160e81b81525081565b6102166040518060400160405280600381526020016233303160e81b81525081565b6102166040518060400160405280600381526020016234303360e81b81525081565b610216604051806040016040528060018152602001600360fc1b81525081565b6102166040518060400160405280600381526020016233303760e81b81525081565b610216604051806040016040528060038152602001620ccc0d60ea1b81525081565b6102166040518060400160405280600381526020016233303960e81b81525081565b6102166040518060400160405280600381526020016203231360ec1b81525081565b610216604051806040016040528060038152602001621a181960e91b81525081565b610216604051806040016040528060038152602001620c8c0d60ea1b81525081565b600060208083528351808285015260005b8181101561065157858101830151858201604001528201610635565b81811115610663576000604083870101525b50601f01601f191692909201604001939250505056fea26469706673582212207eac8f5241ae5f1edb5811a8e2c2fed85a53c280fa37595506608b8792c9f82264736f6c634300080c0033",
  "linkReferences": {},
  "deployedLinkReferences": {}
}