{
  "_format": "hh-sol-artifact-1",
  "contractName": "Errors",
  "sourceName": "contracts/libs/helpers/Errors.sol",
  "abi": [
    {
      "inputs": [],
      "name": "ERC20_BALANCE_INVALID",
      "outputs": [
        {
          "internalType": "string",
          "name": "",
          "type": "string"
        }
      ],
      "stateMutability": "view",
      "type": "function"
    },
    {
      "inputs": [],
      "name": "ERC20_NOT_APPROVED",
      "outputs": [
        {
          "internalType": "string",
          "name": "",
          "type": "string"
        }
      ],
      "stateMutability": "view",
      "type": "function"
    },
    {
      "inputs": [],
      "name": "ERC_20_NOT_ALLOW",
      "outputs": [
        {
          "internalType": "string",
          "name": "",
          "type": "string"
        }
      ],
      "stateMutability": "view",
      "type": "function"
    },
    {
      "inputs": [],
      "name": "ERC_721_NOT_APPROVED",
      "outputs": [
        {
          "internalType": "string",
          "name": "",
          "type": "string"
        }
      ],
      "stateMutability": "view",
      "type": "function"
    },
    {
      "inputs": [],
      "name": "FORBIDDEN_TRANSFER_PROJECT",
      "outputs": [
        {
          "internalType": "string",
          "name": "",
          "type": "string"
        }
      ],
      "stateMutability": "view",
      "type": "function"
    },
    {
      "inputs": [],
      "name": "INVALID_ERC721_OWNER",
      "outputs": [
        {
          "internalType": "string",
          "name": "",
          "type": "string"
        }
      ],
      "stateMutability": "view",
      "type": "function"
    },
    {
      "inputs": [],
      "name": "INV_ADD",
      "outputs": [
        {
          "internalType": "string",
          "name": "",
          "type": "string"
        }
      ],
      "stateMutability": "view",
      "type": "function"
    },
    {
      "inputs": [],
      "name": "INV_FEE_PROJECT",
      "outputs": [
        {
          "internalType": "string",
          "name": "",
          "type": "string"
        }
      ],
      "stateMutability": "view",
      "type": "function"
    },
    {
      "inputs": [],
      "name": "INV_PARAMS",
      "outputs": [
        {
          "internalType": "string",
          "name": "",
          "type": "string"
        }
      ],
      "stateMutability": "view",
      "type": "function"
    },
    {
      "inputs": [],
      "name": "INV_PROJECT",
      "outputs": [
        {
          "internalType": "string",
          "name": "",
          "type": "string"
        }
      ],
      "stateMutability": "view",
      "type": "function"
    },
    {
      "inputs": [],
      "name": "INV_TOKEN",
      "outputs": [
        {
          "internalType": "string",
          "name": "",
          "type": "string"
        }
      ],
      "stateMutability": "view",
      "type": "function"
    },
    {
      "inputs": [],
      "name": "MISSING_NAME",
      "outputs": [
        {
          "internalType": "string",
          "name": "",
          "type": "string"
        }
      ],
      "stateMutability": "view",
      "type": "function"
    },
    {
      "inputs": [],
      "name": "OFFERING_CLOSED",
      "outputs": [
        {
          "internalType": "string",
          "name": "",
          "type": "string"
        }
      ],
      "stateMutability": "view",
      "type": "function"
    },
    {
      "inputs": [],
      "name": "ONLY_ADMIN_ALLOWED",
      "outputs": [
        {
          "internalType": "string",
          "name": "",
          "type": "string"
        }
      ],
      "stateMutability": "view",
      "type": "function"
    },
    {
      "inputs": [],
      "name": "ONLY_CREATOR",
      "outputs": [
        {
          "internalType": "string",
          "name": "",
          "type": "string"
        }
      ],
      "stateMutability": "view",
      "type": "function"
    },
    {
      "inputs": [],
      "name": "OPENING_SCHEDULE",
      "outputs": [
        {
          "internalType": "string",
          "name": "",
          "type": "string"
        }
      ],
      "stateMutability": "view",
      "type": "function"
    },
    {
      "inputs": [],
      "name": "POA_INVALID_TOKEN",
      "outputs": [
        {
          "internalType": "string",
          "name": "",
          "type": "string"
        }
      ],
      "stateMutability": "view",
      "type": "function"
    },
    {
      "inputs": [],
      "name": "REACH_MAX",
      "outputs": [
        {
          "internalType": "string",
          "name": "",
          "type": "string"
        }
      ],
      "stateMutability": "view",
      "type": "function"
    },
    {
      "inputs": [],
      "name": "SUCCESS",
      "outputs": [
        {
          "internalType": "string",
          "name": "",
          "type": "string"
        }
      ],
      "stateMutability": "view",
      "type": "function"
    },
    {
      "inputs": [],
      "name": "TOKEN_HAS_SEED",
      "outputs": [
        {
          "internalType": "string",
          "name": "",
          "type": "string"
        }
      ],
      "stateMutability": "view",
      "type": "function"
    },
    {
      "inputs": [],
      "name": "TOO_HIGH",
      "outputs": [
        {
          "internalType": "string",
          "name": "",
          "type": "string"
        }
      ],
      "stateMutability": "view",
      "type": "function"
    },
    {
      "inputs": [],
      "name": "TRANSFER_FAIL",
      "outputs": [
        {
          "internalType": "string",
          "name": "",
          "type": "string"
        }
      ],
      "stateMutability": "view",
      "type": "function"
    },
    {
      "inputs": [],
      "name": "VALUE_INVALID",
      "outputs": [
        {
          "internalType": "string",
          "name": "",
          "type": "string"
        }
      ],
      "stateMutability": "view",
      "type": "function"
    },
    {
      "inputs": [],
      "name": "ZERO_ADDR",
      "outputs": [
        {
          "internalType": "address",
          "name": "",
          "type": "address"
        }
      ],
      "stateMutability": "view",
      "type": "function"
    },
    {
      "inputs": [],
      "name": "ZERO_DURATION",
      "outputs": [
        {
          "internalType": "string",
          "name": "",
          "type": "string"
        }
      ],
      "stateMutability": "view",
      "type": "function"
    },
    {
      "inputs": [],
      "name": "ZERO_PRICE",
      "outputs": [
        {
          "internalType": "string",
          "name": "",
          "type": "string"
        }
      ],
      "stateMutability": "view",
      "type": "function"
    },
    {
      "inputs": [],
      "name": "ZERO_SEED",
      "outputs": [
        {
          "internalType": "string",
          "name": "",
          "type": "string"
        }
      ],
      "stateMutability": "view",
      "type": "function"
    }
  ],
  "bytecode": "0x6105eb61003a600b82828239805160001a60731461002d57634e487b7160e01b600052600060045260246000fd5b30600052607381538281f3fe73000000000000000000000000000000000000000030146080604052600436106101b35760003560e01c80636a13767411610103578063c059011b116100a1578063e81216b51161007b578063e81216b5146104d8578063ec94a577146104fa578063ef494c251461051c578063feff83c31461053e57600080fd5b8063c059011b14610474578063d0a6d1a614610496578063d5bec685146104b657600080fd5b80638cb739c6116100dd5780638cb739c6146103ec57806390131fab1461040e5780639bf3cfe314610430578063b746287b1461045257600080fd5b80636a1376741461038657806372670508146103a857806386f8148f146103ca57600080fd5b806338abf0c9116101705780635560f1f81161014a5780635560f1f814610300578063585c081c146103225780636373108014610344578063652b7f311461036457600080fd5b806338abf0c91461029a5780633a13248f146102bc578063552e387c146102de57600080fd5b806307475084146101b8578063143c1c36146101f05780631557ff241461021257806323312297146102345780632b72ddbd1461025657806335a02d7314610278575b600080fd5b6101da6040518060400160405280600381526020016219981b60e91b81525081565b6040516101e79190610560565b60405180910390f35b6101da6040518060400160405280600381526020016219181b60e91b81525081565b6101da6040518060400160405280600381526020016206660760eb1b81525081565b6101da6040518060400160405280600381526020016232303360e81b81525081565b6101da6040518060400160405280600381526020016219981960e91b81525081565b6101da6040518060400160405280600381526020016233303560e81b81525081565b6101da6040518060400160405280600381526020016219181960e91b81525081565b6101da6040518060400160405280600381526020016206460760eb1b81525081565b6101da6040518060400160405280600381526020016231303160e81b81525081565b6101da6040518060400160405280600381526020016233303360e81b81525081565b6101da6040518060400160405280600381526020016232303560e81b81525081565b61034c600081565b6040516001600160a01b0390911681526020016101e7565b6101da6040518060400160405280600381526020016232303160e81b81525081565b6101da6040518060400160405280600381526020016203430360ec1b81525081565b6101da6040518060400160405280600381526020016203130360ec1b81525081565b6101da6040518060400160405280600381526020016203230360ec1b81525081565b6101da6040518060400160405280600381526020016232303960e81b81525081565b6101da6040518060400160405280600381526020016203330360ec1b81525081565b6101da6040518060400160405280600381526020016232303760e81b81525081565b6101da6040518060400160405280600381526020016218981960e91b81525081565b6101da6040518060400160405280600381526020016233303160e81b81525081565b6101da604051806040016040528060018152602001600360fc1b81525081565b6101da6040518060400160405280600381526020016233303760e81b81525081565b6101da604051806040016040528060038152602001620ccc0d60ea1b81525081565b6101da6040518060400160405280600381526020016233303960e81b81525081565b6101da6040518060400160405280600381526020016203231360ec1b81525081565b6101da604051806040016040528060038152602001620c8c0d60ea1b81525081565b600060208083528351808285015260005b8181101561058d57858101830151858201604001528201610571565b8181111561059f576000604083870101525b50601f01601f191692909201604001939250505056fea26469706673582212208a9a2983bb7688406878fd715768d724d01f3820f477762e932cfbef1e0217e264736f6c634300080c0033",
  "linkReferences": {},
  "deployedLinkReferences": {}
}