{
  "_format": "hh-sol-artifact-1",
  "contractName": "Errors",
  "sourceName": "contracts/libs/helpers/Errors.sol",
  "abi": [
    {
      "inputs": [],
      "name": "ERC20_BALANCE_INVALID",
      "outputs": [
        {
          "internalType": "string",
          "name": "",
          "type": "string"
        }
      ],
      "stateMutability": "view",
      "type": "function"
    },
    {
      "inputs": [],
      "name": "ERC20_NOT_APPROVED",
      "outputs": [
        {
          "internalType": "string",
          "name": "",
          "type": "string"
        }
      ],
      "stateMutability": "view",
      "type": "function"
    },
    {
      "inputs": [],
      "name": "ERC_721_NOT_APPROVED",
      "outputs": [
        {
          "internalType": "string",
          "name": "",
          "type": "string"
        }
      ],
      "stateMutability": "view",
      "type": "function"
    },
    {
      "inputs": [],
      "name": "FORBIDDEN_TRANSFER_PROJECT",
      "outputs": [
        {
          "internalType": "string",
          "name": "",
          "type": "string"
        }
      ],
      "stateMutability": "view",
      "type": "function"
    },
    {
      "inputs": [],
      "name": "INVALID_ERC721_OWNER",
      "outputs": [
        {
          "internalType": "string",
          "name": "",
          "type": "string"
        }
      ],
      "stateMutability": "view",
      "type": "function"
    },
    {
      "inputs": [],
      "name": "INV_ADD",
      "outputs": [
        {
          "internalType": "string",
          "name": "",
          "type": "string"
        }
      ],
      "stateMutability": "view",
      "type": "function"
    },
    {
      "inputs": [],
      "name": "INV_FEE_PROJECT",
      "outputs": [
        {
          "internalType": "string",
          "name": "",
          "type": "string"
        }
      ],
      "stateMutability": "view",
      "type": "function"
    },
    {
      "inputs": [],
      "name": "INV_PARAMS",
      "outputs": [
        {
          "internalType": "string",
          "name": "",
          "type": "string"
        }
      ],
      "stateMutability": "view",
      "type": "function"
    },
    {
      "inputs": [],
      "name": "INV_PROJECT",
      "outputs": [
        {
          "internalType": "string",
          "name": "",
          "type": "string"
        }
      ],
      "stateMutability": "view",
      "type": "function"
    },
    {
      "inputs": [],
      "name": "INV_TOKEN",
      "outputs": [
        {
          "internalType": "string",
          "name": "",
          "type": "string"
        }
      ],
      "stateMutability": "view",
      "type": "function"
    },
    {
      "inputs": [],
      "name": "MISSING_NAME",
      "outputs": [
        {
          "internalType": "string",
          "name": "",
          "type": "string"
        }
      ],
      "stateMutability": "view",
      "type": "function"
    },
    {
      "inputs": [],
      "name": "OFFERING_CLOSED",
      "outputs": [
        {
          "internalType": "string",
          "name": "",
          "type": "string"
        }
      ],
      "stateMutability": "view",
      "type": "function"
    },
    {
      "inputs": [],
      "name": "ONLY_ADMIN_ALLOWED",
      "outputs": [
        {
          "internalType": "string",
          "name": "",
          "type": "string"
        }
      ],
      "stateMutability": "view",
      "type": "function"
    },
    {
      "inputs": [],
      "name": "ONLY_CREATOR",
      "outputs": [
        {
          "internalType": "string",
          "name": "",
          "type": "string"
        }
      ],
      "stateMutability": "view",
      "type": "function"
    },
    {
      "inputs": [],
      "name": "OPENING_SCHEDULE",
      "outputs": [
        {
          "internalType": "string",
          "name": "",
          "type": "string"
        }
      ],
      "stateMutability": "view",
      "type": "function"
    },
    {
      "inputs": [],
      "name": "REACH_MAX",
      "outputs": [
        {
          "internalType": "string",
          "name": "",
          "type": "string"
        }
      ],
      "stateMutability": "view",
      "type": "function"
    },
    {
      "inputs": [],
      "name": "SUCCESS",
      "outputs": [
        {
          "internalType": "string",
          "name": "",
          "type": "string"
        }
      ],
      "stateMutability": "view",
      "type": "function"
    },
    {
      "inputs": [],
      "name": "TOKEN_HAS_SEED",
      "outputs": [
        {
          "internalType": "string",
          "name": "",
          "type": "string"
        }
      ],
      "stateMutability": "view",
      "type": "function"
    },
    {
      "inputs": [],
      "name": "TOO_HIGH",
      "outputs": [
        {
          "internalType": "string",
          "name": "",
          "type": "string"
        }
      ],
      "stateMutability": "view",
      "type": "function"
    },
    {
      "inputs": [],
      "name": "TRANSFER_FAIL",
      "outputs": [
        {
          "internalType": "string",
          "name": "",
          "type": "string"
        }
      ],
      "stateMutability": "view",
      "type": "function"
    },
    {
      "inputs": [],
      "name": "VALUE_INVALID",
      "outputs": [
        {
          "internalType": "string",
          "name": "",
          "type": "string"
        }
      ],
      "stateMutability": "view",
      "type": "function"
    },
    {
      "inputs": [],
      "name": "ZERO_ADDR",
      "outputs": [
        {
          "internalType": "address",
          "name": "",
          "type": "address"
        }
      ],
      "stateMutability": "view",
      "type": "function"
    },
    {
      "inputs": [],
      "name": "ZERO_SEED",
      "outputs": [
        {
          "internalType": "string",
          "name": "",
          "type": "string"
        }
      ],
      "stateMutability": "view",
      "type": "function"
    }
  ],
  "bytecode": "0x61050761003a600b82828239805160001a60731461002d57634e487b7160e01b600052600060045260246000fd5b30600052607381538281f3fe73000000000000000000000000000000000000000030146080604052600436106101575760003560e01c8063652b7f31116100cd578063b746287b11610086578063b746287b146103b2578063c059011b146103d4578063d0a6d1a6146103f6578063e81216b514610416578063ef494c2514610438578063feff83c31461045a57600080fd5b8063652b7f31146102e6578063726705081461030857806386f8148f1461032a5780638cb739c61461034c57806390131fab1461036e5780639bf3cfe31461039057600080fd5b806338abf0c91161011f57806338abf0c91461021c5780633a13248f1461023e578063552e387c146102605780635560f1f814610282578063585c081c146102a457806363731080146102c657600080fd5b8063074750841461015c578063143c1c361461019457806323312297146101b65780632b72ddbd146101d857806335a02d73146101fa575b600080fd5b61017e6040518060400160405280600381526020016219981b60e91b81525081565b60405161018b919061047c565b60405180910390f35b61017e6040518060400160405280600381526020016219181b60e91b81525081565b61017e6040518060400160405280600381526020016232303360e81b81525081565b61017e6040518060400160405280600381526020016219981960e91b81525081565b61017e6040518060400160405280600381526020016233303560e81b81525081565b61017e6040518060400160405280600381526020016219181960e91b81525081565b61017e6040518060400160405280600381526020016206460760eb1b81525081565b61017e6040518060400160405280600381526020016231303160e81b81525081565b61017e6040518060400160405280600381526020016233303360e81b81525081565b61017e6040518060400160405280600381526020016232303560e81b81525081565b6102ce600081565b6040516001600160a01b03909116815260200161018b565b61017e6040518060400160405280600381526020016232303160e81b81525081565b61017e6040518060400160405280600381526020016203130360ec1b81525081565b61017e6040518060400160405280600381526020016203230360ec1b81525081565b61017e6040518060400160405280600381526020016232303960e81b81525081565b61017e6040518060400160405280600381526020016203330360ec1b81525081565b61017e6040518060400160405280600381526020016232303760e81b81525081565b61017e6040518060400160405280600381526020016218981960e91b81525081565b61017e6040518060400160405280600381526020016233303160e81b81525081565b61017e604051806040016040528060018152602001600360fc1b81525081565b61017e604051806040016040528060038152602001620ccc0d60ea1b81525081565b61017e6040518060400160405280600381526020016203231360ec1b81525081565b61017e604051806040016040528060038152602001620c8c0d60ea1b81525081565b600060208083528351808285015260005b818110156104a95785810183015185820160400152820161048d565b818111156104bb576000604083870101525b50601f01601f191692909201604001939250505056fea2646970667358221220b0b3ec8ff3e2de8ab3ad9b7f528ef8fb3b81b1b6fd025949f69a0f7be9eda43b64736f6c634300080c0033",
  "linkReferences": {},
  "deployedLinkReferences": {}
}