{
  "_format": "hh-sol-artifact-1",
  "contractName": "Errors",
  "sourceName": "contracts/libs/helpers/Errors.sol",
  "abi": [
    {
      "inputs": [],
      "name": "DAO_VESTING_ERROR_ADDR",
      "outputs": [
        {
          "internalType": "string",
          "name": "",
          "type": "string"
        }
      ],
      "stateMutability": "view",
      "type": "function"
    },
    {
      "inputs": [],
      "name": "ERC20_BALANCE_INVALID",
      "outputs": [
        {
          "internalType": "string",
          "name": "",
          "type": "string"
        }
      ],
      "stateMutability": "view",
      "type": "function"
    },
    {
      "inputs": [],
      "name": "ERC20_NOT_APPROVED",
      "outputs": [
        {
          "internalType": "string",
          "name": "",
          "type": "string"
        }
      ],
      "stateMutability": "view",
      "type": "function"
    },
    {
      "inputs": [],
      "name": "ERC_20_NOT_ALLOW",
      "outputs": [
        {
          "internalType": "string",
          "name": "",
          "type": "string"
        }
      ],
      "stateMutability": "view",
      "type": "function"
    },
    {
      "inputs": [],
      "name": "ERC_721_NOT_APPROVED",
      "outputs": [
        {
          "internalType": "string",
          "name": "",
          "type": "string"
        }
      ],
      "stateMutability": "view",
      "type": "function"
    },
    {
      "inputs": [],
      "name": "FORBIDDEN_TRANSFER_PROJECT",
      "outputs": [
        {
          "internalType": "string",
          "name": "",
          "type": "string"
        }
      ],
      "stateMutability": "view",
      "type": "function"
    },
    {
      "inputs": [],
      "name": "INVALID_ERC721_OWNER",
      "outputs": [
        {
          "internalType": "string",
          "name": "",
          "type": "string"
        }
      ],
      "stateMutability": "view",
      "type": "function"
    },
    {
      "inputs": [],
      "name": "INV_ADD",
      "outputs": [
        {
          "internalType": "string",
          "name": "",
          "type": "string"
        }
      ],
      "stateMutability": "view",
      "type": "function"
    },
    {
      "inputs": [],
      "name": "INV_FEE_PROJECT",
      "outputs": [
        {
          "internalType": "string",
          "name": "",
          "type": "string"
        }
      ],
      "stateMutability": "view",
      "type": "function"
    },
    {
      "inputs": [],
      "name": "INV_PARAMS",
      "outputs": [
        {
          "internalType": "string",
          "name": "",
          "type": "string"
        }
      ],
      "stateMutability": "view",
      "type": "function"
    },
    {
      "inputs": [],
      "name": "INV_PROJECT",
      "outputs": [
        {
          "internalType": "string",
          "name": "",
          "type": "string"
        }
      ],
      "stateMutability": "view",
      "type": "function"
    },
    {
      "inputs": [],
      "name": "INV_TOKEN",
      "outputs": [
        {
          "internalType": "string",
          "name": "",
          "type": "string"
        }
      ],
      "stateMutability": "view",
      "type": "function"
    },
    {
      "inputs": [],
      "name": "MISSING_NAME",
      "outputs": [
        {
          "internalType": "string",
          "name": "",
          "type": "string"
        }
      ],
      "stateMutability": "view",
      "type": "function"
    },
    {
      "inputs": [],
      "name": "OFFERING_CLOSED",
      "outputs": [
        {
          "internalType": "string",
          "name": "",
          "type": "string"
        }
      ],
      "stateMutability": "view",
      "type": "function"
    },
    {
      "inputs": [],
      "name": "ONLY_ADMIN_ALLOWED",
      "outputs": [
        {
          "internalType": "string",
          "name": "",
          "type": "string"
        }
      ],
      "stateMutability": "view",
      "type": "function"
    },
    {
      "inputs": [],
      "name": "ONLY_CREATOR",
      "outputs": [
        {
          "internalType": "string",
          "name": "",
          "type": "string"
        }
      ],
      "stateMutability": "view",
      "type": "function"
    },
    {
      "inputs": [],
      "name": "ONLY_GENERATIVE_PROJECT",
      "outputs": [
        {
          "internalType": "string",
          "name": "",
          "type": "string"
        }
      ],
      "stateMutability": "view",
      "type": "function"
    },
    {
      "inputs": [],
      "name": "OPENING_SCHEDULE",
      "outputs": [
        {
          "internalType": "string",
          "name": "",
          "type": "string"
        }
      ],
      "stateMutability": "view",
      "type": "function"
    },
    {
      "inputs": [],
      "name": "POA_INVALID_TOKEN",
      "outputs": [
        {
          "internalType": "string",
          "name": "",
          "type": "string"
        }
      ],
      "stateMutability": "view",
      "type": "function"
    },
    {
      "inputs": [],
      "name": "REACH_MAX",
      "outputs": [
        {
          "internalType": "string",
          "name": "",
          "type": "string"
        }
      ],
      "stateMutability": "view",
      "type": "function"
    },
    {
      "inputs": [],
      "name": "SUCCESS",
      "outputs": [
        {
          "internalType": "string",
          "name": "",
          "type": "string"
        }
      ],
      "stateMutability": "view",
      "type": "function"
    },
    {
      "inputs": [],
      "name": "TEAM_VESTING_ERROR_ADDR",
      "outputs": [
        {
          "internalType": "string",
          "name": "",
          "type": "string"
        }
      ],
      "stateMutability": "view",
      "type": "function"
    },
    {
      "inputs": [],
      "name": "TOKEN_HAS_SEED",
      "outputs": [
        {
          "internalType": "string",
          "name": "",
          "type": "string"
        }
      ],
      "stateMutability": "view",
      "type": "function"
    },
    {
      "inputs": [],
      "name": "TOO_HIGH",
      "outputs": [
        {
          "internalType": "string",
          "name": "",
          "type": "string"
        }
      ],
      "stateMutability": "view",
      "type": "function"
    },
    {
      "inputs": [],
      "name": "TRANSFER_FAIL",
      "outputs": [
        {
          "internalType": "string",
          "name": "",
          "type": "string"
        }
      ],
      "stateMutability": "view",
      "type": "function"
    },
    {
      "inputs": [],
      "name": "VALUE_INVALID",
      "outputs": [
        {
          "internalType": "string",
          "name": "",
          "type": "string"
        }
      ],
      "stateMutability": "view",
      "type": "function"
    },
    {
      "inputs": [],
      "name": "VESTING_REMAIN",
      "outputs": [
        {
          "internalType": "string",
          "name": "",
          "type": "string"
        }
      ],
      "stateMutability": "view",
      "type": "function"
    },
    {
      "inputs": [],
      "name": "VESTING_TIME_LOCK",
      "outputs": [
        {
          "internalType": "string",
          "name": "",
          "type": "string"
        }
      ],
      "stateMutability": "view",
      "type": "function"
    },
    {
      "inputs": [],
      "name": "ZERO_ADDR",
      "outputs": [
        {
          "internalType": "address",
          "name": "",
          "type": "address"
        }
      ],
      "stateMutability": "view",
      "type": "function"
    },
    {
      "inputs": [],
      "name": "ZERO_DURATION",
      "outputs": [
        {
          "internalType": "string",
          "name": "",
          "type": "string"
        }
      ],
      "stateMutability": "view",
      "type": "function"
    },
    {
      "inputs": [],
      "name": "ZERO_PRICE",
      "outputs": [
        {
          "internalType": "string",
          "name": "",
          "type": "string"
        }
      ],
      "stateMutability": "view",
      "type": "function"
    },
    {
      "inputs": [],
      "name": "ZERO_SEED",
      "outputs": [
        {
          "internalType": "string",
          "name": "",
          "type": "string"
        }
      ],
      "stateMutability": "view",
      "type": "function"
    }
  ],
  "bytecode": "0x6106dc61003a600b82828239805160001a60731461002d57634e487b7160e01b600052600060045260246000fd5b30600052607381538281f3fe73000000000000000000000000000000000000000030146080604052600436106101fa5760003560e01c806386f8148f11610119578063d0a6d1a6116100ac578063ec94a5771161007b578063ec94a577146105c9578063ef494c25146105eb578063f9e937311461060d578063feff83c31461062f57600080fd5b8063d0a6d1a614610543578063d5bec68514610563578063dc18263c14610585578063e81216b5146105a757600080fd5b8063b746287b116100e8578063b746287b146104bb578063b92436e0146104dd578063c059011b146104ff578063c3679ee51461052157600080fd5b806386f8148f146104335780638cb739c61461045557806390131fab146104775780639bf3cfe31461049957600080fd5b80633a13248f11610191578063637310801161016057806363731080146103ad578063652b7f31146103cd5780636a137674146103ef578063726705081461041157600080fd5b80633a13248f14610325578063552e387c146103475780635560f1f814610369578063585c081c1461038b57600080fd5b8063243c1d6d116101cd578063243c1d6d1461029d5780632b72ddbd146102bf57806335a02d73146102e157806338abf0c91461030357600080fd5b806307475084146101ff578063143c1c36146102375780631557ff2414610259578063233122971461027b575b600080fd5b6102216040518060400160405280600381526020016219981b60e91b81525081565b60405161022e9190610651565b60405180910390f35b6102216040518060400160405280600381526020016219181b60e91b81525081565b6102216040518060400160405280600381526020016206660760eb1b81525081565b6102216040518060400160405280600381526020016232303360e81b81525081565b610221604051806040016040528060038152602001620d0c0d60ea1b81525081565b6102216040518060400160405280600381526020016219981960e91b81525081565b6102216040518060400160405280600381526020016233303560e81b81525081565b6102216040518060400160405280600381526020016219181960e91b81525081565b6102216040518060400160405280600381526020016206460760eb1b81525081565b6102216040518060400160405280600381526020016231303160e81b81525081565b6102216040518060400160405280600381526020016233303360e81b81525081565b6102216040518060400160405280600381526020016232303560e81b81525081565b6103b5600081565b6040516001600160a01b03909116815260200161022e565b6102216040518060400160405280600381526020016232303160e81b81525081565b6102216040518060400160405280600381526020016203430360ec1b81525081565b6102216040518060400160405280600381526020016203130360ec1b81525081565b6102216040518060400160405280600381526020016203230360ec1b81525081565b6102216040518060400160405280600381526020016232303960e81b81525081565b6102216040518060400160405280600381526020016203330360ec1b81525081565b6102216040518060400160405280600381526020016232303760e81b81525081565b6102216040518060400160405280600381526020016218981960e91b81525081565b6102216040518060400160405280600381526020016234303160e81b81525081565b6102216040518060400160405280600381526020016233303160e81b81525081565b6102216040518060400160405280600381526020016234303360e81b81525081565b610221604051806040016040528060018152602001600360fc1b81525081565b6102216040518060400160405280600381526020016233303760e81b81525081565b6102216040518060400160405280600381526020016232313160e81b81525081565b610221604051806040016040528060038152602001620ccc0d60ea1b81525081565b6102216040518060400160405280600381526020016233303960e81b81525081565b6102216040518060400160405280600381526020016203231360ec1b81525081565b610221604051806040016040528060038152602001621a181960e91b81525081565b610221604051806040016040528060038152602001620c8c0d60ea1b81525081565b600060208083528351808285015260005b8181101561067e57858101830151858201604001528201610662565b81811115610690576000604083870101525b50601f01601f191692909201604001939250505056fea264697066735822122056d8fa4fe5543e33b6301deb96c5523eba4c25f2985285db8e1bb1cd6431d05864736f6c634300080c0033",
  "linkReferences": {},
  "deployedLinkReferences": {}
}