{
  "_format": "hh-sol-artifact-1",
  "contractName": "Errors",
  "sourceName": "contracts/libs/helpers/Errors.sol",
  "abi": [
    {
      "inputs": [],
      "name": "INV_ADD",
      "outputs": [
        {
          "internalType": "string",
          "name": "",
          "type": "string"
        }
      ],
      "stateMutability": "view",
      "type": "function"
    },
    {
      "inputs": [],
      "name": "INV_BOILERPLATE_ADD",
      "outputs": [
        {
          "internalType": "string",
          "name": "",
          "type": "string"
        }
      ],
      "stateMutability": "view",
      "type": "function"
    },
    {
      "inputs": [],
      "name": "INV_FEE_PROJECT",
      "outputs": [
        {
          "internalType": "string",
          "name": "",
          "type": "string"
        }
      ],
      "stateMutability": "view",
      "type": "function"
    },
    {
      "inputs": [],
      "name": "INV_PARAMS",
      "outputs": [
        {
          "internalType": "string",
          "name": "",
          "type": "string"
        }
      ],
      "stateMutability": "view",
      "type": "function"
    },
    {
      "inputs": [],
      "name": "INV_PROJECT",
      "outputs": [
        {
          "internalType": "string",
          "name": "",
          "type": "string"
        }
      ],
      "stateMutability": "view",
      "type": "function"
    },
    {
      "inputs": [],
      "name": "MISSING_NAME",
      "outputs": [
        {
          "internalType": "string",
          "name": "",
          "type": "string"
        }
      ],
      "stateMutability": "view",
      "type": "function"
    },
    {
      "inputs": [],
      "name": "ONLY_ADMIN_ALLOWED",
      "outputs": [
        {
          "internalType": "string",
          "name": "",
          "type": "string"
        }
      ],
      "stateMutability": "view",
      "type": "function"
    },
    {
      "inputs": [],
      "name": "ONLY_CREATOR",
      "outputs": [
        {
          "internalType": "string",
          "name": "",
          "type": "string"
        }
      ],
      "stateMutability": "view",
      "type": "function"
    },
    {
      "inputs": [],
      "name": "REACH_MAX",
      "outputs": [
        {
          "internalType": "string",
          "name": "",
          "type": "string"
        }
      ],
      "stateMutability": "view",
      "type": "function"
    },
    {
      "inputs": [],
      "name": "SEED_INV",
      "outputs": [
        {
          "internalType": "string",
          "name": "",
          "type": "string"
        }
      ],
      "stateMutability": "view",
      "type": "function"
    },
    {
      "inputs": [],
      "name": "SEED_INV_1",
      "outputs": [
        {
          "internalType": "string",
          "name": "",
          "type": "string"
        }
      ],
      "stateMutability": "view",
      "type": "function"
    },
    {
      "inputs": [],
      "name": "SEED_INV_2",
      "outputs": [
        {
          "internalType": "string",
          "name": "",
          "type": "string"
        }
      ],
      "stateMutability": "view",
      "type": "function"
    },
    {
      "inputs": [],
      "name": "SUCCESS",
      "outputs": [
        {
          "internalType": "string",
          "name": "",
          "type": "string"
        }
      ],
      "stateMutability": "view",
      "type": "function"
    }
  ],
  "bytecode": "0x61033761003a600b82828239805160001a60731461002d57634e487b7160e01b600052600060045260246000fd5b30600052607381538281f3fe73000000000000000000000000000000000000000030146080604052600436106100d95760003560e01c80637267050811610096578063b746287b11610070578063b746287b14610226578063d0a6d1a614610248578063dd48a58314610268578063feff83c31461028a57600080fd5b806372670508146101c05780637672b6f2146101e257806386f8148f1461020457600080fd5b806309d9c840146100de578063233122971461011657806338abf0c9146101385780635367c5861461015a578063552e387c1461017c578063652b7f311461019e575b600080fd5b6101006040518060400160405280600381526020016232303760e81b81525081565b60405161010d91906102ac565b60405180910390f35b6101006040518060400160405280600381526020016232303360e81b81525081565b6101006040518060400160405280600381526020016219181960e91b81525081565b6101006040518060400160405280600381526020016206460760eb1b81525081565b6101006040518060400160405280600381526020016231303160e81b81525081565b6101006040518060400160405280600381526020016232303160e81b81525081565b6101006040518060400160405280600381526020016203130360ec1b81525081565b6101006040518060400160405280600381526020016232303560e81b81525081565b6101006040518060400160405280600381526020016203230360ec1b81525081565b6101006040518060400160405280600381526020016218981960e91b81525081565b610100604051806040016040528060018152602001600360fc1b81525081565b6101006040518060400160405280600381526020016219181b60e91b81525081565b610100604051806040016040528060038152602001620c8c0d60ea1b81525081565b600060208083528351808285015260005b818110156102d9578581018301518582016040015282016102bd565b818111156102eb576000604083870101525b50601f01601f191692909201604001939250505056fea26469706673582212208cc8eb03131a9363e9b8061cae4e57d4a2bd6a097c77fdd44ca6a03d1a11278664736f6c634300080c0033",
  "linkReferences": {},
  "deployedLinkReferences": {}
}