{
  "_format": "hh-sol-artifact-1",
  "contractName": "Errors",
  "sourceName": "contracts/libs/helpers/Errors.sol",
  "abi": [
    {
      "inputs": [],
      "name": "INV_ADD",
      "outputs": [
        {
          "internalType": "string",
          "name": "",
          "type": "string"
        }
      ],
      "stateMutability": "view",
      "type": "function"
    },
    {
      "inputs": [],
      "name": "INV_FEE_PROJECT",
      "outputs": [
        {
          "internalType": "string",
          "name": "",
          "type": "string"
        }
      ],
      "stateMutability": "view",
      "type": "function"
    },
    {
      "inputs": [],
      "name": "INV_PARAMS",
      "outputs": [
        {
          "internalType": "string",
          "name": "",
          "type": "string"
        }
      ],
      "stateMutability": "view",
      "type": "function"
    },
    {
      "inputs": [],
      "name": "INV_PROJECT",
      "outputs": [
        {
          "internalType": "string",
          "name": "",
          "type": "string"
        }
      ],
      "stateMutability": "view",
      "type": "function"
    },
    {
      "inputs": [],
      "name": "INV_TOKEN",
      "outputs": [
        {
          "internalType": "string",
          "name": "",
          "type": "string"
        }
      ],
      "stateMutability": "view",
      "type": "function"
    },
    {
      "inputs": [],
      "name": "MISSING_NAME",
      "outputs": [
        {
          "internalType": "string",
          "name": "",
          "type": "string"
        }
      ],
      "stateMutability": "view",
      "type": "function"
    },
    {
      "inputs": [],
      "name": "ONLY_ADMIN_ALLOWED",
      "outputs": [
        {
          "internalType": "string",
          "name": "",
          "type": "string"
        }
      ],
      "stateMutability": "view",
      "type": "function"
    },
    {
      "inputs": [],
      "name": "ONLY_CREATOR",
      "outputs": [
        {
          "internalType": "string",
          "name": "",
          "type": "string"
        }
      ],
      "stateMutability": "view",
      "type": "function"
    },
    {
      "inputs": [],
      "name": "OPENING_SCHEDULE",
      "outputs": [
        {
          "internalType": "string",
          "name": "",
          "type": "string"
        }
      ],
      "stateMutability": "view",
      "type": "function"
    },
    {
      "inputs": [],
      "name": "REACH_MAX",
      "outputs": [
        {
          "internalType": "string",
          "name": "",
          "type": "string"
        }
      ],
      "stateMutability": "view",
      "type": "function"
    },
    {
      "inputs": [],
      "name": "SUCCESS",
      "outputs": [
        {
          "internalType": "string",
          "name": "",
          "type": "string"
        }
      ],
      "stateMutability": "view",
      "type": "function"
    },
    {
      "inputs": [],
      "name": "TOKEN_HAS_SEED",
      "outputs": [
        {
          "internalType": "string",
          "name": "",
          "type": "string"
        }
      ],
      "stateMutability": "view",
      "type": "function"
    },
    {
      "inputs": [],
      "name": "TOO_HIGH",
      "outputs": [
        {
          "internalType": "string",
          "name": "",
          "type": "string"
        }
      ],
      "stateMutability": "view",
      "type": "function"
    },
    {
      "inputs": [],
      "name": "ZERO_ADDR",
      "outputs": [
        {
          "internalType": "address",
          "name": "",
          "type": "address"
        }
      ],
      "stateMutability": "view",
      "type": "function"
    },
    {
      "inputs": [],
      "name": "ZERO_SEED",
      "outputs": [
        {
          "internalType": "string",
          "name": "",
          "type": "string"
        }
      ],
      "stateMutability": "view",
      "type": "function"
    }
  ],
  "bytecode": "0x61039f61003a600b82828239805160001a60731461002d57634e487b7160e01b600052600060045260246000fd5b30600052607381538281f3fe73000000000000000000000000000000000000000030146080604052600436106100ff5760003560e01c8063652b7f31116100a15780639bf3cfe3116100705780639bf3cfe31461028e578063b746287b146102b0578063d0a6d1a6146102d2578063feff83c3146102f257600080fd5b8063652b7f3114610206578063726705081461022857806386f8148f1461024a5780638cb739c61461026c57600080fd5b80633a13248f116100dd5780633a13248f14610180578063552e387c146101a2578063585c081c146101c457806363731080146101e657600080fd5b8063143c1c3614610104578063233122971461013c57806338abf0c91461015e575b600080fd5b6101266040518060400160405280600381526020016219181b60e91b81525081565b6040516101339190610314565b60405180910390f35b6101266040518060400160405280600381526020016232303360e81b81525081565b6101266040518060400160405280600381526020016219181960e91b81525081565b6101266040518060400160405280600381526020016206460760eb1b81525081565b6101266040518060400160405280600381526020016231303160e81b81525081565b6101266040518060400160405280600381526020016232303560e81b81525081565b6101ee600081565b6040516001600160a01b039091168152602001610133565b6101266040518060400160405280600381526020016232303160e81b81525081565b6101266040518060400160405280600381526020016203130360ec1b81525081565b6101266040518060400160405280600381526020016203230360ec1b81525081565b6101266040518060400160405280600381526020016232303960e81b81525081565b6101266040518060400160405280600381526020016232303760e81b81525081565b6101266040518060400160405280600381526020016218981960e91b81525081565b610126604051806040016040528060018152602001600360fc1b81525081565b610126604051806040016040528060038152602001620c8c0d60ea1b81525081565b600060208083528351808285015260005b8181101561034157858101830151858201604001528201610325565b81811115610353576000604083870101525b50601f01601f191692909201604001939250505056fea2646970667358221220e1d023212d3ee4f1e2060457dbe4d38e3481903ba56249e62cfc5d5af8f5daa364736f6c634300080c0033",
  "linkReferences": {},
  "deployedLinkReferences": {}
}