{
  "_format": "hh-sol-artifact-1",
  "contractName": "Errors",
  "sourceName": "contracts/libs/helpers/Errors.sol",
  "abi": [
    {
      "inputs": [],
      "name": "INV_ADD",
      "outputs": [
        {
          "internalType": "string",
          "name": "",
          "type": "string"
        }
      ],
      "stateMutability": "view",
      "type": "function"
    },
    {
      "inputs": [],
      "name": "INV_BOILERPLATE_ADD",
      "outputs": [
        {
          "internalType": "string",
          "name": "",
          "type": "string"
        }
      ],
      "stateMutability": "view",
      "type": "function"
    },
    {
      "inputs": [],
      "name": "INV_FEE_PROJECT",
      "outputs": [
        {
          "internalType": "string",
          "name": "",
          "type": "string"
        }
      ],
      "stateMutability": "view",
      "type": "function"
    },
    {
      "inputs": [],
      "name": "INV_PARAMS",
      "outputs": [
        {
          "internalType": "string",
          "name": "",
          "type": "string"
        }
      ],
      "stateMutability": "view",
      "type": "function"
    },
    {
      "inputs": [],
      "name": "INV_PROJECT",
      "outputs": [
        {
          "internalType": "string",
          "name": "",
          "type": "string"
        }
      ],
      "stateMutability": "view",
      "type": "function"
    },
    {
      "inputs": [],
      "name": "MISSING_NAME",
      "outputs": [
        {
          "internalType": "string",
          "name": "",
          "type": "string"
        }
      ],
      "stateMutability": "view",
      "type": "function"
    },
    {
      "inputs": [],
      "name": "ONLY_ADMIN_ALLOWED",
      "outputs": [
        {
          "internalType": "string",
          "name": "",
          "type": "string"
        }
      ],
      "stateMutability": "view",
      "type": "function"
    },
    {
      "inputs": [],
      "name": "ONLY_CREATOR",
      "outputs": [
        {
          "internalType": "string",
          "name": "",
          "type": "string"
        }
      ],
      "stateMutability": "view",
      "type": "function"
    },
    {
      "inputs": [],
      "name": "OPENING_SCHEDULE",
      "outputs": [
        {
          "internalType": "string",
          "name": "",
          "type": "string"
        }
      ],
      "stateMutability": "view",
      "type": "function"
    },
    {
      "inputs": [],
      "name": "REACH_MAX",
      "outputs": [
        {
          "internalType": "string",
          "name": "",
          "type": "string"
        }
      ],
      "stateMutability": "view",
      "type": "function"
    },
    {
      "inputs": [],
      "name": "SEED_INV",
      "outputs": [
        {
          "internalType": "string",
          "name": "",
          "type": "string"
        }
      ],
      "stateMutability": "view",
      "type": "function"
    },
    {
      "inputs": [],
      "name": "SEED_INV_1",
      "outputs": [
        {
          "internalType": "string",
          "name": "",
          "type": "string"
        }
      ],
      "stateMutability": "view",
      "type": "function"
    },
    {
      "inputs": [],
      "name": "SEED_INV_2",
      "outputs": [
        {
          "internalType": "string",
          "name": "",
          "type": "string"
        }
      ],
      "stateMutability": "view",
      "type": "function"
    },
    {
      "inputs": [],
      "name": "SUCCESS",
      "outputs": [
        {
          "internalType": "string",
          "name": "",
          "type": "string"
        }
      ],
      "stateMutability": "view",
      "type": "function"
    },
    {
      "inputs": [],
      "name": "TOKEN_HAS_SEED",
      "outputs": [
        {
          "internalType": "string",
          "name": "",
          "type": "string"
        }
      ],
      "stateMutability": "view",
      "type": "function"
    },
    {
      "inputs": [],
      "name": "TOO_HIGH",
      "outputs": [
        {
          "internalType": "string",
          "name": "",
          "type": "string"
        }
      ],
      "stateMutability": "view",
      "type": "function"
    },
    {
      "inputs": [],
      "name": "ZERO_ADDR",
      "outputs": [
        {
          "internalType": "address",
          "name": "",
          "type": "address"
        }
      ],
      "stateMutability": "view",
      "type": "function"
    },
    {
      "inputs": [],
      "name": "ZERO_SEED",
      "outputs": [
        {
          "internalType": "string",
          "name": "",
          "type": "string"
        }
      ],
      "stateMutability": "view",
      "type": "function"
    }
  ],
  "bytecode": "0x61042661003a600b82828239805160001a60731461002d57634e487b7160e01b600052600060045260246000fd5b30600052607381538281f3fe73000000000000000000000000000000000000000030146080604052600436106101205760003560e01c8063652b7f31116100ac5780639bf3cfe31161007b5780639bf3cfe3146102f3578063b746287b14610315578063d0a6d1a614610337578063dd48a58314610357578063feff83c31461037957600080fd5b8063652b7f311461026b578063726705081461028d5780637672b6f2146102af57806386f8148f146102d157600080fd5b80633a13248f116100f35780633a13248f146101c35780635367c586146101e5578063552e387c14610207578063585c081c14610229578063637310801461024b57600080fd5b806309d9c84014610125578063143c1c361461015d578063233122971461017f57806338abf0c9146101a1575b600080fd5b6101476040518060400160405280600381526020016232303760e81b81525081565b604051610154919061039b565b60405180910390f35b6101476040518060400160405280600381526020016203231360ec1b81525081565b6101476040518060400160405280600381526020016232303360e81b81525081565b6101476040518060400160405280600381526020016219181960e91b81525081565b6101476040518060400160405280600381526020016219189960e91b81525081565b6101476040518060400160405280600381526020016206460760eb1b81525081565b6101476040518060400160405280600381526020016231303160e81b81525081565b6101476040518060400160405280600381526020016232303960e81b81525081565b610253600081565b6040516001600160a01b039091168152602001610154565b6101476040518060400160405280600381526020016232303160e81b81525081565b6101476040518060400160405280600381526020016203130360ec1b81525081565b6101476040518060400160405280600381526020016232303560e81b81525081565b6101476040518060400160405280600381526020016203230360ec1b81525081565b6101476040518060400160405280600381526020016232313160e81b81525081565b6101476040518060400160405280600381526020016218981960e91b81525081565b610147604051806040016040528060018152602001600360fc1b81525081565b6101476040518060400160405280600381526020016219181b60e91b81525081565b610147604051806040016040528060038152602001620c8c0d60ea1b81525081565b600060208083528351808285015260005b818110156103c8578581018301518582016040015282016103ac565b818111156103da576000604083870101525b50601f01601f191692909201604001939250505056fea26469706673582212202e1d618f71b1737b1fefdd9afdf6297c66cc6cc5b8f28bfb7c980795a51d867364736f6c634300080c0033",
  "linkReferences": {},
  "deployedLinkReferences": {}
}