{
  "_format": "hh-sol-artifact-1",
  "contractName": "Errors",
  "sourceName": "contracts/libs/helpers/Errors.sol",
  "abi": [
    {
      "inputs": [],
      "name": "CONTRACT_SEALED",
      "outputs": [
        {
          "internalType": "string",
          "name": "",
          "type": "string"
        }
      ],
      "stateMutability": "view",
      "type": "function"
    },
    {
      "inputs": [],
      "name": "DAO_VESTING_ERROR_ADDR",
      "outputs": [
        {
          "internalType": "string",
          "name": "",
          "type": "string"
        }
      ],
      "stateMutability": "view",
      "type": "function"
    },
    {
      "inputs": [],
      "name": "ERC20_BALANCE_INVALID",
      "outputs": [
        {
          "internalType": "string",
          "name": "",
          "type": "string"
        }
      ],
      "stateMutability": "view",
      "type": "function"
    },
    {
      "inputs": [],
      "name": "ERC20_NOT_APPROVED",
      "outputs": [
        {
          "internalType": "string",
          "name": "",
          "type": "string"
        }
      ],
      "stateMutability": "view",
      "type": "function"
    },
    {
      "inputs": [],
      "name": "ERC_20_NOT_ALLOW",
      "outputs": [
        {
          "internalType": "string",
          "name": "",
          "type": "string"
        }
      ],
      "stateMutability": "view",
      "type": "function"
    },
    {
      "inputs": [],
      "name": "ERC_721_NOT_APPROVED",
      "outputs": [
        {
          "internalType": "string",
          "name": "",
          "type": "string"
        }
      ],
      "stateMutability": "view",
      "type": "function"
    },
    {
      "inputs": [],
      "name": "FORBIDDEN_TRANSFER_PROJECT",
      "outputs": [
        {
          "internalType": "string",
          "name": "",
          "type": "string"
        }
      ],
      "stateMutability": "view",
      "type": "function"
    },
    {
      "inputs": [],
      "name": "INVALID_ERC721_OWNER",
      "outputs": [
        {
          "internalType": "string",
          "name": "",
          "type": "string"
        }
      ],
      "stateMutability": "view",
      "type": "function"
    },
    {
      "inputs": [],
      "name": "INVALID_ITEM_TYPE",
      "outputs": [
        {
          "internalType": "string",
          "name": "",
          "type": "string"
        }
      ],
      "stateMutability": "view",
      "type": "function"
    },
    {
      "inputs": [],
      "name": "INV_ADD",
      "outputs": [
        {
          "internalType": "string",
          "name": "",
          "type": "string"
        }
      ],
      "stateMutability": "view",
      "type": "function"
    },
    {
      "inputs": [],
      "name": "INV_FEE_PROJECT",
      "outputs": [
        {
          "internalType": "string",
          "name": "",
          "type": "string"
        }
      ],
      "stateMutability": "view",
      "type": "function"
    },
    {
      "inputs": [],
      "name": "INV_PARAMS",
      "outputs": [
        {
          "internalType": "string",
          "name": "",
          "type": "string"
        }
      ],
      "stateMutability": "view",
      "type": "function"
    },
    {
      "inputs": [],
      "name": "INV_PROJECT",
      "outputs": [
        {
          "internalType": "string",
          "name": "",
          "type": "string"
        }
      ],
      "stateMutability": "view",
      "type": "function"
    },
    {
      "inputs": [],
      "name": "INV_TOKEN",
      "outputs": [
        {
          "internalType": "string",
          "name": "",
          "type": "string"
        }
      ],
      "stateMutability": "view",
      "type": "function"
    },
    {
      "inputs": [],
      "name": "ITEM_NOT_EXIST",
      "outputs": [
        {
          "internalType": "string",
          "name": "",
          "type": "string"
        }
      ],
      "stateMutability": "view",
      "type": "function"
    },
    {
      "inputs": [],
      "name": "MISSING_NAME",
      "outputs": [
        {
          "internalType": "string",
          "name": "",
          "type": "string"
        }
      ],
      "stateMutability": "view",
      "type": "function"
    },
    {
      "inputs": [],
      "name": "OFFERING_CLOSED",
      "outputs": [
        {
          "internalType": "string",
          "name": "",
          "type": "string"
        }
      ],
      "stateMutability": "view",
      "type": "function"
    },
    {
      "inputs": [],
      "name": "ONLY_ADMIN_ALLOWED",
      "outputs": [
        {
          "internalType": "string",
          "name": "",
          "type": "string"
        }
      ],
      "stateMutability": "view",
      "type": "function"
    },
    {
      "inputs": [],
      "name": "ONLY_AGENT_CONTRACT",
      "outputs": [
        {
          "internalType": "string",
          "name": "",
          "type": "string"
        }
      ],
      "stateMutability": "view",
      "type": "function"
    },
    {
      "inputs": [],
      "name": "ONLY_CREATOR",
      "outputs": [
        {
          "internalType": "string",
          "name": "",
          "type": "string"
        }
      ],
      "stateMutability": "view",
      "type": "function"
    },
    {
      "inputs": [],
      "name": "ONLY_DEPLOYER",
      "outputs": [
        {
          "internalType": "string",
          "name": "",
          "type": "string"
        }
      ],
      "stateMutability": "view",
      "type": "function"
    },
    {
      "inputs": [],
      "name": "ONLY_GENERATIVE_PROJECT",
      "outputs": [
        {
          "internalType": "string",
          "name": "",
          "type": "string"
        }
      ],
      "stateMutability": "view",
      "type": "function"
    },
    {
      "inputs": [],
      "name": "OPENING_SCHEDULE",
      "outputs": [
        {
          "internalType": "string",
          "name": "",
          "type": "string"
        }
      ],
      "stateMutability": "view",
      "type": "function"
    },
    {
      "inputs": [],
      "name": "POA_INVALID_TOKEN",
      "outputs": [
        {
          "internalType": "string",
          "name": "",
          "type": "string"
        }
      ],
      "stateMutability": "view",
      "type": "function"
    },
    {
      "inputs": [],
      "name": "REACH_MAX",
      "outputs": [
        {
          "internalType": "string",
          "name": "",
          "type": "string"
        }
      ],
      "stateMutability": "view",
      "type": "function"
    },
    {
      "inputs": [],
      "name": "SUCCESS",
      "outputs": [
        {
          "internalType": "string",
          "name": "",
          "type": "string"
        }
      ],
      "stateMutability": "view",
      "type": "function"
    },
    {
      "inputs": [],
      "name": "TEAM_VESTING_ERROR_ADDR",
      "outputs": [
        {
          "internalType": "string",
          "name": "",
          "type": "string"
        }
      ],
      "stateMutability": "view",
      "type": "function"
    },
    {
      "inputs": [],
      "name": "TOKEN_HAS_SEED",
      "outputs": [
        {
          "internalType": "string",
          "name": "",
          "type": "string"
        }
      ],
      "stateMutability": "view",
      "type": "function"
    },
    {
      "inputs": [],
      "name": "TOKEN_ID_NOT_EXISTED",
      "outputs": [
        {
          "internalType": "string",
          "name": "",
          "type": "string"
        }
      ],
      "stateMutability": "view",
      "type": "function"
    },
    {
      "inputs": [],
      "name": "TOKEN_ID_NOT_UNLOCKED",
      "outputs": [
        {
          "internalType": "string",
          "name": "",
          "type": "string"
        }
      ],
      "stateMutability": "view",
      "type": "function"
    },
    {
      "inputs": [],
      "name": "TOKEN_ID_UNLOCKED",
      "outputs": [
        {
          "internalType": "string",
          "name": "",
          "type": "string"
        }
      ],
      "stateMutability": "view",
      "type": "function"
    },
    {
      "inputs": [],
      "name": "TOO_HIGH",
      "outputs": [
        {
          "internalType": "string",
          "name": "",
          "type": "string"
        }
      ],
      "stateMutability": "view",
      "type": "function"
    },
    {
      "inputs": [],
      "name": "TRANSFER_FAIL",
      "outputs": [
        {
          "internalType": "string",
          "name": "",
          "type": "string"
        }
      ],
      "stateMutability": "view",
      "type": "function"
    },
    {
      "inputs": [],
      "name": "USED_PAIRs",
      "outputs": [
        {
          "internalType": "string",
          "name": "",
          "type": "string"
        }
      ],
      "stateMutability": "view",
      "type": "function"
    },
    {
      "inputs": [],
      "name": "VALUE_INVALID",
      "outputs": [
        {
          "internalType": "string",
          "name": "",
          "type": "string"
        }
      ],
      "stateMutability": "view",
      "type": "function"
    },
    {
      "inputs": [],
      "name": "VESTING_REMAIN",
      "outputs": [
        {
          "internalType": "string",
          "name": "",
          "type": "string"
        }
      ],
      "stateMutability": "view",
      "type": "function"
    },
    {
      "inputs": [],
      "name": "VESTING_TIME_LOCK",
      "outputs": [
        {
          "internalType": "string",
          "name": "",
          "type": "string"
        }
      ],
      "stateMutability": "view",
      "type": "function"
    },
    {
      "inputs": [],
      "name": "WEIGHT_OUT",
      "outputs": [
        {
          "internalType": "string",
          "name": "",
          "type": "string"
        }
      ],
      "stateMutability": "view",
      "type": "function"
    },
    {
      "inputs": [],
      "name": "ZERO_ADDR",
      "outputs": [
        {
          "internalType": "address",
          "name": "",
          "type": "address"
        }
      ],
      "stateMutability": "view",
      "type": "function"
    },
    {
      "inputs": [],
      "name": "ZERO_DURATION",
      "outputs": [
        {
          "internalType": "string",
          "name": "",
          "type": "string"
        }
      ],
      "stateMutability": "view",
      "type": "function"
    },
    {
      "inputs": [],
      "name": "ZERO_PRICE",
      "outputs": [
        {
          "internalType": "string",
          "name": "",
          "type": "string"
        }
      ],
      "stateMutability": "view",
      "type": "function"
    },
    {
      "inputs": [],
      "name": "ZERO_SEED",
      "outputs": [
        {
          "internalType": "string",
          "name": "",
          "type": "string"
        }
      ],
      "stateMutability": "view",
      "type": "function"
    }
  ],
  "bytecode": "0x61089e61003a600b82828239805160001a60731461002d57634e487b7160e01b600052600060045260246000fd5b30600052607381538281f3fe73000000000000000000000000000000000000000030146080604052600436106102685760003560e01c80636dd580c411610150578063b92436e0116100cd578063dc18263c11610091578063dc18263c14610747578063e81216b514610769578063ec94a5771461078b578063ef494c25146107ad578063f9e93731146107cf578063feff83c3146107f157600080fd5b8063b92436e01461069f578063c059011b146106c1578063c3679ee5146106e3578063d0a6d1a614610705578063d5bec6851461072557600080fd5b80639bf3cfe3116101145780639bf3cfe3146105f5578063aa2db6f014610617578063ac4f17a514610639578063b14468141461065b578063b746287b1461067d57600080fd5b80636dd580c41461054b578063726705081461056d57806386f8148f1461058f5780638cb739c6146105b157806390131fab146105d357600080fd5b80632b72ddbd116101e9578063552e387c116101ad578063552e387c146104815780635560f1f8146104a3578063585c081c146104c557806363731080146104e7578063652b7f31146105075780636a1376741461052957600080fd5b80632b72ddbd146103d757806335a02d73146103f957806338abf0c91461041b57806338cfcb571461043d5780633a13248f1461045f57600080fd5b80631de4c066116102305780631de4c0661461032d5780631e26b2c91461034f5780632331229714610371578063243c1d6d146103935780632a342b8e146103b557600080fd5b8063074750841461026d5780630d8e7b68146102a5578063142b1c99146102c7578063143c1c36146102e95780631557ff241461030b575b600080fd5b61028f6040518060400160405280600381526020016219981b60e91b81525081565b60405161029c9190610813565b60405180910390f35b61028f6040518060400160405280600381526020016203530360ec1b81525081565b61028f6040518060400160405280600381526020016231303360e81b81525081565b61028f6040518060400160405280600381526020016219181b60e91b81525081565b61028f6040518060400160405280600381526020016206660760eb1b81525081565b61028f6040518060400160405280600381526020016218981b60e91b81525081565b61028f6040518060400160405280600381526020016235303160e81b81525081565b61028f6040518060400160405280600381526020016232303360e81b81525081565b61028f604051806040016040528060038152602001620d0c0d60ea1b81525081565b61028f6040518060400160405280600381526020016235303560e81b81525081565b61028f6040518060400160405280600381526020016219981960e91b81525081565b61028f6040518060400160405280600381526020016233303560e81b81525081565b61028f6040518060400160405280600381526020016219181960e91b81525081565b61028f6040518060400160405280600381526020016231303560e81b81525081565b61028f6040518060400160405280600381526020016206460760eb1b81525081565b61028f6040518060400160405280600381526020016231303160e81b81525081565b61028f6040518060400160405280600381526020016233303360e81b81525081565b61028f6040518060400160405280600381526020016232303560e81b81525081565b6104ef600081565b6040516001600160a01b03909116815260200161029c565b61028f6040518060400160405280600381526020016232303160e81b81525081565b61028f6040518060400160405280600381526020016203430360ec1b81525081565b61028f604051806040016040528060038152602001621a981960e91b81525081565b61028f6040518060400160405280600381526020016203130360ec1b81525081565b61028f6040518060400160405280600381526020016203230360ec1b81525081565b61028f6040518060400160405280600381526020016232303960e81b81525081565b61028f6040518060400160405280600381526020016203330360ec1b81525081565b61028f6040518060400160405280600381526020016232303760e81b81525081565b61028f604051806040016040528060038152602001620d4c0d60ea1b81525081565b61028f6040518060400160405280600381526020016235303360e81b81525081565b61028f604051806040016040528060038152602001620c4c0d60ea1b81525081565b61028f6040518060400160405280600381526020016218981960e91b81525081565b61028f6040518060400160405280600381526020016234303160e81b81525081565b61028f6040518060400160405280600381526020016233303160e81b81525081565b61028f6040518060400160405280600381526020016234303360e81b81525081565b61028f604051806040016040528060018152602001600360fc1b81525081565b61028f6040518060400160405280600381526020016233303760e81b81525081565b61028f6040518060400160405280600381526020016232313160e81b81525081565b61028f604051806040016040528060038152602001620ccc0d60ea1b81525081565b61028f6040518060400160405280600381526020016233303960e81b81525081565b61028f6040518060400160405280600381526020016203231360ec1b81525081565b61028f604051806040016040528060038152602001621a181960e91b81525081565b61028f604051806040016040528060038152602001620c8c0d60ea1b81525081565b600060208083528351808285015260005b8181101561084057858101830151858201604001528201610824565b81811115610852576000604083870101525b50601f01601f191692909201604001939250505056fea2646970667358221220fe630362b1f77f4004d09e411c9821849e2ebfed2dadd80e50a3fc6e114979ce64736f6c634300080c0033",
  "linkReferences": {},
  "deployedLinkReferences": {}
}