{
  "_format": "hh-sol-artifact-1",
  "contractName": "Errors",
  "sourceName": "contracts/libs/helpers/Errors.sol",
  "abi": [
    {
      "inputs": [],
      "name": "INV_ADD",
      "outputs": [
        {
          "internalType": "string",
          "name": "",
          "type": "string"
        }
      ],
      "stateMutability": "view",
      "type": "function"
    },
    {
      "inputs": [],
      "name": "INV_BOILERPLATE_ADD",
      "outputs": [
        {
          "internalType": "string",
          "name": "",
          "type": "string"
        }
      ],
      "stateMutability": "view",
      "type": "function"
    },
    {
      "inputs": [],
      "name": "INV_FEE_PROJECT",
      "outputs": [
        {
          "internalType": "string",
          "name": "",
          "type": "string"
        }
      ],
      "stateMutability": "view",
      "type": "function"
    },
    {
      "inputs": [],
      "name": "INV_PARAMS",
      "outputs": [
        {
          "internalType": "string",
          "name": "",
          "type": "string"
        }
      ],
      "stateMutability": "view",
      "type": "function"
    },
    {
      "inputs": [],
      "name": "INV_PROJECT",
      "outputs": [
        {
          "internalType": "string",
          "name": "",
          "type": "string"
        }
      ],
      "stateMutability": "view",
      "type": "function"
    },
    {
      "inputs": [],
      "name": "MISSING_NAME",
      "outputs": [
        {
          "internalType": "string",
          "name": "",
          "type": "string"
        }
      ],
      "stateMutability": "view",
      "type": "function"
    },
    {
      "inputs": [],
      "name": "ONLY_ADMIN_ALLOWED",
      "outputs": [
        {
          "internalType": "string",
          "name": "",
          "type": "string"
        }
      ],
      "stateMutability": "view",
      "type": "function"
    },
    {
      "inputs": [],
      "name": "ONLY_CREATOR",
      "outputs": [
        {
          "internalType": "string",
          "name": "",
          "type": "string"
        }
      ],
      "stateMutability": "view",
      "type": "function"
    },
    {
      "inputs": [],
      "name": "REACH_MAX",
      "outputs": [
        {
          "internalType": "string",
          "name": "",
          "type": "string"
        }
      ],
      "stateMutability": "view",
      "type": "function"
    },
    {
      "inputs": [],
      "name": "SEED_INV",
      "outputs": [
        {
          "internalType": "string",
          "name": "",
          "type": "string"
        }
      ],
      "stateMutability": "view",
      "type": "function"
    },
    {
      "inputs": [],
      "name": "SEED_INV_1",
      "outputs": [
        {
          "internalType": "string",
          "name": "",
          "type": "string"
        }
      ],
      "stateMutability": "view",
      "type": "function"
    },
    {
      "inputs": [],
      "name": "SEED_INV_2",
      "outputs": [
        {
          "internalType": "string",
          "name": "",
          "type": "string"
        }
      ],
      "stateMutability": "view",
      "type": "function"
    },
    {
      "inputs": [],
      "name": "SUCCESS",
      "outputs": [
        {
          "internalType": "string",
          "name": "",
          "type": "string"
        }
      ],
      "stateMutability": "view",
      "type": "function"
    },
    {
      "inputs": [],
      "name": "TOKEN_HAS_SEED",
      "outputs": [
        {
          "internalType": "string",
          "name": "",
          "type": "string"
        }
      ],
      "stateMutability": "view",
      "type": "function"
    },
    {
      "inputs": [],
      "name": "TOO_HIGH",
      "outputs": [
        {
          "internalType": "string",
          "name": "",
          "type": "string"
        }
      ],
      "stateMutability": "view",
      "type": "function"
    },
    {
      "inputs": [],
      "name": "ZERO_ADDR",
      "outputs": [
        {
          "internalType": "address",
          "name": "",
          "type": "address"
        }
      ],
      "stateMutability": "view",
      "type": "function"
    },
    {
      "inputs": [],
      "name": "ZERO_SEED",
      "outputs": [
        {
          "internalType": "string",
          "name": "",
          "type": "string"
        }
      ],
      "stateMutability": "view",
      "type": "function"
    }
  ],
  "bytecode": "0x6103f961003a600b82828239805160001a60731461002d57634e487b7160e01b600052600060045260246000fd5b30600052607381538281f3fe73000000000000000000000000000000000000000030146080604052600436106101155760003560e01c8063652b7f31116100ac5780639bf3cfe31161007b5780639bf3cfe3146102c6578063b746287b146102e8578063d0a6d1a61461030a578063dd48a5831461032a578063feff83c31461034c57600080fd5b8063652b7f311461023e57806372670508146102605780637672b6f21461028257806386f8148f146102a457600080fd5b80635367c586116100e85780635367c586146101b8578063552e387c146101da578063585c081c146101fc578063637310801461021e57600080fd5b806309d9c8401461011a578063143c1c3614610152578063233122971461017457806338abf0c914610196575b600080fd5b61013c6040518060400160405280600381526020016232303760e81b81525081565b604051610149919061036e565b60405180910390f35b61013c6040518060400160405280600381526020016203231360ec1b81525081565b61013c6040518060400160405280600381526020016232303360e81b81525081565b61013c6040518060400160405280600381526020016219181960e91b81525081565b61013c6040518060400160405280600381526020016206460760eb1b81525081565b61013c6040518060400160405280600381526020016231303160e81b81525081565b61013c6040518060400160405280600381526020016232303960e81b81525081565b610226600081565b6040516001600160a01b039091168152602001610149565b61013c6040518060400160405280600381526020016232303160e81b81525081565b61013c6040518060400160405280600381526020016203130360ec1b81525081565b61013c6040518060400160405280600381526020016232303560e81b81525081565b61013c6040518060400160405280600381526020016203230360ec1b81525081565b61013c6040518060400160405280600381526020016232313160e81b81525081565b61013c6040518060400160405280600381526020016218981960e91b81525081565b61013c604051806040016040528060018152602001600360fc1b81525081565b61013c6040518060400160405280600381526020016219181b60e91b81525081565b61013c604051806040016040528060038152602001620c8c0d60ea1b81525081565b600060208083528351808285015260005b8181101561039b5785810183015185820160400152820161037f565b818111156103ad576000604083870101525b50601f01601f191692909201604001939250505056fea2646970667358221220d5ec3404de69f4ac3fd6be352ea3a335a1d86125016b1e087a9a0d2b7d5ee6cb64736f6c634300080c0033",
  "linkReferences": {},
  "deployedLinkReferences": {}
}