{
  "_format": "hh-sol-artifact-1",
  "contractName": "Errors",
  "sourceName": "contracts/libs/helpers/Errors.sol",
  "abi": [
    {
      "inputs": [],
      "name": "ERC20_BALANCE_INVALID",
      "outputs": [
        {
          "internalType": "string",
          "name": "",
          "type": "string"
        }
      ],
      "stateMutability": "view",
      "type": "function"
    },
    {
      "inputs": [],
      "name": "ERC20_NOT_APPROVED",
      "outputs": [
        {
          "internalType": "string",
          "name": "",
          "type": "string"
        }
      ],
      "stateMutability": "view",
      "type": "function"
    },
    {
      "inputs": [],
      "name": "ERC_20_NOT_ALLOW",
      "outputs": [
        {
          "internalType": "string",
          "name": "",
          "type": "string"
        }
      ],
      "stateMutability": "view",
      "type": "function"
    },
    {
      "inputs": [],
      "name": "ERC_721_NOT_APPROVED",
      "outputs": [
        {
          "internalType": "string",
          "name": "",
          "type": "string"
        }
      ],
      "stateMutability": "view",
      "type": "function"
    },
    {
      "inputs": [],
      "name": "FORBIDDEN_TRANSFER_PROJECT",
      "outputs": [
        {
          "internalType": "string",
          "name": "",
          "type": "string"
        }
      ],
      "stateMutability": "view",
      "type": "function"
    },
    {
      "inputs": [],
      "name": "INVALID_ERC721_OWNER",
      "outputs": [
        {
          "internalType": "string",
          "name": "",
          "type": "string"
        }
      ],
      "stateMutability": "view",
      "type": "function"
    },
    {
      "inputs": [],
      "name": "INV_ADD",
      "outputs": [
        {
          "internalType": "string",
          "name": "",
          "type": "string"
        }
      ],
      "stateMutability": "view",
      "type": "function"
    },
    {
      "inputs": [],
      "name": "INV_FEE_PROJECT",
      "outputs": [
        {
          "internalType": "string",
          "name": "",
          "type": "string"
        }
      ],
      "stateMutability": "view",
      "type": "function"
    },
    {
      "inputs": [],
      "name": "INV_PARAMS",
      "outputs": [
        {
          "internalType": "string",
          "name": "",
          "type": "string"
        }
      ],
      "stateMutability": "view",
      "type": "function"
    },
    {
      "inputs": [],
      "name": "INV_PROJECT",
      "outputs": [
        {
          "internalType": "string",
          "name": "",
          "type": "string"
        }
      ],
      "stateMutability": "view",
      "type": "function"
    },
    {
      "inputs": [],
      "name": "INV_TOKEN",
      "outputs": [
        {
          "internalType": "string",
          "name": "",
          "type": "string"
        }
      ],
      "stateMutability": "view",
      "type": "function"
    },
    {
      "inputs": [],
      "name": "MISSING_NAME",
      "outputs": [
        {
          "internalType": "string",
          "name": "",
          "type": "string"
        }
      ],
      "stateMutability": "view",
      "type": "function"
    },
    {
      "inputs": [],
      "name": "OFFERING_CLOSED",
      "outputs": [
        {
          "internalType": "string",
          "name": "",
          "type": "string"
        }
      ],
      "stateMutability": "view",
      "type": "function"
    },
    {
      "inputs": [],
      "name": "ONLY_ADMIN_ALLOWED",
      "outputs": [
        {
          "internalType": "string",
          "name": "",
          "type": "string"
        }
      ],
      "stateMutability": "view",
      "type": "function"
    },
    {
      "inputs": [],
      "name": "ONLY_CREATOR",
      "outputs": [
        {
          "internalType": "string",
          "name": "",
          "type": "string"
        }
      ],
      "stateMutability": "view",
      "type": "function"
    },
    {
      "inputs": [],
      "name": "OPENING_SCHEDULE",
      "outputs": [
        {
          "internalType": "string",
          "name": "",
          "type": "string"
        }
      ],
      "stateMutability": "view",
      "type": "function"
    },
    {
      "inputs": [],
      "name": "REACH_MAX",
      "outputs": [
        {
          "internalType": "string",
          "name": "",
          "type": "string"
        }
      ],
      "stateMutability": "view",
      "type": "function"
    },
    {
      "inputs": [],
      "name": "SUCCESS",
      "outputs": [
        {
          "internalType": "string",
          "name": "",
          "type": "string"
        }
      ],
      "stateMutability": "view",
      "type": "function"
    },
    {
      "inputs": [],
      "name": "TOKEN_HAS_SEED",
      "outputs": [
        {
          "internalType": "string",
          "name": "",
          "type": "string"
        }
      ],
      "stateMutability": "view",
      "type": "function"
    },
    {
      "inputs": [],
      "name": "TOO_HIGH",
      "outputs": [
        {
          "internalType": "string",
          "name": "",
          "type": "string"
        }
      ],
      "stateMutability": "view",
      "type": "function"
    },
    {
      "inputs": [],
      "name": "TRANSFER_FAIL",
      "outputs": [
        {
          "internalType": "string",
          "name": "",
          "type": "string"
        }
      ],
      "stateMutability": "view",
      "type": "function"
    },
    {
      "inputs": [],
      "name": "VALUE_INVALID",
      "outputs": [
        {
          "internalType": "string",
          "name": "",
          "type": "string"
        }
      ],
      "stateMutability": "view",
      "type": "function"
    },
    {
      "inputs": [],
      "name": "ZERO_ADDR",
      "outputs": [
        {
          "internalType": "address",
          "name": "",
          "type": "address"
        }
      ],
      "stateMutability": "view",
      "type": "function"
    },
    {
      "inputs": [],
      "name": "ZERO_DURATION",
      "outputs": [
        {
          "internalType": "string",
          "name": "",
          "type": "string"
        }
      ],
      "stateMutability": "view",
      "type": "function"
    },
    {
      "inputs": [],
      "name": "ZERO_PRICE",
      "outputs": [
        {
          "internalType": "string",
          "name": "",
          "type": "string"
        }
      ],
      "stateMutability": "view",
      "type": "function"
    },
    {
      "inputs": [],
      "name": "ZERO_SEED",
      "outputs": [
        {
          "internalType": "string",
          "name": "",
          "type": "string"
        }
      ],
      "stateMutability": "view",
      "type": "function"
    }
  ],
  "bytecode": "0x6105ae61003a600b82828239805160001a60731461002d57634e487b7160e01b600052600060045260246000fd5b30600052607381538281f3fe73000000000000000000000000000000000000000030146080604052600436106101985760003560e01c806372670508116100e8578063c059011b116100a1578063e81216b51161007b578063e81216b51461049b578063ec94a577146104bd578063ef494c25146104df578063feff83c31461050157600080fd5b8063c059011b14610437578063d0a6d1a614610459578063d5bec6851461047957600080fd5b8063726705081461036b57806386f8148f1461038d5780638cb739c6146103af57806390131fab146103d15780639bf3cfe3146103f3578063b746287b1461041557600080fd5b806338abf0c9116101555780635560f1f81161012f5780635560f1f8146102e5578063585c081c146103075780636373108014610329578063652b7f311461034957600080fd5b806338abf0c91461027f5780633a13248f146102a1578063552e387c146102c357600080fd5b8063074750841461019d578063143c1c36146101d55780631557ff24146101f757806323312297146102195780632b72ddbd1461023b57806335a02d731461025d575b600080fd5b6101bf6040518060400160405280600381526020016219981b60e91b81525081565b6040516101cc9190610523565b60405180910390f35b6101bf6040518060400160405280600381526020016219181b60e91b81525081565b6101bf6040518060400160405280600381526020016206660760eb1b81525081565b6101bf6040518060400160405280600381526020016232303360e81b81525081565b6101bf6040518060400160405280600381526020016219981960e91b81525081565b6101bf6040518060400160405280600381526020016233303560e81b81525081565b6101bf6040518060400160405280600381526020016219181960e91b81525081565b6101bf6040518060400160405280600381526020016206460760eb1b81525081565b6101bf6040518060400160405280600381526020016231303160e81b81525081565b6101bf6040518060400160405280600381526020016233303360e81b81525081565b6101bf6040518060400160405280600381526020016232303560e81b81525081565b610331600081565b6040516001600160a01b0390911681526020016101cc565b6101bf6040518060400160405280600381526020016232303160e81b81525081565b6101bf6040518060400160405280600381526020016203130360ec1b81525081565b6101bf6040518060400160405280600381526020016203230360ec1b81525081565b6101bf6040518060400160405280600381526020016232303960e81b81525081565b6101bf6040518060400160405280600381526020016203330360ec1b81525081565b6101bf6040518060400160405280600381526020016232303760e81b81525081565b6101bf6040518060400160405280600381526020016218981960e91b81525081565b6101bf6040518060400160405280600381526020016233303160e81b81525081565b6101bf604051806040016040528060018152602001600360fc1b81525081565b6101bf6040518060400160405280600381526020016233303760e81b81525081565b6101bf604051806040016040528060038152602001620ccc0d60ea1b81525081565b6101bf6040518060400160405280600381526020016233303960e81b81525081565b6101bf6040518060400160405280600381526020016203231360ec1b81525081565b6101bf604051806040016040528060038152602001620c8c0d60ea1b81525081565b600060208083528351808285015260005b8181101561055057858101830151858201604001528201610534565b81811115610562576000604083870101525b50601f01601f191692909201604001939250505056fea2646970667358221220d328ffa31b077498c615ca147fede3c583f2800dfc3d6911d4a6a0e22d2876e364736f6c634300080c0033",
  "linkReferences": {},
  "deployedLinkReferences": {}
}