{
  "_format": "hh-sol-artifact-1",
  "contractName": "Solaris",
  "sourceName": "contracts/nfts/Solaris.sol",
  "abi": [
    {
      "anonymous": false,
      "inputs": [
        {
          "indexed": true,
          "internalType": "address",
          "name": "owner",
          "type": "address"
        },
        {
          "indexed": true,
          "internalType": "address",
          "name": "approved",
          "type": "address"
        },
        {
          "indexed": true,
          "internalType": "uint256",
          "name": "tokenId",
          "type": "uint256"
        }
      ],
      "name": "Approval",
      "type": "event"
    },
    {
      "anonymous": false,
      "inputs": [
        {
          "indexed": true,
          "internalType": "address",
          "name": "owner",
          "type": "address"
        },
        {
          "indexed": true,
          "internalType": "address",
          "name": "operator",
          "type": "address"
        },
        {
          "indexed": false,
          "internalType": "bool",
          "name": "approved",
          "type": "bool"
        }
      ],
      "name": "ApprovalForAll",
      "type": "event"
    },
    {
      "anonymous": false,
      "inputs": [
        {
          "indexed": false,
          "internalType": "uint8",
          "name": "version",
          "type": "uint8"
        }
      ],
      "name": "Initialized",
      "type": "event"
    },
    {
      "anonymous": false,
      "inputs": [
        {
          "indexed": true,
          "internalType": "address",
          "name": "previousOwner",
          "type": "address"
        },
        {
          "indexed": true,
          "internalType": "address",
          "name": "newOwner",
          "type": "address"
        }
      ],
      "name": "OwnershipTransferred",
      "type": "event"
    },
    {
      "anonymous": false,
      "inputs": [
        {
          "indexed": false,
          "internalType": "address",
          "name": "account",
          "type": "address"
        }
      ],
      "name": "Paused",
      "type": "event"
    },
    {
      "anonymous": false,
      "inputs": [
        {
          "indexed": true,
          "internalType": "address",
          "name": "from",
          "type": "address"
        },
        {
          "indexed": true,
          "internalType": "address",
          "name": "to",
          "type": "address"
        },
        {
          "indexed": true,
          "internalType": "uint256",
          "name": "tokenId",
          "type": "uint256"
        }
      ],
      "name": "Transfer",
      "type": "event"
    },
    {
      "anonymous": false,
      "inputs": [
        {
          "indexed": false,
          "internalType": "address",
          "name": "account",
          "type": "address"
        }
      ],
      "name": "Unpaused",
      "type": "event"
    },
    {
      "inputs": [],
      "name": "_admin",
      "outputs": [
        {
          "internalType": "address",
          "name": "",
          "type": "address"
        }
      ],
      "stateMutability": "view",
      "type": "function"
    },
    {
      "inputs": [],
      "name": "_brc20Token",
      "outputs": [
        {
          "internalType": "address",
          "name": "",
          "type": "address"
        }
      ],
      "stateMutability": "view",
      "type": "function"
    },
    {
      "inputs": [],
      "name": "_paramsAddress",
      "outputs": [
        {
          "internalType": "address",
          "name": "",
          "type": "address"
        }
      ],
      "stateMutability": "view",
      "type": "function"
    },
    {
      "inputs": [],
      "name": "_randomizerAddr",
      "outputs": [
        {
          "internalType": "address",
          "name": "",
          "type": "address"
        }
      ],
      "stateMutability": "view",
      "type": "function"
    },
    {
      "inputs": [],
      "name": "_script",
      "outputs": [
        {
          "internalType": "string",
          "name": "",
          "type": "string"
        }
      ],
      "stateMutability": "view",
      "type": "function"
    },
    {
      "inputs": [
        {
          "internalType": "address",
          "name": "to",
          "type": "address"
        },
        {
          "internalType": "uint256",
          "name": "tokenId",
          "type": "uint256"
        }
      ],
      "name": "approve",
      "outputs": [],
      "stateMutability": "nonpayable",
      "type": "function"
    },
    {
      "inputs": [
        {
          "internalType": "address",
          "name": "owner",
          "type": "address"
        }
      ],
      "name": "balanceOf",
      "outputs": [
        {
          "internalType": "uint256",
          "name": "",
          "type": "uint256"
        }
      ],
      "stateMutability": "view",
      "type": "function"
    },
    {
      "inputs": [
        {
          "internalType": "address",
          "name": "newAdm",
          "type": "address"
        }
      ],
      "name": "changeAdmin",
      "outputs": [],
      "stateMutability": "nonpayable",
      "type": "function"
    },
    {
      "inputs": [
        {
          "internalType": "address",
          "name": "newBrc20",
          "type": "address"
        }
      ],
      "name": "changeBrc20Token",
      "outputs": [],
      "stateMutability": "nonpayable",
      "type": "function"
    },
    {
      "inputs": [
        {
          "internalType": "address",
          "name": "newAddr",
          "type": "address"
        }
      ],
      "name": "changeParamAddr",
      "outputs": [],
      "stateMutability": "nonpayable",
      "type": "function"
    },
    {
      "inputs": [
        {
          "internalType": "address",
          "name": "newAddr",
          "type": "address"
        }
      ],
      "name": "changeRandomizerAddr",
      "outputs": [],
      "stateMutability": "nonpayable",
      "type": "function"
    },
    {
      "inputs": [
        {
          "internalType": "string",
          "name": "newScript",
          "type": "string"
        }
      ],
      "name": "changeScript",
      "outputs": [],
      "stateMutability": "nonpayable",
      "type": "function"
    },
    {
      "inputs": [
        {
          "internalType": "uint256",
          "name": "tokenId",
          "type": "uint256"
        }
      ],
      "name": "getApproved",
      "outputs": [
        {
          "internalType": "address",
          "name": "",
          "type": "address"
        }
      ],
      "stateMutability": "view",
      "type": "function"
    },
    {
      "inputs": [
        {
          "internalType": "string",
          "name": "name",
          "type": "string"
        },
        {
          "internalType": "string",
          "name": "symbol",
          "type": "string"
        },
        {
          "internalType": "address",
          "name": "admin",
          "type": "address"
        },
        {
          "internalType": "address",
          "name": "paramsAddress",
          "type": "address"
        },
        {
          "internalType": "address",
          "name": "randomizerAddr",
          "type": "address"
        },
        {
          "internalType": "address",
          "name": "gmToken",
          "type": "address"
        }
      ],
      "name": "initialize",
      "outputs": [],
      "stateMutability": "nonpayable",
      "type": "function"
    },
    {
      "inputs": [
        {
          "internalType": "address",
          "name": "owner",
          "type": "address"
        },
        {
          "internalType": "address",
          "name": "operator",
          "type": "address"
        }
      ],
      "name": "isApprovedForAll",
      "outputs": [
        {
          "internalType": "bool",
          "name": "",
          "type": "bool"
        }
      ],
      "stateMutability": "view",
      "type": "function"
    },
    {
      "inputs": [],
      "name": "name",
      "outputs": [
        {
          "internalType": "string",
          "name": "",
          "type": "string"
        }
      ],
      "stateMutability": "view",
      "type": "function"
    },
    {
      "inputs": [],
      "name": "owner",
      "outputs": [
        {
          "internalType": "address",
          "name": "",
          "type": "address"
        }
      ],
      "stateMutability": "view",
      "type": "function"
    },
    {
      "inputs": [
        {
          "internalType": "uint256",
          "name": "tokenId",
          "type": "uint256"
        }
      ],
      "name": "ownerOf",
      "outputs": [
        {
          "internalType": "address",
          "name": "",
          "type": "address"
        }
      ],
      "stateMutability": "view",
      "type": "function"
    },
    {
      "inputs": [],
      "name": "paused",
      "outputs": [
        {
          "internalType": "bool",
          "name": "",
          "type": "bool"
        }
      ],
      "stateMutability": "view",
      "type": "function"
    },
    {
      "inputs": [],
      "name": "renounceOwnership",
      "outputs": [],
      "stateMutability": "nonpayable",
      "type": "function"
    },
    {
      "inputs": [
        {
          "internalType": "uint256",
          "name": "projectId",
          "type": "uint256"
        },
        {
          "internalType": "uint256",
          "name": "_salePrice",
          "type": "uint256"
        }
      ],
      "name": "royaltyInfo",
      "outputs": [
        {
          "internalType": "address",
          "name": "receiver",
          "type": "address"
        },
        {
          "internalType": "uint256",
          "name": "royaltyAmount",
          "type": "uint256"
        }
      ],
      "stateMutability": "view",
      "type": "function"
    },
    {
      "inputs": [
        {
          "internalType": "address",
          "name": "from",
          "type": "address"
        },
        {
          "internalType": "address",
          "name": "to",
          "type": "address"
        },
        {
          "internalType": "uint256",
          "name": "tokenId",
          "type": "uint256"
        }
      ],
      "name": "safeTransferFrom",
      "outputs": [],
      "stateMutability": "nonpayable",
      "type": "function"
    },
    {
      "inputs": [
        {
          "internalType": "address",
          "name": "from",
          "type": "address"
        },
        {
          "internalType": "address",
          "name": "to",
          "type": "address"
        },
        {
          "internalType": "uint256",
          "name": "tokenId",
          "type": "uint256"
        },
        {
          "internalType": "bytes",
          "name": "data",
          "type": "bytes"
        }
      ],
      "name": "safeTransferFrom",
      "outputs": [],
      "stateMutability": "nonpayable",
      "type": "function"
    },
    {
      "inputs": [
        {
          "internalType": "address",
          "name": "operator",
          "type": "address"
        },
        {
          "internalType": "bool",
          "name": "approved",
          "type": "bool"
        }
      ],
      "name": "setApprovalForAll",
      "outputs": [],
      "stateMutability": "nonpayable",
      "type": "function"
    },
    {
      "inputs": [
        {
          "internalType": "bytes4",
          "name": "interfaceId",
          "type": "bytes4"
        }
      ],
      "name": "supportsInterface",
      "outputs": [
        {
          "internalType": "bool",
          "name": "",
          "type": "bool"
        }
      ],
      "stateMutability": "view",
      "type": "function"
    },
    {
      "inputs": [],
      "name": "symbol",
      "outputs": [
        {
          "internalType": "string",
          "name": "",
          "type": "string"
        }
      ],
      "stateMutability": "view",
      "type": "function"
    },
    {
      "inputs": [
        {
          "internalType": "bytes32",
          "name": "seed",
          "type": "bytes32"
        }
      ],
      "name": "tokenHTML",
      "outputs": [
        {
          "internalType": "string",
          "name": "result",
          "type": "string"
        }
      ],
      "stateMutability": "view",
      "type": "function"
    },
    {
      "inputs": [
        {
          "internalType": "uint256",
          "name": "tokenId",
          "type": "uint256"
        }
      ],
      "name": "tokenIdToHash",
      "outputs": [
        {
          "internalType": "bytes32",
          "name": "",
          "type": "bytes32"
        }
      ],
      "stateMutability": "view",
      "type": "function"
    },
    {
      "inputs": [
        {
          "internalType": "uint256",
          "name": "tokenId",
          "type": "uint256"
        }
      ],
      "name": "tokenURI",
      "outputs": [
        {
          "internalType": "string",
          "name": "result",
          "type": "string"
        }
      ],
      "stateMutability": "view",
      "type": "function"
    },
    {
      "inputs": [
        {
          "internalType": "address",
          "name": "from",
          "type": "address"
        },
        {
          "internalType": "address",
          "name": "to",
          "type": "address"
        },
        {
          "internalType": "uint256",
          "name": "tokenId",
          "type": "uint256"
        }
      ],
      "name": "transferFrom",
      "outputs": [],
      "stateMutability": "nonpayable",
      "type": "function"
    },
    {
      "inputs": [
        {
          "internalType": "address",
          "name": "newOwner",
          "type": "address"
        }
      ],
      "name": "transferOwnership",
      "outputs": [],
      "stateMutability": "nonpayable",
      "type": "function"
    }
  ],
  "bytecode": "0x608060405234801561001057600080fd5b50612c02806100206000396000f3fe608060405234801561001057600080fd5b50600436106101e55760003560e01c806370a082311161010f578063adfc7dae116100a2578063e56f2fe411610071578063e56f2fe41461043a578063e985e9c51461044d578063f2fde38b14610489578063febfd6c31461049c57600080fd5b8063adfc7dae146103ed578063b88d4fde14610401578063c87b56dd14610414578063e1f796ae1461042757600080fd5b80638f283970116100de5780638f283970146103ac57806393c6cdc0146103bf57806395d89b41146103d2578063a22cb465146103da57600080fd5b806370a0823114610377578063715018a61461038a5780638a016249146103925780638da5cb5b1461039a57600080fd5b806323b872dd116101875780635c975abb116101565780635c975abb1461030d578063621a1f74146103185780636352211e1461033957806366215eb41461036357600080fd5b806323b872dd146102a1578063254c0d4d146102b45780632a55205a146102c857806342842e0e146102fa57600080fd5b8063081812fc116101c3578063081812fc14610253578063095ea7b314610266578063140f0e071461027b5780631ca9741b1461028e57600080fd5b806301bc45c9146101ea57806301ffc9a71461021b57806306fdde031461023e575b600080fd5b61015f546101fe906001600160a01b031681565b6040516001600160a01b0390911681526020015b60405180910390f35b61022e610229366004612236565b6104af565b6040519015158152602001610212565b610246610501565b60405161021291906122ab565b6101fe6102613660046122be565b610593565b6102796102743660046122f3565b6105ba565b005b6102796102893660046123ea565b6106d5565b61027961029c36600461241f565b610735565b6102796102af36600461243a565b6107c9565b610164546101fe906001600160a01b031681565b6102db6102d6366004612476565b6107fa565b604080516001600160a01b039093168352602083019190915201610212565b61027961030836600461243a565b61082b565b60975460ff1661022e565b61032b6103263660046122be565b610846565b604051908152602001610212565b6101fe6103473660046122be565b600090815261016560205260409020546001600160a01b031690565b610161546101fe906001600160a01b031681565b61032b61038536600461241f565b610924565b6102796109aa565b6102466109be565b61012d546001600160a01b03166101fe565b6102796103ba36600461241f565b610a4d565b6102796103cd36600461241f565b610ae2565b610246610b77565b6102796103e8366004612498565b610b86565b610160546101fe906001600160a01b031681565b61027961040f3660046124d4565b610b91565b6102466104223660046122be565b610bc9565b6102466104353660046122be565b610eb3565b610279610448366004612550565b610f48565b61022e61045b3660046125f5565b6001600160a01b039182166000908152606a6020908152604080832093909416825291909152205460ff1690565b61027961049736600461241f565b61114b565b6102796104aa36600461241f565b6111c1565b60006001600160e01b031982166380ac58cd60e01b14806104e057506001600160e01b03198216635b5e139f60e01b145b806104fb57506301ffc9a760e01b6001600160e01b03198316145b92915050565b6060606580546105109061261f565b80601f016020809104026020016040519081016040528092919081815260200182805461053c9061261f565b80156105895780601f1061055e57610100808354040283529160200191610589565b820191906000526020600020905b81548152906001019060200180831161056c57829003601f168201915b5050505050905090565b600061059e82611256565b506000908152606960205260409020546001600160a01b031690565b60006105c5826112b6565b9050806001600160a01b0316836001600160a01b031614156106385760405162461bcd60e51b815260206004820152602160248201527f4552433732313a20617070726f76616c20746f2063757272656e74206f776e656044820152603960f91b60648201526084015b60405180910390fd5b336001600160a01b03821614806106545750610654813361045b565b6106c65760405162461bcd60e51b815260206004820152603d60248201527f4552433732313a20617070726f76652063616c6c6572206973206e6f7420746f60448201527f6b656e206f776e6572206f7220617070726f76656420666f7220616c6c000000606482015260840161062f565b6106d08383611316565b505050565b61015f5460408051808201909152600381526231303160e81b6020820152906001600160a01b0316331461071c5760405162461bcd60e51b815260040161062f91906122ab565b50805161073190610163906020840190612187565b5050565b61015f546001600160a01b03163314801561075857506001600160a01b03811615155b6040518060400160405280600381526020016231303160e81b815250906107925760405162461bcd60e51b815260040161062f91906122ab565b50610161546001600160a01b038281169116146107c65761016180546001600160a01b0319166001600160a01b0383161790555b50565b6107d33382611384565b6107ef5760405162461bcd60e51b815260040161062f9061265a565b6106d0838383611403565b61015f546001600160a01b03166000612710610818846101f46126bd565b61082291906126dc565b90509250929050565b6106d083838360405180602001604052806000815250610b91565b600081815261016560205260408120546001600160a01b031615156040518060400160405280600381526020016232303960e81b8152509061089b5760405162461bcd60e51b815260040161062f91906122ab565b5060008281526101656020526040902054600160a01b900460a01b6001600160a01b0319166108cc57506000919050565b6000828152610165602090815260409182902054915161090792600160a01b900460a01b91016001600160a01b031991909116815260200190565b604051602081830303815290604052805190602001209050919050565b60006001600160a01b03821661098e5760405162461bcd60e51b815260206004820152602960248201527f4552433732313a2061646472657373207a65726f206973206e6f7420612076616044820152683634b21037bbb732b960b91b606482015260840161062f565b506001600160a01b031660009081526068602052604090205490565b6109b261143e565b6109bc6000611499565b565b61016380546109cc9061261f565b80601f01602080910402602001604051908101604052809291908181526020018280546109f89061261f565b8015610a455780601f10610a1a57610100808354040283529160200191610a45565b820191906000526020600020905b815481529060010190602001808311610a2857829003601f168201915b505050505081565b61015f546001600160a01b031633148015610a7057506001600160a01b03811615155b6040518060400160405280600381526020016231303160e81b81525090610aaa5760405162461bcd60e51b815260040161062f91906122ab565b5061015f546001600160a01b038281169116146107c65761015f80546001600160a01b0383166001600160a01b031990911617905550565b61015f546001600160a01b031633148015610b0557506001600160a01b03811615155b6040518060400160405280600381526020016231303160e81b81525090610b3f5760405162461bcd60e51b815260040161062f91906122ab565b50610164546001600160a01b038281169116146107c65761016480546001600160a01b0383166001600160a01b031990911617905550565b6060606680546105109061261f565b6107313383836114ec565b610b9b3383611384565b610bb75760405162461bcd60e51b815260040161062f9061265a565b610bc3848484846115bb565b50505050565b600081815261016560205260409020546060906001600160a01b031615156040518060400160405280600381526020016232303960e81b81525090610c215760405162461bcd60e51b815260040161062f91906122ab565b5060405163188687dd60e21b815260048101839052600090309063621a1f7490602401602060405180830381865afa158015610c61573d6000803e3d6000fd5b505050506040513d601f19601f82011682018060405250810190610c8591906126fe565b610160546040516370fbcb5760e11b8152600481018390529192506001600160a01b031690600090309063e1f796ae90602401600060405180830381865afa158015610cd5573d6000803e3d6000fd5b505050506040513d6000823e601f3d908101601f19168201604052610cfd9190810190612717565b9050610d316040518060a0016040528060608152602001606081526020016060815260200160608152602001606081525090565b81604051602001610d4291906127aa565b60408051601f19818403018152918152606083019190915280518082018252600e81526d109054d157d5549257d51490525560921b6020820152905163349f642f60e11b81526001600160a01b0385169163693ec85e91610da691906004016122ab565b600060405180830381865afa158015610dc3573d6000803e3d6000fd5b505050506040513d6000823e601f3d908101601f19168201604052610deb9190810190612717565b60408201819052610dfb306115ee565b610e0488611604565b610e0d876116a1565b604051602001610e2094939291906127f1565b6040516020818303038152906040528160400181905250610e898160000151610e6b8360200151604051602001610e579190612873565b6040516020818303038152906040526116ed565b60408085015160608601519151610e5794939290829060200161288f565b604051602001610e9991906129af565b604051602081830303815290604052945050505050919050565b60606101638054610ec39061261f565b80601f0160208091040260200160405190810160405280929190818152602001828054610eef9061261f565b8015610f3c5780601f10610f1157610100808354040283529160200191610f3c565b820191906000526020600020905b815481529060010190602001808311610f1f57829003601f168201915b50505050509050919050565b600054610100900460ff1615808015610f685750600054600160ff909116105b80610f825750303b158015610f82575060005460ff166001145b610fe55760405162461bcd60e51b815260206004820152602e60248201527f496e697469616c697a61626c653a20636f6e747261637420697320616c72656160448201526d191e481a5b9a5d1a585b1a5e995960921b606482015260840161062f565b6000805460ff191660011790558015611008576000805461ff0019166101001790555b60408051808201909152600381526203130360ec1b60208201526001600160a01b0386166110495760405162461bcd60e51b815260040161062f91906122ab565b5060408051808201909152600381526203130360ec1b60208201526001600160a01b03851661108b5760405162461bcd60e51b815260040161062f91906122ab565b5061016080546001600160a01b038087166001600160a01b03199283161790925561015f805488841690831617905561016180548684169083161790556101648054928516929091169190911790556110e48787611853565b6110ec611884565b6110f46118b3565b6110fc6118e2565b8015611142576000805461ff0019169055604051600181527f7f26b83ff96e1f2b6a682f133852f6798a09c465da95921460cefb38474024989060200160405180910390a15b50505050505050565b61115361143e565b6001600160a01b0381166111b85760405162461bcd60e51b815260206004820152602660248201527f4f776e61626c653a206e6577206f776e657220697320746865207a65726f206160448201526564647265737360d01b606482015260840161062f565b6107c681611499565b61015f546001600160a01b0316331480156111e457506001600160a01b03811615155b6040518060400160405280600381526020016231303160e81b8152509061121e5760405162461bcd60e51b815260040161062f91906122ab565b50610160546001600160a01b038281169116146107c65761016080546001600160a01b0383166001600160a01b031990911617905550565b600081815261016560205260409020546001600160a01b03166107c65760405162461bcd60e51b8152602060048201526018602482015277115490cdcc8c4e881a5b9d985b1a59081d1bdad95b88125160421b604482015260640161062f565b6000818152606760205260408120546001600160a01b0316806104fb5760405162461bcd60e51b8152602060048201526018602482015277115490cdcc8c4e881a5b9d985b1a59081d1bdad95b88125160421b604482015260640161062f565b600081815260696020526040902080546001600160a01b0319166001600160a01b038416908117909155819061134b826112b6565b6001600160a01b03167f8c5be1e5ebec7d5bd14f71427d1e84f3dd0314c0f7b2291e5b200ac8c7c3b92560405160405180910390a45050565b600080611390836112b6565b9050806001600160a01b0316846001600160a01b031614806113d757506001600160a01b038082166000908152606a602090815260408083209388168352929052205460ff165b806113fb5750836001600160a01b03166113f084610593565b6001600160a01b0316145b949350505050565b61140e838383611911565b60009081526101656020526040902080546001600160a01b0319166001600160a01b039290921691909117905550565b61012d546001600160a01b031633146109bc5760405162461bcd60e51b815260206004820181905260248201527f4f776e61626c653a2063616c6c6572206973206e6f7420746865206f776e6572604482015260640161062f565b61012d80546001600160a01b038381166001600160a01b0319831681179093556040519116919082907f8be0079c531659141344cd1fd0a4f28419497f9722a3daafe3b4186f6b6457e090600090a35050565b816001600160a01b0316836001600160a01b0316141561154e5760405162461bcd60e51b815260206004820152601960248201527f4552433732313a20617070726f766520746f2063616c6c657200000000000000604482015260640161062f565b6001600160a01b038381166000818152606a6020908152604080832094871680845294825291829020805460ff191686151590811790915591519182527f17307eab39ab6107e8899845ad3d59bd9653f200f220920489ca2b5937696c31910160405180910390a3505050565b6115c6848484611403565b6115d284848484611a82565b610bc35760405162461bcd60e51b815260040161062f906129f4565b60606104fb6001600160a01b0383166014611b80565b6060600061161183611d23565b600101905060008167ffffffffffffffff8111156116315761163161231d565b6040519080825280601f01601f19166020018201604052801561165b576020820181803683370190505b5090508181016020015b600019016f181899199a1a9b1b9c1cb0b131b232b360811b600a86061a8153600a850494508461169457611699565b611665565b509392505050565b60606116ac82611dfb565b6116b9608084901b611dfb565b60405161060f60f31b6020820152602281019290925260428201526062016040516020818303038152906040529050919050565b606081516000141561170d57505060408051602081019091526000815290565b6000604051806060016040528060408152602001612b8d604091399050600060038451600261173c9190612a46565b61174691906126dc565b6117519060046126bd565b90506000611760826020612a46565b67ffffffffffffffff8111156117785761177861231d565b6040519080825280601f01601f1916602001820160405280156117a2576020820181803683370190505b509050818152600183018586518101602084015b8183101561180e576003830192508251603f8160121c168501518253600182019150603f81600c1c168501518253600182019150603f8160061c168501518253600182019150603f81168501518253506001016117b6565b600389510660018114611828576002811461183957611845565b613d3d60f01b600119830152611845565b603d60f81b6000198301525b509398975050505050505050565b600054610100900460ff1661187a5760405162461bcd60e51b815260040161062f90612a5e565b6107318282611fad565b600054610100900460ff166118ab5760405162461bcd60e51b815260040161062f90612a5e565b6109bc611ffb565b600054610100900460ff166118da5760405162461bcd60e51b815260040161062f90612a5e565b6109bc612029565b600054610100900460ff166119095760405162461bcd60e51b815260040161062f90612a5e565b6109bc61205c565b826001600160a01b0316611924826112b6565b6001600160a01b03161461194a5760405162461bcd60e51b815260040161062f90612aa9565b6001600160a01b0382166119ac5760405162461bcd60e51b8152602060048201526024808201527f4552433732313a207472616e7366657220746f20746865207a65726f206164646044820152637265737360e01b606482015260840161062f565b6119b9838383600161208c565b826001600160a01b03166119cc826112b6565b6001600160a01b0316146119f25760405162461bcd60e51b815260040161062f90612aa9565b600081815260696020908152604080832080546001600160a01b03199081169091556001600160a01b0387811680865260688552838620805460001901905590871680865283862080546001019055868652606790945282852080549092168417909155905184937fddf252ad1be2c89b69c2b068fc378daa952ba7f163c4a11628f55a4df523b3ef91a4505050565b60006001600160a01b0384163b15611b7557604051630a85bd0160e11b81526001600160a01b0385169063150b7a0290611ac6903390899088908890600401612aee565b6020604051808303816000875af1925050508015611b01575060408051601f3d908101601f19168201909252611afe91810190612b2b565b60015b611b5b573d808015611b2f576040519150601f19603f3d011682016040523d82523d6000602084013e611b34565b606091505b508051611b535760405162461bcd60e51b815260040161062f906129f4565b805181602001fd5b6001600160e01b031916630a85bd0160e11b1490506113fb565b506001949350505050565b60606000611b8f8360026126bd565b611b9a906002612a46565b67ffffffffffffffff811115611bb257611bb261231d565b6040519080825280601f01601f191660200182016040528015611bdc576020820181803683370190505b509050600360fc1b81600081518110611bf757611bf7612b48565b60200101906001600160f81b031916908160001a905350600f60fb1b81600181518110611c2657611c26612b48565b60200101906001600160f81b031916908160001a9053506000611c4a8460026126bd565b611c55906001612a46565b90505b6001811115611ccd576f181899199a1a9b1b9c1cb0b131b232b360811b85600f1660108110611c8957611c89612b48565b1a60f81b828281518110611c9f57611c9f612b48565b60200101906001600160f81b031916908160001a90535060049490941c93611cc681612b5e565b9050611c58565b508315611d1c5760405162461bcd60e51b815260206004820181905260248201527f537472696e67733a20686578206c656e67746820696e73756666696369656e74604482015260640161062f565b9392505050565b60008072184f03e93ff9f4daa797ed6e38ed64bf6a1f0160401b8310611d625772184f03e93ff9f4daa797ed6e38ed64bf6a1f0160401b830492506040015b6d04ee2d6d415b85acef81000000008310611d8e576d04ee2d6d415b85acef8100000000830492506020015b662386f26fc100008310611dac57662386f26fc10000830492506010015b6305f5e1008310611dc4576305f5e100830492506008015b6127108310611dd857612710830492506004015b60648310611dea576064830492506002015b600a83106104fb5760010192915050565b7aff00000000000000ff00000000000000ff00000000000000ff00006bffffffff0000000000000000604083901c90811663ffffffff60c01b84161760201c63ffffffff60601b919091166001600160e01b031984161717601081901c9182167eff00000000000000ff00000000000000ff00000000000000ff000000000000821617600890811c7bff00000000000000ff00000000000000ff00000000000000ff000000939093167fff00000000000000ff00000000000000ff00000000000000ff000000000000009290921691909117919091179081901c7e0f000f000f000f000f000f000f000f000f000f000f000f000f000f000f000f167f0f000f000f000f000f000f000f000f000f000f000f000f000f000f000f000f00600492831c161790611f49827f0606060606060606060606060606060606060606060606060606060606060606612a46565b901c7f0f0f0f0f0f0f0f0f0f0f0f0f0f0f0f0f0f0f0f0f0f0f0f0f0f0f0f0f0f0f0f0f166007611f7991906126bd565b611fa3827f3030303030303030303030303030303030303030303030303030303030303030612a46565b6104fb9190612a46565b600054610100900460ff16611fd45760405162461bcd60e51b815260040161062f90612a5e565b8151611fe7906065906020850190612187565b5080516106d0906066906020840190612187565b600054610100900460ff166120225760405162461bcd60e51b815260040161062f90612a5e565b600160fb55565b600054610100900460ff166120505760405162461bcd60e51b815260040161062f90612a5e565b6097805460ff19169055565b600054610100900460ff166120835760405162461bcd60e51b815260040161062f90612a5e565b6109bc33611499565b612098848484846120ff565b60975460ff1615610bc35760405162461bcd60e51b815260206004820152602b60248201527f4552433732315061757361626c653a20746f6b656e207472616e73666572207760448201526a1a1a5b19481c185d5cd95960aa1b606482015260840161062f565b6001811115610bc3576001600160a01b03841615612145576001600160a01b0384166000908152606860205260408120805483929061213f908490612b75565b90915550505b6001600160a01b03831615610bc3576001600160a01b0383166000908152606860205260408120805483929061217c908490612a46565b909155505050505050565b8280546121939061261f565b90600052602060002090601f0160209004810192826121b557600085556121fb565b82601f106121ce57805160ff19168380011785556121fb565b828001600101855582156121fb579182015b828111156121fb5782518255916020019190600101906121e0565b5061220792915061220b565b5090565b5b80821115612207576000815560010161220c565b6001600160e01b0319811681146107c657600080fd5b60006020828403121561224857600080fd5b8135611d1c81612220565b60005b8381101561226e578181015183820152602001612256565b83811115610bc35750506000910152565b60008151808452612297816020860160208601612253565b601f01601f19169290920160200192915050565b602081526000611d1c602083018461227f565b6000602082840312156122d057600080fd5b5035919050565b80356001600160a01b03811681146122ee57600080fd5b919050565b6000806040838503121561230657600080fd5b61230f836122d7565b946020939093013593505050565b634e487b7160e01b600052604160045260246000fd5b604051601f8201601f1916810167ffffffffffffffff8111828210171561235c5761235c61231d565b604052919050565b600067ffffffffffffffff82111561237e5761237e61231d565b50601f01601f191660200190565b600061239f61239a84612364565b612333565b90508281528383830111156123b357600080fd5b828260208301376000602084830101529392505050565b600082601f8301126123db57600080fd5b611d1c8383356020850161238c565b6000602082840312156123fc57600080fd5b813567ffffffffffffffff81111561241357600080fd5b6113fb848285016123ca565b60006020828403121561243157600080fd5b611d1c826122d7565b60008060006060848603121561244f57600080fd5b612458846122d7565b9250612466602085016122d7565b9150604084013590509250925092565b6000806040838503121561248957600080fd5b50508035926020909101359150565b600080604083850312156124ab57600080fd5b6124b4836122d7565b9150602083013580151581146124c957600080fd5b809150509250929050565b600080600080608085870312156124ea57600080fd5b6124f3856122d7565b9350612501602086016122d7565b925060408501359150606085013567ffffffffffffffff81111561252457600080fd5b8501601f8101871361253557600080fd5b6125448782356020840161238c565b91505092959194509250565b60008060008060008060c0878903121561256957600080fd5b863567ffffffffffffffff8082111561258157600080fd5b61258d8a838b016123ca565b975060208901359150808211156125a357600080fd5b506125b089828a016123ca565b9550506125bf604088016122d7565b93506125cd606088016122d7565b92506125db608088016122d7565b91506125e960a088016122d7565b90509295509295509295565b6000806040838503121561260857600080fd5b612611836122d7565b9150610822602084016122d7565b600181811c9082168061263357607f821691505b6020821081141561265457634e487b7160e01b600052602260045260246000fd5b50919050565b6020808252602d908201527f4552433732313a2063616c6c6572206973206e6f7420746f6b656e206f776e6560408201526c1c881bdc88185c1c1c9bdd9959609a1b606082015260800190565b634e487b7160e01b600052601160045260246000fd5b60008160001904831182151516156126d7576126d76126a7565b500290565b6000826126f957634e487b7160e01b600052601260045260246000fd5b500490565b60006020828403121561271057600080fd5b5051919050565b60006020828403121561272957600080fd5b815167ffffffffffffffff81111561274057600080fd5b8201601f8101841361275157600080fd5b805161275f61239a82612364565b81815285602083850101111561277457600080fd5b612785826020830160208601612253565b95945050505050565b600081516127a0818560208601612253565b9290920192915050565b7216101130b734b6b0ba34b7b72fbab936111d1160691b815281516000906127d9816013850160208701612253565b601160f91b6013939091019283015250601401919050565b60008551612803818460208a01612253565b8083019050602f60f81b8082528651612823816001850160208b01612253565b6001920191820152845161283e816002840160208901612253565b653f736565643d60d01b600292909101918201528351612865816008840160208801612253565b016008019695505050505050565b60008251612885818460208701612253565b9190910192915050565b683d913730b6b2911d1160b91b815285516000906128b4816009850160208b01612253565b711116113232b9b1b934b83a34b7b7111d101160711b60099184019182015286516128e681601b840160208b01612253565b601160f91b601b92909101918201526b16101134b6b0b3b2911d101160a11b601c820152855161291d816028840160208a01612253565b6e1331b0b83a3ab9329e9b181818181160891b60289290910191820152845161294d816037840160208901612253565b7016101130ba3a3934b13aba32b9911d101160791b603792909101918201526129a361299661297f604884018761278e565b6a1331b0b83a3ab9329e981160a91b8152600b0190565b607d60f81b815260010190565b98975050505050505050565b7f646174613a6170706c69636174696f6e2f6a736f6e3b6261736536342c0000008152600082516129e781601d850160208701612253565b91909101601d0192915050565b60208082526032908201527f4552433732313a207472616e7366657220746f206e6f6e20455243373231526560408201527131b2b4bb32b91034b6b83632b6b2b73a32b960711b606082015260800190565b60008219821115612a5957612a596126a7565b500190565b6020808252602b908201527f496e697469616c697a61626c653a20636f6e7472616374206973206e6f74206960408201526a6e697469616c697a696e6760a81b606082015260800190565b60208082526025908201527f4552433732313a207472616e736665722066726f6d20696e636f72726563742060408201526437bbb732b960d91b606082015260800190565b6001600160a01b0385811682528416602082015260408101839052608060608201819052600090612b219083018461227f565b9695505050505050565b600060208284031215612b3d57600080fd5b8151611d1c81612220565b634e487b7160e01b600052603260045260246000fd5b600081612b6d57612b6d6126a7565b506000190190565b600082821015612b8757612b876126a7565b50039056fe4142434445464748494a4b4c4d4e4f505152535455565758595a6162636465666768696a6b6c6d6e6f707172737475767778797a303132333435363738392b2fa26469706673582212205b2d36f3921fc204d3a51c841f6d8992359d2751ad1e2f83b60d72c569f794e664736f6c634300080c0033",
  "linkReferences": {},
  "deployedLinkReferences": {}
}