{
  "_format": "hh-sol-artifact-1",
  "contractName": "Solaris",
  "sourceName": "contracts/nfts/Solaris.sol",
  "abi": [
    {
      "anonymous": false,
      "inputs": [
        {
          "indexed": true,
          "internalType": "address",
          "name": "owner",
          "type": "address"
        },
        {
          "indexed": true,
          "internalType": "address",
          "name": "approved",
          "type": "address"
        },
        {
          "indexed": true,
          "internalType": "uint256",
          "name": "tokenId",
          "type": "uint256"
        }
      ],
      "name": "Approval",
      "type": "event"
    },
    {
      "anonymous": false,
      "inputs": [
        {
          "indexed": true,
          "internalType": "address",
          "name": "owner",
          "type": "address"
        },
        {
          "indexed": true,
          "internalType": "address",
          "name": "operator",
          "type": "address"
        },
        {
          "indexed": false,
          "internalType": "bool",
          "name": "approved",
          "type": "bool"
        }
      ],
      "name": "ApprovalForAll",
      "type": "event"
    },
    {
      "anonymous": false,
      "inputs": [
        {
          "indexed": false,
          "internalType": "uint8",
          "name": "version",
          "type": "uint8"
        }
      ],
      "name": "Initialized",
      "type": "event"
    },
    {
      "anonymous": false,
      "inputs": [
        {
          "indexed": true,
          "internalType": "address",
          "name": "previousOwner",
          "type": "address"
        },
        {
          "indexed": true,
          "internalType": "address",
          "name": "newOwner",
          "type": "address"
        }
      ],
      "name": "OwnershipTransferred",
      "type": "event"
    },
    {
      "anonymous": false,
      "inputs": [
        {
          "indexed": false,
          "internalType": "address",
          "name": "account",
          "type": "address"
        }
      ],
      "name": "Paused",
      "type": "event"
    },
    {
      "anonymous": false,
      "inputs": [
        {
          "indexed": true,
          "internalType": "address",
          "name": "from",
          "type": "address"
        },
        {
          "indexed": true,
          "internalType": "address",
          "name": "to",
          "type": "address"
        },
        {
          "indexed": true,
          "internalType": "uint256",
          "name": "tokenId",
          "type": "uint256"
        }
      ],
      "name": "Transfer",
      "type": "event"
    },
    {
      "anonymous": false,
      "inputs": [
        {
          "indexed": false,
          "internalType": "address",
          "name": "account",
          "type": "address"
        }
      ],
      "name": "Unpaused",
      "type": "event"
    },
    {
      "inputs": [],
      "name": "_admin",
      "outputs": [
        {
          "internalType": "address",
          "name": "",
          "type": "address"
        }
      ],
      "stateMutability": "view",
      "type": "function"
    },
    {
      "inputs": [],
      "name": "_brc20Token",
      "outputs": [
        {
          "internalType": "address",
          "name": "",
          "type": "address"
        }
      ],
      "stateMutability": "view",
      "type": "function"
    },
    {
      "inputs": [],
      "name": "_maxSupply",
      "outputs": [
        {
          "internalType": "uint256",
          "name": "",
          "type": "uint256"
        }
      ],
      "stateMutability": "view",
      "type": "function"
    },
    {
      "inputs": [],
      "name": "_paramsAddress",
      "outputs": [
        {
          "internalType": "address",
          "name": "",
          "type": "address"
        }
      ],
      "stateMutability": "view",
      "type": "function"
    },
    {
      "inputs": [],
      "name": "_randomizerAddr",
      "outputs": [
        {
          "internalType": "address",
          "name": "",
          "type": "address"
        }
      ],
      "stateMutability": "view",
      "type": "function"
    },
    {
      "inputs": [
        {
          "internalType": "uint256",
          "name": "",
          "type": "uint256"
        },
        {
          "internalType": "address",
          "name": "",
          "type": "address"
        }
      ],
      "name": "_reservations",
      "outputs": [
        {
          "internalType": "uint256",
          "name": "",
          "type": "uint256"
        }
      ],
      "stateMutability": "view",
      "type": "function"
    },
    {
      "inputs": [],
      "name": "_script",
      "outputs": [
        {
          "internalType": "string",
          "name": "",
          "type": "string"
        }
      ],
      "stateMutability": "view",
      "type": "function"
    },
    {
      "inputs": [
        {
          "internalType": "address",
          "name": "to",
          "type": "address"
        },
        {
          "internalType": "uint256",
          "name": "tokenId",
          "type": "uint256"
        }
      ],
      "name": "approve",
      "outputs": [],
      "stateMutability": "nonpayable",
      "type": "function"
    },
    {
      "inputs": [
        {
          "internalType": "address",
          "name": "owner",
          "type": "address"
        }
      ],
      "name": "balanceOf",
      "outputs": [
        {
          "internalType": "uint256",
          "name": "",
          "type": "uint256"
        }
      ],
      "stateMutability": "view",
      "type": "function"
    },
    {
      "inputs": [
        {
          "internalType": "address",
          "name": "to",
          "type": "address"
        },
        {
          "internalType": "uint256",
          "name": "n",
          "type": "uint256"
        }
      ],
      "name": "batchMint",
      "outputs": [
        {
          "internalType": "uint256[]",
          "name": "",
          "type": "uint256[]"
        }
      ],
      "stateMutability": "payable",
      "type": "function"
    },
    {
      "inputs": [
        {
          "internalType": "address",
          "name": "newAdm",
          "type": "address"
        }
      ],
      "name": "changeAdmin",
      "outputs": [],
      "stateMutability": "nonpayable",
      "type": "function"
    },
    {
      "inputs": [
        {
          "internalType": "address",
          "name": "newBrc20",
          "type": "address"
        }
      ],
      "name": "changeBrc20Token",
      "outputs": [],
      "stateMutability": "nonpayable",
      "type": "function"
    },
    {
      "inputs": [
        {
          "internalType": "address",
          "name": "newAddr",
          "type": "address"
        }
      ],
      "name": "changeParamAddr",
      "outputs": [],
      "stateMutability": "nonpayable",
      "type": "function"
    },
    {
      "inputs": [
        {
          "internalType": "address",
          "name": "newAddr",
          "type": "address"
        }
      ],
      "name": "changeRandomizerAddr",
      "outputs": [],
      "stateMutability": "nonpayable",
      "type": "function"
    },
    {
      "inputs": [
        {
          "internalType": "string",
          "name": "newScript",
          "type": "string"
        }
      ],
      "name": "changeScript",
      "outputs": [],
      "stateMutability": "nonpayable",
      "type": "function"
    },
    {
      "inputs": [
        {
          "internalType": "uint256",
          "name": "tokenId",
          "type": "uint256"
        }
      ],
      "name": "claim",
      "outputs": [],
      "stateMutability": "payable",
      "type": "function"
    },
    {
      "inputs": [
        {
          "internalType": "uint256",
          "name": "tokenId",
          "type": "uint256"
        }
      ],
      "name": "claimable",
      "outputs": [
        {
          "internalType": "bool",
          "name": "",
          "type": "bool"
        }
      ],
      "stateMutability": "view",
      "type": "function"
    },
    {
      "inputs": [
        {
          "internalType": "uint256",
          "name": "tokenId",
          "type": "uint256"
        }
      ],
      "name": "getApproved",
      "outputs": [
        {
          "internalType": "address",
          "name": "",
          "type": "address"
        }
      ],
      "stateMutability": "view",
      "type": "function"
    },
    {
      "inputs": [
        {
          "internalType": "string",
          "name": "name",
          "type": "string"
        },
        {
          "internalType": "string",
          "name": "symbol",
          "type": "string"
        },
        {
          "internalType": "address",
          "name": "admin",
          "type": "address"
        },
        {
          "internalType": "address",
          "name": "paramsAddress",
          "type": "address"
        },
        {
          "internalType": "address",
          "name": "randomizerAddr",
          "type": "address"
        },
        {
          "internalType": "address",
          "name": "gmToken",
          "type": "address"
        }
      ],
      "name": "initialize",
      "outputs": [],
      "stateMutability": "nonpayable",
      "type": "function"
    },
    {
      "inputs": [
        {
          "internalType": "address",
          "name": "owner",
          "type": "address"
        },
        {
          "internalType": "address",
          "name": "operator",
          "type": "address"
        }
      ],
      "name": "isApprovedForAll",
      "outputs": [
        {
          "internalType": "bool",
          "name": "",
          "type": "bool"
        }
      ],
      "stateMutability": "view",
      "type": "function"
    },
    {
      "inputs": [
        {
          "internalType": "address",
          "name": "to",
          "type": "address"
        }
      ],
      "name": "mint",
      "outputs": [
        {
          "internalType": "uint256",
          "name": "tokenId",
          "type": "uint256"
        }
      ],
      "stateMutability": "payable",
      "type": "function"
    },
    {
      "inputs": [],
      "name": "name",
      "outputs": [
        {
          "internalType": "string",
          "name": "",
          "type": "string"
        }
      ],
      "stateMutability": "view",
      "type": "function"
    },
    {
      "inputs": [],
      "name": "owner",
      "outputs": [
        {
          "internalType": "address",
          "name": "",
          "type": "address"
        }
      ],
      "stateMutability": "view",
      "type": "function"
    },
    {
      "inputs": [
        {
          "internalType": "uint256",
          "name": "tokenId",
          "type": "uint256"
        }
      ],
      "name": "ownerOf",
      "outputs": [
        {
          "internalType": "address",
          "name": "",
          "type": "address"
        }
      ],
      "stateMutability": "view",
      "type": "function"
    },
    {
      "inputs": [],
      "name": "paused",
      "outputs": [
        {
          "internalType": "bool",
          "name": "",
          "type": "bool"
        }
      ],
      "stateMutability": "view",
      "type": "function"
    },
    {
      "inputs": [],
      "name": "renounceOwnership",
      "outputs": [],
      "stateMutability": "nonpayable",
      "type": "function"
    },
    {
      "inputs": [
        {
          "internalType": "uint256",
          "name": "tokenId",
          "type": "uint256"
        }
      ],
      "name": "reserve",
      "outputs": [],
      "stateMutability": "payable",
      "type": "function"
    },
    {
      "inputs": [
        {
          "internalType": "uint256",
          "name": "projectId",
          "type": "uint256"
        },
        {
          "internalType": "uint256",
          "name": "_salePrice",
          "type": "uint256"
        }
      ],
      "name": "royaltyInfo",
      "outputs": [
        {
          "internalType": "address",
          "name": "receiver",
          "type": "address"
        },
        {
          "internalType": "uint256",
          "name": "royaltyAmount",
          "type": "uint256"
        }
      ],
      "stateMutability": "view",
      "type": "function"
    },
    {
      "inputs": [
        {
          "internalType": "address",
          "name": "from",
          "type": "address"
        },
        {
          "internalType": "address",
          "name": "to",
          "type": "address"
        },
        {
          "internalType": "uint256",
          "name": "tokenId",
          "type": "uint256"
        }
      ],
      "name": "safeTransferFrom",
      "outputs": [],
      "stateMutability": "nonpayable",
      "type": "function"
    },
    {
      "inputs": [
        {
          "internalType": "address",
          "name": "from",
          "type": "address"
        },
        {
          "internalType": "address",
          "name": "to",
          "type": "address"
        },
        {
          "internalType": "uint256",
          "name": "tokenId",
          "type": "uint256"
        },
        {
          "internalType": "bytes",
          "name": "data",
          "type": "bytes"
        }
      ],
      "name": "safeTransferFrom",
      "outputs": [],
      "stateMutability": "nonpayable",
      "type": "function"
    },
    {
      "inputs": [
        {
          "internalType": "address",
          "name": "operator",
          "type": "address"
        },
        {
          "internalType": "bool",
          "name": "approved",
          "type": "bool"
        }
      ],
      "name": "setApprovalForAll",
      "outputs": [],
      "stateMutability": "nonpayable",
      "type": "function"
    },
    {
      "inputs": [
        {
          "internalType": "bytes4",
          "name": "interfaceId",
          "type": "bytes4"
        }
      ],
      "name": "supportsInterface",
      "outputs": [
        {
          "internalType": "bool",
          "name": "",
          "type": "bool"
        }
      ],
      "stateMutability": "view",
      "type": "function"
    },
    {
      "inputs": [],
      "name": "symbol",
      "outputs": [
        {
          "internalType": "string",
          "name": "",
          "type": "string"
        }
      ],
      "stateMutability": "view",
      "type": "function"
    },
    {
      "inputs": [
        {
          "internalType": "bytes32",
          "name": "seed",
          "type": "bytes32"
        }
      ],
      "name": "tokenHTML",
      "outputs": [
        {
          "internalType": "string",
          "name": "result",
          "type": "string"
        }
      ],
      "stateMutability": "view",
      "type": "function"
    },
    {
      "inputs": [
        {
          "internalType": "uint256",
          "name": "tokenId",
          "type": "uint256"
        }
      ],
      "name": "tokenIdToHash",
      "outputs": [
        {
          "internalType": "bytes32",
          "name": "",
          "type": "bytes32"
        }
      ],
      "stateMutability": "view",
      "type": "function"
    },
    {
      "inputs": [
        {
          "internalType": "uint256",
          "name": "tokenId",
          "type": "uint256"
        }
      ],
      "name": "tokenURI",
      "outputs": [
        {
          "internalType": "string",
          "name": "result",
          "type": "string"
        }
      ],
      "stateMutability": "view",
      "type": "function"
    },
    {
      "inputs": [
        {
          "internalType": "address",
          "name": "from",
          "type": "address"
        },
        {
          "internalType": "address",
          "name": "to",
          "type": "address"
        },
        {
          "internalType": "uint256",
          "name": "tokenId",
          "type": "uint256"
        }
      ],
      "name": "transferFrom",
      "outputs": [],
      "stateMutability": "nonpayable",
      "type": "function"
    },
    {
      "inputs": [
        {
          "internalType": "address",
          "name": "newOwner",
          "type": "address"
        }
      ],
      "name": "transferOwnership",
      "outputs": [],
      "stateMutability": "nonpayable",
      "type": "function"
    }
  ],
  "bytecode": "0x608060405234801561001057600080fd5b50613b56806100206000396000f3fe6080604052600436106102255760003560e01c806370a0823111610123578063adfc7dae116100ab578063e1f796ae1161006f578063e1f796ae14610682578063e56f2fe4146106a2578063e985e9c5146106c2578063f2fde38b1461070b578063febfd6c31461072b57600080fd5b8063adfc7dae146105c8578063b88d4fde146105e9578063bd5b4fa114610609578063c87b56dd14610642578063d1d58b251461066257600080fd5b80638da5cb5b116100f25780638da5cb5b146105345780638f2839701461055357806393c6cdc01461057357806395d89b4114610593578063a22cb465146105a857600080fd5b806370a08231146104d7578063715018a6146104f7578063819b25ba1461050c5780638a0162491461051f57600080fd5b8063254c0d4d116101b15780635c975abb116101755780635c975abb14610434578063621a1f741461044c5780636352211e1461046c57806366215eb4146104a35780636a627842146104c457600080fd5b8063254c0d4d146103815780632a55205a146103a2578063379607f5146103e157806342842e0e146103f457806343508b051461041457600080fd5b8063095ea7b3116101f8578063095ea7b3146102da578063140f0e07146102fc5780631ca9741b1461031c57806322f4596f1461033c57806323b872dd1461036157600080fd5b806301bc45c91461022a57806301ffc9a71461026857806306fdde0314610298578063081812fc146102ba575b600080fd5b34801561023657600080fd5b5061015f5461024b906001600160a01b031681565b6040516001600160a01b0390911681526020015b60405180910390f35b34801561027457600080fd5b506102886102833660046130ed565b61074b565b604051901515815260200161025f565b3480156102a457600080fd5b506102ad61079d565b60405161025f9190613162565b3480156102c657600080fd5b5061024b6102d5366004613175565b61082f565b3480156102e657600080fd5b506102fa6102f53660046131a5565b610856565b005b34801561030857600080fd5b506102fa61031736600461329c565b610971565b34801561032857600080fd5b506102fa6103373660046132d1565b6109d1565b34801561034857600080fd5b506103536101655481565b60405190815260200161025f565b34801561036d57600080fd5b506102fa61037c3660046132ec565b610a65565b34801561038d57600080fd5b506101645461024b906001600160a01b031681565b3480156103ae57600080fd5b506103c26103bd366004613328565b610bf4565b604080516001600160a01b03909316835260208301919091520161025f565b6102fa6103ef366004613175565b610c25565b34801561040057600080fd5b506102fa61040f3660046132ec565b610d13565b6104276104223660046131a5565b610d2e565b60405161025f919061334a565b34801561044057600080fd5b5060975460ff16610288565b34801561045857600080fd5b50610353610467366004613175565b610dda565b34801561047857600080fd5b5061024b610487366004613175565b600090815261016760205260409020546001600160a01b031690565b3480156104af57600080fd5b506101615461024b906001600160a01b031681565b6103536104d23660046132d1565b610ea8565b3480156104e357600080fd5b506103536104f23660046132d1565b610ff6565b34801561050357600080fd5b506102fa61107c565b6102fa61051a366004613175565b611090565b34801561052b57600080fd5b506102ad611172565b34801561054057600080fd5b5061012d546001600160a01b031661024b565b34801561055f57600080fd5b506102fa61056e3660046132d1565b611201565b34801561057f57600080fd5b506102fa61058e3660046132d1565b611296565b34801561059f57600080fd5b506102ad61132b565b3480156105b457600080fd5b506102fa6105c336600461338e565b61133a565b3480156105d457600080fd5b506101605461024b906001600160a01b031681565b3480156105f557600080fd5b506102fa6106043660046133ca565b611345565b34801561061557600080fd5b50610353610624366004613446565b61016660209081526000928352604080842090915290825290205481565b34801561064e57600080fd5b506102ad61065d366004613175565b6114db565b34801561066e57600080fd5b5061028861067d366004613175565b6117b2565b34801561068e57600080fd5b506102ad61069d366004613175565b61181c565b3480156106ae57600080fd5b506102fa6106bd366004613469565b6118b1565b3480156106ce57600080fd5b506102886106dd36600461350e565b6001600160a01b039182166000908152606a6020908152604080832093909416825291909152205460ff1690565b34801561071757600080fd5b506102fa6107263660046132d1565b611abb565b34801561073757600080fd5b506102fa6107463660046132d1565b611b31565b60006001600160e01b031982166380ac58cd60e01b148061077c57506001600160e01b03198216635b5e139f60e01b145b8061079757506301ffc9a760e01b6001600160e01b03198316145b92915050565b6060606580546107ac90613538565b80601f01602080910402602001604051908101604052809291908181526020018280546107d890613538565b80156108255780601f106107fa57610100808354040283529160200191610825565b820191906000526020600020905b81548152906001019060200180831161080857829003601f168201915b5050505050905090565b600061083a82611bc6565b506000908152606960205260409020546001600160a01b031690565b600061086182611c16565b9050806001600160a01b0316836001600160a01b031614156108d45760405162461bcd60e51b815260206004820152602160248201527f4552433732313a20617070726f76616c20746f2063757272656e74206f776e656044820152603960f91b60648201526084015b60405180910390fd5b336001600160a01b03821614806108f057506108f081336106dd565b6109625760405162461bcd60e51b815260206004820152603d60248201527f4552433732313a20617070726f76652063616c6c6572206973206e6f7420746f60448201527f6b656e206f776e6572206f7220617070726f76656420666f7220616c6c00000060648201526084016108cb565b61096c8383611c76565b505050565b61015f5460408051808201909152600381526231303160e81b6020820152906001600160a01b031633146109b85760405162461bcd60e51b81526004016108cb9190613162565b5080516109cd9061016390602084019061303e565b5050565b61015f546001600160a01b0316331480156109f457506001600160a01b03811615155b6040518060400160405280600381526020016231303160e81b81525090610a2e5760405162461bcd60e51b81526004016108cb9190613162565b50610161546001600160a01b03828116911614610a625761016180546001600160a01b0319166001600160a01b0383161790555b50565b336001600160a01b0384161415610aca576000610a8133611ce4565b90506000610a8d611d5d565b905080821015610ac35760405162461bcd60e51b81526020600482015260016024820152601560fa1b60448201526064016108cb565b5050610be9565b333b63ffffffff1615610b4c57610ae13382611e03565b610afd5760405162461bcd60e51b81526004016108cb90613573565b6000610b0884611ce4565b90506000610b14611d5d565b905080821015610ac35760405162461bcd60e51b8152602060048201526003602482015262545f3160e81b60448201526064016108cb565b610b55816117b2565b610b8a5760405162461bcd60e51b81526004016108cb90602080825260049082015263272fa19960e11b604082015260600190565b6000610b94611e69565b6000838152610166602090815260408083203384529091529020549091508015801590610bca575081610bc782436135d6565b10155b610be65760405162461bcd60e51b81526004016108cb906135ed565b50505b61096c838383611f07565b61015f546001600160a01b03166000612710610c12846101f461360d565b610c1c919061362c565b90509250929050565b610c2d611f42565b610c36816117b2565b610c6b5760405162461bcd60e51b81526004016108cb906020808252600490820152634e5f433160e01b604082015260600190565b6000610c75611e69565b6000838152610166602090815260408083203384529091529020549091508015801590610cab575081610ca882436135d6565b10155b610cc75760405162461bcd60e51b81526004016108cb906135ed565b600083815261016760205260409020546001600160a01b0316610ceb813386611f07565b505050600081815261016660209081526040808320338452909152812055610a62600160fb55565b61096c83838360405180602001604052806000815250611345565b606060008267ffffffffffffffff811115610d4b57610d4b6131cf565b604051908082528060200260200182016040528015610d74578160200160208202803683370190505b50905060005b83811015610dd2576000610d8d86610ea8565b905080838381518110610da257610da261364e565b60200260200101818152505062030d405a1015610dbf5750610dd2565b5080610dca81613664565b915050610d7a565b509392505050565b6000610de582611fa3565b6040518060400160405280600381526020016232303960e81b81525090610e1f5760405162461bcd60e51b81526004016108cb9190613162565b5060008281526101676020526040902054600160a01b900460a01b6001600160a01b031916610e5057506000919050565b60008281526101676020908152604091829020549151610e8b92600160a01b900460a01b91016001600160a01b031991909116815260200190565b604051602081830303815290604052805190602001209050919050565b6000610eb2611f42565b6101655461016254106040518060400160405280600381526020016232303360e81b81525090610ef55760405162461bcd60e51b81526004016108cb9190613162565b5061015f5460408051808201909152600381526231303160e81b6020820152906001600160a01b03163314610f3d5760405162461bcd60e51b81526004016108cb9190613162565b506101628054906000610f4f83613664565b9190505550610162549050610f648282611fc1565b61016154604051631da00d8560e01b8152600481018390526001600160a01b03909116906000908290631da00d85906024016020604051808303816000875af1158015610fb5573d6000803e3d6000fd5b505050506040513d601f19601f82011682018060405250810190610fd9919061367f565b9050610fe58382611fdb565b5050610ff1600160fb55565b919050565b60006001600160a01b0382166110605760405162461bcd60e51b815260206004820152602960248201527f4552433732313a2061646472657373207a65726f206973206e6f7420612076616044820152683634b21037bbb732b960b91b60648201526084016108cb565b506001600160a01b031660009081526068602052604090205490565b6110846120a6565b61108e6000612101565b565b611098611f42565b6110a1816117b2565b6110d65760405162461bcd60e51b81526004016108cb9060208082526004908201526304e5f43360e41b604082015260600190565b60006110e0611e69565b60008381526101666020908152604080832033845290915290205490915080158061111457508161111182436135d6565b10155b6111495760405162461bcd60e51b81526020600482015260066024820152654e5f43305f3160d01b60448201526064016108cb565b50506000818152610166602090815260408083203384529091529020439055610a62600160fb55565b610163805461118090613538565b80601f01602080910402602001604051908101604052809291908181526020018280546111ac90613538565b80156111f95780601f106111ce576101008083540402835291602001916111f9565b820191906000526020600020905b8154815290600101906020018083116111dc57829003601f168201915b505050505081565b61015f546001600160a01b03163314801561122457506001600160a01b03811615155b6040518060400160405280600381526020016231303160e81b8152509061125e5760405162461bcd60e51b81526004016108cb9190613162565b5061015f546001600160a01b03828116911614610a625761015f80546001600160a01b0383166001600160a01b031990911617905550565b61015f546001600160a01b0316331480156112b957506001600160a01b03811615155b6040518060400160405280600381526020016231303160e81b815250906112f35760405162461bcd60e51b81526004016108cb9190613162565b50610164546001600160a01b03828116911614610a625761016480546001600160a01b0383166001600160a01b031990911617905550565b6060606680546107ac90613538565b6109cd338383612154565b336001600160a01b03851614156113aa57600061136133611ce4565b9050600061136d611d5d565b9050808210156113a35760405162461bcd60e51b81526020600482015260016024820152601560fa1b60448201526064016108cb565b50506114c9565b333b63ffffffff161561142c576113c13383611e03565b6113dd5760405162461bcd60e51b81526004016108cb90613573565b60006113e885611ce4565b905060006113f4611d5d565b9050808210156113a35760405162461bcd60e51b8152602060048201526003602482015262545f3160e81b60448201526064016108cb565b611435826117b2565b61146a5760405162461bcd60e51b81526004016108cb90602080825260049082015263272fa19960e11b604082015260600190565b6000611474611e69565b60008481526101666020908152604080832033845290915290205490915080158015906114aa5750816114a782436135d6565b10155b6114c65760405162461bcd60e51b81526004016108cb906135ed565b50505b6114d584848484612223565b50505050565b60606114e682611fa3565b6040518060400160405280600381526020016232303960e81b815250906115205760405162461bcd60e51b81526004016108cb9190613162565b5060405163188687dd60e21b815260048101839052600090309063621a1f7490602401602060405180830381865afa158015611560573d6000803e3d6000fd5b505050506040513d601f19601f82011682018060405250810190611584919061367f565b610160546040516370fbcb5760e11b8152600481018390529192506001600160a01b031690600090309063e1f796ae90602401600060405180830381865afa1580156115d4573d6000803e3d6000fd5b505050506040513d6000823e601f3d908101601f191682016040526115fc9190810190613698565b90506116306040518060a0016040528060608152602001606081526020016060815260200160608152602001606081525090565b81604051602001611641919061372b565b60408051601f19818403018152918152606083019190915280518082018252600e81526d109054d157d5549257d51490525560921b6020820152905163349f642f60e11b81526001600160a01b0385169163693ec85e916116a59190600401613162565b600060405180830381865afa1580156116c2573d6000803e3d6000fd5b505050506040513d6000823e601f3d908101601f191682016040526116ea9190810190613698565b604082018190526116fa30612256565b6117038861226c565b61170c87612301565b60405160200161171f9493929190613772565b6040516020818303038152906040528160400181905250611788816000015161176a836020015160405160200161175691906137f4565b60405160208183030381529060405261234d565b60408085015160608601519151611756949392908290602001613810565b6040516020016117989190613930565b604051602081830303815290604052945050505050919050565b600081815261016760205260408120546001600160a01b0316816117d582611ce4565b905060006117e233611ce4565b905060006117ee611d5d565b905080831080156117ff5750808210155b156118105750600195945050505050565b50600095945050505050565b6060610163805461182c90613538565b80601f016020809104026020016040519081016040528092919081815260200182805461185890613538565b80156118a55780601f1061187a576101008083540402835291602001916118a5565b820191906000526020600020905b81548152906001019060200180831161188857829003601f168201915b50505050509050919050565b600054610100900460ff16158080156118d15750600054600160ff909116105b806118eb5750303b1580156118eb575060005460ff166001145b61194e5760405162461bcd60e51b815260206004820152602e60248201527f496e697469616c697a61626c653a20636f6e747261637420697320616c72656160448201526d191e481a5b9a5d1a585b1a5e995960921b60648201526084016108cb565b6000805460ff191660011790558015611971576000805461ff0019166101001790555b60408051808201909152600381526203130360ec1b60208201526001600160a01b0386166119b25760405162461bcd60e51b81526004016108cb9190613162565b5060408051808201909152600381526203130360ec1b60208201526001600160a01b0385166119f45760405162461bcd60e51b81526004016108cb9190613162565b5061016080546001600160a01b038087166001600160a01b03199283161790925561015f805488841690831617905561016180548684169083161790556101648054928516929091169190911790556103e861016555611a5487876124b3565b611a5c6124e4565b611a64612513565b611a6c612542565b8015611ab2576000805461ff0019169055604051600181527f7f26b83ff96e1f2b6a682f133852f6798a09c465da95921460cefb38474024989060200160405180910390a15b50505050505050565b611ac36120a6565b6001600160a01b038116611b285760405162461bcd60e51b815260206004820152602660248201527f4f776e61626c653a206e6577206f776e657220697320746865207a65726f206160448201526564647265737360d01b60648201526084016108cb565b610a6281612101565b61015f546001600160a01b031633148015611b5457506001600160a01b03811615155b6040518060400160405280600381526020016231303160e81b81525090611b8e5760405162461bcd60e51b81526004016108cb9190613162565b50610160546001600160a01b03828116911614610a625761016080546001600160a01b0383166001600160a01b031990911617905550565b611bcf81611fa3565b610a625760405162461bcd60e51b8152602060048201526018602482015277115490cdcc8c4e881a5b9d985b1a59081d1bdad95b88125160421b60448201526064016108cb565b6000818152606760205260408120546001600160a01b0316806107975760405162461bcd60e51b8152602060048201526018602482015277115490cdcc8c4e881a5b9d985b1a59081d1bdad95b88125160421b60448201526064016108cb565b600081815260696020526040902080546001600160a01b0319166001600160a01b0384169081179091558190611cab82611c16565b6001600160a01b03167f8c5be1e5ebec7d5bd14f71427d1e84f3dd0314c0f7b2291e5b200ac8c7c3b92560405160405180910390a45050565b610164546040516370a0823160e01b81526001600160a01b038381166004830152600092169081906370a0823190602401602060405180830381865afa158015611d32573d6000803e3d6000fd5b505050506040513d601f19601f82011682018060405250810190611d56919061367f565b9392505050565b61016054604051636d12dce160e01b815260206004820152600c60248201526b11d357d512149154d213d31160a21b60448201526000916001600160a01b03169082908290636d12dce190606401602060405180830381865afa158015611dc8573d6000803e3d6000fd5b505050506040513d601f19601f82011682018060405250810190611dec919061367f565b9050806107975750670de0b6b3a764000092915050565b600081815261016760205260408120546001600160a01b039081169084168114611e57576000611e3282611ce4565b90506000611e3e611d5d565b905080821015611e545760009350505050610797565b50505b611e618484612571565b949350505050565b61016054604051636d12dce160e01b815260206004820152600a602482015269474d5f5245534552564560b01b60448201526000916001600160a01b03169082908290636d12dce190606401602060405180830381865afa158015611ed2573d6000803e3d6000fd5b505050506040513d601f19601f82011682018060405250810190611ef6919061367f565b90508061079757506103f092915050565b611f128383836125ef565b60009081526101676020526040902080546001600160a01b0319166001600160a01b039290921691909117905550565b600260fb541415611f955760405162461bcd60e51b815260206004820152601f60248201527f5265656e7472616e637947756172643a207265656e7472616e742063616c6c0060448201526064016108cb565b600260fb55565b600160fb55565b600090815261016760205260409020546001600160a01b0316151590565b6109cd828260405180602001604052806000815250612760565b60008281526101676020908152604091829020548251808401909352600383526219181b60e91b91830191909152600160a01b900460a01b6001600160a01b0319161561203b5760405162461bcd60e51b81526004016108cb9190613162565b5060408051808201909152600381526232303760e81b6020820152816120745760405162461bcd60e51b81526004016108cb9190613162565b5060009182526101676020526040909120805460a09290921c600160a01b026001600160a01b03909216919091179055565b61012d546001600160a01b0316331461108e5760405162461bcd60e51b815260206004820181905260248201527f4f776e61626c653a2063616c6c6572206973206e6f7420746865206f776e657260448201526064016108cb565b61012d80546001600160a01b038381166001600160a01b0319831681179093556040519116919082907f8be0079c531659141344cd1fd0a4f28419497f9722a3daafe3b4186f6b6457e090600090a35050565b816001600160a01b0316836001600160a01b031614156121b65760405162461bcd60e51b815260206004820152601960248201527f4552433732313a20617070726f766520746f2063616c6c65720000000000000060448201526064016108cb565b6001600160a01b038381166000818152606a6020908152604080832094871680845294825291829020805460ff191686151590811790915591519182527f17307eab39ab6107e8899845ad3d59bd9653f200f220920489ca2b5937696c31910160405180910390a3505050565b61222e848484611f07565b61223a84848484612793565b6114d55760405162461bcd60e51b81526004016108cb90613975565b60606107976001600160a01b0383166014612891565b6060600061227983612a2d565b600101905060008167ffffffffffffffff811115612299576122996131cf565b6040519080825280601f01601f1916602001820160405280156122c3576020820181803683370190505b5090508181016020015b600019016f181899199a1a9b1b9c1cb0b131b232b360811b600a86061a8153600a85049450846122fc57610dd2565b6122cd565b606061230c82612b05565b612319608084901b612b05565b60405161060f60f31b6020820152602281019290925260428201526062016040516020818303038152906040529050919050565b606081516000141561236d57505060408051602081019091526000815290565b6000604051806060016040528060408152602001613ae1604091399050600060038451600261239c91906139c7565b6123a6919061362c565b6123b190600461360d565b905060006123c08260206139c7565b67ffffffffffffffff8111156123d8576123d86131cf565b6040519080825280601f01601f191660200182016040528015612402576020820181803683370190505b509050818152600183018586518101602084015b8183101561246e576003830192508251603f8160121c168501518253600182019150603f81600c1c168501518253600182019150603f8160061c168501518253600182019150603f8116850151825350600101612416565b6003895106600181146124885760028114612499576124a5565b613d3d60f01b6001198301526124a5565b603d60f81b6000198301525b509398975050505050505050565b600054610100900460ff166124da5760405162461bcd60e51b81526004016108cb906139df565b6109cd8282612cb7565b600054610100900460ff1661250b5760405162461bcd60e51b81526004016108cb906139df565b61108e612d05565b600054610100900460ff1661253a5760405162461bcd60e51b81526004016108cb906139df565b61108e612d2c565b600054610100900460ff166125695760405162461bcd60e51b81526004016108cb906139df565b61108e612d5f565b60008061257d83611c16565b9050806001600160a01b0316846001600160a01b031614806125c457506001600160a01b038082166000908152606a602090815260408083209388168352929052205460ff165b80611e615750836001600160a01b03166125dd8461082f565b6001600160a01b031614949350505050565b826001600160a01b031661260282611c16565b6001600160a01b0316146126285760405162461bcd60e51b81526004016108cb90613a2a565b6001600160a01b03821661268a5760405162461bcd60e51b8152602060048201526024808201527f4552433732313a207472616e7366657220746f20746865207a65726f206164646044820152637265737360e01b60648201526084016108cb565b6126978383836001612d8f565b826001600160a01b03166126aa82611c16565b6001600160a01b0316146126d05760405162461bcd60e51b81526004016108cb90613a2a565b600081815260696020908152604080832080546001600160a01b03199081169091556001600160a01b0387811680865260688552838620805460001901905590871680865283862080546001019055868652606790945282852080549092168417909155905184937fddf252ad1be2c89b69c2b068fc378daa952ba7f163c4a11628f55a4df523b3ef91a4505050565b61276a8383612e02565b6127776000848484612793565b61096c5760405162461bcd60e51b81526004016108cb90613975565b60006001600160a01b0384163b1561288657604051630a85bd0160e11b81526001600160a01b0385169063150b7a02906127d7903390899088908890600401613a6f565b6020604051808303816000875af1925050508015612812575060408051601f3d908101601f1916820190925261280f91810190613aac565b60015b61286c573d808015612840576040519150601f19603f3d011682016040523d82523d6000602084013e612845565b606091505b5080516128645760405162461bcd60e51b81526004016108cb90613975565b805181602001fd5b6001600160e01b031916630a85bd0160e11b149050611e61565b506001949350505050565b606060006128a083600261360d565b6128ab9060026139c7565b67ffffffffffffffff8111156128c3576128c36131cf565b6040519080825280601f01601f1916602001820160405280156128ed576020820181803683370190505b509050600360fc1b816000815181106129085761290861364e565b60200101906001600160f81b031916908160001a905350600f60fb1b816001815181106129375761293761364e565b60200101906001600160f81b031916908160001a905350600061295b84600261360d565b6129669060016139c7565b90505b60018111156129de576f181899199a1a9b1b9c1cb0b131b232b360811b85600f166010811061299a5761299a61364e565b1a60f81b8282815181106129b0576129b061364e565b60200101906001600160f81b031916908160001a90535060049490941c936129d781613ac9565b9050612969565b508315611d565760405162461bcd60e51b815260206004820181905260248201527f537472696e67733a20686578206c656e67746820696e73756666696369656e7460448201526064016108cb565b60008072184f03e93ff9f4daa797ed6e38ed64bf6a1f0160401b8310612a6c5772184f03e93ff9f4daa797ed6e38ed64bf6a1f0160401b830492506040015b6d04ee2d6d415b85acef81000000008310612a98576d04ee2d6d415b85acef8100000000830492506020015b662386f26fc100008310612ab657662386f26fc10000830492506010015b6305f5e1008310612ace576305f5e100830492506008015b6127108310612ae257612710830492506004015b60648310612af4576064830492506002015b600a83106107975760010192915050565b7aff00000000000000ff00000000000000ff00000000000000ff00006bffffffff0000000000000000604083901c90811663ffffffff60c01b84161760201c63ffffffff60601b919091166001600160e01b031984161717601081901c9182167eff00000000000000ff00000000000000ff00000000000000ff000000000000821617600890811c7bff00000000000000ff00000000000000ff00000000000000ff000000939093167fff00000000000000ff00000000000000ff00000000000000ff000000000000009290921691909117919091179081901c7e0f000f000f000f000f000f000f000f000f000f000f000f000f000f000f000f167f0f000f000f000f000f000f000f000f000f000f000f000f000f000f000f000f00600492831c161790612c53827f06060606060606060606060606060606060606060606060606060606060606066139c7565b901c7f0f0f0f0f0f0f0f0f0f0f0f0f0f0f0f0f0f0f0f0f0f0f0f0f0f0f0f0f0f0f0f0f166007612c83919061360d565b612cad827f30303030303030303030303030303030303030303030303030303030303030306139c7565b61079791906139c7565b600054610100900460ff16612cde5760405162461bcd60e51b81526004016108cb906139df565b8151612cf190606590602085019061303e565b50805161096c90606690602084019061303e565b600054610100900460ff16611f9c5760405162461bcd60e51b81526004016108cb906139df565b600054610100900460ff16612d535760405162461bcd60e51b81526004016108cb906139df565b6097805460ff19169055565b600054610100900460ff16612d865760405162461bcd60e51b81526004016108cb906139df565b61108e33612101565b612d9b84848484612e3b565b60975460ff16156114d55760405162461bcd60e51b815260206004820152602b60248201527f4552433732315061757361626c653a20746f6b656e207472616e73666572207760448201526a1a1a5b19481c185d5cd95960aa1b60648201526084016108cb565b612e0c8282612ec3565b60009081526101676020526040902080546001600160a01b0319166001600160a01b0392909216919091179055565b60018111156114d5576001600160a01b03841615612e81576001600160a01b03841660009081526068602052604081208054839290612e7b9084906135d6565b90915550505b6001600160a01b038316156114d5576001600160a01b03831660009081526068602052604081208054839290612eb89084906139c7565b909155505050505050565b6001600160a01b038216612f195760405162461bcd60e51b815260206004820181905260248201527f4552433732313a206d696e7420746f20746865207a65726f206164647265737360448201526064016108cb565b612f2281611fa3565b15612f6f5760405162461bcd60e51b815260206004820152601c60248201527f4552433732313a20746f6b656e20616c7265616479206d696e7465640000000060448201526064016108cb565b612f7d600083836001612d8f565b612f8681611fa3565b15612fd35760405162461bcd60e51b815260206004820152601c60248201527f4552433732313a20746f6b656e20616c7265616479206d696e7465640000000060448201526064016108cb565b6001600160a01b038216600081815260686020908152604080832080546001019055848352606790915280822080546001600160a01b0319168417905551839291907fddf252ad1be2c89b69c2b068fc378daa952ba7f163c4a11628f55a4df523b3ef908290a45050565b82805461304a90613538565b90600052602060002090601f01602090048101928261306c57600085556130b2565b82601f1061308557805160ff19168380011785556130b2565b828001600101855582156130b2579182015b828111156130b2578251825591602001919060010190613097565b506130be9291506130c2565b5090565b5b808211156130be57600081556001016130c3565b6001600160e01b031981168114610a6257600080fd5b6000602082840312156130ff57600080fd5b8135611d56816130d7565b60005b8381101561312557818101518382015260200161310d565b838111156114d55750506000910152565b6000815180845261314e81602086016020860161310a565b601f01601f19169290920160200192915050565b602081526000611d566020830184613136565b60006020828403121561318757600080fd5b5035919050565b80356001600160a01b0381168114610ff157600080fd5b600080604083850312156131b857600080fd5b6131c18361318e565b946020939093013593505050565b634e487b7160e01b600052604160045260246000fd5b604051601f8201601f1916810167ffffffffffffffff8111828210171561320e5761320e6131cf565b604052919050565b600067ffffffffffffffff821115613230576132306131cf565b50601f01601f191660200190565b600061325161324c84613216565b6131e5565b905082815283838301111561326557600080fd5b828260208301376000602084830101529392505050565b600082601f83011261328d57600080fd5b611d568383356020850161323e565b6000602082840312156132ae57600080fd5b813567ffffffffffffffff8111156132c557600080fd5b611e618482850161327c565b6000602082840312156132e357600080fd5b611d568261318e565b60008060006060848603121561330157600080fd5b61330a8461318e565b92506133186020850161318e565b9150604084013590509250925092565b6000806040838503121561333b57600080fd5b50508035926020909101359150565b6020808252825182820181905260009190848201906040850190845b8181101561338257835183529284019291840191600101613366565b50909695505050505050565b600080604083850312156133a157600080fd5b6133aa8361318e565b9150602083013580151581146133bf57600080fd5b809150509250929050565b600080600080608085870312156133e057600080fd5b6133e98561318e565b93506133f76020860161318e565b925060408501359150606085013567ffffffffffffffff81111561341a57600080fd5b8501601f8101871361342b57600080fd5b61343a8782356020840161323e565b91505092959194509250565b6000806040838503121561345957600080fd5b82359150610c1c6020840161318e565b60008060008060008060c0878903121561348257600080fd5b863567ffffffffffffffff8082111561349a57600080fd5b6134a68a838b0161327c565b975060208901359150808211156134bc57600080fd5b506134c989828a0161327c565b9550506134d86040880161318e565b93506134e66060880161318e565b92506134f46080880161318e565b915061350260a0880161318e565b90509295509295509295565b6000806040838503121561352157600080fd5b61352a8361318e565b9150610c1c6020840161318e565b600181811c9082168061354c57607f821691505b6020821081141561356d57634e487b7160e01b600052602260045260246000fd5b50919050565b6020808252602d908201527f4552433732313a2063616c6c6572206973206e6f7420746f6b656e206f776e6560408201526c1c881bdc88185c1c1c9bdd9959609a1b606082015260800190565b634e487b7160e01b600052601160045260246000fd5b6000828210156135e8576135e86135c0565b500390565b6020808252600690820152654e5f43315f3160d01b604082015260600190565b6000816000190483118215151615613627576136276135c0565b500290565b60008261364957634e487b7160e01b600052601260045260246000fd5b500490565b634e487b7160e01b600052603260045260246000fd5b6000600019821415613678576136786135c0565b5060010190565b60006020828403121561369157600080fd5b5051919050565b6000602082840312156136aa57600080fd5b815167ffffffffffffffff8111156136c157600080fd5b8201601f810184136136d257600080fd5b80516136e061324c82613216565b8181528560208385010111156136f557600080fd5b61370682602083016020860161310a565b95945050505050565b6000815161372181856020860161310a565b9290920192915050565b7216101130b734b6b0ba34b7b72fbab936111d1160691b8152815160009061375a81601385016020870161310a565b601160f91b6013939091019283015250601401919050565b60008551613784818460208a0161310a565b8083019050602f60f81b80825286516137a4816001850160208b0161310a565b600192019182015284516137bf81600284016020890161310a565b653f736565643d60d01b6002929091019182015283516137e681600884016020880161310a565b016008019695505050505050565b6000825161380681846020870161310a565b9190910192915050565b683d913730b6b2911d1160b91b81528551600090613835816009850160208b0161310a565b711116113232b9b1b934b83a34b7b7111d101160711b600991840191820152865161386781601b840160208b0161310a565b601160f91b601b92909101918201526b16101134b6b0b3b2911d101160a11b601c820152855161389e816028840160208a0161310a565b6e1331b0b83a3ab9329e9b181818181160891b6028929091019182015284516138ce81603784016020890161310a565b7016101130ba3a3934b13aba32b9911d101160791b60379290910191820152613924613917613900604884018761370f565b6a1331b0b83a3ab9329e981160a91b8152600b0190565b607d60f81b815260010190565b98975050505050505050565b7f646174613a6170706c69636174696f6e2f6a736f6e3b6261736536342c00000081526000825161396881601d85016020870161310a565b91909101601d0192915050565b60208082526032908201527f4552433732313a207472616e7366657220746f206e6f6e20455243373231526560408201527131b2b4bb32b91034b6b83632b6b2b73a32b960711b606082015260800190565b600082198211156139da576139da6135c0565b500190565b6020808252602b908201527f496e697469616c697a61626c653a20636f6e7472616374206973206e6f74206960408201526a6e697469616c697a696e6760a81b606082015260800190565b60208082526025908201527f4552433732313a207472616e736665722066726f6d20696e636f72726563742060408201526437bbb732b960d91b606082015260800190565b6001600160a01b0385811682528416602082015260408101839052608060608201819052600090613aa290830184613136565b9695505050505050565b600060208284031215613abe57600080fd5b8151611d56816130d7565b600081613ad857613ad86135c0565b50600019019056fe4142434445464748494a4b4c4d4e4f505152535455565758595a6162636465666768696a6b6c6d6e6f707172737475767778797a303132333435363738392b2fa26469706673582212208cc464600914852b50c5de3752400e1a6e651dcc424d6c0408e4cafb73d1334a64736f6c634300080c0033",
  "linkReferences": {},
  "deployedLinkReferences": {}
}