{
  "_format": "hh-sol-artifact-1",
  "contractName": "Solaris",
  "sourceName": "contracts/nfts/Solaris.sol",
  "abi": [
    {
      "anonymous": false,
      "inputs": [
        {
          "indexed": true,
          "internalType": "address",
          "name": "owner",
          "type": "address"
        },
        {
          "indexed": true,
          "internalType": "address",
          "name": "approved",
          "type": "address"
        },
        {
          "indexed": true,
          "internalType": "uint256",
          "name": "tokenId",
          "type": "uint256"
        }
      ],
      "name": "Approval",
      "type": "event"
    },
    {
      "anonymous": false,
      "inputs": [
        {
          "indexed": true,
          "internalType": "address",
          "name": "owner",
          "type": "address"
        },
        {
          "indexed": true,
          "internalType": "address",
          "name": "operator",
          "type": "address"
        },
        {
          "indexed": false,
          "internalType": "bool",
          "name": "approved",
          "type": "bool"
        }
      ],
      "name": "ApprovalForAll",
      "type": "event"
    },
    {
      "anonymous": false,
      "inputs": [
        {
          "indexed": false,
          "internalType": "uint8",
          "name": "version",
          "type": "uint8"
        }
      ],
      "name": "Initialized",
      "type": "event"
    },
    {
      "anonymous": false,
      "inputs": [
        {
          "indexed": true,
          "internalType": "address",
          "name": "previousOwner",
          "type": "address"
        },
        {
          "indexed": true,
          "internalType": "address",
          "name": "newOwner",
          "type": "address"
        }
      ],
      "name": "OwnershipTransferred",
      "type": "event"
    },
    {
      "anonymous": false,
      "inputs": [
        {
          "indexed": false,
          "internalType": "address",
          "name": "account",
          "type": "address"
        }
      ],
      "name": "Paused",
      "type": "event"
    },
    {
      "anonymous": false,
      "inputs": [
        {
          "indexed": true,
          "internalType": "address",
          "name": "from",
          "type": "address"
        },
        {
          "indexed": true,
          "internalType": "address",
          "name": "to",
          "type": "address"
        },
        {
          "indexed": true,
          "internalType": "uint256",
          "name": "tokenId",
          "type": "uint256"
        }
      ],
      "name": "Transfer",
      "type": "event"
    },
    {
      "anonymous": false,
      "inputs": [
        {
          "indexed": false,
          "internalType": "address",
          "name": "account",
          "type": "address"
        }
      ],
      "name": "Unpaused",
      "type": "event"
    },
    {
      "inputs": [],
      "name": "_admin",
      "outputs": [
        {
          "internalType": "address",
          "name": "",
          "type": "address"
        }
      ],
      "stateMutability": "view",
      "type": "function"
    },
    {
      "inputs": [],
      "name": "_brc20Token",
      "outputs": [
        {
          "internalType": "address",
          "name": "",
          "type": "address"
        }
      ],
      "stateMutability": "view",
      "type": "function"
    },
    {
      "inputs": [],
      "name": "_paramsAddress",
      "outputs": [
        {
          "internalType": "address",
          "name": "",
          "type": "address"
        }
      ],
      "stateMutability": "view",
      "type": "function"
    },
    {
      "inputs": [],
      "name": "_randomizerAddr",
      "outputs": [
        {
          "internalType": "address",
          "name": "",
          "type": "address"
        }
      ],
      "stateMutability": "view",
      "type": "function"
    },
    {
      "inputs": [],
      "name": "_script",
      "outputs": [
        {
          "internalType": "string",
          "name": "",
          "type": "string"
        }
      ],
      "stateMutability": "view",
      "type": "function"
    },
    {
      "inputs": [
        {
          "internalType": "address",
          "name": "to",
          "type": "address"
        },
        {
          "internalType": "uint256",
          "name": "tokenId",
          "type": "uint256"
        }
      ],
      "name": "approve",
      "outputs": [],
      "stateMutability": "nonpayable",
      "type": "function"
    },
    {
      "inputs": [
        {
          "internalType": "address",
          "name": "owner",
          "type": "address"
        }
      ],
      "name": "balanceOf",
      "outputs": [
        {
          "internalType": "uint256",
          "name": "",
          "type": "uint256"
        }
      ],
      "stateMutability": "view",
      "type": "function"
    },
    {
      "inputs": [
        {
          "internalType": "address",
          "name": "newAdm",
          "type": "address"
        }
      ],
      "name": "changeAdmin",
      "outputs": [],
      "stateMutability": "nonpayable",
      "type": "function"
    },
    {
      "inputs": [
        {
          "internalType": "address",
          "name": "newBrc20",
          "type": "address"
        }
      ],
      "name": "changeBrc20Token",
      "outputs": [],
      "stateMutability": "nonpayable",
      "type": "function"
    },
    {
      "inputs": [
        {
          "internalType": "address",
          "name": "newAddr",
          "type": "address"
        }
      ],
      "name": "changeParamAddr",
      "outputs": [],
      "stateMutability": "nonpayable",
      "type": "function"
    },
    {
      "inputs": [
        {
          "internalType": "address",
          "name": "newAddr",
          "type": "address"
        }
      ],
      "name": "changeRandomizerAddr",
      "outputs": [],
      "stateMutability": "nonpayable",
      "type": "function"
    },
    {
      "inputs": [
        {
          "internalType": "string",
          "name": "newScript",
          "type": "string"
        }
      ],
      "name": "changeScript",
      "outputs": [],
      "stateMutability": "nonpayable",
      "type": "function"
    },
    {
      "inputs": [
        {
          "internalType": "uint256",
          "name": "tokenId",
          "type": "uint256"
        }
      ],
      "name": "claim",
      "outputs": [],
      "stateMutability": "payable",
      "type": "function"
    },
    {
      "inputs": [
        {
          "internalType": "uint256",
          "name": "tokenId",
          "type": "uint256"
        }
      ],
      "name": "claimable",
      "outputs": [
        {
          "internalType": "bool",
          "name": "",
          "type": "bool"
        }
      ],
      "stateMutability": "view",
      "type": "function"
    },
    {
      "inputs": [
        {
          "internalType": "uint256",
          "name": "tokenId",
          "type": "uint256"
        }
      ],
      "name": "getApproved",
      "outputs": [
        {
          "internalType": "address",
          "name": "",
          "type": "address"
        }
      ],
      "stateMutability": "view",
      "type": "function"
    },
    {
      "inputs": [
        {
          "internalType": "string",
          "name": "name",
          "type": "string"
        },
        {
          "internalType": "string",
          "name": "symbol",
          "type": "string"
        },
        {
          "internalType": "address",
          "name": "admin",
          "type": "address"
        },
        {
          "internalType": "address",
          "name": "paramsAddress",
          "type": "address"
        },
        {
          "internalType": "address",
          "name": "randomizerAddr",
          "type": "address"
        },
        {
          "internalType": "address",
          "name": "gmToken",
          "type": "address"
        }
      ],
      "name": "initialize",
      "outputs": [],
      "stateMutability": "nonpayable",
      "type": "function"
    },
    {
      "inputs": [
        {
          "internalType": "address",
          "name": "owner",
          "type": "address"
        },
        {
          "internalType": "address",
          "name": "operator",
          "type": "address"
        }
      ],
      "name": "isApprovedForAll",
      "outputs": [
        {
          "internalType": "bool",
          "name": "",
          "type": "bool"
        }
      ],
      "stateMutability": "view",
      "type": "function"
    },
    {
      "inputs": [
        {
          "internalType": "address",
          "name": "to",
          "type": "address"
        }
      ],
      "name": "mint",
      "outputs": [
        {
          "internalType": "uint256",
          "name": "tokenId",
          "type": "uint256"
        }
      ],
      "stateMutability": "payable",
      "type": "function"
    },
    {
      "inputs": [],
      "name": "name",
      "outputs": [
        {
          "internalType": "string",
          "name": "",
          "type": "string"
        }
      ],
      "stateMutability": "view",
      "type": "function"
    },
    {
      "inputs": [],
      "name": "owner",
      "outputs": [
        {
          "internalType": "address",
          "name": "",
          "type": "address"
        }
      ],
      "stateMutability": "view",
      "type": "function"
    },
    {
      "inputs": [
        {
          "internalType": "uint256",
          "name": "tokenId",
          "type": "uint256"
        }
      ],
      "name": "ownerOf",
      "outputs": [
        {
          "internalType": "address",
          "name": "",
          "type": "address"
        }
      ],
      "stateMutability": "view",
      "type": "function"
    },
    {
      "inputs": [],
      "name": "paused",
      "outputs": [
        {
          "internalType": "bool",
          "name": "",
          "type": "bool"
        }
      ],
      "stateMutability": "view",
      "type": "function"
    },
    {
      "inputs": [],
      "name": "renounceOwnership",
      "outputs": [],
      "stateMutability": "nonpayable",
      "type": "function"
    },
    {
      "inputs": [
        {
          "internalType": "uint256",
          "name": "projectId",
          "type": "uint256"
        },
        {
          "internalType": "uint256",
          "name": "_salePrice",
          "type": "uint256"
        }
      ],
      "name": "royaltyInfo",
      "outputs": [
        {
          "internalType": "address",
          "name": "receiver",
          "type": "address"
        },
        {
          "internalType": "uint256",
          "name": "royaltyAmount",
          "type": "uint256"
        }
      ],
      "stateMutability": "view",
      "type": "function"
    },
    {
      "inputs": [
        {
          "internalType": "address",
          "name": "from",
          "type": "address"
        },
        {
          "internalType": "address",
          "name": "to",
          "type": "address"
        },
        {
          "internalType": "uint256",
          "name": "tokenId",
          "type": "uint256"
        }
      ],
      "name": "safeTransferFrom",
      "outputs": [],
      "stateMutability": "nonpayable",
      "type": "function"
    },
    {
      "inputs": [
        {
          "internalType": "address",
          "name": "from",
          "type": "address"
        },
        {
          "internalType": "address",
          "name": "to",
          "type": "address"
        },
        {
          "internalType": "uint256",
          "name": "tokenId",
          "type": "uint256"
        },
        {
          "internalType": "bytes",
          "name": "data",
          "type": "bytes"
        }
      ],
      "name": "safeTransferFrom",
      "outputs": [],
      "stateMutability": "nonpayable",
      "type": "function"
    },
    {
      "inputs": [
        {
          "internalType": "address",
          "name": "operator",
          "type": "address"
        },
        {
          "internalType": "bool",
          "name": "approved",
          "type": "bool"
        }
      ],
      "name": "setApprovalForAll",
      "outputs": [],
      "stateMutability": "nonpayable",
      "type": "function"
    },
    {
      "inputs": [
        {
          "internalType": "bytes4",
          "name": "interfaceId",
          "type": "bytes4"
        }
      ],
      "name": "supportsInterface",
      "outputs": [
        {
          "internalType": "bool",
          "name": "",
          "type": "bool"
        }
      ],
      "stateMutability": "view",
      "type": "function"
    },
    {
      "inputs": [],
      "name": "symbol",
      "outputs": [
        {
          "internalType": "string",
          "name": "",
          "type": "string"
        }
      ],
      "stateMutability": "view",
      "type": "function"
    },
    {
      "inputs": [
        {
          "internalType": "bytes32",
          "name": "seed",
          "type": "bytes32"
        }
      ],
      "name": "tokenHTML",
      "outputs": [
        {
          "internalType": "string",
          "name": "result",
          "type": "string"
        }
      ],
      "stateMutability": "view",
      "type": "function"
    },
    {
      "inputs": [
        {
          "internalType": "uint256",
          "name": "tokenId",
          "type": "uint256"
        }
      ],
      "name": "tokenIdToHash",
      "outputs": [
        {
          "internalType": "bytes32",
          "name": "",
          "type": "bytes32"
        }
      ],
      "stateMutability": "view",
      "type": "function"
    },
    {
      "inputs": [
        {
          "internalType": "uint256",
          "name": "tokenId",
          "type": "uint256"
        }
      ],
      "name": "tokenURI",
      "outputs": [
        {
          "internalType": "string",
          "name": "result",
          "type": "string"
        }
      ],
      "stateMutability": "view",
      "type": "function"
    },
    {
      "inputs": [
        {
          "internalType": "address",
          "name": "from",
          "type": "address"
        },
        {
          "internalType": "address",
          "name": "to",
          "type": "address"
        },
        {
          "internalType": "uint256",
          "name": "tokenId",
          "type": "uint256"
        }
      ],
      "name": "transferFrom",
      "outputs": [],
      "stateMutability": "nonpayable",
      "type": "function"
    },
    {
      "inputs": [
        {
          "internalType": "address",
          "name": "newOwner",
          "type": "address"
        }
      ],
      "name": "transferOwnership",
      "outputs": [],
      "stateMutability": "nonpayable",
      "type": "function"
    }
  ],
  "bytecode": "0x608060405234801561001057600080fd5b506136f6806100206000396000f3fe6080604052600436106101f95760003560e01c806370a082311161010d578063adfc7dae116100a0578063e1f796ae1161006f578063e1f796ae146105d3578063e56f2fe4146105f3578063e985e9c514610613578063f2fde38b14610633578063febfd6c31461065357600080fd5b8063adfc7dae14610552578063b88d4fde14610573578063c87b56dd14610593578063d1d58b25146105b357600080fd5b80638f283970116100dc5780638f283970146104dd57806393c6cdc0146104fd57806395d89b411461051d578063a22cb4651461053257600080fd5b806370a0823114610474578063715018a6146104945780638a016249146104a95780638da5cb5b146104be57600080fd5b8063254c0d4d116101905780635c975abb1161015f5780635c975abb146103c3578063621a1f74146103db5780636352211e1461040957806366215eb4146104405780636a6278421461046157600080fd5b8063254c0d4d146103305780632a55205a14610351578063379607f51461039057806342842e0e146103a357600080fd5b8063095ea7b3116101cc578063095ea7b3146102ae578063140f0e07146102d05780631ca9741b146102f057806323b872dd1461031057600080fd5b806301bc45c9146101fe57806301ffc9a71461023c57806306fdde031461026c578063081812fc1461028e575b600080fd5b34801561020a57600080fd5b5061015f5461021f906001600160a01b031681565b6040516001600160a01b0390911681526020015b60405180910390f35b34801561024857600080fd5b5061025c610257366004612cee565b610673565b6040519015158152602001610233565b34801561027857600080fd5b506102816106c5565b6040516102339190612d63565b34801561029a57600080fd5b5061021f6102a9366004612d76565b610757565b3480156102ba57600080fd5b506102ce6102c9366004612da6565b61077e565b005b3480156102dc57600080fd5b506102ce6102eb366004612e9d565b610899565b3480156102fc57600080fd5b506102ce61030b366004612ed2565b6108f9565b34801561031c57600080fd5b506102ce61032b366004612eed565b61098d565b34801561033c57600080fd5b506101645461021f906001600160a01b031681565b34801561035d57600080fd5b5061037161036c366004612f29565b610aca565b604080516001600160a01b039093168352602083019190915201610233565b6102ce61039e366004612d76565b610afb565b3480156103af57600080fd5b506102ce6103be366004612eed565b610bc7565b3480156103cf57600080fd5b5060975460ff1661025c565b3480156103e757600080fd5b506103fb6103f6366004612d76565b610be2565b604051908152602001610233565b34801561041557600080fd5b5061021f610424366004612d76565b600090815261016560205260409020546001600160a01b031690565b34801561044c57600080fd5b506101615461021f906001600160a01b031681565b6103fb61046f366004612ed2565b610cb0565b34801561048057600080fd5b506103fb61048f366004612ed2565b610dba565b3480156104a057600080fd5b506102ce610e40565b3480156104b557600080fd5b50610281610e54565b3480156104ca57600080fd5b5061012d546001600160a01b031661021f565b3480156104e957600080fd5b506102ce6104f8366004612ed2565b610ee3565b34801561050957600080fd5b506102ce610518366004612ed2565b610f78565b34801561052957600080fd5b5061028161100d565b34801561053e57600080fd5b506102ce61054d366004612f59565b61101c565b34801561055e57600080fd5b506101605461021f906001600160a01b031681565b34801561057f57600080fd5b506102ce61058e366004612f90565b611027565b34801561059f57600080fd5b506102816105ae366004612d76565b61116b565b3480156105bf57600080fd5b5061025c6105ce366004612d76565b611442565b3480156105df57600080fd5b506102816105ee366004612d76565b6114ac565b3480156105ff57600080fd5b506102ce61060e36600461300c565b611541565b34801561061f57600080fd5b5061025c61062e3660046130b1565b611744565b34801561063f57600080fd5b506102ce61064e366004612ed2565b611772565b34801561065f57600080fd5b506102ce61066e366004612ed2565b6117e8565b60006001600160e01b031982166380ac58cd60e01b14806106a457506001600160e01b03198216635b5e139f60e01b145b806106bf57506301ffc9a760e01b6001600160e01b03198316145b92915050565b6060606580546106d4906130db565b80601f0160208091040260200160405190810160405280929190818152602001828054610700906130db565b801561074d5780601f106107225761010080835404028352916020019161074d565b820191906000526020600020905b81548152906001019060200180831161073057829003601f168201915b5050505050905090565b60006107628261187d565b506000908152606960205260409020546001600160a01b031690565b6000610789826118cd565b9050806001600160a01b0316836001600160a01b031614156107fc5760405162461bcd60e51b815260206004820152602160248201527f4552433732313a20617070726f76616c20746f2063757272656e74206f776e656044820152603960f91b60648201526084015b60405180910390fd5b336001600160a01b038216148061081857506108188133611744565b61088a5760405162461bcd60e51b815260206004820152603d60248201527f4552433732313a20617070726f76652063616c6c6572206973206e6f7420746f60448201527f6b656e206f776e6572206f7220617070726f76656420666f7220616c6c00000060648201526084016107f3565b610894838361192d565b505050565b61015f5460408051808201909152600381526231303160e81b6020820152906001600160a01b031633146108e05760405162461bcd60e51b81526004016107f39190612d63565b5080516108f590610163906020840190612c3f565b5050565b61015f546001600160a01b03163314801561091c57506001600160a01b03811615155b6040518060400160405280600381526020016231303160e81b815250906109565760405162461bcd60e51b81526004016107f39190612d63565b50610161546001600160a01b0382811691161461098a5761016180546001600160a01b0319166001600160a01b0383161790555b50565b336001600160a01b03841614156109f25760006109a93361199b565b905060006109b5611a14565b9050808210156109eb5760405162461bcd60e51b81526020600482015260016024820152601560fa1b60448201526064016107f3565b5050610abf565b333b63ffffffff1615610a2a57610a093382611aba565b610a255760405162461bcd60e51b81526004016107f390613116565b610abf565b60405163d1d58b2560e01b815260048101829052309063d1d58b2590602401602060405180830381865afa158015610a66573d6000803e3d6000fd5b505050506040513d601f19601f82011682018060405250810190610a8a9190613163565b610abf5760405162461bcd60e51b81526004016107f390602080825260049082015263272fa19960e11b604082015260600190565b610894838383611b20565b61015f546001600160a01b03166000612710610ae8846101f4613196565b610af291906131b5565b90509250929050565b610b03611b5b565b60405163d1d58b2560e01b815260048101829052309063d1d58b2590602401602060405180830381865afa158015610b3f573d6000803e3d6000fd5b505050506040513d601f19601f82011682018060405250810190610b639190613163565b610b985760405162461bcd60e51b81526004016107f3906020808252600490820152634e5f433160e01b604082015260600190565b600081815261016560205260409020546001600160a01b0316610bbc813384611b20565b5061098a600160fb55565b61089483838360405180602001604052806000815250611027565b6000610bed82611bbc565b6040518060400160405280600381526020016232303960e81b81525090610c275760405162461bcd60e51b81526004016107f39190612d63565b5060008281526101656020526040902054600160a01b900460a01b6001600160a01b031916610c5857506000919050565b60008281526101656020908152604091829020549151610c9392600160a01b900460a01b91016001600160a01b031991909116815260200190565b604051602081830303815290604052805190602001209050919050565b6000610cba611b5b565b61015f5460408051808201909152600381526231303160e81b6020820152906001600160a01b03163314610d015760405162461bcd60e51b81526004016107f39190612d63565b506101628054906000610d13836131d7565b9190505550610162549050610d288282611bda565b61016154604051631da00d8560e01b8152600481018390526001600160a01b03909116906000908290631da00d85906024016020604051808303816000875af1158015610d79573d6000803e3d6000fd5b505050506040513d601f19601f82011682018060405250810190610d9d91906131f2565b9050610da98382611bf4565b5050610db5600160fb55565b919050565b60006001600160a01b038216610e245760405162461bcd60e51b815260206004820152602960248201527f4552433732313a2061646472657373207a65726f206973206e6f7420612076616044820152683634b21037bbb732b960b91b60648201526084016107f3565b506001600160a01b031660009081526068602052604090205490565b610e48611cbf565b610e526000611d1a565b565b6101638054610e62906130db565b80601f0160208091040260200160405190810160405280929190818152602001828054610e8e906130db565b8015610edb5780601f10610eb057610100808354040283529160200191610edb565b820191906000526020600020905b815481529060010190602001808311610ebe57829003601f168201915b505050505081565b61015f546001600160a01b031633148015610f0657506001600160a01b03811615155b6040518060400160405280600381526020016231303160e81b81525090610f405760405162461bcd60e51b81526004016107f39190612d63565b5061015f546001600160a01b0382811691161461098a5761015f80546001600160a01b0383166001600160a01b031990911617905550565b61015f546001600160a01b031633148015610f9b57506001600160a01b03811615155b6040518060400160405280600381526020016231303160e81b81525090610fd55760405162461bcd60e51b81526004016107f39190612d63565b50610164546001600160a01b0382811691161461098a5761016480546001600160a01b0383166001600160a01b031990911617905550565b6060606680546106d4906130db565b6108f5338383611d6d565b336001600160a01b038516141561108c5760006110433361199b565b9050600061104f611a14565b9050808210156110855760405162461bcd60e51b81526020600482015260016024820152601560fa1b60448201526064016107f3565b5050611159565b333b63ffffffff16156110c4576110a33383611aba565b6110bf5760405162461bcd60e51b81526004016107f390613116565b611159565b60405163d1d58b2560e01b815260048101839052309063d1d58b2590602401602060405180830381865afa158015611100573d6000803e3d6000fd5b505050506040513d601f19601f820116820180604052508101906111249190613163565b6111595760405162461bcd60e51b81526004016107f390602080825260049082015263272fa19960e11b604082015260600190565b61116584848484611e3c565b50505050565b606061117682611bbc565b6040518060400160405280600381526020016232303960e81b815250906111b05760405162461bcd60e51b81526004016107f39190612d63565b5060405163188687dd60e21b815260048101839052600090309063621a1f7490602401602060405180830381865afa1580156111f0573d6000803e3d6000fd5b505050506040513d601f19601f8201168201806040525081019061121491906131f2565b610160546040516370fbcb5760e11b8152600481018390529192506001600160a01b031690600090309063e1f796ae90602401600060405180830381865afa158015611264573d6000803e3d6000fd5b505050506040513d6000823e601f3d908101601f1916820160405261128c919081019061320b565b90506112c06040518060a0016040528060608152602001606081526020016060815260200160608152602001606081525090565b816040516020016112d1919061329e565b60408051601f19818403018152918152606083019190915280518082018252600e81526d109054d157d5549257d51490525560921b6020820152905163349f642f60e11b81526001600160a01b0385169163693ec85e916113359190600401612d63565b600060405180830381865afa158015611352573d6000803e3d6000fd5b505050506040513d6000823e601f3d908101601f1916820160405261137a919081019061320b565b6040820181905261138a30611e6f565b61139388611e85565b61139c87611f22565b6040516020016113af94939291906132e5565b604051602081830303815290604052816040018190525061141881600001516113fa83602001516040516020016113e69190613367565b604051602081830303815290604052611f6e565b604080850151606086015191516113e6949392908290602001613383565b60405160200161142891906134a3565b604051602081830303815290604052945050505050919050565b600081815261016560205260408120546001600160a01b0316816114658261199b565b905060006114723361199b565b9050600061147e611a14565b9050808310801561148f5750808210155b156114a05750600195945050505050565b50600095945050505050565b606061016380546114bc906130db565b80601f01602080910402602001604051908101604052809291908181526020018280546114e8906130db565b80156115355780601f1061150a57610100808354040283529160200191611535565b820191906000526020600020905b81548152906001019060200180831161151857829003601f168201915b50505050509050919050565b600054610100900460ff16158080156115615750600054600160ff909116105b8061157b5750303b15801561157b575060005460ff166001145b6115de5760405162461bcd60e51b815260206004820152602e60248201527f496e697469616c697a61626c653a20636f6e747261637420697320616c72656160448201526d191e481a5b9a5d1a585b1a5e995960921b60648201526084016107f3565b6000805460ff191660011790558015611601576000805461ff0019166101001790555b60408051808201909152600381526203130360ec1b60208201526001600160a01b0386166116425760405162461bcd60e51b81526004016107f39190612d63565b5060408051808201909152600381526203130360ec1b60208201526001600160a01b0385166116845760405162461bcd60e51b81526004016107f39190612d63565b5061016080546001600160a01b038087166001600160a01b03199283161790925561015f805488841690831617905561016180548684169083161790556101648054928516929091169190911790556116dd87876120d4565b6116e5612105565b6116ed612134565b6116f5612163565b801561173b576000805461ff0019169055604051600181527f7f26b83ff96e1f2b6a682f133852f6798a09c465da95921460cefb38474024989060200160405180910390a15b50505050505050565b6001600160a01b039182166000908152606a6020908152604080832093909416825291909152205460ff1690565b61177a611cbf565b6001600160a01b0381166117df5760405162461bcd60e51b815260206004820152602660248201527f4f776e61626c653a206e6577206f776e657220697320746865207a65726f206160448201526564647265737360d01b60648201526084016107f3565b61098a81611d1a565b61015f546001600160a01b03163314801561180b57506001600160a01b03811615155b6040518060400160405280600381526020016231303160e81b815250906118455760405162461bcd60e51b81526004016107f39190612d63565b50610160546001600160a01b0382811691161461098a5761016080546001600160a01b0383166001600160a01b031990911617905550565b61188681611bbc565b61098a5760405162461bcd60e51b8152602060048201526018602482015277115490cdcc8c4e881a5b9d985b1a59081d1bdad95b88125160421b60448201526064016107f3565b6000818152606760205260408120546001600160a01b0316806106bf5760405162461bcd60e51b8152602060048201526018602482015277115490cdcc8c4e881a5b9d985b1a59081d1bdad95b88125160421b60448201526064016107f3565b600081815260696020526040902080546001600160a01b0319166001600160a01b0384169081179091558190611962826118cd565b6001600160a01b03167f8c5be1e5ebec7d5bd14f71427d1e84f3dd0314c0f7b2291e5b200ac8c7c3b92560405160405180910390a45050565b610164546040516370a0823160e01b81526001600160a01b038381166004830152600092169081906370a0823190602401602060405180830381865afa1580156119e9573d6000803e3d6000fd5b505050506040513d601f19601f82011682018060405250810190611a0d91906131f2565b9392505050565b61016054604051636d12dce160e01b815260206004820152600c60248201526b11d357d512149154d213d31160a21b60448201526000916001600160a01b03169082908290636d12dce190606401602060405180830381865afa158015611a7f573d6000803e3d6000fd5b505050506040513d601f19601f82011682018060405250810190611aa391906131f2565b9050806106bf5750670de0b6b3a764000092915050565b600081815261016560205260408120546001600160a01b039081169084168114611b0e576000611ae98261199b565b90506000611af5611a14565b905080821015611b0b57600093505050506106bf565b50505b611b188484612192565b949350505050565b611b2b8383836121f0565b60009081526101656020526040902080546001600160a01b0319166001600160a01b039290921691909117905550565b600260fb541415611bae5760405162461bcd60e51b815260206004820152601f60248201527f5265656e7472616e637947756172643a207265656e7472616e742063616c6c0060448201526064016107f3565b600260fb55565b600160fb55565b600090815261016560205260409020546001600160a01b0316151590565b6108f5828260405180602001604052806000815250612361565b60008281526101656020908152604091829020548251808401909352600383526219181b60e91b91830191909152600160a01b900460a01b6001600160a01b03191615611c545760405162461bcd60e51b81526004016107f39190612d63565b5060408051808201909152600381526232303760e81b602082015281611c8d5760405162461bcd60e51b81526004016107f39190612d63565b5060009182526101656020526040909120805460a09290921c600160a01b026001600160a01b03909216919091179055565b61012d546001600160a01b03163314610e525760405162461bcd60e51b815260206004820181905260248201527f4f776e61626c653a2063616c6c6572206973206e6f7420746865206f776e657260448201526064016107f3565b61012d80546001600160a01b038381166001600160a01b0319831681179093556040519116919082907f8be0079c531659141344cd1fd0a4f28419497f9722a3daafe3b4186f6b6457e090600090a35050565b816001600160a01b0316836001600160a01b03161415611dcf5760405162461bcd60e51b815260206004820152601960248201527f4552433732313a20617070726f766520746f2063616c6c65720000000000000060448201526064016107f3565b6001600160a01b038381166000818152606a6020908152604080832094871680845294825291829020805460ff191686151590811790915591519182527f17307eab39ab6107e8899845ad3d59bd9653f200f220920489ca2b5937696c31910160405180910390a3505050565b611e47848484611b20565b611e5384848484612394565b6111655760405162461bcd60e51b81526004016107f3906134e8565b60606106bf6001600160a01b0383166014612492565b60606000611e928361262e565b600101905060008167ffffffffffffffff811115611eb257611eb2612dd0565b6040519080825280601f01601f191660200182016040528015611edc576020820181803683370190505b5090508181016020015b600019016f181899199a1a9b1b9c1cb0b131b232b360811b600a86061a8153600a8504945084611f1557611f1a565b611ee6565b509392505050565b6060611f2d82612706565b611f3a608084901b612706565b60405161060f60f31b6020820152602281019290925260428201526062016040516020818303038152906040529050919050565b6060815160001415611f8e57505060408051602081019091526000815290565b60006040518060600160405280604081526020016136816040913990506000600384516002611fbd919061353a565b611fc791906131b5565b611fd2906004613196565b90506000611fe182602061353a565b67ffffffffffffffff811115611ff957611ff9612dd0565b6040519080825280601f01601f191660200182016040528015612023576020820181803683370190505b509050818152600183018586518101602084015b8183101561208f576003830192508251603f8160121c168501518253600182019150603f81600c1c168501518253600182019150603f8160061c168501518253600182019150603f8116850151825350600101612037565b6003895106600181146120a957600281146120ba576120c6565b613d3d60f01b6001198301526120c6565b603d60f81b6000198301525b509398975050505050505050565b600054610100900460ff166120fb5760405162461bcd60e51b81526004016107f390613552565b6108f582826128b8565b600054610100900460ff1661212c5760405162461bcd60e51b81526004016107f390613552565b610e52612906565b600054610100900460ff1661215b5760405162461bcd60e51b81526004016107f390613552565b610e5261292d565b600054610100900460ff1661218a5760405162461bcd60e51b81526004016107f390613552565b610e52612960565b60008061219e836118cd565b9050806001600160a01b0316846001600160a01b031614806121c557506121c58185611744565b80611b185750836001600160a01b03166121de84610757565b6001600160a01b031614949350505050565b826001600160a01b0316612203826118cd565b6001600160a01b0316146122295760405162461bcd60e51b81526004016107f39061359d565b6001600160a01b03821661228b5760405162461bcd60e51b8152602060048201526024808201527f4552433732313a207472616e7366657220746f20746865207a65726f206164646044820152637265737360e01b60648201526084016107f3565b6122988383836001612990565b826001600160a01b03166122ab826118cd565b6001600160a01b0316146122d15760405162461bcd60e51b81526004016107f39061359d565b600081815260696020908152604080832080546001600160a01b03199081169091556001600160a01b0387811680865260688552838620805460001901905590871680865283862080546001019055868652606790945282852080549092168417909155905184937fddf252ad1be2c89b69c2b068fc378daa952ba7f163c4a11628f55a4df523b3ef91a4505050565b61236b8383612a03565b6123786000848484612394565b6108945760405162461bcd60e51b81526004016107f3906134e8565b60006001600160a01b0384163b1561248757604051630a85bd0160e11b81526001600160a01b0385169063150b7a02906123d89033908990889088906004016135e2565b6020604051808303816000875af1925050508015612413575060408051601f3d908101601f191682019092526124109181019061361f565b60015b61246d573d808015612441576040519150601f19603f3d011682016040523d82523d6000602084013e612446565b606091505b5080516124655760405162461bcd60e51b81526004016107f3906134e8565b805181602001fd5b6001600160e01b031916630a85bd0160e11b149050611b18565b506001949350505050565b606060006124a1836002613196565b6124ac90600261353a565b67ffffffffffffffff8111156124c4576124c4612dd0565b6040519080825280601f01601f1916602001820160405280156124ee576020820181803683370190505b509050600360fc1b816000815181106125095761250961363c565b60200101906001600160f81b031916908160001a905350600f60fb1b816001815181106125385761253861363c565b60200101906001600160f81b031916908160001a905350600061255c846002613196565b61256790600161353a565b90505b60018111156125df576f181899199a1a9b1b9c1cb0b131b232b360811b85600f166010811061259b5761259b61363c565b1a60f81b8282815181106125b1576125b161363c565b60200101906001600160f81b031916908160001a90535060049490941c936125d881613652565b905061256a565b508315611a0d5760405162461bcd60e51b815260206004820181905260248201527f537472696e67733a20686578206c656e67746820696e73756666696369656e7460448201526064016107f3565b60008072184f03e93ff9f4daa797ed6e38ed64bf6a1f0160401b831061266d5772184f03e93ff9f4daa797ed6e38ed64bf6a1f0160401b830492506040015b6d04ee2d6d415b85acef81000000008310612699576d04ee2d6d415b85acef8100000000830492506020015b662386f26fc1000083106126b757662386f26fc10000830492506010015b6305f5e10083106126cf576305f5e100830492506008015b61271083106126e357612710830492506004015b606483106126f5576064830492506002015b600a83106106bf5760010192915050565b7aff00000000000000ff00000000000000ff00000000000000ff00006bffffffff0000000000000000604083901c90811663ffffffff60c01b84161760201c63ffffffff60601b919091166001600160e01b031984161717601081901c9182167eff00000000000000ff00000000000000ff00000000000000ff000000000000821617600890811c7bff00000000000000ff00000000000000ff00000000000000ff000000939093167fff00000000000000ff00000000000000ff00000000000000ff000000000000009290921691909117919091179081901c7e0f000f000f000f000f000f000f000f000f000f000f000f000f000f000f000f167f0f000f000f000f000f000f000f000f000f000f000f000f000f000f000f000f00600492831c161790612854827f060606060606060606060606060606060606060606060606060606060606060661353a565b901c7f0f0f0f0f0f0f0f0f0f0f0f0f0f0f0f0f0f0f0f0f0f0f0f0f0f0f0f0f0f0f0f0f1660076128849190613196565b6128ae827f303030303030303030303030303030303030303030303030303030303030303061353a565b6106bf919061353a565b600054610100900460ff166128df5760405162461bcd60e51b81526004016107f390613552565b81516128f2906065906020850190612c3f565b508051610894906066906020840190612c3f565b600054610100900460ff16611bb55760405162461bcd60e51b81526004016107f390613552565b600054610100900460ff166129545760405162461bcd60e51b81526004016107f390613552565b6097805460ff19169055565b600054610100900460ff166129875760405162461bcd60e51b81526004016107f390613552565b610e5233611d1a565b61299c84848484612a3c565b60975460ff16156111655760405162461bcd60e51b815260206004820152602b60248201527f4552433732315061757361626c653a20746f6b656e207472616e73666572207760448201526a1a1a5b19481c185d5cd95960aa1b60648201526084016107f3565b612a0d8282612ac4565b60009081526101656020526040902080546001600160a01b0319166001600160a01b0392909216919091179055565b6001811115611165576001600160a01b03841615612a82576001600160a01b03841660009081526068602052604081208054839290612a7c908490613669565b90915550505b6001600160a01b03831615611165576001600160a01b03831660009081526068602052604081208054839290612ab990849061353a565b909155505050505050565b6001600160a01b038216612b1a5760405162461bcd60e51b815260206004820181905260248201527f4552433732313a206d696e7420746f20746865207a65726f206164647265737360448201526064016107f3565b612b2381611bbc565b15612b705760405162461bcd60e51b815260206004820152601c60248201527f4552433732313a20746f6b656e20616c7265616479206d696e7465640000000060448201526064016107f3565b612b7e600083836001612990565b612b8781611bbc565b15612bd45760405162461bcd60e51b815260206004820152601c60248201527f4552433732313a20746f6b656e20616c7265616479206d696e7465640000000060448201526064016107f3565b6001600160a01b038216600081815260686020908152604080832080546001019055848352606790915280822080546001600160a01b0319168417905551839291907fddf252ad1be2c89b69c2b068fc378daa952ba7f163c4a11628f55a4df523b3ef908290a45050565b828054612c4b906130db565b90600052602060002090601f016020900481019282612c6d5760008555612cb3565b82601f10612c8657805160ff1916838001178555612cb3565b82800160010185558215612cb3579182015b82811115612cb3578251825591602001919060010190612c98565b50612cbf929150612cc3565b5090565b5b80821115612cbf5760008155600101612cc4565b6001600160e01b03198116811461098a57600080fd5b600060208284031215612d0057600080fd5b8135611a0d81612cd8565b60005b83811015612d26578181015183820152602001612d0e565b838111156111655750506000910152565b60008151808452612d4f816020860160208601612d0b565b601f01601f19169290920160200192915050565b602081526000611a0d6020830184612d37565b600060208284031215612d8857600080fd5b5035919050565b80356001600160a01b0381168114610db557600080fd5b60008060408385031215612db957600080fd5b612dc283612d8f565b946020939093013593505050565b634e487b7160e01b600052604160045260246000fd5b604051601f8201601f1916810167ffffffffffffffff81118282101715612e0f57612e0f612dd0565b604052919050565b600067ffffffffffffffff821115612e3157612e31612dd0565b50601f01601f191660200190565b6000612e52612e4d84612e17565b612de6565b9050828152838383011115612e6657600080fd5b828260208301376000602084830101529392505050565b600082601f830112612e8e57600080fd5b611a0d83833560208501612e3f565b600060208284031215612eaf57600080fd5b813567ffffffffffffffff811115612ec657600080fd5b611b1884828501612e7d565b600060208284031215612ee457600080fd5b611a0d82612d8f565b600080600060608486031215612f0257600080fd5b612f0b84612d8f565b9250612f1960208501612d8f565b9150604084013590509250925092565b60008060408385031215612f3c57600080fd5b50508035926020909101359150565b801515811461098a57600080fd5b60008060408385031215612f6c57600080fd5b612f7583612d8f565b91506020830135612f8581612f4b565b809150509250929050565b60008060008060808587031215612fa657600080fd5b612faf85612d8f565b9350612fbd60208601612d8f565b925060408501359150606085013567ffffffffffffffff811115612fe057600080fd5b8501601f81018713612ff157600080fd5b61300087823560208401612e3f565b91505092959194509250565b60008060008060008060c0878903121561302557600080fd5b863567ffffffffffffffff8082111561303d57600080fd5b6130498a838b01612e7d565b9750602089013591508082111561305f57600080fd5b5061306c89828a01612e7d565b95505061307b60408801612d8f565b935061308960608801612d8f565b925061309760808801612d8f565b91506130a560a08801612d8f565b90509295509295509295565b600080604083850312156130c457600080fd5b6130cd83612d8f565b9150610af260208401612d8f565b600181811c908216806130ef57607f821691505b6020821081141561311057634e487b7160e01b600052602260045260246000fd5b50919050565b6020808252602d908201527f4552433732313a2063616c6c6572206973206e6f7420746f6b656e206f776e6560408201526c1c881bdc88185c1c1c9bdd9959609a1b606082015260800190565b60006020828403121561317557600080fd5b8151611a0d81612f4b565b634e487b7160e01b600052601160045260246000fd5b60008160001904831182151516156131b0576131b0613180565b500290565b6000826131d257634e487b7160e01b600052601260045260246000fd5b500490565b60006000198214156131eb576131eb613180565b5060010190565b60006020828403121561320457600080fd5b5051919050565b60006020828403121561321d57600080fd5b815167ffffffffffffffff81111561323457600080fd5b8201601f8101841361324557600080fd5b8051613253612e4d82612e17565b81815285602083850101111561326857600080fd5b613279826020830160208601612d0b565b95945050505050565b60008151613294818560208601612d0b565b9290920192915050565b7216101130b734b6b0ba34b7b72fbab936111d1160691b815281516000906132cd816013850160208701612d0b565b601160f91b6013939091019283015250601401919050565b600085516132f7818460208a01612d0b565b8083019050602f60f81b8082528651613317816001850160208b01612d0b565b60019201918201528451613332816002840160208901612d0b565b653f736565643d60d01b600292909101918201528351613359816008840160208801612d0b565b016008019695505050505050565b60008251613379818460208701612d0b565b9190910192915050565b683d913730b6b2911d1160b91b815285516000906133a8816009850160208b01612d0b565b711116113232b9b1b934b83a34b7b7111d101160711b60099184019182015286516133da81601b840160208b01612d0b565b601160f91b601b92909101918201526b16101134b6b0b3b2911d101160a11b601c8201528551613411816028840160208a01612d0b565b6e1331b0b83a3ab9329e9b181818181160891b602892909101918201528451613441816037840160208901612d0b565b7016101130ba3a3934b13aba32b9911d101160791b6037929091019182015261349761348a6134736048840187613282565b6a1331b0b83a3ab9329e981160a91b8152600b0190565b607d60f81b815260010190565b98975050505050505050565b7f646174613a6170706c69636174696f6e2f6a736f6e3b6261736536342c0000008152600082516134db81601d850160208701612d0b565b91909101601d0192915050565b60208082526032908201527f4552433732313a207472616e7366657220746f206e6f6e20455243373231526560408201527131b2b4bb32b91034b6b83632b6b2b73a32b960711b606082015260800190565b6000821982111561354d5761354d613180565b500190565b6020808252602b908201527f496e697469616c697a61626c653a20636f6e7472616374206973206e6f74206960408201526a6e697469616c697a696e6760a81b606082015260800190565b60208082526025908201527f4552433732313a207472616e736665722066726f6d20696e636f72726563742060408201526437bbb732b960d91b606082015260800190565b6001600160a01b038581168252841660208201526040810183905260806060820181905260009061361590830184612d37565b9695505050505050565b60006020828403121561363157600080fd5b8151611a0d81612cd8565b634e487b7160e01b600052603260045260246000fd5b60008161366157613661613180565b506000190190565b60008282101561367b5761367b613180565b50039056fe4142434445464748494a4b4c4d4e4f505152535455565758595a6162636465666768696a6b6c6d6e6f707172737475767778797a303132333435363738392b2fa2646970667358221220597b4920cdfc3625d29111168669b10a85c601e3542003ce57fbc41a6bb58a3164736f6c634300080c0033",
  "linkReferences": {},
  "deployedLinkReferences": {}
}