{
  "_format": "hh-sol-artifact-1",
  "contractName": "Solaris",
  "sourceName": "contracts/nfts/Solaris.sol",
  "abi": [
    {
      "anonymous": false,
      "inputs": [
        {
          "indexed": true,
          "internalType": "address",
          "name": "owner",
          "type": "address"
        },
        {
          "indexed": true,
          "internalType": "address",
          "name": "approved",
          "type": "address"
        },
        {
          "indexed": true,
          "internalType": "uint256",
          "name": "tokenId",
          "type": "uint256"
        }
      ],
      "name": "Approval",
      "type": "event"
    },
    {
      "anonymous": false,
      "inputs": [
        {
          "indexed": true,
          "internalType": "address",
          "name": "owner",
          "type": "address"
        },
        {
          "indexed": true,
          "internalType": "address",
          "name": "operator",
          "type": "address"
        },
        {
          "indexed": false,
          "internalType": "bool",
          "name": "approved",
          "type": "bool"
        }
      ],
      "name": "ApprovalForAll",
      "type": "event"
    },
    {
      "anonymous": false,
      "inputs": [
        {
          "indexed": true,
          "internalType": "address",
          "name": "reserver",
          "type": "address"
        },
        {
          "indexed": true,
          "internalType": "uint256",
          "name": "tokenId",
          "type": "uint256"
        },
        {
          "indexed": true,
          "internalType": "address",
          "name": "owner",
          "type": "address"
        },
        {
          "indexed": false,
          "internalType": "uint256",
          "name": "blockNumber",
          "type": "uint256"
        }
      ],
      "name": "Claim",
      "type": "event"
    },
    {
      "anonymous": false,
      "inputs": [
        {
          "indexed": false,
          "internalType": "uint8",
          "name": "version",
          "type": "uint8"
        }
      ],
      "name": "Initialized",
      "type": "event"
    },
    {
      "anonymous": false,
      "inputs": [
        {
          "indexed": true,
          "internalType": "address",
          "name": "previousOwner",
          "type": "address"
        },
        {
          "indexed": true,
          "internalType": "address",
          "name": "newOwner",
          "type": "address"
        }
      ],
      "name": "OwnershipTransferred",
      "type": "event"
    },
    {
      "anonymous": false,
      "inputs": [
        {
          "indexed": false,
          "internalType": "address",
          "name": "account",
          "type": "address"
        }
      ],
      "name": "Paused",
      "type": "event"
    },
    {
      "anonymous": false,
      "inputs": [
        {
          "indexed": true,
          "internalType": "address",
          "name": "reserver",
          "type": "address"
        },
        {
          "indexed": true,
          "internalType": "uint256",
          "name": "tokenId",
          "type": "uint256"
        },
        {
          "indexed": true,
          "internalType": "address",
          "name": "owner",
          "type": "address"
        },
        {
          "indexed": false,
          "internalType": "uint256",
          "name": "blockNumber",
          "type": "uint256"
        }
      ],
      "name": "Reserve",
      "type": "event"
    },
    {
      "anonymous": false,
      "inputs": [
        {
          "indexed": true,
          "internalType": "address",
          "name": "from",
          "type": "address"
        },
        {
          "indexed": true,
          "internalType": "address",
          "name": "to",
          "type": "address"
        },
        {
          "indexed": true,
          "internalType": "uint256",
          "name": "tokenId",
          "type": "uint256"
        }
      ],
      "name": "Transfer",
      "type": "event"
    },
    {
      "anonymous": false,
      "inputs": [
        {
          "indexed": false,
          "internalType": "address",
          "name": "account",
          "type": "address"
        }
      ],
      "name": "Unpaused",
      "type": "event"
    },
    {
      "inputs": [],
      "name": "_admin",
      "outputs": [
        {
          "internalType": "address",
          "name": "",
          "type": "address"
        }
      ],
      "stateMutability": "view",
      "type": "function"
    },
    {
      "inputs": [],
      "name": "_bfs",
      "outputs": [
        {
          "internalType": "address",
          "name": "",
          "type": "address"
        }
      ],
      "stateMutability": "view",
      "type": "function"
    },
    {
      "inputs": [],
      "name": "_brc20Token",
      "outputs": [
        {
          "internalType": "address",
          "name": "",
          "type": "address"
        }
      ],
      "stateMutability": "view",
      "type": "function"
    },
    {
      "inputs": [],
      "name": "_maxSupply",
      "outputs": [
        {
          "internalType": "uint256",
          "name": "",
          "type": "uint256"
        }
      ],
      "stateMutability": "view",
      "type": "function"
    },
    {
      "inputs": [],
      "name": "_paramsAddress",
      "outputs": [
        {
          "internalType": "address",
          "name": "",
          "type": "address"
        }
      ],
      "stateMutability": "view",
      "type": "function"
    },
    {
      "inputs": [],
      "name": "_randomizerAddr",
      "outputs": [
        {
          "internalType": "address",
          "name": "",
          "type": "address"
        }
      ],
      "stateMutability": "view",
      "type": "function"
    },
    {
      "inputs": [
        {
          "internalType": "uint256",
          "name": "",
          "type": "uint256"
        },
        {
          "internalType": "address",
          "name": "",
          "type": "address"
        }
      ],
      "name": "_reservations",
      "outputs": [
        {
          "internalType": "uint256",
          "name": "",
          "type": "uint256"
        }
      ],
      "stateMutability": "view",
      "type": "function"
    },
    {
      "inputs": [],
      "name": "_script",
      "outputs": [
        {
          "internalType": "string",
          "name": "",
          "type": "string"
        }
      ],
      "stateMutability": "view",
      "type": "function"
    },
    {
      "inputs": [
        {
          "internalType": "address",
          "name": "to",
          "type": "address"
        },
        {
          "internalType": "uint256",
          "name": "tokenId",
          "type": "uint256"
        }
      ],
      "name": "approve",
      "outputs": [],
      "stateMutability": "nonpayable",
      "type": "function"
    },
    {
      "inputs": [
        {
          "internalType": "address",
          "name": "owner",
          "type": "address"
        }
      ],
      "name": "balanceOf",
      "outputs": [
        {
          "internalType": "uint256",
          "name": "",
          "type": "uint256"
        }
      ],
      "stateMutability": "view",
      "type": "function"
    },
    {
      "inputs": [
        {
          "internalType": "address",
          "name": "to",
          "type": "address"
        },
        {
          "internalType": "uint256",
          "name": "n",
          "type": "uint256"
        }
      ],
      "name": "batchMint",
      "outputs": [
        {
          "internalType": "uint256[]",
          "name": "",
          "type": "uint256[]"
        }
      ],
      "stateMutability": "payable",
      "type": "function"
    },
    {
      "inputs": [
        {
          "internalType": "address",
          "name": "newAdm",
          "type": "address"
        }
      ],
      "name": "changeAdmin",
      "outputs": [],
      "stateMutability": "nonpayable",
      "type": "function"
    },
    {
      "inputs": [
        {
          "internalType": "address",
          "name": "newBfs",
          "type": "address"
        }
      ],
      "name": "changeBfs",
      "outputs": [],
      "stateMutability": "nonpayable",
      "type": "function"
    },
    {
      "inputs": [
        {
          "internalType": "address",
          "name": "newBrc20",
          "type": "address"
        }
      ],
      "name": "changeBrc20Token",
      "outputs": [],
      "stateMutability": "nonpayable",
      "type": "function"
    },
    {
      "inputs": [
        {
          "internalType": "address",
          "name": "newAddr",
          "type": "address"
        }
      ],
      "name": "changeParamAddr",
      "outputs": [],
      "stateMutability": "nonpayable",
      "type": "function"
    },
    {
      "inputs": [
        {
          "internalType": "address",
          "name": "newAddr",
          "type": "address"
        }
      ],
      "name": "changeRandomizerAddr",
      "outputs": [],
      "stateMutability": "nonpayable",
      "type": "function"
    },
    {
      "inputs": [
        {
          "internalType": "string",
          "name": "newScript",
          "type": "string"
        }
      ],
      "name": "changeScript",
      "outputs": [],
      "stateMutability": "nonpayable",
      "type": "function"
    },
    {
      "inputs": [
        {
          "internalType": "uint256",
          "name": "tokenId",
          "type": "uint256"
        }
      ],
      "name": "claim",
      "outputs": [],
      "stateMutability": "payable",
      "type": "function"
    },
    {
      "inputs": [
        {
          "internalType": "uint256",
          "name": "tokenId",
          "type": "uint256"
        }
      ],
      "name": "claimable",
      "outputs": [
        {
          "internalType": "bool",
          "name": "",
          "type": "bool"
        }
      ],
      "stateMutability": "view",
      "type": "function"
    },
    {
      "inputs": [
        {
          "internalType": "uint256",
          "name": "tokenId",
          "type": "uint256"
        }
      ],
      "name": "getApproved",
      "outputs": [
        {
          "internalType": "address",
          "name": "",
          "type": "address"
        }
      ],
      "stateMutability": "view",
      "type": "function"
    },
    {
      "inputs": [
        {
          "internalType": "string",
          "name": "name",
          "type": "string"
        },
        {
          "internalType": "string",
          "name": "symbol",
          "type": "string"
        },
        {
          "internalType": "address",
          "name": "admin",
          "type": "address"
        },
        {
          "internalType": "address",
          "name": "paramsAddress",
          "type": "address"
        },
        {
          "internalType": "address",
          "name": "randomizerAddr",
          "type": "address"
        },
        {
          "internalType": "address",
          "name": "gmToken",
          "type": "address"
        }
      ],
      "name": "initialize",
      "outputs": [],
      "stateMutability": "nonpayable",
      "type": "function"
    },
    {
      "inputs": [
        {
          "internalType": "address",
          "name": "owner",
          "type": "address"
        },
        {
          "internalType": "address",
          "name": "operator",
          "type": "address"
        }
      ],
      "name": "isApprovedForAll",
      "outputs": [
        {
          "internalType": "bool",
          "name": "",
          "type": "bool"
        }
      ],
      "stateMutability": "view",
      "type": "function"
    },
    {
      "inputs": [
        {
          "internalType": "address",
          "name": "to",
          "type": "address"
        }
      ],
      "name": "mint",
      "outputs": [
        {
          "internalType": "uint256",
          "name": "tokenId",
          "type": "uint256"
        }
      ],
      "stateMutability": "payable",
      "type": "function"
    },
    {
      "inputs": [],
      "name": "name",
      "outputs": [
        {
          "internalType": "string",
          "name": "",
          "type": "string"
        }
      ],
      "stateMutability": "view",
      "type": "function"
    },
    {
      "inputs": [],
      "name": "owner",
      "outputs": [
        {
          "internalType": "address",
          "name": "",
          "type": "address"
        }
      ],
      "stateMutability": "view",
      "type": "function"
    },
    {
      "inputs": [
        {
          "internalType": "uint256",
          "name": "tokenId",
          "type": "uint256"
        }
      ],
      "name": "ownerOf",
      "outputs": [
        {
          "internalType": "address",
          "name": "",
          "type": "address"
        }
      ],
      "stateMutability": "view",
      "type": "function"
    },
    {
      "inputs": [],
      "name": "p5jsScript",
      "outputs": [
        {
          "internalType": "string",
          "name": "",
          "type": "string"
        }
      ],
      "stateMutability": "view",
      "type": "function"
    },
    {
      "inputs": [],
      "name": "paused",
      "outputs": [
        {
          "internalType": "bool",
          "name": "",
          "type": "bool"
        }
      ],
      "stateMutability": "view",
      "type": "function"
    },
    {
      "inputs": [],
      "name": "renounceOwnership",
      "outputs": [],
      "stateMutability": "nonpayable",
      "type": "function"
    },
    {
      "inputs": [
        {
          "internalType": "uint256",
          "name": "tokenId",
          "type": "uint256"
        }
      ],
      "name": "reserve",
      "outputs": [],
      "stateMutability": "payable",
      "type": "function"
    },
    {
      "inputs": [
        {
          "internalType": "uint256",
          "name": "projectId",
          "type": "uint256"
        },
        {
          "internalType": "uint256",
          "name": "_salePrice",
          "type": "uint256"
        }
      ],
      "name": "royaltyInfo",
      "outputs": [
        {
          "internalType": "address",
          "name": "receiver",
          "type": "address"
        },
        {
          "internalType": "uint256",
          "name": "royaltyAmount",
          "type": "uint256"
        }
      ],
      "stateMutability": "view",
      "type": "function"
    },
    {
      "inputs": [
        {
          "internalType": "address",
          "name": "from",
          "type": "address"
        },
        {
          "internalType": "address",
          "name": "to",
          "type": "address"
        },
        {
          "internalType": "uint256",
          "name": "tokenId",
          "type": "uint256"
        }
      ],
      "name": "safeTransferFrom",
      "outputs": [],
      "stateMutability": "nonpayable",
      "type": "function"
    },
    {
      "inputs": [
        {
          "internalType": "address",
          "name": "from",
          "type": "address"
        },
        {
          "internalType": "address",
          "name": "to",
          "type": "address"
        },
        {
          "internalType": "uint256",
          "name": "tokenId",
          "type": "uint256"
        },
        {
          "internalType": "bytes",
          "name": "data",
          "type": "bytes"
        }
      ],
      "name": "safeTransferFrom",
      "outputs": [],
      "stateMutability": "nonpayable",
      "type": "function"
    },
    {
      "inputs": [
        {
          "internalType": "address",
          "name": "operator",
          "type": "address"
        },
        {
          "internalType": "bool",
          "name": "approved",
          "type": "bool"
        }
      ],
      "name": "setApprovalForAll",
      "outputs": [],
      "stateMutability": "nonpayable",
      "type": "function"
    },
    {
      "inputs": [
        {
          "internalType": "bytes4",
          "name": "interfaceId",
          "type": "bytes4"
        }
      ],
      "name": "supportsInterface",
      "outputs": [
        {
          "internalType": "bool",
          "name": "",
          "type": "bool"
        }
      ],
      "stateMutability": "view",
      "type": "function"
    },
    {
      "inputs": [],
      "name": "symbol",
      "outputs": [
        {
          "internalType": "string",
          "name": "",
          "type": "string"
        }
      ],
      "stateMutability": "view",
      "type": "function"
    },
    {
      "inputs": [
        {
          "internalType": "bytes32",
          "name": "seed",
          "type": "bytes32"
        }
      ],
      "name": "tokenHTML",
      "outputs": [
        {
          "internalType": "string",
          "name": "result",
          "type": "string"
        }
      ],
      "stateMutability": "view",
      "type": "function"
    },
    {
      "inputs": [
        {
          "internalType": "uint256",
          "name": "tokenId",
          "type": "uint256"
        }
      ],
      "name": "tokenIdToHash",
      "outputs": [
        {
          "internalType": "bytes32",
          "name": "",
          "type": "bytes32"
        }
      ],
      "stateMutability": "view",
      "type": "function"
    },
    {
      "inputs": [
        {
          "internalType": "uint256",
          "name": "tokenId",
          "type": "uint256"
        }
      ],
      "name": "tokenURI",
      "outputs": [
        {
          "internalType": "string",
          "name": "result",
          "type": "string"
        }
      ],
      "stateMutability": "view",
      "type": "function"
    },
    {
      "inputs": [
        {
          "internalType": "address",
          "name": "from",
          "type": "address"
        },
        {
          "internalType": "address",
          "name": "to",
          "type": "address"
        },
        {
          "internalType": "uint256",
          "name": "tokenId",
          "type": "uint256"
        }
      ],
      "name": "transferFrom",
      "outputs": [],
      "stateMutability": "nonpayable",
      "type": "function"
    },
    {
      "inputs": [
        {
          "internalType": "address",
          "name": "newOwner",
          "type": "address"
        }
      ],
      "name": "transferOwnership",
      "outputs": [],
      "stateMutability": "nonpayable",
      "type": "function"
    },
    {
      "inputs": [],
      "name": "web3Script",
      "outputs": [
        {
          "internalType": "string",
          "name": "",
          "type": "string"
        }
      ],
      "stateMutability": "view",
      "type": "function"
    }
  ],
  "bytecode": "0x608060405234801561001057600080fd5b506143e2806100206000396000f3fe6080604052600436106102515760003560e01c806370a0823111610139578063a22cb465116100b6578063d1d58b251161007a578063d1d58b25146106e2578063e1f796ae14610702578063e56f2fe414610722578063e985e9c514610742578063f2fde38b1461078b578063febfd6c3146107ab57600080fd5b8063a22cb46514610628578063adfc7dae14610648578063b88d4fde14610669578063bd5b4fa114610689578063c87b56dd146106c257600080fd5b80638da5cb5b116100fd5780638da5cb5b1461059f5780638f283970146105be57806393c6cdc0146105de57806395d89b41146105fe578063a0d41e111461061357600080fd5b806370a082311461052d578063715018a61461054d57806374973a4114610562578063819b25ba146105775780638a0162491461058a57600080fd5b80632a55205a116101d257806343508b051161019657806343508b05146104815780635c975abb146104a1578063621a1f74146104b95780636352211e146104d957806366215eb4146104f95780636a6278421461051a57600080fd5b80632a55205a146103ce5780632b7d13de1461040d578063333489791461042d578063379607f51461044e57806342842e0e1461046157600080fd5b8063140f0e0711610219578063140f0e07146103285780631ca9741b1461034857806322f4596f1461036857806323b872dd1461038d578063254c0d4d146103ad57600080fd5b806301bc45c91461025657806301ffc9a71461029457806306fdde03146102c4578063081812fc146102e6578063095ea7b314610306575b600080fd5b34801561026257600080fd5b5061015f54610277906001600160a01b031681565b6040516001600160a01b0390911681526020015b60405180910390f35b3480156102a057600080fd5b506102b46102af366004613746565b6107cb565b604051901515815260200161028b565b3480156102d057600080fd5b506102d961081d565b60405161028b91906137bb565b3480156102f257600080fd5b506102776103013660046137ce565b6108af565b34801561031257600080fd5b506103266103213660046137fc565b6108d6565b005b34801561033457600080fd5b506103266103433660046138f5565b6109f1565b34801561035457600080fd5b5061032661036336600461392a565b610a51565b34801561037457600080fd5b5061037f6101655481565b60405190815260200161028b565b34801561039957600080fd5b506103266103a8366004613947565b610ae5565b3480156103b957600080fd5b5061016454610277906001600160a01b031681565b3480156103da57600080fd5b506103ee6103e9366004613988565b610c74565b604080516001600160a01b03909316835260208301919091520161028b565b34801561041957600080fd5b5061032661042836600461392a565b610ca5565b34801561043957600080fd5b5061016854610277906001600160a01b031681565b61032661045c3660046137ce565b610d3a565b34801561046d57600080fd5b5061032661047c366004613947565b610e72565b61049461048f3660046137fc565b610e8d565b60405161028b91906139aa565b3480156104ad57600080fd5b5060975460ff166102b4565b3480156104c557600080fd5b5061037f6104d43660046137ce565b610f39565b3480156104e557600080fd5b506102776104f43660046137ce565b611007565b34801561050557600080fd5b5061016154610277906001600160a01b031681565b61037f61052836600461392a565b611023565b34801561053957600080fd5b5061037f61054836600461392a565b611171565b34801561055957600080fd5b506103266111f7565b34801561056e57600080fd5b506102d961120b565b6103266105853660046137ce565b611469565b34801561059657600080fd5b506102d96115a1565b3480156105ab57600080fd5b5061012d546001600160a01b0316610277565b3480156105ca57600080fd5b506103266105d936600461392a565b611630565b3480156105ea57600080fd5b506103266105f936600461392a565b6116c5565b34801561060a57600080fd5b506102d961175a565b34801561061f57600080fd5b506102d9611769565b34801561063457600080fd5b506103266106433660046139ee565b61199c565b34801561065457600080fd5b5061016054610277906001600160a01b031681565b34801561067557600080fd5b50610326610684366004613a2c565b6119a7565b34801561069557600080fd5b5061037f6106a4366004613aac565b61016660209081526000928352604080842090915290825290205481565b3480156106ce57600080fd5b506102d96106dd3660046137ce565b611b3d565b3480156106ee57600080fd5b506102b46106fd3660046137ce565b611e14565b34801561070e57600080fd5b506102d961071d3660046137ce565b611e74565b34801561072e57600080fd5b5061032661073d366004613ad1565b611f18565b34801561074e57600080fd5b506102b461075d366004613b80565b6001600160a01b039182166000908152606a6020908152604080832093909416825291909152205460ff1690565b34801561079757600080fd5b506103266107a636600461392a565b612122565b3480156107b757600080fd5b506103266107c636600461392a565b612198565b60006001600160e01b031982166380ac58cd60e01b14806107fc57506001600160e01b03198216635b5e139f60e01b145b8061081757506301ffc9a760e01b6001600160e01b03198316145b92915050565b60606065805461082c90613bae565b80601f016020809104026020016040519081016040528092919081815260200182805461085890613bae565b80156108a55780601f1061087a576101008083540402835291602001916108a5565b820191906000526020600020905b81548152906001019060200180831161088857829003601f168201915b5050505050905090565b60006108ba8261222d565b506000908152606960205260409020546001600160a01b031690565b60006108e18261227d565b9050806001600160a01b0316836001600160a01b031614156109545760405162461bcd60e51b815260206004820152602160248201527f4552433732313a20617070726f76616c20746f2063757272656e74206f776e656044820152603960f91b60648201526084015b60405180910390fd5b336001600160a01b03821614806109705750610970813361075d565b6109e25760405162461bcd60e51b815260206004820152603d60248201527f4552433732313a20617070726f76652063616c6c6572206973206e6f7420746f60448201527f6b656e206f776e6572206f7220617070726f76656420666f7220616c6c000000606482015260840161094b565b6109ec83836122dd565b505050565b61015f5460408051808201909152600381526231303160e81b6020820152906001600160a01b03163314610a385760405162461bcd60e51b815260040161094b91906137bb565b508051610a4d90610163906020840190613697565b5050565b61015f546001600160a01b031633148015610a7457506001600160a01b03811615155b6040518060400160405280600381526020016231303160e81b81525090610aae5760405162461bcd60e51b815260040161094b91906137bb565b50610161546001600160a01b03828116911614610ae25761016180546001600160a01b0319166001600160a01b0383161790555b50565b336001600160a01b0384161415610b4a576000610b013361234b565b90506000610b0d6123c4565b905080821015610b435760405162461bcd60e51b81526020600482015260016024820152601560fa1b604482015260640161094b565b5050610c69565b333b63ffffffff1615610bcc57610b61338261246a565b610b7d5760405162461bcd60e51b815260040161094b90613be9565b6000610b888461234b565b90506000610b946123c4565b905080821015610b435760405162461bcd60e51b8152602060048201526003602482015262545f3160e81b604482015260640161094b565b610bd581611e14565b610c0a5760405162461bcd60e51b815260040161094b90602080825260049082015263272fa19960e11b604082015260600190565b6000610c146124d3565b6000838152610166602090815260408083203384529091529020549091508015801590610c4a575081610c478243613c4c565b10155b610c665760405162461bcd60e51b815260040161094b90613c63565b50505b6109ec838383612571565b61015f546001600160a01b03166000612710610c92846101f4613c83565b610c9c9190613ca2565b90509250929050565b61015f546001600160a01b031633148015610cc857506001600160a01b03811615155b6040518060400160405280600381526020016231303160e81b81525090610d025760405162461bcd60e51b815260040161094b91906137bb565b50610168546001600160a01b03828116911614610ae25761016880546001600160a01b0383166001600160a01b031990911617905550565b610d426125ac565b610d4b81611e14565b610d805760405162461bcd60e51b815260040161094b906020808252600490820152634e5f433160e01b604082015260600190565b6000610d8a6124d3565b6000838152610166602090815260408083203384529091529020549091508015801590610dc0575081610dbd8243613c4c565b10155b610ddc5760405162461bcd60e51b815260040161094b90613c63565b6000610de784611007565b9050610df4813386612571565b600084815261016660209081526040808320338452909152812055610e1884611007565b6001600160a01b031684336001600160a01b03167fad03f837a9207e368d73ec028e1f54428184da8cfea258cc116da2225f3ac5eb43604051610e5d91815260200190565b60405180910390a4505050610ae2600160fb55565b6109ec838383604051806020016040528060008152506119a7565b606060008267ffffffffffffffff811115610eaa57610eaa613828565b604051908082528060200260200182016040528015610ed3578160200160208202803683370190505b50905060005b83811015610f31576000610eec86611023565b905080838381518110610f0157610f01613cc4565b60200260200101818152505062030d405a1015610f1e5750610f31565b5080610f2981613cda565b915050610ed9565b509392505050565b6000610f448261260d565b6040518060400160405280600381526020016232303960e81b81525090610f7e5760405162461bcd60e51b815260040161094b91906137bb565b5060008281526101676020526040902054600160a01b900460a01b6001600160a01b031916610faf57506000919050565b60008281526101676020908152604091829020549151610fea92600160a01b900460a01b91016001600160a01b031991909116815260200190565b604051602081830303815290604052805190602001209050919050565b600090815261016760205260409020546001600160a01b031690565b600061102d6125ac565b6101655461016254106040518060400160405280600381526020016232303360e81b815250906110705760405162461bcd60e51b815260040161094b91906137bb565b5061015f5460408051808201909152600381526231303160e81b6020820152906001600160a01b031633146110b85760405162461bcd60e51b815260040161094b91906137bb565b5061016280549060006110ca83613cda565b91905055506101625490506110df828261262b565b61016154604051631da00d8560e01b8152600481018390526001600160a01b03909116906000908290631da00d85906024016020604051808303816000875af1158015611130573d6000803e3d6000fd5b505050506040513d601f19601f820116820180604052508101906111549190613cf5565b90506111608382612645565b505061116c600160fb55565b919050565b60006001600160a01b0382166111db5760405162461bcd60e51b815260206004820152602960248201527f4552433732313a2061646472657373207a65726f206973206e6f7420612076616044820152683634b21037bbb732b960b91b606482015260840161094b565b506001600160a01b031660009081526068602052604090205490565b6111ff612710565b611209600061276b565b565b606060006040518060600160405280603781526020016143766037913961016854604080518082018252600d81526c70356a7340312e352e302e6a7360981b602082015261016054915163bf40fac160e01b81529394506001600160a01b039283169390929190911690600090829063bf40fac1906112b0906004016020808252600f908201526e29a1a924a82a2fa82927ab24a222a960891b604082015260600190565b602060405180830381865afa1580156112cd573d6000803e3d6000fd5b505050506040513d601f19601f820116820180604052508101906112f19190613d0e565b90506000846001600160a01b031663ba67e64183866040518363ffffffff1660e01b8152600401611323929190613d2b565b602060405180830381865afa158015611340573d6000803e3d6000fd5b505050506040513d601f19601f820116820180604052508101906113649190613cf5565b9050611371600182613d4f565b905060005b8181101561143c5761015f5460405163283959d960e21b815260009182916001600160a01b038a81169263a0e56764926113ba92909116908b908890600401613d67565b600060405180830381865afa1580156113d7573d6000803e3d6000fd5b505050506040513d6000823e601f3d908101601f191682016040526113ff9190810190613dcb565b915091508882604051602001611416929190613e42565b60405160208183030381529060405298505050808061143490613cda565b915050611376565b508560405160200161144e9190613e71565b60408051601f19818403018152919052979650505050505050565b6114716125ac565b61147a81611e14565b6114af5760405162461bcd60e51b815260040161094b9060208082526004908201526304e5f43360e41b604082015260600190565b60006114b96124d3565b6000838152610166602090815260408083203384529091529020549091508015806114ed5750816114ea8243613c4c565b10155b6115225760405162461bcd60e51b81526020600482015260066024820152654e5f43305f3160d01b604482015260640161094b565b600083815261016660209081526040808320338452909152902043905561154883611007565b6001600160a01b031683336001600160a01b03167f6f8d4fbb9604038077481649590dd5ddb6c97e7236b4b644b44084733d5f85604360405161158d91815260200190565b60405180910390a45050610ae2600160fb55565b61016380546115af90613bae565b80601f01602080910402602001604051908101604052809291908181526020018280546115db90613bae565b80156116285780601f106115fd57610100808354040283529160200191611628565b820191906000526020600020905b81548152906001019060200180831161160b57829003601f168201915b505050505081565b61015f546001600160a01b03163314801561165357506001600160a01b03811615155b6040518060400160405280600381526020016231303160e81b8152509061168d5760405162461bcd60e51b815260040161094b91906137bb565b5061015f546001600160a01b03828116911614610ae25761015f80546001600160a01b0383166001600160a01b031990911617905550565b61015f546001600160a01b0316331480156116e857506001600160a01b03811615155b6040518060400160405280600381526020016231303160e81b815250906117225760405162461bcd60e51b815260040161094b91906137bb565b50610164546001600160a01b03828116911614610ae25761016480546001600160a01b0383166001600160a01b031990911617905550565b60606066805461082c90613bae565b606060006040518060600160405280603781526020016143766037913961016854604080518082018252600f81526e776562336a7340312e322e372e6a7360881b602082015261016054915163bf40fac160e01b81529394506001600160a01b039283169390929190911690600090829063bf40fac190611810906004016020808252600f908201526e29a1a924a82a2fa82927ab24a222a960891b604082015260600190565b602060405180830381865afa15801561182d573d6000803e3d6000fd5b505050506040513d601f19601f820116820180604052508101906118519190613d0e565b90506000846001600160a01b031663ba67e64183866040518363ffffffff1660e01b8152600401611883929190613d2b565b602060405180830381865afa1580156118a0573d6000803e3d6000fd5b505050506040513d601f19601f820116820180604052508101906118c49190613cf5565b90506118d1600182613d4f565b905060005b8181101561143c5761015f5460405163283959d960e21b815260009182916001600160a01b038a81169263a0e567649261191a92909116908b908890600401613d67565b600060405180830381865afa158015611937573d6000803e3d6000fd5b505050506040513d6000823e601f3d908101601f1916820160405261195f9190810190613dcb565b915091508882604051602001611976929190613e42565b60405160208183030381529060405298505050808061199490613cda565b9150506118d6565b610a4d3383836127be565b336001600160a01b0385161415611a0c5760006119c33361234b565b905060006119cf6123c4565b905080821015611a055760405162461bcd60e51b81526020600482015260016024820152601560fa1b604482015260640161094b565b5050611b2b565b333b63ffffffff1615611a8e57611a23338361246a565b611a3f5760405162461bcd60e51b815260040161094b90613be9565b6000611a4a8561234b565b90506000611a566123c4565b905080821015611a055760405162461bcd60e51b8152602060048201526003602482015262545f3160e81b604482015260640161094b565b611a9782611e14565b611acc5760405162461bcd60e51b815260040161094b90602080825260049082015263272fa19960e11b604082015260600190565b6000611ad66124d3565b6000848152610166602090815260408083203384529091529020549091508015801590611b0c575081611b098243613c4c565b10155b611b285760405162461bcd60e51b815260040161094b90613c63565b50505b611b378484848461288d565b50505050565b6060611b488261260d565b6040518060400160405280600381526020016232303960e81b81525090611b825760405162461bcd60e51b815260040161094b91906137bb565b5060405163188687dd60e21b815260048101839052600090309063621a1f7490602401602060405180830381865afa158015611bc2573d6000803e3d6000fd5b505050506040513d601f19601f82011682018060405250810190611be69190613cf5565b610160546040516370fbcb5760e11b8152600481018390529192506001600160a01b031690600090309063e1f796ae90602401600060405180830381865afa158015611c36573d6000803e3d6000fd5b505050506040513d6000823e601f3d908101601f19168201604052611c5e9190810190613e9e565b9050611c926040518060a0016040528060608152602001606081526020016060815260200160608152602001606081525090565b81604051602001611ca39190613ee7565b60408051601f19818403018152918152606083019190915280518082018252600e81526d109054d157d5549257d51490525560921b6020820152905163349f642f60e11b81526001600160a01b0385169163693ec85e91611d0791906004016137bb565b600060405180830381865afa158015611d24573d6000803e3d6000fd5b505050506040513d6000823e601f3d908101601f19168201604052611d4c9190810190613e9e565b60408201819052611d5c306128c0565b611d65886128d6565b611d6e8761296b565b604051602001611d819493929190613f2e565b6040516020818303038152906040528160400181905250611dea8160000151611dcc8360200151604051602001611db89190613fb0565b6040516020818303038152906040526129a6565b60408085015160608601519151611db8949392908290602001613fcc565b604051602001611dfa91906140ec565b604051602081830303815290604052945050505050919050565b600080611e2083611007565b90506000611e2d8261234b565b90506000611e3a3361234b565b90506000611e466123c4565b90508083108015611e575750808210155b15611e685750600195945050505050565b50600095945050505050565b60408051808201909152600c81526b1e343a36b61f1e3432b0b21f60a11b602082015280611ea061120b565b604051602001611eb1929190613e42565b604051602081830303815290604052905080611ecb611769565b604051602001611edc929190613e42565b604051602081830303815290604052905080610163604051602001611f02929190614131565b6040516020818303038152906040529050919050565b600054610100900460ff1615808015611f385750600054600160ff909116105b80611f525750303b158015611f52575060005460ff166001145b611fb55760405162461bcd60e51b815260206004820152602e60248201527f496e697469616c697a61626c653a20636f6e747261637420697320616c72656160448201526d191e481a5b9a5d1a585b1a5e995960921b606482015260840161094b565b6000805460ff191660011790558015611fd8576000805461ff0019166101001790555b60408051808201909152600381526203130360ec1b60208201526001600160a01b0386166120195760405162461bcd60e51b815260040161094b91906137bb565b5060408051808201909152600381526203130360ec1b60208201526001600160a01b03851661205b5760405162461bcd60e51b815260040161094b91906137bb565b5061016080546001600160a01b038087166001600160a01b03199283161790925561015f805488841690831617905561016180548684169083161790556101648054928516929091169190911790556103e8610165556120bb8787612b0c565b6120c3612b3d565b6120cb612b6c565b6120d3612b9b565b8015612119576000805461ff0019169055604051600181527f7f26b83ff96e1f2b6a682f133852f6798a09c465da95921460cefb38474024989060200160405180910390a15b50505050505050565b61212a612710565b6001600160a01b03811661218f5760405162461bcd60e51b815260206004820152602660248201527f4f776e61626c653a206e6577206f776e657220697320746865207a65726f206160448201526564647265737360d01b606482015260840161094b565b610ae28161276b565b61015f546001600160a01b0316331480156121bb57506001600160a01b03811615155b6040518060400160405280600381526020016231303160e81b815250906121f55760405162461bcd60e51b815260040161094b91906137bb565b50610160546001600160a01b03828116911614610ae25761016080546001600160a01b0383166001600160a01b031990911617905550565b6122368161260d565b610ae25760405162461bcd60e51b8152602060048201526018602482015277115490cdcc8c4e881a5b9d985b1a59081d1bdad95b88125160421b604482015260640161094b565b6000818152606760205260408120546001600160a01b0316806108175760405162461bcd60e51b8152602060048201526018602482015277115490cdcc8c4e881a5b9d985b1a59081d1bdad95b88125160421b604482015260640161094b565b600081815260696020526040902080546001600160a01b0319166001600160a01b03841690811790915581906123128261227d565b6001600160a01b03167f8c5be1e5ebec7d5bd14f71427d1e84f3dd0314c0f7b2291e5b200ac8c7c3b92560405160405180910390a45050565b610164546040516370a0823160e01b81526001600160a01b038381166004830152600092169081906370a0823190602401602060405180830381865afa158015612399573d6000803e3d6000fd5b505050506040513d601f19601f820116820180604052508101906123bd9190613cf5565b9392505050565b61016054604051636d12dce160e01b815260206004820152600c60248201526b11d357d512149154d213d31160a21b60448201526000916001600160a01b03169082908290636d12dce190606401602060405180830381865afa15801561242f573d6000803e3d6000fd5b505050506040513d601f19601f820116820180604052508101906124539190613cf5565b9050806108175750670de0b6b3a764000092915050565b60008061247683611007565b9050806001600160a01b0316846001600160a01b0316146124c157600061249c8261234b565b905060006124a86123c4565b9050808210156124be5760009350505050610817565b50505b6124cb8484612bca565b949350505050565b61016054604051636d12dce160e01b815260206004820152600a602482015269474d5f5245534552564560b01b60448201526000916001600160a01b03169082908290636d12dce190606401602060405180830381865afa15801561253c573d6000803e3d6000fd5b505050506040513d601f19601f820116820180604052508101906125609190613cf5565b90508061081757506103f092915050565b61257c838383612c48565b60009081526101676020526040902080546001600160a01b0319166001600160a01b039290921691909117905550565b600260fb5414156125ff5760405162461bcd60e51b815260206004820152601f60248201527f5265656e7472616e637947756172643a207265656e7472616e742063616c6c00604482015260640161094b565b600260fb55565b600160fb55565b600090815261016760205260409020546001600160a01b0316151590565b610a4d828260405180602001604052806000815250612db9565b60008281526101676020908152604091829020548251808401909352600383526219181b60e91b91830191909152600160a01b900460a01b6001600160a01b031916156126a55760405162461bcd60e51b815260040161094b91906137bb565b5060408051808201909152600381526232303760e81b6020820152816126de5760405162461bcd60e51b815260040161094b91906137bb565b5060009182526101676020526040909120805460a09290921c600160a01b026001600160a01b03909216919091179055565b61012d546001600160a01b031633146112095760405162461bcd60e51b815260206004820181905260248201527f4f776e61626c653a2063616c6c6572206973206e6f7420746865206f776e6572604482015260640161094b565b61012d80546001600160a01b038381166001600160a01b0319831681179093556040519116919082907f8be0079c531659141344cd1fd0a4f28419497f9722a3daafe3b4186f6b6457e090600090a35050565b816001600160a01b0316836001600160a01b031614156128205760405162461bcd60e51b815260206004820152601960248201527f4552433732313a20617070726f766520746f2063616c6c657200000000000000604482015260640161094b565b6001600160a01b038381166000818152606a6020908152604080832094871680845294825291829020805460ff191686151590811790915591519182527f17307eab39ab6107e8899845ad3d59bd9653f200f220920489ca2b5937696c31910160405180910390a3505050565b612898848484612571565b6128a484848484612dec565b611b375760405162461bcd60e51b815260040161094b906141e2565b60606108176001600160a01b0383166014612eea565b606060006128e383613086565b600101905060008167ffffffffffffffff81111561290357612903613828565b6040519080825280601f01601f19166020018201604052801561292d576020820181803683370190505b5090508181016020015b600019016f181899199a1a9b1b9c1cb0b131b232b360811b600a86061a8153600a850494508461296657610f31565b612937565b60606129768261315e565b612983608084901b61315e565b60405161060f60f31b602082015260228101929092526042820152606201611f02565b60608151600014156129c657505060408051602081019091526000815290565b600060405180606001604052806040815260200161433660409139905060006003845160026129f59190613d4f565b6129ff9190613ca2565b612a0a906004613c83565b90506000612a19826020613d4f565b67ffffffffffffffff811115612a3157612a31613828565b6040519080825280601f01601f191660200182016040528015612a5b576020820181803683370190505b509050818152600183018586518101602084015b81831015612ac7576003830192508251603f8160121c168501518253600182019150603f81600c1c168501518253600182019150603f8160061c168501518253600182019150603f8116850151825350600101612a6f565b600389510660018114612ae15760028114612af257612afe565b613d3d60f01b600119830152612afe565b603d60f81b6000198301525b509398975050505050505050565b600054610100900460ff16612b335760405162461bcd60e51b815260040161094b90614234565b610a4d8282613310565b600054610100900460ff16612b645760405162461bcd60e51b815260040161094b90614234565b61120961335e565b600054610100900460ff16612b935760405162461bcd60e51b815260040161094b90614234565b611209613385565b600054610100900460ff16612bc25760405162461bcd60e51b815260040161094b90614234565b6112096133b8565b600080612bd68361227d565b9050806001600160a01b0316846001600160a01b03161480612c1d57506001600160a01b038082166000908152606a602090815260408083209388168352929052205460ff165b806124cb5750836001600160a01b0316612c36846108af565b6001600160a01b031614949350505050565b826001600160a01b0316612c5b8261227d565b6001600160a01b031614612c815760405162461bcd60e51b815260040161094b9061427f565b6001600160a01b038216612ce35760405162461bcd60e51b8152602060048201526024808201527f4552433732313a207472616e7366657220746f20746865207a65726f206164646044820152637265737360e01b606482015260840161094b565b612cf083838360016133e8565b826001600160a01b0316612d038261227d565b6001600160a01b031614612d295760405162461bcd60e51b815260040161094b9061427f565b600081815260696020908152604080832080546001600160a01b03199081169091556001600160a01b0387811680865260688552838620805460001901905590871680865283862080546001019055868652606790945282852080549092168417909155905184937fddf252ad1be2c89b69c2b068fc378daa952ba7f163c4a11628f55a4df523b3ef91a4505050565b612dc3838361345b565b612dd06000848484612dec565b6109ec5760405162461bcd60e51b815260040161094b906141e2565b60006001600160a01b0384163b15612edf57604051630a85bd0160e11b81526001600160a01b0385169063150b7a0290612e309033908990889088906004016142c4565b6020604051808303816000875af1925050508015612e6b575060408051601f3d908101601f19168201909252612e6891810190614301565b60015b612ec5573d808015612e99576040519150601f19603f3d011682016040523d82523d6000602084013e612e9e565b606091505b508051612ebd5760405162461bcd60e51b815260040161094b906141e2565b805181602001fd5b6001600160e01b031916630a85bd0160e11b1490506124cb565b506001949350505050565b60606000612ef9836002613c83565b612f04906002613d4f565b67ffffffffffffffff811115612f1c57612f1c613828565b6040519080825280601f01601f191660200182016040528015612f46576020820181803683370190505b509050600360fc1b81600081518110612f6157612f61613cc4565b60200101906001600160f81b031916908160001a905350600f60fb1b81600181518110612f9057612f90613cc4565b60200101906001600160f81b031916908160001a9053506000612fb4846002613c83565b612fbf906001613d4f565b90505b6001811115613037576f181899199a1a9b1b9c1cb0b131b232b360811b85600f1660108110612ff357612ff3613cc4565b1a60f81b82828151811061300957613009613cc4565b60200101906001600160f81b031916908160001a90535060049490941c936130308161431e565b9050612fc2565b5083156123bd5760405162461bcd60e51b815260206004820181905260248201527f537472696e67733a20686578206c656e67746820696e73756666696369656e74604482015260640161094b565b60008072184f03e93ff9f4daa797ed6e38ed64bf6a1f0160401b83106130c55772184f03e93ff9f4daa797ed6e38ed64bf6a1f0160401b830492506040015b6d04ee2d6d415b85acef810000000083106130f1576d04ee2d6d415b85acef8100000000830492506020015b662386f26fc10000831061310f57662386f26fc10000830492506010015b6305f5e1008310613127576305f5e100830492506008015b612710831061313b57612710830492506004015b6064831061314d576064830492506002015b600a83106108175760010192915050565b7aff00000000000000ff00000000000000ff00000000000000ff00006bffffffff0000000000000000604083901c90811663ffffffff60c01b84161760201c63ffffffff60601b919091166001600160e01b031984161717601081901c9182167eff00000000000000ff00000000000000ff00000000000000ff000000000000821617600890811c7bff00000000000000ff00000000000000ff00000000000000ff000000939093167fff00000000000000ff00000000000000ff00000000000000ff000000000000009290921691909117919091179081901c7e0f000f000f000f000f000f000f000f000f000f000f000f000f000f000f000f167f0f000f000f000f000f000f000f000f000f000f000f000f000f000f000f000f00600492831c1617906132ac827f0606060606060606060606060606060606060606060606060606060606060606613d4f565b901c7f0f0f0f0f0f0f0f0f0f0f0f0f0f0f0f0f0f0f0f0f0f0f0f0f0f0f0f0f0f0f0f0f1660076132dc9190613c83565b613306827f3030303030303030303030303030303030303030303030303030303030303030613d4f565b6108179190613d4f565b600054610100900460ff166133375760405162461bcd60e51b815260040161094b90614234565b815161334a906065906020850190613697565b5080516109ec906066906020840190613697565b600054610100900460ff166126065760405162461bcd60e51b815260040161094b90614234565b600054610100900460ff166133ac5760405162461bcd60e51b815260040161094b90614234565b6097805460ff19169055565b600054610100900460ff166133df5760405162461bcd60e51b815260040161094b90614234565b6112093361276b565b6133f484848484613494565b60975460ff1615611b375760405162461bcd60e51b815260206004820152602b60248201527f4552433732315061757361626c653a20746f6b656e207472616e73666572207760448201526a1a1a5b19481c185d5cd95960aa1b606482015260840161094b565b613465828261351c565b60009081526101676020526040902080546001600160a01b0319166001600160a01b0392909216919091179055565b6001811115611b37576001600160a01b038416156134da576001600160a01b038416600090815260686020526040812080548392906134d4908490613c4c565b90915550505b6001600160a01b03831615611b37576001600160a01b03831660009081526068602052604081208054839290613511908490613d4f565b909155505050505050565b6001600160a01b0382166135725760405162461bcd60e51b815260206004820181905260248201527f4552433732313a206d696e7420746f20746865207a65726f2061646472657373604482015260640161094b565b61357b8161260d565b156135c85760405162461bcd60e51b815260206004820152601c60248201527f4552433732313a20746f6b656e20616c7265616479206d696e74656400000000604482015260640161094b565b6135d66000838360016133e8565b6135df8161260d565b1561362c5760405162461bcd60e51b815260206004820152601c60248201527f4552433732313a20746f6b656e20616c7265616479206d696e74656400000000604482015260640161094b565b6001600160a01b038216600081815260686020908152604080832080546001019055848352606790915280822080546001600160a01b0319168417905551839291907fddf252ad1be2c89b69c2b068fc378daa952ba7f163c4a11628f55a4df523b3ef908290a45050565b8280546136a390613bae565b90600052602060002090601f0160209004810192826136c5576000855561370b565b82601f106136de57805160ff191683800117855561370b565b8280016001018555821561370b579182015b8281111561370b5782518255916020019190600101906136f0565b5061371792915061371b565b5090565b5b80821115613717576000815560010161371c565b6001600160e01b031981168114610ae257600080fd5b60006020828403121561375857600080fd5b81356123bd81613730565b60005b8381101561377e578181015183820152602001613766565b83811115611b375750506000910152565b600081518084526137a7816020860160208601613763565b601f01601f19169290920160200192915050565b6020815260006123bd602083018461378f565b6000602082840312156137e057600080fd5b5035919050565b6001600160a01b0381168114610ae257600080fd5b6000806040838503121561380f57600080fd5b823561381a816137e7565b946020939093013593505050565b634e487b7160e01b600052604160045260246000fd5b604051601f8201601f1916810167ffffffffffffffff8111828210171561386757613867613828565b604052919050565b600067ffffffffffffffff82111561388957613889613828565b50601f01601f191660200190565b60006138aa6138a58461386f565b61383e565b90508281528383830111156138be57600080fd5b828260208301376000602084830101529392505050565b600082601f8301126138e657600080fd5b6123bd83833560208501613897565b60006020828403121561390757600080fd5b813567ffffffffffffffff81111561391e57600080fd5b6124cb848285016138d5565b60006020828403121561393c57600080fd5b81356123bd816137e7565b60008060006060848603121561395c57600080fd5b8335613967816137e7565b92506020840135613977816137e7565b929592945050506040919091013590565b6000806040838503121561399b57600080fd5b50508035926020909101359150565b6020808252825182820181905260009190848201906040850190845b818110156139e2578351835292840192918401916001016139c6565b50909695505050505050565b60008060408385031215613a0157600080fd5b8235613a0c816137e7565b915060208301358015158114613a2157600080fd5b809150509250929050565b60008060008060808587031215613a4257600080fd5b8435613a4d816137e7565b93506020850135613a5d816137e7565b925060408501359150606085013567ffffffffffffffff811115613a8057600080fd5b8501601f81018713613a9157600080fd5b613aa087823560208401613897565b91505092959194509250565b60008060408385031215613abf57600080fd5b823591506020830135613a21816137e7565b60008060008060008060c08789031215613aea57600080fd5b863567ffffffffffffffff80821115613b0257600080fd5b613b0e8a838b016138d5565b97506020890135915080821115613b2457600080fd5b50613b3189828a016138d5565b9550506040870135613b42816137e7565b93506060870135613b52816137e7565b92506080870135613b62816137e7565b915060a0870135613b72816137e7565b809150509295509295509295565b60008060408385031215613b9357600080fd5b8235613b9e816137e7565b91506020830135613a21816137e7565b600181811c90821680613bc257607f821691505b60208210811415613be357634e487b7160e01b600052602260045260246000fd5b50919050565b6020808252602d908201527f4552433732313a2063616c6c6572206973206e6f7420746f6b656e206f776e6560408201526c1c881bdc88185c1c1c9bdd9959609a1b606082015260800190565b634e487b7160e01b600052601160045260246000fd5b600082821015613c5e57613c5e613c36565b500390565b6020808252600690820152654e5f43315f3160d01b604082015260600190565b6000816000190483118215151615613c9d57613c9d613c36565b500290565b600082613cbf57634e487b7160e01b600052601260045260246000fd5b500490565b634e487b7160e01b600052603260045260246000fd5b6000600019821415613cee57613cee613c36565b5060010190565b600060208284031215613d0757600080fd5b5051919050565b600060208284031215613d2057600080fd5b81516123bd816137e7565b6001600160a01b03831681526040602082018190526000906124cb9083018461378f565b60008219821115613d6257613d62613c36565b500190565b6001600160a01b0384168152606060208201819052600090613d8b9083018561378f565b9050826040830152949350505050565b6000613da96138a58461386f565b9050828152838383011115613dbd57600080fd5b6123bd836020830184613763565b60008060408385031215613dde57600080fd5b825167ffffffffffffffff811115613df557600080fd5b8301601f81018513613e0657600080fd5b613e1585825160208401613d9b565b925050602083015190509250929050565b60008151613e38818560208601613763565b9290920192915050565b60008351613e54818460208801613763565b835190830190613e68818360208801613763565b01949350505050565b60008251613e83818460208701613763565b681e17b9b1b934b83a1f60b91b920191825250600901919050565b600060208284031215613eb057600080fd5b815167ffffffffffffffff811115613ec757600080fd5b8201601f81018413613ed857600080fd5b6124cb84825160208401613d9b565b7216101130b734b6b0ba34b7b72fbab936111d1160691b81528151600090613f16816013850160208701613763565b601160f91b6013939091019283015250601401919050565b60008551613f40818460208a01613763565b8083019050602f60f81b8082528651613f60816001850160208b01613763565b60019201918201528451613f7b816002840160208901613763565b653f736565643d60d01b600292909101918201528351613fa2816008840160208801613763565b016008019695505050505050565b60008251613fc2818460208701613763565b9190910192915050565b683d913730b6b2911d1160b91b81528551600090613ff1816009850160208b01613763565b711116113232b9b1b934b83a34b7b7111d101160711b600991840191820152865161402381601b840160208b01613763565b601160f91b601b92909101918201526b16101134b6b0b3b2911d101160a11b601c820152855161405a816028840160208a01613763565b6e1331b0b83a3ab9329e9b181818181160891b60289290910191820152845161408a816037840160208901613763565b7016101130ba3a3934b13aba32b9911d101160791b603792909101918201526140e06140d36140bc6048840187613e26565b6a1331b0b83a3ab9329e981160a91b8152600b0190565b607d60f81b815260010190565b98975050505050505050565b7f646174613a6170706c69636174696f6e2f6a736f6e3b6261736536342c00000081526000825161412481601d850160208701613763565b91909101601d0192915050565b6000835160206141448285838901613763565b845491840191600090600181811c908083168061416257607f831692505b85831081141561418057634e487b7160e01b85526022600452602485fd5b80801561419457600181146141a5576141d2565b60ff198516885283880195506141d2565b60008b81526020902060005b858110156141ca5781548a8201529084019088016141b1565b505083880195505b50939a9950505050505050505050565b60208082526032908201527f4552433732313a207472616e7366657220746f206e6f6e20455243373231526560408201527131b2b4bb32b91034b6b83632b6b2b73a32b960711b606082015260800190565b6020808252602b908201527f496e697469616c697a61626c653a20636f6e7472616374206973206e6f74206960408201526a6e697469616c697a696e6760a81b606082015260800190565b60208082526025908201527f4552433732313a207472616e736665722066726f6d20696e636f72726563742060408201526437bbb732b960d91b606082015260800190565b6001600160a01b03858116825284166020820152604081018390526080606082018190526000906142f79083018461378f565b9695505050505050565b60006020828403121561431357600080fd5b81516123bd81613730565b60008161432d5761432d613c36565b50600019019056fe4142434445464748494a4b4c4d4e4f505152535455565758595a6162636465666768696a6b6c6d6e6f707172737475767778797a303132333435363738392b2f3c7363726970742073616e64626f783d27616c6c6f772d736372697074732720747970653d27746578742f6a617661736372697074273ea2646970667358221220f77eb56aeab7665759837569e6c2c993d51f9b4acdd5cad5b0630d924986942064736f6c634300080c0033",
  "linkReferences": {},
  "deployedLinkReferences": {}
}