{
  "_format": "hh-sol-artifact-1",
  "contractName": "Solaris",
  "sourceName": "contracts/nfts/Solaris.sol",
  "abi": [
    {
      "anonymous": false,
      "inputs": [
        {
          "indexed": true,
          "internalType": "address",
          "name": "owner",
          "type": "address"
        },
        {
          "indexed": true,
          "internalType": "address",
          "name": "approved",
          "type": "address"
        },
        {
          "indexed": true,
          "internalType": "uint256",
          "name": "tokenId",
          "type": "uint256"
        }
      ],
      "name": "Approval",
      "type": "event"
    },
    {
      "anonymous": false,
      "inputs": [
        {
          "indexed": true,
          "internalType": "address",
          "name": "owner",
          "type": "address"
        },
        {
          "indexed": true,
          "internalType": "address",
          "name": "operator",
          "type": "address"
        },
        {
          "indexed": false,
          "internalType": "bool",
          "name": "approved",
          "type": "bool"
        }
      ],
      "name": "ApprovalForAll",
      "type": "event"
    },
    {
      "anonymous": false,
      "inputs": [
        {
          "indexed": false,
          "internalType": "uint8",
          "name": "version",
          "type": "uint8"
        }
      ],
      "name": "Initialized",
      "type": "event"
    },
    {
      "anonymous": false,
      "inputs": [
        {
          "indexed": true,
          "internalType": "address",
          "name": "previousOwner",
          "type": "address"
        },
        {
          "indexed": true,
          "internalType": "address",
          "name": "newOwner",
          "type": "address"
        }
      ],
      "name": "OwnershipTransferred",
      "type": "event"
    },
    {
      "anonymous": false,
      "inputs": [
        {
          "indexed": false,
          "internalType": "address",
          "name": "account",
          "type": "address"
        }
      ],
      "name": "Paused",
      "type": "event"
    },
    {
      "anonymous": false,
      "inputs": [
        {
          "indexed": true,
          "internalType": "address",
          "name": "from",
          "type": "address"
        },
        {
          "indexed": true,
          "internalType": "address",
          "name": "to",
          "type": "address"
        },
        {
          "indexed": true,
          "internalType": "uint256",
          "name": "tokenId",
          "type": "uint256"
        }
      ],
      "name": "Transfer",
      "type": "event"
    },
    {
      "anonymous": false,
      "inputs": [
        {
          "indexed": false,
          "internalType": "address",
          "name": "account",
          "type": "address"
        }
      ],
      "name": "Unpaused",
      "type": "event"
    },
    {
      "inputs": [],
      "name": "_admin",
      "outputs": [
        {
          "internalType": "address",
          "name": "",
          "type": "address"
        }
      ],
      "stateMutability": "view",
      "type": "function"
    },
    {
      "inputs": [],
      "name": "_brc20Token",
      "outputs": [
        {
          "internalType": "address",
          "name": "",
          "type": "address"
        }
      ],
      "stateMutability": "view",
      "type": "function"
    },
    {
      "inputs": [],
      "name": "_maxSupply",
      "outputs": [
        {
          "internalType": "uint256",
          "name": "",
          "type": "uint256"
        }
      ],
      "stateMutability": "view",
      "type": "function"
    },
    {
      "inputs": [],
      "name": "_paramsAddress",
      "outputs": [
        {
          "internalType": "address",
          "name": "",
          "type": "address"
        }
      ],
      "stateMutability": "view",
      "type": "function"
    },
    {
      "inputs": [],
      "name": "_randomizerAddr",
      "outputs": [
        {
          "internalType": "address",
          "name": "",
          "type": "address"
        }
      ],
      "stateMutability": "view",
      "type": "function"
    },
    {
      "inputs": [
        {
          "internalType": "uint256",
          "name": "",
          "type": "uint256"
        },
        {
          "internalType": "address",
          "name": "",
          "type": "address"
        }
      ],
      "name": "_reservations",
      "outputs": [
        {
          "internalType": "uint256",
          "name": "",
          "type": "uint256"
        }
      ],
      "stateMutability": "view",
      "type": "function"
    },
    {
      "inputs": [],
      "name": "_script",
      "outputs": [
        {
          "internalType": "string",
          "name": "",
          "type": "string"
        }
      ],
      "stateMutability": "view",
      "type": "function"
    },
    {
      "inputs": [
        {
          "internalType": "address",
          "name": "to",
          "type": "address"
        },
        {
          "internalType": "uint256",
          "name": "tokenId",
          "type": "uint256"
        }
      ],
      "name": "approve",
      "outputs": [],
      "stateMutability": "nonpayable",
      "type": "function"
    },
    {
      "inputs": [
        {
          "internalType": "address",
          "name": "owner",
          "type": "address"
        }
      ],
      "name": "balanceOf",
      "outputs": [
        {
          "internalType": "uint256",
          "name": "",
          "type": "uint256"
        }
      ],
      "stateMutability": "view",
      "type": "function"
    },
    {
      "inputs": [
        {
          "internalType": "address",
          "name": "to",
          "type": "address"
        },
        {
          "internalType": "uint256",
          "name": "n",
          "type": "uint256"
        }
      ],
      "name": "batchMint",
      "outputs": [
        {
          "internalType": "uint256[]",
          "name": "",
          "type": "uint256[]"
        }
      ],
      "stateMutability": "payable",
      "type": "function"
    },
    {
      "inputs": [
        {
          "internalType": "address",
          "name": "newAdm",
          "type": "address"
        }
      ],
      "name": "changeAdmin",
      "outputs": [],
      "stateMutability": "nonpayable",
      "type": "function"
    },
    {
      "inputs": [
        {
          "internalType": "address",
          "name": "newBrc20",
          "type": "address"
        }
      ],
      "name": "changeBrc20Token",
      "outputs": [],
      "stateMutability": "nonpayable",
      "type": "function"
    },
    {
      "inputs": [
        {
          "internalType": "address",
          "name": "newAddr",
          "type": "address"
        }
      ],
      "name": "changeParamAddr",
      "outputs": [],
      "stateMutability": "nonpayable",
      "type": "function"
    },
    {
      "inputs": [
        {
          "internalType": "address",
          "name": "newAddr",
          "type": "address"
        }
      ],
      "name": "changeRandomizerAddr",
      "outputs": [],
      "stateMutability": "nonpayable",
      "type": "function"
    },
    {
      "inputs": [
        {
          "internalType": "string",
          "name": "newScript",
          "type": "string"
        }
      ],
      "name": "changeScript",
      "outputs": [],
      "stateMutability": "nonpayable",
      "type": "function"
    },
    {
      "inputs": [
        {
          "internalType": "uint256",
          "name": "tokenId",
          "type": "uint256"
        }
      ],
      "name": "claim",
      "outputs": [],
      "stateMutability": "payable",
      "type": "function"
    },
    {
      "inputs": [
        {
          "internalType": "uint256",
          "name": "tokenId",
          "type": "uint256"
        }
      ],
      "name": "claimable",
      "outputs": [
        {
          "internalType": "bool",
          "name": "",
          "type": "bool"
        }
      ],
      "stateMutability": "view",
      "type": "function"
    },
    {
      "inputs": [
        {
          "internalType": "uint256",
          "name": "tokenId",
          "type": "uint256"
        }
      ],
      "name": "getApproved",
      "outputs": [
        {
          "internalType": "address",
          "name": "",
          "type": "address"
        }
      ],
      "stateMutability": "view",
      "type": "function"
    },
    {
      "inputs": [
        {
          "internalType": "string",
          "name": "name",
          "type": "string"
        },
        {
          "internalType": "string",
          "name": "symbol",
          "type": "string"
        },
        {
          "internalType": "address",
          "name": "admin",
          "type": "address"
        },
        {
          "internalType": "address",
          "name": "paramsAddress",
          "type": "address"
        },
        {
          "internalType": "address",
          "name": "randomizerAddr",
          "type": "address"
        },
        {
          "internalType": "address",
          "name": "gmToken",
          "type": "address"
        }
      ],
      "name": "initialize",
      "outputs": [],
      "stateMutability": "nonpayable",
      "type": "function"
    },
    {
      "inputs": [
        {
          "internalType": "address",
          "name": "owner",
          "type": "address"
        },
        {
          "internalType": "address",
          "name": "operator",
          "type": "address"
        }
      ],
      "name": "isApprovedForAll",
      "outputs": [
        {
          "internalType": "bool",
          "name": "",
          "type": "bool"
        }
      ],
      "stateMutability": "view",
      "type": "function"
    },
    {
      "inputs": [
        {
          "internalType": "address",
          "name": "to",
          "type": "address"
        }
      ],
      "name": "mint",
      "outputs": [
        {
          "internalType": "uint256",
          "name": "tokenId",
          "type": "uint256"
        }
      ],
      "stateMutability": "payable",
      "type": "function"
    },
    {
      "inputs": [],
      "name": "name",
      "outputs": [
        {
          "internalType": "string",
          "name": "",
          "type": "string"
        }
      ],
      "stateMutability": "view",
      "type": "function"
    },
    {
      "inputs": [],
      "name": "owner",
      "outputs": [
        {
          "internalType": "address",
          "name": "",
          "type": "address"
        }
      ],
      "stateMutability": "view",
      "type": "function"
    },
    {
      "inputs": [
        {
          "internalType": "uint256",
          "name": "tokenId",
          "type": "uint256"
        }
      ],
      "name": "ownerOf",
      "outputs": [
        {
          "internalType": "address",
          "name": "",
          "type": "address"
        }
      ],
      "stateMutability": "view",
      "type": "function"
    },
    {
      "inputs": [],
      "name": "paused",
      "outputs": [
        {
          "internalType": "bool",
          "name": "",
          "type": "bool"
        }
      ],
      "stateMutability": "view",
      "type": "function"
    },
    {
      "inputs": [],
      "name": "renounceOwnership",
      "outputs": [],
      "stateMutability": "nonpayable",
      "type": "function"
    },
    {
      "inputs": [
        {
          "internalType": "uint256",
          "name": "tokenId",
          "type": "uint256"
        }
      ],
      "name": "reserve",
      "outputs": [],
      "stateMutability": "payable",
      "type": "function"
    },
    {
      "inputs": [
        {
          "internalType": "uint256",
          "name": "projectId",
          "type": "uint256"
        },
        {
          "internalType": "uint256",
          "name": "_salePrice",
          "type": "uint256"
        }
      ],
      "name": "royaltyInfo",
      "outputs": [
        {
          "internalType": "address",
          "name": "receiver",
          "type": "address"
        },
        {
          "internalType": "uint256",
          "name": "royaltyAmount",
          "type": "uint256"
        }
      ],
      "stateMutability": "view",
      "type": "function"
    },
    {
      "inputs": [
        {
          "internalType": "address",
          "name": "from",
          "type": "address"
        },
        {
          "internalType": "address",
          "name": "to",
          "type": "address"
        },
        {
          "internalType": "uint256",
          "name": "tokenId",
          "type": "uint256"
        }
      ],
      "name": "safeTransferFrom",
      "outputs": [],
      "stateMutability": "nonpayable",
      "type": "function"
    },
    {
      "inputs": [
        {
          "internalType": "address",
          "name": "from",
          "type": "address"
        },
        {
          "internalType": "address",
          "name": "to",
          "type": "address"
        },
        {
          "internalType": "uint256",
          "name": "tokenId",
          "type": "uint256"
        },
        {
          "internalType": "bytes",
          "name": "data",
          "type": "bytes"
        }
      ],
      "name": "safeTransferFrom",
      "outputs": [],
      "stateMutability": "nonpayable",
      "type": "function"
    },
    {
      "inputs": [
        {
          "internalType": "address",
          "name": "operator",
          "type": "address"
        },
        {
          "internalType": "bool",
          "name": "approved",
          "type": "bool"
        }
      ],
      "name": "setApprovalForAll",
      "outputs": [],
      "stateMutability": "nonpayable",
      "type": "function"
    },
    {
      "inputs": [
        {
          "internalType": "bytes4",
          "name": "interfaceId",
          "type": "bytes4"
        }
      ],
      "name": "supportsInterface",
      "outputs": [
        {
          "internalType": "bool",
          "name": "",
          "type": "bool"
        }
      ],
      "stateMutability": "view",
      "type": "function"
    },
    {
      "inputs": [],
      "name": "symbol",
      "outputs": [
        {
          "internalType": "string",
          "name": "",
          "type": "string"
        }
      ],
      "stateMutability": "view",
      "type": "function"
    },
    {
      "inputs": [
        {
          "internalType": "bytes32",
          "name": "seed",
          "type": "bytes32"
        }
      ],
      "name": "tokenHTML",
      "outputs": [
        {
          "internalType": "string",
          "name": "result",
          "type": "string"
        }
      ],
      "stateMutability": "view",
      "type": "function"
    },
    {
      "inputs": [
        {
          "internalType": "uint256",
          "name": "tokenId",
          "type": "uint256"
        }
      ],
      "name": "tokenIdToHash",
      "outputs": [
        {
          "internalType": "bytes32",
          "name": "",
          "type": "bytes32"
        }
      ],
      "stateMutability": "view",
      "type": "function"
    },
    {
      "inputs": [
        {
          "internalType": "uint256",
          "name": "tokenId",
          "type": "uint256"
        }
      ],
      "name": "tokenURI",
      "outputs": [
        {
          "internalType": "string",
          "name": "result",
          "type": "string"
        }
      ],
      "stateMutability": "view",
      "type": "function"
    },
    {
      "inputs": [
        {
          "internalType": "address",
          "name": "from",
          "type": "address"
        },
        {
          "internalType": "address",
          "name": "to",
          "type": "address"
        },
        {
          "internalType": "uint256",
          "name": "tokenId",
          "type": "uint256"
        }
      ],
      "name": "transferFrom",
      "outputs": [],
      "stateMutability": "nonpayable",
      "type": "function"
    },
    {
      "inputs": [
        {
          "internalType": "address",
          "name": "newOwner",
          "type": "address"
        }
      ],
      "name": "transferOwnership",
      "outputs": [],
      "stateMutability": "nonpayable",
      "type": "function"
    }
  ],
  "bytecode": "0x608060405234801561001057600080fd5b506139fd806100206000396000f3fe6080604052600436106102255760003560e01c806370a0823111610123578063adfc7dae116100ab578063e1f796ae1161006f578063e1f796ae14610682578063e56f2fe4146106a2578063e985e9c5146106c2578063f2fde38b1461070b578063febfd6c31461072b57600080fd5b8063adfc7dae146105c8578063b88d4fde146105e9578063bd5b4fa114610609578063c87b56dd14610642578063d1d58b251461066257600080fd5b80638da5cb5b116100f25780638da5cb5b146105345780638f2839701461055357806393c6cdc01461057357806395d89b4114610593578063a22cb465146105a857600080fd5b806370a08231146104d7578063715018a6146104f7578063819b25ba1461050c5780638a0162491461051f57600080fd5b8063254c0d4d116101b15780635c975abb116101755780635c975abb14610434578063621a1f741461044c5780636352211e1461046c57806366215eb4146104a35780636a627842146104c457600080fd5b8063254c0d4d146103815780632a55205a146103a2578063379607f5146103e157806342842e0e146103f457806343508b051461041457600080fd5b8063095ea7b3116101f8578063095ea7b3146102da578063140f0e07146102fc5780631ca9741b1461031c57806322f4596f1461033c57806323b872dd1461036157600080fd5b806301bc45c91461022a57806301ffc9a71461026857806306fdde0314610298578063081812fc146102ba575b600080fd5b34801561023657600080fd5b5061015f5461024b906001600160a01b031681565b6040516001600160a01b0390911681526020015b60405180910390f35b34801561027457600080fd5b50610288610283366004612fb4565b61074b565b604051901515815260200161025f565b3480156102a457600080fd5b506102ad61079d565b60405161025f9190613029565b3480156102c657600080fd5b5061024b6102d536600461303c565b61082f565b3480156102e657600080fd5b506102fa6102f536600461306c565b610856565b005b34801561030857600080fd5b506102fa610317366004613163565b610971565b34801561032857600080fd5b506102fa610337366004613198565b6109d1565b34801561034857600080fd5b506103536101655481565b60405190815260200161025f565b34801561036d57600080fd5b506102fa61037c3660046131b3565b610a65565b34801561038d57600080fd5b506101645461024b906001600160a01b031681565b3480156103ae57600080fd5b506103c26103bd3660046131ef565b610b4b565b604080516001600160a01b03909316835260208301919091520161025f565b6102fa6103ef36600461303c565b610b7c565b34801561040057600080fd5b506102fa61040f3660046131b3565b610c83565b61042761042236600461306c565b610c9e565b60405161025f9190613211565b34801561044057600080fd5b5060975460ff16610288565b34801561045857600080fd5b5061035361046736600461303c565b610d4a565b34801561047857600080fd5b5061024b61048736600461303c565b600090815261016760205260409020546001600160a01b031690565b3480156104af57600080fd5b506101615461024b906001600160a01b031681565b6103536104d2366004613198565b610e18565b3480156104e357600080fd5b506103536104f2366004613198565b610f66565b34801561050357600080fd5b506102fa610fec565b6102fa61051a36600461303c565b611000565b34801561052b57600080fd5b506102ad6110e2565b34801561054057600080fd5b5061012d546001600160a01b031661024b565b34801561055f57600080fd5b506102fa61056e366004613198565b611171565b34801561057f57600080fd5b506102fa61058e366004613198565b611206565b34801561059f57600080fd5b506102ad61129b565b3480156105b457600080fd5b506102fa6105c3366004613255565b6112aa565b3480156105d457600080fd5b506101605461024b906001600160a01b031681565b3480156105f557600080fd5b506102fa610604366004613291565b6112b5565b34801561061557600080fd5b5061035361062436600461330d565b61016660209081526000928352604080842090915290825290205481565b34801561064e57600080fd5b506102ad61065d36600461303c565b6113a2565b34801561066e57600080fd5b5061028861067d36600461303c565b611679565b34801561068e57600080fd5b506102ad61069d36600461303c565b6116e3565b3480156106ae57600080fd5b506102fa6106bd366004613330565b611778565b3480156106ce57600080fd5b506102886106dd3660046133d5565b6001600160a01b039182166000908152606a6020908152604080832093909416825291909152205460ff1690565b34801561071757600080fd5b506102fa610726366004613198565b611982565b34801561073757600080fd5b506102fa610746366004613198565b6119f8565b60006001600160e01b031982166380ac58cd60e01b148061077c57506001600160e01b03198216635b5e139f60e01b145b8061079757506301ffc9a760e01b6001600160e01b03198316145b92915050565b6060606580546107ac906133ff565b80601f01602080910402602001604051908101604052809291908181526020018280546107d8906133ff565b80156108255780601f106107fa57610100808354040283529160200191610825565b820191906000526020600020905b81548152906001019060200180831161080857829003601f168201915b5050505050905090565b600061083a82611a8d565b506000908152606960205260409020546001600160a01b031690565b600061086182611add565b9050806001600160a01b0316836001600160a01b031614156108d45760405162461bcd60e51b815260206004820152602160248201527f4552433732313a20617070726f76616c20746f2063757272656e74206f776e656044820152603960f91b60648201526084015b60405180910390fd5b336001600160a01b03821614806108f057506108f081336106dd565b6109625760405162461bcd60e51b815260206004820152603d60248201527f4552433732313a20617070726f76652063616c6c6572206973206e6f7420746f60448201527f6b656e206f776e6572206f7220617070726f76656420666f7220616c6c00000060648201526084016108cb565b61096c8383611b3d565b505050565b61015f5460408051808201909152600381526231303160e81b6020820152906001600160a01b031633146109b85760405162461bcd60e51b81526004016108cb9190613029565b5080516109cd90610163906020840190612f05565b5050565b61015f546001600160a01b0316331480156109f457506001600160a01b03811615155b6040518060400160405280600381526020016231303160e81b81525090610a2e5760405162461bcd60e51b81526004016108cb9190613029565b50610161546001600160a01b03828116911614610a625761016180546001600160a01b0319166001600160a01b0383161790555b50565b336001600160a01b0384161415610aca576000610a8133611bab565b90506000610a8d611c24565b905080821015610ac35760405162461bcd60e51b81526020600482015260016024820152601560fa1b60448201526064016108cb565b5050610b40565b333b63ffffffff1615610b0257610ae13382611cca565b610afd5760405162461bcd60e51b81526004016108cb9061343a565b610b40565b610b0b81611679565b610b405760405162461bcd60e51b81526004016108cb90602080825260049082015263272fa19960e11b604082015260600190565b61096c838383611d30565b61015f546001600160a01b03166000612710610b69846101f461349d565b610b7391906134bc565b90509250929050565b610b84611d6b565b610b8d81611679565b610bc25760405162461bcd60e51b81526004016108cb906020808252600490820152634e5f433160e01b604082015260600190565b6000610bcc611dc5565b6000838152610166602090815260408083203384529091529020549091508015801590610c02575081610bff82436134de565b10155b610c375760405162461bcd60e51b81526020600482015260066024820152654e5f43315f3160d01b60448201526064016108cb565b600083815261016760205260409020546001600160a01b0316610c5b813386611d30565b505050600081815261016660209081526040808320338452909152812055610a62600160fb55565b61096c838383604051806020016040528060008152506112b5565b606060008267ffffffffffffffff811115610cbb57610cbb613096565b604051908082528060200260200182016040528015610ce4578160200160208202803683370190505b50905060005b83811015610d42576000610cfd86610e18565b905080838381518110610d1257610d126134f5565b60200260200101818152505062030d405a1015610d2f5750610d42565b5080610d3a8161350b565b915050610cea565b509392505050565b6000610d5582611e6a565b6040518060400160405280600381526020016232303960e81b81525090610d8f5760405162461bcd60e51b81526004016108cb9190613029565b5060008281526101676020526040902054600160a01b900460a01b6001600160a01b031916610dc057506000919050565b60008281526101676020908152604091829020549151610dfb92600160a01b900460a01b91016001600160a01b031991909116815260200190565b604051602081830303815290604052805190602001209050919050565b6000610e22611d6b565b6101655461016254106040518060400160405280600381526020016232303360e81b81525090610e655760405162461bcd60e51b81526004016108cb9190613029565b5061015f5460408051808201909152600381526231303160e81b6020820152906001600160a01b03163314610ead5760405162461bcd60e51b81526004016108cb9190613029565b506101628054906000610ebf8361350b565b9190505550610162549050610ed48282611e88565b61016154604051631da00d8560e01b8152600481018390526001600160a01b03909116906000908290631da00d85906024016020604051808303816000875af1158015610f25573d6000803e3d6000fd5b505050506040513d601f19601f82011682018060405250810190610f499190613526565b9050610f558382611ea2565b5050610f61600160fb55565b919050565b60006001600160a01b038216610fd05760405162461bcd60e51b815260206004820152602960248201527f4552433732313a2061646472657373207a65726f206973206e6f7420612076616044820152683634b21037bbb732b960b91b60648201526084016108cb565b506001600160a01b031660009081526068602052604090205490565b610ff4611f6d565b610ffe6000611fc8565b565b611008611d6b565b61101181611679565b6110465760405162461bcd60e51b81526004016108cb9060208082526004908201526304e5f43360e41b604082015260600190565b6000611050611dc5565b60008381526101666020908152604080832033845290915290205490915080158061108457508161108182436134de565b10155b6110b95760405162461bcd60e51b81526020600482015260066024820152654e5f43305f3160d01b60448201526064016108cb565b50506000818152610166602090815260408083203384529091529020439055610a62600160fb55565b61016380546110f0906133ff565b80601f016020809104026020016040519081016040528092919081815260200182805461111c906133ff565b80156111695780601f1061113e57610100808354040283529160200191611169565b820191906000526020600020905b81548152906001019060200180831161114c57829003601f168201915b505050505081565b61015f546001600160a01b03163314801561119457506001600160a01b03811615155b6040518060400160405280600381526020016231303160e81b815250906111ce5760405162461bcd60e51b81526004016108cb9190613029565b5061015f546001600160a01b03828116911614610a625761015f80546001600160a01b0383166001600160a01b031990911617905550565b61015f546001600160a01b03163314801561122957506001600160a01b03811615155b6040518060400160405280600381526020016231303160e81b815250906112635760405162461bcd60e51b81526004016108cb9190613029565b50610164546001600160a01b03828116911614610a625761016480546001600160a01b0383166001600160a01b031990911617905550565b6060606680546107ac906133ff565b6109cd33838361201b565b336001600160a01b038516141561131a5760006112d133611bab565b905060006112dd611c24565b9050808210156113135760405162461bcd60e51b81526020600482015260016024820152601560fa1b60448201526064016108cb565b5050611390565b333b63ffffffff1615611352576113313383611cca565b61134d5760405162461bcd60e51b81526004016108cb9061343a565b611390565b61135b82611679565b6113905760405162461bcd60e51b81526004016108cb90602080825260049082015263272fa19960e11b604082015260600190565b61139c848484846120ea565b50505050565b60606113ad82611e6a565b6040518060400160405280600381526020016232303960e81b815250906113e75760405162461bcd60e51b81526004016108cb9190613029565b5060405163188687dd60e21b815260048101839052600090309063621a1f7490602401602060405180830381865afa158015611427573d6000803e3d6000fd5b505050506040513d601f19601f8201168201806040525081019061144b9190613526565b610160546040516370fbcb5760e11b8152600481018390529192506001600160a01b031690600090309063e1f796ae90602401600060405180830381865afa15801561149b573d6000803e3d6000fd5b505050506040513d6000823e601f3d908101601f191682016040526114c3919081019061353f565b90506114f76040518060a0016040528060608152602001606081526020016060815260200160608152602001606081525090565b8160405160200161150891906135d2565b60408051601f19818403018152918152606083019190915280518082018252600e81526d109054d157d5549257d51490525560921b6020820152905163349f642f60e11b81526001600160a01b0385169163693ec85e9161156c9190600401613029565b600060405180830381865afa158015611589573d6000803e3d6000fd5b505050506040513d6000823e601f3d908101601f191682016040526115b1919081019061353f565b604082018190526115c13061211d565b6115ca88612133565b6115d3876121c8565b6040516020016115e69493929190613619565b604051602081830303815290604052816040018190525061164f8160000151611631836020015160405160200161161d919061369b565b604051602081830303815290604052612214565b6040808501516060860151915161161d9493929082906020016136b7565b60405160200161165f91906137d7565b604051602081830303815290604052945050505050919050565b600081815261016760205260408120546001600160a01b03168161169c82611bab565b905060006116a933611bab565b905060006116b5611c24565b905080831080156116c65750808210155b156116d75750600195945050505050565b50600095945050505050565b606061016380546116f3906133ff565b80601f016020809104026020016040519081016040528092919081815260200182805461171f906133ff565b801561176c5780601f106117415761010080835404028352916020019161176c565b820191906000526020600020905b81548152906001019060200180831161174f57829003601f168201915b50505050509050919050565b600054610100900460ff16158080156117985750600054600160ff909116105b806117b25750303b1580156117b2575060005460ff166001145b6118155760405162461bcd60e51b815260206004820152602e60248201527f496e697469616c697a61626c653a20636f6e747261637420697320616c72656160448201526d191e481a5b9a5d1a585b1a5e995960921b60648201526084016108cb565b6000805460ff191660011790558015611838576000805461ff0019166101001790555b60408051808201909152600381526203130360ec1b60208201526001600160a01b0386166118795760405162461bcd60e51b81526004016108cb9190613029565b5060408051808201909152600381526203130360ec1b60208201526001600160a01b0385166118bb5760405162461bcd60e51b81526004016108cb9190613029565b5061016080546001600160a01b038087166001600160a01b03199283161790925561015f805488841690831617905561016180548684169083161790556101648054928516929091169190911790556103e86101655561191b878761237a565b6119236123ab565b61192b6123da565b611933612409565b8015611979576000805461ff0019169055604051600181527f7f26b83ff96e1f2b6a682f133852f6798a09c465da95921460cefb38474024989060200160405180910390a15b50505050505050565b61198a611f6d565b6001600160a01b0381166119ef5760405162461bcd60e51b815260206004820152602660248201527f4f776e61626c653a206e6577206f776e657220697320746865207a65726f206160448201526564647265737360d01b60648201526084016108cb565b610a6281611fc8565b61015f546001600160a01b031633148015611a1b57506001600160a01b03811615155b6040518060400160405280600381526020016231303160e81b81525090611a555760405162461bcd60e51b81526004016108cb9190613029565b50610160546001600160a01b03828116911614610a625761016080546001600160a01b0383166001600160a01b031990911617905550565b611a9681611e6a565b610a625760405162461bcd60e51b8152602060048201526018602482015277115490cdcc8c4e881a5b9d985b1a59081d1bdad95b88125160421b60448201526064016108cb565b6000818152606760205260408120546001600160a01b0316806107975760405162461bcd60e51b8152602060048201526018602482015277115490cdcc8c4e881a5b9d985b1a59081d1bdad95b88125160421b60448201526064016108cb565b600081815260696020526040902080546001600160a01b0319166001600160a01b0384169081179091558190611b7282611add565b6001600160a01b03167f8c5be1e5ebec7d5bd14f71427d1e84f3dd0314c0f7b2291e5b200ac8c7c3b92560405160405180910390a45050565b610164546040516370a0823160e01b81526001600160a01b038381166004830152600092169081906370a0823190602401602060405180830381865afa158015611bf9573d6000803e3d6000fd5b505050506040513d601f19601f82011682018060405250810190611c1d9190613526565b9392505050565b61016054604051636d12dce160e01b815260206004820152600c60248201526b11d357d512149154d213d31160a21b60448201526000916001600160a01b03169082908290636d12dce190606401602060405180830381865afa158015611c8f573d6000803e3d6000fd5b505050506040513d601f19601f82011682018060405250810190611cb39190613526565b9050806107975750670de0b6b3a764000092915050565b600081815261016760205260408120546001600160a01b039081169084168114611d1e576000611cf982611bab565b90506000611d05611c24565b905080821015611d1b5760009350505050610797565b50505b611d288484612438565b949350505050565b611d3b8383836124b6565b60009081526101676020526040902080546001600160a01b0319166001600160a01b039290921691909117905550565b600260fb541415611dbe5760405162461bcd60e51b815260206004820152601f60248201527f5265656e7472616e637947756172643a207265656e7472616e742063616c6c0060448201526064016108cb565b600260fb55565b61016054604051636d12dce160e01b815260206004820152600a602482015269474d5f5245534552564560b01b60448201526000916001600160a01b03169082908290636d12dce190606401602060405180830381865afa158015611e2e573d6000803e3d6000fd5b505050506040513d601f19601f82011682018060405250810190611e529190613526565b90508061079757506103f092915050565b600160fb55565b600090815261016760205260409020546001600160a01b0316151590565b6109cd828260405180602001604052806000815250612627565b60008281526101676020908152604091829020548251808401909352600383526219181b60e91b91830191909152600160a01b900460a01b6001600160a01b03191615611f025760405162461bcd60e51b81526004016108cb9190613029565b5060408051808201909152600381526232303760e81b602082015281611f3b5760405162461bcd60e51b81526004016108cb9190613029565b5060009182526101676020526040909120805460a09290921c600160a01b026001600160a01b03909216919091179055565b61012d546001600160a01b03163314610ffe5760405162461bcd60e51b815260206004820181905260248201527f4f776e61626c653a2063616c6c6572206973206e6f7420746865206f776e657260448201526064016108cb565b61012d80546001600160a01b038381166001600160a01b0319831681179093556040519116919082907f8be0079c531659141344cd1fd0a4f28419497f9722a3daafe3b4186f6b6457e090600090a35050565b816001600160a01b0316836001600160a01b0316141561207d5760405162461bcd60e51b815260206004820152601960248201527f4552433732313a20617070726f766520746f2063616c6c65720000000000000060448201526064016108cb565b6001600160a01b038381166000818152606a6020908152604080832094871680845294825291829020805460ff191686151590811790915591519182527f17307eab39ab6107e8899845ad3d59bd9653f200f220920489ca2b5937696c31910160405180910390a3505050565b6120f5848484611d30565b6121018484848461265a565b61139c5760405162461bcd60e51b81526004016108cb9061381c565b60606107976001600160a01b0383166014612758565b60606000612140836128f4565b600101905060008167ffffffffffffffff81111561216057612160613096565b6040519080825280601f01601f19166020018201604052801561218a576020820181803683370190505b5090508181016020015b600019016f181899199a1a9b1b9c1cb0b131b232b360811b600a86061a8153600a85049450846121c357610d42565b612194565b60606121d3826129cc565b6121e0608084901b6129cc565b60405161060f60f31b6020820152602281019290925260428201526062016040516020818303038152906040529050919050565b606081516000141561223457505060408051602081019091526000815290565b60006040518060600160405280604081526020016139886040913990506000600384516002612263919061386e565b61226d91906134bc565b61227890600461349d565b9050600061228782602061386e565b67ffffffffffffffff81111561229f5761229f613096565b6040519080825280601f01601f1916602001820160405280156122c9576020820181803683370190505b509050818152600183018586518101602084015b81831015612335576003830192508251603f8160121c168501518253600182019150603f81600c1c168501518253600182019150603f8160061c168501518253600182019150603f81168501518253506001016122dd565b60038951066001811461234f57600281146123605761236c565b613d3d60f01b60011983015261236c565b603d60f81b6000198301525b509398975050505050505050565b600054610100900460ff166123a15760405162461bcd60e51b81526004016108cb90613886565b6109cd8282612b7e565b600054610100900460ff166123d25760405162461bcd60e51b81526004016108cb90613886565b610ffe612bcc565b600054610100900460ff166124015760405162461bcd60e51b81526004016108cb90613886565b610ffe612bf3565b600054610100900460ff166124305760405162461bcd60e51b81526004016108cb90613886565b610ffe612c26565b60008061244483611add565b9050806001600160a01b0316846001600160a01b0316148061248b57506001600160a01b038082166000908152606a602090815260408083209388168352929052205460ff165b80611d285750836001600160a01b03166124a48461082f565b6001600160a01b031614949350505050565b826001600160a01b03166124c982611add565b6001600160a01b0316146124ef5760405162461bcd60e51b81526004016108cb906138d1565b6001600160a01b0382166125515760405162461bcd60e51b8152602060048201526024808201527f4552433732313a207472616e7366657220746f20746865207a65726f206164646044820152637265737360e01b60648201526084016108cb565b61255e8383836001612c56565b826001600160a01b031661257182611add565b6001600160a01b0316146125975760405162461bcd60e51b81526004016108cb906138d1565b600081815260696020908152604080832080546001600160a01b03199081169091556001600160a01b0387811680865260688552838620805460001901905590871680865283862080546001019055868652606790945282852080549092168417909155905184937fddf252ad1be2c89b69c2b068fc378daa952ba7f163c4a11628f55a4df523b3ef91a4505050565b6126318383612cc9565b61263e600084848461265a565b61096c5760405162461bcd60e51b81526004016108cb9061381c565b60006001600160a01b0384163b1561274d57604051630a85bd0160e11b81526001600160a01b0385169063150b7a029061269e903390899088908890600401613916565b6020604051808303816000875af19250505080156126d9575060408051601f3d908101601f191682019092526126d691810190613953565b60015b612733573d808015612707576040519150601f19603f3d011682016040523d82523d6000602084013e61270c565b606091505b50805161272b5760405162461bcd60e51b81526004016108cb9061381c565b805181602001fd5b6001600160e01b031916630a85bd0160e11b149050611d28565b506001949350505050565b6060600061276783600261349d565b61277290600261386e565b67ffffffffffffffff81111561278a5761278a613096565b6040519080825280601f01601f1916602001820160405280156127b4576020820181803683370190505b509050600360fc1b816000815181106127cf576127cf6134f5565b60200101906001600160f81b031916908160001a905350600f60fb1b816001815181106127fe576127fe6134f5565b60200101906001600160f81b031916908160001a905350600061282284600261349d565b61282d90600161386e565b90505b60018111156128a5576f181899199a1a9b1b9c1cb0b131b232b360811b85600f1660108110612861576128616134f5565b1a60f81b828281518110612877576128776134f5565b60200101906001600160f81b031916908160001a90535060049490941c9361289e81613970565b9050612830565b508315611c1d5760405162461bcd60e51b815260206004820181905260248201527f537472696e67733a20686578206c656e67746820696e73756666696369656e7460448201526064016108cb565b60008072184f03e93ff9f4daa797ed6e38ed64bf6a1f0160401b83106129335772184f03e93ff9f4daa797ed6e38ed64bf6a1f0160401b830492506040015b6d04ee2d6d415b85acef8100000000831061295f576d04ee2d6d415b85acef8100000000830492506020015b662386f26fc10000831061297d57662386f26fc10000830492506010015b6305f5e1008310612995576305f5e100830492506008015b61271083106129a957612710830492506004015b606483106129bb576064830492506002015b600a83106107975760010192915050565b7aff00000000000000ff00000000000000ff00000000000000ff00006bffffffff0000000000000000604083901c90811663ffffffff60c01b84161760201c63ffffffff60601b919091166001600160e01b031984161717601081901c9182167eff00000000000000ff00000000000000ff00000000000000ff000000000000821617600890811c7bff00000000000000ff00000000000000ff00000000000000ff000000939093167fff00000000000000ff00000000000000ff00000000000000ff000000000000009290921691909117919091179081901c7e0f000f000f000f000f000f000f000f000f000f000f000f000f000f000f000f167f0f000f000f000f000f000f000f000f000f000f000f000f000f000f000f000f00600492831c161790612b1a827f060606060606060606060606060606060606060606060606060606060606060661386e565b901c7f0f0f0f0f0f0f0f0f0f0f0f0f0f0f0f0f0f0f0f0f0f0f0f0f0f0f0f0f0f0f0f0f166007612b4a919061349d565b612b74827f303030303030303030303030303030303030303030303030303030303030303061386e565b610797919061386e565b600054610100900460ff16612ba55760405162461bcd60e51b81526004016108cb90613886565b8151612bb8906065906020850190612f05565b50805161096c906066906020840190612f05565b600054610100900460ff16611e635760405162461bcd60e51b81526004016108cb90613886565b600054610100900460ff16612c1a5760405162461bcd60e51b81526004016108cb90613886565b6097805460ff19169055565b600054610100900460ff16612c4d5760405162461bcd60e51b81526004016108cb90613886565b610ffe33611fc8565b612c6284848484612d02565b60975460ff161561139c5760405162461bcd60e51b815260206004820152602b60248201527f4552433732315061757361626c653a20746f6b656e207472616e73666572207760448201526a1a1a5b19481c185d5cd95960aa1b60648201526084016108cb565b612cd38282612d8a565b60009081526101676020526040902080546001600160a01b0319166001600160a01b0392909216919091179055565b600181111561139c576001600160a01b03841615612d48576001600160a01b03841660009081526068602052604081208054839290612d429084906134de565b90915550505b6001600160a01b0383161561139c576001600160a01b03831660009081526068602052604081208054839290612d7f90849061386e565b909155505050505050565b6001600160a01b038216612de05760405162461bcd60e51b815260206004820181905260248201527f4552433732313a206d696e7420746f20746865207a65726f206164647265737360448201526064016108cb565b612de981611e6a565b15612e365760405162461bcd60e51b815260206004820152601c60248201527f4552433732313a20746f6b656e20616c7265616479206d696e7465640000000060448201526064016108cb565b612e44600083836001612c56565b612e4d81611e6a565b15612e9a5760405162461bcd60e51b815260206004820152601c60248201527f4552433732313a20746f6b656e20616c7265616479206d696e7465640000000060448201526064016108cb565b6001600160a01b038216600081815260686020908152604080832080546001019055848352606790915280822080546001600160a01b0319168417905551839291907fddf252ad1be2c89b69c2b068fc378daa952ba7f163c4a11628f55a4df523b3ef908290a45050565b828054612f11906133ff565b90600052602060002090601f016020900481019282612f335760008555612f79565b82601f10612f4c57805160ff1916838001178555612f79565b82800160010185558215612f79579182015b82811115612f79578251825591602001919060010190612f5e565b50612f85929150612f89565b5090565b5b80821115612f855760008155600101612f8a565b6001600160e01b031981168114610a6257600080fd5b600060208284031215612fc657600080fd5b8135611c1d81612f9e565b60005b83811015612fec578181015183820152602001612fd4565b8381111561139c5750506000910152565b60008151808452613015816020860160208601612fd1565b601f01601f19169290920160200192915050565b602081526000611c1d6020830184612ffd565b60006020828403121561304e57600080fd5b5035919050565b80356001600160a01b0381168114610f6157600080fd5b6000806040838503121561307f57600080fd5b61308883613055565b946020939093013593505050565b634e487b7160e01b600052604160045260246000fd5b604051601f8201601f1916810167ffffffffffffffff811182821017156130d5576130d5613096565b604052919050565b600067ffffffffffffffff8211156130f7576130f7613096565b50601f01601f191660200190565b6000613118613113846130dd565b6130ac565b905082815283838301111561312c57600080fd5b828260208301376000602084830101529392505050565b600082601f83011261315457600080fd5b611c1d83833560208501613105565b60006020828403121561317557600080fd5b813567ffffffffffffffff81111561318c57600080fd5b611d2884828501613143565b6000602082840312156131aa57600080fd5b611c1d82613055565b6000806000606084860312156131c857600080fd5b6131d184613055565b92506131df60208501613055565b9150604084013590509250925092565b6000806040838503121561320257600080fd5b50508035926020909101359150565b6020808252825182820181905260009190848201906040850190845b818110156132495783518352928401929184019160010161322d565b50909695505050505050565b6000806040838503121561326857600080fd5b61327183613055565b91506020830135801515811461328657600080fd5b809150509250929050565b600080600080608085870312156132a757600080fd5b6132b085613055565b93506132be60208601613055565b925060408501359150606085013567ffffffffffffffff8111156132e157600080fd5b8501601f810187136132f257600080fd5b61330187823560208401613105565b91505092959194509250565b6000806040838503121561332057600080fd5b82359150610b7360208401613055565b60008060008060008060c0878903121561334957600080fd5b863567ffffffffffffffff8082111561336157600080fd5b61336d8a838b01613143565b9750602089013591508082111561338357600080fd5b5061339089828a01613143565b95505061339f60408801613055565b93506133ad60608801613055565b92506133bb60808801613055565b91506133c960a08801613055565b90509295509295509295565b600080604083850312156133e857600080fd5b6133f183613055565b9150610b7360208401613055565b600181811c9082168061341357607f821691505b6020821081141561343457634e487b7160e01b600052602260045260246000fd5b50919050565b6020808252602d908201527f4552433732313a2063616c6c6572206973206e6f7420746f6b656e206f776e6560408201526c1c881bdc88185c1c1c9bdd9959609a1b606082015260800190565b634e487b7160e01b600052601160045260246000fd5b60008160001904831182151516156134b7576134b7613487565b500290565b6000826134d957634e487b7160e01b600052601260045260246000fd5b500490565b6000828210156134f0576134f0613487565b500390565b634e487b7160e01b600052603260045260246000fd5b600060001982141561351f5761351f613487565b5060010190565b60006020828403121561353857600080fd5b5051919050565b60006020828403121561355157600080fd5b815167ffffffffffffffff81111561356857600080fd5b8201601f8101841361357957600080fd5b8051613587613113826130dd565b81815285602083850101111561359c57600080fd5b6135ad826020830160208601612fd1565b95945050505050565b600081516135c8818560208601612fd1565b9290920192915050565b7216101130b734b6b0ba34b7b72fbab936111d1160691b81528151600090613601816013850160208701612fd1565b601160f91b6013939091019283015250601401919050565b6000855161362b818460208a01612fd1565b8083019050602f60f81b808252865161364b816001850160208b01612fd1565b60019201918201528451613666816002840160208901612fd1565b653f736565643d60d01b60029290910191820152835161368d816008840160208801612fd1565b016008019695505050505050565b600082516136ad818460208701612fd1565b9190910192915050565b683d913730b6b2911d1160b91b815285516000906136dc816009850160208b01612fd1565b711116113232b9b1b934b83a34b7b7111d101160711b600991840191820152865161370e81601b840160208b01612fd1565b601160f91b601b92909101918201526b16101134b6b0b3b2911d101160a11b601c8201528551613745816028840160208a01612fd1565b6e1331b0b83a3ab9329e9b181818181160891b602892909101918201528451613775816037840160208901612fd1565b7016101130ba3a3934b13aba32b9911d101160791b603792909101918201526137cb6137be6137a760488401876135b6565b6a1331b0b83a3ab9329e981160a91b8152600b0190565b607d60f81b815260010190565b98975050505050505050565b7f646174613a6170706c69636174696f6e2f6a736f6e3b6261736536342c00000081526000825161380f81601d850160208701612fd1565b91909101601d0192915050565b60208082526032908201527f4552433732313a207472616e7366657220746f206e6f6e20455243373231526560408201527131b2b4bb32b91034b6b83632b6b2b73a32b960711b606082015260800190565b6000821982111561388157613881613487565b500190565b6020808252602b908201527f496e697469616c697a61626c653a20636f6e7472616374206973206e6f74206960408201526a6e697469616c697a696e6760a81b606082015260800190565b60208082526025908201527f4552433732313a207472616e736665722066726f6d20696e636f72726563742060408201526437bbb732b960d91b606082015260800190565b6001600160a01b038581168252841660208201526040810183905260806060820181905260009061394990830184612ffd565b9695505050505050565b60006020828403121561396557600080fd5b8151611c1d81612f9e565b60008161397f5761397f613487565b50600019019056fe4142434445464748494a4b4c4d4e4f505152535455565758595a6162636465666768696a6b6c6d6e6f707172737475767778797a303132333435363738392b2fa26469706673582212202fa3126f399b7894c47375023f310171678c200b412603087bdc7fdacf3aba4b64736f6c634300080c0033",
  "linkReferences": {},
  "deployedLinkReferences": {}
}