{
  "_format": "hh-sol-artifact-1",
  "contractName": "Solaris",
  "sourceName": "contracts/nfts/Solaris.sol",
  "abi": [
    {
      "anonymous": false,
      "inputs": [
        {
          "indexed": true,
          "internalType": "address",
          "name": "owner",
          "type": "address"
        },
        {
          "indexed": true,
          "internalType": "address",
          "name": "approved",
          "type": "address"
        },
        {
          "indexed": true,
          "internalType": "uint256",
          "name": "tokenId",
          "type": "uint256"
        }
      ],
      "name": "Approval",
      "type": "event"
    },
    {
      "anonymous": false,
      "inputs": [
        {
          "indexed": true,
          "internalType": "address",
          "name": "owner",
          "type": "address"
        },
        {
          "indexed": true,
          "internalType": "address",
          "name": "operator",
          "type": "address"
        },
        {
          "indexed": false,
          "internalType": "bool",
          "name": "approved",
          "type": "bool"
        }
      ],
      "name": "ApprovalForAll",
      "type": "event"
    },
    {
      "anonymous": false,
      "inputs": [
        {
          "indexed": true,
          "internalType": "address",
          "name": "reserver",
          "type": "address"
        },
        {
          "indexed": true,
          "internalType": "uint256",
          "name": "tokenId",
          "type": "uint256"
        },
        {
          "indexed": true,
          "internalType": "address",
          "name": "owner",
          "type": "address"
        },
        {
          "indexed": false,
          "internalType": "uint256",
          "name": "blockNumber",
          "type": "uint256"
        }
      ],
      "name": "Claim",
      "type": "event"
    },
    {
      "anonymous": false,
      "inputs": [
        {
          "indexed": false,
          "internalType": "uint8",
          "name": "version",
          "type": "uint8"
        }
      ],
      "name": "Initialized",
      "type": "event"
    },
    {
      "anonymous": false,
      "inputs": [
        {
          "indexed": true,
          "internalType": "address",
          "name": "previousOwner",
          "type": "address"
        },
        {
          "indexed": true,
          "internalType": "address",
          "name": "newOwner",
          "type": "address"
        }
      ],
      "name": "OwnershipTransferred",
      "type": "event"
    },
    {
      "anonymous": false,
      "inputs": [
        {
          "indexed": false,
          "internalType": "address",
          "name": "account",
          "type": "address"
        }
      ],
      "name": "Paused",
      "type": "event"
    },
    {
      "anonymous": false,
      "inputs": [
        {
          "indexed": true,
          "internalType": "address",
          "name": "reserver",
          "type": "address"
        },
        {
          "indexed": true,
          "internalType": "uint256",
          "name": "tokenId",
          "type": "uint256"
        },
        {
          "indexed": true,
          "internalType": "address",
          "name": "owner",
          "type": "address"
        },
        {
          "indexed": false,
          "internalType": "uint256",
          "name": "blockNumber",
          "type": "uint256"
        }
      ],
      "name": "Reserve",
      "type": "event"
    },
    {
      "anonymous": false,
      "inputs": [
        {
          "indexed": true,
          "internalType": "address",
          "name": "from",
          "type": "address"
        },
        {
          "indexed": true,
          "internalType": "address",
          "name": "to",
          "type": "address"
        },
        {
          "indexed": true,
          "internalType": "uint256",
          "name": "tokenId",
          "type": "uint256"
        }
      ],
      "name": "Transfer",
      "type": "event"
    },
    {
      "anonymous": false,
      "inputs": [
        {
          "indexed": false,
          "internalType": "address",
          "name": "account",
          "type": "address"
        }
      ],
      "name": "Unpaused",
      "type": "event"
    },
    {
      "inputs": [],
      "name": "_admin",
      "outputs": [
        {
          "internalType": "address",
          "name": "",
          "type": "address"
        }
      ],
      "stateMutability": "view",
      "type": "function"
    },
    {
      "inputs": [],
      "name": "_bfs",
      "outputs": [
        {
          "internalType": "address",
          "name": "",
          "type": "address"
        }
      ],
      "stateMutability": "view",
      "type": "function"
    },
    {
      "inputs": [],
      "name": "_brc20Token",
      "outputs": [
        {
          "internalType": "address",
          "name": "",
          "type": "address"
        }
      ],
      "stateMutability": "view",
      "type": "function"
    },
    {
      "inputs": [],
      "name": "_maxSupply",
      "outputs": [
        {
          "internalType": "uint256",
          "name": "",
          "type": "uint256"
        }
      ],
      "stateMutability": "view",
      "type": "function"
    },
    {
      "inputs": [],
      "name": "_paramsAddress",
      "outputs": [
        {
          "internalType": "address",
          "name": "",
          "type": "address"
        }
      ],
      "stateMutability": "view",
      "type": "function"
    },
    {
      "inputs": [],
      "name": "_randomizerAddr",
      "outputs": [
        {
          "internalType": "address",
          "name": "",
          "type": "address"
        }
      ],
      "stateMutability": "view",
      "type": "function"
    },
    {
      "inputs": [
        {
          "internalType": "uint256",
          "name": "",
          "type": "uint256"
        },
        {
          "internalType": "address",
          "name": "",
          "type": "address"
        }
      ],
      "name": "_reservations",
      "outputs": [
        {
          "internalType": "uint256",
          "name": "",
          "type": "uint256"
        }
      ],
      "stateMutability": "view",
      "type": "function"
    },
    {
      "inputs": [],
      "name": "_script",
      "outputs": [
        {
          "internalType": "string",
          "name": "",
          "type": "string"
        }
      ],
      "stateMutability": "view",
      "type": "function"
    },
    {
      "inputs": [
        {
          "internalType": "address",
          "name": "to",
          "type": "address"
        },
        {
          "internalType": "uint256",
          "name": "tokenId",
          "type": "uint256"
        }
      ],
      "name": "approve",
      "outputs": [],
      "stateMutability": "nonpayable",
      "type": "function"
    },
    {
      "inputs": [
        {
          "internalType": "address",
          "name": "owner",
          "type": "address"
        }
      ],
      "name": "balanceOf",
      "outputs": [
        {
          "internalType": "uint256",
          "name": "",
          "type": "uint256"
        }
      ],
      "stateMutability": "view",
      "type": "function"
    },
    {
      "inputs": [
        {
          "internalType": "address",
          "name": "to",
          "type": "address"
        },
        {
          "internalType": "uint256",
          "name": "n",
          "type": "uint256"
        }
      ],
      "name": "batchMint",
      "outputs": [
        {
          "internalType": "uint256[]",
          "name": "",
          "type": "uint256[]"
        }
      ],
      "stateMutability": "payable",
      "type": "function"
    },
    {
      "inputs": [
        {
          "internalType": "address",
          "name": "newAdm",
          "type": "address"
        }
      ],
      "name": "changeAdmin",
      "outputs": [],
      "stateMutability": "nonpayable",
      "type": "function"
    },
    {
      "inputs": [
        {
          "internalType": "address",
          "name": "newBfs",
          "type": "address"
        }
      ],
      "name": "changeBfs",
      "outputs": [],
      "stateMutability": "nonpayable",
      "type": "function"
    },
    {
      "inputs": [
        {
          "internalType": "address",
          "name": "newBrc20",
          "type": "address"
        }
      ],
      "name": "changeBrc20Token",
      "outputs": [],
      "stateMutability": "nonpayable",
      "type": "function"
    },
    {
      "inputs": [
        {
          "internalType": "address",
          "name": "newAddr",
          "type": "address"
        }
      ],
      "name": "changeParamAddr",
      "outputs": [],
      "stateMutability": "nonpayable",
      "type": "function"
    },
    {
      "inputs": [
        {
          "internalType": "address",
          "name": "newAddr",
          "type": "address"
        }
      ],
      "name": "changeRandomizerAddr",
      "outputs": [],
      "stateMutability": "nonpayable",
      "type": "function"
    },
    {
      "inputs": [
        {
          "internalType": "string",
          "name": "newScript",
          "type": "string"
        }
      ],
      "name": "changeScript",
      "outputs": [],
      "stateMutability": "nonpayable",
      "type": "function"
    },
    {
      "inputs": [
        {
          "internalType": "uint256",
          "name": "tokenId",
          "type": "uint256"
        }
      ],
      "name": "claim",
      "outputs": [],
      "stateMutability": "payable",
      "type": "function"
    },
    {
      "inputs": [
        {
          "internalType": "uint256",
          "name": "tokenId",
          "type": "uint256"
        }
      ],
      "name": "claimable",
      "outputs": [
        {
          "internalType": "bool",
          "name": "",
          "type": "bool"
        }
      ],
      "stateMutability": "view",
      "type": "function"
    },
    {
      "inputs": [
        {
          "internalType": "uint256",
          "name": "tokenId",
          "type": "uint256"
        }
      ],
      "name": "getApproved",
      "outputs": [
        {
          "internalType": "address",
          "name": "",
          "type": "address"
        }
      ],
      "stateMutability": "view",
      "type": "function"
    },
    {
      "inputs": [
        {
          "internalType": "string",
          "name": "name",
          "type": "string"
        },
        {
          "internalType": "string",
          "name": "symbol",
          "type": "string"
        },
        {
          "internalType": "address",
          "name": "admin",
          "type": "address"
        },
        {
          "internalType": "address",
          "name": "paramsAddress",
          "type": "address"
        },
        {
          "internalType": "address",
          "name": "randomizerAddr",
          "type": "address"
        },
        {
          "internalType": "address",
          "name": "gmToken",
          "type": "address"
        }
      ],
      "name": "initialize",
      "outputs": [],
      "stateMutability": "nonpayable",
      "type": "function"
    },
    {
      "inputs": [
        {
          "internalType": "address",
          "name": "owner",
          "type": "address"
        },
        {
          "internalType": "address",
          "name": "operator",
          "type": "address"
        }
      ],
      "name": "isApprovedForAll",
      "outputs": [
        {
          "internalType": "bool",
          "name": "",
          "type": "bool"
        }
      ],
      "stateMutability": "view",
      "type": "function"
    },
    {
      "inputs": [
        {
          "internalType": "address",
          "name": "to",
          "type": "address"
        }
      ],
      "name": "mint",
      "outputs": [
        {
          "internalType": "uint256",
          "name": "tokenId",
          "type": "uint256"
        }
      ],
      "stateMutability": "payable",
      "type": "function"
    },
    {
      "inputs": [],
      "name": "name",
      "outputs": [
        {
          "internalType": "string",
          "name": "",
          "type": "string"
        }
      ],
      "stateMutability": "view",
      "type": "function"
    },
    {
      "inputs": [],
      "name": "owner",
      "outputs": [
        {
          "internalType": "address",
          "name": "",
          "type": "address"
        }
      ],
      "stateMutability": "view",
      "type": "function"
    },
    {
      "inputs": [
        {
          "internalType": "uint256",
          "name": "tokenId",
          "type": "uint256"
        }
      ],
      "name": "ownerOf",
      "outputs": [
        {
          "internalType": "address",
          "name": "",
          "type": "address"
        }
      ],
      "stateMutability": "view",
      "type": "function"
    },
    {
      "inputs": [],
      "name": "p5jsScript",
      "outputs": [
        {
          "internalType": "string",
          "name": "result",
          "type": "string"
        }
      ],
      "stateMutability": "view",
      "type": "function"
    },
    {
      "inputs": [],
      "name": "paused",
      "outputs": [
        {
          "internalType": "bool",
          "name": "",
          "type": "bool"
        }
      ],
      "stateMutability": "view",
      "type": "function"
    },
    {
      "inputs": [],
      "name": "renounceOwnership",
      "outputs": [],
      "stateMutability": "nonpayable",
      "type": "function"
    },
    {
      "inputs": [
        {
          "internalType": "uint256",
          "name": "tokenId",
          "type": "uint256"
        }
      ],
      "name": "reserve",
      "outputs": [],
      "stateMutability": "payable",
      "type": "function"
    },
    {
      "inputs": [
        {
          "internalType": "uint256",
          "name": "projectId",
          "type": "uint256"
        },
        {
          "internalType": "uint256",
          "name": "_salePrice",
          "type": "uint256"
        }
      ],
      "name": "royaltyInfo",
      "outputs": [
        {
          "internalType": "address",
          "name": "receiver",
          "type": "address"
        },
        {
          "internalType": "uint256",
          "name": "royaltyAmount",
          "type": "uint256"
        }
      ],
      "stateMutability": "view",
      "type": "function"
    },
    {
      "inputs": [
        {
          "internalType": "address",
          "name": "from",
          "type": "address"
        },
        {
          "internalType": "address",
          "name": "to",
          "type": "address"
        },
        {
          "internalType": "uint256",
          "name": "tokenId",
          "type": "uint256"
        }
      ],
      "name": "safeTransferFrom",
      "outputs": [],
      "stateMutability": "nonpayable",
      "type": "function"
    },
    {
      "inputs": [
        {
          "internalType": "address",
          "name": "from",
          "type": "address"
        },
        {
          "internalType": "address",
          "name": "to",
          "type": "address"
        },
        {
          "internalType": "uint256",
          "name": "tokenId",
          "type": "uint256"
        },
        {
          "internalType": "bytes",
          "name": "data",
          "type": "bytes"
        }
      ],
      "name": "safeTransferFrom",
      "outputs": [],
      "stateMutability": "nonpayable",
      "type": "function"
    },
    {
      "inputs": [
        {
          "internalType": "address",
          "name": "operator",
          "type": "address"
        },
        {
          "internalType": "bool",
          "name": "approved",
          "type": "bool"
        }
      ],
      "name": "setApprovalForAll",
      "outputs": [],
      "stateMutability": "nonpayable",
      "type": "function"
    },
    {
      "inputs": [
        {
          "internalType": "bytes4",
          "name": "interfaceId",
          "type": "bytes4"
        }
      ],
      "name": "supportsInterface",
      "outputs": [
        {
          "internalType": "bool",
          "name": "",
          "type": "bool"
        }
      ],
      "stateMutability": "view",
      "type": "function"
    },
    {
      "inputs": [],
      "name": "symbol",
      "outputs": [
        {
          "internalType": "string",
          "name": "",
          "type": "string"
        }
      ],
      "stateMutability": "view",
      "type": "function"
    },
    {
      "inputs": [
        {
          "internalType": "bytes32",
          "name": "seed",
          "type": "bytes32"
        },
        {
          "internalType": "uint256",
          "name": "tokenId",
          "type": "uint256"
        }
      ],
      "name": "tokenHTML",
      "outputs": [
        {
          "internalType": "string",
          "name": "result",
          "type": "string"
        }
      ],
      "stateMutability": "view",
      "type": "function"
    },
    {
      "inputs": [
        {
          "internalType": "uint256",
          "name": "tokenId",
          "type": "uint256"
        }
      ],
      "name": "tokenIdToHash",
      "outputs": [
        {
          "internalType": "bytes32",
          "name": "",
          "type": "bytes32"
        }
      ],
      "stateMutability": "view",
      "type": "function"
    },
    {
      "inputs": [
        {
          "internalType": "uint256",
          "name": "tokenId",
          "type": "uint256"
        }
      ],
      "name": "tokenURI",
      "outputs": [
        {
          "internalType": "string",
          "name": "result",
          "type": "string"
        }
      ],
      "stateMutability": "view",
      "type": "function"
    },
    {
      "inputs": [
        {
          "internalType": "address",
          "name": "from",
          "type": "address"
        },
        {
          "internalType": "address",
          "name": "to",
          "type": "address"
        },
        {
          "internalType": "uint256",
          "name": "tokenId",
          "type": "uint256"
        }
      ],
      "name": "transferFrom",
      "outputs": [],
      "stateMutability": "nonpayable",
      "type": "function"
    },
    {
      "inputs": [
        {
          "internalType": "address",
          "name": "newOwner",
          "type": "address"
        }
      ],
      "name": "transferOwnership",
      "outputs": [],
      "stateMutability": "nonpayable",
      "type": "function"
    },
    {
      "inputs": [
        {
          "internalType": "bytes32",
          "name": "seed",
          "type": "bytes32"
        },
        {
          "internalType": "uint256",
          "name": "tokenId",
          "type": "uint256"
        }
      ],
      "name": "variableScript",
      "outputs": [
        {
          "internalType": "string",
          "name": "result",
          "type": "string"
        }
      ],
      "stateMutability": "view",
      "type": "function"
    },
    {
      "inputs": [],
      "name": "web3Script",
      "outputs": [
        {
          "internalType": "string",
          "name": "result",
          "type": "string"
        }
      ],
      "stateMutability": "view",
      "type": "function"
    }
  ],
  "bytecode": "0x608060405234801561001057600080fd5b50614828806100206000396000f3fe60806040526004361061025c5760003560e01c80636a62784211610144578063a22cb465116100b6578063d1d58b251161007a578063d1d58b251461070d578063e56f2fe41461072d578063e985e9c51461074d578063eb29c23214610796578063f2fde38b146107b6578063febfd6c3146107d657600080fd5b8063a22cb46514610653578063adfc7dae14610673578063b88d4fde14610694578063bd5b4fa1146106b4578063c87b56dd146106ed57600080fd5b80638a016249116101085780638a016249146105b55780638da5cb5b146105ca5780638f283970146105e957806393c6cdc01461060957806395d89b4114610629578063a0d41e111461063e57600080fd5b80636a6278421461054557806370a0823114610558578063715018a61461057857806374973a411461058d578063819b25ba146105a257600080fd5b80632a55205a116101dd57806342842e0e116101a157806342842e0e1461048c57806343508b05146104ac5780635c975abb146104cc578063621a1f74146104e45780636352211e1461050457806366215eb41461052457600080fd5b80632a55205a146103d95780632b7d13de1461041857806332e32326146104385780633334897914610458578063379607f51461047957600080fd5b8063140f0e0711610224578063140f0e07146103335780631ca9741b1461035357806322f4596f1461037357806323b872dd14610398578063254c0d4d146103b857600080fd5b806301bc45c91461026157806301ffc9a71461029f57806306fdde03146102cf578063081812fc146102f1578063095ea7b314610311575b600080fd5b34801561026d57600080fd5b5061015f54610282906001600160a01b031681565b6040516001600160a01b0390911681526020015b60405180910390f35b3480156102ab57600080fd5b506102bf6102ba36600461399a565b6107f6565b6040519015158152602001610296565b3480156102db57600080fd5b506102e4610848565b6040516102969190613a0f565b3480156102fd57600080fd5b5061028261030c366004613a22565b6108da565b34801561031d57600080fd5b5061033161032c366004613a50565b610901565b005b34801561033f57600080fd5b5061033161034e366004613b49565b610a1c565b34801561035f57600080fd5b5061033161036e366004613b7e565b610a7c565b34801561037f57600080fd5b5061038a6101655481565b604051908152602001610296565b3480156103a457600080fd5b506103316103b3366004613b9b565b610b10565b3480156103c457600080fd5b5061016454610282906001600160a01b031681565b3480156103e557600080fd5b506103f96103f4366004613bdc565b610c9f565b604080516001600160a01b039093168352602083019190915201610296565b34801561042457600080fd5b50610331610433366004613b7e565b610cd0565b34801561044457600080fd5b506102e4610453366004613bdc565b610d65565b34801561046457600080fd5b5061016854610282906001600160a01b031681565b610331610487366004613a22565b610f4e565b34801561049857600080fd5b506103316104a7366004613b9b565b611086565b6104bf6104ba366004613a50565b6110a1565b6040516102969190613bfe565b3480156104d857600080fd5b5060975460ff166102bf565b3480156104f057600080fd5b5061038a6104ff366004613a22565b61114d565b34801561051057600080fd5b5061028261051f366004613a22565b61121b565b34801561053057600080fd5b5061016154610282906001600160a01b031681565b61038a610553366004613b7e565b611237565b34801561056457600080fd5b5061038a610573366004613b7e565b611385565b34801561058457600080fd5b5061033161140b565b34801561059957600080fd5b506102e461141f565b6103316105b0366004613a22565b611679565b3480156105c157600080fd5b506102e46117b1565b3480156105d657600080fd5b5061012d546001600160a01b0316610282565b3480156105f557600080fd5b50610331610604366004613b7e565b611840565b34801561061557600080fd5b50610331610624366004613b7e565b6118d5565b34801561063557600080fd5b506102e461196a565b34801561064a57600080fd5b506102e4611979565b34801561065f57600080fd5b5061033161066e366004613c42565b611baa565b34801561067f57600080fd5b5061016054610282906001600160a01b031681565b3480156106a057600080fd5b506103316106af366004613c80565b611bb5565b3480156106c057600080fd5b5061038a6106cf366004613d00565b61016660209081526000928352604080842090915290825290205481565b3480156106f957600080fd5b506102e4610708366004613a22565b611d4b565b34801561071957600080fd5b506102bf610728366004613a22565b612029565b34801561073957600080fd5b50610331610748366004613d25565b612089565b34801561075957600080fd5b506102bf610768366004613dd4565b6001600160a01b039182166000908152606a6020908152604080832093909416825291909152205460ff1690565b3480156107a257600080fd5b506102e46107b1366004613bdc565b612293565b3480156107c257600080fd5b506103316107d1366004613b7e565b612365565b3480156107e257600080fd5b506103316107f1366004613b7e565b6123db565b60006001600160e01b031982166380ac58cd60e01b148061082757506001600160e01b03198216635b5e139f60e01b145b8061084257506301ffc9a760e01b6001600160e01b03198316145b92915050565b60606065805461085790613e02565b80601f016020809104026020016040519081016040528092919081815260200182805461088390613e02565b80156108d05780601f106108a5576101008083540402835291602001916108d0565b820191906000526020600020905b8154815290600101906020018083116108b357829003601f168201915b5050505050905090565b60006108e582612470565b506000908152606960205260409020546001600160a01b031690565b600061090c826124c0565b9050806001600160a01b0316836001600160a01b0316141561097f5760405162461bcd60e51b815260206004820152602160248201527f4552433732313a20617070726f76616c20746f2063757272656e74206f776e656044820152603960f91b60648201526084015b60405180910390fd5b336001600160a01b038216148061099b575061099b8133610768565b610a0d5760405162461bcd60e51b815260206004820152603d60248201527f4552433732313a20617070726f76652063616c6c6572206973206e6f7420746f60448201527f6b656e206f776e6572206f7220617070726f76656420666f7220616c6c0000006064820152608401610976565b610a178383612520565b505050565b61015f5460408051808201909152600381526231303160e81b6020820152906001600160a01b03163314610a635760405162461bcd60e51b81526004016109769190613a0f565b508051610a78906101639060208401906138eb565b5050565b61015f546001600160a01b031633148015610a9f57506001600160a01b03811615155b6040518060400160405280600381526020016231303160e81b81525090610ad95760405162461bcd60e51b81526004016109769190613a0f565b50610161546001600160a01b03828116911614610b0d5761016180546001600160a01b0319166001600160a01b0383161790555b50565b336001600160a01b0384161415610b75576000610b2c3361258e565b90506000610b38612607565b905080821015610b6e5760405162461bcd60e51b81526020600482015260016024820152601560fa1b6044820152606401610976565b5050610c94565b333b63ffffffff1615610bf757610b8c33826126ad565b610ba85760405162461bcd60e51b815260040161097690613e3d565b6000610bb38461258e565b90506000610bbf612607565b905080821015610b6e5760405162461bcd60e51b8152602060048201526003602482015262545f3160e81b6044820152606401610976565b610c0081612029565b610c355760405162461bcd60e51b815260040161097690602080825260049082015263272fa19960e11b604082015260600190565b6000610c3f612716565b6000838152610166602090815260408083203384529091529020549091508015801590610c75575081610c728243613ea0565b10155b610c915760405162461bcd60e51b815260040161097690613eb7565b50505b610a178383836127b4565b61015f546001600160a01b03166000612710610cbd846101f4613ed7565b610cc79190613ef6565b90509250929050565b61015f546001600160a01b031633148015610cf357506001600160a01b03811615155b6040518060400160405280600381526020016231303160e81b81525090610d2d5760405162461bcd60e51b81526004016109769190613a0f565b50610168546001600160a01b03828116911614610b0d5761016880546001600160a01b0383166001600160a01b031990911617905550565b6040805180820190915260128152711e39b1b934b83a1034b21e93bb30b939939f60711b602082015280610d98846127ef565b604051602001610da9929190613f34565b60408051601f19818403018152919052610164549091508190610dd4906001600160a01b031661283b565b604051602001610de5929190613f88565b60408051808303601f19018152908290526101605463bf40fac160e01b835260206004840152602160248401527f535741505f504f4f4c5f474d5f4554485f434f4e54524143545f4144445245536044840152605360f81b60648401529092506001600160a01b031690600090829063bf40fac190608401602060405180830381865afa158015610e7a573d6000803e3d6000fd5b505050506040513d601f19601f82011682018060405250810190610e9e9190613fef565b905082610eaa8261283b565b604051602001610ebb92919061400c565b604051602081830303815290604052925082610ed63061283b565b604051602001610ee7929190614084565b604051602081830303815290604052925082610f0285612851565b604051602001610f139291906140eb565b604051602081830303815290604052925082604051602001610f359190614143565b6040516020818303038152906040529250505092915050565b610f566128e6565b610f5f81612029565b610f945760405162461bcd60e51b8152600401610976906020808252600490820152634e5f433160e01b604082015260600190565b6000610f9e612716565b6000838152610166602090815260408083203384529091529020549091508015801590610fd4575081610fd18243613ea0565b10155b610ff05760405162461bcd60e51b815260040161097690613eb7565b6000610ffb8461121b565b90506110088133866127b4565b60008481526101666020908152604080832033845290915281205561102c8461121b565b6001600160a01b031684336001600160a01b03167fad03f837a9207e368d73ec028e1f54428184da8cfea258cc116da2225f3ac5eb4360405161107191815260200190565b60405180910390a4505050610b0d600160fb55565b610a1783838360405180602001604052806000815250611bb5565b606060008267ffffffffffffffff8111156110be576110be613a7c565b6040519080825280602002602001820160405280156110e7578160200160208202803683370190505b50905060005b8381101561114557600061110086611237565b90508083838151811061111557611115614170565b60200260200101818152505062030d405a10156111325750611145565b508061113d81614186565b9150506110ed565b509392505050565b600061115882612947565b6040518060400160405280600381526020016232303960e81b815250906111925760405162461bcd60e51b81526004016109769190613a0f565b5060008281526101676020526040902054600160a01b900460a01b6001600160a01b0319166111c357506000919050565b600082815261016760209081526040918290205491516111fe92600160a01b900460a01b91016001600160a01b031991909116815260200190565b604051602081830303815290604052805190602001209050919050565b600090815261016760205260409020546001600160a01b031690565b60006112416128e6565b6101655461016254106040518060400160405280600381526020016232303360e81b815250906112845760405162461bcd60e51b81526004016109769190613a0f565b5061015f5460408051808201909152600381526231303160e81b6020820152906001600160a01b031633146112cc5760405162461bcd60e51b81526004016109769190613a0f565b5061016280549060006112de83614186565b91905055506101625490506112f38282612965565b61016154604051631da00d8560e01b8152600481018390526001600160a01b03909116906000908290631da00d85906024016020604051808303816000875af1158015611344573d6000803e3d6000fd5b505050506040513d601f19601f8201168201806040525081019061136891906141a1565b9050611374838261297f565b5050611380600160fb55565b919050565b60006001600160a01b0382166113ef5760405162461bcd60e51b815260206004820152602960248201527f4552433732313a2061646472657373207a65726f206973206e6f7420612076616044820152683634b21037bbb732b960b91b6064820152608401610976565b506001600160a01b031660009081526068602052604090205490565b611413612a4a565b61141d6000612aa5565b565b60606040518060600160405280603781526020016147bc6037913961016854604080518082018252600d81526c70356a7340312e352e302e6a7360981b602082015261016054915163bf40fac160e01b81529394506001600160a01b039283169390929190911690600090829063bf40fac1906114c2906004016020808252600f908201526e29a1a924a82a2fa82927ab24a222a960891b604082015260600190565b602060405180830381865afa1580156114df573d6000803e3d6000fd5b505050506040513d601f19601f820116820180604052508101906115039190613fef565b90506000846001600160a01b031663ba67e64183866040518363ffffffff1660e01b81526004016115359291906141ba565b602060405180830381865afa158015611552573d6000803e3d6000fd5b505050506040513d601f19601f8201168201806040525081019061157691906141a1565b90506115836001826141de565b905060005b8181101561164e5761015f5460405163283959d960e21b815260009182916001600160a01b038a81169263a0e56764926115cc92909116908b9088906004016141f6565b600060405180830381865afa1580156115e9573d6000803e3d6000fd5b505050506040513d6000823e601f3d908101601f19168201604052611611919081019061425a565b9150915088826040516020016116289291906142b5565b60405160208183030381529060405298505050808061164690614186565b915050611588565b50856040516020016116609190614143565b6040516020818303038152906040529550505050505090565b6116816128e6565b61168a81612029565b6116bf5760405162461bcd60e51b81526004016109769060208082526004908201526304e5f43360e41b604082015260600190565b60006116c9612716565b6000838152610166602090815260408083203384529091529020549091508015806116fd5750816116fa8243613ea0565b10155b6117325760405162461bcd60e51b81526020600482015260066024820152654e5f43305f3160d01b6044820152606401610976565b60008381526101666020908152604080832033845290915290204390556117588361121b565b6001600160a01b031683336001600160a01b03167f6f8d4fbb9604038077481649590dd5ddb6c97e7236b4b644b44084733d5f85604360405161179d91815260200190565b60405180910390a45050610b0d600160fb55565b61016380546117bf90613e02565b80601f01602080910402602001604051908101604052809291908181526020018280546117eb90613e02565b80156118385780601f1061180d57610100808354040283529160200191611838565b820191906000526020600020905b81548152906001019060200180831161181b57829003601f168201915b505050505081565b61015f546001600160a01b03163314801561186357506001600160a01b03811615155b6040518060400160405280600381526020016231303160e81b8152509061189d5760405162461bcd60e51b81526004016109769190613a0f565b5061015f546001600160a01b03828116911614610b0d5761015f80546001600160a01b0383166001600160a01b031990911617905550565b61015f546001600160a01b0316331480156118f857506001600160a01b03811615155b6040518060400160405280600381526020016231303160e81b815250906119325760405162461bcd60e51b81526004016109769190613a0f565b50610164546001600160a01b03828116911614610b0d5761016480546001600160a01b0383166001600160a01b031990911617905550565b60606066805461085790613e02565b60606040518060600160405280603781526020016147bc6037913961016854604080518082018252600f81526e776562336a7340312e322e372e6a7360881b602082015261016054915163bf40fac160e01b81529394506001600160a01b039283169390929190911690600090829063bf40fac190611a1e906004016020808252600f908201526e29a1a924a82a2fa82927ab24a222a960891b604082015260600190565b602060405180830381865afa158015611a3b573d6000803e3d6000fd5b505050506040513d601f19601f82011682018060405250810190611a5f9190613fef565b90506000846001600160a01b031663ba67e64183866040518363ffffffff1660e01b8152600401611a919291906141ba565b602060405180830381865afa158015611aae573d6000803e3d6000fd5b505050506040513d601f19601f82011682018060405250810190611ad291906141a1565b9050611adf6001826141de565b905060005b8181101561164e5761015f5460405163283959d960e21b815260009182916001600160a01b038a81169263a0e5676492611b2892909116908b9088906004016141f6565b600060405180830381865afa158015611b45573d6000803e3d6000fd5b505050506040513d6000823e601f3d908101601f19168201604052611b6d919081019061425a565b915091508882604051602001611b849291906142b5565b604051602081830303815290604052985050508080611ba290614186565b915050611ae4565b610a78338383612af8565b336001600160a01b0385161415611c1a576000611bd13361258e565b90506000611bdd612607565b905080821015611c135760405162461bcd60e51b81526020600482015260016024820152601560fa1b6044820152606401610976565b5050611d39565b333b63ffffffff1615611c9c57611c3133836126ad565b611c4d5760405162461bcd60e51b815260040161097690613e3d565b6000611c588561258e565b90506000611c64612607565b905080821015611c135760405162461bcd60e51b8152602060048201526003602482015262545f3160e81b6044820152606401610976565b611ca582612029565b611cda5760405162461bcd60e51b815260040161097690602080825260049082015263272fa19960e11b604082015260600190565b6000611ce4612716565b6000848152610166602090815260408083203384529091529020549091508015801590611d1a575081611d178243613ea0565b10155b611d365760405162461bcd60e51b815260040161097690613eb7565b50505b611d4584848484612bc7565b50505050565b6060611d5682612947565b6040518060400160405280600381526020016232303960e81b81525090611d905760405162461bcd60e51b81526004016109769190613a0f565b5060405163188687dd60e21b815260048101839052600090309063621a1f7490602401602060405180830381865afa158015611dd0573d6000803e3d6000fd5b505050506040513d601f19601f82011682018060405250810190611df491906141a1565b61016054604051637594e11960e11b815260048101839052602481018690529192506001600160a01b031690600090309063eb29c23290604401600060405180830381865afa158015611e4b573d6000803e3d6000fd5b505050506040513d6000823e601f3d908101601f19168201604052611e7391908101906142e4565b9050611ea76040518060a0016040528060608152602001606081526020016060815260200160608152602001606081525090565b81604051602001611eb8919061432d565b60408051601f19818403018152918152606083019190915280518082018252600e81526d109054d157d5549257d51490525560921b6020820152905163349f642f60e11b81526001600160a01b0385169163693ec85e91611f1c9190600401613a0f565b600060405180830381865afa158015611f39573d6000803e3d6000fd5b505050506040513d6000823e601f3d908101601f19168201604052611f6191908101906142e4565b60408201819052611f713061283b565b611f7a88612851565b611f83876127ef565b604051602001611f969493929190614374565b6040516020818303038152906040528160400181905250611fff8160000151611fe18360200151604051602001611fcd91906143f6565b604051602081830303815290604052612bfa565b60408085015160608601519151611fcd949392908290602001614412565b60405160200161200f9190614532565b604051602081830303815290604052945050505050919050565b6000806120358361121b565b905060006120428261258e565b9050600061204f3361258e565b9050600061205b612607565b9050808310801561206c5750808210155b1561207d5750600195945050505050565b50600095945050505050565b600054610100900460ff16158080156120a95750600054600160ff909116105b806120c35750303b1580156120c3575060005460ff166001145b6121265760405162461bcd60e51b815260206004820152602e60248201527f496e697469616c697a61626c653a20636f6e747261637420697320616c72656160448201526d191e481a5b9a5d1a585b1a5e995960921b6064820152608401610976565b6000805460ff191660011790558015612149576000805461ff0019166101001790555b60408051808201909152600381526203130360ec1b60208201526001600160a01b03861661218a5760405162461bcd60e51b81526004016109769190613a0f565b5060408051808201909152600381526203130360ec1b60208201526001600160a01b0385166121cc5760405162461bcd60e51b81526004016109769190613a0f565b5061016080546001600160a01b038087166001600160a01b03199283161790925561015f805488841690831617905561016180548684169083161790556101648054928516929091169190911790556103e86101655561222c8787612d60565b612234612d91565b61223c612dc0565b612244612def565b801561228a576000805461ff0019169055604051600181527f7f26b83ff96e1f2b6a682f133852f6798a09c465da95921460cefb38474024989060200160405180910390a15b50505050505050565b60408051808201909152600c81526b1e343a36b61f1e3432b0b21f60a11b6020820152806122bf61141f565b6040516020016122d09291906142b5565b6040516020818303038152906040529050806122ea611979565b6040516020016122fb9291906142b5565b6040516020818303038152906040529050806123178484610d65565b6040516020016123289291906142b5565b60405160208183030381529060405290508061016360405160200161234e929190614577565b604051602081830303815290604052905092915050565b61236d612a4a565b6001600160a01b0381166123d25760405162461bcd60e51b815260206004820152602660248201527f4f776e61626c653a206e6577206f776e657220697320746865207a65726f206160448201526564647265737360d01b6064820152608401610976565b610b0d81612aa5565b61015f546001600160a01b0316331480156123fe57506001600160a01b03811615155b6040518060400160405280600381526020016231303160e81b815250906124385760405162461bcd60e51b81526004016109769190613a0f565b50610160546001600160a01b03828116911614610b0d5761016080546001600160a01b0383166001600160a01b031990911617905550565b61247981612947565b610b0d5760405162461bcd60e51b8152602060048201526018602482015277115490cdcc8c4e881a5b9d985b1a59081d1bdad95b88125160421b6044820152606401610976565b6000818152606760205260408120546001600160a01b0316806108425760405162461bcd60e51b8152602060048201526018602482015277115490cdcc8c4e881a5b9d985b1a59081d1bdad95b88125160421b6044820152606401610976565b600081815260696020526040902080546001600160a01b0319166001600160a01b0384169081179091558190612555826124c0565b6001600160a01b03167f8c5be1e5ebec7d5bd14f71427d1e84f3dd0314c0f7b2291e5b200ac8c7c3b92560405160405180910390a45050565b610164546040516370a0823160e01b81526001600160a01b038381166004830152600092169081906370a0823190602401602060405180830381865afa1580156125dc573d6000803e3d6000fd5b505050506040513d601f19601f8201168201806040525081019061260091906141a1565b9392505050565b61016054604051636d12dce160e01b815260206004820152600c60248201526b11d357d512149154d213d31160a21b60448201526000916001600160a01b03169082908290636d12dce190606401602060405180830381865afa158015612672573d6000803e3d6000fd5b505050506040513d601f19601f8201168201806040525081019061269691906141a1565b9050806108425750670de0b6b3a764000092915050565b6000806126b98361121b565b9050806001600160a01b0316846001600160a01b0316146127045760006126df8261258e565b905060006126eb612607565b9050808210156127015760009350505050610842565b50505b61270e8484612e1e565b949350505050565b61016054604051636d12dce160e01b815260206004820152600a602482015269474d5f5245534552564560b01b60448201526000916001600160a01b03169082908290636d12dce190606401602060405180830381865afa15801561277f573d6000803e3d6000fd5b505050506040513d601f19601f820116820180604052508101906127a391906141a1565b90508061084257506103f092915050565b6127bf838383612e9c565b60009081526101676020526040902080546001600160a01b0319166001600160a01b039290921691909117905550565b60606127fa8261300d565b612807608084901b61300d565b60405161060f60f31b6020820152602281019290925260428201526062016040516020818303038152906040529050919050565b60606108426001600160a01b03831660146131bf565b6060600061285e8361335b565b600101905060008167ffffffffffffffff81111561287e5761287e613a7c565b6040519080825280601f01601f1916602001820160405280156128a8576020820181803683370190505b5090508181016020015b600019016f181899199a1a9b1b9c1cb0b131b232b360811b600a86061a8153600a85049450846128e157611145565b6128b2565b600260fb5414156129395760405162461bcd60e51b815260206004820152601f60248201527f5265656e7472616e637947756172643a207265656e7472616e742063616c6c006044820152606401610976565b600260fb55565b600160fb55565b600090815261016760205260409020546001600160a01b0316151590565b610a78828260405180602001604052806000815250613433565b60008281526101676020908152604091829020548251808401909352600383526219181b60e91b91830191909152600160a01b900460a01b6001600160a01b031916156129df5760405162461bcd60e51b81526004016109769190613a0f565b5060408051808201909152600381526232303760e81b602082015281612a185760405162461bcd60e51b81526004016109769190613a0f565b5060009182526101676020526040909120805460a09290921c600160a01b026001600160a01b03909216919091179055565b61012d546001600160a01b0316331461141d5760405162461bcd60e51b815260206004820181905260248201527f4f776e61626c653a2063616c6c6572206973206e6f7420746865206f776e65726044820152606401610976565b61012d80546001600160a01b038381166001600160a01b0319831681179093556040519116919082907f8be0079c531659141344cd1fd0a4f28419497f9722a3daafe3b4186f6b6457e090600090a35050565b816001600160a01b0316836001600160a01b03161415612b5a5760405162461bcd60e51b815260206004820152601960248201527f4552433732313a20617070726f766520746f2063616c6c6572000000000000006044820152606401610976565b6001600160a01b038381166000818152606a6020908152604080832094871680845294825291829020805460ff191686151590811790915591519182527f17307eab39ab6107e8899845ad3d59bd9653f200f220920489ca2b5937696c31910160405180910390a3505050565b612bd28484846127b4565b612bde84848484613466565b611d455760405162461bcd60e51b815260040161097690614628565b6060815160001415612c1a57505060408051602081019091526000815290565b600060405180606001604052806040815260200161477c6040913990506000600384516002612c4991906141de565b612c539190613ef6565b612c5e906004613ed7565b90506000612c6d8260206141de565b67ffffffffffffffff811115612c8557612c85613a7c565b6040519080825280601f01601f191660200182016040528015612caf576020820181803683370190505b509050818152600183018586518101602084015b81831015612d1b576003830192508251603f8160121c168501518253600182019150603f81600c1c168501518253600182019150603f8160061c168501518253600182019150603f8116850151825350600101612cc3565b600389510660018114612d355760028114612d4657612d52565b613d3d60f01b600119830152612d52565b603d60f81b6000198301525b509398975050505050505050565b600054610100900460ff16612d875760405162461bcd60e51b81526004016109769061467a565b610a788282613564565b600054610100900460ff16612db85760405162461bcd60e51b81526004016109769061467a565b61141d6135b2565b600054610100900460ff16612de75760405162461bcd60e51b81526004016109769061467a565b61141d6135d9565b600054610100900460ff16612e165760405162461bcd60e51b81526004016109769061467a565b61141d61360c565b600080612e2a836124c0565b9050806001600160a01b0316846001600160a01b03161480612e7157506001600160a01b038082166000908152606a602090815260408083209388168352929052205460ff165b8061270e5750836001600160a01b0316612e8a846108da565b6001600160a01b031614949350505050565b826001600160a01b0316612eaf826124c0565b6001600160a01b031614612ed55760405162461bcd60e51b8152600401610976906146c5565b6001600160a01b038216612f375760405162461bcd60e51b8152602060048201526024808201527f4552433732313a207472616e7366657220746f20746865207a65726f206164646044820152637265737360e01b6064820152608401610976565b612f44838383600161363c565b826001600160a01b0316612f57826124c0565b6001600160a01b031614612f7d5760405162461bcd60e51b8152600401610976906146c5565b600081815260696020908152604080832080546001600160a01b03199081169091556001600160a01b0387811680865260688552838620805460001901905590871680865283862080546001019055868652606790945282852080549092168417909155905184937fddf252ad1be2c89b69c2b068fc378daa952ba7f163c4a11628f55a4df523b3ef91a4505050565b7aff00000000000000ff00000000000000ff00000000000000ff00006bffffffff0000000000000000604083901c90811663ffffffff60c01b84161760201c63ffffffff60601b919091166001600160e01b031984161717601081901c9182167eff00000000000000ff00000000000000ff00000000000000ff000000000000821617600890811c7bff00000000000000ff00000000000000ff00000000000000ff000000939093167fff00000000000000ff00000000000000ff00000000000000ff000000000000009290921691909117919091179081901c7e0f000f000f000f000f000f000f000f000f000f000f000f000f000f000f000f167f0f000f000f000f000f000f000f000f000f000f000f000f000f000f000f000f00600492831c16179061315b827f06060606060606060606060606060606060606060606060606060606060606066141de565b901c7f0f0f0f0f0f0f0f0f0f0f0f0f0f0f0f0f0f0f0f0f0f0f0f0f0f0f0f0f0f0f0f0f16600761318b9190613ed7565b6131b5827f30303030303030303030303030303030303030303030303030303030303030306141de565b61084291906141de565b606060006131ce836002613ed7565b6131d99060026141de565b67ffffffffffffffff8111156131f1576131f1613a7c565b6040519080825280601f01601f19166020018201604052801561321b576020820181803683370190505b509050600360fc1b8160008151811061323657613236614170565b60200101906001600160f81b031916908160001a905350600f60fb1b8160018151811061326557613265614170565b60200101906001600160f81b031916908160001a9053506000613289846002613ed7565b6132949060016141de565b90505b600181111561330c576f181899199a1a9b1b9c1cb0b131b232b360811b85600f16601081106132c8576132c8614170565b1a60f81b8282815181106132de576132de614170565b60200101906001600160f81b031916908160001a90535060049490941c936133058161470a565b9050613297565b5083156126005760405162461bcd60e51b815260206004820181905260248201527f537472696e67733a20686578206c656e67746820696e73756666696369656e746044820152606401610976565b60008072184f03e93ff9f4daa797ed6e38ed64bf6a1f0160401b831061339a5772184f03e93ff9f4daa797ed6e38ed64bf6a1f0160401b830492506040015b6d04ee2d6d415b85acef810000000083106133c6576d04ee2d6d415b85acef8100000000830492506020015b662386f26fc1000083106133e457662386f26fc10000830492506010015b6305f5e10083106133fc576305f5e100830492506008015b612710831061341057612710830492506004015b60648310613422576064830492506002015b600a83106108425760010192915050565b61343d83836136af565b61344a6000848484613466565b610a175760405162461bcd60e51b815260040161097690614628565b60006001600160a01b0384163b1561355957604051630a85bd0160e11b81526001600160a01b0385169063150b7a02906134aa903390899088908890600401614721565b6020604051808303816000875af19250505080156134e5575060408051601f3d908101601f191682019092526134e29181019061475e565b60015b61353f573d808015613513576040519150601f19603f3d011682016040523d82523d6000602084013e613518565b606091505b5080516135375760405162461bcd60e51b815260040161097690614628565b805181602001fd5b6001600160e01b031916630a85bd0160e11b14905061270e565b506001949350505050565b600054610100900460ff1661358b5760405162461bcd60e51b81526004016109769061467a565b815161359e9060659060208501906138eb565b508051610a179060669060208401906138eb565b600054610100900460ff166129405760405162461bcd60e51b81526004016109769061467a565b600054610100900460ff166136005760405162461bcd60e51b81526004016109769061467a565b6097805460ff19169055565b600054610100900460ff166136335760405162461bcd60e51b81526004016109769061467a565b61141d33612aa5565b613648848484846136e8565b60975460ff1615611d455760405162461bcd60e51b815260206004820152602b60248201527f4552433732315061757361626c653a20746f6b656e207472616e73666572207760448201526a1a1a5b19481c185d5cd95960aa1b6064820152608401610976565b6136b98282613770565b60009081526101676020526040902080546001600160a01b0319166001600160a01b0392909216919091179055565b6001811115611d45576001600160a01b0384161561372e576001600160a01b03841660009081526068602052604081208054839290613728908490613ea0565b90915550505b6001600160a01b03831615611d45576001600160a01b038316600090815260686020526040812080548392906137659084906141de565b909155505050505050565b6001600160a01b0382166137c65760405162461bcd60e51b815260206004820181905260248201527f4552433732313a206d696e7420746f20746865207a65726f20616464726573736044820152606401610976565b6137cf81612947565b1561381c5760405162461bcd60e51b815260206004820152601c60248201527f4552433732313a20746f6b656e20616c7265616479206d696e746564000000006044820152606401610976565b61382a60008383600161363c565b61383381612947565b156138805760405162461bcd60e51b815260206004820152601c60248201527f4552433732313a20746f6b656e20616c7265616479206d696e746564000000006044820152606401610976565b6001600160a01b038216600081815260686020908152604080832080546001019055848352606790915280822080546001600160a01b0319168417905551839291907fddf252ad1be2c89b69c2b068fc378daa952ba7f163c4a11628f55a4df523b3ef908290a45050565b8280546138f790613e02565b90600052602060002090601f016020900481019282613919576000855561395f565b82601f1061393257805160ff191683800117855561395f565b8280016001018555821561395f579182015b8281111561395f578251825591602001919060010190613944565b5061396b92915061396f565b5090565b5b8082111561396b5760008155600101613970565b6001600160e01b031981168114610b0d57600080fd5b6000602082840312156139ac57600080fd5b813561260081613984565b60005b838110156139d25781810151838201526020016139ba565b83811115611d455750506000910152565b600081518084526139fb8160208601602086016139b7565b601f01601f19169290920160200192915050565b60208152600061260060208301846139e3565b600060208284031215613a3457600080fd5b5035919050565b6001600160a01b0381168114610b0d57600080fd5b60008060408385031215613a6357600080fd5b8235613a6e81613a3b565b946020939093013593505050565b634e487b7160e01b600052604160045260246000fd5b604051601f8201601f1916810167ffffffffffffffff81118282101715613abb57613abb613a7c565b604052919050565b600067ffffffffffffffff821115613add57613add613a7c565b50601f01601f191660200190565b6000613afe613af984613ac3565b613a92565b9050828152838383011115613b1257600080fd5b828260208301376000602084830101529392505050565b600082601f830112613b3a57600080fd5b61260083833560208501613aeb565b600060208284031215613b5b57600080fd5b813567ffffffffffffffff811115613b7257600080fd5b61270e84828501613b29565b600060208284031215613b9057600080fd5b813561260081613a3b565b600080600060608486031215613bb057600080fd5b8335613bbb81613a3b565b92506020840135613bcb81613a3b565b929592945050506040919091013590565b60008060408385031215613bef57600080fd5b50508035926020909101359150565b6020808252825182820181905260009190848201906040850190845b81811015613c3657835183529284019291840191600101613c1a565b50909695505050505050565b60008060408385031215613c5557600080fd5b8235613c6081613a3b565b915060208301358015158114613c7557600080fd5b809150509250929050565b60008060008060808587031215613c9657600080fd5b8435613ca181613a3b565b93506020850135613cb181613a3b565b925060408501359150606085013567ffffffffffffffff811115613cd457600080fd5b8501601f81018713613ce557600080fd5b613cf487823560208401613aeb565b91505092959194509250565b60008060408385031215613d1357600080fd5b823591506020830135613c7581613a3b565b60008060008060008060c08789031215613d3e57600080fd5b863567ffffffffffffffff80821115613d5657600080fd5b613d628a838b01613b29565b97506020890135915080821115613d7857600080fd5b50613d8589828a01613b29565b9550506040870135613d9681613a3b565b93506060870135613da681613a3b565b92506080870135613db681613a3b565b915060a0870135613dc681613a3b565b809150509295509295509295565b60008060408385031215613de757600080fd5b8235613df281613a3b565b91506020830135613c7581613a3b565b600181811c90821680613e1657607f821691505b60208210811415613e3757634e487b7160e01b600052602260045260246000fd5b50919050565b6020808252602d908201527f4552433732313a2063616c6c6572206973206e6f7420746f6b656e206f776e6560408201526c1c881bdc88185c1c1c9bdd9959609a1b606082015260800190565b634e487b7160e01b600052601160045260246000fd5b600082821015613eb257613eb2613e8a565b500390565b6020808252600690820152654e5f43315f3160d01b604082015260600190565b6000816000190483118215151615613ef157613ef1613e8a565b500290565b600082613f1357634e487b7160e01b600052601260045260246000fd5b500490565b60008151613f2a8185602086016139b7565b9290920192915050565b60008351613f468184602088016139b7565b696c657420736565643d2760b01b9083019081528351613f6d81600a8401602088016139b7565b61273b60f01b600a9290910191820152600c01949350505050565b60008351613f9a8184602088016139b7565b7f6c657420474d5f434f4e54524143545f414444524553533d27000000000000009083019081528351613fd48160198401602088016139b7565b61273b60f01b60199290910191820152601b01949350505050565b60006020828403121561400157600080fd5b815161260081613a3b565b6000835161401e8184602088016139b7565b80830190507f6c657420535741505f504f4f4c5f474d5f4554485f434f4e54524143545f414481526644524553533d2760c81b602082015283516140698160278401602088016139b7565b61273b60f01b60279290910191820152602901949350505050565b600083516140968184602088016139b7565b7f6c657420736f6c617269734e6674436f6e7472616374416464726573733d270090830190815283516140d081601f8401602088016139b7565b61273b60f01b601f9290910191820152602101949350505050565b600083516140fd8184602088016139b7565b6d6c657420544f4b454e5f49443d2760901b908301908152835161412881600e8401602088016139b7565b61273b60f01b600e9290910191820152601001949350505050565b600082516141558184602087016139b7565b681e17b9b1b934b83a1f60b91b920191825250600901919050565b634e487b7160e01b600052603260045260246000fd5b600060001982141561419a5761419a613e8a565b5060010190565b6000602082840312156141b357600080fd5b5051919050565b6001600160a01b038316815260406020820181905260009061270e908301846139e3565b600082198211156141f1576141f1613e8a565b500190565b6001600160a01b038416815260606020820181905260009061421a908301856139e3565b9050826040830152949350505050565b6000614238613af984613ac3565b905082815283838301111561424c57600080fd5b6126008360208301846139b7565b6000806040838503121561426d57600080fd5b825167ffffffffffffffff81111561428457600080fd5b8301601f8101851361429557600080fd5b6142a48582516020840161422a565b925050602083015190509250929050565b600083516142c78184602088016139b7565b8351908301906142db8183602088016139b7565b01949350505050565b6000602082840312156142f657600080fd5b815167ffffffffffffffff81111561430d57600080fd5b8201601f8101841361431e57600080fd5b61270e8482516020840161422a565b7216101130b734b6b0ba34b7b72fbab936111d1160691b8152815160009061435c8160138501602087016139b7565b601160f91b6013939091019283015250601401919050565b60008551614386818460208a016139b7565b8083019050602f60f81b80825286516143a6816001850160208b016139b7565b600192019182015284516143c18160028401602089016139b7565b653f736565643d60d01b6002929091019182015283516143e88160088401602088016139b7565b016008019695505050505050565b600082516144088184602087016139b7565b9190910192915050565b683d913730b6b2911d1160b91b81528551600090614437816009850160208b016139b7565b711116113232b9b1b934b83a34b7b7111d101160711b600991840191820152865161446981601b840160208b016139b7565b601160f91b601b92909101918201526b16101134b6b0b3b2911d101160a11b601c82015285516144a0816028840160208a016139b7565b6e1331b0b83a3ab9329e9b181818181160891b6028929091019182015284516144d08160378401602089016139b7565b7016101130ba3a3934b13aba32b9911d101160791b603792909101918201526145266145196145026048840187613f18565b6a1331b0b83a3ab9329e981160a91b8152600b0190565b607d60f81b815260010190565b98975050505050505050565b7f646174613a6170706c69636174696f6e2f6a736f6e3b6261736536342c00000081526000825161456a81601d8501602087016139b7565b91909101601d0192915050565b60008351602061458a82858389016139b7565b845491840191600090600181811c90808316806145a857607f831692505b8583108114156145c657634e487b7160e01b85526022600452602485fd5b8080156145da57600181146145eb57614618565b60ff19851688528388019550614618565b60008b81526020902060005b858110156146105781548a8201529084019088016145f7565b505083880195505b50939a9950505050505050505050565b60208082526032908201527f4552433732313a207472616e7366657220746f206e6f6e20455243373231526560408201527131b2b4bb32b91034b6b83632b6b2b73a32b960711b606082015260800190565b6020808252602b908201527f496e697469616c697a61626c653a20636f6e7472616374206973206e6f74206960408201526a6e697469616c697a696e6760a81b606082015260800190565b60208082526025908201527f4552433732313a207472616e736665722066726f6d20696e636f72726563742060408201526437bbb732b960d91b606082015260800190565b60008161471957614719613e8a565b506000190190565b6001600160a01b0385811682528416602082015260408101839052608060608201819052600090614754908301846139e3565b9695505050505050565b60006020828403121561477057600080fd5b81516126008161398456fe4142434445464748494a4b4c4d4e4f505152535455565758595a6162636465666768696a6b6c6d6e6f707172737475767778797a303132333435363738392b2f3c7363726970742073616e64626f783d27616c6c6f772d736372697074732720747970653d27746578742f6a617661736372697074273ea26469706673582212201c9816d34e668cc6adf7abd1212f154279580ff87c32ce9f171811a76d6ba06664736f6c634300080c0033",
  "linkReferences": {},
  "deployedLinkReferences": {}
}