{
  "_format": "hh-sol-artifact-1",
  "contractName": "Solaris",
  "sourceName": "contracts/nfts/Solaris.sol",
  "abi": [
    {
      "anonymous": false,
      "inputs": [
        {
          "indexed": true,
          "internalType": "address",
          "name": "owner",
          "type": "address"
        },
        {
          "indexed": true,
          "internalType": "address",
          "name": "approved",
          "type": "address"
        },
        {
          "indexed": true,
          "internalType": "uint256",
          "name": "tokenId",
          "type": "uint256"
        }
      ],
      "name": "Approval",
      "type": "event"
    },
    {
      "anonymous": false,
      "inputs": [
        {
          "indexed": true,
          "internalType": "address",
          "name": "owner",
          "type": "address"
        },
        {
          "indexed": true,
          "internalType": "address",
          "name": "operator",
          "type": "address"
        },
        {
          "indexed": false,
          "internalType": "bool",
          "name": "approved",
          "type": "bool"
        }
      ],
      "name": "ApprovalForAll",
      "type": "event"
    },
    {
      "anonymous": false,
      "inputs": [
        {
          "indexed": true,
          "internalType": "address",
          "name": "reserver",
          "type": "address"
        },
        {
          "indexed": true,
          "internalType": "uint256",
          "name": "tokenId",
          "type": "uint256"
        },
        {
          "indexed": true,
          "internalType": "address",
          "name": "owner",
          "type": "address"
        },
        {
          "indexed": false,
          "internalType": "uint256",
          "name": "blockNumber",
          "type": "uint256"
        }
      ],
      "name": "Claim",
      "type": "event"
    },
    {
      "anonymous": false,
      "inputs": [
        {
          "indexed": false,
          "internalType": "uint8",
          "name": "version",
          "type": "uint8"
        }
      ],
      "name": "Initialized",
      "type": "event"
    },
    {
      "anonymous": false,
      "inputs": [
        {
          "indexed": true,
          "internalType": "address",
          "name": "previousOwner",
          "type": "address"
        },
        {
          "indexed": true,
          "internalType": "address",
          "name": "newOwner",
          "type": "address"
        }
      ],
      "name": "OwnershipTransferred",
      "type": "event"
    },
    {
      "anonymous": false,
      "inputs": [
        {
          "indexed": false,
          "internalType": "address",
          "name": "account",
          "type": "address"
        }
      ],
      "name": "Paused",
      "type": "event"
    },
    {
      "anonymous": false,
      "inputs": [
        {
          "indexed": true,
          "internalType": "address",
          "name": "reserver",
          "type": "address"
        },
        {
          "indexed": true,
          "internalType": "uint256",
          "name": "tokenId",
          "type": "uint256"
        },
        {
          "indexed": true,
          "internalType": "address",
          "name": "owner",
          "type": "address"
        },
        {
          "indexed": false,
          "internalType": "uint256",
          "name": "blockNumber",
          "type": "uint256"
        }
      ],
      "name": "Reserve",
      "type": "event"
    },
    {
      "anonymous": false,
      "inputs": [
        {
          "indexed": true,
          "internalType": "address",
          "name": "from",
          "type": "address"
        },
        {
          "indexed": true,
          "internalType": "address",
          "name": "to",
          "type": "address"
        },
        {
          "indexed": true,
          "internalType": "uint256",
          "name": "tokenId",
          "type": "uint256"
        }
      ],
      "name": "Transfer",
      "type": "event"
    },
    {
      "anonymous": false,
      "inputs": [
        {
          "indexed": false,
          "internalType": "address",
          "name": "account",
          "type": "address"
        }
      ],
      "name": "Unpaused",
      "type": "event"
    },
    {
      "inputs": [],
      "name": "_admin",
      "outputs": [
        {
          "internalType": "address",
          "name": "",
          "type": "address"
        }
      ],
      "stateMutability": "view",
      "type": "function"
    },
    {
      "inputs": [],
      "name": "_bfs",
      "outputs": [
        {
          "internalType": "address",
          "name": "",
          "type": "address"
        }
      ],
      "stateMutability": "view",
      "type": "function"
    },
    {
      "inputs": [],
      "name": "_brc20Token",
      "outputs": [
        {
          "internalType": "address",
          "name": "",
          "type": "address"
        }
      ],
      "stateMutability": "view",
      "type": "function"
    },
    {
      "inputs": [],
      "name": "_maxSupply",
      "outputs": [
        {
          "internalType": "uint256",
          "name": "",
          "type": "uint256"
        }
      ],
      "stateMutability": "view",
      "type": "function"
    },
    {
      "inputs": [],
      "name": "_paramsAddress",
      "outputs": [
        {
          "internalType": "address",
          "name": "",
          "type": "address"
        }
      ],
      "stateMutability": "view",
      "type": "function"
    },
    {
      "inputs": [],
      "name": "_randomizerAddr",
      "outputs": [
        {
          "internalType": "address",
          "name": "",
          "type": "address"
        }
      ],
      "stateMutability": "view",
      "type": "function"
    },
    {
      "inputs": [
        {
          "internalType": "uint256",
          "name": "",
          "type": "uint256"
        },
        {
          "internalType": "address",
          "name": "",
          "type": "address"
        }
      ],
      "name": "_reservations",
      "outputs": [
        {
          "internalType": "uint256",
          "name": "",
          "type": "uint256"
        }
      ],
      "stateMutability": "view",
      "type": "function"
    },
    {
      "inputs": [],
      "name": "_script",
      "outputs": [
        {
          "internalType": "string",
          "name": "",
          "type": "string"
        }
      ],
      "stateMutability": "view",
      "type": "function"
    },
    {
      "inputs": [
        {
          "internalType": "address",
          "name": "to",
          "type": "address"
        },
        {
          "internalType": "uint256",
          "name": "tokenId",
          "type": "uint256"
        }
      ],
      "name": "approve",
      "outputs": [],
      "stateMutability": "nonpayable",
      "type": "function"
    },
    {
      "inputs": [
        {
          "internalType": "address",
          "name": "owner",
          "type": "address"
        }
      ],
      "name": "balanceOf",
      "outputs": [
        {
          "internalType": "uint256",
          "name": "",
          "type": "uint256"
        }
      ],
      "stateMutability": "view",
      "type": "function"
    },
    {
      "inputs": [
        {
          "internalType": "address",
          "name": "to",
          "type": "address"
        },
        {
          "internalType": "uint256",
          "name": "n",
          "type": "uint256"
        }
      ],
      "name": "batchMint",
      "outputs": [
        {
          "internalType": "uint256[]",
          "name": "",
          "type": "uint256[]"
        }
      ],
      "stateMutability": "payable",
      "type": "function"
    },
    {
      "inputs": [
        {
          "internalType": "address",
          "name": "newAdm",
          "type": "address"
        }
      ],
      "name": "changeAdmin",
      "outputs": [],
      "stateMutability": "nonpayable",
      "type": "function"
    },
    {
      "inputs": [
        {
          "internalType": "address",
          "name": "newBfs",
          "type": "address"
        }
      ],
      "name": "changeBfs",
      "outputs": [],
      "stateMutability": "nonpayable",
      "type": "function"
    },
    {
      "inputs": [
        {
          "internalType": "address",
          "name": "newBrc20",
          "type": "address"
        }
      ],
      "name": "changeBrc20Token",
      "outputs": [],
      "stateMutability": "nonpayable",
      "type": "function"
    },
    {
      "inputs": [
        {
          "internalType": "address",
          "name": "newAddr",
          "type": "address"
        }
      ],
      "name": "changeParamAddr",
      "outputs": [],
      "stateMutability": "nonpayable",
      "type": "function"
    },
    {
      "inputs": [
        {
          "internalType": "address",
          "name": "newAddr",
          "type": "address"
        }
      ],
      "name": "changeRandomizerAddr",
      "outputs": [],
      "stateMutability": "nonpayable",
      "type": "function"
    },
    {
      "inputs": [
        {
          "internalType": "string",
          "name": "newScript",
          "type": "string"
        }
      ],
      "name": "changeScript",
      "outputs": [],
      "stateMutability": "nonpayable",
      "type": "function"
    },
    {
      "inputs": [
        {
          "internalType": "uint256",
          "name": "tokenId",
          "type": "uint256"
        }
      ],
      "name": "claim",
      "outputs": [],
      "stateMutability": "payable",
      "type": "function"
    },
    {
      "inputs": [
        {
          "internalType": "uint256",
          "name": "tokenId",
          "type": "uint256"
        }
      ],
      "name": "claimable",
      "outputs": [
        {
          "internalType": "bool",
          "name": "",
          "type": "bool"
        }
      ],
      "stateMutability": "view",
      "type": "function"
    },
    {
      "inputs": [
        {
          "internalType": "uint256",
          "name": "tokenId",
          "type": "uint256"
        }
      ],
      "name": "getApproved",
      "outputs": [
        {
          "internalType": "address",
          "name": "",
          "type": "address"
        }
      ],
      "stateMutability": "view",
      "type": "function"
    },
    {
      "inputs": [
        {
          "internalType": "string",
          "name": "name",
          "type": "string"
        },
        {
          "internalType": "string",
          "name": "symbol",
          "type": "string"
        },
        {
          "internalType": "address",
          "name": "admin",
          "type": "address"
        },
        {
          "internalType": "address",
          "name": "paramsAddress",
          "type": "address"
        },
        {
          "internalType": "address",
          "name": "randomizerAddr",
          "type": "address"
        },
        {
          "internalType": "address",
          "name": "gmToken",
          "type": "address"
        }
      ],
      "name": "initialize",
      "outputs": [],
      "stateMutability": "nonpayable",
      "type": "function"
    },
    {
      "inputs": [
        {
          "internalType": "address",
          "name": "owner",
          "type": "address"
        },
        {
          "internalType": "address",
          "name": "operator",
          "type": "address"
        }
      ],
      "name": "isApprovedForAll",
      "outputs": [
        {
          "internalType": "bool",
          "name": "",
          "type": "bool"
        }
      ],
      "stateMutability": "view",
      "type": "function"
    },
    {
      "inputs": [
        {
          "internalType": "address",
          "name": "to",
          "type": "address"
        }
      ],
      "name": "mint",
      "outputs": [
        {
          "internalType": "uint256",
          "name": "tokenId",
          "type": "uint256"
        }
      ],
      "stateMutability": "payable",
      "type": "function"
    },
    {
      "inputs": [],
      "name": "name",
      "outputs": [
        {
          "internalType": "string",
          "name": "",
          "type": "string"
        }
      ],
      "stateMutability": "view",
      "type": "function"
    },
    {
      "inputs": [],
      "name": "owner",
      "outputs": [
        {
          "internalType": "address",
          "name": "",
          "type": "address"
        }
      ],
      "stateMutability": "view",
      "type": "function"
    },
    {
      "inputs": [
        {
          "internalType": "uint256",
          "name": "tokenId",
          "type": "uint256"
        }
      ],
      "name": "ownerOf",
      "outputs": [
        {
          "internalType": "address",
          "name": "",
          "type": "address"
        }
      ],
      "stateMutability": "view",
      "type": "function"
    },
    {
      "inputs": [],
      "name": "p5jsScript",
      "outputs": [
        {
          "internalType": "string",
          "name": "",
          "type": "string"
        }
      ],
      "stateMutability": "view",
      "type": "function"
    },
    {
      "inputs": [],
      "name": "paused",
      "outputs": [
        {
          "internalType": "bool",
          "name": "",
          "type": "bool"
        }
      ],
      "stateMutability": "view",
      "type": "function"
    },
    {
      "inputs": [],
      "name": "renounceOwnership",
      "outputs": [],
      "stateMutability": "nonpayable",
      "type": "function"
    },
    {
      "inputs": [
        {
          "internalType": "uint256",
          "name": "tokenId",
          "type": "uint256"
        }
      ],
      "name": "reserve",
      "outputs": [],
      "stateMutability": "payable",
      "type": "function"
    },
    {
      "inputs": [
        {
          "internalType": "uint256",
          "name": "projectId",
          "type": "uint256"
        },
        {
          "internalType": "uint256",
          "name": "_salePrice",
          "type": "uint256"
        }
      ],
      "name": "royaltyInfo",
      "outputs": [
        {
          "internalType": "address",
          "name": "receiver",
          "type": "address"
        },
        {
          "internalType": "uint256",
          "name": "royaltyAmount",
          "type": "uint256"
        }
      ],
      "stateMutability": "view",
      "type": "function"
    },
    {
      "inputs": [
        {
          "internalType": "address",
          "name": "from",
          "type": "address"
        },
        {
          "internalType": "address",
          "name": "to",
          "type": "address"
        },
        {
          "internalType": "uint256",
          "name": "tokenId",
          "type": "uint256"
        }
      ],
      "name": "safeTransferFrom",
      "outputs": [],
      "stateMutability": "nonpayable",
      "type": "function"
    },
    {
      "inputs": [
        {
          "internalType": "address",
          "name": "from",
          "type": "address"
        },
        {
          "internalType": "address",
          "name": "to",
          "type": "address"
        },
        {
          "internalType": "uint256",
          "name": "tokenId",
          "type": "uint256"
        },
        {
          "internalType": "bytes",
          "name": "data",
          "type": "bytes"
        }
      ],
      "name": "safeTransferFrom",
      "outputs": [],
      "stateMutability": "nonpayable",
      "type": "function"
    },
    {
      "inputs": [
        {
          "internalType": "address",
          "name": "operator",
          "type": "address"
        },
        {
          "internalType": "bool",
          "name": "approved",
          "type": "bool"
        }
      ],
      "name": "setApprovalForAll",
      "outputs": [],
      "stateMutability": "nonpayable",
      "type": "function"
    },
    {
      "inputs": [
        {
          "internalType": "bytes4",
          "name": "interfaceId",
          "type": "bytes4"
        }
      ],
      "name": "supportsInterface",
      "outputs": [
        {
          "internalType": "bool",
          "name": "",
          "type": "bool"
        }
      ],
      "stateMutability": "view",
      "type": "function"
    },
    {
      "inputs": [],
      "name": "symbol",
      "outputs": [
        {
          "internalType": "string",
          "name": "",
          "type": "string"
        }
      ],
      "stateMutability": "view",
      "type": "function"
    },
    {
      "inputs": [
        {
          "internalType": "bytes32",
          "name": "seed",
          "type": "bytes32"
        }
      ],
      "name": "tokenHTML",
      "outputs": [
        {
          "internalType": "string",
          "name": "result",
          "type": "string"
        }
      ],
      "stateMutability": "view",
      "type": "function"
    },
    {
      "inputs": [
        {
          "internalType": "uint256",
          "name": "tokenId",
          "type": "uint256"
        }
      ],
      "name": "tokenIdToHash",
      "outputs": [
        {
          "internalType": "bytes32",
          "name": "",
          "type": "bytes32"
        }
      ],
      "stateMutability": "view",
      "type": "function"
    },
    {
      "inputs": [
        {
          "internalType": "uint256",
          "name": "tokenId",
          "type": "uint256"
        }
      ],
      "name": "tokenURI",
      "outputs": [
        {
          "internalType": "string",
          "name": "result",
          "type": "string"
        }
      ],
      "stateMutability": "view",
      "type": "function"
    },
    {
      "inputs": [
        {
          "internalType": "address",
          "name": "from",
          "type": "address"
        },
        {
          "internalType": "address",
          "name": "to",
          "type": "address"
        },
        {
          "internalType": "uint256",
          "name": "tokenId",
          "type": "uint256"
        }
      ],
      "name": "transferFrom",
      "outputs": [],
      "stateMutability": "nonpayable",
      "type": "function"
    },
    {
      "inputs": [
        {
          "internalType": "address",
          "name": "newOwner",
          "type": "address"
        }
      ],
      "name": "transferOwnership",
      "outputs": [],
      "stateMutability": "nonpayable",
      "type": "function"
    },
    {
      "inputs": [],
      "name": "web3Script",
      "outputs": [
        {
          "internalType": "string",
          "name": "",
          "type": "string"
        }
      ],
      "stateMutability": "view",
      "type": "function"
    }
  ],
  "bytecode": "0x608060405234801561001057600080fd5b50614274806100206000396000f3fe6080604052600436106102515760003560e01c806370a0823111610139578063a22cb465116100b6578063d1d58b251161007a578063d1d58b25146106e2578063e1f796ae14610702578063e56f2fe414610722578063e985e9c514610742578063f2fde38b1461078b578063febfd6c3146107ab57600080fd5b8063a22cb46514610628578063adfc7dae14610648578063b88d4fde14610669578063bd5b4fa114610689578063c87b56dd146106c257600080fd5b80638da5cb5b116100fd5780638da5cb5b1461059f5780638f283970146105be57806393c6cdc0146105de57806395d89b41146105fe578063a0d41e111461061357600080fd5b806370a082311461052d578063715018a61461054d57806374973a4114610562578063819b25ba146105775780638a0162491461058a57600080fd5b80632a55205a116101d257806343508b051161019657806343508b05146104815780635c975abb146104a1578063621a1f74146104b95780636352211e146104d957806366215eb4146104f95780636a6278421461051a57600080fd5b80632a55205a146103ce5780632b7d13de1461040d578063333489791461042d578063379607f51461044e57806342842e0e1461046157600080fd5b8063140f0e0711610219578063140f0e07146103285780631ca9741b1461034857806322f4596f1461036857806323b872dd1461038d578063254c0d4d146103ad57600080fd5b806301bc45c91461025657806301ffc9a71461029457806306fdde03146102c4578063081812fc146102e6578063095ea7b314610306575b600080fd5b34801561026257600080fd5b5061015f54610277906001600160a01b031681565b6040516001600160a01b0390911681526020015b60405180910390f35b3480156102a057600080fd5b506102b46102af366004613612565b6107cb565b604051901515815260200161028b565b3480156102d057600080fd5b506102d961081d565b60405161028b9190613687565b3480156102f257600080fd5b5061027761030136600461369a565b6108af565b34801561031257600080fd5b506103266103213660046136ca565b6108d6565b005b34801561033457600080fd5b506103266103433660046137c1565b6109f1565b34801561035457600080fd5b506103266103633660046137f6565b610a51565b34801561037457600080fd5b5061037f6101655481565b60405190815260200161028b565b34801561039957600080fd5b506103266103a8366004613811565b610ae5565b3480156103b957600080fd5b5061016454610277906001600160a01b031681565b3480156103da57600080fd5b506103ee6103e936600461384d565b610c74565b604080516001600160a01b03909316835260208301919091520161028b565b34801561041957600080fd5b506103266104283660046137f6565b610ca5565b34801561043957600080fd5b5061016854610277906001600160a01b031681565b61032661045c36600461369a565b610d3a565b34801561046d57600080fd5b5061032661047c366004613811565b610e72565b61049461048f3660046136ca565b610e8d565b60405161028b919061386f565b3480156104ad57600080fd5b5060975460ff166102b4565b3480156104c557600080fd5b5061037f6104d436600461369a565b610f39565b3480156104e557600080fd5b506102776104f436600461369a565b611007565b34801561050557600080fd5b5061016154610277906001600160a01b031681565b61037f6105283660046137f6565b611023565b34801561053957600080fd5b5061037f6105483660046137f6565b611171565b34801561055957600080fd5b506103266111f7565b34801561056e57600080fd5b506102d961120b565b61032661058536600461369a565b6113cf565b34801561059657600080fd5b506102d9611507565b3480156105ab57600080fd5b5061012d546001600160a01b0316610277565b3480156105ca57600080fd5b506103266105d93660046137f6565b611596565b3480156105ea57600080fd5b506103266105f93660046137f6565b61162b565b34801561060a57600080fd5b506102d96116c0565b34801561061f57600080fd5b506102d96116cf565b34801561063457600080fd5b506103266106433660046138b3565b611868565b34801561065457600080fd5b5061016054610277906001600160a01b031681565b34801561067557600080fd5b506103266106843660046138ef565b611873565b34801561069557600080fd5b5061037f6106a436600461396b565b61016660209081526000928352604080842090915290825290205481565b3480156106ce57600080fd5b506102d96106dd36600461369a565b611a09565b3480156106ee57600080fd5b506102b46106fd36600461369a565b611ce0565b34801561070e57600080fd5b506102d961071d36600461369a565b611d40565b34801561072e57600080fd5b5061032661073d36600461398e565b611de4565b34801561074e57600080fd5b506102b461075d366004613a33565b6001600160a01b039182166000908152606a6020908152604080832093909416825291909152205460ff1690565b34801561079757600080fd5b506103266107a63660046137f6565b611fee565b3480156107b757600080fd5b506103266107c63660046137f6565b612064565b60006001600160e01b031982166380ac58cd60e01b14806107fc57506001600160e01b03198216635b5e139f60e01b145b8061081757506301ffc9a760e01b6001600160e01b03198316145b92915050565b60606065805461082c90613a5d565b80601f016020809104026020016040519081016040528092919081815260200182805461085890613a5d565b80156108a55780601f1061087a576101008083540402835291602001916108a5565b820191906000526020600020905b81548152906001019060200180831161088857829003601f168201915b5050505050905090565b60006108ba826120f9565b506000908152606960205260409020546001600160a01b031690565b60006108e182612149565b9050806001600160a01b0316836001600160a01b031614156109545760405162461bcd60e51b815260206004820152602160248201527f4552433732313a20617070726f76616c20746f2063757272656e74206f776e656044820152603960f91b60648201526084015b60405180910390fd5b336001600160a01b03821614806109705750610970813361075d565b6109e25760405162461bcd60e51b815260206004820152603d60248201527f4552433732313a20617070726f76652063616c6c6572206973206e6f7420746f60448201527f6b656e206f776e6572206f7220617070726f76656420666f7220616c6c000000606482015260840161094b565b6109ec83836121a9565b505050565b61015f5460408051808201909152600381526231303160e81b6020820152906001600160a01b03163314610a385760405162461bcd60e51b815260040161094b9190613687565b508051610a4d90610163906020840190613563565b5050565b61015f546001600160a01b031633148015610a7457506001600160a01b03811615155b6040518060400160405280600381526020016231303160e81b81525090610aae5760405162461bcd60e51b815260040161094b9190613687565b50610161546001600160a01b03828116911614610ae25761016180546001600160a01b0319166001600160a01b0383161790555b50565b336001600160a01b0384161415610b4a576000610b0133612217565b90506000610b0d612290565b905080821015610b435760405162461bcd60e51b81526020600482015260016024820152601560fa1b604482015260640161094b565b5050610c69565b333b63ffffffff1615610bcc57610b613382612336565b610b7d5760405162461bcd60e51b815260040161094b90613a98565b6000610b8884612217565b90506000610b94612290565b905080821015610b435760405162461bcd60e51b8152602060048201526003602482015262545f3160e81b604482015260640161094b565b610bd581611ce0565b610c0a5760405162461bcd60e51b815260040161094b90602080825260049082015263272fa19960e11b604082015260600190565b6000610c1461239f565b6000838152610166602090815260408083203384529091529020549091508015801590610c4a575081610c478243613afb565b10155b610c665760405162461bcd60e51b815260040161094b90613b12565b50505b6109ec83838361243d565b61015f546001600160a01b03166000612710610c92846101f4613b32565b610c9c9190613b51565b90509250929050565b61015f546001600160a01b031633148015610cc857506001600160a01b03811615155b6040518060400160405280600381526020016231303160e81b81525090610d025760405162461bcd60e51b815260040161094b9190613687565b50610168546001600160a01b03828116911614610ae25761016880546001600160a01b0383166001600160a01b031990911617905550565b610d42612478565b610d4b81611ce0565b610d805760405162461bcd60e51b815260040161094b906020808252600490820152634e5f433160e01b604082015260600190565b6000610d8a61239f565b6000838152610166602090815260408083203384529091529020549091508015801590610dc0575081610dbd8243613afb565b10155b610ddc5760405162461bcd60e51b815260040161094b90613b12565b6000610de784611007565b9050610df481338661243d565b600084815261016660209081526040808320338452909152812055610e1884611007565b6001600160a01b031684336001600160a01b03167fad03f837a9207e368d73ec028e1f54428184da8cfea258cc116da2225f3ac5eb43604051610e5d91815260200190565b60405180910390a4505050610ae2600160fb55565b6109ec83838360405180602001604052806000815250611873565b606060008267ffffffffffffffff811115610eaa57610eaa6136f4565b604051908082528060200260200182016040528015610ed3578160200160208202803683370190505b50905060005b83811015610f31576000610eec86611023565b905080838381518110610f0157610f01613b73565b60200260200101818152505062030d405a1015610f1e5750610f31565b5080610f2981613b89565b915050610ed9565b509392505050565b6000610f44826124d9565b6040518060400160405280600381526020016232303960e81b81525090610f7e5760405162461bcd60e51b815260040161094b9190613687565b5060008281526101676020526040902054600160a01b900460a01b6001600160a01b031916610faf57506000919050565b60008281526101676020908152604091829020549151610fea92600160a01b900460a01b91016001600160a01b031991909116815260200190565b604051602081830303815290604052805190602001209050919050565b600090815261016760205260409020546001600160a01b031690565b600061102d612478565b6101655461016254106040518060400160405280600381526020016232303360e81b815250906110705760405162461bcd60e51b815260040161094b9190613687565b5061015f5460408051808201909152600381526231303160e81b6020820152906001600160a01b031633146110b85760405162461bcd60e51b815260040161094b9190613687565b5061016280549060006110ca83613b89565b91905055506101625490506110df82826124f7565b61016154604051631da00d8560e01b8152600481018390526001600160a01b03909116906000908290631da00d85906024016020604051808303816000875af1158015611130573d6000803e3d6000fd5b505050506040513d601f19601f820116820180604052508101906111549190613ba4565b90506111608382612511565b505061116c600160fb55565b919050565b60006001600160a01b0382166111db5760405162461bcd60e51b815260206004820152602960248201527f4552433732313a2061646472657373207a65726f206973206e6f7420612076616044820152683634b21037bbb732b960b91b606482015260840161094b565b506001600160a01b031660009081526068602052604090205490565b6111ff6125dc565b6112096000612637565b565b606060006040518060600160405280603781526020016142086037913961016854604080518082018252600d81526c70356a7340312e352e302e6a7360981b602082015261015f54915163ba67e64160e01b81529394506001600160a01b03928316939092600092859263ba67e6419261128b9216908690600401613bbd565b602060405180830381865afa1580156112a8573d6000803e3d6000fd5b505050506040513d601f19601f820116820180604052508101906112cc9190613ba4565b90506112d9600182613be1565b905060005b818110156113a45761015f5460405163283959d960e21b815260009182916001600160a01b038881169263a0e5676492611322929091169089908890600401613bf9565b600060405180830381865afa15801561133f573d6000803e3d6000fd5b505050506040513d6000823e601f3d908101601f191682016040526113679190810190613c5d565b91509150868260405160200161137e929190613cd4565b60405160208183030381529060405296505050808061139c90613b89565b9150506112de565b50836040516020016113b69190613d03565b60408051601f1981840301815291905295945050505050565b6113d7612478565b6113e081611ce0565b6114155760405162461bcd60e51b815260040161094b9060208082526004908201526304e5f43360e41b604082015260600190565b600061141f61239f565b6000838152610166602090815260408083203384529091529020549091508015806114535750816114508243613afb565b10155b6114885760405162461bcd60e51b81526020600482015260066024820152654e5f43305f3160d01b604482015260640161094b565b60008381526101666020908152604080832033845290915290204390556114ae83611007565b6001600160a01b031683336001600160a01b03167f6f8d4fbb9604038077481649590dd5ddb6c97e7236b4b644b44084733d5f8560436040516114f391815260200190565b60405180910390a45050610ae2600160fb55565b610163805461151590613a5d565b80601f016020809104026020016040519081016040528092919081815260200182805461154190613a5d565b801561158e5780601f106115635761010080835404028352916020019161158e565b820191906000526020600020905b81548152906001019060200180831161157157829003601f168201915b505050505081565b61015f546001600160a01b0316331480156115b957506001600160a01b03811615155b6040518060400160405280600381526020016231303160e81b815250906115f35760405162461bcd60e51b815260040161094b9190613687565b5061015f546001600160a01b03828116911614610ae25761015f80546001600160a01b0383166001600160a01b031990911617905550565b61015f546001600160a01b03163314801561164e57506001600160a01b03811615155b6040518060400160405280600381526020016231303160e81b815250906116885760405162461bcd60e51b815260040161094b9190613687565b50610164546001600160a01b03828116911614610ae25761016480546001600160a01b0383166001600160a01b031990911617905550565b60606066805461082c90613a5d565b606060006040518060600160405280603781526020016142086037913961016854604080518082018252600d81526c7765623340312e322e372e6a7360981b602082015261015f54915163ba67e64160e01b81529394506001600160a01b03928316939092600092859263ba67e6419261174f9216908690600401613bbd565b602060405180830381865afa15801561176c573d6000803e3d6000fd5b505050506040513d601f19601f820116820180604052508101906117909190613ba4565b905061179d600182613be1565b905060005b818110156113a45761015f5460405163283959d960e21b815260009182916001600160a01b038881169263a0e56764926117e6929091169089908890600401613bf9565b600060405180830381865afa158015611803573d6000803e3d6000fd5b505050506040513d6000823e601f3d908101601f1916820160405261182b9190810190613c5d565b915091508682604051602001611842929190613cd4565b60405160208183030381529060405296505050808061186090613b89565b9150506117a2565b610a4d33838361268a565b336001600160a01b03851614156118d857600061188f33612217565b9050600061189b612290565b9050808210156118d15760405162461bcd60e51b81526020600482015260016024820152601560fa1b604482015260640161094b565b50506119f7565b333b63ffffffff161561195a576118ef3383612336565b61190b5760405162461bcd60e51b815260040161094b90613a98565b600061191685612217565b90506000611922612290565b9050808210156118d15760405162461bcd60e51b8152602060048201526003602482015262545f3160e81b604482015260640161094b565b61196382611ce0565b6119985760405162461bcd60e51b815260040161094b90602080825260049082015263272fa19960e11b604082015260600190565b60006119a261239f565b60008481526101666020908152604080832033845290915290205490915080158015906119d85750816119d58243613afb565b10155b6119f45760405162461bcd60e51b815260040161094b90613b12565b50505b611a0384848484612759565b50505050565b6060611a14826124d9565b6040518060400160405280600381526020016232303960e81b81525090611a4e5760405162461bcd60e51b815260040161094b9190613687565b5060405163188687dd60e21b815260048101839052600090309063621a1f7490602401602060405180830381865afa158015611a8e573d6000803e3d6000fd5b505050506040513d601f19601f82011682018060405250810190611ab29190613ba4565b610160546040516370fbcb5760e11b8152600481018390529192506001600160a01b031690600090309063e1f796ae90602401600060405180830381865afa158015611b02573d6000803e3d6000fd5b505050506040513d6000823e601f3d908101601f19168201604052611b2a9190810190613d30565b9050611b5e6040518060a0016040528060608152602001606081526020016060815260200160608152602001606081525090565b81604051602001611b6f9190613d79565b60408051601f19818403018152918152606083019190915280518082018252600e81526d109054d157d5549257d51490525560921b6020820152905163349f642f60e11b81526001600160a01b0385169163693ec85e91611bd39190600401613687565b600060405180830381865afa158015611bf0573d6000803e3d6000fd5b505050506040513d6000823e601f3d908101601f19168201604052611c189190810190613d30565b60408201819052611c283061278c565b611c31886127a2565b611c3a87612837565b604051602001611c4d9493929190613dc0565b6040516020818303038152906040528160400181905250611cb68160000151611c988360200151604051602001611c849190613e42565b604051602081830303815290604052612872565b60408085015160608601519151611c84949392908290602001613e5e565b604051602001611cc69190613f7e565b604051602081830303815290604052945050505050919050565b600080611cec83611007565b90506000611cf982612217565b90506000611d0633612217565b90506000611d12612290565b90508083108015611d235750808210155b15611d345750600195945050505050565b50600095945050505050565b60408051808201909152600c81526b1e343a36b61f1e3432b0b21f60a11b602082015280611d6c61120b565b604051602001611d7d929190613cd4565b604051602081830303815290604052905080611d976116cf565b604051602001611da8929190613cd4565b604051602081830303815290604052905080610163604051602001611dce929190613fc3565b6040516020818303038152906040529050919050565b600054610100900460ff1615808015611e045750600054600160ff909116105b80611e1e5750303b158015611e1e575060005460ff166001145b611e815760405162461bcd60e51b815260206004820152602e60248201527f496e697469616c697a61626c653a20636f6e747261637420697320616c72656160448201526d191e481a5b9a5d1a585b1a5e995960921b606482015260840161094b565b6000805460ff191660011790558015611ea4576000805461ff0019166101001790555b60408051808201909152600381526203130360ec1b60208201526001600160a01b038616611ee55760405162461bcd60e51b815260040161094b9190613687565b5060408051808201909152600381526203130360ec1b60208201526001600160a01b038516611f275760405162461bcd60e51b815260040161094b9190613687565b5061016080546001600160a01b038087166001600160a01b03199283161790925561015f805488841690831617905561016180548684169083161790556101648054928516929091169190911790556103e861016555611f8787876129d8565b611f8f612a09565b611f97612a38565b611f9f612a67565b8015611fe5576000805461ff0019169055604051600181527f7f26b83ff96e1f2b6a682f133852f6798a09c465da95921460cefb38474024989060200160405180910390a15b50505050505050565b611ff66125dc565b6001600160a01b03811661205b5760405162461bcd60e51b815260206004820152602660248201527f4f776e61626c653a206e6577206f776e657220697320746865207a65726f206160448201526564647265737360d01b606482015260840161094b565b610ae281612637565b61015f546001600160a01b03163314801561208757506001600160a01b03811615155b6040518060400160405280600381526020016231303160e81b815250906120c15760405162461bcd60e51b815260040161094b9190613687565b50610160546001600160a01b03828116911614610ae25761016080546001600160a01b0383166001600160a01b031990911617905550565b612102816124d9565b610ae25760405162461bcd60e51b8152602060048201526018602482015277115490cdcc8c4e881a5b9d985b1a59081d1bdad95b88125160421b604482015260640161094b565b6000818152606760205260408120546001600160a01b0316806108175760405162461bcd60e51b8152602060048201526018602482015277115490cdcc8c4e881a5b9d985b1a59081d1bdad95b88125160421b604482015260640161094b565b600081815260696020526040902080546001600160a01b0319166001600160a01b03841690811790915581906121de82612149565b6001600160a01b03167f8c5be1e5ebec7d5bd14f71427d1e84f3dd0314c0f7b2291e5b200ac8c7c3b92560405160405180910390a45050565b610164546040516370a0823160e01b81526001600160a01b038381166004830152600092169081906370a0823190602401602060405180830381865afa158015612265573d6000803e3d6000fd5b505050506040513d601f19601f820116820180604052508101906122899190613ba4565b9392505050565b61016054604051636d12dce160e01b815260206004820152600c60248201526b11d357d512149154d213d31160a21b60448201526000916001600160a01b03169082908290636d12dce190606401602060405180830381865afa1580156122fb573d6000803e3d6000fd5b505050506040513d601f19601f8201168201806040525081019061231f9190613ba4565b9050806108175750670de0b6b3a764000092915050565b60008061234283611007565b9050806001600160a01b0316846001600160a01b03161461238d57600061236882612217565b90506000612374612290565b90508082101561238a5760009350505050610817565b50505b6123978484612a96565b949350505050565b61016054604051636d12dce160e01b815260206004820152600a602482015269474d5f5245534552564560b01b60448201526000916001600160a01b03169082908290636d12dce190606401602060405180830381865afa158015612408573d6000803e3d6000fd5b505050506040513d601f19601f8201168201806040525081019061242c9190613ba4565b90508061081757506103f092915050565b612448838383612b14565b60009081526101676020526040902080546001600160a01b0319166001600160a01b039290921691909117905550565b600260fb5414156124cb5760405162461bcd60e51b815260206004820152601f60248201527f5265656e7472616e637947756172643a207265656e7472616e742063616c6c00604482015260640161094b565b600260fb55565b600160fb55565b600090815261016760205260409020546001600160a01b0316151590565b610a4d828260405180602001604052806000815250612c85565b60008281526101676020908152604091829020548251808401909352600383526219181b60e91b91830191909152600160a01b900460a01b6001600160a01b031916156125715760405162461bcd60e51b815260040161094b9190613687565b5060408051808201909152600381526232303760e81b6020820152816125aa5760405162461bcd60e51b815260040161094b9190613687565b5060009182526101676020526040909120805460a09290921c600160a01b026001600160a01b03909216919091179055565b61012d546001600160a01b031633146112095760405162461bcd60e51b815260206004820181905260248201527f4f776e61626c653a2063616c6c6572206973206e6f7420746865206f776e6572604482015260640161094b565b61012d80546001600160a01b038381166001600160a01b0319831681179093556040519116919082907f8be0079c531659141344cd1fd0a4f28419497f9722a3daafe3b4186f6b6457e090600090a35050565b816001600160a01b0316836001600160a01b031614156126ec5760405162461bcd60e51b815260206004820152601960248201527f4552433732313a20617070726f766520746f2063616c6c657200000000000000604482015260640161094b565b6001600160a01b038381166000818152606a6020908152604080832094871680845294825291829020805460ff191686151590811790915591519182527f17307eab39ab6107e8899845ad3d59bd9653f200f220920489ca2b5937696c31910160405180910390a3505050565b61276484848461243d565b61277084848484612cb8565b611a035760405162461bcd60e51b815260040161094b90614074565b60606108176001600160a01b0383166014612db6565b606060006127af83612f52565b600101905060008167ffffffffffffffff8111156127cf576127cf6136f4565b6040519080825280601f01601f1916602001820160405280156127f9576020820181803683370190505b5090508181016020015b600019016f181899199a1a9b1b9c1cb0b131b232b360811b600a86061a8153600a850494508461283257610f31565b612803565b60606128428261302a565b61284f608084901b61302a565b60405161060f60f31b602082015260228101929092526042820152606201611dce565b606081516000141561289257505060408051602081019091526000815290565b60006040518060600160405280604081526020016141c860409139905060006003845160026128c19190613be1565b6128cb9190613b51565b6128d6906004613b32565b905060006128e5826020613be1565b67ffffffffffffffff8111156128fd576128fd6136f4565b6040519080825280601f01601f191660200182016040528015612927576020820181803683370190505b509050818152600183018586518101602084015b81831015612993576003830192508251603f8160121c168501518253600182019150603f81600c1c168501518253600182019150603f8160061c168501518253600182019150603f811685015182535060010161293b565b6003895106600181146129ad57600281146129be576129ca565b613d3d60f01b6001198301526129ca565b603d60f81b6000198301525b509398975050505050505050565b600054610100900460ff166129ff5760405162461bcd60e51b815260040161094b906140c6565b610a4d82826131dc565b600054610100900460ff16612a305760405162461bcd60e51b815260040161094b906140c6565b61120961322a565b600054610100900460ff16612a5f5760405162461bcd60e51b815260040161094b906140c6565b611209613251565b600054610100900460ff16612a8e5760405162461bcd60e51b815260040161094b906140c6565b611209613284565b600080612aa283612149565b9050806001600160a01b0316846001600160a01b03161480612ae957506001600160a01b038082166000908152606a602090815260408083209388168352929052205460ff165b806123975750836001600160a01b0316612b02846108af565b6001600160a01b031614949350505050565b826001600160a01b0316612b2782612149565b6001600160a01b031614612b4d5760405162461bcd60e51b815260040161094b90614111565b6001600160a01b038216612baf5760405162461bcd60e51b8152602060048201526024808201527f4552433732313a207472616e7366657220746f20746865207a65726f206164646044820152637265737360e01b606482015260840161094b565b612bbc83838360016132b4565b826001600160a01b0316612bcf82612149565b6001600160a01b031614612bf55760405162461bcd60e51b815260040161094b90614111565b600081815260696020908152604080832080546001600160a01b03199081169091556001600160a01b0387811680865260688552838620805460001901905590871680865283862080546001019055868652606790945282852080549092168417909155905184937fddf252ad1be2c89b69c2b068fc378daa952ba7f163c4a11628f55a4df523b3ef91a4505050565b612c8f8383613327565b612c9c6000848484612cb8565b6109ec5760405162461bcd60e51b815260040161094b90614074565b60006001600160a01b0384163b15612dab57604051630a85bd0160e11b81526001600160a01b0385169063150b7a0290612cfc903390899088908890600401614156565b6020604051808303816000875af1925050508015612d37575060408051601f3d908101601f19168201909252612d3491810190614193565b60015b612d91573d808015612d65576040519150601f19603f3d011682016040523d82523d6000602084013e612d6a565b606091505b508051612d895760405162461bcd60e51b815260040161094b90614074565b805181602001fd5b6001600160e01b031916630a85bd0160e11b149050612397565b506001949350505050565b60606000612dc5836002613b32565b612dd0906002613be1565b67ffffffffffffffff811115612de857612de86136f4565b6040519080825280601f01601f191660200182016040528015612e12576020820181803683370190505b509050600360fc1b81600081518110612e2d57612e2d613b73565b60200101906001600160f81b031916908160001a905350600f60fb1b81600181518110612e5c57612e5c613b73565b60200101906001600160f81b031916908160001a9053506000612e80846002613b32565b612e8b906001613be1565b90505b6001811115612f03576f181899199a1a9b1b9c1cb0b131b232b360811b85600f1660108110612ebf57612ebf613b73565b1a60f81b828281518110612ed557612ed5613b73565b60200101906001600160f81b031916908160001a90535060049490941c93612efc816141b0565b9050612e8e565b5083156122895760405162461bcd60e51b815260206004820181905260248201527f537472696e67733a20686578206c656e67746820696e73756666696369656e74604482015260640161094b565b60008072184f03e93ff9f4daa797ed6e38ed64bf6a1f0160401b8310612f915772184f03e93ff9f4daa797ed6e38ed64bf6a1f0160401b830492506040015b6d04ee2d6d415b85acef81000000008310612fbd576d04ee2d6d415b85acef8100000000830492506020015b662386f26fc100008310612fdb57662386f26fc10000830492506010015b6305f5e1008310612ff3576305f5e100830492506008015b612710831061300757612710830492506004015b60648310613019576064830492506002015b600a83106108175760010192915050565b7aff00000000000000ff00000000000000ff00000000000000ff00006bffffffff0000000000000000604083901c90811663ffffffff60c01b84161760201c63ffffffff60601b919091166001600160e01b031984161717601081901c9182167eff00000000000000ff00000000000000ff00000000000000ff000000000000821617600890811c7bff00000000000000ff00000000000000ff00000000000000ff000000939093167fff00000000000000ff00000000000000ff00000000000000ff000000000000009290921691909117919091179081901c7e0f000f000f000f000f000f000f000f000f000f000f000f000f000f000f000f167f0f000f000f000f000f000f000f000f000f000f000f000f000f000f000f000f00600492831c161790613178827f0606060606060606060606060606060606060606060606060606060606060606613be1565b901c7f0f0f0f0f0f0f0f0f0f0f0f0f0f0f0f0f0f0f0f0f0f0f0f0f0f0f0f0f0f0f0f0f1660076131a89190613b32565b6131d2827f3030303030303030303030303030303030303030303030303030303030303030613be1565b6108179190613be1565b600054610100900460ff166132035760405162461bcd60e51b815260040161094b906140c6565b8151613216906065906020850190613563565b5080516109ec906066906020840190613563565b600054610100900460ff166124d25760405162461bcd60e51b815260040161094b906140c6565b600054610100900460ff166132785760405162461bcd60e51b815260040161094b906140c6565b6097805460ff19169055565b600054610100900460ff166132ab5760405162461bcd60e51b815260040161094b906140c6565b61120933612637565b6132c084848484613360565b60975460ff1615611a035760405162461bcd60e51b815260206004820152602b60248201527f4552433732315061757361626c653a20746f6b656e207472616e73666572207760448201526a1a1a5b19481c185d5cd95960aa1b606482015260840161094b565b61333182826133e8565b60009081526101676020526040902080546001600160a01b0319166001600160a01b0392909216919091179055565b6001811115611a03576001600160a01b038416156133a6576001600160a01b038416600090815260686020526040812080548392906133a0908490613afb565b90915550505b6001600160a01b03831615611a03576001600160a01b038316600090815260686020526040812080548392906133dd908490613be1565b909155505050505050565b6001600160a01b03821661343e5760405162461bcd60e51b815260206004820181905260248201527f4552433732313a206d696e7420746f20746865207a65726f2061646472657373604482015260640161094b565b613447816124d9565b156134945760405162461bcd60e51b815260206004820152601c60248201527f4552433732313a20746f6b656e20616c7265616479206d696e74656400000000604482015260640161094b565b6134a26000838360016132b4565b6134ab816124d9565b156134f85760405162461bcd60e51b815260206004820152601c60248201527f4552433732313a20746f6b656e20616c7265616479206d696e74656400000000604482015260640161094b565b6001600160a01b038216600081815260686020908152604080832080546001019055848352606790915280822080546001600160a01b0319168417905551839291907fddf252ad1be2c89b69c2b068fc378daa952ba7f163c4a11628f55a4df523b3ef908290a45050565b82805461356f90613a5d565b90600052602060002090601f01602090048101928261359157600085556135d7565b82601f106135aa57805160ff19168380011785556135d7565b828001600101855582156135d7579182015b828111156135d75782518255916020019190600101906135bc565b506135e39291506135e7565b5090565b5b808211156135e357600081556001016135e8565b6001600160e01b031981168114610ae257600080fd5b60006020828403121561362457600080fd5b8135612289816135fc565b60005b8381101561364a578181015183820152602001613632565b83811115611a035750506000910152565b6000815180845261367381602086016020860161362f565b601f01601f19169290920160200192915050565b602081526000612289602083018461365b565b6000602082840312156136ac57600080fd5b5035919050565b80356001600160a01b038116811461116c57600080fd5b600080604083850312156136dd57600080fd5b6136e6836136b3565b946020939093013593505050565b634e487b7160e01b600052604160045260246000fd5b604051601f8201601f1916810167ffffffffffffffff81118282101715613733576137336136f4565b604052919050565b600067ffffffffffffffff821115613755576137556136f4565b50601f01601f191660200190565b60006137766137718461373b565b61370a565b905082815283838301111561378a57600080fd5b828260208301376000602084830101529392505050565b600082601f8301126137b257600080fd5b61228983833560208501613763565b6000602082840312156137d357600080fd5b813567ffffffffffffffff8111156137ea57600080fd5b612397848285016137a1565b60006020828403121561380857600080fd5b612289826136b3565b60008060006060848603121561382657600080fd5b61382f846136b3565b925061383d602085016136b3565b9150604084013590509250925092565b6000806040838503121561386057600080fd5b50508035926020909101359150565b6020808252825182820181905260009190848201906040850190845b818110156138a75783518352928401929184019160010161388b565b50909695505050505050565b600080604083850312156138c657600080fd5b6138cf836136b3565b9150602083013580151581146138e457600080fd5b809150509250929050565b6000806000806080858703121561390557600080fd5b61390e856136b3565b935061391c602086016136b3565b925060408501359150606085013567ffffffffffffffff81111561393f57600080fd5b8501601f8101871361395057600080fd5b61395f87823560208401613763565b91505092959194509250565b6000806040838503121561397e57600080fd5b82359150610c9c602084016136b3565b60008060008060008060c087890312156139a757600080fd5b863567ffffffffffffffff808211156139bf57600080fd5b6139cb8a838b016137a1565b975060208901359150808211156139e157600080fd5b506139ee89828a016137a1565b9550506139fd604088016136b3565b9350613a0b606088016136b3565b9250613a19608088016136b3565b9150613a2760a088016136b3565b90509295509295509295565b60008060408385031215613a4657600080fd5b613a4f836136b3565b9150610c9c602084016136b3565b600181811c90821680613a7157607f821691505b60208210811415613a9257634e487b7160e01b600052602260045260246000fd5b50919050565b6020808252602d908201527f4552433732313a2063616c6c6572206973206e6f7420746f6b656e206f776e6560408201526c1c881bdc88185c1c1c9bdd9959609a1b606082015260800190565b634e487b7160e01b600052601160045260246000fd5b600082821015613b0d57613b0d613ae5565b500390565b6020808252600690820152654e5f43315f3160d01b604082015260600190565b6000816000190483118215151615613b4c57613b4c613ae5565b500290565b600082613b6e57634e487b7160e01b600052601260045260246000fd5b500490565b634e487b7160e01b600052603260045260246000fd5b6000600019821415613b9d57613b9d613ae5565b5060010190565b600060208284031215613bb657600080fd5b5051919050565b6001600160a01b03831681526040602082018190526000906123979083018461365b565b60008219821115613bf457613bf4613ae5565b500190565b6001600160a01b0384168152606060208201819052600090613c1d9083018561365b565b9050826040830152949350505050565b6000613c3b6137718461373b565b9050828152838383011115613c4f57600080fd5b61228983602083018461362f565b60008060408385031215613c7057600080fd5b825167ffffffffffffffff811115613c8757600080fd5b8301601f81018513613c9857600080fd5b613ca785825160208401613c2d565b925050602083015190509250929050565b60008151613cca81856020860161362f565b9290920192915050565b60008351613ce681846020880161362f565b835190830190613cfa81836020880161362f565b01949350505050565b60008251613d1581846020870161362f565b681e17b9b1b934b83a1f60b91b920191825250600901919050565b600060208284031215613d4257600080fd5b815167ffffffffffffffff811115613d5957600080fd5b8201601f81018413613d6a57600080fd5b61239784825160208401613c2d565b7216101130b734b6b0ba34b7b72fbab936111d1160691b81528151600090613da881601385016020870161362f565b601160f91b6013939091019283015250601401919050565b60008551613dd2818460208a0161362f565b8083019050602f60f81b8082528651613df2816001850160208b0161362f565b60019201918201528451613e0d81600284016020890161362f565b653f736565643d60d01b600292909101918201528351613e3481600884016020880161362f565b016008019695505050505050565b60008251613e5481846020870161362f565b9190910192915050565b683d913730b6b2911d1160b91b81528551600090613e83816009850160208b0161362f565b711116113232b9b1b934b83a34b7b7111d101160711b6009918401918201528651613eb581601b840160208b0161362f565b601160f91b601b92909101918201526b16101134b6b0b3b2911d101160a11b601c8201528551613eec816028840160208a0161362f565b6e1331b0b83a3ab9329e9b181818181160891b602892909101918201528451613f1c81603784016020890161362f565b7016101130ba3a3934b13aba32b9911d101160791b60379290910191820152613f72613f65613f4e6048840187613cb8565b6a1331b0b83a3ab9329e981160a91b8152600b0190565b607d60f81b815260010190565b98975050505050505050565b7f646174613a6170706c69636174696f6e2f6a736f6e3b6261736536342c000000815260008251613fb681601d85016020870161362f565b91909101601d0192915050565b600083516020613fd6828583890161362f565b845491840191600090600181811c9080831680613ff457607f831692505b85831081141561401257634e487b7160e01b85526022600452602485fd5b808015614026576001811461403757614064565b60ff19851688528388019550614064565b60008b81526020902060005b8581101561405c5781548a820152908401908801614043565b505083880195505b50939a9950505050505050505050565b60208082526032908201527f4552433732313a207472616e7366657220746f206e6f6e20455243373231526560408201527131b2b4bb32b91034b6b83632b6b2b73a32b960711b606082015260800190565b6020808252602b908201527f496e697469616c697a61626c653a20636f6e7472616374206973206e6f74206960408201526a6e697469616c697a696e6760a81b606082015260800190565b60208082526025908201527f4552433732313a207472616e736665722066726f6d20696e636f72726563742060408201526437bbb732b960d91b606082015260800190565b6001600160a01b03858116825284166020820152604081018390526080606082018190526000906141899083018461365b565b9695505050505050565b6000602082840312156141a557600080fd5b8151612289816135fc565b6000816141bf576141bf613ae5565b50600019019056fe4142434445464748494a4b4c4d4e4f505152535455565758595a6162636465666768696a6b6c6d6e6f707172737475767778797a303132333435363738392b2f3c7363726970742073616e64626f783d27616c6c6f772d736372697074732720747970653d27746578742f6a617661736372697074273ea2646970667358221220ee149693c443d4cc201c3b6e4c868baf67cbbc3d807719dc0f80d1367f58e78864736f6c634300080c0033",
  "linkReferences": {},
  "deployedLinkReferences": {}
}