{
  "_format": "hh-sol-artifact-1",
  "contractName": "Solaris",
  "sourceName": "contracts/nfts/Solaris.sol",
  "abi": [
    {
      "anonymous": false,
      "inputs": [
        {
          "indexed": true,
          "internalType": "address",
          "name": "owner",
          "type": "address"
        },
        {
          "indexed": true,
          "internalType": "address",
          "name": "approved",
          "type": "address"
        },
        {
          "indexed": true,
          "internalType": "uint256",
          "name": "tokenId",
          "type": "uint256"
        }
      ],
      "name": "Approval",
      "type": "event"
    },
    {
      "anonymous": false,
      "inputs": [
        {
          "indexed": true,
          "internalType": "address",
          "name": "owner",
          "type": "address"
        },
        {
          "indexed": true,
          "internalType": "address",
          "name": "operator",
          "type": "address"
        },
        {
          "indexed": false,
          "internalType": "bool",
          "name": "approved",
          "type": "bool"
        }
      ],
      "name": "ApprovalForAll",
      "type": "event"
    },
    {
      "anonymous": false,
      "inputs": [
        {
          "indexed": true,
          "internalType": "address",
          "name": "reserver",
          "type": "address"
        },
        {
          "indexed": true,
          "internalType": "uint256",
          "name": "tokenId",
          "type": "uint256"
        },
        {
          "indexed": true,
          "internalType": "address",
          "name": "owner",
          "type": "address"
        },
        {
          "indexed": false,
          "internalType": "uint256",
          "name": "blockNumber",
          "type": "uint256"
        }
      ],
      "name": "Claim",
      "type": "event"
    },
    {
      "anonymous": false,
      "inputs": [
        {
          "indexed": false,
          "internalType": "uint8",
          "name": "version",
          "type": "uint8"
        }
      ],
      "name": "Initialized",
      "type": "event"
    },
    {
      "anonymous": false,
      "inputs": [
        {
          "indexed": true,
          "internalType": "address",
          "name": "previousOwner",
          "type": "address"
        },
        {
          "indexed": true,
          "internalType": "address",
          "name": "newOwner",
          "type": "address"
        }
      ],
      "name": "OwnershipTransferred",
      "type": "event"
    },
    {
      "anonymous": false,
      "inputs": [
        {
          "indexed": false,
          "internalType": "address",
          "name": "account",
          "type": "address"
        }
      ],
      "name": "Paused",
      "type": "event"
    },
    {
      "anonymous": false,
      "inputs": [
        {
          "indexed": true,
          "internalType": "address",
          "name": "reserver",
          "type": "address"
        },
        {
          "indexed": true,
          "internalType": "uint256",
          "name": "tokenId",
          "type": "uint256"
        },
        {
          "indexed": true,
          "internalType": "address",
          "name": "owner",
          "type": "address"
        },
        {
          "indexed": false,
          "internalType": "uint256",
          "name": "blockNumber",
          "type": "uint256"
        }
      ],
      "name": "Reserve",
      "type": "event"
    },
    {
      "anonymous": false,
      "inputs": [
        {
          "indexed": true,
          "internalType": "address",
          "name": "from",
          "type": "address"
        },
        {
          "indexed": true,
          "internalType": "address",
          "name": "to",
          "type": "address"
        },
        {
          "indexed": true,
          "internalType": "uint256",
          "name": "tokenId",
          "type": "uint256"
        }
      ],
      "name": "Transfer",
      "type": "event"
    },
    {
      "anonymous": false,
      "inputs": [
        {
          "indexed": false,
          "internalType": "address",
          "name": "account",
          "type": "address"
        }
      ],
      "name": "Unpaused",
      "type": "event"
    },
    {
      "inputs": [],
      "name": "_admin",
      "outputs": [
        {
          "internalType": "address",
          "name": "",
          "type": "address"
        }
      ],
      "stateMutability": "view",
      "type": "function"
    },
    {
      "inputs": [],
      "name": "_bfs",
      "outputs": [
        {
          "internalType": "address",
          "name": "",
          "type": "address"
        }
      ],
      "stateMutability": "view",
      "type": "function"
    },
    {
      "inputs": [],
      "name": "_brc20Token",
      "outputs": [
        {
          "internalType": "address",
          "name": "",
          "type": "address"
        }
      ],
      "stateMutability": "view",
      "type": "function"
    },
    {
      "inputs": [],
      "name": "_maxSupply",
      "outputs": [
        {
          "internalType": "uint256",
          "name": "",
          "type": "uint256"
        }
      ],
      "stateMutability": "view",
      "type": "function"
    },
    {
      "inputs": [],
      "name": "_paramsAddress",
      "outputs": [
        {
          "internalType": "address",
          "name": "",
          "type": "address"
        }
      ],
      "stateMutability": "view",
      "type": "function"
    },
    {
      "inputs": [],
      "name": "_randomizerAddr",
      "outputs": [
        {
          "internalType": "address",
          "name": "",
          "type": "address"
        }
      ],
      "stateMutability": "view",
      "type": "function"
    },
    {
      "inputs": [
        {
          "internalType": "uint256",
          "name": "",
          "type": "uint256"
        },
        {
          "internalType": "address",
          "name": "",
          "type": "address"
        }
      ],
      "name": "_reservations",
      "outputs": [
        {
          "internalType": "uint256",
          "name": "",
          "type": "uint256"
        }
      ],
      "stateMutability": "view",
      "type": "function"
    },
    {
      "inputs": [],
      "name": "_script",
      "outputs": [
        {
          "internalType": "string",
          "name": "",
          "type": "string"
        }
      ],
      "stateMutability": "view",
      "type": "function"
    },
    {
      "inputs": [
        {
          "internalType": "address",
          "name": "to",
          "type": "address"
        },
        {
          "internalType": "uint256",
          "name": "tokenId",
          "type": "uint256"
        }
      ],
      "name": "approve",
      "outputs": [],
      "stateMutability": "nonpayable",
      "type": "function"
    },
    {
      "inputs": [
        {
          "internalType": "address",
          "name": "owner",
          "type": "address"
        }
      ],
      "name": "balanceOf",
      "outputs": [
        {
          "internalType": "uint256",
          "name": "",
          "type": "uint256"
        }
      ],
      "stateMutability": "view",
      "type": "function"
    },
    {
      "inputs": [
        {
          "internalType": "address",
          "name": "to",
          "type": "address"
        },
        {
          "internalType": "uint256",
          "name": "n",
          "type": "uint256"
        }
      ],
      "name": "batchMint",
      "outputs": [
        {
          "internalType": "uint256[]",
          "name": "",
          "type": "uint256[]"
        }
      ],
      "stateMutability": "payable",
      "type": "function"
    },
    {
      "inputs": [
        {
          "internalType": "address",
          "name": "newAdm",
          "type": "address"
        }
      ],
      "name": "changeAdmin",
      "outputs": [],
      "stateMutability": "nonpayable",
      "type": "function"
    },
    {
      "inputs": [
        {
          "internalType": "address",
          "name": "newBfs",
          "type": "address"
        }
      ],
      "name": "changeBfs",
      "outputs": [],
      "stateMutability": "nonpayable",
      "type": "function"
    },
    {
      "inputs": [
        {
          "internalType": "address",
          "name": "newBrc20",
          "type": "address"
        }
      ],
      "name": "changeBrc20Token",
      "outputs": [],
      "stateMutability": "nonpayable",
      "type": "function"
    },
    {
      "inputs": [
        {
          "internalType": "address",
          "name": "newAddr",
          "type": "address"
        }
      ],
      "name": "changeParamAddr",
      "outputs": [],
      "stateMutability": "nonpayable",
      "type": "function"
    },
    {
      "inputs": [
        {
          "internalType": "address",
          "name": "newAddr",
          "type": "address"
        }
      ],
      "name": "changeRandomizerAddr",
      "outputs": [],
      "stateMutability": "nonpayable",
      "type": "function"
    },
    {
      "inputs": [
        {
          "internalType": "string",
          "name": "newScript",
          "type": "string"
        }
      ],
      "name": "changeScript",
      "outputs": [],
      "stateMutability": "nonpayable",
      "type": "function"
    },
    {
      "inputs": [
        {
          "internalType": "uint256",
          "name": "tokenId",
          "type": "uint256"
        }
      ],
      "name": "claim",
      "outputs": [],
      "stateMutability": "payable",
      "type": "function"
    },
    {
      "inputs": [
        {
          "internalType": "uint256",
          "name": "tokenId",
          "type": "uint256"
        }
      ],
      "name": "claimable",
      "outputs": [
        {
          "internalType": "bool",
          "name": "",
          "type": "bool"
        }
      ],
      "stateMutability": "view",
      "type": "function"
    },
    {
      "inputs": [
        {
          "internalType": "uint256",
          "name": "tokenId",
          "type": "uint256"
        }
      ],
      "name": "getApproved",
      "outputs": [
        {
          "internalType": "address",
          "name": "",
          "type": "address"
        }
      ],
      "stateMutability": "view",
      "type": "function"
    },
    {
      "inputs": [
        {
          "internalType": "string",
          "name": "name",
          "type": "string"
        },
        {
          "internalType": "string",
          "name": "symbol",
          "type": "string"
        },
        {
          "internalType": "address",
          "name": "admin",
          "type": "address"
        },
        {
          "internalType": "address",
          "name": "paramsAddress",
          "type": "address"
        },
        {
          "internalType": "address",
          "name": "randomizerAddr",
          "type": "address"
        },
        {
          "internalType": "address",
          "name": "gmToken",
          "type": "address"
        }
      ],
      "name": "initialize",
      "outputs": [],
      "stateMutability": "nonpayable",
      "type": "function"
    },
    {
      "inputs": [
        {
          "internalType": "address",
          "name": "owner",
          "type": "address"
        },
        {
          "internalType": "address",
          "name": "operator",
          "type": "address"
        }
      ],
      "name": "isApprovedForAll",
      "outputs": [
        {
          "internalType": "bool",
          "name": "",
          "type": "bool"
        }
      ],
      "stateMutability": "view",
      "type": "function"
    },
    {
      "inputs": [
        {
          "internalType": "address",
          "name": "to",
          "type": "address"
        }
      ],
      "name": "mint",
      "outputs": [
        {
          "internalType": "uint256",
          "name": "tokenId",
          "type": "uint256"
        }
      ],
      "stateMutability": "payable",
      "type": "function"
    },
    {
      "inputs": [],
      "name": "name",
      "outputs": [
        {
          "internalType": "string",
          "name": "",
          "type": "string"
        }
      ],
      "stateMutability": "view",
      "type": "function"
    },
    {
      "inputs": [],
      "name": "owner",
      "outputs": [
        {
          "internalType": "address",
          "name": "",
          "type": "address"
        }
      ],
      "stateMutability": "view",
      "type": "function"
    },
    {
      "inputs": [
        {
          "internalType": "uint256",
          "name": "tokenId",
          "type": "uint256"
        }
      ],
      "name": "ownerOf",
      "outputs": [
        {
          "internalType": "address",
          "name": "",
          "type": "address"
        }
      ],
      "stateMutability": "view",
      "type": "function"
    },
    {
      "inputs": [],
      "name": "p5jsScript",
      "outputs": [
        {
          "internalType": "string",
          "name": "result",
          "type": "string"
        }
      ],
      "stateMutability": "view",
      "type": "function"
    },
    {
      "inputs": [],
      "name": "paused",
      "outputs": [
        {
          "internalType": "bool",
          "name": "",
          "type": "bool"
        }
      ],
      "stateMutability": "view",
      "type": "function"
    },
    {
      "inputs": [],
      "name": "renounceOwnership",
      "outputs": [],
      "stateMutability": "nonpayable",
      "type": "function"
    },
    {
      "inputs": [
        {
          "internalType": "uint256",
          "name": "tokenId",
          "type": "uint256"
        }
      ],
      "name": "reserve",
      "outputs": [],
      "stateMutability": "payable",
      "type": "function"
    },
    {
      "inputs": [
        {
          "internalType": "uint256",
          "name": "projectId",
          "type": "uint256"
        },
        {
          "internalType": "uint256",
          "name": "_salePrice",
          "type": "uint256"
        }
      ],
      "name": "royaltyInfo",
      "outputs": [
        {
          "internalType": "address",
          "name": "receiver",
          "type": "address"
        },
        {
          "internalType": "uint256",
          "name": "royaltyAmount",
          "type": "uint256"
        }
      ],
      "stateMutability": "view",
      "type": "function"
    },
    {
      "inputs": [
        {
          "internalType": "address",
          "name": "from",
          "type": "address"
        },
        {
          "internalType": "address",
          "name": "to",
          "type": "address"
        },
        {
          "internalType": "uint256",
          "name": "tokenId",
          "type": "uint256"
        }
      ],
      "name": "safeTransferFrom",
      "outputs": [],
      "stateMutability": "nonpayable",
      "type": "function"
    },
    {
      "inputs": [
        {
          "internalType": "address",
          "name": "from",
          "type": "address"
        },
        {
          "internalType": "address",
          "name": "to",
          "type": "address"
        },
        {
          "internalType": "uint256",
          "name": "tokenId",
          "type": "uint256"
        },
        {
          "internalType": "bytes",
          "name": "data",
          "type": "bytes"
        }
      ],
      "name": "safeTransferFrom",
      "outputs": [],
      "stateMutability": "nonpayable",
      "type": "function"
    },
    {
      "inputs": [
        {
          "internalType": "address",
          "name": "operator",
          "type": "address"
        },
        {
          "internalType": "bool",
          "name": "approved",
          "type": "bool"
        }
      ],
      "name": "setApprovalForAll",
      "outputs": [],
      "stateMutability": "nonpayable",
      "type": "function"
    },
    {
      "inputs": [
        {
          "internalType": "bytes4",
          "name": "interfaceId",
          "type": "bytes4"
        }
      ],
      "name": "supportsInterface",
      "outputs": [
        {
          "internalType": "bool",
          "name": "",
          "type": "bool"
        }
      ],
      "stateMutability": "view",
      "type": "function"
    },
    {
      "inputs": [],
      "name": "symbol",
      "outputs": [
        {
          "internalType": "string",
          "name": "",
          "type": "string"
        }
      ],
      "stateMutability": "view",
      "type": "function"
    },
    {
      "inputs": [
        {
          "internalType": "bytes32",
          "name": "seed",
          "type": "bytes32"
        },
        {
          "internalType": "uint256",
          "name": "tokenId",
          "type": "uint256"
        }
      ],
      "name": "tokenHTML",
      "outputs": [
        {
          "internalType": "string",
          "name": "result",
          "type": "string"
        }
      ],
      "stateMutability": "view",
      "type": "function"
    },
    {
      "inputs": [
        {
          "internalType": "uint256",
          "name": "tokenId",
          "type": "uint256"
        }
      ],
      "name": "tokenIdToHash",
      "outputs": [
        {
          "internalType": "bytes32",
          "name": "",
          "type": "bytes32"
        }
      ],
      "stateMutability": "view",
      "type": "function"
    },
    {
      "inputs": [
        {
          "internalType": "uint256",
          "name": "tokenId",
          "type": "uint256"
        }
      ],
      "name": "tokenURI",
      "outputs": [
        {
          "internalType": "string",
          "name": "result",
          "type": "string"
        }
      ],
      "stateMutability": "view",
      "type": "function"
    },
    {
      "inputs": [
        {
          "internalType": "address",
          "name": "from",
          "type": "address"
        },
        {
          "internalType": "address",
          "name": "to",
          "type": "address"
        },
        {
          "internalType": "uint256",
          "name": "tokenId",
          "type": "uint256"
        }
      ],
      "name": "transferFrom",
      "outputs": [],
      "stateMutability": "nonpayable",
      "type": "function"
    },
    {
      "inputs": [
        {
          "internalType": "address",
          "name": "newOwner",
          "type": "address"
        }
      ],
      "name": "transferOwnership",
      "outputs": [],
      "stateMutability": "nonpayable",
      "type": "function"
    },
    {
      "inputs": [
        {
          "internalType": "bytes32",
          "name": "seed",
          "type": "bytes32"
        },
        {
          "internalType": "uint256",
          "name": "tokenId",
          "type": "uint256"
        }
      ],
      "name": "variableScript",
      "outputs": [
        {
          "internalType": "string",
          "name": "result",
          "type": "string"
        }
      ],
      "stateMutability": "view",
      "type": "function"
    },
    {
      "inputs": [],
      "name": "web3Script",
      "outputs": [
        {
          "internalType": "string",
          "name": "result",
          "type": "string"
        }
      ],
      "stateMutability": "view",
      "type": "function"
    }
  ],
  "bytecode": "0x608060405234801561001057600080fd5b5061479e806100206000396000f3fe60806040526004361061025c5760003560e01c80636a62784211610144578063a22cb465116100b6578063d1d58b251161007a578063d1d58b251461070d578063e56f2fe41461072d578063e985e9c51461074d578063eb29c23214610796578063f2fde38b146107b6578063febfd6c3146107d657600080fd5b8063a22cb46514610653578063adfc7dae14610673578063b88d4fde14610694578063bd5b4fa1146106b4578063c87b56dd146106ed57600080fd5b80638a016249116101085780638a016249146105b55780638da5cb5b146105ca5780638f283970146105e957806393c6cdc01461060957806395d89b4114610629578063a0d41e111461063e57600080fd5b80636a6278421461054557806370a0823114610558578063715018a61461057857806374973a411461058d578063819b25ba146105a257600080fd5b80632a55205a116101dd57806342842e0e116101a157806342842e0e1461048c57806343508b05146104ac5780635c975abb146104cc578063621a1f74146104e45780636352211e1461050457806366215eb41461052457600080fd5b80632a55205a146103d95780632b7d13de1461041857806332e32326146104385780633334897914610458578063379607f51461047957600080fd5b8063140f0e0711610224578063140f0e07146103335780631ca9741b1461035357806322f4596f1461037357806323b872dd14610398578063254c0d4d146103b857600080fd5b806301bc45c91461026157806301ffc9a71461029f57806306fdde03146102cf578063081812fc146102f1578063095ea7b314610311575b600080fd5b34801561026d57600080fd5b5061015f54610282906001600160a01b031681565b6040516001600160a01b0390911681526020015b60405180910390f35b3480156102ab57600080fd5b506102bf6102ba36600461396e565b6107f6565b6040519015158152602001610296565b3480156102db57600080fd5b506102e4610848565b60405161029691906139e3565b3480156102fd57600080fd5b5061028261030c3660046139f6565b6108da565b34801561031d57600080fd5b5061033161032c366004613a24565b610901565b005b34801561033f57600080fd5b5061033161034e366004613b1d565b610a1c565b34801561035f57600080fd5b5061033161036e366004613b52565b610a7c565b34801561037f57600080fd5b5061038a6101655481565b604051908152602001610296565b3480156103a457600080fd5b506103316103b3366004613b6f565b610b10565b3480156103c457600080fd5b5061016454610282906001600160a01b031681565b3480156103e557600080fd5b506103f96103f4366004613bb0565b610c9f565b604080516001600160a01b039093168352602083019190915201610296565b34801561042457600080fd5b50610331610433366004613b52565b610cd0565b34801561044457600080fd5b506102e4610453366004613bb0565b610d65565b34801561046457600080fd5b5061016854610282906001600160a01b031681565b6103316104873660046139f6565b610f22565b34801561049857600080fd5b506103316104a7366004613b6f565b61105a565b6104bf6104ba366004613a24565b611075565b6040516102969190613bd2565b3480156104d857600080fd5b5060975460ff166102bf565b3480156104f057600080fd5b5061038a6104ff3660046139f6565b611121565b34801561051057600080fd5b5061028261051f3660046139f6565b6111ef565b34801561053057600080fd5b5061016154610282906001600160a01b031681565b61038a610553366004613b52565b61120b565b34801561056457600080fd5b5061038a610573366004613b52565b611359565b34801561058457600080fd5b506103316113df565b34801561059957600080fd5b506102e46113f3565b6103316105b03660046139f6565b61164d565b3480156105c157600080fd5b506102e4611785565b3480156105d657600080fd5b5061012d546001600160a01b0316610282565b3480156105f557600080fd5b50610331610604366004613b52565b611814565b34801561061557600080fd5b50610331610624366004613b52565b6118a9565b34801561063557600080fd5b506102e461193e565b34801561064a57600080fd5b506102e461194d565b34801561065f57600080fd5b5061033161066e366004613c16565b611b7e565b34801561067f57600080fd5b5061016054610282906001600160a01b031681565b3480156106a057600080fd5b506103316106af366004613c54565b611b89565b3480156106c057600080fd5b5061038a6106cf366004613cd4565b61016660209081526000928352604080842090915290825290205481565b3480156106f957600080fd5b506102e46107083660046139f6565b611d1f565b34801561071957600080fd5b506102bf6107283660046139f6565b611ffd565b34801561073957600080fd5b50610331610748366004613cf9565b61205d565b34801561075957600080fd5b506102bf610768366004613da8565b6001600160a01b039182166000908152606a6020908152604080832093909416825291909152205460ff1690565b3480156107a257600080fd5b506102e46107b1366004613bb0565b612267565b3480156107c257600080fd5b506103316107d1366004613b52565b612339565b3480156107e257600080fd5b506103316107f1366004613b52565b6123af565b60006001600160e01b031982166380ac58cd60e01b148061082757506001600160e01b03198216635b5e139f60e01b145b8061084257506301ffc9a760e01b6001600160e01b03198316145b92915050565b60606065805461085790613dd6565b80601f016020809104026020016040519081016040528092919081815260200182805461088390613dd6565b80156108d05780601f106108a5576101008083540402835291602001916108d0565b820191906000526020600020905b8154815290600101906020018083116108b357829003601f168201915b5050505050905090565b60006108e582612444565b506000908152606960205260409020546001600160a01b031690565b600061090c82612494565b9050806001600160a01b0316836001600160a01b0316141561097f5760405162461bcd60e51b815260206004820152602160248201527f4552433732313a20617070726f76616c20746f2063757272656e74206f776e656044820152603960f91b60648201526084015b60405180910390fd5b336001600160a01b038216148061099b575061099b8133610768565b610a0d5760405162461bcd60e51b815260206004820152603d60248201527f4552433732313a20617070726f76652063616c6c6572206973206e6f7420746f60448201527f6b656e206f776e6572206f7220617070726f76656420666f7220616c6c0000006064820152608401610976565b610a1783836124f4565b505050565b61015f5460408051808201909152600381526231303160e81b6020820152906001600160a01b03163314610a635760405162461bcd60e51b815260040161097691906139e3565b508051610a78906101639060208401906138bf565b5050565b61015f546001600160a01b031633148015610a9f57506001600160a01b03811615155b6040518060400160405280600381526020016231303160e81b81525090610ad95760405162461bcd60e51b815260040161097691906139e3565b50610161546001600160a01b03828116911614610b0d5761016180546001600160a01b0319166001600160a01b0383161790555b50565b336001600160a01b0384161415610b75576000610b2c33612562565b90506000610b386125db565b905080821015610b6e5760405162461bcd60e51b81526020600482015260016024820152601560fa1b6044820152606401610976565b5050610c94565b333b63ffffffff1615610bf757610b8c3382612681565b610ba85760405162461bcd60e51b815260040161097690613e11565b6000610bb384612562565b90506000610bbf6125db565b905080821015610b6e5760405162461bcd60e51b8152602060048201526003602482015262545f3160e81b6044820152606401610976565b610c0081611ffd565b610c355760405162461bcd60e51b815260040161097690602080825260049082015263272fa19960e11b604082015260600190565b6000610c3f6126ea565b6000838152610166602090815260408083203384529091529020549091508015801590610c75575081610c728243613e74565b10155b610c915760405162461bcd60e51b815260040161097690613e8b565b50505b610a17838383612788565b61015f546001600160a01b03166000612710610cbd846101f4613eab565b610cc79190613eca565b90509250929050565b61015f546001600160a01b031633148015610cf357506001600160a01b03811615155b6040518060400160405280600381526020016231303160e81b81525090610d2d5760405162461bcd60e51b815260040161097691906139e3565b50610168546001600160a01b03828116911614610b0d5761016880546001600160a01b0383166001600160a01b031990911617905550565b6040805180820190915260128152711e39b1b934b83a1034b21e93bb30b939939f60711b602082015280610d98846127c3565b604051602001610da9929190613f08565b60408051601f19818403018152919052610164549091508190610dd4906001600160a01b031661280f565b604051602001610de5929190613f5a565b60408051808303601f19018152908290526101605463bf40fac160e01b835260206004840152602160248401527f535741505f504f4f4c5f474d5f4554485f434f4e54524143545f4144445245536044840152605360f81b60648401529092506001600160a01b031690600090829063bf40fac190608401602060405180830381865afa158015610e7a573d6000803e3d6000fd5b505050506040513d601f19601f82011682018060405250810190610e9e9190613fc0565b905082610eaa8261280f565b604051602001610ebb929190613fdd565b604051602081830303815290604052925082610ed63061280f565b604051602001610ee7929190614053565b604051602081830303815290604052925082604051602001610f0991906140b9565b6040516020818303038152906040529250505092915050565b610f2a612825565b610f3381611ffd565b610f685760405162461bcd60e51b8152600401610976906020808252600490820152634e5f433160e01b604082015260600190565b6000610f726126ea565b6000838152610166602090815260408083203384529091529020549091508015801590610fa8575081610fa58243613e74565b10155b610fc45760405162461bcd60e51b815260040161097690613e8b565b6000610fcf846111ef565b9050610fdc813386612788565b600084815261016660209081526040808320338452909152812055611000846111ef565b6001600160a01b031684336001600160a01b03167fad03f837a9207e368d73ec028e1f54428184da8cfea258cc116da2225f3ac5eb4360405161104591815260200190565b60405180910390a4505050610b0d600160fb55565b610a1783838360405180602001604052806000815250611b89565b606060008267ffffffffffffffff81111561109257611092613a50565b6040519080825280602002602001820160405280156110bb578160200160208202803683370190505b50905060005b838110156111195760006110d48661120b565b9050808383815181106110e9576110e96140e6565b60200260200101818152505062030d405a10156111065750611119565b5080611111816140fc565b9150506110c1565b509392505050565b600061112c82612886565b6040518060400160405280600381526020016232303960e81b815250906111665760405162461bcd60e51b815260040161097691906139e3565b5060008281526101676020526040902054600160a01b900460a01b6001600160a01b03191661119757506000919050565b600082815261016760209081526040918290205491516111d292600160a01b900460a01b91016001600160a01b031991909116815260200190565b604051602081830303815290604052805190602001209050919050565b600090815261016760205260409020546001600160a01b031690565b6000611215612825565b6101655461016254106040518060400160405280600381526020016232303360e81b815250906112585760405162461bcd60e51b815260040161097691906139e3565b5061015f5460408051808201909152600381526231303160e81b6020820152906001600160a01b031633146112a05760405162461bcd60e51b815260040161097691906139e3565b5061016280549060006112b2836140fc565b91905055506101625490506112c782826128a4565b61016154604051631da00d8560e01b8152600481018390526001600160a01b03909116906000908290631da00d85906024016020604051808303816000875af1158015611318573d6000803e3d6000fd5b505050506040513d601f19601f8201168201806040525081019061133c9190614117565b905061134883826128be565b5050611354600160fb55565b919050565b60006001600160a01b0382166113c35760405162461bcd60e51b815260206004820152602960248201527f4552433732313a2061646472657373207a65726f206973206e6f7420612076616044820152683634b21037bbb732b960b91b6064820152608401610976565b506001600160a01b031660009081526068602052604090205490565b6113e7612989565b6113f160006129e4565b565b60606040518060600160405280603781526020016147326037913961016854604080518082018252600d81526c70356a7340312e352e302e6a7360981b602082015261016054915163bf40fac160e01b81529394506001600160a01b039283169390929190911690600090829063bf40fac190611496906004016020808252600f908201526e29a1a924a82a2fa82927ab24a222a960891b604082015260600190565b602060405180830381865afa1580156114b3573d6000803e3d6000fd5b505050506040513d601f19601f820116820180604052508101906114d79190613fc0565b90506000846001600160a01b031663ba67e64183866040518363ffffffff1660e01b8152600401611509929190614130565b602060405180830381865afa158015611526573d6000803e3d6000fd5b505050506040513d601f19601f8201168201806040525081019061154a9190614117565b9050611557600182614154565b905060005b818110156116225761015f5460405163283959d960e21b815260009182916001600160a01b038a81169263a0e56764926115a092909116908b90889060040161416c565b600060405180830381865afa1580156115bd573d6000803e3d6000fd5b505050506040513d6000823e601f3d908101601f191682016040526115e591908101906141d0565b9150915088826040516020016115fc92919061422b565b60405160208183030381529060405298505050808061161a906140fc565b91505061155c565b508560405160200161163491906140b9565b6040516020818303038152906040529550505050505090565b611655612825565b61165e81611ffd565b6116935760405162461bcd60e51b81526004016109769060208082526004908201526304e5f43360e41b604082015260600190565b600061169d6126ea565b6000838152610166602090815260408083203384529091529020549091508015806116d15750816116ce8243613e74565b10155b6117065760405162461bcd60e51b81526020600482015260066024820152654e5f43305f3160d01b6044820152606401610976565b600083815261016660209081526040808320338452909152902043905561172c836111ef565b6001600160a01b031683336001600160a01b03167f6f8d4fbb9604038077481649590dd5ddb6c97e7236b4b644b44084733d5f85604360405161177191815260200190565b60405180910390a45050610b0d600160fb55565b610163805461179390613dd6565b80601f01602080910402602001604051908101604052809291908181526020018280546117bf90613dd6565b801561180c5780601f106117e15761010080835404028352916020019161180c565b820191906000526020600020905b8154815290600101906020018083116117ef57829003601f168201915b505050505081565b61015f546001600160a01b03163314801561183757506001600160a01b03811615155b6040518060400160405280600381526020016231303160e81b815250906118715760405162461bcd60e51b815260040161097691906139e3565b5061015f546001600160a01b03828116911614610b0d5761015f80546001600160a01b0383166001600160a01b031990911617905550565b61015f546001600160a01b0316331480156118cc57506001600160a01b03811615155b6040518060400160405280600381526020016231303160e81b815250906119065760405162461bcd60e51b815260040161097691906139e3565b50610164546001600160a01b03828116911614610b0d5761016480546001600160a01b0383166001600160a01b031990911617905550565b60606066805461085790613dd6565b60606040518060600160405280603781526020016147326037913961016854604080518082018252600f81526e776562336a7340312e322e372e6a7360881b602082015261016054915163bf40fac160e01b81529394506001600160a01b039283169390929190911690600090829063bf40fac1906119f2906004016020808252600f908201526e29a1a924a82a2fa82927ab24a222a960891b604082015260600190565b602060405180830381865afa158015611a0f573d6000803e3d6000fd5b505050506040513d601f19601f82011682018060405250810190611a339190613fc0565b90506000846001600160a01b031663ba67e64183866040518363ffffffff1660e01b8152600401611a65929190614130565b602060405180830381865afa158015611a82573d6000803e3d6000fd5b505050506040513d601f19601f82011682018060405250810190611aa69190614117565b9050611ab3600182614154565b905060005b818110156116225761015f5460405163283959d960e21b815260009182916001600160a01b038a81169263a0e5676492611afc92909116908b90889060040161416c565b600060405180830381865afa158015611b19573d6000803e3d6000fd5b505050506040513d6000823e601f3d908101601f19168201604052611b4191908101906141d0565b915091508882604051602001611b5892919061422b565b604051602081830303815290604052985050508080611b76906140fc565b915050611ab8565b610a78338383612a37565b336001600160a01b0385161415611bee576000611ba533612562565b90506000611bb16125db565b905080821015611be75760405162461bcd60e51b81526020600482015260016024820152601560fa1b6044820152606401610976565b5050611d0d565b333b63ffffffff1615611c7057611c053383612681565b611c215760405162461bcd60e51b815260040161097690613e11565b6000611c2c85612562565b90506000611c386125db565b905080821015611be75760405162461bcd60e51b8152602060048201526003602482015262545f3160e81b6044820152606401610976565b611c7982611ffd565b611cae5760405162461bcd60e51b815260040161097690602080825260049082015263272fa19960e11b604082015260600190565b6000611cb86126ea565b6000848152610166602090815260408083203384529091529020549091508015801590611cee575081611ceb8243613e74565b10155b611d0a5760405162461bcd60e51b815260040161097690613e8b565b50505b611d1984848484612b06565b50505050565b6060611d2a82612886565b6040518060400160405280600381526020016232303960e81b81525090611d645760405162461bcd60e51b815260040161097691906139e3565b5060405163188687dd60e21b815260048101839052600090309063621a1f7490602401602060405180830381865afa158015611da4573d6000803e3d6000fd5b505050506040513d601f19601f82011682018060405250810190611dc89190614117565b61016054604051637594e11960e11b815260048101839052602481018690529192506001600160a01b031690600090309063eb29c23290604401600060405180830381865afa158015611e1f573d6000803e3d6000fd5b505050506040513d6000823e601f3d908101601f19168201604052611e47919081019061425a565b9050611e7b6040518060a0016040528060608152602001606081526020016060815260200160608152602001606081525090565b81604051602001611e8c91906142a3565b60408051601f19818403018152918152606083019190915280518082018252600e81526d109054d157d5549257d51490525560921b6020820152905163349f642f60e11b81526001600160a01b0385169163693ec85e91611ef091906004016139e3565b600060405180830381865afa158015611f0d573d6000803e3d6000fd5b505050506040513d6000823e601f3d908101601f19168201604052611f35919081019061425a565b60408201819052611f453061280f565b611f4e88612b39565b611f57876127c3565b604051602001611f6a94939291906142ea565b6040516020818303038152906040528160400181905250611fd38160000151611fb58360200151604051602001611fa1919061436c565b604051602081830303815290604052612bce565b60408085015160608601519151611fa1949392908290602001614388565b604051602001611fe391906144a8565b604051602081830303815290604052945050505050919050565b600080612009836111ef565b9050600061201682612562565b9050600061202333612562565b9050600061202f6125db565b905080831080156120405750808210155b156120515750600195945050505050565b50600095945050505050565b600054610100900460ff161580801561207d5750600054600160ff909116105b806120975750303b158015612097575060005460ff166001145b6120fa5760405162461bcd60e51b815260206004820152602e60248201527f496e697469616c697a61626c653a20636f6e747261637420697320616c72656160448201526d191e481a5b9a5d1a585b1a5e995960921b6064820152608401610976565b6000805460ff19166001179055801561211d576000805461ff0019166101001790555b60408051808201909152600381526203130360ec1b60208201526001600160a01b03861661215e5760405162461bcd60e51b815260040161097691906139e3565b5060408051808201909152600381526203130360ec1b60208201526001600160a01b0385166121a05760405162461bcd60e51b815260040161097691906139e3565b5061016080546001600160a01b038087166001600160a01b03199283161790925561015f805488841690831617905561016180548684169083161790556101648054928516929091169190911790556103e8610165556122008787612d34565b612208612d65565b612210612d94565b612218612dc3565b801561225e576000805461ff0019169055604051600181527f7f26b83ff96e1f2b6a682f133852f6798a09c465da95921460cefb38474024989060200160405180910390a15b50505050505050565b60408051808201909152600c81526b1e343a36b61f1e3432b0b21f60a11b6020820152806122936113f3565b6040516020016122a492919061422b565b6040516020818303038152906040529050806122be61194d565b6040516020016122cf92919061422b565b6040516020818303038152906040529050806122eb8484610d65565b6040516020016122fc92919061422b565b6040516020818303038152906040529050806101636040516020016123229291906144ed565b604051602081830303815290604052905092915050565b612341612989565b6001600160a01b0381166123a65760405162461bcd60e51b815260206004820152602660248201527f4f776e61626c653a206e6577206f776e657220697320746865207a65726f206160448201526564647265737360d01b6064820152608401610976565b610b0d816129e4565b61015f546001600160a01b0316331480156123d257506001600160a01b03811615155b6040518060400160405280600381526020016231303160e81b8152509061240c5760405162461bcd60e51b815260040161097691906139e3565b50610160546001600160a01b03828116911614610b0d5761016080546001600160a01b0383166001600160a01b031990911617905550565b61244d81612886565b610b0d5760405162461bcd60e51b8152602060048201526018602482015277115490cdcc8c4e881a5b9d985b1a59081d1bdad95b88125160421b6044820152606401610976565b6000818152606760205260408120546001600160a01b0316806108425760405162461bcd60e51b8152602060048201526018602482015277115490cdcc8c4e881a5b9d985b1a59081d1bdad95b88125160421b6044820152606401610976565b600081815260696020526040902080546001600160a01b0319166001600160a01b038416908117909155819061252982612494565b6001600160a01b03167f8c5be1e5ebec7d5bd14f71427d1e84f3dd0314c0f7b2291e5b200ac8c7c3b92560405160405180910390a45050565b610164546040516370a0823160e01b81526001600160a01b038381166004830152600092169081906370a0823190602401602060405180830381865afa1580156125b0573d6000803e3d6000fd5b505050506040513d601f19601f820116820180604052508101906125d49190614117565b9392505050565b61016054604051636d12dce160e01b815260206004820152600c60248201526b11d357d512149154d213d31160a21b60448201526000916001600160a01b03169082908290636d12dce190606401602060405180830381865afa158015612646573d6000803e3d6000fd5b505050506040513d601f19601f8201168201806040525081019061266a9190614117565b9050806108425750670de0b6b3a764000092915050565b60008061268d836111ef565b9050806001600160a01b0316846001600160a01b0316146126d85760006126b382612562565b905060006126bf6125db565b9050808210156126d55760009350505050610842565b50505b6126e28484612df2565b949350505050565b61016054604051636d12dce160e01b815260206004820152600a602482015269474d5f5245534552564560b01b60448201526000916001600160a01b03169082908290636d12dce190606401602060405180830381865afa158015612753573d6000803e3d6000fd5b505050506040513d601f19601f820116820180604052508101906127779190614117565b90508061084257506103f092915050565b612793838383612e70565b60009081526101676020526040902080546001600160a01b0319166001600160a01b039290921691909117905550565b60606127ce82612fe1565b6127db608084901b612fe1565b60405161060f60f31b6020820152602281019290925260428201526062016040516020818303038152906040529050919050565b60606108426001600160a01b0383166014613193565b600260fb5414156128785760405162461bcd60e51b815260206004820152601f60248201527f5265656e7472616e637947756172643a207265656e7472616e742063616c6c006044820152606401610976565b600260fb55565b600160fb55565b600090815261016760205260409020546001600160a01b0316151590565b610a7882826040518060200160405280600081525061332f565b60008281526101676020908152604091829020548251808401909352600383526219181b60e91b91830191909152600160a01b900460a01b6001600160a01b0319161561291e5760405162461bcd60e51b815260040161097691906139e3565b5060408051808201909152600381526232303760e81b6020820152816129575760405162461bcd60e51b815260040161097691906139e3565b5060009182526101676020526040909120805460a09290921c600160a01b026001600160a01b03909216919091179055565b61012d546001600160a01b031633146113f15760405162461bcd60e51b815260206004820181905260248201527f4f776e61626c653a2063616c6c6572206973206e6f7420746865206f776e65726044820152606401610976565b61012d80546001600160a01b038381166001600160a01b0319831681179093556040519116919082907f8be0079c531659141344cd1fd0a4f28419497f9722a3daafe3b4186f6b6457e090600090a35050565b816001600160a01b0316836001600160a01b03161415612a995760405162461bcd60e51b815260206004820152601960248201527f4552433732313a20617070726f766520746f2063616c6c6572000000000000006044820152606401610976565b6001600160a01b038381166000818152606a6020908152604080832094871680845294825291829020805460ff191686151590811790915591519182527f17307eab39ab6107e8899845ad3d59bd9653f200f220920489ca2b5937696c31910160405180910390a3505050565b612b11848484612788565b612b1d84848484613362565b611d195760405162461bcd60e51b81526004016109769061459e565b60606000612b4683613460565b600101905060008167ffffffffffffffff811115612b6657612b66613a50565b6040519080825280601f01601f191660200182016040528015612b90576020820181803683370190505b5090508181016020015b600019016f181899199a1a9b1b9c1cb0b131b232b360811b600a86061a8153600a8504945084612bc957611119565b612b9a565b6060815160001415612bee57505060408051602081019091526000815290565b60006040518060600160405280604081526020016146f26040913990506000600384516002612c1d9190614154565b612c279190613eca565b612c32906004613eab565b90506000612c41826020614154565b67ffffffffffffffff811115612c5957612c59613a50565b6040519080825280601f01601f191660200182016040528015612c83576020820181803683370190505b509050818152600183018586518101602084015b81831015612cef576003830192508251603f8160121c168501518253600182019150603f81600c1c168501518253600182019150603f8160061c168501518253600182019150603f8116850151825350600101612c97565b600389510660018114612d095760028114612d1a57612d26565b613d3d60f01b600119830152612d26565b603d60f81b6000198301525b509398975050505050505050565b600054610100900460ff16612d5b5760405162461bcd60e51b8152600401610976906145f0565b610a788282613538565b600054610100900460ff16612d8c5760405162461bcd60e51b8152600401610976906145f0565b6113f1613586565b600054610100900460ff16612dbb5760405162461bcd60e51b8152600401610976906145f0565b6113f16135ad565b600054610100900460ff16612dea5760405162461bcd60e51b8152600401610976906145f0565b6113f16135e0565b600080612dfe83612494565b9050806001600160a01b0316846001600160a01b03161480612e4557506001600160a01b038082166000908152606a602090815260408083209388168352929052205460ff165b806126e25750836001600160a01b0316612e5e846108da565b6001600160a01b031614949350505050565b826001600160a01b0316612e8382612494565b6001600160a01b031614612ea95760405162461bcd60e51b81526004016109769061463b565b6001600160a01b038216612f0b5760405162461bcd60e51b8152602060048201526024808201527f4552433732313a207472616e7366657220746f20746865207a65726f206164646044820152637265737360e01b6064820152608401610976565b612f188383836001613610565b826001600160a01b0316612f2b82612494565b6001600160a01b031614612f515760405162461bcd60e51b81526004016109769061463b565b600081815260696020908152604080832080546001600160a01b03199081169091556001600160a01b0387811680865260688552838620805460001901905590871680865283862080546001019055868652606790945282852080549092168417909155905184937fddf252ad1be2c89b69c2b068fc378daa952ba7f163c4a11628f55a4df523b3ef91a4505050565b7aff00000000000000ff00000000000000ff00000000000000ff00006bffffffff0000000000000000604083901c90811663ffffffff60c01b84161760201c63ffffffff60601b919091166001600160e01b031984161717601081901c9182167eff00000000000000ff00000000000000ff00000000000000ff000000000000821617600890811c7bff00000000000000ff00000000000000ff00000000000000ff000000939093167fff00000000000000ff00000000000000ff00000000000000ff000000000000009290921691909117919091179081901c7e0f000f000f000f000f000f000f000f000f000f000f000f000f000f000f000f167f0f000f000f000f000f000f000f000f000f000f000f000f000f000f000f000f00600492831c16179061312f827f0606060606060606060606060606060606060606060606060606060606060606614154565b901c7f0f0f0f0f0f0f0f0f0f0f0f0f0f0f0f0f0f0f0f0f0f0f0f0f0f0f0f0f0f0f0f0f16600761315f9190613eab565b613189827f3030303030303030303030303030303030303030303030303030303030303030614154565b6108429190614154565b606060006131a2836002613eab565b6131ad906002614154565b67ffffffffffffffff8111156131c5576131c5613a50565b6040519080825280601f01601f1916602001820160405280156131ef576020820181803683370190505b509050600360fc1b8160008151811061320a5761320a6140e6565b60200101906001600160f81b031916908160001a905350600f60fb1b81600181518110613239576132396140e6565b60200101906001600160f81b031916908160001a905350600061325d846002613eab565b613268906001614154565b90505b60018111156132e0576f181899199a1a9b1b9c1cb0b131b232b360811b85600f166010811061329c5761329c6140e6565b1a60f81b8282815181106132b2576132b26140e6565b60200101906001600160f81b031916908160001a90535060049490941c936132d981614680565b905061326b565b5083156125d45760405162461bcd60e51b815260206004820181905260248201527f537472696e67733a20686578206c656e67746820696e73756666696369656e746044820152606401610976565b6133398383613683565b6133466000848484613362565b610a175760405162461bcd60e51b81526004016109769061459e565b60006001600160a01b0384163b1561345557604051630a85bd0160e11b81526001600160a01b0385169063150b7a02906133a6903390899088908890600401614697565b6020604051808303816000875af19250505080156133e1575060408051601f3d908101601f191682019092526133de918101906146d4565b60015b61343b573d80801561340f576040519150601f19603f3d011682016040523d82523d6000602084013e613414565b606091505b5080516134335760405162461bcd60e51b81526004016109769061459e565b805181602001fd5b6001600160e01b031916630a85bd0160e11b1490506126e2565b506001949350505050565b60008072184f03e93ff9f4daa797ed6e38ed64bf6a1f0160401b831061349f5772184f03e93ff9f4daa797ed6e38ed64bf6a1f0160401b830492506040015b6d04ee2d6d415b85acef810000000083106134cb576d04ee2d6d415b85acef8100000000830492506020015b662386f26fc1000083106134e957662386f26fc10000830492506010015b6305f5e1008310613501576305f5e100830492506008015b612710831061351557612710830492506004015b60648310613527576064830492506002015b600a83106108425760010192915050565b600054610100900460ff1661355f5760405162461bcd60e51b8152600401610976906145f0565b81516135729060659060208501906138bf565b508051610a179060669060208401906138bf565b600054610100900460ff1661287f5760405162461bcd60e51b8152600401610976906145f0565b600054610100900460ff166135d45760405162461bcd60e51b8152600401610976906145f0565b6097805460ff19169055565b600054610100900460ff166136075760405162461bcd60e51b8152600401610976906145f0565b6113f1336129e4565b61361c848484846136bc565b60975460ff1615611d195760405162461bcd60e51b815260206004820152602b60248201527f4552433732315061757361626c653a20746f6b656e207472616e73666572207760448201526a1a1a5b19481c185d5cd95960aa1b6064820152608401610976565b61368d8282613744565b60009081526101676020526040902080546001600160a01b0319166001600160a01b0392909216919091179055565b6001811115611d19576001600160a01b03841615613702576001600160a01b038416600090815260686020526040812080548392906136fc908490613e74565b90915550505b6001600160a01b03831615611d19576001600160a01b03831660009081526068602052604081208054839290613739908490614154565b909155505050505050565b6001600160a01b03821661379a5760405162461bcd60e51b815260206004820181905260248201527f4552433732313a206d696e7420746f20746865207a65726f20616464726573736044820152606401610976565b6137a381612886565b156137f05760405162461bcd60e51b815260206004820152601c60248201527f4552433732313a20746f6b656e20616c7265616479206d696e746564000000006044820152606401610976565b6137fe600083836001613610565b61380781612886565b156138545760405162461bcd60e51b815260206004820152601c60248201527f4552433732313a20746f6b656e20616c7265616479206d696e746564000000006044820152606401610976565b6001600160a01b038216600081815260686020908152604080832080546001019055848352606790915280822080546001600160a01b0319168417905551839291907fddf252ad1be2c89b69c2b068fc378daa952ba7f163c4a11628f55a4df523b3ef908290a45050565b8280546138cb90613dd6565b90600052602060002090601f0160209004810192826138ed5760008555613933565b82601f1061390657805160ff1916838001178555613933565b82800160010185558215613933579182015b82811115613933578251825591602001919060010190613918565b5061393f929150613943565b5090565b5b8082111561393f5760008155600101613944565b6001600160e01b031981168114610b0d57600080fd5b60006020828403121561398057600080fd5b81356125d481613958565b60005b838110156139a657818101518382015260200161398e565b83811115611d195750506000910152565b600081518084526139cf81602086016020860161398b565b601f01601f19169290920160200192915050565b6020815260006125d460208301846139b7565b600060208284031215613a0857600080fd5b5035919050565b6001600160a01b0381168114610b0d57600080fd5b60008060408385031215613a3757600080fd5b8235613a4281613a0f565b946020939093013593505050565b634e487b7160e01b600052604160045260246000fd5b604051601f8201601f1916810167ffffffffffffffff81118282101715613a8f57613a8f613a50565b604052919050565b600067ffffffffffffffff821115613ab157613ab1613a50565b50601f01601f191660200190565b6000613ad2613acd84613a97565b613a66565b9050828152838383011115613ae657600080fd5b828260208301376000602084830101529392505050565b600082601f830112613b0e57600080fd5b6125d483833560208501613abf565b600060208284031215613b2f57600080fd5b813567ffffffffffffffff811115613b4657600080fd5b6126e284828501613afd565b600060208284031215613b6457600080fd5b81356125d481613a0f565b600080600060608486031215613b8457600080fd5b8335613b8f81613a0f565b92506020840135613b9f81613a0f565b929592945050506040919091013590565b60008060408385031215613bc357600080fd5b50508035926020909101359150565b6020808252825182820181905260009190848201906040850190845b81811015613c0a57835183529284019291840191600101613bee565b50909695505050505050565b60008060408385031215613c2957600080fd5b8235613c3481613a0f565b915060208301358015158114613c4957600080fd5b809150509250929050565b60008060008060808587031215613c6a57600080fd5b8435613c7581613a0f565b93506020850135613c8581613a0f565b925060408501359150606085013567ffffffffffffffff811115613ca857600080fd5b8501601f81018713613cb957600080fd5b613cc887823560208401613abf565b91505092959194509250565b60008060408385031215613ce757600080fd5b823591506020830135613c4981613a0f565b60008060008060008060c08789031215613d1257600080fd5b863567ffffffffffffffff80821115613d2a57600080fd5b613d368a838b01613afd565b97506020890135915080821115613d4c57600080fd5b50613d5989828a01613afd565b9550506040870135613d6a81613a0f565b93506060870135613d7a81613a0f565b92506080870135613d8a81613a0f565b915060a0870135613d9a81613a0f565b809150509295509295509295565b60008060408385031215613dbb57600080fd5b8235613dc681613a0f565b91506020830135613c4981613a0f565b600181811c90821680613dea57607f821691505b60208210811415613e0b57634e487b7160e01b600052602260045260246000fd5b50919050565b6020808252602d908201527f4552433732313a2063616c6c6572206973206e6f7420746f6b656e206f776e6560408201526c1c881bdc88185c1c1c9bdd9959609a1b606082015260800190565b634e487b7160e01b600052601160045260246000fd5b600082821015613e8657613e86613e5e565b500390565b6020808252600690820152654e5f43315f3160d01b604082015260600190565b6000816000190483118215151615613ec557613ec5613e5e565b500290565b600082613ee757634e487b7160e01b600052601260045260246000fd5b500490565b60008151613efe81856020860161398b565b9290920192915050565b60008351613f1a81846020880161398b565b686c657420736565643d60b81b9083019081528351613f4081600984016020880161398b565b603b60f81b60099290910191820152600a01949350505050565b60008351613f6c81846020880161398b565b7f6c657420474d5f434f4e54524143545f414444524553533d00000000000000009083019081528351613fa681601884016020880161398b565b603b60f81b60189290910191820152601901949350505050565b600060208284031215613fd257600080fd5b81516125d481613a0f565b60008351613fef81846020880161398b565b80830190507f6c657420535741505f504f4f4c5f474d5f4554485f434f4e54524143545f414481526544524553533d60d01b6020820152835161403981602684016020880161398b565b603b60f81b60269290910191820152602701949350505050565b6000835161406581846020880161398b565b7f6c657420736f6c617269734e6674436f6e7472616374416464726573733d0000908301908152835161409f81601e84016020880161398b565b603b60f81b601e9290910191820152601f01949350505050565b600082516140cb81846020870161398b565b681e17b9b1b934b83a1f60b91b920191825250600901919050565b634e487b7160e01b600052603260045260246000fd5b600060001982141561411057614110613e5e565b5060010190565b60006020828403121561412957600080fd5b5051919050565b6001600160a01b03831681526040602082018190526000906126e2908301846139b7565b6000821982111561416757614167613e5e565b500190565b6001600160a01b0384168152606060208201819052600090614190908301856139b7565b9050826040830152949350505050565b60006141ae613acd84613a97565b90508281528383830111156141c257600080fd5b6125d483602083018461398b565b600080604083850312156141e357600080fd5b825167ffffffffffffffff8111156141fa57600080fd5b8301601f8101851361420b57600080fd5b61421a858251602084016141a0565b925050602083015190509250929050565b6000835161423d81846020880161398b565b83519083019061425181836020880161398b565b01949350505050565b60006020828403121561426c57600080fd5b815167ffffffffffffffff81111561428357600080fd5b8201601f8101841361429457600080fd5b6126e2848251602084016141a0565b7216101130b734b6b0ba34b7b72fbab936111d1160691b815281516000906142d281601385016020870161398b565b601160f91b6013939091019283015250601401919050565b600085516142fc818460208a0161398b565b8083019050602f60f81b808252865161431c816001850160208b0161398b565b6001920191820152845161433781600284016020890161398b565b653f736565643d60d01b60029290910191820152835161435e81600884016020880161398b565b016008019695505050505050565b6000825161437e81846020870161398b565b9190910192915050565b683d913730b6b2911d1160b91b815285516000906143ad816009850160208b0161398b565b711116113232b9b1b934b83a34b7b7111d101160711b60099184019182015286516143df81601b840160208b0161398b565b601160f91b601b92909101918201526b16101134b6b0b3b2911d101160a11b601c8201528551614416816028840160208a0161398b565b6e1331b0b83a3ab9329e9b181818181160891b60289290910191820152845161444681603784016020890161398b565b7016101130ba3a3934b13aba32b9911d101160791b6037929091019182015261449c61448f6144786048840187613eec565b6a1331b0b83a3ab9329e981160a91b8152600b0190565b607d60f81b815260010190565b98975050505050505050565b7f646174613a6170706c69636174696f6e2f6a736f6e3b6261736536342c0000008152600082516144e081601d85016020870161398b565b91909101601d0192915050565b600083516020614500828583890161398b565b845491840191600090600181811c908083168061451e57607f831692505b85831081141561453c57634e487b7160e01b85526022600452602485fd5b80801561455057600181146145615761458e565b60ff1985168852838801955061458e565b60008b81526020902060005b858110156145865781548a82015290840190880161456d565b505083880195505b50939a9950505050505050505050565b60208082526032908201527f4552433732313a207472616e7366657220746f206e6f6e20455243373231526560408201527131b2b4bb32b91034b6b83632b6b2b73a32b960711b606082015260800190565b6020808252602b908201527f496e697469616c697a61626c653a20636f6e7472616374206973206e6f74206960408201526a6e697469616c697a696e6760a81b606082015260800190565b60208082526025908201527f4552433732313a207472616e736665722066726f6d20696e636f72726563742060408201526437bbb732b960d91b606082015260800190565b60008161468f5761468f613e5e565b506000190190565b6001600160a01b03858116825284166020820152604081018390526080606082018190526000906146ca908301846139b7565b9695505050505050565b6000602082840312156146e657600080fd5b81516125d48161395856fe4142434445464748494a4b4c4d4e4f505152535455565758595a6162636465666768696a6b6c6d6e6f707172737475767778797a303132333435363738392b2f3c7363726970742073616e64626f783d27616c6c6f772d736372697074732720747970653d27746578742f6a617661736372697074273ea26469706673582212206e1c5517d19a46ab2db99db3e72c63e542bfe10c05fc47521c82e6674c0f4ddf64736f6c634300080c0033",
  "linkReferences": {},
  "deployedLinkReferences": {}
}