{
  "_format": "hh-sol-artifact-1",
  "contractName": "GenerativeProjectConfigs",
  "sourceName": "contracts/libs/configs/GenerativeProjectConfigs.sol",
  "abi": [
    {
      "inputs": [],
      "name": "CREATE_PROJECT_FEE",
      "outputs": [
        {
          "internalType": "string",
          "name": "",
          "type": "string"
        }
      ],
      "stateMutability": "view",
      "type": "function"
    },
    {
      "inputs": [],
      "name": "FEE_TOKEN",
      "outputs": [
        {
          "internalType": "string",
          "name": "",
          "type": "string"
        }
      ],
      "stateMutability": "view",
      "type": "function"
    },
    {
      "inputs": [],
      "name": "GENERATIVE_NFT_TEMPLATE",
      "outputs": [
        {
          "internalType": "string",
          "name": "",
          "type": "string"
        }
      ],
      "stateMutability": "view",
      "type": "function"
    }
  ],
  "bytecode": "0x61018561003a600b82828239805160001a60731461002d57634e487b7160e01b600052600060045260246000fd5b30600052607381538281f3fe730000000000000000000000000000000000000000301460806040526004361061004a5760003560e01c8062bd38941461004f57806373717b08146100a157806390f4806b146100c9575b600080fd5b61008b6040518060400160405280601781526020017f47454e455241544956455f4e46545f54454d504c41544500000000000000000081525081565b60405161009891906100fa565b60405180910390f35b61008b604051806040016040528060098152602001682322a2afaa27a5a2a760b91b81525081565b61008b604051806040016040528060128152602001714352454154455f50524f4a4543545f46454560701b81525081565b600060208083528351808285015260005b818110156101275785810183015185820160400152820161010b565b81811115610139576000604083870101525b50601f01601f191692909201604001939250505056fea2646970667358221220adb49fc3571c58ffb845d99ccf662b52aa39e5524cc7dd0cf9b56b57c4ed077164736f6c634300080c0033",
  "linkReferences": {},
  "deployedLinkReferences": {}
}