{
  "_format": "hh-sol-artifact-1",
  "contractName": "GenerativeNFTConfigs",
  "sourceName": "contracts/libs/configs/GenerativeNFTConfigs.sol",
  "abi": [
    {
      "inputs": [],
      "name": "BFS_ADDRESS",
      "outputs": [
        {
          "internalType": "string",
          "name": "",
          "type": "string"
        }
      ],
      "stateMutability": "view",
      "type": "function"
    },
    {
      "inputs": [],
      "name": "DEFAULT_ROYALTY_FIN_PERCENT",
      "outputs": [
        {
          "internalType": "string",
          "name": "",
          "type": "string"
        }
      ],
      "stateMutability": "view",
      "type": "function"
    },
    {
      "inputs": [],
      "name": "MINT_NFT_OPERATOR_FEE",
      "outputs": [
        {
          "internalType": "string",
          "name": "",
          "type": "string"
        }
      ],
      "stateMutability": "view",
      "type": "function"
    },
    {
      "inputs": [],
      "name": "PROJECT_PADDING",
      "outputs": [
        {
          "internalType": "uint256",
          "name": "",
          "type": "uint256"
        }
      ],
      "stateMutability": "view",
      "type": "function"
    },
    {
      "inputs": [],
      "name": "ROYALTY_FIN_ADDRESS",
      "outputs": [
        {
          "internalType": "string",
          "name": "",
          "type": "string"
        }
      ],
      "stateMutability": "view",
      "type": "function"
    }
  ],
  "bytecode": "0x6101eb61003a600b82828239805160001a60731461002d57634e487b7160e01b600052600060045260246000fd5b30600052607381538281f3fe73000000000000000000000000000000000000000030146080604052600436106100615760003560e01c80633ebcd75e1461006657806381f6b8d3146100a657806393accc40146100da578063c8fce78314610116578063cb0d7f271461012e575b600080fd5b6100906040518060400160405280600b81526020016a4246535f4144445245535360a81b81525081565b60405161009d9190610160565b60405180910390f35b610090604051806040016040528060158152602001744d494e545f4e46545f4f50455241544f525f46454560581b81525081565b6100906040518060400160405280601b81526020017f44454641554c545f524f59414c54595f46494e5f50455243454e54000000000081525081565b610120620f424081565b60405190815260200161009d565b61009060405180604001604052806013815260200172524f59414c54595f46494e5f4144445245535360681b81525081565b600060208083528351808285015260005b8181101561018d57858101830151858201604001528201610171565b8181111561019f576000604083870101525b50601f01601f191692909201604001939250505056fea2646970667358221220fce261076e4a0829879a78fd70582b5636a29d0cdbca684c9e2ac316279861b364736f6c634300080c0033",
  "linkReferences": {},
  "deployedLinkReferences": {}
}