{
  "_format": "hh-sol-artifact-1",
  "contractName": "GenerativeNFTConfigs",
  "sourceName": "contracts/libs/configs/GenerativeNFTConfigs.sol",
  "abi": [
    {
      "inputs": [],
      "name": "DEFAULT_ROYALTY_FIN_PERCENT",
      "outputs": [
        {
          "internalType": "string",
          "name": "",
          "type": "string"
        }
      ],
      "stateMutability": "view",
      "type": "function"
    },
    {
      "inputs": [],
      "name": "MINT_NFT_OPERATOR_FEE",
      "outputs": [
        {
          "internalType": "string",
          "name": "",
          "type": "string"
        }
      ],
      "stateMutability": "view",
      "type": "function"
    },
    {
      "inputs": [],
      "name": "MINT_NFT_OPERATOR_TREASURE_ADDR",
      "outputs": [
        {
          "internalType": "string",
          "name": "",
          "type": "string"
        }
      ],
      "stateMutability": "view",
      "type": "function"
    },
    {
      "inputs": [],
      "name": "PROJECT_PADDING",
      "outputs": [
        {
          "internalType": "uint256",
          "name": "",
          "type": "uint256"
        }
      ],
      "stateMutability": "view",
      "type": "function"
    },
    {
      "inputs": [],
      "name": "ROYALTY_FIN_ADDRESS",
      "outputs": [
        {
          "internalType": "string",
          "name": "",
          "type": "string"
        }
      ],
      "stateMutability": "view",
      "type": "function"
    }
  ],
  "bytecode": "0x6101fd61003a600b82828239805160001a60731461002d57634e487b7160e01b600052600060045260246000fd5b30600052607381538281f3fe73000000000000000000000000000000000000000030146080604052600436106100615760003560e01c8063662e8ce71461006657806381f6b8d3146100b857806393accc40146100ec578063c8fce78314610128578063cb0d7f2714610140575b600080fd5b6100a26040518060400160405280601f81526020017f4d494e545f4e46545f4f50455241544f525f54524541535552455f414444520081525081565b6040516100af9190610172565b60405180910390f35b6100a2604051806040016040528060158152602001744d494e545f4e46545f4f50455241544f525f46454560581b81525081565b6100a26040518060400160405280601b81526020017f44454641554c545f524f59414c54595f46494e5f50455243454e54000000000081525081565b610132620f424081565b6040519081526020016100af565b6100a260405180604001604052806013815260200172524f59414c54595f46494e5f4144445245535360681b81525081565b600060208083528351808285015260005b8181101561019f57858101830151858201604001528201610183565b818111156101b1576000604083870101525b50601f01601f191692909201604001939250505056fea26469706673582212203e85deb60fefe21f65a82313c3a588aab869fffecabcbeff82173566146b508764736f6c634300080c0033",
  "linkReferences": {},
  "deployedLinkReferences": {}
}