{
  "_format": "hh-sol-artifact-1",
  "contractName": "GenerativeNFTConfigs",
  "sourceName": "contracts/libs/configs/GenerativeNFTConfigs.sol",
  "abi": [
    {
      "inputs": [],
      "name": "MINT_NFT_OPERATOR_FEE",
      "outputs": [
        {
          "internalType": "string",
          "name": "",
          "type": "string"
        }
      ],
      "stateMutability": "view",
      "type": "function"
    },
    {
      "inputs": [],
      "name": "PROJECT_PADDING",
      "outputs": [
        {
          "internalType": "uint256",
          "name": "",
          "type": "uint256"
        }
      ],
      "stateMutability": "view",
      "type": "function"
    },
    {
      "inputs": [],
      "name": "ROYALTY_FIN_ADDRESS",
      "outputs": [
        {
          "internalType": "string",
          "name": "",
          "type": "string"
        }
      ],
      "stateMutability": "view",
      "type": "function"
    }
  ],
  "bytecode": "0x61016f61003a600b82828239805160001a60731461002d57634e487b7160e01b600052600060045260246000fd5b30600052607381538281f3fe730000000000000000000000000000000000000000301460806040526004361061004b5760003560e01c806381f6b8d314610050578063c8fce7831461009a578063cb0d7f27146100b2575b600080fd5b610084604051806040016040528060158152602001744d494e545f4e46545f4f50455241544f525f46454560581b81525081565b60405161009191906100e4565b60405180910390f35b6100a4620f424081565b604051908152602001610091565b61008460405180604001604052806013815260200172524f59414c54595f46494e5f4144445245535360681b81525081565b600060208083528351808285015260005b81811015610111578581018301518582016040015282016100f5565b81811115610123576000604083870101525b50601f01601f191692909201604001939250505056fea264697066735822122004f9294831f14f5ad620280db8f6aaafb09f1d1607472401d2df95006e8b262a64736f6c634300080c0033",
  "linkReferences": {},
  "deployedLinkReferences": {}
}