{
  "_format": "hh-sol-artifact-1",
  "contractName": "GenerativeNFTConfigs",
  "sourceName": "contracts/libs/configs/GenerativeNFTConfigs.sol",
  "abi": [
    {
      "inputs": [],
      "name": "DEFAULT_ROYALTY_FIN_PERCENT",
      "outputs": [
        {
          "internalType": "string",
          "name": "",
          "type": "string"
        }
      ],
      "stateMutability": "view",
      "type": "function"
    },
    {
      "inputs": [],
      "name": "MINT_NFT_OPERATOR_FEE",
      "outputs": [
        {
          "internalType": "string",
          "name": "",
          "type": "string"
        }
      ],
      "stateMutability": "view",
      "type": "function"
    },
    {
      "inputs": [],
      "name": "PROJECT_PADDING",
      "outputs": [
        {
          "internalType": "uint256",
          "name": "",
          "type": "uint256"
        }
      ],
      "stateMutability": "view",
      "type": "function"
    },
    {
      "inputs": [],
      "name": "ROYALTY_FIN_ADDRESS",
      "outputs": [
        {
          "internalType": "string",
          "name": "",
          "type": "string"
        }
      ],
      "stateMutability": "view",
      "type": "function"
    }
  ],
  "bytecode": "0x6101b661003a600b82828239805160001a60731461002d57634e487b7160e01b600052600060045260246000fd5b30600052607381538281f3fe73000000000000000000000000000000000000000030146080604052600436106100565760003560e01c806381f6b8d31461005b57806393accc40146100a5578063c8fce783146100e1578063cb0d7f27146100f9575b600080fd5b61008f604051806040016040528060158152602001744d494e545f4e46545f4f50455241544f525f46454560581b81525081565b60405161009c919061012b565b60405180910390f35b61008f6040518060400160405280601b81526020017f44454641554c545f524f59414c54595f46494e5f50455243454e54000000000081525081565b6100eb620f424081565b60405190815260200161009c565b61008f60405180604001604052806013815260200172524f59414c54595f46494e5f4144445245535360681b81525081565b600060208083528351808285015260005b818110156101585785810183015185820160400152820161013c565b8181111561016a576000604083870101525b50601f01601f191692909201604001939250505056fea2646970667358221220c0ecc3967a8c8edd69021cf591ec09fac9a9a3f5c132ee0dc73ea2981737228064736f6c634300080c0033",
  "linkReferences": {},
  "deployedLinkReferences": {}
}