{
  "_format": "hh-sol-artifact-1",
  "contractName": "GenerativeNFTConfigs",
  "sourceName": "contracts/libs/configs/GenerativeNFTConfigs.sol",
  "abi": [
    {
      "inputs": [],
      "name": "MINT_NFT_OPERATOR_FEE",
      "outputs": [
        {
          "internalType": "string",
          "name": "",
          "type": "string"
        }
      ],
      "stateMutability": "view",
      "type": "function"
    },
    {
      "inputs": [],
      "name": "PROJECT_PADDING",
      "outputs": [
        {
          "internalType": "uint256",
          "name": "",
          "type": "uint256"
        }
      ],
      "stateMutability": "view",
      "type": "function"
    }
  ],
  "bytecode": "0x61012761003a600b82828239805160001a60731461002d57634e487b7160e01b600052600060045260246000fd5b30600052607381538281f3fe7300000000000000000000000000000000000000003014608060405260043610603d5760003560e01c806381f6b8d3146042578063c8fce783146089575b600080fd5b6075604051806040016040528060158152602001744d494e545f4e46545f4f50455241544f525f46454560581b81525081565b60405160809190609f565b60405180910390f35b6092620f424081565b6040519081526020016080565b600060208083528351808285015260005b8181101560ca5785810183015185820160400152820160b0565b8181111560db576000604083870101525b50601f01601f191692909201604001939250505056fea26469706673582212204c5421bb5226d0c1b55cf86dc84aa02d73703d3830fd4366fb538a8d5986242464736f6c634300080c0033",
  "linkReferences": {},
  "deployedLinkReferences": {}
}