{
  "_format": "hh-sol-artifact-1",
  "contractName": "SimpleMarketplaceService",
  "sourceName": "contracts/services/SimpleMarketplaceService.sol",
  "abi": [
    {
      "anonymous": false,
      "inputs": [
        {
          "indexed": false,
          "internalType": "uint8",
          "name": "version",
          "type": "uint8"
        }
      ],
      "name": "Initialized",
      "type": "event"
    },
    {
      "inputs": [],
      "name": "_admin",
      "outputs": [
        {
          "internalType": "address",
          "name": "",
          "type": "address"
        }
      ],
      "stateMutability": "view",
      "type": "function"
    },
    {
      "inputs": [
        {
          "internalType": "uint256",
          "name": "",
          "type": "uint256"
        }
      ],
      "name": "_arrayListingId",
      "outputs": [
        {
          "internalType": "bytes32",
          "name": "",
          "type": "bytes32"
        }
      ],
      "stateMutability": "view",
      "type": "function"
    },
    {
      "inputs": [
        {
          "internalType": "uint256",
          "name": "",
          "type": "uint256"
        }
      ],
      "name": "_arrayMakeOfferId",
      "outputs": [
        {
          "internalType": "bytes32",
          "name": "",
          "type": "bytes32"
        }
      ],
      "stateMutability": "view",
      "type": "function"
    },
    {
      "inputs": [
        {
          "internalType": "bytes32",
          "name": "",
          "type": "bytes32"
        }
      ],
      "name": "_listingTokens",
      "outputs": [
        {
          "internalType": "address",
          "name": "_collectionContract",
          "type": "address"
        },
        {
          "internalType": "uint256",
          "name": "_tokenId",
          "type": "uint256"
        },
        {
          "internalType": "address",
          "name": "_seller",
          "type": "address"
        },
        {
          "internalType": "address",
          "name": "_erc20Token",
          "type": "address"
        },
        {
          "internalType": "uint256",
          "name": "_price",
          "type": "uint256"
        },
        {
          "internalType": "bool",
          "name": "_closed",
          "type": "bool"
        },
        {
          "internalType": "uint256",
          "name": "_durationTime",
          "type": "uint256"
        }
      ],
      "stateMutability": "view",
      "type": "function"
    },
    {
      "inputs": [
        {
          "internalType": "bytes32",
          "name": "",
          "type": "bytes32"
        }
      ],
      "name": "_makeOfferTokens",
      "outputs": [
        {
          "internalType": "address",
          "name": "_collectionContract",
          "type": "address"
        },
        {
          "internalType": "uint256",
          "name": "_tokenId",
          "type": "uint256"
        },
        {
          "internalType": "address",
          "name": "_buyer",
          "type": "address"
        },
        {
          "internalType": "address",
          "name": "_erc20Token",
          "type": "address"
        },
        {
          "internalType": "uint256",
          "name": "_price",
          "type": "uint256"
        },
        {
          "internalType": "bool",
          "name": "_closed",
          "type": "bool"
        },
        {
          "internalType": "uint256",
          "name": "_durationTime",
          "type": "uint256"
        }
      ],
      "stateMutability": "view",
      "type": "function"
    },
    {
      "inputs": [],
      "name": "_parameterAddr",
      "outputs": [
        {
          "internalType": "address",
          "name": "",
          "type": "address"
        }
      ],
      "stateMutability": "view",
      "type": "function"
    },
    {
      "inputs": [
        {
          "internalType": "bytes32",
          "name": "offerId",
          "type": "bytes32"
        }
      ],
      "name": "acceptMakeOffer",
      "outputs": [],
      "stateMutability": "nonpayable",
      "type": "function"
    },
    {
      "inputs": [
        {
          "internalType": "bytes32",
          "name": "_offeringId",
          "type": "bytes32"
        }
      ],
      "name": "cancelListing",
      "outputs": [],
      "stateMutability": "nonpayable",
      "type": "function"
    },
    {
      "inputs": [
        {
          "internalType": "bytes32",
          "name": "offerId",
          "type": "bytes32"
        }
      ],
      "name": "cancelMakeOffer",
      "outputs": [],
      "stateMutability": "nonpayable",
      "type": "function"
    },
    {
      "inputs": [
        {
          "internalType": "address",
          "name": "newAdm",
          "type": "address"
        }
      ],
      "name": "changeAdmin",
      "outputs": [],
      "stateMutability": "nonpayable",
      "type": "function"
    },
    {
      "inputs": [
        {
          "internalType": "address",
          "name": "newAddr",
          "type": "address"
        }
      ],
      "name": "changeParamAddr",
      "outputs": [],
      "stateMutability": "nonpayable",
      "type": "function"
    },
    {
      "inputs": [
        {
          "internalType": "address",
          "name": "admin",
          "type": "address"
        },
        {
          "internalType": "address",
          "name": "parameterControl",
          "type": "address"
        }
      ],
      "name": "initialize",
      "outputs": [],
      "stateMutability": "nonpayable",
      "type": "function"
    },
    {
      "inputs": [
        {
          "components": [
            {
              "internalType": "address",
              "name": "_collectionContract",
              "type": "address"
            },
            {
              "internalType": "uint256",
              "name": "_tokenId",
              "type": "uint256"
            },
            {
              "internalType": "address",
              "name": "_seller",
              "type": "address"
            },
            {
              "internalType": "address",
              "name": "_erc20Token",
              "type": "address"
            },
            {
              "internalType": "uint256",
              "name": "_price",
              "type": "uint256"
            },
            {
              "internalType": "bool",
              "name": "_closed",
              "type": "bool"
            },
            {
              "internalType": "uint256",
              "name": "_durationTime",
              "type": "uint256"
            }
          ],
          "internalType": "struct Marketplace.ListingTokenData",
          "name": "listingData",
          "type": "tuple"
        }
      ],
      "name": "listToken",
      "outputs": [
        {
          "internalType": "bytes32",
          "name": "",
          "type": "bytes32"
        }
      ],
      "stateMutability": "nonpayable",
      "type": "function"
    },
    {
      "inputs": [
        {
          "components": [
            {
              "internalType": "address",
              "name": "_collectionContract",
              "type": "address"
            },
            {
              "internalType": "uint256",
              "name": "_tokenId",
              "type": "uint256"
            },
            {
              "internalType": "address",
              "name": "_buyer",
              "type": "address"
            },
            {
              "internalType": "address",
              "name": "_erc20Token",
              "type": "address"
            },
            {
              "internalType": "uint256",
              "name": "_price",
              "type": "uint256"
            },
            {
              "internalType": "bool",
              "name": "_closed",
              "type": "bool"
            },
            {
              "internalType": "uint256",
              "name": "_durationTime",
              "type": "uint256"
            }
          ],
          "internalType": "struct Marketplace.MakeOfferData",
          "name": "data",
          "type": "tuple"
        }
      ],
      "name": "makeOffer",
      "outputs": [
        {
          "internalType": "bytes32",
          "name": "",
          "type": "bytes32"
        }
      ],
      "stateMutability": "nonpayable",
      "type": "function"
    },
    {
      "inputs": [
        {
          "internalType": "bytes32",
          "name": "offeringId",
          "type": "bytes32"
        }
      ],
      "name": "purchaseToken",
      "outputs": [],
      "stateMutability": "payable",
      "type": "function"
    },
    {
      "inputs": [
        {
          "internalType": "address",
          "name": "erc20Addr",
          "type": "address"
        },
        {
          "internalType": "uint256",
          "name": "amount",
          "type": "uint256"
        }
      ],
      "name": "withdraw",
      "outputs": [],
      "stateMutability": "nonpayable",
      "type": "function"
    }
  ],
  "bytecode": "0x608060405234801561001057600080fd5b506133ad806100206000396000f3fe6080604052600436106100f35760003560e01c8063a3a1937c1161008a578063f1f2df0e11610059578063f1f2df0e14610375578063f3fef3a314610395578063f40cb02d146103b5578063febfd6c3146103d557600080fd5b8063a3a1937c146102ab578063d2abb69c14610315578063d9e87e6114610335578063ed4ec2011461035557600080fd5b8063485cc955116100c6578063485cc9551461022b57806372c035cf1461024b5780638f2839701461026b5780639299e5521461028b57600080fd5b806301bc45c9146100f85780631fd4d2ed146101355780633ac1089a146101635780633dd72c4014610178575b600080fd5b34801561010457600080fd5b50603454610118906001600160a01b031681565b6040516001600160a01b0390911681526020015b60405180910390f35b34801561014157600080fd5b50610155610150366004612eb5565b6103f5565b60405190815260200161012c565b610176610171366004612eb5565b610416565b005b34801561018457600080fd5b506101e2610193366004612eb5565b60386020526000908152604090208054600182015460028301546003840154600485015460058601546006909601546001600160a01b03958616969495938416949290931692909160ff169087565b604080516001600160a01b039889168152602081019790975294871694860194909452949091166060840152608083015291151560a082015260c081019190915260e00161012c565b34801561023757600080fd5b50610176610246366004612eee565b610433565b34801561025757600080fd5b50603554610118906001600160a01b031681565b34801561027757600080fd5b50610176610286366004612f27565b6105ff565b34801561029757600080fd5b506101766102a6366004612eb5565b610691565b3480156102b757600080fd5b506101e26102c6366004612eb5565b60366020526000908152604090208054600182015460028301546003840154600485015460058601546006909601546001600160a01b03958616969495938416949290931692909160ff169087565b34801561032157600080fd5b50610155610330366004613026565b61069a565b34801561034157600080fd5b50610176610350366004612eb5565b6106bd565b34801561036157600080fd5b50610155610370366004612eb5565b6106ce565b34801561038157600080fd5b50610176610390366004612eb5565b6106de565b3480156103a157600080fd5b506101766103b0366004613042565b6106e7565b3480156103c157600080fd5b506101556103d0366004613026565b610904565b3480156103e157600080fd5b506101766103f0366004612f27565b610917565b6039818154811061040557600080fd5b600091825260209091200154905081565b61041e6109a9565b61042781610a03565b61043060018055565b50565b600054610100900460ff16158080156104535750600054600160ff909116105b8061046d5750303b15801561046d575060005460ff166001145b6104d55760405162461bcd60e51b815260206004820152602e60248201527f496e697469616c697a61626c653a20636f6e747261637420697320616c72656160448201526d191e481a5b9a5d1a585b1a5e995960921b60648201526084015b60405180910390fd5b6000805460ff1916600117905580156104f8576000805461ff0019166101001790555b60408051808201909152600381526203130360ec1b60208201526001600160a01b0384166105395760405162461bcd60e51b81526004016104cc919061309a565b5060408051808201909152600381526203130360ec1b60208201526001600160a01b03831661057b5760405162461bcd60e51b81526004016104cc919061309a565b50603480546001600160a01b038086166001600160a01b03199283161790925560358054928516929091169190911790556105b4611876565b80156105fa576000805461ff0019169055604051600181527f7f26b83ff96e1f2b6a682f133852f6798a09c465da95921460cefb38474024989060200160405180910390a15b505050565b6034546001600160a01b03163314801561062157506001600160a01b03811615155b6040518060400160405280600381526020016231303160e81b8152509061065b5760405162461bcd60e51b81526004016104cc919061309a565b506034546001600160a01b0382811691161461043057603480546001600160a01b0383166001600160a01b031990911617905550565b610430816118a7565b60006106a46109a9565b6106ad82611979565b90506106b860018055565b919050565b6106c56109a9565b61042781611c21565b6037818154811061040557600080fd5b61043081612729565b6106ef6109a9565b60345460408051808201909152600381526231303160e81b6020820152906001600160a01b031633146107355760405162461bcd60e51b81526004016104cc919061309a565b50603554604080518082018252601f81527f4d494e545f4e46545f4f50455241544f525f54524541535552455f41444452006020820152905163bf40fac160e01b815233926001600160a01b031691600091839163bf40fac19161079c919060040161309a565b602060405180830381865afa1580156107b9573d6000803e3d6000fd5b505050506040513d601f19601f820116820180604052508101906107dd91906130cd565b90506001600160a01b038116156107f2578092505b60006001600160a01b038616610872578447101561080f57600080fd5b6040516001600160a01b038516908690600081818185875af1925050503d8060008114610858576040519150601f19603f3d011682016040523d82523d6000602084013e61085d565b606091505b5050809150508061086d57600080fd5b6108f3565b60405163a9059cbb60e01b81526001600160a01b0385811660048301526024820187905287919082169063a9059cbb906044016020604051808303816000875af11580156108c4573d6000803e3d6000fd5b505050506040513d601f19601f820116820180604052508101906108e891906130ea565b6108f157600080fd5b505b5050505061090060018055565b5050565b600061090e6109a9565b6106ad826127f0565b6034546001600160a01b03163314801561093957506001600160a01b03811615155b6040518060400160405280600381526020016231303160e81b815250906109735760405162461bcd60e51b81526004016104cc919061309a565b506035546001600160a01b0382811691161461043057603580546001600160a01b0383166001600160a01b031990911617905550565b600260015414156109fc5760405162461bcd60e51b815260206004820152601f60248201527f5265656e7472616e637947756172643a207265656e7472616e742063616c6c0060448201526064016104cc565b6002600155565b600081815260366020908152604091829020825160e08101845281546001600160a01b03908116825260018301549382019390935260028201548316938101939093526003810154909116606083015260048101546080830152600581015460ff1615801560a0840181905260069092015460c084015290610a94575060c08101511580610a9457508060c0015142105b6040518060400160405280600381526020016219981960e91b81525090610ace5760405162461bcd60e51b81526004016104cc919061309a565b506000828152603660209081526040808320600501805460ff191660011790558351606080860151835160e08101855286815294850186905292840185905283018490526080830184905260a0830184905260c08301939093526001600160a01b031615159060008215610c9357846060015190506040518060e00160405280336001600160a01b0316815260200186604001516001600160a01b031681526020018660800151815260200186608001518152602001826001600160a01b03166370a08231336040518263ffffffff1660e01b8152600401610bbf91906001600160a01b0391909116815260200190565b602060405180830381865afa158015610bdc573d6000803e3d6000fd5b505050506040513d601f19601f82011682018060405250810190610c009190613107565b8152604051636eb1769f60e11b81523360048201523060248201526020909101906001600160a01b0384169063dd62ed3e90604401602060405180830381865afa158015610c52573d6000803e3d6000fd5b505050506040513d601f19601f82011682018060405250810190610c769190613107565b815260200186606001516001600160a01b03168152509150610cf3565b6040518060e00160405280336001600160a01b0316815260200186604001516001600160a01b031681526020018660800151815260200186608001518152602001600081526020016000815260200160006001600160a01b031681525091505b84604001516001600160a01b0316846001600160a01b0316636352211e87602001516040518263ffffffff1660e01b8152600401610d3391815260200190565b602060405180830381865afa158015610d50573d6000803e3d6000fd5b505050506040513d601f19601f82011682018060405250810190610d7491906130cd565b6001600160a01b0316146040518060400160405280600381526020016203330360ec1b81525090610db85760405162461bcd60e51b81526004016104cc919061309a565b508215610e4a5760408083015160a08401518251808401909352600383526233303560e81b60208401521015610e015760405162461bcd60e51b81526004016104cc919061309a565b506040808301516080840151825180840190935260038352620ccc0d60ea1b60208401521015610e445760405162461bcd60e51b81526004016104cc919061309a565b50610e8a565b6040808301518151808301909252600382526233303360e81b6020830152341015610e885760405162461bcd60e51b81526004016104cc919061309a565b505b602080830151835191870151604051632142170760e11b81526001600160a01b038816936342842e0e93610ec2939092600401613120565b600060405180830381600087803b158015610edc57600080fd5b505af1158015610ef0573d6000803e3d6000fd5b50506035546040805160808101825260008082526020808301829052828401829052606083019190915282518084018452601b81527f4d41524b4554504c4143455f42454e454649545f50455243454e540000000000918101919091529151636d12dce160e01b81526001600160a01b03909316945092508391636d12dce191610f7c9160040161309a565b602060405180830381865afa158015610f99573d6000803e3d6000fd5b505050506040513d601f19601f82011682018060405250810190610fbd9190613107565b60408201819052610fd05760fa60408201525b6040810151156110175761271081604001518560600151610ff1919061315a565b610ffb9190613179565b6060820181905260408501805161101390839061319b565b9052505b6040516301ffc9a760e01b815263152a902d60e11b60048201526001600160a01b038716906301ffc9a790602401602060405180830381865afa158015611062573d6000803e3d6000fd5b505050506040513d601f19601f8201168201806040525081019061108691906130ea565b1561113d5786516020880151606086015160405163152a902d60e11b81526004810192909252602482015260009081906001600160a01b03841690632a55205a906044016040805180830381865afa1580156110e6573d6000803e3d6000fd5b505050506040513d601f19601f8201168201806040525081019061110a91906131b2565b602086018190526001600160a01b0382168652604089018051929450909250829161113690839061319b565b9052505050505b604080518082018252601f81527f4d494e545f4e46545f4f50455241544f525f54524541535552455f41444452006020820152905163bf40fac160e01b815230916000916001600160a01b0386169163bf40fac19161119f919060040161309a565b602060405180830381865afa1580156111bc573d6000803e3d6000fd5b505050506040513d601f19601f820116820180604052508101906111e091906130cd565b90506001600160a01b038116156111f5578091505b861561153157855160608701516040516323b872dd60e01b81526001600160a01b038816926323b872dd9261122f92309190600401613120565b6020604051808303816000875af115801561124e573d6000803e3d6000fd5b505050506040513d601f19601f8201168201806040525081019061127291906130ea565b6040518060400160405280600381526020016219981b60e91b815250906112ac5760405162461bcd60e51b81526004016104cc919061309a565b506040808a015187820151915163a9059cbb60e01b81526001600160a01b039182166004820152602481019290925286169063a9059cbb906044016020604051808303816000875af1158015611306573d6000803e3d6000fd5b505050506040513d601f19601f8201168201806040525081019061132a91906130ea565b6040518060400160405280600381526020016219981b60e91b815250906113645760405162461bcd60e51b81526004016104cc919061309a565b506001600160a01b038216301461142b57606083015160405163a9059cbb60e01b81526001600160a01b03848116600483015260248201929092529086169063a9059cbb906044016020604051808303816000875af11580156113cb573d6000803e3d6000fd5b505050506040513d601f19601f820116820180604052508101906113ef91906130ea565b6040518060400160405280600381526020016219981b60e91b815250906114295760405162461bcd60e51b81526004016104cc919061309a565b505b82516001600160a01b031615801590611448575060008360200151115b1561152c578251602084015160405163a9059cbb60e01b81526001600160a01b0388169263a9059cbb92611492926004016001600160a01b03929092168252602082015260400190565b6020604051808303816000875af11580156114b1573d6000803e3d6000fd5b505050506040513d601f19601f820116820180604052508101906114d591906130ea565b6040518060400160405280600381526020016219981b60e91b8152509061150f5760405162461bcd60e51b81526004016104cc919061309a565b5061152c83600001518a602001518b606001518660200151612ae1565b611818565b60408051808201909152600381526233303360e81b6020820152476115695760405162461bcd60e51b81526004016104cc919061309a565b50600089604001516001600160a01b0316876040015160405160006040518083038185875af1925050503d80600081146115bf576040519150601f19603f3d011682016040523d82523d6000602084013e6115c4565b606091505b505060408051808201909152600381526219981b60e91b6020820152909150816116015760405162461bcd60e51b81526004016104cc919061309a565b506001600160a01b03831630146116a35760608401516040516001600160a01b0385169190600081818185875af1925050503d806000811461165f576040519150601f19603f3d011682016040523d82523d6000602084013e611664565b606091505b505060408051808201909152600381526219981b60e91b6020820152909150816116a15760405162461bcd60e51b81526004016104cc919061309a565b505b83516001600160a01b0316158015906116c0575060008460200151115b1561177357835160208501516040516001600160a01b0390921691600081818185875af1925050503d8060008114611714576040519150601f19603f3d011682016040523d82523d6000602084013e611719565b606091505b505060408051808201909152600381526219981b60e91b6020820152909150816117565760405162461bcd60e51b81526004016104cc919061309a565b5061177384600001518b602001518c606001518760200151612ae1565b604080518082018252600981526823a2a72faa27a5a2a760b91b6020820152905163bf40fac160e01b8152611816916001600160a01b0388169163bf40fac1916117bf9160040161309a565b602060405180830381865afa1580156117dc573d6000803e3d6000fd5b505050506040513d601f19601f8201168201806040525081019061180091906130cd565b8b5160208d015160608e015160808f0151612bd8565b505b60008a81526036602052604090819020875191518c927f744eb8cec82caa596aa6c23e80f64b53c47d2139a53db9b3bbd7eb0a0a4b79929261185c92909190613235565b60405180910390a250505050505050505050565b60018055565b600054610100900460ff1661189d5760405162461bcd60e51b81526004016104cc9061325c565b6118a5612d18565b565b600081815260366020908152604091829020600201548251808401909352600383526203330360ec1b918301919091526001600160a01b031633146118ff5760405162461bcd60e51b81526004016104cc919061309a565b5060008181526036602052604090206005015460ff161561191f57600080fd5b6000818152603660205260409081902060058101805460ff19166001179055905182917f0f9936e2210c5cb61170d9da568110dc1426511cd2a1ffabe518cb3f12791c329161196e91906132a7565b60405180910390a250565b606081015160408051808201909152600381526203130360ec1b60208201526000916001600160a01b03166119c15760405162461bcd60e51b81526004016104cc919061309a565b50815160408051808201909152600381526203130360ec1b6020820152906001600160a01b0316611a055760405162461bcd60e51b81526004016104cc919061309a565b5060008260800151116040518060400160405280600381526020016206660760eb1b81525090611a485760405162461bcd60e51b81526004016104cc919061309a565b5060608201516080830151604051636eb1769f60e11b81523360048201523060248201526001600160a01b0383169063dd62ed3e90604401602060405180830381865afa158015611a9d573d6000803e3d6000fd5b505050506040513d601f19601f82011682018060405250810190611ac19190613107565b1015611acc57600080fd5b60338054906000611adc836132b5565b91905055506000611aee603354612d3f565b84516020860151611afe90612d3f565b604051602001611b10939291906132d0565b60408051808303601f190181528282528051602091820120600081815260388352928320885181546001600160a01b03199081166001600160a01b03928316178355938a015160018084019190915560028301805460608d01516003860180548916919095161790935560808c0151600485015560a08c015160058501805460ff191691151591909117905560c08c01516006909401939093559316331790556039805492830181559092527fdc16fef70f8d5ddbc01ee3d903d1e69c18a3c7be080eb86a81e0578814ee58d301819055915081907f1101875263abf1b7c3fc9cf51275180975f69f768a3c09e1b453fa0cad6f29b190611c1290879061331c565b60405180910390a29392505050565b600081815260386020908152604091829020825160e08101845281546001600160a01b03908116825260018301549382019390935260028201548316938101939093526003810154909116606083015260048101546080830152600581015460ff1615801560a0840181905260069092015460c084015290611cb2575060c08101511580611cb257508060c0015142105b6040518060400160405280600381526020016219981960e91b81525090611cec5760405162461bcd60e51b81526004016104cc919061309a565b50600082815260386020908152604091829020600501805460ff1916600117905582519083015191516331a9108f60e11b8152909133916001600160a01b03841691636352211e91611d45919060040190815260200190565b602060405180830381865afa158015611d62573d6000803e3d6000fd5b505050506040513d601f19601f82011682018060405250810190611d8691906130cd565b6001600160a01b0316146040518060400160405280600381526020016203330360ec1b81525090611dca5760405162461bcd60e51b81526004016104cc919061309a565b5060405163e985e9c560e01b81523360048201523060248201526001600160a01b0382169063e985e9c590604401602060405180830381865afa158015611e15573d6000803e3d6000fd5b505050506040513d601f19601f82011682018060405250810190611e3991906130ea565b6040518060400160405280600381526020016233303160e81b81525090611e735760405162461bcd60e51b81526004016104cc919061309a565b50606082015160808301516040808501519051636eb1769f60e11b81526001600160a01b0391821660048201523060248201529083169063dd62ed3e90604401602060405180830381865afa158015611ed0573d6000803e3d6000fd5b505050506040513d601f19601f82011682018060405250810190611ef49190613107565b1015611eff57600080fd5b6040805160e08101825284820180516001600160a01b0390811683523360208401526080808801805185870152516060850152915193516370a0823160e01b8152938116600485015260009391830191908516906370a0823190602401602060405180830381865afa158015611f79573d6000803e3d6000fd5b505050506040513d601f19601f82011682018060405250810190611f9d9190613107565b81526040808701519051636eb1769f60e11b81526001600160a01b0391821660048201523060248201526020909201919085169063dd62ed3e90604401602060405180830381865afa158015611ff7573d6000803e3d6000fd5b505050506040513d601f19601f8201168201806040525081019061201b9190613107565b81526060808701516001600160a01b039081166020938401526035546040805160808101825260008082528187018190528183018190529481019490945280518082018252601b81527f4d41524b4554504c4143455f42454e454649545f50455243454e5400000000009581019590955251636d12dce160e01b8152949550169290918391636d12dce1916120b29160040161309a565b602060405180830381865afa1580156120cf573d6000803e3d6000fd5b505050506040513d601f19601f820116820180604052508101906120f39190613107565b604082018190526121065760fa60408201525b60408101511561214d5761271081604001518460600151612127919061315a565b6121319190613179565b6060820181905260408401805161214990839061319b565b9052505b6040516301ffc9a760e01b815263152a902d60e11b60048201526001600160a01b038616906301ffc9a790602401602060405180830381865afa158015612198573d6000803e3d6000fd5b505050506040513d601f19601f820116820180604052508101906121bc91906130ea565b156122735785516020870151606085015160405163152a902d60e11b81526004810192909252602482015260009081906001600160a01b03841690632a55205a906044016040805180830381865afa15801561221c573d6000803e3d6000fd5b505050506040513d601f19601f8201168201806040525081019061224091906131b2565b602086018190526001600160a01b0382168652604088018051929450909250829161226c90839061319b565b9052505050505b604080518082018252601f81527f4d494e545f4e46545f4f50455241544f525f54524541535552455f41444452006020820152905163bf40fac160e01b815230916000916001600160a01b0386169163bf40fac1916122d5919060040161309a565b602060405180830381865afa1580156122f2573d6000803e3d6000fd5b505050506040513d601f19601f8201168201806040525081019061231691906130cd565b90506001600160a01b0381161561232b578091505b845160608601516040516323b872dd60e01b81526001600160a01b038916926323b872dd9261235f92309190600401613120565b6020604051808303816000875af115801561237e573d6000803e3d6000fd5b505050506040513d601f19601f820116820180604052508101906123a291906130ea565b6040518060400160405280600381526020016219981b60e91b815250906123dc5760405162461bcd60e51b81526004016104cc919061309a565b506020850151604080870151905163a9059cbb60e01b81526001600160a01b0389169263a9059cbb92612425926004016001600160a01b03929092168252602082015260400190565b6020604051808303816000875af1158015612444573d6000803e3d6000fd5b505050506040513d601f19601f8201168201806040525081019061246891906130ea565b6040518060400160405280600381526020016219981b60e91b815250906124a25760405162461bcd60e51b81526004016104cc919061309a565b506001600160a01b038216301461256957606083015160405163a9059cbb60e01b81526001600160a01b03848116600483015260248201929092529087169063a9059cbb906044016020604051808303816000875af1158015612509573d6000803e3d6000fd5b505050506040513d601f19601f8201168201806040525081019061252d91906130ea565b6040518060400160405280600381526020016219981b60e91b815250906125675760405162461bcd60e51b81526004016104cc919061309a565b505b82516001600160a01b031615801590612586575060008360200151115b1561266a578251602084015160405163a9059cbb60e01b81526001600160a01b0389169263a9059cbb926125d0926004016001600160a01b03929092168252602082015260400190565b6020604051808303816000875af11580156125ef573d6000803e3d6000fd5b505050506040513d601f19601f8201168201806040525081019061261391906130ea565b6040518060400160405280600381526020016219981b60e91b8152509061264d5760405162461bcd60e51b81526004016104cc919061309a565b5061266a836000015189602001518a606001518660200151612ae1565b6020808601518651918a0151604051632142170760e11b81526001600160a01b038b16936342842e0e936126a2939092600401613120565b600060405180830381600087803b1580156126bc57600080fd5b505af11580156126d0573d6000803e3d6000fd5b50505060008a81526038602052604090819020875191518c93507fe0787f0a475d5edb93acefb462596edcf3ab4d4949407b732fec63d7e5afc60c926127169291613235565b60405180910390a2505050505050505050565b600081815260386020908152604091829020600201548251808401909352600383526203130360ec1b918301919091526001600160a01b031633146127815760405162461bcd60e51b81526004016104cc919061309a565b5060008181526038602052604090206005015460ff16156127a157600080fd5b6000818152603860205260409081902060058101805460ff19166001179055905182917fd1e7e193455ba4241e816f1b6fa787b59dad27c1279c69179f6cb4b4387bf5439161196e91906132a7565b805160208201516040516331a9108f60e11b815260048101919091526000919033906001600160a01b03831690636352211e90602401602060405180830381865afa158015612843573d6000803e3d6000fd5b505050506040513d601f19601f8201168201806040525081019061286791906130cd565b6001600160a01b0316146040518060400160405280600381526020016203330360ec1b815250906128ab5760405162461bcd60e51b81526004016104cc919061309a565b5060008360800151116040518060400160405280600381526020016206660760eb1b815250906128ee5760405162461bcd60e51b81526004016104cc919061309a565b5060405163e985e9c560e01b81523360048201523060248201526001600160a01b0382169063e985e9c590604401602060405180830381865afa158015612939573d6000803e3d6000fd5b505050506040513d601f19601f8201168201806040525081019061295d91906130ea565b60408051808201909152600381526233303160e81b602082015290151560011461299a5760405162461bcd60e51b81526004016104cc919061309a565b50603380549060006129ab836132b5565b919050555060006129bd603354612d3f565b845160208601516129cd90612d3f565b6040516020016129df939291906132d0565b60408051808303601f190181528282528051602091820120600081815260368352928320885181546001600160a01b03199081166001600160a01b03928316178355938a015160018084019190915560028301805460608d01516003860180548916919095161790935560808c0151600485015560a08c015160058501805460ff191691151591909117905560c08c01516006909401939093559316331790556037805492830181559092527f42a7b7dd785cd69714a189dffb3fd7d7174edc9ece837694ce50f7078f7c31ae01819055915081907f36baa67ff8b95fa14aac46cea75517dc7f57ebebc1b90d48388c8c085f5cbfe390611c1290879061331c565b6001600160a01b03841615612bd2576040516301ffc9a760e01b815263676eda1760e01b600482015284906001600160a01b038216906301ffc9a790602401602060405180830381865afa158015612b3d573d6000803e3d6000fd5b505050506040513d601f19601f82011682018060405250810190612b6191906130ea565b15612bd05760405163676eda1760e01b8152600481018590526001600160a01b0384811660248301526044820184905282169063676eda1790606401600060405180830381600087803b158015612bb757600080fd5b505af1158015612bcb573d6000803e3d6000fd5b505050505b505b50505050565b6001600160a01b03851615612bd05760405163186f2bdd60e21b81526001600160a01b038581166004830152602482018590528381166044830152606482018390528691908216906361bcaf7490608401600060405180830381600087803b158015612c4357600080fd5b505af1925050508015612c54575060015b612cb657604080516001600160a01b0388811682528781166020830152818301879052851660608201526080810184905290517f2b24ae3182dffe91b3b5d3bd7e893fdf479327b5a0f15f2ce99b2d6e798680e69181900360a00190a1612d10565b604080516001600160a01b0388811682528781166020830152818301879052851660608201526080810184905290517fd6a08b4403c29a9320fb167fd747bf8bf1fa0ebc0ec4d46a726f3ddbb4ab42379181900360a00190a15b505050505050565b600054610100900460ff166118705760405162461bcd60e51b81526004016104cc9061325c565b60606000612d4c83612ddc565b600101905060008167ffffffffffffffff811115612d6c57612d6c612f4b565b6040519080825280601f01601f191660200182016040528015612d96576020820181803683370190505b5090508181016020015b600019016f181899199a1a9b1b9c1cb0b131b232b360811b600a86061a8153600a8504945084612dcf57612dd4565b612da0565b509392505050565b60008072184f03e93ff9f4daa797ed6e38ed64bf6a1f0160401b8310612e1b5772184f03e93ff9f4daa797ed6e38ed64bf6a1f0160401b830492506040015b6d04ee2d6d415b85acef81000000008310612e47576d04ee2d6d415b85acef8100000000830492506020015b662386f26fc100008310612e6557662386f26fc10000830492506010015b6305f5e1008310612e7d576305f5e100830492506008015b6127108310612e9157612710830492506004015b60648310612ea3576064830492506002015b600a8310612eaf576001015b92915050565b600060208284031215612ec757600080fd5b5035919050565b6001600160a01b038116811461043057600080fd5b80356106b881612ece565b60008060408385031215612f0157600080fd5b8235612f0c81612ece565b91506020830135612f1c81612ece565b809150509250929050565b600060208284031215612f3957600080fd5b8135612f4481612ece565b9392505050565b634e487b7160e01b600052604160045260246000fd5b801515811461043057600080fd5b80356106b881612f61565b600060e08284031215612f8c57600080fd5b60405160e0810181811067ffffffffffffffff82111715612fbd57634e487b7160e01b600052604160045260246000fd5b604052905080612fcc83612ee3565b815260208301356020820152612fe460408401612ee3565b6040820152612ff560608401612ee3565b60608201526080830135608082015261301060a08401612f6f565b60a082015260c083013560c08201525092915050565b600060e0828403121561303857600080fd5b612f448383612f7a565b6000806040838503121561305557600080fd5b823561306081612ece565b946020939093013593505050565b60005b83811015613089578181015183820152602001613071565b83811115612bd25750506000910152565b60208152600082518060208401526130b981604085016020870161306e565b601f01601f19169190910160400192915050565b6000602082840312156130df57600080fd5b8151612f4481612ece565b6000602082840312156130fc57600080fd5b8151612f4481612f61565b60006020828403121561311957600080fd5b5051919050565b6001600160a01b039384168152919092166020820152604081019190915260600190565b634e487b7160e01b600052601160045260246000fd5b600081600019048311821515161561317457613174613144565b500290565b60008261319657634e487b7160e01b600052601260045260246000fd5b500490565b6000828210156131ad576131ad613144565b500390565b600080604083850312156131c557600080fd5b82516131d081612ece565b6020939093015192949293505050565b80546001600160a01b03908116835260018201546020840152600282015481166040840152600382015416606083015260048101546080830152600581015460ff16151560a08301526006015460c090910152565b610100810161324482856131e0565b6001600160a01b039290921660e09190910152919050565b6020808252602b908201527f496e697469616c697a61626c653a20636f6e7472616374206973206e6f74206960408201526a6e697469616c697a696e6760a81b606082015260800190565b60e08101612eaf82846131e0565b60006000198214156132c9576132c9613144565b5060010190565b600084516132e281846020890161306e565b606085901b6bffffffffffffffffffffffff1916908301908152835161330f81601484016020880161306e565b0160140195945050505050565b81516001600160a01b03908116825260208084015190830152604080840151821690830152606080840151909116908201526080808301519082015260a08083015115159082015260c0808301519082015260e08101612eaf56fea264697066735822122065139277c19743955fcfb0c6a420781db6902edce766854c469fdd1c9bd0fd9264736f6c634300080c0033",
  "linkReferences": {},
  "deployedLinkReferences": {}
}