{
  "_format": "hh-sol-artifact-1",
  "contractName": "SimpleMarketplaceService",
  "sourceName": "contracts/services/SimpleMarketplaceService.sol",
  "abi": [
    {
      "anonymous": false,
      "inputs": [
        {
          "indexed": false,
          "internalType": "uint8",
          "name": "version",
          "type": "uint8"
        }
      ],
      "name": "Initialized",
      "type": "event"
    },
    {
      "inputs": [],
      "name": "_admin",
      "outputs": [
        {
          "internalType": "address",
          "name": "",
          "type": "address"
        }
      ],
      "stateMutability": "view",
      "type": "function"
    },
    {
      "inputs": [
        {
          "internalType": "uint256",
          "name": "",
          "type": "uint256"
        }
      ],
      "name": "_arrayListingId",
      "outputs": [
        {
          "internalType": "bytes32",
          "name": "",
          "type": "bytes32"
        }
      ],
      "stateMutability": "view",
      "type": "function"
    },
    {
      "inputs": [
        {
          "internalType": "uint256",
          "name": "",
          "type": "uint256"
        }
      ],
      "name": "_arrayMakeOfferId",
      "outputs": [
        {
          "internalType": "bytes32",
          "name": "",
          "type": "bytes32"
        }
      ],
      "stateMutability": "view",
      "type": "function"
    },
    {
      "inputs": [
        {
          "internalType": "bytes32",
          "name": "",
          "type": "bytes32"
        }
      ],
      "name": "_listingTokens",
      "outputs": [
        {
          "internalType": "address",
          "name": "_collectionContract",
          "type": "address"
        },
        {
          "internalType": "uint256",
          "name": "_tokenId",
          "type": "uint256"
        },
        {
          "internalType": "address",
          "name": "_seller",
          "type": "address"
        },
        {
          "internalType": "uint256",
          "name": "_price",
          "type": "uint256"
        },
        {
          "internalType": "address",
          "name": "_erc20Token",
          "type": "address"
        },
        {
          "internalType": "bool",
          "name": "_closed",
          "type": "bool"
        },
        {
          "internalType": "uint256",
          "name": "_durationTime",
          "type": "uint256"
        }
      ],
      "stateMutability": "view",
      "type": "function"
    },
    {
      "inputs": [
        {
          "internalType": "bytes32",
          "name": "",
          "type": "bytes32"
        }
      ],
      "name": "_makeOfferTokens",
      "outputs": [
        {
          "internalType": "address",
          "name": "_collectionContract",
          "type": "address"
        },
        {
          "internalType": "uint256",
          "name": "_tokenId",
          "type": "uint256"
        },
        {
          "internalType": "address",
          "name": "_buyer",
          "type": "address"
        },
        {
          "internalType": "address",
          "name": "_erc20Token",
          "type": "address"
        },
        {
          "internalType": "uint256",
          "name": "_price",
          "type": "uint256"
        },
        {
          "internalType": "bool",
          "name": "_closed",
          "type": "bool"
        },
        {
          "internalType": "uint256",
          "name": "_durationTime",
          "type": "uint256"
        }
      ],
      "stateMutability": "view",
      "type": "function"
    },
    {
      "inputs": [],
      "name": "_parameterAddr",
      "outputs": [
        {
          "internalType": "address",
          "name": "",
          "type": "address"
        }
      ],
      "stateMutability": "view",
      "type": "function"
    },
    {
      "inputs": [
        {
          "internalType": "bytes32",
          "name": "offerId",
          "type": "bytes32"
        }
      ],
      "name": "acceptMakeOffer",
      "outputs": [],
      "stateMutability": "nonpayable",
      "type": "function"
    },
    {
      "inputs": [
        {
          "internalType": "bytes32",
          "name": "_offeringId",
          "type": "bytes32"
        }
      ],
      "name": "cancelListing",
      "outputs": [],
      "stateMutability": "nonpayable",
      "type": "function"
    },
    {
      "inputs": [
        {
          "internalType": "bytes32",
          "name": "offerId",
          "type": "bytes32"
        }
      ],
      "name": "cancelMakeOffer",
      "outputs": [],
      "stateMutability": "nonpayable",
      "type": "function"
    },
    {
      "inputs": [
        {
          "internalType": "address",
          "name": "newAdm",
          "type": "address"
        }
      ],
      "name": "changeAdmin",
      "outputs": [],
      "stateMutability": "nonpayable",
      "type": "function"
    },
    {
      "inputs": [
        {
          "internalType": "address",
          "name": "newAddr",
          "type": "address"
        }
      ],
      "name": "changeParamAddr",
      "outputs": [],
      "stateMutability": "nonpayable",
      "type": "function"
    },
    {
      "inputs": [
        {
          "internalType": "address",
          "name": "admin",
          "type": "address"
        },
        {
          "internalType": "address",
          "name": "parameterControl",
          "type": "address"
        }
      ],
      "name": "initialize",
      "outputs": [],
      "stateMutability": "nonpayable",
      "type": "function"
    },
    {
      "inputs": [
        {
          "components": [
            {
              "internalType": "address",
              "name": "_collectionContract",
              "type": "address"
            },
            {
              "internalType": "uint256",
              "name": "_tokenId",
              "type": "uint256"
            },
            {
              "internalType": "address",
              "name": "_seller",
              "type": "address"
            },
            {
              "internalType": "uint256",
              "name": "_price",
              "type": "uint256"
            },
            {
              "internalType": "address",
              "name": "_erc20Token",
              "type": "address"
            },
            {
              "internalType": "bool",
              "name": "_closed",
              "type": "bool"
            },
            {
              "internalType": "uint256",
              "name": "_durationTime",
              "type": "uint256"
            }
          ],
          "internalType": "struct Marketplace.ListingTokenData",
          "name": "listingData",
          "type": "tuple"
        }
      ],
      "name": "listToken",
      "outputs": [
        {
          "internalType": "bytes32",
          "name": "",
          "type": "bytes32"
        }
      ],
      "stateMutability": "nonpayable",
      "type": "function"
    },
    {
      "inputs": [
        {
          "components": [
            {
              "internalType": "address",
              "name": "_collectionContract",
              "type": "address"
            },
            {
              "internalType": "uint256",
              "name": "_tokenId",
              "type": "uint256"
            },
            {
              "internalType": "address",
              "name": "_buyer",
              "type": "address"
            },
            {
              "internalType": "address",
              "name": "_erc20Token",
              "type": "address"
            },
            {
              "internalType": "uint256",
              "name": "_price",
              "type": "uint256"
            },
            {
              "internalType": "bool",
              "name": "_closed",
              "type": "bool"
            },
            {
              "internalType": "uint256",
              "name": "_durationTime",
              "type": "uint256"
            }
          ],
          "internalType": "struct Marketplace.MakeOfferData",
          "name": "data",
          "type": "tuple"
        }
      ],
      "name": "makeOffer",
      "outputs": [
        {
          "internalType": "bytes32",
          "name": "",
          "type": "bytes32"
        }
      ],
      "stateMutability": "nonpayable",
      "type": "function"
    },
    {
      "inputs": [
        {
          "internalType": "bytes32",
          "name": "offeringId",
          "type": "bytes32"
        }
      ],
      "name": "purchaseToken",
      "outputs": [],
      "stateMutability": "payable",
      "type": "function"
    },
    {
      "inputs": [
        {
          "internalType": "address",
          "name": "receiver",
          "type": "address"
        },
        {
          "internalType": "address",
          "name": "erc20Addr",
          "type": "address"
        },
        {
          "internalType": "uint256",
          "name": "amount",
          "type": "uint256"
        }
      ],
      "name": "withdraw",
      "outputs": [],
      "stateMutability": "nonpayable",
      "type": "function"
    }
  ],
  "bytecode": "0x608060405234801561001057600080fd5b5061281d806100206000396000f3fe6080604052600436106100f35760003560e01c80639299e5521161008a578063d9e87e6111610059578063d9e87e61146103c0578063ed4ec201146103e0578063f1f2df0e14610400578063febfd6c31461042057600080fd5b80639299e552146102ab578063a3a1937c146102cb578063d2abb69c14610380578063d9caed12146103a057600080fd5b8063485cc955116100c6578063485cc9551461022b57806351351e3e1461024b57806372c035cf1461026b5780638f2839701461028b57600080fd5b806301bc45c9146100f85780631fd4d2ed146101355780633ac1089a146101635780633dd72c4014610178575b600080fd5b34801561010457600080fd5b50603454610118906001600160a01b031681565b6040516001600160a01b0390911681526020015b60405180910390f35b34801561014157600080fd5b506101556101503660046122fd565b610440565b60405190815260200161012c565b6101766101713660046122fd565b610461565b005b34801561018457600080fd5b506101e26101933660046122fd565b60386020526000908152604090208054600182015460028301546003840154600485015460058601546006909601546001600160a01b03958616969495938416949290931692909160ff169087565b604080516001600160a01b039889168152602081019790975294871694860194909452949091166060840152608083015291151560a082015260c081019190915260e00161012c565b34801561023757600080fd5b5061017661024636600461232b565b61047e565b34801561025757600080fd5b506101556102663660046123bf565b610642565b34801561027757600080fd5b50603554610118906001600160a01b031681565b34801561029757600080fd5b506101766102a6366004612446565b610665565b3480156102b757600080fd5b506101766102c63660046122fd565b6106f7565b3480156102d757600080fd5b506103356102e63660046122fd565b6036602052600090815260409020805460018201546002830154600384015460048501546005909501546001600160a01b03948516959394928316939192821691600160a01b900460ff169087565b604080516001600160a01b0398891681526020810197909752948716948601949094526060850192909252909316608083015291151560a082015260c081019190915260e00161012c565b34801561038c57600080fd5b5061015561039b36600461246a565b610700565b3480156103ac57600080fd5b506101766103bb3660046124d9565b610713565b3480156103cc57600080fd5b506101766103db3660046122fd565b61086d565b3480156103ec57600080fd5b506101556103fb3660046122fd565b61087e565b34801561040c57600080fd5b5061017661041b3660046122fd565b61088e565b34801561042c57600080fd5b5061017661043b366004612446565b610897565b6039818154811061045057600080fd5b600091825260209091200154905081565b610469610929565b61047281610983565b61047b60018055565b50565b600054610100900460ff161580801561049e5750600054600160ff909116105b806104b85750303b1580156104b8575060005460ff166001145b6105205760405162461bcd60e51b815260206004820152602e60248201527f496e697469616c697a61626c653a20636f6e747261637420697320616c72656160448201526d191e481a5b9a5d1a585b1a5e995960921b60648201526084015b60405180910390fd5b6000805460ff191660011790558015610543576000805461ff0019166101001790555b60408051808201909152600381526203130360ec1b60208201526001600160a01b0384166105845760405162461bcd60e51b8152600401610517919061254a565b5060408051808201909152600381526203130360ec1b60208201526001600160a01b0383166105c65760405162461bcd60e51b8152600401610517919061254a565b50603480546001600160a01b038086166001600160a01b0319928316179092556035805492851692909116919091179055801561063d576000805461ff0019169055604051600181527f7f26b83ff96e1f2b6a682f133852f6798a09c465da95921460cefb38474024989060200160405180910390a15b505050565b600061064c610929565b61065582611256565b905061066060018055565b919050565b6034546001600160a01b03163314801561068757506001600160a01b03811615155b6040518060400160405280600381526020016231303160e81b815250906106c15760405162461bcd60e51b8152600401610517919061254a565b506034546001600160a01b0382811691161461047b57603480546001600160a01b0383166001600160a01b031990911617905550565b61047b8161161f565b600061070a610929565b610655826116fe565b61071b610929565b60345460408051808201909152600381526231303160e81b6020820152906001600160a01b031633146107615760405162461bcd60e51b8152600401610517919061254a565b5060006001600160a01b0383166107e2578147101561077f57600080fd5b6040516001600160a01b038516908390600081818185875af1925050503d80600081146107c8576040519150601f19603f3d011682016040523d82523d6000602084013e6107cd565b606091505b505080915050806107dd57600080fd5b610863565b60405163a9059cbb60e01b81526001600160a01b0385811660048301526024820184905284919082169063a9059cbb906044016020604051808303816000875af1158015610834573d6000803e3d6000fd5b505050506040513d601f19601f82011682018060405250810190610858919061257d565b61086157600080fd5b505b5061063d60018055565b610875610929565b610472816119a7565b6037818154811061045057600080fd5b61047b8161206b565b6034546001600160a01b0316331480156108b957506001600160a01b03811615155b6040518060400160405280600381526020016231303160e81b815250906108f35760405162461bcd60e51b8152600401610517919061254a565b506035546001600160a01b0382811691161461047b57603580546001600160a01b0383166001600160a01b031990911617905550565b6002600154141561097c5760405162461bcd60e51b815260206004820152601f60248201527f5265656e7472616e637947756172643a207265656e7472616e742063616c6c006044820152606401610517565b6002600155565b600081815260366020908152604091829020825160e08101845281546001600160a01b03908116825260018301549382019390935260028201548316938101939093526003810154606084015260048101549182166080840152600160a01b90910460ff1615801560a084015260059091015460c083015280610a0957508060c0015142105b6040518060400160405280600381526020016219981960e91b81525090610a435760405162461bcd60e51b8152600401610517919061254a565b5080516080808301516040805160e0810182526000808252602082018190529181018290526060810182905292830181905260a0830181905260c083015282916001600160a01b0390911615159060008215610bce57506080808601516040805160e08101825233808252828a01516001600160a01b0390811660208401526060808c01805185870152519084015292516370a0823160e01b8152600481019190915292939092908301918416906370a0823190602401602060405180830381865afa158015610b17573d6000803e3d6000fd5b505050506040513d601f19601f82011682018060405250810190610b3b919061259a565b8152604051636eb1769f60e11b81523360048201523060248201526020909101906001600160a01b0384169063dd62ed3e90604401602060405180830381865afa158015610b8d573d6000803e3d6000fd5b505050506040513d601f19601f82011682018060405250810190610bb1919061259a565b815260200187608001516001600160a01b03168152509150610c2e565b6040518060e00160405280336001600160a01b0316815260200187604001516001600160a01b031681526020018760600151815260200187606001518152602001600081526020016000815260200160006001600160a01b031681525091505b85604001516001600160a01b0316846001600160a01b0316636352211e88602001516040518263ffffffff1660e01b8152600401610c6e91815260200190565b602060405180830381865afa158015610c8b573d6000803e3d6000fd5b505050506040513d601f19601f82011682018060405250810190610caf91906125b3565b6001600160a01b0316146040518060400160405280600381526020016203330360ec1b81525090610cf35760405162461bcd60e51b8152600401610517919061254a565b508215610d855760408083015160a08401518251808401909352600383526233303560e81b60208401521015610d3c5760405162461bcd60e51b8152600401610517919061254a565b506040808301516080840151825180840190935260038352620ccc0d60ea1b60208401521015610d7f5760405162461bcd60e51b8152600401610517919061254a565b50610dc5565b6040808301518151808301909252600382526233303360e81b6020830152341015610dc35760405162461bcd60e51b8152600401610517919061254a565b505b600087815260366020908152604091829020600401548251808401909352600383526219981960e91b91830191909152600160a01b900460ff1615610e1d5760405162461bcd60e51b8152600401610517919061254a565b5081516020870151604051632142170760e11b81526001600160a01b038716926342842e0e92610e5392309291906004016125d0565b600060405180830381600087803b158015610e6d57600080fd5b505af1158015610e81573d6000803e3d6000fd5b50506035546040805160808101825260008082526020808301829052828401829052606083019190915282518084018452601b81527f4d41524b4554504c4143455f42454e454649545f50455243454e540000000000918101919091529151636d12dce160e01b81526001600160a01b03909316945092508391636d12dce191610f0d9160040161254a565b602060405180830381865afa158015610f2a573d6000803e3d6000fd5b505050506040513d601f19601f82011682018060405250810190610f4e919061259a565b60408201819052610f62576109c460408201525b604081015115610fa95761271081604001518560600151610f83919061260a565b610f8d9190612629565b60608201819052604085018051610fa590839061264b565b9052505b841561111a57835160608501516040516323b872dd60e01b81526001600160a01b038616926323b872dd92610fe3923091906004016125d0565b6020604051808303816000875af1158015611002573d6000803e3d6000fd5b505050506040513d601f19601f82011682018060405250810190611026919061257d565b6040518060400160405280600381526020016219981b60e91b815250906110605760405162461bcd60e51b8152600401610517919061254a565b506040808901518582015191516323b872dd60e01b81526001600160a01b038616926323b872dd92611097923092906004016125d0565b6020604051808303816000875af11580156110b6573d6000803e3d6000fd5b505050506040513d601f19601f820116820180604052508101906110da919061257d565b6040518060400160405280600381526020016219981b60e91b815250906111145760405162461bcd60e51b8152600401610517919061254a565b506111ef565b60408051808201909152600381526233303360e81b6020820152476111525760405162461bcd60e51b8152600401610517919061254a565b50600088604001516001600160a01b0316856040015160405160006040518083038185875af1925050503d80600081146111a8576040519150601f19603f3d011682016040523d82523d6000602084013e6111ad565b606091505b50509050806040518060400160405280600381526020016219981b60e91b815250906111ec5760405162461bcd60e51b8152600401610517919061254a565b50505b60008981526036602052604090819020600401805460ff60a01b1916600160a01b1790555189907f0d67ca70fa9836b4bb7c89f81cb4844dfaac024fee75d9b3f4a8b627ff18353c90611243908b90612662565b60405180910390a2505050505050505050565b805160208201516040516331a9108f60e11b815260048101919091526000919033906001600160a01b03831690636352211e90602401602060405180830381865afa1580156112a9573d6000803e3d6000fd5b505050506040513d601f19601f820116820180604052508101906112cd91906125b3565b6001600160a01b0316146040518060400160405280600381526020016203330360ec1b815250906113115760405162461bcd60e51b8152600401610517919061254a565b5060008360600151116040518060400160405280600381526020016206660760eb1b815250906113545760405162461bcd60e51b8152600401610517919061254a565b5060008360c00151116040518060400160405280600381526020016233303960e81b815250906113975760405162461bcd60e51b8152600401610517919061254a565b5060405163e985e9c560e01b81523360048201523060248201526001600160a01b0382169063e985e9c590604401602060405180830381865afa1580156113e2573d6000803e3d6000fd5b505050506040513d601f19601f82011682018060405250810190611406919061257d565b60408051808201909152600381526233303160e81b60208201529015156001146114435760405162461bcd60e51b8152600401610517919061254a565b5060338054906000611454836126bd565b91905055506000611466603354612187565b8451602086015161147690612187565b604051602001611488939291906126d8565b604051602081830303815290604052805190602001209050836036600083815260200190815260200160002060008201518160000160006101000a8154816001600160a01b0302191690836001600160a01b031602179055506020820151816001015560408201518160020160006101000a8154816001600160a01b0302191690836001600160a01b031602179055506060820151816003015560808201518160040160006101000a8154816001600160a01b0302191690836001600160a01b0316021790555060a08201518160040160146101000a81548160ff02191690831515021790555060c08201518160050155905050336036600083815260200190815260200160002060020160006101000a8154816001600160a01b0302191690836001600160a01b031602179055506037819080600181540180825580915050600190039060005260206000200160009091909190915055807f3ccf769eda81980d79028be70b31cbf4781fd3de79e39294f5a3155cd871fe42856040516116109190612662565b60405180910390a29392505050565b600081815260366020908152604091829020600201548251808401909352600383526203330360ec1b918301919091526001600160a01b031633146116775760405162461bcd60e51b8152600401610517919061254a565b50600081815260366020526040902060040154600160a01b900460ff161561169e57600080fd5b6000818152603660205260409081902060048101805460ff60a01b1916600160a01b179055905182917f70dbf33ef944f625cca697b383d06641eadb22e5f56d9f755930ea29a97953dc916116f39190612724565b60405180910390a250565b606081015160408051808201909152600381526203130360ec1b60208201526000916001600160a01b03166117465760405162461bcd60e51b8152600401610517919061254a565b50815160408051808201909152600381526203130360ec1b6020820152906001600160a01b031661178a5760405162461bcd60e51b8152600401610517919061254a565b5060008260800151116040518060400160405280600381526020016206660760eb1b815250906117cd5760405162461bcd60e51b8152600401610517919061254a565b5060008260c00151116040518060400160405280600381526020016233303960e81b815250906118105760405162461bcd60e51b8152600401610517919061254a565b5060608201516080830151604051636eb1769f60e11b81523360048201523060248201526001600160a01b0383169063dd62ed3e90604401602060405180830381865afa158015611865573d6000803e3d6000fd5b505050506040513d601f19601f82011682018060405250810190611889919061259a565b101561189457600080fd5b603380549060006118a4836126bd565b919050555060006118b6603354612187565b845160208601516118c690612187565b6040516020016118d8939291906126d8565b60408051808303601f19018152828252805160209182012060008181526038835292909220875181546001600160a01b03199081166001600160a01b0392831617835592890151600183015560028201805460608b01516003850180548716919094161790925560808a0151600484015560a08a015160058401805460ff191691151591909117905560c08a015160069093019290925590911633179055915081907f1101875263abf1b7c3fc9cf51275180975f69f768a3c09e1b453fa0cad6f29b19061161090879061278c565b600081815260386020908152604091829020825160e08101845281546001600160a01b03908116825260018301549382019390935260028201548316938101939093526003810154909116606083015260048101546080830152600581015460ff1615801560a084015260069091015460c083015280611a2a57508060c0015142105b6040518060400160405280600381526020016219981960e91b81525090611a645760405162461bcd60e51b8152600401610517919061254a565b50805160208201516040516331a9108f60e11b815233916001600160a01b03841691636352211e91611a9c9160040190815260200190565b602060405180830381865afa158015611ab9573d6000803e3d6000fd5b505050506040513d601f19601f82011682018060405250810190611add91906125b3565b6001600160a01b031614611af057600080fd5b60405163e985e9c560e01b81523360048201523060248201526001600160a01b0382169063e985e9c590604401602060405180830381865afa158015611b3a573d6000803e3d6000fd5b505050506040513d601f19601f82011682018060405250810190611b5e919061257d565b611b6757600080fd5b606082015160808301516040808501519051636eb1769f60e11b81526001600160a01b0391821660048201523060248201529083169063dd62ed3e90604401602060405180830381865afa158015611bc3573d6000803e3d6000fd5b505050506040513d601f19601f82011682018060405250810190611be7919061259a565b1015611bf257600080fd5b6040805160e08101825284820180516001600160a01b0390811683523360208401526080808801805185870152516060850152915193516370a0823160e01b8152938116600485015260009391830191908516906370a0823190602401602060405180830381865afa158015611c6c573d6000803e3d6000fd5b505050506040513d601f19601f82011682018060405250810190611c90919061259a565b81526040808701519051636eb1769f60e11b81526001600160a01b0391821660048201523060248201526020909201919085169063dd62ed3e90604401602060405180830381865afa158015611cea573d6000803e3d6000fd5b505050506040513d601f19601f82011682018060405250810190611d0e919061259a565b81526060808701516001600160a01b039081166020938401526035546040805160808101825260008082528187018190528183018190529481019490945280518082018252601b81527f4d41524b4554504c4143455f42454e454649545f50455243454e5400000000009581019590955251636d12dce160e01b8152949550169290918391636d12dce191611da59160040161254a565b602060405180830381865afa158015611dc2573d6000803e3d6000fd5b505050506040513d601f19601f82011682018060405250810190611de6919061259a565b60408201819052611dfa576109c460408201525b604081015115611e415761271081604001518460600151611e1b919061260a565b611e259190612629565b60608201819052604084018051611e3d90839061264b565b9052505b825160608401516040516323b872dd60e01b81526001600160a01b038716926323b872dd92611e75923091906004016125d0565b6020604051808303816000875af1158015611e94573d6000803e3d6000fd5b505050506040513d601f19601f82011682018060405250810190611eb8919061257d565b6040518060400160405280600381526020016219981b60e91b81525090611ef25760405162461bcd60e51b8152600401610517919061254a565b5060408084015190516323b872dd60e01b81526001600160a01b038616916323b872dd91611f279130913391906004016125d0565b6020604051808303816000875af1158015611f46573d6000803e3d6000fd5b505050506040513d601f19601f82011682018060405250810190611f6a919061257d565b6040518060400160405280600381526020016219981b60e91b81525090611fa45760405162461bcd60e51b8152600401610517919061254a565b5082516020870151604051632142170760e11b81526001600160a01b038816926342842e0e92611fda92309291906004016125d0565b600060405180830381600087803b158015611ff457600080fd5b505af1158015612008573d6000803e3d6000fd5b50505060008881526038602052604090819020600501805460ff19166001179055518891507f18f1ceedf8920f811ccf39358c2a2164a50e62c93ad4dafc82e6906cf81dc0a49061205a90899061278c565b60405180910390a250505050505050565b600081815260386020908152604091829020600201548251808401909352600383526203130360ec1b918301919091526001600160a01b031633146120c35760405162461bcd60e51b8152600401610517919061254a565b5060008181526038602052604090206005015460ff16156120e357600080fd5b6000818152603860205260409081902060058101805460ff19166001179055905182917fd1e7e193455ba4241e816f1b6fa787b59dad27c1279c69179f6cb4b4387bf543916116f3919081546001600160a01b03908116825260018301546020830152600283015481166040830152600383015416606082015260048201546080820152600582015460ff16151560a082015260069091015460c082015260e00190565b6060600061219483612224565b600101905060008167ffffffffffffffff8111156121b4576121b4612364565b6040519080825280601f01601f1916602001820160405280156121de576020820181803683370190505b5090508181016020015b600019016f181899199a1a9b1b9c1cb0b131b232b360811b600a86061a8153600a85049450846122175761221c565b6121e8565b509392505050565b60008072184f03e93ff9f4daa797ed6e38ed64bf6a1f0160401b83106122635772184f03e93ff9f4daa797ed6e38ed64bf6a1f0160401b830492506040015b6d04ee2d6d415b85acef8100000000831061228f576d04ee2d6d415b85acef8100000000830492506020015b662386f26fc1000083106122ad57662386f26fc10000830492506010015b6305f5e10083106122c5576305f5e100830492506008015b61271083106122d957612710830492506004015b606483106122eb576064830492506002015b600a83106122f7576001015b92915050565b60006020828403121561230f57600080fd5b5035919050565b6001600160a01b038116811461047b57600080fd5b6000806040838503121561233e57600080fd5b823561234981612316565b9150602083013561235981612316565b809150509250929050565b634e487b7160e01b600052604160045260246000fd5b60405160e0810167ffffffffffffffff811182821017156123ab57634e487b7160e01b600052604160045260246000fd5b60405290565b801515811461047b57600080fd5b600060e082840312156123d157600080fd5b6123d961237a565b82356123e481612316565b81526020838101359082015260408301356123fe81612316565b604082015260608381013590820152608083013561241b81612316565b608082015260a083013561242e816123b1565b60a082015260c0928301359281019290925250919050565b60006020828403121561245857600080fd5b813561246381612316565b9392505050565b600060e0828403121561247c57600080fd5b61248461237a565b823561248f81612316565b81526020838101359082015260408301356124a981612316565b604082015260608301356124bc81612316565b60608201526080838101359082015260a083013561242e816123b1565b6000806000606084860312156124ee57600080fd5b83356124f981612316565b9250602084013561250981612316565b929592945050506040919091013590565b60005b8381101561253557818101518382015260200161251d565b83811115612544576000848401525b50505050565b602081526000825180602084015261256981604085016020870161251a565b601f01601f19169190910160400192915050565b60006020828403121561258f57600080fd5b8151612463816123b1565b6000602082840312156125ac57600080fd5b5051919050565b6000602082840312156125c557600080fd5b815161246381612316565b6001600160a01b039384168152919092166020820152604081019190915260600190565b634e487b7160e01b600052601160045260246000fd5b6000816000190483118215151615612624576126246125f4565b500290565b60008261264657634e487b7160e01b600052601260045260246000fd5b500490565b60008282101561265d5761265d6125f4565b500390565b81516001600160a01b03908116825260208084015190830152604080840151821690830152606080840151908301526080808401519091169082015260a08281015115159082015260c0918201519181019190915260e00190565b60006000198214156126d1576126d16125f4565b5060010190565b600084516126ea81846020890161251a565b606085901b6bffffffffffffffffffffffff1916908301908152835161271781601484016020880161251a565b0160140195945050505050565b81546001600160a01b03908116825260018301546020830152600283015481166040830152600383015460608301526004830154808216608084015260e08301919061277a60a0850160ff8360a01c1615159052565b5050600583015460c083015292915050565b81516001600160a01b03908116825260208084015190830152604080840151821690830152606080840151909116908201526080808301519082015260a08281015115159082015260c0918201519181019190915260e0019056fea2646970667358221220fb78f602f8354681afca93ed452a673fc066b80a3411c17a1930311980bc63ac64736f6c634300080c0033",
  "linkReferences": {},
  "deployedLinkReferences": {}
}