{
  "_format": "hh-sol-artifact-1",
  "contractName": "SimpleMarketplaceService",
  "sourceName": "contracts/services/SimpleMarketplaceService.sol",
  "abi": [
    {
      "anonymous": false,
      "inputs": [
        {
          "indexed": false,
          "internalType": "uint8",
          "name": "version",
          "type": "uint8"
        }
      ],
      "name": "Initialized",
      "type": "event"
    },
    {
      "inputs": [],
      "name": "_admin",
      "outputs": [
        {
          "internalType": "address",
          "name": "",
          "type": "address"
        }
      ],
      "stateMutability": "view",
      "type": "function"
    },
    {
      "inputs": [
        {
          "internalType": "uint256",
          "name": "",
          "type": "uint256"
        }
      ],
      "name": "_arrayOffering",
      "outputs": [
        {
          "internalType": "bytes32",
          "name": "",
          "type": "bytes32"
        }
      ],
      "stateMutability": "view",
      "type": "function"
    },
    {
      "inputs": [
        {
          "internalType": "bytes32",
          "name": "",
          "type": "bytes32"
        }
      ],
      "name": "_offeringRegistry",
      "outputs": [
        {
          "internalType": "address",
          "name": "offerer",
          "type": "address"
        },
        {
          "internalType": "address",
          "name": "hostContract",
          "type": "address"
        },
        {
          "internalType": "uint256",
          "name": "tokenId",
          "type": "uint256"
        },
        {
          "internalType": "uint256",
          "name": "price",
          "type": "uint256"
        },
        {
          "internalType": "bool",
          "name": "closed",
          "type": "bool"
        },
        {
          "internalType": "address",
          "name": "erc20Token",
          "type": "address"
        }
      ],
      "stateMutability": "view",
      "type": "function"
    },
    {
      "inputs": [],
      "name": "_parameterAddr",
      "outputs": [
        {
          "internalType": "address",
          "name": "",
          "type": "address"
        }
      ],
      "stateMutability": "view",
      "type": "function"
    },
    {
      "inputs": [],
      "name": "arrayOffering",
      "outputs": [
        {
          "internalType": "bytes32[]",
          "name": "",
          "type": "bytes32[]"
        }
      ],
      "stateMutability": "view",
      "type": "function"
    },
    {
      "inputs": [
        {
          "internalType": "address",
          "name": "newAdm",
          "type": "address"
        }
      ],
      "name": "changeAdmin",
      "outputs": [],
      "stateMutability": "nonpayable",
      "type": "function"
    },
    {
      "inputs": [
        {
          "internalType": "address",
          "name": "newAddr",
          "type": "address"
        }
      ],
      "name": "changeParamAddr",
      "outputs": [],
      "stateMutability": "nonpayable",
      "type": "function"
    },
    {
      "inputs": [
        {
          "internalType": "bytes32",
          "name": "_offeringId",
          "type": "bytes32"
        }
      ],
      "name": "closeOffering",
      "outputs": [],
      "stateMutability": "payable",
      "type": "function"
    },
    {
      "inputs": [
        {
          "internalType": "address",
          "name": "admin",
          "type": "address"
        },
        {
          "internalType": "address",
          "name": "parameterControl",
          "type": "address"
        }
      ],
      "name": "initialize",
      "outputs": [],
      "stateMutability": "nonpayable",
      "type": "function"
    },
    {
      "inputs": [
        {
          "internalType": "address",
          "name": "_hostContract",
          "type": "address"
        },
        {
          "internalType": "uint256",
          "name": "_tokenId",
          "type": "uint256"
        },
        {
          "internalType": "address",
          "name": "_erc20Token",
          "type": "address"
        },
        {
          "internalType": "uint256",
          "name": "_price",
          "type": "uint256"
        },
        {
          "internalType": "bool",
          "name": "_withdrawImm",
          "type": "bool"
        }
      ],
      "name": "placeOffering",
      "outputs": [
        {
          "internalType": "bytes32",
          "name": "",
          "type": "bytes32"
        }
      ],
      "stateMutability": "nonpayable",
      "type": "function"
    },
    {
      "inputs": [
        {
          "internalType": "address",
          "name": "receiver",
          "type": "address"
        },
        {
          "internalType": "address",
          "name": "erc20Addr",
          "type": "address"
        },
        {
          "internalType": "uint256",
          "name": "amount",
          "type": "uint256"
        }
      ],
      "name": "withdraw",
      "outputs": [],
      "stateMutability": "nonpayable",
      "type": "function"
    }
  ],
  "bytecode": "0x608060405234801561001057600080fd5b506117f2806100206000396000f3fe60806040526004361061009c5760003560e01c806372c035cf1161006457806372c035cf146101e05780638f2839701461020057806394a58f7e14610220578063bda06b3714610240578063d9caed1214610262578063febfd6c31461028257600080fd5b806301bc45c9146100a1578063065ecabf146100de5780630f9249011461017d578063330ef231146101ab578063485cc955146101c0575b600080fd5b3480156100ad57600080fd5b506034546100c1906001600160a01b031681565b6040516001600160a01b0390911681526020015b60405180910390f35b3480156100ea57600080fd5b5061013f6100f936600461149e565b603660205260009081526040902080546001820154600283015460038401546004909401546001600160a01b03938416949284169391929160ff82169161010090041686565b604080516001600160a01b039788168152958716602087015285019390935260608401919091521515608083015290911660a082015260c0016100d5565b34801561018957600080fd5b5061019d61019836600461149e565b6102a2565b6040519081526020016100d5565b6101be6101b936600461149e565b6102c3565b005b3480156101cc57600080fd5b506101be6101db3660046114cc565b610b31565b3480156101ec57600080fd5b506035546100c1906001600160a01b031681565b34801561020c57600080fd5b506101be61021b366004611505565b610cf0565b34801561022c57600080fd5b5061019d61023b366004611537565b610d82565b34801561024c57600080fd5b5061025561108a565b6040516100d59190611596565b34801561026e57600080fd5b506101be61027d3660046115da565b6110e2565b34801561028e57600080fd5b506101be61029d366004611505565b61123c565b603781815481106102b257600080fd5b600091825260209091200154905081565b6102cb6112ce565b6000818152603660209081526040808320815160c0808201845282546001600160a01b03908116808452600185015482168488018190526002860154858801819052600387015460608088019190915260049097015460ff8116151560808089019190915261010090910490941660a080880182905289519687018a528b87529986018b90529785018a9052958401899052918301889052958201969096529094938493909190151590600082156104a3575060a08701516040805160c081018252338082526060808c0180516020850152518385015292516370a0823160e01b8152600481019190915290918201906001600160a01b038416906370a0823190602401602060405180830381865afa1580156103ec573d6000803e3d6000fd5b505050506040513d601f19601f82011682018060405250810190610410919061161b565b8152604051636eb1769f60e11b81523360048201523060248201526020909101906001600160a01b0384169063dd62ed3e90604401602060405180830381865afa158015610462573d6000803e3d6000fd5b505050506040513d601f19601f82011682018060405250810190610486919061161b565b81526020018960a001516001600160a01b031681525091506104f0565b6040518060c00160405280336001600160a01b031681526020018960600151815260200189606001518152602001600081526020016000815260200160006001600160a01b031681525091505b6040516331a9108f60e11b8152600481018690526001600160a01b038086169190881690636352211e90602401602060405180830381865afa15801561053a573d6000803e3d6000fd5b505050506040513d601f19601f8201168201806040525081019061055e9190611634565b6001600160a01b0316146040518060400160405280600381526020016203330360ec1b815250906105ab5760405162461bcd60e51b81526004016105a29190611681565b60405180910390fd5b508215610645578160200151826080015110156040518060400160405280600381526020016233303560e81b815250906105f85760405162461bcd60e51b81526004016105a29190611681565b50816020015182606001511015604051806040016040528060038152602001620ccc0d60ea1b8152509061063f5760405162461bcd60e51b81526004016105a29190611681565b50610689565b81602001513410156040518060400160405280600381526020016233303360e81b815250906106875760405162461bcd60e51b81526004016105a29190611681565b505b600089815260366020908152604091829020600401548251808401909352600383526219981960e91b9183019190915260ff16156106da5760405162461bcd60e51b81526004016105a29190611681565b508151604051632142170760e11b81526001600160a01b038681166004830152918216602482015260448101879052908716906342842e0e90606401600060405180830381600087803b15801561073057600080fd5b505af1158015610744573d6000803e3d6000fd5b50506035546040805160a0810182526000808252602080830182905282840182905260608301829052608083019190915282518084018452601b81527f4d41524b4554504c4143455f42454e454649545f50455243454e540000000000918101919091529151636d12dce160e01b81526001600160a01b03909316945092508391636d12dce1916107d791600401611681565b602060405180830381865afa1580156107f4573d6000803e3d6000fd5b505050506040513d601f19601f82011682018060405250810190610818919061161b565b6040820181905261082c576109c460408201525b604081015115610873576127108160400151856040015161084d91906116ca565b61085791906116e9565b6060820181905260208501805161086f90839061170b565b9052505b84156109f857835160408086015190516323b872dd60e01b81526001600160a01b0392831660048201523060248201526044810191909152908416906323b872dd906064016020604051808303816000875af11580156108d7573d6000803e3d6000fd5b505050506040513d601f19601f820116820180604052508101906108fb9190611722565b6040518060400160405280600381526020016219981b60e91b815250906109355760405162461bcd60e51b81526004016105a29190611681565b50895160208501516040516323b872dd60e01b81523060048201526001600160a01b0392831660248201526044810191909152908416906323b872dd906064016020604051808303816000875af1158015610994573d6000803e3d6000fd5b505050506040513d601f19601f820116820180604052508101906109b89190611722565b6040518060400160405280600381526020016219981b60e91b815250906109f25760405162461bcd60e51b81526004016105a29190611681565b50610ac8565b60408051808201909152600381526233303360e81b602082015247610a305760405162461bcd60e51b81526004016105a29190611681565b50895160208501516040516000926001600160a01b031691908381818185875af1925050503d8060008114610a81576040519150601f19603f3d011682016040523d82523d6000602084013e610a86565b606091505b50509050806040518060400160405280600381526020016219981b60e91b81525090610ac55760405162461bcd60e51b81526004016105a29190611681565b50505b60008b815260366020526040808220600401805460ff19166001179055855190516001600160a01b03909116918d917f0cfb1c3841b1ebe2ad43e9d641c358c0d40c4a10fc3c2ee73fd956a2658ed1449190a350505050505050505050610b2e60018055565b50565b600054610100900460ff1615808015610b515750600054600160ff909116105b80610b6b5750303b158015610b6b575060005460ff166001145b610bce5760405162461bcd60e51b815260206004820152602e60248201527f496e697469616c697a61626c653a20636f6e747261637420697320616c72656160448201526d191e481a5b9a5d1a585b1a5e995960921b60648201526084016105a2565b6000805460ff191660011790558015610bf1576000805461ff0019166101001790555b60408051808201909152600381526203130360ec1b60208201526001600160a01b038416610c325760405162461bcd60e51b81526004016105a29190611681565b5060408051808201909152600381526203130360ec1b60208201526001600160a01b038316610c745760405162461bcd60e51b81526004016105a29190611681565b50603480546001600160a01b038086166001600160a01b03199283161790925560358054928516929091169190911790558015610ceb576000805461ff0019169055604051600181527f7f26b83ff96e1f2b6a682f133852f6798a09c465da95921460cefb38474024989060200160405180910390a15b505050565b6034546001600160a01b031633148015610d1257506001600160a01b03811615155b6040518060400160405280600381526020016231303160e81b81525090610d4c5760405162461bcd60e51b81526004016105a29190611681565b506034546001600160a01b03828116911614610b2e57603480546001600160a01b0383166001600160a01b031990911617905550565b6000610d8c6112ce565b6040516331a9108f60e11b8152600481018690523390879082906001600160a01b03831690636352211e90602401602060405180830381865afa158015610dd7573d6000803e3d6000fd5b505050506040513d601f19601f82011682018060405250810190610dfb9190611634565b6001600160a01b0316146040518060400160405280600381526020016203330360ec1b81525090610e3f5760405162461bcd60e51b81526004016105a29190611681565b5060405163e985e9c560e01b81526001600160a01b0383811660048301523060248301526000919083169063e985e9c590604401602060405180830381865afa158015610e90573d6000803e3d6000fd5b505050506040513d601f19601f82011682018060405250810190610eb49190611722565b60408051808201909152600381526233303160e81b6020820152909150600182151514610ef45760405162461bcd60e51b81526004016105a29190611681565b5060338054906000610f058361173f565b91905055506000610f17603354611328565b8a610f218b611328565b604051602001610f339392919061175a565b60408051601f19818403018152918152815160209283012060008181526036909352912080546001600160a01b038088166001600160a01b03199283161783556001830180548f8316931692909217909155600282018c90556003909101899055909150881615610fd25760008181526036602052604090206004018054610100600160a81b0319166101006001600160a01b038b1602179055610ff3565b60008181526036602052604090206004018054610100600160a81b03191690555b603780546001810182556000919091527f42a7b7dd785cd69714a189dffb3fd7d7174edc9ece837694ce50f7078f7c31ae01819055604080518a8152602081018990526001600160a01b0386811692908d169184917f9dba34c4719780505d509c311c67b3b9681265dd28ebfc72dd738fa57cba0fda910160405180910390a4935050505061108160018055565b95945050505050565b606060378054806020026020016040519081016040528092919081815260200182805480156110d857602002820191906000526020600020905b8154815260200190600101908083116110c4575b5050505050905090565b6110ea6112ce565b60345460408051808201909152600381526231303160e81b6020820152906001600160a01b031633146111305760405162461bcd60e51b81526004016105a29190611681565b5060006001600160a01b0383166111b1578147101561114e57600080fd5b6040516001600160a01b038516908390600081818185875af1925050503d8060008114611197576040519150601f19603f3d011682016040523d82523d6000602084013e61119c565b606091505b505080915050806111ac57600080fd5b611232565b60405163a9059cbb60e01b81526001600160a01b0385811660048301526024820184905284919082169063a9059cbb906044016020604051808303816000875af1158015611203573d6000803e3d6000fd5b505050506040513d601f19601f820116820180604052508101906112279190611722565b61123057600080fd5b505b50610ceb60018055565b6034546001600160a01b03163314801561125e57506001600160a01b03811615155b6040518060400160405280600381526020016231303160e81b815250906112985760405162461bcd60e51b81526004016105a29190611681565b506035546001600160a01b03828116911614610b2e57603580546001600160a01b0383166001600160a01b031990911617905550565b600260015414156113215760405162461bcd60e51b815260206004820152601f60248201527f5265656e7472616e637947756172643a207265656e7472616e742063616c6c0060448201526064016105a2565b6002600155565b60606000611335836113c5565b600101905060008167ffffffffffffffff811115611355576113556117a6565b6040519080825280601f01601f19166020018201604052801561137f576020820181803683370190505b5090508181016020015b600019016f181899199a1a9b1b9c1cb0b131b232b360811b600a86061a8153600a85049450846113b8576113bd565b611389565b509392505050565b60008072184f03e93ff9f4daa797ed6e38ed64bf6a1f0160401b83106114045772184f03e93ff9f4daa797ed6e38ed64bf6a1f0160401b830492506040015b6d04ee2d6d415b85acef81000000008310611430576d04ee2d6d415b85acef8100000000830492506020015b662386f26fc10000831061144e57662386f26fc10000830492506010015b6305f5e1008310611466576305f5e100830492506008015b612710831061147a57612710830492506004015b6064831061148c576064830492506002015b600a8310611498576001015b92915050565b6000602082840312156114b057600080fd5b5035919050565b6001600160a01b0381168114610b2e57600080fd5b600080604083850312156114df57600080fd5b82356114ea816114b7565b915060208301356114fa816114b7565b809150509250929050565b60006020828403121561151757600080fd5b8135611522816114b7565b9392505050565b8015158114610b2e57600080fd5b600080600080600060a0868803121561154f57600080fd5b853561155a816114b7565b9450602086013593506040860135611571816114b7565b925060608601359150608086013561158881611529565b809150509295509295909350565b6020808252825182820181905260009190848201906040850190845b818110156115ce578351835292840192918401916001016115b2565b50909695505050505050565b6000806000606084860312156115ef57600080fd5b83356115fa816114b7565b9250602084013561160a816114b7565b929592945050506040919091013590565b60006020828403121561162d57600080fd5b5051919050565b60006020828403121561164657600080fd5b8151611522816114b7565b60005b8381101561166c578181015183820152602001611654565b8381111561167b576000848401525b50505050565b60208152600082518060208401526116a0816040850160208701611651565b601f01601f19169190910160400192915050565b634e487b7160e01b600052601160045260246000fd5b60008160001904831182151516156116e4576116e46116b4565b500290565b60008261170657634e487b7160e01b600052601260045260246000fd5b500490565b60008282101561171d5761171d6116b4565b500390565b60006020828403121561173457600080fd5b815161152281611529565b6000600019821415611753576117536116b4565b5060010190565b6000845161176c818460208901611651565b606085901b6bffffffffffffffffffffffff19169083019081528351611799816014840160208801611651565b0160140195945050505050565b634e487b7160e01b600052604160045260246000fdfea2646970667358221220bbab3650809071130bb4d1188d2c5c73a6ac75273da9b19765cdcb651663c16e64736f6c634300080c0033",
  "linkReferences": {},
  "deployedLinkReferences": {}
}