{
  "_format": "hh-sol-artifact-1",
  "contractName": "SimpleMarketplaceService",
  "sourceName": "contracts/services/SimpleMarketplaceService.sol",
  "abi": [
    {
      "anonymous": false,
      "inputs": [
        {
          "indexed": false,
          "internalType": "uint8",
          "name": "version",
          "type": "uint8"
        }
      ],
      "name": "Initialized",
      "type": "event"
    },
    {
      "inputs": [],
      "name": "_admin",
      "outputs": [
        {
          "internalType": "address",
          "name": "",
          "type": "address"
        }
      ],
      "stateMutability": "view",
      "type": "function"
    },
    {
      "inputs": [
        {
          "internalType": "uint256",
          "name": "",
          "type": "uint256"
        }
      ],
      "name": "_arrayListingId",
      "outputs": [
        {
          "internalType": "bytes32",
          "name": "",
          "type": "bytes32"
        }
      ],
      "stateMutability": "view",
      "type": "function"
    },
    {
      "inputs": [
        {
          "internalType": "uint256",
          "name": "",
          "type": "uint256"
        }
      ],
      "name": "_arrayMakeOfferId",
      "outputs": [
        {
          "internalType": "bytes32",
          "name": "",
          "type": "bytes32"
        }
      ],
      "stateMutability": "view",
      "type": "function"
    },
    {
      "inputs": [
        {
          "internalType": "bytes32",
          "name": "",
          "type": "bytes32"
        }
      ],
      "name": "_listingTokens",
      "outputs": [
        {
          "internalType": "address",
          "name": "_collectionContract",
          "type": "address"
        },
        {
          "internalType": "uint256",
          "name": "_tokenId",
          "type": "uint256"
        },
        {
          "internalType": "address",
          "name": "_seller",
          "type": "address"
        },
        {
          "internalType": "uint256",
          "name": "_price",
          "type": "uint256"
        },
        {
          "internalType": "address",
          "name": "_erc20Token",
          "type": "address"
        },
        {
          "internalType": "bool",
          "name": "_closed",
          "type": "bool"
        },
        {
          "internalType": "uint256",
          "name": "_durationTime",
          "type": "uint256"
        }
      ],
      "stateMutability": "view",
      "type": "function"
    },
    {
      "inputs": [
        {
          "internalType": "bytes32",
          "name": "",
          "type": "bytes32"
        }
      ],
      "name": "_makeOfferTokens",
      "outputs": [
        {
          "internalType": "address",
          "name": "_collectionContract",
          "type": "address"
        },
        {
          "internalType": "uint256",
          "name": "_tokenId",
          "type": "uint256"
        },
        {
          "internalType": "address",
          "name": "_buyer",
          "type": "address"
        },
        {
          "internalType": "address",
          "name": "_erc20Token",
          "type": "address"
        },
        {
          "internalType": "uint256",
          "name": "_price",
          "type": "uint256"
        },
        {
          "internalType": "bool",
          "name": "_closed",
          "type": "bool"
        },
        {
          "internalType": "uint256",
          "name": "_durationTime",
          "type": "uint256"
        }
      ],
      "stateMutability": "view",
      "type": "function"
    },
    {
      "inputs": [],
      "name": "_parameterAddr",
      "outputs": [
        {
          "internalType": "address",
          "name": "",
          "type": "address"
        }
      ],
      "stateMutability": "view",
      "type": "function"
    },
    {
      "inputs": [
        {
          "internalType": "bytes32",
          "name": "offerId",
          "type": "bytes32"
        }
      ],
      "name": "acceptMakeOffer",
      "outputs": [],
      "stateMutability": "nonpayable",
      "type": "function"
    },
    {
      "inputs": [],
      "name": "arrayListingId",
      "outputs": [
        {
          "internalType": "bytes32[]",
          "name": "",
          "type": "bytes32[]"
        }
      ],
      "stateMutability": "view",
      "type": "function"
    },
    {
      "inputs": [],
      "name": "arrayMakeOfferId",
      "outputs": [
        {
          "internalType": "bytes32[]",
          "name": "",
          "type": "bytes32[]"
        }
      ],
      "stateMutability": "view",
      "type": "function"
    },
    {
      "inputs": [
        {
          "internalType": "bytes32",
          "name": "_offeringId",
          "type": "bytes32"
        }
      ],
      "name": "cancelListing",
      "outputs": [],
      "stateMutability": "nonpayable",
      "type": "function"
    },
    {
      "inputs": [
        {
          "internalType": "bytes32",
          "name": "offerId",
          "type": "bytes32"
        }
      ],
      "name": "cancelMakeOffer",
      "outputs": [],
      "stateMutability": "nonpayable",
      "type": "function"
    },
    {
      "inputs": [
        {
          "internalType": "address",
          "name": "newAdm",
          "type": "address"
        }
      ],
      "name": "changeAdmin",
      "outputs": [],
      "stateMutability": "nonpayable",
      "type": "function"
    },
    {
      "inputs": [
        {
          "internalType": "address",
          "name": "newAddr",
          "type": "address"
        }
      ],
      "name": "changeParamAddr",
      "outputs": [],
      "stateMutability": "nonpayable",
      "type": "function"
    },
    {
      "inputs": [
        {
          "internalType": "address",
          "name": "admin",
          "type": "address"
        },
        {
          "internalType": "address",
          "name": "parameterControl",
          "type": "address"
        }
      ],
      "name": "initialize",
      "outputs": [],
      "stateMutability": "nonpayable",
      "type": "function"
    },
    {
      "inputs": [
        {
          "components": [
            {
              "internalType": "address",
              "name": "_collectionContract",
              "type": "address"
            },
            {
              "internalType": "uint256",
              "name": "_tokenId",
              "type": "uint256"
            },
            {
              "internalType": "address",
              "name": "_seller",
              "type": "address"
            },
            {
              "internalType": "uint256",
              "name": "_price",
              "type": "uint256"
            },
            {
              "internalType": "address",
              "name": "_erc20Token",
              "type": "address"
            },
            {
              "internalType": "bool",
              "name": "_closed",
              "type": "bool"
            },
            {
              "internalType": "uint256",
              "name": "_durationTime",
              "type": "uint256"
            }
          ],
          "internalType": "struct Marketplace.ListingTokenData",
          "name": "listingData",
          "type": "tuple"
        }
      ],
      "name": "listToken",
      "outputs": [
        {
          "internalType": "bytes32",
          "name": "",
          "type": "bytes32"
        }
      ],
      "stateMutability": "nonpayable",
      "type": "function"
    },
    {
      "inputs": [
        {
          "components": [
            {
              "internalType": "address",
              "name": "_collectionContract",
              "type": "address"
            },
            {
              "internalType": "uint256",
              "name": "_tokenId",
              "type": "uint256"
            },
            {
              "internalType": "address",
              "name": "_buyer",
              "type": "address"
            },
            {
              "internalType": "address",
              "name": "_erc20Token",
              "type": "address"
            },
            {
              "internalType": "uint256",
              "name": "_price",
              "type": "uint256"
            },
            {
              "internalType": "bool",
              "name": "_closed",
              "type": "bool"
            },
            {
              "internalType": "uint256",
              "name": "_durationTime",
              "type": "uint256"
            }
          ],
          "internalType": "struct Marketplace.MakeOfferData",
          "name": "data",
          "type": "tuple"
        }
      ],
      "name": "makeOffer",
      "outputs": [
        {
          "internalType": "bytes32",
          "name": "",
          "type": "bytes32"
        }
      ],
      "stateMutability": "nonpayable",
      "type": "function"
    },
    {
      "inputs": [
        {
          "internalType": "bytes32",
          "name": "offeringId",
          "type": "bytes32"
        }
      ],
      "name": "purchaseToken",
      "outputs": [],
      "stateMutability": "payable",
      "type": "function"
    },
    {
      "inputs": [
        {
          "internalType": "address",
          "name": "receiver",
          "type": "address"
        },
        {
          "internalType": "address",
          "name": "erc20Addr",
          "type": "address"
        },
        {
          "internalType": "uint256",
          "name": "amount",
          "type": "uint256"
        }
      ],
      "name": "withdraw",
      "outputs": [],
      "stateMutability": "nonpayable",
      "type": "function"
    }
  ],
  "bytecode": "0x608060405234801561001057600080fd5b50612665806100206000396000f3fe6080604052600436106101095760003560e01c80639299e55211610095578063d9e87e6111610064578063d9e87e61146103f8578063da6cef4a14610418578063ed4ec2011461042d578063f1f2df0e1461044d578063febfd6c31461046d57600080fd5b80639299e552146102e3578063a3a1937c14610303578063d2abb69c146103b8578063d9caed12146103d857600080fd5b8063485cc955116100dc578063485cc9551461024157806351351e3e146102615780635861933e1461028157806372c035cf146102a35780638f283970146102c357600080fd5b806301bc45c91461010e5780631fd4d2ed1461014b5780633ac1089a146101795780633dd72c401461018e575b600080fd5b34801561011a57600080fd5b5060345461012e906001600160a01b031681565b6040516001600160a01b0390911681526020015b60405180910390f35b34801561015757600080fd5b5061016b61016636600461221f565b61048d565b604051908152602001610142565b61018c61018736600461221f565b6104ae565b005b34801561019a57600080fd5b506101f86101a936600461221f565b60386020526000908152604090208054600182015460028301546003840154600485015460058601546006909601546001600160a01b03958616969495938416949290931692909160ff169087565b604080516001600160a01b039889168152602081019790975294871694860194909452949091166060840152608083015291151560a082015260c081019190915260e001610142565b34801561024d57600080fd5b5061018c61025c36600461224d565b6104cb565b34801561026d57600080fd5b5061016b61027c3660046122e1565b61068f565b34801561028d57600080fd5b506102966106b2565b6040516101429190612368565b3480156102af57600080fd5b5060355461012e906001600160a01b031681565b3480156102cf57600080fd5b5061018c6102de3660046123ac565b61070a565b3480156102ef57600080fd5b5061018c6102fe36600461221f565b61079c565b34801561030f57600080fd5b5061036d61031e36600461221f565b6036602052600090815260409020805460018201546002830154600384015460048501546005909501546001600160a01b03948516959394928316939192821691600160a01b900460ff169087565b604080516001600160a01b0398891681526020810197909752948716948601949094526060850192909252909316608083015291151560a082015260c081019190915260e001610142565b3480156103c457600080fd5b5061016b6103d33660046123d0565b6107a5565b3480156103e457600080fd5b5061018c6103f336600461243f565b6107b8565b34801561040457600080fd5b5061018c61041336600461221f565b610912565b34801561042457600080fd5b50610296610923565b34801561043957600080fd5b5061016b61044836600461221f565b610979565b34801561045957600080fd5b5061018c61046836600461221f565b610989565b34801561047957600080fd5b5061018c6104883660046123ac565b610992565b6039818154811061049d57600080fd5b600091825260209091200154905081565b6104b6610a24565b6104bf81610a7e565b6104c860018055565b50565b600054610100900460ff16158080156104eb5750600054600160ff909116105b806105055750303b158015610505575060005460ff166001145b61056d5760405162461bcd60e51b815260206004820152602e60248201527f496e697469616c697a61626c653a20636f6e747261637420697320616c72656160448201526d191e481a5b9a5d1a585b1a5e995960921b60648201526084015b60405180910390fd5b6000805460ff191660011790558015610590576000805461ff0019166101001790555b60408051808201909152600381526203130360ec1b60208201526001600160a01b0384166105d15760405162461bcd60e51b815260040161056491906124b0565b5060408051808201909152600381526203130360ec1b60208201526001600160a01b0383166106135760405162461bcd60e51b815260040161056491906124b0565b50603480546001600160a01b038086166001600160a01b0319928316179092556035805492851692909116919091179055801561068a576000805461ff0019169055604051600181527f7f26b83ff96e1f2b6a682f133852f6798a09c465da95921460cefb38474024989060200160405180910390a15b505050565b6000610699610a24565b6106a2826112e2565b90506106ad60018055565b919050565b6060603780548060200260200160405190810160405280929190818152602001828054801561070057602002820191906000526020600020905b8154815260200190600101908083116106ec575b5050505050905090565b6034546001600160a01b03163314801561072c57506001600160a01b03811615155b6040518060400160405280600381526020016231303160e81b815250906107665760405162461bcd60e51b815260040161056491906124b0565b506034546001600160a01b038281169116146104c857603480546001600160a01b0383166001600160a01b031990911617905550565b6104c881611657565b60006107af610a24565b6106a282611735565b6107c0610a24565b60345460408051808201909152600381526231303160e81b6020820152906001600160a01b031633146108065760405162461bcd60e51b815260040161056491906124b0565b5060006001600160a01b038316610887578147101561082457600080fd5b6040516001600160a01b038516908390600081818185875af1925050503d806000811461086d576040519150601f19603f3d011682016040523d82523d6000602084013e610872565b606091505b5050809150508061088257600080fd5b610908565b60405163a9059cbb60e01b81526001600160a01b0385811660048301526024820184905284919082169063a9059cbb906044016020604051808303816000875af11580156108d9573d6000803e3d6000fd5b505050506040513d601f19601f820116820180604052508101906108fd91906124e3565b61090657600080fd5b505b5061068a60018055565b61091a610a24565b6104bf81611953565b6060603980548060200260200160405190810160405280929190818152602001828054801561070057602002820191906000526020600020908154815260200190600101908083116106ec575050505050905090565b6037818154811061049d57600080fd5b6104c881611fd8565b6034546001600160a01b0316331480156109b457506001600160a01b03811615155b6040518060400160405280600381526020016231303160e81b815250906109ee5760405162461bcd60e51b815260040161056491906124b0565b506035546001600160a01b038281169116146104c857603580546001600160a01b0383166001600160a01b031990911617905550565b60026001541415610a775760405162461bcd60e51b815260206004820152601f60248201527f5265656e7472616e637947756172643a207265656e7472616e742063616c6c006044820152606401610564565b6002600155565b6000818152603660209081526040808320815160e0808201845282546001600160a01b03908116808452600185015484880181905260028601548316858801819052600387015460608088019190915260048801549485166080808901829052600160a01b90960460ff16151560a0808a019190915260059099015460c0808a01919091528a519788018b528c88529a87018c90529886018b905285018a905292840189905294830188905295820187905291958594158015929190610c7357506080808801516040805160e08101825233808252828c01516001600160a01b0390811660208401526060808e01805185870152519084015292516370a0823160e01b8152600481019190915292939092908301918416906370a0823190602401602060405180830381865afa158015610bbc573d6000803e3d6000fd5b505050506040513d601f19601f82011682018060405250810190610be09190612500565b8152604051636eb1769f60e11b81523360048201523060248201526020909101906001600160a01b0384169063dd62ed3e90604401602060405180830381865afa158015610c32573d6000803e3d6000fd5b505050506040513d601f19601f82011682018060405250810190610c569190612500565b815260200189608001516001600160a01b03168152509150610cd3565b6040518060e00160405280336001600160a01b0316815260200189604001516001600160a01b031681526020018960600151815260200189606001518152602001600081526020016000815260200160006001600160a01b031681525091505b6040516331a9108f60e11b8152600481018690526001600160a01b038086169190881690636352211e90602401602060405180830381865afa158015610d1d573d6000803e3d6000fd5b505050506040513d601f19601f82011682018060405250810190610d419190612519565b6001600160a01b0316146040518060400160405280600381526020016203330360ec1b81525090610d855760405162461bcd60e51b815260040161056491906124b0565b508215610e175760408083015160a08401518251808401909352600383526233303560e81b60208401521015610dce5760405162461bcd60e51b815260040161056491906124b0565b506040808301516080840151825180840190935260038352620ccc0d60ea1b60208401521015610e115760405162461bcd60e51b815260040161056491906124b0565b50610e57565b6040808301518151808301909252600382526233303360e81b6020830152341015610e555760405162461bcd60e51b815260040161056491906124b0565b505b600089815260366020908152604091829020600401548251808401909352600383526219981960e91b91830191909152600160a01b900460ff1615610eaf5760405162461bcd60e51b815260040161056491906124b0565b508151604051632142170760e11b81526001600160a01b038816916342842e0e91610ee09130918a90600401612536565b600060405180830381600087803b158015610efa57600080fd5b505af1158015610f0e573d6000803e3d6000fd5b50506035546040805160808101825260008082526020808301829052828401829052606083019190915282518084018452601b81527f4d41524b4554504c4143455f42454e454649545f50455243454e540000000000918101919091529151636d12dce160e01b81526001600160a01b03909316945092508391636d12dce191610f9a916004016124b0565b602060405180830381865afa158015610fb7573d6000803e3d6000fd5b505050506040513d601f19601f82011682018060405250810190610fdb9190612500565b60408201819052610fef576109c460408201525b60408101511561103657612710816040015185606001516110109190612570565b61101a919061258f565b606082018190526040850180516110329083906125b1565b9052505b84156111a757835160608501516040516323b872dd60e01b81526001600160a01b038616926323b872dd9261107092309190600401612536565b6020604051808303816000875af115801561108f573d6000803e3d6000fd5b505050506040513d601f19601f820116820180604052508101906110b391906124e3565b6040518060400160405280600381526020016219981b60e91b815250906110ed5760405162461bcd60e51b815260040161056491906124b0565b506040808b01518582015191516323b872dd60e01b81526001600160a01b038616926323b872dd9261112492309290600401612536565b6020604051808303816000875af1158015611143573d6000803e3d6000fd5b505050506040513d601f19601f8201168201806040525081019061116791906124e3565b6040518060400160405280600381526020016219981b60e91b815250906111a15760405162461bcd60e51b815260040161056491906124b0565b5061127c565b60408051808201909152600381526233303360e81b6020820152476111df5760405162461bcd60e51b815260040161056491906124b0565b5060008a604001516001600160a01b0316856040015160405160006040518083038185875af1925050503d8060008114611235576040519150601f19603f3d011682016040523d82523d6000602084013e61123a565b606091505b50509050806040518060400160405280600381526020016219981b60e91b815250906112795760405162461bcd60e51b815260040161056491906124b0565b50505b60008b815260366020526040808220600401805460ff60a01b1916600160a01b179055855190516001600160a01b03909116918d917f3004f67c11f5aa47210c03ff25c0f48c410d0a417b33292fca39f25ba8d2dddf9190a35050505050505050505050565b805160208201516040516331a9108f60e11b815260048101919091526000919033906001600160a01b03831690636352211e90602401602060405180830381865afa158015611335573d6000803e3d6000fd5b505050506040513d601f19601f820116820180604052508101906113599190612519565b6001600160a01b0316146040518060400160405280600381526020016203330360ec1b8152509061139d5760405162461bcd60e51b815260040161056491906124b0565b5060405163e985e9c560e01b81523360048201523060248201526000906001600160a01b0383169063e985e9c590604401602060405180830381865afa1580156113eb573d6000803e3d6000fd5b505050506040513d601f19601f8201168201806040525081019061140f91906124e3565b60408051808201909152600381526233303160e81b602082015290915060018215151461144f5760405162461bcd60e51b815260040161056491906124b0565b5060338054906000611460836125c8565b919050555060006114726033546120a9565b85516020870151611482906120a9565b604051602001611494939291906125e3565b604051602081830303815290604052805190602001209050846036600083815260200190815260200160002060008201518160000160006101000a8154816001600160a01b0302191690836001600160a01b031602179055506020820151816001015560408201518160020160006101000a8154816001600160a01b0302191690836001600160a01b031602179055506060820151816003015560808201518160040160006101000a8154816001600160a01b0302191690836001600160a01b0316021790555060a08201518160040160146101000a81548160ff02191690831515021790555060c08201518160050155905050336036600083815260200190815260200160002060020160006101000a8154816001600160a01b0302191690836001600160a01b031602179055506037819080600181540180825580915050600190039060005260206000200160009091909190915055336001600160a01b031685600001516001600160a01b0316827fa2c73c734a10dc845099c99c4c34e3db3329eb72b7061d3eafb5ecfb877c593c88602001518960600151604051611647929190918252602082015260400190565b60405180910390a4949350505050565b600081815260366020908152604091829020600201548251808401909352600383526203330360ec1b918301919091526001600160a01b031633146116af5760405162461bcd60e51b815260040161056491906124b0565b50600081815260366020526040902060040154600160a01b900460ff16156116d657600080fd5b60008181526036602052604080822060048101805460ff60a01b1916600160a01b1790556002015490516001600160a01b039091169183917fee847753f7429cae2eda1655de552711ce889fc0679c05a3026b65f98bc648779190a350565b606081015160408051808201909152600381526203130360ec1b60208201526000916001600160a01b031661177d5760405162461bcd60e51b815260040161056491906124b0565b50815160408051808201909152600381526203130360ec1b6020820152906001600160a01b03166117c15760405162461bcd60e51b815260040161056491906124b0565b5060008260800151116117d357600080fd5b60008260c00151116117e457600080fd5b60608201516080830151604051636eb1769f60e11b81523360048201523060248201526001600160a01b0383169063dd62ed3e90604401602060405180830381865afa158015611838573d6000803e3d6000fd5b505050506040513d601f19601f8201168201806040525081019061185c9190612500565b101561186757600080fd5b60338054906000611877836125c8565b919050555060006118896033546120a9565b84516020860151611899906120a9565b6040516020016118ab939291906125e3565b60408051808303601f19018152918152815160209283012060008181526038845291909120865181546001600160a01b03199081166001600160a01b0392831617835593880151600183015560028201805460608a0151600385018054881691909416179092556080890151600484015560a089015160058401805460ff191691151591909117905560c0909801516006909201919091559091163317909455509192915050565b600081815260386020908152604091829020825160e08101845281546001600160a01b03908116825260018301549382019390935260028201548316938101939093526003810154909116606083015260048101546080830152600581015460ff1615801560a084015260069091015460c08301526119d157600080fd5b805160208201516040516331a9108f60e11b815233916001600160a01b03841691636352211e91611a089160040190815260200190565b602060405180830381865afa158015611a25573d6000803e3d6000fd5b505050506040513d601f19601f82011682018060405250810190611a499190612519565b6001600160a01b031614611a5c57600080fd5b60405163e985e9c560e01b81523360048201523060248201526001600160a01b0382169063e985e9c590604401602060405180830381865afa158015611aa6573d6000803e3d6000fd5b505050506040513d601f19601f82011682018060405250810190611aca91906124e3565b611ad357600080fd5b606082015160808301516040808501519051636eb1769f60e11b81526001600160a01b0391821660048201523060248201529083169063dd62ed3e90604401602060405180830381865afa158015611b2f573d6000803e3d6000fd5b505050506040513d601f19601f82011682018060405250810190611b539190612500565b1015611b5e57600080fd5b6040805160e08101825284820180516001600160a01b0390811683523360208401526080808801805185870152516060850152915193516370a0823160e01b8152938116600485015260009391830191908516906370a0823190602401602060405180830381865afa158015611bd8573d6000803e3d6000fd5b505050506040513d601f19601f82011682018060405250810190611bfc9190612500565b81526040808701519051636eb1769f60e11b81526001600160a01b0391821660048201523060248201526020909201919085169063dd62ed3e90604401602060405180830381865afa158015611c56573d6000803e3d6000fd5b505050506040513d601f19601f82011682018060405250810190611c7a9190612500565b81526060808701516001600160a01b039081166020938401526035546040805160808101825260008082528187018190528183018190529481019490945280518082018252601b81527f4d41524b4554504c4143455f42454e454649545f50455243454e5400000000009581019590955251636d12dce160e01b8152949550169290918391636d12dce191611d11916004016124b0565b602060405180830381865afa158015611d2e573d6000803e3d6000fd5b505050506040513d601f19601f82011682018060405250810190611d529190612500565b60408201819052611d66576109c460408201525b604081015115611dad5761271081604001518460600151611d879190612570565b611d91919061258f565b60608201819052604084018051611da99083906125b1565b9052505b825160608401516040516323b872dd60e01b81526001600160a01b038716926323b872dd92611de192309190600401612536565b6020604051808303816000875af1158015611e00573d6000803e3d6000fd5b505050506040513d601f19601f82011682018060405250810190611e2491906124e3565b6040518060400160405280600381526020016219981b60e91b81525090611e5e5760405162461bcd60e51b815260040161056491906124b0565b5060408084015190516323b872dd60e01b81526001600160a01b038616916323b872dd91611e93913091339190600401612536565b6020604051808303816000875af1158015611eb2573d6000803e3d6000fd5b505050506040513d601f19601f82011682018060405250810190611ed691906124e3565b6040518060400160405280600381526020016219981b60e91b81525090611f105760405162461bcd60e51b815260040161056491906124b0565b5082516020870151604051632142170760e11b81526001600160a01b038816926342842e0e92611f469230929190600401612536565b600060405180830381600087803b158015611f6057600080fd5b505af1158015611f74573d6000803e3d6000fd5b505050600088815260386020526040808220600501805460ff191660011790558881015190516001600160a01b03909116925033918a917f7404c54b747fcd5565e3f2810e7e68905e720ac46863b2d5a0383b06be6e59289190a450505050505050565b600081815260386020908152604091829020600201548251808401909352600383526203130360ec1b918301919091526001600160a01b031633146120305760405162461bcd60e51b815260040161056491906124b0565b5060008181526038602052604090206005015460ff161561205057600080fd5b60008181526038602052604080822060058101805460ff191660011790556002015490516001600160a01b039091169183917f2ca4fd11c570e8fe80c8da9fd2e8b2d4eb998ae20e0472b410017939a2e9b1619190a350565b606060006120b683612146565b600101905060008167ffffffffffffffff8111156120d6576120d6612286565b6040519080825280601f01601f191660200182016040528015612100576020820181803683370190505b5090508181016020015b600019016f181899199a1a9b1b9c1cb0b131b232b360811b600a86061a8153600a85049450846121395761213e565b61210a565b509392505050565b60008072184f03e93ff9f4daa797ed6e38ed64bf6a1f0160401b83106121855772184f03e93ff9f4daa797ed6e38ed64bf6a1f0160401b830492506040015b6d04ee2d6d415b85acef810000000083106121b1576d04ee2d6d415b85acef8100000000830492506020015b662386f26fc1000083106121cf57662386f26fc10000830492506010015b6305f5e10083106121e7576305f5e100830492506008015b61271083106121fb57612710830492506004015b6064831061220d576064830492506002015b600a8310612219576001015b92915050565b60006020828403121561223157600080fd5b5035919050565b6001600160a01b03811681146104c857600080fd5b6000806040838503121561226057600080fd5b823561226b81612238565b9150602083013561227b81612238565b809150509250929050565b634e487b7160e01b600052604160045260246000fd5b60405160e0810167ffffffffffffffff811182821017156122cd57634e487b7160e01b600052604160045260246000fd5b60405290565b80151581146104c857600080fd5b600060e082840312156122f357600080fd5b6122fb61229c565b823561230681612238565b815260208381013590820152604083013561232081612238565b604082015260608381013590820152608083013561233d81612238565b608082015260a0830135612350816122d3565b60a082015260c0928301359281019290925250919050565b6020808252825182820181905260009190848201906040850190845b818110156123a057835183529284019291840191600101612384565b50909695505050505050565b6000602082840312156123be57600080fd5b81356123c981612238565b9392505050565b600060e082840312156123e257600080fd5b6123ea61229c565b82356123f581612238565b815260208381013590820152604083013561240f81612238565b6040820152606083013561242281612238565b60608201526080838101359082015260a0830135612350816122d3565b60008060006060848603121561245457600080fd5b833561245f81612238565b9250602084013561246f81612238565b929592945050506040919091013590565b60005b8381101561249b578181015183820152602001612483565b838111156124aa576000848401525b50505050565b60208152600082518060208401526124cf816040850160208701612480565b601f01601f19169190910160400192915050565b6000602082840312156124f557600080fd5b81516123c9816122d3565b60006020828403121561251257600080fd5b5051919050565b60006020828403121561252b57600080fd5b81516123c981612238565b6001600160a01b039384168152919092166020820152604081019190915260600190565b634e487b7160e01b600052601160045260246000fd5b600081600019048311821515161561258a5761258a61255a565b500290565b6000826125ac57634e487b7160e01b600052601260045260246000fd5b500490565b6000828210156125c3576125c361255a565b500390565b60006000198214156125dc576125dc61255a565b5060010190565b600084516125f5818460208901612480565b606085901b6bffffffffffffffffffffffff19169083019081528351612622816014840160208801612480565b016014019594505050505056fea2646970667358221220e43c15477a7b1449e85ea6cf6bc3dc26b23a5c85a13ed5d179020c4a9cfb1fc864736f6c634300080c0033",
  "linkReferences": {},
  "deployedLinkReferences": {}
}