{
  "_format": "hh-sol-artifact-1",
  "contractName": "SimpleMarketplaceService",
  "sourceName": "contracts/services/SimpleMarketplaceService.sol",
  "abi": [
    {
      "anonymous": false,
      "inputs": [
        {
          "indexed": false,
          "internalType": "uint8",
          "name": "version",
          "type": "uint8"
        }
      ],
      "name": "Initialized",
      "type": "event"
    },
    {
      "inputs": [],
      "name": "_admin",
      "outputs": [
        {
          "internalType": "address",
          "name": "",
          "type": "address"
        }
      ],
      "stateMutability": "view",
      "type": "function"
    },
    {
      "inputs": [
        {
          "internalType": "uint256",
          "name": "",
          "type": "uint256"
        }
      ],
      "name": "_arrayListingId",
      "outputs": [
        {
          "internalType": "bytes32",
          "name": "",
          "type": "bytes32"
        }
      ],
      "stateMutability": "view",
      "type": "function"
    },
    {
      "inputs": [
        {
          "internalType": "uint256",
          "name": "",
          "type": "uint256"
        }
      ],
      "name": "_arrayMakeOfferId",
      "outputs": [
        {
          "internalType": "bytes32",
          "name": "",
          "type": "bytes32"
        }
      ],
      "stateMutability": "view",
      "type": "function"
    },
    {
      "inputs": [
        {
          "internalType": "bytes32",
          "name": "",
          "type": "bytes32"
        }
      ],
      "name": "_listingTokens",
      "outputs": [
        {
          "internalType": "address",
          "name": "_collectionContract",
          "type": "address"
        },
        {
          "internalType": "uint256",
          "name": "_tokenId",
          "type": "uint256"
        },
        {
          "internalType": "address",
          "name": "_seller",
          "type": "address"
        },
        {
          "internalType": "address",
          "name": "_erc20Token",
          "type": "address"
        },
        {
          "internalType": "uint256",
          "name": "_price",
          "type": "uint256"
        },
        {
          "internalType": "bool",
          "name": "_closed",
          "type": "bool"
        },
        {
          "internalType": "uint256",
          "name": "_durationTime",
          "type": "uint256"
        }
      ],
      "stateMutability": "view",
      "type": "function"
    },
    {
      "inputs": [
        {
          "internalType": "bytes32",
          "name": "",
          "type": "bytes32"
        }
      ],
      "name": "_makeOfferTokens",
      "outputs": [
        {
          "internalType": "address",
          "name": "_collectionContract",
          "type": "address"
        },
        {
          "internalType": "uint256",
          "name": "_tokenId",
          "type": "uint256"
        },
        {
          "internalType": "address",
          "name": "_buyer",
          "type": "address"
        },
        {
          "internalType": "address",
          "name": "_erc20Token",
          "type": "address"
        },
        {
          "internalType": "uint256",
          "name": "_price",
          "type": "uint256"
        },
        {
          "internalType": "bool",
          "name": "_closed",
          "type": "bool"
        },
        {
          "internalType": "uint256",
          "name": "_durationTime",
          "type": "uint256"
        }
      ],
      "stateMutability": "view",
      "type": "function"
    },
    {
      "inputs": [],
      "name": "_parameterAddr",
      "outputs": [
        {
          "internalType": "address",
          "name": "",
          "type": "address"
        }
      ],
      "stateMutability": "view",
      "type": "function"
    },
    {
      "inputs": [
        {
          "internalType": "bytes32",
          "name": "offerId",
          "type": "bytes32"
        }
      ],
      "name": "acceptMakeOffer",
      "outputs": [],
      "stateMutability": "nonpayable",
      "type": "function"
    },
    {
      "inputs": [
        {
          "internalType": "bytes32",
          "name": "_offeringId",
          "type": "bytes32"
        }
      ],
      "name": "cancelListing",
      "outputs": [],
      "stateMutability": "nonpayable",
      "type": "function"
    },
    {
      "inputs": [
        {
          "internalType": "bytes32",
          "name": "offerId",
          "type": "bytes32"
        }
      ],
      "name": "cancelMakeOffer",
      "outputs": [],
      "stateMutability": "nonpayable",
      "type": "function"
    },
    {
      "inputs": [
        {
          "internalType": "address",
          "name": "newAdm",
          "type": "address"
        }
      ],
      "name": "changeAdmin",
      "outputs": [],
      "stateMutability": "nonpayable",
      "type": "function"
    },
    {
      "inputs": [
        {
          "internalType": "address",
          "name": "newAddr",
          "type": "address"
        }
      ],
      "name": "changeParamAddr",
      "outputs": [],
      "stateMutability": "nonpayable",
      "type": "function"
    },
    {
      "inputs": [
        {
          "internalType": "address",
          "name": "admin",
          "type": "address"
        },
        {
          "internalType": "address",
          "name": "parameterControl",
          "type": "address"
        }
      ],
      "name": "initialize",
      "outputs": [],
      "stateMutability": "nonpayable",
      "type": "function"
    },
    {
      "inputs": [
        {
          "components": [
            {
              "internalType": "address",
              "name": "_collectionContract",
              "type": "address"
            },
            {
              "internalType": "uint256",
              "name": "_tokenId",
              "type": "uint256"
            },
            {
              "internalType": "address",
              "name": "_seller",
              "type": "address"
            },
            {
              "internalType": "address",
              "name": "_erc20Token",
              "type": "address"
            },
            {
              "internalType": "uint256",
              "name": "_price",
              "type": "uint256"
            },
            {
              "internalType": "bool",
              "name": "_closed",
              "type": "bool"
            },
            {
              "internalType": "uint256",
              "name": "_durationTime",
              "type": "uint256"
            }
          ],
          "internalType": "struct Marketplace.ListingTokenData",
          "name": "listingData",
          "type": "tuple"
        }
      ],
      "name": "listToken",
      "outputs": [
        {
          "internalType": "bytes32",
          "name": "",
          "type": "bytes32"
        }
      ],
      "stateMutability": "nonpayable",
      "type": "function"
    },
    {
      "inputs": [
        {
          "components": [
            {
              "internalType": "address",
              "name": "_collectionContract",
              "type": "address"
            },
            {
              "internalType": "uint256",
              "name": "_tokenId",
              "type": "uint256"
            },
            {
              "internalType": "address",
              "name": "_buyer",
              "type": "address"
            },
            {
              "internalType": "address",
              "name": "_erc20Token",
              "type": "address"
            },
            {
              "internalType": "uint256",
              "name": "_price",
              "type": "uint256"
            },
            {
              "internalType": "bool",
              "name": "_closed",
              "type": "bool"
            },
            {
              "internalType": "uint256",
              "name": "_durationTime",
              "type": "uint256"
            }
          ],
          "internalType": "struct Marketplace.MakeOfferData",
          "name": "data",
          "type": "tuple"
        }
      ],
      "name": "makeOffer",
      "outputs": [
        {
          "internalType": "bytes32",
          "name": "",
          "type": "bytes32"
        }
      ],
      "stateMutability": "nonpayable",
      "type": "function"
    },
    {
      "inputs": [
        {
          "internalType": "bytes32",
          "name": "offeringId",
          "type": "bytes32"
        }
      ],
      "name": "purchaseToken",
      "outputs": [],
      "stateMutability": "payable",
      "type": "function"
    },
    {
      "inputs": [
        {
          "internalType": "address",
          "name": "receiver",
          "type": "address"
        },
        {
          "internalType": "address",
          "name": "erc20Addr",
          "type": "address"
        },
        {
          "internalType": "uint256",
          "name": "amount",
          "type": "uint256"
        }
      ],
      "name": "withdraw",
      "outputs": [],
      "stateMutability": "nonpayable",
      "type": "function"
    }
  ],
  "bytecode": "0x608060405234801561001057600080fd5b50612f5e806100206000396000f3fe6080604052600436106100f35760003560e01c8063a3a1937c1161008a578063ed4ec20111610059578063ed4ec20114610375578063f1f2df0e14610395578063f40cb02d146103b5578063febfd6c3146103d557600080fd5b8063a3a1937c146102ab578063d2abb69c14610315578063d9caed1214610335578063d9e87e611461035557600080fd5b8063485cc955116100c6578063485cc9551461022b57806372c035cf1461024b5780638f2839701461026b5780639299e5521461028b57600080fd5b806301bc45c9146100f85780631fd4d2ed146101355780633ac1089a146101635780633dd72c4014610178575b600080fd5b34801561010457600080fd5b50603454610118906001600160a01b031681565b6040516001600160a01b0390911681526020015b60405180910390f35b34801561014157600080fd5b50610155610150366004612a51565b6103f5565b60405190815260200161012c565b610176610171366004612a51565b610416565b005b34801561018457600080fd5b506101e2610193366004612a51565b60386020526000908152604090208054600182015460028301546003840154600485015460058601546006909601546001600160a01b03958616969495938416949290931692909160ff169087565b604080516001600160a01b039889168152602081019790975294871694860194909452949091166060840152608083015291151560a082015260c081019190915260e00161012c565b34801561023757600080fd5b50610176610246366004612a8a565b610433565b34801561025757600080fd5b50603554610118906001600160a01b031681565b34801561027757600080fd5b50610176610286366004612ac3565b6105ff565b34801561029757600080fd5b506101766102a6366004612a51565b610691565b3480156102b757600080fd5b506101e26102c6366004612a51565b60366020526000908152604090208054600182015460028301546003840154600485015460058601546006909601546001600160a01b03958616969495938416949290931692909160ff169087565b34801561032157600080fd5b50610155610330366004612bc2565b61069a565b34801561034157600080fd5b50610176610350366004612bde565b6106bd565b34801561036157600080fd5b50610176610370366004612a51565b610817565b34801561038157600080fd5b50610155610390366004612a51565b610828565b3480156103a157600080fd5b506101766103b0366004612a51565b610838565b3480156103c157600080fd5b506101556103d0366004612bc2565b610841565b3480156103e157600080fd5b506101766103f0366004612ac3565b610854565b6039818154811061040557600080fd5b600091825260209091200154905081565b61041e6108e6565b61042781610940565b61043060018055565b50565b600054610100900460ff16158080156104535750600054600160ff909116105b8061046d5750303b15801561046d575060005460ff166001145b6104d55760405162461bcd60e51b815260206004820152602e60248201527f496e697469616c697a61626c653a20636f6e747261637420697320616c72656160448201526d191e481a5b9a5d1a585b1a5e995960921b60648201526084015b60405180910390fd5b6000805460ff1916600117905580156104f8576000805461ff0019166101001790555b60408051808201909152600381526203130360ec1b60208201526001600160a01b0384166105395760405162461bcd60e51b81526004016104cc9190612c4b565b5060408051808201909152600381526203130360ec1b60208201526001600160a01b03831661057b5760405162461bcd60e51b81526004016104cc9190612c4b565b50603480546001600160a01b038086166001600160a01b03199283161790925560358054928516929091169190911790556105b4611592565b80156105fa576000805461ff0019169055604051600181527f7f26b83ff96e1f2b6a682f133852f6798a09c465da95921460cefb38474024989060200160405180910390a15b505050565b6034546001600160a01b03163314801561062157506001600160a01b03811615155b6040518060400160405280600381526020016231303160e81b8152509061065b5760405162461bcd60e51b81526004016104cc9190612c4b565b506034546001600160a01b0382811691161461043057603480546001600160a01b0383166001600160a01b031990911617905550565b610430816115c3565b60006106a46108e6565b6106ad82611695565b90506106b860018055565b919050565b6106c56108e6565b60345460408051808201909152600381526231303160e81b6020820152906001600160a01b0316331461070b5760405162461bcd60e51b81526004016104cc9190612c4b565b5060006001600160a01b03831661078c578147101561072957600080fd5b6040516001600160a01b038516908390600081818185875af1925050503d8060008114610772576040519150601f19603f3d011682016040523d82523d6000602084013e610777565b606091505b5050809150508061078757600080fd5b61080d565b60405163a9059cbb60e01b81526001600160a01b0385811660048301526024820184905284919082169063a9059cbb906044016020604051808303816000875af11580156107de573d6000803e3d6000fd5b505050506040513d601f19601f820116820180604052508101906108029190612c7e565b61080b57600080fd5b505b506105fa60018055565b61081f6108e6565b6104278161193d565b6037818154811061040557600080fd5b610430816122c5565b600061084b6108e6565b6106ad8261238c565b6034546001600160a01b03163314801561087657506001600160a01b03811615155b6040518060400160405280600381526020016231303160e81b815250906108b05760405162461bcd60e51b81526004016104cc9190612c4b565b506035546001600160a01b0382811691161461043057603580546001600160a01b0383166001600160a01b031990911617905550565b600260015414156109395760405162461bcd60e51b815260206004820152601f60248201527f5265656e7472616e637947756172643a207265656e7472616e742063616c6c0060448201526064016104cc565b6002600155565b600081815260366020908152604091829020825160e08101845281546001600160a01b03908116825260018301549382019390935260028201548316938101939093526003810154909116606083015260048101546080830152600581015460ff1615801560a0840181905260069092015460c0840152906109d1575060c081015115806109d157508060c0015142105b6040518060400160405280600381526020016219981960e91b81525090610a0b5760405162461bcd60e51b81526004016104cc9190612c4b565b506000828152603660209081526040808320600501805460ff191660011790558351606080860151835160e08101855286815294850186905292840185905283018490526080830184905260a0830184905260c08301939093526001600160a01b031615159060008215610bd057846060015190506040518060e00160405280336001600160a01b0316815260200186604001516001600160a01b031681526020018660800151815260200186608001518152602001826001600160a01b03166370a08231336040518263ffffffff1660e01b8152600401610afc91906001600160a01b0391909116815260200190565b602060405180830381865afa158015610b19573d6000803e3d6000fd5b505050506040513d601f19601f82011682018060405250810190610b3d9190612c9b565b8152604051636eb1769f60e11b81523360048201523060248201526020909101906001600160a01b0384169063dd62ed3e90604401602060405180830381865afa158015610b8f573d6000803e3d6000fd5b505050506040513d601f19601f82011682018060405250810190610bb39190612c9b565b815260200186606001516001600160a01b03168152509150610c30565b6040518060e00160405280336001600160a01b0316815260200186604001516001600160a01b031681526020018660800151815260200186608001518152602001600081526020016000815260200160006001600160a01b031681525091505b84604001516001600160a01b0316846001600160a01b0316636352211e87602001516040518263ffffffff1660e01b8152600401610c7091815260200190565b602060405180830381865afa158015610c8d573d6000803e3d6000fd5b505050506040513d601f19601f82011682018060405250810190610cb19190612cb4565b6001600160a01b0316146040518060400160405280600381526020016203330360ec1b81525090610cf55760405162461bcd60e51b81526004016104cc9190612c4b565b508215610d875760408083015160a08401518251808401909352600383526233303560e81b60208401521015610d3e5760405162461bcd60e51b81526004016104cc9190612c4b565b506040808301516080840151825180840190935260038352620ccc0d60ea1b60208401521015610d815760405162461bcd60e51b81526004016104cc9190612c4b565b50610dc7565b6040808301518151808301909252600382526233303360e81b6020830152341015610dc55760405162461bcd60e51b81526004016104cc9190612c4b565b505b602080830151835191870151604051632142170760e11b81526001600160a01b038816936342842e0e93610dff939092600401612cd1565b600060405180830381600087803b158015610e1957600080fd5b505af1158015610e2d573d6000803e3d6000fd5b50506035546040805160808101825260008082526020808301829052828401829052606083019190915282518084018452601b81527f4d41524b4554504c4143455f42454e454649545f50455243454e540000000000918101919091529151636d12dce160e01b81526001600160a01b03909316945092508391636d12dce191610eb991600401612c4b565b602060405180830381865afa158015610ed6573d6000803e3d6000fd5b505050506040513d601f19601f82011682018060405250810190610efa9190612c9b565b60408201819052610f0d5760fa60408201525b604081015115610f545761271081604001518560600151610f2e9190612d0b565b610f389190612d2a565b60608201819052604085018051610f50908390612d4c565b9052505b6040516301ffc9a760e01b815263152a902d60e11b60048201526001600160a01b038716906301ffc9a790602401602060405180830381865afa158015610f9f573d6000803e3d6000fd5b505050506040513d601f19601f82011682018060405250810190610fc39190612c7e565b1561107a5786516020880151606086015160405163152a902d60e11b81526004810192909252602482015260009081906001600160a01b03841690632a55205a906044016040805180830381865afa158015611023573d6000803e3d6000fd5b505050506040513d601f19601f820116820180604052508101906110479190612d63565b602086018190526001600160a01b03821686526040890180519294509092508291611073908390612d4c565b9052505050505b84156112f057835160608501516040516323b872dd60e01b81526001600160a01b038616926323b872dd926110b492309190600401612cd1565b6020604051808303816000875af11580156110d3573d6000803e3d6000fd5b505050506040513d601f19601f820116820180604052508101906110f79190612c7e565b6040518060400160405280600381526020016219981b60e91b815250906111315760405162461bcd60e51b81526004016104cc9190612c4b565b5060408088015185820151915163a9059cbb60e01b81526001600160a01b039182166004820152602481019290925284169063a9059cbb906044016020604051808303816000875af115801561118b573d6000803e3d6000fd5b505050506040513d601f19601f820116820180604052508101906111af9190612c7e565b6040518060400160405280600381526020016219981b60e91b815250906111e95760405162461bcd60e51b81526004016104cc9190612c4b565b5080516001600160a01b031615801590611207575060008160200151115b156112eb578051602082015160405163a9059cbb60e01b81526001600160a01b0386169263a9059cbb92611251926004016001600160a01b03929092168252602082015260400190565b6020604051808303816000875af1158015611270573d6000803e3d6000fd5b505050506040513d601f19601f820116820180604052508101906112949190612c7e565b6040518060400160405280600381526020016219981b60e91b815250906112ce5760405162461bcd60e51b81526004016104cc9190612c4b565b506112eb816000015188602001518960600151846020015161267d565b611536565b60408051808201909152600381526233303360e81b6020820152476113285760405162461bcd60e51b81526004016104cc9190612c4b565b50600087604001516001600160a01b0316856040015160405160006040518083038185875af1925050503d806000811461137e576040519150601f19603f3d011682016040523d82523d6000602084013e611383565b606091505b505060408051808201909152600381526219981b60e91b6020820152909150816113c05760405162461bcd60e51b81526004016104cc9190612c4b565b5081516001600160a01b0316158015906113de575060008260200151115b1561149157815160208301516040516001600160a01b0390921691600081818185875af1925050503d8060008114611432576040519150601f19603f3d011682016040523d82523d6000602084013e611437565b606091505b505060408051808201909152600381526219981b60e91b6020820152909150816114745760405162461bcd60e51b81526004016104cc9190612c4b565b50611491826000015189602001518a60600151856020015161267d565b604080518082018252600981526823a2a72faa27a5a2a760b91b6020820152905163bf40fac160e01b8152611534916001600160a01b0386169163bf40fac1916114dd91600401612c4b565b602060405180830381865afa1580156114fa573d6000803e3d6000fd5b505050506040513d601f19601f8201168201806040525081019061151e9190612cb4565b895160208b015160608c015160808d0151612774565b505b60008881526036602052604090819020855191518a927f744eb8cec82caa596aa6c23e80f64b53c47d2139a53db9b3bbd7eb0a0a4b79929261157a92909190612de6565b60405180910390a25050505050505050565b60018055565b600054610100900460ff166115b95760405162461bcd60e51b81526004016104cc90612e0d565b6115c16128b4565b565b600081815260366020908152604091829020600201548251808401909352600383526203330360ec1b918301919091526001600160a01b0316331461161b5760405162461bcd60e51b81526004016104cc9190612c4b565b5060008181526036602052604090206005015460ff161561163b57600080fd5b6000818152603660205260409081902060058101805460ff19166001179055905182917f0f9936e2210c5cb61170d9da568110dc1426511cd2a1ffabe518cb3f12791c329161168a9190612e58565b60405180910390a250565b606081015160408051808201909152600381526203130360ec1b60208201526000916001600160a01b03166116dd5760405162461bcd60e51b81526004016104cc9190612c4b565b50815160408051808201909152600381526203130360ec1b6020820152906001600160a01b03166117215760405162461bcd60e51b81526004016104cc9190612c4b565b5060008260800151116040518060400160405280600381526020016206660760eb1b815250906117645760405162461bcd60e51b81526004016104cc9190612c4b565b5060608201516080830151604051636eb1769f60e11b81523360048201523060248201526001600160a01b0383169063dd62ed3e90604401602060405180830381865afa1580156117b9573d6000803e3d6000fd5b505050506040513d601f19601f820116820180604052508101906117dd9190612c9b565b10156117e857600080fd5b603380549060006117f883612e66565b9190505550600061180a6033546128db565b8451602086015161181a906128db565b60405160200161182c93929190612e81565b60408051808303601f190181528282528051602091820120600081815260388352928320885181546001600160a01b03199081166001600160a01b03928316178355938a015160018084019190915560028301805460608d01516003860180548916919095161790935560808c0151600485015560a08c015160058501805460ff191691151591909117905560c08c01516006909401939093559316331790556039805492830181559092527fdc16fef70f8d5ddbc01ee3d903d1e69c18a3c7be080eb86a81e0578814ee58d301819055915081907f1101875263abf1b7c3fc9cf51275180975f69f768a3c09e1b453fa0cad6f29b19061192e908790612ecd565b60405180910390a29392505050565b600081815260386020908152604091829020825160e08101845281546001600160a01b03908116825260018301549382019390935260028201548316938101939093526003810154909116606083015260048101546080830152600581015460ff1615801560a0840181905260069092015460c0840152906119ce575060c081015115806119ce57508060c0015142105b6040518060400160405280600381526020016219981960e91b81525090611a085760405162461bcd60e51b81526004016104cc9190612c4b565b50600082815260386020908152604091829020600501805460ff1916600117905582519083015191516331a9108f60e11b8152909133916001600160a01b03841691636352211e91611a61919060040190815260200190565b602060405180830381865afa158015611a7e573d6000803e3d6000fd5b505050506040513d601f19601f82011682018060405250810190611aa29190612cb4565b6001600160a01b0316146040518060400160405280600381526020016203330360ec1b81525090611ae65760405162461bcd60e51b81526004016104cc9190612c4b565b5060405163e985e9c560e01b81523360048201523060248201526001600160a01b0382169063e985e9c590604401602060405180830381865afa158015611b31573d6000803e3d6000fd5b505050506040513d601f19601f82011682018060405250810190611b559190612c7e565b6040518060400160405280600381526020016233303160e81b81525090611b8f5760405162461bcd60e51b81526004016104cc9190612c4b565b50606082015160808301516040808501519051636eb1769f60e11b81526001600160a01b0391821660048201523060248201529083169063dd62ed3e90604401602060405180830381865afa158015611bec573d6000803e3d6000fd5b505050506040513d601f19601f82011682018060405250810190611c109190612c9b565b1015611c1b57600080fd5b6040805160e08101825284820180516001600160a01b0390811683523360208401526080808801805185870152516060850152915193516370a0823160e01b8152938116600485015260009391830191908516906370a0823190602401602060405180830381865afa158015611c95573d6000803e3d6000fd5b505050506040513d601f19601f82011682018060405250810190611cb99190612c9b565b81526040808701519051636eb1769f60e11b81526001600160a01b0391821660048201523060248201526020909201919085169063dd62ed3e90604401602060405180830381865afa158015611d13573d6000803e3d6000fd5b505050506040513d601f19601f82011682018060405250810190611d379190612c9b565b81526060808701516001600160a01b039081166020938401526035546040805160808101825260008082528187018190528183018190529481019490945280518082018252601b81527f4d41524b4554504c4143455f42454e454649545f50455243454e5400000000009581019590955251636d12dce160e01b8152949550169290918391636d12dce191611dce91600401612c4b565b602060405180830381865afa158015611deb573d6000803e3d6000fd5b505050506040513d601f19601f82011682018060405250810190611e0f9190612c9b565b60408201819052611e225760fa60408201525b604081015115611e695761271081604001518460600151611e439190612d0b565b611e4d9190612d2a565b60608201819052604084018051611e65908390612d4c565b9052505b6040516301ffc9a760e01b815263152a902d60e11b60048201526001600160a01b038616906301ffc9a790602401602060405180830381865afa158015611eb4573d6000803e3d6000fd5b505050506040513d601f19601f82011682018060405250810190611ed89190612c7e565b15611f8f5785516020870151606085015160405163152a902d60e11b81526004810192909252602482015260009081906001600160a01b03841690632a55205a906044016040805180830381865afa158015611f38573d6000803e3d6000fd5b505050506040513d601f19601f82011682018060405250810190611f5c9190612d63565b602086018190526001600160a01b03821686526040880180519294509092508291611f88908390612d4c565b9052505050505b825160608401516040516323b872dd60e01b81526001600160a01b038716926323b872dd92611fc392309190600401612cd1565b6020604051808303816000875af1158015611fe2573d6000803e3d6000fd5b505050506040513d601f19601f820116820180604052508101906120069190612c7e565b6040518060400160405280600381526020016219981b60e91b815250906120405760405162461bcd60e51b81526004016104cc9190612c4b565b506020830151604080850151905163a9059cbb60e01b81526001600160a01b0387169263a9059cbb92612089926004016001600160a01b03929092168252602082015260400190565b6020604051808303816000875af11580156120a8573d6000803e3d6000fd5b505050506040513d601f19601f820116820180604052508101906120cc9190612c7e565b6040518060400160405280600381526020016219981b60e91b815250906121065760405162461bcd60e51b81526004016104cc9190612c4b565b5080516001600160a01b031615801590612124575060008160200151115b15612208578051602082015160405163a9059cbb60e01b81526001600160a01b0387169263a9059cbb9261216e926004016001600160a01b03929092168252602082015260400190565b6020604051808303816000875af115801561218d573d6000803e3d6000fd5b505050506040513d601f19601f820116820180604052508101906121b19190612c7e565b6040518060400160405280600381526020016219981b60e91b815250906121eb5760405162461bcd60e51b81526004016104cc9190612c4b565b50612208816000015187602001518860600151846020015161267d565b602080840151845191880151604051632142170760e11b81526001600160a01b038916936342842e0e93612240939092600401612cd1565b600060405180830381600087803b15801561225a57600080fd5b505af115801561226e573d6000803e3d6000fd5b50505060008881526038602052604090819020855191518a93507fe0787f0a475d5edb93acefb462596edcf3ab4d4949407b732fec63d7e5afc60c926122b49291612de6565b60405180910390a250505050505050565b600081815260386020908152604091829020600201548251808401909352600383526203130360ec1b918301919091526001600160a01b0316331461231d5760405162461bcd60e51b81526004016104cc9190612c4b565b5060008181526038602052604090206005015460ff161561233d57600080fd5b6000818152603860205260409081902060058101805460ff19166001179055905182917fd1e7e193455ba4241e816f1b6fa787b59dad27c1279c69179f6cb4b4387bf5439161168a9190612e58565b805160208201516040516331a9108f60e11b815260048101919091526000919033906001600160a01b03831690636352211e90602401602060405180830381865afa1580156123df573d6000803e3d6000fd5b505050506040513d601f19601f820116820180604052508101906124039190612cb4565b6001600160a01b0316146040518060400160405280600381526020016203330360ec1b815250906124475760405162461bcd60e51b81526004016104cc9190612c4b565b5060008360800151116040518060400160405280600381526020016206660760eb1b8152509061248a5760405162461bcd60e51b81526004016104cc9190612c4b565b5060405163e985e9c560e01b81523360048201523060248201526001600160a01b0382169063e985e9c590604401602060405180830381865afa1580156124d5573d6000803e3d6000fd5b505050506040513d601f19601f820116820180604052508101906124f99190612c7e565b60408051808201909152600381526233303160e81b60208201529015156001146125365760405162461bcd60e51b81526004016104cc9190612c4b565b506033805490600061254783612e66565b919050555060006125596033546128db565b84516020860151612569906128db565b60405160200161257b93929190612e81565b60408051808303601f190181528282528051602091820120600081815260368352928320885181546001600160a01b03199081166001600160a01b03928316178355938a015160018084019190915560028301805460608d01516003860180548916919095161790935560808c0151600485015560a08c015160058501805460ff191691151591909117905560c08c01516006909401939093559316331790556037805492830181559092527f42a7b7dd785cd69714a189dffb3fd7d7174edc9ece837694ce50f7078f7c31ae01819055915081907f36baa67ff8b95fa14aac46cea75517dc7f57ebebc1b90d48388c8c085f5cbfe39061192e908790612ecd565b6001600160a01b0384161561276e576040516301ffc9a760e01b815263676eda1760e01b600482015284906001600160a01b038216906301ffc9a790602401602060405180830381865afa1580156126d9573d6000803e3d6000fd5b505050506040513d601f19601f820116820180604052508101906126fd9190612c7e565b1561276c5760405163676eda1760e01b8152600481018590526001600160a01b0384811660248301526044820184905282169063676eda1790606401600060405180830381600087803b15801561275357600080fd5b505af1158015612767573d6000803e3d6000fd5b505050505b505b50505050565b6001600160a01b0385161561276c5760405163186f2bdd60e21b81526001600160a01b038581166004830152602482018590528381166044830152606482018390528691908216906361bcaf7490608401600060405180830381600087803b1580156127df57600080fd5b505af19250505080156127f0575060015b61285257604080516001600160a01b0388811682528781166020830152818301879052851660608201526080810184905290517f2b24ae3182dffe91b3b5d3bd7e893fdf479327b5a0f15f2ce99b2d6e798680e69181900360a00190a16128ac565b604080516001600160a01b0388811682528781166020830152818301879052851660608201526080810184905290517fd6a08b4403c29a9320fb167fd747bf8bf1fa0ebc0ec4d46a726f3ddbb4ab42379181900360a00190a15b505050505050565b600054610100900460ff1661158c5760405162461bcd60e51b81526004016104cc90612e0d565b606060006128e883612978565b600101905060008167ffffffffffffffff81111561290857612908612ae7565b6040519080825280601f01601f191660200182016040528015612932576020820181803683370190505b5090508181016020015b600019016f181899199a1a9b1b9c1cb0b131b232b360811b600a86061a8153600a850494508461296b57612970565b61293c565b509392505050565b60008072184f03e93ff9f4daa797ed6e38ed64bf6a1f0160401b83106129b75772184f03e93ff9f4daa797ed6e38ed64bf6a1f0160401b830492506040015b6d04ee2d6d415b85acef810000000083106129e3576d04ee2d6d415b85acef8100000000830492506020015b662386f26fc100008310612a0157662386f26fc10000830492506010015b6305f5e1008310612a19576305f5e100830492506008015b6127108310612a2d57612710830492506004015b60648310612a3f576064830492506002015b600a8310612a4b576001015b92915050565b600060208284031215612a6357600080fd5b5035919050565b6001600160a01b038116811461043057600080fd5b80356106b881612a6a565b60008060408385031215612a9d57600080fd5b8235612aa881612a6a565b91506020830135612ab881612a6a565b809150509250929050565b600060208284031215612ad557600080fd5b8135612ae081612a6a565b9392505050565b634e487b7160e01b600052604160045260246000fd5b801515811461043057600080fd5b80356106b881612afd565b600060e08284031215612b2857600080fd5b60405160e0810181811067ffffffffffffffff82111715612b5957634e487b7160e01b600052604160045260246000fd5b604052905080612b6883612a7f565b815260208301356020820152612b8060408401612a7f565b6040820152612b9160608401612a7f565b606082015260808301356080820152612bac60a08401612b0b565b60a082015260c083013560c08201525092915050565b600060e08284031215612bd457600080fd5b612ae08383612b16565b600080600060608486031215612bf357600080fd5b8335612bfe81612a6a565b92506020840135612c0e81612a6a565b929592945050506040919091013590565b60005b83811015612c3a578181015183820152602001612c22565b8381111561276e5750506000910152565b6020815260008251806020840152612c6a816040850160208701612c1f565b601f01601f19169190910160400192915050565b600060208284031215612c9057600080fd5b8151612ae081612afd565b600060208284031215612cad57600080fd5b5051919050565b600060208284031215612cc657600080fd5b8151612ae081612a6a565b6001600160a01b039384168152919092166020820152604081019190915260600190565b634e487b7160e01b600052601160045260246000fd5b6000816000190483118215151615612d2557612d25612cf5565b500290565b600082612d4757634e487b7160e01b600052601260045260246000fd5b500490565b600082821015612d5e57612d5e612cf5565b500390565b60008060408385031215612d7657600080fd5b8251612d8181612a6a565b6020939093015192949293505050565b80546001600160a01b03908116835260018201546020840152600282015481166040840152600382015416606083015260048101546080830152600581015460ff16151560a08301526006015460c090910152565b6101008101612df58285612d91565b6001600160a01b039290921660e09190910152919050565b6020808252602b908201527f496e697469616c697a61626c653a20636f6e7472616374206973206e6f74206960408201526a6e697469616c697a696e6760a81b606082015260800190565b60e08101612a4b8284612d91565b6000600019821415612e7a57612e7a612cf5565b5060010190565b60008451612e93818460208901612c1f565b606085901b6bffffffffffffffffffffffff19169083019081528351612ec0816014840160208801612c1f565b0160140195945050505050565b81516001600160a01b03908116825260208084015190830152604080840151821690830152606080840151909116908201526080808301519082015260a08083015115159082015260c0808301519082015260e08101612a4b56fea2646970667358221220f1bba4a245f50e9b44f0313dbcf95e83d8ff0381632378df4ce0e65f3f0d2bb064736f6c634300080c0033",
  "linkReferences": {},
  "deployedLinkReferences": {}
}