{
  "_format": "hh-sol-artifact-1",
  "contractName": "EncryptDecrypt",
  "sourceName": "contracts/libs/helpers/EncryptDecrypt.sol",
  "abi": [
    {
      "inputs": [
        {
          "internalType": "bytes",
          "name": "data",
          "type": "bytes"
        },
        {
          "internalType": "bytes",
          "name": "key",
          "type": "bytes"
        }
      ],
      "name": "encryptDecrypt",
      "outputs": [
        {
          "internalType": "bytes",
          "name": "result",
          "type": "bytes"
        }
      ],
      "stateMutability": "pure",
      "type": "function"
    }
  ],
  "bytecode": "0x6102bd61003a600b82828239805160001a60731461002d57634e487b7160e01b600052600060045260246000fd5b30600052607381538281f3fe73000000000000000000000000000000000000000030146080604052600436106100355760003560e01c8063e71503221461003a575b600080fd5b61004d610048366004610178565b610063565b60405161005a919061020c565b60405180910390f35b8151604080518083016020019091528181529060005b818110156100cd576000848260405160200161009692919061023f565b60408051601f198184030181529190528051602091820120878401820151188584018201526100c6915082610261565b9050610079565b505092915050565b634e487b7160e01b600052604160045260246000fd5b600082601f8301126100fc57600080fd5b813567ffffffffffffffff80821115610117576101176100d5565b604051601f8301601f19908116603f0116810190828211818310171561013f5761013f6100d5565b8160405283815286602085880101111561015857600080fd5b836020870160208301376000602085830101528094505050505092915050565b6000806040838503121561018b57600080fd5b823567ffffffffffffffff808211156101a357600080fd5b6101af868387016100eb565b935060208501359150808211156101c557600080fd5b506101d2858286016100eb565b9150509250929050565b60005b838110156101f75781810151838201526020016101df565b83811115610206576000848401525b50505050565b602081526000825180602084015261022b8160408501602087016101dc565b601f01601f19169190910160400192915050565b600083516102518184602088016101dc565b9190910191825250602001919050565b6000821982111561028257634e487b7160e01b600052601160045260246000fd5b50019056fea264697066735822122051d3986102aeb60c6075cec33103f02b903b56733cf62072c34063d5ed1b0c8764736f6c634300080c0033",
  "linkReferences": {},
  "deployedLinkReferences": {}
}