{
  "_format": "hh-sol-artifact-1",
  "contractName": "Artifacts",
  "sourceName": "contracts/nfts/Artifacts.sol",
  "abi": [
    {
      "anonymous": false,
      "inputs": [
        {
          "indexed": true,
          "internalType": "address",
          "name": "owner",
          "type": "address"
        },
        {
          "indexed": true,
          "internalType": "address",
          "name": "approved",
          "type": "address"
        },
        {
          "indexed": true,
          "internalType": "uint256",
          "name": "tokenId",
          "type": "uint256"
        }
      ],
      "name": "Approval",
      "type": "event"
    },
    {
      "anonymous": false,
      "inputs": [
        {
          "indexed": true,
          "internalType": "address",
          "name": "owner",
          "type": "address"
        },
        {
          "indexed": true,
          "internalType": "address",
          "name": "operator",
          "type": "address"
        },
        {
          "indexed": false,
          "internalType": "bool",
          "name": "approved",
          "type": "bool"
        }
      ],
      "name": "ApprovalForAll",
      "type": "event"
    },
    {
      "anonymous": false,
      "inputs": [
        {
          "indexed": false,
          "internalType": "uint8",
          "name": "version",
          "type": "uint8"
        }
      ],
      "name": "Initialized",
      "type": "event"
    },
    {
      "anonymous": false,
      "inputs": [
        {
          "indexed": true,
          "internalType": "address",
          "name": "previousOwner",
          "type": "address"
        },
        {
          "indexed": true,
          "internalType": "address",
          "name": "newOwner",
          "type": "address"
        }
      ],
      "name": "OwnershipTransferred",
      "type": "event"
    },
    {
      "anonymous": false,
      "inputs": [
        {
          "indexed": true,
          "internalType": "address",
          "name": "from",
          "type": "address"
        },
        {
          "indexed": true,
          "internalType": "address",
          "name": "to",
          "type": "address"
        },
        {
          "indexed": true,
          "internalType": "uint256",
          "name": "tokenId",
          "type": "uint256"
        }
      ],
      "name": "Transfer",
      "type": "event"
    },
    {
      "inputs": [],
      "name": "_admin",
      "outputs": [
        {
          "internalType": "address",
          "name": "",
          "type": "address"
        }
      ],
      "stateMutability": "view",
      "type": "function"
    },
    {
      "inputs": [],
      "name": "_bfsAddr",
      "outputs": [
        {
          "internalType": "address",
          "name": "",
          "type": "address"
        }
      ],
      "stateMutability": "view",
      "type": "function"
    },
    {
      "inputs": [],
      "name": "_index",
      "outputs": [
        {
          "internalType": "uint256",
          "name": "",
          "type": "uint256"
        }
      ],
      "stateMutability": "view",
      "type": "function"
    },
    {
      "inputs": [
        {
          "internalType": "address",
          "name": "to",
          "type": "address"
        },
        {
          "internalType": "uint256",
          "name": "tokenId",
          "type": "uint256"
        }
      ],
      "name": "approve",
      "outputs": [],
      "stateMutability": "nonpayable",
      "type": "function"
    },
    {
      "inputs": [
        {
          "internalType": "address",
          "name": "owner",
          "type": "address"
        }
      ],
      "name": "balanceOf",
      "outputs": [
        {
          "internalType": "uint256",
          "name": "",
          "type": "uint256"
        }
      ],
      "stateMutability": "view",
      "type": "function"
    },
    {
      "inputs": [
        {
          "internalType": "address",
          "name": "newAddr",
          "type": "address"
        }
      ],
      "name": "changeAdmin",
      "outputs": [],
      "stateMutability": "nonpayable",
      "type": "function"
    },
    {
      "inputs": [
        {
          "internalType": "address",
          "name": "newAddr",
          "type": "address"
        }
      ],
      "name": "changeBFS",
      "outputs": [],
      "stateMutability": "nonpayable",
      "type": "function"
    },
    {
      "inputs": [
        {
          "internalType": "uint256",
          "name": "tokenId",
          "type": "uint256"
        }
      ],
      "name": "getApproved",
      "outputs": [
        {
          "internalType": "address",
          "name": "",
          "type": "address"
        }
      ],
      "stateMutability": "view",
      "type": "function"
    },
    {
      "inputs": [],
      "name": "getChainID",
      "outputs": [
        {
          "internalType": "uint256",
          "name": "",
          "type": "uint256"
        }
      ],
      "stateMutability": "view",
      "type": "function"
    },
    {
      "inputs": [
        {
          "internalType": "string",
          "name": "name",
          "type": "string"
        },
        {
          "internalType": "string",
          "name": "symbol",
          "type": "string"
        },
        {
          "internalType": "address",
          "name": "bfsAddr",
          "type": "address"
        }
      ],
      "name": "initialize",
      "outputs": [],
      "stateMutability": "nonpayable",
      "type": "function"
    },
    {
      "inputs": [
        {
          "internalType": "address",
          "name": "owner",
          "type": "address"
        },
        {
          "internalType": "address",
          "name": "operator",
          "type": "address"
        }
      ],
      "name": "isApprovedForAll",
      "outputs": [
        {
          "internalType": "bool",
          "name": "",
          "type": "bool"
        }
      ],
      "stateMutability": "view",
      "type": "function"
    },
    {
      "inputs": [],
      "name": "name",
      "outputs": [
        {
          "internalType": "string",
          "name": "",
          "type": "string"
        }
      ],
      "stateMutability": "view",
      "type": "function"
    },
    {
      "inputs": [],
      "name": "owner",
      "outputs": [
        {
          "internalType": "address",
          "name": "",
          "type": "address"
        }
      ],
      "stateMutability": "view",
      "type": "function"
    },
    {
      "inputs": [
        {
          "internalType": "uint256",
          "name": "tokenId",
          "type": "uint256"
        }
      ],
      "name": "ownerOf",
      "outputs": [
        {
          "internalType": "address",
          "name": "",
          "type": "address"
        }
      ],
      "stateMutability": "view",
      "type": "function"
    },
    {
      "inputs": [
        {
          "internalType": "address",
          "name": "to",
          "type": "address"
        },
        {
          "internalType": "bytes[]",
          "name": "chunks",
          "type": "bytes[]"
        }
      ],
      "name": "preserveChunks",
      "outputs": [],
      "stateMutability": "nonpayable",
      "type": "function"
    },
    {
      "inputs": [
        {
          "internalType": "address",
          "name": "to",
          "type": "address"
        },
        {
          "internalType": "string",
          "name": "uri",
          "type": "string"
        }
      ],
      "name": "preserveUri",
      "outputs": [],
      "stateMutability": "nonpayable",
      "type": "function"
    },
    {
      "inputs": [],
      "name": "renounceOwnership",
      "outputs": [],
      "stateMutability": "nonpayable",
      "type": "function"
    },
    {
      "inputs": [
        {
          "internalType": "uint256",
          "name": "tokenId",
          "type": "uint256"
        }
      ],
      "name": "retrieve",
      "outputs": [
        {
          "internalType": "bytes",
          "name": "data",
          "type": "bytes"
        },
        {
          "internalType": "int256",
          "name": "nextChunk",
          "type": "int256"
        }
      ],
      "stateMutability": "view",
      "type": "function"
    },
    {
      "inputs": [
        {
          "internalType": "uint256",
          "name": "_tokenId",
          "type": "uint256"
        },
        {
          "internalType": "uint256",
          "name": "_salePrice",
          "type": "uint256"
        }
      ],
      "name": "royaltyInfo",
      "outputs": [
        {
          "internalType": "address",
          "name": "receiver",
          "type": "address"
        },
        {
          "internalType": "uint256",
          "name": "royaltyAmount",
          "type": "uint256"
        }
      ],
      "stateMutability": "view",
      "type": "function"
    },
    {
      "inputs": [
        {
          "internalType": "address",
          "name": "from",
          "type": "address"
        },
        {
          "internalType": "address",
          "name": "to",
          "type": "address"
        },
        {
          "internalType": "uint256",
          "name": "tokenId",
          "type": "uint256"
        }
      ],
      "name": "safeTransferFrom",
      "outputs": [],
      "stateMutability": "nonpayable",
      "type": "function"
    },
    {
      "inputs": [
        {
          "internalType": "address",
          "name": "from",
          "type": "address"
        },
        {
          "internalType": "address",
          "name": "to",
          "type": "address"
        },
        {
          "internalType": "uint256",
          "name": "tokenId",
          "type": "uint256"
        },
        {
          "internalType": "bytes",
          "name": "data",
          "type": "bytes"
        }
      ],
      "name": "safeTransferFrom",
      "outputs": [],
      "stateMutability": "nonpayable",
      "type": "function"
    },
    {
      "inputs": [
        {
          "internalType": "address",
          "name": "operator",
          "type": "address"
        },
        {
          "internalType": "bool",
          "name": "approved",
          "type": "bool"
        }
      ],
      "name": "setApprovalForAll",
      "outputs": [],
      "stateMutability": "nonpayable",
      "type": "function"
    },
    {
      "inputs": [
        {
          "internalType": "uint256",
          "name": "tokenId",
          "type": "uint256"
        },
        {
          "internalType": "uint256",
          "name": "chunkIndex",
          "type": "uint256"
        },
        {
          "internalType": "bytes",
          "name": "_data",
          "type": "bytes"
        }
      ],
      "name": "store",
      "outputs": [],
      "stateMutability": "nonpayable",
      "type": "function"
    },
    {
      "inputs": [
        {
          "internalType": "bytes4",
          "name": "interfaceId",
          "type": "bytes4"
        }
      ],
      "name": "supportsInterface",
      "outputs": [
        {
          "internalType": "bool",
          "name": "",
          "type": "bool"
        }
      ],
      "stateMutability": "view",
      "type": "function"
    },
    {
      "inputs": [],
      "name": "symbol",
      "outputs": [
        {
          "internalType": "string",
          "name": "",
          "type": "string"
        }
      ],
      "stateMutability": "view",
      "type": "function"
    },
    {
      "inputs": [
        {
          "internalType": "uint256",
          "name": "tokenId",
          "type": "uint256"
        }
      ],
      "name": "tokenURI",
      "outputs": [
        {
          "internalType": "string",
          "name": "",
          "type": "string"
        }
      ],
      "stateMutability": "view",
      "type": "function"
    },
    {
      "inputs": [
        {
          "internalType": "address",
          "name": "from",
          "type": "address"
        },
        {
          "internalType": "address",
          "name": "to",
          "type": "address"
        },
        {
          "internalType": "uint256",
          "name": "tokenId",
          "type": "uint256"
        }
      ],
      "name": "transferFrom",
      "outputs": [],
      "stateMutability": "nonpayable",
      "type": "function"
    },
    {
      "inputs": [
        {
          "internalType": "address",
          "name": "newOwner",
          "type": "address"
        }
      ],
      "name": "transferOwnership",
      "outputs": [],
      "stateMutability": "nonpayable",
      "type": "function"
    }
  ],
  "bytecode": "0x608060405234801561001057600080fd5b506126fc806100206000396000f3fe608060405234801561001057600080fd5b50600436106101c45760003560e01c806370a08231116100f9578063a22cb46511610097578063c87b56dd11610071578063c87b56dd146103ce578063e03c7252146103e1578063e985e9c5146103f4578063f2fde38b1461043057600080fd5b8063a22cb46514610395578063a933024e146103a8578063b88d4fde146103bb57600080fd5b80638da5cb5b116100d35780638da5cb5b146103485780638f283970146103595780638f88708b1461036c57806395d89b411461038d57600080fd5b806370a082311461031a578063715018a61461032d578063810423741461033557600080fd5b806323b872dd11610166578063300e684411610140578063300e6844146102db57806342842e0e146102ee578063564b81ef146103015780636352211e1461030757600080fd5b806323b872dd146102835780632a55205a146102965780632bed94ac146102c857600080fd5b806306fdde03116101a257806306fdde0314610233578063077f224a14610248578063081812fc1461025d578063095ea7b31461027057600080fd5b806301861080146101c957806301bc45c9146101e557806301ffc9a714610210575b600080fd5b6101d260fd5481565b6040519081526020015b60405180910390f35b60fc546101f8906001600160a01b031681565b6040516001600160a01b0390911681526020016101dc565b61022361021e366004611d31565b610443565b60405190151581526020016101dc565b61023b610495565b6040516101dc9190611da6565b61025b610256366004611e93565b610527565b005b6101f861026b366004611f0b565b61067b565b61025b61027e366004611f24565b6106a2565b61025b610291366004611f50565b6107b8565b6102a96102a4366004611f91565b6107e9565b604080516001600160a01b0390931683526020830191909152016101dc565b61025b6102d6366004611fb3565b610872565b60fb546101f8906001600160a01b031681565b61025b6102fc366004611f50565b610960565b466101d2565b6101f8610315366004611f0b565b61097b565b6101d261032836600461208b565b6109db565b61025b610a61565b61025b61034336600461208b565b610a75565b60c9546001600160a01b03166101f8565b61025b61036736600461208b565b610ae7565b61037f61037a366004611f0b565b610b5a565b6040516101dc9291906120a8565b61023b610bec565b61025b6103a33660046120ca565b610bfb565b61025b6103b6366004612108565b610c0a565b61025b6103c9366004612158565b610cc9565b61023b6103dc366004611f0b565b610cfb565b61025b6103ef3660046121c4565b610d06565b610223610402366004612214565b6001600160a01b039182166000908152606a6020908152604080832093909416825291909152205460ff1690565b61025b61043e36600461208b565b610d33565b60006001600160e01b031982166380ac58cd60e01b148061047457506001600160e01b03198216635b5e139f60e01b145b8061048f57506301ffc9a760e01b6001600160e01b03198316145b92915050565b6060606580546104a490612242565b80601f01602080910402602001604051908101604052809291908181526020018280546104d090612242565b801561051d5780601f106104f25761010080835404028352916020019161051d565b820191906000526020600020905b81548152906001019060200180831161050057829003601f168201915b5050505050905090565b600054610100900460ff16158080156105475750600054600160ff909116105b806105615750303b158015610561575060005460ff166001145b6105c95760405162461bcd60e51b815260206004820152602e60248201527f496e697469616c697a61626c653a20636f6e747261637420697320616c72656160448201526d191e481a5b9a5d1a585b1a5e995960921b60648201526084015b60405180910390fd5b6000805460ff1916600117905580156105ec576000805461ff0019166101001790555b60fc8054336001600160a01b03199182161790915560fb80549091166001600160a01b03841617905561061f8484610da9565b610627610dda565b61062f610e01565b8015610675576000805461ff0019169055604051600181527f7f26b83ff96e1f2b6a682f133852f6798a09c465da95921460cefb38474024989060200160405180910390a15b50505050565b600061068682610e30565b506000908152606960205260409020546001600160a01b031690565b60006106ad8261097b565b9050806001600160a01b0316836001600160a01b0316141561071b5760405162461bcd60e51b815260206004820152602160248201527f4552433732313a20617070726f76616c20746f2063757272656e74206f776e656044820152603960f91b60648201526084016105c0565b336001600160a01b038216148061073757506107378133610402565b6107a95760405162461bcd60e51b815260206004820152603d60248201527f4552433732313a20617070726f76652063616c6c6572206973206e6f7420746f60448201527f6b656e206f776e6572206f7220617070726f76656420666f7220616c6c00000060648201526084016105c0565b6107b38383610e8f565b505050565b6107c23382610efd565b6107de5760405162461bcd60e51b81526004016105c09061227d565b6107b3838383610f7c565b600080306001600160a01b0316638da5cb5b6040518163ffffffff1660e01b8152600401602060405180830381865afa15801561082a573d6000803e3d6000fd5b505050506040513d601f19601f8201168201806040525081019061084e91906122ca565b915061271061085f846103e86122fd565b610869919061231c565b90509250929050565b60fd80549060006108828361233e565b91905055506108938260fd546110ed565b60fb546001600160a01b031660005b82518110156109495760006108b860fd54611107565b9050826001600160a01b031663928a4b3e82848786815181106108dd576108dd612359565b60200260200101516040518463ffffffff1660e01b81526004016109039392919061236f565b600060405180830381600087803b15801561091d57600080fd5b505af1158015610931573d6000803e3d6000fd5b505050505080806109419061233e565b9150506108a2565b506107b360fd5461095b60fd546111a4565b611263565b6107b383838360405180602001604052806000815250610cc9565b6000818152606760205260408120546001600160a01b03168061048f5760405162461bcd60e51b8152602060048201526018602482015277115490cdcc8c4e881a5b9d985b1a59081d1bdad95b88125160421b60448201526064016105c0565b60006001600160a01b038216610a455760405162461bcd60e51b815260206004820152602960248201527f4552433732313a2061646472657373207a65726f206973206e6f7420612076616044820152683634b21037bbb732b960b91b60648201526084016105c0565b506001600160a01b031660009081526068602052604090205490565b610a696112fd565b610a736000611357565b565b60fc546001600160a01b031633148015610a9757506001600160a01b03811615155b610ab35760405162461bcd60e51b81526004016105c0906123a4565b60fb546001600160a01b03828116911614610ae45760fb80546001600160a01b0319166001600160a01b0383161790555b50565b60fc546001600160a01b031633148015610b0957506001600160a01b03811615155b610b255760405162461bcd60e51b81526004016105c0906123a4565b60fc546001600160a01b03828116911614610ae45760fc80546001600160a01b0383166001600160a01b031990911617905550565b60fb546060906000906001600160a01b03168063a0e5676430610b7c87611107565b60006040518463ffffffff1660e01b8152600401610b9c939291906123c7565b600060405180830381865afa158015610bb9573d6000803e3d6000fd5b505050506040513d6000823e601f3d908101601f19168201604052610be191908101906123fb565b909590945092505050565b6060606680546104a490612242565b610c063383836113a9565b5050565b6000610c158461097b565b6001600160a01b0316336001600160a01b031614610c455760405162461bcd60e51b81526004016105c0906123a4565b60fb546001600160a01b03166000610c5c86611107565b604051634945259f60e11b81529091506001600160a01b0383169063928a4b3e90610c8f9084908990899060040161236f565b600060405180830381600087803b158015610ca957600080fd5b505af1158015610cbd573d6000803e3d6000fd5b50505050505050505050565b610cd33383610efd565b610cef5760405162461bcd60e51b81526004016105c09061227d565b61067584848484611478565b606061048f826114ab565b60fd8054906000610d168361233e565b9190505550610d278260fd546110ed565b610c0660fd5482611263565b610d3b6112fd565b6001600160a01b038116610da05760405162461bcd60e51b815260206004820152602660248201527f4f776e61626c653a206e6577206f776e657220697320746865207a65726f206160448201526564647265737360d01b60648201526084016105c0565b610ae481611357565b600054610100900460ff16610dd05760405162461bcd60e51b81526004016105c09061247c565b610c0682826115b4565b600054610100900460ff16610a735760405162461bcd60e51b81526004016105c09061247c565b600054610100900460ff16610e285760405162461bcd60e51b81526004016105c09061247c565b610a73611602565b6000818152606760205260409020546001600160a01b0316610ae45760405162461bcd60e51b8152602060048201526018602482015277115490cdcc8c4e881a5b9d985b1a59081d1bdad95b88125160421b60448201526064016105c0565b600081815260696020526040902080546001600160a01b0319166001600160a01b0384169081179091558190610ec48261097b565b6001600160a01b03167f8c5be1e5ebec7d5bd14f71427d1e84f3dd0314c0f7b2291e5b200ac8c7c3b92560405160405180910390a45050565b600080610f098361097b565b9050806001600160a01b0316846001600160a01b03161480610f5057506001600160a01b038082166000908152606a602090815260408083209388168352929052205460ff165b80610f745750836001600160a01b0316610f698461067b565b6001600160a01b0316145b949350505050565b826001600160a01b0316610f8f8261097b565b6001600160a01b031614610fb55760405162461bcd60e51b81526004016105c0906124c7565b6001600160a01b0382166110175760405162461bcd60e51b8152602060048201526024808201527f4552433732313a207472616e7366657220746f20746865207a65726f206164646044820152637265737360e01b60648201526084016105c0565b6110248383836001611632565b826001600160a01b03166110378261097b565b6001600160a01b03161461105d5760405162461bcd60e51b81526004016105c0906124c7565b600081815260696020908152604080832080546001600160a01b03199081169091556001600160a01b0387811680865260688552838620805460001901905590871680865283862080546001019055868652606790945282852080549092168417909155905184937fddf252ad1be2c89b69c2b068fc378daa952ba7f163c4a11628f55a4df523b3ef91a4505050565b610c068282604051806020016040528060008152506116ba565b60606000611114836116ed565b600101905060008167ffffffffffffffff81111561113457611134611db9565b6040519080825280601f01601f19166020018201604052801561115e576020820181803683370190505b5090508181016020015b600019016f181899199a1a9b1b9c1cb0b131b232b360811b600a86061a8153600a85049450846111975761119c565b611168565b509392505050565b60606000611212306001600160a01b031663564b81ef6040518163ffffffff1660e01b8152600401602060405180830381865afa1580156111e9573d6000803e3d6000fd5b505050506040513d601f19601f8201168201806040525081019061120d919061250c565b611107565b60fb54611227906001600160a01b03166117c5565b611230306117c5565b61123986611107565b60405160200161124c9493929190612525565b60408051601f198184030181529190529392505050565b6000828152606760205260409020546001600160a01b03166112de5760405162461bcd60e51b815260206004820152602e60248201527f45524337323155524953746f726167653a2055524920736574206f66206e6f6e60448201526d32bc34b9ba32b73a103a37b5b2b760911b60648201526084016105c0565b600082815260976020908152604090912082516107b392840190611c82565b60c9546001600160a01b03163314610a735760405162461bcd60e51b815260206004820181905260248201527f4f776e61626c653a2063616c6c6572206973206e6f7420746865206f776e657260448201526064016105c0565b60c980546001600160a01b038381166001600160a01b0319831681179093556040519116919082907f8be0079c531659141344cd1fd0a4f28419497f9722a3daafe3b4186f6b6457e090600090a35050565b816001600160a01b0316836001600160a01b0316141561140b5760405162461bcd60e51b815260206004820152601960248201527f4552433732313a20617070726f766520746f2063616c6c65720000000000000060448201526064016105c0565b6001600160a01b038381166000818152606a6020908152604080832094871680845294825291829020805460ff191686151590811790915591519182527f17307eab39ab6107e8899845ad3d59bd9653f200f220920489ca2b5937696c31910160405180910390a3505050565b611483848484610f7c565b61148f848484846117db565b6106755760405162461bcd60e51b81526004016105c0906125af565b60606114b682610e30565b600082815260976020526040812080546114cf90612242565b80601f01602080910402602001604051908101604052809291908181526020018280546114fb90612242565b80156115485780601f1061151d57610100808354040283529160200191611548565b820191906000526020600020905b81548152906001019060200180831161152b57829003601f168201915b50505050509050600061156660408051602081019091526000815290565b9050805160001415611579575092915050565b8151156115ab578082604051602001611593929190612601565b60405160208183030381529060405292505050919050565b610f74846118d9565b600054610100900460ff166115db5760405162461bcd60e51b81526004016105c09061247c565b81516115ee906065906020850190611c82565b5080516107b3906066906020840190611c82565b600054610100900460ff166116295760405162461bcd60e51b81526004016105c09061247c565b610a7333611357565b6001811115610675576001600160a01b03841615611678576001600160a01b03841660009081526068602052604081208054839290611672908490612630565b90915550505b6001600160a01b03831615610675576001600160a01b038316600090815260686020526040812080548392906116af908490612647565b909155505050505050565b6116c4838361194d565b6116d160008484846117db565b6107b35760405162461bcd60e51b81526004016105c0906125af565b60008072184f03e93ff9f4daa797ed6e38ed64bf6a1f0160401b831061172c5772184f03e93ff9f4daa797ed6e38ed64bf6a1f0160401b830492506040015b6d04ee2d6d415b85acef81000000008310611758576d04ee2d6d415b85acef8100000000830492506020015b662386f26fc10000831061177657662386f26fc10000830492506010015b6305f5e100831061178e576305f5e100830492506008015b61271083106117a257612710830492506004015b606483106117b4576064830492506002015b600a831061048f5760010192915050565b606061048f6001600160a01b0383166014611ae6565b60006001600160a01b0384163b156118ce57604051630a85bd0160e11b81526001600160a01b0385169063150b7a029061181f90339089908890889060040161265f565b6020604051808303816000875af192505050801561185a575060408051601f3d908101601f1916820190925261185791810190612692565b60015b6118b4573d808015611888576040519150601f19603f3d011682016040523d82523d6000602084013e61188d565b606091505b5080516118ac5760405162461bcd60e51b81526004016105c0906125af565b805181602001fd5b6001600160e01b031916630a85bd0160e11b149050610f74565b506001949350505050565b60606118e482610e30565b60006118fb60408051602081019091526000815290565b9050600081511161191b5760405180602001604052806000815250611946565b8061192584611107565b604051602001611936929190612601565b6040516020818303038152906040525b9392505050565b6001600160a01b0382166119a35760405162461bcd60e51b815260206004820181905260248201527f4552433732313a206d696e7420746f20746865207a65726f206164647265737360448201526064016105c0565b6000818152606760205260409020546001600160a01b031615611a085760405162461bcd60e51b815260206004820152601c60248201527f4552433732313a20746f6b656e20616c7265616479206d696e7465640000000060448201526064016105c0565b611a16600083836001611632565b6000818152606760205260409020546001600160a01b031615611a7b5760405162461bcd60e51b815260206004820152601c60248201527f4552433732313a20746f6b656e20616c7265616479206d696e7465640000000060448201526064016105c0565b6001600160a01b038216600081815260686020908152604080832080546001019055848352606790915280822080546001600160a01b0319168417905551839291907fddf252ad1be2c89b69c2b068fc378daa952ba7f163c4a11628f55a4df523b3ef908290a45050565b60606000611af58360026122fd565b611b00906002612647565b67ffffffffffffffff811115611b1857611b18611db9565b6040519080825280601f01601f191660200182016040528015611b42576020820181803683370190505b509050600360fc1b81600081518110611b5d57611b5d612359565b60200101906001600160f81b031916908160001a905350600f60fb1b81600181518110611b8c57611b8c612359565b60200101906001600160f81b031916908160001a9053506000611bb08460026122fd565b611bbb906001612647565b90505b6001811115611c33576f181899199a1a9b1b9c1cb0b131b232b360811b85600f1660108110611bef57611bef612359565b1a60f81b828281518110611c0557611c05612359565b60200101906001600160f81b031916908160001a90535060049490941c93611c2c816126af565b9050611bbe565b5083156119465760405162461bcd60e51b815260206004820181905260248201527f537472696e67733a20686578206c656e67746820696e73756666696369656e7460448201526064016105c0565b828054611c8e90612242565b90600052602060002090601f016020900481019282611cb05760008555611cf6565b82601f10611cc957805160ff1916838001178555611cf6565b82800160010185558215611cf6579182015b82811115611cf6578251825591602001919060010190611cdb565b50611d02929150611d06565b5090565b5b80821115611d025760008155600101611d07565b6001600160e01b031981168114610ae457600080fd5b600060208284031215611d4357600080fd5b813561194681611d1b565b60005b83811015611d69578181015183820152602001611d51565b838111156106755750506000910152565b60008151808452611d92816020860160208601611d4e565b601f01601f19169290920160200192915050565b6020815260006119466020830184611d7a565b634e487b7160e01b600052604160045260246000fd5b604051601f8201601f1916810167ffffffffffffffff81118282101715611df857611df8611db9565b604052919050565b600067ffffffffffffffff821115611e1a57611e1a611db9565b50601f01601f191660200190565b600082601f830112611e3957600080fd5b8135611e4c611e4782611e00565b611dcf565b818152846020838601011115611e6157600080fd5b816020850160208301376000918101602001919091529392505050565b6001600160a01b0381168114610ae457600080fd5b600080600060608486031215611ea857600080fd5b833567ffffffffffffffff80821115611ec057600080fd5b611ecc87838801611e28565b94506020860135915080821115611ee257600080fd5b50611eef86828701611e28565b9250506040840135611f0081611e7e565b809150509250925092565b600060208284031215611f1d57600080fd5b5035919050565b60008060408385031215611f3757600080fd5b8235611f4281611e7e565b946020939093013593505050565b600080600060608486031215611f6557600080fd5b8335611f7081611e7e565b92506020840135611f8081611e7e565b929592945050506040919091013590565b60008060408385031215611fa457600080fd5b50508035926020909101359150565b60008060408385031215611fc657600080fd5b8235611fd181611e7e565b915060208381013567ffffffffffffffff80821115611fef57600080fd5b818601915086601f83011261200357600080fd5b81358181111561201557612015611db9565b8060051b612024858201611dcf565b918252838101850191858101908a84111561203e57600080fd5b86860192505b8383101561207a5782358581111561205c5760008081fd5b61206a8c89838a0101611e28565b8352509186019190860190612044565b809750505050505050509250929050565b60006020828403121561209d57600080fd5b813561194681611e7e565b6040815260006120bb6040830185611d7a565b90508260208301529392505050565b600080604083850312156120dd57600080fd5b82356120e881611e7e565b9150602083013580151581146120fd57600080fd5b809150509250929050565b60008060006060848603121561211d57600080fd5b8335925060208401359150604084013567ffffffffffffffff81111561214257600080fd5b61214e86828701611e28565b9150509250925092565b6000806000806080858703121561216e57600080fd5b843561217981611e7e565b9350602085013561218981611e7e565b925060408501359150606085013567ffffffffffffffff8111156121ac57600080fd5b6121b887828801611e28565b91505092959194509250565b600080604083850312156121d757600080fd5b82356121e281611e7e565b9150602083013567ffffffffffffffff8111156121fe57600080fd5b61220a85828601611e28565b9150509250929050565b6000806040838503121561222757600080fd5b823561223281611e7e565b915060208301356120fd81611e7e565b600181811c9082168061225657607f821691505b6020821081141561227757634e487b7160e01b600052602260045260246000fd5b50919050565b6020808252602d908201527f4552433732313a2063616c6c6572206973206e6f7420746f6b656e206f776e6560408201526c1c881bdc88185c1c1c9bdd9959609a1b606082015260800190565b6000602082840312156122dc57600080fd5b815161194681611e7e565b634e487b7160e01b600052601160045260246000fd5b6000816000190483118215151615612317576123176122e7565b500290565b60008261233957634e487b7160e01b600052601260045260246000fd5b500490565b6000600019821415612352576123526122e7565b5060010190565b634e487b7160e01b600052603260045260246000fd5b6060815260006123826060830186611d7a565b846020840152828103604084015261239a8185611d7a565b9695505050505050565b60208082526009908201526824a72b2fa7aba722a960b91b604082015260600190565b6001600160a01b03841681526060602082018190526000906123eb90830185611d7a565b9050826040830152949350505050565b6000806040838503121561240e57600080fd5b825167ffffffffffffffff81111561242557600080fd5b8301601f8101851361243657600080fd5b8051612444611e4782611e00565b81815286602083850101111561245957600080fd5b61246a826020830160208601611d4e565b60209590950151949694955050505050565b6020808252602b908201527f496e697469616c697a61626c653a20636f6e7472616374206973206e6f74206960408201526a6e697469616c697a696e6760a81b606082015260800190565b60208082526025908201527f4552433732313a207472616e736665722066726f6d20696e636f72726563742060408201526437bbb732b960d91b606082015260800190565b60006020828403121561251e57600080fd5b5051919050565b656266733a2f2f60d01b815260008551612546816006850160208a01611d4e565b8083019050602f60f81b8060068301528651612569816007850160208b01611d4e565b600792019182018190528551612586816008850160208a01611d4e565b600892019182015283516125a1816009840160208801611d4e565b016009019695505050505050565b60208082526032908201527f4552433732313a207472616e7366657220746f206e6f6e20455243373231526560408201527131b2b4bb32b91034b6b83632b6b2b73a32b960711b606082015260800190565b60008351612613818460208801611d4e565b835190830190612627818360208801611d4e565b01949350505050565b600082821015612642576126426122e7565b500390565b6000821982111561265a5761265a6122e7565b500190565b6001600160a01b038581168252841660208201526040810183905260806060820181905260009061239a90830184611d7a565b6000602082840312156126a457600080fd5b815161194681611d1b565b6000816126be576126be6122e7565b50600019019056fea2646970667358221220eec0907f08b144c8a4e043e2358a011423b7b6fa5486c7e3ddaa0c92b1210dad64736f6c634300080c0033",
  "linkReferences": {},
  "deployedLinkReferences": {}
}