{
  "_format": "hh-sol-artifact-1",
  "contractName": "Randomizer",
  "sourceName": "contracts/services/Randomizer.sol",
  "abi": [
    {
      "anonymous": false,
      "inputs": [
        {
          "indexed": false,
          "internalType": "uint8",
          "name": "version",
          "type": "uint8"
        }
      ],
      "name": "Initialized",
      "type": "event"
    },
    {
      "anonymous": false,
      "inputs": [
        {
          "indexed": true,
          "internalType": "address",
          "name": "previousOwner",
          "type": "address"
        },
        {
          "indexed": true,
          "internalType": "address",
          "name": "newOwner",
          "type": "address"
        }
      ],
      "name": "OwnershipTransferred",
      "type": "event"
    },
    {
      "inputs": [
        {
          "internalType": "uint256",
          "name": "tokenId",
          "type": "uint256"
        }
      ],
      "name": "generateTokenHash",
      "outputs": [
        {
          "internalType": "bytes32",
          "name": "tokenHash",
          "type": "bytes32"
        }
      ],
      "stateMutability": "nonpayable",
      "type": "function"
    },
    {
      "inputs": [],
      "name": "initialize",
      "outputs": [],
      "stateMutability": "nonpayable",
      "type": "function"
    },
    {
      "inputs": [],
      "name": "owner",
      "outputs": [
        {
          "internalType": "address",
          "name": "",
          "type": "address"
        }
      ],
      "stateMutability": "view",
      "type": "function"
    },
    {
      "inputs": [],
      "name": "renounceOwnership",
      "outputs": [],
      "stateMutability": "nonpayable",
      "type": "function"
    },
    {
      "inputs": [
        {
          "internalType": "address",
          "name": "newOwner",
          "type": "address"
        }
      ],
      "name": "transferOwnership",
      "outputs": [],
      "stateMutability": "nonpayable",
      "type": "function"
    }
  ],
  "bytecode": "0x608060405234801561001057600080fd5b506104a0806100206000396000f3fe608060405234801561001057600080fd5b50600436106100575760003560e01c80631da00d851461005c578063715018a6146100825780638129fc1c1461008c5780638da5cb5b14610094578063f2fde38b146100af575b600080fd5b61006f61006a3660046103b1565b6100c2565b6040519081526020015b60405180910390f35b61008a61010b565b005b61008a61011f565b6033546040516001600160a01b039091168152602001610079565b61008a6100bd3660046103ca565b610235565b60004282436100d26001826103fa565b60408051602081019490945283019190915240606082015260800160405160208183030381529060405280519060200120915050919050565b6101136102ab565b61011d6000610305565b565b600054610100900460ff161580801561013f5750600054600160ff909116105b806101595750303b158015610159575060005460ff166001145b6101c15760405162461bcd60e51b815260206004820152602e60248201527f496e697469616c697a61626c653a20636f6e747261637420697320616c72656160448201526d191e481a5b9a5d1a585b1a5e995960921b60648201526084015b60405180910390fd5b6000805460ff1916600117905580156101e4576000805461ff0019166101001790555b6101ec610357565b8015610232576000805461ff0019169055604051600181527f7f26b83ff96e1f2b6a682f133852f6798a09c465da95921460cefb38474024989060200160405180910390a15b50565b61023d6102ab565b6001600160a01b0381166102a25760405162461bcd60e51b815260206004820152602660248201527f4f776e61626c653a206e6577206f776e657220697320746865207a65726f206160448201526564647265737360d01b60648201526084016101b8565b61023281610305565b6033546001600160a01b0316331461011d5760405162461bcd60e51b815260206004820181905260248201527f4f776e61626c653a2063616c6c6572206973206e6f7420746865206f776e657260448201526064016101b8565b603380546001600160a01b038381166001600160a01b0319831681179093556040519116919082907f8be0079c531659141344cd1fd0a4f28419497f9722a3daafe3b4186f6b6457e090600090a35050565b600054610100900460ff1661037e5760405162461bcd60e51b81526004016101b89061041f565b61011d600054610100900460ff166103a85760405162461bcd60e51b81526004016101b89061041f565b61011d33610305565b6000602082840312156103c357600080fd5b5035919050565b6000602082840312156103dc57600080fd5b81356001600160a01b03811681146103f357600080fd5b9392505050565b60008282101561041a57634e487b7160e01b600052601160045260246000fd5b500390565b6020808252602b908201527f496e697469616c697a61626c653a20636f6e7472616374206973206e6f74206960408201526a6e697469616c697a696e6760a81b60608201526080019056fea26469706673582212208bc5af7343d98f7faf95d831a2ebf1c1713785d646927335d2d918cffb352a0d64736f6c634300080c0033",
  "linkReferences": {},
  "deployedLinkReferences": {}
}