{
  "_format": "hh-sol-artifact-1",
  "contractName": "Randomizer",
  "sourceName": "contracts/services/Randomizer.sol",
  "abi": [
    {
      "anonymous": false,
      "inputs": [
        {
          "indexed": false,
          "internalType": "uint8",
          "name": "version",
          "type": "uint8"
        }
      ],
      "name": "Initialized",
      "type": "event"
    },
    {
      "anonymous": false,
      "inputs": [
        {
          "indexed": true,
          "internalType": "address",
          "name": "previousOwner",
          "type": "address"
        },
        {
          "indexed": true,
          "internalType": "address",
          "name": "newOwner",
          "type": "address"
        }
      ],
      "name": "OwnershipTransferred",
      "type": "event"
    },
    {
      "inputs": [
        {
          "internalType": "uint256",
          "name": "tokenId",
          "type": "uint256"
        }
      ],
      "name": "generateTokenHash",
      "outputs": [
        {
          "internalType": "bytes32",
          "name": "tokenHash",
          "type": "bytes32"
        }
      ],
      "stateMutability": "nonpayable",
      "type": "function"
    },
    {
      "inputs": [],
      "name": "initialize",
      "outputs": [],
      "stateMutability": "nonpayable",
      "type": "function"
    },
    {
      "inputs": [],
      "name": "owner",
      "outputs": [
        {
          "internalType": "address",
          "name": "",
          "type": "address"
        }
      ],
      "stateMutability": "view",
      "type": "function"
    },
    {
      "inputs": [],
      "name": "renounceOwnership",
      "outputs": [],
      "stateMutability": "nonpayable",
      "type": "function"
    },
    {
      "inputs": [
        {
          "internalType": "address",
          "name": "newOwner",
          "type": "address"
        }
      ],
      "name": "transferOwnership",
      "outputs": [],
      "stateMutability": "nonpayable",
      "type": "function"
    }
  ],
  "bytecode": "0x608060405234801561001057600080fd5b506104a4806100206000396000f3fe608060405234801561001057600080fd5b50600436106100575760003560e01c80631da00d851461005c578063715018a6146100825780638129fc1c1461008c5780638da5cb5b14610094578063f2fde38b146100af575b600080fd5b61006f61006a3660046103b5565b6100c2565b6040519081526020015b60405180910390f35b61008a61010f565b005b61008a610123565b6033546040516001600160a01b039091168152602001610079565b61008a6100bd3660046103ce565b610239565b600081436100d16001826103fe565b60408051602081019490945283019190915240606082015242608082015260a001604051602081830303815290604052805190602001209050919050565b6101176102af565b6101216000610309565b565b600054610100900460ff16158080156101435750600054600160ff909116105b8061015d5750303b15801561015d575060005460ff166001145b6101c55760405162461bcd60e51b815260206004820152602e60248201527f496e697469616c697a61626c653a20636f6e747261637420697320616c72656160448201526d191e481a5b9a5d1a585b1a5e995960921b60648201526084015b60405180910390fd5b6000805460ff1916600117905580156101e8576000805461ff0019166101001790555b6101f061035b565b8015610236576000805461ff0019169055604051600181527f7f26b83ff96e1f2b6a682f133852f6798a09c465da95921460cefb38474024989060200160405180910390a15b50565b6102416102af565b6001600160a01b0381166102a65760405162461bcd60e51b815260206004820152602660248201527f4f776e61626c653a206e6577206f776e657220697320746865207a65726f206160448201526564647265737360d01b60648201526084016101bc565b61023681610309565b6033546001600160a01b031633146101215760405162461bcd60e51b815260206004820181905260248201527f4f776e61626c653a2063616c6c6572206973206e6f7420746865206f776e657260448201526064016101bc565b603380546001600160a01b038381166001600160a01b0319831681179093556040519116919082907f8be0079c531659141344cd1fd0a4f28419497f9722a3daafe3b4186f6b6457e090600090a35050565b600054610100900460ff166103825760405162461bcd60e51b81526004016101bc90610423565b610121600054610100900460ff166103ac5760405162461bcd60e51b81526004016101bc90610423565b61012133610309565b6000602082840312156103c757600080fd5b5035919050565b6000602082840312156103e057600080fd5b81356001600160a01b03811681146103f757600080fd5b9392505050565b60008282101561041e57634e487b7160e01b600052601160045260246000fd5b500390565b6020808252602b908201527f496e697469616c697a61626c653a20636f6e7472616374206973206e6f74206960408201526a6e697469616c697a696e6760a81b60608201526080019056fea26469706673582212208526ad18469de0fd3452d7f4ea87808c7a9339e8a955f850baa1bb70896b592164736f6c634300080c0033",
  "linkReferences": {},
  "deployedLinkReferences": {}
}