{
  "_format": "hh-sol-artifact-1",
  "contractName": "GenDAO",
  "sourceName": "contracts/governance/GenDAO.sol",
  "abi": [
    {
      "inputs": [],
      "name": "Empty",
      "type": "error"
    },
    {
      "anonymous": false,
      "inputs": [
        {
          "indexed": false,
          "internalType": "uint8",
          "name": "version",
          "type": "uint8"
        }
      ],
      "name": "Initialized",
      "type": "event"
    },
    {
      "anonymous": false,
      "inputs": [
        {
          "indexed": false,
          "internalType": "uint256",
          "name": "proposalId",
          "type": "uint256"
        }
      ],
      "name": "ProposalCanceled",
      "type": "event"
    },
    {
      "anonymous": false,
      "inputs": [
        {
          "indexed": false,
          "internalType": "uint256",
          "name": "proposalId",
          "type": "uint256"
        },
        {
          "indexed": false,
          "internalType": "address",
          "name": "proposer",
          "type": "address"
        },
        {
          "indexed": false,
          "internalType": "address[]",
          "name": "targets",
          "type": "address[]"
        },
        {
          "indexed": false,
          "internalType": "uint256[]",
          "name": "values",
          "type": "uint256[]"
        },
        {
          "indexed": false,
          "internalType": "string[]",
          "name": "signatures",
          "type": "string[]"
        },
        {
          "indexed": false,
          "internalType": "bytes[]",
          "name": "calldatas",
          "type": "bytes[]"
        },
        {
          "indexed": false,
          "internalType": "uint256",
          "name": "startBlock",
          "type": "uint256"
        },
        {
          "indexed": false,
          "internalType": "uint256",
          "name": "endBlock",
          "type": "uint256"
        },
        {
          "indexed": false,
          "internalType": "string",
          "name": "description",
          "type": "string"
        }
      ],
      "name": "ProposalCreated",
      "type": "event"
    },
    {
      "anonymous": false,
      "inputs": [
        {
          "indexed": false,
          "internalType": "uint256",
          "name": "proposalId",
          "type": "uint256"
        }
      ],
      "name": "ProposalExecuted",
      "type": "event"
    },
    {
      "anonymous": false,
      "inputs": [
        {
          "indexed": false,
          "internalType": "uint256",
          "name": "proposalId",
          "type": "uint256"
        },
        {
          "indexed": false,
          "internalType": "uint256",
          "name": "eta",
          "type": "uint256"
        }
      ],
      "name": "ProposalQueued",
      "type": "event"
    },
    {
      "anonymous": false,
      "inputs": [
        {
          "indexed": false,
          "internalType": "uint256",
          "name": "oldQuorumNumerator",
          "type": "uint256"
        },
        {
          "indexed": false,
          "internalType": "uint256",
          "name": "newQuorumNumerator",
          "type": "uint256"
        }
      ],
      "name": "QuorumNumeratorUpdated",
      "type": "event"
    },
    {
      "anonymous": false,
      "inputs": [
        {
          "indexed": true,
          "internalType": "address",
          "name": "voter",
          "type": "address"
        },
        {
          "indexed": false,
          "internalType": "uint256",
          "name": "proposalId",
          "type": "uint256"
        },
        {
          "indexed": false,
          "internalType": "uint8",
          "name": "support",
          "type": "uint8"
        },
        {
          "indexed": false,
          "internalType": "uint256",
          "name": "weight",
          "type": "uint256"
        },
        {
          "indexed": false,
          "internalType": "string",
          "name": "reason",
          "type": "string"
        }
      ],
      "name": "VoteCast",
      "type": "event"
    },
    {
      "anonymous": false,
      "inputs": [
        {
          "indexed": true,
          "internalType": "address",
          "name": "voter",
          "type": "address"
        },
        {
          "indexed": false,
          "internalType": "uint256",
          "name": "proposalId",
          "type": "uint256"
        },
        {
          "indexed": false,
          "internalType": "uint8",
          "name": "support",
          "type": "uint8"
        },
        {
          "indexed": false,
          "internalType": "uint256",
          "name": "weight",
          "type": "uint256"
        },
        {
          "indexed": false,
          "internalType": "string",
          "name": "reason",
          "type": "string"
        },
        {
          "indexed": false,
          "internalType": "bytes",
          "name": "params",
          "type": "bytes"
        }
      ],
      "name": "VoteCastWithParams",
      "type": "event"
    },
    {
      "inputs": [],
      "name": "BALLOT_TYPEHASH",
      "outputs": [
        {
          "internalType": "bytes32",
          "name": "",
          "type": "bytes32"
        }
      ],
      "stateMutability": "view",
      "type": "function"
    },
    {
      "inputs": [],
      "name": "COUNTING_MODE",
      "outputs": [
        {
          "internalType": "string",
          "name": "",
          "type": "string"
        }
      ],
      "stateMutability": "pure",
      "type": "function"
    },
    {
      "inputs": [],
      "name": "EXTENDED_BALLOT_TYPEHASH",
      "outputs": [
        {
          "internalType": "bytes32",
          "name": "",
          "type": "bytes32"
        }
      ],
      "stateMutability": "view",
      "type": "function"
    },
    {
      "inputs": [],
      "name": "_admin",
      "outputs": [
        {
          "internalType": "address",
          "name": "",
          "type": "address"
        }
      ],
      "stateMutability": "view",
      "type": "function"
    },
    {
      "inputs": [],
      "name": "_paramAddr",
      "outputs": [
        {
          "internalType": "address",
          "name": "",
          "type": "address"
        }
      ],
      "stateMutability": "view",
      "type": "function"
    },
    {
      "inputs": [],
      "name": "_proposalThresholdPercent",
      "outputs": [
        {
          "internalType": "uint256",
          "name": "",
          "type": "uint256"
        }
      ],
      "stateMutability": "view",
      "type": "function"
    },
    {
      "inputs": [],
      "name": "_quorumVotePercent",
      "outputs": [
        {
          "internalType": "uint256",
          "name": "",
          "type": "uint256"
        }
      ],
      "stateMutability": "view",
      "type": "function"
    },
    {
      "inputs": [],
      "name": "_votingDelays",
      "outputs": [
        {
          "internalType": "uint256",
          "name": "",
          "type": "uint256"
        }
      ],
      "stateMutability": "view",
      "type": "function"
    },
    {
      "inputs": [],
      "name": "_votingPeriods",
      "outputs": [
        {
          "internalType": "uint256",
          "name": "",
          "type": "uint256"
        }
      ],
      "stateMutability": "view",
      "type": "function"
    },
    {
      "inputs": [],
      "name": "_votingToken",
      "outputs": [
        {
          "internalType": "contract IGENToken",
          "name": "",
          "type": "address"
        }
      ],
      "stateMutability": "view",
      "type": "function"
    },
    {
      "inputs": [
        {
          "internalType": "uint256",
          "name": "proposalId",
          "type": "uint256"
        }
      ],
      "name": "cancel",
      "outputs": [],
      "stateMutability": "nonpayable",
      "type": "function"
    },
    {
      "inputs": [
        {
          "internalType": "uint256",
          "name": "proposalId",
          "type": "uint256"
        },
        {
          "internalType": "uint8",
          "name": "support",
          "type": "uint8"
        }
      ],
      "name": "castVote",
      "outputs": [
        {
          "internalType": "uint256",
          "name": "",
          "type": "uint256"
        }
      ],
      "stateMutability": "nonpayable",
      "type": "function"
    },
    {
      "inputs": [
        {
          "internalType": "uint256",
          "name": "proposalId",
          "type": "uint256"
        },
        {
          "internalType": "uint8",
          "name": "support",
          "type": "uint8"
        },
        {
          "internalType": "uint8",
          "name": "v",
          "type": "uint8"
        },
        {
          "internalType": "bytes32",
          "name": "r",
          "type": "bytes32"
        },
        {
          "internalType": "bytes32",
          "name": "s",
          "type": "bytes32"
        }
      ],
      "name": "castVoteBySig",
      "outputs": [
        {
          "internalType": "uint256",
          "name": "",
          "type": "uint256"
        }
      ],
      "stateMutability": "nonpayable",
      "type": "function"
    },
    {
      "inputs": [
        {
          "internalType": "uint256",
          "name": "proposalId",
          "type": "uint256"
        },
        {
          "internalType": "uint8",
          "name": "support",
          "type": "uint8"
        },
        {
          "internalType": "string",
          "name": "reason",
          "type": "string"
        }
      ],
      "name": "castVoteWithReason",
      "outputs": [
        {
          "internalType": "uint256",
          "name": "",
          "type": "uint256"
        }
      ],
      "stateMutability": "nonpayable",
      "type": "function"
    },
    {
      "inputs": [
        {
          "internalType": "uint256",
          "name": "proposalId",
          "type": "uint256"
        },
        {
          "internalType": "uint8",
          "name": "support",
          "type": "uint8"
        },
        {
          "internalType": "string",
          "name": "reason",
          "type": "string"
        },
        {
          "internalType": "bytes",
          "name": "params",
          "type": "bytes"
        }
      ],
      "name": "castVoteWithReasonAndParams",
      "outputs": [
        {
          "internalType": "uint256",
          "name": "",
          "type": "uint256"
        }
      ],
      "stateMutability": "nonpayable",
      "type": "function"
    },
    {
      "inputs": [
        {
          "internalType": "uint256",
          "name": "proposalId",
          "type": "uint256"
        },
        {
          "internalType": "uint8",
          "name": "support",
          "type": "uint8"
        },
        {
          "internalType": "string",
          "name": "reason",
          "type": "string"
        },
        {
          "internalType": "bytes",
          "name": "params",
          "type": "bytes"
        },
        {
          "internalType": "uint8",
          "name": "v",
          "type": "uint8"
        },
        {
          "internalType": "bytes32",
          "name": "r",
          "type": "bytes32"
        },
        {
          "internalType": "bytes32",
          "name": "s",
          "type": "bytes32"
        }
      ],
      "name": "castVoteWithReasonAndParamsBySig",
      "outputs": [
        {
          "internalType": "uint256",
          "name": "",
          "type": "uint256"
        }
      ],
      "stateMutability": "nonpayable",
      "type": "function"
    },
    {
      "inputs": [
        {
          "internalType": "address",
          "name": "newAdm",
          "type": "address"
        }
      ],
      "name": "changeAdmin",
      "outputs": [],
      "stateMutability": "nonpayable",
      "type": "function"
    },
    {
      "inputs": [
        {
          "internalType": "address",
          "name": "newAddr",
          "type": "address"
        }
      ],
      "name": "changeParamAddress",
      "outputs": [],
      "stateMutability": "nonpayable",
      "type": "function"
    },
    {
      "inputs": [
        {
          "internalType": "uint256",
          "name": "_new",
          "type": "uint256"
        }
      ],
      "name": "changeProposalThreshold",
      "outputs": [],
      "stateMutability": "nonpayable",
      "type": "function"
    },
    {
      "inputs": [
        {
          "internalType": "uint256",
          "name": "_new",
          "type": "uint256"
        }
      ],
      "name": "changeQuorumVotes",
      "outputs": [],
      "stateMutability": "nonpayable",
      "type": "function"
    },
    {
      "inputs": [
        {
          "internalType": "uint256",
          "name": "_new",
          "type": "uint256"
        }
      ],
      "name": "changeVoteDelay",
      "outputs": [],
      "stateMutability": "nonpayable",
      "type": "function"
    },
    {
      "inputs": [
        {
          "internalType": "uint256",
          "name": "_new",
          "type": "uint256"
        }
      ],
      "name": "changeVotePeriod",
      "outputs": [],
      "stateMutability": "nonpayable",
      "type": "function"
    },
    {
      "inputs": [
        {
          "internalType": "contract IGENToken",
          "name": "_new",
          "type": "address"
        }
      ],
      "name": "changeVotingToken",
      "outputs": [],
      "stateMutability": "nonpayable",
      "type": "function"
    },
    {
      "inputs": [
        {
          "internalType": "address[]",
          "name": "targets",
          "type": "address[]"
        },
        {
          "internalType": "uint256[]",
          "name": "values",
          "type": "uint256[]"
        },
        {
          "internalType": "bytes[]",
          "name": "calldatas",
          "type": "bytes[]"
        },
        {
          "internalType": "bytes32",
          "name": "descriptionHash",
          "type": "bytes32"
        }
      ],
      "name": "execute",
      "outputs": [
        {
          "internalType": "uint256",
          "name": "",
          "type": "uint256"
        }
      ],
      "stateMutability": "payable",
      "type": "function"
    },
    {
      "inputs": [
        {
          "internalType": "uint256",
          "name": "proposalId",
          "type": "uint256"
        }
      ],
      "name": "execute",
      "outputs": [],
      "stateMutability": "payable",
      "type": "function"
    },
    {
      "inputs": [
        {
          "internalType": "uint256",
          "name": "proposalId",
          "type": "uint256"
        }
      ],
      "name": "getActions",
      "outputs": [
        {
          "internalType": "address[]",
          "name": "targets",
          "type": "address[]"
        },
        {
          "internalType": "uint256[]",
          "name": "values",
          "type": "uint256[]"
        },
        {
          "internalType": "string[]",
          "name": "signatures",
          "type": "string[]"
        },
        {
          "internalType": "bytes[]",
          "name": "calldatas",
          "type": "bytes[]"
        }
      ],
      "stateMutability": "view",
      "type": "function"
    },
    {
      "inputs": [
        {
          "internalType": "uint256",
          "name": "proposalId",
          "type": "uint256"
        },
        {
          "internalType": "address",
          "name": "voter",
          "type": "address"
        }
      ],
      "name": "getReceipt",
      "outputs": [
        {
          "components": [
            {
              "internalType": "bool",
              "name": "hasVoted",
              "type": "bool"
            },
            {
              "internalType": "uint8",
              "name": "support",
              "type": "uint8"
            },
            {
              "internalType": "uint96",
              "name": "votes",
              "type": "uint96"
            }
          ],
          "internalType": "struct IGovernorCompatibilityBravoUpgradeable.Receipt",
          "name": "",
          "type": "tuple"
        }
      ],
      "stateMutability": "view",
      "type": "function"
    },
    {
      "inputs": [
        {
          "internalType": "address",
          "name": "account",
          "type": "address"
        },
        {
          "internalType": "uint256",
          "name": "blockNumber",
          "type": "uint256"
        }
      ],
      "name": "getVotes",
      "outputs": [
        {
          "internalType": "uint256",
          "name": "",
          "type": "uint256"
        }
      ],
      "stateMutability": "view",
      "type": "function"
    },
    {
      "inputs": [
        {
          "internalType": "address",
          "name": "account",
          "type": "address"
        },
        {
          "internalType": "uint256",
          "name": "blockNumber",
          "type": "uint256"
        },
        {
          "internalType": "bytes",
          "name": "params",
          "type": "bytes"
        }
      ],
      "name": "getVotesWithParams",
      "outputs": [
        {
          "internalType": "uint256",
          "name": "",
          "type": "uint256"
        }
      ],
      "stateMutability": "view",
      "type": "function"
    },
    {
      "inputs": [
        {
          "internalType": "uint256",
          "name": "proposalId",
          "type": "uint256"
        },
        {
          "internalType": "address",
          "name": "account",
          "type": "address"
        }
      ],
      "name": "hasVoted",
      "outputs": [
        {
          "internalType": "bool",
          "name": "",
          "type": "bool"
        }
      ],
      "stateMutability": "view",
      "type": "function"
    },
    {
      "inputs": [
        {
          "internalType": "address[]",
          "name": "targets",
          "type": "address[]"
        },
        {
          "internalType": "uint256[]",
          "name": "values",
          "type": "uint256[]"
        },
        {
          "internalType": "bytes[]",
          "name": "calldatas",
          "type": "bytes[]"
        },
        {
          "internalType": "bytes32",
          "name": "descriptionHash",
          "type": "bytes32"
        }
      ],
      "name": "hashProposal",
      "outputs": [
        {
          "internalType": "uint256",
          "name": "",
          "type": "uint256"
        }
      ],
      "stateMutability": "pure",
      "type": "function"
    },
    {
      "inputs": [
        {
          "internalType": "string",
          "name": "name",
          "type": "string"
        },
        {
          "internalType": "address",
          "name": "admin",
          "type": "address"
        },
        {
          "internalType": "address",
          "name": "paramAddr",
          "type": "address"
        },
        {
          "internalType": "contract IGENToken",
          "name": "votingToken",
          "type": "address"
        }
      ],
      "name": "initialize",
      "outputs": [],
      "stateMutability": "nonpayable",
      "type": "function"
    },
    {
      "inputs": [],
      "name": "name",
      "outputs": [
        {
          "internalType": "string",
          "name": "",
          "type": "string"
        }
      ],
      "stateMutability": "view",
      "type": "function"
    },
    {
      "inputs": [
        {
          "internalType": "address",
          "name": "",
          "type": "address"
        },
        {
          "internalType": "address",
          "name": "",
          "type": "address"
        },
        {
          "internalType": "uint256[]",
          "name": "",
          "type": "uint256[]"
        },
        {
          "internalType": "uint256[]",
          "name": "",
          "type": "uint256[]"
        },
        {
          "internalType": "bytes",
          "name": "",
          "type": "bytes"
        }
      ],
      "name": "onERC1155BatchReceived",
      "outputs": [
        {
          "internalType": "bytes4",
          "name": "",
          "type": "bytes4"
        }
      ],
      "stateMutability": "nonpayable",
      "type": "function"
    },
    {
      "inputs": [
        {
          "internalType": "address",
          "name": "",
          "type": "address"
        },
        {
          "internalType": "address",
          "name": "",
          "type": "address"
        },
        {
          "internalType": "uint256",
          "name": "",
          "type": "uint256"
        },
        {
          "internalType": "uint256",
          "name": "",
          "type": "uint256"
        },
        {
          "internalType": "bytes",
          "name": "",
          "type": "bytes"
        }
      ],
      "name": "onERC1155Received",
      "outputs": [
        {
          "internalType": "bytes4",
          "name": "",
          "type": "bytes4"
        }
      ],
      "stateMutability": "nonpayable",
      "type": "function"
    },
    {
      "inputs": [
        {
          "internalType": "address",
          "name": "",
          "type": "address"
        },
        {
          "internalType": "address",
          "name": "",
          "type": "address"
        },
        {
          "internalType": "uint256",
          "name": "",
          "type": "uint256"
        },
        {
          "internalType": "bytes",
          "name": "",
          "type": "bytes"
        }
      ],
      "name": "onERC721Received",
      "outputs": [
        {
          "internalType": "bytes4",
          "name": "",
          "type": "bytes4"
        }
      ],
      "stateMutability": "nonpayable",
      "type": "function"
    },
    {
      "inputs": [
        {
          "internalType": "uint256",
          "name": "proposalId",
          "type": "uint256"
        }
      ],
      "name": "proposalDeadline",
      "outputs": [
        {
          "internalType": "uint256",
          "name": "",
          "type": "uint256"
        }
      ],
      "stateMutability": "view",
      "type": "function"
    },
    {
      "inputs": [
        {
          "internalType": "uint256",
          "name": "",
          "type": "uint256"
        }
      ],
      "name": "proposalEta",
      "outputs": [
        {
          "internalType": "uint256",
          "name": "",
          "type": "uint256"
        }
      ],
      "stateMutability": "pure",
      "type": "function"
    },
    {
      "inputs": [
        {
          "internalType": "uint256",
          "name": "proposalId",
          "type": "uint256"
        }
      ],
      "name": "proposalSnapshot",
      "outputs": [
        {
          "internalType": "uint256",
          "name": "",
          "type": "uint256"
        }
      ],
      "stateMutability": "view",
      "type": "function"
    },
    {
      "inputs": [],
      "name": "proposalThreshold",
      "outputs": [
        {
          "internalType": "uint256",
          "name": "",
          "type": "uint256"
        }
      ],
      "stateMutability": "view",
      "type": "function"
    },
    {
      "inputs": [
        {
          "internalType": "uint256",
          "name": "proposalId",
          "type": "uint256"
        }
      ],
      "name": "proposals",
      "outputs": [
        {
          "internalType": "uint256",
          "name": "id",
          "type": "uint256"
        },
        {
          "internalType": "address",
          "name": "proposer",
          "type": "address"
        },
        {
          "internalType": "uint256",
          "name": "eta",
          "type": "uint256"
        },
        {
          "internalType": "uint256",
          "name": "startBlock",
          "type": "uint256"
        },
        {
          "internalType": "uint256",
          "name": "endBlock",
          "type": "uint256"
        },
        {
          "internalType": "uint256",
          "name": "forVotes",
          "type": "uint256"
        },
        {
          "internalType": "uint256",
          "name": "againstVotes",
          "type": "uint256"
        },
        {
          "internalType": "uint256",
          "name": "abstainVotes",
          "type": "uint256"
        },
        {
          "internalType": "bool",
          "name": "canceled",
          "type": "bool"
        },
        {
          "internalType": "bool",
          "name": "executed",
          "type": "bool"
        }
      ],
      "stateMutability": "view",
      "type": "function"
    },
    {
      "inputs": [
        {
          "internalType": "address[]",
          "name": "targets",
          "type": "address[]"
        },
        {
          "internalType": "uint256[]",
          "name": "values",
          "type": "uint256[]"
        },
        {
          "internalType": "bytes[]",
          "name": "calldatas",
          "type": "bytes[]"
        },
        {
          "internalType": "string",
          "name": "description",
          "type": "string"
        }
      ],
      "name": "propose",
      "outputs": [
        {
          "internalType": "uint256",
          "name": "",
          "type": "uint256"
        }
      ],
      "stateMutability": "nonpayable",
      "type": "function"
    },
    {
      "inputs": [
        {
          "internalType": "address[]",
          "name": "targets",
          "type": "address[]"
        },
        {
          "internalType": "uint256[]",
          "name": "values",
          "type": "uint256[]"
        },
        {
          "internalType": "string[]",
          "name": "signatures",
          "type": "string[]"
        },
        {
          "internalType": "bytes[]",
          "name": "calldatas",
          "type": "bytes[]"
        },
        {
          "internalType": "string",
          "name": "description",
          "type": "string"
        }
      ],
      "name": "propose",
      "outputs": [
        {
          "internalType": "uint256",
          "name": "",
          "type": "uint256"
        }
      ],
      "stateMutability": "nonpayable",
      "type": "function"
    },
    {
      "inputs": [
        {
          "internalType": "address[]",
          "name": "",
          "type": "address[]"
        },
        {
          "internalType": "uint256[]",
          "name": "",
          "type": "uint256[]"
        },
        {
          "internalType": "bytes[]",
          "name": "",
          "type": "bytes[]"
        },
        {
          "internalType": "bytes32",
          "name": "",
          "type": "bytes32"
        }
      ],
      "name": "queue",
      "outputs": [
        {
          "internalType": "uint256",
          "name": "",
          "type": "uint256"
        }
      ],
      "stateMutability": "pure",
      "type": "function"
    },
    {
      "inputs": [
        {
          "internalType": "uint256",
          "name": "proposalId",
          "type": "uint256"
        }
      ],
      "name": "queue",
      "outputs": [],
      "stateMutability": "nonpayable",
      "type": "function"
    },
    {
      "inputs": [
        {
          "internalType": "uint256",
          "name": "blockNumber",
          "type": "uint256"
        }
      ],
      "name": "quorum",
      "outputs": [
        {
          "internalType": "uint256",
          "name": "",
          "type": "uint256"
        }
      ],
      "stateMutability": "view",
      "type": "function"
    },
    {
      "inputs": [],
      "name": "quorumDenominator",
      "outputs": [
        {
          "internalType": "uint256",
          "name": "",
          "type": "uint256"
        }
      ],
      "stateMutability": "view",
      "type": "function"
    },
    {
      "inputs": [
        {
          "internalType": "uint256",
          "name": "blockNumber",
          "type": "uint256"
        }
      ],
      "name": "quorumNumerator",
      "outputs": [
        {
          "internalType": "uint256",
          "name": "",
          "type": "uint256"
        }
      ],
      "stateMutability": "view",
      "type": "function"
    },
    {
      "inputs": [],
      "name": "quorumNumerator",
      "outputs": [
        {
          "internalType": "uint256",
          "name": "",
          "type": "uint256"
        }
      ],
      "stateMutability": "view",
      "type": "function"
    },
    {
      "inputs": [],
      "name": "quorumVotes",
      "outputs": [
        {
          "internalType": "uint256",
          "name": "",
          "type": "uint256"
        }
      ],
      "stateMutability": "view",
      "type": "function"
    },
    {
      "inputs": [
        {
          "internalType": "address",
          "name": "target",
          "type": "address"
        },
        {
          "internalType": "uint256",
          "name": "value",
          "type": "uint256"
        },
        {
          "internalType": "bytes",
          "name": "data",
          "type": "bytes"
        }
      ],
      "name": "relay",
      "outputs": [],
      "stateMutability": "payable",
      "type": "function"
    },
    {
      "inputs": [
        {
          "internalType": "uint256",
          "name": "proposalId",
          "type": "uint256"
        }
      ],
      "name": "state",
      "outputs": [
        {
          "internalType": "enum IGovernorUpgradeable.ProposalState",
          "name": "",
          "type": "uint8"
        }
      ],
      "stateMutability": "view",
      "type": "function"
    },
    {
      "inputs": [
        {
          "internalType": "bytes4",
          "name": "interfaceId",
          "type": "bytes4"
        }
      ],
      "name": "supportsInterface",
      "outputs": [
        {
          "internalType": "bool",
          "name": "",
          "type": "bool"
        }
      ],
      "stateMutability": "view",
      "type": "function"
    },
    {
      "inputs": [],
      "name": "timelock",
      "outputs": [
        {
          "internalType": "address",
          "name": "",
          "type": "address"
        }
      ],
      "stateMutability": "pure",
      "type": "function"
    },
    {
      "inputs": [],
      "name": "token",
      "outputs": [
        {
          "internalType": "contract IVotesUpgradeable",
          "name": "",
          "type": "address"
        }
      ],
      "stateMutability": "view",
      "type": "function"
    },
    {
      "inputs": [
        {
          "internalType": "uint256",
          "name": "newQuorumNumerator",
          "type": "uint256"
        }
      ],
      "name": "updateQuorumNumerator",
      "outputs": [],
      "stateMutability": "nonpayable",
      "type": "function"
    },
    {
      "inputs": [],
      "name": "version",
      "outputs": [
        {
          "internalType": "string",
          "name": "",
          "type": "string"
        }
      ],
      "stateMutability": "view",
      "type": "function"
    },
    {
      "inputs": [],
      "name": "votingDelay",
      "outputs": [
        {
          "internalType": "uint256",
          "name": "",
          "type": "uint256"
        }
      ],
      "stateMutability": "view",
      "type": "function"
    },
    {
      "inputs": [],
      "name": "votingPeriod",
      "outputs": [
        {
          "internalType": "uint256",
          "name": "",
          "type": "uint256"
        }
      ],
      "stateMutability": "view",
      "type": "function"
    },
    {
      "inputs": [
        {
          "internalType": "address",
          "name": "erc20Addr",
          "type": "address"
        },
        {
          "internalType": "uint256",
          "name": "amount",
          "type": "uint256"
        }
      ],
      "name": "withdraw",
      "outputs": [],
      "stateMutability": "nonpayable",
      "type": "function"
    },
    {
      "stateMutability": "payable",
      "type": "receive"
    }
  ],
  "bytecode": "0x608060405234801561001057600080fd5b5061528f806100206000396000f3fe60806040526004361061039b5760003560e01c80638f283970116101dc578063d33219b411610102578063f23a6e61116100a0578063f8ce560a1161006f578063f8ce560a14610c3d578063f9dabc5514610c5d578063fc0c546a14610c7d578063fe0d94c114610c9e57600080fd5b8063f23a6e6114610bb0578063f34822b414610bdc578063f3fef3a314610bfc578063f4a290f714610c1c57600080fd5b8063ddf0b009116100dc578063ddf0b00914610a71578063deaaa7cc14610a91578063e23a9a5214610ac5578063eb9019d414610b9057600080fd5b8063d33219b4146109f7578063da95691a14610a0b578063dd4e2ba514610a2b57600080fd5b8063ab58fb8e1161017a578063bc197c8111610149578063bc197c8114610978578063c01f9e37146109a4578063c28bc2fa146109c4578063c59057e4146109d757600080fd5b8063ab58fb8e14610902578063b15c4a4214610923578063b3af077714610943578063b58131b01461096357600080fd5b8063a4d82225116101b6578063a4d8222514610895578063a7713a70146108b6578063a8f0a82e146108cb578063aa662214146108eb57600080fd5b80638f2839701461084157806397c3d334146108615780639a802a6d1461087557600080fd5b80632fe3e261116102c157806354dfc2ed1161025f5780635f398a141161022e5780635f398a14146107c157806360c4247f146107e15780637b3c71d3146108015780637d5e81e21461082157600080fd5b806354dfc2ed1461074057806354fd4d5014610760578063567813881461078a57806358394825146107aa57600080fd5b80633bccf4fd1161029b5780633bccf4fd146106885780633e4f49e6146106a857806340e58ee5146106d557806343859632146106f557600080fd5b80632fe3e2611461060e578063328dd982146106425780633932abb11461067257600080fd5b806306fdde031161033957806316a5041f1161030857806316a5041f146105a657806324bc1a64146105c65780632656227d146105db5780632d63f693146105ee57600080fd5b806306fdde03146105045780630f1fe6ec14610526578063150b7a021461053d578063160cbed71461058157600080fd5b806302a251a31161037557806302a251a31461048d57806303420181146104ad578063050c0299146104cd57806306f3f9e6146104e457600080fd5b8063013cf08b146103a957806301bc45c91461042457806301ffc9a71461045d57600080fd5b366103a457005b005b600080fd5b3480156103b557600080fd5b506103c96103c43660046142a0565b610cb6565b604080519a8b526001600160a01b0390991660208b0152978901969096526060880194909452608087019290925260a086015260c085015260e084015215156101008301521515610120820152610140015b60405180910390f35b34801561043057600080fd5b506101f854610445906001600160a01b031681565b6040516001600160a01b03909116815260200161041b565b34801561046957600080fd5b5061047d6104783660046142b9565b610d55565b604051901515815260200161041b565b34801561049957600080fd5b506101fd545b60405190815260200161041b565b3480156104b957600080fd5b5061049f6104c83660046143ef565b610d66565b3480156104d957600080fd5b5061049f6101fe5481565b3480156104f057600080fd5b506103a26104ff3660046142a0565b610e5e565b34801561051057600080fd5b50610519610ed6565b60405161041b91906144ed565b34801561053257600080fd5b5061049f6101fb5481565b34801561054957600080fd5b50610568610558366004614515565b630a85bd0160e11b949350505050565b6040516001600160e01b0319909116815260200161041b565b34801561058d57600080fd5b5061049f61059c3660046146f1565b6000949350505050565b3480156105b257600080fd5b506103a26105c1366004614780565b610f69565b3480156105d257600080fd5b5061049f610ffe565b61049f6105e93660046146f1565b611093565b3480156105fa57600080fd5b5061049f6106093660046142a0565b6111c0565b34801561061a57600080fd5b5061049f7fb3b3f3b703cd84ce352197dcff232b1b5d3cfb2025ce47cf04742d0651f1af8881565b34801561064e57600080fd5b5061066261065d3660046142a0565b6111f8565b60405161041b9493929190614866565b34801561067e57600080fd5b506101fe5461049f565b34801561069457600080fd5b5061049f6106a33660046148b3565b61148a565b3480156106b457600080fd5b506106c86106c33660046142a0565b611500565b60405161041b9190614917565b3480156106e157600080fd5b506103a26106f03660046142a0565b61150b565b34801561070157600080fd5b5061047d61071036600461493f565b6000828152610161602090815260408083206001600160a01b038516845260080190915290205460ff1692915050565b34801561074c57600080fd5b506103a261075b366004614780565b611824565b34801561076c57600080fd5b506040805180820190915260018152603160f81b6020820152610519565b34801561079657600080fd5b5061049f6107a536600461496f565b6118b2565b3480156107b657600080fd5b5061049f6101fd5481565b3480156107cd57600080fd5b5061049f6107dc36600461499b565b6118db565b3480156107ed57600080fd5b5061049f6107fc3660046142a0565b611925565b34801561080d57600080fd5b5061049f61081c366004614a1e565b6119be565b34801561082d57600080fd5b5061049f61083c366004614a77565b611a10565b34801561084d57600080fd5b506103a261085c366004614780565b611a27565b34801561086d57600080fd5b50606461049f565b34801561088157600080fd5b5061049f610890366004614b17565b611abc565b3480156108a157600080fd5b506101fa54610445906001600160a01b031681565b3480156108c257600080fd5b5061049f611ad3565b3480156108d757600080fd5b506103a26108e63660046142a0565b611b00565b3480156108f757600080fd5b5061049f6101fc5481565b34801561090e57600080fd5b5061049f61091d3660046142a0565b50600090565b34801561092f57600080fd5b506103a261093e3660046142a0565b611b58565b34801561094f57600080fd5b506103a261095e3660046142a0565b611bb0565b34801561096f57600080fd5b5061049f611c08565b34801561098457600080fd5b50610568610993366004614b6f565b63bc197c8160e01b95945050505050565b3480156109b057600080fd5b5061049f6109bf3660046142a0565b611c93565b6103a26109d2366004614c02565b611cc3565b3480156109e357600080fd5b5061049f6109f23660046146f1565b611dbb565b348015610a0357600080fd5b506000610445565b348015610a1757600080fd5b5061049f610a26366004614cc4565b611df5565b348015610a3757600080fd5b5060408051808201909152601a81527f737570706f72743d627261766f2671756f72756d3d627261766f0000000000006020820152610519565b348015610a7d57600080fd5b506103a2610a8c3660046142a0565b611e1a565b348015610a9d57600080fd5b5061049f7f150214d74d59b7d1e90c73fc22ef3d991dd0a76b046543d4d80ab92d2a50328f81565b348015610ad157600080fd5b50610b60610ae036600461493f565b6040805160608101825260008082526020820181905291810191909152506000918252610161602090815260408084206001600160a01b0393909316845260089092018152918190208151606081018352905460ff8082161515835261010082041693820193909352620100009092046001600160601b03169082015290565b6040805182511515815260208084015160ff1690820152918101516001600160601b03169082015260600161041b565b348015610b9c57600080fd5b5061049f610bab366004614d65565b612088565b348015610bbc57600080fd5b50610568610bcb366004614d91565b63f23a6e6160e01b95945050505050565b348015610be857600080fd5b506103a2610bf7366004614df9565b6120a9565b348015610c0857600080fd5b506103a2610c17366004614d65565b6122a4565b348015610c2857600080fd5b506101f954610445906001600160a01b031681565b348015610c4957600080fd5b5061049f610c583660046142a0565b6123e0565b348015610c6957600080fd5b506103a2610c783660046142a0565b61246f565b348015610c8957600080fd5b5061019354610445906001600160a01b031681565b6103a2610cac3660046142a0565b6124c7565b905090565b8060008080808080808080610cca8a6111c0565b9650610cd58b611c93565b60008c81526101616020526040812080546005820154600683015460078401546001600160a01b039093169e50949a509850929650919450610d168d611500565b90506002816007811115610d2c57610d2c614901565b1493506007816007811115610d4357610d43614901565b14925050509193959799509193959799565b6000610d6082612736565b92915050565b600080610e0a610e027fb3b3f3b703cd84ce352197dcff232b1b5d3cfb2025ce47cf04742d0651f1af888c8c8c8c604051610da2929190614e6d565b60405180910390208b80519060200120604051602001610de7959493929190948552602085019390935260ff9190911660408401526060830152608082015260a00190565b604051602081830303815290604052805190602001206127a1565b8686866127ef565b9050610e508a828b8b8b8080601f0160208091040260200160405190810160405280939291908181526020018383808284376000920191909152508d925061280d915050565b9a9950505050505050505050565b333014610ead5760405162461bcd60e51b8152602060048201526018602482015277476f7665726e6f723a206f6e6c79476f7665726e616e636560401b60448201526064015b60405180910390fd5b610eca565b80610ebe61013161296f565b14610ec857610eb2565b505b610ed3816129ee565b50565b606061012f8054610ee690614e7d565b80601f0160208091040260200160405190810160405280929190818152602001828054610f1290614e7d565b8015610f5f5780601f10610f3457610100808354040283529160200191610f5f565b820191906000526020600020905b815481529060010190602001808311610f4257829003601f168201915b5050505050905090565b6101f8546001600160a01b031633148015610f8c57506001600160a01b03811615155b6040518060400160405280600381526020016231303160e81b81525090610fc65760405162461bcd60e51b8152600401610ea491906144ed565b506101f9546001600160a01b03828116911614610ed3576101f980546001600160a01b0383166001600160a01b031990911617905550565b60006127106101fa60009054906101000a90046001600160a01b03166001600160a01b03166318160ddd6040518163ffffffff1660e01b8152600401602060405180830381865afa158015611057573d6000803e3d6000fd5b505050506040513d601f19601f8201168201806040525081019061107b9190614eb8565b6101fc546110899190614ee7565b610cb19190614f06565b6000806110a286868686611dbb565b905060006110af82611500565b905060048160078111156110c5576110c5614901565b14806110e2575060058160078111156110e0576110e0614901565b145b6111385760405162461bcd60e51b815260206004820152602160248201527f476f7665726e6f723a2070726f706f73616c206e6f74207375636365737366756044820152601b60fa1b6064820152608401610ea4565b6000828152610130602052604090819020600201805460ff19166001179055517f712ae1383f79ac853f8d882153778e0260ef8f03b504e2866e0593e04d2b291f906111879084815260200190565b60405180910390a161119c8288888888612b3d565b6111a98288888888612bcb565b6111b68288888888612b3d565b5095945050505050565b6000818152610130602090815260408083208151928301909152546001600160401b0316908190525b6001600160401b031692915050565b606080606080600061016160008781526020019081526020016000209050806001018160020182600301836004018380548060200260200160405190810160405280929190818152602001828054801561127b57602002820191906000526020600020905b81546001600160a01b0316815260019091019060200180831161125d575b50505050509350828054806020026020016040519081016040528092919081815260200182805480156112cd57602002820191906000526020600020905b8154815260200190600101908083116112b9575b5050505050925081805480602002602001604051908101604052809291908181526020016000905b828210156113a157838290600052602060002001805461131490614e7d565b80601f016020809104026020016040519081016040528092919081815260200182805461134090614e7d565b801561138d5780601f106113625761010080835404028352916020019161138d565b820191906000526020600020905b81548152906001019060200180831161137057829003601f168201915b5050505050815260200190600101906112f5565b50505050915080805480602002602001604051908101604052809291908181526020016000905b828210156114745783829060005260206000200180546113e790614e7d565b80601f016020809104026020016040519081016040528092919081815260200182805461141390614e7d565b80156114605780601f1061143557610100808354040283529160200191611460565b820191906000526020600020905b81548152906001019060200180831161144357829003601f168201915b5050505050815260200190600101906113c8565b5050505090509450945094509450509193509193565b604080517f150214d74d59b7d1e90c73fc22ef3d991dd0a76b046543d4d80ab92d2a50328f602082015290810186905260ff8516606082015260009081906114d890610e0290608001610de7565b90506114f587828860405180602001604052806000815250612bd8565b979650505050505050565b6000610d6082612bfb565b60008181526101616020526040902080546001600160a01b0316336001600160a01b0316148061155a575061153e611c08565b8154611558906001600160a01b0316610bab600143614f28565b105b6115b65760405162461bcd60e51b815260206004820152602760248201527f476f7665726e6f72427261766f3a2070726f706f7365722061626f76652074686044820152661c995cda1bdb1960ca1b6064820152608401610ea4565b61181f8160010180548060200260200160405190810160405280929190818152602001828054801561161157602002820191906000526020600020905b81546001600160a01b031681526001909101906020018083116115f3575b50505050508260020180548060200260200160405190810160405280929190818152602001828054801561166457602002820191906000526020600020905b815481526020019060010190808311611650575b505050505061181584600301805480602002602001604051908101604052809291908181526020016000905b8282101561173c5783829060005260206000200180546116af90614e7d565b80601f01602080910402602001604051908101604052809291908181526020018280546116db90614e7d565b80156117285780601f106116fd57610100808354040283529160200191611728565b820191906000526020600020905b81548152906001019060200180831161170b57829003601f168201915b505050505081526020019060010190611690565b50505060048701805460408051602080840282018101909252828152935060009084015b8282101561180c57838290600052602060002001805461177f90614e7d565b80601f01602080910402602001604051908101604052809291908181526020018280546117ab90614e7d565b80156117f85780601f106117cd576101008083540402835291602001916117f8565b820191906000526020600020905b8154815290600101906020018083116117db57829003601f168201915b505050505081526020019060010190611760565b50505050612d0c565b8460090154612e3e565b505050565b6101f85460408051808201909152600381526231303160e81b6020820152906001600160a01b0316331461186b5760405162461bcd60e51b8152600401610ea491906144ed565b506101fa546001600160a01b03828116911614610ed3576101fa80546001600160a01b0383166001600160a01b031991821681179092556101938054909116909117905550565b6000803390506118d384828560405180602001604052806000815250612bd8565b949350505050565b6000803390506114f587828888888080601f0160208091040260200160405190810160405280939291908181526020018383808284376000920191909152508a925061280d915050565b6101c7546000908061193c5750506101c654919050565b60006101c761194c600184614f28565b8154811061195c5761195c614f3f565b60009182526020918290206040805180820190915291015463ffffffff8116808352600160201b9091046001600160e01b031692820192909252915084106119b257602001516001600160e01b03169392505050565b6118d36101c785612e4c565b600080339050611a0686828787878080601f016020809104026020016040519081016040528093929190818152602001838380828437600092019190915250612bd892505050565b9695505050505050565b6000611a1e85858585612f0c565b95945050505050565b6101f8546001600160a01b031633148015611a4a57506001600160a01b03811615155b6040518060400160405280600381526020016231303160e81b81525090611a845760405162461bcd60e51b8152600401610ea491906144ed565b506101f8546001600160a01b03828116911614610ed3576101f880546001600160a01b0383166001600160a01b031990911617905550565b6000611ac9848484612f74565b90505b9392505050565b6101c75460009015611af857611aea6101c7612feb565b6001600160e01b0316905090565b506101c65490565b6101f85460408051808201909152600381526231303160e81b6020820152906001600160a01b03163314611b475760405162461bcd60e51b8152600401610ea491906144ed565b50806101fc5414610ed3576101fc55565b6101f85460408051808201909152600381526231303160e81b6020820152906001600160a01b03163314611b9f5760405162461bcd60e51b8152600401610ea491906144ed565b50806101fd5414610ed3576101fd55565b6101f85460408051808201909152600381526231303160e81b6020820152906001600160a01b03163314611bf75760405162461bcd60e51b8152600401610ea491906144ed565b50806101fe5414610ed3576101fe55565b60006127106101fa60009054906101000a90046001600160a01b03166001600160a01b03166318160ddd6040518163ffffffff1660e01b8152600401602060405180830381865afa158015611c61573d6000803e3d6000fd5b505050506040513d601f19601f82011682018060405250810190611c859190614eb8565b6101fb546110899190614ee7565b6000818152610130602090815260408083208151928301909152600101546001600160401b0316908190526111e9565b333014611d0d5760405162461bcd60e51b8152602060048201526018602482015277476f7665726e6f723a206f6e6c79476f7665726e616e636560401b6044820152606401610ea4565b611d2a565b80611d1e61013161296f565b14611d2857611d12565b505b600080856001600160a01b0316858585604051611d48929190614e6d565b60006040518083038185875af1925050503d8060008114611d85576040519150601f19603f3d011682016040523d82523d6000602084013e611d8a565b606091505b5091509150611db2828260405180606001604052806028815260200161520b60289139613024565b50505050505050565b600084848484604051602001611dd49493929190614f55565b60408051601f19818403018152919052805160209091012095945050505050565b6000611e0533878787878761303d565b611a068686611e148787612d0c565b85611a10565b60008181526101616020908152604091829020600181018054845181850281018501909552808552919361181f93909290830182828015611e8457602002820191906000526020600020905b81546001600160a01b03168152600190910190602001808311611e66575b505050505082600201805480602002602001604051908101604052809291908181526020018280548015611ed757602002820191906000526020600020905b815481526020019060010190808311611ec3575b505050505061207f84600301805480602002602001604051908101604052809291908181526020016000905b82821015611faf578382906000526020600020018054611f2290614e7d565b80601f0160208091040260200160405190810160405280929190818152602001828054611f4e90614e7d565b8015611f9b5780601f10611f7057610100808354040283529160200191611f9b565b820191906000526020600020905b815481529060010190602001808311611f7e57829003601f168201915b505050505081526020019060010190611f03565b50505060048701805460408051602080840282018101909252828152935060009084015b8282101561180c578382906000526020600020018054611ff290614e7d565b80601f016020809104026020016040519081016040528092919081815260200182805461201e90614e7d565b801561206b5780601f106120405761010080835404028352916020019161206b565b820191906000526020600020905b81548152906001019060200180831161204e57829003601f168201915b505050505081526020019060010190611fd3565b50600092915050565b6000611acc83836120a460408051602081019091526000815290565b612f74565b600054610100900460ff16158080156120c95750600054600160ff909116105b806120e35750303b1580156120e3575060005460ff166001145b6121465760405162461bcd60e51b815260206004820152602e60248201527f496e697469616c697a61626c653a20636f6e747261637420697320616c72656160448201526d191e481a5b9a5d1a585b1a5e995960921b6064820152608401610ea4565b6000805460ff191660011790558015612169576000805461ff0019166101001790555b6001600160a01b0384161580159061218957506001600160a01b03831615155b801561219d57506001600160a01b03821615155b6040518060400160405280600381526020016203130360ec1b815250906121d75760405162461bcd60e51b8152600401610ea491906144ed565b506101f880546001600160a01b038087166001600160a01b0319928316179092556101f980548684169083161790556101fa8054928516929091169190911790556101f46101fb5560646101fc556119af6101fe5561b3cb6101fd5561223c856130fb565b612244613152565b61224d8261317b565b61225760326131ab565b801561229d576000805461ff0019169055604051600181527f7f26b83ff96e1f2b6a682f133852f6798a09c465da95921460cefb38474024989060200160405180910390a15b5050505050565b6101f85460408051808201909152600381526231303160e81b6020820152906001600160a01b031633146122eb5760405162461bcd60e51b8152600401610ea491906144ed565b5060006001600160a01b03831661235e578147101561230957600080fd5b60405133908390600081818185875af1925050503d8060008114612349576040519150601f19603f3d011682016040523d82523d6000602084013e61234e565b606091505b5050809150508061181f57600080fd5b60405163a9059cbb60e01b81523360048201526024810183905283906001600160a01b0382169063a9059cbb906044016020604051808303816000875af11580156123ad573d6000803e3d6000fd5b505050506040513d601f19601f820116820180604052508101906123d19190614fa0565b6123da57600080fd5b50505050565b600060646123ed83611925565b61019354604051632394e7a360e21b8152600481018690526001600160a01b0390911690638e539e8c90602401602060405180830381865afa158015612437573d6000803e3d6000fd5b505050506040513d601f19601f8201168201806040525081019061245b9190614eb8565b6124659190614ee7565b610d609190614f06565b6101f85460408051808201909152600381526231303160e81b6020820152906001600160a01b031633146124b65760405162461bcd60e51b8152600401610ea491906144ed565b50806101fb5414610ed3576101fb55565b60008181526101616020908152604091829020600181018054845181850281018501909552808552919361181f9390929083018282801561253157602002820191906000526020600020905b81546001600160a01b03168152600190910190602001808311612513575b50505050508260020180548060200260200160405190810160405280929190818152602001828054801561258457602002820191906000526020600020905b815481526020019060010190808311612570575b505050505061272c84600301805480602002602001604051908101604052809291908181526020016000905b8282101561265c5783829060005260206000200180546125cf90614e7d565b80601f01602080910402602001604051908101604052809291908181526020018280546125fb90614e7d565b80156126485780601f1061261d57610100808354040283529160200191612648565b820191906000526020600020905b81548152906001019060200180831161262b57829003601f168201915b5050505050815260200190600101906125b0565b50505060048701805460408051602080840282018101909252828152935060009084015b8282101561180c57838290600052602060002001805461269f90614e7d565b80601f01602080910402602001604051908101604052809291908181526020018280546126cb90614e7d565b80156127185780601f106126ed57610100808354040283529160200191612718565b820191906000526020600020905b8154815290600101906020018083116126fb57829003601f168201915b505050505081526020019060010190612680565b8460090154611093565b60006001600160e01b0319821663bf26d89760e01b148061276757506001600160e01b031982166379dd796f60e01b145b8061278257506001600160e01b03198216630271189760e51b145b80610d6057506301ffc9a760e01b6001600160e01b0319831614610d60565b6000610d606127ae6131db565b8360405161190160f01b6020820152602281018390526042810182905260009060620160405160208183030381529060405280519060200120905092915050565b600080600061280087878787613256565b915091506111b68161331a565b600085815261013060205260408120600161282788611500565b600781111561283857612838614901565b146128915760405162461bcd60e51b815260206004820152602360248201527f476f7665726e6f723a20766f7465206e6f742063757272656e746c792061637460448201526269766560e81b6064820152608401610ea4565b604080516020810190915281546001600160401b0316908190526000906128ba90889086612f74565b90506128c98888888488613468565b835161291b57866001600160a01b03167fb8e138887d0aa13bab447e82de9d5c1777041ecd21ca36ba824ff1e6c07ddda48988848960405161290e9493929190614fc2565b60405180910390a26114f5565b866001600160a01b03167fe2babfbac5889a709b63bb7f598b324e08bc5a4fb9ec647fb3cbc9ec07eb8712898884898960405161295c959493929190614fea565b60405180910390a2979650505050505050565b600061298a8254600f81810b600160801b909204900b131590565b156129a857604051631ed9509560e11b815260040160405180910390fd5b508054600f0b6000818152600180840160205260408220805492905583546fffffffffffffffffffffffffffffffff191692016001600160801b03169190911790915590565b6064811115612a715760405162461bcd60e51b815260206004820152604360248201527f476f7665726e6f72566f74657351756f72756d4672616374696f6e3a2071756f60448201527f72756d4e756d657261746f72206f7665722071756f72756d44656e6f6d696e616064820152623a37b960e91b608482015260a401610ea4565b6000612a7b611ad3565b90508015801590612a8d57506101c754155b15612af25760408051808201909152600081526101c79060208101612ab184613606565b6001600160e01b039081169091528254600181018455600093845260209384902083519490930151909116600160201b0263ffffffff909316929092179101555b612afe6101c783613673565b505060408051828152602081018490527f0553476bf02ef2726e8ce5ced78d63e26e602e4a2257b1f559418e24b4633997910160405180910390a15050565b61229d565b8451811015612bc357306001600160a01b0316858281518110612b6757612b67614f3f565b60200260200101516001600160a01b03161415612bb357612bb3838281518110612b9357612b93614f3f565b6020026020010151805190602001206101316136a990919063ffffffff16565b612bbc81615030565b9050612b42565b505050505050565b61229d85858585856136e5565b6000611a1e85858585612bf660408051602081019091526000815290565b61280d565b600081815261013060205260408120600281015460ff1615612c205750600792915050565b6002810154610100900460ff1615612c3b5750600292915050565b6000612c46846111c0565b905080612c955760405162461bcd60e51b815260206004820152601d60248201527f476f7665726e6f723a20756e6b6e6f776e2070726f706f73616c2069640000006044820152606401610ea4565b438110612ca6575060009392505050565b6000612cb185611c93565b9050438110612cc557506001949350505050565b612cce856137db565b8015612cf157506000858152610161602052604090206006810154600590910154115b15612d0157506004949350505050565b506003949350505050565b6060600082516001600160401b03811115612d2957612d2961433a565b604051908082528060200260200182016040528015612d5c57816020015b6060815260200190600190039081612d475790505b50905060005b8451811015612e3657848181518110612d7d57612d7d614f3f565b602002602001015151600014612ded57848181518110612d9f57612d9f614f3f565b602002602001015180519060200120848281518110612dc057612dc0614f3f565b6020026020010151604051602001612dd992919061504b565b604051602081830303815290604052612e08565b838181518110612dff57612dff614f3f565b60200260200101515b828281518110612e1a57612e1a614f3f565b602002602001018190525080612e2f90615030565b9050612d62565b509392505050565b6000611a1e85858585613804565b6000438210612e9d5760405162461bcd60e51b815260206004820181905260248201527f436865636b706f696e74733a20626c6f636b206e6f7420796574206d696e65646044820152606401610ea4565b6000612ea883613923565b84549091506000612ebb86848385613988565b90508015612ef657612ee086612ed2600184614f28565b600091825260209091200190565b54600160201b90046001600160e01b0316612ef9565b60005b6001600160e01b03169695505050505050565b6000612f6833868686516001600160401b03811115612f2d57612f2d61433a565b604051908082528060200260200182016040528015612f6057816020015b6060815260200190600190039081612f4b5790505b50878761303d565b611a1e858585856139de565b61019354604051630748d63560e31b81526001600160a01b038581166004830152602482018590526000921690633a46b1a890604401602060405180830381865afa158015612fc7573d6000803e3d6000fd5b505050506040513d601f19601f82011682018060405250810190611ac99190614eb8565b8054600090801561301b5761300583612ed2600184614f28565b54600160201b90046001600160e01b0316611acc565b60009392505050565b60608315613033575081611acc565b611acc8383613ca6565b80516020820120600061305b87876130558888612d0c565b85611dbb565b6000818152610161602052604090206009810154919250906130f05780546001600160a01b0319166001600160a01b038a1617815587516130a590600183019060208b0190614056565b5086516130bb90600283019060208a01906140b7565b5085516130d190600383019060208901906140f2565b5084516130e7906004830190602088019061414b565b50600981018390555b505050505050505050565b600054610100900460ff166131225760405162461bcd60e51b8152600401610ea49061507c565b613149816131446040805180820190915260018152603160f81b602082015290565b613cd4565b610ed381613d15565b600054610100900460ff166131795760405162461bcd60e51b8152600401610ea49061507c565b565b600054610100900460ff166131a25760405162461bcd60e51b8152600401610ea49061507c565b610ed381613d50565b600054610100900460ff166131d25760405162461bcd60e51b8152600401610ea49061507c565b610ed381613d9a565b6000610cb17f8b73c3c69bb8fe3d512ecc4cf759cc79239f7b179b0ffacaa9a75d522b39400f61320a60655490565b6066546040805160208101859052908101839052606081018290524660808201523060a082015260009060c0016040516020818303038152906040528051906020012090509392505050565b6000807f7fffffffffffffffffffffffffffffff5d576e7357a4501ddfe92f46681b20a083111561328d5750600090506003613311565b6040805160008082526020820180845289905260ff881692820192909252606081018690526080810185905260019060a0016020604051602081039080840390855afa1580156132e1573d6000803e3d6000fd5b5050604051601f1901519150506001600160a01b03811661330a57600060019250925050613311565b9150600090505b94509492505050565b600081600481111561332e5761332e614901565b14156133375750565b600181600481111561334b5761334b614901565b14156133995760405162461bcd60e51b815260206004820152601860248201527f45434453413a20696e76616c6964207369676e617475726500000000000000006044820152606401610ea4565b60028160048111156133ad576133ad614901565b14156133fb5760405162461bcd60e51b815260206004820152601f60248201527f45434453413a20696e76616c6964207369676e6174757265206c656e677468006044820152606401610ea4565b600381600481111561340f5761340f614901565b1415610ed35760405162461bcd60e51b815260206004820152602260248201527f45434453413a20696e76616c6964207369676e6174757265202773272076616c604482015261756560f01b6064820152608401610ea4565b6000858152610161602090815260408083206001600160a01b038816845260088101909252909120805460ff16156134f85760405162461bcd60e51b815260206004820152602d60248201527f476f7665726e6f72436f6d7061746962696c697479427261766f3a20766f746560448201526c08185b1c9958591e4818d85cdd609a1b6064820152608401610ea4565b805460ff86166101000261ffff1990911617600117815561351884613dc1565b81546001600160601b039190911662010000026dffffffffffffffffffffffff00001990911617815560ff8516613568578382600601600082825461355d91906150c7565b90915550611db29050565b60ff851660011415613588578382600501600082825461355d91906150c7565b60ff8516600214156135a8578382600701600082825461355d91906150c7565b60405162461bcd60e51b815260206004820152602d60248201527f476f7665726e6f72436f6d7061746962696c697479427261766f3a20696e766160448201526c6c696420766f7465207479706560981b6064820152608401610ea4565b60006001600160e01b0382111561366f5760405162461bcd60e51b815260206004820152602760248201527f53616665436173743a2076616c756520646f65736e27742066697420696e20326044820152663234206269747360c81b6064820152608401610ea4565b5090565b6000806136918461368343613923565b61368c86613606565b613e29565b6001600160e01b0391821693501690505b9250929050565b8154600160801b90819004600f0b6000818152600180860160205260409091209390935583546001600160801b03908116939091011602179055565b600060405180606001604052806027815260200161523360279139905060005b8551811015611db25760008087838151811061372357613723614f3f565b60200260200101516001600160a01b031687848151811061374657613746614f3f565b602002602001015187858151811061376057613760614f3f565b602002602001015160405161377591906150df565b60006040518083038185875af1925050503d80600081146137b2576040519150601f19603f3d011682016040523d82523d6000602084013e6137b7565b606091505b50915091506137c7828286613024565b505050806137d490615030565b9050613705565b60008181526101616020526040812060058101546137fb610c58856111c0565b11159392505050565b60008061381386868686611dbb565b9050600061382082611500565b9050600281600781111561383657613836614901565b141580156138565750600681600781111561385357613853614901565b14155b80156138745750600781600781111561387157613871614901565b14155b6138c05760405162461bcd60e51b815260206004820152601d60248201527f476f7665726e6f723a2070726f706f73616c206e6f74206163746976650000006044820152606401610ea4565b6000828152610130602052604090819020600201805461ff001916610100179055517f789cf55be980739dad1d0699b93b58e806b51c9d96619bfa8fe0a28abaa7b30c906139119084815260200190565b60405180910390a15095945050505050565b600063ffffffff82111561366f5760405162461bcd60e51b815260206004820152602660248201527f53616665436173743a2076616c756520646f65736e27742066697420696e203360448201526532206269747360d01b6064820152608401610ea4565b60005b81831015612e3657600061399f8484613fd3565b60008781526020902090915063ffffffff86169082015463ffffffff1611156139ca578092506139d8565b6139d58160016150c7565b93505b5061398b565b60006139e8611c08565b6139f733610bab600143614f28565b1015613a5f5760405162461bcd60e51b815260206004820152603160248201527f476f7665726e6f723a2070726f706f73657220766f7465732062656c6f7720706044820152701c9bdc1bdcd85b081d1a1c995cda1bdb19607a1b6064820152608401610ea4565b6000613a748686868680519060200120611dbb565b90508451865114613a975760405162461bcd60e51b8152600401610ea4906150fb565b8351865114613ab85760405162461bcd60e51b8152600401610ea4906150fb565b6000865111613b095760405162461bcd60e51b815260206004820152601860248201527f476f7665726e6f723a20656d7074792070726f706f73616c00000000000000006044820152606401610ea4565b60008181526101306020908152604091829020825191820190925281546001600160401b03169081905215613b8a5760405162461bcd60e51b815260206004820152602160248201527f476f7665726e6f723a2070726f706f73616c20616c72656164792065786973746044820152607360f81b6064820152608401610ea4565b6000613b9e613b996101fe5490565b613fee565b613ba743613fee565b613bb1919061513c565b90506000613bc2613b996101fd5490565b613bcc908361513c565b835467ffffffffffffffff19166001600160401b038416178455905060018301805467ffffffffffffffff19166001600160401b0383161790557f7d84a6263ae0d98d3329bd7b46bb4e8d6f98cd35a7adb45c274c8b7fd5ebd5e084338b8b8d516001600160401b03811115613c4457613c4461433a565b604051908082528060200260200182016040528015613c7757816020015b6060815260200190600190039081613c625790505b508c88888e604051613c9199989796959493929190615167565b60405180910390a15091979650505050505050565b815115613cb65781518083602001fd5b8060405162461bcd60e51b8152600401610ea491906144ed565b5050565b600054610100900460ff16613cfb5760405162461bcd60e51b8152600401610ea49061507c565b815160209283012081519190920120606591909155606655565b600054610100900460ff16613d3c5760405162461bcd60e51b8152600401610ea49061507c565b8051613cd09061012f9060208401906141a4565b600054610100900460ff16613d775760405162461bcd60e51b8152600401610ea49061507c565b61019380546001600160a01b0319166001600160a01b0392909216919091179055565b600054610100900460ff16610eca5760405162461bcd60e51b8152600401610ea49061507c565b60006001600160601b0382111561366f5760405162461bcd60e51b815260206004820152602660248201527f53616665436173743a2076616c756520646f65736e27742066697420696e203960448201526536206269747360d01b6064820152608401610ea4565b825460009081908015613f76576000613e4787612ed2600185614f28565b60408051808201909152905463ffffffff808216808452600160201b9092046001600160e01b031660208401529192509087161015613ec85760405162461bcd60e51b815260206004820152601760248201527f436865636b706f696e743a20696e76616c6964206b65790000000000000000006044820152606401610ea4565b8563ffffffff16816000015163ffffffff161415613f175784613ef088612ed2600186614f28565b80546001600160e01b0392909216600160201b0263ffffffff909216919091179055613f66565b6040805180820190915263ffffffff80881682526001600160e01b0380881660208085019182528b54600181018d5560008d81529190912094519151909216600160201b029216919091179101555b602001519250839150613fcb9050565b50506040805180820190915263ffffffff80851682526001600160e01b0380851660208085019182528854600181018a5560008a815291822095519251909316600160201b0291909316179201919091559050815b935093915050565b6000613fe26002848418614f06565b611acc908484166150c7565b60006001600160401b0382111561366f5760405162461bcd60e51b815260206004820152602660248201527f53616665436173743a2076616c756520646f65736e27742066697420696e203660448201526534206269747360d01b6064820152608401610ea4565b8280548282559060005260206000209081019282156140ab579160200282015b828111156140ab57825182546001600160a01b0319166001600160a01b03909116178255602090920191600190910190614076565b5061366f929150614217565b8280548282559060005260206000209081019282156140ab579160200282015b828111156140ab5782518255916020019190600101906140d7565b82805482825590600052602060002090810192821561413f579160200282015b8281111561413f578251805161412f9184916020909101906141a4565b5091602001919060010190614112565b5061366f92915061422c565b828054828255906000526020600020908101928215614198579160200282015b8281111561419857825180516141889184916020909101906141a4565b509160200191906001019061416b565b5061366f929150614249565b8280546141b090614e7d565b90600052602060002090601f0160209004810192826141d257600085556140ab565b82601f106141eb57805160ff19168380011785556140ab565b828001600101855582156140ab57918201828111156140ab5782518255916020019190600101906140d7565b5b8082111561366f5760008155600101614218565b8082111561366f5760006142408282614266565b5060010161422c565b8082111561366f57600061425d8282614266565b50600101614249565b50805461427290614e7d565b6000825580601f10614282575050565b601f016020900490600052602060002090810190610ed39190614217565b6000602082840312156142b257600080fd5b5035919050565b6000602082840312156142cb57600080fd5b81356001600160e01b031981168114611acc57600080fd5b803560ff811681146142f457600080fd5b919050565b60008083601f84011261430b57600080fd5b5081356001600160401b0381111561432257600080fd5b6020830191508360208285010111156136a257600080fd5b634e487b7160e01b600052604160045260246000fd5b604051601f8201601f191681016001600160401b03811182821017156143785761437861433a565b604052919050565b600082601f83011261439157600080fd5b81356001600160401b038111156143aa576143aa61433a565b6143bd601f8201601f1916602001614350565b8181528460208386010111156143d257600080fd5b816020850160208301376000918101602001919091529392505050565b60008060008060008060008060e0898b03121561440b57600080fd5b8835975061441b60208a016142e3565b965060408901356001600160401b038082111561443757600080fd5b6144438c838d016142f9565b909850965060608b013591508082111561445c57600080fd5b506144698b828c01614380565b94505061447860808a016142e3565b925060a0890135915060c089013590509295985092959890939650565b60005b838110156144b0578181015183820152602001614498565b838111156123da5750506000910152565b600081518084526144d9816020860160208601614495565b601f01601f19169290920160200192915050565b602081526000611acc60208301846144c1565b6001600160a01b0381168114610ed357600080fd5b6000806000806080858703121561452b57600080fd5b843561453681614500565b9350602085013561454681614500565b92506040850135915060608501356001600160401b0381111561456857600080fd5b61457487828801614380565b91505092959194509250565b60006001600160401b038211156145995761459961433a565b5060051b60200190565b600082601f8301126145b457600080fd5b813560206145c96145c483614580565b614350565b82815260059290921b840181019181810190868411156145e857600080fd5b8286015b8481101561460c5780356145ff81614500565b83529183019183016145ec565b509695505050505050565b600082601f83011261462857600080fd5b813560206146386145c483614580565b82815260059290921b8401810191818101908684111561465757600080fd5b8286015b8481101561460c578035835291830191830161465b565b600082601f83011261468357600080fd5b813560206146936145c483614580565b82815260059290921b840181019181810190868411156146b257600080fd5b8286015b8481101561460c5780356001600160401b038111156146d55760008081fd5b6146e38986838b0101614380565b8452509183019183016146b6565b6000806000806080858703121561470757600080fd5b84356001600160401b038082111561471e57600080fd5b61472a888389016145a3565b9550602087013591508082111561474057600080fd5b61474c88838901614617565b9450604087013591508082111561476257600080fd5b5061476f87828801614672565b949793965093946060013593505050565b60006020828403121561479257600080fd5b8135611acc81614500565b600081518084526020808501945080840160005b838110156147d65781516001600160a01b0316875295820195908201906001016147b1565b509495945050505050565b600081518084526020808501945080840160005b838110156147d6578151875295820195908201906001016147f5565b600081518084526020808501808196508360051b8101915082860160005b858110156148595782840389526148478483516144c1565b9885019893509084019060010161482f565b5091979650505050505050565b608081526000614879608083018761479d565b828103602084015261488b81876147e1565b9050828103604084015261489f8186614811565b905082810360608401526114f58185614811565b600080600080600060a086880312156148cb57600080fd5b853594506148db602087016142e3565b93506148e9604087016142e3565b94979396509394606081013594506080013592915050565b634e487b7160e01b600052602160045260246000fd5b602081016008831061493957634e487b7160e01b600052602160045260246000fd5b91905290565b6000806040838503121561495257600080fd5b82359150602083013561496481614500565b809150509250929050565b6000806040838503121561498257600080fd5b82359150614992602084016142e3565b90509250929050565b6000806000806000608086880312156149b357600080fd5b853594506149c3602087016142e3565b935060408601356001600160401b03808211156149df57600080fd5b6149eb89838a016142f9565b90955093506060880135915080821115614a0457600080fd5b50614a1188828901614380565b9150509295509295909350565b60008060008060608587031215614a3457600080fd5b84359350614a44602086016142e3565b925060408501356001600160401b03811115614a5f57600080fd5b614a6b878288016142f9565b95989497509550505050565b60008060008060808587031215614a8d57600080fd5b84356001600160401b0380821115614aa457600080fd5b614ab0888389016145a3565b95506020870135915080821115614ac657600080fd5b614ad288838901614617565b94506040870135915080821115614ae857600080fd5b614af488838901614672565b93506060870135915080821115614b0a57600080fd5b5061457487828801614380565b600080600060608486031215614b2c57600080fd5b8335614b3781614500565b92506020840135915060408401356001600160401b03811115614b5957600080fd5b614b6586828701614380565b9150509250925092565b600080600080600060a08688031215614b8757600080fd5b8535614b9281614500565b94506020860135614ba281614500565b935060408601356001600160401b0380821115614bbe57600080fd5b614bca89838a01614617565b94506060880135915080821115614be057600080fd5b614bec89838a01614617565b93506080880135915080821115614a0457600080fd5b60008060008060608587031215614c1857600080fd5b8435614c2381614500565b93506020850135925060408501356001600160401b03811115614a5f57600080fd5b600082601f830112614c5657600080fd5b81356020614c666145c483614580565b82815260059290921b84018101918181019086841115614c8557600080fd5b8286015b8481101561460c5780356001600160401b03811115614ca85760008081fd5b614cb68986838b0101614380565b845250918301918301614c89565b600080600080600060a08688031215614cdc57600080fd5b85356001600160401b0380821115614cf357600080fd5b614cff89838a016145a3565b96506020880135915080821115614d1557600080fd5b614d2189838a01614617565b95506040880135915080821115614d3757600080fd5b614d4389838a01614c45565b94506060880135915080821115614d5957600080fd5b614bec89838a01614672565b60008060408385031215614d7857600080fd5b8235614d8381614500565b946020939093013593505050565b600080600080600060a08688031215614da957600080fd5b8535614db481614500565b94506020860135614dc481614500565b9350604086013592506060860135915060808601356001600160401b03811115614ded57600080fd5b614a1188828901614380565b60008060008060808587031215614e0f57600080fd5b84356001600160401b03811115614e2557600080fd5b614e3187828801614380565b9450506020850135614e4281614500565b92506040850135614e5281614500565b91506060850135614e6281614500565b939692955090935050565b8183823760009101908152919050565b600181811c90821680614e9157607f821691505b60208210811415614eb257634e487b7160e01b600052602260045260246000fd5b50919050565b600060208284031215614eca57600080fd5b5051919050565b634e487b7160e01b600052601160045260246000fd5b6000816000190483118215151615614f0157614f01614ed1565b500290565b600082614f2357634e487b7160e01b600052601260045260246000fd5b500490565b600082821015614f3a57614f3a614ed1565b500390565b634e487b7160e01b600052603260045260246000fd5b608081526000614f68608083018761479d565b8281036020840152614f7a81876147e1565b90508281036040840152614f8e8186614811565b91505082606083015295945050505050565b600060208284031215614fb257600080fd5b81518015158114611acc57600080fd5b84815260ff84166020820152826040820152608060608201526000611a0660808301846144c1565b85815260ff8516602082015283604082015260a06060820152600061501260a08301856144c1565b828103608084015261502481856144c1565b98975050505050505050565b600060001982141561504457615044614ed1565b5060010190565b6001600160e01b031983168152815160009061506e816004850160208701614495565b919091016004019392505050565b6020808252602b908201527f496e697469616c697a61626c653a20636f6e7472616374206973206e6f74206960408201526a6e697469616c697a696e6760a81b606082015260800190565b600082198211156150da576150da614ed1565b500190565b600082516150f1818460208701614495565b9190910192915050565b60208082526021908201527f476f7665726e6f723a20696e76616c69642070726f706f73616c206c656e67746040820152600d60fb1b606082015260800190565b60006001600160401b0380831681851680830382111561515e5761515e614ed1565b01949350505050565b8981526001600160a01b0389166020820152610120604082018190526000906151928382018b61479d565b905082810360608401526151a6818a6147e1565b905082810360808401526151ba8189614811565b905082810360a08401526151ce8188614811565b6001600160401b0387811660c0860152861660e085015283810361010085015290506151fa81856144c1565b9c9b50505050505050505050505056fe476f7665726e6f723a2072656c617920726576657274656420776974686f7574206d657373616765476f7665726e6f723a2063616c6c20726576657274656420776974686f7574206d657373616765a2646970667358221220a4996409d96ffb936800a8c4d7384c335a68cc500453b9826b748a4d594ae0c864736f6c634300080c0033",
  "linkReferences": {},
  "deployedLinkReferences": {}
}