{
  "_format": "hh-sol-artifact-1",
  "contractName": "GenDAO",
  "sourceName": "contracts/governance/GenDAO.sol",
  "abi": [
    {
      "inputs": [],
      "name": "Empty",
      "type": "error"
    },
    {
      "anonymous": false,
      "inputs": [],
      "name": "EIP712DomainChanged",
      "type": "event"
    },
    {
      "anonymous": false,
      "inputs": [
        {
          "indexed": false,
          "internalType": "uint8",
          "name": "version",
          "type": "uint8"
        }
      ],
      "name": "Initialized",
      "type": "event"
    },
    {
      "anonymous": false,
      "inputs": [
        {
          "indexed": false,
          "internalType": "uint256",
          "name": "proposalId",
          "type": "uint256"
        }
      ],
      "name": "ProposalCanceled",
      "type": "event"
    },
    {
      "anonymous": false,
      "inputs": [
        {
          "indexed": false,
          "internalType": "uint256",
          "name": "proposalId",
          "type": "uint256"
        },
        {
          "indexed": false,
          "internalType": "address",
          "name": "proposer",
          "type": "address"
        },
        {
          "indexed": false,
          "internalType": "address[]",
          "name": "targets",
          "type": "address[]"
        },
        {
          "indexed": false,
          "internalType": "uint256[]",
          "name": "values",
          "type": "uint256[]"
        },
        {
          "indexed": false,
          "internalType": "string[]",
          "name": "signatures",
          "type": "string[]"
        },
        {
          "indexed": false,
          "internalType": "bytes[]",
          "name": "calldatas",
          "type": "bytes[]"
        },
        {
          "indexed": false,
          "internalType": "uint256",
          "name": "voteStart",
          "type": "uint256"
        },
        {
          "indexed": false,
          "internalType": "uint256",
          "name": "voteEnd",
          "type": "uint256"
        },
        {
          "indexed": false,
          "internalType": "string",
          "name": "description",
          "type": "string"
        }
      ],
      "name": "ProposalCreated",
      "type": "event"
    },
    {
      "anonymous": false,
      "inputs": [
        {
          "indexed": false,
          "internalType": "uint256",
          "name": "proposalId",
          "type": "uint256"
        }
      ],
      "name": "ProposalExecuted",
      "type": "event"
    },
    {
      "anonymous": false,
      "inputs": [
        {
          "indexed": false,
          "internalType": "uint256",
          "name": "proposalId",
          "type": "uint256"
        },
        {
          "indexed": false,
          "internalType": "uint256",
          "name": "eta",
          "type": "uint256"
        }
      ],
      "name": "ProposalQueued",
      "type": "event"
    },
    {
      "anonymous": false,
      "inputs": [
        {
          "indexed": false,
          "internalType": "uint256",
          "name": "oldQuorumNumerator",
          "type": "uint256"
        },
        {
          "indexed": false,
          "internalType": "uint256",
          "name": "newQuorumNumerator",
          "type": "uint256"
        }
      ],
      "name": "QuorumNumeratorUpdated",
      "type": "event"
    },
    {
      "anonymous": false,
      "inputs": [
        {
          "indexed": true,
          "internalType": "address",
          "name": "voter",
          "type": "address"
        },
        {
          "indexed": false,
          "internalType": "uint256",
          "name": "proposalId",
          "type": "uint256"
        },
        {
          "indexed": false,
          "internalType": "uint8",
          "name": "support",
          "type": "uint8"
        },
        {
          "indexed": false,
          "internalType": "uint256",
          "name": "weight",
          "type": "uint256"
        },
        {
          "indexed": false,
          "internalType": "string",
          "name": "reason",
          "type": "string"
        }
      ],
      "name": "VoteCast",
      "type": "event"
    },
    {
      "anonymous": false,
      "inputs": [
        {
          "indexed": true,
          "internalType": "address",
          "name": "voter",
          "type": "address"
        },
        {
          "indexed": false,
          "internalType": "uint256",
          "name": "proposalId",
          "type": "uint256"
        },
        {
          "indexed": false,
          "internalType": "uint8",
          "name": "support",
          "type": "uint8"
        },
        {
          "indexed": false,
          "internalType": "uint256",
          "name": "weight",
          "type": "uint256"
        },
        {
          "indexed": false,
          "internalType": "string",
          "name": "reason",
          "type": "string"
        },
        {
          "indexed": false,
          "internalType": "bytes",
          "name": "params",
          "type": "bytes"
        }
      ],
      "name": "VoteCastWithParams",
      "type": "event"
    },
    {
      "inputs": [],
      "name": "BALLOT_TYPEHASH",
      "outputs": [
        {
          "internalType": "bytes32",
          "name": "",
          "type": "bytes32"
        }
      ],
      "stateMutability": "view",
      "type": "function"
    },
    {
      "inputs": [],
      "name": "CLOCK_MODE",
      "outputs": [
        {
          "internalType": "string",
          "name": "",
          "type": "string"
        }
      ],
      "stateMutability": "view",
      "type": "function"
    },
    {
      "inputs": [],
      "name": "COUNTING_MODE",
      "outputs": [
        {
          "internalType": "string",
          "name": "",
          "type": "string"
        }
      ],
      "stateMutability": "pure",
      "type": "function"
    },
    {
      "inputs": [],
      "name": "EXTENDED_BALLOT_TYPEHASH",
      "outputs": [
        {
          "internalType": "bytes32",
          "name": "",
          "type": "bytes32"
        }
      ],
      "stateMutability": "view",
      "type": "function"
    },
    {
      "inputs": [],
      "name": "_admin",
      "outputs": [
        {
          "internalType": "address",
          "name": "",
          "type": "address"
        }
      ],
      "stateMutability": "view",
      "type": "function"
    },
    {
      "inputs": [],
      "name": "_paramAddr",
      "outputs": [
        {
          "internalType": "address",
          "name": "",
          "type": "address"
        }
      ],
      "stateMutability": "view",
      "type": "function"
    },
    {
      "inputs": [],
      "name": "_proposalThresholdPercent",
      "outputs": [
        {
          "internalType": "uint256",
          "name": "",
          "type": "uint256"
        }
      ],
      "stateMutability": "view",
      "type": "function"
    },
    {
      "inputs": [],
      "name": "_quorumVotePercent",
      "outputs": [
        {
          "internalType": "uint256",
          "name": "",
          "type": "uint256"
        }
      ],
      "stateMutability": "view",
      "type": "function"
    },
    {
      "inputs": [],
      "name": "_votingDelays",
      "outputs": [
        {
          "internalType": "uint256",
          "name": "",
          "type": "uint256"
        }
      ],
      "stateMutability": "view",
      "type": "function"
    },
    {
      "inputs": [],
      "name": "_votingPeriods",
      "outputs": [
        {
          "internalType": "uint256",
          "name": "",
          "type": "uint256"
        }
      ],
      "stateMutability": "view",
      "type": "function"
    },
    {
      "inputs": [],
      "name": "_votingToken",
      "outputs": [
        {
          "internalType": "contract IGENToken",
          "name": "",
          "type": "address"
        }
      ],
      "stateMutability": "view",
      "type": "function"
    },
    {
      "inputs": [
        {
          "internalType": "uint256",
          "name": "proposalId",
          "type": "uint256"
        }
      ],
      "name": "cancel",
      "outputs": [],
      "stateMutability": "nonpayable",
      "type": "function"
    },
    {
      "inputs": [
        {
          "internalType": "address[]",
          "name": "targets",
          "type": "address[]"
        },
        {
          "internalType": "uint256[]",
          "name": "values",
          "type": "uint256[]"
        },
        {
          "internalType": "bytes[]",
          "name": "calldatas",
          "type": "bytes[]"
        },
        {
          "internalType": "bytes32",
          "name": "descriptionHash",
          "type": "bytes32"
        }
      ],
      "name": "cancel",
      "outputs": [
        {
          "internalType": "uint256",
          "name": "",
          "type": "uint256"
        }
      ],
      "stateMutability": "nonpayable",
      "type": "function"
    },
    {
      "inputs": [
        {
          "internalType": "uint256",
          "name": "proposalId",
          "type": "uint256"
        },
        {
          "internalType": "uint8",
          "name": "support",
          "type": "uint8"
        }
      ],
      "name": "castVote",
      "outputs": [
        {
          "internalType": "uint256",
          "name": "",
          "type": "uint256"
        }
      ],
      "stateMutability": "nonpayable",
      "type": "function"
    },
    {
      "inputs": [
        {
          "internalType": "uint256",
          "name": "proposalId",
          "type": "uint256"
        },
        {
          "internalType": "uint8",
          "name": "support",
          "type": "uint8"
        },
        {
          "internalType": "uint8",
          "name": "v",
          "type": "uint8"
        },
        {
          "internalType": "bytes32",
          "name": "r",
          "type": "bytes32"
        },
        {
          "internalType": "bytes32",
          "name": "s",
          "type": "bytes32"
        }
      ],
      "name": "castVoteBySig",
      "outputs": [
        {
          "internalType": "uint256",
          "name": "",
          "type": "uint256"
        }
      ],
      "stateMutability": "nonpayable",
      "type": "function"
    },
    {
      "inputs": [
        {
          "internalType": "uint256",
          "name": "proposalId",
          "type": "uint256"
        },
        {
          "internalType": "uint8",
          "name": "support",
          "type": "uint8"
        },
        {
          "internalType": "string",
          "name": "reason",
          "type": "string"
        }
      ],
      "name": "castVoteWithReason",
      "outputs": [
        {
          "internalType": "uint256",
          "name": "",
          "type": "uint256"
        }
      ],
      "stateMutability": "nonpayable",
      "type": "function"
    },
    {
      "inputs": [
        {
          "internalType": "uint256",
          "name": "proposalId",
          "type": "uint256"
        },
        {
          "internalType": "uint8",
          "name": "support",
          "type": "uint8"
        },
        {
          "internalType": "string",
          "name": "reason",
          "type": "string"
        },
        {
          "internalType": "bytes",
          "name": "params",
          "type": "bytes"
        }
      ],
      "name": "castVoteWithReasonAndParams",
      "outputs": [
        {
          "internalType": "uint256",
          "name": "",
          "type": "uint256"
        }
      ],
      "stateMutability": "nonpayable",
      "type": "function"
    },
    {
      "inputs": [
        {
          "internalType": "uint256",
          "name": "proposalId",
          "type": "uint256"
        },
        {
          "internalType": "uint8",
          "name": "support",
          "type": "uint8"
        },
        {
          "internalType": "string",
          "name": "reason",
          "type": "string"
        },
        {
          "internalType": "bytes",
          "name": "params",
          "type": "bytes"
        },
        {
          "internalType": "uint8",
          "name": "v",
          "type": "uint8"
        },
        {
          "internalType": "bytes32",
          "name": "r",
          "type": "bytes32"
        },
        {
          "internalType": "bytes32",
          "name": "s",
          "type": "bytes32"
        }
      ],
      "name": "castVoteWithReasonAndParamsBySig",
      "outputs": [
        {
          "internalType": "uint256",
          "name": "",
          "type": "uint256"
        }
      ],
      "stateMutability": "nonpayable",
      "type": "function"
    },
    {
      "inputs": [
        {
          "internalType": "address",
          "name": "newAdm",
          "type": "address"
        }
      ],
      "name": "changeAdmin",
      "outputs": [],
      "stateMutability": "nonpayable",
      "type": "function"
    },
    {
      "inputs": [
        {
          "internalType": "address",
          "name": "newAddr",
          "type": "address"
        }
      ],
      "name": "changeParamAddress",
      "outputs": [],
      "stateMutability": "nonpayable",
      "type": "function"
    },
    {
      "inputs": [
        {
          "internalType": "uint256",
          "name": "_new",
          "type": "uint256"
        }
      ],
      "name": "changeProposalThreshold",
      "outputs": [],
      "stateMutability": "nonpayable",
      "type": "function"
    },
    {
      "inputs": [
        {
          "internalType": "uint256",
          "name": "_new",
          "type": "uint256"
        }
      ],
      "name": "changeQuorumVotes",
      "outputs": [],
      "stateMutability": "nonpayable",
      "type": "function"
    },
    {
      "inputs": [
        {
          "internalType": "uint256",
          "name": "_new",
          "type": "uint256"
        }
      ],
      "name": "changeVoteDelay",
      "outputs": [],
      "stateMutability": "nonpayable",
      "type": "function"
    },
    {
      "inputs": [
        {
          "internalType": "uint256",
          "name": "_new",
          "type": "uint256"
        }
      ],
      "name": "changeVotePeriod",
      "outputs": [],
      "stateMutability": "nonpayable",
      "type": "function"
    },
    {
      "inputs": [
        {
          "internalType": "contract IGENToken",
          "name": "_new",
          "type": "address"
        }
      ],
      "name": "changeVotingToken",
      "outputs": [],
      "stateMutability": "nonpayable",
      "type": "function"
    },
    {
      "inputs": [],
      "name": "clock",
      "outputs": [
        {
          "internalType": "uint48",
          "name": "",
          "type": "uint48"
        }
      ],
      "stateMutability": "view",
      "type": "function"
    },
    {
      "inputs": [],
      "name": "eip712Domain",
      "outputs": [
        {
          "internalType": "bytes1",
          "name": "fields",
          "type": "bytes1"
        },
        {
          "internalType": "string",
          "name": "name",
          "type": "string"
        },
        {
          "internalType": "string",
          "name": "version",
          "type": "string"
        },
        {
          "internalType": "uint256",
          "name": "chainId",
          "type": "uint256"
        },
        {
          "internalType": "address",
          "name": "verifyingContract",
          "type": "address"
        },
        {
          "internalType": "bytes32",
          "name": "salt",
          "type": "bytes32"
        },
        {
          "internalType": "uint256[]",
          "name": "extensions",
          "type": "uint256[]"
        }
      ],
      "stateMutability": "view",
      "type": "function"
    },
    {
      "inputs": [
        {
          "internalType": "address[]",
          "name": "targets",
          "type": "address[]"
        },
        {
          "internalType": "uint256[]",
          "name": "values",
          "type": "uint256[]"
        },
        {
          "internalType": "bytes[]",
          "name": "calldatas",
          "type": "bytes[]"
        },
        {
          "internalType": "bytes32",
          "name": "descriptionHash",
          "type": "bytes32"
        }
      ],
      "name": "execute",
      "outputs": [
        {
          "internalType": "uint256",
          "name": "",
          "type": "uint256"
        }
      ],
      "stateMutability": "payable",
      "type": "function"
    },
    {
      "inputs": [
        {
          "internalType": "uint256",
          "name": "proposalId",
          "type": "uint256"
        }
      ],
      "name": "execute",
      "outputs": [],
      "stateMutability": "payable",
      "type": "function"
    },
    {
      "inputs": [
        {
          "internalType": "uint256",
          "name": "proposalId",
          "type": "uint256"
        }
      ],
      "name": "getActions",
      "outputs": [
        {
          "internalType": "address[]",
          "name": "targets",
          "type": "address[]"
        },
        {
          "internalType": "uint256[]",
          "name": "values",
          "type": "uint256[]"
        },
        {
          "internalType": "string[]",
          "name": "signatures",
          "type": "string[]"
        },
        {
          "internalType": "bytes[]",
          "name": "calldatas",
          "type": "bytes[]"
        }
      ],
      "stateMutability": "view",
      "type": "function"
    },
    {
      "inputs": [
        {
          "internalType": "uint256",
          "name": "proposalId",
          "type": "uint256"
        },
        {
          "internalType": "address",
          "name": "voter",
          "type": "address"
        }
      ],
      "name": "getReceipt",
      "outputs": [
        {
          "components": [
            {
              "internalType": "bool",
              "name": "hasVoted",
              "type": "bool"
            },
            {
              "internalType": "uint8",
              "name": "support",
              "type": "uint8"
            },
            {
              "internalType": "uint96",
              "name": "votes",
              "type": "uint96"
            }
          ],
          "internalType": "struct IGovernorCompatibilityBravoUpgradeable.Receipt",
          "name": "",
          "type": "tuple"
        }
      ],
      "stateMutability": "view",
      "type": "function"
    },
    {
      "inputs": [
        {
          "internalType": "address",
          "name": "account",
          "type": "address"
        },
        {
          "internalType": "uint256",
          "name": "timepoint",
          "type": "uint256"
        }
      ],
      "name": "getVotes",
      "outputs": [
        {
          "internalType": "uint256",
          "name": "",
          "type": "uint256"
        }
      ],
      "stateMutability": "view",
      "type": "function"
    },
    {
      "inputs": [
        {
          "internalType": "address",
          "name": "account",
          "type": "address"
        },
        {
          "internalType": "uint256",
          "name": "timepoint",
          "type": "uint256"
        },
        {
          "internalType": "bytes",
          "name": "params",
          "type": "bytes"
        }
      ],
      "name": "getVotesWithParams",
      "outputs": [
        {
          "internalType": "uint256",
          "name": "",
          "type": "uint256"
        }
      ],
      "stateMutability": "view",
      "type": "function"
    },
    {
      "inputs": [
        {
          "internalType": "uint256",
          "name": "proposalId",
          "type": "uint256"
        },
        {
          "internalType": "address",
          "name": "account",
          "type": "address"
        }
      ],
      "name": "hasVoted",
      "outputs": [
        {
          "internalType": "bool",
          "name": "",
          "type": "bool"
        }
      ],
      "stateMutability": "view",
      "type": "function"
    },
    {
      "inputs": [
        {
          "internalType": "address[]",
          "name": "targets",
          "type": "address[]"
        },
        {
          "internalType": "uint256[]",
          "name": "values",
          "type": "uint256[]"
        },
        {
          "internalType": "bytes[]",
          "name": "calldatas",
          "type": "bytes[]"
        },
        {
          "internalType": "bytes32",
          "name": "descriptionHash",
          "type": "bytes32"
        }
      ],
      "name": "hashProposal",
      "outputs": [
        {
          "internalType": "uint256",
          "name": "",
          "type": "uint256"
        }
      ],
      "stateMutability": "pure",
      "type": "function"
    },
    {
      "inputs": [
        {
          "internalType": "string",
          "name": "name",
          "type": "string"
        },
        {
          "internalType": "address",
          "name": "admin",
          "type": "address"
        },
        {
          "internalType": "address",
          "name": "paramAddr",
          "type": "address"
        },
        {
          "internalType": "contract IGENToken",
          "name": "votingToken",
          "type": "address"
        }
      ],
      "name": "initialize",
      "outputs": [],
      "stateMutability": "nonpayable",
      "type": "function"
    },
    {
      "inputs": [],
      "name": "name",
      "outputs": [
        {
          "internalType": "string",
          "name": "",
          "type": "string"
        }
      ],
      "stateMutability": "view",
      "type": "function"
    },
    {
      "inputs": [
        {
          "internalType": "address",
          "name": "",
          "type": "address"
        },
        {
          "internalType": "address",
          "name": "",
          "type": "address"
        },
        {
          "internalType": "uint256[]",
          "name": "",
          "type": "uint256[]"
        },
        {
          "internalType": "uint256[]",
          "name": "",
          "type": "uint256[]"
        },
        {
          "internalType": "bytes",
          "name": "",
          "type": "bytes"
        }
      ],
      "name": "onERC1155BatchReceived",
      "outputs": [
        {
          "internalType": "bytes4",
          "name": "",
          "type": "bytes4"
        }
      ],
      "stateMutability": "nonpayable",
      "type": "function"
    },
    {
      "inputs": [
        {
          "internalType": "address",
          "name": "",
          "type": "address"
        },
        {
          "internalType": "address",
          "name": "",
          "type": "address"
        },
        {
          "internalType": "uint256",
          "name": "",
          "type": "uint256"
        },
        {
          "internalType": "uint256",
          "name": "",
          "type": "uint256"
        },
        {
          "internalType": "bytes",
          "name": "",
          "type": "bytes"
        }
      ],
      "name": "onERC1155Received",
      "outputs": [
        {
          "internalType": "bytes4",
          "name": "",
          "type": "bytes4"
        }
      ],
      "stateMutability": "nonpayable",
      "type": "function"
    },
    {
      "inputs": [
        {
          "internalType": "address",
          "name": "",
          "type": "address"
        },
        {
          "internalType": "address",
          "name": "",
          "type": "address"
        },
        {
          "internalType": "uint256",
          "name": "",
          "type": "uint256"
        },
        {
          "internalType": "bytes",
          "name": "",
          "type": "bytes"
        }
      ],
      "name": "onERC721Received",
      "outputs": [
        {
          "internalType": "bytes4",
          "name": "",
          "type": "bytes4"
        }
      ],
      "stateMutability": "nonpayable",
      "type": "function"
    },
    {
      "inputs": [
        {
          "internalType": "uint256",
          "name": "proposalId",
          "type": "uint256"
        }
      ],
      "name": "proposalDeadline",
      "outputs": [
        {
          "internalType": "uint256",
          "name": "",
          "type": "uint256"
        }
      ],
      "stateMutability": "view",
      "type": "function"
    },
    {
      "inputs": [
        {
          "internalType": "uint256",
          "name": "",
          "type": "uint256"
        }
      ],
      "name": "proposalEta",
      "outputs": [
        {
          "internalType": "uint256",
          "name": "",
          "type": "uint256"
        }
      ],
      "stateMutability": "pure",
      "type": "function"
    },
    {
      "inputs": [
        {
          "internalType": "uint256",
          "name": "proposalId",
          "type": "uint256"
        }
      ],
      "name": "proposalProposer",
      "outputs": [
        {
          "internalType": "address",
          "name": "",
          "type": "address"
        }
      ],
      "stateMutability": "view",
      "type": "function"
    },
    {
      "inputs": [
        {
          "internalType": "uint256",
          "name": "proposalId",
          "type": "uint256"
        }
      ],
      "name": "proposalSnapshot",
      "outputs": [
        {
          "internalType": "uint256",
          "name": "",
          "type": "uint256"
        }
      ],
      "stateMutability": "view",
      "type": "function"
    },
    {
      "inputs": [],
      "name": "proposalThreshold",
      "outputs": [
        {
          "internalType": "uint256",
          "name": "",
          "type": "uint256"
        }
      ],
      "stateMutability": "view",
      "type": "function"
    },
    {
      "inputs": [
        {
          "internalType": "uint256",
          "name": "proposalId",
          "type": "uint256"
        }
      ],
      "name": "proposals",
      "outputs": [
        {
          "internalType": "uint256",
          "name": "id",
          "type": "uint256"
        },
        {
          "internalType": "address",
          "name": "proposer",
          "type": "address"
        },
        {
          "internalType": "uint256",
          "name": "eta",
          "type": "uint256"
        },
        {
          "internalType": "uint256",
          "name": "startBlock",
          "type": "uint256"
        },
        {
          "internalType": "uint256",
          "name": "endBlock",
          "type": "uint256"
        },
        {
          "internalType": "uint256",
          "name": "forVotes",
          "type": "uint256"
        },
        {
          "internalType": "uint256",
          "name": "againstVotes",
          "type": "uint256"
        },
        {
          "internalType": "uint256",
          "name": "abstainVotes",
          "type": "uint256"
        },
        {
          "internalType": "bool",
          "name": "canceled",
          "type": "bool"
        },
        {
          "internalType": "bool",
          "name": "executed",
          "type": "bool"
        }
      ],
      "stateMutability": "view",
      "type": "function"
    },
    {
      "inputs": [
        {
          "internalType": "address[]",
          "name": "targets",
          "type": "address[]"
        },
        {
          "internalType": "uint256[]",
          "name": "values",
          "type": "uint256[]"
        },
        {
          "internalType": "bytes[]",
          "name": "calldatas",
          "type": "bytes[]"
        },
        {
          "internalType": "string",
          "name": "description",
          "type": "string"
        }
      ],
      "name": "propose",
      "outputs": [
        {
          "internalType": "uint256",
          "name": "",
          "type": "uint256"
        }
      ],
      "stateMutability": "nonpayable",
      "type": "function"
    },
    {
      "inputs": [
        {
          "internalType": "address[]",
          "name": "targets",
          "type": "address[]"
        },
        {
          "internalType": "uint256[]",
          "name": "values",
          "type": "uint256[]"
        },
        {
          "internalType": "string[]",
          "name": "signatures",
          "type": "string[]"
        },
        {
          "internalType": "bytes[]",
          "name": "calldatas",
          "type": "bytes[]"
        },
        {
          "internalType": "string",
          "name": "description",
          "type": "string"
        }
      ],
      "name": "propose",
      "outputs": [
        {
          "internalType": "uint256",
          "name": "",
          "type": "uint256"
        }
      ],
      "stateMutability": "nonpayable",
      "type": "function"
    },
    {
      "inputs": [
        {
          "internalType": "address[]",
          "name": "",
          "type": "address[]"
        },
        {
          "internalType": "uint256[]",
          "name": "",
          "type": "uint256[]"
        },
        {
          "internalType": "bytes[]",
          "name": "",
          "type": "bytes[]"
        },
        {
          "internalType": "bytes32",
          "name": "",
          "type": "bytes32"
        }
      ],
      "name": "queue",
      "outputs": [
        {
          "internalType": "uint256",
          "name": "",
          "type": "uint256"
        }
      ],
      "stateMutability": "pure",
      "type": "function"
    },
    {
      "inputs": [
        {
          "internalType": "uint256",
          "name": "proposalId",
          "type": "uint256"
        }
      ],
      "name": "queue",
      "outputs": [],
      "stateMutability": "nonpayable",
      "type": "function"
    },
    {
      "inputs": [
        {
          "internalType": "uint256",
          "name": "timepoint",
          "type": "uint256"
        }
      ],
      "name": "quorum",
      "outputs": [
        {
          "internalType": "uint256",
          "name": "",
          "type": "uint256"
        }
      ],
      "stateMutability": "view",
      "type": "function"
    },
    {
      "inputs": [],
      "name": "quorumDenominator",
      "outputs": [
        {
          "internalType": "uint256",
          "name": "",
          "type": "uint256"
        }
      ],
      "stateMutability": "view",
      "type": "function"
    },
    {
      "inputs": [
        {
          "internalType": "uint256",
          "name": "timepoint",
          "type": "uint256"
        }
      ],
      "name": "quorumNumerator",
      "outputs": [
        {
          "internalType": "uint256",
          "name": "",
          "type": "uint256"
        }
      ],
      "stateMutability": "view",
      "type": "function"
    },
    {
      "inputs": [],
      "name": "quorumNumerator",
      "outputs": [
        {
          "internalType": "uint256",
          "name": "",
          "type": "uint256"
        }
      ],
      "stateMutability": "view",
      "type": "function"
    },
    {
      "inputs": [],
      "name": "quorumVotes",
      "outputs": [
        {
          "internalType": "uint256",
          "name": "",
          "type": "uint256"
        }
      ],
      "stateMutability": "view",
      "type": "function"
    },
    {
      "inputs": [
        {
          "internalType": "address",
          "name": "target",
          "type": "address"
        },
        {
          "internalType": "uint256",
          "name": "value",
          "type": "uint256"
        },
        {
          "internalType": "bytes",
          "name": "data",
          "type": "bytes"
        }
      ],
      "name": "relay",
      "outputs": [],
      "stateMutability": "payable",
      "type": "function"
    },
    {
      "inputs": [
        {
          "internalType": "uint256",
          "name": "proposalId",
          "type": "uint256"
        }
      ],
      "name": "state",
      "outputs": [
        {
          "internalType": "enum IGovernorUpgradeable.ProposalState",
          "name": "",
          "type": "uint8"
        }
      ],
      "stateMutability": "view",
      "type": "function"
    },
    {
      "inputs": [
        {
          "internalType": "bytes4",
          "name": "interfaceId",
          "type": "bytes4"
        }
      ],
      "name": "supportsInterface",
      "outputs": [
        {
          "internalType": "bool",
          "name": "",
          "type": "bool"
        }
      ],
      "stateMutability": "view",
      "type": "function"
    },
    {
      "inputs": [],
      "name": "timelock",
      "outputs": [
        {
          "internalType": "address",
          "name": "",
          "type": "address"
        }
      ],
      "stateMutability": "pure",
      "type": "function"
    },
    {
      "inputs": [],
      "name": "token",
      "outputs": [
        {
          "internalType": "contract IERC5805Upgradeable",
          "name": "",
          "type": "address"
        }
      ],
      "stateMutability": "view",
      "type": "function"
    },
    {
      "inputs": [
        {
          "internalType": "uint256",
          "name": "newQuorumNumerator",
          "type": "uint256"
        }
      ],
      "name": "updateQuorumNumerator",
      "outputs": [],
      "stateMutability": "nonpayable",
      "type": "function"
    },
    {
      "inputs": [],
      "name": "version",
      "outputs": [
        {
          "internalType": "string",
          "name": "",
          "type": "string"
        }
      ],
      "stateMutability": "view",
      "type": "function"
    },
    {
      "inputs": [],
      "name": "votingDelay",
      "outputs": [
        {
          "internalType": "uint256",
          "name": "",
          "type": "uint256"
        }
      ],
      "stateMutability": "view",
      "type": "function"
    },
    {
      "inputs": [],
      "name": "votingPeriod",
      "outputs": [
        {
          "internalType": "uint256",
          "name": "",
          "type": "uint256"
        }
      ],
      "stateMutability": "view",
      "type": "function"
    },
    {
      "inputs": [
        {
          "internalType": "address",
          "name": "erc20Addr",
          "type": "address"
        },
        {
          "internalType": "uint256",
          "name": "amount",
          "type": "uint256"
        }
      ],
      "name": "withdraw",
      "outputs": [],
      "stateMutability": "nonpayable",
      "type": "function"
    },
    {
      "stateMutability": "payable",
      "type": "receive"
    }
  ],
  "bytecode": "0x608060405234801561001057600080fd5b5061569780620000216000396000f3fe6080604052600436106103d25760003560e01c80637d5e81e2116101fd578063c28bc2fa11610118578063eb9019d4116100ab578063f4a290f71161007a578063f4a290f714610d54578063f8ce560a14610d75578063f9dabc5514610d95578063fc0c546a14610db5578063fe0d94c114610dd657600080fd5b8063eb9019d414610cc8578063f23a6e6114610ce8578063f34822b414610d14578063f3fef3a314610d3457600080fd5b8063dd4e2ba5116100e7578063dd4e2ba514610b63578063ddf0b00914610ba9578063deaaa7cc14610bc9578063e23a9a5214610bfd57600080fd5b8063c28bc2fa14610afc578063c59057e414610b0f578063d33219b414610b2f578063da95691a14610b4357600080fd5b8063a8f0a82e11610190578063b3af07771161015f578063b3af077714610a61578063b58131b014610a81578063bc197c8114610a96578063c01f9e3714610ac257600080fd5b8063a8f0a82e146109e9578063aa66221414610a09578063ab58fb8e14610a20578063b15c4a4214610a4157600080fd5b806397c3d334116101cc57806397c3d3341461097f5780639a802a6d14610993578063a4d82225146109b3578063a7713a70146109d457600080fd5b80637d5e81e2146108eb57806384b0196e1461090b5780638f2839701461093357806391ddadf41461095357600080fd5b80632fe3e261116102ed5780634bf5d7e911610280578063583948251161024f57806358394825146108745780635f398a141461088b57806360c4247f146108ab5780637b3c71d3146108cb57600080fd5b80634bf5d7e9146107f557806354dfc2ed1461080a57806354fd4d501461082a578063567813881461085457600080fd5b80633e4f49e6116102bc5780633e4f49e61461073d57806340e58ee51461076a578063438596321461078a578063452115d6146107d557600080fd5b80632fe3e261146106a3578063328dd982146106d75780633932abb1146107075780633bccf4fd1461071d57600080fd5b80630f1fe6ec1161036557806316a5041f1161033457806316a5041f1461062457806324bc1a64146106445780632656227d146106595780632d63f6931461066c57600080fd5b80630f1fe6ec14610566578063143489d01461057d578063150b7a02146105bb578063160cbed7146105ff57600080fd5b806303420181116103a157806303420181146104ed578063050c02991461050d57806306f3f9e61461052457806306fdde031461054457600080fd5b8063013cf08b146103e957806301bc45c91461046457806301ffc9a71461049d57806302a251a3146104cd57600080fd5b366103e457005b60405180910390fd5b005b600080fd5b3480156103f557600080fd5b50610409610404366004614645565b610dee565b604080519a8b526001600160a01b0390991660208b0152978901969096526060880194909452608087019290925260a086015260c085015260e084015215156101008301521515610120820152610140015b60405180910390f35b34801561047057600080fd5b506101f854610485906001600160a01b031681565b6040516001600160a01b03909116815260200161045b565b3480156104a957600080fd5b506104bd6104b836600461465e565b610e8e565b604051901515815260200161045b565b3480156104d957600080fd5b506101fd545b60405190815260200161045b565b3480156104f957600080fd5b506104df6105083660046147a4565b610e9f565b34801561051957600080fd5b506104df6101fe5481565b34801561053057600080fd5b506103e261053f366004614645565b610f97565b34801561055057600080fd5b5061055961100a565b60405161045b91906148a2565b34801561057257600080fd5b506104df6101fb5481565b34801561058957600080fd5b50610485610598366004614645565b60009081526101306020526040902054600160401b90046001600160a01b031690565b3480156105c757600080fd5b506105e66105d63660046148ca565b630a85bd0160e11b949350505050565b6040516001600160e01b0319909116815260200161045b565b34801561060b57600080fd5b506104df61061a366004614aa1565b6000949350505050565b34801561063057600080fd5b506103e261063f366004614b30565b61109d565b34801561065057600080fd5b506104df611132565b6104df610667366004614aa1565b6111c7565b34801561067857600080fd5b506104df610687366004614645565b600090815261013060205260409020546001600160401b031690565b3480156106af57600080fd5b506104df7fb3b3f3b703cd84ce352197dcff232b1b5d3cfb2025ce47cf04742d0651f1af8881565b3480156106e357600080fd5b506106f76106f2366004614645565b6112f4565b60405161045b9493929190614c16565b34801561071357600080fd5b506101fe546104df565b34801561072957600080fd5b506104df610738366004614c63565b611586565b34801561074957600080fd5b5061075d610758366004614645565b6115fc565b60405161045b9190614cc7565b34801561077657600080fd5b506103e2610785366004614645565b611607565b34801561079657600080fd5b506104bd6107a5366004614cef565b6000828152610161602090815260408083206001600160a01b038516845260080190915290205460ff1692915050565b3480156107e157600080fd5b506104df6107f0366004614aa1565b611632565b34801561080157600080fd5b50610559611649565b34801561081657600080fd5b506103e2610825366004614b30565b6116f6565b34801561083657600080fd5b506040805180820190915260018152603160f81b6020820152610559565b34801561086057600080fd5b506104df61086f366004614d1f565b611784565b34801561088057600080fd5b506104df6101fd5481565b34801561089757600080fd5b506104df6108a6366004614d4b565b6117ad565b3480156108b757600080fd5b506104df6108c6366004614645565b6117f7565b3480156108d757600080fd5b506104df6108e6366004614dce565b6118aa565b3480156108f757600080fd5b506104df610906366004614e27565b6118fc565b34801561091757600080fd5b5061092061190a565b60405161045b9796959493929190614ec7565b34801561093f57600080fd5b506103e261094e366004614b30565b6119a8565b34801561095f57600080fd5b50610968611a3d565b60405165ffffffffffff909116815260200161045b565b34801561098b57600080fd5b5060646104df565b34801561099f57600080fd5b506104df6109ae366004614f29565b611ab1565b3480156109bf57600080fd5b506101fa54610485906001600160a01b031681565b3480156109e057600080fd5b506104df611ac8565b3480156109f557600080fd5b506103e2610a04366004614645565b611af5565b348015610a1557600080fd5b506104df6101fc5481565b348015610a2c57600080fd5b506104df610a3b366004614645565b50600090565b348015610a4d57600080fd5b506103e2610a5c366004614645565b611b4d565b348015610a6d57600080fd5b506103e2610a7c366004614645565b611ba5565b348015610a8d57600080fd5b506104df611bfd565b348015610aa257600080fd5b506105e6610ab1366004614f81565b63bc197c8160e01b95945050505050565b348015610ace57600080fd5b506104df610add366004614645565b600090815261013060205260409020600101546001600160401b031690565b6103e2610b0a366004615014565b611c88565b348015610b1b57600080fd5b506104df610b2a366004614aa1565b611d80565b348015610b3b57600080fd5b506000610485565b348015610b4f57600080fd5b506104df610b5e366004615057565b611dba565b348015610b6f57600080fd5b5060408051808201909152601a81527f737570706f72743d627261766f2671756f72756d3d627261766f0000000000006020820152610559565b348015610bb557600080fd5b506103e2610bc4366004614645565b611e41565b348015610bd557600080fd5b506104df7f150214d74d59b7d1e90c73fc22ef3d991dd0a76b046543d4d80ab92d2a50328f81565b348015610c0957600080fd5b50610c98610c18366004614cef565b6040805160608101825260008082526020820181905291810191909152506000918252610161602090815260408084206001600160a01b0393909316845260089092018152918190208151606081018352905460ff8082161515835261010082041693820193909352620100009092046001600160601b03169082015290565b6040805182511515815260208084015160ff1690820152918101516001600160601b03169082015260600161045b565b348015610cd457600080fd5b506104df610ce33660046150f8565b611e61565b348015610cf457600080fd5b506105e6610d03366004615124565b63f23a6e6160e01b95945050505050565b348015610d2057600080fd5b506103e2610d2f36600461518c565b611e82565b348015610d4057600080fd5b506103e2610d4f3660046150f8565b61207d565b348015610d6057600080fd5b506101f954610485906001600160a01b031681565b348015610d8157600080fd5b506104df610d90366004614645565b6121be565b348015610da157600080fd5b506103e2610db0366004614645565b61224d565b348015610dc157600080fd5b5061019354610485906001600160a01b031681565b6103e2610de4366004614645565b6122a5565b905090565b6000818152610130602090815260408083208054600190910154610161909352908320805460058201546006830154600784015488976001600160a01b039094169693956001600160401b03908116959416938690819081610e4f8c6115fc565b90506002816007811115610e6557610e65614cb1565b1493506007816007811115610e7c57610e7c614cb1565b14925050509193959799509193959799565b6000610e99826122c8565b92915050565b600080610f43610f3b7fb3b3f3b703cd84ce352197dcff232b1b5d3cfb2025ce47cf04742d0651f1af888c8c8c8c604051610edb929190615200565b60405180910390208b80519060200120604051602001610f20959493929190948552602085019390935260ff9190911660408401526060830152608082015260a00190565b60405160208183030381529060405280519060200120612364565b868686612391565b9050610f898a828b8b8b8080601f0160208091040260200160405190810160405280939291908181526020018383808284376000920191909152508d92506123af915050565b9a9950505050505050505050565b333014610fe15760405162461bcd60e51b8152602060048201526018602482015277476f7665726e6f723a206f6e6c79476f7665726e616e636560401b60448201526064016103d9565b610ffe565b80610ff2610131612502565b14610ffc57610fe6565b505b61100781612581565b50565b606061012f805461101a90615210565b80601f016020809104026020016040519081016040528092919081815260200182805461104690615210565b80156110935780601f1061106857610100808354040283529160200191611093565b820191906000526020600020905b81548152906001019060200180831161107657829003601f168201915b5050505050905090565b6101f8546001600160a01b0316331480156110c057506001600160a01b03811615155b6040518060400160405280600381526020016231303160e81b815250906110fa5760405162461bcd60e51b81526004016103d991906148a2565b506101f9546001600160a01b03828116911614611007576101f980546001600160a01b0383166001600160a01b031990911617905550565b60006127106101fa60009054906101000a90046001600160a01b03166001600160a01b03166318160ddd6040518163ffffffff1660e01b8152600401602060405180830381865afa15801561118b573d6000803e3d6000fd5b505050506040513d601f19601f820116820180604052508101906111af919061524b565b6101fc546111bd919061527a565b610de991906152af565b6000806111d686868686611d80565b905060006111e3826115fc565b905060048160078111156111f9576111f9614cb1565b14806112165750600581600781111561121457611214614cb1565b145b61126c5760405162461bcd60e51b815260206004820152602160248201527f476f7665726e6f723a2070726f706f73616c206e6f74207375636365737366756044820152601b60fa1b60648201526084016103d9565b6000828152610130602052604090819020600201805460ff19166001179055517f712ae1383f79ac853f8d882153778e0260ef8f03b504e2866e0593e04d2b291f906112bb9084815260200190565b60405180910390a16112d082888888886126f2565b6112dd8288888888612778565b6112ea82888888886126f2565b5095945050505050565b606080606080600061016160008781526020019081526020016000209050806001018160020182600301836004018380548060200260200160405190810160405280929190818152602001828054801561137757602002820191906000526020600020905b81546001600160a01b03168152600190910190602001808311611359575b50505050509350828054806020026020016040519081016040528092919081815260200182805480156113c957602002820191906000526020600020905b8154815260200190600101908083116113b5575b5050505050925081805480602002602001604051908101604052809291908181526020016000905b8282101561149d57838290600052602060002001805461141090615210565b80601f016020809104026020016040519081016040528092919081815260200182805461143c90615210565b80156114895780601f1061145e57610100808354040283529160200191611489565b820191906000526020600020905b81548152906001019060200180831161146c57829003601f168201915b5050505050815260200190600101906113f1565b50505050915080805480602002602001604051908101604052809291908181526020016000905b828210156115705783829060005260206000200180546114e390615210565b80601f016020809104026020016040519081016040528092919081815260200182805461150f90615210565b801561155c5780601f106115315761010080835404028352916020019161155c565b820191906000526020600020905b81548152906001019060200180831161153f57829003601f168201915b5050505050815260200190600101906114c4565b5050505090509450945094509450509193509193565b604080517f150214d74d59b7d1e90c73fc22ef3d991dd0a76b046543d4d80ab92d2a50328f602082015290810186905260ff8516606082015260009081906115d490610f3b90608001610f20565b90506115f187828860405180602001604052806000815250612785565b979650505050505050565b6000610e99826127a8565b600080600080611616856128ec565b935093509350935061162a84848484611632565b505050505050565b600061164085858585612b7d565b95945050505050565b6101935460408051634bf5d7e960e01b815290516060926001600160a01b031691634bf5d7e99160048083019260009291908290030181865afa9250505080156116b557506040513d6000823e601f3d908101601f191682016040526116b291908101906152d1565b60015b6116f1575060408051808201909152601d81527f6d6f64653d626c6f636b6e756d6265722666726f6d3d64656661756c74000000602082015290565b919050565b6101f85460408051808201909152600381526231303160e81b6020820152906001600160a01b0316331461173d5760405162461bcd60e51b81526004016103d991906148a2565b506101fa546001600160a01b03828116911614611007576101fa80546001600160a01b0383166001600160a01b031991821681179092556101938054909116909117905550565b6000803390506117a584828560405180602001604052806000815250612785565b949350505050565b6000803390506115f187828888888080601f0160208091040260200160405190810160405280939291908181526020018383808284376000920191909152508a92506123af915050565b6101c7546000908061180e5750506101c654919050565b60006101c761181e60018461533e565b8154811061182e5761182e615355565b60009182526020918290206040805180820190915291015463ffffffff8116808352600160201b9091046001600160e01b0316928201929092529150841061188457602001516001600160e01b03169392505050565b61189961189085612c9c565b6101c790612d05565b6001600160e01b0316949350505050565b6000803390506118f286828787878080601f01602080910402602001604051908101604052809392919081815260200183838082843760009201919091525061278592505050565b9695505050505050565b600061164085858585612db8565b6000606080600080600060606065546000801b14801561192a5750606654155b61196e5760405162461bcd60e51b81526020600482015260156024820152741152540dcc4c8e88155b9a5b9a5d1a585b1a5e9959605a1b60448201526064016103d9565b611976612e20565b61197e612e2f565b60408051600080825260208201909252600f60f81b9b939a50919850469750309650945092509050565b6101f8546001600160a01b0316331480156119cb57506001600160a01b03811615155b6040518060400160405280600381526020016231303160e81b81525090611a055760405162461bcd60e51b81526004016103d991906148a2565b506101f8546001600160a01b03828116911614611007576101f880546001600160a01b0383166001600160a01b031990911617905550565b61019354604080516324776b7d60e21b815290516000926001600160a01b0316916391ddadf49160048083019260209291908290030181865afa925050508015611aa4575060408051601f3d908101601f19168201909252611aa19181019061536b565b60015b6116f157610de943612e3e565b6000611abe848484612ea5565b90505b9392505050565b6101c75460009015611aed57611adf6101c7612f1c565b6001600160e01b0316905090565b506101c65490565b6101f85460408051808201909152600381526231303160e81b6020820152906001600160a01b03163314611b3c5760405162461bcd60e51b81526004016103d991906148a2565b50806101fc5414611007576101fc55565b6101f85460408051808201909152600381526231303160e81b6020820152906001600160a01b03163314611b945760405162461bcd60e51b81526004016103d991906148a2565b50806101fd5414611007576101fd55565b6101f85460408051808201909152600381526231303160e81b6020820152906001600160a01b03163314611bec5760405162461bcd60e51b81526004016103d991906148a2565b50806101fe5414611007576101fe55565b60006127106101fa60009054906101000a90046001600160a01b03166001600160a01b03166318160ddd6040518163ffffffff1660e01b8152600401602060405180830381865afa158015611c56573d6000803e3d6000fd5b505050506040513d601f19601f82011682018060405250810190611c7a919061524b565b6101fb546111bd919061527a565b333014611cd25760405162461bcd60e51b8152602060048201526018602482015277476f7665726e6f723a206f6e6c79476f7665726e616e636560401b60448201526064016103d9565b611cef565b80611ce3610131612502565b14611ced57611cd7565b505b600080856001600160a01b0316858585604051611d0d929190615200565b60006040518083038185875af1925050503d8060008114611d4a576040519150601f19603f3d011682016040523d82523d6000602084013e611d4f565b606091505b5091509150611d77828260405180606001604052806028815260200161561360289139612f55565b50505050505050565b600084848484604051602001611d999493929190615393565b60408051601f19818403018152919052805160209091012095945050505050565b60008251845114611e1e5760405162461bcd60e51b815260206004820152602860248201527f476f7665726e6f72427261766f3a20696e76616c6964207369676e61747572656044820152670e640d8cadccee8d60c31b60648201526084016103d9565b611e2c338787878787612f6e565b6118f28686611e3b878761302c565b856118fc565b600080600080611e50856128ec565b92965090945092509050600061162a565b6000611ac18383611e7d60408051602081019091526000815290565b612ea5565b600054610100900460ff1615808015611ea25750600054600160ff909116105b80611ebc5750303b158015611ebc575060005460ff166001145b611f1f5760405162461bcd60e51b815260206004820152602e60248201527f496e697469616c697a61626c653a20636f6e747261637420697320616c72656160448201526d191e481a5b9a5d1a585b1a5e995960921b60648201526084016103d9565b6000805460ff191660011790558015611f42576000805461ff0019166101001790555b6001600160a01b03841615801590611f6257506001600160a01b03831615155b8015611f7657506001600160a01b03821615155b6040518060400160405280600381526020016203130360ec1b81525090611fb05760405162461bcd60e51b81526004016103d991906148a2565b506101f880546001600160a01b038087166001600160a01b0319928316179092556101f980548684169083161790556101fa8054928516929091169190911790556101f46101fb5560646101fc556119af6101fe5561b3cb6101fd556120158561315e565b61201d6131b5565b612026826131de565b612030603261320e565b8015612076576000805461ff0019169055604051600181527f7f26b83ff96e1f2b6a682f133852f6798a09c465da95921460cefb38474024989060200160405180910390a15b5050505050565b6101f85460408051808201909152600381526231303160e81b6020820152906001600160a01b031633146120c45760405162461bcd60e51b81526004016103d991906148a2565b5060006001600160a01b03831661213c57814710156120e257600080fd5b60405133908390600081818185875af1925050503d8060008114612122576040519150601f19603f3d011682016040523d82523d6000602084013e612127565b606091505b5050809150508061213757600080fd5b505050565b60405163a9059cbb60e01b81523360048201526024810183905283906001600160a01b0382169063a9059cbb906044016020604051808303816000875af115801561218b573d6000803e3d6000fd5b505050506040513d601f19601f820116820180604052508101906121af91906153de565b6121b857600080fd5b50505050565b600060646121cb836117f7565b61019354604051632394e7a360e21b8152600481018690526001600160a01b0390911690638e539e8c90602401602060405180830381865afa158015612215573d6000803e3d6000fd5b505050506040513d601f19601f82011682018060405250810190612239919061524b565b612243919061527a565b610e9991906152af565b6101f85460408051808201909152600381526231303160e81b6020820152906001600160a01b031633146122945760405162461bcd60e51b81526004016103d991906148a2565b50806101fb5414611007576101fb55565b6000806000806122b4856128ec565b935093509350935061162a848484846111c7565b600063288ace0360e11b6318df743f60e31b63bf26d89760e01b6379dd796f60e01b6001600160e01b0319861682148061230e57506001600160e01b0319868116908216145b8061232557506001600160e01b0319868116908516145b8061234057506001600160e01b03198616630271189760e51b145b806118f257506301ffc9a760e01b6001600160e01b03198716149695505050505050565b6000610e9961237161323e565b8360405161190160f01b8152600281019290925260228201526042902090565b60008060006123a287878787613248565b915091506112ea8161330c565b60008581526101306020526040812060016123c9886115fc565b60078111156123da576123da614cb1565b146124335760405162461bcd60e51b815260206004820152602360248201527f476f7665726e6f723a20766f7465206e6f742063757272656e746c792061637460448201526269766560e81b60648201526084016103d9565b805460009061244d9088906001600160401b031686612ea5565b905061245c888888848861345a565b83516124ae57866001600160a01b03167fb8e138887d0aa13bab447e82de9d5c1777041ecd21ca36ba824ff1e6c07ddda4898884896040516124a19493929190615400565b60405180910390a26115f1565b866001600160a01b03167fe2babfbac5889a709b63bb7f598b324e08bc5a4fb9ec647fb3cbc9ec07eb871289888489896040516124ef959493929190615428565b60405180910390a2979650505050505050565b600061251d8254600f81810b600160801b909204900b131590565b1561253b57604051631ed9509560e11b815260040160405180910390fd5b508054600f0b6000818152600180840160205260408220805492905583546fffffffffffffffffffffffffffffffff191692016001600160801b03169190911790915590565b60648111156126045760405162461bcd60e51b815260206004820152604360248201527f476f7665726e6f72566f74657351756f72756d4672616374696f6e3a2071756f60448201527f72756d4e756d657261746f72206f7665722071756f72756d44656e6f6d696e616064820152623a37b960e91b608482015260a4016103d9565b600061260e611ac8565b9050801580159061262057506101c754155b156126855760408051808201909152600081526101c79060208101612644846135f8565b6001600160e01b039081169091528254600181018455600093845260209384902083519490930151909116600160201b0263ffffffff909316929092179101555b6126b36126a0612693611a3d565b65ffffffffffff16612c9c565b6126a9846135f8565b6101c79190613661565b505060408051828152602081018490527f0553476bf02ef2726e8ce5ced78d63e26e602e4a2257b1f559418e24b4633997910160405180910390a15050565b612076565b845181101561162a57306001600160a01b031685828151811061271c5761271c615355565b60200260200101516001600160a01b031614156127685761276883828151811061274857612748615355565b60200260200101518051906020012061013161367c90919063ffffffff16565b6127718161546e565b90506126f7565b61207685858585856136b8565b6000611640858585856127a360408051602081019091526000815290565b6123af565b600081815261013060205260408120600281015460ff16156127cd5750600792915050565b6002810154610100900460ff16156127e85750600292915050565b600083815261013060205260409020546001600160401b03168061284e5760405162461bcd60e51b815260206004820152601d60248201527f476f7665726e6f723a20756e6b6e6f776e2070726f706f73616c20696400000060448201526064016103d9565b6000612858611a3d565b65ffffffffffff16905080821061287457506000949350505050565b600085815261013060205260409020600101546001600160401b03168181106128a35750600195945050505050565b6128ac866137ae565b80156128cf57506000868152610161602052604090206006810154600590910154115b156128e05750600495945050505050565b50600395945050505050565b6060806060600080610161600087815260200190815260200160002090508060010181600201612abe83600301805480602002602001604051908101604052809291908181526020016000905b828210156129e557838290600052602060002001805461295890615210565b80601f016020809104026020016040519081016040528092919081815260200182805461298490615210565b80156129d15780601f106129a6576101008083540402835291602001916129d1565b820191906000526020600020905b8154815290600101906020018083116129b457829003601f168201915b505050505081526020019060010190612939565b50505060048601805460408051602080840282018101909252828152935060009084015b82821015612ab5578382906000526020600020018054612a2890615210565b80601f0160208091040260200160405190810160405280929190818152602001828054612a5490615210565b8015612aa15780601f10612a7657610100808354040283529160200191612aa1565b820191906000526020600020905b815481529060010190602001808311612a8457829003601f168201915b505050505081526020019060010190612a09565b5050505061302c565b6009840154835460408051602080840282018101909252828152918691830182828015612b1457602002820191906000526020600020905b81546001600160a01b03168152600190910190602001808311612af6575b5050505050935082805480602002602001604051908101604052809291908181526020018280548015612b6657602002820191906000526020600020905b815481526020019060010190808311612b52575b505050505092509450945094509450509193509193565b600080612b8c86868686611d80565b90506000612b99826115fc565b90506002816007811115612baf57612baf614cb1565b14158015612bcf57506006816007811115612bcc57612bcc614cb1565b14155b8015612bed57506007816007811115612bea57612bea614cb1565b14155b612c395760405162461bcd60e51b815260206004820152601d60248201527f476f7665726e6f723a2070726f706f73616c206e6f742061637469766500000060448201526064016103d9565b6000828152610130602052604090819020600201805461ff001916610100179055517f789cf55be980739dad1d0699b93b58e806b51c9d96619bfa8fe0a28abaa7b30c90612c8a9084815260200190565b60405180910390a15095945050505050565b600063ffffffff821115612d015760405162461bcd60e51b815260206004820152602660248201527f53616665436173743a2076616c756520646f65736e27742066697420696e203360448201526532206269747360d01b60648201526084016103d9565b5090565b815460009081816005811115612d62576000612d20846137ee565b612d2a908561533e565b60008881526020902090915081015463ffffffff9081169087161015612d5257809150612d60565b612d5d816001615489565b92505b505b6000612d70878785856138d3565b90508015612dab57612d9587612d8760018461533e565b600091825260209091200190565b54600160201b90046001600160e01b03166115f1565b6000979650505050505050565b6000612e1433868686516001600160401b03811115612dd957612dd96146e1565b604051908082528060200260200182016040528015612e0c57816020015b6060815260200190600190039081612df75790505b508787612f6e565b61164085858585613929565b60606067805461101a90615210565b60606068805461101a90615210565b600065ffffffffffff821115612d015760405162461bcd60e51b815260206004820152602660248201527f53616665436173743a2076616c756520646f65736e27742066697420696e203460448201526538206269747360d01b60648201526084016103d9565b61019354604051630748d63560e31b81526001600160a01b038581166004830152602482018590526000921690633a46b1a890604401602060405180830381865afa158015612ef8573d6000803e3d6000fd5b505050506040513d601f19601f82011682018060405250810190611abe919061524b565b80546000908015612f4c57612f3683612d8760018461533e565b54600160201b90046001600160e01b0316611ac1565b60009392505050565b60608315612f64575081611ac1565b611ac18383613d08565b805160208201206000612f8c8787612f86888861302c565b85611d80565b6000818152610161602052604090206009810154919250906130215780546001600160a01b0319166001600160a01b038a161781558751612fd690600183019060208b01906143fb565b508651612fec90600283019060208a019061445c565b5085516130029060038301906020890190614497565b50845161301890600483019060208801906144f0565b50600981018390555b505050505050505050565b6060600082516001600160401b03811115613049576130496146e1565b60405190808252806020026020018201604052801561307c57816020015b60608152602001906001900390816130675790505b50905060005b81518110156131565784818151811061309d5761309d615355565b60200260200101515160001461310d578481815181106130bf576130bf615355565b6020026020010151805190602001208482815181106130e0576130e0615355565b60200260200101516040516020016130f99291906154a1565b604051602081830303815290604052613128565b83818151811061311f5761311f615355565b60200260200101515b82828151811061313a5761313a615355565b60200260200101819052508061314f9061546e565b9050613082565b509392505050565b600054610100900460ff166131855760405162461bcd60e51b81526004016103d9906154d2565b6131ac816131a76040805180820190915260018152603160f81b602082015290565b613d36565b61100781613d93565b600054610100900460ff166131dc5760405162461bcd60e51b81526004016103d9906154d2565b565b600054610100900460ff166132055760405162461bcd60e51b81526004016103d9906154d2565b61100781613dce565b600054610100900460ff166132355760405162461bcd60e51b81526004016103d9906154d2565b61100781613e18565b6000610de9613e3f565b6000807f7fffffffffffffffffffffffffffffff5d576e7357a4501ddfe92f46681b20a083111561327f5750600090506003613303565b6040805160008082526020820180845289905260ff881692820192909252606081018690526080810185905260019060a0016020604051602081039080840390855afa1580156132d3573d6000803e3d6000fd5b5050604051601f1901519150506001600160a01b0381166132fc57600060019250925050613303565b9150600090505b94509492505050565b600081600481111561332057613320614cb1565b14156133295750565b600181600481111561333d5761333d614cb1565b141561338b5760405162461bcd60e51b815260206004820152601860248201527f45434453413a20696e76616c6964207369676e6174757265000000000000000060448201526064016103d9565b600281600481111561339f5761339f614cb1565b14156133ed5760405162461bcd60e51b815260206004820152601f60248201527f45434453413a20696e76616c6964207369676e6174757265206c656e6774680060448201526064016103d9565b600381600481111561340157613401614cb1565b14156110075760405162461bcd60e51b815260206004820152602260248201527f45434453413a20696e76616c6964207369676e6174757265202773272076616c604482015261756560f01b60648201526084016103d9565b6000858152610161602090815260408083206001600160a01b038816845260088101909252909120805460ff16156134ea5760405162461bcd60e51b815260206004820152602d60248201527f476f7665726e6f72436f6d7061746962696c697479427261766f3a20766f746560448201526c08185b1c9958591e4818d85cdd609a1b60648201526084016103d9565b805460ff86166101000261ffff1990911617600117815561350a84613eb3565b81546001600160601b039190911662010000026dffffffffffffffffffffffff00001990911617815560ff851661355a578382600601600082825461354f9190615489565b90915550611d779050565b60ff85166001141561357a578382600501600082825461354f9190615489565b60ff85166002141561359a578382600701600082825461354f9190615489565b60405162461bcd60e51b815260206004820152602d60248201527f476f7665726e6f72436f6d7061746962696c697479427261766f3a20696e766160448201526c6c696420766f7465207479706560981b60648201526084016103d9565b60006001600160e01b03821115612d015760405162461bcd60e51b815260206004820152602760248201527f53616665436173743a2076616c756520646f65736e27742066697420696e20326044820152663234206269747360c81b60648201526084016103d9565b60008061366f858585613f1b565b915091505b935093915050565b8154600160801b90819004600f0b6000818152600180860160205260409091209390935583546001600160801b03908116939091011602179055565b600060405180606001604052806027815260200161563b60279139905060005b8551811015611d77576000808783815181106136f6576136f6615355565b60200260200101516001600160a01b031687848151811061371957613719615355565b602002602001015187858151811061373357613733615355565b6020026020010151604051613748919061551d565b60006040518083038185875af1925050503d8060008114613785576040519150601f19603f3d011682016040523d82523d6000602084013e61378a565b606091505b509150915061379a828286612f55565b505050806137a79061546e565b90506136d8565b60008181526101616020526040812060058101546137e5610d9085600090815261013060205260409020546001600160401b031690565b11159392505050565b6000816137fd57506000919050565b6000600161380a846140c1565b901c6001901b9050600181848161382357613823615299565b048201901c9050600181848161383b5761383b615299565b048201901c9050600181848161385357613853615299565b048201901c9050600181848161386b5761386b615299565b048201901c9050600181848161388357613883615299565b048201901c9050600181848161389b5761389b615299565b048201901c905060018184816138b3576138b3615299565b048201901c9050611ac1818285816138cd576138cd615299565b04614155565b60005b818310156131565760006138ea848461416b565b60008781526020902090915063ffffffff86169082015463ffffffff16111561391557809250613923565b613920816001615489565b93505b506138d6565b6000336139368184614186565b6139825760405162461bcd60e51b815260206004820152601d60248201527f476f7665726e6f723a2070726f706f736572207265737472696374656400000060448201526064016103d9565b600061398c611a3d565b65ffffffffffff16905061399e611bfd565b6139ad83610ce360018561533e565b1015613a155760405162461bcd60e51b815260206004820152603160248201527f476f7665726e6f723a2070726f706f73657220766f7465732062656c6f7720706044820152701c9bdc1bdcd85b081d1a1c995cda1bdb19607a1b60648201526084016103d9565b6000613a2a8888888880519060200120611d80565b90508651885114613a4d5760405162461bcd60e51b81526004016103d990615539565b8551885114613a6e5760405162461bcd60e51b81526004016103d990615539565b6000885111613abf5760405162461bcd60e51b815260206004820152601860248201527f476f7665726e6f723a20656d7074792070726f706f73616c000000000000000060448201526064016103d9565b600081815261013060205260409020546001600160401b031615613b2f5760405162461bcd60e51b815260206004820152602160248201527f476f7665726e6f723a2070726f706f73616c20616c72656164792065786973746044820152607360f81b60648201526084016103d9565b6000613b3b6101fe5490565b613b459084615489565b90506000613b536101fd5490565b613b5d9083615489565b90506040518060e00160405280613b7384614277565b6001600160401b031681526001600160a01b038716602082015260006040820152606001613ba083614277565b6001600160401b03908116825260006020808401829052604080850183905260609485018390528883526101308252918290208551815492870151878501519186166001600160e01b031990941693909317600160401b6001600160a01b039094168402176001600160e01b0316600160e01b60e09290921c91909102178155938501516080860151908416921c0217600183015560a08301516002909201805460c09094015161ffff1990941692151561ff00191692909217610100931515939093029290921790558a517f7d84a6263ae0d98d3329bd7b46bb4e8d6f98cd35a7adb45c274c8b7fd5ebd5e091859188918e918e91811115613ca557613ca56146e1565b604051908082528060200260200182016040528015613cd857816020015b6060815260200190600190039081613cc35790505b508d88888f604051613cf29998979695949392919061557a565b60405180910390a1509098975050505050505050565b815115613d185781518083602001fd5b8060405162461bcd60e51b81526004016103d991906148a2565b5050565b600054610100900460ff16613d5d5760405162461bcd60e51b81526004016103d9906154d2565b8151613d70906067906020850190614549565b508051613d84906068906020840190614549565b50506000606581905560665550565b600054610100900460ff16613dba5760405162461bcd60e51b81526004016103d9906154d2565b8051613d329061012f906020840190614549565b600054610100900460ff16613df55760405162461bcd60e51b81526004016103d9906154d2565b61019380546001600160a01b0319166001600160a01b0392909216919091179055565b600054610100900460ff16610ffe5760405162461bcd60e51b81526004016103d9906154d2565b60007f8b73c3c69bb8fe3d512ecc4cf759cc79239f7b179b0ffacaa9a75d522b39400f613e6a6142df565b613e72614338565b60408051602081019490945283019190915260608201524660808201523060a082015260c00160405160208183030381529060405280519060200120905090565b60006001600160601b03821115612d015760405162461bcd60e51b815260206004820152602660248201527f53616665436173743a2076616c756520646f65736e27742066697420696e203960448201526536206269747360d01b60648201526084016103d9565b825460009081908015614068576000613f3987612d8760018561533e565b60408051808201909152905463ffffffff808216808452600160201b9092046001600160e01b031660208401529192509087161015613fba5760405162461bcd60e51b815260206004820152601b60248201527f436865636b706f696e743a2064656372656173696e67206b657973000000000060448201526064016103d9565b8563ffffffff16816000015163ffffffff1614156140095784613fe288612d8760018661533e565b80546001600160e01b0392909216600160201b0263ffffffff909216919091179055614058565b6040805180820190915263ffffffff80881682526001600160e01b0380881660208085019182528b54600181018d5560008d81529190912094519151909216600160201b029216919091179101555b6020015192508391506136749050565b50506040805180820190915263ffffffff80851682526001600160e01b0380851660208085019182528854600181018a5560008a815291822095519251909316600160201b029190931617920191909155905081613674565b600080608083901c156140d657608092831c92015b604083901c156140e857604092831c92015b602083901c156140fa57602092831c92015b601083901c1561410c57601092831c92015b600883901c1561411e57600892831c92015b600483901c1561413057600492831c92015b600283901c1561414257600292831c92015b600183901c15610e995760010192915050565b60008183106141645781611ac1565b5090919050565b600061417a60028484186152af565b611ac190848416615489565b8051600090603481101561419e576001915050610e99565b82810160131901516001600160a01b031981166b046e0e4dee0dee6cae47a60f60a31b146141d157600192505050610e99565b6000806141df60288561533e565b90505b838110156142565760008061421688848151811061420257614202615355565b01602001516001600160f81b031916614369565b915091508161422e5760019650505050505050610e99565b8060ff166004856001600160a01b0316901b17935050508061424f9061546e565b90506141e2565b50856001600160a01b0316816001600160a01b031614935050505092915050565b60006001600160401b03821115612d015760405162461bcd60e51b815260206004820152602660248201527f53616665436173743a2076616c756520646f65736e27742066697420696e203660448201526534206269747360d01b60648201526084016103d9565b6000806142ea612e20565b805190915015614301578051602090910120919050565b60655480156143105792915050565b7fc5d2460186f7233c927e7db2dcc703c0e500b653ca82273b7bfad8045d85a4709250505090565b600080614343612e2f565b80519091501561435a578051602090910120919050565b60665480156143105792915050565b60008060f883901c602f811180156143845750603a8160ff16105b1561439957600194602f199091019350915050565b8060ff1660401080156143af575060478160ff16105b156143c4576001946036199091019350915050565b8060ff1660601080156143da575060678160ff16105b156143ef576001946056199091019350915050565b50600093849350915050565b828054828255906000526020600020908101928215614450579160200282015b8281111561445057825182546001600160a01b0319166001600160a01b0390911617825560209092019160019091019061441b565b50612d019291506145bc565b828054828255906000526020600020908101928215614450579160200282015b8281111561445057825182559160200191906001019061447c565b8280548282559060005260206000209081019282156144e4579160200282015b828111156144e457825180516144d4918491602090910190614549565b50916020019190600101906144b7565b50612d019291506145d1565b82805482825590600052602060002090810192821561453d579160200282015b8281111561453d578251805161452d918491602090910190614549565b5091602001919060010190614510565b50612d019291506145ee565b82805461455590615210565b90600052602060002090601f0160209004810192826145775760008555614450565b82601f1061459057805160ff1916838001178555614450565b82800160010185558215614450579182018281111561445057825182559160200191906001019061447c565b5b80821115612d0157600081556001016145bd565b80821115612d015760006145e5828261460b565b506001016145d1565b80821115612d01576000614602828261460b565b506001016145ee565b50805461461790615210565b6000825580601f10614627575050565b601f01602090049060005260206000209081019061100791906145bc565b60006020828403121561465757600080fd5b5035919050565b60006020828403121561467057600080fd5b81356001600160e01b031981168114611ac157600080fd5b803560ff811681146116f157600080fd5b60008083601f8401126146ab57600080fd5b5081356001600160401b038111156146c257600080fd5b6020830191508360208285010111156146da57600080fd5b9250929050565b634e487b7160e01b600052604160045260246000fd5b604051601f8201601f191681016001600160401b038111828210171561471f5761471f6146e1565b604052919050565b60006001600160401b03821115614740576147406146e1565b50601f01601f191660200190565b600082601f83011261475f57600080fd5b813561477261476d82614727565b6146f7565b81815284602083860101111561478757600080fd5b816020850160208301376000918101602001919091529392505050565b60008060008060008060008060e0898b0312156147c057600080fd5b883597506147d060208a01614688565b965060408901356001600160401b03808211156147ec57600080fd5b6147f88c838d01614699565b909850965060608b013591508082111561481157600080fd5b5061481e8b828c0161474e565b94505061482d60808a01614688565b925060a0890135915060c089013590509295985092959890939650565b60005b8381101561486557818101518382015260200161484d565b838111156121b85750506000910152565b6000815180845261488e81602086016020860161484a565b601f01601f19169290920160200192915050565b602081526000611ac16020830184614876565b6001600160a01b038116811461100757600080fd5b600080600080608085870312156148e057600080fd5b84356148eb816148b5565b935060208501356148fb816148b5565b92506040850135915060608501356001600160401b0381111561491d57600080fd5b6149298782880161474e565b91505092959194509250565b60006001600160401b0382111561494e5761494e6146e1565b5060051b60200190565b600082601f83011261496957600080fd5b8135602061497961476d83614935565b82815260059290921b8401810191818101908684111561499857600080fd5b8286015b848110156149bc5780356149af816148b5565b835291830191830161499c565b509695505050505050565b600082601f8301126149d857600080fd5b813560206149e861476d83614935565b82815260059290921b84018101918181019086841115614a0757600080fd5b8286015b848110156149bc5780358352918301918301614a0b565b600082601f830112614a3357600080fd5b81356020614a4361476d83614935565b82815260059290921b84018101918181019086841115614a6257600080fd5b8286015b848110156149bc5780356001600160401b03811115614a855760008081fd5b614a938986838b010161474e565b845250918301918301614a66565b60008060008060808587031215614ab757600080fd5b84356001600160401b0380821115614ace57600080fd5b614ada88838901614958565b95506020870135915080821115614af057600080fd5b614afc888389016149c7565b94506040870135915080821115614b1257600080fd5b50614b1f87828801614a22565b949793965093946060013593505050565b600060208284031215614b4257600080fd5b8135611ac1816148b5565b600081518084526020808501945080840160005b83811015614b865781516001600160a01b031687529582019590820190600101614b61565b509495945050505050565b600081518084526020808501945080840160005b83811015614b8657815187529582019590820190600101614ba5565b600081518084526020808501808196508360051b8101915082860160005b85811015614c09578284038952614bf7848351614876565b98850198935090840190600101614bdf565b5091979650505050505050565b608081526000614c296080830187614b4d565b8281036020840152614c3b8187614b91565b90508281036040840152614c4f8186614bc1565b905082810360608401526115f18185614bc1565b600080600080600060a08688031215614c7b57600080fd5b85359450614c8b60208701614688565b9350614c9960408701614688565b94979396509394606081013594506080013592915050565b634e487b7160e01b600052602160045260246000fd5b6020810160088310614ce957634e487b7160e01b600052602160045260246000fd5b91905290565b60008060408385031215614d0257600080fd5b823591506020830135614d14816148b5565b809150509250929050565b60008060408385031215614d3257600080fd5b82359150614d4260208401614688565b90509250929050565b600080600080600060808688031215614d6357600080fd5b85359450614d7360208701614688565b935060408601356001600160401b0380821115614d8f57600080fd5b614d9b89838a01614699565b90955093506060880135915080821115614db457600080fd5b50614dc18882890161474e565b9150509295509295909350565b60008060008060608587031215614de457600080fd5b84359350614df460208601614688565b925060408501356001600160401b03811115614e0f57600080fd5b614e1b87828801614699565b95989497509550505050565b60008060008060808587031215614e3d57600080fd5b84356001600160401b0380821115614e5457600080fd5b614e6088838901614958565b95506020870135915080821115614e7657600080fd5b614e82888389016149c7565b94506040870135915080821115614e9857600080fd5b614ea488838901614a22565b93506060870135915080821115614eba57600080fd5b506149298782880161474e565b60ff60f81b8816815260e060208201526000614ee660e0830189614876565b8281036040840152614ef88189614876565b606084018890526001600160a01b038716608085015260a0840186905283810360c08501529050610f898185614b91565b600080600060608486031215614f3e57600080fd5b8335614f49816148b5565b92506020840135915060408401356001600160401b03811115614f6b57600080fd5b614f778682870161474e565b9150509250925092565b600080600080600060a08688031215614f9957600080fd5b8535614fa4816148b5565b94506020860135614fb4816148b5565b935060408601356001600160401b0380821115614fd057600080fd5b614fdc89838a016149c7565b94506060880135915080821115614ff257600080fd5b614ffe89838a016149c7565b93506080880135915080821115614db457600080fd5b6000806000806060858703121561502a57600080fd5b8435615035816148b5565b93506020850135925060408501356001600160401b03811115614e0f57600080fd5b600080600080600060a0868803121561506f57600080fd5b85356001600160401b038082111561508657600080fd5b61509289838a01614958565b965060208801359150808211156150a857600080fd5b6150b489838a016149c7565b955060408801359150808211156150ca57600080fd5b6150d689838a01614a22565b945060608801359150808211156150ec57600080fd5b614ffe89838a01614a22565b6000806040838503121561510b57600080fd5b8235615116816148b5565b946020939093013593505050565b600080600080600060a0868803121561513c57600080fd5b8535615147816148b5565b94506020860135615157816148b5565b9350604086013592506060860135915060808601356001600160401b0381111561518057600080fd5b614dc18882890161474e565b600080600080608085870312156151a257600080fd5b84356001600160401b038111156151b857600080fd5b6151c48782880161474e565b94505060208501356151d5816148b5565b925060408501356151e5816148b5565b915060608501356151f5816148b5565b939692955090935050565b8183823760009101908152919050565b600181811c9082168061522457607f821691505b6020821081141561524557634e487b7160e01b600052602260045260246000fd5b50919050565b60006020828403121561525d57600080fd5b5051919050565b634e487b7160e01b600052601160045260246000fd5b600081600019048311821515161561529457615294615264565b500290565b634e487b7160e01b600052601260045260246000fd5b6000826152cc57634e487b7160e01b600052601260045260246000fd5b500490565b6000602082840312156152e357600080fd5b81516001600160401b038111156152f957600080fd5b8201601f8101841361530a57600080fd5b805161531861476d82614727565b81815285602083850101111561532d57600080fd5b61164082602083016020860161484a565b60008282101561535057615350615264565b500390565b634e487b7160e01b600052603260045260246000fd5b60006020828403121561537d57600080fd5b815165ffffffffffff81168114611ac157600080fd5b6080815260006153a66080830187614b4d565b82810360208401526153b88187614b91565b905082810360408401526153cc8186614bc1565b91505082606083015295945050505050565b6000602082840312156153f057600080fd5b81518015158114611ac157600080fd5b84815260ff841660208201528260408201526080606082015260006118f26080830184614876565b85815260ff8516602082015283604082015260a06060820152600061545060a0830185614876565b82810360808401526154628185614876565b98975050505050505050565b600060001982141561548257615482615264565b5060010190565b6000821982111561549c5761549c615264565b500190565b6001600160e01b03198316815281516000906154c481600485016020870161484a565b919091016004019392505050565b6020808252602b908201527f496e697469616c697a61626c653a20636f6e7472616374206973206e6f74206960408201526a6e697469616c697a696e6760a81b606082015260800190565b6000825161552f81846020870161484a565b9190910192915050565b60208082526021908201527f476f7665726e6f723a20696e76616c69642070726f706f73616c206c656e67746040820152600d60fb1b606082015260800190565b8981526001600160a01b0389166020820152610120604082018190526000906155a58382018b614b4d565b905082810360608401526155b9818a614b91565b905082810360808401526155cd8189614bc1565b905082810360a08401526155e18188614bc1565b90508560c08401528460e08401528281036101008401526156028185614876565b9c9b50505050505050505050505056fe476f7665726e6f723a2072656c617920726576657274656420776974686f7574206d657373616765476f7665726e6f723a2063616c6c20726576657274656420776974686f7574206d657373616765a2646970667358221220150934363f3cb70028771028571c1468b2ed4ac276456f0422ca9aaf48a2ba2d64736f6c634300080c0033",
  "linkReferences": {},
  "deployedLinkReferences": {}
}