{
  "_format": "hh-sol-artifact-1",
  "contractName": "GenDAO",
  "sourceName": "contracts/governance/GenDAO.sol",
  "abi": [
    {
      "inputs": [],
      "name": "Empty",
      "type": "error"
    },
    {
      "anonymous": false,
      "inputs": [
        {
          "indexed": false,
          "internalType": "uint8",
          "name": "version",
          "type": "uint8"
        }
      ],
      "name": "Initialized",
      "type": "event"
    },
    {
      "anonymous": false,
      "inputs": [
        {
          "indexed": false,
          "internalType": "uint256",
          "name": "proposalId",
          "type": "uint256"
        }
      ],
      "name": "ProposalCanceled",
      "type": "event"
    },
    {
      "anonymous": false,
      "inputs": [
        {
          "indexed": false,
          "internalType": "uint256",
          "name": "proposalId",
          "type": "uint256"
        },
        {
          "indexed": false,
          "internalType": "address",
          "name": "proposer",
          "type": "address"
        },
        {
          "indexed": false,
          "internalType": "address[]",
          "name": "targets",
          "type": "address[]"
        },
        {
          "indexed": false,
          "internalType": "uint256[]",
          "name": "values",
          "type": "uint256[]"
        },
        {
          "indexed": false,
          "internalType": "string[]",
          "name": "signatures",
          "type": "string[]"
        },
        {
          "indexed": false,
          "internalType": "bytes[]",
          "name": "calldatas",
          "type": "bytes[]"
        },
        {
          "indexed": false,
          "internalType": "uint256",
          "name": "startBlock",
          "type": "uint256"
        },
        {
          "indexed": false,
          "internalType": "uint256",
          "name": "endBlock",
          "type": "uint256"
        },
        {
          "indexed": false,
          "internalType": "string",
          "name": "description",
          "type": "string"
        }
      ],
      "name": "ProposalCreated",
      "type": "event"
    },
    {
      "anonymous": false,
      "inputs": [
        {
          "indexed": false,
          "internalType": "uint256",
          "name": "proposalId",
          "type": "uint256"
        }
      ],
      "name": "ProposalExecuted",
      "type": "event"
    },
    {
      "anonymous": false,
      "inputs": [
        {
          "indexed": false,
          "internalType": "uint256",
          "name": "proposalId",
          "type": "uint256"
        },
        {
          "indexed": false,
          "internalType": "uint256",
          "name": "eta",
          "type": "uint256"
        }
      ],
      "name": "ProposalQueued",
      "type": "event"
    },
    {
      "anonymous": false,
      "inputs": [
        {
          "indexed": false,
          "internalType": "uint256",
          "name": "oldQuorumNumerator",
          "type": "uint256"
        },
        {
          "indexed": false,
          "internalType": "uint256",
          "name": "newQuorumNumerator",
          "type": "uint256"
        }
      ],
      "name": "QuorumNumeratorUpdated",
      "type": "event"
    },
    {
      "anonymous": false,
      "inputs": [
        {
          "indexed": false,
          "internalType": "address",
          "name": "oldTimelock",
          "type": "address"
        },
        {
          "indexed": false,
          "internalType": "address",
          "name": "newTimelock",
          "type": "address"
        }
      ],
      "name": "TimelockChange",
      "type": "event"
    },
    {
      "anonymous": false,
      "inputs": [
        {
          "indexed": true,
          "internalType": "address",
          "name": "voter",
          "type": "address"
        },
        {
          "indexed": false,
          "internalType": "uint256",
          "name": "proposalId",
          "type": "uint256"
        },
        {
          "indexed": false,
          "internalType": "uint8",
          "name": "support",
          "type": "uint8"
        },
        {
          "indexed": false,
          "internalType": "uint256",
          "name": "weight",
          "type": "uint256"
        },
        {
          "indexed": false,
          "internalType": "string",
          "name": "reason",
          "type": "string"
        }
      ],
      "name": "VoteCast",
      "type": "event"
    },
    {
      "anonymous": false,
      "inputs": [
        {
          "indexed": true,
          "internalType": "address",
          "name": "voter",
          "type": "address"
        },
        {
          "indexed": false,
          "internalType": "uint256",
          "name": "proposalId",
          "type": "uint256"
        },
        {
          "indexed": false,
          "internalType": "uint8",
          "name": "support",
          "type": "uint8"
        },
        {
          "indexed": false,
          "internalType": "uint256",
          "name": "weight",
          "type": "uint256"
        },
        {
          "indexed": false,
          "internalType": "string",
          "name": "reason",
          "type": "string"
        },
        {
          "indexed": false,
          "internalType": "bytes",
          "name": "params",
          "type": "bytes"
        }
      ],
      "name": "VoteCastWithParams",
      "type": "event"
    },
    {
      "inputs": [],
      "name": "BALLOT_TYPEHASH",
      "outputs": [
        {
          "internalType": "bytes32",
          "name": "",
          "type": "bytes32"
        }
      ],
      "stateMutability": "view",
      "type": "function"
    },
    {
      "inputs": [],
      "name": "COUNTING_MODE",
      "outputs": [
        {
          "internalType": "string",
          "name": "",
          "type": "string"
        }
      ],
      "stateMutability": "pure",
      "type": "function"
    },
    {
      "inputs": [],
      "name": "EXTENDED_BALLOT_TYPEHASH",
      "outputs": [
        {
          "internalType": "bytes32",
          "name": "",
          "type": "bytes32"
        }
      ],
      "stateMutability": "view",
      "type": "function"
    },
    {
      "inputs": [],
      "name": "_admin",
      "outputs": [
        {
          "internalType": "address",
          "name": "",
          "type": "address"
        }
      ],
      "stateMutability": "view",
      "type": "function"
    },
    {
      "inputs": [],
      "name": "_paramAddr",
      "outputs": [
        {
          "internalType": "address",
          "name": "",
          "type": "address"
        }
      ],
      "stateMutability": "view",
      "type": "function"
    },
    {
      "inputs": [],
      "name": "_proposalThreshold",
      "outputs": [
        {
          "internalType": "uint256",
          "name": "",
          "type": "uint256"
        }
      ],
      "stateMutability": "view",
      "type": "function"
    },
    {
      "inputs": [],
      "name": "_quorumVote",
      "outputs": [
        {
          "internalType": "uint256",
          "name": "",
          "type": "uint256"
        }
      ],
      "stateMutability": "view",
      "type": "function"
    },
    {
      "inputs": [],
      "name": "_votingDelay",
      "outputs": [
        {
          "internalType": "uint256",
          "name": "",
          "type": "uint256"
        }
      ],
      "stateMutability": "view",
      "type": "function"
    },
    {
      "inputs": [],
      "name": "_votingPeriod",
      "outputs": [
        {
          "internalType": "uint256",
          "name": "",
          "type": "uint256"
        }
      ],
      "stateMutability": "view",
      "type": "function"
    },
    {
      "inputs": [],
      "name": "_votingToken",
      "outputs": [
        {
          "internalType": "contract IGENToken",
          "name": "",
          "type": "address"
        }
      ],
      "stateMutability": "view",
      "type": "function"
    },
    {
      "inputs": [
        {
          "internalType": "uint256",
          "name": "proposalId",
          "type": "uint256"
        }
      ],
      "name": "cancel",
      "outputs": [],
      "stateMutability": "nonpayable",
      "type": "function"
    },
    {
      "inputs": [
        {
          "internalType": "uint256",
          "name": "proposalId",
          "type": "uint256"
        },
        {
          "internalType": "uint8",
          "name": "support",
          "type": "uint8"
        }
      ],
      "name": "castVote",
      "outputs": [
        {
          "internalType": "uint256",
          "name": "",
          "type": "uint256"
        }
      ],
      "stateMutability": "nonpayable",
      "type": "function"
    },
    {
      "inputs": [
        {
          "internalType": "uint256",
          "name": "proposalId",
          "type": "uint256"
        },
        {
          "internalType": "uint8",
          "name": "support",
          "type": "uint8"
        },
        {
          "internalType": "uint8",
          "name": "v",
          "type": "uint8"
        },
        {
          "internalType": "bytes32",
          "name": "r",
          "type": "bytes32"
        },
        {
          "internalType": "bytes32",
          "name": "s",
          "type": "bytes32"
        }
      ],
      "name": "castVoteBySig",
      "outputs": [
        {
          "internalType": "uint256",
          "name": "",
          "type": "uint256"
        }
      ],
      "stateMutability": "nonpayable",
      "type": "function"
    },
    {
      "inputs": [
        {
          "internalType": "uint256",
          "name": "proposalId",
          "type": "uint256"
        },
        {
          "internalType": "uint8",
          "name": "support",
          "type": "uint8"
        },
        {
          "internalType": "string",
          "name": "reason",
          "type": "string"
        }
      ],
      "name": "castVoteWithReason",
      "outputs": [
        {
          "internalType": "uint256",
          "name": "",
          "type": "uint256"
        }
      ],
      "stateMutability": "nonpayable",
      "type": "function"
    },
    {
      "inputs": [
        {
          "internalType": "uint256",
          "name": "proposalId",
          "type": "uint256"
        },
        {
          "internalType": "uint8",
          "name": "support",
          "type": "uint8"
        },
        {
          "internalType": "string",
          "name": "reason",
          "type": "string"
        },
        {
          "internalType": "bytes",
          "name": "params",
          "type": "bytes"
        }
      ],
      "name": "castVoteWithReasonAndParams",
      "outputs": [
        {
          "internalType": "uint256",
          "name": "",
          "type": "uint256"
        }
      ],
      "stateMutability": "nonpayable",
      "type": "function"
    },
    {
      "inputs": [
        {
          "internalType": "uint256",
          "name": "proposalId",
          "type": "uint256"
        },
        {
          "internalType": "uint8",
          "name": "support",
          "type": "uint8"
        },
        {
          "internalType": "string",
          "name": "reason",
          "type": "string"
        },
        {
          "internalType": "bytes",
          "name": "params",
          "type": "bytes"
        },
        {
          "internalType": "uint8",
          "name": "v",
          "type": "uint8"
        },
        {
          "internalType": "bytes32",
          "name": "r",
          "type": "bytes32"
        },
        {
          "internalType": "bytes32",
          "name": "s",
          "type": "bytes32"
        }
      ],
      "name": "castVoteWithReasonAndParamsBySig",
      "outputs": [
        {
          "internalType": "uint256",
          "name": "",
          "type": "uint256"
        }
      ],
      "stateMutability": "nonpayable",
      "type": "function"
    },
    {
      "inputs": [
        {
          "internalType": "address",
          "name": "newAdm",
          "type": "address"
        }
      ],
      "name": "changeAdmin",
      "outputs": [],
      "stateMutability": "nonpayable",
      "type": "function"
    },
    {
      "inputs": [
        {
          "internalType": "uint256",
          "name": "_new",
          "type": "uint256"
        }
      ],
      "name": "changeProposalThreshold",
      "outputs": [],
      "stateMutability": "nonpayable",
      "type": "function"
    },
    {
      "inputs": [
        {
          "internalType": "uint256",
          "name": "_new",
          "type": "uint256"
        }
      ],
      "name": "changeQuorumVotes",
      "outputs": [],
      "stateMutability": "nonpayable",
      "type": "function"
    },
    {
      "inputs": [
        {
          "internalType": "uint256",
          "name": "_new",
          "type": "uint256"
        }
      ],
      "name": "changeVoteDelay",
      "outputs": [],
      "stateMutability": "nonpayable",
      "type": "function"
    },
    {
      "inputs": [
        {
          "internalType": "uint256",
          "name": "_new",
          "type": "uint256"
        }
      ],
      "name": "changeVotePeriod",
      "outputs": [],
      "stateMutability": "nonpayable",
      "type": "function"
    },
    {
      "inputs": [
        {
          "internalType": "contract IGENToken",
          "name": "_new",
          "type": "address"
        }
      ],
      "name": "changeVotingToken",
      "outputs": [],
      "stateMutability": "nonpayable",
      "type": "function"
    },
    {
      "inputs": [
        {
          "internalType": "address[]",
          "name": "targets",
          "type": "address[]"
        },
        {
          "internalType": "uint256[]",
          "name": "values",
          "type": "uint256[]"
        },
        {
          "internalType": "bytes[]",
          "name": "calldatas",
          "type": "bytes[]"
        },
        {
          "internalType": "bytes32",
          "name": "descriptionHash",
          "type": "bytes32"
        }
      ],
      "name": "execute",
      "outputs": [
        {
          "internalType": "uint256",
          "name": "",
          "type": "uint256"
        }
      ],
      "stateMutability": "payable",
      "type": "function"
    },
    {
      "inputs": [
        {
          "internalType": "uint256",
          "name": "proposalId",
          "type": "uint256"
        }
      ],
      "name": "execute",
      "outputs": [],
      "stateMutability": "payable",
      "type": "function"
    },
    {
      "inputs": [
        {
          "internalType": "uint256",
          "name": "proposalId",
          "type": "uint256"
        }
      ],
      "name": "getActions",
      "outputs": [
        {
          "internalType": "address[]",
          "name": "targets",
          "type": "address[]"
        },
        {
          "internalType": "uint256[]",
          "name": "values",
          "type": "uint256[]"
        },
        {
          "internalType": "string[]",
          "name": "signatures",
          "type": "string[]"
        },
        {
          "internalType": "bytes[]",
          "name": "calldatas",
          "type": "bytes[]"
        }
      ],
      "stateMutability": "view",
      "type": "function"
    },
    {
      "inputs": [
        {
          "internalType": "uint256",
          "name": "proposalId",
          "type": "uint256"
        },
        {
          "internalType": "address",
          "name": "voter",
          "type": "address"
        }
      ],
      "name": "getReceipt",
      "outputs": [
        {
          "components": [
            {
              "internalType": "bool",
              "name": "hasVoted",
              "type": "bool"
            },
            {
              "internalType": "uint8",
              "name": "support",
              "type": "uint8"
            },
            {
              "internalType": "uint96",
              "name": "votes",
              "type": "uint96"
            }
          ],
          "internalType": "struct IGovernorCompatibilityBravoUpgradeable.Receipt",
          "name": "",
          "type": "tuple"
        }
      ],
      "stateMutability": "view",
      "type": "function"
    },
    {
      "inputs": [
        {
          "internalType": "address",
          "name": "account",
          "type": "address"
        },
        {
          "internalType": "uint256",
          "name": "blockNumber",
          "type": "uint256"
        }
      ],
      "name": "getVotes",
      "outputs": [
        {
          "internalType": "uint256",
          "name": "",
          "type": "uint256"
        }
      ],
      "stateMutability": "view",
      "type": "function"
    },
    {
      "inputs": [
        {
          "internalType": "address",
          "name": "account",
          "type": "address"
        },
        {
          "internalType": "uint256",
          "name": "blockNumber",
          "type": "uint256"
        },
        {
          "internalType": "bytes",
          "name": "params",
          "type": "bytes"
        }
      ],
      "name": "getVotesWithParams",
      "outputs": [
        {
          "internalType": "uint256",
          "name": "",
          "type": "uint256"
        }
      ],
      "stateMutability": "view",
      "type": "function"
    },
    {
      "inputs": [
        {
          "internalType": "uint256",
          "name": "proposalId",
          "type": "uint256"
        },
        {
          "internalType": "address",
          "name": "account",
          "type": "address"
        }
      ],
      "name": "hasVoted",
      "outputs": [
        {
          "internalType": "bool",
          "name": "",
          "type": "bool"
        }
      ],
      "stateMutability": "view",
      "type": "function"
    },
    {
      "inputs": [
        {
          "internalType": "address[]",
          "name": "targets",
          "type": "address[]"
        },
        {
          "internalType": "uint256[]",
          "name": "values",
          "type": "uint256[]"
        },
        {
          "internalType": "bytes[]",
          "name": "calldatas",
          "type": "bytes[]"
        },
        {
          "internalType": "bytes32",
          "name": "descriptionHash",
          "type": "bytes32"
        }
      ],
      "name": "hashProposal",
      "outputs": [
        {
          "internalType": "uint256",
          "name": "",
          "type": "uint256"
        }
      ],
      "stateMutability": "pure",
      "type": "function"
    },
    {
      "inputs": [
        {
          "internalType": "string",
          "name": "name",
          "type": "string"
        },
        {
          "internalType": "address",
          "name": "admin",
          "type": "address"
        },
        {
          "internalType": "address",
          "name": "paramAddr",
          "type": "address"
        },
        {
          "internalType": "contract IGENToken",
          "name": "votingToken",
          "type": "address"
        },
        {
          "internalType": "contract TimelockControllerUpgradeable",
          "name": "timelock",
          "type": "address"
        }
      ],
      "name": "initialize",
      "outputs": [],
      "stateMutability": "nonpayable",
      "type": "function"
    },
    {
      "inputs": [],
      "name": "name",
      "outputs": [
        {
          "internalType": "string",
          "name": "",
          "type": "string"
        }
      ],
      "stateMutability": "view",
      "type": "function"
    },
    {
      "inputs": [
        {
          "internalType": "address",
          "name": "",
          "type": "address"
        },
        {
          "internalType": "address",
          "name": "",
          "type": "address"
        },
        {
          "internalType": "uint256[]",
          "name": "",
          "type": "uint256[]"
        },
        {
          "internalType": "uint256[]",
          "name": "",
          "type": "uint256[]"
        },
        {
          "internalType": "bytes",
          "name": "",
          "type": "bytes"
        }
      ],
      "name": "onERC1155BatchReceived",
      "outputs": [
        {
          "internalType": "bytes4",
          "name": "",
          "type": "bytes4"
        }
      ],
      "stateMutability": "nonpayable",
      "type": "function"
    },
    {
      "inputs": [
        {
          "internalType": "address",
          "name": "",
          "type": "address"
        },
        {
          "internalType": "address",
          "name": "",
          "type": "address"
        },
        {
          "internalType": "uint256",
          "name": "",
          "type": "uint256"
        },
        {
          "internalType": "uint256",
          "name": "",
          "type": "uint256"
        },
        {
          "internalType": "bytes",
          "name": "",
          "type": "bytes"
        }
      ],
      "name": "onERC1155Received",
      "outputs": [
        {
          "internalType": "bytes4",
          "name": "",
          "type": "bytes4"
        }
      ],
      "stateMutability": "nonpayable",
      "type": "function"
    },
    {
      "inputs": [
        {
          "internalType": "address",
          "name": "",
          "type": "address"
        },
        {
          "internalType": "address",
          "name": "",
          "type": "address"
        },
        {
          "internalType": "uint256",
          "name": "",
          "type": "uint256"
        },
        {
          "internalType": "bytes",
          "name": "",
          "type": "bytes"
        }
      ],
      "name": "onERC721Received",
      "outputs": [
        {
          "internalType": "bytes4",
          "name": "",
          "type": "bytes4"
        }
      ],
      "stateMutability": "nonpayable",
      "type": "function"
    },
    {
      "inputs": [
        {
          "internalType": "uint256",
          "name": "proposalId",
          "type": "uint256"
        }
      ],
      "name": "proposalDeadline",
      "outputs": [
        {
          "internalType": "uint256",
          "name": "",
          "type": "uint256"
        }
      ],
      "stateMutability": "view",
      "type": "function"
    },
    {
      "inputs": [
        {
          "internalType": "uint256",
          "name": "",
          "type": "uint256"
        }
      ],
      "name": "proposalEta",
      "outputs": [
        {
          "internalType": "uint256",
          "name": "",
          "type": "uint256"
        }
      ],
      "stateMutability": "pure",
      "type": "function"
    },
    {
      "inputs": [
        {
          "internalType": "uint256",
          "name": "proposalId",
          "type": "uint256"
        }
      ],
      "name": "proposalSnapshot",
      "outputs": [
        {
          "internalType": "uint256",
          "name": "",
          "type": "uint256"
        }
      ],
      "stateMutability": "view",
      "type": "function"
    },
    {
      "inputs": [],
      "name": "proposalThreshold",
      "outputs": [
        {
          "internalType": "uint256",
          "name": "",
          "type": "uint256"
        }
      ],
      "stateMutability": "view",
      "type": "function"
    },
    {
      "inputs": [
        {
          "internalType": "uint256",
          "name": "proposalId",
          "type": "uint256"
        }
      ],
      "name": "proposals",
      "outputs": [
        {
          "internalType": "uint256",
          "name": "id",
          "type": "uint256"
        },
        {
          "internalType": "address",
          "name": "proposer",
          "type": "address"
        },
        {
          "internalType": "uint256",
          "name": "eta",
          "type": "uint256"
        },
        {
          "internalType": "uint256",
          "name": "startBlock",
          "type": "uint256"
        },
        {
          "internalType": "uint256",
          "name": "endBlock",
          "type": "uint256"
        },
        {
          "internalType": "uint256",
          "name": "forVotes",
          "type": "uint256"
        },
        {
          "internalType": "uint256",
          "name": "againstVotes",
          "type": "uint256"
        },
        {
          "internalType": "uint256",
          "name": "abstainVotes",
          "type": "uint256"
        },
        {
          "internalType": "bool",
          "name": "canceled",
          "type": "bool"
        },
        {
          "internalType": "bool",
          "name": "executed",
          "type": "bool"
        }
      ],
      "stateMutability": "view",
      "type": "function"
    },
    {
      "inputs": [
        {
          "internalType": "address[]",
          "name": "targets",
          "type": "address[]"
        },
        {
          "internalType": "uint256[]",
          "name": "values",
          "type": "uint256[]"
        },
        {
          "internalType": "bytes[]",
          "name": "calldatas",
          "type": "bytes[]"
        },
        {
          "internalType": "string",
          "name": "description",
          "type": "string"
        }
      ],
      "name": "propose",
      "outputs": [
        {
          "internalType": "uint256",
          "name": "",
          "type": "uint256"
        }
      ],
      "stateMutability": "nonpayable",
      "type": "function"
    },
    {
      "inputs": [
        {
          "internalType": "address[]",
          "name": "targets",
          "type": "address[]"
        },
        {
          "internalType": "uint256[]",
          "name": "values",
          "type": "uint256[]"
        },
        {
          "internalType": "string[]",
          "name": "signatures",
          "type": "string[]"
        },
        {
          "internalType": "bytes[]",
          "name": "calldatas",
          "type": "bytes[]"
        },
        {
          "internalType": "string",
          "name": "description",
          "type": "string"
        }
      ],
      "name": "propose",
      "outputs": [
        {
          "internalType": "uint256",
          "name": "",
          "type": "uint256"
        }
      ],
      "stateMutability": "nonpayable",
      "type": "function"
    },
    {
      "inputs": [
        {
          "internalType": "address[]",
          "name": "",
          "type": "address[]"
        },
        {
          "internalType": "uint256[]",
          "name": "",
          "type": "uint256[]"
        },
        {
          "internalType": "bytes[]",
          "name": "",
          "type": "bytes[]"
        },
        {
          "internalType": "bytes32",
          "name": "",
          "type": "bytes32"
        }
      ],
      "name": "queue",
      "outputs": [
        {
          "internalType": "uint256",
          "name": "",
          "type": "uint256"
        }
      ],
      "stateMutability": "pure",
      "type": "function"
    },
    {
      "inputs": [
        {
          "internalType": "uint256",
          "name": "proposalId",
          "type": "uint256"
        }
      ],
      "name": "queue",
      "outputs": [],
      "stateMutability": "nonpayable",
      "type": "function"
    },
    {
      "inputs": [
        {
          "internalType": "uint256",
          "name": "blockNumber",
          "type": "uint256"
        }
      ],
      "name": "quorum",
      "outputs": [
        {
          "internalType": "uint256",
          "name": "",
          "type": "uint256"
        }
      ],
      "stateMutability": "view",
      "type": "function"
    },
    {
      "inputs": [],
      "name": "quorumDenominator",
      "outputs": [
        {
          "internalType": "uint256",
          "name": "",
          "type": "uint256"
        }
      ],
      "stateMutability": "view",
      "type": "function"
    },
    {
      "inputs": [
        {
          "internalType": "uint256",
          "name": "blockNumber",
          "type": "uint256"
        }
      ],
      "name": "quorumNumerator",
      "outputs": [
        {
          "internalType": "uint256",
          "name": "",
          "type": "uint256"
        }
      ],
      "stateMutability": "view",
      "type": "function"
    },
    {
      "inputs": [],
      "name": "quorumNumerator",
      "outputs": [
        {
          "internalType": "uint256",
          "name": "",
          "type": "uint256"
        }
      ],
      "stateMutability": "view",
      "type": "function"
    },
    {
      "inputs": [],
      "name": "quorumVotes",
      "outputs": [
        {
          "internalType": "uint256",
          "name": "",
          "type": "uint256"
        }
      ],
      "stateMutability": "view",
      "type": "function"
    },
    {
      "inputs": [
        {
          "internalType": "address",
          "name": "target",
          "type": "address"
        },
        {
          "internalType": "uint256",
          "name": "value",
          "type": "uint256"
        },
        {
          "internalType": "bytes",
          "name": "data",
          "type": "bytes"
        }
      ],
      "name": "relay",
      "outputs": [],
      "stateMutability": "payable",
      "type": "function"
    },
    {
      "inputs": [
        {
          "internalType": "uint256",
          "name": "proposalId",
          "type": "uint256"
        }
      ],
      "name": "state",
      "outputs": [
        {
          "internalType": "enum IGovernorUpgradeable.ProposalState",
          "name": "",
          "type": "uint8"
        }
      ],
      "stateMutability": "view",
      "type": "function"
    },
    {
      "inputs": [
        {
          "internalType": "bytes4",
          "name": "interfaceId",
          "type": "bytes4"
        }
      ],
      "name": "supportsInterface",
      "outputs": [
        {
          "internalType": "bool",
          "name": "",
          "type": "bool"
        }
      ],
      "stateMutability": "view",
      "type": "function"
    },
    {
      "inputs": [],
      "name": "timelock",
      "outputs": [
        {
          "internalType": "address",
          "name": "",
          "type": "address"
        }
      ],
      "stateMutability": "pure",
      "type": "function"
    },
    {
      "inputs": [],
      "name": "token",
      "outputs": [
        {
          "internalType": "contract IVotesUpgradeable",
          "name": "",
          "type": "address"
        }
      ],
      "stateMutability": "view",
      "type": "function"
    },
    {
      "inputs": [
        {
          "internalType": "uint256",
          "name": "newQuorumNumerator",
          "type": "uint256"
        }
      ],
      "name": "updateQuorumNumerator",
      "outputs": [],
      "stateMutability": "nonpayable",
      "type": "function"
    },
    {
      "inputs": [
        {
          "internalType": "contract TimelockControllerUpgradeable",
          "name": "newTimelock",
          "type": "address"
        }
      ],
      "name": "updateTimelock",
      "outputs": [],
      "stateMutability": "nonpayable",
      "type": "function"
    },
    {
      "inputs": [],
      "name": "version",
      "outputs": [
        {
          "internalType": "string",
          "name": "",
          "type": "string"
        }
      ],
      "stateMutability": "view",
      "type": "function"
    },
    {
      "inputs": [],
      "name": "votingDelay",
      "outputs": [
        {
          "internalType": "uint256",
          "name": "",
          "type": "uint256"
        }
      ],
      "stateMutability": "view",
      "type": "function"
    },
    {
      "inputs": [],
      "name": "votingPeriod",
      "outputs": [
        {
          "internalType": "uint256",
          "name": "",
          "type": "uint256"
        }
      ],
      "stateMutability": "view",
      "type": "function"
    },
    {
      "stateMutability": "payable",
      "type": "receive"
    }
  ],
  "bytecode": "0x608060405234801561001057600080fd5b506154aa806100206000396000f3fe6080604052600436106103905760003560e01c80639199907a116101dc578063d33219b411610102578063e4cdd80e116100a0578063f8ce560a1161006f578063f8ce560a14610c2c578063f9dabc5514610c4c578063fc0c546a14610c6c578063fe0d94c114610c8d57600080fd5b8063e4cdd80e14610ba8578063eb9019d414610bbf578063f23a6e6114610bdf578063f4a290f714610c0b57600080fd5b8063dd4e2ba5116100dc578063dd4e2ba514610a43578063ddf0b00914610a89578063deaaa7cc14610aa9578063e23a9a5214610add57600080fd5b8063d33219b4146109f8578063da420d6c14610a0c578063da95691a14610a2357600080fd5b8063ab58fb8e1161017a578063bc197c8111610149578063bc197c8114610979578063c01f9e37146109a5578063c28bc2fa146109c5578063c59057e4146109d857600080fd5b8063ab58fb8e14610903578063b15c4a4214610924578063b3af077714610944578063b58131b01461096457600080fd5b8063a4d82225116101b6578063a4d822251461088d578063a7713a70146108ae578063a890c910146108c3578063a8f0a82e146108e357600080fd5b80639199907a1461084257806397c3d334146108595780639a802a6d1461086d57600080fd5b8063328dd982116102c157806354fd4d501161025f5780636e3827b71161022e5780636e3827b7146107cb5780637b3c71d3146107e25780637d5e81e2146108025780638f2839701461082257600080fd5b806354fd4d5014610741578063567813881461076b5780635f398a141461078b57806360c4247f146107ab57600080fd5b80633e4f49e61161029b5780633e4f49e61461068957806340e58ee5146106b657806343859632146106d657806354dfc2ed1461072157600080fd5b8063328dd982146106235780633932abb1146106535780633bccf4fd1461066957600080fd5b80630b885ac31161032e57806324bc1a641161030857806324bc1a64146105a75780632656227d146105bc5780632d63f693146105cf5780632fe3e261146105ef57600080fd5b80630b885ac31461051e578063150b7a021461053e578063160cbed71461058257600080fd5b806302a251a31161036a57806302a251a31461049c57806303420181146104bc57806306f3f9e6146104dc57806306fdde03146104fc57600080fd5b8063013cf08b146103b857806301bc45c91461043357806301ffc9a71461046c57600080fd5b366103b3573061039e610ca0565b6001600160a01b0316146103b157600080fd5b005b600080fd5b3480156103c457600080fd5b506103d86103d3366004614460565b610cba565b604080519a8b526001600160a01b0390991660208b0152978901969096526060880194909452608087019290925260a086015260c085015260e084015215156101008301521515610120820152610140015b60405180910390f35b34801561043f57600080fd5b5061022a54610454906001600160a01b031681565b6040516001600160a01b03909116815260200161042a565b34801561047857600080fd5b5061048c610487366004614479565b610d59565b604051901515815260200161042a565b3480156104a857600080fd5b5061022f545b60405190815260200161042a565b3480156104c857600080fd5b506104ae6104d73660046145af565b610d6a565b3480156104e857600080fd5b506103b16104f7366004614460565b610e62565b34801561050857600080fd5b50610511610efb565b60405161042a91906146b1565b34801561052a57600080fd5b506103b16105393660046146d9565b610f8e565b34801561054a57600080fd5b50610569610559366004614762565b630a85bd0160e11b949350505050565b6040516001600160e01b0319909116815260200161042a565b34801561058e57600080fd5b506104ae61059d36600461493e565b6000949350505050565b3480156105b357600080fd5b506104ae611193565b6104ae6105ca36600461493e565b611228565b3480156105db57600080fd5b506104ae6105ea366004614460565b611355565b3480156105fb57600080fd5b506104ae7fb3b3f3b703cd84ce352197dcff232b1b5d3cfb2025ce47cf04742d0651f1af8881565b34801561062f57600080fd5b5061064361063e366004614460565b61138d565b60405161042a9493929190614a96565b34801561065f57600080fd5b50610230546104ae565b34801561067557600080fd5b506104ae610684366004614ae3565b61161f565b34801561069557600080fd5b506106a96106a4366004614460565b611695565b60405161042a9190614b47565b3480156106c257600080fd5b506103b16106d1366004614460565b6116a0565b3480156106e257600080fd5b5061048c6106f1366004614b6f565b6000828152610161602090815260408083206001600160a01b038516845260080190915290205460ff1692915050565b34801561072d57600080fd5b506103b161073c366004614b9f565b6119b9565b34801561074d57600080fd5b506040805180820190915260018152603160f81b6020820152610511565b34801561077757600080fd5b506104ae610786366004614bbc565b611a47565b34801561079757600080fd5b506104ae6107a6366004614be8565b611a70565b3480156107b757600080fd5b506104ae6107c6366004614460565b611aba565b3480156107d757600080fd5b506104ae61022d5481565b3480156107ee57600080fd5b506104ae6107fd366004614c6b565b611b53565b34801561080e57600080fd5b506104ae61081d366004614cc4565b611ba5565b34801561082e57600080fd5b506103b161083d366004614b9f565b611bbc565b34801561084e57600080fd5b506104ae61022f5481565b34801561086557600080fd5b5060646104ae565b34801561087957600080fd5b506104ae610888366004614d64565b611c51565b34801561089957600080fd5b5061022c54610454906001600160a01b031681565b3480156108ba57600080fd5b506104ae611c68565b3480156108cf57600080fd5b506103b16108de366004614b9f565b611c95565b3480156108ef57600080fd5b506103b16108fe366004614460565b611d22565b34801561090f57600080fd5b506104ae61091e366004614460565b50600090565b34801561093057600080fd5b506103b161093f366004614460565b611d7a565b34801561095057600080fd5b506103b161095f366004614460565b611dd2565b34801561097057600080fd5b506104ae611e2a565b34801561098557600080fd5b50610569610994366004614dbc565b63bc197c8160e01b95945050505050565b3480156109b157600080fd5b506104ae6109c0366004614460565b611eb5565b6103b16109d3366004614e4f565b611ee5565b3480156109e457600080fd5b506104ae6109f336600461493e565b611ffa565b348015610a0457600080fd5b506000610454565b348015610a1857600080fd5b506104ae61022e5481565b348015610a2f57600080fd5b506104ae610a3e366004614f11565b612034565b348015610a4f57600080fd5b5060408051808201909152601a81527f737570706f72743d627261766f2671756f72756d3d627261766f0000000000006020820152610511565b348015610a9557600080fd5b506103b1610aa4366004614460565b612059565b348015610ab557600080fd5b506104ae7f150214d74d59b7d1e90c73fc22ef3d991dd0a76b046543d4d80ab92d2a50328f81565b348015610ae957600080fd5b50610b78610af8366004614b6f565b6040805160608101825260008082526020820181905291810191909152506000918252610161602090815260408084206001600160a01b0393909316845260089092018152918190208151606081018352905460ff8082161515835261010082041693820193909352620100009092046001600160601b03169082015290565b6040805182511515815260208084015160ff1690820152918101516001600160601b03169082015260600161042a565b348015610bb457600080fd5b506104ae6102305481565b348015610bcb57600080fd5b506104ae610bda366004614fb2565b6122c7565b348015610beb57600080fd5b50610569610bfa366004614fde565b63f23a6e6160e01b95945050505050565b348015610c1757600080fd5b5061022b54610454906001600160a01b031681565b348015610c3857600080fd5b506104ae610c47366004614460565b6122e8565b348015610c5857600080fd5b506103b1610c67366004614460565b612377565b348015610c7857600080fd5b5061019354610454906001600160a01b031681565b6103b1610c9b366004614460565b6123cf565b6000610cb56101f8546001600160a01b031690565b905090565b8060008080808080808080610cce8a611355565b9650610cd98b611eb5565b60008c81526101616020526040812080546005820154600683015460078401546001600160a01b039093169e50949a509850929650919450610d1a8d611695565b90506002816007811115610d3057610d30614b31565b1493506007816007811115610d4757610d47614b31565b14925050509193959799509193959799565b6000610d648261263e565b92915050565b600080610e0e610e067fb3b3f3b703cd84ce352197dcff232b1b5d3cfb2025ce47cf04742d0651f1af888c8c8c8c604051610da6929190615046565b60405180910390208b80519060200120604051602001610deb959493929190948552602085019390935260ff9190911660408401526060830152608082015260a00190565b60405160208183030381529060405280519060200120612663565b8686866126b1565b9050610e548a828b8b8b8080601f0160208091040260200160405190810160405280939291908181526020018383808284376000920191909152508d92506126cf915050565b9a9950505050505050505050565b610e6a610ca0565b6001600160a01b0316336001600160a01b031614610ea35760405162461bcd60e51b8152600401610e9a90615056565b60405180910390fd5b30610eac610ca0565b6001600160a01b031614610eef5760008036604051610ecc929190615046565b604051809103902090505b80610ee3610131612831565b14610eed57610ed7565b505b610ef8816128b0565b50565b606061012f8054610f0b9061508d565b80601f0160208091040260200160405190810160405280929190818152602001828054610f379061508d565b8015610f845780601f10610f5957610100808354040283529160200191610f84565b820191906000526020600020905b815481529060010190602001808311610f6757829003601f168201915b5050505050905090565b600054610100900460ff1615808015610fae5750600054600160ff909116105b80610fc85750303b158015610fc8575060005460ff166001145b61102b5760405162461bcd60e51b815260206004820152602e60248201527f496e697469616c697a61626c653a20636f6e747261637420697320616c72656160448201526d191e481a5b9a5d1a585b1a5e995960921b6064820152608401610e9a565b6000805460ff19166001179055801561104e576000805461ff0019166101001790555b6001600160a01b0385161580159061106e57506001600160a01b03841615155b801561108257506001600160a01b03831615155b6040518060400160405280600381526020016203130360ec1b815250906110bc5760405162461bcd60e51b8152600401610e9a91906146b1565b5061022a80546001600160a01b038088166001600160a01b03199283161790925561022b805487841690831617905561022c8054928616929091169190911790556101f461022d55606461022e556119af6102305561b3cb61022f55611121866129ff565b611129612a56565b61113283612a7f565b61113c6032612aaf565b61114582612adf565b801561118b576000805461ff0019169055604051600181527f7f26b83ff96e1f2b6a682f133852f6798a09c465da95921460cefb38474024989060200160405180910390a15b505050505050565b600061271061022c60009054906101000a90046001600160a01b03166001600160a01b03166318160ddd6040518163ffffffff1660e01b8152600401602060405180830381865afa1580156111ec573d6000803e3d6000fd5b505050506040513d601f19601f8201168201806040525081019061121091906150c8565b61022e5461121e91906150f7565b610cb59190615116565b60008061123786868686611ffa565b9050600061124482611695565b9050600481600781111561125a5761125a614b31565b14806112775750600581600781111561127557611275614b31565b145b6112cd5760405162461bcd60e51b815260206004820152602160248201527f476f7665726e6f723a2070726f706f73616c206e6f74207375636365737366756044820152601b60fa1b6064820152608401610e9a565b6000828152610130602052604090819020600201805460ff19166001179055517f712ae1383f79ac853f8d882153778e0260ef8f03b504e2866e0593e04d2b291f9061131c9084815260200190565b60405180910390a16113318288888888612b0f565b61133e8288888888612bb1565b61134b8288888888612bbe565b5095945050505050565b6000818152610130602090815260408083208151928301909152546001600160401b0316908190525b6001600160401b031692915050565b606080606080600061016160008781526020019081526020016000209050806001018160020182600301836004018380548060200260200160405190810160405280929190818152602001828054801561141057602002820191906000526020600020905b81546001600160a01b031681526001909101906020018083116113f2575b505050505093508280548060200260200160405190810160405280929190818152602001828054801561146257602002820191906000526020600020905b81548152602001906001019080831161144e575b5050505050925081805480602002602001604051908101604052809291908181526020016000905b828210156115365783829060005260206000200180546114a99061508d565b80601f01602080910402602001604051908101604052809291908181526020018280546114d59061508d565b80156115225780601f106114f757610100808354040283529160200191611522565b820191906000526020600020905b81548152906001019060200180831161150557829003601f168201915b50505050508152602001906001019061148a565b50505050915080805480602002602001604051908101604052809291908181526020016000905b8282101561160957838290600052602060002001805461157c9061508d565b80601f01602080910402602001604051908101604052809291908181526020018280546115a89061508d565b80156115f55780601f106115ca576101008083540402835291602001916115f5565b820191906000526020600020905b8154815290600101906020018083116115d857829003601f168201915b50505050508152602001906001019061155d565b5050505090509450945094509450509193509193565b604080517f150214d74d59b7d1e90c73fc22ef3d991dd0a76b046543d4d80ab92d2a50328f602082015290810186905260ff85166060820152600090819061166d90610e0690608001610deb565b905061168a87828860405180602001604052806000815250612bf9565b979650505050505050565b6000610d6482612c1c565b60008181526101616020526040902080546001600160a01b0316336001600160a01b031614806116ef57506116d3611e2a565b81546116ed906001600160a01b0316610bda600143615138565b105b61174b5760405162461bcd60e51b815260206004820152602760248201527f476f7665726e6f72427261766f3a2070726f706f7365722061626f76652074686044820152661c995cda1bdb1960ca1b6064820152608401610e9a565b6119b4816001018054806020026020016040519081016040528092919081815260200182805480156117a657602002820191906000526020600020905b81546001600160a01b03168152600190910190602001808311611788575b5050505050826002018054806020026020016040519081016040528092919081815260200182805480156117f957602002820191906000526020600020905b8154815260200190600101908083116117e5575b50505050506119aa84600301805480602002602001604051908101604052809291908181526020016000905b828210156118d15783829060005260206000200180546118449061508d565b80601f01602080910402602001604051908101604052809291908181526020018280546118709061508d565b80156118bd5780601f10611892576101008083540402835291602001916118bd565b820191906000526020600020905b8154815290600101906020018083116118a057829003601f168201915b505050505081526020019060010190611825565b50505060048701805460408051602080840282018101909252828152935060009084015b828210156119a15783829060005260206000200180546119149061508d565b80601f01602080910402602001604051908101604052809291908181526020018280546119409061508d565b801561198d5780601f106119625761010080835404028352916020019161198d565b820191906000526020600020905b81548152906001019060200180831161197057829003601f168201915b5050505050815260200190600101906118f5565b50505050612d69565b8460090154612e9b565b505050565b61022a5460408051808201909152600381526231303160e81b6020820152906001600160a01b03163314611a005760405162461bcd60e51b8152600401610e9a91906146b1565b5061022c546001600160a01b03828116911614610ef85761022c80546001600160a01b0383166001600160a01b031991821681179092556101938054909116909117905550565b600080339050611a6884828560405180602001604052806000815250612bf9565b949350505050565b60008033905061168a87828888888080601f0160208091040260200160405190810160405280939291908181526020018383808284376000920191909152508a92506126cf915050565b6101c75460009080611ad15750506101c654919050565b60006101c7611ae1600184615138565b81548110611af157611af161514f565b60009182526020918290206040805180820190915291015463ffffffff8116808352600160201b9091046001600160e01b03169282019290925291508410611b4757602001516001600160e01b03169392505050565b611a686101c785612ea9565b600080339050611b9b86828787878080601f016020809104026020016040519081016040528093929190818152602001838380828437600092019190915250612bf992505050565b9695505050505050565b6000611bb385858585612f69565b95945050505050565b61022a546001600160a01b031633148015611bdf57506001600160a01b03811615155b6040518060400160405280600381526020016231303160e81b81525090611c195760405162461bcd60e51b8152600401610e9a91906146b1565b5061022a546001600160a01b03828116911614610ef85761022a80546001600160a01b0383166001600160a01b031990911617905550565b6000611c5e848484612fd1565b90505b9392505050565b6101c75460009015611c8d57611c7f6101c7613048565b6001600160e01b0316905090565b506101c65490565b611c9d610ca0565b6001600160a01b0316336001600160a01b031614611ccd5760405162461bcd60e51b8152600401610e9a90615056565b30611cd6610ca0565b6001600160a01b031614611d195760008036604051611cf6929190615046565b604051809103902090505b80611d0d610131612831565b14611d1757611d01565b505b610ef881613081565b61022a5460408051808201909152600381526231303160e81b6020820152906001600160a01b03163314611d695760405162461bcd60e51b8152600401610e9a91906146b1565b508061022e5414610ef85761022e55565b61022a5460408051808201909152600381526231303160e81b6020820152906001600160a01b03163314611dc15760405162461bcd60e51b8152600401610e9a91906146b1565b508061022f5414610ef85761022f55565b61022a5460408051808201909152600381526231303160e81b6020820152906001600160a01b03163314611e195760405162461bcd60e51b8152600401610e9a91906146b1565b50806102305414610ef85761023055565b600061271061022c60009054906101000a90046001600160a01b03166001600160a01b03166318160ddd6040518163ffffffff1660e01b8152600401602060405180830381865afa158015611e83573d6000803e3d6000fd5b505050506040513d601f19601f82011682018060405250810190611ea791906150c8565b61022d5461121e91906150f7565b6000818152610130602090815260408083208151928301909152600101546001600160401b03169081905261137e565b611eed610ca0565b6001600160a01b0316336001600160a01b031614611f1d5760405162461bcd60e51b8152600401610e9a90615056565b30611f26610ca0565b6001600160a01b031614611f695760008036604051611f46929190615046565b604051809103902090505b80611f5d610131612831565b14611f6757611f51565b505b600080856001600160a01b0316858585604051611f87929190615046565b60006040518083038185875af1925050503d8060008114611fc4576040519150601f19603f3d011682016040523d82523d6000602084013e611fc9565b606091505b5091509150611ff1828260405180606001604052806028815260200161544d602891396130ec565b50505050505050565b6000848484846040516020016120139493929190615165565b60408051601f19818403018152919052805160209091012095945050505050565b6000612044338787878787613105565b611b9b86866120538787612d69565b85611ba5565b6000818152610161602090815260409182902060018101805484518185028101850190955280855291936119b4939092908301828280156120c357602002820191906000526020600020905b81546001600160a01b031681526001909101906020018083116120a5575b50505050508260020180548060200260200160405190810160405280929190818152602001828054801561211657602002820191906000526020600020905b815481526020019060010190808311612102575b50505050506122be84600301805480602002602001604051908101604052809291908181526020016000905b828210156121ee5783829060005260206000200180546121619061508d565b80601f016020809104026020016040519081016040528092919081815260200182805461218d9061508d565b80156121da5780601f106121af576101008083540402835291602001916121da565b820191906000526020600020905b8154815290600101906020018083116121bd57829003601f168201915b505050505081526020019060010190612142565b50505060048701805460408051602080840282018101909252828152935060009084015b828210156119a15783829060005260206000200180546122319061508d565b80601f016020809104026020016040519081016040528092919081815260200182805461225d9061508d565b80156122aa5780601f1061227f576101008083540402835291602001916122aa565b820191906000526020600020905b81548152906001019060200180831161228d57829003601f168201915b505050505081526020019060010190612212565b50600092915050565b6000611c6183836122e360408051602081019091526000815290565b612fd1565b600060646122f583611aba565b61019354604051632394e7a360e21b8152600481018690526001600160a01b0390911690638e539e8c90602401602060405180830381865afa15801561233f573d6000803e3d6000fd5b505050506040513d601f19601f8201168201806040525081019061236391906150c8565b61236d91906150f7565b610d649190615116565b61022a5460408051808201909152600381526231303160e81b6020820152906001600160a01b031633146123be5760405162461bcd60e51b8152600401610e9a91906146b1565b508061022d5414610ef85761022d55565b6000818152610161602090815260409182902060018101805484518185028101850190955280855291936119b49390929083018282801561243957602002820191906000526020600020905b81546001600160a01b0316815260019091019060200180831161241b575b50505050508260020180548060200260200160405190810160405280929190818152602001828054801561248c57602002820191906000526020600020905b815481526020019060010190808311612478575b505050505061263484600301805480602002602001604051908101604052809291908181526020016000905b828210156125645783829060005260206000200180546124d79061508d565b80601f01602080910402602001604051908101604052809291908181526020018280546125039061508d565b80156125505780601f1061252557610100808354040283529160200191612550565b820191906000526020600020905b81548152906001019060200180831161253357829003601f168201915b5050505050815260200190600101906124b8565b50505060048701805460408051602080840282018101909252828152935060009084015b828210156119a15783829060005260206000200180546125a79061508d565b80601f01602080910402602001604051908101604052809291908181526020018280546125d39061508d565b80156126205780601f106125f557610100808354040283529160200191612620565b820191906000526020600020905b81548152906001019060200180831161260357829003601f168201915b505050505081526020019060010190612588565b8460090154611228565b60006001600160e01b03198216636e665ced60e01b1480610d645750610d64826131c3565b6000610d6461267061322e565b8360405161190160f01b6020820152602281018390526042810182905260009060620160405160208183030381529060405280519060200120905092915050565b60008060006126c2878787876132a9565b9150915061134b8161336d565b60008581526101306020526040812060016126e988611695565b60078111156126fa576126fa614b31565b146127535760405162461bcd60e51b815260206004820152602360248201527f476f7665726e6f723a20766f7465206e6f742063757272656e746c792061637460448201526269766560e81b6064820152608401610e9a565b604080516020810190915281546001600160401b03169081905260009061277c90889086612fd1565b905061278b88888884886134bb565b83516127dd57866001600160a01b03167fb8e138887d0aa13bab447e82de9d5c1777041ecd21ca36ba824ff1e6c07ddda4898884896040516127d094939291906151b0565b60405180910390a261168a565b866001600160a01b03167fe2babfbac5889a709b63bb7f598b324e08bc5a4fb9ec647fb3cbc9ec07eb8712898884898960405161281e9594939291906151d8565b60405180910390a2979650505050505050565b600061284c8254600f81810b600160801b909204900b131590565b1561286a57604051631ed9509560e11b815260040160405180910390fd5b508054600f0b6000818152600180840160205260408220805492905583546fffffffffffffffffffffffffffffffff191692016001600160801b03169190911790915590565b60648111156129335760405162461bcd60e51b815260206004820152604360248201527f476f7665726e6f72566f74657351756f72756d4672616374696f6e3a2071756f60448201527f72756d4e756d657261746f72206f7665722071756f72756d44656e6f6d696e616064820152623a37b960e91b608482015260a401610e9a565b600061293d611c68565b9050801580159061294f57506101c754155b156129b45760408051808201909152600081526101c7906020810161297384613659565b6001600160e01b039081169091528254600181018455600093845260209384902083519490930151909116600160201b0263ffffffff909316929092179101555b6129c06101c7836136c6565b505060408051828152602081018490527f0553476bf02ef2726e8ce5ced78d63e26e602e4a2257b1f559418e24b4633997910160405180910390a15050565b600054610100900460ff16612a265760405162461bcd60e51b8152600401610e9a9061521e565b612a4d81612a486040805180820190915260018152603160f81b602082015290565b6136fc565b610ef88161373d565b600054610100900460ff16612a7d5760405162461bcd60e51b8152600401610e9a9061521e565b565b600054610100900460ff16612aa65760405162461bcd60e51b8152600401610e9a9061521e565b610ef88161377c565b600054610100900460ff16612ad65760405162461bcd60e51b8152600401610e9a9061521e565b610ef8816137c6565b600054610100900460ff16612b065760405162461bcd60e51b8152600401610e9a9061521e565b610ef8816137ed565b30612b18610ca0565b6001600160a01b031614612baa5760005b845181101561118b57306001600160a01b0316858281518110612b4e57612b4e61514f565b60200260200101516001600160a01b03161415612b9a57612b9a838281518110612b7a57612b7a61514f565b60200260200101518051906020012061013161381490919063ffffffff16565b612ba381615269565b9050612b29565b5050505050565b612baa8585858585613850565b30612bc7610ca0565b6001600160a01b031614612baa5761013154600f81810b600160801b909204900b1315612baa57600061013155612baa565b6000611bb385858585612c1760408051602081019091526000815290565b6126cf565b600080612c28836138c5565b90506004816007811115612c3e57612c3e614b31565b14612c495792915050565b60008381526101f9602052604090205480612c65575092915050565b6101f854604051632ab0f52960e01b8152600481018390526001600160a01b0390911690632ab0f52990602401602060405180830381865afa158015612caf573d6000803e3d6000fd5b505050506040513d601f19601f82011682018060405250810190612cd39190615284565b15612ce2575060079392505050565b6101f854604051632c258a9f60e11b8152600481018390526001600160a01b039091169063584b153e90602401602060405180830381865afa158015612d2c573d6000803e3d6000fd5b505050506040513d601f19601f82011682018060405250810190612d509190615284565b15612d5f575060059392505050565b5060029392505050565b6060600082516001600160401b03811115612d8657612d866144fa565b604051908082528060200260200182016040528015612db957816020015b6060815260200190600190039081612da45790505b50905060005b8451811015612e9357848181518110612dda57612dda61514f565b602002602001015151600014612e4a57848181518110612dfc57612dfc61514f565b602002602001015180519060200120848281518110612e1d57612e1d61514f565b6020026020010151604051602001612e369291906152a6565b604051602081830303815290604052612e65565b838181518110612e5c57612e5c61514f565b60200260200101515b828281518110612e7757612e7761514f565b602002602001018190525080612e8c90615269565b9050612dbf565b509392505050565b6000611bb3858585856139d6565b6000438210612efa5760405162461bcd60e51b815260206004820181905260248201527f436865636b706f696e74733a20626c6f636b206e6f7420796574206d696e65646044820152606401610e9a565b6000612f0583613a8c565b84549091506000612f1886848385613af1565b90508015612f5357612f3d86612f2f600184615138565b600091825260209091200190565b54600160201b90046001600160e01b0316612f56565b60005b6001600160e01b03169695505050505050565b6000612fc533868686516001600160401b03811115612f8a57612f8a6144fa565b604051908082528060200260200182016040528015612fbd57816020015b6060815260200190600190039081612fa85790505b508787613105565b611bb385858585613b47565b61019354604051630748d63560e31b81526001600160a01b038581166004830152602482018590526000921690633a46b1a890604401602060405180830381865afa158015613024573d6000803e3d6000fd5b505050506040513d601f19601f82011682018060405250810190611c5e91906150c8565b805460009080156130785761306283612f2f600184615138565b54600160201b90046001600160e01b0316611c61565b60009392505050565b6101f854604080516001600160a01b03928316815291831660208301527f08f74ea46ef7894f65eabfb5e6e695de773a000b47c529ab559178069b226401910160405180910390a16101f880546001600160a01b0319166001600160a01b0392909216919091179055565b606083156130fb575081611c61565b611c618383613e0f565b805160208201206000613123878761311d8888612d69565b85611ffa565b6000818152610161602052604090206009810154919250906131b85780546001600160a01b0319166001600160a01b038a16178155875161316d90600183019060208b0190614216565b50865161318390600283019060208a0190614277565b50855161319990600383019060208901906142b2565b5084516131af906004830190602088019061430b565b50600981018390555b505050505050505050565b60006001600160e01b0319821663bf26d89760e01b14806131f457506001600160e01b031982166379dd796f60e01b145b8061320f57506001600160e01b03198216630271189760e51b145b80610d6457506301ffc9a760e01b6001600160e01b0319831614610d64565b6000610cb57f8b73c3c69bb8fe3d512ecc4cf759cc79239f7b179b0ffacaa9a75d522b39400f61325d60655490565b6066546040805160208101859052908101839052606081018290524660808201523060a082015260009060c0016040516020818303038152906040528051906020012090509392505050565b6000807f7fffffffffffffffffffffffffffffff5d576e7357a4501ddfe92f46681b20a08311156132e05750600090506003613364565b6040805160008082526020820180845289905260ff881692820192909252606081018690526080810185905260019060a0016020604051602081039080840390855afa158015613334573d6000803e3d6000fd5b5050604051601f1901519150506001600160a01b03811661335d57600060019250925050613364565b9150600090505b94509492505050565b600081600481111561338157613381614b31565b141561338a5750565b600181600481111561339e5761339e614b31565b14156133ec5760405162461bcd60e51b815260206004820152601860248201527f45434453413a20696e76616c6964207369676e617475726500000000000000006044820152606401610e9a565b600281600481111561340057613400614b31565b141561344e5760405162461bcd60e51b815260206004820152601f60248201527f45434453413a20696e76616c6964207369676e6174757265206c656e677468006044820152606401610e9a565b600381600481111561346257613462614b31565b1415610ef85760405162461bcd60e51b815260206004820152602260248201527f45434453413a20696e76616c6964207369676e6174757265202773272076616c604482015261756560f01b6064820152608401610e9a565b6000858152610161602090815260408083206001600160a01b038816845260088101909252909120805460ff161561354b5760405162461bcd60e51b815260206004820152602d60248201527f476f7665726e6f72436f6d7061746962696c697479427261766f3a20766f746560448201526c08185b1c9958591e4818d85cdd609a1b6064820152608401610e9a565b805460ff86166101000261ffff1990911617600117815561356b84613e39565b81546001600160601b039190911662010000026dffffffffffffffffffffffff00001990911617815560ff85166135bb57838260060160008282546135b091906152d7565b90915550611ff19050565b60ff8516600114156135db57838260050160008282546135b091906152d7565b60ff8516600214156135fb57838260070160008282546135b091906152d7565b60405162461bcd60e51b815260206004820152602d60248201527f476f7665726e6f72436f6d7061746962696c697479427261766f3a20696e766160448201526c6c696420766f7465207479706560981b6064820152608401610e9a565b60006001600160e01b038211156136c25760405162461bcd60e51b815260206004820152602760248201527f53616665436173743a2076616c756520646f65736e27742066697420696e20326044820152663234206269747360c81b6064820152608401610e9a565b5090565b6000806136e4846136d643613a8c565b6136df86613659565b613ea1565b6001600160e01b0391821693501690505b9250929050565b600054610100900460ff166137235760405162461bcd60e51b8152600401610e9a9061521e565b815160209283012081519190920120606591909155606655565b600054610100900460ff166137645760405162461bcd60e51b8152600401610e9a9061521e565b80516137789061012f906020840190614364565b5050565b600054610100900460ff166137a35760405162461bcd60e51b8152600401610e9a9061521e565b61019380546001600160a01b0319166001600160a01b0392909216919091179055565b600054610100900460ff16610eef5760405162461bcd60e51b8152600401610e9a9061521e565b600054610100900460ff16611d195760405162461bcd60e51b8152600401610e9a9061521e565b8154600160801b90819004600f0b6000818152600180860160205260409091209390935583546001600160801b03908116939091011602179055565b6101f85460405163e38335e560e01b81526001600160a01b039091169063e38335e590349061388c9088908890889060009089906004016152ef565b6000604051808303818588803b1580156138a557600080fd5b505af11580156138b9573d6000803e3d6000fd5b50505050505050505050565b600081815261013060205260408120600281015460ff16156138ea5750600792915050565b6002810154610100900460ff16156139055750600292915050565b600061391084611355565b90508061395f5760405162461bcd60e51b815260206004820152601d60248201527f476f7665726e6f723a20756e6b6e6f776e2070726f706f73616c2069640000006044820152606401610e9a565b438110613970575060009392505050565b600061397b85611eb5565b905043811061398f57506001949350505050565b6139988561404b565b80156139bb57506000858152610161602052604090206006810154600590910154115b156139cb57506004949350505050565b506003949350505050565b6000806139e586868686614074565b60008181526101f9602052604090205490915015611bb3576101f85460008281526101f960205260409081902054905163c4d252f560e01b81526001600160a01b039092169163c4d252f591613a419160040190815260200190565b600060405180830381600087803b158015613a5b57600080fd5b505af1158015613a6f573d6000803e3d6000fd5b50505060008281526101f960205260408120555095945050505050565b600063ffffffff8211156136c25760405162461bcd60e51b815260206004820152602660248201527f53616665436173743a2076616c756520646f65736e27742066697420696e203360448201526532206269747360d01b6064820152608401610e9a565b60005b81831015612e93576000613b088484614193565b60008781526020902090915063ffffffff86169082015463ffffffff161115613b3357809250613b41565b613b3e8160016152d7565b93505b50613af4565b6000613b51611e2a565b613b6033610bda600143615138565b1015613bc85760405162461bcd60e51b815260206004820152603160248201527f476f7665726e6f723a2070726f706f73657220766f7465732062656c6f7720706044820152701c9bdc1bdcd85b081d1a1c995cda1bdb19607a1b6064820152608401610e9a565b6000613bdd8686868680519060200120611ffa565b90508451865114613c005760405162461bcd60e51b8152600401610e9a9061533d565b8351865114613c215760405162461bcd60e51b8152600401610e9a9061533d565b6000865111613c725760405162461bcd60e51b815260206004820152601860248201527f476f7665726e6f723a20656d7074792070726f706f73616c00000000000000006044820152606401610e9a565b60008181526101306020908152604091829020825191820190925281546001600160401b03169081905215613cf35760405162461bcd60e51b815260206004820152602160248201527f476f7665726e6f723a2070726f706f73616c20616c72656164792065786973746044820152607360f81b6064820152608401610e9a565b6000613d07613d026102305490565b6141ae565b613d10436141ae565b613d1a919061537e565b90506000613d2b613d0261022f5490565b613d35908361537e565b835467ffffffffffffffff19166001600160401b038416178455905060018301805467ffffffffffffffff19166001600160401b0383161790557f7d84a6263ae0d98d3329bd7b46bb4e8d6f98cd35a7adb45c274c8b7fd5ebd5e084338b8b8d516001600160401b03811115613dad57613dad6144fa565b604051908082528060200260200182016040528015613de057816020015b6060815260200190600190039081613dcb5790505b508c88888e604051613dfa999897969594939291906153a9565b60405180910390a15091979650505050505050565b815115613e1f5781518083602001fd5b8060405162461bcd60e51b8152600401610e9a91906146b1565b60006001600160601b038211156136c25760405162461bcd60e51b815260206004820152602660248201527f53616665436173743a2076616c756520646f65736e27742066697420696e203960448201526536206269747360d01b6064820152608401610e9a565b825460009081908015613fee576000613ebf87612f2f600185615138565b60408051808201909152905463ffffffff808216808452600160201b9092046001600160e01b031660208401529192509087161015613f405760405162461bcd60e51b815260206004820152601760248201527f436865636b706f696e743a20696e76616c6964206b65790000000000000000006044820152606401610e9a565b8563ffffffff16816000015163ffffffff161415613f8f5784613f6888612f2f600186615138565b80546001600160e01b0392909216600160201b0263ffffffff909216919091179055613fde565b6040805180820190915263ffffffff80881682526001600160e01b0380881660208085019182528b54600181018d5560008d81529190912094519151909216600160201b029216919091179101555b6020015192508391506140439050565b50506040805180820190915263ffffffff80851682526001600160e01b0380851660208085019182528854600181018a5560008a815291822095519251909316600160201b0291909316179201919091559050815b935093915050565b600081815261016160205260408120600581015461406b610c4785611355565b11159392505050565b60008061408386868686611ffa565b9050600061409082611695565b905060028160078111156140a6576140a6614b31565b141580156140c6575060068160078111156140c3576140c3614b31565b14155b80156140e4575060078160078111156140e1576140e1614b31565b14155b6141305760405162461bcd60e51b815260206004820152601d60248201527f476f7665726e6f723a2070726f706f73616c206e6f74206163746976650000006044820152606401610e9a565b6000828152610130602052604090819020600201805461ff001916610100179055517f789cf55be980739dad1d0699b93b58e806b51c9d96619bfa8fe0a28abaa7b30c906141819084815260200190565b60405180910390a15095945050505050565b60006141a26002848418615116565b611c61908484166152d7565b60006001600160401b038211156136c25760405162461bcd60e51b815260206004820152602660248201527f53616665436173743a2076616c756520646f65736e27742066697420696e203660448201526534206269747360d01b6064820152608401610e9a565b82805482825590600052602060002090810192821561426b579160200282015b8281111561426b57825182546001600160a01b0319166001600160a01b03909116178255602090920191600190910190614236565b506136c29291506143d7565b82805482825590600052602060002090810192821561426b579160200282015b8281111561426b578251825591602001919060010190614297565b8280548282559060005260206000209081019282156142ff579160200282015b828111156142ff57825180516142ef918491602090910190614364565b50916020019190600101906142d2565b506136c29291506143ec565b828054828255906000526020600020908101928215614358579160200282015b828111156143585782518051614348918491602090910190614364565b509160200191906001019061432b565b506136c2929150614409565b8280546143709061508d565b90600052602060002090601f016020900481019282614392576000855561426b565b82601f106143ab57805160ff191683800117855561426b565b8280016001018555821561426b579182018281111561426b578251825591602001919060010190614297565b5b808211156136c257600081556001016143d8565b808211156136c25760006144008282614426565b506001016143ec565b808211156136c257600061441d8282614426565b50600101614409565b5080546144329061508d565b6000825580601f10614442575050565b601f016020900490600052602060002090810190610ef891906143d7565b60006020828403121561447257600080fd5b5035919050565b60006020828403121561448b57600080fd5b81356001600160e01b031981168114611c6157600080fd5b803560ff811681146144b457600080fd5b919050565b60008083601f8401126144cb57600080fd5b5081356001600160401b038111156144e257600080fd5b6020830191508360208285010111156136f557600080fd5b634e487b7160e01b600052604160045260246000fd5b604051601f8201601f191681016001600160401b0381118282101715614538576145386144fa565b604052919050565b600082601f83011261455157600080fd5b81356001600160401b0381111561456a5761456a6144fa565b61457d601f8201601f1916602001614510565b81815284602083860101111561459257600080fd5b816020850160208301376000918101602001919091529392505050565b60008060008060008060008060e0898b0312156145cb57600080fd5b883597506145db60208a016144a3565b965060408901356001600160401b03808211156145f757600080fd5b6146038c838d016144b9565b909850965060608b013591508082111561461c57600080fd5b506146298b828c01614540565b94505061463860808a016144a3565b925060a0890135915060c089013590509295985092959890939650565b60005b83811015614670578181015183820152602001614658565b8381111561467f576000848401525b50505050565b6000815180845261469d816020860160208601614655565b601f01601f19169290920160200192915050565b602081526000611c616020830184614685565b6001600160a01b0381168114610ef857600080fd5b600080600080600060a086880312156146f157600080fd5b85356001600160401b0381111561470757600080fd5b61471388828901614540565b9550506020860135614724816146c4565b93506040860135614734816146c4565b92506060860135614744816146c4565b91506080860135614754816146c4565b809150509295509295909350565b6000806000806080858703121561477857600080fd5b8435614783816146c4565b93506020850135614793816146c4565b92506040850135915060608501356001600160401b038111156147b557600080fd5b6147c187828801614540565b91505092959194509250565b60006001600160401b038211156147e6576147e66144fa565b5060051b60200190565b600082601f83011261480157600080fd5b81356020614816614811836147cd565b614510565b82815260059290921b8401810191818101908684111561483557600080fd5b8286015b8481101561485957803561484c816146c4565b8352918301918301614839565b509695505050505050565b600082601f83011261487557600080fd5b81356020614885614811836147cd565b82815260059290921b840181019181810190868411156148a457600080fd5b8286015b8481101561485957803583529183019183016148a8565b600082601f8301126148d057600080fd5b813560206148e0614811836147cd565b82815260059290921b840181019181810190868411156148ff57600080fd5b8286015b848110156148595780356001600160401b038111156149225760008081fd5b6149308986838b0101614540565b845250918301918301614903565b6000806000806080858703121561495457600080fd5b84356001600160401b038082111561496b57600080fd5b614977888389016147f0565b9550602087013591508082111561498d57600080fd5b61499988838901614864565b945060408701359150808211156149af57600080fd5b506149bc878288016148bf565b949793965093946060013593505050565b600081518084526020808501945080840160005b83811015614a065781516001600160a01b0316875295820195908201906001016149e1565b509495945050505050565b600081518084526020808501945080840160005b83811015614a0657815187529582019590820190600101614a25565b600081518084526020808501808196508360051b8101915082860160005b85811015614a89578284038952614a77848351614685565b98850198935090840190600101614a5f565b5091979650505050505050565b608081526000614aa960808301876149cd565b8281036020840152614abb8187614a11565b90508281036040840152614acf8186614a41565b9050828103606084015261168a8185614a41565b600080600080600060a08688031215614afb57600080fd5b85359450614b0b602087016144a3565b9350614b19604087016144a3565b94979396509394606081013594506080013592915050565b634e487b7160e01b600052602160045260246000fd5b6020810160088310614b6957634e487b7160e01b600052602160045260246000fd5b91905290565b60008060408385031215614b8257600080fd5b823591506020830135614b94816146c4565b809150509250929050565b600060208284031215614bb157600080fd5b8135611c61816146c4565b60008060408385031215614bcf57600080fd5b82359150614bdf602084016144a3565b90509250929050565b600080600080600060808688031215614c0057600080fd5b85359450614c10602087016144a3565b935060408601356001600160401b0380821115614c2c57600080fd5b614c3889838a016144b9565b90955093506060880135915080821115614c5157600080fd5b50614c5e88828901614540565b9150509295509295909350565b60008060008060608587031215614c8157600080fd5b84359350614c91602086016144a3565b925060408501356001600160401b03811115614cac57600080fd5b614cb8878288016144b9565b95989497509550505050565b60008060008060808587031215614cda57600080fd5b84356001600160401b0380821115614cf157600080fd5b614cfd888389016147f0565b95506020870135915080821115614d1357600080fd5b614d1f88838901614864565b94506040870135915080821115614d3557600080fd5b614d41888389016148bf565b93506060870135915080821115614d5757600080fd5b506147c187828801614540565b600080600060608486031215614d7957600080fd5b8335614d84816146c4565b92506020840135915060408401356001600160401b03811115614da657600080fd5b614db286828701614540565b9150509250925092565b600080600080600060a08688031215614dd457600080fd5b8535614ddf816146c4565b94506020860135614def816146c4565b935060408601356001600160401b0380821115614e0b57600080fd5b614e1789838a01614864565b94506060880135915080821115614e2d57600080fd5b614e3989838a01614864565b93506080880135915080821115614c5157600080fd5b60008060008060608587031215614e6557600080fd5b8435614e70816146c4565b93506020850135925060408501356001600160401b03811115614cac57600080fd5b600082601f830112614ea357600080fd5b81356020614eb3614811836147cd565b82815260059290921b84018101918181019086841115614ed257600080fd5b8286015b848110156148595780356001600160401b03811115614ef55760008081fd5b614f038986838b0101614540565b845250918301918301614ed6565b600080600080600060a08688031215614f2957600080fd5b85356001600160401b0380821115614f4057600080fd5b614f4c89838a016147f0565b96506020880135915080821115614f6257600080fd5b614f6e89838a01614864565b95506040880135915080821115614f8457600080fd5b614f9089838a01614e92565b94506060880135915080821115614fa657600080fd5b614e3989838a016148bf565b60008060408385031215614fc557600080fd5b8235614fd0816146c4565b946020939093013593505050565b600080600080600060a08688031215614ff657600080fd5b8535615001816146c4565b94506020860135615011816146c4565b9350604086013592506060860135915060808601356001600160401b0381111561503a57600080fd5b614c5e88828901614540565b8183823760009101908152919050565b60208082526018908201527f476f7665726e6f723a206f6e6c79476f7665726e616e63650000000000000000604082015260600190565b600181811c908216806150a157607f821691505b602082108114156150c257634e487b7160e01b600052602260045260246000fd5b50919050565b6000602082840312156150da57600080fd5b5051919050565b634e487b7160e01b600052601160045260246000fd5b6000816000190483118215151615615111576151116150e1565b500290565b60008261513357634e487b7160e01b600052601260045260246000fd5b500490565b60008282101561514a5761514a6150e1565b500390565b634e487b7160e01b600052603260045260246000fd5b60808152600061517860808301876149cd565b828103602084015261518a8187614a11565b9050828103604084015261519e8186614a41565b91505082606083015295945050505050565b84815260ff84166020820152826040820152608060608201526000611b9b6080830184614685565b85815260ff8516602082015283604082015260a06060820152600061520060a0830185614685565b82810360808401526152128185614685565b98975050505050505050565b6020808252602b908201527f496e697469616c697a61626c653a20636f6e7472616374206973206e6f74206960408201526a6e697469616c697a696e6760a81b606082015260800190565b600060001982141561527d5761527d6150e1565b5060010190565b60006020828403121561529657600080fd5b81518015158114611c6157600080fd5b6001600160e01b03198316815281516000906152c9816004850160208701614655565b919091016004019392505050565b600082198211156152ea576152ea6150e1565b500190565b60a08152600061530260a08301886149cd565b82810360208401526153148188614a11565b905082810360408401526153288187614a41565b60608401959095525050608001529392505050565b60208082526021908201527f476f7665726e6f723a20696e76616c69642070726f706f73616c206c656e67746040820152600d60fb1b606082015260800190565b60006001600160401b038083168185168083038211156153a0576153a06150e1565b01949350505050565b8981526001600160a01b0389166020820152610120604082018190526000906153d48382018b6149cd565b905082810360608401526153e8818a614a11565b905082810360808401526153fc8189614a41565b905082810360a08401526154108188614a41565b6001600160401b0387811660c0860152861660e0850152838103610100850152905061543c8185614685565b9c9b50505050505050505050505056fe476f7665726e6f723a2072656c617920726576657274656420776974686f7574206d657373616765a2646970667358221220d4463b84feeb89e5a9c2fb4d3fcd6b07e0ea870a038cfbd643c3cfdcd51521f064736f6c634300080c0033",
  "linkReferences": {},
  "deployedLinkReferences": {}
}