{
  "_format": "hh-sol-artifact-1",
  "contractName": "GenDAO",
  "sourceName": "contracts/governance/GenDAO.sol",
  "abi": [
    {
      "inputs": [],
      "name": "Empty",
      "type": "error"
    },
    {
      "anonymous": false,
      "inputs": [
        {
          "indexed": false,
          "internalType": "uint8",
          "name": "version",
          "type": "uint8"
        }
      ],
      "name": "Initialized",
      "type": "event"
    },
    {
      "anonymous": false,
      "inputs": [
        {
          "indexed": false,
          "internalType": "address",
          "name": "sender",
          "type": "address"
        },
        {
          "indexed": false,
          "internalType": "uint256",
          "name": "amount",
          "type": "uint256"
        }
      ],
      "name": "PaymentReceived",
      "type": "event"
    },
    {
      "anonymous": false,
      "inputs": [
        {
          "indexed": false,
          "internalType": "uint256",
          "name": "proposalId",
          "type": "uint256"
        }
      ],
      "name": "ProposalCanceled",
      "type": "event"
    },
    {
      "anonymous": false,
      "inputs": [
        {
          "indexed": false,
          "internalType": "uint256",
          "name": "proposalId",
          "type": "uint256"
        },
        {
          "indexed": false,
          "internalType": "address",
          "name": "proposer",
          "type": "address"
        },
        {
          "indexed": false,
          "internalType": "address[]",
          "name": "targets",
          "type": "address[]"
        },
        {
          "indexed": false,
          "internalType": "uint256[]",
          "name": "values",
          "type": "uint256[]"
        },
        {
          "indexed": false,
          "internalType": "string[]",
          "name": "signatures",
          "type": "string[]"
        },
        {
          "indexed": false,
          "internalType": "bytes[]",
          "name": "calldatas",
          "type": "bytes[]"
        },
        {
          "indexed": false,
          "internalType": "uint256",
          "name": "startBlock",
          "type": "uint256"
        },
        {
          "indexed": false,
          "internalType": "uint256",
          "name": "endBlock",
          "type": "uint256"
        },
        {
          "indexed": false,
          "internalType": "string",
          "name": "description",
          "type": "string"
        }
      ],
      "name": "ProposalCreated",
      "type": "event"
    },
    {
      "anonymous": false,
      "inputs": [
        {
          "indexed": false,
          "internalType": "uint256",
          "name": "proposalId",
          "type": "uint256"
        }
      ],
      "name": "ProposalExecuted",
      "type": "event"
    },
    {
      "anonymous": false,
      "inputs": [
        {
          "indexed": false,
          "internalType": "uint256",
          "name": "proposalId",
          "type": "uint256"
        },
        {
          "indexed": false,
          "internalType": "uint256",
          "name": "eta",
          "type": "uint256"
        }
      ],
      "name": "ProposalQueued",
      "type": "event"
    },
    {
      "anonymous": false,
      "inputs": [
        {
          "indexed": false,
          "internalType": "uint256",
          "name": "oldQuorumNumerator",
          "type": "uint256"
        },
        {
          "indexed": false,
          "internalType": "uint256",
          "name": "newQuorumNumerator",
          "type": "uint256"
        }
      ],
      "name": "QuorumNumeratorUpdated",
      "type": "event"
    },
    {
      "anonymous": false,
      "inputs": [
        {
          "indexed": false,
          "internalType": "address",
          "name": "oldTimelock",
          "type": "address"
        },
        {
          "indexed": false,
          "internalType": "address",
          "name": "newTimelock",
          "type": "address"
        }
      ],
      "name": "TimelockChange",
      "type": "event"
    },
    {
      "anonymous": false,
      "inputs": [
        {
          "indexed": true,
          "internalType": "address",
          "name": "voter",
          "type": "address"
        },
        {
          "indexed": false,
          "internalType": "uint256",
          "name": "proposalId",
          "type": "uint256"
        },
        {
          "indexed": false,
          "internalType": "uint8",
          "name": "support",
          "type": "uint8"
        },
        {
          "indexed": false,
          "internalType": "uint256",
          "name": "weight",
          "type": "uint256"
        },
        {
          "indexed": false,
          "internalType": "string",
          "name": "reason",
          "type": "string"
        }
      ],
      "name": "VoteCast",
      "type": "event"
    },
    {
      "anonymous": false,
      "inputs": [
        {
          "indexed": true,
          "internalType": "address",
          "name": "voter",
          "type": "address"
        },
        {
          "indexed": false,
          "internalType": "uint256",
          "name": "proposalId",
          "type": "uint256"
        },
        {
          "indexed": false,
          "internalType": "uint8",
          "name": "support",
          "type": "uint8"
        },
        {
          "indexed": false,
          "internalType": "uint256",
          "name": "weight",
          "type": "uint256"
        },
        {
          "indexed": false,
          "internalType": "string",
          "name": "reason",
          "type": "string"
        },
        {
          "indexed": false,
          "internalType": "bytes",
          "name": "params",
          "type": "bytes"
        }
      ],
      "name": "VoteCastWithParams",
      "type": "event"
    },
    {
      "inputs": [],
      "name": "BALLOT_TYPEHASH",
      "outputs": [
        {
          "internalType": "bytes32",
          "name": "",
          "type": "bytes32"
        }
      ],
      "stateMutability": "view",
      "type": "function"
    },
    {
      "inputs": [],
      "name": "COUNTING_MODE",
      "outputs": [
        {
          "internalType": "string",
          "name": "",
          "type": "string"
        }
      ],
      "stateMutability": "pure",
      "type": "function"
    },
    {
      "inputs": [],
      "name": "EXTENDED_BALLOT_TYPEHASH",
      "outputs": [
        {
          "internalType": "bytes32",
          "name": "",
          "type": "bytes32"
        }
      ],
      "stateMutability": "view",
      "type": "function"
    },
    {
      "inputs": [],
      "name": "_admin",
      "outputs": [
        {
          "internalType": "address",
          "name": "",
          "type": "address"
        }
      ],
      "stateMutability": "view",
      "type": "function"
    },
    {
      "inputs": [],
      "name": "_paramAddr",
      "outputs": [
        {
          "internalType": "address",
          "name": "",
          "type": "address"
        }
      ],
      "stateMutability": "view",
      "type": "function"
    },
    {
      "inputs": [],
      "name": "_proposalThreshold",
      "outputs": [
        {
          "internalType": "uint256",
          "name": "",
          "type": "uint256"
        }
      ],
      "stateMutability": "view",
      "type": "function"
    },
    {
      "inputs": [],
      "name": "_quorumVote",
      "outputs": [
        {
          "internalType": "uint256",
          "name": "",
          "type": "uint256"
        }
      ],
      "stateMutability": "view",
      "type": "function"
    },
    {
      "inputs": [],
      "name": "_votingDelay",
      "outputs": [
        {
          "internalType": "uint256",
          "name": "",
          "type": "uint256"
        }
      ],
      "stateMutability": "view",
      "type": "function"
    },
    {
      "inputs": [],
      "name": "_votingPeriod",
      "outputs": [
        {
          "internalType": "uint256",
          "name": "",
          "type": "uint256"
        }
      ],
      "stateMutability": "view",
      "type": "function"
    },
    {
      "inputs": [],
      "name": "_votingToken",
      "outputs": [
        {
          "internalType": "contract IGENToken",
          "name": "",
          "type": "address"
        }
      ],
      "stateMutability": "view",
      "type": "function"
    },
    {
      "inputs": [
        {
          "internalType": "uint256",
          "name": "proposalId",
          "type": "uint256"
        }
      ],
      "name": "cancel",
      "outputs": [],
      "stateMutability": "nonpayable",
      "type": "function"
    },
    {
      "inputs": [
        {
          "internalType": "uint256",
          "name": "proposalId",
          "type": "uint256"
        },
        {
          "internalType": "uint8",
          "name": "support",
          "type": "uint8"
        }
      ],
      "name": "castVote",
      "outputs": [
        {
          "internalType": "uint256",
          "name": "",
          "type": "uint256"
        }
      ],
      "stateMutability": "nonpayable",
      "type": "function"
    },
    {
      "inputs": [
        {
          "internalType": "uint256",
          "name": "proposalId",
          "type": "uint256"
        },
        {
          "internalType": "uint8",
          "name": "support",
          "type": "uint8"
        },
        {
          "internalType": "uint8",
          "name": "v",
          "type": "uint8"
        },
        {
          "internalType": "bytes32",
          "name": "r",
          "type": "bytes32"
        },
        {
          "internalType": "bytes32",
          "name": "s",
          "type": "bytes32"
        }
      ],
      "name": "castVoteBySig",
      "outputs": [
        {
          "internalType": "uint256",
          "name": "",
          "type": "uint256"
        }
      ],
      "stateMutability": "nonpayable",
      "type": "function"
    },
    {
      "inputs": [
        {
          "internalType": "uint256",
          "name": "proposalId",
          "type": "uint256"
        },
        {
          "internalType": "uint8",
          "name": "support",
          "type": "uint8"
        },
        {
          "internalType": "string",
          "name": "reason",
          "type": "string"
        }
      ],
      "name": "castVoteWithReason",
      "outputs": [
        {
          "internalType": "uint256",
          "name": "",
          "type": "uint256"
        }
      ],
      "stateMutability": "nonpayable",
      "type": "function"
    },
    {
      "inputs": [
        {
          "internalType": "uint256",
          "name": "proposalId",
          "type": "uint256"
        },
        {
          "internalType": "uint8",
          "name": "support",
          "type": "uint8"
        },
        {
          "internalType": "string",
          "name": "reason",
          "type": "string"
        },
        {
          "internalType": "bytes",
          "name": "params",
          "type": "bytes"
        }
      ],
      "name": "castVoteWithReasonAndParams",
      "outputs": [
        {
          "internalType": "uint256",
          "name": "",
          "type": "uint256"
        }
      ],
      "stateMutability": "nonpayable",
      "type": "function"
    },
    {
      "inputs": [
        {
          "internalType": "uint256",
          "name": "proposalId",
          "type": "uint256"
        },
        {
          "internalType": "uint8",
          "name": "support",
          "type": "uint8"
        },
        {
          "internalType": "string",
          "name": "reason",
          "type": "string"
        },
        {
          "internalType": "bytes",
          "name": "params",
          "type": "bytes"
        },
        {
          "internalType": "uint8",
          "name": "v",
          "type": "uint8"
        },
        {
          "internalType": "bytes32",
          "name": "r",
          "type": "bytes32"
        },
        {
          "internalType": "bytes32",
          "name": "s",
          "type": "bytes32"
        }
      ],
      "name": "castVoteWithReasonAndParamsBySig",
      "outputs": [
        {
          "internalType": "uint256",
          "name": "",
          "type": "uint256"
        }
      ],
      "stateMutability": "nonpayable",
      "type": "function"
    },
    {
      "inputs": [
        {
          "internalType": "address",
          "name": "newAdm",
          "type": "address"
        }
      ],
      "name": "changeAdmin",
      "outputs": [],
      "stateMutability": "nonpayable",
      "type": "function"
    },
    {
      "inputs": [
        {
          "internalType": "uint256",
          "name": "_new",
          "type": "uint256"
        }
      ],
      "name": "changeProposalThreshold",
      "outputs": [],
      "stateMutability": "nonpayable",
      "type": "function"
    },
    {
      "inputs": [
        {
          "internalType": "uint256",
          "name": "_new",
          "type": "uint256"
        }
      ],
      "name": "changeQuorumVotes",
      "outputs": [],
      "stateMutability": "nonpayable",
      "type": "function"
    },
    {
      "inputs": [
        {
          "internalType": "uint256",
          "name": "_new",
          "type": "uint256"
        }
      ],
      "name": "changeVoteDelay",
      "outputs": [],
      "stateMutability": "nonpayable",
      "type": "function"
    },
    {
      "inputs": [
        {
          "internalType": "uint256",
          "name": "_new",
          "type": "uint256"
        }
      ],
      "name": "changeVotePeriod",
      "outputs": [],
      "stateMutability": "nonpayable",
      "type": "function"
    },
    {
      "inputs": [
        {
          "internalType": "contract IGENToken",
          "name": "_new",
          "type": "address"
        }
      ],
      "name": "changeVotingToken",
      "outputs": [],
      "stateMutability": "nonpayable",
      "type": "function"
    },
    {
      "inputs": [
        {
          "internalType": "address[]",
          "name": "targets",
          "type": "address[]"
        },
        {
          "internalType": "uint256[]",
          "name": "values",
          "type": "uint256[]"
        },
        {
          "internalType": "bytes[]",
          "name": "calldatas",
          "type": "bytes[]"
        },
        {
          "internalType": "bytes32",
          "name": "descriptionHash",
          "type": "bytes32"
        }
      ],
      "name": "execute",
      "outputs": [
        {
          "internalType": "uint256",
          "name": "",
          "type": "uint256"
        }
      ],
      "stateMutability": "payable",
      "type": "function"
    },
    {
      "inputs": [
        {
          "internalType": "uint256",
          "name": "proposalId",
          "type": "uint256"
        }
      ],
      "name": "execute",
      "outputs": [],
      "stateMutability": "payable",
      "type": "function"
    },
    {
      "inputs": [
        {
          "internalType": "uint256",
          "name": "proposalId",
          "type": "uint256"
        }
      ],
      "name": "getActions",
      "outputs": [
        {
          "internalType": "address[]",
          "name": "targets",
          "type": "address[]"
        },
        {
          "internalType": "uint256[]",
          "name": "values",
          "type": "uint256[]"
        },
        {
          "internalType": "string[]",
          "name": "signatures",
          "type": "string[]"
        },
        {
          "internalType": "bytes[]",
          "name": "calldatas",
          "type": "bytes[]"
        }
      ],
      "stateMutability": "view",
      "type": "function"
    },
    {
      "inputs": [
        {
          "internalType": "uint256",
          "name": "proposalId",
          "type": "uint256"
        },
        {
          "internalType": "address",
          "name": "voter",
          "type": "address"
        }
      ],
      "name": "getReceipt",
      "outputs": [
        {
          "components": [
            {
              "internalType": "bool",
              "name": "hasVoted",
              "type": "bool"
            },
            {
              "internalType": "uint8",
              "name": "support",
              "type": "uint8"
            },
            {
              "internalType": "uint96",
              "name": "votes",
              "type": "uint96"
            }
          ],
          "internalType": "struct IGovernorCompatibilityBravoUpgradeable.Receipt",
          "name": "",
          "type": "tuple"
        }
      ],
      "stateMutability": "view",
      "type": "function"
    },
    {
      "inputs": [
        {
          "internalType": "address",
          "name": "account",
          "type": "address"
        },
        {
          "internalType": "uint256",
          "name": "blockNumber",
          "type": "uint256"
        }
      ],
      "name": "getVotes",
      "outputs": [
        {
          "internalType": "uint256",
          "name": "",
          "type": "uint256"
        }
      ],
      "stateMutability": "view",
      "type": "function"
    },
    {
      "inputs": [
        {
          "internalType": "address",
          "name": "account",
          "type": "address"
        },
        {
          "internalType": "uint256",
          "name": "blockNumber",
          "type": "uint256"
        },
        {
          "internalType": "bytes",
          "name": "params",
          "type": "bytes"
        }
      ],
      "name": "getVotesWithParams",
      "outputs": [
        {
          "internalType": "uint256",
          "name": "",
          "type": "uint256"
        }
      ],
      "stateMutability": "view",
      "type": "function"
    },
    {
      "inputs": [
        {
          "internalType": "uint256",
          "name": "proposalId",
          "type": "uint256"
        },
        {
          "internalType": "address",
          "name": "account",
          "type": "address"
        }
      ],
      "name": "hasVoted",
      "outputs": [
        {
          "internalType": "bool",
          "name": "",
          "type": "bool"
        }
      ],
      "stateMutability": "view",
      "type": "function"
    },
    {
      "inputs": [
        {
          "internalType": "address[]",
          "name": "targets",
          "type": "address[]"
        },
        {
          "internalType": "uint256[]",
          "name": "values",
          "type": "uint256[]"
        },
        {
          "internalType": "bytes[]",
          "name": "calldatas",
          "type": "bytes[]"
        },
        {
          "internalType": "bytes32",
          "name": "descriptionHash",
          "type": "bytes32"
        }
      ],
      "name": "hashProposal",
      "outputs": [
        {
          "internalType": "uint256",
          "name": "",
          "type": "uint256"
        }
      ],
      "stateMutability": "pure",
      "type": "function"
    },
    {
      "inputs": [
        {
          "internalType": "string",
          "name": "name",
          "type": "string"
        },
        {
          "internalType": "address",
          "name": "admin",
          "type": "address"
        },
        {
          "internalType": "address",
          "name": "paramAddr",
          "type": "address"
        },
        {
          "internalType": "contract IGENToken",
          "name": "votingToken",
          "type": "address"
        },
        {
          "internalType": "contract TimelockControllerUpgradeable",
          "name": "timelock",
          "type": "address"
        }
      ],
      "name": "initialize",
      "outputs": [],
      "stateMutability": "nonpayable",
      "type": "function"
    },
    {
      "inputs": [],
      "name": "name",
      "outputs": [
        {
          "internalType": "string",
          "name": "",
          "type": "string"
        }
      ],
      "stateMutability": "view",
      "type": "function"
    },
    {
      "inputs": [
        {
          "internalType": "address",
          "name": "",
          "type": "address"
        },
        {
          "internalType": "address",
          "name": "",
          "type": "address"
        },
        {
          "internalType": "uint256[]",
          "name": "",
          "type": "uint256[]"
        },
        {
          "internalType": "uint256[]",
          "name": "",
          "type": "uint256[]"
        },
        {
          "internalType": "bytes",
          "name": "",
          "type": "bytes"
        }
      ],
      "name": "onERC1155BatchReceived",
      "outputs": [
        {
          "internalType": "bytes4",
          "name": "",
          "type": "bytes4"
        }
      ],
      "stateMutability": "nonpayable",
      "type": "function"
    },
    {
      "inputs": [
        {
          "internalType": "address",
          "name": "",
          "type": "address"
        },
        {
          "internalType": "address",
          "name": "",
          "type": "address"
        },
        {
          "internalType": "uint256",
          "name": "",
          "type": "uint256"
        },
        {
          "internalType": "uint256",
          "name": "",
          "type": "uint256"
        },
        {
          "internalType": "bytes",
          "name": "",
          "type": "bytes"
        }
      ],
      "name": "onERC1155Received",
      "outputs": [
        {
          "internalType": "bytes4",
          "name": "",
          "type": "bytes4"
        }
      ],
      "stateMutability": "nonpayable",
      "type": "function"
    },
    {
      "inputs": [
        {
          "internalType": "address",
          "name": "",
          "type": "address"
        },
        {
          "internalType": "address",
          "name": "",
          "type": "address"
        },
        {
          "internalType": "uint256",
          "name": "",
          "type": "uint256"
        },
        {
          "internalType": "bytes",
          "name": "",
          "type": "bytes"
        }
      ],
      "name": "onERC721Received",
      "outputs": [
        {
          "internalType": "bytes4",
          "name": "",
          "type": "bytes4"
        }
      ],
      "stateMutability": "nonpayable",
      "type": "function"
    },
    {
      "inputs": [
        {
          "internalType": "uint256",
          "name": "proposalId",
          "type": "uint256"
        }
      ],
      "name": "proposalDeadline",
      "outputs": [
        {
          "internalType": "uint256",
          "name": "",
          "type": "uint256"
        }
      ],
      "stateMutability": "view",
      "type": "function"
    },
    {
      "inputs": [
        {
          "internalType": "uint256",
          "name": "",
          "type": "uint256"
        }
      ],
      "name": "proposalEta",
      "outputs": [
        {
          "internalType": "uint256",
          "name": "",
          "type": "uint256"
        }
      ],
      "stateMutability": "pure",
      "type": "function"
    },
    {
      "inputs": [
        {
          "internalType": "uint256",
          "name": "proposalId",
          "type": "uint256"
        }
      ],
      "name": "proposalSnapshot",
      "outputs": [
        {
          "internalType": "uint256",
          "name": "",
          "type": "uint256"
        }
      ],
      "stateMutability": "view",
      "type": "function"
    },
    {
      "inputs": [],
      "name": "proposalThreshold",
      "outputs": [
        {
          "internalType": "uint256",
          "name": "",
          "type": "uint256"
        }
      ],
      "stateMutability": "view",
      "type": "function"
    },
    {
      "inputs": [
        {
          "internalType": "uint256",
          "name": "proposalId",
          "type": "uint256"
        }
      ],
      "name": "proposals",
      "outputs": [
        {
          "internalType": "uint256",
          "name": "id",
          "type": "uint256"
        },
        {
          "internalType": "address",
          "name": "proposer",
          "type": "address"
        },
        {
          "internalType": "uint256",
          "name": "eta",
          "type": "uint256"
        },
        {
          "internalType": "uint256",
          "name": "startBlock",
          "type": "uint256"
        },
        {
          "internalType": "uint256",
          "name": "endBlock",
          "type": "uint256"
        },
        {
          "internalType": "uint256",
          "name": "forVotes",
          "type": "uint256"
        },
        {
          "internalType": "uint256",
          "name": "againstVotes",
          "type": "uint256"
        },
        {
          "internalType": "uint256",
          "name": "abstainVotes",
          "type": "uint256"
        },
        {
          "internalType": "bool",
          "name": "canceled",
          "type": "bool"
        },
        {
          "internalType": "bool",
          "name": "executed",
          "type": "bool"
        }
      ],
      "stateMutability": "view",
      "type": "function"
    },
    {
      "inputs": [
        {
          "internalType": "address[]",
          "name": "targets",
          "type": "address[]"
        },
        {
          "internalType": "uint256[]",
          "name": "values",
          "type": "uint256[]"
        },
        {
          "internalType": "bytes[]",
          "name": "calldatas",
          "type": "bytes[]"
        },
        {
          "internalType": "string",
          "name": "description",
          "type": "string"
        }
      ],
      "name": "propose",
      "outputs": [
        {
          "internalType": "uint256",
          "name": "",
          "type": "uint256"
        }
      ],
      "stateMutability": "nonpayable",
      "type": "function"
    },
    {
      "inputs": [
        {
          "internalType": "address[]",
          "name": "targets",
          "type": "address[]"
        },
        {
          "internalType": "uint256[]",
          "name": "values",
          "type": "uint256[]"
        },
        {
          "internalType": "string[]",
          "name": "signatures",
          "type": "string[]"
        },
        {
          "internalType": "bytes[]",
          "name": "calldatas",
          "type": "bytes[]"
        },
        {
          "internalType": "string",
          "name": "description",
          "type": "string"
        }
      ],
      "name": "propose",
      "outputs": [
        {
          "internalType": "uint256",
          "name": "",
          "type": "uint256"
        }
      ],
      "stateMutability": "nonpayable",
      "type": "function"
    },
    {
      "inputs": [
        {
          "internalType": "address[]",
          "name": "",
          "type": "address[]"
        },
        {
          "internalType": "uint256[]",
          "name": "",
          "type": "uint256[]"
        },
        {
          "internalType": "bytes[]",
          "name": "",
          "type": "bytes[]"
        },
        {
          "internalType": "bytes32",
          "name": "",
          "type": "bytes32"
        }
      ],
      "name": "queue",
      "outputs": [
        {
          "internalType": "uint256",
          "name": "",
          "type": "uint256"
        }
      ],
      "stateMutability": "pure",
      "type": "function"
    },
    {
      "inputs": [
        {
          "internalType": "uint256",
          "name": "proposalId",
          "type": "uint256"
        }
      ],
      "name": "queue",
      "outputs": [],
      "stateMutability": "nonpayable",
      "type": "function"
    },
    {
      "inputs": [
        {
          "internalType": "uint256",
          "name": "blockNumber",
          "type": "uint256"
        }
      ],
      "name": "quorum",
      "outputs": [
        {
          "internalType": "uint256",
          "name": "",
          "type": "uint256"
        }
      ],
      "stateMutability": "view",
      "type": "function"
    },
    {
      "inputs": [],
      "name": "quorumDenominator",
      "outputs": [
        {
          "internalType": "uint256",
          "name": "",
          "type": "uint256"
        }
      ],
      "stateMutability": "view",
      "type": "function"
    },
    {
      "inputs": [
        {
          "internalType": "uint256",
          "name": "blockNumber",
          "type": "uint256"
        }
      ],
      "name": "quorumNumerator",
      "outputs": [
        {
          "internalType": "uint256",
          "name": "",
          "type": "uint256"
        }
      ],
      "stateMutability": "view",
      "type": "function"
    },
    {
      "inputs": [],
      "name": "quorumNumerator",
      "outputs": [
        {
          "internalType": "uint256",
          "name": "",
          "type": "uint256"
        }
      ],
      "stateMutability": "view",
      "type": "function"
    },
    {
      "inputs": [],
      "name": "quorumVotes",
      "outputs": [
        {
          "internalType": "uint256",
          "name": "",
          "type": "uint256"
        }
      ],
      "stateMutability": "view",
      "type": "function"
    },
    {
      "inputs": [
        {
          "internalType": "address",
          "name": "target",
          "type": "address"
        },
        {
          "internalType": "uint256",
          "name": "value",
          "type": "uint256"
        },
        {
          "internalType": "bytes",
          "name": "data",
          "type": "bytes"
        }
      ],
      "name": "relay",
      "outputs": [],
      "stateMutability": "payable",
      "type": "function"
    },
    {
      "inputs": [
        {
          "internalType": "uint256",
          "name": "proposalId",
          "type": "uint256"
        }
      ],
      "name": "state",
      "outputs": [
        {
          "internalType": "enum IGovernorUpgradeable.ProposalState",
          "name": "",
          "type": "uint8"
        }
      ],
      "stateMutability": "view",
      "type": "function"
    },
    {
      "inputs": [
        {
          "internalType": "bytes4",
          "name": "interfaceId",
          "type": "bytes4"
        }
      ],
      "name": "supportsInterface",
      "outputs": [
        {
          "internalType": "bool",
          "name": "",
          "type": "bool"
        }
      ],
      "stateMutability": "view",
      "type": "function"
    },
    {
      "inputs": [],
      "name": "timelock",
      "outputs": [
        {
          "internalType": "address",
          "name": "",
          "type": "address"
        }
      ],
      "stateMutability": "pure",
      "type": "function"
    },
    {
      "inputs": [],
      "name": "token",
      "outputs": [
        {
          "internalType": "contract IVotesUpgradeable",
          "name": "",
          "type": "address"
        }
      ],
      "stateMutability": "view",
      "type": "function"
    },
    {
      "inputs": [
        {
          "internalType": "uint256",
          "name": "newQuorumNumerator",
          "type": "uint256"
        }
      ],
      "name": "updateQuorumNumerator",
      "outputs": [],
      "stateMutability": "nonpayable",
      "type": "function"
    },
    {
      "inputs": [
        {
          "internalType": "contract TimelockControllerUpgradeable",
          "name": "newTimelock",
          "type": "address"
        }
      ],
      "name": "updateTimelock",
      "outputs": [],
      "stateMutability": "nonpayable",
      "type": "function"
    },
    {
      "inputs": [],
      "name": "version",
      "outputs": [
        {
          "internalType": "string",
          "name": "",
          "type": "string"
        }
      ],
      "stateMutability": "view",
      "type": "function"
    },
    {
      "inputs": [],
      "name": "votingDelay",
      "outputs": [
        {
          "internalType": "uint256",
          "name": "",
          "type": "uint256"
        }
      ],
      "stateMutability": "view",
      "type": "function"
    },
    {
      "inputs": [],
      "name": "votingPeriod",
      "outputs": [
        {
          "internalType": "uint256",
          "name": "",
          "type": "uint256"
        }
      ],
      "stateMutability": "view",
      "type": "function"
    },
    {
      "stateMutability": "payable",
      "type": "receive"
    }
  ],
  "bytecode": "0x608060405234801561001057600080fd5b506154c8806100206000396000f3fe6080604052600436106103905760003560e01c80639199907a116101dc578063d33219b411610102578063e4cdd80e116100a0578063f8ce560a1161006f578063f8ce560a14610c4a578063f9dabc5514610c6a578063fc0c546a14610c8a578063fe0d94c114610cab57600080fd5b8063e4cdd80e14610bc6578063eb9019d414610bdd578063f23a6e6114610bfd578063f4a290f714610c2957600080fd5b8063dd4e2ba5116100dc578063dd4e2ba514610a61578063ddf0b00914610aa7578063deaaa7cc14610ac7578063e23a9a5214610afb57600080fd5b8063d33219b414610a16578063da420d6c14610a2a578063da95691a14610a4157600080fd5b8063ab58fb8e1161017a578063bc197c8111610149578063bc197c8114610997578063c01f9e37146109c3578063c28bc2fa146109e3578063c59057e4146109f657600080fd5b8063ab58fb8e14610921578063b15c4a4214610942578063b3af077714610962578063b58131b01461098257600080fd5b8063a4d82225116101b6578063a4d82225146108ab578063a7713a70146108cc578063a890c910146108e1578063a8f0a82e1461090157600080fd5b80639199907a1461086057806397c3d334146108775780639a802a6d1461088b57600080fd5b8063328dd982116102c157806354fd4d501161025f5780636e3827b71161022e5780636e3827b7146107e95780637b3c71d3146108005780637d5e81e2146108205780638f2839701461084057600080fd5b806354fd4d501461075f57806356781388146107895780635f398a14146107a957806360c4247f146107c957600080fd5b80633e4f49e61161029b5780633e4f49e6146106a757806340e58ee5146106d457806343859632146106f457806354dfc2ed1461073f57600080fd5b8063328dd982146106415780633932abb1146106715780633bccf4fd1461068757600080fd5b80630b885ac31161032e57806324bc1a641161030857806324bc1a64146105c55780632656227d146105da5780632d63f693146105ed5780632fe3e2611461060d57600080fd5b80630b885ac31461053c578063150b7a021461055c578063160cbed7146105a057600080fd5b806302a251a31161036a57806302a251a3146104b857806303420181146104d857806306f3f9e6146104f857806306fdde031461051a57600080fd5b8063013cf08b146103d457806301bc45c91461044f57806301ffc9a71461048857600080fd5b366103cf57604080513381523460208201527f6ef95f06320e7a25a04a175ca677b7052bdd97131872c2192525a629f51be770910160405180910390a1005b600080fd5b3480156103e057600080fd5b506103f46103ef36600461447e565b610cbe565b604080519a8b526001600160a01b0390991660208b0152978901969096526060880194909452608087019290925260a086015260c085015260e084015215156101008301521515610120820152610140015b60405180910390f35b34801561045b57600080fd5b5061022a54610470906001600160a01b031681565b6040516001600160a01b039091168152602001610446565b34801561049457600080fd5b506104a86104a3366004614497565b610d5d565b6040519015158152602001610446565b3480156104c457600080fd5b5061022f545b604051908152602001610446565b3480156104e457600080fd5b506104ca6104f33660046145cd565b610d6e565b34801561050457600080fd5b5061051861051336600461447e565b610e66565b005b34801561052657600080fd5b5061052f610eff565b60405161044691906146cf565b34801561054857600080fd5b506105186105573660046146f7565b610f92565b34801561056857600080fd5b50610587610577366004614780565b630a85bd0160e11b949350505050565b6040516001600160e01b03199091168152602001610446565b3480156105ac57600080fd5b506104ca6105bb36600461495c565b6000949350505050565b3480156105d157600080fd5b506104ca611197565b6104ca6105e836600461495c565b611231565b3480156105f957600080fd5b506104ca61060836600461447e565b61135e565b34801561061957600080fd5b506104ca7fb3b3f3b703cd84ce352197dcff232b1b5d3cfb2025ce47cf04742d0651f1af8881565b34801561064d57600080fd5b5061066161065c36600461447e565b611396565b6040516104469493929190614ab4565b34801561067d57600080fd5b50610230546104ca565b34801561069357600080fd5b506104ca6106a2366004614b01565b611628565b3480156106b357600080fd5b506106c76106c236600461447e565b61169e565b6040516104469190614b65565b3480156106e057600080fd5b506105186106ef36600461447e565b6116a9565b34801561070057600080fd5b506104a861070f366004614b8d565b6000828152610161602090815260408083206001600160a01b038516845260080190915290205460ff1692915050565b34801561074b57600080fd5b5061051861075a366004614bbd565b6119c2565b34801561076b57600080fd5b506040805180820190915260018152603160f81b602082015261052f565b34801561079557600080fd5b506104ca6107a4366004614bda565b611a50565b3480156107b557600080fd5b506104ca6107c4366004614c06565b611a79565b3480156107d557600080fd5b506104ca6107e436600461447e565b611ac3565b3480156107f557600080fd5b506104ca61022d5481565b34801561080c57600080fd5b506104ca61081b366004614c89565b611b5c565b34801561082c57600080fd5b506104ca61083b366004614ce2565b611bae565b34801561084c57600080fd5b5061051861085b366004614bbd565b611bc5565b34801561086c57600080fd5b506104ca61022f5481565b34801561088357600080fd5b5060646104ca565b34801561089757600080fd5b506104ca6108a6366004614d82565b611c5a565b3480156108b757600080fd5b5061022c54610470906001600160a01b031681565b3480156108d857600080fd5b506104ca611c71565b3480156108ed57600080fd5b506105186108fc366004614bbd565b611c9e565b34801561090d57600080fd5b5061051861091c36600461447e565b611d2b565b34801561092d57600080fd5b506104ca61093c36600461447e565b50600090565b34801561094e57600080fd5b5061051861095d36600461447e565b611d83565b34801561096e57600080fd5b5061051861097d36600461447e565b611ddb565b34801561098e57600080fd5b506104ca611e33565b3480156109a357600080fd5b506105876109b2366004614dda565b63bc197c8160e01b95945050505050565b3480156109cf57600080fd5b506104ca6109de36600461447e565b611ebe565b6105186109f1366004614e6d565b611eee565b348015610a0257600080fd5b506104ca610a1136600461495c565b612003565b348015610a2257600080fd5b506000610470565b348015610a3657600080fd5b506104ca61022e5481565b348015610a4d57600080fd5b506104ca610a5c366004614f2f565b61203d565b348015610a6d57600080fd5b5060408051808201909152601a81527f737570706f72743d627261766f2671756f72756d3d627261766f000000000000602082015261052f565b348015610ab357600080fd5b50610518610ac236600461447e565b612062565b348015610ad357600080fd5b506104ca7f150214d74d59b7d1e90c73fc22ef3d991dd0a76b046543d4d80ab92d2a50328f81565b348015610b0757600080fd5b50610b96610b16366004614b8d565b6040805160608101825260008082526020820181905291810191909152506000918252610161602090815260408084206001600160a01b0393909316845260089092018152918190208151606081018352905460ff8082161515835261010082041693820193909352620100009092046001600160601b03169082015290565b6040805182511515815260208084015160ff1690820152918101516001600160601b031690820152606001610446565b348015610bd257600080fd5b506104ca6102305481565b348015610be957600080fd5b506104ca610bf8366004614fd0565b6122d0565b348015610c0957600080fd5b50610587610c18366004614ffc565b63f23a6e6160e01b95945050505050565b348015610c3557600080fd5b5061022b54610470906001600160a01b031681565b348015610c5657600080fd5b506104ca610c6536600461447e565b6122f1565b348015610c7657600080fd5b50610518610c8536600461447e565b612380565b348015610c9657600080fd5b5061019354610470906001600160a01b031681565b610518610cb936600461447e565b6123d8565b8060008080808080808080610cd28a61135e565b9650610cdd8b611ebe565b60008c81526101616020526040812080546005820154600683015460078401546001600160a01b039093169e50949a509850929650919450610d1e8d61169e565b90506002816007811115610d3457610d34614b4f565b1493506007816007811115610d4b57610d4b614b4f565b14925050509193959799509193959799565b6000610d6882612647565b92915050565b600080610e12610e0a7fb3b3f3b703cd84ce352197dcff232b1b5d3cfb2025ce47cf04742d0651f1af888c8c8c8c604051610daa929190615064565b60405180910390208b80519060200120604051602001610def959493929190948552602085019390935260ff9190911660408401526060830152608082015260a00190565b6040516020818303038152906040528051906020012061266c565b8686866126ba565b9050610e588a828b8b8b8080601f0160208091040260200160405190810160405280939291908181526020018383808284376000920191909152508d92506126d8915050565b9a9950505050505050505050565b610e6e61283a565b6001600160a01b0316336001600160a01b031614610ea75760405162461bcd60e51b8152600401610e9e90615074565b60405180910390fd5b30610eb061283a565b6001600160a01b031614610ef35760008036604051610ed0929190615064565b604051809103902090505b80610ee761013161284f565b14610ef157610edb565b505b610efc816128ce565b50565b606061012f8054610f0f906150ab565b80601f0160208091040260200160405190810160405280929190818152602001828054610f3b906150ab565b8015610f885780601f10610f5d57610100808354040283529160200191610f88565b820191906000526020600020905b815481529060010190602001808311610f6b57829003601f168201915b5050505050905090565b600054610100900460ff1615808015610fb25750600054600160ff909116105b80610fcc5750303b158015610fcc575060005460ff166001145b61102f5760405162461bcd60e51b815260206004820152602e60248201527f496e697469616c697a61626c653a20636f6e747261637420697320616c72656160448201526d191e481a5b9a5d1a585b1a5e995960921b6064820152608401610e9e565b6000805460ff191660011790558015611052576000805461ff0019166101001790555b6001600160a01b0385161580159061107257506001600160a01b03841615155b801561108657506001600160a01b03831615155b6040518060400160405280600381526020016203130360ec1b815250906110c05760405162461bcd60e51b8152600401610e9e91906146cf565b5061022a80546001600160a01b038088166001600160a01b03199283161790925561022b805487841690831617905561022c8054928616929091169190911790556101f461022d55606461022e556119af6102305561b3cb61022f5561112586612a1d565b61112d612a74565b61113683612a9d565b6111406032612acd565b61114982612afd565b801561118f576000805461ff0019169055604051600181527f7f26b83ff96e1f2b6a682f133852f6798a09c465da95921460cefb38474024989060200160405180910390a15b505050505050565b600061271061022c60009054906101000a90046001600160a01b03166001600160a01b03166318160ddd6040518163ffffffff1660e01b8152600401602060405180830381865afa1580156111f0573d6000803e3d6000fd5b505050506040513d601f19601f8201168201806040525081019061121491906150e6565b61022e546112229190615115565b61122c9190615134565b905090565b60008061124086868686612003565b9050600061124d8261169e565b9050600481600781111561126357611263614b4f565b14806112805750600581600781111561127e5761127e614b4f565b145b6112d65760405162461bcd60e51b815260206004820152602160248201527f476f7665726e6f723a2070726f706f73616c206e6f74207375636365737366756044820152601b60fa1b6064820152608401610e9e565b6000828152610130602052604090819020600201805460ff19166001179055517f712ae1383f79ac853f8d882153778e0260ef8f03b504e2866e0593e04d2b291f906113259084815260200190565b60405180910390a161133a8288888888612b2d565b6113478288888888612bcf565b6113548288888888612bdc565b5095945050505050565b6000818152610130602090815260408083208151928301909152546001600160401b0316908190525b6001600160401b031692915050565b606080606080600061016160008781526020019081526020016000209050806001018160020182600301836004018380548060200260200160405190810160405280929190818152602001828054801561141957602002820191906000526020600020905b81546001600160a01b031681526001909101906020018083116113fb575b505050505093508280548060200260200160405190810160405280929190818152602001828054801561146b57602002820191906000526020600020905b815481526020019060010190808311611457575b5050505050925081805480602002602001604051908101604052809291908181526020016000905b8282101561153f5783829060005260206000200180546114b2906150ab565b80601f01602080910402602001604051908101604052809291908181526020018280546114de906150ab565b801561152b5780601f106115005761010080835404028352916020019161152b565b820191906000526020600020905b81548152906001019060200180831161150e57829003601f168201915b505050505081526020019060010190611493565b50505050915080805480602002602001604051908101604052809291908181526020016000905b82821015611612578382906000526020600020018054611585906150ab565b80601f01602080910402602001604051908101604052809291908181526020018280546115b1906150ab565b80156115fe5780601f106115d3576101008083540402835291602001916115fe565b820191906000526020600020905b8154815290600101906020018083116115e157829003601f168201915b505050505081526020019060010190611566565b5050505090509450945094509450509193509193565b604080517f150214d74d59b7d1e90c73fc22ef3d991dd0a76b046543d4d80ab92d2a50328f602082015290810186905260ff85166060820152600090819061167690610e0a90608001610def565b905061169387828860405180602001604052806000815250612c17565b979650505050505050565b6000610d6882612c3a565b60008181526101616020526040902080546001600160a01b0316336001600160a01b031614806116f857506116dc611e33565b81546116f6906001600160a01b0316610bf8600143615156565b105b6117545760405162461bcd60e51b815260206004820152602760248201527f476f7665726e6f72427261766f3a2070726f706f7365722061626f76652074686044820152661c995cda1bdb1960ca1b6064820152608401610e9e565b6119bd816001018054806020026020016040519081016040528092919081815260200182805480156117af57602002820191906000526020600020905b81546001600160a01b03168152600190910190602001808311611791575b50505050508260020180548060200260200160405190810160405280929190818152602001828054801561180257602002820191906000526020600020905b8154815260200190600101908083116117ee575b50505050506119b384600301805480602002602001604051908101604052809291908181526020016000905b828210156118da57838290600052602060002001805461184d906150ab565b80601f0160208091040260200160405190810160405280929190818152602001828054611879906150ab565b80156118c65780601f1061189b576101008083540402835291602001916118c6565b820191906000526020600020905b8154815290600101906020018083116118a957829003601f168201915b50505050508152602001906001019061182e565b50505060048701805460408051602080840282018101909252828152935060009084015b828210156119aa57838290600052602060002001805461191d906150ab565b80601f0160208091040260200160405190810160405280929190818152602001828054611949906150ab565b80156119965780601f1061196b57610100808354040283529160200191611996565b820191906000526020600020905b81548152906001019060200180831161197957829003601f168201915b5050505050815260200190600101906118fe565b50505050612d87565b8460090154612eb9565b505050565b61022a5460408051808201909152600381526231303160e81b6020820152906001600160a01b03163314611a095760405162461bcd60e51b8152600401610e9e91906146cf565b5061022c546001600160a01b03828116911614610efc5761022c80546001600160a01b0383166001600160a01b031991821681179092556101938054909116909117905550565b600080339050611a7184828560405180602001604052806000815250612c17565b949350505050565b60008033905061169387828888888080601f0160208091040260200160405190810160405280939291908181526020018383808284376000920191909152508a92506126d8915050565b6101c75460009080611ada5750506101c654919050565b60006101c7611aea600184615156565b81548110611afa57611afa61516d565b60009182526020918290206040805180820190915291015463ffffffff8116808352600160201b9091046001600160e01b03169282019290925291508410611b5057602001516001600160e01b03169392505050565b611a716101c785612ec7565b600080339050611ba486828787878080601f016020809104026020016040519081016040528093929190818152602001838380828437600092019190915250612c1792505050565b9695505050505050565b6000611bbc85858585612f87565b95945050505050565b61022a546001600160a01b031633148015611be857506001600160a01b03811615155b6040518060400160405280600381526020016231303160e81b81525090611c225760405162461bcd60e51b8152600401610e9e91906146cf565b5061022a546001600160a01b03828116911614610efc5761022a80546001600160a01b0383166001600160a01b031990911617905550565b6000611c67848484612fef565b90505b9392505050565b6101c75460009015611c9657611c886101c7613066565b6001600160e01b0316905090565b506101c65490565b611ca661283a565b6001600160a01b0316336001600160a01b031614611cd65760405162461bcd60e51b8152600401610e9e90615074565b30611cdf61283a565b6001600160a01b031614611d225760008036604051611cff929190615064565b604051809103902090505b80611d1661013161284f565b14611d2057611d0a565b505b610efc8161309f565b61022a5460408051808201909152600381526231303160e81b6020820152906001600160a01b03163314611d725760405162461bcd60e51b8152600401610e9e91906146cf565b508061022e5414610efc5761022e55565b61022a5460408051808201909152600381526231303160e81b6020820152906001600160a01b03163314611dca5760405162461bcd60e51b8152600401610e9e91906146cf565b508061022f5414610efc5761022f55565b61022a5460408051808201909152600381526231303160e81b6020820152906001600160a01b03163314611e225760405162461bcd60e51b8152600401610e9e91906146cf565b50806102305414610efc5761023055565b600061271061022c60009054906101000a90046001600160a01b03166001600160a01b03166318160ddd6040518163ffffffff1660e01b8152600401602060405180830381865afa158015611e8c573d6000803e3d6000fd5b505050506040513d601f19601f82011682018060405250810190611eb091906150e6565b61022d546112229190615115565b6000818152610130602090815260408083208151928301909152600101546001600160401b031690819052611387565b611ef661283a565b6001600160a01b0316336001600160a01b031614611f265760405162461bcd60e51b8152600401610e9e90615074565b30611f2f61283a565b6001600160a01b031614611f725760008036604051611f4f929190615064565b604051809103902090505b80611f6661013161284f565b14611f7057611f5a565b505b600080856001600160a01b0316858585604051611f90929190615064565b60006040518083038185875af1925050503d8060008114611fcd576040519150601f19603f3d011682016040523d82523d6000602084013e611fd2565b606091505b5091509150611ffa828260405180606001604052806028815260200161546b6028913961310a565b50505050505050565b60008484848460405160200161201c9493929190615183565b60408051601f19818403018152919052805160209091012095945050505050565b600061204d338787878787613123565b611ba4868661205c8787612d87565b85611bae565b6000818152610161602090815260409182902060018101805484518185028101850190955280855291936119bd939092908301828280156120cc57602002820191906000526020600020905b81546001600160a01b031681526001909101906020018083116120ae575b50505050508260020180548060200260200160405190810160405280929190818152602001828054801561211f57602002820191906000526020600020905b81548152602001906001019080831161210b575b50505050506122c784600301805480602002602001604051908101604052809291908181526020016000905b828210156121f757838290600052602060002001805461216a906150ab565b80601f0160208091040260200160405190810160405280929190818152602001828054612196906150ab565b80156121e35780601f106121b8576101008083540402835291602001916121e3565b820191906000526020600020905b8154815290600101906020018083116121c657829003601f168201915b50505050508152602001906001019061214b565b50505060048701805460408051602080840282018101909252828152935060009084015b828210156119aa57838290600052602060002001805461223a906150ab565b80601f0160208091040260200160405190810160405280929190818152602001828054612266906150ab565b80156122b35780601f10612288576101008083540402835291602001916122b3565b820191906000526020600020905b81548152906001019060200180831161229657829003601f168201915b50505050508152602001906001019061221b565b50600092915050565b6000611c6a83836122ec60408051602081019091526000815290565b612fef565b600060646122fe83611ac3565b61019354604051632394e7a360e21b8152600481018690526001600160a01b0390911690638e539e8c90602401602060405180830381865afa158015612348573d6000803e3d6000fd5b505050506040513d601f19601f8201168201806040525081019061236c91906150e6565b6123769190615115565b610d689190615134565b61022a5460408051808201909152600381526231303160e81b6020820152906001600160a01b031633146123c75760405162461bcd60e51b8152600401610e9e91906146cf565b508061022d5414610efc5761022d55565b6000818152610161602090815260409182902060018101805484518185028101850190955280855291936119bd9390929083018282801561244257602002820191906000526020600020905b81546001600160a01b03168152600190910190602001808311612424575b50505050508260020180548060200260200160405190810160405280929190818152602001828054801561249557602002820191906000526020600020905b815481526020019060010190808311612481575b505050505061263d84600301805480602002602001604051908101604052809291908181526020016000905b8282101561256d5783829060005260206000200180546124e0906150ab565b80601f016020809104026020016040519081016040528092919081815260200182805461250c906150ab565b80156125595780601f1061252e57610100808354040283529160200191612559565b820191906000526020600020905b81548152906001019060200180831161253c57829003601f168201915b5050505050815260200190600101906124c1565b50505060048701805460408051602080840282018101909252828152935060009084015b828210156119aa5783829060005260206000200180546125b0906150ab565b80601f01602080910402602001604051908101604052809291908181526020018280546125dc906150ab565b80156126295780601f106125fe57610100808354040283529160200191612629565b820191906000526020600020905b81548152906001019060200180831161260c57829003601f168201915b505050505081526020019060010190612591565b8460090154611231565b60006001600160e01b03198216636e665ced60e01b1480610d685750610d68826131e1565b6000610d6861267961324c565b8360405161190160f01b6020820152602281018390526042810182905260009060620160405160208183030381529060405280519060200120905092915050565b60008060006126cb878787876132c7565b915091506113548161338b565b60008581526101306020526040812060016126f28861169e565b600781111561270357612703614b4f565b1461275c5760405162461bcd60e51b815260206004820152602360248201527f476f7665726e6f723a20766f7465206e6f742063757272656e746c792061637460448201526269766560e81b6064820152608401610e9e565b604080516020810190915281546001600160401b03169081905260009061278590889086612fef565b905061279488888884886134d9565b83516127e657866001600160a01b03167fb8e138887d0aa13bab447e82de9d5c1777041ecd21ca36ba824ff1e6c07ddda4898884896040516127d994939291906151ce565b60405180910390a2611693565b866001600160a01b03167fe2babfbac5889a709b63bb7f598b324e08bc5a4fb9ec647fb3cbc9ec07eb871289888489896040516128279594939291906151f6565b60405180910390a2979650505050505050565b600061122c6101f8546001600160a01b031690565b600061286a8254600f81810b600160801b909204900b131590565b1561288857604051631ed9509560e11b815260040160405180910390fd5b508054600f0b6000818152600180840160205260408220805492905583546fffffffffffffffffffffffffffffffff191692016001600160801b03169190911790915590565b60648111156129515760405162461bcd60e51b815260206004820152604360248201527f476f7665726e6f72566f74657351756f72756d4672616374696f6e3a2071756f60448201527f72756d4e756d657261746f72206f7665722071756f72756d44656e6f6d696e616064820152623a37b960e91b608482015260a401610e9e565b600061295b611c71565b9050801580159061296d57506101c754155b156129d25760408051808201909152600081526101c7906020810161299184613677565b6001600160e01b039081169091528254600181018455600093845260209384902083519490930151909116600160201b0263ffffffff909316929092179101555b6129de6101c7836136e4565b505060408051828152602081018490527f0553476bf02ef2726e8ce5ced78d63e26e602e4a2257b1f559418e24b4633997910160405180910390a15050565b600054610100900460ff16612a445760405162461bcd60e51b8152600401610e9e9061523c565b612a6b81612a666040805180820190915260018152603160f81b602082015290565b61371a565b610efc8161375b565b600054610100900460ff16612a9b5760405162461bcd60e51b8152600401610e9e9061523c565b565b600054610100900460ff16612ac45760405162461bcd60e51b8152600401610e9e9061523c565b610efc8161379a565b600054610100900460ff16612af45760405162461bcd60e51b8152600401610e9e9061523c565b610efc816137e4565b600054610100900460ff16612b245760405162461bcd60e51b8152600401610e9e9061523c565b610efc8161380b565b30612b3661283a565b6001600160a01b031614612bc85760005b845181101561118f57306001600160a01b0316858281518110612b6c57612b6c61516d565b60200260200101516001600160a01b03161415612bb857612bb8838281518110612b9857612b9861516d565b60200260200101518051906020012061013161383290919063ffffffff16565b612bc181615287565b9050612b47565b5050505050565b612bc8858585858561386e565b30612be561283a565b6001600160a01b031614612bc85761013154600f81810b600160801b909204900b1315612bc857600061013155612bc8565b6000611bbc85858585612c3560408051602081019091526000815290565b6126d8565b600080612c46836138e3565b90506004816007811115612c5c57612c5c614b4f565b14612c675792915050565b60008381526101f9602052604090205480612c83575092915050565b6101f854604051632ab0f52960e01b8152600481018390526001600160a01b0390911690632ab0f52990602401602060405180830381865afa158015612ccd573d6000803e3d6000fd5b505050506040513d601f19601f82011682018060405250810190612cf191906152a2565b15612d00575060079392505050565b6101f854604051632c258a9f60e11b8152600481018390526001600160a01b039091169063584b153e90602401602060405180830381865afa158015612d4a573d6000803e3d6000fd5b505050506040513d601f19601f82011682018060405250810190612d6e91906152a2565b15612d7d575060059392505050565b5060029392505050565b6060600082516001600160401b03811115612da457612da4614518565b604051908082528060200260200182016040528015612dd757816020015b6060815260200190600190039081612dc25790505b50905060005b8451811015612eb157848181518110612df857612df861516d565b602002602001015151600014612e6857848181518110612e1a57612e1a61516d565b602002602001015180519060200120848281518110612e3b57612e3b61516d565b6020026020010151604051602001612e549291906152c4565b604051602081830303815290604052612e83565b838181518110612e7a57612e7a61516d565b60200260200101515b828281518110612e9557612e9561516d565b602002602001018190525080612eaa90615287565b9050612ddd565b509392505050565b6000611bbc858585856139f4565b6000438210612f185760405162461bcd60e51b815260206004820181905260248201527f436865636b706f696e74733a20626c6f636b206e6f7420796574206d696e65646044820152606401610e9e565b6000612f2383613aaa565b84549091506000612f3686848385613b0f565b90508015612f7157612f5b86612f4d600184615156565b600091825260209091200190565b54600160201b90046001600160e01b0316612f74565b60005b6001600160e01b03169695505050505050565b6000612fe333868686516001600160401b03811115612fa857612fa8614518565b604051908082528060200260200182016040528015612fdb57816020015b6060815260200190600190039081612fc65790505b508787613123565b611bbc85858585613b65565b61019354604051630748d63560e31b81526001600160a01b038581166004830152602482018590526000921690633a46b1a890604401602060405180830381865afa158015613042573d6000803e3d6000fd5b505050506040513d601f19601f82011682018060405250810190611c6791906150e6565b805460009080156130965761308083612f4d600184615156565b54600160201b90046001600160e01b0316611c6a565b60009392505050565b6101f854604080516001600160a01b03928316815291831660208301527f08f74ea46ef7894f65eabfb5e6e695de773a000b47c529ab559178069b226401910160405180910390a16101f880546001600160a01b0319166001600160a01b0392909216919091179055565b60608315613119575081611c6a565b611c6a8383613e2d565b805160208201206000613141878761313b8888612d87565b85612003565b6000818152610161602052604090206009810154919250906131d65780546001600160a01b0319166001600160a01b038a16178155875161318b90600183019060208b0190614234565b5086516131a190600283019060208a0190614295565b5085516131b790600383019060208901906142d0565b5084516131cd9060048301906020880190614329565b50600981018390555b505050505050505050565b60006001600160e01b0319821663bf26d89760e01b148061321257506001600160e01b031982166379dd796f60e01b145b8061322d57506001600160e01b03198216630271189760e51b145b80610d6857506301ffc9a760e01b6001600160e01b0319831614610d68565b600061122c7f8b73c3c69bb8fe3d512ecc4cf759cc79239f7b179b0ffacaa9a75d522b39400f61327b60655490565b6066546040805160208101859052908101839052606081018290524660808201523060a082015260009060c0016040516020818303038152906040528051906020012090509392505050565b6000807f7fffffffffffffffffffffffffffffff5d576e7357a4501ddfe92f46681b20a08311156132fe5750600090506003613382565b6040805160008082526020820180845289905260ff881692820192909252606081018690526080810185905260019060a0016020604051602081039080840390855afa158015613352573d6000803e3d6000fd5b5050604051601f1901519150506001600160a01b03811661337b57600060019250925050613382565b9150600090505b94509492505050565b600081600481111561339f5761339f614b4f565b14156133a85750565b60018160048111156133bc576133bc614b4f565b141561340a5760405162461bcd60e51b815260206004820152601860248201527f45434453413a20696e76616c6964207369676e617475726500000000000000006044820152606401610e9e565b600281600481111561341e5761341e614b4f565b141561346c5760405162461bcd60e51b815260206004820152601f60248201527f45434453413a20696e76616c6964207369676e6174757265206c656e677468006044820152606401610e9e565b600381600481111561348057613480614b4f565b1415610efc5760405162461bcd60e51b815260206004820152602260248201527f45434453413a20696e76616c6964207369676e6174757265202773272076616c604482015261756560f01b6064820152608401610e9e565b6000858152610161602090815260408083206001600160a01b038816845260088101909252909120805460ff16156135695760405162461bcd60e51b815260206004820152602d60248201527f476f7665726e6f72436f6d7061746962696c697479427261766f3a20766f746560448201526c08185b1c9958591e4818d85cdd609a1b6064820152608401610e9e565b805460ff86166101000261ffff1990911617600117815561358984613e57565b81546001600160601b039190911662010000026dffffffffffffffffffffffff00001990911617815560ff85166135d957838260060160008282546135ce91906152f5565b90915550611ffa9050565b60ff8516600114156135f957838260050160008282546135ce91906152f5565b60ff85166002141561361957838260070160008282546135ce91906152f5565b60405162461bcd60e51b815260206004820152602d60248201527f476f7665726e6f72436f6d7061746962696c697479427261766f3a20696e766160448201526c6c696420766f7465207479706560981b6064820152608401610e9e565b60006001600160e01b038211156136e05760405162461bcd60e51b815260206004820152602760248201527f53616665436173743a2076616c756520646f65736e27742066697420696e20326044820152663234206269747360c81b6064820152608401610e9e565b5090565b600080613702846136f443613aaa565b6136fd86613677565b613ebf565b6001600160e01b0391821693501690505b9250929050565b600054610100900460ff166137415760405162461bcd60e51b8152600401610e9e9061523c565b815160209283012081519190920120606591909155606655565b600054610100900460ff166137825760405162461bcd60e51b8152600401610e9e9061523c565b80516137969061012f906020840190614382565b5050565b600054610100900460ff166137c15760405162461bcd60e51b8152600401610e9e9061523c565b61019380546001600160a01b0319166001600160a01b0392909216919091179055565b600054610100900460ff16610ef35760405162461bcd60e51b8152600401610e9e9061523c565b600054610100900460ff16611d225760405162461bcd60e51b8152600401610e9e9061523c565b8154600160801b90819004600f0b6000818152600180860160205260409091209390935583546001600160801b03908116939091011602179055565b6101f85460405163e38335e560e01b81526001600160a01b039091169063e38335e59034906138aa90889088908890600090899060040161530d565b6000604051808303818588803b1580156138c357600080fd5b505af11580156138d7573d6000803e3d6000fd5b50505050505050505050565b600081815261013060205260408120600281015460ff16156139085750600792915050565b6002810154610100900460ff16156139235750600292915050565b600061392e8461135e565b90508061397d5760405162461bcd60e51b815260206004820152601d60248201527f476f7665726e6f723a20756e6b6e6f776e2070726f706f73616c2069640000006044820152606401610e9e565b43811061398e575060009392505050565b600061399985611ebe565b90504381106139ad57506001949350505050565b6139b685614069565b80156139d957506000858152610161602052604090206006810154600590910154115b156139e957506004949350505050565b506003949350505050565b600080613a0386868686614092565b60008181526101f9602052604090205490915015611bbc576101f85460008281526101f960205260409081902054905163c4d252f560e01b81526001600160a01b039092169163c4d252f591613a5f9160040190815260200190565b600060405180830381600087803b158015613a7957600080fd5b505af1158015613a8d573d6000803e3d6000fd5b50505060008281526101f960205260408120555095945050505050565b600063ffffffff8211156136e05760405162461bcd60e51b815260206004820152602660248201527f53616665436173743a2076616c756520646f65736e27742066697420696e203360448201526532206269747360d01b6064820152608401610e9e565b60005b81831015612eb1576000613b2684846141b1565b60008781526020902090915063ffffffff86169082015463ffffffff161115613b5157809250613b5f565b613b5c8160016152f5565b93505b50613b12565b6000613b6f611e33565b613b7e33610bf8600143615156565b1015613be65760405162461bcd60e51b815260206004820152603160248201527f476f7665726e6f723a2070726f706f73657220766f7465732062656c6f7720706044820152701c9bdc1bdcd85b081d1a1c995cda1bdb19607a1b6064820152608401610e9e565b6000613bfb8686868680519060200120612003565b90508451865114613c1e5760405162461bcd60e51b8152600401610e9e9061535b565b8351865114613c3f5760405162461bcd60e51b8152600401610e9e9061535b565b6000865111613c905760405162461bcd60e51b815260206004820152601860248201527f476f7665726e6f723a20656d7074792070726f706f73616c00000000000000006044820152606401610e9e565b60008181526101306020908152604091829020825191820190925281546001600160401b03169081905215613d115760405162461bcd60e51b815260206004820152602160248201527f476f7665726e6f723a2070726f706f73616c20616c72656164792065786973746044820152607360f81b6064820152608401610e9e565b6000613d25613d206102305490565b6141cc565b613d2e436141cc565b613d38919061539c565b90506000613d49613d2061022f5490565b613d53908361539c565b835467ffffffffffffffff19166001600160401b038416178455905060018301805467ffffffffffffffff19166001600160401b0383161790557f7d84a6263ae0d98d3329bd7b46bb4e8d6f98cd35a7adb45c274c8b7fd5ebd5e084338b8b8d516001600160401b03811115613dcb57613dcb614518565b604051908082528060200260200182016040528015613dfe57816020015b6060815260200190600190039081613de95790505b508c88888e604051613e18999897969594939291906153c7565b60405180910390a15091979650505050505050565b815115613e3d5781518083602001fd5b8060405162461bcd60e51b8152600401610e9e91906146cf565b60006001600160601b038211156136e05760405162461bcd60e51b815260206004820152602660248201527f53616665436173743a2076616c756520646f65736e27742066697420696e203960448201526536206269747360d01b6064820152608401610e9e565b82546000908190801561400c576000613edd87612f4d600185615156565b60408051808201909152905463ffffffff808216808452600160201b9092046001600160e01b031660208401529192509087161015613f5e5760405162461bcd60e51b815260206004820152601760248201527f436865636b706f696e743a20696e76616c6964206b65790000000000000000006044820152606401610e9e565b8563ffffffff16816000015163ffffffff161415613fad5784613f8688612f4d600186615156565b80546001600160e01b0392909216600160201b0263ffffffff909216919091179055613ffc565b6040805180820190915263ffffffff80881682526001600160e01b0380881660208085019182528b54600181018d5560008d81529190912094519151909216600160201b029216919091179101555b6020015192508391506140619050565b50506040805180820190915263ffffffff80851682526001600160e01b0380851660208085019182528854600181018a5560008a815291822095519251909316600160201b0291909316179201919091559050815b935093915050565b6000818152610161602052604081206005810154614089610c658561135e565b11159392505050565b6000806140a186868686612003565b905060006140ae8261169e565b905060028160078111156140c4576140c4614b4f565b141580156140e4575060068160078111156140e1576140e1614b4f565b14155b8015614102575060078160078111156140ff576140ff614b4f565b14155b61414e5760405162461bcd60e51b815260206004820152601d60248201527f476f7665726e6f723a2070726f706f73616c206e6f74206163746976650000006044820152606401610e9e565b6000828152610130602052604090819020600201805461ff001916610100179055517f789cf55be980739dad1d0699b93b58e806b51c9d96619bfa8fe0a28abaa7b30c9061419f9084815260200190565b60405180910390a15095945050505050565b60006141c06002848418615134565b611c6a908484166152f5565b60006001600160401b038211156136e05760405162461bcd60e51b815260206004820152602660248201527f53616665436173743a2076616c756520646f65736e27742066697420696e203660448201526534206269747360d01b6064820152608401610e9e565b828054828255906000526020600020908101928215614289579160200282015b8281111561428957825182546001600160a01b0319166001600160a01b03909116178255602090920191600190910190614254565b506136e09291506143f5565b828054828255906000526020600020908101928215614289579160200282015b828111156142895782518255916020019190600101906142b5565b82805482825590600052602060002090810192821561431d579160200282015b8281111561431d578251805161430d918491602090910190614382565b50916020019190600101906142f0565b506136e092915061440a565b828054828255906000526020600020908101928215614376579160200282015b828111156143765782518051614366918491602090910190614382565b5091602001919060010190614349565b506136e0929150614427565b82805461438e906150ab565b90600052602060002090601f0160209004810192826143b05760008555614289565b82601f106143c957805160ff1916838001178555614289565b8280016001018555821561428957918201828111156142895782518255916020019190600101906142b5565b5b808211156136e057600081556001016143f6565b808211156136e057600061441e8282614444565b5060010161440a565b808211156136e057600061443b8282614444565b50600101614427565b508054614450906150ab565b6000825580601f10614460575050565b601f016020900490600052602060002090810190610efc91906143f5565b60006020828403121561449057600080fd5b5035919050565b6000602082840312156144a957600080fd5b81356001600160e01b031981168114611c6a57600080fd5b803560ff811681146144d257600080fd5b919050565b60008083601f8401126144e957600080fd5b5081356001600160401b0381111561450057600080fd5b60208301915083602082850101111561371357600080fd5b634e487b7160e01b600052604160045260246000fd5b604051601f8201601f191681016001600160401b038111828210171561455657614556614518565b604052919050565b600082601f83011261456f57600080fd5b81356001600160401b0381111561458857614588614518565b61459b601f8201601f191660200161452e565b8181528460208386010111156145b057600080fd5b816020850160208301376000918101602001919091529392505050565b60008060008060008060008060e0898b0312156145e957600080fd5b883597506145f960208a016144c1565b965060408901356001600160401b038082111561461557600080fd5b6146218c838d016144d7565b909850965060608b013591508082111561463a57600080fd5b506146478b828c0161455e565b94505061465660808a016144c1565b925060a0890135915060c089013590509295985092959890939650565b60005b8381101561468e578181015183820152602001614676565b8381111561469d576000848401525b50505050565b600081518084526146bb816020860160208601614673565b601f01601f19169290920160200192915050565b602081526000611c6a60208301846146a3565b6001600160a01b0381168114610efc57600080fd5b600080600080600060a0868803121561470f57600080fd5b85356001600160401b0381111561472557600080fd5b6147318882890161455e565b9550506020860135614742816146e2565b93506040860135614752816146e2565b92506060860135614762816146e2565b91506080860135614772816146e2565b809150509295509295909350565b6000806000806080858703121561479657600080fd5b84356147a1816146e2565b935060208501356147b1816146e2565b92506040850135915060608501356001600160401b038111156147d357600080fd5b6147df8782880161455e565b91505092959194509250565b60006001600160401b0382111561480457614804614518565b5060051b60200190565b600082601f83011261481f57600080fd5b8135602061483461482f836147eb565b61452e565b82815260059290921b8401810191818101908684111561485357600080fd5b8286015b8481101561487757803561486a816146e2565b8352918301918301614857565b509695505050505050565b600082601f83011261489357600080fd5b813560206148a361482f836147eb565b82815260059290921b840181019181810190868411156148c257600080fd5b8286015b8481101561487757803583529183019183016148c6565b600082601f8301126148ee57600080fd5b813560206148fe61482f836147eb565b82815260059290921b8401810191818101908684111561491d57600080fd5b8286015b848110156148775780356001600160401b038111156149405760008081fd5b61494e8986838b010161455e565b845250918301918301614921565b6000806000806080858703121561497257600080fd5b84356001600160401b038082111561498957600080fd5b6149958883890161480e565b955060208701359150808211156149ab57600080fd5b6149b788838901614882565b945060408701359150808211156149cd57600080fd5b506149da878288016148dd565b949793965093946060013593505050565b600081518084526020808501945080840160005b83811015614a245781516001600160a01b0316875295820195908201906001016149ff565b509495945050505050565b600081518084526020808501945080840160005b83811015614a2457815187529582019590820190600101614a43565b600081518084526020808501808196508360051b8101915082860160005b85811015614aa7578284038952614a958483516146a3565b98850198935090840190600101614a7d565b5091979650505050505050565b608081526000614ac760808301876149eb565b8281036020840152614ad98187614a2f565b90508281036040840152614aed8186614a5f565b905082810360608401526116938185614a5f565b600080600080600060a08688031215614b1957600080fd5b85359450614b29602087016144c1565b9350614b37604087016144c1565b94979396509394606081013594506080013592915050565b634e487b7160e01b600052602160045260246000fd5b6020810160088310614b8757634e487b7160e01b600052602160045260246000fd5b91905290565b60008060408385031215614ba057600080fd5b823591506020830135614bb2816146e2565b809150509250929050565b600060208284031215614bcf57600080fd5b8135611c6a816146e2565b60008060408385031215614bed57600080fd5b82359150614bfd602084016144c1565b90509250929050565b600080600080600060808688031215614c1e57600080fd5b85359450614c2e602087016144c1565b935060408601356001600160401b0380821115614c4a57600080fd5b614c5689838a016144d7565b90955093506060880135915080821115614c6f57600080fd5b50614c7c8882890161455e565b9150509295509295909350565b60008060008060608587031215614c9f57600080fd5b84359350614caf602086016144c1565b925060408501356001600160401b03811115614cca57600080fd5b614cd6878288016144d7565b95989497509550505050565b60008060008060808587031215614cf857600080fd5b84356001600160401b0380821115614d0f57600080fd5b614d1b8883890161480e565b95506020870135915080821115614d3157600080fd5b614d3d88838901614882565b94506040870135915080821115614d5357600080fd5b614d5f888389016148dd565b93506060870135915080821115614d7557600080fd5b506147df8782880161455e565b600080600060608486031215614d9757600080fd5b8335614da2816146e2565b92506020840135915060408401356001600160401b03811115614dc457600080fd5b614dd08682870161455e565b9150509250925092565b600080600080600060a08688031215614df257600080fd5b8535614dfd816146e2565b94506020860135614e0d816146e2565b935060408601356001600160401b0380821115614e2957600080fd5b614e3589838a01614882565b94506060880135915080821115614e4b57600080fd5b614e5789838a01614882565b93506080880135915080821115614c6f57600080fd5b60008060008060608587031215614e8357600080fd5b8435614e8e816146e2565b93506020850135925060408501356001600160401b03811115614cca57600080fd5b600082601f830112614ec157600080fd5b81356020614ed161482f836147eb565b82815260059290921b84018101918181019086841115614ef057600080fd5b8286015b848110156148775780356001600160401b03811115614f135760008081fd5b614f218986838b010161455e565b845250918301918301614ef4565b600080600080600060a08688031215614f4757600080fd5b85356001600160401b0380821115614f5e57600080fd5b614f6a89838a0161480e565b96506020880135915080821115614f8057600080fd5b614f8c89838a01614882565b95506040880135915080821115614fa257600080fd5b614fae89838a01614eb0565b94506060880135915080821115614fc457600080fd5b614e5789838a016148dd565b60008060408385031215614fe357600080fd5b8235614fee816146e2565b946020939093013593505050565b600080600080600060a0868803121561501457600080fd5b853561501f816146e2565b9450602086013561502f816146e2565b9350604086013592506060860135915060808601356001600160401b0381111561505857600080fd5b614c7c8882890161455e565b8183823760009101908152919050565b60208082526018908201527f476f7665726e6f723a206f6e6c79476f7665726e616e63650000000000000000604082015260600190565b600181811c908216806150bf57607f821691505b602082108114156150e057634e487b7160e01b600052602260045260246000fd5b50919050565b6000602082840312156150f857600080fd5b5051919050565b634e487b7160e01b600052601160045260246000fd5b600081600019048311821515161561512f5761512f6150ff565b500290565b60008261515157634e487b7160e01b600052601260045260246000fd5b500490565b600082821015615168576151686150ff565b500390565b634e487b7160e01b600052603260045260246000fd5b60808152600061519660808301876149eb565b82810360208401526151a88187614a2f565b905082810360408401526151bc8186614a5f565b91505082606083015295945050505050565b84815260ff84166020820152826040820152608060608201526000611ba460808301846146a3565b85815260ff8516602082015283604082015260a06060820152600061521e60a08301856146a3565b828103608084015261523081856146a3565b98975050505050505050565b6020808252602b908201527f496e697469616c697a61626c653a20636f6e7472616374206973206e6f74206960408201526a6e697469616c697a696e6760a81b606082015260800190565b600060001982141561529b5761529b6150ff565b5060010190565b6000602082840312156152b457600080fd5b81518015158114611c6a57600080fd5b6001600160e01b03198316815281516000906152e7816004850160208701614673565b919091016004019392505050565b60008219821115615308576153086150ff565b500190565b60a08152600061532060a08301886149eb565b82810360208401526153328188614a2f565b905082810360408401526153468187614a5f565b60608401959095525050608001529392505050565b60208082526021908201527f476f7665726e6f723a20696e76616c69642070726f706f73616c206c656e67746040820152600d60fb1b606082015260800190565b60006001600160401b038083168185168083038211156153be576153be6150ff565b01949350505050565b8981526001600160a01b0389166020820152610120604082018190526000906153f28382018b6149eb565b90508281036060840152615406818a614a2f565b9050828103608084015261541a8189614a5f565b905082810360a084015261542e8188614a5f565b6001600160401b0387811660c0860152861660e0850152838103610100850152905061545a81856146a3565b9c9b50505050505050505050505056fe476f7665726e6f723a2072656c617920726576657274656420776974686f7574206d657373616765a264697066735822122085afb79bcbdc99f936e550f2d26d4e87b7b2db10716c1c1dacbc31f0f4c2929564736f6c634300080c0033",
  "linkReferences": {},
  "deployedLinkReferences": {}
}