{
  "_format": "hh-sol-artifact-1",
  "contractName": "GenDAO",
  "sourceName": "contracts/governance/GenDAO.sol",
  "abi": [
    {
      "inputs": [],
      "name": "Empty",
      "type": "error"
    },
    {
      "anonymous": false,
      "inputs": [
        {
          "indexed": false,
          "internalType": "uint8",
          "name": "version",
          "type": "uint8"
        }
      ],
      "name": "Initialized",
      "type": "event"
    },
    {
      "anonymous": false,
      "inputs": [
        {
          "indexed": false,
          "internalType": "address",
          "name": "sender",
          "type": "address"
        },
        {
          "indexed": false,
          "internalType": "uint256",
          "name": "amount",
          "type": "uint256"
        }
      ],
      "name": "PaymentReceived",
      "type": "event"
    },
    {
      "anonymous": false,
      "inputs": [
        {
          "indexed": false,
          "internalType": "uint256",
          "name": "proposalId",
          "type": "uint256"
        }
      ],
      "name": "ProposalCanceled",
      "type": "event"
    },
    {
      "anonymous": false,
      "inputs": [
        {
          "indexed": false,
          "internalType": "uint256",
          "name": "proposalId",
          "type": "uint256"
        },
        {
          "indexed": false,
          "internalType": "address",
          "name": "proposer",
          "type": "address"
        },
        {
          "indexed": false,
          "internalType": "address[]",
          "name": "targets",
          "type": "address[]"
        },
        {
          "indexed": false,
          "internalType": "uint256[]",
          "name": "values",
          "type": "uint256[]"
        },
        {
          "indexed": false,
          "internalType": "string[]",
          "name": "signatures",
          "type": "string[]"
        },
        {
          "indexed": false,
          "internalType": "bytes[]",
          "name": "calldatas",
          "type": "bytes[]"
        },
        {
          "indexed": false,
          "internalType": "uint256",
          "name": "startBlock",
          "type": "uint256"
        },
        {
          "indexed": false,
          "internalType": "uint256",
          "name": "endBlock",
          "type": "uint256"
        },
        {
          "indexed": false,
          "internalType": "string",
          "name": "description",
          "type": "string"
        }
      ],
      "name": "ProposalCreated",
      "type": "event"
    },
    {
      "anonymous": false,
      "inputs": [
        {
          "indexed": false,
          "internalType": "uint256",
          "name": "proposalId",
          "type": "uint256"
        }
      ],
      "name": "ProposalExecuted",
      "type": "event"
    },
    {
      "anonymous": false,
      "inputs": [
        {
          "indexed": false,
          "internalType": "uint256",
          "name": "proposalId",
          "type": "uint256"
        },
        {
          "indexed": false,
          "internalType": "uint256",
          "name": "eta",
          "type": "uint256"
        }
      ],
      "name": "ProposalQueued",
      "type": "event"
    },
    {
      "anonymous": false,
      "inputs": [
        {
          "indexed": false,
          "internalType": "uint256",
          "name": "oldQuorumNumerator",
          "type": "uint256"
        },
        {
          "indexed": false,
          "internalType": "uint256",
          "name": "newQuorumNumerator",
          "type": "uint256"
        }
      ],
      "name": "QuorumNumeratorUpdated",
      "type": "event"
    },
    {
      "anonymous": false,
      "inputs": [
        {
          "indexed": true,
          "internalType": "address",
          "name": "voter",
          "type": "address"
        },
        {
          "indexed": false,
          "internalType": "uint256",
          "name": "proposalId",
          "type": "uint256"
        },
        {
          "indexed": false,
          "internalType": "uint8",
          "name": "support",
          "type": "uint8"
        },
        {
          "indexed": false,
          "internalType": "uint256",
          "name": "weight",
          "type": "uint256"
        },
        {
          "indexed": false,
          "internalType": "string",
          "name": "reason",
          "type": "string"
        }
      ],
      "name": "VoteCast",
      "type": "event"
    },
    {
      "anonymous": false,
      "inputs": [
        {
          "indexed": true,
          "internalType": "address",
          "name": "voter",
          "type": "address"
        },
        {
          "indexed": false,
          "internalType": "uint256",
          "name": "proposalId",
          "type": "uint256"
        },
        {
          "indexed": false,
          "internalType": "uint8",
          "name": "support",
          "type": "uint8"
        },
        {
          "indexed": false,
          "internalType": "uint256",
          "name": "weight",
          "type": "uint256"
        },
        {
          "indexed": false,
          "internalType": "string",
          "name": "reason",
          "type": "string"
        },
        {
          "indexed": false,
          "internalType": "bytes",
          "name": "params",
          "type": "bytes"
        }
      ],
      "name": "VoteCastWithParams",
      "type": "event"
    },
    {
      "inputs": [],
      "name": "BALLOT_TYPEHASH",
      "outputs": [
        {
          "internalType": "bytes32",
          "name": "",
          "type": "bytes32"
        }
      ],
      "stateMutability": "view",
      "type": "function"
    },
    {
      "inputs": [],
      "name": "COUNTING_MODE",
      "outputs": [
        {
          "internalType": "string",
          "name": "",
          "type": "string"
        }
      ],
      "stateMutability": "pure",
      "type": "function"
    },
    {
      "inputs": [],
      "name": "EXTENDED_BALLOT_TYPEHASH",
      "outputs": [
        {
          "internalType": "bytes32",
          "name": "",
          "type": "bytes32"
        }
      ],
      "stateMutability": "view",
      "type": "function"
    },
    {
      "inputs": [],
      "name": "_admin",
      "outputs": [
        {
          "internalType": "address",
          "name": "",
          "type": "address"
        }
      ],
      "stateMutability": "view",
      "type": "function"
    },
    {
      "inputs": [],
      "name": "_paramAddr",
      "outputs": [
        {
          "internalType": "address",
          "name": "",
          "type": "address"
        }
      ],
      "stateMutability": "view",
      "type": "function"
    },
    {
      "inputs": [],
      "name": "_proposalThreshold",
      "outputs": [
        {
          "internalType": "uint256",
          "name": "",
          "type": "uint256"
        }
      ],
      "stateMutability": "view",
      "type": "function"
    },
    {
      "inputs": [],
      "name": "_quorumVote",
      "outputs": [
        {
          "internalType": "uint256",
          "name": "",
          "type": "uint256"
        }
      ],
      "stateMutability": "view",
      "type": "function"
    },
    {
      "inputs": [],
      "name": "_votingDelay",
      "outputs": [
        {
          "internalType": "uint256",
          "name": "",
          "type": "uint256"
        }
      ],
      "stateMutability": "view",
      "type": "function"
    },
    {
      "inputs": [],
      "name": "_votingPeriod",
      "outputs": [
        {
          "internalType": "uint256",
          "name": "",
          "type": "uint256"
        }
      ],
      "stateMutability": "view",
      "type": "function"
    },
    {
      "inputs": [],
      "name": "_votingToken",
      "outputs": [
        {
          "internalType": "contract IGENToken",
          "name": "",
          "type": "address"
        }
      ],
      "stateMutability": "view",
      "type": "function"
    },
    {
      "inputs": [
        {
          "internalType": "uint256",
          "name": "proposalId",
          "type": "uint256"
        }
      ],
      "name": "cancel",
      "outputs": [],
      "stateMutability": "nonpayable",
      "type": "function"
    },
    {
      "inputs": [
        {
          "internalType": "uint256",
          "name": "proposalId",
          "type": "uint256"
        },
        {
          "internalType": "uint8",
          "name": "support",
          "type": "uint8"
        }
      ],
      "name": "castVote",
      "outputs": [
        {
          "internalType": "uint256",
          "name": "",
          "type": "uint256"
        }
      ],
      "stateMutability": "nonpayable",
      "type": "function"
    },
    {
      "inputs": [
        {
          "internalType": "uint256",
          "name": "proposalId",
          "type": "uint256"
        },
        {
          "internalType": "uint8",
          "name": "support",
          "type": "uint8"
        },
        {
          "internalType": "uint8",
          "name": "v",
          "type": "uint8"
        },
        {
          "internalType": "bytes32",
          "name": "r",
          "type": "bytes32"
        },
        {
          "internalType": "bytes32",
          "name": "s",
          "type": "bytes32"
        }
      ],
      "name": "castVoteBySig",
      "outputs": [
        {
          "internalType": "uint256",
          "name": "",
          "type": "uint256"
        }
      ],
      "stateMutability": "nonpayable",
      "type": "function"
    },
    {
      "inputs": [
        {
          "internalType": "uint256",
          "name": "proposalId",
          "type": "uint256"
        },
        {
          "internalType": "uint8",
          "name": "support",
          "type": "uint8"
        },
        {
          "internalType": "string",
          "name": "reason",
          "type": "string"
        }
      ],
      "name": "castVoteWithReason",
      "outputs": [
        {
          "internalType": "uint256",
          "name": "",
          "type": "uint256"
        }
      ],
      "stateMutability": "nonpayable",
      "type": "function"
    },
    {
      "inputs": [
        {
          "internalType": "uint256",
          "name": "proposalId",
          "type": "uint256"
        },
        {
          "internalType": "uint8",
          "name": "support",
          "type": "uint8"
        },
        {
          "internalType": "string",
          "name": "reason",
          "type": "string"
        },
        {
          "internalType": "bytes",
          "name": "params",
          "type": "bytes"
        }
      ],
      "name": "castVoteWithReasonAndParams",
      "outputs": [
        {
          "internalType": "uint256",
          "name": "",
          "type": "uint256"
        }
      ],
      "stateMutability": "nonpayable",
      "type": "function"
    },
    {
      "inputs": [
        {
          "internalType": "uint256",
          "name": "proposalId",
          "type": "uint256"
        },
        {
          "internalType": "uint8",
          "name": "support",
          "type": "uint8"
        },
        {
          "internalType": "string",
          "name": "reason",
          "type": "string"
        },
        {
          "internalType": "bytes",
          "name": "params",
          "type": "bytes"
        },
        {
          "internalType": "uint8",
          "name": "v",
          "type": "uint8"
        },
        {
          "internalType": "bytes32",
          "name": "r",
          "type": "bytes32"
        },
        {
          "internalType": "bytes32",
          "name": "s",
          "type": "bytes32"
        }
      ],
      "name": "castVoteWithReasonAndParamsBySig",
      "outputs": [
        {
          "internalType": "uint256",
          "name": "",
          "type": "uint256"
        }
      ],
      "stateMutability": "nonpayable",
      "type": "function"
    },
    {
      "inputs": [
        {
          "internalType": "address",
          "name": "newAdm",
          "type": "address"
        }
      ],
      "name": "changeAdmin",
      "outputs": [],
      "stateMutability": "nonpayable",
      "type": "function"
    },
    {
      "inputs": [
        {
          "internalType": "address",
          "name": "newAddr",
          "type": "address"
        }
      ],
      "name": "changeParamAddress",
      "outputs": [],
      "stateMutability": "nonpayable",
      "type": "function"
    },
    {
      "inputs": [
        {
          "internalType": "uint256",
          "name": "_new",
          "type": "uint256"
        }
      ],
      "name": "changeProposalThreshold",
      "outputs": [],
      "stateMutability": "nonpayable",
      "type": "function"
    },
    {
      "inputs": [
        {
          "internalType": "uint256",
          "name": "_new",
          "type": "uint256"
        }
      ],
      "name": "changeQuorumVotes",
      "outputs": [],
      "stateMutability": "nonpayable",
      "type": "function"
    },
    {
      "inputs": [
        {
          "internalType": "uint256",
          "name": "_new",
          "type": "uint256"
        }
      ],
      "name": "changeVoteDelay",
      "outputs": [],
      "stateMutability": "nonpayable",
      "type": "function"
    },
    {
      "inputs": [
        {
          "internalType": "uint256",
          "name": "_new",
          "type": "uint256"
        }
      ],
      "name": "changeVotePeriod",
      "outputs": [],
      "stateMutability": "nonpayable",
      "type": "function"
    },
    {
      "inputs": [
        {
          "internalType": "contract IGENToken",
          "name": "_new",
          "type": "address"
        }
      ],
      "name": "changeVotingToken",
      "outputs": [],
      "stateMutability": "nonpayable",
      "type": "function"
    },
    {
      "inputs": [
        {
          "internalType": "address[]",
          "name": "targets",
          "type": "address[]"
        },
        {
          "internalType": "uint256[]",
          "name": "values",
          "type": "uint256[]"
        },
        {
          "internalType": "bytes[]",
          "name": "calldatas",
          "type": "bytes[]"
        },
        {
          "internalType": "bytes32",
          "name": "descriptionHash",
          "type": "bytes32"
        }
      ],
      "name": "execute",
      "outputs": [
        {
          "internalType": "uint256",
          "name": "",
          "type": "uint256"
        }
      ],
      "stateMutability": "payable",
      "type": "function"
    },
    {
      "inputs": [
        {
          "internalType": "uint256",
          "name": "proposalId",
          "type": "uint256"
        }
      ],
      "name": "execute",
      "outputs": [],
      "stateMutability": "payable",
      "type": "function"
    },
    {
      "inputs": [
        {
          "internalType": "uint256",
          "name": "proposalId",
          "type": "uint256"
        }
      ],
      "name": "getActions",
      "outputs": [
        {
          "internalType": "address[]",
          "name": "targets",
          "type": "address[]"
        },
        {
          "internalType": "uint256[]",
          "name": "values",
          "type": "uint256[]"
        },
        {
          "internalType": "string[]",
          "name": "signatures",
          "type": "string[]"
        },
        {
          "internalType": "bytes[]",
          "name": "calldatas",
          "type": "bytes[]"
        }
      ],
      "stateMutability": "view",
      "type": "function"
    },
    {
      "inputs": [
        {
          "internalType": "uint256",
          "name": "proposalId",
          "type": "uint256"
        },
        {
          "internalType": "address",
          "name": "voter",
          "type": "address"
        }
      ],
      "name": "getReceipt",
      "outputs": [
        {
          "components": [
            {
              "internalType": "bool",
              "name": "hasVoted",
              "type": "bool"
            },
            {
              "internalType": "uint8",
              "name": "support",
              "type": "uint8"
            },
            {
              "internalType": "uint96",
              "name": "votes",
              "type": "uint96"
            }
          ],
          "internalType": "struct IGovernorCompatibilityBravoUpgradeable.Receipt",
          "name": "",
          "type": "tuple"
        }
      ],
      "stateMutability": "view",
      "type": "function"
    },
    {
      "inputs": [
        {
          "internalType": "address",
          "name": "account",
          "type": "address"
        },
        {
          "internalType": "uint256",
          "name": "blockNumber",
          "type": "uint256"
        }
      ],
      "name": "getVotes",
      "outputs": [
        {
          "internalType": "uint256",
          "name": "",
          "type": "uint256"
        }
      ],
      "stateMutability": "view",
      "type": "function"
    },
    {
      "inputs": [
        {
          "internalType": "address",
          "name": "account",
          "type": "address"
        },
        {
          "internalType": "uint256",
          "name": "blockNumber",
          "type": "uint256"
        },
        {
          "internalType": "bytes",
          "name": "params",
          "type": "bytes"
        }
      ],
      "name": "getVotesWithParams",
      "outputs": [
        {
          "internalType": "uint256",
          "name": "",
          "type": "uint256"
        }
      ],
      "stateMutability": "view",
      "type": "function"
    },
    {
      "inputs": [
        {
          "internalType": "uint256",
          "name": "proposalId",
          "type": "uint256"
        },
        {
          "internalType": "address",
          "name": "account",
          "type": "address"
        }
      ],
      "name": "hasVoted",
      "outputs": [
        {
          "internalType": "bool",
          "name": "",
          "type": "bool"
        }
      ],
      "stateMutability": "view",
      "type": "function"
    },
    {
      "inputs": [
        {
          "internalType": "address[]",
          "name": "targets",
          "type": "address[]"
        },
        {
          "internalType": "uint256[]",
          "name": "values",
          "type": "uint256[]"
        },
        {
          "internalType": "bytes[]",
          "name": "calldatas",
          "type": "bytes[]"
        },
        {
          "internalType": "bytes32",
          "name": "descriptionHash",
          "type": "bytes32"
        }
      ],
      "name": "hashProposal",
      "outputs": [
        {
          "internalType": "uint256",
          "name": "",
          "type": "uint256"
        }
      ],
      "stateMutability": "pure",
      "type": "function"
    },
    {
      "inputs": [
        {
          "internalType": "string",
          "name": "name",
          "type": "string"
        },
        {
          "internalType": "address",
          "name": "admin",
          "type": "address"
        },
        {
          "internalType": "address",
          "name": "paramAddr",
          "type": "address"
        },
        {
          "internalType": "contract IGENToken",
          "name": "votingToken",
          "type": "address"
        }
      ],
      "name": "initialize",
      "outputs": [],
      "stateMutability": "nonpayable",
      "type": "function"
    },
    {
      "inputs": [],
      "name": "name",
      "outputs": [
        {
          "internalType": "string",
          "name": "",
          "type": "string"
        }
      ],
      "stateMutability": "view",
      "type": "function"
    },
    {
      "inputs": [
        {
          "internalType": "address",
          "name": "",
          "type": "address"
        },
        {
          "internalType": "address",
          "name": "",
          "type": "address"
        },
        {
          "internalType": "uint256[]",
          "name": "",
          "type": "uint256[]"
        },
        {
          "internalType": "uint256[]",
          "name": "",
          "type": "uint256[]"
        },
        {
          "internalType": "bytes",
          "name": "",
          "type": "bytes"
        }
      ],
      "name": "onERC1155BatchReceived",
      "outputs": [
        {
          "internalType": "bytes4",
          "name": "",
          "type": "bytes4"
        }
      ],
      "stateMutability": "nonpayable",
      "type": "function"
    },
    {
      "inputs": [
        {
          "internalType": "address",
          "name": "",
          "type": "address"
        },
        {
          "internalType": "address",
          "name": "",
          "type": "address"
        },
        {
          "internalType": "uint256",
          "name": "",
          "type": "uint256"
        },
        {
          "internalType": "uint256",
          "name": "",
          "type": "uint256"
        },
        {
          "internalType": "bytes",
          "name": "",
          "type": "bytes"
        }
      ],
      "name": "onERC1155Received",
      "outputs": [
        {
          "internalType": "bytes4",
          "name": "",
          "type": "bytes4"
        }
      ],
      "stateMutability": "nonpayable",
      "type": "function"
    },
    {
      "inputs": [
        {
          "internalType": "address",
          "name": "",
          "type": "address"
        },
        {
          "internalType": "address",
          "name": "",
          "type": "address"
        },
        {
          "internalType": "uint256",
          "name": "",
          "type": "uint256"
        },
        {
          "internalType": "bytes",
          "name": "",
          "type": "bytes"
        }
      ],
      "name": "onERC721Received",
      "outputs": [
        {
          "internalType": "bytes4",
          "name": "",
          "type": "bytes4"
        }
      ],
      "stateMutability": "nonpayable",
      "type": "function"
    },
    {
      "inputs": [
        {
          "internalType": "uint256",
          "name": "proposalId",
          "type": "uint256"
        }
      ],
      "name": "proposalDeadline",
      "outputs": [
        {
          "internalType": "uint256",
          "name": "",
          "type": "uint256"
        }
      ],
      "stateMutability": "view",
      "type": "function"
    },
    {
      "inputs": [
        {
          "internalType": "uint256",
          "name": "",
          "type": "uint256"
        }
      ],
      "name": "proposalEta",
      "outputs": [
        {
          "internalType": "uint256",
          "name": "",
          "type": "uint256"
        }
      ],
      "stateMutability": "pure",
      "type": "function"
    },
    {
      "inputs": [
        {
          "internalType": "uint256",
          "name": "proposalId",
          "type": "uint256"
        }
      ],
      "name": "proposalSnapshot",
      "outputs": [
        {
          "internalType": "uint256",
          "name": "",
          "type": "uint256"
        }
      ],
      "stateMutability": "view",
      "type": "function"
    },
    {
      "inputs": [],
      "name": "proposalThreshold",
      "outputs": [
        {
          "internalType": "uint256",
          "name": "",
          "type": "uint256"
        }
      ],
      "stateMutability": "view",
      "type": "function"
    },
    {
      "inputs": [
        {
          "internalType": "uint256",
          "name": "proposalId",
          "type": "uint256"
        }
      ],
      "name": "proposals",
      "outputs": [
        {
          "internalType": "uint256",
          "name": "id",
          "type": "uint256"
        },
        {
          "internalType": "address",
          "name": "proposer",
          "type": "address"
        },
        {
          "internalType": "uint256",
          "name": "eta",
          "type": "uint256"
        },
        {
          "internalType": "uint256",
          "name": "startBlock",
          "type": "uint256"
        },
        {
          "internalType": "uint256",
          "name": "endBlock",
          "type": "uint256"
        },
        {
          "internalType": "uint256",
          "name": "forVotes",
          "type": "uint256"
        },
        {
          "internalType": "uint256",
          "name": "againstVotes",
          "type": "uint256"
        },
        {
          "internalType": "uint256",
          "name": "abstainVotes",
          "type": "uint256"
        },
        {
          "internalType": "bool",
          "name": "canceled",
          "type": "bool"
        },
        {
          "internalType": "bool",
          "name": "executed",
          "type": "bool"
        }
      ],
      "stateMutability": "view",
      "type": "function"
    },
    {
      "inputs": [
        {
          "internalType": "address[]",
          "name": "targets",
          "type": "address[]"
        },
        {
          "internalType": "uint256[]",
          "name": "values",
          "type": "uint256[]"
        },
        {
          "internalType": "bytes[]",
          "name": "calldatas",
          "type": "bytes[]"
        },
        {
          "internalType": "string",
          "name": "description",
          "type": "string"
        }
      ],
      "name": "propose",
      "outputs": [
        {
          "internalType": "uint256",
          "name": "",
          "type": "uint256"
        }
      ],
      "stateMutability": "nonpayable",
      "type": "function"
    },
    {
      "inputs": [
        {
          "internalType": "address[]",
          "name": "targets",
          "type": "address[]"
        },
        {
          "internalType": "uint256[]",
          "name": "values",
          "type": "uint256[]"
        },
        {
          "internalType": "string[]",
          "name": "signatures",
          "type": "string[]"
        },
        {
          "internalType": "bytes[]",
          "name": "calldatas",
          "type": "bytes[]"
        },
        {
          "internalType": "string",
          "name": "description",
          "type": "string"
        }
      ],
      "name": "propose",
      "outputs": [
        {
          "internalType": "uint256",
          "name": "",
          "type": "uint256"
        }
      ],
      "stateMutability": "nonpayable",
      "type": "function"
    },
    {
      "inputs": [
        {
          "internalType": "address[]",
          "name": "",
          "type": "address[]"
        },
        {
          "internalType": "uint256[]",
          "name": "",
          "type": "uint256[]"
        },
        {
          "internalType": "bytes[]",
          "name": "",
          "type": "bytes[]"
        },
        {
          "internalType": "bytes32",
          "name": "",
          "type": "bytes32"
        }
      ],
      "name": "queue",
      "outputs": [
        {
          "internalType": "uint256",
          "name": "",
          "type": "uint256"
        }
      ],
      "stateMutability": "pure",
      "type": "function"
    },
    {
      "inputs": [
        {
          "internalType": "uint256",
          "name": "proposalId",
          "type": "uint256"
        }
      ],
      "name": "queue",
      "outputs": [],
      "stateMutability": "nonpayable",
      "type": "function"
    },
    {
      "inputs": [
        {
          "internalType": "uint256",
          "name": "blockNumber",
          "type": "uint256"
        }
      ],
      "name": "quorum",
      "outputs": [
        {
          "internalType": "uint256",
          "name": "",
          "type": "uint256"
        }
      ],
      "stateMutability": "view",
      "type": "function"
    },
    {
      "inputs": [],
      "name": "quorumDenominator",
      "outputs": [
        {
          "internalType": "uint256",
          "name": "",
          "type": "uint256"
        }
      ],
      "stateMutability": "view",
      "type": "function"
    },
    {
      "inputs": [
        {
          "internalType": "uint256",
          "name": "blockNumber",
          "type": "uint256"
        }
      ],
      "name": "quorumNumerator",
      "outputs": [
        {
          "internalType": "uint256",
          "name": "",
          "type": "uint256"
        }
      ],
      "stateMutability": "view",
      "type": "function"
    },
    {
      "inputs": [],
      "name": "quorumNumerator",
      "outputs": [
        {
          "internalType": "uint256",
          "name": "",
          "type": "uint256"
        }
      ],
      "stateMutability": "view",
      "type": "function"
    },
    {
      "inputs": [],
      "name": "quorumVotes",
      "outputs": [
        {
          "internalType": "uint256",
          "name": "",
          "type": "uint256"
        }
      ],
      "stateMutability": "view",
      "type": "function"
    },
    {
      "inputs": [
        {
          "internalType": "address",
          "name": "target",
          "type": "address"
        },
        {
          "internalType": "uint256",
          "name": "value",
          "type": "uint256"
        },
        {
          "internalType": "bytes",
          "name": "data",
          "type": "bytes"
        }
      ],
      "name": "relay",
      "outputs": [],
      "stateMutability": "payable",
      "type": "function"
    },
    {
      "inputs": [
        {
          "internalType": "uint256",
          "name": "proposalId",
          "type": "uint256"
        }
      ],
      "name": "state",
      "outputs": [
        {
          "internalType": "enum IGovernorUpgradeable.ProposalState",
          "name": "",
          "type": "uint8"
        }
      ],
      "stateMutability": "view",
      "type": "function"
    },
    {
      "inputs": [
        {
          "internalType": "bytes4",
          "name": "interfaceId",
          "type": "bytes4"
        }
      ],
      "name": "supportsInterface",
      "outputs": [
        {
          "internalType": "bool",
          "name": "",
          "type": "bool"
        }
      ],
      "stateMutability": "view",
      "type": "function"
    },
    {
      "inputs": [],
      "name": "timelock",
      "outputs": [
        {
          "internalType": "address",
          "name": "",
          "type": "address"
        }
      ],
      "stateMutability": "pure",
      "type": "function"
    },
    {
      "inputs": [],
      "name": "token",
      "outputs": [
        {
          "internalType": "contract IVotesUpgradeable",
          "name": "",
          "type": "address"
        }
      ],
      "stateMutability": "view",
      "type": "function"
    },
    {
      "inputs": [
        {
          "internalType": "uint256",
          "name": "newQuorumNumerator",
          "type": "uint256"
        }
      ],
      "name": "updateQuorumNumerator",
      "outputs": [],
      "stateMutability": "nonpayable",
      "type": "function"
    },
    {
      "inputs": [],
      "name": "version",
      "outputs": [
        {
          "internalType": "string",
          "name": "",
          "type": "string"
        }
      ],
      "stateMutability": "view",
      "type": "function"
    },
    {
      "inputs": [],
      "name": "votingDelay",
      "outputs": [
        {
          "internalType": "uint256",
          "name": "",
          "type": "uint256"
        }
      ],
      "stateMutability": "view",
      "type": "function"
    },
    {
      "inputs": [],
      "name": "votingPeriod",
      "outputs": [
        {
          "internalType": "uint256",
          "name": "",
          "type": "uint256"
        }
      ],
      "stateMutability": "view",
      "type": "function"
    },
    {
      "inputs": [
        {
          "internalType": "address",
          "name": "erc20Addr",
          "type": "address"
        },
        {
          "internalType": "uint256",
          "name": "amount",
          "type": "uint256"
        }
      ],
      "name": "withdraw",
      "outputs": [],
      "stateMutability": "nonpayable",
      "type": "function"
    },
    {
      "stateMutability": "payable",
      "type": "receive"
    }
  ],
  "bytecode": "0x608060405234801561001057600080fd5b506152c7806100206000396000f3fe60806040526004361061039b5760003560e01c806397c3d334116101dc578063da95691a11610102578063f23a6e61116100a0578063f8ce560a1161006f578063f8ce560a14610c75578063f9dabc5514610c95578063fc0c546a14610cb5578063fe0d94c114610cd657600080fd5b8063f23a6e6114610be8578063f34822b414610c14578063f3fef3a314610c34578063f4a290f714610c5457600080fd5b8063deaaa7cc116100dc578063deaaa7cc14610ab2578063e23a9a5214610ae6578063e4cdd80e14610bb1578063eb9019d414610bc857600080fd5b8063da95691a14610a2c578063dd4e2ba514610a4c578063ddf0b00914610a9257600080fd5b8063b3af07771161017a578063c28bc2fa11610149578063c28bc2fa146109ce578063c59057e4146109e1578063d33219b414610a01578063da420d6c14610a1557600080fd5b8063b3af07771461094d578063b58131b01461096d578063bc197c8114610982578063c01f9e37146109ae57600080fd5b8063a7713a70116101b6578063a7713a70146108d7578063a8f0a82e146108ec578063ab58fb8e1461090c578063b15c4a421461092d57600080fd5b806397c3d334146108825780639a802a6d14610896578063a4d82225146108b657600080fd5b80633932abb1116102c1578063567813881161025f5780637b3c71d31161022e5780637b3c71d31461080b5780637d5e81e21461082b5780638f2839701461084b5780639199907a1461086b57600080fd5b806356781388146107945780635f398a14146107b457806360c4247f146107d45780636e3827b7146107f457600080fd5b806340e58ee51161029b57806340e58ee5146106df57806343859632146106ff57806354dfc2ed1461074a57806354fd4d501461076a57600080fd5b80633932abb11461067c5780633bccf4fd146106925780633e4f49e6146106b257600080fd5b8063150b7a02116103395780632656227d116103085780632656227d146105e55780632d63f693146105f85780632fe3e26114610618578063328dd9821461064c57600080fd5b8063150b7a0214610547578063160cbed71461058b57806316a5041f146105b057806324bc1a64146105d057600080fd5b806302a251a31161037557806302a251a3146104c357806303420181146104e357806306f3f9e61461050357806306fdde031461052557600080fd5b8063013cf08b146103df57806301bc45c91461045a57806301ffc9a71461049357600080fd5b366103da57604080513381523460208201527f6ef95f06320e7a25a04a175ca677b7052bdd97131872c2192525a629f51be770910160405180910390a1005b600080fd5b3480156103eb57600080fd5b506103ff6103fa3660046142d8565b610ce9565b604080519a8b526001600160a01b0390991660208b0152978901969096526060880194909452608087019290925260a086015260c085015260e084015215156101008301521515610120820152610140015b60405180910390f35b34801561046657600080fd5b506101f85461047b906001600160a01b031681565b6040516001600160a01b039091168152602001610451565b34801561049f57600080fd5b506104b36104ae3660046142f1565b610d88565b6040519015158152602001610451565b3480156104cf57600080fd5b506101fd545b604051908152602001610451565b3480156104ef57600080fd5b506104d56104fe366004614427565b610d99565b34801561050f57600080fd5b5061052361051e3660046142d8565b610e91565b005b34801561053157600080fd5b5061053a610f09565b6040516104519190614525565b34801561055357600080fd5b5061057261056236600461454d565b630a85bd0160e11b949350505050565b6040516001600160e01b03199091168152602001610451565b34801561059757600080fd5b506104d56105a6366004614729565b6000949350505050565b3480156105bc57600080fd5b506105236105cb3660046147b8565b610f9c565b3480156105dc57600080fd5b506104d5611031565b6104d56105f3366004614729565b6110cb565b34801561060457600080fd5b506104d56106133660046142d8565b6111f8565b34801561062457600080fd5b506104d57fb3b3f3b703cd84ce352197dcff232b1b5d3cfb2025ce47cf04742d0651f1af8881565b34801561065857600080fd5b5061066c6106673660046142d8565b611230565b604051610451949392919061489e565b34801561068857600080fd5b506101fe546104d5565b34801561069e57600080fd5b506104d56106ad3660046148eb565b6114c2565b3480156106be57600080fd5b506106d26106cd3660046142d8565b611538565b604051610451919061494f565b3480156106eb57600080fd5b506105236106fa3660046142d8565b611543565b34801561070b57600080fd5b506104b361071a366004614977565b6000828152610161602090815260408083206001600160a01b038516845260080190915290205460ff1692915050565b34801561075657600080fd5b506105236107653660046147b8565b61185c565b34801561077657600080fd5b506040805180820190915260018152603160f81b602082015261053a565b3480156107a057600080fd5b506104d56107af3660046149a7565b6118ea565b3480156107c057600080fd5b506104d56107cf3660046149d3565b611913565b3480156107e057600080fd5b506104d56107ef3660046142d8565b61195d565b34801561080057600080fd5b506104d56101fb5481565b34801561081757600080fd5b506104d5610826366004614a56565b6119f6565b34801561083757600080fd5b506104d5610846366004614aaf565b611a48565b34801561085757600080fd5b506105236108663660046147b8565b611a5f565b34801561087757600080fd5b506104d56101fd5481565b34801561088e57600080fd5b5060646104d5565b3480156108a257600080fd5b506104d56108b1366004614b4f565b611af4565b3480156108c257600080fd5b506101fa5461047b906001600160a01b031681565b3480156108e357600080fd5b506104d5611b0b565b3480156108f857600080fd5b506105236109073660046142d8565b611b38565b34801561091857600080fd5b506104d56109273660046142d8565b50600090565b34801561093957600080fd5b506105236109483660046142d8565b611b90565b34801561095957600080fd5b506105236109683660046142d8565b611be8565b34801561097957600080fd5b506104d5611c40565b34801561098e57600080fd5b5061057261099d366004614ba7565b63bc197c8160e01b95945050505050565b3480156109ba57600080fd5b506104d56109c93660046142d8565b611ccb565b6105236109dc366004614c3a565b611cfb565b3480156109ed57600080fd5b506104d56109fc366004614729565b611df3565b348015610a0d57600080fd5b50600061047b565b348015610a2157600080fd5b506104d56101fc5481565b348015610a3857600080fd5b506104d5610a47366004614cfc565b611e2d565b348015610a5857600080fd5b5060408051808201909152601a81527f737570706f72743d627261766f2671756f72756d3d627261766f000000000000602082015261053a565b348015610a9e57600080fd5b50610523610aad3660046142d8565b611e52565b348015610abe57600080fd5b506104d57f150214d74d59b7d1e90c73fc22ef3d991dd0a76b046543d4d80ab92d2a50328f81565b348015610af257600080fd5b50610b81610b01366004614977565b6040805160608101825260008082526020820181905291810191909152506000918252610161602090815260408084206001600160a01b0393909316845260089092018152918190208151606081018352905460ff8082161515835261010082041693820193909352620100009092046001600160601b03169082015290565b6040805182511515815260208084015160ff1690820152918101516001600160601b031690820152606001610451565b348015610bbd57600080fd5b506104d56101fe5481565b348015610bd457600080fd5b506104d5610be3366004614d9d565b6120c0565b348015610bf457600080fd5b50610572610c03366004614dc9565b63f23a6e6160e01b95945050505050565b348015610c2057600080fd5b50610523610c2f366004614e31565b6120e1565b348015610c4057600080fd5b50610523610c4f366004614d9d565b6122dc565b348015610c6057600080fd5b506101f95461047b906001600160a01b031681565b348015610c8157600080fd5b506104d5610c903660046142d8565b612418565b348015610ca157600080fd5b50610523610cb03660046142d8565b6124a7565b348015610cc157600080fd5b506101935461047b906001600160a01b031681565b610523610ce43660046142d8565b6124ff565b8060008080808080808080610cfd8a6111f8565b9650610d088b611ccb565b60008c81526101616020526040812080546005820154600683015460078401546001600160a01b039093169e50949a509850929650919450610d498d611538565b90506002816007811115610d5f57610d5f614939565b1493506007816007811115610d7657610d76614939565b14925050509193959799509193959799565b6000610d938261276e565b92915050565b600080610e3d610e357fb3b3f3b703cd84ce352197dcff232b1b5d3cfb2025ce47cf04742d0651f1af888c8c8c8c604051610dd5929190614ea5565b60405180910390208b80519060200120604051602001610e1a959493929190948552602085019390935260ff9190911660408401526060830152608082015260a00190565b604051602081830303815290604052805190602001206127d9565b868686612827565b9050610e838a828b8b8b8080601f0160208091040260200160405190810160405280939291908181526020018383808284376000920191909152508d9250612845915050565b9a9950505050505050505050565b333014610ee05760405162461bcd60e51b8152602060048201526018602482015277476f7665726e6f723a206f6e6c79476f7665726e616e636560401b60448201526064015b60405180910390fd5b610efd565b80610ef16101316129a7565b14610efb57610ee5565b505b610f0681612a26565b50565b606061012f8054610f1990614eb5565b80601f0160208091040260200160405190810160405280929190818152602001828054610f4590614eb5565b8015610f925780601f10610f6757610100808354040283529160200191610f92565b820191906000526020600020905b815481529060010190602001808311610f7557829003601f168201915b5050505050905090565b6101f8546001600160a01b031633148015610fbf57506001600160a01b03811615155b6040518060400160405280600381526020016231303160e81b81525090610ff95760405162461bcd60e51b8152600401610ed79190614525565b506101f9546001600160a01b03828116911614610f06576101f980546001600160a01b0383166001600160a01b031990911617905550565b60006127106101fa60009054906101000a90046001600160a01b03166001600160a01b03166318160ddd6040518163ffffffff1660e01b8152600401602060405180830381865afa15801561108a573d6000803e3d6000fd5b505050506040513d601f19601f820116820180604052508101906110ae9190614ef0565b6101fc546110bc9190614f1f565b6110c69190614f3e565b905090565b6000806110da86868686611df3565b905060006110e782611538565b905060048160078111156110fd576110fd614939565b148061111a5750600581600781111561111857611118614939565b145b6111705760405162461bcd60e51b815260206004820152602160248201527f476f7665726e6f723a2070726f706f73616c206e6f74207375636365737366756044820152601b60fa1b6064820152608401610ed7565b6000828152610130602052604090819020600201805460ff19166001179055517f712ae1383f79ac853f8d882153778e0260ef8f03b504e2866e0593e04d2b291f906111bf9084815260200190565b60405180910390a16111d48288888888612b75565b6111e18288888888612c03565b6111ee8288888888612b75565b5095945050505050565b6000818152610130602090815260408083208151928301909152546001600160401b0316908190525b6001600160401b031692915050565b60608060608060006101616000878152602001908152602001600020905080600101816002018260030183600401838054806020026020016040519081016040528092919081815260200182805480156112b357602002820191906000526020600020905b81546001600160a01b03168152600190910190602001808311611295575b505050505093508280548060200260200160405190810160405280929190818152602001828054801561130557602002820191906000526020600020905b8154815260200190600101908083116112f1575b5050505050925081805480602002602001604051908101604052809291908181526020016000905b828210156113d957838290600052602060002001805461134c90614eb5565b80601f016020809104026020016040519081016040528092919081815260200182805461137890614eb5565b80156113c55780601f1061139a576101008083540402835291602001916113c5565b820191906000526020600020905b8154815290600101906020018083116113a857829003601f168201915b50505050508152602001906001019061132d565b50505050915080805480602002602001604051908101604052809291908181526020016000905b828210156114ac57838290600052602060002001805461141f90614eb5565b80601f016020809104026020016040519081016040528092919081815260200182805461144b90614eb5565b80156114985780601f1061146d57610100808354040283529160200191611498565b820191906000526020600020905b81548152906001019060200180831161147b57829003601f168201915b505050505081526020019060010190611400565b5050505090509450945094509450509193509193565b604080517f150214d74d59b7d1e90c73fc22ef3d991dd0a76b046543d4d80ab92d2a50328f602082015290810186905260ff85166060820152600090819061151090610e3590608001610e1a565b905061152d87828860405180602001604052806000815250612c10565b979650505050505050565b6000610d9382612c33565b60008181526101616020526040902080546001600160a01b0316336001600160a01b031614806115925750611576611c40565b8154611590906001600160a01b0316610be3600143614f60565b105b6115ee5760405162461bcd60e51b815260206004820152602760248201527f476f7665726e6f72427261766f3a2070726f706f7365722061626f76652074686044820152661c995cda1bdb1960ca1b6064820152608401610ed7565b6118578160010180548060200260200160405190810160405280929190818152602001828054801561164957602002820191906000526020600020905b81546001600160a01b0316815260019091019060200180831161162b575b50505050508260020180548060200260200160405190810160405280929190818152602001828054801561169c57602002820191906000526020600020905b815481526020019060010190808311611688575b505050505061184d84600301805480602002602001604051908101604052809291908181526020016000905b828210156117745783829060005260206000200180546116e790614eb5565b80601f016020809104026020016040519081016040528092919081815260200182805461171390614eb5565b80156117605780601f1061173557610100808354040283529160200191611760565b820191906000526020600020905b81548152906001019060200180831161174357829003601f168201915b5050505050815260200190600101906116c8565b50505060048701805460408051602080840282018101909252828152935060009084015b828210156118445783829060005260206000200180546117b790614eb5565b80601f01602080910402602001604051908101604052809291908181526020018280546117e390614eb5565b80156118305780601f1061180557610100808354040283529160200191611830565b820191906000526020600020905b81548152906001019060200180831161181357829003601f168201915b505050505081526020019060010190611798565b50505050612d44565b8460090154612e76565b505050565b6101f85460408051808201909152600381526231303160e81b6020820152906001600160a01b031633146118a35760405162461bcd60e51b8152600401610ed79190614525565b506101fa546001600160a01b03828116911614610f06576101fa80546001600160a01b0383166001600160a01b031991821681179092556101938054909116909117905550565b60008033905061190b84828560405180602001604052806000815250612c10565b949350505050565b60008033905061152d87828888888080601f0160208091040260200160405190810160405280939291908181526020018383808284376000920191909152508a9250612845915050565b6101c754600090806119745750506101c654919050565b60006101c7611984600184614f60565b8154811061199457611994614f77565b60009182526020918290206040805180820190915291015463ffffffff8116808352600160201b9091046001600160e01b031692820192909252915084106119ea57602001516001600160e01b03169392505050565b61190b6101c785612e84565b600080339050611a3e86828787878080601f016020809104026020016040519081016040528093929190818152602001838380828437600092019190915250612c1092505050565b9695505050505050565b6000611a5685858585612f44565b95945050505050565b6101f8546001600160a01b031633148015611a8257506001600160a01b03811615155b6040518060400160405280600381526020016231303160e81b81525090611abc5760405162461bcd60e51b8152600401610ed79190614525565b506101f8546001600160a01b03828116911614610f06576101f880546001600160a01b0383166001600160a01b031990911617905550565b6000611b01848484612fac565b90505b9392505050565b6101c75460009015611b3057611b226101c7613023565b6001600160e01b0316905090565b506101c65490565b6101f85460408051808201909152600381526231303160e81b6020820152906001600160a01b03163314611b7f5760405162461bcd60e51b8152600401610ed79190614525565b50806101fc5414610f06576101fc55565b6101f85460408051808201909152600381526231303160e81b6020820152906001600160a01b03163314611bd75760405162461bcd60e51b8152600401610ed79190614525565b50806101fd5414610f06576101fd55565b6101f85460408051808201909152600381526231303160e81b6020820152906001600160a01b03163314611c2f5760405162461bcd60e51b8152600401610ed79190614525565b50806101fe5414610f06576101fe55565b60006127106101fa60009054906101000a90046001600160a01b03166001600160a01b03166318160ddd6040518163ffffffff1660e01b8152600401602060405180830381865afa158015611c99573d6000803e3d6000fd5b505050506040513d601f19601f82011682018060405250810190611cbd9190614ef0565b6101fb546110bc9190614f1f565b6000818152610130602090815260408083208151928301909152600101546001600160401b031690819052611221565b333014611d455760405162461bcd60e51b8152602060048201526018602482015277476f7665726e6f723a206f6e6c79476f7665726e616e636560401b6044820152606401610ed7565b611d62565b80611d566101316129a7565b14611d6057611d4a565b505b600080856001600160a01b0316858585604051611d80929190614ea5565b60006040518083038185875af1925050503d8060008114611dbd576040519150601f19603f3d011682016040523d82523d6000602084013e611dc2565b606091505b5091509150611dea82826040518060600160405280602881526020016152436028913961305c565b50505050505050565b600084848484604051602001611e0c9493929190614f8d565b60408051601f19818403018152919052805160209091012095945050505050565b6000611e3d338787878787613075565b611a3e8686611e4c8787612d44565b85611a48565b60008181526101616020908152604091829020600181018054845181850281018501909552808552919361185793909290830182828015611ebc57602002820191906000526020600020905b81546001600160a01b03168152600190910190602001808311611e9e575b505050505082600201805480602002602001604051908101604052809291908181526020018280548015611f0f57602002820191906000526020600020905b815481526020019060010190808311611efb575b50505050506120b784600301805480602002602001604051908101604052809291908181526020016000905b82821015611fe7578382906000526020600020018054611f5a90614eb5565b80601f0160208091040260200160405190810160405280929190818152602001828054611f8690614eb5565b8015611fd35780601f10611fa857610100808354040283529160200191611fd3565b820191906000526020600020905b815481529060010190602001808311611fb657829003601f168201915b505050505081526020019060010190611f3b565b50505060048701805460408051602080840282018101909252828152935060009084015b8282101561184457838290600052602060002001805461202a90614eb5565b80601f016020809104026020016040519081016040528092919081815260200182805461205690614eb5565b80156120a35780601f10612078576101008083540402835291602001916120a3565b820191906000526020600020905b81548152906001019060200180831161208657829003601f168201915b50505050508152602001906001019061200b565b50600092915050565b6000611b0483836120dc60408051602081019091526000815290565b612fac565b600054610100900460ff16158080156121015750600054600160ff909116105b8061211b5750303b15801561211b575060005460ff166001145b61217e5760405162461bcd60e51b815260206004820152602e60248201527f496e697469616c697a61626c653a20636f6e747261637420697320616c72656160448201526d191e481a5b9a5d1a585b1a5e995960921b6064820152608401610ed7565b6000805460ff1916600117905580156121a1576000805461ff0019166101001790555b6001600160a01b038416158015906121c157506001600160a01b03831615155b80156121d557506001600160a01b03821615155b6040518060400160405280600381526020016203130360ec1b8152509061220f5760405162461bcd60e51b8152600401610ed79190614525565b506101f880546001600160a01b038087166001600160a01b0319928316179092556101f980548684169083161790556101fa8054928516929091169190911790556101f46101fb5560646101fc556119af6101fe5561b3cb6101fd5561227485613133565b61227c61318a565b612285826131b3565b61228f60326131e3565b80156122d5576000805461ff0019169055604051600181527f7f26b83ff96e1f2b6a682f133852f6798a09c465da95921460cefb38474024989060200160405180910390a15b5050505050565b6101f85460408051808201909152600381526231303160e81b6020820152906001600160a01b031633146123235760405162461bcd60e51b8152600401610ed79190614525565b5060006001600160a01b038316612396578147101561234157600080fd5b60405133908390600081818185875af1925050503d8060008114612381576040519150601f19603f3d011682016040523d82523d6000602084013e612386565b606091505b5050809150508061185757600080fd5b60405163a9059cbb60e01b81523360048201526024810183905283906001600160a01b0382169063a9059cbb906044016020604051808303816000875af11580156123e5573d6000803e3d6000fd5b505050506040513d601f19601f820116820180604052508101906124099190614fd8565b61241257600080fd5b50505050565b600060646124258361195d565b61019354604051632394e7a360e21b8152600481018690526001600160a01b0390911690638e539e8c90602401602060405180830381865afa15801561246f573d6000803e3d6000fd5b505050506040513d601f19601f820116820180604052508101906124939190614ef0565b61249d9190614f1f565b610d939190614f3e565b6101f85460408051808201909152600381526231303160e81b6020820152906001600160a01b031633146124ee5760405162461bcd60e51b8152600401610ed79190614525565b50806101fb5414610f06576101fb55565b6000818152610161602090815260409182902060018101805484518185028101850190955280855291936118579390929083018282801561256957602002820191906000526020600020905b81546001600160a01b0316815260019091019060200180831161254b575b5050505050826002018054806020026020016040519081016040528092919081815260200182805480156125bc57602002820191906000526020600020905b8154815260200190600101908083116125a8575b505050505061276484600301805480602002602001604051908101604052809291908181526020016000905b8282101561269457838290600052602060002001805461260790614eb5565b80601f016020809104026020016040519081016040528092919081815260200182805461263390614eb5565b80156126805780601f1061265557610100808354040283529160200191612680565b820191906000526020600020905b81548152906001019060200180831161266357829003601f168201915b5050505050815260200190600101906125e8565b50505060048701805460408051602080840282018101909252828152935060009084015b828210156118445783829060005260206000200180546126d790614eb5565b80601f016020809104026020016040519081016040528092919081815260200182805461270390614eb5565b80156127505780601f1061272557610100808354040283529160200191612750565b820191906000526020600020905b81548152906001019060200180831161273357829003601f168201915b5050505050815260200190600101906126b8565b84600901546110cb565b60006001600160e01b0319821663bf26d89760e01b148061279f57506001600160e01b031982166379dd796f60e01b145b806127ba57506001600160e01b03198216630271189760e51b145b80610d9357506301ffc9a760e01b6001600160e01b0319831614610d93565b6000610d936127e6613213565b8360405161190160f01b6020820152602281018390526042810182905260009060620160405160208183030381529060405280519060200120905092915050565b60008060006128388787878761328e565b915091506111ee81613352565b600085815261013060205260408120600161285f88611538565b600781111561287057612870614939565b146128c95760405162461bcd60e51b815260206004820152602360248201527f476f7665726e6f723a20766f7465206e6f742063757272656e746c792061637460448201526269766560e81b6064820152608401610ed7565b604080516020810190915281546001600160401b0316908190526000906128f290889086612fac565b905061290188888884886134a0565b835161295357866001600160a01b03167fb8e138887d0aa13bab447e82de9d5c1777041ecd21ca36ba824ff1e6c07ddda4898884896040516129469493929190614ffa565b60405180910390a261152d565b866001600160a01b03167fe2babfbac5889a709b63bb7f598b324e08bc5a4fb9ec647fb3cbc9ec07eb87128988848989604051612994959493929190615022565b60405180910390a2979650505050505050565b60006129c28254600f81810b600160801b909204900b131590565b156129e057604051631ed9509560e11b815260040160405180910390fd5b508054600f0b6000818152600180840160205260408220805492905583546fffffffffffffffffffffffffffffffff191692016001600160801b03169190911790915590565b6064811115612aa95760405162461bcd60e51b815260206004820152604360248201527f476f7665726e6f72566f74657351756f72756d4672616374696f6e3a2071756f60448201527f72756d4e756d657261746f72206f7665722071756f72756d44656e6f6d696e616064820152623a37b960e91b608482015260a401610ed7565b6000612ab3611b0b565b90508015801590612ac557506101c754155b15612b2a5760408051808201909152600081526101c79060208101612ae98461363e565b6001600160e01b039081169091528254600181018455600093845260209384902083519490930151909116600160201b0263ffffffff909316929092179101555b612b366101c7836136ab565b505060408051828152602081018490527f0553476bf02ef2726e8ce5ced78d63e26e602e4a2257b1f559418e24b4633997910160405180910390a15050565b6122d5565b8451811015612bfb57306001600160a01b0316858281518110612b9f57612b9f614f77565b60200260200101516001600160a01b03161415612beb57612beb838281518110612bcb57612bcb614f77565b6020026020010151805190602001206101316136e190919063ffffffff16565b612bf481615068565b9050612b7a565b505050505050565b6122d5858585858561371d565b6000611a5685858585612c2e60408051602081019091526000815290565b612845565b600081815261013060205260408120600281015460ff1615612c585750600792915050565b6002810154610100900460ff1615612c735750600292915050565b6000612c7e846111f8565b905080612ccd5760405162461bcd60e51b815260206004820152601d60248201527f476f7665726e6f723a20756e6b6e6f776e2070726f706f73616c2069640000006044820152606401610ed7565b438110612cde575060009392505050565b6000612ce985611ccb565b9050438110612cfd57506001949350505050565b612d0685613813565b8015612d2957506000858152610161602052604090206006810154600590910154115b15612d3957506004949350505050565b506003949350505050565b6060600082516001600160401b03811115612d6157612d61614372565b604051908082528060200260200182016040528015612d9457816020015b6060815260200190600190039081612d7f5790505b50905060005b8451811015612e6e57848181518110612db557612db5614f77565b602002602001015151600014612e2557848181518110612dd757612dd7614f77565b602002602001015180519060200120848281518110612df857612df8614f77565b6020026020010151604051602001612e11929190615083565b604051602081830303815290604052612e40565b838181518110612e3757612e37614f77565b60200260200101515b828281518110612e5257612e52614f77565b602002602001018190525080612e6790615068565b9050612d9a565b509392505050565b6000611a568585858561383c565b6000438210612ed55760405162461bcd60e51b815260206004820181905260248201527f436865636b706f696e74733a20626c6f636b206e6f7420796574206d696e65646044820152606401610ed7565b6000612ee08361395b565b84549091506000612ef3868483856139c0565b90508015612f2e57612f1886612f0a600184614f60565b600091825260209091200190565b54600160201b90046001600160e01b0316612f31565b60005b6001600160e01b03169695505050505050565b6000612fa033868686516001600160401b03811115612f6557612f65614372565b604051908082528060200260200182016040528015612f9857816020015b6060815260200190600190039081612f835790505b508787613075565b611a5685858585613a16565b61019354604051630748d63560e31b81526001600160a01b038581166004830152602482018590526000921690633a46b1a890604401602060405180830381865afa158015612fff573d6000803e3d6000fd5b505050506040513d601f19601f82011682018060405250810190611b019190614ef0565b805460009080156130535761303d83612f0a600184614f60565b54600160201b90046001600160e01b0316611b04565b60009392505050565b6060831561306b575081611b04565b611b048383613cde565b805160208201206000613093878761308d8888612d44565b85611df3565b6000818152610161602052604090206009810154919250906131285780546001600160a01b0319166001600160a01b038a1617815587516130dd90600183019060208b019061408e565b5086516130f390600283019060208a01906140ef565b508551613109906003830190602089019061412a565b50845161311f9060048301906020880190614183565b50600981018390555b505050505050505050565b600054610100900460ff1661315a5760405162461bcd60e51b8152600401610ed7906150b4565b6131818161317c6040805180820190915260018152603160f81b602082015290565b613d0c565b610f0681613d4d565b600054610100900460ff166131b15760405162461bcd60e51b8152600401610ed7906150b4565b565b600054610100900460ff166131da5760405162461bcd60e51b8152600401610ed7906150b4565b610f0681613d88565b600054610100900460ff1661320a5760405162461bcd60e51b8152600401610ed7906150b4565b610f0681613dd2565b60006110c67f8b73c3c69bb8fe3d512ecc4cf759cc79239f7b179b0ffacaa9a75d522b39400f61324260655490565b6066546040805160208101859052908101839052606081018290524660808201523060a082015260009060c0016040516020818303038152906040528051906020012090509392505050565b6000807f7fffffffffffffffffffffffffffffff5d576e7357a4501ddfe92f46681b20a08311156132c55750600090506003613349565b6040805160008082526020820180845289905260ff881692820192909252606081018690526080810185905260019060a0016020604051602081039080840390855afa158015613319573d6000803e3d6000fd5b5050604051601f1901519150506001600160a01b03811661334257600060019250925050613349565b9150600090505b94509492505050565b600081600481111561336657613366614939565b141561336f5750565b600181600481111561338357613383614939565b14156133d15760405162461bcd60e51b815260206004820152601860248201527f45434453413a20696e76616c6964207369676e617475726500000000000000006044820152606401610ed7565b60028160048111156133e5576133e5614939565b14156134335760405162461bcd60e51b815260206004820152601f60248201527f45434453413a20696e76616c6964207369676e6174757265206c656e677468006044820152606401610ed7565b600381600481111561344757613447614939565b1415610f065760405162461bcd60e51b815260206004820152602260248201527f45434453413a20696e76616c6964207369676e6174757265202773272076616c604482015261756560f01b6064820152608401610ed7565b6000858152610161602090815260408083206001600160a01b038816845260088101909252909120805460ff16156135305760405162461bcd60e51b815260206004820152602d60248201527f476f7665726e6f72436f6d7061746962696c697479427261766f3a20766f746560448201526c08185b1c9958591e4818d85cdd609a1b6064820152608401610ed7565b805460ff86166101000261ffff1990911617600117815561355084613df9565b81546001600160601b039190911662010000026dffffffffffffffffffffffff00001990911617815560ff85166135a0578382600601600082825461359591906150ff565b90915550611dea9050565b60ff8516600114156135c0578382600501600082825461359591906150ff565b60ff8516600214156135e0578382600701600082825461359591906150ff565b60405162461bcd60e51b815260206004820152602d60248201527f476f7665726e6f72436f6d7061746962696c697479427261766f3a20696e766160448201526c6c696420766f7465207479706560981b6064820152608401610ed7565b60006001600160e01b038211156136a75760405162461bcd60e51b815260206004820152602760248201527f53616665436173743a2076616c756520646f65736e27742066697420696e20326044820152663234206269747360c81b6064820152608401610ed7565b5090565b6000806136c9846136bb4361395b565b6136c48661363e565b613e61565b6001600160e01b0391821693501690505b9250929050565b8154600160801b90819004600f0b6000818152600180860160205260409091209390935583546001600160801b03908116939091011602179055565b600060405180606001604052806027815260200161526b60279139905060005b8551811015611dea5760008087838151811061375b5761375b614f77565b60200260200101516001600160a01b031687848151811061377e5761377e614f77565b602002602001015187858151811061379857613798614f77565b60200260200101516040516137ad9190615117565b60006040518083038185875af1925050503d80600081146137ea576040519150601f19603f3d011682016040523d82523d6000602084013e6137ef565b606091505b50915091506137ff82828661305c565b5050508061380c90615068565b905061373d565b6000818152610161602052604081206005810154613833610c90856111f8565b11159392505050565b60008061384b86868686611df3565b9050600061385882611538565b9050600281600781111561386e5761386e614939565b1415801561388e5750600681600781111561388b5761388b614939565b14155b80156138ac575060078160078111156138a9576138a9614939565b14155b6138f85760405162461bcd60e51b815260206004820152601d60248201527f476f7665726e6f723a2070726f706f73616c206e6f74206163746976650000006044820152606401610ed7565b6000828152610130602052604090819020600201805461ff001916610100179055517f789cf55be980739dad1d0699b93b58e806b51c9d96619bfa8fe0a28abaa7b30c906139499084815260200190565b60405180910390a15095945050505050565b600063ffffffff8211156136a75760405162461bcd60e51b815260206004820152602660248201527f53616665436173743a2076616c756520646f65736e27742066697420696e203360448201526532206269747360d01b6064820152608401610ed7565b60005b81831015612e6e5760006139d7848461400b565b60008781526020902090915063ffffffff86169082015463ffffffff161115613a0257809250613a10565b613a0d8160016150ff565b93505b506139c3565b6000613a20611c40565b613a2f33610be3600143614f60565b1015613a975760405162461bcd60e51b815260206004820152603160248201527f476f7665726e6f723a2070726f706f73657220766f7465732062656c6f7720706044820152701c9bdc1bdcd85b081d1a1c995cda1bdb19607a1b6064820152608401610ed7565b6000613aac8686868680519060200120611df3565b90508451865114613acf5760405162461bcd60e51b8152600401610ed790615133565b8351865114613af05760405162461bcd60e51b8152600401610ed790615133565b6000865111613b415760405162461bcd60e51b815260206004820152601860248201527f476f7665726e6f723a20656d7074792070726f706f73616c00000000000000006044820152606401610ed7565b60008181526101306020908152604091829020825191820190925281546001600160401b03169081905215613bc25760405162461bcd60e51b815260206004820152602160248201527f476f7665726e6f723a2070726f706f73616c20616c72656164792065786973746044820152607360f81b6064820152608401610ed7565b6000613bd6613bd16101fe5490565b614026565b613bdf43614026565b613be99190615174565b90506000613bfa613bd16101fd5490565b613c049083615174565b835467ffffffffffffffff19166001600160401b038416178455905060018301805467ffffffffffffffff19166001600160401b0383161790557f7d84a6263ae0d98d3329bd7b46bb4e8d6f98cd35a7adb45c274c8b7fd5ebd5e084338b8b8d516001600160401b03811115613c7c57613c7c614372565b604051908082528060200260200182016040528015613caf57816020015b6060815260200190600190039081613c9a5790505b508c88888e604051613cc99998979695949392919061519f565b60405180910390a15091979650505050505050565b815115613cee5781518083602001fd5b8060405162461bcd60e51b8152600401610ed79190614525565b5050565b600054610100900460ff16613d335760405162461bcd60e51b8152600401610ed7906150b4565b815160209283012081519190920120606591909155606655565b600054610100900460ff16613d745760405162461bcd60e51b8152600401610ed7906150b4565b8051613d089061012f9060208401906141dc565b600054610100900460ff16613daf5760405162461bcd60e51b8152600401610ed7906150b4565b61019380546001600160a01b0319166001600160a01b0392909216919091179055565b600054610100900460ff16610efd5760405162461bcd60e51b8152600401610ed7906150b4565b60006001600160601b038211156136a75760405162461bcd60e51b815260206004820152602660248201527f53616665436173743a2076616c756520646f65736e27742066697420696e203960448201526536206269747360d01b6064820152608401610ed7565b825460009081908015613fae576000613e7f87612f0a600185614f60565b60408051808201909152905463ffffffff808216808452600160201b9092046001600160e01b031660208401529192509087161015613f005760405162461bcd60e51b815260206004820152601760248201527f436865636b706f696e743a20696e76616c6964206b65790000000000000000006044820152606401610ed7565b8563ffffffff16816000015163ffffffff161415613f4f5784613f2888612f0a600186614f60565b80546001600160e01b0392909216600160201b0263ffffffff909216919091179055613f9e565b6040805180820190915263ffffffff80881682526001600160e01b0380881660208085019182528b54600181018d5560008d81529190912094519151909216600160201b029216919091179101555b6020015192508391506140039050565b50506040805180820190915263ffffffff80851682526001600160e01b0380851660208085019182528854600181018a5560008a815291822095519251909316600160201b0291909316179201919091559050815b935093915050565b600061401a6002848418614f3e565b611b04908484166150ff565b60006001600160401b038211156136a75760405162461bcd60e51b815260206004820152602660248201527f53616665436173743a2076616c756520646f65736e27742066697420696e203660448201526534206269747360d01b6064820152608401610ed7565b8280548282559060005260206000209081019282156140e3579160200282015b828111156140e357825182546001600160a01b0319166001600160a01b039091161782556020909201916001909101906140ae565b506136a792915061424f565b8280548282559060005260206000209081019282156140e3579160200282015b828111156140e357825182559160200191906001019061410f565b828054828255906000526020600020908101928215614177579160200282015b8281111561417757825180516141679184916020909101906141dc565b509160200191906001019061414a565b506136a7929150614264565b8280548282559060005260206000209081019282156141d0579160200282015b828111156141d057825180516141c09184916020909101906141dc565b50916020019190600101906141a3565b506136a7929150614281565b8280546141e890614eb5565b90600052602060002090601f01602090048101928261420a57600085556140e3565b82601f1061422357805160ff19168380011785556140e3565b828001600101855582156140e357918201828111156140e357825182559160200191906001019061410f565b5b808211156136a75760008155600101614250565b808211156136a7576000614278828261429e565b50600101614264565b808211156136a7576000614295828261429e565b50600101614281565b5080546142aa90614eb5565b6000825580601f106142ba575050565b601f016020900490600052602060002090810190610f06919061424f565b6000602082840312156142ea57600080fd5b5035919050565b60006020828403121561430357600080fd5b81356001600160e01b031981168114611b0457600080fd5b803560ff8116811461432c57600080fd5b919050565b60008083601f84011261434357600080fd5b5081356001600160401b0381111561435a57600080fd5b6020830191508360208285010111156136da57600080fd5b634e487b7160e01b600052604160045260246000fd5b604051601f8201601f191681016001600160401b03811182821017156143b0576143b0614372565b604052919050565b600082601f8301126143c957600080fd5b81356001600160401b038111156143e2576143e2614372565b6143f5601f8201601f1916602001614388565b81815284602083860101111561440a57600080fd5b816020850160208301376000918101602001919091529392505050565b60008060008060008060008060e0898b03121561444357600080fd5b8835975061445360208a0161431b565b965060408901356001600160401b038082111561446f57600080fd5b61447b8c838d01614331565b909850965060608b013591508082111561449457600080fd5b506144a18b828c016143b8565b9450506144b060808a0161431b565b925060a0890135915060c089013590509295985092959890939650565b60005b838110156144e85781810151838201526020016144d0565b838111156124125750506000910152565b600081518084526145118160208601602086016144cd565b601f01601f19169290920160200192915050565b602081526000611b0460208301846144f9565b6001600160a01b0381168114610f0657600080fd5b6000806000806080858703121561456357600080fd5b843561456e81614538565b9350602085013561457e81614538565b92506040850135915060608501356001600160401b038111156145a057600080fd5b6145ac878288016143b8565b91505092959194509250565b60006001600160401b038211156145d1576145d1614372565b5060051b60200190565b600082601f8301126145ec57600080fd5b813560206146016145fc836145b8565b614388565b82815260059290921b8401810191818101908684111561462057600080fd5b8286015b8481101561464457803561463781614538565b8352918301918301614624565b509695505050505050565b600082601f83011261466057600080fd5b813560206146706145fc836145b8565b82815260059290921b8401810191818101908684111561468f57600080fd5b8286015b848110156146445780358352918301918301614693565b600082601f8301126146bb57600080fd5b813560206146cb6145fc836145b8565b82815260059290921b840181019181810190868411156146ea57600080fd5b8286015b848110156146445780356001600160401b0381111561470d5760008081fd5b61471b8986838b01016143b8565b8452509183019183016146ee565b6000806000806080858703121561473f57600080fd5b84356001600160401b038082111561475657600080fd5b614762888389016145db565b9550602087013591508082111561477857600080fd5b6147848883890161464f565b9450604087013591508082111561479a57600080fd5b506147a7878288016146aa565b949793965093946060013593505050565b6000602082840312156147ca57600080fd5b8135611b0481614538565b600081518084526020808501945080840160005b8381101561480e5781516001600160a01b0316875295820195908201906001016147e9565b509495945050505050565b600081518084526020808501945080840160005b8381101561480e5781518752958201959082019060010161482d565b600081518084526020808501808196508360051b8101915082860160005b8581101561489157828403895261487f8483516144f9565b98850198935090840190600101614867565b5091979650505050505050565b6080815260006148b160808301876147d5565b82810360208401526148c38187614819565b905082810360408401526148d78186614849565b9050828103606084015261152d8185614849565b600080600080600060a0868803121561490357600080fd5b853594506149136020870161431b565b93506149216040870161431b565b94979396509394606081013594506080013592915050565b634e487b7160e01b600052602160045260246000fd5b602081016008831061497157634e487b7160e01b600052602160045260246000fd5b91905290565b6000806040838503121561498a57600080fd5b82359150602083013561499c81614538565b809150509250929050565b600080604083850312156149ba57600080fd5b823591506149ca6020840161431b565b90509250929050565b6000806000806000608086880312156149eb57600080fd5b853594506149fb6020870161431b565b935060408601356001600160401b0380821115614a1757600080fd5b614a2389838a01614331565b90955093506060880135915080821115614a3c57600080fd5b50614a49888289016143b8565b9150509295509295909350565b60008060008060608587031215614a6c57600080fd5b84359350614a7c6020860161431b565b925060408501356001600160401b03811115614a9757600080fd5b614aa387828801614331565b95989497509550505050565b60008060008060808587031215614ac557600080fd5b84356001600160401b0380821115614adc57600080fd5b614ae8888389016145db565b95506020870135915080821115614afe57600080fd5b614b0a8883890161464f565b94506040870135915080821115614b2057600080fd5b614b2c888389016146aa565b93506060870135915080821115614b4257600080fd5b506145ac878288016143b8565b600080600060608486031215614b6457600080fd5b8335614b6f81614538565b92506020840135915060408401356001600160401b03811115614b9157600080fd5b614b9d868287016143b8565b9150509250925092565b600080600080600060a08688031215614bbf57600080fd5b8535614bca81614538565b94506020860135614bda81614538565b935060408601356001600160401b0380821115614bf657600080fd5b614c0289838a0161464f565b94506060880135915080821115614c1857600080fd5b614c2489838a0161464f565b93506080880135915080821115614a3c57600080fd5b60008060008060608587031215614c5057600080fd5b8435614c5b81614538565b93506020850135925060408501356001600160401b03811115614a9757600080fd5b600082601f830112614c8e57600080fd5b81356020614c9e6145fc836145b8565b82815260059290921b84018101918181019086841115614cbd57600080fd5b8286015b848110156146445780356001600160401b03811115614ce05760008081fd5b614cee8986838b01016143b8565b845250918301918301614cc1565b600080600080600060a08688031215614d1457600080fd5b85356001600160401b0380821115614d2b57600080fd5b614d3789838a016145db565b96506020880135915080821115614d4d57600080fd5b614d5989838a0161464f565b95506040880135915080821115614d6f57600080fd5b614d7b89838a01614c7d565b94506060880135915080821115614d9157600080fd5b614c2489838a016146aa565b60008060408385031215614db057600080fd5b8235614dbb81614538565b946020939093013593505050565b600080600080600060a08688031215614de157600080fd5b8535614dec81614538565b94506020860135614dfc81614538565b9350604086013592506060860135915060808601356001600160401b03811115614e2557600080fd5b614a49888289016143b8565b60008060008060808587031215614e4757600080fd5b84356001600160401b03811115614e5d57600080fd5b614e69878288016143b8565b9450506020850135614e7a81614538565b92506040850135614e8a81614538565b91506060850135614e9a81614538565b939692955090935050565b8183823760009101908152919050565b600181811c90821680614ec957607f821691505b60208210811415614eea57634e487b7160e01b600052602260045260246000fd5b50919050565b600060208284031215614f0257600080fd5b5051919050565b634e487b7160e01b600052601160045260246000fd5b6000816000190483118215151615614f3957614f39614f09565b500290565b600082614f5b57634e487b7160e01b600052601260045260246000fd5b500490565b600082821015614f7257614f72614f09565b500390565b634e487b7160e01b600052603260045260246000fd5b608081526000614fa060808301876147d5565b8281036020840152614fb28187614819565b90508281036040840152614fc68186614849565b91505082606083015295945050505050565b600060208284031215614fea57600080fd5b81518015158114611b0457600080fd5b84815260ff84166020820152826040820152608060608201526000611a3e60808301846144f9565b85815260ff8516602082015283604082015260a06060820152600061504a60a08301856144f9565b828103608084015261505c81856144f9565b98975050505050505050565b600060001982141561507c5761507c614f09565b5060010190565b6001600160e01b03198316815281516000906150a68160048501602087016144cd565b919091016004019392505050565b6020808252602b908201527f496e697469616c697a61626c653a20636f6e7472616374206973206e6f74206960408201526a6e697469616c697a696e6760a81b606082015260800190565b6000821982111561511257615112614f09565b500190565b600082516151298184602087016144cd565b9190910192915050565b60208082526021908201527f476f7665726e6f723a20696e76616c69642070726f706f73616c206c656e67746040820152600d60fb1b606082015260800190565b60006001600160401b0380831681851680830382111561519657615196614f09565b01949350505050565b8981526001600160a01b0389166020820152610120604082018190526000906151ca8382018b6147d5565b905082810360608401526151de818a614819565b905082810360808401526151f28189614849565b905082810360a08401526152068188614849565b6001600160401b0387811660c0860152861660e0850152838103610100850152905061523281856144f9565b9c9b50505050505050505050505056fe476f7665726e6f723a2072656c617920726576657274656420776974686f7574206d657373616765476f7665726e6f723a2063616c6c20726576657274656420776974686f7574206d657373616765a26469706673582212209f921e56c198434d7036ce6c08c6bd04c513ff5881917b7218c1d03757a0b2fa64736f6c634300080c0033",
  "linkReferences": {},
  "deployedLinkReferences": {}
}