{
  "_format": "hh-sol-artifact-1",
  "contractName": "GenerativeProjectData",
  "sourceName": "contracts/data/GenerativeProjectData.sol",
  "abi": [
    {
      "anonymous": false,
      "inputs": [
        {
          "indexed": false,
          "internalType": "uint8",
          "name": "version",
          "type": "uint8"
        }
      ],
      "name": "Initialized",
      "type": "event"
    },
    {
      "anonymous": false,
      "inputs": [
        {
          "indexed": true,
          "internalType": "address",
          "name": "previousOwner",
          "type": "address"
        },
        {
          "indexed": true,
          "internalType": "address",
          "name": "newOwner",
          "type": "address"
        }
      ],
      "name": "OwnershipTransferred",
      "type": "event"
    },
    {
      "inputs": [],
      "name": "_admin",
      "outputs": [
        {
          "internalType": "address",
          "name": "",
          "type": "address"
        }
      ],
      "stateMutability": "view",
      "type": "function"
    },
    {
      "inputs": [],
      "name": "_generativeProjectAddr",
      "outputs": [
        {
          "internalType": "address",
          "name": "",
          "type": "address"
        }
      ],
      "stateMutability": "view",
      "type": "function"
    },
    {
      "inputs": [],
      "name": "_paramAddr",
      "outputs": [
        {
          "internalType": "address",
          "name": "",
          "type": "address"
        }
      ],
      "stateMutability": "view",
      "type": "function"
    },
    {
      "inputs": [
        {
          "internalType": "address",
          "name": "newAdm",
          "type": "address"
        }
      ],
      "name": "changeAdmin",
      "outputs": [],
      "stateMutability": "nonpayable",
      "type": "function"
    },
    {
      "inputs": [
        {
          "internalType": "address",
          "name": "newAddr",
          "type": "address"
        }
      ],
      "name": "changeParamAddress",
      "outputs": [],
      "stateMutability": "nonpayable",
      "type": "function"
    },
    {
      "inputs": [
        {
          "internalType": "address",
          "name": "newAddr",
          "type": "address"
        }
      ],
      "name": "changeProjectAddress",
      "outputs": [],
      "stateMutability": "nonpayable",
      "type": "function"
    },
    {
      "inputs": [
        {
          "internalType": "string",
          "name": "script",
          "type": "string"
        }
      ],
      "name": "inflateScript",
      "outputs": [
        {
          "internalType": "string",
          "name": "result",
          "type": "string"
        },
        {
          "internalType": "enum Inflate.ErrorCode",
          "name": "err",
          "type": "uint8"
        }
      ],
      "stateMutability": "view",
      "type": "function"
    },
    {
      "inputs": [
        {
          "internalType": "address",
          "name": "admin",
          "type": "address"
        },
        {
          "internalType": "address",
          "name": "paramAddr",
          "type": "address"
        },
        {
          "internalType": "address",
          "name": "generativeProjectAddr",
          "type": "address"
        }
      ],
      "name": "initialize",
      "outputs": [],
      "stateMutability": "nonpayable",
      "type": "function"
    },
    {
      "inputs": [],
      "name": "owner",
      "outputs": [
        {
          "internalType": "address",
          "name": "",
          "type": "address"
        }
      ],
      "stateMutability": "view",
      "type": "function"
    },
    {
      "inputs": [
        {
          "internalType": "uint256",
          "name": "projectId",
          "type": "uint256"
        }
      ],
      "name": "projectURI",
      "outputs": [
        {
          "internalType": "string",
          "name": "result",
          "type": "string"
        }
      ],
      "stateMutability": "view",
      "type": "function"
    },
    {
      "inputs": [],
      "name": "renounceOwnership",
      "outputs": [],
      "stateMutability": "nonpayable",
      "type": "function"
    },
    {
      "inputs": [
        {
          "internalType": "uint256",
          "name": "projectId",
          "type": "uint256"
        },
        {
          "internalType": "uint256",
          "name": "tokenId",
          "type": "uint256"
        },
        {
          "internalType": "bytes32",
          "name": "seed",
          "type": "bytes32"
        }
      ],
      "name": "tokenBaseURI",
      "outputs": [
        {
          "internalType": "string",
          "name": "result",
          "type": "string"
        }
      ],
      "stateMutability": "view",
      "type": "function"
    },
    {
      "inputs": [
        {
          "internalType": "uint256",
          "name": "projectId",
          "type": "uint256"
        },
        {
          "internalType": "uint256",
          "name": "tokenId",
          "type": "uint256"
        },
        {
          "internalType": "bytes32",
          "name": "seed",
          "type": "bytes32"
        }
      ],
      "name": "tokenHTML",
      "outputs": [
        {
          "internalType": "string",
          "name": "result",
          "type": "string"
        }
      ],
      "stateMutability": "view",
      "type": "function"
    },
    {
      "inputs": [
        {
          "internalType": "uint256",
          "name": "projectId",
          "type": "uint256"
        },
        {
          "internalType": "uint256",
          "name": "tokenId",
          "type": "uint256"
        },
        {
          "internalType": "bytes32",
          "name": "seed",
          "type": "bytes32"
        }
      ],
      "name": "tokenURI",
      "outputs": [
        {
          "internalType": "string",
          "name": "result",
          "type": "string"
        }
      ],
      "stateMutability": "view",
      "type": "function"
    },
    {
      "inputs": [
        {
          "internalType": "address",
          "name": "newOwner",
          "type": "address"
        }
      ],
      "name": "transferOwnership",
      "outputs": [],
      "stateMutability": "nonpayable",
      "type": "function"
    }
  ],
  "bytecode": "0x608060405234801561001057600080fd5b50614f5d806100206000396000f3fe608060405234801561001057600080fd5b50600436106100f55760003560e01c80637af34af211610097578063c0c53b8b11610066578063c0c53b8b146101f8578063e80828581461020b578063f2fde38b1461021e578063f4a290f71461023157600080fd5b80637af34af2146101a05780638da5cb5b146101c15780638f283970146101d257806394139301146101e557600080fd5b806346eaa748116100d357806346eaa7481461015f578063567fdcf314610172578063715018a61461018557806379ebc6f01461018d57600080fd5b806301bc45c9146100fa57806316a5041f1461012a57806331c7280c1461013f575b600080fd5b60655461010d906001600160a01b031681565b6040516001600160a01b0390911681526020015b60405180910390f35b61013d610138366004613963565b610244565b005b61015261014d366004613980565b6102de565b6040516101219190613a04565b61015261016d366004613980565b6106bd565b60675461010d906001600160a01b031681565b61013d610826565b61015261019b366004613a17565b61083a565b6101b36101ae366004613ae8565b610bc7565b604051610121929190613b7d565b6033546001600160a01b031661010d565b61013d6101e0366004613963565b610d47565b6101526101f3366004613980565b610dd9565b61013d610206366004613bbd565b61105f565b61013d610219366004613963565b6111b0565b61013d61022c366004613963565b611242565b60665461010d906001600160a01b031681565b6065546001600160a01b03163314801561026657506001600160a01b03811615155b6040518060400160405280600381526020016231303160e81b815250906102a95760405162461bcd60e51b81526004016102a09190613a04565b60405180910390fd5b506066546001600160a01b038281169116146102db57606580546001600160a01b0319166001600160a01b0383161790555b50565b6067546040516346ec8d2b60e11b8152600481018590526060916001600160a01b0316906000908290638dd91a5690602401600060405180830381865afa15801561032d573d6000803e3d6000fd5b505050506040513d6000823e601f3d908101601f191682016040526103559190810190613e5e565b9050600060405180602001604052806000815250905060606000805b846101800151518110156104aa57306001600160a01b0316637af34af286610180015183815181106103a5576103a56140be565b60200260200101516040518263ffffffff1660e01b81526004016103c99190613a04565b600060405180830381865afa1580156103e6573d6000803e3d6000fd5b505050506040513d6000823e601f3d908101601f1916820160405261040e91908101906140d4565b9093509150600082600e81111561042757610427613b67565b1461047357838561018001518281518110610444576104446140be565b602002602001015160405160200161045d929190614145565b6040516020818303038152906040529350610498565b8383604051602001610486929190614174565b60405160208183030381529060405293505b806104a2816141e3565b915050610371565b50600060405180602001604052806000815250905060006040518061040001604052806103c68152602001614ae26103c691396066549091506001600160a01b03161561066f576066546001600160a01b031660005b876101600151518110156105d35783826001600160a01b031663693ec85e8a61016001518481518110610535576105356140be565b60200260200101516040518263ffffffff1660e01b81526004016105599190613a04565b600060405180830381865afa158015610576573d6000803e3d6000fd5b505050506040513d6000823e601f3d908101601f1916820160405261059e91908101906141fe565b6040516020016105af929190614145565b604051602081830303815290604052935080806105cb906141e3565b915050610500565b5060408051808201825260128152711490539113d357d1955390d7d4d0d492541560721b6020820152905163349f642f60e11b81526001600160a01b0383169163693ec85e916106269190600401613a04565b600060405180830381865afa158015610643573d6000803e3d6000fd5b505050506040513d6000823e601f3d908101601f1916820160405261066b91908101906141fe565b9150505b816106798b6112b8565b6106828b611354565b6101a089015160405161069e9493929186918b90602001614232565b6040516020818303038152906040529750505050505050509392505050565b6066546040805180820182526008815267424153455f55524960c01b6020820152905163349f642f60e11b81526060926001600160a01b031691600091839163693ec85e9161070f9190600401613a04565b600060405180830381865afa15801561072c573d6000803e3d6000fd5b505050506040513d6000823e601f3d908101601f1916820160405261075491908101906141fe565b6067546040516346ec8d2b60e11b8152600481018990529192506001600160a01b0316906000908290638dd91a5690602401600060405180830381865afa1580156107a3573d6000803e3d6000fd5b505050506040513d6000823e601f3d908101601f191682016040526107cb9190810190613e5e565b60675490915083906107e5906001600160a01b03166113a0565b6107ee896112b8565b6107f789611354565b60405160200161080a94939291906143e5565b6040516020818303038152906040529450505050509392505050565b61082e6113bc565b6108386000611416565b565b60606108966040518061010001604052806060815260200160006001600160a01b031681526020016060815260200160608152602001606081526020016060815260200160006001600160a01b03168152602001606081525090565b6067546040516346ec8d2b60e11b8152600481018590526001600160a01b03909116906000908290638dd91a5690602401600060405180830381865afa1580156108e4573d6000803e3d6000fd5b505050506040513d6000823e601f3d908101601f1916820160405261090c9190810190613e5e565b9050600061091d620f424087614467565b905060006109f6306001600160a01b03166331c7280c89858660405160200161094891815260200190565b604051602081830303815290604052805190602001206040518463ffffffff1660e01b815260040161098d939291909283526020830191909152604082015260600190565b600060405180830381865afa1580156109aa573d6000803e3d6000fd5b505050506040513d6000823e601f3d908101601f191682016040526109d291908101906141fe565b6040516020016109e29190614486565b604051602081830303815290604052611468565b604051602001610a0691906144a2565b60405160208183030381529060405290508260800151610a25886112b8565b604051602001610a36929190614504565b60408051601f19818403018152918152868101919091526101008401516080870152610120840151606087015260a08087018390526101e08501516001600160a01b0390811660c0808a019190915286015116602088810191909152908501518752815190810190915260008082525b846101600151518160ff161015610b265781610ace610ac6836001614541565b60ff166112b8565b8661016001518360ff1681518110610ae857610ae86140be565b6020026020010151604051602001610b0293929190614566565b60405160208183030381529060405291508080610b1e906145f4565b915050610aa6565b50610b348660c001516113a0565b86516020880151610b44906113a0565b8660e0015184604051602001610b5e959493929190614614565b60408051601f1981840301815291815260e0880182905287810151608089015160608a015160a08b01519351610b9b956109e29591602001614795565b604051602001610bab919061487a565b6040516020818303038152906040529650505050505050919050565b6060600080610be46009808651610bde91906148bf565b866115cd565b90506000610bf1826116b5565b90506060610c0c8283516005610c079190614467565b611823565b9094509050600084600e811115610c2557610c25613b67565b1415610d2c5760005b818181518110610c4057610c406140be565b01602001516001600160f81b031916610c5857610c78565b80610c62816141e3565b9150508151811415610c7357610c78565b610c2e565b6000816001600160401b03811115610c9257610c92613a30565b6040519080825280601f01601f191660200182016040528015610cbc576020820181803683370190505b50905060005b82811015610d2257838181518110610cdc57610cdc6140be565b602001015160f81c60f81b828281518110610cf957610cf96140be565b60200101906001600160f81b031916908160001a90535080610d1a816141e3565b915050610cc2565b509550610d3f9050565b6040518060200160405280600081525094505b505050915091565b6065546001600160a01b031633148015610d6957506001600160a01b03811615155b6040518060400160405280600381526020016231303160e81b81525090610da35760405162461bcd60e51b81526004016102a09190613a04565b506065546001600160a01b038281169116146102db57606580546001600160a01b0383166001600160a01b031990911617905550565b6060610e0d6040518060a0016040528060608152602001606081526020016060815260200160608152602001606081525090565b606654604080518082018252600e81526d109054d157d5549257d51490525560921b6020820152905163349f642f60e11b81526001600160a01b0390921691829163693ec85e91610e619190600401613a04565b600060405180830381865afa158015610e7e573d6000803e3d6000fd5b505050506040513d6000823e601f3d908101601f19168201604052610ea691908101906141fe565b60408381019190915260675490516346ec8d2b60e11b8152600481018890526001600160a01b03909116906000908290638dd91a5690602401600060405180830381865afa158015610efc573d6000803e3d6000fd5b505050506040513d6000823e601f3d908101601f19168201604052610f249190810190613e5e565b604051630c71ca0360e21b8152600481018a90526024810189905260448101889052909150610f5d9030906331c7280c9060640161098d565b604051602001610f6d91906144a2565b60408051601f1981840301815291905260608501526080810151610f90886112b8565b604051602001610fa1929190614504565b60408051601f19818403018152919052845261010081015160208501526102008101515115610fd65761020081015160208501525b6040840151606754610ff0906001600160a01b03166113a0565b610ff9896112b8565b61100289611354565b60405160200161101594939291906143e5565b60408051601f1981840301815291815285810182905285516020878101516060890151935161104f956109e29592939092918391016148d6565b60405160200161080a919061487a565b600054610100900460ff161580801561107f5750600054600160ff909116105b806110995750303b158015611099575060005460ff166001145b6110fc5760405162461bcd60e51b815260206004820152602e60248201527f496e697469616c697a61626c653a20636f6e747261637420697320616c72656160448201526d191e481a5b9a5d1a585b1a5e995960921b60648201526084016102a0565b6000805460ff19166001179055801561111f576000805461ff0019166101001790555b606580546001600160a01b038087166001600160a01b031992831617909255606680548684169083161790556067805492851692909116919091179055611164611ad4565b80156111aa576000805461ff0019169055604051600181527f7f26b83ff96e1f2b6a682f133852f6798a09c465da95921460cefb38474024989060200160405180910390a15b50505050565b6065546001600160a01b0316331480156111d257506001600160a01b03811615155b6040518060400160405280600381526020016231303160e81b8152509061120c5760405162461bcd60e51b81526004016102a09190613a04565b506067546001600160a01b038281169116146102db57606780546001600160a01b0383166001600160a01b031990911617905550565b61124a6113bc565b6001600160a01b0381166112af5760405162461bcd60e51b815260206004820152602660248201527f4f776e61626c653a206e6577206f776e657220697320746865207a65726f206160448201526564647265737360d01b60648201526084016102a0565b6102db81611416565b606060006112c583611b03565b60010190506000816001600160401b038111156112e4576112e4613a30565b6040519080825280601f01601f19166020018201604052801561130e576020820181803683370190505b5090508181016020015b600019016f181899199a1a9b1b9c1cb0b131b232b360811b600a86061a8153600a85049450846113475761134c565b611318565b509392505050565b606061135f82611bdb565b61136c608084901b611bdb565b60405161060f60f31b6020820152602281019290925260428201526062016040516020818303038152906040529050919050565b60606113b66001600160a01b0383166014611d8d565b92915050565b6033546001600160a01b031633146108385760405162461bcd60e51b815260206004820181905260248201527f4f776e61626c653a2063616c6c6572206973206e6f7420746865206f776e657260448201526064016102a0565b603380546001600160a01b038381166001600160a01b0319831681179093556040519116919082907f8be0079c531659141344cd1fd0a4f28419497f9722a3daafe3b4186f6b6457e090600090a35050565b606081516000141561148857505060408051602081019091526000815290565b6000604051806060016040528060408152602001614aa260409139905060006003845160026114b791906149ff565b6114c19190614a17565b6114cc906004614467565b905060006114db8260206149ff565b6001600160401b038111156114f2576114f2613a30565b6040519080825280601f01601f19166020018201604052801561151c576020820181803683370190505b509050818152600183018586518101602084015b81831015611588576003830192508251603f8160121c168501518253600182019150603f81600c1c168501518253600182019150603f8160061c168501518253600182019150603f8116850151825350600101611530565b6003895106600181146115a257600281146115b3576115bf565b613d3d60f01b6001198301526115bf565b603d60f81b6000198301525b509398975050505050505050565b606060006115db85856148bf565b6115e69060016149ff565b6001600160401b038111156115fd576115fd613a30565b6040519080825280601f01601f191660200182016040528015611627576020820181803683370190505b50905060005b61163786866148bf565b81116116aa5783600161164a88846149ff565b61165491906148bf565b81518110611664576116646140be565b602001015160f81c60f81b828281518110611681576116816140be565b60200101906001600160f81b031916908160001a905350806116a2816141e3565b91505061162d565b5090505b9392505050565b8051606090829015806116d45750600481516116d19190614a2b565b15155b156116ef57604080516000808252602082019092529061134c565b60006040518060a0016040528060808152602001614ea860809139905060006004835161171c9190614a17565b611727906003614467565b905060006117368260206149ff565b6001600160401b0381111561174d5761174d613a30565b6040519080825280601f01601f191660200182016040528015611777576020820181803683370190505b5090508351840151603d60ff821614156117a657600183039250613d3d61ffff821614156117a6576001830392505b50818152600183018485518101602084015b8183101561181557600483019250825160ff8082168601511660ff808360081c168701511660061b0160ff808360101c1687015116600c1b60ff808460181c168801511660121b010190508060e81b8252506003810190506117b8565b509298975050505050505050565b600060606000604051806101000160405280856001600160401b0381111561184d5761184d613a30565b6040519080825280601f01601f191660200182016040528015611877576020820181803683370190505b508152602001600081526020018681526020016000815260200160008152602001600081526020016040518060400160405280600f60016118b891906149ff565b6001600160401b038111156118cf576118cf613a30565b6040519080825280602002602001820160405280156118f8578160200160208202803683370190505b5081526040805161012080825261242082019092526020928301929091908201612400803683370190505081525081526020016040518060400160405280600f600161194491906149ff565b6001600160401b0381111561195b5761195b613a30565b604051908082528060200260200182016040528015611984578160200160208202803683370190505b50815260408051601e8082526103e0820190925260209283019290919082016103c080368337505050905290529050600080806119c084611f28565b9050600081600e8111156119d6576119d6613b67565b146119eb579251929450919250611acd915050565b82611ac2576119fb8460016120b2565b93509050600081600e811115611a1357611a13613b67565b14611a28579251929450919250611acd915050565b611a338460026120b2565b92509050600081600e811115611a4b57611a4b613b67565b14611a60579251929450919250611acd915050565b8115611a945781600114611a8b5781600214611a7d576003611a9d565b611a8684612183565b611a9d565b611a86846121fd565b611a9d84612212565b9050600081600e811115611ab357611ab3613b67565b14611abd57611ac2565b6119eb565b925192945091925050505b9250929050565b600054610100900460ff16611afb5760405162461bcd60e51b81526004016102a090614a3f565b610838612422565b60008072184f03e93ff9f4daa797ed6e38ed64bf6a1f0160401b8310611b425772184f03e93ff9f4daa797ed6e38ed64bf6a1f0160401b830492506040015b6d04ee2d6d415b85acef81000000008310611b6e576d04ee2d6d415b85acef8100000000830492506020015b662386f26fc100008310611b8c57662386f26fc10000830492506010015b6305f5e1008310611ba4576305f5e100830492506008015b6127108310611bb857612710830492506004015b60648310611bca576064830492506002015b600a83106113b65760010192915050565b7aff00000000000000ff00000000000000ff00000000000000ff00006bffffffff0000000000000000604083901c90811663ffffffff60c01b84161760201c63ffffffff60601b919091166001600160e01b031984161717601081901c9182167eff00000000000000ff00000000000000ff00000000000000ff000000000000821617600890811c7bff00000000000000ff00000000000000ff00000000000000ff000000939093167fff00000000000000ff00000000000000ff00000000000000ff000000000000009290921691909117919091179081901c7e0f000f000f000f000f000f000f000f000f000f000f000f000f000f000f000f167f0f000f000f000f000f000f000f000f000f000f000f000f000f000f000f000f00600492831c161790611d29827f06060606060606060606060606060606060606060606060606060606060606066149ff565b901c7f0f0f0f0f0f0f0f0f0f0f0f0f0f0f0f0f0f0f0f0f0f0f0f0f0f0f0f0f0f0f0f0f166007611d599190614467565b611d83827f30303030303030303030303030303030303030303030303030303030303030306149ff565b6113b691906149ff565b60606000611d9c836002614467565b611da79060026149ff565b6001600160401b03811115611dbe57611dbe613a30565b6040519080825280601f01601f191660200182016040528015611de8576020820181803683370190505b509050600360fc1b81600081518110611e0357611e036140be565b60200101906001600160f81b031916908160001a905350600f60fb1b81600181518110611e3257611e326140be565b60200101906001600160f81b031916908160001a9053506000611e56846002614467565b611e619060016149ff565b90505b6001811115611ed9576f181899199a1a9b1b9c1cb0b131b232b360811b85600f1660108110611e9557611e956140be565b1a60f81b828281518110611eab57611eab6140be565b60200101906001600160f81b031916908160001a90535060049490941c93611ed281614a8a565b9050611e64565b5083156116ae5760405162461bcd60e51b815260206004820181905260248201527f537472696e67733a20686578206c656e67746820696e73756666696369656e7460448201526064016102a0565b604080516101208082526124208201909252600091829182916020820161240080368337019050509050600091505b6090821015611f91576008818381518110611f7457611f746140be565b602090810291909101015281611f89816141e3565b925050611f57565b610100821015611fcc576009818381518110611faf57611faf6140be565b602090810291909101015281611fc4816141e3565b925050611f91565b610118821015612007576007818381518110611fea57611fea6140be565b602090810291909101015281611fff816141e3565b925050611fcc565b610120821015612042576008818381518110612025576120256140be565b60209081029190910101528161203a816141e3565b925050612007565b6120558460c00151826101206000612452565b50600091505b601e821015612095576005818381518110612078576120786140be565b60209081029190910101528161208d816141e3565b92505061205b565b6120a78460e0015182601e6000612452565b506000949350505050565b608082015160009081905b838560a00151101561214657846040015151856060015114156120e857600160009250925050611acd565b60a0850151604086015160608701805190612102826141e3565b905281518110612114576121146140be565b602001015160f81c60f81b60f81c60ff16901b8117905060088560a00181815161213e91906149ff565b9052506120bd565b80841c608086015260a0850180518591906121629083906148bf565b9052506000612174600180871b6148bf565b60009792169550909350505050565b60006121a2604051806040016040528060608152602001606081525090565b604080518082019091526060808252602082015260006121c18561271d565b90945092509050600081600e8111156121dc576121dc613b67565b146121e957949350505050565b6121f4858484612dd3565b95945050505050565b60006113b6828360c001518460e00151612dd3565b60006080820181905260a08201819052604082015151606083015182919061223b9060046149ff565b111561224a5750600192915050565b60408301516060840180519061225f826141e3565b905281518110612271576122716140be565b0160200151604084015160608501805160f89390931c935060089290612296826141e3565b9052815181106122a8576122a86140be565b602001015160f81c60f81b60f81c60ff16901b81179050801960ff1683604001518460600180518091906122db906141e3565b9052815181106122ed576122ed6140be565b016020015160f81c1415806123385750604083015160608401805160ff841960081c16929161231b826141e3565b90528151811061232d5761232d6140be565b016020015160f81c14155b156123465750600492915050565b82604001515181846060015161235c91906149ff565b111561236b5750600192915050565b825151602084015161237e9083906149ff565b111561238d5750600292915050565b80156124195761239e6001826148bf565b905082604001518360600180518091906123b7906141e3565b9052815181106123c9576123c96140be565b602001015160f81c60f81b83600001518460200180518091906123eb906141e3565b9052815181106123fd576123fd6140be565b60200101906001600160f81b031916908160001a90535061238d565b50600092915050565b600054610100900460ff166124495760405162461bcd60e51b81526004016102a090614a3f565b61083833611416565b60008060008061246061392f565b600092505b600f83116124a257600089600001518481518110612485576124856140be565b60209081029190910101528261249a816141e3565b935050612465565b600093505b8684101561250e578851886124bc86896149ff565b815181106124cc576124cc6140be565b6020026020010151815181106124e4576124e46140be565b6020026020010180518091906124f9906141e3565b90525083612506816141e3565b9450506124a7565b868960000151600081518110612526576125266140be565b60200260200101511415612541576000945050505050612715565b60019150600192505b600f83116125c4578851805160019390931b928490811061256d5761256d6140be565b602002602001015182101561258957600e945050505050612715565b885180518490811061259d5761259d6140be565b6020026020010151826125b091906148bf565b9150826125bc816141e3565b93505061254a565b60006020820152600192505b600f8310156126495788518051849081106125ed576125ed6140be565b6020026020010151818460108110612607576126076140be565b602002015161261691906149ff565b816126228560016149ff565b60108110612632576126326140be565b602002015282612641816141e3565b9350506125d0565b600093505b868410156126fc578761266185886149ff565b81518110612671576126716140be565b60200260200101516000146126ea5760208901518490828a612693848b6149ff565b815181106126a3576126a36140be565b6020026020010151601081106126bb576126bb6140be565b602002018051906126cb826141e3565b9052815181106126dd576126dd6140be565b6020026020010181815250505b836126f4816141e3565b94505061264e565b6000821161270b57600061270e565b600e5b9450505050505b949350505050565b600061273c604051806040016040528060608152602001606081525090565b6040805180820190915260608082526020820152600080808080612763601e61011e6149ff565b6001600160401b0381111561277a5761277a613a30565b6040519080825280602002602001820160405280156127a3578160200160208202803683370190505b50905060006040518060400160405280600f60016127c191906149ff565b6001600160401b038111156127d8576127d8613a30565b604051908082528060200260200182016040528015612801578160200160208202803683370190505b5081526040805161011e8082526123e0820190925260209283019290919082016123c08036833701905050815250905060006040518060400160405280600f600161284c91906149ff565b6001600160401b0381111561286357612863613a30565b60405190808252806020026020018201604052801561288c578160200160208202803683370190505b50815260408051601e8082526103e0820190925260209283019290919082016103c0803683375050509052905060006128c68c60056120b2565b98509450600085600e8111156128de576128de613b67565b146128f657509298509650909450612dcc9350505050565b612902610101896149ff565b975061290f8c60056120b2565b97509450600085600e81111561292757612927613b67565b1461293f57509298509650909450612dcc9350505050565b61294a6001886149ff565b965061011e88118061295c5750601e87115b156129765750600599509097509550612dcc945050505050565b61297f8c6135fe565b9095509350600085600e81111561299857612998613b67565b146129b057509298509650909450612dcc9350505050565b6129be838560136000612452565b9450600085600e8111156129d4576129d4613b67565b146129ee5750600699509097509550612dcc945050505050565b600095505b6129fd87896149ff565b861015612bf657600080612a118e86613820565b9097509150600087600e811115612a2a57612a2a613b67565b14612a445750949a509198509650612dcc95505050505050565b6010821015612a7c57818689612a59816141e3565b9a5081518110612a6b57612a6b6140be565b602002602001018181525050612bef565b5060006010821415612b1b5787612aa5575060079b50929950909750612dcc9650505050505050565b85612ab160018a6148bf565b81518110612ac157612ac16140be565b60200260200101519050612ad68e60026120b2565b9097509250600087600e811115612aef57612aef613b67565b14612b095750949a509198509650612dcc95505050505050565b612b148360036149ff565b9150612b7b565b8160111415612b2f57612ad68e60036120b2565b612b3a8e60076120b2565b9097509250600087600e811115612b5357612b53613b67565b14612b6d5750949a509198509650612dcc95505050505050565b612b7883600b6149ff565b91505b612b85898b6149ff565b612b8f838a6149ff565b1115612bad575060089b50929950909750612dcc9650505050505050565b8115612bef57612bbe6001836148bf565b9150808689612bcc816141e3565b9a5081518110612bde57612bde6140be565b602002602001018181525050612bad565b50506129f3565b8361010081518110612c0a57612c0a6140be565b602002602001015160001415612c2f5750600b99509097509550612dcc945050505050565b612c3c83858a6000612452565b9450600085600e811115612c5257612c52613b67565b14158015612cdc5750600185600e811115612c6f57612c6f613b67565b1480612c8c5750600285600e811115612c8a57612c8a613b67565b145b80612cdc5750825180516001908110612ca757612ca76140be565b60200260200101518360000151600081518110612cc657612cc66140be565b6020026020010151612cd891906149ff565b8814155b15612cf65750600999509097509550612dcc945050505050565b612d028285898b612452565b9450600085600e811115612d1857612d18613b67565b14158015612da25750600185600e811115612d3557612d35613b67565b1480612d525750600285600e811115612d5057612d50613b67565b145b80612da25750815180516001908110612d6d57612d6d6140be565b60200260200101518260000151600081518110612d8c57612d8c6140be565b6020026020010151612d9e91906149ff565b8714155b15612dbc5750600a99509097509550612dcc945050505050565b5060009950909750955050505050505b9193909250565b6000806000806000604051806103a00160405280600361ffff168152602001600461ffff168152602001600561ffff168152602001600661ffff168152602001600761ffff168152602001600861ffff168152602001600961ffff168152602001600a61ffff168152602001600b61ffff168152602001600d61ffff168152602001600f61ffff168152602001601161ffff168152602001601361ffff168152602001601761ffff168152602001601b61ffff168152602001601f61ffff168152602001602361ffff168152602001602b61ffff168152602001603361ffff168152602001603b61ffff168152602001604361ffff168152602001605361ffff168152602001606361ffff168152602001607361ffff168152602001608361ffff16815260200160a361ffff16815260200160c361ffff16815260200160e361ffff16815260200161010261ffff1681525090506000604051806103a00160405280600060ff168152602001600060ff168152602001600060ff168152602001600060ff168152602001600060ff168152602001600060ff168152602001600060ff168152602001600060ff168152602001600160ff168152602001600160ff168152602001600160ff168152602001600160ff168152602001600260ff168152602001600260ff168152602001600260ff168152602001600260ff168152602001600360ff168152602001600360ff168152602001600360ff168152602001600360ff168152602001600460ff168152602001600460ff168152602001600460ff168152602001600460ff168152602001600560ff168152602001600560ff168152602001600560ff168152602001600560ff168152602001600060ff1681525090506000604051806103c00160405280600161ffff168152602001600261ffff168152602001600361ffff168152602001600461ffff168152602001600561ffff168152602001600761ffff168152602001600961ffff168152602001600d61ffff168152602001601161ffff168152602001601961ffff168152602001602161ffff168152602001603161ffff168152602001604161ffff168152602001606161ffff168152602001608161ffff16815260200160c161ffff16815260200161010161ffff16815260200161018161ffff16815260200161020161ffff16815260200161030161ffff16815260200161040161ffff16815260200161060161ffff16815260200161080161ffff168152602001610c0161ffff16815260200161100161ffff16815260200161180161ffff16815260200161200161ffff16815260200161300161ffff16815260200161400161ffff16815260200161600161ffff1681525090506000604051806103c00160405280600060ff168152602001600060ff168152602001600060ff168152602001600060ff168152602001600160ff168152602001600160ff168152602001600260ff168152602001600260ff168152602001600360ff168152602001600360ff168152602001600460ff168152602001600460ff168152602001600560ff168152602001600560ff168152602001600660ff168152602001600660ff168152602001600760ff168152602001600760ff168152602001600860ff168152602001600860ff168152602001600960ff168152602001600960ff168152602001600a60ff168152602001600a60ff168152602001600b60ff168152602001600b60ff168152602001600c60ff168152602001600c60ff168152602001600d60ff168152602001600d60ff16815250905060005b87610100146135ec5761330d8c8c613820565b98509050600081600e81111561332557613325613b67565b146133395797506116ae9650505050505050565b6101008810156133af578b515160208d01511415613362576002985050505050505050506116ae565b8760f81b8c600001518d6020015181518110613380576133806140be565b60200101906001600160f81b031916908160001a90535060208c018051906133a7826141e3565b9052506132fa565b6101008811156135da5760006133c76101018a6148bf565b9850601d89106133e357600c99505050505050505050506116ae565b6134068d868b601d81106133f9576133f96140be565b602002015160ff166120b2565b9092509050600082600e81111561341f5761341f613b67565b14613434575097506116ae9650505050505050565b80868a601d8110613447576134476140be565b602002015161ffff1661345a91906149ff565b97506134668d8c613820565b99509150600082600e81111561347e5761347e613b67565b14613493575097506116ae9650505050505050565b6134a98d848b601e81106133f9576133f96140be565b9092509050600082600e8111156134c2576134c2613b67565b146134d7575097506116ae9650505050505050565b80848a601e81106134ea576134ea6140be565b602002015161ffff166134fd91906149ff565b96508c6020015187111561351d57600d99505050505050505050506116ae565b8c515160208e0151613530908a906149ff565b111561354857600299505050505050505050506116ae565b87156135d4576135596001896148bf565b97508c60000151878e6020015161357091906148bf565b81518110613580576135806140be565b602001015160f81c60f81b8d600001518e60200151815181106135a5576135a56140be565b60200101906001600160f81b031916908160001a90535060208d018051906135cc826141e3565b905250613548565b506132fa565b868c6020018181516133a791906149ff565b5060009b9a5050505050505050505050565b60006060818080613612601e61011e6149ff565b6001600160401b0381111561362957613629613a30565b604051908082528060200260200182016040528015613652578160200160208202803683370190505b506040805161026081018252601081526011602082015260129181019190915260006060820181905260086080830152600760a0830152600960c0830152600660e0830152600a6101008301526005610120830152600b61014083015260046101608301819052600c61018084015260036101a0840152600d6101c084015260026101e0840152600e6102008401526001610220840152600f610240840152929350916137009089906120b2565b95509150600082600e81111561371857613718613b67565b146137295750969095509350505050565b6137346004866149ff565b9450600093505b848410156137bd5761374e8860036120b2565b84838760138110613761576137616140be565b602002015160ff1681518110613779576137796140be565b60209081029190910101529150600082600e81111561379a5761379a613b67565b146137ab5750969095509350505050565b836137b5816141e3565b94505061373b565b6013841015613810576000838286601381106137db576137db6140be565b602002015160ff16815181106137f3576137f36140be565b602090810291909101015283613808816141e3565b9450506137bd565b5060009791965090945050505050565b600080600181808080805b600f861161391c5760006138408b60016120b2565b9092509050600082600e81111561385957613859613b67565b146138705750965060009550611acd945050505050565b895180519682179688908110613888576138886140be565b60200260200101519350838561389e91906149ff565b8610156138e95760208a01516000906138b787896148bf565b6138c190866149ff565b815181106138d1576138d16140be565b60200260200101519850985050505050505050611acd565b6138f384846149ff565b92506138ff84866149ff565b600196871b961b9450869050613914816141e3565b96505061382b565b50600c9960009950975050505050505050565b6040518061020001604052806010906020820280368337509192915050565b6001600160a01b03811681146102db57600080fd5b60006020828403121561397557600080fd5b81356116ae8161394e565b60008060006060848603121561399557600080fd5b505081359360208301359350604090920135919050565b60005b838110156139c75781810151838201526020016139af565b838111156111aa5750506000910152565b600081518084526139f08160208601602086016139ac565b601f01601f19169290920160200192915050565b6020815260006116ae60208301846139d8565b600060208284031215613a2957600080fd5b5035919050565b634e487b7160e01b600052604160045260246000fd5b60405160a081016001600160401b0381118282101715613a6857613a68613a30565b60405290565b60405161026081016001600160401b0381118282101715613a6857613a68613a30565b604051601f8201601f191681016001600160401b0381118282101715613ab957613ab9613a30565b604052919050565b60006001600160401b03821115613ada57613ada613a30565b50601f01601f191660200190565b600060208284031215613afa57600080fd5b81356001600160401b03811115613b1057600080fd5b8201601f81018413613b2157600080fd5b8035613b34613b2f82613ac1565b613a91565b818152856020838501011115613b4957600080fd5b81602084016020830137600091810160200191909152949350505050565b634e487b7160e01b600052602160045260246000fd5b604081526000613b9060408301856139d8565b9050600f8310613bb057634e487b7160e01b600052602160045260246000fd5b8260208301529392505050565b600080600060608486031215613bd257600080fd5b8335613bdd8161394e565b92506020840135613bed8161394e565b91506040840135613bfd8161394e565b809150509250925092565b805162ffffff81168114613c1b57600080fd5b919050565b8051613c1b8161394e565b600082601f830112613c3c57600080fd5b8151613c4a613b2f82613ac1565b818152846020838601011115613c5f57600080fd5b6127158260208301602087016139ac565b600060a08284031215613c8257600080fd5b613c8a613a46565b905081516001600160401b0380821115613ca357600080fd5b613caf85838601613c2b565b83526020840151915080821115613cc557600080fd5b613cd185838601613c2b565b60208401526040840151915080821115613cea57600080fd5b613cf685838601613c2b565b60408401526060840151915080821115613d0f57600080fd5b613d1b85838601613c2b565b60608401526080840151915080821115613d3457600080fd5b50613d4184828501613c2b565b60808301525092915050565b60006001600160401b03821115613d6657613d66613a30565b5060051b60200190565b600082601f830112613d8157600080fd5b81516020613d91613b2f83613d4d565b82815260059290921b84018101918181019086841115613db057600080fd5b8286015b84811015613def5780516001600160401b03811115613dd35760008081fd5b613de18986838b0101613c2b565b845250918301918301613db4565b509695505050505050565b600082601f830112613e0b57600080fd5b81516020613e1b613b2f83613d4d565b82815260059290921b84018101918181019086841115613e3a57600080fd5b8286015b84811015613def578051613e518161394e565b8352918301918301613e3e565b600060208284031215613e7057600080fd5b81516001600160401b0380821115613e8757600080fd5b908301906102608286031215613e9c57600080fd5b613ea4613a6e565b613ead83613c08565b8152613ebb60208401613c08565b602082015260408301516040820152613ed660608401613c20565b6060820152608083015182811115613eed57600080fd5b613ef987828601613c2b565b60808301525060a083015182811115613f1157600080fd5b613f1d87828601613c2b565b60a083015250613f2f60c08401613c20565b60c082015260e083015182811115613f4657600080fd5b613f5287828601613c2b565b60e0830152506101008084015183811115613f6c57600080fd5b613f7888828701613c2b565b8284015250506101208084015183811115613f9257600080fd5b613f9e88828701613c2b565b8284015250506101408084015183811115613fb857600080fd5b613fc488828701613c70565b8284015250506101608084015183811115613fde57600080fd5b613fea88828701613d70565b828401525050610180808401518381111561400457600080fd5b61401088828701613d70565b8284015250506101a0808401518381111561402a57600080fd5b61403688828701613c2b565b8284015250506101c08084015181830152506101e0614056818501613c20565b90820152610200838101518381111561406e57600080fd5b61407a88828701613c2b565b828401525050610220808401518381111561409457600080fd5b6140a088828701613dfa565b91830191909152506102409283015192810192909252509392505050565b634e487b7160e01b600052603260045260246000fd5b600080604083850312156140e757600080fd5b82516001600160401b038111156140fd57600080fd5b61410985828601613c2b565b9250506020830151600f811061411e57600080fd5b809150509250929050565b6000815161413b8185602086016139ac565b9290920192915050565b600083516141578184602088016139ac565b83519083019061416b8183602088016139ac565b01949350505050565b600083516141868184602088016139ac565b671e39b1b934b83a1f60c11b90830190815283516141ab8160088401602088016139ac565b681e17b9b1b934b83a1f60b91b60089290910191820152601101949350505050565b634e487b7160e01b600052601160045260246000fd5b60006000198214156141f7576141f76141cd565b5060010190565b60006020828403121561421057600080fd5b81516001600160401b0381111561422657600080fd5b61271584828501613c2b565b651e343a36b61f60d11b81527f3c686561643e3c6d65746120636861727365743d275554462d38273e00000000600682015260008751614279816022850160208c016139ac565b7f3c73637269707420747970653d22746578742f6a6176617363726970742220696022918401918201527f643d22736e69707065742d636f6e74726163742d636f6465223e6c657420746f60428201527435b2b72230ba30901e903d913a37b5b2b724b2111d60591b606282015287516142fa816077840160208c016139ac565b6a16101139b2b2b2111d101160a91b607792909101918201528651614326816082840160208b016139ac565b6143d76143c46143b16143ab61439261437e61437861436561435f60828a8c01016b113e9d9e17b9b1b934b83a1f60a11b8152600c0190565b8f614129565b661e39ba3cb6329f60c91b815260070190565b8c614129565b671e17b9ba3cb6329f60c11b815260080190565b6c1e17b432b0b21f1e3137b23c9f60991b8152600d0190565b88614129565b661e17b137b23c9f60c91b815260070190565b661e17b43a36b61f60c91b815260070190565b9a9950505050505050505050565b600085516143f7818460208a016139ac565b8083019050602f60f81b8082528651614417816001850160208b016139ac565b600192019182015284516144328160028401602089016139ac565b653f736565643d60d01b6002929091019182015283516144598160088401602088016139ac565b016008019695505050505050565b6000816000190483118215151615614481576144816141cd565b500290565b600082516144988184602087016139ac565b9190910192915050565b7f2c2022616e696d6174696f6e5f75726c223a22646174613a746578742f68746d8152681b0ed8985cd94d8d0b60ba1b6020820152600082516144ec8160298501602087016139ac565b601160f91b6029939091019283015250602a01919050565b600083516145168184602088016139ac565b61202360f01b90830190815283516145358160028401602088016139ac565b01600201949350505050565b600060ff821660ff84168060ff0382111561455e5761455e6141cd565b019392505050565b600084516145788184602089016139ac565b740163d913a3930b4ba2fba3cb832911d10112634b11605d1b90830190815284516145aa8160158401602089016139ac565b6c111610113b30b63ab2911d101160991b6015929091019182015283516145d88160228401602088016139ac565b61227d60f01b6022929091019182015260240195945050505050565b600060ff821660ff81141561460b5761460b6141cd565b60010192915050565b7f2c2261747472696275746573223a205b7b2274726169745f74797065223a202281527f436f6c6c656374696f6e2041646472657373222c202276616c7565223a20220060208201526000865161467281603f850160208b016139ac565b61227d60f01b603f9184019182018190527f2c7b2274726169745f74797065223a202243726561746f72222c202276616c7560418301526432911d101160d91b606183015287516146ca816066850160208c016139ac565b60669201918201527f2c7b2274726169745f74797065223a202243726561746f72204164647265737360688201526c111610113b30b63ab2911d101160991b608882015261478961477c61477661472b61477061473982609588018d614129565b61227d60f01b815260020190565b7f2c7b2274726169745f74797065223a20224c6963656e7365222c202276616c7581526432911d101160d91b602082015260250190565b89614129565b86614129565b605d60f81b815260010190565b98975050505050505050565b683d913730b6b2911d1160b91b815285516000906147ba816009850160208b016139ac565b601160f91b60099184019182018190526f16113232b9b1b934b83a34b7b7111d1160811b600a83015287516147f681601a850160208c016139ac565b601a920191820181905269161134b6b0b3b2911d1160b11b601b8301528651614826816025850160208b016139ac565b602592019182015284516148418160268401602089016139ac565b84519101906148578160268401602088016139ac565b61486d602682840101607d60f81b815260010190565b9998505050505050505050565b7f646174613a6170706c69636174696f6e2f6a736f6e3b6261736536342c0000008152600082516148b281601d8501602087016139ac565b91909101601d0192915050565b6000828210156148d1576148d16141cd565b500390565b683d913730b6b2911d1160b91b815285516000906148fb816009850160208b016139ac565b711116113232b9b1b934b83a34b7b7111d101160711b600991840191820152865161492d81601b840160208b016139ac565b601160f91b601b92909101918201526b16101134b6b0b3b2911d101160a11b601c8201528551614964816028840160208a016139ac565b6d1331b0b83a3ab9329e9a9818181160911b6028929091019182015284516149938160368401602089016139ac565b7016101130ba3a3934b13aba32b9911d101160791b603692909101918201526147896149dc6149c56047840187614129565b6a1331b0b83a3ab9329e981160a91b8152600b0190565b607d60f81b815260010190565b634e487b7160e01b600052601260045260246000fd5b60008219821115614a1257614a126141cd565b500190565b600082614a2657614a266149e9565b500490565b600082614a3a57614a3a6149e9565b500690565b6020808252602b908201527f496e697469616c697a61626c653a20636f6e7472616374206973206e6f74206960408201526a6e697469616c697a696e6760a81b606082015260800190565b600081614a9957614a996141cd565b50600019019056fe4142434445464748494a4b4c4d4e4f505152535455565758595a6162636465666768696a6b6c6d6e6f707172737475767778797a303132333435363738392b2f3c7363726970742069643d22736e69707065742d72616e646f6d2d636f6465223e636f6e73742075726c536565643d6e65772055524c536561726368506172616d732877696e646f772e6c6f636174696f6e2e736561726368292e67657428227365656422293b75726c53656564262675726c536565642e6c656e6774683e30262628746f6b656e446174612e736565643d75726c53656564293b636f6e737420746f6b656e49643d746f6b656e446174612e746f6b656e49642c4f4e455f4d494c3d3165362c70726f6a6563744e756d6265723d4d6174682e666c6f6f72287061727365496e7428746f6b656e446174612e746f6b656e4964292f316536292c746f6b656e4d696e744e756d6265723d7061727365496e7428746f6b656e446174612e746f6b656e496429253165362c736565643d746f6b656e446174612e736565643b66756e6374696f6e20637972623132382824297b6c6574205f3d313737393033333730332c653d333134343133343237372c743d313031333930343234322c6e3d323737333438303736323b666f72286c657420723d302c753b723c242e6c656e6774683b722b2b295f3d655e4d6174682e696d756c285f5e28753d242e63686172436f64654174287229292c353937333939303637292c653d745e4d6174682e696d756c28655e752c32383639383630323333292c743d6e5e4d6174682e696d756c28745e752c393531323734323133292c6e3d5f5e4d6174682e696d756c286e5e752c32373136303434313739293b72657475726e205f3d4d6174682e696d756c28745e5f3e3e3e31382c353937333939303637292c653d4d6174682e696d756c286e5e653e3e3e32322c32383639383630323333292c743d4d6174682e696d756c285f5e743e3e3e31372c393531323734323133292c6e3d4d6174682e696d756c28655e6e3e3e3e31392c32373136303434313739292c5b285f5e655e745e6e293e3e3e302c28655e5f293e3e3e302c28745e5f293e3e3e302c286e5e5f293e3e3e305d7d66756e6374696f6e20736663333228242c5f2c652c74297b72657475726e2066756e6374696f6e28297b653e3e3e3d302c743e3e3e3d303b766172206e3d28243e3e3e3d30292b285f3e3e3e3d30297c303b72657475726e20243d5f5e5f3e3e3e392c5f3d652b28653c3c33297c302c653d28653d653c3c32317c653e3e3e3131292b286e3d6e2b28743d742b317c30297c30297c302c286e3e3e3e30292f343239343936373239367d7d6c6574206d61746852616e643d7366633332282e2e2e63797262313238287365656429293b3c2f7363726970743e000000000000000000000000000000000000000000000000000000000000000000000000000000000000003e0000003f3435363738393a3b3c3d00000000000000000102030405060708090a0b0c0d0e0f101112131415161718190000000000001a1b1c1d1e1f202122232425262728292a2b2c2d2e2f303132330000000000a2646970667358221220f70c6c1329e4ccc2890737a6b5270a7c50576be27e7a77d97fed628a13f7209764736f6c634300080c0033",
  "linkReferences": {},
  "deployedLinkReferences": {}
}