{
  "_format": "hh-sol-artifact-1",
  "contractName": "GenerativeProjectData",
  "sourceName": "contracts/data/GenerativeProjectData.sol",
  "abi": [
    {
      "anonymous": false,
      "inputs": [
        {
          "indexed": false,
          "internalType": "uint8",
          "name": "version",
          "type": "uint8"
        }
      ],
      "name": "Initialized",
      "type": "event"
    },
    {
      "anonymous": false,
      "inputs": [
        {
          "indexed": true,
          "internalType": "address",
          "name": "previousOwner",
          "type": "address"
        },
        {
          "indexed": true,
          "internalType": "address",
          "name": "newOwner",
          "type": "address"
        }
      ],
      "name": "OwnershipTransferred",
      "type": "event"
    },
    {
      "inputs": [],
      "name": "_admin",
      "outputs": [
        {
          "internalType": "address",
          "name": "",
          "type": "address"
        }
      ],
      "stateMutability": "view",
      "type": "function"
    },
    {
      "inputs": [],
      "name": "_generativeProjectAddr",
      "outputs": [
        {
          "internalType": "address",
          "name": "",
          "type": "address"
        }
      ],
      "stateMutability": "view",
      "type": "function"
    },
    {
      "inputs": [],
      "name": "_paramAddr",
      "outputs": [
        {
          "internalType": "address",
          "name": "",
          "type": "address"
        }
      ],
      "stateMutability": "view",
      "type": "function"
    },
    {
      "inputs": [
        {
          "internalType": "address",
          "name": "newAdm",
          "type": "address"
        }
      ],
      "name": "changeAdmin",
      "outputs": [],
      "stateMutability": "nonpayable",
      "type": "function"
    },
    {
      "inputs": [
        {
          "internalType": "address",
          "name": "newAddr",
          "type": "address"
        }
      ],
      "name": "changeParamAddress",
      "outputs": [],
      "stateMutability": "nonpayable",
      "type": "function"
    },
    {
      "inputs": [
        {
          "internalType": "address",
          "name": "newAddr",
          "type": "address"
        }
      ],
      "name": "changeProjectAddress",
      "outputs": [],
      "stateMutability": "nonpayable",
      "type": "function"
    },
    {
      "inputs": [
        {
          "internalType": "address",
          "name": "admin",
          "type": "address"
        },
        {
          "internalType": "address",
          "name": "paramAddr",
          "type": "address"
        },
        {
          "internalType": "address",
          "name": "generativeProjectAddr",
          "type": "address"
        }
      ],
      "name": "initialize",
      "outputs": [],
      "stateMutability": "nonpayable",
      "type": "function"
    },
    {
      "inputs": [],
      "name": "owner",
      "outputs": [
        {
          "internalType": "address",
          "name": "",
          "type": "address"
        }
      ],
      "stateMutability": "view",
      "type": "function"
    },
    {
      "inputs": [
        {
          "internalType": "uint256",
          "name": "projectId",
          "type": "uint256"
        }
      ],
      "name": "projectURI",
      "outputs": [
        {
          "internalType": "string",
          "name": "result",
          "type": "string"
        }
      ],
      "stateMutability": "view",
      "type": "function"
    },
    {
      "inputs": [],
      "name": "renounceOwnership",
      "outputs": [],
      "stateMutability": "nonpayable",
      "type": "function"
    },
    {
      "inputs": [
        {
          "internalType": "uint256",
          "name": "projectId",
          "type": "uint256"
        },
        {
          "internalType": "uint256",
          "name": "tokenId",
          "type": "uint256"
        },
        {
          "internalType": "bytes32",
          "name": "seed",
          "type": "bytes32"
        }
      ],
      "name": "tokenBaseURI",
      "outputs": [
        {
          "internalType": "string",
          "name": "result",
          "type": "string"
        }
      ],
      "stateMutability": "view",
      "type": "function"
    },
    {
      "inputs": [
        {
          "internalType": "uint256",
          "name": "projectId",
          "type": "uint256"
        },
        {
          "internalType": "uint256",
          "name": "tokenId",
          "type": "uint256"
        },
        {
          "internalType": "bytes32",
          "name": "seed",
          "type": "bytes32"
        }
      ],
      "name": "tokenHTML",
      "outputs": [
        {
          "internalType": "string",
          "name": "result",
          "type": "string"
        }
      ],
      "stateMutability": "view",
      "type": "function"
    },
    {
      "inputs": [
        {
          "internalType": "uint256",
          "name": "projectId",
          "type": "uint256"
        },
        {
          "internalType": "uint256",
          "name": "tokenId",
          "type": "uint256"
        },
        {
          "internalType": "bytes32",
          "name": "seed",
          "type": "bytes32"
        }
      ],
      "name": "tokenURI",
      "outputs": [
        {
          "internalType": "string",
          "name": "result",
          "type": "string"
        }
      ],
      "stateMutability": "view",
      "type": "function"
    },
    {
      "inputs": [
        {
          "internalType": "address",
          "name": "newOwner",
          "type": "address"
        }
      ],
      "name": "transferOwnership",
      "outputs": [],
      "stateMutability": "nonpayable",
      "type": "function"
    }
  ],
  "bytecode": "0x608060405234801561001057600080fd5b5061269d806100206000396000f3fe608060405234801561001057600080fd5b50600436106100ea5760003560e01c80638da5cb5b1161008c578063c0c53b8b11610066578063c0c53b8b146101cc578063e8082858146101df578063f2fde38b146101f2578063f4a290f71461020557600080fd5b80638da5cb5b146101955780638f283970146101a657806394139301146101b957600080fd5b806346eaa748116100c857806346eaa74814610154578063567fdcf314610167578063715018a61461017a57806379ebc6f01461018257600080fd5b806301bc45c9146100ef57806316a5041f1461011f57806331c7280c14610134575b600080fd5b606554610102906001600160a01b031681565b6040516001600160a01b0390911681526020015b60405180910390f35b61013261012d3660046115f6565b610218565b005b610147610142366004611613565b6102b2565b604051610116919061166b565b610147610162366004611613565b6105b2565b606754610102906001600160a01b031681565b61013261071b565b61014761019036600461169e565b61072f565b6033546001600160a01b0316610102565b6101326101b43660046115f6565b6108fa565b6101476101c7366004611613565b61098c565b6101326101da3660046116b7565b610be5565b6101326101ed3660046115f6565b610d36565b6101326102003660046115f6565b610dc8565b606654610102906001600160a01b031681565b6065546001600160a01b03163314801561023a57506001600160a01b03811615155b6040518060400160405280600381526020016231303160e81b8152509061027d5760405162461bcd60e51b8152600401610274919061166b565b60405180910390fd5b506066546001600160a01b038281169116146102af57606580546001600160a01b0319166001600160a01b0383161790555b50565b6067546040516346ec8d2b60e11b8152600481018590526060916001600160a01b0316906000908290638dd91a5690602401600060405180830381865afa158015610301573d6000803e3d6000fd5b505050506040513d6000823e601f3d908101601f1916820160405261032991908101906119a2565b60408051602081019091526000808252919250905b826101800151518110156103a15781836101800151828151811061036457610364611bd0565b602002602001015160405160200161037d929190611c02565b6040516020818303038152906040529150808061039990611c47565b91505061033e565b50600060405180602001604052806000815250905060006040518061040001604052806103dd815260200161228b6103dd91396066549091506001600160a01b031615610566576066546001600160a01b031660005b856101600151518110156104ca5783826001600160a01b031663693ec85e886101600151848151811061042c5761042c611bd0565b60200260200101516040518263ffffffff1660e01b8152600401610450919061166b565b600060405180830381865afa15801561046d573d6000803e3d6000fd5b505050506040513d6000823e601f3d908101601f191682016040526104959190810190611c62565b6040516020016104a6929190611c02565b604051602081830303815290604052935080806104c290611c47565b9150506103f7565b5060408051808201825260128152711490539113d357d1955390d7d4d0d492541560721b6020820152905163349f642f60e11b81526001600160a01b0383169163693ec85e9161051d919060040161166b565b600060405180830381865afa15801561053a573d6000803e3d6000fd5b505050506040513d6000823e601f3d908101601f191682016040526105629190810190611c62565b9150505b8161057089610e3e565b61057989610edb565b6101a08701516040516105959493929186918990602001611c97565b604051602081830303815290604052955050505050509392505050565b6066546040805180820182526008815267424153455f55524960c01b6020820152905163349f642f60e11b81526060926001600160a01b031691600091839163693ec85e91610604919060040161166b565b600060405180830381865afa158015610621573d6000803e3d6000fd5b505050506040513d6000823e601f3d908101601f191682016040526106499190810190611c62565b6067546040516346ec8d2b60e11b8152600481018990529192506001600160a01b0316906000908290638dd91a5690602401600060405180830381865afa158015610698573d6000803e3d6000fd5b505050506040513d6000823e601f3d908101601f191682016040526106c091908101906119a2565b60675490915083906106da906001600160a01b0316610f27565b6106e389610e3e565b6106ec89610edb565b6040516020016106ff9493929190611e4a565b6040516020818303038152906040529450505050509392505050565b610723610f43565b61072d6000610f9d565b565b6067546040516346ec8d2b60e11b8152600481018390526060916001600160a01b0316906000908290638dd91a5690602401600060405180830381865afa15801561077e573d6000803e3d6000fd5b505050506040513d6000823e601f3d908101601f191682016040526107a691908101906119a2565b905060006107b7620f424086611ecc565b90506000306001600160a01b03166331c7280c8784856040516020016107df91815260200190565b604051602081830303815290604052805190602001206040518463ffffffff1660e01b8152600401610824939291909283526020830191909152604082015260600190565b600060405180830381865afa158015610841573d6000803e3d6000fd5b505050506040513d6000823e601f3d908101601f191682016040526108699190810190611c62565b6040516020016108799190611eeb565b60405160208183030381529060405290506108d0836080015161089b88610e3e565b856101000151866101200151856040516020016108bc959493929190611f54565b604051602081830303815290604052610fef565b6040516020016108e09190612042565b604051602081830303815290604052945050505050919050565b6065546001600160a01b03163314801561091c57506001600160a01b03811615155b6040518060400160405280600381526020016231303160e81b815250906109565760405162461bcd60e51b8152600401610274919061166b565b506065546001600160a01b038281169116146102af57606580546001600160a01b0383166001600160a01b031990911617905550565b606654604080518082018252600e81526d109054d157d5549257d51490525560921b6020820152905163349f642f60e11b81526060926001600160a01b031691600091839163693ec85e916109e4919060040161166b565b600060405180830381865afa158015610a01573d6000803e3d6000fd5b505050506040513d6000823e601f3d908101601f19168201604052610a299190810190611c62565b6067546040516346ec8d2b60e11b8152600481018990529192506001600160a01b0316906000908290638dd91a5690602401600060405180830381865afa158015610a78573d6000803e3d6000fd5b505050506040513d6000823e601f3d908101601f19168201604052610aa091908101906119a2565b604051630c71ca0360e21b8152600481018a90526024810189905260448101889052909150600090610b2c9030906331c7280c90606401600060405180830381865afa158015610af4573d6000803e3d6000fd5b505050506040513d6000823e601f3d908101601f19168201604052610b1c9190810190611c62565b6040516020016108bc9190612087565b604051602001610b3c9190611eeb565b60408051601f19818403018152919052610100830151610200840151519192509015610b6a57506102008201515b6080830151606754610bb79190839085908990610b8f906001600160a01b0316610f27565b610b988f610e3e565b610ba18f610edb565b6040516020016108bc97969594939291906120a3565b604051602001610bc79190612042565b60405160208183030381529060405296505050505050509392505050565b600054610100900460ff1615808015610c055750600054600160ff909116105b80610c1f5750303b158015610c1f575060005460ff166001145b610c825760405162461bcd60e51b815260206004820152602e60248201527f496e697469616c697a61626c653a20636f6e747261637420697320616c72656160448201526d191e481a5b9a5d1a585b1a5e995960921b6064820152608401610274565b6000805460ff191660011790558015610ca5576000805461ff0019166101001790555b606580546001600160a01b038087166001600160a01b031992831617909255606680548684169083161790556067805492851692909116919091179055610cea611155565b8015610d30576000805461ff0019169055604051600181527f7f26b83ff96e1f2b6a682f133852f6798a09c465da95921460cefb38474024989060200160405180910390a15b50505050565b6065546001600160a01b031633148015610d5857506001600160a01b03811615155b6040518060400160405280600381526020016231303160e81b81525090610d925760405162461bcd60e51b8152600401610274919061166b565b506067546001600160a01b038281169116146102af57606780546001600160a01b0383166001600160a01b031990911617905550565b610dd0610f43565b6001600160a01b038116610e355760405162461bcd60e51b815260206004820152602660248201527f4f776e61626c653a206e6577206f776e657220697320746865207a65726f206160448201526564647265737360d01b6064820152608401610274565b6102af81610f9d565b60606000610e4b83611184565b600101905060008167ffffffffffffffff811115610e6b57610e6b611702565b6040519080825280601f01601f191660200182016040528015610e95576020820181803683370190505b5090508181016020015b600019016f181899199a1a9b1b9c1cb0b131b232b360811b600a86061a8153600a8504945084610ece57610ed3565b610e9f565b509392505050565b6060610ee68261125c565b610ef3608084901b61125c565b60405161060f60f31b6020820152602281019290925260428201526062016040516020818303038152906040529050919050565b6060610f3d6001600160a01b038316601461140e565b92915050565b6033546001600160a01b0316331461072d5760405162461bcd60e51b815260206004820181905260248201527f4f776e61626c653a2063616c6c6572206973206e6f7420746865206f776e65726044820152606401610274565b603380546001600160a01b038381166001600160a01b0319831681179093556040519116919082907f8be0079c531659141344cd1fd0a4f28419497f9722a3daafe3b4186f6b6457e090600090a35050565b80516060908061100f575050604080516020810190915260008152919050565b6000600361101e8360026121ae565b61102891906121c6565b611033906004611ecc565b905060006110428260206121ae565b67ffffffffffffffff81111561105a5761105a611702565b6040519080825280601f01601f191660200182016040528015611084576020820181803683370190505b509050600060405180606001604052806040815260200161224b604091399050600181016020830160005b86811015611110576003818a01810151603f601282901c8116860151600c83901c8216870151600684901c831688015192909316870151600891821b60ff94851601821b92841692909201901b91160160e01b8352600490920191016110af565b50600386066001811461112a576002811461113b57611147565b613d3d60f01b600119830152611147565b603d60f81b6000198301525b505050918152949350505050565b600054610100900460ff1661117c5760405162461bcd60e51b8152600401610274906121e8565b61072d6115b1565b60008072184f03e93ff9f4daa797ed6e38ed64bf6a1f0160401b83106111c35772184f03e93ff9f4daa797ed6e38ed64bf6a1f0160401b830492506040015b6d04ee2d6d415b85acef810000000083106111ef576d04ee2d6d415b85acef8100000000830492506020015b662386f26fc10000831061120d57662386f26fc10000830492506010015b6305f5e1008310611225576305f5e100830492506008015b612710831061123957612710830492506004015b6064831061124b576064830492506002015b600a8310610f3d5760010192915050565b7aff00000000000000ff00000000000000ff00000000000000ff00006bffffffff0000000000000000604083901c90811663ffffffff60c01b84161760201c63ffffffff60601b919091166001600160e01b031984161717601081901c9182167eff00000000000000ff00000000000000ff00000000000000ff000000000000821617600890811c7bff00000000000000ff00000000000000ff00000000000000ff000000939093167fff00000000000000ff00000000000000ff00000000000000ff000000000000009290921691909117919091179081901c7e0f000f000f000f000f000f000f000f000f000f000f000f000f000f000f000f167f0f000f000f000f000f000f000f000f000f000f000f000f000f000f000f000f00600492831c1617906113aa827f06060606060606060606060606060606060606060606060606060606060606066121ae565b901c7f0f0f0f0f0f0f0f0f0f0f0f0f0f0f0f0f0f0f0f0f0f0f0f0f0f0f0f0f0f0f0f0f1660076113da9190611ecc565b611404827f30303030303030303030303030303030303030303030303030303030303030306121ae565b610f3d91906121ae565b6060600061141d836002611ecc565b6114289060026121ae565b67ffffffffffffffff81111561144057611440611702565b6040519080825280601f01601f19166020018201604052801561146a576020820181803683370190505b509050600360fc1b8160008151811061148557611485611bd0565b60200101906001600160f81b031916908160001a905350600f60fb1b816001815181106114b4576114b4611bd0565b60200101906001600160f81b031916908160001a90535060006114d8846002611ecc565b6114e39060016121ae565b90505b600181111561155b576f181899199a1a9b1b9c1cb0b131b232b360811b85600f166010811061151757611517611bd0565b1a60f81b82828151811061152d5761152d611bd0565b60200101906001600160f81b031916908160001a90535060049490941c9361155481612233565b90506114e6565b5083156115aa5760405162461bcd60e51b815260206004820181905260248201527f537472696e67733a20686578206c656e67746820696e73756666696369656e746044820152606401610274565b9392505050565b600054610100900460ff166115d85760405162461bcd60e51b8152600401610274906121e8565b61072d33610f9d565b6001600160a01b03811681146102af57600080fd5b60006020828403121561160857600080fd5b81356115aa816115e1565b60008060006060848603121561162857600080fd5b505081359360208301359350604090920135919050565b60005b8381101561165a578181015183820152602001611642565b83811115610d305750506000910152565b602081526000825180602084015261168a81604085016020870161163f565b601f01601f19169190910160400192915050565b6000602082840312156116b057600080fd5b5035919050565b6000806000606084860312156116cc57600080fd5b83356116d7816115e1565b925060208401356116e7816115e1565b915060408401356116f7816115e1565b809150509250925092565b634e487b7160e01b600052604160045260246000fd5b60405160a0810167ffffffffffffffff8111828210171561173b5761173b611702565b60405290565b604051610220810167ffffffffffffffff8111828210171561173b5761173b611702565b604051601f8201601f1916810167ffffffffffffffff8111828210171561178e5761178e611702565b604052919050565b805162ffffff811681146117a957600080fd5b919050565b80516117a9816115e1565b600082601f8301126117ca57600080fd5b815167ffffffffffffffff8111156117e4576117e4611702565b6117f7601f8201601f1916602001611765565b81815284602083860101111561180c57600080fd5b61181d82602083016020870161163f565b949350505050565b600060a0828403121561183757600080fd5b61183f611718565b9050815167ffffffffffffffff8082111561185957600080fd5b611865858386016117b9565b8352602084015191508082111561187b57600080fd5b611887858386016117b9565b602084015260408401519150808211156118a057600080fd5b6118ac858386016117b9565b604084015260608401519150808211156118c557600080fd5b6118d1858386016117b9565b606084015260808401519150808211156118ea57600080fd5b506118f7848285016117b9565b60808301525092915050565b600082601f83011261191457600080fd5b8151602067ffffffffffffffff8083111561193157611931611702565b8260051b611940838201611765565b938452858101830193838101908886111561195a57600080fd5b84880192505b85831015611996578251848111156119785760008081fd5b6119868a87838c01016117b9565b8352509184019190840190611960565b98975050505050505050565b6000602082840312156119b457600080fd5b815167ffffffffffffffff808211156119cc57600080fd5b9083019061022082860312156119e157600080fd5b6119e9611741565b6119f283611796565b8152611a0060208401611796565b602082015260408301516040820152611a1b606084016117ae565b6060820152608083015182811115611a3257600080fd5b611a3e878286016117b9565b60808301525060a083015182811115611a5657600080fd5b611a62878286016117b9565b60a083015250611a7460c084016117ae565b60c082015260e083015182811115611a8b57600080fd5b611a97878286016117b9565b60e0830152506101008084015183811115611ab157600080fd5b611abd888287016117b9565b8284015250506101208084015183811115611ad757600080fd5b611ae3888287016117b9565b8284015250506101408084015183811115611afd57600080fd5b611b0988828701611825565b8284015250506101608084015183811115611b2357600080fd5b611b2f88828701611903565b8284015250506101808084015183811115611b4957600080fd5b611b5588828701611903565b8284015250506101a08084015183811115611b6f57600080fd5b611b7b888287016117b9565b8284015250506101c08084015181830152506101e0611b9b8185016117ae565b908201526102008381015183811115611bb357600080fd5b611bbf888287016117b9565b918301919091525095945050505050565b634e487b7160e01b600052603260045260246000fd5b60008151611bf881856020860161163f565b9290920192915050565b60008351611c1481846020880161163f565b835190830190611c2881836020880161163f565b01949350505050565b634e487b7160e01b600052601160045260246000fd5b6000600019821415611c5b57611c5b611c31565b5060010190565b600060208284031215611c7457600080fd5b815167ffffffffffffffff811115611c8b57600080fd5b61181d848285016117b9565b651e343a36b61f60d11b81527f3c686561643e3c6d65746120636861727365743d275554462d38273e00000000600682015260008751611cde816022850160208c0161163f565b7f3c73637269707420747970653d22746578742f6a6176617363726970742220696022918401918201527f643d22736e69707065742d636f6e74726163742d636f6465223e6c657420746f60428201527435b2b72230ba30901e903d913a37b5b2b724b2111d60591b60628201528751611d5f816077840160208c0161163f565b6a16101139b2b2b2111d101160a91b607792909101918201528651611d8b816082840160208b0161163f565b611e3c611e29611e16611e10611df7611de3611ddd611dca611dc460828a8c01016b113e9d9e17b9b1b934b83a1f60a11b8152600c0190565b8f611be6565b661e39ba3cb6329f60c91b815260070190565b8c611be6565b671e17b9ba3cb6329f60c11b815260080190565b6c1e17b432b0b21f1e3137b23c9f60991b8152600d0190565b88611be6565b661e17b137b23c9f60c91b815260070190565b661e17b43a36b61f60c91b815260070190565b9a9950505050505050505050565b60008551611e5c818460208a0161163f565b8083019050602f60f81b8082528651611e7c816001850160208b0161163f565b60019201918201528451611e9781600284016020890161163f565b653f736565643d60d01b600292909101918201528351611ebe81600884016020880161163f565b016008019695505050505050565b6000816000190483118215151615611ee657611ee6611c31565b500290565b7f2c2022616e696d6174696f6e5f75726c223a22646174613a746578742f68746d81526f1b0ed8da185c9cd95d0f5d5d198b4e0b60821b602082015260008251611f3c81603085016020870161163f565b601160f91b6030939091019283015250603101919050565b683d913730b6b2911d1160b91b81528551600090611f79816009850160208b0161163f565b61202360f01b6009918401918201528651611f9b81600b840160208b0161163f565b601160f91b600b929091019182018190526f16113232b9b1b934b83a34b7b7111d1160811b600c8301528651611fd881601c850160208b0161163f565b601c92019182015269161134b6b0b3b2911d1160b11b601d820152845161200681602784016020890161163f565b612035612028612022602784860101601160f91b815260010190565b87611be6565b607d60f81b815260010190565b9998505050505050505050565b7f646174613a6170706c69636174696f6e2f6a736f6e3b6261736536342c00000081526000825161207a81601d85016020870161163f565b91909101601d0192915050565b6000825161209981846020870161163f565b9190910192915050565b683d913730b6b2911d1160b91b815287516000906120c8816009850160208d0161163f565b711116113232b9b1b934b83a34b7b7111d101160711b60099184019182015288516120fa81601b840160208d0161163f565b601160f91b601b9290910191820152875161211c81601c840160208c0161163f565b7016101130ba3a3934b13aba32b9911d101160791b601c9290910191820152865161214e81602d840160208b0161163f565b602f60f81b602d9290910191820152611e3c6120286121a161202261218f61218961217c602e88018d611be6565b602f60f81b815260010190565b8a611be6565b653f736565643d60d01b815260060190565b601160f91b815260010190565b600082198211156121c1576121c1611c31565b500190565b6000826121e357634e487b7160e01b600052601260045260246000fd5b500490565b6020808252602b908201527f496e697469616c697a61626c653a20636f6e7472616374206973206e6f74206960408201526a6e697469616c697a696e6760a81b606082015260800190565b60008161224257612242611c31565b50600019019056fe4142434445464748494a4b4c4d4e4f505152535455565758595a6162636465666768696a6b6c6d6e6f707172737475767778797a303132333435363738392b2f3c7363726970742069643d22736e69707065742d72616e646f6d2d636f64652220747970653d22746578742f6a617661736372697074223e636f6e73742075726c536565643d6e65772055524c536561726368506172616d732877696e646f772e6c6f636174696f6e2e736561726368292e67657428227365656422293b75726c53656564262675726c536565642e6c656e6774683e30262628746f6b656e446174612e736565643d75726c53656564293b636f6e737420746f6b656e49643d746f6b656e446174612e746f6b656e49642c4f4e455f4d494c3d3165362c70726f6a6563744e756d6265723d4d6174682e666c6f6f72287061727365496e7428746f6b656e446174612e746f6b656e4964292f316536292c746f6b656e4d696e744e756d6265723d7061727365496e7428746f6b656e446174612e746f6b656e496429253165362c736565643d746f6b656e446174612e736565643b66756e6374696f6e20637972623132382824297b6c6574205f3d313737393033333730332c653d333134343133343237372c743d313031333930343234322c6e3d323737333438303736323b666f72286c657420723d302c753b723c242e6c656e6774683b722b2b295f3d655e4d6174682e696d756c285f5e28753d242e63686172436f64654174287229292c353937333939303637292c653d745e4d6174682e696d756c28655e752c32383639383630323333292c743d6e5e4d6174682e696d756c28745e752c393531323734323133292c6e3d5f5e4d6174682e696d756c286e5e752c32373136303434313739293b72657475726e205f3d4d6174682e696d756c28745e5f3e3e3e31382c353937333939303637292c653d4d6174682e696d756c286e5e653e3e3e32322c32383639383630323333292c743d4d6174682e696d756c285f5e743e3e3e31372c393531323734323133292c6e3d4d6174682e696d756c28655e6e3e3e3e31392c32373136303434313739292c5b285f5e655e745e6e293e3e3e302c28655e5f293e3e3e302c28745e5f293e3e3e302c286e5e5f293e3e3e305d7d66756e6374696f6e20736663333228242c5f2c652c74297b72657475726e2066756e6374696f6e28297b653e3e3e3d302c743e3e3e3d303b766172206e3d28243e3e3e3d30292b285f3e3e3e3d30297c303b72657475726e20243d5f5e5f3e3e3e392c5f3d652b28653c3c33297c302c653d28653d653c3c32317c653e3e3e3131292b286e3d6e2b28743d742b317c30297c30297c302c286e3e3e3e30292f343239343936373239367d7d6c6574206d61746852616e643d7366633332282e2e2e63797262313238287365656429293b3c2f7363726970743ea2646970667358221220639d943e5210abc7e6edcfcd555cbb8da8aabcab40df8d2e74c9a9004b851b9164736f6c634300080c0033",
  "linkReferences": {},
  "deployedLinkReferences": {}
}