{
  "_format": "hh-sol-artifact-1",
  "contractName": "GenerativeProjectData",
  "sourceName": "contracts/data/GenerativeProjectData.sol",
  "abi": [
    {
      "anonymous": false,
      "inputs": [
        {
          "indexed": false,
          "internalType": "uint8",
          "name": "version",
          "type": "uint8"
        }
      ],
      "name": "Initialized",
      "type": "event"
    },
    {
      "anonymous": false,
      "inputs": [
        {
          "indexed": true,
          "internalType": "address",
          "name": "previousOwner",
          "type": "address"
        },
        {
          "indexed": true,
          "internalType": "address",
          "name": "newOwner",
          "type": "address"
        }
      ],
      "name": "OwnershipTransferred",
      "type": "event"
    },
    {
      "inputs": [],
      "name": "_admin",
      "outputs": [
        {
          "internalType": "address",
          "name": "",
          "type": "address"
        }
      ],
      "stateMutability": "view",
      "type": "function"
    },
    {
      "inputs": [],
      "name": "_generativeProjectAddr",
      "outputs": [
        {
          "internalType": "address",
          "name": "",
          "type": "address"
        }
      ],
      "stateMutability": "view",
      "type": "function"
    },
    {
      "inputs": [],
      "name": "_paramAddr",
      "outputs": [
        {
          "internalType": "address",
          "name": "",
          "type": "address"
        }
      ],
      "stateMutability": "view",
      "type": "function"
    },
    {
      "inputs": [
        {
          "internalType": "address",
          "name": "newAdm",
          "type": "address"
        }
      ],
      "name": "changeAdmin",
      "outputs": [],
      "stateMutability": "nonpayable",
      "type": "function"
    },
    {
      "inputs": [
        {
          "internalType": "address",
          "name": "newAddr",
          "type": "address"
        }
      ],
      "name": "changeParamAddress",
      "outputs": [],
      "stateMutability": "nonpayable",
      "type": "function"
    },
    {
      "inputs": [
        {
          "internalType": "address",
          "name": "newAddr",
          "type": "address"
        }
      ],
      "name": "changeProjectAddress",
      "outputs": [],
      "stateMutability": "nonpayable",
      "type": "function"
    },
    {
      "inputs": [],
      "name": "getChainID",
      "outputs": [
        {
          "internalType": "uint256",
          "name": "",
          "type": "uint256"
        }
      ],
      "stateMutability": "view",
      "type": "function"
    },
    {
      "inputs": [
        {
          "internalType": "string",
          "name": "script",
          "type": "string"
        }
      ],
      "name": "inflateScript",
      "outputs": [
        {
          "internalType": "string",
          "name": "result",
          "type": "string"
        },
        {
          "internalType": "enum Inflate.ErrorCode",
          "name": "err",
          "type": "uint8"
        }
      ],
      "stateMutability": "view",
      "type": "function"
    },
    {
      "inputs": [
        {
          "internalType": "string",
          "name": "data",
          "type": "string"
        }
      ],
      "name": "inflateString",
      "outputs": [
        {
          "internalType": "string",
          "name": "result",
          "type": "string"
        },
        {
          "internalType": "enum Inflate.ErrorCode",
          "name": "err",
          "type": "uint8"
        }
      ],
      "stateMutability": "view",
      "type": "function"
    },
    {
      "inputs": [
        {
          "internalType": "address",
          "name": "admin",
          "type": "address"
        },
        {
          "internalType": "address",
          "name": "paramAddr",
          "type": "address"
        },
        {
          "internalType": "address",
          "name": "generativeProjectAddr",
          "type": "address"
        }
      ],
      "name": "initialize",
      "outputs": [],
      "stateMutability": "nonpayable",
      "type": "function"
    },
    {
      "inputs": [],
      "name": "owner",
      "outputs": [
        {
          "internalType": "address",
          "name": "",
          "type": "address"
        }
      ],
      "stateMutability": "view",
      "type": "function"
    },
    {
      "inputs": [
        {
          "internalType": "uint256",
          "name": "projectId",
          "type": "uint256"
        }
      ],
      "name": "projectURI",
      "outputs": [
        {
          "internalType": "string",
          "name": "result",
          "type": "string"
        }
      ],
      "stateMutability": "view",
      "type": "function"
    },
    {
      "inputs": [],
      "name": "renounceOwnership",
      "outputs": [],
      "stateMutability": "nonpayable",
      "type": "function"
    },
    {
      "inputs": [
        {
          "internalType": "uint256",
          "name": "projectId",
          "type": "uint256"
        },
        {
          "internalType": "uint256",
          "name": "tokenId",
          "type": "uint256"
        },
        {
          "internalType": "bytes32",
          "name": "seed",
          "type": "bytes32"
        }
      ],
      "name": "tokenHTML",
      "outputs": [
        {
          "internalType": "string",
          "name": "result",
          "type": "string"
        }
      ],
      "stateMutability": "view",
      "type": "function"
    },
    {
      "inputs": [
        {
          "internalType": "uint256",
          "name": "projectId",
          "type": "uint256"
        },
        {
          "internalType": "uint256",
          "name": "tokenId",
          "type": "uint256"
        },
        {
          "internalType": "bytes32",
          "name": "seed",
          "type": "bytes32"
        }
      ],
      "name": "tokenURI",
      "outputs": [
        {
          "internalType": "string",
          "name": "result",
          "type": "string"
        }
      ],
      "stateMutability": "view",
      "type": "function"
    },
    {
      "inputs": [
        {
          "internalType": "address",
          "name": "newOwner",
          "type": "address"
        }
      ],
      "name": "transferOwnership",
      "outputs": [],
      "stateMutability": "nonpayable",
      "type": "function"
    }
  ],
  "bytecode": "0x608060405234801561001057600080fd5b506149b8806100206000396000f3fe608060405234801561001057600080fd5b50600436106101005760003560e01c80637af34af211610097578063c0c53b8b11610066578063c0c53b8b14610211578063e808285814610224578063f2fde38b14610237578063f4a290f71461024a57600080fd5b80637af34af2146101c75780638da5cb5b146101da5780638f283970146101eb57806394139301146101fe57600080fd5b8063567fdcf3116100d3578063567fdcf3146101785780636e973cf21461018b578063715018a6146101ac57806379ebc6f0146101b457600080fd5b806301bc45c91461010557806316a5041f1461013557806331c7280c1461014a578063564b81ef1461016a575b600080fd5b606554610118906001600160a01b031681565b6040516001600160a01b0390911681526020015b60405180910390f35b6101486101433660046138ad565b61025d565b005b61015d6101583660046138ca565b6102f7565b60405161012c919061394e565b60405146815260200161012c565b606754610118906001600160a01b031681565b61019e610199366004613a19565b6104f9565b60405161012c929190613aae565b610148610517565b61015d6101c2366004613aee565b61052b565b61019e6101d5366004613a19565b610920565b6033546001600160a01b0316610118565b6101486101f93660046138ad565b61093f565b61015d61020c3660046138ca565b6109d1565b61014861021f366004613b07565b610e57565b6101486102323660046138ad565b610fa8565b6101486102453660046138ad565b61103a565b606654610118906001600160a01b031681565b6065546001600160a01b03163314801561027f57506001600160a01b03811615155b6040518060400160405280600381526020016231303160e81b815250906102c25760405162461bcd60e51b81526004016102b9919061394e565b60405180910390fd5b506066546001600160a01b038281169116146102f457606680546001600160a01b0319166001600160a01b0383161790555b50565b6067546040516346ec8d2b60e11b8152600481018590526060916001600160a01b0316906000908290638dd91a5690602401600060405180830381865afa158015610346573d6000803e3d6000fd5b505050506040513d6000823e601f3d908101601f1916820160405261036e9190810190613da8565b9050600060405180602001604052806000815250905060606000805b846101800151518110156104eb57600085610180015182815181106103b1576103b1614008565b60200260200101515111156104d957306001600160a01b0316636e973cf286610180015183815181106103e6576103e6614008565b60200260200101516040518263ffffffff1660e01b815260040161040a919061394e565b600060405180830381865afa158015610427573d6000803e3d6000fd5b505050506040513d6000823e601f3d908101601f1916820160405261044f919081019061401e565b9093509150600082600e81111561046857610468613a98565b146104b45783856101800151828151811061048557610485614008565b602002602001015160405160200161049e92919061408f565b60405160208183030381529060405293506104d9565b83836040516020016104c792919061408f565b60405160208183030381529060405293505b806104e3816140d4565b91505061038a565b509198975050505050505050565b6060600061050e610509846110b0565b611222565b91509150915091565b61051f611378565b61052960006113d2565b565b60606105876040518061010001604052806060815260200160006001600160a01b031681526020016060815260200160608152602001606081526020016060815260200160006001600160a01b03168152602001606081525090565b6067546040516346ec8d2b60e11b8152600481018590526001600160a01b03909116906000908290638dd91a5690602401600060405180830381865afa1580156105d5573d6000803e3d6000fd5b505050506040513d6000823e601f3d908101601f191682016040526105fd9190810190613da8565b9050600061060e620f4240876140ef565b90506000306001600160a01b03166331c7280c88848560405160200161063691815260200190565b604051602081830303815290604052805190602001206040518463ffffffff1660e01b815260040161067b939291909283526020830191909152604082015260600190565b600060405180830381865afa158015610698573d6000803e3d6000fd5b505050506040513d6000823e601f3d908101601f191682016040526106c0919081019061410e565b805190915015610714576106f2816040516020016106de9190614142565b604051602081830303815290604052611424565b604051602001610702919061415e565b60405160208183030381529060405290505b600081604051602001610727919061419c565b6040516020818303038152906040529050836080015161074689611589565b6040516020016107579291906141e3565b60408051601f1981840301815291815287015261010084015160808701819052606090600090610786906104f9565b9092509050600081600e81111561079f5761079f613a98565b14156107ad57608088018290525b610120860151606089015260a08089018490526101e08701516001600160a01b0390811660c0808c0191909152880151166020808b019190915290870151895260408051918201905260008082525b876101600151518160ff16101561087c578161082461081c836001614220565b60ff16611589565b8961016001518360ff168151811061083e5761083e614008565b602002602001015160405160200161085893929190614245565b60405160208183030381529060405291508080610874906142d3565b9150506107fc565b5061088a8960c0015161161d565b895160208b015161089a9061161d565b8960e00151846040516020016108b49594939291906142f3565b60408051601f1981840301815291815260e08b018290528a81015160808c015160608d015160a08e015193516108f1956106de9591602001614474565b6040516020016109019190614559565b6040516020818303038152906040529950505050505050505050919050565b6060600061050e6101996009808651610939919061459e565b86611639565b6065546001600160a01b03163314801561096157506001600160a01b03811615155b6040518060400160405280600381526020016231303160e81b8152509061099b5760405162461bcd60e51b81526004016102b9919061394e565b506065546001600160a01b038281169116146102f457606580546001600160a01b0383166001600160a01b031990911617905550565b6066546067546040516346ec8d2b60e11b8152600481018690526060926001600160a01b039081169216906000908290638dd91a5690602401600060405180830381865afa158015610a27573d6000803e3d6000fd5b505050506040513d6000823e601f3d908101601f19168201604052610a4f9190810190613da8565b604051630c71ca0360e21b815260048101899052602481018890526044810187905290915060009030906331c7280c90606401600060405180830381865afa158015610a9f573d6000803e3d6000fd5b505050506040513d6000823e601f3d908101601f19168201604052610ac7919081019061410e565b805190915015610d1757610ae5816040516020016106de9190614142565b604051602001610af5919061415e565b60408051601f1981840301815260a0830182526060808452602084018190529183018290528183018290526080830191909152915081604051602001610b3b919061419c565b60408051601f19818403018152918152606083019190915280518082018252600e81526d109054d157d5549257d51490525560921b6020820152905163349f642f60e11b81526001600160a01b0387169163693ec85e91610b9f919060040161394e565b600060405180830381865afa158015610bbc573d6000803e3d6000fd5b505050506040513d6000823e601f3d908101601f19168201604052610be4919081019061410e565b60408201526080830151610bf789611589565b604051602001610c089291906141e3565b60408051601f19818403018152919052815261010083015160208201526102008301515115610c3d5761020083015160208201525b60606000610c4e83602001516104f9565b9092509050600081600e811115610c6757610c67613a98565b1415610c7557602083018290525b6040830151606754610c8f906001600160a01b031661161d565b610c988c611589565b610ca18c611721565b604051602001610cb494939291906145b5565b60408051601f19818403018152918152848101829052845160208681015160608801519351610cee956106de959293909291839101614637565b604051602001610cfe9190614559565b6040516020818303038152906040529750505050610e4c565b610d81306001600160a01b031663564b81ef6040518163ffffffff1660e01b8152600401602060405180830381865afa158015610d58573d6000803e3d6000fd5b505050506040513d601f19601f82011682018060405250810190610d7c919061474a565b611589565b604080518082018252600b81526a4246535f4144445245535360a81b6020820152905163bf40fac160e01b8152610e15916001600160a01b0388169163bf40fac191610dcf9160040161394e565b602060405180830381865afa158015610dec573d6000803e3d6000fd5b505050506040513d601f19601f82011682018060405250810190610e109190614763565b61161d565b610e1e3361161d565b610e2789611721565b604051602001610e3a9493929190614780565b60405160208183030381529060405294505b505050509392505050565b600054610100900460ff1615808015610e775750600054600160ff909116105b80610e915750303b158015610e91575060005460ff166001145b610ef45760405162461bcd60e51b815260206004820152602e60248201527f496e697469616c697a61626c653a20636f6e747261637420697320616c72656160448201526d191e481a5b9a5d1a585b1a5e995960921b60648201526084016102b9565b6000805460ff191660011790558015610f17576000805461ff0019166101001790555b606580546001600160a01b038087166001600160a01b031992831617909255606680548684169083161790556067805492851692909116919091179055610f5c61176d565b8015610fa2576000805461ff0019169055604051600181527f7f26b83ff96e1f2b6a682f133852f6798a09c465da95921460cefb38474024989060200160405180910390a15b50505050565b6065546001600160a01b031633148015610fca57506001600160a01b03811615155b6040518060400160405280600381526020016231303160e81b815250906110045760405162461bcd60e51b81526004016102b9919061394e565b506067546001600160a01b038281169116146102f457606780546001600160a01b0383166001600160a01b031990911617905550565b611042611378565b6001600160a01b0381166110a75760405162461bcd60e51b815260206004820152602660248201527f4f776e61626c653a206e6577206f776e657220697320746865207a65726f206160448201526564647265737360d01b60648201526084016102b9565b6102f4816113d2565b8051606090829015806110cf5750600481516110cc9190614820565b15155b156110ee5760408051600080825260208201909252905b509392505050565b60006040518060a001604052806080815260200161490360809139905060006004835161111b9190614834565b6111269060036140ef565b90506000611135826020614848565b6001600160401b0381111561114c5761114c613961565b6040519080825280601f01601f191660200182016040528015611176576020820181803683370190505b5090508351840151603d60ff821614156111a557600183039250613d3d61ffff821614156111a5576001830392505b50818152600183018485518101602084015b8183101561121457600483019250825160ff8082168601511660ff808360081c168701511660061b0160ff808360101c1687015116600c1b60ff808460181c168801511660121b010190508060e81b8252506003810190506111b7565b509298975050505050505050565b60606000606061123f848551600561123a91906140ef565b61179c565b9092509050600082600e81111561125857611258613a98565b141561135f5760005b81818151811061127357611273614008565b01602001516001600160f81b03191661128b576112ab565b80611295816140d4565b91505081518114156112a6576112ab565b611261565b6000816001600160401b038111156112c5576112c5613961565b6040519080825280601f01601f1916602001820160405280156112ef576020820181803683370190505b50905060005b828110156113555783818151811061130f5761130f614008565b602001015160f81c60f81b82828151811061132c5761132c614008565b60200101906001600160f81b031916908160001a9053508061134d816140d4565b9150506112f5565b5093506113729050565b6040518060200160405280600081525092505b50915091565b6033546001600160a01b031633146105295760405162461bcd60e51b815260206004820181905260248201527f4f776e61626c653a2063616c6c6572206973206e6f7420746865206f776e657260448201526064016102b9565b603380546001600160a01b038381166001600160a01b0319831681179093556040519116919082907f8be0079c531659141344cd1fd0a4f28419497f9722a3daafe3b4186f6b6457e090600090a35050565b606081516000141561144457505060408051602081019091526000815290565b60006040518060600160405280604081526020016148c360409139905060006003845160026114739190614848565b61147d9190614834565b6114889060046140ef565b90506000611497826020614848565b6001600160401b038111156114ae576114ae613961565b6040519080825280601f01601f1916602001820160405280156114d8576020820181803683370190505b509050818152600183018586518101602084015b81831015611544576003830192508251603f8160121c168501518253600182019150603f81600c1c168501518253600182019150603f8160061c168501518253600182019150603f81168501518253506001016114ec565b60038951066001811461155e576002811461156f5761157b565b613d3d60f01b60011983015261157b565b603d60f81b6000198301525b509398975050505050505050565b6060600061159683611a4d565b60010190506000816001600160401b038111156115b5576115b5613961565b6040519080825280601f01601f1916602001820160405280156115df576020820181803683370190505b5090508181016020015b600019016f181899199a1a9b1b9c1cb0b131b232b360811b600a86061a8153600a8504945084611618576110e6565b6115e9565b60606116336001600160a01b0383166014611b25565b92915050565b60606000611647858561459e565b611652906001614848565b6001600160401b0381111561166957611669613961565b6040519080825280601f01601f191660200182016040528015611693576020820181803683370190505b50905060005b6116a3868661459e565b8111611716578360016116b68884614848565b6116c0919061459e565b815181106116d0576116d0614008565b602001015160f81c60f81b8282815181106116ed576116ed614008565b60200101906001600160f81b031916908160001a9053508061170e816140d4565b915050611699565b5090505b9392505050565b606061172c82611cc0565b611739608084901b611cc0565b60405161060f60f31b6020820152602281019290925260428201526062016040516020818303038152906040529050919050565b600054610100900460ff166117945760405162461bcd60e51b81526004016102b990614860565b610529611e72565b600060606000604051806101000160405280856001600160401b038111156117c6576117c6613961565b6040519080825280601f01601f1916602001820160405280156117f0576020820181803683370190505b508152602001600081526020018681526020016000815260200160008152602001600081526020016040518060400160405280600f60016118319190614848565b6001600160401b0381111561184857611848613961565b604051908082528060200260200182016040528015611871578160200160208202803683370190505b5081526040805161012080825261242082019092526020928301929091908201612400803683370190505081525081526020016040518060400160405280600f60016118bd9190614848565b6001600160401b038111156118d4576118d4613961565b6040519080825280602002602001820160405280156118fd578160200160208202803683370190505b50815260408051601e8082526103e0820190925260209283019290919082016103c0803683375050509052905290506000808061193984611ea2565b9050600081600e81111561194f5761194f613a98565b14611964579251929450919250611a46915050565b82611a3b5761197484600161202c565b93509050600081600e81111561198c5761198c613a98565b146119a1579251929450919250611a46915050565b6119ac84600261202c565b92509050600081600e8111156119c4576119c4613a98565b146119d9579251929450919250611a46915050565b8115611a0d5781600114611a0457816002146119f6576003611a16565b6119ff846120fd565b611a16565b6119ff84612177565b611a168461218c565b9050600081600e811115611a2c57611a2c613a98565b14611a3657611a3b565b611964565b925192945091925050505b9250929050565b60008072184f03e93ff9f4daa797ed6e38ed64bf6a1f0160401b8310611a8c5772184f03e93ff9f4daa797ed6e38ed64bf6a1f0160401b830492506040015b6d04ee2d6d415b85acef81000000008310611ab8576d04ee2d6d415b85acef8100000000830492506020015b662386f26fc100008310611ad657662386f26fc10000830492506010015b6305f5e1008310611aee576305f5e100830492506008015b6127108310611b0257612710830492506004015b60648310611b14576064830492506002015b600a83106116335760010192915050565b60606000611b348360026140ef565b611b3f906002614848565b6001600160401b03811115611b5657611b56613961565b6040519080825280601f01601f191660200182016040528015611b80576020820181803683370190505b509050600360fc1b81600081518110611b9b57611b9b614008565b60200101906001600160f81b031916908160001a905350600f60fb1b81600181518110611bca57611bca614008565b60200101906001600160f81b031916908160001a9053506000611bee8460026140ef565b611bf9906001614848565b90505b6001811115611c71576f181899199a1a9b1b9c1cb0b131b232b360811b85600f1660108110611c2d57611c2d614008565b1a60f81b828281518110611c4357611c43614008565b60200101906001600160f81b031916908160001a90535060049490941c93611c6a816148ab565b9050611bfc565b50831561171a5760405162461bcd60e51b815260206004820181905260248201527f537472696e67733a20686578206c656e67746820696e73756666696369656e7460448201526064016102b9565b7aff00000000000000ff00000000000000ff00000000000000ff00006bffffffff0000000000000000604083901c90811663ffffffff60c01b84161760201c63ffffffff60601b919091166001600160e01b031984161717601081901c9182167eff00000000000000ff00000000000000ff00000000000000ff000000000000821617600890811c7bff00000000000000ff00000000000000ff00000000000000ff000000939093167fff00000000000000ff00000000000000ff00000000000000ff000000000000009290921691909117919091179081901c7e0f000f000f000f000f000f000f000f000f000f000f000f000f000f000f000f167f0f000f000f000f000f000f000f000f000f000f000f000f000f000f000f000f00600492831c161790611e0e827f0606060606060606060606060606060606060606060606060606060606060606614848565b901c7f0f0f0f0f0f0f0f0f0f0f0f0f0f0f0f0f0f0f0f0f0f0f0f0f0f0f0f0f0f0f0f0f166007611e3e91906140ef565b611e68827f3030303030303030303030303030303030303030303030303030303030303030614848565b6116339190614848565b600054610100900460ff16611e995760405162461bcd60e51b81526004016102b990614860565b610529336113d2565b604080516101208082526124208201909252600091829182916020820161240080368337019050509050600091505b6090821015611f0b576008818381518110611eee57611eee614008565b602090810291909101015281611f03816140d4565b925050611ed1565b610100821015611f46576009818381518110611f2957611f29614008565b602090810291909101015281611f3e816140d4565b925050611f0b565b610118821015611f81576007818381518110611f6457611f64614008565b602090810291909101015281611f79816140d4565b925050611f46565b610120821015611fbc576008818381518110611f9f57611f9f614008565b602090810291909101015281611fb4816140d4565b925050611f81565b611fcf8460c0015182610120600061239c565b50600091505b601e82101561200f576005818381518110611ff257611ff2614008565b602090810291909101015281612007816140d4565b925050611fd5565b6120218460e0015182601e600061239c565b506000949350505050565b608082015160009081905b838560a0015110156120c0578460400151518560600151141561206257600160009250925050611a46565b60a085015160408601516060870180519061207c826140d4565b90528151811061208e5761208e614008565b602001015160f81c60f81b60f81c60ff16901b8117905060088560a0018181516120b89190614848565b905250612037565b80841c608086015260a0850180518591906120dc90839061459e565b90525060006120ee600180871b61459e565b60009792169550909350505050565b600061211c604051806040016040528060608152602001606081525090565b6040805180820190915260608082526020820152600061213b85612667565b90945092509050600081600e81111561215657612156613a98565b1461216357949350505050565b61216e858484612d1d565b95945050505050565b6000611633828360c001518460e00151612d1d565b60006080820181905260a0820181905260408201515160608301518291906121b5906004614848565b11156121c45750600192915050565b6040830151606084018051906121d9826140d4565b9052815181106121eb576121eb614008565b0160200151604084015160608501805160f89390931c935060089290612210826140d4565b90528151811061222257612222614008565b602001015160f81c60f81b60f81c60ff16901b81179050801960ff168360400151846060018051809190612255906140d4565b90528151811061226757612267614008565b016020015160f81c1415806122b25750604083015160608401805160ff841960081c169291612295826140d4565b9052815181106122a7576122a7614008565b016020015160f81c14155b156122c05750600492915050565b8260400151518184606001516122d69190614848565b11156122e55750600192915050565b82515160208401516122f8908390614848565b11156123075750600292915050565b80156123935761231860018261459e565b90508260400151836060018051809190612331906140d4565b90528151811061234357612343614008565b602001015160f81c60f81b8360000151846020018051809190612365906140d4565b90528151811061237757612377614008565b60200101906001600160f81b031916908160001a905350612307565b50600092915050565b6000806000806123aa613879565b600092505b600f83116123ec576000896000015184815181106123cf576123cf614008565b6020908102919091010152826123e4816140d4565b9350506123af565b600093505b86841015612458578851886124068689614848565b8151811061241657612416614008565b60200260200101518151811061242e5761242e614008565b602002602001018051809190612443906140d4565b90525083612450816140d4565b9450506123f1565b86896000015160008151811061247057612470614008565b6020026020010151141561248b57600094505050505061265f565b60019150600192505b600f831161250e578851805160019390931b92849081106124b7576124b7614008565b60200260200101518210156124d357600e94505050505061265f565b88518051849081106124e7576124e7614008565b6020026020010151826124fa919061459e565b915082612506816140d4565b935050612494565b60006020820152600192505b600f83101561259357885180518490811061253757612537614008565b602002602001015181846010811061255157612551614008565b60200201516125609190614848565b8161256c856001614848565b6010811061257c5761257c614008565b60200201528261258b816140d4565b93505061251a565b600093505b8684101561264657876125ab8588614848565b815181106125bb576125bb614008565b60200260200101516000146126345760208901518490828a6125dd848b614848565b815181106125ed576125ed614008565b60200260200101516010811061260557612605614008565b60200201805190612615826140d4565b90528151811061262757612627614008565b6020026020010181815250505b8361263e816140d4565b945050612598565b60008211612655576000612658565b600e5b9450505050505b949350505050565b6000612686604051806040016040528060608152602001606081525090565b60408051808201909152606080825260208201526000808080806126ad601e61011e614848565b6001600160401b038111156126c4576126c4613961565b6040519080825280602002602001820160405280156126ed578160200160208202803683370190505b50905060006040518060400160405280600f600161270b9190614848565b6001600160401b0381111561272257612722613961565b60405190808252806020026020018201604052801561274b578160200160208202803683370190505b5081526040805161011e8082526123e0820190925260209283019290919082016123c08036833701905050815250905060006040518060400160405280600f60016127969190614848565b6001600160401b038111156127ad576127ad613961565b6040519080825280602002602001820160405280156127d6578160200160208202803683370190505b50815260408051601e8082526103e0820190925260209283019290919082016103c0803683375050509052905060006128108c600561202c565b98509450600085600e81111561282857612828613a98565b1461284057509298509650909450612d169350505050565b61284c61010189614848565b97506128598c600561202c565b97509450600085600e81111561287157612871613a98565b1461288957509298509650909450612d169350505050565b612894600188614848565b965061011e8811806128a65750601e87115b156128c05750600599509097509550612d16945050505050565b6128c98c613548565b9095509350600085600e8111156128e2576128e2613a98565b146128fa57509298509650909450612d169350505050565b61290883856013600061239c565b9450600085600e81111561291e5761291e613a98565b146129385750600699509097509550612d16945050505050565b600095505b6129478789614848565b861015612b405760008061295b8e8661376a565b9097509150600087600e81111561297457612974613a98565b1461298e5750949a509198509650612d1695505050505050565b60108210156129c6578186896129a3816140d4565b9a50815181106129b5576129b5614008565b602002602001018181525050612b39565b5060006010821415612a6557876129ef575060079b50929950909750612d169650505050505050565b856129fb60018a61459e565b81518110612a0b57612a0b614008565b60200260200101519050612a208e600261202c565b9097509250600087600e811115612a3957612a39613a98565b14612a535750949a509198509650612d1695505050505050565b612a5e836003614848565b9150612ac5565b8160111415612a7957612a208e600361202c565b612a848e600761202c565b9097509250600087600e811115612a9d57612a9d613a98565b14612ab75750949a509198509650612d1695505050505050565b612ac283600b614848565b91505b612acf898b614848565b612ad9838a614848565b1115612af7575060089b50929950909750612d169650505050505050565b8115612b3957612b0860018361459e565b9150808689612b16816140d4565b9a5081518110612b2857612b28614008565b602002602001018181525050612af7565b505061293d565b8361010081518110612b5457612b54614008565b602002602001015160001415612b795750600b99509097509550612d16945050505050565b612b8683858a600061239c565b9450600085600e811115612b9c57612b9c613a98565b14158015612c265750600185600e811115612bb957612bb9613a98565b1480612bd65750600285600e811115612bd457612bd4613a98565b145b80612c265750825180516001908110612bf157612bf1614008565b60200260200101518360000151600081518110612c1057612c10614008565b6020026020010151612c229190614848565b8814155b15612c405750600999509097509550612d16945050505050565b612c4c8285898b61239c565b9450600085600e811115612c6257612c62613a98565b14158015612cec5750600185600e811115612c7f57612c7f613a98565b1480612c9c5750600285600e811115612c9a57612c9a613a98565b145b80612cec5750815180516001908110612cb757612cb7614008565b60200260200101518260000151600081518110612cd657612cd6614008565b6020026020010151612ce89190614848565b8714155b15612d065750600a99509097509550612d16945050505050565b5060009950909750955050505050505b9193909250565b6000806000806000604051806103a00160405280600361ffff168152602001600461ffff168152602001600561ffff168152602001600661ffff168152602001600761ffff168152602001600861ffff168152602001600961ffff168152602001600a61ffff168152602001600b61ffff168152602001600d61ffff168152602001600f61ffff168152602001601161ffff168152602001601361ffff168152602001601761ffff168152602001601b61ffff168152602001601f61ffff168152602001602361ffff168152602001602b61ffff168152602001603361ffff168152602001603b61ffff168152602001604361ffff168152602001605361ffff168152602001606361ffff168152602001607361ffff168152602001608361ffff16815260200160a361ffff16815260200160c361ffff16815260200160e361ffff16815260200161010261ffff1681525090506000604051806103a00160405280600060ff168152602001600060ff168152602001600060ff168152602001600060ff168152602001600060ff168152602001600060ff168152602001600060ff168152602001600060ff168152602001600160ff168152602001600160ff168152602001600160ff168152602001600160ff168152602001600260ff168152602001600260ff168152602001600260ff168152602001600260ff168152602001600360ff168152602001600360ff168152602001600360ff168152602001600360ff168152602001600460ff168152602001600460ff168152602001600460ff168152602001600460ff168152602001600560ff168152602001600560ff168152602001600560ff168152602001600560ff168152602001600060ff1681525090506000604051806103c00160405280600161ffff168152602001600261ffff168152602001600361ffff168152602001600461ffff168152602001600561ffff168152602001600761ffff168152602001600961ffff168152602001600d61ffff168152602001601161ffff168152602001601961ffff168152602001602161ffff168152602001603161ffff168152602001604161ffff168152602001606161ffff168152602001608161ffff16815260200160c161ffff16815260200161010161ffff16815260200161018161ffff16815260200161020161ffff16815260200161030161ffff16815260200161040161ffff16815260200161060161ffff16815260200161080161ffff168152602001610c0161ffff16815260200161100161ffff16815260200161180161ffff16815260200161200161ffff16815260200161300161ffff16815260200161400161ffff16815260200161600161ffff1681525090506000604051806103c00160405280600060ff168152602001600060ff168152602001600060ff168152602001600060ff168152602001600160ff168152602001600160ff168152602001600260ff168152602001600260ff168152602001600360ff168152602001600360ff168152602001600460ff168152602001600460ff168152602001600560ff168152602001600560ff168152602001600660ff168152602001600660ff168152602001600760ff168152602001600760ff168152602001600860ff168152602001600860ff168152602001600960ff168152602001600960ff168152602001600a60ff168152602001600a60ff168152602001600b60ff168152602001600b60ff168152602001600c60ff168152602001600c60ff168152602001600d60ff168152602001600d60ff16815250905060005b8761010014613536576132578c8c61376a565b98509050600081600e81111561326f5761326f613a98565b1461328357975061171a9650505050505050565b6101008810156132f9578b515160208d015114156132ac5760029850505050505050505061171a565b8760f81b8c600001518d60200151815181106132ca576132ca614008565b60200101906001600160f81b031916908160001a90535060208c018051906132f1826140d4565b905250613244565b6101008811156135245760006133116101018a61459e565b9850601d891061332d57600c995050505050505050505061171a565b6133508d868b601d811061334357613343614008565b602002015160ff1661202c565b9092509050600082600e81111561336957613369613a98565b1461337e5750975061171a9650505050505050565b80868a601d811061339157613391614008565b602002015161ffff166133a49190614848565b97506133b08d8c61376a565b99509150600082600e8111156133c8576133c8613a98565b146133dd5750975061171a9650505050505050565b6133f38d848b601e811061334357613343614008565b9092509050600082600e81111561340c5761340c613a98565b146134215750975061171a9650505050505050565b80848a601e811061343457613434614008565b602002015161ffff166134479190614848565b96508c6020015187111561346757600d995050505050505050505061171a565b8c515160208e015161347a908a90614848565b1115613492576002995050505050505050505061171a565b871561351e576134a360018961459e565b97508c60000151878e602001516134ba919061459e565b815181106134ca576134ca614008565b602001015160f81c60f81b8d600001518e60200151815181106134ef576134ef614008565b60200101906001600160f81b031916908160001a90535060208d01805190613516826140d4565b905250613492565b50613244565b868c6020018181516132f19190614848565b5060009b9a5050505050505050505050565b6000606081808061355c601e61011e614848565b6001600160401b0381111561357357613573613961565b60405190808252806020026020018201604052801561359c578160200160208202803683370190505b506040805161026081018252601081526011602082015260129181019190915260006060820181905260086080830152600760a0830152600960c0830152600660e0830152600a6101008301526005610120830152600b61014083015260046101608301819052600c61018084015260036101a0840152600d6101c084015260026101e0840152600e6102008401526001610220840152600f6102408401529293509161364a90899061202c565b95509150600082600e81111561366257613662613a98565b146136735750969095509350505050565b61367e600486614848565b9450600093505b848410156137075761369888600361202c565b848387601381106136ab576136ab614008565b602002015160ff16815181106136c3576136c3614008565b60209081029190910101529150600082600e8111156136e4576136e4613a98565b146136f55750969095509350505050565b836136ff816140d4565b945050613685565b601384101561375a5760008382866013811061372557613725614008565b602002015160ff168151811061373d5761373d614008565b602090810291909101015283613752816140d4565b945050613707565b5060009791965090945050505050565b600080600181808080805b600f861161386657600061378a8b600161202c565b9092509050600082600e8111156137a3576137a3613a98565b146137ba5750965060009550611a46945050505050565b8951805196821796889081106137d2576137d2614008565b6020026020010151935083856137e89190614848565b8610156138335760208a0151600090613801878961459e565b61380b9086614848565b8151811061381b5761381b614008565b60200260200101519850985050505050505050611a46565b61383d8484614848565b92506138498486614848565b600196871b961b945086905061385e816140d4565b965050613775565b50600c9960009950975050505050505050565b6040518061020001604052806010906020820280368337509192915050565b6001600160a01b03811681146102f457600080fd5b6000602082840312156138bf57600080fd5b813561171a81613898565b6000806000606084860312156138df57600080fd5b505081359360208301359350604090920135919050565b60005b838110156139115781810151838201526020016138f9565b83811115610fa25750506000910152565b6000815180845261393a8160208601602086016138f6565b601f01601f19169290920160200192915050565b60208152600061171a6020830184613922565b634e487b7160e01b600052604160045260246000fd5b60405160a081016001600160401b038111828210171561399957613999613961565b60405290565b60405161026081016001600160401b038111828210171561399957613999613961565b604051601f8201601f191681016001600160401b03811182821017156139ea576139ea613961565b604052919050565b60006001600160401b03821115613a0b57613a0b613961565b50601f01601f191660200190565b600060208284031215613a2b57600080fd5b81356001600160401b03811115613a4157600080fd5b8201601f81018413613a5257600080fd5b8035613a65613a60826139f2565b6139c2565b818152856020838501011115613a7a57600080fd5b81602084016020830137600091810160200191909152949350505050565b634e487b7160e01b600052602160045260246000fd5b604081526000613ac16040830185613922565b9050600f8310613ae157634e487b7160e01b600052602160045260246000fd5b8260208301529392505050565b600060208284031215613b0057600080fd5b5035919050565b600080600060608486031215613b1c57600080fd5b8335613b2781613898565b92506020840135613b3781613898565b91506040840135613b4781613898565b809150509250925092565b805162ffffff81168114613b6557600080fd5b919050565b8051613b6581613898565b600082601f830112613b8657600080fd5b8151613b94613a60826139f2565b818152846020838601011115613ba957600080fd5b61265f8260208301602087016138f6565b600060a08284031215613bcc57600080fd5b613bd4613977565b905081516001600160401b0380821115613bed57600080fd5b613bf985838601613b75565b83526020840151915080821115613c0f57600080fd5b613c1b85838601613b75565b60208401526040840151915080821115613c3457600080fd5b613c4085838601613b75565b60408401526060840151915080821115613c5957600080fd5b613c6585838601613b75565b60608401526080840151915080821115613c7e57600080fd5b50613c8b84828501613b75565b60808301525092915050565b60006001600160401b03821115613cb057613cb0613961565b5060051b60200190565b600082601f830112613ccb57600080fd5b81516020613cdb613a6083613c97565b82815260059290921b84018101918181019086841115613cfa57600080fd5b8286015b84811015613d395780516001600160401b03811115613d1d5760008081fd5b613d2b8986838b0101613b75565b845250918301918301613cfe565b509695505050505050565b600082601f830112613d5557600080fd5b81516020613d65613a6083613c97565b82815260059290921b84018101918181019086841115613d8457600080fd5b8286015b84811015613d39578051613d9b81613898565b8352918301918301613d88565b600060208284031215613dba57600080fd5b81516001600160401b0380821115613dd157600080fd5b908301906102608286031215613de657600080fd5b613dee61399f565b613df783613b52565b8152613e0560208401613b52565b602082015260408301516040820152613e2060608401613b6a565b6060820152608083015182811115613e3757600080fd5b613e4387828601613b75565b60808301525060a083015182811115613e5b57600080fd5b613e6787828601613b75565b60a083015250613e7960c08401613b6a565b60c082015260e083015182811115613e9057600080fd5b613e9c87828601613b75565b60e0830152506101008084015183811115613eb657600080fd5b613ec288828701613b75565b8284015250506101208084015183811115613edc57600080fd5b613ee888828701613b75565b8284015250506101408084015183811115613f0257600080fd5b613f0e88828701613bba565b8284015250506101608084015183811115613f2857600080fd5b613f3488828701613cba565b8284015250506101808084015183811115613f4e57600080fd5b613f5a88828701613cba565b8284015250506101a08084015183811115613f7457600080fd5b613f8088828701613b75565b8284015250506101c08084015181830152506101e0613fa0818501613b6a565b908201526102008381015183811115613fb857600080fd5b613fc488828701613b75565b8284015250506102208084015183811115613fde57600080fd5b613fea88828701613d44565b91830191909152506102409283015192810192909252509392505050565b634e487b7160e01b600052603260045260246000fd5b6000806040838503121561403157600080fd5b82516001600160401b0381111561404757600080fd5b61405385828601613b75565b9250506020830151600f811061406857600080fd5b809150509250929050565b600081516140858185602086016138f6565b9290920192915050565b600083516140a18184602088016138f6565b8351908301906140b58183602088016138f6565b01949350505050565b634e487b7160e01b600052601160045260246000fd5b60006000198214156140e8576140e86140be565b5060010190565b6000816000190483118215151615614109576141096140be565b500290565b60006020828403121561412057600080fd5b81516001600160401b0381111561413657600080fd5b61265f84828501613b75565b600082516141548184602087016138f6565b9190910192915050565b7519185d184e9d195e1d0bda1d1b5b0ed8985cd94d8d0b60521b81526000825161418f8160168501602087016138f6565b9190910160160192915050565b7216101130b734b6b0ba34b7b72fbab936111d1160691b815281516000906141cb8160138501602087016138f6565b601160f91b6013939091019283015250601401919050565b600083516141f58184602088016138f6565b61202360f01b90830190815283516142148160028401602088016138f6565b01600201949350505050565b600060ff821660ff84168060ff0382111561423d5761423d6140be565b019392505050565b600084516142578184602089016138f6565b740163d913a3930b4ba2fba3cb832911d10112634b11605d1b90830190815284516142898160158401602089016138f6565b6c111610113b30b63ab2911d101160991b6015929091019182015283516142b78160228401602088016138f6565b61227d60f01b6022929091019182015260240195945050505050565b600060ff821660ff8114156142ea576142ea6140be565b60010192915050565b7f2c2261747472696275746573223a205b7b2274726169745f74797065223a202281527f436f6c6c656374696f6e2041646472657373222c202276616c7565223a20220060208201526000865161435181603f850160208b016138f6565b61227d60f01b603f9184019182018190527f2c7b2274726169745f74797065223a202243726561746f72222c202276616c7560418301526432911d101160d91b606183015287516143a9816066850160208c016138f6565b60669201918201527f2c7b2274726169745f74797065223a202243726561746f72204164647265737360688201526c111610113b30b63ab2911d101160991b608882015261446861445b61445561440a61444f61441882609588018d614073565b61227d60f01b815260020190565b7f2c7b2274726169745f74797065223a20224c6963656e7365222c202276616c7581526432911d101160d91b602082015260250190565b89614073565b86614073565b605d60f81b815260010190565b98975050505050505050565b683d913730b6b2911d1160b91b81528551600090614499816009850160208b016138f6565b601160f91b60099184019182018190526f16113232b9b1b934b83a34b7b7111d1160811b600a83015287516144d581601a850160208c016138f6565b601a920191820181905269161134b6b0b3b2911d1160b11b601b8301528651614505816025850160208b016138f6565b602592019182015284516145208160268401602089016138f6565b84519101906145368160268401602088016138f6565b61454c602682840101607d60f81b815260010190565b9998505050505050505050565b7f646174613a6170706c69636174696f6e2f6a736f6e3b6261736536342c00000081526000825161459181601d8501602087016138f6565b91909101601d0192915050565b6000828210156145b0576145b06140be565b500390565b600085516145c7818460208a016138f6565b8083019050602f60f81b80825286516145e7816001850160208b016138f6565b600192019182015284516146028160028401602089016138f6565b653f736565643d60d01b6002929091019182015283516146298160088401602088016138f6565b016008019695505050505050565b683d913730b6b2911d1160b91b8152855160009061465c816009850160208b016138f6565b711116113232b9b1b934b83a34b7b7111d101160711b600991840191820152865161468e81601b840160208b016138f6565b601160f91b601b92909101918201526b16101134b6b0b3b2911d101160a11b601c82015285516146c5816028840160208a016138f6565b6d1331b0b83a3ab9329e9a9818181160911b6028929091019182015284516146f48160368401602089016138f6565b7016101130ba3a3934b13aba32b9911d101160791b6036929091019182015261446861473d6147266047840187614073565b6a1331b0b83a3ab9329e981160a91b8152600b0190565b607d60f81b815260010190565b60006020828403121561475c57600080fd5b5051919050565b60006020828403121561477557600080fd5b815161171a81613898565b656266733a2f2f60d01b8152600085516147a1816006850160208a016138f6565b8083019050602f60f81b80600683015286516147c4816007850160208b016138f6565b6007920191820181905285516147e1816008850160208a016138f6565b600892019182015283516147fc8160098401602088016138f6565b016009019695505050505050565b634e487b7160e01b600052601260045260246000fd5b60008261482f5761482f61480a565b500690565b6000826148435761484361480a565b500490565b6000821982111561485b5761485b6140be565b500190565b6020808252602b908201527f496e697469616c697a61626c653a20636f6e7472616374206973206e6f74206960408201526a6e697469616c697a696e6760a81b606082015260800190565b6000816148ba576148ba6140be565b50600019019056fe4142434445464748494a4b4c4d4e4f505152535455565758595a6162636465666768696a6b6c6d6e6f707172737475767778797a303132333435363738392b2f000000000000000000000000000000000000000000000000000000000000000000000000000000000000003e0000003f3435363738393a3b3c3d00000000000000000102030405060708090a0b0c0d0e0f101112131415161718190000000000001a1b1c1d1e1f202122232425262728292a2b2c2d2e2f303132330000000000a2646970667358221220cd41a58db3e65d915f40153c6a5a11768354fff85a349992418d44850f6f8a6764736f6c634300080c0033",
  "linkReferences": {},
  "deployedLinkReferences": {}
}