{
  "_format": "hh-sol-artifact-1",
  "contractName": "GenerativeProjectData",
  "sourceName": "contracts/data/GenerativeProjectData.sol",
  "abi": [
    {
      "anonymous": false,
      "inputs": [
        {
          "indexed": false,
          "internalType": "uint8",
          "name": "version",
          "type": "uint8"
        }
      ],
      "name": "Initialized",
      "type": "event"
    },
    {
      "anonymous": false,
      "inputs": [
        {
          "indexed": true,
          "internalType": "address",
          "name": "previousOwner",
          "type": "address"
        },
        {
          "indexed": true,
          "internalType": "address",
          "name": "newOwner",
          "type": "address"
        }
      ],
      "name": "OwnershipTransferred",
      "type": "event"
    },
    {
      "inputs": [],
      "name": "_admin",
      "outputs": [
        {
          "internalType": "address",
          "name": "",
          "type": "address"
        }
      ],
      "stateMutability": "view",
      "type": "function"
    },
    {
      "inputs": [],
      "name": "_bfs",
      "outputs": [
        {
          "internalType": "address",
          "name": "",
          "type": "address"
        }
      ],
      "stateMutability": "view",
      "type": "function"
    },
    {
      "inputs": [],
      "name": "_generativeProjectAddr",
      "outputs": [
        {
          "internalType": "address",
          "name": "",
          "type": "address"
        }
      ],
      "stateMutability": "view",
      "type": "function"
    },
    {
      "inputs": [],
      "name": "_paramAddr",
      "outputs": [
        {
          "internalType": "address",
          "name": "",
          "type": "address"
        }
      ],
      "stateMutability": "view",
      "type": "function"
    },
    {
      "inputs": [
        {
          "internalType": "address",
          "name": "newAdm",
          "type": "address"
        }
      ],
      "name": "changeAdmin",
      "outputs": [],
      "stateMutability": "nonpayable",
      "type": "function"
    },
    {
      "inputs": [
        {
          "internalType": "address",
          "name": "newAddr",
          "type": "address"
        }
      ],
      "name": "changeBfs",
      "outputs": [],
      "stateMutability": "nonpayable",
      "type": "function"
    },
    {
      "inputs": [
        {
          "internalType": "address",
          "name": "newAddr",
          "type": "address"
        }
      ],
      "name": "changeParamAddress",
      "outputs": [],
      "stateMutability": "nonpayable",
      "type": "function"
    },
    {
      "inputs": [
        {
          "internalType": "address",
          "name": "newAddr",
          "type": "address"
        }
      ],
      "name": "changeProjectAddress",
      "outputs": [],
      "stateMutability": "nonpayable",
      "type": "function"
    },
    {
      "inputs": [],
      "name": "getChainID",
      "outputs": [
        {
          "internalType": "uint256",
          "name": "",
          "type": "uint256"
        }
      ],
      "stateMutability": "view",
      "type": "function"
    },
    {
      "inputs": [
        {
          "internalType": "string",
          "name": "script",
          "type": "string"
        }
      ],
      "name": "inflateScript",
      "outputs": [
        {
          "internalType": "string",
          "name": "result",
          "type": "string"
        },
        {
          "internalType": "enum Inflate.ErrorCode",
          "name": "err",
          "type": "uint8"
        }
      ],
      "stateMutability": "view",
      "type": "function"
    },
    {
      "inputs": [
        {
          "internalType": "string",
          "name": "data",
          "type": "string"
        }
      ],
      "name": "inflateString",
      "outputs": [
        {
          "internalType": "string",
          "name": "result",
          "type": "string"
        },
        {
          "internalType": "enum Inflate.ErrorCode",
          "name": "err",
          "type": "uint8"
        }
      ],
      "stateMutability": "view",
      "type": "function"
    },
    {
      "inputs": [
        {
          "internalType": "address",
          "name": "admin",
          "type": "address"
        },
        {
          "internalType": "address",
          "name": "paramAddr",
          "type": "address"
        },
        {
          "internalType": "address",
          "name": "generativeProjectAddr",
          "type": "address"
        }
      ],
      "name": "initialize",
      "outputs": [],
      "stateMutability": "nonpayable",
      "type": "function"
    },
    {
      "inputs": [
        {
          "internalType": "string",
          "name": "fileName",
          "type": "string"
        }
      ],
      "name": "libScript",
      "outputs": [
        {
          "internalType": "string",
          "name": "result",
          "type": "string"
        }
      ],
      "stateMutability": "view",
      "type": "function"
    },
    {
      "inputs": [],
      "name": "owner",
      "outputs": [
        {
          "internalType": "address",
          "name": "",
          "type": "address"
        }
      ],
      "stateMutability": "view",
      "type": "function"
    },
    {
      "inputs": [
        {
          "internalType": "uint256",
          "name": "projectId",
          "type": "uint256"
        }
      ],
      "name": "projectURI",
      "outputs": [
        {
          "internalType": "string",
          "name": "result",
          "type": "string"
        }
      ],
      "stateMutability": "view",
      "type": "function"
    },
    {
      "inputs": [],
      "name": "randomFuncScript",
      "outputs": [
        {
          "internalType": "string",
          "name": "",
          "type": "string"
        }
      ],
      "stateMutability": "view",
      "type": "function"
    },
    {
      "inputs": [],
      "name": "renounceOwnership",
      "outputs": [],
      "stateMutability": "nonpayable",
      "type": "function"
    },
    {
      "inputs": [
        {
          "internalType": "uint256",
          "name": "projectId",
          "type": "uint256"
        },
        {
          "internalType": "uint256",
          "name": "tokenId",
          "type": "uint256"
        },
        {
          "internalType": "bytes32",
          "name": "seed",
          "type": "bytes32"
        }
      ],
      "name": "tokenHTML",
      "outputs": [
        {
          "internalType": "string",
          "name": "result",
          "type": "string"
        }
      ],
      "stateMutability": "view",
      "type": "function"
    },
    {
      "inputs": [
        {
          "internalType": "uint256",
          "name": "projectId",
          "type": "uint256"
        },
        {
          "internalType": "uint256",
          "name": "tokenId",
          "type": "uint256"
        },
        {
          "internalType": "bytes32",
          "name": "seed",
          "type": "bytes32"
        }
      ],
      "name": "tokenURI",
      "outputs": [
        {
          "internalType": "string",
          "name": "result",
          "type": "string"
        }
      ],
      "stateMutability": "view",
      "type": "function"
    },
    {
      "inputs": [
        {
          "internalType": "address",
          "name": "newOwner",
          "type": "address"
        }
      ],
      "name": "transferOwnership",
      "outputs": [],
      "stateMutability": "nonpayable",
      "type": "function"
    },
    {
      "inputs": [
        {
          "internalType": "bytes32",
          "name": "seed",
          "type": "bytes32"
        },
        {
          "internalType": "uint256",
          "name": "tokenId",
          "type": "uint256"
        }
      ],
      "name": "variableScript",
      "outputs": [
        {
          "internalType": "string",
          "name": "result",
          "type": "string"
        }
      ],
      "stateMutability": "view",
      "type": "function"
    }
  ],
  "bytecode": "0x608060405234801561001057600080fd5b50615871806100206000396000f3fe608060405234801561001057600080fd5b50600436106101375760003560e01c8063715018a6116100b8578063941393011161007c5780639413930114610276578063a2546df414610289578063c0c53b8b1461029c578063e8082858146102af578063f2fde38b146102c2578063f4a290f7146102d557600080fd5b8063715018a61461022457806379ebc6f01461022c5780637af34af21461023f5780638da5cb5b146102525780638f2839701461026357600080fd5b806332e32326116100ff57806332e32326146101bc57806333348979146101cf578063564b81ef146101e2578063567fdcf3146101f05780636e973cf21461020357600080fd5b806301bc45c91461013c57806316a5041f1461016c5780632b333cd8146101815780632b7d13de1461019657806331c7280c146101a9575b600080fd5b60655461014f906001600160a01b031681565b6040516001600160a01b0390911681526020015b60405180910390f35b61017f61017a366004613ff7565b6102e8565b005b610189610382565b604051610163919061406c565b61017f6101a4366004613ff7565b610452565b6101896101b736600461407f565b6104e4565b6101896101ca3660046140ab565b610899565b60685461014f906001600160a01b031681565b604051468152602001610163565b60675461014f906001600160a01b031681565b610216610211366004614185565b610936565b60405161016392919061421a565b61017f610954565b61018961023a36600461425a565b610968565b61021661024d366004614185565b610d7a565b6033546001600160a01b031661014f565b61017f610271366004613ff7565b610d99565b61018961028436600461407f565b610e2b565b610189610297366004614185565b6112cc565b61017f6102aa366004614273565b61133c565b61017f6102bd366004613ff7565b61148d565b61017f6102d0366004613ff7565b61151f565b60665461014f906001600160a01b031681565b6065546001600160a01b03163314801561030a57506001600160a01b03811615155b6040518060400160405280600381526020016231303160e81b8152509061034d5760405162461bcd60e51b8152600401610344919061406c565b60405180910390fd5b506066546001600160a01b0382811691161461037f57606680546001600160a01b0319166001600160a01b0383161790555b50565b60665460408051808201825260128152711490539113d357d1955390d7d4d0d492541560721b6020820152905163349f642f60e11b81526060926000926001600160a01b039091169163693ec85e916103dd9160040161406c565b600060405180830381865afa1580156103fa573d6000803e3d6000fd5b505050506040513d6000823e601f3d908101601f19168201604052610422919081019061430e565b905080516000141561044d576040518061042001604052806103e581526020016153606103e5913990505b919050565b6065546001600160a01b03163314801561047457506001600160a01b03811615155b6040518060400160405280600381526020016231303160e81b815250906104ae5760405162461bcd60e51b8152600401610344919061406c565b506068546001600160a01b0382811691161461037f57606880546001600160a01b0383166001600160a01b031990911617905550565b6067546040516346ec8d2b60e11b8152600481018590526060916001600160a01b0316906000908290638dd91a5690602401600060405180830381865afa158015610533573d6000803e3d6000fd5b505050506040513d6000823e601f3d908101601f1916820160405261055b919081019061454e565b905060408051602081019091526000808252606090805b846101800151518110156106d35760008561018001518281518110610599576105996147ae565b60200260200101515111156106c157306001600160a01b0316636e973cf286610180015183815181106105ce576105ce6147ae565b60200260200101516040518263ffffffff1660e01b81526004016105f2919061406c565b600060405180830381865afa15801561060f573d6000803e3d6000fd5b505050506040513d6000823e601f3d908101601f1916820160405261063791908101906147c4565b9093509150600082600e81111561065057610650614204565b1461069c5783856101800151828151811061066d5761066d6147ae565b6020026020010151604051602001610686929190614835565b60405160208183030381529060405293506106c1565b83836040516020016106af929190614835565b60405160208183030381529060405293505b806106cb8161487a565b915050610572565b50829550505050610890565b846101800151518110156108405760008561018001518281518110610706576107066147ae565b602002602001015151111561082e57306001600160a01b0316636e973cf2866101800151838151811061073b5761073b6147ae565b60200260200101516040518263ffffffff1660e01b815260040161075f919061406c565b600060405180830381865afa15801561077c573d6000803e3d6000fd5b505050506040513d6000823e601f3d908101601f191682016040526107a491908101906147c4565b9093509150600082600e8111156107bd576107bd614204565b14610809578385610180015182815181106107da576107da6147ae565b60200260200101516040516020016107f3929190614895565b604051602081830303815290604052935061082e565b838360405160200161081c929190614895565b60405160208183030381529060405293505b806108388161487a565b9150506106df565b5061084f846101600151611595565b610859888a610899565b610861610382565b866101a001518660405160200161087c9594939291906148ee565b60408051601f198184030190525250909350505b50509392505050565b60606040518060600160405280603a8152602001615326603a91399050806108c084611613565b6040516020016108d1929190614a08565b6040516020818303038152906040529050806108ec8361164e565b6040516020016108fd929190614a5c565b60405160208183030381529060405290508060405160200161091f9190614ab3565b604051602081830303815290604052905092915050565b6060600061094b610946846116ea565b611858565b91509150915091565b61095c6119ae565b6109666000611a08565b565b60606109c46040518061010001604052806060815260200160006001600160a01b031681526020016060815260200160608152602001606081526020016060815260200160006001600160a01b03168152602001606081525090565b6067546040516346ec8d2b60e11b8152600481018590526001600160a01b03909116906000908290638dd91a5690602401600060405180830381865afa158015610a12573d6000803e3d6000fd5b505050506040513d6000823e601f3d908101601f19168201604052610a3a919081019061454e565b90506000610a4b620f424087614ae0565b90506000306001600160a01b03166331c7280c888485604051602001610a7391815260200190565b604051602081830303815290604052805190602001206040518463ffffffff1660e01b8152600401610ab8939291909283526020830191909152604082015260600190565b600060405180830381865afa158015610ad5573d6000803e3d6000fd5b505050506040513d6000823e601f3d908101601f19168201604052610afd919081019061430e565b805190915015610b5157610b2f81604051602001610b1b9190614aff565b604051602081830303815290604052611a5a565b604051602001610b3f9190614b1b565b60405160208183030381529060405290505b600081604051602001610b649190614b59565b60405160208183030381529060405290508360800151610b838961164e565b604051602001610b94929190614ba0565b60408051601f1981840301815291815287015261010084015160808701819052606090600090610bc390610936565b9092509050600081600e811115610bdc57610bdc614204565b1415610bea57608088018290525b610120860151606089015260a08089018490526101e08701516001600160a01b0390811660c0808c0191909152880151166020808b019190915290870151895260408051918201905260008082525b876101600151518160ff161015610cb95781610c61610c59836001614bdd565b60ff1661164e565b8961016001518360ff1681518110610c7b57610c7b6147ae565b6020026020010151604051602001610c9593929190614c02565b60405160208183030381529060405291508080610cb190614c90565b915050610c39565b50610cc78960c00151611bbf565b895160208b0151610cd790611bbf565b8960e0015184604051602001610cf1959493929190614cb0565b6040516020818303038152906040528960e00181905250610d4b8960400151610d288b60800151604051602001610b1b9190614aff565b8b606001518c60a001518d60e00151604051602001610b1b959493929190614e31565b604051602001610d5b9190614f09565b6040516020818303038152906040529950505050505050505050919050565b6060600061094b6102116009808651610d939190614f4e565b86611bdb565b6065546001600160a01b031633148015610dbb57506001600160a01b03811615155b6040518060400160405280600381526020016231303160e81b81525090610df55760405162461bcd60e51b8152600401610344919061406c565b506065546001600160a01b0382811691161461037f57606580546001600160a01b0383166001600160a01b031990911617905550565b6066546067546040516346ec8d2b60e11b8152600481018690526060926001600160a01b039081169216906000908290638dd91a5690602401600060405180830381865afa158015610e81573d6000803e3d6000fd5b505050506040513d6000823e601f3d908101601f19168201604052610ea9919081019061454e565b604051630c71ca0360e21b815260048101899052602481018890526044810187905290915060009030906331c7280c90606401600060405180830381865afa158015610ef9573d6000803e3d6000fd5b505050506040513d6000823e601f3d908101601f19168201604052610f21919081019061430e565b80519091501561118c57610f3f81604051602001610b1b9190614aff565b604051602001610f4f9190614b1b565b60408051601f1981840301815260a0830182526060808452602084018190529183018290528183018290526080830191909152915081604051602001610f959190614b59565b60408051601f19818403018152918152606083019190915280518082018252600e81526d109054d157d5549257d51490525560921b6020820152905163349f642f60e11b81526001600160a01b0387169163693ec85e91610ff9919060040161406c565b600060405180830381865afa158015611016573d6000803e3d6000fd5b505050506040513d6000823e601f3d908101601f1916820160405261103e919081019061430e565b604082015260808301516110518961164e565b604051602001611062929190614ba0565b60408051601f198184030181529190528152610100830151602082015261020083015151156110975761020083015160208201525b606060006110a88360200151610936565b9092509050600081600e8111156110c1576110c1614204565b14156110cf57602083018290525b60408301516067546110e9906001600160a01b0316611bbf565b6110f28c61164e565b6110fb8c611613565b60405160200161110e9493929190614f65565b604051602081830303815290604052836040018190525061116383600001516111458560200151604051602001610b1b9190614aff565b60408087015160608801519151610b1b949392908290602001614fe7565b6040516020016111739190614f09565b60405160208183030381529060405297505050506112c1565b6111f6306001600160a01b031663564b81ef6040518163ffffffff1660e01b8152600401602060405180830381865afa1580156111cd573d6000803e3d6000fd5b505050506040513d601f19601f820116820180604052508101906111f191906150fb565b61164e565b604080518082018252600b81526a4246535f4144445245535360a81b6020820152905163bf40fac160e01b815261128a916001600160a01b0388169163bf40fac1916112449160040161406c565b602060405180830381865afa158015611261573d6000803e3d6000fd5b505050506040513d601f19601f820116820180604052508101906112859190615114565b611bbf565b61129333611bbf565b61129c89611613565b6040516020016112af9493929190615131565b60405160208183030381529060405294505b505050509392505050565b6060604051806060016040528060378152602001615785603791399050806112f383611cc3565b604051602001611304929190614835565b6040516020818303038152906040529050806040516020016113269190614ab3565b6040516020818303038152906040529050919050565b600054610100900460ff161580801561135c5750600054600160ff909116105b806113765750303b158015611376575060005460ff166001145b6113d95760405162461bcd60e51b815260206004820152602e60248201527f496e697469616c697a61626c653a20636f6e747261637420697320616c72656160448201526d191e481a5b9a5d1a585b1a5e995960921b6064820152608401610344565b6000805460ff1916600117905580156113fc576000805461ff0019166101001790555b606580546001600160a01b038087166001600160a01b031992831617909255606680548684169083161790556067805492851692909116919091179055611441611eb7565b8015611487576000805461ff0019169055604051600181527f7f26b83ff96e1f2b6a682f133852f6798a09c465da95921460cefb38474024989060200160405180910390a15b50505050565b6065546001600160a01b0316331480156114af57506001600160a01b03811615155b6040518060400160405280600381526020016231303160e81b815250906114e95760405162461bcd60e51b8152600401610344919061406c565b506067546001600160a01b0382811691161461037f57606780546001600160a01b0383166001600160a01b031990911617905550565b6115276119ae565b6001600160a01b03811661158c5760405162461bcd60e51b815260206004820152602660248201527f4f776e61626c653a206e6577206f776e657220697320746865207a65726f206160448201526564647265737360d01b6064820152608401610344565b61037f81611a08565b604080516020810190915260008082525b825181101561160d5760006115d38483815181106115c6576115c66147ae565b60200260200101516112cc565b905082816040516020016115e8929190614835565b60405160208183030381529060405292505080806116059061487a565b9150506115a6565b50919050565b606061161e82611ee6565b61162b608084901b611ee6565b60405161060f60f31b602082015260228101929092526042820152606201611326565b6060600061165b83612098565b60010190506000816001600160401b0381111561167a5761167a6140cd565b6040519080825280601f01601f1916602001820160405280156116a4576020820181803683370190505b5090508181016020015b600019016f181899199a1a9b1b9c1cb0b131b232b360811b600a86061a8153600a85049450846116dd576116e2565b6116ae565b509392505050565b80516060908290158061170957506004815161170691906151d1565b15155b156117245760408051600080825260208201909252906116e2565b60006040518060a00160405280608081526020016157bc60809139905060006004835161175191906151e5565b61175c906003614ae0565b9050600061176b8260206151f9565b6001600160401b03811115611782576117826140cd565b6040519080825280601f01601f1916602001820160405280156117ac576020820181803683370190505b5090508351840151603d60ff821614156117db57600183039250613d3d61ffff821614156117db576001830392505b50818152600183018485518101602084015b8183101561184a57600483019250825160ff8082168601511660ff808360081c168701511660061b0160ff808360101c1687015116600c1b60ff808460181c168801511660121b010190508060e81b8252506003810190506117ed565b509298975050505050505050565b60606000606061187584855160056118709190614ae0565b612170565b9092509050600082600e81111561188e5761188e614204565b14156119955760005b8181815181106118a9576118a96147ae565b01602001516001600160f81b0319166118c1576118e1565b806118cb8161487a565b91505081518114156118dc576118e1565b611897565b6000816001600160401b038111156118fb576118fb6140cd565b6040519080825280601f01601f191660200182016040528015611925576020820181803683370190505b50905060005b8281101561198b57838181518110611945576119456147ae565b602001015160f81c60f81b828281518110611962576119626147ae565b60200101906001600160f81b031916908160001a905350806119838161487a565b91505061192b565b5093506119a89050565b6040518060200160405280600081525092505b50915091565b6033546001600160a01b031633146109665760405162461bcd60e51b815260206004820181905260248201527f4f776e61626c653a2063616c6c6572206973206e6f7420746865206f776e65726044820152606401610344565b603380546001600160a01b038381166001600160a01b0319831681179093556040519116919082907f8be0079c531659141344cd1fd0a4f28419497f9722a3daafe3b4186f6b6457e090600090a35050565b6060815160001415611a7a57505060408051602081019091526000815290565b60006040518060600160405280604081526020016157456040913990506000600384516002611aa991906151f9565b611ab391906151e5565b611abe906004614ae0565b90506000611acd8260206151f9565b6001600160401b03811115611ae457611ae46140cd565b6040519080825280601f01601f191660200182016040528015611b0e576020820181803683370190505b509050818152600183018586518101602084015b81831015611b7a576003830192508251603f8160121c168501518253600182019150603f81600c1c168501518253600182019150603f8160061c168501518253600182019150603f8116850151825350600101611b22565b600389510660018114611b945760028114611ba557611bb1565b613d3d60f01b600119830152611bb1565b603d60f81b6000198301525b509398975050505050505050565b6060611bd56001600160a01b0383166014612421565b92915050565b60606000611be98585614f4e565b611bf49060016151f9565b6001600160401b03811115611c0b57611c0b6140cd565b6040519080825280601f01601f191660200182016040528015611c35576020820181803683370190505b50905060005b611c458686614f4e565b8111611cb857836001611c5888846151f9565b611c629190614f4e565b81518110611c7257611c726147ae565b602001015160f81c60f81b828281518110611c8f57611c8f6147ae565b60200101906001600160f81b031916908160001a90535080611cb08161487a565b915050611c3b565b5090505b9392505050565b604080516020810182526000808252606854606654935163bf40fac160e01b815292936001600160a01b039182169391169063bf40fac190611d2b906004016020808252600f908201526e29a1a924a82a2fa82927ab24a222a960891b604082015260600190565b602060405180830381865afa158015611d48573d6000803e3d6000fd5b505050506040513d601f19601f82011682018060405250810190611d6c9190615114565b90506000826001600160a01b031663ba67e64183876040518363ffffffff1660e01b8152600401611d9e929190615211565b602060405180830381865afa158015611dbb573d6000803e3d6000fd5b505050506040513d601f19601f82011682018060405250810190611ddf91906150fb565b9050611dec6001826151f9565b905060005b81811015611eae57600080856001600160a01b031663a0e56764868a866040518463ffffffff1660e01b8152600401611e2c93929190615235565b600060405180830381865afa158015611e49573d6000803e3d6000fd5b505050506040513d6000823e601f3d908101601f19168201604052611e719190810190615269565b915091508682604051602001611e88929190614835565b604051602081830303815290604052965050508080611ea69061487a565b915050611df1565b50505050919050565b600054610100900460ff16611ede5760405162461bcd60e51b8152600401610344906152c3565b6109666125bc565b7aff00000000000000ff00000000000000ff00000000000000ff00006bffffffff0000000000000000604083901c90811663ffffffff60c01b84161760201c63ffffffff60601b919091166001600160e01b031984161717601081901c9182167eff00000000000000ff00000000000000ff00000000000000ff000000000000821617600890811c7bff00000000000000ff00000000000000ff00000000000000ff000000939093167fff00000000000000ff00000000000000ff00000000000000ff000000000000009290921691909117919091179081901c7e0f000f000f000f000f000f000f000f000f000f000f000f000f000f000f000f167f0f000f000f000f000f000f000f000f000f000f000f000f000f000f000f000f00600492831c161790612034827f06060606060606060606060606060606060606060606060606060606060606066151f9565b901c7f0f0f0f0f0f0f0f0f0f0f0f0f0f0f0f0f0f0f0f0f0f0f0f0f0f0f0f0f0f0f0f0f1660076120649190614ae0565b61208e827f30303030303030303030303030303030303030303030303030303030303030306151f9565b611bd591906151f9565b60008072184f03e93ff9f4daa797ed6e38ed64bf6a1f0160401b83106120d75772184f03e93ff9f4daa797ed6e38ed64bf6a1f0160401b830492506040015b6d04ee2d6d415b85acef81000000008310612103576d04ee2d6d415b85acef8100000000830492506020015b662386f26fc10000831061212157662386f26fc10000830492506010015b6305f5e1008310612139576305f5e100830492506008015b612710831061214d57612710830492506004015b6064831061215f576064830492506002015b600a8310611bd55760010192915050565b600060606000604051806101000160405280856001600160401b0381111561219a5761219a6140cd565b6040519080825280601f01601f1916602001820160405280156121c4576020820181803683370190505b508152602001600081526020018681526020016000815260200160008152602001600081526020016040518060400160405280600f600161220591906151f9565b6001600160401b0381111561221c5761221c6140cd565b604051908082528060200260200182016040528015612245578160200160208202803683370190505b5081526040805161012080825261242082019092526020928301929091908201612400803683370190505081525081526020016040518060400160405280600f600161229191906151f9565b6001600160401b038111156122a8576122a86140cd565b6040519080825280602002602001820160405280156122d1578160200160208202803683370190505b50815260408051601e8082526103e0820190925260209283019290919082016103c0803683375050509052905290506000808061230d846125ec565b9050600081600e81111561232357612323614204565b1461233857925192945091925061241a915050565b8261240f57612348846001612776565b93509050600081600e81111561236057612360614204565b1461237557925192945091925061241a915050565b612380846002612776565b92509050600081600e81111561239857612398614204565b146123ad57925192945091925061241a915050565b81156123e157816001146123d857816002146123ca5760036123ea565b6123d384612847565b6123ea565b6123d3846128c1565b6123ea846128d6565b9050600081600e81111561240057612400614204565b1461240a5761240f565b612338565b925192945091925050505b9250929050565b60606000612430836002614ae0565b61243b9060026151f9565b6001600160401b03811115612452576124526140cd565b6040519080825280601f01601f19166020018201604052801561247c576020820181803683370190505b509050600360fc1b81600081518110612497576124976147ae565b60200101906001600160f81b031916908160001a905350600f60fb1b816001815181106124c6576124c66147ae565b60200101906001600160f81b031916908160001a90535060006124ea846002614ae0565b6124f59060016151f9565b90505b600181111561256d576f181899199a1a9b1b9c1cb0b131b232b360811b85600f1660108110612529576125296147ae565b1a60f81b82828151811061253f5761253f6147ae565b60200101906001600160f81b031916908160001a90535060049490941c936125668161530e565b90506124f8565b508315611cbc5760405162461bcd60e51b815260206004820181905260248201527f537472696e67733a20686578206c656e67746820696e73756666696369656e746044820152606401610344565b600054610100900460ff166125e35760405162461bcd60e51b8152600401610344906152c3565b61096633611a08565b604080516101208082526124208201909252600091829182916020820161240080368337019050509050600091505b6090821015612655576008818381518110612638576126386147ae565b60209081029190910101528161264d8161487a565b92505061261b565b610100821015612690576009818381518110612673576126736147ae565b6020908102919091010152816126888161487a565b925050612655565b6101188210156126cb5760078183815181106126ae576126ae6147ae565b6020908102919091010152816126c38161487a565b925050612690565b6101208210156127065760088183815181106126e9576126e96147ae565b6020908102919091010152816126fe8161487a565b9250506126cb565b6127198460c00151826101206000612ae6565b50600091505b601e82101561275957600581838151811061273c5761273c6147ae565b6020908102919091010152816127518161487a565b92505061271f565b61276b8460e0015182601e6000612ae6565b506000949350505050565b608082015160009081905b838560a00151101561280a57846040015151856060015114156127ac5760016000925092505061241a565b60a08501516040860151606087018051906127c68261487a565b9052815181106127d8576127d86147ae565b602001015160f81c60f81b60f81c60ff16901b8117905060088560a00181815161280291906151f9565b905250612781565b80841c608086015260a085018051859190612826908390614f4e565b9052506000612838600180871b614f4e565b60009792169550909350505050565b6000612866604051806040016040528060608152602001606081525090565b6040805180820190915260608082526020820152600061288585612db1565b90945092509050600081600e8111156128a0576128a0614204565b146128ad57949350505050565b6128b8858484613467565b95945050505050565b6000611bd5828360c001518460e00151613467565b60006080820181905260a0820181905260408201515160608301518291906128ff9060046151f9565b111561290e5750600192915050565b6040830151606084018051906129238261487a565b905281518110612935576129356147ae565b0160200151604084015160608501805160f89390931c93506008929061295a8261487a565b90528151811061296c5761296c6147ae565b602001015160f81c60f81b60f81c60ff16901b81179050801960ff16836040015184606001805180919061299f9061487a565b9052815181106129b1576129b16147ae565b016020015160f81c1415806129fc5750604083015160608401805160ff841960081c1692916129df8261487a565b9052815181106129f1576129f16147ae565b016020015160f81c14155b15612a0a5750600492915050565b826040015151818460600151612a2091906151f9565b1115612a2f5750600192915050565b8251516020840151612a429083906151f9565b1115612a515750600292915050565b8015612add57612a62600182614f4e565b90508260400151836060018051809190612a7b9061487a565b905281518110612a8d57612a8d6147ae565b602001015160f81c60f81b8360000151846020018051809190612aaf9061487a565b905281518110612ac157612ac16147ae565b60200101906001600160f81b031916908160001a905350612a51565b50600092915050565b600080600080612af4613fc3565b600092505b600f8311612b3657600089600001518481518110612b1957612b196147ae565b602090810291909101015282612b2e8161487a565b935050612af9565b600093505b86841015612ba257885188612b5086896151f9565b81518110612b6057612b606147ae565b602002602001015181518110612b7857612b786147ae565b602002602001018051809190612b8d9061487a565b90525083612b9a8161487a565b945050612b3b565b868960000151600081518110612bba57612bba6147ae565b60200260200101511415612bd5576000945050505050612da9565b60019150600192505b600f8311612c58578851805160019390931b9284908110612c0157612c016147ae565b6020026020010151821015612c1d57600e945050505050612da9565b8851805184908110612c3157612c316147ae565b602002602001015182612c449190614f4e565b915082612c508161487a565b935050612bde565b60006020820152600192505b600f831015612cdd578851805184908110612c8157612c816147ae565b6020026020010151818460108110612c9b57612c9b6147ae565b6020020151612caa91906151f9565b81612cb68560016151f9565b60108110612cc657612cc66147ae565b602002015282612cd58161487a565b935050612c64565b600093505b86841015612d905787612cf585886151f9565b81518110612d0557612d056147ae565b6020026020010151600014612d7e5760208901518490828a612d27848b6151f9565b81518110612d3757612d376147ae565b602002602001015160108110612d4f57612d4f6147ae565b60200201805190612d5f8261487a565b905281518110612d7157612d716147ae565b6020026020010181815250505b83612d888161487a565b945050612ce2565b60008211612d9f576000612da2565b600e5b9450505050505b949350505050565b6000612dd0604051806040016040528060608152602001606081525090565b6040805180820190915260608082526020820152600080808080612df7601e61011e6151f9565b6001600160401b03811115612e0e57612e0e6140cd565b604051908082528060200260200182016040528015612e37578160200160208202803683370190505b50905060006040518060400160405280600f6001612e5591906151f9565b6001600160401b03811115612e6c57612e6c6140cd565b604051908082528060200260200182016040528015612e95578160200160208202803683370190505b5081526040805161011e8082526123e0820190925260209283019290919082016123c08036833701905050815250905060006040518060400160405280600f6001612ee091906151f9565b6001600160401b03811115612ef757612ef76140cd565b604051908082528060200260200182016040528015612f20578160200160208202803683370190505b50815260408051601e8082526103e0820190925260209283019290919082016103c080368337505050905290506000612f5a8c6005612776565b98509450600085600e811115612f7257612f72614204565b14612f8a575092985096509094506134609350505050565b612f96610101896151f9565b9750612fa38c6005612776565b97509450600085600e811115612fbb57612fbb614204565b14612fd3575092985096509094506134609350505050565b612fde6001886151f9565b965061011e881180612ff05750601e87115b1561300a5750600599509097509550613460945050505050565b6130138c613c92565b9095509350600085600e81111561302c5761302c614204565b14613044575092985096509094506134609350505050565b613052838560136000612ae6565b9450600085600e81111561306857613068614204565b146130825750600699509097509550613460945050505050565b600095505b61309187896151f9565b86101561328a576000806130a58e86613eb4565b9097509150600087600e8111156130be576130be614204565b146130d85750949a50919850965061346095505050505050565b6010821015613110578186896130ed8161487a565b9a50815181106130ff576130ff6147ae565b602002602001018181525050613283565b50600060108214156131af5787613139575060079b509299509097506134609650505050505050565b8561314560018a614f4e565b81518110613155576131556147ae565b6020026020010151905061316a8e6002612776565b9097509250600087600e81111561318357613183614204565b1461319d5750949a50919850965061346095505050505050565b6131a88360036151f9565b915061320f565b81601114156131c35761316a8e6003612776565b6131ce8e6007612776565b9097509250600087600e8111156131e7576131e7614204565b146132015750949a50919850965061346095505050505050565b61320c83600b6151f9565b91505b613219898b6151f9565b613223838a6151f9565b1115613241575060089b509299509097506134609650505050505050565b811561328357613252600183614f4e565b91508086896132608161487a565b9a5081518110613272576132726147ae565b602002602001018181525050613241565b5050613087565b836101008151811061329e5761329e6147ae565b6020026020010151600014156132c35750600b99509097509550613460945050505050565b6132d083858a6000612ae6565b9450600085600e8111156132e6576132e6614204565b141580156133705750600185600e81111561330357613303614204565b14806133205750600285600e81111561331e5761331e614204565b145b80613370575082518051600190811061333b5761333b6147ae565b6020026020010151836000015160008151811061335a5761335a6147ae565b602002602001015161336c91906151f9565b8814155b1561338a5750600999509097509550613460945050505050565b6133968285898b612ae6565b9450600085600e8111156133ac576133ac614204565b141580156134365750600185600e8111156133c9576133c9614204565b14806133e65750600285600e8111156133e4576133e4614204565b145b806134365750815180516001908110613401576134016147ae565b60200260200101518260000151600081518110613420576134206147ae565b602002602001015161343291906151f9565b8714155b156134505750600a99509097509550613460945050505050565b5060009950909750955050505050505b9193909250565b6000806000806000604051806103a00160405280600361ffff168152602001600461ffff168152602001600561ffff168152602001600661ffff168152602001600761ffff168152602001600861ffff168152602001600961ffff168152602001600a61ffff168152602001600b61ffff168152602001600d61ffff168152602001600f61ffff168152602001601161ffff168152602001601361ffff168152602001601761ffff168152602001601b61ffff168152602001601f61ffff168152602001602361ffff168152602001602b61ffff168152602001603361ffff168152602001603b61ffff168152602001604361ffff168152602001605361ffff168152602001606361ffff168152602001607361ffff168152602001608361ffff16815260200160a361ffff16815260200160c361ffff16815260200160e361ffff16815260200161010261ffff1681525090506000604051806103a00160405280600060ff168152602001600060ff168152602001600060ff168152602001600060ff168152602001600060ff168152602001600060ff168152602001600060ff168152602001600060ff168152602001600160ff168152602001600160ff168152602001600160ff168152602001600160ff168152602001600260ff168152602001600260ff168152602001600260ff168152602001600260ff168152602001600360ff168152602001600360ff168152602001600360ff168152602001600360ff168152602001600460ff168152602001600460ff168152602001600460ff168152602001600460ff168152602001600560ff168152602001600560ff168152602001600560ff168152602001600560ff168152602001600060ff1681525090506000604051806103c00160405280600161ffff168152602001600261ffff168152602001600361ffff168152602001600461ffff168152602001600561ffff168152602001600761ffff168152602001600961ffff168152602001600d61ffff168152602001601161ffff168152602001601961ffff168152602001602161ffff168152602001603161ffff168152602001604161ffff168152602001606161ffff168152602001608161ffff16815260200160c161ffff16815260200161010161ffff16815260200161018161ffff16815260200161020161ffff16815260200161030161ffff16815260200161040161ffff16815260200161060161ffff16815260200161080161ffff168152602001610c0161ffff16815260200161100161ffff16815260200161180161ffff16815260200161200161ffff16815260200161300161ffff16815260200161400161ffff16815260200161600161ffff1681525090506000604051806103c00160405280600060ff168152602001600060ff168152602001600060ff168152602001600060ff168152602001600160ff168152602001600160ff168152602001600260ff168152602001600260ff168152602001600360ff168152602001600360ff168152602001600460ff168152602001600460ff168152602001600560ff168152602001600560ff168152602001600660ff168152602001600660ff168152602001600760ff168152602001600760ff168152602001600860ff168152602001600860ff168152602001600960ff168152602001600960ff168152602001600a60ff168152602001600a60ff168152602001600b60ff168152602001600b60ff168152602001600c60ff168152602001600c60ff168152602001600d60ff168152602001600d60ff16815250905060005b8761010014613c80576139a18c8c613eb4565b98509050600081600e8111156139b9576139b9614204565b146139cd579750611cbc9650505050505050565b610100881015613a43578b515160208d015114156139f657600298505050505050505050611cbc565b8760f81b8c600001518d6020015181518110613a1457613a146147ae565b60200101906001600160f81b031916908160001a90535060208c01805190613a3b8261487a565b90525061398e565b610100881115613c6e576000613a5b6101018a614f4e565b9850601d8910613a7757600c9950505050505050505050611cbc565b613a9a8d868b601d8110613a8d57613a8d6147ae565b602002015160ff16612776565b9092509050600082600e811115613ab357613ab3614204565b14613ac857509750611cbc9650505050505050565b80868a601d8110613adb57613adb6147ae565b602002015161ffff16613aee91906151f9565b9750613afa8d8c613eb4565b99509150600082600e811115613b1257613b12614204565b14613b2757509750611cbc9650505050505050565b613b3d8d848b601e8110613a8d57613a8d6147ae565b9092509050600082600e811115613b5657613b56614204565b14613b6b57509750611cbc9650505050505050565b80848a601e8110613b7e57613b7e6147ae565b602002015161ffff16613b9191906151f9565b96508c60200151871115613bb157600d9950505050505050505050611cbc565b8c515160208e0151613bc4908a906151f9565b1115613bdc5760029950505050505050505050611cbc565b8715613c6857613bed600189614f4e565b97508c60000151878e60200151613c049190614f4e565b81518110613c1457613c146147ae565b602001015160f81c60f81b8d600001518e6020015181518110613c3957613c396147ae565b60200101906001600160f81b031916908160001a90535060208d01805190613c608261487a565b905250613bdc565b5061398e565b868c602001818151613a3b91906151f9565b5060009b9a5050505050505050505050565b60006060818080613ca6601e61011e6151f9565b6001600160401b03811115613cbd57613cbd6140cd565b604051908082528060200260200182016040528015613ce6578160200160208202803683370190505b506040805161026081018252601081526011602082015260129181019190915260006060820181905260086080830152600760a0830152600960c0830152600660e0830152600a6101008301526005610120830152600b61014083015260046101608301819052600c61018084015260036101a0840152600d6101c084015260026101e0840152600e6102008401526001610220840152600f61024084015292935091613d94908990612776565b95509150600082600e811115613dac57613dac614204565b14613dbd5750969095509350505050565b613dc86004866151f9565b9450600093505b84841015613e5157613de2886003612776565b84838760138110613df557613df56147ae565b602002015160ff1681518110613e0d57613e0d6147ae565b60209081029190910101529150600082600e811115613e2e57613e2e614204565b14613e3f5750969095509350505050565b83613e498161487a565b945050613dcf565b6013841015613ea457600083828660138110613e6f57613e6f6147ae565b602002015160ff1681518110613e8757613e876147ae565b602090810291909101015283613e9c8161487a565b945050613e51565b5060009791965090945050505050565b600080600181808080805b600f8611613fb0576000613ed48b6001612776565b9092509050600082600e811115613eed57613eed614204565b14613f04575096506000955061241a945050505050565b895180519682179688908110613f1c57613f1c6147ae565b602002602001015193508385613f3291906151f9565b861015613f7d5760208a0151600090613f4b8789614f4e565b613f5590866151f9565b81518110613f6557613f656147ae565b6020026020010151985098505050505050505061241a565b613f8784846151f9565b9250613f9384866151f9565b600196871b961b9450869050613fa88161487a565b965050613ebf565b50600c9960009950975050505050505050565b6040518061020001604052806010906020820280368337509192915050565b6001600160a01b038116811461037f57600080fd5b60006020828403121561400957600080fd5b8135611cbc81613fe2565b60005b8381101561402f578181015183820152602001614017565b838111156114875750506000910152565b60008151808452614058816020860160208601614014565b601f01601f19169290920160200192915050565b602081526000611cbc6020830184614040565b60008060006060848603121561409457600080fd5b505081359360208301359350604090920135919050565b600080604083850312156140be57600080fd5b50508035926020909101359150565b634e487b7160e01b600052604160045260246000fd5b60405160a081016001600160401b0381118282101715614105576141056140cd565b60405290565b60405161026081016001600160401b0381118282101715614105576141056140cd565b604051601f8201601f191681016001600160401b0381118282101715614156576141566140cd565b604052919050565b60006001600160401b03821115614177576141776140cd565b50601f01601f191660200190565b60006020828403121561419757600080fd5b81356001600160401b038111156141ad57600080fd5b8201601f810184136141be57600080fd5b80356141d16141cc8261415e565b61412e565b8181528560208385010111156141e657600080fd5b81602084016020830137600091810160200191909152949350505050565b634e487b7160e01b600052602160045260246000fd5b60408152600061422d6040830185614040565b9050600f831061424d57634e487b7160e01b600052602160045260246000fd5b8260208301529392505050565b60006020828403121561426c57600080fd5b5035919050565b60008060006060848603121561428857600080fd5b833561429381613fe2565b925060208401356142a381613fe2565b915060408401356142b381613fe2565b809150509250925092565b60006142cc6141cc8461415e565b90508281528383830111156142e057600080fd5b611cbc836020830184614014565b600082601f8301126142ff57600080fd5b611cbc838351602085016142be565b60006020828403121561432057600080fd5b81516001600160401b0381111561433657600080fd5b612da9848285016142ee565b805162ffffff8116811461044d57600080fd5b805161044d81613fe2565b600060a0828403121561437257600080fd5b61437a6140e3565b905081516001600160401b038082111561439357600080fd5b61439f858386016142ee565b835260208401519150808211156143b557600080fd5b6143c1858386016142ee565b602084015260408401519150808211156143da57600080fd5b6143e6858386016142ee565b604084015260608401519150808211156143ff57600080fd5b61440b858386016142ee565b6060840152608084015191508082111561442457600080fd5b50614431848285016142ee565b60808301525092915050565b60006001600160401b03821115614456576144566140cd565b5060051b60200190565b600082601f83011261447157600080fd5b815160206144816141cc8361443d565b82815260059290921b840181019181810190868411156144a057600080fd5b8286015b848110156144df5780516001600160401b038111156144c35760008081fd5b6144d18986838b01016142ee565b8452509183019183016144a4565b509695505050505050565b600082601f8301126144fb57600080fd5b8151602061450b6141cc8361443d565b82815260059290921b8401810191818101908684111561452a57600080fd5b8286015b848110156144df57805161454181613fe2565b835291830191830161452e565b60006020828403121561456057600080fd5b81516001600160401b038082111561457757600080fd5b90830190610260828603121561458c57600080fd5b61459461410b565b61459d83614342565b81526145ab60208401614342565b6020820152604083015160408201526145c660608401614355565b60608201526080830151828111156145dd57600080fd5b6145e9878286016142ee565b60808301525060a08301518281111561460157600080fd5b61460d878286016142ee565b60a08301525061461f60c08401614355565b60c082015260e08301518281111561463657600080fd5b614642878286016142ee565b60e083015250610100808401518381111561465c57600080fd5b614668888287016142ee565b828401525050610120808401518381111561468257600080fd5b61468e888287016142ee565b82840152505061014080840151838111156146a857600080fd5b6146b488828701614360565b82840152505061016080840151838111156146ce57600080fd5b6146da88828701614460565b82840152505061018080840151838111156146f457600080fd5b61470088828701614460565b8284015250506101a0808401518381111561471a57600080fd5b614726888287016142ee565b8284015250506101c08084015181830152506101e0614746818501614355565b90820152610200838101518381111561475e57600080fd5b61476a888287016142ee565b828401525050610220808401518381111561478457600080fd5b614790888287016144ea565b91830191909152506102409283015192810192909252509392505050565b634e487b7160e01b600052603260045260246000fd5b600080604083850312156147d757600080fd5b82516001600160401b038111156147ed57600080fd5b6147f9858286016142ee565b9250506020830151600f811061480e57600080fd5b809150509250929050565b6000815161482b818560208601614014565b9290920192915050565b60008351614847818460208801614014565b83519083019061485b818360208801614014565b01949350505050565b634e487b7160e01b600052601160045260246000fd5b600060001982141561488e5761488e614864565b5060010190565b600083516148a7818460208801614014565b671e39b1b934b83a1f60c11b90830190815283516148cc816008840160208801614014565b681e17b9b1b934b83a1f60b91b60089290910191820152601101949350505050565b651e343a36b61f60d11b81527f3c686561643e3c6d65746120636861727365743d275554462d38273e00000000600682015260008651614935816022850160208b01614014565b86519083019061494c816022840160208b01614014565b8651910190614962816022840160208a01614014565b661e39ba3cb6329f60c91b60229290910191820152845161498a816029840160208901614014565b671e17b9ba3cb6329f60c11b602992909101918201526c1e17b432b0b21f1e3137b23c9f60991b603182015283516149c981603e840160208801614014565b6149fb6149e8603e83850101661e17b137b23c9f60c91b815260070190565b661e17b43a36b61f60c91b815260070190565b9998505050505050505050565b60008351614a1a818460208801614014565b696c657420736565643d2760b01b9083019081528351614a4181600a840160208801614014565b61273b60f01b600a9290910191820152600c01949350505050565b60008351614a6e818460208801614014565b6c6c657420746f6b656e49643d2760981b9083019081528351614a9881600d840160208801614014565b61273b60f01b600d9290910191820152600f01949350505050565b60008251614ac5818460208701614014565b681e17b9b1b934b83a1f60b91b920191825250600901919050565b6000816000190483118215151615614afa57614afa614864565b500290565b60008251614b11818460208701614014565b9190910192915050565b7519185d184e9d195e1d0bda1d1b5b0ed8985cd94d8d0b60521b815260008251614b4c816016850160208701614014565b9190910160160192915050565b7216101130b734b6b0ba34b7b72fbab936111d1160691b81528151600090614b88816013850160208701614014565b601160f91b6013939091019283015250601401919050565b60008351614bb2818460208801614014565b61202360f01b9083019081528351614bd1816002840160208801614014565b01600201949350505050565b600060ff821660ff84168060ff03821115614bfa57614bfa614864565b019392505050565b60008451614c14818460208901614014565b740163d913a3930b4ba2fba3cb832911d10112634b11605d1b9083019081528451614c46816015840160208901614014565b6c111610113b30b63ab2911d101160991b601592909101918201528351614c74816022840160208801614014565b61227d60f01b6022929091019182015260240195945050505050565b600060ff821660ff811415614ca757614ca7614864565b60010192915050565b7f2c2261747472696275746573223a205b7b2274726169745f74797065223a202281527f436f6c6c656374696f6e2041646472657373222c202276616c7565223a202200602082015260008651614d0e81603f850160208b01614014565b61227d60f01b603f9184019182018190527f2c7b2274726169745f74797065223a202243726561746f72222c202276616c7560418301526432911d101160d91b60618301528751614d66816066850160208c01614014565b60669201918201527f2c7b2274726169745f74797065223a202243726561746f72204164647265737360688201526c111610113b30b63ab2911d101160991b6088820152614e25614e18614e12614dc7614e0c614dd582609588018d614819565b61227d60f01b815260020190565b7f2c7b2274726169745f74797065223a20224c6963656e7365222c202276616c7581526432911d101160d91b602082015260250190565b89614819565b86614819565b605d60f81b815260010190565b98975050505050505050565b683d913730b6b2911d1160b91b81528551600090614e56816009850160208b01614014565b601160f91b60099184019182018190526f16113232b9b1b934b83a34b7b7111d1160811b600a8301528751614e9281601a850160208c01614014565b601a920191820181905269161134b6b0b3b2911d1160b11b601b8301528651614ec2816025850160208b01614014565b60259201918201528451614edd816026840160208901614014565b8451910190614ef3816026840160208801614014565b6149fb602682840101607d60f81b815260010190565b7f646174613a6170706c69636174696f6e2f6a736f6e3b6261736536342c000000815260008251614f4181601d850160208701614014565b91909101601d0192915050565b600082821015614f6057614f60614864565b500390565b60008551614f77818460208a01614014565b8083019050602f60f81b8082528651614f97816001850160208b01614014565b60019201918201528451614fb2816002840160208901614014565b653f736565643d60d01b600292909101918201528351614fd9816008840160208801614014565b016008019695505050505050565b683d913730b6b2911d1160b91b8152855160009061500c816009850160208b01614014565b711116113232b9b1b934b83a34b7b7111d101160711b600991840191820152865161503e81601b840160208b01614014565b601160f91b601b92909101918201526b16101134b6b0b3b2911d101160a11b601c8201528551615075816028840160208a01614014565b6e1331b0b83a3ab9329e9b181818181160891b6028929091019182015284516150a5816037840160208901614014565b7016101130ba3a3934b13aba32b9911d101160791b60379290910191820152614e256150ee6150d76048840187614819565b6a1331b0b83a3ab9329e981160a91b8152600b0190565b607d60f81b815260010190565b60006020828403121561510d57600080fd5b5051919050565b60006020828403121561512657600080fd5b8151611cbc81613fe2565b656266733a2f2f60d01b815260008551615152816006850160208a01614014565b8083019050602f60f81b8060068301528651615175816007850160208b01614014565b600792019182018190528551615192816008850160208a01614014565b600892019182015283516151ad816009840160208801614014565b016009019695505050505050565b634e487b7160e01b600052601260045260246000fd5b6000826151e0576151e06151bb565b500690565b6000826151f4576151f46151bb565b500490565b6000821982111561520c5761520c614864565b500190565b6001600160a01b0383168152604060208201819052600090612da990830184614040565b6001600160a01b038416815260606020820181905260009061525990830185614040565b9050826040830152949350505050565b6000806040838503121561527c57600080fd5b82516001600160401b0381111561529257600080fd5b8301601f810185136152a357600080fd5b6152b2858251602084016142be565b925050602083015190509250929050565b6020808252602b908201527f496e697469616c697a61626c653a20636f6e7472616374206973206e6f74206960408201526a6e697469616c697a696e6760a81b606082015260800190565b60008161531d5761531d614864565b50600019019056fe3c73637269707420747970653d22746578742f6a617661736372697074222069643d22736e69707065742d636f6e74726163742d636f6465223e3c7363726970742069643d22736e69707065742d72616e646f6d2d636f6465223e6966286e756c6c3d3d73656564297b6c657420243d22303132333435363738396162636465666768696a6b6c6d6e6f707172737475767773797a223b736565643d6e65772055524c536561726368506172616d732877696e646f772e6c6f636174696f6e2e736561726368292e67657428227365656422297c7c4172726179283634292e66696c6c2830292e6d617028653d3e245b4d6174682e72616e646f6d28292a242e6c656e6774687c305d292e6a6f696e282222292b226930227d656c73657b6c657420653d22736565643d223b666f72286c6574206c3d303b6c3c736565642e6c656e6774682d652e6c656e6774683b2b2b6c29696628736565642e737562737472696e67286c2c6c2b652e6c656e677468293d3d65297b736565643d736565642e737562737472696e67286c2b652e6c656e677468293b627265616b7d7d66756e6374696f6e20637972623132382824297b6c657420653d313737393033333730332c6c3d333134343133343237372c743d313031333930343234322c6e3d323737333438303736323b666f72286c6574205f3d302c693b5f3c242e6c656e6774683b5f2b2b29653d6c5e4d6174682e696d756c28655e28693d242e63686172436f64654174285f29292c353937333939303637292c6c3d745e4d6174682e696d756c286c5e692c32383639383630323333292c743d6e5e4d6174682e696d756c28745e692c393531323734323133292c6e3d655e4d6174682e696d756c286e5e692c32373136303434313739293b72657475726e20653d4d6174682e696d756c28745e653e3e3e31382c353937333939303637292c6c3d4d6174682e696d756c286e5e6c3e3e3e32322c32383639383630323333292c743d4d6174682e696d756c28655e743e3e3e31372c393531323734323133292c6e3d4d6174682e696d756c286c5e6e3e3e3e31392c32373136303434313739292c5b28655e6c5e745e6e293e3e3e302c286c5e65293e3e3e302c28745e65293e3e3e302c286e5e65293e3e3e305d7d66756e6374696f6e20736663333228242c652c6c2c74297b72657475726e2066756e6374696f6e28297b6c3e3e3e3d302c743e3e3e3d303b766172206e3d28243e3e3e3d30292b28653e3e3e3d30297c303b72657475726e20243d655e653e3e3e392c653d6c2b286c3c3c33297c302c6c3d286c3d6c3c3c32317c6c3e3e3e3131292b286e3d6e2b28743d742b317c30297c30297c302c286e3e3e3e30292f343239343936373239367d7d6c6574206d61746852616e643d7366633332282e2e2e63797262313238287365656429293b3c2f7363726970743e4142434445464748494a4b4c4d4e4f505152535455565758595a6162636465666768696a6b6c6d6e6f707172737475767778797a303132333435363738392b2f3c7363726970742073616e64626f783d27616c6c6f772d736372697074732720747970653d27746578742f6a617661736372697074273e000000000000000000000000000000000000000000000000000000000000000000000000000000000000003e0000003f3435363738393a3b3c3d00000000000000000102030405060708090a0b0c0d0e0f101112131415161718190000000000001a1b1c1d1e1f202122232425262728292a2b2c2d2e2f303132330000000000a264697066735822122078360331dee9921f2a92e39c419760806731bf44c085f369812771423937012c64736f6c634300080c0033",
  "linkReferences": {},
  "deployedLinkReferences": {}
}