{
  "_format": "hh-sol-artifact-1",
  "contractName": "GenerativeProjectData",
  "sourceName": "contracts/data/GenerativeProjectData.sol",
  "abi": [
    {
      "anonymous": false,
      "inputs": [
        {
          "indexed": false,
          "internalType": "uint8",
          "name": "version",
          "type": "uint8"
        }
      ],
      "name": "Initialized",
      "type": "event"
    },
    {
      "anonymous": false,
      "inputs": [
        {
          "indexed": true,
          "internalType": "address",
          "name": "previousOwner",
          "type": "address"
        },
        {
          "indexed": true,
          "internalType": "address",
          "name": "newOwner",
          "type": "address"
        }
      ],
      "name": "OwnershipTransferred",
      "type": "event"
    },
    {
      "inputs": [],
      "name": "_admin",
      "outputs": [
        {
          "internalType": "address",
          "name": "",
          "type": "address"
        }
      ],
      "stateMutability": "view",
      "type": "function"
    },
    {
      "inputs": [],
      "name": "_generativeProjectAddr",
      "outputs": [
        {
          "internalType": "address",
          "name": "",
          "type": "address"
        }
      ],
      "stateMutability": "view",
      "type": "function"
    },
    {
      "inputs": [],
      "name": "_paramAddr",
      "outputs": [
        {
          "internalType": "address",
          "name": "",
          "type": "address"
        }
      ],
      "stateMutability": "view",
      "type": "function"
    },
    {
      "inputs": [
        {
          "internalType": "address",
          "name": "newAdm",
          "type": "address"
        }
      ],
      "name": "changeAdmin",
      "outputs": [],
      "stateMutability": "nonpayable",
      "type": "function"
    },
    {
      "inputs": [
        {
          "internalType": "address",
          "name": "newAddr",
          "type": "address"
        }
      ],
      "name": "changeParamAddress",
      "outputs": [],
      "stateMutability": "nonpayable",
      "type": "function"
    },
    {
      "inputs": [
        {
          "internalType": "address",
          "name": "newAddr",
          "type": "address"
        }
      ],
      "name": "changeProjectAddress",
      "outputs": [],
      "stateMutability": "nonpayable",
      "type": "function"
    },
    {
      "inputs": [
        {
          "internalType": "string",
          "name": "script",
          "type": "string"
        }
      ],
      "name": "inflateScript",
      "outputs": [
        {
          "internalType": "string",
          "name": "result",
          "type": "string"
        },
        {
          "internalType": "enum Inflate.ErrorCode",
          "name": "err",
          "type": "uint8"
        }
      ],
      "stateMutability": "view",
      "type": "function"
    },
    {
      "inputs": [
        {
          "internalType": "address",
          "name": "admin",
          "type": "address"
        },
        {
          "internalType": "address",
          "name": "paramAddr",
          "type": "address"
        },
        {
          "internalType": "address",
          "name": "generativeProjectAddr",
          "type": "address"
        }
      ],
      "name": "initialize",
      "outputs": [],
      "stateMutability": "nonpayable",
      "type": "function"
    },
    {
      "inputs": [],
      "name": "owner",
      "outputs": [
        {
          "internalType": "address",
          "name": "",
          "type": "address"
        }
      ],
      "stateMutability": "view",
      "type": "function"
    },
    {
      "inputs": [
        {
          "internalType": "uint256",
          "name": "projectId",
          "type": "uint256"
        }
      ],
      "name": "projectURI",
      "outputs": [
        {
          "internalType": "string",
          "name": "result",
          "type": "string"
        }
      ],
      "stateMutability": "view",
      "type": "function"
    },
    {
      "inputs": [],
      "name": "renounceOwnership",
      "outputs": [],
      "stateMutability": "nonpayable",
      "type": "function"
    },
    {
      "inputs": [
        {
          "internalType": "uint256",
          "name": "projectId",
          "type": "uint256"
        },
        {
          "internalType": "uint256",
          "name": "tokenId",
          "type": "uint256"
        },
        {
          "internalType": "bytes32",
          "name": "seed",
          "type": "bytes32"
        }
      ],
      "name": "tokenBaseURI",
      "outputs": [
        {
          "internalType": "string",
          "name": "result",
          "type": "string"
        }
      ],
      "stateMutability": "view",
      "type": "function"
    },
    {
      "inputs": [
        {
          "internalType": "uint256",
          "name": "projectId",
          "type": "uint256"
        },
        {
          "internalType": "uint256",
          "name": "tokenId",
          "type": "uint256"
        },
        {
          "internalType": "bytes32",
          "name": "seed",
          "type": "bytes32"
        }
      ],
      "name": "tokenHTML",
      "outputs": [
        {
          "internalType": "string",
          "name": "result",
          "type": "string"
        }
      ],
      "stateMutability": "view",
      "type": "function"
    },
    {
      "inputs": [
        {
          "internalType": "uint256",
          "name": "projectId",
          "type": "uint256"
        },
        {
          "internalType": "uint256",
          "name": "tokenId",
          "type": "uint256"
        },
        {
          "internalType": "bytes32",
          "name": "seed",
          "type": "bytes32"
        }
      ],
      "name": "tokenURI",
      "outputs": [
        {
          "internalType": "string",
          "name": "result",
          "type": "string"
        }
      ],
      "stateMutability": "view",
      "type": "function"
    },
    {
      "inputs": [
        {
          "internalType": "address",
          "name": "newOwner",
          "type": "address"
        }
      ],
      "name": "transferOwnership",
      "outputs": [],
      "stateMutability": "nonpayable",
      "type": "function"
    }
  ],
  "bytecode": "0x608060405234801561001057600080fd5b50614c79806100206000396000f3fe608060405234801561001057600080fd5b50600436106100f55760003560e01c80637af34af211610097578063c0c53b8b11610066578063c0c53b8b146101f8578063e80828581461020b578063f2fde38b1461021e578063f4a290f71461023157600080fd5b80637af34af2146101a05780638da5cb5b146101c15780638f283970146101d257806394139301146101e557600080fd5b806346eaa748116100d357806346eaa7481461015f578063567fdcf314610172578063715018a61461018557806379ebc6f01461018d57600080fd5b806301bc45c9146100fa57806316a5041f1461012a57806331c7280c1461013f575b600080fd5b60655461010d906001600160a01b031681565b6040516001600160a01b0390911681526020015b60405180910390f35b61013d6101383660046137c8565b610244565b005b61015261014d3660046137e5565b6102de565b6040516101219190613869565b61015261016d3660046137e5565b6105de565b60675461010d906001600160a01b031681565b61013d610747565b61015261019b36600461387c565b61075b565b6101b36101ae36600461394d565b610ae8565b6040516101219291906139e2565b6033546001600160a01b031661010d565b61013d6101e03660046137c8565b610c4b565b6101526101f33660046137e5565b610cdd565b61013d610206366004613a22565b610f63565b61013d6102193660046137c8565b6110b4565b61013d61022c3660046137c8565b611146565b60665461010d906001600160a01b031681565b6065546001600160a01b03163314801561026657506001600160a01b03811615155b6040518060400160405280600381526020016231303160e81b815250906102a95760405162461bcd60e51b81526004016102a09190613869565b60405180910390fd5b506066546001600160a01b038281169116146102db57606580546001600160a01b0319166001600160a01b0383161790555b50565b6067546040516346ec8d2b60e11b8152600481018590526060916001600160a01b0316906000908290638dd91a5690602401600060405180830381865afa15801561032d573d6000803e3d6000fd5b505050506040513d6000823e601f3d908101601f191682016040526103559190810190613c50565b60408051602081019091526000808252919250905b826101800151518110156103cd5781836101800151828151811061039057610390613e7d565b60200260200101516040516020016103a9929190613eaf565b604051602081830303815290604052915080806103c590613ef4565b91505061036a565b50600060405180602001604052806000815250905060006040518061040001604052806103dd81526020016148676103dd91396066549091506001600160a01b031615610592576066546001600160a01b031660005b856101600151518110156104f65783826001600160a01b031663693ec85e886101600151848151811061045857610458613e7d565b60200260200101516040518263ffffffff1660e01b815260040161047c9190613869565b600060405180830381865afa158015610499573d6000803e3d6000fd5b505050506040513d6000823e601f3d908101601f191682016040526104c19190810190613f0f565b6040516020016104d2929190613eaf565b604051602081830303815290604052935080806104ee90613ef4565b915050610423565b5060408051808201825260128152711490539113d357d1955390d7d4d0d492541560721b6020820152905163349f642f60e11b81526001600160a01b0383169163693ec85e916105499190600401613869565b600060405180830381865afa158015610566573d6000803e3d6000fd5b505050506040513d6000823e601f3d908101601f1916820160405261058e9190810190613f0f565b9150505b8161059c896111bc565b6105a589611258565b6101a08701516040516105c19493929186918990602001613f43565b604051602081830303815290604052955050505050509392505050565b6066546040805180820182526008815267424153455f55524960c01b6020820152905163349f642f60e11b81526060926001600160a01b031691600091839163693ec85e916106309190600401613869565b600060405180830381865afa15801561064d573d6000803e3d6000fd5b505050506040513d6000823e601f3d908101601f191682016040526106759190810190613f0f565b6067546040516346ec8d2b60e11b8152600481018990529192506001600160a01b0316906000908290638dd91a5690602401600060405180830381865afa1580156106c4573d6000803e3d6000fd5b505050506040513d6000823e601f3d908101601f191682016040526106ec9190810190613c50565b6067549091508390610706906001600160a01b03166112a4565b61070f896111bc565b61071889611258565b60405160200161072b94939291906140f6565b6040516020818303038152906040529450505050509392505050565b61074f6112c0565b610759600061131a565b565b60606107b76040518061010001604052806060815260200160006001600160a01b031681526020016060815260200160608152602001606081526020016060815260200160006001600160a01b03168152602001606081525090565b6067546040516346ec8d2b60e11b8152600481018590526001600160a01b03909116906000908290638dd91a5690602401600060405180830381865afa158015610805573d6000803e3d6000fd5b505050506040513d6000823e601f3d908101601f1916820160405261082d9190810190613c50565b9050600061083e620f424087614178565b90506000610917306001600160a01b03166331c7280c89858660405160200161086991815260200190565b604051602081830303815290604052805190602001206040518463ffffffff1660e01b81526004016108ae939291909283526020830191909152604082015260600190565b600060405180830381865afa1580156108cb573d6000803e3d6000fd5b505050506040513d6000823e601f3d908101601f191682016040526108f39190810190613f0f565b6040516020016109039190614197565b60405160208183030381529060405261136c565b60405160200161092791906141b3565b60405160208183030381529060405290508260800151610946886111bc565b604051602001610957929190614215565b60408051601f19818403018152918152868101919091526101008401516080870152610120840151606087015260a08087018390526101e08501516001600160a01b0390811660c0808a019190915286015116602088810191909152908501518752815190810190915260008082525b846101600151518160ff161015610a4757816109ef6109e7836001614252565b60ff166111bc565b8661016001518360ff1681518110610a0957610a09613e7d565b6020026020010151604051602001610a2393929190614277565b60405160208183030381529060405291508080610a3f90614305565b9150506109c7565b50610a558660c001516112a4565b86516020880151610a65906112a4565b8660e0015184604051602001610a7f959493929190614325565b60408051601f1981840301815291815260e0880182905287810151608089015160608a015160a08b01519351610abc95610903959160200161449a565b604051602001610acc919061457f565b6040516020818303038152906040529650505050505050919050565b6060600080610af6846114d1565b90506060610b118283516005610b0c9190614178565b611681565b9093509050600083600e811115610b2a57610b2a6139cc565b1415610c315760005b818181518110610b4557610b45613e7d565b01602001516001600160f81b031916610b5d57610b7d565b80610b6781613ef4565b9150508151811415610b7857610b7d565b610b33565b6000816001600160401b03811115610b9757610b97613895565b6040519080825280601f01601f191660200182016040528015610bc1576020820181803683370190505b50905060005b82811015610c2757838181518110610be157610be1613e7d565b602001015160f81c60f81b828281518110610bfe57610bfe613e7d565b60200101906001600160f81b031916908160001a90535080610c1f81613ef4565b915050610bc7565b509450610c449050565b6040518060200160405280600081525093505b5050915091565b6065546001600160a01b031633148015610c6d57506001600160a01b03811615155b6040518060400160405280600381526020016231303160e81b81525090610ca75760405162461bcd60e51b81526004016102a09190613869565b506065546001600160a01b038281169116146102db57606580546001600160a01b0383166001600160a01b031990911617905550565b6060610d116040518060a0016040528060608152602001606081526020016060815260200160608152602001606081525090565b606654604080518082018252600e81526d109054d157d5549257d51490525560921b6020820152905163349f642f60e11b81526001600160a01b0390921691829163693ec85e91610d659190600401613869565b600060405180830381865afa158015610d82573d6000803e3d6000fd5b505050506040513d6000823e601f3d908101601f19168201604052610daa9190810190613f0f565b60408381019190915260675490516346ec8d2b60e11b8152600481018890526001600160a01b03909116906000908290638dd91a5690602401600060405180830381865afa158015610e00573d6000803e3d6000fd5b505050506040513d6000823e601f3d908101601f19168201604052610e289190810190613c50565b604051630c71ca0360e21b8152600481018a90526024810189905260448101889052909150610e619030906331c7280c906064016108ae565b604051602001610e7191906141b3565b60408051601f1981840301815291905260608501526080810151610e94886111bc565b604051602001610ea5929190614215565b60408051601f19818403018152919052845261010081015160208501526102008101515115610eda5761020081015160208501525b6040840151606754610ef4906001600160a01b03166112a4565b610efd896111bc565b610f0689611258565b604051602001610f1994939291906140f6565b60408051601f19818403018152918152858101829052855160208781015160608901519351610f53956109039592939092918391016145c4565b60405160200161072b919061457f565b600054610100900460ff1615808015610f835750600054600160ff909116105b80610f9d5750303b158015610f9d575060005460ff166001145b6110005760405162461bcd60e51b815260206004820152602e60248201527f496e697469616c697a61626c653a20636f6e747261637420697320616c72656160448201526d191e481a5b9a5d1a585b1a5e995960921b60648201526084016102a0565b6000805460ff191660011790558015611023576000805461ff0019166101001790555b606580546001600160a01b038087166001600160a01b031992831617909255606680548684169083161790556067805492851692909116919091179055611068611932565b80156110ae576000805461ff0019169055604051600181527f7f26b83ff96e1f2b6a682f133852f6798a09c465da95921460cefb38474024989060200160405180910390a15b50505050565b6065546001600160a01b0316331480156110d657506001600160a01b03811615155b6040518060400160405280600381526020016231303160e81b815250906111105760405162461bcd60e51b81526004016102a09190613869565b506067546001600160a01b038281169116146102db57606780546001600160a01b0383166001600160a01b031990911617905550565b61114e6112c0565b6001600160a01b0381166111b35760405162461bcd60e51b815260206004820152602660248201527f4f776e61626c653a206e6577206f776e657220697320746865207a65726f206160448201526564647265737360d01b60648201526084016102a0565b6102db8161131a565b606060006111c983611961565b60010190506000816001600160401b038111156111e8576111e8613895565b6040519080825280601f01601f191660200182016040528015611212576020820181803683370190505b5090508181016020015b600019016f181899199a1a9b1b9c1cb0b131b232b360811b600a86061a8153600a850494508461124b57611250565b61121c565b509392505050565b606061126382611a39565b611270608084901b611a39565b60405161060f60f31b6020820152602281019290925260428201526062016040516020818303038152906040529050919050565b60606112ba6001600160a01b0383166014611beb565b92915050565b6033546001600160a01b031633146107595760405162461bcd60e51b815260206004820181905260248201527f4f776e61626c653a2063616c6c6572206973206e6f7420746865206f776e657260448201526064016102a0565b603380546001600160a01b038381166001600160a01b0319831681179093556040519116919082907f8be0079c531659141344cd1fd0a4f28419497f9722a3daafe3b4186f6b6457e090600090a35050565b606081516000141561138c57505060408051602081019091526000815290565b60006040518060600160405280604081526020016147a760409139905060006003845160026113bb91906146ed565b6113c59190614705565b6113d0906004614178565b905060006113df8260206146ed565b6001600160401b038111156113f6576113f6613895565b6040519080825280601f01601f191660200182016040528015611420576020820181803683370190505b509050818152600183018586518101602084015b8183101561148c576003830192508251603f8160121c168501518253600182019150603f81600c1c168501518253600182019150603f8160061c168501518253600182019150603f8116850151825350600101611434565b6003895106600181146114a657600281146114b7576114c3565b613d3d60f01b6001198301526114c3565b603d60f81b6000198301525b509398975050505050505050565b805160609082906114f2576040805160008082526020820190925290611250565b600481516115009190614719565b1561154d5760405162461bcd60e51b815260206004820152601c60248201527f696e76616c696420626173653634206465636f64657220696e7075740000000060448201526064016102a0565b60006040518060a00160405280608081526020016147e760809139905060006004835161157a9190614705565b611585906003614178565b905060006115948260206146ed565b6001600160401b038111156115ab576115ab613895565b6040519080825280601f01601f1916602001820160405280156115d5576020820181803683370190505b5090508351840151603d60ff8216141561160457600183039250613d3d61ffff82161415611604576001830392505b50818152600183018485518101602084015b8183101561167357600483019250825160ff8082168601511660ff808360081c168701511660061b0160ff808360101c1687015116600c1b60ff808460181c168801511660121b010190508060e81b825250600381019050611616565b509298975050505050505050565b600060606000604051806101000160405280856001600160401b038111156116ab576116ab613895565b6040519080825280601f01601f1916602001820160405280156116d5576020820181803683370190505b508152602001600081526020018681526020016000815260200160008152602001600081526020016040518060400160405280600f600161171691906146ed565b6001600160401b0381111561172d5761172d613895565b604051908082528060200260200182016040528015611756578160200160208202803683370190505b5081526040805161012080825261242082019092526020928301929091908201612400803683370190505081525081526020016040518060400160405280600f60016117a291906146ed565b6001600160401b038111156117b9576117b9613895565b6040519080825280602002602001820160405280156117e2578160200160208202803683370190505b50815260408051601e8082526103e0820190925260209283019290919082016103c0803683375050509052905290506000808061181e84611d8d565b9050600081600e811115611834576118346139cc565b1461184957925192945091925061192b915050565b8261192057611859846001611f17565b93509050600081600e811115611871576118716139cc565b1461188657925192945091925061192b915050565b611891846002611f17565b92509050600081600e8111156118a9576118a96139cc565b146118be57925192945091925061192b915050565b81156118f257816001146118e957816002146118db5760036118fb565b6118e484611fe8565b6118fb565b6118e484612062565b6118fb84612077565b9050600081600e811115611911576119116139cc565b1461191b57611920565b611849565b925192945091925050505b9250929050565b600054610100900460ff166119595760405162461bcd60e51b81526004016102a09061472d565b610759612287565b60008072184f03e93ff9f4daa797ed6e38ed64bf6a1f0160401b83106119a05772184f03e93ff9f4daa797ed6e38ed64bf6a1f0160401b830492506040015b6d04ee2d6d415b85acef810000000083106119cc576d04ee2d6d415b85acef8100000000830492506020015b662386f26fc1000083106119ea57662386f26fc10000830492506010015b6305f5e1008310611a02576305f5e100830492506008015b6127108310611a1657612710830492506004015b60648310611a28576064830492506002015b600a83106112ba5760010192915050565b7aff00000000000000ff00000000000000ff00000000000000ff00006bffffffff0000000000000000604083901c90811663ffffffff60c01b84161760201c63ffffffff60601b919091166001600160e01b031984161717601081901c9182167eff00000000000000ff00000000000000ff00000000000000ff000000000000821617600890811c7bff00000000000000ff00000000000000ff00000000000000ff000000939093167fff00000000000000ff00000000000000ff00000000000000ff000000000000009290921691909117919091179081901c7e0f000f000f000f000f000f000f000f000f000f000f000f000f000f000f000f167f0f000f000f000f000f000f000f000f000f000f000f000f000f000f000f000f00600492831c161790611b87827f06060606060606060606060606060606060606060606060606060606060606066146ed565b901c7f0f0f0f0f0f0f0f0f0f0f0f0f0f0f0f0f0f0f0f0f0f0f0f0f0f0f0f0f0f0f0f0f166007611bb79190614178565b611be1827f30303030303030303030303030303030303030303030303030303030303030306146ed565b6112ba91906146ed565b60606000611bfa836002614178565b611c059060026146ed565b6001600160401b03811115611c1c57611c1c613895565b6040519080825280601f01601f191660200182016040528015611c46576020820181803683370190505b509050600360fc1b81600081518110611c6157611c61613e7d565b60200101906001600160f81b031916908160001a905350600f60fb1b81600181518110611c9057611c90613e7d565b60200101906001600160f81b031916908160001a9053506000611cb4846002614178565b611cbf9060016146ed565b90505b6001811115611d37576f181899199a1a9b1b9c1cb0b131b232b360811b85600f1660108110611cf357611cf3613e7d565b1a60f81b828281518110611d0957611d09613e7d565b60200101906001600160f81b031916908160001a90535060049490941c93611d3081614778565b9050611cc2565b508315611d865760405162461bcd60e51b815260206004820181905260248201527f537472696e67733a20686578206c656e67746820696e73756666696369656e7460448201526064016102a0565b9392505050565b604080516101208082526124208201909252600091829182916020820161240080368337019050509050600091505b6090821015611df6576008818381518110611dd957611dd9613e7d565b602090810291909101015281611dee81613ef4565b925050611dbc565b610100821015611e31576009818381518110611e1457611e14613e7d565b602090810291909101015281611e2981613ef4565b925050611df6565b610118821015611e6c576007818381518110611e4f57611e4f613e7d565b602090810291909101015281611e6481613ef4565b925050611e31565b610120821015611ea7576008818381518110611e8a57611e8a613e7d565b602090810291909101015281611e9f81613ef4565b925050611e6c565b611eba8460c001518261012060006122b7565b50600091505b601e821015611efa576005818381518110611edd57611edd613e7d565b602090810291909101015281611ef281613ef4565b925050611ec0565b611f0c8460e0015182601e60006122b7565b506000949350505050565b608082015160009081905b838560a001511015611fab5784604001515185606001511415611f4d5760016000925092505061192b565b60a0850151604086015160608701805190611f6782613ef4565b905281518110611f7957611f79613e7d565b602001015160f81c60f81b60f81c60ff16901b8117905060088560a001818151611fa391906146ed565b905250611f22565b80841c608086015260a085018051859190611fc790839061478f565b9052506000611fd9600180871b61478f565b60009792169550909350505050565b6000612007604051806040016040528060608152602001606081525090565b6040805180820190915260608082526020820152600061202685612582565b90945092509050600081600e811115612041576120416139cc565b1461204e57949350505050565b612059858484612c38565b95945050505050565b60006112ba828360c001518460e00151612c38565b60006080820181905260a0820181905260408201515160608301518291906120a09060046146ed565b11156120af5750600192915050565b6040830151606084018051906120c482613ef4565b9052815181106120d6576120d6613e7d565b0160200151604084015160608501805160f89390931c9350600892906120fb82613ef4565b90528151811061210d5761210d613e7d565b602001015160f81c60f81b60f81c60ff16901b81179050801960ff16836040015184606001805180919061214090613ef4565b90528151811061215257612152613e7d565b016020015160f81c14158061219d5750604083015160608401805160ff841960081c16929161218082613ef4565b90528151811061219257612192613e7d565b016020015160f81c14155b156121ab5750600492915050565b8260400151518184606001516121c191906146ed565b11156121d05750600192915050565b82515160208401516121e39083906146ed565b11156121f25750600292915050565b801561227e5761220360018261478f565b9050826040015183606001805180919061221c90613ef4565b90528151811061222e5761222e613e7d565b602001015160f81c60f81b836000015184602001805180919061225090613ef4565b90528151811061226257612262613e7d565b60200101906001600160f81b031916908160001a9053506121f2565b50600092915050565b600054610100900460ff166122ae5760405162461bcd60e51b81526004016102a09061472d565b6107593361131a565b6000806000806122c5613794565b600092505b600f8311612307576000896000015184815181106122ea576122ea613e7d565b6020908102919091010152826122ff81613ef4565b9350506122ca565b600093505b868410156123735788518861232186896146ed565b8151811061233157612331613e7d565b60200260200101518151811061234957612349613e7d565b60200260200101805180919061235e90613ef4565b9052508361236b81613ef4565b94505061230c565b86896000015160008151811061238b5761238b613e7d565b602002602001015114156123a657600094505050505061257a565b60019150600192505b600f8311612429578851805160019390931b92849081106123d2576123d2613e7d565b60200260200101518210156123ee57600e94505050505061257a565b885180518490811061240257612402613e7d565b602002602001015182612415919061478f565b91508261242181613ef4565b9350506123af565b60006020820152600192505b600f8310156124ae57885180518490811061245257612452613e7d565b602002602001015181846010811061246c5761246c613e7d565b602002015161247b91906146ed565b816124878560016146ed565b6010811061249757612497613e7d565b6020020152826124a681613ef4565b935050612435565b600093505b8684101561256157876124c685886146ed565b815181106124d6576124d6613e7d565b602002602001015160001461254f5760208901518490828a6124f8848b6146ed565b8151811061250857612508613e7d565b60200260200101516010811061252057612520613e7d565b6020020180519061253082613ef4565b90528151811061254257612542613e7d565b6020026020010181815250505b8361255981613ef4565b9450506124b3565b60008211612570576000612573565b600e5b9450505050505b949350505050565b60006125a1604051806040016040528060608152602001606081525090565b60408051808201909152606080825260208201526000808080806125c8601e61011e6146ed565b6001600160401b038111156125df576125df613895565b604051908082528060200260200182016040528015612608578160200160208202803683370190505b50905060006040518060400160405280600f600161262691906146ed565b6001600160401b0381111561263d5761263d613895565b604051908082528060200260200182016040528015612666578160200160208202803683370190505b5081526040805161011e8082526123e0820190925260209283019290919082016123c08036833701905050815250905060006040518060400160405280600f60016126b191906146ed565b6001600160401b038111156126c8576126c8613895565b6040519080825280602002602001820160405280156126f1578160200160208202803683370190505b50815260408051601e8082526103e0820190925260209283019290919082016103c08036833750505090529050600061272b8c6005611f17565b98509450600085600e811115612743576127436139cc565b1461275b57509298509650909450612c319350505050565b612767610101896146ed565b97506127748c6005611f17565b97509450600085600e81111561278c5761278c6139cc565b146127a457509298509650909450612c319350505050565b6127af6001886146ed565b965061011e8811806127c15750601e87115b156127db5750600599509097509550612c31945050505050565b6127e48c613463565b9095509350600085600e8111156127fd576127fd6139cc565b1461281557509298509650909450612c319350505050565b6128238385601360006122b7565b9450600085600e811115612839576128396139cc565b146128535750600699509097509550612c31945050505050565b600095505b61286287896146ed565b861015612a5b576000806128768e86613685565b9097509150600087600e81111561288f5761288f6139cc565b146128a95750949a509198509650612c3195505050505050565b60108210156128e1578186896128be81613ef4565b9a50815181106128d0576128d0613e7d565b602002602001018181525050612a54565b5060006010821415612980578761290a575060079b50929950909750612c319650505050505050565b8561291660018a61478f565b8151811061292657612926613e7d565b6020026020010151905061293b8e6002611f17565b9097509250600087600e811115612954576129546139cc565b1461296e5750949a509198509650612c3195505050505050565b6129798360036146ed565b91506129e0565b81601114156129945761293b8e6003611f17565b61299f8e6007611f17565b9097509250600087600e8111156129b8576129b86139cc565b146129d25750949a509198509650612c3195505050505050565b6129dd83600b6146ed565b91505b6129ea898b6146ed565b6129f4838a6146ed565b1115612a12575060089b50929950909750612c319650505050505050565b8115612a5457612a2360018361478f565b9150808689612a3181613ef4565b9a5081518110612a4357612a43613e7d565b602002602001018181525050612a12565b5050612858565b8361010081518110612a6f57612a6f613e7d565b602002602001015160001415612a945750600b99509097509550612c31945050505050565b612aa183858a60006122b7565b9450600085600e811115612ab757612ab76139cc565b14158015612b415750600185600e811115612ad457612ad46139cc565b1480612af15750600285600e811115612aef57612aef6139cc565b145b80612b415750825180516001908110612b0c57612b0c613e7d565b60200260200101518360000151600081518110612b2b57612b2b613e7d565b6020026020010151612b3d91906146ed565b8814155b15612b5b5750600999509097509550612c31945050505050565b612b678285898b6122b7565b9450600085600e811115612b7d57612b7d6139cc565b14158015612c075750600185600e811115612b9a57612b9a6139cc565b1480612bb75750600285600e811115612bb557612bb56139cc565b145b80612c075750815180516001908110612bd257612bd2613e7d565b60200260200101518260000151600081518110612bf157612bf1613e7d565b6020026020010151612c0391906146ed565b8714155b15612c215750600a99509097509550612c31945050505050565b5060009950909750955050505050505b9193909250565b6000806000806000604051806103a00160405280600361ffff168152602001600461ffff168152602001600561ffff168152602001600661ffff168152602001600761ffff168152602001600861ffff168152602001600961ffff168152602001600a61ffff168152602001600b61ffff168152602001600d61ffff168152602001600f61ffff168152602001601161ffff168152602001601361ffff168152602001601761ffff168152602001601b61ffff168152602001601f61ffff168152602001602361ffff168152602001602b61ffff168152602001603361ffff168152602001603b61ffff168152602001604361ffff168152602001605361ffff168152602001606361ffff168152602001607361ffff168152602001608361ffff16815260200160a361ffff16815260200160c361ffff16815260200160e361ffff16815260200161010261ffff1681525090506000604051806103a00160405280600060ff168152602001600060ff168152602001600060ff168152602001600060ff168152602001600060ff168152602001600060ff168152602001600060ff168152602001600060ff168152602001600160ff168152602001600160ff168152602001600160ff168152602001600160ff168152602001600260ff168152602001600260ff168152602001600260ff168152602001600260ff168152602001600360ff168152602001600360ff168152602001600360ff168152602001600360ff168152602001600460ff168152602001600460ff168152602001600460ff168152602001600460ff168152602001600560ff168152602001600560ff168152602001600560ff168152602001600560ff168152602001600060ff1681525090506000604051806103c00160405280600161ffff168152602001600261ffff168152602001600361ffff168152602001600461ffff168152602001600561ffff168152602001600761ffff168152602001600961ffff168152602001600d61ffff168152602001601161ffff168152602001601961ffff168152602001602161ffff168152602001603161ffff168152602001604161ffff168152602001606161ffff168152602001608161ffff16815260200160c161ffff16815260200161010161ffff16815260200161018161ffff16815260200161020161ffff16815260200161030161ffff16815260200161040161ffff16815260200161060161ffff16815260200161080161ffff168152602001610c0161ffff16815260200161100161ffff16815260200161180161ffff16815260200161200161ffff16815260200161300161ffff16815260200161400161ffff16815260200161600161ffff1681525090506000604051806103c00160405280600060ff168152602001600060ff168152602001600060ff168152602001600060ff168152602001600160ff168152602001600160ff168152602001600260ff168152602001600260ff168152602001600360ff168152602001600360ff168152602001600460ff168152602001600460ff168152602001600560ff168152602001600560ff168152602001600660ff168152602001600660ff168152602001600760ff168152602001600760ff168152602001600860ff168152602001600860ff168152602001600960ff168152602001600960ff168152602001600a60ff168152602001600a60ff168152602001600b60ff168152602001600b60ff168152602001600c60ff168152602001600c60ff168152602001600d60ff168152602001600d60ff16815250905060005b8761010014613451576131728c8c613685565b98509050600081600e81111561318a5761318a6139cc565b1461319e579750611d869650505050505050565b610100881015613214578b515160208d015114156131c757600298505050505050505050611d86565b8760f81b8c600001518d60200151815181106131e5576131e5613e7d565b60200101906001600160f81b031916908160001a90535060208c0180519061320c82613ef4565b90525061315f565b61010088111561343f57600061322c6101018a61478f565b9850601d891061324857600c9950505050505050505050611d86565b61326b8d868b601d811061325e5761325e613e7d565b602002015160ff16611f17565b9092509050600082600e811115613284576132846139cc565b1461329957509750611d869650505050505050565b80868a601d81106132ac576132ac613e7d565b602002015161ffff166132bf91906146ed565b97506132cb8d8c613685565b99509150600082600e8111156132e3576132e36139cc565b146132f857509750611d869650505050505050565b61330e8d848b601e811061325e5761325e613e7d565b9092509050600082600e811115613327576133276139cc565b1461333c57509750611d869650505050505050565b80848a601e811061334f5761334f613e7d565b602002015161ffff1661336291906146ed565b96508c6020015187111561338257600d9950505050505050505050611d86565b8c515160208e0151613395908a906146ed565b11156133ad5760029950505050505050505050611d86565b8715613439576133be60018961478f565b97508c60000151878e602001516133d5919061478f565b815181106133e5576133e5613e7d565b602001015160f81c60f81b8d600001518e602001518151811061340a5761340a613e7d565b60200101906001600160f81b031916908160001a90535060208d0180519061343182613ef4565b9052506133ad565b5061315f565b868c60200181815161320c91906146ed565b5060009b9a5050505050505050505050565b60006060818080613477601e61011e6146ed565b6001600160401b0381111561348e5761348e613895565b6040519080825280602002602001820160405280156134b7578160200160208202803683370190505b506040805161026081018252601081526011602082015260129181019190915260006060820181905260086080830152600760a0830152600960c0830152600660e0830152600a6101008301526005610120830152600b61014083015260046101608301819052600c61018084015260036101a0840152600d6101c084015260026101e0840152600e6102008401526001610220840152600f61024084015292935091613565908990611f17565b95509150600082600e81111561357d5761357d6139cc565b1461358e5750969095509350505050565b6135996004866146ed565b9450600093505b84841015613622576135b3886003611f17565b848387601381106135c6576135c6613e7d565b602002015160ff16815181106135de576135de613e7d565b60209081029190910101529150600082600e8111156135ff576135ff6139cc565b146136105750969095509350505050565b8361361a81613ef4565b9450506135a0565b60138410156136755760008382866013811061364057613640613e7d565b602002015160ff168151811061365857613658613e7d565b60209081029190910101528361366d81613ef4565b945050613622565b5060009791965090945050505050565b600080600181808080805b600f86116137815760006136a58b6001611f17565b9092509050600082600e8111156136be576136be6139cc565b146136d5575096506000955061192b945050505050565b8951805196821796889081106136ed576136ed613e7d565b60200260200101519350838561370391906146ed565b86101561374e5760208a015160009061371c878961478f565b61372690866146ed565b8151811061373657613736613e7d565b6020026020010151985098505050505050505061192b565b61375884846146ed565b925061376484866146ed565b600196871b961b945086905061377981613ef4565b965050613690565b50600c9960009950975050505050505050565b6040518061020001604052806010906020820280368337509192915050565b6001600160a01b03811681146102db57600080fd5b6000602082840312156137da57600080fd5b8135611d86816137b3565b6000806000606084860312156137fa57600080fd5b505081359360208301359350604090920135919050565b60005b8381101561382c578181015183820152602001613814565b838111156110ae5750506000910152565b60008151808452613855816020860160208601613811565b601f01601f19169290920160200192915050565b602081526000611d86602083018461383d565b60006020828403121561388e57600080fd5b5035919050565b634e487b7160e01b600052604160045260246000fd5b60405160a081016001600160401b03811182821017156138cd576138cd613895565b60405290565b60405161022081016001600160401b03811182821017156138cd576138cd613895565b604051601f8201601f191681016001600160401b038111828210171561391e5761391e613895565b604052919050565b60006001600160401b0382111561393f5761393f613895565b50601f01601f191660200190565b60006020828403121561395f57600080fd5b81356001600160401b0381111561397557600080fd5b8201601f8101841361398657600080fd5b803561399961399482613926565b6138f6565b8181528560208385010111156139ae57600080fd5b81602084016020830137600091810160200191909152949350505050565b634e487b7160e01b600052602160045260246000fd5b6040815260006139f5604083018561383d565b9050600f8310613a1557634e487b7160e01b600052602160045260246000fd5b8260208301529392505050565b600080600060608486031215613a3757600080fd5b8335613a42816137b3565b92506020840135613a52816137b3565b91506040840135613a62816137b3565b809150509250925092565b805162ffffff81168114613a8057600080fd5b919050565b8051613a80816137b3565b600082601f830112613aa157600080fd5b8151613aaf61399482613926565b818152846020838601011115613ac457600080fd5b61257a826020830160208701613811565b600060a08284031215613ae757600080fd5b613aef6138ab565b905081516001600160401b0380821115613b0857600080fd5b613b1485838601613a90565b83526020840151915080821115613b2a57600080fd5b613b3685838601613a90565b60208401526040840151915080821115613b4f57600080fd5b613b5b85838601613a90565b60408401526060840151915080821115613b7457600080fd5b613b8085838601613a90565b60608401526080840151915080821115613b9957600080fd5b50613ba684828501613a90565b60808301525092915050565b600082601f830112613bc357600080fd5b815160206001600160401b0380831115613bdf57613bdf613895565b8260051b613bee8382016138f6565b9384528581018301938381019088861115613c0857600080fd5b84880192505b85831015613c4457825184811115613c265760008081fd5b613c348a87838c0101613a90565b8352509184019190840190613c0e565b98975050505050505050565b600060208284031215613c6257600080fd5b81516001600160401b0380821115613c7957600080fd5b908301906102208286031215613c8e57600080fd5b613c966138d3565b613c9f83613a6d565b8152613cad60208401613a6d565b602082015260408301516040820152613cc860608401613a85565b6060820152608083015182811115613cdf57600080fd5b613ceb87828601613a90565b60808301525060a083015182811115613d0357600080fd5b613d0f87828601613a90565b60a083015250613d2160c08401613a85565b60c082015260e083015182811115613d3857600080fd5b613d4487828601613a90565b60e0830152506101008084015183811115613d5e57600080fd5b613d6a88828701613a90565b8284015250506101208084015183811115613d8457600080fd5b613d9088828701613a90565b8284015250506101408084015183811115613daa57600080fd5b613db688828701613ad5565b8284015250506101608084015183811115613dd057600080fd5b613ddc88828701613bb2565b8284015250506101808084015183811115613df657600080fd5b613e0288828701613bb2565b8284015250506101a08084015183811115613e1c57600080fd5b613e2888828701613a90565b8284015250506101c08084015181830152506101e0613e48818501613a85565b908201526102008381015183811115613e6057600080fd5b613e6c88828701613a90565b918301919091525095945050505050565b634e487b7160e01b600052603260045260246000fd5b60008151613ea5818560208601613811565b9290920192915050565b60008351613ec1818460208801613811565b835190830190613ed5818360208801613811565b01949350505050565b634e487b7160e01b600052601160045260246000fd5b6000600019821415613f0857613f08613ede565b5060010190565b600060208284031215613f2157600080fd5b81516001600160401b03811115613f3757600080fd5b61257a84828501613a90565b651e343a36b61f60d11b81527f3c686561643e3c6d65746120636861727365743d275554462d38273e00000000600682015260008751613f8a816022850160208c01613811565b7f3c73637269707420747970653d22746578742f6a6176617363726970742220696022918401918201527f643d22736e69707065742d636f6e74726163742d636f6465223e6c657420746f60428201527435b2b72230ba30901e903d913a37b5b2b724b2111d60591b6062820152875161400b816077840160208c01613811565b6a16101139b2b2b2111d101160a91b607792909101918201528651614037816082840160208b01613811565b6140e86140d56140c26140bc6140a361408f61408961407661407060828a8c01016b113e9d9e17b9b1b934b83a1f60a11b8152600c0190565b8f613e93565b661e39ba3cb6329f60c91b815260070190565b8c613e93565b671e17b9ba3cb6329f60c11b815260080190565b6c1e17b432b0b21f1e3137b23c9f60991b8152600d0190565b88613e93565b661e17b137b23c9f60c91b815260070190565b661e17b43a36b61f60c91b815260070190565b9a9950505050505050505050565b60008551614108818460208a01613811565b8083019050602f60f81b8082528651614128816001850160208b01613811565b60019201918201528451614143816002840160208901613811565b653f736565643d60d01b60029290910191820152835161416a816008840160208801613811565b016008019695505050505050565b600081600019048311821515161561419257614192613ede565b500290565b600082516141a9818460208701613811565b9190910192915050565b7f2c2022616e696d6174696f6e5f75726c223a22646174613a746578742f68746d8152681b0ed8985cd94d8d0b60ba1b6020820152600082516141fd816029850160208701613811565b601160f91b6029939091019283015250602a01919050565b60008351614227818460208801613811565b61202360f01b9083019081528351614246816002840160208801613811565b01600201949350505050565b600060ff821660ff84168060ff0382111561426f5761426f613ede565b019392505050565b60008451614289818460208901613811565b740163d913a3930b4ba2fba3cb832911d10112634b11605d1b90830190815284516142bb816015840160208901613811565b6c111610113b30b63ab2911d101160991b6015929091019182015283516142e9816022840160208801613811565b61227d60f01b6022929091019182015260240195945050505050565b600060ff821660ff81141561431c5761431c613ede565b60010192915050565b7f2c2261747472696275746573223a205b7b2274726169745f74797065223a202281527f436f6c6c656374696f6e2041646472657373222c202276616c7565223a20220060208201526000865161438381603f850160208b01613811565b61227d60f01b603f9184019182018190527f2c7b2274726169745f74797065223a202243726561746f72222c202276616c7560418301526432911d101160d91b606183015287516143db816066850160208c01613811565b60669201918201527f2c7b2274726169745f74797065223a202243726561746f72204164647265737360688201526c111610113b30b63ab2911d101160991b6088820152613c4461448d61448761443c61448161444a82609588018d613e93565b61227d60f01b815260020190565b7f2c7b2274726169745f74797065223a20224c6963656e7365222c202276616c7581526432911d101160d91b602082015260250190565b89613e93565b86613e93565b605d60f81b815260010190565b683d913730b6b2911d1160b91b815285516000906144bf816009850160208b01613811565b601160f91b60099184019182018190526f16113232b9b1b934b83a34b7b7111d1160811b600a83015287516144fb81601a850160208c01613811565b601a920191820181905269161134b6b0b3b2911d1160b11b601b830152865161452b816025850160208b01613811565b60259201918201528451614546816026840160208901613811565b845191019061455c816026840160208801613811565b614572602682840101607d60f81b815260010190565b9998505050505050505050565b7f646174613a6170706c69636174696f6e2f6a736f6e3b6261736536342c0000008152600082516145b781601d850160208701613811565b91909101601d0192915050565b683d913730b6b2911d1160b91b815285516000906145e9816009850160208b01613811565b711116113232b9b1b934b83a34b7b7111d101160711b600991840191820152865161461b81601b840160208b01613811565b601160f91b601b92909101918201526b16101134b6b0b3b2911d101160a11b601c8201528551614652816028840160208a01613811565b6d1331b0b83a3ab9329e9a9818181160911b602892909101918201528451614681816036840160208901613811565b7016101130ba3a3934b13aba32b9911d101160791b60369290910191820152613c446146ca6146b36047840187613e93565b6a1331b0b83a3ab9329e981160a91b8152600b0190565b607d60f81b815260010190565b634e487b7160e01b600052601260045260246000fd5b6000821982111561470057614700613ede565b500190565b600082614714576147146146d7565b500490565b600082614728576147286146d7565b500690565b6020808252602b908201527f496e697469616c697a61626c653a20636f6e7472616374206973206e6f74206960408201526a6e697469616c697a696e6760a81b606082015260800190565b60008161478757614787613ede565b506000190190565b6000828210156147a1576147a1613ede565b50039056fe4142434445464748494a4b4c4d4e4f505152535455565758595a6162636465666768696a6b6c6d6e6f707172737475767778797a303132333435363738392b2f000000000000000000000000000000000000000000000000000000000000000000000000000000000000003e0000003f3435363738393a3b3c3d00000000000000000102030405060708090a0b0c0d0e0f101112131415161718190000000000001a1b1c1d1e1f202122232425262728292a2b2c2d2e2f3031323300000000003c7363726970742069643d22736e69707065742d72616e646f6d2d636f64652220747970653d22746578742f6a617661736372697074223e636f6e73742075726c536565643d6e65772055524c536561726368506172616d732877696e646f772e6c6f636174696f6e2e736561726368292e67657428227365656422293b75726c53656564262675726c536565642e6c656e6774683e30262628746f6b656e446174612e736565643d75726c53656564293b636f6e737420746f6b656e49643d746f6b656e446174612e746f6b656e49642c4f4e455f4d494c3d3165362c70726f6a6563744e756d6265723d4d6174682e666c6f6f72287061727365496e7428746f6b656e446174612e746f6b656e4964292f316536292c746f6b656e4d696e744e756d6265723d7061727365496e7428746f6b656e446174612e746f6b656e496429253165362c736565643d746f6b656e446174612e736565643b66756e6374696f6e20637972623132382824297b6c6574205f3d313737393033333730332c653d333134343133343237372c743d313031333930343234322c6e3d323737333438303736323b666f72286c657420723d302c753b723c242e6c656e6774683b722b2b295f3d655e4d6174682e696d756c285f5e28753d242e63686172436f64654174287229292c353937333939303637292c653d745e4d6174682e696d756c28655e752c32383639383630323333292c743d6e5e4d6174682e696d756c28745e752c393531323734323133292c6e3d5f5e4d6174682e696d756c286e5e752c32373136303434313739293b72657475726e205f3d4d6174682e696d756c28745e5f3e3e3e31382c353937333939303637292c653d4d6174682e696d756c286e5e653e3e3e32322c32383639383630323333292c743d4d6174682e696d756c285f5e743e3e3e31372c393531323734323133292c6e3d4d6174682e696d756c28655e6e3e3e3e31392c32373136303434313739292c5b285f5e655e745e6e293e3e3e302c28655e5f293e3e3e302c28745e5f293e3e3e302c286e5e5f293e3e3e305d7d66756e6374696f6e20736663333228242c5f2c652c74297b72657475726e2066756e6374696f6e28297b653e3e3e3d302c743e3e3e3d303b766172206e3d28243e3e3e3d30292b285f3e3e3e3d30297c303b72657475726e20243d5f5e5f3e3e3e392c5f3d652b28653c3c33297c302c653d28653d653c3c32317c653e3e3e3131292b286e3d6e2b28743d742b317c30297c30297c302c286e3e3e3e30292f343239343936373239367d7d6c6574206d61746852616e643d7366633332282e2e2e63797262313238287365656429293b3c2f7363726970743ea264697066735822122008a4985bd4667934e33a6e931459410aa4aef255bcd7098ce3b34c0fa8f9f37864736f6c634300080c0033",
  "linkReferences": {},
  "deployedLinkReferences": {}
}