{
  "_format": "hh-sol-artifact-1",
  "contractName": "GenerativeProjectData",
  "sourceName": "contracts/data/GenerativeProjectData.sol",
  "abi": [
    {
      "anonymous": false,
      "inputs": [
        {
          "indexed": false,
          "internalType": "uint8",
          "name": "version",
          "type": "uint8"
        }
      ],
      "name": "Initialized",
      "type": "event"
    },
    {
      "anonymous": false,
      "inputs": [
        {
          "indexed": true,
          "internalType": "address",
          "name": "previousOwner",
          "type": "address"
        },
        {
          "indexed": true,
          "internalType": "address",
          "name": "newOwner",
          "type": "address"
        }
      ],
      "name": "OwnershipTransferred",
      "type": "event"
    },
    {
      "inputs": [],
      "name": "_admin",
      "outputs": [
        {
          "internalType": "address",
          "name": "",
          "type": "address"
        }
      ],
      "stateMutability": "view",
      "type": "function"
    },
    {
      "inputs": [],
      "name": "_generativeProjectAddr",
      "outputs": [
        {
          "internalType": "address",
          "name": "",
          "type": "address"
        }
      ],
      "stateMutability": "view",
      "type": "function"
    },
    {
      "inputs": [],
      "name": "_paramAddr",
      "outputs": [
        {
          "internalType": "address",
          "name": "",
          "type": "address"
        }
      ],
      "stateMutability": "view",
      "type": "function"
    },
    {
      "inputs": [
        {
          "internalType": "address",
          "name": "newAdm",
          "type": "address"
        }
      ],
      "name": "changeAdmin",
      "outputs": [],
      "stateMutability": "nonpayable",
      "type": "function"
    },
    {
      "inputs": [
        {
          "internalType": "address",
          "name": "newAddr",
          "type": "address"
        }
      ],
      "name": "changeParamAddress",
      "outputs": [],
      "stateMutability": "nonpayable",
      "type": "function"
    },
    {
      "inputs": [
        {
          "internalType": "address",
          "name": "newAddr",
          "type": "address"
        }
      ],
      "name": "changeProjectAddress",
      "outputs": [],
      "stateMutability": "nonpayable",
      "type": "function"
    },
    {
      "inputs": [
        {
          "internalType": "string",
          "name": "script",
          "type": "string"
        }
      ],
      "name": "inflateScript",
      "outputs": [
        {
          "internalType": "string",
          "name": "result",
          "type": "string"
        },
        {
          "internalType": "enum Inflate.ErrorCode",
          "name": "err",
          "type": "uint8"
        }
      ],
      "stateMutability": "view",
      "type": "function"
    },
    {
      "inputs": [
        {
          "internalType": "string",
          "name": "data",
          "type": "string"
        }
      ],
      "name": "inflateString",
      "outputs": [
        {
          "internalType": "string",
          "name": "result",
          "type": "string"
        },
        {
          "internalType": "enum Inflate.ErrorCode",
          "name": "err",
          "type": "uint8"
        }
      ],
      "stateMutability": "view",
      "type": "function"
    },
    {
      "inputs": [
        {
          "internalType": "address",
          "name": "admin",
          "type": "address"
        },
        {
          "internalType": "address",
          "name": "paramAddr",
          "type": "address"
        },
        {
          "internalType": "address",
          "name": "generativeProjectAddr",
          "type": "address"
        }
      ],
      "name": "initialize",
      "outputs": [],
      "stateMutability": "nonpayable",
      "type": "function"
    },
    {
      "inputs": [],
      "name": "owner",
      "outputs": [
        {
          "internalType": "address",
          "name": "",
          "type": "address"
        }
      ],
      "stateMutability": "view",
      "type": "function"
    },
    {
      "inputs": [
        {
          "internalType": "uint256",
          "name": "projectId",
          "type": "uint256"
        }
      ],
      "name": "projectURI",
      "outputs": [
        {
          "internalType": "string",
          "name": "result",
          "type": "string"
        }
      ],
      "stateMutability": "view",
      "type": "function"
    },
    {
      "inputs": [],
      "name": "renounceOwnership",
      "outputs": [],
      "stateMutability": "nonpayable",
      "type": "function"
    },
    {
      "inputs": [
        {
          "internalType": "uint256",
          "name": "projectId",
          "type": "uint256"
        },
        {
          "internalType": "uint256",
          "name": "tokenId",
          "type": "uint256"
        },
        {
          "internalType": "bytes32",
          "name": "seed",
          "type": "bytes32"
        }
      ],
      "name": "tokenBaseURI",
      "outputs": [
        {
          "internalType": "string",
          "name": "result",
          "type": "string"
        }
      ],
      "stateMutability": "view",
      "type": "function"
    },
    {
      "inputs": [
        {
          "internalType": "uint256",
          "name": "projectId",
          "type": "uint256"
        },
        {
          "internalType": "uint256",
          "name": "tokenId",
          "type": "uint256"
        },
        {
          "internalType": "bytes32",
          "name": "seed",
          "type": "bytes32"
        }
      ],
      "name": "tokenHTML",
      "outputs": [
        {
          "internalType": "string",
          "name": "result",
          "type": "string"
        }
      ],
      "stateMutability": "view",
      "type": "function"
    },
    {
      "inputs": [
        {
          "internalType": "uint256",
          "name": "projectId",
          "type": "uint256"
        },
        {
          "internalType": "uint256",
          "name": "tokenId",
          "type": "uint256"
        },
        {
          "internalType": "bytes32",
          "name": "seed",
          "type": "bytes32"
        }
      ],
      "name": "tokenURI",
      "outputs": [
        {
          "internalType": "string",
          "name": "result",
          "type": "string"
        }
      ],
      "stateMutability": "view",
      "type": "function"
    },
    {
      "inputs": [
        {
          "internalType": "address",
          "name": "newOwner",
          "type": "address"
        }
      ],
      "name": "transferOwnership",
      "outputs": [],
      "stateMutability": "nonpayable",
      "type": "function"
    }
  ],
  "bytecode": "0x608060405234801561001057600080fd5b5061495c806100206000396000f3fe608060405234801561001057600080fd5b50600436106101005760003560e01c80637af34af211610097578063c0c53b8b11610066578063c0c53b8b14610216578063e808285814610229578063f2fde38b1461023c578063f4a290f71461024f57600080fd5b80637af34af2146101cc5780638da5cb5b146101df5780638f283970146101f0578063941393011461020357600080fd5b8063567fdcf3116100d3578063567fdcf31461017d5780636e973cf214610190578063715018a6146101b157806379ebc6f0146101b957600080fd5b806301bc45c91461010557806316a5041f1461013557806331c7280c1461014a57806346eaa7481461016a575b600080fd5b606554610118906001600160a01b031681565b6040516001600160a01b0390911681526020015b60405180910390f35b610148610143366004613911565b610262565b005b61015d61015836600461392e565b6102fc565b60405161012c91906139b2565b61015d61017836600461392e565b6104fe565b606754610118906001600160a01b031681565b6101a361019e366004613a7d565b610667565b60405161012c929190613b12565b610148610685565b61015d6101c7366004613b52565b610699565b6101a36101da366004613a7d565b610a8e565b6033546001600160a01b0316610118565b6101486101fe366004613911565b610aad565b61015d61021136600461392e565b610b3f565b610148610224366004613b6b565b610e9c565b610148610237366004613911565b611008565b61014861024a366004613911565b61109a565b606654610118906001600160a01b031681565b6065546001600160a01b03163314801561028457506001600160a01b03811615155b6040518060400160405280600381526020016231303160e81b815250906102c75760405162461bcd60e51b81526004016102be91906139b2565b60405180910390fd5b506066546001600160a01b038281169116146102f957606680546001600160a01b0319166001600160a01b0383161790555b50565b6067546040516346ec8d2b60e11b8152600481018590526060916001600160a01b0316906000908290638dd91a5690602401600060405180830381865afa15801561034b573d6000803e3d6000fd5b505050506040513d6000823e601f3d908101601f191682016040526103739190810190613e0c565b9050600060405180602001604052806000815250905060606000805b846101800151518110156104f057600085610180015182815181106103b6576103b661406c565b60200260200101515111156104de57306001600160a01b0316637af34af286610180015183815181106103eb576103eb61406c565b60200260200101516040518263ffffffff1660e01b815260040161040f91906139b2565b600060405180830381865afa15801561042c573d6000803e3d6000fd5b505050506040513d6000823e601f3d908101601f191682016040526104549190810190614082565b9093509150600082600e81111561046d5761046d613afc565b146104b95783856101800151828151811061048a5761048a61406c565b60200260200101516040516020016104a39291906140f3565b60405160208183030381529060405293506104de565b83836040516020016104cc9291906140f3565b60405160208183030381529060405293505b806104e881614138565b91505061038f565b509198975050505050505050565b6066546040805180820182526008815267424153455f55524960c01b6020820152905163349f642f60e11b81526060926001600160a01b031691600091839163693ec85e9161055091906004016139b2565b600060405180830381865afa15801561056d573d6000803e3d6000fd5b505050506040513d6000823e601f3d908101601f191682016040526105959190810190614153565b6067546040516346ec8d2b60e11b8152600481018990529192506001600160a01b0316906000908290638dd91a5690602401600060405180830381865afa1580156105e4573d6000803e3d6000fd5b505050506040513d6000823e601f3d908101601f1916820160405261060c9190810190613e0c565b6067549091508390610626906001600160a01b0316611110565b61062f8961112c565b610638896111c8565b60405160200161064b9493929190614187565b6040516020818303038152906040529450505050509392505050565b6060600061067c61067784611214565b611382565b91509150915091565b61068d6114d8565b6106976000611532565b565b60606106f56040518061010001604052806060815260200160006001600160a01b031681526020016060815260200160608152602001606081526020016060815260200160006001600160a01b03168152602001606081525090565b6067546040516346ec8d2b60e11b8152600481018590526001600160a01b03909116906000908290638dd91a5690602401600060405180830381865afa158015610743573d6000803e3d6000fd5b505050506040513d6000823e601f3d908101601f1916820160405261076b9190810190613e0c565b9050600061077c620f424087614209565b90506000306001600160a01b03166331c7280c8884856040516020016107a491815260200190565b604051602081830303815290604052805190602001206040518463ffffffff1660e01b81526004016107e9939291909283526020830191909152604082015260600190565b600060405180830381865afa158015610806573d6000803e3d6000fd5b505050506040513d6000823e601f3d908101601f1916820160405261082e9190810190614153565b805190915015610882576108608160405160200161084c9190614228565b604051602081830303815290604052611584565b6040516020016108709190614244565b60405160208183030381529060405290505b6000816040516020016108959190614282565b604051602081830303815290604052905083608001516108b48961112c565b6040516020016108c59291906142c9565b60408051601f19818403018152918152870152610100840151608087018190526060906000906108f490610667565b9092509050600081600e81111561090d5761090d613afc565b141561091b57608088018290525b610120860151606089015260a08089018490526101e08701516001600160a01b0390811660c0808c0191909152880151166020808b019190915290870151895260408051918201905260008082525b876101600151518160ff1610156109ea578161099261098a836001614306565b60ff1661112c565b8961016001518360ff16815181106109ac576109ac61406c565b60200260200101516040516020016109c69392919061432b565b604051602081830303815290604052915080806109e2906143b9565b91505061096a565b506109f88960c00151611110565b895160208b0151610a0890611110565b8960e0015184604051602001610a229594939291906143d9565b60408051601f1981840301815291815260e08b018290528a81015160808c015160608d015160a08e01519351610a5f9561084c959160200161455a565b604051602001610a6f919061463f565b6040516020818303038152906040529950505050505050505050919050565b6060600061067c61019e6009808651610aa79190614684565b866116e9565b6065546001600160a01b031633148015610acf57506001600160a01b03811615155b6040518060400160405280600381526020016231303160e81b81525090610b095760405162461bcd60e51b81526004016102be91906139b2565b506065546001600160a01b038281169116146102f957606580546001600160a01b0383166001600160a01b031990911617905550565b6060610b736040518060a0016040528060608152602001606081526020016060815260200160608152602001606081525090565b606654604080518082018252600e81526d109054d157d5549257d51490525560921b6020820152905163349f642f60e11b81526001600160a01b0390921691829163693ec85e91610bc791906004016139b2565b600060405180830381865afa158015610be4573d6000803e3d6000fd5b505050506040513d6000823e601f3d908101601f19168201604052610c0c9190810190614153565b60408381019190915260675490516346ec8d2b60e11b8152600481018890526001600160a01b03909116906000908290638dd91a5690602401600060405180830381865afa158015610c62573d6000803e3d6000fd5b505050506040513d6000823e601f3d908101601f19168201604052610c8a9190810190613e0c565b604051630c71ca0360e21b8152600481018a9052602481018990526044810188905290915060009030906331c7280c90606401600060405180830381865afa158015610cda573d6000803e3d6000fd5b505050506040513d6000823e601f3d908101601f19168201604052610d029190810190614153565b805190915015610d4257610d208160405160200161084c9190614228565b604051602001610d309190614244565b60405160208183030381529060405290505b80604051602001610d539190614282565b60408051601f1981840301815291905260608601526080820151610d768961112c565b604051602001610d879291906142c9565b60408051601f19818403018152919052855261010082015160208601526102008201515115610dbc5761020082015160208601525b60606000610dcd8760200151610667565b9092509050600081600e811115610de657610de6613afc565b1415610df457602087018290525b6040870151606754610e0e906001600160a01b0316611110565b610e178c61112c565b610e208c6111c8565b604051602001610e339493929190614187565b60408051601f19818403018152918152888101829052885160208a81015160608c01519351610e6d9561084c95929390929183910161469b565b604051602001610e7d919061463f565b6040516020818303038152906040529750505050505050509392505050565b600054610100900460ff1615808015610ebc5750600054600160ff909116105b80610ed65750303b158015610ed6575060005460ff166001145b610f395760405162461bcd60e51b815260206004820152602e60248201527f496e697469616c697a61626c653a20636f6e747261637420697320616c72656160448201526d191e481a5b9a5d1a585b1a5e995960921b60648201526084016102be565b6000805460ff191660011790558015610f5c576000805461ff0019166101001790555b606580546001600160a01b038087166001600160a01b031992831617909255606680548684169083161790556067805492851692909116919091179055610fa16117d1565b60408051808201909152600381526231323360e81b6020909101528015611002576000805461ff0019169055604051600181527f7f26b83ff96e1f2b6a682f133852f6798a09c465da95921460cefb38474024989060200160405180910390a15b50505050565b6065546001600160a01b03163314801561102a57506001600160a01b03811615155b6040518060400160405280600381526020016231303160e81b815250906110645760405162461bcd60e51b81526004016102be91906139b2565b506067546001600160a01b038281169116146102f957606780546001600160a01b0383166001600160a01b031990911617905550565b6110a26114d8565b6001600160a01b0381166111075760405162461bcd60e51b815260206004820152602660248201527f4f776e61626c653a206e6577206f776e657220697320746865207a65726f206160448201526564647265737360d01b60648201526084016102be565b6102f981611532565b60606111266001600160a01b0383166014611800565b92915050565b606060006111398361199b565b60010190506000816001600160401b03811115611158576111586139c5565b6040519080825280601f01601f191660200182016040528015611182576020820181803683370190505b5090508181016020015b600019016f181899199a1a9b1b9c1cb0b131b232b360811b600a86061a8153600a85049450846111bb576111c0565b61118c565b509392505050565b60606111d382611a73565b6111e0608084901b611a73565b60405161060f60f31b6020820152602281019290925260428201526062016040516020818303038152906040529050919050565b80516060908290158061123357506004815161123091906147c4565b15155b1561124e5760408051600080825260208201909252906111c0565b60006040518060a00160405280608081526020016148a760809139905060006004835161127b91906147d8565b611286906003614209565b905060006112958260206147ec565b6001600160401b038111156112ac576112ac6139c5565b6040519080825280601f01601f1916602001820160405280156112d6576020820181803683370190505b5090508351840151603d60ff8216141561130557600183039250613d3d61ffff82161415611305576001830392505b50818152600183018485518101602084015b8183101561137457600483019250825160ff8082168601511660ff808360081c168701511660061b0160ff808360101c1687015116600c1b60ff808460181c168801511660121b010190508060e81b825250600381019050611317565b509298975050505050505050565b60606000606061139f848551600561139a9190614209565b611c25565b9092509050600082600e8111156113b8576113b8613afc565b14156114bf5760005b8181815181106113d3576113d361406c565b01602001516001600160f81b0319166113eb5761140b565b806113f581614138565b91505081518114156114065761140b565b6113c1565b6000816001600160401b03811115611425576114256139c5565b6040519080825280601f01601f19166020018201604052801561144f576020820181803683370190505b50905060005b828110156114b55783818151811061146f5761146f61406c565b602001015160f81c60f81b82828151811061148c5761148c61406c565b60200101906001600160f81b031916908160001a905350806114ad81614138565b915050611455565b5093506114d29050565b6040518060200160405280600081525092505b50915091565b6033546001600160a01b031633146106975760405162461bcd60e51b815260206004820181905260248201527f4f776e61626c653a2063616c6c6572206973206e6f7420746865206f776e657260448201526064016102be565b603380546001600160a01b038381166001600160a01b0319831681179093556040519116919082907f8be0079c531659141344cd1fd0a4f28419497f9722a3daafe3b4186f6b6457e090600090a35050565b60608151600014156115a457505060408051602081019091526000815290565b600060405180606001604052806040815260200161486760409139905060006003845160026115d391906147ec565b6115dd91906147d8565b6115e8906004614209565b905060006115f78260206147ec565b6001600160401b0381111561160e5761160e6139c5565b6040519080825280601f01601f191660200182016040528015611638576020820181803683370190505b509050818152600183018586518101602084015b818310156116a4576003830192508251603f8160121c168501518253600182019150603f81600c1c168501518253600182019150603f8160061c168501518253600182019150603f811685015182535060010161164c565b6003895106600181146116be57600281146116cf576116db565b613d3d60f01b6001198301526116db565b603d60f81b6000198301525b509398975050505050505050565b606060006116f78585614684565b6117029060016147ec565b6001600160401b03811115611719576117196139c5565b6040519080825280601f01601f191660200182016040528015611743576020820181803683370190505b50905060005b6117538686614684565b81116117c65783600161176688846147ec565b6117709190614684565b815181106117805761178061406c565b602001015160f81c60f81b82828151811061179d5761179d61406c565b60200101906001600160f81b031916908160001a905350806117be81614138565b915050611749565b5090505b9392505050565b600054610100900460ff166117f85760405162461bcd60e51b81526004016102be90614804565b610697611ed6565b6060600061180f836002614209565b61181a9060026147ec565b6001600160401b03811115611831576118316139c5565b6040519080825280601f01601f19166020018201604052801561185b576020820181803683370190505b509050600360fc1b816000815181106118765761187661406c565b60200101906001600160f81b031916908160001a905350600f60fb1b816001815181106118a5576118a561406c565b60200101906001600160f81b031916908160001a90535060006118c9846002614209565b6118d49060016147ec565b90505b600181111561194c576f181899199a1a9b1b9c1cb0b131b232b360811b85600f16601081106119085761190861406c565b1a60f81b82828151811061191e5761191e61406c565b60200101906001600160f81b031916908160001a90535060049490941c936119458161484f565b90506118d7565b5083156117ca5760405162461bcd60e51b815260206004820181905260248201527f537472696e67733a20686578206c656e67746820696e73756666696369656e7460448201526064016102be565b60008072184f03e93ff9f4daa797ed6e38ed64bf6a1f0160401b83106119da5772184f03e93ff9f4daa797ed6e38ed64bf6a1f0160401b830492506040015b6d04ee2d6d415b85acef81000000008310611a06576d04ee2d6d415b85acef8100000000830492506020015b662386f26fc100008310611a2457662386f26fc10000830492506010015b6305f5e1008310611a3c576305f5e100830492506008015b6127108310611a5057612710830492506004015b60648310611a62576064830492506002015b600a83106111265760010192915050565b7aff00000000000000ff00000000000000ff00000000000000ff00006bffffffff0000000000000000604083901c90811663ffffffff60c01b84161760201c63ffffffff60601b919091166001600160e01b031984161717601081901c9182167eff00000000000000ff00000000000000ff00000000000000ff000000000000821617600890811c7bff00000000000000ff00000000000000ff00000000000000ff000000939093167fff00000000000000ff00000000000000ff00000000000000ff000000000000009290921691909117919091179081901c7e0f000f000f000f000f000f000f000f000f000f000f000f000f000f000f000f167f0f000f000f000f000f000f000f000f000f000f000f000f000f000f000f000f00600492831c161790611bc1827f06060606060606060606060606060606060606060606060606060606060606066147ec565b901c7f0f0f0f0f0f0f0f0f0f0f0f0f0f0f0f0f0f0f0f0f0f0f0f0f0f0f0f0f0f0f0f0f166007611bf19190614209565b611c1b827f30303030303030303030303030303030303030303030303030303030303030306147ec565b61112691906147ec565b600060606000604051806101000160405280856001600160401b03811115611c4f57611c4f6139c5565b6040519080825280601f01601f191660200182016040528015611c79576020820181803683370190505b508152602001600081526020018681526020016000815260200160008152602001600081526020016040518060400160405280600f6001611cba91906147ec565b6001600160401b03811115611cd157611cd16139c5565b604051908082528060200260200182016040528015611cfa578160200160208202803683370190505b5081526040805161012080825261242082019092526020928301929091908201612400803683370190505081525081526020016040518060400160405280600f6001611d4691906147ec565b6001600160401b03811115611d5d57611d5d6139c5565b604051908082528060200260200182016040528015611d86578160200160208202803683370190505b50815260408051601e8082526103e0820190925260209283019290919082016103c08036833750505090529052905060008080611dc284611f06565b9050600081600e811115611dd857611dd8613afc565b14611ded579251929450919250611ecf915050565b82611ec457611dfd846001612090565b93509050600081600e811115611e1557611e15613afc565b14611e2a579251929450919250611ecf915050565b611e35846002612090565b92509050600081600e811115611e4d57611e4d613afc565b14611e62579251929450919250611ecf915050565b8115611e965781600114611e8d5781600214611e7f576003611e9f565b611e8884612161565b611e9f565b611e88846121db565b611e9f846121f0565b9050600081600e811115611eb557611eb5613afc565b14611ebf57611ec4565b611ded565b925192945091925050505b9250929050565b600054610100900460ff16611efd5760405162461bcd60e51b81526004016102be90614804565b61069733611532565b604080516101208082526124208201909252600091829182916020820161240080368337019050509050600091505b6090821015611f6f576008818381518110611f5257611f5261406c565b602090810291909101015281611f6781614138565b925050611f35565b610100821015611faa576009818381518110611f8d57611f8d61406c565b602090810291909101015281611fa281614138565b925050611f6f565b610118821015611fe5576007818381518110611fc857611fc861406c565b602090810291909101015281611fdd81614138565b925050611faa565b6101208210156120205760088183815181106120035761200361406c565b60209081029190910101528161201881614138565b925050611fe5565b6120338460c00151826101206000612400565b50600091505b601e8210156120735760058183815181106120565761205661406c565b60209081029190910101528161206b81614138565b925050612039565b6120858460e0015182601e6000612400565b506000949350505050565b608082015160009081905b838560a00151101561212457846040015151856060015114156120c657600160009250925050611ecf565b60a08501516040860151606087018051906120e082614138565b9052815181106120f2576120f261406c565b602001015160f81c60f81b60f81c60ff16901b8117905060088560a00181815161211c91906147ec565b90525061209b565b80841c608086015260a085018051859190612140908390614684565b9052506000612152600180871b614684565b60009792169550909350505050565b6000612180604051806040016040528060608152602001606081525090565b6040805180820190915260608082526020820152600061219f856126cb565b90945092509050600081600e8111156121ba576121ba613afc565b146121c757949350505050565b6121d2858484612d81565b95945050505050565b6000611126828360c001518460e00151612d81565b60006080820181905260a0820181905260408201515160608301518291906122199060046147ec565b11156122285750600192915050565b60408301516060840180519061223d82614138565b90528151811061224f5761224f61406c565b0160200151604084015160608501805160f89390931c93506008929061227482614138565b9052815181106122865761228661406c565b602001015160f81c60f81b60f81c60ff16901b81179050801960ff1683604001518460600180518091906122b990614138565b9052815181106122cb576122cb61406c565b016020015160f81c1415806123165750604083015160608401805160ff841960081c1692916122f982614138565b90528151811061230b5761230b61406c565b016020015160f81c14155b156123245750600492915050565b82604001515181846060015161233a91906147ec565b11156123495750600192915050565b825151602084015161235c9083906147ec565b111561236b5750600292915050565b80156123f75761237c600182614684565b9050826040015183606001805180919061239590614138565b9052815181106123a7576123a761406c565b602001015160f81c60f81b83600001518460200180518091906123c990614138565b9052815181106123db576123db61406c565b60200101906001600160f81b031916908160001a90535061236b565b50600092915050565b60008060008061240e6138dd565b600092505b600f8311612450576000896000015184815181106124335761243361406c565b60209081029190910101528261244881614138565b935050612413565b600093505b868410156124bc5788518861246a86896147ec565b8151811061247a5761247a61406c565b6020026020010151815181106124925761249261406c565b6020026020010180518091906124a790614138565b905250836124b481614138565b945050612455565b8689600001516000815181106124d4576124d461406c565b602002602001015114156124ef5760009450505050506126c3565b60019150600192505b600f8311612572578851805160019390931b928490811061251b5761251b61406c565b602002602001015182101561253757600e9450505050506126c3565b885180518490811061254b5761254b61406c565b60200260200101518261255e9190614684565b91508261256a81614138565b9350506124f8565b60006020820152600192505b600f8310156125f757885180518490811061259b5761259b61406c565b60200260200101518184601081106125b5576125b561406c565b60200201516125c491906147ec565b816125d08560016147ec565b601081106125e0576125e061406c565b6020020152826125ef81614138565b93505061257e565b600093505b868410156126aa578761260f85886147ec565b8151811061261f5761261f61406c565b60200260200101516000146126985760208901518490828a612641848b6147ec565b815181106126515761265161406c565b6020026020010151601081106126695761266961406c565b6020020180519061267982614138565b90528151811061268b5761268b61406c565b6020026020010181815250505b836126a281614138565b9450506125fc565b600082116126b95760006126bc565b600e5b9450505050505b949350505050565b60006126ea604051806040016040528060608152602001606081525090565b6040805180820190915260608082526020820152600080808080612711601e61011e6147ec565b6001600160401b03811115612728576127286139c5565b604051908082528060200260200182016040528015612751578160200160208202803683370190505b50905060006040518060400160405280600f600161276f91906147ec565b6001600160401b03811115612786576127866139c5565b6040519080825280602002602001820160405280156127af578160200160208202803683370190505b5081526040805161011e8082526123e0820190925260209283019290919082016123c08036833701905050815250905060006040518060400160405280600f60016127fa91906147ec565b6001600160401b03811115612811576128116139c5565b60405190808252806020026020018201604052801561283a578160200160208202803683370190505b50815260408051601e8082526103e0820190925260209283019290919082016103c0803683375050509052905060006128748c6005612090565b98509450600085600e81111561288c5761288c613afc565b146128a457509298509650909450612d7a9350505050565b6128b0610101896147ec565b97506128bd8c6005612090565b97509450600085600e8111156128d5576128d5613afc565b146128ed57509298509650909450612d7a9350505050565b6128f86001886147ec565b965061011e88118061290a5750601e87115b156129245750600599509097509550612d7a945050505050565b61292d8c6135ac565b9095509350600085600e81111561294657612946613afc565b1461295e57509298509650909450612d7a9350505050565b61296c838560136000612400565b9450600085600e81111561298257612982613afc565b1461299c5750600699509097509550612d7a945050505050565b600095505b6129ab87896147ec565b861015612ba4576000806129bf8e866137ce565b9097509150600087600e8111156129d8576129d8613afc565b146129f25750949a509198509650612d7a95505050505050565b6010821015612a2a57818689612a0781614138565b9a5081518110612a1957612a1961406c565b602002602001018181525050612b9d565b5060006010821415612ac95787612a53575060079b50929950909750612d7a9650505050505050565b85612a5f60018a614684565b81518110612a6f57612a6f61406c565b60200260200101519050612a848e6002612090565b9097509250600087600e811115612a9d57612a9d613afc565b14612ab75750949a509198509650612d7a95505050505050565b612ac28360036147ec565b9150612b29565b8160111415612add57612a848e6003612090565b612ae88e6007612090565b9097509250600087600e811115612b0157612b01613afc565b14612b1b5750949a509198509650612d7a95505050505050565b612b2683600b6147ec565b91505b612b33898b6147ec565b612b3d838a6147ec565b1115612b5b575060089b50929950909750612d7a9650505050505050565b8115612b9d57612b6c600183614684565b9150808689612b7a81614138565b9a5081518110612b8c57612b8c61406c565b602002602001018181525050612b5b565b50506129a1565b8361010081518110612bb857612bb861406c565b602002602001015160001415612bdd5750600b99509097509550612d7a945050505050565b612bea83858a6000612400565b9450600085600e811115612c0057612c00613afc565b14158015612c8a5750600185600e811115612c1d57612c1d613afc565b1480612c3a5750600285600e811115612c3857612c38613afc565b145b80612c8a5750825180516001908110612c5557612c5561406c565b60200260200101518360000151600081518110612c7457612c7461406c565b6020026020010151612c8691906147ec565b8814155b15612ca45750600999509097509550612d7a945050505050565b612cb08285898b612400565b9450600085600e811115612cc657612cc6613afc565b14158015612d505750600185600e811115612ce357612ce3613afc565b1480612d005750600285600e811115612cfe57612cfe613afc565b145b80612d505750815180516001908110612d1b57612d1b61406c565b60200260200101518260000151600081518110612d3a57612d3a61406c565b6020026020010151612d4c91906147ec565b8714155b15612d6a5750600a99509097509550612d7a945050505050565b5060009950909750955050505050505b9193909250565b6000806000806000604051806103a00160405280600361ffff168152602001600461ffff168152602001600561ffff168152602001600661ffff168152602001600761ffff168152602001600861ffff168152602001600961ffff168152602001600a61ffff168152602001600b61ffff168152602001600d61ffff168152602001600f61ffff168152602001601161ffff168152602001601361ffff168152602001601761ffff168152602001601b61ffff168152602001601f61ffff168152602001602361ffff168152602001602b61ffff168152602001603361ffff168152602001603b61ffff168152602001604361ffff168152602001605361ffff168152602001606361ffff168152602001607361ffff168152602001608361ffff16815260200160a361ffff16815260200160c361ffff16815260200160e361ffff16815260200161010261ffff1681525090506000604051806103a00160405280600060ff168152602001600060ff168152602001600060ff168152602001600060ff168152602001600060ff168152602001600060ff168152602001600060ff168152602001600060ff168152602001600160ff168152602001600160ff168152602001600160ff168152602001600160ff168152602001600260ff168152602001600260ff168152602001600260ff168152602001600260ff168152602001600360ff168152602001600360ff168152602001600360ff168152602001600360ff168152602001600460ff168152602001600460ff168152602001600460ff168152602001600460ff168152602001600560ff168152602001600560ff168152602001600560ff168152602001600560ff168152602001600060ff1681525090506000604051806103c00160405280600161ffff168152602001600261ffff168152602001600361ffff168152602001600461ffff168152602001600561ffff168152602001600761ffff168152602001600961ffff168152602001600d61ffff168152602001601161ffff168152602001601961ffff168152602001602161ffff168152602001603161ffff168152602001604161ffff168152602001606161ffff168152602001608161ffff16815260200160c161ffff16815260200161010161ffff16815260200161018161ffff16815260200161020161ffff16815260200161030161ffff16815260200161040161ffff16815260200161060161ffff16815260200161080161ffff168152602001610c0161ffff16815260200161100161ffff16815260200161180161ffff16815260200161200161ffff16815260200161300161ffff16815260200161400161ffff16815260200161600161ffff1681525090506000604051806103c00160405280600060ff168152602001600060ff168152602001600060ff168152602001600060ff168152602001600160ff168152602001600160ff168152602001600260ff168152602001600260ff168152602001600360ff168152602001600360ff168152602001600460ff168152602001600460ff168152602001600560ff168152602001600560ff168152602001600660ff168152602001600660ff168152602001600760ff168152602001600760ff168152602001600860ff168152602001600860ff168152602001600960ff168152602001600960ff168152602001600a60ff168152602001600a60ff168152602001600b60ff168152602001600b60ff168152602001600c60ff168152602001600c60ff168152602001600d60ff168152602001600d60ff16815250905060005b876101001461359a576132bb8c8c6137ce565b98509050600081600e8111156132d3576132d3613afc565b146132e75797506117ca9650505050505050565b61010088101561335d578b515160208d01511415613310576002985050505050505050506117ca565b8760f81b8c600001518d602001518151811061332e5761332e61406c565b60200101906001600160f81b031916908160001a90535060208c0180519061335582614138565b9052506132a8565b6101008811156135885760006133756101018a614684565b9850601d891061339157600c99505050505050505050506117ca565b6133b48d868b601d81106133a7576133a761406c565b602002015160ff16612090565b9092509050600082600e8111156133cd576133cd613afc565b146133e2575097506117ca9650505050505050565b80868a601d81106133f5576133f561406c565b602002015161ffff1661340891906147ec565b97506134148d8c6137ce565b99509150600082600e81111561342c5761342c613afc565b14613441575097506117ca9650505050505050565b6134578d848b601e81106133a7576133a761406c565b9092509050600082600e81111561347057613470613afc565b14613485575097506117ca9650505050505050565b80848a601e81106134985761349861406c565b602002015161ffff166134ab91906147ec565b96508c602001518711156134cb57600d99505050505050505050506117ca565b8c515160208e01516134de908a906147ec565b11156134f657600299505050505050505050506117ca565b871561358257613507600189614684565b97508c60000151878e6020015161351e9190614684565b8151811061352e5761352e61406c565b602001015160f81c60f81b8d600001518e60200151815181106135535761355361406c565b60200101906001600160f81b031916908160001a90535060208d0180519061357a82614138565b9052506134f6565b506132a8565b868c60200181815161335591906147ec565b5060009b9a5050505050505050505050565b600060608180806135c0601e61011e6147ec565b6001600160401b038111156135d7576135d76139c5565b604051908082528060200260200182016040528015613600578160200160208202803683370190505b506040805161026081018252601081526011602082015260129181019190915260006060820181905260086080830152600760a0830152600960c0830152600660e0830152600a6101008301526005610120830152600b61014083015260046101608301819052600c61018084015260036101a0840152600d6101c084015260026101e0840152600e6102008401526001610220840152600f610240840152929350916136ae908990612090565b95509150600082600e8111156136c6576136c6613afc565b146136d75750969095509350505050565b6136e26004866147ec565b9450600093505b8484101561376b576136fc886003612090565b8483876013811061370f5761370f61406c565b602002015160ff16815181106137275761372761406c565b60209081029190910101529150600082600e81111561374857613748613afc565b146137595750969095509350505050565b8361376381614138565b9450506136e9565b60138410156137be576000838286601381106137895761378961406c565b602002015160ff16815181106137a1576137a161406c565b6020908102919091010152836137b681614138565b94505061376b565b5060009791965090945050505050565b600080600181808080805b600f86116138ca5760006137ee8b6001612090565b9092509050600082600e81111561380757613807613afc565b1461381e5750965060009550611ecf945050505050565b8951805196821796889081106138365761383661406c565b60200260200101519350838561384c91906147ec565b8610156138975760208a01516000906138658789614684565b61386f90866147ec565b8151811061387f5761387f61406c565b60200260200101519850985050505050505050611ecf565b6138a184846147ec565b92506138ad84866147ec565b600196871b961b94508690506138c281614138565b9650506137d9565b50600c9960009950975050505050505050565b6040518061020001604052806010906020820280368337509192915050565b6001600160a01b03811681146102f957600080fd5b60006020828403121561392357600080fd5b81356117ca816138fc565b60008060006060848603121561394357600080fd5b505081359360208301359350604090920135919050565b60005b8381101561397557818101518382015260200161395d565b838111156110025750506000910152565b6000815180845261399e81602086016020860161395a565b601f01601f19169290920160200192915050565b6020815260006117ca6020830184613986565b634e487b7160e01b600052604160045260246000fd5b60405160a081016001600160401b03811182821017156139fd576139fd6139c5565b60405290565b60405161026081016001600160401b03811182821017156139fd576139fd6139c5565b604051601f8201601f191681016001600160401b0381118282101715613a4e57613a4e6139c5565b604052919050565b60006001600160401b03821115613a6f57613a6f6139c5565b50601f01601f191660200190565b600060208284031215613a8f57600080fd5b81356001600160401b03811115613aa557600080fd5b8201601f81018413613ab657600080fd5b8035613ac9613ac482613a56565b613a26565b818152856020838501011115613ade57600080fd5b81602084016020830137600091810160200191909152949350505050565b634e487b7160e01b600052602160045260246000fd5b604081526000613b256040830185613986565b9050600f8310613b4557634e487b7160e01b600052602160045260246000fd5b8260208301529392505050565b600060208284031215613b6457600080fd5b5035919050565b600080600060608486031215613b8057600080fd5b8335613b8b816138fc565b92506020840135613b9b816138fc565b91506040840135613bab816138fc565b809150509250925092565b805162ffffff81168114613bc957600080fd5b919050565b8051613bc9816138fc565b600082601f830112613bea57600080fd5b8151613bf8613ac482613a56565b818152846020838601011115613c0d57600080fd5b6126c382602083016020870161395a565b600060a08284031215613c3057600080fd5b613c386139db565b905081516001600160401b0380821115613c5157600080fd5b613c5d85838601613bd9565b83526020840151915080821115613c7357600080fd5b613c7f85838601613bd9565b60208401526040840151915080821115613c9857600080fd5b613ca485838601613bd9565b60408401526060840151915080821115613cbd57600080fd5b613cc985838601613bd9565b60608401526080840151915080821115613ce257600080fd5b50613cef84828501613bd9565b60808301525092915050565b60006001600160401b03821115613d1457613d146139c5565b5060051b60200190565b600082601f830112613d2f57600080fd5b81516020613d3f613ac483613cfb565b82815260059290921b84018101918181019086841115613d5e57600080fd5b8286015b84811015613d9d5780516001600160401b03811115613d815760008081fd5b613d8f8986838b0101613bd9565b845250918301918301613d62565b509695505050505050565b600082601f830112613db957600080fd5b81516020613dc9613ac483613cfb565b82815260059290921b84018101918181019086841115613de857600080fd5b8286015b84811015613d9d578051613dff816138fc565b8352918301918301613dec565b600060208284031215613e1e57600080fd5b81516001600160401b0380821115613e3557600080fd5b908301906102608286031215613e4a57600080fd5b613e52613a03565b613e5b83613bb6565b8152613e6960208401613bb6565b602082015260408301516040820152613e8460608401613bce565b6060820152608083015182811115613e9b57600080fd5b613ea787828601613bd9565b60808301525060a083015182811115613ebf57600080fd5b613ecb87828601613bd9565b60a083015250613edd60c08401613bce565b60c082015260e083015182811115613ef457600080fd5b613f0087828601613bd9565b60e0830152506101008084015183811115613f1a57600080fd5b613f2688828701613bd9565b8284015250506101208084015183811115613f4057600080fd5b613f4c88828701613bd9565b8284015250506101408084015183811115613f6657600080fd5b613f7288828701613c1e565b8284015250506101608084015183811115613f8c57600080fd5b613f9888828701613d1e565b8284015250506101808084015183811115613fb257600080fd5b613fbe88828701613d1e565b8284015250506101a08084015183811115613fd857600080fd5b613fe488828701613bd9565b8284015250506101c08084015181830152506101e0614004818501613bce565b90820152610200838101518381111561401c57600080fd5b61402888828701613bd9565b828401525050610220808401518381111561404257600080fd5b61404e88828701613da8565b91830191909152506102409283015192810192909252509392505050565b634e487b7160e01b600052603260045260246000fd5b6000806040838503121561409557600080fd5b82516001600160401b038111156140ab57600080fd5b6140b785828601613bd9565b9250506020830151600f81106140cc57600080fd5b809150509250929050565b600081516140e981856020860161395a565b9290920192915050565b6000835161410581846020880161395a565b83519083019061411981836020880161395a565b01949350505050565b634e487b7160e01b600052601160045260246000fd5b600060001982141561414c5761414c614122565b5060010190565b60006020828403121561416557600080fd5b81516001600160401b0381111561417b57600080fd5b6126c384828501613bd9565b60008551614199818460208a0161395a565b8083019050602f60f81b80825286516141b9816001850160208b0161395a565b600192019182015284516141d481600284016020890161395a565b653f736565643d60d01b6002929091019182015283516141fb81600884016020880161395a565b016008019695505050505050565b600081600019048311821515161561422357614223614122565b500290565b6000825161423a81846020870161395a565b9190910192915050565b7519185d184e9d195e1d0bda1d1b5b0ed8985cd94d8d0b60521b81526000825161427581601685016020870161395a565b9190910160160192915050565b7216101130b734b6b0ba34b7b72fbab936111d1160691b815281516000906142b181601385016020870161395a565b601160f91b6013939091019283015250601401919050565b600083516142db81846020880161395a565b61202360f01b90830190815283516142fa81600284016020880161395a565b01600201949350505050565b600060ff821660ff84168060ff0382111561432357614323614122565b019392505050565b6000845161433d81846020890161395a565b740163d913a3930b4ba2fba3cb832911d10112634b11605d1b908301908152845161436f81601584016020890161395a565b6c111610113b30b63ab2911d101160991b60159290910191820152835161439d81602284016020880161395a565b61227d60f01b6022929091019182015260240195945050505050565b600060ff821660ff8114156143d0576143d0614122565b60010192915050565b7f2c2261747472696275746573223a205b7b2274726169745f74797065223a202281527f436f6c6c656374696f6e2041646472657373222c202276616c7565223a20220060208201526000865161443781603f850160208b0161395a565b61227d60f01b603f9184019182018190527f2c7b2274726169745f74797065223a202243726561746f72222c202276616c7560418301526432911d101160d91b6061830152875161448f816066850160208c0161395a565b60669201918201527f2c7b2274726169745f74797065223a202243726561746f72204164647265737360688201526c111610113b30b63ab2911d101160991b608882015261454e61454161453b6144f06145356144fe82609588018d6140d7565b61227d60f01b815260020190565b7f2c7b2274726169745f74797065223a20224c6963656e7365222c202276616c7581526432911d101160d91b602082015260250190565b896140d7565b866140d7565b605d60f81b815260010190565b98975050505050505050565b683d913730b6b2911d1160b91b8152855160009061457f816009850160208b0161395a565b601160f91b60099184019182018190526f16113232b9b1b934b83a34b7b7111d1160811b600a83015287516145bb81601a850160208c0161395a565b601a920191820181905269161134b6b0b3b2911d1160b11b601b83015286516145eb816025850160208b0161395a565b6025920191820152845161460681602684016020890161395a565b845191019061461c81602684016020880161395a565b614632602682840101607d60f81b815260010190565b9998505050505050505050565b7f646174613a6170706c69636174696f6e2f6a736f6e3b6261736536342c00000081526000825161467781601d85016020870161395a565b91909101601d0192915050565b60008282101561469657614696614122565b500390565b683d913730b6b2911d1160b91b815285516000906146c0816009850160208b0161395a565b711116113232b9b1b934b83a34b7b7111d101160711b60099184019182015286516146f281601b840160208b0161395a565b601160f91b601b92909101918201526b16101134b6b0b3b2911d101160a11b601c8201528551614729816028840160208a0161395a565b6d1331b0b83a3ab9329e9a9818181160911b60289290910191820152845161475881603684016020890161395a565b7016101130ba3a3934b13aba32b9911d101160791b6036929091019182015261454e6147a161478a60478401876140d7565b6a1331b0b83a3ab9329e981160a91b8152600b0190565b607d60f81b815260010190565b634e487b7160e01b600052601260045260246000fd5b6000826147d3576147d36147ae565b500690565b6000826147e7576147e76147ae565b500490565b600082198211156147ff576147ff614122565b500190565b6020808252602b908201527f496e697469616c697a61626c653a20636f6e7472616374206973206e6f74206960408201526a6e697469616c697a696e6760a81b606082015260800190565b60008161485e5761485e614122565b50600019019056fe4142434445464748494a4b4c4d4e4f505152535455565758595a6162636465666768696a6b6c6d6e6f707172737475767778797a303132333435363738392b2f000000000000000000000000000000000000000000000000000000000000000000000000000000000000003e0000003f3435363738393a3b3c3d00000000000000000102030405060708090a0b0c0d0e0f101112131415161718190000000000001a1b1c1d1e1f202122232425262728292a2b2c2d2e2f303132330000000000a264697066735822122088d7e9ad42af88d239e2261ab19e8aba9d4f57da5e89760fb7d988395d53cde264736f6c634300080c0033",
  "linkReferences": {},
  "deployedLinkReferences": {}
}