{
  "_format": "hh-sol-artifact-1",
  "contractName": "GenerativeProjectData",
  "sourceName": "contracts/data/GenerativeProjectData.sol",
  "abi": [
    {
      "anonymous": false,
      "inputs": [
        {
          "indexed": false,
          "internalType": "uint8",
          "name": "version",
          "type": "uint8"
        }
      ],
      "name": "Initialized",
      "type": "event"
    },
    {
      "anonymous": false,
      "inputs": [
        {
          "indexed": true,
          "internalType": "address",
          "name": "previousOwner",
          "type": "address"
        },
        {
          "indexed": true,
          "internalType": "address",
          "name": "newOwner",
          "type": "address"
        }
      ],
      "name": "OwnershipTransferred",
      "type": "event"
    },
    {
      "inputs": [],
      "name": "_admin",
      "outputs": [
        {
          "internalType": "address",
          "name": "",
          "type": "address"
        }
      ],
      "stateMutability": "view",
      "type": "function"
    },
    {
      "inputs": [],
      "name": "_generativeProjectAddr",
      "outputs": [
        {
          "internalType": "address",
          "name": "",
          "type": "address"
        }
      ],
      "stateMutability": "view",
      "type": "function"
    },
    {
      "inputs": [],
      "name": "_paramAddr",
      "outputs": [
        {
          "internalType": "address",
          "name": "",
          "type": "address"
        }
      ],
      "stateMutability": "view",
      "type": "function"
    },
    {
      "inputs": [
        {
          "internalType": "address",
          "name": "newAdm",
          "type": "address"
        }
      ],
      "name": "changeAdmin",
      "outputs": [],
      "stateMutability": "nonpayable",
      "type": "function"
    },
    {
      "inputs": [
        {
          "internalType": "address",
          "name": "newAddr",
          "type": "address"
        }
      ],
      "name": "changeParamAddress",
      "outputs": [],
      "stateMutability": "nonpayable",
      "type": "function"
    },
    {
      "inputs": [
        {
          "internalType": "address",
          "name": "newAddr",
          "type": "address"
        }
      ],
      "name": "changeProjectAddress",
      "outputs": [],
      "stateMutability": "nonpayable",
      "type": "function"
    },
    {
      "inputs": [
        {
          "internalType": "address",
          "name": "admin",
          "type": "address"
        },
        {
          "internalType": "address",
          "name": "paramAddr",
          "type": "address"
        },
        {
          "internalType": "address",
          "name": "generativeProjectAddr",
          "type": "address"
        }
      ],
      "name": "initialize",
      "outputs": [],
      "stateMutability": "nonpayable",
      "type": "function"
    },
    {
      "inputs": [],
      "name": "owner",
      "outputs": [
        {
          "internalType": "address",
          "name": "",
          "type": "address"
        }
      ],
      "stateMutability": "view",
      "type": "function"
    },
    {
      "inputs": [
        {
          "internalType": "uint256",
          "name": "projectId",
          "type": "uint256"
        }
      ],
      "name": "projectURI",
      "outputs": [
        {
          "internalType": "string",
          "name": "result",
          "type": "string"
        }
      ],
      "stateMutability": "view",
      "type": "function"
    },
    {
      "inputs": [],
      "name": "renounceOwnership",
      "outputs": [],
      "stateMutability": "nonpayable",
      "type": "function"
    },
    {
      "inputs": [
        {
          "internalType": "uint256",
          "name": "projectId",
          "type": "uint256"
        },
        {
          "internalType": "uint256",
          "name": "tokenId",
          "type": "uint256"
        },
        {
          "internalType": "bytes32",
          "name": "seed",
          "type": "bytes32"
        }
      ],
      "name": "tokenBaseURI",
      "outputs": [
        {
          "internalType": "string",
          "name": "result",
          "type": "string"
        }
      ],
      "stateMutability": "view",
      "type": "function"
    },
    {
      "inputs": [
        {
          "internalType": "uint256",
          "name": "projectId",
          "type": "uint256"
        },
        {
          "internalType": "uint256",
          "name": "tokenId",
          "type": "uint256"
        },
        {
          "internalType": "bytes32",
          "name": "seed",
          "type": "bytes32"
        }
      ],
      "name": "tokenHTML",
      "outputs": [
        {
          "internalType": "string",
          "name": "result",
          "type": "string"
        }
      ],
      "stateMutability": "view",
      "type": "function"
    },
    {
      "inputs": [
        {
          "internalType": "uint256",
          "name": "projectId",
          "type": "uint256"
        },
        {
          "internalType": "uint256",
          "name": "tokenId",
          "type": "uint256"
        },
        {
          "internalType": "bytes32",
          "name": "seed",
          "type": "bytes32"
        }
      ],
      "name": "tokenURI",
      "outputs": [
        {
          "internalType": "string",
          "name": "result",
          "type": "string"
        }
      ],
      "stateMutability": "view",
      "type": "function"
    },
    {
      "inputs": [
        {
          "internalType": "address",
          "name": "newOwner",
          "type": "address"
        }
      ],
      "name": "transferOwnership",
      "outputs": [],
      "stateMutability": "nonpayable",
      "type": "function"
    }
  ],
  "bytecode": "0x608060405234801561001057600080fd5b5061277e806100206000396000f3fe608060405234801561001057600080fd5b50600436106100ea5760003560e01c80638da5cb5b1161008c578063c0c53b8b11610066578063c0c53b8b146101cc578063e8082858146101df578063f2fde38b146101f2578063f4a290f71461020557600080fd5b80638da5cb5b146101955780638f283970146101a657806394139301146101b957600080fd5b806346eaa748116100c857806346eaa74814610154578063567fdcf314610167578063715018a61461017a57806379ebc6f01461018257600080fd5b806301bc45c9146100ef57806316a5041f1461011f57806331c7280c14610134575b600080fd5b606554610102906001600160a01b031681565b6040516001600160a01b0390911681526020015b60405180910390f35b61013261012d366004611645565b610218565b005b610147610142366004611662565b6102b2565b60405161011691906116ba565b610147610162366004611662565b6105b2565b606754610102906001600160a01b031681565b61013261071b565b6101476101903660046116ed565b61072f565b6033546001600160a01b0316610102565b6101326101b4366004611645565b61091c565b6101476101c7366004611662565b6109ae565b6101326101da366004611706565b610c34565b6101326101ed366004611645565b610d85565b610132610200366004611645565b610e17565b606654610102906001600160a01b031681565b6065546001600160a01b03163314801561023a57506001600160a01b03811615155b6040518060400160405280600381526020016231303160e81b8152509061027d5760405162461bcd60e51b815260040161027491906116ba565b60405180910390fd5b506066546001600160a01b038281169116146102af57606580546001600160a01b0319166001600160a01b0383161790555b50565b6067546040516346ec8d2b60e11b8152600481018590526060916001600160a01b0316906000908290638dd91a5690602401600060405180830381865afa158015610301573d6000803e3d6000fd5b505050506040513d6000823e601f3d908101601f1916820160405261032991908101906119f1565b60408051602081019091526000808252919250905b826101800151518110156103a15781836101800151828151811061036457610364611c1f565b602002602001015160405160200161037d929190611c51565b6040516020818303038152906040529150808061039990611c96565b91505061033e565b50600060405180602001604052806000815250905060006040518061040001604052806103dd815260200161236c6103dd91396066549091506001600160a01b031615610566576066546001600160a01b031660005b856101600151518110156104ca5783826001600160a01b031663693ec85e886101600151848151811061042c5761042c611c1f565b60200260200101516040518263ffffffff1660e01b815260040161045091906116ba565b600060405180830381865afa15801561046d573d6000803e3d6000fd5b505050506040513d6000823e601f3d908101601f191682016040526104959190810190611cb1565b6040516020016104a6929190611c51565b604051602081830303815290604052935080806104c290611c96565b9150506103f7565b5060408051808201825260128152711490539113d357d1955390d7d4d0d492541560721b6020820152905163349f642f60e11b81526001600160a01b0383169163693ec85e9161051d91906004016116ba565b600060405180830381865afa15801561053a573d6000803e3d6000fd5b505050506040513d6000823e601f3d908101601f191682016040526105629190810190611cb1565b9150505b8161057089610e8d565b61057989610f2a565b6101a08701516040516105959493929186918990602001611ce6565b604051602081830303815290604052955050505050509392505050565b6066546040805180820182526008815267424153455f55524960c01b6020820152905163349f642f60e11b81526060926001600160a01b031691600091839163693ec85e9161060491906004016116ba565b600060405180830381865afa158015610621573d6000803e3d6000fd5b505050506040513d6000823e601f3d908101601f191682016040526106499190810190611cb1565b6067546040516346ec8d2b60e11b8152600481018990529192506001600160a01b0316906000908290638dd91a5690602401600060405180830381865afa158015610698573d6000803e3d6000fd5b505050506040513d6000823e601f3d908101601f191682016040526106c091908101906119f1565b60675490915083906106da906001600160a01b0316610f76565b6106e389610e8d565b6106ec89610f2a565b6040516020016106ff9493929190611e99565b6040516020818303038152906040529450505050509392505050565b610723610f92565b61072d6000610fec565b565b6067546040516346ec8d2b60e11b8152600481018390526060916001600160a01b0316906000908290638dd91a5690602401600060405180830381865afa15801561077e573d6000803e3d6000fd5b505050506040513d6000823e601f3d908101601f191682016040526107a691908101906119f1565b905060006107b7620f424086611f1b565b90506000610890306001600160a01b03166331c7280c8885866040516020016107e291815260200190565b604051602081830303815290604052805190602001206040518463ffffffff1660e01b8152600401610827939291909283526020830191909152604082015260600190565b600060405180830381865afa158015610844573d6000803e3d6000fd5b505050506040513d6000823e601f3d908101601f1916820160405261086c9190810190611cb1565b60405160200161087c9190611f3a565b60405160208183030381529060405261103e565b6040516020016108a09190611f56565b60405160208183030381529060405290506108f283608001516108c288610e8d565b856101000151866101200151856108dd896101e00151610f76565b60405160200161087c96959493929190611fb8565b6040516020016109029190612107565b604051602081830303815290604052945050505050919050565b6065546001600160a01b03163314801561093e57506001600160a01b03811615155b6040518060400160405280600381526020016231303160e81b815250906109785760405162461bcd60e51b815260040161027491906116ba565b506065546001600160a01b038281169116146102af57606580546001600160a01b0383166001600160a01b031990911617905550565b60606109e26040518060a0016040528060608152602001606081526020016060815260200160608152602001606081525090565b606654604080518082018252600e81526d109054d157d5549257d51490525560921b6020820152905163349f642f60e11b81526001600160a01b0390921691829163693ec85e91610a3691906004016116ba565b600060405180830381865afa158015610a53573d6000803e3d6000fd5b505050506040513d6000823e601f3d908101601f19168201604052610a7b9190810190611cb1565b60408381019190915260675490516346ec8d2b60e11b8152600481018890526001600160a01b03909116906000908290638dd91a5690602401600060405180830381865afa158015610ad1573d6000803e3d6000fd5b505050506040513d6000823e601f3d908101601f19168201604052610af991908101906119f1565b604051630c71ca0360e21b8152600481018a90526024810189905260448101889052909150610b329030906331c7280c90606401610827565b604051602001610b429190611f56565b60408051601f1981840301815291905260608501526080810151610b6588610e8d565b604051602001610b7692919061214c565b60408051601f19818403018152919052845261010081015160208501526102008101515115610bab5761020081015160208501525b6040840151606754610bc5906001600160a01b0316610f76565b610bce89610e8d565b610bd789610f2a565b604051602001610bea9493929190611e99565b60408051601f19818403018152918152858101829052855160208781015160608901519351610c249561087c959293909291839101612189565b6040516020016106ff9190612107565b600054610100900460ff1615808015610c545750600054600160ff909116105b80610c6e5750303b158015610c6e575060005460ff166001145b610cd15760405162461bcd60e51b815260206004820152602e60248201527f496e697469616c697a61626c653a20636f6e747261637420697320616c72656160448201526d191e481a5b9a5d1a585b1a5e995960921b6064820152608401610274565b6000805460ff191660011790558015610cf4576000805461ff0019166101001790555b606580546001600160a01b038087166001600160a01b031992831617909255606680548684169083161790556067805492851692909116919091179055610d396111a4565b8015610d7f576000805461ff0019169055604051600181527f7f26b83ff96e1f2b6a682f133852f6798a09c465da95921460cefb38474024989060200160405180910390a15b50505050565b6065546001600160a01b031633148015610da757506001600160a01b03811615155b6040518060400160405280600381526020016231303160e81b81525090610de15760405162461bcd60e51b815260040161027491906116ba565b506067546001600160a01b038281169116146102af57606780546001600160a01b0383166001600160a01b031990911617905550565b610e1f610f92565b6001600160a01b038116610e845760405162461bcd60e51b815260206004820152602660248201527f4f776e61626c653a206e6577206f776e657220697320746865207a65726f206160448201526564647265737360d01b6064820152608401610274565b6102af81610fec565b60606000610e9a836111d3565b600101905060008167ffffffffffffffff811115610eba57610eba611751565b6040519080825280601f01601f191660200182016040528015610ee4576020820181803683370190505b5090508181016020015b600019016f181899199a1a9b1b9c1cb0b131b232b360811b600a86061a8153600a8504945084610f1d57610f22565b610eee565b509392505050565b6060610f35826112ab565b610f42608084901b6112ab565b60405161060f60f31b6020820152602281019290925260428201526062016040516020818303038152906040529050919050565b6060610f8c6001600160a01b038316601461145d565b92915050565b6033546001600160a01b0316331461072d5760405162461bcd60e51b815260206004820181905260248201527f4f776e61626c653a2063616c6c6572206973206e6f7420746865206f776e65726044820152606401610274565b603380546001600160a01b038381166001600160a01b0319831681179093556040519116919082907f8be0079c531659141344cd1fd0a4f28419497f9722a3daafe3b4186f6b6457e090600090a35050565b80516060908061105e575050604080516020810190915260008152919050565b6000600361106d83600261228f565b61107791906122a7565b611082906004611f1b565b9050600061109182602061228f565b67ffffffffffffffff8111156110a9576110a9611751565b6040519080825280601f01601f1916602001820160405280156110d3576020820181803683370190505b509050600060405180606001604052806040815260200161232c604091399050600181016020830160005b8681101561115f576003818a01810151603f601282901c8116860151600c83901c8216870151600684901c831688015192909316870151600891821b60ff94851601821b92841692909201901b91160160e01b8352600490920191016110fe565b506003860660018114611179576002811461118a57611196565b613d3d60f01b600119830152611196565b603d60f81b6000198301525b505050918152949350505050565b600054610100900460ff166111cb5760405162461bcd60e51b8152600401610274906122c9565b61072d611600565b60008072184f03e93ff9f4daa797ed6e38ed64bf6a1f0160401b83106112125772184f03e93ff9f4daa797ed6e38ed64bf6a1f0160401b830492506040015b6d04ee2d6d415b85acef8100000000831061123e576d04ee2d6d415b85acef8100000000830492506020015b662386f26fc10000831061125c57662386f26fc10000830492506010015b6305f5e1008310611274576305f5e100830492506008015b612710831061128857612710830492506004015b6064831061129a576064830492506002015b600a8310610f8c5760010192915050565b7aff00000000000000ff00000000000000ff00000000000000ff00006bffffffff0000000000000000604083901c90811663ffffffff60c01b84161760201c63ffffffff60601b919091166001600160e01b031984161717601081901c9182167eff00000000000000ff00000000000000ff00000000000000ff000000000000821617600890811c7bff00000000000000ff00000000000000ff00000000000000ff000000939093167fff00000000000000ff00000000000000ff00000000000000ff000000000000009290921691909117919091179081901c7e0f000f000f000f000f000f000f000f000f000f000f000f000f000f000f000f167f0f000f000f000f000f000f000f000f000f000f000f000f000f000f000f000f00600492831c1617906113f9827f060606060606060606060606060606060606060606060606060606060606060661228f565b901c7f0f0f0f0f0f0f0f0f0f0f0f0f0f0f0f0f0f0f0f0f0f0f0f0f0f0f0f0f0f0f0f0f1660076114299190611f1b565b611453827f303030303030303030303030303030303030303030303030303030303030303061228f565b610f8c919061228f565b6060600061146c836002611f1b565b61147790600261228f565b67ffffffffffffffff81111561148f5761148f611751565b6040519080825280601f01601f1916602001820160405280156114b9576020820181803683370190505b509050600360fc1b816000815181106114d4576114d4611c1f565b60200101906001600160f81b031916908160001a905350600f60fb1b8160018151811061150357611503611c1f565b60200101906001600160f81b031916908160001a9053506000611527846002611f1b565b61153290600161228f565b90505b60018111156115aa576f181899199a1a9b1b9c1cb0b131b232b360811b85600f166010811061156657611566611c1f565b1a60f81b82828151811061157c5761157c611c1f565b60200101906001600160f81b031916908160001a90535060049490941c936115a381612314565b9050611535565b5083156115f95760405162461bcd60e51b815260206004820181905260248201527f537472696e67733a20686578206c656e67746820696e73756666696369656e746044820152606401610274565b9392505050565b600054610100900460ff166116275760405162461bcd60e51b8152600401610274906122c9565b61072d33610fec565b6001600160a01b03811681146102af57600080fd5b60006020828403121561165757600080fd5b81356115f981611630565b60008060006060848603121561167757600080fd5b505081359360208301359350604090920135919050565b60005b838110156116a9578181015183820152602001611691565b83811115610d7f5750506000910152565b60208152600082518060208401526116d981604085016020870161168e565b601f01601f19169190910160400192915050565b6000602082840312156116ff57600080fd5b5035919050565b60008060006060848603121561171b57600080fd5b833561172681611630565b9250602084013561173681611630565b9150604084013561174681611630565b809150509250925092565b634e487b7160e01b600052604160045260246000fd5b60405160a0810167ffffffffffffffff8111828210171561178a5761178a611751565b60405290565b604051610220810167ffffffffffffffff8111828210171561178a5761178a611751565b604051601f8201601f1916810167ffffffffffffffff811182821017156117dd576117dd611751565b604052919050565b805162ffffff811681146117f857600080fd5b919050565b80516117f881611630565b600082601f83011261181957600080fd5b815167ffffffffffffffff81111561183357611833611751565b611846601f8201601f19166020016117b4565b81815284602083860101111561185b57600080fd5b61186c82602083016020870161168e565b949350505050565b600060a0828403121561188657600080fd5b61188e611767565b9050815167ffffffffffffffff808211156118a857600080fd5b6118b485838601611808565b835260208401519150808211156118ca57600080fd5b6118d685838601611808565b602084015260408401519150808211156118ef57600080fd5b6118fb85838601611808565b6040840152606084015191508082111561191457600080fd5b61192085838601611808565b6060840152608084015191508082111561193957600080fd5b5061194684828501611808565b60808301525092915050565b600082601f83011261196357600080fd5b8151602067ffffffffffffffff8083111561198057611980611751565b8260051b61198f8382016117b4565b93845285810183019383810190888611156119a957600080fd5b84880192505b858310156119e5578251848111156119c75760008081fd5b6119d58a87838c0101611808565b83525091840191908401906119af565b98975050505050505050565b600060208284031215611a0357600080fd5b815167ffffffffffffffff80821115611a1b57600080fd5b908301906102208286031215611a3057600080fd5b611a38611790565b611a41836117e5565b8152611a4f602084016117e5565b602082015260408301516040820152611a6a606084016117fd565b6060820152608083015182811115611a8157600080fd5b611a8d87828601611808565b60808301525060a083015182811115611aa557600080fd5b611ab187828601611808565b60a083015250611ac360c084016117fd565b60c082015260e083015182811115611ada57600080fd5b611ae687828601611808565b60e0830152506101008084015183811115611b0057600080fd5b611b0c88828701611808565b8284015250506101208084015183811115611b2657600080fd5b611b3288828701611808565b8284015250506101408084015183811115611b4c57600080fd5b611b5888828701611874565b8284015250506101608084015183811115611b7257600080fd5b611b7e88828701611952565b8284015250506101808084015183811115611b9857600080fd5b611ba488828701611952565b8284015250506101a08084015183811115611bbe57600080fd5b611bca88828701611808565b8284015250506101c08084015181830152506101e0611bea8185016117fd565b908201526102008381015183811115611c0257600080fd5b611c0e88828701611808565b918301919091525095945050505050565b634e487b7160e01b600052603260045260246000fd5b60008151611c4781856020860161168e565b9290920192915050565b60008351611c6381846020880161168e565b835190830190611c7781836020880161168e565b01949350505050565b634e487b7160e01b600052601160045260246000fd5b6000600019821415611caa57611caa611c80565b5060010190565b600060208284031215611cc357600080fd5b815167ffffffffffffffff811115611cda57600080fd5b61186c84828501611808565b651e343a36b61f60d11b81527f3c686561643e3c6d65746120636861727365743d275554462d38273e00000000600682015260008751611d2d816022850160208c0161168e565b7f3c73637269707420747970653d22746578742f6a6176617363726970742220696022918401918201527f643d22736e69707065742d636f6e74726163742d636f6465223e6c657420746f60428201527435b2b72230ba30901e903d913a37b5b2b724b2111d60591b60628201528751611dae816077840160208c0161168e565b6a16101139b2b2b2111d101160a91b607792909101918201528651611dda816082840160208b0161168e565b611e8b611e78611e65611e5f611e46611e32611e2c611e19611e1360828a8c01016b113e9d9e17b9b1b934b83a1f60a11b8152600c0190565b8f611c35565b661e39ba3cb6329f60c91b815260070190565b8c611c35565b671e17b9ba3cb6329f60c11b815260080190565b6c1e17b432b0b21f1e3137b23c9f60991b8152600d0190565b88611c35565b661e17b137b23c9f60c91b815260070190565b661e17b43a36b61f60c91b815260070190565b9a9950505050505050505050565b60008551611eab818460208a0161168e565b8083019050602f60f81b8082528651611ecb816001850160208b0161168e565b60019201918201528451611ee681600284016020890161168e565b653f736565643d60d01b600292909101918201528351611f0d81600884016020880161168e565b016008019695505050505050565b6000816000190483118215151615611f3557611f35611c80565b500290565b60008251611f4c81846020870161168e565b9190910192915050565b7f2c2022616e696d6174696f6e5f75726c223a22646174613a746578742f68746d8152681b0ed8985cd94d8d0b60ba1b602082015260008251611fa081602985016020870161168e565b601160f91b6029939091019283015250602a01919050565b683d913730b6b2911d1160b91b81528651600090611fdd816009850160208c0161168e565b61202360f01b6009918401918201528751611fff81600b840160208c0161168e565b601160f91b600b929091019182018190526f16113232b9b1b934b83a34b7b7111d1160811b600c830152875161203c81601c850160208c0161168e565b601c92019182015269161134b6b0b3b2911d1160b11b601d8201526120fa6120ed6120de6120d8612089612083612076602788018d611c35565b601160f91b815260010190565b8a611c35565b7f2c2261747472696275746573223a205b7b2274726169745f74797065223a202281527f436f6c6c656374696f6e2041646472657373222c202276616c7565223a2022006020820152603f0190565b87611c35565b62227d5d60e81b815260030190565b607d60f81b815260010190565b9998505050505050505050565b7f646174613a6170706c69636174696f6e2f6a736f6e3b6261736536342c00000081526000825161213f81601d85016020870161168e565b91909101601d0192915050565b6000835161215e81846020880161168e565b61202360f01b908301908152835161217d81600284016020880161168e565b01600201949350505050565b683d913730b6b2911d1160b91b815285516000906121ae816009850160208b0161168e565b711116113232b9b1b934b83a34b7b7111d101160711b60099184019182015286516121e081601b840160208b0161168e565b601160f91b601b92909101918201526b16101134b6b0b3b2911d101160a11b601c8201528551612217816028840160208a0161168e565b6d1331b0b83a3ab9329e9a9818181160911b60289290910191820152845161224681603684016020890161168e565b7016101130ba3a3934b13aba32b9911d101160791b603692909101918201526119e56120ed6122786047840187611c35565b6a1331b0b83a3ab9329e981160a91b8152600b0190565b600082198211156122a2576122a2611c80565b500190565b6000826122c457634e487b7160e01b600052601260045260246000fd5b500490565b6020808252602b908201527f496e697469616c697a61626c653a20636f6e7472616374206973206e6f74206960408201526a6e697469616c697a696e6760a81b606082015260800190565b60008161232357612323611c80565b50600019019056fe4142434445464748494a4b4c4d4e4f505152535455565758595a6162636465666768696a6b6c6d6e6f707172737475767778797a303132333435363738392b2f3c7363726970742069643d22736e69707065742d72616e646f6d2d636f64652220747970653d22746578742f6a617661736372697074223e636f6e73742075726c536565643d6e65772055524c536561726368506172616d732877696e646f772e6c6f636174696f6e2e736561726368292e67657428227365656422293b75726c53656564262675726c536565642e6c656e6774683e30262628746f6b656e446174612e736565643d75726c53656564293b636f6e737420746f6b656e49643d746f6b656e446174612e746f6b656e49642c4f4e455f4d494c3d3165362c70726f6a6563744e756d6265723d4d6174682e666c6f6f72287061727365496e7428746f6b656e446174612e746f6b656e4964292f316536292c746f6b656e4d696e744e756d6265723d7061727365496e7428746f6b656e446174612e746f6b656e496429253165362c736565643d746f6b656e446174612e736565643b66756e6374696f6e20637972623132382824297b6c6574205f3d313737393033333730332c653d333134343133343237372c743d313031333930343234322c6e3d323737333438303736323b666f72286c657420723d302c753b723c242e6c656e6774683b722b2b295f3d655e4d6174682e696d756c285f5e28753d242e63686172436f64654174287229292c353937333939303637292c653d745e4d6174682e696d756c28655e752c32383639383630323333292c743d6e5e4d6174682e696d756c28745e752c393531323734323133292c6e3d5f5e4d6174682e696d756c286e5e752c32373136303434313739293b72657475726e205f3d4d6174682e696d756c28745e5f3e3e3e31382c353937333939303637292c653d4d6174682e696d756c286e5e653e3e3e32322c32383639383630323333292c743d4d6174682e696d756c285f5e743e3e3e31372c393531323734323133292c6e3d4d6174682e696d756c28655e6e3e3e3e31392c32373136303434313739292c5b285f5e655e745e6e293e3e3e302c28655e5f293e3e3e302c28745e5f293e3e3e302c286e5e5f293e3e3e305d7d66756e6374696f6e20736663333228242c5f2c652c74297b72657475726e2066756e6374696f6e28297b653e3e3e3d302c743e3e3e3d303b766172206e3d28243e3e3e3d30292b285f3e3e3e3d30297c303b72657475726e20243d5f5e5f3e3e3e392c5f3d652b28653c3c33297c302c653d28653d653c3c32317c653e3e3e3131292b286e3d6e2b28743d742b317c30297c30297c302c286e3e3e3e30292f343239343936373239367d7d6c6574206d61746852616e643d7366633332282e2e2e63797262313238287365656429293b3c2f7363726970743ea2646970667358221220140bd821be9444bb8a9e415b2715bdfdec67bf47d12f1576e32d694d272a961b64736f6c634300080c0033",
  "linkReferences": {},
  "deployedLinkReferences": {}
}