{
  "_format": "hh-sol-artifact-1",
  "contractName": "GenerativeProjectData",
  "sourceName": "contracts/data/GenerativeProjectData.sol",
  "abi": [
    {
      "anonymous": false,
      "inputs": [
        {
          "indexed": false,
          "internalType": "uint8",
          "name": "version",
          "type": "uint8"
        }
      ],
      "name": "Initialized",
      "type": "event"
    },
    {
      "anonymous": false,
      "inputs": [
        {
          "indexed": true,
          "internalType": "address",
          "name": "previousOwner",
          "type": "address"
        },
        {
          "indexed": true,
          "internalType": "address",
          "name": "newOwner",
          "type": "address"
        }
      ],
      "name": "OwnershipTransferred",
      "type": "event"
    },
    {
      "inputs": [],
      "name": "_admin",
      "outputs": [
        {
          "internalType": "address",
          "name": "",
          "type": "address"
        }
      ],
      "stateMutability": "view",
      "type": "function"
    },
    {
      "inputs": [],
      "name": "_bfs",
      "outputs": [
        {
          "internalType": "address",
          "name": "",
          "type": "address"
        }
      ],
      "stateMutability": "view",
      "type": "function"
    },
    {
      "inputs": [],
      "name": "_generativeProjectAddr",
      "outputs": [
        {
          "internalType": "address",
          "name": "",
          "type": "address"
        }
      ],
      "stateMutability": "view",
      "type": "function"
    },
    {
      "inputs": [],
      "name": "_paramAddr",
      "outputs": [
        {
          "internalType": "address",
          "name": "",
          "type": "address"
        }
      ],
      "stateMutability": "view",
      "type": "function"
    },
    {
      "inputs": [
        {
          "internalType": "address",
          "name": "newAdm",
          "type": "address"
        }
      ],
      "name": "changeAdmin",
      "outputs": [],
      "stateMutability": "nonpayable",
      "type": "function"
    },
    {
      "inputs": [
        {
          "internalType": "address",
          "name": "newAddr",
          "type": "address"
        }
      ],
      "name": "changeBfs",
      "outputs": [],
      "stateMutability": "nonpayable",
      "type": "function"
    },
    {
      "inputs": [
        {
          "internalType": "address",
          "name": "newAddr",
          "type": "address"
        }
      ],
      "name": "changeParamAddress",
      "outputs": [],
      "stateMutability": "nonpayable",
      "type": "function"
    },
    {
      "inputs": [
        {
          "internalType": "address",
          "name": "newAddr",
          "type": "address"
        }
      ],
      "name": "changeProjectAddress",
      "outputs": [],
      "stateMutability": "nonpayable",
      "type": "function"
    },
    {
      "inputs": [],
      "name": "getChainID",
      "outputs": [
        {
          "internalType": "uint256",
          "name": "",
          "type": "uint256"
        }
      ],
      "stateMutability": "view",
      "type": "function"
    },
    {
      "inputs": [
        {
          "internalType": "string",
          "name": "script",
          "type": "string"
        }
      ],
      "name": "inflateScript",
      "outputs": [
        {
          "internalType": "string",
          "name": "result",
          "type": "string"
        },
        {
          "internalType": "enum Inflate.ErrorCode",
          "name": "err",
          "type": "uint8"
        }
      ],
      "stateMutability": "view",
      "type": "function"
    },
    {
      "inputs": [
        {
          "internalType": "string",
          "name": "data",
          "type": "string"
        }
      ],
      "name": "inflateString",
      "outputs": [
        {
          "internalType": "string",
          "name": "result",
          "type": "string"
        },
        {
          "internalType": "enum Inflate.ErrorCode",
          "name": "err",
          "type": "uint8"
        }
      ],
      "stateMutability": "view",
      "type": "function"
    },
    {
      "inputs": [
        {
          "internalType": "address",
          "name": "admin",
          "type": "address"
        },
        {
          "internalType": "address",
          "name": "paramAddr",
          "type": "address"
        },
        {
          "internalType": "address",
          "name": "generativeProjectAddr",
          "type": "address"
        }
      ],
      "name": "initialize",
      "outputs": [],
      "stateMutability": "nonpayable",
      "type": "function"
    },
    {
      "inputs": [
        {
          "internalType": "string",
          "name": "fileName",
          "type": "string"
        }
      ],
      "name": "libScript",
      "outputs": [
        {
          "internalType": "string",
          "name": "result",
          "type": "string"
        }
      ],
      "stateMutability": "view",
      "type": "function"
    },
    {
      "inputs": [],
      "name": "owner",
      "outputs": [
        {
          "internalType": "address",
          "name": "",
          "type": "address"
        }
      ],
      "stateMutability": "view",
      "type": "function"
    },
    {
      "inputs": [
        {
          "internalType": "uint256",
          "name": "projectId",
          "type": "uint256"
        }
      ],
      "name": "projectURI",
      "outputs": [
        {
          "internalType": "string",
          "name": "result",
          "type": "string"
        }
      ],
      "stateMutability": "view",
      "type": "function"
    },
    {
      "inputs": [],
      "name": "randomFuncScript",
      "outputs": [
        {
          "internalType": "string",
          "name": "",
          "type": "string"
        }
      ],
      "stateMutability": "view",
      "type": "function"
    },
    {
      "inputs": [],
      "name": "renounceOwnership",
      "outputs": [],
      "stateMutability": "nonpayable",
      "type": "function"
    },
    {
      "inputs": [
        {
          "internalType": "uint256",
          "name": "projectId",
          "type": "uint256"
        },
        {
          "internalType": "uint256",
          "name": "tokenId",
          "type": "uint256"
        },
        {
          "internalType": "bytes32",
          "name": "seed",
          "type": "bytes32"
        }
      ],
      "name": "tokenHTML",
      "outputs": [
        {
          "internalType": "string",
          "name": "result",
          "type": "string"
        }
      ],
      "stateMutability": "view",
      "type": "function"
    },
    {
      "inputs": [
        {
          "internalType": "uint256",
          "name": "projectId",
          "type": "uint256"
        },
        {
          "internalType": "uint256",
          "name": "tokenId",
          "type": "uint256"
        },
        {
          "internalType": "bytes32",
          "name": "seed",
          "type": "bytes32"
        }
      ],
      "name": "tokenURI",
      "outputs": [
        {
          "internalType": "string",
          "name": "result",
          "type": "string"
        }
      ],
      "stateMutability": "view",
      "type": "function"
    },
    {
      "inputs": [
        {
          "internalType": "address",
          "name": "newOwner",
          "type": "address"
        }
      ],
      "name": "transferOwnership",
      "outputs": [],
      "stateMutability": "nonpayable",
      "type": "function"
    },
    {
      "inputs": [
        {
          "internalType": "bytes32",
          "name": "seed",
          "type": "bytes32"
        },
        {
          "internalType": "uint256",
          "name": "tokenId",
          "type": "uint256"
        }
      ],
      "name": "variableScript",
      "outputs": [
        {
          "internalType": "string",
          "name": "result",
          "type": "string"
        }
      ],
      "stateMutability": "view",
      "type": "function"
    }
  ],
  "bytecode": "0x608060405234801561001057600080fd5b5061587a806100206000396000f3fe608060405234801561001057600080fd5b50600436106101375760003560e01c8063715018a6116100b8578063941393011161007c5780639413930114610276578063a2546df414610289578063c0c53b8b1461029c578063e8082858146102af578063f2fde38b146102c2578063f4a290f7146102d557600080fd5b8063715018a61461022457806379ebc6f01461022c5780637af34af21461023f5780638da5cb5b146102525780638f2839701461026357600080fd5b806332e32326116100ff57806332e32326146101bc57806333348979146101cf578063564b81ef146101e2578063567fdcf3146101f05780636e973cf21461020357600080fd5b806301bc45c91461013c57806316a5041f1461016c5780632b333cd8146101815780632b7d13de1461019657806331c7280c146101a9575b600080fd5b60655461014f906001600160a01b031681565b6040516001600160a01b0390911681526020015b60405180910390f35b61017f61017a366004614000565b6102e8565b005b610189610382565b6040516101639190614075565b61017f6101a4366004614000565b610452565b6101896101b7366004614088565b6104e4565b6101896101ca3660046140b4565b6108a2565b60685461014f906001600160a01b031681565b604051468152602001610163565b60675461014f906001600160a01b031681565b61021661021136600461418e565b61093f565b604051610163929190614223565b61017f61095d565b61018961023a366004614263565b610971565b61021661024d36600461418e565b610d83565b6033546001600160a01b031661014f565b61017f610271366004614000565b610da2565b610189610284366004614088565b610e34565b61018961029736600461418e565b6112d5565b61017f6102aa36600461427c565b611345565b61017f6102bd366004614000565b611496565b61017f6102d0366004614000565b611528565b60665461014f906001600160a01b031681565b6065546001600160a01b03163314801561030a57506001600160a01b03811615155b6040518060400160405280600381526020016231303160e81b8152509061034d5760405162461bcd60e51b81526004016103449190614075565b60405180910390fd5b506066546001600160a01b0382811691161461037f57606680546001600160a01b0319166001600160a01b0383161790555b50565b60665460408051808201825260128152711490539113d357d1955390d7d4d0d492541560721b6020820152905163349f642f60e11b81526060926000926001600160a01b039091169163693ec85e916103dd91600401614075565b600060405180830381865afa1580156103fa573d6000803e3d6000fd5b505050506040513d6000823e601f3d908101601f191682016040526104229190810190614317565b905080516000141561044d576040518061042001604052806103e581526020016153696103e5913990505b919050565b6065546001600160a01b03163314801561047457506001600160a01b03811615155b6040518060400160405280600381526020016231303160e81b815250906104ae5760405162461bcd60e51b81526004016103449190614075565b506068546001600160a01b0382811691161461037f57606880546001600160a01b0383166001600160a01b031990911617905550565b6067546040516346ec8d2b60e11b8152600481018590526060916001600160a01b0316906000908290638dd91a5690602401600060405180830381865afa158015610533573d6000803e3d6000fd5b505050506040513d6000823e601f3d908101601f1916820160405261055b9190810190614557565b905080610180015151600114156106d2576000604051806020016040528060008152509050606060008084610180015160008151811061059d5761059d6147b7565b60200260200101515111156106c757306001600160a01b0316636e973cf28561018001516000815181106105d3576105d36147b7565b60200260200101516040518263ffffffff1660e01b81526004016105f79190614075565b600060405180830381865afa158015610614573d6000803e3d6000fd5b505050506040513d6000823e601f3d908101601f1916820160405261063c91908101906147cd565b9092509050600081600e8111156106555761065561420d565b146106a25782846101800151600081518110610673576106736147b7565b602002602001015160405160200161068c92919061483e565b60405160208183030381529060405292506106c7565b82826040516020016106b592919061483e565b60405160208183030381529060405292505b829550505050610899565b6040805160208101909152600080825260609060015b84610180015151811015610849576000856101800151828151811061070f5761070f6147b7565b602002602001015151111561083757306001600160a01b0316636e973cf28661018001518381518110610744576107446147b7565b60200260200101516040518263ffffffff1660e01b81526004016107689190614075565b600060405180830381865afa158015610785573d6000803e3d6000fd5b505050506040513d6000823e601f3d908101601f191682016040526107ad91908101906147cd565b9093509150600082600e8111156107c6576107c661420d565b14610812578385610180015182815181106107e3576107e36147b7565b60200260200101516040516020016107fc92919061486d565b6040516020818303038152906040529350610837565b838360405160200161082592919061486d565b60405160208183030381529060405293505b80610841816148dc565b9150506106e8565b5061085884610160015161159e565b610862888a6108a2565b61086a610382565b866101a00151866040516020016108859594939291906148f7565b60408051601f198184030190525250909350505b50509392505050565b60606040518060600160405280603a815260200161532f603a91399050806108c98461161c565b6040516020016108da929190614a11565b6040516020818303038152906040529050806108f583611657565b604051602001610906929190614a65565b6040516020818303038152906040529050806040516020016109289190614abc565b604051602081830303815290604052905092915050565b6060600061095461094f846116f3565b611861565b91509150915091565b6109656119b7565b61096f6000611a11565b565b60606109cd6040518061010001604052806060815260200160006001600160a01b031681526020016060815260200160608152602001606081526020016060815260200160006001600160a01b03168152602001606081525090565b6067546040516346ec8d2b60e11b8152600481018590526001600160a01b03909116906000908290638dd91a5690602401600060405180830381865afa158015610a1b573d6000803e3d6000fd5b505050506040513d6000823e601f3d908101601f19168201604052610a439190810190614557565b90506000610a54620f424087614ae9565b90506000306001600160a01b03166331c7280c888485604051602001610a7c91815260200190565b604051602081830303815290604052805190602001206040518463ffffffff1660e01b8152600401610ac1939291909283526020830191909152604082015260600190565b600060405180830381865afa158015610ade573d6000803e3d6000fd5b505050506040513d6000823e601f3d908101601f19168201604052610b069190810190614317565b805190915015610b5a57610b3881604051602001610b249190614b08565b604051602081830303815290604052611a63565b604051602001610b489190614b24565b60405160208183030381529060405290505b600081604051602001610b6d9190614b62565b60405160208183030381529060405290508360800151610b8c89611657565b604051602001610b9d929190614ba9565b60408051601f1981840301815291815287015261010084015160808701819052606090600090610bcc9061093f565b9092509050600081600e811115610be557610be561420d565b1415610bf357608088018290525b610120860151606089015260a08089018490526101e08701516001600160a01b0390811660c0808c0191909152880151166020808b019190915290870151895260408051918201905260008082525b876101600151518160ff161015610cc25781610c6a610c62836001614be6565b60ff16611657565b8961016001518360ff1681518110610c8457610c846147b7565b6020026020010151604051602001610c9e93929190614c0b565b60405160208183030381529060405291508080610cba90614c99565b915050610c42565b50610cd08960c00151611bc8565b895160208b0151610ce090611bc8565b8960e0015184604051602001610cfa959493929190614cb9565b6040516020818303038152906040528960e00181905250610d548960400151610d318b60800151604051602001610b249190614b08565b8b606001518c60a001518d60e00151604051602001610b24959493929190614e3a565b604051602001610d649190614f12565b6040516020818303038152906040529950505050505050505050919050565b606060006109546102116009808651610d9c9190614f57565b86611be4565b6065546001600160a01b031633148015610dc457506001600160a01b03811615155b6040518060400160405280600381526020016231303160e81b81525090610dfe5760405162461bcd60e51b81526004016103449190614075565b506065546001600160a01b0382811691161461037f57606580546001600160a01b0383166001600160a01b031990911617905550565b6066546067546040516346ec8d2b60e11b8152600481018690526060926001600160a01b039081169216906000908290638dd91a5690602401600060405180830381865afa158015610e8a573d6000803e3d6000fd5b505050506040513d6000823e601f3d908101601f19168201604052610eb29190810190614557565b604051630c71ca0360e21b815260048101899052602481018890526044810187905290915060009030906331c7280c90606401600060405180830381865afa158015610f02573d6000803e3d6000fd5b505050506040513d6000823e601f3d908101601f19168201604052610f2a9190810190614317565b80519091501561119557610f4881604051602001610b249190614b08565b604051602001610f589190614b24565b60408051601f1981840301815260a0830182526060808452602084018190529183018290528183018290526080830191909152915081604051602001610f9e9190614b62565b60408051601f19818403018152918152606083019190915280518082018252600e81526d109054d157d5549257d51490525560921b6020820152905163349f642f60e11b81526001600160a01b0387169163693ec85e916110029190600401614075565b600060405180830381865afa15801561101f573d6000803e3d6000fd5b505050506040513d6000823e601f3d908101601f191682016040526110479190810190614317565b6040820152608083015161105a89611657565b60405160200161106b929190614ba9565b60408051601f198184030181529190528152610100830151602082015261020083015151156110a05761020083015160208201525b606060006110b1836020015161093f565b9092509050600081600e8111156110ca576110ca61420d565b14156110d857602083018290525b60408301516067546110f2906001600160a01b0316611bc8565b6110fb8c611657565b6111048c61161c565b6040516020016111179493929190614f6e565b604051602081830303815290604052836040018190525061116c836000015161114e8560200151604051602001610b249190614b08565b60408087015160608801519151610b24949392908290602001614ff0565b60405160200161117c9190614f12565b60405160208183030381529060405297505050506112ca565b6111ff306001600160a01b031663564b81ef6040518163ffffffff1660e01b8152600401602060405180830381865afa1580156111d6573d6000803e3d6000fd5b505050506040513d601f19601f820116820180604052508101906111fa9190615104565b611657565b604080518082018252600b81526a4246535f4144445245535360a81b6020820152905163bf40fac160e01b8152611293916001600160a01b0388169163bf40fac19161124d91600401614075565b602060405180830381865afa15801561126a573d6000803e3d6000fd5b505050506040513d601f19601f8201168201806040525081019061128e919061511d565b611bc8565b61129c33611bc8565b6112a58961161c565b6040516020016112b8949392919061513a565b60405160208183030381529060405294505b505050509392505050565b606060405180606001604052806037815260200161578e603791399050806112fc83611ccc565b60405160200161130d92919061483e565b60405160208183030381529060405290508060405160200161132f9190614abc565b6040516020818303038152906040529050919050565b600054610100900460ff16158080156113655750600054600160ff909116105b8061137f5750303b15801561137f575060005460ff166001145b6113e25760405162461bcd60e51b815260206004820152602e60248201527f496e697469616c697a61626c653a20636f6e747261637420697320616c72656160448201526d191e481a5b9a5d1a585b1a5e995960921b6064820152608401610344565b6000805460ff191660011790558015611405576000805461ff0019166101001790555b606580546001600160a01b038087166001600160a01b03199283161790925560668054868416908316179055606780549285169290911691909117905561144a611ec0565b8015611490576000805461ff0019169055604051600181527f7f26b83ff96e1f2b6a682f133852f6798a09c465da95921460cefb38474024989060200160405180910390a15b50505050565b6065546001600160a01b0316331480156114b857506001600160a01b03811615155b6040518060400160405280600381526020016231303160e81b815250906114f25760405162461bcd60e51b81526004016103449190614075565b506067546001600160a01b0382811691161461037f57606780546001600160a01b0383166001600160a01b031990911617905550565b6115306119b7565b6001600160a01b0381166115955760405162461bcd60e51b815260206004820152602660248201527f4f776e61626c653a206e6577206f776e657220697320746865207a65726f206160448201526564647265737360d01b6064820152608401610344565b61037f81611a11565b604080516020810190915260008082525b82518110156116165760006115dc8483815181106115cf576115cf6147b7565b60200260200101516112d5565b905082816040516020016115f192919061483e565b604051602081830303815290604052925050808061160e906148dc565b9150506115af565b50919050565b606061162782611eef565b611634608084901b611eef565b60405161060f60f31b60208201526022810192909252604282015260620161132f565b60606000611664836120a1565b60010190506000816001600160401b03811115611683576116836140d6565b6040519080825280601f01601f1916602001820160405280156116ad576020820181803683370190505b5090508181016020015b600019016f181899199a1a9b1b9c1cb0b131b232b360811b600a86061a8153600a85049450846116e6576116eb565b6116b7565b509392505050565b80516060908290158061171257506004815161170f91906151da565b15155b1561172d5760408051600080825260208201909252906116eb565b60006040518060a00160405280608081526020016157c560809139905060006004835161175a91906151ee565b611765906003614ae9565b90506000611774826020615202565b6001600160401b0381111561178b5761178b6140d6565b6040519080825280601f01601f1916602001820160405280156117b5576020820181803683370190505b5090508351840151603d60ff821614156117e457600183039250613d3d61ffff821614156117e4576001830392505b50818152600183018485518101602084015b8183101561185357600483019250825160ff8082168601511660ff808360081c168701511660061b0160ff808360101c1687015116600c1b60ff808460181c168801511660121b010190508060e81b8252506003810190506117f6565b509298975050505050505050565b60606000606061187e84855160056118799190614ae9565b612179565b9092509050600082600e8111156118975761189761420d565b141561199e5760005b8181815181106118b2576118b26147b7565b01602001516001600160f81b0319166118ca576118ea565b806118d4816148dc565b91505081518114156118e5576118ea565b6118a0565b6000816001600160401b03811115611904576119046140d6565b6040519080825280601f01601f19166020018201604052801561192e576020820181803683370190505b50905060005b828110156119945783818151811061194e5761194e6147b7565b602001015160f81c60f81b82828151811061196b5761196b6147b7565b60200101906001600160f81b031916908160001a9053508061198c816148dc565b915050611934565b5093506119b19050565b6040518060200160405280600081525092505b50915091565b6033546001600160a01b0316331461096f5760405162461bcd60e51b815260206004820181905260248201527f4f776e61626c653a2063616c6c6572206973206e6f7420746865206f776e65726044820152606401610344565b603380546001600160a01b038381166001600160a01b0319831681179093556040519116919082907f8be0079c531659141344cd1fd0a4f28419497f9722a3daafe3b4186f6b6457e090600090a35050565b6060815160001415611a8357505060408051602081019091526000815290565b600060405180606001604052806040815260200161574e6040913990506000600384516002611ab29190615202565b611abc91906151ee565b611ac7906004614ae9565b90506000611ad6826020615202565b6001600160401b03811115611aed57611aed6140d6565b6040519080825280601f01601f191660200182016040528015611b17576020820181803683370190505b509050818152600183018586518101602084015b81831015611b83576003830192508251603f8160121c168501518253600182019150603f81600c1c168501518253600182019150603f8160061c168501518253600182019150603f8116850151825350600101611b2b565b600389510660018114611b9d5760028114611bae57611bba565b613d3d60f01b600119830152611bba565b603d60f81b6000198301525b509398975050505050505050565b6060611bde6001600160a01b038316601461242a565b92915050565b60606000611bf28585614f57565b611bfd906001615202565b6001600160401b03811115611c1457611c146140d6565b6040519080825280601f01601f191660200182016040528015611c3e576020820181803683370190505b50905060005b611c4e8686614f57565b8111611cc157836001611c618884615202565b611c6b9190614f57565b81518110611c7b57611c7b6147b7565b602001015160f81c60f81b828281518110611c9857611c986147b7565b60200101906001600160f81b031916908160001a90535080611cb9816148dc565b915050611c44565b5090505b9392505050565b604080516020810182526000808252606854606654935163bf40fac160e01b815292936001600160a01b039182169391169063bf40fac190611d34906004016020808252600f908201526e29a1a924a82a2fa82927ab24a222a960891b604082015260600190565b602060405180830381865afa158015611d51573d6000803e3d6000fd5b505050506040513d601f19601f82011682018060405250810190611d75919061511d565b90506000826001600160a01b031663ba67e64183876040518363ffffffff1660e01b8152600401611da792919061521a565b602060405180830381865afa158015611dc4573d6000803e3d6000fd5b505050506040513d601f19601f82011682018060405250810190611de89190615104565b9050611df5600182615202565b905060005b81811015611eb757600080856001600160a01b031663a0e56764868a866040518463ffffffff1660e01b8152600401611e359392919061523e565b600060405180830381865afa158015611e52573d6000803e3d6000fd5b505050506040513d6000823e601f3d908101601f19168201604052611e7a9190810190615272565b915091508682604051602001611e9192919061483e565b604051602081830303815290604052965050508080611eaf906148dc565b915050611dfa565b50505050919050565b600054610100900460ff16611ee75760405162461bcd60e51b8152600401610344906152cc565b61096f6125c5565b7aff00000000000000ff00000000000000ff00000000000000ff00006bffffffff0000000000000000604083901c90811663ffffffff60c01b84161760201c63ffffffff60601b919091166001600160e01b031984161717601081901c9182167eff00000000000000ff00000000000000ff00000000000000ff000000000000821617600890811c7bff00000000000000ff00000000000000ff00000000000000ff000000939093167fff00000000000000ff00000000000000ff00000000000000ff000000000000009290921691909117919091179081901c7e0f000f000f000f000f000f000f000f000f000f000f000f000f000f000f000f167f0f000f000f000f000f000f000f000f000f000f000f000f000f000f000f000f00600492831c16179061203d827f0606060606060606060606060606060606060606060606060606060606060606615202565b901c7f0f0f0f0f0f0f0f0f0f0f0f0f0f0f0f0f0f0f0f0f0f0f0f0f0f0f0f0f0f0f0f0f16600761206d9190614ae9565b612097827f3030303030303030303030303030303030303030303030303030303030303030615202565b611bde9190615202565b60008072184f03e93ff9f4daa797ed6e38ed64bf6a1f0160401b83106120e05772184f03e93ff9f4daa797ed6e38ed64bf6a1f0160401b830492506040015b6d04ee2d6d415b85acef8100000000831061210c576d04ee2d6d415b85acef8100000000830492506020015b662386f26fc10000831061212a57662386f26fc10000830492506010015b6305f5e1008310612142576305f5e100830492506008015b612710831061215657612710830492506004015b60648310612168576064830492506002015b600a8310611bde5760010192915050565b600060606000604051806101000160405280856001600160401b038111156121a3576121a36140d6565b6040519080825280601f01601f1916602001820160405280156121cd576020820181803683370190505b508152602001600081526020018681526020016000815260200160008152602001600081526020016040518060400160405280600f600161220e9190615202565b6001600160401b03811115612225576122256140d6565b60405190808252806020026020018201604052801561224e578160200160208202803683370190505b5081526040805161012080825261242082019092526020928301929091908201612400803683370190505081525081526020016040518060400160405280600f600161229a9190615202565b6001600160401b038111156122b1576122b16140d6565b6040519080825280602002602001820160405280156122da578160200160208202803683370190505b50815260408051601e8082526103e0820190925260209283019290919082016103c08036833750505090529052905060008080612316846125f5565b9050600081600e81111561232c5761232c61420d565b14612341579251929450919250612423915050565b826124185761235184600161277f565b93509050600081600e8111156123695761236961420d565b1461237e579251929450919250612423915050565b61238984600261277f565b92509050600081600e8111156123a1576123a161420d565b146123b6579251929450919250612423915050565b81156123ea57816001146123e157816002146123d35760036123f3565b6123dc84612850565b6123f3565b6123dc846128ca565b6123f3846128df565b9050600081600e8111156124095761240961420d565b1461241357612418565b612341565b925192945091925050505b9250929050565b60606000612439836002614ae9565b612444906002615202565b6001600160401b0381111561245b5761245b6140d6565b6040519080825280601f01601f191660200182016040528015612485576020820181803683370190505b509050600360fc1b816000815181106124a0576124a06147b7565b60200101906001600160f81b031916908160001a905350600f60fb1b816001815181106124cf576124cf6147b7565b60200101906001600160f81b031916908160001a90535060006124f3846002614ae9565b6124fe906001615202565b90505b6001811115612576576f181899199a1a9b1b9c1cb0b131b232b360811b85600f1660108110612532576125326147b7565b1a60f81b828281518110612548576125486147b7565b60200101906001600160f81b031916908160001a90535060049490941c9361256f81615317565b9050612501565b508315611cc55760405162461bcd60e51b815260206004820181905260248201527f537472696e67733a20686578206c656e67746820696e73756666696369656e746044820152606401610344565b600054610100900460ff166125ec5760405162461bcd60e51b8152600401610344906152cc565b61096f33611a11565b604080516101208082526124208201909252600091829182916020820161240080368337019050509050600091505b609082101561265e576008818381518110612641576126416147b7565b602090810291909101015281612656816148dc565b925050612624565b61010082101561269957600981838151811061267c5761267c6147b7565b602090810291909101015281612691816148dc565b92505061265e565b6101188210156126d45760078183815181106126b7576126b76147b7565b6020908102919091010152816126cc816148dc565b925050612699565b61012082101561270f5760088183815181106126f2576126f26147b7565b602090810291909101015281612707816148dc565b9250506126d4565b6127228460c00151826101206000612aef565b50600091505b601e821015612762576005818381518110612745576127456147b7565b60209081029190910101528161275a816148dc565b925050612728565b6127748460e0015182601e6000612aef565b506000949350505050565b608082015160009081905b838560a00151101561281357846040015151856060015114156127b557600160009250925050612423565b60a08501516040860151606087018051906127cf826148dc565b9052815181106127e1576127e16147b7565b602001015160f81c60f81b60f81c60ff16901b8117905060088560a00181815161280b9190615202565b90525061278a565b80841c608086015260a08501805185919061282f908390614f57565b9052506000612841600180871b614f57565b60009792169550909350505050565b600061286f604051806040016040528060608152602001606081525090565b6040805180820190915260608082526020820152600061288e85612dba565b90945092509050600081600e8111156128a9576128a961420d565b146128b657949350505050565b6128c1858484613470565b95945050505050565b6000611bde828360c001518460e00151613470565b60006080820181905260a082018190526040820151516060830151829190612908906004615202565b11156129175750600192915050565b60408301516060840180519061292c826148dc565b90528151811061293e5761293e6147b7565b0160200151604084015160608501805160f89390931c935060089290612963826148dc565b905281518110612975576129756147b7565b602001015160f81c60f81b60f81c60ff16901b81179050801960ff1683604001518460600180518091906129a8906148dc565b9052815181106129ba576129ba6147b7565b016020015160f81c141580612a055750604083015160608401805160ff841960081c1692916129e8826148dc565b9052815181106129fa576129fa6147b7565b016020015160f81c14155b15612a135750600492915050565b826040015151818460600151612a299190615202565b1115612a385750600192915050565b8251516020840151612a4b908390615202565b1115612a5a5750600292915050565b8015612ae657612a6b600182614f57565b90508260400151836060018051809190612a84906148dc565b905281518110612a9657612a966147b7565b602001015160f81c60f81b8360000151846020018051809190612ab8906148dc565b905281518110612aca57612aca6147b7565b60200101906001600160f81b031916908160001a905350612a5a565b50600092915050565b600080600080612afd613fcc565b600092505b600f8311612b3f57600089600001518481518110612b2257612b226147b7565b602090810291909101015282612b37816148dc565b935050612b02565b600093505b86841015612bab57885188612b598689615202565b81518110612b6957612b696147b7565b602002602001015181518110612b8157612b816147b7565b602002602001018051809190612b96906148dc565b90525083612ba3816148dc565b945050612b44565b868960000151600081518110612bc357612bc36147b7565b60200260200101511415612bde576000945050505050612db2565b60019150600192505b600f8311612c61578851805160019390931b9284908110612c0a57612c0a6147b7565b6020026020010151821015612c2657600e945050505050612db2565b8851805184908110612c3a57612c3a6147b7565b602002602001015182612c4d9190614f57565b915082612c59816148dc565b935050612be7565b60006020820152600192505b600f831015612ce6578851805184908110612c8a57612c8a6147b7565b6020026020010151818460108110612ca457612ca46147b7565b6020020151612cb39190615202565b81612cbf856001615202565b60108110612ccf57612ccf6147b7565b602002015282612cde816148dc565b935050612c6d565b600093505b86841015612d995787612cfe8588615202565b81518110612d0e57612d0e6147b7565b6020026020010151600014612d875760208901518490828a612d30848b615202565b81518110612d4057612d406147b7565b602002602001015160108110612d5857612d586147b7565b60200201805190612d68826148dc565b905281518110612d7a57612d7a6147b7565b6020026020010181815250505b83612d91816148dc565b945050612ceb565b60008211612da8576000612dab565b600e5b9450505050505b949350505050565b6000612dd9604051806040016040528060608152602001606081525090565b6040805180820190915260608082526020820152600080808080612e00601e61011e615202565b6001600160401b03811115612e1757612e176140d6565b604051908082528060200260200182016040528015612e40578160200160208202803683370190505b50905060006040518060400160405280600f6001612e5e9190615202565b6001600160401b03811115612e7557612e756140d6565b604051908082528060200260200182016040528015612e9e578160200160208202803683370190505b5081526040805161011e8082526123e0820190925260209283019290919082016123c08036833701905050815250905060006040518060400160405280600f6001612ee99190615202565b6001600160401b03811115612f0057612f006140d6565b604051908082528060200260200182016040528015612f29578160200160208202803683370190505b50815260408051601e8082526103e0820190925260209283019290919082016103c080368337505050905290506000612f638c600561277f565b98509450600085600e811115612f7b57612f7b61420d565b14612f93575092985096509094506134699350505050565b612f9f61010189615202565b9750612fac8c600561277f565b97509450600085600e811115612fc457612fc461420d565b14612fdc575092985096509094506134699350505050565b612fe7600188615202565b965061011e881180612ff95750601e87115b156130135750600599509097509550613469945050505050565b61301c8c613c9b565b9095509350600085600e8111156130355761303561420d565b1461304d575092985096509094506134699350505050565b61305b838560136000612aef565b9450600085600e8111156130715761307161420d565b1461308b5750600699509097509550613469945050505050565b600095505b61309a8789615202565b861015613293576000806130ae8e86613ebd565b9097509150600087600e8111156130c7576130c761420d565b146130e15750949a50919850965061346995505050505050565b6010821015613119578186896130f6816148dc565b9a5081518110613108576131086147b7565b60200260200101818152505061328c565b50600060108214156131b85787613142575060079b509299509097506134699650505050505050565b8561314e60018a614f57565b8151811061315e5761315e6147b7565b602002602001015190506131738e600261277f565b9097509250600087600e81111561318c5761318c61420d565b146131a65750949a50919850965061346995505050505050565b6131b1836003615202565b9150613218565b81601114156131cc576131738e600361277f565b6131d78e600761277f565b9097509250600087600e8111156131f0576131f061420d565b1461320a5750949a50919850965061346995505050505050565b61321583600b615202565b91505b613222898b615202565b61322c838a615202565b111561324a575060089b509299509097506134699650505050505050565b811561328c5761325b600183614f57565b9150808689613269816148dc565b9a508151811061327b5761327b6147b7565b60200260200101818152505061324a565b5050613090565b83610100815181106132a7576132a76147b7565b6020026020010151600014156132cc5750600b99509097509550613469945050505050565b6132d983858a6000612aef565b9450600085600e8111156132ef576132ef61420d565b141580156133795750600185600e81111561330c5761330c61420d565b14806133295750600285600e8111156133275761332761420d565b145b806133795750825180516001908110613344576133446147b7565b60200260200101518360000151600081518110613363576133636147b7565b60200260200101516133759190615202565b8814155b156133935750600999509097509550613469945050505050565b61339f8285898b612aef565b9450600085600e8111156133b5576133b561420d565b1415801561343f5750600185600e8111156133d2576133d261420d565b14806133ef5750600285600e8111156133ed576133ed61420d565b145b8061343f575081518051600190811061340a5761340a6147b7565b60200260200101518260000151600081518110613429576134296147b7565b602002602001015161343b9190615202565b8714155b156134595750600a99509097509550613469945050505050565b5060009950909750955050505050505b9193909250565b6000806000806000604051806103a00160405280600361ffff168152602001600461ffff168152602001600561ffff168152602001600661ffff168152602001600761ffff168152602001600861ffff168152602001600961ffff168152602001600a61ffff168152602001600b61ffff168152602001600d61ffff168152602001600f61ffff168152602001601161ffff168152602001601361ffff168152602001601761ffff168152602001601b61ffff168152602001601f61ffff168152602001602361ffff168152602001602b61ffff168152602001603361ffff168152602001603b61ffff168152602001604361ffff168152602001605361ffff168152602001606361ffff168152602001607361ffff168152602001608361ffff16815260200160a361ffff16815260200160c361ffff16815260200160e361ffff16815260200161010261ffff1681525090506000604051806103a00160405280600060ff168152602001600060ff168152602001600060ff168152602001600060ff168152602001600060ff168152602001600060ff168152602001600060ff168152602001600060ff168152602001600160ff168152602001600160ff168152602001600160ff168152602001600160ff168152602001600260ff168152602001600260ff168152602001600260ff168152602001600260ff168152602001600360ff168152602001600360ff168152602001600360ff168152602001600360ff168152602001600460ff168152602001600460ff168152602001600460ff168152602001600460ff168152602001600560ff168152602001600560ff168152602001600560ff168152602001600560ff168152602001600060ff1681525090506000604051806103c00160405280600161ffff168152602001600261ffff168152602001600361ffff168152602001600461ffff168152602001600561ffff168152602001600761ffff168152602001600961ffff168152602001600d61ffff168152602001601161ffff168152602001601961ffff168152602001602161ffff168152602001603161ffff168152602001604161ffff168152602001606161ffff168152602001608161ffff16815260200160c161ffff16815260200161010161ffff16815260200161018161ffff16815260200161020161ffff16815260200161030161ffff16815260200161040161ffff16815260200161060161ffff16815260200161080161ffff168152602001610c0161ffff16815260200161100161ffff16815260200161180161ffff16815260200161200161ffff16815260200161300161ffff16815260200161400161ffff16815260200161600161ffff1681525090506000604051806103c00160405280600060ff168152602001600060ff168152602001600060ff168152602001600060ff168152602001600160ff168152602001600160ff168152602001600260ff168152602001600260ff168152602001600360ff168152602001600360ff168152602001600460ff168152602001600460ff168152602001600560ff168152602001600560ff168152602001600660ff168152602001600660ff168152602001600760ff168152602001600760ff168152602001600860ff168152602001600860ff168152602001600960ff168152602001600960ff168152602001600a60ff168152602001600a60ff168152602001600b60ff168152602001600b60ff168152602001600c60ff168152602001600c60ff168152602001600d60ff168152602001600d60ff16815250905060005b8761010014613c89576139aa8c8c613ebd565b98509050600081600e8111156139c2576139c261420d565b146139d6579750611cc59650505050505050565b610100881015613a4c578b515160208d015114156139ff57600298505050505050505050611cc5565b8760f81b8c600001518d6020015181518110613a1d57613a1d6147b7565b60200101906001600160f81b031916908160001a90535060208c01805190613a44826148dc565b905250613997565b610100881115613c77576000613a646101018a614f57565b9850601d8910613a8057600c9950505050505050505050611cc5565b613aa38d868b601d8110613a9657613a966147b7565b602002015160ff1661277f565b9092509050600082600e811115613abc57613abc61420d565b14613ad157509750611cc59650505050505050565b80868a601d8110613ae457613ae46147b7565b602002015161ffff16613af79190615202565b9750613b038d8c613ebd565b99509150600082600e811115613b1b57613b1b61420d565b14613b3057509750611cc59650505050505050565b613b468d848b601e8110613a9657613a966147b7565b9092509050600082600e811115613b5f57613b5f61420d565b14613b7457509750611cc59650505050505050565b80848a601e8110613b8757613b876147b7565b602002015161ffff16613b9a9190615202565b96508c60200151871115613bba57600d9950505050505050505050611cc5565b8c515160208e0151613bcd908a90615202565b1115613be55760029950505050505050505050611cc5565b8715613c7157613bf6600189614f57565b97508c60000151878e60200151613c0d9190614f57565b81518110613c1d57613c1d6147b7565b602001015160f81c60f81b8d600001518e6020015181518110613c4257613c426147b7565b60200101906001600160f81b031916908160001a90535060208d01805190613c69826148dc565b905250613be5565b50613997565b868c602001818151613a449190615202565b5060009b9a5050505050505050505050565b60006060818080613caf601e61011e615202565b6001600160401b03811115613cc657613cc66140d6565b604051908082528060200260200182016040528015613cef578160200160208202803683370190505b506040805161026081018252601081526011602082015260129181019190915260006060820181905260086080830152600760a0830152600960c0830152600660e0830152600a6101008301526005610120830152600b61014083015260046101608301819052600c61018084015260036101a0840152600d6101c084015260026101e0840152600e6102008401526001610220840152600f61024084015292935091613d9d90899061277f565b95509150600082600e811115613db557613db561420d565b14613dc65750969095509350505050565b613dd1600486615202565b9450600093505b84841015613e5a57613deb88600361277f565b84838760138110613dfe57613dfe6147b7565b602002015160ff1681518110613e1657613e166147b7565b60209081029190910101529150600082600e811115613e3757613e3761420d565b14613e485750969095509350505050565b83613e52816148dc565b945050613dd8565b6013841015613ead57600083828660138110613e7857613e786147b7565b602002015160ff1681518110613e9057613e906147b7565b602090810291909101015283613ea5816148dc565b945050613e5a565b5060009791965090945050505050565b600080600181808080805b600f8611613fb9576000613edd8b600161277f565b9092509050600082600e811115613ef657613ef661420d565b14613f0d5750965060009550612423945050505050565b895180519682179688908110613f2557613f256147b7565b602002602001015193508385613f3b9190615202565b861015613f865760208a0151600090613f548789614f57565b613f5e9086615202565b81518110613f6e57613f6e6147b7565b60200260200101519850985050505050505050612423565b613f908484615202565b9250613f9c8486615202565b600196871b961b9450869050613fb1816148dc565b965050613ec8565b50600c9960009950975050505050505050565b6040518061020001604052806010906020820280368337509192915050565b6001600160a01b038116811461037f57600080fd5b60006020828403121561401257600080fd5b8135611cc581613feb565b60005b83811015614038578181015183820152602001614020565b838111156114905750506000910152565b6000815180845261406181602086016020860161401d565b601f01601f19169290920160200192915050565b602081526000611cc56020830184614049565b60008060006060848603121561409d57600080fd5b505081359360208301359350604090920135919050565b600080604083850312156140c757600080fd5b50508035926020909101359150565b634e487b7160e01b600052604160045260246000fd5b60405160a081016001600160401b038111828210171561410e5761410e6140d6565b60405290565b60405161026081016001600160401b038111828210171561410e5761410e6140d6565b604051601f8201601f191681016001600160401b038111828210171561415f5761415f6140d6565b604052919050565b60006001600160401b03821115614180576141806140d6565b50601f01601f191660200190565b6000602082840312156141a057600080fd5b81356001600160401b038111156141b657600080fd5b8201601f810184136141c757600080fd5b80356141da6141d582614167565b614137565b8181528560208385010111156141ef57600080fd5b81602084016020830137600091810160200191909152949350505050565b634e487b7160e01b600052602160045260246000fd5b6040815260006142366040830185614049565b9050600f831061425657634e487b7160e01b600052602160045260246000fd5b8260208301529392505050565b60006020828403121561427557600080fd5b5035919050565b60008060006060848603121561429157600080fd5b833561429c81613feb565b925060208401356142ac81613feb565b915060408401356142bc81613feb565b809150509250925092565b60006142d56141d584614167565b90508281528383830111156142e957600080fd5b611cc583602083018461401d565b600082601f83011261430857600080fd5b611cc5838351602085016142c7565b60006020828403121561432957600080fd5b81516001600160401b0381111561433f57600080fd5b612db2848285016142f7565b805162ffffff8116811461044d57600080fd5b805161044d81613feb565b600060a0828403121561437b57600080fd5b6143836140ec565b905081516001600160401b038082111561439c57600080fd5b6143a8858386016142f7565b835260208401519150808211156143be57600080fd5b6143ca858386016142f7565b602084015260408401519150808211156143e357600080fd5b6143ef858386016142f7565b6040840152606084015191508082111561440857600080fd5b614414858386016142f7565b6060840152608084015191508082111561442d57600080fd5b5061443a848285016142f7565b60808301525092915050565b60006001600160401b0382111561445f5761445f6140d6565b5060051b60200190565b600082601f83011261447a57600080fd5b8151602061448a6141d583614446565b82815260059290921b840181019181810190868411156144a957600080fd5b8286015b848110156144e85780516001600160401b038111156144cc5760008081fd5b6144da8986838b01016142f7565b8452509183019183016144ad565b509695505050505050565b600082601f83011261450457600080fd5b815160206145146141d583614446565b82815260059290921b8401810191818101908684111561453357600080fd5b8286015b848110156144e857805161454a81613feb565b8352918301918301614537565b60006020828403121561456957600080fd5b81516001600160401b038082111561458057600080fd5b90830190610260828603121561459557600080fd5b61459d614114565b6145a68361434b565b81526145b46020840161434b565b6020820152604083015160408201526145cf6060840161435e565b60608201526080830151828111156145e657600080fd5b6145f2878286016142f7565b60808301525060a08301518281111561460a57600080fd5b614616878286016142f7565b60a08301525061462860c0840161435e565b60c082015260e08301518281111561463f57600080fd5b61464b878286016142f7565b60e083015250610100808401518381111561466557600080fd5b614671888287016142f7565b828401525050610120808401518381111561468b57600080fd5b614697888287016142f7565b82840152505061014080840151838111156146b157600080fd5b6146bd88828701614369565b82840152505061016080840151838111156146d757600080fd5b6146e388828701614469565b82840152505061018080840151838111156146fd57600080fd5b61470988828701614469565b8284015250506101a0808401518381111561472357600080fd5b61472f888287016142f7565b8284015250506101c08084015181830152506101e061474f81850161435e565b90820152610200838101518381111561476757600080fd5b614773888287016142f7565b828401525050610220808401518381111561478d57600080fd5b614799888287016144f3565b91830191909152506102409283015192810192909252509392505050565b634e487b7160e01b600052603260045260246000fd5b600080604083850312156147e057600080fd5b82516001600160401b038111156147f657600080fd5b614802858286016142f7565b9250506020830151600f811061481757600080fd5b809150509250929050565b6000815161483481856020860161401d565b9290920192915050565b6000835161485081846020880161401d565b83519083019061486481836020880161401d565b01949350505050565b6000835161487f81846020880161401d565b671e39b1b934b83a1f60c11b90830190815283516148a481600884016020880161401d565b681e17b9b1b934b83a1f60b91b60089290910191820152601101949350505050565b634e487b7160e01b600052601160045260246000fd5b60006000198214156148f0576148f06148c6565b5060010190565b651e343a36b61f60d11b81527f3c686561643e3c6d65746120636861727365743d275554462d38273e0000000060068201526000865161493e816022850160208b0161401d565b865190830190614955816022840160208b0161401d565b865191019061496b816022840160208a0161401d565b661e39ba3cb6329f60c91b60229290910191820152845161499381602984016020890161401d565b671e17b9ba3cb6329f60c11b602992909101918201526c1e17b432b0b21f1e3137b23c9f60991b603182015283516149d281603e84016020880161401d565b614a046149f1603e83850101661e17b137b23c9f60c91b815260070190565b661e17b43a36b61f60c91b815260070190565b9998505050505050505050565b60008351614a2381846020880161401d565b696c657420736565643d2760b01b9083019081528351614a4a81600a84016020880161401d565b61273b60f01b600a9290910191820152600c01949350505050565b60008351614a7781846020880161401d565b6c6c657420746f6b656e49643d2760981b9083019081528351614aa181600d84016020880161401d565b61273b60f01b600d9290910191820152600f01949350505050565b60008251614ace81846020870161401d565b681e17b9b1b934b83a1f60b91b920191825250600901919050565b6000816000190483118215151615614b0357614b036148c6565b500290565b60008251614b1a81846020870161401d565b9190910192915050565b7519185d184e9d195e1d0bda1d1b5b0ed8985cd94d8d0b60521b815260008251614b5581601685016020870161401d565b9190910160160192915050565b7216101130b734b6b0ba34b7b72fbab936111d1160691b81528151600090614b9181601385016020870161401d565b601160f91b6013939091019283015250601401919050565b60008351614bbb81846020880161401d565b61202360f01b9083019081528351614bda81600284016020880161401d565b01600201949350505050565b600060ff821660ff84168060ff03821115614c0357614c036148c6565b019392505050565b60008451614c1d81846020890161401d565b740163d913a3930b4ba2fba3cb832911d10112634b11605d1b9083019081528451614c4f81601584016020890161401d565b6c111610113b30b63ab2911d101160991b601592909101918201528351614c7d81602284016020880161401d565b61227d60f01b6022929091019182015260240195945050505050565b600060ff821660ff811415614cb057614cb06148c6565b60010192915050565b7f2c2261747472696275746573223a205b7b2274726169745f74797065223a202281527f436f6c6c656374696f6e2041646472657373222c202276616c7565223a202200602082015260008651614d1781603f850160208b0161401d565b61227d60f01b603f9184019182018190527f2c7b2274726169745f74797065223a202243726561746f72222c202276616c7560418301526432911d101160d91b60618301528751614d6f816066850160208c0161401d565b60669201918201527f2c7b2274726169745f74797065223a202243726561746f72204164647265737360688201526c111610113b30b63ab2911d101160991b6088820152614e2e614e21614e1b614dd0614e15614dde82609588018d614822565b61227d60f01b815260020190565b7f2c7b2274726169745f74797065223a20224c6963656e7365222c202276616c7581526432911d101160d91b602082015260250190565b89614822565b86614822565b605d60f81b815260010190565b98975050505050505050565b683d913730b6b2911d1160b91b81528551600090614e5f816009850160208b0161401d565b601160f91b60099184019182018190526f16113232b9b1b934b83a34b7b7111d1160811b600a8301528751614e9b81601a850160208c0161401d565b601a920191820181905269161134b6b0b3b2911d1160b11b601b8301528651614ecb816025850160208b0161401d565b60259201918201528451614ee681602684016020890161401d565b8451910190614efc81602684016020880161401d565b614a04602682840101607d60f81b815260010190565b7f646174613a6170706c69636174696f6e2f6a736f6e3b6261736536342c000000815260008251614f4a81601d85016020870161401d565b91909101601d0192915050565b600082821015614f6957614f696148c6565b500390565b60008551614f80818460208a0161401d565b8083019050602f60f81b8082528651614fa0816001850160208b0161401d565b60019201918201528451614fbb81600284016020890161401d565b653f736565643d60d01b600292909101918201528351614fe281600884016020880161401d565b016008019695505050505050565b683d913730b6b2911d1160b91b81528551600090615015816009850160208b0161401d565b711116113232b9b1b934b83a34b7b7111d101160711b600991840191820152865161504781601b840160208b0161401d565b601160f91b601b92909101918201526b16101134b6b0b3b2911d101160a11b601c820152855161507e816028840160208a0161401d565b6e1331b0b83a3ab9329e9b181818181160891b6028929091019182015284516150ae81603784016020890161401d565b7016101130ba3a3934b13aba32b9911d101160791b60379290910191820152614e2e6150f76150e06048840187614822565b6a1331b0b83a3ab9329e981160a91b8152600b0190565b607d60f81b815260010190565b60006020828403121561511657600080fd5b5051919050565b60006020828403121561512f57600080fd5b8151611cc581613feb565b656266733a2f2f60d01b81526000855161515b816006850160208a0161401d565b8083019050602f60f81b806006830152865161517e816007850160208b0161401d565b60079201918201819052855161519b816008850160208a0161401d565b600892019182015283516151b681600984016020880161401d565b016009019695505050505050565b634e487b7160e01b600052601260045260246000fd5b6000826151e9576151e96151c4565b500690565b6000826151fd576151fd6151c4565b500490565b60008219821115615215576152156148c6565b500190565b6001600160a01b0383168152604060208201819052600090612db290830184614049565b6001600160a01b038416815260606020820181905260009061526290830185614049565b9050826040830152949350505050565b6000806040838503121561528557600080fd5b82516001600160401b0381111561529b57600080fd5b8301601f810185136152ac57600080fd5b6152bb858251602084016142c7565b925050602083015190509250929050565b6020808252602b908201527f496e697469616c697a61626c653a20636f6e7472616374206973206e6f74206960408201526a6e697469616c697a696e6760a81b606082015260800190565b600081615326576153266148c6565b50600019019056fe3c73637269707420747970653d22746578742f6a617661736372697074222069643d22736e69707065742d636f6e74726163742d636f6465223e3c7363726970742069643d22736e69707065742d72616e646f6d2d636f6465223e6966286e756c6c3d3d73656564297b6c657420243d22303132333435363738396162636465666768696a6b6c6d6e6f707172737475767773797a223b736565643d6e65772055524c536561726368506172616d732877696e646f772e6c6f636174696f6e2e736561726368292e67657428227365656422297c7c4172726179283634292e66696c6c2830292e6d617028653d3e245b4d6174682e72616e646f6d28292a242e6c656e6774687c305d292e6a6f696e282222292b226930227d656c73657b6c657420653d22736565643d223b666f72286c6574206c3d303b6c3c736565642e6c656e6774682d652e6c656e6774683b2b2b6c29696628736565642e737562737472696e67286c2c6c2b652e6c656e677468293d3d65297b736565643d736565642e737562737472696e67286c2b652e6c656e677468293b627265616b7d7d66756e6374696f6e20637972623132382824297b6c657420653d313737393033333730332c6c3d333134343133343237372c743d313031333930343234322c6e3d323737333438303736323b666f72286c6574205f3d302c693b5f3c242e6c656e6774683b5f2b2b29653d6c5e4d6174682e696d756c28655e28693d242e63686172436f64654174285f29292c353937333939303637292c6c3d745e4d6174682e696d756c286c5e692c32383639383630323333292c743d6e5e4d6174682e696d756c28745e692c393531323734323133292c6e3d655e4d6174682e696d756c286e5e692c32373136303434313739293b72657475726e20653d4d6174682e696d756c28745e653e3e3e31382c353937333939303637292c6c3d4d6174682e696d756c286e5e6c3e3e3e32322c32383639383630323333292c743d4d6174682e696d756c28655e743e3e3e31372c393531323734323133292c6e3d4d6174682e696d756c286c5e6e3e3e3e31392c32373136303434313739292c5b28655e6c5e745e6e293e3e3e302c286c5e65293e3e3e302c28745e65293e3e3e302c286e5e65293e3e3e305d7d66756e6374696f6e20736663333228242c652c6c2c74297b72657475726e2066756e6374696f6e28297b6c3e3e3e3d302c743e3e3e3d303b766172206e3d28243e3e3e3d30292b28653e3e3e3d30297c303b72657475726e20243d655e653e3e3e392c653d6c2b286c3c3c33297c302c6c3d286c3d6c3c3c32317c6c3e3e3e3131292b286e3d6e2b28743d742b317c30297c30297c302c286e3e3e3e30292f343239343936373239367d7d6c6574206d61746852616e643d7366633332282e2e2e63797262313238287365656429293b3c2f7363726970743e4142434445464748494a4b4c4d4e4f505152535455565758595a6162636465666768696a6b6c6d6e6f707172737475767778797a303132333435363738392b2f3c7363726970742073616e64626f783d27616c6c6f772d736372697074732720747970653d27746578742f6a617661736372697074273e000000000000000000000000000000000000000000000000000000000000000000000000000000000000003e0000003f3435363738393a3b3c3d00000000000000000102030405060708090a0b0c0d0e0f101112131415161718190000000000001a1b1c1d1e1f202122232425262728292a2b2c2d2e2f303132330000000000a26469706673582212204a182e693e770d39421bd80c4d3881d541beadcb8026cb599db4798dc0d56fcd64736f6c634300080c0033",
  "linkReferences": {},
  "deployedLinkReferences": {}
}