{
  "_format": "hh-sol-artifact-1",
  "contractName": "GenerativeProjectData",
  "sourceName": "contracts/data/GenerativeProjectData.sol",
  "abi": [
    {
      "anonymous": false,
      "inputs": [
        {
          "indexed": false,
          "internalType": "uint8",
          "name": "version",
          "type": "uint8"
        }
      ],
      "name": "Initialized",
      "type": "event"
    },
    {
      "anonymous": false,
      "inputs": [
        {
          "indexed": true,
          "internalType": "address",
          "name": "previousOwner",
          "type": "address"
        },
        {
          "indexed": true,
          "internalType": "address",
          "name": "newOwner",
          "type": "address"
        }
      ],
      "name": "OwnershipTransferred",
      "type": "event"
    },
    {
      "inputs": [],
      "name": "_admin",
      "outputs": [
        {
          "internalType": "address",
          "name": "",
          "type": "address"
        }
      ],
      "stateMutability": "view",
      "type": "function"
    },
    {
      "inputs": [],
      "name": "_generativeProjectAddr",
      "outputs": [
        {
          "internalType": "address",
          "name": "",
          "type": "address"
        }
      ],
      "stateMutability": "view",
      "type": "function"
    },
    {
      "inputs": [],
      "name": "_paramAddr",
      "outputs": [
        {
          "internalType": "address",
          "name": "",
          "type": "address"
        }
      ],
      "stateMutability": "view",
      "type": "function"
    },
    {
      "inputs": [
        {
          "internalType": "address",
          "name": "newAdm",
          "type": "address"
        }
      ],
      "name": "changeAdmin",
      "outputs": [],
      "stateMutability": "nonpayable",
      "type": "function"
    },
    {
      "inputs": [
        {
          "internalType": "address",
          "name": "newAddr",
          "type": "address"
        }
      ],
      "name": "changeParamAddress",
      "outputs": [],
      "stateMutability": "nonpayable",
      "type": "function"
    },
    {
      "inputs": [
        {
          "internalType": "address",
          "name": "newAddr",
          "type": "address"
        }
      ],
      "name": "changeProjectAddress",
      "outputs": [],
      "stateMutability": "nonpayable",
      "type": "function"
    },
    {
      "inputs": [
        {
          "internalType": "string",
          "name": "script",
          "type": "string"
        }
      ],
      "name": "inflateScript",
      "outputs": [
        {
          "internalType": "string",
          "name": "result",
          "type": "string"
        },
        {
          "internalType": "enum Inflate.ErrorCode",
          "name": "err",
          "type": "uint8"
        }
      ],
      "stateMutability": "view",
      "type": "function"
    },
    {
      "inputs": [
        {
          "internalType": "string",
          "name": "data",
          "type": "string"
        }
      ],
      "name": "inflateString",
      "outputs": [
        {
          "internalType": "string",
          "name": "result",
          "type": "string"
        },
        {
          "internalType": "enum Inflate.ErrorCode",
          "name": "err",
          "type": "uint8"
        }
      ],
      "stateMutability": "view",
      "type": "function"
    },
    {
      "inputs": [
        {
          "internalType": "address",
          "name": "admin",
          "type": "address"
        },
        {
          "internalType": "address",
          "name": "paramAddr",
          "type": "address"
        },
        {
          "internalType": "address",
          "name": "generativeProjectAddr",
          "type": "address"
        }
      ],
      "name": "initialize",
      "outputs": [],
      "stateMutability": "nonpayable",
      "type": "function"
    },
    {
      "inputs": [],
      "name": "owner",
      "outputs": [
        {
          "internalType": "address",
          "name": "",
          "type": "address"
        }
      ],
      "stateMutability": "view",
      "type": "function"
    },
    {
      "inputs": [
        {
          "internalType": "uint256",
          "name": "projectId",
          "type": "uint256"
        }
      ],
      "name": "projectURI",
      "outputs": [
        {
          "internalType": "string",
          "name": "result",
          "type": "string"
        }
      ],
      "stateMutability": "view",
      "type": "function"
    },
    {
      "inputs": [],
      "name": "renounceOwnership",
      "outputs": [],
      "stateMutability": "nonpayable",
      "type": "function"
    },
    {
      "inputs": [
        {
          "internalType": "uint256",
          "name": "projectId",
          "type": "uint256"
        },
        {
          "internalType": "uint256",
          "name": "tokenId",
          "type": "uint256"
        },
        {
          "internalType": "bytes32",
          "name": "seed",
          "type": "bytes32"
        }
      ],
      "name": "tokenBaseURI",
      "outputs": [
        {
          "internalType": "string",
          "name": "result",
          "type": "string"
        }
      ],
      "stateMutability": "view",
      "type": "function"
    },
    {
      "inputs": [
        {
          "internalType": "uint256",
          "name": "projectId",
          "type": "uint256"
        },
        {
          "internalType": "uint256",
          "name": "tokenId",
          "type": "uint256"
        },
        {
          "internalType": "bytes32",
          "name": "seed",
          "type": "bytes32"
        }
      ],
      "name": "tokenHTML",
      "outputs": [
        {
          "internalType": "string",
          "name": "result",
          "type": "string"
        }
      ],
      "stateMutability": "view",
      "type": "function"
    },
    {
      "inputs": [
        {
          "internalType": "uint256",
          "name": "projectId",
          "type": "uint256"
        },
        {
          "internalType": "uint256",
          "name": "tokenId",
          "type": "uint256"
        },
        {
          "internalType": "bytes32",
          "name": "seed",
          "type": "bytes32"
        }
      ],
      "name": "tokenURI",
      "outputs": [
        {
          "internalType": "string",
          "name": "result",
          "type": "string"
        }
      ],
      "stateMutability": "view",
      "type": "function"
    },
    {
      "inputs": [
        {
          "internalType": "address",
          "name": "newOwner",
          "type": "address"
        }
      ],
      "name": "transferOwnership",
      "outputs": [],
      "stateMutability": "nonpayable",
      "type": "function"
    }
  ],
  "bytecode": "0x608060405234801561001057600080fd5b50614941806100206000396000f3fe608060405234801561001057600080fd5b50600436106101005760003560e01c80637af34af211610097578063c0c53b8b11610066578063c0c53b8b14610216578063e808285814610229578063f2fde38b1461023c578063f4a290f71461024f57600080fd5b80637af34af2146101cc5780638da5cb5b146101df5780638f283970146101f0578063941393011461020357600080fd5b8063567fdcf3116100d3578063567fdcf31461017d5780636e973cf214610190578063715018a6146101b157806379ebc6f0146101b957600080fd5b806301bc45c91461010557806316a5041f1461013557806331c7280c1461014a57806346eaa7481461016a575b600080fd5b606554610118906001600160a01b031681565b6040516001600160a01b0390911681526020015b60405180910390f35b6101486101433660046138f6565b610262565b005b61015d610158366004613913565b6102fc565b60405161012c9190613997565b61015d610178366004613913565b6104fe565b606754610118906001600160a01b031681565b6101a361019e366004613a62565b610667565b60405161012c929190613af7565b610148610685565b61015d6101c7366004613b37565b610699565b6101a36101da366004613a62565b610a8e565b6033546001600160a01b0316610118565b6101486101fe3660046138f6565b610aad565b61015d610211366004613913565b610b3f565b610148610224366004613b50565b610e9c565b6101486102373660046138f6565b610fed565b61014861024a3660046138f6565b61107f565b606654610118906001600160a01b031681565b6065546001600160a01b03163314801561028457506001600160a01b03811615155b6040518060400160405280600381526020016231303160e81b815250906102c75760405162461bcd60e51b81526004016102be9190613997565b60405180910390fd5b506066546001600160a01b038281169116146102f957606680546001600160a01b0319166001600160a01b0383161790555b50565b6067546040516346ec8d2b60e11b8152600481018590526060916001600160a01b0316906000908290638dd91a5690602401600060405180830381865afa15801561034b573d6000803e3d6000fd5b505050506040513d6000823e601f3d908101601f191682016040526103739190810190613df1565b9050600060405180602001604052806000815250905060606000805b846101800151518110156104f057600085610180015182815181106103b6576103b6614051565b60200260200101515111156104de57306001600160a01b0316637af34af286610180015183815181106103eb576103eb614051565b60200260200101516040518263ffffffff1660e01b815260040161040f9190613997565b600060405180830381865afa15801561042c573d6000803e3d6000fd5b505050506040513d6000823e601f3d908101601f191682016040526104549190810190614067565b9093509150600082600e81111561046d5761046d613ae1565b146104b95783856101800151828151811061048a5761048a614051565b60200260200101516040516020016104a39291906140d8565b60405160208183030381529060405293506104de565b83836040516020016104cc9291906140d8565b60405160208183030381529060405293505b806104e88161411d565b91505061038f565b509198975050505050505050565b6066546040805180820182526008815267424153455f55524960c01b6020820152905163349f642f60e11b81526060926001600160a01b031691600091839163693ec85e916105509190600401613997565b600060405180830381865afa15801561056d573d6000803e3d6000fd5b505050506040513d6000823e601f3d908101601f191682016040526105959190810190614138565b6067546040516346ec8d2b60e11b8152600481018990529192506001600160a01b0316906000908290638dd91a5690602401600060405180830381865afa1580156105e4573d6000803e3d6000fd5b505050506040513d6000823e601f3d908101601f1916820160405261060c9190810190613df1565b6067549091508390610626906001600160a01b03166110f5565b61062f89611111565b610638896111ad565b60405160200161064b949392919061416c565b6040516020818303038152906040529450505050509392505050565b6060600061067c610677846111f9565b611367565b91509150915091565b61068d6114bd565b6106976000611517565b565b60606106f56040518061010001604052806060815260200160006001600160a01b031681526020016060815260200160608152602001606081526020016060815260200160006001600160a01b03168152602001606081525090565b6067546040516346ec8d2b60e11b8152600481018590526001600160a01b03909116906000908290638dd91a5690602401600060405180830381865afa158015610743573d6000803e3d6000fd5b505050506040513d6000823e601f3d908101601f1916820160405261076b9190810190613df1565b9050600061077c620f4240876141ee565b90506000306001600160a01b03166331c7280c8884856040516020016107a491815260200190565b604051602081830303815290604052805190602001206040518463ffffffff1660e01b81526004016107e9939291909283526020830191909152604082015260600190565b600060405180830381865afa158015610806573d6000803e3d6000fd5b505050506040513d6000823e601f3d908101601f1916820160405261082e9190810190614138565b805190915015610882576108608160405160200161084c919061420d565b604051602081830303815290604052611569565b6040516020016108709190614229565b60405160208183030381529060405290505b6000816040516020016108959190614267565b604051602081830303815290604052905083608001516108b489611111565b6040516020016108c59291906142ae565b60408051601f19818403018152918152870152610100840151608087018190526060906000906108f490610667565b9092509050600081600e81111561090d5761090d613ae1565b141561091b57608088018290525b610120860151606089015260a08089018490526101e08701516001600160a01b0390811660c0808c0191909152880151166020808b019190915290870151895260408051918201905260008082525b876101600151518160ff1610156109ea578161099261098a8360016142eb565b60ff16611111565b8961016001518360ff16815181106109ac576109ac614051565b60200260200101516040516020016109c693929190614310565b604051602081830303815290604052915080806109e29061439e565b91505061096a565b506109f88960c001516110f5565b895160208b0151610a08906110f5565b8960e0015184604051602001610a229594939291906143be565b60408051601f1981840301815291815260e08b018290528a81015160808c015160608d015160a08e01519351610a5f9561084c959160200161453f565b604051602001610a6f9190614624565b6040516020818303038152906040529950505050505050505050919050565b6060600061067c61019e6009808651610aa79190614669565b866116ce565b6065546001600160a01b031633148015610acf57506001600160a01b03811615155b6040518060400160405280600381526020016231303160e81b81525090610b095760405162461bcd60e51b81526004016102be9190613997565b506065546001600160a01b038281169116146102f957606580546001600160a01b0383166001600160a01b031990911617905550565b6060610b736040518060a0016040528060608152602001606081526020016060815260200160608152602001606081525090565b606654604080518082018252600e81526d109054d157d5549257d51490525560921b6020820152905163349f642f60e11b81526001600160a01b0390921691829163693ec85e91610bc79190600401613997565b600060405180830381865afa158015610be4573d6000803e3d6000fd5b505050506040513d6000823e601f3d908101601f19168201604052610c0c9190810190614138565b60408381019190915260675490516346ec8d2b60e11b8152600481018890526001600160a01b03909116906000908290638dd91a5690602401600060405180830381865afa158015610c62573d6000803e3d6000fd5b505050506040513d6000823e601f3d908101601f19168201604052610c8a9190810190613df1565b604051630c71ca0360e21b8152600481018a9052602481018990526044810188905290915060009030906331c7280c90606401600060405180830381865afa158015610cda573d6000803e3d6000fd5b505050506040513d6000823e601f3d908101601f19168201604052610d029190810190614138565b805190915015610d4257610d208160405160200161084c919061420d565b604051602001610d309190614229565b60405160208183030381529060405290505b80604051602001610d539190614267565b60408051601f1981840301815291905260608601526080820151610d7689611111565b604051602001610d879291906142ae565b60408051601f19818403018152919052855261010082015160208601526102008201515115610dbc5761020082015160208601525b60606000610dcd8760200151610667565b9092509050600081600e811115610de657610de6613ae1565b1415610df457602087018290525b6040870151606754610e0e906001600160a01b03166110f5565b610e178c611111565b610e208c6111ad565b604051602001610e33949392919061416c565b60408051601f19818403018152918152888101829052885160208a81015160608c01519351610e6d9561084c959293909291839101614680565b604051602001610e7d9190614624565b6040516020818303038152906040529750505050505050509392505050565b600054610100900460ff1615808015610ebc5750600054600160ff909116105b80610ed65750303b158015610ed6575060005460ff166001145b610f395760405162461bcd60e51b815260206004820152602e60248201527f496e697469616c697a61626c653a20636f6e747261637420697320616c72656160448201526d191e481a5b9a5d1a585b1a5e995960921b60648201526084016102be565b6000805460ff191660011790558015610f5c576000805461ff0019166101001790555b606580546001600160a01b038087166001600160a01b031992831617909255606680548684169083161790556067805492851692909116919091179055610fa16117b6565b8015610fe7576000805461ff0019169055604051600181527f7f26b83ff96e1f2b6a682f133852f6798a09c465da95921460cefb38474024989060200160405180910390a15b50505050565b6065546001600160a01b03163314801561100f57506001600160a01b03811615155b6040518060400160405280600381526020016231303160e81b815250906110495760405162461bcd60e51b81526004016102be9190613997565b506067546001600160a01b038281169116146102f957606780546001600160a01b0383166001600160a01b031990911617905550565b6110876114bd565b6001600160a01b0381166110ec5760405162461bcd60e51b815260206004820152602660248201527f4f776e61626c653a206e6577206f776e657220697320746865207a65726f206160448201526564647265737360d01b60648201526084016102be565b6102f981611517565b606061110b6001600160a01b03831660146117e5565b92915050565b6060600061111e83611980565b60010190506000816001600160401b0381111561113d5761113d6139aa565b6040519080825280601f01601f191660200182016040528015611167576020820181803683370190505b5090508181016020015b600019016f181899199a1a9b1b9c1cb0b131b232b360811b600a86061a8153600a85049450846111a0576111a5565b611171565b509392505050565b60606111b882611a58565b6111c5608084901b611a58565b60405161060f60f31b6020820152602281019290925260428201526062016040516020818303038152906040529050919050565b80516060908290158061121857506004815161121591906147a9565b15155b156112335760408051600080825260208201909252906111a5565b60006040518060a001604052806080815260200161488c60809139905060006004835161126091906147bd565b61126b9060036141ee565b9050600061127a8260206147d1565b6001600160401b03811115611291576112916139aa565b6040519080825280601f01601f1916602001820160405280156112bb576020820181803683370190505b5090508351840151603d60ff821614156112ea57600183039250613d3d61ffff821614156112ea576001830392505b50818152600183018485518101602084015b8183101561135957600483019250825160ff8082168601511660ff808360081c168701511660061b0160ff808360101c1687015116600c1b60ff808460181c168801511660121b010190508060e81b8252506003810190506112fc565b509298975050505050505050565b606060006060611384848551600561137f91906141ee565b611c0a565b9092509050600082600e81111561139d5761139d613ae1565b14156114a45760005b8181815181106113b8576113b8614051565b01602001516001600160f81b0319166113d0576113f0565b806113da8161411d565b91505081518114156113eb576113f0565b6113a6565b6000816001600160401b0381111561140a5761140a6139aa565b6040519080825280601f01601f191660200182016040528015611434576020820181803683370190505b50905060005b8281101561149a5783818151811061145457611454614051565b602001015160f81c60f81b82828151811061147157611471614051565b60200101906001600160f81b031916908160001a905350806114928161411d565b91505061143a565b5093506114b79050565b6040518060200160405280600081525092505b50915091565b6033546001600160a01b031633146106975760405162461bcd60e51b815260206004820181905260248201527f4f776e61626c653a2063616c6c6572206973206e6f7420746865206f776e657260448201526064016102be565b603380546001600160a01b038381166001600160a01b0319831681179093556040519116919082907f8be0079c531659141344cd1fd0a4f28419497f9722a3daafe3b4186f6b6457e090600090a35050565b606081516000141561158957505060408051602081019091526000815290565b600060405180606001604052806040815260200161484c60409139905060006003845160026115b891906147d1565b6115c291906147bd565b6115cd9060046141ee565b905060006115dc8260206147d1565b6001600160401b038111156115f3576115f36139aa565b6040519080825280601f01601f19166020018201604052801561161d576020820181803683370190505b509050818152600183018586518101602084015b81831015611689576003830192508251603f8160121c168501518253600182019150603f81600c1c168501518253600182019150603f8160061c168501518253600182019150603f8116850151825350600101611631565b6003895106600181146116a357600281146116b4576116c0565b613d3d60f01b6001198301526116c0565b603d60f81b6000198301525b509398975050505050505050565b606060006116dc8585614669565b6116e79060016147d1565b6001600160401b038111156116fe576116fe6139aa565b6040519080825280601f01601f191660200182016040528015611728576020820181803683370190505b50905060005b6117388686614669565b81116117ab5783600161174b88846147d1565b6117559190614669565b8151811061176557611765614051565b602001015160f81c60f81b82828151811061178257611782614051565b60200101906001600160f81b031916908160001a905350806117a38161411d565b91505061172e565b5090505b9392505050565b600054610100900460ff166117dd5760405162461bcd60e51b81526004016102be906147e9565b610697611ebb565b606060006117f48360026141ee565b6117ff9060026147d1565b6001600160401b03811115611816576118166139aa565b6040519080825280601f01601f191660200182016040528015611840576020820181803683370190505b509050600360fc1b8160008151811061185b5761185b614051565b60200101906001600160f81b031916908160001a905350600f60fb1b8160018151811061188a5761188a614051565b60200101906001600160f81b031916908160001a90535060006118ae8460026141ee565b6118b99060016147d1565b90505b6001811115611931576f181899199a1a9b1b9c1cb0b131b232b360811b85600f16601081106118ed576118ed614051565b1a60f81b82828151811061190357611903614051565b60200101906001600160f81b031916908160001a90535060049490941c9361192a81614834565b90506118bc565b5083156117af5760405162461bcd60e51b815260206004820181905260248201527f537472696e67733a20686578206c656e67746820696e73756666696369656e7460448201526064016102be565b60008072184f03e93ff9f4daa797ed6e38ed64bf6a1f0160401b83106119bf5772184f03e93ff9f4daa797ed6e38ed64bf6a1f0160401b830492506040015b6d04ee2d6d415b85acef810000000083106119eb576d04ee2d6d415b85acef8100000000830492506020015b662386f26fc100008310611a0957662386f26fc10000830492506010015b6305f5e1008310611a21576305f5e100830492506008015b6127108310611a3557612710830492506004015b60648310611a47576064830492506002015b600a831061110b5760010192915050565b7aff00000000000000ff00000000000000ff00000000000000ff00006bffffffff0000000000000000604083901c90811663ffffffff60c01b84161760201c63ffffffff60601b919091166001600160e01b031984161717601081901c9182167eff00000000000000ff00000000000000ff00000000000000ff000000000000821617600890811c7bff00000000000000ff00000000000000ff00000000000000ff000000939093167fff00000000000000ff00000000000000ff00000000000000ff000000000000009290921691909117919091179081901c7e0f000f000f000f000f000f000f000f000f000f000f000f000f000f000f000f167f0f000f000f000f000f000f000f000f000f000f000f000f000f000f000f000f00600492831c161790611ba6827f06060606060606060606060606060606060606060606060606060606060606066147d1565b901c7f0f0f0f0f0f0f0f0f0f0f0f0f0f0f0f0f0f0f0f0f0f0f0f0f0f0f0f0f0f0f0f0f166007611bd691906141ee565b611c00827f30303030303030303030303030303030303030303030303030303030303030306147d1565b61110b91906147d1565b600060606000604051806101000160405280856001600160401b03811115611c3457611c346139aa565b6040519080825280601f01601f191660200182016040528015611c5e576020820181803683370190505b508152602001600081526020018681526020016000815260200160008152602001600081526020016040518060400160405280600f6001611c9f91906147d1565b6001600160401b03811115611cb657611cb66139aa565b604051908082528060200260200182016040528015611cdf578160200160208202803683370190505b5081526040805161012080825261242082019092526020928301929091908201612400803683370190505081525081526020016040518060400160405280600f6001611d2b91906147d1565b6001600160401b03811115611d4257611d426139aa565b604051908082528060200260200182016040528015611d6b578160200160208202803683370190505b50815260408051601e8082526103e0820190925260209283019290919082016103c08036833750505090529052905060008080611da784611eeb565b9050600081600e811115611dbd57611dbd613ae1565b14611dd2579251929450919250611eb4915050565b82611ea957611de2846001612075565b93509050600081600e811115611dfa57611dfa613ae1565b14611e0f579251929450919250611eb4915050565b611e1a846002612075565b92509050600081600e811115611e3257611e32613ae1565b14611e47579251929450919250611eb4915050565b8115611e7b5781600114611e725781600214611e64576003611e84565b611e6d84612146565b611e84565b611e6d846121c0565b611e84846121d5565b9050600081600e811115611e9a57611e9a613ae1565b14611ea457611ea9565b611dd2565b925192945091925050505b9250929050565b600054610100900460ff16611ee25760405162461bcd60e51b81526004016102be906147e9565b61069733611517565b604080516101208082526124208201909252600091829182916020820161240080368337019050509050600091505b6090821015611f54576008818381518110611f3757611f37614051565b602090810291909101015281611f4c8161411d565b925050611f1a565b610100821015611f8f576009818381518110611f7257611f72614051565b602090810291909101015281611f878161411d565b925050611f54565b610118821015611fca576007818381518110611fad57611fad614051565b602090810291909101015281611fc28161411d565b925050611f8f565b610120821015612005576008818381518110611fe857611fe8614051565b602090810291909101015281611ffd8161411d565b925050611fca565b6120188460c001518261012060006123e5565b50600091505b601e82101561205857600581838151811061203b5761203b614051565b6020908102919091010152816120508161411d565b92505061201e565b61206a8460e0015182601e60006123e5565b506000949350505050565b608082015160009081905b838560a00151101561210957846040015151856060015114156120ab57600160009250925050611eb4565b60a08501516040860151606087018051906120c58261411d565b9052815181106120d7576120d7614051565b602001015160f81c60f81b60f81c60ff16901b8117905060088560a00181815161210191906147d1565b905250612080565b80841c608086015260a085018051859190612125908390614669565b9052506000612137600180871b614669565b60009792169550909350505050565b6000612165604051806040016040528060608152602001606081525090565b60408051808201909152606080825260208201526000612184856126b0565b90945092509050600081600e81111561219f5761219f613ae1565b146121ac57949350505050565b6121b7858484612d66565b95945050505050565b600061110b828360c001518460e00151612d66565b60006080820181905260a0820181905260408201515160608301518291906121fe9060046147d1565b111561220d5750600192915050565b6040830151606084018051906122228261411d565b90528151811061223457612234614051565b0160200151604084015160608501805160f89390931c9350600892906122598261411d565b90528151811061226b5761226b614051565b602001015160f81c60f81b60f81c60ff16901b81179050801960ff16836040015184606001805180919061229e9061411d565b9052815181106122b0576122b0614051565b016020015160f81c1415806122fb5750604083015160608401805160ff841960081c1692916122de8261411d565b9052815181106122f0576122f0614051565b016020015160f81c14155b156123095750600492915050565b82604001515181846060015161231f91906147d1565b111561232e5750600192915050565b82515160208401516123419083906147d1565b11156123505750600292915050565b80156123dc57612361600182614669565b9050826040015183606001805180919061237a9061411d565b90528151811061238c5761238c614051565b602001015160f81c60f81b83600001518460200180518091906123ae9061411d565b9052815181106123c0576123c0614051565b60200101906001600160f81b031916908160001a905350612350565b50600092915050565b6000806000806123f36138c2565b600092505b600f83116124355760008960000151848151811061241857612418614051565b60209081029190910101528261242d8161411d565b9350506123f8565b600093505b868410156124a15788518861244f86896147d1565b8151811061245f5761245f614051565b60200260200101518151811061247757612477614051565b60200260200101805180919061248c9061411d565b905250836124998161411d565b94505061243a565b8689600001516000815181106124b9576124b9614051565b602002602001015114156124d45760009450505050506126a8565b60019150600192505b600f8311612557578851805160019390931b928490811061250057612500614051565b602002602001015182101561251c57600e9450505050506126a8565b885180518490811061253057612530614051565b6020026020010151826125439190614669565b91508261254f8161411d565b9350506124dd565b60006020820152600192505b600f8310156125dc57885180518490811061258057612580614051565b602002602001015181846010811061259a5761259a614051565b60200201516125a991906147d1565b816125b58560016147d1565b601081106125c5576125c5614051565b6020020152826125d48161411d565b935050612563565b600093505b8684101561268f57876125f485886147d1565b8151811061260457612604614051565b602002602001015160001461267d5760208901518490828a612626848b6147d1565b8151811061263657612636614051565b60200260200101516010811061264e5761264e614051565b6020020180519061265e8261411d565b90528151811061267057612670614051565b6020026020010181815250505b836126878161411d565b9450506125e1565b6000821161269e5760006126a1565b600e5b9450505050505b949350505050565b60006126cf604051806040016040528060608152602001606081525090565b60408051808201909152606080825260208201526000808080806126f6601e61011e6147d1565b6001600160401b0381111561270d5761270d6139aa565b604051908082528060200260200182016040528015612736578160200160208202803683370190505b50905060006040518060400160405280600f600161275491906147d1565b6001600160401b0381111561276b5761276b6139aa565b604051908082528060200260200182016040528015612794578160200160208202803683370190505b5081526040805161011e8082526123e0820190925260209283019290919082016123c08036833701905050815250905060006040518060400160405280600f60016127df91906147d1565b6001600160401b038111156127f6576127f66139aa565b60405190808252806020026020018201604052801561281f578160200160208202803683370190505b50815260408051601e8082526103e0820190925260209283019290919082016103c0803683375050509052905060006128598c6005612075565b98509450600085600e81111561287157612871613ae1565b1461288957509298509650909450612d5f9350505050565b612895610101896147d1565b97506128a28c6005612075565b97509450600085600e8111156128ba576128ba613ae1565b146128d257509298509650909450612d5f9350505050565b6128dd6001886147d1565b965061011e8811806128ef5750601e87115b156129095750600599509097509550612d5f945050505050565b6129128c613591565b9095509350600085600e81111561292b5761292b613ae1565b1461294357509298509650909450612d5f9350505050565b6129518385601360006123e5565b9450600085600e81111561296757612967613ae1565b146129815750600699509097509550612d5f945050505050565b600095505b61299087896147d1565b861015612b89576000806129a48e866137b3565b9097509150600087600e8111156129bd576129bd613ae1565b146129d75750949a509198509650612d5f95505050505050565b6010821015612a0f578186896129ec8161411d565b9a50815181106129fe576129fe614051565b602002602001018181525050612b82565b5060006010821415612aae5787612a38575060079b50929950909750612d5f9650505050505050565b85612a4460018a614669565b81518110612a5457612a54614051565b60200260200101519050612a698e6002612075565b9097509250600087600e811115612a8257612a82613ae1565b14612a9c5750949a509198509650612d5f95505050505050565b612aa78360036147d1565b9150612b0e565b8160111415612ac257612a698e6003612075565b612acd8e6007612075565b9097509250600087600e811115612ae657612ae6613ae1565b14612b005750949a509198509650612d5f95505050505050565b612b0b83600b6147d1565b91505b612b18898b6147d1565b612b22838a6147d1565b1115612b40575060089b50929950909750612d5f9650505050505050565b8115612b8257612b51600183614669565b9150808689612b5f8161411d565b9a5081518110612b7157612b71614051565b602002602001018181525050612b40565b5050612986565b8361010081518110612b9d57612b9d614051565b602002602001015160001415612bc25750600b99509097509550612d5f945050505050565b612bcf83858a60006123e5565b9450600085600e811115612be557612be5613ae1565b14158015612c6f5750600185600e811115612c0257612c02613ae1565b1480612c1f5750600285600e811115612c1d57612c1d613ae1565b145b80612c6f5750825180516001908110612c3a57612c3a614051565b60200260200101518360000151600081518110612c5957612c59614051565b6020026020010151612c6b91906147d1565b8814155b15612c895750600999509097509550612d5f945050505050565b612c958285898b6123e5565b9450600085600e811115612cab57612cab613ae1565b14158015612d355750600185600e811115612cc857612cc8613ae1565b1480612ce55750600285600e811115612ce357612ce3613ae1565b145b80612d355750815180516001908110612d0057612d00614051565b60200260200101518260000151600081518110612d1f57612d1f614051565b6020026020010151612d3191906147d1565b8714155b15612d4f5750600a99509097509550612d5f945050505050565b5060009950909750955050505050505b9193909250565b6000806000806000604051806103a00160405280600361ffff168152602001600461ffff168152602001600561ffff168152602001600661ffff168152602001600761ffff168152602001600861ffff168152602001600961ffff168152602001600a61ffff168152602001600b61ffff168152602001600d61ffff168152602001600f61ffff168152602001601161ffff168152602001601361ffff168152602001601761ffff168152602001601b61ffff168152602001601f61ffff168152602001602361ffff168152602001602b61ffff168152602001603361ffff168152602001603b61ffff168152602001604361ffff168152602001605361ffff168152602001606361ffff168152602001607361ffff168152602001608361ffff16815260200160a361ffff16815260200160c361ffff16815260200160e361ffff16815260200161010261ffff1681525090506000604051806103a00160405280600060ff168152602001600060ff168152602001600060ff168152602001600060ff168152602001600060ff168152602001600060ff168152602001600060ff168152602001600060ff168152602001600160ff168152602001600160ff168152602001600160ff168152602001600160ff168152602001600260ff168152602001600260ff168152602001600260ff168152602001600260ff168152602001600360ff168152602001600360ff168152602001600360ff168152602001600360ff168152602001600460ff168152602001600460ff168152602001600460ff168152602001600460ff168152602001600560ff168152602001600560ff168152602001600560ff168152602001600560ff168152602001600060ff1681525090506000604051806103c00160405280600161ffff168152602001600261ffff168152602001600361ffff168152602001600461ffff168152602001600561ffff168152602001600761ffff168152602001600961ffff168152602001600d61ffff168152602001601161ffff168152602001601961ffff168152602001602161ffff168152602001603161ffff168152602001604161ffff168152602001606161ffff168152602001608161ffff16815260200160c161ffff16815260200161010161ffff16815260200161018161ffff16815260200161020161ffff16815260200161030161ffff16815260200161040161ffff16815260200161060161ffff16815260200161080161ffff168152602001610c0161ffff16815260200161100161ffff16815260200161180161ffff16815260200161200161ffff16815260200161300161ffff16815260200161400161ffff16815260200161600161ffff1681525090506000604051806103c00160405280600060ff168152602001600060ff168152602001600060ff168152602001600060ff168152602001600160ff168152602001600160ff168152602001600260ff168152602001600260ff168152602001600360ff168152602001600360ff168152602001600460ff168152602001600460ff168152602001600560ff168152602001600560ff168152602001600660ff168152602001600660ff168152602001600760ff168152602001600760ff168152602001600860ff168152602001600860ff168152602001600960ff168152602001600960ff168152602001600a60ff168152602001600a60ff168152602001600b60ff168152602001600b60ff168152602001600c60ff168152602001600c60ff168152602001600d60ff168152602001600d60ff16815250905060005b876101001461357f576132a08c8c6137b3565b98509050600081600e8111156132b8576132b8613ae1565b146132cc5797506117af9650505050505050565b610100881015613342578b515160208d015114156132f5576002985050505050505050506117af565b8760f81b8c600001518d602001518151811061331357613313614051565b60200101906001600160f81b031916908160001a90535060208c0180519061333a8261411d565b90525061328d565b61010088111561356d57600061335a6101018a614669565b9850601d891061337657600c99505050505050505050506117af565b6133998d868b601d811061338c5761338c614051565b602002015160ff16612075565b9092509050600082600e8111156133b2576133b2613ae1565b146133c7575097506117af9650505050505050565b80868a601d81106133da576133da614051565b602002015161ffff166133ed91906147d1565b97506133f98d8c6137b3565b99509150600082600e81111561341157613411613ae1565b14613426575097506117af9650505050505050565b61343c8d848b601e811061338c5761338c614051565b9092509050600082600e81111561345557613455613ae1565b1461346a575097506117af9650505050505050565b80848a601e811061347d5761347d614051565b602002015161ffff1661349091906147d1565b96508c602001518711156134b057600d99505050505050505050506117af565b8c515160208e01516134c3908a906147d1565b11156134db57600299505050505050505050506117af565b8715613567576134ec600189614669565b97508c60000151878e602001516135039190614669565b8151811061351357613513614051565b602001015160f81c60f81b8d600001518e602001518151811061353857613538614051565b60200101906001600160f81b031916908160001a90535060208d0180519061355f8261411d565b9052506134db565b5061328d565b868c60200181815161333a91906147d1565b5060009b9a5050505050505050505050565b600060608180806135a5601e61011e6147d1565b6001600160401b038111156135bc576135bc6139aa565b6040519080825280602002602001820160405280156135e5578160200160208202803683370190505b506040805161026081018252601081526011602082015260129181019190915260006060820181905260086080830152600760a0830152600960c0830152600660e0830152600a6101008301526005610120830152600b61014083015260046101608301819052600c61018084015260036101a0840152600d6101c084015260026101e0840152600e6102008401526001610220840152600f61024084015292935091613693908990612075565b95509150600082600e8111156136ab576136ab613ae1565b146136bc5750969095509350505050565b6136c76004866147d1565b9450600093505b84841015613750576136e1886003612075565b848387601381106136f4576136f4614051565b602002015160ff168151811061370c5761370c614051565b60209081029190910101529150600082600e81111561372d5761372d613ae1565b1461373e5750969095509350505050565b836137488161411d565b9450506136ce565b60138410156137a35760008382866013811061376e5761376e614051565b602002015160ff168151811061378657613786614051565b60209081029190910101528361379b8161411d565b945050613750565b5060009791965090945050505050565b600080600181808080805b600f86116138af5760006137d38b6001612075565b9092509050600082600e8111156137ec576137ec613ae1565b146138035750965060009550611eb4945050505050565b89518051968217968890811061381b5761381b614051565b60200260200101519350838561383191906147d1565b86101561387c5760208a015160009061384a8789614669565b61385490866147d1565b8151811061386457613864614051565b60200260200101519850985050505050505050611eb4565b61388684846147d1565b925061389284866147d1565b600196871b961b94508690506138a78161411d565b9650506137be565b50600c9960009950975050505050505050565b6040518061020001604052806010906020820280368337509192915050565b6001600160a01b03811681146102f957600080fd5b60006020828403121561390857600080fd5b81356117af816138e1565b60008060006060848603121561392857600080fd5b505081359360208301359350604090920135919050565b60005b8381101561395a578181015183820152602001613942565b83811115610fe75750506000910152565b6000815180845261398381602086016020860161393f565b601f01601f19169290920160200192915050565b6020815260006117af602083018461396b565b634e487b7160e01b600052604160045260246000fd5b60405160a081016001600160401b03811182821017156139e2576139e26139aa565b60405290565b60405161026081016001600160401b03811182821017156139e2576139e26139aa565b604051601f8201601f191681016001600160401b0381118282101715613a3357613a336139aa565b604052919050565b60006001600160401b03821115613a5457613a546139aa565b50601f01601f191660200190565b600060208284031215613a7457600080fd5b81356001600160401b03811115613a8a57600080fd5b8201601f81018413613a9b57600080fd5b8035613aae613aa982613a3b565b613a0b565b818152856020838501011115613ac357600080fd5b81602084016020830137600091810160200191909152949350505050565b634e487b7160e01b600052602160045260246000fd5b604081526000613b0a604083018561396b565b9050600f8310613b2a57634e487b7160e01b600052602160045260246000fd5b8260208301529392505050565b600060208284031215613b4957600080fd5b5035919050565b600080600060608486031215613b6557600080fd5b8335613b70816138e1565b92506020840135613b80816138e1565b91506040840135613b90816138e1565b809150509250925092565b805162ffffff81168114613bae57600080fd5b919050565b8051613bae816138e1565b600082601f830112613bcf57600080fd5b8151613bdd613aa982613a3b565b818152846020838601011115613bf257600080fd5b6126a882602083016020870161393f565b600060a08284031215613c1557600080fd5b613c1d6139c0565b905081516001600160401b0380821115613c3657600080fd5b613c4285838601613bbe565b83526020840151915080821115613c5857600080fd5b613c6485838601613bbe565b60208401526040840151915080821115613c7d57600080fd5b613c8985838601613bbe565b60408401526060840151915080821115613ca257600080fd5b613cae85838601613bbe565b60608401526080840151915080821115613cc757600080fd5b50613cd484828501613bbe565b60808301525092915050565b60006001600160401b03821115613cf957613cf96139aa565b5060051b60200190565b600082601f830112613d1457600080fd5b81516020613d24613aa983613ce0565b82815260059290921b84018101918181019086841115613d4357600080fd5b8286015b84811015613d825780516001600160401b03811115613d665760008081fd5b613d748986838b0101613bbe565b845250918301918301613d47565b509695505050505050565b600082601f830112613d9e57600080fd5b81516020613dae613aa983613ce0565b82815260059290921b84018101918181019086841115613dcd57600080fd5b8286015b84811015613d82578051613de4816138e1565b8352918301918301613dd1565b600060208284031215613e0357600080fd5b81516001600160401b0380821115613e1a57600080fd5b908301906102608286031215613e2f57600080fd5b613e376139e8565b613e4083613b9b565b8152613e4e60208401613b9b565b602082015260408301516040820152613e6960608401613bb3565b6060820152608083015182811115613e8057600080fd5b613e8c87828601613bbe565b60808301525060a083015182811115613ea457600080fd5b613eb087828601613bbe565b60a083015250613ec260c08401613bb3565b60c082015260e083015182811115613ed957600080fd5b613ee587828601613bbe565b60e0830152506101008084015183811115613eff57600080fd5b613f0b88828701613bbe565b8284015250506101208084015183811115613f2557600080fd5b613f3188828701613bbe565b8284015250506101408084015183811115613f4b57600080fd5b613f5788828701613c03565b8284015250506101608084015183811115613f7157600080fd5b613f7d88828701613d03565b8284015250506101808084015183811115613f9757600080fd5b613fa388828701613d03565b8284015250506101a08084015183811115613fbd57600080fd5b613fc988828701613bbe565b8284015250506101c08084015181830152506101e0613fe9818501613bb3565b90820152610200838101518381111561400157600080fd5b61400d88828701613bbe565b828401525050610220808401518381111561402757600080fd5b61403388828701613d8d565b91830191909152506102409283015192810192909252509392505050565b634e487b7160e01b600052603260045260246000fd5b6000806040838503121561407a57600080fd5b82516001600160401b0381111561409057600080fd5b61409c85828601613bbe565b9250506020830151600f81106140b157600080fd5b809150509250929050565b600081516140ce81856020860161393f565b9290920192915050565b600083516140ea81846020880161393f565b8351908301906140fe81836020880161393f565b01949350505050565b634e487b7160e01b600052601160045260246000fd5b600060001982141561413157614131614107565b5060010190565b60006020828403121561414a57600080fd5b81516001600160401b0381111561416057600080fd5b6126a884828501613bbe565b6000855161417e818460208a0161393f565b8083019050602f60f81b808252865161419e816001850160208b0161393f565b600192019182015284516141b981600284016020890161393f565b653f736565643d60d01b6002929091019182015283516141e081600884016020880161393f565b016008019695505050505050565b600081600019048311821515161561420857614208614107565b500290565b6000825161421f81846020870161393f565b9190910192915050565b7519185d184e9d195e1d0bda1d1b5b0ed8985cd94d8d0b60521b81526000825161425a81601685016020870161393f565b9190910160160192915050565b7216101130b734b6b0ba34b7b72fbab936111d1160691b8152815160009061429681601385016020870161393f565b601160f91b6013939091019283015250601401919050565b600083516142c081846020880161393f565b61202360f01b90830190815283516142df81600284016020880161393f565b01600201949350505050565b600060ff821660ff84168060ff0382111561430857614308614107565b019392505050565b6000845161432281846020890161393f565b740163d913a3930b4ba2fba3cb832911d10112634b11605d1b908301908152845161435481601584016020890161393f565b6c111610113b30b63ab2911d101160991b60159290910191820152835161438281602284016020880161393f565b61227d60f01b6022929091019182015260240195945050505050565b600060ff821660ff8114156143b5576143b5614107565b60010192915050565b7f2c2261747472696275746573223a205b7b2274726169745f74797065223a202281527f436f6c6c656374696f6e2041646472657373222c202276616c7565223a20220060208201526000865161441c81603f850160208b0161393f565b61227d60f01b603f9184019182018190527f2c7b2274726169745f74797065223a202243726561746f72222c202276616c7560418301526432911d101160d91b60618301528751614474816066850160208c0161393f565b60669201918201527f2c7b2274726169745f74797065223a202243726561746f72204164647265737360688201526c111610113b30b63ab2911d101160991b60888201526145336145266145206144d561451a6144e382609588018d6140bc565b61227d60f01b815260020190565b7f2c7b2274726169745f74797065223a20224c6963656e7365222c202276616c7581526432911d101160d91b602082015260250190565b896140bc565b866140bc565b605d60f81b815260010190565b98975050505050505050565b683d913730b6b2911d1160b91b81528551600090614564816009850160208b0161393f565b601160f91b60099184019182018190526f16113232b9b1b934b83a34b7b7111d1160811b600a83015287516145a081601a850160208c0161393f565b601a920191820181905269161134b6b0b3b2911d1160b11b601b83015286516145d0816025850160208b0161393f565b602592019182015284516145eb81602684016020890161393f565b845191019061460181602684016020880161393f565b614617602682840101607d60f81b815260010190565b9998505050505050505050565b7f646174613a6170706c69636174696f6e2f6a736f6e3b6261736536342c00000081526000825161465c81601d85016020870161393f565b91909101601d0192915050565b60008282101561467b5761467b614107565b500390565b683d913730b6b2911d1160b91b815285516000906146a5816009850160208b0161393f565b711116113232b9b1b934b83a34b7b7111d101160711b60099184019182015286516146d781601b840160208b0161393f565b601160f91b601b92909101918201526b16101134b6b0b3b2911d101160a11b601c820152855161470e816028840160208a0161393f565b6d1331b0b83a3ab9329e9a9818181160911b60289290910191820152845161473d81603684016020890161393f565b7016101130ba3a3934b13aba32b9911d101160791b6036929091019182015261453361478661476f60478401876140bc565b6a1331b0b83a3ab9329e981160a91b8152600b0190565b607d60f81b815260010190565b634e487b7160e01b600052601260045260246000fd5b6000826147b8576147b8614793565b500690565b6000826147cc576147cc614793565b500490565b600082198211156147e4576147e4614107565b500190565b6020808252602b908201527f496e697469616c697a61626c653a20636f6e7472616374206973206e6f74206960408201526a6e697469616c697a696e6760a81b606082015260800190565b60008161484357614843614107565b50600019019056fe4142434445464748494a4b4c4d4e4f505152535455565758595a6162636465666768696a6b6c6d6e6f707172737475767778797a303132333435363738392b2f000000000000000000000000000000000000000000000000000000000000000000000000000000000000003e0000003f3435363738393a3b3c3d00000000000000000102030405060708090a0b0c0d0e0f101112131415161718190000000000001a1b1c1d1e1f202122232425262728292a2b2c2d2e2f303132330000000000a2646970667358221220a43024796e9a76bf56ce25bc833d03d06b518032fcfee2e44cf16ed23dc3a66564736f6c634300080c0033",
  "linkReferences": {},
  "deployedLinkReferences": {}
}