{
  "_format": "hh-sol-artifact-1",
  "contractName": "GenerativeProjectData",
  "sourceName": "contracts/data/GenerativeProjectData.sol",
  "abi": [
    {
      "anonymous": false,
      "inputs": [
        {
          "indexed": false,
          "internalType": "uint8",
          "name": "version",
          "type": "uint8"
        }
      ],
      "name": "Initialized",
      "type": "event"
    },
    {
      "anonymous": false,
      "inputs": [
        {
          "indexed": true,
          "internalType": "address",
          "name": "previousOwner",
          "type": "address"
        },
        {
          "indexed": true,
          "internalType": "address",
          "name": "newOwner",
          "type": "address"
        }
      ],
      "name": "OwnershipTransferred",
      "type": "event"
    },
    {
      "inputs": [],
      "name": "_admin",
      "outputs": [
        {
          "internalType": "address",
          "name": "",
          "type": "address"
        }
      ],
      "stateMutability": "view",
      "type": "function"
    },
    {
      "inputs": [],
      "name": "_generativeProjectAddr",
      "outputs": [
        {
          "internalType": "address",
          "name": "",
          "type": "address"
        }
      ],
      "stateMutability": "view",
      "type": "function"
    },
    {
      "inputs": [],
      "name": "_paramAddr",
      "outputs": [
        {
          "internalType": "address",
          "name": "",
          "type": "address"
        }
      ],
      "stateMutability": "view",
      "type": "function"
    },
    {
      "inputs": [
        {
          "internalType": "address",
          "name": "newAdm",
          "type": "address"
        }
      ],
      "name": "changeAdmin",
      "outputs": [],
      "stateMutability": "nonpayable",
      "type": "function"
    },
    {
      "inputs": [
        {
          "internalType": "address",
          "name": "newAddr",
          "type": "address"
        }
      ],
      "name": "changeParamAddress",
      "outputs": [],
      "stateMutability": "nonpayable",
      "type": "function"
    },
    {
      "inputs": [
        {
          "internalType": "address",
          "name": "newAddr",
          "type": "address"
        }
      ],
      "name": "changeProjectAddress",
      "outputs": [],
      "stateMutability": "nonpayable",
      "type": "function"
    },
    {
      "inputs": [],
      "name": "getChainID",
      "outputs": [
        {
          "internalType": "uint256",
          "name": "",
          "type": "uint256"
        }
      ],
      "stateMutability": "view",
      "type": "function"
    },
    {
      "inputs": [
        {
          "internalType": "string",
          "name": "script",
          "type": "string"
        }
      ],
      "name": "inflateScript",
      "outputs": [
        {
          "internalType": "string",
          "name": "result",
          "type": "string"
        },
        {
          "internalType": "enum Inflate.ErrorCode",
          "name": "err",
          "type": "uint8"
        }
      ],
      "stateMutability": "view",
      "type": "function"
    },
    {
      "inputs": [
        {
          "internalType": "string",
          "name": "data",
          "type": "string"
        }
      ],
      "name": "inflateString",
      "outputs": [
        {
          "internalType": "string",
          "name": "result",
          "type": "string"
        },
        {
          "internalType": "enum Inflate.ErrorCode",
          "name": "err",
          "type": "uint8"
        }
      ],
      "stateMutability": "view",
      "type": "function"
    },
    {
      "inputs": [
        {
          "internalType": "address",
          "name": "admin",
          "type": "address"
        },
        {
          "internalType": "address",
          "name": "paramAddr",
          "type": "address"
        },
        {
          "internalType": "address",
          "name": "generativeProjectAddr",
          "type": "address"
        }
      ],
      "name": "initialize",
      "outputs": [],
      "stateMutability": "nonpayable",
      "type": "function"
    },
    {
      "inputs": [],
      "name": "owner",
      "outputs": [
        {
          "internalType": "address",
          "name": "",
          "type": "address"
        }
      ],
      "stateMutability": "view",
      "type": "function"
    },
    {
      "inputs": [
        {
          "internalType": "uint256",
          "name": "projectId",
          "type": "uint256"
        }
      ],
      "name": "projectURI",
      "outputs": [
        {
          "internalType": "string",
          "name": "result",
          "type": "string"
        }
      ],
      "stateMutability": "view",
      "type": "function"
    },
    {
      "inputs": [],
      "name": "renounceOwnership",
      "outputs": [],
      "stateMutability": "nonpayable",
      "type": "function"
    },
    {
      "inputs": [
        {
          "internalType": "uint256",
          "name": "projectId",
          "type": "uint256"
        },
        {
          "internalType": "uint256",
          "name": "tokenId",
          "type": "uint256"
        },
        {
          "internalType": "bytes32",
          "name": "seed",
          "type": "bytes32"
        }
      ],
      "name": "tokenHTML",
      "outputs": [
        {
          "internalType": "string",
          "name": "result",
          "type": "string"
        }
      ],
      "stateMutability": "view",
      "type": "function"
    },
    {
      "inputs": [
        {
          "internalType": "uint256",
          "name": "projectId",
          "type": "uint256"
        },
        {
          "internalType": "uint256",
          "name": "tokenId",
          "type": "uint256"
        },
        {
          "internalType": "bytes32",
          "name": "seed",
          "type": "bytes32"
        }
      ],
      "name": "tokenURI",
      "outputs": [
        {
          "internalType": "string",
          "name": "result",
          "type": "string"
        }
      ],
      "stateMutability": "view",
      "type": "function"
    },
    {
      "inputs": [
        {
          "internalType": "address",
          "name": "newOwner",
          "type": "address"
        }
      ],
      "name": "transferOwnership",
      "outputs": [],
      "stateMutability": "nonpayable",
      "type": "function"
    }
  ],
  "bytecode": "0x608060405234801561001057600080fd5b506149b1806100206000396000f3fe608060405234801561001057600080fd5b50600436106101005760003560e01c80637af34af211610097578063c0c53b8b11610066578063c0c53b8b14610211578063e808285814610224578063f2fde38b14610237578063f4a290f71461024a57600080fd5b80637af34af2146101c75780638da5cb5b146101da5780638f283970146101eb57806394139301146101fe57600080fd5b8063567fdcf3116100d3578063567fdcf3146101785780636e973cf21461018b578063715018a6146101ac57806379ebc6f0146101b457600080fd5b806301bc45c91461010557806316a5041f1461013557806331c7280c1461014a578063564b81ef1461016a575b600080fd5b606554610118906001600160a01b031681565b6040516001600160a01b0390911681526020015b60405180910390f35b6101486101433660046138b2565b61025d565b005b61015d6101583660046138cf565b6102f7565b60405161012c9190613953565b60405146815260200161012c565b606754610118906001600160a01b031681565b61019e610199366004613a1e565b6104f9565b60405161012c929190613ab3565b610148610517565b61015d6101c2366004613af3565b61052b565b61019e6101d5366004613a1e565b610920565b6033546001600160a01b0316610118565b6101486101f93660046138b2565b61093f565b61015d61020c3660046138cf565b6109d1565b61014861021f366004613b0c565b610e5e565b6101486102323660046138b2565b610faf565b6101486102453660046138b2565b611041565b606654610118906001600160a01b031681565b6065546001600160a01b03163314801561027f57506001600160a01b03811615155b6040518060400160405280600381526020016231303160e81b815250906102c25760405162461bcd60e51b81526004016102b99190613953565b60405180910390fd5b506066546001600160a01b038281169116146102f457606680546001600160a01b0319166001600160a01b0383161790555b50565b6067546040516346ec8d2b60e11b8152600481018590526060916001600160a01b0316906000908290638dd91a5690602401600060405180830381865afa158015610346573d6000803e3d6000fd5b505050506040513d6000823e601f3d908101601f1916820160405261036e9190810190613dad565b9050600060405180602001604052806000815250905060606000805b846101800151518110156104eb57600085610180015182815181106103b1576103b161400d565b60200260200101515111156104d957306001600160a01b0316636e973cf286610180015183815181106103e6576103e661400d565b60200260200101516040518263ffffffff1660e01b815260040161040a9190613953565b600060405180830381865afa158015610427573d6000803e3d6000fd5b505050506040513d6000823e601f3d908101601f1916820160405261044f9190810190614023565b9093509150600082600e81111561046857610468613a9d565b146104b4578385610180015182815181106104855761048561400d565b602002602001015160405160200161049e929190614094565b60405160208183030381529060405293506104d9565b83836040516020016104c7929190614094565b60405160208183030381529060405293505b806104e3816140d9565b91505061038a565b509198975050505050505050565b6060600061050e610509846110b7565b611229565b91509150915091565b61051f61137f565b61052960006113d9565b565b60606105876040518061010001604052806060815260200160006001600160a01b031681526020016060815260200160608152602001606081526020016060815260200160006001600160a01b03168152602001606081525090565b6067546040516346ec8d2b60e11b8152600481018590526001600160a01b03909116906000908290638dd91a5690602401600060405180830381865afa1580156105d5573d6000803e3d6000fd5b505050506040513d6000823e601f3d908101601f191682016040526105fd9190810190613dad565b9050600061060e620f4240876140f4565b90506000306001600160a01b03166331c7280c88848560405160200161063691815260200190565b604051602081830303815290604052805190602001206040518463ffffffff1660e01b815260040161067b939291909283526020830191909152604082015260600190565b600060405180830381865afa158015610698573d6000803e3d6000fd5b505050506040513d6000823e601f3d908101601f191682016040526106c09190810190614113565b805190915015610714576106f2816040516020016106de9190614147565b60405160208183030381529060405261142b565b6040516020016107029190614163565b60405160208183030381529060405290505b60008160405160200161072791906141a1565b6040516020818303038152906040529050836080015161074689611590565b6040516020016107579291906141e8565b60408051601f1981840301815291815287015261010084015160808701819052606090600090610786906104f9565b9092509050600081600e81111561079f5761079f613a9d565b14156107ad57608088018290525b610120860151606089015260a08089018490526101e08701516001600160a01b0390811660c0808c0191909152880151166020808b019190915290870151895260408051918201905260008082525b876101600151518160ff16101561087c578161082461081c836001614225565b60ff16611590565b8961016001518360ff168151811061083e5761083e61400d565b60200260200101516040516020016108589392919061424a565b60405160208183030381529060405291508080610874906142d8565b9150506107fc565b5061088a8960c00151611624565b895160208b015161089a90611624565b8960e00151846040516020016108b49594939291906142f8565b60408051601f1981840301815291815260e08b018290528a81015160808c015160608d015160a08e015193516108f1956106de9591602001614479565b604051602001610901919061455e565b6040516020818303038152906040529950505050505050505050919050565b6060600061050e610199600980865161093991906145a3565b86611640565b6065546001600160a01b03163314801561096157506001600160a01b03811615155b6040518060400160405280600381526020016231303160e81b8152509061099b5760405162461bcd60e51b81526004016102b99190613953565b506065546001600160a01b038281169116146102f457606580546001600160a01b0383166001600160a01b031990911617905550565b6066546067546040516346ec8d2b60e11b8152600481018690526060926001600160a01b039081169216906000908290638dd91a5690602401600060405180830381865afa158015610a27573d6000803e3d6000fd5b505050506040513d6000823e601f3d908101601f19168201604052610a4f9190810190613dad565b604051630c71ca0360e21b815260048101899052602481018890526044810187905290915060009030906331c7280c90606401600060405180830381865afa158015610a9f573d6000803e3d6000fd5b505050506040513d6000823e601f3d908101601f19168201604052610ac79190810190614113565b805190915015610b0b57610ae5816040516020016106de9190614147565b604051602001610af59190614163565b6040516020818303038152906040529050610c38565b306001600160a01b031663564b81ef6040518163ffffffff1660e01b8152600401602060405180830381865afa158015610b49573d6000803e3d6000fd5b505050506040513d601f19601f82011682018060405250810190610b6d91906145ba565b604080518082018252600b81526a4246535f4144445245535360a81b6020820152905163bf40fac160e01b81526001600160a01b0387169163bf40fac191610bb89190600401613953565b602060405180830381865afa158015610bd5573d6000803e3d6000fd5b505050506040513d601f19601f82011682018060405250810190610bf991906145d3565b610c0233611624565b610c0b89611726565b604051602001610c1e94939291906145f0565b604051602081830303815290604052945050505050610e57565b610c6a6040518060a0016040528060608152602001606081526020016060815260200160608152602001606081525090565b81604051602001610c7b91906141a1565b60408051601f19818403018152918152606083019190915280518082018252600e81526d109054d157d5549257d51490525560921b6020820152905163349f642f60e11b81526001600160a01b0387169163693ec85e91610cdf9190600401613953565b600060405180830381865afa158015610cfc573d6000803e3d6000fd5b505050506040513d6000823e601f3d908101601f19168201604052610d249190810190614113565b60408201526080830151610d3789611590565b604051602001610d489291906141e8565b60408051601f19818403018152919052815261010083015160208201526102008301515115610d7d5761020083015160208201525b60606000610d8e83602001516104f9565b9092509050600081600e811115610da757610da7613a9d565b1415610db557602083018290525b6040830151606754610dcf906001600160a01b0316611624565b610dd88c611590565b610de18c611726565b604051602001610df4949392919061466e565b60408051601f19818403018152918152848101829052845160208681015160608801519351610e2e956106de9592939092918391016146f0565b604051602001610e3e919061455e565b6040516020818303038152906040529750505050505050505b9392505050565b600054610100900460ff1615808015610e7e5750600054600160ff909116105b80610e985750303b158015610e98575060005460ff166001145b610efb5760405162461bcd60e51b815260206004820152602e60248201527f496e697469616c697a61626c653a20636f6e747261637420697320616c72656160448201526d191e481a5b9a5d1a585b1a5e995960921b60648201526084016102b9565b6000805460ff191660011790558015610f1e576000805461ff0019166101001790555b606580546001600160a01b038087166001600160a01b031992831617909255606680548684169083161790556067805492851692909116919091179055610f63611772565b8015610fa9576000805461ff0019169055604051600181527f7f26b83ff96e1f2b6a682f133852f6798a09c465da95921460cefb38474024989060200160405180910390a15b50505050565b6065546001600160a01b031633148015610fd157506001600160a01b03811615155b6040518060400160405280600381526020016231303160e81b8152509061100b5760405162461bcd60e51b81526004016102b99190613953565b506067546001600160a01b038281169116146102f457606780546001600160a01b0383166001600160a01b031990911617905550565b61104961137f565b6001600160a01b0381166110ae5760405162461bcd60e51b815260206004820152602660248201527f4f776e61626c653a206e6577206f776e657220697320746865207a65726f206160448201526564647265737360d01b60648201526084016102b9565b6102f4816113d9565b8051606090829015806110d65750600481516110d39190614819565b15155b156110f55760408051600080825260208201909252905b509392505050565b60006040518060a00160405280608081526020016148fc608091399050600060048351611122919061482d565b61112d9060036140f4565b9050600061113c826020614841565b6001600160401b0381111561115357611153613966565b6040519080825280601f01601f19166020018201604052801561117d576020820181803683370190505b5090508351840151603d60ff821614156111ac57600183039250613d3d61ffff821614156111ac576001830392505b50818152600183018485518101602084015b8183101561121b57600483019250825160ff8082168601511660ff808360081c168701511660061b0160ff808360101c1687015116600c1b60ff808460181c168801511660121b010190508060e81b8252506003810190506111be565b509298975050505050505050565b606060006060611246848551600561124191906140f4565b6117a1565b9092509050600082600e81111561125f5761125f613a9d565b14156113665760005b81818151811061127a5761127a61400d565b01602001516001600160f81b031916611292576112b2565b8061129c816140d9565b91505081518114156112ad576112b2565b611268565b6000816001600160401b038111156112cc576112cc613966565b6040519080825280601f01601f1916602001820160405280156112f6576020820181803683370190505b50905060005b8281101561135c578381815181106113165761131661400d565b602001015160f81c60f81b8282815181106113335761133361400d565b60200101906001600160f81b031916908160001a90535080611354816140d9565b9150506112fc565b5093506113799050565b6040518060200160405280600081525092505b50915091565b6033546001600160a01b031633146105295760405162461bcd60e51b815260206004820181905260248201527f4f776e61626c653a2063616c6c6572206973206e6f7420746865206f776e657260448201526064016102b9565b603380546001600160a01b038381166001600160a01b0319831681179093556040519116919082907f8be0079c531659141344cd1fd0a4f28419497f9722a3daafe3b4186f6b6457e090600090a35050565b606081516000141561144b57505060408051602081019091526000815290565b60006040518060600160405280604081526020016148bc604091399050600060038451600261147a9190614841565b611484919061482d565b61148f9060046140f4565b9050600061149e826020614841565b6001600160401b038111156114b5576114b5613966565b6040519080825280601f01601f1916602001820160405280156114df576020820181803683370190505b509050818152600183018586518101602084015b8183101561154b576003830192508251603f8160121c168501518253600182019150603f81600c1c168501518253600182019150603f8160061c168501518253600182019150603f81168501518253506001016114f3565b600389510660018114611565576002811461157657611582565b613d3d60f01b600119830152611582565b603d60f81b6000198301525b509398975050505050505050565b6060600061159d83611a52565b60010190506000816001600160401b038111156115bc576115bc613966565b6040519080825280601f01601f1916602001820160405280156115e6576020820181803683370190505b5090508181016020015b600019016f181899199a1a9b1b9c1cb0b131b232b360811b600a86061a8153600a850494508461161f576110ed565b6115f0565b606061163a6001600160a01b0383166014611b2a565b92915050565b6060600061164e85856145a3565b611659906001614841565b6001600160401b0381111561167057611670613966565b6040519080825280601f01601f19166020018201604052801561169a576020820181803683370190505b50905060005b6116aa86866145a3565b811161171d578360016116bd8884614841565b6116c791906145a3565b815181106116d7576116d761400d565b602001015160f81c60f81b8282815181106116f4576116f461400d565b60200101906001600160f81b031916908160001a90535080611715816140d9565b9150506116a0565b50949350505050565b606061173182611cc5565b61173e608084901b611cc5565b60405161060f60f31b6020820152602281019290925260428201526062016040516020818303038152906040529050919050565b600054610100900460ff166117995760405162461bcd60e51b81526004016102b990614859565b610529611e77565b600060606000604051806101000160405280856001600160401b038111156117cb576117cb613966565b6040519080825280601f01601f1916602001820160405280156117f5576020820181803683370190505b508152602001600081526020018681526020016000815260200160008152602001600081526020016040518060400160405280600f60016118369190614841565b6001600160401b0381111561184d5761184d613966565b604051908082528060200260200182016040528015611876578160200160208202803683370190505b5081526040805161012080825261242082019092526020928301929091908201612400803683370190505081525081526020016040518060400160405280600f60016118c29190614841565b6001600160401b038111156118d9576118d9613966565b604051908082528060200260200182016040528015611902578160200160208202803683370190505b50815260408051601e8082526103e0820190925260209283019290919082016103c0803683375050509052905290506000808061193e84611ea7565b9050600081600e81111561195457611954613a9d565b14611969579251929450919250611a4b915050565b82611a4057611979846001612031565b93509050600081600e81111561199157611991613a9d565b146119a6579251929450919250611a4b915050565b6119b1846002612031565b92509050600081600e8111156119c9576119c9613a9d565b146119de579251929450919250611a4b915050565b8115611a125781600114611a0957816002146119fb576003611a1b565b611a0484612102565b611a1b565b611a048461217c565b611a1b84612191565b9050600081600e811115611a3157611a31613a9d565b14611a3b57611a40565b611969565b925192945091925050505b9250929050565b60008072184f03e93ff9f4daa797ed6e38ed64bf6a1f0160401b8310611a915772184f03e93ff9f4daa797ed6e38ed64bf6a1f0160401b830492506040015b6d04ee2d6d415b85acef81000000008310611abd576d04ee2d6d415b85acef8100000000830492506020015b662386f26fc100008310611adb57662386f26fc10000830492506010015b6305f5e1008310611af3576305f5e100830492506008015b6127108310611b0757612710830492506004015b60648310611b19576064830492506002015b600a831061163a5760010192915050565b60606000611b398360026140f4565b611b44906002614841565b6001600160401b03811115611b5b57611b5b613966565b6040519080825280601f01601f191660200182016040528015611b85576020820181803683370190505b509050600360fc1b81600081518110611ba057611ba061400d565b60200101906001600160f81b031916908160001a905350600f60fb1b81600181518110611bcf57611bcf61400d565b60200101906001600160f81b031916908160001a9053506000611bf38460026140f4565b611bfe906001614841565b90505b6001811115611c76576f181899199a1a9b1b9c1cb0b131b232b360811b85600f1660108110611c3257611c3261400d565b1a60f81b828281518110611c4857611c4861400d565b60200101906001600160f81b031916908160001a90535060049490941c93611c6f816148a4565b9050611c01565b508315610e575760405162461bcd60e51b815260206004820181905260248201527f537472696e67733a20686578206c656e67746820696e73756666696369656e7460448201526064016102b9565b7aff00000000000000ff00000000000000ff00000000000000ff00006bffffffff0000000000000000604083901c90811663ffffffff60c01b84161760201c63ffffffff60601b919091166001600160e01b031984161717601081901c9182167eff00000000000000ff00000000000000ff00000000000000ff000000000000821617600890811c7bff00000000000000ff00000000000000ff00000000000000ff000000939093167fff00000000000000ff00000000000000ff00000000000000ff000000000000009290921691909117919091179081901c7e0f000f000f000f000f000f000f000f000f000f000f000f000f000f000f000f167f0f000f000f000f000f000f000f000f000f000f000f000f000f000f000f000f00600492831c161790611e13827f0606060606060606060606060606060606060606060606060606060606060606614841565b901c7f0f0f0f0f0f0f0f0f0f0f0f0f0f0f0f0f0f0f0f0f0f0f0f0f0f0f0f0f0f0f0f0f166007611e4391906140f4565b611e6d827f3030303030303030303030303030303030303030303030303030303030303030614841565b61163a9190614841565b600054610100900460ff16611e9e5760405162461bcd60e51b81526004016102b990614859565b610529336113d9565b604080516101208082526124208201909252600091829182916020820161240080368337019050509050600091505b6090821015611f10576008818381518110611ef357611ef361400d565b602090810291909101015281611f08816140d9565b925050611ed6565b610100821015611f4b576009818381518110611f2e57611f2e61400d565b602090810291909101015281611f43816140d9565b925050611f10565b610118821015611f86576007818381518110611f6957611f6961400d565b602090810291909101015281611f7e816140d9565b925050611f4b565b610120821015611fc1576008818381518110611fa457611fa461400d565b602090810291909101015281611fb9816140d9565b925050611f86565b611fd48460c001518261012060006123a1565b50600091505b601e821015612014576005818381518110611ff757611ff761400d565b60209081029190910101528161200c816140d9565b925050611fda565b6120268460e0015182601e60006123a1565b506000949350505050565b608082015160009081905b838560a0015110156120c5578460400151518560600151141561206757600160009250925050611a4b565b60a0850151604086015160608701805190612081826140d9565b9052815181106120935761209361400d565b602001015160f81c60f81b60f81c60ff16901b8117905060088560a0018181516120bd9190614841565b90525061203c565b80841c608086015260a0850180518591906120e19083906145a3565b90525060006120f3600180871b6145a3565b60009792169550909350505050565b6000612121604051806040016040528060608152602001606081525090565b604080518082019091526060808252602082015260006121408561266c565b90945092509050600081600e81111561215b5761215b613a9d565b1461216857949350505050565b612173858484612d22565b95945050505050565b600061163a828360c001518460e00151612d22565b60006080820181905260a0820181905260408201515160608301518291906121ba906004614841565b11156121c95750600192915050565b6040830151606084018051906121de826140d9565b9052815181106121f0576121f061400d565b0160200151604084015160608501805160f89390931c935060089290612215826140d9565b9052815181106122275761222761400d565b602001015160f81c60f81b60f81c60ff16901b81179050801960ff16836040015184606001805180919061225a906140d9565b90528151811061226c5761226c61400d565b016020015160f81c1415806122b75750604083015160608401805160ff841960081c16929161229a826140d9565b9052815181106122ac576122ac61400d565b016020015160f81c14155b156122c55750600492915050565b8260400151518184606001516122db9190614841565b11156122ea5750600192915050565b82515160208401516122fd908390614841565b111561230c5750600292915050565b80156123985761231d6001826145a3565b90508260400151836060018051809190612336906140d9565b9052815181106123485761234861400d565b602001015160f81c60f81b836000015184602001805180919061236a906140d9565b90528151811061237c5761237c61400d565b60200101906001600160f81b031916908160001a90535061230c565b50600092915050565b6000806000806123af61387e565b600092505b600f83116123f1576000896000015184815181106123d4576123d461400d565b6020908102919091010152826123e9816140d9565b9350506123b4565b600093505b8684101561245d5788518861240b8689614841565b8151811061241b5761241b61400d565b6020026020010151815181106124335761243361400d565b602002602001018051809190612448906140d9565b90525083612455816140d9565b9450506123f6565b8689600001516000815181106124755761247561400d565b60200260200101511415612490576000945050505050612664565b60019150600192505b600f8311612513578851805160019390931b92849081106124bc576124bc61400d565b60200260200101518210156124d857600e945050505050612664565b88518051849081106124ec576124ec61400d565b6020026020010151826124ff91906145a3565b91508261250b816140d9565b935050612499565b60006020820152600192505b600f83101561259857885180518490811061253c5761253c61400d565b60200260200101518184601081106125565761255661400d565b60200201516125659190614841565b81612571856001614841565b601081106125815761258161400d565b602002015282612590816140d9565b93505061251f565b600093505b8684101561264b57876125b08588614841565b815181106125c0576125c061400d565b60200260200101516000146126395760208901518490828a6125e2848b614841565b815181106125f2576125f261400d565b60200260200101516010811061260a5761260a61400d565b6020020180519061261a826140d9565b90528151811061262c5761262c61400d565b6020026020010181815250505b83612643816140d9565b94505061259d565b6000821161265a57600061265d565b600e5b9450505050505b949350505050565b600061268b604051806040016040528060608152602001606081525090565b60408051808201909152606080825260208201526000808080806126b2601e61011e614841565b6001600160401b038111156126c9576126c9613966565b6040519080825280602002602001820160405280156126f2578160200160208202803683370190505b50905060006040518060400160405280600f60016127109190614841565b6001600160401b0381111561272757612727613966565b604051908082528060200260200182016040528015612750578160200160208202803683370190505b5081526040805161011e8082526123e0820190925260209283019290919082016123c08036833701905050815250905060006040518060400160405280600f600161279b9190614841565b6001600160401b038111156127b2576127b2613966565b6040519080825280602002602001820160405280156127db578160200160208202803683370190505b50815260408051601e8082526103e0820190925260209283019290919082016103c0803683375050509052905060006128158c6005612031565b98509450600085600e81111561282d5761282d613a9d565b1461284557509298509650909450612d1b9350505050565b61285161010189614841565b975061285e8c6005612031565b97509450600085600e81111561287657612876613a9d565b1461288e57509298509650909450612d1b9350505050565b612899600188614841565b965061011e8811806128ab5750601e87115b156128c55750600599509097509550612d1b945050505050565b6128ce8c61354d565b9095509350600085600e8111156128e7576128e7613a9d565b146128ff57509298509650909450612d1b9350505050565b61290d8385601360006123a1565b9450600085600e81111561292357612923613a9d565b1461293d5750600699509097509550612d1b945050505050565b600095505b61294c8789614841565b861015612b45576000806129608e8661376f565b9097509150600087600e81111561297957612979613a9d565b146129935750949a509198509650612d1b95505050505050565b60108210156129cb578186896129a8816140d9565b9a50815181106129ba576129ba61400d565b602002602001018181525050612b3e565b5060006010821415612a6a57876129f4575060079b50929950909750612d1b9650505050505050565b85612a0060018a6145a3565b81518110612a1057612a1061400d565b60200260200101519050612a258e6002612031565b9097509250600087600e811115612a3e57612a3e613a9d565b14612a585750949a509198509650612d1b95505050505050565b612a63836003614841565b9150612aca565b8160111415612a7e57612a258e6003612031565b612a898e6007612031565b9097509250600087600e811115612aa257612aa2613a9d565b14612abc5750949a509198509650612d1b95505050505050565b612ac783600b614841565b91505b612ad4898b614841565b612ade838a614841565b1115612afc575060089b50929950909750612d1b9650505050505050565b8115612b3e57612b0d6001836145a3565b9150808689612b1b816140d9565b9a5081518110612b2d57612b2d61400d565b602002602001018181525050612afc565b5050612942565b8361010081518110612b5957612b5961400d565b602002602001015160001415612b7e5750600b99509097509550612d1b945050505050565b612b8b83858a60006123a1565b9450600085600e811115612ba157612ba1613a9d565b14158015612c2b5750600185600e811115612bbe57612bbe613a9d565b1480612bdb5750600285600e811115612bd957612bd9613a9d565b145b80612c2b5750825180516001908110612bf657612bf661400d565b60200260200101518360000151600081518110612c1557612c1561400d565b6020026020010151612c279190614841565b8814155b15612c455750600999509097509550612d1b945050505050565b612c518285898b6123a1565b9450600085600e811115612c6757612c67613a9d565b14158015612cf15750600185600e811115612c8457612c84613a9d565b1480612ca15750600285600e811115612c9f57612c9f613a9d565b145b80612cf15750815180516001908110612cbc57612cbc61400d565b60200260200101518260000151600081518110612cdb57612cdb61400d565b6020026020010151612ced9190614841565b8714155b15612d0b5750600a99509097509550612d1b945050505050565b5060009950909750955050505050505b9193909250565b6000806000806000604051806103a00160405280600361ffff168152602001600461ffff168152602001600561ffff168152602001600661ffff168152602001600761ffff168152602001600861ffff168152602001600961ffff168152602001600a61ffff168152602001600b61ffff168152602001600d61ffff168152602001600f61ffff168152602001601161ffff168152602001601361ffff168152602001601761ffff168152602001601b61ffff168152602001601f61ffff168152602001602361ffff168152602001602b61ffff168152602001603361ffff168152602001603b61ffff168152602001604361ffff168152602001605361ffff168152602001606361ffff168152602001607361ffff168152602001608361ffff16815260200160a361ffff16815260200160c361ffff16815260200160e361ffff16815260200161010261ffff1681525090506000604051806103a00160405280600060ff168152602001600060ff168152602001600060ff168152602001600060ff168152602001600060ff168152602001600060ff168152602001600060ff168152602001600060ff168152602001600160ff168152602001600160ff168152602001600160ff168152602001600160ff168152602001600260ff168152602001600260ff168152602001600260ff168152602001600260ff168152602001600360ff168152602001600360ff168152602001600360ff168152602001600360ff168152602001600460ff168152602001600460ff168152602001600460ff168152602001600460ff168152602001600560ff168152602001600560ff168152602001600560ff168152602001600560ff168152602001600060ff1681525090506000604051806103c00160405280600161ffff168152602001600261ffff168152602001600361ffff168152602001600461ffff168152602001600561ffff168152602001600761ffff168152602001600961ffff168152602001600d61ffff168152602001601161ffff168152602001601961ffff168152602001602161ffff168152602001603161ffff168152602001604161ffff168152602001606161ffff168152602001608161ffff16815260200160c161ffff16815260200161010161ffff16815260200161018161ffff16815260200161020161ffff16815260200161030161ffff16815260200161040161ffff16815260200161060161ffff16815260200161080161ffff168152602001610c0161ffff16815260200161100161ffff16815260200161180161ffff16815260200161200161ffff16815260200161300161ffff16815260200161400161ffff16815260200161600161ffff1681525090506000604051806103c00160405280600060ff168152602001600060ff168152602001600060ff168152602001600060ff168152602001600160ff168152602001600160ff168152602001600260ff168152602001600260ff168152602001600360ff168152602001600360ff168152602001600460ff168152602001600460ff168152602001600560ff168152602001600560ff168152602001600660ff168152602001600660ff168152602001600760ff168152602001600760ff168152602001600860ff168152602001600860ff168152602001600960ff168152602001600960ff168152602001600a60ff168152602001600a60ff168152602001600b60ff168152602001600b60ff168152602001600c60ff168152602001600c60ff168152602001600d60ff168152602001600d60ff16815250905060005b876101001461353b5761325c8c8c61376f565b98509050600081600e81111561327457613274613a9d565b14613288579750610e579650505050505050565b6101008810156132fe578b515160208d015114156132b157600298505050505050505050610e57565b8760f81b8c600001518d60200151815181106132cf576132cf61400d565b60200101906001600160f81b031916908160001a90535060208c018051906132f6826140d9565b905250613249565b6101008811156135295760006133166101018a6145a3565b9850601d891061333257600c9950505050505050505050610e57565b6133558d868b601d81106133485761334861400d565b602002015160ff16612031565b9092509050600082600e81111561336e5761336e613a9d565b1461338357509750610e579650505050505050565b80868a601d81106133965761339661400d565b602002015161ffff166133a99190614841565b97506133b58d8c61376f565b99509150600082600e8111156133cd576133cd613a9d565b146133e257509750610e579650505050505050565b6133f88d848b601e81106133485761334861400d565b9092509050600082600e81111561341157613411613a9d565b1461342657509750610e579650505050505050565b80848a601e81106134395761343961400d565b602002015161ffff1661344c9190614841565b96508c6020015187111561346c57600d9950505050505050505050610e57565b8c515160208e015161347f908a90614841565b11156134975760029950505050505050505050610e57565b8715613523576134a86001896145a3565b97508c60000151878e602001516134bf91906145a3565b815181106134cf576134cf61400d565b602001015160f81c60f81b8d600001518e60200151815181106134f4576134f461400d565b60200101906001600160f81b031916908160001a90535060208d0180519061351b826140d9565b905250613497565b50613249565b868c6020018181516132f69190614841565b5060009b9a5050505050505050505050565b60006060818080613561601e61011e614841565b6001600160401b0381111561357857613578613966565b6040519080825280602002602001820160405280156135a1578160200160208202803683370190505b506040805161026081018252601081526011602082015260129181019190915260006060820181905260086080830152600760a0830152600960c0830152600660e0830152600a6101008301526005610120830152600b61014083015260046101608301819052600c61018084015260036101a0840152600d6101c084015260026101e0840152600e6102008401526001610220840152600f6102408401529293509161364f908990612031565b95509150600082600e81111561366757613667613a9d565b146136785750969095509350505050565b613683600486614841565b9450600093505b8484101561370c5761369d886003612031565b848387601381106136b0576136b061400d565b602002015160ff16815181106136c8576136c861400d565b60209081029190910101529150600082600e8111156136e9576136e9613a9d565b146136fa5750969095509350505050565b83613704816140d9565b94505061368a565b601384101561375f5760008382866013811061372a5761372a61400d565b602002015160ff16815181106137425761374261400d565b602090810291909101015283613757816140d9565b94505061370c565b5060009791965090945050505050565b600080600181808080805b600f861161386b57600061378f8b6001612031565b9092509050600082600e8111156137a8576137a8613a9d565b146137bf5750965060009550611a4b945050505050565b8951805196821796889081106137d7576137d761400d565b6020026020010151935083856137ed9190614841565b8610156138385760208a015160009061380687896145a3565b6138109086614841565b815181106138205761382061400d565b60200260200101519850985050505050505050611a4b565b6138428484614841565b925061384e8486614841565b600196871b961b9450869050613863816140d9565b96505061377a565b50600c9960009950975050505050505050565b6040518061020001604052806010906020820280368337509192915050565b6001600160a01b03811681146102f457600080fd5b6000602082840312156138c457600080fd5b8135610e578161389d565b6000806000606084860312156138e457600080fd5b505081359360208301359350604090920135919050565b60005b838110156139165781810151838201526020016138fe565b83811115610fa95750506000910152565b6000815180845261393f8160208601602086016138fb565b601f01601f19169290920160200192915050565b602081526000610e576020830184613927565b634e487b7160e01b600052604160045260246000fd5b60405160a081016001600160401b038111828210171561399e5761399e613966565b60405290565b60405161026081016001600160401b038111828210171561399e5761399e613966565b604051601f8201601f191681016001600160401b03811182821017156139ef576139ef613966565b604052919050565b60006001600160401b03821115613a1057613a10613966565b50601f01601f191660200190565b600060208284031215613a3057600080fd5b81356001600160401b03811115613a4657600080fd5b8201601f81018413613a5757600080fd5b8035613a6a613a65826139f7565b6139c7565b818152856020838501011115613a7f57600080fd5b81602084016020830137600091810160200191909152949350505050565b634e487b7160e01b600052602160045260246000fd5b604081526000613ac66040830185613927565b9050600f8310613ae657634e487b7160e01b600052602160045260246000fd5b8260208301529392505050565b600060208284031215613b0557600080fd5b5035919050565b600080600060608486031215613b2157600080fd5b8335613b2c8161389d565b92506020840135613b3c8161389d565b91506040840135613b4c8161389d565b809150509250925092565b805162ffffff81168114613b6a57600080fd5b919050565b8051613b6a8161389d565b600082601f830112613b8b57600080fd5b8151613b99613a65826139f7565b818152846020838601011115613bae57600080fd5b6126648260208301602087016138fb565b600060a08284031215613bd157600080fd5b613bd961397c565b905081516001600160401b0380821115613bf257600080fd5b613bfe85838601613b7a565b83526020840151915080821115613c1457600080fd5b613c2085838601613b7a565b60208401526040840151915080821115613c3957600080fd5b613c4585838601613b7a565b60408401526060840151915080821115613c5e57600080fd5b613c6a85838601613b7a565b60608401526080840151915080821115613c8357600080fd5b50613c9084828501613b7a565b60808301525092915050565b60006001600160401b03821115613cb557613cb5613966565b5060051b60200190565b600082601f830112613cd057600080fd5b81516020613ce0613a6583613c9c565b82815260059290921b84018101918181019086841115613cff57600080fd5b8286015b84811015613d3e5780516001600160401b03811115613d225760008081fd5b613d308986838b0101613b7a565b845250918301918301613d03565b509695505050505050565b600082601f830112613d5a57600080fd5b81516020613d6a613a6583613c9c565b82815260059290921b84018101918181019086841115613d8957600080fd5b8286015b84811015613d3e578051613da08161389d565b8352918301918301613d8d565b600060208284031215613dbf57600080fd5b81516001600160401b0380821115613dd657600080fd5b908301906102608286031215613deb57600080fd5b613df36139a4565b613dfc83613b57565b8152613e0a60208401613b57565b602082015260408301516040820152613e2560608401613b6f565b6060820152608083015182811115613e3c57600080fd5b613e4887828601613b7a565b60808301525060a083015182811115613e6057600080fd5b613e6c87828601613b7a565b60a083015250613e7e60c08401613b6f565b60c082015260e083015182811115613e9557600080fd5b613ea187828601613b7a565b60e0830152506101008084015183811115613ebb57600080fd5b613ec788828701613b7a565b8284015250506101208084015183811115613ee157600080fd5b613eed88828701613b7a565b8284015250506101408084015183811115613f0757600080fd5b613f1388828701613bbf565b8284015250506101608084015183811115613f2d57600080fd5b613f3988828701613cbf565b8284015250506101808084015183811115613f5357600080fd5b613f5f88828701613cbf565b8284015250506101a08084015183811115613f7957600080fd5b613f8588828701613b7a565b8284015250506101c08084015181830152506101e0613fa5818501613b6f565b908201526102008381015183811115613fbd57600080fd5b613fc988828701613b7a565b8284015250506102208084015183811115613fe357600080fd5b613fef88828701613d49565b91830191909152506102409283015192810192909252509392505050565b634e487b7160e01b600052603260045260246000fd5b6000806040838503121561403657600080fd5b82516001600160401b0381111561404c57600080fd5b61405885828601613b7a565b9250506020830151600f811061406d57600080fd5b809150509250929050565b6000815161408a8185602086016138fb565b9290920192915050565b600083516140a68184602088016138fb565b8351908301906140ba8183602088016138fb565b01949350505050565b634e487b7160e01b600052601160045260246000fd5b60006000198214156140ed576140ed6140c3565b5060010190565b600081600019048311821515161561410e5761410e6140c3565b500290565b60006020828403121561412557600080fd5b81516001600160401b0381111561413b57600080fd5b61266484828501613b7a565b600082516141598184602087016138fb565b9190910192915050565b7519185d184e9d195e1d0bda1d1b5b0ed8985cd94d8d0b60521b8152600082516141948160168501602087016138fb565b9190910160160192915050565b7216101130b734b6b0ba34b7b72fbab936111d1160691b815281516000906141d08160138501602087016138fb565b601160f91b6013939091019283015250601401919050565b600083516141fa8184602088016138fb565b61202360f01b90830190815283516142198160028401602088016138fb565b01600201949350505050565b600060ff821660ff84168060ff03821115614242576142426140c3565b019392505050565b6000845161425c8184602089016138fb565b740163d913a3930b4ba2fba3cb832911d10112634b11605d1b908301908152845161428e8160158401602089016138fb565b6c111610113b30b63ab2911d101160991b6015929091019182015283516142bc8160228401602088016138fb565b61227d60f01b6022929091019182015260240195945050505050565b600060ff821660ff8114156142ef576142ef6140c3565b60010192915050565b7f2c2261747472696275746573223a205b7b2274726169745f74797065223a202281527f436f6c6c656374696f6e2041646472657373222c202276616c7565223a20220060208201526000865161435681603f850160208b016138fb565b61227d60f01b603f9184019182018190527f2c7b2274726169745f74797065223a202243726561746f72222c202276616c7560418301526432911d101160d91b606183015287516143ae816066850160208c016138fb565b60669201918201527f2c7b2274726169745f74797065223a202243726561746f72204164647265737360688201526c111610113b30b63ab2911d101160991b608882015261446d61446061445a61440f61445461441d82609588018d614078565b61227d60f01b815260020190565b7f2c7b2274726169745f74797065223a20224c6963656e7365222c202276616c7581526432911d101160d91b602082015260250190565b89614078565b86614078565b605d60f81b815260010190565b98975050505050505050565b683d913730b6b2911d1160b91b8152855160009061449e816009850160208b016138fb565b601160f91b60099184019182018190526f16113232b9b1b934b83a34b7b7111d1160811b600a83015287516144da81601a850160208c016138fb565b601a920191820181905269161134b6b0b3b2911d1160b11b601b830152865161450a816025850160208b016138fb565b602592019182015284516145258160268401602089016138fb565b845191019061453b8160268401602088016138fb565b614551602682840101607d60f81b815260010190565b9998505050505050505050565b7f646174613a6170706c69636174696f6e2f6a736f6e3b6261736536342c00000081526000825161459681601d8501602087016138fb565b91909101601d0192915050565b6000828210156145b5576145b56140c3565b500390565b6000602082840312156145cc57600080fd5b5051919050565b6000602082840312156145e557600080fd5b8151610e578161389d565b656266733a2f2f60d01b81528460068201526000602f60f81b8060268401526bffffffffffffffffffffffff198660601b16602784015280603b840152845161464081603c8601602089016138fb565b808401905081603c8201528451915061466082603d8301602088016138fb565b01603d019695505050505050565b60008551614680818460208a016138fb565b8083019050602f60f81b80825286516146a0816001850160208b016138fb565b600192019182015284516146bb8160028401602089016138fb565b653f736565643d60d01b6002929091019182015283516146e28160088401602088016138fb565b016008019695505050505050565b683d913730b6b2911d1160b91b81528551600090614715816009850160208b016138fb565b711116113232b9b1b934b83a34b7b7111d101160711b600991840191820152865161474781601b840160208b016138fb565b601160f91b601b92909101918201526b16101134b6b0b3b2911d101160a11b601c820152855161477e816028840160208a016138fb565b6d1331b0b83a3ab9329e9a9818181160911b6028929091019182015284516147ad8160368401602089016138fb565b7016101130ba3a3934b13aba32b9911d101160791b6036929091019182015261446d6147f66147df6047840187614078565b6a1331b0b83a3ab9329e981160a91b8152600b0190565b607d60f81b815260010190565b634e487b7160e01b600052601260045260246000fd5b60008261482857614828614803565b500690565b60008261483c5761483c614803565b500490565b60008219821115614854576148546140c3565b500190565b6020808252602b908201527f496e697469616c697a61626c653a20636f6e7472616374206973206e6f74206960408201526a6e697469616c697a696e6760a81b606082015260800190565b6000816148b3576148b36140c3565b50600019019056fe4142434445464748494a4b4c4d4e4f505152535455565758595a6162636465666768696a6b6c6d6e6f707172737475767778797a303132333435363738392b2f000000000000000000000000000000000000000000000000000000000000000000000000000000000000003e0000003f3435363738393a3b3c3d00000000000000000102030405060708090a0b0c0d0e0f101112131415161718190000000000001a1b1c1d1e1f202122232425262728292a2b2c2d2e2f303132330000000000a26469706673582212200eb5dfdec39493f550277ad8bf285d55c2b485a9e095bfba375e2de8a5ecd5b464736f6c634300080c0033",
  "linkReferences": {},
  "deployedLinkReferences": {}
}