{
  "_format": "hh-sol-artifact-1",
  "contractName": "GenerativeNFT",
  "sourceName": "contracts/nfts/GenerativeNFT.sol",
  "abi": [
    {
      "inputs": [
        {
          "internalType": "string",
          "name": "name",
          "type": "string"
        },
        {
          "internalType": "string",
          "name": "symbol",
          "type": "string"
        }
      ],
      "stateMutability": "nonpayable",
      "type": "constructor"
    },
    {
      "inputs": [
        {
          "internalType": "address",
          "name": "operator",
          "type": "address"
        }
      ],
      "name": "OperatorNotAllowed",
      "type": "error"
    },
    {
      "anonymous": false,
      "inputs": [
        {
          "indexed": true,
          "internalType": "address",
          "name": "owner",
          "type": "address"
        },
        {
          "indexed": true,
          "internalType": "address",
          "name": "approved",
          "type": "address"
        },
        {
          "indexed": true,
          "internalType": "uint256",
          "name": "tokenId",
          "type": "uint256"
        }
      ],
      "name": "Approval",
      "type": "event"
    },
    {
      "anonymous": false,
      "inputs": [
        {
          "indexed": true,
          "internalType": "address",
          "name": "owner",
          "type": "address"
        },
        {
          "indexed": true,
          "internalType": "address",
          "name": "operator",
          "type": "address"
        },
        {
          "indexed": false,
          "internalType": "bool",
          "name": "approved",
          "type": "bool"
        }
      ],
      "name": "ApprovalForAll",
      "type": "event"
    },
    {
      "anonymous": false,
      "inputs": [
        {
          "indexed": true,
          "internalType": "address",
          "name": "previousOwner",
          "type": "address"
        },
        {
          "indexed": true,
          "internalType": "address",
          "name": "newOwner",
          "type": "address"
        }
      ],
      "name": "OwnershipTransferred",
      "type": "event"
    },
    {
      "anonymous": false,
      "inputs": [
        {
          "indexed": false,
          "internalType": "address",
          "name": "account",
          "type": "address"
        }
      ],
      "name": "Paused",
      "type": "event"
    },
    {
      "anonymous": false,
      "inputs": [
        {
          "indexed": true,
          "internalType": "address",
          "name": "from",
          "type": "address"
        },
        {
          "indexed": true,
          "internalType": "address",
          "name": "to",
          "type": "address"
        },
        {
          "indexed": true,
          "internalType": "uint256",
          "name": "tokenId",
          "type": "uint256"
        }
      ],
      "name": "Transfer",
      "type": "event"
    },
    {
      "anonymous": false,
      "inputs": [
        {
          "indexed": false,
          "internalType": "address",
          "name": "account",
          "type": "address"
        }
      ],
      "name": "Unpaused",
      "type": "event"
    },
    {
      "inputs": [],
      "name": "OPERATOR_FILTER_REGISTRY",
      "outputs": [
        {
          "internalType": "contract IOperatorFilterRegistry",
          "name": "",
          "type": "address"
        }
      ],
      "stateMutability": "view",
      "type": "function"
    },
    {
      "inputs": [],
      "name": "_admin",
      "outputs": [
        {
          "internalType": "address",
          "name": "",
          "type": "address"
        }
      ],
      "stateMutability": "view",
      "type": "function"
    },
    {
      "inputs": [],
      "name": "_nameCol",
      "outputs": [
        {
          "internalType": "string",
          "name": "",
          "type": "string"
        }
      ],
      "stateMutability": "view",
      "type": "function"
    },
    {
      "inputs": [],
      "name": "_paramsAddress",
      "outputs": [
        {
          "internalType": "address",
          "name": "",
          "type": "address"
        }
      ],
      "stateMutability": "view",
      "type": "function"
    },
    {
      "inputs": [],
      "name": "_project",
      "outputs": [
        {
          "internalType": "address",
          "name": "_projectAddr",
          "type": "address"
        },
        {
          "internalType": "uint256",
          "name": "_projectId",
          "type": "uint256"
        },
        {
          "internalType": "uint24",
          "name": "_maxSupply",
          "type": "uint24"
        },
        {
          "internalType": "uint24",
          "name": "_limit",
          "type": "uint24"
        },
        {
          "internalType": "uint24",
          "name": "_index",
          "type": "uint24"
        },
        {
          "internalType": "uint24",
          "name": "_indexReserve",
          "type": "uint24"
        },
        {
          "internalType": "string",
          "name": "_creator",
          "type": "string"
        },
        {
          "internalType": "uint256",
          "name": "_mintPrice",
          "type": "uint256"
        },
        {
          "internalType": "address",
          "name": "_mintPriceAddr",
          "type": "address"
        },
        {
          "internalType": "string",
          "name": "_name",
          "type": "string"
        },
        {
          "components": [
            {
              "internalType": "uint256",
              "name": "_initBlockTime",
              "type": "uint256"
            },
            {
              "internalType": "uint256",
              "name": "_openingTime",
              "type": "uint256"
            }
          ],
          "internalType": "struct NFTProject.ProjectMintingSchedule",
          "name": "_mintingSchedule",
          "type": "tuple"
        },
        {
          "internalType": "uint256",
          "name": "_royalty",
          "type": "uint256"
        }
      ],
      "stateMutability": "view",
      "type": "function"
    },
    {
      "inputs": [],
      "name": "_projectDataContextAddr",
      "outputs": [
        {
          "internalType": "address",
          "name": "",
          "type": "address"
        }
      ],
      "stateMutability": "view",
      "type": "function"
    },
    {
      "inputs": [],
      "name": "_randomizer",
      "outputs": [
        {
          "internalType": "address",
          "name": "",
          "type": "address"
        }
      ],
      "stateMutability": "view",
      "type": "function"
    },
    {
      "inputs": [],
      "name": "_royalty",
      "outputs": [
        {
          "internalType": "uint256",
          "name": "",
          "type": "uint256"
        }
      ],
      "stateMutability": "view",
      "type": "function"
    },
    {
      "inputs": [
        {
          "internalType": "address",
          "name": "to",
          "type": "address"
        },
        {
          "internalType": "uint256",
          "name": "tokenId",
          "type": "uint256"
        }
      ],
      "name": "approve",
      "outputs": [],
      "stateMutability": "nonpayable",
      "type": "function"
    },
    {
      "inputs": [
        {
          "internalType": "address",
          "name": "owner",
          "type": "address"
        }
      ],
      "name": "balanceOf",
      "outputs": [
        {
          "internalType": "uint256",
          "name": "",
          "type": "uint256"
        }
      ],
      "stateMutability": "view",
      "type": "function"
    },
    {
      "inputs": [
        {
          "internalType": "address",
          "name": "newAdm",
          "type": "address"
        }
      ],
      "name": "changeAdmin",
      "outputs": [],
      "stateMutability": "nonpayable",
      "type": "function"
    },
    {
      "inputs": [
        {
          "internalType": "address",
          "name": "newAddr",
          "type": "address"
        }
      ],
      "name": "changeDataContextAddr",
      "outputs": [],
      "stateMutability": "nonpayable",
      "type": "function"
    },
    {
      "inputs": [
        {
          "internalType": "address",
          "name": "newAddr",
          "type": "address"
        }
      ],
      "name": "changeParamAddr",
      "outputs": [],
      "stateMutability": "nonpayable",
      "type": "function"
    },
    {
      "inputs": [
        {
          "internalType": "address",
          "name": "newAddr",
          "type": "address"
        }
      ],
      "name": "changeRandomizerAddr",
      "outputs": [],
      "stateMutability": "nonpayable",
      "type": "function"
    },
    {
      "inputs": [
        {
          "internalType": "uint256",
          "name": "tokenId",
          "type": "uint256"
        }
      ],
      "name": "getApproved",
      "outputs": [
        {
          "internalType": "address",
          "name": "",
          "type": "address"
        }
      ],
      "stateMutability": "view",
      "type": "function"
    },
    {
      "inputs": [],
      "name": "getStatus",
      "outputs": [
        {
          "internalType": "bool",
          "name": "",
          "type": "bool"
        }
      ],
      "stateMutability": "view",
      "type": "function"
    },
    {
      "inputs": [
        {
          "components": [
            {
              "internalType": "address",
              "name": "_projectAddr",
              "type": "address"
            },
            {
              "internalType": "uint256",
              "name": "_projectId",
              "type": "uint256"
            },
            {
              "internalType": "uint24",
              "name": "_maxSupply",
              "type": "uint24"
            },
            {
              "internalType": "uint24",
              "name": "_limit",
              "type": "uint24"
            },
            {
              "internalType": "uint24",
              "name": "_index",
              "type": "uint24"
            },
            {
              "internalType": "uint24",
              "name": "_indexReserve",
              "type": "uint24"
            },
            {
              "internalType": "string",
              "name": "_creator",
              "type": "string"
            },
            {
              "internalType": "uint256",
              "name": "_mintPrice",
              "type": "uint256"
            },
            {
              "internalType": "address",
              "name": "_mintPriceAddr",
              "type": "address"
            },
            {
              "internalType": "string",
              "name": "_name",
              "type": "string"
            },
            {
              "components": [
                {
                  "internalType": "uint256",
                  "name": "_initBlockTime",
                  "type": "uint256"
                },
                {
                  "internalType": "uint256",
                  "name": "_openingTime",
                  "type": "uint256"
                }
              ],
              "internalType": "struct NFTProject.ProjectMintingSchedule",
              "name": "_mintingSchedule",
              "type": "tuple"
            },
            {
              "internalType": "address[]",
              "name": "_reserves",
              "type": "address[]"
            },
            {
              "internalType": "uint256",
              "name": "_royalty",
              "type": "uint256"
            }
          ],
          "internalType": "struct NFTProject.ProjectMinting",
          "name": "project",
          "type": "tuple"
        },
        {
          "internalType": "address",
          "name": "admin",
          "type": "address"
        },
        {
          "internalType": "address",
          "name": "paramsAddr",
          "type": "address"
        },
        {
          "internalType": "address",
          "name": "randomizer",
          "type": "address"
        },
        {
          "internalType": "address",
          "name": "projectDataContextAddr",
          "type": "address"
        },
        {
          "internalType": "bool",
          "name": "disable",
          "type": "bool"
        }
      ],
      "name": "init",
      "outputs": [],
      "stateMutability": "nonpayable",
      "type": "function"
    },
    {
      "inputs": [
        {
          "internalType": "address",
          "name": "owner",
          "type": "address"
        },
        {
          "internalType": "address",
          "name": "operator",
          "type": "address"
        }
      ],
      "name": "isApprovedForAll",
      "outputs": [
        {
          "internalType": "bool",
          "name": "",
          "type": "bool"
        }
      ],
      "stateMutability": "view",
      "type": "function"
    },
    {
      "inputs": [],
      "name": "mint",
      "outputs": [
        {
          "internalType": "uint256",
          "name": "tokenId",
          "type": "uint256"
        }
      ],
      "stateMutability": "payable",
      "type": "function"
    },
    {
      "inputs": [],
      "name": "name",
      "outputs": [
        {
          "internalType": "string",
          "name": "",
          "type": "string"
        }
      ],
      "stateMutability": "view",
      "type": "function"
    },
    {
      "inputs": [],
      "name": "owner",
      "outputs": [
        {
          "internalType": "address",
          "name": "",
          "type": "address"
        }
      ],
      "stateMutability": "view",
      "type": "function"
    },
    {
      "inputs": [
        {
          "internalType": "uint256",
          "name": "tokenId",
          "type": "uint256"
        }
      ],
      "name": "ownerOf",
      "outputs": [
        {
          "internalType": "address",
          "name": "",
          "type": "address"
        }
      ],
      "stateMutability": "view",
      "type": "function"
    },
    {
      "inputs": [],
      "name": "paused",
      "outputs": [
        {
          "internalType": "bool",
          "name": "",
          "type": "bool"
        }
      ],
      "stateMutability": "view",
      "type": "function"
    },
    {
      "inputs": [],
      "name": "renounceOwnership",
      "outputs": [],
      "stateMutability": "nonpayable",
      "type": "function"
    },
    {
      "inputs": [],
      "name": "reserveMint",
      "outputs": [
        {
          "internalType": "uint256",
          "name": "tokenId",
          "type": "uint256"
        }
      ],
      "stateMutability": "payable",
      "type": "function"
    },
    {
      "inputs": [
        {
          "internalType": "uint256",
          "name": "_tokenId",
          "type": "uint256"
        },
        {
          "internalType": "uint256",
          "name": "_salePrice",
          "type": "uint256"
        }
      ],
      "name": "royaltyInfo",
      "outputs": [
        {
          "internalType": "address",
          "name": "receiver",
          "type": "address"
        },
        {
          "internalType": "uint256",
          "name": "royaltyAmount",
          "type": "uint256"
        }
      ],
      "stateMutability": "view",
      "type": "function"
    },
    {
      "inputs": [
        {
          "internalType": "address",
          "name": "from",
          "type": "address"
        },
        {
          "internalType": "address",
          "name": "to",
          "type": "address"
        },
        {
          "internalType": "uint256",
          "name": "tokenId",
          "type": "uint256"
        }
      ],
      "name": "safeTransferFrom",
      "outputs": [],
      "stateMutability": "nonpayable",
      "type": "function"
    },
    {
      "inputs": [
        {
          "internalType": "address",
          "name": "from",
          "type": "address"
        },
        {
          "internalType": "address",
          "name": "to",
          "type": "address"
        },
        {
          "internalType": "uint256",
          "name": "tokenId",
          "type": "uint256"
        },
        {
          "internalType": "bytes",
          "name": "data",
          "type": "bytes"
        }
      ],
      "name": "safeTransferFrom",
      "outputs": [],
      "stateMutability": "nonpayable",
      "type": "function"
    },
    {
      "inputs": [
        {
          "internalType": "address",
          "name": "operator",
          "type": "address"
        },
        {
          "internalType": "bool",
          "name": "approved",
          "type": "bool"
        }
      ],
      "name": "setApprovalForAll",
      "outputs": [],
      "stateMutability": "nonpayable",
      "type": "function"
    },
    {
      "inputs": [
        {
          "internalType": "bool",
          "name": "enable",
          "type": "bool"
        }
      ],
      "name": "setStatus",
      "outputs": [],
      "stateMutability": "nonpayable",
      "type": "function"
    },
    {
      "inputs": [
        {
          "internalType": "bytes4",
          "name": "interfaceId",
          "type": "bytes4"
        }
      ],
      "name": "supportsInterface",
      "outputs": [
        {
          "internalType": "bool",
          "name": "",
          "type": "bool"
        }
      ],
      "stateMutability": "view",
      "type": "function"
    },
    {
      "inputs": [],
      "name": "symbol",
      "outputs": [
        {
          "internalType": "string",
          "name": "",
          "type": "string"
        }
      ],
      "stateMutability": "view",
      "type": "function"
    },
    {
      "inputs": [
        {
          "internalType": "uint256",
          "name": "tokenId",
          "type": "uint256"
        }
      ],
      "name": "tokenGenerativeURI",
      "outputs": [
        {
          "internalType": "string",
          "name": "",
          "type": "string"
        }
      ],
      "stateMutability": "view",
      "type": "function"
    },
    {
      "inputs": [
        {
          "internalType": "uint256",
          "name": "tokenId",
          "type": "uint256"
        }
      ],
      "name": "tokenURI",
      "outputs": [
        {
          "internalType": "string",
          "name": "",
          "type": "string"
        }
      ],
      "stateMutability": "view",
      "type": "function"
    },
    {
      "inputs": [
        {
          "internalType": "address",
          "name": "from",
          "type": "address"
        },
        {
          "internalType": "address",
          "name": "to",
          "type": "address"
        },
        {
          "internalType": "uint256",
          "name": "tokenId",
          "type": "uint256"
        }
      ],
      "name": "transferFrom",
      "outputs": [],
      "stateMutability": "nonpayable",
      "type": "function"
    },
    {
      "inputs": [
        {
          "internalType": "address",
          "name": "newOwner",
          "type": "address"
        }
      ],
      "name": "transferOwnership",
      "outputs": [],
      "stateMutability": "nonpayable",
      "type": "function"
    }
  ],
  "bytecode": "0x60806040523480156200001157600080fd5b5060405162004002380380620040028339810160408190526200003491620003b0565b733cc6cdda760b79bafa08df41ecfa224f810dceb66001838381818160009080519060200190620000679291906200023d565b5080516200007d9060019060208401906200023d565b50506006805460ff191690555060016007556200009a33620001eb565b50506daaeb6d7670e522a718067333cd4e3b15620001e15780156200012f57604051633e9f1edf60e11b81523060048201526001600160a01b03831660248201526daaeb6d7670e522a718067333cd4e90637d3e3dbe906044015b600060405180830381600087803b1580156200011057600080fd5b505af115801562000125573d6000803e3d6000fd5b50505050620001e1565b6001600160a01b03821615620001805760405163a0af290360e01b81523060048201526001600160a01b03831660248201526daaeb6d7670e522a718067333cd4e9063a0af290390604401620000f5565b604051632210724360e11b81523060048201526daaeb6d7670e522a718067333cd4e90634420e48690602401600060405180830381600087803b158015620001c757600080fd5b505af1158015620001dc573d6000803e3d6000fd5b505050505b5050505062000457565b600880546001600160a01b038381166001600160a01b0319831681179093556040519116919082907f8be0079c531659141344cd1fd0a4f28419497f9722a3daafe3b4186f6b6457e090600090a35050565b8280546200024b906200041a565b90600052602060002090601f0160209004810192826200026f5760008555620002ba565b82601f106200028a57805160ff1916838001178555620002ba565b82800160010185558215620002ba579182015b82811115620002ba5782518255916020019190600101906200029d565b50620002c8929150620002cc565b5090565b5b80821115620002c85760008155600101620002cd565b634e487b7160e01b600052604160045260246000fd5b600082601f8301126200030b57600080fd5b81516001600160401b0380821115620003285762000328620002e3565b604051601f8301601f19908116603f01168101908282118183101715620003535762000353620002e3565b816040528381526020925086838588010111156200037057600080fd5b600091505b8382101562000394578582018301518183018401529082019062000375565b83821115620003a65760008385830101525b9695505050505050565b60008060408385031215620003c457600080fd5b82516001600160401b0380821115620003dc57600080fd5b620003ea86838701620002f9565b935060208501519150808211156200040157600080fd5b506200041085828601620002f9565b9150509250929050565b600181811c908216806200042f57607f821691505b602082108114156200045157634e487b7160e01b600052602260045260246000fd5b50919050565b613b9b80620004676000396000f3fe60806040526004361061020f5760003560e01c80635c40f6f411610118578063a22cb465116100a0578063e985e9c51161006f578063e985e9c514610607578063f2fde38b14610650578063fc23745214610670578063febfd6c314610690578063ffc27c0e146106b057600080fd5b8063a22cb46514610587578063adfc7dae146105a7578063b88d4fde146105c7578063c87b56dd146105e757600080fd5b8063715018a6116100e7578063715018a6146104f2578063775bff9f146105075780638da5cb5b146105345780638f2839701461055257806395d89b411461057257600080fd5b80635c40f6f4146104645780635c975abb146104845780636352211e1461049c57806370a08231146104d257600080fd5b806323b872dd1161019b57806342842e0e1161016a57806342842e0e146103da578063452fa3d3146103fa578063472f1e021461040f5780634e69d5601461042f578063575b57ea1461044457600080fd5b806323b872dd146103435780632a55205a146103635780633b66b00a146103a257806341f43434146103b857600080fd5b8063095ea7b3116101e2578063095ea7b3146102c357806310da88c5146102e55780631249c58b146103055780631ca9741b1461031b57806321c8d6761461033b57600080fd5b806301bc45c91461021457806301ffc9a71461025157806306fdde0314610281578063081812fc146102a3575b600080fd5b34801561022057600080fd5b50600a54610234906001600160a01b031681565b6040516001600160a01b0390911681526020015b60405180910390f35b34801561025d57600080fd5b5061027161026c36600461310e565b6106d0565b6040519015158152602001610248565b34801561028d57600080fd5b50610296610716565b604051610248919061318a565b3480156102af57600080fd5b506102346102be36600461319d565b6107a8565b3480156102cf57600080fd5b506102e36102de3660046131db565b6107cf565b005b3480156102f157600080fd5b5061029661030036600461319d565b6108ea565b61030d6109d2565b604051908152602001610248565b34801561032757600080fd5b506102e3610336366004613207565b610be5565b61030d610c76565b34801561034f57600080fd5b506102e361035e366004613224565b610f77565b34801561036f57600080fd5b5061038361037e366004613265565b610fa2565b604080516001600160a01b039093168352602083019190915201610248565b3480156103ae57600080fd5b5061030d600f5481565b3480156103c457600080fd5b506102346daaeb6d7670e522a718067333cd4e81565b3480156103e657600080fd5b506102e36103f5366004613224565b610fba565b34801561040657600080fd5b50610296610fdf565b34801561041b57600080fd5b506102e361042a366004613207565b61106d565b34801561043b57600080fd5b506102716110ff565b34801561045057600080fd5b50600d54610234906001600160a01b031681565b34801561047057600080fd5b506102e361047f3660046132a0565b611113565b34801561049057600080fd5b5060065460ff16610271565b3480156104a857600080fd5b506102346104b736600461319d565b6000908152600960205260409020546001600160a01b031690565b3480156104de57600080fd5b5061030d6104ed366004613207565b61117a565b3480156104fe57600080fd5b506102e3611200565b34801561051357600080fd5b5061051c611214565b6040516102489c9b9a999897969594939291906132bd565b34801561054057600080fd5b50600a546001600160a01b0316610234565b34801561055e57600080fd5b506102e361056d366004613207565b6113b3565b34801561057e57600080fd5b50610296611445565b34801561059357600080fd5b506102e36105a2366004613371565b6114e3565b3480156105b357600080fd5b50600b54610234906001600160a01b031681565b3480156105d357600080fd5b506102e36105e2366004613481565b6114f2565b3480156105f357600080fd5b5061029661060236600461319d565b61151f565b34801561061357600080fd5b50610271610622366004613501565b6001600160a01b03918216600090815260056020908152604080832093909416825291909152205460ff1690565b34801561065c57600080fd5b506102e361066b366004613207565b6115be565b34801561067c57600080fd5b506102e361068b36600461363a565b611634565b34801561069c57600080fd5b506102e36106ab366004613207565b611935565b3480156106bc57600080fd5b50600c54610234906001600160a01b031681565b60006001600160e01b031982166302734eab60e51b148061070157506001600160e01b0319821663152a902d60e11b145b806107105750610710826119c7565b92915050565b6060600e8054610725906137e2565b80601f0160208091040260200160405190810160405280929190818152602001828054610751906137e2565b801561079e5780601f106107735761010080835404028352916020019161079e565b820191906000526020600020905b81548152906001019060200180831161078157829003601f168201915b5050505050905090565b60006107b382611a17565b506000908152600460205260409020546001600160a01b031690565b60006107da82611a67565b9050806001600160a01b0316836001600160a01b0316141561084d5760405162461bcd60e51b815260206004820152602160248201527f4552433732313a20617070726f76616c20746f2063757272656e74206f776e656044820152603960f91b60648201526084015b60405180910390fd5b336001600160a01b038216148061086957506108698133610622565b6108db5760405162461bcd60e51b815260206004820152603d60248201527f4552433732313a20617070726f76652063616c6c6572206973206e6f7420746f60448201527f6b656e206f776e6572206f7220617070726f76656420666f7220616c6c0000006064820152608401610844565b6108e58383611ac7565b505050565b60606108f582611b35565b6040518060400160405280600381526020016232303960e81b8152509061092f5760405162461bcd60e51b8152600401610844919061318a565b50600d546001600160a01b0316600061094784611b52565b601154604051639413930160e01b8152600481019190915260248101869052604481018290529091506001600160a01b038316906394139301906064015b600060405180830381865afa1580156109a2573d6000803e3d6000fd5b505050506040513d6000823e601f3d908101601f191682016040526109ca919081019061381d565b949350505050565b60006109dc611c1e565b60185415610a235760185460408051808201909152600381526206460760eb1b6020820152904211610a215760405162461bcd60e51b8152600401610844919061318a565b505b60128054600160301b900462ffffff16906006610a3f836138aa565b82546101009290920a62ffffff818102199093169183160217909155601254630100000081048216600160301b90910490911611159050610a7f57600080fd5b60125462ffffff80821691610aa591600160481b8204811691600160301b9004166138cd565b62ffffff161415610b1657601054601154604051631122f8a960e11b815260048101919091526001600160a01b03909116908190632245f15290602401600060405180830381600087803b158015610afc57600080fd5b505af1158015610b10573d6000803e3d6000fd5b50505050505b601254601154600160301b90910462ffffff1690610b3890620f4240906138f4565b610b429190613913565b9050610b4e3382611c78565b600c54604051631da00d8560e01b8152600481018390526001600160a01b03909116906000908290631da00d85906024016020604051808303816000875af1158015610b9e573d6000803e3d6000fd5b505050506040513d601f19601f82011682018060405250810190610bc2919061392b565b9050610bce8382611c92565b610bd6611d5b565b5050610be26001600755565b90565b600a546001600160a01b031633148015610c0757506001600160a01b03811615155b6040518060400160405280600381526020016231303160e81b81525090610c415760405162461bcd60e51b8152600401610844919061318a565b50600c546001600160a01b03828116911614610c7357600c80546001600160a01b0319166001600160a01b0383161790555b50565b6000610c80611c1e565b60128054600160481b900462ffffff16906009610c9c836138aa565b82546101009290920a62ffffff8181021990931691831602179091556012548082169250610cdb9163010000008204811691600160481b9004166138cd565b62ffffff161115610ceb57600080fd5b60125462ffffff80821691610d1191600160481b8204811691600160301b9004166138cd565b62ffffff161415610d8257601054601154604051631122f8a960e11b815260048101919091526001600160a01b03909116908190632245f15290602401600060405180830381600087803b158015610d6857600080fd5b505af1158015610d7c573d6000803e3d6000fd5b50505050505b601054336000908152601b60205260409020546001600160a01b039091169060ff1680610e2c57506011546040516331a9108f60e11b815260048101919091526001600160a01b03821690636352211e90602401602060405180830381865afa158015610df3573d6000803e3d6000fd5b505050506040513d601f19601f82011682018060405250810190610e179190613944565b6001600160a01b0316336001600160a01b0316145b610e3557600080fd5b336000908152601b602052604090205460ff168015610e55575060185415155b15610e995760185460408051808201909152600381526206460760eb1b6020820152904211610e975760405162461bcd60e51b8152600401610844919061318a565b505b601254610ebb9062ffffff63010000008204811691600160481b9004166138cd565b62ffffff16620f4240601060010154610ed491906138f4565b610ede9190613913565b9150610eea3383611c78565b600c54604051631da00d8560e01b8152600481018490526001600160a01b03909116906000908290631da00d85906024016020604051808303816000875af1158015610f3a573d6000803e3d6000fd5b505050506040513d601f19601f82011682018060405250810190610f5e919061392b565b9050610f6a8482611c92565b505050610be26001600755565b826001600160a01b0381163314610f9157610f9133612340565b610f9c8484846123f9565b50505050565b600080610faf848461242a565b915091509250929050565b826001600160a01b0381163314610fd457610fd433612340565b610f9c8484846125c4565b600e8054610fec906137e2565b80601f0160208091040260200160405190810160405280929190818152602001828054611018906137e2565b80156110655780601f1061103a57610100808354040283529160200191611065565b820191906000526020600020905b81548152906001019060200180831161104857829003601f168201915b505050505081565b600a546001600160a01b03163314801561108f57506001600160a01b03811615155b6040518060400160405280600381526020016231303160e81b815250906110c95760405162461bcd60e51b8152600401610844919061318a565b50600d546001600160a01b03828116911614610c7357600d80546001600160a01b0383166001600160a01b031990911617905550565b600061110d60065460ff1690565b15905090565b600a546001600160a01b031633148061113657506010546001600160a01b031633145b6040518060400160405280600381526020016231303160e81b815250906111705760405162461bcd60e51b8152600401610844919061318a565b50610c73816125df565b60006001600160a01b0382166111e45760405162461bcd60e51b815260206004820152602960248201527f4552433732313a2061646472657373207a65726f206973206e6f7420612076616044820152683634b21037bbb732b960b91b6064820152608401610844565b506001600160a01b031660009081526003602052604090205490565b6112086125f5565b6112126000612673565b565b60108054601154601254601380546001600160a01b0390941694929362ffffff8084169463010000008504821694600160301b8104831694600160481b90910490921692909190611264906137e2565b80601f0160208091040260200160405190810160405280929190818152602001828054611290906137e2565b80156112dd5780601f106112b2576101008083540402835291602001916112dd565b820191906000526020600020905b8154815290600101906020018083116112c057829003601f168201915b5050505060048301546005840154600685018054949592946001600160a01b0390921693509061130c906137e2565b80601f0160208091040260200160405190810160405280929190818152602001828054611338906137e2565b80156113855780601f1061135a57610100808354040283529160200191611385565b820191906000526020600020905b81548152906001019060200180831161136857829003601f168201915b5050604080518082019091526007860154815260088601546020820152600a9095015493949392508e915050565b600a546001600160a01b0316331480156113d557506001600160a01b03811615155b6040518060400160405280600381526020016231303160e81b8152509061140f5760405162461bcd60e51b8152600401610844919061318a565b50600a546001600160a01b03828116911614610c7357600a80546001600160a01b0383166001600160a01b031990911617905550565b60606114de60016003600e805461145b906137e2565b80601f0160208091040260200160405190810160405280929190818152602001828054611487906137e2565b80156114d45780601f106114a9576101008083540402835291602001916114d4565b820191906000526020600020905b8154815290600101906020018083116114b757829003601f168201915b50505050506126c5565b905090565b6114ee3383836127ac565b5050565b836001600160a01b038116331461150c5761150c33612340565b6115188585858561287b565b5050505050565b606061152a82611b35565b6040518060400160405280600381526020016232303960e81b815250906115645760405162461bcd60e51b8152600401610844919061318a565b50600d546001600160a01b0316600061157c84611b52565b6011546040516308dd54e960e31b8152600481019190915260248101869052604481018290529091506001600160a01b038316906346eaa74890606401610985565b6115c66125f5565b6001600160a01b03811661162b5760405162461bcd60e51b815260206004820152602660248201527f4f776e61626c653a206e6577206f776e657220697320746865207a65726f206160448201526564647265737360d01b6064820152608401610844565b610c7381612673565b600a5460408051808201909152600381526219181960e91b6020820152906001600160a01b0316156116795760405162461bcd60e51b8152600401610844919061318a565b5060408051808201909152600381526203130360ec1b60208201526001600160a01b0386166116bb5760405162461bcd60e51b8152600401610844919061318a565b508551601080546001600160a01b039092166001600160a01b031990921691909117815560208088015160115560408801516012805460608b015160808c015160a08d015162ffffff908116600160481b026bffffff00000000000000000019928216600160301b02929092166bffffffffffff0000000000001993821663010000000265ffffffffffff19909516919096161792909217169290921791909117905560c088015180518993926117779260139291019061300a565b5060e082015160048201556101008201516005820180546001600160a01b0319166001600160a01b0390921691909117905561012082015180516117c591600684019160209091019061300a565b5061014082015180516007830155602090810151600883015561016083015180516117f6926009850192019061308e565b506101809190910151600a91820155600b80546001600160a01b038088166001600160a01b031992831617909255825488831690821617909255600c8054868316908416179055600d80549185169190921617905561012086015160c0870151604051611867929190602001613961565b604051602081830303815290604052600e908051906020019061188b92919061300a565b5060005b866101600151518110156118fe576001601b600089610160015184815181106118ba576118ba6139a0565b6020908102919091018101516001600160a01b03168252810191909152604001600020805460ff1916911515919091179055806118f6816139b6565b91505061188f565b50600a54611914906001600160a01b03166115be565b8015611922576119226128ad565b5050426017555050506101800151600f55565b600a546001600160a01b03163314801561195757506001600160a01b03811615155b6040518060400160405280600381526020016231303160e81b815250906119915760405162461bcd60e51b8152600401610844919061318a565b50600b546001600160a01b03828116911614610c7357600b80546001600160a01b0383166001600160a01b031990911617905550565b60006001600160e01b031982166380ac58cd60e01b14806119f857506001600160e01b03198216635b5e139f60e01b145b8061071057506301ffc9a760e01b6001600160e01b0319831614610710565b611a2081611b35565b610c735760405162461bcd60e51b8152602060048201526018602482015277115490cdcc8c4e881a5b9d985b1a59081d1bdad95b88125160421b6044820152606401610844565b6000818152600260205260408120546001600160a01b0316806107105760405162461bcd60e51b8152602060048201526018602482015277115490cdcc8c4e881a5b9d985b1a59081d1bdad95b88125160421b6044820152606401610844565b600081815260046020526040902080546001600160a01b0319166001600160a01b0384169081179091558190611afc82611a67565b6001600160a01b03167f8c5be1e5ebec7d5bd14f71427d1e84f3dd0314c0f7b2291e5b200ac8c7c3b92560405160405180910390a45050565b6000908152600960205260409020546001600160a01b0316151590565b6000611b5d82611b35565b6040518060400160405280600381526020016232303960e81b81525090611b975760405162461bcd60e51b8152600401610844919061318a565b50600082815260096020526040902054600160a01b900460a01b6001600160a01b031916611bc757506000919050565b600082815260096020908152604091829020549151611c0192600160a01b900460a01b91016001600160a01b031991909116815260200190565b604051602081830303815290604052805190602001209050919050565b60026007541415611c715760405162461bcd60e51b815260206004820152601f60248201527f5265656e7472616e637947756172643a207265656e7472616e742063616c6c006044820152606401610844565b6002600755565b6114ee828260405180602001604052806000815250612907565b600082815260096020908152604091829020548251808401909352600383526219181b60e91b91830191909152600160a01b900460a01b6001600160a01b03191615611cf15760405162461bcd60e51b8152600401610844919061318a565b5060408051808201909152600381526232303760e81b602082015281611d2a5760405162461bcd60e51b8152600401610844919061318a565b50600091825260096020526040909120805460a09290921c600160a01b026001600160a01b03909216919091179055565b60145480611d665750565b601054600b54604080518082018252601b81527f44454641554c545f524f59414c54595f46494e5f50455243454e54000000000060208201529051636d12dce160e01b81526001600160a01b0393841693909216916000918391636d12dce191611dd29160040161318a565b602060405180830381865afa158015611def573d6000803e3d6000fd5b505050506040513d601f19601f82011682018060405250810190611e13919061392b565b600a54600b549192506001600160a01b03908116911615611f7f5760408051808201825260158152744d494e545f4e46545f4f50455241544f525f46454560581b60208201529051636d12dce160e01b81526001600160a01b03851691636d12dce191611e83919060040161318a565b602060405180830381865afa158015611ea0573d6000803e3d6000fd5b505050506040513d601f19601f82011682018060405250810190611ec4919061392b565b604080518082018252601f81527f4d494e545f4e46545f4f50455241544f525f54524541535552455f41444452006020820152905163bf40fac160e01b81529193506000916001600160a01b0386169163bf40fac191611f27919060040161318a565b602060405180830381865afa158015611f44573d6000803e3d6000fd5b505050506040513d601f19601f82011682018060405250810190611f689190613944565b90506001600160a01b03811615611f7d578091505b505b6015546001600160a01b0316806120ff5785341015611f9d57600080fd5b6011546040516331a9108f60e11b81526000916001600160a01b03881691636352211e91611fd19160040190815260200190565b602060405180830381865afa158015611fee573d6000803e3d6000fd5b505050506040513d601f19601f820116820180604052508101906120129190613944565b6001600160a01b0316612710612028868a6138f4565b61203291906139d1565b61203c90896139f3565b604051600081818185875af1925050503d8060008114612078576040519150601f19603f3d011682016040523d82523d6000602084013e61207d565b606091505b505090508061208b57600080fd5b83156120f9576001600160a01b0383166127106120a8868a6138f4565b6120b291906139d1565b604051600081818185875af1925050503d80600081146120ee576040519150601f19603f3d011682016040523d82523d6000602084013e6120f3565b606091505b50909150505b50612338565b6040516323b872dd60e01b81523360048201523060248201526044810187905281906001600160a01b038216906323b872dd906064016020604051808303816000875af1158015612154573d6000803e3d6000fd5b505050506040513d601f19601f820116820180604052508101906121789190613a0a565b61218157600080fd5b6011546040516331a9108f60e11b815260048101919091526001600160a01b038281169163a9059cbb91891690636352211e90602401602060405180830381865afa1580156121d4573d6000803e3d6000fd5b505050506040513d601f19601f820116820180604052508101906121f89190613944565b612710612205888c6138f4565b61220f91906139d1565b612219908b6139f3565b6040516001600160e01b031960e085901b1681526001600160a01b03909216600483015260248201526044016020604051808303816000875af1158015612264573d6000803e3d6000fd5b505050506040513d601f19601f820116820180604052508101906122889190613a0a565b61229157600080fd5b8315612336576001600160a01b03811663a9059cbb846127106122b4888c6138f4565b6122be91906139d1565b6040516001600160e01b031960e085901b1681526001600160a01b03909216600483015260248201526044016020604051808303816000875af1158015612309573d6000803e3d6000fd5b505050506040513d601f19601f8201168201806040525081019061232d9190613a0a565b61233657600080fd5b505b505050505050565b6daaeb6d7670e522a718067333cd4e3b15610c7357604051633185c44d60e21b81523060048201526001600160a01b03821660248201526daaeb6d7670e522a718067333cd4e9063c617113490604401602060405180830381865afa1580156123ad573d6000803e3d6000fd5b505050506040513d601f19601f820116820180604052508101906123d19190613a0a565b610c7357604051633b79c77360e21b81526001600160a01b0382166004820152602401610844565b612403338261293a565b61241f5760405162461bcd60e51b815260040161084490613a27565b6108e58383836129b8565b600a54600f54600b546001600160a01b03928316926000929116156125a357600b546040805180820182526013815272524f59414c54595f46494e5f4144445245535360681b6020820152905163bf40fac160e01b81526001600160a01b0390921691600091839163bf40fac1916124a49160040161318a565b602060405180830381865afa1580156124c1573d6000803e3d6000fd5b505050506040513d601f19601f820116820180604052508101906124e59190613944565b90506001600160a01b038116156124fa578094505b826125a057604080518082018252601b81527f44454641554c545f524f59414c54595f46494e5f50455243454e54000000000060208201529051636d12dce160e01b81526001600160a01b03841691636d12dce19161255c919060040161318a565b602060405180830381865afa158015612579573d6000803e3d6000fd5b505050506040513d601f19601f8201168201806040525081019061259d919061392b565b92505b50505b6127106125b082866138f4565b6125ba91906139d1565b9150509250929050565b6108e5838383604051806020016040528060008152506114f2565b80156125ed57610c736129f2565b610c736128ad565b33612608600a546001600160a01b031690565b6001600160a01b0316148061262757506010546001600160a01b031633145b6112125760405162461bcd60e51b815260206004820181905260248201527f4f776e61626c653a2063616c6c6572206973206e6f7420746865206f776e65726044820152606401610844565b600880546001600160a01b038381166001600160a01b0319831681179093556040519116919082907f8be0079c531659141344cd1fd0a4f28419497f9722a3daafe3b4186f6b6457e090600090a35050565b606060006126d385856139f3565b6126de906001613913565b67ffffffffffffffff8111156126f6576126f66133aa565b6040519080825280601f01601f191660200182016040528015612720576020820181803683370190505b50905060005b61273086866139f3565b81116127a3578360016127438884613913565b61274d91906139f3565b8151811061275d5761275d6139a0565b602001015160f81c60f81b82828151811061277a5761277a6139a0565b60200101906001600160f81b031916908160001a9053508061279b816139b6565b915050612726565b50949350505050565b816001600160a01b0316836001600160a01b0316141561280e5760405162461bcd60e51b815260206004820152601960248201527f4552433732313a20617070726f766520746f2063616c6c6572000000000000006044820152606401610844565b6001600160a01b03838116600081815260056020908152604080832094871680845294825291829020805460ff191686151590811790915591519182527f17307eab39ab6107e8899845ad3d59bd9653f200f220920489ca2b5937696c31910160405180910390a3505050565b612885338361293a565b6128a15760405162461bcd60e51b815260040161084490613a27565b610f9c84848484612a2b565b6128b5612a5e565b6006805460ff191660011790557f62e78cea01bee320cd4e420270b5ea74000d11b0c9f74754ebdbfc544b05a2586128ea3390565b6040516001600160a01b03909116815260200160405180910390a1565b6129118383612aa4565b61291e6000848484612adc565b6108e55760405162461bcd60e51b815260040161084490613a74565b60008061294683611a67565b9050806001600160a01b0316846001600160a01b0316148061298d57506001600160a01b0380821660009081526005602090815260408083209388168352929052205460ff165b806109ca5750836001600160a01b03166129a6846107a8565b6001600160a01b031614949350505050565b6129c3838383612bda565b600090815260096020526040902080546001600160a01b0319166001600160a01b039290921691909117905550565b6129fa612d4b565b6006805460ff191690557f5db9ee0a495bf2e6ff9c91a7834c1ba4fdd244a5e8aa4e537bd38aeae4b073aa336128ea565b612a368484846129b8565b612a4284848484612adc565b610f9c5760405162461bcd60e51b815260040161084490613a74565b60065460ff16156112125760405162461bcd60e51b815260206004820152601060248201526f14185d5cd8589b194e881c185d5cd95960821b6044820152606401610844565b612aae8282612d94565b600090815260096020526040902080546001600160a01b0319166001600160a01b0392909216919091179055565b60006001600160a01b0384163b15612bcf57604051630a85bd0160e11b81526001600160a01b0385169063150b7a0290612b20903390899088908890600401613ac6565b6020604051808303816000875af1925050508015612b5b575060408051601f3d908101601f19168201909252612b5891810190613b03565b60015b612bb5573d808015612b89576040519150601f19603f3d011682016040523d82523d6000602084013e612b8e565b606091505b508051612bad5760405162461bcd60e51b815260040161084490613a74565b805181602001fd5b6001600160e01b031916630a85bd0160e11b1490506109ca565b506001949350505050565b826001600160a01b0316612bed82611a67565b6001600160a01b031614612c135760405162461bcd60e51b815260040161084490613b20565b6001600160a01b038216612c755760405162461bcd60e51b8152602060048201526024808201527f4552433732313a207472616e7366657220746f20746865207a65726f206164646044820152637265737360e01b6064820152608401610844565b612c828383836001612f0f565b826001600160a01b0316612c9582611a67565b6001600160a01b031614612cbb5760405162461bcd60e51b815260040161084490613b20565b600081815260046020908152604080832080546001600160a01b03199081169091556001600160a01b0387811680865260038552838620805460001901905590871680865283862080546001019055868652600290945282852080549092168417909155905184937fddf252ad1be2c89b69c2b068fc378daa952ba7f163c4a11628f55a4df523b3ef91a4505050565b60065460ff166112125760405162461bcd60e51b815260206004820152601460248201527314185d5cd8589b194e881b9bdd081c185d5cd95960621b6044820152606401610844565b6001600160a01b038216612dea5760405162461bcd60e51b815260206004820181905260248201527f4552433732313a206d696e7420746f20746865207a65726f20616464726573736044820152606401610844565b612df381611b35565b15612e405760405162461bcd60e51b815260206004820152601c60248201527f4552433732313a20746f6b656e20616c7265616479206d696e746564000000006044820152606401610844565b612e4e600083836001612f0f565b612e5781611b35565b15612ea45760405162461bcd60e51b815260206004820152601c60248201527f4552433732313a20746f6b656e20616c7265616479206d696e746564000000006044820152606401610844565b6001600160a01b038216600081815260036020908152604080832080546001019055848352600290915280822080546001600160a01b0319168417905551839291907fddf252ad1be2c89b69c2b068fc378daa952ba7f163c4a11628f55a4df523b3ef908290a45050565b612f1b84848484612f82565b60065460ff1615610f9c5760405162461bcd60e51b815260206004820152602b60248201527f4552433732315061757361626c653a20746f6b656e207472616e73666572207760448201526a1a1a5b19481c185d5cd95960aa1b6064820152608401610844565b6001811115610f9c576001600160a01b03841615612fc8576001600160a01b03841660009081526003602052604081208054839290612fc29084906139f3565b90915550505b6001600160a01b03831615610f9c576001600160a01b03831660009081526003602052604081208054839290612fff908490613913565b909155505050505050565b828054613016906137e2565b90600052602060002090601f016020900481019282613038576000855561307e565b82601f1061305157805160ff191683800117855561307e565b8280016001018555821561307e579182015b8281111561307e578251825591602001919060010190613063565b5061308a9291506130e3565b5090565b82805482825590600052602060002090810192821561307e579160200282015b8281111561307e57825182546001600160a01b0319166001600160a01b039091161782556020909201916001909101906130ae565b5b8082111561308a57600081556001016130e4565b6001600160e01b031981168114610c7357600080fd5b60006020828403121561312057600080fd5b813561312b816130f8565b9392505050565b60005b8381101561314d578181015183820152602001613135565b83811115610f9c5750506000910152565b60008151808452613176816020860160208601613132565b601f01601f19169290920160200192915050565b60208152600061312b602083018461315e565b6000602082840312156131af57600080fd5b5035919050565b6001600160a01b0381168114610c7357600080fd5b80356131d6816131b6565b919050565b600080604083850312156131ee57600080fd5b82356131f9816131b6565b946020939093013593505050565b60006020828403121561321957600080fd5b813561312b816131b6565b60008060006060848603121561323957600080fd5b8335613244816131b6565b92506020840135613254816131b6565b929592945050506040919091013590565b6000806040838503121561327857600080fd5b50508035926020909101359150565b8015158114610c7357600080fd5b80356131d681613287565b6000602082840312156132b257600080fd5b813561312b81613287565b6001600160a01b038d168152602081018c905262ffffff8b811660408301528a811660608301528981166080830152881660a08201526101a060c0820181905260009061330c8382018a61315e565b90508760e084015261332a6101008401886001600160a01b03169052565b82810361012084015261333d818761315e565b8551610140850152602086015161016085015291506133599050565b826101808301529d9c50505050505050505050505050565b6000806040838503121561338457600080fd5b823561338f816131b6565b9150602083013561339f81613287565b809150509250929050565b634e487b7160e01b600052604160045260246000fd5b6040516101a0810167ffffffffffffffff811182821017156133e4576133e46133aa565b60405290565b604051601f8201601f1916810167ffffffffffffffff81118282101715613413576134136133aa565b604052919050565b600067ffffffffffffffff821115613435576134356133aa565b50601f01601f191660200190565b60006134566134518461341b565b6133ea565b905082815283838301111561346a57600080fd5b828260208301376000602084830101529392505050565b6000806000806080858703121561349757600080fd5b84356134a2816131b6565b935060208501356134b2816131b6565b925060408501359150606085013567ffffffffffffffff8111156134d557600080fd5b8501601f810187136134e657600080fd5b6134f587823560208401613443565b91505092959194509250565b6000806040838503121561351457600080fd5b823561351f816131b6565b9150602083013561339f816131b6565b803562ffffff811681146131d657600080fd5b600082601f83011261355357600080fd5b61312b83833560208501613443565b60006040828403121561357457600080fd5b6040516040810181811067ffffffffffffffff82111715613597576135976133aa565b604052823581526020928301359281019290925250919050565b600082601f8301126135c257600080fd5b8135602067ffffffffffffffff8211156135de576135de6133aa565b8160051b6135ed8282016133ea565b928352848101820192828101908785111561360757600080fd5b83870192505b8483101561362f578235613620816131b6565b8252918301919083019061360d565b979650505050505050565b60008060008060008060c0878903121561365357600080fd5b863567ffffffffffffffff8082111561366b57600080fd5b908801906101c0828b03121561368057600080fd5b6136886133c0565b613691836131cb565b8152602083013560208201526136a96040840161352f565b60408201526136ba6060840161352f565b60608201526136cb6080840161352f565b60808201526136dc60a0840161352f565b60a082015260c0830135828111156136f357600080fd5b6136ff8c828601613542565b60c08301525060e083013560e082015261010061371d8185016131cb565b90820152610120838101358381111561373557600080fd5b6137418d828701613542565b8284015250506101406137568c828601613562565b90820152610180838101358381111561376e57600080fd5b61377a8d8287016135b1565b610160840152506101a0840135818301525080985050505061379e602088016131cb565b94506137ac604088016131cb565b93506137ba606088016131cb565b92506137c8608088016131cb565b91506137d660a08801613295565b90509295509295509295565b600181811c908216806137f657607f821691505b6020821081141561381757634e487b7160e01b600052602260045260246000fd5b50919050565b60006020828403121561382f57600080fd5b815167ffffffffffffffff81111561384657600080fd5b8201601f8101841361385757600080fd5b80516138656134518261341b565b81815285602083850101111561387a57600080fd5b61388b826020830160208601613132565b95945050505050565b634e487b7160e01b600052601160045260246000fd5b600062ffffff808316818114156138c3576138c3613894565b6001019392505050565b600062ffffff8083168185168083038211156138eb576138eb613894565b01949350505050565b600081600019048311821515161561390e5761390e613894565b500290565b6000821982111561392657613926613894565b500190565b60006020828403121561393d57600080fd5b5051919050565b60006020828403121561395657600080fd5b815161312b816131b6565b60008351613973818460208801613132565b63010313c960e51b9083019081528351613994816004840160208801613132565b01600401949350505050565b634e487b7160e01b600052603260045260246000fd5b60006000198214156139ca576139ca613894565b5060010190565b6000826139ee57634e487b7160e01b600052601260045260246000fd5b500490565b600082821015613a0557613a05613894565b500390565b600060208284031215613a1c57600080fd5b815161312b81613287565b6020808252602d908201527f4552433732313a2063616c6c6572206973206e6f7420746f6b656e206f776e6560408201526c1c881bdc88185c1c1c9bdd9959609a1b606082015260800190565b60208082526032908201527f4552433732313a207472616e7366657220746f206e6f6e20455243373231526560408201527131b2b4bb32b91034b6b83632b6b2b73a32b960711b606082015260800190565b6001600160a01b0385811682528416602082015260408101839052608060608201819052600090613af99083018461315e565b9695505050505050565b600060208284031215613b1557600080fd5b815161312b816130f8565b60208082526025908201527f4552433732313a207472616e736665722066726f6d20696e636f72726563742060408201526437bbb732b960d91b60608201526080019056fea26469706673582212205e5fff7fd7fcb4493ba379ca3112323b52a8bc897b6a58b8db41b284765136a764736f6c634300080c0033",
  "linkReferences": {},
  "deployedLinkReferences": {}
}