{
  "_format": "hh-sol-artifact-1",
  "contractName": "GenerativeNFT",
  "sourceName": "contracts/nfts/GenerativeNFT.sol",
  "abi": [
    {
      "inputs": [
        {
          "internalType": "string",
          "name": "name",
          "type": "string"
        },
        {
          "internalType": "string",
          "name": "symbol",
          "type": "string"
        }
      ],
      "stateMutability": "nonpayable",
      "type": "constructor"
    },
    {
      "inputs": [
        {
          "internalType": "address",
          "name": "operator",
          "type": "address"
        }
      ],
      "name": "OperatorNotAllowed",
      "type": "error"
    },
    {
      "anonymous": false,
      "inputs": [
        {
          "indexed": true,
          "internalType": "address",
          "name": "owner",
          "type": "address"
        },
        {
          "indexed": true,
          "internalType": "address",
          "name": "approved",
          "type": "address"
        },
        {
          "indexed": true,
          "internalType": "uint256",
          "name": "tokenId",
          "type": "uint256"
        }
      ],
      "name": "Approval",
      "type": "event"
    },
    {
      "anonymous": false,
      "inputs": [
        {
          "indexed": true,
          "internalType": "address",
          "name": "owner",
          "type": "address"
        },
        {
          "indexed": true,
          "internalType": "address",
          "name": "operator",
          "type": "address"
        },
        {
          "indexed": false,
          "internalType": "bool",
          "name": "approved",
          "type": "bool"
        }
      ],
      "name": "ApprovalForAll",
      "type": "event"
    },
    {
      "anonymous": false,
      "inputs": [
        {
          "indexed": true,
          "internalType": "address",
          "name": "previousOwner",
          "type": "address"
        },
        {
          "indexed": true,
          "internalType": "address",
          "name": "newOwner",
          "type": "address"
        }
      ],
      "name": "OwnershipTransferred",
      "type": "event"
    },
    {
      "anonymous": false,
      "inputs": [
        {
          "indexed": false,
          "internalType": "address",
          "name": "account",
          "type": "address"
        }
      ],
      "name": "Paused",
      "type": "event"
    },
    {
      "anonymous": false,
      "inputs": [
        {
          "indexed": true,
          "internalType": "address",
          "name": "from",
          "type": "address"
        },
        {
          "indexed": true,
          "internalType": "address",
          "name": "to",
          "type": "address"
        },
        {
          "indexed": true,
          "internalType": "uint256",
          "name": "tokenId",
          "type": "uint256"
        }
      ],
      "name": "Transfer",
      "type": "event"
    },
    {
      "anonymous": false,
      "inputs": [
        {
          "indexed": false,
          "internalType": "address",
          "name": "account",
          "type": "address"
        }
      ],
      "name": "Unpaused",
      "type": "event"
    },
    {
      "inputs": [],
      "name": "OPERATOR_FILTER_REGISTRY",
      "outputs": [
        {
          "internalType": "contract IOperatorFilterRegistry",
          "name": "",
          "type": "address"
        }
      ],
      "stateMutability": "view",
      "type": "function"
    },
    {
      "inputs": [],
      "name": "_admin",
      "outputs": [
        {
          "internalType": "address",
          "name": "",
          "type": "address"
        }
      ],
      "stateMutability": "view",
      "type": "function"
    },
    {
      "inputs": [],
      "name": "_nameCol",
      "outputs": [
        {
          "internalType": "string",
          "name": "",
          "type": "string"
        }
      ],
      "stateMutability": "view",
      "type": "function"
    },
    {
      "inputs": [],
      "name": "_paramsAddress",
      "outputs": [
        {
          "internalType": "address",
          "name": "",
          "type": "address"
        }
      ],
      "stateMutability": "view",
      "type": "function"
    },
    {
      "inputs": [],
      "name": "_project",
      "outputs": [
        {
          "internalType": "address",
          "name": "_projectAddr",
          "type": "address"
        },
        {
          "internalType": "uint256",
          "name": "_projectId",
          "type": "uint256"
        },
        {
          "internalType": "uint24",
          "name": "_maxSupply",
          "type": "uint24"
        },
        {
          "internalType": "uint24",
          "name": "_limit",
          "type": "uint24"
        },
        {
          "internalType": "uint24",
          "name": "_index",
          "type": "uint24"
        },
        {
          "internalType": "uint24",
          "name": "_indexReserve",
          "type": "uint24"
        },
        {
          "internalType": "string",
          "name": "_creator",
          "type": "string"
        },
        {
          "internalType": "address",
          "name": "_creatorAddr",
          "type": "address"
        },
        {
          "internalType": "uint256",
          "name": "_mintPrice",
          "type": "uint256"
        },
        {
          "internalType": "address",
          "name": "_mintPriceAddr",
          "type": "address"
        },
        {
          "internalType": "string",
          "name": "_name",
          "type": "string"
        },
        {
          "components": [
            {
              "internalType": "uint256",
              "name": "_initBlockTime",
              "type": "uint256"
            },
            {
              "internalType": "uint256",
              "name": "_openingTime",
              "type": "uint256"
            }
          ],
          "internalType": "struct NFTProject.ProjectMintingSchedule",
          "name": "_mintingSchedule",
          "type": "tuple"
        }
      ],
      "stateMutability": "view",
      "type": "function"
    },
    {
      "inputs": [],
      "name": "_projectDataContextAddr",
      "outputs": [
        {
          "internalType": "address",
          "name": "",
          "type": "address"
        }
      ],
      "stateMutability": "view",
      "type": "function"
    },
    {
      "inputs": [],
      "name": "_randomizer",
      "outputs": [
        {
          "internalType": "address",
          "name": "",
          "type": "address"
        }
      ],
      "stateMutability": "view",
      "type": "function"
    },
    {
      "inputs": [
        {
          "internalType": "address",
          "name": "",
          "type": "address"
        }
      ],
      "name": "_reserves",
      "outputs": [
        {
          "internalType": "bool",
          "name": "",
          "type": "bool"
        }
      ],
      "stateMutability": "view",
      "type": "function"
    },
    {
      "inputs": [],
      "name": "_symbolCol",
      "outputs": [
        {
          "internalType": "string",
          "name": "",
          "type": "string"
        }
      ],
      "stateMutability": "view",
      "type": "function"
    },
    {
      "inputs": [
        {
          "internalType": "address",
          "name": "to",
          "type": "address"
        },
        {
          "internalType": "uint256",
          "name": "tokenId",
          "type": "uint256"
        }
      ],
      "name": "approve",
      "outputs": [],
      "stateMutability": "nonpayable",
      "type": "function"
    },
    {
      "inputs": [
        {
          "internalType": "address",
          "name": "owner",
          "type": "address"
        }
      ],
      "name": "balanceOf",
      "outputs": [
        {
          "internalType": "uint256",
          "name": "",
          "type": "uint256"
        }
      ],
      "stateMutability": "view",
      "type": "function"
    },
    {
      "inputs": [
        {
          "internalType": "address",
          "name": "newAdm",
          "type": "address"
        }
      ],
      "name": "changeAdmin",
      "outputs": [],
      "stateMutability": "nonpayable",
      "type": "function"
    },
    {
      "inputs": [
        {
          "internalType": "address",
          "name": "newAddr",
          "type": "address"
        }
      ],
      "name": "changeDataContextAddr",
      "outputs": [],
      "stateMutability": "nonpayable",
      "type": "function"
    },
    {
      "inputs": [
        {
          "internalType": "address",
          "name": "newAddr",
          "type": "address"
        }
      ],
      "name": "changeParamAddr",
      "outputs": [],
      "stateMutability": "nonpayable",
      "type": "function"
    },
    {
      "inputs": [
        {
          "internalType": "address",
          "name": "newAddr",
          "type": "address"
        }
      ],
      "name": "changeRandomizerAddr",
      "outputs": [],
      "stateMutability": "nonpayable",
      "type": "function"
    },
    {
      "inputs": [
        {
          "internalType": "uint256",
          "name": "tokenId",
          "type": "uint256"
        }
      ],
      "name": "getApproved",
      "outputs": [
        {
          "internalType": "address",
          "name": "",
          "type": "address"
        }
      ],
      "stateMutability": "view",
      "type": "function"
    },
    {
      "inputs": [],
      "name": "getStatus",
      "outputs": [
        {
          "internalType": "bool",
          "name": "",
          "type": "bool"
        }
      ],
      "stateMutability": "view",
      "type": "function"
    },
    {
      "inputs": [
        {
          "components": [
            {
              "internalType": "address",
              "name": "_projectAddr",
              "type": "address"
            },
            {
              "internalType": "uint256",
              "name": "_projectId",
              "type": "uint256"
            },
            {
              "internalType": "uint24",
              "name": "_maxSupply",
              "type": "uint24"
            },
            {
              "internalType": "uint24",
              "name": "_limit",
              "type": "uint24"
            },
            {
              "internalType": "uint24",
              "name": "_index",
              "type": "uint24"
            },
            {
              "internalType": "uint24",
              "name": "_indexReserve",
              "type": "uint24"
            },
            {
              "internalType": "string",
              "name": "_creator",
              "type": "string"
            },
            {
              "internalType": "address",
              "name": "_creatorAddr",
              "type": "address"
            },
            {
              "internalType": "uint256",
              "name": "_mintPrice",
              "type": "uint256"
            },
            {
              "internalType": "address",
              "name": "_mintPriceAddr",
              "type": "address"
            },
            {
              "internalType": "string",
              "name": "_name",
              "type": "string"
            },
            {
              "components": [
                {
                  "internalType": "uint256",
                  "name": "_initBlockTime",
                  "type": "uint256"
                },
                {
                  "internalType": "uint256",
                  "name": "_openingTime",
                  "type": "uint256"
                }
              ],
              "internalType": "struct NFTProject.ProjectMintingSchedule",
              "name": "_mintingSchedule",
              "type": "tuple"
            }
          ],
          "internalType": "struct NFTProject.ProjectMinting",
          "name": "project",
          "type": "tuple"
        },
        {
          "internalType": "address",
          "name": "admin",
          "type": "address"
        },
        {
          "internalType": "address",
          "name": "paramsAddr",
          "type": "address"
        },
        {
          "internalType": "address",
          "name": "randomizer",
          "type": "address"
        },
        {
          "internalType": "address",
          "name": "projectDataContextAddr",
          "type": "address"
        },
        {
          "internalType": "address[]",
          "name": "reserves",
          "type": "address[]"
        },
        {
          "internalType": "bool",
          "name": "disable",
          "type": "bool"
        }
      ],
      "name": "init",
      "outputs": [],
      "stateMutability": "nonpayable",
      "type": "function"
    },
    {
      "inputs": [
        {
          "internalType": "address",
          "name": "owner",
          "type": "address"
        },
        {
          "internalType": "address",
          "name": "operator",
          "type": "address"
        }
      ],
      "name": "isApprovedForAll",
      "outputs": [
        {
          "internalType": "bool",
          "name": "",
          "type": "bool"
        }
      ],
      "stateMutability": "view",
      "type": "function"
    },
    {
      "inputs": [],
      "name": "mint",
      "outputs": [
        {
          "internalType": "uint256",
          "name": "tokenId",
          "type": "uint256"
        }
      ],
      "stateMutability": "payable",
      "type": "function"
    },
    {
      "inputs": [],
      "name": "name",
      "outputs": [
        {
          "internalType": "string",
          "name": "",
          "type": "string"
        }
      ],
      "stateMutability": "view",
      "type": "function"
    },
    {
      "inputs": [],
      "name": "owner",
      "outputs": [
        {
          "internalType": "address",
          "name": "",
          "type": "address"
        }
      ],
      "stateMutability": "view",
      "type": "function"
    },
    {
      "inputs": [
        {
          "internalType": "uint256",
          "name": "tokenId",
          "type": "uint256"
        }
      ],
      "name": "ownerOf",
      "outputs": [
        {
          "internalType": "address",
          "name": "",
          "type": "address"
        }
      ],
      "stateMutability": "view",
      "type": "function"
    },
    {
      "inputs": [],
      "name": "paused",
      "outputs": [
        {
          "internalType": "bool",
          "name": "",
          "type": "bool"
        }
      ],
      "stateMutability": "view",
      "type": "function"
    },
    {
      "inputs": [],
      "name": "renounceOwnership",
      "outputs": [],
      "stateMutability": "nonpayable",
      "type": "function"
    },
    {
      "inputs": [],
      "name": "reserveMint",
      "outputs": [
        {
          "internalType": "uint256",
          "name": "tokenId",
          "type": "uint256"
        }
      ],
      "stateMutability": "payable",
      "type": "function"
    },
    {
      "inputs": [
        {
          "internalType": "uint256",
          "name": "",
          "type": "uint256"
        }
      ],
      "name": "royalties",
      "outputs": [
        {
          "internalType": "address",
          "name": "recipient",
          "type": "address"
        },
        {
          "internalType": "uint24",
          "name": "amount",
          "type": "uint24"
        },
        {
          "internalType": "bool",
          "name": "isValue",
          "type": "bool"
        }
      ],
      "stateMutability": "view",
      "type": "function"
    },
    {
      "inputs": [
        {
          "internalType": "uint256",
          "name": "_tokenId",
          "type": "uint256"
        },
        {
          "internalType": "uint256",
          "name": "_salePrice",
          "type": "uint256"
        }
      ],
      "name": "royaltyInfo",
      "outputs": [
        {
          "internalType": "address",
          "name": "receiver",
          "type": "address"
        },
        {
          "internalType": "uint256",
          "name": "royaltyAmount",
          "type": "uint256"
        }
      ],
      "stateMutability": "view",
      "type": "function"
    },
    {
      "inputs": [
        {
          "internalType": "address",
          "name": "from",
          "type": "address"
        },
        {
          "internalType": "address",
          "name": "to",
          "type": "address"
        },
        {
          "internalType": "uint256",
          "name": "tokenId",
          "type": "uint256"
        }
      ],
      "name": "safeTransferFrom",
      "outputs": [],
      "stateMutability": "nonpayable",
      "type": "function"
    },
    {
      "inputs": [
        {
          "internalType": "address",
          "name": "from",
          "type": "address"
        },
        {
          "internalType": "address",
          "name": "to",
          "type": "address"
        },
        {
          "internalType": "uint256",
          "name": "tokenId",
          "type": "uint256"
        },
        {
          "internalType": "bytes",
          "name": "data",
          "type": "bytes"
        }
      ],
      "name": "safeTransferFrom",
      "outputs": [],
      "stateMutability": "nonpayable",
      "type": "function"
    },
    {
      "inputs": [
        {
          "internalType": "address",
          "name": "operator",
          "type": "address"
        },
        {
          "internalType": "bool",
          "name": "approved",
          "type": "bool"
        }
      ],
      "name": "setApprovalForAll",
      "outputs": [],
      "stateMutability": "nonpayable",
      "type": "function"
    },
    {
      "inputs": [
        {
          "internalType": "bool",
          "name": "enable",
          "type": "bool"
        }
      ],
      "name": "setStatus",
      "outputs": [],
      "stateMutability": "nonpayable",
      "type": "function"
    },
    {
      "inputs": [
        {
          "internalType": "uint256",
          "name": "_tokenId",
          "type": "uint256"
        },
        {
          "internalType": "address",
          "name": "_recipient",
          "type": "address"
        },
        {
          "internalType": "uint256",
          "name": "_value",
          "type": "uint256"
        }
      ],
      "name": "setTokenRoyalty",
      "outputs": [],
      "stateMutability": "nonpayable",
      "type": "function"
    },
    {
      "inputs": [
        {
          "internalType": "bytes4",
          "name": "interfaceId",
          "type": "bytes4"
        }
      ],
      "name": "supportsInterface",
      "outputs": [
        {
          "internalType": "bool",
          "name": "",
          "type": "bool"
        }
      ],
      "stateMutability": "view",
      "type": "function"
    },
    {
      "inputs": [],
      "name": "symbol",
      "outputs": [
        {
          "internalType": "string",
          "name": "",
          "type": "string"
        }
      ],
      "stateMutability": "view",
      "type": "function"
    },
    {
      "inputs": [
        {
          "internalType": "uint256",
          "name": "tokenId",
          "type": "uint256"
        }
      ],
      "name": "tokenGenerativeURI",
      "outputs": [
        {
          "internalType": "string",
          "name": "",
          "type": "string"
        }
      ],
      "stateMutability": "view",
      "type": "function"
    },
    {
      "inputs": [
        {
          "internalType": "uint256",
          "name": "_tokenId",
          "type": "uint256"
        }
      ],
      "name": "tokenIdToHash",
      "outputs": [
        {
          "internalType": "bytes32",
          "name": "",
          "type": "bytes32"
        }
      ],
      "stateMutability": "view",
      "type": "function"
    },
    {
      "inputs": [
        {
          "internalType": "uint256",
          "name": "tokenId",
          "type": "uint256"
        }
      ],
      "name": "tokenURI",
      "outputs": [
        {
          "internalType": "string",
          "name": "",
          "type": "string"
        }
      ],
      "stateMutability": "view",
      "type": "function"
    },
    {
      "inputs": [
        {
          "internalType": "address",
          "name": "from",
          "type": "address"
        },
        {
          "internalType": "address",
          "name": "to",
          "type": "address"
        },
        {
          "internalType": "uint256",
          "name": "tokenId",
          "type": "uint256"
        }
      ],
      "name": "transferFrom",
      "outputs": [],
      "stateMutability": "nonpayable",
      "type": "function"
    },
    {
      "inputs": [
        {
          "internalType": "address",
          "name": "newOwner",
          "type": "address"
        }
      ],
      "name": "transferOwnership",
      "outputs": [],
      "stateMutability": "nonpayable",
      "type": "function"
    }
  ],
  "bytecode": "0x60806040523480156200001157600080fd5b5060405162004011380380620040118339810160408190526200003491620003b0565b733cc6cdda760b79bafa08df41ecfa224f810dceb66001838381818160009080519060200190620000679291906200023d565b5080516200007d9060019060208401906200023d565b50506006805460ff191690555060016007556200009a33620001eb565b50506daaeb6d7670e522a718067333cd4e3b15620001e15780156200012f57604051633e9f1edf60e11b81523060048201526001600160a01b03831660248201526daaeb6d7670e522a718067333cd4e90637d3e3dbe906044015b600060405180830381600087803b1580156200011057600080fd5b505af115801562000125573d6000803e3d6000fd5b50505050620001e1565b6001600160a01b03821615620001805760405163a0af290360e01b81523060048201526001600160a01b03831660248201526daaeb6d7670e522a718067333cd4e9063a0af290390604401620000f5565b604051632210724360e11b81523060048201526daaeb6d7670e522a718067333cd4e90634420e48690602401600060405180830381600087803b158015620001c757600080fd5b505af1158015620001dc573d6000803e3d6000fd5b505050505b5050505062000457565b600880546001600160a01b038381166001600160a01b0319831681179093556040519116919082907f8be0079c531659141344cd1fd0a4f28419497f9722a3daafe3b4186f6b6457e090600090a35050565b8280546200024b906200041a565b90600052602060002090601f0160209004810192826200026f5760008555620002ba565b82601f106200028a57805160ff1916838001178555620002ba565b82800160010185558215620002ba579182015b82811115620002ba5782518255916020019190600101906200029d565b50620002c8929150620002cc565b5090565b5b80821115620002c85760008155600101620002cd565b634e487b7160e01b600052604160045260246000fd5b600082601f8301126200030b57600080fd5b81516001600160401b0380821115620003285762000328620002e3565b604051601f8301601f19908116603f01168101908282118183101715620003535762000353620002e3565b816040528381526020925086838588010111156200037057600080fd5b600091505b8382101562000394578582018301518183018401529082019062000375565b83821115620003a65760008385830101525b9695505050505050565b60008060408385031215620003c457600080fd5b82516001600160401b0380821115620003dc57600080fd5b620003ea86838701620002f9565b935060208501519150808211156200040157600080fd5b506200041085828601620002f9565b9150509250929050565b600181811c908216806200042f57607f821691505b602082108114156200045157634e487b7160e01b600052602260045260246000fd5b50919050565b613baa80620004676000396000f3fe60806040526004361061023b5760003560e01c8063621a1f741161012e578063a22cb465116100ab578063e42b6ccd1161006f578063e42b6ccd1461071c578063e985e9c51461073c578063f2fde38b14610785578063febfd6c3146107a5578063ffc27c0e146107c557600080fd5b8063a22cb4651461066c578063ac4fb5f41461068c578063adfc7dae146106bc578063b88d4fde146106dc578063c87b56dd146106fc57600080fd5b80637f77f574116100f25780637f77f5741461057f5780638da5cb5b146105f95780638f2839701461061757806395d89b41146106375780639713c8071461064c57600080fd5b8063621a1f74146104c75780636352211e146104e757806370a082311461051d578063715018a61461053d578063775bff9f1461055257600080fd5b80632a55205a116101bc578063472f1e0211610180578063472f1e021461043a5780634e69d5601461045a578063575b57ea1461046f5780635c40f6f41461048f5780635c975abb146104af57600080fd5b80632a55205a1461038f57806336a0a6cb146103ce57806341f43434146103e357806342842e0e14610405578063452fa3d31461042557600080fd5b806310da88c51161020357806310da88c5146103115780631249c58b146103315780631ca9741b1461034757806321c8d6761461036757806323b872dd1461036f57600080fd5b806301bc45c91461024057806301ffc9a71461027d57806306fdde03146102ad578063081812fc146102cf578063095ea7b3146102ef575b600080fd5b34801561024c57600080fd5b50600a54610260906001600160a01b031681565b6040516001600160a01b0390911681526020015b60405180910390f35b34801561028957600080fd5b5061029d610298366004613128565b6107e5565b6040519015158152602001610274565b3480156102b957600080fd5b506102c2610837565b60405161027491906131a4565b3480156102db57600080fd5b506102606102ea3660046131b7565b6108c9565b3480156102fb57600080fd5b5061030f61030a3660046131f5565b6108f0565b005b34801561031d57600080fd5b506102c261032c3660046131b7565b610a0b565b610339610b60565b604051908152602001610274565b34801561035357600080fd5b5061030f610362366004613221565b610dac565b610339610e3d565b34801561037b57600080fd5b5061030f61038a36600461323e565b611177565b34801561039b57600080fd5b506103af6103aa36600461327f565b6111a2565b604080516001600160a01b039093168352602083019190915201610274565b3480156103da57600080fd5b506102c26111ba565b3480156103ef57600080fd5b506102606daaeb6d7670e522a718067333cd4e81565b34801561041157600080fd5b5061030f61042036600461323e565b611248565b34801561043157600080fd5b506102c261126d565b34801561044657600080fd5b5061030f610455366004613221565b61127a565b34801561046657600080fd5b5061029d61130c565b34801561047b57600080fd5b50600d54610260906001600160a01b031681565b34801561049b57600080fd5b5061030f6104aa3660046132ba565b611320565b3480156104bb57600080fd5b5060065460ff1661029d565b3480156104d357600080fd5b506103396104e23660046131b7565b611387565b3480156104f357600080fd5b506102606105023660046131b7565b6000908152600960205260409020546001600160a01b031690565b34801561052957600080fd5b50610339610538366004613221565b61140d565b34801561054957600080fd5b5061030f611493565b34801561055e57600080fd5b506105676114a7565b6040516102749c9b9a999897969594939291906132d7565b34801561058b57600080fd5b506105ce61059a3660046131b7565b6010602052600090815260409020546001600160a01b03811690600160a01b810462ffffff1690600160b81b900460ff1683565b604080516001600160a01b03909416845262ffffff9092166020840152151590820152606001610274565b34801561060557600080fd5b50600a546001600160a01b0316610260565b34801561062357600080fd5b5061030f610632366004613221565b61164a565b34801561064357600080fd5b506102c26116dc565b34801561065857600080fd5b5061030f610667366004613394565b6116eb565b34801561067857600080fd5b5061030f6106873660046133bb565b6117b9565b34801561069857600080fd5b5061029d6106a7366004613221565b601b6020526000908152604090205460ff1681565b3480156106c857600080fd5b50600b54610260906001600160a01b031681565b3480156106e857600080fd5b5061030f6106f73660046134cb565b6117c8565b34801561070857600080fd5b506102c26107173660046131b7565b6117f5565b34801561072857600080fd5b5061030f610737366004613656565b611901565b34801561074857600080fd5b5061029d610757366004613802565b6001600160a01b03918216600090815260056020908152604080832093909416825291909152205460ff1690565b34801561079157600080fd5b5061030f6107a0366004613221565b611c6c565b3480156107b157600080fd5b5061030f6107c0366004613221565b611ce2565b3480156107d157600080fd5b50600c54610260906001600160a01b031681565b60006001600160e01b031982166380ac58cd60e01b148061081657506001600160e01b03198216635b5e139f60e01b145b8061083157506301ffc9a760e01b6001600160e01b03198316145b92915050565b6060600e805461084690613830565b80601f016020809104026020016040519081016040528092919081815260200182805461087290613830565b80156108bf5780601f10610894576101008083540402835291602001916108bf565b820191906000526020600020905b8154815290600101906020018083116108a257829003601f168201915b5050505050905090565b60006108d482611d74565b506000908152600460205260409020546001600160a01b031690565b60006108fb82611dd3565b9050806001600160a01b0316836001600160a01b0316141561096e5760405162461bcd60e51b815260206004820152602160248201527f4552433732313a20617070726f76616c20746f2063757272656e74206f776e656044820152603960f91b60648201526084015b60405180910390fd5b336001600160a01b038216148061098a575061098a8133610757565b6109fc5760405162461bcd60e51b815260206004820152603d60248201527f4552433732313a20617070726f76652063616c6c6572206973206e6f7420746f60448201527f6b656e206f776e6572206f7220617070726f76656420666f7220616c6c0000006064820152608401610965565b610a068383611e33565b505050565b6000818152600960205260409020546060906001600160a01b031615156040518060400160405280600381526020016232303960e81b81525090610a625760405162461bcd60e51b815260040161096591906131a4565b50600d5460405163188687dd60e21b8152600481018490526001600160a01b0390911690600090309063621a1f7490602401602060405180830381865afa158015610ab1573d6000803e3d6000fd5b505050506040513d601f19601f82011682018060405250810190610ad5919061386b565b601254604051639413930160e01b8152600481019190915260248101869052604481018290529091506001600160a01b038316906394139301906064015b600060405180830381865afa158015610b30573d6000803e3d6000fd5b505050506040513d6000823e601f3d908101601f19168201604052610b589190810190613884565b949350505050565b6000610b6a611ea1565b601a5415610bb157601a5460408051808201909152600381526206460760eb1b6020820152904211610baf5760405162461bcd60e51b815260040161096591906131a4565b505b60138054600160301b900462ffffff16906006610bcd83613911565b82546101009290920a62ffffff818102199093169183160217909155601354630100000081048216600160301b90910490911611159050610c0d57600080fd5b60135462ffffff80821691610c3391600160481b8204811691600160301b900416613934565b62ffffff161415610ca457601154601254604051631122f8a960e11b815260048101919091526001600160a01b03909116908190632245f15290602401600060405180830381600087803b158015610c8a57600080fd5b505af1158015610c9e573d6000803e3d6000fd5b50505050505b601354601254600160301b90910462ffffff1690610cc690620f42409061395b565b610cd0919061397a565b9050610cdc3382611efb565b600c54604051631da00d8560e01b8152600481018390526001600160a01b03909116906000908290631da00d85906024016020604051808303816000875af1158015610d2c573d6000803e3d6000fd5b505050506040513d601f19601f82011682018060405250810190610d50919061386b565b9050610d5c8382611f15565b610d64611fde565b60408051338152602081018590527f0f6798a560793a54c3bcfe86a93cde1e73087d944c0ea20544137d4121396885910160405180910390a15050610da96001600755565b90565b600a546001600160a01b031633148015610dce57506001600160a01b03811615155b6040518060400160405280600381526020016231303160e81b81525090610e085760405162461bcd60e51b815260040161096591906131a4565b50600c546001600160a01b03828116911614610e3a57600c80546001600160a01b0319166001600160a01b0383161790555b50565b6000610e47611ea1565b60138054600160481b900462ffffff16906009610e6383613911565b82546101009290920a62ffffff8181021990931691831602179091556013548082169250610ea29163010000008204811691600160481b900416613934565b62ffffff161115610eb257600080fd5b60135462ffffff80821691610ed891600160481b8204811691600160301b900416613934565b62ffffff161415610f4957601154601254604051631122f8a960e11b815260048101919091526001600160a01b03909116908190632245f15290602401600060405180830381600087803b158015610f2f57600080fd5b505af1158015610f43573d6000803e3d6000fd5b50505050505b601154336000908152601b60205260409020546001600160a01b039091169060ff1680610ff357506012546040516331a9108f60e11b815260048101919091526001600160a01b03821690636352211e90602401602060405180830381865afa158015610fba573d6000803e3d6000fd5b505050506040513d601f19601f82011682018060405250810190610fde9190613992565b6001600160a01b0316336001600160a01b0316145b610ffc57600080fd5b336000908152601b602052604090205460ff16801561101c5750601a5415155b1561106057601a5460408051808201909152600381526206460760eb1b602082015290421161105e5760405162461bcd60e51b815260040161096591906131a4565b505b6013546110829062ffffff63010000008204811691600160481b900416613934565b62ffffff16620f424060116001015461109b919061395b565b6110a5919061397a565b91506110b13383611efb565b600c54604051631da00d8560e01b8152600481018490526001600160a01b03909116906000908290631da00d85906024016020604051808303816000875af1158015611101573d6000803e3d6000fd5b505050506040513d601f19601f82011682018060405250810190611125919061386b565b90506111318482611f15565b60408051338152602081018690527f0f6798a560793a54c3bcfe86a93cde1e73087d944c0ea20544137d4121396885910160405180910390a1505050610da96001600755565b826001600160a01b03811633146111915761119133612457565b61119c848484612510565b50505050565b6000806111af8484612541565b915091509250929050565b600f80546111c790613830565b80601f01602080910402602001604051908101604052809291908181526020018280546111f390613830565b80156112405780601f1061121557610100808354040283529160200191611240565b820191906000526020600020905b81548152906001019060200180831161122357829003601f168201915b505050505081565b826001600160a01b03811633146112625761126233612457565b61119c8484846125dd565b600e80546111c790613830565b600a546001600160a01b03163314801561129c57506001600160a01b03811615155b6040518060400160405280600381526020016231303160e81b815250906112d65760405162461bcd60e51b815260040161096591906131a4565b50600d546001600160a01b03828116911614610e3a57600d80546001600160a01b0383166001600160a01b031990911617905550565b600061131a60065460ff1690565b15905090565b600a546001600160a01b031633148061134357506011546001600160a01b031633145b6040518060400160405280600381526020016231303160e81b8152509061137d5760405162461bcd60e51b815260040161096591906131a4565b50610e3a816125f8565b600081815260096020526040812054600160a01b900460a01b6001600160a01b0319166113b657506000919050565b6000828152600960209081526040918290205491516113f092600160a01b900460a01b91016001600160a01b031991909116815260200190565b604051602081830303815290604052805190602001209050919050565b60006001600160a01b0382166114775760405162461bcd60e51b815260206004820152602960248201527f4552433732313a2061646472657373207a65726f206973206e6f7420612076616044820152683634b21037bbb732b960b91b6064820152608401610965565b506001600160a01b031660009081526003602052604090205490565b61149b61260e565b6114a5600061268c565b565b60118054601254601354601480546001600160a01b0390941694929362ffffff8084169463010000008504821694600160301b8104831694600160481b909104909216929091906114f790613830565b80601f016020809104026020016040519081016040528092919081815260200182805461152390613830565b80156115705780601f1061154557610100808354040283529160200191611570565b820191906000526020600020905b81548152906001019060200180831161155357829003601f168201915b5050505060048301546005840154600685015460078601805495966001600160a01b03948516969395509390911692916115a990613830565b80601f01602080910402602001604051908101604052809291908181526020018280546115d590613830565b80156116225780601f106115f757610100808354040283529160200191611622565b820191906000526020600020905b81548152906001019060200180831161160557829003601f168201915b50506040805180820190915260088601548152600990950154602086015250919291508d9050565b600a546001600160a01b03163314801561166c57506001600160a01b03811615155b6040518060400160405280600381526020016231303160e81b815250906116a65760405162461bcd60e51b815260040161096591906131a4565b50600a546001600160a01b03828116911614610e3a57600a80546001600160a01b0383166001600160a01b031990911617905550565b6060600f805461084690613830565b600a546001600160a01b0316331461170257600080fd5b60408051808201909152600381526232303560e81b602082015261271082111561173f5760405162461bcd60e51b815260040161096591906131a4565b50604080516060810182526001600160a01b03938416815262ffffff928316602080830191825260018385019081526000978852601090915292909520905181549551925194166001600160b81b031990951694909417600160a01b91909216021760ff60b81b1916600160b81b91151591909102179055565b6117c43383836126de565b5050565b836001600160a01b03811633146117e2576117e233612457565b6117ee858585856127ad565b5050505050565b6000818152600960205260409020546060906001600160a01b031615156040518060400160405280600381526020016232303960e81b8152509061184c5760405162461bcd60e51b815260040161096591906131a4565b50600d5460405163188687dd60e21b8152600481018490526001600160a01b0390911690600090309063621a1f7490602401602060405180830381865afa15801561189b573d6000803e3d6000fd5b505050506040513d601f19601f820116820180604052508101906118bf919061386b565b6012546040516308dd54e960e31b8152600481019190915260248101869052604481018290529091506001600160a01b038316906346eaa74890606401610b13565b600a5460408051808201909152600381526219181960e91b6020820152906001600160a01b0316156119465760405162461bcd60e51b815260040161096591906131a4565b5060408051808201909152600381526203130360ec1b60208201526001600160a01b0387166119885760405162461bcd60e51b815260040161096591906131a4565b508651601180546001600160a01b039092166001600160a01b031990921691909117815560208089015160125560408901516013805460608c015160808d015160a08e015162ffffff908116600160481b026bffffff00000000000000000019928216600160301b02929092166bffffffffffff0000000000001993821663010000000265ffffffffffff19909516919096161792909217169290921791909117905560c089015180518a9392611a4492601492910190613079565b5060e08201516004820180546001600160a01b039283166001600160a01b03199182161790915561010084015160058401556101208401516006840180549190931691161790556101408201518051611aa7916007840191602090910190613079565b50610160919091015180516008830155602090810151600990920191909155600b80546001600160a01b038089166001600160a01b031992831617909255600a80548a8416908316179055600c8054888416908316179055600d8054928716929091169190911790556101408801518051611b2692600e920190613079565b50611bbe60016003600e8054611b3b90613830565b80601f0160208091040260200160405190810160405280929190818152602001828054611b6790613830565b8015611bb45780601f10611b8957610100808354040283529160200191611bb4565b820191906000526020600020905b815481529060010190602001808311611b9757829003601f168201915b50505050506127df565b8051611bd291600f91602090910190613079565b5060005b8251811015611c3b576001601b6000858481518110611bf757611bf76139af565b6020908102919091018101516001600160a01b03168252810191909152604001600020805460ff191691151591909117905580611c33816139c5565b915050611bd6565b50600a54611c51906001600160a01b0316611c6c565b8015611c5f57611c5f6128c6565b5050426019555050505050565b611c7461260e565b6001600160a01b038116611cd95760405162461bcd60e51b815260206004820152602660248201527f4f776e61626c653a206e6577206f776e657220697320746865207a65726f206160448201526564647265737360d01b6064820152608401610965565b610e3a8161268c565b600a546001600160a01b031633148015611d0457506001600160a01b03811615155b6040518060400160405280600381526020016231303160e81b81525090611d3e5760405162461bcd60e51b815260040161096591906131a4565b50600b546001600160a01b03828116911614610e3a57600b80546001600160a01b0383166001600160a01b031990911617905550565b6000818152600960205260409020546001600160a01b0316610e3a5760405162461bcd60e51b8152602060048201526018602482015277115490cdcc8c4e881a5b9d985b1a59081d1bdad95b88125160421b6044820152606401610965565b6000818152600260205260408120546001600160a01b0316806108315760405162461bcd60e51b8152602060048201526018602482015277115490cdcc8c4e881a5b9d985b1a59081d1bdad95b88125160421b6044820152606401610965565b600081815260046020526040902080546001600160a01b0319166001600160a01b0384169081179091558190611e6882611dd3565b6001600160a01b03167f8c5be1e5ebec7d5bd14f71427d1e84f3dd0314c0f7b2291e5b200ac8c7c3b92560405160405180910390a45050565b60026007541415611ef45760405162461bcd60e51b815260206004820152601f60248201527f5265656e7472616e637947756172643a207265656e7472616e742063616c6c006044820152606401610965565b6002600755565b6117c4828260405180602001604052806000815250612920565b600082815260096020908152604091829020548251808401909352600383526219181b60e91b91830191909152600160a01b900460a01b6001600160a01b03191615611f745760405162461bcd60e51b815260040161096591906131a4565b5060408051808201909152600381526232303760e81b602082015281611fad5760405162461bcd60e51b815260040161096591906131a4565b50600091825260096020526040909120805460a09290921c600160a01b026001600160a01b03909216919091179055565b60165480611fe95750565b601154600b546000916001600160a01b0390811691166101f481156120a15760408051808201825260158152744d494e545f4e46545f4f50455241544f525f46454560581b60208201529051636d12dce160e01b81526001600160a01b03841691636d12dce19161205d91906004016131a4565b602060405180830381865afa15801561207a573d6000803e3d6000fd5b505050506040513d601f19601f8201168201806040525081019061209e919061386b565b90505b6001600160a01b03841661221857843410156120bc57600080fd5b6012546040516331a9108f60e11b81526000916001600160a01b03861691636352211e916120f09160040190815260200190565b602060405180830381865afa15801561210d573d6000803e3d6000fd5b505050506040513d601f19601f820116820180604052508101906121319190613992565b6001600160a01b0316612710612147848961395b565b61215191906139e0565b61215b9088613a02565b604051600081818185875af1925050503d8060008114612197576040519150601f19603f3d011682016040523d82523d6000602084013e61219c565b606091505b50509050806121aa57600080fd5b600a546001600160a01b03166127106121c3848961395b565b6121cd91906139e0565b604051600081818185875af1925050503d8060008114612209576040519150601f19603f3d011682016040523d82523d6000602084013e61220e565b606091505b506117ee92505050565b6040516323b872dd60e01b81523360048201523060248201526044810186905284906001600160a01b038216906323b872dd906064016020604051808303816000875af115801561226d573d6000803e3d6000fd5b505050506040513d601f19601f820116820180604052508101906122919190613a19565b61229a57600080fd5b6012546040516331a9108f60e11b815260048101919091526001600160a01b038281169163a9059cbb91871690636352211e90602401602060405180830381865afa1580156122ed573d6000803e3d6000fd5b505050506040513d601f19601f820116820180604052508101906123119190613992565b61271061231e868b61395b565b61232891906139e0565b612332908a613a02565b6040516001600160e01b031960e085901b1681526001600160a01b03909216600483015260248201526044016020604051808303816000875af115801561237d573d6000803e3d6000fd5b505050506040513d601f19601f820116820180604052508101906123a19190613a19565b6123aa57600080fd5b600a546001600160a01b038083169163a9059cbb91166127106123cd868b61395b565b6123d791906139e0565b6040516001600160e01b031960e085901b1681526001600160a01b03909216600483015260248201526044016020604051808303816000875af1158015612422573d6000803e3d6000fd5b505050506040513d601f19601f820116820180604052508101906124469190613a19565b61244f57600080fd5b505050505050565b6daaeb6d7670e522a718067333cd4e3b15610e3a57604051633185c44d60e21b81523060048201526001600160a01b03821660248201526daaeb6d7670e522a718067333cd4e9063c617113490604401602060405180830381865afa1580156124c4573d6000803e3d6000fd5b505050506040513d601f19601f820116820180604052508101906124e89190613a19565b610e3a57604051633b79c77360e21b81526001600160a01b0382166004820152602401610965565b61251a3382612953565b6125365760405162461bcd60e51b815260040161096590613a36565b610a068383836129d1565b6000828152601060209081526040808320815160608101835290546001600160a01b0381168252600160a01b810462ffffff1693820193909352600160b81b90920460ff16158015918301919091528291906125c55780516020820151909350612710906125b49062ffffff168661395b565b6125be91906139e0565b91506125d5565b6125cf8585612a0b565b90935091505b509250929050565b610a06838383604051806020016040528060008152506117c8565b801561260657610e3a612a43565b610e3a6128c6565b33612621600a546001600160a01b031690565b6001600160a01b0316148061264057506011546001600160a01b031633145b6114a55760405162461bcd60e51b815260206004820181905260248201527f4f776e61626c653a2063616c6c6572206973206e6f7420746865206f776e65726044820152606401610965565b600880546001600160a01b038381166001600160a01b0319831681179093556040519116919082907f8be0079c531659141344cd1fd0a4f28419497f9722a3daafe3b4186f6b6457e090600090a35050565b816001600160a01b0316836001600160a01b031614156127405760405162461bcd60e51b815260206004820152601960248201527f4552433732313a20617070726f766520746f2063616c6c6572000000000000006044820152606401610965565b6001600160a01b03838116600081815260056020908152604080832094871680845294825291829020805460ff191686151590811790915591519182527f17307eab39ab6107e8899845ad3d59bd9653f200f220920489ca2b5937696c31910160405180910390a3505050565b6127b73383612953565b6127d35760405162461bcd60e51b815260040161096590613a36565b61119c84848484612a7c565b606060006127ed8585613a02565b6127f890600161397a565b67ffffffffffffffff811115612810576128106133f4565b6040519080825280601f01601f19166020018201604052801561283a576020820181803683370190505b50905060005b61284a8686613a02565b81116128bd5783600161285d888461397a565b6128679190613a02565b81518110612877576128776139af565b602001015160f81c60f81b828281518110612894576128946139af565b60200101906001600160f81b031916908160001a905350806128b5816139c5565b915050612840565b50949350505050565b6128ce612aaf565b6006805460ff191660011790557f62e78cea01bee320cd4e420270b5ea74000d11b0c9f74754ebdbfc544b05a2586129033390565b6040516001600160a01b03909116815260200160405180910390a1565b61292a8383612af5565b6129376000848484612b2d565b610a065760405162461bcd60e51b815260040161096590613a83565b60008061295f83611dd3565b9050806001600160a01b0316846001600160a01b031614806129a657506001600160a01b0380821660009081526005602090815260408083209388168352929052205460ff165b80610b585750836001600160a01b03166129bf846108c9565b6001600160a01b031614949350505050565b6129dc838383612c2b565b600090815260096020526040902080546001600160a01b0319166001600160a01b039290921691909117905550565b600a5460009081906001600160a01b031681612710612a2c866101f461395b565b612a3691906139e0565b9196919550909350505050565b612a4b612d9c565b6006805460ff191690557f5db9ee0a495bf2e6ff9c91a7834c1ba4fdd244a5e8aa4e537bd38aeae4b073aa33612903565b612a878484846129d1565b612a9384848484612b2d565b61119c5760405162461bcd60e51b815260040161096590613a83565b60065460ff16156114a55760405162461bcd60e51b815260206004820152601060248201526f14185d5cd8589b194e881c185d5cd95960821b6044820152606401610965565b612aff8282612de5565b600090815260096020526040902080546001600160a01b0319166001600160a01b0392909216919091179055565b60006001600160a01b0384163b15612c2057604051630a85bd0160e11b81526001600160a01b0385169063150b7a0290612b71903390899088908890600401613ad5565b6020604051808303816000875af1925050508015612bac575060408051601f3d908101601f19168201909252612ba991810190613b12565b60015b612c06573d808015612bda576040519150601f19603f3d011682016040523d82523d6000602084013e612bdf565b606091505b508051612bfe5760405162461bcd60e51b815260040161096590613a83565b805181602001fd5b6001600160e01b031916630a85bd0160e11b149050610b58565b506001949350505050565b826001600160a01b0316612c3e82611dd3565b6001600160a01b031614612c645760405162461bcd60e51b815260040161096590613b2f565b6001600160a01b038216612cc65760405162461bcd60e51b8152602060048201526024808201527f4552433732313a207472616e7366657220746f20746865207a65726f206164646044820152637265737360e01b6064820152608401610965565b612cd38383836001612f7e565b826001600160a01b0316612ce682611dd3565b6001600160a01b031614612d0c5760405162461bcd60e51b815260040161096590613b2f565b600081815260046020908152604080832080546001600160a01b03199081169091556001600160a01b0387811680865260038552838620805460001901905590871680865283862080546001019055868652600290945282852080549092168417909155905184937fddf252ad1be2c89b69c2b068fc378daa952ba7f163c4a11628f55a4df523b3ef91a4505050565b60065460ff166114a55760405162461bcd60e51b815260206004820152601460248201527314185d5cd8589b194e881b9bdd081c185d5cd95960621b6044820152606401610965565b6001600160a01b038216612e3b5760405162461bcd60e51b815260206004820181905260248201527f4552433732313a206d696e7420746f20746865207a65726f20616464726573736044820152606401610965565b6000818152600960205260409020546001600160a01b031615612ea05760405162461bcd60e51b815260206004820152601c60248201527f4552433732313a20746f6b656e20616c7265616479206d696e746564000000006044820152606401610965565b612eae600083836001612f7e565b6000818152600960205260409020546001600160a01b031615612f135760405162461bcd60e51b815260206004820152601c60248201527f4552433732313a20746f6b656e20616c7265616479206d696e746564000000006044820152606401610965565b6001600160a01b038216600081815260036020908152604080832080546001019055848352600290915280822080546001600160a01b0319168417905551839291907fddf252ad1be2c89b69c2b068fc378daa952ba7f163c4a11628f55a4df523b3ef908290a45050565b612f8a84848484612ff1565b60065460ff161561119c5760405162461bcd60e51b815260206004820152602b60248201527f4552433732315061757361626c653a20746f6b656e207472616e73666572207760448201526a1a1a5b19481c185d5cd95960aa1b6064820152608401610965565b600181111561119c576001600160a01b03841615613037576001600160a01b03841660009081526003602052604081208054839290613031908490613a02565b90915550505b6001600160a01b0383161561119c576001600160a01b0383166000908152600360205260408120805483929061306e90849061397a565b909155505050505050565b82805461308590613830565b90600052602060002090601f0160209004810192826130a757600085556130ed565b82601f106130c057805160ff19168380011785556130ed565b828001600101855582156130ed579182015b828111156130ed5782518255916020019190600101906130d2565b506130f99291506130fd565b5090565b5b808211156130f957600081556001016130fe565b6001600160e01b031981168114610e3a57600080fd5b60006020828403121561313a57600080fd5b813561314581613112565b9392505050565b60005b8381101561316757818101518382015260200161314f565b8381111561119c5750506000910152565b6000815180845261319081602086016020860161314c565b601f01601f19169290920160200192915050565b6020815260006131456020830184613178565b6000602082840312156131c957600080fd5b5035919050565b6001600160a01b0381168114610e3a57600080fd5b80356131f0816131d0565b919050565b6000806040838503121561320857600080fd5b8235613213816131d0565b946020939093013593505050565b60006020828403121561323357600080fd5b8135613145816131d0565b60008060006060848603121561325357600080fd5b833561325e816131d0565b9250602084013561326e816131d0565b929592945050506040919091013590565b6000806040838503121561329257600080fd5b50508035926020909101359150565b8015158114610e3a57600080fd5b80356131f0816132a1565b6000602082840312156132cc57600080fd5b8135613145816132a1565b6001600160a01b038d168152602081018c905262ffffff8b811660408301528a811660608301528981166080830152881660a08201526101a060c082018190526000906133268382018a613178565b6001600160a01b03891660e08501529050866101008401526133546101208401876001600160a01b03169052565b8281036101408401526133678186613178565b8451610160850152602085015161018085015291506133839050565b9d9c50505050505050505050505050565b6000806000606084860312156133a957600080fd5b83359250602084013561326e816131d0565b600080604083850312156133ce57600080fd5b82356133d9816131d0565b915060208301356133e9816132a1565b809150509250929050565b634e487b7160e01b600052604160045260246000fd5b604051610180810167ffffffffffffffff8111828210171561342e5761342e6133f4565b60405290565b604051601f8201601f1916810167ffffffffffffffff8111828210171561345d5761345d6133f4565b604052919050565b600067ffffffffffffffff82111561347f5761347f6133f4565b50601f01601f191660200190565b60006134a061349b84613465565b613434565b90508281528383830111156134b457600080fd5b828260208301376000602084830101529392505050565b600080600080608085870312156134e157600080fd5b84356134ec816131d0565b935060208501356134fc816131d0565b925060408501359150606085013567ffffffffffffffff81111561351f57600080fd5b8501601f8101871361353057600080fd5b61353f8782356020840161348d565b91505092959194509250565b803562ffffff811681146131f057600080fd5b600082601f83011261356f57600080fd5b6131458383356020850161348d565b60006040828403121561359057600080fd5b6040516040810181811067ffffffffffffffff821117156135b3576135b36133f4565b604052823581526020928301359281019290925250919050565b600082601f8301126135de57600080fd5b8135602067ffffffffffffffff8211156135fa576135fa6133f4565b8160051b613609828201613434565b928352848101820192828101908785111561362357600080fd5b83870192505b8483101561364b57823561363c816131d0565b82529183019190830190613629565b979650505050505050565b600080600080600080600060e0888a03121561367157600080fd5b873567ffffffffffffffff8082111561368957600080fd5b908901906101a0828c03121561369e57600080fd5b6136a661340a565b6136af836131e5565b8152602083013560208201526136c76040840161354b565b60408201526136d86060840161354b565b60608201526136e96080840161354b565b60808201526136fa60a0840161354b565b60a082015260c08301358281111561371157600080fd5b61371d8d82860161355e565b60c08301525061372f60e084016131e5565b60e0820152610100838101359082015261012061374d8185016131e5565b90820152610140838101358381111561376557600080fd5b6137718e82870161355e565b8284015250506101606137868d82860161357e565b90820152985061379860208b016131e5565b97506137a660408b016131e5565b96506137b460608b016131e5565b95506137c260808b016131e5565b945060a08a01359150808211156137d857600080fd5b506137e58a828b016135cd565b9250506137f460c089016132af565b905092959891949750929550565b6000806040838503121561381557600080fd5b8235613820816131d0565b915060208301356133e9816131d0565b600181811c9082168061384457607f821691505b6020821081141561386557634e487b7160e01b600052602260045260246000fd5b50919050565b60006020828403121561387d57600080fd5b5051919050565b60006020828403121561389657600080fd5b815167ffffffffffffffff8111156138ad57600080fd5b8201601f810184136138be57600080fd5b80516138cc61349b82613465565b8181528560208385010111156138e157600080fd5b6138f282602083016020860161314c565b95945050505050565b634e487b7160e01b600052601160045260246000fd5b600062ffffff8083168181141561392a5761392a6138fb565b6001019392505050565b600062ffffff808316818516808303821115613952576139526138fb565b01949350505050565b6000816000190483118215151615613975576139756138fb565b500290565b6000821982111561398d5761398d6138fb565b500190565b6000602082840312156139a457600080fd5b8151613145816131d0565b634e487b7160e01b600052603260045260246000fd5b60006000198214156139d9576139d96138fb565b5060010190565b6000826139fd57634e487b7160e01b600052601260045260246000fd5b500490565b600082821015613a1457613a146138fb565b500390565b600060208284031215613a2b57600080fd5b8151613145816132a1565b6020808252602d908201527f4552433732313a2063616c6c6572206973206e6f7420746f6b656e206f776e6560408201526c1c881bdc88185c1c1c9bdd9959609a1b606082015260800190565b60208082526032908201527f4552433732313a207472616e7366657220746f206e6f6e20455243373231526560408201527131b2b4bb32b91034b6b83632b6b2b73a32b960711b606082015260800190565b6001600160a01b0385811682528416602082015260408101839052608060608201819052600090613b0890830184613178565b9695505050505050565b600060208284031215613b2457600080fd5b815161314581613112565b60208082526025908201527f4552433732313a207472616e736665722066726f6d20696e636f72726563742060408201526437bbb732b960d91b60608201526080019056fea2646970667358221220162c956b6ab6e547f8d5e4048c69866857f9065d1cb4531bd16728df7188b34e64736f6c634300080c0033",
  "linkReferences": {},
  "deployedLinkReferences": {}
}