{
  "_format": "hh-sol-artifact-1",
  "contractName": "GenerativeNFT",
  "sourceName": "contracts/nfts/GenerativeNFT.sol",
  "abi": [
    {
      "inputs": [
        {
          "internalType": "string",
          "name": "name",
          "type": "string"
        },
        {
          "internalType": "string",
          "name": "symbol",
          "type": "string"
        }
      ],
      "stateMutability": "nonpayable",
      "type": "constructor"
    },
    {
      "inputs": [
        {
          "internalType": "address",
          "name": "operator",
          "type": "address"
        }
      ],
      "name": "OperatorNotAllowed",
      "type": "error"
    },
    {
      "anonymous": false,
      "inputs": [
        {
          "indexed": true,
          "internalType": "address",
          "name": "owner",
          "type": "address"
        },
        {
          "indexed": true,
          "internalType": "address",
          "name": "approved",
          "type": "address"
        },
        {
          "indexed": true,
          "internalType": "uint256",
          "name": "tokenId",
          "type": "uint256"
        }
      ],
      "name": "Approval",
      "type": "event"
    },
    {
      "anonymous": false,
      "inputs": [
        {
          "indexed": true,
          "internalType": "address",
          "name": "owner",
          "type": "address"
        },
        {
          "indexed": true,
          "internalType": "address",
          "name": "operator",
          "type": "address"
        },
        {
          "indexed": false,
          "internalType": "bool",
          "name": "approved",
          "type": "bool"
        }
      ],
      "name": "ApprovalForAll",
      "type": "event"
    },
    {
      "anonymous": false,
      "inputs": [
        {
          "indexed": true,
          "internalType": "address",
          "name": "previousOwner",
          "type": "address"
        },
        {
          "indexed": true,
          "internalType": "address",
          "name": "newOwner",
          "type": "address"
        }
      ],
      "name": "OwnershipTransferred",
      "type": "event"
    },
    {
      "anonymous": false,
      "inputs": [
        {
          "indexed": false,
          "internalType": "address",
          "name": "account",
          "type": "address"
        }
      ],
      "name": "Paused",
      "type": "event"
    },
    {
      "anonymous": false,
      "inputs": [
        {
          "indexed": true,
          "internalType": "address",
          "name": "from",
          "type": "address"
        },
        {
          "indexed": true,
          "internalType": "address",
          "name": "to",
          "type": "address"
        },
        {
          "indexed": true,
          "internalType": "uint256",
          "name": "tokenId",
          "type": "uint256"
        }
      ],
      "name": "Transfer",
      "type": "event"
    },
    {
      "anonymous": false,
      "inputs": [
        {
          "indexed": false,
          "internalType": "address",
          "name": "account",
          "type": "address"
        }
      ],
      "name": "Unpaused",
      "type": "event"
    },
    {
      "inputs": [],
      "name": "OPERATOR_FILTER_REGISTRY",
      "outputs": [
        {
          "internalType": "contract IOperatorFilterRegistry",
          "name": "",
          "type": "address"
        }
      ],
      "stateMutability": "view",
      "type": "function"
    },
    {
      "inputs": [],
      "name": "_admin",
      "outputs": [
        {
          "internalType": "address",
          "name": "",
          "type": "address"
        }
      ],
      "stateMutability": "view",
      "type": "function"
    },
    {
      "inputs": [],
      "name": "_nameCol",
      "outputs": [
        {
          "internalType": "string",
          "name": "",
          "type": "string"
        }
      ],
      "stateMutability": "view",
      "type": "function"
    },
    {
      "inputs": [],
      "name": "_paramsAddress",
      "outputs": [
        {
          "internalType": "address",
          "name": "",
          "type": "address"
        }
      ],
      "stateMutability": "view",
      "type": "function"
    },
    {
      "inputs": [],
      "name": "_project",
      "outputs": [
        {
          "internalType": "address",
          "name": "_projectAddr",
          "type": "address"
        },
        {
          "internalType": "uint256",
          "name": "_projectId",
          "type": "uint256"
        },
        {
          "internalType": "uint24",
          "name": "_maxSupply",
          "type": "uint24"
        },
        {
          "internalType": "uint24",
          "name": "_limit",
          "type": "uint24"
        },
        {
          "internalType": "uint24",
          "name": "_index",
          "type": "uint24"
        },
        {
          "internalType": "uint24",
          "name": "_indexReserve",
          "type": "uint24"
        },
        {
          "internalType": "string",
          "name": "_creator",
          "type": "string"
        },
        {
          "internalType": "address",
          "name": "_creatorAddr",
          "type": "address"
        },
        {
          "internalType": "uint256",
          "name": "_mintPrice",
          "type": "uint256"
        },
        {
          "internalType": "address",
          "name": "_mintPriceAddr",
          "type": "address"
        },
        {
          "internalType": "string",
          "name": "_name",
          "type": "string"
        }
      ],
      "stateMutability": "view",
      "type": "function"
    },
    {
      "inputs": [],
      "name": "_projectDataContextAddr",
      "outputs": [
        {
          "internalType": "address",
          "name": "",
          "type": "address"
        }
      ],
      "stateMutability": "view",
      "type": "function"
    },
    {
      "inputs": [],
      "name": "_randomizer",
      "outputs": [
        {
          "internalType": "address",
          "name": "",
          "type": "address"
        }
      ],
      "stateMutability": "view",
      "type": "function"
    },
    {
      "inputs": [],
      "name": "_symbolCol",
      "outputs": [
        {
          "internalType": "string",
          "name": "",
          "type": "string"
        }
      ],
      "stateMutability": "view",
      "type": "function"
    },
    {
      "inputs": [
        {
          "internalType": "address",
          "name": "to",
          "type": "address"
        },
        {
          "internalType": "uint256",
          "name": "tokenId",
          "type": "uint256"
        }
      ],
      "name": "approve",
      "outputs": [],
      "stateMutability": "nonpayable",
      "type": "function"
    },
    {
      "inputs": [
        {
          "internalType": "address",
          "name": "owner",
          "type": "address"
        }
      ],
      "name": "balanceOf",
      "outputs": [
        {
          "internalType": "uint256",
          "name": "",
          "type": "uint256"
        }
      ],
      "stateMutability": "view",
      "type": "function"
    },
    {
      "inputs": [
        {
          "internalType": "address",
          "name": "newAdm",
          "type": "address"
        }
      ],
      "name": "changeAdmin",
      "outputs": [],
      "stateMutability": "nonpayable",
      "type": "function"
    },
    {
      "inputs": [
        {
          "internalType": "address",
          "name": "newAddr",
          "type": "address"
        }
      ],
      "name": "changeDataContextAddr",
      "outputs": [],
      "stateMutability": "nonpayable",
      "type": "function"
    },
    {
      "inputs": [
        {
          "internalType": "address",
          "name": "newAddr",
          "type": "address"
        }
      ],
      "name": "changeParamAddr",
      "outputs": [],
      "stateMutability": "nonpayable",
      "type": "function"
    },
    {
      "inputs": [
        {
          "internalType": "address",
          "name": "newAddr",
          "type": "address"
        }
      ],
      "name": "changeRandomizerAddr",
      "outputs": [],
      "stateMutability": "nonpayable",
      "type": "function"
    },
    {
      "inputs": [
        {
          "internalType": "uint256",
          "name": "tokenId",
          "type": "uint256"
        }
      ],
      "name": "getApproved",
      "outputs": [
        {
          "internalType": "address",
          "name": "",
          "type": "address"
        }
      ],
      "stateMutability": "view",
      "type": "function"
    },
    {
      "inputs": [],
      "name": "getStatus",
      "outputs": [
        {
          "internalType": "bool",
          "name": "",
          "type": "bool"
        }
      ],
      "stateMutability": "view",
      "type": "function"
    },
    {
      "inputs": [
        {
          "components": [
            {
              "internalType": "address",
              "name": "_projectAddr",
              "type": "address"
            },
            {
              "internalType": "uint256",
              "name": "_projectId",
              "type": "uint256"
            },
            {
              "internalType": "uint24",
              "name": "_maxSupply",
              "type": "uint24"
            },
            {
              "internalType": "uint24",
              "name": "_limit",
              "type": "uint24"
            },
            {
              "internalType": "uint24",
              "name": "_index",
              "type": "uint24"
            },
            {
              "internalType": "uint24",
              "name": "_indexReserve",
              "type": "uint24"
            },
            {
              "internalType": "string",
              "name": "_creator",
              "type": "string"
            },
            {
              "internalType": "address",
              "name": "_creatorAddr",
              "type": "address"
            },
            {
              "internalType": "uint256",
              "name": "_mintPrice",
              "type": "uint256"
            },
            {
              "internalType": "address",
              "name": "_mintPriceAddr",
              "type": "address"
            },
            {
              "internalType": "string",
              "name": "_name",
              "type": "string"
            }
          ],
          "internalType": "struct NFTProject.ProjectMinting",
          "name": "project",
          "type": "tuple"
        },
        {
          "internalType": "address",
          "name": "admin",
          "type": "address"
        },
        {
          "internalType": "address",
          "name": "paramsAddr",
          "type": "address"
        },
        {
          "internalType": "address",
          "name": "randomizer",
          "type": "address"
        },
        {
          "internalType": "address",
          "name": "projectDataContextAddr",
          "type": "address"
        },
        {
          "internalType": "address[]",
          "name": "reserves",
          "type": "address[]"
        },
        {
          "internalType": "bool",
          "name": "disable",
          "type": "bool"
        }
      ],
      "name": "init",
      "outputs": [],
      "stateMutability": "nonpayable",
      "type": "function"
    },
    {
      "inputs": [
        {
          "internalType": "address",
          "name": "owner",
          "type": "address"
        },
        {
          "internalType": "address",
          "name": "operator",
          "type": "address"
        }
      ],
      "name": "isApprovedForAll",
      "outputs": [
        {
          "internalType": "bool",
          "name": "",
          "type": "bool"
        }
      ],
      "stateMutability": "view",
      "type": "function"
    },
    {
      "inputs": [],
      "name": "mint",
      "outputs": [
        {
          "internalType": "uint256",
          "name": "tokenId",
          "type": "uint256"
        }
      ],
      "stateMutability": "payable",
      "type": "function"
    },
    {
      "inputs": [],
      "name": "name",
      "outputs": [
        {
          "internalType": "string",
          "name": "",
          "type": "string"
        }
      ],
      "stateMutability": "view",
      "type": "function"
    },
    {
      "inputs": [],
      "name": "owner",
      "outputs": [
        {
          "internalType": "address",
          "name": "",
          "type": "address"
        }
      ],
      "stateMutability": "view",
      "type": "function"
    },
    {
      "inputs": [
        {
          "internalType": "uint256",
          "name": "tokenId",
          "type": "uint256"
        }
      ],
      "name": "ownerOf",
      "outputs": [
        {
          "internalType": "address",
          "name": "",
          "type": "address"
        }
      ],
      "stateMutability": "view",
      "type": "function"
    },
    {
      "inputs": [],
      "name": "paused",
      "outputs": [
        {
          "internalType": "bool",
          "name": "",
          "type": "bool"
        }
      ],
      "stateMutability": "view",
      "type": "function"
    },
    {
      "inputs": [],
      "name": "renounceOwnership",
      "outputs": [],
      "stateMutability": "nonpayable",
      "type": "function"
    },
    {
      "inputs": [],
      "name": "reserveMint",
      "outputs": [
        {
          "internalType": "uint256",
          "name": "tokenId",
          "type": "uint256"
        }
      ],
      "stateMutability": "payable",
      "type": "function"
    },
    {
      "inputs": [
        {
          "internalType": "uint256",
          "name": "",
          "type": "uint256"
        }
      ],
      "name": "royalties",
      "outputs": [
        {
          "internalType": "address",
          "name": "recipient",
          "type": "address"
        },
        {
          "internalType": "uint24",
          "name": "amount",
          "type": "uint24"
        },
        {
          "internalType": "bool",
          "name": "isValue",
          "type": "bool"
        }
      ],
      "stateMutability": "view",
      "type": "function"
    },
    {
      "inputs": [
        {
          "internalType": "uint256",
          "name": "_tokenId",
          "type": "uint256"
        },
        {
          "internalType": "uint256",
          "name": "_salePrice",
          "type": "uint256"
        }
      ],
      "name": "royaltyInfo",
      "outputs": [
        {
          "internalType": "address",
          "name": "receiver",
          "type": "address"
        },
        {
          "internalType": "uint256",
          "name": "royaltyAmount",
          "type": "uint256"
        }
      ],
      "stateMutability": "view",
      "type": "function"
    },
    {
      "inputs": [
        {
          "internalType": "address",
          "name": "from",
          "type": "address"
        },
        {
          "internalType": "address",
          "name": "to",
          "type": "address"
        },
        {
          "internalType": "uint256",
          "name": "tokenId",
          "type": "uint256"
        }
      ],
      "name": "safeTransferFrom",
      "outputs": [],
      "stateMutability": "nonpayable",
      "type": "function"
    },
    {
      "inputs": [
        {
          "internalType": "address",
          "name": "from",
          "type": "address"
        },
        {
          "internalType": "address",
          "name": "to",
          "type": "address"
        },
        {
          "internalType": "uint256",
          "name": "tokenId",
          "type": "uint256"
        },
        {
          "internalType": "bytes",
          "name": "data",
          "type": "bytes"
        }
      ],
      "name": "safeTransferFrom",
      "outputs": [],
      "stateMutability": "nonpayable",
      "type": "function"
    },
    {
      "inputs": [
        {
          "internalType": "address",
          "name": "operator",
          "type": "address"
        },
        {
          "internalType": "bool",
          "name": "approved",
          "type": "bool"
        }
      ],
      "name": "setApprovalForAll",
      "outputs": [],
      "stateMutability": "nonpayable",
      "type": "function"
    },
    {
      "inputs": [
        {
          "internalType": "bool",
          "name": "enable",
          "type": "bool"
        }
      ],
      "name": "setStatus",
      "outputs": [],
      "stateMutability": "nonpayable",
      "type": "function"
    },
    {
      "inputs": [
        {
          "internalType": "uint256",
          "name": "_tokenId",
          "type": "uint256"
        },
        {
          "internalType": "address",
          "name": "_recipient",
          "type": "address"
        },
        {
          "internalType": "uint256",
          "name": "_value",
          "type": "uint256"
        }
      ],
      "name": "setTokenRoyalty",
      "outputs": [],
      "stateMutability": "nonpayable",
      "type": "function"
    },
    {
      "inputs": [
        {
          "internalType": "bytes4",
          "name": "interfaceId",
          "type": "bytes4"
        }
      ],
      "name": "supportsInterface",
      "outputs": [
        {
          "internalType": "bool",
          "name": "",
          "type": "bool"
        }
      ],
      "stateMutability": "view",
      "type": "function"
    },
    {
      "inputs": [],
      "name": "symbol",
      "outputs": [
        {
          "internalType": "string",
          "name": "",
          "type": "string"
        }
      ],
      "stateMutability": "view",
      "type": "function"
    },
    {
      "inputs": [
        {
          "internalType": "uint256",
          "name": "tokenId",
          "type": "uint256"
        }
      ],
      "name": "tokenGenerativeURI",
      "outputs": [
        {
          "internalType": "string",
          "name": "",
          "type": "string"
        }
      ],
      "stateMutability": "view",
      "type": "function"
    },
    {
      "inputs": [
        {
          "internalType": "uint256",
          "name": "_tokenId",
          "type": "uint256"
        }
      ],
      "name": "tokenIdToHash",
      "outputs": [
        {
          "internalType": "bytes32",
          "name": "",
          "type": "bytes32"
        }
      ],
      "stateMutability": "view",
      "type": "function"
    },
    {
      "inputs": [
        {
          "internalType": "uint256",
          "name": "tokenId",
          "type": "uint256"
        }
      ],
      "name": "tokenURI",
      "outputs": [
        {
          "internalType": "string",
          "name": "",
          "type": "string"
        }
      ],
      "stateMutability": "view",
      "type": "function"
    },
    {
      "inputs": [
        {
          "internalType": "address",
          "name": "from",
          "type": "address"
        },
        {
          "internalType": "address",
          "name": "to",
          "type": "address"
        },
        {
          "internalType": "uint256",
          "name": "tokenId",
          "type": "uint256"
        }
      ],
      "name": "transferFrom",
      "outputs": [],
      "stateMutability": "nonpayable",
      "type": "function"
    },
    {
      "inputs": [
        {
          "internalType": "address",
          "name": "newOwner",
          "type": "address"
        }
      ],
      "name": "transferOwnership",
      "outputs": [],
      "stateMutability": "nonpayable",
      "type": "function"
    }
  ],
  "bytecode": "0x60806040523480156200001157600080fd5b5060405162003db638038062003db68339810160408190526200003491620003b0565b733cc6cdda760b79bafa08df41ecfa224f810dceb66001838381818160009080519060200190620000679291906200023d565b5080516200007d9060019060208401906200023d565b50506006805460ff191690555060016007556200009a33620001eb565b50506daaeb6d7670e522a718067333cd4e3b15620001e15780156200012f57604051633e9f1edf60e11b81523060048201526001600160a01b03831660248201526daaeb6d7670e522a718067333cd4e90637d3e3dbe906044015b600060405180830381600087803b1580156200011057600080fd5b505af115801562000125573d6000803e3d6000fd5b50505050620001e1565b6001600160a01b03821615620001805760405163a0af290360e01b81523060048201526001600160a01b03831660248201526daaeb6d7670e522a718067333cd4e9063a0af290390604401620000f5565b604051632210724360e11b81523060048201526daaeb6d7670e522a718067333cd4e90634420e48690602401600060405180830381600087803b158015620001c757600080fd5b505af1158015620001dc573d6000803e3d6000fd5b505050505b5050505062000457565b600880546001600160a01b038381166001600160a01b0319831681179093556040519116919082907f8be0079c531659141344cd1fd0a4f28419497f9722a3daafe3b4186f6b6457e090600090a35050565b8280546200024b906200041a565b90600052602060002090601f0160209004810192826200026f5760008555620002ba565b82601f106200028a57805160ff1916838001178555620002ba565b82800160010185558215620002ba579182015b82811115620002ba5782518255916020019190600101906200029d565b50620002c8929150620002cc565b5090565b5b80821115620002c85760008155600101620002cd565b634e487b7160e01b600052604160045260246000fd5b600082601f8301126200030b57600080fd5b81516001600160401b0380821115620003285762000328620002e3565b604051601f8301601f19908116603f01168101908282118183101715620003535762000353620002e3565b816040528381526020925086838588010111156200037057600080fd5b600091505b8382101562000394578582018301518183018401529082019062000375565b83821115620003a65760008385830101525b9695505050505050565b60008060408385031215620003c457600080fd5b82516001600160401b0380821115620003dc57600080fd5b620003ea86838701620002f9565b935060208501519150808211156200040157600080fd5b506200041085828601620002f9565b9150509250929050565b600181811c908216806200042f57607f821691505b602082108114156200045157634e487b7160e01b600052602260045260246000fd5b50919050565b61394f80620004676000396000f3fe6080604052600436106102305760003560e01c80635c975abb1161012e5780639713c807116100ab578063d87b0cc91161006f578063d87b0cc9146106e0578063e985e9c514610700578063f2fde38b14610749578063febfd6c314610769578063ffc27c0e1461078957600080fd5b80639713c80714610640578063a22cb46514610660578063adfc7dae14610680578063b88d4fde146106a0578063c87b56dd146106c057600080fd5b8063775bff9f116100f2578063775bff9f146105475780637f77f574146105735780638da5cb5b146105ed5780638f2839701461060b57806395d89b411461062b57600080fd5b80635c975abb146104a4578063621a1f74146104bc5780636352211e146104dc57806370a0823114610512578063715018a61461053257600080fd5b806323b872dd116101bc578063452fa3d311610180578063452fa3d31461041a578063472f1e021461042f5780634e69d5601461044f578063575b57ea146104645780635c40f6f41461048457600080fd5b806323b872dd146103645780632a55205a1461038457806336a0a6cb146103c357806341f43434146103d857806342842e0e146103fa57600080fd5b8063095ea7b311610203578063095ea7b3146102e457806310da88c5146103065780631249c58b146103265780631ca9741b1461033c57806321c8d6761461035c57600080fd5b806301bc45c91461023557806301ffc9a71461027257806306fdde03146102a2578063081812fc146102c4575b600080fd5b34801561024157600080fd5b50600a54610255906001600160a01b031681565b6040516001600160a01b0390911681526020015b60405180910390f35b34801561027e57600080fd5b5061029261028d366004612f5a565b6107a9565b6040519015158152602001610269565b3480156102ae57600080fd5b506102b76107fb565b6040516102699190612fd6565b3480156102d057600080fd5b506102556102df366004612fe9565b61088d565b3480156102f057600080fd5b506103046102ff366004613027565b6108b4565b005b34801561031257600080fd5b506102b7610321366004612fe9565b6109cf565b61032e610acd565b604051908152602001610269565b34801561034857600080fd5b50610304610357366004613053565b610cd2565b61032e610d63565b34801561037057600080fd5b5061030461037f366004613070565b61103a565b34801561039057600080fd5b506103a461039f3660046130b1565b611065565b604080516001600160a01b039093168352602083019190915201610269565b3480156103cf57600080fd5b506102b761107d565b3480156103e457600080fd5b506102556daaeb6d7670e522a718067333cd4e81565b34801561040657600080fd5b50610304610415366004613070565b61110b565b34801561042657600080fd5b506102b7611130565b34801561043b57600080fd5b5061030461044a366004613053565b61113d565b34801561045b57600080fd5b506102926111cf565b34801561047057600080fd5b50600d54610255906001600160a01b031681565b34801561049057600080fd5b5061030461049f3660046130ec565b6111e3565b3480156104b057600080fd5b5060065460ff16610292565b3480156104c857600080fd5b5061032e6104d7366004612fe9565b61124a565b3480156104e857600080fd5b506102556104f7366004612fe9565b6000908152600960205260409020546001600160a01b031690565b34801561051e57600080fd5b5061032e61052d366004613053565b6112d0565b34801561053e57600080fd5b50610304611356565b34801561055357600080fd5b5061055c61136a565b6040516102699b9a99989796959493929190613109565b34801561057f57600080fd5b506105c261058e366004612fe9565b6010602052600090815260409020546001600160a01b03811690600160a01b810462ffffff1690600160b81b900460ff1683565b604080516001600160a01b03909416845262ffffff9092166020840152151590820152606001610269565b3480156105f957600080fd5b50600a546001600160a01b0316610255565b34801561061757600080fd5b50610304610626366004613053565b6114ef565b34801561063757600080fd5b506102b7611581565b34801561064c57600080fd5b5061030461065b366004613199565b611590565b34801561066c57600080fd5b5061030461067b3660046131c0565b61165e565b34801561068c57600080fd5b50600b54610255906001600160a01b031681565b3480156106ac57600080fd5b506103046106bb3660046132d0565b61166d565b3480156106cc57600080fd5b506102b76106db366004612fe9565b61169a565b3480156106ec57600080fd5b506103046106fb36600461340c565b61174f565b34801561070c57600080fd5b5061029261071b3660046135a7565b6001600160a01b03918216600090815260056020908152604080832093909416825291909152205460ff1690565b34801561075557600080fd5b50610304610764366004613053565b611a9e565b34801561077557600080fd5b50610304610784366004613053565b611b14565b34801561079557600080fd5b50600c54610255906001600160a01b031681565b60006001600160e01b031982166380ac58cd60e01b14806107da57506001600160e01b03198216635b5e139f60e01b145b806107f557506301ffc9a760e01b6001600160e01b03198316145b92915050565b6060600e805461080a906135d5565b80601f0160208091040260200160405190810160405280929190818152602001828054610836906135d5565b80156108835780601f1061085857610100808354040283529160200191610883565b820191906000526020600020905b81548152906001019060200180831161086657829003601f168201915b5050505050905090565b600061089882611ba6565b506000908152600460205260409020546001600160a01b031690565b60006108bf82611c05565b9050806001600160a01b0316836001600160a01b031614156109325760405162461bcd60e51b815260206004820152602160248201527f4552433732313a20617070726f76616c20746f2063757272656e74206f776e656044820152603960f91b60648201526084015b60405180910390fd5b336001600160a01b038216148061094e575061094e813361071b565b6109c05760405162461bcd60e51b815260206004820152603d60248201527f4552433732313a20617070726f76652063616c6c6572206973206e6f7420746f60448201527f6b656e206f776e6572206f7220617070726f76656420666f7220616c6c0000006064820152608401610929565b6109ca8383611c65565b505050565b600d5460405163188687dd60e21b8152600481018390526060916001600160a01b031690600090309063621a1f7490602401602060405180830381865afa158015610a1e573d6000803e3d6000fd5b505050506040513d601f19601f82011682018060405250810190610a429190613610565b601254604051639413930160e01b8152600481019190915260248101869052604481018290529091506001600160a01b038316906394139301906064015b600060405180830381865afa158015610a9d573d6000803e3d6000fd5b505050506040513d6000823e601f3d908101601f19168201604052610ac59190810190613629565b949350505050565b6000610ad7611cd3565b60138054600160301b900462ffffff16906006610af3836136b6565b82546101009290920a62ffffff818102199093169183160217909155601354630100000081048216600160301b90910490911611159050610b3357600080fd5b60135462ffffff80821691610b5991600160481b8204811691600160301b9004166136d9565b62ffffff161415610bca57601154601254604051631122f8a960e11b815260048101919091526001600160a01b03909116908190632245f15290602401600060405180830381600087803b158015610bb057600080fd5b505af1158015610bc4573d6000803e3d6000fd5b50505050505b601354601254600160301b90910462ffffff1690610bec90620f424090613700565b610bf6919061371f565b9050610c023382611d2d565b600c54604051631da00d8560e01b8152600481018390526001600160a01b03909116906000908290631da00d85906024016020604051808303816000875af1158015610c52573d6000803e3d6000fd5b505050506040513d601f19601f82011682018060405250810190610c769190613610565b9050610c828382611d47565b610c8a611e10565b60408051338152602081018590527f0f6798a560793a54c3bcfe86a93cde1e73087d944c0ea20544137d4121396885910160405180910390a15050610ccf6001600755565b90565b600a546001600160a01b031633148015610cf457506001600160a01b03811615155b6040518060400160405280600381526020016231303160e81b81525090610d2e5760405162461bcd60e51b81526004016109299190612fd6565b50600c546001600160a01b03828116911614610d6057600c80546001600160a01b0319166001600160a01b0383161790555b50565b6000610d6d611cd3565b60138054600160481b900462ffffff16906009610d89836136b6565b82546101009290920a62ffffff8181021990931691831602179091556013548082169250610dc89163010000008204811691600160481b9004166136d9565b62ffffff161115610dd857600080fd5b60135462ffffff80821691610dfe91600160481b8204811691600160301b9004166136d9565b62ffffff161415610e6f57601154601254604051631122f8a960e11b815260048101919091526001600160a01b03909116908190632245f15290602401600060405180830381600087803b158015610e5557600080fd5b505af1158015610e69573d6000803e3d6000fd5b50505050505b601154336000908152601960205260409020546001600160a01b039091169060ff161580610f1a57506012546040516331a9108f60e11b815260048101919091526001600160a01b03821690636352211e90602401602060405180830381865afa158015610ee1573d6000803e3d6000fd5b505050506040513d601f19601f82011682018060405250810190610f059190613737565b6001600160a01b0316336001600160a01b0316145b610f2357600080fd5b601354610f459062ffffff63010000008204811691600160481b9004166136d9565b62ffffff16620f4240601160010154610f5e9190613700565b610f68919061371f565b9150610f743383611d2d565b600c54604051631da00d8560e01b8152600481018490526001600160a01b03909116906000908290631da00d85906024016020604051808303816000875af1158015610fc4573d6000803e3d6000fd5b505050506040513d601f19601f82011682018060405250810190610fe89190613610565b9050610ff48482611d47565b60408051338152602081018690527f0f6798a560793a54c3bcfe86a93cde1e73087d944c0ea20544137d4121396885910160405180910390a1505050610ccf6001600755565b826001600160a01b03811633146110545761105433612289565b61105f848484612342565b50505050565b6000806110728484612373565b915091509250929050565b600f805461108a906135d5565b80601f01602080910402602001604051908101604052809291908181526020018280546110b6906135d5565b80156111035780601f106110d857610100808354040283529160200191611103565b820191906000526020600020905b8154815290600101906020018083116110e657829003601f168201915b505050505081565b826001600160a01b03811633146111255761112533612289565b61105f84848461240f565b600e805461108a906135d5565b600a546001600160a01b03163314801561115f57506001600160a01b03811615155b6040518060400160405280600381526020016231303160e81b815250906111995760405162461bcd60e51b81526004016109299190612fd6565b50600d546001600160a01b03828116911614610d6057600d80546001600160a01b0383166001600160a01b031990911617905550565b60006111dd60065460ff1690565b15905090565b600a546001600160a01b031633148061120657506011546001600160a01b031633145b6040518060400160405280600381526020016231303160e81b815250906112405760405162461bcd60e51b81526004016109299190612fd6565b50610d608161242a565b600081815260096020526040812054600160a01b900460a01b6001600160a01b03191661127957506000919050565b6000828152600960209081526040918290205491516112b392600160a01b900460a01b91016001600160a01b031991909116815260200190565b604051602081830303815290604052805190602001209050919050565b60006001600160a01b03821661133a5760405162461bcd60e51b815260206004820152602960248201527f4552433732313a2061646472657373207a65726f206973206e6f7420612076616044820152683634b21037bbb732b960b91b6064820152608401610929565b506001600160a01b031660009081526003602052604090205490565b61135e612440565b61136860006124be565b565b60118054601254601354601480546001600160a01b0390941694929362ffffff8084169463010000008504821694600160301b8104831694600160481b909104909216929091906113ba906135d5565b80601f01602080910402602001604051908101604052809291908181526020018280546113e6906135d5565b80156114335780601f1061140857610100808354040283529160200191611433565b820191906000526020600020905b81548152906001019060200180831161141657829003601f168201915b5050505060048301546005840154600685015460078601805495966001600160a01b039485169693955093909116929161146c906135d5565b80601f0160208091040260200160405190810160405280929190818152602001828054611498906135d5565b80156114e55780601f106114ba576101008083540402835291602001916114e5565b820191906000526020600020905b8154815290600101906020018083116114c857829003601f168201915b505050505090508b565b600a546001600160a01b03163314801561151157506001600160a01b03811615155b6040518060400160405280600381526020016231303160e81b8152509061154b5760405162461bcd60e51b81526004016109299190612fd6565b50600a546001600160a01b03828116911614610d6057600a80546001600160a01b0383166001600160a01b031990911617905550565b6060600f805461080a906135d5565b600a546001600160a01b031633146115a757600080fd5b60408051808201909152600381526232303960e81b60208201526127108211156115e45760405162461bcd60e51b81526004016109299190612fd6565b50604080516060810182526001600160a01b03938416815262ffffff928316602080830191825260018385019081526000978852601090915292909520905181549551925194166001600160b81b031990951694909417600160a01b91909216021760ff60b81b1916600160b81b91151591909102179055565b611669338383612510565b5050565b836001600160a01b03811633146116875761168733612289565b611693858585856125df565b5050505050565b600d5460405163188687dd60e21b8152600481018390526060916001600160a01b031690600090309063621a1f7490602401602060405180830381865afa1580156116e9573d6000803e3d6000fd5b505050506040513d601f19601f8201168201806040525081019061170d9190613610565b6012546040516308dd54e960e31b8152600481019190915260248101869052604481018290529091506001600160a01b038316906346eaa74890606401610a80565b600a5460408051808201909152600381526219181960e91b6020820152906001600160a01b0316156117945760405162461bcd60e51b81526004016109299190612fd6565b5060408051808201909152600381526203130360ec1b60208201526001600160a01b0387166117d65760405162461bcd60e51b81526004016109299190612fd6565b508651601180546001600160a01b039092166001600160a01b031990921691909117815560208089015160125560408901516013805460608c015160808d015160a08e015162ffffff908116600160481b026bffffff00000000000000000019928216600160301b02929092166bffffffffffff0000000000001993821663010000000265ffffffffffff19909516919096161792909217169290921791909117905560c089015180518a939261189292601492910190612eab565b5060e08201516004820180546001600160a01b039283166001600160a01b031991821617909155610100840151600584015561012084015160068401805491909316911617905561014082015180516118f5916007840191602090910190612eab565b5050600b80546001600160a01b038089166001600160a01b031992831617909255600a80548a8416908316179055600c8054888416908316179055600d80549287169290911691909117905550610140870151805161195c91600e91602090910190612eab565b506119f460016003600e8054611971906135d5565b80601f016020809104026020016040519081016040528092919081815260200182805461199d906135d5565b80156119ea5780601f106119bf576101008083540402835291602001916119ea565b820191906000526020600020905b8154815290600101906020018083116119cd57829003601f168201915b5050505050612611565b8051611a0891600f91602090910190612eab565b5060005b8251811015611a7157600060196000858481518110611a2d57611a2d613754565b6020908102919091018101516001600160a01b03168252810191909152604001600020805460ff191691151591909117905580611a698161376a565b915050611a0c565b50600a54611a87906001600160a01b0316611a9e565b8015611a9557611a956126f8565b50505050505050565b611aa6612440565b6001600160a01b038116611b0b5760405162461bcd60e51b815260206004820152602660248201527f4f776e61626c653a206e6577206f776e657220697320746865207a65726f206160448201526564647265737360d01b6064820152608401610929565b610d60816124be565b600a546001600160a01b031633148015611b3657506001600160a01b03811615155b6040518060400160405280600381526020016231303160e81b81525090611b705760405162461bcd60e51b81526004016109299190612fd6565b50600b546001600160a01b03828116911614610d6057600b80546001600160a01b0383166001600160a01b031990911617905550565b6000818152600960205260409020546001600160a01b0316610d605760405162461bcd60e51b8152602060048201526018602482015277115490cdcc8c4e881a5b9d985b1a59081d1bdad95b88125160421b6044820152606401610929565b6000818152600260205260408120546001600160a01b0316806107f55760405162461bcd60e51b8152602060048201526018602482015277115490cdcc8c4e881a5b9d985b1a59081d1bdad95b88125160421b6044820152606401610929565b600081815260046020526040902080546001600160a01b0319166001600160a01b0384169081179091558190611c9a82611c05565b6001600160a01b03167f8c5be1e5ebec7d5bd14f71427d1e84f3dd0314c0f7b2291e5b200ac8c7c3b92560405160405180910390a45050565b60026007541415611d265760405162461bcd60e51b815260206004820152601f60248201527f5265656e7472616e637947756172643a207265656e7472616e742063616c6c006044820152606401610929565b6002600755565b611669828260405180602001604052806000815250612752565b600082815260096020908152604091829020548251808401909352600383526203231360ec1b91830191909152600160a01b900460a01b6001600160a01b03191615611da65760405162461bcd60e51b81526004016109299190612fd6565b5060408051808201909152600381526232313160e81b602082015281611ddf5760405162461bcd60e51b81526004016109299190612fd6565b50600091825260096020526040909120805460a09290921c600160a01b026001600160a01b03909216919091179055565b60165480611e1b5750565b601154600b546000916001600160a01b0390811691166101f48115611ed35760408051808201825260158152744d494e545f4e46545f4f50455241544f525f46454560581b60208201529051636d12dce160e01b81526001600160a01b03841691636d12dce191611e8f9190600401612fd6565b602060405180830381865afa158015611eac573d6000803e3d6000fd5b505050506040513d601f19601f82011682018060405250810190611ed09190613610565b90505b6001600160a01b03841661204a5784341015611eee57600080fd5b6012546040516331a9108f60e11b81526000916001600160a01b03861691636352211e91611f229160040190815260200190565b602060405180830381865afa158015611f3f573d6000803e3d6000fd5b505050506040513d601f19601f82011682018060405250810190611f639190613737565b6001600160a01b0316612710611f798489613700565b611f839190613785565b611f8d90886137a7565b604051600081818185875af1925050503d8060008114611fc9576040519150601f19603f3d011682016040523d82523d6000602084013e611fce565b606091505b5050905080611fdc57600080fd5b600a546001600160a01b0316612710611ff58489613700565b611fff9190613785565b604051600081818185875af1925050503d806000811461203b576040519150601f19603f3d011682016040523d82523d6000602084013e612040565b606091505b5061169392505050565b6040516323b872dd60e01b81523360048201523060248201526044810186905284906001600160a01b038216906323b872dd906064016020604051808303816000875af115801561209f573d6000803e3d6000fd5b505050506040513d601f19601f820116820180604052508101906120c391906137be565b6120cc57600080fd5b6012546040516331a9108f60e11b815260048101919091526001600160a01b038281169163a9059cbb91871690636352211e90602401602060405180830381865afa15801561211f573d6000803e3d6000fd5b505050506040513d601f19601f820116820180604052508101906121439190613737565b612710612150868b613700565b61215a9190613785565b612164908a6137a7565b6040516001600160e01b031960e085901b1681526001600160a01b03909216600483015260248201526044016020604051808303816000875af11580156121af573d6000803e3d6000fd5b505050506040513d601f19601f820116820180604052508101906121d391906137be565b6121dc57600080fd5b600a546001600160a01b038083169163a9059cbb91166127106121ff868b613700565b6122099190613785565b6040516001600160e01b031960e085901b1681526001600160a01b03909216600483015260248201526044016020604051808303816000875af1158015612254573d6000803e3d6000fd5b505050506040513d601f19601f8201168201806040525081019061227891906137be565b61228157600080fd5b505050505050565b6daaeb6d7670e522a718067333cd4e3b15610d6057604051633185c44d60e21b81523060048201526001600160a01b03821660248201526daaeb6d7670e522a718067333cd4e9063c617113490604401602060405180830381865afa1580156122f6573d6000803e3d6000fd5b505050506040513d601f19601f8201168201806040525081019061231a91906137be565b610d6057604051633b79c77360e21b81526001600160a01b0382166004820152602401610929565b61234c3382612785565b6123685760405162461bcd60e51b8152600401610929906137db565b6109ca838383612803565b6000828152601060209081526040808320815160608101835290546001600160a01b0381168252600160a01b810462ffffff1693820193909352600160b81b90920460ff16158015918301919091528291906123f75780516020820151909350612710906123e69062ffffff1686613700565b6123f09190613785565b9150612407565b612401858561283d565b90935091505b509250929050565b6109ca8383836040518060200160405280600081525061166d565b801561243857610d60612875565b610d606126f8565b33612453600a546001600160a01b031690565b6001600160a01b0316148061247257506011546001600160a01b031633145b6113685760405162461bcd60e51b815260206004820181905260248201527f4f776e61626c653a2063616c6c6572206973206e6f7420746865206f776e65726044820152606401610929565b600880546001600160a01b038381166001600160a01b0319831681179093556040519116919082907f8be0079c531659141344cd1fd0a4f28419497f9722a3daafe3b4186f6b6457e090600090a35050565b816001600160a01b0316836001600160a01b031614156125725760405162461bcd60e51b815260206004820152601960248201527f4552433732313a20617070726f766520746f2063616c6c6572000000000000006044820152606401610929565b6001600160a01b03838116600081815260056020908152604080832094871680845294825291829020805460ff191686151590811790915591519182527f17307eab39ab6107e8899845ad3d59bd9653f200f220920489ca2b5937696c31910160405180910390a3505050565b6125e93383612785565b6126055760405162461bcd60e51b8152600401610929906137db565b61105f848484846128ae565b6060600061261f85856137a7565b61262a90600161371f565b67ffffffffffffffff811115612642576126426131f9565b6040519080825280601f01601f19166020018201604052801561266c576020820181803683370190505b50905060005b61267c86866137a7565b81116126ef5783600161268f888461371f565b61269991906137a7565b815181106126a9576126a9613754565b602001015160f81c60f81b8282815181106126c6576126c6613754565b60200101906001600160f81b031916908160001a905350806126e78161376a565b915050612672565b50949350505050565b6127006128e1565b6006805460ff191660011790557f62e78cea01bee320cd4e420270b5ea74000d11b0c9f74754ebdbfc544b05a2586127353390565b6040516001600160a01b03909116815260200160405180910390a1565b61275c8383612927565b612769600084848461295f565b6109ca5760405162461bcd60e51b815260040161092990613828565b60008061279183611c05565b9050806001600160a01b0316846001600160a01b031614806127d857506001600160a01b0380821660009081526005602090815260408083209388168352929052205460ff165b80610ac55750836001600160a01b03166127f18461088d565b6001600160a01b031614949350505050565b61280e838383612a5d565b600090815260096020526040902080546001600160a01b0319166001600160a01b039290921691909117905550565b600a5460009081906001600160a01b03168161271061285e866101f4613700565b6128689190613785565b9196919550909350505050565b61287d612bce565b6006805460ff191690557f5db9ee0a495bf2e6ff9c91a7834c1ba4fdd244a5e8aa4e537bd38aeae4b073aa33612735565b6128b9848484612803565b6128c58484848461295f565b61105f5760405162461bcd60e51b815260040161092990613828565b60065460ff16156113685760405162461bcd60e51b815260206004820152601060248201526f14185d5cd8589b194e881c185d5cd95960821b6044820152606401610929565b6129318282612c17565b600090815260096020526040902080546001600160a01b0319166001600160a01b0392909216919091179055565b60006001600160a01b0384163b15612a5257604051630a85bd0160e11b81526001600160a01b0385169063150b7a02906129a390339089908890889060040161387a565b6020604051808303816000875af19250505080156129de575060408051601f3d908101601f191682019092526129db918101906138b7565b60015b612a38573d808015612a0c576040519150601f19603f3d011682016040523d82523d6000602084013e612a11565b606091505b508051612a305760405162461bcd60e51b815260040161092990613828565b805181602001fd5b6001600160e01b031916630a85bd0160e11b149050610ac5565b506001949350505050565b826001600160a01b0316612a7082611c05565b6001600160a01b031614612a965760405162461bcd60e51b8152600401610929906138d4565b6001600160a01b038216612af85760405162461bcd60e51b8152602060048201526024808201527f4552433732313a207472616e7366657220746f20746865207a65726f206164646044820152637265737360e01b6064820152608401610929565b612b058383836001612db0565b826001600160a01b0316612b1882611c05565b6001600160a01b031614612b3e5760405162461bcd60e51b8152600401610929906138d4565b600081815260046020908152604080832080546001600160a01b03199081169091556001600160a01b0387811680865260038552838620805460001901905590871680865283862080546001019055868652600290945282852080549092168417909155905184937fddf252ad1be2c89b69c2b068fc378daa952ba7f163c4a11628f55a4df523b3ef91a4505050565b60065460ff166113685760405162461bcd60e51b815260206004820152601460248201527314185d5cd8589b194e881b9bdd081c185d5cd95960621b6044820152606401610929565b6001600160a01b038216612c6d5760405162461bcd60e51b815260206004820181905260248201527f4552433732313a206d696e7420746f20746865207a65726f20616464726573736044820152606401610929565b6000818152600960205260409020546001600160a01b031615612cd25760405162461bcd60e51b815260206004820152601c60248201527f4552433732313a20746f6b656e20616c7265616479206d696e746564000000006044820152606401610929565b612ce0600083836001612db0565b6000818152600960205260409020546001600160a01b031615612d455760405162461bcd60e51b815260206004820152601c60248201527f4552433732313a20746f6b656e20616c7265616479206d696e746564000000006044820152606401610929565b6001600160a01b038216600081815260036020908152604080832080546001019055848352600290915280822080546001600160a01b0319168417905551839291907fddf252ad1be2c89b69c2b068fc378daa952ba7f163c4a11628f55a4df523b3ef908290a45050565b612dbc84848484612e23565b60065460ff161561105f5760405162461bcd60e51b815260206004820152602b60248201527f4552433732315061757361626c653a20746f6b656e207472616e73666572207760448201526a1a1a5b19481c185d5cd95960aa1b6064820152608401610929565b600181111561105f576001600160a01b03841615612e69576001600160a01b03841660009081526003602052604081208054839290612e639084906137a7565b90915550505b6001600160a01b0383161561105f576001600160a01b03831660009081526003602052604081208054839290612ea090849061371f565b909155505050505050565b828054612eb7906135d5565b90600052602060002090601f016020900481019282612ed95760008555612f1f565b82601f10612ef257805160ff1916838001178555612f1f565b82800160010185558215612f1f579182015b82811115612f1f578251825591602001919060010190612f04565b50612f2b929150612f2f565b5090565b5b80821115612f2b5760008155600101612f30565b6001600160e01b031981168114610d6057600080fd5b600060208284031215612f6c57600080fd5b8135612f7781612f44565b9392505050565b60005b83811015612f99578181015183820152602001612f81565b8381111561105f5750506000910152565b60008151808452612fc2816020860160208601612f7e565b601f01601f19169290920160200192915050565b602081526000612f776020830184612faa565b600060208284031215612ffb57600080fd5b5035919050565b6001600160a01b0381168114610d6057600080fd5b803561302281613002565b919050565b6000806040838503121561303a57600080fd5b823561304581613002565b946020939093013593505050565b60006020828403121561306557600080fd5b8135612f7781613002565b60008060006060848603121561308557600080fd5b833561309081613002565b925060208401356130a081613002565b929592945050506040919091013590565b600080604083850312156130c457600080fd5b50508035926020909101359150565b8015158114610d6057600080fd5b8035613022816130d3565b6000602082840312156130fe57600080fd5b8135612f77816130d3565b6001600160a01b038c81168252602082018c905262ffffff8b811660408401528a811660608401528981166080840152881660a083015261016060c083018190526000916131598483018a612faa565b915080881660e085015286610100850152808616610120850152508281036101408401526131878185612faa565b9e9d5050505050505050505050505050565b6000806000606084860312156131ae57600080fd5b8335925060208401356130a081613002565b600080604083850312156131d357600080fd5b82356131de81613002565b915060208301356131ee816130d3565b809150509250929050565b634e487b7160e01b600052604160045260246000fd5b604051610160810167ffffffffffffffff81118282101715613233576132336131f9565b60405290565b604051601f8201601f1916810167ffffffffffffffff81118282101715613262576132626131f9565b604052919050565b600067ffffffffffffffff821115613284576132846131f9565b50601f01601f191660200190565b60006132a56132a08461326a565b613239565b90508281528383830111156132b957600080fd5b828260208301376000602084830101529392505050565b600080600080608085870312156132e657600080fd5b84356132f181613002565b9350602085013561330181613002565b925060408501359150606085013567ffffffffffffffff81111561332457600080fd5b8501601f8101871361333557600080fd5b61334487823560208401613292565b91505092959194509250565b803562ffffff8116811461302257600080fd5b600082601f83011261337457600080fd5b612f7783833560208501613292565b600082601f83011261339457600080fd5b8135602067ffffffffffffffff8211156133b0576133b06131f9565b8160051b6133bf828201613239565b92835284810182019282810190878511156133d957600080fd5b83870192505b848310156134015782356133f281613002565b825291830191908301906133df565b979650505050505050565b600080600080600080600060e0888a03121561342757600080fd5b873567ffffffffffffffff8082111561343f57600080fd5b90890190610160828c03121561345457600080fd5b61345c61320f565b61346583613017565b81526020830135602082015261347d60408401613350565b604082015261348e60608401613350565b606082015261349f60808401613350565b60808201526134b060a08401613350565b60a082015260c0830135828111156134c757600080fd5b6134d38d828601613363565b60c0830152506134e560e08401613017565b60e08201526101008381013590820152610120613503818501613017565b90820152610140838101358381111561351b57600080fd5b6135278e828701613363565b8284015250508099505061353d60208b01613017565b975061354b60408b01613017565b965061355960608b01613017565b955061356760808b01613017565b945060a08a013591508082111561357d57600080fd5b5061358a8a828b01613383565b92505061359960c089016130e1565b905092959891949750929550565b600080604083850312156135ba57600080fd5b82356135c581613002565b915060208301356131ee81613002565b600181811c908216806135e957607f821691505b6020821081141561360a57634e487b7160e01b600052602260045260246000fd5b50919050565b60006020828403121561362257600080fd5b5051919050565b60006020828403121561363b57600080fd5b815167ffffffffffffffff81111561365257600080fd5b8201601f8101841361366357600080fd5b80516136716132a08261326a565b81815285602083850101111561368657600080fd5b613697826020830160208601612f7e565b95945050505050565b634e487b7160e01b600052601160045260246000fd5b600062ffffff808316818114156136cf576136cf6136a0565b6001019392505050565b600062ffffff8083168185168083038211156136f7576136f76136a0565b01949350505050565b600081600019048311821515161561371a5761371a6136a0565b500290565b60008219821115613732576137326136a0565b500190565b60006020828403121561374957600080fd5b8151612f7781613002565b634e487b7160e01b600052603260045260246000fd5b600060001982141561377e5761377e6136a0565b5060010190565b6000826137a257634e487b7160e01b600052601260045260246000fd5b500490565b6000828210156137b9576137b96136a0565b500390565b6000602082840312156137d057600080fd5b8151612f77816130d3565b6020808252602d908201527f4552433732313a2063616c6c6572206973206e6f7420746f6b656e206f776e6560408201526c1c881bdc88185c1c1c9bdd9959609a1b606082015260800190565b60208082526032908201527f4552433732313a207472616e7366657220746f206e6f6e20455243373231526560408201527131b2b4bb32b91034b6b83632b6b2b73a32b960711b606082015260800190565b6001600160a01b03858116825284166020820152604081018390526080606082018190526000906138ad90830184612faa565b9695505050505050565b6000602082840312156138c957600080fd5b8151612f7781612f44565b60208082526025908201527f4552433732313a207472616e736665722066726f6d20696e636f72726563742060408201526437bbb732b960d91b60608201526080019056fea26469706673582212203b0203d98a6f4e1896b5621742ef2856e52d3dfd9bee010aaeba5f153dd7f3f364736f6c634300080c0033",
  "linkReferences": {},
  "deployedLinkReferences": {}
}