{
  "_format": "hh-sol-artifact-1",
  "contractName": "GenerativeNFT",
  "sourceName": "contracts/nfts/GenerativeNFT.sol",
  "abi": [
    {
      "inputs": [
        {
          "internalType": "string",
          "name": "name",
          "type": "string"
        },
        {
          "internalType": "string",
          "name": "symbol",
          "type": "string"
        }
      ],
      "stateMutability": "nonpayable",
      "type": "constructor"
    },
    {
      "anonymous": false,
      "inputs": [
        {
          "indexed": true,
          "internalType": "address",
          "name": "owner",
          "type": "address"
        },
        {
          "indexed": true,
          "internalType": "address",
          "name": "approved",
          "type": "address"
        },
        {
          "indexed": true,
          "internalType": "uint256",
          "name": "tokenId",
          "type": "uint256"
        }
      ],
      "name": "Approval",
      "type": "event"
    },
    {
      "anonymous": false,
      "inputs": [
        {
          "indexed": true,
          "internalType": "address",
          "name": "owner",
          "type": "address"
        },
        {
          "indexed": true,
          "internalType": "address",
          "name": "operator",
          "type": "address"
        },
        {
          "indexed": false,
          "internalType": "bool",
          "name": "approved",
          "type": "bool"
        }
      ],
      "name": "ApprovalForAll",
      "type": "event"
    },
    {
      "anonymous": false,
      "inputs": [
        {
          "indexed": true,
          "internalType": "address",
          "name": "previousOwner",
          "type": "address"
        },
        {
          "indexed": true,
          "internalType": "address",
          "name": "newOwner",
          "type": "address"
        }
      ],
      "name": "OwnershipTransferred",
      "type": "event"
    },
    {
      "anonymous": false,
      "inputs": [
        {
          "indexed": false,
          "internalType": "address",
          "name": "account",
          "type": "address"
        }
      ],
      "name": "Paused",
      "type": "event"
    },
    {
      "anonymous": false,
      "inputs": [
        {
          "indexed": true,
          "internalType": "address",
          "name": "from",
          "type": "address"
        },
        {
          "indexed": true,
          "internalType": "address",
          "name": "to",
          "type": "address"
        },
        {
          "indexed": true,
          "internalType": "uint256",
          "name": "tokenId",
          "type": "uint256"
        }
      ],
      "name": "Transfer",
      "type": "event"
    },
    {
      "anonymous": false,
      "inputs": [
        {
          "indexed": false,
          "internalType": "address",
          "name": "account",
          "type": "address"
        }
      ],
      "name": "Unpaused",
      "type": "event"
    },
    {
      "inputs": [],
      "name": "_admin",
      "outputs": [
        {
          "internalType": "address",
          "name": "",
          "type": "address"
        }
      ],
      "stateMutability": "view",
      "type": "function"
    },
    {
      "inputs": [],
      "name": "_paramsAddress",
      "outputs": [
        {
          "internalType": "address",
          "name": "",
          "type": "address"
        }
      ],
      "stateMutability": "view",
      "type": "function"
    },
    {
      "inputs": [],
      "name": "_project",
      "outputs": [
        {
          "internalType": "address",
          "name": "_projectAddr",
          "type": "address"
        },
        {
          "internalType": "address",
          "name": "_projectDataAddr",
          "type": "address"
        },
        {
          "internalType": "uint256",
          "name": "_projectId",
          "type": "uint256"
        },
        {
          "internalType": "uint24",
          "name": "_maxSupply",
          "type": "uint24"
        },
        {
          "internalType": "uint24",
          "name": "_limit",
          "type": "uint24"
        },
        {
          "internalType": "uint24",
          "name": "_index",
          "type": "uint24"
        },
        {
          "internalType": "uint24",
          "name": "_indexReserve",
          "type": "uint24"
        },
        {
          "internalType": "string",
          "name": "_creator",
          "type": "string"
        },
        {
          "internalType": "address",
          "name": "_creatorAddr",
          "type": "address"
        },
        {
          "internalType": "uint256",
          "name": "_mintPrice",
          "type": "uint256"
        },
        {
          "internalType": "address",
          "name": "_mintPriceAddr",
          "type": "address"
        }
      ],
      "stateMutability": "view",
      "type": "function"
    },
    {
      "inputs": [],
      "name": "_randomizer",
      "outputs": [
        {
          "internalType": "address",
          "name": "",
          "type": "address"
        }
      ],
      "stateMutability": "view",
      "type": "function"
    },
    {
      "inputs": [
        {
          "internalType": "address",
          "name": "to",
          "type": "address"
        },
        {
          "internalType": "uint256",
          "name": "tokenId",
          "type": "uint256"
        }
      ],
      "name": "approve",
      "outputs": [],
      "stateMutability": "nonpayable",
      "type": "function"
    },
    {
      "inputs": [
        {
          "internalType": "address",
          "name": "owner",
          "type": "address"
        }
      ],
      "name": "balanceOf",
      "outputs": [
        {
          "internalType": "uint256",
          "name": "",
          "type": "uint256"
        }
      ],
      "stateMutability": "view",
      "type": "function"
    },
    {
      "inputs": [
        {
          "internalType": "address",
          "name": "newAdmin",
          "type": "address"
        }
      ],
      "name": "changeAdmin",
      "outputs": [],
      "stateMutability": "nonpayable",
      "type": "function"
    },
    {
      "inputs": [
        {
          "internalType": "uint256",
          "name": "tokenId",
          "type": "uint256"
        }
      ],
      "name": "getApproved",
      "outputs": [
        {
          "internalType": "address",
          "name": "",
          "type": "address"
        }
      ],
      "stateMutability": "view",
      "type": "function"
    },
    {
      "inputs": [
        {
          "components": [
            {
              "internalType": "address",
              "name": "_projectAddr",
              "type": "address"
            },
            {
              "internalType": "address",
              "name": "_projectDataAddr",
              "type": "address"
            },
            {
              "internalType": "uint256",
              "name": "_projectId",
              "type": "uint256"
            },
            {
              "internalType": "uint24",
              "name": "_maxSupply",
              "type": "uint24"
            },
            {
              "internalType": "uint24",
              "name": "_limit",
              "type": "uint24"
            },
            {
              "internalType": "uint24",
              "name": "_index",
              "type": "uint24"
            },
            {
              "internalType": "uint24",
              "name": "_indexReserve",
              "type": "uint24"
            },
            {
              "internalType": "string",
              "name": "_creator",
              "type": "string"
            },
            {
              "internalType": "address",
              "name": "_creatorAddr",
              "type": "address"
            },
            {
              "internalType": "uint256",
              "name": "_mintPrice",
              "type": "uint256"
            },
            {
              "internalType": "address",
              "name": "_mintPriceAddr",
              "type": "address"
            }
          ],
          "internalType": "struct NFTProject.ProjectMinting",
          "name": "project",
          "type": "tuple"
        },
        {
          "internalType": "address",
          "name": "admin",
          "type": "address"
        },
        {
          "internalType": "address",
          "name": "paramsAddr",
          "type": "address"
        },
        {
          "internalType": "address",
          "name": "randomizer",
          "type": "address"
        },
        {
          "internalType": "address[]",
          "name": "reserves",
          "type": "address[]"
        }
      ],
      "name": "init",
      "outputs": [],
      "stateMutability": "nonpayable",
      "type": "function"
    },
    {
      "inputs": [
        {
          "internalType": "address",
          "name": "owner",
          "type": "address"
        },
        {
          "internalType": "address",
          "name": "operator",
          "type": "address"
        }
      ],
      "name": "isApprovedForAll",
      "outputs": [
        {
          "internalType": "bool",
          "name": "",
          "type": "bool"
        }
      ],
      "stateMutability": "view",
      "type": "function"
    },
    {
      "inputs": [],
      "name": "mint",
      "outputs": [
        {
          "internalType": "uint256",
          "name": "tokenId",
          "type": "uint256"
        }
      ],
      "stateMutability": "nonpayable",
      "type": "function"
    },
    {
      "inputs": [],
      "name": "name",
      "outputs": [
        {
          "internalType": "string",
          "name": "",
          "type": "string"
        }
      ],
      "stateMutability": "view",
      "type": "function"
    },
    {
      "inputs": [],
      "name": "owner",
      "outputs": [
        {
          "internalType": "address",
          "name": "",
          "type": "address"
        }
      ],
      "stateMutability": "view",
      "type": "function"
    },
    {
      "inputs": [
        {
          "internalType": "uint256",
          "name": "tokenId",
          "type": "uint256"
        }
      ],
      "name": "ownerOf",
      "outputs": [
        {
          "internalType": "address",
          "name": "",
          "type": "address"
        }
      ],
      "stateMutability": "view",
      "type": "function"
    },
    {
      "inputs": [],
      "name": "pause",
      "outputs": [],
      "stateMutability": "nonpayable",
      "type": "function"
    },
    {
      "inputs": [],
      "name": "paused",
      "outputs": [
        {
          "internalType": "bool",
          "name": "",
          "type": "bool"
        }
      ],
      "stateMutability": "view",
      "type": "function"
    },
    {
      "inputs": [],
      "name": "renounceOwnership",
      "outputs": [],
      "stateMutability": "nonpayable",
      "type": "function"
    },
    {
      "inputs": [],
      "name": "reserveMint",
      "outputs": [
        {
          "internalType": "uint256",
          "name": "tokenId",
          "type": "uint256"
        }
      ],
      "stateMutability": "nonpayable",
      "type": "function"
    },
    {
      "inputs": [
        {
          "internalType": "uint256",
          "name": "",
          "type": "uint256"
        }
      ],
      "name": "royalties",
      "outputs": [
        {
          "internalType": "address",
          "name": "recipient",
          "type": "address"
        },
        {
          "internalType": "uint24",
          "name": "amount",
          "type": "uint24"
        },
        {
          "internalType": "bool",
          "name": "isValue",
          "type": "bool"
        }
      ],
      "stateMutability": "view",
      "type": "function"
    },
    {
      "inputs": [
        {
          "internalType": "uint256",
          "name": "_tokenId",
          "type": "uint256"
        },
        {
          "internalType": "uint256",
          "name": "_salePrice",
          "type": "uint256"
        }
      ],
      "name": "royaltyInfo",
      "outputs": [
        {
          "internalType": "address",
          "name": "receiver",
          "type": "address"
        },
        {
          "internalType": "uint256",
          "name": "royaltyAmount",
          "type": "uint256"
        }
      ],
      "stateMutability": "view",
      "type": "function"
    },
    {
      "inputs": [
        {
          "internalType": "address",
          "name": "from",
          "type": "address"
        },
        {
          "internalType": "address",
          "name": "to",
          "type": "address"
        },
        {
          "internalType": "uint256",
          "name": "tokenId",
          "type": "uint256"
        }
      ],
      "name": "safeTransferFrom",
      "outputs": [],
      "stateMutability": "nonpayable",
      "type": "function"
    },
    {
      "inputs": [
        {
          "internalType": "address",
          "name": "from",
          "type": "address"
        },
        {
          "internalType": "address",
          "name": "to",
          "type": "address"
        },
        {
          "internalType": "uint256",
          "name": "tokenId",
          "type": "uint256"
        },
        {
          "internalType": "bytes",
          "name": "data",
          "type": "bytes"
        }
      ],
      "name": "safeTransferFrom",
      "outputs": [],
      "stateMutability": "nonpayable",
      "type": "function"
    },
    {
      "inputs": [
        {
          "internalType": "address",
          "name": "operator",
          "type": "address"
        },
        {
          "internalType": "bool",
          "name": "approved",
          "type": "bool"
        }
      ],
      "name": "setApprovalForAll",
      "outputs": [],
      "stateMutability": "nonpayable",
      "type": "function"
    },
    {
      "inputs": [
        {
          "internalType": "uint256",
          "name": "_tokenId",
          "type": "uint256"
        },
        {
          "internalType": "address",
          "name": "_recipient",
          "type": "address"
        },
        {
          "internalType": "uint256",
          "name": "_value",
          "type": "uint256"
        }
      ],
      "name": "setTokenRoyalty",
      "outputs": [],
      "stateMutability": "nonpayable",
      "type": "function"
    },
    {
      "inputs": [
        {
          "internalType": "bytes4",
          "name": "interfaceId",
          "type": "bytes4"
        }
      ],
      "name": "supportsInterface",
      "outputs": [
        {
          "internalType": "bool",
          "name": "",
          "type": "bool"
        }
      ],
      "stateMutability": "view",
      "type": "function"
    },
    {
      "inputs": [],
      "name": "symbol",
      "outputs": [
        {
          "internalType": "string",
          "name": "",
          "type": "string"
        }
      ],
      "stateMutability": "view",
      "type": "function"
    },
    {
      "inputs": [
        {
          "internalType": "uint256",
          "name": "tokenId",
          "type": "uint256"
        }
      ],
      "name": "tokenGenerativeURI",
      "outputs": [
        {
          "internalType": "string",
          "name": "",
          "type": "string"
        }
      ],
      "stateMutability": "view",
      "type": "function"
    },
    {
      "inputs": [
        {
          "internalType": "uint256",
          "name": "_tokenId",
          "type": "uint256"
        }
      ],
      "name": "tokenIdToHash",
      "outputs": [
        {
          "internalType": "bytes32",
          "name": "",
          "type": "bytes32"
        }
      ],
      "stateMutability": "view",
      "type": "function"
    },
    {
      "inputs": [
        {
          "internalType": "uint256",
          "name": "tokenId",
          "type": "uint256"
        }
      ],
      "name": "tokenURI",
      "outputs": [
        {
          "internalType": "string",
          "name": "",
          "type": "string"
        }
      ],
      "stateMutability": "view",
      "type": "function"
    },
    {
      "inputs": [
        {
          "internalType": "address",
          "name": "from",
          "type": "address"
        },
        {
          "internalType": "address",
          "name": "to",
          "type": "address"
        },
        {
          "internalType": "uint256",
          "name": "tokenId",
          "type": "uint256"
        }
      ],
      "name": "transferFrom",
      "outputs": [],
      "stateMutability": "nonpayable",
      "type": "function"
    },
    {
      "inputs": [
        {
          "internalType": "address",
          "name": "newOwner",
          "type": "address"
        }
      ],
      "name": "transferOwnership",
      "outputs": [],
      "stateMutability": "nonpayable",
      "type": "function"
    },
    {
      "inputs": [],
      "name": "unpause",
      "outputs": [],
      "stateMutability": "nonpayable",
      "type": "function"
    }
  ],
  "bytecode": "0x60806040523480156200001157600080fd5b506040516200324338038062003243833981016040819052620000349162000252565b81818181816000908051906020019062000050929190620000df565b50805162000066906001906020840190620000df565b50506006805460ff1916905550600160075562000083336200008d565b50505050620002f9565b600880546001600160a01b038381166001600160a01b0319831681179093556040519116919082907f8be0079c531659141344cd1fd0a4f28419497f9722a3daafe3b4186f6b6457e090600090a35050565b828054620000ed90620002bc565b90600052602060002090601f0160209004810192826200011157600085556200015c565b82601f106200012c57805160ff19168380011785556200015c565b828001600101855582156200015c579182015b828111156200015c5782518255916020019190600101906200013f565b506200016a9291506200016e565b5090565b5b808211156200016a57600081556001016200016f565b634e487b7160e01b600052604160045260246000fd5b600082601f830112620001ad57600080fd5b81516001600160401b0380821115620001ca57620001ca62000185565b604051601f8301601f19908116603f01168101908282118183101715620001f557620001f562000185565b816040528381526020925086838588010111156200021257600080fd5b600091505b8382101562000236578582018301518183018401529082019062000217565b83821115620002485760008385830101525b9695505050505050565b600080604083850312156200026657600080fd5b82516001600160401b03808211156200027e57600080fd5b6200028c868387016200019b565b93506020850151915080821115620002a357600080fd5b50620002b2858286016200019b565b9150509250929050565b600181811c90821680620002d157607f821691505b60208210811415620002f357634e487b7160e01b600052602260045260246000fd5b50919050565b612f3a80620003096000396000f3fe608060405234801561001057600080fd5b50600436106101f05760003560e01c806370a082311161010f5780639713c807116100a2578063c87b56dd11610071578063c87b56dd14610497578063e985e9c5146104aa578063f2fde38b146104e6578063ffc27c0e146104f957600080fd5b80639713c8071461044b578063a22cb4651461045e578063adfc7dae14610471578063b88d4fde1461048457600080fd5b80638456cb59116100de5780638456cb59146104175780638da5cb5b1461041f5780638f2839701461043057806395d89b411461044357600080fd5b806370a0823114610370578063715018a614610383578063775bff9f1461038b5780637f77f574146103aa57600080fd5b806321c8d6761161018757806342842e0e1161015657806342842e0e146103165780635c975abb14610329578063621a1f74146103345780636352211e1461034757600080fd5b806321c8d676146102c157806323b872dd146102c95780632a55205a146102dc5780633f4ba83a1461030e57600080fd5b8063095ea7b3116101c3578063095ea7b31461027057806310da88c5146102855780631249c58b1461029857806321628c88146102ae57600080fd5b806301bc45c9146101f557806301ffc9a71461022557806306fdde0314610248578063081812fc1461025d575b600080fd5b600a54610208906001600160a01b031681565b6040516001600160a01b0390911681526020015b60405180910390f35b6102386102333660046125b3565b61050c565b604051901515815260200161021c565b61025061055e565b60405161021c919061262f565b61020861026b366004612642565b6105f0565b61028361027e366004612680565b610617565b005b610250610293366004612642565b610732565b6102a0610830565b60405190815260200161021c565b6102836102bc36600461283f565b610a24565b6102a0610c3d565b6102836102d73660046129a3565b610f07565b6102ef6102ea3660046129e4565b610f38565b604080516001600160a01b03909316835260208301919091520161021c565b610283610f50565b6102836103243660046129a3565b610fa1565b60065460ff16610238565b6102a0610342366004612642565b610fbc565b610208610355366004612642565b6000908152600960205260409020546001600160a01b031690565b6102a061037e366004612a06565b611042565b6102836110c8565b6103936110da565b60405161021c9b9a99989796959493929190612a23565b6103ec6103b8366004612642565b600d602052600090815260409020546001600160a01b03811690600160a01b810462ffffff1690600160b81b900460ff1683565b604080516001600160a01b03909416845262ffffff909216602084015215159082015260600161021c565b6102836111d3565b6008546001600160a01b0316610208565b61028361043e366004612a06565b611222565b61025061125b565b610283610459366004612aa4565b61126a565b61028361046c366004612ad9565b611337565b600b54610208906001600160a01b031681565b610283610492366004612b12565b611346565b6102506104a5366004612642565b61137e565b6102386104b8366004612b92565b6001600160a01b03918216600090815260056020908152604080832093909416825291909152205460ff1690565b6102836104f4366004612a06565b611433565b600c54610208906001600160a01b031681565b60006001600160e01b031982166380ac58cd60e01b148061053d57506001600160e01b03198216635b5e139f60e01b145b8061055857506301ffc9a760e01b6001600160e01b03198316145b92915050565b60606000805461056d90612bc0565b80601f016020809104026020016040519081016040528092919081815260200182805461059990612bc0565b80156105e65780601f106105bb576101008083540402835291602001916105e6565b820191906000526020600020905b8154815290600101906020018083116105c957829003601f168201915b5050505050905090565b60006105fb826114ac565b506000908152600460205260409020546001600160a01b031690565b60006106228261150b565b9050806001600160a01b0316836001600160a01b031614156106955760405162461bcd60e51b815260206004820152602160248201527f4552433732313a20617070726f76616c20746f2063757272656e74206f776e656044820152603960f91b60648201526084015b60405180910390fd5b336001600160a01b03821614806106b157506106b181336104b8565b6107235760405162461bcd60e51b815260206004820152603d60248201527f4552433732313a20617070726f76652063616c6c6572206973206e6f7420746f60448201527f6b656e206f776e6572206f7220617070726f76656420666f7220616c6c000000606482015260840161068c565b61072d838361156b565b505050565b600f5460405163188687dd60e21b8152600481018390526060916001600160a01b031690600090309063621a1f7490602401602060405180830381865afa158015610781573d6000803e3d6000fd5b505050506040513d601f19601f820116820180604052508101906107a59190612bfb565b601054604051639413930160e01b8152600481019190915260248101869052604481018290529091506001600160a01b038316906394139301906064015b600060405180830381865afa158015610800573d6000803e3d6000fd5b505050506040513d6000823e601f3d908101601f191682016040526108289190810190612c14565b949350505050565b60118054600091600160301b90910462ffffff1690600661085083612ca1565b82546101009290920a62ffffff818102199093169183160217909155601154630100000081048216600160301b9091049091161115905061089057600080fd5b60115462ffffff808216916108b691600160481b8204811691600160301b900416612cc4565b62ffffff16141561092757600e54601054604051631122f8a960e11b815260048101919091526001600160a01b03909116908190632245f15290602401600060405180830381600087803b15801561090d57600080fd5b505af1158015610921573d6000803e3d6000fd5b50505050505b601154601054600160301b90910462ffffff169061094890620f4240612ceb565b6109529190612d0a565b905061095e33826115d9565b600c54604051631da00d8560e01b8152600481018390526001600160a01b03909116906000908290631da00d85906024016020604051808303816000875af11580156109ae573d6000803e3d6000fd5b505050506040513d601f19601f820116820180604052508101906109d29190612bfb565b90506109de83826115f3565b6109e66116cd565b60408051338152602081018590527f0f6798a560793a54c3bcfe86a93cde1e73087d944c0ea20544137d4121396885910160405180910390a1505090565b600a546001600160a01b0316610a3957600080fd5b6001600160a01b038416610a795760405162461bcd60e51b815260206004820152600760248201526612539597d0511160ca1b604482015260640161068c565b8451600e80546001600160a01b039283166001600160a01b0319918216178255602080890151600f805491909516921691909117909255604087015160105560608701516011805460808a015160a08b015160c08c015162ffffff908116600160481b026bffffff00000000000000000019928216600160301b02929092166bffffffffffff0000000000001993821663010000000265ffffffffffff19909516919096161792909217169290921791909117905560e087015180518893610b4692601292910190612504565b506101008201516005820180546001600160a01b03199081166001600160a01b039384161790915561012084015160068401556101409093015160079092018054841692821692909217909155600b80548316868316179055600a80548316878316179055600c805490921690841617905560005b8151811015610c2057600060166000848481518110610bdc57610bdc612d22565b6020908102919091018101516001600160a01b03168252810191909152604001600020805460ff191691151591909117905580610c1881612d38565b915050610bbb565b50600a54610c36906001600160a01b0316611433565b5050505050565b60118054600091600160481b90910462ffffff16906009610c5d83612ca1565b82546101009290920a62ffffff8181021990931691831602179091556011548082169250610c9c9163010000008204811691600160481b900416612cc4565b62ffffff161115610cac57600080fd5b60115462ffffff80821691610cd291600160481b8204811691600160301b900416612cc4565b62ffffff161415610d4357600e54601054604051631122f8a960e11b815260048101919091526001600160a01b03909116908190632245f15290602401600060405180830381600087803b158015610d2957600080fd5b505af1158015610d3d573d6000803e3d6000fd5b50505050505b600e54336000908152601660205260409020546001600160a01b039091169060ff161580610dee57506010546040516331a9108f60e11b815260048101919091526001600160a01b03821690636352211e90602401602060405180830381865afa158015610db5573d6000803e3d6000fd5b505050506040513d601f19601f82011682018060405250810190610dd99190612d53565b6001600160a01b0316336001600160a01b0316145b610df757600080fd5b601154610e199062ffffff63010000008204811691600160481b900416612cc4565b62ffffff16600e60020154620f4240610e329190612ceb565b610e3c9190612d0a565b9150610e4833836115d9565b600c54604051631da00d8560e01b8152600481018490526001600160a01b03909116906000908290631da00d85906024016020604051808303816000875af1158015610e98573d6000803e3d6000fd5b505050506040513d601f19601f82011682018060405250810190610ebc9190612bfb565b9050610ec884826115f3565b60408051338152602081018690527f0f6798a560793a54c3bcfe86a93cde1e73087d944c0ea20544137d4121396885910160405180910390a150505090565b610f113382611b3e565b610f2d5760405162461bcd60e51b815260040161068c90612d70565b61072d838383611bbc565b600080610f458484611bf6565b915091509250929050565b600a5460408051808201909152600381526231303160e81b6020820152906001600160a01b03163314610f965760405162461bcd60e51b815260040161068c919061262f565b50610f9f611c92565b565b61072d83838360405180602001604052806000815250611346565b600081815260096020526040812054600160a01b900460a01b6001600160a01b031916610feb57506000919050565b60008281526009602090815260409182902054915161102592600160a01b900460a01b91016001600160a01b031991909116815260200190565b604051602081830303815290604052805190602001209050919050565b60006001600160a01b0382166110ac5760405162461bcd60e51b815260206004820152602960248201527f4552433732313a2061646472657373207a65726f206973206e6f7420612076616044820152683634b21037bbb732b960b91b606482015260840161068c565b506001600160a01b031660009081526003602052604090205490565b6110d0611ce4565b610f9f6000611d3e565b600e8054600f54601054601154601280546001600160a01b03958616969490951694929362ffffff8084169463010000008504821694600160301b8104831694600160481b90910490921692919061113190612bc0565b80601f016020809104026020016040519081016040528092919081815260200182805461115d90612bc0565b80156111aa5780601f1061117f576101008083540402835291602001916111aa565b820191906000526020600020905b81548152906001019060200180831161118d57829003601f168201915b505050506005830154600684015460079094015492936001600160a01b0391821693909250168b565b600a5460408051808201909152600381526231303160e81b6020820152906001600160a01b031633146112195760405162461bcd60e51b815260040161068c919061262f565b50610f9f611d90565b600a546001600160a01b0316331461123957600080fd5b600a80546001600160a01b0319166001600160a01b0392909216919091179055565b60606001805461056d90612bc0565b600a546001600160a01b0316331461128157600080fd5b6127108111156112be5760405162461bcd60e51b81526020600482015260086024820152670a89e9ebe90928e960c31b604482015260640161068c565b604080516060810182526001600160a01b03938416815262ffffff928316602080830191825260018385019081526000978852600d90915292909520905181549551925194166001600160b81b031990951694909417600160a01b91909216021760ff60b81b1916600160b81b91151591909102179055565b611342338383611dcd565b5050565b6113503383611b3e565b61136c5760405162461bcd60e51b815260040161068c90612d70565b61137884848484611e9c565b50505050565b600f5460405163188687dd60e21b8152600481018390526060916001600160a01b031690600090309063621a1f7490602401602060405180830381865afa1580156113cd573d6000803e3d6000fd5b505050506040513d601f19601f820116820180604052508101906113f19190612bfb565b6010546040516308dd54e960e31b8152600481019190915260248101869052604481018290529091506001600160a01b038316906346eaa748906064016107e3565b61143b611ce4565b6001600160a01b0381166114a05760405162461bcd60e51b815260206004820152602660248201527f4f776e61626c653a206e6577206f776e657220697320746865207a65726f206160448201526564647265737360d01b606482015260840161068c565b6114a981611d3e565b50565b6000818152600960205260409020546001600160a01b03166114a95760405162461bcd60e51b8152602060048201526018602482015277115490cdcc8c4e881a5b9d985b1a59081d1bdad95b88125160421b604482015260640161068c565b6000818152600260205260408120546001600160a01b0316806105585760405162461bcd60e51b8152602060048201526018602482015277115490cdcc8c4e881a5b9d985b1a59081d1bdad95b88125160421b604482015260640161068c565b600081815260046020526040902080546001600160a01b0319166001600160a01b03841690811790915581906115a08261150b565b6001600160a01b03167f8c5be1e5ebec7d5bd14f71427d1e84f3dd0314c0f7b2291e5b200ac8c7c3b92560405160405180910390a45050565b611342828260405180602001604052806000815250611ecf565b600082815260096020526040902054600160a01b900460a01b6001600160a01b0319161561165c5760405162461bcd60e51b8152602060048201526016602482015275151bdad95b881a185cda08185b1c9958591e481cd95d60521b604482015260640161068c565b8061169d5760405162461bcd60e51b8152602060048201526011602482015270139bc81e995c9bc81a185cda081cd95959607a1b604482015260640161068c565b600091825260096020526040909120805460a09290921c600160a01b026001600160a01b03909216919091179055565b601454806116d85750565b600e54600b546000916001600160a01b0390811691166101f4811561178857604051636d12dce160e01b81526020600482015260156024820152744d494e545f4e46545f4f50455241544f525f46454560581b60448201526001600160a01b03831690636d12dce190606401602060405180830381865afa158015611761573d6000803e3d6000fd5b505050506040513d601f19601f820116820180604052508101906117859190612bfb565b90505b6001600160a01b0384166118ff57843410156117a357600080fd5b6010546040516331a9108f60e11b81526000916001600160a01b03861691636352211e916117d79160040190815260200190565b602060405180830381865afa1580156117f4573d6000803e3d6000fd5b505050506040513d601f19601f820116820180604052508101906118189190612d53565b6001600160a01b031661271061182e8489612ceb565b6118389190612dbd565b6118429088612ddf565b604051600081818185875af1925050503d806000811461187e576040519150601f19603f3d011682016040523d82523d6000602084013e611883565b606091505b505090508061189157600080fd5b600a546001600160a01b03166127106118aa8489612ceb565b6118b49190612dbd565b604051600081818185875af1925050503d80600081146118f0576040519150601f19603f3d011682016040523d82523d6000602084013e6118f5565b606091505b50610c3692505050565b6040516323b872dd60e01b81523360048201523060248201526044810186905284906001600160a01b038216906323b872dd906064016020604051808303816000875af1158015611954573d6000803e3d6000fd5b505050506040513d601f19601f820116820180604052508101906119789190612df6565b61198157600080fd5b6010546040516331a9108f60e11b815260048101919091526001600160a01b038281169163a9059cbb91871690636352211e90602401602060405180830381865afa1580156119d4573d6000803e3d6000fd5b505050506040513d601f19601f820116820180604052508101906119f89190612d53565b612710611a05868b612ceb565b611a0f9190612dbd565b611a19908a612ddf565b6040516001600160e01b031960e085901b1681526001600160a01b03909216600483015260248201526044016020604051808303816000875af1158015611a64573d6000803e3d6000fd5b505050506040513d601f19601f82011682018060405250810190611a889190612df6565b611a9157600080fd5b600a546001600160a01b038083169163a9059cbb9116612710611ab4868b612ceb565b611abe9190612dbd565b6040516001600160e01b031960e085901b1681526001600160a01b03909216600483015260248201526044016020604051808303816000875af1158015611b09573d6000803e3d6000fd5b505050506040513d601f19601f82011682018060405250810190611b2d9190612df6565b611b3657600080fd5b505050505050565b600080611b4a8361150b565b9050806001600160a01b0316846001600160a01b03161480611b9157506001600160a01b0380821660009081526005602090815260408083209388168352929052205460ff165b806108285750836001600160a01b0316611baa846105f0565b6001600160a01b031614949350505050565b611bc7838383611f02565b600090815260096020526040902080546001600160a01b0319166001600160a01b039290921691909117905550565b6000828152600d60209081526040808320815160608101835290546001600160a01b0381168252600160a01b810462ffffff1693820193909352600160b81b90920460ff1615801591830191909152829190611c7a578051602082015190935061271090611c699062ffffff1686612ceb565b611c739190612dbd565b9150611c8a565b611c848585612073565b90935091505b509250929050565b611c9a6120ab565b6006805460ff191690557f5db9ee0a495bf2e6ff9c91a7834c1ba4fdd244a5e8aa4e537bd38aeae4b073aa335b6040516001600160a01b03909116815260200160405180910390a1565b6008546001600160a01b03163314610f9f5760405162461bcd60e51b815260206004820181905260248201527f4f776e61626c653a2063616c6c6572206973206e6f7420746865206f776e6572604482015260640161068c565b600880546001600160a01b038381166001600160a01b0319831681179093556040519116919082907f8be0079c531659141344cd1fd0a4f28419497f9722a3daafe3b4186f6b6457e090600090a35050565b611d986120f4565b6006805460ff191660011790557f62e78cea01bee320cd4e420270b5ea74000d11b0c9f74754ebdbfc544b05a258611cc73390565b816001600160a01b0316836001600160a01b03161415611e2f5760405162461bcd60e51b815260206004820152601960248201527f4552433732313a20617070726f766520746f2063616c6c657200000000000000604482015260640161068c565b6001600160a01b03838116600081815260056020908152604080832094871680845294825291829020805460ff191686151590811790915591519182527f17307eab39ab6107e8899845ad3d59bd9653f200f220920489ca2b5937696c31910160405180910390a3505050565b611ea7848484611bbc565b611eb38484848461213a565b6113785760405162461bcd60e51b815260040161068c90612e13565b611ed98383612238565b611ee6600084848461213a565b61072d5760405162461bcd60e51b815260040161068c90612e13565b826001600160a01b0316611f158261150b565b6001600160a01b031614611f3b5760405162461bcd60e51b815260040161068c90612e65565b6001600160a01b038216611f9d5760405162461bcd60e51b8152602060048201526024808201527f4552433732313a207472616e7366657220746f20746865207a65726f206164646044820152637265737360e01b606482015260840161068c565b611faa8383836001612270565b826001600160a01b0316611fbd8261150b565b6001600160a01b031614611fe35760405162461bcd60e51b815260040161068c90612e65565b600081815260046020908152604080832080546001600160a01b03199081169091556001600160a01b0387811680865260038552838620805460001901905590871680865283862080546001019055868652600290945282852080549092168417909155905184937fddf252ad1be2c89b69c2b068fc378daa952ba7f163c4a11628f55a4df523b3ef91a4505050565b600a5460009081906001600160a01b031681612710612094866101f4612ceb565b61209e9190612dbd565b9196919550909350505050565b60065460ff16610f9f5760405162461bcd60e51b815260206004820152601460248201527314185d5cd8589b194e881b9bdd081c185d5cd95960621b604482015260640161068c565b60065460ff1615610f9f5760405162461bcd60e51b815260206004820152601060248201526f14185d5cd8589b194e881c185d5cd95960821b604482015260640161068c565b60006001600160a01b0384163b1561222d57604051630a85bd0160e11b81526001600160a01b0385169063150b7a029061217e903390899088908890600401612eaa565b6020604051808303816000875af19250505080156121b9575060408051601f3d908101601f191682019092526121b691810190612ee7565b60015b612213573d8080156121e7576040519150601f19603f3d011682016040523d82523d6000602084013e6121ec565b606091505b50805161220b5760405162461bcd60e51b815260040161068c90612e13565b805181602001fd5b6001600160e01b031916630a85bd0160e11b149050610828565b506001949350505050565b61224282826122e3565b600090815260096020526040902080546001600160a01b0319166001600160a01b0392909216919091179055565b61227c8484848461247c565b60065460ff16156113785760405162461bcd60e51b815260206004820152602b60248201527f4552433732315061757361626c653a20746f6b656e207472616e73666572207760448201526a1a1a5b19481c185d5cd95960aa1b606482015260840161068c565b6001600160a01b0382166123395760405162461bcd60e51b815260206004820181905260248201527f4552433732313a206d696e7420746f20746865207a65726f2061646472657373604482015260640161068c565b6000818152600960205260409020546001600160a01b03161561239e5760405162461bcd60e51b815260206004820152601c60248201527f4552433732313a20746f6b656e20616c7265616479206d696e74656400000000604482015260640161068c565b6123ac600083836001612270565b6000818152600960205260409020546001600160a01b0316156124115760405162461bcd60e51b815260206004820152601c60248201527f4552433732313a20746f6b656e20616c7265616479206d696e74656400000000604482015260640161068c565b6001600160a01b038216600081815260036020908152604080832080546001019055848352600290915280822080546001600160a01b0319168417905551839291907fddf252ad1be2c89b69c2b068fc378daa952ba7f163c4a11628f55a4df523b3ef908290a45050565b6001811115611378576001600160a01b038416156124c2576001600160a01b038416600090815260036020526040812080548392906124bc908490612ddf565b90915550505b6001600160a01b03831615611378576001600160a01b038316600090815260036020526040812080548392906124f9908490612d0a565b909155505050505050565b82805461251090612bc0565b90600052602060002090601f0160209004810192826125325760008555612578565b82601f1061254b57805160ff1916838001178555612578565b82800160010185558215612578579182015b8281111561257857825182559160200191906001019061255d565b50612584929150612588565b5090565b5b808211156125845760008155600101612589565b6001600160e01b0319811681146114a957600080fd5b6000602082840312156125c557600080fd5b81356125d08161259d565b9392505050565b60005b838110156125f25781810151838201526020016125da565b838111156113785750506000910152565b6000815180845261261b8160208601602086016125d7565b601f01601f19169290920160200192915050565b6020815260006125d06020830184612603565b60006020828403121561265457600080fd5b5035919050565b6001600160a01b03811681146114a957600080fd5b803561267b8161265b565b919050565b6000806040838503121561269357600080fd5b823561269e8161265b565b946020939093013593505050565b634e487b7160e01b600052604160045260246000fd5b604051610160810167ffffffffffffffff811182821017156126e6576126e66126ac565b60405290565b604051601f8201601f1916810167ffffffffffffffff81118282101715612715576127156126ac565b604052919050565b803562ffffff8116811461267b57600080fd5b600067ffffffffffffffff82111561274a5761274a6126ac565b50601f01601f191660200190565b600061276b61276684612730565b6126ec565b905082815283838301111561277f57600080fd5b828260208301376000602084830101529392505050565b600082601f8301126127a757600080fd5b6125d083833560208501612758565b600082601f8301126127c757600080fd5b8135602067ffffffffffffffff8211156127e3576127e36126ac565b8160051b6127f28282016126ec565b928352848101820192828101908785111561280c57600080fd5b83870192505b848310156128345782356128258161265b565b82529183019190830190612812565b979650505050505050565b600080600080600060a0868803121561285757600080fd5b853567ffffffffffffffff8082111561286f57600080fd5b90870190610160828a03121561288457600080fd5b61288c6126c2565b61289583612670565b81526128a360208401612670565b6020820152604083013560408201526128be6060840161271d565b60608201526128cf6080840161271d565b60808201526128e060a0840161271d565b60a08201526128f160c0840161271d565b60c082015260e08301358281111561290857600080fd5b6129148b828601612796565b60e083015250610100612928818501612670565b908201526101208381013590820152610140612945818501612670565b90820152965061295760208901612670565b955061296560408901612670565b945061297360608901612670565b9350608088013591508082111561298957600080fd5b50612996888289016127b6565b9150509295509295909350565b6000806000606084860312156129b857600080fd5b83356129c38161265b565b925060208401356129d38161265b565b929592945050506040919091013590565b600080604083850312156129f757600080fd5b50508035926020909101359150565b600060208284031215612a1857600080fd5b81356125d08161265b565b6001600160a01b038c811682528b81166020830152604082018b905262ffffff8a81166060840152898116608084015288811660a0840152871660c083015261016060e08301819052600091612a7b84830189612603565b968116610100850152610120840195909552505091166101409091015298975050505050505050565b600080600060608486031215612ab957600080fd5b8335925060208401356129d38161265b565b80151581146114a957600080fd5b60008060408385031215612aec57600080fd5b8235612af78161265b565b91506020830135612b0781612acb565b809150509250929050565b60008060008060808587031215612b2857600080fd5b8435612b338161265b565b93506020850135612b438161265b565b925060408501359150606085013567ffffffffffffffff811115612b6657600080fd5b8501601f81018713612b7757600080fd5b612b8687823560208401612758565b91505092959194509250565b60008060408385031215612ba557600080fd5b8235612bb08161265b565b91506020830135612b078161265b565b600181811c90821680612bd457607f821691505b60208210811415612bf557634e487b7160e01b600052602260045260246000fd5b50919050565b600060208284031215612c0d57600080fd5b5051919050565b600060208284031215612c2657600080fd5b815167ffffffffffffffff811115612c3d57600080fd5b8201601f81018413612c4e57600080fd5b8051612c5c61276682612730565b818152856020838501011115612c7157600080fd5b612c828260208301602086016125d7565b95945050505050565b634e487b7160e01b600052601160045260246000fd5b600062ffffff80831681811415612cba57612cba612c8b565b6001019392505050565b600062ffffff808316818516808303821115612ce257612ce2612c8b565b01949350505050565b6000816000190483118215151615612d0557612d05612c8b565b500290565b60008219821115612d1d57612d1d612c8b565b500190565b634e487b7160e01b600052603260045260246000fd5b6000600019821415612d4c57612d4c612c8b565b5060010190565b600060208284031215612d6557600080fd5b81516125d08161265b565b6020808252602d908201527f4552433732313a2063616c6c6572206973206e6f7420746f6b656e206f776e6560408201526c1c881bdc88185c1c1c9bdd9959609a1b606082015260800190565b600082612dda57634e487b7160e01b600052601260045260246000fd5b500490565b600082821015612df157612df1612c8b565b500390565b600060208284031215612e0857600080fd5b81516125d081612acb565b60208082526032908201527f4552433732313a207472616e7366657220746f206e6f6e20455243373231526560408201527131b2b4bb32b91034b6b83632b6b2b73a32b960711b606082015260800190565b60208082526025908201527f4552433732313a207472616e736665722066726f6d20696e636f72726563742060408201526437bbb732b960d91b606082015260800190565b6001600160a01b0385811682528416602082015260408101839052608060608201819052600090612edd90830184612603565b9695505050505050565b600060208284031215612ef957600080fd5b81516125d08161259d56fea2646970667358221220035999a74567216727d320cf157719dd3bcdd5a1ab6e6abc0917173b4c48341364736f6c634300080c0033",
  "linkReferences": {},
  "deployedLinkReferences": {}
}