{
  "_format": "hh-sol-artifact-1",
  "contractName": "GenerativeNFT",
  "sourceName": "contracts/nfts/GenerativeNFT.sol",
  "abi": [
    {
      "inputs": [
        {
          "internalType": "string",
          "name": "name",
          "type": "string"
        },
        {
          "internalType": "string",
          "name": "symbol",
          "type": "string"
        }
      ],
      "stateMutability": "nonpayable",
      "type": "constructor"
    },
    {
      "inputs": [
        {
          "internalType": "address",
          "name": "operator",
          "type": "address"
        }
      ],
      "name": "OperatorNotAllowed",
      "type": "error"
    },
    {
      "anonymous": false,
      "inputs": [
        {
          "indexed": true,
          "internalType": "address",
          "name": "owner",
          "type": "address"
        },
        {
          "indexed": true,
          "internalType": "address",
          "name": "approved",
          "type": "address"
        },
        {
          "indexed": true,
          "internalType": "uint256",
          "name": "tokenId",
          "type": "uint256"
        }
      ],
      "name": "Approval",
      "type": "event"
    },
    {
      "anonymous": false,
      "inputs": [
        {
          "indexed": true,
          "internalType": "address",
          "name": "owner",
          "type": "address"
        },
        {
          "indexed": true,
          "internalType": "address",
          "name": "operator",
          "type": "address"
        },
        {
          "indexed": false,
          "internalType": "bool",
          "name": "approved",
          "type": "bool"
        }
      ],
      "name": "ApprovalForAll",
      "type": "event"
    },
    {
      "anonymous": false,
      "inputs": [
        {
          "indexed": true,
          "internalType": "address",
          "name": "previousOwner",
          "type": "address"
        },
        {
          "indexed": true,
          "internalType": "address",
          "name": "newOwner",
          "type": "address"
        }
      ],
      "name": "OwnershipTransferred",
      "type": "event"
    },
    {
      "anonymous": false,
      "inputs": [
        {
          "indexed": false,
          "internalType": "address",
          "name": "account",
          "type": "address"
        }
      ],
      "name": "Paused",
      "type": "event"
    },
    {
      "anonymous": false,
      "inputs": [
        {
          "indexed": true,
          "internalType": "address",
          "name": "from",
          "type": "address"
        },
        {
          "indexed": true,
          "internalType": "address",
          "name": "to",
          "type": "address"
        },
        {
          "indexed": true,
          "internalType": "uint256",
          "name": "tokenId",
          "type": "uint256"
        }
      ],
      "name": "Transfer",
      "type": "event"
    },
    {
      "anonymous": false,
      "inputs": [
        {
          "indexed": false,
          "internalType": "address",
          "name": "account",
          "type": "address"
        }
      ],
      "name": "Unpaused",
      "type": "event"
    },
    {
      "inputs": [],
      "name": "OPERATOR_FILTER_REGISTRY",
      "outputs": [
        {
          "internalType": "contract IOperatorFilterRegistry",
          "name": "",
          "type": "address"
        }
      ],
      "stateMutability": "view",
      "type": "function"
    },
    {
      "inputs": [],
      "name": "_admin",
      "outputs": [
        {
          "internalType": "address",
          "name": "",
          "type": "address"
        }
      ],
      "stateMutability": "view",
      "type": "function"
    },
    {
      "inputs": [],
      "name": "_nameCol",
      "outputs": [
        {
          "internalType": "string",
          "name": "",
          "type": "string"
        }
      ],
      "stateMutability": "view",
      "type": "function"
    },
    {
      "inputs": [],
      "name": "_paramsAddress",
      "outputs": [
        {
          "internalType": "address",
          "name": "",
          "type": "address"
        }
      ],
      "stateMutability": "view",
      "type": "function"
    },
    {
      "inputs": [],
      "name": "_project",
      "outputs": [
        {
          "internalType": "address",
          "name": "_projectAddr",
          "type": "address"
        },
        {
          "internalType": "uint256",
          "name": "_projectId",
          "type": "uint256"
        },
        {
          "internalType": "uint24",
          "name": "_maxSupply",
          "type": "uint24"
        },
        {
          "internalType": "uint24",
          "name": "_limit",
          "type": "uint24"
        },
        {
          "internalType": "uint24",
          "name": "_index",
          "type": "uint24"
        },
        {
          "internalType": "uint24",
          "name": "_indexReserve",
          "type": "uint24"
        },
        {
          "internalType": "string",
          "name": "_creator",
          "type": "string"
        },
        {
          "internalType": "uint256",
          "name": "_mintPrice",
          "type": "uint256"
        },
        {
          "internalType": "address",
          "name": "_mintPriceAddr",
          "type": "address"
        },
        {
          "internalType": "string",
          "name": "_name",
          "type": "string"
        },
        {
          "components": [
            {
              "internalType": "uint256",
              "name": "_initBlockTime",
              "type": "uint256"
            },
            {
              "internalType": "uint256",
              "name": "_openingTime",
              "type": "uint256"
            }
          ],
          "internalType": "struct NFTProject.ProjectMintingSchedule",
          "name": "_mintingSchedule",
          "type": "tuple"
        },
        {
          "internalType": "uint256",
          "name": "_royalty",
          "type": "uint256"
        }
      ],
      "stateMutability": "view",
      "type": "function"
    },
    {
      "inputs": [],
      "name": "_projectDataContextAddr",
      "outputs": [
        {
          "internalType": "address",
          "name": "",
          "type": "address"
        }
      ],
      "stateMutability": "view",
      "type": "function"
    },
    {
      "inputs": [],
      "name": "_randomizer",
      "outputs": [
        {
          "internalType": "address",
          "name": "",
          "type": "address"
        }
      ],
      "stateMutability": "view",
      "type": "function"
    },
    {
      "inputs": [],
      "name": "_royalty",
      "outputs": [
        {
          "internalType": "uint256",
          "name": "",
          "type": "uint256"
        }
      ],
      "stateMutability": "view",
      "type": "function"
    },
    {
      "inputs": [
        {
          "internalType": "address",
          "name": "to",
          "type": "address"
        },
        {
          "internalType": "uint256",
          "name": "tokenId",
          "type": "uint256"
        }
      ],
      "name": "approve",
      "outputs": [],
      "stateMutability": "nonpayable",
      "type": "function"
    },
    {
      "inputs": [
        {
          "internalType": "address",
          "name": "owner",
          "type": "address"
        }
      ],
      "name": "balanceOf",
      "outputs": [
        {
          "internalType": "uint256",
          "name": "",
          "type": "uint256"
        }
      ],
      "stateMutability": "view",
      "type": "function"
    },
    {
      "inputs": [
        {
          "internalType": "address",
          "name": "newAdm",
          "type": "address"
        }
      ],
      "name": "changeAdmin",
      "outputs": [],
      "stateMutability": "nonpayable",
      "type": "function"
    },
    {
      "inputs": [
        {
          "internalType": "address",
          "name": "newAddr",
          "type": "address"
        }
      ],
      "name": "changeDataContextAddr",
      "outputs": [],
      "stateMutability": "nonpayable",
      "type": "function"
    },
    {
      "inputs": [
        {
          "internalType": "address",
          "name": "newAddr",
          "type": "address"
        }
      ],
      "name": "changeParamAddr",
      "outputs": [],
      "stateMutability": "nonpayable",
      "type": "function"
    },
    {
      "inputs": [
        {
          "internalType": "address",
          "name": "newAddr",
          "type": "address"
        }
      ],
      "name": "changeRandomizerAddr",
      "outputs": [],
      "stateMutability": "nonpayable",
      "type": "function"
    },
    {
      "inputs": [
        {
          "internalType": "uint256",
          "name": "tokenId",
          "type": "uint256"
        }
      ],
      "name": "getApproved",
      "outputs": [
        {
          "internalType": "address",
          "name": "",
          "type": "address"
        }
      ],
      "stateMutability": "view",
      "type": "function"
    },
    {
      "inputs": [],
      "name": "getStatus",
      "outputs": [
        {
          "internalType": "bool",
          "name": "",
          "type": "bool"
        }
      ],
      "stateMutability": "view",
      "type": "function"
    },
    {
      "inputs": [
        {
          "components": [
            {
              "internalType": "address",
              "name": "_projectAddr",
              "type": "address"
            },
            {
              "internalType": "uint256",
              "name": "_projectId",
              "type": "uint256"
            },
            {
              "internalType": "uint24",
              "name": "_maxSupply",
              "type": "uint24"
            },
            {
              "internalType": "uint24",
              "name": "_limit",
              "type": "uint24"
            },
            {
              "internalType": "uint24",
              "name": "_index",
              "type": "uint24"
            },
            {
              "internalType": "uint24",
              "name": "_indexReserve",
              "type": "uint24"
            },
            {
              "internalType": "string",
              "name": "_creator",
              "type": "string"
            },
            {
              "internalType": "uint256",
              "name": "_mintPrice",
              "type": "uint256"
            },
            {
              "internalType": "address",
              "name": "_mintPriceAddr",
              "type": "address"
            },
            {
              "internalType": "string",
              "name": "_name",
              "type": "string"
            },
            {
              "components": [
                {
                  "internalType": "uint256",
                  "name": "_initBlockTime",
                  "type": "uint256"
                },
                {
                  "internalType": "uint256",
                  "name": "_openingTime",
                  "type": "uint256"
                }
              ],
              "internalType": "struct NFTProject.ProjectMintingSchedule",
              "name": "_mintingSchedule",
              "type": "tuple"
            },
            {
              "internalType": "address[]",
              "name": "_reserves",
              "type": "address[]"
            },
            {
              "internalType": "uint256",
              "name": "_royalty",
              "type": "uint256"
            }
          ],
          "internalType": "struct NFTProject.ProjectMinting",
          "name": "project",
          "type": "tuple"
        },
        {
          "internalType": "address",
          "name": "admin",
          "type": "address"
        },
        {
          "internalType": "address",
          "name": "paramsAddr",
          "type": "address"
        },
        {
          "internalType": "address",
          "name": "randomizer",
          "type": "address"
        },
        {
          "internalType": "address",
          "name": "projectDataContextAddr",
          "type": "address"
        },
        {
          "internalType": "bool",
          "name": "disable",
          "type": "bool"
        }
      ],
      "name": "init",
      "outputs": [],
      "stateMutability": "nonpayable",
      "type": "function"
    },
    {
      "inputs": [
        {
          "internalType": "address",
          "name": "owner",
          "type": "address"
        },
        {
          "internalType": "address",
          "name": "operator",
          "type": "address"
        }
      ],
      "name": "isApprovedForAll",
      "outputs": [
        {
          "internalType": "bool",
          "name": "",
          "type": "bool"
        }
      ],
      "stateMutability": "view",
      "type": "function"
    },
    {
      "inputs": [],
      "name": "mint",
      "outputs": [
        {
          "internalType": "uint256",
          "name": "tokenId",
          "type": "uint256"
        }
      ],
      "stateMutability": "payable",
      "type": "function"
    },
    {
      "inputs": [],
      "name": "name",
      "outputs": [
        {
          "internalType": "string",
          "name": "",
          "type": "string"
        }
      ],
      "stateMutability": "view",
      "type": "function"
    },
    {
      "inputs": [],
      "name": "owner",
      "outputs": [
        {
          "internalType": "address",
          "name": "",
          "type": "address"
        }
      ],
      "stateMutability": "view",
      "type": "function"
    },
    {
      "inputs": [
        {
          "internalType": "uint256",
          "name": "tokenId",
          "type": "uint256"
        }
      ],
      "name": "ownerOf",
      "outputs": [
        {
          "internalType": "address",
          "name": "",
          "type": "address"
        }
      ],
      "stateMutability": "view",
      "type": "function"
    },
    {
      "inputs": [],
      "name": "paused",
      "outputs": [
        {
          "internalType": "bool",
          "name": "",
          "type": "bool"
        }
      ],
      "stateMutability": "view",
      "type": "function"
    },
    {
      "inputs": [],
      "name": "renounceOwnership",
      "outputs": [],
      "stateMutability": "nonpayable",
      "type": "function"
    },
    {
      "inputs": [],
      "name": "reserveMint",
      "outputs": [
        {
          "internalType": "uint256",
          "name": "tokenId",
          "type": "uint256"
        }
      ],
      "stateMutability": "payable",
      "type": "function"
    },
    {
      "inputs": [
        {
          "internalType": "uint256",
          "name": "_tokenId",
          "type": "uint256"
        },
        {
          "internalType": "uint256",
          "name": "_salePrice",
          "type": "uint256"
        }
      ],
      "name": "royaltyInfo",
      "outputs": [
        {
          "internalType": "address",
          "name": "receiver",
          "type": "address"
        },
        {
          "internalType": "uint256",
          "name": "royaltyAmount",
          "type": "uint256"
        }
      ],
      "stateMutability": "view",
      "type": "function"
    },
    {
      "inputs": [
        {
          "internalType": "address",
          "name": "from",
          "type": "address"
        },
        {
          "internalType": "address",
          "name": "to",
          "type": "address"
        },
        {
          "internalType": "uint256",
          "name": "tokenId",
          "type": "uint256"
        }
      ],
      "name": "safeTransferFrom",
      "outputs": [],
      "stateMutability": "nonpayable",
      "type": "function"
    },
    {
      "inputs": [
        {
          "internalType": "address",
          "name": "from",
          "type": "address"
        },
        {
          "internalType": "address",
          "name": "to",
          "type": "address"
        },
        {
          "internalType": "uint256",
          "name": "tokenId",
          "type": "uint256"
        },
        {
          "internalType": "bytes",
          "name": "data",
          "type": "bytes"
        }
      ],
      "name": "safeTransferFrom",
      "outputs": [],
      "stateMutability": "nonpayable",
      "type": "function"
    },
    {
      "inputs": [
        {
          "internalType": "address",
          "name": "operator",
          "type": "address"
        },
        {
          "internalType": "bool",
          "name": "approved",
          "type": "bool"
        }
      ],
      "name": "setApprovalForAll",
      "outputs": [],
      "stateMutability": "nonpayable",
      "type": "function"
    },
    {
      "inputs": [
        {
          "internalType": "bool",
          "name": "enable",
          "type": "bool"
        }
      ],
      "name": "setStatus",
      "outputs": [],
      "stateMutability": "nonpayable",
      "type": "function"
    },
    {
      "inputs": [
        {
          "internalType": "bytes4",
          "name": "interfaceId",
          "type": "bytes4"
        }
      ],
      "name": "supportsInterface",
      "outputs": [
        {
          "internalType": "bool",
          "name": "",
          "type": "bool"
        }
      ],
      "stateMutability": "view",
      "type": "function"
    },
    {
      "inputs": [],
      "name": "symbol",
      "outputs": [
        {
          "internalType": "string",
          "name": "",
          "type": "string"
        }
      ],
      "stateMutability": "view",
      "type": "function"
    },
    {
      "inputs": [
        {
          "internalType": "uint256",
          "name": "tokenId",
          "type": "uint256"
        }
      ],
      "name": "tokenGenerativeURI",
      "outputs": [
        {
          "internalType": "string",
          "name": "",
          "type": "string"
        }
      ],
      "stateMutability": "view",
      "type": "function"
    },
    {
      "inputs": [
        {
          "internalType": "uint256",
          "name": "tokenId",
          "type": "uint256"
        }
      ],
      "name": "tokenURI",
      "outputs": [
        {
          "internalType": "string",
          "name": "",
          "type": "string"
        }
      ],
      "stateMutability": "view",
      "type": "function"
    },
    {
      "inputs": [
        {
          "internalType": "address",
          "name": "from",
          "type": "address"
        },
        {
          "internalType": "address",
          "name": "to",
          "type": "address"
        },
        {
          "internalType": "uint256",
          "name": "tokenId",
          "type": "uint256"
        }
      ],
      "name": "transferFrom",
      "outputs": [],
      "stateMutability": "nonpayable",
      "type": "function"
    },
    {
      "inputs": [
        {
          "internalType": "address",
          "name": "newOwner",
          "type": "address"
        }
      ],
      "name": "transferOwnership",
      "outputs": [],
      "stateMutability": "nonpayable",
      "type": "function"
    },
    {
      "inputs": [
        {
          "internalType": "uint256",
          "name": "price",
          "type": "uint256"
        }
      ],
      "name": "updatePrice",
      "outputs": [],
      "stateMutability": "nonpayable",
      "type": "function"
    }
  ],
  "bytecode": "0x60806040523480156200001157600080fd5b5060405162004036380380620040368339810160408190526200003491620003b0565b733cc6cdda760b79bafa08df41ecfa224f810dceb66001838381818160009080519060200190620000679291906200023d565b5080516200007d9060019060208401906200023d565b50506006805460ff191690555060016007556200009a33620001eb565b50506daaeb6d7670e522a718067333cd4e3b15620001e15780156200012f57604051633e9f1edf60e11b81523060048201526001600160a01b03831660248201526daaeb6d7670e522a718067333cd4e90637d3e3dbe906044015b600060405180830381600087803b1580156200011057600080fd5b505af115801562000125573d6000803e3d6000fd5b50505050620001e1565b6001600160a01b03821615620001805760405163a0af290360e01b81523060048201526001600160a01b03831660248201526daaeb6d7670e522a718067333cd4e9063a0af290390604401620000f5565b604051632210724360e11b81523060048201526daaeb6d7670e522a718067333cd4e90634420e48690602401600060405180830381600087803b158015620001c757600080fd5b505af1158015620001dc573d6000803e3d6000fd5b505050505b5050505062000457565b600880546001600160a01b038381166001600160a01b0319831681179093556040519116919082907f8be0079c531659141344cd1fd0a4f28419497f9722a3daafe3b4186f6b6457e090600090a35050565b8280546200024b906200041a565b90600052602060002090601f0160209004810192826200026f5760008555620002ba565b82601f106200028a57805160ff1916838001178555620002ba565b82800160010185558215620002ba579182015b82811115620002ba5782518255916020019190600101906200029d565b50620002c8929150620002cc565b5090565b5b80821115620002c85760008155600101620002cd565b634e487b7160e01b600052604160045260246000fd5b600082601f8301126200030b57600080fd5b81516001600160401b0380821115620003285762000328620002e3565b604051601f8301601f19908116603f01168101908282118183101715620003535762000353620002e3565b816040528381526020925086838588010111156200037057600080fd5b600091505b8382101562000394578582018301518183018401529082019062000375565b83821115620003a65760008385830101525b9695505050505050565b60008060408385031215620003c457600080fd5b82516001600160401b0380821115620003dc57600080fd5b620003ea86838701620002f9565b935060208501519150808211156200040157600080fd5b506200041085828601620002f9565b9150509250929050565b600181811c908216806200042f57607f821691505b602082108114156200045157634e487b7160e01b600052602260045260246000fd5b50919050565b613bcf80620004676000396000f3fe60806040526004361061021a5760003560e01c80635c40f6f41161012357806395d89b41116100ab578063e985e9c51161006f578063e985e9c514610632578063f2fde38b1461067b578063fc2374521461069b578063febfd6c3146106bb578063ffc27c0e146106db57600080fd5b806395d89b411461059d578063a22cb465146105b2578063adfc7dae146105d2578063b88d4fde146105f2578063c87b56dd1461061257600080fd5b8063715018a6116100f2578063715018a6146104fd578063775bff9f146105125780638d6cc56d1461053f5780638da5cb5b1461055f5780638f2839701461057d57600080fd5b80635c40f6f41461046f5780635c975abb1461048f5780636352211e146104a757806370a08231146104dd57600080fd5b806323b872dd116101a657806342842e0e1161017557806342842e0e146103e5578063452fa3d314610405578063472f1e021461041a5780634e69d5601461043a578063575b57ea1461044f57600080fd5b806323b872dd1461034e5780632a55205a1461036e5780633b66b00a146103ad57806341f43434146103c357600080fd5b8063095ea7b3116101ed578063095ea7b3146102ce57806310da88c5146102f05780631249c58b146103105780631ca9741b1461032657806321c8d6761461034657600080fd5b806301bc45c91461021f57806301ffc9a71461025c57806306fdde031461028c578063081812fc146102ae575b600080fd5b34801561022b57600080fd5b50600a5461023f906001600160a01b031681565b6040516001600160a01b0390911681526020015b60405180910390f35b34801561026857600080fd5b5061027c610277366004613142565b6106fb565b6040519015158152602001610253565b34801561029857600080fd5b506102a1610741565b60405161025391906131be565b3480156102ba57600080fd5b5061023f6102c93660046131d1565b6107d3565b3480156102da57600080fd5b506102ee6102e936600461320f565b6107fa565b005b3480156102fc57600080fd5b506102a161030b3660046131d1565b610915565b6103186109fd565b604051908152602001610253565b34801561033257600080fd5b506102ee61034136600461323b565b610c10565b610318610c8f565b34801561035a57600080fd5b506102ee610369366004613258565b610f90565b34801561037a57600080fd5b5061038e610389366004613299565b610fbb565b604080516001600160a01b039093168352602083019190915201610253565b3480156103b957600080fd5b50610318600f5481565b3480156103cf57600080fd5b5061023f6daaeb6d7670e522a718067333cd4e81565b3480156103f157600080fd5b506102ee610400366004613258565b610fd3565b34801561041157600080fd5b506102a1610ff8565b34801561042657600080fd5b506102ee61043536600461323b565b611086565b34801561044657600080fd5b5061027c611105565b34801561045b57600080fd5b50600d5461023f906001600160a01b031681565b34801561047b57600080fd5b506102ee61048a3660046132d4565b611119565b34801561049b57600080fd5b5060065460ff1661027c565b3480156104b357600080fd5b5061023f6104c23660046131d1565b6000908152600960205260409020546001600160a01b031690565b3480156104e957600080fd5b506103186104f836600461323b565b611183565b34801561050957600080fd5b506102ee611209565b34801561051e57600080fd5b5061052761121d565b6040516102539c9b9a999897969594939291906132f1565b34801561054b57600080fd5b506102ee61055a3660046131d1565b6113bc565b34801561056b57600080fd5b50600a546001600160a01b031661023f565b34801561058957600080fd5b506102ee61059836600461323b565b61141f565b3480156105a957600080fd5b506102a161149e565b3480156105be57600080fd5b506102ee6105cd3660046133a5565b61153c565b3480156105de57600080fd5b50600b5461023f906001600160a01b031681565b3480156105fe57600080fd5b506102ee61060d3660046134b5565b61154b565b34801561061e57600080fd5b506102a161062d3660046131d1565b611578565b34801561063e57600080fd5b5061027c61064d366004613535565b6001600160a01b03918216600090815260056020908152604080832093909416825291909152205460ff1690565b34801561068757600080fd5b506102ee61069636600461323b565b611617565b3480156106a757600080fd5b506102ee6106b636600461366e565b61168d565b3480156106c757600080fd5b506102ee6106d636600461323b565b61198e565b3480156106e757600080fd5b50600c5461023f906001600160a01b031681565b60006001600160e01b031982166302734eab60e51b148061072c57506001600160e01b0319821663152a902d60e11b145b8061073b575061073b82611a0d565b92915050565b6060600e805461075090613816565b80601f016020809104026020016040519081016040528092919081815260200182805461077c90613816565b80156107c95780601f1061079e576101008083540402835291602001916107c9565b820191906000526020600020905b8154815290600101906020018083116107ac57829003601f168201915b5050505050905090565b60006107de82611a5d565b506000908152600460205260409020546001600160a01b031690565b600061080582611aad565b9050806001600160a01b0316836001600160a01b031614156108785760405162461bcd60e51b815260206004820152602160248201527f4552433732313a20617070726f76616c20746f2063757272656e74206f776e656044820152603960f91b60648201526084015b60405180910390fd5b336001600160a01b03821614806108945750610894813361064d565b6109065760405162461bcd60e51b815260206004820152603d60248201527f4552433732313a20617070726f76652063616c6c6572206973206e6f7420746f60448201527f6b656e206f776e6572206f7220617070726f76656420666f7220616c6c000000606482015260840161086f565b6109108383611b0d565b505050565b606061092082611b7b565b6040518060400160405280600381526020016232303960e81b8152509061095a5760405162461bcd60e51b815260040161086f91906131be565b50600d546001600160a01b0316600061097284611b98565b601154604051639413930160e01b8152600481019190915260248101869052604481018290529091506001600160a01b038316906394139301906064015b600060405180830381865afa1580156109cd573d6000803e3d6000fd5b505050506040513d6000823e601f3d908101601f191682016040526109f59190810190613851565b949350505050565b6000610a07611c64565b60185415610a4e5760185460408051808201909152600381526206460760eb1b6020820152904211610a4c5760405162461bcd60e51b815260040161086f91906131be565b505b60128054600160301b900462ffffff16906006610a6a836138de565b82546101009290920a62ffffff818102199093169183160217909155601254630100000081048216600160301b90910490911611159050610aaa57600080fd5b60125462ffffff80821691610ad091600160481b8204811691600160301b900416613901565b62ffffff161415610b4157601054601154604051631122f8a960e11b815260048101919091526001600160a01b03909116908190632245f15290602401600060405180830381600087803b158015610b2757600080fd5b505af1158015610b3b573d6000803e3d6000fd5b50505050505b601254601154600160301b90910462ffffff1690610b6390620f424090613928565b610b6d9190613947565b9050610b793382611cbe565b600c54604051631da00d8560e01b8152600481018390526001600160a01b03909116906000908290631da00d85906024016020604051808303816000875af1158015610bc9573d6000803e3d6000fd5b505050506040513d601f19601f82011682018060405250810190610bed919061395f565b9050610bf98382611cd8565b610c01611da1565b5050610c0d6001600755565b90565b600a546001600160a01b031633148015610c3257506001600160a01b03811615155b6040518060400160405280600381526020016231303160e81b81525090610c6c5760405162461bcd60e51b815260040161086f91906131be565b50600c80546001600160a01b0319166001600160a01b0392909216919091179055565b6000610c99611c64565b60128054600160481b900462ffffff16906009610cb5836138de565b82546101009290920a62ffffff8181021990931691831602179091556012548082169250610cf49163010000008204811691600160481b900416613901565b62ffffff161115610d0457600080fd5b60125462ffffff80821691610d2a91600160481b8204811691600160301b900416613901565b62ffffff161415610d9b57601054601154604051631122f8a960e11b815260048101919091526001600160a01b03909116908190632245f15290602401600060405180830381600087803b158015610d8157600080fd5b505af1158015610d95573d6000803e3d6000fd5b50505050505b601054336000908152601b60205260409020546001600160a01b039091169060ff1680610e4557506011546040516331a9108f60e11b815260048101919091526001600160a01b03821690636352211e90602401602060405180830381865afa158015610e0c573d6000803e3d6000fd5b505050506040513d601f19601f82011682018060405250810190610e309190613978565b6001600160a01b0316336001600160a01b0316145b610e4e57600080fd5b336000908152601b602052604090205460ff168015610e6e575060185415155b15610eb25760185460408051808201909152600381526206460760eb1b6020820152904211610eb05760405162461bcd60e51b815260040161086f91906131be565b505b601254610ed49062ffffff63010000008204811691600160481b900416613901565b62ffffff16620f4240601060010154610eed9190613928565b610ef79190613947565b9150610f033383611cbe565b600c54604051631da00d8560e01b8152600481018490526001600160a01b03909116906000908290631da00d85906024016020604051808303816000875af1158015610f53573d6000803e3d6000fd5b505050506040513d601f19601f82011682018060405250810190610f77919061395f565b9050610f838482611cd8565b505050610c0d6001600755565b826001600160a01b0381163314610faa57610faa33612386565b610fb584848461243f565b50505050565b600080610fc88484612470565b915091509250929050565b826001600160a01b0381163314610fed57610fed33612386565b610fb584848461260a565b600e805461100590613816565b80601f016020809104026020016040519081016040528092919081815260200182805461103190613816565b801561107e5780601f106110535761010080835404028352916020019161107e565b820191906000526020600020905b81548152906001019060200180831161106157829003601f168201915b505050505081565b600a546001600160a01b0316331480156110a857506001600160a01b03811615155b6040518060400160405280600381526020016231303160e81b815250906110e25760405162461bcd60e51b815260040161086f91906131be565b50600d80546001600160a01b0319166001600160a01b0392909216919091179055565b600061111360065460ff1690565b15905090565b600a546001600160a01b031633148061113c57506010546001600160a01b031633145b6040518060400160405280600381526020016231303160e81b815250906111765760405162461bcd60e51b815260040161086f91906131be565b5061118081612625565b50565b60006001600160a01b0382166111ed5760405162461bcd60e51b815260206004820152602960248201527f4552433732313a2061646472657373207a65726f206973206e6f7420612076616044820152683634b21037bbb732b960b91b606482015260840161086f565b506001600160a01b031660009081526003602052604090205490565b61121161263b565b61121b60006126a7565b565b60108054601154601254601380546001600160a01b0390941694929362ffffff8084169463010000008504821694600160301b8104831694600160481b9091049092169290919061126d90613816565b80601f016020809104026020016040519081016040528092919081815260200182805461129990613816565b80156112e65780601f106112bb576101008083540402835291602001916112e6565b820191906000526020600020905b8154815290600101906020018083116112c957829003601f168201915b5050505060048301546005840154600685018054949592946001600160a01b0390921693509061131590613816565b80601f016020809104026020016040519081016040528092919081815260200182805461134190613816565b801561138e5780601f106113635761010080835404028352916020019161138e565b820191906000526020600020905b81548152906001019060200180831161137157829003601f168201915b5050604080518082019091526007860154815260088601546020820152600a9095015493949392508e915050565b600a546001600160a01b03163314806113df57506010546001600160a01b031633145b6040518060400160405280600381526020016231303160e81b815250906114195760405162461bcd60e51b815260040161086f91906131be565b50601455565b600a546001600160a01b03163314801561144157506001600160a01b03811615155b6040518060400160405280600381526020016231303160e81b8152509061147b5760405162461bcd60e51b815260040161086f91906131be565b50600a80546001600160a01b0319166001600160a01b0392909216919091179055565b606061153760016003600e80546114b490613816565b80601f01602080910402602001604051908101604052809291908181526020018280546114e090613816565b801561152d5780601f106115025761010080835404028352916020019161152d565b820191906000526020600020905b81548152906001019060200180831161151057829003601f168201915b50505050506126f9565b905090565b6115473383836127e0565b5050565b836001600160a01b03811633146115655761156533612386565b611571858585856128af565b5050505050565b606061158382611b7b565b6040518060400160405280600381526020016232303960e81b815250906115bd5760405162461bcd60e51b815260040161086f91906131be565b50600d546001600160a01b031660006115d584611b98565b6011546040516308dd54e960e31b8152600481019190915260248101869052604481018290529091506001600160a01b038316906346eaa748906064016109b0565b61161f61263b565b6001600160a01b0381166116845760405162461bcd60e51b815260206004820152602660248201527f4f776e61626c653a206e6577206f776e657220697320746865207a65726f206160448201526564647265737360d01b606482015260840161086f565b611180816126a7565b600a5460408051808201909152600381526219181960e91b6020820152906001600160a01b0316156116d25760405162461bcd60e51b815260040161086f91906131be565b5060408051808201909152600381526203130360ec1b60208201526001600160a01b0386166117145760405162461bcd60e51b815260040161086f91906131be565b508551601080546001600160a01b039092166001600160a01b031990921691909117815560208088015160115560408801516012805460608b015160808c015160a08d015162ffffff908116600160481b026bffffff00000000000000000019928216600160301b02929092166bffffffffffff0000000000001993821663010000000265ffffffffffff19909516919096161792909217169290921791909117905560c088015180518993926117d09260139291019061303e565b5060e082015160048201556101008201516005820180546001600160a01b0319166001600160a01b03909216919091179055610120820151805161181e91600684019160209091019061303e565b50610140820151805160078301556020908101516008830155610160830151805161184f92600985019201906130c2565b506101809190910151600a91820155600b80546001600160a01b038088166001600160a01b031992831617909255825488831690821617909255600c8054868316908416179055600d80549185169190921617905561012086015160c08701516040516118c0929190602001613995565b604051602081830303815290604052600e90805190602001906118e492919061303e565b5060005b86610160015151811015611957576001601b60008961016001518481518110611913576119136139d4565b6020908102919091018101516001600160a01b03168252810191909152604001600020805460ff19169115159190911790558061194f816139ea565b9150506118e8565b50600a5461196d906001600160a01b0316611617565b801561197b5761197b6128e1565b5050426017555050506101800151600f55565b600a546001600160a01b0316331480156119b057506001600160a01b03811615155b6040518060400160405280600381526020016231303160e81b815250906119ea5760405162461bcd60e51b815260040161086f91906131be565b50600b80546001600160a01b0319166001600160a01b0392909216919091179055565b60006001600160e01b031982166380ac58cd60e01b1480611a3e57506001600160e01b03198216635b5e139f60e01b145b8061073b57506301ffc9a760e01b6001600160e01b031983161461073b565b611a6681611b7b565b6111805760405162461bcd60e51b8152602060048201526018602482015277115490cdcc8c4e881a5b9d985b1a59081d1bdad95b88125160421b604482015260640161086f565b6000818152600260205260408120546001600160a01b03168061073b5760405162461bcd60e51b8152602060048201526018602482015277115490cdcc8c4e881a5b9d985b1a59081d1bdad95b88125160421b604482015260640161086f565b600081815260046020526040902080546001600160a01b0319166001600160a01b0384169081179091558190611b4282611aad565b6001600160a01b03167f8c5be1e5ebec7d5bd14f71427d1e84f3dd0314c0f7b2291e5b200ac8c7c3b92560405160405180910390a45050565b6000908152600960205260409020546001600160a01b0316151590565b6000611ba382611b7b565b6040518060400160405280600381526020016232303960e81b81525090611bdd5760405162461bcd60e51b815260040161086f91906131be565b50600082815260096020526040902054600160a01b900460a01b6001600160a01b031916611c0d57506000919050565b600082815260096020908152604091829020549151611c4792600160a01b900460a01b91016001600160a01b031991909116815260200190565b604051602081830303815290604052805190602001209050919050565b60026007541415611cb75760405162461bcd60e51b815260206004820152601f60248201527f5265656e7472616e637947756172643a207265656e7472616e742063616c6c00604482015260640161086f565b6002600755565b61154782826040518060200160405280600081525061293b565b600082815260096020908152604091829020548251808401909352600383526219181b60e91b91830191909152600160a01b900460a01b6001600160a01b03191615611d375760405162461bcd60e51b815260040161086f91906131be565b5060408051808201909152600381526232303760e81b602082015281611d705760405162461bcd60e51b815260040161086f91906131be565b50600091825260096020526040909120805460a09290921c600160a01b026001600160a01b03909216919091179055565b60145480611dac5750565b601054600b54604080518082018252601b81527f44454641554c545f524f59414c54595f46494e5f50455243454e54000000000060208201529051636d12dce160e01b81526001600160a01b0393841693909216916000918391636d12dce191611e18916004016131be565b602060405180830381865afa158015611e35573d6000803e3d6000fd5b505050506040513d601f19601f82011682018060405250810190611e59919061395f565b600a54600b549192506001600160a01b03908116911615611fc55760408051808201825260158152744d494e545f4e46545f4f50455241544f525f46454560581b60208201529051636d12dce160e01b81526001600160a01b03851691636d12dce191611ec991906004016131be565b602060405180830381865afa158015611ee6573d6000803e3d6000fd5b505050506040513d601f19601f82011682018060405250810190611f0a919061395f565b604080518082018252601f81527f4d494e545f4e46545f4f50455241544f525f54524541535552455f41444452006020820152905163bf40fac160e01b81529193506000916001600160a01b0386169163bf40fac191611f6d91906004016131be565b602060405180830381865afa158015611f8a573d6000803e3d6000fd5b505050506040513d601f19601f82011682018060405250810190611fae9190613978565b90506001600160a01b03811615611fc3578091505b505b6015546001600160a01b0316806121455785341015611fe357600080fd5b6011546040516331a9108f60e11b81526000916001600160a01b03881691636352211e916120179160040190815260200190565b602060405180830381865afa158015612034573d6000803e3d6000fd5b505050506040513d601f19601f820116820180604052508101906120589190613978565b6001600160a01b031661271061206e868a613928565b6120789190613a05565b6120829089613a27565b604051600081818185875af1925050503d80600081146120be576040519150601f19603f3d011682016040523d82523d6000602084013e6120c3565b606091505b50509050806120d157600080fd5b831561213f576001600160a01b0383166127106120ee868a613928565b6120f89190613a05565b604051600081818185875af1925050503d8060008114612134576040519150601f19603f3d011682016040523d82523d6000602084013e612139565b606091505b50909150505b5061237e565b6040516323b872dd60e01b81523360048201523060248201526044810187905281906001600160a01b038216906323b872dd906064016020604051808303816000875af115801561219a573d6000803e3d6000fd5b505050506040513d601f19601f820116820180604052508101906121be9190613a3e565b6121c757600080fd5b6011546040516331a9108f60e11b815260048101919091526001600160a01b038281169163a9059cbb91891690636352211e90602401602060405180830381865afa15801561221a573d6000803e3d6000fd5b505050506040513d601f19601f8201168201806040525081019061223e9190613978565b61271061224b888c613928565b6122559190613a05565b61225f908b613a27565b6040516001600160e01b031960e085901b1681526001600160a01b03909216600483015260248201526044016020604051808303816000875af11580156122aa573d6000803e3d6000fd5b505050506040513d601f19601f820116820180604052508101906122ce9190613a3e565b6122d757600080fd5b831561237c576001600160a01b03811663a9059cbb846127106122fa888c613928565b6123049190613a05565b6040516001600160e01b031960e085901b1681526001600160a01b03909216600483015260248201526044016020604051808303816000875af115801561234f573d6000803e3d6000fd5b505050506040513d601f19601f820116820180604052508101906123739190613a3e565b61237c57600080fd5b505b505050505050565b6daaeb6d7670e522a718067333cd4e3b1561118057604051633185c44d60e21b81523060048201526001600160a01b03821660248201526daaeb6d7670e522a718067333cd4e9063c617113490604401602060405180830381865afa1580156123f3573d6000803e3d6000fd5b505050506040513d601f19601f820116820180604052508101906124179190613a3e565b61118057604051633b79c77360e21b81526001600160a01b038216600482015260240161086f565b612449338261296e565b6124655760405162461bcd60e51b815260040161086f90613a5b565b6109108383836129ec565b600a54600f54600b546001600160a01b03928316926000929116156125e957600b546040805180820182526013815272524f59414c54595f46494e5f4144445245535360681b6020820152905163bf40fac160e01b81526001600160a01b0390921691600091839163bf40fac1916124ea916004016131be565b602060405180830381865afa158015612507573d6000803e3d6000fd5b505050506040513d601f19601f8201168201806040525081019061252b9190613978565b90506001600160a01b03811615612540578094505b826125e657604080518082018252601b81527f44454641554c545f524f59414c54595f46494e5f50455243454e54000000000060208201529051636d12dce160e01b81526001600160a01b03841691636d12dce1916125a291906004016131be565b602060405180830381865afa1580156125bf573d6000803e3d6000fd5b505050506040513d601f19601f820116820180604052508101906125e3919061395f565b92505b50505b6127106125f68286613928565b6126009190613a05565b9150509250929050565b6109108383836040518060200160405280600081525061154b565b801561263357611180612a26565b6111806128e1565b3361264e600a546001600160a01b031690565b6001600160a01b0316148061266d57506010546001600160a01b031633145b6040518060400160405280600381526020016203130360ec1b815250906111805760405162461bcd60e51b815260040161086f91906131be565b600880546001600160a01b038381166001600160a01b0319831681179093556040519116919082907f8be0079c531659141344cd1fd0a4f28419497f9722a3daafe3b4186f6b6457e090600090a35050565b606060006127078585613a27565b612712906001613947565b67ffffffffffffffff81111561272a5761272a6133de565b6040519080825280601f01601f191660200182016040528015612754576020820181803683370190505b50905060005b6127648686613a27565b81116127d7578360016127778884613947565b6127819190613a27565b81518110612791576127916139d4565b602001015160f81c60f81b8282815181106127ae576127ae6139d4565b60200101906001600160f81b031916908160001a905350806127cf816139ea565b91505061275a565b50949350505050565b816001600160a01b0316836001600160a01b031614156128425760405162461bcd60e51b815260206004820152601960248201527f4552433732313a20617070726f766520746f2063616c6c657200000000000000604482015260640161086f565b6001600160a01b03838116600081815260056020908152604080832094871680845294825291829020805460ff191686151590811790915591519182527f17307eab39ab6107e8899845ad3d59bd9653f200f220920489ca2b5937696c31910160405180910390a3505050565b6128b9338361296e565b6128d55760405162461bcd60e51b815260040161086f90613a5b565b610fb584848484612a5f565b6128e9612a92565b6006805460ff191660011790557f62e78cea01bee320cd4e420270b5ea74000d11b0c9f74754ebdbfc544b05a25861291e3390565b6040516001600160a01b03909116815260200160405180910390a1565b6129458383612ad8565b6129526000848484612b10565b6109105760405162461bcd60e51b815260040161086f90613aa8565b60008061297a83611aad565b9050806001600160a01b0316846001600160a01b031614806129c157506001600160a01b0380821660009081526005602090815260408083209388168352929052205460ff165b806109f55750836001600160a01b03166129da846107d3565b6001600160a01b031614949350505050565b6129f7838383612c0e565b600090815260096020526040902080546001600160a01b0319166001600160a01b039290921691909117905550565b612a2e612d7f565b6006805460ff191690557f5db9ee0a495bf2e6ff9c91a7834c1ba4fdd244a5e8aa4e537bd38aeae4b073aa3361291e565b612a6a8484846129ec565b612a7684848484612b10565b610fb55760405162461bcd60e51b815260040161086f90613aa8565b60065460ff161561121b5760405162461bcd60e51b815260206004820152601060248201526f14185d5cd8589b194e881c185d5cd95960821b604482015260640161086f565b612ae28282612dc8565b600090815260096020526040902080546001600160a01b0319166001600160a01b0392909216919091179055565b60006001600160a01b0384163b15612c0357604051630a85bd0160e11b81526001600160a01b0385169063150b7a0290612b54903390899088908890600401613afa565b6020604051808303816000875af1925050508015612b8f575060408051601f3d908101601f19168201909252612b8c91810190613b37565b60015b612be9573d808015612bbd576040519150601f19603f3d011682016040523d82523d6000602084013e612bc2565b606091505b508051612be15760405162461bcd60e51b815260040161086f90613aa8565b805181602001fd5b6001600160e01b031916630a85bd0160e11b1490506109f5565b506001949350505050565b826001600160a01b0316612c2182611aad565b6001600160a01b031614612c475760405162461bcd60e51b815260040161086f90613b54565b6001600160a01b038216612ca95760405162461bcd60e51b8152602060048201526024808201527f4552433732313a207472616e7366657220746f20746865207a65726f206164646044820152637265737360e01b606482015260840161086f565b612cb68383836001612f43565b826001600160a01b0316612cc982611aad565b6001600160a01b031614612cef5760405162461bcd60e51b815260040161086f90613b54565b600081815260046020908152604080832080546001600160a01b03199081169091556001600160a01b0387811680865260038552838620805460001901905590871680865283862080546001019055868652600290945282852080549092168417909155905184937fddf252ad1be2c89b69c2b068fc378daa952ba7f163c4a11628f55a4df523b3ef91a4505050565b60065460ff1661121b5760405162461bcd60e51b815260206004820152601460248201527314185d5cd8589b194e881b9bdd081c185d5cd95960621b604482015260640161086f565b6001600160a01b038216612e1e5760405162461bcd60e51b815260206004820181905260248201527f4552433732313a206d696e7420746f20746865207a65726f2061646472657373604482015260640161086f565b612e2781611b7b565b15612e745760405162461bcd60e51b815260206004820152601c60248201527f4552433732313a20746f6b656e20616c7265616479206d696e74656400000000604482015260640161086f565b612e82600083836001612f43565b612e8b81611b7b565b15612ed85760405162461bcd60e51b815260206004820152601c60248201527f4552433732313a20746f6b656e20616c7265616479206d696e74656400000000604482015260640161086f565b6001600160a01b038216600081815260036020908152604080832080546001019055848352600290915280822080546001600160a01b0319168417905551839291907fddf252ad1be2c89b69c2b068fc378daa952ba7f163c4a11628f55a4df523b3ef908290a45050565b612f4f84848484612fb6565b60065460ff1615610fb55760405162461bcd60e51b815260206004820152602b60248201527f4552433732315061757361626c653a20746f6b656e207472616e73666572207760448201526a1a1a5b19481c185d5cd95960aa1b606482015260840161086f565b6001811115610fb5576001600160a01b03841615612ffc576001600160a01b03841660009081526003602052604081208054839290612ff6908490613a27565b90915550505b6001600160a01b03831615610fb5576001600160a01b03831660009081526003602052604081208054839290613033908490613947565b909155505050505050565b82805461304a90613816565b90600052602060002090601f01602090048101928261306c57600085556130b2565b82601f1061308557805160ff19168380011785556130b2565b828001600101855582156130b2579182015b828111156130b2578251825591602001919060010190613097565b506130be929150613117565b5090565b8280548282559060005260206000209081019282156130b2579160200282015b828111156130b257825182546001600160a01b0319166001600160a01b039091161782556020909201916001909101906130e2565b5b808211156130be5760008155600101613118565b6001600160e01b03198116811461118057600080fd5b60006020828403121561315457600080fd5b813561315f8161312c565b9392505050565b60005b83811015613181578181015183820152602001613169565b83811115610fb55750506000910152565b600081518084526131aa816020860160208601613166565b601f01601f19169290920160200192915050565b60208152600061315f6020830184613192565b6000602082840312156131e357600080fd5b5035919050565b6001600160a01b038116811461118057600080fd5b803561320a816131ea565b919050565b6000806040838503121561322257600080fd5b823561322d816131ea565b946020939093013593505050565b60006020828403121561324d57600080fd5b813561315f816131ea565b60008060006060848603121561326d57600080fd5b8335613278816131ea565b92506020840135613288816131ea565b929592945050506040919091013590565b600080604083850312156132ac57600080fd5b50508035926020909101359150565b801515811461118057600080fd5b803561320a816132bb565b6000602082840312156132e657600080fd5b813561315f816132bb565b6001600160a01b038d168152602081018c905262ffffff8b811660408301528a811660608301528981166080830152881660a08201526101a060c082018190526000906133408382018a613192565b90508760e084015261335e6101008401886001600160a01b03169052565b8281036101208401526133718187613192565b85516101408501526020860151610160850152915061338d9050565b826101808301529d9c50505050505050505050505050565b600080604083850312156133b857600080fd5b82356133c3816131ea565b915060208301356133d3816132bb565b809150509250929050565b634e487b7160e01b600052604160045260246000fd5b6040516101a0810167ffffffffffffffff81118282101715613418576134186133de565b60405290565b604051601f8201601f1916810167ffffffffffffffff81118282101715613447576134476133de565b604052919050565b600067ffffffffffffffff821115613469576134696133de565b50601f01601f191660200190565b600061348a6134858461344f565b61341e565b905082815283838301111561349e57600080fd5b828260208301376000602084830101529392505050565b600080600080608085870312156134cb57600080fd5b84356134d6816131ea565b935060208501356134e6816131ea565b925060408501359150606085013567ffffffffffffffff81111561350957600080fd5b8501601f8101871361351a57600080fd5b61352987823560208401613477565b91505092959194509250565b6000806040838503121561354857600080fd5b8235613553816131ea565b915060208301356133d3816131ea565b803562ffffff8116811461320a57600080fd5b600082601f83011261358757600080fd5b61315f83833560208501613477565b6000604082840312156135a857600080fd5b6040516040810181811067ffffffffffffffff821117156135cb576135cb6133de565b604052823581526020928301359281019290925250919050565b600082601f8301126135f657600080fd5b8135602067ffffffffffffffff821115613612576136126133de565b8160051b61362182820161341e565b928352848101820192828101908785111561363b57600080fd5b83870192505b84831015613663578235613654816131ea565b82529183019190830190613641565b979650505050505050565b60008060008060008060c0878903121561368757600080fd5b863567ffffffffffffffff8082111561369f57600080fd5b908801906101c0828b0312156136b457600080fd5b6136bc6133f4565b6136c5836131ff565b8152602083013560208201526136dd60408401613563565b60408201526136ee60608401613563565b60608201526136ff60808401613563565b608082015261371060a08401613563565b60a082015260c08301358281111561372757600080fd5b6137338c828601613576565b60c08301525060e083013560e08201526101006137518185016131ff565b90820152610120838101358381111561376957600080fd5b6137758d828701613576565b82840152505061014061378a8c828601613596565b9082015261018083810135838111156137a257600080fd5b6137ae8d8287016135e5565b610160840152506101a084013581830152508098505050506137d2602088016131ff565b94506137e0604088016131ff565b93506137ee606088016131ff565b92506137fc608088016131ff565b915061380a60a088016132c9565b90509295509295509295565b600181811c9082168061382a57607f821691505b6020821081141561384b57634e487b7160e01b600052602260045260246000fd5b50919050565b60006020828403121561386357600080fd5b815167ffffffffffffffff81111561387a57600080fd5b8201601f8101841361388b57600080fd5b80516138996134858261344f565b8181528560208385010111156138ae57600080fd5b6138bf826020830160208601613166565b95945050505050565b634e487b7160e01b600052601160045260246000fd5b600062ffffff808316818114156138f7576138f76138c8565b6001019392505050565b600062ffffff80831681851680830382111561391f5761391f6138c8565b01949350505050565b6000816000190483118215151615613942576139426138c8565b500290565b6000821982111561395a5761395a6138c8565b500190565b60006020828403121561397157600080fd5b5051919050565b60006020828403121561398a57600080fd5b815161315f816131ea565b600083516139a7818460208801613166565b63010313c960e51b90830190815283516139c8816004840160208801613166565b01600401949350505050565b634e487b7160e01b600052603260045260246000fd5b60006000198214156139fe576139fe6138c8565b5060010190565b600082613a2257634e487b7160e01b600052601260045260246000fd5b500490565b600082821015613a3957613a396138c8565b500390565b600060208284031215613a5057600080fd5b815161315f816132bb565b6020808252602d908201527f4552433732313a2063616c6c6572206973206e6f7420746f6b656e206f776e6560408201526c1c881bdc88185c1c1c9bdd9959609a1b606082015260800190565b60208082526032908201527f4552433732313a207472616e7366657220746f206e6f6e20455243373231526560408201527131b2b4bb32b91034b6b83632b6b2b73a32b960711b606082015260800190565b6001600160a01b0385811682528416602082015260408101839052608060608201819052600090613b2d90830184613192565b9695505050505050565b600060208284031215613b4957600080fd5b815161315f8161312c565b60208082526025908201527f4552433732313a207472616e736665722066726f6d20696e636f72726563742060408201526437bbb732b960d91b60608201526080019056fea26469706673582212208d3adbca647536409028c48675831030df9c6e6783ca195a734b926a0bf51afa64736f6c634300080c0033",
  "linkReferences": {},
  "deployedLinkReferences": {}
}