{
  "_format": "hh-sol-artifact-1",
  "contractName": "GenerativeNFT",
  "sourceName": "contracts/nfts/GenerativeNFT.sol",
  "abi": [
    {
      "inputs": [
        {
          "internalType": "string",
          "name": "name",
          "type": "string"
        },
        {
          "internalType": "string",
          "name": "symbol",
          "type": "string"
        }
      ],
      "stateMutability": "nonpayable",
      "type": "constructor"
    },
    {
      "inputs": [
        {
          "internalType": "address",
          "name": "operator",
          "type": "address"
        }
      ],
      "name": "OperatorNotAllowed",
      "type": "error"
    },
    {
      "anonymous": false,
      "inputs": [
        {
          "indexed": true,
          "internalType": "address",
          "name": "owner",
          "type": "address"
        },
        {
          "indexed": true,
          "internalType": "address",
          "name": "approved",
          "type": "address"
        },
        {
          "indexed": true,
          "internalType": "uint256",
          "name": "tokenId",
          "type": "uint256"
        }
      ],
      "name": "Approval",
      "type": "event"
    },
    {
      "anonymous": false,
      "inputs": [
        {
          "indexed": true,
          "internalType": "address",
          "name": "owner",
          "type": "address"
        },
        {
          "indexed": true,
          "internalType": "address",
          "name": "operator",
          "type": "address"
        },
        {
          "indexed": false,
          "internalType": "bool",
          "name": "approved",
          "type": "bool"
        }
      ],
      "name": "ApprovalForAll",
      "type": "event"
    },
    {
      "anonymous": false,
      "inputs": [
        {
          "indexed": true,
          "internalType": "address",
          "name": "previousOwner",
          "type": "address"
        },
        {
          "indexed": true,
          "internalType": "address",
          "name": "newOwner",
          "type": "address"
        }
      ],
      "name": "OwnershipTransferred",
      "type": "event"
    },
    {
      "anonymous": false,
      "inputs": [
        {
          "indexed": false,
          "internalType": "address",
          "name": "account",
          "type": "address"
        }
      ],
      "name": "Paused",
      "type": "event"
    },
    {
      "anonymous": false,
      "inputs": [
        {
          "indexed": true,
          "internalType": "address",
          "name": "from",
          "type": "address"
        },
        {
          "indexed": true,
          "internalType": "address",
          "name": "to",
          "type": "address"
        },
        {
          "indexed": true,
          "internalType": "uint256",
          "name": "tokenId",
          "type": "uint256"
        }
      ],
      "name": "Transfer",
      "type": "event"
    },
    {
      "anonymous": false,
      "inputs": [
        {
          "indexed": false,
          "internalType": "address",
          "name": "account",
          "type": "address"
        }
      ],
      "name": "Unpaused",
      "type": "event"
    },
    {
      "inputs": [],
      "name": "OPERATOR_FILTER_REGISTRY",
      "outputs": [
        {
          "internalType": "contract IOperatorFilterRegistry",
          "name": "",
          "type": "address"
        }
      ],
      "stateMutability": "view",
      "type": "function"
    },
    {
      "inputs": [],
      "name": "_admin",
      "outputs": [
        {
          "internalType": "address",
          "name": "",
          "type": "address"
        }
      ],
      "stateMutability": "view",
      "type": "function"
    },
    {
      "inputs": [],
      "name": "_nameCol",
      "outputs": [
        {
          "internalType": "string",
          "name": "",
          "type": "string"
        }
      ],
      "stateMutability": "view",
      "type": "function"
    },
    {
      "inputs": [],
      "name": "_paramsAddress",
      "outputs": [
        {
          "internalType": "address",
          "name": "",
          "type": "address"
        }
      ],
      "stateMutability": "view",
      "type": "function"
    },
    {
      "inputs": [],
      "name": "_project",
      "outputs": [
        {
          "internalType": "address",
          "name": "_projectAddr",
          "type": "address"
        },
        {
          "internalType": "uint256",
          "name": "_projectId",
          "type": "uint256"
        },
        {
          "internalType": "uint24",
          "name": "_maxSupply",
          "type": "uint24"
        },
        {
          "internalType": "uint24",
          "name": "_limit",
          "type": "uint24"
        },
        {
          "internalType": "uint24",
          "name": "_index",
          "type": "uint24"
        },
        {
          "internalType": "uint24",
          "name": "_indexReserve",
          "type": "uint24"
        },
        {
          "internalType": "string",
          "name": "_creator",
          "type": "string"
        },
        {
          "internalType": "uint256",
          "name": "_mintPrice",
          "type": "uint256"
        },
        {
          "internalType": "address",
          "name": "_mintPriceAddr",
          "type": "address"
        },
        {
          "internalType": "string",
          "name": "_name",
          "type": "string"
        },
        {
          "components": [
            {
              "internalType": "uint256",
              "name": "_initBlockTime",
              "type": "uint256"
            },
            {
              "internalType": "uint256",
              "name": "_openingTime",
              "type": "uint256"
            }
          ],
          "internalType": "struct NFTProject.ProjectMintingSchedule",
          "name": "_mintingSchedule",
          "type": "tuple"
        },
        {
          "internalType": "uint256",
          "name": "_royalty",
          "type": "uint256"
        }
      ],
      "stateMutability": "view",
      "type": "function"
    },
    {
      "inputs": [],
      "name": "_projectDataContextAddr",
      "outputs": [
        {
          "internalType": "address",
          "name": "",
          "type": "address"
        }
      ],
      "stateMutability": "view",
      "type": "function"
    },
    {
      "inputs": [],
      "name": "_randomizer",
      "outputs": [
        {
          "internalType": "address",
          "name": "",
          "type": "address"
        }
      ],
      "stateMutability": "view",
      "type": "function"
    },
    {
      "inputs": [],
      "name": "_royalty",
      "outputs": [
        {
          "internalType": "uint256",
          "name": "",
          "type": "uint256"
        }
      ],
      "stateMutability": "view",
      "type": "function"
    },
    {
      "inputs": [
        {
          "internalType": "address",
          "name": "to",
          "type": "address"
        },
        {
          "internalType": "uint256",
          "name": "tokenId",
          "type": "uint256"
        }
      ],
      "name": "approve",
      "outputs": [],
      "stateMutability": "nonpayable",
      "type": "function"
    },
    {
      "inputs": [
        {
          "internalType": "address",
          "name": "owner",
          "type": "address"
        }
      ],
      "name": "balanceOf",
      "outputs": [
        {
          "internalType": "uint256",
          "name": "",
          "type": "uint256"
        }
      ],
      "stateMutability": "view",
      "type": "function"
    },
    {
      "inputs": [
        {
          "internalType": "address",
          "name": "newAdm",
          "type": "address"
        }
      ],
      "name": "changeAdmin",
      "outputs": [],
      "stateMutability": "nonpayable",
      "type": "function"
    },
    {
      "inputs": [
        {
          "internalType": "address",
          "name": "newAddr",
          "type": "address"
        }
      ],
      "name": "changeDataContextAddr",
      "outputs": [],
      "stateMutability": "nonpayable",
      "type": "function"
    },
    {
      "inputs": [
        {
          "internalType": "address",
          "name": "newAddr",
          "type": "address"
        }
      ],
      "name": "changeParamAddr",
      "outputs": [],
      "stateMutability": "nonpayable",
      "type": "function"
    },
    {
      "inputs": [
        {
          "internalType": "address",
          "name": "newAddr",
          "type": "address"
        }
      ],
      "name": "changeRandomizerAddr",
      "outputs": [],
      "stateMutability": "nonpayable",
      "type": "function"
    },
    {
      "inputs": [
        {
          "internalType": "uint256",
          "name": "tokenId",
          "type": "uint256"
        }
      ],
      "name": "getApproved",
      "outputs": [
        {
          "internalType": "address",
          "name": "",
          "type": "address"
        }
      ],
      "stateMutability": "view",
      "type": "function"
    },
    {
      "inputs": [],
      "name": "getStatus",
      "outputs": [
        {
          "internalType": "bool",
          "name": "",
          "type": "bool"
        }
      ],
      "stateMutability": "view",
      "type": "function"
    },
    {
      "inputs": [
        {
          "components": [
            {
              "internalType": "address",
              "name": "_projectAddr",
              "type": "address"
            },
            {
              "internalType": "uint256",
              "name": "_projectId",
              "type": "uint256"
            },
            {
              "internalType": "uint24",
              "name": "_maxSupply",
              "type": "uint24"
            },
            {
              "internalType": "uint24",
              "name": "_limit",
              "type": "uint24"
            },
            {
              "internalType": "uint24",
              "name": "_index",
              "type": "uint24"
            },
            {
              "internalType": "uint24",
              "name": "_indexReserve",
              "type": "uint24"
            },
            {
              "internalType": "string",
              "name": "_creator",
              "type": "string"
            },
            {
              "internalType": "uint256",
              "name": "_mintPrice",
              "type": "uint256"
            },
            {
              "internalType": "address",
              "name": "_mintPriceAddr",
              "type": "address"
            },
            {
              "internalType": "string",
              "name": "_name",
              "type": "string"
            },
            {
              "components": [
                {
                  "internalType": "uint256",
                  "name": "_initBlockTime",
                  "type": "uint256"
                },
                {
                  "internalType": "uint256",
                  "name": "_openingTime",
                  "type": "uint256"
                }
              ],
              "internalType": "struct NFTProject.ProjectMintingSchedule",
              "name": "_mintingSchedule",
              "type": "tuple"
            },
            {
              "internalType": "address[]",
              "name": "_reserves",
              "type": "address[]"
            },
            {
              "internalType": "uint256",
              "name": "_royalty",
              "type": "uint256"
            }
          ],
          "internalType": "struct NFTProject.ProjectMinting",
          "name": "project",
          "type": "tuple"
        },
        {
          "internalType": "address",
          "name": "admin",
          "type": "address"
        },
        {
          "internalType": "address",
          "name": "paramsAddr",
          "type": "address"
        },
        {
          "internalType": "address",
          "name": "randomizer",
          "type": "address"
        },
        {
          "internalType": "address",
          "name": "projectDataContextAddr",
          "type": "address"
        },
        {
          "internalType": "bool",
          "name": "disable",
          "type": "bool"
        }
      ],
      "name": "init",
      "outputs": [],
      "stateMutability": "nonpayable",
      "type": "function"
    },
    {
      "inputs": [
        {
          "internalType": "address",
          "name": "owner",
          "type": "address"
        },
        {
          "internalType": "address",
          "name": "operator",
          "type": "address"
        }
      ],
      "name": "isApprovedForAll",
      "outputs": [
        {
          "internalType": "bool",
          "name": "",
          "type": "bool"
        }
      ],
      "stateMutability": "view",
      "type": "function"
    },
    {
      "inputs": [
        {
          "internalType": "address",
          "name": "to",
          "type": "address"
        },
        {
          "internalType": "bytes[]",
          "name": "chunks",
          "type": "bytes[]"
        }
      ],
      "name": "mint",
      "outputs": [
        {
          "internalType": "uint256",
          "name": "tokenId",
          "type": "uint256"
        }
      ],
      "stateMutability": "payable",
      "type": "function"
    },
    {
      "inputs": [],
      "name": "name",
      "outputs": [
        {
          "internalType": "string",
          "name": "",
          "type": "string"
        }
      ],
      "stateMutability": "view",
      "type": "function"
    },
    {
      "inputs": [],
      "name": "owner",
      "outputs": [
        {
          "internalType": "address",
          "name": "",
          "type": "address"
        }
      ],
      "stateMutability": "view",
      "type": "function"
    },
    {
      "inputs": [
        {
          "internalType": "uint256",
          "name": "tokenId",
          "type": "uint256"
        }
      ],
      "name": "ownerOf",
      "outputs": [
        {
          "internalType": "address",
          "name": "",
          "type": "address"
        }
      ],
      "stateMutability": "view",
      "type": "function"
    },
    {
      "inputs": [],
      "name": "paused",
      "outputs": [
        {
          "internalType": "bool",
          "name": "",
          "type": "bool"
        }
      ],
      "stateMutability": "view",
      "type": "function"
    },
    {
      "inputs": [],
      "name": "projectAddress",
      "outputs": [
        {
          "internalType": "address",
          "name": "",
          "type": "address"
        }
      ],
      "stateMutability": "view",
      "type": "function"
    },
    {
      "inputs": [],
      "name": "projectIndex",
      "outputs": [
        {
          "internalType": "uint24",
          "name": "",
          "type": "uint24"
        }
      ],
      "stateMutability": "view",
      "type": "function"
    },
    {
      "inputs": [],
      "name": "renounceOwnership",
      "outputs": [],
      "stateMutability": "nonpayable",
      "type": "function"
    },
    {
      "inputs": [
        {
          "internalType": "address",
          "name": "to",
          "type": "address"
        },
        {
          "internalType": "bytes[]",
          "name": "chunks",
          "type": "bytes[]"
        }
      ],
      "name": "reserveMint",
      "outputs": [
        {
          "internalType": "uint256",
          "name": "tokenId",
          "type": "uint256"
        }
      ],
      "stateMutability": "payable",
      "type": "function"
    },
    {
      "inputs": [
        {
          "internalType": "uint256",
          "name": "_tokenId",
          "type": "uint256"
        },
        {
          "internalType": "uint256",
          "name": "_salePrice",
          "type": "uint256"
        }
      ],
      "name": "royaltyInfo",
      "outputs": [
        {
          "internalType": "address",
          "name": "receiver",
          "type": "address"
        },
        {
          "internalType": "uint256",
          "name": "royaltyAmount",
          "type": "uint256"
        }
      ],
      "stateMutability": "view",
      "type": "function"
    },
    {
      "inputs": [
        {
          "internalType": "address",
          "name": "from",
          "type": "address"
        },
        {
          "internalType": "address",
          "name": "to",
          "type": "address"
        },
        {
          "internalType": "uint256",
          "name": "tokenId",
          "type": "uint256"
        }
      ],
      "name": "safeTransferFrom",
      "outputs": [],
      "stateMutability": "nonpayable",
      "type": "function"
    },
    {
      "inputs": [
        {
          "internalType": "address",
          "name": "from",
          "type": "address"
        },
        {
          "internalType": "address",
          "name": "to",
          "type": "address"
        },
        {
          "internalType": "uint256",
          "name": "tokenId",
          "type": "uint256"
        },
        {
          "internalType": "bytes",
          "name": "data",
          "type": "bytes"
        }
      ],
      "name": "safeTransferFrom",
      "outputs": [],
      "stateMutability": "nonpayable",
      "type": "function"
    },
    {
      "inputs": [
        {
          "internalType": "address",
          "name": "operator",
          "type": "address"
        },
        {
          "internalType": "bool",
          "name": "approved",
          "type": "bool"
        }
      ],
      "name": "setApprovalForAll",
      "outputs": [],
      "stateMutability": "nonpayable",
      "type": "function"
    },
    {
      "inputs": [
        {
          "internalType": "bool",
          "name": "enable",
          "type": "bool"
        }
      ],
      "name": "setStatus",
      "outputs": [],
      "stateMutability": "nonpayable",
      "type": "function"
    },
    {
      "inputs": [
        {
          "internalType": "bytes4",
          "name": "interfaceId",
          "type": "bytes4"
        }
      ],
      "name": "supportsInterface",
      "outputs": [
        {
          "internalType": "bool",
          "name": "",
          "type": "bool"
        }
      ],
      "stateMutability": "view",
      "type": "function"
    },
    {
      "inputs": [],
      "name": "symbol",
      "outputs": [
        {
          "internalType": "string",
          "name": "",
          "type": "string"
        }
      ],
      "stateMutability": "view",
      "type": "function"
    },
    {
      "inputs": [
        {
          "internalType": "uint256",
          "name": "tokenId",
          "type": "uint256"
        }
      ],
      "name": "tokenIdToHash",
      "outputs": [
        {
          "internalType": "bytes32",
          "name": "",
          "type": "bytes32"
        }
      ],
      "stateMutability": "view",
      "type": "function"
    },
    {
      "inputs": [
        {
          "internalType": "uint256",
          "name": "tokenId",
          "type": "uint256"
        }
      ],
      "name": "tokenURI",
      "outputs": [
        {
          "internalType": "string",
          "name": "",
          "type": "string"
        }
      ],
      "stateMutability": "view",
      "type": "function"
    },
    {
      "inputs": [
        {
          "internalType": "address",
          "name": "from",
          "type": "address"
        },
        {
          "internalType": "address",
          "name": "to",
          "type": "address"
        },
        {
          "internalType": "uint256",
          "name": "tokenId",
          "type": "uint256"
        }
      ],
      "name": "transferFrom",
      "outputs": [],
      "stateMutability": "nonpayable",
      "type": "function"
    },
    {
      "inputs": [
        {
          "internalType": "address",
          "name": "newOwner",
          "type": "address"
        }
      ],
      "name": "transferOwnership",
      "outputs": [],
      "stateMutability": "nonpayable",
      "type": "function"
    },
    {
      "inputs": [
        {
          "internalType": "uint256",
          "name": "price",
          "type": "uint256"
        }
      ],
      "name": "updatePrice",
      "outputs": [],
      "stateMutability": "nonpayable",
      "type": "function"
    }
  ],
  "bytecode": "0x60806040523480156200001157600080fd5b5060405162004587380380620045878339810160408190526200003491620003b0565b733cc6cdda760b79bafa08df41ecfa224f810dceb66001838381818160009080519060200190620000679291906200023d565b5080516200007d9060019060208401906200023d565b50506006805460ff191690555060016007556200009a33620001eb565b50506daaeb6d7670e522a718067333cd4e3b15620001e15780156200012f57604051633e9f1edf60e11b81523060048201526001600160a01b03831660248201526daaeb6d7670e522a718067333cd4e90637d3e3dbe906044015b600060405180830381600087803b1580156200011057600080fd5b505af115801562000125573d6000803e3d6000fd5b50505050620001e1565b6001600160a01b03821615620001805760405163a0af290360e01b81523060048201526001600160a01b03831660248201526daaeb6d7670e522a718067333cd4e9063a0af290390604401620000f5565b604051632210724360e11b81523060048201526daaeb6d7670e522a718067333cd4e90634420e48690602401600060405180830381600087803b158015620001c757600080fd5b505af1158015620001dc573d6000803e3d6000fd5b505050505b5050505062000457565b600880546001600160a01b038381166001600160a01b0319831681179093556040519116919082907f8be0079c531659141344cd1fd0a4f28419497f9722a3daafe3b4186f6b6457e090600090a35050565b8280546200024b906200041a565b90600052602060002090601f0160209004810192826200026f5760008555620002ba565b82601f106200028a57805160ff1916838001178555620002ba565b82800160010185558215620002ba579182015b82811115620002ba5782518255916020019190600101906200029d565b50620002c8929150620002cc565b5090565b5b80821115620002c85760008155600101620002cd565b634e487b7160e01b600052604160045260246000fd5b600082601f8301126200030b57600080fd5b81516001600160401b0380821115620003285762000328620002e3565b604051601f8301601f19908116603f01168101908282118183101715620003535762000353620002e3565b816040528381526020925086838588010111156200037057600080fd5b600091505b8382101562000394578582018301518183018401529082019062000375565b83821115620003a65760008385830101525b9695505050505050565b60008060408385031215620003c457600080fd5b82516001600160401b0380821115620003dc57600080fd5b620003ea86838701620002f9565b935060208501519150808211156200040157600080fd5b506200041085828601620002f9565b9150509250929050565b600181811c908216806200042f57607f821691505b602082108114156200045157634e487b7160e01b600052602260045260246000fd5b50919050565b61412080620004676000396000f3fe6080604052600436106102305760003560e01c8063621a1f741161012e578063a22cb465116100ab578063f038ba721161006f578063f038ba72146106e2578063f2fde38b146106f5578063fc23745214610715578063febfd6c314610735578063ffc27c0e1461075557600080fd5b8063a22cb46514610619578063adfc7dae14610639578063b88d4fde14610659578063c87b56dd14610679578063e985e9c51461069957600080fd5b8063775bff9f116100f2578063775bff9f146105795780638d6cc56d146105a65780638da5cb5b146105c65780638f283970146105e457806395d89b411461060457600080fd5b8063621a1f74146104be57806363184726146104de5780636352211e1461050e57806370a0823114610544578063715018a61461056457600080fd5b80633cf96af1116101bc5780634e69d560116101805780634e69d5601461043e578063575b57ea146104535780635c40f6f4146104735780635c975abb146104935780635d6ffda7146104ab57600080fd5b80633cf96af1146103a957806341f43434146103c757806342842e0e146103e9578063452fa3d314610409578063472f1e021461041e57600080fd5b8063095ea7b311610203578063095ea7b3146102e45780631ca9741b1461030657806323b872dd146103265780632a55205a146103465780633b66b00a1461038557600080fd5b806301bc45c91461023557806301ffc9a71461027257806306fdde03146102a2578063081812fc146102c4575b600080fd5b34801561024157600080fd5b50600a54610255906001600160a01b031681565b6040516001600160a01b0390911681526020015b60405180910390f35b34801561027e57600080fd5b5061029261028d3660046135f3565b610775565b6040519015158152602001610269565b3480156102ae57600080fd5b506102b76107bb565b604051610269919061366f565b3480156102d057600080fd5b506102556102df366004613682565b61084d565b3480156102f057600080fd5b506103046102ff3660046136c0565b610874565b005b34801561031257600080fd5b506103046103213660046136ec565b61098f565b34801561033257600080fd5b50610304610341366004613709565b610a0e565b34801561035257600080fd5b5061036661036136600461374a565b610a39565b604080516001600160a01b039093168352602083019190915201610269565b34801561039157600080fd5b5061039b600f5481565b604051908152602001610269565b3480156103b557600080fd5b506010546001600160a01b0316610255565b3480156103d357600080fd5b506102556daaeb6d7670e522a718067333cd4e81565b3480156103f557600080fd5b50610304610404366004613709565b610a51565b34801561041557600080fd5b506102b7610a76565b34801561042a57600080fd5b506103046104393660046136ec565b610b04565b34801561044a57600080fd5b50610292610b83565b34801561045f57600080fd5b50600d54610255906001600160a01b031681565b34801561047f57600080fd5b5061030461048e366004613785565b610b97565b34801561049f57600080fd5b5060065460ff16610292565b61039b6104b93660046138b5565b610c01565b3480156104ca57600080fd5b5061039b6104d9366004613682565b610f4c565b3480156104ea57600080fd5b50601254600160301b900462ffffff1660405162ffffff9091168152602001610269565b34801561051a57600080fd5b50610255610529366004613682565b6000908152600960205260409020546001600160a01b031690565b34801561055057600080fd5b5061039b61055f3660046136ec565b611027565b34801561057057600080fd5b506103046110ad565b34801561058557600080fd5b5061058e6110c1565b6040516102699c9b9a9998979695949392919061397b565b3480156105b257600080fd5b506103046105c1366004613682565b611260565b3480156105d257600080fd5b50600a546001600160a01b0316610255565b3480156105f057600080fd5b506103046105ff3660046136ec565b6112c3565b34801561061057600080fd5b506102b7611342565b34801561062557600080fd5b50610304610634366004613a2f565b6113e0565b34801561064557600080fd5b50600b54610255906001600160a01b031681565b34801561066557600080fd5b50610304610674366004613a68565b6113ef565b34801561068557600080fd5b506102b7610694366004613682565b61141c565b3480156106a557600080fd5b506102926106b4366004613ad4565b6001600160a01b03918216600090815260056020908152604080832093909416825291909152205460ff1690565b61039b6106f03660046138b5565b611570565b34801561070157600080fd5b506103046107103660046136ec565b6119ac565b34801561072157600080fd5b50610304610730366004613bd3565b611a22565b34801561074157600080fd5b506103046107503660046136ec565b611cfd565b34801561076157600080fd5b50600c54610255906001600160a01b031681565b60006001600160e01b031982166302734eab60e51b14806107a657506001600160e01b0319821663152a902d60e11b145b806107b557506107b582611d7c565b92915050565b6060600e80546107ca90613d7b565b80601f01602080910402602001604051908101604052809291908181526020018280546107f690613d7b565b80156108435780601f1061081857610100808354040283529160200191610843565b820191906000526020600020905b81548152906001019060200180831161082657829003601f168201915b5050505050905090565b600061085882611dcc565b506000908152600460205260409020546001600160a01b031690565b600061087f82611e2b565b9050806001600160a01b0316836001600160a01b031614156108f25760405162461bcd60e51b815260206004820152602160248201527f4552433732313a20617070726f76616c20746f2063757272656e74206f776e656044820152603960f91b60648201526084015b60405180910390fd5b336001600160a01b038216148061090e575061090e81336106b4565b6109805760405162461bcd60e51b815260206004820152603d60248201527f4552433732313a20617070726f76652063616c6c6572206973206e6f7420746f60448201527f6b656e206f776e6572206f7220617070726f76656420666f7220616c6c00000060648201526084016108e9565b61098a8383611e8b565b505050565b600a546001600160a01b0316331480156109b157506001600160a01b03811615155b6040518060400160405280600381526020016231303160e81b815250906109eb5760405162461bcd60e51b81526004016108e9919061366f565b50600c80546001600160a01b0319166001600160a01b0392909216919091179055565b826001600160a01b0381163314610a2857610a2833611ef9565b610a33848484611fb2565b50505050565b600080610a468484611fe3565b915091509250929050565b826001600160a01b0381163314610a6b57610a6b33611ef9565b610a3384848461217d565b600e8054610a8390613d7b565b80601f0160208091040260200160405190810160405280929190818152602001828054610aaf90613d7b565b8015610afc5780601f10610ad157610100808354040283529160200191610afc565b820191906000526020600020905b815481529060010190602001808311610adf57829003601f168201915b505050505081565b600a546001600160a01b031633148015610b2657506001600160a01b03811615155b6040518060400160405280600381526020016231303160e81b81525090610b605760405162461bcd60e51b81526004016108e9919061366f565b50600d80546001600160a01b0319166001600160a01b0392909216919091179055565b6000610b9160065460ff1690565b15905090565b600a546001600160a01b0316331480610bba57506010546001600160a01b031633145b6040518060400160405280600381526020016231303160e81b81525090610bf45760405162461bcd60e51b81526004016108e9919061366f565b50610bfe81612198565b50565b6000610c0b6121ae565b60185415610c525760185460408051808201909152600381526206460760eb1b6020820152904211610c505760405162461bcd60e51b81526004016108e9919061366f565b505b60128054600160301b900462ffffff16906006610c6e83613dcc565b82546101009290920a62ffffff818102199093169183160217909155601254630100000081048216600160301b90910490911611159050610cae57600080fd5b60125462ffffff80821691610cd491600160481b8204811691600160301b900416613def565b62ffffff161415610d4557601054601154604051631122f8a960e11b815260048101919091526001600160a01b03909116908190632245f15290602401600060405180830381600087803b158015610d2b57600080fd5b505af1158015610d3f573d6000803e3d6000fd5b50505050505b601254601154600160301b90910462ffffff1690610d6790620f424090613e16565b610d719190613e35565b9050610d7d8382612208565b600c54604051631da00d8560e01b8152600481018390526001600160a01b03909116906000908290631da00d85906024016020604051808303816000875af1158015610dcd573d6000803e3d6000fd5b505050506040513d601f19601f82011682018060405250810190610df19190613e4d565b9050610dfd8382612222565b600b80546040805180820182529283526a4246535f4144445245535360a81b60208401525163bf40fac160e01b81526001600160a01b0390911691600091839163bf40fac191610e50919060040161366f565b602060405180830381865afa158015610e6d573d6000803e3d6000fd5b505050506040513d601f19601f82011682018060405250810190610e919190613e66565b905060005b8651811015610f3557816001600160a01b031663928a4b3e610eb7866122eb565b838a8581518110610eca57610eca613e83565b60200260200101516040518463ffffffff1660e01b8152600401610ef093929190613e99565b600060405180830381600087803b158015610f0a57600080fd5b505af1158015610f1e573d6000803e3d6000fd5b505050508080610f2d90613ece565b915050610e96565b50610f3e612337565b505050506107b56001600755565b6000818152600960205260408120546001600160a01b031615156040518060400160405280600381526020016232303960e81b81525090610fa05760405162461bcd60e51b81526004016108e9919061366f565b50600082815260096020526040902054600160a01b900460a01b6001600160a01b031916610fd057506000919050565b60008281526009602090815260409182902054915161100a92600160a01b900460a01b91016001600160a01b031991909116815260200190565b604051602081830303815290604052805190602001209050919050565b60006001600160a01b0382166110915760405162461bcd60e51b815260206004820152602960248201527f4552433732313a2061646472657373207a65726f206973206e6f7420612076616044820152683634b21037bbb732b960b91b60648201526084016108e9565b506001600160a01b031660009081526003602052604090205490565b6110b561291c565b6110bf6000612988565b565b60108054601154601254601380546001600160a01b0390941694929362ffffff8084169463010000008504821694600160301b8104831694600160481b9091049092169290919061111190613d7b565b80601f016020809104026020016040519081016040528092919081815260200182805461113d90613d7b565b801561118a5780601f1061115f5761010080835404028352916020019161118a565b820191906000526020600020905b81548152906001019060200180831161116d57829003601f168201915b5050505060048301546005840154600685018054949592946001600160a01b039092169350906111b990613d7b565b80601f01602080910402602001604051908101604052809291908181526020018280546111e590613d7b565b80156112325780601f1061120757610100808354040283529160200191611232565b820191906000526020600020905b81548152906001019060200180831161121557829003601f168201915b5050604080518082019091526007860154815260088601546020820152600a9095015493949392508e915050565b600a546001600160a01b031633148061128357506010546001600160a01b031633145b6040518060400160405280600381526020016231303160e81b815250906112bd5760405162461bcd60e51b81526004016108e9919061366f565b50601455565b600a546001600160a01b0316331480156112e557506001600160a01b03811615155b6040518060400160405280600381526020016231303160e81b8152509061131f5760405162461bcd60e51b81526004016108e9919061366f565b50600a80546001600160a01b0319166001600160a01b0392909216919091179055565b60606113db60016003600e805461135890613d7b565b80601f016020809104026020016040519081016040528092919081815260200182805461138490613d7b565b80156113d15780601f106113a6576101008083540402835291602001916113d1565b820191906000526020600020905b8154815290600101906020018083116113b457829003601f168201915b50505050506129da565b905090565b6113eb338383612ac1565b5050565b836001600160a01b03811633146114095761140933611ef9565b61141585858585612b90565b5050505050565b6000818152600960205260409020546060906001600160a01b031615156040518060400160405280600381526020016232303960e81b815250906114735760405162461bcd60e51b81526004016108e9919061366f565b50600d5460405163188687dd60e21b8152600481018490526001600160a01b0390911690600090309063621a1f7490602401602060405180830381865afa1580156114c2573d6000803e3d6000fd5b505050506040513d601f19601f820116820180604052508101906114e69190613e4d565b601154604051639413930160e01b8152600481019190915260248101869052604481018290529091506001600160a01b03831690639413930190606401600060405180830381865afa158015611540573d6000803e3d6000fd5b505050506040513d6000823e601f3d908101601f191682016040526115689190810190613ee9565b949350505050565b600061157a6121ae565b60128054600160481b900462ffffff1690600961159683613dcc565b82546101009290920a62ffffff81810219909316918316021790915560125480821692506115d59163010000008204811691600160481b900416613def565b62ffffff1611156115e557600080fd5b60125462ffffff8082169161160b91600160481b8204811691600160301b900416613def565b62ffffff16141561167c57601054601154604051631122f8a960e11b815260048101919091526001600160a01b03909116908190632245f15290602401600060405180830381600087803b15801561166257600080fd5b505af1158015611676573d6000803e3d6000fd5b50505050505b601054336000908152601b60205260409020546001600160a01b039091169060ff168061172657506011546040516331a9108f60e11b815260048101919091526001600160a01b03821690636352211e90602401602060405180830381865afa1580156116ed573d6000803e3d6000fd5b505050506040513d601f19601f820116820180604052508101906117119190613e66565b6001600160a01b0316336001600160a01b0316145b61172f57600080fd5b336000908152601b602052604090205460ff16801561174f575060185415155b156117935760185460408051808201909152600381526206460760eb1b60208201529042116117915760405162461bcd60e51b81526004016108e9919061366f565b505b6012546117b59062ffffff63010000008204811691600160481b900416613def565b62ffffff16620f42406010600101546117ce9190613e16565b6117d89190613e35565b91506117e48483612208565b600c54604051631da00d8560e01b8152600481018490526001600160a01b03909116906000908290631da00d85906024016020604051808303816000875af1158015611834573d6000803e3d6000fd5b505050506040513d601f19601f820116820180604052508101906118589190613e4d565b90506118648482612222565b600b80546040805180820182529283526a4246535f4144445245535360a81b60208401525163bf40fac160e01b81526001600160a01b0390911691600091839163bf40fac1916118b7919060040161366f565b602060405180830381865afa1580156118d4573d6000803e3d6000fd5b505050506040513d601f19601f820116820180604052508101906118f89190613e66565b905060005b875181101561199c57816001600160a01b031663928a4b3e61191e866122eb565b838b858151811061193157611931613e83565b60200260200101516040518463ffffffff1660e01b815260040161195793929190613e99565b600060405180830381600087803b15801561197157600080fd5b505af1158015611985573d6000803e3d6000fd5b50505050808061199490613ece565b9150506118fd565b5050505050506107b56001600755565b6119b461291c565b6001600160a01b038116611a195760405162461bcd60e51b815260206004820152602660248201527f4f776e61626c653a206e6577206f776e657220697320746865207a65726f206160448201526564647265737360d01b60648201526084016108e9565b610bfe81612988565b600a5460408051808201909152600381526219181960e91b6020820152906001600160a01b031615611a675760405162461bcd60e51b81526004016108e9919061366f565b5060408051808201909152600381526203130360ec1b60208201526001600160a01b038616611aa95760405162461bcd60e51b81526004016108e9919061366f565b508551601080546001600160a01b039092166001600160a01b031990921691909117815560208088015160115560408801516012805460608b015160808c015160a08d015162ffffff908116600160481b026bffffff00000000000000000019928216600160301b02929092166bffffffffffff0000000000001993821663010000000265ffffffffffff19909516919096161792909217169290921791909117905560c08801518051899392611b65926013929101906134ef565b5060e082015160048201556101008201516005820180546001600160a01b0319166001600160a01b039092169190911790556101208201518051611bb39160068401916020909101906134ef565b506101408201518051600783015560209081015160088301556101608301518051611be49260098501920190613573565b506101809190910151600a91820155600b80546001600160a01b038088166001600160a01b031992831617909255825488831690821617909255600c8054868316908416179055600d8054918516919092161790556101208601518051611c5391600e916020909101906134ef565b5060005b86610160015151811015611cc6576001601b60008961016001518481518110611c8257611c82613e83565b6020908102919091018101516001600160a01b03168252810191909152604001600020805460ff191691151591909117905580611cbe81613ece565b915050611c57565b50600a54611cdc906001600160a01b03166119ac565b8015611cea57611cea612bc2565b5050426017555050506101800151600f55565b600a546001600160a01b031633148015611d1f57506001600160a01b03811615155b6040518060400160405280600381526020016231303160e81b81525090611d595760405162461bcd60e51b81526004016108e9919061366f565b50600b80546001600160a01b0319166001600160a01b0392909216919091179055565b60006001600160e01b031982166380ac58cd60e01b1480611dad57506001600160e01b03198216635b5e139f60e01b145b806107b557506301ffc9a760e01b6001600160e01b03198316146107b5565b6000818152600960205260409020546001600160a01b0316610bfe5760405162461bcd60e51b8152602060048201526018602482015277115490cdcc8c4e881a5b9d985b1a59081d1bdad95b88125160421b60448201526064016108e9565b6000818152600260205260408120546001600160a01b0316806107b55760405162461bcd60e51b8152602060048201526018602482015277115490cdcc8c4e881a5b9d985b1a59081d1bdad95b88125160421b60448201526064016108e9565b600081815260046020526040902080546001600160a01b0319166001600160a01b0384169081179091558190611ec082611e2b565b6001600160a01b03167f8c5be1e5ebec7d5bd14f71427d1e84f3dd0314c0f7b2291e5b200ac8c7c3b92560405160405180910390a45050565b6daaeb6d7670e522a718067333cd4e3b15610bfe57604051633185c44d60e21b81523060048201526001600160a01b03821660248201526daaeb6d7670e522a718067333cd4e9063c617113490604401602060405180830381865afa158015611f66573d6000803e3d6000fd5b505050506040513d601f19601f82011682018060405250810190611f8a9190613f60565b610bfe57604051633b79c77360e21b81526001600160a01b03821660048201526024016108e9565b611fbc3382612c1c565b611fd85760405162461bcd60e51b81526004016108e990613f7d565b61098a838383612c9a565b600a54600f54600b546001600160a01b039283169260009291161561215c57600b546040805180820182526013815272524f59414c54595f46494e5f4144445245535360681b6020820152905163bf40fac160e01b81526001600160a01b0390921691600091839163bf40fac19161205d9160040161366f565b602060405180830381865afa15801561207a573d6000803e3d6000fd5b505050506040513d601f19601f8201168201806040525081019061209e9190613e66565b90506001600160a01b038116156120b3578094505b8261215957604080518082018252601b81527f44454641554c545f524f59414c54595f46494e5f50455243454e54000000000060208201529051636d12dce160e01b81526001600160a01b03841691636d12dce191612115919060040161366f565b602060405180830381865afa158015612132573d6000803e3d6000fd5b505050506040513d601f19601f820116820180604052508101906121569190613e4d565b92505b50505b6127106121698286613e16565b6121739190613fca565b9150509250929050565b61098a838383604051806020016040528060008152506113ef565b80156121a657610bfe612cd4565b610bfe612bc2565b600260075414156122015760405162461bcd60e51b815260206004820152601f60248201527f5265656e7472616e637947756172643a207265656e7472616e742063616c6c0060448201526064016108e9565b6002600755565b6113eb828260405180602001604052806000815250612d0d565b600082815260096020908152604091829020548251808401909352600383526219181b60e91b91830191909152600160a01b900460a01b6001600160a01b031916156122815760405162461bcd60e51b81526004016108e9919061366f565b5060408051808201909152600381526232303760e81b6020820152816122ba5760405162461bcd60e51b81526004016108e9919061366f565b50600091825260096020526040909120805460a09290921c600160a01b026001600160a01b03909216919091179055565b60606122f682612d40565b612303608084901b612d40565b60405161060f60f31b6020820152602281019290925260428201526062016040516020818303038152906040529050919050565b601454806123425750565b601054600b54604080518082018252601b81527f44454641554c545f524f59414c54595f46494e5f50455243454e54000000000060208201529051636d12dce160e01b81526001600160a01b0393841693909216916000918391636d12dce1916123ae9160040161366f565b602060405180830381865afa1580156123cb573d6000803e3d6000fd5b505050506040513d601f19601f820116820180604052508101906123ef9190613e4d565b600a54600b549192506001600160a01b0390811691161561255b5760408051808201825260158152744d494e545f4e46545f4f50455241544f525f46454560581b60208201529051636d12dce160e01b81526001600160a01b03851691636d12dce19161245f919060040161366f565b602060405180830381865afa15801561247c573d6000803e3d6000fd5b505050506040513d601f19601f820116820180604052508101906124a09190613e4d565b604080518082018252601f81527f4d494e545f4e46545f4f50455241544f525f54524541535552455f41444452006020820152905163bf40fac160e01b81529193506000916001600160a01b0386169163bf40fac191612503919060040161366f565b602060405180830381865afa158015612520573d6000803e3d6000fd5b505050506040513d601f19601f820116820180604052508101906125449190613e66565b90506001600160a01b03811615612559578091505b505b6015546001600160a01b0316806126db578534101561257957600080fd5b6011546040516331a9108f60e11b81526000916001600160a01b03881691636352211e916125ad9160040190815260200190565b602060405180830381865afa1580156125ca573d6000803e3d6000fd5b505050506040513d601f19601f820116820180604052508101906125ee9190613e66565b6001600160a01b0316612710612604868a613e16565b61260e9190613fca565b6126189089613fec565b604051600081818185875af1925050503d8060008114612654576040519150601f19603f3d011682016040523d82523d6000602084013e612659565b606091505b505090508061266757600080fd5b83156126d5576001600160a01b038316612710612684868a613e16565b61268e9190613fca565b604051600081818185875af1925050503d80600081146126ca576040519150601f19603f3d011682016040523d82523d6000602084013e6126cf565b606091505b50909150505b50612914565b6040516323b872dd60e01b81523360048201523060248201526044810187905281906001600160a01b038216906323b872dd906064016020604051808303816000875af1158015612730573d6000803e3d6000fd5b505050506040513d601f19601f820116820180604052508101906127549190613f60565b61275d57600080fd5b6011546040516331a9108f60e11b815260048101919091526001600160a01b038281169163a9059cbb91891690636352211e90602401602060405180830381865afa1580156127b0573d6000803e3d6000fd5b505050506040513d601f19601f820116820180604052508101906127d49190613e66565b6127106127e1888c613e16565b6127eb9190613fca565b6127f5908b613fec565b6040516001600160e01b031960e085901b1681526001600160a01b03909216600483015260248201526044016020604051808303816000875af1158015612840573d6000803e3d6000fd5b505050506040513d601f19601f820116820180604052508101906128649190613f60565b61286d57600080fd5b8315612912576001600160a01b03811663a9059cbb84612710612890888c613e16565b61289a9190613fca565b6040516001600160e01b031960e085901b1681526001600160a01b03909216600483015260248201526044016020604051808303816000875af11580156128e5573d6000803e3d6000fd5b505050506040513d601f19601f820116820180604052508101906129099190613f60565b61291257600080fd5b505b505050505050565b3361292f600a546001600160a01b031690565b6001600160a01b0316148061294e57506010546001600160a01b031633145b6040518060400160405280600381526020016203130360ec1b81525090610bfe5760405162461bcd60e51b81526004016108e9919061366f565b600880546001600160a01b038381166001600160a01b0319831681179093556040519116919082907f8be0079c531659141344cd1fd0a4f28419497f9722a3daafe3b4186f6b6457e090600090a35050565b606060006129e88585613fec565b6129f3906001613e35565b67ffffffffffffffff811115612a0b57612a0b6137a2565b6040519080825280601f01601f191660200182016040528015612a35576020820181803683370190505b50905060005b612a458686613fec565b8111612ab857836001612a588884613e35565b612a629190613fec565b81518110612a7257612a72613e83565b602001015160f81c60f81b828281518110612a8f57612a8f613e83565b60200101906001600160f81b031916908160001a90535080612ab081613ece565b915050612a3b565b50949350505050565b816001600160a01b0316836001600160a01b03161415612b235760405162461bcd60e51b815260206004820152601960248201527f4552433732313a20617070726f766520746f2063616c6c65720000000000000060448201526064016108e9565b6001600160a01b03838116600081815260056020908152604080832094871680845294825291829020805460ff191686151590811790915591519182527f17307eab39ab6107e8899845ad3d59bd9653f200f220920489ca2b5937696c31910160405180910390a3505050565b612b9a3383612c1c565b612bb65760405162461bcd60e51b81526004016108e990613f7d565b610a3384848484612ef2565b612bca612f25565b6006805460ff191660011790557f62e78cea01bee320cd4e420270b5ea74000d11b0c9f74754ebdbfc544b05a258612bff3390565b6040516001600160a01b03909116815260200160405180910390a1565b600080612c2883611e2b565b9050806001600160a01b0316846001600160a01b03161480612c6f57506001600160a01b0380821660009081526005602090815260408083209388168352929052205460ff165b806115685750836001600160a01b0316612c888461084d565b6001600160a01b031614949350505050565b612ca5838383612f6b565b600090815260096020526040902080546001600160a01b0319166001600160a01b039290921691909117905550565b612cdc6130dc565b6006805460ff191690557f5db9ee0a495bf2e6ff9c91a7834c1ba4fdd244a5e8aa4e537bd38aeae4b073aa33612bff565b612d178383613125565b612d24600084848461315d565b61098a5760405162461bcd60e51b81526004016108e990614003565b7aff00000000000000ff00000000000000ff00000000000000ff00006bffffffff0000000000000000604083901c90811663ffffffff60c01b84161760201c63ffffffff60601b919091166001600160e01b031984161717601081901c9182167eff00000000000000ff00000000000000ff00000000000000ff000000000000821617600890811c7bff00000000000000ff00000000000000ff00000000000000ff000000939093167fff00000000000000ff00000000000000ff00000000000000ff000000000000009290921691909117919091179081901c7e0f000f000f000f000f000f000f000f000f000f000f000f000f000f000f000f167f0f000f000f000f000f000f000f000f000f000f000f000f000f000f000f000f00600492831c161790612e8e827f0606060606060606060606060606060606060606060606060606060606060606613e35565b901c7f0f0f0f0f0f0f0f0f0f0f0f0f0f0f0f0f0f0f0f0f0f0f0f0f0f0f0f0f0f0f0f0f166007612ebe9190613e16565b612ee8827f3030303030303030303030303030303030303030303030303030303030303030613e35565b6107b59190613e35565b612efd848484612c9a565b612f098484848461315d565b610a335760405162461bcd60e51b81526004016108e990614003565b60065460ff16156110bf5760405162461bcd60e51b815260206004820152601060248201526f14185d5cd8589b194e881c185d5cd95960821b60448201526064016108e9565b826001600160a01b0316612f7e82611e2b565b6001600160a01b031614612fa45760405162461bcd60e51b81526004016108e990614055565b6001600160a01b0382166130065760405162461bcd60e51b8152602060048201526024808201527f4552433732313a207472616e7366657220746f20746865207a65726f206164646044820152637265737360e01b60648201526084016108e9565b613013838383600161325b565b826001600160a01b031661302682611e2b565b6001600160a01b03161461304c5760405162461bcd60e51b81526004016108e990614055565b600081815260046020908152604080832080546001600160a01b03199081169091556001600160a01b0387811680865260038552838620805460001901905590871680865283862080546001019055868652600290945282852080549092168417909155905184937fddf252ad1be2c89b69c2b068fc378daa952ba7f163c4a11628f55a4df523b3ef91a4505050565b60065460ff166110bf5760405162461bcd60e51b815260206004820152601460248201527314185d5cd8589b194e881b9bdd081c185d5cd95960621b60448201526064016108e9565b61312f82826132ce565b600090815260096020526040902080546001600160a01b0319166001600160a01b0392909216919091179055565b60006001600160a01b0384163b1561325057604051630a85bd0160e11b81526001600160a01b0385169063150b7a02906131a190339089908890889060040161409a565b6020604051808303816000875af19250505080156131dc575060408051601f3d908101601f191682019092526131d9918101906140cd565b60015b613236573d80801561320a576040519150601f19603f3d011682016040523d82523d6000602084013e61320f565b606091505b50805161322e5760405162461bcd60e51b81526004016108e990614003565b805181602001fd5b6001600160e01b031916630a85bd0160e11b149050611568565b506001949350505050565b61326784848484613467565b60065460ff1615610a335760405162461bcd60e51b815260206004820152602b60248201527f4552433732315061757361626c653a20746f6b656e207472616e73666572207760448201526a1a1a5b19481c185d5cd95960aa1b60648201526084016108e9565b6001600160a01b0382166133245760405162461bcd60e51b815260206004820181905260248201527f4552433732313a206d696e7420746f20746865207a65726f206164647265737360448201526064016108e9565b6000818152600960205260409020546001600160a01b0316156133895760405162461bcd60e51b815260206004820152601c60248201527f4552433732313a20746f6b656e20616c7265616479206d696e7465640000000060448201526064016108e9565b61339760008383600161325b565b6000818152600960205260409020546001600160a01b0316156133fc5760405162461bcd60e51b815260206004820152601c60248201527f4552433732313a20746f6b656e20616c7265616479206d696e7465640000000060448201526064016108e9565b6001600160a01b038216600081815260036020908152604080832080546001019055848352600290915280822080546001600160a01b0319168417905551839291907fddf252ad1be2c89b69c2b068fc378daa952ba7f163c4a11628f55a4df523b3ef908290a45050565b6001811115610a33576001600160a01b038416156134ad576001600160a01b038416600090815260036020526040812080548392906134a7908490613fec565b90915550505b6001600160a01b03831615610a33576001600160a01b038316600090815260036020526040812080548392906134e4908490613e35565b909155505050505050565b8280546134fb90613d7b565b90600052602060002090601f01602090048101928261351d5760008555613563565b82601f1061353657805160ff1916838001178555613563565b82800160010185558215613563579182015b82811115613563578251825591602001919060010190613548565b5061356f9291506135c8565b5090565b828054828255906000526020600020908101928215613563579160200282015b8281111561356357825182546001600160a01b0319166001600160a01b03909116178255602090920191600190910190613593565b5b8082111561356f57600081556001016135c9565b6001600160e01b031981168114610bfe57600080fd5b60006020828403121561360557600080fd5b8135613610816135dd565b9392505050565b60005b8381101561363257818101518382015260200161361a565b83811115610a335750506000910152565b6000815180845261365b816020860160208601613617565b601f01601f19169290920160200192915050565b6020815260006136106020830184613643565b60006020828403121561369457600080fd5b5035919050565b6001600160a01b0381168114610bfe57600080fd5b80356136bb8161369b565b919050565b600080604083850312156136d357600080fd5b82356136de8161369b565b946020939093013593505050565b6000602082840312156136fe57600080fd5b81356136108161369b565b60008060006060848603121561371e57600080fd5b83356137298161369b565b925060208401356137398161369b565b929592945050506040919091013590565b6000806040838503121561375d57600080fd5b50508035926020909101359150565b8015158114610bfe57600080fd5b80356136bb8161376c565b60006020828403121561379757600080fd5b81356136108161376c565b634e487b7160e01b600052604160045260246000fd5b6040516101a0810167ffffffffffffffff811182821017156137dc576137dc6137a2565b60405290565b604051601f8201601f1916810167ffffffffffffffff8111828210171561380b5761380b6137a2565b604052919050565b600067ffffffffffffffff82111561382d5761382d6137a2565b5060051b60200190565b600067ffffffffffffffff821115613851576138516137a2565b50601f01601f191660200190565b600082601f83011261387057600080fd5b813561388361387e82613837565b6137e2565b81815284602083860101111561389857600080fd5b816020850160208301376000918101602001919091529392505050565b600080604083850312156138c857600080fd5b82356138d38161369b565b915060208381013567ffffffffffffffff808211156138f157600080fd5b818601915086601f83011261390557600080fd5b813561391361387e82613813565b81815260059190911b8301840190848101908983111561393257600080fd5b8585015b8381101561396a5780358581111561394e5760008081fd5b61395c8c89838a010161385f565b845250918601918601613936565b508096505050505050509250929050565b6001600160a01b038d168152602081018c905262ffffff8b811660408301528a811660608301528981166080830152881660a08201526101a060c082018190526000906139ca8382018a613643565b90508760e08401526139e86101008401886001600160a01b03169052565b8281036101208401526139fb8187613643565b855161014085015260208601516101608501529150613a179050565b826101808301529d9c50505050505050505050505050565b60008060408385031215613a4257600080fd5b8235613a4d8161369b565b91506020830135613a5d8161376c565b809150509250929050565b60008060008060808587031215613a7e57600080fd5b8435613a898161369b565b93506020850135613a998161369b565b925060408501359150606085013567ffffffffffffffff811115613abc57600080fd5b613ac88782880161385f565b91505092959194509250565b60008060408385031215613ae757600080fd5b8235613af28161369b565b91506020830135613a5d8161369b565b803562ffffff811681146136bb57600080fd5b600060408284031215613b2757600080fd5b6040516040810181811067ffffffffffffffff82111715613b4a57613b4a6137a2565b604052823581526020928301359281019290925250919050565b600082601f830112613b7557600080fd5b81356020613b8561387e83613813565b82815260059290921b84018101918181019086841115613ba457600080fd5b8286015b84811015613bc8578035613bbb8161369b565b8352918301918301613ba8565b509695505050505050565b60008060008060008060c08789031215613bec57600080fd5b863567ffffffffffffffff80821115613c0457600080fd5b908801906101c0828b031215613c1957600080fd5b613c216137b8565b613c2a836136b0565b815260208301356020820152613c4260408401613b02565b6040820152613c5360608401613b02565b6060820152613c6460808401613b02565b6080820152613c7560a08401613b02565b60a082015260c083013582811115613c8c57600080fd5b613c988c82860161385f565b60c08301525060e083013560e0820152610100613cb68185016136b0565b908201526101208381013583811115613cce57600080fd5b613cda8d82870161385f565b828401525050610140613cef8c828601613b15565b908201526101808381013583811115613d0757600080fd5b613d138d828701613b64565b610160840152506101a08401358183015250809850505050613d37602088016136b0565b9450613d45604088016136b0565b9350613d53606088016136b0565b9250613d61608088016136b0565b9150613d6f60a0880161377a565b90509295509295509295565b600181811c90821680613d8f57607f821691505b60208210811415613db057634e487b7160e01b600052602260045260246000fd5b50919050565b634e487b7160e01b600052601160045260246000fd5b600062ffffff80831681811415613de557613de5613db6565b6001019392505050565b600062ffffff808316818516808303821115613e0d57613e0d613db6565b01949350505050565b6000816000190483118215151615613e3057613e30613db6565b500290565b60008219821115613e4857613e48613db6565b500190565b600060208284031215613e5f57600080fd5b5051919050565b600060208284031215613e7857600080fd5b81516136108161369b565b634e487b7160e01b600052603260045260246000fd5b606081526000613eac6060830186613643565b8460208401528281036040840152613ec48185613643565b9695505050505050565b6000600019821415613ee257613ee2613db6565b5060010190565b600060208284031215613efb57600080fd5b815167ffffffffffffffff811115613f1257600080fd5b8201601f81018413613f2357600080fd5b8051613f3161387e82613837565b818152856020838501011115613f4657600080fd5b613f57826020830160208601613617565b95945050505050565b600060208284031215613f7257600080fd5b81516136108161376c565b6020808252602d908201527f4552433732313a2063616c6c6572206973206e6f7420746f6b656e206f776e6560408201526c1c881bdc88185c1c1c9bdd9959609a1b606082015260800190565b600082613fe757634e487b7160e01b600052601260045260246000fd5b500490565b600082821015613ffe57613ffe613db6565b500390565b60208082526032908201527f4552433732313a207472616e7366657220746f206e6f6e20455243373231526560408201527131b2b4bb32b91034b6b83632b6b2b73a32b960711b606082015260800190565b60208082526025908201527f4552433732313a207472616e736665722066726f6d20696e636f72726563742060408201526437bbb732b960d91b606082015260800190565b6001600160a01b0385811682528416602082015260408101839052608060608201819052600090613ec490830184613643565b6000602082840312156140df57600080fd5b8151613610816135dd56fea26469706673582212204cdfbbe53bcf1a7ee48df09e8fe0c993d412bf81f49f8c876fba224389f4ce9f64736f6c634300080c0033",
  "linkReferences": {},
  "deployedLinkReferences": {}
}