{
  "_format": "hh-sol-artifact-1",
  "contractName": "GenerativeNFT",
  "sourceName": "contracts/nfts/GenerativeNFT.sol",
  "abi": [
    {
      "inputs": [
        {
          "internalType": "string",
          "name": "name",
          "type": "string"
        },
        {
          "internalType": "string",
          "name": "symbol",
          "type": "string"
        }
      ],
      "stateMutability": "nonpayable",
      "type": "constructor"
    },
    {
      "inputs": [
        {
          "internalType": "address",
          "name": "operator",
          "type": "address"
        }
      ],
      "name": "OperatorNotAllowed",
      "type": "error"
    },
    {
      "anonymous": false,
      "inputs": [
        {
          "indexed": true,
          "internalType": "address",
          "name": "owner",
          "type": "address"
        },
        {
          "indexed": true,
          "internalType": "address",
          "name": "approved",
          "type": "address"
        },
        {
          "indexed": true,
          "internalType": "uint256",
          "name": "tokenId",
          "type": "uint256"
        }
      ],
      "name": "Approval",
      "type": "event"
    },
    {
      "anonymous": false,
      "inputs": [
        {
          "indexed": true,
          "internalType": "address",
          "name": "owner",
          "type": "address"
        },
        {
          "indexed": true,
          "internalType": "address",
          "name": "operator",
          "type": "address"
        },
        {
          "indexed": false,
          "internalType": "bool",
          "name": "approved",
          "type": "bool"
        }
      ],
      "name": "ApprovalForAll",
      "type": "event"
    },
    {
      "anonymous": false,
      "inputs": [
        {
          "indexed": true,
          "internalType": "address",
          "name": "previousOwner",
          "type": "address"
        },
        {
          "indexed": true,
          "internalType": "address",
          "name": "newOwner",
          "type": "address"
        }
      ],
      "name": "OwnershipTransferred",
      "type": "event"
    },
    {
      "anonymous": false,
      "inputs": [
        {
          "indexed": false,
          "internalType": "address",
          "name": "account",
          "type": "address"
        }
      ],
      "name": "Paused",
      "type": "event"
    },
    {
      "anonymous": false,
      "inputs": [
        {
          "indexed": true,
          "internalType": "address",
          "name": "from",
          "type": "address"
        },
        {
          "indexed": true,
          "internalType": "address",
          "name": "to",
          "type": "address"
        },
        {
          "indexed": true,
          "internalType": "uint256",
          "name": "tokenId",
          "type": "uint256"
        }
      ],
      "name": "Transfer",
      "type": "event"
    },
    {
      "anonymous": false,
      "inputs": [
        {
          "indexed": false,
          "internalType": "address",
          "name": "account",
          "type": "address"
        }
      ],
      "name": "Unpaused",
      "type": "event"
    },
    {
      "inputs": [],
      "name": "OPERATOR_FILTER_REGISTRY",
      "outputs": [
        {
          "internalType": "contract IOperatorFilterRegistry",
          "name": "",
          "type": "address"
        }
      ],
      "stateMutability": "view",
      "type": "function"
    },
    {
      "inputs": [],
      "name": "_admin",
      "outputs": [
        {
          "internalType": "address",
          "name": "",
          "type": "address"
        }
      ],
      "stateMutability": "view",
      "type": "function"
    },
    {
      "inputs": [],
      "name": "_nameCol",
      "outputs": [
        {
          "internalType": "string",
          "name": "",
          "type": "string"
        }
      ],
      "stateMutability": "view",
      "type": "function"
    },
    {
      "inputs": [],
      "name": "_paramsAddress",
      "outputs": [
        {
          "internalType": "address",
          "name": "",
          "type": "address"
        }
      ],
      "stateMutability": "view",
      "type": "function"
    },
    {
      "inputs": [],
      "name": "_project",
      "outputs": [
        {
          "internalType": "address",
          "name": "_projectAddr",
          "type": "address"
        },
        {
          "internalType": "uint256",
          "name": "_projectId",
          "type": "uint256"
        },
        {
          "internalType": "uint24",
          "name": "_maxSupply",
          "type": "uint24"
        },
        {
          "internalType": "uint24",
          "name": "_limit",
          "type": "uint24"
        },
        {
          "internalType": "uint24",
          "name": "_index",
          "type": "uint24"
        },
        {
          "internalType": "uint24",
          "name": "_indexReserve",
          "type": "uint24"
        },
        {
          "internalType": "string",
          "name": "_creator",
          "type": "string"
        },
        {
          "internalType": "uint256",
          "name": "_mintPrice",
          "type": "uint256"
        },
        {
          "internalType": "address",
          "name": "_mintPriceAddr",
          "type": "address"
        },
        {
          "internalType": "string",
          "name": "_name",
          "type": "string"
        },
        {
          "components": [
            {
              "internalType": "uint256",
              "name": "_initBlockTime",
              "type": "uint256"
            },
            {
              "internalType": "uint256",
              "name": "_openingTime",
              "type": "uint256"
            }
          ],
          "internalType": "struct NFTProject.ProjectMintingSchedule",
          "name": "_mintingSchedule",
          "type": "tuple"
        },
        {
          "internalType": "uint256",
          "name": "_royalty",
          "type": "uint256"
        }
      ],
      "stateMutability": "view",
      "type": "function"
    },
    {
      "inputs": [],
      "name": "_projectDataContextAddr",
      "outputs": [
        {
          "internalType": "address",
          "name": "",
          "type": "address"
        }
      ],
      "stateMutability": "view",
      "type": "function"
    },
    {
      "inputs": [],
      "name": "_randomizer",
      "outputs": [
        {
          "internalType": "address",
          "name": "",
          "type": "address"
        }
      ],
      "stateMutability": "view",
      "type": "function"
    },
    {
      "inputs": [],
      "name": "_royalty",
      "outputs": [
        {
          "internalType": "uint256",
          "name": "",
          "type": "uint256"
        }
      ],
      "stateMutability": "view",
      "type": "function"
    },
    {
      "inputs": [
        {
          "internalType": "address",
          "name": "to",
          "type": "address"
        },
        {
          "internalType": "uint256",
          "name": "tokenId",
          "type": "uint256"
        }
      ],
      "name": "approve",
      "outputs": [],
      "stateMutability": "nonpayable",
      "type": "function"
    },
    {
      "inputs": [
        {
          "internalType": "address",
          "name": "owner",
          "type": "address"
        }
      ],
      "name": "balanceOf",
      "outputs": [
        {
          "internalType": "uint256",
          "name": "",
          "type": "uint256"
        }
      ],
      "stateMutability": "view",
      "type": "function"
    },
    {
      "inputs": [
        {
          "internalType": "address",
          "name": "newAdm",
          "type": "address"
        }
      ],
      "name": "changeAdmin",
      "outputs": [],
      "stateMutability": "nonpayable",
      "type": "function"
    },
    {
      "inputs": [
        {
          "internalType": "address",
          "name": "newAddr",
          "type": "address"
        }
      ],
      "name": "changeDataContextAddr",
      "outputs": [],
      "stateMutability": "nonpayable",
      "type": "function"
    },
    {
      "inputs": [
        {
          "internalType": "address",
          "name": "newAddr",
          "type": "address"
        }
      ],
      "name": "changeParamAddr",
      "outputs": [],
      "stateMutability": "nonpayable",
      "type": "function"
    },
    {
      "inputs": [
        {
          "internalType": "address",
          "name": "newAddr",
          "type": "address"
        }
      ],
      "name": "changeRandomizerAddr",
      "outputs": [],
      "stateMutability": "nonpayable",
      "type": "function"
    },
    {
      "inputs": [
        {
          "internalType": "uint256",
          "name": "tokenId",
          "type": "uint256"
        }
      ],
      "name": "getApproved",
      "outputs": [
        {
          "internalType": "address",
          "name": "",
          "type": "address"
        }
      ],
      "stateMutability": "view",
      "type": "function"
    },
    {
      "inputs": [],
      "name": "getStatus",
      "outputs": [
        {
          "internalType": "bool",
          "name": "",
          "type": "bool"
        }
      ],
      "stateMutability": "view",
      "type": "function"
    },
    {
      "inputs": [
        {
          "components": [
            {
              "internalType": "address",
              "name": "_projectAddr",
              "type": "address"
            },
            {
              "internalType": "uint256",
              "name": "_projectId",
              "type": "uint256"
            },
            {
              "internalType": "uint24",
              "name": "_maxSupply",
              "type": "uint24"
            },
            {
              "internalType": "uint24",
              "name": "_limit",
              "type": "uint24"
            },
            {
              "internalType": "uint24",
              "name": "_index",
              "type": "uint24"
            },
            {
              "internalType": "uint24",
              "name": "_indexReserve",
              "type": "uint24"
            },
            {
              "internalType": "string",
              "name": "_creator",
              "type": "string"
            },
            {
              "internalType": "uint256",
              "name": "_mintPrice",
              "type": "uint256"
            },
            {
              "internalType": "address",
              "name": "_mintPriceAddr",
              "type": "address"
            },
            {
              "internalType": "string",
              "name": "_name",
              "type": "string"
            },
            {
              "components": [
                {
                  "internalType": "uint256",
                  "name": "_initBlockTime",
                  "type": "uint256"
                },
                {
                  "internalType": "uint256",
                  "name": "_openingTime",
                  "type": "uint256"
                }
              ],
              "internalType": "struct NFTProject.ProjectMintingSchedule",
              "name": "_mintingSchedule",
              "type": "tuple"
            },
            {
              "internalType": "address[]",
              "name": "_reserves",
              "type": "address[]"
            },
            {
              "internalType": "uint256",
              "name": "_royalty",
              "type": "uint256"
            }
          ],
          "internalType": "struct NFTProject.ProjectMinting",
          "name": "project",
          "type": "tuple"
        },
        {
          "internalType": "address",
          "name": "admin",
          "type": "address"
        },
        {
          "internalType": "address",
          "name": "paramsAddr",
          "type": "address"
        },
        {
          "internalType": "address",
          "name": "randomizer",
          "type": "address"
        },
        {
          "internalType": "address",
          "name": "projectDataContextAddr",
          "type": "address"
        },
        {
          "internalType": "bool",
          "name": "disable",
          "type": "bool"
        }
      ],
      "name": "init",
      "outputs": [],
      "stateMutability": "nonpayable",
      "type": "function"
    },
    {
      "inputs": [
        {
          "internalType": "address",
          "name": "owner",
          "type": "address"
        },
        {
          "internalType": "address",
          "name": "operator",
          "type": "address"
        }
      ],
      "name": "isApprovedForAll",
      "outputs": [
        {
          "internalType": "bool",
          "name": "",
          "type": "bool"
        }
      ],
      "stateMutability": "view",
      "type": "function"
    },
    {
      "inputs": [],
      "name": "mint",
      "outputs": [
        {
          "internalType": "uint256",
          "name": "tokenId",
          "type": "uint256"
        }
      ],
      "stateMutability": "payable",
      "type": "function"
    },
    {
      "inputs": [],
      "name": "name",
      "outputs": [
        {
          "internalType": "string",
          "name": "",
          "type": "string"
        }
      ],
      "stateMutability": "view",
      "type": "function"
    },
    {
      "inputs": [],
      "name": "owner",
      "outputs": [
        {
          "internalType": "address",
          "name": "",
          "type": "address"
        }
      ],
      "stateMutability": "view",
      "type": "function"
    },
    {
      "inputs": [
        {
          "internalType": "uint256",
          "name": "tokenId",
          "type": "uint256"
        }
      ],
      "name": "ownerOf",
      "outputs": [
        {
          "internalType": "address",
          "name": "",
          "type": "address"
        }
      ],
      "stateMutability": "view",
      "type": "function"
    },
    {
      "inputs": [],
      "name": "paused",
      "outputs": [
        {
          "internalType": "bool",
          "name": "",
          "type": "bool"
        }
      ],
      "stateMutability": "view",
      "type": "function"
    },
    {
      "inputs": [],
      "name": "renounceOwnership",
      "outputs": [],
      "stateMutability": "nonpayable",
      "type": "function"
    },
    {
      "inputs": [],
      "name": "reserveMint",
      "outputs": [
        {
          "internalType": "uint256",
          "name": "tokenId",
          "type": "uint256"
        }
      ],
      "stateMutability": "payable",
      "type": "function"
    },
    {
      "inputs": [
        {
          "internalType": "uint256",
          "name": "_tokenId",
          "type": "uint256"
        },
        {
          "internalType": "uint256",
          "name": "_salePrice",
          "type": "uint256"
        }
      ],
      "name": "royaltyInfo",
      "outputs": [
        {
          "internalType": "address",
          "name": "receiver",
          "type": "address"
        },
        {
          "internalType": "uint256",
          "name": "royaltyAmount",
          "type": "uint256"
        }
      ],
      "stateMutability": "view",
      "type": "function"
    },
    {
      "inputs": [
        {
          "internalType": "address",
          "name": "from",
          "type": "address"
        },
        {
          "internalType": "address",
          "name": "to",
          "type": "address"
        },
        {
          "internalType": "uint256",
          "name": "tokenId",
          "type": "uint256"
        }
      ],
      "name": "safeTransferFrom",
      "outputs": [],
      "stateMutability": "nonpayable",
      "type": "function"
    },
    {
      "inputs": [
        {
          "internalType": "address",
          "name": "from",
          "type": "address"
        },
        {
          "internalType": "address",
          "name": "to",
          "type": "address"
        },
        {
          "internalType": "uint256",
          "name": "tokenId",
          "type": "uint256"
        },
        {
          "internalType": "bytes",
          "name": "data",
          "type": "bytes"
        }
      ],
      "name": "safeTransferFrom",
      "outputs": [],
      "stateMutability": "nonpayable",
      "type": "function"
    },
    {
      "inputs": [
        {
          "internalType": "address",
          "name": "operator",
          "type": "address"
        },
        {
          "internalType": "bool",
          "name": "approved",
          "type": "bool"
        }
      ],
      "name": "setApprovalForAll",
      "outputs": [],
      "stateMutability": "nonpayable",
      "type": "function"
    },
    {
      "inputs": [
        {
          "internalType": "bool",
          "name": "enable",
          "type": "bool"
        }
      ],
      "name": "setStatus",
      "outputs": [],
      "stateMutability": "nonpayable",
      "type": "function"
    },
    {
      "inputs": [
        {
          "internalType": "bytes4",
          "name": "interfaceId",
          "type": "bytes4"
        }
      ],
      "name": "supportsInterface",
      "outputs": [
        {
          "internalType": "bool",
          "name": "",
          "type": "bool"
        }
      ],
      "stateMutability": "view",
      "type": "function"
    },
    {
      "inputs": [],
      "name": "symbol",
      "outputs": [
        {
          "internalType": "string",
          "name": "",
          "type": "string"
        }
      ],
      "stateMutability": "view",
      "type": "function"
    },
    {
      "inputs": [
        {
          "internalType": "uint256",
          "name": "tokenId",
          "type": "uint256"
        }
      ],
      "name": "tokenGenerativeURI",
      "outputs": [
        {
          "internalType": "string",
          "name": "",
          "type": "string"
        }
      ],
      "stateMutability": "view",
      "type": "function"
    },
    {
      "inputs": [
        {
          "internalType": "uint256",
          "name": "tokenId",
          "type": "uint256"
        }
      ],
      "name": "tokenURI",
      "outputs": [
        {
          "internalType": "string",
          "name": "",
          "type": "string"
        }
      ],
      "stateMutability": "view",
      "type": "function"
    },
    {
      "inputs": [
        {
          "internalType": "address",
          "name": "from",
          "type": "address"
        },
        {
          "internalType": "address",
          "name": "to",
          "type": "address"
        },
        {
          "internalType": "uint256",
          "name": "tokenId",
          "type": "uint256"
        }
      ],
      "name": "transferFrom",
      "outputs": [],
      "stateMutability": "nonpayable",
      "type": "function"
    },
    {
      "inputs": [
        {
          "internalType": "address",
          "name": "newOwner",
          "type": "address"
        }
      ],
      "name": "transferOwnership",
      "outputs": [],
      "stateMutability": "nonpayable",
      "type": "function"
    }
  ],
  "bytecode": "0x60806040523480156200001157600080fd5b5060405162003fa838038062003fa88339810160408190526200003491620003b0565b733cc6cdda760b79bafa08df41ecfa224f810dceb66001838381818160009080519060200190620000679291906200023d565b5080516200007d9060019060208401906200023d565b50506006805460ff191690555060016007556200009a33620001eb565b50506daaeb6d7670e522a718067333cd4e3b15620001e15780156200012f57604051633e9f1edf60e11b81523060048201526001600160a01b03831660248201526daaeb6d7670e522a718067333cd4e90637d3e3dbe906044015b600060405180830381600087803b1580156200011057600080fd5b505af115801562000125573d6000803e3d6000fd5b50505050620001e1565b6001600160a01b03821615620001805760405163a0af290360e01b81523060048201526001600160a01b03831660248201526daaeb6d7670e522a718067333cd4e9063a0af290390604401620000f5565b604051632210724360e11b81523060048201526daaeb6d7670e522a718067333cd4e90634420e48690602401600060405180830381600087803b158015620001c757600080fd5b505af1158015620001dc573d6000803e3d6000fd5b505050505b5050505062000457565b600880546001600160a01b038381166001600160a01b0319831681179093556040519116919082907f8be0079c531659141344cd1fd0a4f28419497f9722a3daafe3b4186f6b6457e090600090a35050565b8280546200024b906200041a565b90600052602060002090601f0160209004810192826200026f5760008555620002ba565b82601f106200028a57805160ff1916838001178555620002ba565b82800160010185558215620002ba579182015b82811115620002ba5782518255916020019190600101906200029d565b50620002c8929150620002cc565b5090565b5b80821115620002c85760008155600101620002cd565b634e487b7160e01b600052604160045260246000fd5b600082601f8301126200030b57600080fd5b81516001600160401b0380821115620003285762000328620002e3565b604051601f8301601f19908116603f01168101908282118183101715620003535762000353620002e3565b816040528381526020925086838588010111156200037057600080fd5b600091505b8382101562000394578582018301518183018401529082019062000375565b83821115620003a65760008385830101525b9695505050505050565b60008060408385031215620003c457600080fd5b82516001600160401b0380821115620003dc57600080fd5b620003ea86838701620002f9565b935060208501519150808211156200040157600080fd5b506200041085828601620002f9565b9150509250929050565b600181811c908216806200042f57607f821691505b602082108114156200045157634e487b7160e01b600052602260045260246000fd5b50919050565b613b4180620004676000396000f3fe60806040526004361061020f5760003560e01c80635c40f6f411610118578063a22cb465116100a0578063e985e9c51161006f578063e985e9c514610607578063f2fde38b14610650578063fc23745214610670578063febfd6c314610690578063ffc27c0e146106b057600080fd5b8063a22cb46514610587578063adfc7dae146105a7578063b88d4fde146105c7578063c87b56dd146105e757600080fd5b8063715018a6116100e7578063715018a6146104f2578063775bff9f146105075780638da5cb5b146105345780638f2839701461055257806395d89b411461057257600080fd5b80635c40f6f4146104645780635c975abb146104845780636352211e1461049c57806370a08231146104d257600080fd5b806323b872dd1161019b57806342842e0e1161016a57806342842e0e146103da578063452fa3d3146103fa578063472f1e021461040f5780634e69d5601461042f578063575b57ea1461044457600080fd5b806323b872dd146103435780632a55205a146103635780633b66b00a146103a257806341f43434146103b857600080fd5b8063095ea7b3116101e2578063095ea7b3146102c357806310da88c5146102e55780631249c58b146103055780631ca9741b1461031b57806321c8d6761461033b57600080fd5b806301bc45c91461021457806301ffc9a71461025157806306fdde0314610281578063081812fc146102a3575b600080fd5b34801561022057600080fd5b50600a54610234906001600160a01b031681565b6040516001600160a01b0390911681526020015b60405180910390f35b34801561025d57600080fd5b5061027161026c3660046130b4565b6106d0565b6040519015158152602001610248565b34801561028d57600080fd5b50610296610716565b6040516102489190613130565b3480156102af57600080fd5b506102346102be366004613143565b6107a8565b3480156102cf57600080fd5b506102e36102de366004613181565b6107cf565b005b3480156102f157600080fd5b50610296610300366004613143565b6108ea565b61030d6109d2565b604051908152602001610248565b34801561032757600080fd5b506102e36103363660046131ad565b610be5565b61030d610c64565b34801561034f57600080fd5b506102e361035e3660046131ca565b610f65565b34801561036f57600080fd5b5061038361037e36600461320b565b610f90565b604080516001600160a01b039093168352602083019190915201610248565b3480156103ae57600080fd5b5061030d600f5481565b3480156103c457600080fd5b506102346daaeb6d7670e522a718067333cd4e81565b3480156103e657600080fd5b506102e36103f53660046131ca565b610fa8565b34801561040657600080fd5b50610296610fcd565b34801561041b57600080fd5b506102e361042a3660046131ad565b61105b565b34801561043b57600080fd5b506102716110da565b34801561045057600080fd5b50600d54610234906001600160a01b031681565b34801561047057600080fd5b506102e361047f366004613246565b6110ee565b34801561049057600080fd5b5060065460ff16610271565b3480156104a857600080fd5b506102346104b7366004613143565b6000908152600960205260409020546001600160a01b031690565b3480156104de57600080fd5b5061030d6104ed3660046131ad565b611158565b3480156104fe57600080fd5b506102e36111de565b34801561051357600080fd5b5061051c6111f2565b6040516102489c9b9a99989796959493929190613263565b34801561054057600080fd5b50600a546001600160a01b0316610234565b34801561055e57600080fd5b506102e361056d3660046131ad565b611391565b34801561057e57600080fd5b50610296611410565b34801561059357600080fd5b506102e36105a2366004613317565b6114ae565b3480156105b357600080fd5b50600b54610234906001600160a01b031681565b3480156105d357600080fd5b506102e36105e2366004613427565b6114bd565b3480156105f357600080fd5b50610296610602366004613143565b6114ea565b34801561061357600080fd5b506102716106223660046134a7565b6001600160a01b03918216600090815260056020908152604080832093909416825291909152205460ff1690565b34801561065c57600080fd5b506102e361066b3660046131ad565b611589565b34801561067c57600080fd5b506102e361068b3660046135e0565b6115ff565b34801561069c57600080fd5b506102e36106ab3660046131ad565b611900565b3480156106bc57600080fd5b50600c54610234906001600160a01b031681565b60006001600160e01b031982166302734eab60e51b148061070157506001600160e01b0319821663152a902d60e11b145b8061071057506107108261197f565b92915050565b6060600e805461072590613788565b80601f016020809104026020016040519081016040528092919081815260200182805461075190613788565b801561079e5780601f106107735761010080835404028352916020019161079e565b820191906000526020600020905b81548152906001019060200180831161078157829003601f168201915b5050505050905090565b60006107b3826119cf565b506000908152600460205260409020546001600160a01b031690565b60006107da82611a1f565b9050806001600160a01b0316836001600160a01b0316141561084d5760405162461bcd60e51b815260206004820152602160248201527f4552433732313a20617070726f76616c20746f2063757272656e74206f776e656044820152603960f91b60648201526084015b60405180910390fd5b336001600160a01b038216148061086957506108698133610622565b6108db5760405162461bcd60e51b815260206004820152603d60248201527f4552433732313a20617070726f76652063616c6c6572206973206e6f7420746f60448201527f6b656e206f776e6572206f7220617070726f76656420666f7220616c6c0000006064820152608401610844565b6108e58383611a7f565b505050565b60606108f582611aed565b6040518060400160405280600381526020016232303960e81b8152509061092f5760405162461bcd60e51b81526004016108449190613130565b50600d546001600160a01b0316600061094784611b0a565b601154604051639413930160e01b8152600481019190915260248101869052604481018290529091506001600160a01b038316906394139301906064015b600060405180830381865afa1580156109a2573d6000803e3d6000fd5b505050506040513d6000823e601f3d908101601f191682016040526109ca91908101906137c3565b949350505050565b60006109dc611bd6565b60185415610a235760185460408051808201909152600381526206460760eb1b6020820152904211610a215760405162461bcd60e51b81526004016108449190613130565b505b60128054600160301b900462ffffff16906006610a3f83613850565b82546101009290920a62ffffff818102199093169183160217909155601254630100000081048216600160301b90910490911611159050610a7f57600080fd5b60125462ffffff80821691610aa591600160481b8204811691600160301b900416613873565b62ffffff161415610b1657601054601154604051631122f8a960e11b815260048101919091526001600160a01b03909116908190632245f15290602401600060405180830381600087803b158015610afc57600080fd5b505af1158015610b10573d6000803e3d6000fd5b50505050505b601254601154600160301b90910462ffffff1690610b3890620f42409061389a565b610b4291906138b9565b9050610b4e3382611c30565b600c54604051631da00d8560e01b8152600481018390526001600160a01b03909116906000908290631da00d85906024016020604051808303816000875af1158015610b9e573d6000803e3d6000fd5b505050506040513d601f19601f82011682018060405250810190610bc291906138d1565b9050610bce8382611c4a565b610bd6611d13565b5050610be26001600755565b90565b600a546001600160a01b031633148015610c0757506001600160a01b03811615155b6040518060400160405280600381526020016231303160e81b81525090610c415760405162461bcd60e51b81526004016108449190613130565b50600c80546001600160a01b0319166001600160a01b0392909216919091179055565b6000610c6e611bd6565b60128054600160481b900462ffffff16906009610c8a83613850565b82546101009290920a62ffffff8181021990931691831602179091556012548082169250610cc99163010000008204811691600160481b900416613873565b62ffffff161115610cd957600080fd5b60125462ffffff80821691610cff91600160481b8204811691600160301b900416613873565b62ffffff161415610d7057601054601154604051631122f8a960e11b815260048101919091526001600160a01b03909116908190632245f15290602401600060405180830381600087803b158015610d5657600080fd5b505af1158015610d6a573d6000803e3d6000fd5b50505050505b601054336000908152601b60205260409020546001600160a01b039091169060ff1680610e1a57506011546040516331a9108f60e11b815260048101919091526001600160a01b03821690636352211e90602401602060405180830381865afa158015610de1573d6000803e3d6000fd5b505050506040513d601f19601f82011682018060405250810190610e0591906138ea565b6001600160a01b0316336001600160a01b0316145b610e2357600080fd5b336000908152601b602052604090205460ff168015610e43575060185415155b15610e875760185460408051808201909152600381526206460760eb1b6020820152904211610e855760405162461bcd60e51b81526004016108449190613130565b505b601254610ea99062ffffff63010000008204811691600160481b900416613873565b62ffffff16620f4240601060010154610ec2919061389a565b610ecc91906138b9565b9150610ed83383611c30565b600c54604051631da00d8560e01b8152600481018490526001600160a01b03909116906000908290631da00d85906024016020604051808303816000875af1158015610f28573d6000803e3d6000fd5b505050506040513d601f19601f82011682018060405250810190610f4c91906138d1565b9050610f588482611c4a565b505050610be26001600755565b826001600160a01b0381163314610f7f57610f7f336122f8565b610f8a8484846123b1565b50505050565b600080610f9d84846123e2565b915091509250929050565b826001600160a01b0381163314610fc257610fc2336122f8565b610f8a84848461257c565b600e8054610fda90613788565b80601f016020809104026020016040519081016040528092919081815260200182805461100690613788565b80156110535780601f1061102857610100808354040283529160200191611053565b820191906000526020600020905b81548152906001019060200180831161103657829003601f168201915b505050505081565b600a546001600160a01b03163314801561107d57506001600160a01b03811615155b6040518060400160405280600381526020016231303160e81b815250906110b75760405162461bcd60e51b81526004016108449190613130565b50600d80546001600160a01b0319166001600160a01b0392909216919091179055565b60006110e860065460ff1690565b15905090565b600a546001600160a01b031633148061111157506010546001600160a01b031633145b6040518060400160405280600381526020016231303160e81b8152509061114b5760405162461bcd60e51b81526004016108449190613130565b5061115581612597565b50565b60006001600160a01b0382166111c25760405162461bcd60e51b815260206004820152602960248201527f4552433732313a2061646472657373207a65726f206973206e6f7420612076616044820152683634b21037bbb732b960b91b6064820152608401610844565b506001600160a01b031660009081526003602052604090205490565b6111e66125ad565b6111f06000612619565b565b60108054601154601254601380546001600160a01b0390941694929362ffffff8084169463010000008504821694600160301b8104831694600160481b9091049092169290919061124290613788565b80601f016020809104026020016040519081016040528092919081815260200182805461126e90613788565b80156112bb5780601f10611290576101008083540402835291602001916112bb565b820191906000526020600020905b81548152906001019060200180831161129e57829003601f168201915b5050505060048301546005840154600685018054949592946001600160a01b039092169350906112ea90613788565b80601f016020809104026020016040519081016040528092919081815260200182805461131690613788565b80156113635780601f1061133857610100808354040283529160200191611363565b820191906000526020600020905b81548152906001019060200180831161134657829003601f168201915b5050604080518082019091526007860154815260088601546020820152600a9095015493949392508e915050565b600a546001600160a01b0316331480156113b357506001600160a01b03811615155b6040518060400160405280600381526020016231303160e81b815250906113ed5760405162461bcd60e51b81526004016108449190613130565b50600a80546001600160a01b0319166001600160a01b0392909216919091179055565b60606114a960016003600e805461142690613788565b80601f016020809104026020016040519081016040528092919081815260200182805461145290613788565b801561149f5780601f106114745761010080835404028352916020019161149f565b820191906000526020600020905b81548152906001019060200180831161148257829003601f168201915b505050505061266b565b905090565b6114b9338383612752565b5050565b836001600160a01b03811633146114d7576114d7336122f8565b6114e385858585612821565b5050505050565b60606114f582611aed565b6040518060400160405280600381526020016232303960e81b8152509061152f5760405162461bcd60e51b81526004016108449190613130565b50600d546001600160a01b0316600061154784611b0a565b6011546040516308dd54e960e31b8152600481019190915260248101869052604481018290529091506001600160a01b038316906346eaa74890606401610985565b6115916125ad565b6001600160a01b0381166115f65760405162461bcd60e51b815260206004820152602660248201527f4f776e61626c653a206e6577206f776e657220697320746865207a65726f206160448201526564647265737360d01b6064820152608401610844565b61115581612619565b600a5460408051808201909152600381526219181960e91b6020820152906001600160a01b0316156116445760405162461bcd60e51b81526004016108449190613130565b5060408051808201909152600381526203130360ec1b60208201526001600160a01b0386166116865760405162461bcd60e51b81526004016108449190613130565b508551601080546001600160a01b039092166001600160a01b031990921691909117815560208088015160115560408801516012805460608b015160808c015160a08d015162ffffff908116600160481b026bffffff00000000000000000019928216600160301b02929092166bffffffffffff0000000000001993821663010000000265ffffffffffff19909516919096161792909217169290921791909117905560c0880151805189939261174292601392910190612fb0565b5060e082015160048201556101008201516005820180546001600160a01b0319166001600160a01b039092169190911790556101208201518051611790916006840191602090910190612fb0565b5061014082015180516007830155602090810151600883015561016083015180516117c19260098501920190613034565b506101809190910151600a91820155600b80546001600160a01b038088166001600160a01b031992831617909255825488831690821617909255600c8054868316908416179055600d80549185169190921617905561012086015160c0870151604051611832929190602001613907565b604051602081830303815290604052600e9080519060200190611856929190612fb0565b5060005b866101600151518110156118c9576001601b6000896101600151848151811061188557611885613946565b6020908102919091018101516001600160a01b03168252810191909152604001600020805460ff1916911515919091179055806118c18161395c565b91505061185a565b50600a546118df906001600160a01b0316611589565b80156118ed576118ed612853565b5050426017555050506101800151600f55565b600a546001600160a01b03163314801561192257506001600160a01b03811615155b6040518060400160405280600381526020016231303160e81b8152509061195c5760405162461bcd60e51b81526004016108449190613130565b50600b80546001600160a01b0319166001600160a01b0392909216919091179055565b60006001600160e01b031982166380ac58cd60e01b14806119b057506001600160e01b03198216635b5e139f60e01b145b8061071057506301ffc9a760e01b6001600160e01b0319831614610710565b6119d881611aed565b6111555760405162461bcd60e51b8152602060048201526018602482015277115490cdcc8c4e881a5b9d985b1a59081d1bdad95b88125160421b6044820152606401610844565b6000818152600260205260408120546001600160a01b0316806107105760405162461bcd60e51b8152602060048201526018602482015277115490cdcc8c4e881a5b9d985b1a59081d1bdad95b88125160421b6044820152606401610844565b600081815260046020526040902080546001600160a01b0319166001600160a01b0384169081179091558190611ab482611a1f565b6001600160a01b03167f8c5be1e5ebec7d5bd14f71427d1e84f3dd0314c0f7b2291e5b200ac8c7c3b92560405160405180910390a45050565b6000908152600960205260409020546001600160a01b0316151590565b6000611b1582611aed565b6040518060400160405280600381526020016232303960e81b81525090611b4f5760405162461bcd60e51b81526004016108449190613130565b50600082815260096020526040902054600160a01b900460a01b6001600160a01b031916611b7f57506000919050565b600082815260096020908152604091829020549151611bb992600160a01b900460a01b91016001600160a01b031991909116815260200190565b604051602081830303815290604052805190602001209050919050565b60026007541415611c295760405162461bcd60e51b815260206004820152601f60248201527f5265656e7472616e637947756172643a207265656e7472616e742063616c6c006044820152606401610844565b6002600755565b6114b98282604051806020016040528060008152506128ad565b600082815260096020908152604091829020548251808401909352600383526219181b60e91b91830191909152600160a01b900460a01b6001600160a01b03191615611ca95760405162461bcd60e51b81526004016108449190613130565b5060408051808201909152600381526232303760e81b602082015281611ce25760405162461bcd60e51b81526004016108449190613130565b50600091825260096020526040909120805460a09290921c600160a01b026001600160a01b03909216919091179055565b60145480611d1e5750565b601054600b54604080518082018252601b81527f44454641554c545f524f59414c54595f46494e5f50455243454e54000000000060208201529051636d12dce160e01b81526001600160a01b0393841693909216916000918391636d12dce191611d8a91600401613130565b602060405180830381865afa158015611da7573d6000803e3d6000fd5b505050506040513d601f19601f82011682018060405250810190611dcb91906138d1565b600a54600b549192506001600160a01b03908116911615611f375760408051808201825260158152744d494e545f4e46545f4f50455241544f525f46454560581b60208201529051636d12dce160e01b81526001600160a01b03851691636d12dce191611e3b9190600401613130565b602060405180830381865afa158015611e58573d6000803e3d6000fd5b505050506040513d601f19601f82011682018060405250810190611e7c91906138d1565b604080518082018252601f81527f4d494e545f4e46545f4f50455241544f525f54524541535552455f41444452006020820152905163bf40fac160e01b81529193506000916001600160a01b0386169163bf40fac191611edf9190600401613130565b602060405180830381865afa158015611efc573d6000803e3d6000fd5b505050506040513d601f19601f82011682018060405250810190611f2091906138ea565b90506001600160a01b03811615611f35578091505b505b6015546001600160a01b0316806120b75785341015611f5557600080fd5b6011546040516331a9108f60e11b81526000916001600160a01b03881691636352211e91611f899160040190815260200190565b602060405180830381865afa158015611fa6573d6000803e3d6000fd5b505050506040513d601f19601f82011682018060405250810190611fca91906138ea565b6001600160a01b0316612710611fe0868a61389a565b611fea9190613977565b611ff49089613999565b604051600081818185875af1925050503d8060008114612030576040519150601f19603f3d011682016040523d82523d6000602084013e612035565b606091505b505090508061204357600080fd5b83156120b1576001600160a01b038316612710612060868a61389a565b61206a9190613977565b604051600081818185875af1925050503d80600081146120a6576040519150601f19603f3d011682016040523d82523d6000602084013e6120ab565b606091505b50909150505b506122f0565b6040516323b872dd60e01b81523360048201523060248201526044810187905281906001600160a01b038216906323b872dd906064016020604051808303816000875af115801561210c573d6000803e3d6000fd5b505050506040513d601f19601f8201168201806040525081019061213091906139b0565b61213957600080fd5b6011546040516331a9108f60e11b815260048101919091526001600160a01b038281169163a9059cbb91891690636352211e90602401602060405180830381865afa15801561218c573d6000803e3d6000fd5b505050506040513d601f19601f820116820180604052508101906121b091906138ea565b6127106121bd888c61389a565b6121c79190613977565b6121d1908b613999565b6040516001600160e01b031960e085901b1681526001600160a01b03909216600483015260248201526044016020604051808303816000875af115801561221c573d6000803e3d6000fd5b505050506040513d601f19601f8201168201806040525081019061224091906139b0565b61224957600080fd5b83156122ee576001600160a01b03811663a9059cbb8461271061226c888c61389a565b6122769190613977565b6040516001600160e01b031960e085901b1681526001600160a01b03909216600483015260248201526044016020604051808303816000875af11580156122c1573d6000803e3d6000fd5b505050506040513d601f19601f820116820180604052508101906122e591906139b0565b6122ee57600080fd5b505b505050505050565b6daaeb6d7670e522a718067333cd4e3b1561115557604051633185c44d60e21b81523060048201526001600160a01b03821660248201526daaeb6d7670e522a718067333cd4e9063c617113490604401602060405180830381865afa158015612365573d6000803e3d6000fd5b505050506040513d601f19601f8201168201806040525081019061238991906139b0565b61115557604051633b79c77360e21b81526001600160a01b0382166004820152602401610844565b6123bb33826128e0565b6123d75760405162461bcd60e51b8152600401610844906139cd565b6108e583838361295e565b600a54600f54600b546001600160a01b039283169260009291161561255b57600b546040805180820182526013815272524f59414c54595f46494e5f4144445245535360681b6020820152905163bf40fac160e01b81526001600160a01b0390921691600091839163bf40fac19161245c91600401613130565b602060405180830381865afa158015612479573d6000803e3d6000fd5b505050506040513d601f19601f8201168201806040525081019061249d91906138ea565b90506001600160a01b038116156124b2578094505b8261255857604080518082018252601b81527f44454641554c545f524f59414c54595f46494e5f50455243454e54000000000060208201529051636d12dce160e01b81526001600160a01b03841691636d12dce1916125149190600401613130565b602060405180830381865afa158015612531573d6000803e3d6000fd5b505050506040513d601f19601f8201168201806040525081019061255591906138d1565b92505b50505b612710612568828661389a565b6125729190613977565b9150509250929050565b6108e5838383604051806020016040528060008152506114bd565b80156125a557611155612998565b611155612853565b336125c0600a546001600160a01b031690565b6001600160a01b031614806125df57506010546001600160a01b031633145b6040518060400160405280600381526020016203130360ec1b815250906111555760405162461bcd60e51b81526004016108449190613130565b600880546001600160a01b038381166001600160a01b0319831681179093556040519116919082907f8be0079c531659141344cd1fd0a4f28419497f9722a3daafe3b4186f6b6457e090600090a35050565b606060006126798585613999565b6126849060016138b9565b67ffffffffffffffff81111561269c5761269c613350565b6040519080825280601f01601f1916602001820160405280156126c6576020820181803683370190505b50905060005b6126d68686613999565b8111612749578360016126e988846138b9565b6126f39190613999565b8151811061270357612703613946565b602001015160f81c60f81b82828151811061272057612720613946565b60200101906001600160f81b031916908160001a905350806127418161395c565b9150506126cc565b50949350505050565b816001600160a01b0316836001600160a01b031614156127b45760405162461bcd60e51b815260206004820152601960248201527f4552433732313a20617070726f766520746f2063616c6c6572000000000000006044820152606401610844565b6001600160a01b03838116600081815260056020908152604080832094871680845294825291829020805460ff191686151590811790915591519182527f17307eab39ab6107e8899845ad3d59bd9653f200f220920489ca2b5937696c31910160405180910390a3505050565b61282b33836128e0565b6128475760405162461bcd60e51b8152600401610844906139cd565b610f8a848484846129d1565b61285b612a04565b6006805460ff191660011790557f62e78cea01bee320cd4e420270b5ea74000d11b0c9f74754ebdbfc544b05a2586128903390565b6040516001600160a01b03909116815260200160405180910390a1565b6128b78383612a4a565b6128c46000848484612a82565b6108e55760405162461bcd60e51b815260040161084490613a1a565b6000806128ec83611a1f565b9050806001600160a01b0316846001600160a01b0316148061293357506001600160a01b0380821660009081526005602090815260408083209388168352929052205460ff165b806109ca5750836001600160a01b031661294c846107a8565b6001600160a01b031614949350505050565b612969838383612b80565b600090815260096020526040902080546001600160a01b0319166001600160a01b039290921691909117905550565b6129a0612cf1565b6006805460ff191690557f5db9ee0a495bf2e6ff9c91a7834c1ba4fdd244a5e8aa4e537bd38aeae4b073aa33612890565b6129dc84848461295e565b6129e884848484612a82565b610f8a5760405162461bcd60e51b815260040161084490613a1a565b60065460ff16156111f05760405162461bcd60e51b815260206004820152601060248201526f14185d5cd8589b194e881c185d5cd95960821b6044820152606401610844565b612a548282612d3a565b600090815260096020526040902080546001600160a01b0319166001600160a01b0392909216919091179055565b60006001600160a01b0384163b15612b7557604051630a85bd0160e11b81526001600160a01b0385169063150b7a0290612ac6903390899088908890600401613a6c565b6020604051808303816000875af1925050508015612b01575060408051601f3d908101601f19168201909252612afe91810190613aa9565b60015b612b5b573d808015612b2f576040519150601f19603f3d011682016040523d82523d6000602084013e612b34565b606091505b508051612b535760405162461bcd60e51b815260040161084490613a1a565b805181602001fd5b6001600160e01b031916630a85bd0160e11b1490506109ca565b506001949350505050565b826001600160a01b0316612b9382611a1f565b6001600160a01b031614612bb95760405162461bcd60e51b815260040161084490613ac6565b6001600160a01b038216612c1b5760405162461bcd60e51b8152602060048201526024808201527f4552433732313a207472616e7366657220746f20746865207a65726f206164646044820152637265737360e01b6064820152608401610844565b612c288383836001612eb5565b826001600160a01b0316612c3b82611a1f565b6001600160a01b031614612c615760405162461bcd60e51b815260040161084490613ac6565b600081815260046020908152604080832080546001600160a01b03199081169091556001600160a01b0387811680865260038552838620805460001901905590871680865283862080546001019055868652600290945282852080549092168417909155905184937fddf252ad1be2c89b69c2b068fc378daa952ba7f163c4a11628f55a4df523b3ef91a4505050565b60065460ff166111f05760405162461bcd60e51b815260206004820152601460248201527314185d5cd8589b194e881b9bdd081c185d5cd95960621b6044820152606401610844565b6001600160a01b038216612d905760405162461bcd60e51b815260206004820181905260248201527f4552433732313a206d696e7420746f20746865207a65726f20616464726573736044820152606401610844565b612d9981611aed565b15612de65760405162461bcd60e51b815260206004820152601c60248201527f4552433732313a20746f6b656e20616c7265616479206d696e746564000000006044820152606401610844565b612df4600083836001612eb5565b612dfd81611aed565b15612e4a5760405162461bcd60e51b815260206004820152601c60248201527f4552433732313a20746f6b656e20616c7265616479206d696e746564000000006044820152606401610844565b6001600160a01b038216600081815260036020908152604080832080546001019055848352600290915280822080546001600160a01b0319168417905551839291907fddf252ad1be2c89b69c2b068fc378daa952ba7f163c4a11628f55a4df523b3ef908290a45050565b612ec184848484612f28565b60065460ff1615610f8a5760405162461bcd60e51b815260206004820152602b60248201527f4552433732315061757361626c653a20746f6b656e207472616e73666572207760448201526a1a1a5b19481c185d5cd95960aa1b6064820152608401610844565b6001811115610f8a576001600160a01b03841615612f6e576001600160a01b03841660009081526003602052604081208054839290612f68908490613999565b90915550505b6001600160a01b03831615610f8a576001600160a01b03831660009081526003602052604081208054839290612fa59084906138b9565b909155505050505050565b828054612fbc90613788565b90600052602060002090601f016020900481019282612fde5760008555613024565b82601f10612ff757805160ff1916838001178555613024565b82800160010185558215613024579182015b82811115613024578251825591602001919060010190613009565b50613030929150613089565b5090565b828054828255906000526020600020908101928215613024579160200282015b8281111561302457825182546001600160a01b0319166001600160a01b03909116178255602090920191600190910190613054565b5b80821115613030576000815560010161308a565b6001600160e01b03198116811461115557600080fd5b6000602082840312156130c657600080fd5b81356130d18161309e565b9392505050565b60005b838110156130f35781810151838201526020016130db565b83811115610f8a5750506000910152565b6000815180845261311c8160208601602086016130d8565b601f01601f19169290920160200192915050565b6020815260006130d16020830184613104565b60006020828403121561315557600080fd5b5035919050565b6001600160a01b038116811461115557600080fd5b803561317c8161315c565b919050565b6000806040838503121561319457600080fd5b823561319f8161315c565b946020939093013593505050565b6000602082840312156131bf57600080fd5b81356130d18161315c565b6000806000606084860312156131df57600080fd5b83356131ea8161315c565b925060208401356131fa8161315c565b929592945050506040919091013590565b6000806040838503121561321e57600080fd5b50508035926020909101359150565b801515811461115557600080fd5b803561317c8161322d565b60006020828403121561325857600080fd5b81356130d18161322d565b6001600160a01b038d168152602081018c905262ffffff8b811660408301528a811660608301528981166080830152881660a08201526101a060c082018190526000906132b28382018a613104565b90508760e08401526132d06101008401886001600160a01b03169052565b8281036101208401526132e38187613104565b8551610140850152602086015161016085015291506132ff9050565b826101808301529d9c50505050505050505050505050565b6000806040838503121561332a57600080fd5b82356133358161315c565b915060208301356133458161322d565b809150509250929050565b634e487b7160e01b600052604160045260246000fd5b6040516101a0810167ffffffffffffffff8111828210171561338a5761338a613350565b60405290565b604051601f8201601f1916810167ffffffffffffffff811182821017156133b9576133b9613350565b604052919050565b600067ffffffffffffffff8211156133db576133db613350565b50601f01601f191660200190565b60006133fc6133f7846133c1565b613390565b905082815283838301111561341057600080fd5b828260208301376000602084830101529392505050565b6000806000806080858703121561343d57600080fd5b84356134488161315c565b935060208501356134588161315c565b925060408501359150606085013567ffffffffffffffff81111561347b57600080fd5b8501601f8101871361348c57600080fd5b61349b878235602084016133e9565b91505092959194509250565b600080604083850312156134ba57600080fd5b82356134c58161315c565b915060208301356133458161315c565b803562ffffff8116811461317c57600080fd5b600082601f8301126134f957600080fd5b6130d1838335602085016133e9565b60006040828403121561351a57600080fd5b6040516040810181811067ffffffffffffffff8211171561353d5761353d613350565b604052823581526020928301359281019290925250919050565b600082601f83011261356857600080fd5b8135602067ffffffffffffffff82111561358457613584613350565b8160051b613593828201613390565b92835284810182019282810190878511156135ad57600080fd5b83870192505b848310156135d55782356135c68161315c565b825291830191908301906135b3565b979650505050505050565b60008060008060008060c087890312156135f957600080fd5b863567ffffffffffffffff8082111561361157600080fd5b908801906101c0828b03121561362657600080fd5b61362e613366565b61363783613171565b81526020830135602082015261364f604084016134d5565b6040820152613660606084016134d5565b6060820152613671608084016134d5565b608082015261368260a084016134d5565b60a082015260c08301358281111561369957600080fd5b6136a58c8286016134e8565b60c08301525060e083013560e08201526101006136c3818501613171565b9082015261012083810135838111156136db57600080fd5b6136e78d8287016134e8565b8284015250506101406136fc8c828601613508565b90820152610180838101358381111561371457600080fd5b6137208d828701613557565b610160840152506101a0840135818301525080985050505061374460208801613171565b945061375260408801613171565b935061376060608801613171565b925061376e60808801613171565b915061377c60a0880161323b565b90509295509295509295565b600181811c9082168061379c57607f821691505b602082108114156137bd57634e487b7160e01b600052602260045260246000fd5b50919050565b6000602082840312156137d557600080fd5b815167ffffffffffffffff8111156137ec57600080fd5b8201601f810184136137fd57600080fd5b805161380b6133f7826133c1565b81815285602083850101111561382057600080fd5b6138318260208301602086016130d8565b95945050505050565b634e487b7160e01b600052601160045260246000fd5b600062ffffff808316818114156138695761386961383a565b6001019392505050565b600062ffffff8083168185168083038211156138915761389161383a565b01949350505050565b60008160001904831182151516156138b4576138b461383a565b500290565b600082198211156138cc576138cc61383a565b500190565b6000602082840312156138e357600080fd5b5051919050565b6000602082840312156138fc57600080fd5b81516130d18161315c565b600083516139198184602088016130d8565b63010313c960e51b908301908152835161393a8160048401602088016130d8565b01600401949350505050565b634e487b7160e01b600052603260045260246000fd5b60006000198214156139705761397061383a565b5060010190565b60008261399457634e487b7160e01b600052601260045260246000fd5b500490565b6000828210156139ab576139ab61383a565b500390565b6000602082840312156139c257600080fd5b81516130d18161322d565b6020808252602d908201527f4552433732313a2063616c6c6572206973206e6f7420746f6b656e206f776e6560408201526c1c881bdc88185c1c1c9bdd9959609a1b606082015260800190565b60208082526032908201527f4552433732313a207472616e7366657220746f206e6f6e20455243373231526560408201527131b2b4bb32b91034b6b83632b6b2b73a32b960711b606082015260800190565b6001600160a01b0385811682528416602082015260408101839052608060608201819052600090613a9f90830184613104565b9695505050505050565b600060208284031215613abb57600080fd5b81516130d18161309e565b60208082526025908201527f4552433732313a207472616e736665722066726f6d20696e636f72726563742060408201526437bbb732b960d91b60608201526080019056fea2646970667358221220476d45a1cf19d11fa6c269560e160f7aa0fc75f665bbe506bc0721ca89b3a47164736f6c634300080c0033",
  "linkReferences": {},
  "deployedLinkReferences": {}
}