{
  "_format": "hh-sol-artifact-1",
  "contractName": "GenerativeNFT",
  "sourceName": "contracts/nfts/GenerativeNFT.sol",
  "abi": [
    {
      "inputs": [
        {
          "internalType": "string",
          "name": "name",
          "type": "string"
        },
        {
          "internalType": "string",
          "name": "symbol",
          "type": "string"
        }
      ],
      "stateMutability": "nonpayable",
      "type": "constructor"
    },
    {
      "anonymous": false,
      "inputs": [
        {
          "indexed": true,
          "internalType": "address",
          "name": "owner",
          "type": "address"
        },
        {
          "indexed": true,
          "internalType": "address",
          "name": "approved",
          "type": "address"
        },
        {
          "indexed": true,
          "internalType": "uint256",
          "name": "tokenId",
          "type": "uint256"
        }
      ],
      "name": "Approval",
      "type": "event"
    },
    {
      "anonymous": false,
      "inputs": [
        {
          "indexed": true,
          "internalType": "address",
          "name": "owner",
          "type": "address"
        },
        {
          "indexed": true,
          "internalType": "address",
          "name": "operator",
          "type": "address"
        },
        {
          "indexed": false,
          "internalType": "bool",
          "name": "approved",
          "type": "bool"
        }
      ],
      "name": "ApprovalForAll",
      "type": "event"
    },
    {
      "anonymous": false,
      "inputs": [
        {
          "indexed": true,
          "internalType": "address",
          "name": "previousOwner",
          "type": "address"
        },
        {
          "indexed": true,
          "internalType": "address",
          "name": "newOwner",
          "type": "address"
        }
      ],
      "name": "OwnershipTransferred",
      "type": "event"
    },
    {
      "anonymous": false,
      "inputs": [
        {
          "indexed": false,
          "internalType": "address",
          "name": "account",
          "type": "address"
        }
      ],
      "name": "Paused",
      "type": "event"
    },
    {
      "anonymous": false,
      "inputs": [
        {
          "indexed": true,
          "internalType": "address",
          "name": "from",
          "type": "address"
        },
        {
          "indexed": true,
          "internalType": "address",
          "name": "to",
          "type": "address"
        },
        {
          "indexed": true,
          "internalType": "uint256",
          "name": "tokenId",
          "type": "uint256"
        }
      ],
      "name": "Transfer",
      "type": "event"
    },
    {
      "anonymous": false,
      "inputs": [
        {
          "indexed": false,
          "internalType": "address",
          "name": "account",
          "type": "address"
        }
      ],
      "name": "Unpaused",
      "type": "event"
    },
    {
      "inputs": [],
      "name": "_admin",
      "outputs": [
        {
          "internalType": "address",
          "name": "",
          "type": "address"
        }
      ],
      "stateMutability": "view",
      "type": "function"
    },
    {
      "inputs": [],
      "name": "_paramsAddress",
      "outputs": [
        {
          "internalType": "address",
          "name": "",
          "type": "address"
        }
      ],
      "stateMutability": "view",
      "type": "function"
    },
    {
      "inputs": [],
      "name": "_project",
      "outputs": [
        {
          "internalType": "address",
          "name": "_projectAddr",
          "type": "address"
        },
        {
          "internalType": "uint256",
          "name": "_projectId",
          "type": "uint256"
        },
        {
          "internalType": "uint24",
          "name": "_maxSupply",
          "type": "uint24"
        },
        {
          "internalType": "uint24",
          "name": "_limit",
          "type": "uint24"
        },
        {
          "internalType": "uint24",
          "name": "_index",
          "type": "uint24"
        },
        {
          "internalType": "uint24",
          "name": "_indexReserve",
          "type": "uint24"
        },
        {
          "internalType": "string",
          "name": "_creator",
          "type": "string"
        },
        {
          "internalType": "address",
          "name": "_creatorAddr",
          "type": "address"
        },
        {
          "internalType": "uint256",
          "name": "_mintPrice",
          "type": "uint256"
        },
        {
          "internalType": "address",
          "name": "_mintPriceAddr",
          "type": "address"
        }
      ],
      "stateMutability": "view",
      "type": "function"
    },
    {
      "inputs": [],
      "name": "_projectDataContextAddr",
      "outputs": [
        {
          "internalType": "address",
          "name": "",
          "type": "address"
        }
      ],
      "stateMutability": "view",
      "type": "function"
    },
    {
      "inputs": [],
      "name": "_randomizer",
      "outputs": [
        {
          "internalType": "address",
          "name": "",
          "type": "address"
        }
      ],
      "stateMutability": "view",
      "type": "function"
    },
    {
      "inputs": [
        {
          "internalType": "address",
          "name": "to",
          "type": "address"
        },
        {
          "internalType": "uint256",
          "name": "tokenId",
          "type": "uint256"
        }
      ],
      "name": "approve",
      "outputs": [],
      "stateMutability": "nonpayable",
      "type": "function"
    },
    {
      "inputs": [
        {
          "internalType": "address",
          "name": "owner",
          "type": "address"
        }
      ],
      "name": "balanceOf",
      "outputs": [
        {
          "internalType": "uint256",
          "name": "",
          "type": "uint256"
        }
      ],
      "stateMutability": "view",
      "type": "function"
    },
    {
      "inputs": [
        {
          "internalType": "address",
          "name": "newAdm",
          "type": "address"
        }
      ],
      "name": "changeAdmin",
      "outputs": [],
      "stateMutability": "nonpayable",
      "type": "function"
    },
    {
      "inputs": [
        {
          "internalType": "address",
          "name": "newAddr",
          "type": "address"
        }
      ],
      "name": "changeDataContextAddr",
      "outputs": [],
      "stateMutability": "nonpayable",
      "type": "function"
    },
    {
      "inputs": [
        {
          "internalType": "address",
          "name": "newAddr",
          "type": "address"
        }
      ],
      "name": "changeParamAddr",
      "outputs": [],
      "stateMutability": "nonpayable",
      "type": "function"
    },
    {
      "inputs": [
        {
          "internalType": "address",
          "name": "newAddr",
          "type": "address"
        }
      ],
      "name": "changeRandomizerAddr",
      "outputs": [],
      "stateMutability": "nonpayable",
      "type": "function"
    },
    {
      "inputs": [
        {
          "internalType": "uint256",
          "name": "tokenId",
          "type": "uint256"
        }
      ],
      "name": "getApproved",
      "outputs": [
        {
          "internalType": "address",
          "name": "",
          "type": "address"
        }
      ],
      "stateMutability": "view",
      "type": "function"
    },
    {
      "inputs": [
        {
          "components": [
            {
              "internalType": "address",
              "name": "_projectAddr",
              "type": "address"
            },
            {
              "internalType": "uint256",
              "name": "_projectId",
              "type": "uint256"
            },
            {
              "internalType": "uint24",
              "name": "_maxSupply",
              "type": "uint24"
            },
            {
              "internalType": "uint24",
              "name": "_limit",
              "type": "uint24"
            },
            {
              "internalType": "uint24",
              "name": "_index",
              "type": "uint24"
            },
            {
              "internalType": "uint24",
              "name": "_indexReserve",
              "type": "uint24"
            },
            {
              "internalType": "string",
              "name": "_creator",
              "type": "string"
            },
            {
              "internalType": "address",
              "name": "_creatorAddr",
              "type": "address"
            },
            {
              "internalType": "uint256",
              "name": "_mintPrice",
              "type": "uint256"
            },
            {
              "internalType": "address",
              "name": "_mintPriceAddr",
              "type": "address"
            }
          ],
          "internalType": "struct NFTProject.ProjectMinting",
          "name": "project",
          "type": "tuple"
        },
        {
          "internalType": "address",
          "name": "admin",
          "type": "address"
        },
        {
          "internalType": "address",
          "name": "paramsAddr",
          "type": "address"
        },
        {
          "internalType": "address",
          "name": "randomizer",
          "type": "address"
        },
        {
          "internalType": "address",
          "name": "projectDataContextAddr",
          "type": "address"
        },
        {
          "internalType": "address[]",
          "name": "reserves",
          "type": "address[]"
        }
      ],
      "name": "init",
      "outputs": [],
      "stateMutability": "nonpayable",
      "type": "function"
    },
    {
      "inputs": [
        {
          "internalType": "address",
          "name": "owner",
          "type": "address"
        },
        {
          "internalType": "address",
          "name": "operator",
          "type": "address"
        }
      ],
      "name": "isApprovedForAll",
      "outputs": [
        {
          "internalType": "bool",
          "name": "",
          "type": "bool"
        }
      ],
      "stateMutability": "view",
      "type": "function"
    },
    {
      "inputs": [],
      "name": "mint",
      "outputs": [
        {
          "internalType": "uint256",
          "name": "tokenId",
          "type": "uint256"
        }
      ],
      "stateMutability": "nonpayable",
      "type": "function"
    },
    {
      "inputs": [],
      "name": "name",
      "outputs": [
        {
          "internalType": "string",
          "name": "",
          "type": "string"
        }
      ],
      "stateMutability": "view",
      "type": "function"
    },
    {
      "inputs": [],
      "name": "owner",
      "outputs": [
        {
          "internalType": "address",
          "name": "",
          "type": "address"
        }
      ],
      "stateMutability": "view",
      "type": "function"
    },
    {
      "inputs": [
        {
          "internalType": "uint256",
          "name": "tokenId",
          "type": "uint256"
        }
      ],
      "name": "ownerOf",
      "outputs": [
        {
          "internalType": "address",
          "name": "",
          "type": "address"
        }
      ],
      "stateMutability": "view",
      "type": "function"
    },
    {
      "inputs": [],
      "name": "pause",
      "outputs": [],
      "stateMutability": "nonpayable",
      "type": "function"
    },
    {
      "inputs": [],
      "name": "paused",
      "outputs": [
        {
          "internalType": "bool",
          "name": "",
          "type": "bool"
        }
      ],
      "stateMutability": "view",
      "type": "function"
    },
    {
      "inputs": [],
      "name": "renounceOwnership",
      "outputs": [],
      "stateMutability": "nonpayable",
      "type": "function"
    },
    {
      "inputs": [],
      "name": "reserveMint",
      "outputs": [
        {
          "internalType": "uint256",
          "name": "tokenId",
          "type": "uint256"
        }
      ],
      "stateMutability": "nonpayable",
      "type": "function"
    },
    {
      "inputs": [
        {
          "internalType": "uint256",
          "name": "",
          "type": "uint256"
        }
      ],
      "name": "royalties",
      "outputs": [
        {
          "internalType": "address",
          "name": "recipient",
          "type": "address"
        },
        {
          "internalType": "uint24",
          "name": "amount",
          "type": "uint24"
        },
        {
          "internalType": "bool",
          "name": "isValue",
          "type": "bool"
        }
      ],
      "stateMutability": "view",
      "type": "function"
    },
    {
      "inputs": [
        {
          "internalType": "uint256",
          "name": "_tokenId",
          "type": "uint256"
        },
        {
          "internalType": "uint256",
          "name": "_salePrice",
          "type": "uint256"
        }
      ],
      "name": "royaltyInfo",
      "outputs": [
        {
          "internalType": "address",
          "name": "receiver",
          "type": "address"
        },
        {
          "internalType": "uint256",
          "name": "royaltyAmount",
          "type": "uint256"
        }
      ],
      "stateMutability": "view",
      "type": "function"
    },
    {
      "inputs": [
        {
          "internalType": "address",
          "name": "from",
          "type": "address"
        },
        {
          "internalType": "address",
          "name": "to",
          "type": "address"
        },
        {
          "internalType": "uint256",
          "name": "tokenId",
          "type": "uint256"
        }
      ],
      "name": "safeTransferFrom",
      "outputs": [],
      "stateMutability": "nonpayable",
      "type": "function"
    },
    {
      "inputs": [
        {
          "internalType": "address",
          "name": "from",
          "type": "address"
        },
        {
          "internalType": "address",
          "name": "to",
          "type": "address"
        },
        {
          "internalType": "uint256",
          "name": "tokenId",
          "type": "uint256"
        },
        {
          "internalType": "bytes",
          "name": "data",
          "type": "bytes"
        }
      ],
      "name": "safeTransferFrom",
      "outputs": [],
      "stateMutability": "nonpayable",
      "type": "function"
    },
    {
      "inputs": [
        {
          "internalType": "address",
          "name": "operator",
          "type": "address"
        },
        {
          "internalType": "bool",
          "name": "approved",
          "type": "bool"
        }
      ],
      "name": "setApprovalForAll",
      "outputs": [],
      "stateMutability": "nonpayable",
      "type": "function"
    },
    {
      "inputs": [
        {
          "internalType": "uint256",
          "name": "_tokenId",
          "type": "uint256"
        },
        {
          "internalType": "address",
          "name": "_recipient",
          "type": "address"
        },
        {
          "internalType": "uint256",
          "name": "_value",
          "type": "uint256"
        }
      ],
      "name": "setTokenRoyalty",
      "outputs": [],
      "stateMutability": "nonpayable",
      "type": "function"
    },
    {
      "inputs": [
        {
          "internalType": "bytes4",
          "name": "interfaceId",
          "type": "bytes4"
        }
      ],
      "name": "supportsInterface",
      "outputs": [
        {
          "internalType": "bool",
          "name": "",
          "type": "bool"
        }
      ],
      "stateMutability": "view",
      "type": "function"
    },
    {
      "inputs": [],
      "name": "symbol",
      "outputs": [
        {
          "internalType": "string",
          "name": "",
          "type": "string"
        }
      ],
      "stateMutability": "view",
      "type": "function"
    },
    {
      "inputs": [
        {
          "internalType": "uint256",
          "name": "tokenId",
          "type": "uint256"
        }
      ],
      "name": "tokenGenerativeURI",
      "outputs": [
        {
          "internalType": "string",
          "name": "",
          "type": "string"
        }
      ],
      "stateMutability": "view",
      "type": "function"
    },
    {
      "inputs": [
        {
          "internalType": "uint256",
          "name": "_tokenId",
          "type": "uint256"
        }
      ],
      "name": "tokenIdToHash",
      "outputs": [
        {
          "internalType": "bytes32",
          "name": "",
          "type": "bytes32"
        }
      ],
      "stateMutability": "view",
      "type": "function"
    },
    {
      "inputs": [
        {
          "internalType": "uint256",
          "name": "tokenId",
          "type": "uint256"
        }
      ],
      "name": "tokenURI",
      "outputs": [
        {
          "internalType": "string",
          "name": "",
          "type": "string"
        }
      ],
      "stateMutability": "view",
      "type": "function"
    },
    {
      "inputs": [
        {
          "internalType": "address",
          "name": "from",
          "type": "address"
        },
        {
          "internalType": "address",
          "name": "to",
          "type": "address"
        },
        {
          "internalType": "uint256",
          "name": "tokenId",
          "type": "uint256"
        }
      ],
      "name": "transferFrom",
      "outputs": [],
      "stateMutability": "nonpayable",
      "type": "function"
    },
    {
      "inputs": [
        {
          "internalType": "address",
          "name": "newOwner",
          "type": "address"
        }
      ],
      "name": "transferOwnership",
      "outputs": [],
      "stateMutability": "nonpayable",
      "type": "function"
    },
    {
      "inputs": [],
      "name": "unpause",
      "outputs": [],
      "stateMutability": "nonpayable",
      "type": "function"
    }
  ],
  "bytecode": "0x60806040523480156200001157600080fd5b50604051620034fa380380620034fa833981016040819052620000349162000252565b81818181816000908051906020019062000050929190620000df565b50805162000066906001906020840190620000df565b50506006805460ff1916905550600160075562000083336200008d565b50505050620002f9565b600880546001600160a01b038381166001600160a01b0319831681179093556040519116919082907f8be0079c531659141344cd1fd0a4f28419497f9722a3daafe3b4186f6b6457e090600090a35050565b828054620000ed90620002bc565b90600052602060002090601f0160209004810192826200011157600085556200015c565b82601f106200012c57805160ff19168380011785556200015c565b828001600101855582156200015c579182015b828111156200015c5782518255916020019190600101906200013f565b506200016a9291506200016e565b5090565b5b808211156200016a57600081556001016200016f565b634e487b7160e01b600052604160045260246000fd5b600082601f830112620001ad57600080fd5b81516001600160401b0380821115620001ca57620001ca62000185565b604051601f8301601f19908116603f01168101908282118183101715620001f557620001f562000185565b816040528381526020925086838588010111156200021257600080fd5b600091505b8382101562000236578582018301518183018401529082019062000217565b83821115620002485760008385830101525b9695505050505050565b600080604083850312156200026657600080fd5b82516001600160401b03808211156200027e57600080fd5b6200028c868387016200019b565b93506020850151915080821115620002a357600080fd5b50620002b2858286016200019b565b9150509250929050565b600181811c90821680620002d157607f821691505b60208210811415620002f357634e487b7160e01b600052602260045260246000fd5b50919050565b6131f180620003096000396000f3fe608060405234801561001057600080fd5b506004361061021c5760003560e01c806370a0823111610125578063a22cb465116100ad578063dc51ab7e1161007c578063dc51ab7e146104fb578063e985e9c51461050e578063f2fde38b1461054a578063febfd6c31461055d578063ffc27c0e1461057057600080fd5b8063a22cb465146104af578063adfc7dae146104c2578063b88d4fde146104d5578063c87b56dd146104e857600080fd5b80638456cb59116100f45780638456cb59146104685780638da5cb5b146104705780638f2839701461048157806395d89b41146104945780639713c8071461049c57600080fd5b806370a08231146103c2578063715018a6146103d5578063775bff9f146103dd5780637f77f574146103fb57600080fd5b806323b872dd116101a8578063472f1e0211610177578063472f1e0214610355578063575b57ea146103685780635c975abb1461037b578063621a1f74146103865780636352211e1461039957600080fd5b806323b872dd146102f55780632a55205a146103085780633f4ba83a1461033a57806342842e0e1461034257600080fd5b8063095ea7b3116101ef578063095ea7b31461029c57806310da88c5146102b15780631249c58b146102c45780631ca9741b146102da57806321c8d676146102ed57600080fd5b806301bc45c91461022157806301ffc9a71461025157806306fdde0314610274578063081812fc14610289575b600080fd5b600a54610234906001600160a01b031681565b6040516001600160a01b0390911681526020015b60405180910390f35b61026461025f366004612877565b610583565b6040519015158152602001610248565b61027c6105d5565b60405161024891906128f3565b610234610297366004612906565b610667565b6102af6102aa366004612944565b61068e565b005b61027c6102bf366004612906565b6107a9565b6102cc6108a7565b604051908152602001610248565b6102af6102e8366004612970565b610a9c565b6102cc610b2d565b6102af61030336600461298d565b610df7565b61031b6103163660046129ce565b610e28565b604080516001600160a01b039093168352602083019190915201610248565b6102af610e40565b6102af61035036600461298d565b610e91565b6102af610363366004612970565b610eac565b600d54610234906001600160a01b031681565b60065460ff16610264565b6102cc610394366004612906565b610f3e565b6102346103a7366004612906565b6000908152600960205260409020546001600160a01b031690565b6102cc6103d0366004612970565b610fc4565b6102af61104a565b6103e561105c565b6040516102489a999897969594939291906129f0565b61043d610409366004612906565b600e602052600090815260409020546001600160a01b03811690600160a01b810462ffffff1690600160b81b900460ff1683565b604080516001600160a01b03909416845262ffffff9092166020840152151590820152606001610248565b6102af61114e565b600a546001600160a01b0316610234565b6102af61048f366004612970565b61119d565b61027c61122f565b6102af6104aa366004612a67565b61123e565b6102af6104bd366004612a9c565b61130c565b600b54610234906001600160a01b031681565b6102af6104e3366004612bac565b61131b565b61027c6104f6366004612906565b611353565b6102af610509366004612ce8565b611408565b61026461051c366004612e49565b6001600160a01b03918216600090815260056020908152604080832093909416825291909152205460ff1690565b6102af610558366004612970565b61164e565b6102af61056b366004612970565b6116c4565b600c54610234906001600160a01b031681565b60006001600160e01b031982166380ac58cd60e01b14806105b457506001600160e01b03198216635b5e139f60e01b145b806105cf57506301ffc9a760e01b6001600160e01b03198316145b92915050565b6060600080546105e490612e77565b80601f016020809104026020016040519081016040528092919081815260200182805461061090612e77565b801561065d5780601f106106325761010080835404028352916020019161065d565b820191906000526020600020905b81548152906001019060200180831161064057829003601f168201915b5050505050905090565b600061067282611756565b506000908152600460205260409020546001600160a01b031690565b6000610699826117b5565b9050806001600160a01b0316836001600160a01b0316141561070c5760405162461bcd60e51b815260206004820152602160248201527f4552433732313a20617070726f76616c20746f2063757272656e74206f776e656044820152603960f91b60648201526084015b60405180910390fd5b336001600160a01b03821614806107285750610728813361051c565b61079a5760405162461bcd60e51b815260206004820152603d60248201527f4552433732313a20617070726f76652063616c6c6572206973206e6f7420746f60448201527f6b656e206f776e6572206f7220617070726f76656420666f7220616c6c0000006064820152608401610703565b6107a48383611815565b505050565b600d5460405163188687dd60e21b8152600481018390526060916001600160a01b031690600090309063621a1f7490602401602060405180830381865afa1580156107f8573d6000803e3d6000fd5b505050506040513d601f19601f8201168201806040525081019061081c9190612eb2565b601054604051639413930160e01b8152600481019190915260248101869052604481018290529091506001600160a01b038316906394139301906064015b600060405180830381865afa158015610877573d6000803e3d6000fd5b505050506040513d6000823e601f3d908101601f1916820160405261089f9190810190612ecb565b949350505050565b60118054600091600160301b90910462ffffff169060066108c783612f58565b82546101009290920a62ffffff818102199093169183160217909155601154630100000081048216600160301b9091049091161115905061090757600080fd5b60115462ffffff8082169161092d91600160481b8204811691600160301b900416612f7b565b62ffffff16141561099e57600f54601054604051631122f8a960e11b815260048101919091526001600160a01b03909116908190632245f15290602401600060405180830381600087803b15801561098457600080fd5b505af1158015610998573d6000803e3d6000fd5b50505050505b601154601054600160301b90910462ffffff16906109c090620f424090612fa2565b6109ca9190612fc1565b90506109d63382611883565b600c54604051631da00d8560e01b8152600481018390526001600160a01b03909116906000908290631da00d85906024016020604051808303816000875af1158015610a26573d6000803e3d6000fd5b505050506040513d601f19601f82011682018060405250810190610a4a9190612eb2565b9050610a56838261189d565b610a5e611966565b60408051338152602081018590527f0f6798a560793a54c3bcfe86a93cde1e73087d944c0ea20544137d4121396885910160405180910390a1505090565b600a546001600160a01b031633148015610abe57506001600160a01b03811615155b6040518060400160405280600381526020016231303160e81b81525090610af85760405162461bcd60e51b815260040161070391906128f3565b50600c546001600160a01b03828116911614610b2a57600c80546001600160a01b0319166001600160a01b0383161790555b50565b60118054600091600160481b90910462ffffff16906009610b4d83612f58565b82546101009290920a62ffffff8181021990931691831602179091556011548082169250610b8c9163010000008204811691600160481b900416612f7b565b62ffffff161115610b9c57600080fd5b60115462ffffff80821691610bc291600160481b8204811691600160301b900416612f7b565b62ffffff161415610c3357600f54601054604051631122f8a960e11b815260048101919091526001600160a01b03909116908190632245f15290602401600060405180830381600087803b158015610c1957600080fd5b505af1158015610c2d573d6000803e3d6000fd5b50505050505b600f54336000908152601660205260409020546001600160a01b039091169060ff161580610cde57506010546040516331a9108f60e11b815260048101919091526001600160a01b03821690636352211e90602401602060405180830381865afa158015610ca5573d6000803e3d6000fd5b505050506040513d601f19601f82011682018060405250810190610cc99190612fd9565b6001600160a01b0316336001600160a01b0316145b610ce757600080fd5b601154610d099062ffffff63010000008204811691600160481b900416612f7b565b62ffffff16620f4240600f60010154610d229190612fa2565b610d2c9190612fc1565b9150610d383383611883565b600c54604051631da00d8560e01b8152600481018490526001600160a01b03909116906000908290631da00d85906024016020604051808303816000875af1158015610d88573d6000803e3d6000fd5b505050506040513d601f19601f82011682018060405250810190610dac9190612eb2565b9050610db8848261189d565b60408051338152602081018690527f0f6798a560793a54c3bcfe86a93cde1e73087d944c0ea20544137d4121396885910160405180910390a150505090565b610e013382611dde565b610e1d5760405162461bcd60e51b815260040161070390612ff6565b6107a4838383611e5c565b600080610e358484611e96565b915091509250929050565b600a5460408051808201909152600381526231303160e81b6020820152906001600160a01b03163314610e865760405162461bcd60e51b815260040161070391906128f3565b50610e8f611f32565b565b6107a48383836040518060200160405280600081525061131b565b600a546001600160a01b031633148015610ece57506001600160a01b03811615155b6040518060400160405280600381526020016231303160e81b81525090610f085760405162461bcd60e51b815260040161070391906128f3565b50600d546001600160a01b03828116911614610b2a57600d80546001600160a01b0383166001600160a01b031990911617905550565b600081815260096020526040812054600160a01b900460a01b6001600160a01b031916610f6d57506000919050565b600082815260096020908152604091829020549151610fa792600160a01b900460a01b91016001600160a01b031991909116815260200190565b604051602081830303815290604052805190602001209050919050565b60006001600160a01b03821661102e5760405162461bcd60e51b815260206004820152602960248201527f4552433732313a2061646472657373207a65726f206973206e6f7420612076616044820152683634b21037bbb732b960b91b6064820152608401610703565b506001600160a01b031660009081526003602052604090205490565b611052611f84565b610e8f6000612002565b600f8054601054601154601280546001600160a01b0390941694929362ffffff8084169463010000008504821694600160301b8104831694600160481b909104909216929091906110ac90612e77565b80601f01602080910402602001604051908101604052809291908181526020018280546110d890612e77565b80156111255780601f106110fa57610100808354040283529160200191611125565b820191906000526020600020905b81548152906001019060200180831161110857829003601f168201915b505050506004830154600584015460069094015492936001600160a01b0391821693909250168a565b600a5460408051808201909152600381526231303160e81b6020820152906001600160a01b031633146111945760405162461bcd60e51b815260040161070391906128f3565b50610e8f612054565b600a546001600160a01b0316331480156111bf57506001600160a01b03811615155b6040518060400160405280600381526020016231303160e81b815250906111f95760405162461bcd60e51b815260040161070391906128f3565b50600a546001600160a01b03828116911614610b2a57600a80546001600160a01b0383166001600160a01b031990911617905550565b6060600180546105e490612e77565b600a546001600160a01b0316331461125557600080fd5b60408051808201909152600381526232303960e81b60208201526127108211156112925760405162461bcd60e51b815260040161070391906128f3565b50604080516060810182526001600160a01b03938416815262ffffff928316602080830191825260018385019081526000978852600e90915292909520905181549551925194166001600160b81b031990951694909417600160a01b91909216021760ff60b81b1916600160b81b91151591909102179055565b611317338383612091565b5050565b6113253383611dde565b6113415760405162461bcd60e51b815260040161070390612ff6565b61134d84848484612160565b50505050565b600d5460405163188687dd60e21b8152600481018390526060916001600160a01b031690600090309063621a1f7490602401602060405180830381865afa1580156113a2573d6000803e3d6000fd5b505050506040513d601f19601f820116820180604052508101906113c69190612eb2565b6010546040516308dd54e960e31b8152600481019190915260248101869052604481018290529091506001600160a01b038316906346eaa7489060640161085a565b600a5460408051808201909152600381526219181960e91b6020820152906001600160a01b03161561144d5760405162461bcd60e51b815260040161070391906128f3565b5060408051808201909152600381526203130360ec1b60208201526001600160a01b03861661148f5760405162461bcd60e51b815260040161070391906128f3565b508551600f80546001600160a01b039092166001600160a01b031990921691909117815560208088015160105560408801516011805460608b015160808c015160a08d015162ffffff908116600160481b026bffffff00000000000000000019928216600160301b02929092166bffffffffffff0000000000001993821663010000000265ffffffffffff19909516919096161792909217169290921791909117905560c0880151805189939261154b926012929101906127c8565b5060e08201516004820180546001600160a01b03199081166001600160a01b039384161790915561010084015160058401556101209093015160069092018054841692821692909217909155600b80548316878316179055600a80548316888316179055600c80548316868316179055600d805490921690841617905560005b8151811015611630576000601660008484815181106115ec576115ec613043565b6020908102919091018101516001600160a01b03168252810191909152604001600020805460ff19169115159190911790558061162881613059565b9150506115cb565b50600a54611646906001600160a01b031661164e565b505050505050565b611656611f84565b6001600160a01b0381166116bb5760405162461bcd60e51b815260206004820152602660248201527f4f776e61626c653a206e6577206f776e657220697320746865207a65726f206160448201526564647265737360d01b6064820152608401610703565b610b2a81612002565b600a546001600160a01b0316331480156116e657506001600160a01b03811615155b6040518060400160405280600381526020016231303160e81b815250906117205760405162461bcd60e51b815260040161070391906128f3565b50600b546001600160a01b03828116911614610b2a57600b80546001600160a01b0383166001600160a01b031990911617905550565b6000818152600960205260409020546001600160a01b0316610b2a5760405162461bcd60e51b8152602060048201526018602482015277115490cdcc8c4e881a5b9d985b1a59081d1bdad95b88125160421b6044820152606401610703565b6000818152600260205260408120546001600160a01b0316806105cf5760405162461bcd60e51b8152602060048201526018602482015277115490cdcc8c4e881a5b9d985b1a59081d1bdad95b88125160421b6044820152606401610703565b600081815260046020526040902080546001600160a01b0319166001600160a01b038416908117909155819061184a826117b5565b6001600160a01b03167f8c5be1e5ebec7d5bd14f71427d1e84f3dd0314c0f7b2291e5b200ac8c7c3b92560405160405180910390a45050565b611317828260405180602001604052806000815250612193565b600082815260096020908152604091829020548251808401909352600383526203231360ec1b91830191909152600160a01b900460a01b6001600160a01b031916156118fc5760405162461bcd60e51b815260040161070391906128f3565b5060408051808201909152600381526232313160e81b6020820152816119355760405162461bcd60e51b815260040161070391906128f3565b50600091825260096020526040909120805460a09290921c600160a01b026001600160a01b03909216919091179055565b601454806119715750565b600f54600b546000916001600160a01b0390811691166101f48115611a295760408051808201825260158152744d494e545f4e46545f4f50455241544f525f46454560581b60208201529051636d12dce160e01b81526001600160a01b03841691636d12dce1916119e591906004016128f3565b602060405180830381865afa158015611a02573d6000803e3d6000fd5b505050506040513d601f19601f82011682018060405250810190611a269190612eb2565b90505b6001600160a01b038416611ba05784341015611a4457600080fd5b6010546040516331a9108f60e11b81526000916001600160a01b03861691636352211e91611a789160040190815260200190565b602060405180830381865afa158015611a95573d6000803e3d6000fd5b505050506040513d601f19601f82011682018060405250810190611ab99190612fd9565b6001600160a01b0316612710611acf8489612fa2565b611ad99190613074565b611ae39088613096565b604051600081818185875af1925050503d8060008114611b1f576040519150601f19603f3d011682016040523d82523d6000602084013e611b24565b606091505b5050905080611b3257600080fd5b600a546001600160a01b0316612710611b4b8489612fa2565b611b559190613074565b604051600081818185875af1925050503d8060008114611b91576040519150601f19603f3d011682016040523d82523d6000602084013e611b96565b606091505b50611dd792505050565b6040516323b872dd60e01b81523360048201523060248201526044810186905284906001600160a01b038216906323b872dd906064016020604051808303816000875af1158015611bf5573d6000803e3d6000fd5b505050506040513d601f19601f82011682018060405250810190611c1991906130ad565b611c2257600080fd5b6010546040516331a9108f60e11b815260048101919091526001600160a01b038281169163a9059cbb91871690636352211e90602401602060405180830381865afa158015611c75573d6000803e3d6000fd5b505050506040513d601f19601f82011682018060405250810190611c999190612fd9565b612710611ca6868b612fa2565b611cb09190613074565b611cba908a613096565b6040516001600160e01b031960e085901b1681526001600160a01b03909216600483015260248201526044016020604051808303816000875af1158015611d05573d6000803e3d6000fd5b505050506040513d601f19601f82011682018060405250810190611d2991906130ad565b611d3257600080fd5b600a546001600160a01b038083169163a9059cbb9116612710611d55868b612fa2565b611d5f9190613074565b6040516001600160e01b031960e085901b1681526001600160a01b03909216600483015260248201526044016020604051808303816000875af1158015611daa573d6000803e3d6000fd5b505050506040513d601f19601f82011682018060405250810190611dce91906130ad565b61164657600080fd5b5050505050565b600080611dea836117b5565b9050806001600160a01b0316846001600160a01b03161480611e3157506001600160a01b0380821660009081526005602090815260408083209388168352929052205460ff165b8061089f5750836001600160a01b0316611e4a84610667565b6001600160a01b031614949350505050565b611e678383836121c6565b600090815260096020526040902080546001600160a01b0319166001600160a01b039290921691909117905550565b6000828152600e60209081526040808320815160608101835290546001600160a01b0381168252600160a01b810462ffffff1693820193909352600160b81b90920460ff1615801591830191909152829190611f1a578051602082015190935061271090611f099062ffffff1686612fa2565b611f139190613074565b9150611f2a565b611f248585612337565b90935091505b509250929050565b611f3a61236f565b6006805460ff191690557f5db9ee0a495bf2e6ff9c91a7834c1ba4fdd244a5e8aa4e537bd38aeae4b073aa335b6040516001600160a01b03909116815260200160405180910390a1565b33611f97600a546001600160a01b031690565b6001600160a01b03161480611fb65750600f546001600160a01b031633145b610e8f5760405162461bcd60e51b815260206004820181905260248201527f4f776e61626c653a2063616c6c6572206973206e6f7420746865206f776e65726044820152606401610703565b600880546001600160a01b038381166001600160a01b0319831681179093556040519116919082907f8be0079c531659141344cd1fd0a4f28419497f9722a3daafe3b4186f6b6457e090600090a35050565b61205c6123b8565b6006805460ff191660011790557f62e78cea01bee320cd4e420270b5ea74000d11b0c9f74754ebdbfc544b05a258611f673390565b816001600160a01b0316836001600160a01b031614156120f35760405162461bcd60e51b815260206004820152601960248201527f4552433732313a20617070726f766520746f2063616c6c6572000000000000006044820152606401610703565b6001600160a01b03838116600081815260056020908152604080832094871680845294825291829020805460ff191686151590811790915591519182527f17307eab39ab6107e8899845ad3d59bd9653f200f220920489ca2b5937696c31910160405180910390a3505050565b61216b848484611e5c565b612177848484846123fe565b61134d5760405162461bcd60e51b8152600401610703906130ca565b61219d83836124fc565b6121aa60008484846123fe565b6107a45760405162461bcd60e51b8152600401610703906130ca565b826001600160a01b03166121d9826117b5565b6001600160a01b0316146121ff5760405162461bcd60e51b81526004016107039061311c565b6001600160a01b0382166122615760405162461bcd60e51b8152602060048201526024808201527f4552433732313a207472616e7366657220746f20746865207a65726f206164646044820152637265737360e01b6064820152608401610703565b61226e8383836001612534565b826001600160a01b0316612281826117b5565b6001600160a01b0316146122a75760405162461bcd60e51b81526004016107039061311c565b600081815260046020908152604080832080546001600160a01b03199081169091556001600160a01b0387811680865260038552838620805460001901905590871680865283862080546001019055868652600290945282852080549092168417909155905184937fddf252ad1be2c89b69c2b068fc378daa952ba7f163c4a11628f55a4df523b3ef91a4505050565b600a5460009081906001600160a01b031681612710612358866101f4612fa2565b6123629190613074565b9196919550909350505050565b60065460ff16610e8f5760405162461bcd60e51b815260206004820152601460248201527314185d5cd8589b194e881b9bdd081c185d5cd95960621b6044820152606401610703565b60065460ff1615610e8f5760405162461bcd60e51b815260206004820152601060248201526f14185d5cd8589b194e881c185d5cd95960821b6044820152606401610703565b60006001600160a01b0384163b156124f157604051630a85bd0160e11b81526001600160a01b0385169063150b7a0290612442903390899088908890600401613161565b6020604051808303816000875af192505050801561247d575060408051601f3d908101601f1916820190925261247a9181019061319e565b60015b6124d7573d8080156124ab576040519150601f19603f3d011682016040523d82523d6000602084013e6124b0565b606091505b5080516124cf5760405162461bcd60e51b8152600401610703906130ca565b805181602001fd5b6001600160e01b031916630a85bd0160e11b14905061089f565b506001949350505050565b61250682826125a7565b600090815260096020526040902080546001600160a01b0319166001600160a01b0392909216919091179055565b61254084848484612740565b60065460ff161561134d5760405162461bcd60e51b815260206004820152602b60248201527f4552433732315061757361626c653a20746f6b656e207472616e73666572207760448201526a1a1a5b19481c185d5cd95960aa1b6064820152608401610703565b6001600160a01b0382166125fd5760405162461bcd60e51b815260206004820181905260248201527f4552433732313a206d696e7420746f20746865207a65726f20616464726573736044820152606401610703565b6000818152600960205260409020546001600160a01b0316156126625760405162461bcd60e51b815260206004820152601c60248201527f4552433732313a20746f6b656e20616c7265616479206d696e746564000000006044820152606401610703565b612670600083836001612534565b6000818152600960205260409020546001600160a01b0316156126d55760405162461bcd60e51b815260206004820152601c60248201527f4552433732313a20746f6b656e20616c7265616479206d696e746564000000006044820152606401610703565b6001600160a01b038216600081815260036020908152604080832080546001019055848352600290915280822080546001600160a01b0319168417905551839291907fddf252ad1be2c89b69c2b068fc378daa952ba7f163c4a11628f55a4df523b3ef908290a45050565b600181111561134d576001600160a01b03841615612786576001600160a01b03841660009081526003602052604081208054839290612780908490613096565b90915550505b6001600160a01b0383161561134d576001600160a01b038316600090815260036020526040812080548392906127bd908490612fc1565b909155505050505050565b8280546127d490612e77565b90600052602060002090601f0160209004810192826127f6576000855561283c565b82601f1061280f57805160ff191683800117855561283c565b8280016001018555821561283c579182015b8281111561283c578251825591602001919060010190612821565b5061284892915061284c565b5090565b5b80821115612848576000815560010161284d565b6001600160e01b031981168114610b2a57600080fd5b60006020828403121561288957600080fd5b813561289481612861565b9392505050565b60005b838110156128b657818101518382015260200161289e565b8381111561134d5750506000910152565b600081518084526128df81602086016020860161289b565b601f01601f19169290920160200192915050565b60208152600061289460208301846128c7565b60006020828403121561291857600080fd5b5035919050565b6001600160a01b0381168114610b2a57600080fd5b803561293f8161291f565b919050565b6000806040838503121561295757600080fd5b82356129628161291f565b946020939093013593505050565b60006020828403121561298257600080fd5b81356128948161291f565b6000806000606084860312156129a257600080fd5b83356129ad8161291f565b925060208401356129bd8161291f565b929592945050506040919091013590565b600080604083850312156129e157600080fd5b50508035926020909101359150565b6001600160a01b038b81168252602082018b905262ffffff8a8116604084015289811660608401528881166080840152871660a083015261014060c08301819052600091612a40848301896128c7565b96811660e08501526101008401959095525050911661012090910152979650505050505050565b600080600060608486031215612a7c57600080fd5b8335925060208401356129bd8161291f565b8015158114610b2a57600080fd5b60008060408385031215612aaf57600080fd5b8235612aba8161291f565b91506020830135612aca81612a8e565b809150509250929050565b634e487b7160e01b600052604160045260246000fd5b604051610140810167ffffffffffffffff81118282101715612b0f57612b0f612ad5565b60405290565b604051601f8201601f1916810167ffffffffffffffff81118282101715612b3e57612b3e612ad5565b604052919050565b600067ffffffffffffffff821115612b6057612b60612ad5565b50601f01601f191660200190565b6000612b81612b7c84612b46565b612b15565b9050828152838383011115612b9557600080fd5b828260208301376000602084830101529392505050565b60008060008060808587031215612bc257600080fd5b8435612bcd8161291f565b93506020850135612bdd8161291f565b925060408501359150606085013567ffffffffffffffff811115612c0057600080fd5b8501601f81018713612c1157600080fd5b612c2087823560208401612b6e565b91505092959194509250565b803562ffffff8116811461293f57600080fd5b600082601f830112612c5057600080fd5b61289483833560208501612b6e565b600082601f830112612c7057600080fd5b8135602067ffffffffffffffff821115612c8c57612c8c612ad5565b8160051b612c9b828201612b15565b9283528481018201928281019087851115612cb557600080fd5b83870192505b84831015612cdd578235612cce8161291f565b82529183019190830190612cbb565b979650505050505050565b60008060008060008060c08789031215612d0157600080fd5b863567ffffffffffffffff80821115612d1957600080fd5b90880190610140828b031215612d2e57600080fd5b612d36612aeb565b612d3f83612934565b815260208301356020820152612d5760408401612c2c565b6040820152612d6860608401612c2c565b6060820152612d7960808401612c2c565b6080820152612d8a60a08401612c2c565b60a082015260c083013582811115612da157600080fd5b612dad8c828601612c3f565b60c083015250612dbf60e08401612934565b60e08201526101008381013590820152610120612ddd818501612934565b908201529750612def60208a01612934565b9650612dfd60408a01612934565b9550612e0b60608a01612934565b9450612e1960808a01612934565b935060a0890135915080821115612e2f57600080fd5b50612e3c89828a01612c5f565b9150509295509295509295565b60008060408385031215612e5c57600080fd5b8235612e678161291f565b91506020830135612aca8161291f565b600181811c90821680612e8b57607f821691505b60208210811415612eac57634e487b7160e01b600052602260045260246000fd5b50919050565b600060208284031215612ec457600080fd5b5051919050565b600060208284031215612edd57600080fd5b815167ffffffffffffffff811115612ef457600080fd5b8201601f81018413612f0557600080fd5b8051612f13612b7c82612b46565b818152856020838501011115612f2857600080fd5b612f3982602083016020860161289b565b95945050505050565b634e487b7160e01b600052601160045260246000fd5b600062ffffff80831681811415612f7157612f71612f42565b6001019392505050565b600062ffffff808316818516808303821115612f9957612f99612f42565b01949350505050565b6000816000190483118215151615612fbc57612fbc612f42565b500290565b60008219821115612fd457612fd4612f42565b500190565b600060208284031215612feb57600080fd5b81516128948161291f565b6020808252602d908201527f4552433732313a2063616c6c6572206973206e6f7420746f6b656e206f776e6560408201526c1c881bdc88185c1c1c9bdd9959609a1b606082015260800190565b634e487b7160e01b600052603260045260246000fd5b600060001982141561306d5761306d612f42565b5060010190565b60008261309157634e487b7160e01b600052601260045260246000fd5b500490565b6000828210156130a8576130a8612f42565b500390565b6000602082840312156130bf57600080fd5b815161289481612a8e565b60208082526032908201527f4552433732313a207472616e7366657220746f206e6f6e20455243373231526560408201527131b2b4bb32b91034b6b83632b6b2b73a32b960711b606082015260800190565b60208082526025908201527f4552433732313a207472616e736665722066726f6d20696e636f72726563742060408201526437bbb732b960d91b606082015260800190565b6001600160a01b0385811682528416602082015260408101839052608060608201819052600090613194908301846128c7565b9695505050505050565b6000602082840312156131b057600080fd5b81516128948161286156fea2646970667358221220818a75a775223722492fce99961467e0f6a07b170bfb059969c08f43b9fdae7364736f6c634300080c0033",
  "linkReferences": {},
  "deployedLinkReferences": {}
}