{
  "_format": "hh-sol-artifact-1",
  "contractName": "GenerativeNFT",
  "sourceName": "contracts/nfts/GenerativeNFT.sol",
  "abi": [
    {
      "inputs": [
        {
          "internalType": "string",
          "name": "name",
          "type": "string"
        },
        {
          "internalType": "string",
          "name": "symbol",
          "type": "string"
        }
      ],
      "stateMutability": "nonpayable",
      "type": "constructor"
    },
    {
      "inputs": [
        {
          "internalType": "address",
          "name": "operator",
          "type": "address"
        }
      ],
      "name": "OperatorNotAllowed",
      "type": "error"
    },
    {
      "anonymous": false,
      "inputs": [
        {
          "indexed": true,
          "internalType": "address",
          "name": "owner",
          "type": "address"
        },
        {
          "indexed": true,
          "internalType": "address",
          "name": "approved",
          "type": "address"
        },
        {
          "indexed": true,
          "internalType": "uint256",
          "name": "tokenId",
          "type": "uint256"
        }
      ],
      "name": "Approval",
      "type": "event"
    },
    {
      "anonymous": false,
      "inputs": [
        {
          "indexed": true,
          "internalType": "address",
          "name": "owner",
          "type": "address"
        },
        {
          "indexed": true,
          "internalType": "address",
          "name": "operator",
          "type": "address"
        },
        {
          "indexed": false,
          "internalType": "bool",
          "name": "approved",
          "type": "bool"
        }
      ],
      "name": "ApprovalForAll",
      "type": "event"
    },
    {
      "anonymous": false,
      "inputs": [
        {
          "indexed": true,
          "internalType": "address",
          "name": "previousOwner",
          "type": "address"
        },
        {
          "indexed": true,
          "internalType": "address",
          "name": "newOwner",
          "type": "address"
        }
      ],
      "name": "OwnershipTransferred",
      "type": "event"
    },
    {
      "anonymous": false,
      "inputs": [
        {
          "indexed": false,
          "internalType": "address",
          "name": "account",
          "type": "address"
        }
      ],
      "name": "Paused",
      "type": "event"
    },
    {
      "anonymous": false,
      "inputs": [
        {
          "indexed": true,
          "internalType": "address",
          "name": "from",
          "type": "address"
        },
        {
          "indexed": true,
          "internalType": "address",
          "name": "to",
          "type": "address"
        },
        {
          "indexed": true,
          "internalType": "uint256",
          "name": "tokenId",
          "type": "uint256"
        }
      ],
      "name": "Transfer",
      "type": "event"
    },
    {
      "anonymous": false,
      "inputs": [
        {
          "indexed": false,
          "internalType": "address",
          "name": "account",
          "type": "address"
        }
      ],
      "name": "Unpaused",
      "type": "event"
    },
    {
      "inputs": [],
      "name": "OPERATOR_FILTER_REGISTRY",
      "outputs": [
        {
          "internalType": "contract IOperatorFilterRegistry",
          "name": "",
          "type": "address"
        }
      ],
      "stateMutability": "view",
      "type": "function"
    },
    {
      "inputs": [],
      "name": "_admin",
      "outputs": [
        {
          "internalType": "address",
          "name": "",
          "type": "address"
        }
      ],
      "stateMutability": "view",
      "type": "function"
    },
    {
      "inputs": [],
      "name": "_nameCol",
      "outputs": [
        {
          "internalType": "string",
          "name": "",
          "type": "string"
        }
      ],
      "stateMutability": "view",
      "type": "function"
    },
    {
      "inputs": [],
      "name": "_paramsAddress",
      "outputs": [
        {
          "internalType": "address",
          "name": "",
          "type": "address"
        }
      ],
      "stateMutability": "view",
      "type": "function"
    },
    {
      "inputs": [],
      "name": "_project",
      "outputs": [
        {
          "internalType": "address",
          "name": "_projectAddr",
          "type": "address"
        },
        {
          "internalType": "uint256",
          "name": "_projectId",
          "type": "uint256"
        },
        {
          "internalType": "uint24",
          "name": "_maxSupply",
          "type": "uint24"
        },
        {
          "internalType": "uint24",
          "name": "_limit",
          "type": "uint24"
        },
        {
          "internalType": "uint24",
          "name": "_index",
          "type": "uint24"
        },
        {
          "internalType": "uint24",
          "name": "_indexReserve",
          "type": "uint24"
        },
        {
          "internalType": "string",
          "name": "_creator",
          "type": "string"
        },
        {
          "internalType": "address",
          "name": "_creatorAddr",
          "type": "address"
        },
        {
          "internalType": "uint256",
          "name": "_mintPrice",
          "type": "uint256"
        },
        {
          "internalType": "address",
          "name": "_mintPriceAddr",
          "type": "address"
        },
        {
          "internalType": "string",
          "name": "_name",
          "type": "string"
        },
        {
          "components": [
            {
              "internalType": "uint256",
              "name": "_initBlockTime",
              "type": "uint256"
            },
            {
              "internalType": "uint256",
              "name": "_openingTime",
              "type": "uint256"
            }
          ],
          "internalType": "struct NFTProject.ProjectMintingSchedule",
          "name": "_mintingSchedule",
          "type": "tuple"
        }
      ],
      "stateMutability": "view",
      "type": "function"
    },
    {
      "inputs": [],
      "name": "_projectDataContextAddr",
      "outputs": [
        {
          "internalType": "address",
          "name": "",
          "type": "address"
        }
      ],
      "stateMutability": "view",
      "type": "function"
    },
    {
      "inputs": [],
      "name": "_randomizer",
      "outputs": [
        {
          "internalType": "address",
          "name": "",
          "type": "address"
        }
      ],
      "stateMutability": "view",
      "type": "function"
    },
    {
      "inputs": [],
      "name": "_royalty",
      "outputs": [
        {
          "internalType": "uint256",
          "name": "",
          "type": "uint256"
        }
      ],
      "stateMutability": "view",
      "type": "function"
    },
    {
      "inputs": [
        {
          "internalType": "address",
          "name": "to",
          "type": "address"
        },
        {
          "internalType": "uint256",
          "name": "tokenId",
          "type": "uint256"
        }
      ],
      "name": "approve",
      "outputs": [],
      "stateMutability": "nonpayable",
      "type": "function"
    },
    {
      "inputs": [
        {
          "internalType": "address",
          "name": "owner",
          "type": "address"
        }
      ],
      "name": "balanceOf",
      "outputs": [
        {
          "internalType": "uint256",
          "name": "",
          "type": "uint256"
        }
      ],
      "stateMutability": "view",
      "type": "function"
    },
    {
      "inputs": [
        {
          "internalType": "address",
          "name": "newAdm",
          "type": "address"
        }
      ],
      "name": "changeAdmin",
      "outputs": [],
      "stateMutability": "nonpayable",
      "type": "function"
    },
    {
      "inputs": [
        {
          "internalType": "address",
          "name": "newAddr",
          "type": "address"
        }
      ],
      "name": "changeDataContextAddr",
      "outputs": [],
      "stateMutability": "nonpayable",
      "type": "function"
    },
    {
      "inputs": [
        {
          "internalType": "address",
          "name": "newAddr",
          "type": "address"
        }
      ],
      "name": "changeParamAddr",
      "outputs": [],
      "stateMutability": "nonpayable",
      "type": "function"
    },
    {
      "inputs": [
        {
          "internalType": "address",
          "name": "newAddr",
          "type": "address"
        }
      ],
      "name": "changeRandomizerAddr",
      "outputs": [],
      "stateMutability": "nonpayable",
      "type": "function"
    },
    {
      "inputs": [
        {
          "internalType": "uint256",
          "name": "tokenId",
          "type": "uint256"
        }
      ],
      "name": "getApproved",
      "outputs": [
        {
          "internalType": "address",
          "name": "",
          "type": "address"
        }
      ],
      "stateMutability": "view",
      "type": "function"
    },
    {
      "inputs": [],
      "name": "getStatus",
      "outputs": [
        {
          "internalType": "bool",
          "name": "",
          "type": "bool"
        }
      ],
      "stateMutability": "view",
      "type": "function"
    },
    {
      "inputs": [
        {
          "components": [
            {
              "internalType": "address",
              "name": "_projectAddr",
              "type": "address"
            },
            {
              "internalType": "uint256",
              "name": "_projectId",
              "type": "uint256"
            },
            {
              "internalType": "uint24",
              "name": "_maxSupply",
              "type": "uint24"
            },
            {
              "internalType": "uint24",
              "name": "_limit",
              "type": "uint24"
            },
            {
              "internalType": "uint24",
              "name": "_index",
              "type": "uint24"
            },
            {
              "internalType": "uint24",
              "name": "_indexReserve",
              "type": "uint24"
            },
            {
              "internalType": "string",
              "name": "_creator",
              "type": "string"
            },
            {
              "internalType": "address",
              "name": "_creatorAddr",
              "type": "address"
            },
            {
              "internalType": "uint256",
              "name": "_mintPrice",
              "type": "uint256"
            },
            {
              "internalType": "address",
              "name": "_mintPriceAddr",
              "type": "address"
            },
            {
              "internalType": "string",
              "name": "_name",
              "type": "string"
            },
            {
              "components": [
                {
                  "internalType": "uint256",
                  "name": "_initBlockTime",
                  "type": "uint256"
                },
                {
                  "internalType": "uint256",
                  "name": "_openingTime",
                  "type": "uint256"
                }
              ],
              "internalType": "struct NFTProject.ProjectMintingSchedule",
              "name": "_mintingSchedule",
              "type": "tuple"
            }
          ],
          "internalType": "struct NFTProject.ProjectMinting",
          "name": "project",
          "type": "tuple"
        },
        {
          "internalType": "address",
          "name": "admin",
          "type": "address"
        },
        {
          "internalType": "address",
          "name": "paramsAddr",
          "type": "address"
        },
        {
          "internalType": "address",
          "name": "randomizer",
          "type": "address"
        },
        {
          "internalType": "address",
          "name": "projectDataContextAddr",
          "type": "address"
        },
        {
          "internalType": "address[]",
          "name": "reserves",
          "type": "address[]"
        },
        {
          "internalType": "bool",
          "name": "disable",
          "type": "bool"
        },
        {
          "internalType": "uint256",
          "name": "royalty",
          "type": "uint256"
        }
      ],
      "name": "init",
      "outputs": [],
      "stateMutability": "nonpayable",
      "type": "function"
    },
    {
      "inputs": [
        {
          "internalType": "address",
          "name": "owner",
          "type": "address"
        },
        {
          "internalType": "address",
          "name": "operator",
          "type": "address"
        }
      ],
      "name": "isApprovedForAll",
      "outputs": [
        {
          "internalType": "bool",
          "name": "",
          "type": "bool"
        }
      ],
      "stateMutability": "view",
      "type": "function"
    },
    {
      "inputs": [],
      "name": "mint",
      "outputs": [
        {
          "internalType": "uint256",
          "name": "tokenId",
          "type": "uint256"
        }
      ],
      "stateMutability": "payable",
      "type": "function"
    },
    {
      "inputs": [],
      "name": "name",
      "outputs": [
        {
          "internalType": "string",
          "name": "",
          "type": "string"
        }
      ],
      "stateMutability": "view",
      "type": "function"
    },
    {
      "inputs": [],
      "name": "owner",
      "outputs": [
        {
          "internalType": "address",
          "name": "",
          "type": "address"
        }
      ],
      "stateMutability": "view",
      "type": "function"
    },
    {
      "inputs": [
        {
          "internalType": "uint256",
          "name": "tokenId",
          "type": "uint256"
        }
      ],
      "name": "ownerOf",
      "outputs": [
        {
          "internalType": "address",
          "name": "",
          "type": "address"
        }
      ],
      "stateMutability": "view",
      "type": "function"
    },
    {
      "inputs": [],
      "name": "paused",
      "outputs": [
        {
          "internalType": "bool",
          "name": "",
          "type": "bool"
        }
      ],
      "stateMutability": "view",
      "type": "function"
    },
    {
      "inputs": [],
      "name": "renounceOwnership",
      "outputs": [],
      "stateMutability": "nonpayable",
      "type": "function"
    },
    {
      "inputs": [],
      "name": "reserveMint",
      "outputs": [
        {
          "internalType": "uint256",
          "name": "tokenId",
          "type": "uint256"
        }
      ],
      "stateMutability": "payable",
      "type": "function"
    },
    {
      "inputs": [
        {
          "internalType": "uint256",
          "name": "_tokenId",
          "type": "uint256"
        },
        {
          "internalType": "uint256",
          "name": "_salePrice",
          "type": "uint256"
        }
      ],
      "name": "royaltyInfo",
      "outputs": [
        {
          "internalType": "address",
          "name": "receiver",
          "type": "address"
        },
        {
          "internalType": "uint256",
          "name": "royaltyAmount",
          "type": "uint256"
        }
      ],
      "stateMutability": "view",
      "type": "function"
    },
    {
      "inputs": [
        {
          "internalType": "address",
          "name": "from",
          "type": "address"
        },
        {
          "internalType": "address",
          "name": "to",
          "type": "address"
        },
        {
          "internalType": "uint256",
          "name": "tokenId",
          "type": "uint256"
        }
      ],
      "name": "safeTransferFrom",
      "outputs": [],
      "stateMutability": "nonpayable",
      "type": "function"
    },
    {
      "inputs": [
        {
          "internalType": "address",
          "name": "from",
          "type": "address"
        },
        {
          "internalType": "address",
          "name": "to",
          "type": "address"
        },
        {
          "internalType": "uint256",
          "name": "tokenId",
          "type": "uint256"
        },
        {
          "internalType": "bytes",
          "name": "data",
          "type": "bytes"
        }
      ],
      "name": "safeTransferFrom",
      "outputs": [],
      "stateMutability": "nonpayable",
      "type": "function"
    },
    {
      "inputs": [
        {
          "internalType": "address",
          "name": "operator",
          "type": "address"
        },
        {
          "internalType": "bool",
          "name": "approved",
          "type": "bool"
        }
      ],
      "name": "setApprovalForAll",
      "outputs": [],
      "stateMutability": "nonpayable",
      "type": "function"
    },
    {
      "inputs": [
        {
          "internalType": "bool",
          "name": "enable",
          "type": "bool"
        }
      ],
      "name": "setStatus",
      "outputs": [],
      "stateMutability": "nonpayable",
      "type": "function"
    },
    {
      "inputs": [
        {
          "internalType": "bytes4",
          "name": "interfaceId",
          "type": "bytes4"
        }
      ],
      "name": "supportsInterface",
      "outputs": [
        {
          "internalType": "bool",
          "name": "",
          "type": "bool"
        }
      ],
      "stateMutability": "view",
      "type": "function"
    },
    {
      "inputs": [],
      "name": "symbol",
      "outputs": [
        {
          "internalType": "string",
          "name": "",
          "type": "string"
        }
      ],
      "stateMutability": "view",
      "type": "function"
    },
    {
      "inputs": [
        {
          "internalType": "uint256",
          "name": "tokenId",
          "type": "uint256"
        }
      ],
      "name": "tokenGenerativeURI",
      "outputs": [
        {
          "internalType": "string",
          "name": "",
          "type": "string"
        }
      ],
      "stateMutability": "view",
      "type": "function"
    },
    {
      "inputs": [
        {
          "internalType": "uint256",
          "name": "tokenId",
          "type": "uint256"
        }
      ],
      "name": "tokenURI",
      "outputs": [
        {
          "internalType": "string",
          "name": "",
          "type": "string"
        }
      ],
      "stateMutability": "view",
      "type": "function"
    },
    {
      "inputs": [
        {
          "internalType": "address",
          "name": "from",
          "type": "address"
        },
        {
          "internalType": "address",
          "name": "to",
          "type": "address"
        },
        {
          "internalType": "uint256",
          "name": "tokenId",
          "type": "uint256"
        }
      ],
      "name": "transferFrom",
      "outputs": [],
      "stateMutability": "nonpayable",
      "type": "function"
    },
    {
      "inputs": [
        {
          "internalType": "address",
          "name": "newOwner",
          "type": "address"
        }
      ],
      "name": "transferOwnership",
      "outputs": [],
      "stateMutability": "nonpayable",
      "type": "function"
    }
  ],
  "bytecode": "0x60806040523480156200001157600080fd5b5060405162003fe138038062003fe18339810160408190526200003491620003b0565b733cc6cdda760b79bafa08df41ecfa224f810dceb66001838381818160009080519060200190620000679291906200023d565b5080516200007d9060019060208401906200023d565b50506006805460ff191690555060016007556200009a33620001eb565b50506daaeb6d7670e522a718067333cd4e3b15620001e15780156200012f57604051633e9f1edf60e11b81523060048201526001600160a01b03831660248201526daaeb6d7670e522a718067333cd4e90637d3e3dbe906044015b600060405180830381600087803b1580156200011057600080fd5b505af115801562000125573d6000803e3d6000fd5b50505050620001e1565b6001600160a01b03821615620001805760405163a0af290360e01b81523060048201526001600160a01b03831660248201526daaeb6d7670e522a718067333cd4e9063a0af290390604401620000f5565b604051632210724360e11b81523060048201526daaeb6d7670e522a718067333cd4e90634420e48690602401600060405180830381600087803b158015620001c757600080fd5b505af1158015620001dc573d6000803e3d6000fd5b505050505b5050505062000457565b600880546001600160a01b038381166001600160a01b0319831681179093556040519116919082907f8be0079c531659141344cd1fd0a4f28419497f9722a3daafe3b4186f6b6457e090600090a35050565b8280546200024b906200041a565b90600052602060002090601f0160209004810192826200026f5760008555620002ba565b82601f106200028a57805160ff1916838001178555620002ba565b82800160010185558215620002ba579182015b82811115620002ba5782518255916020019190600101906200029d565b50620002c8929150620002cc565b5090565b5b80821115620002c85760008155600101620002cd565b634e487b7160e01b600052604160045260246000fd5b600082601f8301126200030b57600080fd5b81516001600160401b0380821115620003285762000328620002e3565b604051601f8301601f19908116603f01168101908282118183101715620003535762000353620002e3565b816040528381526020925086838588010111156200037057600080fd5b600091505b8382101562000394578582018301518183018401529082019062000375565b83821115620003a65760008385830101525b9695505050505050565b60008060408385031215620003c457600080fd5b82516001600160401b0380821115620003dc57600080fd5b620003ea86838701620002f9565b935060208501519150808211156200040157600080fd5b506200041085828601620002f9565b9150509250929050565b600181811c908216806200042f57607f821691505b602082108114156200045157634e487b7160e01b600052602260045260246000fd5b50919050565b613b7a80620004676000396000f3fe60806040526004361061020f5760003560e01c80635c40f6f411610118578063a22cb465116100a0578063e985e9c51161006f578063e985e9c514610607578063ef169be214610650578063f2fde38b14610670578063febfd6c314610690578063ffc27c0e146106b057600080fd5b8063a22cb46514610587578063adfc7dae146105a7578063b88d4fde146105c7578063c87b56dd146105e757600080fd5b8063715018a6116100e7578063715018a6146104f2578063775bff9f146105075780638da5cb5b146105345780638f2839701461055257806395d89b411461057257600080fd5b80635c40f6f4146104645780635c975abb146104845780636352211e1461049c57806370a08231146104d257600080fd5b806323b872dd1161019b57806342842e0e1161016a57806342842e0e146103da578063452fa3d3146103fa578063472f1e021461040f5780634e69d5601461042f578063575b57ea1461044457600080fd5b806323b872dd146103435780632a55205a146103635780633b66b00a146103a257806341f43434146103b857600080fd5b8063095ea7b3116101e2578063095ea7b3146102c357806310da88c5146102e55780631249c58b146103055780631ca9741b1461031b57806321c8d6761461033b57600080fd5b806301bc45c91461021457806301ffc9a71461025157806306fdde0314610281578063081812fc146102a3575b600080fd5b34801561022057600080fd5b50600a54610234906001600160a01b031681565b6040516001600160a01b0390911681526020015b60405180910390f35b34801561025d57600080fd5b5061027161026c3660046130d2565b6106d0565b6040519015158152602001610248565b34801561028d57600080fd5b50610296610722565b604051610248919061314e565b3480156102af57600080fd5b506102346102be366004613161565b6107b4565b3480156102cf57600080fd5b506102e36102de36600461319f565b6107db565b005b3480156102f157600080fd5b50610296610300366004613161565b6108f6565b61030d6109de565b604051908152602001610248565b34801561032757600080fd5b506102e36103363660046131cb565b610c2a565b61030d610cbb565b34801561034f57600080fd5b506102e361035e3660046131e8565b610ff5565b34801561036f57600080fd5b5061038361037e366004613229565b611020565b604080516001600160a01b039093168352602083019190915201610248565b3480156103ae57600080fd5b5061030d600f5481565b3480156103c457600080fd5b506102346daaeb6d7670e522a718067333cd4e81565b3480156103e657600080fd5b506102e36103f53660046131e8565b611038565b34801561040657600080fd5b5061029661105d565b34801561041b57600080fd5b506102e361042a3660046131cb565b6110eb565b34801561043b57600080fd5b5061027161117d565b34801561045057600080fd5b50600d54610234906001600160a01b031681565b34801561047057600080fd5b506102e361047f366004613264565b611191565b34801561049057600080fd5b5060065460ff16610271565b3480156104a857600080fd5b506102346104b7366004613161565b6000908152600960205260409020546001600160a01b031690565b3480156104de57600080fd5b5061030d6104ed3660046131cb565b6111f8565b3480156104fe57600080fd5b506102e361127e565b34801561051357600080fd5b5061051c611292565b6040516102489c9b9a99989796959493929190613281565b34801561054057600080fd5b50600a546001600160a01b0316610234565b34801561055e57600080fd5b506102e361056d3660046131cb565b611435565b34801561057e57600080fd5b506102966114c7565b34801561059357600080fd5b506102e36105a236600461333e565b611565565b3480156105b357600080fd5b50600b54610234906001600160a01b031681565b3480156105d357600080fd5b506102e36105e236600461344e565b611574565b3480156105f357600080fd5b50610296610602366004613161565b6115a1565b34801561061357600080fd5b506102716106223660046134ce565b6001600160a01b03918216600090815260056020908152604080832093909416825291909152205460ff1690565b34801561065c57600080fd5b506102e361066b366004613607565b611640565b34801561067c57600080fd5b506102e361068b3660046131cb565b611928565b34801561069c57600080fd5b506102e36106ab3660046131cb565b61199e565b3480156106bc57600080fd5b50600c54610234906001600160a01b031681565b60006001600160e01b031982166380ac58cd60e01b148061070157506001600160e01b03198216635b5e139f60e01b145b8061071c57506301ffc9a760e01b6001600160e01b03198316145b92915050565b6060600e8054610731906137c1565b80601f016020809104026020016040519081016040528092919081815260200182805461075d906137c1565b80156107aa5780601f1061077f576101008083540402835291602001916107aa565b820191906000526020600020905b81548152906001019060200180831161078d57829003601f168201915b5050505050905090565b60006107bf82611a30565b506000908152600460205260409020546001600160a01b031690565b60006107e682611a80565b9050806001600160a01b0316836001600160a01b031614156108595760405162461bcd60e51b815260206004820152602160248201527f4552433732313a20617070726f76616c20746f2063757272656e74206f776e656044820152603960f91b60648201526084015b60405180910390fd5b336001600160a01b038216148061087557506108758133610622565b6108e75760405162461bcd60e51b815260206004820152603d60248201527f4552433732313a20617070726f76652063616c6c6572206973206e6f7420746f60448201527f6b656e206f776e6572206f7220617070726f76656420666f7220616c6c0000006064820152608401610850565b6108f18383611ae0565b505050565b606061090182611b4e565b6040518060400160405280600381526020016232303960e81b8152509061093b5760405162461bcd60e51b8152600401610850919061314e565b50600d546001600160a01b0316600061095384611b6b565b601154604051639413930160e01b8152600481019190915260248101869052604481018290529091506001600160a01b038316906394139301906064015b600060405180830381865afa1580156109ae573d6000803e3d6000fd5b505050506040513d6000823e601f3d908101601f191682016040526109d691908101906137fc565b949350505050565b60006109e8611c37565b60195415610a2f5760195460408051808201909152600381526206460760eb1b6020820152904211610a2d5760405162461bcd60e51b8152600401610850919061314e565b505b60128054600160301b900462ffffff16906006610a4b83613889565b82546101009290920a62ffffff818102199093169183160217909155601254630100000081048216600160301b90910490911611159050610a8b57600080fd5b60125462ffffff80821691610ab191600160481b8204811691600160301b9004166138ac565b62ffffff161415610b2257601054601154604051631122f8a960e11b815260048101919091526001600160a01b03909116908190632245f15290602401600060405180830381600087803b158015610b0857600080fd5b505af1158015610b1c573d6000803e3d6000fd5b50505050505b601254601154600160301b90910462ffffff1690610b4490620f4240906138d3565b610b4e91906138f2565b9050610b5a3382611c91565b600c54604051631da00d8560e01b8152600481018390526001600160a01b03909116906000908290631da00d85906024016020604051808303816000875af1158015610baa573d6000803e3d6000fd5b505050506040513d601f19601f82011682018060405250810190610bce919061390a565b9050610bda8382611cab565b610be2611d74565b60408051338152602081018590527f0f6798a560793a54c3bcfe86a93cde1e73087d944c0ea20544137d4121396885910160405180910390a15050610c276001600755565b90565b600a546001600160a01b031633148015610c4c57506001600160a01b03811615155b6040518060400160405280600381526020016231303160e81b81525090610c865760405162461bcd60e51b8152600401610850919061314e565b50600c546001600160a01b03828116911614610cb857600c80546001600160a01b0319166001600160a01b0383161790555b50565b6000610cc5611c37565b60128054600160481b900462ffffff16906009610ce183613889565b82546101009290920a62ffffff8181021990931691831602179091556012548082169250610d209163010000008204811691600160481b9004166138ac565b62ffffff161115610d3057600080fd5b60125462ffffff80821691610d5691600160481b8204811691600160301b9004166138ac565b62ffffff161415610dc757601054601154604051631122f8a960e11b815260048101919091526001600160a01b03909116908190632245f15290602401600060405180830381600087803b158015610dad57600080fd5b505af1158015610dc1573d6000803e3d6000fd5b50505050505b601054336000908152601a60205260409020546001600160a01b039091169060ff1680610e7157506011546040516331a9108f60e11b815260048101919091526001600160a01b03821690636352211e90602401602060405180830381865afa158015610e38573d6000803e3d6000fd5b505050506040513d601f19601f82011682018060405250810190610e5c9190613923565b6001600160a01b0316336001600160a01b0316145b610e7a57600080fd5b336000908152601a602052604090205460ff168015610e9a575060195415155b15610ede5760195460408051808201909152600381526206460760eb1b6020820152904211610edc5760405162461bcd60e51b8152600401610850919061314e565b505b601254610f009062ffffff63010000008204811691600160481b9004166138ac565b62ffffff16620f4240601060010154610f1991906138d3565b610f2391906138f2565b9150610f2f3383611c91565b600c54604051631da00d8560e01b8152600481018490526001600160a01b03909116906000908290631da00d85906024016020604051808303816000875af1158015610f7f573d6000803e3d6000fd5b505050506040513d601f19601f82011682018060405250810190610fa3919061390a565b9050610faf8482611cab565b60408051338152602081018690527f0f6798a560793a54c3bcfe86a93cde1e73087d944c0ea20544137d4121396885910160405180910390a1505050610c276001600755565b826001600160a01b038116331461100f5761100f33612359565b61101a848484612412565b50505050565b60008061102d8484612443565b915091509250929050565b826001600160a01b03811633146110525761105233612359565b61101a8484846125dd565b600e805461106a906137c1565b80601f0160208091040260200160405190810160405280929190818152602001828054611096906137c1565b80156110e35780601f106110b8576101008083540402835291602001916110e3565b820191906000526020600020905b8154815290600101906020018083116110c657829003601f168201915b505050505081565b600a546001600160a01b03163314801561110d57506001600160a01b03811615155b6040518060400160405280600381526020016231303160e81b815250906111475760405162461bcd60e51b8152600401610850919061314e565b50600d546001600160a01b03828116911614610cb857600d80546001600160a01b0383166001600160a01b031990911617905550565b600061118b60065460ff1690565b15905090565b600a546001600160a01b03163314806111b457506010546001600160a01b031633145b6040518060400160405280600381526020016231303160e81b815250906111ee5760405162461bcd60e51b8152600401610850919061314e565b50610cb8816125f8565b60006001600160a01b0382166112625760405162461bcd60e51b815260206004820152602960248201527f4552433732313a2061646472657373207a65726f206973206e6f7420612076616044820152683634b21037bbb732b960b91b6064820152608401610850565b506001600160a01b031660009081526003602052604090205490565b61128661260e565b611290600061268c565b565b60108054601154601254601380546001600160a01b0390941694929362ffffff8084169463010000008504821694600160301b8104831694600160481b909104909216929091906112e2906137c1565b80601f016020809104026020016040519081016040528092919081815260200182805461130e906137c1565b801561135b5780601f106113305761010080835404028352916020019161135b565b820191906000526020600020905b81548152906001019060200180831161133e57829003601f168201915b5050505060048301546005840154600685015460078601805495966001600160a01b0394851696939550939091169291611394906137c1565b80601f01602080910402602001604051908101604052809291908181526020018280546113c0906137c1565b801561140d5780601f106113e25761010080835404028352916020019161140d565b820191906000526020600020905b8154815290600101906020018083116113f057829003601f168201915b50506040805180820190915260088601548152600990950154602086015250919291508d9050565b600a546001600160a01b03163314801561145757506001600160a01b03811615155b6040518060400160405280600381526020016231303160e81b815250906114915760405162461bcd60e51b8152600401610850919061314e565b50600a546001600160a01b03828116911614610cb857600a80546001600160a01b0383166001600160a01b031990911617905550565b606061156060016003600e80546114dd906137c1565b80601f0160208091040260200160405190810160405280929190818152602001828054611509906137c1565b80156115565780601f1061152b57610100808354040283529160200191611556565b820191906000526020600020905b81548152906001019060200180831161153957829003601f168201915b50505050506126de565b905090565b6115703383836127c5565b5050565b836001600160a01b038116331461158e5761158e33612359565b61159a85858585612894565b5050505050565b60606115ac82611b4e565b6040518060400160405280600381526020016232303960e81b815250906115e65760405162461bcd60e51b8152600401610850919061314e565b50600d546001600160a01b031660006115fe84611b6b565b6011546040516308dd54e960e31b8152600481019190915260248101869052604481018290529091506001600160a01b038316906346eaa74890606401610991565b600a5460408051808201909152600381526219181960e91b6020820152906001600160a01b0316156116855760405162461bcd60e51b8152600401610850919061314e565b5060408051808201909152600381526203130360ec1b60208201526001600160a01b0388166116c75760405162461bcd60e51b8152600401610850919061314e565b508751601080546001600160a01b039092166001600160a01b03199092169190911781556020808a015160115560408a01516012805460608d015160808e015160a08f015162ffffff908116600160481b026bffffff00000000000000000019928216600160301b02929092166bffffffffffff0000000000001993821663010000000265ffffffffffff19909516919096161792909217169290921791909117905560c08a015180518b939261178392601392910190613023565b5060e08201516004820180546001600160a01b039283166001600160a01b031991821617909155610100840151600584015561012084015160068401805491909316911617905561014082015180516117e6916007840191602090910190613023565b50610160919091015180516008830155602090810151600990920191909155600b80546001600160a01b03808a166001600160a01b031992831617909255600a80548b8416908316179055600c8054898416908316179055600d80549288169290911691909117905561014089015160c08a01516040516118679301613940565b604051602081830303815290604052600e908051906020019061188b929190613023565b5060005b83518110156118f4576001601a60008684815181106118b0576118b061397f565b6020908102919091018101516001600160a01b03168252810191909152604001600020805460ff1916911515919091179055806118ec81613995565b91505061188f565b50600a5461190a906001600160a01b0316611928565b8115611918576119186128c6565b42601855600f5550505050505050565b61193061260e565b6001600160a01b0381166119955760405162461bcd60e51b815260206004820152602660248201527f4f776e61626c653a206e6577206f776e657220697320746865207a65726f206160448201526564647265737360d01b6064820152608401610850565b610cb88161268c565b600a546001600160a01b0316331480156119c057506001600160a01b03811615155b6040518060400160405280600381526020016231303160e81b815250906119fa5760405162461bcd60e51b8152600401610850919061314e565b50600b546001600160a01b03828116911614610cb857600b80546001600160a01b0383166001600160a01b031990911617905550565b611a3981611b4e565b610cb85760405162461bcd60e51b8152602060048201526018602482015277115490cdcc8c4e881a5b9d985b1a59081d1bdad95b88125160421b6044820152606401610850565b6000818152600260205260408120546001600160a01b03168061071c5760405162461bcd60e51b8152602060048201526018602482015277115490cdcc8c4e881a5b9d985b1a59081d1bdad95b88125160421b6044820152606401610850565b600081815260046020526040902080546001600160a01b0319166001600160a01b0384169081179091558190611b1582611a80565b6001600160a01b03167f8c5be1e5ebec7d5bd14f71427d1e84f3dd0314c0f7b2291e5b200ac8c7c3b92560405160405180910390a45050565b6000908152600960205260409020546001600160a01b0316151590565b6000611b7682611b4e565b6040518060400160405280600381526020016232303960e81b81525090611bb05760405162461bcd60e51b8152600401610850919061314e565b50600082815260096020526040902054600160a01b900460a01b6001600160a01b031916611be057506000919050565b600082815260096020908152604091829020549151611c1a92600160a01b900460a01b91016001600160a01b031991909116815260200190565b604051602081830303815290604052805190602001209050919050565b60026007541415611c8a5760405162461bcd60e51b815260206004820152601f60248201527f5265656e7472616e637947756172643a207265656e7472616e742063616c6c006044820152606401610850565b6002600755565b611570828260405180602001604052806000815250612920565b600082815260096020908152604091829020548251808401909352600383526219181b60e91b91830191909152600160a01b900460a01b6001600160a01b03191615611d0a5760405162461bcd60e51b8152600401610850919061314e565b5060408051808201909152600381526232303760e81b602082015281611d435760405162461bcd60e51b8152600401610850919061314e565b50600091825260096020526040909120805460a09290921c600160a01b026001600160a01b03909216919091179055565b60155480611d7f5750565b601054600b54604080518082018252601b81527f44454641554c545f524f59414c54595f46494e5f50455243454e54000000000060208201529051636d12dce160e01b81526001600160a01b0393841693909216916000918391636d12dce191611deb9160040161314e565b602060405180830381865afa158015611e08573d6000803e3d6000fd5b505050506040513d601f19601f82011682018060405250810190611e2c919061390a565b600a54600b549192506001600160a01b03908116911615611f985760408051808201825260158152744d494e545f4e46545f4f50455241544f525f46454560581b60208201529051636d12dce160e01b81526001600160a01b03851691636d12dce191611e9c919060040161314e565b602060405180830381865afa158015611eb9573d6000803e3d6000fd5b505050506040513d601f19601f82011682018060405250810190611edd919061390a565b604080518082018252601f81527f4d494e545f4e46545f4f50455241544f525f54524541535552455f41444452006020820152905163bf40fac160e01b81529193506000916001600160a01b0386169163bf40fac191611f40919060040161314e565b602060405180830381865afa158015611f5d573d6000803e3d6000fd5b505050506040513d601f19601f82011682018060405250810190611f819190613923565b90506001600160a01b03811615611f96578091505b505b6016546001600160a01b0316806121185785341015611fb657600080fd5b6011546040516331a9108f60e11b81526000916001600160a01b03881691636352211e91611fea9160040190815260200190565b602060405180830381865afa158015612007573d6000803e3d6000fd5b505050506040513d601f19601f8201168201806040525081019061202b9190613923565b6001600160a01b0316612710612041868a6138d3565b61204b91906139b0565b61205590896139d2565b604051600081818185875af1925050503d8060008114612091576040519150601f19603f3d011682016040523d82523d6000602084013e612096565b606091505b50509050806120a457600080fd5b8315612112576001600160a01b0383166127106120c1868a6138d3565b6120cb91906139b0565b604051600081818185875af1925050503d8060008114612107576040519150601f19603f3d011682016040523d82523d6000602084013e61210c565b606091505b50909150505b50612351565b6040516323b872dd60e01b81523360048201523060248201526044810187905281906001600160a01b038216906323b872dd906064016020604051808303816000875af115801561216d573d6000803e3d6000fd5b505050506040513d601f19601f8201168201806040525081019061219191906139e9565b61219a57600080fd5b6011546040516331a9108f60e11b815260048101919091526001600160a01b038281169163a9059cbb91891690636352211e90602401602060405180830381865afa1580156121ed573d6000803e3d6000fd5b505050506040513d601f19601f820116820180604052508101906122119190613923565b61271061221e888c6138d3565b61222891906139b0565b612232908b6139d2565b6040516001600160e01b031960e085901b1681526001600160a01b03909216600483015260248201526044016020604051808303816000875af115801561227d573d6000803e3d6000fd5b505050506040513d601f19601f820116820180604052508101906122a191906139e9565b6122aa57600080fd5b831561234f576001600160a01b03811663a9059cbb846127106122cd888c6138d3565b6122d791906139b0565b6040516001600160e01b031960e085901b1681526001600160a01b03909216600483015260248201526044016020604051808303816000875af1158015612322573d6000803e3d6000fd5b505050506040513d601f19601f8201168201806040525081019061234691906139e9565b61234f57600080fd5b505b505050505050565b6daaeb6d7670e522a718067333cd4e3b15610cb857604051633185c44d60e21b81523060048201526001600160a01b03821660248201526daaeb6d7670e522a718067333cd4e9063c617113490604401602060405180830381865afa1580156123c6573d6000803e3d6000fd5b505050506040513d601f19601f820116820180604052508101906123ea91906139e9565b610cb857604051633b79c77360e21b81526001600160a01b0382166004820152602401610850565b61241c3382612953565b6124385760405162461bcd60e51b815260040161085090613a06565b6108f18383836129d1565b600a54600f54600b546001600160a01b03928316926000929116156125bc57600b546040805180820182526013815272524f59414c54595f46494e5f4144445245535360681b6020820152905163bf40fac160e01b81526001600160a01b0390921691600091839163bf40fac1916124bd9160040161314e565b602060405180830381865afa1580156124da573d6000803e3d6000fd5b505050506040513d601f19601f820116820180604052508101906124fe9190613923565b90506001600160a01b03811615612513578094505b826125b957604080518082018252601b81527f44454641554c545f524f59414c54595f46494e5f50455243454e54000000000060208201529051636d12dce160e01b81526001600160a01b03841691636d12dce191612575919060040161314e565b602060405180830381865afa158015612592573d6000803e3d6000fd5b505050506040513d601f19601f820116820180604052508101906125b6919061390a565b92505b50505b6127106125c982866138d3565b6125d391906139b0565b9150509250929050565b6108f183838360405180602001604052806000815250611574565b801561260657610cb8612a0b565b610cb86128c6565b33612621600a546001600160a01b031690565b6001600160a01b0316148061264057506010546001600160a01b031633145b6112905760405162461bcd60e51b815260206004820181905260248201527f4f776e61626c653a2063616c6c6572206973206e6f7420746865206f776e65726044820152606401610850565b600880546001600160a01b038381166001600160a01b0319831681179093556040519116919082907f8be0079c531659141344cd1fd0a4f28419497f9722a3daafe3b4186f6b6457e090600090a35050565b606060006126ec85856139d2565b6126f79060016138f2565b67ffffffffffffffff81111561270f5761270f613377565b6040519080825280601f01601f191660200182016040528015612739576020820181803683370190505b50905060005b61274986866139d2565b81116127bc5783600161275c88846138f2565b61276691906139d2565b815181106127765761277661397f565b602001015160f81c60f81b8282815181106127935761279361397f565b60200101906001600160f81b031916908160001a905350806127b481613995565b91505061273f565b50949350505050565b816001600160a01b0316836001600160a01b031614156128275760405162461bcd60e51b815260206004820152601960248201527f4552433732313a20617070726f766520746f2063616c6c6572000000000000006044820152606401610850565b6001600160a01b03838116600081815260056020908152604080832094871680845294825291829020805460ff191686151590811790915591519182527f17307eab39ab6107e8899845ad3d59bd9653f200f220920489ca2b5937696c31910160405180910390a3505050565b61289e3383612953565b6128ba5760405162461bcd60e51b815260040161085090613a06565b61101a84848484612a44565b6128ce612a77565b6006805460ff191660011790557f62e78cea01bee320cd4e420270b5ea74000d11b0c9f74754ebdbfc544b05a2586129033390565b6040516001600160a01b03909116815260200160405180910390a1565b61292a8383612abd565b6129376000848484612af5565b6108f15760405162461bcd60e51b815260040161085090613a53565b60008061295f83611a80565b9050806001600160a01b0316846001600160a01b031614806129a657506001600160a01b0380821660009081526005602090815260408083209388168352929052205460ff165b806109d65750836001600160a01b03166129bf846107b4565b6001600160a01b031614949350505050565b6129dc838383612bf3565b600090815260096020526040902080546001600160a01b0319166001600160a01b039290921691909117905550565b612a13612d64565b6006805460ff191690557f5db9ee0a495bf2e6ff9c91a7834c1ba4fdd244a5e8aa4e537bd38aeae4b073aa33612903565b612a4f8484846129d1565b612a5b84848484612af5565b61101a5760405162461bcd60e51b815260040161085090613a53565b60065460ff16156112905760405162461bcd60e51b815260206004820152601060248201526f14185d5cd8589b194e881c185d5cd95960821b6044820152606401610850565b612ac78282612dad565b600090815260096020526040902080546001600160a01b0319166001600160a01b0392909216919091179055565b60006001600160a01b0384163b15612be857604051630a85bd0160e11b81526001600160a01b0385169063150b7a0290612b39903390899088908890600401613aa5565b6020604051808303816000875af1925050508015612b74575060408051601f3d908101601f19168201909252612b7191810190613ae2565b60015b612bce573d808015612ba2576040519150601f19603f3d011682016040523d82523d6000602084013e612ba7565b606091505b508051612bc65760405162461bcd60e51b815260040161085090613a53565b805181602001fd5b6001600160e01b031916630a85bd0160e11b1490506109d6565b506001949350505050565b826001600160a01b0316612c0682611a80565b6001600160a01b031614612c2c5760405162461bcd60e51b815260040161085090613aff565b6001600160a01b038216612c8e5760405162461bcd60e51b8152602060048201526024808201527f4552433732313a207472616e7366657220746f20746865207a65726f206164646044820152637265737360e01b6064820152608401610850565b612c9b8383836001612f28565b826001600160a01b0316612cae82611a80565b6001600160a01b031614612cd45760405162461bcd60e51b815260040161085090613aff565b600081815260046020908152604080832080546001600160a01b03199081169091556001600160a01b0387811680865260038552838620805460001901905590871680865283862080546001019055868652600290945282852080549092168417909155905184937fddf252ad1be2c89b69c2b068fc378daa952ba7f163c4a11628f55a4df523b3ef91a4505050565b60065460ff166112905760405162461bcd60e51b815260206004820152601460248201527314185d5cd8589b194e881b9bdd081c185d5cd95960621b6044820152606401610850565b6001600160a01b038216612e035760405162461bcd60e51b815260206004820181905260248201527f4552433732313a206d696e7420746f20746865207a65726f20616464726573736044820152606401610850565b612e0c81611b4e565b15612e595760405162461bcd60e51b815260206004820152601c60248201527f4552433732313a20746f6b656e20616c7265616479206d696e746564000000006044820152606401610850565b612e67600083836001612f28565b612e7081611b4e565b15612ebd5760405162461bcd60e51b815260206004820152601c60248201527f4552433732313a20746f6b656e20616c7265616479206d696e746564000000006044820152606401610850565b6001600160a01b038216600081815260036020908152604080832080546001019055848352600290915280822080546001600160a01b0319168417905551839291907fddf252ad1be2c89b69c2b068fc378daa952ba7f163c4a11628f55a4df523b3ef908290a45050565b612f3484848484612f9b565b60065460ff161561101a5760405162461bcd60e51b815260206004820152602b60248201527f4552433732315061757361626c653a20746f6b656e207472616e73666572207760448201526a1a1a5b19481c185d5cd95960aa1b6064820152608401610850565b600181111561101a576001600160a01b03841615612fe1576001600160a01b03841660009081526003602052604081208054839290612fdb9084906139d2565b90915550505b6001600160a01b0383161561101a576001600160a01b038316600090815260036020526040812080548392906130189084906138f2565b909155505050505050565b82805461302f906137c1565b90600052602060002090601f0160209004810192826130515760008555613097565b82601f1061306a57805160ff1916838001178555613097565b82800160010185558215613097579182015b8281111561309757825182559160200191906001019061307c565b506130a39291506130a7565b5090565b5b808211156130a357600081556001016130a8565b6001600160e01b031981168114610cb857600080fd5b6000602082840312156130e457600080fd5b81356130ef816130bc565b9392505050565b60005b838110156131115781810151838201526020016130f9565b8381111561101a5750506000910152565b6000815180845261313a8160208601602086016130f6565b601f01601f19169290920160200192915050565b6020815260006130ef6020830184613122565b60006020828403121561317357600080fd5b5035919050565b6001600160a01b0381168114610cb857600080fd5b803561319a8161317a565b919050565b600080604083850312156131b257600080fd5b82356131bd8161317a565b946020939093013593505050565b6000602082840312156131dd57600080fd5b81356130ef8161317a565b6000806000606084860312156131fd57600080fd5b83356132088161317a565b925060208401356132188161317a565b929592945050506040919091013590565b6000806040838503121561323c57600080fd5b50508035926020909101359150565b8015158114610cb857600080fd5b803561319a8161324b565b60006020828403121561327657600080fd5b81356130ef8161324b565b6001600160a01b038d168152602081018c905262ffffff8b811660408301528a811660608301528981166080830152881660a08201526101a060c082018190526000906132d08382018a613122565b6001600160a01b03891660e08501529050866101008401526132fe6101208401876001600160a01b03169052565b8281036101408401526133118186613122565b84516101608501526020850151610180850152915061332d9050565b9d9c50505050505050505050505050565b6000806040838503121561335157600080fd5b823561335c8161317a565b9150602083013561336c8161324b565b809150509250929050565b634e487b7160e01b600052604160045260246000fd5b604051610180810167ffffffffffffffff811182821017156133b1576133b1613377565b60405290565b604051601f8201601f1916810167ffffffffffffffff811182821017156133e0576133e0613377565b604052919050565b600067ffffffffffffffff82111561340257613402613377565b50601f01601f191660200190565b600061342361341e846133e8565b6133b7565b905082815283838301111561343757600080fd5b828260208301376000602084830101529392505050565b6000806000806080858703121561346457600080fd5b843561346f8161317a565b9350602085013561347f8161317a565b925060408501359150606085013567ffffffffffffffff8111156134a257600080fd5b8501601f810187136134b357600080fd5b6134c287823560208401613410565b91505092959194509250565b600080604083850312156134e157600080fd5b82356134ec8161317a565b9150602083013561336c8161317a565b803562ffffff8116811461319a57600080fd5b600082601f83011261352057600080fd5b6130ef83833560208501613410565b60006040828403121561354157600080fd5b6040516040810181811067ffffffffffffffff8211171561356457613564613377565b604052823581526020928301359281019290925250919050565b600082601f83011261358f57600080fd5b8135602067ffffffffffffffff8211156135ab576135ab613377565b8160051b6135ba8282016133b7565b92835284810182019282810190878511156135d457600080fd5b83870192505b848310156135fc5782356135ed8161317a565b825291830191908301906135da565b979650505050505050565b600080600080600080600080610100808a8c03121561362557600080fd5b893567ffffffffffffffff8082111561363d57600080fd5b908b01906101a0828e03121561365257600080fd5b61365a61338d565b6136638361318f565b81526020830135602082015261367b604084016134fc565b604082015261368c606084016134fc565b606082015261369d608084016134fc565b60808201526136ae60a084016134fc565b60a082015260c0830135828111156136c557600080fd5b6136d18f82860161350f565b60c0830152506136e360e0840161318f565b60e08201528383013584820152610120935061370084840161318f565b848201526101409350838301358281111561371a57600080fd5b6137268f82860161350f565b8583015250610160935061373c8e85850161352f565b818501529a5061374e60208d0161318f565b995061375c60408d0161318f565b985061376a60608d0161318f565b975061377860808d0161318f565b965060a08c013592508083111561378e57600080fd5b505061379c8b828c0161357e565b9350506137ab60c08a01613259565b915060e089013590509295985092959890939650565b600181811c908216806137d557607f821691505b602082108114156137f657634e487b7160e01b600052602260045260246000fd5b50919050565b60006020828403121561380e57600080fd5b815167ffffffffffffffff81111561382557600080fd5b8201601f8101841361383657600080fd5b805161384461341e826133e8565b81815285602083850101111561385957600080fd5b61386a8260208301602086016130f6565b95945050505050565b634e487b7160e01b600052601160045260246000fd5b600062ffffff808316818114156138a2576138a2613873565b6001019392505050565b600062ffffff8083168185168083038211156138ca576138ca613873565b01949350505050565b60008160001904831182151516156138ed576138ed613873565b500290565b6000821982111561390557613905613873565b500190565b60006020828403121561391c57600080fd5b5051919050565b60006020828403121561393557600080fd5b81516130ef8161317a565b600083516139528184602088016130f6565b63010313c960e51b90830190815283516139738160048401602088016130f6565b01600401949350505050565b634e487b7160e01b600052603260045260246000fd5b60006000198214156139a9576139a9613873565b5060010190565b6000826139cd57634e487b7160e01b600052601260045260246000fd5b500490565b6000828210156139e4576139e4613873565b500390565b6000602082840312156139fb57600080fd5b81516130ef8161324b565b6020808252602d908201527f4552433732313a2063616c6c6572206973206e6f7420746f6b656e206f776e6560408201526c1c881bdc88185c1c1c9bdd9959609a1b606082015260800190565b60208082526032908201527f4552433732313a207472616e7366657220746f206e6f6e20455243373231526560408201527131b2b4bb32b91034b6b83632b6b2b73a32b960711b606082015260800190565b6001600160a01b0385811682528416602082015260408101839052608060608201819052600090613ad890830184613122565b9695505050505050565b600060208284031215613af457600080fd5b81516130ef816130bc565b60208082526025908201527f4552433732313a207472616e736665722066726f6d20696e636f72726563742060408201526437bbb732b960d91b60608201526080019056fea2646970667358221220b32ebfbd297cca52c79d55cc39b8ba8ea6e287c8e712aa1fc5e794be665273ba64736f6c634300080c0033",
  "linkReferences": {},
  "deployedLinkReferences": {}
}