{
  "_format": "hh-sol-artifact-1",
  "contractName": "GenerativeNFT",
  "sourceName": "contracts/nfts/GenerativeNFT.sol",
  "abi": [
    {
      "inputs": [
        {
          "internalType": "string",
          "name": "name",
          "type": "string"
        },
        {
          "internalType": "string",
          "name": "symbol",
          "type": "string"
        }
      ],
      "stateMutability": "nonpayable",
      "type": "constructor"
    },
    {
      "inputs": [
        {
          "internalType": "address",
          "name": "operator",
          "type": "address"
        }
      ],
      "name": "OperatorNotAllowed",
      "type": "error"
    },
    {
      "anonymous": false,
      "inputs": [
        {
          "indexed": true,
          "internalType": "address",
          "name": "owner",
          "type": "address"
        },
        {
          "indexed": true,
          "internalType": "address",
          "name": "approved",
          "type": "address"
        },
        {
          "indexed": true,
          "internalType": "uint256",
          "name": "tokenId",
          "type": "uint256"
        }
      ],
      "name": "Approval",
      "type": "event"
    },
    {
      "anonymous": false,
      "inputs": [
        {
          "indexed": true,
          "internalType": "address",
          "name": "owner",
          "type": "address"
        },
        {
          "indexed": true,
          "internalType": "address",
          "name": "operator",
          "type": "address"
        },
        {
          "indexed": false,
          "internalType": "bool",
          "name": "approved",
          "type": "bool"
        }
      ],
      "name": "ApprovalForAll",
      "type": "event"
    },
    {
      "anonymous": false,
      "inputs": [
        {
          "indexed": true,
          "internalType": "address",
          "name": "previousOwner",
          "type": "address"
        },
        {
          "indexed": true,
          "internalType": "address",
          "name": "newOwner",
          "type": "address"
        }
      ],
      "name": "OwnershipTransferred",
      "type": "event"
    },
    {
      "anonymous": false,
      "inputs": [
        {
          "indexed": false,
          "internalType": "address",
          "name": "account",
          "type": "address"
        }
      ],
      "name": "Paused",
      "type": "event"
    },
    {
      "anonymous": false,
      "inputs": [
        {
          "indexed": true,
          "internalType": "address",
          "name": "from",
          "type": "address"
        },
        {
          "indexed": true,
          "internalType": "address",
          "name": "to",
          "type": "address"
        },
        {
          "indexed": true,
          "internalType": "uint256",
          "name": "tokenId",
          "type": "uint256"
        }
      ],
      "name": "Transfer",
      "type": "event"
    },
    {
      "anonymous": false,
      "inputs": [
        {
          "indexed": false,
          "internalType": "address",
          "name": "account",
          "type": "address"
        }
      ],
      "name": "Unpaused",
      "type": "event"
    },
    {
      "inputs": [],
      "name": "OPERATOR_FILTER_REGISTRY",
      "outputs": [
        {
          "internalType": "contract IOperatorFilterRegistry",
          "name": "",
          "type": "address"
        }
      ],
      "stateMutability": "view",
      "type": "function"
    },
    {
      "inputs": [],
      "name": "_admin",
      "outputs": [
        {
          "internalType": "address",
          "name": "",
          "type": "address"
        }
      ],
      "stateMutability": "view",
      "type": "function"
    },
    {
      "inputs": [],
      "name": "_nameCol",
      "outputs": [
        {
          "internalType": "string",
          "name": "",
          "type": "string"
        }
      ],
      "stateMutability": "view",
      "type": "function"
    },
    {
      "inputs": [],
      "name": "_paramsAddress",
      "outputs": [
        {
          "internalType": "address",
          "name": "",
          "type": "address"
        }
      ],
      "stateMutability": "view",
      "type": "function"
    },
    {
      "inputs": [],
      "name": "_project",
      "outputs": [
        {
          "internalType": "address",
          "name": "_projectAddr",
          "type": "address"
        },
        {
          "internalType": "uint256",
          "name": "_projectId",
          "type": "uint256"
        },
        {
          "internalType": "uint24",
          "name": "_maxSupply",
          "type": "uint24"
        },
        {
          "internalType": "uint24",
          "name": "_limit",
          "type": "uint24"
        },
        {
          "internalType": "uint24",
          "name": "_index",
          "type": "uint24"
        },
        {
          "internalType": "uint24",
          "name": "_indexReserve",
          "type": "uint24"
        },
        {
          "internalType": "string",
          "name": "_creator",
          "type": "string"
        },
        {
          "internalType": "address",
          "name": "_creatorAddr",
          "type": "address"
        },
        {
          "internalType": "uint256",
          "name": "_mintPrice",
          "type": "uint256"
        },
        {
          "internalType": "address",
          "name": "_mintPriceAddr",
          "type": "address"
        },
        {
          "internalType": "string",
          "name": "_name",
          "type": "string"
        },
        {
          "components": [
            {
              "internalType": "uint256",
              "name": "_initBlockTime",
              "type": "uint256"
            },
            {
              "internalType": "uint256",
              "name": "_openingTime",
              "type": "uint256"
            }
          ],
          "internalType": "struct NFTProject.ProjectMintingSchedule",
          "name": "_mintingSchedule",
          "type": "tuple"
        }
      ],
      "stateMutability": "view",
      "type": "function"
    },
    {
      "inputs": [],
      "name": "_projectDataContextAddr",
      "outputs": [
        {
          "internalType": "address",
          "name": "",
          "type": "address"
        }
      ],
      "stateMutability": "view",
      "type": "function"
    },
    {
      "inputs": [],
      "name": "_randomizer",
      "outputs": [
        {
          "internalType": "address",
          "name": "",
          "type": "address"
        }
      ],
      "stateMutability": "view",
      "type": "function"
    },
    {
      "inputs": [],
      "name": "_royalty",
      "outputs": [
        {
          "internalType": "uint256",
          "name": "",
          "type": "uint256"
        }
      ],
      "stateMutability": "view",
      "type": "function"
    },
    {
      "inputs": [
        {
          "internalType": "address",
          "name": "to",
          "type": "address"
        },
        {
          "internalType": "uint256",
          "name": "tokenId",
          "type": "uint256"
        }
      ],
      "name": "approve",
      "outputs": [],
      "stateMutability": "nonpayable",
      "type": "function"
    },
    {
      "inputs": [
        {
          "internalType": "address",
          "name": "owner",
          "type": "address"
        }
      ],
      "name": "balanceOf",
      "outputs": [
        {
          "internalType": "uint256",
          "name": "",
          "type": "uint256"
        }
      ],
      "stateMutability": "view",
      "type": "function"
    },
    {
      "inputs": [
        {
          "internalType": "address",
          "name": "newAdm",
          "type": "address"
        }
      ],
      "name": "changeAdmin",
      "outputs": [],
      "stateMutability": "nonpayable",
      "type": "function"
    },
    {
      "inputs": [
        {
          "internalType": "address",
          "name": "newAddr",
          "type": "address"
        }
      ],
      "name": "changeDataContextAddr",
      "outputs": [],
      "stateMutability": "nonpayable",
      "type": "function"
    },
    {
      "inputs": [
        {
          "internalType": "address",
          "name": "newAddr",
          "type": "address"
        }
      ],
      "name": "changeParamAddr",
      "outputs": [],
      "stateMutability": "nonpayable",
      "type": "function"
    },
    {
      "inputs": [
        {
          "internalType": "address",
          "name": "newAddr",
          "type": "address"
        }
      ],
      "name": "changeRandomizerAddr",
      "outputs": [],
      "stateMutability": "nonpayable",
      "type": "function"
    },
    {
      "inputs": [
        {
          "internalType": "uint256",
          "name": "tokenId",
          "type": "uint256"
        }
      ],
      "name": "getApproved",
      "outputs": [
        {
          "internalType": "address",
          "name": "",
          "type": "address"
        }
      ],
      "stateMutability": "view",
      "type": "function"
    },
    {
      "inputs": [],
      "name": "getStatus",
      "outputs": [
        {
          "internalType": "bool",
          "name": "",
          "type": "bool"
        }
      ],
      "stateMutability": "view",
      "type": "function"
    },
    {
      "inputs": [
        {
          "components": [
            {
              "internalType": "address",
              "name": "_projectAddr",
              "type": "address"
            },
            {
              "internalType": "uint256",
              "name": "_projectId",
              "type": "uint256"
            },
            {
              "internalType": "uint24",
              "name": "_maxSupply",
              "type": "uint24"
            },
            {
              "internalType": "uint24",
              "name": "_limit",
              "type": "uint24"
            },
            {
              "internalType": "uint24",
              "name": "_index",
              "type": "uint24"
            },
            {
              "internalType": "uint24",
              "name": "_indexReserve",
              "type": "uint24"
            },
            {
              "internalType": "string",
              "name": "_creator",
              "type": "string"
            },
            {
              "internalType": "address",
              "name": "_creatorAddr",
              "type": "address"
            },
            {
              "internalType": "uint256",
              "name": "_mintPrice",
              "type": "uint256"
            },
            {
              "internalType": "address",
              "name": "_mintPriceAddr",
              "type": "address"
            },
            {
              "internalType": "string",
              "name": "_name",
              "type": "string"
            },
            {
              "components": [
                {
                  "internalType": "uint256",
                  "name": "_initBlockTime",
                  "type": "uint256"
                },
                {
                  "internalType": "uint256",
                  "name": "_openingTime",
                  "type": "uint256"
                }
              ],
              "internalType": "struct NFTProject.ProjectMintingSchedule",
              "name": "_mintingSchedule",
              "type": "tuple"
            }
          ],
          "internalType": "struct NFTProject.ProjectMinting",
          "name": "project",
          "type": "tuple"
        },
        {
          "internalType": "address",
          "name": "admin",
          "type": "address"
        },
        {
          "internalType": "address",
          "name": "paramsAddr",
          "type": "address"
        },
        {
          "internalType": "address",
          "name": "randomizer",
          "type": "address"
        },
        {
          "internalType": "address",
          "name": "projectDataContextAddr",
          "type": "address"
        },
        {
          "internalType": "address[]",
          "name": "reserves",
          "type": "address[]"
        },
        {
          "internalType": "bool",
          "name": "disable",
          "type": "bool"
        },
        {
          "internalType": "uint256",
          "name": "royalty",
          "type": "uint256"
        }
      ],
      "name": "init",
      "outputs": [],
      "stateMutability": "nonpayable",
      "type": "function"
    },
    {
      "inputs": [
        {
          "internalType": "address",
          "name": "owner",
          "type": "address"
        },
        {
          "internalType": "address",
          "name": "operator",
          "type": "address"
        }
      ],
      "name": "isApprovedForAll",
      "outputs": [
        {
          "internalType": "bool",
          "name": "",
          "type": "bool"
        }
      ],
      "stateMutability": "view",
      "type": "function"
    },
    {
      "inputs": [],
      "name": "mint",
      "outputs": [
        {
          "internalType": "uint256",
          "name": "tokenId",
          "type": "uint256"
        }
      ],
      "stateMutability": "payable",
      "type": "function"
    },
    {
      "inputs": [],
      "name": "name",
      "outputs": [
        {
          "internalType": "string",
          "name": "",
          "type": "string"
        }
      ],
      "stateMutability": "view",
      "type": "function"
    },
    {
      "inputs": [],
      "name": "owner",
      "outputs": [
        {
          "internalType": "address",
          "name": "",
          "type": "address"
        }
      ],
      "stateMutability": "view",
      "type": "function"
    },
    {
      "inputs": [
        {
          "internalType": "uint256",
          "name": "tokenId",
          "type": "uint256"
        }
      ],
      "name": "ownerOf",
      "outputs": [
        {
          "internalType": "address",
          "name": "",
          "type": "address"
        }
      ],
      "stateMutability": "view",
      "type": "function"
    },
    {
      "inputs": [],
      "name": "paused",
      "outputs": [
        {
          "internalType": "bool",
          "name": "",
          "type": "bool"
        }
      ],
      "stateMutability": "view",
      "type": "function"
    },
    {
      "inputs": [],
      "name": "renounceOwnership",
      "outputs": [],
      "stateMutability": "nonpayable",
      "type": "function"
    },
    {
      "inputs": [],
      "name": "reserveMint",
      "outputs": [
        {
          "internalType": "uint256",
          "name": "tokenId",
          "type": "uint256"
        }
      ],
      "stateMutability": "payable",
      "type": "function"
    },
    {
      "inputs": [
        {
          "internalType": "uint256",
          "name": "_tokenId",
          "type": "uint256"
        },
        {
          "internalType": "uint256",
          "name": "_salePrice",
          "type": "uint256"
        }
      ],
      "name": "royaltyInfo",
      "outputs": [
        {
          "internalType": "address",
          "name": "receiver",
          "type": "address"
        },
        {
          "internalType": "uint256",
          "name": "royaltyAmount",
          "type": "uint256"
        }
      ],
      "stateMutability": "view",
      "type": "function"
    },
    {
      "inputs": [
        {
          "internalType": "address",
          "name": "from",
          "type": "address"
        },
        {
          "internalType": "address",
          "name": "to",
          "type": "address"
        },
        {
          "internalType": "uint256",
          "name": "tokenId",
          "type": "uint256"
        }
      ],
      "name": "safeTransferFrom",
      "outputs": [],
      "stateMutability": "nonpayable",
      "type": "function"
    },
    {
      "inputs": [
        {
          "internalType": "address",
          "name": "from",
          "type": "address"
        },
        {
          "internalType": "address",
          "name": "to",
          "type": "address"
        },
        {
          "internalType": "uint256",
          "name": "tokenId",
          "type": "uint256"
        },
        {
          "internalType": "bytes",
          "name": "data",
          "type": "bytes"
        }
      ],
      "name": "safeTransferFrom",
      "outputs": [],
      "stateMutability": "nonpayable",
      "type": "function"
    },
    {
      "inputs": [
        {
          "internalType": "address",
          "name": "operator",
          "type": "address"
        },
        {
          "internalType": "bool",
          "name": "approved",
          "type": "bool"
        }
      ],
      "name": "setApprovalForAll",
      "outputs": [],
      "stateMutability": "nonpayable",
      "type": "function"
    },
    {
      "inputs": [
        {
          "internalType": "bool",
          "name": "enable",
          "type": "bool"
        }
      ],
      "name": "setStatus",
      "outputs": [],
      "stateMutability": "nonpayable",
      "type": "function"
    },
    {
      "inputs": [
        {
          "internalType": "bytes4",
          "name": "interfaceId",
          "type": "bytes4"
        }
      ],
      "name": "supportsInterface",
      "outputs": [
        {
          "internalType": "bool",
          "name": "",
          "type": "bool"
        }
      ],
      "stateMutability": "view",
      "type": "function"
    },
    {
      "inputs": [],
      "name": "symbol",
      "outputs": [
        {
          "internalType": "string",
          "name": "",
          "type": "string"
        }
      ],
      "stateMutability": "view",
      "type": "function"
    },
    {
      "inputs": [
        {
          "internalType": "uint256",
          "name": "tokenId",
          "type": "uint256"
        }
      ],
      "name": "tokenGenerativeURI",
      "outputs": [
        {
          "internalType": "string",
          "name": "",
          "type": "string"
        }
      ],
      "stateMutability": "view",
      "type": "function"
    },
    {
      "inputs": [
        {
          "internalType": "uint256",
          "name": "tokenId",
          "type": "uint256"
        }
      ],
      "name": "tokenIdToHash",
      "outputs": [
        {
          "internalType": "bytes32",
          "name": "",
          "type": "bytes32"
        }
      ],
      "stateMutability": "view",
      "type": "function"
    },
    {
      "inputs": [
        {
          "internalType": "uint256",
          "name": "tokenId",
          "type": "uint256"
        }
      ],
      "name": "tokenURI",
      "outputs": [
        {
          "internalType": "string",
          "name": "",
          "type": "string"
        }
      ],
      "stateMutability": "view",
      "type": "function"
    },
    {
      "inputs": [
        {
          "internalType": "address",
          "name": "from",
          "type": "address"
        },
        {
          "internalType": "address",
          "name": "to",
          "type": "address"
        },
        {
          "internalType": "uint256",
          "name": "tokenId",
          "type": "uint256"
        }
      ],
      "name": "transferFrom",
      "outputs": [],
      "stateMutability": "nonpayable",
      "type": "function"
    },
    {
      "inputs": [
        {
          "internalType": "address",
          "name": "newOwner",
          "type": "address"
        }
      ],
      "name": "transferOwnership",
      "outputs": [],
      "stateMutability": "nonpayable",
      "type": "function"
    }
  ],
  "bytecode": "0x60806040523480156200001157600080fd5b50604051620040c2380380620040c28339810160408190526200003491620003b0565b733cc6cdda760b79bafa08df41ecfa224f810dceb66001838381818160009080519060200190620000679291906200023d565b5080516200007d9060019060208401906200023d565b50506006805460ff191690555060016007556200009a33620001eb565b50506daaeb6d7670e522a718067333cd4e3b15620001e15780156200012f57604051633e9f1edf60e11b81523060048201526001600160a01b03831660248201526daaeb6d7670e522a718067333cd4e90637d3e3dbe906044015b600060405180830381600087803b1580156200011057600080fd5b505af115801562000125573d6000803e3d6000fd5b50505050620001e1565b6001600160a01b03821615620001805760405163a0af290360e01b81523060048201526001600160a01b03831660248201526daaeb6d7670e522a718067333cd4e9063a0af290390604401620000f5565b604051632210724360e11b81523060048201526daaeb6d7670e522a718067333cd4e90634420e48690602401600060405180830381600087803b158015620001c757600080fd5b505af1158015620001dc573d6000803e3d6000fd5b505050505b5050505062000457565b600880546001600160a01b038381166001600160a01b0319831681179093556040519116919082907f8be0079c531659141344cd1fd0a4f28419497f9722a3daafe3b4186f6b6457e090600090a35050565b8280546200024b906200041a565b90600052602060002090601f0160209004810192826200026f5760008555620002ba565b82601f106200028a57805160ff1916838001178555620002ba565b82800160010185558215620002ba579182015b82811115620002ba5782518255916020019190600101906200029d565b50620002c8929150620002cc565b5090565b5b80821115620002c85760008155600101620002cd565b634e487b7160e01b600052604160045260246000fd5b600082601f8301126200030b57600080fd5b81516001600160401b0380821115620003285762000328620002e3565b604051601f8301601f19908116603f01168101908282118183101715620003535762000353620002e3565b816040528381526020925086838588010111156200037057600080fd5b600091505b8382101562000394578582018301518183018401529082019062000375565b83821115620003a65760008385830101525b9695505050505050565b60008060408385031215620003c457600080fd5b82516001600160401b0380821115620003dc57600080fd5b620003ea86838701620002f9565b935060208501519150808211156200040157600080fd5b506200041085828601620002f9565b9150509250929050565b600181811c908216806200042f57607f821691505b602082108114156200045157634e487b7160e01b600052602260045260246000fd5b50919050565b613c5b80620004676000396000f3fe60806040526004361061021a5760003560e01c80635c40f6f41161012357806395d89b41116100ab578063e985e9c51161006f578063e985e9c514610632578063ef169be21461067b578063f2fde38b1461069b578063febfd6c3146106bb578063ffc27c0e146106db57600080fd5b806395d89b411461059d578063a22cb465146105b2578063adfc7dae146105d2578063b88d4fde146105f2578063c87b56dd1461061257600080fd5b806370a08231116100f257806370a08231146104fd578063715018a61461051d578063775bff9f146105325780638da5cb5b1461055f5780638f2839701461057d57600080fd5b80635c40f6f41461046f5780635c975abb1461048f578063621a1f74146104a75780636352211e146104c757600080fd5b806323b872dd116101a657806342842e0e1161017557806342842e0e146103e5578063452fa3d314610405578063472f1e021461041a5780634e69d5601461043a578063575b57ea1461044f57600080fd5b806323b872dd1461034e5780632a55205a1461036e5780633b66b00a146103ad57806341f43434146103c357600080fd5b8063095ea7b3116101ed578063095ea7b3146102ce57806310da88c5146102f05780631249c58b146103105780631ca9741b1461032657806321c8d6761461034657600080fd5b806301bc45c91461021f57806301ffc9a71461025c57806306fdde031461028c578063081812fc146102ae575b600080fd5b34801561022b57600080fd5b50600a5461023f906001600160a01b031681565b6040516001600160a01b0390911681526020015b60405180910390f35b34801561026857600080fd5b5061027c6102773660046131b3565b6106fb565b6040519015158152602001610253565b34801561029857600080fd5b506102a161074d565b604051610253919061322f565b3480156102ba57600080fd5b5061023f6102c9366004613242565b6107df565b3480156102da57600080fd5b506102ee6102e9366004613280565b610806565b005b3480156102fc57600080fd5b506102a161030b366004613242565b610921565b610318610a64565b604051908152602001610253565b34801561033257600080fd5b506102ee6103413660046132ac565b610cb0565b610318610d41565b34801561035a57600080fd5b506102ee6103693660046132c9565b61107b565b34801561037a57600080fd5b5061038e61038936600461330a565b6110a6565b604080516001600160a01b039093168352602083019190915201610253565b3480156103b957600080fd5b50610318600f5481565b3480156103cf57600080fd5b5061023f6daaeb6d7670e522a718067333cd4e81565b3480156103f157600080fd5b506102ee6104003660046132c9565b6110be565b34801561041157600080fd5b506102a16110e3565b34801561042657600080fd5b506102ee6104353660046132ac565b611171565b34801561044657600080fd5b5061027c611203565b34801561045b57600080fd5b50600d5461023f906001600160a01b031681565b34801561047b57600080fd5b506102ee61048a366004613345565b611217565b34801561049b57600080fd5b5060065460ff1661027c565b3480156104b357600080fd5b506103186104c2366004613242565b61127e565b3480156104d357600080fd5b5061023f6104e2366004613242565b6000908152600960205260409020546001600160a01b031690565b34801561050957600080fd5b506103186105183660046132ac565b61134a565b34801561052957600080fd5b506102ee6113d0565b34801561053e57600080fd5b506105476113e4565b6040516102539c9b9a99989796959493929190613362565b34801561056b57600080fd5b50600a546001600160a01b031661023f565b34801561058957600080fd5b506102ee6105983660046132ac565b611587565b3480156105a957600080fd5b506102a1611619565b3480156105be57600080fd5b506102ee6105cd36600461341f565b6116b7565b3480156105de57600080fd5b50600b5461023f906001600160a01b031681565b3480156105fe57600080fd5b506102ee61060d36600461352f565b6116c6565b34801561061e57600080fd5b506102a161062d366004613242565b6116f3565b34801561063e57600080fd5b5061027c61064d3660046135af565b6001600160a01b03918216600090815260056020908152604080832093909416825291909152205460ff1690565b34801561068757600080fd5b506102ee6106963660046136e8565b6117ed565b3480156106a757600080fd5b506102ee6106b63660046132ac565b611ad5565b3480156106c757600080fd5b506102ee6106d63660046132ac565b611b4b565b3480156106e757600080fd5b50600c5461023f906001600160a01b031681565b60006001600160e01b031982166380ac58cd60e01b148061072c57506001600160e01b03198216635b5e139f60e01b145b8061074757506301ffc9a760e01b6001600160e01b03198316145b92915050565b6060600e805461075c906138a2565b80601f0160208091040260200160405190810160405280929190818152602001828054610788906138a2565b80156107d55780601f106107aa576101008083540402835291602001916107d5565b820191906000526020600020905b8154815290600101906020018083116107b857829003601f168201915b5050505050905090565b60006107ea82611bdd565b506000908152600460205260409020546001600160a01b031690565b600061081182611c2d565b9050806001600160a01b0316836001600160a01b031614156108845760405162461bcd60e51b815260206004820152602160248201527f4552433732313a20617070726f76616c20746f2063757272656e74206f776e656044820152603960f91b60648201526084015b60405180910390fd5b336001600160a01b03821614806108a057506108a0813361064d565b6109125760405162461bcd60e51b815260206004820152603d60248201527f4552433732313a20617070726f76652063616c6c6572206973206e6f7420746f60448201527f6b656e206f776e6572206f7220617070726f76656420666f7220616c6c000000606482015260840161087b565b61091c8383611c8d565b505050565b606061092c82611cfb565b6040518060400160405280600381526020016232303960e81b815250906109665760405162461bcd60e51b815260040161087b919061322f565b50600d5460405163188687dd60e21b8152600481018490526001600160a01b0390911690600090309063621a1f7490602401602060405180830381865afa1580156109b5573d6000803e3d6000fd5b505050506040513d601f19601f820116820180604052508101906109d991906138dd565b601154604051639413930160e01b8152600481019190915260248101869052604481018290529091506001600160a01b038316906394139301906064015b600060405180830381865afa158015610a34573d6000803e3d6000fd5b505050506040513d6000823e601f3d908101601f19168201604052610a5c91908101906138f6565b949350505050565b6000610a6e611d18565b60195415610ab55760195460408051808201909152600381526206460760eb1b6020820152904211610ab35760405162461bcd60e51b815260040161087b919061322f565b505b60128054600160301b900462ffffff16906006610ad183613983565b82546101009290920a62ffffff818102199093169183160217909155601254630100000081048216600160301b90910490911611159050610b1157600080fd5b60125462ffffff80821691610b3791600160481b8204811691600160301b9004166139a6565b62ffffff161415610ba857601054601154604051631122f8a960e11b815260048101919091526001600160a01b03909116908190632245f15290602401600060405180830381600087803b158015610b8e57600080fd5b505af1158015610ba2573d6000803e3d6000fd5b50505050505b601254601154600160301b90910462ffffff1690610bca90620f4240906139cd565b610bd491906139ec565b9050610be03382611d72565b600c54604051631da00d8560e01b8152600481018390526001600160a01b03909116906000908290631da00d85906024016020604051808303816000875af1158015610c30573d6000803e3d6000fd5b505050506040513d601f19601f82011682018060405250810190610c5491906138dd565b9050610c608382611d8c565b610c68611e55565b60408051338152602081018590527f0f6798a560793a54c3bcfe86a93cde1e73087d944c0ea20544137d4121396885910160405180910390a15050610cad6001600755565b90565b600a546001600160a01b031633148015610cd257506001600160a01b03811615155b6040518060400160405280600381526020016231303160e81b81525090610d0c5760405162461bcd60e51b815260040161087b919061322f565b50600c546001600160a01b03828116911614610d3e57600c80546001600160a01b0319166001600160a01b0383161790555b50565b6000610d4b611d18565b60128054600160481b900462ffffff16906009610d6783613983565b82546101009290920a62ffffff8181021990931691831602179091556012548082169250610da69163010000008204811691600160481b9004166139a6565b62ffffff161115610db657600080fd5b60125462ffffff80821691610ddc91600160481b8204811691600160301b9004166139a6565b62ffffff161415610e4d57601054601154604051631122f8a960e11b815260048101919091526001600160a01b03909116908190632245f15290602401600060405180830381600087803b158015610e3357600080fd5b505af1158015610e47573d6000803e3d6000fd5b50505050505b601054336000908152601a60205260409020546001600160a01b039091169060ff1680610ef757506011546040516331a9108f60e11b815260048101919091526001600160a01b03821690636352211e90602401602060405180830381865afa158015610ebe573d6000803e3d6000fd5b505050506040513d601f19601f82011682018060405250810190610ee29190613a04565b6001600160a01b0316336001600160a01b0316145b610f0057600080fd5b336000908152601a602052604090205460ff168015610f20575060195415155b15610f645760195460408051808201909152600381526206460760eb1b6020820152904211610f625760405162461bcd60e51b815260040161087b919061322f565b505b601254610f869062ffffff63010000008204811691600160481b9004166139a6565b62ffffff16620f4240601060010154610f9f91906139cd565b610fa991906139ec565b9150610fb53383611d72565b600c54604051631da00d8560e01b8152600481018490526001600160a01b03909116906000908290631da00d85906024016020604051808303816000875af1158015611005573d6000803e3d6000fd5b505050506040513d601f19601f8201168201806040525081019061102991906138dd565b90506110358482611d8c565b60408051338152602081018690527f0f6798a560793a54c3bcfe86a93cde1e73087d944c0ea20544137d4121396885910160405180910390a1505050610cad6001600755565b826001600160a01b0381163314611095576110953361243a565b6110a08484846124f3565b50505050565b6000806110b38484612524565b915091509250929050565b826001600160a01b03811633146110d8576110d83361243a565b6110a08484846126be565b600e80546110f0906138a2565b80601f016020809104026020016040519081016040528092919081815260200182805461111c906138a2565b80156111695780601f1061113e57610100808354040283529160200191611169565b820191906000526020600020905b81548152906001019060200180831161114c57829003601f168201915b505050505081565b600a546001600160a01b03163314801561119357506001600160a01b03811615155b6040518060400160405280600381526020016231303160e81b815250906111cd5760405162461bcd60e51b815260040161087b919061322f565b50600d546001600160a01b03828116911614610d3e57600d80546001600160a01b0383166001600160a01b031990911617905550565b600061121160065460ff1690565b15905090565b600a546001600160a01b031633148061123a57506010546001600160a01b031633145b6040518060400160405280600381526020016231303160e81b815250906112745760405162461bcd60e51b815260040161087b919061322f565b50610d3e816126d9565b600061128982611cfb565b6040518060400160405280600381526020016232303960e81b815250906112c35760405162461bcd60e51b815260040161087b919061322f565b50600082815260096020526040902054600160a01b900460a01b6001600160a01b0319166112f357506000919050565b60008281526009602090815260409182902054915161132d92600160a01b900460a01b91016001600160a01b031991909116815260200190565b604051602081830303815290604052805190602001209050919050565b60006001600160a01b0382166113b45760405162461bcd60e51b815260206004820152602960248201527f4552433732313a2061646472657373207a65726f206973206e6f7420612076616044820152683634b21037bbb732b960b91b606482015260840161087b565b506001600160a01b031660009081526003602052604090205490565b6113d86126ef565b6113e2600061276d565b565b60108054601154601254601380546001600160a01b0390941694929362ffffff8084169463010000008504821694600160301b8104831694600160481b90910490921692909190611434906138a2565b80601f0160208091040260200160405190810160405280929190818152602001828054611460906138a2565b80156114ad5780601f10611482576101008083540402835291602001916114ad565b820191906000526020600020905b81548152906001019060200180831161149057829003601f168201915b5050505060048301546005840154600685015460078601805495966001600160a01b03948516969395509390911692916114e6906138a2565b80601f0160208091040260200160405190810160405280929190818152602001828054611512906138a2565b801561155f5780601f106115345761010080835404028352916020019161155f565b820191906000526020600020905b81548152906001019060200180831161154257829003601f168201915b50506040805180820190915260088601548152600990950154602086015250919291508d9050565b600a546001600160a01b0316331480156115a957506001600160a01b03811615155b6040518060400160405280600381526020016231303160e81b815250906115e35760405162461bcd60e51b815260040161087b919061322f565b50600a546001600160a01b03828116911614610d3e57600a80546001600160a01b0383166001600160a01b031990911617905550565b60606116b260016003600e805461162f906138a2565b80601f016020809104026020016040519081016040528092919081815260200182805461165b906138a2565b80156116a85780601f1061167d576101008083540402835291602001916116a8565b820191906000526020600020905b81548152906001019060200180831161168b57829003601f168201915b50505050506127bf565b905090565b6116c23383836128a6565b5050565b836001600160a01b03811633146116e0576116e03361243a565b6116ec85858585612975565b5050505050565b60606116fe82611cfb565b6040518060400160405280600381526020016232303960e81b815250906117385760405162461bcd60e51b815260040161087b919061322f565b50600d5460405163188687dd60e21b8152600481018490526001600160a01b0390911690600090309063621a1f7490602401602060405180830381865afa158015611787573d6000803e3d6000fd5b505050506040513d601f19601f820116820180604052508101906117ab91906138dd565b6011546040516308dd54e960e31b8152600481019190915260248101869052604481018290529091506001600160a01b038316906346eaa74890606401610a17565b600a5460408051808201909152600381526219181960e91b6020820152906001600160a01b0316156118325760405162461bcd60e51b815260040161087b919061322f565b5060408051808201909152600381526203130360ec1b60208201526001600160a01b0388166118745760405162461bcd60e51b815260040161087b919061322f565b508751601080546001600160a01b039092166001600160a01b03199092169190911781556020808a015160115560408a01516012805460608d015160808e015160a08f015162ffffff908116600160481b026bffffff00000000000000000019928216600160301b02929092166bffffffffffff0000000000001993821663010000000265ffffffffffff19909516919096161792909217169290921791909117905560c08a015180518b939261193092601392910190613104565b5060e08201516004820180546001600160a01b039283166001600160a01b03199182161790915561010084015160058401556101208401516006840180549190931691161790556101408201518051611993916007840191602090910190613104565b50610160919091015180516008830155602090810151600990920191909155600b80546001600160a01b03808a166001600160a01b031992831617909255600a80548b8416908316179055600c8054898416908316179055600d80549288169290911691909117905561014089015160c08a0151604051611a149301613a21565b604051602081830303815290604052600e9080519060200190611a38929190613104565b5060005b8351811015611aa1576001601a6000868481518110611a5d57611a5d613a60565b6020908102919091018101516001600160a01b03168252810191909152604001600020805460ff191691151591909117905580611a9981613a76565b915050611a3c565b50600a54611ab7906001600160a01b0316611ad5565b8115611ac557611ac56129a7565b42601855600f5550505050505050565b611add6126ef565b6001600160a01b038116611b425760405162461bcd60e51b815260206004820152602660248201527f4f776e61626c653a206e6577206f776e657220697320746865207a65726f206160448201526564647265737360d01b606482015260840161087b565b610d3e8161276d565b600a546001600160a01b031633148015611b6d57506001600160a01b03811615155b6040518060400160405280600381526020016231303160e81b81525090611ba75760405162461bcd60e51b815260040161087b919061322f565b50600b546001600160a01b03828116911614610d3e57600b80546001600160a01b0383166001600160a01b031990911617905550565b611be681611cfb565b610d3e5760405162461bcd60e51b8152602060048201526018602482015277115490cdcc8c4e881a5b9d985b1a59081d1bdad95b88125160421b604482015260640161087b565b6000818152600260205260408120546001600160a01b0316806107475760405162461bcd60e51b8152602060048201526018602482015277115490cdcc8c4e881a5b9d985b1a59081d1bdad95b88125160421b604482015260640161087b565b600081815260046020526040902080546001600160a01b0319166001600160a01b0384169081179091558190611cc282611c2d565b6001600160a01b03167f8c5be1e5ebec7d5bd14f71427d1e84f3dd0314c0f7b2291e5b200ac8c7c3b92560405160405180910390a45050565b6000908152600960205260409020546001600160a01b0316151590565b60026007541415611d6b5760405162461bcd60e51b815260206004820152601f60248201527f5265656e7472616e637947756172643a207265656e7472616e742063616c6c00604482015260640161087b565b6002600755565b6116c2828260405180602001604052806000815250612a01565b600082815260096020908152604091829020548251808401909352600383526219181b60e91b91830191909152600160a01b900460a01b6001600160a01b03191615611deb5760405162461bcd60e51b815260040161087b919061322f565b5060408051808201909152600381526232303760e81b602082015281611e245760405162461bcd60e51b815260040161087b919061322f565b50600091825260096020526040909120805460a09290921c600160a01b026001600160a01b03909216919091179055565b60155480611e605750565b601054600b54604080518082018252601b81527f44454641554c545f524f59414c54595f46494e5f50455243454e54000000000060208201529051636d12dce160e01b81526001600160a01b0393841693909216916000918391636d12dce191611ecc9160040161322f565b602060405180830381865afa158015611ee9573d6000803e3d6000fd5b505050506040513d601f19601f82011682018060405250810190611f0d91906138dd565b600a54600b549192506001600160a01b039081169116156120795760408051808201825260158152744d494e545f4e46545f4f50455241544f525f46454560581b60208201529051636d12dce160e01b81526001600160a01b03851691636d12dce191611f7d919060040161322f565b602060405180830381865afa158015611f9a573d6000803e3d6000fd5b505050506040513d601f19601f82011682018060405250810190611fbe91906138dd565b604080518082018252601f81527f4d494e545f4e46545f4f50455241544f525f54524541535552455f41444452006020820152905163bf40fac160e01b81529193506000916001600160a01b0386169163bf40fac191612021919060040161322f565b602060405180830381865afa15801561203e573d6000803e3d6000fd5b505050506040513d601f19601f820116820180604052508101906120629190613a04565b90506001600160a01b03811615612077578091505b505b6016546001600160a01b0316806121f9578534101561209757600080fd5b6011546040516331a9108f60e11b81526000916001600160a01b03881691636352211e916120cb9160040190815260200190565b602060405180830381865afa1580156120e8573d6000803e3d6000fd5b505050506040513d601f19601f8201168201806040525081019061210c9190613a04565b6001600160a01b0316612710612122868a6139cd565b61212c9190613a91565b6121369089613ab3565b604051600081818185875af1925050503d8060008114612172576040519150601f19603f3d011682016040523d82523d6000602084013e612177565b606091505b505090508061218557600080fd5b83156121f3576001600160a01b0383166127106121a2868a6139cd565b6121ac9190613a91565b604051600081818185875af1925050503d80600081146121e8576040519150601f19603f3d011682016040523d82523d6000602084013e6121ed565b606091505b50909150505b50612432565b6040516323b872dd60e01b81523360048201523060248201526044810187905281906001600160a01b038216906323b872dd906064016020604051808303816000875af115801561224e573d6000803e3d6000fd5b505050506040513d601f19601f820116820180604052508101906122729190613aca565b61227b57600080fd5b6011546040516331a9108f60e11b815260048101919091526001600160a01b038281169163a9059cbb91891690636352211e90602401602060405180830381865afa1580156122ce573d6000803e3d6000fd5b505050506040513d601f19601f820116820180604052508101906122f29190613a04565b6127106122ff888c6139cd565b6123099190613a91565b612313908b613ab3565b6040516001600160e01b031960e085901b1681526001600160a01b03909216600483015260248201526044016020604051808303816000875af115801561235e573d6000803e3d6000fd5b505050506040513d601f19601f820116820180604052508101906123829190613aca565b61238b57600080fd5b8315612430576001600160a01b03811663a9059cbb846127106123ae888c6139cd565b6123b89190613a91565b6040516001600160e01b031960e085901b1681526001600160a01b03909216600483015260248201526044016020604051808303816000875af1158015612403573d6000803e3d6000fd5b505050506040513d601f19601f820116820180604052508101906124279190613aca565b61243057600080fd5b505b505050505050565b6daaeb6d7670e522a718067333cd4e3b15610d3e57604051633185c44d60e21b81523060048201526001600160a01b03821660248201526daaeb6d7670e522a718067333cd4e9063c617113490604401602060405180830381865afa1580156124a7573d6000803e3d6000fd5b505050506040513d601f19601f820116820180604052508101906124cb9190613aca565b610d3e57604051633b79c77360e21b81526001600160a01b038216600482015260240161087b565b6124fd3382612a34565b6125195760405162461bcd60e51b815260040161087b90613ae7565b61091c838383612ab2565b600a54600f54600b546001600160a01b039283169260009291161561269d57600b546040805180820182526013815272524f59414c54595f46494e5f4144445245535360681b6020820152905163bf40fac160e01b81526001600160a01b0390921691600091839163bf40fac19161259e9160040161322f565b602060405180830381865afa1580156125bb573d6000803e3d6000fd5b505050506040513d601f19601f820116820180604052508101906125df9190613a04565b90506001600160a01b038116156125f4578094505b8261269a57604080518082018252601b81527f44454641554c545f524f59414c54595f46494e5f50455243454e54000000000060208201529051636d12dce160e01b81526001600160a01b03841691636d12dce191612656919060040161322f565b602060405180830381865afa158015612673573d6000803e3d6000fd5b505050506040513d601f19601f8201168201806040525081019061269791906138dd565b92505b50505b6127106126aa82866139cd565b6126b49190613a91565b9150509250929050565b61091c838383604051806020016040528060008152506116c6565b80156126e757610d3e612aec565b610d3e6129a7565b33612702600a546001600160a01b031690565b6001600160a01b0316148061272157506010546001600160a01b031633145b6113e25760405162461bcd60e51b815260206004820181905260248201527f4f776e61626c653a2063616c6c6572206973206e6f7420746865206f776e6572604482015260640161087b565b600880546001600160a01b038381166001600160a01b0319831681179093556040519116919082907f8be0079c531659141344cd1fd0a4f28419497f9722a3daafe3b4186f6b6457e090600090a35050565b606060006127cd8585613ab3565b6127d89060016139ec565b67ffffffffffffffff8111156127f0576127f0613458565b6040519080825280601f01601f19166020018201604052801561281a576020820181803683370190505b50905060005b61282a8686613ab3565b811161289d5783600161283d88846139ec565b6128479190613ab3565b8151811061285757612857613a60565b602001015160f81c60f81b82828151811061287457612874613a60565b60200101906001600160f81b031916908160001a9053508061289581613a76565b915050612820565b50949350505050565b816001600160a01b0316836001600160a01b031614156129085760405162461bcd60e51b815260206004820152601960248201527f4552433732313a20617070726f766520746f2063616c6c657200000000000000604482015260640161087b565b6001600160a01b03838116600081815260056020908152604080832094871680845294825291829020805460ff191686151590811790915591519182527f17307eab39ab6107e8899845ad3d59bd9653f200f220920489ca2b5937696c31910160405180910390a3505050565b61297f3383612a34565b61299b5760405162461bcd60e51b815260040161087b90613ae7565b6110a084848484612b25565b6129af612b58565b6006805460ff191660011790557f62e78cea01bee320cd4e420270b5ea74000d11b0c9f74754ebdbfc544b05a2586129e43390565b6040516001600160a01b03909116815260200160405180910390a1565b612a0b8383612b9e565b612a186000848484612bd6565b61091c5760405162461bcd60e51b815260040161087b90613b34565b600080612a4083611c2d565b9050806001600160a01b0316846001600160a01b03161480612a8757506001600160a01b0380821660009081526005602090815260408083209388168352929052205460ff165b80610a5c5750836001600160a01b0316612aa0846107df565b6001600160a01b031614949350505050565b612abd838383612cd4565b600090815260096020526040902080546001600160a01b0319166001600160a01b039290921691909117905550565b612af4612e45565b6006805460ff191690557f5db9ee0a495bf2e6ff9c91a7834c1ba4fdd244a5e8aa4e537bd38aeae4b073aa336129e4565b612b30848484612ab2565b612b3c84848484612bd6565b6110a05760405162461bcd60e51b815260040161087b90613b34565b60065460ff16156113e25760405162461bcd60e51b815260206004820152601060248201526f14185d5cd8589b194e881c185d5cd95960821b604482015260640161087b565b612ba88282612e8e565b600090815260096020526040902080546001600160a01b0319166001600160a01b0392909216919091179055565b60006001600160a01b0384163b15612cc957604051630a85bd0160e11b81526001600160a01b0385169063150b7a0290612c1a903390899088908890600401613b86565b6020604051808303816000875af1925050508015612c55575060408051601f3d908101601f19168201909252612c5291810190613bc3565b60015b612caf573d808015612c83576040519150601f19603f3d011682016040523d82523d6000602084013e612c88565b606091505b508051612ca75760405162461bcd60e51b815260040161087b90613b34565b805181602001fd5b6001600160e01b031916630a85bd0160e11b149050610a5c565b506001949350505050565b826001600160a01b0316612ce782611c2d565b6001600160a01b031614612d0d5760405162461bcd60e51b815260040161087b90613be0565b6001600160a01b038216612d6f5760405162461bcd60e51b8152602060048201526024808201527f4552433732313a207472616e7366657220746f20746865207a65726f206164646044820152637265737360e01b606482015260840161087b565b612d7c8383836001613009565b826001600160a01b0316612d8f82611c2d565b6001600160a01b031614612db55760405162461bcd60e51b815260040161087b90613be0565b600081815260046020908152604080832080546001600160a01b03199081169091556001600160a01b0387811680865260038552838620805460001901905590871680865283862080546001019055868652600290945282852080549092168417909155905184937fddf252ad1be2c89b69c2b068fc378daa952ba7f163c4a11628f55a4df523b3ef91a4505050565b60065460ff166113e25760405162461bcd60e51b815260206004820152601460248201527314185d5cd8589b194e881b9bdd081c185d5cd95960621b604482015260640161087b565b6001600160a01b038216612ee45760405162461bcd60e51b815260206004820181905260248201527f4552433732313a206d696e7420746f20746865207a65726f2061646472657373604482015260640161087b565b612eed81611cfb565b15612f3a5760405162461bcd60e51b815260206004820152601c60248201527f4552433732313a20746f6b656e20616c7265616479206d696e74656400000000604482015260640161087b565b612f48600083836001613009565b612f5181611cfb565b15612f9e5760405162461bcd60e51b815260206004820152601c60248201527f4552433732313a20746f6b656e20616c7265616479206d696e74656400000000604482015260640161087b565b6001600160a01b038216600081815260036020908152604080832080546001019055848352600290915280822080546001600160a01b0319168417905551839291907fddf252ad1be2c89b69c2b068fc378daa952ba7f163c4a11628f55a4df523b3ef908290a45050565b6130158484848461307c565b60065460ff16156110a05760405162461bcd60e51b815260206004820152602b60248201527f4552433732315061757361626c653a20746f6b656e207472616e73666572207760448201526a1a1a5b19481c185d5cd95960aa1b606482015260840161087b565b60018111156110a0576001600160a01b038416156130c2576001600160a01b038416600090815260036020526040812080548392906130bc908490613ab3565b90915550505b6001600160a01b038316156110a0576001600160a01b038316600090815260036020526040812080548392906130f99084906139ec565b909155505050505050565b828054613110906138a2565b90600052602060002090601f0160209004810192826131325760008555613178565b82601f1061314b57805160ff1916838001178555613178565b82800160010185558215613178579182015b8281111561317857825182559160200191906001019061315d565b50613184929150613188565b5090565b5b808211156131845760008155600101613189565b6001600160e01b031981168114610d3e57600080fd5b6000602082840312156131c557600080fd5b81356131d08161319d565b9392505050565b60005b838110156131f25781810151838201526020016131da565b838111156110a05750506000910152565b6000815180845261321b8160208601602086016131d7565b601f01601f19169290920160200192915050565b6020815260006131d06020830184613203565b60006020828403121561325457600080fd5b5035919050565b6001600160a01b0381168114610d3e57600080fd5b803561327b8161325b565b919050565b6000806040838503121561329357600080fd5b823561329e8161325b565b946020939093013593505050565b6000602082840312156132be57600080fd5b81356131d08161325b565b6000806000606084860312156132de57600080fd5b83356132e98161325b565b925060208401356132f98161325b565b929592945050506040919091013590565b6000806040838503121561331d57600080fd5b50508035926020909101359150565b8015158114610d3e57600080fd5b803561327b8161332c565b60006020828403121561335757600080fd5b81356131d08161332c565b6001600160a01b038d168152602081018c905262ffffff8b811660408301528a811660608301528981166080830152881660a08201526101a060c082018190526000906133b18382018a613203565b6001600160a01b03891660e08501529050866101008401526133df6101208401876001600160a01b03169052565b8281036101408401526133f28186613203565b84516101608501526020850151610180850152915061340e9050565b9d9c50505050505050505050505050565b6000806040838503121561343257600080fd5b823561343d8161325b565b9150602083013561344d8161332c565b809150509250929050565b634e487b7160e01b600052604160045260246000fd5b604051610180810167ffffffffffffffff8111828210171561349257613492613458565b60405290565b604051601f8201601f1916810167ffffffffffffffff811182821017156134c1576134c1613458565b604052919050565b600067ffffffffffffffff8211156134e3576134e3613458565b50601f01601f191660200190565b60006135046134ff846134c9565b613498565b905082815283838301111561351857600080fd5b828260208301376000602084830101529392505050565b6000806000806080858703121561354557600080fd5b84356135508161325b565b935060208501356135608161325b565b925060408501359150606085013567ffffffffffffffff81111561358357600080fd5b8501601f8101871361359457600080fd5b6135a3878235602084016134f1565b91505092959194509250565b600080604083850312156135c257600080fd5b82356135cd8161325b565b9150602083013561344d8161325b565b803562ffffff8116811461327b57600080fd5b600082601f83011261360157600080fd5b6131d0838335602085016134f1565b60006040828403121561362257600080fd5b6040516040810181811067ffffffffffffffff8211171561364557613645613458565b604052823581526020928301359281019290925250919050565b600082601f83011261367057600080fd5b8135602067ffffffffffffffff82111561368c5761368c613458565b8160051b61369b828201613498565b92835284810182019282810190878511156136b557600080fd5b83870192505b848310156136dd5782356136ce8161325b565b825291830191908301906136bb565b979650505050505050565b600080600080600080600080610100808a8c03121561370657600080fd5b893567ffffffffffffffff8082111561371e57600080fd5b908b01906101a0828e03121561373357600080fd5b61373b61346e565b61374483613270565b81526020830135602082015261375c604084016135dd565b604082015261376d606084016135dd565b606082015261377e608084016135dd565b608082015261378f60a084016135dd565b60a082015260c0830135828111156137a657600080fd5b6137b28f8286016135f0565b60c0830152506137c460e08401613270565b60e0820152838301358482015261012093506137e1848401613270565b84820152610140935083830135828111156137fb57600080fd5b6138078f8286016135f0565b8583015250610160935061381d8e858501613610565b818501529a5061382f60208d01613270565b995061383d60408d01613270565b985061384b60608d01613270565b975061385960808d01613270565b965060a08c013592508083111561386f57600080fd5b505061387d8b828c0161365f565b93505061388c60c08a0161333a565b915060e089013590509295985092959890939650565b600181811c908216806138b657607f821691505b602082108114156138d757634e487b7160e01b600052602260045260246000fd5b50919050565b6000602082840312156138ef57600080fd5b5051919050565b60006020828403121561390857600080fd5b815167ffffffffffffffff81111561391f57600080fd5b8201601f8101841361393057600080fd5b805161393e6134ff826134c9565b81815285602083850101111561395357600080fd5b6139648260208301602086016131d7565b95945050505050565b634e487b7160e01b600052601160045260246000fd5b600062ffffff8083168181141561399c5761399c61396d565b6001019392505050565b600062ffffff8083168185168083038211156139c4576139c461396d565b01949350505050565b60008160001904831182151516156139e7576139e761396d565b500290565b600082198211156139ff576139ff61396d565b500190565b600060208284031215613a1657600080fd5b81516131d08161325b565b60008351613a338184602088016131d7565b63010313c960e51b9083019081528351613a548160048401602088016131d7565b01600401949350505050565b634e487b7160e01b600052603260045260246000fd5b6000600019821415613a8a57613a8a61396d565b5060010190565b600082613aae57634e487b7160e01b600052601260045260246000fd5b500490565b600082821015613ac557613ac561396d565b500390565b600060208284031215613adc57600080fd5b81516131d08161332c565b6020808252602d908201527f4552433732313a2063616c6c6572206973206e6f7420746f6b656e206f776e6560408201526c1c881bdc88185c1c1c9bdd9959609a1b606082015260800190565b60208082526032908201527f4552433732313a207472616e7366657220746f206e6f6e20455243373231526560408201527131b2b4bb32b91034b6b83632b6b2b73a32b960711b606082015260800190565b6001600160a01b0385811682528416602082015260408101839052608060608201819052600090613bb990830184613203565b9695505050505050565b600060208284031215613bd557600080fd5b81516131d08161319d565b60208082526025908201527f4552433732313a207472616e736665722066726f6d20696e636f72726563742060408201526437bbb732b960d91b60608201526080019056fea26469706673582212205db9a928b6d08093c0aea1e0a78720cbe41df0c2ce3ad042cd598d6926b4d12664736f6c634300080c0033",
  "linkReferences": {},
  "deployedLinkReferences": {}
}