{
  "_format": "hh-sol-artifact-1",
  "contractName": "GenerativeNFT",
  "sourceName": "contracts/nfts/GenerativeNFT.sol",
  "abi": [
    {
      "inputs": [
        {
          "internalType": "string",
          "name": "name",
          "type": "string"
        },
        {
          "internalType": "string",
          "name": "symbol",
          "type": "string"
        }
      ],
      "stateMutability": "nonpayable",
      "type": "constructor"
    },
    {
      "inputs": [
        {
          "internalType": "address",
          "name": "operator",
          "type": "address"
        }
      ],
      "name": "OperatorNotAllowed",
      "type": "error"
    },
    {
      "anonymous": false,
      "inputs": [
        {
          "indexed": true,
          "internalType": "address",
          "name": "owner",
          "type": "address"
        },
        {
          "indexed": true,
          "internalType": "address",
          "name": "approved",
          "type": "address"
        },
        {
          "indexed": true,
          "internalType": "uint256",
          "name": "tokenId",
          "type": "uint256"
        }
      ],
      "name": "Approval",
      "type": "event"
    },
    {
      "anonymous": false,
      "inputs": [
        {
          "indexed": true,
          "internalType": "address",
          "name": "owner",
          "type": "address"
        },
        {
          "indexed": true,
          "internalType": "address",
          "name": "operator",
          "type": "address"
        },
        {
          "indexed": false,
          "internalType": "bool",
          "name": "approved",
          "type": "bool"
        }
      ],
      "name": "ApprovalForAll",
      "type": "event"
    },
    {
      "anonymous": false,
      "inputs": [
        {
          "indexed": true,
          "internalType": "address",
          "name": "previousOwner",
          "type": "address"
        },
        {
          "indexed": true,
          "internalType": "address",
          "name": "newOwner",
          "type": "address"
        }
      ],
      "name": "OwnershipTransferred",
      "type": "event"
    },
    {
      "anonymous": false,
      "inputs": [
        {
          "indexed": false,
          "internalType": "address",
          "name": "account",
          "type": "address"
        }
      ],
      "name": "Paused",
      "type": "event"
    },
    {
      "anonymous": false,
      "inputs": [
        {
          "indexed": true,
          "internalType": "address",
          "name": "from",
          "type": "address"
        },
        {
          "indexed": true,
          "internalType": "address",
          "name": "to",
          "type": "address"
        },
        {
          "indexed": true,
          "internalType": "uint256",
          "name": "tokenId",
          "type": "uint256"
        }
      ],
      "name": "Transfer",
      "type": "event"
    },
    {
      "anonymous": false,
      "inputs": [
        {
          "indexed": false,
          "internalType": "address",
          "name": "account",
          "type": "address"
        }
      ],
      "name": "Unpaused",
      "type": "event"
    },
    {
      "inputs": [],
      "name": "OPERATOR_FILTER_REGISTRY",
      "outputs": [
        {
          "internalType": "contract IOperatorFilterRegistry",
          "name": "",
          "type": "address"
        }
      ],
      "stateMutability": "view",
      "type": "function"
    },
    {
      "inputs": [],
      "name": "_admin",
      "outputs": [
        {
          "internalType": "address",
          "name": "",
          "type": "address"
        }
      ],
      "stateMutability": "view",
      "type": "function"
    },
    {
      "inputs": [],
      "name": "_nameCol",
      "outputs": [
        {
          "internalType": "string",
          "name": "",
          "type": "string"
        }
      ],
      "stateMutability": "view",
      "type": "function"
    },
    {
      "inputs": [],
      "name": "_paramsAddress",
      "outputs": [
        {
          "internalType": "address",
          "name": "",
          "type": "address"
        }
      ],
      "stateMutability": "view",
      "type": "function"
    },
    {
      "inputs": [],
      "name": "_project",
      "outputs": [
        {
          "internalType": "address",
          "name": "_projectAddr",
          "type": "address"
        },
        {
          "internalType": "uint256",
          "name": "_projectId",
          "type": "uint256"
        },
        {
          "internalType": "uint24",
          "name": "_maxSupply",
          "type": "uint24"
        },
        {
          "internalType": "uint24",
          "name": "_limit",
          "type": "uint24"
        },
        {
          "internalType": "uint24",
          "name": "_index",
          "type": "uint24"
        },
        {
          "internalType": "uint24",
          "name": "_indexReserve",
          "type": "uint24"
        },
        {
          "internalType": "string",
          "name": "_creator",
          "type": "string"
        },
        {
          "internalType": "uint256",
          "name": "_mintPrice",
          "type": "uint256"
        },
        {
          "internalType": "address",
          "name": "_mintPriceAddr",
          "type": "address"
        },
        {
          "internalType": "string",
          "name": "_name",
          "type": "string"
        },
        {
          "components": [
            {
              "internalType": "uint256",
              "name": "_initBlockTime",
              "type": "uint256"
            },
            {
              "internalType": "uint256",
              "name": "_openingTime",
              "type": "uint256"
            }
          ],
          "internalType": "struct NFTProject.ProjectMintingSchedule",
          "name": "_mintingSchedule",
          "type": "tuple"
        },
        {
          "internalType": "uint256",
          "name": "_royalty",
          "type": "uint256"
        }
      ],
      "stateMutability": "view",
      "type": "function"
    },
    {
      "inputs": [],
      "name": "_projectDataContextAddr",
      "outputs": [
        {
          "internalType": "address",
          "name": "",
          "type": "address"
        }
      ],
      "stateMutability": "view",
      "type": "function"
    },
    {
      "inputs": [],
      "name": "_randomizer",
      "outputs": [
        {
          "internalType": "address",
          "name": "",
          "type": "address"
        }
      ],
      "stateMutability": "view",
      "type": "function"
    },
    {
      "inputs": [],
      "name": "_royalty",
      "outputs": [
        {
          "internalType": "uint256",
          "name": "",
          "type": "uint256"
        }
      ],
      "stateMutability": "view",
      "type": "function"
    },
    {
      "inputs": [
        {
          "internalType": "address",
          "name": "to",
          "type": "address"
        },
        {
          "internalType": "uint256",
          "name": "tokenId",
          "type": "uint256"
        }
      ],
      "name": "approve",
      "outputs": [],
      "stateMutability": "nonpayable",
      "type": "function"
    },
    {
      "inputs": [
        {
          "internalType": "address",
          "name": "owner",
          "type": "address"
        }
      ],
      "name": "balanceOf",
      "outputs": [
        {
          "internalType": "uint256",
          "name": "",
          "type": "uint256"
        }
      ],
      "stateMutability": "view",
      "type": "function"
    },
    {
      "inputs": [
        {
          "internalType": "address",
          "name": "newAdm",
          "type": "address"
        }
      ],
      "name": "changeAdmin",
      "outputs": [],
      "stateMutability": "nonpayable",
      "type": "function"
    },
    {
      "inputs": [
        {
          "internalType": "address",
          "name": "newAddr",
          "type": "address"
        }
      ],
      "name": "changeDataContextAddr",
      "outputs": [],
      "stateMutability": "nonpayable",
      "type": "function"
    },
    {
      "inputs": [
        {
          "internalType": "address",
          "name": "newAddr",
          "type": "address"
        }
      ],
      "name": "changeParamAddr",
      "outputs": [],
      "stateMutability": "nonpayable",
      "type": "function"
    },
    {
      "inputs": [
        {
          "internalType": "address",
          "name": "newAddr",
          "type": "address"
        }
      ],
      "name": "changeRandomizerAddr",
      "outputs": [],
      "stateMutability": "nonpayable",
      "type": "function"
    },
    {
      "inputs": [
        {
          "internalType": "uint256",
          "name": "tokenId",
          "type": "uint256"
        }
      ],
      "name": "getApproved",
      "outputs": [
        {
          "internalType": "address",
          "name": "",
          "type": "address"
        }
      ],
      "stateMutability": "view",
      "type": "function"
    },
    {
      "inputs": [],
      "name": "getStatus",
      "outputs": [
        {
          "internalType": "bool",
          "name": "",
          "type": "bool"
        }
      ],
      "stateMutability": "view",
      "type": "function"
    },
    {
      "inputs": [
        {
          "components": [
            {
              "internalType": "address",
              "name": "_projectAddr",
              "type": "address"
            },
            {
              "internalType": "uint256",
              "name": "_projectId",
              "type": "uint256"
            },
            {
              "internalType": "uint24",
              "name": "_maxSupply",
              "type": "uint24"
            },
            {
              "internalType": "uint24",
              "name": "_limit",
              "type": "uint24"
            },
            {
              "internalType": "uint24",
              "name": "_index",
              "type": "uint24"
            },
            {
              "internalType": "uint24",
              "name": "_indexReserve",
              "type": "uint24"
            },
            {
              "internalType": "string",
              "name": "_creator",
              "type": "string"
            },
            {
              "internalType": "uint256",
              "name": "_mintPrice",
              "type": "uint256"
            },
            {
              "internalType": "address",
              "name": "_mintPriceAddr",
              "type": "address"
            },
            {
              "internalType": "string",
              "name": "_name",
              "type": "string"
            },
            {
              "components": [
                {
                  "internalType": "uint256",
                  "name": "_initBlockTime",
                  "type": "uint256"
                },
                {
                  "internalType": "uint256",
                  "name": "_openingTime",
                  "type": "uint256"
                }
              ],
              "internalType": "struct NFTProject.ProjectMintingSchedule",
              "name": "_mintingSchedule",
              "type": "tuple"
            },
            {
              "internalType": "address[]",
              "name": "_reserves",
              "type": "address[]"
            },
            {
              "internalType": "uint256",
              "name": "_royalty",
              "type": "uint256"
            }
          ],
          "internalType": "struct NFTProject.ProjectMinting",
          "name": "project",
          "type": "tuple"
        },
        {
          "internalType": "address",
          "name": "admin",
          "type": "address"
        },
        {
          "internalType": "address",
          "name": "paramsAddr",
          "type": "address"
        },
        {
          "internalType": "address",
          "name": "randomizer",
          "type": "address"
        },
        {
          "internalType": "address",
          "name": "projectDataContextAddr",
          "type": "address"
        },
        {
          "internalType": "bool",
          "name": "disable",
          "type": "bool"
        }
      ],
      "name": "init",
      "outputs": [],
      "stateMutability": "nonpayable",
      "type": "function"
    },
    {
      "inputs": [
        {
          "internalType": "address",
          "name": "owner",
          "type": "address"
        },
        {
          "internalType": "address",
          "name": "operator",
          "type": "address"
        }
      ],
      "name": "isApprovedForAll",
      "outputs": [
        {
          "internalType": "bool",
          "name": "",
          "type": "bool"
        }
      ],
      "stateMutability": "view",
      "type": "function"
    },
    {
      "inputs": [
        {
          "internalType": "address",
          "name": "to",
          "type": "address"
        },
        {
          "internalType": "bytes[]",
          "name": "chunks",
          "type": "bytes[]"
        }
      ],
      "name": "mint",
      "outputs": [
        {
          "internalType": "uint256",
          "name": "tokenId",
          "type": "uint256"
        }
      ],
      "stateMutability": "payable",
      "type": "function"
    },
    {
      "inputs": [],
      "name": "name",
      "outputs": [
        {
          "internalType": "string",
          "name": "",
          "type": "string"
        }
      ],
      "stateMutability": "view",
      "type": "function"
    },
    {
      "inputs": [],
      "name": "owner",
      "outputs": [
        {
          "internalType": "address",
          "name": "",
          "type": "address"
        }
      ],
      "stateMutability": "view",
      "type": "function"
    },
    {
      "inputs": [
        {
          "internalType": "uint256",
          "name": "tokenId",
          "type": "uint256"
        }
      ],
      "name": "ownerOf",
      "outputs": [
        {
          "internalType": "address",
          "name": "",
          "type": "address"
        }
      ],
      "stateMutability": "view",
      "type": "function"
    },
    {
      "inputs": [],
      "name": "paused",
      "outputs": [
        {
          "internalType": "bool",
          "name": "",
          "type": "bool"
        }
      ],
      "stateMutability": "view",
      "type": "function"
    },
    {
      "inputs": [],
      "name": "projectAddress",
      "outputs": [
        {
          "internalType": "address",
          "name": "",
          "type": "address"
        }
      ],
      "stateMutability": "view",
      "type": "function"
    },
    {
      "inputs": [],
      "name": "projectIndex",
      "outputs": [
        {
          "internalType": "uint24",
          "name": "",
          "type": "uint24"
        }
      ],
      "stateMutability": "view",
      "type": "function"
    },
    {
      "inputs": [],
      "name": "renounceOwnership",
      "outputs": [],
      "stateMutability": "nonpayable",
      "type": "function"
    },
    {
      "inputs": [
        {
          "internalType": "address",
          "name": "to",
          "type": "address"
        },
        {
          "internalType": "bytes[]",
          "name": "chunks",
          "type": "bytes[]"
        }
      ],
      "name": "reserveMint",
      "outputs": [
        {
          "internalType": "uint256",
          "name": "tokenId",
          "type": "uint256"
        }
      ],
      "stateMutability": "payable",
      "type": "function"
    },
    {
      "inputs": [
        {
          "internalType": "uint256",
          "name": "_tokenId",
          "type": "uint256"
        },
        {
          "internalType": "uint256",
          "name": "_salePrice",
          "type": "uint256"
        }
      ],
      "name": "royaltyInfo",
      "outputs": [
        {
          "internalType": "address",
          "name": "receiver",
          "type": "address"
        },
        {
          "internalType": "uint256",
          "name": "royaltyAmount",
          "type": "uint256"
        }
      ],
      "stateMutability": "view",
      "type": "function"
    },
    {
      "inputs": [
        {
          "internalType": "address",
          "name": "from",
          "type": "address"
        },
        {
          "internalType": "address",
          "name": "to",
          "type": "address"
        },
        {
          "internalType": "uint256",
          "name": "tokenId",
          "type": "uint256"
        }
      ],
      "name": "safeTransferFrom",
      "outputs": [],
      "stateMutability": "nonpayable",
      "type": "function"
    },
    {
      "inputs": [
        {
          "internalType": "address",
          "name": "from",
          "type": "address"
        },
        {
          "internalType": "address",
          "name": "to",
          "type": "address"
        },
        {
          "internalType": "uint256",
          "name": "tokenId",
          "type": "uint256"
        },
        {
          "internalType": "bytes",
          "name": "data",
          "type": "bytes"
        }
      ],
      "name": "safeTransferFrom",
      "outputs": [],
      "stateMutability": "nonpayable",
      "type": "function"
    },
    {
      "inputs": [
        {
          "internalType": "address",
          "name": "operator",
          "type": "address"
        },
        {
          "internalType": "bool",
          "name": "approved",
          "type": "bool"
        }
      ],
      "name": "setApprovalForAll",
      "outputs": [],
      "stateMutability": "nonpayable",
      "type": "function"
    },
    {
      "inputs": [
        {
          "internalType": "bool",
          "name": "enable",
          "type": "bool"
        }
      ],
      "name": "setStatus",
      "outputs": [],
      "stateMutability": "nonpayable",
      "type": "function"
    },
    {
      "inputs": [
        {
          "internalType": "uint256",
          "name": "tokenId",
          "type": "uint256"
        },
        {
          "internalType": "uint256",
          "name": "chunkIndex",
          "type": "uint256"
        },
        {
          "internalType": "bytes",
          "name": "_data",
          "type": "bytes"
        }
      ],
      "name": "store",
      "outputs": [],
      "stateMutability": "nonpayable",
      "type": "function"
    },
    {
      "inputs": [
        {
          "internalType": "bytes4",
          "name": "interfaceId",
          "type": "bytes4"
        }
      ],
      "name": "supportsInterface",
      "outputs": [
        {
          "internalType": "bool",
          "name": "",
          "type": "bool"
        }
      ],
      "stateMutability": "view",
      "type": "function"
    },
    {
      "inputs": [],
      "name": "symbol",
      "outputs": [
        {
          "internalType": "string",
          "name": "",
          "type": "string"
        }
      ],
      "stateMutability": "view",
      "type": "function"
    },
    {
      "inputs": [
        {
          "internalType": "uint256",
          "name": "tokenId",
          "type": "uint256"
        }
      ],
      "name": "tokenIdToHash",
      "outputs": [
        {
          "internalType": "bytes32",
          "name": "",
          "type": "bytes32"
        }
      ],
      "stateMutability": "view",
      "type": "function"
    },
    {
      "inputs": [
        {
          "internalType": "uint256",
          "name": "tokenId",
          "type": "uint256"
        }
      ],
      "name": "tokenURI",
      "outputs": [
        {
          "internalType": "string",
          "name": "",
          "type": "string"
        }
      ],
      "stateMutability": "view",
      "type": "function"
    },
    {
      "inputs": [
        {
          "internalType": "address",
          "name": "from",
          "type": "address"
        },
        {
          "internalType": "address",
          "name": "to",
          "type": "address"
        },
        {
          "internalType": "uint256",
          "name": "tokenId",
          "type": "uint256"
        }
      ],
      "name": "transferFrom",
      "outputs": [],
      "stateMutability": "nonpayable",
      "type": "function"
    },
    {
      "inputs": [
        {
          "internalType": "address",
          "name": "newOwner",
          "type": "address"
        }
      ],
      "name": "transferOwnership",
      "outputs": [],
      "stateMutability": "nonpayable",
      "type": "function"
    },
    {
      "inputs": [
        {
          "internalType": "uint256",
          "name": "price",
          "type": "uint256"
        }
      ],
      "name": "updatePrice",
      "outputs": [],
      "stateMutability": "nonpayable",
      "type": "function"
    }
  ],
  "bytecode": "0x60806040523480156200001157600080fd5b50604051620047bf380380620047bf8339810160408190526200003491620003b0565b733cc6cdda760b79bafa08df41ecfa224f810dceb66001838381818160009080519060200190620000679291906200023d565b5080516200007d9060019060208401906200023d565b50506006805460ff191690555060016007556200009a33620001eb565b50506daaeb6d7670e522a718067333cd4e3b15620001e15780156200012f57604051633e9f1edf60e11b81523060048201526001600160a01b03831660248201526daaeb6d7670e522a718067333cd4e90637d3e3dbe906044015b600060405180830381600087803b1580156200011057600080fd5b505af115801562000125573d6000803e3d6000fd5b50505050620001e1565b6001600160a01b03821615620001805760405163a0af290360e01b81523060048201526001600160a01b03831660248201526daaeb6d7670e522a718067333cd4e9063a0af290390604401620000f5565b604051632210724360e11b81523060048201526daaeb6d7670e522a718067333cd4e90634420e48690602401600060405180830381600087803b158015620001c757600080fd5b505af1158015620001dc573d6000803e3d6000fd5b505050505b5050505062000457565b600880546001600160a01b038381166001600160a01b0319831681179093556040519116919082907f8be0079c531659141344cd1fd0a4f28419497f9722a3daafe3b4186f6b6457e090600090a35050565b8280546200024b906200041a565b90600052602060002090601f0160209004810192826200026f5760008555620002ba565b82601f106200028a57805160ff1916838001178555620002ba565b82800160010185558215620002ba579182015b82811115620002ba5782518255916020019190600101906200029d565b50620002c8929150620002cc565b5090565b5b80821115620002c85760008155600101620002cd565b634e487b7160e01b600052604160045260246000fd5b600082601f8301126200030b57600080fd5b81516001600160401b0380821115620003285762000328620002e3565b604051601f8301601f19908116603f01168101908282118183101715620003535762000353620002e3565b816040528381526020925086838588010111156200037057600080fd5b600091505b8382101562000394578582018301518183018401529082019062000375565b83821115620003a65760008385830101525b9695505050505050565b60008060408385031215620003c457600080fd5b82516001600160401b0380821115620003dc57600080fd5b620003ea86838701620002f9565b935060208501519150808211156200040157600080fd5b506200041085828601620002f9565b9150509250929050565b600181811c908216806200042f57607f821691505b602082108114156200045157634e487b7160e01b600052602260045260246000fd5b50919050565b61435880620004676000396000f3fe60806040526004361061023b5760003560e01c8063631847261161012e578063a933024e116100ab578063f038ba721161006f578063f038ba721461070d578063f2fde38b14610720578063fc23745214610740578063febfd6c314610760578063ffc27c0e1461078057600080fd5b8063a933024e14610644578063adfc7dae14610664578063b88d4fde14610684578063c87b56dd146106a4578063e985e9c5146106c457600080fd5b80638d6cc56d116100f25780638d6cc56d146105b15780638da5cb5b146105d15780638f283970146105ef57806395d89b411461060f578063a22cb4651461062457600080fd5b806363184726146104e95780636352211e1461051957806370a082311461054f578063715018a61461056f578063775bff9f1461058457600080fd5b806341f43434116101bc578063575b57ea11610180578063575b57ea1461045e5780635c40f6f41461047e5780635c975abb1461049e5780635d6ffda7146104b6578063621a1f74146104c957600080fd5b806341f43434146103d257806342842e0e146103f4578063452fa3d314610414578063472f1e02146104295780634e69d5601461044957600080fd5b80631ca9741b116102035780631ca9741b1461031157806323b872dd146103315780632a55205a146103515780633b66b00a146103905780633cf96af1146103b457600080fd5b806301bc45c91461024057806301ffc9a71461027d57806306fdde03146102ad578063081812fc146102cf578063095ea7b3146102ef575b600080fd5b34801561024c57600080fd5b50600a54610260906001600160a01b031681565b6040516001600160a01b0390911681526020015b60405180910390f35b34801561028957600080fd5b5061029d6102983660046137db565b6107a0565b6040519015158152602001610274565b3480156102b957600080fd5b506102c26107e6565b6040516102749190613857565b3480156102db57600080fd5b506102606102ea36600461386a565b610878565b3480156102fb57600080fd5b5061030f61030a3660046138a8565b61089f565b005b34801561031d57600080fd5b5061030f61032c3660046138d4565b6109ba565b34801561033d57600080fd5b5061030f61034c3660046138f1565b610a39565b34801561035d57600080fd5b5061037161036c366004613932565b610a64565b604080516001600160a01b039093168352602083019190915201610274565b34801561039c57600080fd5b506103a6600f5481565b604051908152602001610274565b3480156103c057600080fd5b506010546001600160a01b0316610260565b3480156103de57600080fd5b506102606daaeb6d7670e522a718067333cd4e81565b34801561040057600080fd5b5061030f61040f3660046138f1565b610a7c565b34801561042057600080fd5b506102c2610aa1565b34801561043557600080fd5b5061030f6104443660046138d4565b610b2f565b34801561045557600080fd5b5061029d610bae565b34801561046a57600080fd5b50600d54610260906001600160a01b031681565b34801561048a57600080fd5b5061030f61049936600461396d565b610bc2565b3480156104aa57600080fd5b5060065460ff1661029d565b6103a66104c4366004613a9d565b610c2c565b3480156104d557600080fd5b506103a66104e436600461386a565b610fdf565b3480156104f557600080fd5b50601254600160301b900462ffffff1660405162ffffff9091168152602001610274565b34801561052557600080fd5b5061026061053436600461386a565b6000908152600960205260409020546001600160a01b031690565b34801561055b57600080fd5b506103a661056a3660046138d4565b6110ba565b34801561057b57600080fd5b5061030f611140565b34801561059057600080fd5b50610599611154565b6040516102749c9b9a99989796959493929190613b63565b3480156105bd57600080fd5b5061030f6105cc36600461386a565b6112f3565b3480156105dd57600080fd5b50600a546001600160a01b0316610260565b3480156105fb57600080fd5b5061030f61060a3660046138d4565b611356565b34801561061b57600080fd5b506102c26113d5565b34801561063057600080fd5b5061030f61063f366004613c17565b611473565b34801561065057600080fd5b5061030f61065f366004613c50565b611482565b34801561067057600080fd5b50600b54610260906001600160a01b031681565b34801561069057600080fd5b5061030f61069f366004613ca0565b6115b1565b3480156106b057600080fd5b506102c26106bf36600461386a565b6115de565b3480156106d057600080fd5b5061029d6106df366004613d0c565b6001600160a01b03918216600090815260056020908152604080832093909416825291909152205460ff1690565b6103a661071b366004613a9d565b611732565b34801561072c57600080fd5b5061030f61073b3660046138d4565b611b94565b34801561074c57600080fd5b5061030f61075b366004613e0b565b611c0a565b34801561076c57600080fd5b5061030f61077b3660046138d4565b611ee5565b34801561078c57600080fd5b50600c54610260906001600160a01b031681565b60006001600160e01b031982166302734eab60e51b14806107d157506001600160e01b0319821663152a902d60e11b145b806107e057506107e082611f64565b92915050565b6060600e80546107f590613fb3565b80601f016020809104026020016040519081016040528092919081815260200182805461082190613fb3565b801561086e5780601f106108435761010080835404028352916020019161086e565b820191906000526020600020905b81548152906001019060200180831161085157829003601f168201915b5050505050905090565b600061088382611fb4565b506000908152600460205260409020546001600160a01b031690565b60006108aa82612013565b9050806001600160a01b0316836001600160a01b0316141561091d5760405162461bcd60e51b815260206004820152602160248201527f4552433732313a20617070726f76616c20746f2063757272656e74206f776e656044820152603960f91b60648201526084015b60405180910390fd5b336001600160a01b0382161480610939575061093981336106df565b6109ab5760405162461bcd60e51b815260206004820152603d60248201527f4552433732313a20617070726f76652063616c6c6572206973206e6f7420746f60448201527f6b656e206f776e6572206f7220617070726f76656420666f7220616c6c0000006064820152608401610914565b6109b58383612073565b505050565b600a546001600160a01b0316331480156109dc57506001600160a01b03811615155b6040518060400160405280600381526020016231303160e81b81525090610a165760405162461bcd60e51b81526004016109149190613857565b50600c80546001600160a01b0319166001600160a01b0392909216919091179055565b826001600160a01b0381163314610a5357610a53336120e1565b610a5e84848461219a565b50505050565b600080610a7184846121cb565b915091509250929050565b826001600160a01b0381163314610a9657610a96336120e1565b610a5e848484612365565b600e8054610aae90613fb3565b80601f0160208091040260200160405190810160405280929190818152602001828054610ada90613fb3565b8015610b275780601f10610afc57610100808354040283529160200191610b27565b820191906000526020600020905b815481529060010190602001808311610b0a57829003601f168201915b505050505081565b600a546001600160a01b031633148015610b5157506001600160a01b03811615155b6040518060400160405280600381526020016231303160e81b81525090610b8b5760405162461bcd60e51b81526004016109149190613857565b50600d80546001600160a01b0319166001600160a01b0392909216919091179055565b6000610bbc60065460ff1690565b15905090565b600a546001600160a01b0316331480610be557506010546001600160a01b031633145b6040518060400160405280600381526020016231303160e81b81525090610c1f5760405162461bcd60e51b81526004016109149190613857565b50610c2981612380565b50565b6000610c36612396565b60185415610c7d5760185460408051808201909152600381526206460760eb1b6020820152904211610c7b5760405162461bcd60e51b81526004016109149190613857565b505b60128054600160301b900462ffffff16906006610c9983614004565b82546101009290920a62ffffff818102199093169183160217909155601254630100000081048216600160301b90910490911611159050610cd957600080fd5b60125462ffffff80821691610cff91600160481b8204811691600160301b900416614027565b62ffffff161415610d7057601054601154604051631122f8a960e11b815260048101919091526001600160a01b03909116908190632245f15290602401600060405180830381600087803b158015610d5657600080fd5b505af1158015610d6a573d6000803e3d6000fd5b50505050505b601254601154600160301b90910462ffffff1690610d9290620f42409061404e565b610d9c919061406d565b9050610da883826123f0565b600c54604051631da00d8560e01b8152600481018390526001600160a01b03909116906000908290631da00d85906024016020604051808303816000875af1158015610df8573d6000803e3d6000fd5b505050506040513d601f19601f82011682018060405250810190610e1c9190614085565b9050610e28838261240a565b600b80546040805180820182529283526a4246535f4144445245535360a81b60208401525163bf40fac160e01b81526001600160a01b0390911691600091839163bf40fac191610e7b9190600401613857565b602060405180830381865afa158015610e98573d6000803e3d6000fd5b505050506040513d601f19601f82011682018060405250810190610ebc919061409e565b905060005b8651811015610fc85760405163188687dd60e21b815260048101879052600090610f3790309063621a1f74906024015b602060405180830381865afa158015610f0e573d6000803e3d6000fd5b505050506040513d601f19601f82011682018060405250810190610f329190614085565b6124d3565b9050826001600160a01b031663928a4b3e82848b8681518110610f5c57610f5c6140bb565b60200260200101516040518463ffffffff1660e01b8152600401610f82939291906140d1565b600060405180830381600087803b158015610f9c57600080fd5b505af1158015610fb0573d6000803e3d6000fd5b50505050508080610fc090614106565b915050610ec1565b50610fd161251f565b505050506107e06001600755565b6000818152600960205260408120546001600160a01b031615156040518060400160405280600381526020016232303960e81b815250906110335760405162461bcd60e51b81526004016109149190613857565b50600082815260096020526040902054600160a01b900460a01b6001600160a01b03191661106357506000919050565b60008281526009602090815260409182902054915161109d92600160a01b900460a01b91016001600160a01b031991909116815260200190565b604051602081830303815290604052805190602001209050919050565b60006001600160a01b0382166111245760405162461bcd60e51b815260206004820152602960248201527f4552433732313a2061646472657373207a65726f206973206e6f7420612076616044820152683634b21037bbb732b960b91b6064820152608401610914565b506001600160a01b031660009081526003602052604090205490565b611148612b04565b6111526000612b70565b565b60108054601154601254601380546001600160a01b0390941694929362ffffff8084169463010000008504821694600160301b8104831694600160481b909104909216929091906111a490613fb3565b80601f01602080910402602001604051908101604052809291908181526020018280546111d090613fb3565b801561121d5780601f106111f25761010080835404028352916020019161121d565b820191906000526020600020905b81548152906001019060200180831161120057829003601f168201915b5050505060048301546005840154600685018054949592946001600160a01b0390921693509061124c90613fb3565b80601f016020809104026020016040519081016040528092919081815260200182805461127890613fb3565b80156112c55780601f1061129a576101008083540402835291602001916112c5565b820191906000526020600020905b8154815290600101906020018083116112a857829003601f168201915b5050604080518082019091526007860154815260088601546020820152600a9095015493949392508e915050565b600a546001600160a01b031633148061131657506010546001600160a01b031633145b6040518060400160405280600381526020016231303160e81b815250906113505760405162461bcd60e51b81526004016109149190613857565b50601455565b600a546001600160a01b03163314801561137857506001600160a01b03811615155b6040518060400160405280600381526020016231303160e81b815250906113b25760405162461bcd60e51b81526004016109149190613857565b50600a80546001600160a01b0319166001600160a01b0392909216919091179055565b606061146e60016003600e80546113eb90613fb3565b80601f016020809104026020016040519081016040528092919081815260200182805461141790613fb3565b80156114645780601f1061143957610100808354040283529160200191611464565b820191906000526020600020905b81548152906001019060200180831161144757829003601f168201915b5050505050612bc2565b905090565b61147e338383612ca9565b5050565b600b80546040805180820182529283526a4246535f4144445245535360a81b60208401525163bf40fac160e01b81526001600160a01b0390911691600091839163bf40fac1916114d59190600401613857565b602060405180830381865afa1580156114f2573d6000803e3d6000fd5b505050506040513d601f19601f82011682018060405250810190611516919061409e565b60405163188687dd60e21b81526004810187905290915060009061154490309063621a1f7490602401610ef1565b604051634945259f60e11b81529091506001600160a01b0383169063928a4b3e90611577908490899089906004016140d1565b600060405180830381600087803b15801561159157600080fd5b505af11580156115a5573d6000803e3d6000fd5b50505050505050505050565b836001600160a01b03811633146115cb576115cb336120e1565b6115d785858585612d78565b5050505050565b6000818152600960205260409020546060906001600160a01b031615156040518060400160405280600381526020016232303960e81b815250906116355760405162461bcd60e51b81526004016109149190613857565b50600d5460405163188687dd60e21b8152600481018490526001600160a01b0390911690600090309063621a1f7490602401602060405180830381865afa158015611684573d6000803e3d6000fd5b505050506040513d601f19601f820116820180604052508101906116a89190614085565b601154604051639413930160e01b8152600481019190915260248101869052604481018290529091506001600160a01b03831690639413930190606401600060405180830381865afa158015611702573d6000803e3d6000fd5b505050506040513d6000823e601f3d908101601f1916820160405261172a9190810190614121565b949350505050565b600061173c612396565b60128054600160481b900462ffffff1690600961175883614004565b82546101009290920a62ffffff81810219909316918316021790915560125480821692506117979163010000008204811691600160481b900416614027565b62ffffff1611156117a757600080fd5b60125462ffffff808216916117cd91600160481b8204811691600160301b900416614027565b62ffffff16141561183e57601054601154604051631122f8a960e11b815260048101919091526001600160a01b03909116908190632245f15290602401600060405180830381600087803b15801561182457600080fd5b505af1158015611838573d6000803e3d6000fd5b50505050505b601054336000908152601b60205260409020546001600160a01b039091169060ff16806118e857506011546040516331a9108f60e11b815260048101919091526001600160a01b03821690636352211e90602401602060405180830381865afa1580156118af573d6000803e3d6000fd5b505050506040513d601f19601f820116820180604052508101906118d3919061409e565b6001600160a01b0316336001600160a01b0316145b6118f157600080fd5b336000908152601b602052604090205460ff168015611911575060185415155b156119555760185460408051808201909152600381526206460760eb1b60208201529042116119535760405162461bcd60e51b81526004016109149190613857565b505b6012546119779062ffffff63010000008204811691600160481b900416614027565b62ffffff16620f4240601060010154611990919061404e565b61199a919061406d565b91506119a684836123f0565b600c54604051631da00d8560e01b8152600481018490526001600160a01b03909116906000908290631da00d85906024016020604051808303816000875af11580156119f6573d6000803e3d6000fd5b505050506040513d601f19601f82011682018060405250810190611a1a9190614085565b9050611a26848261240a565b600b80546040805180820182529283526a4246535f4144445245535360a81b60208401525163bf40fac160e01b81526001600160a01b0390911691600091839163bf40fac191611a799190600401613857565b602060405180830381865afa158015611a96573d6000803e3d6000fd5b505050506040513d601f19601f82011682018060405250810190611aba919061409e565b905060005b8751811015611b845760405163188687dd60e21b815260048101889052600090611af390309063621a1f7490602401610ef1565b9050826001600160a01b031663928a4b3e82848c8681518110611b1857611b186140bb565b60200260200101516040518463ffffffff1660e01b8152600401611b3e939291906140d1565b600060405180830381600087803b158015611b5857600080fd5b505af1158015611b6c573d6000803e3d6000fd5b50505050508080611b7c90614106565b915050611abf565b5050505050506107e06001600755565b611b9c612b04565b6001600160a01b038116611c015760405162461bcd60e51b815260206004820152602660248201527f4f776e61626c653a206e6577206f776e657220697320746865207a65726f206160448201526564647265737360d01b6064820152608401610914565b610c2981612b70565b600a5460408051808201909152600381526219181960e91b6020820152906001600160a01b031615611c4f5760405162461bcd60e51b81526004016109149190613857565b5060408051808201909152600381526203130360ec1b60208201526001600160a01b038616611c915760405162461bcd60e51b81526004016109149190613857565b508551601080546001600160a01b039092166001600160a01b031990921691909117815560208088015160115560408801516012805460608b015160808c015160a08d015162ffffff908116600160481b026bffffff00000000000000000019928216600160301b02929092166bffffffffffff0000000000001993821663010000000265ffffffffffff19909516919096161792909217169290921791909117905560c08801518051899392611d4d926013929101906136d7565b5060e082015160048201556101008201516005820180546001600160a01b0319166001600160a01b039092169190911790556101208201518051611d9b9160068401916020909101906136d7565b506101408201518051600783015560209081015160088301556101608301518051611dcc926009850192019061375b565b506101809190910151600a91820155600b80546001600160a01b038088166001600160a01b031992831617909255825488831690821617909255600c8054868316908416179055600d8054918516919092161790556101208601518051611e3b91600e916020909101906136d7565b5060005b86610160015151811015611eae576001601b60008961016001518481518110611e6a57611e6a6140bb565b6020908102919091018101516001600160a01b03168252810191909152604001600020805460ff191691151591909117905580611ea681614106565b915050611e3f565b50600a54611ec4906001600160a01b0316611b94565b8015611ed257611ed2612daa565b5050426017555050506101800151600f55565b600a546001600160a01b031633148015611f0757506001600160a01b03811615155b6040518060400160405280600381526020016231303160e81b81525090611f415760405162461bcd60e51b81526004016109149190613857565b50600b80546001600160a01b0319166001600160a01b0392909216919091179055565b60006001600160e01b031982166380ac58cd60e01b1480611f9557506001600160e01b03198216635b5e139f60e01b145b806107e057506301ffc9a760e01b6001600160e01b03198316146107e0565b6000818152600960205260409020546001600160a01b0316610c295760405162461bcd60e51b8152602060048201526018602482015277115490cdcc8c4e881a5b9d985b1a59081d1bdad95b88125160421b6044820152606401610914565b6000818152600260205260408120546001600160a01b0316806107e05760405162461bcd60e51b8152602060048201526018602482015277115490cdcc8c4e881a5b9d985b1a59081d1bdad95b88125160421b6044820152606401610914565b600081815260046020526040902080546001600160a01b0319166001600160a01b03841690811790915581906120a882612013565b6001600160a01b03167f8c5be1e5ebec7d5bd14f71427d1e84f3dd0314c0f7b2291e5b200ac8c7c3b92560405160405180910390a45050565b6daaeb6d7670e522a718067333cd4e3b15610c2957604051633185c44d60e21b81523060048201526001600160a01b03821660248201526daaeb6d7670e522a718067333cd4e9063c617113490604401602060405180830381865afa15801561214e573d6000803e3d6000fd5b505050506040513d601f19601f820116820180604052508101906121729190614198565b610c2957604051633b79c77360e21b81526001600160a01b0382166004820152602401610914565b6121a43382612e04565b6121c05760405162461bcd60e51b8152600401610914906141b5565b6109b5838383612e82565b600a54600f54600b546001600160a01b039283169260009291161561234457600b546040805180820182526013815272524f59414c54595f46494e5f4144445245535360681b6020820152905163bf40fac160e01b81526001600160a01b0390921691600091839163bf40fac19161224591600401613857565b602060405180830381865afa158015612262573d6000803e3d6000fd5b505050506040513d601f19601f82011682018060405250810190612286919061409e565b90506001600160a01b0381161561229b578094505b8261234157604080518082018252601b81527f44454641554c545f524f59414c54595f46494e5f50455243454e54000000000060208201529051636d12dce160e01b81526001600160a01b03841691636d12dce1916122fd9190600401613857565b602060405180830381865afa15801561231a573d6000803e3d6000fd5b505050506040513d601f19601f8201168201806040525081019061233e9190614085565b92505b50505b612710612351828661404e565b61235b9190614202565b9150509250929050565b6109b5838383604051806020016040528060008152506115b1565b801561238e57610c29612ebc565b610c29612daa565b600260075414156123e95760405162461bcd60e51b815260206004820152601f60248201527f5265656e7472616e637947756172643a207265656e7472616e742063616c6c006044820152606401610914565b6002600755565b61147e828260405180602001604052806000815250612ef5565b600082815260096020908152604091829020548251808401909352600383526219181b60e91b91830191909152600160a01b900460a01b6001600160a01b031916156124695760405162461bcd60e51b81526004016109149190613857565b5060408051808201909152600381526232303760e81b6020820152816124a25760405162461bcd60e51b81526004016109149190613857565b50600091825260096020526040909120805460a09290921c600160a01b026001600160a01b03909216919091179055565b60606124de82612f28565b6124eb608084901b612f28565b60405161060f60f31b6020820152602281019290925260428201526062016040516020818303038152906040529050919050565b6014548061252a5750565b601054600b54604080518082018252601b81527f44454641554c545f524f59414c54595f46494e5f50455243454e54000000000060208201529051636d12dce160e01b81526001600160a01b0393841693909216916000918391636d12dce19161259691600401613857565b602060405180830381865afa1580156125b3573d6000803e3d6000fd5b505050506040513d601f19601f820116820180604052508101906125d79190614085565b600a54600b549192506001600160a01b039081169116156127435760408051808201825260158152744d494e545f4e46545f4f50455241544f525f46454560581b60208201529051636d12dce160e01b81526001600160a01b03851691636d12dce1916126479190600401613857565b602060405180830381865afa158015612664573d6000803e3d6000fd5b505050506040513d601f19601f820116820180604052508101906126889190614085565b604080518082018252601f81527f4d494e545f4e46545f4f50455241544f525f54524541535552455f41444452006020820152905163bf40fac160e01b81529193506000916001600160a01b0386169163bf40fac1916126eb9190600401613857565b602060405180830381865afa158015612708573d6000803e3d6000fd5b505050506040513d601f19601f8201168201806040525081019061272c919061409e565b90506001600160a01b03811615612741578091505b505b6015546001600160a01b0316806128c3578534101561276157600080fd5b6011546040516331a9108f60e11b81526000916001600160a01b03881691636352211e916127959160040190815260200190565b602060405180830381865afa1580156127b2573d6000803e3d6000fd5b505050506040513d601f19601f820116820180604052508101906127d6919061409e565b6001600160a01b03166127106127ec868a61404e565b6127f69190614202565b6128009089614224565b604051600081818185875af1925050503d806000811461283c576040519150601f19603f3d011682016040523d82523d6000602084013e612841565b606091505b505090508061284f57600080fd5b83156128bd576001600160a01b03831661271061286c868a61404e565b6128769190614202565b604051600081818185875af1925050503d80600081146128b2576040519150601f19603f3d011682016040523d82523d6000602084013e6128b7565b606091505b50909150505b50612afc565b6040516323b872dd60e01b81523360048201523060248201526044810187905281906001600160a01b038216906323b872dd906064016020604051808303816000875af1158015612918573d6000803e3d6000fd5b505050506040513d601f19601f8201168201806040525081019061293c9190614198565b61294557600080fd5b6011546040516331a9108f60e11b815260048101919091526001600160a01b038281169163a9059cbb91891690636352211e90602401602060405180830381865afa158015612998573d6000803e3d6000fd5b505050506040513d601f19601f820116820180604052508101906129bc919061409e565b6127106129c9888c61404e565b6129d39190614202565b6129dd908b614224565b6040516001600160e01b031960e085901b1681526001600160a01b03909216600483015260248201526044016020604051808303816000875af1158015612a28573d6000803e3d6000fd5b505050506040513d601f19601f82011682018060405250810190612a4c9190614198565b612a5557600080fd5b8315612afa576001600160a01b03811663a9059cbb84612710612a78888c61404e565b612a829190614202565b6040516001600160e01b031960e085901b1681526001600160a01b03909216600483015260248201526044016020604051808303816000875af1158015612acd573d6000803e3d6000fd5b505050506040513d601f19601f82011682018060405250810190612af19190614198565b612afa57600080fd5b505b505050505050565b33612b17600a546001600160a01b031690565b6001600160a01b03161480612b3657506010546001600160a01b031633145b6040518060400160405280600381526020016203130360ec1b81525090610c295760405162461bcd60e51b81526004016109149190613857565b600880546001600160a01b038381166001600160a01b0319831681179093556040519116919082907f8be0079c531659141344cd1fd0a4f28419497f9722a3daafe3b4186f6b6457e090600090a35050565b60606000612bd08585614224565b612bdb90600161406d565b67ffffffffffffffff811115612bf357612bf361398a565b6040519080825280601f01601f191660200182016040528015612c1d576020820181803683370190505b50905060005b612c2d8686614224565b8111612ca057836001612c40888461406d565b612c4a9190614224565b81518110612c5a57612c5a6140bb565b602001015160f81c60f81b828281518110612c7757612c776140bb565b60200101906001600160f81b031916908160001a90535080612c9881614106565b915050612c23565b50949350505050565b816001600160a01b0316836001600160a01b03161415612d0b5760405162461bcd60e51b815260206004820152601960248201527f4552433732313a20617070726f766520746f2063616c6c6572000000000000006044820152606401610914565b6001600160a01b03838116600081815260056020908152604080832094871680845294825291829020805460ff191686151590811790915591519182527f17307eab39ab6107e8899845ad3d59bd9653f200f220920489ca2b5937696c31910160405180910390a3505050565b612d823383612e04565b612d9e5760405162461bcd60e51b8152600401610914906141b5565b610a5e848484846130da565b612db261310d565b6006805460ff191660011790557f62e78cea01bee320cd4e420270b5ea74000d11b0c9f74754ebdbfc544b05a258612de73390565b6040516001600160a01b03909116815260200160405180910390a1565b600080612e1083612013565b9050806001600160a01b0316846001600160a01b03161480612e5757506001600160a01b0380821660009081526005602090815260408083209388168352929052205460ff165b8061172a5750836001600160a01b0316612e7084610878565b6001600160a01b031614949350505050565b612e8d838383613153565b600090815260096020526040902080546001600160a01b0319166001600160a01b039290921691909117905550565b612ec46132c4565b6006805460ff191690557f5db9ee0a495bf2e6ff9c91a7834c1ba4fdd244a5e8aa4e537bd38aeae4b073aa33612de7565b612eff838361330d565b612f0c6000848484613345565b6109b55760405162461bcd60e51b81526004016109149061423b565b7aff00000000000000ff00000000000000ff00000000000000ff00006bffffffff0000000000000000604083901c90811663ffffffff60c01b84161760201c63ffffffff60601b919091166001600160e01b031984161717601081901c9182167eff00000000000000ff00000000000000ff00000000000000ff000000000000821617600890811c7bff00000000000000ff00000000000000ff00000000000000ff000000939093167fff00000000000000ff00000000000000ff00000000000000ff000000000000009290921691909117919091179081901c7e0f000f000f000f000f000f000f000f000f000f000f000f000f000f000f000f167f0f000f000f000f000f000f000f000f000f000f000f000f000f000f000f000f00600492831c161790613076827f060606060606060606060606060606060606060606060606060606060606060661406d565b901c7f0f0f0f0f0f0f0f0f0f0f0f0f0f0f0f0f0f0f0f0f0f0f0f0f0f0f0f0f0f0f0f0f1660076130a6919061404e565b6130d0827f303030303030303030303030303030303030303030303030303030303030303061406d565b6107e0919061406d565b6130e5848484612e82565b6130f184848484613345565b610a5e5760405162461bcd60e51b81526004016109149061423b565b60065460ff16156111525760405162461bcd60e51b815260206004820152601060248201526f14185d5cd8589b194e881c185d5cd95960821b6044820152606401610914565b826001600160a01b031661316682612013565b6001600160a01b03161461318c5760405162461bcd60e51b81526004016109149061428d565b6001600160a01b0382166131ee5760405162461bcd60e51b8152602060048201526024808201527f4552433732313a207472616e7366657220746f20746865207a65726f206164646044820152637265737360e01b6064820152608401610914565b6131fb8383836001613443565b826001600160a01b031661320e82612013565b6001600160a01b0316146132345760405162461bcd60e51b81526004016109149061428d565b600081815260046020908152604080832080546001600160a01b03199081169091556001600160a01b0387811680865260038552838620805460001901905590871680865283862080546001019055868652600290945282852080549092168417909155905184937fddf252ad1be2c89b69c2b068fc378daa952ba7f163c4a11628f55a4df523b3ef91a4505050565b60065460ff166111525760405162461bcd60e51b815260206004820152601460248201527314185d5cd8589b194e881b9bdd081c185d5cd95960621b6044820152606401610914565b61331782826134b6565b600090815260096020526040902080546001600160a01b0319166001600160a01b0392909216919091179055565b60006001600160a01b0384163b1561343857604051630a85bd0160e11b81526001600160a01b0385169063150b7a02906133899033908990889088906004016142d2565b6020604051808303816000875af19250505080156133c4575060408051601f3d908101601f191682019092526133c191810190614305565b60015b61341e573d8080156133f2576040519150601f19603f3d011682016040523d82523d6000602084013e6133f7565b606091505b5080516134165760405162461bcd60e51b81526004016109149061423b565b805181602001fd5b6001600160e01b031916630a85bd0160e11b14905061172a565b506001949350505050565b61344f8484848461364f565b60065460ff1615610a5e5760405162461bcd60e51b815260206004820152602b60248201527f4552433732315061757361626c653a20746f6b656e207472616e73666572207760448201526a1a1a5b19481c185d5cd95960aa1b6064820152608401610914565b6001600160a01b03821661350c5760405162461bcd60e51b815260206004820181905260248201527f4552433732313a206d696e7420746f20746865207a65726f20616464726573736044820152606401610914565b6000818152600960205260409020546001600160a01b0316156135715760405162461bcd60e51b815260206004820152601c60248201527f4552433732313a20746f6b656e20616c7265616479206d696e746564000000006044820152606401610914565b61357f600083836001613443565b6000818152600960205260409020546001600160a01b0316156135e45760405162461bcd60e51b815260206004820152601c60248201527f4552433732313a20746f6b656e20616c7265616479206d696e746564000000006044820152606401610914565b6001600160a01b038216600081815260036020908152604080832080546001019055848352600290915280822080546001600160a01b0319168417905551839291907fddf252ad1be2c89b69c2b068fc378daa952ba7f163c4a11628f55a4df523b3ef908290a45050565b6001811115610a5e576001600160a01b03841615613695576001600160a01b0384166000908152600360205260408120805483929061368f908490614224565b90915550505b6001600160a01b03831615610a5e576001600160a01b038316600090815260036020526040812080548392906136cc90849061406d565b909155505050505050565b8280546136e390613fb3565b90600052602060002090601f016020900481019282613705576000855561374b565b82601f1061371e57805160ff191683800117855561374b565b8280016001018555821561374b579182015b8281111561374b578251825591602001919060010190613730565b506137579291506137b0565b5090565b82805482825590600052602060002090810192821561374b579160200282015b8281111561374b57825182546001600160a01b0319166001600160a01b0390911617825560209092019160019091019061377b565b5b8082111561375757600081556001016137b1565b6001600160e01b031981168114610c2957600080fd5b6000602082840312156137ed57600080fd5b81356137f8816137c5565b9392505050565b60005b8381101561381a578181015183820152602001613802565b83811115610a5e5750506000910152565b600081518084526138438160208601602086016137ff565b601f01601f19169290920160200192915050565b6020815260006137f8602083018461382b565b60006020828403121561387c57600080fd5b5035919050565b6001600160a01b0381168114610c2957600080fd5b80356138a381613883565b919050565b600080604083850312156138bb57600080fd5b82356138c681613883565b946020939093013593505050565b6000602082840312156138e657600080fd5b81356137f881613883565b60008060006060848603121561390657600080fd5b833561391181613883565b9250602084013561392181613883565b929592945050506040919091013590565b6000806040838503121561394557600080fd5b50508035926020909101359150565b8015158114610c2957600080fd5b80356138a381613954565b60006020828403121561397f57600080fd5b81356137f881613954565b634e487b7160e01b600052604160045260246000fd5b6040516101a0810167ffffffffffffffff811182821017156139c4576139c461398a565b60405290565b604051601f8201601f1916810167ffffffffffffffff811182821017156139f3576139f361398a565b604052919050565b600067ffffffffffffffff821115613a1557613a1561398a565b5060051b60200190565b600067ffffffffffffffff821115613a3957613a3961398a565b50601f01601f191660200190565b600082601f830112613a5857600080fd5b8135613a6b613a6682613a1f565b6139ca565b818152846020838601011115613a8057600080fd5b816020850160208301376000918101602001919091529392505050565b60008060408385031215613ab057600080fd5b8235613abb81613883565b915060208381013567ffffffffffffffff80821115613ad957600080fd5b818601915086601f830112613aed57600080fd5b8135613afb613a66826139fb565b81815260059190911b83018401908481019089831115613b1a57600080fd5b8585015b83811015613b5257803585811115613b365760008081fd5b613b448c89838a0101613a47565b845250918601918601613b1e565b508096505050505050509250929050565b6001600160a01b038d168152602081018c905262ffffff8b811660408301528a811660608301528981166080830152881660a08201526101a060c08201819052600090613bb28382018a61382b565b90508760e0840152613bd06101008401886001600160a01b03169052565b828103610120840152613be3818761382b565b855161014085015260208601516101608501529150613bff9050565b826101808301529d9c50505050505050505050505050565b60008060408385031215613c2a57600080fd5b8235613c3581613883565b91506020830135613c4581613954565b809150509250929050565b600080600060608486031215613c6557600080fd5b8335925060208401359150604084013567ffffffffffffffff811115613c8a57600080fd5b613c9686828701613a47565b9150509250925092565b60008060008060808587031215613cb657600080fd5b8435613cc181613883565b93506020850135613cd181613883565b925060408501359150606085013567ffffffffffffffff811115613cf457600080fd5b613d0087828801613a47565b91505092959194509250565b60008060408385031215613d1f57600080fd5b8235613d2a81613883565b91506020830135613c4581613883565b803562ffffff811681146138a357600080fd5b600060408284031215613d5f57600080fd5b6040516040810181811067ffffffffffffffff82111715613d8257613d8261398a565b604052823581526020928301359281019290925250919050565b600082601f830112613dad57600080fd5b81356020613dbd613a66836139fb565b82815260059290921b84018101918181019086841115613ddc57600080fd5b8286015b84811015613e00578035613df381613883565b8352918301918301613de0565b509695505050505050565b60008060008060008060c08789031215613e2457600080fd5b863567ffffffffffffffff80821115613e3c57600080fd5b908801906101c0828b031215613e5157600080fd5b613e596139a0565b613e6283613898565b815260208301356020820152613e7a60408401613d3a565b6040820152613e8b60608401613d3a565b6060820152613e9c60808401613d3a565b6080820152613ead60a08401613d3a565b60a082015260c083013582811115613ec457600080fd5b613ed08c828601613a47565b60c08301525060e083013560e0820152610100613eee818501613898565b908201526101208381013583811115613f0657600080fd5b613f128d828701613a47565b828401525050610140613f278c828601613d4d565b908201526101808381013583811115613f3f57600080fd5b613f4b8d828701613d9c565b610160840152506101a08401358183015250809850505050613f6f60208801613898565b9450613f7d60408801613898565b9350613f8b60608801613898565b9250613f9960808801613898565b9150613fa760a08801613962565b90509295509295509295565b600181811c90821680613fc757607f821691505b60208210811415613fe857634e487b7160e01b600052602260045260246000fd5b50919050565b634e487b7160e01b600052601160045260246000fd5b600062ffffff8083168181141561401d5761401d613fee565b6001019392505050565b600062ffffff80831681851680830382111561404557614045613fee565b01949350505050565b600081600019048311821515161561406857614068613fee565b500290565b6000821982111561408057614080613fee565b500190565b60006020828403121561409757600080fd5b5051919050565b6000602082840312156140b057600080fd5b81516137f881613883565b634e487b7160e01b600052603260045260246000fd5b6060815260006140e4606083018661382b565b84602084015282810360408401526140fc818561382b565b9695505050505050565b600060001982141561411a5761411a613fee565b5060010190565b60006020828403121561413357600080fd5b815167ffffffffffffffff81111561414a57600080fd5b8201601f8101841361415b57600080fd5b8051614169613a6682613a1f565b81815285602083850101111561417e57600080fd5b61418f8260208301602086016137ff565b95945050505050565b6000602082840312156141aa57600080fd5b81516137f881613954565b6020808252602d908201527f4552433732313a2063616c6c6572206973206e6f7420746f6b656e206f776e6560408201526c1c881bdc88185c1c1c9bdd9959609a1b606082015260800190565b60008261421f57634e487b7160e01b600052601260045260246000fd5b500490565b60008282101561423657614236613fee565b500390565b60208082526032908201527f4552433732313a207472616e7366657220746f206e6f6e20455243373231526560408201527131b2b4bb32b91034b6b83632b6b2b73a32b960711b606082015260800190565b60208082526025908201527f4552433732313a207472616e736665722066726f6d20696e636f72726563742060408201526437bbb732b960d91b606082015260800190565b6001600160a01b03858116825284166020820152604081018390526080606082018190526000906140fc9083018461382b565b60006020828403121561431757600080fd5b81516137f8816137c556fea264697066735822122061ca06e968ec84a2f217c6a212e8734f845d952f1bcb12344aa330abd2ede36c64736f6c634300080c0033",
  "linkReferences": {},
  "deployedLinkReferences": {}
}