{
  "_format": "hh-sol-artifact-1",
  "contractName": "GenerativeNFT",
  "sourceName": "contracts/nfts/GenerativeNFT.sol",
  "abi": [
    {
      "inputs": [
        {
          "internalType": "string",
          "name": "name",
          "type": "string"
        },
        {
          "internalType": "string",
          "name": "symbol",
          "type": "string"
        }
      ],
      "stateMutability": "nonpayable",
      "type": "constructor"
    },
    {
      "inputs": [
        {
          "internalType": "address",
          "name": "operator",
          "type": "address"
        }
      ],
      "name": "OperatorNotAllowed",
      "type": "error"
    },
    {
      "anonymous": false,
      "inputs": [
        {
          "indexed": true,
          "internalType": "address",
          "name": "owner",
          "type": "address"
        },
        {
          "indexed": true,
          "internalType": "address",
          "name": "approved",
          "type": "address"
        },
        {
          "indexed": true,
          "internalType": "uint256",
          "name": "tokenId",
          "type": "uint256"
        }
      ],
      "name": "Approval",
      "type": "event"
    },
    {
      "anonymous": false,
      "inputs": [
        {
          "indexed": true,
          "internalType": "address",
          "name": "owner",
          "type": "address"
        },
        {
          "indexed": true,
          "internalType": "address",
          "name": "operator",
          "type": "address"
        },
        {
          "indexed": false,
          "internalType": "bool",
          "name": "approved",
          "type": "bool"
        }
      ],
      "name": "ApprovalForAll",
      "type": "event"
    },
    {
      "anonymous": false,
      "inputs": [
        {
          "indexed": true,
          "internalType": "address",
          "name": "previousOwner",
          "type": "address"
        },
        {
          "indexed": true,
          "internalType": "address",
          "name": "newOwner",
          "type": "address"
        }
      ],
      "name": "OwnershipTransferred",
      "type": "event"
    },
    {
      "anonymous": false,
      "inputs": [
        {
          "indexed": false,
          "internalType": "address",
          "name": "account",
          "type": "address"
        }
      ],
      "name": "Paused",
      "type": "event"
    },
    {
      "anonymous": false,
      "inputs": [
        {
          "indexed": true,
          "internalType": "address",
          "name": "from",
          "type": "address"
        },
        {
          "indexed": true,
          "internalType": "address",
          "name": "to",
          "type": "address"
        },
        {
          "indexed": true,
          "internalType": "uint256",
          "name": "tokenId",
          "type": "uint256"
        }
      ],
      "name": "Transfer",
      "type": "event"
    },
    {
      "anonymous": false,
      "inputs": [
        {
          "indexed": false,
          "internalType": "address",
          "name": "account",
          "type": "address"
        }
      ],
      "name": "Unpaused",
      "type": "event"
    },
    {
      "inputs": [],
      "name": "OPERATOR_FILTER_REGISTRY",
      "outputs": [
        {
          "internalType": "contract IOperatorFilterRegistry",
          "name": "",
          "type": "address"
        }
      ],
      "stateMutability": "view",
      "type": "function"
    },
    {
      "inputs": [],
      "name": "_admin",
      "outputs": [
        {
          "internalType": "address",
          "name": "",
          "type": "address"
        }
      ],
      "stateMutability": "view",
      "type": "function"
    },
    {
      "inputs": [],
      "name": "_nameCol",
      "outputs": [
        {
          "internalType": "string",
          "name": "",
          "type": "string"
        }
      ],
      "stateMutability": "view",
      "type": "function"
    },
    {
      "inputs": [],
      "name": "_paramsAddress",
      "outputs": [
        {
          "internalType": "address",
          "name": "",
          "type": "address"
        }
      ],
      "stateMutability": "view",
      "type": "function"
    },
    {
      "inputs": [],
      "name": "_project",
      "outputs": [
        {
          "internalType": "address",
          "name": "_projectAddr",
          "type": "address"
        },
        {
          "internalType": "uint256",
          "name": "_projectId",
          "type": "uint256"
        },
        {
          "internalType": "uint24",
          "name": "_maxSupply",
          "type": "uint24"
        },
        {
          "internalType": "uint24",
          "name": "_limit",
          "type": "uint24"
        },
        {
          "internalType": "uint24",
          "name": "_index",
          "type": "uint24"
        },
        {
          "internalType": "uint24",
          "name": "_indexReserve",
          "type": "uint24"
        },
        {
          "internalType": "string",
          "name": "_creator",
          "type": "string"
        },
        {
          "internalType": "uint256",
          "name": "_mintPrice",
          "type": "uint256"
        },
        {
          "internalType": "address",
          "name": "_mintPriceAddr",
          "type": "address"
        },
        {
          "internalType": "string",
          "name": "_name",
          "type": "string"
        },
        {
          "components": [
            {
              "internalType": "uint256",
              "name": "_initBlockTime",
              "type": "uint256"
            },
            {
              "internalType": "uint256",
              "name": "_openingTime",
              "type": "uint256"
            }
          ],
          "internalType": "struct NFTProject.ProjectMintingSchedule",
          "name": "_mintingSchedule",
          "type": "tuple"
        },
        {
          "internalType": "uint256",
          "name": "_royalty",
          "type": "uint256"
        }
      ],
      "stateMutability": "view",
      "type": "function"
    },
    {
      "inputs": [],
      "name": "_projectDataContextAddr",
      "outputs": [
        {
          "internalType": "address",
          "name": "",
          "type": "address"
        }
      ],
      "stateMutability": "view",
      "type": "function"
    },
    {
      "inputs": [],
      "name": "_randomizer",
      "outputs": [
        {
          "internalType": "address",
          "name": "",
          "type": "address"
        }
      ],
      "stateMutability": "view",
      "type": "function"
    },
    {
      "inputs": [
        {
          "internalType": "address",
          "name": "",
          "type": "address"
        }
      ],
      "name": "_reserves",
      "outputs": [
        {
          "internalType": "bool",
          "name": "",
          "type": "bool"
        }
      ],
      "stateMutability": "view",
      "type": "function"
    },
    {
      "inputs": [],
      "name": "_royalty",
      "outputs": [
        {
          "internalType": "uint256",
          "name": "",
          "type": "uint256"
        }
      ],
      "stateMutability": "view",
      "type": "function"
    },
    {
      "inputs": [
        {
          "internalType": "address",
          "name": "to",
          "type": "address"
        },
        {
          "internalType": "uint256",
          "name": "tokenId",
          "type": "uint256"
        }
      ],
      "name": "approve",
      "outputs": [],
      "stateMutability": "nonpayable",
      "type": "function"
    },
    {
      "inputs": [
        {
          "internalType": "address",
          "name": "owner",
          "type": "address"
        }
      ],
      "name": "balanceOf",
      "outputs": [
        {
          "internalType": "uint256",
          "name": "",
          "type": "uint256"
        }
      ],
      "stateMutability": "view",
      "type": "function"
    },
    {
      "inputs": [
        {
          "internalType": "address",
          "name": "newAdm",
          "type": "address"
        }
      ],
      "name": "changeAdmin",
      "outputs": [],
      "stateMutability": "nonpayable",
      "type": "function"
    },
    {
      "inputs": [
        {
          "internalType": "address",
          "name": "newAddr",
          "type": "address"
        }
      ],
      "name": "changeDataContextAddr",
      "outputs": [],
      "stateMutability": "nonpayable",
      "type": "function"
    },
    {
      "inputs": [
        {
          "internalType": "address",
          "name": "newAddr",
          "type": "address"
        }
      ],
      "name": "changeParamAddr",
      "outputs": [],
      "stateMutability": "nonpayable",
      "type": "function"
    },
    {
      "inputs": [
        {
          "internalType": "address",
          "name": "newAddr",
          "type": "address"
        }
      ],
      "name": "changeRandomizerAddr",
      "outputs": [],
      "stateMutability": "nonpayable",
      "type": "function"
    },
    {
      "inputs": [
        {
          "internalType": "uint256",
          "name": "tokenId",
          "type": "uint256"
        }
      ],
      "name": "getApproved",
      "outputs": [
        {
          "internalType": "address",
          "name": "",
          "type": "address"
        }
      ],
      "stateMutability": "view",
      "type": "function"
    },
    {
      "inputs": [],
      "name": "getStatus",
      "outputs": [
        {
          "internalType": "bool",
          "name": "",
          "type": "bool"
        }
      ],
      "stateMutability": "view",
      "type": "function"
    },
    {
      "inputs": [
        {
          "components": [
            {
              "internalType": "address",
              "name": "_projectAddr",
              "type": "address"
            },
            {
              "internalType": "uint256",
              "name": "_projectId",
              "type": "uint256"
            },
            {
              "internalType": "uint24",
              "name": "_maxSupply",
              "type": "uint24"
            },
            {
              "internalType": "uint24",
              "name": "_limit",
              "type": "uint24"
            },
            {
              "internalType": "uint24",
              "name": "_index",
              "type": "uint24"
            },
            {
              "internalType": "uint24",
              "name": "_indexReserve",
              "type": "uint24"
            },
            {
              "internalType": "string",
              "name": "_creator",
              "type": "string"
            },
            {
              "internalType": "uint256",
              "name": "_mintPrice",
              "type": "uint256"
            },
            {
              "internalType": "address",
              "name": "_mintPriceAddr",
              "type": "address"
            },
            {
              "internalType": "string",
              "name": "_name",
              "type": "string"
            },
            {
              "components": [
                {
                  "internalType": "uint256",
                  "name": "_initBlockTime",
                  "type": "uint256"
                },
                {
                  "internalType": "uint256",
                  "name": "_openingTime",
                  "type": "uint256"
                }
              ],
              "internalType": "struct NFTProject.ProjectMintingSchedule",
              "name": "_mintingSchedule",
              "type": "tuple"
            },
            {
              "internalType": "address[]",
              "name": "_reserves",
              "type": "address[]"
            },
            {
              "internalType": "uint256",
              "name": "_royalty",
              "type": "uint256"
            }
          ],
          "internalType": "struct NFTProject.ProjectMinting",
          "name": "project",
          "type": "tuple"
        },
        {
          "internalType": "address",
          "name": "admin",
          "type": "address"
        },
        {
          "internalType": "address",
          "name": "paramsAddr",
          "type": "address"
        },
        {
          "internalType": "address",
          "name": "randomizer",
          "type": "address"
        },
        {
          "internalType": "address",
          "name": "projectDataContextAddr",
          "type": "address"
        },
        {
          "internalType": "bool",
          "name": "disable",
          "type": "bool"
        }
      ],
      "name": "init",
      "outputs": [],
      "stateMutability": "nonpayable",
      "type": "function"
    },
    {
      "inputs": [
        {
          "internalType": "address",
          "name": "owner",
          "type": "address"
        },
        {
          "internalType": "address",
          "name": "operator",
          "type": "address"
        }
      ],
      "name": "isApprovedForAll",
      "outputs": [
        {
          "internalType": "bool",
          "name": "",
          "type": "bool"
        }
      ],
      "stateMutability": "view",
      "type": "function"
    },
    {
      "inputs": [
        {
          "internalType": "address",
          "name": "to",
          "type": "address"
        },
        {
          "internalType": "bytes[]",
          "name": "chunks",
          "type": "bytes[]"
        }
      ],
      "name": "mint",
      "outputs": [
        {
          "internalType": "uint256",
          "name": "tokenId",
          "type": "uint256"
        }
      ],
      "stateMutability": "payable",
      "type": "function"
    },
    {
      "inputs": [],
      "name": "name",
      "outputs": [
        {
          "internalType": "string",
          "name": "",
          "type": "string"
        }
      ],
      "stateMutability": "view",
      "type": "function"
    },
    {
      "inputs": [],
      "name": "owner",
      "outputs": [
        {
          "internalType": "address",
          "name": "",
          "type": "address"
        }
      ],
      "stateMutability": "view",
      "type": "function"
    },
    {
      "inputs": [
        {
          "internalType": "uint256",
          "name": "tokenId",
          "type": "uint256"
        }
      ],
      "name": "ownerOf",
      "outputs": [
        {
          "internalType": "address",
          "name": "",
          "type": "address"
        }
      ],
      "stateMutability": "view",
      "type": "function"
    },
    {
      "inputs": [],
      "name": "paused",
      "outputs": [
        {
          "internalType": "bool",
          "name": "",
          "type": "bool"
        }
      ],
      "stateMutability": "view",
      "type": "function"
    },
    {
      "inputs": [],
      "name": "projectAddress",
      "outputs": [
        {
          "internalType": "address",
          "name": "",
          "type": "address"
        }
      ],
      "stateMutability": "view",
      "type": "function"
    },
    {
      "inputs": [],
      "name": "projectIndex",
      "outputs": [
        {
          "internalType": "uint24",
          "name": "",
          "type": "uint24"
        }
      ],
      "stateMutability": "view",
      "type": "function"
    },
    {
      "inputs": [],
      "name": "renounceOwnership",
      "outputs": [],
      "stateMutability": "nonpayable",
      "type": "function"
    },
    {
      "inputs": [
        {
          "internalType": "address",
          "name": "to",
          "type": "address"
        },
        {
          "internalType": "bytes[]",
          "name": "chunks",
          "type": "bytes[]"
        }
      ],
      "name": "reserveMint",
      "outputs": [
        {
          "internalType": "uint256",
          "name": "tokenId",
          "type": "uint256"
        }
      ],
      "stateMutability": "payable",
      "type": "function"
    },
    {
      "inputs": [
        {
          "internalType": "uint256",
          "name": "_tokenId",
          "type": "uint256"
        },
        {
          "internalType": "uint256",
          "name": "_salePrice",
          "type": "uint256"
        }
      ],
      "name": "royaltyInfo",
      "outputs": [
        {
          "internalType": "address",
          "name": "receiver",
          "type": "address"
        },
        {
          "internalType": "uint256",
          "name": "royaltyAmount",
          "type": "uint256"
        }
      ],
      "stateMutability": "view",
      "type": "function"
    },
    {
      "inputs": [
        {
          "internalType": "address",
          "name": "from",
          "type": "address"
        },
        {
          "internalType": "address",
          "name": "to",
          "type": "address"
        },
        {
          "internalType": "uint256",
          "name": "tokenId",
          "type": "uint256"
        }
      ],
      "name": "safeTransferFrom",
      "outputs": [],
      "stateMutability": "nonpayable",
      "type": "function"
    },
    {
      "inputs": [
        {
          "internalType": "address",
          "name": "from",
          "type": "address"
        },
        {
          "internalType": "address",
          "name": "to",
          "type": "address"
        },
        {
          "internalType": "uint256",
          "name": "tokenId",
          "type": "uint256"
        },
        {
          "internalType": "bytes",
          "name": "data",
          "type": "bytes"
        }
      ],
      "name": "safeTransferFrom",
      "outputs": [],
      "stateMutability": "nonpayable",
      "type": "function"
    },
    {
      "inputs": [
        {
          "internalType": "address",
          "name": "operator",
          "type": "address"
        },
        {
          "internalType": "bool",
          "name": "approved",
          "type": "bool"
        }
      ],
      "name": "setApprovalForAll",
      "outputs": [],
      "stateMutability": "nonpayable",
      "type": "function"
    },
    {
      "inputs": [
        {
          "internalType": "bool",
          "name": "enable",
          "type": "bool"
        }
      ],
      "name": "setStatus",
      "outputs": [],
      "stateMutability": "nonpayable",
      "type": "function"
    },
    {
      "inputs": [
        {
          "internalType": "uint256",
          "name": "tokenId",
          "type": "uint256"
        },
        {
          "internalType": "uint256",
          "name": "chunkIndex",
          "type": "uint256"
        },
        {
          "internalType": "bytes",
          "name": "_data",
          "type": "bytes"
        }
      ],
      "name": "store",
      "outputs": [],
      "stateMutability": "nonpayable",
      "type": "function"
    },
    {
      "inputs": [
        {
          "internalType": "bytes4",
          "name": "interfaceId",
          "type": "bytes4"
        }
      ],
      "name": "supportsInterface",
      "outputs": [
        {
          "internalType": "bool",
          "name": "",
          "type": "bool"
        }
      ],
      "stateMutability": "view",
      "type": "function"
    },
    {
      "inputs": [],
      "name": "symbol",
      "outputs": [
        {
          "internalType": "string",
          "name": "",
          "type": "string"
        }
      ],
      "stateMutability": "view",
      "type": "function"
    },
    {
      "inputs": [
        {
          "internalType": "uint256",
          "name": "tokenId",
          "type": "uint256"
        }
      ],
      "name": "tokenIdToHash",
      "outputs": [
        {
          "internalType": "bytes32",
          "name": "",
          "type": "bytes32"
        }
      ],
      "stateMutability": "view",
      "type": "function"
    },
    {
      "inputs": [
        {
          "internalType": "uint256",
          "name": "tokenId",
          "type": "uint256"
        }
      ],
      "name": "tokenURI",
      "outputs": [
        {
          "internalType": "string",
          "name": "",
          "type": "string"
        }
      ],
      "stateMutability": "view",
      "type": "function"
    },
    {
      "inputs": [
        {
          "internalType": "address",
          "name": "from",
          "type": "address"
        },
        {
          "internalType": "address",
          "name": "to",
          "type": "address"
        },
        {
          "internalType": "uint256",
          "name": "tokenId",
          "type": "uint256"
        }
      ],
      "name": "transferFrom",
      "outputs": [],
      "stateMutability": "nonpayable",
      "type": "function"
    },
    {
      "inputs": [
        {
          "internalType": "address",
          "name": "newOwner",
          "type": "address"
        }
      ],
      "name": "transferOwnership",
      "outputs": [],
      "stateMutability": "nonpayable",
      "type": "function"
    },
    {
      "inputs": [
        {
          "internalType": "uint256",
          "name": "price",
          "type": "uint256"
        }
      ],
      "name": "updatePrice",
      "outputs": [],
      "stateMutability": "nonpayable",
      "type": "function"
    },
    {
      "inputs": [
        {
          "internalType": "address",
          "name": "mintPriceAddress",
          "type": "address"
        }
      ],
      "name": "updatePriceAddress",
      "outputs": [],
      "stateMutability": "nonpayable",
      "type": "function"
    }
  ],
  "bytecode": "0x60806040523480156200001157600080fd5b5060405162004c2738038062004c278339810160408190526200003491620003b0565b733cc6cdda760b79bafa08df41ecfa224f810dceb66001838381818160009080519060200190620000679291906200023d565b5080516200007d9060019060208401906200023d565b50506006805460ff191690555060016007556200009a33620001eb565b50506daaeb6d7670e522a718067333cd4e3b15620001e15780156200012f57604051633e9f1edf60e11b81523060048201526001600160a01b03831660248201526daaeb6d7670e522a718067333cd4e90637d3e3dbe906044015b600060405180830381600087803b1580156200011057600080fd5b505af115801562000125573d6000803e3d6000fd5b50505050620001e1565b6001600160a01b03821615620001805760405163a0af290360e01b81523060048201526001600160a01b03831660248201526daaeb6d7670e522a718067333cd4e9063a0af290390604401620000f5565b604051632210724360e11b81523060048201526daaeb6d7670e522a718067333cd4e90634420e48690602401600060405180830381600087803b158015620001c757600080fd5b505af1158015620001dc573d6000803e3d6000fd5b505050505b5050505062000457565b600880546001600160a01b038381166001600160a01b0319831681179093556040519116919082907f8be0079c531659141344cd1fd0a4f28419497f9722a3daafe3b4186f6b6457e090600090a35050565b8280546200024b906200041a565b90600052602060002090601f0160209004810192826200026f5760008555620002ba565b82601f106200028a57805160ff1916838001178555620002ba565b82800160010185558215620002ba579182015b82811115620002ba5782518255916020019190600101906200029d565b50620002c8929150620002cc565b5090565b5b80821115620002c85760008155600101620002cd565b634e487b7160e01b600052604160045260246000fd5b600082601f8301126200030b57600080fd5b81516001600160401b0380821115620003285762000328620002e3565b604051601f8301601f19908116603f01168101908282118183101715620003535762000353620002e3565b816040528381526020925086838588010111156200037057600080fd5b600091505b8382101562000394578582018301518183018401529082019062000375565b83821115620003a65760008385830101525b9695505050505050565b60008060408385031215620003c457600080fd5b82516001600160401b0380821115620003dc57600080fd5b620003ea86838701620002f9565b935060208501519150808211156200040157600080fd5b506200041085828601620002f9565b9150509250929050565b600181811c908216806200042f57607f821691505b602082108114156200045157634e487b7160e01b600052602260045260246000fd5b50919050565b6147c080620004676000396000f3fe6080604052600436106102515760003560e01c80636352211e11610139578063a933024e116100b6578063e985e9c51161007a578063e985e9c51461072a578063f038ba7214610773578063f2fde38b14610786578063fc237452146107a6578063febfd6c3146107c6578063ffc27c0e146107e657600080fd5b8063a933024e1461067a578063ac4fb5f41461069a578063adfc7dae146106ca578063b88d4fde146106ea578063c87b56dd1461070a57600080fd5b80638d6cc56d116100fd5780638d6cc56d146105e75780638da5cb5b146106075780638f2839701461062557806395d89b4114610645578063a22cb4651461065a57600080fd5b80636352211e1461052f5780636e8a6d121461056557806370a0823114610585578063715018a6146105a5578063775bff9f146105ba57600080fd5b806341f43434116101d2578063575b57ea11610196578063575b57ea146104745780635c40f6f4146104945780635c975abb146104b45780635d6ffda7146104cc578063621a1f74146104df57806363184726146104ff57600080fd5b806341f43434146103e857806342842e0e1461040a578063452fa3d31461042a578063472f1e021461043f5780634e69d5601461045f57600080fd5b80631ca9741b116102195780631ca9741b1461032757806323b872dd146103475780632a55205a146103675780633b66b00a146103a65780633cf96af1146103ca57600080fd5b806301bc45c91461025657806301ffc9a71461029357806306fdde03146102c3578063081812fc146102e5578063095ea7b314610305575b600080fd5b34801561026257600080fd5b50600a54610276906001600160a01b031681565b6040516001600160a01b0390911681526020015b60405180910390f35b34801561029f57600080fd5b506102b36102ae366004613c33565b610806565b604051901515815260200161028a565b3480156102cf57600080fd5b506102d861084c565b60405161028a9190613ca8565b3480156102f157600080fd5b50610276610300366004613cbb565b6108de565b34801561031157600080fd5b50610325610320366004613cf9565b610905565b005b34801561033357600080fd5b50610325610342366004613d25565b610a20565b34801561035357600080fd5b50610325610362366004613d42565b610a9f565b34801561037357600080fd5b50610387610382366004613d83565b610aca565b604080516001600160a01b03909316835260208301919091520161028a565b3480156103b257600080fd5b506103bc600f5481565b60405190815260200161028a565b3480156103d657600080fd5b506010546001600160a01b0316610276565b3480156103f457600080fd5b506102766daaeb6d7670e522a718067333cd4e81565b34801561041657600080fd5b50610325610425366004613d42565b610ae2565b34801561043657600080fd5b506102d8610b07565b34801561044b57600080fd5b5061032561045a366004613d25565b610b95565b34801561046b57600080fd5b506102b3610c14565b34801561048057600080fd5b50600d54610276906001600160a01b031681565b3480156104a057600080fd5b506103256104af366004613dbe565b610c28565b3480156104c057600080fd5b5060065460ff166102b3565b6103bc6104da366004613eee565b610c92565b3480156104eb57600080fd5b506103bc6104fa366004613cbb565b6110cd565b34801561050b57600080fd5b50601254600160301b900462ffffff1660405162ffffff909116815260200161028a565b34801561053b57600080fd5b5061027661054a366004613cbb565b6000908152600960205260409020546001600160a01b031690565b34801561057157600080fd5b50610325610580366004613d25565b6111a8565b34801561059157600080fd5b506103bc6105a0366004613d25565b611228565b3480156105b157600080fd5b506103256112ae565b3480156105c657600080fd5b506105cf6112c2565b60405161028a9c9b9a99989796959493929190613fb4565b3480156105f357600080fd5b50610325610602366004613cbb565b611461565b34801561061357600080fd5b50600a546001600160a01b0316610276565b34801561063157600080fd5b50610325610640366004613d25565b6114c4565b34801561065157600080fd5b506102d8611543565b34801561066657600080fd5b50610325610675366004614068565b6115e1565b34801561068657600080fd5b506103256106953660046140a1565b6115f0565b3480156106a657600080fd5b506102b36106b5366004613d25565b601b6020526000908152604090205460ff1681565b3480156106d657600080fd5b50600b54610276906001600160a01b031681565b3480156106f657600080fd5b506103256107053660046140f1565b611850565b34801561071657600080fd5b506102d8610725366004613cbb565b61187d565b34801561073657600080fd5b506102b361074536600461415d565b6001600160a01b03918216600090815260056020908152604080832093909416825291909152205460ff1690565b6103bc610781366004613eee565b6119d1565b34801561079257600080fd5b506103256107a1366004613d25565b611e33565b3480156107b257600080fd5b506103256107c136600461425c565b611ea9565b3480156107d257600080fd5b506103256107e1366004613d25565b612184565b3480156107f257600080fd5b50600c54610276906001600160a01b031681565b60006001600160e01b031982166302734eab60e51b148061083757506001600160e01b0319821663152a902d60e11b145b80610846575061084682612203565b92915050565b6060600e805461085b90614404565b80601f016020809104026020016040519081016040528092919081815260200182805461088790614404565b80156108d45780601f106108a9576101008083540402835291602001916108d4565b820191906000526020600020905b8154815290600101906020018083116108b757829003601f168201915b5050505050905090565b60006108e982612253565b506000908152600460205260409020546001600160a01b031690565b6000610910826122b2565b9050806001600160a01b0316836001600160a01b031614156109835760405162461bcd60e51b815260206004820152602160248201527f4552433732313a20617070726f76616c20746f2063757272656e74206f776e656044820152603960f91b60648201526084015b60405180910390fd5b336001600160a01b038216148061099f575061099f8133610745565b610a115760405162461bcd60e51b815260206004820152603d60248201527f4552433732313a20617070726f76652063616c6c6572206973206e6f7420746f60448201527f6b656e206f776e6572206f7220617070726f76656420666f7220616c6c000000606482015260840161097a565b610a1b8383612312565b505050565b600a546001600160a01b031633148015610a4257506001600160a01b03811615155b6040518060400160405280600381526020016231303160e81b81525090610a7c5760405162461bcd60e51b815260040161097a9190613ca8565b50600c80546001600160a01b0319166001600160a01b0392909216919091179055565b826001600160a01b0381163314610ab957610ab933612380565b610ac4848484612439565b50505050565b600080610ad7848461246a565b915091509250929050565b826001600160a01b0381163314610afc57610afc33612380565b610ac4848484612604565b600e8054610b1490614404565b80601f0160208091040260200160405190810160405280929190818152602001828054610b4090614404565b8015610b8d5780601f10610b6257610100808354040283529160200191610b8d565b820191906000526020600020905b815481529060010190602001808311610b7057829003601f168201915b505050505081565b600a546001600160a01b031633148015610bb757506001600160a01b03811615155b6040518060400160405280600381526020016231303160e81b81525090610bf15760405162461bcd60e51b815260040161097a9190613ca8565b50600d80546001600160a01b0319166001600160a01b0392909216919091179055565b6000610c2260065460ff1690565b15905090565b600a546001600160a01b0316331480610c4b57506010546001600160a01b031633145b6040518060400160405280600381526020016231303160e81b81525090610c855760405162461bcd60e51b815260040161097a9190613ca8565b50610c8f8161261f565b50565b6000610c9c612635565b60185415610ce35760185460408051808201909152600381526206460760eb1b6020820152904211610ce15760405162461bcd60e51b815260040161097a9190613ca8565b505b60128054600160301b900462ffffff16906006610cff83614455565b82546101009290920a62ffffff818102199093169183160217909155601254630100000081048216600160301b90910490911611159050610d3f57600080fd5b60125462ffffff80821691610d6591600160481b8204811691600160301b900416614478565b62ffffff161415610dd657601054601154604051631122f8a960e11b815260048101919091526001600160a01b03909116908190632245f15290602401600060405180830381600087803b158015610dbc57600080fd5b505af1158015610dd0573d6000803e3d6000fd5b50505050505b601254601154600160301b90910462ffffff1690610df890620f42409061449f565b610e0291906144be565b9050610e0e838261268f565b600c54604051631da00d8560e01b8152600481018390526001600160a01b03909116906000908290631da00d85906024016020604051808303816000875af1158015610e5e573d6000803e3d6000fd5b505050506040513d601f19601f82011682018060405250810190610e8291906144d6565b9050610e8e83826126a9565b600b80546040805180820182529283526a4246535f4144445245535360a81b60208401525163bf40fac160e01b81526001600160a01b0390911691600091839163bf40fac191610ee19190600401613ca8565b602060405180830381865afa158015610efe573d6000803e3d6000fd5b505050506040513d601f19601f82011682018060405250810190610f2291906144ef565b905060005b865181101561102e5760405163188687dd60e21b815260048101879052600090610f9d90309063621a1f74906024015b602060405180830381865afa158015610f74573d6000803e3d6000fd5b505050506040513d601f19601f82011682018060405250810190610f9891906144d6565b612772565b9050826001600160a01b031663928a4b3e82848b8681518110610fc257610fc261450c565b60200260200101516040518463ffffffff1660e01b8152600401610fe893929190614522565b600060405180830381600087803b15801561100257600080fd5b505af1158015611016573d6000803e3d6000fd5b5050505050808061102690614557565b915050610f27565b506000826001600160a01b031663bf40fac1611049336127be565b6040518263ffffffff1660e01b81526004016110659190613ca8565b602060405180830381865afa158015611082573d6000803e3d6000fd5b505050506040513d601f19601f820116820180604052508101906110a691906144ef565b90506001600160a01b0381166110be576110be6127d4565b50505050506108466001600755565b6000818152600960205260408120546001600160a01b031615156040518060400160405280600381526020016232303960e81b815250906111215760405162461bcd60e51b815260040161097a9190613ca8565b50600082815260096020526040902054600160a01b900460a01b6001600160a01b03191661115157506000919050565b60008281526009602090815260409182902054915161118b92600160a01b900460a01b91016001600160a01b031991909116815260200190565b604051602081830303815290604052805190602001209050919050565b600a546001600160a01b03163314806111cb57506010546001600160a01b031633145b6040518060400160405280600381526020016231303160e81b815250906112055760405162461bcd60e51b815260040161097a9190613ca8565b50601580546001600160a01b0319166001600160a01b0392909216919091179055565b60006001600160a01b0382166112925760405162461bcd60e51b815260206004820152602960248201527f4552433732313a2061646472657373207a65726f206973206e6f7420612076616044820152683634b21037bbb732b960b91b606482015260840161097a565b506001600160a01b031660009081526003602052604090205490565b6112b6612db9565b6112c06000612e25565b565b60108054601154601254601380546001600160a01b0390941694929362ffffff8084169463010000008504821694600160301b8104831694600160481b9091049092169290919061131290614404565b80601f016020809104026020016040519081016040528092919081815260200182805461133e90614404565b801561138b5780601f106113605761010080835404028352916020019161138b565b820191906000526020600020905b81548152906001019060200180831161136e57829003601f168201915b5050505060048301546005840154600685018054949592946001600160a01b039092169350906113ba90614404565b80601f01602080910402602001604051908101604052809291908181526020018280546113e690614404565b80156114335780601f1061140857610100808354040283529160200191611433565b820191906000526020600020905b81548152906001019060200180831161141657829003601f168201915b5050604080518082019091526007860154815260088601546020820152600a9095015493949392508e915050565b600a546001600160a01b031633148061148457506010546001600160a01b031633145b6040518060400160405280600381526020016231303160e81b815250906114be5760405162461bcd60e51b815260040161097a9190613ca8565b50601455565b600a546001600160a01b0316331480156114e657506001600160a01b03811615155b6040518060400160405280600381526020016231303160e81b815250906115205760405162461bcd60e51b815260040161097a9190613ca8565b50600a80546001600160a01b0319166001600160a01b0392909216919091179055565b60606115dc60016003600e805461155990614404565b80601f016020809104026020016040519081016040528092919081815260200182805461158590614404565b80156115d25780601f106115a7576101008083540402835291602001916115d2565b820191906000526020600020905b8154815290600101906020018083116115b557829003601f168201915b5050505050612e77565b905090565b6115ec338383612f5e565b5050565b600d5460115460405163188687dd60e21b8152600481018690526001600160a01b039092169160009183916331c7280c91908890309063621a1f7490602401602060405180830381865afa15801561164c573d6000803e3d6000fd5b505050506040513d601f19601f8201168201806040525081019061167091906144d6565b6040516001600160e01b031960e086901b168152600481019390935260248301919091526044820152606401600060405180830381865afa1580156116b9573d6000803e3d6000fd5b505050506040513d6000823e601f3d908101601f191682016040526116e19190810190614572565b805160408051808201909152600381526232313160e81b60208201529192501561171e5760405162461bcd60e51b815260040161097a9190613ca8565b50600b80546040805180820182529283526a4246535f4144445245535360a81b60208401525163bf40fac160e01b81526001600160a01b0390911691600091839163bf40fac1916117729190600401613ca8565b602060405180830381865afa15801561178f573d6000803e3d6000fd5b505050506040513d601f19601f820116820180604052508101906117b391906144ef565b60405163188687dd60e21b8152600481018990529091506000906117e190309063621a1f7490602401610f57565b604051634945259f60e11b81529091506001600160a01b0383169063928a4b3e906118149084908b908b90600401614522565b600060405180830381600087803b15801561182e57600080fd5b505af1158015611842573d6000803e3d6000fd5b505050505050505050505050565b836001600160a01b038116331461186a5761186a33612380565b6118768585858561302d565b5050505050565b6000818152600960205260409020546060906001600160a01b031615156040518060400160405280600381526020016232303960e81b815250906118d45760405162461bcd60e51b815260040161097a9190613ca8565b50600d5460405163188687dd60e21b8152600481018490526001600160a01b0390911690600090309063621a1f7490602401602060405180830381865afa158015611923573d6000803e3d6000fd5b505050506040513d601f19601f8201168201806040525081019061194791906144d6565b601154604051639413930160e01b8152600481019190915260248101869052604481018290529091506001600160a01b03831690639413930190606401600060405180830381865afa1580156119a1573d6000803e3d6000fd5b505050506040513d6000823e601f3d908101601f191682016040526119c99190810190614572565b949350505050565b60006119db612635565b60128054600160481b900462ffffff169060096119f783614455565b82546101009290920a62ffffff8181021990931691831602179091556012548082169250611a369163010000008204811691600160481b900416614478565b62ffffff161115611a4657600080fd5b60125462ffffff80821691611a6c91600160481b8204811691600160301b900416614478565b62ffffff161415611add57601054601154604051631122f8a960e11b815260048101919091526001600160a01b03909116908190632245f15290602401600060405180830381600087803b158015611ac357600080fd5b505af1158015611ad7573d6000803e3d6000fd5b50505050505b601054336000908152601b60205260409020546001600160a01b039091169060ff1680611b8757506011546040516331a9108f60e11b815260048101919091526001600160a01b03821690636352211e90602401602060405180830381865afa158015611b4e573d6000803e3d6000fd5b505050506040513d601f19601f82011682018060405250810190611b7291906144ef565b6001600160a01b0316336001600160a01b0316145b611b9057600080fd5b336000908152601b602052604090205460ff168015611bb0575060185415155b15611bf45760185460408051808201909152600381526206460760eb1b6020820152904211611bf25760405162461bcd60e51b815260040161097a9190613ca8565b505b601254611c169062ffffff63010000008204811691600160481b900416614478565b62ffffff16620f4240601060010154611c2f919061449f565b611c3991906144be565b9150611c45848361268f565b600c54604051631da00d8560e01b8152600481018490526001600160a01b03909116906000908290631da00d85906024016020604051808303816000875af1158015611c95573d6000803e3d6000fd5b505050506040513d601f19601f82011682018060405250810190611cb991906144d6565b9050611cc584826126a9565b600b80546040805180820182529283526a4246535f4144445245535360a81b60208401525163bf40fac160e01b81526001600160a01b0390911691600091839163bf40fac191611d189190600401613ca8565b602060405180830381865afa158015611d35573d6000803e3d6000fd5b505050506040513d601f19601f82011682018060405250810190611d5991906144ef565b905060005b8751811015611e235760405163188687dd60e21b815260048101889052600090611d9290309063621a1f7490602401610f57565b9050826001600160a01b031663928a4b3e82848c8681518110611db757611db761450c565b60200260200101516040518463ffffffff1660e01b8152600401611ddd93929190614522565b600060405180830381600087803b158015611df757600080fd5b505af1158015611e0b573d6000803e3d6000fd5b50505050508080611e1b90614557565b915050611d5e565b5050505050506108466001600755565b611e3b612db9565b6001600160a01b038116611ea05760405162461bcd60e51b815260206004820152602660248201527f4f776e61626c653a206e6577206f776e657220697320746865207a65726f206160448201526564647265737360d01b606482015260840161097a565b610c8f81612e25565b600a5460408051808201909152600381526219181960e91b6020820152906001600160a01b031615611eee5760405162461bcd60e51b815260040161097a9190613ca8565b5060408051808201909152600381526203130360ec1b60208201526001600160a01b038616611f305760405162461bcd60e51b815260040161097a9190613ca8565b508551601080546001600160a01b039092166001600160a01b031990921691909117815560208088015160115560408801516012805460608b015160808c015160a08d015162ffffff908116600160481b026bffffff00000000000000000019928216600160301b02929092166bffffffffffff0000000000001993821663010000000265ffffffffffff19909516919096161792909217169290921791909117905560c08801518051899392611fec92601392910190613b2f565b5060e082015160048201556101008201516005820180546001600160a01b0319166001600160a01b03909216919091179055610120820151805161203a916006840191602090910190613b2f565b50610140820151805160078301556020908101516008830155610160830151805161206b9260098501920190613bb3565b506101809190910151600a91820155600b80546001600160a01b038088166001600160a01b031992831617909255825488831690821617909255600c8054868316908416179055600d80549185169190921617905561012086015180516120da91600e91602090910190613b2f565b5060005b8661016001515181101561214d576001601b600089610160015184815181106121095761210961450c565b6020908102919091018101516001600160a01b03168252810191909152604001600020805460ff19169115159190911790558061214581614557565b9150506120de565b50600a54612163906001600160a01b0316611e33565b80156121715761217161305f565b5050426017555050506101800151600f55565b600a546001600160a01b0316331480156121a657506001600160a01b03811615155b6040518060400160405280600381526020016231303160e81b815250906121e05760405162461bcd60e51b815260040161097a9190613ca8565b50600b80546001600160a01b0319166001600160a01b0392909216919091179055565b60006001600160e01b031982166380ac58cd60e01b148061223457506001600160e01b03198216635b5e139f60e01b145b8061084657506301ffc9a760e01b6001600160e01b0319831614610846565b6000818152600960205260409020546001600160a01b0316610c8f5760405162461bcd60e51b8152602060048201526018602482015277115490cdcc8c4e881a5b9d985b1a59081d1bdad95b88125160421b604482015260640161097a565b6000818152600260205260408120546001600160a01b0316806108465760405162461bcd60e51b8152602060048201526018602482015277115490cdcc8c4e881a5b9d985b1a59081d1bdad95b88125160421b604482015260640161097a565b600081815260046020526040902080546001600160a01b0319166001600160a01b0384169081179091558190612347826122b2565b6001600160a01b03167f8c5be1e5ebec7d5bd14f71427d1e84f3dd0314c0f7b2291e5b200ac8c7c3b92560405160405180910390a45050565b6daaeb6d7670e522a718067333cd4e3b15610c8f57604051633185c44d60e21b81523060048201526001600160a01b03821660248201526daaeb6d7670e522a718067333cd4e9063c617113490604401602060405180830381865afa1580156123ed573d6000803e3d6000fd5b505050506040513d601f19601f8201168201806040525081019061241191906145e9565b610c8f57604051633b79c77360e21b81526001600160a01b038216600482015260240161097a565b61244333826130b9565b61245f5760405162461bcd60e51b815260040161097a90614606565b610a1b838383613137565b600a54600f54600b546001600160a01b03928316926000929116156125e357600b546040805180820182526013815272524f59414c54595f46494e5f4144445245535360681b6020820152905163bf40fac160e01b81526001600160a01b0390921691600091839163bf40fac1916124e491600401613ca8565b602060405180830381865afa158015612501573d6000803e3d6000fd5b505050506040513d601f19601f8201168201806040525081019061252591906144ef565b90506001600160a01b0381161561253a578094505b826125e057604080518082018252601b81527f44454641554c545f524f59414c54595f46494e5f50455243454e54000000000060208201529051636d12dce160e01b81526001600160a01b03841691636d12dce19161259c9190600401613ca8565b602060405180830381865afa1580156125b9573d6000803e3d6000fd5b505050506040513d601f19601f820116820180604052508101906125dd91906144d6565b92505b50505b6127106125f0828661449f565b6125fa9190614653565b9150509250929050565b610a1b83838360405180602001604052806000815250611850565b801561262d57610c8f613171565b610c8f61305f565b600260075414156126885760405162461bcd60e51b815260206004820152601f60248201527f5265656e7472616e637947756172643a207265656e7472616e742063616c6c00604482015260640161097a565b6002600755565b6115ec8282604051806020016040528060008152506131aa565b600082815260096020908152604091829020548251808401909352600383526219181b60e91b91830191909152600160a01b900460a01b6001600160a01b031916156127085760405162461bcd60e51b815260040161097a9190613ca8565b5060408051808201909152600381526232303760e81b6020820152816127415760405162461bcd60e51b815260040161097a9190613ca8565b50600091825260096020526040909120805460a09290921c600160a01b026001600160a01b03909216919091179055565b606061277d826131dd565b61278a608084901b6131dd565b60405161060f60f31b6020820152602281019290925260428201526062016040516020818303038152906040529050919050565b60606108466001600160a01b038316601461338f565b601454806127df5750565b601054600b54604080518082018252601b81527f44454641554c545f524f59414c54595f46494e5f50455243454e54000000000060208201529051636d12dce160e01b81526001600160a01b0393841693909216916000918391636d12dce19161284b91600401613ca8565b602060405180830381865afa158015612868573d6000803e3d6000fd5b505050506040513d601f19601f8201168201806040525081019061288c91906144d6565b600a54600b549192506001600160a01b039081169116156129f85760408051808201825260158152744d494e545f4e46545f4f50455241544f525f46454560581b60208201529051636d12dce160e01b81526001600160a01b03851691636d12dce1916128fc9190600401613ca8565b602060405180830381865afa158015612919573d6000803e3d6000fd5b505050506040513d601f19601f8201168201806040525081019061293d91906144d6565b604080518082018252601f81527f4d494e545f4e46545f4f50455241544f525f54524541535552455f41444452006020820152905163bf40fac160e01b81529193506000916001600160a01b0386169163bf40fac1916129a09190600401613ca8565b602060405180830381865afa1580156129bd573d6000803e3d6000fd5b505050506040513d601f19601f820116820180604052508101906129e191906144ef565b90506001600160a01b038116156129f6578091505b505b6015546001600160a01b031680612b785785341015612a1657600080fd5b6011546040516331a9108f60e11b81526000916001600160a01b03881691636352211e91612a4a9160040190815260200190565b602060405180830381865afa158015612a67573d6000803e3d6000fd5b505050506040513d601f19601f82011682018060405250810190612a8b91906144ef565b6001600160a01b0316612710612aa1868a61449f565b612aab9190614653565b612ab59089614675565b604051600081818185875af1925050503d8060008114612af1576040519150601f19603f3d011682016040523d82523d6000602084013e612af6565b606091505b5050905080612b0457600080fd5b8315612b72576001600160a01b038316612710612b21868a61449f565b612b2b9190614653565b604051600081818185875af1925050503d8060008114612b67576040519150601f19603f3d011682016040523d82523d6000602084013e612b6c565b606091505b50909150505b50612db1565b6040516323b872dd60e01b81523360048201523060248201526044810187905281906001600160a01b038216906323b872dd906064016020604051808303816000875af1158015612bcd573d6000803e3d6000fd5b505050506040513d601f19601f82011682018060405250810190612bf191906145e9565b612bfa57600080fd5b6011546040516331a9108f60e11b815260048101919091526001600160a01b038281169163a9059cbb91891690636352211e90602401602060405180830381865afa158015612c4d573d6000803e3d6000fd5b505050506040513d601f19601f82011682018060405250810190612c7191906144ef565b612710612c7e888c61449f565b612c889190614653565b612c92908b614675565b6040516001600160e01b031960e085901b1681526001600160a01b03909216600483015260248201526044016020604051808303816000875af1158015612cdd573d6000803e3d6000fd5b505050506040513d601f19601f82011682018060405250810190612d0191906145e9565b612d0a57600080fd5b8315612daf576001600160a01b03811663a9059cbb84612710612d2d888c61449f565b612d379190614653565b6040516001600160e01b031960e085901b1681526001600160a01b03909216600483015260248201526044016020604051808303816000875af1158015612d82573d6000803e3d6000fd5b505050506040513d601f19601f82011682018060405250810190612da691906145e9565b612daf57600080fd5b505b505050505050565b33612dcc600a546001600160a01b031690565b6001600160a01b03161480612deb57506010546001600160a01b031633145b6040518060400160405280600381526020016203130360ec1b81525090610c8f5760405162461bcd60e51b815260040161097a9190613ca8565b600880546001600160a01b038381166001600160a01b0319831681179093556040519116919082907f8be0079c531659141344cd1fd0a4f28419497f9722a3daafe3b4186f6b6457e090600090a35050565b60606000612e858585614675565b612e909060016144be565b67ffffffffffffffff811115612ea857612ea8613ddb565b6040519080825280601f01601f191660200182016040528015612ed2576020820181803683370190505b50905060005b612ee28686614675565b8111612f5557836001612ef588846144be565b612eff9190614675565b81518110612f0f57612f0f61450c565b602001015160f81c60f81b828281518110612f2c57612f2c61450c565b60200101906001600160f81b031916908160001a90535080612f4d81614557565b915050612ed8565b50949350505050565b816001600160a01b0316836001600160a01b03161415612fc05760405162461bcd60e51b815260206004820152601960248201527f4552433732313a20617070726f766520746f2063616c6c657200000000000000604482015260640161097a565b6001600160a01b03838116600081815260056020908152604080832094871680845294825291829020805460ff191686151590811790915591519182527f17307eab39ab6107e8899845ad3d59bd9653f200f220920489ca2b5937696c31910160405180910390a3505050565b61303733836130b9565b6130535760405162461bcd60e51b815260040161097a90614606565b610ac484848484613532565b613067613565565b6006805460ff191660011790557f62e78cea01bee320cd4e420270b5ea74000d11b0c9f74754ebdbfc544b05a25861309c3390565b6040516001600160a01b03909116815260200160405180910390a1565b6000806130c5836122b2565b9050806001600160a01b0316846001600160a01b0316148061310c57506001600160a01b0380821660009081526005602090815260408083209388168352929052205460ff165b806119c95750836001600160a01b0316613125846108de565b6001600160a01b031614949350505050565b6131428383836135ab565b600090815260096020526040902080546001600160a01b0319166001600160a01b039290921691909117905550565b61317961371c565b6006805460ff191690557f5db9ee0a495bf2e6ff9c91a7834c1ba4fdd244a5e8aa4e537bd38aeae4b073aa3361309c565b6131b48383613765565b6131c1600084848461379d565b610a1b5760405162461bcd60e51b815260040161097a9061468c565b7aff00000000000000ff00000000000000ff00000000000000ff00006bffffffff0000000000000000604083901c90811663ffffffff60c01b84161760201c63ffffffff60601b919091166001600160e01b031984161717601081901c9182167eff00000000000000ff00000000000000ff00000000000000ff000000000000821617600890811c7bff00000000000000ff00000000000000ff00000000000000ff000000939093167fff00000000000000ff00000000000000ff00000000000000ff000000000000009290921691909117919091179081901c7e0f000f000f000f000f000f000f000f000f000f000f000f000f000f000f000f167f0f000f000f000f000f000f000f000f000f000f000f000f000f000f000f000f00600492831c16179061332b827f06060606060606060606060606060606060606060606060606060606060606066144be565b901c7f0f0f0f0f0f0f0f0f0f0f0f0f0f0f0f0f0f0f0f0f0f0f0f0f0f0f0f0f0f0f0f0f16600761335b919061449f565b613385827f30303030303030303030303030303030303030303030303030303030303030306144be565b61084691906144be565b6060600061339e83600261449f565b6133a99060026144be565b67ffffffffffffffff8111156133c1576133c1613ddb565b6040519080825280601f01601f1916602001820160405280156133eb576020820181803683370190505b509050600360fc1b816000815181106134065761340661450c565b60200101906001600160f81b031916908160001a905350600f60fb1b816001815181106134355761343561450c565b60200101906001600160f81b031916908160001a905350600061345984600261449f565b6134649060016144be565b90505b60018111156134dc576f181899199a1a9b1b9c1cb0b131b232b360811b85600f16601081106134985761349861450c565b1a60f81b8282815181106134ae576134ae61450c565b60200101906001600160f81b031916908160001a90535060049490941c936134d5816146de565b9050613467565b50831561352b5760405162461bcd60e51b815260206004820181905260248201527f537472696e67733a20686578206c656e67746820696e73756666696369656e74604482015260640161097a565b9392505050565b61353d848484613137565b6135498484848461379d565b610ac45760405162461bcd60e51b815260040161097a9061468c565b60065460ff16156112c05760405162461bcd60e51b815260206004820152601060248201526f14185d5cd8589b194e881c185d5cd95960821b604482015260640161097a565b826001600160a01b03166135be826122b2565b6001600160a01b0316146135e45760405162461bcd60e51b815260040161097a906146f5565b6001600160a01b0382166136465760405162461bcd60e51b8152602060048201526024808201527f4552433732313a207472616e7366657220746f20746865207a65726f206164646044820152637265737360e01b606482015260840161097a565b613653838383600161389b565b826001600160a01b0316613666826122b2565b6001600160a01b03161461368c5760405162461bcd60e51b815260040161097a906146f5565b600081815260046020908152604080832080546001600160a01b03199081169091556001600160a01b0387811680865260038552838620805460001901905590871680865283862080546001019055868652600290945282852080549092168417909155905184937fddf252ad1be2c89b69c2b068fc378daa952ba7f163c4a11628f55a4df523b3ef91a4505050565b60065460ff166112c05760405162461bcd60e51b815260206004820152601460248201527314185d5cd8589b194e881b9bdd081c185d5cd95960621b604482015260640161097a565b61376f828261390e565b600090815260096020526040902080546001600160a01b0319166001600160a01b0392909216919091179055565b60006001600160a01b0384163b1561389057604051630a85bd0160e11b81526001600160a01b0385169063150b7a02906137e190339089908890889060040161473a565b6020604051808303816000875af192505050801561381c575060408051601f3d908101601f191682019092526138199181019061476d565b60015b613876573d80801561384a576040519150601f19603f3d011682016040523d82523d6000602084013e61384f565b606091505b50805161386e5760405162461bcd60e51b815260040161097a9061468c565b805181602001fd5b6001600160e01b031916630a85bd0160e11b1490506119c9565b506001949350505050565b6138a784848484613aa7565b60065460ff1615610ac45760405162461bcd60e51b815260206004820152602b60248201527f4552433732315061757361626c653a20746f6b656e207472616e73666572207760448201526a1a1a5b19481c185d5cd95960aa1b606482015260840161097a565b6001600160a01b0382166139645760405162461bcd60e51b815260206004820181905260248201527f4552433732313a206d696e7420746f20746865207a65726f2061646472657373604482015260640161097a565b6000818152600960205260409020546001600160a01b0316156139c95760405162461bcd60e51b815260206004820152601c60248201527f4552433732313a20746f6b656e20616c7265616479206d696e74656400000000604482015260640161097a565b6139d760008383600161389b565b6000818152600960205260409020546001600160a01b031615613a3c5760405162461bcd60e51b815260206004820152601c60248201527f4552433732313a20746f6b656e20616c7265616479206d696e74656400000000604482015260640161097a565b6001600160a01b038216600081815260036020908152604080832080546001019055848352600290915280822080546001600160a01b0319168417905551839291907fddf252ad1be2c89b69c2b068fc378daa952ba7f163c4a11628f55a4df523b3ef908290a45050565b6001811115610ac4576001600160a01b03841615613aed576001600160a01b03841660009081526003602052604081208054839290613ae7908490614675565b90915550505b6001600160a01b03831615610ac4576001600160a01b03831660009081526003602052604081208054839290613b249084906144be565b909155505050505050565b828054613b3b90614404565b90600052602060002090601f016020900481019282613b5d5760008555613ba3565b82601f10613b7657805160ff1916838001178555613ba3565b82800160010185558215613ba3579182015b82811115613ba3578251825591602001919060010190613b88565b50613baf929150613c08565b5090565b828054828255906000526020600020908101928215613ba3579160200282015b82811115613ba357825182546001600160a01b0319166001600160a01b03909116178255602090920191600190910190613bd3565b5b80821115613baf5760008155600101613c09565b6001600160e01b031981168114610c8f57600080fd5b600060208284031215613c4557600080fd5b813561352b81613c1d565b60005b83811015613c6b578181015183820152602001613c53565b83811115610ac45750506000910152565b60008151808452613c94816020860160208601613c50565b601f01601f19169290920160200192915050565b60208152600061352b6020830184613c7c565b600060208284031215613ccd57600080fd5b5035919050565b6001600160a01b0381168114610c8f57600080fd5b8035613cf481613cd4565b919050565b60008060408385031215613d0c57600080fd5b8235613d1781613cd4565b946020939093013593505050565b600060208284031215613d3757600080fd5b813561352b81613cd4565b600080600060608486031215613d5757600080fd5b8335613d6281613cd4565b92506020840135613d7281613cd4565b929592945050506040919091013590565b60008060408385031215613d9657600080fd5b50508035926020909101359150565b8015158114610c8f57600080fd5b8035613cf481613da5565b600060208284031215613dd057600080fd5b813561352b81613da5565b634e487b7160e01b600052604160045260246000fd5b6040516101a0810167ffffffffffffffff81118282101715613e1557613e15613ddb565b60405290565b604051601f8201601f1916810167ffffffffffffffff81118282101715613e4457613e44613ddb565b604052919050565b600067ffffffffffffffff821115613e6657613e66613ddb565b5060051b60200190565b600067ffffffffffffffff821115613e8a57613e8a613ddb565b50601f01601f191660200190565b600082601f830112613ea957600080fd5b8135613ebc613eb782613e70565b613e1b565b818152846020838601011115613ed157600080fd5b816020850160208301376000918101602001919091529392505050565b60008060408385031215613f0157600080fd5b8235613f0c81613cd4565b915060208381013567ffffffffffffffff80821115613f2a57600080fd5b818601915086601f830112613f3e57600080fd5b8135613f4c613eb782613e4c565b81815260059190911b83018401908481019089831115613f6b57600080fd5b8585015b83811015613fa357803585811115613f875760008081fd5b613f958c89838a0101613e98565b845250918601918601613f6f565b508096505050505050509250929050565b6001600160a01b038d168152602081018c905262ffffff8b811660408301528a811660608301528981166080830152881660a08201526101a060c082018190526000906140038382018a613c7c565b90508760e08401526140216101008401886001600160a01b03169052565b8281036101208401526140348187613c7c565b8551610140850152602086015161016085015291506140509050565b826101808301529d9c50505050505050505050505050565b6000806040838503121561407b57600080fd5b823561408681613cd4565b9150602083013561409681613da5565b809150509250929050565b6000806000606084860312156140b657600080fd5b8335925060208401359150604084013567ffffffffffffffff8111156140db57600080fd5b6140e786828701613e98565b9150509250925092565b6000806000806080858703121561410757600080fd5b843561411281613cd4565b9350602085013561412281613cd4565b925060408501359150606085013567ffffffffffffffff81111561414557600080fd5b61415187828801613e98565b91505092959194509250565b6000806040838503121561417057600080fd5b823561417b81613cd4565b9150602083013561409681613cd4565b803562ffffff81168114613cf457600080fd5b6000604082840312156141b057600080fd5b6040516040810181811067ffffffffffffffff821117156141d3576141d3613ddb565b604052823581526020928301359281019290925250919050565b600082601f8301126141fe57600080fd5b8135602061420e613eb783613e4c565b82815260059290921b8401810191818101908684111561422d57600080fd5b8286015b8481101561425157803561424481613cd4565b8352918301918301614231565b509695505050505050565b60008060008060008060c0878903121561427557600080fd5b863567ffffffffffffffff8082111561428d57600080fd5b908801906101c0828b0312156142a257600080fd5b6142aa613df1565b6142b383613ce9565b8152602083013560208201526142cb6040840161418b565b60408201526142dc6060840161418b565b60608201526142ed6080840161418b565b60808201526142fe60a0840161418b565b60a082015260c08301358281111561431557600080fd5b6143218c828601613e98565b60c08301525060e083013560e082015261010061433f818501613ce9565b90820152610120838101358381111561435757600080fd5b6143638d828701613e98565b8284015250506101406143788c82860161419e565b90820152610180838101358381111561439057600080fd5b61439c8d8287016141ed565b610160840152506101a084013581830152508098505050506143c060208801613ce9565b94506143ce60408801613ce9565b93506143dc60608801613ce9565b92506143ea60808801613ce9565b91506143f860a08801613db3565b90509295509295509295565b600181811c9082168061441857607f821691505b6020821081141561443957634e487b7160e01b600052602260045260246000fd5b50919050565b634e487b7160e01b600052601160045260246000fd5b600062ffffff8083168181141561446e5761446e61443f565b6001019392505050565b600062ffffff8083168185168083038211156144965761449661443f565b01949350505050565b60008160001904831182151516156144b9576144b961443f565b500290565b600082198211156144d1576144d161443f565b500190565b6000602082840312156144e857600080fd5b5051919050565b60006020828403121561450157600080fd5b815161352b81613cd4565b634e487b7160e01b600052603260045260246000fd5b6060815260006145356060830186613c7c565b846020840152828103604084015261454d8185613c7c565b9695505050505050565b600060001982141561456b5761456b61443f565b5060010190565b60006020828403121561458457600080fd5b815167ffffffffffffffff81111561459b57600080fd5b8201601f810184136145ac57600080fd5b80516145ba613eb782613e70565b8181528560208385010111156145cf57600080fd5b6145e0826020830160208601613c50565b95945050505050565b6000602082840312156145fb57600080fd5b815161352b81613da5565b6020808252602d908201527f4552433732313a2063616c6c6572206973206e6f7420746f6b656e206f776e6560408201526c1c881bdc88185c1c1c9bdd9959609a1b606082015260800190565b60008261467057634e487b7160e01b600052601260045260246000fd5b500490565b6000828210156146875761468761443f565b500390565b60208082526032908201527f4552433732313a207472616e7366657220746f206e6f6e20455243373231526560408201527131b2b4bb32b91034b6b83632b6b2b73a32b960711b606082015260800190565b6000816146ed576146ed61443f565b506000190190565b60208082526025908201527f4552433732313a207472616e736665722066726f6d20696e636f72726563742060408201526437bbb732b960d91b606082015260800190565b6001600160a01b038581168252841660208201526040810183905260806060820181905260009061454d90830184613c7c565b60006020828403121561477f57600080fd5b815161352b81613c1d56fea2646970667358221220a083cf1a326b9f87a429f43cc6ee84e53bb666638108c90da779dc0d0251e8b664736f6c634300080c0033",
  "linkReferences": {},
  "deployedLinkReferences": {}
}