{
  "_format": "hh-sol-artifact-1",
  "contractName": "GenerativeNFT",
  "sourceName": "contracts/nfts/GenerativeNFT.sol",
  "abi": [
    {
      "inputs": [
        {
          "internalType": "string",
          "name": "name",
          "type": "string"
        },
        {
          "internalType": "string",
          "name": "symbol",
          "type": "string"
        }
      ],
      "stateMutability": "nonpayable",
      "type": "constructor"
    },
    {
      "anonymous": false,
      "inputs": [
        {
          "indexed": true,
          "internalType": "address",
          "name": "owner",
          "type": "address"
        },
        {
          "indexed": true,
          "internalType": "address",
          "name": "approved",
          "type": "address"
        },
        {
          "indexed": true,
          "internalType": "uint256",
          "name": "tokenId",
          "type": "uint256"
        }
      ],
      "name": "Approval",
      "type": "event"
    },
    {
      "anonymous": false,
      "inputs": [
        {
          "indexed": true,
          "internalType": "address",
          "name": "owner",
          "type": "address"
        },
        {
          "indexed": true,
          "internalType": "address",
          "name": "operator",
          "type": "address"
        },
        {
          "indexed": false,
          "internalType": "bool",
          "name": "approved",
          "type": "bool"
        }
      ],
      "name": "ApprovalForAll",
      "type": "event"
    },
    {
      "anonymous": false,
      "inputs": [
        {
          "indexed": true,
          "internalType": "address",
          "name": "previousOwner",
          "type": "address"
        },
        {
          "indexed": true,
          "internalType": "address",
          "name": "newOwner",
          "type": "address"
        }
      ],
      "name": "OwnershipTransferred",
      "type": "event"
    },
    {
      "anonymous": false,
      "inputs": [
        {
          "indexed": false,
          "internalType": "address",
          "name": "account",
          "type": "address"
        }
      ],
      "name": "Paused",
      "type": "event"
    },
    {
      "anonymous": false,
      "inputs": [
        {
          "indexed": true,
          "internalType": "address",
          "name": "from",
          "type": "address"
        },
        {
          "indexed": true,
          "internalType": "address",
          "name": "to",
          "type": "address"
        },
        {
          "indexed": true,
          "internalType": "uint256",
          "name": "tokenId",
          "type": "uint256"
        }
      ],
      "name": "Transfer",
      "type": "event"
    },
    {
      "anonymous": false,
      "inputs": [
        {
          "indexed": false,
          "internalType": "address",
          "name": "account",
          "type": "address"
        }
      ],
      "name": "Unpaused",
      "type": "event"
    },
    {
      "inputs": [],
      "name": "_admin",
      "outputs": [
        {
          "internalType": "address",
          "name": "",
          "type": "address"
        }
      ],
      "stateMutability": "view",
      "type": "function"
    },
    {
      "inputs": [],
      "name": "_paramsAddress",
      "outputs": [
        {
          "internalType": "address",
          "name": "",
          "type": "address"
        }
      ],
      "stateMutability": "view",
      "type": "function"
    },
    {
      "inputs": [],
      "name": "_project",
      "outputs": [
        {
          "internalType": "address",
          "name": "_projectAddr",
          "type": "address"
        },
        {
          "internalType": "uint256",
          "name": "_projectId",
          "type": "uint256"
        },
        {
          "internalType": "uint24",
          "name": "_maxSupply",
          "type": "uint24"
        },
        {
          "internalType": "uint24",
          "name": "_limit",
          "type": "uint24"
        },
        {
          "internalType": "uint24",
          "name": "_index",
          "type": "uint24"
        },
        {
          "internalType": "uint24",
          "name": "_indexReserve",
          "type": "uint24"
        },
        {
          "internalType": "string",
          "name": "_creator",
          "type": "string"
        },
        {
          "internalType": "address",
          "name": "_creatorAddr",
          "type": "address"
        },
        {
          "internalType": "uint256",
          "name": "_mintPrice",
          "type": "uint256"
        },
        {
          "internalType": "address",
          "name": "_mintPriceAddr",
          "type": "address"
        }
      ],
      "stateMutability": "view",
      "type": "function"
    },
    {
      "inputs": [],
      "name": "_projectDataContextAddr",
      "outputs": [
        {
          "internalType": "address",
          "name": "",
          "type": "address"
        }
      ],
      "stateMutability": "view",
      "type": "function"
    },
    {
      "inputs": [],
      "name": "_randomizer",
      "outputs": [
        {
          "internalType": "address",
          "name": "",
          "type": "address"
        }
      ],
      "stateMutability": "view",
      "type": "function"
    },
    {
      "inputs": [
        {
          "internalType": "address",
          "name": "to",
          "type": "address"
        },
        {
          "internalType": "uint256",
          "name": "tokenId",
          "type": "uint256"
        }
      ],
      "name": "approve",
      "outputs": [],
      "stateMutability": "nonpayable",
      "type": "function"
    },
    {
      "inputs": [
        {
          "internalType": "address",
          "name": "owner",
          "type": "address"
        }
      ],
      "name": "balanceOf",
      "outputs": [
        {
          "internalType": "uint256",
          "name": "",
          "type": "uint256"
        }
      ],
      "stateMutability": "view",
      "type": "function"
    },
    {
      "inputs": [
        {
          "internalType": "address",
          "name": "newAdm",
          "type": "address"
        }
      ],
      "name": "changeAdmin",
      "outputs": [],
      "stateMutability": "nonpayable",
      "type": "function"
    },
    {
      "inputs": [
        {
          "internalType": "address",
          "name": "newAddr",
          "type": "address"
        }
      ],
      "name": "changeDataContextAddr",
      "outputs": [],
      "stateMutability": "nonpayable",
      "type": "function"
    },
    {
      "inputs": [
        {
          "internalType": "address",
          "name": "newAddr",
          "type": "address"
        }
      ],
      "name": "changeParamAddr",
      "outputs": [],
      "stateMutability": "nonpayable",
      "type": "function"
    },
    {
      "inputs": [
        {
          "internalType": "address",
          "name": "newAddr",
          "type": "address"
        }
      ],
      "name": "changeRandomizerAddr",
      "outputs": [],
      "stateMutability": "nonpayable",
      "type": "function"
    },
    {
      "inputs": [
        {
          "internalType": "uint256",
          "name": "tokenId",
          "type": "uint256"
        }
      ],
      "name": "getApproved",
      "outputs": [
        {
          "internalType": "address",
          "name": "",
          "type": "address"
        }
      ],
      "stateMutability": "view",
      "type": "function"
    },
    {
      "inputs": [
        {
          "components": [
            {
              "internalType": "address",
              "name": "_projectAddr",
              "type": "address"
            },
            {
              "internalType": "uint256",
              "name": "_projectId",
              "type": "uint256"
            },
            {
              "internalType": "uint24",
              "name": "_maxSupply",
              "type": "uint24"
            },
            {
              "internalType": "uint24",
              "name": "_limit",
              "type": "uint24"
            },
            {
              "internalType": "uint24",
              "name": "_index",
              "type": "uint24"
            },
            {
              "internalType": "uint24",
              "name": "_indexReserve",
              "type": "uint24"
            },
            {
              "internalType": "string",
              "name": "_creator",
              "type": "string"
            },
            {
              "internalType": "address",
              "name": "_creatorAddr",
              "type": "address"
            },
            {
              "internalType": "uint256",
              "name": "_mintPrice",
              "type": "uint256"
            },
            {
              "internalType": "address",
              "name": "_mintPriceAddr",
              "type": "address"
            }
          ],
          "internalType": "struct NFTProject.ProjectMinting",
          "name": "project",
          "type": "tuple"
        },
        {
          "internalType": "address",
          "name": "admin",
          "type": "address"
        },
        {
          "internalType": "address",
          "name": "paramsAddr",
          "type": "address"
        },
        {
          "internalType": "address",
          "name": "randomizer",
          "type": "address"
        },
        {
          "internalType": "address",
          "name": "projectDataContextAddr",
          "type": "address"
        },
        {
          "internalType": "address[]",
          "name": "reserves",
          "type": "address[]"
        }
      ],
      "name": "init",
      "outputs": [],
      "stateMutability": "nonpayable",
      "type": "function"
    },
    {
      "inputs": [
        {
          "internalType": "address",
          "name": "owner",
          "type": "address"
        },
        {
          "internalType": "address",
          "name": "operator",
          "type": "address"
        }
      ],
      "name": "isApprovedForAll",
      "outputs": [
        {
          "internalType": "bool",
          "name": "",
          "type": "bool"
        }
      ],
      "stateMutability": "view",
      "type": "function"
    },
    {
      "inputs": [],
      "name": "mint",
      "outputs": [
        {
          "internalType": "uint256",
          "name": "tokenId",
          "type": "uint256"
        }
      ],
      "stateMutability": "nonpayable",
      "type": "function"
    },
    {
      "inputs": [],
      "name": "name",
      "outputs": [
        {
          "internalType": "string",
          "name": "",
          "type": "string"
        }
      ],
      "stateMutability": "view",
      "type": "function"
    },
    {
      "inputs": [],
      "name": "owner",
      "outputs": [
        {
          "internalType": "address",
          "name": "",
          "type": "address"
        }
      ],
      "stateMutability": "view",
      "type": "function"
    },
    {
      "inputs": [
        {
          "internalType": "uint256",
          "name": "tokenId",
          "type": "uint256"
        }
      ],
      "name": "ownerOf",
      "outputs": [
        {
          "internalType": "address",
          "name": "",
          "type": "address"
        }
      ],
      "stateMutability": "view",
      "type": "function"
    },
    {
      "inputs": [],
      "name": "pause",
      "outputs": [],
      "stateMutability": "nonpayable",
      "type": "function"
    },
    {
      "inputs": [],
      "name": "paused",
      "outputs": [
        {
          "internalType": "bool",
          "name": "",
          "type": "bool"
        }
      ],
      "stateMutability": "view",
      "type": "function"
    },
    {
      "inputs": [],
      "name": "renounceOwnership",
      "outputs": [],
      "stateMutability": "nonpayable",
      "type": "function"
    },
    {
      "inputs": [],
      "name": "reserveMint",
      "outputs": [
        {
          "internalType": "uint256",
          "name": "tokenId",
          "type": "uint256"
        }
      ],
      "stateMutability": "nonpayable",
      "type": "function"
    },
    {
      "inputs": [
        {
          "internalType": "uint256",
          "name": "",
          "type": "uint256"
        }
      ],
      "name": "royalties",
      "outputs": [
        {
          "internalType": "address",
          "name": "recipient",
          "type": "address"
        },
        {
          "internalType": "uint24",
          "name": "amount",
          "type": "uint24"
        },
        {
          "internalType": "bool",
          "name": "isValue",
          "type": "bool"
        }
      ],
      "stateMutability": "view",
      "type": "function"
    },
    {
      "inputs": [
        {
          "internalType": "uint256",
          "name": "_tokenId",
          "type": "uint256"
        },
        {
          "internalType": "uint256",
          "name": "_salePrice",
          "type": "uint256"
        }
      ],
      "name": "royaltyInfo",
      "outputs": [
        {
          "internalType": "address",
          "name": "receiver",
          "type": "address"
        },
        {
          "internalType": "uint256",
          "name": "royaltyAmount",
          "type": "uint256"
        }
      ],
      "stateMutability": "view",
      "type": "function"
    },
    {
      "inputs": [
        {
          "internalType": "address",
          "name": "from",
          "type": "address"
        },
        {
          "internalType": "address",
          "name": "to",
          "type": "address"
        },
        {
          "internalType": "uint256",
          "name": "tokenId",
          "type": "uint256"
        }
      ],
      "name": "safeTransferFrom",
      "outputs": [],
      "stateMutability": "nonpayable",
      "type": "function"
    },
    {
      "inputs": [
        {
          "internalType": "address",
          "name": "from",
          "type": "address"
        },
        {
          "internalType": "address",
          "name": "to",
          "type": "address"
        },
        {
          "internalType": "uint256",
          "name": "tokenId",
          "type": "uint256"
        },
        {
          "internalType": "bytes",
          "name": "data",
          "type": "bytes"
        }
      ],
      "name": "safeTransferFrom",
      "outputs": [],
      "stateMutability": "nonpayable",
      "type": "function"
    },
    {
      "inputs": [
        {
          "internalType": "address",
          "name": "operator",
          "type": "address"
        },
        {
          "internalType": "bool",
          "name": "approved",
          "type": "bool"
        }
      ],
      "name": "setApprovalForAll",
      "outputs": [],
      "stateMutability": "nonpayable",
      "type": "function"
    },
    {
      "inputs": [
        {
          "internalType": "uint256",
          "name": "_tokenId",
          "type": "uint256"
        },
        {
          "internalType": "address",
          "name": "_recipient",
          "type": "address"
        },
        {
          "internalType": "uint256",
          "name": "_value",
          "type": "uint256"
        }
      ],
      "name": "setTokenRoyalty",
      "outputs": [],
      "stateMutability": "nonpayable",
      "type": "function"
    },
    {
      "inputs": [
        {
          "internalType": "bytes4",
          "name": "interfaceId",
          "type": "bytes4"
        }
      ],
      "name": "supportsInterface",
      "outputs": [
        {
          "internalType": "bool",
          "name": "",
          "type": "bool"
        }
      ],
      "stateMutability": "view",
      "type": "function"
    },
    {
      "inputs": [],
      "name": "symbol",
      "outputs": [
        {
          "internalType": "string",
          "name": "",
          "type": "string"
        }
      ],
      "stateMutability": "view",
      "type": "function"
    },
    {
      "inputs": [
        {
          "internalType": "uint256",
          "name": "tokenId",
          "type": "uint256"
        }
      ],
      "name": "tokenGenerativeURI",
      "outputs": [
        {
          "internalType": "string",
          "name": "",
          "type": "string"
        }
      ],
      "stateMutability": "view",
      "type": "function"
    },
    {
      "inputs": [
        {
          "internalType": "uint256",
          "name": "_tokenId",
          "type": "uint256"
        }
      ],
      "name": "tokenIdToHash",
      "outputs": [
        {
          "internalType": "bytes32",
          "name": "",
          "type": "bytes32"
        }
      ],
      "stateMutability": "view",
      "type": "function"
    },
    {
      "inputs": [
        {
          "internalType": "uint256",
          "name": "tokenId",
          "type": "uint256"
        }
      ],
      "name": "tokenURI",
      "outputs": [
        {
          "internalType": "string",
          "name": "",
          "type": "string"
        }
      ],
      "stateMutability": "view",
      "type": "function"
    },
    {
      "inputs": [
        {
          "internalType": "address",
          "name": "from",
          "type": "address"
        },
        {
          "internalType": "address",
          "name": "to",
          "type": "address"
        },
        {
          "internalType": "uint256",
          "name": "tokenId",
          "type": "uint256"
        }
      ],
      "name": "transferFrom",
      "outputs": [],
      "stateMutability": "nonpayable",
      "type": "function"
    },
    {
      "inputs": [
        {
          "internalType": "address",
          "name": "newOwner",
          "type": "address"
        }
      ],
      "name": "transferOwnership",
      "outputs": [],
      "stateMutability": "nonpayable",
      "type": "function"
    },
    {
      "inputs": [],
      "name": "unpause",
      "outputs": [],
      "stateMutability": "nonpayable",
      "type": "function"
    }
  ],
  "bytecode": "0x60806040523480156200001157600080fd5b50604051620034f9380380620034f9833981016040819052620000349162000252565b81818181816000908051906020019062000050929190620000df565b50805162000066906001906020840190620000df565b50506006805460ff1916905550600160075562000083336200008d565b50505050620002f9565b600880546001600160a01b038381166001600160a01b0319831681179093556040519116919082907f8be0079c531659141344cd1fd0a4f28419497f9722a3daafe3b4186f6b6457e090600090a35050565b828054620000ed90620002bc565b90600052602060002090601f0160209004810192826200011157600085556200015c565b82601f106200012c57805160ff19168380011785556200015c565b828001600101855582156200015c579182015b828111156200015c5782518255916020019190600101906200013f565b506200016a9291506200016e565b5090565b5b808211156200016a57600081556001016200016f565b634e487b7160e01b600052604160045260246000fd5b600082601f830112620001ad57600080fd5b81516001600160401b0380821115620001ca57620001ca62000185565b604051601f8301601f19908116603f01168101908282118183101715620001f557620001f562000185565b816040528381526020925086838588010111156200021257600080fd5b600091505b8382101562000236578582018301518183018401529082019062000217565b83821115620002485760008385830101525b9695505050505050565b600080604083850312156200026657600080fd5b82516001600160401b03808211156200027e57600080fd5b6200028c868387016200019b565b93506020850151915080821115620002a357600080fd5b50620002b2858286016200019b565b9150509250929050565b600181811c90821680620002d157607f821691505b60208210811415620002f357634e487b7160e01b600052602260045260246000fd5b50919050565b6131f080620003096000396000f3fe608060405234801561001057600080fd5b506004361061021c5760003560e01c806370a0823111610125578063a22cb465116100ad578063dc51ab7e1161007c578063dc51ab7e146104fb578063e985e9c51461050e578063f2fde38b1461054a578063febfd6c31461055d578063ffc27c0e1461057057600080fd5b8063a22cb465146104af578063adfc7dae146104c2578063b88d4fde146104d5578063c87b56dd146104e857600080fd5b80638456cb59116100f45780638456cb59146104685780638da5cb5b146104705780638f2839701461048157806395d89b41146104945780639713c8071461049c57600080fd5b806370a08231146103c2578063715018a6146103d5578063775bff9f146103dd5780637f77f574146103fb57600080fd5b806323b872dd116101a8578063472f1e0211610177578063472f1e0214610355578063575b57ea146103685780635c975abb1461037b578063621a1f74146103865780636352211e1461039957600080fd5b806323b872dd146102f55780632a55205a146103085780633f4ba83a1461033a57806342842e0e1461034257600080fd5b8063095ea7b3116101ef578063095ea7b31461029c57806310da88c5146102b15780631249c58b146102c45780631ca9741b146102da57806321c8d676146102ed57600080fd5b806301bc45c91461022157806301ffc9a71461025157806306fdde0314610274578063081812fc14610289575b600080fd5b600a54610234906001600160a01b031681565b6040516001600160a01b0390911681526020015b60405180910390f35b61026461025f366004612876565b610583565b6040519015158152602001610248565b61027c6105d5565b60405161024891906128f2565b610234610297366004612905565b610667565b6102af6102aa366004612943565b61068e565b005b61027c6102bf366004612905565b6107a9565b6102cc6108a7565b604051908152602001610248565b6102af6102e836600461296f565b610a9b565b6102cc610b2c565b6102af61030336600461298c565b610df6565b61031b6103163660046129cd565b610e27565b604080516001600160a01b039093168352602083019190915201610248565b6102af610e3f565b6102af61035036600461298c565b610e90565b6102af61036336600461296f565b610eab565b600d54610234906001600160a01b031681565b60065460ff16610264565b6102cc610394366004612905565b610f3d565b6102346103a7366004612905565b6000908152600960205260409020546001600160a01b031690565b6102cc6103d036600461296f565b610fc3565b6102af611049565b6103e561105b565b6040516102489a999897969594939291906129ef565b61043d610409366004612905565b600e602052600090815260409020546001600160a01b03811690600160a01b810462ffffff1690600160b81b900460ff1683565b604080516001600160a01b03909416845262ffffff9092166020840152151590820152606001610248565b6102af61114d565b600a546001600160a01b0316610234565b6102af61048f36600461296f565b61119c565b61027c61122e565b6102af6104aa366004612a66565b61123d565b6102af6104bd366004612a9b565b61130b565b600b54610234906001600160a01b031681565b6102af6104e3366004612bab565b61131a565b61027c6104f6366004612905565b611352565b6102af610509366004612ce7565b611407565b61026461051c366004612e48565b6001600160a01b03918216600090815260056020908152604080832093909416825291909152205460ff1690565b6102af61055836600461296f565b61164d565b6102af61056b36600461296f565b6116c3565b600c54610234906001600160a01b031681565b60006001600160e01b031982166380ac58cd60e01b14806105b457506001600160e01b03198216635b5e139f60e01b145b806105cf57506301ffc9a760e01b6001600160e01b03198316145b92915050565b6060600080546105e490612e76565b80601f016020809104026020016040519081016040528092919081815260200182805461061090612e76565b801561065d5780601f106106325761010080835404028352916020019161065d565b820191906000526020600020905b81548152906001019060200180831161064057829003601f168201915b5050505050905090565b600061067282611755565b506000908152600460205260409020546001600160a01b031690565b6000610699826117b4565b9050806001600160a01b0316836001600160a01b0316141561070c5760405162461bcd60e51b815260206004820152602160248201527f4552433732313a20617070726f76616c20746f2063757272656e74206f776e656044820152603960f91b60648201526084015b60405180910390fd5b336001600160a01b03821614806107285750610728813361051c565b61079a5760405162461bcd60e51b815260206004820152603d60248201527f4552433732313a20617070726f76652063616c6c6572206973206e6f7420746f60448201527f6b656e206f776e6572206f7220617070726f76656420666f7220616c6c0000006064820152608401610703565b6107a48383611814565b505050565b600d5460405163188687dd60e21b8152600481018390526060916001600160a01b031690600090309063621a1f7490602401602060405180830381865afa1580156107f8573d6000803e3d6000fd5b505050506040513d601f19601f8201168201806040525081019061081c9190612eb1565b601054604051639413930160e01b8152600481019190915260248101869052604481018290529091506001600160a01b038316906394139301906064015b600060405180830381865afa158015610877573d6000803e3d6000fd5b505050506040513d6000823e601f3d908101601f1916820160405261089f9190810190612eca565b949350505050565b60118054600091600160301b90910462ffffff169060066108c783612f57565b82546101009290920a62ffffff818102199093169183160217909155601154630100000081048216600160301b9091049091161115905061090757600080fd5b60115462ffffff8082169161092d91600160481b8204811691600160301b900416612f7a565b62ffffff16141561099e57600f54601054604051631122f8a960e11b815260048101919091526001600160a01b03909116908190632245f15290602401600060405180830381600087803b15801561098457600080fd5b505af1158015610998573d6000803e3d6000fd5b50505050505b601154601054600160301b90910462ffffff16906109bf90620f4240612fa1565b6109c99190612fc0565b90506109d53382611882565b600c54604051631da00d8560e01b8152600481018390526001600160a01b03909116906000908290631da00d85906024016020604051808303816000875af1158015610a25573d6000803e3d6000fd5b505050506040513d601f19601f82011682018060405250810190610a499190612eb1565b9050610a55838261189c565b610a5d611965565b60408051338152602081018590527f0f6798a560793a54c3bcfe86a93cde1e73087d944c0ea20544137d4121396885910160405180910390a1505090565b600a546001600160a01b031633148015610abd57506001600160a01b03811615155b6040518060400160405280600381526020016231303160e81b81525090610af75760405162461bcd60e51b815260040161070391906128f2565b50600c546001600160a01b03828116911614610b2957600c80546001600160a01b0319166001600160a01b0383161790555b50565b60118054600091600160481b90910462ffffff16906009610b4c83612f57565b82546101009290920a62ffffff8181021990931691831602179091556011548082169250610b8b9163010000008204811691600160481b900416612f7a565b62ffffff161115610b9b57600080fd5b60115462ffffff80821691610bc191600160481b8204811691600160301b900416612f7a565b62ffffff161415610c3257600f54601054604051631122f8a960e11b815260048101919091526001600160a01b03909116908190632245f15290602401600060405180830381600087803b158015610c1857600080fd5b505af1158015610c2c573d6000803e3d6000fd5b50505050505b600f54336000908152601660205260409020546001600160a01b039091169060ff161580610cdd57506010546040516331a9108f60e11b815260048101919091526001600160a01b03821690636352211e90602401602060405180830381865afa158015610ca4573d6000803e3d6000fd5b505050506040513d601f19601f82011682018060405250810190610cc89190612fd8565b6001600160a01b0316336001600160a01b0316145b610ce657600080fd5b601154610d089062ffffff63010000008204811691600160481b900416612f7a565b62ffffff16600f60010154620f4240610d219190612fa1565b610d2b9190612fc0565b9150610d373383611882565b600c54604051631da00d8560e01b8152600481018490526001600160a01b03909116906000908290631da00d85906024016020604051808303816000875af1158015610d87573d6000803e3d6000fd5b505050506040513d601f19601f82011682018060405250810190610dab9190612eb1565b9050610db7848261189c565b60408051338152602081018690527f0f6798a560793a54c3bcfe86a93cde1e73087d944c0ea20544137d4121396885910160405180910390a150505090565b610e003382611ddd565b610e1c5760405162461bcd60e51b815260040161070390612ff5565b6107a4838383611e5b565b600080610e348484611e95565b915091509250929050565b600a5460408051808201909152600381526231303160e81b6020820152906001600160a01b03163314610e855760405162461bcd60e51b815260040161070391906128f2565b50610e8e611f31565b565b6107a48383836040518060200160405280600081525061131a565b600a546001600160a01b031633148015610ecd57506001600160a01b03811615155b6040518060400160405280600381526020016231303160e81b81525090610f075760405162461bcd60e51b815260040161070391906128f2565b50600d546001600160a01b03828116911614610b2957600d80546001600160a01b0383166001600160a01b031990911617905550565b600081815260096020526040812054600160a01b900460a01b6001600160a01b031916610f6c57506000919050565b600082815260096020908152604091829020549151610fa692600160a01b900460a01b91016001600160a01b031991909116815260200190565b604051602081830303815290604052805190602001209050919050565b60006001600160a01b03821661102d5760405162461bcd60e51b815260206004820152602960248201527f4552433732313a2061646472657373207a65726f206973206e6f7420612076616044820152683634b21037bbb732b960b91b6064820152608401610703565b506001600160a01b031660009081526003602052604090205490565b611051611f83565b610e8e6000612001565b600f8054601054601154601280546001600160a01b0390941694929362ffffff8084169463010000008504821694600160301b8104831694600160481b909104909216929091906110ab90612e76565b80601f01602080910402602001604051908101604052809291908181526020018280546110d790612e76565b80156111245780601f106110f957610100808354040283529160200191611124565b820191906000526020600020905b81548152906001019060200180831161110757829003601f168201915b505050506004830154600584015460069094015492936001600160a01b0391821693909250168a565b600a5460408051808201909152600381526231303160e81b6020820152906001600160a01b031633146111935760405162461bcd60e51b815260040161070391906128f2565b50610e8e612053565b600a546001600160a01b0316331480156111be57506001600160a01b03811615155b6040518060400160405280600381526020016231303160e81b815250906111f85760405162461bcd60e51b815260040161070391906128f2565b50600a546001600160a01b03828116911614610b2957600a80546001600160a01b0383166001600160a01b031990911617905550565b6060600180546105e490612e76565b600a546001600160a01b0316331461125457600080fd5b60408051808201909152600381526232303960e81b60208201526127108211156112915760405162461bcd60e51b815260040161070391906128f2565b50604080516060810182526001600160a01b03938416815262ffffff928316602080830191825260018385019081526000978852600e90915292909520905181549551925194166001600160b81b031990951694909417600160a01b91909216021760ff60b81b1916600160b81b91151591909102179055565b611316338383612090565b5050565b6113243383611ddd565b6113405760405162461bcd60e51b815260040161070390612ff5565b61134c8484848461215f565b50505050565b600d5460405163188687dd60e21b8152600481018390526060916001600160a01b031690600090309063621a1f7490602401602060405180830381865afa1580156113a1573d6000803e3d6000fd5b505050506040513d601f19601f820116820180604052508101906113c59190612eb1565b6010546040516308dd54e960e31b8152600481019190915260248101869052604481018290529091506001600160a01b038316906346eaa7489060640161085a565b600a5460408051808201909152600381526219181960e91b6020820152906001600160a01b03161561144c5760405162461bcd60e51b815260040161070391906128f2565b5060408051808201909152600381526203130360ec1b60208201526001600160a01b03861661148e5760405162461bcd60e51b815260040161070391906128f2565b508551600f80546001600160a01b039092166001600160a01b031990921691909117815560208088015160105560408801516011805460608b015160808c015160a08d015162ffffff908116600160481b026bffffff00000000000000000019928216600160301b02929092166bffffffffffff0000000000001993821663010000000265ffffffffffff19909516919096161792909217169290921791909117905560c0880151805189939261154a926012929101906127c7565b5060e08201516004820180546001600160a01b03199081166001600160a01b039384161790915561010084015160058401556101209093015160069092018054841692821692909217909155600b80548316878316179055600a80548316888316179055600c80548316868316179055600d805490921690841617905560005b815181101561162f576000601660008484815181106115eb576115eb613042565b6020908102919091018101516001600160a01b03168252810191909152604001600020805460ff19169115159190911790558061162781613058565b9150506115ca565b50600a54611645906001600160a01b031661164d565b505050505050565b611655611f83565b6001600160a01b0381166116ba5760405162461bcd60e51b815260206004820152602660248201527f4f776e61626c653a206e6577206f776e657220697320746865207a65726f206160448201526564647265737360d01b6064820152608401610703565b610b2981612001565b600a546001600160a01b0316331480156116e557506001600160a01b03811615155b6040518060400160405280600381526020016231303160e81b8152509061171f5760405162461bcd60e51b815260040161070391906128f2565b50600b546001600160a01b03828116911614610b2957600b80546001600160a01b0383166001600160a01b031990911617905550565b6000818152600960205260409020546001600160a01b0316610b295760405162461bcd60e51b8152602060048201526018602482015277115490cdcc8c4e881a5b9d985b1a59081d1bdad95b88125160421b6044820152606401610703565b6000818152600260205260408120546001600160a01b0316806105cf5760405162461bcd60e51b8152602060048201526018602482015277115490cdcc8c4e881a5b9d985b1a59081d1bdad95b88125160421b6044820152606401610703565b600081815260046020526040902080546001600160a01b0319166001600160a01b0384169081179091558190611849826117b4565b6001600160a01b03167f8c5be1e5ebec7d5bd14f71427d1e84f3dd0314c0f7b2291e5b200ac8c7c3b92560405160405180910390a45050565b611316828260405180602001604052806000815250612192565b600082815260096020908152604091829020548251808401909352600383526203231360ec1b91830191909152600160a01b900460a01b6001600160a01b031916156118fb5760405162461bcd60e51b815260040161070391906128f2565b5060408051808201909152600381526232313160e81b6020820152816119345760405162461bcd60e51b815260040161070391906128f2565b50600091825260096020526040909120805460a09290921c600160a01b026001600160a01b03909216919091179055565b601454806119705750565b600f54600b546000916001600160a01b0390811691166101f48115611a285760408051808201825260158152744d494e545f4e46545f4f50455241544f525f46454560581b60208201529051636d12dce160e01b81526001600160a01b03841691636d12dce1916119e491906004016128f2565b602060405180830381865afa158015611a01573d6000803e3d6000fd5b505050506040513d601f19601f82011682018060405250810190611a259190612eb1565b90505b6001600160a01b038416611b9f5784341015611a4357600080fd5b6010546040516331a9108f60e11b81526000916001600160a01b03861691636352211e91611a779160040190815260200190565b602060405180830381865afa158015611a94573d6000803e3d6000fd5b505050506040513d601f19601f82011682018060405250810190611ab89190612fd8565b6001600160a01b0316612710611ace8489612fa1565b611ad89190613073565b611ae29088613095565b604051600081818185875af1925050503d8060008114611b1e576040519150601f19603f3d011682016040523d82523d6000602084013e611b23565b606091505b5050905080611b3157600080fd5b600a546001600160a01b0316612710611b4a8489612fa1565b611b549190613073565b604051600081818185875af1925050503d8060008114611b90576040519150601f19603f3d011682016040523d82523d6000602084013e611b95565b606091505b50611dd692505050565b6040516323b872dd60e01b81523360048201523060248201526044810186905284906001600160a01b038216906323b872dd906064016020604051808303816000875af1158015611bf4573d6000803e3d6000fd5b505050506040513d601f19601f82011682018060405250810190611c1891906130ac565b611c2157600080fd5b6010546040516331a9108f60e11b815260048101919091526001600160a01b038281169163a9059cbb91871690636352211e90602401602060405180830381865afa158015611c74573d6000803e3d6000fd5b505050506040513d601f19601f82011682018060405250810190611c989190612fd8565b612710611ca5868b612fa1565b611caf9190613073565b611cb9908a613095565b6040516001600160e01b031960e085901b1681526001600160a01b03909216600483015260248201526044016020604051808303816000875af1158015611d04573d6000803e3d6000fd5b505050506040513d601f19601f82011682018060405250810190611d2891906130ac565b611d3157600080fd5b600a546001600160a01b038083169163a9059cbb9116612710611d54868b612fa1565b611d5e9190613073565b6040516001600160e01b031960e085901b1681526001600160a01b03909216600483015260248201526044016020604051808303816000875af1158015611da9573d6000803e3d6000fd5b505050506040513d601f19601f82011682018060405250810190611dcd91906130ac565b61164557600080fd5b5050505050565b600080611de9836117b4565b9050806001600160a01b0316846001600160a01b03161480611e3057506001600160a01b0380821660009081526005602090815260408083209388168352929052205460ff165b8061089f5750836001600160a01b0316611e4984610667565b6001600160a01b031614949350505050565b611e668383836121c5565b600090815260096020526040902080546001600160a01b0319166001600160a01b039290921691909117905550565b6000828152600e60209081526040808320815160608101835290546001600160a01b0381168252600160a01b810462ffffff1693820193909352600160b81b90920460ff1615801591830191909152829190611f19578051602082015190935061271090611f089062ffffff1686612fa1565b611f129190613073565b9150611f29565b611f238585612336565b90935091505b509250929050565b611f3961236e565b6006805460ff191690557f5db9ee0a495bf2e6ff9c91a7834c1ba4fdd244a5e8aa4e537bd38aeae4b073aa335b6040516001600160a01b03909116815260200160405180910390a1565b33611f96600a546001600160a01b031690565b6001600160a01b03161480611fb55750600f546001600160a01b031633145b610e8e5760405162461bcd60e51b815260206004820181905260248201527f4f776e61626c653a2063616c6c6572206973206e6f7420746865206f776e65726044820152606401610703565b600880546001600160a01b038381166001600160a01b0319831681179093556040519116919082907f8be0079c531659141344cd1fd0a4f28419497f9722a3daafe3b4186f6b6457e090600090a35050565b61205b6123b7565b6006805460ff191660011790557f62e78cea01bee320cd4e420270b5ea74000d11b0c9f74754ebdbfc544b05a258611f663390565b816001600160a01b0316836001600160a01b031614156120f25760405162461bcd60e51b815260206004820152601960248201527f4552433732313a20617070726f766520746f2063616c6c6572000000000000006044820152606401610703565b6001600160a01b03838116600081815260056020908152604080832094871680845294825291829020805460ff191686151590811790915591519182527f17307eab39ab6107e8899845ad3d59bd9653f200f220920489ca2b5937696c31910160405180910390a3505050565b61216a848484611e5b565b612176848484846123fd565b61134c5760405162461bcd60e51b8152600401610703906130c9565b61219c83836124fb565b6121a960008484846123fd565b6107a45760405162461bcd60e51b8152600401610703906130c9565b826001600160a01b03166121d8826117b4565b6001600160a01b0316146121fe5760405162461bcd60e51b81526004016107039061311b565b6001600160a01b0382166122605760405162461bcd60e51b8152602060048201526024808201527f4552433732313a207472616e7366657220746f20746865207a65726f206164646044820152637265737360e01b6064820152608401610703565b61226d8383836001612533565b826001600160a01b0316612280826117b4565b6001600160a01b0316146122a65760405162461bcd60e51b81526004016107039061311b565b600081815260046020908152604080832080546001600160a01b03199081169091556001600160a01b0387811680865260038552838620805460001901905590871680865283862080546001019055868652600290945282852080549092168417909155905184937fddf252ad1be2c89b69c2b068fc378daa952ba7f163c4a11628f55a4df523b3ef91a4505050565b600a5460009081906001600160a01b031681612710612357866101f4612fa1565b6123619190613073565b9196919550909350505050565b60065460ff16610e8e5760405162461bcd60e51b815260206004820152601460248201527314185d5cd8589b194e881b9bdd081c185d5cd95960621b6044820152606401610703565b60065460ff1615610e8e5760405162461bcd60e51b815260206004820152601060248201526f14185d5cd8589b194e881c185d5cd95960821b6044820152606401610703565b60006001600160a01b0384163b156124f057604051630a85bd0160e11b81526001600160a01b0385169063150b7a0290612441903390899088908890600401613160565b6020604051808303816000875af192505050801561247c575060408051601f3d908101601f191682019092526124799181019061319d565b60015b6124d6573d8080156124aa576040519150601f19603f3d011682016040523d82523d6000602084013e6124af565b606091505b5080516124ce5760405162461bcd60e51b8152600401610703906130c9565b805181602001fd5b6001600160e01b031916630a85bd0160e11b14905061089f565b506001949350505050565b61250582826125a6565b600090815260096020526040902080546001600160a01b0319166001600160a01b0392909216919091179055565b61253f8484848461273f565b60065460ff161561134c5760405162461bcd60e51b815260206004820152602b60248201527f4552433732315061757361626c653a20746f6b656e207472616e73666572207760448201526a1a1a5b19481c185d5cd95960aa1b6064820152608401610703565b6001600160a01b0382166125fc5760405162461bcd60e51b815260206004820181905260248201527f4552433732313a206d696e7420746f20746865207a65726f20616464726573736044820152606401610703565b6000818152600960205260409020546001600160a01b0316156126615760405162461bcd60e51b815260206004820152601c60248201527f4552433732313a20746f6b656e20616c7265616479206d696e746564000000006044820152606401610703565b61266f600083836001612533565b6000818152600960205260409020546001600160a01b0316156126d45760405162461bcd60e51b815260206004820152601c60248201527f4552433732313a20746f6b656e20616c7265616479206d696e746564000000006044820152606401610703565b6001600160a01b038216600081815260036020908152604080832080546001019055848352600290915280822080546001600160a01b0319168417905551839291907fddf252ad1be2c89b69c2b068fc378daa952ba7f163c4a11628f55a4df523b3ef908290a45050565b600181111561134c576001600160a01b03841615612785576001600160a01b0384166000908152600360205260408120805483929061277f908490613095565b90915550505b6001600160a01b0383161561134c576001600160a01b038316600090815260036020526040812080548392906127bc908490612fc0565b909155505050505050565b8280546127d390612e76565b90600052602060002090601f0160209004810192826127f5576000855561283b565b82601f1061280e57805160ff191683800117855561283b565b8280016001018555821561283b579182015b8281111561283b578251825591602001919060010190612820565b5061284792915061284b565b5090565b5b80821115612847576000815560010161284c565b6001600160e01b031981168114610b2957600080fd5b60006020828403121561288857600080fd5b813561289381612860565b9392505050565b60005b838110156128b557818101518382015260200161289d565b8381111561134c5750506000910152565b600081518084526128de81602086016020860161289a565b601f01601f19169290920160200192915050565b60208152600061289360208301846128c6565b60006020828403121561291757600080fd5b5035919050565b6001600160a01b0381168114610b2957600080fd5b803561293e8161291e565b919050565b6000806040838503121561295657600080fd5b82356129618161291e565b946020939093013593505050565b60006020828403121561298157600080fd5b81356128938161291e565b6000806000606084860312156129a157600080fd5b83356129ac8161291e565b925060208401356129bc8161291e565b929592945050506040919091013590565b600080604083850312156129e057600080fd5b50508035926020909101359150565b6001600160a01b038b81168252602082018b905262ffffff8a8116604084015289811660608401528881166080840152871660a083015261014060c08301819052600091612a3f848301896128c6565b96811660e08501526101008401959095525050911661012090910152979650505050505050565b600080600060608486031215612a7b57600080fd5b8335925060208401356129bc8161291e565b8015158114610b2957600080fd5b60008060408385031215612aae57600080fd5b8235612ab98161291e565b91506020830135612ac981612a8d565b809150509250929050565b634e487b7160e01b600052604160045260246000fd5b604051610140810167ffffffffffffffff81118282101715612b0e57612b0e612ad4565b60405290565b604051601f8201601f1916810167ffffffffffffffff81118282101715612b3d57612b3d612ad4565b604052919050565b600067ffffffffffffffff821115612b5f57612b5f612ad4565b50601f01601f191660200190565b6000612b80612b7b84612b45565b612b14565b9050828152838383011115612b9457600080fd5b828260208301376000602084830101529392505050565b60008060008060808587031215612bc157600080fd5b8435612bcc8161291e565b93506020850135612bdc8161291e565b925060408501359150606085013567ffffffffffffffff811115612bff57600080fd5b8501601f81018713612c1057600080fd5b612c1f87823560208401612b6d565b91505092959194509250565b803562ffffff8116811461293e57600080fd5b600082601f830112612c4f57600080fd5b61289383833560208501612b6d565b600082601f830112612c6f57600080fd5b8135602067ffffffffffffffff821115612c8b57612c8b612ad4565b8160051b612c9a828201612b14565b9283528481018201928281019087851115612cb457600080fd5b83870192505b84831015612cdc578235612ccd8161291e565b82529183019190830190612cba565b979650505050505050565b60008060008060008060c08789031215612d0057600080fd5b863567ffffffffffffffff80821115612d1857600080fd5b90880190610140828b031215612d2d57600080fd5b612d35612aea565b612d3e83612933565b815260208301356020820152612d5660408401612c2b565b6040820152612d6760608401612c2b565b6060820152612d7860808401612c2b565b6080820152612d8960a08401612c2b565b60a082015260c083013582811115612da057600080fd5b612dac8c828601612c3e565b60c083015250612dbe60e08401612933565b60e08201526101008381013590820152610120612ddc818501612933565b908201529750612dee60208a01612933565b9650612dfc60408a01612933565b9550612e0a60608a01612933565b9450612e1860808a01612933565b935060a0890135915080821115612e2e57600080fd5b50612e3b89828a01612c5e565b9150509295509295509295565b60008060408385031215612e5b57600080fd5b8235612e668161291e565b91506020830135612ac98161291e565b600181811c90821680612e8a57607f821691505b60208210811415612eab57634e487b7160e01b600052602260045260246000fd5b50919050565b600060208284031215612ec357600080fd5b5051919050565b600060208284031215612edc57600080fd5b815167ffffffffffffffff811115612ef357600080fd5b8201601f81018413612f0457600080fd5b8051612f12612b7b82612b45565b818152856020838501011115612f2757600080fd5b612f3882602083016020860161289a565b95945050505050565b634e487b7160e01b600052601160045260246000fd5b600062ffffff80831681811415612f7057612f70612f41565b6001019392505050565b600062ffffff808316818516808303821115612f9857612f98612f41565b01949350505050565b6000816000190483118215151615612fbb57612fbb612f41565b500290565b60008219821115612fd357612fd3612f41565b500190565b600060208284031215612fea57600080fd5b81516128938161291e565b6020808252602d908201527f4552433732313a2063616c6c6572206973206e6f7420746f6b656e206f776e6560408201526c1c881bdc88185c1c1c9bdd9959609a1b606082015260800190565b634e487b7160e01b600052603260045260246000fd5b600060001982141561306c5761306c612f41565b5060010190565b60008261309057634e487b7160e01b600052601260045260246000fd5b500490565b6000828210156130a7576130a7612f41565b500390565b6000602082840312156130be57600080fd5b815161289381612a8d565b60208082526032908201527f4552433732313a207472616e7366657220746f206e6f6e20455243373231526560408201527131b2b4bb32b91034b6b83632b6b2b73a32b960711b606082015260800190565b60208082526025908201527f4552433732313a207472616e736665722066726f6d20696e636f72726563742060408201526437bbb732b960d91b606082015260800190565b6001600160a01b0385811682528416602082015260408101839052608060608201819052600090613193908301846128c6565b9695505050505050565b6000602082840312156131af57600080fd5b81516128938161286056fea26469706673582212200d5d9e32dd458ea19086fcf310864402546aebe1cfd797844a1e412709b7c21664736f6c634300080c0033",
  "linkReferences": {},
  "deployedLinkReferences": {}
}