{
  "_format": "hh-sol-artifact-1",
  "contractName": "GenerativeNFT",
  "sourceName": "contracts/nfts/GenerativeNFT.sol",
  "abi": [
    {
      "inputs": [
        {
          "internalType": "string",
          "name": "name",
          "type": "string"
        },
        {
          "internalType": "string",
          "name": "symbol",
          "type": "string"
        }
      ],
      "stateMutability": "nonpayable",
      "type": "constructor"
    },
    {
      "inputs": [
        {
          "internalType": "address",
          "name": "operator",
          "type": "address"
        }
      ],
      "name": "OperatorNotAllowed",
      "type": "error"
    },
    {
      "anonymous": false,
      "inputs": [
        {
          "indexed": true,
          "internalType": "address",
          "name": "owner",
          "type": "address"
        },
        {
          "indexed": true,
          "internalType": "address",
          "name": "approved",
          "type": "address"
        },
        {
          "indexed": true,
          "internalType": "uint256",
          "name": "tokenId",
          "type": "uint256"
        }
      ],
      "name": "Approval",
      "type": "event"
    },
    {
      "anonymous": false,
      "inputs": [
        {
          "indexed": true,
          "internalType": "address",
          "name": "owner",
          "type": "address"
        },
        {
          "indexed": true,
          "internalType": "address",
          "name": "operator",
          "type": "address"
        },
        {
          "indexed": false,
          "internalType": "bool",
          "name": "approved",
          "type": "bool"
        }
      ],
      "name": "ApprovalForAll",
      "type": "event"
    },
    {
      "anonymous": false,
      "inputs": [
        {
          "indexed": true,
          "internalType": "address",
          "name": "previousOwner",
          "type": "address"
        },
        {
          "indexed": true,
          "internalType": "address",
          "name": "newOwner",
          "type": "address"
        }
      ],
      "name": "OwnershipTransferred",
      "type": "event"
    },
    {
      "anonymous": false,
      "inputs": [
        {
          "indexed": false,
          "internalType": "address",
          "name": "account",
          "type": "address"
        }
      ],
      "name": "Paused",
      "type": "event"
    },
    {
      "anonymous": false,
      "inputs": [
        {
          "indexed": true,
          "internalType": "address",
          "name": "from",
          "type": "address"
        },
        {
          "indexed": true,
          "internalType": "address",
          "name": "to",
          "type": "address"
        },
        {
          "indexed": true,
          "internalType": "uint256",
          "name": "tokenId",
          "type": "uint256"
        }
      ],
      "name": "Transfer",
      "type": "event"
    },
    {
      "anonymous": false,
      "inputs": [
        {
          "indexed": false,
          "internalType": "address",
          "name": "account",
          "type": "address"
        }
      ],
      "name": "Unpaused",
      "type": "event"
    },
    {
      "inputs": [],
      "name": "OPERATOR_FILTER_REGISTRY",
      "outputs": [
        {
          "internalType": "contract IOperatorFilterRegistry",
          "name": "",
          "type": "address"
        }
      ],
      "stateMutability": "view",
      "type": "function"
    },
    {
      "inputs": [],
      "name": "_admin",
      "outputs": [
        {
          "internalType": "address",
          "name": "",
          "type": "address"
        }
      ],
      "stateMutability": "view",
      "type": "function"
    },
    {
      "inputs": [],
      "name": "_nameCol",
      "outputs": [
        {
          "internalType": "string",
          "name": "",
          "type": "string"
        }
      ],
      "stateMutability": "view",
      "type": "function"
    },
    {
      "inputs": [],
      "name": "_paramsAddress",
      "outputs": [
        {
          "internalType": "address",
          "name": "",
          "type": "address"
        }
      ],
      "stateMutability": "view",
      "type": "function"
    },
    {
      "inputs": [],
      "name": "_project",
      "outputs": [
        {
          "internalType": "address",
          "name": "_projectAddr",
          "type": "address"
        },
        {
          "internalType": "uint256",
          "name": "_projectId",
          "type": "uint256"
        },
        {
          "internalType": "uint24",
          "name": "_maxSupply",
          "type": "uint24"
        },
        {
          "internalType": "uint24",
          "name": "_limit",
          "type": "uint24"
        },
        {
          "internalType": "uint24",
          "name": "_index",
          "type": "uint24"
        },
        {
          "internalType": "uint24",
          "name": "_indexReserve",
          "type": "uint24"
        },
        {
          "internalType": "string",
          "name": "_creator",
          "type": "string"
        },
        {
          "internalType": "uint256",
          "name": "_mintPrice",
          "type": "uint256"
        },
        {
          "internalType": "address",
          "name": "_mintPriceAddr",
          "type": "address"
        },
        {
          "internalType": "string",
          "name": "_name",
          "type": "string"
        },
        {
          "components": [
            {
              "internalType": "uint256",
              "name": "_initBlockTime",
              "type": "uint256"
            },
            {
              "internalType": "uint256",
              "name": "_openingTime",
              "type": "uint256"
            }
          ],
          "internalType": "struct NFTProject.ProjectMintingSchedule",
          "name": "_mintingSchedule",
          "type": "tuple"
        },
        {
          "internalType": "uint256",
          "name": "_royalty",
          "type": "uint256"
        }
      ],
      "stateMutability": "view",
      "type": "function"
    },
    {
      "inputs": [],
      "name": "_projectDataContextAddr",
      "outputs": [
        {
          "internalType": "address",
          "name": "",
          "type": "address"
        }
      ],
      "stateMutability": "view",
      "type": "function"
    },
    {
      "inputs": [],
      "name": "_randomizer",
      "outputs": [
        {
          "internalType": "address",
          "name": "",
          "type": "address"
        }
      ],
      "stateMutability": "view",
      "type": "function"
    },
    {
      "inputs": [],
      "name": "_royalty",
      "outputs": [
        {
          "internalType": "uint256",
          "name": "",
          "type": "uint256"
        }
      ],
      "stateMutability": "view",
      "type": "function"
    },
    {
      "inputs": [
        {
          "internalType": "address",
          "name": "to",
          "type": "address"
        },
        {
          "internalType": "uint256",
          "name": "tokenId",
          "type": "uint256"
        }
      ],
      "name": "approve",
      "outputs": [],
      "stateMutability": "nonpayable",
      "type": "function"
    },
    {
      "inputs": [
        {
          "internalType": "address",
          "name": "owner",
          "type": "address"
        }
      ],
      "name": "balanceOf",
      "outputs": [
        {
          "internalType": "uint256",
          "name": "",
          "type": "uint256"
        }
      ],
      "stateMutability": "view",
      "type": "function"
    },
    {
      "inputs": [
        {
          "internalType": "address",
          "name": "newAdm",
          "type": "address"
        }
      ],
      "name": "changeAdmin",
      "outputs": [],
      "stateMutability": "nonpayable",
      "type": "function"
    },
    {
      "inputs": [
        {
          "internalType": "address",
          "name": "newAddr",
          "type": "address"
        }
      ],
      "name": "changeDataContextAddr",
      "outputs": [],
      "stateMutability": "nonpayable",
      "type": "function"
    },
    {
      "inputs": [
        {
          "internalType": "address",
          "name": "newAddr",
          "type": "address"
        }
      ],
      "name": "changeParamAddr",
      "outputs": [],
      "stateMutability": "nonpayable",
      "type": "function"
    },
    {
      "inputs": [
        {
          "internalType": "address",
          "name": "newAddr",
          "type": "address"
        }
      ],
      "name": "changeRandomizerAddr",
      "outputs": [],
      "stateMutability": "nonpayable",
      "type": "function"
    },
    {
      "inputs": [
        {
          "internalType": "uint256",
          "name": "tokenId",
          "type": "uint256"
        }
      ],
      "name": "getApproved",
      "outputs": [
        {
          "internalType": "address",
          "name": "",
          "type": "address"
        }
      ],
      "stateMutability": "view",
      "type": "function"
    },
    {
      "inputs": [],
      "name": "getStatus",
      "outputs": [
        {
          "internalType": "bool",
          "name": "",
          "type": "bool"
        }
      ],
      "stateMutability": "view",
      "type": "function"
    },
    {
      "inputs": [
        {
          "components": [
            {
              "internalType": "address",
              "name": "_projectAddr",
              "type": "address"
            },
            {
              "internalType": "uint256",
              "name": "_projectId",
              "type": "uint256"
            },
            {
              "internalType": "uint24",
              "name": "_maxSupply",
              "type": "uint24"
            },
            {
              "internalType": "uint24",
              "name": "_limit",
              "type": "uint24"
            },
            {
              "internalType": "uint24",
              "name": "_index",
              "type": "uint24"
            },
            {
              "internalType": "uint24",
              "name": "_indexReserve",
              "type": "uint24"
            },
            {
              "internalType": "string",
              "name": "_creator",
              "type": "string"
            },
            {
              "internalType": "uint256",
              "name": "_mintPrice",
              "type": "uint256"
            },
            {
              "internalType": "address",
              "name": "_mintPriceAddr",
              "type": "address"
            },
            {
              "internalType": "string",
              "name": "_name",
              "type": "string"
            },
            {
              "components": [
                {
                  "internalType": "uint256",
                  "name": "_initBlockTime",
                  "type": "uint256"
                },
                {
                  "internalType": "uint256",
                  "name": "_openingTime",
                  "type": "uint256"
                }
              ],
              "internalType": "struct NFTProject.ProjectMintingSchedule",
              "name": "_mintingSchedule",
              "type": "tuple"
            },
            {
              "internalType": "address[]",
              "name": "_reserves",
              "type": "address[]"
            },
            {
              "internalType": "uint256",
              "name": "_royalty",
              "type": "uint256"
            }
          ],
          "internalType": "struct NFTProject.ProjectMinting",
          "name": "project",
          "type": "tuple"
        },
        {
          "internalType": "address",
          "name": "admin",
          "type": "address"
        },
        {
          "internalType": "address",
          "name": "paramsAddr",
          "type": "address"
        },
        {
          "internalType": "address",
          "name": "randomizer",
          "type": "address"
        },
        {
          "internalType": "address",
          "name": "projectDataContextAddr",
          "type": "address"
        },
        {
          "internalType": "bool",
          "name": "disable",
          "type": "bool"
        }
      ],
      "name": "init",
      "outputs": [],
      "stateMutability": "nonpayable",
      "type": "function"
    },
    {
      "inputs": [
        {
          "internalType": "address",
          "name": "owner",
          "type": "address"
        },
        {
          "internalType": "address",
          "name": "operator",
          "type": "address"
        }
      ],
      "name": "isApprovedForAll",
      "outputs": [
        {
          "internalType": "bool",
          "name": "",
          "type": "bool"
        }
      ],
      "stateMutability": "view",
      "type": "function"
    },
    {
      "inputs": [
        {
          "internalType": "address",
          "name": "to",
          "type": "address"
        },
        {
          "internalType": "bytes[]",
          "name": "chunks",
          "type": "bytes[]"
        }
      ],
      "name": "mint",
      "outputs": [
        {
          "internalType": "uint256",
          "name": "tokenId",
          "type": "uint256"
        }
      ],
      "stateMutability": "payable",
      "type": "function"
    },
    {
      "inputs": [],
      "name": "name",
      "outputs": [
        {
          "internalType": "string",
          "name": "",
          "type": "string"
        }
      ],
      "stateMutability": "view",
      "type": "function"
    },
    {
      "inputs": [],
      "name": "owner",
      "outputs": [
        {
          "internalType": "address",
          "name": "",
          "type": "address"
        }
      ],
      "stateMutability": "view",
      "type": "function"
    },
    {
      "inputs": [
        {
          "internalType": "uint256",
          "name": "tokenId",
          "type": "uint256"
        }
      ],
      "name": "ownerOf",
      "outputs": [
        {
          "internalType": "address",
          "name": "",
          "type": "address"
        }
      ],
      "stateMutability": "view",
      "type": "function"
    },
    {
      "inputs": [],
      "name": "paused",
      "outputs": [
        {
          "internalType": "bool",
          "name": "",
          "type": "bool"
        }
      ],
      "stateMutability": "view",
      "type": "function"
    },
    {
      "inputs": [],
      "name": "projectAddress",
      "outputs": [
        {
          "internalType": "address",
          "name": "",
          "type": "address"
        }
      ],
      "stateMutability": "view",
      "type": "function"
    },
    {
      "inputs": [],
      "name": "projectIndex",
      "outputs": [
        {
          "internalType": "uint24",
          "name": "",
          "type": "uint24"
        }
      ],
      "stateMutability": "view",
      "type": "function"
    },
    {
      "inputs": [],
      "name": "renounceOwnership",
      "outputs": [],
      "stateMutability": "nonpayable",
      "type": "function"
    },
    {
      "inputs": [
        {
          "internalType": "address",
          "name": "to",
          "type": "address"
        },
        {
          "internalType": "bytes[]",
          "name": "chunks",
          "type": "bytes[]"
        }
      ],
      "name": "reserveMint",
      "outputs": [
        {
          "internalType": "uint256",
          "name": "tokenId",
          "type": "uint256"
        }
      ],
      "stateMutability": "payable",
      "type": "function"
    },
    {
      "inputs": [
        {
          "internalType": "uint256",
          "name": "_tokenId",
          "type": "uint256"
        },
        {
          "internalType": "uint256",
          "name": "_salePrice",
          "type": "uint256"
        }
      ],
      "name": "royaltyInfo",
      "outputs": [
        {
          "internalType": "address",
          "name": "receiver",
          "type": "address"
        },
        {
          "internalType": "uint256",
          "name": "royaltyAmount",
          "type": "uint256"
        }
      ],
      "stateMutability": "view",
      "type": "function"
    },
    {
      "inputs": [
        {
          "internalType": "address",
          "name": "from",
          "type": "address"
        },
        {
          "internalType": "address",
          "name": "to",
          "type": "address"
        },
        {
          "internalType": "uint256",
          "name": "tokenId",
          "type": "uint256"
        }
      ],
      "name": "safeTransferFrom",
      "outputs": [],
      "stateMutability": "nonpayable",
      "type": "function"
    },
    {
      "inputs": [
        {
          "internalType": "address",
          "name": "from",
          "type": "address"
        },
        {
          "internalType": "address",
          "name": "to",
          "type": "address"
        },
        {
          "internalType": "uint256",
          "name": "tokenId",
          "type": "uint256"
        },
        {
          "internalType": "bytes",
          "name": "data",
          "type": "bytes"
        }
      ],
      "name": "safeTransferFrom",
      "outputs": [],
      "stateMutability": "nonpayable",
      "type": "function"
    },
    {
      "inputs": [
        {
          "internalType": "address",
          "name": "operator",
          "type": "address"
        },
        {
          "internalType": "bool",
          "name": "approved",
          "type": "bool"
        }
      ],
      "name": "setApprovalForAll",
      "outputs": [],
      "stateMutability": "nonpayable",
      "type": "function"
    },
    {
      "inputs": [
        {
          "internalType": "bool",
          "name": "enable",
          "type": "bool"
        }
      ],
      "name": "setStatus",
      "outputs": [],
      "stateMutability": "nonpayable",
      "type": "function"
    },
    {
      "inputs": [
        {
          "internalType": "uint256",
          "name": "tokenId",
          "type": "uint256"
        },
        {
          "internalType": "uint256",
          "name": "chunkIndex",
          "type": "uint256"
        },
        {
          "internalType": "bytes",
          "name": "_data",
          "type": "bytes"
        }
      ],
      "name": "store",
      "outputs": [],
      "stateMutability": "nonpayable",
      "type": "function"
    },
    {
      "inputs": [
        {
          "internalType": "bytes4",
          "name": "interfaceId",
          "type": "bytes4"
        }
      ],
      "name": "supportsInterface",
      "outputs": [
        {
          "internalType": "bool",
          "name": "",
          "type": "bool"
        }
      ],
      "stateMutability": "view",
      "type": "function"
    },
    {
      "inputs": [],
      "name": "symbol",
      "outputs": [
        {
          "internalType": "string",
          "name": "",
          "type": "string"
        }
      ],
      "stateMutability": "view",
      "type": "function"
    },
    {
      "inputs": [
        {
          "internalType": "uint256",
          "name": "tokenId",
          "type": "uint256"
        }
      ],
      "name": "tokenIdToHash",
      "outputs": [
        {
          "internalType": "bytes32",
          "name": "",
          "type": "bytes32"
        }
      ],
      "stateMutability": "view",
      "type": "function"
    },
    {
      "inputs": [
        {
          "internalType": "uint256",
          "name": "tokenId",
          "type": "uint256"
        }
      ],
      "name": "tokenURI",
      "outputs": [
        {
          "internalType": "string",
          "name": "",
          "type": "string"
        }
      ],
      "stateMutability": "view",
      "type": "function"
    },
    {
      "inputs": [
        {
          "internalType": "address",
          "name": "from",
          "type": "address"
        },
        {
          "internalType": "address",
          "name": "to",
          "type": "address"
        },
        {
          "internalType": "uint256",
          "name": "tokenId",
          "type": "uint256"
        }
      ],
      "name": "transferFrom",
      "outputs": [],
      "stateMutability": "nonpayable",
      "type": "function"
    },
    {
      "inputs": [
        {
          "internalType": "address",
          "name": "newOwner",
          "type": "address"
        }
      ],
      "name": "transferOwnership",
      "outputs": [],
      "stateMutability": "nonpayable",
      "type": "function"
    },
    {
      "inputs": [
        {
          "internalType": "uint256",
          "name": "price",
          "type": "uint256"
        }
      ],
      "name": "updatePrice",
      "outputs": [],
      "stateMutability": "nonpayable",
      "type": "function"
    }
  ],
  "bytecode": "0x60806040523480156200001157600080fd5b50604051620048f4380380620048f48339810160408190526200003491620003b0565b733cc6cdda760b79bafa08df41ecfa224f810dceb66001838381818160009080519060200190620000679291906200023d565b5080516200007d9060019060208401906200023d565b50506006805460ff191690555060016007556200009a33620001eb565b50506daaeb6d7670e522a718067333cd4e3b15620001e15780156200012f57604051633e9f1edf60e11b81523060048201526001600160a01b03831660248201526daaeb6d7670e522a718067333cd4e90637d3e3dbe906044015b600060405180830381600087803b1580156200011057600080fd5b505af115801562000125573d6000803e3d6000fd5b50505050620001e1565b6001600160a01b03821615620001805760405163a0af290360e01b81523060048201526001600160a01b03831660248201526daaeb6d7670e522a718067333cd4e9063a0af290390604401620000f5565b604051632210724360e11b81523060048201526daaeb6d7670e522a718067333cd4e90634420e48690602401600060405180830381600087803b158015620001c757600080fd5b505af1158015620001dc573d6000803e3d6000fd5b505050505b5050505062000457565b600880546001600160a01b038381166001600160a01b0319831681179093556040519116919082907f8be0079c531659141344cd1fd0a4f28419497f9722a3daafe3b4186f6b6457e090600090a35050565b8280546200024b906200041a565b90600052602060002090601f0160209004810192826200026f5760008555620002ba565b82601f106200028a57805160ff1916838001178555620002ba565b82800160010185558215620002ba579182015b82811115620002ba5782518255916020019190600101906200029d565b50620002c8929150620002cc565b5090565b5b80821115620002c85760008155600101620002cd565b634e487b7160e01b600052604160045260246000fd5b600082601f8301126200030b57600080fd5b81516001600160401b0380821115620003285762000328620002e3565b604051601f8301601f19908116603f01168101908282118183101715620003535762000353620002e3565b816040528381526020925086838588010111156200037057600080fd5b600091505b8382101562000394578582018301518183018401529082019062000375565b83821115620003a65760008385830101525b9695505050505050565b60008060408385031215620003c457600080fd5b82516001600160401b0380821115620003dc57600080fd5b620003ea86838701620002f9565b935060208501519150808211156200040157600080fd5b506200041085828601620002f9565b9150509250929050565b600181811c908216806200042f57607f821691505b602082108114156200045157634e487b7160e01b600052602260045260246000fd5b50919050565b61448d80620004676000396000f3fe60806040526004361061023b5760003560e01c8063631847261161012e578063a933024e116100ab578063f038ba721161006f578063f038ba721461070d578063f2fde38b14610720578063fc23745214610740578063febfd6c314610760578063ffc27c0e1461078057600080fd5b8063a933024e14610644578063adfc7dae14610664578063b88d4fde14610684578063c87b56dd146106a4578063e985e9c5146106c457600080fd5b80638d6cc56d116100f25780638d6cc56d146105b15780638da5cb5b146105d15780638f283970146105ef57806395d89b411461060f578063a22cb4651461062457600080fd5b806363184726146104e95780636352211e1461051957806370a082311461054f578063715018a61461056f578063775bff9f1461058457600080fd5b806341f43434116101bc578063575b57ea11610180578063575b57ea1461045e5780635c40f6f41461047e5780635c975abb1461049e5780635d6ffda7146104b6578063621a1f74146104c957600080fd5b806341f43434146103d257806342842e0e146103f4578063452fa3d314610414578063472f1e02146104295780634e69d5601461044957600080fd5b80631ca9741b116102035780631ca9741b1461031157806323b872dd146103315780632a55205a146103515780633b66b00a146103905780633cf96af1146103b457600080fd5b806301bc45c91461024057806301ffc9a71461027d57806306fdde03146102ad578063081812fc146102cf578063095ea7b3146102ef575b600080fd5b34801561024c57600080fd5b50600a54610260906001600160a01b031681565b6040516001600160a01b0390911681526020015b60405180910390f35b34801561028957600080fd5b5061029d610298366004613910565b6107a0565b6040519015158152602001610274565b3480156102b957600080fd5b506102c26107e6565b604051610274919061398c565b3480156102db57600080fd5b506102606102ea36600461399f565b610878565b3480156102fb57600080fd5b5061030f61030a3660046139dd565b61089f565b005b34801561031d57600080fd5b5061030f61032c366004613a09565b6109ba565b34801561033d57600080fd5b5061030f61034c366004613a26565b610a39565b34801561035d57600080fd5b5061037161036c366004613a67565b610a64565b604080516001600160a01b039093168352602083019190915201610274565b34801561039c57600080fd5b506103a6600f5481565b604051908152602001610274565b3480156103c057600080fd5b506010546001600160a01b0316610260565b3480156103de57600080fd5b506102606daaeb6d7670e522a718067333cd4e81565b34801561040057600080fd5b5061030f61040f366004613a26565b610a7c565b34801561042057600080fd5b506102c2610aa1565b34801561043557600080fd5b5061030f610444366004613a09565b610b2f565b34801561045557600080fd5b5061029d610bae565b34801561046a57600080fd5b50600d54610260906001600160a01b031681565b34801561048a57600080fd5b5061030f610499366004613aa2565b610bc2565b3480156104aa57600080fd5b5060065460ff1661029d565b6103a66104c4366004613bd2565b610c2c565b3480156104d557600080fd5b506103a66104e436600461399f565b610fdf565b3480156104f557600080fd5b50601254600160301b900462ffffff1660405162ffffff9091168152602001610274565b34801561052557600080fd5b5061026061053436600461399f565b6000908152600960205260409020546001600160a01b031690565b34801561055b57600080fd5b506103a661056a366004613a09565b6110ba565b34801561057b57600080fd5b5061030f611140565b34801561059057600080fd5b50610599611154565b6040516102749c9b9a99989796959493929190613c98565b3480156105bd57600080fd5b5061030f6105cc36600461399f565b6112f3565b3480156105dd57600080fd5b50600a546001600160a01b0316610260565b3480156105fb57600080fd5b5061030f61060a366004613a09565b611356565b34801561061b57600080fd5b506102c26113d5565b34801561063057600080fd5b5061030f61063f366004613d4c565b611473565b34801561065057600080fd5b5061030f61065f366004613d85565b611482565b34801561067057600080fd5b50600b54610260906001600160a01b031681565b34801561069057600080fd5b5061030f61069f366004613dd5565b6116e6565b3480156106b057600080fd5b506102c26106bf36600461399f565b611713565b3480156106d057600080fd5b5061029d6106df366004613e41565b6001600160a01b03918216600090815260056020908152604080832093909416825291909152205460ff1690565b6103a661071b366004613bd2565b611867565b34801561072c57600080fd5b5061030f61073b366004613a09565b611cc9565b34801561074c57600080fd5b5061030f61075b366004613f40565b611d3f565b34801561076c57600080fd5b5061030f61077b366004613a09565b61201a565b34801561078c57600080fd5b50600c54610260906001600160a01b031681565b60006001600160e01b031982166302734eab60e51b14806107d157506001600160e01b0319821663152a902d60e11b145b806107e057506107e082612099565b92915050565b6060600e80546107f5906140e8565b80601f0160208091040260200160405190810160405280929190818152602001828054610821906140e8565b801561086e5780601f106108435761010080835404028352916020019161086e565b820191906000526020600020905b81548152906001019060200180831161085157829003601f168201915b5050505050905090565b6000610883826120e9565b506000908152600460205260409020546001600160a01b031690565b60006108aa82612148565b9050806001600160a01b0316836001600160a01b0316141561091d5760405162461bcd60e51b815260206004820152602160248201527f4552433732313a20617070726f76616c20746f2063757272656e74206f776e656044820152603960f91b60648201526084015b60405180910390fd5b336001600160a01b0382161480610939575061093981336106df565b6109ab5760405162461bcd60e51b815260206004820152603d60248201527f4552433732313a20617070726f76652063616c6c6572206973206e6f7420746f60448201527f6b656e206f776e6572206f7220617070726f76656420666f7220616c6c0000006064820152608401610914565b6109b583836121a8565b505050565b600a546001600160a01b0316331480156109dc57506001600160a01b03811615155b6040518060400160405280600381526020016231303160e81b81525090610a165760405162461bcd60e51b8152600401610914919061398c565b50600c80546001600160a01b0319166001600160a01b0392909216919091179055565b826001600160a01b0381163314610a5357610a5333612216565b610a5e8484846122cf565b50505050565b600080610a718484612300565b915091509250929050565b826001600160a01b0381163314610a9657610a9633612216565b610a5e84848461249a565b600e8054610aae906140e8565b80601f0160208091040260200160405190810160405280929190818152602001828054610ada906140e8565b8015610b275780601f10610afc57610100808354040283529160200191610b27565b820191906000526020600020905b815481529060010190602001808311610b0a57829003601f168201915b505050505081565b600a546001600160a01b031633148015610b5157506001600160a01b03811615155b6040518060400160405280600381526020016231303160e81b81525090610b8b5760405162461bcd60e51b8152600401610914919061398c565b50600d80546001600160a01b0319166001600160a01b0392909216919091179055565b6000610bbc60065460ff1690565b15905090565b600a546001600160a01b0316331480610be557506010546001600160a01b031633145b6040518060400160405280600381526020016231303160e81b81525090610c1f5760405162461bcd60e51b8152600401610914919061398c565b50610c29816124b5565b50565b6000610c366124cb565b60185415610c7d5760185460408051808201909152600381526206460760eb1b6020820152904211610c7b5760405162461bcd60e51b8152600401610914919061398c565b505b60128054600160301b900462ffffff16906006610c9983614139565b82546101009290920a62ffffff818102199093169183160217909155601254630100000081048216600160301b90910490911611159050610cd957600080fd5b60125462ffffff80821691610cff91600160481b8204811691600160301b90041661415c565b62ffffff161415610d7057601054601154604051631122f8a960e11b815260048101919091526001600160a01b03909116908190632245f15290602401600060405180830381600087803b158015610d5657600080fd5b505af1158015610d6a573d6000803e3d6000fd5b50505050505b601254601154600160301b90910462ffffff1690610d9290620f424090614183565b610d9c91906141a2565b9050610da88382612525565b600c54604051631da00d8560e01b8152600481018390526001600160a01b03909116906000908290631da00d85906024016020604051808303816000875af1158015610df8573d6000803e3d6000fd5b505050506040513d601f19601f82011682018060405250810190610e1c91906141ba565b9050610e28838261253f565b600b80546040805180820182529283526a4246535f4144445245535360a81b60208401525163bf40fac160e01b81526001600160a01b0390911691600091839163bf40fac191610e7b919060040161398c565b602060405180830381865afa158015610e98573d6000803e3d6000fd5b505050506040513d601f19601f82011682018060405250810190610ebc91906141d3565b905060005b8651811015610fc85760405163188687dd60e21b815260048101879052600090610f3790309063621a1f74906024015b602060405180830381865afa158015610f0e573d6000803e3d6000fd5b505050506040513d601f19601f82011682018060405250810190610f3291906141ba565b612608565b9050826001600160a01b031663928a4b3e82848b8681518110610f5c57610f5c6141f0565b60200260200101516040518463ffffffff1660e01b8152600401610f8293929190614206565b600060405180830381600087803b158015610f9c57600080fd5b505af1158015610fb0573d6000803e3d6000fd5b50505050508080610fc09061423b565b915050610ec1565b50610fd1612654565b505050506107e06001600755565b6000818152600960205260408120546001600160a01b031615156040518060400160405280600381526020016232303960e81b815250906110335760405162461bcd60e51b8152600401610914919061398c565b50600082815260096020526040902054600160a01b900460a01b6001600160a01b03191661106357506000919050565b60008281526009602090815260409182902054915161109d92600160a01b900460a01b91016001600160a01b031991909116815260200190565b604051602081830303815290604052805190602001209050919050565b60006001600160a01b0382166111245760405162461bcd60e51b815260206004820152602960248201527f4552433732313a2061646472657373207a65726f206973206e6f7420612076616044820152683634b21037bbb732b960b91b6064820152608401610914565b506001600160a01b031660009081526003602052604090205490565b611148612c39565b6111526000612ca5565b565b60108054601154601254601380546001600160a01b0390941694929362ffffff8084169463010000008504821694600160301b8104831694600160481b909104909216929091906111a4906140e8565b80601f01602080910402602001604051908101604052809291908181526020018280546111d0906140e8565b801561121d5780601f106111f25761010080835404028352916020019161121d565b820191906000526020600020905b81548152906001019060200180831161120057829003601f168201915b5050505060048301546005840154600685018054949592946001600160a01b0390921693509061124c906140e8565b80601f0160208091040260200160405190810160405280929190818152602001828054611278906140e8565b80156112c55780601f1061129a576101008083540402835291602001916112c5565b820191906000526020600020905b8154815290600101906020018083116112a857829003601f168201915b5050604080518082019091526007860154815260088601546020820152600a9095015493949392508e915050565b600a546001600160a01b031633148061131657506010546001600160a01b031633145b6040518060400160405280600381526020016231303160e81b815250906113505760405162461bcd60e51b8152600401610914919061398c565b50601455565b600a546001600160a01b03163314801561137857506001600160a01b03811615155b6040518060400160405280600381526020016231303160e81b815250906113b25760405162461bcd60e51b8152600401610914919061398c565b50600a80546001600160a01b0319166001600160a01b0392909216919091179055565b606061146e60016003600e80546113eb906140e8565b80601f0160208091040260200160405190810160405280929190818152602001828054611417906140e8565b80156114645780601f1061143957610100808354040283529160200191611464565b820191906000526020600020905b81548152906001019060200180831161144757829003601f168201915b5050505050612cf7565b905090565b61147e338383612dde565b5050565b600d5460115460405163188687dd60e21b8152600481018690526001600160a01b039092169160009183916331c7280c91908890309063621a1f7490602401602060405180830381865afa1580156114de573d6000803e3d6000fd5b505050506040513d601f19601f8201168201806040525081019061150291906141ba565b6040516001600160e01b031960e086901b168152600481019390935260248301919091526044820152606401600060405180830381865afa15801561154b573d6000803e3d6000fd5b505050506040513d6000823e601f3d908101601f191682016040526115739190810190614256565b905060008151116040518060400160405280600381526020016232313160e81b815250906115b45760405162461bcd60e51b8152600401610914919061398c565b50600b80546040805180820182529283526a4246535f4144445245535360a81b60208401525163bf40fac160e01b81526001600160a01b0390911691600091839163bf40fac191611608919060040161398c565b602060405180830381865afa158015611625573d6000803e3d6000fd5b505050506040513d601f19601f8201168201806040525081019061164991906141d3565b60405163188687dd60e21b81526004810189905290915060009061167790309063621a1f7490602401610ef1565b604051634945259f60e11b81529091506001600160a01b0383169063928a4b3e906116aa9084908b908b90600401614206565b600060405180830381600087803b1580156116c457600080fd5b505af11580156116d8573d6000803e3d6000fd5b505050505050505050505050565b836001600160a01b03811633146117005761170033612216565b61170c85858585612ead565b5050505050565b6000818152600960205260409020546060906001600160a01b031615156040518060400160405280600381526020016232303960e81b8152509061176a5760405162461bcd60e51b8152600401610914919061398c565b50600d5460405163188687dd60e21b8152600481018490526001600160a01b0390911690600090309063621a1f7490602401602060405180830381865afa1580156117b9573d6000803e3d6000fd5b505050506040513d601f19601f820116820180604052508101906117dd91906141ba565b601154604051639413930160e01b8152600481019190915260248101869052604481018290529091506001600160a01b03831690639413930190606401600060405180830381865afa158015611837573d6000803e3d6000fd5b505050506040513d6000823e601f3d908101601f1916820160405261185f9190810190614256565b949350505050565b60006118716124cb565b60128054600160481b900462ffffff1690600961188d83614139565b82546101009290920a62ffffff81810219909316918316021790915560125480821692506118cc9163010000008204811691600160481b90041661415c565b62ffffff1611156118dc57600080fd5b60125462ffffff8082169161190291600160481b8204811691600160301b90041661415c565b62ffffff16141561197357601054601154604051631122f8a960e11b815260048101919091526001600160a01b03909116908190632245f15290602401600060405180830381600087803b15801561195957600080fd5b505af115801561196d573d6000803e3d6000fd5b50505050505b601054336000908152601b60205260409020546001600160a01b039091169060ff1680611a1d57506011546040516331a9108f60e11b815260048101919091526001600160a01b03821690636352211e90602401602060405180830381865afa1580156119e4573d6000803e3d6000fd5b505050506040513d601f19601f82011682018060405250810190611a0891906141d3565b6001600160a01b0316336001600160a01b0316145b611a2657600080fd5b336000908152601b602052604090205460ff168015611a46575060185415155b15611a8a5760185460408051808201909152600381526206460760eb1b6020820152904211611a885760405162461bcd60e51b8152600401610914919061398c565b505b601254611aac9062ffffff63010000008204811691600160481b90041661415c565b62ffffff16620f4240601060010154611ac59190614183565b611acf91906141a2565b9150611adb8483612525565b600c54604051631da00d8560e01b8152600481018490526001600160a01b03909116906000908290631da00d85906024016020604051808303816000875af1158015611b2b573d6000803e3d6000fd5b505050506040513d601f19601f82011682018060405250810190611b4f91906141ba565b9050611b5b848261253f565b600b80546040805180820182529283526a4246535f4144445245535360a81b60208401525163bf40fac160e01b81526001600160a01b0390911691600091839163bf40fac191611bae919060040161398c565b602060405180830381865afa158015611bcb573d6000803e3d6000fd5b505050506040513d601f19601f82011682018060405250810190611bef91906141d3565b905060005b8751811015611cb95760405163188687dd60e21b815260048101889052600090611c2890309063621a1f7490602401610ef1565b9050826001600160a01b031663928a4b3e82848c8681518110611c4d57611c4d6141f0565b60200260200101516040518463ffffffff1660e01b8152600401611c7393929190614206565b600060405180830381600087803b158015611c8d57600080fd5b505af1158015611ca1573d6000803e3d6000fd5b50505050508080611cb19061423b565b915050611bf4565b5050505050506107e06001600755565b611cd1612c39565b6001600160a01b038116611d365760405162461bcd60e51b815260206004820152602660248201527f4f776e61626c653a206e6577206f776e657220697320746865207a65726f206160448201526564647265737360d01b6064820152608401610914565b610c2981612ca5565b600a5460408051808201909152600381526219181960e91b6020820152906001600160a01b031615611d845760405162461bcd60e51b8152600401610914919061398c565b5060408051808201909152600381526203130360ec1b60208201526001600160a01b038616611dc65760405162461bcd60e51b8152600401610914919061398c565b508551601080546001600160a01b039092166001600160a01b031990921691909117815560208088015160115560408801516012805460608b015160808c015160a08d015162ffffff908116600160481b026bffffff00000000000000000019928216600160301b02929092166bffffffffffff0000000000001993821663010000000265ffffffffffff19909516919096161792909217169290921791909117905560c08801518051899392611e829260139291019061380c565b5060e082015160048201556101008201516005820180546001600160a01b0319166001600160a01b039092169190911790556101208201518051611ed091600684019160209091019061380c565b506101408201518051600783015560209081015160088301556101608301518051611f019260098501920190613890565b506101809190910151600a91820155600b80546001600160a01b038088166001600160a01b031992831617909255825488831690821617909255600c8054868316908416179055600d8054918516919092161790556101208601518051611f7091600e9160209091019061380c565b5060005b86610160015151811015611fe3576001601b60008961016001518481518110611f9f57611f9f6141f0565b6020908102919091018101516001600160a01b03168252810191909152604001600020805460ff191691151591909117905580611fdb8161423b565b915050611f74565b50600a54611ff9906001600160a01b0316611cc9565b801561200757612007612edf565b5050426017555050506101800151600f55565b600a546001600160a01b03163314801561203c57506001600160a01b03811615155b6040518060400160405280600381526020016231303160e81b815250906120765760405162461bcd60e51b8152600401610914919061398c565b50600b80546001600160a01b0319166001600160a01b0392909216919091179055565b60006001600160e01b031982166380ac58cd60e01b14806120ca57506001600160e01b03198216635b5e139f60e01b145b806107e057506301ffc9a760e01b6001600160e01b03198316146107e0565b6000818152600960205260409020546001600160a01b0316610c295760405162461bcd60e51b8152602060048201526018602482015277115490cdcc8c4e881a5b9d985b1a59081d1bdad95b88125160421b6044820152606401610914565b6000818152600260205260408120546001600160a01b0316806107e05760405162461bcd60e51b8152602060048201526018602482015277115490cdcc8c4e881a5b9d985b1a59081d1bdad95b88125160421b6044820152606401610914565b600081815260046020526040902080546001600160a01b0319166001600160a01b03841690811790915581906121dd82612148565b6001600160a01b03167f8c5be1e5ebec7d5bd14f71427d1e84f3dd0314c0f7b2291e5b200ac8c7c3b92560405160405180910390a45050565b6daaeb6d7670e522a718067333cd4e3b15610c2957604051633185c44d60e21b81523060048201526001600160a01b03821660248201526daaeb6d7670e522a718067333cd4e9063c617113490604401602060405180830381865afa158015612283573d6000803e3d6000fd5b505050506040513d601f19601f820116820180604052508101906122a791906142cd565b610c2957604051633b79c77360e21b81526001600160a01b0382166004820152602401610914565b6122d93382612f39565b6122f55760405162461bcd60e51b8152600401610914906142ea565b6109b5838383612fb7565b600a54600f54600b546001600160a01b039283169260009291161561247957600b546040805180820182526013815272524f59414c54595f46494e5f4144445245535360681b6020820152905163bf40fac160e01b81526001600160a01b0390921691600091839163bf40fac19161237a9160040161398c565b602060405180830381865afa158015612397573d6000803e3d6000fd5b505050506040513d601f19601f820116820180604052508101906123bb91906141d3565b90506001600160a01b038116156123d0578094505b8261247657604080518082018252601b81527f44454641554c545f524f59414c54595f46494e5f50455243454e54000000000060208201529051636d12dce160e01b81526001600160a01b03841691636d12dce191612432919060040161398c565b602060405180830381865afa15801561244f573d6000803e3d6000fd5b505050506040513d601f19601f8201168201806040525081019061247391906141ba565b92505b50505b6127106124868286614183565b6124909190614337565b9150509250929050565b6109b5838383604051806020016040528060008152506116e6565b80156124c357610c29612ff1565b610c29612edf565b6002600754141561251e5760405162461bcd60e51b815260206004820152601f60248201527f5265656e7472616e637947756172643a207265656e7472616e742063616c6c006044820152606401610914565b6002600755565b61147e82826040518060200160405280600081525061302a565b600082815260096020908152604091829020548251808401909352600383526219181b60e91b91830191909152600160a01b900460a01b6001600160a01b0319161561259e5760405162461bcd60e51b8152600401610914919061398c565b5060408051808201909152600381526232303760e81b6020820152816125d75760405162461bcd60e51b8152600401610914919061398c565b50600091825260096020526040909120805460a09290921c600160a01b026001600160a01b03909216919091179055565b60606126138261305d565b612620608084901b61305d565b60405161060f60f31b6020820152602281019290925260428201526062016040516020818303038152906040529050919050565b6014548061265f5750565b601054600b54604080518082018252601b81527f44454641554c545f524f59414c54595f46494e5f50455243454e54000000000060208201529051636d12dce160e01b81526001600160a01b0393841693909216916000918391636d12dce1916126cb9160040161398c565b602060405180830381865afa1580156126e8573d6000803e3d6000fd5b505050506040513d601f19601f8201168201806040525081019061270c91906141ba565b600a54600b549192506001600160a01b039081169116156128785760408051808201825260158152744d494e545f4e46545f4f50455241544f525f46454560581b60208201529051636d12dce160e01b81526001600160a01b03851691636d12dce19161277c919060040161398c565b602060405180830381865afa158015612799573d6000803e3d6000fd5b505050506040513d601f19601f820116820180604052508101906127bd91906141ba565b604080518082018252601f81527f4d494e545f4e46545f4f50455241544f525f54524541535552455f41444452006020820152905163bf40fac160e01b81529193506000916001600160a01b0386169163bf40fac191612820919060040161398c565b602060405180830381865afa15801561283d573d6000803e3d6000fd5b505050506040513d601f19601f8201168201806040525081019061286191906141d3565b90506001600160a01b03811615612876578091505b505b6015546001600160a01b0316806129f8578534101561289657600080fd5b6011546040516331a9108f60e11b81526000916001600160a01b03881691636352211e916128ca9160040190815260200190565b602060405180830381865afa1580156128e7573d6000803e3d6000fd5b505050506040513d601f19601f8201168201806040525081019061290b91906141d3565b6001600160a01b0316612710612921868a614183565b61292b9190614337565b6129359089614359565b604051600081818185875af1925050503d8060008114612971576040519150601f19603f3d011682016040523d82523d6000602084013e612976565b606091505b505090508061298457600080fd5b83156129f2576001600160a01b0383166127106129a1868a614183565b6129ab9190614337565b604051600081818185875af1925050503d80600081146129e7576040519150601f19603f3d011682016040523d82523d6000602084013e6129ec565b606091505b50909150505b50612c31565b6040516323b872dd60e01b81523360048201523060248201526044810187905281906001600160a01b038216906323b872dd906064016020604051808303816000875af1158015612a4d573d6000803e3d6000fd5b505050506040513d601f19601f82011682018060405250810190612a7191906142cd565b612a7a57600080fd5b6011546040516331a9108f60e11b815260048101919091526001600160a01b038281169163a9059cbb91891690636352211e90602401602060405180830381865afa158015612acd573d6000803e3d6000fd5b505050506040513d601f19601f82011682018060405250810190612af191906141d3565b612710612afe888c614183565b612b089190614337565b612b12908b614359565b6040516001600160e01b031960e085901b1681526001600160a01b03909216600483015260248201526044016020604051808303816000875af1158015612b5d573d6000803e3d6000fd5b505050506040513d601f19601f82011682018060405250810190612b8191906142cd565b612b8a57600080fd5b8315612c2f576001600160a01b03811663a9059cbb84612710612bad888c614183565b612bb79190614337565b6040516001600160e01b031960e085901b1681526001600160a01b03909216600483015260248201526044016020604051808303816000875af1158015612c02573d6000803e3d6000fd5b505050506040513d601f19601f82011682018060405250810190612c2691906142cd565b612c2f57600080fd5b505b505050505050565b33612c4c600a546001600160a01b031690565b6001600160a01b03161480612c6b57506010546001600160a01b031633145b6040518060400160405280600381526020016203130360ec1b81525090610c295760405162461bcd60e51b8152600401610914919061398c565b600880546001600160a01b038381166001600160a01b0319831681179093556040519116919082907f8be0079c531659141344cd1fd0a4f28419497f9722a3daafe3b4186f6b6457e090600090a35050565b60606000612d058585614359565b612d109060016141a2565b67ffffffffffffffff811115612d2857612d28613abf565b6040519080825280601f01601f191660200182016040528015612d52576020820181803683370190505b50905060005b612d628686614359565b8111612dd557836001612d7588846141a2565b612d7f9190614359565b81518110612d8f57612d8f6141f0565b602001015160f81c60f81b828281518110612dac57612dac6141f0565b60200101906001600160f81b031916908160001a90535080612dcd8161423b565b915050612d58565b50949350505050565b816001600160a01b0316836001600160a01b03161415612e405760405162461bcd60e51b815260206004820152601960248201527f4552433732313a20617070726f766520746f2063616c6c6572000000000000006044820152606401610914565b6001600160a01b03838116600081815260056020908152604080832094871680845294825291829020805460ff191686151590811790915591519182527f17307eab39ab6107e8899845ad3d59bd9653f200f220920489ca2b5937696c31910160405180910390a3505050565b612eb73383612f39565b612ed35760405162461bcd60e51b8152600401610914906142ea565b610a5e8484848461320f565b612ee7613242565b6006805460ff191660011790557f62e78cea01bee320cd4e420270b5ea74000d11b0c9f74754ebdbfc544b05a258612f1c3390565b6040516001600160a01b03909116815260200160405180910390a1565b600080612f4583612148565b9050806001600160a01b0316846001600160a01b03161480612f8c57506001600160a01b0380821660009081526005602090815260408083209388168352929052205460ff165b8061185f5750836001600160a01b0316612fa584610878565b6001600160a01b031614949350505050565b612fc2838383613288565b600090815260096020526040902080546001600160a01b0319166001600160a01b039290921691909117905550565b612ff96133f9565b6006805460ff191690557f5db9ee0a495bf2e6ff9c91a7834c1ba4fdd244a5e8aa4e537bd38aeae4b073aa33612f1c565b6130348383613442565b613041600084848461347a565b6109b55760405162461bcd60e51b815260040161091490614370565b7aff00000000000000ff00000000000000ff00000000000000ff00006bffffffff0000000000000000604083901c90811663ffffffff60c01b84161760201c63ffffffff60601b919091166001600160e01b031984161717601081901c9182167eff00000000000000ff00000000000000ff00000000000000ff000000000000821617600890811c7bff00000000000000ff00000000000000ff00000000000000ff000000939093167fff00000000000000ff00000000000000ff00000000000000ff000000000000009290921691909117919091179081901c7e0f000f000f000f000f000f000f000f000f000f000f000f000f000f000f000f167f0f000f000f000f000f000f000f000f000f000f000f000f000f000f000f000f00600492831c1617906131ab827f06060606060606060606060606060606060606060606060606060606060606066141a2565b901c7f0f0f0f0f0f0f0f0f0f0f0f0f0f0f0f0f0f0f0f0f0f0f0f0f0f0f0f0f0f0f0f0f1660076131db9190614183565b613205827f30303030303030303030303030303030303030303030303030303030303030306141a2565b6107e091906141a2565b61321a848484612fb7565b6132268484848461347a565b610a5e5760405162461bcd60e51b815260040161091490614370565b60065460ff16156111525760405162461bcd60e51b815260206004820152601060248201526f14185d5cd8589b194e881c185d5cd95960821b6044820152606401610914565b826001600160a01b031661329b82612148565b6001600160a01b0316146132c15760405162461bcd60e51b8152600401610914906143c2565b6001600160a01b0382166133235760405162461bcd60e51b8152602060048201526024808201527f4552433732313a207472616e7366657220746f20746865207a65726f206164646044820152637265737360e01b6064820152608401610914565b6133308383836001613578565b826001600160a01b031661334382612148565b6001600160a01b0316146133695760405162461bcd60e51b8152600401610914906143c2565b600081815260046020908152604080832080546001600160a01b03199081169091556001600160a01b0387811680865260038552838620805460001901905590871680865283862080546001019055868652600290945282852080549092168417909155905184937fddf252ad1be2c89b69c2b068fc378daa952ba7f163c4a11628f55a4df523b3ef91a4505050565b60065460ff166111525760405162461bcd60e51b815260206004820152601460248201527314185d5cd8589b194e881b9bdd081c185d5cd95960621b6044820152606401610914565b61344c82826135eb565b600090815260096020526040902080546001600160a01b0319166001600160a01b0392909216919091179055565b60006001600160a01b0384163b1561356d57604051630a85bd0160e11b81526001600160a01b0385169063150b7a02906134be903390899088908890600401614407565b6020604051808303816000875af19250505080156134f9575060408051601f3d908101601f191682019092526134f69181019061443a565b60015b613553573d808015613527576040519150601f19603f3d011682016040523d82523d6000602084013e61352c565b606091505b50805161354b5760405162461bcd60e51b815260040161091490614370565b805181602001fd5b6001600160e01b031916630a85bd0160e11b14905061185f565b506001949350505050565b61358484848484613784565b60065460ff1615610a5e5760405162461bcd60e51b815260206004820152602b60248201527f4552433732315061757361626c653a20746f6b656e207472616e73666572207760448201526a1a1a5b19481c185d5cd95960aa1b6064820152608401610914565b6001600160a01b0382166136415760405162461bcd60e51b815260206004820181905260248201527f4552433732313a206d696e7420746f20746865207a65726f20616464726573736044820152606401610914565b6000818152600960205260409020546001600160a01b0316156136a65760405162461bcd60e51b815260206004820152601c60248201527f4552433732313a20746f6b656e20616c7265616479206d696e746564000000006044820152606401610914565b6136b4600083836001613578565b6000818152600960205260409020546001600160a01b0316156137195760405162461bcd60e51b815260206004820152601c60248201527f4552433732313a20746f6b656e20616c7265616479206d696e746564000000006044820152606401610914565b6001600160a01b038216600081815260036020908152604080832080546001019055848352600290915280822080546001600160a01b0319168417905551839291907fddf252ad1be2c89b69c2b068fc378daa952ba7f163c4a11628f55a4df523b3ef908290a45050565b6001811115610a5e576001600160a01b038416156137ca576001600160a01b038416600090815260036020526040812080548392906137c4908490614359565b90915550505b6001600160a01b03831615610a5e576001600160a01b038316600090815260036020526040812080548392906138019084906141a2565b909155505050505050565b828054613818906140e8565b90600052602060002090601f01602090048101928261383a5760008555613880565b82601f1061385357805160ff1916838001178555613880565b82800160010185558215613880579182015b82811115613880578251825591602001919060010190613865565b5061388c9291506138e5565b5090565b828054828255906000526020600020908101928215613880579160200282015b8281111561388057825182546001600160a01b0319166001600160a01b039091161782556020909201916001909101906138b0565b5b8082111561388c57600081556001016138e6565b6001600160e01b031981168114610c2957600080fd5b60006020828403121561392257600080fd5b813561392d816138fa565b9392505050565b60005b8381101561394f578181015183820152602001613937565b83811115610a5e5750506000910152565b60008151808452613978816020860160208601613934565b601f01601f19169290920160200192915050565b60208152600061392d6020830184613960565b6000602082840312156139b157600080fd5b5035919050565b6001600160a01b0381168114610c2957600080fd5b80356139d8816139b8565b919050565b600080604083850312156139f057600080fd5b82356139fb816139b8565b946020939093013593505050565b600060208284031215613a1b57600080fd5b813561392d816139b8565b600080600060608486031215613a3b57600080fd5b8335613a46816139b8565b92506020840135613a56816139b8565b929592945050506040919091013590565b60008060408385031215613a7a57600080fd5b50508035926020909101359150565b8015158114610c2957600080fd5b80356139d881613a89565b600060208284031215613ab457600080fd5b813561392d81613a89565b634e487b7160e01b600052604160045260246000fd5b6040516101a0810167ffffffffffffffff81118282101715613af957613af9613abf565b60405290565b604051601f8201601f1916810167ffffffffffffffff81118282101715613b2857613b28613abf565b604052919050565b600067ffffffffffffffff821115613b4a57613b4a613abf565b5060051b60200190565b600067ffffffffffffffff821115613b6e57613b6e613abf565b50601f01601f191660200190565b600082601f830112613b8d57600080fd5b8135613ba0613b9b82613b54565b613aff565b818152846020838601011115613bb557600080fd5b816020850160208301376000918101602001919091529392505050565b60008060408385031215613be557600080fd5b8235613bf0816139b8565b915060208381013567ffffffffffffffff80821115613c0e57600080fd5b818601915086601f830112613c2257600080fd5b8135613c30613b9b82613b30565b81815260059190911b83018401908481019089831115613c4f57600080fd5b8585015b83811015613c8757803585811115613c6b5760008081fd5b613c798c89838a0101613b7c565b845250918601918601613c53565b508096505050505050509250929050565b6001600160a01b038d168152602081018c905262ffffff8b811660408301528a811660608301528981166080830152881660a08201526101a060c08201819052600090613ce78382018a613960565b90508760e0840152613d056101008401886001600160a01b03169052565b828103610120840152613d188187613960565b855161014085015260208601516101608501529150613d349050565b826101808301529d9c50505050505050505050505050565b60008060408385031215613d5f57600080fd5b8235613d6a816139b8565b91506020830135613d7a81613a89565b809150509250929050565b600080600060608486031215613d9a57600080fd5b8335925060208401359150604084013567ffffffffffffffff811115613dbf57600080fd5b613dcb86828701613b7c565b9150509250925092565b60008060008060808587031215613deb57600080fd5b8435613df6816139b8565b93506020850135613e06816139b8565b925060408501359150606085013567ffffffffffffffff811115613e2957600080fd5b613e3587828801613b7c565b91505092959194509250565b60008060408385031215613e5457600080fd5b8235613e5f816139b8565b91506020830135613d7a816139b8565b803562ffffff811681146139d857600080fd5b600060408284031215613e9457600080fd5b6040516040810181811067ffffffffffffffff82111715613eb757613eb7613abf565b604052823581526020928301359281019290925250919050565b600082601f830112613ee257600080fd5b81356020613ef2613b9b83613b30565b82815260059290921b84018101918181019086841115613f1157600080fd5b8286015b84811015613f35578035613f28816139b8565b8352918301918301613f15565b509695505050505050565b60008060008060008060c08789031215613f5957600080fd5b863567ffffffffffffffff80821115613f7157600080fd5b908801906101c0828b031215613f8657600080fd5b613f8e613ad5565b613f97836139cd565b815260208301356020820152613faf60408401613e6f565b6040820152613fc060608401613e6f565b6060820152613fd160808401613e6f565b6080820152613fe260a08401613e6f565b60a082015260c083013582811115613ff957600080fd5b6140058c828601613b7c565b60c08301525060e083013560e08201526101006140238185016139cd565b90820152610120838101358381111561403b57600080fd5b6140478d828701613b7c565b82840152505061014061405c8c828601613e82565b90820152610180838101358381111561407457600080fd5b6140808d828701613ed1565b610160840152506101a084013581830152508098505050506140a4602088016139cd565b94506140b2604088016139cd565b93506140c0606088016139cd565b92506140ce608088016139cd565b91506140dc60a08801613a97565b90509295509295509295565b600181811c908216806140fc57607f821691505b6020821081141561411d57634e487b7160e01b600052602260045260246000fd5b50919050565b634e487b7160e01b600052601160045260246000fd5b600062ffffff8083168181141561415257614152614123565b6001019392505050565b600062ffffff80831681851680830382111561417a5761417a614123565b01949350505050565b600081600019048311821515161561419d5761419d614123565b500290565b600082198211156141b5576141b5614123565b500190565b6000602082840312156141cc57600080fd5b5051919050565b6000602082840312156141e557600080fd5b815161392d816139b8565b634e487b7160e01b600052603260045260246000fd5b6060815260006142196060830186613960565b84602084015282810360408401526142318185613960565b9695505050505050565b600060001982141561424f5761424f614123565b5060010190565b60006020828403121561426857600080fd5b815167ffffffffffffffff81111561427f57600080fd5b8201601f8101841361429057600080fd5b805161429e613b9b82613b54565b8181528560208385010111156142b357600080fd5b6142c4826020830160208601613934565b95945050505050565b6000602082840312156142df57600080fd5b815161392d81613a89565b6020808252602d908201527f4552433732313a2063616c6c6572206973206e6f7420746f6b656e206f776e6560408201526c1c881bdc88185c1c1c9bdd9959609a1b606082015260800190565b60008261435457634e487b7160e01b600052601260045260246000fd5b500490565b60008282101561436b5761436b614123565b500390565b60208082526032908201527f4552433732313a207472616e7366657220746f206e6f6e20455243373231526560408201527131b2b4bb32b91034b6b83632b6b2b73a32b960711b606082015260800190565b60208082526025908201527f4552433732313a207472616e736665722066726f6d20696e636f72726563742060408201526437bbb732b960d91b606082015260800190565b6001600160a01b038581168252841660208201526040810183905260806060820181905260009061423190830184613960565b60006020828403121561444c57600080fd5b815161392d816138fa56fea26469706673582212203d1a21f246166b95e1e7c656f4d9841e3fc92f6053ba8e60d04943d68b7847c764736f6c634300080c0033",
  "linkReferences": {},
  "deployedLinkReferences": {}
}