{
  "_format": "hh-sol-artifact-1",
  "contractName": "GenerativeNFT",
  "sourceName": "contracts/nfts/GenerativeNFT.sol",
  "abi": [
    {
      "inputs": [
        {
          "internalType": "string",
          "name": "name",
          "type": "string"
        },
        {
          "internalType": "string",
          "name": "symbol",
          "type": "string"
        }
      ],
      "stateMutability": "nonpayable",
      "type": "constructor"
    },
    {
      "inputs": [
        {
          "internalType": "address",
          "name": "operator",
          "type": "address"
        }
      ],
      "name": "OperatorNotAllowed",
      "type": "error"
    },
    {
      "anonymous": false,
      "inputs": [
        {
          "indexed": true,
          "internalType": "address",
          "name": "owner",
          "type": "address"
        },
        {
          "indexed": true,
          "internalType": "address",
          "name": "approved",
          "type": "address"
        },
        {
          "indexed": true,
          "internalType": "uint256",
          "name": "tokenId",
          "type": "uint256"
        }
      ],
      "name": "Approval",
      "type": "event"
    },
    {
      "anonymous": false,
      "inputs": [
        {
          "indexed": true,
          "internalType": "address",
          "name": "owner",
          "type": "address"
        },
        {
          "indexed": true,
          "internalType": "address",
          "name": "operator",
          "type": "address"
        },
        {
          "indexed": false,
          "internalType": "bool",
          "name": "approved",
          "type": "bool"
        }
      ],
      "name": "ApprovalForAll",
      "type": "event"
    },
    {
      "anonymous": false,
      "inputs": [
        {
          "indexed": true,
          "internalType": "address",
          "name": "previousOwner",
          "type": "address"
        },
        {
          "indexed": true,
          "internalType": "address",
          "name": "newOwner",
          "type": "address"
        }
      ],
      "name": "OwnershipTransferred",
      "type": "event"
    },
    {
      "anonymous": false,
      "inputs": [
        {
          "indexed": false,
          "internalType": "address",
          "name": "account",
          "type": "address"
        }
      ],
      "name": "Paused",
      "type": "event"
    },
    {
      "anonymous": false,
      "inputs": [
        {
          "indexed": true,
          "internalType": "address",
          "name": "from",
          "type": "address"
        },
        {
          "indexed": true,
          "internalType": "address",
          "name": "to",
          "type": "address"
        },
        {
          "indexed": true,
          "internalType": "uint256",
          "name": "tokenId",
          "type": "uint256"
        }
      ],
      "name": "Transfer",
      "type": "event"
    },
    {
      "anonymous": false,
      "inputs": [
        {
          "indexed": false,
          "internalType": "address",
          "name": "account",
          "type": "address"
        }
      ],
      "name": "Unpaused",
      "type": "event"
    },
    {
      "inputs": [],
      "name": "OPERATOR_FILTER_REGISTRY",
      "outputs": [
        {
          "internalType": "contract IOperatorFilterRegistry",
          "name": "",
          "type": "address"
        }
      ],
      "stateMutability": "view",
      "type": "function"
    },
    {
      "inputs": [],
      "name": "_admin",
      "outputs": [
        {
          "internalType": "address",
          "name": "",
          "type": "address"
        }
      ],
      "stateMutability": "view",
      "type": "function"
    },
    {
      "inputs": [],
      "name": "_nameCol",
      "outputs": [
        {
          "internalType": "string",
          "name": "",
          "type": "string"
        }
      ],
      "stateMutability": "view",
      "type": "function"
    },
    {
      "inputs": [],
      "name": "_paramsAddress",
      "outputs": [
        {
          "internalType": "address",
          "name": "",
          "type": "address"
        }
      ],
      "stateMutability": "view",
      "type": "function"
    },
    {
      "inputs": [],
      "name": "_project",
      "outputs": [
        {
          "internalType": "address",
          "name": "_projectAddr",
          "type": "address"
        },
        {
          "internalType": "uint256",
          "name": "_projectId",
          "type": "uint256"
        },
        {
          "internalType": "uint24",
          "name": "_maxSupply",
          "type": "uint24"
        },
        {
          "internalType": "uint24",
          "name": "_limit",
          "type": "uint24"
        },
        {
          "internalType": "uint24",
          "name": "_index",
          "type": "uint24"
        },
        {
          "internalType": "uint24",
          "name": "_indexReserve",
          "type": "uint24"
        },
        {
          "internalType": "string",
          "name": "_creator",
          "type": "string"
        },
        {
          "internalType": "uint256",
          "name": "_mintPrice",
          "type": "uint256"
        },
        {
          "internalType": "address",
          "name": "_mintPriceAddr",
          "type": "address"
        },
        {
          "internalType": "string",
          "name": "_name",
          "type": "string"
        },
        {
          "components": [
            {
              "internalType": "uint256",
              "name": "_initBlockTime",
              "type": "uint256"
            },
            {
              "internalType": "uint256",
              "name": "_openingTime",
              "type": "uint256"
            }
          ],
          "internalType": "struct NFTProject.ProjectMintingSchedule",
          "name": "_mintingSchedule",
          "type": "tuple"
        },
        {
          "internalType": "uint256",
          "name": "_royalty",
          "type": "uint256"
        }
      ],
      "stateMutability": "view",
      "type": "function"
    },
    {
      "inputs": [],
      "name": "_projectDataContextAddr",
      "outputs": [
        {
          "internalType": "address",
          "name": "",
          "type": "address"
        }
      ],
      "stateMutability": "view",
      "type": "function"
    },
    {
      "inputs": [],
      "name": "_randomizer",
      "outputs": [
        {
          "internalType": "address",
          "name": "",
          "type": "address"
        }
      ],
      "stateMutability": "view",
      "type": "function"
    },
    {
      "inputs": [],
      "name": "_royalty",
      "outputs": [
        {
          "internalType": "uint256",
          "name": "",
          "type": "uint256"
        }
      ],
      "stateMutability": "view",
      "type": "function"
    },
    {
      "inputs": [
        {
          "internalType": "address",
          "name": "to",
          "type": "address"
        },
        {
          "internalType": "uint256",
          "name": "tokenId",
          "type": "uint256"
        }
      ],
      "name": "approve",
      "outputs": [],
      "stateMutability": "nonpayable",
      "type": "function"
    },
    {
      "inputs": [
        {
          "internalType": "address",
          "name": "owner",
          "type": "address"
        }
      ],
      "name": "balanceOf",
      "outputs": [
        {
          "internalType": "uint256",
          "name": "",
          "type": "uint256"
        }
      ],
      "stateMutability": "view",
      "type": "function"
    },
    {
      "inputs": [
        {
          "internalType": "address",
          "name": "newAdm",
          "type": "address"
        }
      ],
      "name": "changeAdmin",
      "outputs": [],
      "stateMutability": "nonpayable",
      "type": "function"
    },
    {
      "inputs": [
        {
          "internalType": "address",
          "name": "newAddr",
          "type": "address"
        }
      ],
      "name": "changeDataContextAddr",
      "outputs": [],
      "stateMutability": "nonpayable",
      "type": "function"
    },
    {
      "inputs": [
        {
          "internalType": "address",
          "name": "newAddr",
          "type": "address"
        }
      ],
      "name": "changeParamAddr",
      "outputs": [],
      "stateMutability": "nonpayable",
      "type": "function"
    },
    {
      "inputs": [
        {
          "internalType": "address",
          "name": "newAddr",
          "type": "address"
        }
      ],
      "name": "changeRandomizerAddr",
      "outputs": [],
      "stateMutability": "nonpayable",
      "type": "function"
    },
    {
      "inputs": [
        {
          "internalType": "uint256",
          "name": "tokenId",
          "type": "uint256"
        }
      ],
      "name": "getApproved",
      "outputs": [
        {
          "internalType": "address",
          "name": "",
          "type": "address"
        }
      ],
      "stateMutability": "view",
      "type": "function"
    },
    {
      "inputs": [],
      "name": "getStatus",
      "outputs": [
        {
          "internalType": "bool",
          "name": "",
          "type": "bool"
        }
      ],
      "stateMutability": "view",
      "type": "function"
    },
    {
      "inputs": [
        {
          "components": [
            {
              "internalType": "address",
              "name": "_projectAddr",
              "type": "address"
            },
            {
              "internalType": "uint256",
              "name": "_projectId",
              "type": "uint256"
            },
            {
              "internalType": "uint24",
              "name": "_maxSupply",
              "type": "uint24"
            },
            {
              "internalType": "uint24",
              "name": "_limit",
              "type": "uint24"
            },
            {
              "internalType": "uint24",
              "name": "_index",
              "type": "uint24"
            },
            {
              "internalType": "uint24",
              "name": "_indexReserve",
              "type": "uint24"
            },
            {
              "internalType": "string",
              "name": "_creator",
              "type": "string"
            },
            {
              "internalType": "uint256",
              "name": "_mintPrice",
              "type": "uint256"
            },
            {
              "internalType": "address",
              "name": "_mintPriceAddr",
              "type": "address"
            },
            {
              "internalType": "string",
              "name": "_name",
              "type": "string"
            },
            {
              "components": [
                {
                  "internalType": "uint256",
                  "name": "_initBlockTime",
                  "type": "uint256"
                },
                {
                  "internalType": "uint256",
                  "name": "_openingTime",
                  "type": "uint256"
                }
              ],
              "internalType": "struct NFTProject.ProjectMintingSchedule",
              "name": "_mintingSchedule",
              "type": "tuple"
            },
            {
              "internalType": "address[]",
              "name": "_reserves",
              "type": "address[]"
            },
            {
              "internalType": "uint256",
              "name": "_royalty",
              "type": "uint256"
            }
          ],
          "internalType": "struct NFTProject.ProjectMinting",
          "name": "project",
          "type": "tuple"
        },
        {
          "internalType": "address",
          "name": "admin",
          "type": "address"
        },
        {
          "internalType": "address",
          "name": "paramsAddr",
          "type": "address"
        },
        {
          "internalType": "address",
          "name": "randomizer",
          "type": "address"
        },
        {
          "internalType": "address",
          "name": "projectDataContextAddr",
          "type": "address"
        },
        {
          "internalType": "bool",
          "name": "disable",
          "type": "bool"
        }
      ],
      "name": "init",
      "outputs": [],
      "stateMutability": "nonpayable",
      "type": "function"
    },
    {
      "inputs": [
        {
          "internalType": "address",
          "name": "owner",
          "type": "address"
        },
        {
          "internalType": "address",
          "name": "operator",
          "type": "address"
        }
      ],
      "name": "isApprovedForAll",
      "outputs": [
        {
          "internalType": "bool",
          "name": "",
          "type": "bool"
        }
      ],
      "stateMutability": "view",
      "type": "function"
    },
    {
      "inputs": [],
      "name": "mint",
      "outputs": [
        {
          "internalType": "uint256",
          "name": "tokenId",
          "type": "uint256"
        }
      ],
      "stateMutability": "payable",
      "type": "function"
    },
    {
      "inputs": [],
      "name": "name",
      "outputs": [
        {
          "internalType": "string",
          "name": "",
          "type": "string"
        }
      ],
      "stateMutability": "view",
      "type": "function"
    },
    {
      "inputs": [],
      "name": "owner",
      "outputs": [
        {
          "internalType": "address",
          "name": "",
          "type": "address"
        }
      ],
      "stateMutability": "view",
      "type": "function"
    },
    {
      "inputs": [
        {
          "internalType": "uint256",
          "name": "tokenId",
          "type": "uint256"
        }
      ],
      "name": "ownerOf",
      "outputs": [
        {
          "internalType": "address",
          "name": "",
          "type": "address"
        }
      ],
      "stateMutability": "view",
      "type": "function"
    },
    {
      "inputs": [],
      "name": "paused",
      "outputs": [
        {
          "internalType": "bool",
          "name": "",
          "type": "bool"
        }
      ],
      "stateMutability": "view",
      "type": "function"
    },
    {
      "inputs": [],
      "name": "projectIndex",
      "outputs": [
        {
          "internalType": "uint24",
          "name": "",
          "type": "uint24"
        }
      ],
      "stateMutability": "view",
      "type": "function"
    },
    {
      "inputs": [],
      "name": "renounceOwnership",
      "outputs": [],
      "stateMutability": "nonpayable",
      "type": "function"
    },
    {
      "inputs": [],
      "name": "reserveMint",
      "outputs": [
        {
          "internalType": "uint256",
          "name": "tokenId",
          "type": "uint256"
        }
      ],
      "stateMutability": "payable",
      "type": "function"
    },
    {
      "inputs": [
        {
          "internalType": "uint256",
          "name": "_tokenId",
          "type": "uint256"
        },
        {
          "internalType": "uint256",
          "name": "_salePrice",
          "type": "uint256"
        }
      ],
      "name": "royaltyInfo",
      "outputs": [
        {
          "internalType": "address",
          "name": "receiver",
          "type": "address"
        },
        {
          "internalType": "uint256",
          "name": "royaltyAmount",
          "type": "uint256"
        }
      ],
      "stateMutability": "view",
      "type": "function"
    },
    {
      "inputs": [
        {
          "internalType": "address",
          "name": "from",
          "type": "address"
        },
        {
          "internalType": "address",
          "name": "to",
          "type": "address"
        },
        {
          "internalType": "uint256",
          "name": "tokenId",
          "type": "uint256"
        }
      ],
      "name": "safeTransferFrom",
      "outputs": [],
      "stateMutability": "nonpayable",
      "type": "function"
    },
    {
      "inputs": [
        {
          "internalType": "address",
          "name": "from",
          "type": "address"
        },
        {
          "internalType": "address",
          "name": "to",
          "type": "address"
        },
        {
          "internalType": "uint256",
          "name": "tokenId",
          "type": "uint256"
        },
        {
          "internalType": "bytes",
          "name": "data",
          "type": "bytes"
        }
      ],
      "name": "safeTransferFrom",
      "outputs": [],
      "stateMutability": "nonpayable",
      "type": "function"
    },
    {
      "inputs": [
        {
          "internalType": "address",
          "name": "operator",
          "type": "address"
        },
        {
          "internalType": "bool",
          "name": "approved",
          "type": "bool"
        }
      ],
      "name": "setApprovalForAll",
      "outputs": [],
      "stateMutability": "nonpayable",
      "type": "function"
    },
    {
      "inputs": [
        {
          "internalType": "bool",
          "name": "enable",
          "type": "bool"
        }
      ],
      "name": "setStatus",
      "outputs": [],
      "stateMutability": "nonpayable",
      "type": "function"
    },
    {
      "inputs": [
        {
          "internalType": "bytes4",
          "name": "interfaceId",
          "type": "bytes4"
        }
      ],
      "name": "supportsInterface",
      "outputs": [
        {
          "internalType": "bool",
          "name": "",
          "type": "bool"
        }
      ],
      "stateMutability": "view",
      "type": "function"
    },
    {
      "inputs": [],
      "name": "symbol",
      "outputs": [
        {
          "internalType": "string",
          "name": "",
          "type": "string"
        }
      ],
      "stateMutability": "view",
      "type": "function"
    },
    {
      "inputs": [
        {
          "internalType": "uint256",
          "name": "tokenId",
          "type": "uint256"
        }
      ],
      "name": "tokenGenerativeURI",
      "outputs": [
        {
          "internalType": "string",
          "name": "",
          "type": "string"
        }
      ],
      "stateMutability": "view",
      "type": "function"
    },
    {
      "inputs": [
        {
          "internalType": "uint256",
          "name": "tokenId",
          "type": "uint256"
        }
      ],
      "name": "tokenURI",
      "outputs": [
        {
          "internalType": "string",
          "name": "",
          "type": "string"
        }
      ],
      "stateMutability": "view",
      "type": "function"
    },
    {
      "inputs": [
        {
          "internalType": "address",
          "name": "from",
          "type": "address"
        },
        {
          "internalType": "address",
          "name": "to",
          "type": "address"
        },
        {
          "internalType": "uint256",
          "name": "tokenId",
          "type": "uint256"
        }
      ],
      "name": "transferFrom",
      "outputs": [],
      "stateMutability": "nonpayable",
      "type": "function"
    },
    {
      "inputs": [
        {
          "internalType": "address",
          "name": "newOwner",
          "type": "address"
        }
      ],
      "name": "transferOwnership",
      "outputs": [],
      "stateMutability": "nonpayable",
      "type": "function"
    },
    {
      "inputs": [
        {
          "internalType": "uint256",
          "name": "price",
          "type": "uint256"
        }
      ],
      "name": "updatePrice",
      "outputs": [],
      "stateMutability": "nonpayable",
      "type": "function"
    }
  ],
  "bytecode": "0x60806040523480156200001157600080fd5b5060405162004071380380620040718339810160408190526200003491620003b0565b733cc6cdda760b79bafa08df41ecfa224f810dceb66001838381818160009080519060200190620000679291906200023d565b5080516200007d9060019060208401906200023d565b50506006805460ff191690555060016007556200009a33620001eb565b50506daaeb6d7670e522a718067333cd4e3b15620001e15780156200012f57604051633e9f1edf60e11b81523060048201526001600160a01b03831660248201526daaeb6d7670e522a718067333cd4e90637d3e3dbe906044015b600060405180830381600087803b1580156200011057600080fd5b505af115801562000125573d6000803e3d6000fd5b50505050620001e1565b6001600160a01b03821615620001805760405163a0af290360e01b81523060048201526001600160a01b03831660248201526daaeb6d7670e522a718067333cd4e9063a0af290390604401620000f5565b604051632210724360e11b81523060048201526daaeb6d7670e522a718067333cd4e90634420e48690602401600060405180830381600087803b158015620001c757600080fd5b505af1158015620001dc573d6000803e3d6000fd5b505050505b5050505062000457565b600880546001600160a01b038381166001600160a01b0319831681179093556040519116919082907f8be0079c531659141344cd1fd0a4f28419497f9722a3daafe3b4186f6b6457e090600090a35050565b8280546200024b906200041a565b90600052602060002090601f0160209004810192826200026f5760008555620002ba565b82601f106200028a57805160ff1916838001178555620002ba565b82800160010185558215620002ba579182015b82811115620002ba5782518255916020019190600101906200029d565b50620002c8929150620002cc565b5090565b5b80821115620002c85760008155600101620002cd565b634e487b7160e01b600052604160045260246000fd5b600082601f8301126200030b57600080fd5b81516001600160401b0380821115620003285762000328620002e3565b604051601f8301601f19908116603f01168101908282118183101715620003535762000353620002e3565b816040528381526020925086838588010111156200037057600080fd5b600091505b8382101562000394578582018301518183018401529082019062000375565b83821115620003a65760008385830101525b9695505050505050565b60008060408385031215620003c457600080fd5b82516001600160401b0380821115620003dc57600080fd5b620003ea86838701620002f9565b935060208501519150808211156200040157600080fd5b506200041085828601620002f9565b9150509250929050565b600181811c908216806200042f57607f821691505b602082108114156200045157634e487b7160e01b600052602260045260246000fd5b50919050565b613c0a80620004676000396000f3fe6080604052600436106102255760003560e01c80635c975abb1161012357806395d89b41116100ab578063e985e9c51161006f578063e985e9c51461066d578063f2fde38b146106b6578063fc237452146106d6578063febfd6c3146106f6578063ffc27c0e1461071657600080fd5b806395d89b41146105d8578063a22cb465146105ed578063adfc7dae1461060d578063b88d4fde1461062d578063c87b56dd1461064d57600080fd5b8063715018a6116100f2578063715018a614610538578063775bff9f1461054d5780638d6cc56d1461057a5780638da5cb5b1461059a5780638f283970146105b857600080fd5b80635c975abb1461049a57806363184726146104b25780636352211e146104e257806370a082311461051857600080fd5b806323b872dd116101b1578063452fa3d311610175578063452fa3d314610410578063472f1e02146104255780634e69d56014610445578063575b57ea1461045a5780635c40f6f41461047a57600080fd5b806323b872dd146103595780632a55205a146103795780633b66b00a146103b857806341f43434146103ce57806342842e0e146103f057600080fd5b8063095ea7b3116101f8578063095ea7b3146102d957806310da88c5146102fb5780631249c58b1461031b5780631ca9741b1461033157806321c8d6761461035157600080fd5b806301bc45c91461022a57806301ffc9a71461026757806306fdde0314610297578063081812fc146102b9575b600080fd5b34801561023657600080fd5b50600a5461024a906001600160a01b031681565b6040516001600160a01b0390911681526020015b60405180910390f35b34801561027357600080fd5b5061028761028236600461317d565b610736565b604051901515815260200161025e565b3480156102a357600080fd5b506102ac61077c565b60405161025e91906131f9565b3480156102c557600080fd5b5061024a6102d436600461320c565b61080e565b3480156102e557600080fd5b506102f96102f436600461324a565b610835565b005b34801561030757600080fd5b506102ac61031636600461320c565b610950565b610323610a38565b60405190815260200161025e565b34801561033d57600080fd5b506102f961034c366004613276565b610c4b565b610323610cca565b34801561036557600080fd5b506102f9610374366004613293565b610fcb565b34801561038557600080fd5b506103996103943660046132d4565b610ff6565b604080516001600160a01b03909316835260208301919091520161025e565b3480156103c457600080fd5b50610323600f5481565b3480156103da57600080fd5b5061024a6daaeb6d7670e522a718067333cd4e81565b3480156103fc57600080fd5b506102f961040b366004613293565b61100e565b34801561041c57600080fd5b506102ac611033565b34801561043157600080fd5b506102f9610440366004613276565b6110c1565b34801561045157600080fd5b50610287611140565b34801561046657600080fd5b50600d5461024a906001600160a01b031681565b34801561048657600080fd5b506102f961049536600461330f565b611154565b3480156104a657600080fd5b5060065460ff16610287565b3480156104be57600080fd5b50601254600160301b900462ffffff1660405162ffffff909116815260200161025e565b3480156104ee57600080fd5b5061024a6104fd36600461320c565b6000908152600960205260409020546001600160a01b031690565b34801561052457600080fd5b50610323610533366004613276565b6111be565b34801561054457600080fd5b506102f9611244565b34801561055957600080fd5b50610562611258565b60405161025e9c9b9a9998979695949392919061332c565b34801561058657600080fd5b506102f961059536600461320c565b6113f7565b3480156105a657600080fd5b50600a546001600160a01b031661024a565b3480156105c457600080fd5b506102f96105d3366004613276565b61145a565b3480156105e457600080fd5b506102ac6114d9565b3480156105f957600080fd5b506102f96106083660046133e0565b611577565b34801561061957600080fd5b50600b5461024a906001600160a01b031681565b34801561063957600080fd5b506102f96106483660046134f0565b611586565b34801561065957600080fd5b506102ac61066836600461320c565b6115b3565b34801561067957600080fd5b50610287610688366004613570565b6001600160a01b03918216600090815260056020908152604080832093909416825291909152205460ff1690565b3480156106c257600080fd5b506102f96106d1366004613276565b611652565b3480156106e257600080fd5b506102f96106f13660046136a9565b6116c8565b34801561070257600080fd5b506102f9610711366004613276565b6119c9565b34801561072257600080fd5b50600c5461024a906001600160a01b031681565b60006001600160e01b031982166302734eab60e51b148061076757506001600160e01b0319821663152a902d60e11b145b80610776575061077682611a48565b92915050565b6060600e805461078b90613851565b80601f01602080910402602001604051908101604052809291908181526020018280546107b790613851565b80156108045780601f106107d957610100808354040283529160200191610804565b820191906000526020600020905b8154815290600101906020018083116107e757829003601f168201915b5050505050905090565b600061081982611a98565b506000908152600460205260409020546001600160a01b031690565b600061084082611ae8565b9050806001600160a01b0316836001600160a01b031614156108b35760405162461bcd60e51b815260206004820152602160248201527f4552433732313a20617070726f76616c20746f2063757272656e74206f776e656044820152603960f91b60648201526084015b60405180910390fd5b336001600160a01b03821614806108cf57506108cf8133610688565b6109415760405162461bcd60e51b815260206004820152603d60248201527f4552433732313a20617070726f76652063616c6c6572206973206e6f7420746f60448201527f6b656e206f776e6572206f7220617070726f76656420666f7220616c6c00000060648201526084016108aa565b61094b8383611b48565b505050565b606061095b82611bb6565b6040518060400160405280600381526020016232303960e81b815250906109955760405162461bcd60e51b81526004016108aa91906131f9565b50600d546001600160a01b031660006109ad84611bd3565b601154604051639413930160e01b8152600481019190915260248101869052604481018290529091506001600160a01b038316906394139301906064015b600060405180830381865afa158015610a08573d6000803e3d6000fd5b505050506040513d6000823e601f3d908101601f19168201604052610a30919081019061388c565b949350505050565b6000610a42611c9f565b60185415610a895760185460408051808201909152600381526206460760eb1b6020820152904211610a875760405162461bcd60e51b81526004016108aa91906131f9565b505b60128054600160301b900462ffffff16906006610aa583613919565b82546101009290920a62ffffff818102199093169183160217909155601254630100000081048216600160301b90910490911611159050610ae557600080fd5b60125462ffffff80821691610b0b91600160481b8204811691600160301b90041661393c565b62ffffff161415610b7c57601054601154604051631122f8a960e11b815260048101919091526001600160a01b03909116908190632245f15290602401600060405180830381600087803b158015610b6257600080fd5b505af1158015610b76573d6000803e3d6000fd5b50505050505b601254601154600160301b90910462ffffff1690610b9e90620f424090613963565b610ba89190613982565b9050610bb43382611cf9565b600c54604051631da00d8560e01b8152600481018390526001600160a01b03909116906000908290631da00d85906024016020604051808303816000875af1158015610c04573d6000803e3d6000fd5b505050506040513d601f19601f82011682018060405250810190610c28919061399a565b9050610c348382611d13565b610c3c611ddc565b5050610c486001600755565b90565b600a546001600160a01b031633148015610c6d57506001600160a01b03811615155b6040518060400160405280600381526020016231303160e81b81525090610ca75760405162461bcd60e51b81526004016108aa91906131f9565b50600c80546001600160a01b0319166001600160a01b0392909216919091179055565b6000610cd4611c9f565b60128054600160481b900462ffffff16906009610cf083613919565b82546101009290920a62ffffff8181021990931691831602179091556012548082169250610d2f9163010000008204811691600160481b90041661393c565b62ffffff161115610d3f57600080fd5b60125462ffffff80821691610d6591600160481b8204811691600160301b90041661393c565b62ffffff161415610dd657601054601154604051631122f8a960e11b815260048101919091526001600160a01b03909116908190632245f15290602401600060405180830381600087803b158015610dbc57600080fd5b505af1158015610dd0573d6000803e3d6000fd5b50505050505b601054336000908152601b60205260409020546001600160a01b039091169060ff1680610e8057506011546040516331a9108f60e11b815260048101919091526001600160a01b03821690636352211e90602401602060405180830381865afa158015610e47573d6000803e3d6000fd5b505050506040513d601f19601f82011682018060405250810190610e6b91906139b3565b6001600160a01b0316336001600160a01b0316145b610e8957600080fd5b336000908152601b602052604090205460ff168015610ea9575060185415155b15610eed5760185460408051808201909152600381526206460760eb1b6020820152904211610eeb5760405162461bcd60e51b81526004016108aa91906131f9565b505b601254610f0f9062ffffff63010000008204811691600160481b90041661393c565b62ffffff16620f4240601060010154610f289190613963565b610f329190613982565b9150610f3e3383611cf9565b600c54604051631da00d8560e01b8152600481018490526001600160a01b03909116906000908290631da00d85906024016020604051808303816000875af1158015610f8e573d6000803e3d6000fd5b505050506040513d601f19601f82011682018060405250810190610fb2919061399a565b9050610fbe8482611d13565b505050610c486001600755565b826001600160a01b0381163314610fe557610fe5336123c1565b610ff084848461247a565b50505050565b60008061100384846124ab565b915091509250929050565b826001600160a01b038116331461102857611028336123c1565b610ff0848484612645565b600e805461104090613851565b80601f016020809104026020016040519081016040528092919081815260200182805461106c90613851565b80156110b95780601f1061108e576101008083540402835291602001916110b9565b820191906000526020600020905b81548152906001019060200180831161109c57829003601f168201915b505050505081565b600a546001600160a01b0316331480156110e357506001600160a01b03811615155b6040518060400160405280600381526020016231303160e81b8152509061111d5760405162461bcd60e51b81526004016108aa91906131f9565b50600d80546001600160a01b0319166001600160a01b0392909216919091179055565b600061114e60065460ff1690565b15905090565b600a546001600160a01b031633148061117757506010546001600160a01b031633145b6040518060400160405280600381526020016231303160e81b815250906111b15760405162461bcd60e51b81526004016108aa91906131f9565b506111bb81612660565b50565b60006001600160a01b0382166112285760405162461bcd60e51b815260206004820152602960248201527f4552433732313a2061646472657373207a65726f206973206e6f7420612076616044820152683634b21037bbb732b960b91b60648201526084016108aa565b506001600160a01b031660009081526003602052604090205490565b61124c612676565b61125660006126e2565b565b60108054601154601254601380546001600160a01b0390941694929362ffffff8084169463010000008504821694600160301b8104831694600160481b909104909216929091906112a890613851565b80601f01602080910402602001604051908101604052809291908181526020018280546112d490613851565b80156113215780601f106112f657610100808354040283529160200191611321565b820191906000526020600020905b81548152906001019060200180831161130457829003601f168201915b5050505060048301546005840154600685018054949592946001600160a01b0390921693509061135090613851565b80601f016020809104026020016040519081016040528092919081815260200182805461137c90613851565b80156113c95780601f1061139e576101008083540402835291602001916113c9565b820191906000526020600020905b8154815290600101906020018083116113ac57829003601f168201915b5050604080518082019091526007860154815260088601546020820152600a9095015493949392508e915050565b600a546001600160a01b031633148061141a57506010546001600160a01b031633145b6040518060400160405280600381526020016231303160e81b815250906114545760405162461bcd60e51b81526004016108aa91906131f9565b50601455565b600a546001600160a01b03163314801561147c57506001600160a01b03811615155b6040518060400160405280600381526020016231303160e81b815250906114b65760405162461bcd60e51b81526004016108aa91906131f9565b50600a80546001600160a01b0319166001600160a01b0392909216919091179055565b606061157260016003600e80546114ef90613851565b80601f016020809104026020016040519081016040528092919081815260200182805461151b90613851565b80156115685780601f1061153d57610100808354040283529160200191611568565b820191906000526020600020905b81548152906001019060200180831161154b57829003601f168201915b5050505050612734565b905090565b61158233838361281b565b5050565b836001600160a01b03811633146115a0576115a0336123c1565b6115ac858585856128ea565b5050505050565b60606115be82611bb6565b6040518060400160405280600381526020016232303960e81b815250906115f85760405162461bcd60e51b81526004016108aa91906131f9565b50600d546001600160a01b0316600061161084611bd3565b6011546040516308dd54e960e31b8152600481019190915260248101869052604481018290529091506001600160a01b038316906346eaa748906064016109eb565b61165a612676565b6001600160a01b0381166116bf5760405162461bcd60e51b815260206004820152602660248201527f4f776e61626c653a206e6577206f776e657220697320746865207a65726f206160448201526564647265737360d01b60648201526084016108aa565b6111bb816126e2565b600a5460408051808201909152600381526219181960e91b6020820152906001600160a01b03161561170d5760405162461bcd60e51b81526004016108aa91906131f9565b5060408051808201909152600381526203130360ec1b60208201526001600160a01b03861661174f5760405162461bcd60e51b81526004016108aa91906131f9565b508551601080546001600160a01b039092166001600160a01b031990921691909117815560208088015160115560408801516012805460608b015160808c015160a08d015162ffffff908116600160481b026bffffff00000000000000000019928216600160301b02929092166bffffffffffff0000000000001993821663010000000265ffffffffffff19909516919096161792909217169290921791909117905560c0880151805189939261180b92601392910190613079565b5060e082015160048201556101008201516005820180546001600160a01b0319166001600160a01b039092169190911790556101208201518051611859916006840191602090910190613079565b50610140820151805160078301556020908101516008830155610160830151805161188a92600985019201906130fd565b506101809190910151600a91820155600b80546001600160a01b038088166001600160a01b031992831617909255825488831690821617909255600c8054868316908416179055600d80549185169190921617905561012086015160c08701516040516118fb9291906020016139d0565b604051602081830303815290604052600e908051906020019061191f929190613079565b5060005b86610160015151811015611992576001601b6000896101600151848151811061194e5761194e613a0f565b6020908102919091018101516001600160a01b03168252810191909152604001600020805460ff19169115159190911790558061198a81613a25565b915050611923565b50600a546119a8906001600160a01b0316611652565b80156119b6576119b661291c565b5050426017555050506101800151600f55565b600a546001600160a01b0316331480156119eb57506001600160a01b03811615155b6040518060400160405280600381526020016231303160e81b81525090611a255760405162461bcd60e51b81526004016108aa91906131f9565b50600b80546001600160a01b0319166001600160a01b0392909216919091179055565b60006001600160e01b031982166380ac58cd60e01b1480611a7957506001600160e01b03198216635b5e139f60e01b145b8061077657506301ffc9a760e01b6001600160e01b0319831614610776565b611aa181611bb6565b6111bb5760405162461bcd60e51b8152602060048201526018602482015277115490cdcc8c4e881a5b9d985b1a59081d1bdad95b88125160421b60448201526064016108aa565b6000818152600260205260408120546001600160a01b0316806107765760405162461bcd60e51b8152602060048201526018602482015277115490cdcc8c4e881a5b9d985b1a59081d1bdad95b88125160421b60448201526064016108aa565b600081815260046020526040902080546001600160a01b0319166001600160a01b0384169081179091558190611b7d82611ae8565b6001600160a01b03167f8c5be1e5ebec7d5bd14f71427d1e84f3dd0314c0f7b2291e5b200ac8c7c3b92560405160405180910390a45050565b6000908152600960205260409020546001600160a01b0316151590565b6000611bde82611bb6565b6040518060400160405280600381526020016232303960e81b81525090611c185760405162461bcd60e51b81526004016108aa91906131f9565b50600082815260096020526040902054600160a01b900460a01b6001600160a01b031916611c4857506000919050565b600082815260096020908152604091829020549151611c8292600160a01b900460a01b91016001600160a01b031991909116815260200190565b604051602081830303815290604052805190602001209050919050565b60026007541415611cf25760405162461bcd60e51b815260206004820152601f60248201527f5265656e7472616e637947756172643a207265656e7472616e742063616c6c0060448201526064016108aa565b6002600755565b611582828260405180602001604052806000815250612976565b600082815260096020908152604091829020548251808401909352600383526219181b60e91b91830191909152600160a01b900460a01b6001600160a01b03191615611d725760405162461bcd60e51b81526004016108aa91906131f9565b5060408051808201909152600381526232303760e81b602082015281611dab5760405162461bcd60e51b81526004016108aa91906131f9565b50600091825260096020526040909120805460a09290921c600160a01b026001600160a01b03909216919091179055565b60145480611de75750565b601054600b54604080518082018252601b81527f44454641554c545f524f59414c54595f46494e5f50455243454e54000000000060208201529051636d12dce160e01b81526001600160a01b0393841693909216916000918391636d12dce191611e53916004016131f9565b602060405180830381865afa158015611e70573d6000803e3d6000fd5b505050506040513d601f19601f82011682018060405250810190611e94919061399a565b600a54600b549192506001600160a01b039081169116156120005760408051808201825260158152744d494e545f4e46545f4f50455241544f525f46454560581b60208201529051636d12dce160e01b81526001600160a01b03851691636d12dce191611f0491906004016131f9565b602060405180830381865afa158015611f21573d6000803e3d6000fd5b505050506040513d601f19601f82011682018060405250810190611f45919061399a565b604080518082018252601f81527f4d494e545f4e46545f4f50455241544f525f54524541535552455f41444452006020820152905163bf40fac160e01b81529193506000916001600160a01b0386169163bf40fac191611fa891906004016131f9565b602060405180830381865afa158015611fc5573d6000803e3d6000fd5b505050506040513d601f19601f82011682018060405250810190611fe991906139b3565b90506001600160a01b03811615611ffe578091505b505b6015546001600160a01b031680612180578534101561201e57600080fd5b6011546040516331a9108f60e11b81526000916001600160a01b03881691636352211e916120529160040190815260200190565b602060405180830381865afa15801561206f573d6000803e3d6000fd5b505050506040513d601f19601f8201168201806040525081019061209391906139b3565b6001600160a01b03166127106120a9868a613963565b6120b39190613a40565b6120bd9089613a62565b604051600081818185875af1925050503d80600081146120f9576040519150601f19603f3d011682016040523d82523d6000602084013e6120fe565b606091505b505090508061210c57600080fd5b831561217a576001600160a01b038316612710612129868a613963565b6121339190613a40565b604051600081818185875af1925050503d806000811461216f576040519150601f19603f3d011682016040523d82523d6000602084013e612174565b606091505b50909150505b506123b9565b6040516323b872dd60e01b81523360048201523060248201526044810187905281906001600160a01b038216906323b872dd906064016020604051808303816000875af11580156121d5573d6000803e3d6000fd5b505050506040513d601f19601f820116820180604052508101906121f99190613a79565b61220257600080fd5b6011546040516331a9108f60e11b815260048101919091526001600160a01b038281169163a9059cbb91891690636352211e90602401602060405180830381865afa158015612255573d6000803e3d6000fd5b505050506040513d601f19601f8201168201806040525081019061227991906139b3565b612710612286888c613963565b6122909190613a40565b61229a908b613a62565b6040516001600160e01b031960e085901b1681526001600160a01b03909216600483015260248201526044016020604051808303816000875af11580156122e5573d6000803e3d6000fd5b505050506040513d601f19601f820116820180604052508101906123099190613a79565b61231257600080fd5b83156123b7576001600160a01b03811663a9059cbb84612710612335888c613963565b61233f9190613a40565b6040516001600160e01b031960e085901b1681526001600160a01b03909216600483015260248201526044016020604051808303816000875af115801561238a573d6000803e3d6000fd5b505050506040513d601f19601f820116820180604052508101906123ae9190613a79565b6123b757600080fd5b505b505050505050565b6daaeb6d7670e522a718067333cd4e3b156111bb57604051633185c44d60e21b81523060048201526001600160a01b03821660248201526daaeb6d7670e522a718067333cd4e9063c617113490604401602060405180830381865afa15801561242e573d6000803e3d6000fd5b505050506040513d601f19601f820116820180604052508101906124529190613a79565b6111bb57604051633b79c77360e21b81526001600160a01b03821660048201526024016108aa565b61248433826129a9565b6124a05760405162461bcd60e51b81526004016108aa90613a96565b61094b838383612a27565b600a54600f54600b546001600160a01b039283169260009291161561262457600b546040805180820182526013815272524f59414c54595f46494e5f4144445245535360681b6020820152905163bf40fac160e01b81526001600160a01b0390921691600091839163bf40fac191612525916004016131f9565b602060405180830381865afa158015612542573d6000803e3d6000fd5b505050506040513d601f19601f8201168201806040525081019061256691906139b3565b90506001600160a01b0381161561257b578094505b8261262157604080518082018252601b81527f44454641554c545f524f59414c54595f46494e5f50455243454e54000000000060208201529051636d12dce160e01b81526001600160a01b03841691636d12dce1916125dd91906004016131f9565b602060405180830381865afa1580156125fa573d6000803e3d6000fd5b505050506040513d601f19601f8201168201806040525081019061261e919061399a565b92505b50505b6127106126318286613963565b61263b9190613a40565b9150509250929050565b61094b83838360405180602001604052806000815250611586565b801561266e576111bb612a61565b6111bb61291c565b33612689600a546001600160a01b031690565b6001600160a01b031614806126a857506010546001600160a01b031633145b6040518060400160405280600381526020016203130360ec1b815250906111bb5760405162461bcd60e51b81526004016108aa91906131f9565b600880546001600160a01b038381166001600160a01b0319831681179093556040519116919082907f8be0079c531659141344cd1fd0a4f28419497f9722a3daafe3b4186f6b6457e090600090a35050565b606060006127428585613a62565b61274d906001613982565b67ffffffffffffffff81111561276557612765613419565b6040519080825280601f01601f19166020018201604052801561278f576020820181803683370190505b50905060005b61279f8686613a62565b8111612812578360016127b28884613982565b6127bc9190613a62565b815181106127cc576127cc613a0f565b602001015160f81c60f81b8282815181106127e9576127e9613a0f565b60200101906001600160f81b031916908160001a9053508061280a81613a25565b915050612795565b50949350505050565b816001600160a01b0316836001600160a01b0316141561287d5760405162461bcd60e51b815260206004820152601960248201527f4552433732313a20617070726f766520746f2063616c6c65720000000000000060448201526064016108aa565b6001600160a01b03838116600081815260056020908152604080832094871680845294825291829020805460ff191686151590811790915591519182527f17307eab39ab6107e8899845ad3d59bd9653f200f220920489ca2b5937696c31910160405180910390a3505050565b6128f433836129a9565b6129105760405162461bcd60e51b81526004016108aa90613a96565b610ff084848484612a9a565b612924612acd565b6006805460ff191660011790557f62e78cea01bee320cd4e420270b5ea74000d11b0c9f74754ebdbfc544b05a2586129593390565b6040516001600160a01b03909116815260200160405180910390a1565b6129808383612b13565b61298d6000848484612b4b565b61094b5760405162461bcd60e51b81526004016108aa90613ae3565b6000806129b583611ae8565b9050806001600160a01b0316846001600160a01b031614806129fc57506001600160a01b0380821660009081526005602090815260408083209388168352929052205460ff165b80610a305750836001600160a01b0316612a158461080e565b6001600160a01b031614949350505050565b612a32838383612c49565b600090815260096020526040902080546001600160a01b0319166001600160a01b039290921691909117905550565b612a69612dba565b6006805460ff191690557f5db9ee0a495bf2e6ff9c91a7834c1ba4fdd244a5e8aa4e537bd38aeae4b073aa33612959565b612aa5848484612a27565b612ab184848484612b4b565b610ff05760405162461bcd60e51b81526004016108aa90613ae3565b60065460ff16156112565760405162461bcd60e51b815260206004820152601060248201526f14185d5cd8589b194e881c185d5cd95960821b60448201526064016108aa565b612b1d8282612e03565b600090815260096020526040902080546001600160a01b0319166001600160a01b0392909216919091179055565b60006001600160a01b0384163b15612c3e57604051630a85bd0160e11b81526001600160a01b0385169063150b7a0290612b8f903390899088908890600401613b35565b6020604051808303816000875af1925050508015612bca575060408051601f3d908101601f19168201909252612bc791810190613b72565b60015b612c24573d808015612bf8576040519150601f19603f3d011682016040523d82523d6000602084013e612bfd565b606091505b508051612c1c5760405162461bcd60e51b81526004016108aa90613ae3565b805181602001fd5b6001600160e01b031916630a85bd0160e11b149050610a30565b506001949350505050565b826001600160a01b0316612c5c82611ae8565b6001600160a01b031614612c825760405162461bcd60e51b81526004016108aa90613b8f565b6001600160a01b038216612ce45760405162461bcd60e51b8152602060048201526024808201527f4552433732313a207472616e7366657220746f20746865207a65726f206164646044820152637265737360e01b60648201526084016108aa565b612cf18383836001612f7e565b826001600160a01b0316612d0482611ae8565b6001600160a01b031614612d2a5760405162461bcd60e51b81526004016108aa90613b8f565b600081815260046020908152604080832080546001600160a01b03199081169091556001600160a01b0387811680865260038552838620805460001901905590871680865283862080546001019055868652600290945282852080549092168417909155905184937fddf252ad1be2c89b69c2b068fc378daa952ba7f163c4a11628f55a4df523b3ef91a4505050565b60065460ff166112565760405162461bcd60e51b815260206004820152601460248201527314185d5cd8589b194e881b9bdd081c185d5cd95960621b60448201526064016108aa565b6001600160a01b038216612e595760405162461bcd60e51b815260206004820181905260248201527f4552433732313a206d696e7420746f20746865207a65726f206164647265737360448201526064016108aa565b612e6281611bb6565b15612eaf5760405162461bcd60e51b815260206004820152601c60248201527f4552433732313a20746f6b656e20616c7265616479206d696e7465640000000060448201526064016108aa565b612ebd600083836001612f7e565b612ec681611bb6565b15612f135760405162461bcd60e51b815260206004820152601c60248201527f4552433732313a20746f6b656e20616c7265616479206d696e7465640000000060448201526064016108aa565b6001600160a01b038216600081815260036020908152604080832080546001019055848352600290915280822080546001600160a01b0319168417905551839291907fddf252ad1be2c89b69c2b068fc378daa952ba7f163c4a11628f55a4df523b3ef908290a45050565b612f8a84848484612ff1565b60065460ff1615610ff05760405162461bcd60e51b815260206004820152602b60248201527f4552433732315061757361626c653a20746f6b656e207472616e73666572207760448201526a1a1a5b19481c185d5cd95960aa1b60648201526084016108aa565b6001811115610ff0576001600160a01b03841615613037576001600160a01b03841660009081526003602052604081208054839290613031908490613a62565b90915550505b6001600160a01b03831615610ff0576001600160a01b0383166000908152600360205260408120805483929061306e908490613982565b909155505050505050565b82805461308590613851565b90600052602060002090601f0160209004810192826130a757600085556130ed565b82601f106130c057805160ff19168380011785556130ed565b828001600101855582156130ed579182015b828111156130ed5782518255916020019190600101906130d2565b506130f9929150613152565b5090565b8280548282559060005260206000209081019282156130ed579160200282015b828111156130ed57825182546001600160a01b0319166001600160a01b0390911617825560209092019160019091019061311d565b5b808211156130f95760008155600101613153565b6001600160e01b0319811681146111bb57600080fd5b60006020828403121561318f57600080fd5b813561319a81613167565b9392505050565b60005b838110156131bc5781810151838201526020016131a4565b83811115610ff05750506000910152565b600081518084526131e58160208601602086016131a1565b601f01601f19169290920160200192915050565b60208152600061319a60208301846131cd565b60006020828403121561321e57600080fd5b5035919050565b6001600160a01b03811681146111bb57600080fd5b803561324581613225565b919050565b6000806040838503121561325d57600080fd5b823561326881613225565b946020939093013593505050565b60006020828403121561328857600080fd5b813561319a81613225565b6000806000606084860312156132a857600080fd5b83356132b381613225565b925060208401356132c381613225565b929592945050506040919091013590565b600080604083850312156132e757600080fd5b50508035926020909101359150565b80151581146111bb57600080fd5b8035613245816132f6565b60006020828403121561332157600080fd5b813561319a816132f6565b6001600160a01b038d168152602081018c905262ffffff8b811660408301528a811660608301528981166080830152881660a08201526101a060c0820181905260009061337b8382018a6131cd565b90508760e08401526133996101008401886001600160a01b03169052565b8281036101208401526133ac81876131cd565b8551610140850152602086015161016085015291506133c89050565b826101808301529d9c50505050505050505050505050565b600080604083850312156133f357600080fd5b82356133fe81613225565b9150602083013561340e816132f6565b809150509250929050565b634e487b7160e01b600052604160045260246000fd5b6040516101a0810167ffffffffffffffff8111828210171561345357613453613419565b60405290565b604051601f8201601f1916810167ffffffffffffffff8111828210171561348257613482613419565b604052919050565b600067ffffffffffffffff8211156134a4576134a4613419565b50601f01601f191660200190565b60006134c56134c08461348a565b613459565b90508281528383830111156134d957600080fd5b828260208301376000602084830101529392505050565b6000806000806080858703121561350657600080fd5b843561351181613225565b9350602085013561352181613225565b925060408501359150606085013567ffffffffffffffff81111561354457600080fd5b8501601f8101871361355557600080fd5b613564878235602084016134b2565b91505092959194509250565b6000806040838503121561358357600080fd5b823561358e81613225565b9150602083013561340e81613225565b803562ffffff8116811461324557600080fd5b600082601f8301126135c257600080fd5b61319a838335602085016134b2565b6000604082840312156135e357600080fd5b6040516040810181811067ffffffffffffffff8211171561360657613606613419565b604052823581526020928301359281019290925250919050565b600082601f83011261363157600080fd5b8135602067ffffffffffffffff82111561364d5761364d613419565b8160051b61365c828201613459565b928352848101820192828101908785111561367657600080fd5b83870192505b8483101561369e57823561368f81613225565b8252918301919083019061367c565b979650505050505050565b60008060008060008060c087890312156136c257600080fd5b863567ffffffffffffffff808211156136da57600080fd5b908801906101c0828b0312156136ef57600080fd5b6136f761342f565b6137008361323a565b8152602083013560208201526137186040840161359e565b60408201526137296060840161359e565b606082015261373a6080840161359e565b608082015261374b60a0840161359e565b60a082015260c08301358281111561376257600080fd5b61376e8c8286016135b1565b60c08301525060e083013560e082015261010061378c81850161323a565b9082015261012083810135838111156137a457600080fd5b6137b08d8287016135b1565b8284015250506101406137c58c8286016135d1565b9082015261018083810135838111156137dd57600080fd5b6137e98d828701613620565b610160840152506101a0840135818301525080985050505061380d6020880161323a565b945061381b6040880161323a565b93506138296060880161323a565b92506138376080880161323a565b915061384560a08801613304565b90509295509295509295565b600181811c9082168061386557607f821691505b6020821081141561388657634e487b7160e01b600052602260045260246000fd5b50919050565b60006020828403121561389e57600080fd5b815167ffffffffffffffff8111156138b557600080fd5b8201601f810184136138c657600080fd5b80516138d46134c08261348a565b8181528560208385010111156138e957600080fd5b6138fa8260208301602086016131a1565b95945050505050565b634e487b7160e01b600052601160045260246000fd5b600062ffffff8083168181141561393257613932613903565b6001019392505050565b600062ffffff80831681851680830382111561395a5761395a613903565b01949350505050565b600081600019048311821515161561397d5761397d613903565b500290565b6000821982111561399557613995613903565b500190565b6000602082840312156139ac57600080fd5b5051919050565b6000602082840312156139c557600080fd5b815161319a81613225565b600083516139e28184602088016131a1565b63010313c960e51b9083019081528351613a038160048401602088016131a1565b01600401949350505050565b634e487b7160e01b600052603260045260246000fd5b6000600019821415613a3957613a39613903565b5060010190565b600082613a5d57634e487b7160e01b600052601260045260246000fd5b500490565b600082821015613a7457613a74613903565b500390565b600060208284031215613a8b57600080fd5b815161319a816132f6565b6020808252602d908201527f4552433732313a2063616c6c6572206973206e6f7420746f6b656e206f776e6560408201526c1c881bdc88185c1c1c9bdd9959609a1b606082015260800190565b60208082526032908201527f4552433732313a207472616e7366657220746f206e6f6e20455243373231526560408201527131b2b4bb32b91034b6b83632b6b2b73a32b960711b606082015260800190565b6001600160a01b0385811682528416602082015260408101839052608060608201819052600090613b68908301846131cd565b9695505050505050565b600060208284031215613b8457600080fd5b815161319a81613167565b60208082526025908201527f4552433732313a207472616e736665722066726f6d20696e636f72726563742060408201526437bbb732b960d91b60608201526080019056fea264697066735822122053afcbb13dc70ae53ff0ed29b4e254aa0edf6e00d1b4aad2ddf8ce7e3b55218664736f6c634300080c0033",
  "linkReferences": {},
  "deployedLinkReferences": {}
}