{
  "_format": "hh-sol-artifact-1",
  "contractName": "GenerativeNFT",
  "sourceName": "contracts/nfts/GenerativeNFT.sol",
  "abi": [
    {
      "inputs": [
        {
          "internalType": "string",
          "name": "name",
          "type": "string"
        },
        {
          "internalType": "string",
          "name": "symbol",
          "type": "string"
        }
      ],
      "stateMutability": "nonpayable",
      "type": "constructor"
    },
    {
      "inputs": [
        {
          "internalType": "address",
          "name": "operator",
          "type": "address"
        }
      ],
      "name": "OperatorNotAllowed",
      "type": "error"
    },
    {
      "anonymous": false,
      "inputs": [
        {
          "indexed": true,
          "internalType": "address",
          "name": "owner",
          "type": "address"
        },
        {
          "indexed": true,
          "internalType": "address",
          "name": "approved",
          "type": "address"
        },
        {
          "indexed": true,
          "internalType": "uint256",
          "name": "tokenId",
          "type": "uint256"
        }
      ],
      "name": "Approval",
      "type": "event"
    },
    {
      "anonymous": false,
      "inputs": [
        {
          "indexed": true,
          "internalType": "address",
          "name": "owner",
          "type": "address"
        },
        {
          "indexed": true,
          "internalType": "address",
          "name": "operator",
          "type": "address"
        },
        {
          "indexed": false,
          "internalType": "bool",
          "name": "approved",
          "type": "bool"
        }
      ],
      "name": "ApprovalForAll",
      "type": "event"
    },
    {
      "anonymous": false,
      "inputs": [
        {
          "indexed": true,
          "internalType": "address",
          "name": "previousOwner",
          "type": "address"
        },
        {
          "indexed": true,
          "internalType": "address",
          "name": "newOwner",
          "type": "address"
        }
      ],
      "name": "OwnershipTransferred",
      "type": "event"
    },
    {
      "anonymous": false,
      "inputs": [
        {
          "indexed": false,
          "internalType": "address",
          "name": "account",
          "type": "address"
        }
      ],
      "name": "Paused",
      "type": "event"
    },
    {
      "anonymous": false,
      "inputs": [
        {
          "indexed": true,
          "internalType": "address",
          "name": "from",
          "type": "address"
        },
        {
          "indexed": true,
          "internalType": "address",
          "name": "to",
          "type": "address"
        },
        {
          "indexed": true,
          "internalType": "uint256",
          "name": "tokenId",
          "type": "uint256"
        }
      ],
      "name": "Transfer",
      "type": "event"
    },
    {
      "anonymous": false,
      "inputs": [
        {
          "indexed": false,
          "internalType": "address",
          "name": "account",
          "type": "address"
        }
      ],
      "name": "Unpaused",
      "type": "event"
    },
    {
      "inputs": [],
      "name": "OPERATOR_FILTER_REGISTRY",
      "outputs": [
        {
          "internalType": "contract IOperatorFilterRegistry",
          "name": "",
          "type": "address"
        }
      ],
      "stateMutability": "view",
      "type": "function"
    },
    {
      "inputs": [],
      "name": "_admin",
      "outputs": [
        {
          "internalType": "address",
          "name": "",
          "type": "address"
        }
      ],
      "stateMutability": "view",
      "type": "function"
    },
    {
      "inputs": [],
      "name": "_nameCol",
      "outputs": [
        {
          "internalType": "string",
          "name": "",
          "type": "string"
        }
      ],
      "stateMutability": "view",
      "type": "function"
    },
    {
      "inputs": [],
      "name": "_paramsAddress",
      "outputs": [
        {
          "internalType": "address",
          "name": "",
          "type": "address"
        }
      ],
      "stateMutability": "view",
      "type": "function"
    },
    {
      "inputs": [],
      "name": "_project",
      "outputs": [
        {
          "internalType": "address",
          "name": "_projectAddr",
          "type": "address"
        },
        {
          "internalType": "uint256",
          "name": "_projectId",
          "type": "uint256"
        },
        {
          "internalType": "uint24",
          "name": "_maxSupply",
          "type": "uint24"
        },
        {
          "internalType": "uint24",
          "name": "_limit",
          "type": "uint24"
        },
        {
          "internalType": "uint24",
          "name": "_index",
          "type": "uint24"
        },
        {
          "internalType": "uint24",
          "name": "_indexReserve",
          "type": "uint24"
        },
        {
          "internalType": "string",
          "name": "_creator",
          "type": "string"
        },
        {
          "internalType": "uint256",
          "name": "_mintPrice",
          "type": "uint256"
        },
        {
          "internalType": "address",
          "name": "_mintPriceAddr",
          "type": "address"
        },
        {
          "internalType": "string",
          "name": "_name",
          "type": "string"
        },
        {
          "components": [
            {
              "internalType": "uint256",
              "name": "_initBlockTime",
              "type": "uint256"
            },
            {
              "internalType": "uint256",
              "name": "_openingTime",
              "type": "uint256"
            }
          ],
          "internalType": "struct NFTProject.ProjectMintingSchedule",
          "name": "_mintingSchedule",
          "type": "tuple"
        },
        {
          "internalType": "uint256",
          "name": "_royalty",
          "type": "uint256"
        }
      ],
      "stateMutability": "view",
      "type": "function"
    },
    {
      "inputs": [],
      "name": "_projectDataContextAddr",
      "outputs": [
        {
          "internalType": "address",
          "name": "",
          "type": "address"
        }
      ],
      "stateMutability": "view",
      "type": "function"
    },
    {
      "inputs": [],
      "name": "_randomizer",
      "outputs": [
        {
          "internalType": "address",
          "name": "",
          "type": "address"
        }
      ],
      "stateMutability": "view",
      "type": "function"
    },
    {
      "inputs": [],
      "name": "_royalty",
      "outputs": [
        {
          "internalType": "uint256",
          "name": "",
          "type": "uint256"
        }
      ],
      "stateMutability": "view",
      "type": "function"
    },
    {
      "inputs": [
        {
          "internalType": "address",
          "name": "to",
          "type": "address"
        },
        {
          "internalType": "uint256",
          "name": "tokenId",
          "type": "uint256"
        }
      ],
      "name": "approve",
      "outputs": [],
      "stateMutability": "nonpayable",
      "type": "function"
    },
    {
      "inputs": [
        {
          "internalType": "address",
          "name": "owner",
          "type": "address"
        }
      ],
      "name": "balanceOf",
      "outputs": [
        {
          "internalType": "uint256",
          "name": "",
          "type": "uint256"
        }
      ],
      "stateMutability": "view",
      "type": "function"
    },
    {
      "inputs": [
        {
          "internalType": "address",
          "name": "newAdm",
          "type": "address"
        }
      ],
      "name": "changeAdmin",
      "outputs": [],
      "stateMutability": "nonpayable",
      "type": "function"
    },
    {
      "inputs": [
        {
          "internalType": "address",
          "name": "newAddr",
          "type": "address"
        }
      ],
      "name": "changeDataContextAddr",
      "outputs": [],
      "stateMutability": "nonpayable",
      "type": "function"
    },
    {
      "inputs": [
        {
          "internalType": "address",
          "name": "newAddr",
          "type": "address"
        }
      ],
      "name": "changeParamAddr",
      "outputs": [],
      "stateMutability": "nonpayable",
      "type": "function"
    },
    {
      "inputs": [
        {
          "internalType": "address",
          "name": "newAddr",
          "type": "address"
        }
      ],
      "name": "changeRandomizerAddr",
      "outputs": [],
      "stateMutability": "nonpayable",
      "type": "function"
    },
    {
      "inputs": [
        {
          "internalType": "uint256",
          "name": "tokenId",
          "type": "uint256"
        }
      ],
      "name": "getApproved",
      "outputs": [
        {
          "internalType": "address",
          "name": "",
          "type": "address"
        }
      ],
      "stateMutability": "view",
      "type": "function"
    },
    {
      "inputs": [],
      "name": "getStatus",
      "outputs": [
        {
          "internalType": "bool",
          "name": "",
          "type": "bool"
        }
      ],
      "stateMutability": "view",
      "type": "function"
    },
    {
      "inputs": [
        {
          "components": [
            {
              "internalType": "address",
              "name": "_projectAddr",
              "type": "address"
            },
            {
              "internalType": "uint256",
              "name": "_projectId",
              "type": "uint256"
            },
            {
              "internalType": "uint24",
              "name": "_maxSupply",
              "type": "uint24"
            },
            {
              "internalType": "uint24",
              "name": "_limit",
              "type": "uint24"
            },
            {
              "internalType": "uint24",
              "name": "_index",
              "type": "uint24"
            },
            {
              "internalType": "uint24",
              "name": "_indexReserve",
              "type": "uint24"
            },
            {
              "internalType": "string",
              "name": "_creator",
              "type": "string"
            },
            {
              "internalType": "uint256",
              "name": "_mintPrice",
              "type": "uint256"
            },
            {
              "internalType": "address",
              "name": "_mintPriceAddr",
              "type": "address"
            },
            {
              "internalType": "string",
              "name": "_name",
              "type": "string"
            },
            {
              "components": [
                {
                  "internalType": "uint256",
                  "name": "_initBlockTime",
                  "type": "uint256"
                },
                {
                  "internalType": "uint256",
                  "name": "_openingTime",
                  "type": "uint256"
                }
              ],
              "internalType": "struct NFTProject.ProjectMintingSchedule",
              "name": "_mintingSchedule",
              "type": "tuple"
            },
            {
              "internalType": "address[]",
              "name": "_reserves",
              "type": "address[]"
            },
            {
              "internalType": "uint256",
              "name": "_royalty",
              "type": "uint256"
            }
          ],
          "internalType": "struct NFTProject.ProjectMinting",
          "name": "project",
          "type": "tuple"
        },
        {
          "internalType": "address",
          "name": "admin",
          "type": "address"
        },
        {
          "internalType": "address",
          "name": "paramsAddr",
          "type": "address"
        },
        {
          "internalType": "address",
          "name": "randomizer",
          "type": "address"
        },
        {
          "internalType": "address",
          "name": "projectDataContextAddr",
          "type": "address"
        },
        {
          "internalType": "bool",
          "name": "disable",
          "type": "bool"
        }
      ],
      "name": "init",
      "outputs": [],
      "stateMutability": "nonpayable",
      "type": "function"
    },
    {
      "inputs": [
        {
          "internalType": "address",
          "name": "owner",
          "type": "address"
        },
        {
          "internalType": "address",
          "name": "operator",
          "type": "address"
        }
      ],
      "name": "isApprovedForAll",
      "outputs": [
        {
          "internalType": "bool",
          "name": "",
          "type": "bool"
        }
      ],
      "stateMutability": "view",
      "type": "function"
    },
    {
      "inputs": [
        {
          "internalType": "bytes[]",
          "name": "chunks",
          "type": "bytes[]"
        }
      ],
      "name": "mint",
      "outputs": [
        {
          "internalType": "uint256",
          "name": "tokenId",
          "type": "uint256"
        }
      ],
      "stateMutability": "payable",
      "type": "function"
    },
    {
      "inputs": [],
      "name": "name",
      "outputs": [
        {
          "internalType": "string",
          "name": "",
          "type": "string"
        }
      ],
      "stateMutability": "view",
      "type": "function"
    },
    {
      "inputs": [],
      "name": "owner",
      "outputs": [
        {
          "internalType": "address",
          "name": "",
          "type": "address"
        }
      ],
      "stateMutability": "view",
      "type": "function"
    },
    {
      "inputs": [
        {
          "internalType": "uint256",
          "name": "tokenId",
          "type": "uint256"
        }
      ],
      "name": "ownerOf",
      "outputs": [
        {
          "internalType": "address",
          "name": "",
          "type": "address"
        }
      ],
      "stateMutability": "view",
      "type": "function"
    },
    {
      "inputs": [],
      "name": "paused",
      "outputs": [
        {
          "internalType": "bool",
          "name": "",
          "type": "bool"
        }
      ],
      "stateMutability": "view",
      "type": "function"
    },
    {
      "inputs": [],
      "name": "projectAddress",
      "outputs": [
        {
          "internalType": "address",
          "name": "",
          "type": "address"
        }
      ],
      "stateMutability": "view",
      "type": "function"
    },
    {
      "inputs": [],
      "name": "projectIndex",
      "outputs": [
        {
          "internalType": "uint24",
          "name": "",
          "type": "uint24"
        }
      ],
      "stateMutability": "view",
      "type": "function"
    },
    {
      "inputs": [],
      "name": "renounceOwnership",
      "outputs": [],
      "stateMutability": "nonpayable",
      "type": "function"
    },
    {
      "inputs": [
        {
          "internalType": "bytes[]",
          "name": "chunks",
          "type": "bytes[]"
        }
      ],
      "name": "reserveMint",
      "outputs": [
        {
          "internalType": "uint256",
          "name": "tokenId",
          "type": "uint256"
        }
      ],
      "stateMutability": "payable",
      "type": "function"
    },
    {
      "inputs": [
        {
          "internalType": "uint256",
          "name": "_tokenId",
          "type": "uint256"
        },
        {
          "internalType": "uint256",
          "name": "_salePrice",
          "type": "uint256"
        }
      ],
      "name": "royaltyInfo",
      "outputs": [
        {
          "internalType": "address",
          "name": "receiver",
          "type": "address"
        },
        {
          "internalType": "uint256",
          "name": "royaltyAmount",
          "type": "uint256"
        }
      ],
      "stateMutability": "view",
      "type": "function"
    },
    {
      "inputs": [
        {
          "internalType": "address",
          "name": "from",
          "type": "address"
        },
        {
          "internalType": "address",
          "name": "to",
          "type": "address"
        },
        {
          "internalType": "uint256",
          "name": "tokenId",
          "type": "uint256"
        }
      ],
      "name": "safeTransferFrom",
      "outputs": [],
      "stateMutability": "nonpayable",
      "type": "function"
    },
    {
      "inputs": [
        {
          "internalType": "address",
          "name": "from",
          "type": "address"
        },
        {
          "internalType": "address",
          "name": "to",
          "type": "address"
        },
        {
          "internalType": "uint256",
          "name": "tokenId",
          "type": "uint256"
        },
        {
          "internalType": "bytes",
          "name": "data",
          "type": "bytes"
        }
      ],
      "name": "safeTransferFrom",
      "outputs": [],
      "stateMutability": "nonpayable",
      "type": "function"
    },
    {
      "inputs": [
        {
          "internalType": "address",
          "name": "operator",
          "type": "address"
        },
        {
          "internalType": "bool",
          "name": "approved",
          "type": "bool"
        }
      ],
      "name": "setApprovalForAll",
      "outputs": [],
      "stateMutability": "nonpayable",
      "type": "function"
    },
    {
      "inputs": [
        {
          "internalType": "bool",
          "name": "enable",
          "type": "bool"
        }
      ],
      "name": "setStatus",
      "outputs": [],
      "stateMutability": "nonpayable",
      "type": "function"
    },
    {
      "inputs": [
        {
          "internalType": "bytes4",
          "name": "interfaceId",
          "type": "bytes4"
        }
      ],
      "name": "supportsInterface",
      "outputs": [
        {
          "internalType": "bool",
          "name": "",
          "type": "bool"
        }
      ],
      "stateMutability": "view",
      "type": "function"
    },
    {
      "inputs": [],
      "name": "symbol",
      "outputs": [
        {
          "internalType": "string",
          "name": "",
          "type": "string"
        }
      ],
      "stateMutability": "view",
      "type": "function"
    },
    {
      "inputs": [
        {
          "internalType": "uint256",
          "name": "tokenId",
          "type": "uint256"
        }
      ],
      "name": "tokenIdToHash",
      "outputs": [
        {
          "internalType": "bytes32",
          "name": "",
          "type": "bytes32"
        }
      ],
      "stateMutability": "view",
      "type": "function"
    },
    {
      "inputs": [
        {
          "internalType": "uint256",
          "name": "tokenId",
          "type": "uint256"
        }
      ],
      "name": "tokenURI",
      "outputs": [
        {
          "internalType": "string",
          "name": "",
          "type": "string"
        }
      ],
      "stateMutability": "view",
      "type": "function"
    },
    {
      "inputs": [
        {
          "internalType": "address",
          "name": "from",
          "type": "address"
        },
        {
          "internalType": "address",
          "name": "to",
          "type": "address"
        },
        {
          "internalType": "uint256",
          "name": "tokenId",
          "type": "uint256"
        }
      ],
      "name": "transferFrom",
      "outputs": [],
      "stateMutability": "nonpayable",
      "type": "function"
    },
    {
      "inputs": [
        {
          "internalType": "address",
          "name": "newOwner",
          "type": "address"
        }
      ],
      "name": "transferOwnership",
      "outputs": [],
      "stateMutability": "nonpayable",
      "type": "function"
    },
    {
      "inputs": [
        {
          "internalType": "uint256",
          "name": "price",
          "type": "uint256"
        }
      ],
      "name": "updatePrice",
      "outputs": [],
      "stateMutability": "nonpayable",
      "type": "function"
    }
  ],
  "bytecode": "0x60806040523480156200001157600080fd5b5060405162004576380380620045768339810160408190526200003491620003b0565b733cc6cdda760b79bafa08df41ecfa224f810dceb66001838381818160009080519060200190620000679291906200023d565b5080516200007d9060019060208401906200023d565b50506006805460ff191690555060016007556200009a33620001eb565b50506daaeb6d7670e522a718067333cd4e3b15620001e15780156200012f57604051633e9f1edf60e11b81523060048201526001600160a01b03831660248201526daaeb6d7670e522a718067333cd4e90637d3e3dbe906044015b600060405180830381600087803b1580156200011057600080fd5b505af115801562000125573d6000803e3d6000fd5b50505050620001e1565b6001600160a01b03821615620001805760405163a0af290360e01b81523060048201526001600160a01b03831660248201526daaeb6d7670e522a718067333cd4e9063a0af290390604401620000f5565b604051632210724360e11b81523060048201526daaeb6d7670e522a718067333cd4e90634420e48690602401600060405180830381600087803b158015620001c757600080fd5b505af1158015620001dc573d6000803e3d6000fd5b505050505b5050505062000457565b600880546001600160a01b038381166001600160a01b0319831681179093556040519116919082907f8be0079c531659141344cd1fd0a4f28419497f9722a3daafe3b4186f6b6457e090600090a35050565b8280546200024b906200041a565b90600052602060002090601f0160209004810192826200026f5760008555620002ba565b82601f106200028a57805160ff1916838001178555620002ba565b82800160010185558215620002ba579182015b82811115620002ba5782518255916020019190600101906200029d565b50620002c8929150620002cc565b5090565b5b80821115620002c85760008155600101620002cd565b634e487b7160e01b600052604160045260246000fd5b600082601f8301126200030b57600080fd5b81516001600160401b0380821115620003285762000328620002e3565b604051601f8301601f19908116603f01168101908282118183101715620003535762000353620002e3565b816040528381526020925086838588010111156200037057600080fd5b600091505b8382101562000394578582018301518183018401529082019062000375565b83821115620003a65760008385830101525b9695505050505050565b60008060408385031215620003c457600080fd5b82516001600160401b0380821115620003dc57600080fd5b620003ea86838701620002f9565b935060208501519150808211156200040157600080fd5b506200041085828601620002f9565b9150509250929050565b600181811c908216806200042f57607f821691505b602082108114156200045157634e487b7160e01b600052602260045260246000fd5b50919050565b61410f80620004676000396000f3fe6080604052600436106102305760003560e01c80635c975abb1161012e57806395d89b41116100ab578063e985e9c51161006f578063e985e9c5146106ac578063f2fde38b146106f5578063fc23745214610715578063febfd6c314610735578063ffc27c0e1461075557600080fd5b806395d89b4114610617578063a22cb4651461062c578063adfc7dae1461064c578063b88d4fde1461066c578063c87b56dd1461068c57600080fd5b8063715018a6116100f2578063715018a614610577578063775bff9f1461058c5780638d6cc56d146105b95780638da5cb5b146105d95780638f283970146105f757600080fd5b80635c975abb146104b9578063621a1f74146104d157806363184726146104f15780636352211e1461052157806370a082311461055757600080fd5b80632a55205a116101bc578063452fa3d311610180578063452fa3d31461042f578063472f1e02146104445780634e69d56014610464578063575b57ea146104795780635c40f6f41461049957600080fd5b80632a55205a1461037a5780633b66b00a146103b95780633cf96af1146103cf57806341f43434146103ed57806342842e0e1461040f57600080fd5b8063081812fc11610203578063081812fc146102e5578063095ea7b31461030557806316c464ae146103275780631ca9741b1461033a57806323b872dd1461035a57600080fd5b806301bc45c91461023557806301ffc9a7146102725780630423bf66146102a257806306fdde03146102c3575b600080fd5b34801561024157600080fd5b50600a54610255906001600160a01b031681565b6040516001600160a01b0390911681526020015b60405180910390f35b34801561027e57600080fd5b5061029261028d3660046135fc565b610775565b6040519015158152602001610269565b6102b56102b0366004613733565b6107bb565b604051908152602001610269565b3480156102cf57600080fd5b506102d8610c05565b604051610269919061383c565b3480156102f157600080fd5b5061025561030036600461384f565b610c97565b34801561031157600080fd5b50610325610320366004613888565b610cbe565b005b6102b5610335366004613733565b610dd4565b34801561034657600080fd5b506103256103553660046138b4565b61111f565b34801561036657600080fd5b506103256103753660046138d1565b61119e565b34801561038657600080fd5b5061039a610395366004613912565b6111c9565b604080516001600160a01b039093168352602083019190915201610269565b3480156103c557600080fd5b506102b5600f5481565b3480156103db57600080fd5b506010546001600160a01b0316610255565b3480156103f957600080fd5b506102556daaeb6d7670e522a718067333cd4e81565b34801561041b57600080fd5b5061032561042a3660046138d1565b6111e1565b34801561043b57600080fd5b506102d8611206565b34801561045057600080fd5b5061032561045f3660046138b4565b611294565b34801561047057600080fd5b50610292611313565b34801561048557600080fd5b50600d54610255906001600160a01b031681565b3480156104a557600080fd5b506103256104b436600461394d565b611327565b3480156104c557600080fd5b5060065460ff16610292565b3480156104dd57600080fd5b506102b56104ec36600461384f565b611391565b3480156104fd57600080fd5b50601254600160301b900462ffffff1660405162ffffff9091168152602001610269565b34801561052d57600080fd5b5061025561053c36600461384f565b6000908152600960205260409020546001600160a01b031690565b34801561056357600080fd5b506102b56105723660046138b4565b61146c565b34801561058357600080fd5b506103256114f2565b34801561059857600080fd5b506105a1611506565b6040516102699c9b9a9998979695949392919061396a565b3480156105c557600080fd5b506103256105d436600461384f565b6116a5565b3480156105e557600080fd5b50600a546001600160a01b0316610255565b34801561060357600080fd5b506103256106123660046138b4565b611708565b34801561062357600080fd5b506102d8611787565b34801561063857600080fd5b50610325610647366004613a1e565b611825565b34801561065857600080fd5b50600b54610255906001600160a01b031681565b34801561067857600080fd5b50610325610687366004613a57565b611834565b34801561069857600080fd5b506102d86106a736600461384f565b611861565b3480156106b857600080fd5b506102926106c7366004613ac3565b6001600160a01b03918216600090815260056020908152604080832093909416825291909152205460ff1690565b34801561070157600080fd5b506103256107103660046138b4565b6119b5565b34801561072157600080fd5b50610325610730366004613bc2565b611a2b565b34801561074157600080fd5b506103256107503660046138b4565b611d06565b34801561076157600080fd5b50600c54610255906001600160a01b031681565b60006001600160e01b031982166302734eab60e51b14806107a657506001600160e01b0319821663152a902d60e11b145b806107b557506107b582611d85565b92915050565b60006107c5611dd5565b60128054600160481b900462ffffff169060096107e183613d80565b82546101009290920a62ffffff81810219909316918316021790915560125480821692506108209163010000008204811691600160481b900416613da3565b62ffffff16111561083057600080fd5b60125462ffffff8082169161085691600160481b8204811691600160301b900416613da3565b62ffffff1614156108c757601054601154604051631122f8a960e11b815260048101919091526001600160a01b03909116908190632245f15290602401600060405180830381600087803b1580156108ad57600080fd5b505af11580156108c1573d6000803e3d6000fd5b50505050505b601054336000908152601b60205260409020546001600160a01b039091169060ff168061097157506011546040516331a9108f60e11b815260048101919091526001600160a01b03821690636352211e90602401602060405180830381865afa158015610938573d6000803e3d6000fd5b505050506040513d601f19601f8201168201806040525081019061095c9190613dca565b6001600160a01b0316336001600160a01b0316145b61097a57600080fd5b336000908152601b602052604090205460ff16801561099a575060185415155b156109e75760185460408051808201909152600381526206460760eb1b60208201529042116109e55760405162461bcd60e51b81526004016109dc919061383c565b60405180910390fd5b505b601254610a099062ffffff63010000008204811691600160481b900416613da3565b62ffffff16620f4240601060010154610a229190613de7565b610a2c9190613e06565b9150610a383383611e2f565b600c54604051631da00d8560e01b8152600481018490526001600160a01b03909116906000908290631da00d85906024016020604051808303816000875af1158015610a88573d6000803e3d6000fd5b505050506040513d601f19601f82011682018060405250810190610aac9190613e1e565b9050610ab88482611e49565b600b80546040805180820182529283526a4246535f4144445245535360a81b60208401525163bf40fac160e01b81526001600160a01b0390911691600091839163bf40fac191610b0b919060040161383c565b602060405180830381865afa158015610b28573d6000803e3d6000fd5b505050506040513d601f19601f82011682018060405250810190610b4c9190613dca565b905060005b8751811015610bf057816001600160a01b031663928a4b3e610b7286611f12565b838b8581518110610b8557610b85613e37565b60200260200101516040518463ffffffff1660e01b8152600401610bab93929190613e4d565b600060405180830381600087803b158015610bc557600080fd5b505af1158015610bd9573d6000803e3d6000fd5b505050508080610be890613e82565b915050610b51565b505050505050610c006001600755565b919050565b6060600e8054610c1490613e9d565b80601f0160208091040260200160405190810160405280929190818152602001828054610c4090613e9d565b8015610c8d5780601f10610c6257610100808354040283529160200191610c8d565b820191906000526020600020905b815481529060010190602001808311610c7057829003601f168201915b5050505050905090565b6000610ca282611f5e565b506000908152600460205260409020546001600160a01b031690565b6000610cc982611fbd565b9050806001600160a01b0316836001600160a01b03161415610d375760405162461bcd60e51b815260206004820152602160248201527f4552433732313a20617070726f76616c20746f2063757272656e74206f776e656044820152603960f91b60648201526084016109dc565b336001600160a01b0382161480610d535750610d5381336106c7565b610dc55760405162461bcd60e51b815260206004820152603d60248201527f4552433732313a20617070726f76652063616c6c6572206973206e6f7420746f60448201527f6b656e206f776e6572206f7220617070726f76656420666f7220616c6c00000060648201526084016109dc565b610dcf838361201d565b505050565b6000610dde611dd5565b60185415610e255760185460408051808201909152600381526206460760eb1b6020820152904211610e235760405162461bcd60e51b81526004016109dc919061383c565b505b60128054600160301b900462ffffff16906006610e4183613d80565b82546101009290920a62ffffff818102199093169183160217909155601254630100000081048216600160301b90910490911611159050610e8157600080fd5b60125462ffffff80821691610ea791600160481b8204811691600160301b900416613da3565b62ffffff161415610f1857601054601154604051631122f8a960e11b815260048101919091526001600160a01b03909116908190632245f15290602401600060405180830381600087803b158015610efe57600080fd5b505af1158015610f12573d6000803e3d6000fd5b50505050505b601254601154600160301b90910462ffffff1690610f3a90620f424090613de7565b610f449190613e06565b9050610f503382611e2f565b600c54604051631da00d8560e01b8152600481018390526001600160a01b03909116906000908290631da00d85906024016020604051808303816000875af1158015610fa0573d6000803e3d6000fd5b505050506040513d601f19601f82011682018060405250810190610fc49190613e1e565b9050610fd08382611e49565b600b80546040805180820182529283526a4246535f4144445245535360a81b60208401525163bf40fac160e01b81526001600160a01b0390911691600091839163bf40fac191611023919060040161383c565b602060405180830381865afa158015611040573d6000803e3d6000fd5b505050506040513d601f19601f820116820180604052508101906110649190613dca565b905060005b865181101561110857816001600160a01b031663928a4b3e61108a86611f12565b838a858151811061109d5761109d613e37565b60200260200101516040518463ffffffff1660e01b81526004016110c393929190613e4d565b600060405180830381600087803b1580156110dd57600080fd5b505af11580156110f1573d6000803e3d6000fd5b50505050808061110090613e82565b915050611069565b5061111161208b565b50505050610c006001600755565b600a546001600160a01b03163314801561114157506001600160a01b03811615155b6040518060400160405280600381526020016231303160e81b8152509061117b5760405162461bcd60e51b81526004016109dc919061383c565b50600c80546001600160a01b0319166001600160a01b0392909216919091179055565b826001600160a01b03811633146111b8576111b833612670565b6111c3848484612729565b50505050565b6000806111d6848461275a565b915091509250929050565b826001600160a01b03811633146111fb576111fb33612670565b6111c38484846128f4565b600e805461121390613e9d565b80601f016020809104026020016040519081016040528092919081815260200182805461123f90613e9d565b801561128c5780601f106112615761010080835404028352916020019161128c565b820191906000526020600020905b81548152906001019060200180831161126f57829003601f168201915b505050505081565b600a546001600160a01b0316331480156112b657506001600160a01b03811615155b6040518060400160405280600381526020016231303160e81b815250906112f05760405162461bcd60e51b81526004016109dc919061383c565b50600d80546001600160a01b0319166001600160a01b0392909216919091179055565b600061132160065460ff1690565b15905090565b600a546001600160a01b031633148061134a57506010546001600160a01b031633145b6040518060400160405280600381526020016231303160e81b815250906113845760405162461bcd60e51b81526004016109dc919061383c565b5061138e8161290f565b50565b6000818152600960205260408120546001600160a01b031615156040518060400160405280600381526020016232303960e81b815250906113e55760405162461bcd60e51b81526004016109dc919061383c565b50600082815260096020526040902054600160a01b900460a01b6001600160a01b03191661141557506000919050565b60008281526009602090815260409182902054915161144f92600160a01b900460a01b91016001600160a01b031991909116815260200190565b604051602081830303815290604052805190602001209050919050565b60006001600160a01b0382166114d65760405162461bcd60e51b815260206004820152602960248201527f4552433732313a2061646472657373207a65726f206973206e6f7420612076616044820152683634b21037bbb732b960b91b60648201526084016109dc565b506001600160a01b031660009081526003602052604090205490565b6114fa612925565b6115046000612991565b565b60108054601154601254601380546001600160a01b0390941694929362ffffff8084169463010000008504821694600160301b8104831694600160481b9091049092169290919061155690613e9d565b80601f016020809104026020016040519081016040528092919081815260200182805461158290613e9d565b80156115cf5780601f106115a4576101008083540402835291602001916115cf565b820191906000526020600020905b8154815290600101906020018083116115b257829003601f168201915b5050505060048301546005840154600685018054949592946001600160a01b039092169350906115fe90613e9d565b80601f016020809104026020016040519081016040528092919081815260200182805461162a90613e9d565b80156116775780601f1061164c57610100808354040283529160200191611677565b820191906000526020600020905b81548152906001019060200180831161165a57829003601f168201915b5050604080518082019091526007860154815260088601546020820152600a9095015493949392508e915050565b600a546001600160a01b03163314806116c857506010546001600160a01b031633145b6040518060400160405280600381526020016231303160e81b815250906117025760405162461bcd60e51b81526004016109dc919061383c565b50601455565b600a546001600160a01b03163314801561172a57506001600160a01b03811615155b6040518060400160405280600381526020016231303160e81b815250906117645760405162461bcd60e51b81526004016109dc919061383c565b50600a80546001600160a01b0319166001600160a01b0392909216919091179055565b606061182060016003600e805461179d90613e9d565b80601f01602080910402602001604051908101604052809291908181526020018280546117c990613e9d565b80156118165780601f106117eb57610100808354040283529160200191611816565b820191906000526020600020905b8154815290600101906020018083116117f957829003601f168201915b50505050506129e3565b905090565b611830338383612aca565b5050565b836001600160a01b038116331461184e5761184e33612670565b61185a85858585612b99565b5050505050565b6000818152600960205260409020546060906001600160a01b031615156040518060400160405280600381526020016232303960e81b815250906118b85760405162461bcd60e51b81526004016109dc919061383c565b50600d5460405163188687dd60e21b8152600481018490526001600160a01b0390911690600090309063621a1f7490602401602060405180830381865afa158015611907573d6000803e3d6000fd5b505050506040513d601f19601f8201168201806040525081019061192b9190613e1e565b601154604051639413930160e01b8152600481019190915260248101869052604481018290529091506001600160a01b03831690639413930190606401600060405180830381865afa158015611985573d6000803e3d6000fd5b505050506040513d6000823e601f3d908101601f191682016040526119ad9190810190613ed8565b949350505050565b6119bd612925565b6001600160a01b038116611a225760405162461bcd60e51b815260206004820152602660248201527f4f776e61626c653a206e6577206f776e657220697320746865207a65726f206160448201526564647265737360d01b60648201526084016109dc565b61138e81612991565b600a5460408051808201909152600381526219181960e91b6020820152906001600160a01b031615611a705760405162461bcd60e51b81526004016109dc919061383c565b5060408051808201909152600381526203130360ec1b60208201526001600160a01b038616611ab25760405162461bcd60e51b81526004016109dc919061383c565b508551601080546001600160a01b039092166001600160a01b031990921691909117815560208088015160115560408801516012805460608b015160808c015160a08d015162ffffff908116600160481b026bffffff00000000000000000019928216600160301b02929092166bffffffffffff0000000000001993821663010000000265ffffffffffff19909516919096161792909217169290921791909117905560c08801518051899392611b6e926013929101906134f8565b5060e082015160048201556101008201516005820180546001600160a01b0319166001600160a01b039092169190911790556101208201518051611bbc9160068401916020909101906134f8565b506101408201518051600783015560209081015160088301556101608301518051611bed926009850192019061357c565b506101809190910151600a91820155600b80546001600160a01b038088166001600160a01b031992831617909255825488831690821617909255600c8054868316908416179055600d8054918516919092161790556101208601518051611c5c91600e916020909101906134f8565b5060005b86610160015151811015611ccf576001601b60008961016001518481518110611c8b57611c8b613e37565b6020908102919091018101516001600160a01b03168252810191909152604001600020805460ff191691151591909117905580611cc781613e82565b915050611c60565b50600a54611ce5906001600160a01b03166119b5565b8015611cf357611cf3612bcb565b5050426017555050506101800151600f55565b600a546001600160a01b031633148015611d2857506001600160a01b03811615155b6040518060400160405280600381526020016231303160e81b81525090611d625760405162461bcd60e51b81526004016109dc919061383c565b50600b80546001600160a01b0319166001600160a01b0392909216919091179055565b60006001600160e01b031982166380ac58cd60e01b1480611db657506001600160e01b03198216635b5e139f60e01b145b806107b557506301ffc9a760e01b6001600160e01b03198316146107b5565b60026007541415611e285760405162461bcd60e51b815260206004820152601f60248201527f5265656e7472616e637947756172643a207265656e7472616e742063616c6c0060448201526064016109dc565b6002600755565b611830828260405180602001604052806000815250612c25565b600082815260096020908152604091829020548251808401909352600383526219181b60e91b91830191909152600160a01b900460a01b6001600160a01b03191615611ea85760405162461bcd60e51b81526004016109dc919061383c565b5060408051808201909152600381526232303760e81b602082015281611ee15760405162461bcd60e51b81526004016109dc919061383c565b50600091825260096020526040909120805460a09290921c600160a01b026001600160a01b03909216919091179055565b6060611f1d82612c58565b611f2a608084901b612c58565b60405161060f60f31b6020820152602281019290925260428201526062016040516020818303038152906040529050919050565b6000818152600960205260409020546001600160a01b031661138e5760405162461bcd60e51b8152602060048201526018602482015277115490cdcc8c4e881a5b9d985b1a59081d1bdad95b88125160421b60448201526064016109dc565b6000818152600260205260408120546001600160a01b0316806107b55760405162461bcd60e51b8152602060048201526018602482015277115490cdcc8c4e881a5b9d985b1a59081d1bdad95b88125160421b60448201526064016109dc565b600081815260046020526040902080546001600160a01b0319166001600160a01b038416908117909155819061205282611fbd565b6001600160a01b03167f8c5be1e5ebec7d5bd14f71427d1e84f3dd0314c0f7b2291e5b200ac8c7c3b92560405160405180910390a45050565b601454806120965750565b601054600b54604080518082018252601b81527f44454641554c545f524f59414c54595f46494e5f50455243454e54000000000060208201529051636d12dce160e01b81526001600160a01b0393841693909216916000918391636d12dce1916121029160040161383c565b602060405180830381865afa15801561211f573d6000803e3d6000fd5b505050506040513d601f19601f820116820180604052508101906121439190613e1e565b600a54600b549192506001600160a01b039081169116156122af5760408051808201825260158152744d494e545f4e46545f4f50455241544f525f46454560581b60208201529051636d12dce160e01b81526001600160a01b03851691636d12dce1916121b3919060040161383c565b602060405180830381865afa1580156121d0573d6000803e3d6000fd5b505050506040513d601f19601f820116820180604052508101906121f49190613e1e565b604080518082018252601f81527f4d494e545f4e46545f4f50455241544f525f54524541535552455f41444452006020820152905163bf40fac160e01b81529193506000916001600160a01b0386169163bf40fac191612257919060040161383c565b602060405180830381865afa158015612274573d6000803e3d6000fd5b505050506040513d601f19601f820116820180604052508101906122989190613dca565b90506001600160a01b038116156122ad578091505b505b6015546001600160a01b03168061242f57853410156122cd57600080fd5b6011546040516331a9108f60e11b81526000916001600160a01b03881691636352211e916123019160040190815260200190565b602060405180830381865afa15801561231e573d6000803e3d6000fd5b505050506040513d601f19601f820116820180604052508101906123429190613dca565b6001600160a01b0316612710612358868a613de7565b6123629190613f4f565b61236c9089613f71565b604051600081818185875af1925050503d80600081146123a8576040519150601f19603f3d011682016040523d82523d6000602084013e6123ad565b606091505b50509050806123bb57600080fd5b8315612429576001600160a01b0383166127106123d8868a613de7565b6123e29190613f4f565b604051600081818185875af1925050503d806000811461241e576040519150601f19603f3d011682016040523d82523d6000602084013e612423565b606091505b50909150505b50612668565b6040516323b872dd60e01b81523360048201523060248201526044810187905281906001600160a01b038216906323b872dd906064016020604051808303816000875af1158015612484573d6000803e3d6000fd5b505050506040513d601f19601f820116820180604052508101906124a89190613f88565b6124b157600080fd5b6011546040516331a9108f60e11b815260048101919091526001600160a01b038281169163a9059cbb91891690636352211e90602401602060405180830381865afa158015612504573d6000803e3d6000fd5b505050506040513d601f19601f820116820180604052508101906125289190613dca565b612710612535888c613de7565b61253f9190613f4f565b612549908b613f71565b6040516001600160e01b031960e085901b1681526001600160a01b03909216600483015260248201526044016020604051808303816000875af1158015612594573d6000803e3d6000fd5b505050506040513d601f19601f820116820180604052508101906125b89190613f88565b6125c157600080fd5b8315612666576001600160a01b03811663a9059cbb846127106125e4888c613de7565b6125ee9190613f4f565b6040516001600160e01b031960e085901b1681526001600160a01b03909216600483015260248201526044016020604051808303816000875af1158015612639573d6000803e3d6000fd5b505050506040513d601f19601f8201168201806040525081019061265d9190613f88565b61266657600080fd5b505b505050505050565b6daaeb6d7670e522a718067333cd4e3b1561138e57604051633185c44d60e21b81523060048201526001600160a01b03821660248201526daaeb6d7670e522a718067333cd4e9063c617113490604401602060405180830381865afa1580156126dd573d6000803e3d6000fd5b505050506040513d601f19601f820116820180604052508101906127019190613f88565b61138e57604051633b79c77360e21b81526001600160a01b03821660048201526024016109dc565b6127333382612e0a565b61274f5760405162461bcd60e51b81526004016109dc90613fa5565b610dcf838383612e88565b600a54600f54600b546001600160a01b03928316926000929116156128d357600b546040805180820182526013815272524f59414c54595f46494e5f4144445245535360681b6020820152905163bf40fac160e01b81526001600160a01b0390921691600091839163bf40fac1916127d49160040161383c565b602060405180830381865afa1580156127f1573d6000803e3d6000fd5b505050506040513d601f19601f820116820180604052508101906128159190613dca565b90506001600160a01b0381161561282a578094505b826128d057604080518082018252601b81527f44454641554c545f524f59414c54595f46494e5f50455243454e54000000000060208201529051636d12dce160e01b81526001600160a01b03841691636d12dce19161288c919060040161383c565b602060405180830381865afa1580156128a9573d6000803e3d6000fd5b505050506040513d601f19601f820116820180604052508101906128cd9190613e1e565b92505b50505b6127106128e08286613de7565b6128ea9190613f4f565b9150509250929050565b610dcf83838360405180602001604052806000815250611834565b801561291d5761138e612ec2565b61138e612bcb565b33612938600a546001600160a01b031690565b6001600160a01b0316148061295757506010546001600160a01b031633145b6040518060400160405280600381526020016203130360ec1b8152509061138e5760405162461bcd60e51b81526004016109dc919061383c565b600880546001600160a01b038381166001600160a01b0319831681179093556040519116919082907f8be0079c531659141344cd1fd0a4f28419497f9722a3daafe3b4186f6b6457e090600090a35050565b606060006129f18585613f71565b6129fc906001613e06565b67ffffffffffffffff811115612a1457612a14613620565b6040519080825280601f01601f191660200182016040528015612a3e576020820181803683370190505b50905060005b612a4e8686613f71565b8111612ac157836001612a618884613e06565b612a6b9190613f71565b81518110612a7b57612a7b613e37565b602001015160f81c60f81b828281518110612a9857612a98613e37565b60200101906001600160f81b031916908160001a90535080612ab981613e82565b915050612a44565b50949350505050565b816001600160a01b0316836001600160a01b03161415612b2c5760405162461bcd60e51b815260206004820152601960248201527f4552433732313a20617070726f766520746f2063616c6c65720000000000000060448201526064016109dc565b6001600160a01b03838116600081815260056020908152604080832094871680845294825291829020805460ff191686151590811790915591519182527f17307eab39ab6107e8899845ad3d59bd9653f200f220920489ca2b5937696c31910160405180910390a3505050565b612ba33383612e0a565b612bbf5760405162461bcd60e51b81526004016109dc90613fa5565b6111c384848484612efb565b612bd3612f2e565b6006805460ff191660011790557f62e78cea01bee320cd4e420270b5ea74000d11b0c9f74754ebdbfc544b05a258612c083390565b6040516001600160a01b03909116815260200160405180910390a1565b612c2f8383612f74565b612c3c6000848484612fac565b610dcf5760405162461bcd60e51b81526004016109dc90613ff2565b7aff00000000000000ff00000000000000ff00000000000000ff00006bffffffff0000000000000000604083901c90811663ffffffff60c01b84161760201c63ffffffff60601b919091166001600160e01b031984161717601081901c9182167eff00000000000000ff00000000000000ff00000000000000ff000000000000821617600890811c7bff00000000000000ff00000000000000ff00000000000000ff000000939093167fff00000000000000ff00000000000000ff00000000000000ff000000000000009290921691909117919091179081901c7e0f000f000f000f000f000f000f000f000f000f000f000f000f000f000f000f167f0f000f000f000f000f000f000f000f000f000f000f000f000f000f000f000f00600492831c161790612da6827f0606060606060606060606060606060606060606060606060606060606060606613e06565b901c7f0f0f0f0f0f0f0f0f0f0f0f0f0f0f0f0f0f0f0f0f0f0f0f0f0f0f0f0f0f0f0f0f166007612dd69190613de7565b612e00827f3030303030303030303030303030303030303030303030303030303030303030613e06565b6107b59190613e06565b600080612e1683611fbd565b9050806001600160a01b0316846001600160a01b03161480612e5d57506001600160a01b0380821660009081526005602090815260408083209388168352929052205460ff165b806119ad5750836001600160a01b0316612e7684610c97565b6001600160a01b031614949350505050565b612e938383836130aa565b600090815260096020526040902080546001600160a01b0319166001600160a01b039290921691909117905550565b612eca61321b565b6006805460ff191690557f5db9ee0a495bf2e6ff9c91a7834c1ba4fdd244a5e8aa4e537bd38aeae4b073aa33612c08565b612f06848484612e88565b612f1284848484612fac565b6111c35760405162461bcd60e51b81526004016109dc90613ff2565b60065460ff16156115045760405162461bcd60e51b815260206004820152601060248201526f14185d5cd8589b194e881c185d5cd95960821b60448201526064016109dc565b612f7e8282613264565b600090815260096020526040902080546001600160a01b0319166001600160a01b0392909216919091179055565b60006001600160a01b0384163b1561309f57604051630a85bd0160e11b81526001600160a01b0385169063150b7a0290612ff0903390899088908890600401614044565b6020604051808303816000875af192505050801561302b575060408051601f3d908101601f1916820190925261302891810190614077565b60015b613085573d808015613059576040519150601f19603f3d011682016040523d82523d6000602084013e61305e565b606091505b50805161307d5760405162461bcd60e51b81526004016109dc90613ff2565b805181602001fd5b6001600160e01b031916630a85bd0160e11b1490506119ad565b506001949350505050565b826001600160a01b03166130bd82611fbd565b6001600160a01b0316146130e35760405162461bcd60e51b81526004016109dc90614094565b6001600160a01b0382166131455760405162461bcd60e51b8152602060048201526024808201527f4552433732313a207472616e7366657220746f20746865207a65726f206164646044820152637265737360e01b60648201526084016109dc565b61315283838360016133fd565b826001600160a01b031661316582611fbd565b6001600160a01b03161461318b5760405162461bcd60e51b81526004016109dc90614094565b600081815260046020908152604080832080546001600160a01b03199081169091556001600160a01b0387811680865260038552838620805460001901905590871680865283862080546001019055868652600290945282852080549092168417909155905184937fddf252ad1be2c89b69c2b068fc378daa952ba7f163c4a11628f55a4df523b3ef91a4505050565b60065460ff166115045760405162461bcd60e51b815260206004820152601460248201527314185d5cd8589b194e881b9bdd081c185d5cd95960621b60448201526064016109dc565b6001600160a01b0382166132ba5760405162461bcd60e51b815260206004820181905260248201527f4552433732313a206d696e7420746f20746865207a65726f206164647265737360448201526064016109dc565b6000818152600960205260409020546001600160a01b03161561331f5760405162461bcd60e51b815260206004820152601c60248201527f4552433732313a20746f6b656e20616c7265616479206d696e7465640000000060448201526064016109dc565b61332d6000838360016133fd565b6000818152600960205260409020546001600160a01b0316156133925760405162461bcd60e51b815260206004820152601c60248201527f4552433732313a20746f6b656e20616c7265616479206d696e7465640000000060448201526064016109dc565b6001600160a01b038216600081815260036020908152604080832080546001019055848352600290915280822080546001600160a01b0319168417905551839291907fddf252ad1be2c89b69c2b068fc378daa952ba7f163c4a11628f55a4df523b3ef908290a45050565b61340984848484613470565b60065460ff16156111c35760405162461bcd60e51b815260206004820152602b60248201527f4552433732315061757361626c653a20746f6b656e207472616e73666572207760448201526a1a1a5b19481c185d5cd95960aa1b60648201526084016109dc565b60018111156111c3576001600160a01b038416156134b6576001600160a01b038416600090815260036020526040812080548392906134b0908490613f71565b90915550505b6001600160a01b038316156111c3576001600160a01b038316600090815260036020526040812080548392906134ed908490613e06565b909155505050505050565b82805461350490613e9d565b90600052602060002090601f016020900481019282613526576000855561356c565b82601f1061353f57805160ff191683800117855561356c565b8280016001018555821561356c579182015b8281111561356c578251825591602001919060010190613551565b506135789291506135d1565b5090565b82805482825590600052602060002090810192821561356c579160200282015b8281111561356c57825182546001600160a01b0319166001600160a01b0390911617825560209092019160019091019061359c565b5b8082111561357857600081556001016135d2565b6001600160e01b03198116811461138e57600080fd5b60006020828403121561360e57600080fd5b8135613619816135e6565b9392505050565b634e487b7160e01b600052604160045260246000fd5b6040516101a0810167ffffffffffffffff8111828210171561365a5761365a613620565b60405290565b604051601f8201601f1916810167ffffffffffffffff8111828210171561368957613689613620565b604052919050565b600067ffffffffffffffff8211156136ab576136ab613620565b5060051b60200190565b600067ffffffffffffffff8211156136cf576136cf613620565b50601f01601f191660200190565b600082601f8301126136ee57600080fd5b81356137016136fc826136b5565b613660565b81815284602083860101111561371657600080fd5b816020850160208301376000918101602001919091529392505050565b6000602080838503121561374657600080fd5b823567ffffffffffffffff8082111561375e57600080fd5b818501915085601f83011261377257600080fd5b81356137806136fc82613691565b81815260059190911b8301840190848101908883111561379f57600080fd5b8585015b838110156137d7578035858111156137bb5760008081fd5b6137c98b89838a01016136dd565b8452509186019186016137a3565b5098975050505050505050565b60005b838110156137ff5781810151838201526020016137e7565b838111156111c35750506000910152565b600081518084526138288160208601602086016137e4565b601f01601f19169290920160200192915050565b6020815260006136196020830184613810565b60006020828403121561386157600080fd5b5035919050565b6001600160a01b038116811461138e57600080fd5b8035610c0081613868565b6000806040838503121561389b57600080fd5b82356138a681613868565b946020939093013593505050565b6000602082840312156138c657600080fd5b813561361981613868565b6000806000606084860312156138e657600080fd5b83356138f181613868565b9250602084013561390181613868565b929592945050506040919091013590565b6000806040838503121561392557600080fd5b50508035926020909101359150565b801515811461138e57600080fd5b8035610c0081613934565b60006020828403121561395f57600080fd5b813561361981613934565b6001600160a01b038d168152602081018c905262ffffff8b811660408301528a811660608301528981166080830152881660a08201526101a060c082018190526000906139b98382018a613810565b90508760e08401526139d76101008401886001600160a01b03169052565b8281036101208401526139ea8187613810565b855161014085015260208601516101608501529150613a069050565b826101808301529d9c50505050505050505050505050565b60008060408385031215613a3157600080fd5b8235613a3c81613868565b91506020830135613a4c81613934565b809150509250929050565b60008060008060808587031215613a6d57600080fd5b8435613a7881613868565b93506020850135613a8881613868565b925060408501359150606085013567ffffffffffffffff811115613aab57600080fd5b613ab7878288016136dd565b91505092959194509250565b60008060408385031215613ad657600080fd5b8235613ae181613868565b91506020830135613a4c81613868565b803562ffffff81168114610c0057600080fd5b600060408284031215613b1657600080fd5b6040516040810181811067ffffffffffffffff82111715613b3957613b39613620565b604052823581526020928301359281019290925250919050565b600082601f830112613b6457600080fd5b81356020613b746136fc83613691565b82815260059290921b84018101918181019086841115613b9357600080fd5b8286015b84811015613bb7578035613baa81613868565b8352918301918301613b97565b509695505050505050565b60008060008060008060c08789031215613bdb57600080fd5b863567ffffffffffffffff80821115613bf357600080fd5b908801906101c0828b031215613c0857600080fd5b613c10613636565b613c198361387d565b815260208301356020820152613c3160408401613af1565b6040820152613c4260608401613af1565b6060820152613c5360808401613af1565b6080820152613c6460a08401613af1565b60a082015260c083013582811115613c7b57600080fd5b613c878c8286016136dd565b60c08301525060e083013560e0820152610100613ca581850161387d565b908201526101208381013583811115613cbd57600080fd5b613cc98d8287016136dd565b828401525050610140613cde8c828601613b04565b908201526101808381013583811115613cf657600080fd5b613d028d828701613b53565b610160840152506101a08401358183015250809850505050613d266020880161387d565b9450613d346040880161387d565b9350613d426060880161387d565b9250613d506080880161387d565b9150613d5e60a08801613942565b90509295509295509295565b634e487b7160e01b600052601160045260246000fd5b600062ffffff80831681811415613d9957613d99613d6a565b6001019392505050565b600062ffffff808316818516808303821115613dc157613dc1613d6a565b01949350505050565b600060208284031215613ddc57600080fd5b815161361981613868565b6000816000190483118215151615613e0157613e01613d6a565b500290565b60008219821115613e1957613e19613d6a565b500190565b600060208284031215613e3057600080fd5b5051919050565b634e487b7160e01b600052603260045260246000fd5b606081526000613e606060830186613810565b8460208401528281036040840152613e788185613810565b9695505050505050565b6000600019821415613e9657613e96613d6a565b5060010190565b600181811c90821680613eb157607f821691505b60208210811415613ed257634e487b7160e01b600052602260045260246000fd5b50919050565b600060208284031215613eea57600080fd5b815167ffffffffffffffff811115613f0157600080fd5b8201601f81018413613f1257600080fd5b8051613f206136fc826136b5565b818152856020838501011115613f3557600080fd5b613f468260208301602086016137e4565b95945050505050565b600082613f6c57634e487b7160e01b600052601260045260246000fd5b500490565b600082821015613f8357613f83613d6a565b500390565b600060208284031215613f9a57600080fd5b815161361981613934565b6020808252602d908201527f4552433732313a2063616c6c6572206973206e6f7420746f6b656e206f776e6560408201526c1c881bdc88185c1c1c9bdd9959609a1b606082015260800190565b60208082526032908201527f4552433732313a207472616e7366657220746f206e6f6e20455243373231526560408201527131b2b4bb32b91034b6b83632b6b2b73a32b960711b606082015260800190565b6001600160a01b0385811682528416602082015260408101839052608060608201819052600090613e7890830184613810565b60006020828403121561408957600080fd5b8151613619816135e6565b60208082526025908201527f4552433732313a207472616e736665722066726f6d20696e636f72726563742060408201526437bbb732b960d91b60608201526080019056fea264697066735822122065f0a4ccc4a2a47f135f0cfde0021db63279589cff27f62dc21ee390bd66ab9464736f6c634300080c0033",
  "linkReferences": {},
  "deployedLinkReferences": {}
}