{
  "_format": "hh-sol-artifact-1",
  "contractName": "GenerativeNFT",
  "sourceName": "contracts/nfts/GenerativeNFT.sol",
  "abi": [
    {
      "inputs": [
        {
          "internalType": "string",
          "name": "name",
          "type": "string"
        },
        {
          "internalType": "string",
          "name": "symbol",
          "type": "string"
        }
      ],
      "stateMutability": "nonpayable",
      "type": "constructor"
    },
    {
      "inputs": [
        {
          "internalType": "address",
          "name": "operator",
          "type": "address"
        }
      ],
      "name": "OperatorNotAllowed",
      "type": "error"
    },
    {
      "anonymous": false,
      "inputs": [
        {
          "indexed": true,
          "internalType": "address",
          "name": "owner",
          "type": "address"
        },
        {
          "indexed": true,
          "internalType": "address",
          "name": "approved",
          "type": "address"
        },
        {
          "indexed": true,
          "internalType": "uint256",
          "name": "tokenId",
          "type": "uint256"
        }
      ],
      "name": "Approval",
      "type": "event"
    },
    {
      "anonymous": false,
      "inputs": [
        {
          "indexed": true,
          "internalType": "address",
          "name": "owner",
          "type": "address"
        },
        {
          "indexed": true,
          "internalType": "address",
          "name": "operator",
          "type": "address"
        },
        {
          "indexed": false,
          "internalType": "bool",
          "name": "approved",
          "type": "bool"
        }
      ],
      "name": "ApprovalForAll",
      "type": "event"
    },
    {
      "anonymous": false,
      "inputs": [
        {
          "indexed": true,
          "internalType": "address",
          "name": "previousOwner",
          "type": "address"
        },
        {
          "indexed": true,
          "internalType": "address",
          "name": "newOwner",
          "type": "address"
        }
      ],
      "name": "OwnershipTransferred",
      "type": "event"
    },
    {
      "anonymous": false,
      "inputs": [
        {
          "indexed": false,
          "internalType": "address",
          "name": "account",
          "type": "address"
        }
      ],
      "name": "Paused",
      "type": "event"
    },
    {
      "anonymous": false,
      "inputs": [
        {
          "indexed": true,
          "internalType": "address",
          "name": "from",
          "type": "address"
        },
        {
          "indexed": true,
          "internalType": "address",
          "name": "to",
          "type": "address"
        },
        {
          "indexed": true,
          "internalType": "uint256",
          "name": "tokenId",
          "type": "uint256"
        }
      ],
      "name": "Transfer",
      "type": "event"
    },
    {
      "anonymous": false,
      "inputs": [
        {
          "indexed": false,
          "internalType": "address",
          "name": "account",
          "type": "address"
        }
      ],
      "name": "Unpaused",
      "type": "event"
    },
    {
      "inputs": [],
      "name": "OPERATOR_FILTER_REGISTRY",
      "outputs": [
        {
          "internalType": "contract IOperatorFilterRegistry",
          "name": "",
          "type": "address"
        }
      ],
      "stateMutability": "view",
      "type": "function"
    },
    {
      "inputs": [],
      "name": "_admin",
      "outputs": [
        {
          "internalType": "address",
          "name": "",
          "type": "address"
        }
      ],
      "stateMutability": "view",
      "type": "function"
    },
    {
      "inputs": [],
      "name": "_nameCol",
      "outputs": [
        {
          "internalType": "string",
          "name": "",
          "type": "string"
        }
      ],
      "stateMutability": "view",
      "type": "function"
    },
    {
      "inputs": [],
      "name": "_paramsAddress",
      "outputs": [
        {
          "internalType": "address",
          "name": "",
          "type": "address"
        }
      ],
      "stateMutability": "view",
      "type": "function"
    },
    {
      "inputs": [],
      "name": "_project",
      "outputs": [
        {
          "internalType": "address",
          "name": "_projectAddr",
          "type": "address"
        },
        {
          "internalType": "uint256",
          "name": "_projectId",
          "type": "uint256"
        },
        {
          "internalType": "uint24",
          "name": "_maxSupply",
          "type": "uint24"
        },
        {
          "internalType": "uint24",
          "name": "_limit",
          "type": "uint24"
        },
        {
          "internalType": "uint24",
          "name": "_index",
          "type": "uint24"
        },
        {
          "internalType": "uint24",
          "name": "_indexReserve",
          "type": "uint24"
        },
        {
          "internalType": "string",
          "name": "_creator",
          "type": "string"
        },
        {
          "internalType": "address",
          "name": "_creatorAddr",
          "type": "address"
        },
        {
          "internalType": "uint256",
          "name": "_mintPrice",
          "type": "uint256"
        },
        {
          "internalType": "address",
          "name": "_mintPriceAddr",
          "type": "address"
        },
        {
          "internalType": "string",
          "name": "_name",
          "type": "string"
        }
      ],
      "stateMutability": "view",
      "type": "function"
    },
    {
      "inputs": [],
      "name": "_projectDataContextAddr",
      "outputs": [
        {
          "internalType": "address",
          "name": "",
          "type": "address"
        }
      ],
      "stateMutability": "view",
      "type": "function"
    },
    {
      "inputs": [],
      "name": "_randomizer",
      "outputs": [
        {
          "internalType": "address",
          "name": "",
          "type": "address"
        }
      ],
      "stateMutability": "view",
      "type": "function"
    },
    {
      "inputs": [],
      "name": "_symbolCol",
      "outputs": [
        {
          "internalType": "string",
          "name": "",
          "type": "string"
        }
      ],
      "stateMutability": "view",
      "type": "function"
    },
    {
      "inputs": [
        {
          "internalType": "address",
          "name": "to",
          "type": "address"
        },
        {
          "internalType": "uint256",
          "name": "tokenId",
          "type": "uint256"
        }
      ],
      "name": "approve",
      "outputs": [],
      "stateMutability": "nonpayable",
      "type": "function"
    },
    {
      "inputs": [
        {
          "internalType": "address",
          "name": "owner",
          "type": "address"
        }
      ],
      "name": "balanceOf",
      "outputs": [
        {
          "internalType": "uint256",
          "name": "",
          "type": "uint256"
        }
      ],
      "stateMutability": "view",
      "type": "function"
    },
    {
      "inputs": [
        {
          "internalType": "address",
          "name": "newAdm",
          "type": "address"
        }
      ],
      "name": "changeAdmin",
      "outputs": [],
      "stateMutability": "nonpayable",
      "type": "function"
    },
    {
      "inputs": [
        {
          "internalType": "address",
          "name": "newAddr",
          "type": "address"
        }
      ],
      "name": "changeDataContextAddr",
      "outputs": [],
      "stateMutability": "nonpayable",
      "type": "function"
    },
    {
      "inputs": [
        {
          "internalType": "address",
          "name": "newAddr",
          "type": "address"
        }
      ],
      "name": "changeParamAddr",
      "outputs": [],
      "stateMutability": "nonpayable",
      "type": "function"
    },
    {
      "inputs": [
        {
          "internalType": "address",
          "name": "newAddr",
          "type": "address"
        }
      ],
      "name": "changeRandomizerAddr",
      "outputs": [],
      "stateMutability": "nonpayable",
      "type": "function"
    },
    {
      "inputs": [
        {
          "internalType": "uint256",
          "name": "tokenId",
          "type": "uint256"
        }
      ],
      "name": "getApproved",
      "outputs": [
        {
          "internalType": "address",
          "name": "",
          "type": "address"
        }
      ],
      "stateMutability": "view",
      "type": "function"
    },
    {
      "inputs": [
        {
          "components": [
            {
              "internalType": "address",
              "name": "_projectAddr",
              "type": "address"
            },
            {
              "internalType": "uint256",
              "name": "_projectId",
              "type": "uint256"
            },
            {
              "internalType": "uint24",
              "name": "_maxSupply",
              "type": "uint24"
            },
            {
              "internalType": "uint24",
              "name": "_limit",
              "type": "uint24"
            },
            {
              "internalType": "uint24",
              "name": "_index",
              "type": "uint24"
            },
            {
              "internalType": "uint24",
              "name": "_indexReserve",
              "type": "uint24"
            },
            {
              "internalType": "string",
              "name": "_creator",
              "type": "string"
            },
            {
              "internalType": "address",
              "name": "_creatorAddr",
              "type": "address"
            },
            {
              "internalType": "uint256",
              "name": "_mintPrice",
              "type": "uint256"
            },
            {
              "internalType": "address",
              "name": "_mintPriceAddr",
              "type": "address"
            },
            {
              "internalType": "string",
              "name": "_name",
              "type": "string"
            }
          ],
          "internalType": "struct NFTProject.ProjectMinting",
          "name": "project",
          "type": "tuple"
        },
        {
          "internalType": "address",
          "name": "admin",
          "type": "address"
        },
        {
          "internalType": "address",
          "name": "paramsAddr",
          "type": "address"
        },
        {
          "internalType": "address",
          "name": "randomizer",
          "type": "address"
        },
        {
          "internalType": "address",
          "name": "projectDataContextAddr",
          "type": "address"
        },
        {
          "internalType": "address[]",
          "name": "reserves",
          "type": "address[]"
        }
      ],
      "name": "init",
      "outputs": [],
      "stateMutability": "nonpayable",
      "type": "function"
    },
    {
      "inputs": [
        {
          "internalType": "address",
          "name": "owner",
          "type": "address"
        },
        {
          "internalType": "address",
          "name": "operator",
          "type": "address"
        }
      ],
      "name": "isApprovedForAll",
      "outputs": [
        {
          "internalType": "bool",
          "name": "",
          "type": "bool"
        }
      ],
      "stateMutability": "view",
      "type": "function"
    },
    {
      "inputs": [],
      "name": "mint",
      "outputs": [
        {
          "internalType": "uint256",
          "name": "tokenId",
          "type": "uint256"
        }
      ],
      "stateMutability": "payable",
      "type": "function"
    },
    {
      "inputs": [],
      "name": "name",
      "outputs": [
        {
          "internalType": "string",
          "name": "",
          "type": "string"
        }
      ],
      "stateMutability": "view",
      "type": "function"
    },
    {
      "inputs": [],
      "name": "owner",
      "outputs": [
        {
          "internalType": "address",
          "name": "",
          "type": "address"
        }
      ],
      "stateMutability": "view",
      "type": "function"
    },
    {
      "inputs": [
        {
          "internalType": "uint256",
          "name": "tokenId",
          "type": "uint256"
        }
      ],
      "name": "ownerOf",
      "outputs": [
        {
          "internalType": "address",
          "name": "",
          "type": "address"
        }
      ],
      "stateMutability": "view",
      "type": "function"
    },
    {
      "inputs": [],
      "name": "pause",
      "outputs": [],
      "stateMutability": "nonpayable",
      "type": "function"
    },
    {
      "inputs": [],
      "name": "paused",
      "outputs": [
        {
          "internalType": "bool",
          "name": "",
          "type": "bool"
        }
      ],
      "stateMutability": "view",
      "type": "function"
    },
    {
      "inputs": [],
      "name": "renounceOwnership",
      "outputs": [],
      "stateMutability": "nonpayable",
      "type": "function"
    },
    {
      "inputs": [],
      "name": "reserveMint",
      "outputs": [
        {
          "internalType": "uint256",
          "name": "tokenId",
          "type": "uint256"
        }
      ],
      "stateMutability": "payable",
      "type": "function"
    },
    {
      "inputs": [
        {
          "internalType": "uint256",
          "name": "",
          "type": "uint256"
        }
      ],
      "name": "royalties",
      "outputs": [
        {
          "internalType": "address",
          "name": "recipient",
          "type": "address"
        },
        {
          "internalType": "uint24",
          "name": "amount",
          "type": "uint24"
        },
        {
          "internalType": "bool",
          "name": "isValue",
          "type": "bool"
        }
      ],
      "stateMutability": "view",
      "type": "function"
    },
    {
      "inputs": [
        {
          "internalType": "uint256",
          "name": "_tokenId",
          "type": "uint256"
        },
        {
          "internalType": "uint256",
          "name": "_salePrice",
          "type": "uint256"
        }
      ],
      "name": "royaltyInfo",
      "outputs": [
        {
          "internalType": "address",
          "name": "receiver",
          "type": "address"
        },
        {
          "internalType": "uint256",
          "name": "royaltyAmount",
          "type": "uint256"
        }
      ],
      "stateMutability": "view",
      "type": "function"
    },
    {
      "inputs": [
        {
          "internalType": "address",
          "name": "from",
          "type": "address"
        },
        {
          "internalType": "address",
          "name": "to",
          "type": "address"
        },
        {
          "internalType": "uint256",
          "name": "tokenId",
          "type": "uint256"
        }
      ],
      "name": "safeTransferFrom",
      "outputs": [],
      "stateMutability": "nonpayable",
      "type": "function"
    },
    {
      "inputs": [
        {
          "internalType": "address",
          "name": "from",
          "type": "address"
        },
        {
          "internalType": "address",
          "name": "to",
          "type": "address"
        },
        {
          "internalType": "uint256",
          "name": "tokenId",
          "type": "uint256"
        },
        {
          "internalType": "bytes",
          "name": "data",
          "type": "bytes"
        }
      ],
      "name": "safeTransferFrom",
      "outputs": [],
      "stateMutability": "nonpayable",
      "type": "function"
    },
    {
      "inputs": [
        {
          "internalType": "address",
          "name": "operator",
          "type": "address"
        },
        {
          "internalType": "bool",
          "name": "approved",
          "type": "bool"
        }
      ],
      "name": "setApprovalForAll",
      "outputs": [],
      "stateMutability": "nonpayable",
      "type": "function"
    },
    {
      "inputs": [
        {
          "internalType": "uint256",
          "name": "_tokenId",
          "type": "uint256"
        },
        {
          "internalType": "address",
          "name": "_recipient",
          "type": "address"
        },
        {
          "internalType": "uint256",
          "name": "_value",
          "type": "uint256"
        }
      ],
      "name": "setTokenRoyalty",
      "outputs": [],
      "stateMutability": "nonpayable",
      "type": "function"
    },
    {
      "inputs": [
        {
          "internalType": "bytes4",
          "name": "interfaceId",
          "type": "bytes4"
        }
      ],
      "name": "supportsInterface",
      "outputs": [
        {
          "internalType": "bool",
          "name": "",
          "type": "bool"
        }
      ],
      "stateMutability": "view",
      "type": "function"
    },
    {
      "inputs": [],
      "name": "symbol",
      "outputs": [
        {
          "internalType": "string",
          "name": "",
          "type": "string"
        }
      ],
      "stateMutability": "view",
      "type": "function"
    },
    {
      "inputs": [
        {
          "internalType": "uint256",
          "name": "tokenId",
          "type": "uint256"
        }
      ],
      "name": "tokenGenerativeURI",
      "outputs": [
        {
          "internalType": "string",
          "name": "",
          "type": "string"
        }
      ],
      "stateMutability": "view",
      "type": "function"
    },
    {
      "inputs": [
        {
          "internalType": "uint256",
          "name": "_tokenId",
          "type": "uint256"
        }
      ],
      "name": "tokenIdToHash",
      "outputs": [
        {
          "internalType": "bytes32",
          "name": "",
          "type": "bytes32"
        }
      ],
      "stateMutability": "view",
      "type": "function"
    },
    {
      "inputs": [
        {
          "internalType": "uint256",
          "name": "tokenId",
          "type": "uint256"
        }
      ],
      "name": "tokenURI",
      "outputs": [
        {
          "internalType": "string",
          "name": "",
          "type": "string"
        }
      ],
      "stateMutability": "view",
      "type": "function"
    },
    {
      "inputs": [
        {
          "internalType": "address",
          "name": "from",
          "type": "address"
        },
        {
          "internalType": "address",
          "name": "to",
          "type": "address"
        },
        {
          "internalType": "uint256",
          "name": "tokenId",
          "type": "uint256"
        }
      ],
      "name": "transferFrom",
      "outputs": [],
      "stateMutability": "nonpayable",
      "type": "function"
    },
    {
      "inputs": [
        {
          "internalType": "address",
          "name": "newOwner",
          "type": "address"
        }
      ],
      "name": "transferOwnership",
      "outputs": [],
      "stateMutability": "nonpayable",
      "type": "function"
    },
    {
      "inputs": [],
      "name": "unpause",
      "outputs": [],
      "stateMutability": "nonpayable",
      "type": "function"
    }
  ],
  "bytecode": "0x60806040523480156200001157600080fd5b5060405162003d6338038062003d638339810160408190526200003491620003b0565b733cc6cdda760b79bafa08df41ecfa224f810dceb66001838381818160009080519060200190620000679291906200023d565b5080516200007d9060019060208401906200023d565b50506006805460ff191690555060016007556200009a33620001eb565b50506daaeb6d7670e522a718067333cd4e3b15620001e15780156200012f57604051633e9f1edf60e11b81523060048201526001600160a01b03831660248201526daaeb6d7670e522a718067333cd4e90637d3e3dbe906044015b600060405180830381600087803b1580156200011057600080fd5b505af115801562000125573d6000803e3d6000fd5b50505050620001e1565b6001600160a01b03821615620001805760405163a0af290360e01b81523060048201526001600160a01b03831660248201526daaeb6d7670e522a718067333cd4e9063a0af290390604401620000f5565b604051632210724360e11b81523060048201526daaeb6d7670e522a718067333cd4e90634420e48690602401600060405180830381600087803b158015620001c757600080fd5b505af1158015620001dc573d6000803e3d6000fd5b505050505b5050505062000457565b600880546001600160a01b038381166001600160a01b0319831681179093556040519116919082907f8be0079c531659141344cd1fd0a4f28419497f9722a3daafe3b4186f6b6457e090600090a35050565b8280546200024b906200041a565b90600052602060002090601f0160209004810192826200026f5760008555620002ba565b82601f106200028a57805160ff1916838001178555620002ba565b82800160010185558215620002ba579182015b82811115620002ba5782518255916020019190600101906200029d565b50620002c8929150620002cc565b5090565b5b80821115620002c85760008155600101620002cd565b634e487b7160e01b600052604160045260246000fd5b600082601f8301126200030b57600080fd5b81516001600160401b0380821115620003285762000328620002e3565b604051601f8301601f19908116603f01168101908282118183101715620003535762000353620002e3565b816040528381526020925086838588010111156200037057600080fd5b600091505b8382101562000394578582018301518183018401529082019062000375565b83821115620003a65760008385830101525b9695505050505050565b60008060408385031215620003c457600080fd5b82516001600160401b0380821115620003dc57600080fd5b620003ea86838701620002f9565b935060208501519150808211156200040157600080fd5b506200041085828601620002f9565b9150509250929050565b600181811c908216806200042f57607f821691505b602082108114156200045157634e487b7160e01b600052602260045260246000fd5b50919050565b6138fc80620004676000396000f3fe6080604052600436106102305760003560e01c80635c975abb1161012e57806395d89b41116100ab578063c87b56dd1161006f578063c87b56dd146106d5578063e985e9c5146106f5578063f2fde38b1461073e578063febfd6c31461075e578063ffc27c0e1461077e57600080fd5b806395d89b41146106405780639713c80714610655578063a22cb46514610675578063adfc7dae14610695578063b88d4fde146106b557600080fd5b8063775bff9f116100f2578063775bff9f146105475780637f77f574146105735780638456cb59146105ed5780638da5cb5b146106025780638f2839701461062057600080fd5b80635c975abb146104a4578063621a1f74146104bc5780636352211e146104dc57806370a0823114610512578063715018a61461053257600080fd5b806321c8d676116101bc57806341f434341161018057806341f434341461040d57806342842e0e1461042f578063452fa3d31461044f578063472f1e0214610464578063575b57ea1461048457600080fd5b806321c8d6761461037c57806323b872dd146103845780632a55205a146103a457806336a0a6cb146103e35780633f4ba83a146103f857600080fd5b8063095ea7b311610203578063095ea7b3146102e457806310da88c5146103065780631249c58b146103265780631ca9741b1461033c5780631faaa3b61461035c57600080fd5b806301bc45c91461023557806301ffc9a71461027257806306fdde03146102a2578063081812fc146102c4575b600080fd5b34801561024157600080fd5b50600a54610255906001600160a01b031681565b6040516001600160a01b0390911681526020015b60405180910390f35b34801561027e57600080fd5b5061029261028d366004612f41565b61079e565b6040519015158152602001610269565b3480156102ae57600080fd5b506102b76107f0565b6040516102699190612fbd565b3480156102d057600080fd5b506102556102df366004612fd0565b610882565b3480156102f057600080fd5b506103046102ff36600461300e565b6108a9565b005b34801561031257600080fd5b506102b7610321366004612fd0565b6109c4565b61032e610ac2565b604051908152602001610269565b34801561034857600080fd5b5061030461035736600461303a565b610cc7565b34801561036857600080fd5b506103046103773660046131ea565b610d58565b61032e611098565b34801561039057600080fd5b5061030461039f366004613373565b61136f565b3480156103b057600080fd5b506103c46103bf3660046133b4565b61139a565b604080516001600160a01b039093168352602083019190915201610269565b3480156103ef57600080fd5b506102b76113b2565b34801561040457600080fd5b50610304611440565b34801561041957600080fd5b506102556daaeb6d7670e522a718067333cd4e81565b34801561043b57600080fd5b5061030461044a366004613373565b611491565b34801561045b57600080fd5b506102b76114b6565b34801561047057600080fd5b5061030461047f36600461303a565b6114c3565b34801561049057600080fd5b50600d54610255906001600160a01b031681565b3480156104b057600080fd5b5060065460ff16610292565b3480156104c857600080fd5b5061032e6104d7366004612fd0565b611555565b3480156104e857600080fd5b506102556104f7366004612fd0565b6000908152600960205260409020546001600160a01b031690565b34801561051e57600080fd5b5061032e61052d36600461303a565b6115db565b34801561053e57600080fd5b50610304611661565b34801561055357600080fd5b5061055c611673565b6040516102699b9a999897969594939291906133d6565b34801561057f57600080fd5b506105c261058e366004612fd0565b6010602052600090815260409020546001600160a01b03811690600160a01b810462ffffff1690600160b81b900460ff1683565b604080516001600160a01b03909416845262ffffff9092166020840152151590820152606001610269565b3480156105f957600080fd5b506103046117f8565b34801561060e57600080fd5b50600a546001600160a01b0316610255565b34801561062c57600080fd5b5061030461063b36600461303a565b611847565b34801561064c57600080fd5b506102b76118d9565b34801561066157600080fd5b50610304610670366004613466565b6118e8565b34801561068157600080fd5b5061030461069036600461349b565b6119b6565b3480156106a157600080fd5b50600b54610255906001600160a01b031681565b3480156106c157600080fd5b506103046106d03660046134d4565b6119c5565b3480156106e157600080fd5b506102b76106f0366004612fd0565b6119f2565b34801561070157600080fd5b50610292610710366004613554565b6001600160a01b03918216600090815260056020908152604080832093909416825291909152205460ff1690565b34801561074a57600080fd5b5061030461075936600461303a565b611aa7565b34801561076a57600080fd5b5061030461077936600461303a565b611b1d565b34801561078a57600080fd5b50600c54610255906001600160a01b031681565b60006001600160e01b031982166380ac58cd60e01b14806107cf57506001600160e01b03198216635b5e139f60e01b145b806107ea57506301ffc9a760e01b6001600160e01b03198316145b92915050565b6060600e80546107ff90613582565b80601f016020809104026020016040519081016040528092919081815260200182805461082b90613582565b80156108785780601f1061084d57610100808354040283529160200191610878565b820191906000526020600020905b81548152906001019060200180831161085b57829003601f168201915b5050505050905090565b600061088d82611baf565b506000908152600460205260409020546001600160a01b031690565b60006108b482611c0e565b9050806001600160a01b0316836001600160a01b031614156109275760405162461bcd60e51b815260206004820152602160248201527f4552433732313a20617070726f76616c20746f2063757272656e74206f776e656044820152603960f91b60648201526084015b60405180910390fd5b336001600160a01b038216148061094357506109438133610710565b6109b55760405162461bcd60e51b815260206004820152603d60248201527f4552433732313a20617070726f76652063616c6c6572206973206e6f7420746f60448201527f6b656e206f776e6572206f7220617070726f76656420666f7220616c6c000000606482015260840161091e565b6109bf8383611c6e565b505050565b600d5460405163188687dd60e21b8152600481018390526060916001600160a01b031690600090309063621a1f7490602401602060405180830381865afa158015610a13573d6000803e3d6000fd5b505050506040513d601f19601f82011682018060405250810190610a3791906135bd565b601254604051639413930160e01b8152600481019190915260248101869052604481018290529091506001600160a01b038316906394139301906064015b600060405180830381865afa158015610a92573d6000803e3d6000fd5b505050506040513d6000823e601f3d908101601f19168201604052610aba91908101906135d6565b949350505050565b6000610acc611cdc565b60138054600160301b900462ffffff16906006610ae883613663565b82546101009290920a62ffffff818102199093169183160217909155601354630100000081048216600160301b90910490911611159050610b2857600080fd5b60135462ffffff80821691610b4e91600160481b8204811691600160301b900416613686565b62ffffff161415610bbf57601154601254604051631122f8a960e11b815260048101919091526001600160a01b03909116908190632245f15290602401600060405180830381600087803b158015610ba557600080fd5b505af1158015610bb9573d6000803e3d6000fd5b50505050505b601354601254600160301b90910462ffffff1690610be190620f4240906136ad565b610beb91906136cc565b9050610bf73382611d36565b600c54604051631da00d8560e01b8152600481018390526001600160a01b03909116906000908290631da00d85906024016020604051808303816000875af1158015610c47573d6000803e3d6000fd5b505050506040513d601f19601f82011682018060405250810190610c6b91906135bd565b9050610c778382611d50565b610c7f611e19565b60408051338152602081018590527f0f6798a560793a54c3bcfe86a93cde1e73087d944c0ea20544137d4121396885910160405180910390a15050610cc46001600755565b90565b600a546001600160a01b031633148015610ce957506001600160a01b03811615155b6040518060400160405280600381526020016231303160e81b81525090610d235760405162461bcd60e51b815260040161091e9190612fbd565b50600c546001600160a01b03828116911614610d5557600c80546001600160a01b0319166001600160a01b0383161790555b50565b600a5460408051808201909152600381526219181960e91b6020820152906001600160a01b031615610d9d5760405162461bcd60e51b815260040161091e9190612fbd565b5060408051808201909152600381526203130360ec1b60208201526001600160a01b038616610ddf5760405162461bcd60e51b815260040161091e9190612fbd565b508551601180546001600160a01b039092166001600160a01b031990921691909117815560208088015160125560408801516013805460608b015160808c015160a08d015162ffffff908116600160481b026bffffff00000000000000000019928216600160301b02929092166bffffffffffff0000000000001993821663010000000265ffffffffffff19909516919096161792909217169290921791909117905560c08801518051899392610e9b92601492910190612e92565b5060e08201516004820180546001600160a01b039283166001600160a01b03199182161790915561010084015160058401556101208401516006840180549190931691161790556101408201518051610efe916007840191602090910190612e92565b5050600b80546001600160a01b038088166001600160a01b031992831617909255600a8054898416908316179055600c8054878416908316179055600d805492861692909116919091179055506101408601518051610f6591600e91602090910190612e92565b50610ffd60016003600e8054610f7a90613582565b80601f0160208091040260200160405190810160405280929190818152602001828054610fa690613582565b8015610ff35780601f10610fc857610100808354040283529160200191610ff3565b820191906000526020600020905b815481529060010190602001808311610fd657829003601f168201915b505050505061228a565b805161101191600f91602090910190612e92565b5060005b815181101561107a57600060196000848481518110611036576110366136e4565b6020908102919091018101516001600160a01b03168252810191909152604001600020805460ff191691151591909117905580611072816136fa565b915050611015565b50600a54611090906001600160a01b0316611aa7565b505050505050565b60006110a2611cdc565b60138054600160481b900462ffffff169060096110be83613663565b82546101009290920a62ffffff81810219909316918316021790915560135480821692506110fd9163010000008204811691600160481b900416613686565b62ffffff16111561110d57600080fd5b60135462ffffff8082169161113391600160481b8204811691600160301b900416613686565b62ffffff1614156111a457601154601254604051631122f8a960e11b815260048101919091526001600160a01b03909116908190632245f15290602401600060405180830381600087803b15801561118a57600080fd5b505af115801561119e573d6000803e3d6000fd5b50505050505b601154336000908152601960205260409020546001600160a01b039091169060ff16158061124f57506012546040516331a9108f60e11b815260048101919091526001600160a01b03821690636352211e90602401602060405180830381865afa158015611216573d6000803e3d6000fd5b505050506040513d601f19601f8201168201806040525081019061123a9190613715565b6001600160a01b0316336001600160a01b0316145b61125857600080fd5b60135461127a9062ffffff63010000008204811691600160481b900416613686565b62ffffff16620f424060116001015461129391906136ad565b61129d91906136cc565b91506112a93383611d36565b600c54604051631da00d8560e01b8152600481018490526001600160a01b03909116906000908290631da00d85906024016020604051808303816000875af11580156112f9573d6000803e3d6000fd5b505050506040513d601f19601f8201168201806040525081019061131d91906135bd565b90506113298482611d50565b60408051338152602081018690527f0f6798a560793a54c3bcfe86a93cde1e73087d944c0ea20544137d4121396885910160405180910390a1505050610cc46001600755565b826001600160a01b03811633146113895761138933612371565b61139484848461242a565b50505050565b6000806113a7848461245b565b915091509250929050565b600f80546113bf90613582565b80601f01602080910402602001604051908101604052809291908181526020018280546113eb90613582565b80156114385780601f1061140d57610100808354040283529160200191611438565b820191906000526020600020905b81548152906001019060200180831161141b57829003601f168201915b505050505081565b600a5460408051808201909152600381526231303160e81b6020820152906001600160a01b031633146114865760405162461bcd60e51b815260040161091e9190612fbd565b5061148f6124f7565b565b826001600160a01b03811633146114ab576114ab33612371565b611394848484612549565b600e80546113bf90613582565b600a546001600160a01b0316331480156114e557506001600160a01b03811615155b6040518060400160405280600381526020016231303160e81b8152509061151f5760405162461bcd60e51b815260040161091e9190612fbd565b50600d546001600160a01b03828116911614610d5557600d80546001600160a01b0383166001600160a01b031990911617905550565b600081815260096020526040812054600160a01b900460a01b6001600160a01b03191661158457506000919050565b6000828152600960209081526040918290205491516115be92600160a01b900460a01b91016001600160a01b031991909116815260200190565b604051602081830303815290604052805190602001209050919050565b60006001600160a01b0382166116455760405162461bcd60e51b815260206004820152602960248201527f4552433732313a2061646472657373207a65726f206973206e6f7420612076616044820152683634b21037bbb732b960b91b606482015260840161091e565b506001600160a01b031660009081526003602052604090205490565b611669612564565b61148f60006125e2565b60118054601254601354601480546001600160a01b0390941694929362ffffff8084169463010000008504821694600160301b8104831694600160481b909104909216929091906116c390613582565b80601f01602080910402602001604051908101604052809291908181526020018280546116ef90613582565b801561173c5780601f106117115761010080835404028352916020019161173c565b820191906000526020600020905b81548152906001019060200180831161171f57829003601f168201915b5050505060048301546005840154600685015460078601805495966001600160a01b039485169693955093909116929161177590613582565b80601f01602080910402602001604051908101604052809291908181526020018280546117a190613582565b80156117ee5780601f106117c3576101008083540402835291602001916117ee565b820191906000526020600020905b8154815290600101906020018083116117d157829003601f168201915b505050505090508b565b600a5460408051808201909152600381526231303160e81b6020820152906001600160a01b0316331461183e5760405162461bcd60e51b815260040161091e9190612fbd565b5061148f612634565b600a546001600160a01b03163314801561186957506001600160a01b03811615155b6040518060400160405280600381526020016231303160e81b815250906118a35760405162461bcd60e51b815260040161091e9190612fbd565b50600a546001600160a01b03828116911614610d5557600a80546001600160a01b0383166001600160a01b031990911617905550565b6060600f80546107ff90613582565b600a546001600160a01b031633146118ff57600080fd5b60408051808201909152600381526232303960e81b602082015261271082111561193c5760405162461bcd60e51b815260040161091e9190612fbd565b50604080516060810182526001600160a01b03938416815262ffffff928316602080830191825260018385019081526000978852601090915292909520905181549551925194166001600160b81b031990951694909417600160a01b91909216021760ff60b81b1916600160b81b91151591909102179055565b6119c1338383612671565b5050565b836001600160a01b03811633146119df576119df33612371565b6119eb85858585612740565b5050505050565b600d5460405163188687dd60e21b8152600481018390526060916001600160a01b031690600090309063621a1f7490602401602060405180830381865afa158015611a41573d6000803e3d6000fd5b505050506040513d601f19601f82011682018060405250810190611a6591906135bd565b6012546040516308dd54e960e31b8152600481019190915260248101869052604481018290529091506001600160a01b038316906346eaa74890606401610a75565b611aaf612564565b6001600160a01b038116611b145760405162461bcd60e51b815260206004820152602660248201527f4f776e61626c653a206e6577206f776e657220697320746865207a65726f206160448201526564647265737360d01b606482015260840161091e565b610d55816125e2565b600a546001600160a01b031633148015611b3f57506001600160a01b03811615155b6040518060400160405280600381526020016231303160e81b81525090611b795760405162461bcd60e51b815260040161091e9190612fbd565b50600b546001600160a01b03828116911614610d5557600b80546001600160a01b0383166001600160a01b031990911617905550565b6000818152600960205260409020546001600160a01b0316610d555760405162461bcd60e51b8152602060048201526018602482015277115490cdcc8c4e881a5b9d985b1a59081d1bdad95b88125160421b604482015260640161091e565b6000818152600260205260408120546001600160a01b0316806107ea5760405162461bcd60e51b8152602060048201526018602482015277115490cdcc8c4e881a5b9d985b1a59081d1bdad95b88125160421b604482015260640161091e565b600081815260046020526040902080546001600160a01b0319166001600160a01b0384169081179091558190611ca382611c0e565b6001600160a01b03167f8c5be1e5ebec7d5bd14f71427d1e84f3dd0314c0f7b2291e5b200ac8c7c3b92560405160405180910390a45050565b60026007541415611d2f5760405162461bcd60e51b815260206004820152601f60248201527f5265656e7472616e637947756172643a207265656e7472616e742063616c6c00604482015260640161091e565b6002600755565b6119c1828260405180602001604052806000815250612772565b600082815260096020908152604091829020548251808401909352600383526203231360ec1b91830191909152600160a01b900460a01b6001600160a01b03191615611daf5760405162461bcd60e51b815260040161091e9190612fbd565b5060408051808201909152600381526232313160e81b602082015281611de85760405162461bcd60e51b815260040161091e9190612fbd565b50600091825260096020526040909120805460a09290921c600160a01b026001600160a01b03909216919091179055565b60165480611e245750565b601154600b546000916001600160a01b0390811691166101f48115611edc5760408051808201825260158152744d494e545f4e46545f4f50455241544f525f46454560581b60208201529051636d12dce160e01b81526001600160a01b03841691636d12dce191611e989190600401612fbd565b602060405180830381865afa158015611eb5573d6000803e3d6000fd5b505050506040513d601f19601f82011682018060405250810190611ed991906135bd565b90505b6001600160a01b0384166120535784341015611ef757600080fd5b6012546040516331a9108f60e11b81526000916001600160a01b03861691636352211e91611f2b9160040190815260200190565b602060405180830381865afa158015611f48573d6000803e3d6000fd5b505050506040513d601f19601f82011682018060405250810190611f6c9190613715565b6001600160a01b0316612710611f8284896136ad565b611f8c9190613732565b611f969088613754565b604051600081818185875af1925050503d8060008114611fd2576040519150601f19603f3d011682016040523d82523d6000602084013e611fd7565b606091505b5050905080611fe557600080fd5b600a546001600160a01b0316612710611ffe84896136ad565b6120089190613732565b604051600081818185875af1925050503d8060008114612044576040519150601f19603f3d011682016040523d82523d6000602084013e612049565b606091505b506119eb92505050565b6040516323b872dd60e01b81523360048201523060248201526044810186905284906001600160a01b038216906323b872dd906064016020604051808303816000875af11580156120a8573d6000803e3d6000fd5b505050506040513d601f19601f820116820180604052508101906120cc919061376b565b6120d557600080fd5b6012546040516331a9108f60e11b815260048101919091526001600160a01b038281169163a9059cbb91871690636352211e90602401602060405180830381865afa158015612128573d6000803e3d6000fd5b505050506040513d601f19601f8201168201806040525081019061214c9190613715565b612710612159868b6136ad565b6121639190613732565b61216d908a613754565b6040516001600160e01b031960e085901b1681526001600160a01b03909216600483015260248201526044016020604051808303816000875af11580156121b8573d6000803e3d6000fd5b505050506040513d601f19601f820116820180604052508101906121dc919061376b565b6121e557600080fd5b600a546001600160a01b038083169163a9059cbb9116612710612208868b6136ad565b6122129190613732565b6040516001600160e01b031960e085901b1681526001600160a01b03909216600483015260248201526044016020604051808303816000875af115801561225d573d6000803e3d6000fd5b505050506040513d601f19601f82011682018060405250810190612281919061376b565b61109057600080fd5b606060006122988585613754565b6122a39060016136cc565b67ffffffffffffffff8111156122bb576122bb613057565b6040519080825280601f01601f1916602001820160405280156122e5576020820181803683370190505b50905060005b6122f58686613754565b81116123685783600161230888846136cc565b6123129190613754565b81518110612322576123226136e4565b602001015160f81c60f81b82828151811061233f5761233f6136e4565b60200101906001600160f81b031916908160001a90535080612360816136fa565b9150506122eb565b50949350505050565b6daaeb6d7670e522a718067333cd4e3b15610d5557604051633185c44d60e21b81523060048201526001600160a01b03821660248201526daaeb6d7670e522a718067333cd4e9063c617113490604401602060405180830381865afa1580156123de573d6000803e3d6000fd5b505050506040513d601f19601f82011682018060405250810190612402919061376b565b610d5557604051633b79c77360e21b81526001600160a01b038216600482015260240161091e565b61243433826127a5565b6124505760405162461bcd60e51b815260040161091e90613788565b6109bf838383612823565b6000828152601060209081526040808320815160608101835290546001600160a01b0381168252600160a01b810462ffffff1693820193909352600160b81b90920460ff16158015918301919091528291906124df5780516020820151909350612710906124ce9062ffffff16866136ad565b6124d89190613732565b91506124ef565b6124e9858561285d565b90935091505b509250929050565b6124ff612895565b6006805460ff191690557f5db9ee0a495bf2e6ff9c91a7834c1ba4fdd244a5e8aa4e537bd38aeae4b073aa335b6040516001600160a01b03909116815260200160405180910390a1565b6109bf838383604051806020016040528060008152506119c5565b33612577600a546001600160a01b031690565b6001600160a01b0316148061259657506011546001600160a01b031633145b61148f5760405162461bcd60e51b815260206004820181905260248201527f4f776e61626c653a2063616c6c6572206973206e6f7420746865206f776e6572604482015260640161091e565b600880546001600160a01b038381166001600160a01b0319831681179093556040519116919082907f8be0079c531659141344cd1fd0a4f28419497f9722a3daafe3b4186f6b6457e090600090a35050565b61263c6128de565b6006805460ff191660011790557f62e78cea01bee320cd4e420270b5ea74000d11b0c9f74754ebdbfc544b05a25861252c3390565b816001600160a01b0316836001600160a01b031614156126d35760405162461bcd60e51b815260206004820152601960248201527f4552433732313a20617070726f766520746f2063616c6c657200000000000000604482015260640161091e565b6001600160a01b03838116600081815260056020908152604080832094871680845294825291829020805460ff191686151590811790915591519182527f17307eab39ab6107e8899845ad3d59bd9653f200f220920489ca2b5937696c31910160405180910390a3505050565b61274a33836127a5565b6127665760405162461bcd60e51b815260040161091e90613788565b61139484848484612924565b61277c8383612957565b612789600084848461298f565b6109bf5760405162461bcd60e51b815260040161091e906137d5565b6000806127b183611c0e565b9050806001600160a01b0316846001600160a01b031614806127f857506001600160a01b0380821660009081526005602090815260408083209388168352929052205460ff165b80610aba5750836001600160a01b031661281184610882565b6001600160a01b031614949350505050565b61282e838383612a8d565b600090815260096020526040902080546001600160a01b0319166001600160a01b039290921691909117905550565b600a5460009081906001600160a01b03168161271061287e866101f46136ad565b6128889190613732565b9196919550909350505050565b60065460ff1661148f5760405162461bcd60e51b815260206004820152601460248201527314185d5cd8589b194e881b9bdd081c185d5cd95960621b604482015260640161091e565b60065460ff161561148f5760405162461bcd60e51b815260206004820152601060248201526f14185d5cd8589b194e881c185d5cd95960821b604482015260640161091e565b61292f848484612823565b61293b8484848461298f565b6113945760405162461bcd60e51b815260040161091e906137d5565b6129618282612bfe565b600090815260096020526040902080546001600160a01b0319166001600160a01b0392909216919091179055565b60006001600160a01b0384163b15612a8257604051630a85bd0160e11b81526001600160a01b0385169063150b7a02906129d3903390899088908890600401613827565b6020604051808303816000875af1925050508015612a0e575060408051601f3d908101601f19168201909252612a0b91810190613864565b60015b612a68573d808015612a3c576040519150601f19603f3d011682016040523d82523d6000602084013e612a41565b606091505b508051612a605760405162461bcd60e51b815260040161091e906137d5565b805181602001fd5b6001600160e01b031916630a85bd0160e11b149050610aba565b506001949350505050565b826001600160a01b0316612aa082611c0e565b6001600160a01b031614612ac65760405162461bcd60e51b815260040161091e90613881565b6001600160a01b038216612b285760405162461bcd60e51b8152602060048201526024808201527f4552433732313a207472616e7366657220746f20746865207a65726f206164646044820152637265737360e01b606482015260840161091e565b612b358383836001612d97565b826001600160a01b0316612b4882611c0e565b6001600160a01b031614612b6e5760405162461bcd60e51b815260040161091e90613881565b600081815260046020908152604080832080546001600160a01b03199081169091556001600160a01b0387811680865260038552838620805460001901905590871680865283862080546001019055868652600290945282852080549092168417909155905184937fddf252ad1be2c89b69c2b068fc378daa952ba7f163c4a11628f55a4df523b3ef91a4505050565b6001600160a01b038216612c545760405162461bcd60e51b815260206004820181905260248201527f4552433732313a206d696e7420746f20746865207a65726f2061646472657373604482015260640161091e565b6000818152600960205260409020546001600160a01b031615612cb95760405162461bcd60e51b815260206004820152601c60248201527f4552433732313a20746f6b656e20616c7265616479206d696e74656400000000604482015260640161091e565b612cc7600083836001612d97565b6000818152600960205260409020546001600160a01b031615612d2c5760405162461bcd60e51b815260206004820152601c60248201527f4552433732313a20746f6b656e20616c7265616479206d696e74656400000000604482015260640161091e565b6001600160a01b038216600081815260036020908152604080832080546001019055848352600290915280822080546001600160a01b0319168417905551839291907fddf252ad1be2c89b69c2b068fc378daa952ba7f163c4a11628f55a4df523b3ef908290a45050565b612da384848484612e0a565b60065460ff16156113945760405162461bcd60e51b815260206004820152602b60248201527f4552433732315061757361626c653a20746f6b656e207472616e73666572207760448201526a1a1a5b19481c185d5cd95960aa1b606482015260840161091e565b6001811115611394576001600160a01b03841615612e50576001600160a01b03841660009081526003602052604081208054839290612e4a908490613754565b90915550505b6001600160a01b03831615611394576001600160a01b03831660009081526003602052604081208054839290612e879084906136cc565b909155505050505050565b828054612e9e90613582565b90600052602060002090601f016020900481019282612ec05760008555612f06565b82601f10612ed957805160ff1916838001178555612f06565b82800160010185558215612f06579182015b82811115612f06578251825591602001919060010190612eeb565b50612f12929150612f16565b5090565b5b80821115612f125760008155600101612f17565b6001600160e01b031981168114610d5557600080fd5b600060208284031215612f5357600080fd5b8135612f5e81612f2b565b9392505050565b60005b83811015612f80578181015183820152602001612f68565b838111156113945750506000910152565b60008151808452612fa9816020860160208601612f65565b601f01601f19169290920160200192915050565b602081526000612f5e6020830184612f91565b600060208284031215612fe257600080fd5b5035919050565b6001600160a01b0381168114610d5557600080fd5b803561300981612fe9565b919050565b6000806040838503121561302157600080fd5b823561302c81612fe9565b946020939093013593505050565b60006020828403121561304c57600080fd5b8135612f5e81612fe9565b634e487b7160e01b600052604160045260246000fd5b604051610160810167ffffffffffffffff8111828210171561309157613091613057565b60405290565b604051601f8201601f1916810167ffffffffffffffff811182821017156130c0576130c0613057565b604052919050565b803562ffffff8116811461300957600080fd5b600067ffffffffffffffff8211156130f5576130f5613057565b50601f01601f191660200190565b6000613116613111846130db565b613097565b905082815283838301111561312a57600080fd5b828260208301376000602084830101529392505050565b600082601f83011261315257600080fd5b612f5e83833560208501613103565b600082601f83011261317257600080fd5b8135602067ffffffffffffffff82111561318e5761318e613057565b8160051b61319d828201613097565b92835284810182019282810190878511156131b757600080fd5b83870192505b848310156131df5782356131d081612fe9565b825291830191908301906131bd565b979650505050505050565b60008060008060008060c0878903121561320357600080fd5b863567ffffffffffffffff8082111561321b57600080fd5b90880190610160828b03121561323057600080fd5b61323861306d565b61324183612ffe565b815260208301356020820152613259604084016130c8565b604082015261326a606084016130c8565b606082015261327b608084016130c8565b608082015261328c60a084016130c8565b60a082015260c0830135828111156132a357600080fd5b6132af8c828601613141565b60c0830152506132c160e08401612ffe565b60e082015261010083810135908201526101206132df818501612ffe565b9082015261014083810135838111156132f757600080fd5b6133038d828701613141565b8284015250508098505061331960208a01612ffe565b965061332760408a01612ffe565b955061333560608a01612ffe565b945061334360808a01612ffe565b935060a089013591508082111561335957600080fd5b5061336689828a01613161565b9150509295509295509295565b60008060006060848603121561338857600080fd5b833561339381612fe9565b925060208401356133a381612fe9565b929592945050506040919091013590565b600080604083850312156133c757600080fd5b50508035926020909101359150565b6001600160a01b038c81168252602082018c905262ffffff8b811660408401528a811660608401528981166080840152881660a083015261016060c083018190526000916134268483018a612f91565b915080881660e085015286610100850152808616610120850152508281036101408401526134548185612f91565b9e9d5050505050505050505050505050565b60008060006060848603121561347b57600080fd5b8335925060208401356133a381612fe9565b8015158114610d5557600080fd5b600080604083850312156134ae57600080fd5b82356134b981612fe9565b915060208301356134c98161348d565b809150509250929050565b600080600080608085870312156134ea57600080fd5b84356134f581612fe9565b9350602085013561350581612fe9565b925060408501359150606085013567ffffffffffffffff81111561352857600080fd5b8501601f8101871361353957600080fd5b61354887823560208401613103565b91505092959194509250565b6000806040838503121561356757600080fd5b823561357281612fe9565b915060208301356134c981612fe9565b600181811c9082168061359657607f821691505b602082108114156135b757634e487b7160e01b600052602260045260246000fd5b50919050565b6000602082840312156135cf57600080fd5b5051919050565b6000602082840312156135e857600080fd5b815167ffffffffffffffff8111156135ff57600080fd5b8201601f8101841361361057600080fd5b805161361e613111826130db565b81815285602083850101111561363357600080fd5b613644826020830160208601612f65565b95945050505050565b634e487b7160e01b600052601160045260246000fd5b600062ffffff8083168181141561367c5761367c61364d565b6001019392505050565b600062ffffff8083168185168083038211156136a4576136a461364d565b01949350505050565b60008160001904831182151516156136c7576136c761364d565b500290565b600082198211156136df576136df61364d565b500190565b634e487b7160e01b600052603260045260246000fd5b600060001982141561370e5761370e61364d565b5060010190565b60006020828403121561372757600080fd5b8151612f5e81612fe9565b60008261374f57634e487b7160e01b600052601260045260246000fd5b500490565b6000828210156137665761376661364d565b500390565b60006020828403121561377d57600080fd5b8151612f5e8161348d565b6020808252602d908201527f4552433732313a2063616c6c6572206973206e6f7420746f6b656e206f776e6560408201526c1c881bdc88185c1c1c9bdd9959609a1b606082015260800190565b60208082526032908201527f4552433732313a207472616e7366657220746f206e6f6e20455243373231526560408201527131b2b4bb32b91034b6b83632b6b2b73a32b960711b606082015260800190565b6001600160a01b038581168252841660208201526040810183905260806060820181905260009061385a90830184612f91565b9695505050505050565b60006020828403121561387657600080fd5b8151612f5e81612f2b565b60208082526025908201527f4552433732313a207472616e736665722066726f6d20696e636f72726563742060408201526437bbb732b960d91b60608201526080019056fea2646970667358221220781b665dc3b1ecec7645165120ead22c2a2e8ef365e62f7f59d6ca10a6247f2864736f6c634300080c0033",
  "linkReferences": {},
  "deployedLinkReferences": {}
}