{
  "_format": "hh-sol-artifact-1",
  "contractName": "GenerativeNFT",
  "sourceName": "contracts/nfts/GenerativeNFT.sol",
  "abi": [
    {
      "inputs": [
        {
          "internalType": "string",
          "name": "name",
          "type": "string"
        },
        {
          "internalType": "string",
          "name": "symbol",
          "type": "string"
        }
      ],
      "stateMutability": "nonpayable",
      "type": "constructor"
    },
    {
      "inputs": [
        {
          "internalType": "address",
          "name": "operator",
          "type": "address"
        }
      ],
      "name": "OperatorNotAllowed",
      "type": "error"
    },
    {
      "anonymous": false,
      "inputs": [
        {
          "indexed": true,
          "internalType": "address",
          "name": "owner",
          "type": "address"
        },
        {
          "indexed": true,
          "internalType": "address",
          "name": "approved",
          "type": "address"
        },
        {
          "indexed": true,
          "internalType": "uint256",
          "name": "tokenId",
          "type": "uint256"
        }
      ],
      "name": "Approval",
      "type": "event"
    },
    {
      "anonymous": false,
      "inputs": [
        {
          "indexed": true,
          "internalType": "address",
          "name": "owner",
          "type": "address"
        },
        {
          "indexed": true,
          "internalType": "address",
          "name": "operator",
          "type": "address"
        },
        {
          "indexed": false,
          "internalType": "bool",
          "name": "approved",
          "type": "bool"
        }
      ],
      "name": "ApprovalForAll",
      "type": "event"
    },
    {
      "anonymous": false,
      "inputs": [
        {
          "indexed": true,
          "internalType": "address",
          "name": "previousOwner",
          "type": "address"
        },
        {
          "indexed": true,
          "internalType": "address",
          "name": "newOwner",
          "type": "address"
        }
      ],
      "name": "OwnershipTransferred",
      "type": "event"
    },
    {
      "anonymous": false,
      "inputs": [
        {
          "indexed": false,
          "internalType": "address",
          "name": "account",
          "type": "address"
        }
      ],
      "name": "Paused",
      "type": "event"
    },
    {
      "anonymous": false,
      "inputs": [
        {
          "indexed": true,
          "internalType": "address",
          "name": "from",
          "type": "address"
        },
        {
          "indexed": true,
          "internalType": "address",
          "name": "to",
          "type": "address"
        },
        {
          "indexed": true,
          "internalType": "uint256",
          "name": "tokenId",
          "type": "uint256"
        }
      ],
      "name": "Transfer",
      "type": "event"
    },
    {
      "anonymous": false,
      "inputs": [
        {
          "indexed": false,
          "internalType": "address",
          "name": "account",
          "type": "address"
        }
      ],
      "name": "Unpaused",
      "type": "event"
    },
    {
      "inputs": [],
      "name": "OPERATOR_FILTER_REGISTRY",
      "outputs": [
        {
          "internalType": "contract IOperatorFilterRegistry",
          "name": "",
          "type": "address"
        }
      ],
      "stateMutability": "view",
      "type": "function"
    },
    {
      "inputs": [],
      "name": "_admin",
      "outputs": [
        {
          "internalType": "address",
          "name": "",
          "type": "address"
        }
      ],
      "stateMutability": "view",
      "type": "function"
    },
    {
      "inputs": [],
      "name": "_nameCol",
      "outputs": [
        {
          "internalType": "string",
          "name": "",
          "type": "string"
        }
      ],
      "stateMutability": "view",
      "type": "function"
    },
    {
      "inputs": [],
      "name": "_paramsAddress",
      "outputs": [
        {
          "internalType": "address",
          "name": "",
          "type": "address"
        }
      ],
      "stateMutability": "view",
      "type": "function"
    },
    {
      "inputs": [],
      "name": "_project",
      "outputs": [
        {
          "internalType": "address",
          "name": "_projectAddr",
          "type": "address"
        },
        {
          "internalType": "uint256",
          "name": "_projectId",
          "type": "uint256"
        },
        {
          "internalType": "uint24",
          "name": "_maxSupply",
          "type": "uint24"
        },
        {
          "internalType": "uint24",
          "name": "_limit",
          "type": "uint24"
        },
        {
          "internalType": "uint24",
          "name": "_index",
          "type": "uint24"
        },
        {
          "internalType": "uint24",
          "name": "_indexReserve",
          "type": "uint24"
        },
        {
          "internalType": "string",
          "name": "_creator",
          "type": "string"
        },
        {
          "internalType": "uint256",
          "name": "_mintPrice",
          "type": "uint256"
        },
        {
          "internalType": "address",
          "name": "_mintPriceAddr",
          "type": "address"
        },
        {
          "internalType": "string",
          "name": "_name",
          "type": "string"
        },
        {
          "components": [
            {
              "internalType": "uint256",
              "name": "_initBlockTime",
              "type": "uint256"
            },
            {
              "internalType": "uint256",
              "name": "_openingTime",
              "type": "uint256"
            }
          ],
          "internalType": "struct NFTProject.ProjectMintingSchedule",
          "name": "_mintingSchedule",
          "type": "tuple"
        },
        {
          "internalType": "uint256",
          "name": "_royalty",
          "type": "uint256"
        }
      ],
      "stateMutability": "view",
      "type": "function"
    },
    {
      "inputs": [],
      "name": "_projectDataContextAddr",
      "outputs": [
        {
          "internalType": "address",
          "name": "",
          "type": "address"
        }
      ],
      "stateMutability": "view",
      "type": "function"
    },
    {
      "inputs": [],
      "name": "_randomizer",
      "outputs": [
        {
          "internalType": "address",
          "name": "",
          "type": "address"
        }
      ],
      "stateMutability": "view",
      "type": "function"
    },
    {
      "inputs": [],
      "name": "_royalty",
      "outputs": [
        {
          "internalType": "uint256",
          "name": "",
          "type": "uint256"
        }
      ],
      "stateMutability": "view",
      "type": "function"
    },
    {
      "inputs": [
        {
          "internalType": "address",
          "name": "to",
          "type": "address"
        },
        {
          "internalType": "uint256",
          "name": "tokenId",
          "type": "uint256"
        }
      ],
      "name": "approve",
      "outputs": [],
      "stateMutability": "nonpayable",
      "type": "function"
    },
    {
      "inputs": [
        {
          "internalType": "address",
          "name": "owner",
          "type": "address"
        }
      ],
      "name": "balanceOf",
      "outputs": [
        {
          "internalType": "uint256",
          "name": "",
          "type": "uint256"
        }
      ],
      "stateMutability": "view",
      "type": "function"
    },
    {
      "inputs": [
        {
          "internalType": "address",
          "name": "newAdm",
          "type": "address"
        }
      ],
      "name": "changeAdmin",
      "outputs": [],
      "stateMutability": "nonpayable",
      "type": "function"
    },
    {
      "inputs": [
        {
          "internalType": "address",
          "name": "newAddr",
          "type": "address"
        }
      ],
      "name": "changeDataContextAddr",
      "outputs": [],
      "stateMutability": "nonpayable",
      "type": "function"
    },
    {
      "inputs": [
        {
          "internalType": "address",
          "name": "newAddr",
          "type": "address"
        }
      ],
      "name": "changeParamAddr",
      "outputs": [],
      "stateMutability": "nonpayable",
      "type": "function"
    },
    {
      "inputs": [
        {
          "internalType": "address",
          "name": "newAddr",
          "type": "address"
        }
      ],
      "name": "changeRandomizerAddr",
      "outputs": [],
      "stateMutability": "nonpayable",
      "type": "function"
    },
    {
      "inputs": [
        {
          "internalType": "uint256",
          "name": "tokenId",
          "type": "uint256"
        }
      ],
      "name": "getApproved",
      "outputs": [
        {
          "internalType": "address",
          "name": "",
          "type": "address"
        }
      ],
      "stateMutability": "view",
      "type": "function"
    },
    {
      "inputs": [],
      "name": "getStatus",
      "outputs": [
        {
          "internalType": "bool",
          "name": "",
          "type": "bool"
        }
      ],
      "stateMutability": "view",
      "type": "function"
    },
    {
      "inputs": [
        {
          "components": [
            {
              "internalType": "address",
              "name": "_projectAddr",
              "type": "address"
            },
            {
              "internalType": "uint256",
              "name": "_projectId",
              "type": "uint256"
            },
            {
              "internalType": "uint24",
              "name": "_maxSupply",
              "type": "uint24"
            },
            {
              "internalType": "uint24",
              "name": "_limit",
              "type": "uint24"
            },
            {
              "internalType": "uint24",
              "name": "_index",
              "type": "uint24"
            },
            {
              "internalType": "uint24",
              "name": "_indexReserve",
              "type": "uint24"
            },
            {
              "internalType": "string",
              "name": "_creator",
              "type": "string"
            },
            {
              "internalType": "uint256",
              "name": "_mintPrice",
              "type": "uint256"
            },
            {
              "internalType": "address",
              "name": "_mintPriceAddr",
              "type": "address"
            },
            {
              "internalType": "string",
              "name": "_name",
              "type": "string"
            },
            {
              "components": [
                {
                  "internalType": "uint256",
                  "name": "_initBlockTime",
                  "type": "uint256"
                },
                {
                  "internalType": "uint256",
                  "name": "_openingTime",
                  "type": "uint256"
                }
              ],
              "internalType": "struct NFTProject.ProjectMintingSchedule",
              "name": "_mintingSchedule",
              "type": "tuple"
            },
            {
              "internalType": "address[]",
              "name": "_reserves",
              "type": "address[]"
            },
            {
              "internalType": "uint256",
              "name": "_royalty",
              "type": "uint256"
            }
          ],
          "internalType": "struct NFTProject.ProjectMinting",
          "name": "project",
          "type": "tuple"
        },
        {
          "internalType": "address",
          "name": "admin",
          "type": "address"
        },
        {
          "internalType": "address",
          "name": "paramsAddr",
          "type": "address"
        },
        {
          "internalType": "address",
          "name": "randomizer",
          "type": "address"
        },
        {
          "internalType": "address",
          "name": "projectDataContextAddr",
          "type": "address"
        },
        {
          "internalType": "bool",
          "name": "disable",
          "type": "bool"
        }
      ],
      "name": "init",
      "outputs": [],
      "stateMutability": "nonpayable",
      "type": "function"
    },
    {
      "inputs": [
        {
          "internalType": "address",
          "name": "owner",
          "type": "address"
        },
        {
          "internalType": "address",
          "name": "operator",
          "type": "address"
        }
      ],
      "name": "isApprovedForAll",
      "outputs": [
        {
          "internalType": "bool",
          "name": "",
          "type": "bool"
        }
      ],
      "stateMutability": "view",
      "type": "function"
    },
    {
      "inputs": [],
      "name": "mint",
      "outputs": [
        {
          "internalType": "uint256",
          "name": "tokenId",
          "type": "uint256"
        }
      ],
      "stateMutability": "payable",
      "type": "function"
    },
    {
      "inputs": [],
      "name": "name",
      "outputs": [
        {
          "internalType": "string",
          "name": "",
          "type": "string"
        }
      ],
      "stateMutability": "view",
      "type": "function"
    },
    {
      "inputs": [],
      "name": "owner",
      "outputs": [
        {
          "internalType": "address",
          "name": "",
          "type": "address"
        }
      ],
      "stateMutability": "view",
      "type": "function"
    },
    {
      "inputs": [
        {
          "internalType": "uint256",
          "name": "tokenId",
          "type": "uint256"
        }
      ],
      "name": "ownerOf",
      "outputs": [
        {
          "internalType": "address",
          "name": "",
          "type": "address"
        }
      ],
      "stateMutability": "view",
      "type": "function"
    },
    {
      "inputs": [],
      "name": "paused",
      "outputs": [
        {
          "internalType": "bool",
          "name": "",
          "type": "bool"
        }
      ],
      "stateMutability": "view",
      "type": "function"
    },
    {
      "inputs": [],
      "name": "projectAddress",
      "outputs": [
        {
          "internalType": "address",
          "name": "",
          "type": "address"
        }
      ],
      "stateMutability": "view",
      "type": "function"
    },
    {
      "inputs": [],
      "name": "projectIndex",
      "outputs": [
        {
          "internalType": "uint24",
          "name": "",
          "type": "uint24"
        }
      ],
      "stateMutability": "view",
      "type": "function"
    },
    {
      "inputs": [],
      "name": "renounceOwnership",
      "outputs": [],
      "stateMutability": "nonpayable",
      "type": "function"
    },
    {
      "inputs": [],
      "name": "reserveMint",
      "outputs": [
        {
          "internalType": "uint256",
          "name": "tokenId",
          "type": "uint256"
        }
      ],
      "stateMutability": "payable",
      "type": "function"
    },
    {
      "inputs": [
        {
          "internalType": "uint256",
          "name": "_tokenId",
          "type": "uint256"
        },
        {
          "internalType": "uint256",
          "name": "_salePrice",
          "type": "uint256"
        }
      ],
      "name": "royaltyInfo",
      "outputs": [
        {
          "internalType": "address",
          "name": "receiver",
          "type": "address"
        },
        {
          "internalType": "uint256",
          "name": "royaltyAmount",
          "type": "uint256"
        }
      ],
      "stateMutability": "view",
      "type": "function"
    },
    {
      "inputs": [
        {
          "internalType": "address",
          "name": "from",
          "type": "address"
        },
        {
          "internalType": "address",
          "name": "to",
          "type": "address"
        },
        {
          "internalType": "uint256",
          "name": "tokenId",
          "type": "uint256"
        }
      ],
      "name": "safeTransferFrom",
      "outputs": [],
      "stateMutability": "nonpayable",
      "type": "function"
    },
    {
      "inputs": [
        {
          "internalType": "address",
          "name": "from",
          "type": "address"
        },
        {
          "internalType": "address",
          "name": "to",
          "type": "address"
        },
        {
          "internalType": "uint256",
          "name": "tokenId",
          "type": "uint256"
        },
        {
          "internalType": "bytes",
          "name": "data",
          "type": "bytes"
        }
      ],
      "name": "safeTransferFrom",
      "outputs": [],
      "stateMutability": "nonpayable",
      "type": "function"
    },
    {
      "inputs": [
        {
          "internalType": "address",
          "name": "operator",
          "type": "address"
        },
        {
          "internalType": "bool",
          "name": "approved",
          "type": "bool"
        }
      ],
      "name": "setApprovalForAll",
      "outputs": [],
      "stateMutability": "nonpayable",
      "type": "function"
    },
    {
      "inputs": [
        {
          "internalType": "bool",
          "name": "enable",
          "type": "bool"
        }
      ],
      "name": "setStatus",
      "outputs": [],
      "stateMutability": "nonpayable",
      "type": "function"
    },
    {
      "inputs": [
        {
          "internalType": "bytes4",
          "name": "interfaceId",
          "type": "bytes4"
        }
      ],
      "name": "supportsInterface",
      "outputs": [
        {
          "internalType": "bool",
          "name": "",
          "type": "bool"
        }
      ],
      "stateMutability": "view",
      "type": "function"
    },
    {
      "inputs": [],
      "name": "symbol",
      "outputs": [
        {
          "internalType": "string",
          "name": "",
          "type": "string"
        }
      ],
      "stateMutability": "view",
      "type": "function"
    },
    {
      "inputs": [
        {
          "internalType": "uint256",
          "name": "tokenId",
          "type": "uint256"
        }
      ],
      "name": "tokenGenerativeURI",
      "outputs": [
        {
          "internalType": "string",
          "name": "",
          "type": "string"
        }
      ],
      "stateMutability": "view",
      "type": "function"
    },
    {
      "inputs": [
        {
          "internalType": "uint256",
          "name": "tokenId",
          "type": "uint256"
        }
      ],
      "name": "tokenURI",
      "outputs": [
        {
          "internalType": "string",
          "name": "",
          "type": "string"
        }
      ],
      "stateMutability": "view",
      "type": "function"
    },
    {
      "inputs": [
        {
          "internalType": "address",
          "name": "from",
          "type": "address"
        },
        {
          "internalType": "address",
          "name": "to",
          "type": "address"
        },
        {
          "internalType": "uint256",
          "name": "tokenId",
          "type": "uint256"
        }
      ],
      "name": "transferFrom",
      "outputs": [],
      "stateMutability": "nonpayable",
      "type": "function"
    },
    {
      "inputs": [
        {
          "internalType": "address",
          "name": "newOwner",
          "type": "address"
        }
      ],
      "name": "transferOwnership",
      "outputs": [],
      "stateMutability": "nonpayable",
      "type": "function"
    },
    {
      "inputs": [
        {
          "internalType": "uint256",
          "name": "price",
          "type": "uint256"
        }
      ],
      "name": "updatePrice",
      "outputs": [],
      "stateMutability": "nonpayable",
      "type": "function"
    }
  ],
  "bytecode": "0x60806040523480156200001157600080fd5b5060405162004035380380620040358339810160408190526200003491620003b0565b733cc6cdda760b79bafa08df41ecfa224f810dceb66001838381818160009080519060200190620000679291906200023d565b5080516200007d9060019060208401906200023d565b50506006805460ff191690555060016007556200009a33620001eb565b50506daaeb6d7670e522a718067333cd4e3b15620001e15780156200012f57604051633e9f1edf60e11b81523060048201526001600160a01b03831660248201526daaeb6d7670e522a718067333cd4e90637d3e3dbe906044015b600060405180830381600087803b1580156200011057600080fd5b505af115801562000125573d6000803e3d6000fd5b50505050620001e1565b6001600160a01b03821615620001805760405163a0af290360e01b81523060048201526001600160a01b03831660248201526daaeb6d7670e522a718067333cd4e9063a0af290390604401620000f5565b604051632210724360e11b81523060048201526daaeb6d7670e522a718067333cd4e90634420e48690602401600060405180830381600087803b158015620001c757600080fd5b505af1158015620001dc573d6000803e3d6000fd5b505050505b5050505062000457565b600880546001600160a01b038381166001600160a01b0319831681179093556040519116919082907f8be0079c531659141344cd1fd0a4f28419497f9722a3daafe3b4186f6b6457e090600090a35050565b8280546200024b906200041a565b90600052602060002090601f0160209004810192826200026f5760008555620002ba565b82601f106200028a57805160ff1916838001178555620002ba565b82800160010185558215620002ba579182015b82811115620002ba5782518255916020019190600101906200029d565b50620002c8929150620002cc565b5090565b5b80821115620002c85760008155600101620002cd565b634e487b7160e01b600052604160045260246000fd5b600082601f8301126200030b57600080fd5b81516001600160401b0380821115620003285762000328620002e3565b604051601f8301601f19908116603f01168101908282118183101715620003535762000353620002e3565b816040528381526020925086838588010111156200037057600080fd5b600091505b8382101562000394578582018301518183018401529082019062000375565b83821115620003a65760008385830101525b9695505050505050565b60008060408385031215620003c457600080fd5b82516001600160401b0380821115620003dc57600080fd5b620003ea86838701620002f9565b935060208501519150808211156200040157600080fd5b506200041085828601620002f9565b9150509250929050565b600181811c908216806200042f57607f821691505b602082108114156200045157634e487b7160e01b600052602260045260246000fd5b50919050565b613bce80620004676000396000f3fe6080604052600436106102305760003560e01c80635c40f6f41161012e57806395d89b41116100ab578063e985e9c51161006f578063e985e9c514610696578063f2fde38b146106df578063fc237452146106ff578063febfd6c31461071f578063ffc27c0e1461073f57600080fd5b806395d89b4114610601578063a22cb46514610616578063adfc7dae14610636578063b88d4fde14610656578063c87b56dd1461067657600080fd5b8063715018a6116100f2578063715018a614610561578063775bff9f146105765780638d6cc56d146105a35780638da5cb5b146105c35780638f283970146105e157600080fd5b80635c40f6f4146104a35780635c975abb146104c357806363184726146104db5780636352211e1461050b57806370a082311461054157600080fd5b806323b872dd116101bc57806342842e0e1161018057806342842e0e14610419578063452fa3d314610439578063472f1e021461044e5780634e69d5601461046e578063575b57ea1461048357600080fd5b806323b872dd146103645780632a55205a146103845780633b66b00a146103c35780633cf96af1146103d957806341f43434146103f757600080fd5b8063095ea7b311610203578063095ea7b3146102e457806310da88c5146103065780631249c58b146103265780631ca9741b1461033c57806321c8d6761461035c57600080fd5b806301bc45c91461023557806301ffc9a71461027257806306fdde03146102a2578063081812fc146102c4575b600080fd5b34801561024157600080fd5b50600a54610255906001600160a01b031681565b6040516001600160a01b0390911681526020015b60405180910390f35b34801561027e57600080fd5b5061029261028d366004613180565b61075f565b6040519015158152602001610269565b3480156102ae57600080fd5b506102b76107a5565b60405161026991906131fc565b3480156102d057600080fd5b506102556102df36600461320f565b610837565b3480156102f057600080fd5b506103046102ff36600461324d565b61085e565b005b34801561031257600080fd5b506102b761032136600461320f565b610979565b61032e610a61565b604051908152602001610269565b34801561034857600080fd5b50610304610357366004613279565b610c74565b61032e610cf3565b34801561037057600080fd5b5061030461037f366004613296565b610ff4565b34801561039057600080fd5b506103a461039f3660046132d7565b61101f565b604080516001600160a01b039093168352602083019190915201610269565b3480156103cf57600080fd5b5061032e600f5481565b3480156103e557600080fd5b506010546001600160a01b0316610255565b34801561040357600080fd5b506102556daaeb6d7670e522a718067333cd4e81565b34801561042557600080fd5b50610304610434366004613296565b611037565b34801561044557600080fd5b506102b761105c565b34801561045a57600080fd5b50610304610469366004613279565b6110ea565b34801561047a57600080fd5b50610292611169565b34801561048f57600080fd5b50600d54610255906001600160a01b031681565b3480156104af57600080fd5b506103046104be366004613312565b61117d565b3480156104cf57600080fd5b5060065460ff16610292565b3480156104e757600080fd5b50601254600160301b900462ffffff1660405162ffffff9091168152602001610269565b34801561051757600080fd5b5061025561052636600461320f565b6000908152600960205260409020546001600160a01b031690565b34801561054d57600080fd5b5061032e61055c366004613279565b6111e7565b34801561056d57600080fd5b5061030461126d565b34801561058257600080fd5b5061058b611281565b6040516102699c9b9a9998979695949392919061332f565b3480156105af57600080fd5b506103046105be36600461320f565b611420565b3480156105cf57600080fd5b50600a546001600160a01b0316610255565b3480156105ed57600080fd5b506103046105fc366004613279565b611483565b34801561060d57600080fd5b506102b7611502565b34801561062257600080fd5b506103046106313660046133e3565b6115a0565b34801561064257600080fd5b50600b54610255906001600160a01b031681565b34801561066257600080fd5b506103046106713660046134f3565b6115af565b34801561068257600080fd5b506102b761069136600461320f565b6115dc565b3480156106a257600080fd5b506102926106b1366004613573565b6001600160a01b03918216600090815260056020908152604080832093909416825291909152205460ff1690565b3480156106eb57600080fd5b506103046106fa366004613279565b61167b565b34801561070b57600080fd5b5061030461071a3660046136ac565b6116f1565b34801561072b57600080fd5b5061030461073a366004613279565b6119cc565b34801561074b57600080fd5b50600c54610255906001600160a01b031681565b60006001600160e01b031982166302734eab60e51b148061079057506001600160e01b0319821663152a902d60e11b145b8061079f575061079f82611a4b565b92915050565b6060600e80546107b490613854565b80601f01602080910402602001604051908101604052809291908181526020018280546107e090613854565b801561082d5780601f106108025761010080835404028352916020019161082d565b820191906000526020600020905b81548152906001019060200180831161081057829003601f168201915b5050505050905090565b600061084282611a9b565b506000908152600460205260409020546001600160a01b031690565b600061086982611aeb565b9050806001600160a01b0316836001600160a01b031614156108dc5760405162461bcd60e51b815260206004820152602160248201527f4552433732313a20617070726f76616c20746f2063757272656e74206f776e656044820152603960f91b60648201526084015b60405180910390fd5b336001600160a01b03821614806108f857506108f881336106b1565b61096a5760405162461bcd60e51b815260206004820152603d60248201527f4552433732313a20617070726f76652063616c6c6572206973206e6f7420746f60448201527f6b656e206f776e6572206f7220617070726f76656420666f7220616c6c00000060648201526084016108d3565b6109748383611b4b565b505050565b606061098482611bb9565b6040518060400160405280600381526020016232303960e81b815250906109be5760405162461bcd60e51b81526004016108d391906131fc565b50600d546001600160a01b031660006109d684611bd6565b601154604051639413930160e01b8152600481019190915260248101869052604481018290529091506001600160a01b038316906394139301906064015b600060405180830381865afa158015610a31573d6000803e3d6000fd5b505050506040513d6000823e601f3d908101601f19168201604052610a59919081019061388f565b949350505050565b6000610a6b611ca2565b60185415610ab25760185460408051808201909152600381526206460760eb1b6020820152904211610ab05760405162461bcd60e51b81526004016108d391906131fc565b505b60128054600160301b900462ffffff16906006610ace8361391c565b82546101009290920a62ffffff818102199093169183160217909155601254630100000081048216600160301b90910490911611159050610b0e57600080fd5b60125462ffffff80821691610b3491600160481b8204811691600160301b90041661393f565b62ffffff161415610ba557601054601154604051631122f8a960e11b815260048101919091526001600160a01b03909116908190632245f15290602401600060405180830381600087803b158015610b8b57600080fd5b505af1158015610b9f573d6000803e3d6000fd5b50505050505b601254601154600160301b90910462ffffff1690610bc790620f424090613966565b610bd19190613985565b9050610bdd3382611cfc565b600c54604051631da00d8560e01b8152600481018390526001600160a01b03909116906000908290631da00d85906024016020604051808303816000875af1158015610c2d573d6000803e3d6000fd5b505050506040513d601f19601f82011682018060405250810190610c51919061399d565b9050610c5d8382611d16565b610c65611ddf565b5050610c716001600755565b90565b600a546001600160a01b031633148015610c9657506001600160a01b03811615155b6040518060400160405280600381526020016231303160e81b81525090610cd05760405162461bcd60e51b81526004016108d391906131fc565b50600c80546001600160a01b0319166001600160a01b0392909216919091179055565b6000610cfd611ca2565b60128054600160481b900462ffffff16906009610d198361391c565b82546101009290920a62ffffff8181021990931691831602179091556012548082169250610d589163010000008204811691600160481b90041661393f565b62ffffff161115610d6857600080fd5b60125462ffffff80821691610d8e91600160481b8204811691600160301b90041661393f565b62ffffff161415610dff57601054601154604051631122f8a960e11b815260048101919091526001600160a01b03909116908190632245f15290602401600060405180830381600087803b158015610de557600080fd5b505af1158015610df9573d6000803e3d6000fd5b50505050505b601054336000908152601b60205260409020546001600160a01b039091169060ff1680610ea957506011546040516331a9108f60e11b815260048101919091526001600160a01b03821690636352211e90602401602060405180830381865afa158015610e70573d6000803e3d6000fd5b505050506040513d601f19601f82011682018060405250810190610e9491906139b6565b6001600160a01b0316336001600160a01b0316145b610eb257600080fd5b336000908152601b602052604090205460ff168015610ed2575060185415155b15610f165760185460408051808201909152600381526206460760eb1b6020820152904211610f145760405162461bcd60e51b81526004016108d391906131fc565b505b601254610f389062ffffff63010000008204811691600160481b90041661393f565b62ffffff16620f4240601060010154610f519190613966565b610f5b9190613985565b9150610f673383611cfc565b600c54604051631da00d8560e01b8152600481018490526001600160a01b03909116906000908290631da00d85906024016020604051808303816000875af1158015610fb7573d6000803e3d6000fd5b505050506040513d601f19601f82011682018060405250810190610fdb919061399d565b9050610fe78482611d16565b505050610c716001600755565b826001600160a01b038116331461100e5761100e336123c4565b61101984848461247d565b50505050565b60008061102c84846124ae565b915091509250929050565b826001600160a01b038116331461105157611051336123c4565b611019848484612648565b600e805461106990613854565b80601f016020809104026020016040519081016040528092919081815260200182805461109590613854565b80156110e25780601f106110b7576101008083540402835291602001916110e2565b820191906000526020600020905b8154815290600101906020018083116110c557829003601f168201915b505050505081565b600a546001600160a01b03163314801561110c57506001600160a01b03811615155b6040518060400160405280600381526020016231303160e81b815250906111465760405162461bcd60e51b81526004016108d391906131fc565b50600d80546001600160a01b0319166001600160a01b0392909216919091179055565b600061117760065460ff1690565b15905090565b600a546001600160a01b03163314806111a057506010546001600160a01b031633145b6040518060400160405280600381526020016231303160e81b815250906111da5760405162461bcd60e51b81526004016108d391906131fc565b506111e481612663565b50565b60006001600160a01b0382166112515760405162461bcd60e51b815260206004820152602960248201527f4552433732313a2061646472657373207a65726f206973206e6f7420612076616044820152683634b21037bbb732b960b91b60648201526084016108d3565b506001600160a01b031660009081526003602052604090205490565b611275612679565b61127f60006126e5565b565b60108054601154601254601380546001600160a01b0390941694929362ffffff8084169463010000008504821694600160301b8104831694600160481b909104909216929091906112d190613854565b80601f01602080910402602001604051908101604052809291908181526020018280546112fd90613854565b801561134a5780601f1061131f5761010080835404028352916020019161134a565b820191906000526020600020905b81548152906001019060200180831161132d57829003601f168201915b5050505060048301546005840154600685018054949592946001600160a01b0390921693509061137990613854565b80601f01602080910402602001604051908101604052809291908181526020018280546113a590613854565b80156113f25780601f106113c7576101008083540402835291602001916113f2565b820191906000526020600020905b8154815290600101906020018083116113d557829003601f168201915b5050604080518082019091526007860154815260088601546020820152600a9095015493949392508e915050565b600a546001600160a01b031633148061144357506010546001600160a01b031633145b6040518060400160405280600381526020016231303160e81b8152509061147d5760405162461bcd60e51b81526004016108d391906131fc565b50601455565b600a546001600160a01b0316331480156114a557506001600160a01b03811615155b6040518060400160405280600381526020016231303160e81b815250906114df5760405162461bcd60e51b81526004016108d391906131fc565b50600a80546001600160a01b0319166001600160a01b0392909216919091179055565b606061159b60016003600e805461151890613854565b80601f016020809104026020016040519081016040528092919081815260200182805461154490613854565b80156115915780601f1061156657610100808354040283529160200191611591565b820191906000526020600020905b81548152906001019060200180831161157457829003601f168201915b5050505050612737565b905090565b6115ab33838361281e565b5050565b836001600160a01b03811633146115c9576115c9336123c4565b6115d5858585856128ed565b5050505050565b60606115e782611bb9565b6040518060400160405280600381526020016232303960e81b815250906116215760405162461bcd60e51b81526004016108d391906131fc565b50600d546001600160a01b0316600061163984611bd6565b6011546040516308dd54e960e31b8152600481019190915260248101869052604481018290529091506001600160a01b038316906346eaa74890606401610a14565b611683612679565b6001600160a01b0381166116e85760405162461bcd60e51b815260206004820152602660248201527f4f776e61626c653a206e6577206f776e657220697320746865207a65726f206160448201526564647265737360d01b60648201526084016108d3565b6111e4816126e5565b600a5460408051808201909152600381526219181960e91b6020820152906001600160a01b0316156117365760405162461bcd60e51b81526004016108d391906131fc565b5060408051808201909152600381526203130360ec1b60208201526001600160a01b0386166117785760405162461bcd60e51b81526004016108d391906131fc565b508551601080546001600160a01b039092166001600160a01b031990921691909117815560208088015160115560408801516012805460608b015160808c015160a08d015162ffffff908116600160481b026bffffff00000000000000000019928216600160301b02929092166bffffffffffff0000000000001993821663010000000265ffffffffffff19909516919096161792909217169290921791909117905560c088015180518993926118349260139291019061307c565b5060e082015160048201556101008201516005820180546001600160a01b0319166001600160a01b03909216919091179055610120820151805161188291600684019160209091019061307c565b5061014082015180516007830155602090810151600883015561016083015180516118b39260098501920190613100565b506101809190910151600a91820155600b80546001600160a01b038088166001600160a01b031992831617909255825488831690821617909255600c8054868316908416179055600d805491851691909216179055610120860151805161192291600e9160209091019061307c565b5060005b86610160015151811015611995576001601b60008961016001518481518110611951576119516139d3565b6020908102919091018101516001600160a01b03168252810191909152604001600020805460ff19169115159190911790558061198d816139e9565b915050611926565b50600a546119ab906001600160a01b031661167b565b80156119b9576119b961291f565b5050426017555050506101800151600f55565b600a546001600160a01b0316331480156119ee57506001600160a01b03811615155b6040518060400160405280600381526020016231303160e81b81525090611a285760405162461bcd60e51b81526004016108d391906131fc565b50600b80546001600160a01b0319166001600160a01b0392909216919091179055565b60006001600160e01b031982166380ac58cd60e01b1480611a7c57506001600160e01b03198216635b5e139f60e01b145b8061079f57506301ffc9a760e01b6001600160e01b031983161461079f565b611aa481611bb9565b6111e45760405162461bcd60e51b8152602060048201526018602482015277115490cdcc8c4e881a5b9d985b1a59081d1bdad95b88125160421b60448201526064016108d3565b6000818152600260205260408120546001600160a01b03168061079f5760405162461bcd60e51b8152602060048201526018602482015277115490cdcc8c4e881a5b9d985b1a59081d1bdad95b88125160421b60448201526064016108d3565b600081815260046020526040902080546001600160a01b0319166001600160a01b0384169081179091558190611b8082611aeb565b6001600160a01b03167f8c5be1e5ebec7d5bd14f71427d1e84f3dd0314c0f7b2291e5b200ac8c7c3b92560405160405180910390a45050565b6000908152600960205260409020546001600160a01b0316151590565b6000611be182611bb9565b6040518060400160405280600381526020016232303960e81b81525090611c1b5760405162461bcd60e51b81526004016108d391906131fc565b50600082815260096020526040902054600160a01b900460a01b6001600160a01b031916611c4b57506000919050565b600082815260096020908152604091829020549151611c8592600160a01b900460a01b91016001600160a01b031991909116815260200190565b604051602081830303815290604052805190602001209050919050565b60026007541415611cf55760405162461bcd60e51b815260206004820152601f60248201527f5265656e7472616e637947756172643a207265656e7472616e742063616c6c0060448201526064016108d3565b6002600755565b6115ab828260405180602001604052806000815250612979565b600082815260096020908152604091829020548251808401909352600383526219181b60e91b91830191909152600160a01b900460a01b6001600160a01b03191615611d755760405162461bcd60e51b81526004016108d391906131fc565b5060408051808201909152600381526232303760e81b602082015281611dae5760405162461bcd60e51b81526004016108d391906131fc565b50600091825260096020526040909120805460a09290921c600160a01b026001600160a01b03909216919091179055565b60145480611dea5750565b601054600b54604080518082018252601b81527f44454641554c545f524f59414c54595f46494e5f50455243454e54000000000060208201529051636d12dce160e01b81526001600160a01b0393841693909216916000918391636d12dce191611e56916004016131fc565b602060405180830381865afa158015611e73573d6000803e3d6000fd5b505050506040513d601f19601f82011682018060405250810190611e97919061399d565b600a54600b549192506001600160a01b039081169116156120035760408051808201825260158152744d494e545f4e46545f4f50455241544f525f46454560581b60208201529051636d12dce160e01b81526001600160a01b03851691636d12dce191611f0791906004016131fc565b602060405180830381865afa158015611f24573d6000803e3d6000fd5b505050506040513d601f19601f82011682018060405250810190611f48919061399d565b604080518082018252601f81527f4d494e545f4e46545f4f50455241544f525f54524541535552455f41444452006020820152905163bf40fac160e01b81529193506000916001600160a01b0386169163bf40fac191611fab91906004016131fc565b602060405180830381865afa158015611fc8573d6000803e3d6000fd5b505050506040513d601f19601f82011682018060405250810190611fec91906139b6565b90506001600160a01b03811615612001578091505b505b6015546001600160a01b031680612183578534101561202157600080fd5b6011546040516331a9108f60e11b81526000916001600160a01b03881691636352211e916120559160040190815260200190565b602060405180830381865afa158015612072573d6000803e3d6000fd5b505050506040513d601f19601f8201168201806040525081019061209691906139b6565b6001600160a01b03166127106120ac868a613966565b6120b69190613a04565b6120c09089613a26565b604051600081818185875af1925050503d80600081146120fc576040519150601f19603f3d011682016040523d82523d6000602084013e612101565b606091505b505090508061210f57600080fd5b831561217d576001600160a01b03831661271061212c868a613966565b6121369190613a04565b604051600081818185875af1925050503d8060008114612172576040519150601f19603f3d011682016040523d82523d6000602084013e612177565b606091505b50909150505b506123bc565b6040516323b872dd60e01b81523360048201523060248201526044810187905281906001600160a01b038216906323b872dd906064016020604051808303816000875af11580156121d8573d6000803e3d6000fd5b505050506040513d601f19601f820116820180604052508101906121fc9190613a3d565b61220557600080fd5b6011546040516331a9108f60e11b815260048101919091526001600160a01b038281169163a9059cbb91891690636352211e90602401602060405180830381865afa158015612258573d6000803e3d6000fd5b505050506040513d601f19601f8201168201806040525081019061227c91906139b6565b612710612289888c613966565b6122939190613a04565b61229d908b613a26565b6040516001600160e01b031960e085901b1681526001600160a01b03909216600483015260248201526044016020604051808303816000875af11580156122e8573d6000803e3d6000fd5b505050506040513d601f19601f8201168201806040525081019061230c9190613a3d565b61231557600080fd5b83156123ba576001600160a01b03811663a9059cbb84612710612338888c613966565b6123429190613a04565b6040516001600160e01b031960e085901b1681526001600160a01b03909216600483015260248201526044016020604051808303816000875af115801561238d573d6000803e3d6000fd5b505050506040513d601f19601f820116820180604052508101906123b19190613a3d565b6123ba57600080fd5b505b505050505050565b6daaeb6d7670e522a718067333cd4e3b156111e457604051633185c44d60e21b81523060048201526001600160a01b03821660248201526daaeb6d7670e522a718067333cd4e9063c617113490604401602060405180830381865afa158015612431573d6000803e3d6000fd5b505050506040513d601f19601f820116820180604052508101906124559190613a3d565b6111e457604051633b79c77360e21b81526001600160a01b03821660048201526024016108d3565b61248733826129ac565b6124a35760405162461bcd60e51b81526004016108d390613a5a565b610974838383612a2a565b600a54600f54600b546001600160a01b039283169260009291161561262757600b546040805180820182526013815272524f59414c54595f46494e5f4144445245535360681b6020820152905163bf40fac160e01b81526001600160a01b0390921691600091839163bf40fac191612528916004016131fc565b602060405180830381865afa158015612545573d6000803e3d6000fd5b505050506040513d601f19601f8201168201806040525081019061256991906139b6565b90506001600160a01b0381161561257e578094505b8261262457604080518082018252601b81527f44454641554c545f524f59414c54595f46494e5f50455243454e54000000000060208201529051636d12dce160e01b81526001600160a01b03841691636d12dce1916125e091906004016131fc565b602060405180830381865afa1580156125fd573d6000803e3d6000fd5b505050506040513d601f19601f82011682018060405250810190612621919061399d565b92505b50505b6127106126348286613966565b61263e9190613a04565b9150509250929050565b610974838383604051806020016040528060008152506115af565b8015612671576111e4612a64565b6111e461291f565b3361268c600a546001600160a01b031690565b6001600160a01b031614806126ab57506010546001600160a01b031633145b6040518060400160405280600381526020016203130360ec1b815250906111e45760405162461bcd60e51b81526004016108d391906131fc565b600880546001600160a01b038381166001600160a01b0319831681179093556040519116919082907f8be0079c531659141344cd1fd0a4f28419497f9722a3daafe3b4186f6b6457e090600090a35050565b606060006127458585613a26565b612750906001613985565b67ffffffffffffffff8111156127685761276861341c565b6040519080825280601f01601f191660200182016040528015612792576020820181803683370190505b50905060005b6127a28686613a26565b8111612815578360016127b58884613985565b6127bf9190613a26565b815181106127cf576127cf6139d3565b602001015160f81c60f81b8282815181106127ec576127ec6139d3565b60200101906001600160f81b031916908160001a9053508061280d816139e9565b915050612798565b50949350505050565b816001600160a01b0316836001600160a01b031614156128805760405162461bcd60e51b815260206004820152601960248201527f4552433732313a20617070726f766520746f2063616c6c65720000000000000060448201526064016108d3565b6001600160a01b03838116600081815260056020908152604080832094871680845294825291829020805460ff191686151590811790915591519182527f17307eab39ab6107e8899845ad3d59bd9653f200f220920489ca2b5937696c31910160405180910390a3505050565b6128f733836129ac565b6129135760405162461bcd60e51b81526004016108d390613a5a565b61101984848484612a9d565b612927612ad0565b6006805460ff191660011790557f62e78cea01bee320cd4e420270b5ea74000d11b0c9f74754ebdbfc544b05a25861295c3390565b6040516001600160a01b03909116815260200160405180910390a1565b6129838383612b16565b6129906000848484612b4e565b6109745760405162461bcd60e51b81526004016108d390613aa7565b6000806129b883611aeb565b9050806001600160a01b0316846001600160a01b031614806129ff57506001600160a01b0380821660009081526005602090815260408083209388168352929052205460ff165b80610a595750836001600160a01b0316612a1884610837565b6001600160a01b031614949350505050565b612a35838383612c4c565b600090815260096020526040902080546001600160a01b0319166001600160a01b039290921691909117905550565b612a6c612dbd565b6006805460ff191690557f5db9ee0a495bf2e6ff9c91a7834c1ba4fdd244a5e8aa4e537bd38aeae4b073aa3361295c565b612aa8848484612a2a565b612ab484848484612b4e565b6110195760405162461bcd60e51b81526004016108d390613aa7565b60065460ff161561127f5760405162461bcd60e51b815260206004820152601060248201526f14185d5cd8589b194e881c185d5cd95960821b60448201526064016108d3565b612b208282612e06565b600090815260096020526040902080546001600160a01b0319166001600160a01b0392909216919091179055565b60006001600160a01b0384163b15612c4157604051630a85bd0160e11b81526001600160a01b0385169063150b7a0290612b92903390899088908890600401613af9565b6020604051808303816000875af1925050508015612bcd575060408051601f3d908101601f19168201909252612bca91810190613b36565b60015b612c27573d808015612bfb576040519150601f19603f3d011682016040523d82523d6000602084013e612c00565b606091505b508051612c1f5760405162461bcd60e51b81526004016108d390613aa7565b805181602001fd5b6001600160e01b031916630a85bd0160e11b149050610a59565b506001949350505050565b826001600160a01b0316612c5f82611aeb565b6001600160a01b031614612c855760405162461bcd60e51b81526004016108d390613b53565b6001600160a01b038216612ce75760405162461bcd60e51b8152602060048201526024808201527f4552433732313a207472616e7366657220746f20746865207a65726f206164646044820152637265737360e01b60648201526084016108d3565b612cf48383836001612f81565b826001600160a01b0316612d0782611aeb565b6001600160a01b031614612d2d5760405162461bcd60e51b81526004016108d390613b53565b600081815260046020908152604080832080546001600160a01b03199081169091556001600160a01b0387811680865260038552838620805460001901905590871680865283862080546001019055868652600290945282852080549092168417909155905184937fddf252ad1be2c89b69c2b068fc378daa952ba7f163c4a11628f55a4df523b3ef91a4505050565b60065460ff1661127f5760405162461bcd60e51b815260206004820152601460248201527314185d5cd8589b194e881b9bdd081c185d5cd95960621b60448201526064016108d3565b6001600160a01b038216612e5c5760405162461bcd60e51b815260206004820181905260248201527f4552433732313a206d696e7420746f20746865207a65726f206164647265737360448201526064016108d3565b612e6581611bb9565b15612eb25760405162461bcd60e51b815260206004820152601c60248201527f4552433732313a20746f6b656e20616c7265616479206d696e7465640000000060448201526064016108d3565b612ec0600083836001612f81565b612ec981611bb9565b15612f165760405162461bcd60e51b815260206004820152601c60248201527f4552433732313a20746f6b656e20616c7265616479206d696e7465640000000060448201526064016108d3565b6001600160a01b038216600081815260036020908152604080832080546001019055848352600290915280822080546001600160a01b0319168417905551839291907fddf252ad1be2c89b69c2b068fc378daa952ba7f163c4a11628f55a4df523b3ef908290a45050565b612f8d84848484612ff4565b60065460ff16156110195760405162461bcd60e51b815260206004820152602b60248201527f4552433732315061757361626c653a20746f6b656e207472616e73666572207760448201526a1a1a5b19481c185d5cd95960aa1b60648201526084016108d3565b6001811115611019576001600160a01b0384161561303a576001600160a01b03841660009081526003602052604081208054839290613034908490613a26565b90915550505b6001600160a01b03831615611019576001600160a01b03831660009081526003602052604081208054839290613071908490613985565b909155505050505050565b82805461308890613854565b90600052602060002090601f0160209004810192826130aa57600085556130f0565b82601f106130c357805160ff19168380011785556130f0565b828001600101855582156130f0579182015b828111156130f05782518255916020019190600101906130d5565b506130fc929150613155565b5090565b8280548282559060005260206000209081019282156130f0579160200282015b828111156130f057825182546001600160a01b0319166001600160a01b03909116178255602090920191600190910190613120565b5b808211156130fc5760008155600101613156565b6001600160e01b0319811681146111e457600080fd5b60006020828403121561319257600080fd5b813561319d8161316a565b9392505050565b60005b838110156131bf5781810151838201526020016131a7565b838111156110195750506000910152565b600081518084526131e88160208601602086016131a4565b601f01601f19169290920160200192915050565b60208152600061319d60208301846131d0565b60006020828403121561322157600080fd5b5035919050565b6001600160a01b03811681146111e457600080fd5b803561324881613228565b919050565b6000806040838503121561326057600080fd5b823561326b81613228565b946020939093013593505050565b60006020828403121561328b57600080fd5b813561319d81613228565b6000806000606084860312156132ab57600080fd5b83356132b681613228565b925060208401356132c681613228565b929592945050506040919091013590565b600080604083850312156132ea57600080fd5b50508035926020909101359150565b80151581146111e457600080fd5b8035613248816132f9565b60006020828403121561332457600080fd5b813561319d816132f9565b6001600160a01b038d168152602081018c905262ffffff8b811660408301528a811660608301528981166080830152881660a08201526101a060c0820181905260009061337e8382018a6131d0565b90508760e084015261339c6101008401886001600160a01b03169052565b8281036101208401526133af81876131d0565b8551610140850152602086015161016085015291506133cb9050565b826101808301529d9c50505050505050505050505050565b600080604083850312156133f657600080fd5b823561340181613228565b91506020830135613411816132f9565b809150509250929050565b634e487b7160e01b600052604160045260246000fd5b6040516101a0810167ffffffffffffffff811182821017156134565761345661341c565b60405290565b604051601f8201601f1916810167ffffffffffffffff811182821017156134855761348561341c565b604052919050565b600067ffffffffffffffff8211156134a7576134a761341c565b50601f01601f191660200190565b60006134c86134c38461348d565b61345c565b90508281528383830111156134dc57600080fd5b828260208301376000602084830101529392505050565b6000806000806080858703121561350957600080fd5b843561351481613228565b9350602085013561352481613228565b925060408501359150606085013567ffffffffffffffff81111561354757600080fd5b8501601f8101871361355857600080fd5b613567878235602084016134b5565b91505092959194509250565b6000806040838503121561358657600080fd5b823561359181613228565b9150602083013561341181613228565b803562ffffff8116811461324857600080fd5b600082601f8301126135c557600080fd5b61319d838335602085016134b5565b6000604082840312156135e657600080fd5b6040516040810181811067ffffffffffffffff821117156136095761360961341c565b604052823581526020928301359281019290925250919050565b600082601f83011261363457600080fd5b8135602067ffffffffffffffff8211156136505761365061341c565b8160051b61365f82820161345c565b928352848101820192828101908785111561367957600080fd5b83870192505b848310156136a157823561369281613228565b8252918301919083019061367f565b979650505050505050565b60008060008060008060c087890312156136c557600080fd5b863567ffffffffffffffff808211156136dd57600080fd5b908801906101c0828b0312156136f257600080fd5b6136fa613432565b6137038361323d565b81526020830135602082015261371b604084016135a1565b604082015261372c606084016135a1565b606082015261373d608084016135a1565b608082015261374e60a084016135a1565b60a082015260c08301358281111561376557600080fd5b6137718c8286016135b4565b60c08301525060e083013560e082015261010061378f81850161323d565b9082015261012083810135838111156137a757600080fd5b6137b38d8287016135b4565b8284015250506101406137c88c8286016135d4565b9082015261018083810135838111156137e057600080fd5b6137ec8d828701613623565b610160840152506101a084013581830152508098505050506138106020880161323d565b945061381e6040880161323d565b935061382c6060880161323d565b925061383a6080880161323d565b915061384860a08801613307565b90509295509295509295565b600181811c9082168061386857607f821691505b6020821081141561388957634e487b7160e01b600052602260045260246000fd5b50919050565b6000602082840312156138a157600080fd5b815167ffffffffffffffff8111156138b857600080fd5b8201601f810184136138c957600080fd5b80516138d76134c38261348d565b8181528560208385010111156138ec57600080fd5b6138fd8260208301602086016131a4565b95945050505050565b634e487b7160e01b600052601160045260246000fd5b600062ffffff8083168181141561393557613935613906565b6001019392505050565b600062ffffff80831681851680830382111561395d5761395d613906565b01949350505050565b600081600019048311821515161561398057613980613906565b500290565b6000821982111561399857613998613906565b500190565b6000602082840312156139af57600080fd5b5051919050565b6000602082840312156139c857600080fd5b815161319d81613228565b634e487b7160e01b600052603260045260246000fd5b60006000198214156139fd576139fd613906565b5060010190565b600082613a2157634e487b7160e01b600052601260045260246000fd5b500490565b600082821015613a3857613a38613906565b500390565b600060208284031215613a4f57600080fd5b815161319d816132f9565b6020808252602d908201527f4552433732313a2063616c6c6572206973206e6f7420746f6b656e206f776e6560408201526c1c881bdc88185c1c1c9bdd9959609a1b606082015260800190565b60208082526032908201527f4552433732313a207472616e7366657220746f206e6f6e20455243373231526560408201527131b2b4bb32b91034b6b83632b6b2b73a32b960711b606082015260800190565b6001600160a01b0385811682528416602082015260408101839052608060608201819052600090613b2c908301846131d0565b9695505050505050565b600060208284031215613b4857600080fd5b815161319d8161316a565b60208082526025908201527f4552433732313a207472616e736665722066726f6d20696e636f72726563742060408201526437bbb732b960d91b60608201526080019056fea264697066735822122036183eb1725cb12134752ff4a4c765e6cb22d3fd8b8ac762c8728df63604ae2264736f6c634300080c0033",
  "linkReferences": {},
  "deployedLinkReferences": {}
}