{
  "_format": "hh-sol-artifact-1",
  "contractName": "GenerativeNFT",
  "sourceName": "contracts/nfts/GenerativeNFT.sol",
  "abi": [
    {
      "inputs": [
        {
          "internalType": "string",
          "name": "name",
          "type": "string"
        },
        {
          "internalType": "string",
          "name": "symbol",
          "type": "string"
        }
      ],
      "stateMutability": "nonpayable",
      "type": "constructor"
    },
    {
      "anonymous": false,
      "inputs": [
        {
          "indexed": true,
          "internalType": "address",
          "name": "owner",
          "type": "address"
        },
        {
          "indexed": true,
          "internalType": "address",
          "name": "approved",
          "type": "address"
        },
        {
          "indexed": true,
          "internalType": "uint256",
          "name": "tokenId",
          "type": "uint256"
        }
      ],
      "name": "Approval",
      "type": "event"
    },
    {
      "anonymous": false,
      "inputs": [
        {
          "indexed": true,
          "internalType": "address",
          "name": "owner",
          "type": "address"
        },
        {
          "indexed": true,
          "internalType": "address",
          "name": "operator",
          "type": "address"
        },
        {
          "indexed": false,
          "internalType": "bool",
          "name": "approved",
          "type": "bool"
        }
      ],
      "name": "ApprovalForAll",
      "type": "event"
    },
    {
      "anonymous": false,
      "inputs": [
        {
          "indexed": true,
          "internalType": "address",
          "name": "previousOwner",
          "type": "address"
        },
        {
          "indexed": true,
          "internalType": "address",
          "name": "newOwner",
          "type": "address"
        }
      ],
      "name": "OwnershipTransferred",
      "type": "event"
    },
    {
      "anonymous": false,
      "inputs": [
        {
          "indexed": false,
          "internalType": "address",
          "name": "account",
          "type": "address"
        }
      ],
      "name": "Paused",
      "type": "event"
    },
    {
      "anonymous": false,
      "inputs": [
        {
          "indexed": true,
          "internalType": "address",
          "name": "from",
          "type": "address"
        },
        {
          "indexed": true,
          "internalType": "address",
          "name": "to",
          "type": "address"
        },
        {
          "indexed": true,
          "internalType": "uint256",
          "name": "tokenId",
          "type": "uint256"
        }
      ],
      "name": "Transfer",
      "type": "event"
    },
    {
      "anonymous": false,
      "inputs": [
        {
          "indexed": false,
          "internalType": "address",
          "name": "account",
          "type": "address"
        }
      ],
      "name": "Unpaused",
      "type": "event"
    },
    {
      "inputs": [],
      "name": "_admin",
      "outputs": [
        {
          "internalType": "address",
          "name": "",
          "type": "address"
        }
      ],
      "stateMutability": "view",
      "type": "function"
    },
    {
      "inputs": [],
      "name": "_paramsAddress",
      "outputs": [
        {
          "internalType": "address",
          "name": "",
          "type": "address"
        }
      ],
      "stateMutability": "view",
      "type": "function"
    },
    {
      "inputs": [],
      "name": "_project",
      "outputs": [
        {
          "internalType": "address",
          "name": "_projectAddr",
          "type": "address"
        },
        {
          "internalType": "address",
          "name": "_projectDataAddr",
          "type": "address"
        },
        {
          "internalType": "uint256",
          "name": "_projectId",
          "type": "uint256"
        },
        {
          "internalType": "uint24",
          "name": "_maxSupply",
          "type": "uint24"
        },
        {
          "internalType": "uint24",
          "name": "_limit",
          "type": "uint24"
        },
        {
          "internalType": "uint24",
          "name": "_index",
          "type": "uint24"
        },
        {
          "internalType": "uint24",
          "name": "_indexReserve",
          "type": "uint24"
        },
        {
          "internalType": "string",
          "name": "_creator",
          "type": "string"
        },
        {
          "internalType": "address",
          "name": "_creatorAddr",
          "type": "address"
        },
        {
          "internalType": "uint256",
          "name": "_mintPrice",
          "type": "uint256"
        },
        {
          "internalType": "address",
          "name": "_mintPriceAddr",
          "type": "address"
        }
      ],
      "stateMutability": "view",
      "type": "function"
    },
    {
      "inputs": [],
      "name": "_randomizer",
      "outputs": [
        {
          "internalType": "address",
          "name": "",
          "type": "address"
        }
      ],
      "stateMutability": "view",
      "type": "function"
    },
    {
      "inputs": [
        {
          "internalType": "address",
          "name": "to",
          "type": "address"
        },
        {
          "internalType": "uint256",
          "name": "tokenId",
          "type": "uint256"
        }
      ],
      "name": "approve",
      "outputs": [],
      "stateMutability": "nonpayable",
      "type": "function"
    },
    {
      "inputs": [
        {
          "internalType": "address",
          "name": "owner",
          "type": "address"
        }
      ],
      "name": "balanceOf",
      "outputs": [
        {
          "internalType": "uint256",
          "name": "",
          "type": "uint256"
        }
      ],
      "stateMutability": "view",
      "type": "function"
    },
    {
      "inputs": [
        {
          "internalType": "address",
          "name": "newAdmin",
          "type": "address"
        }
      ],
      "name": "changeAdmin",
      "outputs": [],
      "stateMutability": "nonpayable",
      "type": "function"
    },
    {
      "inputs": [
        {
          "internalType": "uint256",
          "name": "tokenId",
          "type": "uint256"
        }
      ],
      "name": "getApproved",
      "outputs": [
        {
          "internalType": "address",
          "name": "",
          "type": "address"
        }
      ],
      "stateMutability": "view",
      "type": "function"
    },
    {
      "inputs": [
        {
          "components": [
            {
              "internalType": "address",
              "name": "_projectAddr",
              "type": "address"
            },
            {
              "internalType": "address",
              "name": "_projectDataAddr",
              "type": "address"
            },
            {
              "internalType": "uint256",
              "name": "_projectId",
              "type": "uint256"
            },
            {
              "internalType": "uint24",
              "name": "_maxSupply",
              "type": "uint24"
            },
            {
              "internalType": "uint24",
              "name": "_limit",
              "type": "uint24"
            },
            {
              "internalType": "uint24",
              "name": "_index",
              "type": "uint24"
            },
            {
              "internalType": "uint24",
              "name": "_indexReserve",
              "type": "uint24"
            },
            {
              "internalType": "string",
              "name": "_creator",
              "type": "string"
            },
            {
              "internalType": "address",
              "name": "_creatorAddr",
              "type": "address"
            },
            {
              "internalType": "uint256",
              "name": "_mintPrice",
              "type": "uint256"
            },
            {
              "internalType": "address",
              "name": "_mintPriceAddr",
              "type": "address"
            }
          ],
          "internalType": "struct NFTProject.ProjectMinting",
          "name": "project",
          "type": "tuple"
        },
        {
          "internalType": "address",
          "name": "admin",
          "type": "address"
        },
        {
          "internalType": "address",
          "name": "paramsAddr",
          "type": "address"
        },
        {
          "internalType": "address",
          "name": "randomizer",
          "type": "address"
        },
        {
          "internalType": "address[]",
          "name": "reserves",
          "type": "address[]"
        }
      ],
      "name": "init",
      "outputs": [],
      "stateMutability": "nonpayable",
      "type": "function"
    },
    {
      "inputs": [
        {
          "internalType": "address",
          "name": "owner",
          "type": "address"
        },
        {
          "internalType": "address",
          "name": "operator",
          "type": "address"
        }
      ],
      "name": "isApprovedForAll",
      "outputs": [
        {
          "internalType": "bool",
          "name": "",
          "type": "bool"
        }
      ],
      "stateMutability": "view",
      "type": "function"
    },
    {
      "inputs": [],
      "name": "mint",
      "outputs": [
        {
          "internalType": "uint256",
          "name": "tokenId",
          "type": "uint256"
        }
      ],
      "stateMutability": "nonpayable",
      "type": "function"
    },
    {
      "inputs": [],
      "name": "name",
      "outputs": [
        {
          "internalType": "string",
          "name": "",
          "type": "string"
        }
      ],
      "stateMutability": "view",
      "type": "function"
    },
    {
      "inputs": [],
      "name": "owner",
      "outputs": [
        {
          "internalType": "address",
          "name": "",
          "type": "address"
        }
      ],
      "stateMutability": "view",
      "type": "function"
    },
    {
      "inputs": [
        {
          "internalType": "uint256",
          "name": "tokenId",
          "type": "uint256"
        }
      ],
      "name": "ownerOf",
      "outputs": [
        {
          "internalType": "address",
          "name": "",
          "type": "address"
        }
      ],
      "stateMutability": "view",
      "type": "function"
    },
    {
      "inputs": [],
      "name": "pause",
      "outputs": [],
      "stateMutability": "nonpayable",
      "type": "function"
    },
    {
      "inputs": [],
      "name": "paused",
      "outputs": [
        {
          "internalType": "bool",
          "name": "",
          "type": "bool"
        }
      ],
      "stateMutability": "view",
      "type": "function"
    },
    {
      "inputs": [],
      "name": "renounceOwnership",
      "outputs": [],
      "stateMutability": "nonpayable",
      "type": "function"
    },
    {
      "inputs": [],
      "name": "reserveMint",
      "outputs": [
        {
          "internalType": "uint256",
          "name": "tokenId",
          "type": "uint256"
        }
      ],
      "stateMutability": "nonpayable",
      "type": "function"
    },
    {
      "inputs": [
        {
          "internalType": "uint256",
          "name": "",
          "type": "uint256"
        }
      ],
      "name": "royalties",
      "outputs": [
        {
          "internalType": "address",
          "name": "recipient",
          "type": "address"
        },
        {
          "internalType": "uint24",
          "name": "amount",
          "type": "uint24"
        },
        {
          "internalType": "bool",
          "name": "isValue",
          "type": "bool"
        }
      ],
      "stateMutability": "view",
      "type": "function"
    },
    {
      "inputs": [
        {
          "internalType": "uint256",
          "name": "_tokenId",
          "type": "uint256"
        },
        {
          "internalType": "uint256",
          "name": "_salePrice",
          "type": "uint256"
        }
      ],
      "name": "royaltyInfo",
      "outputs": [
        {
          "internalType": "address",
          "name": "receiver",
          "type": "address"
        },
        {
          "internalType": "uint256",
          "name": "royaltyAmount",
          "type": "uint256"
        }
      ],
      "stateMutability": "view",
      "type": "function"
    },
    {
      "inputs": [
        {
          "internalType": "address",
          "name": "from",
          "type": "address"
        },
        {
          "internalType": "address",
          "name": "to",
          "type": "address"
        },
        {
          "internalType": "uint256",
          "name": "tokenId",
          "type": "uint256"
        }
      ],
      "name": "safeTransferFrom",
      "outputs": [],
      "stateMutability": "nonpayable",
      "type": "function"
    },
    {
      "inputs": [
        {
          "internalType": "address",
          "name": "from",
          "type": "address"
        },
        {
          "internalType": "address",
          "name": "to",
          "type": "address"
        },
        {
          "internalType": "uint256",
          "name": "tokenId",
          "type": "uint256"
        },
        {
          "internalType": "bytes",
          "name": "data",
          "type": "bytes"
        }
      ],
      "name": "safeTransferFrom",
      "outputs": [],
      "stateMutability": "nonpayable",
      "type": "function"
    },
    {
      "inputs": [
        {
          "internalType": "address",
          "name": "operator",
          "type": "address"
        },
        {
          "internalType": "bool",
          "name": "approved",
          "type": "bool"
        }
      ],
      "name": "setApprovalForAll",
      "outputs": [],
      "stateMutability": "nonpayable",
      "type": "function"
    },
    {
      "inputs": [
        {
          "internalType": "uint256",
          "name": "_tokenId",
          "type": "uint256"
        },
        {
          "internalType": "address",
          "name": "_recipient",
          "type": "address"
        },
        {
          "internalType": "uint256",
          "name": "_value",
          "type": "uint256"
        }
      ],
      "name": "setTokenRoyalty",
      "outputs": [],
      "stateMutability": "nonpayable",
      "type": "function"
    },
    {
      "inputs": [
        {
          "internalType": "bytes4",
          "name": "interfaceId",
          "type": "bytes4"
        }
      ],
      "name": "supportsInterface",
      "outputs": [
        {
          "internalType": "bool",
          "name": "",
          "type": "bool"
        }
      ],
      "stateMutability": "view",
      "type": "function"
    },
    {
      "inputs": [],
      "name": "symbol",
      "outputs": [
        {
          "internalType": "string",
          "name": "",
          "type": "string"
        }
      ],
      "stateMutability": "view",
      "type": "function"
    },
    {
      "inputs": [
        {
          "internalType": "uint256",
          "name": "tokenId",
          "type": "uint256"
        }
      ],
      "name": "tokenGenerativeURI",
      "outputs": [
        {
          "internalType": "string",
          "name": "",
          "type": "string"
        }
      ],
      "stateMutability": "view",
      "type": "function"
    },
    {
      "inputs": [
        {
          "internalType": "uint256",
          "name": "_tokenId",
          "type": "uint256"
        }
      ],
      "name": "tokenIdToHash",
      "outputs": [
        {
          "internalType": "bytes32",
          "name": "",
          "type": "bytes32"
        }
      ],
      "stateMutability": "view",
      "type": "function"
    },
    {
      "inputs": [
        {
          "internalType": "uint256",
          "name": "tokenId",
          "type": "uint256"
        }
      ],
      "name": "tokenURI",
      "outputs": [
        {
          "internalType": "string",
          "name": "",
          "type": "string"
        }
      ],
      "stateMutability": "view",
      "type": "function"
    },
    {
      "inputs": [
        {
          "internalType": "address",
          "name": "from",
          "type": "address"
        },
        {
          "internalType": "address",
          "name": "to",
          "type": "address"
        },
        {
          "internalType": "uint256",
          "name": "tokenId",
          "type": "uint256"
        }
      ],
      "name": "transferFrom",
      "outputs": [],
      "stateMutability": "nonpayable",
      "type": "function"
    },
    {
      "inputs": [
        {
          "internalType": "address",
          "name": "newOwner",
          "type": "address"
        }
      ],
      "name": "transferOwnership",
      "outputs": [],
      "stateMutability": "nonpayable",
      "type": "function"
    },
    {
      "inputs": [],
      "name": "unpause",
      "outputs": [],
      "stateMutability": "nonpayable",
      "type": "function"
    }
  ],
  "bytecode": "0x60806040523480156200001157600080fd5b506040516200326638038062003266833981016040819052620000349162000252565b81818181816000908051906020019062000050929190620000df565b50805162000066906001906020840190620000df565b50506006805460ff1916905550600160075562000083336200008d565b50505050620002f9565b600880546001600160a01b038381166001600160a01b0319831681179093556040519116919082907f8be0079c531659141344cd1fd0a4f28419497f9722a3daafe3b4186f6b6457e090600090a35050565b828054620000ed90620002bc565b90600052602060002090601f0160209004810192826200011157600085556200015c565b82601f106200012c57805160ff19168380011785556200015c565b828001600101855582156200015c579182015b828111156200015c5782518255916020019190600101906200013f565b506200016a9291506200016e565b5090565b5b808211156200016a57600081556001016200016f565b634e487b7160e01b600052604160045260246000fd5b600082601f830112620001ad57600080fd5b81516001600160401b0380821115620001ca57620001ca62000185565b604051601f8301601f19908116603f01168101908282118183101715620001f557620001f562000185565b816040528381526020925086838588010111156200021257600080fd5b600091505b8382101562000236578582018301518183018401529082019062000217565b83821115620002485760008385830101525b9695505050505050565b600080604083850312156200026657600080fd5b82516001600160401b03808211156200027e57600080fd5b6200028c868387016200019b565b93506020850151915080821115620002a357600080fd5b50620002b2858286016200019b565b9150509250929050565b600181811c90821680620002d157607f821691505b60208210811415620002f357634e487b7160e01b600052602260045260246000fd5b50919050565b612f5d80620003096000396000f3fe608060405234801561001057600080fd5b50600436106101f05760003560e01c806370a082311161010f5780639713c807116100a2578063c87b56dd11610071578063c87b56dd14610497578063e985e9c5146104aa578063f2fde38b146104e6578063ffc27c0e146104f957600080fd5b80639713c8071461044b578063a22cb4651461045e578063adfc7dae14610471578063b88d4fde1461048457600080fd5b80638456cb59116100de5780638456cb59146104175780638da5cb5b1461041f5780638f2839701461043057806395d89b411461044357600080fd5b806370a0823114610370578063715018a614610383578063775bff9f1461038b5780637f77f574146103aa57600080fd5b806321c8d6761161018757806342842e0e1161015657806342842e0e146103165780635c975abb14610329578063621a1f74146103345780636352211e1461034757600080fd5b806321c8d676146102c157806323b872dd146102c95780632a55205a146102dc5780633f4ba83a1461030e57600080fd5b8063095ea7b3116101c3578063095ea7b31461027057806310da88c5146102855780631249c58b1461029857806321628c88146102ae57600080fd5b806301bc45c9146101f557806301ffc9a71461022557806306fdde0314610248578063081812fc1461025d575b600080fd5b600a54610208906001600160a01b031681565b6040516001600160a01b0390911681526020015b60405180910390f35b6102386102333660046125d6565b61050c565b604051901515815260200161021c565b61025061055e565b60405161021c9190612652565b61020861026b366004612665565b6105f0565b61028361027e3660046126a3565b610617565b005b610250610293366004612665565b610732565b6102a0610830565b60405190815260200161021c565b6102836102bc366004612862565b610a24565b6102a0610c70565b6102836102d73660046129c6565b610f3a565b6102ef6102ea366004612a07565b610f6b565b604080516001600160a01b03909316835260208301919091520161021c565b610283610f83565b6102836103243660046129c6565b610fd4565b60065460ff16610238565b6102a0610342366004612665565b610fef565b610208610355366004612665565b6000908152600960205260409020546001600160a01b031690565b6102a061037e366004612a29565b611075565b6102836110fb565b61039361110d565b60405161021c9b9a99989796959493929190612a46565b6103ec6103b8366004612665565b600d602052600090815260409020546001600160a01b03811690600160a01b810462ffffff1690600160b81b900460ff1683565b604080516001600160a01b03909416845262ffffff909216602084015215159082015260600161021c565b610283611206565b6008546001600160a01b0316610208565b61028361043e366004612a29565b611255565b61025061128e565b610283610459366004612ac7565b61129d565b61028361046c366004612afc565b61136b565b600b54610208906001600160a01b031681565b610283610492366004612b35565b61137a565b6102506104a5366004612665565b6113b2565b6102386104b8366004612bb5565b6001600160a01b03918216600090815260056020908152604080832093909416825291909152205460ff1690565b6102836104f4366004612a29565b611467565b600c54610208906001600160a01b031681565b60006001600160e01b031982166380ac58cd60e01b148061053d57506001600160e01b03198216635b5e139f60e01b145b8061055857506301ffc9a760e01b6001600160e01b03198316145b92915050565b60606000805461056d90612be3565b80601f016020809104026020016040519081016040528092919081815260200182805461059990612be3565b80156105e65780601f106105bb576101008083540402835291602001916105e6565b820191906000526020600020905b8154815290600101906020018083116105c957829003601f168201915b5050505050905090565b60006105fb826114e0565b506000908152600460205260409020546001600160a01b031690565b60006106228261153f565b9050806001600160a01b0316836001600160a01b031614156106955760405162461bcd60e51b815260206004820152602160248201527f4552433732313a20617070726f76616c20746f2063757272656e74206f776e656044820152603960f91b60648201526084015b60405180910390fd5b336001600160a01b03821614806106b157506106b181336104b8565b6107235760405162461bcd60e51b815260206004820152603d60248201527f4552433732313a20617070726f76652063616c6c6572206973206e6f7420746f60448201527f6b656e206f776e6572206f7220617070726f76656420666f7220616c6c000000606482015260840161068c565b61072d838361159f565b505050565b600f5460405163188687dd60e21b8152600481018390526060916001600160a01b031690600090309063621a1f7490602401602060405180830381865afa158015610781573d6000803e3d6000fd5b505050506040513d601f19601f820116820180604052508101906107a59190612c1e565b601054604051639413930160e01b8152600481019190915260248101869052604481018290529091506001600160a01b038316906394139301906064015b600060405180830381865afa158015610800573d6000803e3d6000fd5b505050506040513d6000823e601f3d908101601f191682016040526108289190810190612c37565b949350505050565b60118054600091600160301b90910462ffffff1690600661085083612cc4565b82546101009290920a62ffffff818102199093169183160217909155601154630100000081048216600160301b9091049091161115905061089057600080fd5b60115462ffffff808216916108b691600160481b8204811691600160301b900416612ce7565b62ffffff16141561092757600e54601054604051631122f8a960e11b815260048101919091526001600160a01b03909116908190632245f15290602401600060405180830381600087803b15801561090d57600080fd5b505af1158015610921573d6000803e3d6000fd5b50505050505b601154601054600160301b90910462ffffff169061094890620f4240612d0e565b6109529190612d2d565b905061095e338261160d565b600c54604051631da00d8560e01b8152600481018390526001600160a01b03909116906000908290631da00d85906024016020604051808303816000875af11580156109ae573d6000803e3d6000fd5b505050506040513d601f19601f820116820180604052508101906109d29190612c1e565b90506109de8382611627565b6109e66116f0565b60408051338152602081018590527f0f6798a560793a54c3bcfe86a93cde1e73087d944c0ea20544137d4121396885910160405180910390a1505090565b600a5460408051808201909152600381526219181960e91b6020820152906001600160a01b031615610a695760405162461bcd60e51b815260040161068c9190612652565b5060408051808201909152600381526203130360ec1b60208201526001600160a01b038516610aab5760405162461bcd60e51b815260040161068c9190612652565b508451600e80546001600160a01b039283166001600160a01b0319918216178255602080890151600f805491909516921691909117909255604087015160105560608701516011805460808a015160a08b015160c08c015162ffffff908116600160481b026bffffff00000000000000000019928216600160301b02929092166bffffffffffff0000000000001993821663010000000265ffffffffffff19909516919096161792909217169290921791909117905560e087015180518893610b7992601292910190612527565b506101008201516005820180546001600160a01b03199081166001600160a01b039384161790915561012084015160068401556101409093015160079092018054841692821692909217909155600b80548316868316179055600a80548316878316179055600c805490921690841617905560005b8151811015610c5357600060166000848481518110610c0f57610c0f612d45565b6020908102919091018101516001600160a01b03168252810191909152604001600020805460ff191691151591909117905580610c4b81612d5b565b915050610bee565b50600a54610c69906001600160a01b0316611467565b5050505050565b60118054600091600160481b90910462ffffff16906009610c9083612cc4565b82546101009290920a62ffffff8181021990931691831602179091556011548082169250610ccf9163010000008204811691600160481b900416612ce7565b62ffffff161115610cdf57600080fd5b60115462ffffff80821691610d0591600160481b8204811691600160301b900416612ce7565b62ffffff161415610d7657600e54601054604051631122f8a960e11b815260048101919091526001600160a01b03909116908190632245f15290602401600060405180830381600087803b158015610d5c57600080fd5b505af1158015610d70573d6000803e3d6000fd5b50505050505b600e54336000908152601660205260409020546001600160a01b039091169060ff161580610e2157506010546040516331a9108f60e11b815260048101919091526001600160a01b03821690636352211e90602401602060405180830381865afa158015610de8573d6000803e3d6000fd5b505050506040513d601f19601f82011682018060405250810190610e0c9190612d76565b6001600160a01b0316336001600160a01b0316145b610e2a57600080fd5b601154610e4c9062ffffff63010000008204811691600160481b900416612ce7565b62ffffff16600e60020154620f4240610e659190612d0e565b610e6f9190612d2d565b9150610e7b338361160d565b600c54604051631da00d8560e01b8152600481018490526001600160a01b03909116906000908290631da00d85906024016020604051808303816000875af1158015610ecb573d6000803e3d6000fd5b505050506040513d601f19601f82011682018060405250810190610eef9190612c1e565b9050610efb8482611627565b60408051338152602081018690527f0f6798a560793a54c3bcfe86a93cde1e73087d944c0ea20544137d4121396885910160405180910390a150505090565b610f443382611b61565b610f605760405162461bcd60e51b815260040161068c90612d93565b61072d838383611bdf565b600080610f788484611c19565b915091509250929050565b600a5460408051808201909152600381526231303160e81b6020820152906001600160a01b03163314610fc95760405162461bcd60e51b815260040161068c9190612652565b50610fd2611cb5565b565b61072d8383836040518060200160405280600081525061137a565b600081815260096020526040812054600160a01b900460a01b6001600160a01b03191661101e57506000919050565b60008281526009602090815260409182902054915161105892600160a01b900460a01b91016001600160a01b031991909116815260200190565b604051602081830303815290604052805190602001209050919050565b60006001600160a01b0382166110df5760405162461bcd60e51b815260206004820152602960248201527f4552433732313a2061646472657373207a65726f206973206e6f7420612076616044820152683634b21037bbb732b960b91b606482015260840161068c565b506001600160a01b031660009081526003602052604090205490565b611103611d07565b610fd26000611d61565b600e8054600f54601054601154601280546001600160a01b03958616969490951694929362ffffff8084169463010000008504821694600160301b8104831694600160481b90910490921692919061116490612be3565b80601f016020809104026020016040519081016040528092919081815260200182805461119090612be3565b80156111dd5780601f106111b2576101008083540402835291602001916111dd565b820191906000526020600020905b8154815290600101906020018083116111c057829003601f168201915b505050506005830154600684015460079094015492936001600160a01b0391821693909250168b565b600a5460408051808201909152600381526231303160e81b6020820152906001600160a01b0316331461124c5760405162461bcd60e51b815260040161068c9190612652565b50610fd2611db3565b600a546001600160a01b0316331461126c57600080fd5b600a80546001600160a01b0319166001600160a01b0392909216919091179055565b60606001805461056d90612be3565b600a546001600160a01b031633146112b457600080fd5b60408051808201909152600381526232303960e81b60208201526127108211156112f15760405162461bcd60e51b815260040161068c9190612652565b50604080516060810182526001600160a01b03938416815262ffffff928316602080830191825260018385019081526000978852600d90915292909520905181549551925194166001600160b81b031990951694909417600160a01b91909216021760ff60b81b1916600160b81b91151591909102179055565b611376338383611df0565b5050565b6113843383611b61565b6113a05760405162461bcd60e51b815260040161068c90612d93565b6113ac84848484611ebf565b50505050565b600f5460405163188687dd60e21b8152600481018390526060916001600160a01b031690600090309063621a1f7490602401602060405180830381865afa158015611401573d6000803e3d6000fd5b505050506040513d601f19601f820116820180604052508101906114259190612c1e565b6010546040516308dd54e960e31b8152600481019190915260248101869052604481018290529091506001600160a01b038316906346eaa748906064016107e3565b61146f611d07565b6001600160a01b0381166114d45760405162461bcd60e51b815260206004820152602660248201527f4f776e61626c653a206e6577206f776e657220697320746865207a65726f206160448201526564647265737360d01b606482015260840161068c565b6114dd81611d61565b50565b6000818152600960205260409020546001600160a01b03166114dd5760405162461bcd60e51b8152602060048201526018602482015277115490cdcc8c4e881a5b9d985b1a59081d1bdad95b88125160421b604482015260640161068c565b6000818152600260205260408120546001600160a01b0316806105585760405162461bcd60e51b8152602060048201526018602482015277115490cdcc8c4e881a5b9d985b1a59081d1bdad95b88125160421b604482015260640161068c565b600081815260046020526040902080546001600160a01b0319166001600160a01b03841690811790915581906115d48261153f565b6001600160a01b03167f8c5be1e5ebec7d5bd14f71427d1e84f3dd0314c0f7b2291e5b200ac8c7c3b92560405160405180910390a45050565b611376828260405180602001604052806000815250611ef2565b600082815260096020908152604091829020548251808401909352600383526203231360ec1b91830191909152600160a01b900460a01b6001600160a01b031916156116865760405162461bcd60e51b815260040161068c9190612652565b5060408051808201909152600381526232313160e81b6020820152816116bf5760405162461bcd60e51b815260040161068c9190612652565b50600091825260096020526040909120805460a09290921c600160a01b026001600160a01b03909216919091179055565b601454806116fb5750565b600e54600b546000916001600160a01b0390811691166101f481156117ab57604051636d12dce160e01b81526020600482015260156024820152744d494e545f4e46545f4f50455241544f525f46454560581b60448201526001600160a01b03831690636d12dce190606401602060405180830381865afa158015611784573d6000803e3d6000fd5b505050506040513d601f19601f820116820180604052508101906117a89190612c1e565b90505b6001600160a01b03841661192257843410156117c657600080fd5b6010546040516331a9108f60e11b81526000916001600160a01b03861691636352211e916117fa9160040190815260200190565b602060405180830381865afa158015611817573d6000803e3d6000fd5b505050506040513d601f19601f8201168201806040525081019061183b9190612d76565b6001600160a01b03166127106118518489612d0e565b61185b9190612de0565b6118659088612e02565b604051600081818185875af1925050503d80600081146118a1576040519150601f19603f3d011682016040523d82523d6000602084013e6118a6565b606091505b50509050806118b457600080fd5b600a546001600160a01b03166127106118cd8489612d0e565b6118d79190612de0565b604051600081818185875af1925050503d8060008114611913576040519150601f19603f3d011682016040523d82523d6000602084013e611918565b606091505b50610c6992505050565b6040516323b872dd60e01b81523360048201523060248201526044810186905284906001600160a01b038216906323b872dd906064016020604051808303816000875af1158015611977573d6000803e3d6000fd5b505050506040513d601f19601f8201168201806040525081019061199b9190612e19565b6119a457600080fd5b6010546040516331a9108f60e11b815260048101919091526001600160a01b038281169163a9059cbb91871690636352211e90602401602060405180830381865afa1580156119f7573d6000803e3d6000fd5b505050506040513d601f19601f82011682018060405250810190611a1b9190612d76565b612710611a28868b612d0e565b611a329190612de0565b611a3c908a612e02565b6040516001600160e01b031960e085901b1681526001600160a01b03909216600483015260248201526044016020604051808303816000875af1158015611a87573d6000803e3d6000fd5b505050506040513d601f19601f82011682018060405250810190611aab9190612e19565b611ab457600080fd5b600a546001600160a01b038083169163a9059cbb9116612710611ad7868b612d0e565b611ae19190612de0565b6040516001600160e01b031960e085901b1681526001600160a01b03909216600483015260248201526044016020604051808303816000875af1158015611b2c573d6000803e3d6000fd5b505050506040513d601f19601f82011682018060405250810190611b509190612e19565b611b5957600080fd5b505050505050565b600080611b6d8361153f565b9050806001600160a01b0316846001600160a01b03161480611bb457506001600160a01b0380821660009081526005602090815260408083209388168352929052205460ff165b806108285750836001600160a01b0316611bcd846105f0565b6001600160a01b031614949350505050565b611bea838383611f25565b600090815260096020526040902080546001600160a01b0319166001600160a01b039290921691909117905550565b6000828152600d60209081526040808320815160608101835290546001600160a01b0381168252600160a01b810462ffffff1693820193909352600160b81b90920460ff1615801591830191909152829190611c9d578051602082015190935061271090611c8c9062ffffff1686612d0e565b611c969190612de0565b9150611cad565b611ca78585612096565b90935091505b509250929050565b611cbd6120ce565b6006805460ff191690557f5db9ee0a495bf2e6ff9c91a7834c1ba4fdd244a5e8aa4e537bd38aeae4b073aa335b6040516001600160a01b03909116815260200160405180910390a1565b6008546001600160a01b03163314610fd25760405162461bcd60e51b815260206004820181905260248201527f4f776e61626c653a2063616c6c6572206973206e6f7420746865206f776e6572604482015260640161068c565b600880546001600160a01b038381166001600160a01b0319831681179093556040519116919082907f8be0079c531659141344cd1fd0a4f28419497f9722a3daafe3b4186f6b6457e090600090a35050565b611dbb612117565b6006805460ff191660011790557f62e78cea01bee320cd4e420270b5ea74000d11b0c9f74754ebdbfc544b05a258611cea3390565b816001600160a01b0316836001600160a01b03161415611e525760405162461bcd60e51b815260206004820152601960248201527f4552433732313a20617070726f766520746f2063616c6c657200000000000000604482015260640161068c565b6001600160a01b03838116600081815260056020908152604080832094871680845294825291829020805460ff191686151590811790915591519182527f17307eab39ab6107e8899845ad3d59bd9653f200f220920489ca2b5937696c31910160405180910390a3505050565b611eca848484611bdf565b611ed68484848461215d565b6113ac5760405162461bcd60e51b815260040161068c90612e36565b611efc838361225b565b611f09600084848461215d565b61072d5760405162461bcd60e51b815260040161068c90612e36565b826001600160a01b0316611f388261153f565b6001600160a01b031614611f5e5760405162461bcd60e51b815260040161068c90612e88565b6001600160a01b038216611fc05760405162461bcd60e51b8152602060048201526024808201527f4552433732313a207472616e7366657220746f20746865207a65726f206164646044820152637265737360e01b606482015260840161068c565b611fcd8383836001612293565b826001600160a01b0316611fe08261153f565b6001600160a01b0316146120065760405162461bcd60e51b815260040161068c90612e88565b600081815260046020908152604080832080546001600160a01b03199081169091556001600160a01b0387811680865260038552838620805460001901905590871680865283862080546001019055868652600290945282852080549092168417909155905184937fddf252ad1be2c89b69c2b068fc378daa952ba7f163c4a11628f55a4df523b3ef91a4505050565b600a5460009081906001600160a01b0316816127106120b7866101f4612d0e565b6120c19190612de0565b9196919550909350505050565b60065460ff16610fd25760405162461bcd60e51b815260206004820152601460248201527314185d5cd8589b194e881b9bdd081c185d5cd95960621b604482015260640161068c565b60065460ff1615610fd25760405162461bcd60e51b815260206004820152601060248201526f14185d5cd8589b194e881c185d5cd95960821b604482015260640161068c565b60006001600160a01b0384163b1561225057604051630a85bd0160e11b81526001600160a01b0385169063150b7a02906121a1903390899088908890600401612ecd565b6020604051808303816000875af19250505080156121dc575060408051601f3d908101601f191682019092526121d991810190612f0a565b60015b612236573d80801561220a576040519150601f19603f3d011682016040523d82523d6000602084013e61220f565b606091505b50805161222e5760405162461bcd60e51b815260040161068c90612e36565b805181602001fd5b6001600160e01b031916630a85bd0160e11b149050610828565b506001949350505050565b6122658282612306565b600090815260096020526040902080546001600160a01b0319166001600160a01b0392909216919091179055565b61229f8484848461249f565b60065460ff16156113ac5760405162461bcd60e51b815260206004820152602b60248201527f4552433732315061757361626c653a20746f6b656e207472616e73666572207760448201526a1a1a5b19481c185d5cd95960aa1b606482015260840161068c565b6001600160a01b03821661235c5760405162461bcd60e51b815260206004820181905260248201527f4552433732313a206d696e7420746f20746865207a65726f2061646472657373604482015260640161068c565b6000818152600960205260409020546001600160a01b0316156123c15760405162461bcd60e51b815260206004820152601c60248201527f4552433732313a20746f6b656e20616c7265616479206d696e74656400000000604482015260640161068c565b6123cf600083836001612293565b6000818152600960205260409020546001600160a01b0316156124345760405162461bcd60e51b815260206004820152601c60248201527f4552433732313a20746f6b656e20616c7265616479206d696e74656400000000604482015260640161068c565b6001600160a01b038216600081815260036020908152604080832080546001019055848352600290915280822080546001600160a01b0319168417905551839291907fddf252ad1be2c89b69c2b068fc378daa952ba7f163c4a11628f55a4df523b3ef908290a45050565b60018111156113ac576001600160a01b038416156124e5576001600160a01b038416600090815260036020526040812080548392906124df908490612e02565b90915550505b6001600160a01b038316156113ac576001600160a01b0383166000908152600360205260408120805483929061251c908490612d2d565b909155505050505050565b82805461253390612be3565b90600052602060002090601f016020900481019282612555576000855561259b565b82601f1061256e57805160ff191683800117855561259b565b8280016001018555821561259b579182015b8281111561259b578251825591602001919060010190612580565b506125a79291506125ab565b5090565b5b808211156125a757600081556001016125ac565b6001600160e01b0319811681146114dd57600080fd5b6000602082840312156125e857600080fd5b81356125f3816125c0565b9392505050565b60005b838110156126155781810151838201526020016125fd565b838111156113ac5750506000910152565b6000815180845261263e8160208601602086016125fa565b601f01601f19169290920160200192915050565b6020815260006125f36020830184612626565b60006020828403121561267757600080fd5b5035919050565b6001600160a01b03811681146114dd57600080fd5b803561269e8161267e565b919050565b600080604083850312156126b657600080fd5b82356126c18161267e565b946020939093013593505050565b634e487b7160e01b600052604160045260246000fd5b604051610160810167ffffffffffffffff81118282101715612709576127096126cf565b60405290565b604051601f8201601f1916810167ffffffffffffffff81118282101715612738576127386126cf565b604052919050565b803562ffffff8116811461269e57600080fd5b600067ffffffffffffffff82111561276d5761276d6126cf565b50601f01601f191660200190565b600061278e61278984612753565b61270f565b90508281528383830111156127a257600080fd5b828260208301376000602084830101529392505050565b600082601f8301126127ca57600080fd5b6125f38383356020850161277b565b600082601f8301126127ea57600080fd5b8135602067ffffffffffffffff821115612806576128066126cf565b8160051b61281582820161270f565b928352848101820192828101908785111561282f57600080fd5b83870192505b848310156128575782356128488161267e565b82529183019190830190612835565b979650505050505050565b600080600080600060a0868803121561287a57600080fd5b853567ffffffffffffffff8082111561289257600080fd5b90870190610160828a0312156128a757600080fd5b6128af6126e5565b6128b883612693565b81526128c660208401612693565b6020820152604083013560408201526128e160608401612740565b60608201526128f260808401612740565b608082015261290360a08401612740565b60a082015261291460c08401612740565b60c082015260e08301358281111561292b57600080fd5b6129378b8286016127b9565b60e08301525061010061294b818501612693565b908201526101208381013590820152610140612968818501612693565b90820152965061297a60208901612693565b955061298860408901612693565b945061299660608901612693565b935060808801359150808211156129ac57600080fd5b506129b9888289016127d9565b9150509295509295909350565b6000806000606084860312156129db57600080fd5b83356129e68161267e565b925060208401356129f68161267e565b929592945050506040919091013590565b60008060408385031215612a1a57600080fd5b50508035926020909101359150565b600060208284031215612a3b57600080fd5b81356125f38161267e565b6001600160a01b038c811682528b81166020830152604082018b905262ffffff8a81166060840152898116608084015288811660a0840152871660c083015261016060e08301819052600091612a9e84830189612626565b968116610100850152610120840195909552505091166101409091015298975050505050505050565b600080600060608486031215612adc57600080fd5b8335925060208401356129f68161267e565b80151581146114dd57600080fd5b60008060408385031215612b0f57600080fd5b8235612b1a8161267e565b91506020830135612b2a81612aee565b809150509250929050565b60008060008060808587031215612b4b57600080fd5b8435612b568161267e565b93506020850135612b668161267e565b925060408501359150606085013567ffffffffffffffff811115612b8957600080fd5b8501601f81018713612b9a57600080fd5b612ba98782356020840161277b565b91505092959194509250565b60008060408385031215612bc857600080fd5b8235612bd38161267e565b91506020830135612b2a8161267e565b600181811c90821680612bf757607f821691505b60208210811415612c1857634e487b7160e01b600052602260045260246000fd5b50919050565b600060208284031215612c3057600080fd5b5051919050565b600060208284031215612c4957600080fd5b815167ffffffffffffffff811115612c6057600080fd5b8201601f81018413612c7157600080fd5b8051612c7f61278982612753565b818152856020838501011115612c9457600080fd5b612ca58260208301602086016125fa565b95945050505050565b634e487b7160e01b600052601160045260246000fd5b600062ffffff80831681811415612cdd57612cdd612cae565b6001019392505050565b600062ffffff808316818516808303821115612d0557612d05612cae565b01949350505050565b6000816000190483118215151615612d2857612d28612cae565b500290565b60008219821115612d4057612d40612cae565b500190565b634e487b7160e01b600052603260045260246000fd5b6000600019821415612d6f57612d6f612cae565b5060010190565b600060208284031215612d8857600080fd5b81516125f38161267e565b6020808252602d908201527f4552433732313a2063616c6c6572206973206e6f7420746f6b656e206f776e6560408201526c1c881bdc88185c1c1c9bdd9959609a1b606082015260800190565b600082612dfd57634e487b7160e01b600052601260045260246000fd5b500490565b600082821015612e1457612e14612cae565b500390565b600060208284031215612e2b57600080fd5b81516125f381612aee565b60208082526032908201527f4552433732313a207472616e7366657220746f206e6f6e20455243373231526560408201527131b2b4bb32b91034b6b83632b6b2b73a32b960711b606082015260800190565b60208082526025908201527f4552433732313a207472616e736665722066726f6d20696e636f72726563742060408201526437bbb732b960d91b606082015260800190565b6001600160a01b0385811682528416602082015260408101839052608060608201819052600090612f0090830184612626565b9695505050505050565b600060208284031215612f1c57600080fd5b81516125f3816125c056fea264697066735822122032a57cd5987301633ba73041ba4238845d4fdfe6ebd5c91d4114ebf1f750d13a64736f6c634300080c0033",
  "linkReferences": {},
  "deployedLinkReferences": {}
}