{
  "_format": "hh-sol-artifact-1",
  "contractName": "GenerativeNFT",
  "sourceName": "contracts/nfts/GenerativeNFT.sol",
  "abi": [
    {
      "inputs": [
        {
          "internalType": "string",
          "name": "name",
          "type": "string"
        },
        {
          "internalType": "string",
          "name": "symbol",
          "type": "string"
        }
      ],
      "stateMutability": "nonpayable",
      "type": "constructor"
    },
    {
      "inputs": [
        {
          "internalType": "address",
          "name": "operator",
          "type": "address"
        }
      ],
      "name": "OperatorNotAllowed",
      "type": "error"
    },
    {
      "anonymous": false,
      "inputs": [
        {
          "indexed": true,
          "internalType": "address",
          "name": "owner",
          "type": "address"
        },
        {
          "indexed": true,
          "internalType": "address",
          "name": "approved",
          "type": "address"
        },
        {
          "indexed": true,
          "internalType": "uint256",
          "name": "tokenId",
          "type": "uint256"
        }
      ],
      "name": "Approval",
      "type": "event"
    },
    {
      "anonymous": false,
      "inputs": [
        {
          "indexed": true,
          "internalType": "address",
          "name": "owner",
          "type": "address"
        },
        {
          "indexed": true,
          "internalType": "address",
          "name": "operator",
          "type": "address"
        },
        {
          "indexed": false,
          "internalType": "bool",
          "name": "approved",
          "type": "bool"
        }
      ],
      "name": "ApprovalForAll",
      "type": "event"
    },
    {
      "anonymous": false,
      "inputs": [
        {
          "indexed": true,
          "internalType": "address",
          "name": "previousOwner",
          "type": "address"
        },
        {
          "indexed": true,
          "internalType": "address",
          "name": "newOwner",
          "type": "address"
        }
      ],
      "name": "OwnershipTransferred",
      "type": "event"
    },
    {
      "anonymous": false,
      "inputs": [
        {
          "indexed": false,
          "internalType": "address",
          "name": "account",
          "type": "address"
        }
      ],
      "name": "Paused",
      "type": "event"
    },
    {
      "anonymous": false,
      "inputs": [
        {
          "indexed": true,
          "internalType": "address",
          "name": "from",
          "type": "address"
        },
        {
          "indexed": true,
          "internalType": "address",
          "name": "to",
          "type": "address"
        },
        {
          "indexed": true,
          "internalType": "uint256",
          "name": "tokenId",
          "type": "uint256"
        }
      ],
      "name": "Transfer",
      "type": "event"
    },
    {
      "anonymous": false,
      "inputs": [
        {
          "indexed": false,
          "internalType": "address",
          "name": "account",
          "type": "address"
        }
      ],
      "name": "Unpaused",
      "type": "event"
    },
    {
      "inputs": [],
      "name": "OPERATOR_FILTER_REGISTRY",
      "outputs": [
        {
          "internalType": "contract IOperatorFilterRegistry",
          "name": "",
          "type": "address"
        }
      ],
      "stateMutability": "view",
      "type": "function"
    },
    {
      "inputs": [],
      "name": "_admin",
      "outputs": [
        {
          "internalType": "address",
          "name": "",
          "type": "address"
        }
      ],
      "stateMutability": "view",
      "type": "function"
    },
    {
      "inputs": [],
      "name": "_nameCol",
      "outputs": [
        {
          "internalType": "string",
          "name": "",
          "type": "string"
        }
      ],
      "stateMutability": "view",
      "type": "function"
    },
    {
      "inputs": [],
      "name": "_paramsAddress",
      "outputs": [
        {
          "internalType": "address",
          "name": "",
          "type": "address"
        }
      ],
      "stateMutability": "view",
      "type": "function"
    },
    {
      "inputs": [],
      "name": "_project",
      "outputs": [
        {
          "internalType": "address",
          "name": "_projectAddr",
          "type": "address"
        },
        {
          "internalType": "uint256",
          "name": "_projectId",
          "type": "uint256"
        },
        {
          "internalType": "uint24",
          "name": "_maxSupply",
          "type": "uint24"
        },
        {
          "internalType": "uint24",
          "name": "_limit",
          "type": "uint24"
        },
        {
          "internalType": "uint24",
          "name": "_index",
          "type": "uint24"
        },
        {
          "internalType": "uint24",
          "name": "_indexReserve",
          "type": "uint24"
        },
        {
          "internalType": "string",
          "name": "_creator",
          "type": "string"
        },
        {
          "internalType": "uint256",
          "name": "_mintPrice",
          "type": "uint256"
        },
        {
          "internalType": "address",
          "name": "_mintPriceAddr",
          "type": "address"
        },
        {
          "internalType": "string",
          "name": "_name",
          "type": "string"
        },
        {
          "components": [
            {
              "internalType": "uint256",
              "name": "_initBlockTime",
              "type": "uint256"
            },
            {
              "internalType": "uint256",
              "name": "_openingTime",
              "type": "uint256"
            }
          ],
          "internalType": "struct NFTProject.ProjectMintingSchedule",
          "name": "_mintingSchedule",
          "type": "tuple"
        }
      ],
      "stateMutability": "view",
      "type": "function"
    },
    {
      "inputs": [],
      "name": "_projectDataContextAddr",
      "outputs": [
        {
          "internalType": "address",
          "name": "",
          "type": "address"
        }
      ],
      "stateMutability": "view",
      "type": "function"
    },
    {
      "inputs": [],
      "name": "_randomizer",
      "outputs": [
        {
          "internalType": "address",
          "name": "",
          "type": "address"
        }
      ],
      "stateMutability": "view",
      "type": "function"
    },
    {
      "inputs": [],
      "name": "_royalty",
      "outputs": [
        {
          "internalType": "uint256",
          "name": "",
          "type": "uint256"
        }
      ],
      "stateMutability": "view",
      "type": "function"
    },
    {
      "inputs": [
        {
          "internalType": "address",
          "name": "to",
          "type": "address"
        },
        {
          "internalType": "uint256",
          "name": "tokenId",
          "type": "uint256"
        }
      ],
      "name": "approve",
      "outputs": [],
      "stateMutability": "nonpayable",
      "type": "function"
    },
    {
      "inputs": [
        {
          "internalType": "address",
          "name": "owner",
          "type": "address"
        }
      ],
      "name": "balanceOf",
      "outputs": [
        {
          "internalType": "uint256",
          "name": "",
          "type": "uint256"
        }
      ],
      "stateMutability": "view",
      "type": "function"
    },
    {
      "inputs": [
        {
          "internalType": "address",
          "name": "newAdm",
          "type": "address"
        }
      ],
      "name": "changeAdmin",
      "outputs": [],
      "stateMutability": "nonpayable",
      "type": "function"
    },
    {
      "inputs": [
        {
          "internalType": "address",
          "name": "newAddr",
          "type": "address"
        }
      ],
      "name": "changeDataContextAddr",
      "outputs": [],
      "stateMutability": "nonpayable",
      "type": "function"
    },
    {
      "inputs": [
        {
          "internalType": "address",
          "name": "newAddr",
          "type": "address"
        }
      ],
      "name": "changeParamAddr",
      "outputs": [],
      "stateMutability": "nonpayable",
      "type": "function"
    },
    {
      "inputs": [
        {
          "internalType": "address",
          "name": "newAddr",
          "type": "address"
        }
      ],
      "name": "changeRandomizerAddr",
      "outputs": [],
      "stateMutability": "nonpayable",
      "type": "function"
    },
    {
      "inputs": [
        {
          "internalType": "uint256",
          "name": "tokenId",
          "type": "uint256"
        }
      ],
      "name": "getApproved",
      "outputs": [
        {
          "internalType": "address",
          "name": "",
          "type": "address"
        }
      ],
      "stateMutability": "view",
      "type": "function"
    },
    {
      "inputs": [],
      "name": "getStatus",
      "outputs": [
        {
          "internalType": "bool",
          "name": "",
          "type": "bool"
        }
      ],
      "stateMutability": "view",
      "type": "function"
    },
    {
      "inputs": [
        {
          "components": [
            {
              "internalType": "address",
              "name": "_projectAddr",
              "type": "address"
            },
            {
              "internalType": "uint256",
              "name": "_projectId",
              "type": "uint256"
            },
            {
              "internalType": "uint24",
              "name": "_maxSupply",
              "type": "uint24"
            },
            {
              "internalType": "uint24",
              "name": "_limit",
              "type": "uint24"
            },
            {
              "internalType": "uint24",
              "name": "_index",
              "type": "uint24"
            },
            {
              "internalType": "uint24",
              "name": "_indexReserve",
              "type": "uint24"
            },
            {
              "internalType": "string",
              "name": "_creator",
              "type": "string"
            },
            {
              "internalType": "uint256",
              "name": "_mintPrice",
              "type": "uint256"
            },
            {
              "internalType": "address",
              "name": "_mintPriceAddr",
              "type": "address"
            },
            {
              "internalType": "string",
              "name": "_name",
              "type": "string"
            },
            {
              "components": [
                {
                  "internalType": "uint256",
                  "name": "_initBlockTime",
                  "type": "uint256"
                },
                {
                  "internalType": "uint256",
                  "name": "_openingTime",
                  "type": "uint256"
                }
              ],
              "internalType": "struct NFTProject.ProjectMintingSchedule",
              "name": "_mintingSchedule",
              "type": "tuple"
            }
          ],
          "internalType": "struct NFTProject.ProjectMinting",
          "name": "project",
          "type": "tuple"
        },
        {
          "internalType": "address",
          "name": "admin",
          "type": "address"
        },
        {
          "internalType": "address",
          "name": "paramsAddr",
          "type": "address"
        },
        {
          "internalType": "address",
          "name": "randomizer",
          "type": "address"
        },
        {
          "internalType": "address",
          "name": "projectDataContextAddr",
          "type": "address"
        },
        {
          "internalType": "address[]",
          "name": "reserves",
          "type": "address[]"
        },
        {
          "internalType": "bool",
          "name": "disable",
          "type": "bool"
        },
        {
          "internalType": "uint256",
          "name": "royalty",
          "type": "uint256"
        }
      ],
      "name": "init",
      "outputs": [],
      "stateMutability": "nonpayable",
      "type": "function"
    },
    {
      "inputs": [
        {
          "internalType": "address",
          "name": "owner",
          "type": "address"
        },
        {
          "internalType": "address",
          "name": "operator",
          "type": "address"
        }
      ],
      "name": "isApprovedForAll",
      "outputs": [
        {
          "internalType": "bool",
          "name": "",
          "type": "bool"
        }
      ],
      "stateMutability": "view",
      "type": "function"
    },
    {
      "inputs": [],
      "name": "mint",
      "outputs": [
        {
          "internalType": "uint256",
          "name": "tokenId",
          "type": "uint256"
        }
      ],
      "stateMutability": "payable",
      "type": "function"
    },
    {
      "inputs": [],
      "name": "name",
      "outputs": [
        {
          "internalType": "string",
          "name": "",
          "type": "string"
        }
      ],
      "stateMutability": "view",
      "type": "function"
    },
    {
      "inputs": [],
      "name": "owner",
      "outputs": [
        {
          "internalType": "address",
          "name": "",
          "type": "address"
        }
      ],
      "stateMutability": "view",
      "type": "function"
    },
    {
      "inputs": [
        {
          "internalType": "uint256",
          "name": "tokenId",
          "type": "uint256"
        }
      ],
      "name": "ownerOf",
      "outputs": [
        {
          "internalType": "address",
          "name": "",
          "type": "address"
        }
      ],
      "stateMutability": "view",
      "type": "function"
    },
    {
      "inputs": [],
      "name": "paused",
      "outputs": [
        {
          "internalType": "bool",
          "name": "",
          "type": "bool"
        }
      ],
      "stateMutability": "view",
      "type": "function"
    },
    {
      "inputs": [],
      "name": "renounceOwnership",
      "outputs": [],
      "stateMutability": "nonpayable",
      "type": "function"
    },
    {
      "inputs": [],
      "name": "reserveMint",
      "outputs": [
        {
          "internalType": "uint256",
          "name": "tokenId",
          "type": "uint256"
        }
      ],
      "stateMutability": "payable",
      "type": "function"
    },
    {
      "inputs": [
        {
          "internalType": "uint256",
          "name": "_tokenId",
          "type": "uint256"
        },
        {
          "internalType": "uint256",
          "name": "_salePrice",
          "type": "uint256"
        }
      ],
      "name": "royaltyInfo",
      "outputs": [
        {
          "internalType": "address",
          "name": "receiver",
          "type": "address"
        },
        {
          "internalType": "uint256",
          "name": "royaltyAmount",
          "type": "uint256"
        }
      ],
      "stateMutability": "view",
      "type": "function"
    },
    {
      "inputs": [
        {
          "internalType": "address",
          "name": "from",
          "type": "address"
        },
        {
          "internalType": "address",
          "name": "to",
          "type": "address"
        },
        {
          "internalType": "uint256",
          "name": "tokenId",
          "type": "uint256"
        }
      ],
      "name": "safeTransferFrom",
      "outputs": [],
      "stateMutability": "nonpayable",
      "type": "function"
    },
    {
      "inputs": [
        {
          "internalType": "address",
          "name": "from",
          "type": "address"
        },
        {
          "internalType": "address",
          "name": "to",
          "type": "address"
        },
        {
          "internalType": "uint256",
          "name": "tokenId",
          "type": "uint256"
        },
        {
          "internalType": "bytes",
          "name": "data",
          "type": "bytes"
        }
      ],
      "name": "safeTransferFrom",
      "outputs": [],
      "stateMutability": "nonpayable",
      "type": "function"
    },
    {
      "inputs": [
        {
          "internalType": "address",
          "name": "operator",
          "type": "address"
        },
        {
          "internalType": "bool",
          "name": "approved",
          "type": "bool"
        }
      ],
      "name": "setApprovalForAll",
      "outputs": [],
      "stateMutability": "nonpayable",
      "type": "function"
    },
    {
      "inputs": [
        {
          "internalType": "bool",
          "name": "enable",
          "type": "bool"
        }
      ],
      "name": "setStatus",
      "outputs": [],
      "stateMutability": "nonpayable",
      "type": "function"
    },
    {
      "inputs": [
        {
          "internalType": "bytes4",
          "name": "interfaceId",
          "type": "bytes4"
        }
      ],
      "name": "supportsInterface",
      "outputs": [
        {
          "internalType": "bool",
          "name": "",
          "type": "bool"
        }
      ],
      "stateMutability": "view",
      "type": "function"
    },
    {
      "inputs": [],
      "name": "symbol",
      "outputs": [
        {
          "internalType": "string",
          "name": "",
          "type": "string"
        }
      ],
      "stateMutability": "view",
      "type": "function"
    },
    {
      "inputs": [
        {
          "internalType": "uint256",
          "name": "tokenId",
          "type": "uint256"
        }
      ],
      "name": "tokenGenerativeURI",
      "outputs": [
        {
          "internalType": "string",
          "name": "",
          "type": "string"
        }
      ],
      "stateMutability": "view",
      "type": "function"
    },
    {
      "inputs": [
        {
          "internalType": "uint256",
          "name": "tokenId",
          "type": "uint256"
        }
      ],
      "name": "tokenURI",
      "outputs": [
        {
          "internalType": "string",
          "name": "",
          "type": "string"
        }
      ],
      "stateMutability": "view",
      "type": "function"
    },
    {
      "inputs": [
        {
          "internalType": "address",
          "name": "from",
          "type": "address"
        },
        {
          "internalType": "address",
          "name": "to",
          "type": "address"
        },
        {
          "internalType": "uint256",
          "name": "tokenId",
          "type": "uint256"
        }
      ],
      "name": "transferFrom",
      "outputs": [],
      "stateMutability": "nonpayable",
      "type": "function"
    },
    {
      "inputs": [
        {
          "internalType": "address",
          "name": "newOwner",
          "type": "address"
        }
      ],
      "name": "transferOwnership",
      "outputs": [],
      "stateMutability": "nonpayable",
      "type": "function"
    }
  ],
  "bytecode": "0x60806040523480156200001157600080fd5b5060405162003f1938038062003f198339810160408190526200003491620003b0565b733cc6cdda760b79bafa08df41ecfa224f810dceb66001838381818160009080519060200190620000679291906200023d565b5080516200007d9060019060208401906200023d565b50506006805460ff191690555060016007556200009a33620001eb565b50506daaeb6d7670e522a718067333cd4e3b15620001e15780156200012f57604051633e9f1edf60e11b81523060048201526001600160a01b03831660248201526daaeb6d7670e522a718067333cd4e90637d3e3dbe906044015b600060405180830381600087803b1580156200011057600080fd5b505af115801562000125573d6000803e3d6000fd5b50505050620001e1565b6001600160a01b03821615620001805760405163a0af290360e01b81523060048201526001600160a01b03831660248201526daaeb6d7670e522a718067333cd4e9063a0af290390604401620000f5565b604051632210724360e11b81523060048201526daaeb6d7670e522a718067333cd4e90634420e48690602401600060405180830381600087803b158015620001c757600080fd5b505af1158015620001dc573d6000803e3d6000fd5b505050505b5050505062000457565b600880546001600160a01b038381166001600160a01b0319831681179093556040519116919082907f8be0079c531659141344cd1fd0a4f28419497f9722a3daafe3b4186f6b6457e090600090a35050565b8280546200024b906200041a565b90600052602060002090601f0160209004810192826200026f5760008555620002ba565b82601f106200028a57805160ff1916838001178555620002ba565b82800160010185558215620002ba579182015b82811115620002ba5782518255916020019190600101906200029d565b50620002c8929150620002cc565b5090565b5b80821115620002c85760008155600101620002cd565b634e487b7160e01b600052604160045260246000fd5b600082601f8301126200030b57600080fd5b81516001600160401b0380821115620003285762000328620002e3565b604051601f8301601f19908116603f01168101908282118183101715620003535762000353620002e3565b816040528381526020925086838588010111156200037057600080fd5b600091505b8382101562000394578582018301518183018401529082019062000375565b83821115620003a65760008385830101525b9695505050505050565b60008060408385031215620003c457600080fd5b82516001600160401b0380821115620003dc57600080fd5b620003ea86838701620002f9565b935060208501519150808211156200040157600080fd5b506200041085828601620002f9565b9150509250929050565b600181811c908216806200042f57607f821691505b602082108114156200045157634e487b7160e01b600052602260045260246000fd5b50919050565b613ab280620004676000396000f3fe60806040526004361061020f5760003560e01c80635c40f6f411610118578063a22cb465116100a0578063e985e9c51161006f578063e985e9c514610606578063eb03558a1461064f578063f2fde38b1461066f578063febfd6c31461068f578063ffc27c0e146106af57600080fd5b8063a22cb46514610586578063adfc7dae146105a6578063b88d4fde146105c6578063c87b56dd146105e657600080fd5b8063715018a6116100e7578063715018a6146104f2578063775bff9f146105075780638da5cb5b146105335780638f2839701461055157806395d89b411461057157600080fd5b80635c40f6f4146104645780635c975abb146104845780636352211e1461049c57806370a08231146104d257600080fd5b806323b872dd1161019b57806342842e0e1161016a57806342842e0e146103da578063452fa3d3146103fa578063472f1e021461040f5780634e69d5601461042f578063575b57ea1461044457600080fd5b806323b872dd146103435780632a55205a146103635780633b66b00a146103a257806341f43434146103b857600080fd5b8063095ea7b3116101e2578063095ea7b3146102c357806310da88c5146102e55780631249c58b146103055780631ca9741b1461031b57806321c8d6761461033b57600080fd5b806301bc45c91461021457806301ffc9a71461025157806306fdde0314610281578063081812fc146102a3575b600080fd5b34801561022057600080fd5b50600a54610234906001600160a01b031681565b6040516001600160a01b0390911681526020015b60405180910390f35b34801561025d57600080fd5b5061027161026c366004613040565b6106cf565b6040519015158152602001610248565b34801561028d57600080fd5b50610296610721565b60405161024891906130bc565b3480156102af57600080fd5b506102346102be3660046130cf565b6107b3565b3480156102cf57600080fd5b506102e36102de36600461310d565b6107da565b005b3480156102f157600080fd5b506102966103003660046130cf565b6108f5565b61030d6109dd565b604051908152602001610248565b34801561032757600080fd5b506102e3610336366004613139565b610bf0565b61030d610c81565b34801561034f57600080fd5b506102e361035e366004613156565b610f82565b34801561036f57600080fd5b5061038361037e366004613197565b610fad565b604080516001600160a01b039093168352602083019190915201610248565b3480156103ae57600080fd5b5061030d600f5481565b3480156103c457600080fd5b506102346daaeb6d7670e522a718067333cd4e81565b3480156103e657600080fd5b506102e36103f5366004613156565b610fc5565b34801561040657600080fd5b50610296610fea565b34801561041b57600080fd5b506102e361042a366004613139565b611078565b34801561043b57600080fd5b5061027161110a565b34801561045057600080fd5b50600d54610234906001600160a01b031681565b34801561047057600080fd5b506102e361047f3660046131d2565b61111e565b34801561049057600080fd5b5060065460ff16610271565b3480156104a857600080fd5b506102346104b73660046130cf565b6000908152600960205260409020546001600160a01b031690565b3480156104de57600080fd5b5061030d6104ed366004613139565b611185565b3480156104fe57600080fd5b506102e361120b565b34801561051357600080fd5b5061051c61121f565b6040516102489b9a999897969594939291906131ef565b34801561053f57600080fd5b50600a546001600160a01b0316610234565b34801561055d57600080fd5b506102e361056c366004613139565b6113b8565b34801561057d57600080fd5b5061029661144a565b34801561059257600080fd5b506102e36105a136600461328a565b6114e8565b3480156105b257600080fd5b50600b54610234906001600160a01b031681565b3480156105d257600080fd5b506102e36105e136600461339a565b6114f7565b3480156105f257600080fd5b506102966106013660046130cf565b611524565b34801561061257600080fd5b5061027161062136600461341a565b6001600160a01b03918216600090815260056020908152604080832093909416825291909152205460ff1690565b34801561065b57600080fd5b506102e361066a366004613553565b6115c3565b34801561067b57600080fd5b506102e361068a366004613139565b611896565b34801561069b57600080fd5b506102e36106aa366004613139565b61190c565b3480156106bb57600080fd5b50600c54610234906001600160a01b031681565b60006001600160e01b031982166380ac58cd60e01b148061070057506001600160e01b03198216635b5e139f60e01b145b8061071b57506301ffc9a760e01b6001600160e01b03198316145b92915050565b6060600e8054610730906136f9565b80601f016020809104026020016040519081016040528092919081815260200182805461075c906136f9565b80156107a95780601f1061077e576101008083540402835291602001916107a9565b820191906000526020600020905b81548152906001019060200180831161078c57829003601f168201915b5050505050905090565b60006107be8261199e565b506000908152600460205260409020546001600160a01b031690565b60006107e5826119ee565b9050806001600160a01b0316836001600160a01b031614156108585760405162461bcd60e51b815260206004820152602160248201527f4552433732313a20617070726f76616c20746f2063757272656e74206f776e656044820152603960f91b60648201526084015b60405180910390fd5b336001600160a01b038216148061087457506108748133610621565b6108e65760405162461bcd60e51b815260206004820152603d60248201527f4552433732313a20617070726f76652063616c6c6572206973206e6f7420746f60448201527f6b656e206f776e6572206f7220617070726f76656420666f7220616c6c000000606482015260840161084f565b6108f08383611a4e565b505050565b606061090082611abc565b6040518060400160405280600381526020016232303960e81b8152509061093a5760405162461bcd60e51b815260040161084f91906130bc565b50600d546001600160a01b0316600061095284611ad9565b601154604051639413930160e01b8152600481019190915260248101869052604481018290529091506001600160a01b038316906394139301906064015b600060405180830381865afa1580156109ad573d6000803e3d6000fd5b505050506040513d6000823e601f3d908101601f191682016040526109d59190810190613734565b949350505050565b60006109e7611ba5565b60185415610a2e5760185460408051808201909152600381526206460760eb1b6020820152904211610a2c5760405162461bcd60e51b815260040161084f91906130bc565b505b60128054600160301b900462ffffff16906006610a4a836137c1565b82546101009290920a62ffffff818102199093169183160217909155601254630100000081048216600160301b90910490911611159050610a8a57600080fd5b60125462ffffff80821691610ab091600160481b8204811691600160301b9004166137e4565b62ffffff161415610b2157601054601154604051631122f8a960e11b815260048101919091526001600160a01b03909116908190632245f15290602401600060405180830381600087803b158015610b0757600080fd5b505af1158015610b1b573d6000803e3d6000fd5b50505050505b601254601154600160301b90910462ffffff1690610b4390620f42409061380b565b610b4d919061382a565b9050610b593382611bff565b600c54604051631da00d8560e01b8152600481018390526001600160a01b03909116906000908290631da00d85906024016020604051808303816000875af1158015610ba9573d6000803e3d6000fd5b505050506040513d601f19601f82011682018060405250810190610bcd9190613842565b9050610bd98382611c19565b610be1611ce2565b5050610bed6001600755565b90565b600a546001600160a01b031633148015610c1257506001600160a01b03811615155b6040518060400160405280600381526020016231303160e81b81525090610c4c5760405162461bcd60e51b815260040161084f91906130bc565b50600c546001600160a01b03828116911614610c7e57600c80546001600160a01b0319166001600160a01b0383161790555b50565b6000610c8b611ba5565b60128054600160481b900462ffffff16906009610ca7836137c1565b82546101009290920a62ffffff8181021990931691831602179091556012548082169250610ce69163010000008204811691600160481b9004166137e4565b62ffffff161115610cf657600080fd5b60125462ffffff80821691610d1c91600160481b8204811691600160301b9004166137e4565b62ffffff161415610d8d57601054601154604051631122f8a960e11b815260048101919091526001600160a01b03909116908190632245f15290602401600060405180830381600087803b158015610d7357600080fd5b505af1158015610d87573d6000803e3d6000fd5b50505050505b601054336000908152601960205260409020546001600160a01b039091169060ff1680610e3757506011546040516331a9108f60e11b815260048101919091526001600160a01b03821690636352211e90602401602060405180830381865afa158015610dfe573d6000803e3d6000fd5b505050506040513d601f19601f82011682018060405250810190610e22919061385b565b6001600160a01b0316336001600160a01b0316145b610e4057600080fd5b3360009081526019602052604090205460ff168015610e60575060185415155b15610ea45760185460408051808201909152600381526206460760eb1b6020820152904211610ea25760405162461bcd60e51b815260040161084f91906130bc565b505b601254610ec69062ffffff63010000008204811691600160481b9004166137e4565b62ffffff16620f4240601060010154610edf919061380b565b610ee9919061382a565b9150610ef53383611bff565b600c54604051631da00d8560e01b8152600481018490526001600160a01b03909116906000908290631da00d85906024016020604051808303816000875af1158015610f45573d6000803e3d6000fd5b505050506040513d601f19601f82011682018060405250810190610f699190613842565b9050610f758482611c19565b505050610bed6001600755565b826001600160a01b0381163314610f9c57610f9c336122c7565b610fa7848484612380565b50505050565b600080610fba84846123b1565b915091509250929050565b826001600160a01b0381163314610fdf57610fdf336122c7565b610fa784848461254b565b600e8054610ff7906136f9565b80601f0160208091040260200160405190810160405280929190818152602001828054611023906136f9565b80156110705780601f1061104557610100808354040283529160200191611070565b820191906000526020600020905b81548152906001019060200180831161105357829003601f168201915b505050505081565b600a546001600160a01b03163314801561109a57506001600160a01b03811615155b6040518060400160405280600381526020016231303160e81b815250906110d45760405162461bcd60e51b815260040161084f91906130bc565b50600d546001600160a01b03828116911614610c7e57600d80546001600160a01b0383166001600160a01b031990911617905550565b600061111860065460ff1690565b15905090565b600a546001600160a01b031633148061114157506010546001600160a01b031633145b6040518060400160405280600381526020016231303160e81b8152509061117b5760405162461bcd60e51b815260040161084f91906130bc565b50610c7e81612566565b60006001600160a01b0382166111ef5760405162461bcd60e51b815260206004820152602960248201527f4552433732313a2061646472657373207a65726f206973206e6f7420612076616044820152683634b21037bbb732b960b91b606482015260840161084f565b506001600160a01b031660009081526003602052604090205490565b61121361257c565b61121d60006125fa565b565b60108054601154601254601380546001600160a01b0390941694929362ffffff8084169463010000008504821694600160301b8104831694600160481b9091049092169290919061126f906136f9565b80601f016020809104026020016040519081016040528092919081815260200182805461129b906136f9565b80156112e85780601f106112bd576101008083540402835291602001916112e8565b820191906000526020600020905b8154815290600101906020018083116112cb57829003601f168201915b5050505060048301546005840154600685018054949592946001600160a01b03909216935090611317906136f9565b80601f0160208091040260200160405190810160405280929190818152602001828054611343906136f9565b80156113905780601f1061136557610100808354040283529160200191611390565b820191906000526020600020905b81548152906001019060200180831161137357829003601f168201915b50506040805180820190915260078601548152600890950154602086015250919291508c9050565b600a546001600160a01b0316331480156113da57506001600160a01b03811615155b6040518060400160405280600381526020016231303160e81b815250906114145760405162461bcd60e51b815260040161084f91906130bc565b50600a546001600160a01b03828116911614610c7e57600a80546001600160a01b0383166001600160a01b031990911617905550565b60606114e360016003600e8054611460906136f9565b80601f016020809104026020016040519081016040528092919081815260200182805461148c906136f9565b80156114d95780601f106114ae576101008083540402835291602001916114d9565b820191906000526020600020905b8154815290600101906020018083116114bc57829003601f168201915b505050505061264c565b905090565b6114f3338383612733565b5050565b836001600160a01b038116331461151157611511336122c7565b61151d85858585612802565b5050505050565b606061152f82611abc565b6040518060400160405280600381526020016232303960e81b815250906115695760405162461bcd60e51b815260040161084f91906130bc565b50600d546001600160a01b0316600061158184611ad9565b6011546040516308dd54e960e31b8152600481019190915260248101869052604481018290529091506001600160a01b038316906346eaa74890606401610990565b600a5460408051808201909152600381526219181960e91b6020820152906001600160a01b0316156116085760405162461bcd60e51b815260040161084f91906130bc565b5060408051808201909152600381526203130360ec1b60208201526001600160a01b03881661164a5760405162461bcd60e51b815260040161084f91906130bc565b508751601080546001600160a01b039092166001600160a01b03199092169190911781556020808a015160115560408a01516012805460608d015160808e015160a08f015162ffffff908116600160481b026bffffff00000000000000000019928216600160301b02929092166bffffffffffff0000000000001993821663010000000265ffffffffffff19909516919096161792909217169290921791909117905560c08a015180518b939261170692601392910190612f91565b5060e082015160048201556101008201516005820180546001600160a01b0319166001600160a01b039092169190911790556101208201518051611754916006840191602090910190612f91565b50610140919091015180516007830155602090810151600890920191909155600b80546001600160a01b03808a166001600160a01b031992831617909255600a80548b8416908316179055600c8054898416908316179055600d80549288169290911691909117905561012089015160c08a01516040516117d59301613878565b604051602081830303815290604052600e90805190602001906117f9929190612f91565b5060005b83518110156118625760016019600086848151811061181e5761181e6138b7565b6020908102919091018101516001600160a01b03168252810191909152604001600020805460ff19169115159190911790558061185a816138cd565b9150506117fd565b50600a54611878906001600160a01b0316611896565b811561188657611886612834565b42601755600f5550505050505050565b61189e61257c565b6001600160a01b0381166119035760405162461bcd60e51b815260206004820152602660248201527f4f776e61626c653a206e6577206f776e657220697320746865207a65726f206160448201526564647265737360d01b606482015260840161084f565b610c7e816125fa565b600a546001600160a01b03163314801561192e57506001600160a01b03811615155b6040518060400160405280600381526020016231303160e81b815250906119685760405162461bcd60e51b815260040161084f91906130bc565b50600b546001600160a01b03828116911614610c7e57600b80546001600160a01b0383166001600160a01b031990911617905550565b6119a781611abc565b610c7e5760405162461bcd60e51b8152602060048201526018602482015277115490cdcc8c4e881a5b9d985b1a59081d1bdad95b88125160421b604482015260640161084f565b6000818152600260205260408120546001600160a01b03168061071b5760405162461bcd60e51b8152602060048201526018602482015277115490cdcc8c4e881a5b9d985b1a59081d1bdad95b88125160421b604482015260640161084f565b600081815260046020526040902080546001600160a01b0319166001600160a01b0384169081179091558190611a83826119ee565b6001600160a01b03167f8c5be1e5ebec7d5bd14f71427d1e84f3dd0314c0f7b2291e5b200ac8c7c3b92560405160405180910390a45050565b6000908152600960205260409020546001600160a01b0316151590565b6000611ae482611abc565b6040518060400160405280600381526020016232303960e81b81525090611b1e5760405162461bcd60e51b815260040161084f91906130bc565b50600082815260096020526040902054600160a01b900460a01b6001600160a01b031916611b4e57506000919050565b600082815260096020908152604091829020549151611b8892600160a01b900460a01b91016001600160a01b031991909116815260200190565b604051602081830303815290604052805190602001209050919050565b60026007541415611bf85760405162461bcd60e51b815260206004820152601f60248201527f5265656e7472616e637947756172643a207265656e7472616e742063616c6c00604482015260640161084f565b6002600755565b6114f382826040518060200160405280600081525061288e565b600082815260096020908152604091829020548251808401909352600383526219181b60e91b91830191909152600160a01b900460a01b6001600160a01b03191615611c785760405162461bcd60e51b815260040161084f91906130bc565b5060408051808201909152600381526232303760e81b602082015281611cb15760405162461bcd60e51b815260040161084f91906130bc565b50600091825260096020526040909120805460a09290921c600160a01b026001600160a01b03909216919091179055565b60145480611ced5750565b601054600b54604080518082018252601b81527f44454641554c545f524f59414c54595f46494e5f50455243454e54000000000060208201529051636d12dce160e01b81526001600160a01b0393841693909216916000918391636d12dce191611d59916004016130bc565b602060405180830381865afa158015611d76573d6000803e3d6000fd5b505050506040513d601f19601f82011682018060405250810190611d9a9190613842565b600a54600b549192506001600160a01b03908116911615611f065760408051808201825260158152744d494e545f4e46545f4f50455241544f525f46454560581b60208201529051636d12dce160e01b81526001600160a01b03851691636d12dce191611e0a91906004016130bc565b602060405180830381865afa158015611e27573d6000803e3d6000fd5b505050506040513d601f19601f82011682018060405250810190611e4b9190613842565b604080518082018252601f81527f4d494e545f4e46545f4f50455241544f525f54524541535552455f41444452006020820152905163bf40fac160e01b81529193506000916001600160a01b0386169163bf40fac191611eae91906004016130bc565b602060405180830381865afa158015611ecb573d6000803e3d6000fd5b505050506040513d601f19601f82011682018060405250810190611eef919061385b565b90506001600160a01b03811615611f04578091505b505b6015546001600160a01b0316806120865785341015611f2457600080fd5b6011546040516331a9108f60e11b81526000916001600160a01b03881691636352211e91611f589160040190815260200190565b602060405180830381865afa158015611f75573d6000803e3d6000fd5b505050506040513d601f19601f82011682018060405250810190611f99919061385b565b6001600160a01b0316612710611faf868a61380b565b611fb991906138e8565b611fc3908961390a565b604051600081818185875af1925050503d8060008114611fff576040519150601f19603f3d011682016040523d82523d6000602084013e612004565b606091505b505090508061201257600080fd5b8315612080576001600160a01b03831661271061202f868a61380b565b61203991906138e8565b604051600081818185875af1925050503d8060008114612075576040519150601f19603f3d011682016040523d82523d6000602084013e61207a565b606091505b50909150505b506122bf565b6040516323b872dd60e01b81523360048201523060248201526044810187905281906001600160a01b038216906323b872dd906064016020604051808303816000875af11580156120db573d6000803e3d6000fd5b505050506040513d601f19601f820116820180604052508101906120ff9190613921565b61210857600080fd5b6011546040516331a9108f60e11b815260048101919091526001600160a01b038281169163a9059cbb91891690636352211e90602401602060405180830381865afa15801561215b573d6000803e3d6000fd5b505050506040513d601f19601f8201168201806040525081019061217f919061385b565b61271061218c888c61380b565b61219691906138e8565b6121a0908b61390a565b6040516001600160e01b031960e085901b1681526001600160a01b03909216600483015260248201526044016020604051808303816000875af11580156121eb573d6000803e3d6000fd5b505050506040513d601f19601f8201168201806040525081019061220f9190613921565b61221857600080fd5b83156122bd576001600160a01b03811663a9059cbb8461271061223b888c61380b565b61224591906138e8565b6040516001600160e01b031960e085901b1681526001600160a01b03909216600483015260248201526044016020604051808303816000875af1158015612290573d6000803e3d6000fd5b505050506040513d601f19601f820116820180604052508101906122b49190613921565b6122bd57600080fd5b505b505050505050565b6daaeb6d7670e522a718067333cd4e3b15610c7e57604051633185c44d60e21b81523060048201526001600160a01b03821660248201526daaeb6d7670e522a718067333cd4e9063c617113490604401602060405180830381865afa158015612334573d6000803e3d6000fd5b505050506040513d601f19601f820116820180604052508101906123589190613921565b610c7e57604051633b79c77360e21b81526001600160a01b038216600482015260240161084f565b61238a33826128c1565b6123a65760405162461bcd60e51b815260040161084f9061393e565b6108f083838361293f565b600a54600f54600b546001600160a01b039283169260009291161561252a57600b546040805180820182526013815272524f59414c54595f46494e5f4144445245535360681b6020820152905163bf40fac160e01b81526001600160a01b0390921691600091839163bf40fac19161242b916004016130bc565b602060405180830381865afa158015612448573d6000803e3d6000fd5b505050506040513d601f19601f8201168201806040525081019061246c919061385b565b90506001600160a01b03811615612481578094505b8261252757604080518082018252601b81527f44454641554c545f524f59414c54595f46494e5f50455243454e54000000000060208201529051636d12dce160e01b81526001600160a01b03841691636d12dce1916124e391906004016130bc565b602060405180830381865afa158015612500573d6000803e3d6000fd5b505050506040513d601f19601f820116820180604052508101906125249190613842565b92505b50505b612710612537828661380b565b61254191906138e8565b9150509250929050565b6108f0838383604051806020016040528060008152506114f7565b801561257457610c7e612979565b610c7e612834565b3361258f600a546001600160a01b031690565b6001600160a01b031614806125ae57506010546001600160a01b031633145b61121d5760405162461bcd60e51b815260206004820181905260248201527f4f776e61626c653a2063616c6c6572206973206e6f7420746865206f776e6572604482015260640161084f565b600880546001600160a01b038381166001600160a01b0319831681179093556040519116919082907f8be0079c531659141344cd1fd0a4f28419497f9722a3daafe3b4186f6b6457e090600090a35050565b6060600061265a858561390a565b61266590600161382a565b67ffffffffffffffff81111561267d5761267d6132c3565b6040519080825280601f01601f1916602001820160405280156126a7576020820181803683370190505b50905060005b6126b7868661390a565b811161272a578360016126ca888461382a565b6126d4919061390a565b815181106126e4576126e46138b7565b602001015160f81c60f81b828281518110612701576127016138b7565b60200101906001600160f81b031916908160001a90535080612722816138cd565b9150506126ad565b50949350505050565b816001600160a01b0316836001600160a01b031614156127955760405162461bcd60e51b815260206004820152601960248201527f4552433732313a20617070726f766520746f2063616c6c657200000000000000604482015260640161084f565b6001600160a01b03838116600081815260056020908152604080832094871680845294825291829020805460ff191686151590811790915591519182527f17307eab39ab6107e8899845ad3d59bd9653f200f220920489ca2b5937696c31910160405180910390a3505050565b61280c33836128c1565b6128285760405162461bcd60e51b815260040161084f9061393e565b610fa7848484846129b2565b61283c6129e5565b6006805460ff191660011790557f62e78cea01bee320cd4e420270b5ea74000d11b0c9f74754ebdbfc544b05a2586128713390565b6040516001600160a01b03909116815260200160405180910390a1565b6128988383612a2b565b6128a56000848484612a63565b6108f05760405162461bcd60e51b815260040161084f9061398b565b6000806128cd836119ee565b9050806001600160a01b0316846001600160a01b0316148061291457506001600160a01b0380821660009081526005602090815260408083209388168352929052205460ff165b806109d55750836001600160a01b031661292d846107b3565b6001600160a01b031614949350505050565b61294a838383612b61565b600090815260096020526040902080546001600160a01b0319166001600160a01b039290921691909117905550565b612981612cd2565b6006805460ff191690557f5db9ee0a495bf2e6ff9c91a7834c1ba4fdd244a5e8aa4e537bd38aeae4b073aa33612871565b6129bd84848461293f565b6129c984848484612a63565b610fa75760405162461bcd60e51b815260040161084f9061398b565b60065460ff161561121d5760405162461bcd60e51b815260206004820152601060248201526f14185d5cd8589b194e881c185d5cd95960821b604482015260640161084f565b612a358282612d1b565b600090815260096020526040902080546001600160a01b0319166001600160a01b0392909216919091179055565b60006001600160a01b0384163b15612b5657604051630a85bd0160e11b81526001600160a01b0385169063150b7a0290612aa79033908990889088906004016139dd565b6020604051808303816000875af1925050508015612ae2575060408051601f3d908101601f19168201909252612adf91810190613a1a565b60015b612b3c573d808015612b10576040519150601f19603f3d011682016040523d82523d6000602084013e612b15565b606091505b508051612b345760405162461bcd60e51b815260040161084f9061398b565b805181602001fd5b6001600160e01b031916630a85bd0160e11b1490506109d5565b506001949350505050565b826001600160a01b0316612b74826119ee565b6001600160a01b031614612b9a5760405162461bcd60e51b815260040161084f90613a37565b6001600160a01b038216612bfc5760405162461bcd60e51b8152602060048201526024808201527f4552433732313a207472616e7366657220746f20746865207a65726f206164646044820152637265737360e01b606482015260840161084f565b612c098383836001612e96565b826001600160a01b0316612c1c826119ee565b6001600160a01b031614612c425760405162461bcd60e51b815260040161084f90613a37565b600081815260046020908152604080832080546001600160a01b03199081169091556001600160a01b0387811680865260038552838620805460001901905590871680865283862080546001019055868652600290945282852080549092168417909155905184937fddf252ad1be2c89b69c2b068fc378daa952ba7f163c4a11628f55a4df523b3ef91a4505050565b60065460ff1661121d5760405162461bcd60e51b815260206004820152601460248201527314185d5cd8589b194e881b9bdd081c185d5cd95960621b604482015260640161084f565b6001600160a01b038216612d715760405162461bcd60e51b815260206004820181905260248201527f4552433732313a206d696e7420746f20746865207a65726f2061646472657373604482015260640161084f565b612d7a81611abc565b15612dc75760405162461bcd60e51b815260206004820152601c60248201527f4552433732313a20746f6b656e20616c7265616479206d696e74656400000000604482015260640161084f565b612dd5600083836001612e96565b612dde81611abc565b15612e2b5760405162461bcd60e51b815260206004820152601c60248201527f4552433732313a20746f6b656e20616c7265616479206d696e74656400000000604482015260640161084f565b6001600160a01b038216600081815260036020908152604080832080546001019055848352600290915280822080546001600160a01b0319168417905551839291907fddf252ad1be2c89b69c2b068fc378daa952ba7f163c4a11628f55a4df523b3ef908290a45050565b612ea284848484612f09565b60065460ff1615610fa75760405162461bcd60e51b815260206004820152602b60248201527f4552433732315061757361626c653a20746f6b656e207472616e73666572207760448201526a1a1a5b19481c185d5cd95960aa1b606482015260840161084f565b6001811115610fa7576001600160a01b03841615612f4f576001600160a01b03841660009081526003602052604081208054839290612f4990849061390a565b90915550505b6001600160a01b03831615610fa7576001600160a01b03831660009081526003602052604081208054839290612f8690849061382a565b909155505050505050565b828054612f9d906136f9565b90600052602060002090601f016020900481019282612fbf5760008555613005565b82601f10612fd857805160ff1916838001178555613005565b82800160010185558215613005579182015b82811115613005578251825591602001919060010190612fea565b50613011929150613015565b5090565b5b808211156130115760008155600101613016565b6001600160e01b031981168114610c7e57600080fd5b60006020828403121561305257600080fd5b813561305d8161302a565b9392505050565b60005b8381101561307f578181015183820152602001613067565b83811115610fa75750506000910152565b600081518084526130a8816020860160208601613064565b601f01601f19169290920160200192915050565b60208152600061305d6020830184613090565b6000602082840312156130e157600080fd5b5035919050565b6001600160a01b0381168114610c7e57600080fd5b8035613108816130e8565b919050565b6000806040838503121561312057600080fd5b823561312b816130e8565b946020939093013593505050565b60006020828403121561314b57600080fd5b813561305d816130e8565b60008060006060848603121561316b57600080fd5b8335613176816130e8565b92506020840135613186816130e8565b929592945050506040919091013590565b600080604083850312156131aa57600080fd5b50508035926020909101359150565b8015158114610c7e57600080fd5b8035613108816131b9565b6000602082840312156131e457600080fd5b813561305d816131b9565b6001600160a01b038c81168252602082018c905262ffffff8b811660408401528a811660608401528981166080840152881660a083015261018060c0830181905260009161323f8483018a613090565b91508760e0850152808716610100850152508281036101208401526132648186613090565b915050825161014083015260208301516101608301529c9b505050505050505050505050565b6000806040838503121561329d57600080fd5b82356132a8816130e8565b915060208301356132b8816131b9565b809150509250929050565b634e487b7160e01b600052604160045260246000fd5b604051610160810167ffffffffffffffff811182821017156132fd576132fd6132c3565b60405290565b604051601f8201601f1916810167ffffffffffffffff8111828210171561332c5761332c6132c3565b604052919050565b600067ffffffffffffffff82111561334e5761334e6132c3565b50601f01601f191660200190565b600061336f61336a84613334565b613303565b905082815283838301111561338357600080fd5b828260208301376000602084830101529392505050565b600080600080608085870312156133b057600080fd5b84356133bb816130e8565b935060208501356133cb816130e8565b925060408501359150606085013567ffffffffffffffff8111156133ee57600080fd5b8501601f810187136133ff57600080fd5b61340e8782356020840161335c565b91505092959194509250565b6000806040838503121561342d57600080fd5b8235613438816130e8565b915060208301356132b8816130e8565b803562ffffff8116811461310857600080fd5b600082601f83011261346c57600080fd5b61305d8383356020850161335c565b60006040828403121561348d57600080fd5b6040516040810181811067ffffffffffffffff821117156134b0576134b06132c3565b604052823581526020928301359281019290925250919050565b600082601f8301126134db57600080fd5b8135602067ffffffffffffffff8211156134f7576134f76132c3565b8160051b613506828201613303565b928352848101820192828101908785111561352057600080fd5b83870192505b84831015613548578235613539816130e8565b82529183019190830190613526565b979650505050505050565b600080600080600080600080610100808a8c03121561357157600080fd5b893567ffffffffffffffff8082111561358957600080fd5b908b0190610180828e03121561359e57600080fd5b6135a66132d9565b6135af836130fd565b8152602083013560208201526135c760408401613448565b60408201526135d860608401613448565b60608201526135e960808401613448565b60808201526135fa60a08401613448565b60a082015260c08301358281111561361157600080fd5b61361d8f82860161345b565b60c08301525060e083013560e08201526136388484016130fd565b848201526101209350838301358281111561365257600080fd5b61365e8f82860161345b565b858301525061014093506136748e85850161347b565b818501529a5061368660208d016130fd565b995061369460408d016130fd565b98506136a260608d016130fd565b97506136b060808d016130fd565b965060a08c01359250808311156136c657600080fd5b50506136d48b828c016134ca565b9350506136e360c08a016131c7565b915060e089013590509295985092959890939650565b600181811c9082168061370d57607f821691505b6020821081141561372e57634e487b7160e01b600052602260045260246000fd5b50919050565b60006020828403121561374657600080fd5b815167ffffffffffffffff81111561375d57600080fd5b8201601f8101841361376e57600080fd5b805161377c61336a82613334565b81815285602083850101111561379157600080fd5b6137a2826020830160208601613064565b95945050505050565b634e487b7160e01b600052601160045260246000fd5b600062ffffff808316818114156137da576137da6137ab565b6001019392505050565b600062ffffff808316818516808303821115613802576138026137ab565b01949350505050565b6000816000190483118215151615613825576138256137ab565b500290565b6000821982111561383d5761383d6137ab565b500190565b60006020828403121561385457600080fd5b5051919050565b60006020828403121561386d57600080fd5b815161305d816130e8565b6000835161388a818460208801613064565b63010313c960e51b90830190815283516138ab816004840160208801613064565b01600401949350505050565b634e487b7160e01b600052603260045260246000fd5b60006000198214156138e1576138e16137ab565b5060010190565b60008261390557634e487b7160e01b600052601260045260246000fd5b500490565b60008282101561391c5761391c6137ab565b500390565b60006020828403121561393357600080fd5b815161305d816131b9565b6020808252602d908201527f4552433732313a2063616c6c6572206973206e6f7420746f6b656e206f776e6560408201526c1c881bdc88185c1c1c9bdd9959609a1b606082015260800190565b60208082526032908201527f4552433732313a207472616e7366657220746f206e6f6e20455243373231526560408201527131b2b4bb32b91034b6b83632b6b2b73a32b960711b606082015260800190565b6001600160a01b0385811682528416602082015260408101839052608060608201819052600090613a1090830184613090565b9695505050505050565b600060208284031215613a2c57600080fd5b815161305d8161302a565b60208082526025908201527f4552433732313a207472616e736665722066726f6d20696e636f72726563742060408201526437bbb732b960d91b60608201526080019056fea264697066735822122028769bab8202b28dce043f88dfd833565292b3aff933b43a202e207dd31f0d1164736f6c634300080c0033",
  "linkReferences": {},
  "deployedLinkReferences": {}
}