{
  "_format": "hh-sol-artifact-1",
  "contractName": "GenerativeNFT",
  "sourceName": "contracts/nfts/GenerativeNFT.sol",
  "abi": [
    {
      "inputs": [
        {
          "internalType": "string",
          "name": "name",
          "type": "string"
        },
        {
          "internalType": "string",
          "name": "symbol",
          "type": "string"
        }
      ],
      "stateMutability": "nonpayable",
      "type": "constructor"
    },
    {
      "inputs": [
        {
          "internalType": "address",
          "name": "operator",
          "type": "address"
        }
      ],
      "name": "OperatorNotAllowed",
      "type": "error"
    },
    {
      "anonymous": false,
      "inputs": [
        {
          "indexed": true,
          "internalType": "address",
          "name": "owner",
          "type": "address"
        },
        {
          "indexed": true,
          "internalType": "address",
          "name": "approved",
          "type": "address"
        },
        {
          "indexed": true,
          "internalType": "uint256",
          "name": "tokenId",
          "type": "uint256"
        }
      ],
      "name": "Approval",
      "type": "event"
    },
    {
      "anonymous": false,
      "inputs": [
        {
          "indexed": true,
          "internalType": "address",
          "name": "owner",
          "type": "address"
        },
        {
          "indexed": true,
          "internalType": "address",
          "name": "operator",
          "type": "address"
        },
        {
          "indexed": false,
          "internalType": "bool",
          "name": "approved",
          "type": "bool"
        }
      ],
      "name": "ApprovalForAll",
      "type": "event"
    },
    {
      "anonymous": false,
      "inputs": [
        {
          "indexed": true,
          "internalType": "address",
          "name": "previousOwner",
          "type": "address"
        },
        {
          "indexed": true,
          "internalType": "address",
          "name": "newOwner",
          "type": "address"
        }
      ],
      "name": "OwnershipTransferred",
      "type": "event"
    },
    {
      "anonymous": false,
      "inputs": [
        {
          "indexed": false,
          "internalType": "address",
          "name": "account",
          "type": "address"
        }
      ],
      "name": "Paused",
      "type": "event"
    },
    {
      "anonymous": false,
      "inputs": [
        {
          "indexed": true,
          "internalType": "address",
          "name": "from",
          "type": "address"
        },
        {
          "indexed": true,
          "internalType": "address",
          "name": "to",
          "type": "address"
        },
        {
          "indexed": true,
          "internalType": "uint256",
          "name": "tokenId",
          "type": "uint256"
        }
      ],
      "name": "Transfer",
      "type": "event"
    },
    {
      "anonymous": false,
      "inputs": [
        {
          "indexed": false,
          "internalType": "address",
          "name": "account",
          "type": "address"
        }
      ],
      "name": "Unpaused",
      "type": "event"
    },
    {
      "inputs": [],
      "name": "OPERATOR_FILTER_REGISTRY",
      "outputs": [
        {
          "internalType": "contract IOperatorFilterRegistry",
          "name": "",
          "type": "address"
        }
      ],
      "stateMutability": "view",
      "type": "function"
    },
    {
      "inputs": [],
      "name": "_admin",
      "outputs": [
        {
          "internalType": "address",
          "name": "",
          "type": "address"
        }
      ],
      "stateMutability": "view",
      "type": "function"
    },
    {
      "inputs": [],
      "name": "_nameCol",
      "outputs": [
        {
          "internalType": "string",
          "name": "",
          "type": "string"
        }
      ],
      "stateMutability": "view",
      "type": "function"
    },
    {
      "inputs": [],
      "name": "_paramsAddress",
      "outputs": [
        {
          "internalType": "address",
          "name": "",
          "type": "address"
        }
      ],
      "stateMutability": "view",
      "type": "function"
    },
    {
      "inputs": [],
      "name": "_project",
      "outputs": [
        {
          "internalType": "address",
          "name": "_projectAddr",
          "type": "address"
        },
        {
          "internalType": "uint256",
          "name": "_projectId",
          "type": "uint256"
        },
        {
          "internalType": "uint24",
          "name": "_maxSupply",
          "type": "uint24"
        },
        {
          "internalType": "uint24",
          "name": "_limit",
          "type": "uint24"
        },
        {
          "internalType": "uint24",
          "name": "_index",
          "type": "uint24"
        },
        {
          "internalType": "uint24",
          "name": "_indexReserve",
          "type": "uint24"
        },
        {
          "internalType": "string",
          "name": "_creator",
          "type": "string"
        },
        {
          "internalType": "address",
          "name": "_creatorAddr",
          "type": "address"
        },
        {
          "internalType": "uint256",
          "name": "_mintPrice",
          "type": "uint256"
        },
        {
          "internalType": "address",
          "name": "_mintPriceAddr",
          "type": "address"
        },
        {
          "internalType": "string",
          "name": "_name",
          "type": "string"
        },
        {
          "components": [
            {
              "internalType": "uint256",
              "name": "_initBlockTime",
              "type": "uint256"
            },
            {
              "internalType": "uint256",
              "name": "_openingTime",
              "type": "uint256"
            }
          ],
          "internalType": "struct NFTProject.ProjectMintingSchedule",
          "name": "_mintingSchedule",
          "type": "tuple"
        }
      ],
      "stateMutability": "view",
      "type": "function"
    },
    {
      "inputs": [],
      "name": "_projectDataContextAddr",
      "outputs": [
        {
          "internalType": "address",
          "name": "",
          "type": "address"
        }
      ],
      "stateMutability": "view",
      "type": "function"
    },
    {
      "inputs": [],
      "name": "_randomizer",
      "outputs": [
        {
          "internalType": "address",
          "name": "",
          "type": "address"
        }
      ],
      "stateMutability": "view",
      "type": "function"
    },
    {
      "inputs": [
        {
          "internalType": "address",
          "name": "",
          "type": "address"
        }
      ],
      "name": "_reserves",
      "outputs": [
        {
          "internalType": "bool",
          "name": "",
          "type": "bool"
        }
      ],
      "stateMutability": "view",
      "type": "function"
    },
    {
      "inputs": [],
      "name": "_royalty",
      "outputs": [
        {
          "internalType": "uint256",
          "name": "",
          "type": "uint256"
        }
      ],
      "stateMutability": "view",
      "type": "function"
    },
    {
      "inputs": [],
      "name": "_symbolCol",
      "outputs": [
        {
          "internalType": "string",
          "name": "",
          "type": "string"
        }
      ],
      "stateMutability": "view",
      "type": "function"
    },
    {
      "inputs": [
        {
          "internalType": "address",
          "name": "to",
          "type": "address"
        },
        {
          "internalType": "uint256",
          "name": "tokenId",
          "type": "uint256"
        }
      ],
      "name": "approve",
      "outputs": [],
      "stateMutability": "nonpayable",
      "type": "function"
    },
    {
      "inputs": [
        {
          "internalType": "address",
          "name": "owner",
          "type": "address"
        }
      ],
      "name": "balanceOf",
      "outputs": [
        {
          "internalType": "uint256",
          "name": "",
          "type": "uint256"
        }
      ],
      "stateMutability": "view",
      "type": "function"
    },
    {
      "inputs": [
        {
          "internalType": "address",
          "name": "newAdm",
          "type": "address"
        }
      ],
      "name": "changeAdmin",
      "outputs": [],
      "stateMutability": "nonpayable",
      "type": "function"
    },
    {
      "inputs": [
        {
          "internalType": "address",
          "name": "newAddr",
          "type": "address"
        }
      ],
      "name": "changeDataContextAddr",
      "outputs": [],
      "stateMutability": "nonpayable",
      "type": "function"
    },
    {
      "inputs": [
        {
          "internalType": "address",
          "name": "newAddr",
          "type": "address"
        }
      ],
      "name": "changeParamAddr",
      "outputs": [],
      "stateMutability": "nonpayable",
      "type": "function"
    },
    {
      "inputs": [
        {
          "internalType": "address",
          "name": "newAddr",
          "type": "address"
        }
      ],
      "name": "changeRandomizerAddr",
      "outputs": [],
      "stateMutability": "nonpayable",
      "type": "function"
    },
    {
      "inputs": [
        {
          "internalType": "uint256",
          "name": "tokenId",
          "type": "uint256"
        }
      ],
      "name": "getApproved",
      "outputs": [
        {
          "internalType": "address",
          "name": "",
          "type": "address"
        }
      ],
      "stateMutability": "view",
      "type": "function"
    },
    {
      "inputs": [],
      "name": "getStatus",
      "outputs": [
        {
          "internalType": "bool",
          "name": "",
          "type": "bool"
        }
      ],
      "stateMutability": "view",
      "type": "function"
    },
    {
      "inputs": [
        {
          "components": [
            {
              "internalType": "address",
              "name": "_projectAddr",
              "type": "address"
            },
            {
              "internalType": "uint256",
              "name": "_projectId",
              "type": "uint256"
            },
            {
              "internalType": "uint24",
              "name": "_maxSupply",
              "type": "uint24"
            },
            {
              "internalType": "uint24",
              "name": "_limit",
              "type": "uint24"
            },
            {
              "internalType": "uint24",
              "name": "_index",
              "type": "uint24"
            },
            {
              "internalType": "uint24",
              "name": "_indexReserve",
              "type": "uint24"
            },
            {
              "internalType": "string",
              "name": "_creator",
              "type": "string"
            },
            {
              "internalType": "address",
              "name": "_creatorAddr",
              "type": "address"
            },
            {
              "internalType": "uint256",
              "name": "_mintPrice",
              "type": "uint256"
            },
            {
              "internalType": "address",
              "name": "_mintPriceAddr",
              "type": "address"
            },
            {
              "internalType": "string",
              "name": "_name",
              "type": "string"
            },
            {
              "components": [
                {
                  "internalType": "uint256",
                  "name": "_initBlockTime",
                  "type": "uint256"
                },
                {
                  "internalType": "uint256",
                  "name": "_openingTime",
                  "type": "uint256"
                }
              ],
              "internalType": "struct NFTProject.ProjectMintingSchedule",
              "name": "_mintingSchedule",
              "type": "tuple"
            }
          ],
          "internalType": "struct NFTProject.ProjectMinting",
          "name": "project",
          "type": "tuple"
        },
        {
          "internalType": "address",
          "name": "admin",
          "type": "address"
        },
        {
          "internalType": "address",
          "name": "paramsAddr",
          "type": "address"
        },
        {
          "internalType": "address",
          "name": "randomizer",
          "type": "address"
        },
        {
          "internalType": "address",
          "name": "projectDataContextAddr",
          "type": "address"
        },
        {
          "internalType": "address[]",
          "name": "reserves",
          "type": "address[]"
        },
        {
          "internalType": "bool",
          "name": "disable",
          "type": "bool"
        },
        {
          "internalType": "uint256",
          "name": "royalty",
          "type": "uint256"
        }
      ],
      "name": "init",
      "outputs": [],
      "stateMutability": "nonpayable",
      "type": "function"
    },
    {
      "inputs": [
        {
          "internalType": "address",
          "name": "owner",
          "type": "address"
        },
        {
          "internalType": "address",
          "name": "operator",
          "type": "address"
        }
      ],
      "name": "isApprovedForAll",
      "outputs": [
        {
          "internalType": "bool",
          "name": "",
          "type": "bool"
        }
      ],
      "stateMutability": "view",
      "type": "function"
    },
    {
      "inputs": [],
      "name": "mint",
      "outputs": [
        {
          "internalType": "uint256",
          "name": "tokenId",
          "type": "uint256"
        }
      ],
      "stateMutability": "payable",
      "type": "function"
    },
    {
      "inputs": [],
      "name": "name",
      "outputs": [
        {
          "internalType": "string",
          "name": "",
          "type": "string"
        }
      ],
      "stateMutability": "view",
      "type": "function"
    },
    {
      "inputs": [],
      "name": "owner",
      "outputs": [
        {
          "internalType": "address",
          "name": "",
          "type": "address"
        }
      ],
      "stateMutability": "view",
      "type": "function"
    },
    {
      "inputs": [
        {
          "internalType": "uint256",
          "name": "tokenId",
          "type": "uint256"
        }
      ],
      "name": "ownerOf",
      "outputs": [
        {
          "internalType": "address",
          "name": "",
          "type": "address"
        }
      ],
      "stateMutability": "view",
      "type": "function"
    },
    {
      "inputs": [],
      "name": "paused",
      "outputs": [
        {
          "internalType": "bool",
          "name": "",
          "type": "bool"
        }
      ],
      "stateMutability": "view",
      "type": "function"
    },
    {
      "inputs": [],
      "name": "renounceOwnership",
      "outputs": [],
      "stateMutability": "nonpayable",
      "type": "function"
    },
    {
      "inputs": [],
      "name": "reserveMint",
      "outputs": [
        {
          "internalType": "uint256",
          "name": "tokenId",
          "type": "uint256"
        }
      ],
      "stateMutability": "payable",
      "type": "function"
    },
    {
      "inputs": [
        {
          "internalType": "uint256",
          "name": "_tokenId",
          "type": "uint256"
        },
        {
          "internalType": "uint256",
          "name": "_salePrice",
          "type": "uint256"
        }
      ],
      "name": "royaltyInfo",
      "outputs": [
        {
          "internalType": "address",
          "name": "receiver",
          "type": "address"
        },
        {
          "internalType": "uint256",
          "name": "royaltyAmount",
          "type": "uint256"
        }
      ],
      "stateMutability": "view",
      "type": "function"
    },
    {
      "inputs": [
        {
          "internalType": "address",
          "name": "from",
          "type": "address"
        },
        {
          "internalType": "address",
          "name": "to",
          "type": "address"
        },
        {
          "internalType": "uint256",
          "name": "tokenId",
          "type": "uint256"
        }
      ],
      "name": "safeTransferFrom",
      "outputs": [],
      "stateMutability": "nonpayable",
      "type": "function"
    },
    {
      "inputs": [
        {
          "internalType": "address",
          "name": "from",
          "type": "address"
        },
        {
          "internalType": "address",
          "name": "to",
          "type": "address"
        },
        {
          "internalType": "uint256",
          "name": "tokenId",
          "type": "uint256"
        },
        {
          "internalType": "bytes",
          "name": "data",
          "type": "bytes"
        }
      ],
      "name": "safeTransferFrom",
      "outputs": [],
      "stateMutability": "nonpayable",
      "type": "function"
    },
    {
      "inputs": [
        {
          "internalType": "address",
          "name": "operator",
          "type": "address"
        },
        {
          "internalType": "bool",
          "name": "approved",
          "type": "bool"
        }
      ],
      "name": "setApprovalForAll",
      "outputs": [],
      "stateMutability": "nonpayable",
      "type": "function"
    },
    {
      "inputs": [
        {
          "internalType": "bool",
          "name": "enable",
          "type": "bool"
        }
      ],
      "name": "setStatus",
      "outputs": [],
      "stateMutability": "nonpayable",
      "type": "function"
    },
    {
      "inputs": [
        {
          "internalType": "bytes4",
          "name": "interfaceId",
          "type": "bytes4"
        }
      ],
      "name": "supportsInterface",
      "outputs": [
        {
          "internalType": "bool",
          "name": "",
          "type": "bool"
        }
      ],
      "stateMutability": "view",
      "type": "function"
    },
    {
      "inputs": [],
      "name": "symbol",
      "outputs": [
        {
          "internalType": "string",
          "name": "",
          "type": "string"
        }
      ],
      "stateMutability": "view",
      "type": "function"
    },
    {
      "inputs": [
        {
          "internalType": "uint256",
          "name": "tokenId",
          "type": "uint256"
        }
      ],
      "name": "tokenGenerativeURI",
      "outputs": [
        {
          "internalType": "string",
          "name": "",
          "type": "string"
        }
      ],
      "stateMutability": "view",
      "type": "function"
    },
    {
      "inputs": [
        {
          "internalType": "uint256",
          "name": "tokenId",
          "type": "uint256"
        }
      ],
      "name": "tokenIdToHash",
      "outputs": [
        {
          "internalType": "bytes32",
          "name": "",
          "type": "bytes32"
        }
      ],
      "stateMutability": "view",
      "type": "function"
    },
    {
      "inputs": [
        {
          "internalType": "uint256",
          "name": "tokenId",
          "type": "uint256"
        }
      ],
      "name": "tokenURI",
      "outputs": [
        {
          "internalType": "string",
          "name": "",
          "type": "string"
        }
      ],
      "stateMutability": "view",
      "type": "function"
    },
    {
      "inputs": [
        {
          "internalType": "address",
          "name": "from",
          "type": "address"
        },
        {
          "internalType": "address",
          "name": "to",
          "type": "address"
        },
        {
          "internalType": "uint256",
          "name": "tokenId",
          "type": "uint256"
        }
      ],
      "name": "transferFrom",
      "outputs": [],
      "stateMutability": "nonpayable",
      "type": "function"
    },
    {
      "inputs": [
        {
          "internalType": "address",
          "name": "newOwner",
          "type": "address"
        }
      ],
      "name": "transferOwnership",
      "outputs": [],
      "stateMutability": "nonpayable",
      "type": "function"
    }
  ],
  "bytecode": "0x60806040523480156200001157600080fd5b506040516200415f3803806200415f8339810160408190526200003491620003b0565b733cc6cdda760b79bafa08df41ecfa224f810dceb66001838381818160009080519060200190620000679291906200023d565b5080516200007d9060019060208401906200023d565b50506006805460ff191690555060016007556200009a33620001eb565b50506daaeb6d7670e522a718067333cd4e3b15620001e15780156200012f57604051633e9f1edf60e11b81523060048201526001600160a01b03831660248201526daaeb6d7670e522a718067333cd4e90637d3e3dbe906044015b600060405180830381600087803b1580156200011057600080fd5b505af115801562000125573d6000803e3d6000fd5b50505050620001e1565b6001600160a01b03821615620001805760405163a0af290360e01b81523060048201526001600160a01b03831660248201526daaeb6d7670e522a718067333cd4e9063a0af290390604401620000f5565b604051632210724360e11b81523060048201526daaeb6d7670e522a718067333cd4e90634420e48690602401600060405180830381600087803b158015620001c757600080fd5b505af1158015620001dc573d6000803e3d6000fd5b505050505b5050505062000457565b600880546001600160a01b038381166001600160a01b0319831681179093556040519116919082907f8be0079c531659141344cd1fd0a4f28419497f9722a3daafe3b4186f6b6457e090600090a35050565b8280546200024b906200041a565b90600052602060002090601f0160209004810192826200026f5760008555620002ba565b82601f106200028a57805160ff1916838001178555620002ba565b82800160010185558215620002ba579182015b82811115620002ba5782518255916020019190600101906200029d565b50620002c8929150620002cc565b5090565b5b80821115620002c85760008155600101620002cd565b634e487b7160e01b600052604160045260246000fd5b600082601f8301126200030b57600080fd5b81516001600160401b0380821115620003285762000328620002e3565b604051601f8301601f19908116603f01168101908282118183101715620003535762000353620002e3565b816040528381526020925086838588010111156200037057600080fd5b600091505b8382101562000394578582018301518183018401529082019062000375565b83821115620003a65760008385830101525b9695505050505050565b60008060408385031215620003c457600080fd5b82516001600160401b0380821115620003dc57600080fd5b620003ea86838701620002f9565b935060208501519150808211156200040157600080fd5b506200041085828601620002f9565b9150509250929050565b600181811c908216806200042f57607f821691505b602082108114156200045157634e487b7160e01b600052602260045260246000fd5b50919050565b613cf880620004676000396000f3fe6080604052600436106102305760003560e01c80635c40f6f41161012e578063a22cb465116100ab578063e985e9c51161006f578063e985e9c51461068d578063ef169be2146106d6578063f2fde38b146106f6578063febfd6c314610716578063ffc27c0e1461073657600080fd5b8063a22cb465146105dd578063ac4fb5f4146105fd578063adfc7dae1461062d578063b88d4fde1461064d578063c87b56dd1461066d57600080fd5b8063715018a6116100f2578063715018a614610548578063775bff9f1461055d5780638da5cb5b1461058a5780638f283970146105a857806395d89b41146105c857600080fd5b80635c40f6f41461049a5780635c975abb146104ba578063621a1f74146104d25780636352211e146104f257806370a082311461052857600080fd5b806323b872dd116101bc57806342842e0e1161018057806342842e0e14610410578063452fa3d314610430578063472f1e02146104455780634e69d56014610465578063575b57ea1461047a57600080fd5b806323b872dd146103645780632a55205a1461038457806336a0a6cb146103c35780633b66b00a146103d857806341f43434146103ee57600080fd5b8063095ea7b311610203578063095ea7b3146102e457806310da88c5146103065780631249c58b146103265780631ca9741b1461033c57806321c8d6761461035c57600080fd5b806301bc45c91461023557806301ffc9a71461027257806306fdde03146102a2578063081812fc146102c4575b600080fd5b34801561024157600080fd5b50600a54610255906001600160a01b031681565b6040516001600160a01b0390911681526020015b60405180910390f35b34801561027e57600080fd5b5061029261028d366004613250565b610756565b6040519015158152602001610269565b3480156102ae57600080fd5b506102b76107a8565b60405161026991906132cc565b3480156102d057600080fd5b506102556102df3660046132df565b61083a565b3480156102f057600080fd5b506103046102ff36600461331d565b610861565b005b34801561031257600080fd5b506102b76103213660046132df565b61097c565b61032e610abf565b604051908152602001610269565b34801561034857600080fd5b50610304610357366004613349565b610d0b565b61032e610d9c565b34801561037057600080fd5b5061030461037f366004613366565b6110d6565b34801561039057600080fd5b506103a461039f3660046133a7565b611101565b604080516001600160a01b039093168352602083019190915201610269565b3480156103cf57600080fd5b506102b7611119565b3480156103e457600080fd5b5061032e60105481565b3480156103fa57600080fd5b506102556daaeb6d7670e522a718067333cd4e81565b34801561041c57600080fd5b5061030461042b366004613366565b6111a7565b34801561043c57600080fd5b506102b76111cc565b34801561045157600080fd5b50610304610460366004613349565b6111d9565b34801561047157600080fd5b5061029261126b565b34801561048657600080fd5b50600d54610255906001600160a01b031681565b3480156104a657600080fd5b506103046104b53660046133e2565b61127f565b3480156104c657600080fd5b5060065460ff16610292565b3480156104de57600080fd5b5061032e6104ed3660046132df565b6112e6565b3480156104fe57600080fd5b5061025561050d3660046132df565b6000908152600960205260409020546001600160a01b031690565b34801561053457600080fd5b5061032e610543366004613349565b6113b2565b34801561055457600080fd5b50610304611438565b34801561056957600080fd5b5061057261144c565b6040516102699c9b9a999897969594939291906133ff565b34801561059657600080fd5b50600a546001600160a01b0316610255565b3480156105b457600080fd5b506103046105c3366004613349565b6115ef565b3480156105d457600080fd5b506102b7611681565b3480156105e957600080fd5b506103046105f83660046134bc565b611690565b34801561060957600080fd5b50610292610618366004613349565b601b6020526000908152604090205460ff1681565b34801561063957600080fd5b50600b54610255906001600160a01b031681565b34801561065957600080fd5b506103046106683660046135cc565b61169f565b34801561067957600080fd5b506102b76106883660046132df565b6116cc565b34801561069957600080fd5b506102926106a836600461364c565b6001600160a01b03918216600090815260056020908152604080832093909416825291909152205460ff1690565b3480156106e257600080fd5b506103046106f1366004613785565b6117c6565b34801561070257600080fd5b50610304610711366004613349565b611b5a565b34801561072257600080fd5b50610304610731366004613349565b611bd0565b34801561074257600080fd5b50600c54610255906001600160a01b031681565b60006001600160e01b031982166380ac58cd60e01b148061078757506001600160e01b03198216635b5e139f60e01b145b806107a257506301ffc9a760e01b6001600160e01b03198316145b92915050565b6060600e80546107b79061393f565b80601f01602080910402602001604051908101604052809291908181526020018280546107e39061393f565b80156108305780601f1061080557610100808354040283529160200191610830565b820191906000526020600020905b81548152906001019060200180831161081357829003601f168201915b5050505050905090565b600061084582611c62565b506000908152600460205260409020546001600160a01b031690565b600061086c82611cb2565b9050806001600160a01b0316836001600160a01b031614156108df5760405162461bcd60e51b815260206004820152602160248201527f4552433732313a20617070726f76616c20746f2063757272656e74206f776e656044820152603960f91b60648201526084015b60405180910390fd5b336001600160a01b03821614806108fb57506108fb81336106a8565b61096d5760405162461bcd60e51b815260206004820152603d60248201527f4552433732313a20617070726f76652063616c6c6572206973206e6f7420746f60448201527f6b656e206f776e6572206f7220617070726f76656420666f7220616c6c00000060648201526084016108d6565b6109778383611d12565b505050565b606061098782611d80565b6040518060400160405280600381526020016232303960e81b815250906109c15760405162461bcd60e51b81526004016108d691906132cc565b50600d5460405163188687dd60e21b8152600481018490526001600160a01b0390911690600090309063621a1f7490602401602060405180830381865afa158015610a10573d6000803e3d6000fd5b505050506040513d601f19601f82011682018060405250810190610a34919061397a565b601254604051639413930160e01b8152600481019190915260248101869052604481018290529091506001600160a01b038316906394139301906064015b600060405180830381865afa158015610a8f573d6000803e3d6000fd5b505050506040513d6000823e601f3d908101601f19168201604052610ab79190810190613993565b949350505050565b6000610ac9611d9d565b601a5415610b1057601a5460408051808201909152600381526206460760eb1b6020820152904211610b0e5760405162461bcd60e51b81526004016108d691906132cc565b505b60138054600160301b900462ffffff16906006610b2c83613a20565b82546101009290920a62ffffff818102199093169183160217909155601354630100000081048216600160301b90910490911611159050610b6c57600080fd5b60135462ffffff80821691610b9291600160481b8204811691600160301b900416613a43565b62ffffff161415610c0357601154601254604051631122f8a960e11b815260048101919091526001600160a01b03909116908190632245f15290602401600060405180830381600087803b158015610be957600080fd5b505af1158015610bfd573d6000803e3d6000fd5b50505050505b601354601254600160301b90910462ffffff1690610c2590620f424090613a6a565b610c2f9190613a89565b9050610c3b3382611df7565b600c54604051631da00d8560e01b8152600481018390526001600160a01b03909116906000908290631da00d85906024016020604051808303816000875af1158015610c8b573d6000803e3d6000fd5b505050506040513d601f19601f82011682018060405250810190610caf919061397a565b9050610cbb8382611e11565b610cc3611eda565b60408051338152602081018590527f0f6798a560793a54c3bcfe86a93cde1e73087d944c0ea20544137d4121396885910160405180910390a15050610d086001600755565b90565b600a546001600160a01b031633148015610d2d57506001600160a01b03811615155b6040518060400160405280600381526020016231303160e81b81525090610d675760405162461bcd60e51b81526004016108d691906132cc565b50600c546001600160a01b03828116911614610d9957600c80546001600160a01b0319166001600160a01b0383161790555b50565b6000610da6611d9d565b60138054600160481b900462ffffff16906009610dc283613a20565b82546101009290920a62ffffff8181021990931691831602179091556013548082169250610e019163010000008204811691600160481b900416613a43565b62ffffff161115610e1157600080fd5b60135462ffffff80821691610e3791600160481b8204811691600160301b900416613a43565b62ffffff161415610ea857601154601254604051631122f8a960e11b815260048101919091526001600160a01b03909116908190632245f15290602401600060405180830381600087803b158015610e8e57600080fd5b505af1158015610ea2573d6000803e3d6000fd5b50505050505b601154336000908152601b60205260409020546001600160a01b039091169060ff1680610f5257506012546040516331a9108f60e11b815260048101919091526001600160a01b03821690636352211e90602401602060405180830381865afa158015610f19573d6000803e3d6000fd5b505050506040513d601f19601f82011682018060405250810190610f3d9190613aa1565b6001600160a01b0316336001600160a01b0316145b610f5b57600080fd5b336000908152601b602052604090205460ff168015610f7b5750601a5415155b15610fbf57601a5460408051808201909152600381526206460760eb1b6020820152904211610fbd5760405162461bcd60e51b81526004016108d691906132cc565b505b601354610fe19062ffffff63010000008204811691600160481b900416613a43565b62ffffff16620f4240601160010154610ffa9190613a6a565b6110049190613a89565b91506110103383611df7565b600c54604051631da00d8560e01b8152600481018490526001600160a01b03909116906000908290631da00d85906024016020604051808303816000875af1158015611060573d6000803e3d6000fd5b505050506040513d601f19601f82011682018060405250810190611084919061397a565b90506110908482611e11565b60408051338152602081018690527f0f6798a560793a54c3bcfe86a93cde1e73087d944c0ea20544137d4121396885910160405180910390a1505050610d086001600755565b826001600160a01b03811633146110f0576110f0336124bf565b6110fb848484612578565b50505050565b60008061110e84846125a9565b915091509250929050565b600f80546111269061393f565b80601f01602080910402602001604051908101604052809291908181526020018280546111529061393f565b801561119f5780601f106111745761010080835404028352916020019161119f565b820191906000526020600020905b81548152906001019060200180831161118257829003601f168201915b505050505081565b826001600160a01b03811633146111c1576111c1336124bf565b6110fb8484846125c1565b600e80546111269061393f565b600a546001600160a01b0316331480156111fb57506001600160a01b03811615155b6040518060400160405280600381526020016231303160e81b815250906112355760405162461bcd60e51b81526004016108d691906132cc565b50600d546001600160a01b03828116911614610d9957600d80546001600160a01b0383166001600160a01b031990911617905550565b600061127960065460ff1690565b15905090565b600a546001600160a01b03163314806112a257506011546001600160a01b031633145b6040518060400160405280600381526020016231303160e81b815250906112dc5760405162461bcd60e51b81526004016108d691906132cc565b50610d99816125dc565b60006112f182611d80565b6040518060400160405280600381526020016232303960e81b8152509061132b5760405162461bcd60e51b81526004016108d691906132cc565b50600082815260096020526040902054600160a01b900460a01b6001600160a01b03191661135b57506000919050565b60008281526009602090815260409182902054915161139592600160a01b900460a01b91016001600160a01b031991909116815260200190565b604051602081830303815290604052805190602001209050919050565b60006001600160a01b03821661141c5760405162461bcd60e51b815260206004820152602960248201527f4552433732313a2061646472657373207a65726f206973206e6f7420612076616044820152683634b21037bbb732b960b91b60648201526084016108d6565b506001600160a01b031660009081526003602052604090205490565b6114406125f2565b61144a6000612670565b565b60118054601254601354601480546001600160a01b0390941694929362ffffff8084169463010000008504821694600160301b8104831694600160481b9091049092169290919061149c9061393f565b80601f01602080910402602001604051908101604052809291908181526020018280546114c89061393f565b80156115155780601f106114ea57610100808354040283529160200191611515565b820191906000526020600020905b8154815290600101906020018083116114f857829003601f168201915b5050505060048301546005840154600685015460078601805495966001600160a01b039485169693955093909116929161154e9061393f565b80601f016020809104026020016040519081016040528092919081815260200182805461157a9061393f565b80156115c75780601f1061159c576101008083540402835291602001916115c7565b820191906000526020600020905b8154815290600101906020018083116115aa57829003601f168201915b50506040805180820190915260088601548152600990950154602086015250919291508d9050565b600a546001600160a01b03163314801561161157506001600160a01b03811615155b6040518060400160405280600381526020016231303160e81b8152509061164b5760405162461bcd60e51b81526004016108d691906132cc565b50600a546001600160a01b03828116911614610d9957600a80546001600160a01b0383166001600160a01b031990911617905550565b6060600f80546107b79061393f565b61169b3383836126c2565b5050565b836001600160a01b03811633146116b9576116b9336124bf565b6116c585858585612791565b5050505050565b60606116d782611d80565b6040518060400160405280600381526020016232303960e81b815250906117115760405162461bcd60e51b81526004016108d691906132cc565b50600d5460405163188687dd60e21b8152600481018490526001600160a01b0390911690600090309063621a1f7490602401602060405180830381865afa158015611760573d6000803e3d6000fd5b505050506040513d601f19601f82011682018060405250810190611784919061397a565b6012546040516308dd54e960e31b8152600481019190915260248101869052604481018290529091506001600160a01b038316906346eaa74890606401610a72565b600a5460408051808201909152600381526219181960e91b6020820152906001600160a01b03161561180b5760405162461bcd60e51b81526004016108d691906132cc565b5060408051808201909152600381526203130360ec1b60208201526001600160a01b03881661184d5760405162461bcd60e51b81526004016108d691906132cc565b508751601180546001600160a01b039092166001600160a01b03199092169190911781556020808a015160125560408a01516013805460608d015160808e015160a08f015162ffffff908116600160481b026bffffff00000000000000000019928216600160301b02929092166bffffffffffff0000000000001993821663010000000265ffffffffffff19909516919096161792909217169290921791909117905560c08a015180518b9392611909926014929101906131a1565b5060e08201516004820180546001600160a01b039283166001600160a01b0319918216179091556101008401516005840155610120840151600684018054919093169116179055610140820151805161196c9160078401916020909101906131a1565b50610160919091015180516008830155602090810151600990920191909155600b80546001600160a01b03808a166001600160a01b031992831617909255600a80548b8416908316179055600c8054898416908316179055600d80549288169290911691909117905561014089015160c08a01516040516119ed9301613abe565b604051602081830303815290604052600e9080519060200190611a119291906131a1565b50611aa960016003600e8054611a269061393f565b80601f0160208091040260200160405190810160405280929190818152602001828054611a529061393f565b8015611a9f5780601f10611a7457610100808354040283529160200191611a9f565b820191906000526020600020905b815481529060010190602001808311611a8257829003601f168201915b50505050506127c3565b8051611abd91600f916020909101906131a1565b5060005b8351811015611b26576001601b6000868481518110611ae257611ae2613afd565b6020908102919091018101516001600160a01b03168252810191909152604001600020805460ff191691151591909117905580611b1e81613b13565b915050611ac1565b50600a54611b3c906001600160a01b0316611b5a565b8115611b4a57611b4a6128aa565b4260195560105550505050505050565b611b626125f2565b6001600160a01b038116611bc75760405162461bcd60e51b815260206004820152602660248201527f4f776e61626c653a206e6577206f776e657220697320746865207a65726f206160448201526564647265737360d01b60648201526084016108d6565b610d9981612670565b600a546001600160a01b031633148015611bf257506001600160a01b03811615155b6040518060400160405280600381526020016231303160e81b81525090611c2c5760405162461bcd60e51b81526004016108d691906132cc565b50600b546001600160a01b03828116911614610d9957600b80546001600160a01b0383166001600160a01b031990911617905550565b611c6b81611d80565b610d995760405162461bcd60e51b8152602060048201526018602482015277115490cdcc8c4e881a5b9d985b1a59081d1bdad95b88125160421b60448201526064016108d6565b6000818152600260205260408120546001600160a01b0316806107a25760405162461bcd60e51b8152602060048201526018602482015277115490cdcc8c4e881a5b9d985b1a59081d1bdad95b88125160421b60448201526064016108d6565b600081815260046020526040902080546001600160a01b0319166001600160a01b0384169081179091558190611d4782611cb2565b6001600160a01b03167f8c5be1e5ebec7d5bd14f71427d1e84f3dd0314c0f7b2291e5b200ac8c7c3b92560405160405180910390a45050565b6000908152600960205260409020546001600160a01b0316151590565b60026007541415611df05760405162461bcd60e51b815260206004820152601f60248201527f5265656e7472616e637947756172643a207265656e7472616e742063616c6c0060448201526064016108d6565b6002600755565b61169b828260405180602001604052806000815250612904565b600082815260096020908152604091829020548251808401909352600383526219181b60e91b91830191909152600160a01b900460a01b6001600160a01b03191615611e705760405162461bcd60e51b81526004016108d691906132cc565b5060408051808201909152600381526232303760e81b602082015281611ea95760405162461bcd60e51b81526004016108d691906132cc565b50600091825260096020526040909120805460a09290921c600160a01b026001600160a01b03909216919091179055565b60165480611ee55750565b601154600b54604080518082018252601b81527f44454641554c545f524f59414c54595f46494e5f50455243454e54000000000060208201529051636d12dce160e01b81526001600160a01b0393841693909216916000918391636d12dce191611f51916004016132cc565b602060405180830381865afa158015611f6e573d6000803e3d6000fd5b505050506040513d601f19601f82011682018060405250810190611f92919061397a565b600a54600b549192506001600160a01b039081169116156120fe5760408051808201825260158152744d494e545f4e46545f4f50455241544f525f46454560581b60208201529051636d12dce160e01b81526001600160a01b03851691636d12dce19161200291906004016132cc565b602060405180830381865afa15801561201f573d6000803e3d6000fd5b505050506040513d601f19601f82011682018060405250810190612043919061397a565b604080518082018252601f81527f4d494e545f4e46545f4f50455241544f525f54524541535552455f41444452006020820152905163bf40fac160e01b81529193506000916001600160a01b0386169163bf40fac1916120a691906004016132cc565b602060405180830381865afa1580156120c3573d6000803e3d6000fd5b505050506040513d601f19601f820116820180604052508101906120e79190613aa1565b90506001600160a01b038116156120fc578091505b505b6017546001600160a01b03168061227e578534101561211c57600080fd5b6012546040516331a9108f60e11b81526000916001600160a01b03881691636352211e916121509160040190815260200190565b602060405180830381865afa15801561216d573d6000803e3d6000fd5b505050506040513d601f19601f820116820180604052508101906121919190613aa1565b6001600160a01b03166127106121a7868a613a6a565b6121b19190613b2e565b6121bb9089613b50565b604051600081818185875af1925050503d80600081146121f7576040519150601f19603f3d011682016040523d82523d6000602084013e6121fc565b606091505b505090508061220a57600080fd5b8315612278576001600160a01b038316612710612227868a613a6a565b6122319190613b2e565b604051600081818185875af1925050503d806000811461226d576040519150601f19603f3d011682016040523d82523d6000602084013e612272565b606091505b50909150505b506124b7565b6040516323b872dd60e01b81523360048201523060248201526044810187905281906001600160a01b038216906323b872dd906064016020604051808303816000875af11580156122d3573d6000803e3d6000fd5b505050506040513d601f19601f820116820180604052508101906122f79190613b67565b61230057600080fd5b6012546040516331a9108f60e11b815260048101919091526001600160a01b038281169163a9059cbb91891690636352211e90602401602060405180830381865afa158015612353573d6000803e3d6000fd5b505050506040513d601f19601f820116820180604052508101906123779190613aa1565b612710612384888c613a6a565b61238e9190613b2e565b612398908b613b50565b6040516001600160e01b031960e085901b1681526001600160a01b03909216600483015260248201526044016020604051808303816000875af11580156123e3573d6000803e3d6000fd5b505050506040513d601f19601f820116820180604052508101906124079190613b67565b61241057600080fd5b83156124b5576001600160a01b03811663a9059cbb84612710612433888c613a6a565b61243d9190613b2e565b6040516001600160e01b031960e085901b1681526001600160a01b03909216600483015260248201526044016020604051808303816000875af1158015612488573d6000803e3d6000fd5b505050506040513d601f19601f820116820180604052508101906124ac9190613b67565b6124b557600080fd5b505b505050505050565b6daaeb6d7670e522a718067333cd4e3b15610d9957604051633185c44d60e21b81523060048201526001600160a01b03821660248201526daaeb6d7670e522a718067333cd4e9063c617113490604401602060405180830381865afa15801561252c573d6000803e3d6000fd5b505050506040513d601f19601f820116820180604052508101906125509190613b67565b610d9957604051633b79c77360e21b81526001600160a01b03821660048201526024016108d6565b6125823382612937565b61259e5760405162461bcd60e51b81526004016108d690613b84565b6109778383836129b5565b6000806125b684846129ef565b909590945092505050565b6109778383836040518060200160405280600081525061169f565b80156125ea57610d99612b89565b610d996128aa565b33612605600a546001600160a01b031690565b6001600160a01b0316148061262457506011546001600160a01b031633145b61144a5760405162461bcd60e51b815260206004820181905260248201527f4f776e61626c653a2063616c6c6572206973206e6f7420746865206f776e657260448201526064016108d6565b600880546001600160a01b038381166001600160a01b0319831681179093556040519116919082907f8be0079c531659141344cd1fd0a4f28419497f9722a3daafe3b4186f6b6457e090600090a35050565b816001600160a01b0316836001600160a01b031614156127245760405162461bcd60e51b815260206004820152601960248201527f4552433732313a20617070726f766520746f2063616c6c65720000000000000060448201526064016108d6565b6001600160a01b03838116600081815260056020908152604080832094871680845294825291829020805460ff191686151590811790915591519182527f17307eab39ab6107e8899845ad3d59bd9653f200f220920489ca2b5937696c31910160405180910390a3505050565b61279b3383612937565b6127b75760405162461bcd60e51b81526004016108d690613b84565b6110fb84848484612bc2565b606060006127d18585613b50565b6127dc906001613a89565b67ffffffffffffffff8111156127f4576127f46134f5565b6040519080825280601f01601f19166020018201604052801561281e576020820181803683370190505b50905060005b61282e8686613b50565b81116128a1578360016128418884613a89565b61284b9190613b50565b8151811061285b5761285b613afd565b602001015160f81c60f81b82828151811061287857612878613afd565b60200101906001600160f81b031916908160001a9053508061289981613b13565b915050612824565b50949350505050565b6128b2612bf5565b6006805460ff191660011790557f62e78cea01bee320cd4e420270b5ea74000d11b0c9f74754ebdbfc544b05a2586128e73390565b6040516001600160a01b03909116815260200160405180910390a1565b61290e8383612c3b565b61291b6000848484612c73565b6109775760405162461bcd60e51b81526004016108d690613bd1565b60008061294383611cb2565b9050806001600160a01b0316846001600160a01b0316148061298a57506001600160a01b0380821660009081526005602090815260408083209388168352929052205460ff165b80610ab75750836001600160a01b03166129a38461083a565b6001600160a01b031614949350505050565b6129c0838383612d71565b600090815260096020526040902080546001600160a01b0319166001600160a01b039290921691909117905550565b600a54601054600b546001600160a01b0392831692600092911615612b6857600b546040805180820182526013815272524f59414c54595f46494e5f4144445245535360681b6020820152905163bf40fac160e01b81526001600160a01b0390921691600091839163bf40fac191612a69916004016132cc565b602060405180830381865afa158015612a86573d6000803e3d6000fd5b505050506040513d601f19601f82011682018060405250810190612aaa9190613aa1565b90506001600160a01b03811615612abf578094505b82612b6557604080518082018252601b81527f44454641554c545f524f59414c54595f46494e5f50455243454e54000000000060208201529051636d12dce160e01b81526001600160a01b03841691636d12dce191612b2191906004016132cc565b602060405180830381865afa158015612b3e573d6000803e3d6000fd5b505050506040513d601f19601f82011682018060405250810190612b62919061397a565b92505b50505b612710612b758286613a6a565b612b7f9190613b2e565b9150509250929050565b612b91612ee2565b6006805460ff191690557f5db9ee0a495bf2e6ff9c91a7834c1ba4fdd244a5e8aa4e537bd38aeae4b073aa336128e7565b612bcd8484846129b5565b612bd984848484612c73565b6110fb5760405162461bcd60e51b81526004016108d690613bd1565b60065460ff161561144a5760405162461bcd60e51b815260206004820152601060248201526f14185d5cd8589b194e881c185d5cd95960821b60448201526064016108d6565b612c458282612f2b565b600090815260096020526040902080546001600160a01b0319166001600160a01b0392909216919091179055565b60006001600160a01b0384163b15612d6657604051630a85bd0160e11b81526001600160a01b0385169063150b7a0290612cb7903390899088908890600401613c23565b6020604051808303816000875af1925050508015612cf2575060408051601f3d908101601f19168201909252612cef91810190613c60565b60015b612d4c573d808015612d20576040519150601f19603f3d011682016040523d82523d6000602084013e612d25565b606091505b508051612d445760405162461bcd60e51b81526004016108d690613bd1565b805181602001fd5b6001600160e01b031916630a85bd0160e11b149050610ab7565b506001949350505050565b826001600160a01b0316612d8482611cb2565b6001600160a01b031614612daa5760405162461bcd60e51b81526004016108d690613c7d565b6001600160a01b038216612e0c5760405162461bcd60e51b8152602060048201526024808201527f4552433732313a207472616e7366657220746f20746865207a65726f206164646044820152637265737360e01b60648201526084016108d6565b612e1983838360016130a6565b826001600160a01b0316612e2c82611cb2565b6001600160a01b031614612e525760405162461bcd60e51b81526004016108d690613c7d565b600081815260046020908152604080832080546001600160a01b03199081169091556001600160a01b0387811680865260038552838620805460001901905590871680865283862080546001019055868652600290945282852080549092168417909155905184937fddf252ad1be2c89b69c2b068fc378daa952ba7f163c4a11628f55a4df523b3ef91a4505050565b60065460ff1661144a5760405162461bcd60e51b815260206004820152601460248201527314185d5cd8589b194e881b9bdd081c185d5cd95960621b60448201526064016108d6565b6001600160a01b038216612f815760405162461bcd60e51b815260206004820181905260248201527f4552433732313a206d696e7420746f20746865207a65726f206164647265737360448201526064016108d6565b612f8a81611d80565b15612fd75760405162461bcd60e51b815260206004820152601c60248201527f4552433732313a20746f6b656e20616c7265616479206d696e7465640000000060448201526064016108d6565b612fe56000838360016130a6565b612fee81611d80565b1561303b5760405162461bcd60e51b815260206004820152601c60248201527f4552433732313a20746f6b656e20616c7265616479206d696e7465640000000060448201526064016108d6565b6001600160a01b038216600081815260036020908152604080832080546001019055848352600290915280822080546001600160a01b0319168417905551839291907fddf252ad1be2c89b69c2b068fc378daa952ba7f163c4a11628f55a4df523b3ef908290a45050565b6130b284848484613119565b60065460ff16156110fb5760405162461bcd60e51b815260206004820152602b60248201527f4552433732315061757361626c653a20746f6b656e207472616e73666572207760448201526a1a1a5b19481c185d5cd95960aa1b60648201526084016108d6565b60018111156110fb576001600160a01b0384161561315f576001600160a01b03841660009081526003602052604081208054839290613159908490613b50565b90915550505b6001600160a01b038316156110fb576001600160a01b03831660009081526003602052604081208054839290613196908490613a89565b909155505050505050565b8280546131ad9061393f565b90600052602060002090601f0160209004810192826131cf5760008555613215565b82601f106131e857805160ff1916838001178555613215565b82800160010185558215613215579182015b828111156132155782518255916020019190600101906131fa565b50613221929150613225565b5090565b5b808211156132215760008155600101613226565b6001600160e01b031981168114610d9957600080fd5b60006020828403121561326257600080fd5b813561326d8161323a565b9392505050565b60005b8381101561328f578181015183820152602001613277565b838111156110fb5750506000910152565b600081518084526132b8816020860160208601613274565b601f01601f19169290920160200192915050565b60208152600061326d60208301846132a0565b6000602082840312156132f157600080fd5b5035919050565b6001600160a01b0381168114610d9957600080fd5b8035613318816132f8565b919050565b6000806040838503121561333057600080fd5b823561333b816132f8565b946020939093013593505050565b60006020828403121561335b57600080fd5b813561326d816132f8565b60008060006060848603121561337b57600080fd5b8335613386816132f8565b92506020840135613396816132f8565b929592945050506040919091013590565b600080604083850312156133ba57600080fd5b50508035926020909101359150565b8015158114610d9957600080fd5b8035613318816133c9565b6000602082840312156133f457600080fd5b813561326d816133c9565b6001600160a01b038d168152602081018c905262ffffff8b811660408301528a811660608301528981166080830152881660a08201526101a060c0820181905260009061344e8382018a6132a0565b6001600160a01b03891660e085015290508661010084015261347c6101208401876001600160a01b03169052565b82810361014084015261348f81866132a0565b8451610160850152602085015161018085015291506134ab9050565b9d9c50505050505050505050505050565b600080604083850312156134cf57600080fd5b82356134da816132f8565b915060208301356134ea816133c9565b809150509250929050565b634e487b7160e01b600052604160045260246000fd5b604051610180810167ffffffffffffffff8111828210171561352f5761352f6134f5565b60405290565b604051601f8201601f1916810167ffffffffffffffff8111828210171561355e5761355e6134f5565b604052919050565b600067ffffffffffffffff821115613580576135806134f5565b50601f01601f191660200190565b60006135a161359c84613566565b613535565b90508281528383830111156135b557600080fd5b828260208301376000602084830101529392505050565b600080600080608085870312156135e257600080fd5b84356135ed816132f8565b935060208501356135fd816132f8565b925060408501359150606085013567ffffffffffffffff81111561362057600080fd5b8501601f8101871361363157600080fd5b6136408782356020840161358e565b91505092959194509250565b6000806040838503121561365f57600080fd5b823561366a816132f8565b915060208301356134ea816132f8565b803562ffffff8116811461331857600080fd5b600082601f83011261369e57600080fd5b61326d8383356020850161358e565b6000604082840312156136bf57600080fd5b6040516040810181811067ffffffffffffffff821117156136e2576136e26134f5565b604052823581526020928301359281019290925250919050565b600082601f83011261370d57600080fd5b8135602067ffffffffffffffff821115613729576137296134f5565b8160051b613738828201613535565b928352848101820192828101908785111561375257600080fd5b83870192505b8483101561377a57823561376b816132f8565b82529183019190830190613758565b979650505050505050565b600080600080600080600080610100808a8c0312156137a357600080fd5b893567ffffffffffffffff808211156137bb57600080fd5b908b01906101a0828e0312156137d057600080fd5b6137d861350b565b6137e18361330d565b8152602083013560208201526137f96040840161367a565b604082015261380a6060840161367a565b606082015261381b6080840161367a565b608082015261382c60a0840161367a565b60a082015260c08301358281111561384357600080fd5b61384f8f82860161368d565b60c08301525061386160e0840161330d565b60e08201528383013584820152610120935061387e84840161330d565b848201526101409350838301358281111561389857600080fd5b6138a48f82860161368d565b858301525061016093506138ba8e8585016136ad565b818501529a506138cc60208d0161330d565b99506138da60408d0161330d565b98506138e860608d0161330d565b97506138f660808d0161330d565b965060a08c013592508083111561390c57600080fd5b505061391a8b828c016136fc565b93505061392960c08a016133d7565b915060e089013590509295985092959890939650565b600181811c9082168061395357607f821691505b6020821081141561397457634e487b7160e01b600052602260045260246000fd5b50919050565b60006020828403121561398c57600080fd5b5051919050565b6000602082840312156139a557600080fd5b815167ffffffffffffffff8111156139bc57600080fd5b8201601f810184136139cd57600080fd5b80516139db61359c82613566565b8181528560208385010111156139f057600080fd5b613a01826020830160208601613274565b95945050505050565b634e487b7160e01b600052601160045260246000fd5b600062ffffff80831681811415613a3957613a39613a0a565b6001019392505050565b600062ffffff808316818516808303821115613a6157613a61613a0a565b01949350505050565b6000816000190483118215151615613a8457613a84613a0a565b500290565b60008219821115613a9c57613a9c613a0a565b500190565b600060208284031215613ab357600080fd5b815161326d816132f8565b60008351613ad0818460208801613274565b63010313c960e51b9083019081528351613af1816004840160208801613274565b01600401949350505050565b634e487b7160e01b600052603260045260246000fd5b6000600019821415613b2757613b27613a0a565b5060010190565b600082613b4b57634e487b7160e01b600052601260045260246000fd5b500490565b600082821015613b6257613b62613a0a565b500390565b600060208284031215613b7957600080fd5b815161326d816133c9565b6020808252602d908201527f4552433732313a2063616c6c6572206973206e6f7420746f6b656e206f776e6560408201526c1c881bdc88185c1c1c9bdd9959609a1b606082015260800190565b60208082526032908201527f4552433732313a207472616e7366657220746f206e6f6e20455243373231526560408201527131b2b4bb32b91034b6b83632b6b2b73a32b960711b606082015260800190565b6001600160a01b0385811682528416602082015260408101839052608060608201819052600090613c56908301846132a0565b9695505050505050565b600060208284031215613c7257600080fd5b815161326d8161323a565b60208082526025908201527f4552433732313a207472616e736665722066726f6d20696e636f72726563742060408201526437bbb732b960d91b60608201526080019056fea264697066735822122011fe5919102a87f91ac88c45b825cc92a4063feed826c9da38eb8eaf2e251b3964736f6c634300080c0033",
  "linkReferences": {},
  "deployedLinkReferences": {}
}