{
  "_format": "hh-sol-artifact-1",
  "contractName": "GenerativeNFT",
  "sourceName": "contracts/nfts/GenerativeNFT.sol",
  "abi": [
    {
      "inputs": [
        {
          "internalType": "string",
          "name": "name",
          "type": "string"
        },
        {
          "internalType": "string",
          "name": "symbol",
          "type": "string"
        }
      ],
      "stateMutability": "nonpayable",
      "type": "constructor"
    },
    {
      "inputs": [
        {
          "internalType": "address",
          "name": "operator",
          "type": "address"
        }
      ],
      "name": "OperatorNotAllowed",
      "type": "error"
    },
    {
      "anonymous": false,
      "inputs": [
        {
          "indexed": true,
          "internalType": "address",
          "name": "owner",
          "type": "address"
        },
        {
          "indexed": true,
          "internalType": "address",
          "name": "approved",
          "type": "address"
        },
        {
          "indexed": true,
          "internalType": "uint256",
          "name": "tokenId",
          "type": "uint256"
        }
      ],
      "name": "Approval",
      "type": "event"
    },
    {
      "anonymous": false,
      "inputs": [
        {
          "indexed": true,
          "internalType": "address",
          "name": "owner",
          "type": "address"
        },
        {
          "indexed": true,
          "internalType": "address",
          "name": "operator",
          "type": "address"
        },
        {
          "indexed": false,
          "internalType": "bool",
          "name": "approved",
          "type": "bool"
        }
      ],
      "name": "ApprovalForAll",
      "type": "event"
    },
    {
      "anonymous": false,
      "inputs": [
        {
          "indexed": true,
          "internalType": "address",
          "name": "previousOwner",
          "type": "address"
        },
        {
          "indexed": true,
          "internalType": "address",
          "name": "newOwner",
          "type": "address"
        }
      ],
      "name": "OwnershipTransferred",
      "type": "event"
    },
    {
      "anonymous": false,
      "inputs": [
        {
          "indexed": false,
          "internalType": "address",
          "name": "account",
          "type": "address"
        }
      ],
      "name": "Paused",
      "type": "event"
    },
    {
      "anonymous": false,
      "inputs": [
        {
          "indexed": true,
          "internalType": "address",
          "name": "from",
          "type": "address"
        },
        {
          "indexed": true,
          "internalType": "address",
          "name": "to",
          "type": "address"
        },
        {
          "indexed": true,
          "internalType": "uint256",
          "name": "tokenId",
          "type": "uint256"
        }
      ],
      "name": "Transfer",
      "type": "event"
    },
    {
      "anonymous": false,
      "inputs": [
        {
          "indexed": false,
          "internalType": "address",
          "name": "account",
          "type": "address"
        }
      ],
      "name": "Unpaused",
      "type": "event"
    },
    {
      "inputs": [],
      "name": "OPERATOR_FILTER_REGISTRY",
      "outputs": [
        {
          "internalType": "contract IOperatorFilterRegistry",
          "name": "",
          "type": "address"
        }
      ],
      "stateMutability": "view",
      "type": "function"
    },
    {
      "inputs": [],
      "name": "_admin",
      "outputs": [
        {
          "internalType": "address",
          "name": "",
          "type": "address"
        }
      ],
      "stateMutability": "view",
      "type": "function"
    },
    {
      "inputs": [],
      "name": "_nameCol",
      "outputs": [
        {
          "internalType": "string",
          "name": "",
          "type": "string"
        }
      ],
      "stateMutability": "view",
      "type": "function"
    },
    {
      "inputs": [],
      "name": "_paramsAddress",
      "outputs": [
        {
          "internalType": "address",
          "name": "",
          "type": "address"
        }
      ],
      "stateMutability": "view",
      "type": "function"
    },
    {
      "inputs": [],
      "name": "_project",
      "outputs": [
        {
          "internalType": "address",
          "name": "_projectAddr",
          "type": "address"
        },
        {
          "internalType": "uint256",
          "name": "_projectId",
          "type": "uint256"
        },
        {
          "internalType": "uint24",
          "name": "_maxSupply",
          "type": "uint24"
        },
        {
          "internalType": "uint24",
          "name": "_limit",
          "type": "uint24"
        },
        {
          "internalType": "uint24",
          "name": "_index",
          "type": "uint24"
        },
        {
          "internalType": "uint24",
          "name": "_indexReserve",
          "type": "uint24"
        },
        {
          "internalType": "string",
          "name": "_creator",
          "type": "string"
        },
        {
          "internalType": "uint256",
          "name": "_mintPrice",
          "type": "uint256"
        },
        {
          "internalType": "address",
          "name": "_mintPriceAddr",
          "type": "address"
        },
        {
          "internalType": "string",
          "name": "_name",
          "type": "string"
        },
        {
          "components": [
            {
              "internalType": "uint256",
              "name": "_initBlockTime",
              "type": "uint256"
            },
            {
              "internalType": "uint256",
              "name": "_openingTime",
              "type": "uint256"
            }
          ],
          "internalType": "struct NFTProject.ProjectMintingSchedule",
          "name": "_mintingSchedule",
          "type": "tuple"
        },
        {
          "internalType": "uint256",
          "name": "_royalty",
          "type": "uint256"
        }
      ],
      "stateMutability": "view",
      "type": "function"
    },
    {
      "inputs": [],
      "name": "_projectDataContextAddr",
      "outputs": [
        {
          "internalType": "address",
          "name": "",
          "type": "address"
        }
      ],
      "stateMutability": "view",
      "type": "function"
    },
    {
      "inputs": [],
      "name": "_randomizer",
      "outputs": [
        {
          "internalType": "address",
          "name": "",
          "type": "address"
        }
      ],
      "stateMutability": "view",
      "type": "function"
    },
    {
      "inputs": [],
      "name": "_royalty",
      "outputs": [
        {
          "internalType": "uint256",
          "name": "",
          "type": "uint256"
        }
      ],
      "stateMutability": "view",
      "type": "function"
    },
    {
      "inputs": [
        {
          "internalType": "address",
          "name": "to",
          "type": "address"
        },
        {
          "internalType": "uint256",
          "name": "tokenId",
          "type": "uint256"
        }
      ],
      "name": "approve",
      "outputs": [],
      "stateMutability": "nonpayable",
      "type": "function"
    },
    {
      "inputs": [
        {
          "internalType": "address",
          "name": "owner",
          "type": "address"
        }
      ],
      "name": "balanceOf",
      "outputs": [
        {
          "internalType": "uint256",
          "name": "",
          "type": "uint256"
        }
      ],
      "stateMutability": "view",
      "type": "function"
    },
    {
      "inputs": [
        {
          "internalType": "address",
          "name": "newAdm",
          "type": "address"
        }
      ],
      "name": "changeAdmin",
      "outputs": [],
      "stateMutability": "nonpayable",
      "type": "function"
    },
    {
      "inputs": [
        {
          "internalType": "address",
          "name": "newAddr",
          "type": "address"
        }
      ],
      "name": "changeDataContextAddr",
      "outputs": [],
      "stateMutability": "nonpayable",
      "type": "function"
    },
    {
      "inputs": [
        {
          "internalType": "address",
          "name": "newAddr",
          "type": "address"
        }
      ],
      "name": "changeParamAddr",
      "outputs": [],
      "stateMutability": "nonpayable",
      "type": "function"
    },
    {
      "inputs": [
        {
          "internalType": "address",
          "name": "newAddr",
          "type": "address"
        }
      ],
      "name": "changeRandomizerAddr",
      "outputs": [],
      "stateMutability": "nonpayable",
      "type": "function"
    },
    {
      "inputs": [
        {
          "internalType": "uint256",
          "name": "tokenId",
          "type": "uint256"
        }
      ],
      "name": "getApproved",
      "outputs": [
        {
          "internalType": "address",
          "name": "",
          "type": "address"
        }
      ],
      "stateMutability": "view",
      "type": "function"
    },
    {
      "inputs": [],
      "name": "getStatus",
      "outputs": [
        {
          "internalType": "bool",
          "name": "",
          "type": "bool"
        }
      ],
      "stateMutability": "view",
      "type": "function"
    },
    {
      "inputs": [
        {
          "components": [
            {
              "internalType": "address",
              "name": "_projectAddr",
              "type": "address"
            },
            {
              "internalType": "uint256",
              "name": "_projectId",
              "type": "uint256"
            },
            {
              "internalType": "uint24",
              "name": "_maxSupply",
              "type": "uint24"
            },
            {
              "internalType": "uint24",
              "name": "_limit",
              "type": "uint24"
            },
            {
              "internalType": "uint24",
              "name": "_index",
              "type": "uint24"
            },
            {
              "internalType": "uint24",
              "name": "_indexReserve",
              "type": "uint24"
            },
            {
              "internalType": "string",
              "name": "_creator",
              "type": "string"
            },
            {
              "internalType": "uint256",
              "name": "_mintPrice",
              "type": "uint256"
            },
            {
              "internalType": "address",
              "name": "_mintPriceAddr",
              "type": "address"
            },
            {
              "internalType": "string",
              "name": "_name",
              "type": "string"
            },
            {
              "components": [
                {
                  "internalType": "uint256",
                  "name": "_initBlockTime",
                  "type": "uint256"
                },
                {
                  "internalType": "uint256",
                  "name": "_openingTime",
                  "type": "uint256"
                }
              ],
              "internalType": "struct NFTProject.ProjectMintingSchedule",
              "name": "_mintingSchedule",
              "type": "tuple"
            },
            {
              "internalType": "address[]",
              "name": "_reserves",
              "type": "address[]"
            },
            {
              "internalType": "uint256",
              "name": "_royalty",
              "type": "uint256"
            }
          ],
          "internalType": "struct NFTProject.ProjectMinting",
          "name": "project",
          "type": "tuple"
        },
        {
          "internalType": "address",
          "name": "admin",
          "type": "address"
        },
        {
          "internalType": "address",
          "name": "paramsAddr",
          "type": "address"
        },
        {
          "internalType": "address",
          "name": "randomizer",
          "type": "address"
        },
        {
          "internalType": "address",
          "name": "projectDataContextAddr",
          "type": "address"
        },
        {
          "internalType": "bool",
          "name": "disable",
          "type": "bool"
        }
      ],
      "name": "init",
      "outputs": [],
      "stateMutability": "nonpayable",
      "type": "function"
    },
    {
      "inputs": [
        {
          "internalType": "address",
          "name": "owner",
          "type": "address"
        },
        {
          "internalType": "address",
          "name": "operator",
          "type": "address"
        }
      ],
      "name": "isApprovedForAll",
      "outputs": [
        {
          "internalType": "bool",
          "name": "",
          "type": "bool"
        }
      ],
      "stateMutability": "view",
      "type": "function"
    },
    {
      "inputs": [
        {
          "internalType": "bytes[]",
          "name": "chunks",
          "type": "bytes[]"
        }
      ],
      "name": "mint",
      "outputs": [
        {
          "internalType": "uint256",
          "name": "tokenId",
          "type": "uint256"
        }
      ],
      "stateMutability": "payable",
      "type": "function"
    },
    {
      "inputs": [],
      "name": "name",
      "outputs": [
        {
          "internalType": "string",
          "name": "",
          "type": "string"
        }
      ],
      "stateMutability": "view",
      "type": "function"
    },
    {
      "inputs": [],
      "name": "owner",
      "outputs": [
        {
          "internalType": "address",
          "name": "",
          "type": "address"
        }
      ],
      "stateMutability": "view",
      "type": "function"
    },
    {
      "inputs": [
        {
          "internalType": "uint256",
          "name": "tokenId",
          "type": "uint256"
        }
      ],
      "name": "ownerOf",
      "outputs": [
        {
          "internalType": "address",
          "name": "",
          "type": "address"
        }
      ],
      "stateMutability": "view",
      "type": "function"
    },
    {
      "inputs": [],
      "name": "paused",
      "outputs": [
        {
          "internalType": "bool",
          "name": "",
          "type": "bool"
        }
      ],
      "stateMutability": "view",
      "type": "function"
    },
    {
      "inputs": [],
      "name": "projectAddress",
      "outputs": [
        {
          "internalType": "address",
          "name": "",
          "type": "address"
        }
      ],
      "stateMutability": "view",
      "type": "function"
    },
    {
      "inputs": [],
      "name": "projectIndex",
      "outputs": [
        {
          "internalType": "uint24",
          "name": "",
          "type": "uint24"
        }
      ],
      "stateMutability": "view",
      "type": "function"
    },
    {
      "inputs": [],
      "name": "renounceOwnership",
      "outputs": [],
      "stateMutability": "nonpayable",
      "type": "function"
    },
    {
      "inputs": [
        {
          "internalType": "bytes[]",
          "name": "chunks",
          "type": "bytes[]"
        }
      ],
      "name": "reserveMint",
      "outputs": [
        {
          "internalType": "uint256",
          "name": "tokenId",
          "type": "uint256"
        }
      ],
      "stateMutability": "payable",
      "type": "function"
    },
    {
      "inputs": [
        {
          "internalType": "uint256",
          "name": "_tokenId",
          "type": "uint256"
        },
        {
          "internalType": "uint256",
          "name": "_salePrice",
          "type": "uint256"
        }
      ],
      "name": "royaltyInfo",
      "outputs": [
        {
          "internalType": "address",
          "name": "receiver",
          "type": "address"
        },
        {
          "internalType": "uint256",
          "name": "royaltyAmount",
          "type": "uint256"
        }
      ],
      "stateMutability": "view",
      "type": "function"
    },
    {
      "inputs": [
        {
          "internalType": "address",
          "name": "from",
          "type": "address"
        },
        {
          "internalType": "address",
          "name": "to",
          "type": "address"
        },
        {
          "internalType": "uint256",
          "name": "tokenId",
          "type": "uint256"
        }
      ],
      "name": "safeTransferFrom",
      "outputs": [],
      "stateMutability": "nonpayable",
      "type": "function"
    },
    {
      "inputs": [
        {
          "internalType": "address",
          "name": "from",
          "type": "address"
        },
        {
          "internalType": "address",
          "name": "to",
          "type": "address"
        },
        {
          "internalType": "uint256",
          "name": "tokenId",
          "type": "uint256"
        },
        {
          "internalType": "bytes",
          "name": "data",
          "type": "bytes"
        }
      ],
      "name": "safeTransferFrom",
      "outputs": [],
      "stateMutability": "nonpayable",
      "type": "function"
    },
    {
      "inputs": [
        {
          "internalType": "address",
          "name": "operator",
          "type": "address"
        },
        {
          "internalType": "bool",
          "name": "approved",
          "type": "bool"
        }
      ],
      "name": "setApprovalForAll",
      "outputs": [],
      "stateMutability": "nonpayable",
      "type": "function"
    },
    {
      "inputs": [
        {
          "internalType": "bool",
          "name": "enable",
          "type": "bool"
        }
      ],
      "name": "setStatus",
      "outputs": [],
      "stateMutability": "nonpayable",
      "type": "function"
    },
    {
      "inputs": [
        {
          "internalType": "bytes4",
          "name": "interfaceId",
          "type": "bytes4"
        }
      ],
      "name": "supportsInterface",
      "outputs": [
        {
          "internalType": "bool",
          "name": "",
          "type": "bool"
        }
      ],
      "stateMutability": "view",
      "type": "function"
    },
    {
      "inputs": [],
      "name": "symbol",
      "outputs": [
        {
          "internalType": "string",
          "name": "",
          "type": "string"
        }
      ],
      "stateMutability": "view",
      "type": "function"
    },
    {
      "inputs": [
        {
          "internalType": "uint256",
          "name": "tokenId",
          "type": "uint256"
        }
      ],
      "name": "tokenURI",
      "outputs": [
        {
          "internalType": "string",
          "name": "",
          "type": "string"
        }
      ],
      "stateMutability": "view",
      "type": "function"
    },
    {
      "inputs": [
        {
          "internalType": "address",
          "name": "from",
          "type": "address"
        },
        {
          "internalType": "address",
          "name": "to",
          "type": "address"
        },
        {
          "internalType": "uint256",
          "name": "tokenId",
          "type": "uint256"
        }
      ],
      "name": "transferFrom",
      "outputs": [],
      "stateMutability": "nonpayable",
      "type": "function"
    },
    {
      "inputs": [
        {
          "internalType": "address",
          "name": "newOwner",
          "type": "address"
        }
      ],
      "name": "transferOwnership",
      "outputs": [],
      "stateMutability": "nonpayable",
      "type": "function"
    },
    {
      "inputs": [
        {
          "internalType": "uint256",
          "name": "price",
          "type": "uint256"
        }
      ],
      "name": "updatePrice",
      "outputs": [],
      "stateMutability": "nonpayable",
      "type": "function"
    }
  ],
  "bytecode": "0x60806040523480156200001157600080fd5b50604051620044f0380380620044f08339810160408190526200003491620003b0565b733cc6cdda760b79bafa08df41ecfa224f810dceb66001838381818160009080519060200190620000679291906200023d565b5080516200007d9060019060208401906200023d565b50506006805460ff191690555060016007556200009a33620001eb565b50506daaeb6d7670e522a718067333cd4e3b15620001e15780156200012f57604051633e9f1edf60e11b81523060048201526001600160a01b03831660248201526daaeb6d7670e522a718067333cd4e90637d3e3dbe906044015b600060405180830381600087803b1580156200011057600080fd5b505af115801562000125573d6000803e3d6000fd5b50505050620001e1565b6001600160a01b03821615620001805760405163a0af290360e01b81523060048201526001600160a01b03831660248201526daaeb6d7670e522a718067333cd4e9063a0af290390604401620000f5565b604051632210724360e11b81523060048201526daaeb6d7670e522a718067333cd4e90634420e48690602401600060405180830381600087803b158015620001c757600080fd5b505af1158015620001dc573d6000803e3d6000fd5b505050505b5050505062000457565b600880546001600160a01b038381166001600160a01b0319831681179093556040519116919082907f8be0079c531659141344cd1fd0a4f28419497f9722a3daafe3b4186f6b6457e090600090a35050565b8280546200024b906200041a565b90600052602060002090601f0160209004810192826200026f5760008555620002ba565b82601f106200028a57805160ff1916838001178555620002ba565b82800160010185558215620002ba579182015b82811115620002ba5782518255916020019190600101906200029d565b50620002c8929150620002cc565b5090565b5b80821115620002c85760008155600101620002cd565b634e487b7160e01b600052604160045260246000fd5b600082601f8301126200030b57600080fd5b81516001600160401b0380821115620003285762000328620002e3565b604051601f8301601f19908116603f01168101908282118183101715620003535762000353620002e3565b816040528381526020925086838588010111156200037057600080fd5b600091505b8382101562000394578582018301518183018401529082019062000375565b83821115620003a65760008385830101525b9695505050505050565b60008060408385031215620003c457600080fd5b82516001600160401b0380821115620003dc57600080fd5b620003ea86838701620002f9565b935060208501519150808211156200040157600080fd5b506200041085828601620002f9565b9150509250929050565b600181811c908216806200042f57607f821691505b602082108114156200045157634e487b7160e01b600052602260045260246000fd5b50919050565b61408980620004676000396000f3fe6080604052600436106102255760003560e01c80635c975abb1161012357806395d89b41116100ab578063e985e9c51161006f578063e985e9c514610681578063f2fde38b146106ca578063fc237452146106ea578063febfd6c31461070a578063ffc27c0e1461072a57600080fd5b806395d89b41146105ec578063a22cb46514610601578063adfc7dae14610621578063b88d4fde14610641578063c87b56dd1461066157600080fd5b8063715018a6116100f2578063715018a61461054c578063775bff9f146105615780638d6cc56d1461058e5780638da5cb5b146105ae5780638f283970146105cc57600080fd5b80635c975abb146104ae57806363184726146104c65780636352211e146104f657806370a082311461052c57600080fd5b80632a55205a116101b1578063452fa3d311610175578063452fa3d314610424578063472f1e02146104395780634e69d56014610459578063575b57ea1461046e5780635c40f6f41461048e57600080fd5b80632a55205a1461036f5780633b66b00a146103ae5780633cf96af1146103c457806341f43434146103e257806342842e0e1461040457600080fd5b8063081812fc116101f8578063081812fc146102da578063095ea7b3146102fa57806316c464ae1461031c5780631ca9741b1461032f57806323b872dd1461034f57600080fd5b806301bc45c91461022a57806301ffc9a7146102675780630423bf661461029757806306fdde03146102b8575b600080fd5b34801561023657600080fd5b50600a5461024a906001600160a01b031681565b6040516001600160a01b0390911681526020015b60405180910390f35b34801561027357600080fd5b50610287610282366004613576565b61074a565b604051901515815260200161025e565b6102aa6102a53660046136ad565b610790565b60405190815260200161025e565b3480156102c457600080fd5b506102cd610bda565b60405161025e91906137b6565b3480156102e657600080fd5b5061024a6102f53660046137c9565b610c6c565b34801561030657600080fd5b5061031a610315366004613802565b610c93565b005b6102aa61032a3660046136ad565b610da9565b34801561033b57600080fd5b5061031a61034a36600461382e565b6110f4565b34801561035b57600080fd5b5061031a61036a36600461384b565b611173565b34801561037b57600080fd5b5061038f61038a36600461388c565b61119e565b604080516001600160a01b03909316835260208301919091520161025e565b3480156103ba57600080fd5b506102aa600f5481565b3480156103d057600080fd5b506010546001600160a01b031661024a565b3480156103ee57600080fd5b5061024a6daaeb6d7670e522a718067333cd4e81565b34801561041057600080fd5b5061031a61041f36600461384b565b6111b6565b34801561043057600080fd5b506102cd6111db565b34801561044557600080fd5b5061031a61045436600461382e565b611269565b34801561046557600080fd5b506102876112e8565b34801561047a57600080fd5b50600d5461024a906001600160a01b031681565b34801561049a57600080fd5b5061031a6104a93660046138c7565b6112fc565b3480156104ba57600080fd5b5060065460ff16610287565b3480156104d257600080fd5b50601254600160301b900462ffffff1660405162ffffff909116815260200161025e565b34801561050257600080fd5b5061024a6105113660046137c9565b6000908152600960205260409020546001600160a01b031690565b34801561053857600080fd5b506102aa61054736600461382e565b611366565b34801561055857600080fd5b5061031a6113ec565b34801561056d57600080fd5b50610576611400565b60405161025e9c9b9a999897969594939291906138e4565b34801561059a57600080fd5b5061031a6105a93660046137c9565b61159f565b3480156105ba57600080fd5b50600a546001600160a01b031661024a565b3480156105d857600080fd5b5061031a6105e736600461382e565b611602565b3480156105f857600080fd5b506102cd611681565b34801561060d57600080fd5b5061031a61061c366004613998565b61171f565b34801561062d57600080fd5b50600b5461024a906001600160a01b031681565b34801561064d57600080fd5b5061031a61065c3660046139d1565b61172e565b34801561066d57600080fd5b506102cd61067c3660046137c9565b61175b565b34801561068d57600080fd5b5061028761069c366004613a3d565b6001600160a01b03918216600090815260056020908152604080832093909416825291909152205460ff1690565b3480156106d657600080fd5b5061031a6106e536600461382e565b611854565b3480156106f657600080fd5b5061031a610705366004613b3c565b6118ca565b34801561071657600080fd5b5061031a61072536600461382e565b611ba5565b34801561073657600080fd5b50600c5461024a906001600160a01b031681565b60006001600160e01b031982166302734eab60e51b148061077b57506001600160e01b0319821663152a902d60e11b145b8061078a575061078a82611c24565b92915050565b600061079a611c74565b60128054600160481b900462ffffff169060096107b683613cfa565b82546101009290920a62ffffff81810219909316918316021790915560125480821692506107f59163010000008204811691600160481b900416613d1d565b62ffffff16111561080557600080fd5b60125462ffffff8082169161082b91600160481b8204811691600160301b900416613d1d565b62ffffff16141561089c57601054601154604051631122f8a960e11b815260048101919091526001600160a01b03909116908190632245f15290602401600060405180830381600087803b15801561088257600080fd5b505af1158015610896573d6000803e3d6000fd5b50505050505b601054336000908152601b60205260409020546001600160a01b039091169060ff168061094657506011546040516331a9108f60e11b815260048101919091526001600160a01b03821690636352211e90602401602060405180830381865afa15801561090d573d6000803e3d6000fd5b505050506040513d601f19601f820116820180604052508101906109319190613d44565b6001600160a01b0316336001600160a01b0316145b61094f57600080fd5b336000908152601b602052604090205460ff16801561096f575060185415155b156109bc5760185460408051808201909152600381526206460760eb1b60208201529042116109ba5760405162461bcd60e51b81526004016109b191906137b6565b60405180910390fd5b505b6012546109de9062ffffff63010000008204811691600160481b900416613d1d565b62ffffff16620f42406010600101546109f79190613d61565b610a019190613d80565b9150610a0d3383611cce565b600c54604051631da00d8560e01b8152600481018490526001600160a01b03909116906000908290631da00d85906024016020604051808303816000875af1158015610a5d573d6000803e3d6000fd5b505050506040513d601f19601f82011682018060405250810190610a819190613d98565b9050610a8d8482611ce8565b600b80546040805180820182529283526a4246535f4144445245535360a81b60208401525163bf40fac160e01b81526001600160a01b0390911691600091839163bf40fac191610ae091906004016137b6565b602060405180830381865afa158015610afd573d6000803e3d6000fd5b505050506040513d601f19601f82011682018060405250810190610b219190613d44565b905060005b8751811015610bc557816001600160a01b031663928a4b3e610b4786611db1565b838b8581518110610b5a57610b5a613db1565b60200260200101516040518463ffffffff1660e01b8152600401610b8093929190613dc7565b600060405180830381600087803b158015610b9a57600080fd5b505af1158015610bae573d6000803e3d6000fd5b505050508080610bbd90613dfc565b915050610b26565b505050505050610bd56001600755565b919050565b6060600e8054610be990613e17565b80601f0160208091040260200160405190810160405280929190818152602001828054610c1590613e17565b8015610c625780601f10610c3757610100808354040283529160200191610c62565b820191906000526020600020905b815481529060010190602001808311610c4557829003601f168201915b5050505050905090565b6000610c7782611dfd565b506000908152600460205260409020546001600160a01b031690565b6000610c9e82611e5c565b9050806001600160a01b0316836001600160a01b03161415610d0c5760405162461bcd60e51b815260206004820152602160248201527f4552433732313a20617070726f76616c20746f2063757272656e74206f776e656044820152603960f91b60648201526084016109b1565b336001600160a01b0382161480610d285750610d28813361069c565b610d9a5760405162461bcd60e51b815260206004820152603d60248201527f4552433732313a20617070726f76652063616c6c6572206973206e6f7420746f60448201527f6b656e206f776e6572206f7220617070726f76656420666f7220616c6c00000060648201526084016109b1565b610da48383611ebc565b505050565b6000610db3611c74565b60185415610dfa5760185460408051808201909152600381526206460760eb1b6020820152904211610df85760405162461bcd60e51b81526004016109b191906137b6565b505b60128054600160301b900462ffffff16906006610e1683613cfa565b82546101009290920a62ffffff818102199093169183160217909155601254630100000081048216600160301b90910490911611159050610e5657600080fd5b60125462ffffff80821691610e7c91600160481b8204811691600160301b900416613d1d565b62ffffff161415610eed57601054601154604051631122f8a960e11b815260048101919091526001600160a01b03909116908190632245f15290602401600060405180830381600087803b158015610ed357600080fd5b505af1158015610ee7573d6000803e3d6000fd5b50505050505b601254601154600160301b90910462ffffff1690610f0f90620f424090613d61565b610f199190613d80565b9050610f253382611cce565b600c54604051631da00d8560e01b8152600481018390526001600160a01b03909116906000908290631da00d85906024016020604051808303816000875af1158015610f75573d6000803e3d6000fd5b505050506040513d601f19601f82011682018060405250810190610f999190613d98565b9050610fa58382611ce8565b600b80546040805180820182529283526a4246535f4144445245535360a81b60208401525163bf40fac160e01b81526001600160a01b0390911691600091839163bf40fac191610ff891906004016137b6565b602060405180830381865afa158015611015573d6000803e3d6000fd5b505050506040513d601f19601f820116820180604052508101906110399190613d44565b905060005b86518110156110dd57816001600160a01b031663928a4b3e61105f86611db1565b838a858151811061107257611072613db1565b60200260200101516040518463ffffffff1660e01b815260040161109893929190613dc7565b600060405180830381600087803b1580156110b257600080fd5b505af11580156110c6573d6000803e3d6000fd5b5050505080806110d590613dfc565b91505061103e565b506110e6611f2a565b50505050610bd56001600755565b600a546001600160a01b03163314801561111657506001600160a01b03811615155b6040518060400160405280600381526020016231303160e81b815250906111505760405162461bcd60e51b81526004016109b191906137b6565b50600c80546001600160a01b0319166001600160a01b0392909216919091179055565b826001600160a01b038116331461118d5761118d3361250f565b6111988484846125c8565b50505050565b6000806111ab84846125f9565b915091509250929050565b826001600160a01b03811633146111d0576111d03361250f565b611198848484612793565b600e80546111e890613e17565b80601f016020809104026020016040519081016040528092919081815260200182805461121490613e17565b80156112615780601f1061123657610100808354040283529160200191611261565b820191906000526020600020905b81548152906001019060200180831161124457829003601f168201915b505050505081565b600a546001600160a01b03163314801561128b57506001600160a01b03811615155b6040518060400160405280600381526020016231303160e81b815250906112c55760405162461bcd60e51b81526004016109b191906137b6565b50600d80546001600160a01b0319166001600160a01b0392909216919091179055565b60006112f660065460ff1690565b15905090565b600a546001600160a01b031633148061131f57506010546001600160a01b031633145b6040518060400160405280600381526020016231303160e81b815250906113595760405162461bcd60e51b81526004016109b191906137b6565b50611363816127ae565b50565b60006001600160a01b0382166113d05760405162461bcd60e51b815260206004820152602960248201527f4552433732313a2061646472657373207a65726f206973206e6f7420612076616044820152683634b21037bbb732b960b91b60648201526084016109b1565b506001600160a01b031660009081526003602052604090205490565b6113f46127c4565b6113fe6000612830565b565b60108054601154601254601380546001600160a01b0390941694929362ffffff8084169463010000008504821694600160301b8104831694600160481b9091049092169290919061145090613e17565b80601f016020809104026020016040519081016040528092919081815260200182805461147c90613e17565b80156114c95780601f1061149e576101008083540402835291602001916114c9565b820191906000526020600020905b8154815290600101906020018083116114ac57829003601f168201915b5050505060048301546005840154600685018054949592946001600160a01b039092169350906114f890613e17565b80601f016020809104026020016040519081016040528092919081815260200182805461152490613e17565b80156115715780601f1061154657610100808354040283529160200191611571565b820191906000526020600020905b81548152906001019060200180831161155457829003601f168201915b5050604080518082019091526007860154815260088601546020820152600a9095015493949392508e915050565b600a546001600160a01b03163314806115c257506010546001600160a01b031633145b6040518060400160405280600381526020016231303160e81b815250906115fc5760405162461bcd60e51b81526004016109b191906137b6565b50601455565b600a546001600160a01b03163314801561162457506001600160a01b03811615155b6040518060400160405280600381526020016231303160e81b8152509061165e5760405162461bcd60e51b81526004016109b191906137b6565b50600a80546001600160a01b0319166001600160a01b0392909216919091179055565b606061171a60016003600e805461169790613e17565b80601f01602080910402602001604051908101604052809291908181526020018280546116c390613e17565b80156117105780601f106116e557610100808354040283529160200191611710565b820191906000526020600020905b8154815290600101906020018083116116f357829003601f168201915b5050505050612882565b905090565b61172a338383612969565b5050565b836001600160a01b0381163314611748576117483361250f565b61175485858585612a38565b5050505050565b6000818152600960205260409020546060906001600160a01b031615156040518060400160405280600381526020016232303960e81b815250906117b25760405162461bcd60e51b81526004016109b191906137b6565b50600d546001600160a01b031660006117ca84612a6a565b601154604051639413930160e01b8152600481019190915260248101869052604481018290529091506001600160a01b03831690639413930190606401600060405180830381865afa158015611824573d6000803e3d6000fd5b505050506040513d6000823e601f3d908101601f1916820160405261184c9190810190613e52565b949350505050565b61185c6127c4565b6001600160a01b0381166118c15760405162461bcd60e51b815260206004820152602660248201527f4f776e61626c653a206e6577206f776e657220697320746865207a65726f206160448201526564647265737360d01b60648201526084016109b1565b61136381612830565b600a5460408051808201909152600381526219181960e91b6020820152906001600160a01b03161561190f5760405162461bcd60e51b81526004016109b191906137b6565b5060408051808201909152600381526203130360ec1b60208201526001600160a01b0386166119515760405162461bcd60e51b81526004016109b191906137b6565b508551601080546001600160a01b039092166001600160a01b031990921691909117815560208088015160115560408801516012805460608b015160808c015160a08d015162ffffff908116600160481b026bffffff00000000000000000019928216600160301b02929092166bffffffffffff0000000000001993821663010000000265ffffffffffff19909516919096161792909217169290921791909117905560c08801518051899392611a0d92601392910190613472565b5060e082015160048201556101008201516005820180546001600160a01b0319166001600160a01b039092169190911790556101208201518051611a5b916006840191602090910190613472565b506101408201518051600783015560209081015160088301556101608301518051611a8c92600985019201906134f6565b506101809190910151600a91820155600b80546001600160a01b038088166001600160a01b031992831617909255825488831690821617909255600c8054868316908416179055600d8054918516919092161790556101208601518051611afb91600e91602090910190613472565b5060005b86610160015151811015611b6e576001601b60008961016001518481518110611b2a57611b2a613db1565b6020908102919091018101516001600160a01b03168252810191909152604001600020805460ff191691151591909117905580611b6681613dfc565b915050611aff565b50600a54611b84906001600160a01b0316611854565b8015611b9257611b92612b45565b5050426017555050506101800151600f55565b600a546001600160a01b031633148015611bc757506001600160a01b03811615155b6040518060400160405280600381526020016231303160e81b81525090611c015760405162461bcd60e51b81526004016109b191906137b6565b50600b80546001600160a01b0319166001600160a01b0392909216919091179055565b60006001600160e01b031982166380ac58cd60e01b1480611c5557506001600160e01b03198216635b5e139f60e01b145b8061078a57506301ffc9a760e01b6001600160e01b031983161461078a565b60026007541415611cc75760405162461bcd60e51b815260206004820152601f60248201527f5265656e7472616e637947756172643a207265656e7472616e742063616c6c0060448201526064016109b1565b6002600755565b61172a828260405180602001604052806000815250612b9f565b600082815260096020908152604091829020548251808401909352600383526219181b60e91b91830191909152600160a01b900460a01b6001600160a01b03191615611d475760405162461bcd60e51b81526004016109b191906137b6565b5060408051808201909152600381526232303760e81b602082015281611d805760405162461bcd60e51b81526004016109b191906137b6565b50600091825260096020526040909120805460a09290921c600160a01b026001600160a01b03909216919091179055565b6060611dbc82612bd2565b611dc9608084901b612bd2565b60405161060f60f31b6020820152602281019290925260428201526062016040516020818303038152906040529050919050565b6000818152600960205260409020546001600160a01b03166113635760405162461bcd60e51b8152602060048201526018602482015277115490cdcc8c4e881a5b9d985b1a59081d1bdad95b88125160421b60448201526064016109b1565b6000818152600260205260408120546001600160a01b03168061078a5760405162461bcd60e51b8152602060048201526018602482015277115490cdcc8c4e881a5b9d985b1a59081d1bdad95b88125160421b60448201526064016109b1565b600081815260046020526040902080546001600160a01b0319166001600160a01b0384169081179091558190611ef182611e5c565b6001600160a01b03167f8c5be1e5ebec7d5bd14f71427d1e84f3dd0314c0f7b2291e5b200ac8c7c3b92560405160405180910390a45050565b60145480611f355750565b601054600b54604080518082018252601b81527f44454641554c545f524f59414c54595f46494e5f50455243454e54000000000060208201529051636d12dce160e01b81526001600160a01b0393841693909216916000918391636d12dce191611fa1916004016137b6565b602060405180830381865afa158015611fbe573d6000803e3d6000fd5b505050506040513d601f19601f82011682018060405250810190611fe29190613d98565b600a54600b549192506001600160a01b0390811691161561214e5760408051808201825260158152744d494e545f4e46545f4f50455241544f525f46454560581b60208201529051636d12dce160e01b81526001600160a01b03851691636d12dce19161205291906004016137b6565b602060405180830381865afa15801561206f573d6000803e3d6000fd5b505050506040513d601f19601f820116820180604052508101906120939190613d98565b604080518082018252601f81527f4d494e545f4e46545f4f50455241544f525f54524541535552455f41444452006020820152905163bf40fac160e01b81529193506000916001600160a01b0386169163bf40fac1916120f691906004016137b6565b602060405180830381865afa158015612113573d6000803e3d6000fd5b505050506040513d601f19601f820116820180604052508101906121379190613d44565b90506001600160a01b0381161561214c578091505b505b6015546001600160a01b0316806122ce578534101561216c57600080fd5b6011546040516331a9108f60e11b81526000916001600160a01b03881691636352211e916121a09160040190815260200190565b602060405180830381865afa1580156121bd573d6000803e3d6000fd5b505050506040513d601f19601f820116820180604052508101906121e19190613d44565b6001600160a01b03166127106121f7868a613d61565b6122019190613ec9565b61220b9089613eeb565b604051600081818185875af1925050503d8060008114612247576040519150601f19603f3d011682016040523d82523d6000602084013e61224c565b606091505b505090508061225a57600080fd5b83156122c8576001600160a01b038316612710612277868a613d61565b6122819190613ec9565b604051600081818185875af1925050503d80600081146122bd576040519150601f19603f3d011682016040523d82523d6000602084013e6122c2565b606091505b50909150505b50612507565b6040516323b872dd60e01b81523360048201523060248201526044810187905281906001600160a01b038216906323b872dd906064016020604051808303816000875af1158015612323573d6000803e3d6000fd5b505050506040513d601f19601f820116820180604052508101906123479190613f02565b61235057600080fd5b6011546040516331a9108f60e11b815260048101919091526001600160a01b038281169163a9059cbb91891690636352211e90602401602060405180830381865afa1580156123a3573d6000803e3d6000fd5b505050506040513d601f19601f820116820180604052508101906123c79190613d44565b6127106123d4888c613d61565b6123de9190613ec9565b6123e8908b613eeb565b6040516001600160e01b031960e085901b1681526001600160a01b03909216600483015260248201526044016020604051808303816000875af1158015612433573d6000803e3d6000fd5b505050506040513d601f19601f820116820180604052508101906124579190613f02565b61246057600080fd5b8315612505576001600160a01b03811663a9059cbb84612710612483888c613d61565b61248d9190613ec9565b6040516001600160e01b031960e085901b1681526001600160a01b03909216600483015260248201526044016020604051808303816000875af11580156124d8573d6000803e3d6000fd5b505050506040513d601f19601f820116820180604052508101906124fc9190613f02565b61250557600080fd5b505b505050505050565b6daaeb6d7670e522a718067333cd4e3b1561136357604051633185c44d60e21b81523060048201526001600160a01b03821660248201526daaeb6d7670e522a718067333cd4e9063c617113490604401602060405180830381865afa15801561257c573d6000803e3d6000fd5b505050506040513d601f19601f820116820180604052508101906125a09190613f02565b61136357604051633b79c77360e21b81526001600160a01b03821660048201526024016109b1565b6125d23382612d84565b6125ee5760405162461bcd60e51b81526004016109b190613f1f565b610da4838383612e02565b600a54600f54600b546001600160a01b039283169260009291161561277257600b546040805180820182526013815272524f59414c54595f46494e5f4144445245535360681b6020820152905163bf40fac160e01b81526001600160a01b0390921691600091839163bf40fac191612673916004016137b6565b602060405180830381865afa158015612690573d6000803e3d6000fd5b505050506040513d601f19601f820116820180604052508101906126b49190613d44565b90506001600160a01b038116156126c9578094505b8261276f57604080518082018252601b81527f44454641554c545f524f59414c54595f46494e5f50455243454e54000000000060208201529051636d12dce160e01b81526001600160a01b03841691636d12dce19161272b91906004016137b6565b602060405180830381865afa158015612748573d6000803e3d6000fd5b505050506040513d601f19601f8201168201806040525081019061276c9190613d98565b92505b50505b61271061277f8286613d61565b6127899190613ec9565b9150509250929050565b610da48383836040518060200160405280600081525061172e565b80156127bc57611363612e3c565b611363612b45565b336127d7600a546001600160a01b031690565b6001600160a01b031614806127f657506010546001600160a01b031633145b6040518060400160405280600381526020016203130360ec1b815250906113635760405162461bcd60e51b81526004016109b191906137b6565b600880546001600160a01b038381166001600160a01b0319831681179093556040519116919082907f8be0079c531659141344cd1fd0a4f28419497f9722a3daafe3b4186f6b6457e090600090a35050565b606060006128908585613eeb565b61289b906001613d80565b67ffffffffffffffff8111156128b3576128b361359a565b6040519080825280601f01601f1916602001820160405280156128dd576020820181803683370190505b50905060005b6128ed8686613eeb565b8111612960578360016129008884613d80565b61290a9190613eeb565b8151811061291a5761291a613db1565b602001015160f81c60f81b82828151811061293757612937613db1565b60200101906001600160f81b031916908160001a9053508061295881613dfc565b9150506128e3565b50949350505050565b816001600160a01b0316836001600160a01b031614156129cb5760405162461bcd60e51b815260206004820152601960248201527f4552433732313a20617070726f766520746f2063616c6c65720000000000000060448201526064016109b1565b6001600160a01b03838116600081815260056020908152604080832094871680845294825291829020805460ff191686151590811790915591519182527f17307eab39ab6107e8899845ad3d59bd9653f200f220920489ca2b5937696c31910160405180910390a3505050565b612a423383612d84565b612a5e5760405162461bcd60e51b81526004016109b190613f1f565b61119884848484612e75565b6000818152600960205260408120546001600160a01b031615156040518060400160405280600381526020016232303960e81b81525090612abe5760405162461bcd60e51b81526004016109b191906137b6565b50600082815260096020526040902054600160a01b900460a01b6001600160a01b031916612aee57506000919050565b600082815260096020908152604091829020549151612b2892600160a01b900460a01b91016001600160a01b031991909116815260200190565b604051602081830303815290604052805190602001209050919050565b612b4d612ea8565b6006805460ff191660011790557f62e78cea01bee320cd4e420270b5ea74000d11b0c9f74754ebdbfc544b05a258612b823390565b6040516001600160a01b03909116815260200160405180910390a1565b612ba98383612eee565b612bb66000848484612f26565b610da45760405162461bcd60e51b81526004016109b190613f6c565b7aff00000000000000ff00000000000000ff00000000000000ff00006bffffffff0000000000000000604083901c90811663ffffffff60c01b84161760201c63ffffffff60601b919091166001600160e01b031984161717601081901c9182167eff00000000000000ff00000000000000ff00000000000000ff000000000000821617600890811c7bff00000000000000ff00000000000000ff00000000000000ff000000939093167fff00000000000000ff00000000000000ff00000000000000ff000000000000009290921691909117919091179081901c7e0f000f000f000f000f000f000f000f000f000f000f000f000f000f000f000f167f0f000f000f000f000f000f000f000f000f000f000f000f000f000f000f000f00600492831c161790612d20827f0606060606060606060606060606060606060606060606060606060606060606613d80565b901c7f0f0f0f0f0f0f0f0f0f0f0f0f0f0f0f0f0f0f0f0f0f0f0f0f0f0f0f0f0f0f0f0f166007612d509190613d61565b612d7a827f3030303030303030303030303030303030303030303030303030303030303030613d80565b61078a9190613d80565b600080612d9083611e5c565b9050806001600160a01b0316846001600160a01b03161480612dd757506001600160a01b0380821660009081526005602090815260408083209388168352929052205460ff165b8061184c5750836001600160a01b0316612df084610c6c565b6001600160a01b031614949350505050565b612e0d838383613024565b600090815260096020526040902080546001600160a01b0319166001600160a01b039290921691909117905550565b612e44613195565b6006805460ff191690557f5db9ee0a495bf2e6ff9c91a7834c1ba4fdd244a5e8aa4e537bd38aeae4b073aa33612b82565b612e80848484612e02565b612e8c84848484612f26565b6111985760405162461bcd60e51b81526004016109b190613f6c565b60065460ff16156113fe5760405162461bcd60e51b815260206004820152601060248201526f14185d5cd8589b194e881c185d5cd95960821b60448201526064016109b1565b612ef882826131de565b600090815260096020526040902080546001600160a01b0319166001600160a01b0392909216919091179055565b60006001600160a01b0384163b1561301957604051630a85bd0160e11b81526001600160a01b0385169063150b7a0290612f6a903390899088908890600401613fbe565b6020604051808303816000875af1925050508015612fa5575060408051601f3d908101601f19168201909252612fa291810190613ff1565b60015b612fff573d808015612fd3576040519150601f19603f3d011682016040523d82523d6000602084013e612fd8565b606091505b508051612ff75760405162461bcd60e51b81526004016109b190613f6c565b805181602001fd5b6001600160e01b031916630a85bd0160e11b14905061184c565b506001949350505050565b826001600160a01b031661303782611e5c565b6001600160a01b03161461305d5760405162461bcd60e51b81526004016109b19061400e565b6001600160a01b0382166130bf5760405162461bcd60e51b8152602060048201526024808201527f4552433732313a207472616e7366657220746f20746865207a65726f206164646044820152637265737360e01b60648201526084016109b1565b6130cc8383836001613377565b826001600160a01b03166130df82611e5c565b6001600160a01b0316146131055760405162461bcd60e51b81526004016109b19061400e565b600081815260046020908152604080832080546001600160a01b03199081169091556001600160a01b0387811680865260038552838620805460001901905590871680865283862080546001019055868652600290945282852080549092168417909155905184937fddf252ad1be2c89b69c2b068fc378daa952ba7f163c4a11628f55a4df523b3ef91a4505050565b60065460ff166113fe5760405162461bcd60e51b815260206004820152601460248201527314185d5cd8589b194e881b9bdd081c185d5cd95960621b60448201526064016109b1565b6001600160a01b0382166132345760405162461bcd60e51b815260206004820181905260248201527f4552433732313a206d696e7420746f20746865207a65726f206164647265737360448201526064016109b1565b6000818152600960205260409020546001600160a01b0316156132995760405162461bcd60e51b815260206004820152601c60248201527f4552433732313a20746f6b656e20616c7265616479206d696e7465640000000060448201526064016109b1565b6132a7600083836001613377565b6000818152600960205260409020546001600160a01b03161561330c5760405162461bcd60e51b815260206004820152601c60248201527f4552433732313a20746f6b656e20616c7265616479206d696e7465640000000060448201526064016109b1565b6001600160a01b038216600081815260036020908152604080832080546001019055848352600290915280822080546001600160a01b0319168417905551839291907fddf252ad1be2c89b69c2b068fc378daa952ba7f163c4a11628f55a4df523b3ef908290a45050565b613383848484846133ea565b60065460ff16156111985760405162461bcd60e51b815260206004820152602b60248201527f4552433732315061757361626c653a20746f6b656e207472616e73666572207760448201526a1a1a5b19481c185d5cd95960aa1b60648201526084016109b1565b6001811115611198576001600160a01b03841615613430576001600160a01b0384166000908152600360205260408120805483929061342a908490613eeb565b90915550505b6001600160a01b03831615611198576001600160a01b03831660009081526003602052604081208054839290613467908490613d80565b909155505050505050565b82805461347e90613e17565b90600052602060002090601f0160209004810192826134a057600085556134e6565b82601f106134b957805160ff19168380011785556134e6565b828001600101855582156134e6579182015b828111156134e65782518255916020019190600101906134cb565b506134f292915061354b565b5090565b8280548282559060005260206000209081019282156134e6579160200282015b828111156134e657825182546001600160a01b0319166001600160a01b03909116178255602090920191600190910190613516565b5b808211156134f2576000815560010161354c565b6001600160e01b03198116811461136357600080fd5b60006020828403121561358857600080fd5b813561359381613560565b9392505050565b634e487b7160e01b600052604160045260246000fd5b6040516101a0810167ffffffffffffffff811182821017156135d4576135d461359a565b60405290565b604051601f8201601f1916810167ffffffffffffffff811182821017156136035761360361359a565b604052919050565b600067ffffffffffffffff8211156136255761362561359a565b5060051b60200190565b600067ffffffffffffffff8211156136495761364961359a565b50601f01601f191660200190565b600082601f83011261366857600080fd5b813561367b6136768261362f565b6135da565b81815284602083860101111561369057600080fd5b816020850160208301376000918101602001919091529392505050565b600060208083850312156136c057600080fd5b823567ffffffffffffffff808211156136d857600080fd5b818501915085601f8301126136ec57600080fd5b81356136fa6136768261360b565b81815260059190911b8301840190848101908883111561371957600080fd5b8585015b83811015613751578035858111156137355760008081fd5b6137438b89838a0101613657565b84525091860191860161371d565b5098975050505050505050565b60005b83811015613779578181015183820152602001613761565b838111156111985750506000910152565b600081518084526137a281602086016020860161375e565b601f01601f19169290920160200192915050565b602081526000613593602083018461378a565b6000602082840312156137db57600080fd5b5035919050565b6001600160a01b038116811461136357600080fd5b8035610bd5816137e2565b6000806040838503121561381557600080fd5b8235613820816137e2565b946020939093013593505050565b60006020828403121561384057600080fd5b8135613593816137e2565b60008060006060848603121561386057600080fd5b833561386b816137e2565b9250602084013561387b816137e2565b929592945050506040919091013590565b6000806040838503121561389f57600080fd5b50508035926020909101359150565b801515811461136357600080fd5b8035610bd5816138ae565b6000602082840312156138d957600080fd5b8135613593816138ae565b6001600160a01b038d168152602081018c905262ffffff8b811660408301528a811660608301528981166080830152881660a08201526101a060c082018190526000906139338382018a61378a565b90508760e08401526139516101008401886001600160a01b03169052565b828103610120840152613964818761378a565b8551610140850152602086015161016085015291506139809050565b826101808301529d9c50505050505050505050505050565b600080604083850312156139ab57600080fd5b82356139b6816137e2565b915060208301356139c6816138ae565b809150509250929050565b600080600080608085870312156139e757600080fd5b84356139f2816137e2565b93506020850135613a02816137e2565b925060408501359150606085013567ffffffffffffffff811115613a2557600080fd5b613a3187828801613657565b91505092959194509250565b60008060408385031215613a5057600080fd5b8235613a5b816137e2565b915060208301356139c6816137e2565b803562ffffff81168114610bd557600080fd5b600060408284031215613a9057600080fd5b6040516040810181811067ffffffffffffffff82111715613ab357613ab361359a565b604052823581526020928301359281019290925250919050565b600082601f830112613ade57600080fd5b81356020613aee6136768361360b565b82815260059290921b84018101918181019086841115613b0d57600080fd5b8286015b84811015613b31578035613b24816137e2565b8352918301918301613b11565b509695505050505050565b60008060008060008060c08789031215613b5557600080fd5b863567ffffffffffffffff80821115613b6d57600080fd5b908801906101c0828b031215613b8257600080fd5b613b8a6135b0565b613b93836137f7565b815260208301356020820152613bab60408401613a6b565b6040820152613bbc60608401613a6b565b6060820152613bcd60808401613a6b565b6080820152613bde60a08401613a6b565b60a082015260c083013582811115613bf557600080fd5b613c018c828601613657565b60c08301525060e083013560e0820152610100613c1f8185016137f7565b908201526101208381013583811115613c3757600080fd5b613c438d828701613657565b828401525050610140613c588c828601613a7e565b908201526101808381013583811115613c7057600080fd5b613c7c8d828701613acd565b610160840152506101a08401358183015250809850505050613ca0602088016137f7565b9450613cae604088016137f7565b9350613cbc606088016137f7565b9250613cca608088016137f7565b9150613cd860a088016138bc565b90509295509295509295565b634e487b7160e01b600052601160045260246000fd5b600062ffffff80831681811415613d1357613d13613ce4565b6001019392505050565b600062ffffff808316818516808303821115613d3b57613d3b613ce4565b01949350505050565b600060208284031215613d5657600080fd5b8151613593816137e2565b6000816000190483118215151615613d7b57613d7b613ce4565b500290565b60008219821115613d9357613d93613ce4565b500190565b600060208284031215613daa57600080fd5b5051919050565b634e487b7160e01b600052603260045260246000fd5b606081526000613dda606083018661378a565b8460208401528281036040840152613df2818561378a565b9695505050505050565b6000600019821415613e1057613e10613ce4565b5060010190565b600181811c90821680613e2b57607f821691505b60208210811415613e4c57634e487b7160e01b600052602260045260246000fd5b50919050565b600060208284031215613e6457600080fd5b815167ffffffffffffffff811115613e7b57600080fd5b8201601f81018413613e8c57600080fd5b8051613e9a6136768261362f565b818152856020838501011115613eaf57600080fd5b613ec082602083016020860161375e565b95945050505050565b600082613ee657634e487b7160e01b600052601260045260246000fd5b500490565b600082821015613efd57613efd613ce4565b500390565b600060208284031215613f1457600080fd5b8151613593816138ae565b6020808252602d908201527f4552433732313a2063616c6c6572206973206e6f7420746f6b656e206f776e6560408201526c1c881bdc88185c1c1c9bdd9959609a1b606082015260800190565b60208082526032908201527f4552433732313a207472616e7366657220746f206e6f6e20455243373231526560408201527131b2b4bb32b91034b6b83632b6b2b73a32b960711b606082015260800190565b6001600160a01b0385811682528416602082015260408101839052608060608201819052600090613df29083018461378a565b60006020828403121561400357600080fd5b815161359381613560565b60208082526025908201527f4552433732313a207472616e736665722066726f6d20696e636f72726563742060408201526437bbb732b960d91b60608201526080019056fea2646970667358221220d54b7ccf604fd4b564ac859582d715e6d81927e9143b64e16c89eafc73c34b0564736f6c634300080c0033",
  "linkReferences": {},
  "deployedLinkReferences": {}
}