{
  "_format": "hh-sol-artifact-1",
  "contractName": "GenerativeNFT",
  "sourceName": "contracts/nfts/GenerativeNFT.sol",
  "abi": [
    {
      "inputs": [
        {
          "internalType": "string",
          "name": "name",
          "type": "string"
        },
        {
          "internalType": "string",
          "name": "symbol",
          "type": "string"
        }
      ],
      "stateMutability": "nonpayable",
      "type": "constructor"
    },
    {
      "inputs": [
        {
          "internalType": "address",
          "name": "operator",
          "type": "address"
        }
      ],
      "name": "OperatorNotAllowed",
      "type": "error"
    },
    {
      "anonymous": false,
      "inputs": [
        {
          "indexed": true,
          "internalType": "address",
          "name": "owner",
          "type": "address"
        },
        {
          "indexed": true,
          "internalType": "address",
          "name": "approved",
          "type": "address"
        },
        {
          "indexed": true,
          "internalType": "uint256",
          "name": "tokenId",
          "type": "uint256"
        }
      ],
      "name": "Approval",
      "type": "event"
    },
    {
      "anonymous": false,
      "inputs": [
        {
          "indexed": true,
          "internalType": "address",
          "name": "owner",
          "type": "address"
        },
        {
          "indexed": true,
          "internalType": "address",
          "name": "operator",
          "type": "address"
        },
        {
          "indexed": false,
          "internalType": "bool",
          "name": "approved",
          "type": "bool"
        }
      ],
      "name": "ApprovalForAll",
      "type": "event"
    },
    {
      "anonymous": false,
      "inputs": [
        {
          "indexed": true,
          "internalType": "address",
          "name": "previousOwner",
          "type": "address"
        },
        {
          "indexed": true,
          "internalType": "address",
          "name": "newOwner",
          "type": "address"
        }
      ],
      "name": "OwnershipTransferred",
      "type": "event"
    },
    {
      "anonymous": false,
      "inputs": [
        {
          "indexed": false,
          "internalType": "address",
          "name": "account",
          "type": "address"
        }
      ],
      "name": "Paused",
      "type": "event"
    },
    {
      "anonymous": false,
      "inputs": [
        {
          "indexed": true,
          "internalType": "address",
          "name": "from",
          "type": "address"
        },
        {
          "indexed": true,
          "internalType": "address",
          "name": "to",
          "type": "address"
        },
        {
          "indexed": true,
          "internalType": "uint256",
          "name": "tokenId",
          "type": "uint256"
        }
      ],
      "name": "Transfer",
      "type": "event"
    },
    {
      "anonymous": false,
      "inputs": [
        {
          "indexed": false,
          "internalType": "address",
          "name": "account",
          "type": "address"
        }
      ],
      "name": "Unpaused",
      "type": "event"
    },
    {
      "inputs": [],
      "name": "OPERATOR_FILTER_REGISTRY",
      "outputs": [
        {
          "internalType": "contract IOperatorFilterRegistry",
          "name": "",
          "type": "address"
        }
      ],
      "stateMutability": "view",
      "type": "function"
    },
    {
      "inputs": [],
      "name": "_admin",
      "outputs": [
        {
          "internalType": "address",
          "name": "",
          "type": "address"
        }
      ],
      "stateMutability": "view",
      "type": "function"
    },
    {
      "inputs": [],
      "name": "_nameCol",
      "outputs": [
        {
          "internalType": "string",
          "name": "",
          "type": "string"
        }
      ],
      "stateMutability": "view",
      "type": "function"
    },
    {
      "inputs": [],
      "name": "_paramsAddress",
      "outputs": [
        {
          "internalType": "address",
          "name": "",
          "type": "address"
        }
      ],
      "stateMutability": "view",
      "type": "function"
    },
    {
      "inputs": [],
      "name": "_project",
      "outputs": [
        {
          "internalType": "address",
          "name": "_projectAddr",
          "type": "address"
        },
        {
          "internalType": "uint256",
          "name": "_projectId",
          "type": "uint256"
        },
        {
          "internalType": "uint24",
          "name": "_maxSupply",
          "type": "uint24"
        },
        {
          "internalType": "uint24",
          "name": "_limit",
          "type": "uint24"
        },
        {
          "internalType": "uint24",
          "name": "_index",
          "type": "uint24"
        },
        {
          "internalType": "uint24",
          "name": "_indexReserve",
          "type": "uint24"
        },
        {
          "internalType": "string",
          "name": "_creator",
          "type": "string"
        },
        {
          "internalType": "address",
          "name": "_creatorAddr",
          "type": "address"
        },
        {
          "internalType": "uint256",
          "name": "_mintPrice",
          "type": "uint256"
        },
        {
          "internalType": "address",
          "name": "_mintPriceAddr",
          "type": "address"
        },
        {
          "internalType": "string",
          "name": "_name",
          "type": "string"
        },
        {
          "components": [
            {
              "internalType": "uint256",
              "name": "_initBlockTime",
              "type": "uint256"
            },
            {
              "internalType": "uint256",
              "name": "_openingTime",
              "type": "uint256"
            }
          ],
          "internalType": "struct NFTProject.ProjectMintingSchedule",
          "name": "_mintingSchedule",
          "type": "tuple"
        }
      ],
      "stateMutability": "view",
      "type": "function"
    },
    {
      "inputs": [],
      "name": "_projectDataContextAddr",
      "outputs": [
        {
          "internalType": "address",
          "name": "",
          "type": "address"
        }
      ],
      "stateMutability": "view",
      "type": "function"
    },
    {
      "inputs": [],
      "name": "_randomizer",
      "outputs": [
        {
          "internalType": "address",
          "name": "",
          "type": "address"
        }
      ],
      "stateMutability": "view",
      "type": "function"
    },
    {
      "inputs": [
        {
          "internalType": "address",
          "name": "",
          "type": "address"
        }
      ],
      "name": "_reserves",
      "outputs": [
        {
          "internalType": "bool",
          "name": "",
          "type": "bool"
        }
      ],
      "stateMutability": "view",
      "type": "function"
    },
    {
      "inputs": [],
      "name": "_royalty",
      "outputs": [
        {
          "internalType": "uint256",
          "name": "",
          "type": "uint256"
        }
      ],
      "stateMutability": "view",
      "type": "function"
    },
    {
      "inputs": [],
      "name": "_symbolCol",
      "outputs": [
        {
          "internalType": "string",
          "name": "",
          "type": "string"
        }
      ],
      "stateMutability": "view",
      "type": "function"
    },
    {
      "inputs": [
        {
          "internalType": "address",
          "name": "to",
          "type": "address"
        },
        {
          "internalType": "uint256",
          "name": "tokenId",
          "type": "uint256"
        }
      ],
      "name": "approve",
      "outputs": [],
      "stateMutability": "nonpayable",
      "type": "function"
    },
    {
      "inputs": [
        {
          "internalType": "address",
          "name": "owner",
          "type": "address"
        }
      ],
      "name": "balanceOf",
      "outputs": [
        {
          "internalType": "uint256",
          "name": "",
          "type": "uint256"
        }
      ],
      "stateMutability": "view",
      "type": "function"
    },
    {
      "inputs": [
        {
          "internalType": "address",
          "name": "newAdm",
          "type": "address"
        }
      ],
      "name": "changeAdmin",
      "outputs": [],
      "stateMutability": "nonpayable",
      "type": "function"
    },
    {
      "inputs": [
        {
          "internalType": "address",
          "name": "newAddr",
          "type": "address"
        }
      ],
      "name": "changeDataContextAddr",
      "outputs": [],
      "stateMutability": "nonpayable",
      "type": "function"
    },
    {
      "inputs": [
        {
          "internalType": "address",
          "name": "newAddr",
          "type": "address"
        }
      ],
      "name": "changeParamAddr",
      "outputs": [],
      "stateMutability": "nonpayable",
      "type": "function"
    },
    {
      "inputs": [
        {
          "internalType": "address",
          "name": "newAddr",
          "type": "address"
        }
      ],
      "name": "changeRandomizerAddr",
      "outputs": [],
      "stateMutability": "nonpayable",
      "type": "function"
    },
    {
      "inputs": [
        {
          "internalType": "uint256",
          "name": "tokenId",
          "type": "uint256"
        }
      ],
      "name": "getApproved",
      "outputs": [
        {
          "internalType": "address",
          "name": "",
          "type": "address"
        }
      ],
      "stateMutability": "view",
      "type": "function"
    },
    {
      "inputs": [],
      "name": "getStatus",
      "outputs": [
        {
          "internalType": "bool",
          "name": "",
          "type": "bool"
        }
      ],
      "stateMutability": "view",
      "type": "function"
    },
    {
      "inputs": [
        {
          "components": [
            {
              "internalType": "address",
              "name": "_projectAddr",
              "type": "address"
            },
            {
              "internalType": "uint256",
              "name": "_projectId",
              "type": "uint256"
            },
            {
              "internalType": "uint24",
              "name": "_maxSupply",
              "type": "uint24"
            },
            {
              "internalType": "uint24",
              "name": "_limit",
              "type": "uint24"
            },
            {
              "internalType": "uint24",
              "name": "_index",
              "type": "uint24"
            },
            {
              "internalType": "uint24",
              "name": "_indexReserve",
              "type": "uint24"
            },
            {
              "internalType": "string",
              "name": "_creator",
              "type": "string"
            },
            {
              "internalType": "address",
              "name": "_creatorAddr",
              "type": "address"
            },
            {
              "internalType": "uint256",
              "name": "_mintPrice",
              "type": "uint256"
            },
            {
              "internalType": "address",
              "name": "_mintPriceAddr",
              "type": "address"
            },
            {
              "internalType": "string",
              "name": "_name",
              "type": "string"
            },
            {
              "components": [
                {
                  "internalType": "uint256",
                  "name": "_initBlockTime",
                  "type": "uint256"
                },
                {
                  "internalType": "uint256",
                  "name": "_openingTime",
                  "type": "uint256"
                }
              ],
              "internalType": "struct NFTProject.ProjectMintingSchedule",
              "name": "_mintingSchedule",
              "type": "tuple"
            }
          ],
          "internalType": "struct NFTProject.ProjectMinting",
          "name": "project",
          "type": "tuple"
        },
        {
          "internalType": "address",
          "name": "admin",
          "type": "address"
        },
        {
          "internalType": "address",
          "name": "paramsAddr",
          "type": "address"
        },
        {
          "internalType": "address",
          "name": "randomizer",
          "type": "address"
        },
        {
          "internalType": "address",
          "name": "projectDataContextAddr",
          "type": "address"
        },
        {
          "internalType": "address[]",
          "name": "reserves",
          "type": "address[]"
        },
        {
          "internalType": "bool",
          "name": "disable",
          "type": "bool"
        }
      ],
      "name": "init",
      "outputs": [],
      "stateMutability": "nonpayable",
      "type": "function"
    },
    {
      "inputs": [
        {
          "internalType": "address",
          "name": "owner",
          "type": "address"
        },
        {
          "internalType": "address",
          "name": "operator",
          "type": "address"
        }
      ],
      "name": "isApprovedForAll",
      "outputs": [
        {
          "internalType": "bool",
          "name": "",
          "type": "bool"
        }
      ],
      "stateMutability": "view",
      "type": "function"
    },
    {
      "inputs": [],
      "name": "mint",
      "outputs": [
        {
          "internalType": "uint256",
          "name": "tokenId",
          "type": "uint256"
        }
      ],
      "stateMutability": "payable",
      "type": "function"
    },
    {
      "inputs": [],
      "name": "name",
      "outputs": [
        {
          "internalType": "string",
          "name": "",
          "type": "string"
        }
      ],
      "stateMutability": "view",
      "type": "function"
    },
    {
      "inputs": [],
      "name": "owner",
      "outputs": [
        {
          "internalType": "address",
          "name": "",
          "type": "address"
        }
      ],
      "stateMutability": "view",
      "type": "function"
    },
    {
      "inputs": [
        {
          "internalType": "uint256",
          "name": "tokenId",
          "type": "uint256"
        }
      ],
      "name": "ownerOf",
      "outputs": [
        {
          "internalType": "address",
          "name": "",
          "type": "address"
        }
      ],
      "stateMutability": "view",
      "type": "function"
    },
    {
      "inputs": [],
      "name": "paused",
      "outputs": [
        {
          "internalType": "bool",
          "name": "",
          "type": "bool"
        }
      ],
      "stateMutability": "view",
      "type": "function"
    },
    {
      "inputs": [],
      "name": "renounceOwnership",
      "outputs": [],
      "stateMutability": "nonpayable",
      "type": "function"
    },
    {
      "inputs": [],
      "name": "reserveMint",
      "outputs": [
        {
          "internalType": "uint256",
          "name": "tokenId",
          "type": "uint256"
        }
      ],
      "stateMutability": "payable",
      "type": "function"
    },
    {
      "inputs": [
        {
          "internalType": "uint256",
          "name": "",
          "type": "uint256"
        }
      ],
      "name": "royalties",
      "outputs": [
        {
          "internalType": "address",
          "name": "recipient",
          "type": "address"
        },
        {
          "internalType": "uint24",
          "name": "amount",
          "type": "uint24"
        },
        {
          "internalType": "bool",
          "name": "isValue",
          "type": "bool"
        }
      ],
      "stateMutability": "view",
      "type": "function"
    },
    {
      "inputs": [
        {
          "internalType": "uint256",
          "name": "_tokenId",
          "type": "uint256"
        },
        {
          "internalType": "uint256",
          "name": "_salePrice",
          "type": "uint256"
        }
      ],
      "name": "royaltyInfo",
      "outputs": [
        {
          "internalType": "address",
          "name": "receiver",
          "type": "address"
        },
        {
          "internalType": "uint256",
          "name": "royaltyAmount",
          "type": "uint256"
        }
      ],
      "stateMutability": "view",
      "type": "function"
    },
    {
      "inputs": [
        {
          "internalType": "address",
          "name": "from",
          "type": "address"
        },
        {
          "internalType": "address",
          "name": "to",
          "type": "address"
        },
        {
          "internalType": "uint256",
          "name": "tokenId",
          "type": "uint256"
        }
      ],
      "name": "safeTransferFrom",
      "outputs": [],
      "stateMutability": "nonpayable",
      "type": "function"
    },
    {
      "inputs": [
        {
          "internalType": "address",
          "name": "from",
          "type": "address"
        },
        {
          "internalType": "address",
          "name": "to",
          "type": "address"
        },
        {
          "internalType": "uint256",
          "name": "tokenId",
          "type": "uint256"
        },
        {
          "internalType": "bytes",
          "name": "data",
          "type": "bytes"
        }
      ],
      "name": "safeTransferFrom",
      "outputs": [],
      "stateMutability": "nonpayable",
      "type": "function"
    },
    {
      "inputs": [
        {
          "internalType": "address",
          "name": "operator",
          "type": "address"
        },
        {
          "internalType": "bool",
          "name": "approved",
          "type": "bool"
        }
      ],
      "name": "setApprovalForAll",
      "outputs": [],
      "stateMutability": "nonpayable",
      "type": "function"
    },
    {
      "inputs": [
        {
          "internalType": "bool",
          "name": "enable",
          "type": "bool"
        }
      ],
      "name": "setStatus",
      "outputs": [],
      "stateMutability": "nonpayable",
      "type": "function"
    },
    {
      "inputs": [
        {
          "internalType": "uint256",
          "name": "_tokenId",
          "type": "uint256"
        },
        {
          "internalType": "address",
          "name": "_recipient",
          "type": "address"
        },
        {
          "internalType": "uint256",
          "name": "_value",
          "type": "uint256"
        }
      ],
      "name": "setTokenRoyalty",
      "outputs": [],
      "stateMutability": "nonpayable",
      "type": "function"
    },
    {
      "inputs": [
        {
          "internalType": "bytes4",
          "name": "interfaceId",
          "type": "bytes4"
        }
      ],
      "name": "supportsInterface",
      "outputs": [
        {
          "internalType": "bool",
          "name": "",
          "type": "bool"
        }
      ],
      "stateMutability": "view",
      "type": "function"
    },
    {
      "inputs": [],
      "name": "symbol",
      "outputs": [
        {
          "internalType": "string",
          "name": "",
          "type": "string"
        }
      ],
      "stateMutability": "view",
      "type": "function"
    },
    {
      "inputs": [
        {
          "internalType": "uint256",
          "name": "tokenId",
          "type": "uint256"
        }
      ],
      "name": "tokenGenerativeURI",
      "outputs": [
        {
          "internalType": "string",
          "name": "",
          "type": "string"
        }
      ],
      "stateMutability": "view",
      "type": "function"
    },
    {
      "inputs": [
        {
          "internalType": "uint256",
          "name": "tokenId",
          "type": "uint256"
        }
      ],
      "name": "tokenIdToHash",
      "outputs": [
        {
          "internalType": "bytes32",
          "name": "",
          "type": "bytes32"
        }
      ],
      "stateMutability": "view",
      "type": "function"
    },
    {
      "inputs": [
        {
          "internalType": "uint256",
          "name": "tokenId",
          "type": "uint256"
        }
      ],
      "name": "tokenURI",
      "outputs": [
        {
          "internalType": "string",
          "name": "",
          "type": "string"
        }
      ],
      "stateMutability": "view",
      "type": "function"
    },
    {
      "inputs": [
        {
          "internalType": "address",
          "name": "from",
          "type": "address"
        },
        {
          "internalType": "address",
          "name": "to",
          "type": "address"
        },
        {
          "internalType": "uint256",
          "name": "tokenId",
          "type": "uint256"
        }
      ],
      "name": "transferFrom",
      "outputs": [],
      "stateMutability": "nonpayable",
      "type": "function"
    },
    {
      "inputs": [
        {
          "internalType": "address",
          "name": "newOwner",
          "type": "address"
        }
      ],
      "name": "transferOwnership",
      "outputs": [],
      "stateMutability": "nonpayable",
      "type": "function"
    }
  ],
  "bytecode": "0x60806040523480156200001157600080fd5b5060405162004109380380620041098339810160408190526200003491620003b0565b733cc6cdda760b79bafa08df41ecfa224f810dceb66001838381818160009080519060200190620000679291906200023d565b5080516200007d9060019060208401906200023d565b50506006805460ff191690555060016007556200009a33620001eb565b50506daaeb6d7670e522a718067333cd4e3b15620001e15780156200012f57604051633e9f1edf60e11b81523060048201526001600160a01b03831660248201526daaeb6d7670e522a718067333cd4e90637d3e3dbe906044015b600060405180830381600087803b1580156200011057600080fd5b505af115801562000125573d6000803e3d6000fd5b50505050620001e1565b6001600160a01b03821615620001805760405163a0af290360e01b81523060048201526001600160a01b03831660248201526daaeb6d7670e522a718067333cd4e9063a0af290390604401620000f5565b604051632210724360e11b81523060048201526daaeb6d7670e522a718067333cd4e90634420e48690602401600060405180830381600087803b158015620001c757600080fd5b505af1158015620001dc573d6000803e3d6000fd5b505050505b5050505062000457565b600880546001600160a01b038381166001600160a01b0319831681179093556040519116919082907f8be0079c531659141344cd1fd0a4f28419497f9722a3daafe3b4186f6b6457e090600090a35050565b8280546200024b906200041a565b90600052602060002090601f0160209004810192826200026f5760008555620002ba565b82601f106200028a57805160ff1916838001178555620002ba565b82800160010185558215620002ba579182015b82811115620002ba5782518255916020019190600101906200029d565b50620002c8929150620002cc565b5090565b5b80821115620002c85760008155600101620002cd565b634e487b7160e01b600052604160045260246000fd5b600082601f8301126200030b57600080fd5b81516001600160401b0380821115620003285762000328620002e3565b604051601f8301601f19908116603f01168101908282118183101715620003535762000353620002e3565b816040528381526020925086838588010111156200037057600080fd5b600091505b8382101562000394578582018301518183018401529082019062000375565b83821115620003a65760008385830101525b9695505050505050565b60008060408385031215620003c457600080fd5b82516001600160401b0380821115620003dc57600080fd5b620003ea86838701620002f9565b935060208501519150808211156200040157600080fd5b506200041085828601620002f9565b9150509250929050565b600181811c908216806200042f57607f821691505b602082108114156200045157634e487b7160e01b600052602260045260246000fd5b50919050565b613ca280620004676000396000f3fe6080604052600436106102465760003560e01c80635c975abb116101395780639713c807116100b6578063c87b56dd1161007a578063c87b56dd1461071d578063e42b6ccd1461073d578063e985e9c51461075d578063f2fde38b146107a6578063febfd6c3146107c6578063ffc27c0e146107e657600080fd5b80639713c8071461066d578063a22cb4651461068d578063ac4fb5f4146106ad578063adfc7dae146106dd578063b88d4fde146106fd57600080fd5b8063775bff9f116100fd578063775bff9f146105735780637f77f574146105a05780638da5cb5b1461061a5780638f2839701461063857806395d89b411461065857600080fd5b80635c975abb146104d0578063621a1f74146104e85780636352211e1461050857806370a082311461053e578063715018a61461055e57600080fd5b80632a55205a116101c7578063452fa3d31161018b578063452fa3d314610446578063472f1e021461045b5780634e69d5601461047b578063575b57ea146104905780635c40f6f4146104b057600080fd5b80632a55205a1461039a57806336a0a6cb146103d95780633b66b00a146103ee57806341f434341461040457806342842e0e1461042657600080fd5b806310da88c51161020e57806310da88c51461031c5780631249c58b1461033c5780631ca9741b1461035257806321c8d6761461037257806323b872dd1461037a57600080fd5b806301bc45c91461024b57806301ffc9a71461028857806306fdde03146102b8578063081812fc146102da578063095ea7b3146102fa575b600080fd5b34801561025757600080fd5b50600a5461026b906001600160a01b031681565b6040516001600160a01b0390911681526020015b60405180910390f35b34801561029457600080fd5b506102a86102a3366004613220565b610806565b604051901515815260200161027f565b3480156102c457600080fd5b506102cd610858565b60405161027f919061329c565b3480156102e657600080fd5b5061026b6102f53660046132af565b6108ea565b34801561030657600080fd5b5061031a6103153660046132ed565b610911565b005b34801561032857600080fd5b506102cd6103373660046132af565b610a2c565b610344610b6f565b60405190815260200161027f565b34801561035e57600080fd5b5061031a61036d366004613319565b610dbb565b610344610e4c565b34801561038657600080fd5b5061031a610395366004613336565b611186565b3480156103a657600080fd5b506103ba6103b5366004613377565b6111b1565b604080516001600160a01b03909316835260208301919091520161027f565b3480156103e557600080fd5b506102cd6111c9565b3480156103fa57600080fd5b5061034460105481565b34801561041057600080fd5b5061026b6daaeb6d7670e522a718067333cd4e81565b34801561043257600080fd5b5061031a610441366004613336565b611257565b34801561045257600080fd5b506102cd61127c565b34801561046757600080fd5b5061031a610476366004613319565b611289565b34801561048757600080fd5b506102a861131b565b34801561049c57600080fd5b50600d5461026b906001600160a01b031681565b3480156104bc57600080fd5b5061031a6104cb3660046133b2565b61132f565b3480156104dc57600080fd5b5060065460ff166102a8565b3480156104f457600080fd5b506103446105033660046132af565b611396565b34801561051457600080fd5b5061026b6105233660046132af565b6000908152600960205260409020546001600160a01b031690565b34801561054a57600080fd5b50610344610559366004613319565b611462565b34801561056a57600080fd5b5061031a6114e8565b34801561057f57600080fd5b506105886114fc565b60405161027f9c9b9a999897969594939291906133cf565b3480156105ac57600080fd5b506105ef6105bb3660046132af565b6011602052600090815260409020546001600160a01b03811690600160a01b810462ffffff1690600160b81b900460ff1683565b604080516001600160a01b03909416845262ffffff909216602084015215159082015260600161027f565b34801561062657600080fd5b50600a546001600160a01b031661026b565b34801561064457600080fd5b5061031a610653366004613319565b61169f565b34801561066457600080fd5b506102cd611731565b34801561067957600080fd5b5061031a61068836600461348c565b611740565b34801561069957600080fd5b5061031a6106a83660046134b3565b61180e565b3480156106b957600080fd5b506102a86106c8366004613319565b601c6020526000908152604090205460ff1681565b3480156106e957600080fd5b50600b5461026b906001600160a01b031681565b34801561070957600080fd5b5061031a6107183660046135c3565b61181d565b34801561072957600080fd5b506102cd6107383660046132af565b61184a565b34801561074957600080fd5b5061031a61075836600461374e565b611944565b34801561076957600080fd5b506102a86107783660046138fa565b6001600160a01b03918216600090815260056020908152604080832093909416825291909152205460ff1690565b3480156107b257600080fd5b5061031a6107c1366004613319565b611caf565b3480156107d257600080fd5b5061031a6107e1366004613319565b611d25565b3480156107f257600080fd5b50600c5461026b906001600160a01b031681565b60006001600160e01b031982166380ac58cd60e01b148061083757506001600160e01b03198216635b5e139f60e01b145b8061085257506301ffc9a760e01b6001600160e01b03198316145b92915050565b6060600e805461086790613928565b80601f016020809104026020016040519081016040528092919081815260200182805461089390613928565b80156108e05780601f106108b5576101008083540402835291602001916108e0565b820191906000526020600020905b8154815290600101906020018083116108c357829003601f168201915b5050505050905090565b60006108f582611db7565b506000908152600460205260409020546001600160a01b031690565b600061091c82611e07565b9050806001600160a01b0316836001600160a01b0316141561098f5760405162461bcd60e51b815260206004820152602160248201527f4552433732313a20617070726f76616c20746f2063757272656e74206f776e656044820152603960f91b60648201526084015b60405180910390fd5b336001600160a01b03821614806109ab57506109ab8133610778565b610a1d5760405162461bcd60e51b815260206004820152603d60248201527f4552433732313a20617070726f76652063616c6c6572206973206e6f7420746f60448201527f6b656e206f776e6572206f7220617070726f76656420666f7220616c6c0000006064820152608401610986565b610a278383611e67565b505050565b6060610a3782611ed5565b6040518060400160405280600381526020016232303960e81b81525090610a715760405162461bcd60e51b8152600401610986919061329c565b50600d5460405163188687dd60e21b8152600481018490526001600160a01b0390911690600090309063621a1f7490602401602060405180830381865afa158015610ac0573d6000803e3d6000fd5b505050506040513d601f19601f82011682018060405250810190610ae49190613963565b601354604051639413930160e01b8152600481019190915260248101869052604481018290529091506001600160a01b038316906394139301906064015b600060405180830381865afa158015610b3f573d6000803e3d6000fd5b505050506040513d6000823e601f3d908101601f19168201604052610b67919081019061397c565b949350505050565b6000610b79611ef2565b601b5415610bc057601b5460408051808201909152600381526206460760eb1b6020820152904211610bbe5760405162461bcd60e51b8152600401610986919061329c565b505b60148054600160301b900462ffffff16906006610bdc83613a09565b82546101009290920a62ffffff818102199093169183160217909155601454630100000081048216600160301b90910490911611159050610c1c57600080fd5b60145462ffffff80821691610c4291600160481b8204811691600160301b900416613a2c565b62ffffff161415610cb357601254601354604051631122f8a960e11b815260048101919091526001600160a01b03909116908190632245f15290602401600060405180830381600087803b158015610c9957600080fd5b505af1158015610cad573d6000803e3d6000fd5b50505050505b601454601354600160301b90910462ffffff1690610cd590620f424090613a53565b610cdf9190613a72565b9050610ceb3382611f4c565b600c54604051631da00d8560e01b8152600481018390526001600160a01b03909116906000908290631da00d85906024016020604051808303816000875af1158015610d3b573d6000803e3d6000fd5b505050506040513d601f19601f82011682018060405250810190610d5f9190613963565b9050610d6b8382611f66565b610d7361202f565b60408051338152602081018590527f0f6798a560793a54c3bcfe86a93cde1e73087d944c0ea20544137d4121396885910160405180910390a15050610db86001600755565b90565b600a546001600160a01b031633148015610ddd57506001600160a01b03811615155b6040518060400160405280600381526020016231303160e81b81525090610e175760405162461bcd60e51b8152600401610986919061329c565b50600c546001600160a01b03828116911614610e4957600c80546001600160a01b0319166001600160a01b0383161790555b50565b6000610e56611ef2565b60148054600160481b900462ffffff16906009610e7283613a09565b82546101009290920a62ffffff8181021990931691831602179091556014548082169250610eb19163010000008204811691600160481b900416613a2c565b62ffffff161115610ec157600080fd5b60145462ffffff80821691610ee791600160481b8204811691600160301b900416613a2c565b62ffffff161415610f5857601254601354604051631122f8a960e11b815260048101919091526001600160a01b03909116908190632245f15290602401600060405180830381600087803b158015610f3e57600080fd5b505af1158015610f52573d6000803e3d6000fd5b50505050505b601254336000908152601c60205260409020546001600160a01b039091169060ff168061100257506013546040516331a9108f60e11b815260048101919091526001600160a01b03821690636352211e90602401602060405180830381865afa158015610fc9573d6000803e3d6000fd5b505050506040513d601f19601f82011682018060405250810190610fed9190613a8a565b6001600160a01b0316336001600160a01b0316145b61100b57600080fd5b336000908152601c602052604090205460ff16801561102b5750601b5415155b1561106f57601b5460408051808201909152600381526206460760eb1b602082015290421161106d5760405162461bcd60e51b8152600401610986919061329c565b505b6014546110919062ffffff63010000008204811691600160481b900416613a2c565b62ffffff16620f42406012600101546110aa9190613a53565b6110b49190613a72565b91506110c03383611f4c565b600c54604051631da00d8560e01b8152600481018490526001600160a01b03909116906000908290631da00d85906024016020604051808303816000875af1158015611110573d6000803e3d6000fd5b505050506040513d601f19601f820116820180604052508101906111349190613963565b90506111408482611f66565b60408051338152602081018690527f0f6798a560793a54c3bcfe86a93cde1e73087d944c0ea20544137d4121396885910160405180910390a1505050610db86001600755565b826001600160a01b03811633146111a0576111a0336124a8565b6111ab848484612561565b50505050565b6000806111be8484612592565b915091509250929050565b600f80546111d690613928565b80601f016020809104026020016040519081016040528092919081815260200182805461120290613928565b801561124f5780601f106112245761010080835404028352916020019161124f565b820191906000526020600020905b81548152906001019060200180831161123257829003601f168201915b505050505081565b826001600160a01b038116331461127157611271336124a8565b6111ab84848461262e565b600e80546111d690613928565b600a546001600160a01b0316331480156112ab57506001600160a01b03811615155b6040518060400160405280600381526020016231303160e81b815250906112e55760405162461bcd60e51b8152600401610986919061329c565b50600d546001600160a01b03828116911614610e4957600d80546001600160a01b0383166001600160a01b031990911617905550565b600061132960065460ff1690565b15905090565b600a546001600160a01b031633148061135257506012546001600160a01b031633145b6040518060400160405280600381526020016231303160e81b8152509061138c5760405162461bcd60e51b8152600401610986919061329c565b50610e4981612649565b60006113a182611ed5565b6040518060400160405280600381526020016232303960e81b815250906113db5760405162461bcd60e51b8152600401610986919061329c565b50600082815260096020526040902054600160a01b900460a01b6001600160a01b03191661140b57506000919050565b60008281526009602090815260409182902054915161144592600160a01b900460a01b91016001600160a01b031991909116815260200190565b604051602081830303815290604052805190602001209050919050565b60006001600160a01b0382166114cc5760405162461bcd60e51b815260206004820152602960248201527f4552433732313a2061646472657373207a65726f206973206e6f7420612076616044820152683634b21037bbb732b960b91b6064820152608401610986565b506001600160a01b031660009081526003602052604090205490565b6114f061265f565b6114fa60006126dd565b565b60128054601354601454601580546001600160a01b0390941694929362ffffff8084169463010000008504821694600160301b8104831694600160481b9091049092169290919061154c90613928565b80601f016020809104026020016040519081016040528092919081815260200182805461157890613928565b80156115c55780601f1061159a576101008083540402835291602001916115c5565b820191906000526020600020905b8154815290600101906020018083116115a857829003601f168201915b5050505060048301546005840154600685015460078601805495966001600160a01b03948516969395509390911692916115fe90613928565b80601f016020809104026020016040519081016040528092919081815260200182805461162a90613928565b80156116775780601f1061164c57610100808354040283529160200191611677565b820191906000526020600020905b81548152906001019060200180831161165a57829003601f168201915b50506040805180820190915260088601548152600990950154602086015250919291508d9050565b600a546001600160a01b0316331480156116c157506001600160a01b03811615155b6040518060400160405280600381526020016231303160e81b815250906116fb5760405162461bcd60e51b8152600401610986919061329c565b50600a546001600160a01b03828116911614610e4957600a80546001600160a01b0383166001600160a01b031990911617905550565b6060600f805461086790613928565b600a546001600160a01b0316331461175757600080fd5b60408051808201909152600381526232303560e81b60208201526127108211156117945760405162461bcd60e51b8152600401610986919061329c565b50604080516060810182526001600160a01b03938416815262ffffff928316602080830191825260018385019081526000978852601190915292909520905181549551925194166001600160b81b031990951694909417600160a01b91909216021760ff60b81b1916600160b81b91151591909102179055565b61181933838361272f565b5050565b836001600160a01b038116331461183757611837336124a8565b611843858585856127fe565b5050505050565b606061185582611ed5565b6040518060400160405280600381526020016232303960e81b8152509061188f5760405162461bcd60e51b8152600401610986919061329c565b50600d5460405163188687dd60e21b8152600481018490526001600160a01b0390911690600090309063621a1f7490602401602060405180830381865afa1580156118de573d6000803e3d6000fd5b505050506040513d601f19601f820116820180604052508101906119029190613963565b6013546040516308dd54e960e31b8152600481019190915260248101869052604481018290529091506001600160a01b038316906346eaa74890606401610b22565b600a5460408051808201909152600381526219181960e91b6020820152906001600160a01b0316156119895760405162461bcd60e51b8152600401610986919061329c565b5060408051808201909152600381526203130360ec1b60208201526001600160a01b0387166119cb5760405162461bcd60e51b8152600401610986919061329c565b508651601280546001600160a01b039092166001600160a01b031990921691909117815560208089015160135560408901516014805460608c015160808d015160a08e015162ffffff908116600160481b026bffffff00000000000000000019928216600160301b02929092166bffffffffffff0000000000001993821663010000000265ffffffffffff19909516919096161792909217169290921791909117905560c089015180518a9392611a8792601592910190613171565b5060e08201516004820180546001600160a01b039283166001600160a01b03199182161790915561010084015160058401556101208401516006840180549190931691161790556101408201518051611aea916007840191602090910190613171565b50610160919091015180516008830155602090810151600990920191909155600b80546001600160a01b038089166001600160a01b031992831617909255600a80548a8416908316179055600c8054888416908316179055600d8054928716929091169190911790556101408801518051611b6992600e920190613171565b50611c0160016003600e8054611b7e90613928565b80601f0160208091040260200160405190810160405280929190818152602001828054611baa90613928565b8015611bf75780601f10611bcc57610100808354040283529160200191611bf7565b820191906000526020600020905b815481529060010190602001808311611bda57829003601f168201915b5050505050612830565b8051611c1591600f91602090910190613171565b5060005b8251811015611c7e576001601c6000858481518110611c3a57611c3a613aa7565b6020908102919091018101516001600160a01b03168252810191909152604001600020805460ff191691151591909117905580611c7681613abd565b915050611c19565b50600a54611c94906001600160a01b0316611caf565b8015611ca257611ca2612917565b505042601a555050505050565b611cb761265f565b6001600160a01b038116611d1c5760405162461bcd60e51b815260206004820152602660248201527f4f776e61626c653a206e6577206f776e657220697320746865207a65726f206160448201526564647265737360d01b6064820152608401610986565b610e49816126dd565b600a546001600160a01b031633148015611d4757506001600160a01b03811615155b6040518060400160405280600381526020016231303160e81b81525090611d815760405162461bcd60e51b8152600401610986919061329c565b50600b546001600160a01b03828116911614610e4957600b80546001600160a01b0383166001600160a01b031990911617905550565b611dc081611ed5565b610e495760405162461bcd60e51b8152602060048201526018602482015277115490cdcc8c4e881a5b9d985b1a59081d1bdad95b88125160421b6044820152606401610986565b6000818152600260205260408120546001600160a01b0316806108525760405162461bcd60e51b8152602060048201526018602482015277115490cdcc8c4e881a5b9d985b1a59081d1bdad95b88125160421b6044820152606401610986565b600081815260046020526040902080546001600160a01b0319166001600160a01b0384169081179091558190611e9c82611e07565b6001600160a01b03167f8c5be1e5ebec7d5bd14f71427d1e84f3dd0314c0f7b2291e5b200ac8c7c3b92560405160405180910390a45050565b6000908152600960205260409020546001600160a01b0316151590565b60026007541415611f455760405162461bcd60e51b815260206004820152601f60248201527f5265656e7472616e637947756172643a207265656e7472616e742063616c6c006044820152606401610986565b6002600755565b611819828260405180602001604052806000815250612971565b600082815260096020908152604091829020548251808401909352600383526219181b60e91b91830191909152600160a01b900460a01b6001600160a01b03191615611fc55760405162461bcd60e51b8152600401610986919061329c565b5060408051808201909152600381526232303760e81b602082015281611ffe5760405162461bcd60e51b8152600401610986919061329c565b50600091825260096020526040909120805460a09290921c600160a01b026001600160a01b03909216919091179055565b6017548061203a5750565b601254600b546000916001600160a01b0390811691166101f481156120f25760408051808201825260158152744d494e545f4e46545f4f50455241544f525f46454560581b60208201529051636d12dce160e01b81526001600160a01b03841691636d12dce1916120ae919060040161329c565b602060405180830381865afa1580156120cb573d6000803e3d6000fd5b505050506040513d601f19601f820116820180604052508101906120ef9190613963565b90505b6001600160a01b038416612269578434101561210d57600080fd5b6013546040516331a9108f60e11b81526000916001600160a01b03861691636352211e916121419160040190815260200190565b602060405180830381865afa15801561215e573d6000803e3d6000fd5b505050506040513d601f19601f820116820180604052508101906121829190613a8a565b6001600160a01b03166127106121988489613a53565b6121a29190613ad8565b6121ac9088613afa565b604051600081818185875af1925050503d80600081146121e8576040519150601f19603f3d011682016040523d82523d6000602084013e6121ed565b606091505b50509050806121fb57600080fd5b600a546001600160a01b03166127106122148489613a53565b61221e9190613ad8565b604051600081818185875af1925050503d806000811461225a576040519150601f19603f3d011682016040523d82523d6000602084013e61225f565b606091505b5061184392505050565b6040516323b872dd60e01b81523360048201523060248201526044810186905284906001600160a01b038216906323b872dd906064016020604051808303816000875af11580156122be573d6000803e3d6000fd5b505050506040513d601f19601f820116820180604052508101906122e29190613b11565b6122eb57600080fd5b6013546040516331a9108f60e11b815260048101919091526001600160a01b038281169163a9059cbb91871690636352211e90602401602060405180830381865afa15801561233e573d6000803e3d6000fd5b505050506040513d601f19601f820116820180604052508101906123629190613a8a565b61271061236f868b613a53565b6123799190613ad8565b612383908a613afa565b6040516001600160e01b031960e085901b1681526001600160a01b03909216600483015260248201526044016020604051808303816000875af11580156123ce573d6000803e3d6000fd5b505050506040513d601f19601f820116820180604052508101906123f29190613b11565b6123fb57600080fd5b600a546001600160a01b038083169163a9059cbb911661271061241e868b613a53565b6124289190613ad8565b6040516001600160e01b031960e085901b1681526001600160a01b03909216600483015260248201526044016020604051808303816000875af1158015612473573d6000803e3d6000fd5b505050506040513d601f19601f820116820180604052508101906124979190613b11565b6124a057600080fd5b505050505050565b6daaeb6d7670e522a718067333cd4e3b15610e4957604051633185c44d60e21b81523060048201526001600160a01b03821660248201526daaeb6d7670e522a718067333cd4e9063c617113490604401602060405180830381865afa158015612515573d6000803e3d6000fd5b505050506040513d601f19601f820116820180604052508101906125399190613b11565b610e4957604051633b79c77360e21b81526001600160a01b0382166004820152602401610986565b61256b33826129a4565b6125875760405162461bcd60e51b815260040161098690613b2e565b610a27838383612a22565b6000828152601160209081526040808320815160608101835290546001600160a01b0381168252600160a01b810462ffffff1693820193909352600160b81b90920460ff16158015918301919091528291906126165780516020820151909350612710906126059062ffffff1686613a53565b61260f9190613ad8565b9150612626565b6126208585612a5c565b90935091505b509250929050565b610a278383836040518060200160405280600081525061181d565b801561265757610e49612b59565b610e49612917565b33612672600a546001600160a01b031690565b6001600160a01b0316148061269157506012546001600160a01b031633145b6114fa5760405162461bcd60e51b815260206004820181905260248201527f4f776e61626c653a2063616c6c6572206973206e6f7420746865206f776e65726044820152606401610986565b600880546001600160a01b038381166001600160a01b0319831681179093556040519116919082907f8be0079c531659141344cd1fd0a4f28419497f9722a3daafe3b4186f6b6457e090600090a35050565b816001600160a01b0316836001600160a01b031614156127915760405162461bcd60e51b815260206004820152601960248201527f4552433732313a20617070726f766520746f2063616c6c6572000000000000006044820152606401610986565b6001600160a01b03838116600081815260056020908152604080832094871680845294825291829020805460ff191686151590811790915591519182527f17307eab39ab6107e8899845ad3d59bd9653f200f220920489ca2b5937696c31910160405180910390a3505050565b61280833836129a4565b6128245760405162461bcd60e51b815260040161098690613b2e565b6111ab84848484612b92565b6060600061283e8585613afa565b612849906001613a72565b67ffffffffffffffff811115612861576128616134ec565b6040519080825280601f01601f19166020018201604052801561288b576020820181803683370190505b50905060005b61289b8686613afa565b811161290e578360016128ae8884613a72565b6128b89190613afa565b815181106128c8576128c8613aa7565b602001015160f81c60f81b8282815181106128e5576128e5613aa7565b60200101906001600160f81b031916908160001a9053508061290681613abd565b915050612891565b50949350505050565b61291f612bc5565b6006805460ff191660011790557f62e78cea01bee320cd4e420270b5ea74000d11b0c9f74754ebdbfc544b05a2586129543390565b6040516001600160a01b03909116815260200160405180910390a1565b61297b8383612c0b565b6129886000848484612c43565b610a275760405162461bcd60e51b815260040161098690613b7b565b6000806129b083611e07565b9050806001600160a01b0316846001600160a01b031614806129f757506001600160a01b0380821660009081526005602090815260408083209388168352929052205460ff165b80610b675750836001600160a01b0316612a10846108ea565b6001600160a01b031614949350505050565b612a2d838383612d41565b600090815260096020526040902080546001600160a01b0319166001600160a01b039290921691909117905550565b600a54600b546001600160a01b03918216916000911615612b2b57600b546040805180820182526013815272524f59414c54595f46494e5f4144445245535360681b6020820152905163bf40fac160e01b81526001600160a01b0390921691600091839163bf40fac191612ad29160040161329c565b602060405180830381865afa158015612aef573d6000803e3d6000fd5b505050506040513d601f19601f82011682018060405250810190612b139190613a8a565b90506001600160a01b03811615612b28578093505b50505b60105480612b3857506101f45b612710612b458286613a53565b612b4f9190613ad8565b9150509250929050565b612b61612eb2565b6006805460ff191690557f5db9ee0a495bf2e6ff9c91a7834c1ba4fdd244a5e8aa4e537bd38aeae4b073aa33612954565b612b9d848484612a22565b612ba984848484612c43565b6111ab5760405162461bcd60e51b815260040161098690613b7b565b60065460ff16156114fa5760405162461bcd60e51b815260206004820152601060248201526f14185d5cd8589b194e881c185d5cd95960821b6044820152606401610986565b612c158282612efb565b600090815260096020526040902080546001600160a01b0319166001600160a01b0392909216919091179055565b60006001600160a01b0384163b15612d3657604051630a85bd0160e11b81526001600160a01b0385169063150b7a0290612c87903390899088908890600401613bcd565b6020604051808303816000875af1925050508015612cc2575060408051601f3d908101601f19168201909252612cbf91810190613c0a565b60015b612d1c573d808015612cf0576040519150601f19603f3d011682016040523d82523d6000602084013e612cf5565b606091505b508051612d145760405162461bcd60e51b815260040161098690613b7b565b805181602001fd5b6001600160e01b031916630a85bd0160e11b149050610b67565b506001949350505050565b826001600160a01b0316612d5482611e07565b6001600160a01b031614612d7a5760405162461bcd60e51b815260040161098690613c27565b6001600160a01b038216612ddc5760405162461bcd60e51b8152602060048201526024808201527f4552433732313a207472616e7366657220746f20746865207a65726f206164646044820152637265737360e01b6064820152608401610986565b612de98383836001613076565b826001600160a01b0316612dfc82611e07565b6001600160a01b031614612e225760405162461bcd60e51b815260040161098690613c27565b600081815260046020908152604080832080546001600160a01b03199081169091556001600160a01b0387811680865260038552838620805460001901905590871680865283862080546001019055868652600290945282852080549092168417909155905184937fddf252ad1be2c89b69c2b068fc378daa952ba7f163c4a11628f55a4df523b3ef91a4505050565b60065460ff166114fa5760405162461bcd60e51b815260206004820152601460248201527314185d5cd8589b194e881b9bdd081c185d5cd95960621b6044820152606401610986565b6001600160a01b038216612f515760405162461bcd60e51b815260206004820181905260248201527f4552433732313a206d696e7420746f20746865207a65726f20616464726573736044820152606401610986565b612f5a81611ed5565b15612fa75760405162461bcd60e51b815260206004820152601c60248201527f4552433732313a20746f6b656e20616c7265616479206d696e746564000000006044820152606401610986565b612fb5600083836001613076565b612fbe81611ed5565b1561300b5760405162461bcd60e51b815260206004820152601c60248201527f4552433732313a20746f6b656e20616c7265616479206d696e746564000000006044820152606401610986565b6001600160a01b038216600081815260036020908152604080832080546001019055848352600290915280822080546001600160a01b0319168417905551839291907fddf252ad1be2c89b69c2b068fc378daa952ba7f163c4a11628f55a4df523b3ef908290a45050565b613082848484846130e9565b60065460ff16156111ab5760405162461bcd60e51b815260206004820152602b60248201527f4552433732315061757361626c653a20746f6b656e207472616e73666572207760448201526a1a1a5b19481c185d5cd95960aa1b6064820152608401610986565b60018111156111ab576001600160a01b0384161561312f576001600160a01b03841660009081526003602052604081208054839290613129908490613afa565b90915550505b6001600160a01b038316156111ab576001600160a01b03831660009081526003602052604081208054839290613166908490613a72565b909155505050505050565b82805461317d90613928565b90600052602060002090601f01602090048101928261319f57600085556131e5565b82601f106131b857805160ff19168380011785556131e5565b828001600101855582156131e5579182015b828111156131e55782518255916020019190600101906131ca565b506131f19291506131f5565b5090565b5b808211156131f157600081556001016131f6565b6001600160e01b031981168114610e4957600080fd5b60006020828403121561323257600080fd5b813561323d8161320a565b9392505050565b60005b8381101561325f578181015183820152602001613247565b838111156111ab5750506000910152565b60008151808452613288816020860160208601613244565b601f01601f19169290920160200192915050565b60208152600061323d6020830184613270565b6000602082840312156132c157600080fd5b5035919050565b6001600160a01b0381168114610e4957600080fd5b80356132e8816132c8565b919050565b6000806040838503121561330057600080fd5b823561330b816132c8565b946020939093013593505050565b60006020828403121561332b57600080fd5b813561323d816132c8565b60008060006060848603121561334b57600080fd5b8335613356816132c8565b92506020840135613366816132c8565b929592945050506040919091013590565b6000806040838503121561338a57600080fd5b50508035926020909101359150565b8015158114610e4957600080fd5b80356132e881613399565b6000602082840312156133c457600080fd5b813561323d81613399565b6001600160a01b038d168152602081018c905262ffffff8b811660408301528a811660608301528981166080830152881660a08201526101a060c0820181905260009061341e8382018a613270565b6001600160a01b03891660e085015290508661010084015261344c6101208401876001600160a01b03169052565b82810361014084015261345f8186613270565b84516101608501526020850151610180850152915061347b9050565b9d9c50505050505050505050505050565b6000806000606084860312156134a157600080fd5b833592506020840135613366816132c8565b600080604083850312156134c657600080fd5b82356134d1816132c8565b915060208301356134e181613399565b809150509250929050565b634e487b7160e01b600052604160045260246000fd5b604051610180810167ffffffffffffffff81118282101715613526576135266134ec565b60405290565b604051601f8201601f1916810167ffffffffffffffff81118282101715613555576135556134ec565b604052919050565b600067ffffffffffffffff821115613577576135776134ec565b50601f01601f191660200190565b60006135986135938461355d565b61352c565b90508281528383830111156135ac57600080fd5b828260208301376000602084830101529392505050565b600080600080608085870312156135d957600080fd5b84356135e4816132c8565b935060208501356135f4816132c8565b925060408501359150606085013567ffffffffffffffff81111561361757600080fd5b8501601f8101871361362857600080fd5b61363787823560208401613585565b91505092959194509250565b803562ffffff811681146132e857600080fd5b600082601f83011261366757600080fd5b61323d83833560208501613585565b60006040828403121561368857600080fd5b6040516040810181811067ffffffffffffffff821117156136ab576136ab6134ec565b604052823581526020928301359281019290925250919050565b600082601f8301126136d657600080fd5b8135602067ffffffffffffffff8211156136f2576136f26134ec565b8160051b61370182820161352c565b928352848101820192828101908785111561371b57600080fd5b83870192505b84831015613743578235613734816132c8565b82529183019190830190613721565b979650505050505050565b600080600080600080600060e0888a03121561376957600080fd5b873567ffffffffffffffff8082111561378157600080fd5b908901906101a0828c03121561379657600080fd5b61379e613502565b6137a7836132dd565b8152602083013560208201526137bf60408401613643565b60408201526137d060608401613643565b60608201526137e160808401613643565b60808201526137f260a08401613643565b60a082015260c08301358281111561380957600080fd5b6138158d828601613656565b60c08301525061382760e084016132dd565b60e082015261010083810135908201526101206138458185016132dd565b90820152610140838101358381111561385d57600080fd5b6138698e828701613656565b82840152505061016061387e8d828601613676565b90820152985061389060208b016132dd565b975061389e60408b016132dd565b96506138ac60608b016132dd565b95506138ba60808b016132dd565b945060a08a01359150808211156138d057600080fd5b506138dd8a828b016136c5565b9250506138ec60c089016133a7565b905092959891949750929550565b6000806040838503121561390d57600080fd5b8235613918816132c8565b915060208301356134e1816132c8565b600181811c9082168061393c57607f821691505b6020821081141561395d57634e487b7160e01b600052602260045260246000fd5b50919050565b60006020828403121561397557600080fd5b5051919050565b60006020828403121561398e57600080fd5b815167ffffffffffffffff8111156139a557600080fd5b8201601f810184136139b657600080fd5b80516139c46135938261355d565b8181528560208385010111156139d957600080fd5b6139ea826020830160208601613244565b95945050505050565b634e487b7160e01b600052601160045260246000fd5b600062ffffff80831681811415613a2257613a226139f3565b6001019392505050565b600062ffffff808316818516808303821115613a4a57613a4a6139f3565b01949350505050565b6000816000190483118215151615613a6d57613a6d6139f3565b500290565b60008219821115613a8557613a856139f3565b500190565b600060208284031215613a9c57600080fd5b815161323d816132c8565b634e487b7160e01b600052603260045260246000fd5b6000600019821415613ad157613ad16139f3565b5060010190565b600082613af557634e487b7160e01b600052601260045260246000fd5b500490565b600082821015613b0c57613b0c6139f3565b500390565b600060208284031215613b2357600080fd5b815161323d81613399565b6020808252602d908201527f4552433732313a2063616c6c6572206973206e6f7420746f6b656e206f776e6560408201526c1c881bdc88185c1c1c9bdd9959609a1b606082015260800190565b60208082526032908201527f4552433732313a207472616e7366657220746f206e6f6e20455243373231526560408201527131b2b4bb32b91034b6b83632b6b2b73a32b960711b606082015260800190565b6001600160a01b0385811682528416602082015260408101839052608060608201819052600090613c0090830184613270565b9695505050505050565b600060208284031215613c1c57600080fd5b815161323d8161320a565b60208082526025908201527f4552433732313a207472616e736665722066726f6d20696e636f72726563742060408201526437bbb732b960d91b60608201526080019056fea26469706673582212204d2ea4cc64be95f7ce8a2f2cd24417b2939e0815562c0d16d52e7143a0bd556464736f6c634300080c0033",
  "linkReferences": {},
  "deployedLinkReferences": {}
}