{
  "_format": "hh-sol-artifact-1",
  "contractName": "RoyaltyFinanceSecondSaleConfigs",
  "sourceName": "contracts/libs/configs/RoyaltyFinanceSecondSaleConfigs.sol",
  "abi": [
    {
      "inputs": [],
      "name": "DEFAULT_OWNER_ROYALTY_SECOND_SALE",
      "outputs": [
        {
          "internalType": "uint256",
          "name": "",
          "type": "uint256"
        }
      ],
      "stateMutability": "view",
      "type": "function"
    },
    {
      "inputs": [],
      "name": "OWNER_ROYALTY_SECOND_SALE",
      "outputs": [
        {
          "internalType": "string",
          "name": "",
          "type": "string"
        }
      ],
      "stateMutability": "view",
      "type": "function"
    }
  ],
  "bytecode": "0x61012f61003a600b82828239805160001a60731461002d57634e487b7160e01b600052600060045260246000fd5b30600052607381538281f3fe7300000000000000000000000000000000000000003014608060405260043610603d5760003560e01c80639669983a146042578063b0cc145a146091575b600080fd5b607d6040518060400160405280601981526020017f4f574e45525f524f59414c54595f5345434f4e445f53414c450000000000000081525081565b6040516088919060a7565b60405180910390f35b609a62015f9081565b6040519081526020016088565b600060208083528351808285015260005b8181101560d25785810183015185820160400152820160b8565b8181111560e3576000604083870101525b50601f01601f191692909201604001939250505056fea2646970667358221220d6c87f5673394309407344a33a6cb60a4631642d6d05edb75919cb85f72b0b5664736f6c634300080c0033",
  "linkReferences": {},
  "deployedLinkReferences": {}
}