{
  "_format": "hh-sol-artifact-1",
  "contractName": "GENToken",
  "sourceName": "contracts/erc20/GENToken.sol",
  "abi": [
    {
      "anonymous": false,
      "inputs": [
        {
          "indexed": true,
          "internalType": "address",
          "name": "owner",
          "type": "address"
        },
        {
          "indexed": true,
          "internalType": "address",
          "name": "spender",
          "type": "address"
        },
        {
          "indexed": false,
          "internalType": "uint256",
          "name": "value",
          "type": "uint256"
        }
      ],
      "name": "Approval",
      "type": "event"
    },
    {
      "anonymous": false,
      "inputs": [
        {
          "indexed": false,
          "internalType": "uint8",
          "name": "version",
          "type": "uint8"
        }
      ],
      "name": "Initialized",
      "type": "event"
    },
    {
      "anonymous": false,
      "inputs": [
        {
          "indexed": true,
          "internalType": "address",
          "name": "previousOwner",
          "type": "address"
        },
        {
          "indexed": true,
          "internalType": "address",
          "name": "newOwner",
          "type": "address"
        }
      ],
      "name": "OwnershipTransferred",
      "type": "event"
    },
    {
      "anonymous": false,
      "inputs": [
        {
          "indexed": false,
          "internalType": "address",
          "name": "account",
          "type": "address"
        }
      ],
      "name": "Paused",
      "type": "event"
    },
    {
      "anonymous": false,
      "inputs": [
        {
          "indexed": true,
          "internalType": "bytes32",
          "name": "role",
          "type": "bytes32"
        },
        {
          "indexed": true,
          "internalType": "bytes32",
          "name": "previousAdminRole",
          "type": "bytes32"
        },
        {
          "indexed": true,
          "internalType": "bytes32",
          "name": "newAdminRole",
          "type": "bytes32"
        }
      ],
      "name": "RoleAdminChanged",
      "type": "event"
    },
    {
      "anonymous": false,
      "inputs": [
        {
          "indexed": true,
          "internalType": "bytes32",
          "name": "role",
          "type": "bytes32"
        },
        {
          "indexed": true,
          "internalType": "address",
          "name": "account",
          "type": "address"
        },
        {
          "indexed": true,
          "internalType": "address",
          "name": "sender",
          "type": "address"
        }
      ],
      "name": "RoleGranted",
      "type": "event"
    },
    {
      "anonymous": false,
      "inputs": [
        {
          "indexed": true,
          "internalType": "bytes32",
          "name": "role",
          "type": "bytes32"
        },
        {
          "indexed": true,
          "internalType": "address",
          "name": "account",
          "type": "address"
        },
        {
          "indexed": true,
          "internalType": "address",
          "name": "sender",
          "type": "address"
        }
      ],
      "name": "RoleRevoked",
      "type": "event"
    },
    {
      "anonymous": false,
      "inputs": [
        {
          "indexed": true,
          "internalType": "address",
          "name": "from",
          "type": "address"
        },
        {
          "indexed": true,
          "internalType": "address",
          "name": "to",
          "type": "address"
        },
        {
          "indexed": false,
          "internalType": "uint256",
          "name": "value",
          "type": "uint256"
        }
      ],
      "name": "Transfer",
      "type": "event"
    },
    {
      "anonymous": false,
      "inputs": [
        {
          "indexed": false,
          "internalType": "address",
          "name": "account",
          "type": "address"
        }
      ],
      "name": "Unpaused",
      "type": "event"
    },
    {
      "inputs": [],
      "name": "DEFAULT_ADMIN_ROLE",
      "outputs": [
        {
          "internalType": "bytes32",
          "name": "",
          "type": "bytes32"
        }
      ],
      "stateMutability": "view",
      "type": "function"
    },
    {
      "inputs": [],
      "name": "MINTER_ROLE",
      "outputs": [
        {
          "internalType": "bytes32",
          "name": "",
          "type": "bytes32"
        }
      ],
      "stateMutability": "view",
      "type": "function"
    },
    {
      "inputs": [],
      "name": "PAUSER_ROLE",
      "outputs": [
        {
          "internalType": "bytes32",
          "name": "",
          "type": "bytes32"
        }
      ],
      "stateMutability": "view",
      "type": "function"
    },
    {
      "inputs": [],
      "name": "_admin",
      "outputs": [
        {
          "internalType": "address",
          "name": "",
          "type": "address"
        }
      ],
      "stateMutability": "view",
      "type": "function"
    },
    {
      "inputs": [
        {
          "internalType": "address",
          "name": "owner",
          "type": "address"
        },
        {
          "internalType": "address",
          "name": "spender",
          "type": "address"
        }
      ],
      "name": "allowance",
      "outputs": [
        {
          "internalType": "uint256",
          "name": "",
          "type": "uint256"
        }
      ],
      "stateMutability": "view",
      "type": "function"
    },
    {
      "inputs": [
        {
          "internalType": "address",
          "name": "spender",
          "type": "address"
        },
        {
          "internalType": "uint256",
          "name": "amount",
          "type": "uint256"
        }
      ],
      "name": "approve",
      "outputs": [
        {
          "internalType": "bool",
          "name": "",
          "type": "bool"
        }
      ],
      "stateMutability": "nonpayable",
      "type": "function"
    },
    {
      "inputs": [
        {
          "internalType": "address",
          "name": "account",
          "type": "address"
        }
      ],
      "name": "balanceOf",
      "outputs": [
        {
          "internalType": "uint256",
          "name": "",
          "type": "uint256"
        }
      ],
      "stateMutability": "view",
      "type": "function"
    },
    {
      "inputs": [
        {
          "internalType": "uint256",
          "name": "amount",
          "type": "uint256"
        }
      ],
      "name": "burn",
      "outputs": [],
      "stateMutability": "nonpayable",
      "type": "function"
    },
    {
      "inputs": [
        {
          "internalType": "address",
          "name": "account",
          "type": "address"
        },
        {
          "internalType": "uint256",
          "name": "amount",
          "type": "uint256"
        }
      ],
      "name": "burnFrom",
      "outputs": [],
      "stateMutability": "nonpayable",
      "type": "function"
    },
    {
      "inputs": [
        {
          "internalType": "address",
          "name": "_newAdmin",
          "type": "address"
        }
      ],
      "name": "changeAdmin",
      "outputs": [],
      "stateMutability": "nonpayable",
      "type": "function"
    },
    {
      "inputs": [],
      "name": "decimals",
      "outputs": [
        {
          "internalType": "uint8",
          "name": "",
          "type": "uint8"
        }
      ],
      "stateMutability": "pure",
      "type": "function"
    },
    {
      "inputs": [
        {
          "internalType": "address",
          "name": "spender",
          "type": "address"
        },
        {
          "internalType": "uint256",
          "name": "subtractedValue",
          "type": "uint256"
        }
      ],
      "name": "decreaseAllowance",
      "outputs": [
        {
          "internalType": "bool",
          "name": "",
          "type": "bool"
        }
      ],
      "stateMutability": "nonpayable",
      "type": "function"
    },
    {
      "inputs": [
        {
          "internalType": "bytes32",
          "name": "role",
          "type": "bytes32"
        }
      ],
      "name": "getRoleAdmin",
      "outputs": [
        {
          "internalType": "bytes32",
          "name": "",
          "type": "bytes32"
        }
      ],
      "stateMutability": "view",
      "type": "function"
    },
    {
      "inputs": [
        {
          "internalType": "bytes32",
          "name": "role",
          "type": "bytes32"
        },
        {
          "internalType": "uint256",
          "name": "index",
          "type": "uint256"
        }
      ],
      "name": "getRoleMember",
      "outputs": [
        {
          "internalType": "address",
          "name": "",
          "type": "address"
        }
      ],
      "stateMutability": "view",
      "type": "function"
    },
    {
      "inputs": [
        {
          "internalType": "bytes32",
          "name": "role",
          "type": "bytes32"
        }
      ],
      "name": "getRoleMemberCount",
      "outputs": [
        {
          "internalType": "uint256",
          "name": "",
          "type": "uint256"
        }
      ],
      "stateMutability": "view",
      "type": "function"
    },
    {
      "inputs": [
        {
          "internalType": "bytes32",
          "name": "role",
          "type": "bytes32"
        },
        {
          "internalType": "address",
          "name": "account",
          "type": "address"
        }
      ],
      "name": "grantRole",
      "outputs": [],
      "stateMutability": "nonpayable",
      "type": "function"
    },
    {
      "inputs": [
        {
          "internalType": "bytes32",
          "name": "role",
          "type": "bytes32"
        },
        {
          "internalType": "address",
          "name": "account",
          "type": "address"
        }
      ],
      "name": "hasRole",
      "outputs": [
        {
          "internalType": "bool",
          "name": "",
          "type": "bool"
        }
      ],
      "stateMutability": "view",
      "type": "function"
    },
    {
      "inputs": [
        {
          "internalType": "address",
          "name": "spender",
          "type": "address"
        },
        {
          "internalType": "uint256",
          "name": "addedValue",
          "type": "uint256"
        }
      ],
      "name": "increaseAllowance",
      "outputs": [
        {
          "internalType": "bool",
          "name": "",
          "type": "bool"
        }
      ],
      "stateMutability": "nonpayable",
      "type": "function"
    },
    {
      "inputs": [
        {
          "internalType": "string",
          "name": "name",
          "type": "string"
        },
        {
          "internalType": "string",
          "name": "symbol",
          "type": "string"
        }
      ],
      "name": "initialize",
      "outputs": [],
      "stateMutability": "nonpayable",
      "type": "function"
    },
    {
      "inputs": [
        {
          "internalType": "string",
          "name": "name",
          "type": "string"
        },
        {
          "internalType": "string",
          "name": "symbol",
          "type": "string"
        },
        {
          "internalType": "address",
          "name": "admin",
          "type": "address"
        },
        {
          "internalType": "uint256",
          "name": "initSupply",
          "type": "uint256"
        }
      ],
      "name": "initialize",
      "outputs": [],
      "stateMutability": "nonpayable",
      "type": "function"
    },
    {
      "inputs": [
        {
          "internalType": "address",
          "name": "to",
          "type": "address"
        },
        {
          "internalType": "uint256",
          "name": "amount",
          "type": "uint256"
        }
      ],
      "name": "mint",
      "outputs": [],
      "stateMutability": "nonpayable",
      "type": "function"
    },
    {
      "inputs": [
        {
          "internalType": "address",
          "name": "to",
          "type": "address"
        }
      ],
      "name": "mintByBlock",
      "outputs": [],
      "stateMutability": "nonpayable",
      "type": "function"
    },
    {
      "inputs": [],
      "name": "name",
      "outputs": [
        {
          "internalType": "string",
          "name": "",
          "type": "string"
        }
      ],
      "stateMutability": "view",
      "type": "function"
    },
    {
      "inputs": [],
      "name": "owner",
      "outputs": [
        {
          "internalType": "address",
          "name": "",
          "type": "address"
        }
      ],
      "stateMutability": "view",
      "type": "function"
    },
    {
      "inputs": [],
      "name": "pause",
      "outputs": [],
      "stateMutability": "nonpayable",
      "type": "function"
    },
    {
      "inputs": [],
      "name": "paused",
      "outputs": [
        {
          "internalType": "bool",
          "name": "",
          "type": "bool"
        }
      ],
      "stateMutability": "view",
      "type": "function"
    },
    {
      "inputs": [],
      "name": "renounceOwnership",
      "outputs": [],
      "stateMutability": "nonpayable",
      "type": "function"
    },
    {
      "inputs": [
        {
          "internalType": "bytes32",
          "name": "role",
          "type": "bytes32"
        },
        {
          "internalType": "address",
          "name": "account",
          "type": "address"
        }
      ],
      "name": "renounceRole",
      "outputs": [],
      "stateMutability": "nonpayable",
      "type": "function"
    },
    {
      "inputs": [
        {
          "internalType": "bytes32",
          "name": "role",
          "type": "bytes32"
        },
        {
          "internalType": "address",
          "name": "account",
          "type": "address"
        }
      ],
      "name": "revokeRole",
      "outputs": [],
      "stateMutability": "nonpayable",
      "type": "function"
    },
    {
      "inputs": [
        {
          "internalType": "bytes4",
          "name": "interfaceId",
          "type": "bytes4"
        }
      ],
      "name": "supportsInterface",
      "outputs": [
        {
          "internalType": "bool",
          "name": "",
          "type": "bool"
        }
      ],
      "stateMutability": "view",
      "type": "function"
    },
    {
      "inputs": [],
      "name": "symbol",
      "outputs": [
        {
          "internalType": "string",
          "name": "",
          "type": "string"
        }
      ],
      "stateMutability": "view",
      "type": "function"
    },
    {
      "inputs": [],
      "name": "totalSupply",
      "outputs": [
        {
          "internalType": "uint256",
          "name": "",
          "type": "uint256"
        }
      ],
      "stateMutability": "view",
      "type": "function"
    },
    {
      "inputs": [
        {
          "internalType": "address",
          "name": "to",
          "type": "address"
        },
        {
          "internalType": "uint256",
          "name": "amount",
          "type": "uint256"
        }
      ],
      "name": "transfer",
      "outputs": [
        {
          "internalType": "bool",
          "name": "",
          "type": "bool"
        }
      ],
      "stateMutability": "nonpayable",
      "type": "function"
    },
    {
      "inputs": [
        {
          "internalType": "address",
          "name": "from",
          "type": "address"
        },
        {
          "internalType": "address",
          "name": "to",
          "type": "address"
        },
        {
          "internalType": "uint256",
          "name": "amount",
          "type": "uint256"
        }
      ],
      "name": "transferFrom",
      "outputs": [
        {
          "internalType": "bool",
          "name": "",
          "type": "bool"
        }
      ],
      "stateMutability": "nonpayable",
      "type": "function"
    },
    {
      "inputs": [
        {
          "internalType": "address",
          "name": "newOwner",
          "type": "address"
        }
      ],
      "name": "transferOwnership",
      "outputs": [],
      "stateMutability": "nonpayable",
      "type": "function"
    },
    {
      "inputs": [],
      "name": "unpause",
      "outputs": [],
      "stateMutability": "nonpayable",
      "type": "function"
    }
  ],
  "bytecode": "0x608060405234801561001057600080fd5b5061214f806100206000396000f3fe608060405234801561001057600080fd5b506004361061021c5760003560e01c806379cc679011610125578063a749d4f3116100ad578063d547741f1161007c578063d547741f14610496578063dd62ed3e146104a9578063e63ab1e9146104bc578063f2fde38b146104d1578063f542033f146104e457600080fd5b8063a749d4f314610436578063a9059cbb14610449578063ca15c8731461045c578063d53913931461046f57600080fd5b80639010d07c116100f45780639010d07c146103ed57806391d148541461040057806395d89b4114610413578063a217fddf1461041b578063a457c2d71461042357600080fd5b806379cc6790146103ad5780638456cb59146103c05780638da5cb5b146103c85780638f283970146103da57600080fd5b806336568abe116101a857806342966c681161017757806342966c681461034a5780634cd88b761461035d5780635c975abb1461037057806370a082311461037c578063715018a6146103a557600080fd5b806336568abe14610309578063395093511461031c5780633f4ba83a1461032f57806340c10f191461033757600080fd5b806318160ddd116101ef57806318160ddd1461029d57806323b872dd146102af578063248a9ca3146102c25780632f2ff15d146102e5578063313ce567146102fa57600080fd5b806301bc45c91461022157806301ffc9a71461025257806306fdde0314610275578063095ea7b31461028a575b600080fd5b6101f554610235906001600160a01b031681565b6040516001600160a01b0390911681526020015b60405180910390f35b610265610260366004611bcf565b6104f7565b6040519015158152602001610249565b61027d610522565b6040516102499190611c25565b610265610298366004611c74565b6105b4565b60cb545b604051908152602001610249565b6102656102bd366004611c9e565b6105cc565b6102a16102d0366004611cda565b60009081526065602052604090206001015490565b6102f86102f3366004611cf3565b6105f0565b005b60405160048152602001610249565b6102f8610317366004611cf3565b61061a565b61026561032a366004611c74565b61069d565b6102f86106bf565b6102f8610345366004611c74565b610753565b6102f8610358366004611cda565b6107ad565b6102f861036b366004611dc2565b6107ba565b61012d5460ff16610265565b6102a161038a366004611e26565b6001600160a01b0316600090815260c9602052604090205490565b6102f8610887565b6102f86103bb366004611c74565b610899565b6102f86108ae565b6101c3546001600160a01b0316610235565b6102f86103e8366004611e26565b610940565b6102356103fb366004611e41565b6109c5565b61026561040e366004611cf3565b6109e4565b61027d610a0f565b6102a1600081565b610265610431366004611c74565b610a1e565b6102f8610444366004611e26565b610a99565b610265610457366004611c74565b610aa1565b6102a161046a366004611cda565b610aaf565b6102a17f9f2df0fed2c77648de5860a4cc508cd0818c85b8b8a1ab4ceeef8d981c8956a681565b6102f86104a4366004611cf3565b610ac6565b6102a16104b7366004611e63565b610aeb565b6102a16000805160206120fa83398151915281565b6102f86104df366004611e26565b610b16565b6102f86104f2366004611e8d565b610b8c565b60006001600160e01b03198216635a05180f60e01b148061051c575061051c82610cce565b92915050565b606060cc805461053190611f09565b80601f016020809104026020016040519081016040528092919081815260200182805461055d90611f09565b80156105aa5780601f1061057f576101008083540402835291602001916105aa565b820191906000526020600020905b81548152906001019060200180831161058d57829003601f168201915b5050505050905090565b6000336105c2818585610d03565b5060019392505050565b6000336105da858285610e27565b6105e5858585610ea1565b506001949350505050565b60008281526065602052604090206001015461060b81611057565b6106158383611061565b505050565b6001600160a01b038116331461068f5760405162461bcd60e51b815260206004820152602f60248201527f416363657373436f6e74726f6c3a2063616e206f6e6c792072656e6f756e636560448201526e103937b632b9903337b91039b2b63360891b60648201526084015b60405180910390fd5b6106998282611083565b5050565b6000336105c28185856106b08383610aeb565b6106ba9190611f5a565b610d03565b6106d76000805160206120fa833981519152336109e4565b6107495760405162461bcd60e51b815260206004820152603960248201527f45524332305072657365744d696e7465725061757365723a206d75737420686160448201527f76652070617573657220726f6c6520746f20756e7061757365000000000000006064820152608401610686565b6107516110a5565b565b61075b6110f8565b6101f55460408051808201909152600381526231303160e81b6020820152906001600160a01b031633146107a25760405162461bcd60e51b81526004016106869190611c25565b50610699828261113f565b6107b7338261120c565b50565b600054610100900460ff16158080156107da5750600054600160ff909116105b806107f45750303b1580156107f4575060005460ff166001145b6108105760405162461bcd60e51b815260040161068690611f72565b6000805460ff191660011790558015610833576000805461ff0019166101001790555b61083d838361134c565b8015610615576000805461ff0019169055604051600181527f7f26b83ff96e1f2b6a682f133852f6798a09c465da95921460cefb38474024989060200160405180910390a1505050565b61088f61138f565b61075160006113ea565b6108a4823383610e27565b610699828261120c565b6108c66000805160206120fa833981519152336109e4565b6109385760405162461bcd60e51b815260206004820152603760248201527f45524332305072657365744d696e7465725061757365723a206d75737420686160448201527f76652070617573657220726f6c6520746f2070617573650000000000000000006064820152608401610686565b61075161143d565b6001600160a01b0381161580159061096757506101f5546001600160a01b03828116911614155b6040518060400160405280600381526020016203130360ec1b815250906109a15760405162461bcd60e51b81526004016106869190611c25565b506101f580546001600160a01b0319166001600160a01b0392909216919091179055565b60008281526097602052604081206109dd908361147b565b9392505050565b60009182526065602090815260408084206001600160a01b0393909316845291905290205460ff1690565b606060cd805461053190611f09565b60003381610a2c8286610aeb565b905083811015610a8c5760405162461bcd60e51b815260206004820152602560248201527f45524332303a2064656372656173656420616c6c6f77616e63652062656c6f77604482015264207a65726f60d81b6064820152608401610686565b6105e58286868403610d03565b61021c6110f8565b6000336105c2818585610ea1565b600081815260976020526040812061051c90611487565b600082815260656020526040902060010154610ae181611057565b6106158383611083565b6001600160a01b03918216600090815260ca6020908152604080832093909416825291909152205490565b610b1e61138f565b6001600160a01b038116610b835760405162461bcd60e51b815260206004820152602660248201527f4f776e61626c653a206e6577206f776e657220697320746865207a65726f206160448201526564647265737360d01b6064820152608401610686565b6107b7816113ea565b600054610100900460ff1615808015610bac5750600054600160ff909116105b80610bc65750303b158015610bc6575060005460ff166001145b610be25760405162461bcd60e51b815260040161068690611f72565b6000805460ff191660011790558015610c05576000805461ff0019166101001790555b60408051808201909152600381526203130360ec1b60208201526001600160a01b038416610c465760405162461bcd60e51b81526004016106869190611c25565b506101f580546001600160a01b0319166001600160a01b03851617905581610c6e8482610753565b610c78868661134c565b610c80611491565b508015610cc7576000805461ff0019169055604051600181527f7f26b83ff96e1f2b6a682f133852f6798a09c465da95921460cefb38474024989060200160405180910390a15b5050505050565b60006001600160e01b03198216637965db0b60e01b148061051c57506301ffc9a760e01b6001600160e01b031983161461051c565b6001600160a01b038316610d655760405162461bcd60e51b8152602060048201526024808201527f45524332303a20617070726f76652066726f6d20746865207a65726f206164646044820152637265737360e01b6064820152608401610686565b6001600160a01b038216610dc65760405162461bcd60e51b815260206004820152602260248201527f45524332303a20617070726f766520746f20746865207a65726f206164647265604482015261737360f01b6064820152608401610686565b6001600160a01b03838116600081815260ca602090815260408083209487168084529482529182902085905590518481527f8c5be1e5ebec7d5bd14f71427d1e84f3dd0314c0f7b2291e5b200ac8c7c3b925910160405180910390a3505050565b6000610e338484610aeb565b90506000198114610e9b5781811015610e8e5760405162461bcd60e51b815260206004820152601d60248201527f45524332303a20696e73756666696369656e7420616c6c6f77616e63650000006044820152606401610686565b610e9b8484848403610d03565b50505050565b6001600160a01b038316610f055760405162461bcd60e51b815260206004820152602560248201527f45524332303a207472616e736665722066726f6d20746865207a65726f206164604482015264647265737360d81b6064820152608401610686565b6001600160a01b038216610f675760405162461bcd60e51b815260206004820152602360248201527f45524332303a207472616e7366657220746f20746865207a65726f206164647260448201526265737360e81b6064820152608401610686565b610f728383836114c0565b6001600160a01b038316600090815260c9602052604090205481811015610fea5760405162461bcd60e51b815260206004820152602660248201527f45524332303a207472616e7366657220616d6f756e7420657863656564732062604482015265616c616e636560d01b6064820152608401610686565b6001600160a01b03808516600081815260c9602052604080822086860390559286168082529083902080548601905591517fddf252ad1be2c89b69c2b068fc378daa952ba7f163c4a11628f55a4df523b3ef9061104a9086815260200190565b60405180910390a3610e9b565b6107b781336114cb565b61106b8282611524565b600082815260976020526040902061061590826115aa565b61108d82826115bf565b60008281526097602052604090206106159082611626565b6110ad61163b565b61012d805460ff191690557f5db9ee0a495bf2e6ff9c91a7834c1ba4fdd244a5e8aa4e537bd38aeae4b073aa335b6040516001600160a01b03909116815260200160405180910390a1565b61012d5460ff16156107515760405162461bcd60e51b815260206004820152601060248201526f14185d5cd8589b194e881c185d5cd95960821b6044820152606401610686565b6001600160a01b0382166111955760405162461bcd60e51b815260206004820152601f60248201527f45524332303a206d696e7420746f20746865207a65726f2061646472657373006044820152606401610686565b6111a1600083836114c0565b8060cb60008282546111b39190611f5a565b90915550506001600160a01b038216600081815260c960209081526040808320805486019055518481527fddf252ad1be2c89b69c2b068fc378daa952ba7f163c4a11628f55a4df523b3ef910160405180910390a35050565b6001600160a01b03821661126c5760405162461bcd60e51b815260206004820152602160248201527f45524332303a206275726e2066726f6d20746865207a65726f206164647265736044820152607360f81b6064820152608401610686565b611278826000836114c0565b6001600160a01b038216600090815260c96020526040902054818110156112ec5760405162461bcd60e51b815260206004820152602260248201527f45524332303a206275726e20616d6f756e7420657863656564732062616c616e604482015261636560f01b6064820152608401610686565b6001600160a01b038316600081815260c960209081526040808320868603905560cb80548790039055518581529192917fddf252ad1be2c89b69c2b068fc378daa952ba7f163c4a11628f55a4df523b3ef910160405180910390a3505050565b600054610100900460ff166113735760405162461bcd60e51b815260040161068690611fc0565b61137d8282611685565b6113856116d3565b6106998282611707565b6101c3546001600160a01b031633146107515760405162461bcd60e51b815260206004820181905260248201527f4f776e61626c653a2063616c6c6572206973206e6f7420746865206f776e65726044820152606401610686565b6101c380546001600160a01b038381166001600160a01b0319831681179093556040519116919082907f8be0079c531659141344cd1fd0a4f28419497f9722a3daafe3b4186f6b6457e090600090a35050565b6114456110f8565b61012d805460ff191660011790557f62e78cea01bee320cd4e420270b5ea74000d11b0c9f74754ebdbfc544b05a2586110db3390565b60006109dd838361177b565b600061051c825490565b600054610100900460ff166114b85760405162461bcd60e51b815260040161068690611fc0565b6107516117a5565b6106158383836117d5565b6114d582826109e4565b610699576114e28161183c565b6114ed83602061184e565b6040516020016114fe92919061200b565b60408051601f198184030181529082905262461bcd60e51b825261068691600401611c25565b61152e82826109e4565b6106995760008281526065602090815260408083206001600160a01b03851684529091529020805460ff191660011790556115663390565b6001600160a01b0316816001600160a01b0316837f2f8788117e7eff1d82e926ec794901d17c78024a50270940304540a733656f0d60405160405180910390a45050565b60006109dd836001600160a01b0384166119ea565b6115c982826109e4565b156106995760008281526065602090815260408083206001600160a01b0385168085529252808320805460ff1916905551339285917ff6391f5c32d9c69d2a47ea670b442974b53935d1edc7fd64eb21e047a839171b9190a45050565b60006109dd836001600160a01b038416611a39565b61012d5460ff166107515760405162461bcd60e51b815260206004820152601460248201527314185d5cd8589b194e881b9bdd081c185d5cd95960621b6044820152606401610686565b600054610100900460ff166116ac5760405162461bcd60e51b815260040161068690611fc0565b81516116bf9060cc906020850190611b36565b5080516106159060cd906020840190611b36565b600054610100900460ff166116fa5760405162461bcd60e51b815260040161068690611fc0565b61012d805460ff19169055565b600054610100900460ff1661172e5760405162461bcd60e51b815260040161068690611fc0565b611739600033611b2c565b6117637f9f2df0fed2c77648de5860a4cc508cd0818c85b8b8a1ab4ceeef8d981c8956a633611b2c565b6106996000805160206120fa83398151915233611b2c565b600082600001828154811061179257611792612080565b9060005260206000200154905092915050565b600054610100900460ff166117cc5760405162461bcd60e51b815260040161068690611fc0565b610751336113ea565b61012d5460ff16156106155760405162461bcd60e51b815260206004820152602a60248201527f45524332305061757361626c653a20746f6b656e207472616e736665722077686044820152691a5b19481c185d5cd95960b21b6064820152608401610686565b606061051c6001600160a01b03831660145b6060600061185d836002612096565b611868906002611f5a565b67ffffffffffffffff81111561188057611880611d1f565b6040519080825280601f01601f1916602001820160405280156118aa576020820181803683370190505b509050600360fc1b816000815181106118c5576118c5612080565b60200101906001600160f81b031916908160001a905350600f60fb1b816001815181106118f4576118f4612080565b60200101906001600160f81b031916908160001a9053506000611918846002612096565b611923906001611f5a565b90505b600181111561199b576f181899199a1a9b1b9c1cb0b131b232b360811b85600f166010811061195757611957612080565b1a60f81b82828151811061196d5761196d612080565b60200101906001600160f81b031916908160001a90535060049490941c93611994816120b5565b9050611926565b5083156109dd5760405162461bcd60e51b815260206004820181905260248201527f537472696e67733a20686578206c656e67746820696e73756666696369656e746044820152606401610686565b6000818152600183016020526040812054611a315750815460018181018455600084815260208082209093018490558454848252828601909352604090209190915561051c565b50600061051c565b60008181526001830160205260408120548015611b22576000611a5d6001836120cc565b8554909150600090611a71906001906120cc565b9050818114611ad6576000866000018281548110611a9157611a91612080565b9060005260206000200154905080876000018481548110611ab457611ab4612080565b6000918252602080832090910192909255918252600188019052604090208390555b8554869080611ae757611ae76120e3565b60019003818190600052602060002001600090559055856001016000868152602001908152602001600020600090556001935050505061051c565b600091505061051c565b6106998282611061565b828054611b4290611f09565b90600052602060002090601f016020900481019282611b645760008555611baa565b82601f10611b7d57805160ff1916838001178555611baa565b82800160010185558215611baa579182015b82811115611baa578251825591602001919060010190611b8f565b50611bb6929150611bba565b5090565b5b80821115611bb65760008155600101611bbb565b600060208284031215611be157600080fd5b81356001600160e01b0319811681146109dd57600080fd5b60005b83811015611c14578181015183820152602001611bfc565b83811115610e9b5750506000910152565b6020815260008251806020840152611c44816040850160208701611bf9565b601f01601f19169190910160400192915050565b80356001600160a01b0381168114611c6f57600080fd5b919050565b60008060408385031215611c8757600080fd5b611c9083611c58565b946020939093013593505050565b600080600060608486031215611cb357600080fd5b611cbc84611c58565b9250611cca60208501611c58565b9150604084013590509250925092565b600060208284031215611cec57600080fd5b5035919050565b60008060408385031215611d0657600080fd5b82359150611d1660208401611c58565b90509250929050565b634e487b7160e01b600052604160045260246000fd5b600082601f830112611d4657600080fd5b813567ffffffffffffffff80821115611d6157611d61611d1f565b604051601f8301601f19908116603f01168101908282118183101715611d8957611d89611d1f565b81604052838152866020858801011115611da257600080fd5b836020870160208301376000602085830101528094505050505092915050565b60008060408385031215611dd557600080fd5b823567ffffffffffffffff80821115611ded57600080fd5b611df986838701611d35565b93506020850135915080821115611e0f57600080fd5b50611e1c85828601611d35565b9150509250929050565b600060208284031215611e3857600080fd5b6109dd82611c58565b60008060408385031215611e5457600080fd5b50508035926020909101359150565b60008060408385031215611e7657600080fd5b611e7f83611c58565b9150611d1660208401611c58565b60008060008060808587031215611ea357600080fd5b843567ffffffffffffffff80821115611ebb57600080fd5b611ec788838901611d35565b95506020870135915080821115611edd57600080fd5b50611eea87828801611d35565b935050611ef960408601611c58565b9396929550929360600135925050565b600181811c90821680611f1d57607f821691505b60208210811415611f3e57634e487b7160e01b600052602260045260246000fd5b50919050565b634e487b7160e01b600052601160045260246000fd5b60008219821115611f6d57611f6d611f44565b500190565b6020808252602e908201527f496e697469616c697a61626c653a20636f6e747261637420697320616c72656160408201526d191e481a5b9a5d1a585b1a5e995960921b606082015260800190565b6020808252602b908201527f496e697469616c697a61626c653a20636f6e7472616374206973206e6f74206960408201526a6e697469616c697a696e6760a81b606082015260800190565b7f416363657373436f6e74726f6c3a206163636f756e7420000000000000000000815260008351612043816017850160208801611bf9565b7001034b99036b4b9b9b4b733903937b6329607d1b6017918401918201528351612074816028840160208801611bf9565b01602801949350505050565b634e487b7160e01b600052603260045260246000fd5b60008160001904831182151516156120b0576120b0611f44565b500290565b6000816120c4576120c4611f44565b506000190190565b6000828210156120de576120de611f44565b500390565b634e487b7160e01b600052603160045260246000fdfe65d7a28e3265b37a6474929f336521b332c1681b933f6cb9f3376673440d862aa26469706673582212202253b699da6000e6bd4e9ed50dd13764a6d32e3898be1df1cb573a46524e077064736f6c634300080c0033",
  "linkReferences": {},
  "deployedLinkReferences": {}
}