{
  "_format": "hh-sol-artifact-1",
  "contractName": "GENToken",
  "sourceName": "contracts/erc20/GENToken.sol",
  "abi": [
    {
      "anonymous": false,
      "inputs": [
        {
          "indexed": true,
          "internalType": "address",
          "name": "owner",
          "type": "address"
        },
        {
          "indexed": true,
          "internalType": "address",
          "name": "spender",
          "type": "address"
        },
        {
          "indexed": false,
          "internalType": "uint256",
          "name": "value",
          "type": "uint256"
        }
      ],
      "name": "Approval",
      "type": "event"
    },
    {
      "anonymous": false,
      "inputs": [
        {
          "indexed": false,
          "internalType": "address",
          "name": "to",
          "type": "address"
        },
        {
          "indexed": false,
          "internalType": "uint256",
          "name": "amount",
          "type": "uint256"
        },
        {
          "indexed": false,
          "internalType": "uint256",
          "name": "primary",
          "type": "uint256"
        },
        {
          "indexed": false,
          "internalType": "uint256",
          "name": "",
          "type": "uint256"
        },
        {
          "indexed": false,
          "internalType": "uint256",
          "name": "second",
          "type": "uint256"
        }
      ],
      "name": "ClaimToken",
      "type": "event"
    },
    {
      "anonymous": false,
      "inputs": [
        {
          "indexed": true,
          "internalType": "address",
          "name": "delegator",
          "type": "address"
        },
        {
          "indexed": true,
          "internalType": "address",
          "name": "fromDelegate",
          "type": "address"
        },
        {
          "indexed": true,
          "internalType": "address",
          "name": "toDelegate",
          "type": "address"
        }
      ],
      "name": "DelegateChanged",
      "type": "event"
    },
    {
      "anonymous": false,
      "inputs": [
        {
          "indexed": true,
          "internalType": "address",
          "name": "delegate",
          "type": "address"
        },
        {
          "indexed": false,
          "internalType": "uint256",
          "name": "previousBalance",
          "type": "uint256"
        },
        {
          "indexed": false,
          "internalType": "uint256",
          "name": "newBalance",
          "type": "uint256"
        }
      ],
      "name": "DelegateVotesChanged",
      "type": "event"
    },
    {
      "anonymous": false,
      "inputs": [],
      "name": "EIP712DomainChanged",
      "type": "event"
    },
    {
      "anonymous": false,
      "inputs": [
        {
          "indexed": false,
          "internalType": "uint8",
          "name": "version",
          "type": "uint8"
        }
      ],
      "name": "Initialized",
      "type": "event"
    },
    {
      "anonymous": false,
      "inputs": [
        {
          "indexed": false,
          "internalType": "address",
          "name": "genNFT",
          "type": "address"
        }
      ],
      "name": "NotSupportProjectAddress",
      "type": "event"
    },
    {
      "anonymous": false,
      "inputs": [
        {
          "indexed": false,
          "internalType": "address",
          "name": "genNFT",
          "type": "address"
        }
      ],
      "name": "NotSupportProjectIndex",
      "type": "event"
    },
    {
      "anonymous": false,
      "inputs": [
        {
          "indexed": true,
          "internalType": "address",
          "name": "previousOwner",
          "type": "address"
        },
        {
          "indexed": true,
          "internalType": "address",
          "name": "newOwner",
          "type": "address"
        }
      ],
      "name": "OwnershipTransferred",
      "type": "event"
    },
    {
      "anonymous": false,
      "inputs": [
        {
          "indexed": false,
          "internalType": "address",
          "name": "account",
          "type": "address"
        }
      ],
      "name": "Paused",
      "type": "event"
    },
    {
      "anonymous": false,
      "inputs": [
        {
          "indexed": true,
          "internalType": "address",
          "name": "from",
          "type": "address"
        },
        {
          "indexed": true,
          "internalType": "address",
          "name": "to",
          "type": "address"
        },
        {
          "indexed": false,
          "internalType": "uint256",
          "name": "value",
          "type": "uint256"
        }
      ],
      "name": "Transfer",
      "type": "event"
    },
    {
      "anonymous": false,
      "inputs": [
        {
          "indexed": false,
          "internalType": "address",
          "name": "account",
          "type": "address"
        }
      ],
      "name": "Unpaused",
      "type": "event"
    },
    {
      "inputs": [],
      "name": "CLOCK_MODE",
      "outputs": [
        {
          "internalType": "string",
          "name": "",
          "type": "string"
        }
      ],
      "stateMutability": "view",
      "type": "function"
    },
    {
      "inputs": [],
      "name": "DOMAIN_SEPARATOR",
      "outputs": [
        {
          "internalType": "bytes32",
          "name": "",
          "type": "bytes32"
        }
      ],
      "stateMutability": "view",
      "type": "function"
    },
    {
      "inputs": [],
      "name": "_admin",
      "outputs": [
        {
          "internalType": "address",
          "name": "",
          "type": "address"
        }
      ],
      "stateMutability": "view",
      "type": "function"
    },
    {
      "inputs": [],
      "name": "_paramAddr",
      "outputs": [
        {
          "internalType": "address",
          "name": "",
          "type": "address"
        }
      ],
      "stateMutability": "view",
      "type": "function"
    },
    {
      "inputs": [
        {
          "internalType": "address",
          "name": "owner",
          "type": "address"
        },
        {
          "internalType": "address",
          "name": "spender",
          "type": "address"
        }
      ],
      "name": "allowance",
      "outputs": [
        {
          "internalType": "uint256",
          "name": "",
          "type": "uint256"
        }
      ],
      "stateMutability": "view",
      "type": "function"
    },
    {
      "inputs": [
        {
          "internalType": "address",
          "name": "spender",
          "type": "address"
        },
        {
          "internalType": "uint256",
          "name": "amount",
          "type": "uint256"
        }
      ],
      "name": "approve",
      "outputs": [
        {
          "internalType": "bool",
          "name": "",
          "type": "bool"
        }
      ],
      "stateMutability": "nonpayable",
      "type": "function"
    },
    {
      "inputs": [
        {
          "internalType": "address",
          "name": "account",
          "type": "address"
        }
      ],
      "name": "balanceOf",
      "outputs": [
        {
          "internalType": "uint256",
          "name": "",
          "type": "uint256"
        }
      ],
      "stateMutability": "view",
      "type": "function"
    },
    {
      "inputs": [
        {
          "internalType": "uint256",
          "name": "amount",
          "type": "uint256"
        }
      ],
      "name": "burn",
      "outputs": [],
      "stateMutability": "nonpayable",
      "type": "function"
    },
    {
      "inputs": [
        {
          "internalType": "address",
          "name": "account",
          "type": "address"
        },
        {
          "internalType": "uint256",
          "name": "amount",
          "type": "uint256"
        }
      ],
      "name": "burnFrom",
      "outputs": [],
      "stateMutability": "nonpayable",
      "type": "function"
    },
    {
      "inputs": [
        {
          "internalType": "address",
          "name": "newAdm",
          "type": "address"
        }
      ],
      "name": "changeAdmin",
      "outputs": [],
      "stateMutability": "nonpayable",
      "type": "function"
    },
    {
      "inputs": [
        {
          "internalType": "address",
          "name": "newAddr",
          "type": "address"
        }
      ],
      "name": "changeParamAddress",
      "outputs": [],
      "stateMutability": "nonpayable",
      "type": "function"
    },
    {
      "inputs": [
        {
          "internalType": "address",
          "name": "account",
          "type": "address"
        },
        {
          "internalType": "uint32",
          "name": "pos",
          "type": "uint32"
        }
      ],
      "name": "checkpoints",
      "outputs": [
        {
          "components": [
            {
              "internalType": "uint32",
              "name": "fromBlock",
              "type": "uint32"
            },
            {
              "internalType": "uint224",
              "name": "votes",
              "type": "uint224"
            }
          ],
          "internalType": "struct ERC20VotesUpgradeable.Checkpoint",
          "name": "",
          "type": "tuple"
        }
      ],
      "stateMutability": "view",
      "type": "function"
    },
    {
      "inputs": [],
      "name": "clock",
      "outputs": [
        {
          "internalType": "uint48",
          "name": "",
          "type": "uint48"
        }
      ],
      "stateMutability": "view",
      "type": "function"
    },
    {
      "inputs": [],
      "name": "decimals",
      "outputs": [
        {
          "internalType": "uint8",
          "name": "",
          "type": "uint8"
        }
      ],
      "stateMutability": "pure",
      "type": "function"
    },
    {
      "inputs": [
        {
          "internalType": "address",
          "name": "spender",
          "type": "address"
        },
        {
          "internalType": "uint256",
          "name": "subtractedValue",
          "type": "uint256"
        }
      ],
      "name": "decreaseAllowance",
      "outputs": [
        {
          "internalType": "bool",
          "name": "",
          "type": "bool"
        }
      ],
      "stateMutability": "nonpayable",
      "type": "function"
    },
    {
      "inputs": [
        {
          "internalType": "address",
          "name": "delegatee",
          "type": "address"
        }
      ],
      "name": "delegate",
      "outputs": [],
      "stateMutability": "nonpayable",
      "type": "function"
    },
    {
      "inputs": [
        {
          "internalType": "address",
          "name": "delegatee",
          "type": "address"
        },
        {
          "internalType": "uint256",
          "name": "nonce",
          "type": "uint256"
        },
        {
          "internalType": "uint256",
          "name": "expiry",
          "type": "uint256"
        },
        {
          "internalType": "uint8",
          "name": "v",
          "type": "uint8"
        },
        {
          "internalType": "bytes32",
          "name": "r",
          "type": "bytes32"
        },
        {
          "internalType": "bytes32",
          "name": "s",
          "type": "bytes32"
        }
      ],
      "name": "delegateBySig",
      "outputs": [],
      "stateMutability": "nonpayable",
      "type": "function"
    },
    {
      "inputs": [
        {
          "internalType": "address",
          "name": "account",
          "type": "address"
        }
      ],
      "name": "delegates",
      "outputs": [
        {
          "internalType": "address",
          "name": "",
          "type": "address"
        }
      ],
      "stateMutability": "view",
      "type": "function"
    },
    {
      "inputs": [],
      "name": "eip712Domain",
      "outputs": [
        {
          "internalType": "bytes1",
          "name": "fields",
          "type": "bytes1"
        },
        {
          "internalType": "string",
          "name": "name",
          "type": "string"
        },
        {
          "internalType": "string",
          "name": "version",
          "type": "string"
        },
        {
          "internalType": "uint256",
          "name": "chainId",
          "type": "uint256"
        },
        {
          "internalType": "address",
          "name": "verifyingContract",
          "type": "address"
        },
        {
          "internalType": "bytes32",
          "name": "salt",
          "type": "bytes32"
        },
        {
          "internalType": "uint256[]",
          "name": "extensions",
          "type": "uint256[]"
        }
      ],
      "stateMutability": "view",
      "type": "function"
    },
    {
      "inputs": [
        {
          "internalType": "address",
          "name": "account",
          "type": "address"
        }
      ],
      "name": "getCurrentVotes",
      "outputs": [
        {
          "internalType": "uint96",
          "name": "",
          "type": "uint96"
        }
      ],
      "stateMutability": "view",
      "type": "function"
    },
    {
      "inputs": [
        {
          "internalType": "uint256",
          "name": "timepoint",
          "type": "uint256"
        }
      ],
      "name": "getPastTotalSupply",
      "outputs": [
        {
          "internalType": "uint256",
          "name": "",
          "type": "uint256"
        }
      ],
      "stateMutability": "view",
      "type": "function"
    },
    {
      "inputs": [
        {
          "internalType": "address",
          "name": "account",
          "type": "address"
        },
        {
          "internalType": "uint256",
          "name": "timepoint",
          "type": "uint256"
        }
      ],
      "name": "getPastVotes",
      "outputs": [
        {
          "internalType": "uint256",
          "name": "",
          "type": "uint256"
        }
      ],
      "stateMutability": "view",
      "type": "function"
    },
    {
      "inputs": [
        {
          "internalType": "address",
          "name": "account",
          "type": "address"
        },
        {
          "internalType": "uint256",
          "name": "blockNumber",
          "type": "uint256"
        }
      ],
      "name": "getPriorVotes",
      "outputs": [
        {
          "internalType": "uint96",
          "name": "",
          "type": "uint96"
        }
      ],
      "stateMutability": "view",
      "type": "function"
    },
    {
      "inputs": [
        {
          "internalType": "address",
          "name": "account",
          "type": "address"
        }
      ],
      "name": "getVotes",
      "outputs": [
        {
          "internalType": "uint256",
          "name": "",
          "type": "uint256"
        }
      ],
      "stateMutability": "view",
      "type": "function"
    },
    {
      "inputs": [
        {
          "internalType": "address",
          "name": "spender",
          "type": "address"
        },
        {
          "internalType": "uint256",
          "name": "addedValue",
          "type": "uint256"
        }
      ],
      "name": "increaseAllowance",
      "outputs": [
        {
          "internalType": "bool",
          "name": "",
          "type": "bool"
        }
      ],
      "stateMutability": "nonpayable",
      "type": "function"
    },
    {
      "inputs": [
        {
          "internalType": "string",
          "name": "name",
          "type": "string"
        },
        {
          "internalType": "string",
          "name": "symbol",
          "type": "string"
        },
        {
          "internalType": "address",
          "name": "admin",
          "type": "address"
        },
        {
          "internalType": "address",
          "name": "paramAddr",
          "type": "address"
        }
      ],
      "name": "initialize",
      "outputs": [],
      "stateMutability": "nonpayable",
      "type": "function"
    },
    {
      "inputs": [],
      "name": "name",
      "outputs": [
        {
          "internalType": "string",
          "name": "",
          "type": "string"
        }
      ],
      "stateMutability": "view",
      "type": "function"
    },
    {
      "inputs": [
        {
          "internalType": "address",
          "name": "owner",
          "type": "address"
        }
      ],
      "name": "nonces",
      "outputs": [
        {
          "internalType": "uint256",
          "name": "",
          "type": "uint256"
        }
      ],
      "stateMutability": "view",
      "type": "function"
    },
    {
      "inputs": [
        {
          "internalType": "address",
          "name": "account",
          "type": "address"
        }
      ],
      "name": "numCheckpoints",
      "outputs": [
        {
          "internalType": "uint32",
          "name": "",
          "type": "uint32"
        }
      ],
      "stateMutability": "view",
      "type": "function"
    },
    {
      "inputs": [],
      "name": "owner",
      "outputs": [
        {
          "internalType": "address",
          "name": "",
          "type": "address"
        }
      ],
      "stateMutability": "view",
      "type": "function"
    },
    {
      "inputs": [],
      "name": "paused",
      "outputs": [
        {
          "internalType": "bool",
          "name": "",
          "type": "bool"
        }
      ],
      "stateMutability": "view",
      "type": "function"
    },
    {
      "inputs": [
        {
          "internalType": "address",
          "name": "owner",
          "type": "address"
        },
        {
          "internalType": "address",
          "name": "spender",
          "type": "address"
        },
        {
          "internalType": "uint256",
          "name": "value",
          "type": "uint256"
        },
        {
          "internalType": "uint256",
          "name": "deadline",
          "type": "uint256"
        },
        {
          "internalType": "uint8",
          "name": "v",
          "type": "uint8"
        },
        {
          "internalType": "bytes32",
          "name": "r",
          "type": "bytes32"
        },
        {
          "internalType": "bytes32",
          "name": "s",
          "type": "bytes32"
        }
      ],
      "name": "permit",
      "outputs": [],
      "stateMutability": "nonpayable",
      "type": "function"
    },
    {
      "inputs": [],
      "name": "renounceOwnership",
      "outputs": [],
      "stateMutability": "nonpayable",
      "type": "function"
    },
    {
      "inputs": [
        {
          "internalType": "address",
          "name": "genNFTAddr",
          "type": "address"
        },
        {
          "internalType": "uint256",
          "name": "tokenId",
          "type": "uint256"
        },
        {
          "internalType": "address",
          "name": "erc20Addr",
          "type": "address"
        },
        {
          "internalType": "uint256",
          "name": "amount",
          "type": "uint256"
        }
      ],
      "name": "setPoASecondSale",
      "outputs": [],
      "stateMutability": "nonpayable",
      "type": "function"
    },
    {
      "inputs": [],
      "name": "symbol",
      "outputs": [
        {
          "internalType": "string",
          "name": "",
          "type": "string"
        }
      ],
      "stateMutability": "view",
      "type": "function"
    },
    {
      "inputs": [],
      "name": "totalSupply",
      "outputs": [
        {
          "internalType": "uint256",
          "name": "",
          "type": "uint256"
        }
      ],
      "stateMutability": "view",
      "type": "function"
    },
    {
      "inputs": [
        {
          "internalType": "address",
          "name": "to",
          "type": "address"
        },
        {
          "internalType": "uint256",
          "name": "amount",
          "type": "uint256"
        }
      ],
      "name": "transfer",
      "outputs": [
        {
          "internalType": "bool",
          "name": "",
          "type": "bool"
        }
      ],
      "stateMutability": "nonpayable",
      "type": "function"
    },
    {
      "inputs": [
        {
          "internalType": "address",
          "name": "from",
          "type": "address"
        },
        {
          "internalType": "address",
          "name": "to",
          "type": "address"
        },
        {
          "internalType": "uint256",
          "name": "amount",
          "type": "uint256"
        }
      ],
      "name": "transferFrom",
      "outputs": [
        {
          "internalType": "bool",
          "name": "",
          "type": "bool"
        }
      ],
      "stateMutability": "nonpayable",
      "type": "function"
    },
    {
      "inputs": [
        {
          "internalType": "address",
          "name": "newOwner",
          "type": "address"
        }
      ],
      "name": "transferOwnership",
      "outputs": [],
      "stateMutability": "nonpayable",
      "type": "function"
    }
  ],
  "bytecode": "0x608060405234801561001057600080fd5b50612de7806100206000396000f3fe608060405234801561001057600080fd5b506004361061023d5760003560e01c8063782d6fe11161013b5780639ab24eb0116100b8578063d505accf1161007c578063d505accf1461054e578063dd62ed3e14610561578063f1127ed814610574578063f2fde38b146105b1578063f4a290f7146105c457600080fd5b80639ab24eb0146104ef578063a457c2d714610502578063a9059cbb14610515578063b4b5ea5714610528578063c3cda5201461053b57600080fd5b80638e539e8c116100ff5780638e539e8c1461048f5780638f15b414146104a25780638f283970146104b557806391ddadf4146104c857806395d89b41146104e757600080fd5b8063782d6fe11461041257806379cc67901461043d5780637ecebe001461045057806384b0196e146104635780638da5cb5b1461047e57600080fd5b80633a46b1a8116101c95780635c975abb1161018d5780635c975abb1461039b57806361bcaf74146103a65780636fcfff45146103b957806370a08231146103e1578063715018a61461040a57600080fd5b80633a46b1a81461032d57806342966c68146103405780634bf5d7e914610353578063587cde1e1461035b5780635c19a95c1461038857600080fd5b806318160ddd1161021057806318160ddd146102da57806323b872dd146102f0578063313ce567146103035780633644e51514610312578063395093511461031a57600080fd5b806301bc45c91461024257806306fdde0314610273578063095ea7b3146102a257806316a5041f146102c5575b600080fd5b61022a54610256906001600160a01b031681565b6040516001600160a01b0390911681526020015b60405180910390f35b60408051808201909152600a81526947656e6572617469766560b01b60208201525b60405161026a9190612765565b6102b56102b0366004612794565b6105d8565b604051901515815260200161026a565b6102d86102d33660046127be565b6105f2565b005b6102e261068f565b60405190815260200161026a565b6102b56102fe3660046127d9565b61069f565b6040516012815260200161026a565b6102e26106c3565b6102b5610328366004612794565b6106cd565b6102e261033b366004612794565b6106ef565b6102d861034e366004612815565b610775565b61029561077f565b6102566103693660046127be565b6001600160a01b03908116600090815261019460205260409020541690565b6102d86103963660046127be565b610817565b60655460ff166102b5565b6102d86103b436600461282e565b610821565b6103cc6103c73660046127be565b61083a565b60405163ffffffff909116815260200161026a565b6102e26103ef3660046127be565b6001600160a01b031660009081526033602052604090205490565b6102d861085d565b610425610420366004612794565b610871565b6040516001600160601b03909116815260200161026a565b6102d861044b366004612794565b610885565b6102e261045e3660046127be565b61089e565b61046b6108bd565b60405161026a9796959493929190612872565b60fb546001600160a01b0316610256565b6102e261049d366004612815565b61095d565b6102d86104b03660046129ab565b6109c5565b6102d86104c33660046127be565b610bbf565b6104d0610c54565b60405165ffffffffffff909116815260200161026a565b610295610c5f565b6102e26104fd3660046127be565b610cf1565b6102b5610510366004612794565b610d75565b6102b5610523366004612794565b610df0565b6104256105363660046127be565b610dfe565b6102d8610549366004612a41565b610e0c565b6102d861055c366004612a99565b610f42565b6102e261056f366004612b03565b6110a6565b610587610582366004612b36565b6110d1565b60408051825163ffffffff1681526020928301516001600160e01b0316928101929092520161026a565b6102d86105bf3660046127be565b611156565b61022b54610256906001600160a01b031681565b6000336105e68185856111cc565b60019150505b92915050565b61022a546001600160a01b03163314801561061557506001600160a01b03811615155b6040518060400160405280600381526020016231303160e81b815250906106585760405162461bcd60e51b815260040161064f9190612765565b60405180910390fd5b5061022b546001600160a01b0382811691161461068c5761022b80546001600160a01b0319166001600160a01b0383161790555b50565b600061069a60355490565b905090565b6000336106ad8582856112f0565b6106b8858585611364565b506001949350505050565b600061069a611520565b6000336105e68185856106e083836110a6565b6106ea9190612b8c565b6111cc565b60006106f9610c54565b65ffffffffffff16821061074b5760405162461bcd60e51b815260206004820152601960248201527804552433230566f7465733a20667574757265206c6f6f6b757603c1b604482015260640161064f565b6001600160a01b03831660009081526101956020526040902061076e908361152a565b9392505050565b61068c3382611613565b60604361078a610c54565b65ffffffffffff16146107df5760405162461bcd60e51b815260206004820152601d60248201527f4552433230566f7465733a2062726f6b656e20636c6f636b206d6f6465000000604482015260640161064f565b5060408051808201909152601d81527f6d6f64653d626c6f636b6e756d6265722666726f6d3d64656661756c74000000602082015290565b61068c338261161d565b610829611698565b61083460016101f855565b50505050565b6001600160a01b038116600090815261019560205260408120546105ec906116fc565b610865611765565b61086f60006117bf565b565b600061076e61088084846106ef565b611811565b6108908233836112f0565b61089a8282611613565b5050565b6001600160a01b038116600090815261016160205260408120546105ec565b60006060806000806000606061012d546000801b1480156108df575061012e54155b6109235760405162461bcd60e51b81526020600482015260156024820152741152540dcc4c8e88155b9a5b9a5d1a585b1a5e9959605a1b604482015260640161064f565b61092b611879565b610933611889565b60408051600080825260208201909252600f60f81b9b939a50919850469750309650945092509050565b6000610967610c54565b65ffffffffffff1682106109b95760405162461bcd60e51b815260206004820152601960248201527804552433230566f7465733a20667574757265206c6f6f6b757603c1b604482015260640161064f565b6105ec6101968361152a565b600054610100900460ff16158080156109e55750600054600160ff909116105b806109ff5750303b1580156109ff575060005460ff166001145b610a625760405162461bcd60e51b815260206004820152602e60248201527f496e697469616c697a61626c653a20636f6e747261637420697320616c72656160448201526d191e481a5b9a5d1a585b1a5e995960921b606482015260840161064f565b6000805460ff191660011790558015610a85576000805461ff0019166101001790555b6001600160a01b03831615801590610aa557506001600160a01b03821615155b6040518060400160405280600381526020016203130360ec1b81525090610adf5760405162461bcd60e51b815260040161064f9190612765565b5061022a80546001600160a01b038086166001600160a01b03199283161790925561022b8054928516929091169190911790556000610b1c601290565b610b2790600a612c88565b610b35906305f5e100612c97565b61022a54909150610b4f906001600160a01b031682611899565b610b576118a3565b610b6186866118d2565b610b69611903565b610b71611932565b508015610bb8576000805461ff0019169055604051600181527f7f26b83ff96e1f2b6a682f133852f6798a09c465da95921460cefb38474024989060200160405180910390a15b5050505050565b61022a546001600160a01b031633148015610be257506001600160a01b03811615155b6040518060400160405280600381526020016231303160e81b81525090610c1c5760405162461bcd60e51b815260040161064f9190612765565b5061022a546001600160a01b0382811691161461068c5761022a80546001600160a01b0383166001600160a01b031990911617905550565b600061069a43611961565b606060378054610c6e90612cb6565b80601f0160208091040260200160405190810160405280929190818152602001828054610c9a90612cb6565b8015610ce75780601f10610cbc57610100808354040283529160200191610ce7565b820191906000526020600020905b815481529060010190602001808311610cca57829003601f168201915b5050505050905090565b6001600160a01b038116600090815261019560205260408120548015610d62576001600160a01b03831660009081526101956020526040902080546000198301908110610d4057610d40612ceb565b60009182526020909120015464010000000090046001600160e01b0316610d65565b60005b6001600160e01b03169392505050565b60003381610d8382866110a6565b905083811015610de35760405162461bcd60e51b815260206004820152602560248201527f45524332303a2064656372656173656420616c6c6f77616e63652062656c6f77604482015264207a65726f60d81b606482015260840161064f565b6106b882868684036111cc565b6000336105e6818585611364565b60006105ec61088083610cf1565b83421115610e5c5760405162461bcd60e51b815260206004820152601d60248201527f4552433230566f7465733a207369676e61747572652065787069726564000000604482015260640161064f565b604080517fe48329057bfd03d55e49b547132e39cffd9c1820ad7b9d4c5307691425d15adf60208201526001600160a01b038816918101919091526060810186905260808101859052600090610ed690610ece9060a001604051602081830303815290604052805190602001206119c8565b8585856119f5565b9050610ee181611a1d565b8614610f2f5760405162461bcd60e51b815260206004820152601960248201527f4552433230566f7465733a20696e76616c6964206e6f6e636500000000000000604482015260640161064f565b610f39818861161d565b50505050505050565b83421115610f925760405162461bcd60e51b815260206004820152601d60248201527f45524332305065726d69743a206578706972656420646561646c696e65000000604482015260640161064f565b60007f6e71edae12b1b97f4d1f60370fef10105fa2faae0126114a169c64845d6126c9888888610fc18c611a1d565b6040805160208101969096526001600160a01b0394851690860152929091166060840152608083015260a082015260c0810186905260e001604051602081830303815290604052805190602001209050600061101c826119c8565b9050600061102c828787876119f5565b9050896001600160a01b0316816001600160a01b03161461108f5760405162461bcd60e51b815260206004820152601e60248201527f45524332305065726d69743a20696e76616c6964207369676e61747572650000604482015260640161064f565b61109a8a8a8a6111cc565b50505050505050505050565b6001600160a01b03918216600090815260346020908152604080832093909416825291909152205490565b60408051808201909152600080825260208201526001600160a01b038316600090815261019560205260409020805463ffffffff841690811061111657611116612ceb565b60009182526020918290206040805180820190915291015463ffffffff8116825264010000000090046001600160e01b0316918101919091529392505050565b61115e611765565b6001600160a01b0381166111c35760405162461bcd60e51b815260206004820152602660248201527f4f776e61626c653a206e6577206f776e657220697320746865207a65726f206160448201526564647265737360d01b606482015260840161064f565b61068c816117bf565b6001600160a01b03831661122e5760405162461bcd60e51b8152602060048201526024808201527f45524332303a20617070726f76652066726f6d20746865207a65726f206164646044820152637265737360e01b606482015260840161064f565b6001600160a01b03821661128f5760405162461bcd60e51b815260206004820152602260248201527f45524332303a20617070726f766520746f20746865207a65726f206164647265604482015261737360f01b606482015260840161064f565b6001600160a01b0383811660008181526034602090815260408083209487168084529482529182902085905590518481527f8c5be1e5ebec7d5bd14f71427d1e84f3dd0314c0f7b2291e5b200ac8c7c3b925910160405180910390a3505050565b60006112fc84846110a6565b9050600019811461083457818110156113575760405162461bcd60e51b815260206004820152601d60248201527f45524332303a20696e73756666696369656e7420616c6c6f77616e6365000000604482015260640161064f565b61083484848484036111cc565b6001600160a01b0383166113c85760405162461bcd60e51b815260206004820152602560248201527f45524332303a207472616e736665722066726f6d20746865207a65726f206164604482015264647265737360d81b606482015260840161064f565b6001600160a01b03821661142a5760405162461bcd60e51b815260206004820152602360248201527f45524332303a207472616e7366657220746f20746865207a65726f206164647260448201526265737360e81b606482015260840161064f565b611435838383611a46565b6001600160a01b038316600090815260336020526040902054818110156114ad5760405162461bcd60e51b815260206004820152602660248201527f45524332303a207472616e7366657220616d6f756e7420657863656564732062604482015265616c616e636560d01b606482015260840161064f565b6001600160a01b0380851660008181526033602052604080822086860390559286168082529083902080548601905591517fddf252ad1be2c89b69c2b068fc378daa952ba7f163c4a11628f55a4df523b3ef9061150d9086815260200190565b60405180910390a3610834848484611a56565b600061069a611a61565b81546000908181600581111561158457600061154584611ad5565b61154f9085612d01565b600088815260209020909150869082015463ffffffff16111561157457809150611582565b61157f816001612b8c565b92505b505b808210156115d15760006115988383611bba565b600088815260209020909150869082015463ffffffff1611156115bd578091506115cb565b6115c8816001612b8c565b92505b50611584565b80156115fd576000868152602090208101600019015464010000000090046001600160e01b0316611600565b60005b6001600160e01b03169695505050505050565b61089a8282611bd5565b6001600160a01b0382811660008181526101946020818152604080842080546033845282862054949093528787166001600160a01b03198416811790915590519190951694919391928592917f3134e8a2e6d97e929a7e54011ea5485d7d196dd5f0ba4d4ef95803e8e3fc257f9190a4610834828483611bee565b60026101f85414156116ec5760405162461bcd60e51b815260206004820152601f60248201527f5265656e7472616e637947756172643a207265656e7472616e742063616c6c00604482015260640161064f565b60026101f855565b60016101f855565b600063ffffffff8211156117615760405162461bcd60e51b815260206004820152602660248201527f53616665436173743a2076616c756520646f65736e27742066697420696e203360448201526532206269747360d01b606482015260840161064f565b5090565b60fb546001600160a01b0316331461086f5760405162461bcd60e51b815260206004820181905260248201527f4f776e61626c653a2063616c6c6572206973206e6f7420746865206f776e6572604482015260640161064f565b60fb80546001600160a01b038381166001600160a01b0319831681179093556040519116919082907f8be0079c531659141344cd1fd0a4f28419497f9722a3daafe3b4186f6b6457e090600090a35050565b60006001600160601b038211156117615760405162461bcd60e51b815260206004820152602660248201527f53616665436173743a2076616c756520646f65736e27742066697420696e203960448201526536206269747360d01b606482015260840161064f565b606061012f8054610c6e90612cb6565b60606101308054610c6e90612cb6565b61089a8282611d2d565b600054610100900460ff166118ca5760405162461bcd60e51b815260040161064f90612d18565b61086f611dbd565b600054610100900460ff166118f95760405162461bcd60e51b815260040161064f90612d18565b61089a8282611df0565b600054610100900460ff1661192a5760405162461bcd60e51b815260040161064f90612d18565b61086f611e3e565b600054610100900460ff166119595760405162461bcd60e51b815260040161064f90612d18565b61086f611e6e565b600065ffffffffffff8211156117615760405162461bcd60e51b815260206004820152602660248201527f53616665436173743a2076616c756520646f65736e27742066697420696e203460448201526538206269747360d01b606482015260840161064f565b60006105ec6119d5611520565b8360405161190160f01b8152600281019290925260228201526042902090565b6000806000611a0687878787611e95565b91509150611a1381611f59565b5095945050505050565b6001600160a01b0381166000908152610161602052604090208054600181018255905b50919050565b611a518383836120a7565b505050565b611a5183838361210d565b60007f8b73c3c69bb8fe3d512ecc4cf759cc79239f7b179b0ffacaa9a75d522b39400f611a8c612140565b611a9461219a565b60408051602081019490945283019190915260608201524660808201523060a082015260c00160405160208183030381529060405280519060200120905090565b600081611ae457506000919050565b60006001611af1846121cc565b901c6001901b90506001818481611b0a57611b0a612d63565b048201901c90506001818481611b2257611b22612d63565b048201901c90506001818481611b3a57611b3a612d63565b048201901c90506001818481611b5257611b52612d63565b048201901c90506001818481611b6a57611b6a612d63565b048201901c90506001818481611b8257611b82612d63565b048201901c90506001818481611b9a57611b9a612d63565b048201901c905061076e81828581611bb457611bb4612d63565b04612260565b6000611bc96002848418612d79565b61076e90848416612b8c565b611bdf8282612276565b6108346101966123bd836123c9565b816001600160a01b0316836001600160a01b031614158015611c105750600081115b15611a51576001600160a01b03831615611c9f576001600160a01b0383166000908152610195602052604081208190611c4c906123bd856123c9565b91509150846001600160a01b03167fdec2bacdd2f05b59de34da9b523dff8be42e5e38e818c82fdb0bae774387a7248383604051611c94929190918252602082015260400190565b60405180910390a250505b6001600160a01b03821615611a51576001600160a01b0382166000908152610195602052604081208190611cd69061253e856123c9565b91509150836001600160a01b03167fdec2bacdd2f05b59de34da9b523dff8be42e5e38e818c82fdb0bae774387a7248383604051611d1e929190918252602082015260400190565b60405180910390a25050505050565b611d37828261254a565b6001600160601b03611d4761068f565b1115611dae5760405162461bcd60e51b815260206004820152603060248201527f4552433230566f7465733a20746f74616c20737570706c79207269736b73206f60448201526f766572666c6f77696e6720766f74657360801b606482015260840161064f565b61083461019661253e836123c9565b600054610100900460ff16611de45760405162461bcd60e51b815260040161064f90612d18565b6065805460ff19169055565b600054610100900460ff16611e175760405162461bcd60e51b815260040161064f90612d18565b8151611e2a906036906020850190612688565b508051611a51906037906020840190612688565b600054610100900460ff16611e655760405162461bcd60e51b815260040161064f90612d18565b61086f336117bf565b600054610100900460ff166116f45760405162461bcd60e51b815260040161064f90612d18565b6000807f7fffffffffffffffffffffffffffffff5d576e7357a4501ddfe92f46681b20a0831115611ecc5750600090506003611f50565b6040805160008082526020820180845289905260ff881692820192909252606081018690526080810185905260019060a0016020604051602081039080840390855afa158015611f20573d6000803e3d6000fd5b5050604051601f1901519150506001600160a01b038116611f4957600060019250925050611f50565b9150600090505b94509492505050565b6000816004811115611f6d57611f6d612d9b565b1415611f765750565b6001816004811115611f8a57611f8a612d9b565b1415611fd85760405162461bcd60e51b815260206004820152601860248201527f45434453413a20696e76616c6964207369676e61747572650000000000000000604482015260640161064f565b6002816004811115611fec57611fec612d9b565b141561203a5760405162461bcd60e51b815260206004820152601f60248201527f45434453413a20696e76616c6964207369676e6174757265206c656e67746800604482015260640161064f565b600381600481111561204e5761204e612d9b565b141561068c5760405162461bcd60e51b815260206004820152602260248201527f45434453413a20696e76616c6964207369676e6174757265202773272076616c604482015261756560f01b606482015260840161064f565b60655460ff1615611a515760405162461bcd60e51b815260206004820152602a60248201527f45524332305061757361626c653a20746f6b656e207472616e736665722077686044820152691a5b19481c185d5cd95960b21b606482015260840161064f565b6001600160a01b0383811660009081526101946020526040808220548584168352912054611a5192918216911683611bee565b60008061214b611879565b805190915015612162578051602090910120919050565b61012d5480156121725792915050565b7fc5d2460186f7233c927e7db2dcc703c0e500b653ca82273b7bfad8045d85a4709250505090565b6000806121a5611889565b8051909150156121bc578051602090910120919050565b61012e5480156121725792915050565b600080608083901c156121e157608092831c92015b604083901c156121f357604092831c92015b602083901c1561220557602092831c92015b601083901c1561221757601092831c92015b600883901c1561222957600892831c92015b600483901c1561223b57600492831c92015b600283901c1561224d57600292831c92015b600183901c156105ec5760010192915050565b600081831061226f578161076e565b5090919050565b6001600160a01b0382166122d65760405162461bcd60e51b815260206004820152602160248201527f45524332303a206275726e2066726f6d20746865207a65726f206164647265736044820152607360f81b606482015260840161064f565b6122e282600083611a46565b6001600160a01b038216600090815260336020526040902054818110156123565760405162461bcd60e51b815260206004820152602260248201527f45524332303a206275726e20616d6f756e7420657863656564732062616c616e604482015261636560f01b606482015260840161064f565b6001600160a01b03831660008181526033602090815260408083208686039055603580548790039055518581529192917fddf252ad1be2c89b69c2b068fc378daa952ba7f163c4a11628f55a4df523b3ef910160405180910390a3611a5183600084611a56565b600061076e8284612d01565b825460009081908181156124165760008781526020902082016000190160408051808201909152905463ffffffff8116825264010000000090046001600160e01b0316602082015261242b565b60408051808201909152600080825260208201525b905080602001516001600160e01b0316935061244b84868863ffffffff16565b92506000821180156124755750612460610c54565b65ffffffffffff16816000015163ffffffff16145b156124ba576124838361261f565b60008881526020902083016000190180546001600160e01b03929092166401000000000263ffffffff909216919091179055612534565b8660405180604001604052806124de6124d1610c54565b65ffffffffffff166116fc565b63ffffffff1681526020016124f28661261f565b6001600160e01b0390811690915282546001810184556000938452602093849020835194909301519091166401000000000263ffffffff909316929092179101555b5050935093915050565b600061076e8284612b8c565b6001600160a01b0382166125a05760405162461bcd60e51b815260206004820152601f60248201527f45524332303a206d696e7420746f20746865207a65726f206164647265737300604482015260640161064f565b6125ac60008383611a46565b80603560008282546125be9190612b8c565b90915550506001600160a01b0382166000818152603360209081526040808320805486019055518481527fddf252ad1be2c89b69c2b068fc378daa952ba7f163c4a11628f55a4df523b3ef910160405180910390a361089a60008383611a56565b60006001600160e01b038211156117615760405162461bcd60e51b815260206004820152602760248201527f53616665436173743a2076616c756520646f65736e27742066697420696e20326044820152663234206269747360c81b606482015260840161064f565b82805461269490612cb6565b90600052602060002090601f0160209004810192826126b657600085556126fc565b82601f106126cf57805160ff19168380011785556126fc565b828001600101855582156126fc579182015b828111156126fc5782518255916020019190600101906126e1565b506117619291505b808211156117615760008155600101612704565b6000815180845260005b8181101561273e57602081850181015186830182015201612722565b81811115612750576000602083870101525b50601f01601f19169290920160200192915050565b60208152600061076e6020830184612718565b80356001600160a01b038116811461278f57600080fd5b919050565b600080604083850312156127a757600080fd5b6127b083612778565b946020939093013593505050565b6000602082840312156127d057600080fd5b61076e82612778565b6000806000606084860312156127ee57600080fd5b6127f784612778565b925061280560208501612778565b9150604084013590509250925092565b60006020828403121561282757600080fd5b5035919050565b6000806000806080858703121561284457600080fd5b61284d85612778565b93506020850135925061286260408601612778565b9396929550929360600135925050565b60ff60f81b881681526000602060e08184015261289260e084018a612718565b83810360408501526128a4818a612718565b606085018990526001600160a01b038816608086015260a0850187905284810360c0860152855180825283870192509083019060005b818110156128f6578351835292840192918401916001016128da565b50909c9b505050505050505050505050565b634e487b7160e01b600052604160045260246000fd5b600082601f83011261292f57600080fd5b813567ffffffffffffffff8082111561294a5761294a612908565b604051601f8301601f19908116603f0116810190828211818310171561297257612972612908565b8160405283815286602085880101111561298b57600080fd5b836020870160208301376000602085830101528094505050505092915050565b600080600080608085870312156129c157600080fd5b843567ffffffffffffffff808211156129d957600080fd5b6129e58883890161291e565b955060208701359150808211156129fb57600080fd5b50612a088782880161291e565b935050612a1760408601612778565b9150612a2560608601612778565b905092959194509250565b803560ff8116811461278f57600080fd5b60008060008060008060c08789031215612a5a57600080fd5b612a6387612778565b95506020870135945060408701359350612a7f60608801612a30565b92506080870135915060a087013590509295509295509295565b600080600080600080600060e0888a031215612ab457600080fd5b612abd88612778565b9650612acb60208901612778565b95506040880135945060608801359350612ae760808901612a30565b925060a0880135915060c0880135905092959891949750929550565b60008060408385031215612b1657600080fd5b612b1f83612778565b9150612b2d60208401612778565b90509250929050565b60008060408385031215612b4957600080fd5b612b5283612778565b9150602083013563ffffffff81168114612b6b57600080fd5b809150509250929050565b634e487b7160e01b600052601160045260246000fd5b60008219821115612b9f57612b9f612b76565b500190565b600181815b80851115612bdf578160001904821115612bc557612bc5612b76565b80851615612bd257918102915b93841c9390800290612ba9565b509250929050565b600082612bf6575060016105ec565b81612c03575060006105ec565b8160018114612c195760028114612c2357612c3f565b60019150506105ec565b60ff841115612c3457612c34612b76565b50506001821b6105ec565b5060208310610133831016604e8410600b8410161715612c62575081810a6105ec565b612c6c8383612ba4565b8060001904821115612c8057612c80612b76565b029392505050565b600061076e60ff841683612be7565b6000816000190483118215151615612cb157612cb1612b76565b500290565b600181811c90821680612cca57607f821691505b60208210811415611a4057634e487b7160e01b600052602260045260246000fd5b634e487b7160e01b600052603260045260246000fd5b600082821015612d1357612d13612b76565b500390565b6020808252602b908201527f496e697469616c697a61626c653a20636f6e7472616374206973206e6f74206960408201526a6e697469616c697a696e6760a81b606082015260800190565b634e487b7160e01b600052601260045260246000fd5b600082612d9657634e487b7160e01b600052601260045260246000fd5b500490565b634e487b7160e01b600052602160045260246000fdfea2646970667358221220300893a53e982a97fc7c1f3c1cd4d4f26ef98288b1144cd88f1183f497b18d0f64736f6c634300080c0033",
  "linkReferences": {},
  "deployedLinkReferences": {}
}