{
  "_format": "hh-sol-artifact-1",
  "contractName": "GENToken",
  "sourceName": "contracts/erc20/GENToken.sol",
  "abi": [
    {
      "anonymous": false,
      "inputs": [
        {
          "indexed": true,
          "internalType": "address",
          "name": "owner",
          "type": "address"
        },
        {
          "indexed": true,
          "internalType": "address",
          "name": "spender",
          "type": "address"
        },
        {
          "indexed": false,
          "internalType": "uint256",
          "name": "value",
          "type": "uint256"
        }
      ],
      "name": "Approval",
      "type": "event"
    },
    {
      "anonymous": false,
      "inputs": [
        {
          "indexed": false,
          "internalType": "address",
          "name": "to",
          "type": "address"
        },
        {
          "indexed": false,
          "internalType": "uint256",
          "name": "amount",
          "type": "uint256"
        }
      ],
      "name": "ClaimToken",
      "type": "event"
    },
    {
      "anonymous": false,
      "inputs": [
        {
          "indexed": true,
          "internalType": "address",
          "name": "delegator",
          "type": "address"
        },
        {
          "indexed": true,
          "internalType": "address",
          "name": "fromDelegate",
          "type": "address"
        },
        {
          "indexed": true,
          "internalType": "address",
          "name": "toDelegate",
          "type": "address"
        }
      ],
      "name": "DelegateChanged",
      "type": "event"
    },
    {
      "anonymous": false,
      "inputs": [
        {
          "indexed": true,
          "internalType": "address",
          "name": "delegate",
          "type": "address"
        },
        {
          "indexed": false,
          "internalType": "uint256",
          "name": "previousBalance",
          "type": "uint256"
        },
        {
          "indexed": false,
          "internalType": "uint256",
          "name": "newBalance",
          "type": "uint256"
        }
      ],
      "name": "DelegateVotesChanged",
      "type": "event"
    },
    {
      "anonymous": false,
      "inputs": [
        {
          "indexed": false,
          "internalType": "uint8",
          "name": "version",
          "type": "uint8"
        }
      ],
      "name": "Initialized",
      "type": "event"
    },
    {
      "anonymous": false,
      "inputs": [
        {
          "indexed": false,
          "internalType": "address",
          "name": "genNFT",
          "type": "address"
        }
      ],
      "name": "NotSupportProjectIndex",
      "type": "event"
    },
    {
      "anonymous": false,
      "inputs": [
        {
          "indexed": true,
          "internalType": "address",
          "name": "previousOwner",
          "type": "address"
        },
        {
          "indexed": true,
          "internalType": "address",
          "name": "newOwner",
          "type": "address"
        }
      ],
      "name": "OwnershipTransferred",
      "type": "event"
    },
    {
      "anonymous": false,
      "inputs": [
        {
          "indexed": false,
          "internalType": "address",
          "name": "account",
          "type": "address"
        }
      ],
      "name": "Paused",
      "type": "event"
    },
    {
      "anonymous": false,
      "inputs": [
        {
          "indexed": true,
          "internalType": "address",
          "name": "from",
          "type": "address"
        },
        {
          "indexed": true,
          "internalType": "address",
          "name": "to",
          "type": "address"
        },
        {
          "indexed": false,
          "internalType": "uint256",
          "name": "value",
          "type": "uint256"
        }
      ],
      "name": "Transfer",
      "type": "event"
    },
    {
      "anonymous": false,
      "inputs": [
        {
          "indexed": false,
          "internalType": "address",
          "name": "account",
          "type": "address"
        }
      ],
      "name": "Unpaused",
      "type": "event"
    },
    {
      "inputs": [],
      "name": "DOMAIN_SEPARATOR",
      "outputs": [
        {
          "internalType": "bytes32",
          "name": "",
          "type": "bytes32"
        }
      ],
      "stateMutability": "view",
      "type": "function"
    },
    {
      "inputs": [],
      "name": "_admin",
      "outputs": [
        {
          "internalType": "address",
          "name": "",
          "type": "address"
        }
      ],
      "stateMutability": "view",
      "type": "function"
    },
    {
      "inputs": [
        {
          "internalType": "address",
          "name": "",
          "type": "address"
        },
        {
          "internalType": "address",
          "name": "",
          "type": "address"
        }
      ],
      "name": "_claimed",
      "outputs": [
        {
          "internalType": "uint256",
          "name": "",
          "type": "uint256"
        }
      ],
      "stateMutability": "view",
      "type": "function"
    },
    {
      "inputs": [],
      "name": "_paramAddr",
      "outputs": [
        {
          "internalType": "address",
          "name": "",
          "type": "address"
        }
      ],
      "stateMutability": "view",
      "type": "function"
    },
    {
      "inputs": [],
      "name": "_remainClaimSupply",
      "outputs": [
        {
          "internalType": "uint256",
          "name": "",
          "type": "uint256"
        }
      ],
      "stateMutability": "view",
      "type": "function"
    },
    {
      "inputs": [
        {
          "internalType": "address",
          "name": "owner",
          "type": "address"
        },
        {
          "internalType": "address",
          "name": "spender",
          "type": "address"
        }
      ],
      "name": "allowance",
      "outputs": [
        {
          "internalType": "uint256",
          "name": "",
          "type": "uint256"
        }
      ],
      "stateMutability": "view",
      "type": "function"
    },
    {
      "inputs": [
        {
          "internalType": "address",
          "name": "spender",
          "type": "address"
        },
        {
          "internalType": "uint256",
          "name": "amount",
          "type": "uint256"
        }
      ],
      "name": "approve",
      "outputs": [
        {
          "internalType": "bool",
          "name": "",
          "type": "bool"
        }
      ],
      "stateMutability": "nonpayable",
      "type": "function"
    },
    {
      "inputs": [
        {
          "internalType": "address",
          "name": "account",
          "type": "address"
        }
      ],
      "name": "balanceOf",
      "outputs": [
        {
          "internalType": "uint256",
          "name": "",
          "type": "uint256"
        }
      ],
      "stateMutability": "view",
      "type": "function"
    },
    {
      "inputs": [
        {
          "internalType": "uint256",
          "name": "amount",
          "type": "uint256"
        }
      ],
      "name": "burn",
      "outputs": [],
      "stateMutability": "nonpayable",
      "type": "function"
    },
    {
      "inputs": [
        {
          "internalType": "address",
          "name": "account",
          "type": "address"
        },
        {
          "internalType": "uint256",
          "name": "amount",
          "type": "uint256"
        }
      ],
      "name": "burnFrom",
      "outputs": [],
      "stateMutability": "nonpayable",
      "type": "function"
    },
    {
      "inputs": [
        {
          "internalType": "address",
          "name": "genNFTAddr",
          "type": "address"
        },
        {
          "internalType": "uint256",
          "name": "mintPrice",
          "type": "uint256"
        }
      ],
      "name": "calculateAmountClaim",
      "outputs": [
        {
          "internalType": "uint256",
          "name": "",
          "type": "uint256"
        }
      ],
      "stateMutability": "nonpayable",
      "type": "function"
    },
    {
      "inputs": [
        {
          "internalType": "address",
          "name": "newAdm",
          "type": "address"
        }
      ],
      "name": "changeAdmin",
      "outputs": [],
      "stateMutability": "nonpayable",
      "type": "function"
    },
    {
      "inputs": [
        {
          "internalType": "address",
          "name": "newAddr",
          "type": "address"
        }
      ],
      "name": "changeParamAddress",
      "outputs": [],
      "stateMutability": "nonpayable",
      "type": "function"
    },
    {
      "inputs": [
        {
          "internalType": "address",
          "name": "account",
          "type": "address"
        },
        {
          "internalType": "uint32",
          "name": "pos",
          "type": "uint32"
        }
      ],
      "name": "checkpoints",
      "outputs": [
        {
          "components": [
            {
              "internalType": "uint32",
              "name": "fromBlock",
              "type": "uint32"
            },
            {
              "internalType": "uint224",
              "name": "votes",
              "type": "uint224"
            }
          ],
          "internalType": "struct ERC20VotesUpgradeable.Checkpoint",
          "name": "",
          "type": "tuple"
        }
      ],
      "stateMutability": "view",
      "type": "function"
    },
    {
      "inputs": [
        {
          "internalType": "address",
          "name": "generativeProjectAddr",
          "type": "address"
        },
        {
          "internalType": "uint256",
          "name": "projectId",
          "type": "uint256"
        }
      ],
      "name": "claim",
      "outputs": [],
      "stateMutability": "nonpayable",
      "type": "function"
    },
    {
      "inputs": [],
      "name": "decimals",
      "outputs": [
        {
          "internalType": "uint8",
          "name": "",
          "type": "uint8"
        }
      ],
      "stateMutability": "pure",
      "type": "function"
    },
    {
      "inputs": [
        {
          "internalType": "address",
          "name": "spender",
          "type": "address"
        },
        {
          "internalType": "uint256",
          "name": "subtractedValue",
          "type": "uint256"
        }
      ],
      "name": "decreaseAllowance",
      "outputs": [
        {
          "internalType": "bool",
          "name": "",
          "type": "bool"
        }
      ],
      "stateMutability": "nonpayable",
      "type": "function"
    },
    {
      "inputs": [
        {
          "internalType": "address",
          "name": "delegatee",
          "type": "address"
        }
      ],
      "name": "delegate",
      "outputs": [],
      "stateMutability": "nonpayable",
      "type": "function"
    },
    {
      "inputs": [
        {
          "internalType": "address",
          "name": "delegatee",
          "type": "address"
        },
        {
          "internalType": "uint256",
          "name": "nonce",
          "type": "uint256"
        },
        {
          "internalType": "uint256",
          "name": "expiry",
          "type": "uint256"
        },
        {
          "internalType": "uint8",
          "name": "v",
          "type": "uint8"
        },
        {
          "internalType": "bytes32",
          "name": "r",
          "type": "bytes32"
        },
        {
          "internalType": "bytes32",
          "name": "s",
          "type": "bytes32"
        }
      ],
      "name": "delegateBySig",
      "outputs": [],
      "stateMutability": "nonpayable",
      "type": "function"
    },
    {
      "inputs": [
        {
          "internalType": "address",
          "name": "account",
          "type": "address"
        }
      ],
      "name": "delegates",
      "outputs": [
        {
          "internalType": "address",
          "name": "",
          "type": "address"
        }
      ],
      "stateMutability": "view",
      "type": "function"
    },
    {
      "inputs": [
        {
          "internalType": "address",
          "name": "account",
          "type": "address"
        }
      ],
      "name": "getCurrentVotes",
      "outputs": [
        {
          "internalType": "uint96",
          "name": "",
          "type": "uint96"
        }
      ],
      "stateMutability": "view",
      "type": "function"
    },
    {
      "inputs": [
        {
          "internalType": "uint256",
          "name": "blockNumber",
          "type": "uint256"
        }
      ],
      "name": "getPastTotalSupply",
      "outputs": [
        {
          "internalType": "uint256",
          "name": "",
          "type": "uint256"
        }
      ],
      "stateMutability": "view",
      "type": "function"
    },
    {
      "inputs": [
        {
          "internalType": "address",
          "name": "account",
          "type": "address"
        },
        {
          "internalType": "uint256",
          "name": "blockNumber",
          "type": "uint256"
        }
      ],
      "name": "getPastVotes",
      "outputs": [
        {
          "internalType": "uint256",
          "name": "",
          "type": "uint256"
        }
      ],
      "stateMutability": "view",
      "type": "function"
    },
    {
      "inputs": [
        {
          "internalType": "address",
          "name": "account",
          "type": "address"
        },
        {
          "internalType": "uint256",
          "name": "blockNumber",
          "type": "uint256"
        }
      ],
      "name": "getPriorVotes",
      "outputs": [
        {
          "internalType": "uint96",
          "name": "",
          "type": "uint96"
        }
      ],
      "stateMutability": "view",
      "type": "function"
    },
    {
      "inputs": [
        {
          "internalType": "address",
          "name": "account",
          "type": "address"
        }
      ],
      "name": "getVotes",
      "outputs": [
        {
          "internalType": "uint256",
          "name": "",
          "type": "uint256"
        }
      ],
      "stateMutability": "view",
      "type": "function"
    },
    {
      "inputs": [
        {
          "internalType": "address",
          "name": "spender",
          "type": "address"
        },
        {
          "internalType": "uint256",
          "name": "addedValue",
          "type": "uint256"
        }
      ],
      "name": "increaseAllowance",
      "outputs": [
        {
          "internalType": "bool",
          "name": "",
          "type": "bool"
        }
      ],
      "stateMutability": "nonpayable",
      "type": "function"
    },
    {
      "inputs": [
        {
          "internalType": "string",
          "name": "name",
          "type": "string"
        },
        {
          "internalType": "string",
          "name": "symbol",
          "type": "string"
        },
        {
          "internalType": "address",
          "name": "admin",
          "type": "address"
        },
        {
          "internalType": "address",
          "name": "paramAddr",
          "type": "address"
        }
      ],
      "name": "initialize",
      "outputs": [],
      "stateMutability": "nonpayable",
      "type": "function"
    },
    {
      "inputs": [],
      "name": "name",
      "outputs": [
        {
          "internalType": "string",
          "name": "",
          "type": "string"
        }
      ],
      "stateMutability": "view",
      "type": "function"
    },
    {
      "inputs": [
        {
          "internalType": "address",
          "name": "owner",
          "type": "address"
        }
      ],
      "name": "nonces",
      "outputs": [
        {
          "internalType": "uint256",
          "name": "",
          "type": "uint256"
        }
      ],
      "stateMutability": "view",
      "type": "function"
    },
    {
      "inputs": [
        {
          "internalType": "address",
          "name": "account",
          "type": "address"
        }
      ],
      "name": "numCheckpoints",
      "outputs": [
        {
          "internalType": "uint32",
          "name": "",
          "type": "uint32"
        }
      ],
      "stateMutability": "view",
      "type": "function"
    },
    {
      "inputs": [],
      "name": "owner",
      "outputs": [
        {
          "internalType": "address",
          "name": "",
          "type": "address"
        }
      ],
      "stateMutability": "view",
      "type": "function"
    },
    {
      "inputs": [],
      "name": "paused",
      "outputs": [
        {
          "internalType": "bool",
          "name": "",
          "type": "bool"
        }
      ],
      "stateMutability": "view",
      "type": "function"
    },
    {
      "inputs": [
        {
          "internalType": "address",
          "name": "owner",
          "type": "address"
        },
        {
          "internalType": "address",
          "name": "spender",
          "type": "address"
        },
        {
          "internalType": "uint256",
          "name": "value",
          "type": "uint256"
        },
        {
          "internalType": "uint256",
          "name": "deadline",
          "type": "uint256"
        },
        {
          "internalType": "uint8",
          "name": "v",
          "type": "uint8"
        },
        {
          "internalType": "bytes32",
          "name": "r",
          "type": "bytes32"
        },
        {
          "internalType": "bytes32",
          "name": "s",
          "type": "bytes32"
        }
      ],
      "name": "permit",
      "outputs": [],
      "stateMutability": "nonpayable",
      "type": "function"
    },
    {
      "inputs": [],
      "name": "renounceOwnership",
      "outputs": [],
      "stateMutability": "nonpayable",
      "type": "function"
    },
    {
      "inputs": [],
      "name": "symbol",
      "outputs": [
        {
          "internalType": "string",
          "name": "",
          "type": "string"
        }
      ],
      "stateMutability": "view",
      "type": "function"
    },
    {
      "inputs": [],
      "name": "totalSupply",
      "outputs": [
        {
          "internalType": "uint256",
          "name": "",
          "type": "uint256"
        }
      ],
      "stateMutability": "view",
      "type": "function"
    },
    {
      "inputs": [
        {
          "internalType": "address",
          "name": "to",
          "type": "address"
        },
        {
          "internalType": "uint256",
          "name": "amount",
          "type": "uint256"
        }
      ],
      "name": "transfer",
      "outputs": [
        {
          "internalType": "bool",
          "name": "",
          "type": "bool"
        }
      ],
      "stateMutability": "nonpayable",
      "type": "function"
    },
    {
      "inputs": [
        {
          "internalType": "address",
          "name": "from",
          "type": "address"
        },
        {
          "internalType": "address",
          "name": "to",
          "type": "address"
        },
        {
          "internalType": "uint256",
          "name": "amount",
          "type": "uint256"
        }
      ],
      "name": "transferFrom",
      "outputs": [
        {
          "internalType": "bool",
          "name": "",
          "type": "bool"
        }
      ],
      "stateMutability": "nonpayable",
      "type": "function"
    },
    {
      "inputs": [
        {
          "internalType": "address",
          "name": "newOwner",
          "type": "address"
        }
      ],
      "name": "transferOwnership",
      "outputs": [],
      "stateMutability": "nonpayable",
      "type": "function"
    }
  ],
  "bytecode": "0x608060405234801561001057600080fd5b50613268806100206000396000f3fe608060405234801561001057600080fd5b506004361061023d5760003560e01c806379cc67901161013b578063a9059cbb116100b8578063d505accf1161007c578063d505accf1461053b578063dd62ed3e1461054e578063f1127ed814610561578063f2fde38b1461059e578063f4a290f7146105b157600080fd5b8063a9059cbb146104e5578063aad3ec96146104f8578063b4b5ea571461050b578063c3678f351461051e578063c3cda5201461052857600080fd5b80638f283970116100ff5780638f28397014610478578063945277291461048b57806395d89b41146104b75780639ab24eb0146104bf578063a457c2d7146104d257600080fd5b806379cc67901461041b5780637ecebe001461042e5780638da5cb5b146104415780638e539e8c146104525780638f15b4141461046557600080fd5b806339509351116101c95780635c975abb1161018d5780635c975abb1461038c5780636fcfff451461039757806370a08231146103bf578063715018a6146103e8578063782d6fe1146103f057600080fd5b806339509351146103135780633a46b1a81461032657806342966c6814610339578063587cde1e1461034c5780635c19a95c1461037957600080fd5b806318160ddd1161021057806318160ddd146102c057806323b872dd146102d6578063313ce567146102e957806332974838146102f85780633644e5151461030b57600080fd5b806301bc45c91461024257806306fdde0314610273578063095ea7b31461028857806316a5041f146102ab575b600080fd5b6101f854610256906001600160a01b031681565b6040516001600160a01b0390911681526020015b60405180910390f35b61027b6105c5565b60405161026a919061274b565b61029b610296366004612793565b610657565b604051901515815260200161026a565b6102be6102b93660046127bf565b610671565b005b6102c861070e565b60405190815260200161026a565b61029b6102e43660046127dc565b61071e565b6040516012815260200161026a565b6102c8610306366004612793565b610742565b6102c8610838565b61029b610321366004612793565b610842565b6102c8610334366004612793565b610864565b6102be61034736600461281d565b6108df565b61025661035a3660046127bf565b6001600160a01b03908116600090815261019460205260409020541690565b6102be6103873660046127bf565b6108e9565b60655460ff1661029b565b6103aa6103a53660046127bf565b6108f3565b60405163ffffffff909116815260200161026a565b6102c86103cd3660046127bf565b6001600160a01b031660009081526033602052604090205490565b6102be610916565b6104036103fe366004612793565b61092a565b6040516001600160601b03909116815260200161026a565b6102be610429366004612793565b61093e565b6102c861043c3660046127bf565b610957565b60fb546001600160a01b0316610256565b6102c861046036600461281d565b610976565b6102be610473366004612948565b6109d3565b6102be6104863660046127bf565b610bfd565b6102c86104993660046129d1565b6101fa60209081526000928352604080842090915290825290205481565b61027b610c92565b6102c86104cd3660046127bf565b610ca1565b61029b6104e0366004612793565b610d2a565b61029b6104f3366004612793565b610da5565b6102be610506366004612793565b610db3565b6104036105193660046127bf565b610f79565b6102c86101fb5481565b6102be610536366004612a20565b610f87565b6102be610549366004612a7a565b6110bd565b6102c861055c3660046129d1565b611221565b61057461056f366004612ae8565b61124c565b60408051825163ffffffff1681526020928301516001600160e01b0316928101929092520161026a565b6102be6105ac3660046127bf565b6112d1565b6101f954610256906001600160a01b031681565b6060603680546105d490612b1f565b80601f016020809104026020016040519081016040528092919081815260200182805461060090612b1f565b801561064d5780601f106106225761010080835404028352916020019161064d565b820191906000526020600020905b81548152906001019060200180831161063057829003601f168201915b5050505050905090565b600033610665818585611347565b60019150505b92915050565b6101f8546001600160a01b03163314801561069457506001600160a01b03811615155b6040518060400160405280600381526020016231303160e81b815250906106d75760405162461bcd60e51b81526004016106ce919061274b565b60405180910390fd5b506101f9546001600160a01b0382811691161461070b576101f880546001600160a01b0319166001600160a01b0383161790555b50565b600061071960355490565b905090565b60003361072c85828561146b565b6107378585856114e5565b506001949350505050565b600080839050806001600160a01b031663631847266040518163ffffffff1660e01b8152600401602060405180830381865afa9250505080156107a2575060408051601f3d908101601f1916820190925261079f91810190612b67565b60015b6107e7576040516001600160a01b03851681527fa2d47e5e61369d0bde38a716e62f1ea16d8124813f8ea55b832c218216e91dfc9060200160405180910390a161082e565b3360009081526101fa602090815260408083206001600160a01b038916845290915290205461081b8562ffffff8416612b98565b6108259190612bb7565b9250505061066b565b5060009392505050565b60006107196116a1565b6000336106658185856108558383611221565b61085f9190612bce565b611347565b60004382106108b55760405162461bcd60e51b815260206004820152601f60248201527f4552433230566f7465733a20626c6f636b206e6f7420796574206d696e65640060448201526064016106ce565b6001600160a01b0383166000908152610195602052604090206108d8908361171e565b9392505050565b61070b3382611815565b61070b338261181f565b6001600160a01b0381166000908152610195602052604081205461066b9061189a565b61091e611903565b610928600061195d565b565b60006108d86109398484610864565b6119af565b61094982338361146b565b6109538282611815565b5050565b6001600160a01b0381166000908152610161602052604081205461066b565b60004382106109c75760405162461bcd60e51b815260206004820152601f60248201527f4552433230566f7465733a20626c6f636b206e6f7420796574206d696e65640060448201526064016106ce565b61066b6101968361171e565b600054610100900460ff16158080156109f35750600054600160ff909116105b80610a0d5750303b158015610a0d575060005460ff166001145b610a705760405162461bcd60e51b815260206004820152602e60248201527f496e697469616c697a61626c653a20636f6e747261637420697320616c72656160448201526d191e481a5b9a5d1a585b1a5e995960921b60648201526084016106ce565b6000805460ff191660011790558015610a93576000805461ff0019166101001790555b6001600160a01b03831615801590610ab357506001600160a01b03821615155b6040518060400160405280600381526020016203130360ec1b81525090610aed5760405162461bcd60e51b81526004016106ce919061274b565b506101f880546001600160a01b038086166001600160a01b0319928316179092556101f98054928516929091169190911790556000610b2a601290565b610b3590600a612cca565b610b43906305f5e100612b98565b90506064610b52826046612b98565b610b5c9190612cef565b6101fb5560006064610b6f836014612b98565b610b799190612cef565b6101f854909150610b93906001600160a01b031682611a17565b610b9b611a21565b610ba58787611a50565b610bad611a81565b50508015610bf6576000805461ff0019169055604051600181527f7f26b83ff96e1f2b6a682f133852f6798a09c465da95921460cefb3847402498906020015b60405180910390a15b5050505050565b6101f8546001600160a01b031633148015610c2057506001600160a01b03811615155b6040518060400160405280600381526020016231303160e81b81525090610c5a5760405162461bcd60e51b81526004016106ce919061274b565b506101f8546001600160a01b0382811691161461070b576101f880546001600160a01b0383166001600160a01b031990911617905550565b6060603780546105d490612b1f565b6001600160a01b038116600090815261019560205260408120548015610d17576001600160a01b038316600090815261019560205260409020610ce5600183612bb7565b81548110610cf557610cf5612d11565b60009182526020909120015464010000000090046001600160e01b0316610d1a565b60005b6001600160e01b03169392505050565b60003381610d388286611221565b905083811015610d985760405162461bcd60e51b815260206004820152602560248201527f45524332303a2064656372656173656420616c6c6f77616e63652062656c6f77604482015264207a65726f60d81b60648201526084016106ce565b6107378286868403611347565b6000336106658185856114e5565b610dbb611ab0565b60006101fb54116040518060400160405280600381526020016232303360e81b81525090610dfc5760405162461bcd60e51b81526004016106ce919061274b565b506040516346ec8d2b60e11b81526004810182905282906000906001600160a01b03831690638dd91a5690602401600060405180830381865afa158015610e47573d6000803e3d6000fd5b505050506040513d6000823e601f3d908101601f19168201604052610e6f9190810190612f70565b60c081015160408051808201909152600381526203130360ec1b60208201529192506001600160a01b03163314610eb95760405162461bcd60e51b81526004016106ce919061274b565b506000610ecf826101e001518360400151610742565b90506101fb54811115610ee257506101fb545b3360009081526101fa602090815260408083206101e08601516001600160a01b0316845290915281208054839290610f1b908490612bce565b90915550610f2b90503382611a17565b806101fb6000828254610f3e9190612bb7565b909155505060408051338152602081018390527f5d425a3a6a3d5a60fbf147dc6659ce3dfeb701fc44fe90058c32783b8807c5749101610bed565b600061066b61093983610ca1565b83421115610fd75760405162461bcd60e51b815260206004820152601d60248201527f4552433230566f7465733a207369676e6174757265206578706972656400000060448201526064016106ce565b604080517fe48329057bfd03d55e49b547132e39cffd9c1820ad7b9d4c5307691425d15adf60208201526001600160a01b038816918101919091526060810186905260808101859052600090611051906110499060a00160405160208183030381529060405280519060200120611af6565b858585611b44565b905061105c81611b6c565b86146110aa5760405162461bcd60e51b815260206004820152601960248201527f4552433230566f7465733a20696e76616c6964206e6f6e63650000000000000060448201526064016106ce565b6110b4818861181f565b50505050505050565b8342111561110d5760405162461bcd60e51b815260206004820152601d60248201527f45524332305065726d69743a206578706972656420646561646c696e6500000060448201526064016106ce565b60007f6e71edae12b1b97f4d1f60370fef10105fa2faae0126114a169c64845d6126c988888861113c8c611b6c565b6040805160208101969096526001600160a01b0394851690860152929091166060840152608083015260a082015260c0810186905260e001604051602081830303815290604052805190602001209050600061119782611af6565b905060006111a782878787611b44565b9050896001600160a01b0316816001600160a01b03161461120a5760405162461bcd60e51b815260206004820152601e60248201527f45524332305065726d69743a20696e76616c6964207369676e6174757265000060448201526064016106ce565b6112158a8a8a611347565b50505050505050505050565b6001600160a01b03918216600090815260346020908152604080832093909416825291909152205490565b60408051808201909152600080825260208201526001600160a01b038316600090815261019560205260409020805463ffffffff841690811061129157611291612d11565b60009182526020918290206040805180820190915291015463ffffffff8116825264010000000090046001600160e01b0316918101919091529392505050565b6112d9611903565b6001600160a01b03811661133e5760405162461bcd60e51b815260206004820152602660248201527f4f776e61626c653a206e6577206f776e657220697320746865207a65726f206160448201526564647265737360d01b60648201526084016106ce565b61070b8161195d565b6001600160a01b0383166113a95760405162461bcd60e51b8152602060048201526024808201527f45524332303a20617070726f76652066726f6d20746865207a65726f206164646044820152637265737360e01b60648201526084016106ce565b6001600160a01b03821661140a5760405162461bcd60e51b815260206004820152602260248201527f45524332303a20617070726f766520746f20746865207a65726f206164647265604482015261737360f01b60648201526084016106ce565b6001600160a01b0383811660008181526034602090815260408083209487168084529482529182902085905590518481527f8c5be1e5ebec7d5bd14f71427d1e84f3dd0314c0f7b2291e5b200ac8c7c3b925910160405180910390a3505050565b60006114778484611221565b905060001981146114df57818110156114d25760405162461bcd60e51b815260206004820152601d60248201527f45524332303a20696e73756666696369656e7420616c6c6f77616e636500000060448201526064016106ce565b6114df8484848403611347565b50505050565b6001600160a01b0383166115495760405162461bcd60e51b815260206004820152602560248201527f45524332303a207472616e736665722066726f6d20746865207a65726f206164604482015264647265737360d81b60648201526084016106ce565b6001600160a01b0382166115ab5760405162461bcd60e51b815260206004820152602360248201527f45524332303a207472616e7366657220746f20746865207a65726f206164647260448201526265737360e81b60648201526084016106ce565b6115b6838383611b95565b6001600160a01b0383166000908152603360205260409020548181101561162e5760405162461bcd60e51b815260206004820152602660248201527f45524332303a207472616e7366657220616d6f756e7420657863656564732062604482015265616c616e636560d01b60648201526084016106ce565b6001600160a01b0380851660008181526033602052604080822086860390559286168082529083902080548601905591517fddf252ad1be2c89b69c2b068fc378daa952ba7f163c4a11628f55a4df523b3ef9061168e9086815260200190565b60405180910390a36114df848484611ba5565b60006107197f8b73c3c69bb8fe3d512ecc4cf759cc79239f7b179b0ffacaa9a75d522b39400f6116d161012d5490565b61012e546040805160208101859052908101839052606081018290524660808201523060a082015260009060c0016040516020818303038152906040528051906020012090509392505050565b81546000908181600581111561177857600061173984611bb0565b6117439085612bb7565b600088815260209020909150869082015463ffffffff16111561176857809150611776565b611773816001612bce565b92505b505b808210156117c557600061178c8383611c95565b600088815260209020909150869082015463ffffffff1611156117b1578091506117bf565b6117bc816001612bce565b92505b50611778565b80156117ff576117e8866117da600184612bb7565b600091825260209091200190565b5464010000000090046001600160e01b0316611802565b60005b6001600160e01b03169695505050505050565b6109538282611cb0565b6001600160a01b0382811660008181526101946020818152604080842080546033845282862054949093528787166001600160a01b03198416811790915590519190951694919391928592917f3134e8a2e6d97e929a7e54011ea5485d7d196dd5f0ba4d4ef95803e8e3fc257f9190a46114df828483611cc9565b600063ffffffff8211156118ff5760405162461bcd60e51b815260206004820152602660248201527f53616665436173743a2076616c756520646f65736e27742066697420696e203360448201526532206269747360d01b60648201526084016106ce565b5090565b60fb546001600160a01b031633146109285760405162461bcd60e51b815260206004820181905260248201527f4f776e61626c653a2063616c6c6572206973206e6f7420746865206f776e657260448201526064016106ce565b60fb80546001600160a01b038381166001600160a01b0319831681179093556040519116919082907f8be0079c531659141344cd1fd0a4f28419497f9722a3daafe3b4186f6b6457e090600090a35050565b60006001600160601b038211156118ff5760405162461bcd60e51b815260206004820152602660248201527f53616665436173743a2076616c756520646f65736e27742066697420696e203960448201526536206269747360d01b60648201526084016106ce565b6109538282611e08565b600054610100900460ff16611a485760405162461bcd60e51b81526004016106ce906131d1565b610928611e98565b600054610100900460ff16611a775760405162461bcd60e51b81526004016106ce906131d1565b6109538282611ecb565b600054610100900460ff16611aa85760405162461bcd60e51b81526004016106ce906131d1565b610928611f19565b60655460ff16156109285760405162461bcd60e51b815260206004820152601060248201526f14185d5cd8589b194e881c185d5cd95960821b60448201526064016106ce565b600061066b611b036116a1565b8360405161190160f01b6020820152602281018390526042810182905260009060620160405160208183030381529060405280519060200120905092915050565b6000806000611b5587878787611f49565b91509150611b628161200d565b5095945050505050565b6001600160a01b0381166000908152610161602052604090208054600181018255905b50919050565b611ba083838361215b565b505050565b611ba08383836121c1565b600081611bbf57506000919050565b60006001611bcc846121f4565b901c6001901b90506001818481611be557611be5612cd9565b048201901c90506001818481611bfd57611bfd612cd9565b048201901c90506001818481611c1557611c15612cd9565b048201901c90506001818481611c2d57611c2d612cd9565b048201901c90506001818481611c4557611c45612cd9565b048201901c90506001818481611c5d57611c5d612cd9565b048201901c90506001818481611c7557611c75612cd9565b048201901c90506108d881828581611c8f57611c8f612cd9565b04612288565b6000611ca46002848418612cef565b6108d890848416612bce565b611cba828261229e565b6114df6101966123e5836123f1565b816001600160a01b0316836001600160a01b031614158015611ceb5750600081115b15611ba0576001600160a01b03831615611d7a576001600160a01b0383166000908152610195602052604081208190611d27906123e5856123f1565b91509150846001600160a01b03167fdec2bacdd2f05b59de34da9b523dff8be42e5e38e818c82fdb0bae774387a7248383604051611d6f929190918252602082015260400190565b60405180910390a250505b6001600160a01b03821615611ba0576001600160a01b0382166000908152610195602052604081208190611db190612545856123f1565b91509150836001600160a01b03167fdec2bacdd2f05b59de34da9b523dff8be42e5e38e818c82fdb0bae774387a7248383604051611df9929190918252602082015260400190565b60405180910390a25050505050565b611e128282612551565b6001600160601b03611e2261070e565b1115611e895760405162461bcd60e51b815260206004820152603060248201527f4552433230566f7465733a20746f74616c20737570706c79207269736b73206f60448201526f766572666c6f77696e6720766f74657360801b60648201526084016106ce565b6114df610196612545836123f1565b600054610100900460ff16611ebf5760405162461bcd60e51b81526004016106ce906131d1565b6065805460ff19169055565b600054610100900460ff16611ef25760405162461bcd60e51b81526004016106ce906131d1565b8151611f0590603690602085019061268f565b508051611ba090603790602084019061268f565b600054610100900460ff16611f405760405162461bcd60e51b81526004016106ce906131d1565b6109283361195d565b6000807f7fffffffffffffffffffffffffffffff5d576e7357a4501ddfe92f46681b20a0831115611f805750600090506003612004565b6040805160008082526020820180845289905260ff881692820192909252606081018690526080810185905260019060a0016020604051602081039080840390855afa158015611fd4573d6000803e3d6000fd5b5050604051601f1901519150506001600160a01b038116611ffd57600060019250925050612004565b9150600090505b94509492505050565b60008160048111156120215761202161321c565b141561202a5750565b600181600481111561203e5761203e61321c565b141561208c5760405162461bcd60e51b815260206004820152601860248201527f45434453413a20696e76616c6964207369676e6174757265000000000000000060448201526064016106ce565b60028160048111156120a0576120a061321c565b14156120ee5760405162461bcd60e51b815260206004820152601f60248201527f45434453413a20696e76616c6964207369676e6174757265206c656e6774680060448201526064016106ce565b60038160048111156121025761210261321c565b141561070b5760405162461bcd60e51b815260206004820152602260248201527f45434453413a20696e76616c6964207369676e6174757265202773272076616c604482015261756560f01b60648201526084016106ce565b60655460ff1615611ba05760405162461bcd60e51b815260206004820152602a60248201527f45524332305061757361626c653a20746f6b656e207472616e736665722077686044820152691a5b19481c185d5cd95960b21b60648201526084016106ce565b6001600160a01b0383811660009081526101946020526040808220548584168352912054611ba092918216911683611cc9565b600080608083901c1561220957608092831c92015b604083901c1561221b57604092831c92015b602083901c1561222d57602092831c92015b601083901c1561223f57601092831c92015b600883901c1561225157600892831c92015b600483901c1561226357600492831c92015b600283901c1561227557600292831c92015b600183901c1561066b5760010192915050565b600081831061229757816108d8565b5090919050565b6001600160a01b0382166122fe5760405162461bcd60e51b815260206004820152602160248201527f45524332303a206275726e2066726f6d20746865207a65726f206164647265736044820152607360f81b60648201526084016106ce565b61230a82600083611b95565b6001600160a01b0382166000908152603360205260409020548181101561237e5760405162461bcd60e51b815260206004820152602260248201527f45524332303a206275726e20616d6f756e7420657863656564732062616c616e604482015261636560f01b60648201526084016106ce565b6001600160a01b03831660008181526033602090815260408083208686039055603580548790039055518581529192917fddf252ad1be2c89b69c2b068fc378daa952ba7f163c4a11628f55a4df523b3ef910160405180910390a3611ba083600084611ba5565b60006108d88284612bb7565b8254600090819081811561243e5761240e876117da600185612bb7565b60408051808201909152905463ffffffff8116825264010000000090046001600160e01b03166020820152612453565b60408051808201909152600080825260208201525b905080602001516001600160e01b0316935061247384868863ffffffff16565b925060008211801561248b5750805163ffffffff1643145b156124d05761249983612626565b6124a8886117da600186612bb7565b80546001600160e01b03929092166401000000000263ffffffff90921691909117905561253b565b8660405180604001604052806124e54361189a565b63ffffffff1681526020016124f986612626565b6001600160e01b0390811690915282546001810184556000938452602093849020835194909301519091166401000000000263ffffffff909316929092179101555b5050935093915050565b60006108d88284612bce565b6001600160a01b0382166125a75760405162461bcd60e51b815260206004820152601f60248201527f45524332303a206d696e7420746f20746865207a65726f20616464726573730060448201526064016106ce565b6125b360008383611b95565b80603560008282546125c59190612bce565b90915550506001600160a01b0382166000818152603360209081526040808320805486019055518481527fddf252ad1be2c89b69c2b068fc378daa952ba7f163c4a11628f55a4df523b3ef910160405180910390a361095360008383611ba5565b60006001600160e01b038211156118ff5760405162461bcd60e51b815260206004820152602760248201527f53616665436173743a2076616c756520646f65736e27742066697420696e20326044820152663234206269747360c81b60648201526084016106ce565b82805461269b90612b1f565b90600052602060002090601f0160209004810192826126bd5760008555612703565b82601f106126d657805160ff1916838001178555612703565b82800160010185558215612703579182015b828111156127035782518255916020019190600101906126e8565b506118ff9291505b808211156118ff576000815560010161270b565b60005b8381101561273a578181015183820152602001612722565b838111156114df5750506000910152565b602081526000825180602084015261276a81604085016020870161271f565b601f01601f19169190910160400192915050565b6001600160a01b038116811461070b57600080fd5b600080604083850312156127a657600080fd5b82356127b18161277e565b946020939093013593505050565b6000602082840312156127d157600080fd5b81356108d88161277e565b6000806000606084860312156127f157600080fd5b83356127fc8161277e565b9250602084013561280c8161277e565b929592945050506040919091013590565b60006020828403121561282f57600080fd5b5035919050565b634e487b7160e01b600052604160045260246000fd5b60405160a0810167ffffffffffffffff8111828210171561286f5761286f612836565b60405290565b604051610260810167ffffffffffffffff8111828210171561286f5761286f612836565b604051601f8201601f1916810167ffffffffffffffff811182821017156128c2576128c2612836565b604052919050565b600067ffffffffffffffff8211156128e4576128e4612836565b50601f01601f191660200190565b600082601f83011261290357600080fd5b8135612916612911826128ca565b612899565b81815284602083860101111561292b57600080fd5b816020850160208301376000918101602001919091529392505050565b6000806000806080858703121561295e57600080fd5b843567ffffffffffffffff8082111561297657600080fd5b612982888389016128f2565b9550602087013591508082111561299857600080fd5b506129a5878288016128f2565b93505060408501356129b68161277e565b915060608501356129c68161277e565b939692955090935050565b600080604083850312156129e457600080fd5b82356129ef8161277e565b915060208301356129ff8161277e565b809150509250929050565b803560ff81168114612a1b57600080fd5b919050565b60008060008060008060c08789031215612a3957600080fd5b8635612a448161277e565b95506020870135945060408701359350612a6060608801612a0a565b92506080870135915060a087013590509295509295509295565b600080600080600080600060e0888a031215612a9557600080fd5b8735612aa08161277e565b96506020880135612ab08161277e565b95506040880135945060608801359350612acc60808901612a0a565b925060a0880135915060c0880135905092959891949750929550565b60008060408385031215612afb57600080fd5b8235612b068161277e565b9150602083013563ffffffff811681146129ff57600080fd5b600181811c90821680612b3357607f821691505b60208210811415611b8f57634e487b7160e01b600052602260045260246000fd5b805162ffffff81168114612a1b57600080fd5b600060208284031215612b7957600080fd5b6108d882612b54565b634e487b7160e01b600052601160045260246000fd5b6000816000190483118215151615612bb257612bb2612b82565b500290565b600082821015612bc957612bc9612b82565b500390565b60008219821115612be157612be1612b82565b500190565b600181815b80851115612c21578160001904821115612c0757612c07612b82565b80851615612c1457918102915b93841c9390800290612beb565b509250929050565b600082612c385750600161066b565b81612c455750600061066b565b8160018114612c5b5760028114612c6557612c81565b600191505061066b565b60ff841115612c7657612c76612b82565b50506001821b61066b565b5060208310610133831016604e8410600b8410161715612ca4575081810a61066b565b612cae8383612be6565b8060001904821115612cc257612cc2612b82565b029392505050565b60006108d860ff841683612c29565b634e487b7160e01b600052601260045260246000fd5b600082612d0c57634e487b7160e01b600052601260045260246000fd5b500490565b634e487b7160e01b600052603260045260246000fd5b8051612a1b8161277e565b600082601f830112612d4357600080fd5b8151612d51612911826128ca565b818152846020838601011115612d6657600080fd5b612d7782602083016020870161271f565b949350505050565b600060a08284031215612d9157600080fd5b612d9961284c565b9050815167ffffffffffffffff80821115612db357600080fd5b612dbf85838601612d32565b83526020840151915080821115612dd557600080fd5b612de185838601612d32565b60208401526040840151915080821115612dfa57600080fd5b612e0685838601612d32565b60408401526060840151915080821115612e1f57600080fd5b612e2b85838601612d32565b60608401526080840151915080821115612e4457600080fd5b50612e5184828501612d32565b60808301525092915050565b600067ffffffffffffffff821115612e7757612e77612836565b5060051b60200190565b600082601f830112612e9257600080fd5b81516020612ea261291183612e5d565b82815260059290921b84018101918181019086841115612ec157600080fd5b8286015b84811015612f0157805167ffffffffffffffff811115612ee55760008081fd5b612ef38986838b0101612d32565b845250918301918301612ec5565b509695505050505050565b600082601f830112612f1d57600080fd5b81516020612f2d61291183612e5d565b82815260059290921b84018101918181019086841115612f4c57600080fd5b8286015b84811015612f01578051612f638161277e565b8352918301918301612f50565b600060208284031215612f8257600080fd5b815167ffffffffffffffff80821115612f9a57600080fd5b908301906102608286031215612faf57600080fd5b612fb7612875565b612fc083612b54565b8152612fce60208401612b54565b602082015260408301516040820152612fe960608401612d27565b606082015260808301518281111561300057600080fd5b61300c87828601612d32565b60808301525060a08301518281111561302457600080fd5b61303087828601612d32565b60a08301525061304260c08401612d27565b60c082015260e08301518281111561305957600080fd5b61306587828601612d32565b60e083015250610100808401518381111561307f57600080fd5b61308b88828701612d32565b82840152505061012080840151838111156130a557600080fd5b6130b188828701612d32565b82840152505061014080840151838111156130cb57600080fd5b6130d788828701612d7f565b82840152505061016080840151838111156130f157600080fd5b6130fd88828701612e81565b828401525050610180808401518381111561311757600080fd5b61312388828701612e81565b8284015250506101a0808401518381111561313d57600080fd5b61314988828701612d32565b8284015250506101c08084015181830152506101e0613169818501612d27565b90820152610200838101518381111561318157600080fd5b61318d88828701612d32565b82840152505061022080840151838111156131a757600080fd5b6131b388828701612f0c565b91830191909152506102409283015192810192909252509392505050565b6020808252602b908201527f496e697469616c697a61626c653a20636f6e7472616374206973206e6f74206960408201526a6e697469616c697a696e6760a81b606082015260800190565b634e487b7160e01b600052602160045260246000fdfea2646970667358221220762485e01e1eaa4d010e2a4e94b49f10301c765602e81042b3a49b58da4b8bdc64736f6c634300080c0033",
  "linkReferences": {},
  "deployedLinkReferences": {}
}