{
  "_format": "hh-sol-artifact-1",
  "contractName": "GENToken",
  "sourceName": "contracts/erc20/GENToken.sol",
  "abi": [
    {
      "anonymous": false,
      "inputs": [
        {
          "indexed": true,
          "internalType": "address",
          "name": "owner",
          "type": "address"
        },
        {
          "indexed": true,
          "internalType": "address",
          "name": "spender",
          "type": "address"
        },
        {
          "indexed": false,
          "internalType": "uint256",
          "name": "value",
          "type": "uint256"
        }
      ],
      "name": "Approval",
      "type": "event"
    },
    {
      "anonymous": false,
      "inputs": [
        {
          "indexed": false,
          "internalType": "address",
          "name": "to",
          "type": "address"
        },
        {
          "indexed": false,
          "internalType": "uint256",
          "name": "amount",
          "type": "uint256"
        }
      ],
      "name": "ClaimToken",
      "type": "event"
    },
    {
      "anonymous": false,
      "inputs": [
        {
          "indexed": true,
          "internalType": "address",
          "name": "delegator",
          "type": "address"
        },
        {
          "indexed": true,
          "internalType": "address",
          "name": "fromDelegate",
          "type": "address"
        },
        {
          "indexed": true,
          "internalType": "address",
          "name": "toDelegate",
          "type": "address"
        }
      ],
      "name": "DelegateChanged",
      "type": "event"
    },
    {
      "anonymous": false,
      "inputs": [
        {
          "indexed": true,
          "internalType": "address",
          "name": "delegate",
          "type": "address"
        },
        {
          "indexed": false,
          "internalType": "uint256",
          "name": "previousBalance",
          "type": "uint256"
        },
        {
          "indexed": false,
          "internalType": "uint256",
          "name": "newBalance",
          "type": "uint256"
        }
      ],
      "name": "DelegateVotesChanged",
      "type": "event"
    },
    {
      "anonymous": false,
      "inputs": [
        {
          "indexed": false,
          "internalType": "uint8",
          "name": "version",
          "type": "uint8"
        }
      ],
      "name": "Initialized",
      "type": "event"
    },
    {
      "anonymous": false,
      "inputs": [
        {
          "indexed": true,
          "internalType": "address",
          "name": "previousOwner",
          "type": "address"
        },
        {
          "indexed": true,
          "internalType": "address",
          "name": "newOwner",
          "type": "address"
        }
      ],
      "name": "OwnershipTransferred",
      "type": "event"
    },
    {
      "anonymous": false,
      "inputs": [
        {
          "indexed": false,
          "internalType": "address",
          "name": "account",
          "type": "address"
        }
      ],
      "name": "Paused",
      "type": "event"
    },
    {
      "anonymous": false,
      "inputs": [
        {
          "indexed": true,
          "internalType": "address",
          "name": "from",
          "type": "address"
        },
        {
          "indexed": true,
          "internalType": "address",
          "name": "to",
          "type": "address"
        },
        {
          "indexed": false,
          "internalType": "uint256",
          "name": "value",
          "type": "uint256"
        }
      ],
      "name": "Transfer",
      "type": "event"
    },
    {
      "anonymous": false,
      "inputs": [
        {
          "indexed": false,
          "internalType": "address",
          "name": "account",
          "type": "address"
        }
      ],
      "name": "Unpaused",
      "type": "event"
    },
    {
      "inputs": [],
      "name": "DOMAIN_SEPARATOR",
      "outputs": [
        {
          "internalType": "bytes32",
          "name": "",
          "type": "bytes32"
        }
      ],
      "stateMutability": "view",
      "type": "function"
    },
    {
      "inputs": [],
      "name": "_admin",
      "outputs": [
        {
          "internalType": "address",
          "name": "",
          "type": "address"
        }
      ],
      "stateMutability": "view",
      "type": "function"
    },
    {
      "inputs": [
        {
          "internalType": "address",
          "name": "",
          "type": "address"
        },
        {
          "internalType": "address",
          "name": "",
          "type": "address"
        }
      ],
      "name": "_claimed",
      "outputs": [
        {
          "internalType": "uint256",
          "name": "",
          "type": "uint256"
        }
      ],
      "stateMutability": "view",
      "type": "function"
    },
    {
      "inputs": [],
      "name": "_paramAddr",
      "outputs": [
        {
          "internalType": "address",
          "name": "",
          "type": "address"
        }
      ],
      "stateMutability": "view",
      "type": "function"
    },
    {
      "inputs": [],
      "name": "_remainSupply",
      "outputs": [
        {
          "internalType": "uint256",
          "name": "",
          "type": "uint256"
        }
      ],
      "stateMutability": "view",
      "type": "function"
    },
    {
      "inputs": [
        {
          "internalType": "address",
          "name": "owner",
          "type": "address"
        },
        {
          "internalType": "address",
          "name": "spender",
          "type": "address"
        }
      ],
      "name": "allowance",
      "outputs": [
        {
          "internalType": "uint256",
          "name": "",
          "type": "uint256"
        }
      ],
      "stateMutability": "view",
      "type": "function"
    },
    {
      "inputs": [
        {
          "internalType": "address",
          "name": "spender",
          "type": "address"
        },
        {
          "internalType": "uint256",
          "name": "amount",
          "type": "uint256"
        }
      ],
      "name": "approve",
      "outputs": [
        {
          "internalType": "bool",
          "name": "",
          "type": "bool"
        }
      ],
      "stateMutability": "nonpayable",
      "type": "function"
    },
    {
      "inputs": [
        {
          "internalType": "address",
          "name": "account",
          "type": "address"
        }
      ],
      "name": "balanceOf",
      "outputs": [
        {
          "internalType": "uint256",
          "name": "",
          "type": "uint256"
        }
      ],
      "stateMutability": "view",
      "type": "function"
    },
    {
      "inputs": [
        {
          "internalType": "uint256",
          "name": "amount",
          "type": "uint256"
        }
      ],
      "name": "burn",
      "outputs": [],
      "stateMutability": "nonpayable",
      "type": "function"
    },
    {
      "inputs": [
        {
          "internalType": "address",
          "name": "account",
          "type": "address"
        },
        {
          "internalType": "uint256",
          "name": "amount",
          "type": "uint256"
        }
      ],
      "name": "burnFrom",
      "outputs": [],
      "stateMutability": "nonpayable",
      "type": "function"
    },
    {
      "inputs": [
        {
          "internalType": "address",
          "name": "newAdm",
          "type": "address"
        }
      ],
      "name": "changeAdmin",
      "outputs": [],
      "stateMutability": "nonpayable",
      "type": "function"
    },
    {
      "inputs": [
        {
          "internalType": "address",
          "name": "newAddr",
          "type": "address"
        }
      ],
      "name": "changeParamAddress",
      "outputs": [],
      "stateMutability": "nonpayable",
      "type": "function"
    },
    {
      "inputs": [
        {
          "internalType": "address",
          "name": "account",
          "type": "address"
        },
        {
          "internalType": "uint32",
          "name": "pos",
          "type": "uint32"
        }
      ],
      "name": "checkpoints",
      "outputs": [
        {
          "components": [
            {
              "internalType": "uint32",
              "name": "fromBlock",
              "type": "uint32"
            },
            {
              "internalType": "uint224",
              "name": "votes",
              "type": "uint224"
            }
          ],
          "internalType": "struct ERC20VotesUpgradeable.Checkpoint",
          "name": "",
          "type": "tuple"
        }
      ],
      "stateMutability": "view",
      "type": "function"
    },
    {
      "inputs": [
        {
          "internalType": "address",
          "name": "generativeProjectAddr",
          "type": "address"
        },
        {
          "internalType": "uint256",
          "name": "projectId",
          "type": "uint256"
        }
      ],
      "name": "claim",
      "outputs": [],
      "stateMutability": "nonpayable",
      "type": "function"
    },
    {
      "inputs": [],
      "name": "decimals",
      "outputs": [
        {
          "internalType": "uint8",
          "name": "",
          "type": "uint8"
        }
      ],
      "stateMutability": "pure",
      "type": "function"
    },
    {
      "inputs": [
        {
          "internalType": "address",
          "name": "spender",
          "type": "address"
        },
        {
          "internalType": "uint256",
          "name": "subtractedValue",
          "type": "uint256"
        }
      ],
      "name": "decreaseAllowance",
      "outputs": [
        {
          "internalType": "bool",
          "name": "",
          "type": "bool"
        }
      ],
      "stateMutability": "nonpayable",
      "type": "function"
    },
    {
      "inputs": [
        {
          "internalType": "address",
          "name": "delegatee",
          "type": "address"
        }
      ],
      "name": "delegate",
      "outputs": [],
      "stateMutability": "nonpayable",
      "type": "function"
    },
    {
      "inputs": [
        {
          "internalType": "address",
          "name": "delegatee",
          "type": "address"
        },
        {
          "internalType": "uint256",
          "name": "nonce",
          "type": "uint256"
        },
        {
          "internalType": "uint256",
          "name": "expiry",
          "type": "uint256"
        },
        {
          "internalType": "uint8",
          "name": "v",
          "type": "uint8"
        },
        {
          "internalType": "bytes32",
          "name": "r",
          "type": "bytes32"
        },
        {
          "internalType": "bytes32",
          "name": "s",
          "type": "bytes32"
        }
      ],
      "name": "delegateBySig",
      "outputs": [],
      "stateMutability": "nonpayable",
      "type": "function"
    },
    {
      "inputs": [
        {
          "internalType": "address",
          "name": "account",
          "type": "address"
        }
      ],
      "name": "delegates",
      "outputs": [
        {
          "internalType": "address",
          "name": "",
          "type": "address"
        }
      ],
      "stateMutability": "view",
      "type": "function"
    },
    {
      "inputs": [
        {
          "internalType": "address",
          "name": "account",
          "type": "address"
        }
      ],
      "name": "getCurrentVotes",
      "outputs": [
        {
          "internalType": "uint96",
          "name": "",
          "type": "uint96"
        }
      ],
      "stateMutability": "view",
      "type": "function"
    },
    {
      "inputs": [
        {
          "internalType": "uint256",
          "name": "blockNumber",
          "type": "uint256"
        }
      ],
      "name": "getPastTotalSupply",
      "outputs": [
        {
          "internalType": "uint256",
          "name": "",
          "type": "uint256"
        }
      ],
      "stateMutability": "view",
      "type": "function"
    },
    {
      "inputs": [
        {
          "internalType": "address",
          "name": "account",
          "type": "address"
        },
        {
          "internalType": "uint256",
          "name": "blockNumber",
          "type": "uint256"
        }
      ],
      "name": "getPastVotes",
      "outputs": [
        {
          "internalType": "uint256",
          "name": "",
          "type": "uint256"
        }
      ],
      "stateMutability": "view",
      "type": "function"
    },
    {
      "inputs": [
        {
          "internalType": "address",
          "name": "account",
          "type": "address"
        },
        {
          "internalType": "uint256",
          "name": "blockNumber",
          "type": "uint256"
        }
      ],
      "name": "getPriorVotes",
      "outputs": [
        {
          "internalType": "uint96",
          "name": "",
          "type": "uint96"
        }
      ],
      "stateMutability": "view",
      "type": "function"
    },
    {
      "inputs": [
        {
          "internalType": "address",
          "name": "account",
          "type": "address"
        }
      ],
      "name": "getVotes",
      "outputs": [
        {
          "internalType": "uint256",
          "name": "",
          "type": "uint256"
        }
      ],
      "stateMutability": "view",
      "type": "function"
    },
    {
      "inputs": [
        {
          "internalType": "address",
          "name": "spender",
          "type": "address"
        },
        {
          "internalType": "uint256",
          "name": "addedValue",
          "type": "uint256"
        }
      ],
      "name": "increaseAllowance",
      "outputs": [
        {
          "internalType": "bool",
          "name": "",
          "type": "bool"
        }
      ],
      "stateMutability": "nonpayable",
      "type": "function"
    },
    {
      "inputs": [
        {
          "internalType": "string",
          "name": "name",
          "type": "string"
        },
        {
          "internalType": "string",
          "name": "symbol",
          "type": "string"
        },
        {
          "internalType": "address",
          "name": "admin",
          "type": "address"
        },
        {
          "internalType": "address",
          "name": "paramAddr",
          "type": "address"
        },
        {
          "internalType": "uint256",
          "name": "initSupply",
          "type": "uint256"
        }
      ],
      "name": "initialize",
      "outputs": [],
      "stateMutability": "nonpayable",
      "type": "function"
    },
    {
      "inputs": [],
      "name": "name",
      "outputs": [
        {
          "internalType": "string",
          "name": "",
          "type": "string"
        }
      ],
      "stateMutability": "view",
      "type": "function"
    },
    {
      "inputs": [
        {
          "internalType": "address",
          "name": "owner",
          "type": "address"
        }
      ],
      "name": "nonces",
      "outputs": [
        {
          "internalType": "uint256",
          "name": "",
          "type": "uint256"
        }
      ],
      "stateMutability": "view",
      "type": "function"
    },
    {
      "inputs": [
        {
          "internalType": "address",
          "name": "account",
          "type": "address"
        }
      ],
      "name": "numCheckpoints",
      "outputs": [
        {
          "internalType": "uint32",
          "name": "",
          "type": "uint32"
        }
      ],
      "stateMutability": "view",
      "type": "function"
    },
    {
      "inputs": [],
      "name": "owner",
      "outputs": [
        {
          "internalType": "address",
          "name": "",
          "type": "address"
        }
      ],
      "stateMutability": "view",
      "type": "function"
    },
    {
      "inputs": [],
      "name": "paused",
      "outputs": [
        {
          "internalType": "bool",
          "name": "",
          "type": "bool"
        }
      ],
      "stateMutability": "view",
      "type": "function"
    },
    {
      "inputs": [
        {
          "internalType": "address",
          "name": "owner",
          "type": "address"
        },
        {
          "internalType": "address",
          "name": "spender",
          "type": "address"
        },
        {
          "internalType": "uint256",
          "name": "value",
          "type": "uint256"
        },
        {
          "internalType": "uint256",
          "name": "deadline",
          "type": "uint256"
        },
        {
          "internalType": "uint8",
          "name": "v",
          "type": "uint8"
        },
        {
          "internalType": "bytes32",
          "name": "r",
          "type": "bytes32"
        },
        {
          "internalType": "bytes32",
          "name": "s",
          "type": "bytes32"
        }
      ],
      "name": "permit",
      "outputs": [],
      "stateMutability": "nonpayable",
      "type": "function"
    },
    {
      "inputs": [],
      "name": "renounceOwnership",
      "outputs": [],
      "stateMutability": "nonpayable",
      "type": "function"
    },
    {
      "inputs": [],
      "name": "symbol",
      "outputs": [
        {
          "internalType": "string",
          "name": "",
          "type": "string"
        }
      ],
      "stateMutability": "view",
      "type": "function"
    },
    {
      "inputs": [],
      "name": "totalSupply",
      "outputs": [
        {
          "internalType": "uint256",
          "name": "",
          "type": "uint256"
        }
      ],
      "stateMutability": "view",
      "type": "function"
    },
    {
      "inputs": [
        {
          "internalType": "address",
          "name": "to",
          "type": "address"
        },
        {
          "internalType": "uint256",
          "name": "amount",
          "type": "uint256"
        }
      ],
      "name": "transfer",
      "outputs": [
        {
          "internalType": "bool",
          "name": "",
          "type": "bool"
        }
      ],
      "stateMutability": "nonpayable",
      "type": "function"
    },
    {
      "inputs": [
        {
          "internalType": "address",
          "name": "from",
          "type": "address"
        },
        {
          "internalType": "address",
          "name": "to",
          "type": "address"
        },
        {
          "internalType": "uint256",
          "name": "amount",
          "type": "uint256"
        }
      ],
      "name": "transferFrom",
      "outputs": [
        {
          "internalType": "bool",
          "name": "",
          "type": "bool"
        }
      ],
      "stateMutability": "nonpayable",
      "type": "function"
    },
    {
      "inputs": [
        {
          "internalType": "address",
          "name": "newOwner",
          "type": "address"
        }
      ],
      "name": "transferOwnership",
      "outputs": [],
      "stateMutability": "nonpayable",
      "type": "function"
    }
  ],
  "bytecode": "0x608060405234801561001057600080fd5b50613087806100206000396000f3fe608060405234801561001057600080fd5b50600436106102325760003560e01c806379cc679011610130578063a9059cbb116100b8578063d505accf1161007c578063d505accf1461051d578063dd62ed3e14610530578063f1127ed814610543578063f2fde38b14610580578063f4a290f71461059357600080fd5b8063a9059cbb146104be578063aad3ec96146104d1578063b4b5ea57146104e4578063c3cda520146104f7578063c9aba0aa1461050a57600080fd5b80638f283970116100ff5780638f28397014610451578063945277291461046457806395d89b41146104905780639ab24eb014610498578063a457c2d7146104ab57600080fd5b806379cc6790146104075780637ecebe001461041a5780638da5cb5b1461042d5780638e539e8c1461043e57600080fd5b806339509351116101be5780635c975abb116101825780635c975abb146103785780636fcfff451461038357806370a08231146103ab578063715018a6146103d4578063782d6fe1146103dc57600080fd5b806339509351146102ff5780633a46b1a81461031257806342966c6814610325578063587cde1e146103385780635c19a95c1461036557600080fd5b806318160ddd1161020557806318160ddd146102b557806323b872dd146102cb578063313ce567146102de578063357a7a50146102ed5780633644e515146102f757600080fd5b806301bc45c91461023757806306fdde0314610268578063095ea7b31461027d57806316a5041f146102a0575b600080fd5b6101f85461024b906001600160a01b031681565b6040516001600160a01b0390911681526020015b60405180910390f35b6102706105a7565b60405161025f9190612655565b61029061028b36600461269d565b610639565b604051901515815260200161025f565b6102b36102ae3660046126c9565b610653565b005b6102bd6106f0565b60405190815260200161025f565b6102906102d93660046126e6565b610700565b6040516012815260200161025f565b6102bd6101fb5481565b6102bd610724565b61029061030d36600461269d565b61072e565b6102bd61032036600461269d565b610750565b6102b3610333366004612727565b6107cb565b61024b6103463660046126c9565b6001600160a01b03908116600090815261019460205260409020541690565b6102b36103733660046126c9565b6107d5565b60655460ff16610290565b6103966103913660046126c9565b6107df565b60405163ffffffff909116815260200161025f565b6102bd6103b93660046126c9565b6001600160a01b031660009081526033602052604090205490565b6102b3610802565b6103ef6103ea36600461269d565b610816565b6040516001600160601b03909116815260200161025f565b6102b361041536600461269d565b61082a565b6102bd6104283660046126c9565b610843565b60fb546001600160a01b031661024b565b6102bd61044c366004612727565b610862565b6102b361045f3660046126c9565b6108bf565b6102bd610472366004612740565b6101fa60209081526000928352604080842090915290825290205481565b610270610954565b6102bd6104a63660046126c9565b610963565b6102906104b936600461269d565b6109ec565b6102906104cc36600461269d565b610a67565b6102b36104df36600461269d565b610a75565b6103ef6104f23660046126c9565b610bc4565b6102b361050536600461278f565b610bd2565b6102b36105183660046128fb565b610d08565b6102b361052b36600461298c565b610ecd565b6102bd61053e366004612740565b611031565b6105566105513660046129fa565b61105c565b60408051825163ffffffff1681526020928301516001600160e01b0316928101929092520161025f565b6102b361058e3660046126c9565b6110e1565b6101f95461024b906001600160a01b031681565b6060603680546105b690612a31565b80601f01602080910402602001604051908101604052809291908181526020018280546105e290612a31565b801561062f5780601f106106045761010080835404028352916020019161062f565b820191906000526020600020905b81548152906001019060200180831161061257829003601f168201915b5050505050905090565b600033610647818585611157565b60019150505b92915050565b6101f8546001600160a01b03163314801561067657506001600160a01b03811615155b6040518060400160405280600381526020016231303160e81b815250906106b95760405162461bcd60e51b81526004016106b09190612655565b60405180910390fd5b506101f9546001600160a01b038281169116146106ed576101f880546001600160a01b0319166001600160a01b0383161790555b50565b60006106fb60355490565b905090565b60003361070e85828561127b565b6107198585856112f5565b506001949350505050565b60006106fb6114b1565b6000336106478185856107418383611031565b61074b9190612a7c565b611157565b60004382106107a15760405162461bcd60e51b815260206004820152601f60248201527f4552433230566f7465733a20626c6f636b206e6f7420796574206d696e65640060448201526064016106b0565b6001600160a01b0383166000908152610195602052604090206107c4908361152e565b9392505050565b6106ed3382611625565b6106ed338261162f565b6001600160a01b0381166000908152610195602052604081205461064d906116aa565b61080a611713565b610814600061176d565b565b60006107c46108258484610750565b6117bf565b61083582338361127b565b61083f8282611625565b5050565b6001600160a01b0381166000908152610161602052604081205461064d565b60004382106108b35760405162461bcd60e51b815260206004820152601f60248201527f4552433230566f7465733a20626c6f636b206e6f7420796574206d696e65640060448201526064016106b0565b61064d6101968361152e565b6101f8546001600160a01b0316331480156108e257506001600160a01b03811615155b6040518060400160405280600381526020016231303160e81b8152509061091c5760405162461bcd60e51b81526004016106b09190612655565b506101f8546001600160a01b038281169116146106ed576101f880546001600160a01b0383166001600160a01b031990911617905550565b6060603780546105b690612a31565b6001600160a01b0381166000908152610195602052604081205480156109d9576001600160a01b0383166000908152610195602052604090206109a7600183612a94565b815481106109b7576109b7612aab565b60009182526020909120015464010000000090046001600160e01b03166109dc565b60005b6001600160e01b03169392505050565b600033816109fa8286611031565b905083811015610a5a5760405162461bcd60e51b815260206004820152602560248201527f45524332303a2064656372656173656420616c6c6f77616e63652062656c6f77604482015264207a65726f60d81b60648201526084016106b0565b6107198286868403611157565b6000336106478185856112f5565b610a7d611827565b6040516346ec8d2b60e11b81526004810182905282906000906001600160a01b03831690638dd91a5690602401600060405180830381865afa158015610ac7573d6000803e3d6000fd5b505050506040513d6000823e601f3d908101601f19168201604052610aef9190810190612d1d565b60c081015160408051808201909152600381526203130360ec1b60208201529192506001600160a01b03163314610b395760405162461bcd60e51b81526004016106b09190612655565b506000610b4f826101e00151836040015161186d565b90506101fb54811115610b6257506101fb545b610b6c3382611967565b806101fb6000828254610b7f9190612a94565b909155505060408051338152602081018390527f5d425a3a6a3d5a60fbf147dc6659ce3dfeb701fc44fe90058c32783b8807c574910160405180910390a15050505050565b600061064d61082583610963565b83421115610c225760405162461bcd60e51b815260206004820152601d60248201527f4552433230566f7465733a207369676e6174757265206578706972656400000060448201526064016106b0565b604080517fe48329057bfd03d55e49b547132e39cffd9c1820ad7b9d4c5307691425d15adf60208201526001600160a01b038816918101919091526060810186905260808101859052600090610c9c90610c949060a00160405160208183030381529060405280519060200120611971565b8585856119bf565b9050610ca7816119e7565b8614610cf55760405162461bcd60e51b815260206004820152601960248201527f4552433230566f7465733a20696e76616c6964206e6f6e63650000000000000060448201526064016106b0565b610cff818861162f565b50505050505050565b600054610100900460ff1615808015610d285750600054600160ff909116105b80610d425750303b158015610d42575060005460ff166001145b610da55760405162461bcd60e51b815260206004820152602e60248201527f496e697469616c697a61626c653a20636f6e747261637420697320616c72656160448201526d191e481a5b9a5d1a585b1a5e995960921b60648201526084016106b0565b6000805460ff191660011790558015610dc8576000805461ff0019166101001790555b6001600160a01b03841615801590610de857506001600160a01b03831615155b6040518060400160405280600381526020016203130360ec1b81525090610e225760405162461bcd60e51b81526004016106b09190612655565b506101f880546001600160a01b038087166001600160a01b0319928316179092556101f98054928616929091169190911790556a52b7d2dcc80cd2e40000006101fb55610e6d611a10565b610e778686611a3f565b610e7f611a70565b8015610ec5576000805461ff0019169055604051600181527f7f26b83ff96e1f2b6a682f133852f6798a09c465da95921460cefb38474024989060200160405180910390a15b505050505050565b83421115610f1d5760405162461bcd60e51b815260206004820152601d60248201527f45524332305065726d69743a206578706972656420646561646c696e6500000060448201526064016106b0565b60007f6e71edae12b1b97f4d1f60370fef10105fa2faae0126114a169c64845d6126c9888888610f4c8c6119e7565b6040805160208101969096526001600160a01b0394851690860152929091166060840152608083015260a082015260c0810186905260e0016040516020818303038152906040528051906020012090506000610fa782611971565b90506000610fb7828787876119bf565b9050896001600160a01b0316816001600160a01b03161461101a5760405162461bcd60e51b815260206004820152601e60248201527f45524332305065726d69743a20696e76616c6964207369676e6174757265000060448201526064016106b0565b6110258a8a8a611157565b50505050505050505050565b6001600160a01b03918216600090815260346020908152604080832093909416825291909152205490565b60408051808201909152600080825260208201526001600160a01b038316600090815261019560205260409020805463ffffffff84169081106110a1576110a1612aab565b60009182526020918290206040805180820190915291015463ffffffff8116825264010000000090046001600160e01b0316918101919091529392505050565b6110e9611713565b6001600160a01b03811661114e5760405162461bcd60e51b815260206004820152602660248201527f4f776e61626c653a206e6577206f776e657220697320746865207a65726f206160448201526564647265737360d01b60648201526084016106b0565b6106ed8161176d565b6001600160a01b0383166111b95760405162461bcd60e51b8152602060048201526024808201527f45524332303a20617070726f76652066726f6d20746865207a65726f206164646044820152637265737360e01b60648201526084016106b0565b6001600160a01b03821661121a5760405162461bcd60e51b815260206004820152602260248201527f45524332303a20617070726f766520746f20746865207a65726f206164647265604482015261737360f01b60648201526084016106b0565b6001600160a01b0383811660008181526034602090815260408083209487168084529482529182902085905590518481527f8c5be1e5ebec7d5bd14f71427d1e84f3dd0314c0f7b2291e5b200ac8c7c3b925910160405180910390a3505050565b60006112878484611031565b905060001981146112ef57818110156112e25760405162461bcd60e51b815260206004820152601d60248201527f45524332303a20696e73756666696369656e7420616c6c6f77616e636500000060448201526064016106b0565b6112ef8484848403611157565b50505050565b6001600160a01b0383166113595760405162461bcd60e51b815260206004820152602560248201527f45524332303a207472616e736665722066726f6d20746865207a65726f206164604482015264647265737360d81b60648201526084016106b0565b6001600160a01b0382166113bb5760405162461bcd60e51b815260206004820152602360248201527f45524332303a207472616e7366657220746f20746865207a65726f206164647260448201526265737360e81b60648201526084016106b0565b6113c6838383611a9f565b6001600160a01b0383166000908152603360205260409020548181101561143e5760405162461bcd60e51b815260206004820152602660248201527f45524332303a207472616e7366657220616d6f756e7420657863656564732062604482015265616c616e636560d01b60648201526084016106b0565b6001600160a01b0380851660008181526033602052604080822086860390559286168082529083902080548601905591517fddf252ad1be2c89b69c2b068fc378daa952ba7f163c4a11628f55a4df523b3ef9061149e9086815260200190565b60405180910390a36112ef848484611aaf565b60006106fb7f8b73c3c69bb8fe3d512ecc4cf759cc79239f7b179b0ffacaa9a75d522b39400f6114e161012d5490565b61012e546040805160208101859052908101839052606081018290524660808201523060a082015260009060c0016040516020818303038152906040528051906020012090509392505050565b81546000908181600581111561158857600061154984611aba565b6115539085612a94565b600088815260209020909150869082015463ffffffff16111561157857809150611586565b611583816001612a7c565b92505b505b808210156115d557600061159c8383611b9f565b600088815260209020909150869082015463ffffffff1611156115c1578091506115cf565b6115cc816001612a7c565b92505b50611588565b801561160f576115f8866115ea600184612a94565b600091825260209091200190565b5464010000000090046001600160e01b0316611612565b60005b6001600160e01b03169695505050505050565b61083f8282611bba565b6001600160a01b0382811660008181526101946020818152604080842080546033845282862054949093528787166001600160a01b03198416811790915590519190951694919391928592917f3134e8a2e6d97e929a7e54011ea5485d7d196dd5f0ba4d4ef95803e8e3fc257f9190a46112ef828483611bd3565b600063ffffffff82111561170f5760405162461bcd60e51b815260206004820152602660248201527f53616665436173743a2076616c756520646f65736e27742066697420696e203360448201526532206269747360d01b60648201526084016106b0565b5090565b60fb546001600160a01b031633146108145760405162461bcd60e51b815260206004820181905260248201527f4f776e61626c653a2063616c6c6572206973206e6f7420746865206f776e657260448201526064016106b0565b60fb80546001600160a01b038381166001600160a01b0319831681179093556040519116919082907f8be0079c531659141344cd1fd0a4f28419497f9722a3daafe3b4186f6b6457e090600090a35050565b60006001600160601b0382111561170f5760405162461bcd60e51b815260206004820152602660248201527f53616665436173743a2076616c756520646f65736e27742066697420696e203960448201526536206269747360d01b60648201526084016106b0565b60655460ff16156108145760405162461bcd60e51b815260206004820152601060248201526f14185d5cd8589b194e881c185d5cd95960821b60448201526064016106b0565b600080839050806001600160a01b031663631847266040518163ffffffff1660e01b8152600401602060405180830381865afa9250505080156118cd575060408051601f3d908101601f191682019092526118ca91810190612f7e565b60015b6118d65761195d565b3360009081526101fa602090815260408083206001600160a01b038916845290915281205461190a8662ffffff8516612f99565b6119149190612a94565b3360009081526101fa602090815260408083206001600160a01b038b16845290915281208054929350839290919061194d908490612a7c565b9091555090935061064d92505050565b5060009392505050565b61083f8282611d12565b600061064d61197e6114b1565b8360405161190160f01b6020820152602281018390526042810182905260009060620160405160208183030381529060405280519060200120905092915050565b60008060006119d087878787611da2565b915091506119dd81611e66565b5095945050505050565b6001600160a01b0381166000908152610161602052604090208054600181018255905b50919050565b600054610100900460ff16611a375760405162461bcd60e51b81526004016106b090612fb8565b610814611fb4565b600054610100900460ff16611a665760405162461bcd60e51b81526004016106b090612fb8565b61083f8282611fe7565b600054610100900460ff16611a975760405162461bcd60e51b81526004016106b090612fb8565b610814612035565b611aaa838383612065565b505050565b611aaa8383836120cb565b600081611ac957506000919050565b60006001611ad6846120fe565b901c6001901b90506001818481611aef57611aef613003565b048201901c90506001818481611b0757611b07613003565b048201901c90506001818481611b1f57611b1f613003565b048201901c90506001818481611b3757611b37613003565b048201901c90506001818481611b4f57611b4f613003565b048201901c90506001818481611b6757611b67613003565b048201901c90506001818481611b7f57611b7f613003565b048201901c90506107c481828581611b9957611b99613003565b04612192565b6000611bae6002848418613019565b6107c490848416612a7c565b611bc482826121a8565b6112ef6101966122ef836122fb565b816001600160a01b0316836001600160a01b031614158015611bf55750600081115b15611aaa576001600160a01b03831615611c84576001600160a01b0383166000908152610195602052604081208190611c31906122ef856122fb565b91509150846001600160a01b03167fdec2bacdd2f05b59de34da9b523dff8be42e5e38e818c82fdb0bae774387a7248383604051611c79929190918252602082015260400190565b60405180910390a250505b6001600160a01b03821615611aaa576001600160a01b0382166000908152610195602052604081208190611cbb9061244f856122fb565b91509150836001600160a01b03167fdec2bacdd2f05b59de34da9b523dff8be42e5e38e818c82fdb0bae774387a7248383604051611d03929190918252602082015260400190565b60405180910390a25050505050565b611d1c828261245b565b6001600160601b03611d2c6106f0565b1115611d935760405162461bcd60e51b815260206004820152603060248201527f4552433230566f7465733a20746f74616c20737570706c79207269736b73206f60448201526f766572666c6f77696e6720766f74657360801b60648201526084016106b0565b6112ef61019661244f836122fb565b6000807f7fffffffffffffffffffffffffffffff5d576e7357a4501ddfe92f46681b20a0831115611dd95750600090506003611e5d565b6040805160008082526020820180845289905260ff881692820192909252606081018690526080810185905260019060a0016020604051602081039080840390855afa158015611e2d573d6000803e3d6000fd5b5050604051601f1901519150506001600160a01b038116611e5657600060019250925050611e5d565b9150600090505b94509492505050565b6000816004811115611e7a57611e7a61303b565b1415611e835750565b6001816004811115611e9757611e9761303b565b1415611ee55760405162461bcd60e51b815260206004820152601860248201527f45434453413a20696e76616c6964207369676e6174757265000000000000000060448201526064016106b0565b6002816004811115611ef957611ef961303b565b1415611f475760405162461bcd60e51b815260206004820152601f60248201527f45434453413a20696e76616c6964207369676e6174757265206c656e6774680060448201526064016106b0565b6003816004811115611f5b57611f5b61303b565b14156106ed5760405162461bcd60e51b815260206004820152602260248201527f45434453413a20696e76616c6964207369676e6174757265202773272076616c604482015261756560f01b60648201526084016106b0565b600054610100900460ff16611fdb5760405162461bcd60e51b81526004016106b090612fb8565b6065805460ff19169055565b600054610100900460ff1661200e5760405162461bcd60e51b81526004016106b090612fb8565b8151612021906036906020850190612599565b508051611aaa906037906020840190612599565b600054610100900460ff1661205c5760405162461bcd60e51b81526004016106b090612fb8565b6108143361176d565b60655460ff1615611aaa5760405162461bcd60e51b815260206004820152602a60248201527f45524332305061757361626c653a20746f6b656e207472616e736665722077686044820152691a5b19481c185d5cd95960b21b60648201526084016106b0565b6001600160a01b0383811660009081526101946020526040808220548584168352912054611aaa92918216911683611bd3565b600080608083901c1561211357608092831c92015b604083901c1561212557604092831c92015b602083901c1561213757602092831c92015b601083901c1561214957601092831c92015b600883901c1561215b57600892831c92015b600483901c1561216d57600492831c92015b600283901c1561217f57600292831c92015b600183901c1561064d5760010192915050565b60008183106121a157816107c4565b5090919050565b6001600160a01b0382166122085760405162461bcd60e51b815260206004820152602160248201527f45524332303a206275726e2066726f6d20746865207a65726f206164647265736044820152607360f81b60648201526084016106b0565b61221482600083611a9f565b6001600160a01b038216600090815260336020526040902054818110156122885760405162461bcd60e51b815260206004820152602260248201527f45524332303a206275726e20616d6f756e7420657863656564732062616c616e604482015261636560f01b60648201526084016106b0565b6001600160a01b03831660008181526033602090815260408083208686039055603580548790039055518581529192917fddf252ad1be2c89b69c2b068fc378daa952ba7f163c4a11628f55a4df523b3ef910160405180910390a3611aaa83600084611aaf565b60006107c48284612a94565b8254600090819081811561234857612318876115ea600185612a94565b60408051808201909152905463ffffffff8116825264010000000090046001600160e01b0316602082015261235d565b60408051808201909152600080825260208201525b905080602001516001600160e01b0316935061237d84868863ffffffff16565b92506000821180156123955750805163ffffffff1643145b156123da576123a383612530565b6123b2886115ea600186612a94565b80546001600160e01b03929092166401000000000263ffffffff909216919091179055612445565b8660405180604001604052806123ef436116aa565b63ffffffff16815260200161240386612530565b6001600160e01b0390811690915282546001810184556000938452602093849020835194909301519091166401000000000263ffffffff909316929092179101555b5050935093915050565b60006107c48284612a7c565b6001600160a01b0382166124b15760405162461bcd60e51b815260206004820152601f60248201527f45524332303a206d696e7420746f20746865207a65726f20616464726573730060448201526064016106b0565b6124bd60008383611a9f565b80603560008282546124cf9190612a7c565b90915550506001600160a01b0382166000818152603360209081526040808320805486019055518481527fddf252ad1be2c89b69c2b068fc378daa952ba7f163c4a11628f55a4df523b3ef910160405180910390a361083f60008383611aaf565b60006001600160e01b0382111561170f5760405162461bcd60e51b815260206004820152602760248201527f53616665436173743a2076616c756520646f65736e27742066697420696e20326044820152663234206269747360c81b60648201526084016106b0565b8280546125a590612a31565b90600052602060002090601f0160209004810192826125c7576000855561260d565b82601f106125e057805160ff191683800117855561260d565b8280016001018555821561260d579182015b8281111561260d5782518255916020019190600101906125f2565b5061170f9291505b8082111561170f5760008155600101612615565b60005b8381101561264457818101518382015260200161262c565b838111156112ef5750506000910152565b6020815260008251806020840152612674816040850160208701612629565b601f01601f19169190910160400192915050565b6001600160a01b03811681146106ed57600080fd5b600080604083850312156126b057600080fd5b82356126bb81612688565b946020939093013593505050565b6000602082840312156126db57600080fd5b81356107c481612688565b6000806000606084860312156126fb57600080fd5b833561270681612688565b9250602084013561271681612688565b929592945050506040919091013590565b60006020828403121561273957600080fd5b5035919050565b6000806040838503121561275357600080fd5b823561275e81612688565b9150602083013561276e81612688565b809150509250929050565b803560ff8116811461278a57600080fd5b919050565b60008060008060008060c087890312156127a857600080fd5b86356127b381612688565b955060208701359450604087013593506127cf60608801612779565b92506080870135915060a087013590509295509295509295565b634e487b7160e01b600052604160045260246000fd5b60405160a0810167ffffffffffffffff81118282101715612822576128226127e9565b60405290565b604051610260810167ffffffffffffffff81118282101715612822576128226127e9565b604051601f8201601f1916810167ffffffffffffffff81118282101715612875576128756127e9565b604052919050565b600067ffffffffffffffff821115612897576128976127e9565b50601f01601f191660200190565b600082601f8301126128b657600080fd5b81356128c96128c48261287d565b61284c565b8181528460208386010111156128de57600080fd5b816020850160208301376000918101602001919091529392505050565b600080600080600060a0868803121561291357600080fd5b853567ffffffffffffffff8082111561292b57600080fd5b61293789838a016128a5565b9650602088013591508082111561294d57600080fd5b5061295a888289016128a5565b945050604086013561296b81612688565b9250606086013561297b81612688565b949793965091946080013592915050565b600080600080600080600060e0888a0312156129a757600080fd5b87356129b281612688565b965060208801356129c281612688565b955060408801359450606088013593506129de60808901612779565b925060a0880135915060c0880135905092959891949750929550565b60008060408385031215612a0d57600080fd5b8235612a1881612688565b9150602083013563ffffffff8116811461276e57600080fd5b600181811c90821680612a4557607f821691505b60208210811415611a0a57634e487b7160e01b600052602260045260246000fd5b634e487b7160e01b600052601160045260246000fd5b60008219821115612a8f57612a8f612a66565b500190565b600082821015612aa657612aa6612a66565b500390565b634e487b7160e01b600052603260045260246000fd5b805162ffffff8116811461278a57600080fd5b805161278a81612688565b600082601f830112612af057600080fd5b8151612afe6128c48261287d565b818152846020838601011115612b1357600080fd5b612b24826020830160208701612629565b949350505050565b600060a08284031215612b3e57600080fd5b612b466127ff565b9050815167ffffffffffffffff80821115612b6057600080fd5b612b6c85838601612adf565b83526020840151915080821115612b8257600080fd5b612b8e85838601612adf565b60208401526040840151915080821115612ba757600080fd5b612bb385838601612adf565b60408401526060840151915080821115612bcc57600080fd5b612bd885838601612adf565b60608401526080840151915080821115612bf157600080fd5b50612bfe84828501612adf565b60808301525092915050565b600067ffffffffffffffff821115612c2457612c246127e9565b5060051b60200190565b600082601f830112612c3f57600080fd5b81516020612c4f6128c483612c0a565b82815260059290921b84018101918181019086841115612c6e57600080fd5b8286015b84811015612cae57805167ffffffffffffffff811115612c925760008081fd5b612ca08986838b0101612adf565b845250918301918301612c72565b509695505050505050565b600082601f830112612cca57600080fd5b81516020612cda6128c483612c0a565b82815260059290921b84018101918181019086841115612cf957600080fd5b8286015b84811015612cae578051612d1081612688565b8352918301918301612cfd565b600060208284031215612d2f57600080fd5b815167ffffffffffffffff80821115612d4757600080fd5b908301906102608286031215612d5c57600080fd5b612d64612828565b612d6d83612ac1565b8152612d7b60208401612ac1565b602082015260408301516040820152612d9660608401612ad4565b6060820152608083015182811115612dad57600080fd5b612db987828601612adf565b60808301525060a083015182811115612dd157600080fd5b612ddd87828601612adf565b60a083015250612def60c08401612ad4565b60c082015260e083015182811115612e0657600080fd5b612e1287828601612adf565b60e0830152506101008084015183811115612e2c57600080fd5b612e3888828701612adf565b8284015250506101208084015183811115612e5257600080fd5b612e5e88828701612adf565b8284015250506101408084015183811115612e7857600080fd5b612e8488828701612b2c565b8284015250506101608084015183811115612e9e57600080fd5b612eaa88828701612c2e565b8284015250506101808084015183811115612ec457600080fd5b612ed088828701612c2e565b8284015250506101a08084015183811115612eea57600080fd5b612ef688828701612adf565b8284015250506101c08084015181830152506101e0612f16818501612ad4565b908201526102008381015183811115612f2e57600080fd5b612f3a88828701612adf565b8284015250506102208084015183811115612f5457600080fd5b612f6088828701612cb9565b91830191909152506102409283015192810192909252509392505050565b600060208284031215612f9057600080fd5b6107c482612ac1565b6000816000190483118215151615612fb357612fb3612a66565b500290565b6020808252602b908201527f496e697469616c697a61626c653a20636f6e7472616374206973206e6f74206960408201526a6e697469616c697a696e6760a81b606082015260800190565b634e487b7160e01b600052601260045260246000fd5b60008261303657634e487b7160e01b600052601260045260246000fd5b500490565b634e487b7160e01b600052602160045260246000fdfea26469706673582212204a87f91aeffaf27c982b196fa93978f2105a4e6f22eb8a524d2e0802ddf9e0a264736f6c634300080c0033",
  "linkReferences": {},
  "deployedLinkReferences": {}
}