{
  "_format": "hh-sol-artifact-1",
  "contractName": "GENToken",
  "sourceName": "contracts/erc20/GENToken.sol",
  "abi": [
    {
      "anonymous": false,
      "inputs": [
        {
          "indexed": true,
          "internalType": "address",
          "name": "owner",
          "type": "address"
        },
        {
          "indexed": true,
          "internalType": "address",
          "name": "spender",
          "type": "address"
        },
        {
          "indexed": false,
          "internalType": "uint256",
          "name": "value",
          "type": "uint256"
        }
      ],
      "name": "Approval",
      "type": "event"
    },
    {
      "anonymous": false,
      "inputs": [
        {
          "indexed": false,
          "internalType": "address",
          "name": "to",
          "type": "address"
        },
        {
          "indexed": false,
          "internalType": "uint256",
          "name": "amount",
          "type": "uint256"
        },
        {
          "indexed": false,
          "internalType": "uint256",
          "name": "primary",
          "type": "uint256"
        },
        {
          "indexed": false,
          "internalType": "uint256",
          "name": "",
          "type": "uint256"
        },
        {
          "indexed": false,
          "internalType": "uint256",
          "name": "second",
          "type": "uint256"
        }
      ],
      "name": "ClaimToken",
      "type": "event"
    },
    {
      "anonymous": false,
      "inputs": [
        {
          "indexed": true,
          "internalType": "address",
          "name": "delegator",
          "type": "address"
        },
        {
          "indexed": true,
          "internalType": "address",
          "name": "fromDelegate",
          "type": "address"
        },
        {
          "indexed": true,
          "internalType": "address",
          "name": "toDelegate",
          "type": "address"
        }
      ],
      "name": "DelegateChanged",
      "type": "event"
    },
    {
      "anonymous": false,
      "inputs": [
        {
          "indexed": true,
          "internalType": "address",
          "name": "delegate",
          "type": "address"
        },
        {
          "indexed": false,
          "internalType": "uint256",
          "name": "previousBalance",
          "type": "uint256"
        },
        {
          "indexed": false,
          "internalType": "uint256",
          "name": "newBalance",
          "type": "uint256"
        }
      ],
      "name": "DelegateVotesChanged",
      "type": "event"
    },
    {
      "anonymous": false,
      "inputs": [
        {
          "indexed": false,
          "internalType": "uint8",
          "name": "version",
          "type": "uint8"
        }
      ],
      "name": "Initialized",
      "type": "event"
    },
    {
      "anonymous": false,
      "inputs": [
        {
          "indexed": false,
          "internalType": "address",
          "name": "genNFT",
          "type": "address"
        }
      ],
      "name": "NotSupportProjectAddress",
      "type": "event"
    },
    {
      "anonymous": false,
      "inputs": [
        {
          "indexed": false,
          "internalType": "address",
          "name": "genNFT",
          "type": "address"
        }
      ],
      "name": "NotSupportProjectIndex",
      "type": "event"
    },
    {
      "anonymous": false,
      "inputs": [
        {
          "indexed": true,
          "internalType": "address",
          "name": "previousOwner",
          "type": "address"
        },
        {
          "indexed": true,
          "internalType": "address",
          "name": "newOwner",
          "type": "address"
        }
      ],
      "name": "OwnershipTransferred",
      "type": "event"
    },
    {
      "anonymous": false,
      "inputs": [
        {
          "indexed": false,
          "internalType": "address",
          "name": "account",
          "type": "address"
        }
      ],
      "name": "Paused",
      "type": "event"
    },
    {
      "anonymous": false,
      "inputs": [
        {
          "indexed": true,
          "internalType": "address",
          "name": "from",
          "type": "address"
        },
        {
          "indexed": true,
          "internalType": "address",
          "name": "to",
          "type": "address"
        },
        {
          "indexed": false,
          "internalType": "uint256",
          "name": "value",
          "type": "uint256"
        }
      ],
      "name": "Transfer",
      "type": "event"
    },
    {
      "anonymous": false,
      "inputs": [
        {
          "indexed": false,
          "internalType": "address",
          "name": "account",
          "type": "address"
        }
      ],
      "name": "Unpaused",
      "type": "event"
    },
    {
      "inputs": [],
      "name": "DOMAIN_SEPARATOR",
      "outputs": [
        {
          "internalType": "bytes32",
          "name": "",
          "type": "bytes32"
        }
      ],
      "stateMutability": "view",
      "type": "function"
    },
    {
      "inputs": [],
      "name": "_admin",
      "outputs": [
        {
          "internalType": "address",
          "name": "",
          "type": "address"
        }
      ],
      "stateMutability": "view",
      "type": "function"
    },
    {
      "inputs": [],
      "name": "_paramAddr",
      "outputs": [
        {
          "internalType": "address",
          "name": "",
          "type": "address"
        }
      ],
      "stateMutability": "view",
      "type": "function"
    },
    {
      "inputs": [
        {
          "internalType": "address",
          "name": "owner",
          "type": "address"
        },
        {
          "internalType": "address",
          "name": "spender",
          "type": "address"
        }
      ],
      "name": "allowance",
      "outputs": [
        {
          "internalType": "uint256",
          "name": "",
          "type": "uint256"
        }
      ],
      "stateMutability": "view",
      "type": "function"
    },
    {
      "inputs": [
        {
          "internalType": "address",
          "name": "spender",
          "type": "address"
        },
        {
          "internalType": "uint256",
          "name": "amount",
          "type": "uint256"
        }
      ],
      "name": "approve",
      "outputs": [
        {
          "internalType": "bool",
          "name": "",
          "type": "bool"
        }
      ],
      "stateMutability": "nonpayable",
      "type": "function"
    },
    {
      "inputs": [
        {
          "internalType": "address",
          "name": "account",
          "type": "address"
        }
      ],
      "name": "balanceOf",
      "outputs": [
        {
          "internalType": "uint256",
          "name": "",
          "type": "uint256"
        }
      ],
      "stateMutability": "view",
      "type": "function"
    },
    {
      "inputs": [
        {
          "internalType": "uint256",
          "name": "amount",
          "type": "uint256"
        }
      ],
      "name": "burn",
      "outputs": [],
      "stateMutability": "nonpayable",
      "type": "function"
    },
    {
      "inputs": [
        {
          "internalType": "address",
          "name": "account",
          "type": "address"
        },
        {
          "internalType": "uint256",
          "name": "amount",
          "type": "uint256"
        }
      ],
      "name": "burnFrom",
      "outputs": [],
      "stateMutability": "nonpayable",
      "type": "function"
    },
    {
      "inputs": [
        {
          "internalType": "address",
          "name": "newAdm",
          "type": "address"
        }
      ],
      "name": "changeAdmin",
      "outputs": [],
      "stateMutability": "nonpayable",
      "type": "function"
    },
    {
      "inputs": [
        {
          "internalType": "address",
          "name": "newAddr",
          "type": "address"
        }
      ],
      "name": "changeParamAddress",
      "outputs": [],
      "stateMutability": "nonpayable",
      "type": "function"
    },
    {
      "inputs": [
        {
          "internalType": "address",
          "name": "account",
          "type": "address"
        },
        {
          "internalType": "uint32",
          "name": "pos",
          "type": "uint32"
        }
      ],
      "name": "checkpoints",
      "outputs": [
        {
          "components": [
            {
              "internalType": "uint32",
              "name": "fromBlock",
              "type": "uint32"
            },
            {
              "internalType": "uint224",
              "name": "votes",
              "type": "uint224"
            }
          ],
          "internalType": "struct ERC20VotesUpgradeable.Checkpoint",
          "name": "",
          "type": "tuple"
        }
      ],
      "stateMutability": "view",
      "type": "function"
    },
    {
      "inputs": [],
      "name": "decimals",
      "outputs": [
        {
          "internalType": "uint8",
          "name": "",
          "type": "uint8"
        }
      ],
      "stateMutability": "pure",
      "type": "function"
    },
    {
      "inputs": [
        {
          "internalType": "address",
          "name": "spender",
          "type": "address"
        },
        {
          "internalType": "uint256",
          "name": "subtractedValue",
          "type": "uint256"
        }
      ],
      "name": "decreaseAllowance",
      "outputs": [
        {
          "internalType": "bool",
          "name": "",
          "type": "bool"
        }
      ],
      "stateMutability": "nonpayable",
      "type": "function"
    },
    {
      "inputs": [
        {
          "internalType": "address",
          "name": "delegatee",
          "type": "address"
        }
      ],
      "name": "delegate",
      "outputs": [],
      "stateMutability": "nonpayable",
      "type": "function"
    },
    {
      "inputs": [
        {
          "internalType": "address",
          "name": "delegatee",
          "type": "address"
        },
        {
          "internalType": "uint256",
          "name": "nonce",
          "type": "uint256"
        },
        {
          "internalType": "uint256",
          "name": "expiry",
          "type": "uint256"
        },
        {
          "internalType": "uint8",
          "name": "v",
          "type": "uint8"
        },
        {
          "internalType": "bytes32",
          "name": "r",
          "type": "bytes32"
        },
        {
          "internalType": "bytes32",
          "name": "s",
          "type": "bytes32"
        }
      ],
      "name": "delegateBySig",
      "outputs": [],
      "stateMutability": "nonpayable",
      "type": "function"
    },
    {
      "inputs": [
        {
          "internalType": "address",
          "name": "account",
          "type": "address"
        }
      ],
      "name": "delegates",
      "outputs": [
        {
          "internalType": "address",
          "name": "",
          "type": "address"
        }
      ],
      "stateMutability": "view",
      "type": "function"
    },
    {
      "inputs": [
        {
          "internalType": "address",
          "name": "account",
          "type": "address"
        }
      ],
      "name": "getCurrentVotes",
      "outputs": [
        {
          "internalType": "uint96",
          "name": "",
          "type": "uint96"
        }
      ],
      "stateMutability": "view",
      "type": "function"
    },
    {
      "inputs": [
        {
          "internalType": "uint256",
          "name": "blockNumber",
          "type": "uint256"
        }
      ],
      "name": "getPastTotalSupply",
      "outputs": [
        {
          "internalType": "uint256",
          "name": "",
          "type": "uint256"
        }
      ],
      "stateMutability": "view",
      "type": "function"
    },
    {
      "inputs": [
        {
          "internalType": "address",
          "name": "account",
          "type": "address"
        },
        {
          "internalType": "uint256",
          "name": "blockNumber",
          "type": "uint256"
        }
      ],
      "name": "getPastVotes",
      "outputs": [
        {
          "internalType": "uint256",
          "name": "",
          "type": "uint256"
        }
      ],
      "stateMutability": "view",
      "type": "function"
    },
    {
      "inputs": [
        {
          "internalType": "address",
          "name": "account",
          "type": "address"
        },
        {
          "internalType": "uint256",
          "name": "blockNumber",
          "type": "uint256"
        }
      ],
      "name": "getPriorVotes",
      "outputs": [
        {
          "internalType": "uint96",
          "name": "",
          "type": "uint96"
        }
      ],
      "stateMutability": "view",
      "type": "function"
    },
    {
      "inputs": [
        {
          "internalType": "address",
          "name": "account",
          "type": "address"
        }
      ],
      "name": "getVotes",
      "outputs": [
        {
          "internalType": "uint256",
          "name": "",
          "type": "uint256"
        }
      ],
      "stateMutability": "view",
      "type": "function"
    },
    {
      "inputs": [
        {
          "internalType": "address",
          "name": "spender",
          "type": "address"
        },
        {
          "internalType": "uint256",
          "name": "addedValue",
          "type": "uint256"
        }
      ],
      "name": "increaseAllowance",
      "outputs": [
        {
          "internalType": "bool",
          "name": "",
          "type": "bool"
        }
      ],
      "stateMutability": "nonpayable",
      "type": "function"
    },
    {
      "inputs": [
        {
          "internalType": "string",
          "name": "name",
          "type": "string"
        },
        {
          "internalType": "string",
          "name": "symbol",
          "type": "string"
        },
        {
          "internalType": "address",
          "name": "admin",
          "type": "address"
        },
        {
          "internalType": "address",
          "name": "paramAddr",
          "type": "address"
        }
      ],
      "name": "initialize",
      "outputs": [],
      "stateMutability": "nonpayable",
      "type": "function"
    },
    {
      "inputs": [],
      "name": "name",
      "outputs": [
        {
          "internalType": "string",
          "name": "",
          "type": "string"
        }
      ],
      "stateMutability": "view",
      "type": "function"
    },
    {
      "inputs": [
        {
          "internalType": "address",
          "name": "owner",
          "type": "address"
        }
      ],
      "name": "nonces",
      "outputs": [
        {
          "internalType": "uint256",
          "name": "",
          "type": "uint256"
        }
      ],
      "stateMutability": "view",
      "type": "function"
    },
    {
      "inputs": [
        {
          "internalType": "address",
          "name": "account",
          "type": "address"
        }
      ],
      "name": "numCheckpoints",
      "outputs": [
        {
          "internalType": "uint32",
          "name": "",
          "type": "uint32"
        }
      ],
      "stateMutability": "view",
      "type": "function"
    },
    {
      "inputs": [],
      "name": "owner",
      "outputs": [
        {
          "internalType": "address",
          "name": "",
          "type": "address"
        }
      ],
      "stateMutability": "view",
      "type": "function"
    },
    {
      "inputs": [],
      "name": "paused",
      "outputs": [
        {
          "internalType": "bool",
          "name": "",
          "type": "bool"
        }
      ],
      "stateMutability": "view",
      "type": "function"
    },
    {
      "inputs": [
        {
          "internalType": "address",
          "name": "owner",
          "type": "address"
        },
        {
          "internalType": "address",
          "name": "spender",
          "type": "address"
        },
        {
          "internalType": "uint256",
          "name": "value",
          "type": "uint256"
        },
        {
          "internalType": "uint256",
          "name": "deadline",
          "type": "uint256"
        },
        {
          "internalType": "uint8",
          "name": "v",
          "type": "uint8"
        },
        {
          "internalType": "bytes32",
          "name": "r",
          "type": "bytes32"
        },
        {
          "internalType": "bytes32",
          "name": "s",
          "type": "bytes32"
        }
      ],
      "name": "permit",
      "outputs": [],
      "stateMutability": "nonpayable",
      "type": "function"
    },
    {
      "inputs": [],
      "name": "renounceOwnership",
      "outputs": [],
      "stateMutability": "nonpayable",
      "type": "function"
    },
    {
      "inputs": [
        {
          "internalType": "address",
          "name": "genNFTAddr",
          "type": "address"
        },
        {
          "internalType": "uint256",
          "name": "tokenId",
          "type": "uint256"
        },
        {
          "internalType": "address",
          "name": "erc20Addr",
          "type": "address"
        },
        {
          "internalType": "uint256",
          "name": "amount",
          "type": "uint256"
        }
      ],
      "name": "setPoASecondSale",
      "outputs": [],
      "stateMutability": "nonpayable",
      "type": "function"
    },
    {
      "inputs": [],
      "name": "symbol",
      "outputs": [
        {
          "internalType": "string",
          "name": "",
          "type": "string"
        }
      ],
      "stateMutability": "view",
      "type": "function"
    },
    {
      "inputs": [],
      "name": "totalSupply",
      "outputs": [
        {
          "internalType": "uint256",
          "name": "",
          "type": "uint256"
        }
      ],
      "stateMutability": "view",
      "type": "function"
    },
    {
      "inputs": [
        {
          "internalType": "address",
          "name": "to",
          "type": "address"
        },
        {
          "internalType": "uint256",
          "name": "amount",
          "type": "uint256"
        }
      ],
      "name": "transfer",
      "outputs": [
        {
          "internalType": "bool",
          "name": "",
          "type": "bool"
        }
      ],
      "stateMutability": "nonpayable",
      "type": "function"
    },
    {
      "inputs": [
        {
          "internalType": "address",
          "name": "from",
          "type": "address"
        },
        {
          "internalType": "address",
          "name": "to",
          "type": "address"
        },
        {
          "internalType": "uint256",
          "name": "amount",
          "type": "uint256"
        }
      ],
      "name": "transferFrom",
      "outputs": [
        {
          "internalType": "bool",
          "name": "",
          "type": "bool"
        }
      ],
      "stateMutability": "nonpayable",
      "type": "function"
    },
    {
      "inputs": [
        {
          "internalType": "address",
          "name": "newOwner",
          "type": "address"
        }
      ],
      "name": "transferOwnership",
      "outputs": [],
      "stateMutability": "nonpayable",
      "type": "function"
    }
  ],
  "bytecode": "0x608060405234801561001057600080fd5b50612a89806100206000396000f3fe608060405234801561001057600080fd5b506004361061021c5760003560e01c8063782d6fe111610125578063a457c2d7116100ad578063d505accf1161007c578063d505accf146104eb578063dd62ed3e146104fe578063f1127ed814610511578063f2fde38b1461054e578063f4a290f71461056157600080fd5b8063a457c2d71461049f578063a9059cbb146104b2578063b4b5ea57146104c5578063c3cda520146104d857600080fd5b80638e539e8c116100f45780638e539e8c1461044b5780638f15b4141461045e5780638f2839701461047157806395d89b41146104845780639ab24eb01461048c57600080fd5b8063782d6fe1146103e957806379cc6790146104145780637ecebe00146104275780638da5cb5b1461043a57600080fd5b80633a46b1a8116101a85780635c975abb116101775780635c975abb1461037257806361bcaf741461037d5780636fcfff451461039057806370a08231146103b8578063715018a6146103e157600080fd5b80633a46b1a81461030c57806342966c681461031f578063587cde1e146103325780635c19a95c1461035f57600080fd5b806318160ddd116101ef57806318160ddd146102b957806323b872dd146102cf578063313ce567146102e25780633644e515146102f157806339509351146102f957600080fd5b806301bc45c91461022157806306fdde0314610252578063095ea7b31461028157806316a5041f146102a4575b600080fd5b61022a54610235906001600160a01b031681565b6040516001600160a01b0390911681526020015b60405180910390f35b60408051808201909152600a81526947656e6572617469766560b01b60208201525b604051610249919061245b565b61029461028f3660046124cc565b610575565b6040519015158152602001610249565b6102b76102b23660046124f6565b61058f565b005b6102c161062c565b604051908152602001610249565b6102946102dd366004612511565b61063c565b60405160128152602001610249565b6102c1610660565b6102946103073660046124cc565b61066a565b6102c161031a3660046124cc565b61068c565b6102b761032d36600461254d565b610707565b6102356103403660046124f6565b6001600160a01b03908116600090815261019460205260409020541690565b6102b761036d3660046124f6565b610711565b60655460ff16610294565b6102b761038b366004612566565b61071b565b6103a361039e3660046124f6565b610734565b60405163ffffffff9091168152602001610249565b6102c16103c63660046124f6565b6001600160a01b031660009081526033602052604090205490565b6102b7610757565b6103fc6103f73660046124cc565b61076b565b6040516001600160601b039091168152602001610249565b6102b76104223660046124cc565b61077f565b6102c16104353660046124f6565b610798565b60fb546001600160a01b0316610235565b6102c161045936600461254d565b6107b7565b6102b761046c36600461264d565b610814565b6102b761047f3660046124f6565b610a0e565b610274610aa3565b6102c161049a3660046124f6565b610b35565b6102946104ad3660046124cc565b610bbe565b6102946104c03660046124cc565b610c39565b6103fc6104d33660046124f6565b610c47565b6102b76104e63660046126e3565b610c55565b6102b76104f936600461273b565b610d8b565b6102c161050c3660046127a5565b610eef565b61052461051f3660046127d8565b610f1a565b60408051825163ffffffff1681526020928301516001600160e01b03169281019290925201610249565b6102b761055c3660046124f6565b610f9f565b61022b54610235906001600160a01b031681565b600033610583818585611015565b60019150505b92915050565b61022a546001600160a01b0316331480156105b257506001600160a01b03811615155b6040518060400160405280600381526020016231303160e81b815250906105f55760405162461bcd60e51b81526004016105ec919061245b565b60405180910390fd5b5061022b546001600160a01b038281169116146106295761022b80546001600160a01b0319166001600160a01b0383161790555b50565b600061063760355490565b905090565b60003361064a858285611139565b6106558585856111ad565b506001949350505050565b6000610637611369565b60003361058381858561067d8383610eef565b610687919061282e565b611015565b60004382106106dd5760405162461bcd60e51b815260206004820152601f60248201527f4552433230566f7465733a20626c6f636b206e6f7420796574206d696e65640060448201526064016105ec565b6001600160a01b03831660009081526101956020526040902061070090836113e6565b9392505050565b61062933826114dd565b61062933826114e7565b610723611562565b61072e60016101f855565b50505050565b6001600160a01b03811660009081526101956020526040812054610589906115c6565b61075f61162f565b6107696000611689565b565b600061070061077a848461068c565b6116db565b61078a823383611139565b61079482826114dd565b5050565b6001600160a01b03811660009081526101616020526040812054610589565b60004382106108085760405162461bcd60e51b815260206004820152601f60248201527f4552433230566f7465733a20626c6f636b206e6f7420796574206d696e65640060448201526064016105ec565b610589610196836113e6565b600054610100900460ff16158080156108345750600054600160ff909116105b8061084e5750303b15801561084e575060005460ff166001145b6108b15760405162461bcd60e51b815260206004820152602e60248201527f496e697469616c697a61626c653a20636f6e747261637420697320616c72656160448201526d191e481a5b9a5d1a585b1a5e995960921b60648201526084016105ec565b6000805460ff1916600117905580156108d4576000805461ff0019166101001790555b6001600160a01b038316158015906108f457506001600160a01b03821615155b6040518060400160405280600381526020016203130360ec1b8152509061092e5760405162461bcd60e51b81526004016105ec919061245b565b5061022a80546001600160a01b038086166001600160a01b03199283161790925561022b805492851692909116919091179055600061096b601290565b61097690600a61292a565b610984906305f5e100612939565b61022a5490915061099e906001600160a01b031682611743565b6109a661174d565b6109b0868661177c565b6109b86117ad565b6109c06117dc565b508015610a07576000805461ff0019169055604051600181527f7f26b83ff96e1f2b6a682f133852f6798a09c465da95921460cefb38474024989060200160405180910390a15b5050505050565b61022a546001600160a01b031633148015610a3157506001600160a01b03811615155b6040518060400160405280600381526020016231303160e81b81525090610a6b5760405162461bcd60e51b81526004016105ec919061245b565b5061022a546001600160a01b038281169116146106295761022a80546001600160a01b0383166001600160a01b031990911617905550565b606060378054610ab290612958565b80601f0160208091040260200160405190810160405280929190818152602001828054610ade90612958565b8015610b2b5780601f10610b0057610100808354040283529160200191610b2b565b820191906000526020600020905b815481529060010190602001808311610b0e57829003601f168201915b5050505050905090565b6001600160a01b038116600090815261019560205260408120548015610bab576001600160a01b038316600090815261019560205260409020610b7960018361298d565b81548110610b8957610b896129a4565b60009182526020909120015464010000000090046001600160e01b0316610bae565b60005b6001600160e01b03169392505050565b60003381610bcc8286610eef565b905083811015610c2c5760405162461bcd60e51b815260206004820152602560248201527f45524332303a2064656372656173656420616c6c6f77616e63652062656c6f77604482015264207a65726f60d81b60648201526084016105ec565b6106558286868403611015565b6000336105838185856111ad565b600061058961077a83610b35565b83421115610ca55760405162461bcd60e51b815260206004820152601d60248201527f4552433230566f7465733a207369676e6174757265206578706972656400000060448201526064016105ec565b604080517fe48329057bfd03d55e49b547132e39cffd9c1820ad7b9d4c5307691425d15adf60208201526001600160a01b038816918101919091526060810186905260808101859052600090610d1f90610d179060a0016040516020818303038152906040528051906020012061180b565b858585611859565b9050610d2a81611881565b8614610d785760405162461bcd60e51b815260206004820152601960248201527f4552433230566f7465733a20696e76616c6964206e6f6e63650000000000000060448201526064016105ec565b610d8281886114e7565b50505050505050565b83421115610ddb5760405162461bcd60e51b815260206004820152601d60248201527f45524332305065726d69743a206578706972656420646561646c696e6500000060448201526064016105ec565b60007f6e71edae12b1b97f4d1f60370fef10105fa2faae0126114a169c64845d6126c9888888610e0a8c611881565b6040805160208101969096526001600160a01b0394851690860152929091166060840152608083015260a082015260c0810186905260e0016040516020818303038152906040528051906020012090506000610e658261180b565b90506000610e7582878787611859565b9050896001600160a01b0316816001600160a01b031614610ed85760405162461bcd60e51b815260206004820152601e60248201527f45524332305065726d69743a20696e76616c6964207369676e6174757265000060448201526064016105ec565b610ee38a8a8a611015565b50505050505050505050565b6001600160a01b03918216600090815260346020908152604080832093909416825291909152205490565b60408051808201909152600080825260208201526001600160a01b038316600090815261019560205260409020805463ffffffff8416908110610f5f57610f5f6129a4565b60009182526020918290206040805180820190915291015463ffffffff8116825264010000000090046001600160e01b0316918101919091529392505050565b610fa761162f565b6001600160a01b03811661100c5760405162461bcd60e51b815260206004820152602660248201527f4f776e61626c653a206e6577206f776e657220697320746865207a65726f206160448201526564647265737360d01b60648201526084016105ec565b61062981611689565b6001600160a01b0383166110775760405162461bcd60e51b8152602060048201526024808201527f45524332303a20617070726f76652066726f6d20746865207a65726f206164646044820152637265737360e01b60648201526084016105ec565b6001600160a01b0382166110d85760405162461bcd60e51b815260206004820152602260248201527f45524332303a20617070726f766520746f20746865207a65726f206164647265604482015261737360f01b60648201526084016105ec565b6001600160a01b0383811660008181526034602090815260408083209487168084529482529182902085905590518481527f8c5be1e5ebec7d5bd14f71427d1e84f3dd0314c0f7b2291e5b200ac8c7c3b925910160405180910390a3505050565b60006111458484610eef565b9050600019811461072e57818110156111a05760405162461bcd60e51b815260206004820152601d60248201527f45524332303a20696e73756666696369656e7420616c6c6f77616e636500000060448201526064016105ec565b61072e8484848403611015565b6001600160a01b0383166112115760405162461bcd60e51b815260206004820152602560248201527f45524332303a207472616e736665722066726f6d20746865207a65726f206164604482015264647265737360d81b60648201526084016105ec565b6001600160a01b0382166112735760405162461bcd60e51b815260206004820152602360248201527f45524332303a207472616e7366657220746f20746865207a65726f206164647260448201526265737360e81b60648201526084016105ec565b61127e8383836118aa565b6001600160a01b038316600090815260336020526040902054818110156112f65760405162461bcd60e51b815260206004820152602660248201527f45524332303a207472616e7366657220616d6f756e7420657863656564732062604482015265616c616e636560d01b60648201526084016105ec565b6001600160a01b0380851660008181526033602052604080822086860390559286168082529083902080548601905591517fddf252ad1be2c89b69c2b068fc378daa952ba7f163c4a11628f55a4df523b3ef906113569086815260200190565b60405180910390a361072e8484846118ba565b60006106377f8b73c3c69bb8fe3d512ecc4cf759cc79239f7b179b0ffacaa9a75d522b39400f61139961012d5490565b61012e546040805160208101859052908101839052606081018290524660808201523060a082015260009060c0016040516020818303038152906040528051906020012090509392505050565b815460009081816005811115611440576000611401846118c5565b61140b908561298d565b600088815260209020909150869082015463ffffffff1611156114305780915061143e565b61143b81600161282e565b92505b505b8082101561148d57600061145483836119aa565b600088815260209020909150869082015463ffffffff16111561147957809150611487565b61148481600161282e565b92505b50611440565b80156114c7576114b0866114a260018461298d565b600091825260209091200190565b5464010000000090046001600160e01b03166114ca565b60005b6001600160e01b03169695505050505050565b61079482826119c5565b6001600160a01b0382811660008181526101946020818152604080842080546033845282862054949093528787166001600160a01b03198416811790915590519190951694919391928592917f3134e8a2e6d97e929a7e54011ea5485d7d196dd5f0ba4d4ef95803e8e3fc257f9190a461072e8284836119de565b60026101f85414156115b65760405162461bcd60e51b815260206004820152601f60248201527f5265656e7472616e637947756172643a207265656e7472616e742063616c6c0060448201526064016105ec565b60026101f855565b60016101f855565b600063ffffffff82111561162b5760405162461bcd60e51b815260206004820152602660248201527f53616665436173743a2076616c756520646f65736e27742066697420696e203360448201526532206269747360d01b60648201526084016105ec565b5090565b60fb546001600160a01b031633146107695760405162461bcd60e51b815260206004820181905260248201527f4f776e61626c653a2063616c6c6572206973206e6f7420746865206f776e657260448201526064016105ec565b60fb80546001600160a01b038381166001600160a01b0319831681179093556040519116919082907f8be0079c531659141344cd1fd0a4f28419497f9722a3daafe3b4186f6b6457e090600090a35050565b60006001600160601b0382111561162b5760405162461bcd60e51b815260206004820152602660248201527f53616665436173743a2076616c756520646f65736e27742066697420696e203960448201526536206269747360d01b60648201526084016105ec565b6107948282611b1d565b600054610100900460ff166117745760405162461bcd60e51b81526004016105ec906129ba565b610769611bad565b600054610100900460ff166117a35760405162461bcd60e51b81526004016105ec906129ba565b6107948282611be0565b600054610100900460ff166117d45760405162461bcd60e51b81526004016105ec906129ba565b610769611c2e565b600054610100900460ff166118035760405162461bcd60e51b81526004016105ec906129ba565b610769611c5e565b6000610589611818611369565b8360405161190160f01b6020820152602281018390526042810182905260009060620160405160208183030381529060405280519060200120905092915050565b600080600061186a87878787611c85565b9150915061187781611d49565b5095945050505050565b6001600160a01b0381166000908152610161602052604090208054600181018255905b50919050565b6118b5838383611e97565b505050565b6118b5838383611efd565b6000816118d457506000919050565b600060016118e184611f30565b901c6001901b905060018184816118fa576118fa612a05565b048201901c9050600181848161191257611912612a05565b048201901c9050600181848161192a5761192a612a05565b048201901c9050600181848161194257611942612a05565b048201901c9050600181848161195a5761195a612a05565b048201901c9050600181848161197257611972612a05565b048201901c9050600181848161198a5761198a612a05565b048201901c9050610700818285816119a4576119a4612a05565b04611fc4565b60006119b96002848418612a1b565b6107009084841661282e565b6119cf8282611fda565b61072e6101966121218361212d565b816001600160a01b0316836001600160a01b031614158015611a005750600081115b156118b5576001600160a01b03831615611a8f576001600160a01b0383166000908152610195602052604081208190611a3c906121218561212d565b91509150846001600160a01b03167fdec2bacdd2f05b59de34da9b523dff8be42e5e38e818c82fdb0bae774387a7248383604051611a84929190918252602082015260400190565b60405180910390a250505b6001600160a01b038216156118b5576001600160a01b0382166000908152610195602052604081208190611ac6906122818561212d565b91509150836001600160a01b03167fdec2bacdd2f05b59de34da9b523dff8be42e5e38e818c82fdb0bae774387a7248383604051611b0e929190918252602082015260400190565b60405180910390a25050505050565b611b27828261228d565b6001600160601b03611b3761062c565b1115611b9e5760405162461bcd60e51b815260206004820152603060248201527f4552433230566f7465733a20746f74616c20737570706c79207269736b73206f60448201526f766572666c6f77696e6720766f74657360801b60648201526084016105ec565b61072e6101966122818361212d565b600054610100900460ff16611bd45760405162461bcd60e51b81526004016105ec906129ba565b6065805460ff19169055565b600054610100900460ff16611c075760405162461bcd60e51b81526004016105ec906129ba565b8151611c1a9060369060208501906123cb565b5080516118b59060379060208401906123cb565b600054610100900460ff16611c555760405162461bcd60e51b81526004016105ec906129ba565b61076933611689565b600054610100900460ff166115be5760405162461bcd60e51b81526004016105ec906129ba565b6000807f7fffffffffffffffffffffffffffffff5d576e7357a4501ddfe92f46681b20a0831115611cbc5750600090506003611d40565b6040805160008082526020820180845289905260ff881692820192909252606081018690526080810185905260019060a0016020604051602081039080840390855afa158015611d10573d6000803e3d6000fd5b5050604051601f1901519150506001600160a01b038116611d3957600060019250925050611d40565b9150600090505b94509492505050565b6000816004811115611d5d57611d5d612a3d565b1415611d665750565b6001816004811115611d7a57611d7a612a3d565b1415611dc85760405162461bcd60e51b815260206004820152601860248201527f45434453413a20696e76616c6964207369676e6174757265000000000000000060448201526064016105ec565b6002816004811115611ddc57611ddc612a3d565b1415611e2a5760405162461bcd60e51b815260206004820152601f60248201527f45434453413a20696e76616c6964207369676e6174757265206c656e6774680060448201526064016105ec565b6003816004811115611e3e57611e3e612a3d565b14156106295760405162461bcd60e51b815260206004820152602260248201527f45434453413a20696e76616c6964207369676e6174757265202773272076616c604482015261756560f01b60648201526084016105ec565b60655460ff16156118b55760405162461bcd60e51b815260206004820152602a60248201527f45524332305061757361626c653a20746f6b656e207472616e736665722077686044820152691a5b19481c185d5cd95960b21b60648201526084016105ec565b6001600160a01b03838116600090815261019460205260408082205485841683529120546118b5929182169116836119de565b600080608083901c15611f4557608092831c92015b604083901c15611f5757604092831c92015b602083901c15611f6957602092831c92015b601083901c15611f7b57601092831c92015b600883901c15611f8d57600892831c92015b600483901c15611f9f57600492831c92015b600283901c15611fb157600292831c92015b600183901c156105895760010192915050565b6000818310611fd35781610700565b5090919050565b6001600160a01b03821661203a5760405162461bcd60e51b815260206004820152602160248201527f45524332303a206275726e2066726f6d20746865207a65726f206164647265736044820152607360f81b60648201526084016105ec565b612046826000836118aa565b6001600160a01b038216600090815260336020526040902054818110156120ba5760405162461bcd60e51b815260206004820152602260248201527f45524332303a206275726e20616d6f756e7420657863656564732062616c616e604482015261636560f01b60648201526084016105ec565b6001600160a01b03831660008181526033602090815260408083208686039055603580548790039055518581529192917fddf252ad1be2c89b69c2b068fc378daa952ba7f163c4a11628f55a4df523b3ef910160405180910390a36118b5836000846118ba565b6000610700828461298d565b8254600090819081811561217a5761214a876114a260018561298d565b60408051808201909152905463ffffffff8116825264010000000090046001600160e01b0316602082015261218f565b60408051808201909152600080825260208201525b905080602001516001600160e01b031693506121af84868863ffffffff16565b92506000821180156121c75750805163ffffffff1643145b1561220c576121d583612362565b6121e4886114a260018661298d565b80546001600160e01b03929092166401000000000263ffffffff909216919091179055612277565b866040518060400160405280612221436115c6565b63ffffffff16815260200161223586612362565b6001600160e01b0390811690915282546001810184556000938452602093849020835194909301519091166401000000000263ffffffff909316929092179101555b5050935093915050565b6000610700828461282e565b6001600160a01b0382166122e35760405162461bcd60e51b815260206004820152601f60248201527f45524332303a206d696e7420746f20746865207a65726f20616464726573730060448201526064016105ec565b6122ef600083836118aa565b8060356000828254612301919061282e565b90915550506001600160a01b0382166000818152603360209081526040808320805486019055518481527fddf252ad1be2c89b69c2b068fc378daa952ba7f163c4a11628f55a4df523b3ef910160405180910390a3610794600083836118ba565b60006001600160e01b0382111561162b5760405162461bcd60e51b815260206004820152602760248201527f53616665436173743a2076616c756520646f65736e27742066697420696e20326044820152663234206269747360c81b60648201526084016105ec565b8280546123d790612958565b90600052602060002090601f0160209004810192826123f9576000855561243f565b82601f1061241257805160ff191683800117855561243f565b8280016001018555821561243f579182015b8281111561243f578251825591602001919060010190612424565b5061162b9291505b8082111561162b5760008155600101612447565b600060208083528351808285015260005b818110156124885785810183015185820160400152820161246c565b8181111561249a576000604083870101525b50601f01601f1916929092016040019392505050565b80356001600160a01b03811681146124c757600080fd5b919050565b600080604083850312156124df57600080fd5b6124e8836124b0565b946020939093013593505050565b60006020828403121561250857600080fd5b610700826124b0565b60008060006060848603121561252657600080fd5b61252f846124b0565b925061253d602085016124b0565b9150604084013590509250925092565b60006020828403121561255f57600080fd5b5035919050565b6000806000806080858703121561257c57600080fd5b612585856124b0565b93506020850135925061259a604086016124b0565b9396929550929360600135925050565b634e487b7160e01b600052604160045260246000fd5b600082601f8301126125d157600080fd5b813567ffffffffffffffff808211156125ec576125ec6125aa565b604051601f8301601f19908116603f01168101908282118183101715612614576126146125aa565b8160405283815286602085880101111561262d57600080fd5b836020870160208301376000602085830101528094505050505092915050565b6000806000806080858703121561266357600080fd5b843567ffffffffffffffff8082111561267b57600080fd5b612687888389016125c0565b9550602087013591508082111561269d57600080fd5b506126aa878288016125c0565b9350506126b9604086016124b0565b91506126c7606086016124b0565b905092959194509250565b803560ff811681146124c757600080fd5b60008060008060008060c087890312156126fc57600080fd5b612705876124b0565b95506020870135945060408701359350612721606088016126d2565b92506080870135915060a087013590509295509295509295565b600080600080600080600060e0888a03121561275657600080fd5b61275f886124b0565b965061276d602089016124b0565b95506040880135945060608801359350612789608089016126d2565b925060a0880135915060c0880135905092959891949750929550565b600080604083850312156127b857600080fd5b6127c1836124b0565b91506127cf602084016124b0565b90509250929050565b600080604083850312156127eb57600080fd5b6127f4836124b0565b9150602083013563ffffffff8116811461280d57600080fd5b809150509250929050565b634e487b7160e01b600052601160045260246000fd5b6000821982111561284157612841612818565b500190565b600181815b8085111561288157816000190482111561286757612867612818565b8085161561287457918102915b93841c939080029061284b565b509250929050565b60008261289857506001610589565b816128a557506000610589565b81600181146128bb57600281146128c5576128e1565b6001915050610589565b60ff8411156128d6576128d6612818565b50506001821b610589565b5060208310610133831016604e8410600b8410161715612904575081810a610589565b61290e8383612846565b806000190482111561292257612922612818565b029392505050565b600061070060ff841683612889565b600081600019048311821515161561295357612953612818565b500290565b600181811c9082168061296c57607f821691505b602082108114156118a457634e487b7160e01b600052602260045260246000fd5b60008282101561299f5761299f612818565b500390565b634e487b7160e01b600052603260045260246000fd5b6020808252602b908201527f496e697469616c697a61626c653a20636f6e7472616374206973206e6f74206960408201526a6e697469616c697a696e6760a81b606082015260800190565b634e487b7160e01b600052601260045260246000fd5b600082612a3857634e487b7160e01b600052601260045260246000fd5b500490565b634e487b7160e01b600052602160045260246000fdfea26469706673582212206638ec1dc66f6815d25b347561bc60ebee328dacb157d7892b83e47b16695e1364736f6c634300080c0033",
  "linkReferences": {},
  "deployedLinkReferences": {}
}