{
  "_format": "hh-sol-artifact-1",
  "contractName": "GENToken",
  "sourceName": "contracts/erc20/GENToken.sol",
  "abi": [
    {
      "anonymous": false,
      "inputs": [
        {
          "indexed": true,
          "internalType": "address",
          "name": "owner",
          "type": "address"
        },
        {
          "indexed": true,
          "internalType": "address",
          "name": "spender",
          "type": "address"
        },
        {
          "indexed": false,
          "internalType": "uint256",
          "name": "value",
          "type": "uint256"
        }
      ],
      "name": "Approval",
      "type": "event"
    },
    {
      "anonymous": false,
      "inputs": [
        {
          "indexed": false,
          "internalType": "address",
          "name": "to",
          "type": "address"
        },
        {
          "indexed": false,
          "internalType": "uint256",
          "name": "amount",
          "type": "uint256"
        },
        {
          "indexed": false,
          "internalType": "uint256",
          "name": "primary",
          "type": "uint256"
        },
        {
          "indexed": false,
          "internalType": "uint256",
          "name": "",
          "type": "uint256"
        },
        {
          "indexed": false,
          "internalType": "uint256",
          "name": "second",
          "type": "uint256"
        }
      ],
      "name": "ClaimToken",
      "type": "event"
    },
    {
      "anonymous": false,
      "inputs": [
        {
          "indexed": true,
          "internalType": "address",
          "name": "delegator",
          "type": "address"
        },
        {
          "indexed": true,
          "internalType": "address",
          "name": "fromDelegate",
          "type": "address"
        },
        {
          "indexed": true,
          "internalType": "address",
          "name": "toDelegate",
          "type": "address"
        }
      ],
      "name": "DelegateChanged",
      "type": "event"
    },
    {
      "anonymous": false,
      "inputs": [
        {
          "indexed": true,
          "internalType": "address",
          "name": "delegate",
          "type": "address"
        },
        {
          "indexed": false,
          "internalType": "uint256",
          "name": "previousBalance",
          "type": "uint256"
        },
        {
          "indexed": false,
          "internalType": "uint256",
          "name": "newBalance",
          "type": "uint256"
        }
      ],
      "name": "DelegateVotesChanged",
      "type": "event"
    },
    {
      "anonymous": false,
      "inputs": [
        {
          "indexed": false,
          "internalType": "uint8",
          "name": "version",
          "type": "uint8"
        }
      ],
      "name": "Initialized",
      "type": "event"
    },
    {
      "anonymous": false,
      "inputs": [
        {
          "indexed": false,
          "internalType": "address",
          "name": "genNFT",
          "type": "address"
        }
      ],
      "name": "NotSupportProjectAddress",
      "type": "event"
    },
    {
      "anonymous": false,
      "inputs": [
        {
          "indexed": false,
          "internalType": "address",
          "name": "genNFT",
          "type": "address"
        }
      ],
      "name": "NotSupportProjectIndex",
      "type": "event"
    },
    {
      "anonymous": false,
      "inputs": [
        {
          "indexed": true,
          "internalType": "address",
          "name": "previousOwner",
          "type": "address"
        },
        {
          "indexed": true,
          "internalType": "address",
          "name": "newOwner",
          "type": "address"
        }
      ],
      "name": "OwnershipTransferred",
      "type": "event"
    },
    {
      "anonymous": false,
      "inputs": [
        {
          "indexed": false,
          "internalType": "address",
          "name": "account",
          "type": "address"
        }
      ],
      "name": "Paused",
      "type": "event"
    },
    {
      "anonymous": false,
      "inputs": [
        {
          "indexed": true,
          "internalType": "address",
          "name": "from",
          "type": "address"
        },
        {
          "indexed": true,
          "internalType": "address",
          "name": "to",
          "type": "address"
        },
        {
          "indexed": false,
          "internalType": "uint256",
          "name": "value",
          "type": "uint256"
        }
      ],
      "name": "Transfer",
      "type": "event"
    },
    {
      "anonymous": false,
      "inputs": [
        {
          "indexed": false,
          "internalType": "address",
          "name": "account",
          "type": "address"
        }
      ],
      "name": "Unpaused",
      "type": "event"
    },
    {
      "inputs": [],
      "name": "DOMAIN_SEPARATOR",
      "outputs": [
        {
          "internalType": "bytes32",
          "name": "",
          "type": "bytes32"
        }
      ],
      "stateMutability": "view",
      "type": "function"
    },
    {
      "inputs": [
        {
          "internalType": "address",
          "name": "",
          "type": "address"
        },
        {
          "internalType": "address",
          "name": "",
          "type": "address"
        }
      ],
      "name": "_PoASecondSale",
      "outputs": [
        {
          "internalType": "uint256",
          "name": "",
          "type": "uint256"
        }
      ],
      "stateMutability": "view",
      "type": "function"
    },
    {
      "inputs": [],
      "name": "_admin",
      "outputs": [
        {
          "internalType": "address",
          "name": "",
          "type": "address"
        }
      ],
      "stateMutability": "view",
      "type": "function"
    },
    {
      "inputs": [
        {
          "internalType": "address",
          "name": "",
          "type": "address"
        },
        {
          "internalType": "address",
          "name": "",
          "type": "address"
        }
      ],
      "name": "_claimed",
      "outputs": [
        {
          "internalType": "uint256",
          "name": "",
          "type": "uint256"
        }
      ],
      "stateMutability": "view",
      "type": "function"
    },
    {
      "inputs": [
        {
          "internalType": "address",
          "name": "",
          "type": "address"
        },
        {
          "internalType": "address",
          "name": "",
          "type": "address"
        }
      ],
      "name": "_claimedIndex",
      "outputs": [
        {
          "internalType": "uint256",
          "name": "",
          "type": "uint256"
        }
      ],
      "stateMutability": "view",
      "type": "function"
    },
    {
      "inputs": [],
      "name": "_paramAddr",
      "outputs": [
        {
          "internalType": "address",
          "name": "",
          "type": "address"
        }
      ],
      "stateMutability": "view",
      "type": "function"
    },
    {
      "inputs": [
        {
          "internalType": "address",
          "name": "",
          "type": "address"
        }
      ],
      "name": "_proxyPoASecondSales",
      "outputs": [
        {
          "internalType": "bool",
          "name": "",
          "type": "bool"
        }
      ],
      "stateMutability": "view",
      "type": "function"
    },
    {
      "inputs": [],
      "name": "_remainClaimSupply",
      "outputs": [
        {
          "internalType": "uint256",
          "name": "",
          "type": "uint256"
        }
      ],
      "stateMutability": "view",
      "type": "function"
    },
    {
      "inputs": [],
      "name": "_remainCoreTeam",
      "outputs": [
        {
          "internalType": "uint256",
          "name": "",
          "type": "uint256"
        }
      ],
      "stateMutability": "view",
      "type": "function"
    },
    {
      "inputs": [],
      "name": "_remainDAO",
      "outputs": [
        {
          "internalType": "uint256",
          "name": "",
          "type": "uint256"
        }
      ],
      "stateMutability": "view",
      "type": "function"
    },
    {
      "inputs": [
        {
          "internalType": "address",
          "name": "owner",
          "type": "address"
        },
        {
          "internalType": "address",
          "name": "spender",
          "type": "address"
        }
      ],
      "name": "allowance",
      "outputs": [
        {
          "internalType": "uint256",
          "name": "",
          "type": "uint256"
        }
      ],
      "stateMutability": "view",
      "type": "function"
    },
    {
      "inputs": [
        {
          "internalType": "address",
          "name": "spender",
          "type": "address"
        },
        {
          "internalType": "uint256",
          "name": "amount",
          "type": "uint256"
        }
      ],
      "name": "approve",
      "outputs": [
        {
          "internalType": "bool",
          "name": "",
          "type": "bool"
        }
      ],
      "stateMutability": "nonpayable",
      "type": "function"
    },
    {
      "inputs": [
        {
          "internalType": "address",
          "name": "account",
          "type": "address"
        }
      ],
      "name": "balanceOf",
      "outputs": [
        {
          "internalType": "uint256",
          "name": "",
          "type": "uint256"
        }
      ],
      "stateMutability": "view",
      "type": "function"
    },
    {
      "inputs": [
        {
          "internalType": "uint256",
          "name": "amount",
          "type": "uint256"
        }
      ],
      "name": "burn",
      "outputs": [],
      "stateMutability": "nonpayable",
      "type": "function"
    },
    {
      "inputs": [
        {
          "internalType": "address",
          "name": "account",
          "type": "address"
        },
        {
          "internalType": "uint256",
          "name": "amount",
          "type": "uint256"
        }
      ],
      "name": "burnFrom",
      "outputs": [],
      "stateMutability": "nonpayable",
      "type": "function"
    },
    {
      "inputs": [
        {
          "internalType": "address",
          "name": "newAdm",
          "type": "address"
        }
      ],
      "name": "changeAdmin",
      "outputs": [],
      "stateMutability": "nonpayable",
      "type": "function"
    },
    {
      "inputs": [
        {
          "internalType": "address",
          "name": "newAddr",
          "type": "address"
        }
      ],
      "name": "changeParamAddress",
      "outputs": [],
      "stateMutability": "nonpayable",
      "type": "function"
    },
    {
      "inputs": [
        {
          "internalType": "address",
          "name": "account",
          "type": "address"
        },
        {
          "internalType": "uint32",
          "name": "pos",
          "type": "uint32"
        }
      ],
      "name": "checkpoints",
      "outputs": [
        {
          "components": [
            {
              "internalType": "uint32",
              "name": "fromBlock",
              "type": "uint32"
            },
            {
              "internalType": "uint224",
              "name": "votes",
              "type": "uint224"
            }
          ],
          "internalType": "struct ERC20VotesUpgradeable.Checkpoint",
          "name": "",
          "type": "tuple"
        }
      ],
      "stateMutability": "view",
      "type": "function"
    },
    {
      "inputs": [],
      "name": "decay",
      "outputs": [
        {
          "internalType": "uint8",
          "name": "",
          "type": "uint8"
        }
      ],
      "stateMutability": "view",
      "type": "function"
    },
    {
      "inputs": [],
      "name": "decimals",
      "outputs": [
        {
          "internalType": "uint8",
          "name": "",
          "type": "uint8"
        }
      ],
      "stateMutability": "pure",
      "type": "function"
    },
    {
      "inputs": [
        {
          "internalType": "address",
          "name": "spender",
          "type": "address"
        },
        {
          "internalType": "uint256",
          "name": "subtractedValue",
          "type": "uint256"
        }
      ],
      "name": "decreaseAllowance",
      "outputs": [
        {
          "internalType": "bool",
          "name": "",
          "type": "bool"
        }
      ],
      "stateMutability": "nonpayable",
      "type": "function"
    },
    {
      "inputs": [
        {
          "internalType": "address",
          "name": "delegatee",
          "type": "address"
        }
      ],
      "name": "delegate",
      "outputs": [],
      "stateMutability": "nonpayable",
      "type": "function"
    },
    {
      "inputs": [
        {
          "internalType": "address",
          "name": "delegatee",
          "type": "address"
        },
        {
          "internalType": "uint256",
          "name": "nonce",
          "type": "uint256"
        },
        {
          "internalType": "uint256",
          "name": "expiry",
          "type": "uint256"
        },
        {
          "internalType": "uint8",
          "name": "v",
          "type": "uint8"
        },
        {
          "internalType": "bytes32",
          "name": "r",
          "type": "bytes32"
        },
        {
          "internalType": "bytes32",
          "name": "s",
          "type": "bytes32"
        }
      ],
      "name": "delegateBySig",
      "outputs": [],
      "stateMutability": "nonpayable",
      "type": "function"
    },
    {
      "inputs": [
        {
          "internalType": "address",
          "name": "account",
          "type": "address"
        }
      ],
      "name": "delegates",
      "outputs": [
        {
          "internalType": "address",
          "name": "",
          "type": "address"
        }
      ],
      "stateMutability": "view",
      "type": "function"
    },
    {
      "inputs": [
        {
          "internalType": "address",
          "name": "account",
          "type": "address"
        }
      ],
      "name": "getCurrentVotes",
      "outputs": [
        {
          "internalType": "uint96",
          "name": "",
          "type": "uint96"
        }
      ],
      "stateMutability": "view",
      "type": "function"
    },
    {
      "inputs": [
        {
          "internalType": "uint256",
          "name": "blockNumber",
          "type": "uint256"
        }
      ],
      "name": "getPastTotalSupply",
      "outputs": [
        {
          "internalType": "uint256",
          "name": "",
          "type": "uint256"
        }
      ],
      "stateMutability": "view",
      "type": "function"
    },
    {
      "inputs": [
        {
          "internalType": "address",
          "name": "account",
          "type": "address"
        },
        {
          "internalType": "uint256",
          "name": "blockNumber",
          "type": "uint256"
        }
      ],
      "name": "getPastVotes",
      "outputs": [
        {
          "internalType": "uint256",
          "name": "",
          "type": "uint256"
        }
      ],
      "stateMutability": "view",
      "type": "function"
    },
    {
      "inputs": [
        {
          "internalType": "address",
          "name": "account",
          "type": "address"
        },
        {
          "internalType": "uint256",
          "name": "blockNumber",
          "type": "uint256"
        }
      ],
      "name": "getPriorVotes",
      "outputs": [
        {
          "internalType": "uint96",
          "name": "",
          "type": "uint96"
        }
      ],
      "stateMutability": "view",
      "type": "function"
    },
    {
      "inputs": [
        {
          "internalType": "address",
          "name": "account",
          "type": "address"
        }
      ],
      "name": "getVotes",
      "outputs": [
        {
          "internalType": "uint256",
          "name": "",
          "type": "uint256"
        }
      ],
      "stateMutability": "view",
      "type": "function"
    },
    {
      "inputs": [
        {
          "internalType": "address",
          "name": "spender",
          "type": "address"
        },
        {
          "internalType": "uint256",
          "name": "addedValue",
          "type": "uint256"
        }
      ],
      "name": "increaseAllowance",
      "outputs": [
        {
          "internalType": "bool",
          "name": "",
          "type": "bool"
        }
      ],
      "stateMutability": "nonpayable",
      "type": "function"
    },
    {
      "inputs": [
        {
          "internalType": "string",
          "name": "name",
          "type": "string"
        },
        {
          "internalType": "string",
          "name": "symbol",
          "type": "string"
        },
        {
          "internalType": "address",
          "name": "admin",
          "type": "address"
        },
        {
          "internalType": "address",
          "name": "paramAddr",
          "type": "address"
        }
      ],
      "name": "initialize",
      "outputs": [],
      "stateMutability": "nonpayable",
      "type": "function"
    },
    {
      "inputs": [
        {
          "internalType": "address",
          "name": "generativeProjectAddr",
          "type": "address"
        },
        {
          "internalType": "uint256",
          "name": "projectId",
          "type": "uint256"
        }
      ],
      "name": "miningPoA",
      "outputs": [],
      "stateMutability": "nonpayable",
      "type": "function"
    },
    {
      "inputs": [],
      "name": "name",
      "outputs": [
        {
          "internalType": "string",
          "name": "",
          "type": "string"
        }
      ],
      "stateMutability": "view",
      "type": "function"
    },
    {
      "inputs": [
        {
          "internalType": "address",
          "name": "owner",
          "type": "address"
        }
      ],
      "name": "nonces",
      "outputs": [
        {
          "internalType": "uint256",
          "name": "",
          "type": "uint256"
        }
      ],
      "stateMutability": "view",
      "type": "function"
    },
    {
      "inputs": [
        {
          "internalType": "address",
          "name": "account",
          "type": "address"
        }
      ],
      "name": "numCheckpoints",
      "outputs": [
        {
          "internalType": "uint32",
          "name": "",
          "type": "uint32"
        }
      ],
      "stateMutability": "view",
      "type": "function"
    },
    {
      "inputs": [],
      "name": "owner",
      "outputs": [
        {
          "internalType": "address",
          "name": "",
          "type": "address"
        }
      ],
      "stateMutability": "view",
      "type": "function"
    },
    {
      "inputs": [],
      "name": "paused",
      "outputs": [
        {
          "internalType": "bool",
          "name": "",
          "type": "bool"
        }
      ],
      "stateMutability": "view",
      "type": "function"
    },
    {
      "inputs": [
        {
          "internalType": "address",
          "name": "owner",
          "type": "address"
        },
        {
          "internalType": "address",
          "name": "spender",
          "type": "address"
        },
        {
          "internalType": "uint256",
          "name": "value",
          "type": "uint256"
        },
        {
          "internalType": "uint256",
          "name": "deadline",
          "type": "uint256"
        },
        {
          "internalType": "uint8",
          "name": "v",
          "type": "uint8"
        },
        {
          "internalType": "bytes32",
          "name": "r",
          "type": "bytes32"
        },
        {
          "internalType": "bytes32",
          "name": "s",
          "type": "bytes32"
        }
      ],
      "name": "permit",
      "outputs": [],
      "stateMutability": "nonpayable",
      "type": "function"
    },
    {
      "inputs": [
        {
          "internalType": "address",
          "name": "generativeProjectAddr",
          "type": "address"
        },
        {
          "internalType": "uint256",
          "name": "projectId",
          "type": "uint256"
        }
      ],
      "name": "proofOfArtAvailable",
      "outputs": [
        {
          "internalType": "uint256",
          "name": "",
          "type": "uint256"
        },
        {
          "internalType": "uint256",
          "name": "",
          "type": "uint256"
        },
        {
          "internalType": "uint256",
          "name": "",
          "type": "uint256"
        }
      ],
      "stateMutability": "nonpayable",
      "type": "function"
    },
    {
      "inputs": [],
      "name": "renounceOwnership",
      "outputs": [],
      "stateMutability": "nonpayable",
      "type": "function"
    },
    {
      "inputs": [
        {
          "internalType": "address",
          "name": "genNFTAddr",
          "type": "address"
        },
        {
          "internalType": "uint256",
          "name": "tokenId",
          "type": "uint256"
        },
        {
          "internalType": "address",
          "name": "erc20Addr",
          "type": "address"
        },
        {
          "internalType": "uint256",
          "name": "amount",
          "type": "uint256"
        }
      ],
      "name": "setPoASecondSale",
      "outputs": [],
      "stateMutability": "nonpayable",
      "type": "function"
    },
    {
      "inputs": [
        {
          "internalType": "address",
          "name": "addr",
          "type": "address"
        },
        {
          "internalType": "bool",
          "name": "approve",
          "type": "bool"
        }
      ],
      "name": "setProxyPoASecondSale",
      "outputs": [],
      "stateMutability": "nonpayable",
      "type": "function"
    },
    {
      "inputs": [],
      "name": "symbol",
      "outputs": [
        {
          "internalType": "string",
          "name": "",
          "type": "string"
        }
      ],
      "stateMutability": "view",
      "type": "function"
    },
    {
      "inputs": [],
      "name": "totalSupply",
      "outputs": [
        {
          "internalType": "uint256",
          "name": "",
          "type": "uint256"
        }
      ],
      "stateMutability": "view",
      "type": "function"
    },
    {
      "inputs": [
        {
          "internalType": "address",
          "name": "to",
          "type": "address"
        },
        {
          "internalType": "uint256",
          "name": "amount",
          "type": "uint256"
        }
      ],
      "name": "transfer",
      "outputs": [
        {
          "internalType": "bool",
          "name": "",
          "type": "bool"
        }
      ],
      "stateMutability": "nonpayable",
      "type": "function"
    },
    {
      "inputs": [
        {
          "internalType": "address",
          "name": "from",
          "type": "address"
        },
        {
          "internalType": "address",
          "name": "to",
          "type": "address"
        },
        {
          "internalType": "uint256",
          "name": "amount",
          "type": "uint256"
        }
      ],
      "name": "transferFrom",
      "outputs": [
        {
          "internalType": "bool",
          "name": "",
          "type": "bool"
        }
      ],
      "stateMutability": "nonpayable",
      "type": "function"
    },
    {
      "inputs": [
        {
          "internalType": "address",
          "name": "newOwner",
          "type": "address"
        }
      ],
      "name": "transferOwnership",
      "outputs": [],
      "stateMutability": "nonpayable",
      "type": "function"
    }
  ],
  "bytecode": "0x608060405234801561001057600080fd5b50613c58806100206000396000f3fe608060405234801561001057600080fd5b50600436106102955760003560e01c806379cc679011610167578063b354675b116100ce578063d505accf11610087578063d505accf14610668578063dd62ed3e1461067b578063e6f814131461068e578063f1127ed814610698578063f2fde38b146106d5578063f4a290f7146106e857600080fd5b8063b354675b146105d5578063b4b5ea5714610601578063b4d2728314610614578063c3678f3514610627578063c3cda52014610631578063c4fcdc3d1461064457600080fd5b80639452772911610120578063945277291461053a57806395d89b41146105665780639637e89a1461056e5780639ab24eb01461059c578063a457c2d7146105af578063a9059cbb146105c257600080fd5b806379cc6790146104ca5780637ecebe00146104dd5780638da5cb5b146104f05780638e539e8c146105015780638f15b414146105145780638f2839701461052757600080fd5b806342966c681161020b57806361d61800116101c457806361d61800146104105780636e0c558f1461041a5780636fcfff451461044657806370a082311461046e578063715018a614610497578063782d6fe11461049f57600080fd5b806342966c681461039757806354fac919146103aa578063587cde1e146103b25780635c19a95c146103df5780635c975abb146103f257806361bcaf74146103fd57600080fd5b806323b872dd1161025d57806323b872dd1461032e578063306ca55d14610341578063313ce567146103545780633644e5151461036957806339509351146103715780633a46b1a81461038457600080fd5b806301bc45c91461029a57806306fdde03146102cb578063095ea7b3146102e057806316a5041f1461030357806318160ddd14610318575b600080fd5b61022a546102ae906001600160a01b031681565b6040516001600160a01b0390911681526020015b60405180910390f35b6102d36106fc565b6040516102c291906130a3565b6102f36102ee3660046130eb565b61078e565b60405190151581526020016102c2565b610316610311366004613117565b6107a8565b005b610320610845565b6040519081526020016102c2565b6102f361033c366004613134565b610855565b61031661034f366004613175565b610879565b60125b60405160ff90911681526020016102c2565b610320610903565b6102f361037f3660046130eb565b61090d565b6103206103923660046130eb565b61092f565b6103166103a53660046131b3565b6109aa565b6103576109b4565b6102ae6103c0366004613117565b6001600160a01b03908116600090815261019460205260409020541690565b6103166103ed366004613117565b610a9c565b60655460ff166102f3565b61031661040b3660046131cc565b610aa6565b6103206102305481565b610320610428366004613214565b61023160209081526000928352604080842090915290825290205481565b610459610454366004613117565b610cf2565b60405163ffffffff90911681526020016102c2565b61032061047c366004613117565b6001600160a01b031660009081526033602052604090205490565b610316610d15565b6104b26104ad3660046130eb565b610d29565b6040516001600160601b0390911681526020016102c2565b6103166104d83660046130eb565b610d3d565b6103206104eb366004613117565b610d56565b60fb546001600160a01b03166102ae565b61032061050f3660046131b3565b610d75565b610316610522366004613354565b610dd2565b610316610535366004613117565b611005565b610320610548366004613214565b61022c60209081526000928352604080842090915290825290205481565b6102d361109a565b61058161057c3660046130eb565b6110a9565b604080519384526020840192909252908201526060016102c2565b6103206105aa366004613117565b611419565b6102f36105bd3660046130eb565b6114a2565b6102f36105d03660046130eb565b61151d565b6103206105e3366004613214565b61022d60209081526000928352604080842090915290825290205481565b6104b261060f366004613117565b61152b565b6103166106223660046130eb565b611539565b61032061022e5481565b61031661063f3660046133f3565b61182b565b6102f3610652366004613117565b6102326020526000908152604090205460ff1681565b61031661067636600461344d565b611961565b610320610689366004613214565b611ac5565b61032061022f5481565b6106ab6106a63660046134bb565b611af0565b60408051825163ffffffff1681526020928301516001600160e01b031692810192909252016102c2565b6103166106e3366004613117565b611b75565b61022b546102ae906001600160a01b031681565b60606036805461070b906134f2565b80601f0160208091040260200160405190810160405280929190818152602001828054610737906134f2565b80156107845780601f1061075957610100808354040283529160200191610784565b820191906000526020600020905b81548152906001019060200180831161076757829003601f168201915b5050505050905090565b60003361079c818585611beb565b60019150505b92915050565b61022a546001600160a01b0316331480156107cb57506001600160a01b03811615155b6040518060400160405280600381526020016231303160e81b8152509061080e5760405162461bcd60e51b815260040161080591906130a3565b60405180910390fd5b5061022b546001600160a01b038281169116146108425761022a80546001600160a01b0319166001600160a01b0383161790555b50565b600061085060355490565b905090565b600033610863858285611d0f565b61086e858585611d83565b506001949350505050565b61022a546001600160a01b03163314801561089c57506001600160a01b03821615155b6040518060400160405280600381526020016231303160e81b815250906108d65760405162461bcd60e51b815260040161080591906130a3565b506001600160a01b0391909116600090815261023260205260409020805460ff1916911515919091179055565b6000610850611f3f565b60003361079c8185856109208383611ac5565b61092a919061353d565b611beb565b60004382106109805760405162461bcd60e51b815260206004820152601f60248201527f4552433230566f7465733a20626c6f636b206e6f7420796574206d696e6564006044820152606401610805565b6001600160a01b0383166000908152610195602052604090206109a39083611fbc565b9392505050565b61084233826120b3565b6000806109c36012600a613639565b6109d090620f4240613648565b9050600061022e5482603c6109e59190613648565b6109ef9190613667565b90506109fc82600a613648565b811015610a0c5760209250505090565b610a17826014613648565b811015610a275760109250505090565b610a3282601e613648565b811015610a425760089250505090565b610a4d826028613648565b811015610a5d5760049250505090565b610a68826032613648565b811015610a785760029250505090565b610a8382603c613648565b811015610a935760019250505090565b60009250505090565b61084233826120bd565b610aae612138565b61022a546001600160a01b0316331480610ad85750336000908152610232602052604090205460ff165b15610ce1576001600160a01b038216610ce1576000849050806001600160a01b0316633cf96af16040518163ffffffff1660e01b8152600401602060405180830381865afa925050508015610b4a575060408051601f3d908101601f19168201909252610b4791810190613689565b60015b610b8f576040516001600160a01b03861681527fd885430e240642202c2cb56f1e0ef33710e94fff454cd0e3c6d509b01d5aca739060200160405180910390a1610cdf565b6000610b9e620f4240876136bc565b6040516331a9108f60e11b81526004810182905290915082906000906001600160a01b03831690636352211e90602401602060405180830381865afa158015610beb573d6000803e3d6000fd5b505050506040513d601f19601f82011682018060405250810190610c0f9190613689565b90506001600160a01b03811615610cda576040516346ec8d2b60e11b8152600481018490526000906001600160a01b03841690638dd91a5690602401600060405180830381865afa158015610c68573d6000803e3d6000fd5b505050506040513d6000823e601f3d908101601f19168201604052610c90919081019061392f565b6001600160a01b038084166000908152610231602090815260408083206101e0860151909416835292905290812080549293508992909190610cd390849061353d565b9091555050505b505050505b505b610cec60016101f855565b50505050565b6001600160a01b038116600090815261019560205260408120546107a29061219c565b610d1d612205565b610d27600061225f565b565b60006109a3610d38848461092f565b6122b1565b610d48823383611d0f565b610d5282826120b3565b5050565b6001600160a01b038116600090815261016160205260408120546107a2565b6000438210610dc65760405162461bcd60e51b815260206004820152601f60248201527f4552433230566f7465733a20626c6f636b206e6f7420796574206d696e6564006044820152606401610805565b6107a261019683611fbc565b600054610100900460ff1615808015610df25750600054600160ff909116105b80610e0c5750303b158015610e0c575060005460ff166001145b610e6f5760405162461bcd60e51b815260206004820152602e60248201527f496e697469616c697a61626c653a20636f6e747261637420697320616c72656160448201526d191e481a5b9a5d1a585b1a5e995960921b6064820152608401610805565b6000805460ff191660011790558015610e92576000805461ff0019166101001790555b6001600160a01b03831615801590610eb257506001600160a01b03821615155b6040518060400160405280600381526020016203130360ec1b81525090610eec5760405162461bcd60e51b815260040161080591906130a3565b5061022a80546001600160a01b038086166001600160a01b03199283161790925561022b8054928516929091169190911790556000610f29601290565b610f3490600a613639565b610f42906305f5e100613648565b90506064610f5182603c613648565b610f5b91906136bc565b61022e556064610f6c82601e613648565b610f7691906136bc565b61022f556064610f8782600a613648565b610f9191906136bc565b61023055610f9d612319565b610fa78686612348565b610faf612379565b610fb76123a8565b508015610ffe576000805461ff0019169055604051600181527f7f26b83ff96e1f2b6a682f133852f6798a09c465da95921460cefb38474024989060200160405180910390a15b5050505050565b61022a546001600160a01b03163314801561102857506001600160a01b03811615155b6040518060400160405280600381526020016231303160e81b815250906110625760405162461bcd60e51b815260040161080591906130a3565b5061022a546001600160a01b038281169116146108425761022a80546001600160a01b0383166001600160a01b031990911617905550565b60606037805461070b906134f2565b6040516346ec8d2b60e11b81526004810182905260009081908190859082906001600160a01b03831690638dd91a5690602401600060405180830381865afa1580156110f9573d6000803e3d6000fd5b505050506040513d6000823e601f3d908101601f19168201604052611121919081019061392f565b606081015160408051808201909152600381526203430360ec1b60208201529192506001600160a01b03161561116a5760405162461bcd60e51b815260040161080591906130a3565b50600081604001511161117c57600080fd5b6000816101e001519050806001600160a01b031663631847266040518163ffffffff1660e01b8152600401602060405180830381865afa9250505080156111e0575060408051601f3d908101601f191682019092526111dd91810190613b90565b60015b61122c576101e08201516040516001600160a01b0390911681527fa2d47e5e61369d0bde38a716e62f1ea16d8124813f8ea55b832c218216e91dfc9060200160405180910390a1611403565b60008162ffffff161161123e57600080fd5b6000836040015161022d6000876001600160a01b0316636352211e8d6040518263ffffffff1660e01b815260040161127891815260200190565b602060405180830381865afa158015611295573d6000803e3d6000fd5b505050506040513d601f19601f820116820180604052508101906112b99190613689565b6001600160a01b039081168252602080830193909352604091820160009081206101e08a0151909216815292529020546112f89062ffffff8516613667565b6113029190613648565b905061130c6109b4565b6113199060ff1682613648565b826113226109b4565b60ff166102316000896001600160a01b0316636352211e8f6040518263ffffffff1660e01b815260040161135891815260200190565b602060405180830381865afa158015611375573d6000803e3d6000fd5b505050506040513d601f19601f820116820180604052508101906113999190613689565b6001600160a01b03166001600160a01b031681526020019081526020016000206000886101e001516001600160a01b03166001600160a01b03168152602001908152602001600020546113ec9190613648565b91995062ffffff1697509550611412945050505050565b60008060009550955095505050505b9250925092565b6001600160a01b03811660009081526101956020526040812054801561148f576001600160a01b03831660009081526101956020526040902061145d600183613667565b8154811061146d5761146d613bab565b60009182526020909120015464010000000090046001600160e01b0316611492565b60005b6001600160e01b03169392505050565b600033816114b08286611ac5565b9050838110156115105760405162461bcd60e51b815260206004820152602560248201527f45524332303a2064656372656173656420616c6c6f77616e63652062656c6f77604482015264207a65726f60d81b6064820152608401610805565b61086e8286868403611beb565b60003361079c818585611d83565b60006107a2610d3883611419565b6115416123d7565b611549612138565b600061022e54116040518060400160405280600381526020016232303360e81b8152509061158a5760405162461bcd60e51b815260040161080591906130a3565b506040516346ec8d2b60e11b81526004810182905282906000906001600160a01b03831690638dd91a5690602401600060405180830381865afa1580156115d5573d6000803e3d6000fd5b505050506040513d6000823e601f3d908101601f191682016040526115fd919081019061392f565b606081015160408051808201909152600381526203430360ec1b60208201529192506001600160a01b0316156116465760405162461bcd60e51b815260040161080591906130a3565b50600081604001511161165857600080fd5b600080600061166787876110a9565b91945092509050600061167a828561353d565b905061022e5481111561168d575061022e545b60c0850180516001600160a01b03908116600090815261022d602090815260408083206101e08b0180518616855290835281842089905594518416835261022c82528083209451909316825292909252812080548392906116ef90849061353d565b90915550506040516331a9108f60e11b8152600481018890526000906102319082906001600160a01b038a1690636352211e90602401602060405180830381865afa158015611742573d6000803e3d6000fd5b505050506040513d601f19601f820116820180604052508101906117669190613689565b6001600160a01b039081168252602080830193909352604091820160009081206101e08b01519092168152925290205560c08501516117a5908261241d565b8061022e60008282546117b89190613667565b909155505060c0850151604080516001600160a01b03909216825260208201839052810185905260608101849052608081018390527fab8740194374c5f9d49b0cbd25bbba5777839e75f33e3f7cd15b08a92cf6805b9060a00160405180910390a1505050505050610d5260016101f855565b8342111561187b5760405162461bcd60e51b815260206004820152601d60248201527f4552433230566f7465733a207369676e617475726520657870697265640000006044820152606401610805565b604080517fe48329057bfd03d55e49b547132e39cffd9c1820ad7b9d4c5307691425d15adf60208201526001600160a01b0388169181019190915260608101869052608081018590526000906118f5906118ed9060a00160405160208183030381529060405280519060200120612427565b858585612475565b90506119008161249d565b861461194e5760405162461bcd60e51b815260206004820152601960248201527f4552433230566f7465733a20696e76616c6964206e6f6e6365000000000000006044820152606401610805565b61195881886120bd565b50505050505050565b834211156119b15760405162461bcd60e51b815260206004820152601d60248201527f45524332305065726d69743a206578706972656420646561646c696e650000006044820152606401610805565b60007f6e71edae12b1b97f4d1f60370fef10105fa2faae0126114a169c64845d6126c98888886119e08c61249d565b6040805160208101969096526001600160a01b0394851690860152929091166060840152608083015260a082015260c0810186905260e0016040516020818303038152906040528051906020012090506000611a3b82612427565b90506000611a4b82878787612475565b9050896001600160a01b0316816001600160a01b031614611aae5760405162461bcd60e51b815260206004820152601e60248201527f45524332305065726d69743a20696e76616c6964207369676e617475726500006044820152606401610805565b611ab98a8a8a611beb565b50505050505050505050565b6001600160a01b03918216600090815260346020908152604080832093909416825291909152205490565b60408051808201909152600080825260208201526001600160a01b038316600090815261019560205260409020805463ffffffff8416908110611b3557611b35613bab565b60009182526020918290206040805180820190915291015463ffffffff8116825264010000000090046001600160e01b0316918101919091529392505050565b611b7d612205565b6001600160a01b038116611be25760405162461bcd60e51b815260206004820152602660248201527f4f776e61626c653a206e6577206f776e657220697320746865207a65726f206160448201526564647265737360d01b6064820152608401610805565b6108428161225f565b6001600160a01b038316611c4d5760405162461bcd60e51b8152602060048201526024808201527f45524332303a20617070726f76652066726f6d20746865207a65726f206164646044820152637265737360e01b6064820152608401610805565b6001600160a01b038216611cae5760405162461bcd60e51b815260206004820152602260248201527f45524332303a20617070726f766520746f20746865207a65726f206164647265604482015261737360f01b6064820152608401610805565b6001600160a01b0383811660008181526034602090815260408083209487168084529482529182902085905590518481527f8c5be1e5ebec7d5bd14f71427d1e84f3dd0314c0f7b2291e5b200ac8c7c3b925910160405180910390a3505050565b6000611d1b8484611ac5565b90506000198114610cec5781811015611d765760405162461bcd60e51b815260206004820152601d60248201527f45524332303a20696e73756666696369656e7420616c6c6f77616e63650000006044820152606401610805565b610cec8484848403611beb565b6001600160a01b038316611de75760405162461bcd60e51b815260206004820152602560248201527f45524332303a207472616e736665722066726f6d20746865207a65726f206164604482015264647265737360d81b6064820152608401610805565b6001600160a01b038216611e495760405162461bcd60e51b815260206004820152602360248201527f45524332303a207472616e7366657220746f20746865207a65726f206164647260448201526265737360e81b6064820152608401610805565b611e548383836124c6565b6001600160a01b03831660009081526033602052604090205481811015611ecc5760405162461bcd60e51b815260206004820152602660248201527f45524332303a207472616e7366657220616d6f756e7420657863656564732062604482015265616c616e636560d01b6064820152608401610805565b6001600160a01b0380851660008181526033602052604080822086860390559286168082529083902080548601905591517fddf252ad1be2c89b69c2b068fc378daa952ba7f163c4a11628f55a4df523b3ef90611f2c9086815260200190565b60405180910390a3610cec8484846124d6565b60006108507f8b73c3c69bb8fe3d512ecc4cf759cc79239f7b179b0ffacaa9a75d522b39400f611f6f61012d5490565b61012e546040805160208101859052908101839052606081018290524660808201523060a082015260009060c0016040516020818303038152906040528051906020012090509392505050565b815460009081816005811115612016576000611fd7846124e1565b611fe19085613667565b600088815260209020909150869082015463ffffffff16111561200657809150612014565b61201181600161353d565b92505b505b8082101561206357600061202a83836125c6565b600088815260209020909150869082015463ffffffff16111561204f5780915061205d565b61205a81600161353d565b92505b50612016565b801561209d5761208686612078600184613667565b600091825260209091200190565b5464010000000090046001600160e01b03166120a0565b60005b6001600160e01b03169695505050505050565b610d5282826125e1565b6001600160a01b0382811660008181526101946020818152604080842080546033845282862054949093528787166001600160a01b03198416811790915590519190951694919391928592917f3134e8a2e6d97e929a7e54011ea5485d7d196dd5f0ba4d4ef95803e8e3fc257f9190a4610cec8284836125fa565b60026101f854141561218c5760405162461bcd60e51b815260206004820152601f60248201527f5265656e7472616e637947756172643a207265656e7472616e742063616c6c006044820152606401610805565b60026101f855565b60016101f855565b600063ffffffff8211156122015760405162461bcd60e51b815260206004820152602660248201527f53616665436173743a2076616c756520646f65736e27742066697420696e203360448201526532206269747360d01b6064820152608401610805565b5090565b60fb546001600160a01b03163314610d275760405162461bcd60e51b815260206004820181905260248201527f4f776e61626c653a2063616c6c6572206973206e6f7420746865206f776e65726044820152606401610805565b60fb80546001600160a01b038381166001600160a01b0319831681179093556040519116919082907f8be0079c531659141344cd1fd0a4f28419497f9722a3daafe3b4186f6b6457e090600090a35050565b60006001600160601b038211156122015760405162461bcd60e51b815260206004820152602660248201527f53616665436173743a2076616c756520646f65736e27742066697420696e203960448201526536206269747360d01b6064820152608401610805565b600054610100900460ff166123405760405162461bcd60e51b815260040161080590613bc1565b610d27612739565b600054610100900460ff1661236f5760405162461bcd60e51b815260040161080590613bc1565b610d52828261276c565b600054610100900460ff166123a05760405162461bcd60e51b815260040161080590613bc1565b610d276127ba565b600054610100900460ff166123cf5760405162461bcd60e51b815260040161080590613bc1565b610d276127ea565b60655460ff1615610d275760405162461bcd60e51b815260206004820152601060248201526f14185d5cd8589b194e881c185d5cd95960821b6044820152606401610805565b610d528282612811565b60006107a2612434611f3f565b8360405161190160f01b6020820152602281018390526042810182905260009060620160405160208183030381529060405280519060200120905092915050565b6000806000612486878787876128a1565b9150915061249381612965565b5095945050505050565b6001600160a01b0381166000908152610161602052604090208054600181018255905b50919050565b6124d1838383612ab3565b505050565b6124d1838383612b19565b6000816124f057506000919050565b600060016124fd84612b4c565b901c6001901b90506001818481612516576125166136a6565b048201901c9050600181848161252e5761252e6136a6565b048201901c90506001818481612546576125466136a6565b048201901c9050600181848161255e5761255e6136a6565b048201901c90506001818481612576576125766136a6565b048201901c9050600181848161258e5761258e6136a6565b048201901c905060018184816125a6576125a66136a6565b048201901c90506109a3818285816125c0576125c06136a6565b04612be0565b60006125d560028484186136bc565b6109a39084841661353d565b6125eb8282612bf6565b610cec610196612d3d83612d49565b816001600160a01b0316836001600160a01b03161415801561261c5750600081115b156124d1576001600160a01b038316156126ab576001600160a01b038316600090815261019560205260408120819061265890612d3d85612d49565b91509150846001600160a01b03167fdec2bacdd2f05b59de34da9b523dff8be42e5e38e818c82fdb0bae774387a72483836040516126a0929190918252602082015260400190565b60405180910390a250505b6001600160a01b038216156124d1576001600160a01b03821660009081526101956020526040812081906126e290612e9d85612d49565b91509150836001600160a01b03167fdec2bacdd2f05b59de34da9b523dff8be42e5e38e818c82fdb0bae774387a724838360405161272a929190918252602082015260400190565b60405180910390a25050505050565b600054610100900460ff166127605760405162461bcd60e51b815260040161080590613bc1565b6065805460ff19169055565b600054610100900460ff166127935760405162461bcd60e51b815260040161080590613bc1565b81516127a6906036906020850190612fe7565b5080516124d1906037906020840190612fe7565b600054610100900460ff166127e15760405162461bcd60e51b815260040161080590613bc1565b610d273361225f565b600054610100900460ff166121945760405162461bcd60e51b815260040161080590613bc1565b61281b8282612ea9565b6001600160601b0361282b610845565b11156128925760405162461bcd60e51b815260206004820152603060248201527f4552433230566f7465733a20746f74616c20737570706c79207269736b73206f60448201526f766572666c6f77696e6720766f74657360801b6064820152608401610805565b610cec610196612e9d83612d49565b6000807f7fffffffffffffffffffffffffffffff5d576e7357a4501ddfe92f46681b20a08311156128d8575060009050600361295c565b6040805160008082526020820180845289905260ff881692820192909252606081018690526080810185905260019060a0016020604051602081039080840390855afa15801561292c573d6000803e3d6000fd5b5050604051601f1901519150506001600160a01b0381166129555760006001925092505061295c565b9150600090505b94509492505050565b600081600481111561297957612979613c0c565b14156129825750565b600181600481111561299657612996613c0c565b14156129e45760405162461bcd60e51b815260206004820152601860248201527f45434453413a20696e76616c6964207369676e617475726500000000000000006044820152606401610805565b60028160048111156129f8576129f8613c0c565b1415612a465760405162461bcd60e51b815260206004820152601f60248201527f45434453413a20696e76616c6964207369676e6174757265206c656e677468006044820152606401610805565b6003816004811115612a5a57612a5a613c0c565b14156108425760405162461bcd60e51b815260206004820152602260248201527f45434453413a20696e76616c6964207369676e6174757265202773272076616c604482015261756560f01b6064820152608401610805565b60655460ff16156124d15760405162461bcd60e51b815260206004820152602a60248201527f45524332305061757361626c653a20746f6b656e207472616e736665722077686044820152691a5b19481c185d5cd95960b21b6064820152608401610805565b6001600160a01b03838116600090815261019460205260408082205485841683529120546124d1929182169116836125fa565b600080608083901c15612b6157608092831c92015b604083901c15612b7357604092831c92015b602083901c15612b8557602092831c92015b601083901c15612b9757601092831c92015b600883901c15612ba957600892831c92015b600483901c15612bbb57600492831c92015b600283901c15612bcd57600292831c92015b600183901c156107a25760010192915050565b6000818310612bef57816109a3565b5090919050565b6001600160a01b038216612c565760405162461bcd60e51b815260206004820152602160248201527f45524332303a206275726e2066726f6d20746865207a65726f206164647265736044820152607360f81b6064820152608401610805565b612c62826000836124c6565b6001600160a01b03821660009081526033602052604090205481811015612cd65760405162461bcd60e51b815260206004820152602260248201527f45524332303a206275726e20616d6f756e7420657863656564732062616c616e604482015261636560f01b6064820152608401610805565b6001600160a01b03831660008181526033602090815260408083208686039055603580548790039055518581529192917fddf252ad1be2c89b69c2b068fc378daa952ba7f163c4a11628f55a4df523b3ef910160405180910390a36124d1836000846124d6565b60006109a38284613667565b82546000908190818115612d9657612d6687612078600185613667565b60408051808201909152905463ffffffff8116825264010000000090046001600160e01b03166020820152612dab565b60408051808201909152600080825260208201525b905080602001516001600160e01b03169350612dcb84868863ffffffff16565b9250600082118015612de35750805163ffffffff1643145b15612e2857612df183612f7e565b612e0088612078600186613667565b80546001600160e01b03929092166401000000000263ffffffff909216919091179055612e93565b866040518060400160405280612e3d4361219c565b63ffffffff168152602001612e5186612f7e565b6001600160e01b0390811690915282546001810184556000938452602093849020835194909301519091166401000000000263ffffffff909316929092179101555b5050935093915050565b60006109a3828461353d565b6001600160a01b038216612eff5760405162461bcd60e51b815260206004820152601f60248201527f45524332303a206d696e7420746f20746865207a65726f2061646472657373006044820152606401610805565b612f0b600083836124c6565b8060356000828254612f1d919061353d565b90915550506001600160a01b0382166000818152603360209081526040808320805486019055518481527fddf252ad1be2c89b69c2b068fc378daa952ba7f163c4a11628f55a4df523b3ef910160405180910390a3610d52600083836124d6565b60006001600160e01b038211156122015760405162461bcd60e51b815260206004820152602760248201527f53616665436173743a2076616c756520646f65736e27742066697420696e20326044820152663234206269747360c81b6064820152608401610805565b828054612ff3906134f2565b90600052602060002090601f016020900481019282613015576000855561305b565b82601f1061302e57805160ff191683800117855561305b565b8280016001018555821561305b579182015b8281111561305b578251825591602001919060010190613040565b506122019291505b808211156122015760008155600101613063565b60005b8381101561309257818101518382015260200161307a565b83811115610cec5750506000910152565b60208152600082518060208401526130c2816040850160208701613077565b601f01601f19169190910160400192915050565b6001600160a01b038116811461084257600080fd5b600080604083850312156130fe57600080fd5b8235613109816130d6565b946020939093013593505050565b60006020828403121561312957600080fd5b81356109a3816130d6565b60008060006060848603121561314957600080fd5b8335613154816130d6565b92506020840135613164816130d6565b929592945050506040919091013590565b6000806040838503121561318857600080fd5b8235613193816130d6565b9150602083013580151581146131a857600080fd5b809150509250929050565b6000602082840312156131c557600080fd5b5035919050565b600080600080608085870312156131e257600080fd5b84356131ed816130d6565b9350602085013592506040850135613204816130d6565b9396929550929360600135925050565b6000806040838503121561322757600080fd5b8235613232816130d6565b915060208301356131a8816130d6565b634e487b7160e01b600052604160045260246000fd5b60405160a0810167ffffffffffffffff8111828210171561327b5761327b613242565b60405290565b604051610260810167ffffffffffffffff8111828210171561327b5761327b613242565b604051601f8201601f1916810167ffffffffffffffff811182821017156132ce576132ce613242565b604052919050565b600067ffffffffffffffff8211156132f0576132f0613242565b50601f01601f191660200190565b600082601f83011261330f57600080fd5b813561332261331d826132d6565b6132a5565b81815284602083860101111561333757600080fd5b816020850160208301376000918101602001919091529392505050565b6000806000806080858703121561336a57600080fd5b843567ffffffffffffffff8082111561338257600080fd5b61338e888389016132fe565b955060208701359150808211156133a457600080fd5b506133b1878288016132fe565b93505060408501356133c2816130d6565b915060608501356133d2816130d6565b939692955090935050565b803560ff811681146133ee57600080fd5b919050565b60008060008060008060c0878903121561340c57600080fd5b8635613417816130d6565b95506020870135945060408701359350613433606088016133dd565b92506080870135915060a087013590509295509295509295565b600080600080600080600060e0888a03121561346857600080fd5b8735613473816130d6565b96506020880135613483816130d6565b9550604088013594506060880135935061349f608089016133dd565b925060a0880135915060c0880135905092959891949750929550565b600080604083850312156134ce57600080fd5b82356134d9816130d6565b9150602083013563ffffffff811681146131a857600080fd5b600181811c9082168061350657607f821691505b602082108114156124c057634e487b7160e01b600052602260045260246000fd5b634e487b7160e01b600052601160045260246000fd5b6000821982111561355057613550613527565b500190565b600181815b8085111561359057816000190482111561357657613576613527565b8085161561358357918102915b93841c939080029061355a565b509250929050565b6000826135a7575060016107a2565b816135b4575060006107a2565b81600181146135ca57600281146135d4576135f0565b60019150506107a2565b60ff8411156135e5576135e5613527565b50506001821b6107a2565b5060208310610133831016604e8410600b8410161715613613575081810a6107a2565b61361d8383613555565b806000190482111561363157613631613527565b029392505050565b60006109a360ff841683613598565b600081600019048311821515161561366257613662613527565b500290565b60008282101561367957613679613527565b500390565b80516133ee816130d6565b60006020828403121561369b57600080fd5b81516109a3816130d6565b634e487b7160e01b600052601260045260246000fd5b6000826136d957634e487b7160e01b600052601260045260246000fd5b500490565b805162ffffff811681146133ee57600080fd5b600082601f83011261370257600080fd5b815161371061331d826132d6565b81815284602083860101111561372557600080fd5b613736826020830160208701613077565b949350505050565b600060a0828403121561375057600080fd5b613758613258565b9050815167ffffffffffffffff8082111561377257600080fd5b61377e858386016136f1565b8352602084015191508082111561379457600080fd5b6137a0858386016136f1565b602084015260408401519150808211156137b957600080fd5b6137c5858386016136f1565b604084015260608401519150808211156137de57600080fd5b6137ea858386016136f1565b6060840152608084015191508082111561380357600080fd5b50613810848285016136f1565b60808301525092915050565b600067ffffffffffffffff82111561383657613836613242565b5060051b60200190565b600082601f83011261385157600080fd5b8151602061386161331d8361381c565b82815260059290921b8401810191818101908684111561388057600080fd5b8286015b848110156138c057805167ffffffffffffffff8111156138a45760008081fd5b6138b28986838b01016136f1565b845250918301918301613884565b509695505050505050565b600082601f8301126138dc57600080fd5b815160206138ec61331d8361381c565b82815260059290921b8401810191818101908684111561390b57600080fd5b8286015b848110156138c0578051613922816130d6565b835291830191830161390f565b60006020828403121561394157600080fd5b815167ffffffffffffffff8082111561395957600080fd5b90830190610260828603121561396e57600080fd5b613976613281565b61397f836136de565b815261398d602084016136de565b6020820152604083015160408201526139a86060840161367e565b60608201526080830151828111156139bf57600080fd5b6139cb878286016136f1565b60808301525060a0830151828111156139e357600080fd5b6139ef878286016136f1565b60a083015250613a0160c0840161367e565b60c082015260e083015182811115613a1857600080fd5b613a24878286016136f1565b60e0830152506101008084015183811115613a3e57600080fd5b613a4a888287016136f1565b8284015250506101208084015183811115613a6457600080fd5b613a70888287016136f1565b8284015250506101408084015183811115613a8a57600080fd5b613a968882870161373e565b8284015250506101608084015183811115613ab057600080fd5b613abc88828701613840565b8284015250506101808084015183811115613ad657600080fd5b613ae288828701613840565b8284015250506101a08084015183811115613afc57600080fd5b613b08888287016136f1565b8284015250506101c08084015181830152506101e0613b2881850161367e565b908201526102008381015183811115613b4057600080fd5b613b4c888287016136f1565b8284015250506102208084015183811115613b6657600080fd5b613b72888287016138cb565b91830191909152506102409283015192810192909252509392505050565b600060208284031215613ba257600080fd5b6109a3826136de565b634e487b7160e01b600052603260045260246000fd5b6020808252602b908201527f496e697469616c697a61626c653a20636f6e7472616374206973206e6f74206960408201526a6e697469616c697a696e6760a81b606082015260800190565b634e487b7160e01b600052602160045260246000fdfea264697066735822122026ac0dbb1fe5852c2adb020ad5d2fc0a5b7374fc5337b53717448cfb7f9d0f0064736f6c634300080c0033",
  "linkReferences": {},
  "deployedLinkReferences": {}
}