{
  "_format": "hh-sol-artifact-1",
  "contractName": "GENToken",
  "sourceName": "contracts/erc20/GENToken.sol",
  "abi": [
    {
      "anonymous": false,
      "inputs": [
        {
          "indexed": true,
          "internalType": "address",
          "name": "owner",
          "type": "address"
        },
        {
          "indexed": true,
          "internalType": "address",
          "name": "spender",
          "type": "address"
        },
        {
          "indexed": false,
          "internalType": "uint256",
          "name": "value",
          "type": "uint256"
        }
      ],
      "name": "Approval",
      "type": "event"
    },
    {
      "anonymous": false,
      "inputs": [
        {
          "indexed": false,
          "internalType": "address",
          "name": "to",
          "type": "address"
        },
        {
          "indexed": false,
          "internalType": "uint256",
          "name": "amount",
          "type": "uint256"
        }
      ],
      "name": "ClaimToken",
      "type": "event"
    },
    {
      "anonymous": false,
      "inputs": [
        {
          "indexed": true,
          "internalType": "address",
          "name": "delegator",
          "type": "address"
        },
        {
          "indexed": true,
          "internalType": "address",
          "name": "fromDelegate",
          "type": "address"
        },
        {
          "indexed": true,
          "internalType": "address",
          "name": "toDelegate",
          "type": "address"
        }
      ],
      "name": "DelegateChanged",
      "type": "event"
    },
    {
      "anonymous": false,
      "inputs": [
        {
          "indexed": true,
          "internalType": "address",
          "name": "delegate",
          "type": "address"
        },
        {
          "indexed": false,
          "internalType": "uint256",
          "name": "previousBalance",
          "type": "uint256"
        },
        {
          "indexed": false,
          "internalType": "uint256",
          "name": "newBalance",
          "type": "uint256"
        }
      ],
      "name": "DelegateVotesChanged",
      "type": "event"
    },
    {
      "anonymous": false,
      "inputs": [
        {
          "indexed": false,
          "internalType": "uint8",
          "name": "version",
          "type": "uint8"
        }
      ],
      "name": "Initialized",
      "type": "event"
    },
    {
      "anonymous": false,
      "inputs": [
        {
          "indexed": true,
          "internalType": "address",
          "name": "previousOwner",
          "type": "address"
        },
        {
          "indexed": true,
          "internalType": "address",
          "name": "newOwner",
          "type": "address"
        }
      ],
      "name": "OwnershipTransferred",
      "type": "event"
    },
    {
      "anonymous": false,
      "inputs": [
        {
          "indexed": false,
          "internalType": "address",
          "name": "account",
          "type": "address"
        }
      ],
      "name": "Paused",
      "type": "event"
    },
    {
      "anonymous": false,
      "inputs": [
        {
          "indexed": true,
          "internalType": "address",
          "name": "from",
          "type": "address"
        },
        {
          "indexed": true,
          "internalType": "address",
          "name": "to",
          "type": "address"
        },
        {
          "indexed": false,
          "internalType": "uint256",
          "name": "value",
          "type": "uint256"
        }
      ],
      "name": "Transfer",
      "type": "event"
    },
    {
      "anonymous": false,
      "inputs": [
        {
          "indexed": false,
          "internalType": "address",
          "name": "account",
          "type": "address"
        }
      ],
      "name": "Unpaused",
      "type": "event"
    },
    {
      "inputs": [],
      "name": "DOMAIN_SEPARATOR",
      "outputs": [
        {
          "internalType": "bytes32",
          "name": "",
          "type": "bytes32"
        }
      ],
      "stateMutability": "view",
      "type": "function"
    },
    {
      "inputs": [],
      "name": "_admin",
      "outputs": [
        {
          "internalType": "address",
          "name": "",
          "type": "address"
        }
      ],
      "stateMutability": "view",
      "type": "function"
    },
    {
      "inputs": [],
      "name": "_generativeProjectAddr",
      "outputs": [
        {
          "internalType": "address",
          "name": "",
          "type": "address"
        }
      ],
      "stateMutability": "view",
      "type": "function"
    },
    {
      "inputs": [],
      "name": "_paramAddr",
      "outputs": [
        {
          "internalType": "address",
          "name": "",
          "type": "address"
        }
      ],
      "stateMutability": "view",
      "type": "function"
    },
    {
      "inputs": [
        {
          "internalType": "address",
          "name": "owner",
          "type": "address"
        },
        {
          "internalType": "address",
          "name": "spender",
          "type": "address"
        }
      ],
      "name": "allowance",
      "outputs": [
        {
          "internalType": "uint256",
          "name": "",
          "type": "uint256"
        }
      ],
      "stateMutability": "view",
      "type": "function"
    },
    {
      "inputs": [
        {
          "internalType": "address",
          "name": "spender",
          "type": "address"
        },
        {
          "internalType": "uint256",
          "name": "amount",
          "type": "uint256"
        }
      ],
      "name": "approve",
      "outputs": [
        {
          "internalType": "bool",
          "name": "",
          "type": "bool"
        }
      ],
      "stateMutability": "nonpayable",
      "type": "function"
    },
    {
      "inputs": [
        {
          "internalType": "address",
          "name": "account",
          "type": "address"
        }
      ],
      "name": "balanceOf",
      "outputs": [
        {
          "internalType": "uint256",
          "name": "",
          "type": "uint256"
        }
      ],
      "stateMutability": "view",
      "type": "function"
    },
    {
      "inputs": [
        {
          "internalType": "uint256",
          "name": "amount",
          "type": "uint256"
        }
      ],
      "name": "burn",
      "outputs": [],
      "stateMutability": "nonpayable",
      "type": "function"
    },
    {
      "inputs": [
        {
          "internalType": "address",
          "name": "account",
          "type": "address"
        },
        {
          "internalType": "uint256",
          "name": "amount",
          "type": "uint256"
        }
      ],
      "name": "burnFrom",
      "outputs": [],
      "stateMutability": "nonpayable",
      "type": "function"
    },
    {
      "inputs": [
        {
          "internalType": "address",
          "name": "newAdm",
          "type": "address"
        }
      ],
      "name": "changeAdmin",
      "outputs": [],
      "stateMutability": "nonpayable",
      "type": "function"
    },
    {
      "inputs": [
        {
          "internalType": "address",
          "name": "newAddr",
          "type": "address"
        }
      ],
      "name": "changeParamAddress",
      "outputs": [],
      "stateMutability": "nonpayable",
      "type": "function"
    },
    {
      "inputs": [
        {
          "internalType": "address",
          "name": "newAddr",
          "type": "address"
        }
      ],
      "name": "changeProjectAddress",
      "outputs": [],
      "stateMutability": "nonpayable",
      "type": "function"
    },
    {
      "inputs": [
        {
          "internalType": "address",
          "name": "account",
          "type": "address"
        },
        {
          "internalType": "uint32",
          "name": "pos",
          "type": "uint32"
        }
      ],
      "name": "checkpoints",
      "outputs": [
        {
          "components": [
            {
              "internalType": "uint32",
              "name": "fromBlock",
              "type": "uint32"
            },
            {
              "internalType": "uint224",
              "name": "votes",
              "type": "uint224"
            }
          ],
          "internalType": "struct ERC20VotesUpgradeable.Checkpoint",
          "name": "",
          "type": "tuple"
        }
      ],
      "stateMutability": "view",
      "type": "function"
    },
    {
      "inputs": [
        {
          "internalType": "uint256",
          "name": "projectId",
          "type": "uint256"
        }
      ],
      "name": "claim",
      "outputs": [],
      "stateMutability": "nonpayable",
      "type": "function"
    },
    {
      "inputs": [],
      "name": "decimals",
      "outputs": [
        {
          "internalType": "uint8",
          "name": "",
          "type": "uint8"
        }
      ],
      "stateMutability": "pure",
      "type": "function"
    },
    {
      "inputs": [
        {
          "internalType": "address",
          "name": "spender",
          "type": "address"
        },
        {
          "internalType": "uint256",
          "name": "subtractedValue",
          "type": "uint256"
        }
      ],
      "name": "decreaseAllowance",
      "outputs": [
        {
          "internalType": "bool",
          "name": "",
          "type": "bool"
        }
      ],
      "stateMutability": "nonpayable",
      "type": "function"
    },
    {
      "inputs": [
        {
          "internalType": "address",
          "name": "delegatee",
          "type": "address"
        }
      ],
      "name": "delegate",
      "outputs": [],
      "stateMutability": "nonpayable",
      "type": "function"
    },
    {
      "inputs": [
        {
          "internalType": "address",
          "name": "delegatee",
          "type": "address"
        },
        {
          "internalType": "uint256",
          "name": "nonce",
          "type": "uint256"
        },
        {
          "internalType": "uint256",
          "name": "expiry",
          "type": "uint256"
        },
        {
          "internalType": "uint8",
          "name": "v",
          "type": "uint8"
        },
        {
          "internalType": "bytes32",
          "name": "r",
          "type": "bytes32"
        },
        {
          "internalType": "bytes32",
          "name": "s",
          "type": "bytes32"
        }
      ],
      "name": "delegateBySig",
      "outputs": [],
      "stateMutability": "nonpayable",
      "type": "function"
    },
    {
      "inputs": [
        {
          "internalType": "address",
          "name": "account",
          "type": "address"
        }
      ],
      "name": "delegates",
      "outputs": [
        {
          "internalType": "address",
          "name": "",
          "type": "address"
        }
      ],
      "stateMutability": "view",
      "type": "function"
    },
    {
      "inputs": [
        {
          "internalType": "address",
          "name": "account",
          "type": "address"
        }
      ],
      "name": "getCurrentVotes",
      "outputs": [
        {
          "internalType": "uint96",
          "name": "",
          "type": "uint96"
        }
      ],
      "stateMutability": "view",
      "type": "function"
    },
    {
      "inputs": [
        {
          "internalType": "uint256",
          "name": "blockNumber",
          "type": "uint256"
        }
      ],
      "name": "getPastTotalSupply",
      "outputs": [
        {
          "internalType": "uint256",
          "name": "",
          "type": "uint256"
        }
      ],
      "stateMutability": "view",
      "type": "function"
    },
    {
      "inputs": [
        {
          "internalType": "address",
          "name": "account",
          "type": "address"
        },
        {
          "internalType": "uint256",
          "name": "blockNumber",
          "type": "uint256"
        }
      ],
      "name": "getPastVotes",
      "outputs": [
        {
          "internalType": "uint256",
          "name": "",
          "type": "uint256"
        }
      ],
      "stateMutability": "view",
      "type": "function"
    },
    {
      "inputs": [
        {
          "internalType": "address",
          "name": "account",
          "type": "address"
        },
        {
          "internalType": "uint256",
          "name": "blockNumber",
          "type": "uint256"
        }
      ],
      "name": "getPriorVotes",
      "outputs": [
        {
          "internalType": "uint96",
          "name": "",
          "type": "uint96"
        }
      ],
      "stateMutability": "view",
      "type": "function"
    },
    {
      "inputs": [
        {
          "internalType": "address",
          "name": "account",
          "type": "address"
        }
      ],
      "name": "getVotes",
      "outputs": [
        {
          "internalType": "uint256",
          "name": "",
          "type": "uint256"
        }
      ],
      "stateMutability": "view",
      "type": "function"
    },
    {
      "inputs": [
        {
          "internalType": "address",
          "name": "spender",
          "type": "address"
        },
        {
          "internalType": "uint256",
          "name": "addedValue",
          "type": "uint256"
        }
      ],
      "name": "increaseAllowance",
      "outputs": [
        {
          "internalType": "bool",
          "name": "",
          "type": "bool"
        }
      ],
      "stateMutability": "nonpayable",
      "type": "function"
    },
    {
      "inputs": [
        {
          "internalType": "string",
          "name": "name",
          "type": "string"
        },
        {
          "internalType": "string",
          "name": "symbol",
          "type": "string"
        },
        {
          "internalType": "address",
          "name": "admin",
          "type": "address"
        },
        {
          "internalType": "address",
          "name": "paramAddr",
          "type": "address"
        },
        {
          "internalType": "address",
          "name": "generativeProjectAddr",
          "type": "address"
        },
        {
          "internalType": "uint256",
          "name": "initSupply",
          "type": "uint256"
        }
      ],
      "name": "initialize",
      "outputs": [],
      "stateMutability": "nonpayable",
      "type": "function"
    },
    {
      "inputs": [],
      "name": "name",
      "outputs": [
        {
          "internalType": "string",
          "name": "",
          "type": "string"
        }
      ],
      "stateMutability": "view",
      "type": "function"
    },
    {
      "inputs": [
        {
          "internalType": "address",
          "name": "owner",
          "type": "address"
        }
      ],
      "name": "nonces",
      "outputs": [
        {
          "internalType": "uint256",
          "name": "",
          "type": "uint256"
        }
      ],
      "stateMutability": "view",
      "type": "function"
    },
    {
      "inputs": [
        {
          "internalType": "address",
          "name": "account",
          "type": "address"
        }
      ],
      "name": "numCheckpoints",
      "outputs": [
        {
          "internalType": "uint32",
          "name": "",
          "type": "uint32"
        }
      ],
      "stateMutability": "view",
      "type": "function"
    },
    {
      "inputs": [],
      "name": "owner",
      "outputs": [
        {
          "internalType": "address",
          "name": "",
          "type": "address"
        }
      ],
      "stateMutability": "view",
      "type": "function"
    },
    {
      "inputs": [],
      "name": "paused",
      "outputs": [
        {
          "internalType": "bool",
          "name": "",
          "type": "bool"
        }
      ],
      "stateMutability": "view",
      "type": "function"
    },
    {
      "inputs": [
        {
          "internalType": "address",
          "name": "owner",
          "type": "address"
        },
        {
          "internalType": "address",
          "name": "spender",
          "type": "address"
        },
        {
          "internalType": "uint256",
          "name": "value",
          "type": "uint256"
        },
        {
          "internalType": "uint256",
          "name": "deadline",
          "type": "uint256"
        },
        {
          "internalType": "uint8",
          "name": "v",
          "type": "uint8"
        },
        {
          "internalType": "bytes32",
          "name": "r",
          "type": "bytes32"
        },
        {
          "internalType": "bytes32",
          "name": "s",
          "type": "bytes32"
        }
      ],
      "name": "permit",
      "outputs": [],
      "stateMutability": "nonpayable",
      "type": "function"
    },
    {
      "inputs": [],
      "name": "renounceOwnership",
      "outputs": [],
      "stateMutability": "nonpayable",
      "type": "function"
    },
    {
      "inputs": [],
      "name": "symbol",
      "outputs": [
        {
          "internalType": "string",
          "name": "",
          "type": "string"
        }
      ],
      "stateMutability": "view",
      "type": "function"
    },
    {
      "inputs": [],
      "name": "totalSupply",
      "outputs": [
        {
          "internalType": "uint256",
          "name": "",
          "type": "uint256"
        }
      ],
      "stateMutability": "view",
      "type": "function"
    },
    {
      "inputs": [
        {
          "internalType": "address",
          "name": "to",
          "type": "address"
        },
        {
          "internalType": "uint256",
          "name": "amount",
          "type": "uint256"
        }
      ],
      "name": "transfer",
      "outputs": [
        {
          "internalType": "bool",
          "name": "",
          "type": "bool"
        }
      ],
      "stateMutability": "nonpayable",
      "type": "function"
    },
    {
      "inputs": [
        {
          "internalType": "address",
          "name": "from",
          "type": "address"
        },
        {
          "internalType": "address",
          "name": "to",
          "type": "address"
        },
        {
          "internalType": "uint256",
          "name": "amount",
          "type": "uint256"
        }
      ],
      "name": "transferFrom",
      "outputs": [
        {
          "internalType": "bool",
          "name": "",
          "type": "bool"
        }
      ],
      "stateMutability": "nonpayable",
      "type": "function"
    },
    {
      "inputs": [
        {
          "internalType": "address",
          "name": "newOwner",
          "type": "address"
        }
      ],
      "name": "transferOwnership",
      "outputs": [],
      "stateMutability": "nonpayable",
      "type": "function"
    }
  ],
  "bytecode": "0x608060405234801561001057600080fd5b50612fc3806100206000396000f3fe608060405234801561001057600080fd5b50600436106102325760003560e01c8063782d6fe111610130578063a9059cbb116100b8578063e80828581161007c578063e80828581461050a578063edf3e29e1461051d578063f1127ed814610530578063f2fde38b1461056d578063f4a290f71461058057600080fd5b8063a9059cbb146104ab578063b4b5ea57146104be578063c3cda520146104d1578063d505accf146104e4578063dd62ed3e146104f757600080fd5b80638e539e8c116100ff5780638e539e8c146104575780638f2839701461046a57806395d89b411461047d5780639ab24eb014610485578063a457c2d71461049857600080fd5b8063782d6fe1146103f557806379cc6790146104205780637ecebe00146104335780638da5cb5b1461044657600080fd5b806339509351116101be5780635c19a95c116101825780635c19a95c1461037e5780635c975abb146103915780636fcfff451461039c57806370a08231146103c4578063715018a6146103ed57600080fd5b806339509351146103045780633a46b1a81461031757806342966c681461032a578063567fdcf31461033d578063587cde1e1461035157600080fd5b806318160ddd1161020557806318160ddd146102b557806323b872dd146102c7578063313ce567146102da5780633644e515146102e9578063379607f5146102f157600080fd5b806301bc45c91461023757806306fdde0314610268578063095ea7b31461027d57806316a5041f146102a0575b600080fd5b6101f85461024b906001600160a01b031681565b6040516001600160a01b0390911681526020015b60405180910390f35b610270610594565b60405161025f91906125b6565b61029061028b3660046125fe565b610626565b604051901515815260200161025f565b6102b36102ae36600461262a565b61063e565b005b6035545b60405190815260200161025f565b6102906102d5366004612647565b6106db565b6040516004815260200161025f565b6102b96106ff565b6102b36102ff366004612688565b61070e565b6102906103123660046125fe565b610824565b6102b96103253660046125fe565b610846565b6102b3610338366004612688565b6108c1565b6101fa5461024b906001600160a01b031681565b61024b61035f36600461262a565b6001600160a01b03908116600090815261019460205260409020541690565b6102b361038c36600461262a565b6108cb565b60655460ff16610290565b6103af6103aa36600461262a565b6108d5565b60405163ffffffff909116815260200161025f565b6102b96103d236600461262a565b6001600160a01b031660009081526033602052604090205490565b6102b36108fe565b6104086104033660046125fe565b610912565b6040516001600160601b03909116815260200161025f565b6102b361042e3660046125fe565b610926565b6102b961044136600461262a565b61093f565b60fb546001600160a01b031661024b565b6102b9610465366004612688565b61095e565b6102b361047836600461262a565b6109bb565b610270610a50565b6102b961049336600461262a565b610a5f565b6102906104a63660046125fe565b610ae8565b6102906104b93660046125fe565b610b63565b6104086104cc36600461262a565b610b71565b6102b36104df3660046126b7565b610b7f565b6102b36104f2366004612711565b610cb5565b6102b961050536600461277f565b610e19565b6102b361051836600461262a565b610e44565b6102b361052b3660046128ca565b610ed9565b61054361053e366004612970565b6110bc565b60408051825163ffffffff1681526020928301516001600160e01b0316928101929092520161025f565b6102b361057b36600461262a565b611141565b6101f95461024b906001600160a01b031681565b6060603680546105a3906129a7565b80601f01602080910402602001604051908101604052809291908181526020018280546105cf906129a7565b801561061c5780601f106105f15761010080835404028352916020019161061c565b820191906000526020600020905b8154815290600101906020018083116105ff57829003601f168201915b5050505050905090565b6000336106348185856111b7565b5060019392505050565b6101f8546001600160a01b03163314801561066157506001600160a01b03811615155b6040518060400160405280600381526020016231303160e81b815250906106a45760405162461bcd60e51b815260040161069b91906125b6565b60405180910390fd5b506101f9546001600160a01b038281169116146106d8576101f880546001600160a01b0319166001600160a01b0383161790555b50565b6000336106e98582856112db565b6106f4858585611355565b506001949350505050565b6000610709611511565b905090565b61071661158e565b6101fa546040516346ec8d2b60e11b8152600481018390526001600160a01b03909116906000908290638dd91a5690602401600060405180830381865afa158015610765573d6000803e3d6000fd5b505050506040513d6000823e601f3d908101601f1916820160405261078d9190810190612c38565b60c081015160408051808201909152600381526203130360ec1b60208201529192506001600160a01b031633146107d75760405162461bcd60e51b815260040161069b91906125b6565b506127106107e533826115d4565b60408051338152602081018390527f5d425a3a6a3d5a60fbf147dc6659ce3dfeb701fc44fe90058c32783b8807c574910160405180910390a150505050565b6000336106348185856108378383610e19565b6108419190612eaf565b6111b7565b60004382106108975760405162461bcd60e51b815260206004820152601f60248201527f4552433230566f7465733a20626c6f636b206e6f7420796574206d696e656400604482015260640161069b565b6001600160a01b0383166000908152610195602052604090206108ba90836115de565b9392505050565b6106d833826116d5565b6106d833826116df565b6001600160a01b038116600090815261019560205260408120546108f89061175a565b92915050565b6109066117c3565b610910600061181d565b565b60006108ba6109218484610846565b61186f565b6109318233836112db565b61093b82826116d5565b5050565b6001600160a01b038116600090815261016160205260408120546108f8565b60004382106109af5760405162461bcd60e51b815260206004820152601f60248201527f4552433230566f7465733a20626c6f636b206e6f7420796574206d696e656400604482015260640161069b565b6108f8610196836115de565b6101f8546001600160a01b0316331480156109de57506001600160a01b03811615155b6040518060400160405280600381526020016231303160e81b81525090610a185760405162461bcd60e51b815260040161069b91906125b6565b506101f8546001600160a01b038281169116146106d8576101f880546001600160a01b0383166001600160a01b031990911617905550565b6060603780546105a3906129a7565b6001600160a01b038116600090815261019560205260408120548015610ad5576001600160a01b038316600090815261019560205260409020610aa3600183612ec7565b81548110610ab357610ab3612ede565b60009182526020909120015464010000000090046001600160e01b0316610ad8565b60005b6001600160e01b03169392505050565b60003381610af68286610e19565b905083811015610b565760405162461bcd60e51b815260206004820152602560248201527f45524332303a2064656372656173656420616c6c6f77616e63652062656c6f77604482015264207a65726f60d81b606482015260840161069b565b6106f482868684036111b7565b600033610634818585611355565b60006108f861092183610a5f565b83421115610bcf5760405162461bcd60e51b815260206004820152601d60248201527f4552433230566f7465733a207369676e61747572652065787069726564000000604482015260640161069b565b604080517fe48329057bfd03d55e49b547132e39cffd9c1820ad7b9d4c5307691425d15adf60208201526001600160a01b038816918101919091526060810186905260808101859052600090610c4990610c419060a001604051602081830303815290604052805190602001206118d7565b858585611925565b9050610c548161194d565b8614610ca25760405162461bcd60e51b815260206004820152601960248201527f4552433230566f7465733a20696e76616c6964206e6f6e636500000000000000604482015260640161069b565b610cac81886116df565b50505050505050565b83421115610d055760405162461bcd60e51b815260206004820152601d60248201527f45524332305065726d69743a206578706972656420646561646c696e65000000604482015260640161069b565b60007f6e71edae12b1b97f4d1f60370fef10105fa2faae0126114a169c64845d6126c9888888610d348c61194d565b6040805160208101969096526001600160a01b0394851690860152929091166060840152608083015260a082015260c0810186905260e0016040516020818303038152906040528051906020012090506000610d8f826118d7565b90506000610d9f82878787611925565b9050896001600160a01b0316816001600160a01b031614610e025760405162461bcd60e51b815260206004820152601e60248201527f45524332305065726d69743a20696e76616c6964207369676e61747572650000604482015260640161069b565b610e0d8a8a8a6111b7565b50505050505050505050565b6001600160a01b03918216600090815260346020908152604080832093909416825291909152205490565b6101f8546001600160a01b031633148015610e6757506001600160a01b03811615155b6040518060400160405280600381526020016231303160e81b81525090610ea15760405162461bcd60e51b815260040161069b91906125b6565b506101fa546001600160a01b038281169116146106d8576101fa80546001600160a01b0383166001600160a01b031990911617905550565b600054610100900460ff1615808015610ef95750600054600160ff909116105b80610f135750303b158015610f13575060005460ff166001145b610f765760405162461bcd60e51b815260206004820152602e60248201527f496e697469616c697a61626c653a20636f6e747261637420697320616c72656160448201526d191e481a5b9a5d1a585b1a5e995960921b606482015260840161069b565b6000805460ff191660011790558015610f99576000805461ff0019166101001790555b6001600160a01b03851615801590610fb957506001600160a01b03831615155b8015610fcd57506001600160a01b03841615155b6040518060400160405280600381526020016203130360ec1b815250906110075760405162461bcd60e51b815260040161069b91906125b6565b506101f880546001600160a01b038088166001600160a01b0319928316179092556101fa80548684169083161790556101f98054928716929091169190911790558161105386826115d4565b61105b611976565b61106588886119a5565b61106d6119d6565b508015610cac576000805461ff0019169055604051600181527f7f26b83ff96e1f2b6a682f133852f6798a09c465da95921460cefb38474024989060200160405180910390a150505050505050565b60408051808201909152600080825260208201526001600160a01b038316600090815261019560205260409020805463ffffffff841690811061110157611101612ede565b60009182526020918290206040805180820190915291015463ffffffff8116825264010000000090046001600160e01b0316918101919091529392505050565b6111496117c3565b6001600160a01b0381166111ae5760405162461bcd60e51b815260206004820152602660248201527f4f776e61626c653a206e6577206f776e657220697320746865207a65726f206160448201526564647265737360d01b606482015260840161069b565b6106d88161181d565b6001600160a01b0383166112195760405162461bcd60e51b8152602060048201526024808201527f45524332303a20617070726f76652066726f6d20746865207a65726f206164646044820152637265737360e01b606482015260840161069b565b6001600160a01b03821661127a5760405162461bcd60e51b815260206004820152602260248201527f45524332303a20617070726f766520746f20746865207a65726f206164647265604482015261737360f01b606482015260840161069b565b6001600160a01b0383811660008181526034602090815260408083209487168084529482529182902085905590518481527f8c5be1e5ebec7d5bd14f71427d1e84f3dd0314c0f7b2291e5b200ac8c7c3b925910160405180910390a3505050565b60006112e78484610e19565b9050600019811461134f57818110156113425760405162461bcd60e51b815260206004820152601d60248201527f45524332303a20696e73756666696369656e7420616c6c6f77616e6365000000604482015260640161069b565b61134f84848484036111b7565b50505050565b6001600160a01b0383166113b95760405162461bcd60e51b815260206004820152602560248201527f45524332303a207472616e736665722066726f6d20746865207a65726f206164604482015264647265737360d81b606482015260840161069b565b6001600160a01b03821661141b5760405162461bcd60e51b815260206004820152602360248201527f45524332303a207472616e7366657220746f20746865207a65726f206164647260448201526265737360e81b606482015260840161069b565b611426838383611a05565b6001600160a01b0383166000908152603360205260409020548181101561149e5760405162461bcd60e51b815260206004820152602660248201527f45524332303a207472616e7366657220616d6f756e7420657863656564732062604482015265616c616e636560d01b606482015260840161069b565b6001600160a01b0380851660008181526033602052604080822086860390559286168082529083902080548601905591517fddf252ad1be2c89b69c2b068fc378daa952ba7f163c4a11628f55a4df523b3ef906114fe9086815260200190565b60405180910390a361134f848484611a15565b60006107097f8b73c3c69bb8fe3d512ecc4cf759cc79239f7b179b0ffacaa9a75d522b39400f61154161012d5490565b61012e546040805160208101859052908101839052606081018290524660808201523060a082015260009060c0016040516020818303038152906040528051906020012090509392505050565b60655460ff16156109105760405162461bcd60e51b815260206004820152601060248201526f14185d5cd8589b194e881c185d5cd95960821b604482015260640161069b565b61093b8282611a20565b8154600090818160058111156116385760006115f984611aab565b6116039085612ec7565b600088815260209020909150869082015463ffffffff16111561162857809150611636565b611633816001612eaf565b92505b505b8082101561168557600061164c8383611b90565b600088815260209020909150869082015463ffffffff1611156116715780915061167f565b61167c816001612eaf565b92505b50611638565b80156116bf576116a88661169a600184612ec7565b600091825260209091200190565b5464010000000090046001600160e01b03166116c2565b60005b6001600160e01b03169695505050505050565b61093b8282611bab565b6001600160a01b0382811660008181526101946020818152604080842080546033845282862054949093528787166001600160a01b03198416811790915590519190951694919391928592917f3134e8a2e6d97e929a7e54011ea5485d7d196dd5f0ba4d4ef95803e8e3fc257f9190a461134f828483611bc4565b600063ffffffff8211156117bf5760405162461bcd60e51b815260206004820152602660248201527f53616665436173743a2076616c756520646f65736e27742066697420696e203360448201526532206269747360d01b606482015260840161069b565b5090565b60fb546001600160a01b031633146109105760405162461bcd60e51b815260206004820181905260248201527f4f776e61626c653a2063616c6c6572206973206e6f7420746865206f776e6572604482015260640161069b565b60fb80546001600160a01b038381166001600160a01b0319831681179093556040519116919082907f8be0079c531659141344cd1fd0a4f28419497f9722a3daafe3b4186f6b6457e090600090a35050565b60006001600160601b038211156117bf5760405162461bcd60e51b815260206004820152602660248201527f53616665436173743a2076616c756520646f65736e27742066697420696e203960448201526536206269747360d01b606482015260840161069b565b60006108f86118e4611511565b8360405161190160f01b6020820152602281018390526042810182905260009060620160405160208183030381529060405280519060200120905092915050565b600080600061193687878787611d03565b9150915061194381611dc7565b5095945050505050565b6001600160a01b0381166000908152610161602052604090208054600181018255905b50919050565b600054610100900460ff1661199d5760405162461bcd60e51b815260040161069b90612ef4565b610910611f15565b600054610100900460ff166119cc5760405162461bcd60e51b815260040161069b90612ef4565b61093b8282611f48565b600054610100900460ff166119fd5760405162461bcd60e51b815260040161069b90612ef4565b610910611f96565b611a10838383611fc6565b505050565b611a1083838361202c565b611a2a828261205f565b6035546001600160601b031015611a9c5760405162461bcd60e51b815260206004820152603060248201527f4552433230566f7465733a20746f74616c20737570706c79207269736b73206f60448201526f766572666c6f77696e6720766f74657360801b606482015260840161069b565b61134f61019661213483612140565b600081611aba57506000919050565b60006001611ac784612294565b901c6001901b90506001818481611ae057611ae0612f3f565b048201901c90506001818481611af857611af8612f3f565b048201901c90506001818481611b1057611b10612f3f565b048201901c90506001818481611b2857611b28612f3f565b048201901c90506001818481611b4057611b40612f3f565b048201901c90506001818481611b5857611b58612f3f565b048201901c90506001818481611b7057611b70612f3f565b048201901c90506108ba81828581611b8a57611b8a612f3f565b04612328565b6000611b9f6002848418612f55565b6108ba90848416612eaf565b611bb5828261233e565b61134f61019661248583612140565b816001600160a01b0316836001600160a01b031614158015611be65750600081115b15611a10576001600160a01b03831615611c75576001600160a01b0383166000908152610195602052604081208190611c229061248585612140565b91509150846001600160a01b03167fdec2bacdd2f05b59de34da9b523dff8be42e5e38e818c82fdb0bae774387a7248383604051611c6a929190918252602082015260400190565b60405180910390a250505b6001600160a01b03821615611a10576001600160a01b0382166000908152610195602052604081208190611cac9061213485612140565b91509150836001600160a01b03167fdec2bacdd2f05b59de34da9b523dff8be42e5e38e818c82fdb0bae774387a7248383604051611cf4929190918252602082015260400190565b60405180910390a25050505050565b6000807f7fffffffffffffffffffffffffffffff5d576e7357a4501ddfe92f46681b20a0831115611d3a5750600090506003611dbe565b6040805160008082526020820180845289905260ff881692820192909252606081018690526080810185905260019060a0016020604051602081039080840390855afa158015611d8e573d6000803e3d6000fd5b5050604051601f1901519150506001600160a01b038116611db757600060019250925050611dbe565b9150600090505b94509492505050565b6000816004811115611ddb57611ddb612f77565b1415611de45750565b6001816004811115611df857611df8612f77565b1415611e465760405162461bcd60e51b815260206004820152601860248201527f45434453413a20696e76616c6964207369676e61747572650000000000000000604482015260640161069b565b6002816004811115611e5a57611e5a612f77565b1415611ea85760405162461bcd60e51b815260206004820152601f60248201527f45434453413a20696e76616c6964207369676e6174757265206c656e67746800604482015260640161069b565b6003816004811115611ebc57611ebc612f77565b14156106d85760405162461bcd60e51b815260206004820152602260248201527f45434453413a20696e76616c6964207369676e6174757265202773272076616c604482015261756560f01b606482015260840161069b565b600054610100900460ff16611f3c5760405162461bcd60e51b815260040161069b90612ef4565b6065805460ff19169055565b600054610100900460ff16611f6f5760405162461bcd60e51b815260040161069b90612ef4565b8151611f829060369060208501906124fa565b508051611a109060379060208401906124fa565b600054610100900460ff16611fbd5760405162461bcd60e51b815260040161069b90612ef4565b6109103361181d565b60655460ff1615611a105760405162461bcd60e51b815260206004820152602a60248201527f45524332305061757361626c653a20746f6b656e207472616e736665722077686044820152691a5b19481c185d5cd95960b21b606482015260840161069b565b6001600160a01b0383811660009081526101946020526040808220548584168352912054611a1092918216911683611bc4565b6001600160a01b0382166120b55760405162461bcd60e51b815260206004820152601f60248201527f45524332303a206d696e7420746f20746865207a65726f206164647265737300604482015260640161069b565b6120c160008383611a05565b80603560008282546120d39190612eaf565b90915550506001600160a01b0382166000818152603360209081526040808320805486019055518481527fddf252ad1be2c89b69c2b068fc378daa952ba7f163c4a11628f55a4df523b3ef910160405180910390a361093b60008383611a15565b60006108ba8284612eaf565b8254600090819081811561218d5761215d8761169a600185612ec7565b60408051808201909152905463ffffffff8116825264010000000090046001600160e01b031660208201526121a2565b60408051808201909152600080825260208201525b905080602001516001600160e01b031693506121c284868863ffffffff16565b92506000821180156121da5750805163ffffffff1643145b1561221f576121e883612491565b6121f78861169a600186612ec7565b80546001600160e01b03929092166401000000000263ffffffff90921691909117905561228a565b8660405180604001604052806122344361175a565b63ffffffff16815260200161224886612491565b6001600160e01b0390811690915282546001810184556000938452602093849020835194909301519091166401000000000263ffffffff909316929092179101555b5050935093915050565b600080608083901c156122a957608092831c92015b604083901c156122bb57604092831c92015b602083901c156122cd57602092831c92015b601083901c156122df57601092831c92015b600883901c156122f157600892831c92015b600483901c1561230357600492831c92015b600283901c1561231557600292831c92015b600183901c156108f85760010192915050565b600081831061233757816108ba565b5090919050565b6001600160a01b03821661239e5760405162461bcd60e51b815260206004820152602160248201527f45524332303a206275726e2066726f6d20746865207a65726f206164647265736044820152607360f81b606482015260840161069b565b6123aa82600083611a05565b6001600160a01b0382166000908152603360205260409020548181101561241e5760405162461bcd60e51b815260206004820152602260248201527f45524332303a206275726e20616d6f756e7420657863656564732062616c616e604482015261636560f01b606482015260840161069b565b6001600160a01b03831660008181526033602090815260408083208686039055603580548790039055518581529192917fddf252ad1be2c89b69c2b068fc378daa952ba7f163c4a11628f55a4df523b3ef910160405180910390a3611a1083600084611a15565b60006108ba8284612ec7565b60006001600160e01b038211156117bf5760405162461bcd60e51b815260206004820152602760248201527f53616665436173743a2076616c756520646f65736e27742066697420696e20326044820152663234206269747360c81b606482015260840161069b565b828054612506906129a7565b90600052602060002090601f016020900481019282612528576000855561256e565b82601f1061254157805160ff191683800117855561256e565b8280016001018555821561256e579182015b8281111561256e578251825591602001919060010190612553565b506117bf9291505b808211156117bf5760008155600101612576565b60005b838110156125a557818101518382015260200161258d565b8381111561134f5750506000910152565b60208152600082518060208401526125d581604085016020870161258a565b601f01601f19169190910160400192915050565b6001600160a01b03811681146106d857600080fd5b6000806040838503121561261157600080fd5b823561261c816125e9565b946020939093013593505050565b60006020828403121561263c57600080fd5b81356108ba816125e9565b60008060006060848603121561265c57600080fd5b8335612667816125e9565b92506020840135612677816125e9565b929592945050506040919091013590565b60006020828403121561269a57600080fd5b5035919050565b803560ff811681146126b257600080fd5b919050565b60008060008060008060c087890312156126d057600080fd5b86356126db816125e9565b955060208701359450604087013593506126f7606088016126a1565b92506080870135915060a087013590509295509295509295565b600080600080600080600060e0888a03121561272c57600080fd5b8735612737816125e9565b96506020880135612747816125e9565b95506040880135945060608801359350612763608089016126a1565b925060a0880135915060c0880135905092959891949750929550565b6000806040838503121561279257600080fd5b823561279d816125e9565b915060208301356127ad816125e9565b809150509250929050565b634e487b7160e01b600052604160045260246000fd5b60405160a0810167ffffffffffffffff811182821017156127f1576127f16127b8565b60405290565b604051610260810167ffffffffffffffff811182821017156127f1576127f16127b8565b604051601f8201601f1916810167ffffffffffffffff81118282101715612844576128446127b8565b604052919050565b600067ffffffffffffffff821115612866576128666127b8565b50601f01601f191660200190565b600082601f83011261288557600080fd5b81356128986128938261284c565b61281b565b8181528460208386010111156128ad57600080fd5b816020850160208301376000918101602001919091529392505050565b60008060008060008060c087890312156128e357600080fd5b863567ffffffffffffffff808211156128fb57600080fd5b6129078a838b01612874565b9750602089013591508082111561291d57600080fd5b5061292a89828a01612874565b955050604087013561293b816125e9565b9350606087013561294b816125e9565b9250608087013561295b816125e9565b8092505060a087013590509295509295509295565b6000806040838503121561298357600080fd5b823561298e816125e9565b9150602083013563ffffffff811681146127ad57600080fd5b600181811c908216806129bb57607f821691505b6020821081141561197057634e487b7160e01b600052602260045260246000fd5b805162ffffff811681146126b257600080fd5b80516126b2816125e9565b600082601f830112612a0b57600080fd5b8151612a196128938261284c565b818152846020838601011115612a2e57600080fd5b612a3f82602083016020870161258a565b949350505050565b600060a08284031215612a5957600080fd5b612a616127ce565b9050815167ffffffffffffffff80821115612a7b57600080fd5b612a87858386016129fa565b83526020840151915080821115612a9d57600080fd5b612aa9858386016129fa565b60208401526040840151915080821115612ac257600080fd5b612ace858386016129fa565b60408401526060840151915080821115612ae757600080fd5b612af3858386016129fa565b60608401526080840151915080821115612b0c57600080fd5b50612b19848285016129fa565b60808301525092915050565b600067ffffffffffffffff821115612b3f57612b3f6127b8565b5060051b60200190565b600082601f830112612b5a57600080fd5b81516020612b6a61289383612b25565b82815260059290921b84018101918181019086841115612b8957600080fd5b8286015b84811015612bc957805167ffffffffffffffff811115612bad5760008081fd5b612bbb8986838b01016129fa565b845250918301918301612b8d565b509695505050505050565b600082601f830112612be557600080fd5b81516020612bf561289383612b25565b82815260059290921b84018101918181019086841115612c1457600080fd5b8286015b84811015612bc9578051612c2b816125e9565b8352918301918301612c18565b600060208284031215612c4a57600080fd5b815167ffffffffffffffff80821115612c6257600080fd5b908301906102608286031215612c7757600080fd5b612c7f6127f7565b612c88836129dc565b8152612c96602084016129dc565b602082015260408301516040820152612cb1606084016129ef565b6060820152608083015182811115612cc857600080fd5b612cd4878286016129fa565b60808301525060a083015182811115612cec57600080fd5b612cf8878286016129fa565b60a083015250612d0a60c084016129ef565b60c082015260e083015182811115612d2157600080fd5b612d2d878286016129fa565b60e0830152506101008084015183811115612d4757600080fd5b612d53888287016129fa565b8284015250506101208084015183811115612d6d57600080fd5b612d79888287016129fa565b8284015250506101408084015183811115612d9357600080fd5b612d9f88828701612a47565b8284015250506101608084015183811115612db957600080fd5b612dc588828701612b49565b8284015250506101808084015183811115612ddf57600080fd5b612deb88828701612b49565b8284015250506101a08084015183811115612e0557600080fd5b612e11888287016129fa565b8284015250506101c08084015181830152506101e0612e318185016129ef565b908201526102008381015183811115612e4957600080fd5b612e55888287016129fa565b8284015250506102208084015183811115612e6f57600080fd5b612e7b88828701612bd4565b91830191909152506102409283015192810192909252509392505050565b634e487b7160e01b600052601160045260246000fd5b60008219821115612ec257612ec2612e99565b500190565b600082821015612ed957612ed9612e99565b500390565b634e487b7160e01b600052603260045260246000fd5b6020808252602b908201527f496e697469616c697a61626c653a20636f6e7472616374206973206e6f74206960408201526a6e697469616c697a696e6760a81b606082015260800190565b634e487b7160e01b600052601260045260246000fd5b600082612f7257634e487b7160e01b600052601260045260246000fd5b500490565b634e487b7160e01b600052602160045260246000fdfea2646970667358221220dc7530b2e159775244b8b5cf84c7c117cd97b4bc29a67919cb9cee80a7a09e5b64736f6c634300080c0033",
  "linkReferences": {},
  "deployedLinkReferences": {}
}