{
  "_format": "hh-sol-artifact-1",
  "contractName": "BaseERC721OwnerSeed",
  "sourceName": "contracts/nfts/BaseERC721OwnerSeed.sol",
  "abi": [
    {
      "inputs": [
        {
          "internalType": "string",
          "name": "name",
          "type": "string"
        },
        {
          "internalType": "string",
          "name": "symbol",
          "type": "string"
        }
      ],
      "stateMutability": "nonpayable",
      "type": "constructor"
    },
    {
      "anonymous": false,
      "inputs": [
        {
          "indexed": true,
          "internalType": "address",
          "name": "owner",
          "type": "address"
        },
        {
          "indexed": true,
          "internalType": "address",
          "name": "approved",
          "type": "address"
        },
        {
          "indexed": true,
          "internalType": "uint256",
          "name": "tokenId",
          "type": "uint256"
        }
      ],
      "name": "Approval",
      "type": "event"
    },
    {
      "anonymous": false,
      "inputs": [
        {
          "indexed": true,
          "internalType": "address",
          "name": "owner",
          "type": "address"
        },
        {
          "indexed": true,
          "internalType": "address",
          "name": "operator",
          "type": "address"
        },
        {
          "indexed": false,
          "internalType": "bool",
          "name": "approved",
          "type": "bool"
        }
      ],
      "name": "ApprovalForAll",
      "type": "event"
    },
    {
      "anonymous": false,
      "inputs": [
        {
          "indexed": true,
          "internalType": "address",
          "name": "previousOwner",
          "type": "address"
        },
        {
          "indexed": true,
          "internalType": "address",
          "name": "newOwner",
          "type": "address"
        }
      ],
      "name": "OwnershipTransferred",
      "type": "event"
    },
    {
      "anonymous": false,
      "inputs": [
        {
          "indexed": false,
          "internalType": "address",
          "name": "account",
          "type": "address"
        }
      ],
      "name": "Paused",
      "type": "event"
    },
    {
      "anonymous": false,
      "inputs": [
        {
          "indexed": true,
          "internalType": "address",
          "name": "from",
          "type": "address"
        },
        {
          "indexed": true,
          "internalType": "address",
          "name": "to",
          "type": "address"
        },
        {
          "indexed": true,
          "internalType": "uint256",
          "name": "tokenId",
          "type": "uint256"
        }
      ],
      "name": "Transfer",
      "type": "event"
    },
    {
      "anonymous": false,
      "inputs": [
        {
          "indexed": false,
          "internalType": "address",
          "name": "account",
          "type": "address"
        }
      ],
      "name": "Unpaused",
      "type": "event"
    },
    {
      "inputs": [],
      "name": "_admin",
      "outputs": [
        {
          "internalType": "address",
          "name": "",
          "type": "address"
        }
      ],
      "stateMutability": "view",
      "type": "function"
    },
    {
      "inputs": [],
      "name": "_paramsAddress",
      "outputs": [
        {
          "internalType": "address",
          "name": "",
          "type": "address"
        }
      ],
      "stateMutability": "view",
      "type": "function"
    },
    {
      "inputs": [],
      "name": "_projectDataContextAddr",
      "outputs": [
        {
          "internalType": "address",
          "name": "",
          "type": "address"
        }
      ],
      "stateMutability": "view",
      "type": "function"
    },
    {
      "inputs": [],
      "name": "_randomizer",
      "outputs": [
        {
          "internalType": "address",
          "name": "",
          "type": "address"
        }
      ],
      "stateMutability": "view",
      "type": "function"
    },
    {
      "inputs": [
        {
          "internalType": "address",
          "name": "to",
          "type": "address"
        },
        {
          "internalType": "uint256",
          "name": "tokenId",
          "type": "uint256"
        }
      ],
      "name": "approve",
      "outputs": [],
      "stateMutability": "nonpayable",
      "type": "function"
    },
    {
      "inputs": [
        {
          "internalType": "address",
          "name": "owner",
          "type": "address"
        }
      ],
      "name": "balanceOf",
      "outputs": [
        {
          "internalType": "uint256",
          "name": "",
          "type": "uint256"
        }
      ],
      "stateMutability": "view",
      "type": "function"
    },
    {
      "inputs": [
        {
          "internalType": "address",
          "name": "newAdm",
          "type": "address"
        }
      ],
      "name": "changeAdmin",
      "outputs": [],
      "stateMutability": "nonpayable",
      "type": "function"
    },
    {
      "inputs": [
        {
          "internalType": "address",
          "name": "newAddr",
          "type": "address"
        }
      ],
      "name": "changeDataContextAddr",
      "outputs": [],
      "stateMutability": "nonpayable",
      "type": "function"
    },
    {
      "inputs": [
        {
          "internalType": "address",
          "name": "newAddr",
          "type": "address"
        }
      ],
      "name": "changeParamAddr",
      "outputs": [],
      "stateMutability": "nonpayable",
      "type": "function"
    },
    {
      "inputs": [
        {
          "internalType": "address",
          "name": "newAddr",
          "type": "address"
        }
      ],
      "name": "changeRandomizerAddr",
      "outputs": [],
      "stateMutability": "nonpayable",
      "type": "function"
    },
    {
      "inputs": [
        {
          "internalType": "uint256",
          "name": "tokenId",
          "type": "uint256"
        }
      ],
      "name": "getApproved",
      "outputs": [
        {
          "internalType": "address",
          "name": "",
          "type": "address"
        }
      ],
      "stateMutability": "view",
      "type": "function"
    },
    {
      "inputs": [
        {
          "internalType": "address",
          "name": "owner",
          "type": "address"
        },
        {
          "internalType": "address",
          "name": "operator",
          "type": "address"
        }
      ],
      "name": "isApprovedForAll",
      "outputs": [
        {
          "internalType": "bool",
          "name": "",
          "type": "bool"
        }
      ],
      "stateMutability": "view",
      "type": "function"
    },
    {
      "inputs": [],
      "name": "name",
      "outputs": [
        {
          "internalType": "string",
          "name": "",
          "type": "string"
        }
      ],
      "stateMutability": "view",
      "type": "function"
    },
    {
      "inputs": [],
      "name": "owner",
      "outputs": [
        {
          "internalType": "address",
          "name": "",
          "type": "address"
        }
      ],
      "stateMutability": "view",
      "type": "function"
    },
    {
      "inputs": [
        {
          "internalType": "uint256",
          "name": "tokenId",
          "type": "uint256"
        }
      ],
      "name": "ownerOf",
      "outputs": [
        {
          "internalType": "address",
          "name": "",
          "type": "address"
        }
      ],
      "stateMutability": "view",
      "type": "function"
    },
    {
      "inputs": [],
      "name": "pause",
      "outputs": [],
      "stateMutability": "nonpayable",
      "type": "function"
    },
    {
      "inputs": [],
      "name": "paused",
      "outputs": [
        {
          "internalType": "bool",
          "name": "",
          "type": "bool"
        }
      ],
      "stateMutability": "view",
      "type": "function"
    },
    {
      "inputs": [],
      "name": "renounceOwnership",
      "outputs": [],
      "stateMutability": "nonpayable",
      "type": "function"
    },
    {
      "inputs": [
        {
          "internalType": "uint256",
          "name": "_tokenId",
          "type": "uint256"
        },
        {
          "internalType": "uint256",
          "name": "_salePrice",
          "type": "uint256"
        }
      ],
      "name": "royaltyInfo",
      "outputs": [
        {
          "internalType": "address",
          "name": "receiver",
          "type": "address"
        },
        {
          "internalType": "uint256",
          "name": "royaltyAmount",
          "type": "uint256"
        }
      ],
      "stateMutability": "view",
      "type": "function"
    },
    {
      "inputs": [
        {
          "internalType": "address",
          "name": "from",
          "type": "address"
        },
        {
          "internalType": "address",
          "name": "to",
          "type": "address"
        },
        {
          "internalType": "uint256",
          "name": "tokenId",
          "type": "uint256"
        }
      ],
      "name": "safeTransferFrom",
      "outputs": [],
      "stateMutability": "nonpayable",
      "type": "function"
    },
    {
      "inputs": [
        {
          "internalType": "address",
          "name": "from",
          "type": "address"
        },
        {
          "internalType": "address",
          "name": "to",
          "type": "address"
        },
        {
          "internalType": "uint256",
          "name": "tokenId",
          "type": "uint256"
        },
        {
          "internalType": "bytes",
          "name": "data",
          "type": "bytes"
        }
      ],
      "name": "safeTransferFrom",
      "outputs": [],
      "stateMutability": "nonpayable",
      "type": "function"
    },
    {
      "inputs": [
        {
          "internalType": "address",
          "name": "operator",
          "type": "address"
        },
        {
          "internalType": "bool",
          "name": "approved",
          "type": "bool"
        }
      ],
      "name": "setApprovalForAll",
      "outputs": [],
      "stateMutability": "nonpayable",
      "type": "function"
    },
    {
      "inputs": [
        {
          "internalType": "bytes4",
          "name": "interfaceId",
          "type": "bytes4"
        }
      ],
      "name": "supportsInterface",
      "outputs": [
        {
          "internalType": "bool",
          "name": "",
          "type": "bool"
        }
      ],
      "stateMutability": "view",
      "type": "function"
    },
    {
      "inputs": [],
      "name": "symbol",
      "outputs": [
        {
          "internalType": "string",
          "name": "",
          "type": "string"
        }
      ],
      "stateMutability": "view",
      "type": "function"
    },
    {
      "inputs": [
        {
          "internalType": "uint256",
          "name": "tokenId",
          "type": "uint256"
        }
      ],
      "name": "tokenURI",
      "outputs": [
        {
          "internalType": "string",
          "name": "",
          "type": "string"
        }
      ],
      "stateMutability": "view",
      "type": "function"
    },
    {
      "inputs": [
        {
          "internalType": "address",
          "name": "from",
          "type": "address"
        },
        {
          "internalType": "address",
          "name": "to",
          "type": "address"
        },
        {
          "internalType": "uint256",
          "name": "tokenId",
          "type": "uint256"
        }
      ],
      "name": "transferFrom",
      "outputs": [],
      "stateMutability": "nonpayable",
      "type": "function"
    },
    {
      "inputs": [
        {
          "internalType": "address",
          "name": "newOwner",
          "type": "address"
        }
      ],
      "name": "transferOwnership",
      "outputs": [],
      "stateMutability": "nonpayable",
      "type": "function"
    },
    {
      "inputs": [],
      "name": "unpause",
      "outputs": [],
      "stateMutability": "nonpayable",
      "type": "function"
    }
  ],
  "bytecode": "0x60806040523480156200001157600080fd5b5060405162001d9538038062001d9583398101604081905262000034916200024d565b8151829082906200004d906000906020850190620000da565b50805162000063906001906020840190620000da565b50506006805460ff19169055506001600755620000803362000088565b5050620002f4565b600880546001600160a01b038381166001600160a01b0319831681179093556040519116919082907f8be0079c531659141344cd1fd0a4f28419497f9722a3daafe3b4186f6b6457e090600090a35050565b828054620000e890620002b7565b90600052602060002090601f0160209004810192826200010c576000855562000157565b82601f106200012757805160ff191683800117855562000157565b8280016001018555821562000157579182015b82811115620001575782518255916020019190600101906200013a565b506200016592915062000169565b5090565b5b808211156200016557600081556001016200016a565b634e487b7160e01b600052604160045260246000fd5b600082601f830112620001a857600080fd5b81516001600160401b0380821115620001c557620001c562000180565b604051601f8301601f19908116603f01168101908282118183101715620001f057620001f062000180565b816040528381526020925086838588010111156200020d57600080fd5b600091505b8382101562000231578582018301518183018401529082019062000212565b83821115620002435760008385830101525b9695505050505050565b600080604083850312156200026157600080fd5b82516001600160401b03808211156200027957600080fd5b620002878683870162000196565b935060208501519150808211156200029e57600080fd5b50620002ad8582860162000196565b9150509250929050565b600181811c90821680620002cc57607f821691505b60208210811415620002ee57634e487b7160e01b600052602260045260246000fd5b50919050565b611a9180620003046000396000f3fe608060405234801561001057600080fd5b50600436106101c45760003560e01c806370a08231116100f9578063adfc7dae11610097578063e985e9c511610071578063e985e9c5146103cf578063f2fde38b1461040b578063febfd6c31461041e578063ffc27c0e1461043157600080fd5b8063adfc7dae14610396578063b88d4fde146103a9578063c87b56dd146103bc57600080fd5b80638da5cb5b116100d35780638da5cb5b146103575780638f2839701461036857806395d89b411461037b578063a22cb4651461038357600080fd5b806370a0823114610326578063715018a6146103475780638456cb591461034f57600080fd5b80632a55205a11610166578063472f1e0211610140578063472f1e02146102cc578063575b57ea146102df5780635c975abb146102f25780636352211e146102fd57600080fd5b80632a55205a1461027f5780633f4ba83a146102b157806342842e0e146102b957600080fd5b8063081812fc116101a2578063081812fc14610231578063095ea7b3146102445780631ca9741b1461025957806323b872dd1461026c57600080fd5b806301bc45c9146101c957806301ffc9a7146101f957806306fdde031461021c575b600080fd5b600a546101dc906001600160a01b031681565b6040516001600160a01b0390911681526020015b60405180910390f35b61020c61020736600461156c565b610444565b60405190151581526020016101f0565b610224610496565b6040516101f091906115e1565b6101dc61023f3660046115f4565b610528565b610257610252366004611629565b61054f565b005b610257610267366004611653565b61066a565b61025761027a36600461166e565b6106fb565b61029261028d3660046116aa565b61072c565b604080516001600160a01b0390931683526020830191909152016101f0565b610257610744565b6102576102c736600461166e565b610795565b6102576102da366004611653565b6107b0565b600d546101dc906001600160a01b031681565b60065460ff1661020c565b6101dc61030b3660046115f4565b6000908152600960205260409020546001600160a01b031690565b610339610334366004611653565b610842565b6040519081526020016101f0565b6102576108c8565b6102576108da565b6008546001600160a01b03166101dc565b610257610376366004611653565b610929565b6102246109bb565b6102576103913660046116cc565b6109ca565b600b546101dc906001600160a01b031681565b6102576103b736600461171e565b6109d9565b6102246103ca3660046115f4565b610a11565b61020c6103dd3660046117fa565b6001600160a01b03918216600090815260056020908152604080832093909416825291909152205460ff1690565b610257610419366004611653565b610a85565b61025761042c366004611653565b610afb565b600c546101dc906001600160a01b031681565b60006001600160e01b031982166380ac58cd60e01b148061047557506001600160e01b03198216635b5e139f60e01b145b8061049057506301ffc9a760e01b6001600160e01b03198316145b92915050565b6060600080546104a59061182d565b80601f01602080910402602001604051908101604052809291908181526020018280546104d19061182d565b801561051e5780601f106104f35761010080835404028352916020019161051e565b820191906000526020600020905b81548152906001019060200180831161050157829003601f168201915b5050505050905090565b600061053382610b8d565b506000908152600460205260409020546001600160a01b031690565b600061055a82610bec565b9050806001600160a01b0316836001600160a01b031614156105cd5760405162461bcd60e51b815260206004820152602160248201527f4552433732313a20617070726f76616c20746f2063757272656e74206f776e656044820152603960f91b60648201526084015b60405180910390fd5b336001600160a01b03821614806105e957506105e981336103dd565b61065b5760405162461bcd60e51b815260206004820152603d60248201527f4552433732313a20617070726f76652063616c6c6572206973206e6f7420746f60448201527f6b656e206f776e6572206f7220617070726f76656420666f7220616c6c00000060648201526084016105c4565b6106658383610c4c565b505050565b600a546001600160a01b03163314801561068c57506001600160a01b03811615155b6040518060400160405280600381526020016231303160e81b815250906106c65760405162461bcd60e51b81526004016105c491906115e1565b50600c546001600160a01b038281169116146106f857600c80546001600160a01b0319166001600160a01b0383161790555b50565b6107053382610cba565b6107215760405162461bcd60e51b81526004016105c490611868565b610665838383610d39565b6000806107398484610d73565b915091509250929050565b600a5460408051808201909152600381526231303160e81b6020820152906001600160a01b0316331461078a5760405162461bcd60e51b81526004016105c491906115e1565b50610793610dab565b565b610665838383604051806020016040528060008152506109d9565b600a546001600160a01b0316331480156107d257506001600160a01b03811615155b6040518060400160405280600381526020016231303160e81b8152509061080c5760405162461bcd60e51b81526004016105c491906115e1565b50600d546001600160a01b038281169116146106f857600d80546001600160a01b0383166001600160a01b031990911617905550565b60006001600160a01b0382166108ac5760405162461bcd60e51b815260206004820152602960248201527f4552433732313a2061646472657373207a65726f206973206e6f7420612076616044820152683634b21037bbb732b960b91b60648201526084016105c4565b506001600160a01b031660009081526003602052604090205490565b6108d0610dfd565b6107936000610e57565b600a5460408051808201909152600381526231303160e81b6020820152906001600160a01b031633146109205760405162461bcd60e51b81526004016105c491906115e1565b50610793610ea9565b600a546001600160a01b03163314801561094b57506001600160a01b03811615155b6040518060400160405280600381526020016231303160e81b815250906109855760405162461bcd60e51b81526004016105c491906115e1565b50600a546001600160a01b038281169116146106f857600a80546001600160a01b0383166001600160a01b031990911617905550565b6060600180546104a59061182d565b6109d5338383610ee6565b5050565b6109e33383610cba565b6109ff5760405162461bcd60e51b81526004016105c490611868565b610a0b84848484610fb5565b50505050565b6060610a1c82610b8d565b6000610a3360408051602081019091526000815290565b90506000815111610a535760405180602001604052806000815250610a7e565b80610a5d84610fe8565b604051602001610a6e9291906118b5565b6040516020818303038152906040525b9392505050565b610a8d610dfd565b6001600160a01b038116610af25760405162461bcd60e51b815260206004820152602660248201527f4f776e61626c653a206e6577206f776e657220697320746865207a65726f206160448201526564647265737360d01b60648201526084016105c4565b6106f881610e57565b600a546001600160a01b031633148015610b1d57506001600160a01b03811615155b6040518060400160405280600381526020016231303160e81b81525090610b575760405162461bcd60e51b81526004016105c491906115e1565b50600b546001600160a01b038281169116146106f857600b80546001600160a01b0383166001600160a01b031990911617905550565b6000818152600960205260409020546001600160a01b03166106f85760405162461bcd60e51b8152602060048201526018602482015277115490cdcc8c4e881a5b9d985b1a59081d1bdad95b88125160421b60448201526064016105c4565b6000818152600260205260408120546001600160a01b0316806104905760405162461bcd60e51b8152602060048201526018602482015277115490cdcc8c4e881a5b9d985b1a59081d1bdad95b88125160421b60448201526064016105c4565b600081815260046020526040902080546001600160a01b0319166001600160a01b0384169081179091558190610c8182610bec565b6001600160a01b03167f8c5be1e5ebec7d5bd14f71427d1e84f3dd0314c0f7b2291e5b200ac8c7c3b92560405160405180910390a45050565b600080610cc683610bec565b9050806001600160a01b0316846001600160a01b03161480610d0d57506001600160a01b0380821660009081526005602090815260408083209388168352929052205460ff165b80610d315750836001600160a01b0316610d2684610528565b6001600160a01b0316145b949350505050565b610d44838383611085565b600090815260096020526040902080546001600160a01b0319166001600160a01b039290921691909117905550565b600a5460009081906001600160a01b031681612710610d94866101f46118fa565b610d9e9190611919565b9196919550909350505050565b610db36111f6565b6006805460ff191690557f5db9ee0a495bf2e6ff9c91a7834c1ba4fdd244a5e8aa4e537bd38aeae4b073aa335b6040516001600160a01b03909116815260200160405180910390a1565b6008546001600160a01b031633146107935760405162461bcd60e51b815260206004820181905260248201527f4f776e61626c653a2063616c6c6572206973206e6f7420746865206f776e657260448201526064016105c4565b600880546001600160a01b038381166001600160a01b0319831681179093556040519116919082907f8be0079c531659141344cd1fd0a4f28419497f9722a3daafe3b4186f6b6457e090600090a35050565b610eb161123f565b6006805460ff191660011790557f62e78cea01bee320cd4e420270b5ea74000d11b0c9f74754ebdbfc544b05a258610de03390565b816001600160a01b0316836001600160a01b03161415610f485760405162461bcd60e51b815260206004820152601960248201527f4552433732313a20617070726f766520746f2063616c6c65720000000000000060448201526064016105c4565b6001600160a01b03838116600081815260056020908152604080832094871680845294825291829020805460ff191686151590811790915591519182527f17307eab39ab6107e8899845ad3d59bd9653f200f220920489ca2b5937696c31910160405180910390a3505050565b610fc0848484610d39565b610fcc84848484611285565b610a0b5760405162461bcd60e51b81526004016105c49061193b565b60606000610ff583611383565b600101905060008167ffffffffffffffff81111561101557611015611708565b6040519080825280601f01601f19166020018201604052801561103f576020820181803683370190505b5090508181016020015b600019016f181899199a1a9b1b9c1cb0b131b232b360811b600a86061a8153600a85049450846110785761107d565b611049565b509392505050565b826001600160a01b031661109882610bec565b6001600160a01b0316146110be5760405162461bcd60e51b81526004016105c49061198d565b6001600160a01b0382166111205760405162461bcd60e51b8152602060048201526024808201527f4552433732313a207472616e7366657220746f20746865207a65726f206164646044820152637265737360e01b60648201526084016105c4565b61112d838383600161145b565b826001600160a01b031661114082610bec565b6001600160a01b0316146111665760405162461bcd60e51b81526004016105c49061198d565b600081815260046020908152604080832080546001600160a01b03199081169091556001600160a01b0387811680865260038552838620805460001901905590871680865283862080546001019055868652600290945282852080549092168417909155905184937fddf252ad1be2c89b69c2b068fc378daa952ba7f163c4a11628f55a4df523b3ef91a4505050565b60065460ff166107935760405162461bcd60e51b815260206004820152601460248201527314185d5cd8589b194e881b9bdd081c185d5cd95960621b60448201526064016105c4565b60065460ff16156107935760405162461bcd60e51b815260206004820152601060248201526f14185d5cd8589b194e881c185d5cd95960821b60448201526064016105c4565b60006001600160a01b0384163b1561137857604051630a85bd0160e11b81526001600160a01b0385169063150b7a02906112c99033908990889088906004016119d2565b6020604051808303816000875af1925050508015611304575060408051601f3d908101601f1916820190925261130191810190611a0f565b60015b61135e573d808015611332576040519150601f19603f3d011682016040523d82523d6000602084013e611337565b606091505b5080516113565760405162461bcd60e51b81526004016105c49061193b565b805181602001fd5b6001600160e01b031916630a85bd0160e11b149050610d31565b506001949350505050565b60008072184f03e93ff9f4daa797ed6e38ed64bf6a1f0160401b83106113c25772184f03e93ff9f4daa797ed6e38ed64bf6a1f0160401b830492506040015b6d04ee2d6d415b85acef810000000083106113ee576d04ee2d6d415b85acef8100000000830492506020015b662386f26fc10000831061140c57662386f26fc10000830492506010015b6305f5e1008310611424576305f5e100830492506008015b612710831061143857612710830492506004015b6064831061144a576064830492506002015b600a83106104905760010192915050565b611467848484846114ce565b60065460ff1615610a0b5760405162461bcd60e51b815260206004820152602b60248201527f4552433732315061757361626c653a20746f6b656e207472616e73666572207760448201526a1a1a5b19481c185d5cd95960aa1b60648201526084016105c4565b6001811115610a0b576001600160a01b03841615611514576001600160a01b0384166000908152600360205260408120805483929061150e908490611a2c565b90915550505b6001600160a01b03831615610a0b576001600160a01b0383166000908152600360205260408120805483929061154b908490611a43565b909155505050505050565b6001600160e01b0319811681146106f857600080fd5b60006020828403121561157e57600080fd5b8135610a7e81611556565b60005b838110156115a457818101518382015260200161158c565b83811115610a0b5750506000910152565b600081518084526115cd816020860160208601611589565b601f01601f19169290920160200192915050565b602081526000610a7e60208301846115b5565b60006020828403121561160657600080fd5b5035919050565b80356001600160a01b038116811461162457600080fd5b919050565b6000806040838503121561163c57600080fd5b6116458361160d565b946020939093013593505050565b60006020828403121561166557600080fd5b610a7e8261160d565b60008060006060848603121561168357600080fd5b61168c8461160d565b925061169a6020850161160d565b9150604084013590509250925092565b600080604083850312156116bd57600080fd5b50508035926020909101359150565b600080604083850312156116df57600080fd5b6116e88361160d565b9150602083013580151581146116fd57600080fd5b809150509250929050565b634e487b7160e01b600052604160045260246000fd5b6000806000806080858703121561173457600080fd5b61173d8561160d565b935061174b6020860161160d565b925060408501359150606085013567ffffffffffffffff8082111561176f57600080fd5b818701915087601f83011261178357600080fd5b81358181111561179557611795611708565b604051601f8201601f19908116603f011681019083821181831017156117bd576117bd611708565b816040528281528a60208487010111156117d657600080fd5b82602086016020830137600060208483010152809550505050505092959194509250565b6000806040838503121561180d57600080fd5b6118168361160d565b91506118246020840161160d565b90509250929050565b600181811c9082168061184157607f821691505b6020821081141561186257634e487b7160e01b600052602260045260246000fd5b50919050565b6020808252602d908201527f4552433732313a2063616c6c6572206973206e6f7420746f6b656e206f776e6560408201526c1c881bdc88185c1c1c9bdd9959609a1b606082015260800190565b600083516118c7818460208801611589565b8351908301906118db818360208801611589565b01949350505050565b634e487b7160e01b600052601160045260246000fd5b6000816000190483118215151615611914576119146118e4565b500290565b60008261193657634e487b7160e01b600052601260045260246000fd5b500490565b60208082526032908201527f4552433732313a207472616e7366657220746f206e6f6e20455243373231526560408201527131b2b4bb32b91034b6b83632b6b2b73a32b960711b606082015260800190565b60208082526025908201527f4552433732313a207472616e736665722066726f6d20696e636f72726563742060408201526437bbb732b960d91b606082015260800190565b6001600160a01b0385811682528416602082015260408101839052608060608201819052600090611a05908301846115b5565b9695505050505050565b600060208284031215611a2157600080fd5b8151610a7e81611556565b600082821015611a3e57611a3e6118e4565b500390565b60008219821115611a5657611a566118e4565b50019056fea2646970667358221220dbfbcfeacfc787471989a16b205e7925da81ca2abb19a948da0b0da6fb6875eb64736f6c634300080c0033",
  "linkReferences": {},
  "deployedLinkReferences": {}
}