{
  "_format": "hh-sol-artifact-1",
  "contractName": "BaseERC721OwnerSeed",
  "sourceName": "contracts/nfts/BaseERC721OwnerSeed.sol",
  "abi": [
    {
      "inputs": [
        {
          "internalType": "string",
          "name": "name",
          "type": "string"
        },
        {
          "internalType": "string",
          "name": "symbol",
          "type": "string"
        }
      ],
      "stateMutability": "nonpayable",
      "type": "constructor"
    },
    {
      "anonymous": false,
      "inputs": [
        {
          "indexed": true,
          "internalType": "address",
          "name": "owner",
          "type": "address"
        },
        {
          "indexed": true,
          "internalType": "address",
          "name": "approved",
          "type": "address"
        },
        {
          "indexed": true,
          "internalType": "uint256",
          "name": "tokenId",
          "type": "uint256"
        }
      ],
      "name": "Approval",
      "type": "event"
    },
    {
      "anonymous": false,
      "inputs": [
        {
          "indexed": true,
          "internalType": "address",
          "name": "owner",
          "type": "address"
        },
        {
          "indexed": true,
          "internalType": "address",
          "name": "operator",
          "type": "address"
        },
        {
          "indexed": false,
          "internalType": "bool",
          "name": "approved",
          "type": "bool"
        }
      ],
      "name": "ApprovalForAll",
      "type": "event"
    },
    {
      "anonymous": false,
      "inputs": [
        {
          "indexed": true,
          "internalType": "address",
          "name": "previousOwner",
          "type": "address"
        },
        {
          "indexed": true,
          "internalType": "address",
          "name": "newOwner",
          "type": "address"
        }
      ],
      "name": "OwnershipTransferred",
      "type": "event"
    },
    {
      "anonymous": false,
      "inputs": [
        {
          "indexed": false,
          "internalType": "address",
          "name": "account",
          "type": "address"
        }
      ],
      "name": "Paused",
      "type": "event"
    },
    {
      "anonymous": false,
      "inputs": [
        {
          "indexed": true,
          "internalType": "address",
          "name": "from",
          "type": "address"
        },
        {
          "indexed": true,
          "internalType": "address",
          "name": "to",
          "type": "address"
        },
        {
          "indexed": true,
          "internalType": "uint256",
          "name": "tokenId",
          "type": "uint256"
        }
      ],
      "name": "Transfer",
      "type": "event"
    },
    {
      "anonymous": false,
      "inputs": [
        {
          "indexed": false,
          "internalType": "address",
          "name": "account",
          "type": "address"
        }
      ],
      "name": "Unpaused",
      "type": "event"
    },
    {
      "inputs": [],
      "name": "_admin",
      "outputs": [
        {
          "internalType": "address",
          "name": "",
          "type": "address"
        }
      ],
      "stateMutability": "view",
      "type": "function"
    },
    {
      "inputs": [],
      "name": "_nameCol",
      "outputs": [
        {
          "internalType": "string",
          "name": "",
          "type": "string"
        }
      ],
      "stateMutability": "view",
      "type": "function"
    },
    {
      "inputs": [],
      "name": "_paramsAddress",
      "outputs": [
        {
          "internalType": "address",
          "name": "",
          "type": "address"
        }
      ],
      "stateMutability": "view",
      "type": "function"
    },
    {
      "inputs": [],
      "name": "_projectDataContextAddr",
      "outputs": [
        {
          "internalType": "address",
          "name": "",
          "type": "address"
        }
      ],
      "stateMutability": "view",
      "type": "function"
    },
    {
      "inputs": [],
      "name": "_randomizer",
      "outputs": [
        {
          "internalType": "address",
          "name": "",
          "type": "address"
        }
      ],
      "stateMutability": "view",
      "type": "function"
    },
    {
      "inputs": [],
      "name": "_royalty",
      "outputs": [
        {
          "internalType": "uint256",
          "name": "",
          "type": "uint256"
        }
      ],
      "stateMutability": "view",
      "type": "function"
    },
    {
      "inputs": [
        {
          "internalType": "address",
          "name": "to",
          "type": "address"
        },
        {
          "internalType": "uint256",
          "name": "tokenId",
          "type": "uint256"
        }
      ],
      "name": "approve",
      "outputs": [],
      "stateMutability": "nonpayable",
      "type": "function"
    },
    {
      "inputs": [
        {
          "internalType": "address",
          "name": "owner",
          "type": "address"
        }
      ],
      "name": "balanceOf",
      "outputs": [
        {
          "internalType": "uint256",
          "name": "",
          "type": "uint256"
        }
      ],
      "stateMutability": "view",
      "type": "function"
    },
    {
      "inputs": [
        {
          "internalType": "address",
          "name": "newAdm",
          "type": "address"
        }
      ],
      "name": "changeAdmin",
      "outputs": [],
      "stateMutability": "nonpayable",
      "type": "function"
    },
    {
      "inputs": [
        {
          "internalType": "address",
          "name": "newAddr",
          "type": "address"
        }
      ],
      "name": "changeDataContextAddr",
      "outputs": [],
      "stateMutability": "nonpayable",
      "type": "function"
    },
    {
      "inputs": [
        {
          "internalType": "address",
          "name": "newAddr",
          "type": "address"
        }
      ],
      "name": "changeParamAddr",
      "outputs": [],
      "stateMutability": "nonpayable",
      "type": "function"
    },
    {
      "inputs": [
        {
          "internalType": "address",
          "name": "newAddr",
          "type": "address"
        }
      ],
      "name": "changeRandomizerAddr",
      "outputs": [],
      "stateMutability": "nonpayable",
      "type": "function"
    },
    {
      "inputs": [
        {
          "internalType": "uint256",
          "name": "tokenId",
          "type": "uint256"
        }
      ],
      "name": "getApproved",
      "outputs": [
        {
          "internalType": "address",
          "name": "",
          "type": "address"
        }
      ],
      "stateMutability": "view",
      "type": "function"
    },
    {
      "inputs": [],
      "name": "getStatus",
      "outputs": [
        {
          "internalType": "bool",
          "name": "",
          "type": "bool"
        }
      ],
      "stateMutability": "view",
      "type": "function"
    },
    {
      "inputs": [
        {
          "internalType": "address",
          "name": "owner",
          "type": "address"
        },
        {
          "internalType": "address",
          "name": "operator",
          "type": "address"
        }
      ],
      "name": "isApprovedForAll",
      "outputs": [
        {
          "internalType": "bool",
          "name": "",
          "type": "bool"
        }
      ],
      "stateMutability": "view",
      "type": "function"
    },
    {
      "inputs": [],
      "name": "name",
      "outputs": [
        {
          "internalType": "string",
          "name": "",
          "type": "string"
        }
      ],
      "stateMutability": "view",
      "type": "function"
    },
    {
      "inputs": [],
      "name": "owner",
      "outputs": [
        {
          "internalType": "address",
          "name": "",
          "type": "address"
        }
      ],
      "stateMutability": "view",
      "type": "function"
    },
    {
      "inputs": [
        {
          "internalType": "uint256",
          "name": "tokenId",
          "type": "uint256"
        }
      ],
      "name": "ownerOf",
      "outputs": [
        {
          "internalType": "address",
          "name": "",
          "type": "address"
        }
      ],
      "stateMutability": "view",
      "type": "function"
    },
    {
      "inputs": [],
      "name": "paused",
      "outputs": [
        {
          "internalType": "bool",
          "name": "",
          "type": "bool"
        }
      ],
      "stateMutability": "view",
      "type": "function"
    },
    {
      "inputs": [],
      "name": "renounceOwnership",
      "outputs": [],
      "stateMutability": "nonpayable",
      "type": "function"
    },
    {
      "inputs": [
        {
          "internalType": "uint256",
          "name": "_tokenId",
          "type": "uint256"
        },
        {
          "internalType": "uint256",
          "name": "_salePrice",
          "type": "uint256"
        }
      ],
      "name": "royaltyInfo",
      "outputs": [
        {
          "internalType": "address",
          "name": "receiver",
          "type": "address"
        },
        {
          "internalType": "uint256",
          "name": "royaltyAmount",
          "type": "uint256"
        }
      ],
      "stateMutability": "view",
      "type": "function"
    },
    {
      "inputs": [
        {
          "internalType": "address",
          "name": "from",
          "type": "address"
        },
        {
          "internalType": "address",
          "name": "to",
          "type": "address"
        },
        {
          "internalType": "uint256",
          "name": "tokenId",
          "type": "uint256"
        }
      ],
      "name": "safeTransferFrom",
      "outputs": [],
      "stateMutability": "nonpayable",
      "type": "function"
    },
    {
      "inputs": [
        {
          "internalType": "address",
          "name": "from",
          "type": "address"
        },
        {
          "internalType": "address",
          "name": "to",
          "type": "address"
        },
        {
          "internalType": "uint256",
          "name": "tokenId",
          "type": "uint256"
        },
        {
          "internalType": "bytes",
          "name": "data",
          "type": "bytes"
        }
      ],
      "name": "safeTransferFrom",
      "outputs": [],
      "stateMutability": "nonpayable",
      "type": "function"
    },
    {
      "inputs": [
        {
          "internalType": "address",
          "name": "operator",
          "type": "address"
        },
        {
          "internalType": "bool",
          "name": "approved",
          "type": "bool"
        }
      ],
      "name": "setApprovalForAll",
      "outputs": [],
      "stateMutability": "nonpayable",
      "type": "function"
    },
    {
      "inputs": [
        {
          "internalType": "bytes4",
          "name": "interfaceId",
          "type": "bytes4"
        }
      ],
      "name": "supportsInterface",
      "outputs": [
        {
          "internalType": "bool",
          "name": "",
          "type": "bool"
        }
      ],
      "stateMutability": "view",
      "type": "function"
    },
    {
      "inputs": [],
      "name": "symbol",
      "outputs": [
        {
          "internalType": "string",
          "name": "",
          "type": "string"
        }
      ],
      "stateMutability": "view",
      "type": "function"
    },
    {
      "inputs": [
        {
          "internalType": "uint256",
          "name": "tokenId",
          "type": "uint256"
        }
      ],
      "name": "tokenURI",
      "outputs": [
        {
          "internalType": "string",
          "name": "",
          "type": "string"
        }
      ],
      "stateMutability": "view",
      "type": "function"
    },
    {
      "inputs": [
        {
          "internalType": "address",
          "name": "from",
          "type": "address"
        },
        {
          "internalType": "address",
          "name": "to",
          "type": "address"
        },
        {
          "internalType": "uint256",
          "name": "tokenId",
          "type": "uint256"
        }
      ],
      "name": "transferFrom",
      "outputs": [],
      "stateMutability": "nonpayable",
      "type": "function"
    },
    {
      "inputs": [
        {
          "internalType": "address",
          "name": "newOwner",
          "type": "address"
        }
      ],
      "name": "transferOwnership",
      "outputs": [],
      "stateMutability": "nonpayable",
      "type": "function"
    }
  ],
  "bytecode": "0x60806040523480156200001157600080fd5b5060405162001fd138038062001fd183398101604081905262000034916200024d565b8151829082906200004d906000906020850190620000da565b50805162000063906001906020840190620000da565b50506006805460ff19169055506001600755620000803362000088565b5050620002f4565b600880546001600160a01b038381166001600160a01b0319831681179093556040519116919082907f8be0079c531659141344cd1fd0a4f28419497f9722a3daafe3b4186f6b6457e090600090a35050565b828054620000e890620002b7565b90600052602060002090601f0160209004810192826200010c576000855562000157565b82601f106200012757805160ff191683800117855562000157565b8280016001018555821562000157579182015b82811115620001575782518255916020019190600101906200013a565b506200016592915062000169565b5090565b5b808211156200016557600081556001016200016a565b634e487b7160e01b600052604160045260246000fd5b600082601f830112620001a857600080fd5b81516001600160401b0380821115620001c557620001c562000180565b604051601f8301601f19908116603f01168101908282118183101715620001f057620001f062000180565b816040528381526020925086838588010111156200020d57600080fd5b600091505b8382101562000231578582018301518183018401529082019062000212565b83821115620002435760008385830101525b9695505050505050565b600080604083850312156200026157600080fd5b82516001600160401b03808211156200027957600080fd5b620002878683870162000196565b935060208501519150808211156200029e57600080fd5b50620002ad8582860162000196565b9150509250929050565b600181811c90821680620002cc57607f821691505b60208210811415620002ee57634e487b7160e01b600052602260045260246000fd5b50919050565b611ccd80620003046000396000f3fe608060405234801561001057600080fd5b50600436106101cf5760003560e01c80635c975abb11610104578063a22cb465116100a2578063e985e9c511610071578063e985e9c5146103e3578063f2fde38b1461041f578063febfd6c314610432578063ffc27c0e1461044557600080fd5b8063a22cb46514610397578063adfc7dae146103aa578063b88d4fde146103bd578063c87b56dd146103d057600080fd5b8063715018a6116100de578063715018a6146103635780638da5cb5b1461036b5780638f2839701461037c57806395d89b411461038f57600080fd5b80635c975abb1461031c5780636352211e1461032757806370a082311461035057600080fd5b80632a55205a11610171578063452fa3d31161014b578063452fa3d3146102e6578063472f1e02146102ee5780634e69d56014610301578063575b57ea1461030957600080fd5b80632a55205a1461028a5780633b66b00a146102bc57806342842e0e146102d357600080fd5b8063081812fc116101ad578063081812fc1461023c578063095ea7b31461024f5780631ca9741b1461026457806323b872dd1461027757600080fd5b806301bc45c9146101d457806301ffc9a71461020457806306fdde0314610227575b600080fd5b600a546101e7906001600160a01b031681565b6040516001600160a01b0390911681526020015b60405180910390f35b61021761021236600461173e565b610458565b60405190151581526020016101fb565b61022f6104aa565b6040516101fb91906117b3565b6101e761024a3660046117c6565b61053c565b61026261025d3660046117f4565b610563565b005b610262610272366004611820565b61067e565b61026261028536600461183d565b61070f565b61029d61029836600461187e565b610740565b604080516001600160a01b0390931683526020830191909152016101fb565b6102c5600f5481565b6040519081526020016101fb565b6102626102e136600461183d565b610758565b61022f610773565b6102626102fc366004611820565b610801565b610217610893565b600d546101e7906001600160a01b031681565b60065460ff16610217565b6101e76103353660046117c6565b6000908152600960205260409020546001600160a01b031690565b6102c561035e366004611820565b6108a7565b61026261092d565b6008546001600160a01b03166101e7565b61026261038a366004611820565b610941565b61022f6109d3565b6102626103a53660046118a0565b610a71565b600b546101e7906001600160a01b031681565b6102626103cb3660046118f4565b610a80565b61022f6103de3660046117c6565b610ab8565b6102176103f13660046119d4565b6001600160a01b03918216600090815260056020908152604080832093909416825291909152205460ff1690565b61026261042d366004611820565b610b2c565b610262610440366004611820565b610ba2565b600c546101e7906001600160a01b031681565b60006001600160e01b031982166380ac58cd60e01b148061048957506001600160e01b03198216635b5e139f60e01b145b806104a457506301ffc9a760e01b6001600160e01b03198316145b92915050565b6060600e80546104b990611a02565b80601f01602080910402602001604051908101604052809291908181526020018280546104e590611a02565b80156105325780601f1061050757610100808354040283529160200191610532565b820191906000526020600020905b81548152906001019060200180831161051557829003601f168201915b5050505050905090565b600061054782610c34565b506000908152600460205260409020546001600160a01b031690565b600061056e82610c93565b9050806001600160a01b0316836001600160a01b031614156105e15760405162461bcd60e51b815260206004820152602160248201527f4552433732313a20617070726f76616c20746f2063757272656e74206f776e656044820152603960f91b60648201526084015b60405180910390fd5b336001600160a01b03821614806105fd57506105fd81336103f1565b61066f5760405162461bcd60e51b815260206004820152603d60248201527f4552433732313a20617070726f76652063616c6c6572206973206e6f7420746f60448201527f6b656e206f776e6572206f7220617070726f76656420666f7220616c6c00000060648201526084016105d8565b6106798383610cf3565b505050565b600a546001600160a01b0316331480156106a057506001600160a01b03811615155b6040518060400160405280600381526020016231303160e81b815250906106da5760405162461bcd60e51b81526004016105d891906117b3565b50600c546001600160a01b0382811691161461070c57600c80546001600160a01b0319166001600160a01b0383161790555b50565b6107193382610d61565b6107355760405162461bcd60e51b81526004016105d890611a3d565b610679838383610de0565b60008061074d8484610e1a565b915091509250929050565b61067983838360405180602001604052806000815250610a80565b600e805461078090611a02565b80601f01602080910402602001604051908101604052809291908181526020018280546107ac90611a02565b80156107f95780601f106107ce576101008083540402835291602001916107f9565b820191906000526020600020905b8154815290600101906020018083116107dc57829003601f168201915b505050505081565b600a546001600160a01b03163314801561082357506001600160a01b03811615155b6040518060400160405280600381526020016231303160e81b8152509061085d5760405162461bcd60e51b81526004016105d891906117b3565b50600d546001600160a01b0382811691161461070c57600d80546001600160a01b0383166001600160a01b031990911617905550565b60006108a160065460ff1690565b15905090565b60006001600160a01b0382166109115760405162461bcd60e51b815260206004820152602960248201527f4552433732313a2061646472657373207a65726f206973206e6f7420612076616044820152683634b21037bbb732b960b91b60648201526084016105d8565b506001600160a01b031660009081526003602052604090205490565b610935610fb4565b61093f600061100e565b565b600a546001600160a01b03163314801561096357506001600160a01b03811615155b6040518060400160405280600381526020016231303160e81b8152509061099d5760405162461bcd60e51b81526004016105d891906117b3565b50600a546001600160a01b0382811691161461070c57600a80546001600160a01b0383166001600160a01b031990911617905550565b6060610a6c60016003600e80546109e990611a02565b80601f0160208091040260200160405190810160405280929190818152602001828054610a1590611a02565b8015610a625780601f10610a3757610100808354040283529160200191610a62565b820191906000526020600020905b815481529060010190602001808311610a4557829003601f168201915b5050505050611060565b905090565b610a7c338383611147565b5050565b610a8a3383610d61565b610aa65760405162461bcd60e51b81526004016105d890611a3d565b610ab284848484611216565b50505050565b6060610ac382610c34565b6000610ada60408051602081019091526000815290565b90506000815111610afa5760405180602001604052806000815250610b25565b80610b0484611249565b604051602001610b15929190611a8a565b6040516020818303038152906040525b9392505050565b610b34610fb4565b6001600160a01b038116610b995760405162461bcd60e51b815260206004820152602660248201527f4f776e61626c653a206e6577206f776e657220697320746865207a65726f206160448201526564647265737360d01b60648201526084016105d8565b61070c8161100e565b600a546001600160a01b031633148015610bc457506001600160a01b03811615155b6040518060400160405280600381526020016231303160e81b81525090610bfe5760405162461bcd60e51b81526004016105d891906117b3565b50600b546001600160a01b0382811691161461070c57600b80546001600160a01b0383166001600160a01b031990911617905550565b6000818152600960205260409020546001600160a01b031661070c5760405162461bcd60e51b8152602060048201526018602482015277115490cdcc8c4e881a5b9d985b1a59081d1bdad95b88125160421b60448201526064016105d8565b6000818152600260205260408120546001600160a01b0316806104a45760405162461bcd60e51b8152602060048201526018602482015277115490cdcc8c4e881a5b9d985b1a59081d1bdad95b88125160421b60448201526064016105d8565b600081815260046020526040902080546001600160a01b0319166001600160a01b0384169081179091558190610d2882610c93565b6001600160a01b03167f8c5be1e5ebec7d5bd14f71427d1e84f3dd0314c0f7b2291e5b200ac8c7c3b92560405160405180910390a45050565b600080610d6d83610c93565b9050806001600160a01b0316846001600160a01b03161480610db457506001600160a01b0380821660009081526005602090815260408083209388168352929052205460ff165b80610dd85750836001600160a01b0316610dcd8461053c565b6001600160a01b0316145b949350505050565b610deb8383836112e6565b600090815260096020526040902080546001600160a01b0319166001600160a01b039290921691909117905550565b600a54600f54600b546001600160a01b0392831692600092911615610f9357600b546040805180820182526013815272524f59414c54595f46494e5f4144445245535360681b6020820152905163bf40fac160e01b81526001600160a01b0390921691600091839163bf40fac191610e94916004016117b3565b602060405180830381865afa158015610eb1573d6000803e3d6000fd5b505050506040513d601f19601f82011682018060405250810190610ed59190611ab9565b90506001600160a01b03811615610eea578094505b82610f9057604080518082018252601b81527f44454641554c545f524f59414c54595f46494e5f50455243454e54000000000060208201529051636d12dce160e01b81526001600160a01b03841691636d12dce191610f4c91906004016117b3565b602060405180830381865afa158015610f69573d6000803e3d6000fd5b505050506040513d601f19601f82011682018060405250810190610f8d9190611ad6565b92505b50505b612710610fa08286611b05565b610faa9190611b24565b9150509250929050565b6008546001600160a01b0316331461093f5760405162461bcd60e51b815260206004820181905260248201527f4f776e61626c653a2063616c6c6572206973206e6f7420746865206f776e657260448201526064016105d8565b600880546001600160a01b038381166001600160a01b0319831681179093556040519116919082907f8be0079c531659141344cd1fd0a4f28419497f9722a3daafe3b4186f6b6457e090600090a35050565b6060600061106e8585611b46565b611079906001611b5d565b67ffffffffffffffff811115611091576110916118de565b6040519080825280601f01601f1916602001820160405280156110bb576020820181803683370190505b50905060005b6110cb8686611b46565b811161113e578360016110de8884611b5d565b6110e89190611b46565b815181106110f8576110f8611b75565b602001015160f81c60f81b82828151811061111557611115611b75565b60200101906001600160f81b031916908160001a9053508061113681611b8b565b9150506110c1565b50949350505050565b816001600160a01b0316836001600160a01b031614156111a95760405162461bcd60e51b815260206004820152601960248201527f4552433732313a20617070726f766520746f2063616c6c65720000000000000060448201526064016105d8565b6001600160a01b03838116600081815260056020908152604080832094871680845294825291829020805460ff191686151590811790915591519182527f17307eab39ab6107e8899845ad3d59bd9653f200f220920489ca2b5937696c31910160405180910390a3505050565b611221848484610de0565b61122d84848484611457565b610ab25760405162461bcd60e51b81526004016105d890611ba6565b6060600061125683611555565b600101905060008167ffffffffffffffff811115611276576112766118de565b6040519080825280601f01601f1916602001820160405280156112a0576020820181803683370190505b5090508181016020015b600019016f181899199a1a9b1b9c1cb0b131b232b360811b600a86061a8153600a85049450846112d9576112de565b6112aa565b509392505050565b826001600160a01b03166112f982610c93565b6001600160a01b03161461131f5760405162461bcd60e51b81526004016105d890611bf8565b6001600160a01b0382166113815760405162461bcd60e51b8152602060048201526024808201527f4552433732313a207472616e7366657220746f20746865207a65726f206164646044820152637265737360e01b60648201526084016105d8565b61138e838383600161162d565b826001600160a01b03166113a182610c93565b6001600160a01b0316146113c75760405162461bcd60e51b81526004016105d890611bf8565b600081815260046020908152604080832080546001600160a01b03199081169091556001600160a01b0387811680865260038552838620805460001901905590871680865283862080546001019055868652600290945282852080549092168417909155905184937fddf252ad1be2c89b69c2b068fc378daa952ba7f163c4a11628f55a4df523b3ef91a4505050565b60006001600160a01b0384163b1561154a57604051630a85bd0160e11b81526001600160a01b0385169063150b7a029061149b903390899088908890600401611c3d565b6020604051808303816000875af19250505080156114d6575060408051601f3d908101601f191682019092526114d391810190611c7a565b60015b611530573d808015611504576040519150601f19603f3d011682016040523d82523d6000602084013e611509565b606091505b5080516115285760405162461bcd60e51b81526004016105d890611ba6565b805181602001fd5b6001600160e01b031916630a85bd0160e11b149050610dd8565b506001949350505050565b60008072184f03e93ff9f4daa797ed6e38ed64bf6a1f0160401b83106115945772184f03e93ff9f4daa797ed6e38ed64bf6a1f0160401b830492506040015b6d04ee2d6d415b85acef810000000083106115c0576d04ee2d6d415b85acef8100000000830492506020015b662386f26fc1000083106115de57662386f26fc10000830492506010015b6305f5e10083106115f6576305f5e100830492506008015b612710831061160a57612710830492506004015b6064831061161c576064830492506002015b600a83106104a45760010192915050565b611639848484846116a0565b60065460ff1615610ab25760405162461bcd60e51b815260206004820152602b60248201527f4552433732315061757361626c653a20746f6b656e207472616e73666572207760448201526a1a1a5b19481c185d5cd95960aa1b60648201526084016105d8565b6001811115610ab2576001600160a01b038416156116e6576001600160a01b038416600090815260036020526040812080548392906116e0908490611b46565b90915550505b6001600160a01b03831615610ab2576001600160a01b0383166000908152600360205260408120805483929061171d908490611b5d565b909155505050505050565b6001600160e01b03198116811461070c57600080fd5b60006020828403121561175057600080fd5b8135610b2581611728565b60005b8381101561177657818101518382015260200161175e565b83811115610ab25750506000910152565b6000815180845261179f81602086016020860161175b565b601f01601f19169290920160200192915050565b602081526000610b256020830184611787565b6000602082840312156117d857600080fd5b5035919050565b6001600160a01b038116811461070c57600080fd5b6000806040838503121561180757600080fd5b8235611812816117df565b946020939093013593505050565b60006020828403121561183257600080fd5b8135610b25816117df565b60008060006060848603121561185257600080fd5b833561185d816117df565b9250602084013561186d816117df565b929592945050506040919091013590565b6000806040838503121561189157600080fd5b50508035926020909101359150565b600080604083850312156118b357600080fd5b82356118be816117df565b9150602083013580151581146118d357600080fd5b809150509250929050565b634e487b7160e01b600052604160045260246000fd5b6000806000806080858703121561190a57600080fd5b8435611915816117df565b93506020850135611925816117df565b925060408501359150606085013567ffffffffffffffff8082111561194957600080fd5b818701915087601f83011261195d57600080fd5b81358181111561196f5761196f6118de565b604051601f8201601f19908116603f01168101908382118183101715611997576119976118de565b816040528281528a60208487010111156119b057600080fd5b82602086016020830137600060208483010152809550505050505092959194509250565b600080604083850312156119e757600080fd5b82356119f2816117df565b915060208301356118d3816117df565b600181811c90821680611a1657607f821691505b60208210811415611a3757634e487b7160e01b600052602260045260246000fd5b50919050565b6020808252602d908201527f4552433732313a2063616c6c6572206973206e6f7420746f6b656e206f776e6560408201526c1c881bdc88185c1c1c9bdd9959609a1b606082015260800190565b60008351611a9c81846020880161175b565b835190830190611ab081836020880161175b565b01949350505050565b600060208284031215611acb57600080fd5b8151610b25816117df565b600060208284031215611ae857600080fd5b5051919050565b634e487b7160e01b600052601160045260246000fd5b6000816000190483118215151615611b1f57611b1f611aef565b500290565b600082611b4157634e487b7160e01b600052601260045260246000fd5b500490565b600082821015611b5857611b58611aef565b500390565b60008219821115611b7057611b70611aef565b500190565b634e487b7160e01b600052603260045260246000fd5b6000600019821415611b9f57611b9f611aef565b5060010190565b60208082526032908201527f4552433732313a207472616e7366657220746f206e6f6e20455243373231526560408201527131b2b4bb32b91034b6b83632b6b2b73a32b960711b606082015260800190565b60208082526025908201527f4552433732313a207472616e736665722066726f6d20696e636f72726563742060408201526437bbb732b960d91b606082015260800190565b6001600160a01b0385811682528416602082015260408101839052608060608201819052600090611c7090830184611787565b9695505050505050565b600060208284031215611c8c57600080fd5b8151610b258161172856fea2646970667358221220b831d0b0bc923fcb501eb1748c144b5e889d135af6d62ded20f143f3cc5c7a4c64736f6c634300080c0033",
  "linkReferences": {},
  "deployedLinkReferences": {}
}