{
  "_format": "hh-sol-artifact-1",
  "contractName": "BaseERC721OwnerSeed",
  "sourceName": "contracts/nfts/BaseERC721OwnerSeed.sol",
  "abi": [
    {
      "inputs": [
        {
          "internalType": "string",
          "name": "name",
          "type": "string"
        },
        {
          "internalType": "string",
          "name": "symbol",
          "type": "string"
        }
      ],
      "stateMutability": "nonpayable",
      "type": "constructor"
    },
    {
      "anonymous": false,
      "inputs": [
        {
          "indexed": true,
          "internalType": "address",
          "name": "owner",
          "type": "address"
        },
        {
          "indexed": true,
          "internalType": "address",
          "name": "approved",
          "type": "address"
        },
        {
          "indexed": true,
          "internalType": "uint256",
          "name": "tokenId",
          "type": "uint256"
        }
      ],
      "name": "Approval",
      "type": "event"
    },
    {
      "anonymous": false,
      "inputs": [
        {
          "indexed": true,
          "internalType": "address",
          "name": "owner",
          "type": "address"
        },
        {
          "indexed": true,
          "internalType": "address",
          "name": "operator",
          "type": "address"
        },
        {
          "indexed": false,
          "internalType": "bool",
          "name": "approved",
          "type": "bool"
        }
      ],
      "name": "ApprovalForAll",
      "type": "event"
    },
    {
      "anonymous": false,
      "inputs": [
        {
          "indexed": true,
          "internalType": "address",
          "name": "previousOwner",
          "type": "address"
        },
        {
          "indexed": true,
          "internalType": "address",
          "name": "newOwner",
          "type": "address"
        }
      ],
      "name": "OwnershipTransferred",
      "type": "event"
    },
    {
      "anonymous": false,
      "inputs": [
        {
          "indexed": false,
          "internalType": "address",
          "name": "account",
          "type": "address"
        }
      ],
      "name": "Paused",
      "type": "event"
    },
    {
      "anonymous": false,
      "inputs": [
        {
          "indexed": true,
          "internalType": "address",
          "name": "from",
          "type": "address"
        },
        {
          "indexed": true,
          "internalType": "address",
          "name": "to",
          "type": "address"
        },
        {
          "indexed": true,
          "internalType": "uint256",
          "name": "tokenId",
          "type": "uint256"
        }
      ],
      "name": "Transfer",
      "type": "event"
    },
    {
      "anonymous": false,
      "inputs": [
        {
          "indexed": false,
          "internalType": "address",
          "name": "account",
          "type": "address"
        }
      ],
      "name": "Unpaused",
      "type": "event"
    },
    {
      "inputs": [],
      "name": "_admin",
      "outputs": [
        {
          "internalType": "address",
          "name": "",
          "type": "address"
        }
      ],
      "stateMutability": "view",
      "type": "function"
    },
    {
      "inputs": [],
      "name": "_nameCol",
      "outputs": [
        {
          "internalType": "string",
          "name": "",
          "type": "string"
        }
      ],
      "stateMutability": "view",
      "type": "function"
    },
    {
      "inputs": [],
      "name": "_paramsAddress",
      "outputs": [
        {
          "internalType": "address",
          "name": "",
          "type": "address"
        }
      ],
      "stateMutability": "view",
      "type": "function"
    },
    {
      "inputs": [],
      "name": "_projectDataContextAddr",
      "outputs": [
        {
          "internalType": "address",
          "name": "",
          "type": "address"
        }
      ],
      "stateMutability": "view",
      "type": "function"
    },
    {
      "inputs": [],
      "name": "_randomizer",
      "outputs": [
        {
          "internalType": "address",
          "name": "",
          "type": "address"
        }
      ],
      "stateMutability": "view",
      "type": "function"
    },
    {
      "inputs": [],
      "name": "_symbolCol",
      "outputs": [
        {
          "internalType": "string",
          "name": "",
          "type": "string"
        }
      ],
      "stateMutability": "view",
      "type": "function"
    },
    {
      "inputs": [
        {
          "internalType": "address",
          "name": "to",
          "type": "address"
        },
        {
          "internalType": "uint256",
          "name": "tokenId",
          "type": "uint256"
        }
      ],
      "name": "approve",
      "outputs": [],
      "stateMutability": "nonpayable",
      "type": "function"
    },
    {
      "inputs": [
        {
          "internalType": "address",
          "name": "owner",
          "type": "address"
        }
      ],
      "name": "balanceOf",
      "outputs": [
        {
          "internalType": "uint256",
          "name": "",
          "type": "uint256"
        }
      ],
      "stateMutability": "view",
      "type": "function"
    },
    {
      "inputs": [
        {
          "internalType": "address",
          "name": "newAdm",
          "type": "address"
        }
      ],
      "name": "changeAdmin",
      "outputs": [],
      "stateMutability": "nonpayable",
      "type": "function"
    },
    {
      "inputs": [
        {
          "internalType": "address",
          "name": "newAddr",
          "type": "address"
        }
      ],
      "name": "changeDataContextAddr",
      "outputs": [],
      "stateMutability": "nonpayable",
      "type": "function"
    },
    {
      "inputs": [
        {
          "internalType": "address",
          "name": "newAddr",
          "type": "address"
        }
      ],
      "name": "changeParamAddr",
      "outputs": [],
      "stateMutability": "nonpayable",
      "type": "function"
    },
    {
      "inputs": [
        {
          "internalType": "address",
          "name": "newAddr",
          "type": "address"
        }
      ],
      "name": "changeRandomizerAddr",
      "outputs": [],
      "stateMutability": "nonpayable",
      "type": "function"
    },
    {
      "inputs": [
        {
          "internalType": "uint256",
          "name": "tokenId",
          "type": "uint256"
        }
      ],
      "name": "getApproved",
      "outputs": [
        {
          "internalType": "address",
          "name": "",
          "type": "address"
        }
      ],
      "stateMutability": "view",
      "type": "function"
    },
    {
      "inputs": [],
      "name": "getStatus",
      "outputs": [
        {
          "internalType": "bool",
          "name": "",
          "type": "bool"
        }
      ],
      "stateMutability": "view",
      "type": "function"
    },
    {
      "inputs": [
        {
          "internalType": "address",
          "name": "owner",
          "type": "address"
        },
        {
          "internalType": "address",
          "name": "operator",
          "type": "address"
        }
      ],
      "name": "isApprovedForAll",
      "outputs": [
        {
          "internalType": "bool",
          "name": "",
          "type": "bool"
        }
      ],
      "stateMutability": "view",
      "type": "function"
    },
    {
      "inputs": [],
      "name": "name",
      "outputs": [
        {
          "internalType": "string",
          "name": "",
          "type": "string"
        }
      ],
      "stateMutability": "view",
      "type": "function"
    },
    {
      "inputs": [],
      "name": "owner",
      "outputs": [
        {
          "internalType": "address",
          "name": "",
          "type": "address"
        }
      ],
      "stateMutability": "view",
      "type": "function"
    },
    {
      "inputs": [
        {
          "internalType": "uint256",
          "name": "tokenId",
          "type": "uint256"
        }
      ],
      "name": "ownerOf",
      "outputs": [
        {
          "internalType": "address",
          "name": "",
          "type": "address"
        }
      ],
      "stateMutability": "view",
      "type": "function"
    },
    {
      "inputs": [],
      "name": "paused",
      "outputs": [
        {
          "internalType": "bool",
          "name": "",
          "type": "bool"
        }
      ],
      "stateMutability": "view",
      "type": "function"
    },
    {
      "inputs": [],
      "name": "renounceOwnership",
      "outputs": [],
      "stateMutability": "nonpayable",
      "type": "function"
    },
    {
      "inputs": [
        {
          "internalType": "uint256",
          "name": "_tokenId",
          "type": "uint256"
        },
        {
          "internalType": "uint256",
          "name": "_salePrice",
          "type": "uint256"
        }
      ],
      "name": "royaltyInfo",
      "outputs": [
        {
          "internalType": "address",
          "name": "receiver",
          "type": "address"
        },
        {
          "internalType": "uint256",
          "name": "royaltyAmount",
          "type": "uint256"
        }
      ],
      "stateMutability": "view",
      "type": "function"
    },
    {
      "inputs": [
        {
          "internalType": "address",
          "name": "from",
          "type": "address"
        },
        {
          "internalType": "address",
          "name": "to",
          "type": "address"
        },
        {
          "internalType": "uint256",
          "name": "tokenId",
          "type": "uint256"
        }
      ],
      "name": "safeTransferFrom",
      "outputs": [],
      "stateMutability": "nonpayable",
      "type": "function"
    },
    {
      "inputs": [
        {
          "internalType": "address",
          "name": "from",
          "type": "address"
        },
        {
          "internalType": "address",
          "name": "to",
          "type": "address"
        },
        {
          "internalType": "uint256",
          "name": "tokenId",
          "type": "uint256"
        },
        {
          "internalType": "bytes",
          "name": "data",
          "type": "bytes"
        }
      ],
      "name": "safeTransferFrom",
      "outputs": [],
      "stateMutability": "nonpayable",
      "type": "function"
    },
    {
      "inputs": [
        {
          "internalType": "address",
          "name": "operator",
          "type": "address"
        },
        {
          "internalType": "bool",
          "name": "approved",
          "type": "bool"
        }
      ],
      "name": "setApprovalForAll",
      "outputs": [],
      "stateMutability": "nonpayable",
      "type": "function"
    },
    {
      "inputs": [
        {
          "internalType": "bytes4",
          "name": "interfaceId",
          "type": "bytes4"
        }
      ],
      "name": "supportsInterface",
      "outputs": [
        {
          "internalType": "bool",
          "name": "",
          "type": "bool"
        }
      ],
      "stateMutability": "view",
      "type": "function"
    },
    {
      "inputs": [],
      "name": "symbol",
      "outputs": [
        {
          "internalType": "string",
          "name": "",
          "type": "string"
        }
      ],
      "stateMutability": "view",
      "type": "function"
    },
    {
      "inputs": [
        {
          "internalType": "uint256",
          "name": "tokenId",
          "type": "uint256"
        }
      ],
      "name": "tokenURI",
      "outputs": [
        {
          "internalType": "string",
          "name": "",
          "type": "string"
        }
      ],
      "stateMutability": "view",
      "type": "function"
    },
    {
      "inputs": [
        {
          "internalType": "address",
          "name": "from",
          "type": "address"
        },
        {
          "internalType": "address",
          "name": "to",
          "type": "address"
        },
        {
          "internalType": "uint256",
          "name": "tokenId",
          "type": "uint256"
        }
      ],
      "name": "transferFrom",
      "outputs": [],
      "stateMutability": "nonpayable",
      "type": "function"
    },
    {
      "inputs": [
        {
          "internalType": "address",
          "name": "newOwner",
          "type": "address"
        }
      ],
      "name": "transferOwnership",
      "outputs": [],
      "stateMutability": "nonpayable",
      "type": "function"
    }
  ],
  "bytecode": "0x60806040523480156200001157600080fd5b5060405162001c9b38038062001c9b83398101604081905262000034916200024d565b8151829082906200004d906000906020850190620000da565b50805162000063906001906020840190620000da565b50506006805460ff19169055506001600755620000803362000088565b5050620002f4565b600880546001600160a01b038381166001600160a01b0319831681179093556040519116919082907f8be0079c531659141344cd1fd0a4f28419497f9722a3daafe3b4186f6b6457e090600090a35050565b828054620000e890620002b7565b90600052602060002090601f0160209004810192826200010c576000855562000157565b82601f106200012757805160ff191683800117855562000157565b8280016001018555821562000157579182015b82811115620001575782518255916020019190600101906200013a565b506200016592915062000169565b5090565b5b808211156200016557600081556001016200016a565b634e487b7160e01b600052604160045260246000fd5b600082601f830112620001a857600080fd5b81516001600160401b0380821115620001c557620001c562000180565b604051601f8301601f19908116603f01168101908282118183101715620001f057620001f062000180565b816040528381526020925086838588010111156200020d57600080fd5b600091505b8382101562000231578582018301518183018401529082019062000212565b83821115620002435760008385830101525b9695505050505050565b600080604083850312156200026157600080fd5b82516001600160401b03808211156200027957600080fd5b620002878683870162000196565b935060208501519150808211156200029e57600080fd5b50620002ad8582860162000196565b9150509250929050565b600181811c90821680620002cc57607f821691505b60208210811415620002ee57634e487b7160e01b600052602260045260246000fd5b50919050565b61199780620003046000396000f3fe608060405234801561001057600080fd5b50600436106101cf5760003560e01c80635c975abb11610104578063a22cb465116100a2578063e985e9c511610071578063e985e9c5146103e2578063f2fde38b1461041e578063febfd6c314610431578063ffc27c0e1461044457600080fd5b8063a22cb46514610396578063adfc7dae146103a9578063b88d4fde146103bc578063c87b56dd146103cf57600080fd5b8063715018a6116100de578063715018a6146103625780638da5cb5b1461036a5780638f2839701461037b57806395d89b411461038e57600080fd5b80635c975abb1461030d5780636352211e1461031857806370a082311461034157600080fd5b80632a55205a11610171578063452fa3d31161014b578063452fa3d3146102d7578063472f1e02146102df5780634e69d560146102f2578063575b57ea146102fa57600080fd5b80632a55205a1461028a57806336a0a6cb146102bc57806342842e0e146102c457600080fd5b8063081812fc116101ad578063081812fc1461023c578063095ea7b31461024f5780631ca9741b1461026457806323b872dd1461027757600080fd5b806301bc45c9146101d457806301ffc9a71461020457806306fdde0314610227575b600080fd5b600a546101e7906001600160a01b031681565b6040516001600160a01b0390911681526020015b60405180910390f35b610217610212366004611472565b610457565b60405190151581526020016101fb565b61022f6104a9565b6040516101fb91906114e7565b6101e761024a3660046114fa565b61053b565b61026261025d36600461152f565b610562565b005b610262610272366004611559565b61067d565b610262610285366004611574565b61070e565b61029d6102983660046115b0565b61073f565b604080516001600160a01b0390931683526020830191909152016101fb565b61022f610757565b6102626102d2366004611574565b6107e5565b61022f610800565b6102626102ed366004611559565b61080d565b61021761089f565b600d546101e7906001600160a01b031681565b60065460ff16610217565b6101e76103263660046114fa565b6000908152600960205260409020546001600160a01b031690565b61035461034f366004611559565b6108b3565b6040519081526020016101fb565b610262610939565b6008546001600160a01b03166101e7565b610262610389366004611559565b61094d565b61022f6109df565b6102626103a43660046115d2565b6109ee565b600b546101e7906001600160a01b031681565b6102626103ca366004611624565b6109fd565b61022f6103dd3660046114fa565b610a35565b6102176103f0366004611700565b6001600160a01b03918216600090815260056020908152604080832093909416825291909152205460ff1690565b61026261042c366004611559565b610aa9565b61026261043f366004611559565b610b1f565b600c546101e7906001600160a01b031681565b60006001600160e01b031982166380ac58cd60e01b148061048857506001600160e01b03198216635b5e139f60e01b145b806104a357506301ffc9a760e01b6001600160e01b03198316145b92915050565b6060600e80546104b890611733565b80601f01602080910402602001604051908101604052809291908181526020018280546104e490611733565b80156105315780601f1061050657610100808354040283529160200191610531565b820191906000526020600020905b81548152906001019060200180831161051457829003601f168201915b5050505050905090565b600061054682610bb1565b506000908152600460205260409020546001600160a01b031690565b600061056d82610c10565b9050806001600160a01b0316836001600160a01b031614156105e05760405162461bcd60e51b815260206004820152602160248201527f4552433732313a20617070726f76616c20746f2063757272656e74206f776e656044820152603960f91b60648201526084015b60405180910390fd5b336001600160a01b03821614806105fc57506105fc81336103f0565b61066e5760405162461bcd60e51b815260206004820152603d60248201527f4552433732313a20617070726f76652063616c6c6572206973206e6f7420746f60448201527f6b656e206f776e6572206f7220617070726f76656420666f7220616c6c00000060648201526084016105d7565b6106788383610c70565b505050565b600a546001600160a01b03163314801561069f57506001600160a01b03811615155b6040518060400160405280600381526020016231303160e81b815250906106d95760405162461bcd60e51b81526004016105d791906114e7565b50600c546001600160a01b0382811691161461070b57600c80546001600160a01b0319166001600160a01b0383161790555b50565b6107183382610cde565b6107345760405162461bcd60e51b81526004016105d79061176e565b610678838383610d5d565b60008061074c8484610d97565b915091509250929050565b600f805461076490611733565b80601f016020809104026020016040519081016040528092919081815260200182805461079090611733565b80156107dd5780601f106107b2576101008083540402835291602001916107dd565b820191906000526020600020905b8154815290600101906020018083116107c057829003601f168201915b505050505081565b610678838383604051806020016040528060008152506109fd565b600e805461076490611733565b600a546001600160a01b03163314801561082f57506001600160a01b03811615155b6040518060400160405280600381526020016231303160e81b815250906108695760405162461bcd60e51b81526004016105d791906114e7565b50600d546001600160a01b0382811691161461070b57600d80546001600160a01b0383166001600160a01b031990911617905550565b60006108ad60065460ff1690565b15905090565b60006001600160a01b03821661091d5760405162461bcd60e51b815260206004820152602960248201527f4552433732313a2061646472657373207a65726f206973206e6f7420612076616044820152683634b21037bbb732b960b91b60648201526084016105d7565b506001600160a01b031660009081526003602052604090205490565b610941610dcf565b61094b6000610e29565b565b600a546001600160a01b03163314801561096f57506001600160a01b03811615155b6040518060400160405280600381526020016231303160e81b815250906109a95760405162461bcd60e51b81526004016105d791906114e7565b50600a546001600160a01b0382811691161461070b57600a80546001600160a01b0383166001600160a01b031990911617905550565b6060600f80546104b890611733565b6109f9338383610e7b565b5050565b610a073383610cde565b610a235760405162461bcd60e51b81526004016105d79061176e565b610a2f84848484610f4a565b50505050565b6060610a4082610bb1565b6000610a5760408051602081019091526000815290565b90506000815111610a775760405180602001604052806000815250610aa2565b80610a8184610f7d565b604051602001610a929291906117bb565b6040516020818303038152906040525b9392505050565b610ab1610dcf565b6001600160a01b038116610b165760405162461bcd60e51b815260206004820152602660248201527f4f776e61626c653a206e6577206f776e657220697320746865207a65726f206160448201526564647265737360d01b60648201526084016105d7565b61070b81610e29565b600a546001600160a01b031633148015610b4157506001600160a01b03811615155b6040518060400160405280600381526020016231303160e81b81525090610b7b5760405162461bcd60e51b81526004016105d791906114e7565b50600b546001600160a01b0382811691161461070b57600b80546001600160a01b0383166001600160a01b031990911617905550565b6000818152600960205260409020546001600160a01b031661070b5760405162461bcd60e51b8152602060048201526018602482015277115490cdcc8c4e881a5b9d985b1a59081d1bdad95b88125160421b60448201526064016105d7565b6000818152600260205260408120546001600160a01b0316806104a35760405162461bcd60e51b8152602060048201526018602482015277115490cdcc8c4e881a5b9d985b1a59081d1bdad95b88125160421b60448201526064016105d7565b600081815260046020526040902080546001600160a01b0319166001600160a01b0384169081179091558190610ca582610c10565b6001600160a01b03167f8c5be1e5ebec7d5bd14f71427d1e84f3dd0314c0f7b2291e5b200ac8c7c3b92560405160405180910390a45050565b600080610cea83610c10565b9050806001600160a01b0316846001600160a01b03161480610d3157506001600160a01b0380821660009081526005602090815260408083209388168352929052205460ff165b80610d555750836001600160a01b0316610d4a8461053b565b6001600160a01b0316145b949350505050565b610d6883838361101a565b600090815260096020526040902080546001600160a01b0319166001600160a01b039290921691909117905550565b600a5460009081906001600160a01b031681612710610db8866101f4611800565b610dc2919061181f565b9196919550909350505050565b6008546001600160a01b0316331461094b5760405162461bcd60e51b815260206004820181905260248201527f4f776e61626c653a2063616c6c6572206973206e6f7420746865206f776e657260448201526064016105d7565b600880546001600160a01b038381166001600160a01b0319831681179093556040519116919082907f8be0079c531659141344cd1fd0a4f28419497f9722a3daafe3b4186f6b6457e090600090a35050565b816001600160a01b0316836001600160a01b03161415610edd5760405162461bcd60e51b815260206004820152601960248201527f4552433732313a20617070726f766520746f2063616c6c65720000000000000060448201526064016105d7565b6001600160a01b03838116600081815260056020908152604080832094871680845294825291829020805460ff191686151590811790915591519182527f17307eab39ab6107e8899845ad3d59bd9653f200f220920489ca2b5937696c31910160405180910390a3505050565b610f55848484610d5d565b610f618484848461118b565b610a2f5760405162461bcd60e51b81526004016105d790611841565b60606000610f8a83611289565b600101905060008167ffffffffffffffff811115610faa57610faa61160e565b6040519080825280601f01601f191660200182016040528015610fd4576020820181803683370190505b5090508181016020015b600019016f181899199a1a9b1b9c1cb0b131b232b360811b600a86061a8153600a850494508461100d57611012565b610fde565b509392505050565b826001600160a01b031661102d82610c10565b6001600160a01b0316146110535760405162461bcd60e51b81526004016105d790611893565b6001600160a01b0382166110b55760405162461bcd60e51b8152602060048201526024808201527f4552433732313a207472616e7366657220746f20746865207a65726f206164646044820152637265737360e01b60648201526084016105d7565b6110c28383836001611361565b826001600160a01b03166110d582610c10565b6001600160a01b0316146110fb5760405162461bcd60e51b81526004016105d790611893565b600081815260046020908152604080832080546001600160a01b03199081169091556001600160a01b0387811680865260038552838620805460001901905590871680865283862080546001019055868652600290945282852080549092168417909155905184937fddf252ad1be2c89b69c2b068fc378daa952ba7f163c4a11628f55a4df523b3ef91a4505050565b60006001600160a01b0384163b1561127e57604051630a85bd0160e11b81526001600160a01b0385169063150b7a02906111cf9033908990889088906004016118d8565b6020604051808303816000875af192505050801561120a575060408051601f3d908101601f1916820190925261120791810190611915565b60015b611264573d808015611238576040519150601f19603f3d011682016040523d82523d6000602084013e61123d565b606091505b50805161125c5760405162461bcd60e51b81526004016105d790611841565b805181602001fd5b6001600160e01b031916630a85bd0160e11b149050610d55565b506001949350505050565b60008072184f03e93ff9f4daa797ed6e38ed64bf6a1f0160401b83106112c85772184f03e93ff9f4daa797ed6e38ed64bf6a1f0160401b830492506040015b6d04ee2d6d415b85acef810000000083106112f4576d04ee2d6d415b85acef8100000000830492506020015b662386f26fc10000831061131257662386f26fc10000830492506010015b6305f5e100831061132a576305f5e100830492506008015b612710831061133e57612710830492506004015b60648310611350576064830492506002015b600a83106104a35760010192915050565b61136d848484846113d4565b60065460ff1615610a2f5760405162461bcd60e51b815260206004820152602b60248201527f4552433732315061757361626c653a20746f6b656e207472616e73666572207760448201526a1a1a5b19481c185d5cd95960aa1b60648201526084016105d7565b6001811115610a2f576001600160a01b0384161561141a576001600160a01b03841660009081526003602052604081208054839290611414908490611932565b90915550505b6001600160a01b03831615610a2f576001600160a01b03831660009081526003602052604081208054839290611451908490611949565b909155505050505050565b6001600160e01b03198116811461070b57600080fd5b60006020828403121561148457600080fd5b8135610aa28161145c565b60005b838110156114aa578181015183820152602001611492565b83811115610a2f5750506000910152565b600081518084526114d381602086016020860161148f565b601f01601f19169290920160200192915050565b602081526000610aa260208301846114bb565b60006020828403121561150c57600080fd5b5035919050565b80356001600160a01b038116811461152a57600080fd5b919050565b6000806040838503121561154257600080fd5b61154b83611513565b946020939093013593505050565b60006020828403121561156b57600080fd5b610aa282611513565b60008060006060848603121561158957600080fd5b61159284611513565b92506115a060208501611513565b9150604084013590509250925092565b600080604083850312156115c357600080fd5b50508035926020909101359150565b600080604083850312156115e557600080fd5b6115ee83611513565b91506020830135801515811461160357600080fd5b809150509250929050565b634e487b7160e01b600052604160045260246000fd5b6000806000806080858703121561163a57600080fd5b61164385611513565b935061165160208601611513565b925060408501359150606085013567ffffffffffffffff8082111561167557600080fd5b818701915087601f83011261168957600080fd5b81358181111561169b5761169b61160e565b604051601f8201601f19908116603f011681019083821181831017156116c3576116c361160e565b816040528281528a60208487010111156116dc57600080fd5b82602086016020830137600060208483010152809550505050505092959194509250565b6000806040838503121561171357600080fd5b61171c83611513565b915061172a60208401611513565b90509250929050565b600181811c9082168061174757607f821691505b6020821081141561176857634e487b7160e01b600052602260045260246000fd5b50919050565b6020808252602d908201527f4552433732313a2063616c6c6572206973206e6f7420746f6b656e206f776e6560408201526c1c881bdc88185c1c1c9bdd9959609a1b606082015260800190565b600083516117cd81846020880161148f565b8351908301906117e181836020880161148f565b01949350505050565b634e487b7160e01b600052601160045260246000fd5b600081600019048311821515161561181a5761181a6117ea565b500290565b60008261183c57634e487b7160e01b600052601260045260246000fd5b500490565b60208082526032908201527f4552433732313a207472616e7366657220746f206e6f6e20455243373231526560408201527131b2b4bb32b91034b6b83632b6b2b73a32b960711b606082015260800190565b60208082526025908201527f4552433732313a207472616e736665722066726f6d20696e636f72726563742060408201526437bbb732b960d91b606082015260800190565b6001600160a01b038581168252841660208201526040810183905260806060820181905260009061190b908301846114bb565b9695505050505050565b60006020828403121561192757600080fd5b8151610aa28161145c565b600082821015611944576119446117ea565b500390565b6000821982111561195c5761195c6117ea565b50019056fea2646970667358221220ff58c77f94ae31673c564c38c406d168bdc7756dc757f4df4d9662596a94d0b464736f6c634300080c0033",
  "linkReferences": {},
  "deployedLinkReferences": {}
}