{
  "_format": "hh-sol-artifact-1",
  "contractName": "BaseERC721OwnerSeed",
  "sourceName": "contracts/nfts/BaseERC721OwnerSeed.sol",
  "abi": [
    {
      "inputs": [
        {
          "internalType": "string",
          "name": "name",
          "type": "string"
        },
        {
          "internalType": "string",
          "name": "symbol",
          "type": "string"
        }
      ],
      "stateMutability": "nonpayable",
      "type": "constructor"
    },
    {
      "anonymous": false,
      "inputs": [
        {
          "indexed": true,
          "internalType": "address",
          "name": "owner",
          "type": "address"
        },
        {
          "indexed": true,
          "internalType": "address",
          "name": "approved",
          "type": "address"
        },
        {
          "indexed": true,
          "internalType": "uint256",
          "name": "tokenId",
          "type": "uint256"
        }
      ],
      "name": "Approval",
      "type": "event"
    },
    {
      "anonymous": false,
      "inputs": [
        {
          "indexed": true,
          "internalType": "address",
          "name": "owner",
          "type": "address"
        },
        {
          "indexed": true,
          "internalType": "address",
          "name": "operator",
          "type": "address"
        },
        {
          "indexed": false,
          "internalType": "bool",
          "name": "approved",
          "type": "bool"
        }
      ],
      "name": "ApprovalForAll",
      "type": "event"
    },
    {
      "anonymous": false,
      "inputs": [
        {
          "indexed": true,
          "internalType": "address",
          "name": "previousOwner",
          "type": "address"
        },
        {
          "indexed": true,
          "internalType": "address",
          "name": "newOwner",
          "type": "address"
        }
      ],
      "name": "OwnershipTransferred",
      "type": "event"
    },
    {
      "anonymous": false,
      "inputs": [
        {
          "indexed": false,
          "internalType": "address",
          "name": "account",
          "type": "address"
        }
      ],
      "name": "Paused",
      "type": "event"
    },
    {
      "anonymous": false,
      "inputs": [
        {
          "indexed": true,
          "internalType": "address",
          "name": "from",
          "type": "address"
        },
        {
          "indexed": true,
          "internalType": "address",
          "name": "to",
          "type": "address"
        },
        {
          "indexed": true,
          "internalType": "uint256",
          "name": "tokenId",
          "type": "uint256"
        }
      ],
      "name": "Transfer",
      "type": "event"
    },
    {
      "anonymous": false,
      "inputs": [
        {
          "indexed": false,
          "internalType": "address",
          "name": "account",
          "type": "address"
        }
      ],
      "name": "Unpaused",
      "type": "event"
    },
    {
      "inputs": [],
      "name": "_admin",
      "outputs": [
        {
          "internalType": "address",
          "name": "",
          "type": "address"
        }
      ],
      "stateMutability": "view",
      "type": "function"
    },
    {
      "inputs": [],
      "name": "_nameCol",
      "outputs": [
        {
          "internalType": "string",
          "name": "",
          "type": "string"
        }
      ],
      "stateMutability": "view",
      "type": "function"
    },
    {
      "inputs": [],
      "name": "_paramsAddress",
      "outputs": [
        {
          "internalType": "address",
          "name": "",
          "type": "address"
        }
      ],
      "stateMutability": "view",
      "type": "function"
    },
    {
      "inputs": [],
      "name": "_projectDataContextAddr",
      "outputs": [
        {
          "internalType": "address",
          "name": "",
          "type": "address"
        }
      ],
      "stateMutability": "view",
      "type": "function"
    },
    {
      "inputs": [],
      "name": "_randomizer",
      "outputs": [
        {
          "internalType": "address",
          "name": "",
          "type": "address"
        }
      ],
      "stateMutability": "view",
      "type": "function"
    },
    {
      "inputs": [],
      "name": "_symbolCol",
      "outputs": [
        {
          "internalType": "string",
          "name": "",
          "type": "string"
        }
      ],
      "stateMutability": "view",
      "type": "function"
    },
    {
      "inputs": [
        {
          "internalType": "address",
          "name": "to",
          "type": "address"
        },
        {
          "internalType": "uint256",
          "name": "tokenId",
          "type": "uint256"
        }
      ],
      "name": "approve",
      "outputs": [],
      "stateMutability": "nonpayable",
      "type": "function"
    },
    {
      "inputs": [
        {
          "internalType": "address",
          "name": "owner",
          "type": "address"
        }
      ],
      "name": "balanceOf",
      "outputs": [
        {
          "internalType": "uint256",
          "name": "",
          "type": "uint256"
        }
      ],
      "stateMutability": "view",
      "type": "function"
    },
    {
      "inputs": [
        {
          "internalType": "address",
          "name": "newAdm",
          "type": "address"
        }
      ],
      "name": "changeAdmin",
      "outputs": [],
      "stateMutability": "nonpayable",
      "type": "function"
    },
    {
      "inputs": [
        {
          "internalType": "address",
          "name": "newAddr",
          "type": "address"
        }
      ],
      "name": "changeDataContextAddr",
      "outputs": [],
      "stateMutability": "nonpayable",
      "type": "function"
    },
    {
      "inputs": [
        {
          "internalType": "address",
          "name": "newAddr",
          "type": "address"
        }
      ],
      "name": "changeParamAddr",
      "outputs": [],
      "stateMutability": "nonpayable",
      "type": "function"
    },
    {
      "inputs": [
        {
          "internalType": "address",
          "name": "newAddr",
          "type": "address"
        }
      ],
      "name": "changeRandomizerAddr",
      "outputs": [],
      "stateMutability": "nonpayable",
      "type": "function"
    },
    {
      "inputs": [
        {
          "internalType": "uint256",
          "name": "tokenId",
          "type": "uint256"
        }
      ],
      "name": "getApproved",
      "outputs": [
        {
          "internalType": "address",
          "name": "",
          "type": "address"
        }
      ],
      "stateMutability": "view",
      "type": "function"
    },
    {
      "inputs": [
        {
          "internalType": "address",
          "name": "owner",
          "type": "address"
        },
        {
          "internalType": "address",
          "name": "operator",
          "type": "address"
        }
      ],
      "name": "isApprovedForAll",
      "outputs": [
        {
          "internalType": "bool",
          "name": "",
          "type": "bool"
        }
      ],
      "stateMutability": "view",
      "type": "function"
    },
    {
      "inputs": [],
      "name": "name",
      "outputs": [
        {
          "internalType": "string",
          "name": "",
          "type": "string"
        }
      ],
      "stateMutability": "view",
      "type": "function"
    },
    {
      "inputs": [],
      "name": "owner",
      "outputs": [
        {
          "internalType": "address",
          "name": "",
          "type": "address"
        }
      ],
      "stateMutability": "view",
      "type": "function"
    },
    {
      "inputs": [
        {
          "internalType": "uint256",
          "name": "tokenId",
          "type": "uint256"
        }
      ],
      "name": "ownerOf",
      "outputs": [
        {
          "internalType": "address",
          "name": "",
          "type": "address"
        }
      ],
      "stateMutability": "view",
      "type": "function"
    },
    {
      "inputs": [],
      "name": "pause",
      "outputs": [],
      "stateMutability": "nonpayable",
      "type": "function"
    },
    {
      "inputs": [],
      "name": "paused",
      "outputs": [
        {
          "internalType": "bool",
          "name": "",
          "type": "bool"
        }
      ],
      "stateMutability": "view",
      "type": "function"
    },
    {
      "inputs": [],
      "name": "renounceOwnership",
      "outputs": [],
      "stateMutability": "nonpayable",
      "type": "function"
    },
    {
      "inputs": [
        {
          "internalType": "uint256",
          "name": "_tokenId",
          "type": "uint256"
        },
        {
          "internalType": "uint256",
          "name": "_salePrice",
          "type": "uint256"
        }
      ],
      "name": "royaltyInfo",
      "outputs": [
        {
          "internalType": "address",
          "name": "receiver",
          "type": "address"
        },
        {
          "internalType": "uint256",
          "name": "royaltyAmount",
          "type": "uint256"
        }
      ],
      "stateMutability": "view",
      "type": "function"
    },
    {
      "inputs": [
        {
          "internalType": "address",
          "name": "from",
          "type": "address"
        },
        {
          "internalType": "address",
          "name": "to",
          "type": "address"
        },
        {
          "internalType": "uint256",
          "name": "tokenId",
          "type": "uint256"
        }
      ],
      "name": "safeTransferFrom",
      "outputs": [],
      "stateMutability": "nonpayable",
      "type": "function"
    },
    {
      "inputs": [
        {
          "internalType": "address",
          "name": "from",
          "type": "address"
        },
        {
          "internalType": "address",
          "name": "to",
          "type": "address"
        },
        {
          "internalType": "uint256",
          "name": "tokenId",
          "type": "uint256"
        },
        {
          "internalType": "bytes",
          "name": "data",
          "type": "bytes"
        }
      ],
      "name": "safeTransferFrom",
      "outputs": [],
      "stateMutability": "nonpayable",
      "type": "function"
    },
    {
      "inputs": [
        {
          "internalType": "address",
          "name": "operator",
          "type": "address"
        },
        {
          "internalType": "bool",
          "name": "approved",
          "type": "bool"
        }
      ],
      "name": "setApprovalForAll",
      "outputs": [],
      "stateMutability": "nonpayable",
      "type": "function"
    },
    {
      "inputs": [
        {
          "internalType": "bytes4",
          "name": "interfaceId",
          "type": "bytes4"
        }
      ],
      "name": "supportsInterface",
      "outputs": [
        {
          "internalType": "bool",
          "name": "",
          "type": "bool"
        }
      ],
      "stateMutability": "view",
      "type": "function"
    },
    {
      "inputs": [],
      "name": "symbol",
      "outputs": [
        {
          "internalType": "string",
          "name": "",
          "type": "string"
        }
      ],
      "stateMutability": "view",
      "type": "function"
    },
    {
      "inputs": [
        {
          "internalType": "uint256",
          "name": "tokenId",
          "type": "uint256"
        }
      ],
      "name": "tokenURI",
      "outputs": [
        {
          "internalType": "string",
          "name": "",
          "type": "string"
        }
      ],
      "stateMutability": "view",
      "type": "function"
    },
    {
      "inputs": [
        {
          "internalType": "address",
          "name": "from",
          "type": "address"
        },
        {
          "internalType": "address",
          "name": "to",
          "type": "address"
        },
        {
          "internalType": "uint256",
          "name": "tokenId",
          "type": "uint256"
        }
      ],
      "name": "transferFrom",
      "outputs": [],
      "stateMutability": "nonpayable",
      "type": "function"
    },
    {
      "inputs": [
        {
          "internalType": "address",
          "name": "newOwner",
          "type": "address"
        }
      ],
      "name": "transferOwnership",
      "outputs": [],
      "stateMutability": "nonpayable",
      "type": "function"
    },
    {
      "inputs": [],
      "name": "unpause",
      "outputs": [],
      "stateMutability": "nonpayable",
      "type": "function"
    }
  ],
  "bytecode": "0x60806040523480156200001157600080fd5b5060405162001e5638038062001e5683398101604081905262000034916200024d565b8151829082906200004d906000906020850190620000da565b50805162000063906001906020840190620000da565b50506006805460ff19169055506001600755620000803362000088565b5050620002f4565b600880546001600160a01b038381166001600160a01b0319831681179093556040519116919082907f8be0079c531659141344cd1fd0a4f28419497f9722a3daafe3b4186f6b6457e090600090a35050565b828054620000e890620002b7565b90600052602060002090601f0160209004810192826200010c576000855562000157565b82601f106200012757805160ff191683800117855562000157565b8280016001018555821562000157579182015b82811115620001575782518255916020019190600101906200013a565b506200016592915062000169565b5090565b5b808211156200016557600081556001016200016a565b634e487b7160e01b600052604160045260246000fd5b600082601f830112620001a857600080fd5b81516001600160401b0380821115620001c557620001c562000180565b604051601f8301601f19908116603f01168101908282118183101715620001f057620001f062000180565b816040528381526020925086838588010111156200020d57600080fd5b600091505b8382101562000231578582018301518183018401529082019062000212565b83821115620002435760008385830101525b9695505050505050565b600080604083850312156200026157600080fd5b82516001600160401b03808211156200027957600080fd5b620002878683870162000196565b935060208501519150808211156200029e57600080fd5b50620002ad8582860162000196565b9150509250929050565b600181811c90821680620002cc57607f821691505b60208210811415620002ee57634e487b7160e01b600052602260045260246000fd5b50919050565b611b5280620003046000396000f3fe608060405234801561001057600080fd5b50600436106101da5760003560e01c80636352211e11610104578063a22cb465116100a2578063e985e9c511610071578063e985e9c5146103f5578063f2fde38b14610431578063febfd6c314610444578063ffc27c0e1461045757600080fd5b8063a22cb465146103a9578063adfc7dae146103bc578063b88d4fde146103cf578063c87b56dd146103e257600080fd5b80638456cb59116100de5780638456cb59146103755780638da5cb5b1461037d5780638f2839701461038e57806395d89b41146103a157600080fd5b80636352211e1461032357806370a082311461034c578063715018a61461036d57600080fd5b80632a55205a1161017c578063452fa3d31161014b578063452fa3d3146102ea578063472f1e02146102f2578063575b57ea146103055780635c975abb1461031857600080fd5b80632a55205a1461029557806336a0a6cb146102c75780633f4ba83a146102cf57806342842e0e146102d757600080fd5b8063081812fc116101b8578063081812fc14610247578063095ea7b31461025a5780631ca9741b1461026f57806323b872dd1461028257600080fd5b806301bc45c9146101df57806301ffc9a71461020f57806306fdde0314610232575b600080fd5b600a546101f2906001600160a01b031681565b6040516001600160a01b0390911681526020015b60405180910390f35b61022261021d36600461162d565b61046a565b6040519015158152602001610206565b61023a6104bc565b60405161020691906116a2565b6101f26102553660046116b5565b61054e565b61026d6102683660046116ea565b610575565b005b61026d61027d366004611714565b610690565b61026d61029036600461172f565b610721565b6102a86102a336600461176b565b610752565b604080516001600160a01b039093168352602083019190915201610206565b61023a61076a565b61026d6107f8565b61026d6102e536600461172f565b610849565b61023a610864565b61026d610300366004611714565b610871565b600d546101f2906001600160a01b031681565b60065460ff16610222565b6101f26103313660046116b5565b6000908152600960205260409020546001600160a01b031690565b61035f61035a366004611714565b610903565b604051908152602001610206565b61026d610989565b61026d61099b565b6008546001600160a01b03166101f2565b61026d61039c366004611714565b6109ea565b61023a610a7c565b61026d6103b736600461178d565b610a8b565b600b546101f2906001600160a01b031681565b61026d6103dd3660046117df565b610a9a565b61023a6103f03660046116b5565b610ad2565b6102226104033660046118bb565b6001600160a01b03918216600090815260056020908152604080832093909416825291909152205460ff1690565b61026d61043f366004611714565b610b46565b61026d610452366004611714565b610bbc565b600c546101f2906001600160a01b031681565b60006001600160e01b031982166380ac58cd60e01b148061049b57506001600160e01b03198216635b5e139f60e01b145b806104b657506301ffc9a760e01b6001600160e01b03198316145b92915050565b6060600e80546104cb906118ee565b80601f01602080910402602001604051908101604052809291908181526020018280546104f7906118ee565b80156105445780601f1061051957610100808354040283529160200191610544565b820191906000526020600020905b81548152906001019060200180831161052757829003601f168201915b5050505050905090565b600061055982610c4e565b506000908152600460205260409020546001600160a01b031690565b600061058082610cad565b9050806001600160a01b0316836001600160a01b031614156105f35760405162461bcd60e51b815260206004820152602160248201527f4552433732313a20617070726f76616c20746f2063757272656e74206f776e656044820152603960f91b60648201526084015b60405180910390fd5b336001600160a01b038216148061060f575061060f8133610403565b6106815760405162461bcd60e51b815260206004820152603d60248201527f4552433732313a20617070726f76652063616c6c6572206973206e6f7420746f60448201527f6b656e206f776e6572206f7220617070726f76656420666f7220616c6c00000060648201526084016105ea565b61068b8383610d0d565b505050565b600a546001600160a01b0316331480156106b257506001600160a01b03811615155b6040518060400160405280600381526020016231303160e81b815250906106ec5760405162461bcd60e51b81526004016105ea91906116a2565b50600c546001600160a01b0382811691161461071e57600c80546001600160a01b0319166001600160a01b0383161790555b50565b61072b3382610d7b565b6107475760405162461bcd60e51b81526004016105ea90611929565b61068b838383610dfa565b60008061075f8484610e34565b915091509250929050565b600f8054610777906118ee565b80601f01602080910402602001604051908101604052809291908181526020018280546107a3906118ee565b80156107f05780601f106107c5576101008083540402835291602001916107f0565b820191906000526020600020905b8154815290600101906020018083116107d357829003601f168201915b505050505081565b600a5460408051808201909152600381526231303160e81b6020820152906001600160a01b0316331461083e5760405162461bcd60e51b81526004016105ea91906116a2565b50610847610e6c565b565b61068b83838360405180602001604052806000815250610a9a565b600e8054610777906118ee565b600a546001600160a01b03163314801561089357506001600160a01b03811615155b6040518060400160405280600381526020016231303160e81b815250906108cd5760405162461bcd60e51b81526004016105ea91906116a2565b50600d546001600160a01b0382811691161461071e57600d80546001600160a01b0383166001600160a01b031990911617905550565b60006001600160a01b03821661096d5760405162461bcd60e51b815260206004820152602960248201527f4552433732313a2061646472657373207a65726f206973206e6f7420612076616044820152683634b21037bbb732b960b91b60648201526084016105ea565b506001600160a01b031660009081526003602052604090205490565b610991610ebe565b6108476000610f18565b600a5460408051808201909152600381526231303160e81b6020820152906001600160a01b031633146109e15760405162461bcd60e51b81526004016105ea91906116a2565b50610847610f6a565b600a546001600160a01b031633148015610a0c57506001600160a01b03811615155b6040518060400160405280600381526020016231303160e81b81525090610a465760405162461bcd60e51b81526004016105ea91906116a2565b50600a546001600160a01b0382811691161461071e57600a80546001600160a01b0383166001600160a01b031990911617905550565b6060600f80546104cb906118ee565b610a96338383610fa7565b5050565b610aa43383610d7b565b610ac05760405162461bcd60e51b81526004016105ea90611929565b610acc84848484611076565b50505050565b6060610add82610c4e565b6000610af460408051602081019091526000815290565b90506000815111610b145760405180602001604052806000815250610b3f565b80610b1e846110a9565b604051602001610b2f929190611976565b6040516020818303038152906040525b9392505050565b610b4e610ebe565b6001600160a01b038116610bb35760405162461bcd60e51b815260206004820152602660248201527f4f776e61626c653a206e6577206f776e657220697320746865207a65726f206160448201526564647265737360d01b60648201526084016105ea565b61071e81610f18565b600a546001600160a01b031633148015610bde57506001600160a01b03811615155b6040518060400160405280600381526020016231303160e81b81525090610c185760405162461bcd60e51b81526004016105ea91906116a2565b50600b546001600160a01b0382811691161461071e57600b80546001600160a01b0383166001600160a01b031990911617905550565b6000818152600960205260409020546001600160a01b031661071e5760405162461bcd60e51b8152602060048201526018602482015277115490cdcc8c4e881a5b9d985b1a59081d1bdad95b88125160421b60448201526064016105ea565b6000818152600260205260408120546001600160a01b0316806104b65760405162461bcd60e51b8152602060048201526018602482015277115490cdcc8c4e881a5b9d985b1a59081d1bdad95b88125160421b60448201526064016105ea565b600081815260046020526040902080546001600160a01b0319166001600160a01b0384169081179091558190610d4282610cad565b6001600160a01b03167f8c5be1e5ebec7d5bd14f71427d1e84f3dd0314c0f7b2291e5b200ac8c7c3b92560405160405180910390a45050565b600080610d8783610cad565b9050806001600160a01b0316846001600160a01b03161480610dce57506001600160a01b0380821660009081526005602090815260408083209388168352929052205460ff165b80610df25750836001600160a01b0316610de78461054e565b6001600160a01b0316145b949350505050565b610e05838383611146565b600090815260096020526040902080546001600160a01b0319166001600160a01b039290921691909117905550565b600a5460009081906001600160a01b031681612710610e55866101f46119bb565b610e5f91906119da565b9196919550909350505050565b610e746112b7565b6006805460ff191690557f5db9ee0a495bf2e6ff9c91a7834c1ba4fdd244a5e8aa4e537bd38aeae4b073aa335b6040516001600160a01b03909116815260200160405180910390a1565b6008546001600160a01b031633146108475760405162461bcd60e51b815260206004820181905260248201527f4f776e61626c653a2063616c6c6572206973206e6f7420746865206f776e657260448201526064016105ea565b600880546001600160a01b038381166001600160a01b0319831681179093556040519116919082907f8be0079c531659141344cd1fd0a4f28419497f9722a3daafe3b4186f6b6457e090600090a35050565b610f72611300565b6006805460ff191660011790557f62e78cea01bee320cd4e420270b5ea74000d11b0c9f74754ebdbfc544b05a258610ea13390565b816001600160a01b0316836001600160a01b031614156110095760405162461bcd60e51b815260206004820152601960248201527f4552433732313a20617070726f766520746f2063616c6c65720000000000000060448201526064016105ea565b6001600160a01b03838116600081815260056020908152604080832094871680845294825291829020805460ff191686151590811790915591519182527f17307eab39ab6107e8899845ad3d59bd9653f200f220920489ca2b5937696c31910160405180910390a3505050565b611081848484610dfa565b61108d84848484611346565b610acc5760405162461bcd60e51b81526004016105ea906119fc565b606060006110b683611444565b600101905060008167ffffffffffffffff8111156110d6576110d66117c9565b6040519080825280601f01601f191660200182016040528015611100576020820181803683370190505b5090508181016020015b600019016f181899199a1a9b1b9c1cb0b131b232b360811b600a86061a8153600a85049450846111395761113e565b61110a565b509392505050565b826001600160a01b031661115982610cad565b6001600160a01b03161461117f5760405162461bcd60e51b81526004016105ea90611a4e565b6001600160a01b0382166111e15760405162461bcd60e51b8152602060048201526024808201527f4552433732313a207472616e7366657220746f20746865207a65726f206164646044820152637265737360e01b60648201526084016105ea565b6111ee838383600161151c565b826001600160a01b031661120182610cad565b6001600160a01b0316146112275760405162461bcd60e51b81526004016105ea90611a4e565b600081815260046020908152604080832080546001600160a01b03199081169091556001600160a01b0387811680865260038552838620805460001901905590871680865283862080546001019055868652600290945282852080549092168417909155905184937fddf252ad1be2c89b69c2b068fc378daa952ba7f163c4a11628f55a4df523b3ef91a4505050565b60065460ff166108475760405162461bcd60e51b815260206004820152601460248201527314185d5cd8589b194e881b9bdd081c185d5cd95960621b60448201526064016105ea565b60065460ff16156108475760405162461bcd60e51b815260206004820152601060248201526f14185d5cd8589b194e881c185d5cd95960821b60448201526064016105ea565b60006001600160a01b0384163b1561143957604051630a85bd0160e11b81526001600160a01b0385169063150b7a029061138a903390899088908890600401611a93565b6020604051808303816000875af19250505080156113c5575060408051601f3d908101601f191682019092526113c291810190611ad0565b60015b61141f573d8080156113f3576040519150601f19603f3d011682016040523d82523d6000602084013e6113f8565b606091505b5080516114175760405162461bcd60e51b81526004016105ea906119fc565b805181602001fd5b6001600160e01b031916630a85bd0160e11b149050610df2565b506001949350505050565b60008072184f03e93ff9f4daa797ed6e38ed64bf6a1f0160401b83106114835772184f03e93ff9f4daa797ed6e38ed64bf6a1f0160401b830492506040015b6d04ee2d6d415b85acef810000000083106114af576d04ee2d6d415b85acef8100000000830492506020015b662386f26fc1000083106114cd57662386f26fc10000830492506010015b6305f5e10083106114e5576305f5e100830492506008015b61271083106114f957612710830492506004015b6064831061150b576064830492506002015b600a83106104b65760010192915050565b6115288484848461158f565b60065460ff1615610acc5760405162461bcd60e51b815260206004820152602b60248201527f4552433732315061757361626c653a20746f6b656e207472616e73666572207760448201526a1a1a5b19481c185d5cd95960aa1b60648201526084016105ea565b6001811115610acc576001600160a01b038416156115d5576001600160a01b038416600090815260036020526040812080548392906115cf908490611aed565b90915550505b6001600160a01b03831615610acc576001600160a01b0383166000908152600360205260408120805483929061160c908490611b04565b909155505050505050565b6001600160e01b03198116811461071e57600080fd5b60006020828403121561163f57600080fd5b8135610b3f81611617565b60005b8381101561166557818101518382015260200161164d565b83811115610acc5750506000910152565b6000815180845261168e81602086016020860161164a565b601f01601f19169290920160200192915050565b602081526000610b3f6020830184611676565b6000602082840312156116c757600080fd5b5035919050565b80356001600160a01b03811681146116e557600080fd5b919050565b600080604083850312156116fd57600080fd5b611706836116ce565b946020939093013593505050565b60006020828403121561172657600080fd5b610b3f826116ce565b60008060006060848603121561174457600080fd5b61174d846116ce565b925061175b602085016116ce565b9150604084013590509250925092565b6000806040838503121561177e57600080fd5b50508035926020909101359150565b600080604083850312156117a057600080fd5b6117a9836116ce565b9150602083013580151581146117be57600080fd5b809150509250929050565b634e487b7160e01b600052604160045260246000fd5b600080600080608085870312156117f557600080fd5b6117fe856116ce565b935061180c602086016116ce565b925060408501359150606085013567ffffffffffffffff8082111561183057600080fd5b818701915087601f83011261184457600080fd5b813581811115611856576118566117c9565b604051601f8201601f19908116603f0116810190838211818310171561187e5761187e6117c9565b816040528281528a602084870101111561189757600080fd5b82602086016020830137600060208483010152809550505050505092959194509250565b600080604083850312156118ce57600080fd5b6118d7836116ce565b91506118e5602084016116ce565b90509250929050565b600181811c9082168061190257607f821691505b6020821081141561192357634e487b7160e01b600052602260045260246000fd5b50919050565b6020808252602d908201527f4552433732313a2063616c6c6572206973206e6f7420746f6b656e206f776e6560408201526c1c881bdc88185c1c1c9bdd9959609a1b606082015260800190565b6000835161198881846020880161164a565b83519083019061199c81836020880161164a565b01949350505050565b634e487b7160e01b600052601160045260246000fd5b60008160001904831182151516156119d5576119d56119a5565b500290565b6000826119f757634e487b7160e01b600052601260045260246000fd5b500490565b60208082526032908201527f4552433732313a207472616e7366657220746f206e6f6e20455243373231526560408201527131b2b4bb32b91034b6b83632b6b2b73a32b960711b606082015260800190565b60208082526025908201527f4552433732313a207472616e736665722066726f6d20696e636f72726563742060408201526437bbb732b960d91b606082015260800190565b6001600160a01b0385811682528416602082015260408101839052608060608201819052600090611ac690830184611676565b9695505050505050565b600060208284031215611ae257600080fd5b8151610b3f81611617565b600082821015611aff57611aff6119a5565b500390565b60008219821115611b1757611b176119a5565b50019056fea26469706673582212200039736d1ace4161d348c6f9582d2ef9e649502fb0532701c59a5d16f058422f64736f6c634300080c0033",
  "linkReferences": {},
  "deployedLinkReferences": {}
}