{
  "_format": "hh-sol-artifact-1",
  "contractName": "BaseERC721OwnerSeed",
  "sourceName": "contracts/nfts/BaseERC721OwnerSeed.sol",
  "abi": [
    {
      "inputs": [
        {
          "internalType": "string",
          "name": "name",
          "type": "string"
        },
        {
          "internalType": "string",
          "name": "symbol",
          "type": "string"
        }
      ],
      "stateMutability": "nonpayable",
      "type": "constructor"
    },
    {
      "anonymous": false,
      "inputs": [
        {
          "indexed": true,
          "internalType": "address",
          "name": "owner",
          "type": "address"
        },
        {
          "indexed": true,
          "internalType": "address",
          "name": "approved",
          "type": "address"
        },
        {
          "indexed": true,
          "internalType": "uint256",
          "name": "tokenId",
          "type": "uint256"
        }
      ],
      "name": "Approval",
      "type": "event"
    },
    {
      "anonymous": false,
      "inputs": [
        {
          "indexed": true,
          "internalType": "address",
          "name": "owner",
          "type": "address"
        },
        {
          "indexed": true,
          "internalType": "address",
          "name": "operator",
          "type": "address"
        },
        {
          "indexed": false,
          "internalType": "bool",
          "name": "approved",
          "type": "bool"
        }
      ],
      "name": "ApprovalForAll",
      "type": "event"
    },
    {
      "anonymous": false,
      "inputs": [
        {
          "indexed": true,
          "internalType": "address",
          "name": "previousOwner",
          "type": "address"
        },
        {
          "indexed": true,
          "internalType": "address",
          "name": "newOwner",
          "type": "address"
        }
      ],
      "name": "OwnershipTransferred",
      "type": "event"
    },
    {
      "anonymous": false,
      "inputs": [
        {
          "indexed": false,
          "internalType": "address",
          "name": "account",
          "type": "address"
        }
      ],
      "name": "Paused",
      "type": "event"
    },
    {
      "anonymous": false,
      "inputs": [
        {
          "indexed": true,
          "internalType": "address",
          "name": "from",
          "type": "address"
        },
        {
          "indexed": true,
          "internalType": "address",
          "name": "to",
          "type": "address"
        },
        {
          "indexed": true,
          "internalType": "uint256",
          "name": "tokenId",
          "type": "uint256"
        }
      ],
      "name": "Transfer",
      "type": "event"
    },
    {
      "anonymous": false,
      "inputs": [
        {
          "indexed": false,
          "internalType": "address",
          "name": "account",
          "type": "address"
        }
      ],
      "name": "Unpaused",
      "type": "event"
    },
    {
      "inputs": [],
      "name": "_admin",
      "outputs": [
        {
          "internalType": "address",
          "name": "",
          "type": "address"
        }
      ],
      "stateMutability": "view",
      "type": "function"
    },
    {
      "inputs": [],
      "name": "_paramsAddress",
      "outputs": [
        {
          "internalType": "address",
          "name": "",
          "type": "address"
        }
      ],
      "stateMutability": "view",
      "type": "function"
    },
    {
      "inputs": [],
      "name": "_randomizer",
      "outputs": [
        {
          "internalType": "address",
          "name": "",
          "type": "address"
        }
      ],
      "stateMutability": "view",
      "type": "function"
    },
    {
      "inputs": [
        {
          "internalType": "address",
          "name": "to",
          "type": "address"
        },
        {
          "internalType": "uint256",
          "name": "tokenId",
          "type": "uint256"
        }
      ],
      "name": "approve",
      "outputs": [],
      "stateMutability": "nonpayable",
      "type": "function"
    },
    {
      "inputs": [
        {
          "internalType": "address",
          "name": "owner",
          "type": "address"
        }
      ],
      "name": "balanceOf",
      "outputs": [
        {
          "internalType": "uint256",
          "name": "",
          "type": "uint256"
        }
      ],
      "stateMutability": "view",
      "type": "function"
    },
    {
      "inputs": [
        {
          "internalType": "address",
          "name": "newAdmin",
          "type": "address"
        }
      ],
      "name": "changeAdmin",
      "outputs": [],
      "stateMutability": "nonpayable",
      "type": "function"
    },
    {
      "inputs": [
        {
          "internalType": "uint256",
          "name": "tokenId",
          "type": "uint256"
        }
      ],
      "name": "getApproved",
      "outputs": [
        {
          "internalType": "address",
          "name": "",
          "type": "address"
        }
      ],
      "stateMutability": "view",
      "type": "function"
    },
    {
      "inputs": [
        {
          "internalType": "address",
          "name": "owner",
          "type": "address"
        },
        {
          "internalType": "address",
          "name": "operator",
          "type": "address"
        }
      ],
      "name": "isApprovedForAll",
      "outputs": [
        {
          "internalType": "bool",
          "name": "",
          "type": "bool"
        }
      ],
      "stateMutability": "view",
      "type": "function"
    },
    {
      "inputs": [],
      "name": "name",
      "outputs": [
        {
          "internalType": "string",
          "name": "",
          "type": "string"
        }
      ],
      "stateMutability": "view",
      "type": "function"
    },
    {
      "inputs": [],
      "name": "owner",
      "outputs": [
        {
          "internalType": "address",
          "name": "",
          "type": "address"
        }
      ],
      "stateMutability": "view",
      "type": "function"
    },
    {
      "inputs": [
        {
          "internalType": "uint256",
          "name": "tokenId",
          "type": "uint256"
        }
      ],
      "name": "ownerOf",
      "outputs": [
        {
          "internalType": "address",
          "name": "",
          "type": "address"
        }
      ],
      "stateMutability": "view",
      "type": "function"
    },
    {
      "inputs": [],
      "name": "pause",
      "outputs": [],
      "stateMutability": "nonpayable",
      "type": "function"
    },
    {
      "inputs": [],
      "name": "paused",
      "outputs": [
        {
          "internalType": "bool",
          "name": "",
          "type": "bool"
        }
      ],
      "stateMutability": "view",
      "type": "function"
    },
    {
      "inputs": [],
      "name": "renounceOwnership",
      "outputs": [],
      "stateMutability": "nonpayable",
      "type": "function"
    },
    {
      "inputs": [
        {
          "internalType": "uint256",
          "name": "_tokenId",
          "type": "uint256"
        },
        {
          "internalType": "uint256",
          "name": "_salePrice",
          "type": "uint256"
        }
      ],
      "name": "royaltyInfo",
      "outputs": [
        {
          "internalType": "address",
          "name": "receiver",
          "type": "address"
        },
        {
          "internalType": "uint256",
          "name": "royaltyAmount",
          "type": "uint256"
        }
      ],
      "stateMutability": "view",
      "type": "function"
    },
    {
      "inputs": [
        {
          "internalType": "address",
          "name": "from",
          "type": "address"
        },
        {
          "internalType": "address",
          "name": "to",
          "type": "address"
        },
        {
          "internalType": "uint256",
          "name": "tokenId",
          "type": "uint256"
        }
      ],
      "name": "safeTransferFrom",
      "outputs": [],
      "stateMutability": "nonpayable",
      "type": "function"
    },
    {
      "inputs": [
        {
          "internalType": "address",
          "name": "from",
          "type": "address"
        },
        {
          "internalType": "address",
          "name": "to",
          "type": "address"
        },
        {
          "internalType": "uint256",
          "name": "tokenId",
          "type": "uint256"
        },
        {
          "internalType": "bytes",
          "name": "data",
          "type": "bytes"
        }
      ],
      "name": "safeTransferFrom",
      "outputs": [],
      "stateMutability": "nonpayable",
      "type": "function"
    },
    {
      "inputs": [
        {
          "internalType": "address",
          "name": "operator",
          "type": "address"
        },
        {
          "internalType": "bool",
          "name": "approved",
          "type": "bool"
        }
      ],
      "name": "setApprovalForAll",
      "outputs": [],
      "stateMutability": "nonpayable",
      "type": "function"
    },
    {
      "inputs": [
        {
          "internalType": "bytes4",
          "name": "interfaceId",
          "type": "bytes4"
        }
      ],
      "name": "supportsInterface",
      "outputs": [
        {
          "internalType": "bool",
          "name": "",
          "type": "bool"
        }
      ],
      "stateMutability": "view",
      "type": "function"
    },
    {
      "inputs": [],
      "name": "symbol",
      "outputs": [
        {
          "internalType": "string",
          "name": "",
          "type": "string"
        }
      ],
      "stateMutability": "view",
      "type": "function"
    },
    {
      "inputs": [
        {
          "internalType": "uint256",
          "name": "tokenId",
          "type": "uint256"
        }
      ],
      "name": "tokenURI",
      "outputs": [
        {
          "internalType": "string",
          "name": "",
          "type": "string"
        }
      ],
      "stateMutability": "view",
      "type": "function"
    },
    {
      "inputs": [
        {
          "internalType": "address",
          "name": "from",
          "type": "address"
        },
        {
          "internalType": "address",
          "name": "to",
          "type": "address"
        },
        {
          "internalType": "uint256",
          "name": "tokenId",
          "type": "uint256"
        }
      ],
      "name": "transferFrom",
      "outputs": [],
      "stateMutability": "nonpayable",
      "type": "function"
    },
    {
      "inputs": [
        {
          "internalType": "address",
          "name": "newOwner",
          "type": "address"
        }
      ],
      "name": "transferOwnership",
      "outputs": [],
      "stateMutability": "nonpayable",
      "type": "function"
    },
    {
      "inputs": [],
      "name": "unpause",
      "outputs": [],
      "stateMutability": "nonpayable",
      "type": "function"
    }
  ],
  "bytecode": "0x60806040523480156200001157600080fd5b5060405162001ad238038062001ad283398101604081905262000034916200024d565b8151829082906200004d906000906020850190620000da565b50805162000063906001906020840190620000da565b50506006805460ff19169055506001600755620000803362000088565b5050620002f4565b600880546001600160a01b038381166001600160a01b0319831681179093556040519116919082907f8be0079c531659141344cd1fd0a4f28419497f9722a3daafe3b4186f6b6457e090600090a35050565b828054620000e890620002b7565b90600052602060002090601f0160209004810192826200010c576000855562000157565b82601f106200012757805160ff191683800117855562000157565b8280016001018555821562000157579182015b82811115620001575782518255916020019190600101906200013a565b506200016592915062000169565b5090565b5b808211156200016557600081556001016200016a565b634e487b7160e01b600052604160045260246000fd5b600082601f830112620001a857600080fd5b81516001600160401b0380821115620001c557620001c562000180565b604051601f8301601f19908116603f01168101908282118183101715620001f057620001f062000180565b816040528381526020925086838588010111156200020d57600080fd5b600091505b8382101562000231578582018301518183018401529082019062000212565b83821115620002435760008385830101525b9695505050505050565b600080604083850312156200026157600080fd5b82516001600160401b03808211156200027957600080fd5b620002878683870162000196565b935060208501519150808211156200029e57600080fd5b50620002ad8582860162000196565b9150509250929050565b600181811c90821680620002cc57607f821691505b60208210811415620002ee57634e487b7160e01b600052602260045260246000fd5b50919050565b6117ce80620003046000396000f3fe608060405234801561001057600080fd5b50600436106101585760003560e01c8063715018a6116100c3578063adfc7dae1161007c578063adfc7dae146102f1578063b88d4fde14610304578063c87b56dd14610317578063e985e9c51461032a578063f2fde38b14610366578063ffc27c0e1461037957600080fd5b8063715018a6146102a25780638456cb59146102aa5780638da5cb5b146102b25780638f283970146102c357806395d89b41146102d6578063a22cb465146102de57600080fd5b80632a55205a116101155780632a55205a146102005780633f4ba83a1461023257806342842e0e1461023a5780635c975abb1461024d5780636352211e1461025857806370a082311461028157600080fd5b806301bc45c91461015d57806301ffc9a71461018d57806306fdde03146101b0578063081812fc146101c5578063095ea7b3146101d857806323b872dd146101ed575b600080fd5b600a54610170906001600160a01b031681565b6040516001600160a01b0390911681526020015b60405180910390f35b6101a061019b3660046112a9565b61038c565b6040519015158152602001610184565b6101b86103de565b604051610184919061131e565b6101706101d3366004611331565b610470565b6101eb6101e6366004611366565b610497565b005b6101eb6101fb366004611390565b6105b2565b61021361020e3660046113cc565b6105e3565b604080516001600160a01b039093168352602083019190915201610184565b6101eb6105fb565b6101eb610248366004611390565b61064c565b60065460ff166101a0565b610170610266366004611331565b6000908152600960205260409020546001600160a01b031690565b61029461028f3660046113ee565b610667565b604051908152602001610184565b6101eb6106ed565b6101eb6106ff565b6008546001600160a01b0316610170565b6101eb6102d13660046113ee565b61074e565b6101b8610787565b6101eb6102ec366004611409565b610796565b600b54610170906001600160a01b031681565b6101eb61031236600461145b565b6107a5565b6101b8610325366004611331565b6107dd565b6101a0610338366004611537565b6001600160a01b03918216600090815260056020908152604080832093909416825291909152205460ff1690565b6101eb6103743660046113ee565b610851565b600c54610170906001600160a01b031681565b60006001600160e01b031982166380ac58cd60e01b14806103bd57506001600160e01b03198216635b5e139f60e01b145b806103d857506301ffc9a760e01b6001600160e01b03198316145b92915050565b6060600080546103ed9061156a565b80601f01602080910402602001604051908101604052809291908181526020018280546104199061156a565b80156104665780601f1061043b57610100808354040283529160200191610466565b820191906000526020600020905b81548152906001019060200180831161044957829003601f168201915b5050505050905090565b600061047b826108ca565b506000908152600460205260409020546001600160a01b031690565b60006104a282610929565b9050806001600160a01b0316836001600160a01b031614156105155760405162461bcd60e51b815260206004820152602160248201527f4552433732313a20617070726f76616c20746f2063757272656e74206f776e656044820152603960f91b60648201526084015b60405180910390fd5b336001600160a01b038216148061053157506105318133610338565b6105a35760405162461bcd60e51b815260206004820152603d60248201527f4552433732313a20617070726f76652063616c6c6572206973206e6f7420746f60448201527f6b656e206f776e6572206f7220617070726f76656420666f7220616c6c000000606482015260840161050c565b6105ad8383610989565b505050565b6105bc33826109f7565b6105d85760405162461bcd60e51b815260040161050c906115a5565b6105ad838383610a76565b6000806105f08484610ab0565b915091509250929050565b600a5460408051808201909152600381526231303160e81b6020820152906001600160a01b031633146106415760405162461bcd60e51b815260040161050c919061131e565b5061064a610ae8565b565b6105ad838383604051806020016040528060008152506107a5565b60006001600160a01b0382166106d15760405162461bcd60e51b815260206004820152602960248201527f4552433732313a2061646472657373207a65726f206973206e6f7420612076616044820152683634b21037bbb732b960b91b606482015260840161050c565b506001600160a01b031660009081526003602052604090205490565b6106f5610b3a565b61064a6000610b94565b600a5460408051808201909152600381526231303160e81b6020820152906001600160a01b031633146107455760405162461bcd60e51b815260040161050c919061131e565b5061064a610be6565b600a546001600160a01b0316331461076557600080fd5b600a80546001600160a01b0319166001600160a01b0392909216919091179055565b6060600180546103ed9061156a565b6107a1338383610c23565b5050565b6107af33836109f7565b6107cb5760405162461bcd60e51b815260040161050c906115a5565b6107d784848484610cf2565b50505050565b60606107e8826108ca565b60006107ff60408051602081019091526000815290565b9050600081511161081f576040518060200160405280600081525061084a565b8061082984610d25565b60405160200161083a9291906115f2565b6040516020818303038152906040525b9392505050565b610859610b3a565b6001600160a01b0381166108be5760405162461bcd60e51b815260206004820152602660248201527f4f776e61626c653a206e6577206f776e657220697320746865207a65726f206160448201526564647265737360d01b606482015260840161050c565b6108c781610b94565b50565b6000818152600960205260409020546001600160a01b03166108c75760405162461bcd60e51b8152602060048201526018602482015277115490cdcc8c4e881a5b9d985b1a59081d1bdad95b88125160421b604482015260640161050c565b6000818152600260205260408120546001600160a01b0316806103d85760405162461bcd60e51b8152602060048201526018602482015277115490cdcc8c4e881a5b9d985b1a59081d1bdad95b88125160421b604482015260640161050c565b600081815260046020526040902080546001600160a01b0319166001600160a01b03841690811790915581906109be82610929565b6001600160a01b03167f8c5be1e5ebec7d5bd14f71427d1e84f3dd0314c0f7b2291e5b200ac8c7c3b92560405160405180910390a45050565b600080610a0383610929565b9050806001600160a01b0316846001600160a01b03161480610a4a57506001600160a01b0380821660009081526005602090815260408083209388168352929052205460ff165b80610a6e5750836001600160a01b0316610a6384610470565b6001600160a01b0316145b949350505050565b610a81838383610dc2565b600090815260096020526040902080546001600160a01b0319166001600160a01b039290921691909117905550565b600a5460009081906001600160a01b031681612710610ad1866101f4611637565b610adb9190611656565b9196919550909350505050565b610af0610f33565b6006805460ff191690557f5db9ee0a495bf2e6ff9c91a7834c1ba4fdd244a5e8aa4e537bd38aeae4b073aa335b6040516001600160a01b03909116815260200160405180910390a1565b6008546001600160a01b0316331461064a5760405162461bcd60e51b815260206004820181905260248201527f4f776e61626c653a2063616c6c6572206973206e6f7420746865206f776e6572604482015260640161050c565b600880546001600160a01b038381166001600160a01b0319831681179093556040519116919082907f8be0079c531659141344cd1fd0a4f28419497f9722a3daafe3b4186f6b6457e090600090a35050565b610bee610f7c565b6006805460ff191660011790557f62e78cea01bee320cd4e420270b5ea74000d11b0c9f74754ebdbfc544b05a258610b1d3390565b816001600160a01b0316836001600160a01b03161415610c855760405162461bcd60e51b815260206004820152601960248201527f4552433732313a20617070726f766520746f2063616c6c657200000000000000604482015260640161050c565b6001600160a01b03838116600081815260056020908152604080832094871680845294825291829020805460ff191686151590811790915591519182527f17307eab39ab6107e8899845ad3d59bd9653f200f220920489ca2b5937696c31910160405180910390a3505050565b610cfd848484610a76565b610d0984848484610fc2565b6107d75760405162461bcd60e51b815260040161050c90611678565b60606000610d32836110c0565b600101905060008167ffffffffffffffff811115610d5257610d52611445565b6040519080825280601f01601f191660200182016040528015610d7c576020820181803683370190505b5090508181016020015b600019016f181899199a1a9b1b9c1cb0b131b232b360811b600a86061a8153600a8504945084610db557610dba565b610d86565b509392505050565b826001600160a01b0316610dd582610929565b6001600160a01b031614610dfb5760405162461bcd60e51b815260040161050c906116ca565b6001600160a01b038216610e5d5760405162461bcd60e51b8152602060048201526024808201527f4552433732313a207472616e7366657220746f20746865207a65726f206164646044820152637265737360e01b606482015260840161050c565b610e6a8383836001611198565b826001600160a01b0316610e7d82610929565b6001600160a01b031614610ea35760405162461bcd60e51b815260040161050c906116ca565b600081815260046020908152604080832080546001600160a01b03199081169091556001600160a01b0387811680865260038552838620805460001901905590871680865283862080546001019055868652600290945282852080549092168417909155905184937fddf252ad1be2c89b69c2b068fc378daa952ba7f163c4a11628f55a4df523b3ef91a4505050565b60065460ff1661064a5760405162461bcd60e51b815260206004820152601460248201527314185d5cd8589b194e881b9bdd081c185d5cd95960621b604482015260640161050c565b60065460ff161561064a5760405162461bcd60e51b815260206004820152601060248201526f14185d5cd8589b194e881c185d5cd95960821b604482015260640161050c565b60006001600160a01b0384163b156110b557604051630a85bd0160e11b81526001600160a01b0385169063150b7a029061100690339089908890889060040161170f565b6020604051808303816000875af1925050508015611041575060408051601f3d908101601f1916820190925261103e9181019061174c565b60015b61109b573d80801561106f576040519150601f19603f3d011682016040523d82523d6000602084013e611074565b606091505b5080516110935760405162461bcd60e51b815260040161050c90611678565b805181602001fd5b6001600160e01b031916630a85bd0160e11b149050610a6e565b506001949350505050565b60008072184f03e93ff9f4daa797ed6e38ed64bf6a1f0160401b83106110ff5772184f03e93ff9f4daa797ed6e38ed64bf6a1f0160401b830492506040015b6d04ee2d6d415b85acef8100000000831061112b576d04ee2d6d415b85acef8100000000830492506020015b662386f26fc10000831061114957662386f26fc10000830492506010015b6305f5e1008310611161576305f5e100830492506008015b612710831061117557612710830492506004015b60648310611187576064830492506002015b600a83106103d85760010192915050565b6111a48484848461120b565b60065460ff16156107d75760405162461bcd60e51b815260206004820152602b60248201527f4552433732315061757361626c653a20746f6b656e207472616e73666572207760448201526a1a1a5b19481c185d5cd95960aa1b606482015260840161050c565b60018111156107d7576001600160a01b03841615611251576001600160a01b0384166000908152600360205260408120805483929061124b908490611769565b90915550505b6001600160a01b038316156107d7576001600160a01b03831660009081526003602052604081208054839290611288908490611780565b909155505050505050565b6001600160e01b0319811681146108c757600080fd5b6000602082840312156112bb57600080fd5b813561084a81611293565b60005b838110156112e15781810151838201526020016112c9565b838111156107d75750506000910152565b6000815180845261130a8160208601602086016112c6565b601f01601f19169290920160200192915050565b60208152600061084a60208301846112f2565b60006020828403121561134357600080fd5b5035919050565b80356001600160a01b038116811461136157600080fd5b919050565b6000806040838503121561137957600080fd5b6113828361134a565b946020939093013593505050565b6000806000606084860312156113a557600080fd5b6113ae8461134a565b92506113bc6020850161134a565b9150604084013590509250925092565b600080604083850312156113df57600080fd5b50508035926020909101359150565b60006020828403121561140057600080fd5b61084a8261134a565b6000806040838503121561141c57600080fd5b6114258361134a565b91506020830135801515811461143a57600080fd5b809150509250929050565b634e487b7160e01b600052604160045260246000fd5b6000806000806080858703121561147157600080fd5b61147a8561134a565b93506114886020860161134a565b925060408501359150606085013567ffffffffffffffff808211156114ac57600080fd5b818701915087601f8301126114c057600080fd5b8135818111156114d2576114d2611445565b604051601f8201601f19908116603f011681019083821181831017156114fa576114fa611445565b816040528281528a602084870101111561151357600080fd5b82602086016020830137600060208483010152809550505050505092959194509250565b6000806040838503121561154a57600080fd5b6115538361134a565b91506115616020840161134a565b90509250929050565b600181811c9082168061157e57607f821691505b6020821081141561159f57634e487b7160e01b600052602260045260246000fd5b50919050565b6020808252602d908201527f4552433732313a2063616c6c6572206973206e6f7420746f6b656e206f776e6560408201526c1c881bdc88185c1c1c9bdd9959609a1b606082015260800190565b600083516116048184602088016112c6565b8351908301906116188183602088016112c6565b01949350505050565b634e487b7160e01b600052601160045260246000fd5b600081600019048311821515161561165157611651611621565b500290565b60008261167357634e487b7160e01b600052601260045260246000fd5b500490565b60208082526032908201527f4552433732313a207472616e7366657220746f206e6f6e20455243373231526560408201527131b2b4bb32b91034b6b83632b6b2b73a32b960711b606082015260800190565b60208082526025908201527f4552433732313a207472616e736665722066726f6d20696e636f72726563742060408201526437bbb732b960d91b606082015260800190565b6001600160a01b0385811682528416602082015260408101839052608060608201819052600090611742908301846112f2565b9695505050505050565b60006020828403121561175e57600080fd5b815161084a81611293565b60008282101561177b5761177b611621565b500390565b6000821982111561179357611793611621565b50019056fea2646970667358221220e8107d4aa813993152c68889efe9295c75885a73bcae93ef403b03ad03387f7c64736f6c634300080c0033",
  "linkReferences": {},
  "deployedLinkReferences": {}
}