{
  "_format": "hh-sol-artifact-1",
  "contractName": "BaseERC721OwnerSeed",
  "sourceName": "contracts/nfts/BaseERC721OwnerSeed.sol",
  "abi": [
    {
      "inputs": [
        {
          "internalType": "string",
          "name": "name",
          "type": "string"
        },
        {
          "internalType": "string",
          "name": "symbol",
          "type": "string"
        }
      ],
      "stateMutability": "nonpayable",
      "type": "constructor"
    },
    {
      "anonymous": false,
      "inputs": [
        {
          "indexed": true,
          "internalType": "address",
          "name": "owner",
          "type": "address"
        },
        {
          "indexed": true,
          "internalType": "address",
          "name": "approved",
          "type": "address"
        },
        {
          "indexed": true,
          "internalType": "uint256",
          "name": "tokenId",
          "type": "uint256"
        }
      ],
      "name": "Approval",
      "type": "event"
    },
    {
      "anonymous": false,
      "inputs": [
        {
          "indexed": true,
          "internalType": "address",
          "name": "owner",
          "type": "address"
        },
        {
          "indexed": true,
          "internalType": "address",
          "name": "operator",
          "type": "address"
        },
        {
          "indexed": false,
          "internalType": "bool",
          "name": "approved",
          "type": "bool"
        }
      ],
      "name": "ApprovalForAll",
      "type": "event"
    },
    {
      "anonymous": false,
      "inputs": [
        {
          "indexed": true,
          "internalType": "address",
          "name": "previousOwner",
          "type": "address"
        },
        {
          "indexed": true,
          "internalType": "address",
          "name": "newOwner",
          "type": "address"
        }
      ],
      "name": "OwnershipTransferred",
      "type": "event"
    },
    {
      "anonymous": false,
      "inputs": [
        {
          "indexed": false,
          "internalType": "address",
          "name": "account",
          "type": "address"
        }
      ],
      "name": "Paused",
      "type": "event"
    },
    {
      "anonymous": false,
      "inputs": [
        {
          "indexed": true,
          "internalType": "address",
          "name": "from",
          "type": "address"
        },
        {
          "indexed": true,
          "internalType": "address",
          "name": "to",
          "type": "address"
        },
        {
          "indexed": true,
          "internalType": "uint256",
          "name": "tokenId",
          "type": "uint256"
        }
      ],
      "name": "Transfer",
      "type": "event"
    },
    {
      "anonymous": false,
      "inputs": [
        {
          "indexed": false,
          "internalType": "address",
          "name": "account",
          "type": "address"
        }
      ],
      "name": "Unpaused",
      "type": "event"
    },
    {
      "inputs": [],
      "name": "_admin",
      "outputs": [
        {
          "internalType": "address",
          "name": "",
          "type": "address"
        }
      ],
      "stateMutability": "view",
      "type": "function"
    },
    {
      "inputs": [],
      "name": "_nameCol",
      "outputs": [
        {
          "internalType": "string",
          "name": "",
          "type": "string"
        }
      ],
      "stateMutability": "view",
      "type": "function"
    },
    {
      "inputs": [],
      "name": "_paramsAddress",
      "outputs": [
        {
          "internalType": "address",
          "name": "",
          "type": "address"
        }
      ],
      "stateMutability": "view",
      "type": "function"
    },
    {
      "inputs": [],
      "name": "_projectDataContextAddr",
      "outputs": [
        {
          "internalType": "address",
          "name": "",
          "type": "address"
        }
      ],
      "stateMutability": "view",
      "type": "function"
    },
    {
      "inputs": [],
      "name": "_randomizer",
      "outputs": [
        {
          "internalType": "address",
          "name": "",
          "type": "address"
        }
      ],
      "stateMutability": "view",
      "type": "function"
    },
    {
      "inputs": [],
      "name": "_royalty",
      "outputs": [
        {
          "internalType": "uint256",
          "name": "",
          "type": "uint256"
        }
      ],
      "stateMutability": "view",
      "type": "function"
    },
    {
      "inputs": [],
      "name": "_symbolCol",
      "outputs": [
        {
          "internalType": "string",
          "name": "",
          "type": "string"
        }
      ],
      "stateMutability": "view",
      "type": "function"
    },
    {
      "inputs": [
        {
          "internalType": "address",
          "name": "to",
          "type": "address"
        },
        {
          "internalType": "uint256",
          "name": "tokenId",
          "type": "uint256"
        }
      ],
      "name": "approve",
      "outputs": [],
      "stateMutability": "nonpayable",
      "type": "function"
    },
    {
      "inputs": [
        {
          "internalType": "address",
          "name": "owner",
          "type": "address"
        }
      ],
      "name": "balanceOf",
      "outputs": [
        {
          "internalType": "uint256",
          "name": "",
          "type": "uint256"
        }
      ],
      "stateMutability": "view",
      "type": "function"
    },
    {
      "inputs": [
        {
          "internalType": "address",
          "name": "newAdm",
          "type": "address"
        }
      ],
      "name": "changeAdmin",
      "outputs": [],
      "stateMutability": "nonpayable",
      "type": "function"
    },
    {
      "inputs": [
        {
          "internalType": "address",
          "name": "newAddr",
          "type": "address"
        }
      ],
      "name": "changeDataContextAddr",
      "outputs": [],
      "stateMutability": "nonpayable",
      "type": "function"
    },
    {
      "inputs": [
        {
          "internalType": "address",
          "name": "newAddr",
          "type": "address"
        }
      ],
      "name": "changeParamAddr",
      "outputs": [],
      "stateMutability": "nonpayable",
      "type": "function"
    },
    {
      "inputs": [
        {
          "internalType": "address",
          "name": "newAddr",
          "type": "address"
        }
      ],
      "name": "changeRandomizerAddr",
      "outputs": [],
      "stateMutability": "nonpayable",
      "type": "function"
    },
    {
      "inputs": [
        {
          "internalType": "uint256",
          "name": "tokenId",
          "type": "uint256"
        }
      ],
      "name": "getApproved",
      "outputs": [
        {
          "internalType": "address",
          "name": "",
          "type": "address"
        }
      ],
      "stateMutability": "view",
      "type": "function"
    },
    {
      "inputs": [],
      "name": "getStatus",
      "outputs": [
        {
          "internalType": "bool",
          "name": "",
          "type": "bool"
        }
      ],
      "stateMutability": "view",
      "type": "function"
    },
    {
      "inputs": [
        {
          "internalType": "address",
          "name": "owner",
          "type": "address"
        },
        {
          "internalType": "address",
          "name": "operator",
          "type": "address"
        }
      ],
      "name": "isApprovedForAll",
      "outputs": [
        {
          "internalType": "bool",
          "name": "",
          "type": "bool"
        }
      ],
      "stateMutability": "view",
      "type": "function"
    },
    {
      "inputs": [],
      "name": "name",
      "outputs": [
        {
          "internalType": "string",
          "name": "",
          "type": "string"
        }
      ],
      "stateMutability": "view",
      "type": "function"
    },
    {
      "inputs": [],
      "name": "owner",
      "outputs": [
        {
          "internalType": "address",
          "name": "",
          "type": "address"
        }
      ],
      "stateMutability": "view",
      "type": "function"
    },
    {
      "inputs": [
        {
          "internalType": "uint256",
          "name": "tokenId",
          "type": "uint256"
        }
      ],
      "name": "ownerOf",
      "outputs": [
        {
          "internalType": "address",
          "name": "",
          "type": "address"
        }
      ],
      "stateMutability": "view",
      "type": "function"
    },
    {
      "inputs": [],
      "name": "paused",
      "outputs": [
        {
          "internalType": "bool",
          "name": "",
          "type": "bool"
        }
      ],
      "stateMutability": "view",
      "type": "function"
    },
    {
      "inputs": [],
      "name": "renounceOwnership",
      "outputs": [],
      "stateMutability": "nonpayable",
      "type": "function"
    },
    {
      "inputs": [
        {
          "internalType": "uint256",
          "name": "_tokenId",
          "type": "uint256"
        },
        {
          "internalType": "uint256",
          "name": "_salePrice",
          "type": "uint256"
        }
      ],
      "name": "royaltyInfo",
      "outputs": [
        {
          "internalType": "address",
          "name": "receiver",
          "type": "address"
        },
        {
          "internalType": "uint256",
          "name": "royaltyAmount",
          "type": "uint256"
        }
      ],
      "stateMutability": "view",
      "type": "function"
    },
    {
      "inputs": [
        {
          "internalType": "address",
          "name": "from",
          "type": "address"
        },
        {
          "internalType": "address",
          "name": "to",
          "type": "address"
        },
        {
          "internalType": "uint256",
          "name": "tokenId",
          "type": "uint256"
        }
      ],
      "name": "safeTransferFrom",
      "outputs": [],
      "stateMutability": "nonpayable",
      "type": "function"
    },
    {
      "inputs": [
        {
          "internalType": "address",
          "name": "from",
          "type": "address"
        },
        {
          "internalType": "address",
          "name": "to",
          "type": "address"
        },
        {
          "internalType": "uint256",
          "name": "tokenId",
          "type": "uint256"
        },
        {
          "internalType": "bytes",
          "name": "data",
          "type": "bytes"
        }
      ],
      "name": "safeTransferFrom",
      "outputs": [],
      "stateMutability": "nonpayable",
      "type": "function"
    },
    {
      "inputs": [
        {
          "internalType": "address",
          "name": "operator",
          "type": "address"
        },
        {
          "internalType": "bool",
          "name": "approved",
          "type": "bool"
        }
      ],
      "name": "setApprovalForAll",
      "outputs": [],
      "stateMutability": "nonpayable",
      "type": "function"
    },
    {
      "inputs": [
        {
          "internalType": "bytes4",
          "name": "interfaceId",
          "type": "bytes4"
        }
      ],
      "name": "supportsInterface",
      "outputs": [
        {
          "internalType": "bool",
          "name": "",
          "type": "bool"
        }
      ],
      "stateMutability": "view",
      "type": "function"
    },
    {
      "inputs": [],
      "name": "symbol",
      "outputs": [
        {
          "internalType": "string",
          "name": "",
          "type": "string"
        }
      ],
      "stateMutability": "view",
      "type": "function"
    },
    {
      "inputs": [
        {
          "internalType": "uint256",
          "name": "tokenId",
          "type": "uint256"
        }
      ],
      "name": "tokenURI",
      "outputs": [
        {
          "internalType": "string",
          "name": "",
          "type": "string"
        }
      ],
      "stateMutability": "view",
      "type": "function"
    },
    {
      "inputs": [
        {
          "internalType": "address",
          "name": "from",
          "type": "address"
        },
        {
          "internalType": "address",
          "name": "to",
          "type": "address"
        },
        {
          "internalType": "uint256",
          "name": "tokenId",
          "type": "uint256"
        }
      ],
      "name": "transferFrom",
      "outputs": [],
      "stateMutability": "nonpayable",
      "type": "function"
    },
    {
      "inputs": [
        {
          "internalType": "address",
          "name": "newOwner",
          "type": "address"
        }
      ],
      "name": "transferOwnership",
      "outputs": [],
      "stateMutability": "nonpayable",
      "type": "function"
    }
  ],
  "bytecode": "0x60806040523480156200001157600080fd5b5060405162001d9438038062001d9483398101604081905262000034916200024d565b8151829082906200004d906000906020850190620000da565b50805162000063906001906020840190620000da565b50506006805460ff19169055506001600755620000803362000088565b5050620002f4565b600880546001600160a01b038381166001600160a01b0319831681179093556040519116919082907f8be0079c531659141344cd1fd0a4f28419497f9722a3daafe3b4186f6b6457e090600090a35050565b828054620000e890620002b7565b90600052602060002090601f0160209004810192826200010c576000855562000157565b82601f106200012757805160ff191683800117855562000157565b8280016001018555821562000157579182015b82811115620001575782518255916020019190600101906200013a565b506200016592915062000169565b5090565b5b808211156200016557600081556001016200016a565b634e487b7160e01b600052604160045260246000fd5b600082601f830112620001a857600080fd5b81516001600160401b0380821115620001c557620001c562000180565b604051601f8301601f19908116603f01168101908282118183101715620001f057620001f062000180565b816040528381526020925086838588010111156200020d57600080fd5b600091505b8382101562000231578582018301518183018401529082019062000212565b83821115620002435760008385830101525b9695505050505050565b600080604083850312156200026157600080fd5b82516001600160401b03808211156200027957600080fd5b620002878683870162000196565b935060208501519150808211156200029e57600080fd5b50620002ad8582860162000196565b9150509250929050565b600181811c90821680620002cc57607f821691505b60208210811415620002ee57634e487b7160e01b600052602260045260246000fd5b50919050565b611a9080620003046000396000f3fe608060405234801561001057600080fd5b50600436106101da5760003560e01c80635c975abb11610104578063a22cb465116100a2578063e985e9c511610071578063e985e9c5146103f6578063f2fde38b14610432578063febfd6c314610445578063ffc27c0e1461045857600080fd5b8063a22cb465146103aa578063adfc7dae146103bd578063b88d4fde146103d0578063c87b56dd146103e357600080fd5b8063715018a6116100de578063715018a6146103765780638da5cb5b1461037e5780638f2839701461038f57806395d89b41146103a257600080fd5b80635c975abb1461032f5780636352211e1461033a57806370a082311461036357600080fd5b80632a55205a1161017c578063452fa3d31161014b578063452fa3d3146102f9578063472f1e02146103015780634e69d56014610314578063575b57ea1461031c57600080fd5b80632a55205a1461029557806336a0a6cb146102c75780633b66b00a146102cf57806342842e0e146102e657600080fd5b8063081812fc116101b8578063081812fc14610247578063095ea7b31461025a5780631ca9741b1461026f57806323b872dd1461028257600080fd5b806301bc45c9146101df57806301ffc9a71461020f57806306fdde0314610232575b600080fd5b600a546101f2906001600160a01b031681565b6040516001600160a01b0390911681526020015b60405180910390f35b61022261021d36600461154b565b61046b565b6040519015158152602001610206565b61023a6104bd565b60405161020691906115c0565b6101f26102553660046115d3565b61054f565b61026d610268366004611601565b610576565b005b61026d61027d36600461162d565b610691565b61026d61029036600461164a565b610722565b6102a86102a336600461168b565b610753565b604080516001600160a01b039093168352602083019190915201610206565b61023a61076b565b6102d860105481565b604051908152602001610206565b61026d6102f436600461164a565b6107f9565b61023a610814565b61026d61030f36600461162d565b610821565b6102226108b3565b600d546101f2906001600160a01b031681565b60065460ff16610222565b6101f26103483660046115d3565b6000908152600960205260409020546001600160a01b031690565b6102d861037136600461162d565b6108c7565b61026d61094d565b6008546001600160a01b03166101f2565b61026d61039d36600461162d565b610961565b61023a6109f3565b61026d6103b83660046116ad565b610a02565b600b546101f2906001600160a01b031681565b61026d6103de366004611701565b610a11565b61023a6103f13660046115d3565b610a49565b6102226104043660046117e1565b6001600160a01b03918216600090815260056020908152604080832093909416825291909152205460ff1690565b61026d61044036600461162d565b610abd565b61026d61045336600461162d565b610b33565b600c546101f2906001600160a01b031681565b60006001600160e01b031982166380ac58cd60e01b148061049c57506001600160e01b03198216635b5e139f60e01b145b806104b757506301ffc9a760e01b6001600160e01b03198316145b92915050565b6060600e80546104cc9061180f565b80601f01602080910402602001604051908101604052809291908181526020018280546104f89061180f565b80156105455780601f1061051a57610100808354040283529160200191610545565b820191906000526020600020905b81548152906001019060200180831161052857829003601f168201915b5050505050905090565b600061055a82610bc5565b506000908152600460205260409020546001600160a01b031690565b600061058182610c24565b9050806001600160a01b0316836001600160a01b031614156105f45760405162461bcd60e51b815260206004820152602160248201527f4552433732313a20617070726f76616c20746f2063757272656e74206f776e656044820152603960f91b60648201526084015b60405180910390fd5b336001600160a01b038216148061061057506106108133610404565b6106825760405162461bcd60e51b815260206004820152603d60248201527f4552433732313a20617070726f76652063616c6c6572206973206e6f7420746f60448201527f6b656e206f776e6572206f7220617070726f76656420666f7220616c6c00000060648201526084016105eb565b61068c8383610c84565b505050565b600a546001600160a01b0316331480156106b357506001600160a01b03811615155b6040518060400160405280600381526020016231303160e81b815250906106ed5760405162461bcd60e51b81526004016105eb91906115c0565b50600c546001600160a01b0382811691161461071f57600c80546001600160a01b0319166001600160a01b0383161790555b50565b61072c3382610cf2565b6107485760405162461bcd60e51b81526004016105eb9061184a565b61068c838383610d71565b6000806107608484610dab565b915091509250929050565b600f80546107789061180f565b80601f01602080910402602001604051908101604052809291908181526020018280546107a49061180f565b80156107f15780601f106107c6576101008083540402835291602001916107f1565b820191906000526020600020905b8154815290600101906020018083116107d457829003601f168201915b505050505081565b61068c83838360405180602001604052806000815250610a11565b600e80546107789061180f565b600a546001600160a01b03163314801561084357506001600160a01b03811615155b6040518060400160405280600381526020016231303160e81b8152509061087d5760405162461bcd60e51b81526004016105eb91906115c0565b50600d546001600160a01b0382811691161461071f57600d80546001600160a01b0383166001600160a01b031990911617905550565b60006108c160065460ff1690565b15905090565b60006001600160a01b0382166109315760405162461bcd60e51b815260206004820152602960248201527f4552433732313a2061646472657373207a65726f206973206e6f7420612076616044820152683634b21037bbb732b960b91b60648201526084016105eb565b506001600160a01b031660009081526003602052604090205490565b610955610ea8565b61095f6000610f02565b565b600a546001600160a01b03163314801561098357506001600160a01b03811615155b6040518060400160405280600381526020016231303160e81b815250906109bd5760405162461bcd60e51b81526004016105eb91906115c0565b50600a546001600160a01b0382811691161461071f57600a80546001600160a01b0383166001600160a01b031990911617905550565b6060600f80546104cc9061180f565b610a0d338383610f54565b5050565b610a1b3383610cf2565b610a375760405162461bcd60e51b81526004016105eb9061184a565b610a4384848484611023565b50505050565b6060610a5482610bc5565b6000610a6b60408051602081019091526000815290565b90506000815111610a8b5760405180602001604052806000815250610ab6565b80610a9584611056565b604051602001610aa6929190611897565b6040516020818303038152906040525b9392505050565b610ac5610ea8565b6001600160a01b038116610b2a5760405162461bcd60e51b815260206004820152602660248201527f4f776e61626c653a206e6577206f776e657220697320746865207a65726f206160448201526564647265737360d01b60648201526084016105eb565b61071f81610f02565b600a546001600160a01b031633148015610b5557506001600160a01b03811615155b6040518060400160405280600381526020016231303160e81b81525090610b8f5760405162461bcd60e51b81526004016105eb91906115c0565b50600b546001600160a01b0382811691161461071f57600b80546001600160a01b0383166001600160a01b031990911617905550565b6000818152600960205260409020546001600160a01b031661071f5760405162461bcd60e51b8152602060048201526018602482015277115490cdcc8c4e881a5b9d985b1a59081d1bdad95b88125160421b60448201526064016105eb565b6000818152600260205260408120546001600160a01b0316806104b75760405162461bcd60e51b8152602060048201526018602482015277115490cdcc8c4e881a5b9d985b1a59081d1bdad95b88125160421b60448201526064016105eb565b600081815260046020526040902080546001600160a01b0319166001600160a01b0384169081179091558190610cb982610c24565b6001600160a01b03167f8c5be1e5ebec7d5bd14f71427d1e84f3dd0314c0f7b2291e5b200ac8c7c3b92560405160405180910390a45050565b600080610cfe83610c24565b9050806001600160a01b0316846001600160a01b03161480610d4557506001600160a01b0380821660009081526005602090815260408083209388168352929052205460ff165b80610d695750836001600160a01b0316610d5e8461054f565b6001600160a01b0316145b949350505050565b610d7c8383836110f3565b600090815260096020526040902080546001600160a01b0319166001600160a01b039290921691909117905550565b600a54600b546001600160a01b03918216916000911615610e7a57600b546040805180820182526013815272524f59414c54595f46494e5f4144445245535360681b6020820152905163bf40fac160e01b81526001600160a01b0390921691600091839163bf40fac191610e21916004016115c0565b602060405180830381865afa158015610e3e573d6000803e3d6000fd5b505050506040513d601f19601f82011682018060405250810190610e6291906118c6565b90506001600160a01b03811615610e77578093505b50505b60105480610e8757506101f45b612710610e9482866118f9565b610e9e9190611918565b9150509250929050565b6008546001600160a01b0316331461095f5760405162461bcd60e51b815260206004820181905260248201527f4f776e61626c653a2063616c6c6572206973206e6f7420746865206f776e657260448201526064016105eb565b600880546001600160a01b038381166001600160a01b0319831681179093556040519116919082907f8be0079c531659141344cd1fd0a4f28419497f9722a3daafe3b4186f6b6457e090600090a35050565b816001600160a01b0316836001600160a01b03161415610fb65760405162461bcd60e51b815260206004820152601960248201527f4552433732313a20617070726f766520746f2063616c6c65720000000000000060448201526064016105eb565b6001600160a01b03838116600081815260056020908152604080832094871680845294825291829020805460ff191686151590811790915591519182527f17307eab39ab6107e8899845ad3d59bd9653f200f220920489ca2b5937696c31910160405180910390a3505050565b61102e848484610d71565b61103a84848484611264565b610a435760405162461bcd60e51b81526004016105eb9061193a565b6060600061106383611362565b600101905060008167ffffffffffffffff811115611083576110836116eb565b6040519080825280601f01601f1916602001820160405280156110ad576020820181803683370190505b5090508181016020015b600019016f181899199a1a9b1b9c1cb0b131b232b360811b600a86061a8153600a85049450846110e6576110eb565b6110b7565b509392505050565b826001600160a01b031661110682610c24565b6001600160a01b03161461112c5760405162461bcd60e51b81526004016105eb9061198c565b6001600160a01b03821661118e5760405162461bcd60e51b8152602060048201526024808201527f4552433732313a207472616e7366657220746f20746865207a65726f206164646044820152637265737360e01b60648201526084016105eb565b61119b838383600161143a565b826001600160a01b03166111ae82610c24565b6001600160a01b0316146111d45760405162461bcd60e51b81526004016105eb9061198c565b600081815260046020908152604080832080546001600160a01b03199081169091556001600160a01b0387811680865260038552838620805460001901905590871680865283862080546001019055868652600290945282852080549092168417909155905184937fddf252ad1be2c89b69c2b068fc378daa952ba7f163c4a11628f55a4df523b3ef91a4505050565b60006001600160a01b0384163b1561135757604051630a85bd0160e11b81526001600160a01b0385169063150b7a02906112a89033908990889088906004016119d1565b6020604051808303816000875af19250505080156112e3575060408051601f3d908101601f191682019092526112e091810190611a0e565b60015b61133d573d808015611311576040519150601f19603f3d011682016040523d82523d6000602084013e611316565b606091505b5080516113355760405162461bcd60e51b81526004016105eb9061193a565b805181602001fd5b6001600160e01b031916630a85bd0160e11b149050610d69565b506001949350505050565b60008072184f03e93ff9f4daa797ed6e38ed64bf6a1f0160401b83106113a15772184f03e93ff9f4daa797ed6e38ed64bf6a1f0160401b830492506040015b6d04ee2d6d415b85acef810000000083106113cd576d04ee2d6d415b85acef8100000000830492506020015b662386f26fc1000083106113eb57662386f26fc10000830492506010015b6305f5e1008310611403576305f5e100830492506008015b612710831061141757612710830492506004015b60648310611429576064830492506002015b600a83106104b75760010192915050565b611446848484846114ad565b60065460ff1615610a435760405162461bcd60e51b815260206004820152602b60248201527f4552433732315061757361626c653a20746f6b656e207472616e73666572207760448201526a1a1a5b19481c185d5cd95960aa1b60648201526084016105eb565b6001811115610a43576001600160a01b038416156114f3576001600160a01b038416600090815260036020526040812080548392906114ed908490611a2b565b90915550505b6001600160a01b03831615610a43576001600160a01b0383166000908152600360205260408120805483929061152a908490611a42565b909155505050505050565b6001600160e01b03198116811461071f57600080fd5b60006020828403121561155d57600080fd5b8135610ab681611535565b60005b8381101561158357818101518382015260200161156b565b83811115610a435750506000910152565b600081518084526115ac816020860160208601611568565b601f01601f19169290920160200192915050565b602081526000610ab66020830184611594565b6000602082840312156115e557600080fd5b5035919050565b6001600160a01b038116811461071f57600080fd5b6000806040838503121561161457600080fd5b823561161f816115ec565b946020939093013593505050565b60006020828403121561163f57600080fd5b8135610ab6816115ec565b60008060006060848603121561165f57600080fd5b833561166a816115ec565b9250602084013561167a816115ec565b929592945050506040919091013590565b6000806040838503121561169e57600080fd5b50508035926020909101359150565b600080604083850312156116c057600080fd5b82356116cb816115ec565b9150602083013580151581146116e057600080fd5b809150509250929050565b634e487b7160e01b600052604160045260246000fd5b6000806000806080858703121561171757600080fd5b8435611722816115ec565b93506020850135611732816115ec565b925060408501359150606085013567ffffffffffffffff8082111561175657600080fd5b818701915087601f83011261176a57600080fd5b81358181111561177c5761177c6116eb565b604051601f8201601f19908116603f011681019083821181831017156117a4576117a46116eb565b816040528281528a60208487010111156117bd57600080fd5b82602086016020830137600060208483010152809550505050505092959194509250565b600080604083850312156117f457600080fd5b82356117ff816115ec565b915060208301356116e0816115ec565b600181811c9082168061182357607f821691505b6020821081141561184457634e487b7160e01b600052602260045260246000fd5b50919050565b6020808252602d908201527f4552433732313a2063616c6c6572206973206e6f7420746f6b656e206f776e6560408201526c1c881bdc88185c1c1c9bdd9959609a1b606082015260800190565b600083516118a9818460208801611568565b8351908301906118bd818360208801611568565b01949350505050565b6000602082840312156118d857600080fd5b8151610ab6816115ec565b634e487b7160e01b600052601160045260246000fd5b6000816000190483118215151615611913576119136118e3565b500290565b60008261193557634e487b7160e01b600052601260045260246000fd5b500490565b60208082526032908201527f4552433732313a207472616e7366657220746f206e6f6e20455243373231526560408201527131b2b4bb32b91034b6b83632b6b2b73a32b960711b606082015260800190565b60208082526025908201527f4552433732313a207472616e736665722066726f6d20696e636f72726563742060408201526437bbb732b960d91b606082015260800190565b6001600160a01b0385811682528416602082015260408101839052608060608201819052600090611a0490830184611594565b9695505050505050565b600060208284031215611a2057600080fd5b8151610ab681611535565b600082821015611a3d57611a3d6118e3565b500390565b60008219821115611a5557611a556118e3565b50019056fea2646970667358221220594f12e6af4c0680b8d093c8c33933acb69f40521dbf64efdc68447c6d98e2d264736f6c634300080c0033",
  "linkReferences": {},
  "deployedLinkReferences": {}
}