{
  "_format": "hh-sol-artifact-1",
  "contractName": "BaseERC721OwnerSeed",
  "sourceName": "contracts/nfts/BaseERC721OwnerSeed.sol",
  "abi": [
    {
      "inputs": [
        {
          "internalType": "string",
          "name": "name",
          "type": "string"
        },
        {
          "internalType": "string",
          "name": "symbol",
          "type": "string"
        }
      ],
      "stateMutability": "nonpayable",
      "type": "constructor"
    },
    {
      "anonymous": false,
      "inputs": [
        {
          "indexed": true,
          "internalType": "address",
          "name": "owner",
          "type": "address"
        },
        {
          "indexed": true,
          "internalType": "address",
          "name": "approved",
          "type": "address"
        },
        {
          "indexed": true,
          "internalType": "uint256",
          "name": "tokenId",
          "type": "uint256"
        }
      ],
      "name": "Approval",
      "type": "event"
    },
    {
      "anonymous": false,
      "inputs": [
        {
          "indexed": true,
          "internalType": "address",
          "name": "owner",
          "type": "address"
        },
        {
          "indexed": true,
          "internalType": "address",
          "name": "operator",
          "type": "address"
        },
        {
          "indexed": false,
          "internalType": "bool",
          "name": "approved",
          "type": "bool"
        }
      ],
      "name": "ApprovalForAll",
      "type": "event"
    },
    {
      "anonymous": false,
      "inputs": [
        {
          "indexed": true,
          "internalType": "address",
          "name": "previousOwner",
          "type": "address"
        },
        {
          "indexed": true,
          "internalType": "address",
          "name": "newOwner",
          "type": "address"
        }
      ],
      "name": "OwnershipTransferred",
      "type": "event"
    },
    {
      "anonymous": false,
      "inputs": [
        {
          "indexed": false,
          "internalType": "address",
          "name": "account",
          "type": "address"
        }
      ],
      "name": "Paused",
      "type": "event"
    },
    {
      "anonymous": false,
      "inputs": [
        {
          "indexed": true,
          "internalType": "address",
          "name": "from",
          "type": "address"
        },
        {
          "indexed": true,
          "internalType": "address",
          "name": "to",
          "type": "address"
        },
        {
          "indexed": true,
          "internalType": "uint256",
          "name": "tokenId",
          "type": "uint256"
        }
      ],
      "name": "Transfer",
      "type": "event"
    },
    {
      "anonymous": false,
      "inputs": [
        {
          "indexed": false,
          "internalType": "address",
          "name": "account",
          "type": "address"
        }
      ],
      "name": "Unpaused",
      "type": "event"
    },
    {
      "inputs": [],
      "name": "_admin",
      "outputs": [
        {
          "internalType": "address",
          "name": "",
          "type": "address"
        }
      ],
      "stateMutability": "view",
      "type": "function"
    },
    {
      "inputs": [],
      "name": "_nameCol",
      "outputs": [
        {
          "internalType": "string",
          "name": "",
          "type": "string"
        }
      ],
      "stateMutability": "view",
      "type": "function"
    },
    {
      "inputs": [],
      "name": "_paramsAddress",
      "outputs": [
        {
          "internalType": "address",
          "name": "",
          "type": "address"
        }
      ],
      "stateMutability": "view",
      "type": "function"
    },
    {
      "inputs": [],
      "name": "_projectDataContextAddr",
      "outputs": [
        {
          "internalType": "address",
          "name": "",
          "type": "address"
        }
      ],
      "stateMutability": "view",
      "type": "function"
    },
    {
      "inputs": [],
      "name": "_randomizer",
      "outputs": [
        {
          "internalType": "address",
          "name": "",
          "type": "address"
        }
      ],
      "stateMutability": "view",
      "type": "function"
    },
    {
      "inputs": [],
      "name": "_royalty",
      "outputs": [
        {
          "internalType": "uint256",
          "name": "",
          "type": "uint256"
        }
      ],
      "stateMutability": "view",
      "type": "function"
    },
    {
      "inputs": [
        {
          "internalType": "address",
          "name": "to",
          "type": "address"
        },
        {
          "internalType": "uint256",
          "name": "tokenId",
          "type": "uint256"
        }
      ],
      "name": "approve",
      "outputs": [],
      "stateMutability": "nonpayable",
      "type": "function"
    },
    {
      "inputs": [
        {
          "internalType": "address",
          "name": "owner",
          "type": "address"
        }
      ],
      "name": "balanceOf",
      "outputs": [
        {
          "internalType": "uint256",
          "name": "",
          "type": "uint256"
        }
      ],
      "stateMutability": "view",
      "type": "function"
    },
    {
      "inputs": [
        {
          "internalType": "address",
          "name": "newAdm",
          "type": "address"
        }
      ],
      "name": "changeAdmin",
      "outputs": [],
      "stateMutability": "nonpayable",
      "type": "function"
    },
    {
      "inputs": [
        {
          "internalType": "address",
          "name": "newAddr",
          "type": "address"
        }
      ],
      "name": "changeDataContextAddr",
      "outputs": [],
      "stateMutability": "nonpayable",
      "type": "function"
    },
    {
      "inputs": [
        {
          "internalType": "address",
          "name": "newAddr",
          "type": "address"
        }
      ],
      "name": "changeParamAddr",
      "outputs": [],
      "stateMutability": "nonpayable",
      "type": "function"
    },
    {
      "inputs": [
        {
          "internalType": "address",
          "name": "newAddr",
          "type": "address"
        }
      ],
      "name": "changeRandomizerAddr",
      "outputs": [],
      "stateMutability": "nonpayable",
      "type": "function"
    },
    {
      "inputs": [
        {
          "internalType": "uint256",
          "name": "tokenId",
          "type": "uint256"
        }
      ],
      "name": "getApproved",
      "outputs": [
        {
          "internalType": "address",
          "name": "",
          "type": "address"
        }
      ],
      "stateMutability": "view",
      "type": "function"
    },
    {
      "inputs": [],
      "name": "getStatus",
      "outputs": [
        {
          "internalType": "bool",
          "name": "",
          "type": "bool"
        }
      ],
      "stateMutability": "view",
      "type": "function"
    },
    {
      "inputs": [
        {
          "internalType": "address",
          "name": "owner",
          "type": "address"
        },
        {
          "internalType": "address",
          "name": "operator",
          "type": "address"
        }
      ],
      "name": "isApprovedForAll",
      "outputs": [
        {
          "internalType": "bool",
          "name": "",
          "type": "bool"
        }
      ],
      "stateMutability": "view",
      "type": "function"
    },
    {
      "inputs": [],
      "name": "name",
      "outputs": [
        {
          "internalType": "string",
          "name": "",
          "type": "string"
        }
      ],
      "stateMutability": "view",
      "type": "function"
    },
    {
      "inputs": [],
      "name": "owner",
      "outputs": [
        {
          "internalType": "address",
          "name": "",
          "type": "address"
        }
      ],
      "stateMutability": "view",
      "type": "function"
    },
    {
      "inputs": [
        {
          "internalType": "uint256",
          "name": "tokenId",
          "type": "uint256"
        }
      ],
      "name": "ownerOf",
      "outputs": [
        {
          "internalType": "address",
          "name": "",
          "type": "address"
        }
      ],
      "stateMutability": "view",
      "type": "function"
    },
    {
      "inputs": [],
      "name": "paused",
      "outputs": [
        {
          "internalType": "bool",
          "name": "",
          "type": "bool"
        }
      ],
      "stateMutability": "view",
      "type": "function"
    },
    {
      "inputs": [],
      "name": "renounceOwnership",
      "outputs": [],
      "stateMutability": "nonpayable",
      "type": "function"
    },
    {
      "inputs": [
        {
          "internalType": "uint256",
          "name": "_tokenId",
          "type": "uint256"
        },
        {
          "internalType": "uint256",
          "name": "_salePrice",
          "type": "uint256"
        }
      ],
      "name": "royaltyInfo",
      "outputs": [
        {
          "internalType": "address",
          "name": "receiver",
          "type": "address"
        },
        {
          "internalType": "uint256",
          "name": "royaltyAmount",
          "type": "uint256"
        }
      ],
      "stateMutability": "view",
      "type": "function"
    },
    {
      "inputs": [
        {
          "internalType": "address",
          "name": "from",
          "type": "address"
        },
        {
          "internalType": "address",
          "name": "to",
          "type": "address"
        },
        {
          "internalType": "uint256",
          "name": "tokenId",
          "type": "uint256"
        }
      ],
      "name": "safeTransferFrom",
      "outputs": [],
      "stateMutability": "nonpayable",
      "type": "function"
    },
    {
      "inputs": [
        {
          "internalType": "address",
          "name": "from",
          "type": "address"
        },
        {
          "internalType": "address",
          "name": "to",
          "type": "address"
        },
        {
          "internalType": "uint256",
          "name": "tokenId",
          "type": "uint256"
        },
        {
          "internalType": "bytes",
          "name": "data",
          "type": "bytes"
        }
      ],
      "name": "safeTransferFrom",
      "outputs": [],
      "stateMutability": "nonpayable",
      "type": "function"
    },
    {
      "inputs": [
        {
          "internalType": "address",
          "name": "operator",
          "type": "address"
        },
        {
          "internalType": "bool",
          "name": "approved",
          "type": "bool"
        }
      ],
      "name": "setApprovalForAll",
      "outputs": [],
      "stateMutability": "nonpayable",
      "type": "function"
    },
    {
      "inputs": [
        {
          "internalType": "bytes4",
          "name": "interfaceId",
          "type": "bytes4"
        }
      ],
      "name": "supportsInterface",
      "outputs": [
        {
          "internalType": "bool",
          "name": "",
          "type": "bool"
        }
      ],
      "stateMutability": "view",
      "type": "function"
    },
    {
      "inputs": [],
      "name": "symbol",
      "outputs": [
        {
          "internalType": "string",
          "name": "",
          "type": "string"
        }
      ],
      "stateMutability": "view",
      "type": "function"
    },
    {
      "inputs": [
        {
          "internalType": "uint256",
          "name": "tokenId",
          "type": "uint256"
        }
      ],
      "name": "tokenIdToHash",
      "outputs": [
        {
          "internalType": "bytes32",
          "name": "",
          "type": "bytes32"
        }
      ],
      "stateMutability": "view",
      "type": "function"
    },
    {
      "inputs": [
        {
          "internalType": "uint256",
          "name": "tokenId",
          "type": "uint256"
        }
      ],
      "name": "tokenURI",
      "outputs": [
        {
          "internalType": "string",
          "name": "",
          "type": "string"
        }
      ],
      "stateMutability": "view",
      "type": "function"
    },
    {
      "inputs": [
        {
          "internalType": "address",
          "name": "from",
          "type": "address"
        },
        {
          "internalType": "address",
          "name": "to",
          "type": "address"
        },
        {
          "internalType": "uint256",
          "name": "tokenId",
          "type": "uint256"
        }
      ],
      "name": "transferFrom",
      "outputs": [],
      "stateMutability": "nonpayable",
      "type": "function"
    },
    {
      "inputs": [
        {
          "internalType": "address",
          "name": "newOwner",
          "type": "address"
        }
      ],
      "name": "transferOwnership",
      "outputs": [],
      "stateMutability": "nonpayable",
      "type": "function"
    }
  ],
  "bytecode": "0x60806040523480156200001157600080fd5b50604051620020323803806200203283398101604081905262000034916200024d565b8151829082906200004d906000906020850190620000da565b50805162000063906001906020840190620000da565b50506006805460ff19169055506001600755620000803362000088565b5050620002f4565b600880546001600160a01b038381166001600160a01b0319831681179093556040519116919082907f8be0079c531659141344cd1fd0a4f28419497f9722a3daafe3b4186f6b6457e090600090a35050565b828054620000e890620002b7565b90600052602060002090601f0160209004810192826200010c576000855562000157565b82601f106200012757805160ff191683800117855562000157565b8280016001018555821562000157579182015b82811115620001575782518255916020019190600101906200013a565b506200016592915062000169565b5090565b5b808211156200016557600081556001016200016a565b634e487b7160e01b600052604160045260246000fd5b600082601f830112620001a857600080fd5b81516001600160401b0380821115620001c557620001c562000180565b604051601f8301601f19908116603f01168101908282118183101715620001f057620001f062000180565b816040528381526020925086838588010111156200020d57600080fd5b600091505b8382101562000231578582018301518183018401529082019062000212565b83821115620002435760008385830101525b9695505050505050565b600080604083850312156200026157600080fd5b82516001600160401b03808211156200027957600080fd5b620002878683870162000196565b935060208501519150808211156200029e57600080fd5b50620002ad8582860162000196565b9150509250929050565b600181811c90821680620002cc57607f821691505b60208210811415620002ee57634e487b7160e01b600052602260045260246000fd5b50919050565b611d2e80620003046000396000f3fe608060405234801561001057600080fd5b50600436106101da5760003560e01c8063621a1f7411610104578063a22cb465116100a2578063e985e9c511610071578063e985e9c514610401578063f2fde38b1461043d578063febfd6c314610450578063ffc27c0e1461046357600080fd5b8063a22cb465146103b5578063adfc7dae146103c8578063b88d4fde146103db578063c87b56dd146103ee57600080fd5b8063715018a6116100de578063715018a6146103815780638da5cb5b146103895780638f2839701461039a57806395d89b41146103ad57600080fd5b8063621a1f74146103325780636352211e1461034557806370a082311461036e57600080fd5b80632a55205a1161017c578063472f1e021161014b578063472f1e02146102f95780634e69d5601461030c578063575b57ea146103145780635c975abb1461032757600080fd5b80632a55205a146102955780633b66b00a146102c757806342842e0e146102de578063452fa3d3146102f157600080fd5b8063081812fc116101b8578063081812fc14610247578063095ea7b31461025a5780631ca9741b1461026f57806323b872dd1461028257600080fd5b806301bc45c9146101df57806301ffc9a71461020f57806306fdde0314610232575b600080fd5b600a546101f2906001600160a01b031681565b6040516001600160a01b0390911681526020015b60405180910390f35b61022261021d36600461179f565b610476565b6040519015158152602001610206565b61023a6104bc565b6040516102069190611814565b6101f2610255366004611827565b61054e565b61026d610268366004611855565b610575565b005b61026d61027d366004611881565b610690565b61026d61029036600461189e565b61070f565b6102a86102a33660046118df565b610740565b604080516001600160a01b039093168352602083019190915201610206565b6102d0600f5481565b604051908152602001610206565b61026d6102ec36600461189e565b610758565b61023a610773565b61026d610307366004611881565b610801565b610222610880565b600d546101f2906001600160a01b031681565b60065460ff16610222565b6102d0610340366004611827565b610894565b6101f2610353366004611827565b6000908152600960205260409020546001600160a01b031690565b6102d061037c366004611881565b61096f565b61026d6109f5565b6008546001600160a01b03166101f2565b61026d6103a8366004611881565b610a09565b61023a610a88565b61026d6103c3366004611901565b610b26565b600b546101f2906001600160a01b031681565b61026d6103e9366004611955565b610b35565b61023a6103fc366004611827565b610b6d565b61022261040f366004611a35565b6001600160a01b03918216600090815260056020908152604080832093909416825291909152205460ff1690565b61026d61044b366004611881565b610be1565b61026d61045e366004611881565b610c5a565b600c546101f2906001600160a01b031681565b60006001600160e01b031982166302734eab60e51b14806104a757506001600160e01b0319821663152a902d60e11b145b806104b657506104b682610cd9565b92915050565b6060600e80546104cb90611a63565b80601f01602080910402602001604051908101604052809291908181526020018280546104f790611a63565b80156105445780601f1061051957610100808354040283529160200191610544565b820191906000526020600020905b81548152906001019060200180831161052757829003601f168201915b5050505050905090565b600061055982610d29565b506000908152600460205260409020546001600160a01b031690565b600061058082610d88565b9050806001600160a01b0316836001600160a01b031614156105f35760405162461bcd60e51b815260206004820152602160248201527f4552433732313a20617070726f76616c20746f2063757272656e74206f776e656044820152603960f91b60648201526084015b60405180910390fd5b336001600160a01b038216148061060f575061060f813361040f565b6106815760405162461bcd60e51b815260206004820152603d60248201527f4552433732313a20617070726f76652063616c6c6572206973206e6f7420746f60448201527f6b656e206f776e6572206f7220617070726f76656420666f7220616c6c00000060648201526084016105ea565b61068b8383610de8565b505050565b600a546001600160a01b0316331480156106b257506001600160a01b03811615155b6040518060400160405280600381526020016231303160e81b815250906106ec5760405162461bcd60e51b81526004016105ea9190611814565b50600c80546001600160a01b0319166001600160a01b0392909216919091179055565b6107193382610e56565b6107355760405162461bcd60e51b81526004016105ea90611a9e565b61068b838383610ed5565b60008061074d8484610f0f565b915091509250929050565b61068b83838360405180602001604052806000815250610b35565b600e805461078090611a63565b80601f01602080910402602001604051908101604052809291908181526020018280546107ac90611a63565b80156107f95780601f106107ce576101008083540402835291602001916107f9565b820191906000526020600020905b8154815290600101906020018083116107dc57829003601f168201915b505050505081565b600a546001600160a01b03163314801561082357506001600160a01b03811615155b6040518060400160405280600381526020016231303160e81b8152509061085d5760405162461bcd60e51b81526004016105ea9190611814565b50600d80546001600160a01b0319166001600160a01b0392909216919091179055565b600061088e60065460ff1690565b15905090565b6000818152600960205260408120546001600160a01b031615156040518060400160405280600381526020016232303960e81b815250906108e85760405162461bcd60e51b81526004016105ea9190611814565b50600082815260096020526040902054600160a01b900460a01b6001600160a01b03191661091857506000919050565b60008281526009602090815260409182902054915161095292600160a01b900460a01b91016001600160a01b031991909116815260200190565b604051602081830303815290604052805190602001209050919050565b60006001600160a01b0382166109d95760405162461bcd60e51b815260206004820152602960248201527f4552433732313a2061646472657373207a65726f206973206e6f7420612076616044820152683634b21037bbb732b960b91b60648201526084016105ea565b506001600160a01b031660009081526003602052604090205490565b6109fd6110a9565b610a076000611103565b565b600a546001600160a01b031633148015610a2b57506001600160a01b03811615155b6040518060400160405280600381526020016231303160e81b81525090610a655760405162461bcd60e51b81526004016105ea9190611814565b50600a80546001600160a01b0319166001600160a01b0392909216919091179055565b6060610b2160016003600e8054610a9e90611a63565b80601f0160208091040260200160405190810160405280929190818152602001828054610aca90611a63565b8015610b175780601f10610aec57610100808354040283529160200191610b17565b820191906000526020600020905b815481529060010190602001808311610afa57829003601f168201915b5050505050611155565b905090565b610b3133838361123c565b5050565b610b3f3383610e56565b610b5b5760405162461bcd60e51b81526004016105ea90611a9e565b610b678484848461130b565b50505050565b6060610b7882610d29565b6000610b8f60408051602081019091526000815290565b90506000815111610baf5760405180602001604052806000815250610bda565b80610bb98461133e565b604051602001610bca929190611aeb565b6040516020818303038152906040525b9392505050565b610be96110a9565b6001600160a01b038116610c4e5760405162461bcd60e51b815260206004820152602660248201527f4f776e61626c653a206e6577206f776e657220697320746865207a65726f206160448201526564647265737360d01b60648201526084016105ea565b610c5781611103565b50565b600a546001600160a01b031633148015610c7c57506001600160a01b03811615155b6040518060400160405280600381526020016231303160e81b81525090610cb65760405162461bcd60e51b81526004016105ea9190611814565b50600b80546001600160a01b0319166001600160a01b0392909216919091179055565b60006001600160e01b031982166380ac58cd60e01b1480610d0a57506001600160e01b03198216635b5e139f60e01b145b806104b657506301ffc9a760e01b6001600160e01b03198316146104b6565b6000818152600960205260409020546001600160a01b0316610c575760405162461bcd60e51b8152602060048201526018602482015277115490cdcc8c4e881a5b9d985b1a59081d1bdad95b88125160421b60448201526064016105ea565b6000818152600260205260408120546001600160a01b0316806104b65760405162461bcd60e51b8152602060048201526018602482015277115490cdcc8c4e881a5b9d985b1a59081d1bdad95b88125160421b60448201526064016105ea565b600081815260046020526040902080546001600160a01b0319166001600160a01b0384169081179091558190610e1d82610d88565b6001600160a01b03167f8c5be1e5ebec7d5bd14f71427d1e84f3dd0314c0f7b2291e5b200ac8c7c3b92560405160405180910390a45050565b600080610e6283610d88565b9050806001600160a01b0316846001600160a01b03161480610ea957506001600160a01b0380821660009081526005602090815260408083209388168352929052205460ff165b80610ecd5750836001600160a01b0316610ec28461054e565b6001600160a01b0316145b949350505050565b610ee08383836113db565b600090815260096020526040902080546001600160a01b0319166001600160a01b039290921691909117905550565b600a54600f54600b546001600160a01b039283169260009291161561108857600b546040805180820182526013815272524f59414c54595f46494e5f4144445245535360681b6020820152905163bf40fac160e01b81526001600160a01b0390921691600091839163bf40fac191610f8991600401611814565b602060405180830381865afa158015610fa6573d6000803e3d6000fd5b505050506040513d601f19601f82011682018060405250810190610fca9190611b1a565b90506001600160a01b03811615610fdf578094505b8261108557604080518082018252601b81527f44454641554c545f524f59414c54595f46494e5f50455243454e54000000000060208201529051636d12dce160e01b81526001600160a01b03841691636d12dce1916110419190600401611814565b602060405180830381865afa15801561105e573d6000803e3d6000fd5b505050506040513d601f19601f820116820180604052508101906110829190611b37565b92505b50505b6127106110958286611b66565b61109f9190611b85565b9150509250929050565b6008546001600160a01b03163314610a075760405162461bcd60e51b815260206004820181905260248201527f4f776e61626c653a2063616c6c6572206973206e6f7420746865206f776e657260448201526064016105ea565b600880546001600160a01b038381166001600160a01b0319831681179093556040519116919082907f8be0079c531659141344cd1fd0a4f28419497f9722a3daafe3b4186f6b6457e090600090a35050565b606060006111638585611ba7565b61116e906001611bbe565b67ffffffffffffffff8111156111865761118661193f565b6040519080825280601f01601f1916602001820160405280156111b0576020820181803683370190505b50905060005b6111c08686611ba7565b8111611233578360016111d38884611bbe565b6111dd9190611ba7565b815181106111ed576111ed611bd6565b602001015160f81c60f81b82828151811061120a5761120a611bd6565b60200101906001600160f81b031916908160001a9053508061122b81611bec565b9150506111b6565b50949350505050565b816001600160a01b0316836001600160a01b0316141561129e5760405162461bcd60e51b815260206004820152601960248201527f4552433732313a20617070726f766520746f2063616c6c65720000000000000060448201526064016105ea565b6001600160a01b03838116600081815260056020908152604080832094871680845294825291829020805460ff191686151590811790915591519182527f17307eab39ab6107e8899845ad3d59bd9653f200f220920489ca2b5937696c31910160405180910390a3505050565b611316848484610ed5565b6113228484848461154c565b610b675760405162461bcd60e51b81526004016105ea90611c07565b6060600061134b8361164a565b600101905060008167ffffffffffffffff81111561136b5761136b61193f565b6040519080825280601f01601f191660200182016040528015611395576020820181803683370190505b5090508181016020015b600019016f181899199a1a9b1b9c1cb0b131b232b360811b600a86061a8153600a85049450846113ce576113d3565b61139f565b509392505050565b826001600160a01b03166113ee82610d88565b6001600160a01b0316146114145760405162461bcd60e51b81526004016105ea90611c59565b6001600160a01b0382166114765760405162461bcd60e51b8152602060048201526024808201527f4552433732313a207472616e7366657220746f20746865207a65726f206164646044820152637265737360e01b60648201526084016105ea565b6114838383836001611722565b826001600160a01b031661149682610d88565b6001600160a01b0316146114bc5760405162461bcd60e51b81526004016105ea90611c59565b600081815260046020908152604080832080546001600160a01b03199081169091556001600160a01b0387811680865260038552838620805460001901905590871680865283862080546001019055868652600290945282852080549092168417909155905184937fddf252ad1be2c89b69c2b068fc378daa952ba7f163c4a11628f55a4df523b3ef91a4505050565b60006001600160a01b0384163b1561163f57604051630a85bd0160e11b81526001600160a01b0385169063150b7a0290611590903390899088908890600401611c9e565b6020604051808303816000875af19250505080156115cb575060408051601f3d908101601f191682019092526115c891810190611cdb565b60015b611625573d8080156115f9576040519150601f19603f3d011682016040523d82523d6000602084013e6115fe565b606091505b50805161161d5760405162461bcd60e51b81526004016105ea90611c07565b805181602001fd5b6001600160e01b031916630a85bd0160e11b149050610ecd565b506001949350505050565b60008072184f03e93ff9f4daa797ed6e38ed64bf6a1f0160401b83106116895772184f03e93ff9f4daa797ed6e38ed64bf6a1f0160401b830492506040015b6d04ee2d6d415b85acef810000000083106116b5576d04ee2d6d415b85acef8100000000830492506020015b662386f26fc1000083106116d357662386f26fc10000830492506010015b6305f5e10083106116eb576305f5e100830492506008015b61271083106116ff57612710830492506004015b60648310611711576064830492506002015b600a83106104b65760010192915050565b60065460ff1615610b675760405162461bcd60e51b815260206004820152602b60248201527f4552433732315061757361626c653a20746f6b656e207472616e73666572207760448201526a1a1a5b19481c185d5cd95960aa1b60648201526084016105ea565b6001600160e01b031981168114610c5757600080fd5b6000602082840312156117b157600080fd5b8135610bda81611789565b60005b838110156117d75781810151838201526020016117bf565b83811115610b675750506000910152565b600081518084526118008160208601602086016117bc565b601f01601f19169290920160200192915050565b602081526000610bda60208301846117e8565b60006020828403121561183957600080fd5b5035919050565b6001600160a01b0381168114610c5757600080fd5b6000806040838503121561186857600080fd5b823561187381611840565b946020939093013593505050565b60006020828403121561189357600080fd5b8135610bda81611840565b6000806000606084860312156118b357600080fd5b83356118be81611840565b925060208401356118ce81611840565b929592945050506040919091013590565b600080604083850312156118f257600080fd5b50508035926020909101359150565b6000806040838503121561191457600080fd5b823561191f81611840565b91506020830135801515811461193457600080fd5b809150509250929050565b634e487b7160e01b600052604160045260246000fd5b6000806000806080858703121561196b57600080fd5b843561197681611840565b9350602085013561198681611840565b925060408501359150606085013567ffffffffffffffff808211156119aa57600080fd5b818701915087601f8301126119be57600080fd5b8135818111156119d0576119d061193f565b604051601f8201601f19908116603f011681019083821181831017156119f8576119f861193f565b816040528281528a6020848701011115611a1157600080fd5b82602086016020830137600060208483010152809550505050505092959194509250565b60008060408385031215611a4857600080fd5b8235611a5381611840565b9150602083013561193481611840565b600181811c90821680611a7757607f821691505b60208210811415611a9857634e487b7160e01b600052602260045260246000fd5b50919050565b6020808252602d908201527f4552433732313a2063616c6c6572206973206e6f7420746f6b656e206f776e6560408201526c1c881bdc88185c1c1c9bdd9959609a1b606082015260800190565b60008351611afd8184602088016117bc565b835190830190611b118183602088016117bc565b01949350505050565b600060208284031215611b2c57600080fd5b8151610bda81611840565b600060208284031215611b4957600080fd5b5051919050565b634e487b7160e01b600052601160045260246000fd5b6000816000190483118215151615611b8057611b80611b50565b500290565b600082611ba257634e487b7160e01b600052601260045260246000fd5b500490565b600082821015611bb957611bb9611b50565b500390565b60008219821115611bd157611bd1611b50565b500190565b634e487b7160e01b600052603260045260246000fd5b6000600019821415611c0057611c00611b50565b5060010190565b60208082526032908201527f4552433732313a207472616e7366657220746f206e6f6e20455243373231526560408201527131b2b4bb32b91034b6b83632b6b2b73a32b960711b606082015260800190565b60208082526025908201527f4552433732313a207472616e736665722066726f6d20696e636f72726563742060408201526437bbb732b960d91b606082015260800190565b6001600160a01b0385811682528416602082015260408101839052608060608201819052600090611cd1908301846117e8565b9695505050505050565b600060208284031215611ced57600080fd5b8151610bda8161178956fea26469706673582212207d3a76f68682b861008aebf7e9b123dbe1f31c66137ffa0cdf0cd230daa5461164736f6c634300080c0033",
  "linkReferences": {},
  "deployedLinkReferences": {}
}