{
  "_format": "hh-sol-artifact-1",
  "contractName": "BaseERC721OwnerSeed",
  "sourceName": "contracts/nfts/BaseERC721OwnerSeed.sol",
  "abi": [
    {
      "inputs": [
        {
          "internalType": "string",
          "name": "name",
          "type": "string"
        },
        {
          "internalType": "string",
          "name": "symbol",
          "type": "string"
        }
      ],
      "stateMutability": "nonpayable",
      "type": "constructor"
    },
    {
      "anonymous": false,
      "inputs": [
        {
          "indexed": true,
          "internalType": "address",
          "name": "owner",
          "type": "address"
        },
        {
          "indexed": true,
          "internalType": "address",
          "name": "approved",
          "type": "address"
        },
        {
          "indexed": true,
          "internalType": "uint256",
          "name": "tokenId",
          "type": "uint256"
        }
      ],
      "name": "Approval",
      "type": "event"
    },
    {
      "anonymous": false,
      "inputs": [
        {
          "indexed": true,
          "internalType": "address",
          "name": "owner",
          "type": "address"
        },
        {
          "indexed": true,
          "internalType": "address",
          "name": "operator",
          "type": "address"
        },
        {
          "indexed": false,
          "internalType": "bool",
          "name": "approved",
          "type": "bool"
        }
      ],
      "name": "ApprovalForAll",
      "type": "event"
    },
    {
      "anonymous": false,
      "inputs": [
        {
          "indexed": true,
          "internalType": "address",
          "name": "previousOwner",
          "type": "address"
        },
        {
          "indexed": true,
          "internalType": "address",
          "name": "newOwner",
          "type": "address"
        }
      ],
      "name": "OwnershipTransferred",
      "type": "event"
    },
    {
      "anonymous": false,
      "inputs": [
        {
          "indexed": false,
          "internalType": "address",
          "name": "account",
          "type": "address"
        }
      ],
      "name": "Paused",
      "type": "event"
    },
    {
      "anonymous": false,
      "inputs": [
        {
          "indexed": true,
          "internalType": "address",
          "name": "from",
          "type": "address"
        },
        {
          "indexed": true,
          "internalType": "address",
          "name": "to",
          "type": "address"
        },
        {
          "indexed": true,
          "internalType": "uint256",
          "name": "tokenId",
          "type": "uint256"
        }
      ],
      "name": "Transfer",
      "type": "event"
    },
    {
      "anonymous": false,
      "inputs": [
        {
          "indexed": false,
          "internalType": "address",
          "name": "account",
          "type": "address"
        }
      ],
      "name": "Unpaused",
      "type": "event"
    },
    {
      "inputs": [],
      "name": "_admin",
      "outputs": [
        {
          "internalType": "address",
          "name": "",
          "type": "address"
        }
      ],
      "stateMutability": "view",
      "type": "function"
    },
    {
      "inputs": [],
      "name": "_nameCol",
      "outputs": [
        {
          "internalType": "string",
          "name": "",
          "type": "string"
        }
      ],
      "stateMutability": "view",
      "type": "function"
    },
    {
      "inputs": [],
      "name": "_paramsAddress",
      "outputs": [
        {
          "internalType": "address",
          "name": "",
          "type": "address"
        }
      ],
      "stateMutability": "view",
      "type": "function"
    },
    {
      "inputs": [],
      "name": "_projectDataContextAddr",
      "outputs": [
        {
          "internalType": "address",
          "name": "",
          "type": "address"
        }
      ],
      "stateMutability": "view",
      "type": "function"
    },
    {
      "inputs": [],
      "name": "_randomizer",
      "outputs": [
        {
          "internalType": "address",
          "name": "",
          "type": "address"
        }
      ],
      "stateMutability": "view",
      "type": "function"
    },
    {
      "inputs": [],
      "name": "_royalty",
      "outputs": [
        {
          "internalType": "uint256",
          "name": "",
          "type": "uint256"
        }
      ],
      "stateMutability": "view",
      "type": "function"
    },
    {
      "inputs": [
        {
          "internalType": "address",
          "name": "to",
          "type": "address"
        },
        {
          "internalType": "uint256",
          "name": "tokenId",
          "type": "uint256"
        }
      ],
      "name": "approve",
      "outputs": [],
      "stateMutability": "nonpayable",
      "type": "function"
    },
    {
      "inputs": [
        {
          "internalType": "address",
          "name": "owner",
          "type": "address"
        }
      ],
      "name": "balanceOf",
      "outputs": [
        {
          "internalType": "uint256",
          "name": "",
          "type": "uint256"
        }
      ],
      "stateMutability": "view",
      "type": "function"
    },
    {
      "inputs": [
        {
          "internalType": "address",
          "name": "newAdm",
          "type": "address"
        }
      ],
      "name": "changeAdmin",
      "outputs": [],
      "stateMutability": "nonpayable",
      "type": "function"
    },
    {
      "inputs": [
        {
          "internalType": "address",
          "name": "newAddr",
          "type": "address"
        }
      ],
      "name": "changeDataContextAddr",
      "outputs": [],
      "stateMutability": "nonpayable",
      "type": "function"
    },
    {
      "inputs": [
        {
          "internalType": "address",
          "name": "newAddr",
          "type": "address"
        }
      ],
      "name": "changeParamAddr",
      "outputs": [],
      "stateMutability": "nonpayable",
      "type": "function"
    },
    {
      "inputs": [
        {
          "internalType": "address",
          "name": "newAddr",
          "type": "address"
        }
      ],
      "name": "changeRandomizerAddr",
      "outputs": [],
      "stateMutability": "nonpayable",
      "type": "function"
    },
    {
      "inputs": [
        {
          "internalType": "uint256",
          "name": "tokenId",
          "type": "uint256"
        }
      ],
      "name": "getApproved",
      "outputs": [
        {
          "internalType": "address",
          "name": "",
          "type": "address"
        }
      ],
      "stateMutability": "view",
      "type": "function"
    },
    {
      "inputs": [],
      "name": "getStatus",
      "outputs": [
        {
          "internalType": "bool",
          "name": "",
          "type": "bool"
        }
      ],
      "stateMutability": "view",
      "type": "function"
    },
    {
      "inputs": [
        {
          "internalType": "address",
          "name": "owner",
          "type": "address"
        },
        {
          "internalType": "address",
          "name": "operator",
          "type": "address"
        }
      ],
      "name": "isApprovedForAll",
      "outputs": [
        {
          "internalType": "bool",
          "name": "",
          "type": "bool"
        }
      ],
      "stateMutability": "view",
      "type": "function"
    },
    {
      "inputs": [],
      "name": "name",
      "outputs": [
        {
          "internalType": "string",
          "name": "",
          "type": "string"
        }
      ],
      "stateMutability": "view",
      "type": "function"
    },
    {
      "inputs": [],
      "name": "owner",
      "outputs": [
        {
          "internalType": "address",
          "name": "",
          "type": "address"
        }
      ],
      "stateMutability": "view",
      "type": "function"
    },
    {
      "inputs": [
        {
          "internalType": "uint256",
          "name": "tokenId",
          "type": "uint256"
        }
      ],
      "name": "ownerOf",
      "outputs": [
        {
          "internalType": "address",
          "name": "",
          "type": "address"
        }
      ],
      "stateMutability": "view",
      "type": "function"
    },
    {
      "inputs": [],
      "name": "paused",
      "outputs": [
        {
          "internalType": "bool",
          "name": "",
          "type": "bool"
        }
      ],
      "stateMutability": "view",
      "type": "function"
    },
    {
      "inputs": [],
      "name": "renounceOwnership",
      "outputs": [],
      "stateMutability": "nonpayable",
      "type": "function"
    },
    {
      "inputs": [
        {
          "internalType": "uint256",
          "name": "_tokenId",
          "type": "uint256"
        },
        {
          "internalType": "uint256",
          "name": "_salePrice",
          "type": "uint256"
        }
      ],
      "name": "royaltyInfo",
      "outputs": [
        {
          "internalType": "address",
          "name": "receiver",
          "type": "address"
        },
        {
          "internalType": "uint256",
          "name": "royaltyAmount",
          "type": "uint256"
        }
      ],
      "stateMutability": "view",
      "type": "function"
    },
    {
      "inputs": [
        {
          "internalType": "address",
          "name": "from",
          "type": "address"
        },
        {
          "internalType": "address",
          "name": "to",
          "type": "address"
        },
        {
          "internalType": "uint256",
          "name": "tokenId",
          "type": "uint256"
        }
      ],
      "name": "safeTransferFrom",
      "outputs": [],
      "stateMutability": "nonpayable",
      "type": "function"
    },
    {
      "inputs": [
        {
          "internalType": "address",
          "name": "from",
          "type": "address"
        },
        {
          "internalType": "address",
          "name": "to",
          "type": "address"
        },
        {
          "internalType": "uint256",
          "name": "tokenId",
          "type": "uint256"
        },
        {
          "internalType": "bytes",
          "name": "data",
          "type": "bytes"
        }
      ],
      "name": "safeTransferFrom",
      "outputs": [],
      "stateMutability": "nonpayable",
      "type": "function"
    },
    {
      "inputs": [
        {
          "internalType": "address",
          "name": "operator",
          "type": "address"
        },
        {
          "internalType": "bool",
          "name": "approved",
          "type": "bool"
        }
      ],
      "name": "setApprovalForAll",
      "outputs": [],
      "stateMutability": "nonpayable",
      "type": "function"
    },
    {
      "inputs": [
        {
          "internalType": "bytes4",
          "name": "interfaceId",
          "type": "bytes4"
        }
      ],
      "name": "supportsInterface",
      "outputs": [
        {
          "internalType": "bool",
          "name": "",
          "type": "bool"
        }
      ],
      "stateMutability": "view",
      "type": "function"
    },
    {
      "inputs": [],
      "name": "symbol",
      "outputs": [
        {
          "internalType": "string",
          "name": "",
          "type": "string"
        }
      ],
      "stateMutability": "view",
      "type": "function"
    },
    {
      "inputs": [
        {
          "internalType": "uint256",
          "name": "tokenId",
          "type": "uint256"
        }
      ],
      "name": "tokenURI",
      "outputs": [
        {
          "internalType": "string",
          "name": "",
          "type": "string"
        }
      ],
      "stateMutability": "view",
      "type": "function"
    },
    {
      "inputs": [
        {
          "internalType": "address",
          "name": "from",
          "type": "address"
        },
        {
          "internalType": "address",
          "name": "to",
          "type": "address"
        },
        {
          "internalType": "uint256",
          "name": "tokenId",
          "type": "uint256"
        }
      ],
      "name": "transferFrom",
      "outputs": [],
      "stateMutability": "nonpayable",
      "type": "function"
    },
    {
      "inputs": [
        {
          "internalType": "address",
          "name": "newOwner",
          "type": "address"
        }
      ],
      "name": "transferOwnership",
      "outputs": [],
      "stateMutability": "nonpayable",
      "type": "function"
    }
  ],
  "bytecode": "0x60806040523480156200001157600080fd5b5060405162001fcd38038062001fcd83398101604081905262000034916200024d565b8151829082906200004d906000906020850190620000da565b50805162000063906001906020840190620000da565b50506006805460ff19169055506001600755620000803362000088565b5050620002f4565b600880546001600160a01b038381166001600160a01b0319831681179093556040519116919082907f8be0079c531659141344cd1fd0a4f28419497f9722a3daafe3b4186f6b6457e090600090a35050565b828054620000e890620002b7565b90600052602060002090601f0160209004810192826200010c576000855562000157565b82601f106200012757805160ff191683800117855562000157565b8280016001018555821562000157579182015b82811115620001575782518255916020019190600101906200013a565b506200016592915062000169565b5090565b5b808211156200016557600081556001016200016a565b634e487b7160e01b600052604160045260246000fd5b600082601f830112620001a857600080fd5b81516001600160401b0380821115620001c557620001c562000180565b604051601f8301601f19908116603f01168101908282118183101715620001f057620001f062000180565b816040528381526020925086838588010111156200020d57600080fd5b600091505b8382101562000231578582018301518183018401529082019062000212565b83821115620002435760008385830101525b9695505050505050565b600080604083850312156200026157600080fd5b82516001600160401b03808211156200027957600080fd5b620002878683870162000196565b935060208501519150808211156200029e57600080fd5b50620002ad8582860162000196565b9150509250929050565b600181811c90821680620002cc57607f821691505b60208210811415620002ee57634e487b7160e01b600052602260045260246000fd5b50919050565b611cc980620003046000396000f3fe608060405234801561001057600080fd5b50600436106101cf5760003560e01c80635c975abb11610104578063a22cb465116100a2578063e985e9c511610071578063e985e9c5146103e3578063f2fde38b1461041f578063febfd6c314610432578063ffc27c0e1461044557600080fd5b8063a22cb46514610397578063adfc7dae146103aa578063b88d4fde146103bd578063c87b56dd146103d057600080fd5b8063715018a6116100de578063715018a6146103635780638da5cb5b1461036b5780638f2839701461037c57806395d89b411461038f57600080fd5b80635c975abb1461031c5780636352211e1461032757806370a082311461035057600080fd5b80632a55205a11610171578063452fa3d31161014b578063452fa3d3146102e6578063472f1e02146102ee5780634e69d56014610301578063575b57ea1461030957600080fd5b80632a55205a1461028a5780633b66b00a146102bc57806342842e0e146102d357600080fd5b8063081812fc116101ad578063081812fc1461023c578063095ea7b31461024f5780631ca9741b1461026457806323b872dd1461027757600080fd5b806301bc45c9146101d457806301ffc9a71461020457806306fdde0314610227575b600080fd5b600a546101e7906001600160a01b031681565b6040516001600160a01b0390911681526020015b60405180910390f35b61021761021236600461173a565b610458565b60405190151581526020016101fb565b61022f61049e565b6040516101fb91906117af565b6101e761024a3660046117c2565b610530565b61026261025d3660046117f0565b610557565b005b61026261027236600461181c565b610672565b610262610285366004611839565b6106f1565b61029d61029836600461187a565b610722565b604080516001600160a01b0390931683526020830191909152016101fb565b6102c5600f5481565b6040519081526020016101fb565b6102626102e1366004611839565b61073a565b61022f610755565b6102626102fc36600461181c565b6107e3565b610217610862565b600d546101e7906001600160a01b031681565b60065460ff16610217565b6101e76103353660046117c2565b6000908152600960205260409020546001600160a01b031690565b6102c561035e36600461181c565b610876565b6102626108fc565b6008546001600160a01b03166101e7565b61026261038a36600461181c565b610910565b61022f61098f565b6102626103a536600461189c565b610a2d565b600b546101e7906001600160a01b031681565b6102626103cb3660046118f0565b610a3c565b61022f6103de3660046117c2565b610a74565b6102176103f13660046119d0565b6001600160a01b03918216600090815260056020908152604080832093909416825291909152205460ff1690565b61026261042d36600461181c565b610ae8565b61026261044036600461181c565b610b61565b600c546101e7906001600160a01b031681565b60006001600160e01b031982166302734eab60e51b148061048957506001600160e01b0319821663152a902d60e11b145b80610498575061049882610be0565b92915050565b6060600e80546104ad906119fe565b80601f01602080910402602001604051908101604052809291908181526020018280546104d9906119fe565b80156105265780601f106104fb57610100808354040283529160200191610526565b820191906000526020600020905b81548152906001019060200180831161050957829003601f168201915b5050505050905090565b600061053b82610c30565b506000908152600460205260409020546001600160a01b031690565b600061056282610c8f565b9050806001600160a01b0316836001600160a01b031614156105d55760405162461bcd60e51b815260206004820152602160248201527f4552433732313a20617070726f76616c20746f2063757272656e74206f776e656044820152603960f91b60648201526084015b60405180910390fd5b336001600160a01b03821614806105f157506105f181336103f1565b6106635760405162461bcd60e51b815260206004820152603d60248201527f4552433732313a20617070726f76652063616c6c6572206973206e6f7420746f60448201527f6b656e206f776e6572206f7220617070726f76656420666f7220616c6c00000060648201526084016105cc565b61066d8383610cef565b505050565b600a546001600160a01b03163314801561069457506001600160a01b03811615155b6040518060400160405280600381526020016231303160e81b815250906106ce5760405162461bcd60e51b81526004016105cc91906117af565b50600c80546001600160a01b0319166001600160a01b0392909216919091179055565b6106fb3382610d5d565b6107175760405162461bcd60e51b81526004016105cc90611a39565b61066d838383610ddc565b60008061072f8484610e16565b915091509250929050565b61066d83838360405180602001604052806000815250610a3c565b600e8054610762906119fe565b80601f016020809104026020016040519081016040528092919081815260200182805461078e906119fe565b80156107db5780601f106107b0576101008083540402835291602001916107db565b820191906000526020600020905b8154815290600101906020018083116107be57829003601f168201915b505050505081565b600a546001600160a01b03163314801561080557506001600160a01b03811615155b6040518060400160405280600381526020016231303160e81b8152509061083f5760405162461bcd60e51b81526004016105cc91906117af565b50600d80546001600160a01b0319166001600160a01b0392909216919091179055565b600061087060065460ff1690565b15905090565b60006001600160a01b0382166108e05760405162461bcd60e51b815260206004820152602960248201527f4552433732313a2061646472657373207a65726f206973206e6f7420612076616044820152683634b21037bbb732b960b91b60648201526084016105cc565b506001600160a01b031660009081526003602052604090205490565b610904610fb0565b61090e600061100a565b565b600a546001600160a01b03163314801561093257506001600160a01b03811615155b6040518060400160405280600381526020016231303160e81b8152509061096c5760405162461bcd60e51b81526004016105cc91906117af565b50600a80546001600160a01b0319166001600160a01b0392909216919091179055565b6060610a2860016003600e80546109a5906119fe565b80601f01602080910402602001604051908101604052809291908181526020018280546109d1906119fe565b8015610a1e5780601f106109f357610100808354040283529160200191610a1e565b820191906000526020600020905b815481529060010190602001808311610a0157829003601f168201915b505050505061105c565b905090565b610a38338383611143565b5050565b610a463383610d5d565b610a625760405162461bcd60e51b81526004016105cc90611a39565b610a6e84848484611212565b50505050565b6060610a7f82610c30565b6000610a9660408051602081019091526000815290565b90506000815111610ab65760405180602001604052806000815250610ae1565b80610ac084611245565b604051602001610ad1929190611a86565b6040516020818303038152906040525b9392505050565b610af0610fb0565b6001600160a01b038116610b555760405162461bcd60e51b815260206004820152602660248201527f4f776e61626c653a206e6577206f776e657220697320746865207a65726f206160448201526564647265737360d01b60648201526084016105cc565b610b5e8161100a565b50565b600a546001600160a01b031633148015610b8357506001600160a01b03811615155b6040518060400160405280600381526020016231303160e81b81525090610bbd5760405162461bcd60e51b81526004016105cc91906117af565b50600b80546001600160a01b0319166001600160a01b0392909216919091179055565b60006001600160e01b031982166380ac58cd60e01b1480610c1157506001600160e01b03198216635b5e139f60e01b145b8061049857506301ffc9a760e01b6001600160e01b0319831614610498565b6000818152600960205260409020546001600160a01b0316610b5e5760405162461bcd60e51b8152602060048201526018602482015277115490cdcc8c4e881a5b9d985b1a59081d1bdad95b88125160421b60448201526064016105cc565b6000818152600260205260408120546001600160a01b0316806104985760405162461bcd60e51b8152602060048201526018602482015277115490cdcc8c4e881a5b9d985b1a59081d1bdad95b88125160421b60448201526064016105cc565b600081815260046020526040902080546001600160a01b0319166001600160a01b0384169081179091558190610d2482610c8f565b6001600160a01b03167f8c5be1e5ebec7d5bd14f71427d1e84f3dd0314c0f7b2291e5b200ac8c7c3b92560405160405180910390a45050565b600080610d6983610c8f565b9050806001600160a01b0316846001600160a01b03161480610db057506001600160a01b0380821660009081526005602090815260408083209388168352929052205460ff165b80610dd45750836001600160a01b0316610dc984610530565b6001600160a01b0316145b949350505050565b610de78383836112e2565b600090815260096020526040902080546001600160a01b0319166001600160a01b039290921691909117905550565b600a54600f54600b546001600160a01b0392831692600092911615610f8f57600b546040805180820182526013815272524f59414c54595f46494e5f4144445245535360681b6020820152905163bf40fac160e01b81526001600160a01b0390921691600091839163bf40fac191610e90916004016117af565b602060405180830381865afa158015610ead573d6000803e3d6000fd5b505050506040513d601f19601f82011682018060405250810190610ed19190611ab5565b90506001600160a01b03811615610ee6578094505b82610f8c57604080518082018252601b81527f44454641554c545f524f59414c54595f46494e5f50455243454e54000000000060208201529051636d12dce160e01b81526001600160a01b03841691636d12dce191610f4891906004016117af565b602060405180830381865afa158015610f65573d6000803e3d6000fd5b505050506040513d601f19601f82011682018060405250810190610f899190611ad2565b92505b50505b612710610f9c8286611b01565b610fa69190611b20565b9150509250929050565b6008546001600160a01b0316331461090e5760405162461bcd60e51b815260206004820181905260248201527f4f776e61626c653a2063616c6c6572206973206e6f7420746865206f776e657260448201526064016105cc565b600880546001600160a01b038381166001600160a01b0319831681179093556040519116919082907f8be0079c531659141344cd1fd0a4f28419497f9722a3daafe3b4186f6b6457e090600090a35050565b6060600061106a8585611b42565b611075906001611b59565b67ffffffffffffffff81111561108d5761108d6118da565b6040519080825280601f01601f1916602001820160405280156110b7576020820181803683370190505b50905060005b6110c78686611b42565b811161113a578360016110da8884611b59565b6110e49190611b42565b815181106110f4576110f4611b71565b602001015160f81c60f81b82828151811061111157611111611b71565b60200101906001600160f81b031916908160001a9053508061113281611b87565b9150506110bd565b50949350505050565b816001600160a01b0316836001600160a01b031614156111a55760405162461bcd60e51b815260206004820152601960248201527f4552433732313a20617070726f766520746f2063616c6c65720000000000000060448201526064016105cc565b6001600160a01b03838116600081815260056020908152604080832094871680845294825291829020805460ff191686151590811790915591519182527f17307eab39ab6107e8899845ad3d59bd9653f200f220920489ca2b5937696c31910160405180910390a3505050565b61121d848484610ddc565b61122984848484611453565b610a6e5760405162461bcd60e51b81526004016105cc90611ba2565b6060600061125283611551565b600101905060008167ffffffffffffffff811115611272576112726118da565b6040519080825280601f01601f19166020018201604052801561129c576020820181803683370190505b5090508181016020015b600019016f181899199a1a9b1b9c1cb0b131b232b360811b600a86061a8153600a85049450846112d5576112da565b6112a6565b509392505050565b826001600160a01b03166112f582610c8f565b6001600160a01b03161461131b5760405162461bcd60e51b81526004016105cc90611bf4565b6001600160a01b03821661137d5760405162461bcd60e51b8152602060048201526024808201527f4552433732313a207472616e7366657220746f20746865207a65726f206164646044820152637265737360e01b60648201526084016105cc565b61138a8383836001611629565b826001600160a01b031661139d82610c8f565b6001600160a01b0316146113c35760405162461bcd60e51b81526004016105cc90611bf4565b600081815260046020908152604080832080546001600160a01b03199081169091556001600160a01b0387811680865260038552838620805460001901905590871680865283862080546001019055868652600290945282852080549092168417909155905184937fddf252ad1be2c89b69c2b068fc378daa952ba7f163c4a11628f55a4df523b3ef91a4505050565b60006001600160a01b0384163b1561154657604051630a85bd0160e11b81526001600160a01b0385169063150b7a0290611497903390899088908890600401611c39565b6020604051808303816000875af19250505080156114d2575060408051601f3d908101601f191682019092526114cf91810190611c76565b60015b61152c573d808015611500576040519150601f19603f3d011682016040523d82523d6000602084013e611505565b606091505b5080516115245760405162461bcd60e51b81526004016105cc90611ba2565b805181602001fd5b6001600160e01b031916630a85bd0160e11b149050610dd4565b506001949350505050565b60008072184f03e93ff9f4daa797ed6e38ed64bf6a1f0160401b83106115905772184f03e93ff9f4daa797ed6e38ed64bf6a1f0160401b830492506040015b6d04ee2d6d415b85acef810000000083106115bc576d04ee2d6d415b85acef8100000000830492506020015b662386f26fc1000083106115da57662386f26fc10000830492506010015b6305f5e10083106115f2576305f5e100830492506008015b612710831061160657612710830492506004015b60648310611618576064830492506002015b600a83106104985760010192915050565b6116358484848461169c565b60065460ff1615610a6e5760405162461bcd60e51b815260206004820152602b60248201527f4552433732315061757361626c653a20746f6b656e207472616e73666572207760448201526a1a1a5b19481c185d5cd95960aa1b60648201526084016105cc565b6001811115610a6e576001600160a01b038416156116e2576001600160a01b038416600090815260036020526040812080548392906116dc908490611b42565b90915550505b6001600160a01b03831615610a6e576001600160a01b03831660009081526003602052604081208054839290611719908490611b59565b909155505050505050565b6001600160e01b031981168114610b5e57600080fd5b60006020828403121561174c57600080fd5b8135610ae181611724565b60005b8381101561177257818101518382015260200161175a565b83811115610a6e5750506000910152565b6000815180845261179b816020860160208601611757565b601f01601f19169290920160200192915050565b602081526000610ae16020830184611783565b6000602082840312156117d457600080fd5b5035919050565b6001600160a01b0381168114610b5e57600080fd5b6000806040838503121561180357600080fd5b823561180e816117db565b946020939093013593505050565b60006020828403121561182e57600080fd5b8135610ae1816117db565b60008060006060848603121561184e57600080fd5b8335611859816117db565b92506020840135611869816117db565b929592945050506040919091013590565b6000806040838503121561188d57600080fd5b50508035926020909101359150565b600080604083850312156118af57600080fd5b82356118ba816117db565b9150602083013580151581146118cf57600080fd5b809150509250929050565b634e487b7160e01b600052604160045260246000fd5b6000806000806080858703121561190657600080fd5b8435611911816117db565b93506020850135611921816117db565b925060408501359150606085013567ffffffffffffffff8082111561194557600080fd5b818701915087601f83011261195957600080fd5b81358181111561196b5761196b6118da565b604051601f8201601f19908116603f01168101908382118183101715611993576119936118da565b816040528281528a60208487010111156119ac57600080fd5b82602086016020830137600060208483010152809550505050505092959194509250565b600080604083850312156119e357600080fd5b82356119ee816117db565b915060208301356118cf816117db565b600181811c90821680611a1257607f821691505b60208210811415611a3357634e487b7160e01b600052602260045260246000fd5b50919050565b6020808252602d908201527f4552433732313a2063616c6c6572206973206e6f7420746f6b656e206f776e6560408201526c1c881bdc88185c1c1c9bdd9959609a1b606082015260800190565b60008351611a98818460208801611757565b835190830190611aac818360208801611757565b01949350505050565b600060208284031215611ac757600080fd5b8151610ae1816117db565b600060208284031215611ae457600080fd5b5051919050565b634e487b7160e01b600052601160045260246000fd5b6000816000190483118215151615611b1b57611b1b611aeb565b500290565b600082611b3d57634e487b7160e01b600052601260045260246000fd5b500490565b600082821015611b5457611b54611aeb565b500390565b60008219821115611b6c57611b6c611aeb565b500190565b634e487b7160e01b600052603260045260246000fd5b6000600019821415611b9b57611b9b611aeb565b5060010190565b60208082526032908201527f4552433732313a207472616e7366657220746f206e6f6e20455243373231526560408201527131b2b4bb32b91034b6b83632b6b2b73a32b960711b606082015260800190565b60208082526025908201527f4552433732313a207472616e736665722066726f6d20696e636f72726563742060408201526437bbb732b960d91b606082015260800190565b6001600160a01b0385811682528416602082015260408101839052608060608201819052600090611c6c90830184611783565b9695505050505050565b600060208284031215611c8857600080fd5b8151610ae18161172456fea2646970667358221220fffd8bb06f7a335a416586a749f294ef3a6dff32757fd51aa87c7174c80ccbee64736f6c634300080c0033",
  "linkReferences": {},
  "deployedLinkReferences": {}
}