{
  "_format": "hh-sol-artifact-1",
  "contractName": "ERC721Template",
  "sourceName": "contracts/nfts/ERC721Template.sol",
  "abi": [
    {
      "inputs": [
        {
          "internalType": "string",
          "name": "name",
          "type": "string"
        },
        {
          "internalType": "string",
          "name": "symbol",
          "type": "string"
        },
        {
          "internalType": "address",
          "name": "bfsAddr",
          "type": "address"
        }
      ],
      "stateMutability": "nonpayable",
      "type": "constructor"
    },
    {
      "anonymous": false,
      "inputs": [
        {
          "indexed": true,
          "internalType": "address",
          "name": "owner",
          "type": "address"
        },
        {
          "indexed": true,
          "internalType": "address",
          "name": "approved",
          "type": "address"
        },
        {
          "indexed": true,
          "internalType": "uint256",
          "name": "tokenId",
          "type": "uint256"
        }
      ],
      "name": "Approval",
      "type": "event"
    },
    {
      "anonymous": false,
      "inputs": [
        {
          "indexed": true,
          "internalType": "address",
          "name": "owner",
          "type": "address"
        },
        {
          "indexed": true,
          "internalType": "address",
          "name": "operator",
          "type": "address"
        },
        {
          "indexed": false,
          "internalType": "bool",
          "name": "approved",
          "type": "bool"
        }
      ],
      "name": "ApprovalForAll",
      "type": "event"
    },
    {
      "anonymous": false,
      "inputs": [
        {
          "indexed": true,
          "internalType": "address",
          "name": "previousOwner",
          "type": "address"
        },
        {
          "indexed": true,
          "internalType": "address",
          "name": "newOwner",
          "type": "address"
        }
      ],
      "name": "OwnershipTransferred",
      "type": "event"
    },
    {
      "anonymous": false,
      "inputs": [
        {
          "indexed": true,
          "internalType": "address",
          "name": "from",
          "type": "address"
        },
        {
          "indexed": true,
          "internalType": "address",
          "name": "to",
          "type": "address"
        },
        {
          "indexed": true,
          "internalType": "uint256",
          "name": "tokenId",
          "type": "uint256"
        }
      ],
      "name": "Transfer",
      "type": "event"
    },
    {
      "inputs": [],
      "name": "_bfsAddr",
      "outputs": [
        {
          "internalType": "address",
          "name": "",
          "type": "address"
        }
      ],
      "stateMutability": "view",
      "type": "function"
    },
    {
      "inputs": [],
      "name": "_index",
      "outputs": [
        {
          "internalType": "uint256",
          "name": "",
          "type": "uint256"
        }
      ],
      "stateMutability": "view",
      "type": "function"
    },
    {
      "inputs": [
        {
          "internalType": "address",
          "name": "to",
          "type": "address"
        },
        {
          "internalType": "uint256",
          "name": "tokenId",
          "type": "uint256"
        }
      ],
      "name": "approve",
      "outputs": [],
      "stateMutability": "nonpayable",
      "type": "function"
    },
    {
      "inputs": [
        {
          "internalType": "address",
          "name": "owner",
          "type": "address"
        }
      ],
      "name": "balanceOf",
      "outputs": [
        {
          "internalType": "uint256",
          "name": "",
          "type": "uint256"
        }
      ],
      "stateMutability": "view",
      "type": "function"
    },
    {
      "inputs": [
        {
          "internalType": "address",
          "name": "newAddr",
          "type": "address"
        }
      ],
      "name": "changeBFS",
      "outputs": [],
      "stateMutability": "nonpayable",
      "type": "function"
    },
    {
      "inputs": [
        {
          "internalType": "uint256",
          "name": "tokenId",
          "type": "uint256"
        }
      ],
      "name": "getApproved",
      "outputs": [
        {
          "internalType": "address",
          "name": "",
          "type": "address"
        }
      ],
      "stateMutability": "view",
      "type": "function"
    },
    {
      "inputs": [],
      "name": "getChainID",
      "outputs": [
        {
          "internalType": "uint256",
          "name": "",
          "type": "uint256"
        }
      ],
      "stateMutability": "view",
      "type": "function"
    },
    {
      "inputs": [
        {
          "internalType": "address",
          "name": "owner",
          "type": "address"
        },
        {
          "internalType": "address",
          "name": "operator",
          "type": "address"
        }
      ],
      "name": "isApprovedForAll",
      "outputs": [
        {
          "internalType": "bool",
          "name": "",
          "type": "bool"
        }
      ],
      "stateMutability": "view",
      "type": "function"
    },
    {
      "inputs": [
        {
          "internalType": "address",
          "name": "to",
          "type": "address"
        },
        {
          "internalType": "bytes[][]",
          "name": "chunks",
          "type": "bytes[][]"
        }
      ],
      "name": "mintBatchChunks",
      "outputs": [],
      "stateMutability": "nonpayable",
      "type": "function"
    },
    {
      "inputs": [
        {
          "internalType": "address",
          "name": "to",
          "type": "address"
        },
        {
          "internalType": "bytes[]",
          "name": "chunks",
          "type": "bytes[]"
        }
      ],
      "name": "mintChunks",
      "outputs": [],
      "stateMutability": "nonpayable",
      "type": "function"
    },
    {
      "inputs": [
        {
          "internalType": "address",
          "name": "to",
          "type": "address"
        },
        {
          "internalType": "string",
          "name": "uri",
          "type": "string"
        }
      ],
      "name": "mintUri",
      "outputs": [],
      "stateMutability": "nonpayable",
      "type": "function"
    },
    {
      "inputs": [],
      "name": "name",
      "outputs": [
        {
          "internalType": "string",
          "name": "",
          "type": "string"
        }
      ],
      "stateMutability": "view",
      "type": "function"
    },
    {
      "inputs": [],
      "name": "owner",
      "outputs": [
        {
          "internalType": "address",
          "name": "",
          "type": "address"
        }
      ],
      "stateMutability": "view",
      "type": "function"
    },
    {
      "inputs": [
        {
          "internalType": "uint256",
          "name": "tokenId",
          "type": "uint256"
        }
      ],
      "name": "ownerOf",
      "outputs": [
        {
          "internalType": "address",
          "name": "",
          "type": "address"
        }
      ],
      "stateMutability": "view",
      "type": "function"
    },
    {
      "inputs": [],
      "name": "renounceOwnership",
      "outputs": [],
      "stateMutability": "nonpayable",
      "type": "function"
    },
    {
      "inputs": [
        {
          "internalType": "uint256",
          "name": "_tokenId",
          "type": "uint256"
        },
        {
          "internalType": "uint256",
          "name": "_salePrice",
          "type": "uint256"
        }
      ],
      "name": "royaltyInfo",
      "outputs": [
        {
          "internalType": "address",
          "name": "receiver",
          "type": "address"
        },
        {
          "internalType": "uint256",
          "name": "royaltyAmount",
          "type": "uint256"
        }
      ],
      "stateMutability": "view",
      "type": "function"
    },
    {
      "inputs": [
        {
          "internalType": "address",
          "name": "from",
          "type": "address"
        },
        {
          "internalType": "address",
          "name": "to",
          "type": "address"
        },
        {
          "internalType": "uint256",
          "name": "tokenId",
          "type": "uint256"
        }
      ],
      "name": "safeTransferFrom",
      "outputs": [],
      "stateMutability": "nonpayable",
      "type": "function"
    },
    {
      "inputs": [
        {
          "internalType": "address",
          "name": "from",
          "type": "address"
        },
        {
          "internalType": "address",
          "name": "to",
          "type": "address"
        },
        {
          "internalType": "uint256",
          "name": "tokenId",
          "type": "uint256"
        },
        {
          "internalType": "bytes",
          "name": "data",
          "type": "bytes"
        }
      ],
      "name": "safeTransferFrom",
      "outputs": [],
      "stateMutability": "nonpayable",
      "type": "function"
    },
    {
      "inputs": [
        {
          "internalType": "address",
          "name": "operator",
          "type": "address"
        },
        {
          "internalType": "bool",
          "name": "approved",
          "type": "bool"
        }
      ],
      "name": "setApprovalForAll",
      "outputs": [],
      "stateMutability": "nonpayable",
      "type": "function"
    },
    {
      "inputs": [
        {
          "internalType": "bytes4",
          "name": "interfaceId",
          "type": "bytes4"
        }
      ],
      "name": "supportsInterface",
      "outputs": [
        {
          "internalType": "bool",
          "name": "",
          "type": "bool"
        }
      ],
      "stateMutability": "view",
      "type": "function"
    },
    {
      "inputs": [],
      "name": "symbol",
      "outputs": [
        {
          "internalType": "string",
          "name": "",
          "type": "string"
        }
      ],
      "stateMutability": "view",
      "type": "function"
    },
    {
      "inputs": [
        {
          "internalType": "uint256",
          "name": "tokenId",
          "type": "uint256"
        }
      ],
      "name": "tokenURI",
      "outputs": [
        {
          "internalType": "string",
          "name": "",
          "type": "string"
        }
      ],
      "stateMutability": "view",
      "type": "function"
    },
    {
      "inputs": [
        {
          "internalType": "address",
          "name": "from",
          "type": "address"
        },
        {
          "internalType": "address",
          "name": "to",
          "type": "address"
        },
        {
          "internalType": "uint256",
          "name": "tokenId",
          "type": "uint256"
        }
      ],
      "name": "transferFrom",
      "outputs": [],
      "stateMutability": "nonpayable",
      "type": "function"
    },
    {
      "inputs": [
        {
          "internalType": "address",
          "name": "newOwner",
          "type": "address"
        }
      ],
      "name": "transferOwnership",
      "outputs": [],
      "stateMutability": "nonpayable",
      "type": "function"
    }
  ],
  "bytecode": "0x60806040523480156200001157600080fd5b506040516200263738038062002637833981016040819052620000349162000272565b8251839083906200004d906000906020850190620000ff565b50805162000063906001906020840190620000ff565b505050620000806200007a620000a960201b60201c565b620000ad565b600980546001600160a01b0319166001600160a01b0392909216919091179055506200033c9050565b3390565b600780546001600160a01b038381166001600160a01b0319831681179093556040519116919082907f8be0079c531659141344cd1fd0a4f28419497f9722a3daafe3b4186f6b6457e090600090a35050565b8280546200010d90620002ff565b90600052602060002090601f0160209004810192826200013157600085556200017c565b82601f106200014c57805160ff19168380011785556200017c565b828001600101855582156200017c579182015b828111156200017c5782518255916020019190600101906200015f565b506200018a9291506200018e565b5090565b5b808211156200018a57600081556001016200018f565b634e487b7160e01b600052604160045260246000fd5b600082601f830112620001cd57600080fd5b81516001600160401b0380821115620001ea57620001ea620001a5565b604051601f8301601f19908116603f01168101908282118183101715620002155762000215620001a5565b816040528381526020925086838588010111156200023257600080fd5b600091505b8382101562000256578582018301518183018401529082019062000237565b83821115620002685760008385830101525b9695505050505050565b6000806000606084860312156200028857600080fd5b83516001600160401b0380821115620002a057600080fd5b620002ae87838801620001bb565b94506020860151915080821115620002c557600080fd5b50620002d486828701620001bb565b604086015190935090506001600160a01b0381168114620002f457600080fd5b809150509250925092565b600181811c908216806200031457607f821691505b602082108114156200033657634e487b7160e01b600052602260045260246000fd5b50919050565b6122eb806200034c6000396000f3fe608060405234801561001057600080fd5b50600436106101585760003560e01c806370a08231116100c3578063a22cb4651161007c578063a22cb465146102e2578063a408b635146102f5578063b88d4fde14610308578063c87b56dd1461031b578063e985e9c51461032e578063f2fde38b1461036a57600080fd5b806370a0823114610288578063715018a61461029b57806375bd26d2146102a357806381042374146102b65780638da5cb5b146102c957806395d89b41146102da57600080fd5b80632a55205a116101155780632a55205a14610204578063300e68441461023657806342842e0e14610249578063564b81ef1461025c5780635da9500a146102625780636352211e1461027557600080fd5b8063018610801461015d57806301ffc9a71461017957806306fdde031461019c578063081812fc146101b1578063095ea7b3146101dc57806323b872dd146101f1575b600080fd5b610166600a5481565b6040519081526020015b60405180910390f35b61018c610187366004611a37565b61037d565b6040519015158152602001610170565b6101a46103cf565b6040516101709190611aac565b6101c46101bf366004611abf565b610461565b6040516001600160a01b039091168152602001610170565b6101ef6101ea366004611aed565b610488565b005b6101ef6101ff366004611b19565b6105a3565b610217610212366004611b5a565b6105d4565b604080516001600160a01b039093168352602083019190915201610170565b6009546101c4906001600160a01b031681565b6101ef610257366004611b19565b61065d565b46610166565b6101ef610270366004611c1b565b610678565b6101c4610283366004611abf565b6106b1565b610166610296366004611c7f565b610711565b6101ef610797565b6101ef6102b1366004611d70565b6107ab565b6101ef6102c4366004611c7f565b6108f2565b6007546001600160a01b03166101c4565b6101a46109f0565b6101ef6102f0366004611e36565b6109ff565b6101ef610303366004611e74565b610a0a565b6101ef610316366004611eba565b610afb565b6101a4610329366004611abf565b610b33565b61018c61033c366004611f26565b6001600160a01b03918216600090815260056020908152604080832093909416825291909152205460ff1690565b6101ef610378366004611c7f565b610b3e565b60006001600160e01b031982166380ac58cd60e01b14806103ae57506001600160e01b03198216635b5e139f60e01b145b806103c957506301ffc9a760e01b6001600160e01b03198316145b92915050565b6060600080546103de90611f54565b80601f016020809104026020016040519081016040528092919081815260200182805461040a90611f54565b80156104575780601f1061042c57610100808354040283529160200191610457565b820191906000526020600020905b81548152906001019060200180831161043a57829003601f168201915b5050505050905090565b600061046c82610bb4565b506000908152600460205260409020546001600160a01b031690565b6000610493826106b1565b9050806001600160a01b0316836001600160a01b031614156105065760405162461bcd60e51b815260206004820152602160248201527f4552433732313a20617070726f76616c20746f2063757272656e74206f776e656044820152603960f91b60648201526084015b60405180910390fd5b336001600160a01b03821614806105225750610522813361033c565b6105945760405162461bcd60e51b815260206004820152603d60248201527f4552433732313a20617070726f76652063616c6c6572206973206e6f7420746f60448201527f6b656e206f776e6572206f7220617070726f76656420666f7220616c6c00000060648201526084016104fd565b61059e8383610c13565b505050565b6105ad3382610c81565b6105c95760405162461bcd60e51b81526004016104fd90611f8f565b61059e838383610d00565b600080306001600160a01b0316638da5cb5b6040518163ffffffff1660e01b8152600401602060405180830381865afa158015610615573d6000803e3d6000fd5b505050506040513d601f19601f820116820180604052508101906106399190611fdc565b915061271061064a846103e861200f565b610654919061202e565b90509250929050565b61059e83838360405180602001604052806000815250610afb565b610680610e71565b600a805490600061069083612050565b91905055506106a182600a54610ecb565b6106ad600a5482610ee5565b5050565b6000818152600260205260408120546001600160a01b0316806103c95760405162461bcd60e51b8152602060048201526018602482015277115490cdcc8c4e881a5b9d985b1a59081d1bdad95b88125160421b60448201526064016104fd565b60006001600160a01b03821661077b5760405162461bcd60e51b815260206004820152602960248201527f4552433732313a2061646472657373207a65726f206973206e6f7420612076616044820152683634b21037bbb732b960b91b60648201526084016104fd565b506001600160a01b031660009081526003602052604090205490565b61079f610e71565b6107a96000610f7f565b565b6107b3610e71565b60005b815181101561059e57600a80549060006107cf83612050565b91905055506107e083600a54610ecb565b6009546001600160a01b031660005b8383815181106108015761080161206b565b6020026020010151518110156108c857600061081e600a54610fd1565b9050826001600160a01b031663928a4b3e82848888815181106108435761084361206b565b6020026020010151868151811061085c5761085c61206b565b60200260200101516040518463ffffffff1660e01b815260040161088293929190612081565b600060405180830381600087803b15801561089c57600080fd5b505af11580156108b0573d6000803e3d6000fd5b505050505080806108c090612050565b9150506107ef565b506108df600a546108da600a5461106e565b610ee5565b50806108ea81612050565b9150506107b6565b6108fa610e71565b306001600160a01b0316638da5cb5b6040518163ffffffff1660e01b8152600401602060405180830381865afa158015610938573d6000803e3d6000fd5b505050506040513d601f19601f8201168201806040525081019061095c9190611fdc565b6001600160a01b0316336001600160a01b031614801561098457506001600160a01b03811615155b6109bc5760405162461bcd60e51b815260206004820152600960248201526824a72b2fa7aba722a960b91b60448201526064016104fd565b6009546001600160a01b038281169116146109ed57600980546001600160a01b0319166001600160a01b0383161790555b50565b6060600180546103de90611f54565b6106ad33838361112d565b610a12610e71565b600a8054906000610a2283612050565b9190505550610a3382600a54610ecb565b6009546001600160a01b031660005b8251811015610ae9576000610a58600a54610fd1565b9050826001600160a01b031663928a4b3e8284878681518110610a7d57610a7d61206b565b60200260200101516040518463ffffffff1660e01b8152600401610aa393929190612081565b600060405180830381600087803b158015610abd57600080fd5b505af1158015610ad1573d6000803e3d6000fd5b50505050508080610ae190612050565b915050610a42565b5061059e600a546108da600a5461106e565b610b053383610c81565b610b215760405162461bcd60e51b81526004016104fd90611f8f565b610b2d848484846111fc565b50505050565b60606103c98261122f565b610b46610e71565b6001600160a01b038116610bab5760405162461bcd60e51b815260206004820152602660248201527f4f776e61626c653a206e6577206f776e657220697320746865207a65726f206160448201526564647265737360d01b60648201526084016104fd565b6109ed81610f7f565b6000818152600260205260409020546001600160a01b03166109ed5760405162461bcd60e51b8152602060048201526018602482015277115490cdcc8c4e881a5b9d985b1a59081d1bdad95b88125160421b60448201526064016104fd565b600081815260046020526040902080546001600160a01b0319166001600160a01b0384169081179091558190610c48826106b1565b6001600160a01b03167f8c5be1e5ebec7d5bd14f71427d1e84f3dd0314c0f7b2291e5b200ac8c7c3b92560405160405180910390a45050565b600080610c8d836106b1565b9050806001600160a01b0316846001600160a01b03161480610cd457506001600160a01b0380821660009081526005602090815260408083209388168352929052205460ff165b80610cf85750836001600160a01b0316610ced84610461565b6001600160a01b0316145b949350505050565b826001600160a01b0316610d13826106b1565b6001600160a01b031614610d395760405162461bcd60e51b81526004016104fd906120b6565b6001600160a01b038216610d9b5760405162461bcd60e51b8152602060048201526024808201527f4552433732313a207472616e7366657220746f20746865207a65726f206164646044820152637265737360e01b60648201526084016104fd565b610da88383836001611338565b826001600160a01b0316610dbb826106b1565b6001600160a01b031614610de15760405162461bcd60e51b81526004016104fd906120b6565b600081815260046020908152604080832080546001600160a01b03199081169091556001600160a01b0387811680865260038552838620805460001901905590871680865283862080546001019055868652600290945282852080549092168417909155905184937fddf252ad1be2c89b69c2b068fc378daa952ba7f163c4a11628f55a4df523b3ef91a4505050565b6007546001600160a01b031633146107a95760405162461bcd60e51b815260206004820181905260248201527f4f776e61626c653a2063616c6c6572206973206e6f7420746865206f776e657260448201526064016104fd565b6106ad8282604051806020016040528060008152506113c0565b6000828152600260205260409020546001600160a01b0316610f605760405162461bcd60e51b815260206004820152602e60248201527f45524337323155524953746f726167653a2055524920736574206f66206e6f6e60448201526d32bc34b9ba32b73a103a37b5b2b760911b60648201526084016104fd565b6000828152600660209081526040909120825161059e92840190611988565b600780546001600160a01b038381166001600160a01b0319831681179093556040519116919082907f8be0079c531659141344cd1fd0a4f28419497f9722a3daafe3b4186f6b6457e090600090a35050565b60606000610fde836113f3565b600101905060008167ffffffffffffffff811115610ffe57610ffe611b7c565b6040519080825280601f01601f191660200182016040528015611028576020820181803683370190505b5090508181016020015b600019016f181899199a1a9b1b9c1cb0b131b232b360811b600a86061a8153600a850494508461106157611066565b611032565b509392505050565b606060006110dc306001600160a01b031663564b81ef6040518163ffffffff1660e01b8152600401602060405180830381865afa1580156110b3573d6000803e3d6000fd5b505050506040513d601f19601f820116820180604052508101906110d791906120fb565b610fd1565b6009546110f1906001600160a01b03166114cb565b6110fa306114cb565b61110386610fd1565b6040516020016111169493929190612114565b60408051601f198184030181529190529392505050565b816001600160a01b0316836001600160a01b0316141561118f5760405162461bcd60e51b815260206004820152601960248201527f4552433732313a20617070726f766520746f2063616c6c65720000000000000060448201526064016104fd565b6001600160a01b03838116600081815260056020908152604080832094871680845294825291829020805460ff191686151590811790915591519182527f17307eab39ab6107e8899845ad3d59bd9653f200f220920489ca2b5937696c31910160405180910390a3505050565b611207848484610d00565b611213848484846114e1565b610b2d5760405162461bcd60e51b81526004016104fd9061219e565b606061123a82610bb4565b6000828152600660205260408120805461125390611f54565b80601f016020809104026020016040519081016040528092919081815260200182805461127f90611f54565b80156112cc5780601f106112a1576101008083540402835291602001916112cc565b820191906000526020600020905b8154815290600101906020018083116112af57829003601f168201915b5050505050905060006112ea60408051602081019091526000815290565b90508051600014156112fd575092915050565b81511561132f5780826040516020016113179291906121f0565b60405160208183030381529060405292505050919050565b610cf8846115df565b6001811115610b2d576001600160a01b0384161561137e576001600160a01b0384166000908152600360205260408120805483929061137890849061221f565b90915550505b6001600160a01b03831615610b2d576001600160a01b038316600090815260036020526040812080548392906113b5908490612236565b909155505050505050565b6113ca8383611653565b6113d760008484846114e1565b61059e5760405162461bcd60e51b81526004016104fd9061219e565b60008072184f03e93ff9f4daa797ed6e38ed64bf6a1f0160401b83106114325772184f03e93ff9f4daa797ed6e38ed64bf6a1f0160401b830492506040015b6d04ee2d6d415b85acef8100000000831061145e576d04ee2d6d415b85acef8100000000830492506020015b662386f26fc10000831061147c57662386f26fc10000830492506010015b6305f5e1008310611494576305f5e100830492506008015b61271083106114a857612710830492506004015b606483106114ba576064830492506002015b600a83106103c95760010192915050565b60606103c96001600160a01b03831660146117ec565b60006001600160a01b0384163b156115d457604051630a85bd0160e11b81526001600160a01b0385169063150b7a029061152590339089908890889060040161224e565b6020604051808303816000875af1925050508015611560575060408051601f3d908101601f1916820190925261155d91810190612281565b60015b6115ba573d80801561158e576040519150601f19603f3d011682016040523d82523d6000602084013e611593565b606091505b5080516115b25760405162461bcd60e51b81526004016104fd9061219e565b805181602001fd5b6001600160e01b031916630a85bd0160e11b149050610cf8565b506001949350505050565b60606115ea82610bb4565b600061160160408051602081019091526000815290565b90506000815111611621576040518060200160405280600081525061164c565b8061162b84610fd1565b60405160200161163c9291906121f0565b6040516020818303038152906040525b9392505050565b6001600160a01b0382166116a95760405162461bcd60e51b815260206004820181905260248201527f4552433732313a206d696e7420746f20746865207a65726f206164647265737360448201526064016104fd565b6000818152600260205260409020546001600160a01b03161561170e5760405162461bcd60e51b815260206004820152601c60248201527f4552433732313a20746f6b656e20616c7265616479206d696e7465640000000060448201526064016104fd565b61171c600083836001611338565b6000818152600260205260409020546001600160a01b0316156117815760405162461bcd60e51b815260206004820152601c60248201527f4552433732313a20746f6b656e20616c7265616479206d696e7465640000000060448201526064016104fd565b6001600160a01b038216600081815260036020908152604080832080546001019055848352600290915280822080546001600160a01b0319168417905551839291907fddf252ad1be2c89b69c2b068fc378daa952ba7f163c4a11628f55a4df523b3ef908290a45050565b606060006117fb83600261200f565b611806906002612236565b67ffffffffffffffff81111561181e5761181e611b7c565b6040519080825280601f01601f191660200182016040528015611848576020820181803683370190505b509050600360fc1b816000815181106118635761186361206b565b60200101906001600160f81b031916908160001a905350600f60fb1b816001815181106118925761189261206b565b60200101906001600160f81b031916908160001a90535060006118b684600261200f565b6118c1906001612236565b90505b6001811115611939576f181899199a1a9b1b9c1cb0b131b232b360811b85600f16601081106118f5576118f561206b565b1a60f81b82828151811061190b5761190b61206b565b60200101906001600160f81b031916908160001a90535060049490941c936119328161229e565b90506118c4565b50831561164c5760405162461bcd60e51b815260206004820181905260248201527f537472696e67733a20686578206c656e67746820696e73756666696369656e7460448201526064016104fd565b82805461199490611f54565b90600052602060002090601f0160209004810192826119b657600085556119fc565b82601f106119cf57805160ff19168380011785556119fc565b828001600101855582156119fc579182015b828111156119fc5782518255916020019190600101906119e1565b50611a08929150611a0c565b5090565b5b80821115611a085760008155600101611a0d565b6001600160e01b0319811681146109ed57600080fd5b600060208284031215611a4957600080fd5b813561164c81611a21565b60005b83811015611a6f578181015183820152602001611a57565b83811115610b2d5750506000910152565b60008151808452611a98816020860160208601611a54565b601f01601f19169290920160200192915050565b60208152600061164c6020830184611a80565b600060208284031215611ad157600080fd5b5035919050565b6001600160a01b03811681146109ed57600080fd5b60008060408385031215611b0057600080fd5b8235611b0b81611ad8565b946020939093013593505050565b600080600060608486031215611b2e57600080fd5b8335611b3981611ad8565b92506020840135611b4981611ad8565b929592945050506040919091013590565b60008060408385031215611b6d57600080fd5b50508035926020909101359150565b634e487b7160e01b600052604160045260246000fd5b604051601f8201601f1916810167ffffffffffffffff81118282101715611bbb57611bbb611b7c565b604052919050565b600067ffffffffffffffff831115611bdd57611bdd611b7c565b611bf0601f8401601f1916602001611b92565b9050828152838383011115611c0457600080fd5b828260208301376000602084830101529392505050565b60008060408385031215611c2e57600080fd5b8235611c3981611ad8565b9150602083013567ffffffffffffffff811115611c5557600080fd5b8301601f81018513611c6657600080fd5b611c7585823560208401611bc3565b9150509250929050565b600060208284031215611c9157600080fd5b813561164c81611ad8565b600067ffffffffffffffff821115611cb657611cb6611b7c565b5060051b60200190565b600082601f830112611cd157600080fd5b61164c83833560208501611bc3565b600082601f830112611cf157600080fd5b81356020611d06611d0183611c9c565b611b92565b82815260059290921b84018101918181019086841115611d2557600080fd5b8286015b84811015611d6557803567ffffffffffffffff811115611d495760008081fd5b611d578986838b0101611cc0565b845250918301918301611d29565b509695505050505050565b60008060408385031215611d8357600080fd5b8235611d8e81611ad8565b915060208381013567ffffffffffffffff80821115611dac57600080fd5b818601915086601f830112611dc057600080fd5b8135611dce611d0182611c9c565b81815260059190911b83018401908481019089831115611ded57600080fd5b8585015b83811015611e2557803585811115611e095760008081fd5b611e178c89838a0101611ce0565b845250918601918601611df1565b508096505050505050509250929050565b60008060408385031215611e4957600080fd5b8235611e5481611ad8565b915060208301358015158114611e6957600080fd5b809150509250929050565b60008060408385031215611e8757600080fd5b8235611e9281611ad8565b9150602083013567ffffffffffffffff811115611eae57600080fd5b611c7585828601611ce0565b60008060008060808587031215611ed057600080fd5b8435611edb81611ad8565b93506020850135611eeb81611ad8565b925060408501359150606085013567ffffffffffffffff811115611f0e57600080fd5b611f1a87828801611cc0565b91505092959194509250565b60008060408385031215611f3957600080fd5b8235611f4481611ad8565b91506020830135611e6981611ad8565b600181811c90821680611f6857607f821691505b60208210811415611f8957634e487b7160e01b600052602260045260246000fd5b50919050565b6020808252602d908201527f4552433732313a2063616c6c6572206973206e6f7420746f6b656e206f776e6560408201526c1c881bdc88185c1c1c9bdd9959609a1b606082015260800190565b600060208284031215611fee57600080fd5b815161164c81611ad8565b634e487b7160e01b600052601160045260246000fd5b600081600019048311821515161561202957612029611ff9565b500290565b60008261204b57634e487b7160e01b600052601260045260246000fd5b500490565b600060001982141561206457612064611ff9565b5060010190565b634e487b7160e01b600052603260045260246000fd5b6060815260006120946060830186611a80565b84602084015282810360408401526120ac8185611a80565b9695505050505050565b60208082526025908201527f4552433732313a207472616e736665722066726f6d20696e636f72726563742060408201526437bbb732b960d91b606082015260800190565b60006020828403121561210d57600080fd5b5051919050565b656266733a2f2f60d01b815260008551612135816006850160208a01611a54565b8083019050602f60f81b8060068301528651612158816007850160208b01611a54565b600792019182018190528551612175816008850160208a01611a54565b60089201918201528351612190816009840160208801611a54565b016009019695505050505050565b60208082526032908201527f4552433732313a207472616e7366657220746f206e6f6e20455243373231526560408201527131b2b4bb32b91034b6b83632b6b2b73a32b960711b606082015260800190565b60008351612202818460208801611a54565b835190830190612216818360208801611a54565b01949350505050565b60008282101561223157612231611ff9565b500390565b6000821982111561224957612249611ff9565b500190565b6001600160a01b03858116825284166020820152604081018390526080606082018190526000906120ac90830184611a80565b60006020828403121561229357600080fd5b815161164c81611a21565b6000816122ad576122ad611ff9565b50600019019056fea26469706673582212201751b2125577ab55a048eabd5fb487335b2bac637d8f4d6d9d817797589ffa6d64736f6c634300080c0033",
  "linkReferences": {},
  "deployedLinkReferences": {}
}