{
  "_format": "hh-sol-artifact-1",
  "contractName": "ERC721Template",
  "sourceName": "contracts/nfts/ERC721Template.sol",
  "abi": [
    {
      "inputs": [
        {
          "internalType": "string",
          "name": "name",
          "type": "string"
        },
        {
          "internalType": "string",
          "name": "symbol",
          "type": "string"
        },
        {
          "internalType": "address",
          "name": "bfsAddr",
          "type": "address"
        }
      ],
      "stateMutability": "nonpayable",
      "type": "constructor"
    },
    {
      "anonymous": false,
      "inputs": [
        {
          "indexed": true,
          "internalType": "address",
          "name": "owner",
          "type": "address"
        },
        {
          "indexed": true,
          "internalType": "address",
          "name": "approved",
          "type": "address"
        },
        {
          "indexed": true,
          "internalType": "uint256",
          "name": "tokenId",
          "type": "uint256"
        }
      ],
      "name": "Approval",
      "type": "event"
    },
    {
      "anonymous": false,
      "inputs": [
        {
          "indexed": true,
          "internalType": "address",
          "name": "owner",
          "type": "address"
        },
        {
          "indexed": true,
          "internalType": "address",
          "name": "operator",
          "type": "address"
        },
        {
          "indexed": false,
          "internalType": "bool",
          "name": "approved",
          "type": "bool"
        }
      ],
      "name": "ApprovalForAll",
      "type": "event"
    },
    {
      "anonymous": false,
      "inputs": [
        {
          "indexed": true,
          "internalType": "address",
          "name": "previousOwner",
          "type": "address"
        },
        {
          "indexed": true,
          "internalType": "address",
          "name": "newOwner",
          "type": "address"
        }
      ],
      "name": "OwnershipTransferred",
      "type": "event"
    },
    {
      "anonymous": false,
      "inputs": [
        {
          "indexed": true,
          "internalType": "address",
          "name": "from",
          "type": "address"
        },
        {
          "indexed": true,
          "internalType": "address",
          "name": "to",
          "type": "address"
        },
        {
          "indexed": true,
          "internalType": "uint256",
          "name": "tokenId",
          "type": "uint256"
        }
      ],
      "name": "Transfer",
      "type": "event"
    },
    {
      "inputs": [],
      "name": "_bfsAddr",
      "outputs": [
        {
          "internalType": "address",
          "name": "",
          "type": "address"
        }
      ],
      "stateMutability": "view",
      "type": "function"
    },
    {
      "inputs": [],
      "name": "_index",
      "outputs": [
        {
          "internalType": "uint256",
          "name": "",
          "type": "uint256"
        }
      ],
      "stateMutability": "view",
      "type": "function"
    },
    {
      "inputs": [
        {
          "internalType": "address",
          "name": "to",
          "type": "address"
        },
        {
          "internalType": "uint256",
          "name": "tokenId",
          "type": "uint256"
        }
      ],
      "name": "approve",
      "outputs": [],
      "stateMutability": "nonpayable",
      "type": "function"
    },
    {
      "inputs": [
        {
          "internalType": "address",
          "name": "owner",
          "type": "address"
        }
      ],
      "name": "balanceOf",
      "outputs": [
        {
          "internalType": "uint256",
          "name": "",
          "type": "uint256"
        }
      ],
      "stateMutability": "view",
      "type": "function"
    },
    {
      "inputs": [
        {
          "internalType": "address",
          "name": "newAddr",
          "type": "address"
        }
      ],
      "name": "changeBFS",
      "outputs": [],
      "stateMutability": "nonpayable",
      "type": "function"
    },
    {
      "inputs": [
        {
          "internalType": "uint256",
          "name": "tokenId",
          "type": "uint256"
        }
      ],
      "name": "getApproved",
      "outputs": [
        {
          "internalType": "address",
          "name": "",
          "type": "address"
        }
      ],
      "stateMutability": "view",
      "type": "function"
    },
    {
      "inputs": [],
      "name": "getChainID",
      "outputs": [
        {
          "internalType": "uint256",
          "name": "",
          "type": "uint256"
        }
      ],
      "stateMutability": "view",
      "type": "function"
    },
    {
      "inputs": [
        {
          "internalType": "address",
          "name": "owner",
          "type": "address"
        },
        {
          "internalType": "address",
          "name": "operator",
          "type": "address"
        }
      ],
      "name": "isApprovedForAll",
      "outputs": [
        {
          "internalType": "bool",
          "name": "",
          "type": "bool"
        }
      ],
      "stateMutability": "view",
      "type": "function"
    },
    {
      "inputs": [
        {
          "internalType": "address",
          "name": "to",
          "type": "address"
        },
        {
          "internalType": "bytes[][]",
          "name": "chunks",
          "type": "bytes[][]"
        }
      ],
      "name": "mintBatchChunks",
      "outputs": [],
      "stateMutability": "nonpayable",
      "type": "function"
    },
    {
      "inputs": [
        {
          "internalType": "address",
          "name": "to",
          "type": "address"
        },
        {
          "internalType": "bytes[]",
          "name": "chunks",
          "type": "bytes[]"
        }
      ],
      "name": "mintChunks",
      "outputs": [],
      "stateMutability": "nonpayable",
      "type": "function"
    },
    {
      "inputs": [
        {
          "internalType": "address",
          "name": "to",
          "type": "address"
        },
        {
          "internalType": "string",
          "name": "uri",
          "type": "string"
        }
      ],
      "name": "mintUri",
      "outputs": [],
      "stateMutability": "nonpayable",
      "type": "function"
    },
    {
      "inputs": [],
      "name": "name",
      "outputs": [
        {
          "internalType": "string",
          "name": "",
          "type": "string"
        }
      ],
      "stateMutability": "view",
      "type": "function"
    },
    {
      "inputs": [],
      "name": "owner",
      "outputs": [
        {
          "internalType": "address",
          "name": "",
          "type": "address"
        }
      ],
      "stateMutability": "view",
      "type": "function"
    },
    {
      "inputs": [
        {
          "internalType": "uint256",
          "name": "tokenId",
          "type": "uint256"
        }
      ],
      "name": "ownerOf",
      "outputs": [
        {
          "internalType": "address",
          "name": "",
          "type": "address"
        }
      ],
      "stateMutability": "view",
      "type": "function"
    },
    {
      "inputs": [],
      "name": "renounceOwnership",
      "outputs": [],
      "stateMutability": "nonpayable",
      "type": "function"
    },
    {
      "inputs": [
        {
          "internalType": "uint256",
          "name": "_tokenId",
          "type": "uint256"
        },
        {
          "internalType": "uint256",
          "name": "_salePrice",
          "type": "uint256"
        }
      ],
      "name": "royaltyInfo",
      "outputs": [
        {
          "internalType": "address",
          "name": "receiver",
          "type": "address"
        },
        {
          "internalType": "uint256",
          "name": "royaltyAmount",
          "type": "uint256"
        }
      ],
      "stateMutability": "view",
      "type": "function"
    },
    {
      "inputs": [
        {
          "internalType": "address",
          "name": "from",
          "type": "address"
        },
        {
          "internalType": "address",
          "name": "to",
          "type": "address"
        },
        {
          "internalType": "uint256",
          "name": "tokenId",
          "type": "uint256"
        }
      ],
      "name": "safeTransferFrom",
      "outputs": [],
      "stateMutability": "nonpayable",
      "type": "function"
    },
    {
      "inputs": [
        {
          "internalType": "address",
          "name": "from",
          "type": "address"
        },
        {
          "internalType": "address",
          "name": "to",
          "type": "address"
        },
        {
          "internalType": "uint256",
          "name": "tokenId",
          "type": "uint256"
        },
        {
          "internalType": "bytes",
          "name": "data",
          "type": "bytes"
        }
      ],
      "name": "safeTransferFrom",
      "outputs": [],
      "stateMutability": "nonpayable",
      "type": "function"
    },
    {
      "inputs": [
        {
          "internalType": "address",
          "name": "operator",
          "type": "address"
        },
        {
          "internalType": "bool",
          "name": "approved",
          "type": "bool"
        }
      ],
      "name": "setApprovalForAll",
      "outputs": [],
      "stateMutability": "nonpayable",
      "type": "function"
    },
    {
      "inputs": [
        {
          "internalType": "bytes4",
          "name": "interfaceId",
          "type": "bytes4"
        }
      ],
      "name": "supportsInterface",
      "outputs": [
        {
          "internalType": "bool",
          "name": "",
          "type": "bool"
        }
      ],
      "stateMutability": "view",
      "type": "function"
    },
    {
      "inputs": [],
      "name": "symbol",
      "outputs": [
        {
          "internalType": "string",
          "name": "",
          "type": "string"
        }
      ],
      "stateMutability": "view",
      "type": "function"
    },
    {
      "inputs": [
        {
          "internalType": "uint256",
          "name": "tokenId",
          "type": "uint256"
        }
      ],
      "name": "tokenURI",
      "outputs": [
        {
          "internalType": "string",
          "name": "",
          "type": "string"
        }
      ],
      "stateMutability": "view",
      "type": "function"
    },
    {
      "inputs": [
        {
          "internalType": "address",
          "name": "from",
          "type": "address"
        },
        {
          "internalType": "address",
          "name": "to",
          "type": "address"
        },
        {
          "internalType": "uint256",
          "name": "tokenId",
          "type": "uint256"
        }
      ],
      "name": "transferFrom",
      "outputs": [],
      "stateMutability": "nonpayable",
      "type": "function"
    },
    {
      "inputs": [
        {
          "internalType": "address",
          "name": "newOwner",
          "type": "address"
        }
      ],
      "name": "transferOwnership",
      "outputs": [],
      "stateMutability": "nonpayable",
      "type": "function"
    }
  ],
  "bytecode": "0x60806040523480156200001157600080fd5b506040516200263d3803806200263d833981016040819052620000349162000272565b8251839083906200004d906000906020850190620000ff565b50805162000063906001906020840190620000ff565b505050620000806200007a620000a960201b60201c565b620000ad565b600980546001600160a01b0319166001600160a01b0392909216919091179055506200033c9050565b3390565b600780546001600160a01b038381166001600160a01b0319831681179093556040519116919082907f8be0079c531659141344cd1fd0a4f28419497f9722a3daafe3b4186f6b6457e090600090a35050565b8280546200010d90620002ff565b90600052602060002090601f0160209004810192826200013157600085556200017c565b82601f106200014c57805160ff19168380011785556200017c565b828001600101855582156200017c579182015b828111156200017c5782518255916020019190600101906200015f565b506200018a9291506200018e565b5090565b5b808211156200018a57600081556001016200018f565b634e487b7160e01b600052604160045260246000fd5b600082601f830112620001cd57600080fd5b81516001600160401b0380821115620001ea57620001ea620001a5565b604051601f8301601f19908116603f01168101908282118183101715620002155762000215620001a5565b816040528381526020925086838588010111156200023257600080fd5b600091505b8382101562000256578582018301518183018401529082019062000237565b83821115620002685760008385830101525b9695505050505050565b6000806000606084860312156200028857600080fd5b83516001600160401b0380821115620002a057600080fd5b620002ae87838801620001bb565b94506020860151915080821115620002c557600080fd5b50620002d486828701620001bb565b604086015190935090506001600160a01b0381168114620002f457600080fd5b809150509250925092565b600181811c908216806200031457607f821691505b602082108114156200033657634e487b7160e01b600052602260045260246000fd5b50919050565b6122f1806200034c6000396000f3fe608060405234801561001057600080fd5b50600436106101585760003560e01c806370a08231116100c3578063a22cb4651161007c578063a22cb465146102e2578063a408b635146102f5578063b88d4fde14610308578063c87b56dd1461031b578063e985e9c51461032e578063f2fde38b1461036a57600080fd5b806370a0823114610288578063715018a61461029b57806375bd26d2146102a357806381042374146102b65780638da5cb5b146102c957806395d89b41146102da57600080fd5b80632a55205a116101155780632a55205a14610204578063300e68441461023657806342842e0e14610249578063564b81ef1461025c5780635da9500a146102625780636352211e1461027557600080fd5b8063018610801461015d57806301ffc9a71461017957806306fdde031461019c578063081812fc146101b1578063095ea7b3146101dc57806323b872dd146101f1575b600080fd5b610166600a5481565b6040519081526020015b60405180910390f35b61018c610187366004611a3d565b61037d565b6040519015158152602001610170565b6101a46103cf565b6040516101709190611ab2565b6101c46101bf366004611ac5565b610461565b6040516001600160a01b039091168152602001610170565b6101ef6101ea366004611af3565b610488565b005b6101ef6101ff366004611b1f565b6105a3565b610217610212366004611b60565b6105d4565b604080516001600160a01b039093168352602083019190915201610170565b6009546101c4906001600160a01b031681565b6101ef610257366004611b1f565b61065d565b46610166565b6101ef610270366004611c21565b610678565b6101c4610283366004611ac5565b6106b1565b610166610296366004611c85565b610711565b6101ef610797565b6101ef6102b1366004611d76565b6107ab565b6101ef6102c4366004611c85565b6108f8565b6007546001600160a01b03166101c4565b6101a46109f6565b6101ef6102f0366004611e3c565b610a05565b6101ef610303366004611e7a565b610a10565b6101ef610316366004611ec0565b610b01565b6101a4610329366004611ac5565b610b39565b61018c61033c366004611f2c565b6001600160a01b03918216600090815260056020908152604080832093909416825291909152205460ff1690565b6101ef610378366004611c85565b610b44565b60006001600160e01b031982166380ac58cd60e01b14806103ae57506001600160e01b03198216635b5e139f60e01b145b806103c957506301ffc9a760e01b6001600160e01b03198316145b92915050565b6060600080546103de90611f5a565b80601f016020809104026020016040519081016040528092919081815260200182805461040a90611f5a565b80156104575780601f1061042c57610100808354040283529160200191610457565b820191906000526020600020905b81548152906001019060200180831161043a57829003601f168201915b5050505050905090565b600061046c82610bba565b506000908152600460205260409020546001600160a01b031690565b6000610493826106b1565b9050806001600160a01b0316836001600160a01b031614156105065760405162461bcd60e51b815260206004820152602160248201527f4552433732313a20617070726f76616c20746f2063757272656e74206f776e656044820152603960f91b60648201526084015b60405180910390fd5b336001600160a01b03821614806105225750610522813361033c565b6105945760405162461bcd60e51b815260206004820152603d60248201527f4552433732313a20617070726f76652063616c6c6572206973206e6f7420746f60448201527f6b656e206f776e6572206f7220617070726f76656420666f7220616c6c00000060648201526084016104fd565b61059e8383610c19565b505050565b6105ad3382610c87565b6105c95760405162461bcd60e51b81526004016104fd90611f95565b61059e838383610d06565b600080306001600160a01b0316638da5cb5b6040518163ffffffff1660e01b8152600401602060405180830381865afa158015610615573d6000803e3d6000fd5b505050506040513d601f19601f820116820180604052508101906106399190611fe2565b915061271061064a846103e8612015565b6106549190612034565b90509250929050565b61059e83838360405180602001604052806000815250610b01565b610680610e77565b600a805490600061069083612056565b91905055506106a182600a54610ed1565b6106ad600a5482610eeb565b5050565b6000818152600260205260408120546001600160a01b0316806103c95760405162461bcd60e51b8152602060048201526018602482015277115490cdcc8c4e881a5b9d985b1a59081d1bdad95b88125160421b60448201526064016104fd565b60006001600160a01b03821661077b5760405162461bcd60e51b815260206004820152602960248201527f4552433732313a2061646472657373207a65726f206973206e6f7420612076616044820152683634b21037bbb732b960b91b60648201526084016104fd565b506001600160a01b031660009081526003602052604090205490565b61079f610e77565b6107a96000610f85565b565b6107b3610e77565b60005b815181101561059e57600a80549060006107cf83612056565b91905055506107e083600a54610ed1565b600954600a546001600160a01b03909116906000906107fe90610fd7565b905060005b84848151811061081557610815612071565b6020026020010151518110156108cc57826001600160a01b031663928a4b3e838388888151811061084857610848612071565b6020026020010151858151811061086157610861612071565b60200260200101516040518463ffffffff1660e01b815260040161088793929190612087565b600060405180830381600087803b1580156108a157600080fd5b505af11580156108b5573d6000803e3d6000fd5b5050505080806108c490612056565b915050610803565b506108e3600a546108de600a54611074565b610eeb565b505080806108f090612056565b9150506107b6565b610900610e77565b306001600160a01b0316638da5cb5b6040518163ffffffff1660e01b8152600401602060405180830381865afa15801561093e573d6000803e3d6000fd5b505050506040513d601f19601f820116820180604052508101906109629190611fe2565b6001600160a01b0316336001600160a01b031614801561098a57506001600160a01b03811615155b6109c25760405162461bcd60e51b815260206004820152600960248201526824a72b2fa7aba722a960b91b60448201526064016104fd565b6009546001600160a01b038281169116146109f357600980546001600160a01b0319166001600160a01b0383161790555b50565b6060600180546103de90611f5a565b6106ad338383611133565b610a18610e77565b600a8054906000610a2883612056565b9190505550610a3982600a54610ed1565b6009546001600160a01b031660005b8251811015610aef576000610a5e600a54610fd7565b9050826001600160a01b031663928a4b3e8284878681518110610a8357610a83612071565b60200260200101516040518463ffffffff1660e01b8152600401610aa993929190612087565b600060405180830381600087803b158015610ac357600080fd5b505af1158015610ad7573d6000803e3d6000fd5b50505050508080610ae790612056565b915050610a48565b5061059e600a546108de600a54611074565b610b0b3383610c87565b610b275760405162461bcd60e51b81526004016104fd90611f95565b610b3384848484611202565b50505050565b60606103c982611235565b610b4c610e77565b6001600160a01b038116610bb15760405162461bcd60e51b815260206004820152602660248201527f4f776e61626c653a206e6577206f776e657220697320746865207a65726f206160448201526564647265737360d01b60648201526084016104fd565b6109f381610f85565b6000818152600260205260409020546001600160a01b03166109f35760405162461bcd60e51b8152602060048201526018602482015277115490cdcc8c4e881a5b9d985b1a59081d1bdad95b88125160421b60448201526064016104fd565b600081815260046020526040902080546001600160a01b0319166001600160a01b0384169081179091558190610c4e826106b1565b6001600160a01b03167f8c5be1e5ebec7d5bd14f71427d1e84f3dd0314c0f7b2291e5b200ac8c7c3b92560405160405180910390a45050565b600080610c93836106b1565b9050806001600160a01b0316846001600160a01b03161480610cda57506001600160a01b0380821660009081526005602090815260408083209388168352929052205460ff165b80610cfe5750836001600160a01b0316610cf384610461565b6001600160a01b0316145b949350505050565b826001600160a01b0316610d19826106b1565b6001600160a01b031614610d3f5760405162461bcd60e51b81526004016104fd906120bc565b6001600160a01b038216610da15760405162461bcd60e51b8152602060048201526024808201527f4552433732313a207472616e7366657220746f20746865207a65726f206164646044820152637265737360e01b60648201526084016104fd565b610dae838383600161133e565b826001600160a01b0316610dc1826106b1565b6001600160a01b031614610de75760405162461bcd60e51b81526004016104fd906120bc565b600081815260046020908152604080832080546001600160a01b03199081169091556001600160a01b0387811680865260038552838620805460001901905590871680865283862080546001019055868652600290945282852080549092168417909155905184937fddf252ad1be2c89b69c2b068fc378daa952ba7f163c4a11628f55a4df523b3ef91a4505050565b6007546001600160a01b031633146107a95760405162461bcd60e51b815260206004820181905260248201527f4f776e61626c653a2063616c6c6572206973206e6f7420746865206f776e657260448201526064016104fd565b6106ad8282604051806020016040528060008152506113c6565b6000828152600260205260409020546001600160a01b0316610f665760405162461bcd60e51b815260206004820152602e60248201527f45524337323155524953746f726167653a2055524920736574206f66206e6f6e60448201526d32bc34b9ba32b73a103a37b5b2b760911b60648201526084016104fd565b6000828152600660209081526040909120825161059e9284019061198e565b600780546001600160a01b038381166001600160a01b0319831681179093556040519116919082907f8be0079c531659141344cd1fd0a4f28419497f9722a3daafe3b4186f6b6457e090600090a35050565b60606000610fe4836113f9565b600101905060008167ffffffffffffffff81111561100457611004611b82565b6040519080825280601f01601f19166020018201604052801561102e576020820181803683370190505b5090508181016020015b600019016f181899199a1a9b1b9c1cb0b131b232b360811b600a86061a8153600a85049450846110675761106c565b611038565b509392505050565b606060006110e2306001600160a01b031663564b81ef6040518163ffffffff1660e01b8152600401602060405180830381865afa1580156110b9573d6000803e3d6000fd5b505050506040513d601f19601f820116820180604052508101906110dd9190612101565b610fd7565b6009546110f7906001600160a01b03166114d1565b611100306114d1565b61110986610fd7565b60405160200161111c949392919061211a565b60408051601f198184030181529190529392505050565b816001600160a01b0316836001600160a01b031614156111955760405162461bcd60e51b815260206004820152601960248201527f4552433732313a20617070726f766520746f2063616c6c65720000000000000060448201526064016104fd565b6001600160a01b03838116600081815260056020908152604080832094871680845294825291829020805460ff191686151590811790915591519182527f17307eab39ab6107e8899845ad3d59bd9653f200f220920489ca2b5937696c31910160405180910390a3505050565b61120d848484610d06565b611219848484846114e7565b610b335760405162461bcd60e51b81526004016104fd906121a4565b606061124082610bba565b6000828152600660205260408120805461125990611f5a565b80601f016020809104026020016040519081016040528092919081815260200182805461128590611f5a565b80156112d25780601f106112a7576101008083540402835291602001916112d2565b820191906000526020600020905b8154815290600101906020018083116112b557829003601f168201915b5050505050905060006112f060408051602081019091526000815290565b9050805160001415611303575092915050565b81511561133557808260405160200161131d9291906121f6565b60405160208183030381529060405292505050919050565b610cfe846115e5565b6001811115610b33576001600160a01b03841615611384576001600160a01b0384166000908152600360205260408120805483929061137e908490612225565b90915550505b6001600160a01b03831615610b33576001600160a01b038316600090815260036020526040812080548392906113bb90849061223c565b909155505050505050565b6113d08383611659565b6113dd60008484846114e7565b61059e5760405162461bcd60e51b81526004016104fd906121a4565b60008072184f03e93ff9f4daa797ed6e38ed64bf6a1f0160401b83106114385772184f03e93ff9f4daa797ed6e38ed64bf6a1f0160401b830492506040015b6d04ee2d6d415b85acef81000000008310611464576d04ee2d6d415b85acef8100000000830492506020015b662386f26fc10000831061148257662386f26fc10000830492506010015b6305f5e100831061149a576305f5e100830492506008015b61271083106114ae57612710830492506004015b606483106114c0576064830492506002015b600a83106103c95760010192915050565b60606103c96001600160a01b03831660146117f2565b60006001600160a01b0384163b156115da57604051630a85bd0160e11b81526001600160a01b0385169063150b7a029061152b903390899088908890600401612254565b6020604051808303816000875af1925050508015611566575060408051601f3d908101601f1916820190925261156391810190612287565b60015b6115c0573d808015611594576040519150601f19603f3d011682016040523d82523d6000602084013e611599565b606091505b5080516115b85760405162461bcd60e51b81526004016104fd906121a4565b805181602001fd5b6001600160e01b031916630a85bd0160e11b149050610cfe565b506001949350505050565b60606115f082610bba565b600061160760408051602081019091526000815290565b905060008151116116275760405180602001604052806000815250611652565b8061163184610fd7565b6040516020016116429291906121f6565b6040516020818303038152906040525b9392505050565b6001600160a01b0382166116af5760405162461bcd60e51b815260206004820181905260248201527f4552433732313a206d696e7420746f20746865207a65726f206164647265737360448201526064016104fd565b6000818152600260205260409020546001600160a01b0316156117145760405162461bcd60e51b815260206004820152601c60248201527f4552433732313a20746f6b656e20616c7265616479206d696e7465640000000060448201526064016104fd565b61172260008383600161133e565b6000818152600260205260409020546001600160a01b0316156117875760405162461bcd60e51b815260206004820152601c60248201527f4552433732313a20746f6b656e20616c7265616479206d696e7465640000000060448201526064016104fd565b6001600160a01b038216600081815260036020908152604080832080546001019055848352600290915280822080546001600160a01b0319168417905551839291907fddf252ad1be2c89b69c2b068fc378daa952ba7f163c4a11628f55a4df523b3ef908290a45050565b60606000611801836002612015565b61180c90600261223c565b67ffffffffffffffff81111561182457611824611b82565b6040519080825280601f01601f19166020018201604052801561184e576020820181803683370190505b509050600360fc1b8160008151811061186957611869612071565b60200101906001600160f81b031916908160001a905350600f60fb1b8160018151811061189857611898612071565b60200101906001600160f81b031916908160001a90535060006118bc846002612015565b6118c790600161223c565b90505b600181111561193f576f181899199a1a9b1b9c1cb0b131b232b360811b85600f16601081106118fb576118fb612071565b1a60f81b82828151811061191157611911612071565b60200101906001600160f81b031916908160001a90535060049490941c93611938816122a4565b90506118ca565b5083156116525760405162461bcd60e51b815260206004820181905260248201527f537472696e67733a20686578206c656e67746820696e73756666696369656e7460448201526064016104fd565b82805461199a90611f5a565b90600052602060002090601f0160209004810192826119bc5760008555611a02565b82601f106119d557805160ff1916838001178555611a02565b82800160010185558215611a02579182015b82811115611a025782518255916020019190600101906119e7565b50611a0e929150611a12565b5090565b5b80821115611a0e5760008155600101611a13565b6001600160e01b0319811681146109f357600080fd5b600060208284031215611a4f57600080fd5b813561165281611a27565b60005b83811015611a75578181015183820152602001611a5d565b83811115610b335750506000910152565b60008151808452611a9e816020860160208601611a5a565b601f01601f19169290920160200192915050565b6020815260006116526020830184611a86565b600060208284031215611ad757600080fd5b5035919050565b6001600160a01b03811681146109f357600080fd5b60008060408385031215611b0657600080fd5b8235611b1181611ade565b946020939093013593505050565b600080600060608486031215611b3457600080fd5b8335611b3f81611ade565b92506020840135611b4f81611ade565b929592945050506040919091013590565b60008060408385031215611b7357600080fd5b50508035926020909101359150565b634e487b7160e01b600052604160045260246000fd5b604051601f8201601f1916810167ffffffffffffffff81118282101715611bc157611bc1611b82565b604052919050565b600067ffffffffffffffff831115611be357611be3611b82565b611bf6601f8401601f1916602001611b98565b9050828152838383011115611c0a57600080fd5b828260208301376000602084830101529392505050565b60008060408385031215611c3457600080fd5b8235611c3f81611ade565b9150602083013567ffffffffffffffff811115611c5b57600080fd5b8301601f81018513611c6c57600080fd5b611c7b85823560208401611bc9565b9150509250929050565b600060208284031215611c9757600080fd5b813561165281611ade565b600067ffffffffffffffff821115611cbc57611cbc611b82565b5060051b60200190565b600082601f830112611cd757600080fd5b61165283833560208501611bc9565b600082601f830112611cf757600080fd5b81356020611d0c611d0783611ca2565b611b98565b82815260059290921b84018101918181019086841115611d2b57600080fd5b8286015b84811015611d6b57803567ffffffffffffffff811115611d4f5760008081fd5b611d5d8986838b0101611cc6565b845250918301918301611d2f565b509695505050505050565b60008060408385031215611d8957600080fd5b8235611d9481611ade565b915060208381013567ffffffffffffffff80821115611db257600080fd5b818601915086601f830112611dc657600080fd5b8135611dd4611d0782611ca2565b81815260059190911b83018401908481019089831115611df357600080fd5b8585015b83811015611e2b57803585811115611e0f5760008081fd5b611e1d8c89838a0101611ce6565b845250918601918601611df7565b508096505050505050509250929050565b60008060408385031215611e4f57600080fd5b8235611e5a81611ade565b915060208301358015158114611e6f57600080fd5b809150509250929050565b60008060408385031215611e8d57600080fd5b8235611e9881611ade565b9150602083013567ffffffffffffffff811115611eb457600080fd5b611c7b85828601611ce6565b60008060008060808587031215611ed657600080fd5b8435611ee181611ade565b93506020850135611ef181611ade565b925060408501359150606085013567ffffffffffffffff811115611f1457600080fd5b611f2087828801611cc6565b91505092959194509250565b60008060408385031215611f3f57600080fd5b8235611f4a81611ade565b91506020830135611e6f81611ade565b600181811c90821680611f6e57607f821691505b60208210811415611f8f57634e487b7160e01b600052602260045260246000fd5b50919050565b6020808252602d908201527f4552433732313a2063616c6c6572206973206e6f7420746f6b656e206f776e6560408201526c1c881bdc88185c1c1c9bdd9959609a1b606082015260800190565b600060208284031215611ff457600080fd5b815161165281611ade565b634e487b7160e01b600052601160045260246000fd5b600081600019048311821515161561202f5761202f611fff565b500290565b60008261205157634e487b7160e01b600052601260045260246000fd5b500490565b600060001982141561206a5761206a611fff565b5060010190565b634e487b7160e01b600052603260045260246000fd5b60608152600061209a6060830186611a86565b84602084015282810360408401526120b28185611a86565b9695505050505050565b60208082526025908201527f4552433732313a207472616e736665722066726f6d20696e636f72726563742060408201526437bbb732b960d91b606082015260800190565b60006020828403121561211357600080fd5b5051919050565b656266733a2f2f60d01b81526000855161213b816006850160208a01611a5a565b8083019050602f60f81b806006830152865161215e816007850160208b01611a5a565b60079201918201819052855161217b816008850160208a01611a5a565b60089201918201528351612196816009840160208801611a5a565b016009019695505050505050565b60208082526032908201527f4552433732313a207472616e7366657220746f206e6f6e20455243373231526560408201527131b2b4bb32b91034b6b83632b6b2b73a32b960711b606082015260800190565b60008351612208818460208801611a5a565b83519083019061221c818360208801611a5a565b01949350505050565b60008282101561223757612237611fff565b500390565b6000821982111561224f5761224f611fff565b500190565b6001600160a01b03858116825284166020820152604081018390526080606082018190526000906120b290830184611a86565b60006020828403121561229957600080fd5b815161165281611a27565b6000816122b3576122b3611fff565b50600019019056fea264697066735822122059276beced9b409b8a781f55222b353b27f4722d867e930e78ffc921f4944cf264736f6c634300080c0033",
  "linkReferences": {},
  "deployedLinkReferences": {}
}