{
  "_format": "hh-sol-artifact-1",
  "contractName": "ERC721Template",
  "sourceName": "contracts/nfts/ERC721Template.sol",
  "abi": [
    {
      "inputs": [
        {
          "internalType": "string",
          "name": "name",
          "type": "string"
        },
        {
          "internalType": "bytes[][]",
          "name": "chunks",
          "type": "bytes[][]"
        }
      ],
      "stateMutability": "nonpayable",
      "type": "constructor"
    },
    {
      "anonymous": false,
      "inputs": [
        {
          "indexed": true,
          "internalType": "address",
          "name": "owner",
          "type": "address"
        },
        {
          "indexed": true,
          "internalType": "address",
          "name": "approved",
          "type": "address"
        },
        {
          "indexed": true,
          "internalType": "uint256",
          "name": "tokenId",
          "type": "uint256"
        }
      ],
      "name": "Approval",
      "type": "event"
    },
    {
      "anonymous": false,
      "inputs": [
        {
          "indexed": true,
          "internalType": "address",
          "name": "owner",
          "type": "address"
        },
        {
          "indexed": true,
          "internalType": "address",
          "name": "operator",
          "type": "address"
        },
        {
          "indexed": false,
          "internalType": "bool",
          "name": "approved",
          "type": "bool"
        }
      ],
      "name": "ApprovalForAll",
      "type": "event"
    },
    {
      "anonymous": false,
      "inputs": [
        {
          "indexed": true,
          "internalType": "address",
          "name": "previousOwner",
          "type": "address"
        },
        {
          "indexed": true,
          "internalType": "address",
          "name": "newOwner",
          "type": "address"
        }
      ],
      "name": "OwnershipTransferred",
      "type": "event"
    },
    {
      "anonymous": false,
      "inputs": [
        {
          "indexed": true,
          "internalType": "address",
          "name": "from",
          "type": "address"
        },
        {
          "indexed": true,
          "internalType": "address",
          "name": "to",
          "type": "address"
        },
        {
          "indexed": true,
          "internalType": "uint256",
          "name": "tokenId",
          "type": "uint256"
        }
      ],
      "name": "Transfer",
      "type": "event"
    },
    {
      "inputs": [],
      "name": "_bfsAddr",
      "outputs": [
        {
          "internalType": "address",
          "name": "",
          "type": "address"
        }
      ],
      "stateMutability": "view",
      "type": "function"
    },
    {
      "inputs": [],
      "name": "_index",
      "outputs": [
        {
          "internalType": "uint256",
          "name": "",
          "type": "uint256"
        }
      ],
      "stateMutability": "view",
      "type": "function"
    },
    {
      "inputs": [
        {
          "internalType": "address",
          "name": "to",
          "type": "address"
        },
        {
          "internalType": "uint256",
          "name": "tokenId",
          "type": "uint256"
        }
      ],
      "name": "approve",
      "outputs": [],
      "stateMutability": "nonpayable",
      "type": "function"
    },
    {
      "inputs": [
        {
          "internalType": "address",
          "name": "owner",
          "type": "address"
        }
      ],
      "name": "balanceOf",
      "outputs": [
        {
          "internalType": "uint256",
          "name": "",
          "type": "uint256"
        }
      ],
      "stateMutability": "view",
      "type": "function"
    },
    {
      "inputs": [
        {
          "internalType": "uint256",
          "name": "tokenId",
          "type": "uint256"
        }
      ],
      "name": "getApproved",
      "outputs": [
        {
          "internalType": "address",
          "name": "",
          "type": "address"
        }
      ],
      "stateMutability": "view",
      "type": "function"
    },
    {
      "inputs": [
        {
          "internalType": "address",
          "name": "owner",
          "type": "address"
        },
        {
          "internalType": "address",
          "name": "operator",
          "type": "address"
        }
      ],
      "name": "isApprovedForAll",
      "outputs": [
        {
          "internalType": "bool",
          "name": "",
          "type": "bool"
        }
      ],
      "stateMutability": "view",
      "type": "function"
    },
    {
      "inputs": [
        {
          "internalType": "address",
          "name": "to",
          "type": "address"
        },
        {
          "internalType": "bytes[][]",
          "name": "chunks",
          "type": "bytes[][]"
        }
      ],
      "name": "mintBatchChunks",
      "outputs": [],
      "stateMutability": "nonpayable",
      "type": "function"
    },
    {
      "inputs": [
        {
          "internalType": "address",
          "name": "to",
          "type": "address"
        },
        {
          "internalType": "bytes[]",
          "name": "chunks",
          "type": "bytes[]"
        }
      ],
      "name": "mintChunks",
      "outputs": [],
      "stateMutability": "nonpayable",
      "type": "function"
    },
    {
      "inputs": [
        {
          "internalType": "address",
          "name": "to",
          "type": "address"
        },
        {
          "internalType": "string",
          "name": "uri",
          "type": "string"
        }
      ],
      "name": "mintUri",
      "outputs": [],
      "stateMutability": "nonpayable",
      "type": "function"
    },
    {
      "inputs": [],
      "name": "name",
      "outputs": [
        {
          "internalType": "string",
          "name": "",
          "type": "string"
        }
      ],
      "stateMutability": "view",
      "type": "function"
    },
    {
      "inputs": [],
      "name": "owner",
      "outputs": [
        {
          "internalType": "address",
          "name": "",
          "type": "address"
        }
      ],
      "stateMutability": "view",
      "type": "function"
    },
    {
      "inputs": [
        {
          "internalType": "uint256",
          "name": "tokenId",
          "type": "uint256"
        }
      ],
      "name": "ownerOf",
      "outputs": [
        {
          "internalType": "address",
          "name": "",
          "type": "address"
        }
      ],
      "stateMutability": "view",
      "type": "function"
    },
    {
      "inputs": [],
      "name": "renounceOwnership",
      "outputs": [],
      "stateMutability": "nonpayable",
      "type": "function"
    },
    {
      "inputs": [
        {
          "internalType": "uint256",
          "name": "_tokenId",
          "type": "uint256"
        },
        {
          "internalType": "uint256",
          "name": "_salePrice",
          "type": "uint256"
        }
      ],
      "name": "royaltyInfo",
      "outputs": [
        {
          "internalType": "address",
          "name": "receiver",
          "type": "address"
        },
        {
          "internalType": "uint256",
          "name": "royaltyAmount",
          "type": "uint256"
        }
      ],
      "stateMutability": "view",
      "type": "function"
    },
    {
      "inputs": [
        {
          "internalType": "address",
          "name": "from",
          "type": "address"
        },
        {
          "internalType": "address",
          "name": "to",
          "type": "address"
        },
        {
          "internalType": "uint256",
          "name": "tokenId",
          "type": "uint256"
        }
      ],
      "name": "safeTransferFrom",
      "outputs": [],
      "stateMutability": "nonpayable",
      "type": "function"
    },
    {
      "inputs": [
        {
          "internalType": "address",
          "name": "from",
          "type": "address"
        },
        {
          "internalType": "address",
          "name": "to",
          "type": "address"
        },
        {
          "internalType": "uint256",
          "name": "tokenId",
          "type": "uint256"
        },
        {
          "internalType": "bytes",
          "name": "data",
          "type": "bytes"
        }
      ],
      "name": "safeTransferFrom",
      "outputs": [],
      "stateMutability": "nonpayable",
      "type": "function"
    },
    {
      "inputs": [
        {
          "internalType": "address",
          "name": "operator",
          "type": "address"
        },
        {
          "internalType": "bool",
          "name": "approved",
          "type": "bool"
        }
      ],
      "name": "setApprovalForAll",
      "outputs": [],
      "stateMutability": "nonpayable",
      "type": "function"
    },
    {
      "inputs": [
        {
          "internalType": "bytes4",
          "name": "interfaceId",
          "type": "bytes4"
        }
      ],
      "name": "supportsInterface",
      "outputs": [
        {
          "internalType": "bool",
          "name": "",
          "type": "bool"
        }
      ],
      "stateMutability": "view",
      "type": "function"
    },
    {
      "inputs": [],
      "name": "symbol",
      "outputs": [
        {
          "internalType": "string",
          "name": "",
          "type": "string"
        }
      ],
      "stateMutability": "view",
      "type": "function"
    },
    {
      "inputs": [
        {
          "internalType": "uint256",
          "name": "tokenId",
          "type": "uint256"
        }
      ],
      "name": "tokenURI",
      "outputs": [
        {
          "internalType": "string",
          "name": "",
          "type": "string"
        }
      ],
      "stateMutability": "view",
      "type": "function"
    },
    {
      "inputs": [
        {
          "internalType": "address",
          "name": "from",
          "type": "address"
        },
        {
          "internalType": "address",
          "name": "to",
          "type": "address"
        },
        {
          "internalType": "uint256",
          "name": "tokenId",
          "type": "uint256"
        }
      ],
      "name": "transferFrom",
      "outputs": [],
      "stateMutability": "nonpayable",
      "type": "function"
    },
    {
      "inputs": [
        {
          "internalType": "address",
          "name": "newOwner",
          "type": "address"
        }
      ],
      "name": "transferOwnership",
      "outputs": [],
      "stateMutability": "nonpayable",
      "type": "function"
    }
  ],
  "bytecode": "0x60806040523480156200001157600080fd5b506040516200337f3803806200337f833981016040819052620000349162000d8a565b6040805160208082019092526000808252845185936200005992919085019062000bf0565b5080516200006f90600190602084019062000bf0565b5050506200008c62000086620000a860201b60201c565b620000ac565b805115620000a057620000a03382620000fe565b5050620011a2565b3390565b600780546001600160a01b038381166001600160a01b0319831681179093556040519116919082907f8be0079c531659141344cd1fd0a4f28419497f9722a3daafe3b4186f6b6457e090600090a35050565b62000108620002b0565b60005b8151811015620002ab5760008282815181106200012c576200012c62000f50565b60200260200101515111156200029657600880549060006200014e8362000f7c565b919050555062000167836008546200031260201b60201c565b6000738baa6365028894153dec048e4f4e5e6d2ce99c58905060006200019a6008546200033860201b62000ad31760201c565b905060005b848481518110620001b457620001b462000f50565b6020026020010151518110156200027957826001600160a01b031663928a4b3e8383888881518110620001eb57620001eb62000f50565b6020026020010151858151811062000207576200020762000f50565b60200260200101516040518463ffffffff1660e01b81526004016200022f9392919062000fc8565b600060405180830381600087803b1580156200024a57600080fd5b505af11580156200025f573d6000803e3d6000fd5b505050508080620002709062000f7c565b9150506200019f565b5060085462000293906200028d81620003e8565b62000484565b50505b80620002a28162000f7c565b9150506200010b565b505050565b6007546001600160a01b03163314620003105760405162461bcd60e51b815260206004820181905260248201527f4f776e61626c653a2063616c6c6572206973206e6f7420746865206f776e657260448201526064015b60405180910390fd5b565b620003348282604051806020016040528060008152506200052260201b60201c565b5050565b6060600062000352836200059560201b62000b701760201c565b60010190506000816001600160401b0381111562000374576200037462000c96565b6040519080825280601f01601f1916602001820160405280156200039f576020820181803683370190505b5090508181016020015b600019016f181899199a1a9b1b9c1cb0b131b232b360811b600a86061a8153600a8504945084620003da57620003e0565b620003a9565b509392505050565b6060600062000402466200033860201b62000ad31760201c565b6200042c738baa6365028894153dec048e4f4e5e6d2ce99c586200067f60201b62000c481760201c565b62000442306200067f60201b62000c481760201c565b62000458866200033860201b62000ad31760201c565b6040516020016200046d949392919062001001565b60408051601f198184030181529190529392505050565b6000828152600260205260409020546001600160a01b0316620005015760405162461bcd60e51b815260206004820152602e60248201527f45524337323155524953746f726167653a2055524920736574206f66206e6f6e60448201526d32bc34b9ba32b73a103a37b5b2b760911b606482015260840162000307565b60008281526006602090815260409091208251620002ab9284019062000bf0565b6200052e838362000697565b6200053d600084848462000838565b620002ab5760405162461bcd60e51b815260206004820152603260248201526000805160206200335f83398151915260448201527131b2b4bb32b91034b6b83632b6b2b73a32b960711b606482015260840162000307565b6000807a184f03e93ff9f4daa797ed6e38ed64bf6a1f0100000000000000008310620005df577a184f03e93ff9f4daa797ed6e38ed64bf6a1f010000000000000000830492506040015b6d04ee2d6d415b85acef810000000083106200060c576d04ee2d6d415b85acef8100000000830492506020015b662386f26fc1000083106200062b57662386f26fc10000830492506010015b6305f5e100831062000644576305f5e100830492506008015b61271083106200065957612710830492506004015b606483106200066c576064830492506002015b600a831062000679576001015b92915050565b6060620006796001600160a01b038316601462000991565b6001600160a01b038216620006ef5760405162461bcd60e51b815260206004820181905260248201527f4552433732313a206d696e7420746f20746865207a65726f2061646472657373604482015260640162000307565b6000818152600260205260409020546001600160a01b031615620007565760405162461bcd60e51b815260206004820152601c60248201527f4552433732313a20746f6b656e20616c7265616479206d696e74656400000000604482015260640162000307565b6200076660008383600162000b51565b6000818152600260205260409020546001600160a01b031615620007cd5760405162461bcd60e51b815260206004820152601c60248201527f4552433732313a20746f6b656e20616c7265616479206d696e74656400000000604482015260640162000307565b6001600160a01b038216600081815260036020908152604080832080546001019055848352600290915280822080546001600160a01b0319168417905551839291907fddf252ad1be2c89b69c2b068fc378daa952ba7f163c4a11628f55a4df523b3ef908290a45050565b600062000859846001600160a01b031662000be160201b62000c5e1760201c565b156200098557604051630a85bd0160e11b81526001600160a01b0385169063150b7a02906200089390339089908890889060040162001093565b6020604051808303816000875af1925050508015620008d1575060408051601f3d908101601f19168201909252620008ce91810190620010c8565b60015b6200096a573d80801562000902576040519150601f19603f3d011682016040523d82523d6000602084013e62000907565b606091505b508051620009625760405162461bcd60e51b815260206004820152603260248201526000805160206200335f83398151915260448201527131b2b4bb32b91034b6b83632b6b2b73a32b960711b606482015260840162000307565b805181602001fd5b6001600160e01b031916630a85bd0160e11b14905062000989565b5060015b949350505050565b60606000620009a2836002620010f4565b620009af90600262001116565b6001600160401b03811115620009c957620009c962000c96565b6040519080825280601f01601f191660200182016040528015620009f4576020820181803683370190505b509050600360fc1b8160008151811062000a125762000a1262000f50565b60200101906001600160f81b031916908160001a905350600f60fb1b8160018151811062000a445762000a4462000f50565b60200101906001600160f81b031916908160001a905350600062000a6a846002620010f4565b62000a7790600162001116565b90505b600181111562000af9576f181899199a1a9b1b9c1cb0b131b232b360811b85600f166010811062000aaf5762000aaf62000f50565b1a60f81b82828151811062000ac85762000ac862000f50565b60200101906001600160f81b031916908160001a90535060049490941c9362000af18162001131565b905062000a7a565b50831562000b4a5760405162461bcd60e51b815260206004820181905260248201527f537472696e67733a20686578206c656e67746820696e73756666696369656e74604482015260640162000307565b9392505050565b600181111562000bdb576001600160a01b0384161562000b9b576001600160a01b0384166000908152600360205260408120805483929062000b959084906200114b565b90915550505b6001600160a01b0383161562000bdb576001600160a01b0383166000908152600360205260408120805483929062000bd590849062001116565b90915550505b50505050565b6001600160a01b03163b151590565b82805462000bfe9062001165565b90600052602060002090601f01602090048101928262000c22576000855562000c6d565b82601f1062000c3d57805160ff191683800117855562000c6d565b8280016001018555821562000c6d579182015b8281111562000c6d57825182559160200191906001019062000c50565b5062000c7b92915062000c7f565b5090565b5b8082111562000c7b576000815560010162000c80565b634e487b7160e01b600052604160045260246000fd5b604051601f8201601f191681016001600160401b038111828210171562000cd75762000cd762000c96565b604052919050565b60005b8381101562000cfc57818101518382015260200162000ce2565b8381111562000bdb5750506000910152565b60006001600160401b0383111562000d2a5762000d2a62000c96565b62000d3f601f8401601f191660200162000cac565b905082815283838301111562000d5457600080fd5b62000b4a83602083018462000cdf565b60006001600160401b0382111562000d805762000d8062000c96565b5060051b60200190565b6000806040838503121562000d9e57600080fd5b82516001600160401b0381111562000db557600080fd5b84601f828601011262000dc757600080fd5b8084015162000ddd868260208589010162000d0e565b60208601519094509150506001600160401b0381111562000dfd57600080fd5b84601f828601011262000e0f57600080fd5b8084015162000e2862000e228262000d64565b62000cac565b808282526020820191508760208460051b868a010101111562000e4a57600080fd5b6020848801015b60208460051b868a01010181101562000f415780516001600160401b0381111562000e7b57600080fd5b88860101603f81018a1362000e8f57600080fd5b602081015162000ea362000e228262000d64565b808282526020820191508c60408460051b860101111562000ec357600080fd5b604084015b60408460051b86010181101562000f2a5780516001600160401b0381111562000ef057600080fd5b8e605f828801011262000f0257600080fd5b62000f1a8f604083890101516060848a010162000d0e565b8452506020928301920162000ec8565b508652505060209384019391909101905062000e51565b50809450505050509250929050565b634e487b7160e01b600052603260045260246000fd5b634e487b7160e01b600052601160045260246000fd5b600060001982141562000f935762000f9362000f66565b5060010190565b6000815180845262000fb481602086016020860162000cdf565b601f01601f19169290920160200192915050565b60608152600062000fdd606083018662000f9a565b846020840152828103604084015262000ff7818562000f9a565b9695505050505050565b656266733a2f2f60d01b81526000855162001024816006850160208a0162000cdf565b8083019050602f60f81b806006830152865162001049816007850160208b0162000cdf565b60079201918201819052855162001068816008850160208a0162000cdf565b600892019182015283516200108581600984016020880162000cdf565b016009019695505050505050565b6001600160a01b038581168252841660208201526040810183905260806060820181905260009062000ff79083018462000f9a565b600060208284031215620010db57600080fd5b81516001600160e01b03198116811462000b4a57600080fd5b600081600019048311821515161562001111576200111162000f66565b500290565b600082198211156200112c576200112c62000f66565b500190565b60008162001143576200114362000f66565b506000190190565b60008282101562001160576200116062000f66565b500390565b600181811c908216806200117a57607f821691505b602082108114156200119c57634e487b7160e01b600052602260045260246000fd5b50919050565b6121ad80620011b26000396000f3fe608060405234801561001057600080fd5b50600436106101425760003560e01c806370a08231116100b8578063a22cb4651161007c578063a22cb465146102bb578063a408b635146102ce578063b88d4fde146102e1578063c87b56dd146102f4578063e985e9c514610307578063f2fde38b1461034357600080fd5b806370a0823114610274578063715018a61461028757806375bd26d21461028f5780638da5cb5b146102a257806395d89b41146102b357600080fd5b806323b872dd1161010a57806323b872dd146101db5780632a55205a146101ee578063300e68441461022057806342842e0e1461023b5780635da9500a1461024e5780636352211e1461026157600080fd5b8063018610801461014757806301ffc9a71461016357806306fdde0314610186578063081812fc1461019b578063095ea7b3146101c6575b600080fd5b61015060085481565b6040519081526020015b60405180910390f35b610176610171366004611912565b610356565b604051901515815260200161015a565b61018e6103a8565b60405161015a9190611987565b6101ae6101a936600461199a565b61043a565b6040516001600160a01b03909116815260200161015a565b6101d96101d43660046119c8565b610461565b005b6101d96101e93660046119f4565b61057c565b6102016101fc366004611a35565b6105ad565b604080516001600160a01b03909316835260208301919091520161015a565b6101ae738baa6365028894153dec048e4f4e5e6d2ce99c5881565b6101d96102493660046119f4565b610636565b6101d961025c366004611af6565b610651565b6101ae61026f36600461199a565b61068a565b610150610282366004611b5a565b6106ea565b6101d9610770565b6101d961029d366004611c4b565b610784565b6007546001600160a01b03166101ae565b61018e6108fc565b6101d96102c9366004611d11565b61090b565b6101d96102dc366004611d4f565b610916565b6101d96102ef366004611d95565b610a17565b61018e61030236600461199a565b610a4f565b610176610315366004611e01565b6001600160a01b03918216600090815260056020908152604080832093909416825291909152205460ff1690565b6101d9610351366004611b5a565b610a5a565b60006001600160e01b031982166380ac58cd60e01b148061038757506001600160e01b03198216635b5e139f60e01b145b806103a257506301ffc9a760e01b6001600160e01b03198316145b92915050565b6060600080546103b790611e2f565b80601f01602080910402602001604051908101604052809291908181526020018280546103e390611e2f565b80156104305780601f1061040557610100808354040283529160200191610430565b820191906000526020600020905b81548152906001019060200180831161041357829003601f168201915b5050505050905090565b600061044582610c6d565b506000908152600460205260409020546001600160a01b031690565b600061046c8261068a565b9050806001600160a01b0316836001600160a01b031614156104df5760405162461bcd60e51b815260206004820152602160248201527f4552433732313a20617070726f76616c20746f2063757272656e74206f776e656044820152603960f91b60648201526084015b60405180910390fd5b336001600160a01b03821614806104fb57506104fb8133610315565b61056d5760405162461bcd60e51b815260206004820152603d60248201527f4552433732313a20617070726f76652063616c6c6572206973206e6f7420746f60448201527f6b656e206f776e6572206f7220617070726f76656420666f7220616c6c00000060648201526084016104d6565b6105778383610ccc565b505050565b6105863382610d3a565b6105a25760405162461bcd60e51b81526004016104d690611e6a565b610577838383610db9565b600080306001600160a01b0316638da5cb5b6040518163ffffffff1660e01b8152600401602060405180830381865afa1580156105ee573d6000803e3d6000fd5b505050506040513d601f19601f820116820180604052508101906106129190611eb7565b9150612710610623846103e8611eea565b61062d9190611f09565b90509250929050565b61057783838360405180602001604052806000815250610a17565b610659610f2a565b6008805490600061066983611f2b565b919050555061067a82600854610f84565b61068660085482610f9e565b5050565b6000818152600260205260408120546001600160a01b0316806103a25760405162461bcd60e51b8152602060048201526018602482015277115490cdcc8c4e881a5b9d985b1a59081d1bdad95b88125160421b60448201526064016104d6565b60006001600160a01b0382166107545760405162461bcd60e51b815260206004820152602960248201527f4552433732313a2061646472657373207a65726f206973206e6f7420612076616044820152683634b21037bbb732b960b91b60648201526084016104d6565b506001600160a01b031660009081526003602052604090205490565b610778610f2a565b6107826000611038565b565b61078c610f2a565b60005b81518110156105775760008282815181106107ac576107ac611f46565b60200260200101515111156108ea57600880549060006107cb83611f2b565b91905055506107dc83600854610f84565b6000738baa6365028894153dec048e4f4e5e6d2ce99c5890506000610802600854610ad3565b905060005b84848151811061081957610819611f46565b6020026020010151518110156108d057826001600160a01b031663928a4b3e838388888151811061084c5761084c611f46565b6020026020010151858151811061086557610865611f46565b60200260200101516040518463ffffffff1660e01b815260040161088b93929190611f5c565b600060405180830381600087803b1580156108a557600080fd5b505af11580156108b9573d6000803e3d6000fd5b5050505080806108c890611f2b565b915050610807565b506108e76008546108e260085461108a565b610f9e565b50505b806108f481611f2b565b91505061078f565b6060600180546103b790611e2f565b6106863383836110f0565b61091e610f2a565b805115610686576008805490600061093583611f2b565b919050555061094682600854610f84565b738baa6365028894153dec048e4f4e5e6d2ce99c5860005b8251811015610a05576000610974600854610ad3565b9050826001600160a01b031663928a4b3e828487868151811061099957610999611f46565b60200260200101516040518463ffffffff1660e01b81526004016109bf93929190611f5c565b600060405180830381600087803b1580156109d957600080fd5b505af11580156109ed573d6000803e3d6000fd5b505050505080806109fd90611f2b565b91505061095e565b506105776008546108e260085461108a565b610a213383610d3a565b610a3d5760405162461bcd60e51b81526004016104d690611e6a565b610a49848484846111bf565b50505050565b60606103a2826111f2565b610a62610f2a565b6001600160a01b038116610ac75760405162461bcd60e51b815260206004820152602660248201527f4f776e61626c653a206e6577206f776e657220697320746865207a65726f206160448201526564647265737360d01b60648201526084016104d6565b610ad081611038565b50565b60606000610ae083610b70565b600101905060008167ffffffffffffffff811115610b0057610b00611a57565b6040519080825280601f01601f191660200182016040528015610b2a576020820181803683370190505b5090508181016020015b600019016f181899199a1a9b1b9c1cb0b131b232b360811b600a86061a8153600a8504945084610b6357610b68565b610b34565b509392505050565b60008072184f03e93ff9f4daa797ed6e38ed64bf6a1f0160401b8310610baf5772184f03e93ff9f4daa797ed6e38ed64bf6a1f0160401b830492506040015b6d04ee2d6d415b85acef81000000008310610bdb576d04ee2d6d415b85acef8100000000830492506020015b662386f26fc100008310610bf957662386f26fc10000830492506010015b6305f5e1008310610c11576305f5e100830492506008015b6127108310610c2557612710830492506004015b60648310610c37576064830492506002015b600a83106103a25760010192915050565b60606103a26001600160a01b03831660146112fb565b6001600160a01b03163b151590565b6000818152600260205260409020546001600160a01b0316610ad05760405162461bcd60e51b8152602060048201526018602482015277115490cdcc8c4e881a5b9d985b1a59081d1bdad95b88125160421b60448201526064016104d6565b600081815260046020526040902080546001600160a01b0319166001600160a01b0384169081179091558190610d018261068a565b6001600160a01b03167f8c5be1e5ebec7d5bd14f71427d1e84f3dd0314c0f7b2291e5b200ac8c7c3b92560405160405180910390a45050565b600080610d468361068a565b9050806001600160a01b0316846001600160a01b03161480610d8d57506001600160a01b0380821660009081526005602090815260408083209388168352929052205460ff165b80610db15750836001600160a01b0316610da68461043a565b6001600160a01b0316145b949350505050565b826001600160a01b0316610dcc8261068a565b6001600160a01b031614610df25760405162461bcd60e51b81526004016104d690611f91565b6001600160a01b038216610e545760405162461bcd60e51b8152602060048201526024808201527f4552433732313a207472616e7366657220746f20746865207a65726f206164646044820152637265737360e01b60648201526084016104d6565b610e61838383600161149e565b826001600160a01b0316610e748261068a565b6001600160a01b031614610e9a5760405162461bcd60e51b81526004016104d690611f91565b600081815260046020908152604080832080546001600160a01b03199081169091556001600160a01b0387811680865260038552838620805460001901905590871680865283862080546001019055868652600290945282852080549092168417909155905184937fddf252ad1be2c89b69c2b068fc378daa952ba7f163c4a11628f55a4df523b3ef91a4505050565b6007546001600160a01b031633146107825760405162461bcd60e51b815260206004820181905260248201527f4f776e61626c653a2063616c6c6572206973206e6f7420746865206f776e657260448201526064016104d6565b610686828260405180602001604052806000815250611526565b6000828152600260205260409020546001600160a01b03166110195760405162461bcd60e51b815260206004820152602e60248201527f45524337323155524953746f726167653a2055524920736574206f66206e6f6e60448201526d32bc34b9ba32b73a103a37b5b2b760911b60648201526084016104d6565b6000828152600660209081526040909120825161057792840190611863565b600780546001600160a01b038381166001600160a01b0319831681179093556040519116919082907f8be0079c531659141344cd1fd0a4f28419497f9722a3daafe3b4186f6b6457e090600090a35050565b6060600061109746610ad3565b6110b4738baa6365028894153dec048e4f4e5e6d2ce99c58610c48565b6110bd30610c48565b6110c686610ad3565b6040516020016110d99493929190611fd6565b60408051601f198184030181529190529392505050565b816001600160a01b0316836001600160a01b031614156111525760405162461bcd60e51b815260206004820152601960248201527f4552433732313a20617070726f766520746f2063616c6c65720000000000000060448201526064016104d6565b6001600160a01b03838116600081815260056020908152604080832094871680845294825291829020805460ff191686151590811790915591519182527f17307eab39ab6107e8899845ad3d59bd9653f200f220920489ca2b5937696c31910160405180910390a3505050565b6111ca848484610db9565b6111d684848484611559565b610a495760405162461bcd60e51b81526004016104d690612060565b60606111fd82610c6d565b6000828152600660205260408120805461121690611e2f565b80601f016020809104026020016040519081016040528092919081815260200182805461124290611e2f565b801561128f5780601f106112645761010080835404028352916020019161128f565b820191906000526020600020905b81548152906001019060200180831161127257829003601f168201915b5050505050905060006112ad60408051602081019091526000815290565b90508051600014156112c0575092915050565b8151156112f25780826040516020016112da9291906120b2565b60405160208183030381529060405292505050919050565b610db184611657565b6060600061130a836002611eea565b6113159060026120e1565b67ffffffffffffffff81111561132d5761132d611a57565b6040519080825280601f01601f191660200182016040528015611357576020820181803683370190505b509050600360fc1b8160008151811061137257611372611f46565b60200101906001600160f81b031916908160001a905350600f60fb1b816001815181106113a1576113a1611f46565b60200101906001600160f81b031916908160001a90535060006113c5846002611eea565b6113d09060016120e1565b90505b6001811115611448576f181899199a1a9b1b9c1cb0b131b232b360811b85600f166010811061140457611404611f46565b1a60f81b82828151811061141a5761141a611f46565b60200101906001600160f81b031916908160001a90535060049490941c93611441816120f9565b90506113d3565b5083156114975760405162461bcd60e51b815260206004820181905260248201527f537472696e67733a20686578206c656e67746820696e73756666696369656e7460448201526064016104d6565b9392505050565b6001811115610a49576001600160a01b038416156114e4576001600160a01b038416600090815260036020526040812080548392906114de908490612110565b90915550505b6001600160a01b03831615610a49576001600160a01b0383166000908152600360205260408120805483929061151b9084906120e1565b909155505050505050565b61153083836116ca565b61153d6000848484611559565b6105775760405162461bcd60e51b81526004016104d690612060565b60006001600160a01b0384163b1561164c57604051630a85bd0160e11b81526001600160a01b0385169063150b7a029061159d903390899088908890600401612127565b6020604051808303816000875af19250505080156115d8575060408051601f3d908101601f191682019092526115d59181019061215a565b60015b611632573d808015611606576040519150601f19603f3d011682016040523d82523d6000602084013e61160b565b606091505b50805161162a5760405162461bcd60e51b81526004016104d690612060565b805181602001fd5b6001600160e01b031916630a85bd0160e11b149050610db1565b506001949350505050565b606061166282610c6d565b600061167960408051602081019091526000815290565b905060008151116116995760405180602001604052806000815250611497565b806116a384610ad3565b6040516020016116b49291906120b2565b6040516020818303038152906040529392505050565b6001600160a01b0382166117205760405162461bcd60e51b815260206004820181905260248201527f4552433732313a206d696e7420746f20746865207a65726f206164647265737360448201526064016104d6565b6000818152600260205260409020546001600160a01b0316156117855760405162461bcd60e51b815260206004820152601c60248201527f4552433732313a20746f6b656e20616c7265616479206d696e7465640000000060448201526064016104d6565b61179360008383600161149e565b6000818152600260205260409020546001600160a01b0316156117f85760405162461bcd60e51b815260206004820152601c60248201527f4552433732313a20746f6b656e20616c7265616479206d696e7465640000000060448201526064016104d6565b6001600160a01b038216600081815260036020908152604080832080546001019055848352600290915280822080546001600160a01b0319168417905551839291907fddf252ad1be2c89b69c2b068fc378daa952ba7f163c4a11628f55a4df523b3ef908290a45050565b82805461186f90611e2f565b90600052602060002090601f01602090048101928261189157600085556118d7565b82601f106118aa57805160ff19168380011785556118d7565b828001600101855582156118d7579182015b828111156118d75782518255916020019190600101906118bc565b506118e39291506118e7565b5090565b5b808211156118e357600081556001016118e8565b6001600160e01b031981168114610ad057600080fd5b60006020828403121561192457600080fd5b8135611497816118fc565b60005b8381101561194a578181015183820152602001611932565b83811115610a495750506000910152565b6000815180845261197381602086016020860161192f565b601f01601f19169290920160200192915050565b602081526000611497602083018461195b565b6000602082840312156119ac57600080fd5b5035919050565b6001600160a01b0381168114610ad057600080fd5b600080604083850312156119db57600080fd5b82356119e6816119b3565b946020939093013593505050565b600080600060608486031215611a0957600080fd5b8335611a14816119b3565b92506020840135611a24816119b3565b929592945050506040919091013590565b60008060408385031215611a4857600080fd5b50508035926020909101359150565b634e487b7160e01b600052604160045260246000fd5b604051601f8201601f1916810167ffffffffffffffff81118282101715611a9657611a96611a57565b604052919050565b600067ffffffffffffffff831115611ab857611ab8611a57565b611acb601f8401601f1916602001611a6d565b9050828152838383011115611adf57600080fd5b828260208301376000602084830101529392505050565b60008060408385031215611b0957600080fd5b8235611b14816119b3565b9150602083013567ffffffffffffffff811115611b3057600080fd5b8301601f81018513611b4157600080fd5b611b5085823560208401611a9e565b9150509250929050565b600060208284031215611b6c57600080fd5b8135611497816119b3565b600067ffffffffffffffff821115611b9157611b91611a57565b5060051b60200190565b600082601f830112611bac57600080fd5b61149783833560208501611a9e565b600082601f830112611bcc57600080fd5b81356020611be1611bdc83611b77565b611a6d565b82815260059290921b84018101918181019086841115611c0057600080fd5b8286015b84811015611c4057803567ffffffffffffffff811115611c245760008081fd5b611c328986838b0101611b9b565b845250918301918301611c04565b509695505050505050565b60008060408385031215611c5e57600080fd5b8235611c69816119b3565b915060208381013567ffffffffffffffff80821115611c8757600080fd5b818601915086601f830112611c9b57600080fd5b8135611ca9611bdc82611b77565b81815260059190911b83018401908481019089831115611cc857600080fd5b8585015b83811015611d0057803585811115611ce45760008081fd5b611cf28c89838a0101611bbb565b845250918601918601611ccc565b508096505050505050509250929050565b60008060408385031215611d2457600080fd5b8235611d2f816119b3565b915060208301358015158114611d4457600080fd5b809150509250929050565b60008060408385031215611d6257600080fd5b8235611d6d816119b3565b9150602083013567ffffffffffffffff811115611d8957600080fd5b611b5085828601611bbb565b60008060008060808587031215611dab57600080fd5b8435611db6816119b3565b93506020850135611dc6816119b3565b925060408501359150606085013567ffffffffffffffff811115611de957600080fd5b611df587828801611b9b565b91505092959194509250565b60008060408385031215611e1457600080fd5b8235611e1f816119b3565b91506020830135611d44816119b3565b600181811c90821680611e4357607f821691505b60208210811415611e6457634e487b7160e01b600052602260045260246000fd5b50919050565b6020808252602d908201527f4552433732313a2063616c6c6572206973206e6f7420746f6b656e206f776e6560408201526c1c881bdc88185c1c1c9bdd9959609a1b606082015260800190565b600060208284031215611ec957600080fd5b8151611497816119b3565b634e487b7160e01b600052601160045260246000fd5b6000816000190483118215151615611f0457611f04611ed4565b500290565b600082611f2657634e487b7160e01b600052601260045260246000fd5b500490565b6000600019821415611f3f57611f3f611ed4565b5060010190565b634e487b7160e01b600052603260045260246000fd5b606081526000611f6f606083018661195b565b8460208401528281036040840152611f87818561195b565b9695505050505050565b60208082526025908201527f4552433732313a207472616e736665722066726f6d20696e636f72726563742060408201526437bbb732b960d91b606082015260800190565b656266733a2f2f60d01b815260008551611ff7816006850160208a0161192f565b8083019050602f60f81b806006830152865161201a816007850160208b0161192f565b600792019182018190528551612037816008850160208a0161192f565b6008920191820152835161205281600984016020880161192f565b016009019695505050505050565b60208082526032908201527f4552433732313a207472616e7366657220746f206e6f6e20455243373231526560408201527131b2b4bb32b91034b6b83632b6b2b73a32b960711b606082015260800190565b600083516120c481846020880161192f565b8351908301906120d881836020880161192f565b01949350505050565b600082198211156120f4576120f4611ed4565b500190565b60008161210857612108611ed4565b506000190190565b60008282101561212257612122611ed4565b500390565b6001600160a01b0385811682528416602082015260408101839052608060608201819052600090611f879083018461195b565b60006020828403121561216c57600080fd5b8151611497816118fc56fea26469706673582212200243a1404b6c6982b1d2ec3bebc4c36d5f21c8447cc1e3ece8c546eec647330b64736f6c634300080c00334552433732313a207472616e7366657220746f206e6f6e204552433732315265",
  "linkReferences": {},
  "deployedLinkReferences": {}
}