{
  "_format": "hh-sol-artifact-1",
  "contractName": "BFS",
  "sourceName": "contracts/services/BFS.sol",
  "abi": [
    {
      "inputs": [],
      "name": "FileExists",
      "type": "error"
    },
    {
      "inputs": [],
      "name": "InvalidBfsResult",
      "type": "error"
    },
    {
      "inputs": [],
      "name": "InvalidURI",
      "type": "error"
    },
    {
      "anonymous": false,
      "inputs": [
        {
          "indexed": true,
          "internalType": "address",
          "name": "addr",
          "type": "address"
        },
        {
          "indexed": false,
          "internalType": "string",
          "name": "filename",
          "type": "string"
        },
        {
          "indexed": false,
          "internalType": "uint256",
          "name": "chunkIndex",
          "type": "uint256"
        },
        {
          "indexed": true,
          "internalType": "uint256",
          "name": "bfsId",
          "type": "uint256"
        },
        {
          "indexed": false,
          "internalType": "string",
          "name": "uri",
          "type": "string"
        }
      ],
      "name": "FileStored",
      "type": "event"
    },
    {
      "anonymous": false,
      "inputs": [
        {
          "indexed": false,
          "internalType": "uint8",
          "name": "version",
          "type": "uint8"
        }
      ],
      "name": "Initialized",
      "type": "event"
    },
    {
      "inputs": [
        {
          "internalType": "address",
          "name": "",
          "type": "address"
        },
        {
          "internalType": "string",
          "name": "",
          "type": "string"
        }
      ],
      "name": "bfsId",
      "outputs": [
        {
          "internalType": "uint256",
          "name": "",
          "type": "uint256"
        }
      ],
      "stateMutability": "view",
      "type": "function"
    },
    {
      "inputs": [
        {
          "internalType": "address",
          "name": "",
          "type": "address"
        },
        {
          "internalType": "string",
          "name": "",
          "type": "string"
        }
      ],
      "name": "chunks",
      "outputs": [
        {
          "internalType": "uint256",
          "name": "",
          "type": "uint256"
        }
      ],
      "stateMutability": "view",
      "type": "function"
    },
    {
      "inputs": [
        {
          "internalType": "address",
          "name": "addr",
          "type": "address"
        },
        {
          "internalType": "string",
          "name": "filename",
          "type": "string"
        }
      ],
      "name": "count",
      "outputs": [
        {
          "internalType": "uint256",
          "name": "",
          "type": "uint256"
        }
      ],
      "stateMutability": "view",
      "type": "function"
    },
    {
      "inputs": [
        {
          "internalType": "address",
          "name": "",
          "type": "address"
        },
        {
          "internalType": "string",
          "name": "",
          "type": "string"
        },
        {
          "internalType": "uint256",
          "name": "",
          "type": "uint256"
        }
      ],
      "name": "dataStorage",
      "outputs": [
        {
          "internalType": "bytes",
          "name": "",
          "type": "bytes"
        }
      ],
      "stateMutability": "view",
      "type": "function"
    },
    {
      "inputs": [
        {
          "internalType": "address",
          "name": "",
          "type": "address"
        },
        {
          "internalType": "uint256",
          "name": "",
          "type": "uint256"
        }
      ],
      "name": "filenames",
      "outputs": [
        {
          "internalType": "string",
          "name": "",
          "type": "string"
        }
      ],
      "stateMutability": "view",
      "type": "function"
    },
    {
      "inputs": [],
      "name": "getAllAddresses",
      "outputs": [
        {
          "internalType": "address[]",
          "name": "",
          "type": "address[]"
        }
      ],
      "stateMutability": "view",
      "type": "function"
    },
    {
      "inputs": [
        {
          "internalType": "address",
          "name": "addr",
          "type": "address"
        }
      ],
      "name": "getAllFilenames",
      "outputs": [
        {
          "internalType": "string[]",
          "name": "",
          "type": "string[]"
        }
      ],
      "stateMutability": "view",
      "type": "function"
    },
    {
      "inputs": [
        {
          "internalType": "address",
          "name": "addr",
          "type": "address"
        },
        {
          "internalType": "string",
          "name": "filename",
          "type": "string"
        }
      ],
      "name": "getId",
      "outputs": [
        {
          "internalType": "uint256",
          "name": "",
          "type": "uint256"
        }
      ],
      "stateMutability": "view",
      "type": "function"
    },
    {
      "inputs": [],
      "name": "initialize",
      "outputs": [],
      "stateMutability": "nonpayable",
      "type": "function"
    },
    {
      "inputs": [
        {
          "internalType": "address",
          "name": "addr",
          "type": "address"
        },
        {
          "internalType": "string",
          "name": "filename",
          "type": "string"
        },
        {
          "internalType": "uint256",
          "name": "chunkIndex",
          "type": "uint256"
        }
      ],
      "name": "load",
      "outputs": [
        {
          "internalType": "bytes",
          "name": "",
          "type": "bytes"
        },
        {
          "internalType": "int256",
          "name": "",
          "type": "int256"
        }
      ],
      "stateMutability": "view",
      "type": "function"
    },
    {
      "inputs": [
        {
          "internalType": "string",
          "name": "uri",
          "type": "string"
        },
        {
          "internalType": "uint256",
          "name": "chunkIndex",
          "type": "uint256"
        }
      ],
      "name": "loadWithUri",
      "outputs": [
        {
          "internalType": "bytes",
          "name": "",
          "type": "bytes"
        },
        {
          "internalType": "int256",
          "name": "",
          "type": "int256"
        }
      ],
      "stateMutability": "view",
      "type": "function"
    },
    {
      "inputs": [
        {
          "internalType": "string",
          "name": "filename",
          "type": "string"
        },
        {
          "internalType": "uint256",
          "name": "chunkIndex",
          "type": "uint256"
        },
        {
          "internalType": "bytes",
          "name": "_data",
          "type": "bytes"
        }
      ],
      "name": "store",
      "outputs": [],
      "stateMutability": "nonpayable",
      "type": "function"
    }
  ],
  "bytecode": "0x608060405234801561001057600080fd5b50611b02806100206000396000f3fe608060405234801561001057600080fd5b50600436106100b45760003560e01c8063abb1521911610071578063abb152191461016e578063ba67e64114610181578063bf1450df14610194578063c9b09659146101b4578063d92e741e146101d4578063e0f64a38146101e757600080fd5b80638129fc1c146100b957806385273a90146100c35780638a5ca90b14610112578063928a4b3e146101255780639516a10414610138578063a0e567641461014d575b600080fd5b6100c1610223565b005b6100ff6100d13660046114aa565b6003602090815260009283526040909220815180830184018051928152908401929093019190912091525481565b6040519081526020015b60405180910390f35b6100ff6101203660046114aa565b61033f565b6100c16101333660046114f8565b61037d565b6101406105df565b6040516101099190611579565b61016061015b3660046115c6565b6105f0565b604051610109929190611679565b61016061017c36600461169b565b61072f565b6100ff61018f3660046114aa565b610bf7565b6101a76101a23660046116e0565b610c1d565b60405161010991906116fb565b6101c76101c236600461175d565b610d0c565b6040516101099190611787565b6101c76101e23660046115c6565b610dc5565b6100ff6101f53660046114aa565b6004602090815260009283526040909220815180830184018051928152908401929093019190912091525481565b600054610100900460ff16158080156102435750600054600160ff909116105b8061025d5750303b15801561025d575060005460ff166001145b6102c55760405162461bcd60e51b815260206004820152602e60248201527f496e697469616c697a61626c653a20636f6e747261637420697320616c72656160448201526d191e481a5b9a5d1a585b1a5e995960921b60648201526084015b60405180910390fd5b6000805460ff1916600117905580156102e8576000805461ff0019166101001790555b6102f6600180546001019055565b801561033c576000805461ff0019169055604051600181527f7f26b83ff96e1f2b6a682f133852f6798a09c465da95921460cefb38474024989060200160405180910390a15b50565b6001600160a01b038216600090815260046020526040808220905161036590849061179a565b90815260200160405180910390205490505b92915050565b33600090815260026020526040808220905161039a90869061179a565b9081526020016040518091039020600084815260200190815260200160002080546103c4906117b6565b905011156103e5576040516326a5c59b60e01b815260040160405180910390fd5b3360009081526002602052604090819020905182919061040690869061179a565b908152602001604051809103902060008481526020019081526020016000209080519060200190610438929190611328565b503360009081526003602052604090819020905183919061045a90869061179a565b90815260200160405180910390205410156104a1573360009081526003602052604090819020905183919061049090869061179a565b908152604051908190036020019020555b600154336000908152600460205260409081902090516104c290869061179a565b908152604051908190036020019020556104e0600180546001019055565b816105265733600090815260056020908152604082208054600181018255908352918190208551610518939190910191860190611328565b50610524600633610e00565b505b600061053146610e1c565b61053a30610eb9565b61054333610eb9565b8660405160200161055794939291906117f1565b60408051601f198184030181528282523360009081526004602052919091209092509061058590869061179a565b908152602001604051809103902054336001600160a01b03167f3570439426bde556b3a1036679abf502ade483de5bc63fe5578a687650c96bdd8686856040516105d19392919061187b565b60405180910390a350505050565b60606105eb6006610ecf565b905090565b60606000806106008460016118c6565b6001600160a01b0387166000908152600360205260408082209051929350909161062b90889061179a565b9081526020016040518091039020548211610646578161064a565b6000195b6001600160a01b0388166000908152600260205260409081902090519192509061067590889061179a565b90815260200160405180910390206000868152602001908152602001600020818180546106a1906117b6565b80601f01602080910402602001604051908101604052809291908181526020018280546106cd906117b6565b801561071a5780601f106106ef5761010080835404028352916020019161071a565b820191906000526020600020905b8154815290600101906020018083116106fd57829003601f168201915b50505050509150935093505050935093915050565b60606000838161073e46610e1c565b60405160200161074e91906118de565b60408051601f19818403018152919052805190915061076e8160566118c6565b8351101561078f57604051633ba0191160e01b815260040160405180910390fd5b602f60f81b836107a083602a6118c6565b815181106107b0576107b0611917565b01602001516001600160f81b031916146107dd57604051633ba0191160e01b815260040160405180910390fd5b602f60f81b8360016107f08460566118c6565b6107fa919061192d565b8151811061080a5761080a611917565b01602001516001600160f81b0319161461083757604051633ba0191160e01b815260040160405180910390fd5b60005b818110156108ba5782818151811061085457610854611917565b602001015160f81c60f81b6001600160f81b03191684828151811061087b5761087b611917565b01602001516001600160f81b031916146108a857604051633ba0191160e01b815260040160405180910390fd5b806108b281611944565b91505061083a565b5060408051602a8082526060820190925260009160208201818036833701905050905060005b602a81101561094a57846108f484836118c6565b8151811061090457610904611917565b602001015160f81c60f81b82828151811061092157610921611917565b60200101906001600160f81b031916908160001a9053508061094281611944565b9150506108e0565b50600061095682610edc565b60408051602a808252606082019092529192506000919060208201818036833701905050905060005b602a8110156109ff578661099386836118c6565b61099e90602a6118c6565b6109a99060016118c6565b815181106109b9576109b9611917565b602001015160f81c60f81b8282815181106109d6576109d6611917565b60200101906001600160f81b031916908160001a905350806109f781611944565b91505061097f565b506000610a0b82610edc565b90506000610a1a8660566118c6565b8851610a26919061192d565b67ffffffffffffffff811115610a3e57610a3e6113dd565b6040519080825280601f01601f191660200182016040528015610a68576020820181803683370190505b50905060005b610a798760566118c6565b8951610a85919061192d565b811015610af85788610a988860566118c6565b610aa290836118c6565b81518110610ab257610ab2611917565b602001015160f81c60f81b828281518110610acf57610acf611917565b60200101906001600160f81b031916908160001a90535080610af081611944565b915050610a6e565b506000819050600083828e604051602401610b159392919061195f565b60408051601f198184030181529181526020820180516001600160e01b031663283959d960e21b1790525190915060009081906001600160a01b03891690610b5e90859061179a565b600060405180830381855afa9150503d8060008114610b99576040519150601f19603f3d011682016040523d82523d6000602084013e610b9e565b606091505b509150915081610bc157604051630f8387c360e21b815260040160405180910390fd5b60008082806020019051810190610bd89190611993565b9150915081819f509f5050505050505050505050505050509250929050565b6001600160a01b038216600090815260036020526040808220905161036590849061179a565b6001600160a01b0381166000908152600560209081526040808320805482518185028101850190935280835260609492939192909184015b82821015610d01578382906000526020600020018054610c74906117b6565b80601f0160208091040260200160405190810160405280929190818152602001828054610ca0906117b6565b8015610ced5780601f10610cc257610100808354040283529160200191610ced565b820191906000526020600020905b815481529060010190602001808311610cd057829003601f168201915b505050505081526020019060010190610c55565b505050509050919050565b60056020528160005260406000208181548110610d2857600080fd5b90600052602060002001600091509150508054610d44906117b6565b80601f0160208091040260200160405190810160405280929190818152602001828054610d70906117b6565b8015610dbd5780601f10610d9257610100808354040283529160200191610dbd565b820191906000526020600020905b815481529060010190602001808311610da057829003601f168201915b505050505081565b6002602090815260009384526040808520845180860184018051928152908401958401959095209452929052825290208054610d44906117b6565b6000610e15836001600160a01b038416611009565b9392505050565b60606000610e2983611058565b600101905060008167ffffffffffffffff811115610e4957610e496113dd565b6040519080825280601f01601f191660200182016040528015610e73576020820181803683370190505b5090508181016020015b600019016f181899199a1a9b1b9c1cb0b131b232b360811b600a86061a8153600a8504945084610eac57610eb1565b610e7d565b509392505050565b60606103776001600160a01b0383166014611130565b60606000610e15836112cc565b6000818160025b8251811015610ff8576000838281518110610f0057610f00611917565b016020015160f81c905060308110801590610f2557506039816001600160a01b031611155b15610f4d57610f35603082611a14565b610f40846010611a3c565b610f4a9190611a6b565b92505b6041816001600160a01b031610158015610f7157506046816001600160a01b031611155b15610f9957610f81603782611a14565b610f8c846010611a3c565b610f969190611a6b565b92505b6061816001600160a01b031610158015610fbd57506066816001600160a01b031611155b15610fe557610fcd605782611a14565b610fd8846010611a3c565b610fe29190611a6b565b92505b5080610ff081611944565b915050610ee3565b506001600160a01b03169392505050565b600081815260018301602052604081205461105057508154600181810184556000848152602080822090930184905584548482528286019093526040902091909155610377565b506000610377565b60008072184f03e93ff9f4daa797ed6e38ed64bf6a1f0160401b83106110975772184f03e93ff9f4daa797ed6e38ed64bf6a1f0160401b830492506040015b6d04ee2d6d415b85acef810000000083106110c3576d04ee2d6d415b85acef8100000000830492506020015b662386f26fc1000083106110e157662386f26fc10000830492506010015b6305f5e10083106110f9576305f5e100830492506008015b612710831061110d57612710830492506004015b6064831061111f576064830492506002015b600a83106103775760010192915050565b6060600061113f836002611a96565b61114a9060026118c6565b67ffffffffffffffff811115611162576111626113dd565b6040519080825280601f01601f19166020018201604052801561118c576020820181803683370190505b509050600360fc1b816000815181106111a7576111a7611917565b60200101906001600160f81b031916908160001a905350600f60fb1b816001815181106111d6576111d6611917565b60200101906001600160f81b031916908160001a90535060006111fa846002611a96565b6112059060016118c6565b90505b600181111561127d576f181899199a1a9b1b9c1cb0b131b232b360811b85600f166010811061123957611239611917565b1a60f81b82828151811061124f5761124f611917565b60200101906001600160f81b031916908160001a90535060049490941c9361127681611ab5565b9050611208565b508315610e155760405162461bcd60e51b815260206004820181905260248201527f537472696e67733a20686578206c656e67746820696e73756666696369656e7460448201526064016102bc565b60608160000180548060200260200160405190810160405280929190818152602001828054801561131c57602002820191906000526020600020905b815481526020019060010190808311611308575b50505050509050919050565b828054611334906117b6565b90600052602060002090601f016020900481019282611356576000855561139c565b82601f1061136f57805160ff191683800117855561139c565b8280016001018555821561139c579182015b8281111561139c578251825591602001919060010190611381565b506113a89291506113ac565b5090565b5b808211156113a857600081556001016113ad565b80356001600160a01b03811681146113d857600080fd5b919050565b634e487b7160e01b600052604160045260246000fd5b604051601f8201601f1916810167ffffffffffffffff8111828210171561141c5761141c6113dd565b604052919050565b600067ffffffffffffffff82111561143e5761143e6113dd565b50601f01601f191660200190565b600061145f61145a84611424565b6113f3565b905082815283838301111561147357600080fd5b828260208301376000602084830101529392505050565b600082601f83011261149b57600080fd5b610e158383356020850161144c565b600080604083850312156114bd57600080fd5b6114c6836113c1565b9150602083013567ffffffffffffffff8111156114e257600080fd5b6114ee8582860161148a565b9150509250929050565b60008060006060848603121561150d57600080fd5b833567ffffffffffffffff8082111561152557600080fd5b6115318783880161148a565b945060208601359350604086013591508082111561154e57600080fd5b508401601f8101861361156057600080fd5b61156f8682356020840161144c565b9150509250925092565b6020808252825182820181905260009190848201906040850190845b818110156115ba5783516001600160a01b031683529284019291840191600101611595565b50909695505050505050565b6000806000606084860312156115db57600080fd5b6115e4846113c1565b9250602084013567ffffffffffffffff81111561160057600080fd5b61160c8682870161148a565b925050604084013590509250925092565b60005b83811015611638578181015183820152602001611620565b83811115611647576000848401525b50505050565b6000815180845261166581602086016020860161161d565b601f01601f19169290920160200192915050565b60408152600061168c604083018561164d565b90508260208301529392505050565b600080604083850312156116ae57600080fd5b823567ffffffffffffffff8111156116c557600080fd5b6116d18582860161148a565b95602094909401359450505050565b6000602082840312156116f257600080fd5b610e15826113c1565b6000602080830181845280855180835260408601915060408160051b870101925083870160005b8281101561175057603f1988860301845261173e85835161164d565b94509285019290850190600101611722565b5092979650505050505050565b6000806040838503121561177057600080fd5b611779836113c1565b946020939093013593505050565b602081526000610e15602083018461164d565b600082516117ac81846020870161161d565b9190910192915050565b600181811c908216806117ca57607f821691505b602082108114156117eb57634e487b7160e01b600052602260045260246000fd5b50919050565b656266733a2f2f60d01b815260008551611812816006850160208a0161161d565b8083019050602f60f81b8060068301528651611835816007850160208b0161161d565b600792019182018190528551611852816008850160208a0161161d565b6008920191820152835161186d81600984016020880161161d565b016009019695505050505050565b60608152600061188e606083018661164d565b84602084015282810360408401526118a6818561164d565b9695505050505050565b634e487b7160e01b600052601160045260246000fd5b600082198211156118d9576118d96118b0565b500190565b656266733a2f2f60d01b8152600082516118ff81600685016020870161161d565b602f60f81b6006939091019283015250600701919050565b634e487b7160e01b600052603260045260246000fd5b60008282101561193f5761193f6118b0565b500390565b6000600019821415611958576119586118b0565b5060010190565b6001600160a01b03841681526060602082018190526000906119839083018561164d565b9050826040830152949350505050565b600080604083850312156119a657600080fd5b825167ffffffffffffffff8111156119bd57600080fd5b8301601f810185136119ce57600080fd5b80516119dc61145a82611424565b8181528660208385010111156119f157600080fd5b611a0282602083016020860161161d565b60209590950151949694955050505050565b60006001600160a01b0383811690831681811015611a3457611a346118b0565b039392505050565b60006001600160a01b0382811684821681151582840482111615611a6257611a626118b0565b02949350505050565b60006001600160a01b03828116848216808303821115611a8d57611a8d6118b0565b01949350505050565b6000816000190483118215151615611ab057611ab06118b0565b500290565b600081611ac457611ac46118b0565b50600019019056fea26469706673582212204ec1d4515dce708fc6e9f14f1532c2f772bd45a5abbf0fc7c3a17a5df3866e8e64736f6c634300080c0033",
  "linkReferences": {},
  "deployedLinkReferences": {}
}