{
  "_format": "hh-sol-artifact-1",
  "contractName": "BFS",
  "sourceName": "contracts/services/BFS.sol",
  "abi": [
    {
      "inputs": [],
      "stateMutability": "nonpayable",
      "type": "constructor"
    },
    {
      "inputs": [],
      "name": "FileExists",
      "type": "error"
    },
    {
      "inputs": [
        {
          "internalType": "address",
          "name": "",
          "type": "address"
        },
        {
          "internalType": "string",
          "name": "",
          "type": "string"
        }
      ],
      "name": "bfsId",
      "outputs": [
        {
          "internalType": "uint256",
          "name": "",
          "type": "uint256"
        }
      ],
      "stateMutability": "view",
      "type": "function"
    },
    {
      "inputs": [
        {
          "internalType": "address",
          "name": "",
          "type": "address"
        },
        {
          "internalType": "string",
          "name": "",
          "type": "string"
        }
      ],
      "name": "chunks",
      "outputs": [
        {
          "internalType": "uint256",
          "name": "",
          "type": "uint256"
        }
      ],
      "stateMutability": "view",
      "type": "function"
    },
    {
      "inputs": [
        {
          "internalType": "address",
          "name": "addr",
          "type": "address"
        },
        {
          "internalType": "string",
          "name": "filename",
          "type": "string"
        }
      ],
      "name": "count",
      "outputs": [
        {
          "internalType": "uint256",
          "name": "",
          "type": "uint256"
        }
      ],
      "stateMutability": "view",
      "type": "function"
    },
    {
      "inputs": [
        {
          "internalType": "address",
          "name": "",
          "type": "address"
        },
        {
          "internalType": "string",
          "name": "",
          "type": "string"
        },
        {
          "internalType": "uint256",
          "name": "",
          "type": "uint256"
        }
      ],
      "name": "dataStorage",
      "outputs": [
        {
          "internalType": "bytes",
          "name": "",
          "type": "bytes"
        }
      ],
      "stateMutability": "view",
      "type": "function"
    },
    {
      "inputs": [
        {
          "internalType": "address",
          "name": "addr",
          "type": "address"
        },
        {
          "internalType": "string",
          "name": "filename",
          "type": "string"
        }
      ],
      "name": "getId",
      "outputs": [
        {
          "internalType": "uint256",
          "name": "",
          "type": "uint256"
        }
      ],
      "stateMutability": "view",
      "type": "function"
    },
    {
      "inputs": [
        {
          "internalType": "address",
          "name": "addr",
          "type": "address"
        },
        {
          "internalType": "string",
          "name": "filename",
          "type": "string"
        },
        {
          "internalType": "uint256",
          "name": "chunkIndex",
          "type": "uint256"
        }
      ],
      "name": "load",
      "outputs": [
        {
          "internalType": "bytes",
          "name": "",
          "type": "bytes"
        },
        {
          "internalType": "int256",
          "name": "",
          "type": "int256"
        }
      ],
      "stateMutability": "view",
      "type": "function"
    },
    {
      "inputs": [
        {
          "internalType": "string",
          "name": "filename",
          "type": "string"
        },
        {
          "internalType": "uint256",
          "name": "chunkIndex",
          "type": "uint256"
        },
        {
          "internalType": "bytes",
          "name": "_data",
          "type": "bytes"
        }
      ],
      "name": "store",
      "outputs": [],
      "stateMutability": "nonpayable",
      "type": "function"
    }
  ],
  "bytecode": "0x608060405234801561001057600080fd5b50610025600061002a60201b61054f1760201c565b610033565b80546001019055565b61092a806100426000396000f3fe608060405234801561001057600080fd5b506004361061007d5760003560e01c8063a0e567641161005b578063a0e56764146100f9578063ba67e6411461011a578063d92e741e1461012d578063e0f64a381461014d57600080fd5b806385273a90146100825780638a5ca90b146100d1578063928a4b3e146100e4575b600080fd5b6100be6100903660046106c0565b6002602090815260009283526040909220815180830184018051928152908401929093019190912091525481565b6040519081526020015b60405180910390f35b6100be6100df3660046106c0565b610189565b6100f76100f236600461070e565b6101c6565b005b61010c61010736600461078f565b61032e565b6040516100c8929190610842565b6100be6101283660046106c0565b61046d565b61014061013b36600461078f565b610493565b6040516100c89190610864565b6100be61015b3660046106c0565b6003602090815260009283526040909220815180830184018051928152908401929093019190912091525481565b6001600160a01b03821660009081526003602052604080822090516101af908490610877565b908152602001604051809103902054905092915050565b3360009081526001602052604080822090516101e3908690610877565b90815260200160405180910390206000848152602001908152602001600020805461020d90610893565b9050111561022e576040516326a5c59b60e01b815260040160405180910390fd5b3360009081526001602052604090819020905182919061024f908690610877565b908152602001604051809103902060008481526020019081526020016000209080519060200190610281929190610558565b50336000908152600260205260409081902090518391906102a3908690610877565b90815260200160405180910390205410156102ea57336000908152600260205260409081902090518391906102d9908690610877565b908152604051908190036020019020555b6000543360009081526003602052604090819020905161030b908690610877565b90815260405190819003602001902055610329600080546001019055565b505050565b606060008061033e8460016108ce565b6001600160a01b03871660009081526002602052604080822090519293509091610369908890610877565b90815260200160405180910390205482116103845781610388565b6000195b6001600160a01b038816600090815260016020526040908190209051919250906103b3908890610877565b90815260200160405180910390206000868152602001908152602001600020818180546103df90610893565b80601f016020809104026020016040519081016040528092919081815260200182805461040b90610893565b80156104585780601f1061042d57610100808354040283529160200191610458565b820191906000526020600020905b81548152906001019060200180831161043b57829003601f168201915b50505050509150935093505050935093915050565b6001600160a01b03821660009081526002602052604080822090516101af908490610877565b60016020908152600093845260408085208451808601840180519281529084019584019590952094529290528252902080546104ce90610893565b80601f01602080910402602001604051908101604052809291908181526020018280546104fa90610893565b80156105475780601f1061051c57610100808354040283529160200191610547565b820191906000526020600020905b81548152906001019060200180831161052a57829003601f168201915b505050505081565b80546001019055565b82805461056490610893565b90600052602060002090601f01602090048101928261058657600085556105cc565b82601f1061059f57805160ff19168380011785556105cc565b828001600101855582156105cc579182015b828111156105cc5782518255916020019190600101906105b1565b506105d89291506105dc565b5090565b5b808211156105d857600081556001016105dd565b80356001600160a01b038116811461060857600080fd5b919050565b634e487b7160e01b600052604160045260246000fd5b600067ffffffffffffffff8084111561063e5761063e61060d565b604051601f8501601f19908116603f011681019082821181831017156106665761066661060d565b8160405280935085815286868601111561067f57600080fd5b858560208301376000602087830101525050509392505050565b600082601f8301126106aa57600080fd5b6106b983833560208501610623565b9392505050565b600080604083850312156106d357600080fd5b6106dc836105f1565b9150602083013567ffffffffffffffff8111156106f857600080fd5b61070485828601610699565b9150509250929050565b60008060006060848603121561072357600080fd5b833567ffffffffffffffff8082111561073b57600080fd5b61074787838801610699565b945060208601359350604086013591508082111561076457600080fd5b508401601f8101861361077657600080fd5b61078586823560208401610623565b9150509250925092565b6000806000606084860312156107a457600080fd5b6107ad846105f1565b9250602084013567ffffffffffffffff8111156107c957600080fd5b6107d586828701610699565b925050604084013590509250925092565b60005b838110156108015781810151838201526020016107e9565b83811115610810576000848401525b50505050565b6000815180845261082e8160208601602086016107e6565b601f01601f19169290920160200192915050565b6040815260006108556040830185610816565b90508260208301529392505050565b6020815260006106b96020830184610816565b600082516108898184602087016107e6565b9190910192915050565b600181811c908216806108a757607f821691505b602082108114156108c857634e487b7160e01b600052602260045260246000fd5b50919050565b600082198211156108ef57634e487b7160e01b600052601160045260246000fd5b50019056fea2646970667358221220255b9fd7d05596f988bc5ae669eac2e85076885e36cd375b32d64174e4e9b46164736f6c634300080c0033",
  "linkReferences": {},
  "deployedLinkReferences": {}
}