{
  "_format": "hh-sol-artifact-1",
  "contractName": "GenerativeProjectDataConfigs",
  "sourceName": "contracts/libs/configs/GenerativeProjectDataConfigs.sol",
  "abi": [
    {
      "inputs": [],
      "name": "BASE_URI",
      "outputs": [
        {
          "internalType": "string",
          "name": "",
          "type": "string"
        }
      ],
      "stateMutability": "view",
      "type": "function"
    },
    {
      "inputs": [],
      "name": "BASE_URI_TRAIT",
      "outputs": [
        {
          "internalType": "string",
          "name": "",
          "type": "string"
        }
      ],
      "stateMutability": "view",
      "type": "function"
    },
    {
      "inputs": [],
      "name": "DIV_CONTAINER",
      "outputs": [
        {
          "internalType": "string",
          "name": "",
          "type": "string"
        }
      ],
      "stateMutability": "view",
      "type": "function"
    }
  ],
  "bytecode": "0x61017161003a600b82828239805160001a60731461002d57634e487b7160e01b600052600060045260246000fd5b30600052607381538281f3fe730000000000000000000000000000000000000000301460806040526004361061004b5760003560e01c8063479b6536146100505780635a2d905214610092578063dbddb26a146100bf575b600080fd5b61007c6040518060400160405280600d81526020016c2224ab2fa1a7a72a20a4a722a960991b81525081565b60405161008991906100e6565b60405180910390f35b61007c6040518060400160405280600e81526020016d109054d157d5549257d51490525560921b81525081565b61007c60405180604001604052806008815260200167424153455f55524960c01b81525081565b600060208083528351808285015260005b81811015610113578581018301518582016040015282016100f7565b81811115610125576000604083870101525b50601f01601f191692909201604001939250505056fea2646970667358221220b792f7072b34e8ef43dc87c40743333c5198664e15a9a41336dc75ec3293bea264736f6c634300080c0033",
  "linkReferences": {},
  "deployedLinkReferences": {}
}