{
  "_format": "hh-sol-artifact-1",
  "contractName": "GenerativeProjectDataConfigs",
  "sourceName": "contracts/libs/configs/GenerativeProjectDataConfigs.sol",
  "abi": [
    {
      "inputs": [],
      "name": "BASE_URI",
      "outputs": [
        {
          "internalType": "string",
          "name": "",
          "type": "string"
        }
      ],
      "stateMutability": "view",
      "type": "function"
    },
    {
      "inputs": [],
      "name": "BASE_URI_TRAIT",
      "outputs": [
        {
          "internalType": "string",
          "name": "",
          "type": "string"
        }
      ],
      "stateMutability": "view",
      "type": "function"
    },
    {
      "inputs": [],
      "name": "RANDOM_FUNC_SCRIPT",
      "outputs": [
        {
          "internalType": "string",
          "name": "",
          "type": "string"
        }
      ],
      "stateMutability": "view",
      "type": "function"
    }
  ],
  "bytecode": "0x61017661003a600b82828239805160001a60731461002d57634e487b7160e01b600052600060045260246000fd5b30600052607381538281f3fe730000000000000000000000000000000000000000301460806040526004361061004b5760003560e01c80635a2d9052146100505780638be4333a14610093578063dbddb26a146100c4575b600080fd5b61007d6040518060400160405280600e81526020016d109054d157d5549257d51490525560921b81525081565b60405161008a91906100eb565b60405180910390f35b61007d604051806040016040528060128152602001711490539113d357d1955390d7d4d0d492541560721b81525081565b61007d60405180604001604052806008815260200167424153455f55524960c01b81525081565b600060208083528351808285015260005b81811015610118578581018301518582016040015282016100fc565b8181111561012a576000604083870101525b50601f01601f191692909201604001939250505056fea2646970667358221220aac55554bd5b13578f90478354a55e2600b3cc6e3c32f372abd0a2104589f31c64736f6c634300080c0033",
  "linkReferences": {},
  "deployedLinkReferences": {}
}