{
  "_format": "hh-sol-artifact-1",
  "contractName": "GenerativeProjectDataConfigs",
  "sourceName": "contracts/libs/configs/GenerativeProjectDataConfigs.sol",
  "abi": [
    {
      "inputs": [],
      "name": "BASE_URI",
      "outputs": [
        {
          "internalType": "string",
          "name": "",
          "type": "string"
        }
      ],
      "stateMutability": "view",
      "type": "function"
    },
    {
      "inputs": [],
      "name": "BASE_URI_TRAIT",
      "outputs": [
        {
          "internalType": "string",
          "name": "",
          "type": "string"
        }
      ],
      "stateMutability": "view",
      "type": "function"
    }
  ],
  "bytecode": "0x61013061003a600b82828239805160001a60731461002d57634e487b7160e01b600052600060045260246000fd5b30600052607381538281f3fe7300000000000000000000000000000000000000003014608060405260043610603d5760003560e01c80635a2d9052146042578063dbddb26a146082575b600080fd5b606e6040518060400160405280600e81526020016d109054d157d5549257d51490525560921b81525081565b6040516079919060a8565b60405180910390f35b606e60405180604001604052806008815260200167424153455f55524960c01b81525081565b600060208083528351808285015260005b8181101560d35785810183015185820160400152820160b9565b8181111560e4576000604083870101525b50601f01601f191692909201604001939250505056fea264697066735822122047e7b7d9625b2cfac8fa293cf3af15bdff0e0cdba48bc7c6b0cb6adc0fcfc6dc64736f6c634300080c0033",
  "linkReferences": {},
  "deployedLinkReferences": {}
}