{
  "_format": "hh-sol-artifact-1",
  "contractName": "Collaboration",
  "sourceName": "contracts/services/Collaboration.sol",
  "abi": [
    {
      "inputs": [
        {
          "components": [
            {
              "internalType": "address[]",
              "name": "_collaborators",
              "type": "address[]"
            },
            {
              "internalType": "uint256[]",
              "name": "_shared",
              "type": "uint256[]"
            }
          ],
          "internalType": "struct Royalty.CollaborationShared",
          "name": "params",
          "type": "tuple"
        }
      ],
      "stateMutability": "nonpayable",
      "type": "constructor"
    },
    {
      "anonymous": false,
      "inputs": [
        {
          "indexed": true,
          "internalType": "address",
          "name": "previousOwner",
          "type": "address"
        },
        {
          "indexed": true,
          "internalType": "address",
          "name": "newOwner",
          "type": "address"
        }
      ],
      "name": "OwnershipTransferred",
      "type": "event"
    },
    {
      "inputs": [
        {
          "internalType": "address",
          "name": "",
          "type": "address"
        }
      ],
      "name": "_collaborations",
      "outputs": [
        {
          "internalType": "uint256",
          "name": "",
          "type": "uint256"
        }
      ],
      "stateMutability": "view",
      "type": "function"
    },
    {
      "inputs": [
        {
          "internalType": "uint256",
          "name": "",
          "type": "uint256"
        }
      ],
      "name": "_collaborators",
      "outputs": [
        {
          "internalType": "address",
          "name": "",
          "type": "address"
        }
      ],
      "stateMutability": "view",
      "type": "function"
    },
    {
      "inputs": [],
      "name": "_total",
      "outputs": [
        {
          "internalType": "uint256",
          "name": "",
          "type": "uint256"
        }
      ],
      "stateMutability": "view",
      "type": "function"
    },
    {
      "inputs": [
        {
          "internalType": "address",
          "name": "operator",
          "type": "address"
        },
        {
          "internalType": "address",
          "name": "from",
          "type": "address"
        },
        {
          "internalType": "uint256",
          "name": "tokenId",
          "type": "uint256"
        },
        {
          "internalType": "bytes",
          "name": "data",
          "type": "bytes"
        }
      ],
      "name": "onERC721Received",
      "outputs": [
        {
          "internalType": "bytes4",
          "name": "",
          "type": "bytes4"
        }
      ],
      "stateMutability": "nonpayable",
      "type": "function"
    },
    {
      "inputs": [],
      "name": "owner",
      "outputs": [
        {
          "internalType": "address",
          "name": "",
          "type": "address"
        }
      ],
      "stateMutability": "view",
      "type": "function"
    },
    {
      "inputs": [],
      "name": "renounceOwnership",
      "outputs": [],
      "stateMutability": "nonpayable",
      "type": "function"
    },
    {
      "inputs": [
        {
          "internalType": "address",
          "name": "newOwner",
          "type": "address"
        }
      ],
      "name": "transferOwnership",
      "outputs": [],
      "stateMutability": "nonpayable",
      "type": "function"
    },
    {
      "inputs": [
        {
          "internalType": "address",
          "name": "erc20Addr",
          "type": "address"
        }
      ],
      "name": "withdraw",
      "outputs": [],
      "stateMutability": "nonpayable",
      "type": "function"
    }
  ],
  "bytecode": "0x60806040523480156200001157600080fd5b5060405162000dd338038062000dd38339810160408190526200003491620002c7565b6200003f336200016a565b6001805560005b8151518110156200016257816020015181815181106200006a576200006a620003d2565b602002602001015160026000846000015184815181106200008f576200008f620003d2565b60200260200101516001600160a01b03166001600160a01b0316815260200190815260200160002081905550600382600001518281518110620000d657620000d6620003d2565b602090810291909101810151825460018101845560009384529282902090920180546001600160a01b0319166001600160a01b03909316929092179091558201518051829081106200012c576200012c620003d2565b602002602001015160046000828254620001479190620003fe565b90915550819050620001598162000419565b91505062000046565b505062000437565b600080546001600160a01b038381166001600160a01b0319831681178455604051919092169283917f8be0079c531659141344cd1fd0a4f28419497f9722a3daafe3b4186f6b6457e09190a35050565b634e487b7160e01b600052604160045260246000fd5b604080519081016001600160401b0381118282101715620001f557620001f5620001ba565b60405290565b604051601f8201601f191681016001600160401b0381118282101715620002265762000226620001ba565b604052919050565b60006001600160401b038211156200024a576200024a620001ba565b5060051b60200190565b600082601f8301126200026657600080fd5b815160206200027f62000279836200022e565b620001fb565b82815260059290921b840181019181810190868411156200029f57600080fd5b8286015b84811015620002bc5780518352918301918301620002a3565b509695505050505050565b60006020808385031215620002db57600080fd5b82516001600160401b0380821115620002f357600080fd5b90840190604082870312156200030857600080fd5b62000312620001d0565b8251828111156200032257600080fd5b8301601f810188136200033457600080fd5b80516200034562000279826200022e565b81815260059190911b8201860190868101908a8311156200036557600080fd5b928701925b828410156200039c5783516001600160a01b03811681146200038c5760008081fd5b825292870192908701906200036a565b84525050508284015182811115620003b357600080fd5b620003c18882860162000254565b948201949094529695505050505050565b634e487b7160e01b600052603260045260246000fd5b634e487b7160e01b600052601160045260246000fd5b60008219821115620004145762000414620003e8565b500190565b6000600019821415620004305762000430620003e8565b5060010190565b61098c80620004476000396000f3fe608060405234801561001057600080fd5b50600436106100885760003560e01c80637a27da791161005b5780637a27da791461012b5780638da5cb5b14610142578063a43a083814610153578063f2fde38b1461017357600080fd5b8063150b7a021461008d57806315c4dcb4146100e357806351cff8d91461010e578063715018a614610123575b600080fd5b6100c561009b366004610739565b7f150b7a023d4804d13e8c85fb27262cb750cf6ba9f9dd3bb30d90f482ceeb4b1f95945050505050565b6040516001600160e01b031990911681526020015b60405180910390f35b6100f66100f13660046107d4565b610186565b6040516001600160a01b0390911681526020016100da565b61012161011c3660046107ed565b6101b0565b005b610121610487565b61013460045481565b6040519081526020016100da565b6000546001600160a01b03166100f6565b6101346101613660046107ed565b60026020526000908152604090205481565b6101216101813660046107ed565b61049b565b6003818154811061019657600080fd5b6000918252602090912001546001600160a01b0316905081565b6101b8610511565b33600090815260026020908152604091829020548251808401909352600383526231303160e81b9183019190915261020c5760405162461bcd60e51b8152600401610203919061080f565b60405180910390fd5b5060008061021861056b565b905060006001600160a01b03841661030157504760005b82518110156102fb576003818154811061024b5761024b610864565b60009182526020909120015483516001600160a01b03909116906127109085908490811061027b5761027b610864565b60200260200101518461028e9190610890565b61029891906108af565b604051600081818185875af1925050503d80600081146102d4576040519150601f19603f3d011682016040523d82523d6000602084013e6102d9565b606091505b505080945050836102e957600080fd5b806102f3816108d1565b91505061022f565b50610478565b6040516370a0823160e01b815230600482015284906001600160a01b038216906370a0823190602401602060405180830381865afa158015610347573d6000803e3d6000fd5b505050506040513d601f19601f8201168201806040525081019061036b91906108ec565b915060005b835181101561047557816001600160a01b031663a9059cbb6003838154811061039b5761039b610864565b9060005260206000200160009054906101000a90046001600160a01b03166127108785815181106103ce576103ce610864565b6020026020010151876103e19190610890565b6103eb91906108af565b6040516001600160e01b031960e085901b1681526001600160a01b03909216600483015260248201526044016020604051808303816000875af1158015610436573d6000803e3d6000fd5b505050506040513d601f19601f8201168201806040525081019061045a9190610905565b61046357600080fd5b8061046d816108d1565b915050610370565b50505b50505061048460018055565b50565b61048f610673565b61049960006106cd565b565b6104a3610673565b6001600160a01b0381166105085760405162461bcd60e51b815260206004820152602660248201527f4f776e61626c653a206e6577206f776e657220697320746865207a65726f206160448201526564647265737360d01b6064820152608401610203565b610484816106cd565b600260015414156105645760405162461bcd60e51b815260206004820152601f60248201527f5265656e7472616e637947756172643a207265656e7472616e742063616c6c006044820152606401610203565b6002600155565b6060806000805b60035461058190600190610927565b8110156106345760045460026000600384815481106105a2576105a2610864565b60009182526020808320909101546001600160a01b031683528201929092526040019020546105d191906108af565b6105dd90612710610890565b8382815181106105ef576105ef610864565b60200260200101818152505082818151811061060d5761060d610864565b602002602001015182610620919061093e565b91508061062c816108d1565b915050610572565b5061064181612710610927565b600354839061065290600190610927565b8151811061066257610662610864565b602090810291909101015250919050565b6000546001600160a01b031633146104995760405162461bcd60e51b815260206004820181905260248201527f4f776e61626c653a2063616c6c6572206973206e6f7420746865206f776e65726044820152606401610203565b600080546001600160a01b038381166001600160a01b0319831681178455604051919092169283917f8be0079c531659141344cd1fd0a4f28419497f9722a3daafe3b4186f6b6457e09190a35050565b80356001600160a01b038116811461073457600080fd5b919050565b60008060008060006080868803121561075157600080fd5b61075a8661071d565b94506107686020870161071d565b935060408601359250606086013567ffffffffffffffff8082111561078c57600080fd5b818801915088601f8301126107a057600080fd5b8135818111156107af57600080fd5b8960208285010111156107c157600080fd5b9699959850939650602001949392505050565b6000602082840312156107e657600080fd5b5035919050565b6000602082840312156107ff57600080fd5b6108088261071d565b9392505050565b600060208083528351808285015260005b8181101561083c57858101830151858201604001528201610820565b8181111561084e576000604083870101525b50601f01601f1916929092016040019392505050565b634e487b7160e01b600052603260045260246000fd5b634e487b7160e01b600052601160045260246000fd5b60008160001904831182151516156108aa576108aa61087a565b500290565b6000826108cc57634e487b7160e01b600052601260045260246000fd5b500490565b60006000198214156108e5576108e561087a565b5060010190565b6000602082840312156108fe57600080fd5b5051919050565b60006020828403121561091757600080fd5b8151801515811461080857600080fd5b6000828210156109395761093961087a565b500390565b600082198211156109515761095161087a565b50019056fea2646970667358221220cdb53a510bf6b87dea73487051fb7560687101677aba4c2c72bb5c6f8431a2d664736f6c634300080c0033",
  "linkReferences": {},
  "deployedLinkReferences": {}
}